{
  "address": "0xB34A2F7f32cc587C3562E695fBe24756E6BE5638",
  "abi": [
    {
      "inputs": [
        {
          "internalType": "contract IBabController",
          "name": "_controller",
          "type": "address"
        },
        {
          "internalType": "uint256",
          "name": "_maxCollateralFactor",
          "type": "uint256"
        }
      ],
      "stateMutability": "nonpayable",
      "type": "constructor"
    },
    {
      "anonymous": false,
      "inputs": [
        {
          "indexed": true,
          "internalType": "contract IStrategy",
          "name": "strategy",
          "type": "address"
        },
        {
          "indexed": true,
          "internalType": "contract IGarden",
          "name": "garden",
          "type": "address"
        },
        {
          "indexed": false,
          "internalType": "address",
          "name": "asset",
          "type": "address"
        },
        {
          "indexed": false,
          "internalType": "uint256",
          "name": "amount",
          "type": "uint256"
        }
      ],
      "name": "AmountBorrowed",
      "type": "event"
    },
    {
      "anonymous": false,
      "inputs": [
        {
          "indexed": true,
          "internalType": "contract IStrategy",
          "name": "strategy",
          "type": "address"
        },
        {
          "indexed": true,
          "internalType": "contract IGarden",
          "name": "garden",
          "type": "address"
        },
        {
          "indexed": false,
          "internalType": "address",
          "name": "asset",
          "type": "address"
        },
        {
          "indexed": false,
          "internalType": "uint256",
          "name": "amount",
          "type": "uint256"
        }
      ],
      "name": "AmountRepaid",
      "type": "event"
    },
    {
      "inputs": [
        {
          "internalType": "address",
          "name": "_strategy",
          "type": "address"
        },
        {
          "internalType": "address",
          "name": "asset",
          "type": "address"
        },
        {
          "internalType": "uint256",
          "name": "amount",
          "type": "uint256"
        }
      ],
      "name": "borrow",
      "outputs": [],
      "stateMutability": "nonpayable",
      "type": "function"
    },
    {
      "inputs": [],
      "name": "controller",
      "outputs": [
        {
          "internalType": "contract IBabController",
          "name": "",
          "type": "address"
        }
      ],
      "stateMutability": "view",
      "type": "function"
    },
    {
      "inputs": [
        {
          "internalType": "address",
          "name": "_strategy",
          "type": "address"
        },
        {
          "internalType": "address",
          "name": "asset",
          "type": "address"
        }
      ],
      "name": "getBorrowBalance",
      "outputs": [
        {
          "internalType": "uint256",
          "name": "",
          "type": "uint256"
        }
      ],
      "stateMutability": "view",
      "type": "function"
    },
    {
      "inputs": [
        {
          "internalType": "address",
          "name": "_strategy",
          "type": "address"
        },
        {
          "internalType": "address",
          "name": "",
          "type": "address"
        }
      ],
      "name": "getCollateralBalance",
      "outputs": [
        {
          "internalType": "uint256",
          "name": "",
          "type": "uint256"
        }
      ],
      "stateMutability": "view",
      "type": "function"
    },
    {
      "inputs": [
        {
          "internalType": "address",
          "name": "_assetToken",
          "type": "address"
        }
      ],
      "name": "getCollateralFactor",
      "outputs": [
        {
          "internalType": "uint256",
          "name": "",
          "type": "uint256"
        }
      ],
      "stateMutability": "view",
      "type": "function"
    },
    {
      "inputs": [
        {
          "internalType": "address",
          "name": "_strategy",
          "type": "address"
        }
      ],
      "name": "getRemainingLiquidity",
      "outputs": [
        {
          "internalType": "uint256",
          "name": "",
          "type": "uint256"
        }
      ],
      "stateMutability": "view",
      "type": "function"
    },
    {
      "inputs": [],
      "name": "maxCollateralFactor",
      "outputs": [
        {
          "internalType": "uint256",
          "name": "",
          "type": "uint256"
        }
      ],
      "stateMutability": "view",
      "type": "function"
    },
    {
      "inputs": [],
      "name": "name",
      "outputs": [
        {
          "internalType": "string",
          "name": "",
          "type": "string"
        }
      ],
      "stateMutability": "view",
      "type": "function"
    },
    {
      "inputs": [
        {
          "internalType": "address",
          "name": "_strategy",
          "type": "address"
        },
        {
          "internalType": "address",
          "name": "asset",
          "type": "address"
        },
        {
          "internalType": "uint256",
          "name": "amount",
          "type": "uint256"
        }
      ],
      "name": "repay",
      "outputs": [],
      "stateMutability": "nonpayable",
      "type": "function"
    },
    {
      "inputs": [
        {
          "internalType": "uint256",
          "name": "_newMaxCollateralFactor",
          "type": "uint256"
        }
      ],
      "name": "updateMaxCollateralFactor",
      "outputs": [],
      "stateMutability": "nonpayable",
      "type": "function"
    }
  ],
  "transactionHash": "0x916527d226cf911dd4abe3eeb0c897c724f1465cf98f7a6132ee27f4f6135f3e",
  "args": [
    "0xD4a5b5fcB561dAF3aDF86F8477555B92FBa43b5F",
    "400000000000000000"
  ],
  "numDeployments": 2,
  "solcInputHash": "ba6203999d233d8052c16bb880537de0",
  "bytecode": "0x60a06040523480156200001157600080fd5b5060405162001af738038062001af7833981810160405260408110156200003757600080fd5b50805160209182015160408051808201909152600a81526961617665626f72726f7760b01b938101939093529091828282826001600160a01b038116620000c5576040805162461bcd60e51b815260206004820152601a60248201527f436f6e74726f6c6c6572206d75737420626520646566696e6564000000000000604482015290519081900360640190fd5b8151620000da906000906020850190620000fe565b5060601b6001600160601b031916608052506001805560025550620001aa92505050565b828054600181600116156101000203166002900490600052602060002090601f01602090048101928262000136576000855562000181565b82601f106200015157805160ff191683800117855562000181565b8280016001018555821562000181579182015b828111156200018157825182559160200191906001019062000164565b506200018f92915062000193565b5090565b5b808211156200018f576000815560010162000194565b60805160601c611920620001d7600039806104775280610a9552806110ac528061121452506119206000f3fe608060405234801561001057600080fd5b50600436106100be5760003560e01c80638dc4418311610076578063bf95f0e91161005b578063bf95f0e91461024a578063d92f209f14610267578063f77c47911461028d576100be565b80638dc4418314610214578063b7d5820b1461021c576100be565b80631da649cf116100a75780631da649cf1461018057806323617585146101b85780635224372c146101de576100be565b806306fdde03146100c3578063118e31b714610140575b600080fd5b6100cb6102b1565b6040805160208082528351818301528351919283929083019185019080838360005b838110156101055781810151838201526020016100ed565b50505050905090810190601f1680156101325780820380516001836020036101000a031916815260200191505b509250505060405180910390f35b61016e6004803603604081101561015657600080fd5b506001600160a01b038135811691602001351661033f565b60408051918252519081900360200190f35b6101b66004803603606081101561019657600080fd5b506001600160a01b038135811691602081013590911690604001356103fa565b005b61016e600480360360208110156101ce57600080fd5b50356001600160a01b0316610a0d565b6101b6600480360360608110156101f457600080fd5b506001600160a01b03813581169160208101359091169060400135610a18565b61016e610f91565b61016e6004803603604081101561023257600080fd5b506001600160a01b0381358116916020013516610f97565b6101b66004803603602081101561026057600080fd5b503561102f565b61016e6004803603602081101561027d57600080fd5b50356001600160a01b0316611178565b610295611212565b604080516001600160a01b039092168252519081900360200190f35b6000805460408051602060026001851615610100026000190190941693909304601f810184900484028201840190925281815292918301828280156103375780601f1061030c57610100808354040283529160200191610337565b820191906000526020600020905b81548152906001019060200180831161031a57829003601f168201915b505050505081565b604080517f28dd2d010000000000000000000000000000000000000000000000000000000081526001600160a01b038381166004830152841660248201529051600091829173057835ad21a177dbdd3090bb1cae03eacf78fc6d916328dd2d0191604480830192610120929190829003018186803b1580156103c057600080fd5b505afa1580156103d4573d6000803e3d6000fd5b505050506040513d6101208110156103eb57600080fd5b50602001519150505b92915050565b60026001541415610452576040805162461bcd60e51b815260206004820152601f60248201527f5265656e7472616e637947756172643a207265656e7472616e742063616c6c00604482015290519081900360640190fd5b6002600155604080516313bc6d4b60e01b815233600482015290516001600160a01b037f000000000000000000000000000000000000000000000000000000000000000016916313bc6d4b916024808301926020929190829003018186803b1580156104bd57600080fd5b505afa1580156104d1573d6000803e3d6000fd5b505050506040513d60208110156104e757600080fd5b505161053a576040805162461bcd60e51b815260206004820152601960248201527f4f6e6c792073797374656d2063616e2063616c6c207468697300000000000000604482015290519081900360640190fd5b60006105498484846001611236565b90506105548161130e565b6000808061056486866001611400565b919450925090506001600160a01b0383161561072e5783600001516001600160a01b0316636bc195dd8484846040518463ffffffff1660e01b815260040180846001600160a01b0316815260200183815260200180602001828103825283818151815260200191508051906020019080838360005b838110156105f15781810151838201526020016105d9565b50505050905090810190601f16801561061e5780820380516001836020036101000a031916815260200191505b50945050505050600060405180830381600087803b15801561063f57600080fd5b505af1158015610653573d6000803e3d6000fd5b505050506040513d6000823e601f3d908101601f19168201604052602081101561067c57600080fd5b810190808051604051939291908464010000000082111561069c57600080fd5b9083019060208201858111156106b157600080fd5b82516401000000008111828201881017156106cb57600080fd5b82525081516020918201929091019080838360005b838110156106f85781810151838201526020016106e0565b50505050905090810190601f1680156107255780820380516001836020036101000a031916815260200191505b50604052505050505b6001600160a01b038616156107c75783516001600160a01b03166397ccdc6061075688611418565b88886040518463ffffffff1660e01b815260040180846001600160a01b03168152602001836001600160a01b031681526020018281526020019350505050600060405180830381600087803b1580156107ae57600080fd5b505af11580156107c2573d6000803e3d6000fd5b505050505b60008060006107d78a8a8a611431565b92509250925086600001516001600160a01b0316636bc195dd8484846040518463ffffffff1660e01b815260040180846001600160a01b0316815260200183815260200180602001828103825283818151815260200191508051906020019080838360005b8381101561085457818101518382015260200161083c565b50505050905090810190601f1680156108815780820380516001836020036101000a031916815260200191505b50945050505050600060405180830381600087803b1580156108a257600080fd5b505af11580156108b6573d6000803e3d6000fd5b505050506040513d6000823e601f3d908101601f1916820160405260208110156108df57600080fd5b81019080805160405193929190846401000000008211156108ff57600080fd5b90830190602082018581111561091457600080fd5b825164010000000081118282018810171561092e57600080fd5b82525081516020918201929091019080838360005b8381101561095b578181015183820152602001610943565b50505050905090810190601f1680156109885780820380516001836020036101000a031916815260200191505b5060405250505050610999876114d7565b86602001516001600160a01b031687600001516001600160a01b03167f953ac0f64e660bd9358471208544a0fa23b1ad2cdbf382fe3895ec090e2a1e568b8b60405180836001600160a01b031681526020018281526020019250505060405180910390a35050600180555050505050505050565b60006103f482611543565b60026001541415610a70576040805162461bcd60e51b815260206004820152601f60248201527f5265656e7472616e637947756172643a207265656e7472616e742063616c6c00604482015290519081900360640190fd5b6002600155604080516313bc6d4b60e01b815233600482015290516001600160a01b037f000000000000000000000000000000000000000000000000000000000000000016916313bc6d4b916024808301926020929190829003018186803b158015610adb57600080fd5b505afa158015610aef573d6000803e3d6000fd5b505050506040513d6020811015610b0557600080fd5b5051610b58576040805162461bcd60e51b815260206004820152601960248201527f4f6e6c792073797374656d2063616e2063616c6c207468697300000000000000604482015290519081900360640190fd5b6000610b678484846000611236565b9050610b72816115f1565b60008080610b81868683611400565b919450925090506001600160a01b03831615610d4b5783600001516001600160a01b0316636bc195dd8484846040518463ffffffff1660e01b815260040180846001600160a01b0316815260200183815260200180602001828103825283818151815260200191508051906020019080838360005b83811015610c0e578181015183820152602001610bf6565b50505050905090810190601f168015610c3b5780820380516001836020036101000a031916815260200191505b50945050505050600060405180830381600087803b158015610c5c57600080fd5b505af1158015610c70573d6000803e3d6000fd5b505050506040513d6000823e601f3d908101601f191682016040526020811015610c9957600080fd5b8101908080516040519392919084640100000000821115610cb957600080fd5b908301906020820185811115610cce57600080fd5b8251640100000000811182820188101715610ce857600080fd5b82525081516020918201929091019080838360005b83811015610d15578181015183820152602001610cfd565b50505050905090810190601f168015610d425780820380516001836020036101000a031916815260200191505b50604052505050505b6000806000610d5b8a8a8a611652565b92509250925086600001516001600160a01b0316636bc195dd8484846040518463ffffffff1660e01b815260040180846001600160a01b0316815260200183815260200180602001828103825283818151815260200191508051906020019080838360005b83811015610dd8578181015183820152602001610dc0565b50505050905090810190601f168015610e055780820380516001836020036101000a031916815260200191505b50945050505050600060405180830381600087803b158015610e2657600080fd5b505af1158015610e3a573d6000803e3d6000fd5b505050506040513d6000823e601f3d908101601f191682016040526020811015610e6357600080fd5b8101908080516040519392919084640100000000821115610e8357600080fd5b908301906020820185811115610e9857600080fd5b8251640100000000811182820188101715610eb257600080fd5b82525081516020918201929091019080838360005b83811015610edf578181015183820152602001610ec7565b50505050905090810190601f168015610f0c5780820380516001836020036101000a031916815260200191505b5060405250505050610f1d876116fd565b86602001516001600160a01b031687600001516001600160a01b03167f2ec5eda0a8db97f94fa37b7d1c339013a051f2286a5c9f2be7e907641d1c03568b8b60405180836001600160a01b031681526020018281526020019250505060405180910390a35050600180555050505050505050565b60025481565b600080737d2768de32b0b80b7a3454c06bdac94a69ddc7a96001600160a01b031663bf92857c856040518263ffffffff1660e01b815260040180826001600160a01b0316815260200191505060c06040518083038186803b158015610ffb57600080fd5b505afa15801561100f573d6000803e3d6000fd5b505050506040513d60c081101561102557600080fd5b5051949350505050565b60026001541415611087576040805162461bcd60e51b815260206004820152601f60248201527f5265656e7472616e637947756172643a207265656e7472616e742063616c6c00604482015290519081900360640190fd5b6002600155604080516313bc6d4b60e01b815233600482015290516001600160a01b037f000000000000000000000000000000000000000000000000000000000000000016916313bc6d4b916024808301926020929190829003018186803b1580156110f257600080fd5b505afa158015611106573d6000803e3d6000fd5b505050506040513d602081101561111c57600080fd5b505161116f576040805162461bcd60e51b815260206004820152601960248201527f4f6e6c792073797374656d2063616e2063616c6c207468697300000000000000604482015290519081900360640190fd5b60025560018055565b600080737d2768de32b0b80b7a3454c06bdac94a69ddc7a96001600160a01b031663bf92857c846040518263ffffffff1660e01b815260040180826001600160a01b0316815260200191505060c06040518083038186803b1580156111dc57600080fd5b505afa1580156111f0573d6000803e3d6000fd5b505050506040513d60c081101561120657600080fd5b50604001519392505050565b7f000000000000000000000000000000000000000000000000000000000000000081565b61123e611870565b611246611870565b6001600160a01b038616808252604080517f56ba88b800000000000000000000000000000000000000000000000000000000815290516356ba88b891600480820192602092909190829003018186803b1580156112a257600080fd5b505afa1580156112b6573d6000803e3d6000fd5b505050506040513d60208110156112cc57600080fd5b50516001600160a01b0390811660208301528516604082018190526112f290879061033f565b608082015260608101939093525060ff1660a082015292915050565b60408101516000906001600160a01b0316156113aa5781604001516001600160a01b03166370a0823183600001516040518263ffffffff1660e01b815260040180826001600160a01b0316815260200191505060206040518083038186803b15801561137957600080fd5b505afa15801561138d573d6000803e3d6000fd5b505050506040513d60208110156113a357600080fd5b50516113b7565b81516001600160a01b0316315b905081606001518110156113fc5760405162461bcd60e51b81526004018080602001828103825260238152602001806118a66023913960400191505060405180910390fd5b5050565b50506040805160208101909152600080825292839250565b50737d2768de32b0b80b7a3454c06bdac94a69ddc7a990565b604080516001600160a01b039384166024820152604481019290925260016064830152929091166084808301919091528251808303909101815260a49091019091526020810180517bffffffffffffffffffffffffffffffffffffffffffffffffffffffff167f573ade8100000000000000000000000000000000000000000000000000000000179052737d2768de32b0b80b7a3454c06bdac94a69ddc7a99160009190565b80608001516114ee8260000151836040015161033f565b10611540576040805162461bcd60e51b815260206004820152601360248201527f4465627420776173206e6f742072657061696400000000000000000000000000604482015290519081900360640190fd5b50565b60008073057835ad21a177dbdd3090bb1cae03eacf78fc6d6001600160a01b0316633e150141846040518263ffffffff1660e01b815260040180826001600160a01b031681526020019150506101406040518083038186803b1580156115a857600080fd5b505afa1580156115bc573d6000803e3d6000fd5b505050506040513d6101408110156115d357600080fd5b506040015190506115ea81655af3107a400061184c565b9392505050565b60006116008260000151611178565b11611540576040805162461bcd60e51b815260206004820152601460248201527f4e6f7420656e6f756768206c6971756964697479000000000000000000000000604482015290519081900360640190fd5b604080516001600160a01b0393841660248201526044810192909252600160648301526000608483018190529390921660a4808301919091528251808303909101815260c49091019091526020810180517bffffffffffffffffffffffffffffffffffffffffffffffffffffffff167fa415bcad00000000000000000000000000000000000000000000000000000000179052737d2768de32b0b80b7a3454c06bdac94a69ddc7a992565b60408101516000906001600160a01b0316156117995781604001516001600160a01b03166370a0823183600001516040518263ffffffff1660e01b815260040180826001600160a01b0316815260200191505060206040518083038186803b15801561176857600080fd5b505afa15801561177c573d6000803e3d6000fd5b505050506040513d602081101561179257600080fd5b50516117a6565b81516001600160a01b0316315b905081606001518110156117eb5760405162461bcd60e51b81526004018080602001828103825260228152602001806118c96022913960400191505060405180910390fd5b60006117fa8360000151611178565b116113fc576040805162461bcd60e51b815260206004820152601460248201527f4e6f7420656e6f756768206c6971756964697479000000000000000000000000604482015290519081900360640190fd5b60008215806118675750508181028183828161186457fe5b04145b6103f457600080fd5b6040805160c081018252600080825260208201819052918101829052606081018290526080810182905260a08101919091529056fe576520646f206e6f74206861766520656e6f75676820746f2072657061792064656274446964206e6f7420726563656976652074686520626f72726f776564206173736574a2646970667358221220adeecd5a945ecf640e87d3cf3b7aa8d418612da7b0ac426353bcc89e036348b764736f6c63430007060033",
  "devdoc": {
    "author": "Babylon Finance Abstract class that houses aave borring/lending logic.",
    "kind": "dev",
    "methods": {
      "borrow(address,address,uint256)": {
        "params": {
          "amount": "The amount to borrow",
          "asset": "The asset to be borrowed"
        }
      },
      "constructor": {
        "params": {
          "_controller": "Address of the controller",
          "_maxCollateralFactor": "Max collateral factor allowed (from 0 to a 100)"
        }
      },
      "getBorrowBalance(address,address)": {
        "params": {
          "asset": "The underlying asset"
        }
      },
      "getCollateralFactor(address)": {
        "params": {
          "_assetToken": "Asset to get the collateral factor"
        }
      },
      "repay(address,address,uint256)": {
        "params": {
          "amount": "The amount to repay",
          "asset": "The asset to be repaid"
        }
      }
    },
    "title": "AaveBorrowIntegration",
    "version": 1
  },
  "userdoc": {
    "kind": "user",
    "methods": {
      "borrow(address,address,uint256)": {
        "notice": "Borrows an asset"
      },
      "constructor": {
        "notice": "Creates the integration"
      },
      "getBorrowBalance(address,address)": {
        "notice": "Get the amount of borrowed debt that needs to be repaid"
      },
      "getCollateralBalance(address,address)": {
        "notice": "Get the amount of collateral supplied hparam asset   The collateral asset"
      },
      "getCollateralFactor(address)": {
        "notice": "Returns the collateral factor of an asset"
      },
      "getRemainingLiquidity(address)": {
        "notice": "Get the remaining liquidity available to borrow"
      },
      "repay(address,address,uint256)": {
        "notice": "Repays a borrowed asset debt"
      }
    },
    "version": 1
  },
  "storageLayout": {
    "storage": [
      {
        "astId": 27259,
        "contract": "contracts/integrations/borrow/AaveBorrowIntegration.sol:AaveBorrowIntegration",
        "label": "name",
        "offset": 0,
        "slot": "0",
        "type": "t_string_storage"
      },
      {
        "astId": 6418,
        "contract": "contracts/integrations/borrow/AaveBorrowIntegration.sol:AaveBorrowIntegration",
        "label": "_status",
        "offset": 0,
        "slot": "1",
        "type": "t_uint256"
      },
      {
        "astId": 27710,
        "contract": "contracts/integrations/borrow/AaveBorrowIntegration.sol:AaveBorrowIntegration",
        "label": "maxCollateralFactor",
        "offset": 0,
        "slot": "2",
        "type": "t_uint256"
      }
    ],
    "types": {
      "t_string_storage": {
        "encoding": "bytes",
        "label": "string",
        "numberOfBytes": "32"
      },
      "t_uint256": {
        "encoding": "inplace",
        "label": "uint256",
        "numberOfBytes": "32"
      }
    }
  }
}