{
  "address": "0x4824A7824D51763E251726bF588e27154B8e00A3",
  "abi": [
    {
      "inputs": [
        {
          "internalType": "contract IBabController",
          "name": "_controller",
          "type": "address"
        },
        {
          "internalType": "address",
          "name": "_weth",
          "type": "address"
        },
        {
          "internalType": "uint256",
          "name": "_maxCollateralFactor",
          "type": "uint256"
        }
      ],
      "stateMutability": "nonpayable",
      "type": "constructor"
    },
    {
      "anonymous": false,
      "inputs": [
        {
          "indexed": true,
          "internalType": "contract IStrategy",
          "name": "strategy",
          "type": "address"
        },
        {
          "indexed": true,
          "internalType": "contract IGarden",
          "name": "garden",
          "type": "address"
        },
        {
          "indexed": false,
          "internalType": "address",
          "name": "asset",
          "type": "address"
        },
        {
          "indexed": false,
          "internalType": "uint256",
          "name": "amount",
          "type": "uint256"
        }
      ],
      "name": "AmountBorrowed",
      "type": "event"
    },
    {
      "anonymous": false,
      "inputs": [
        {
          "indexed": true,
          "internalType": "contract IStrategy",
          "name": "strategy",
          "type": "address"
        },
        {
          "indexed": true,
          "internalType": "contract IGarden",
          "name": "garden",
          "type": "address"
        },
        {
          "indexed": false,
          "internalType": "address",
          "name": "asset",
          "type": "address"
        },
        {
          "indexed": false,
          "internalType": "uint256",
          "name": "amount",
          "type": "uint256"
        }
      ],
      "name": "AmountRepaid",
      "type": "event"
    },
    {
      "inputs": [
        {
          "internalType": "address",
          "name": "_strategy",
          "type": "address"
        },
        {
          "internalType": "address",
          "name": "asset",
          "type": "address"
        },
        {
          "internalType": "uint256",
          "name": "amount",
          "type": "uint256"
        }
      ],
      "name": "borrow",
      "outputs": [],
      "stateMutability": "nonpayable",
      "type": "function"
    },
    {
      "inputs": [],
      "name": "controller",
      "outputs": [
        {
          "internalType": "contract IBabController",
          "name": "",
          "type": "address"
        }
      ],
      "stateMutability": "view",
      "type": "function"
    },
    {
      "inputs": [
        {
          "internalType": "address",
          "name": "_strategy",
          "type": "address"
        },
        {
          "internalType": "address",
          "name": "asset",
          "type": "address"
        }
      ],
      "name": "getBorrowBalance",
      "outputs": [
        {
          "internalType": "uint256",
          "name": "",
          "type": "uint256"
        }
      ],
      "stateMutability": "view",
      "type": "function"
    },
    {
      "inputs": [
        {
          "internalType": "address",
          "name": "_strategy",
          "type": "address"
        },
        {
          "internalType": "address",
          "name": "",
          "type": "address"
        }
      ],
      "name": "getCollateralBalance",
      "outputs": [
        {
          "internalType": "uint256",
          "name": "",
          "type": "uint256"
        }
      ],
      "stateMutability": "view",
      "type": "function"
    },
    {
      "inputs": [],
      "name": "getName",
      "outputs": [
        {
          "internalType": "string",
          "name": "",
          "type": "string"
        }
      ],
      "stateMutability": "view",
      "type": "function"
    },
    {
      "inputs": [
        {
          "internalType": "address",
          "name": "_strategy",
          "type": "address"
        }
      ],
      "name": "getRemainingLiquidity",
      "outputs": [
        {
          "internalType": "uint256",
          "name": "",
          "type": "uint256"
        }
      ],
      "stateMutability": "view",
      "type": "function"
    },
    {
      "inputs": [
        {
          "internalType": "address",
          "name": "",
          "type": "address"
        }
      ],
      "name": "initializedByGarden",
      "outputs": [
        {
          "internalType": "bool",
          "name": "",
          "type": "bool"
        }
      ],
      "stateMutability": "view",
      "type": "function"
    },
    {
      "inputs": [],
      "name": "maxCollateralFactor",
      "outputs": [
        {
          "internalType": "uint256",
          "name": "",
          "type": "uint256"
        }
      ],
      "stateMutability": "view",
      "type": "function"
    },
    {
      "inputs": [],
      "name": "name",
      "outputs": [
        {
          "internalType": "string",
          "name": "",
          "type": "string"
        }
      ],
      "stateMutability": "view",
      "type": "function"
    },
    {
      "inputs": [
        {
          "internalType": "address",
          "name": "_strategy",
          "type": "address"
        },
        {
          "internalType": "address",
          "name": "asset",
          "type": "address"
        },
        {
          "internalType": "uint256",
          "name": "amount",
          "type": "uint256"
        }
      ],
      "name": "repay",
      "outputs": [],
      "stateMutability": "nonpayable",
      "type": "function"
    },
    {
      "inputs": [
        {
          "internalType": "uint256",
          "name": "_newMaxCollateralFactor",
          "type": "uint256"
        }
      ],
      "name": "updateMaxCollateralFactor",
      "outputs": [],
      "stateMutability": "nonpayable",
      "type": "function"
    },
    {
      "inputs": [],
      "name": "weth",
      "outputs": [
        {
          "internalType": "address",
          "name": "",
          "type": "address"
        }
      ],
      "stateMutability": "view",
      "type": "function"
    }
  ],
  "transactionHash": "0x969b612618de1ab8511b3ef016a714c6910dc40b1d9a15924671abbb3e4444e9",
  "args": [
    "0xD4a5b5fcB561dAF3aDF86F8477555B92FBa43b5F",
    "0xC02aaA39b223FE8D0A0e5C4F27eAD9083C756Cc2",
    "300000000000000000"
  ],
  "solcInputHash": "1e6d156fb71d6da7705240c4305a90fd",
  "bytecode": "0x60a06040523480156200001157600080fd5b506040516200194738038062001947833981810160405260608110156200003757600080fd5b5080516020808301516040938401518451808601909552600a85526961617665626f72726f7760b01b9285019290925291928284838383836001600160a01b038116620000cb576040805162461bcd60e51b815260206004820152601a60248201527f436f6e74726f6c6c6572206d75737420626520646566696e6564000000000000604482015290519081900360640190fd5b8251620000e090600190602086019062000127565b50600080546001600160a01b0319166001600160a01b039290921691909117905560601b6001600160601b03191660805250600160035560045550620001d3945050505050565b828054600181600116156101000203166002900490600052602060002090601f0160209004810192826200015f5760008555620001aa565b82601f106200017a57805160ff1916838001178555620001aa565b82800160010185558215620001aa579182015b82811115620001aa5782518255916020019190600101906200018d565b50620001b8929150620001bc565b5090565b5b80821115620001b85760008155600101620001bd565b60805160601c611756620001f160003980610ab152506117566000f3fe608060405234801561001057600080fd5b50600436106100d45760003560e01c80638dc4418311610081578063bf95f0e91161005b578063bf95f0e9146102a0578063d92f209f146102bd578063f77c4791146102e3576100d4565b80638dc4418314610230578063b10198fb14610238578063b7d5820b14610272576100d4565b80631da649cf116100b25780631da649cf1461019e5780633fc8cef3146101d65780635224372c146101fa576100d4565b806306fdde03146100d9578063118e31b71461015657806317d7de7c14610196575b600080fd5b6100e16102eb565b6040805160208082528351818301528351919283929083019185019080838360005b8381101561011b578181015183820152602001610103565b50505050905090810190601f1680156101485780820380516001836020036101000a031916815260200191505b509250505060405180910390f35b6101846004803603604081101561016c57600080fd5b506001600160a01b0381358116916020013516610378565b60408051918252519081900360200190f35b6100e1610431565b6101d4600480360360608110156101b457600080fd5b506001600160a01b038135811691602081013590911690604001356104c6565b005b6101de610aaf565b604080516001600160a01b039092168252519081900360200190f35b6101d46004803603606081101561021057600080fd5b506001600160a01b03813581169160208101359091169060400135610ad3565b610184611032565b61025e6004803603602081101561024e57600080fd5b50356001600160a01b0316611038565b604080519115158252519081900360200190f35b6101846004803603604081101561028857600080fd5b506001600160a01b038135811691602001351661104d565b6101d4600480360360208110156102b657600080fd5b50356110e5565b610184600480360360208110156102d357600080fd5b50356001600160a01b03166110ea565b6101de611184565b60018054604080516020600284861615610100026000190190941693909304601f810184900484028201840190925281815292918301828280156103705780601f1061034557610100808354040283529160200191610370565b820191906000526020600020905b81548152906001019060200180831161035357829003601f168201915b505050505081565b604080517f28dd2d010000000000000000000000000000000000000000000000000000000081526001600160a01b038381166004830152841660248201529051600091829173057835ad21a177dbdd3090bb1cae03eacf78fc6d916328dd2d0191604480830192610120929190829003018186803b1580156103f957600080fd5b505afa15801561040d573d6000803e3d6000fd5b505050506040513d61012081101561042457600080fd5b5060200151949350505050565b60018054604080516020601f600260001961010087891615020190951694909404938401819004810282018101909252828152606093909290918301828280156104bc5780601f10610491576101008083540402835291602001916104bc565b820191906000526020600020905b81548152906001019060200180831161049f57829003601f168201915b5050505050905090565b6002600354141561051e576040805162461bcd60e51b815260206004820152601f60248201527f5265656e7472616e637947756172643a207265656e7472616e742063616c6c00604482015290519081900360640190fd5b6002600355600054604080516313bc6d4b60e01b815233600482015290516001600160a01b03909216916313bc6d4b91602480820192602092909190829003018186803b15801561056e57600080fd5b505afa158015610582573d6000803e3d6000fd5b505050506040513d602081101561059857600080fd5b50516105eb576040805162461bcd60e51b815260206004820152601960248201527f4f6e6c792073797374656d2063616e2063616c6c207468697300000000000000604482015290519081900360640190fd5b60006105fa8484846001611193565b90506106058161126b565b6000808061061586866001611397565b919450925090506001600160a01b038316156107df5783600001516001600160a01b0316636bc195dd8484846040518463ffffffff1660e01b815260040180846001600160a01b0316815260200183815260200180602001828103825283818151815260200191508051906020019080838360005b838110156106a257818101518382015260200161068a565b50505050905090810190601f1680156106cf5780820380516001836020036101000a031916815260200191505b50945050505050600060405180830381600087803b1580156106f057600080fd5b505af1158015610704573d6000803e3d6000fd5b505050506040513d6000823e601f3d908101601f19168201604052602081101561072d57600080fd5b810190808051604051939291908464010000000082111561074d57600080fd5b90830190602082018581111561076257600080fd5b825164010000000081118282018810171561077c57600080fd5b82525081516020918201929091019080838360005b838110156107a9578181015183820152602001610791565b50505050905090810190601f1680156107d65780820380516001836020036101000a031916815260200191505b50604052505050505b83516001600160a01b03166397ccdc606107f8886113af565b88886040518463ffffffff1660e01b815260040180846001600160a01b03168152602001836001600160a01b031681526020018281526020019350505050600060405180830381600087803b15801561085057600080fd5b505af1158015610864573d6000803e3d6000fd5b5050505060008060006108788a8a8a6113c8565b92509250925086600001516001600160a01b0316636bc195dd8484846040518463ffffffff1660e01b815260040180846001600160a01b0316815260200183815260200180602001828103825283818151815260200191508051906020019080838360005b838110156108f55781810151838201526020016108dd565b50505050905090810190601f1680156109225780820380516001836020036101000a031916815260200191505b50945050505050600060405180830381600087803b15801561094357600080fd5b505af1158015610957573d6000803e3d6000fd5b505050506040513d6000823e601f3d908101601f19168201604052602081101561098057600080fd5b81019080805160405193929190846401000000008211156109a057600080fd5b9083019060208201858111156109b557600080fd5b82516401000000008111828201881017156109cf57600080fd5b82525081516020918201929091019080838360005b838110156109fc5781810151838201526020016109e4565b50505050905090810190601f168015610a295780820380516001836020036101000a031916815260200191505b5060405250505050610a3a8761146e565b86602001516001600160a01b031687600001516001600160a01b03167f953ac0f64e660bd9358471208544a0fa23b1ad2cdbf382fe3895ec090e2a1e568b8b60405180836001600160a01b031681526020018281526020019250505060405180910390a3505060016003555050505050505050565b7f000000000000000000000000000000000000000000000000000000000000000081565b60026003541415610b2b576040805162461bcd60e51b815260206004820152601f60248201527f5265656e7472616e637947756172643a207265656e7472616e742063616c6c00604482015290519081900360640190fd5b6002600355600054604080516313bc6d4b60e01b815233600482015290516001600160a01b03909216916313bc6d4b91602480820192602092909190829003018186803b158015610b7b57600080fd5b505afa158015610b8f573d6000803e3d6000fd5b505050506040513d6020811015610ba557600080fd5b5051610bf8576040805162461bcd60e51b815260206004820152601960248201527f4f6e6c792073797374656d2063616e2063616c6c207468697300000000000000604482015290519081900360640190fd5b6000610c078484846000611193565b9050610c12816114d7565b60008080610c21868683611397565b919450925090506001600160a01b03831615610deb5783600001516001600160a01b0316636bc195dd8484846040518463ffffffff1660e01b815260040180846001600160a01b0316815260200183815260200180602001828103825283818151815260200191508051906020019080838360005b83811015610cae578181015183820152602001610c96565b50505050905090810190601f168015610cdb5780820380516001836020036101000a031916815260200191505b50945050505050600060405180830381600087803b158015610cfc57600080fd5b505af1158015610d10573d6000803e3d6000fd5b505050506040513d6000823e601f3d908101601f191682016040526020811015610d3957600080fd5b8101908080516040519392919084640100000000821115610d5957600080fd5b908301906020820185811115610d6e57600080fd5b8251640100000000811182820188101715610d8857600080fd5b82525081516020918201929091019080838360005b83811015610db5578181015183820152602001610d9d565b50505050905090810190601f168015610de25780820380516001836020036101000a031916815260200191505b50604052505050505b6000806000610dfb8a8a8a611538565b92509250925086600001516001600160a01b0316636bc195dd8484846040518463ffffffff1660e01b815260040180846001600160a01b0316815260200183815260200180602001828103825283818151815260200191508051906020019080838360005b83811015610e78578181015183820152602001610e60565b50505050905090810190601f168015610ea55780820380516001836020036101000a031916815260200191505b50945050505050600060405180830381600087803b158015610ec657600080fd5b505af1158015610eda573d6000803e3d6000fd5b505050506040513d6000823e601f3d908101601f191682016040526020811015610f0357600080fd5b8101908080516040519392919084640100000000821115610f2357600080fd5b908301906020820185811115610f3857600080fd5b8251640100000000811182820188101715610f5257600080fd5b82525081516020918201929091019080838360005b83811015610f7f578181015183820152602001610f67565b50505050905090810190601f168015610fac5780820380516001836020036101000a031916815260200191505b5060405250505050610fbd876115e3565b86602001516001600160a01b031687600001516001600160a01b03167f2ec5eda0a8db97f94fa37b7d1c339013a051f2286a5c9f2be7e907641d1c03568b8b60405180836001600160a01b031681526020018281526020019250505060405180910390a3505060016003555050505050505050565b60045481565b60026020526000908152604090205460ff1681565b600080737d2768de32b0b80b7a3454c06bdac94a69ddc7a96001600160a01b031663bf92857c856040518263ffffffff1660e01b815260040180826001600160a01b0316815260200191505060c06040518083038186803b1580156110b157600080fd5b505afa1580156110c5573d6000803e3d6000fd5b505050506040513d60c08110156110db57600080fd5b5051949350505050565b600455565b600080737d2768de32b0b80b7a3454c06bdac94a69ddc7a96001600160a01b031663bf92857c846040518263ffffffff1660e01b815260040180826001600160a01b0316815260200191505060c06040518083038186803b15801561114e57600080fd5b505afa158015611162573d6000803e3d6000fd5b505050506040513d60c081101561117857600080fd5b50604001519392505050565b6000546001600160a01b031681565b61119b6116a6565b6111a36116a6565b6001600160a01b038616808252604080517f56ba88b800000000000000000000000000000000000000000000000000000000815290516356ba88b891600480820192602092909190829003018186803b1580156111ff57600080fd5b505afa158015611213573d6000803e3d6000fd5b505050506040513d602081101561122957600080fd5b50516001600160a01b03908116602083015285166040820181905261124f908790610378565b608082015260608101939093525060ff1660a082015292915050565b806060015181604001516001600160a01b03166370a0823183600001516040518263ffffffff1660e01b815260040180826001600160a01b0316815260200191505060206040518083038186803b1580156112c557600080fd5b505afa1580156112d9573d6000803e3d6000fd5b505050506040513d60208110156112ef57600080fd5b5051101561132e5760405162461bcd60e51b81526004018080602001828103825260238152602001806116dc6023913960400191505060405180910390fd5b600061134282600001518360400151610378565b11611394576040805162461bcd60e51b815260206004820152601060248201527f4e6f206465627420746f20726570617900000000000000000000000000000000604482015290519081900360640190fd5b50565b50506040805160208101909152600080825292839250565b50737d2768de32b0b80b7a3454c06bdac94a69ddc7a990565b604080516001600160a01b039384166024820152604481019290925260016064830152929091166084808301919091528251808303909101815260a49091019091526020810180517bffffffffffffffffffffffffffffffffffffffffffffffffffffffff167f573ade8100000000000000000000000000000000000000000000000000000000179052737d2768de32b0b80b7a3454c06bdac94a69ddc7a99160009190565b806080015161148582600001518360400151610378565b10611394576040805162461bcd60e51b815260206004820152601360248201527f4465627420776173206e6f742072657061696400000000000000000000000000604482015290519081900360640190fd5b60006114e682600001516110ea565b11611394576040805162461bcd60e51b815260206004820152601460248201527f4e6f7420656e6f756768206c6971756964697479000000000000000000000000604482015290519081900360640190fd5b604080516001600160a01b0393841660248201526044810192909252600160648301526000608483018190529390921660a4808301919091528251808303909101815260c49091019091526020810180517bffffffffffffffffffffffffffffffffffffffffffffffffffffffff167fa415bcad00000000000000000000000000000000000000000000000000000000179052737d2768de32b0b80b7a3454c06bdac94a69ddc7a992565b806060015181604001516001600160a01b03166370a0823183600001516040518263ffffffff1660e01b815260040180826001600160a01b0316815260200191505060206040518083038186803b15801561163d57600080fd5b505afa158015611651573d6000803e3d6000fd5b505050506040513d602081101561166757600080fd5b505110156114d75760405162461bcd60e51b81526004018080602001828103825260228152602001806116ff6022913960400191505060405180910390fd5b6040805160c081018252600080825260208201819052918101829052606081018290526080810182905260a08101919091529056fe576520646f206e6f74206861766520656e6f75676820746f2072657061792064656274446964206e6f7420726563656976652074686520626f72726f776564206173736574a2646970667358221220c21c6c9b6bdb6ad653d138d5fac711f54f193d1bec8a917078ec9c732b9294dc64736f6c63430007060033",
  "devdoc": {
    "author": "Babylon Finance Abstract class that houses aave borring/lending logic.",
    "kind": "dev",
    "methods": {
      "borrow(address,address,uint256)": {
        "params": {
          "amount": "The amount to borrow",
          "asset": "The asset to be borrowed"
        }
      },
      "constructor": {
        "params": {
          "_controller": "Address of the controller",
          "_maxCollateralFactor": "Max collateral factor allowed (from 0 to a 100)",
          "_weth": "Address of the WETH ERC20"
        }
      },
      "getBorrowBalance(address,address)": {
        "params": {
          "asset": "The underlying asset"
        }
      },
      "repay(address,address,uint256)": {
        "params": {
          "amount": "The amount to repay",
          "asset": "The asset to be repaid"
        }
      }
    },
    "title": "AaveBorrowIntegration",
    "version": 1
  },
  "userdoc": {
    "kind": "user",
    "methods": {
      "borrow(address,address,uint256)": {
        "notice": "Borrows an asset"
      },
      "constructor": {
        "notice": "Creates the integration"
      },
      "getBorrowBalance(address,address)": {
        "notice": "Get the amount of borrowed debt that needs to be repaid"
      },
      "getCollateralBalance(address,address)": {
        "notice": "Get the amount of collateral supplied hparam asset   The collateral asset"
      },
      "getName()": {
        "notice": "Returns the name of the integration"
      },
      "getRemainingLiquidity(address)": {
        "notice": "Get the remaining liquidity available to borrow"
      },
      "repay(address,address,uint256)": {
        "notice": "Repays a borrowed asset debt"
      }
    },
    "version": 1
  },
  "storageLayout": {
    "storage": [
      {
        "astId": 18504,
        "contract": "contracts/integrations/borrow/AaveBorrowIntegration.sol:AaveBorrowIntegration",
        "label": "controller",
        "offset": 0,
        "slot": "0",
        "type": "t_contract(IBabController)25545"
      },
      {
        "astId": 18508,
        "contract": "contracts/integrations/borrow/AaveBorrowIntegration.sol:AaveBorrowIntegration",
        "label": "name",
        "offset": 0,
        "slot": "1",
        "type": "t_string_storage"
      },
      {
        "astId": 18512,
        "contract": "contracts/integrations/borrow/AaveBorrowIntegration.sol:AaveBorrowIntegration",
        "label": "initializedByGarden",
        "offset": 0,
        "slot": "2",
        "type": "t_mapping(t_address,t_bool)"
      },
      {
        "astId": 5859,
        "contract": "contracts/integrations/borrow/AaveBorrowIntegration.sol:AaveBorrowIntegration",
        "label": "_status",
        "offset": 0,
        "slot": "3",
        "type": "t_uint256"
      },
      {
        "astId": 18899,
        "contract": "contracts/integrations/borrow/AaveBorrowIntegration.sol:AaveBorrowIntegration",
        "label": "maxCollateralFactor",
        "offset": 0,
        "slot": "4",
        "type": "t_uint256"
      }
    ],
    "types": {
      "t_address": {
        "encoding": "inplace",
        "label": "address",
        "numberOfBytes": "20"
      },
      "t_bool": {
        "encoding": "inplace",
        "label": "bool",
        "numberOfBytes": "1"
      },
      "t_contract(IBabController)25545": {
        "encoding": "inplace",
        "label": "contract IBabController",
        "numberOfBytes": "20"
      },
      "t_mapping(t_address,t_bool)": {
        "encoding": "mapping",
        "key": "t_address",
        "label": "mapping(address => bool)",
        "numberOfBytes": "32",
        "value": "t_bool"
      },
      "t_string_storage": {
        "encoding": "bytes",
        "label": "string",
        "numberOfBytes": "32"
      },
      "t_uint256": {
        "encoding": "inplace",
        "label": "uint256",
        "numberOfBytes": "32"
      }
    }
  }
}