{
  "address": "0x72e27dA102a67767a7a3858D117159418f93617D",
  "abi": [
    {
      "inputs": [
        {
          "internalType": "contract IBabController",
          "name": "_controller",
          "type": "address"
        }
      ],
      "stateMutability": "nonpayable",
      "type": "constructor"
    },
    {
      "anonymous": false,
      "inputs": [
        {
          "indexed": true,
          "internalType": "address",
          "name": "garden",
          "type": "address"
        },
        {
          "indexed": true,
          "internalType": "address",
          "name": "strategy",
          "type": "address"
        },
        {
          "indexed": true,
          "internalType": "address",
          "name": "assetToken",
          "type": "address"
        },
        {
          "indexed": false,
          "internalType": "uint256",
          "name": "numTokensToRedeem",
          "type": "uint256"
        },
        {
          "indexed": false,
          "internalType": "uint256",
          "name": "protocolFee",
          "type": "uint256"
        }
      ],
      "name": "TokensRedeemed",
      "type": "event"
    },
    {
      "anonymous": false,
      "inputs": [
        {
          "indexed": true,
          "internalType": "address",
          "name": "garden",
          "type": "address"
        },
        {
          "indexed": true,
          "internalType": "address",
          "name": "strategy",
          "type": "address"
        },
        {
          "indexed": true,
          "internalType": "address",
          "name": "assetToken",
          "type": "address"
        },
        {
          "indexed": false,
          "internalType": "uint256",
          "name": "numTokensToSupply",
          "type": "uint256"
        }
      ],
      "name": "TokensSupplied",
      "type": "event"
    },
    {
      "inputs": [],
      "name": "controller",
      "outputs": [
        {
          "internalType": "contract IBabController",
          "name": "",
          "type": "address"
        }
      ],
      "stateMutability": "view",
      "type": "function"
    },
    {
      "inputs": [
        {
          "internalType": "address",
          "name": "_assetToken",
          "type": "address"
        }
      ],
      "name": "getExchangeRatePerToken",
      "outputs": [
        {
          "internalType": "uint256",
          "name": "",
          "type": "uint256"
        }
      ],
      "stateMutability": "view",
      "type": "function"
    },
    {
      "inputs": [
        {
          "internalType": "address",
          "name": "_assetToken",
          "type": "address"
        },
        {
          "internalType": "uint256",
          "name": "_numTokensToSupply",
          "type": "uint256"
        }
      ],
      "name": "getExpectedShares",
      "outputs": [
        {
          "internalType": "uint256",
          "name": "",
          "type": "uint256"
        }
      ],
      "stateMutability": "view",
      "type": "function"
    },
    {
      "inputs": [
        {
          "internalType": "address",
          "name": "_assetToken",
          "type": "address"
        }
      ],
      "name": "getInvestmentToken",
      "outputs": [
        {
          "internalType": "address",
          "name": "",
          "type": "address"
        }
      ],
      "stateMutability": "view",
      "type": "function"
    },
    {
      "inputs": [
        {
          "internalType": "address",
          "name": "_address",
          "type": "address"
        },
        {
          "internalType": "address",
          "name": "_assetToken",
          "type": "address"
        }
      ],
      "name": "getInvestmentTokenAmount",
      "outputs": [
        {
          "internalType": "uint256",
          "name": "",
          "type": "uint256"
        }
      ],
      "stateMutability": "view",
      "type": "function"
    },
    {
      "inputs": [],
      "name": "getRewardToken",
      "outputs": [
        {
          "internalType": "address",
          "name": "",
          "type": "address"
        }
      ],
      "stateMutability": "view",
      "type": "function"
    },
    {
      "inputs": [
        {
          "internalType": "address",
          "name": "_strategy",
          "type": "address"
        }
      ],
      "name": "getRewardsAccrued",
      "outputs": [
        {
          "internalType": "uint256",
          "name": "",
          "type": "uint256"
        }
      ],
      "stateMutability": "view",
      "type": "function"
    },
    {
      "inputs": [
        {
          "internalType": "address",
          "name": "_investmentAddress",
          "type": "address"
        }
      ],
      "name": "isInvestment",
      "outputs": [
        {
          "internalType": "bool",
          "name": "",
          "type": "bool"
        }
      ],
      "stateMutability": "view",
      "type": "function"
    },
    {
      "inputs": [],
      "name": "name",
      "outputs": [
        {
          "internalType": "string",
          "name": "",
          "type": "string"
        }
      ],
      "stateMutability": "view",
      "type": "function"
    },
    {
      "inputs": [
        {
          "internalType": "address",
          "name": "_strategy",
          "type": "address"
        },
        {
          "internalType": "address",
          "name": "_assetToken",
          "type": "address"
        },
        {
          "internalType": "uint256",
          "name": "_numTokensToRedeem",
          "type": "uint256"
        },
        {
          "internalType": "uint256",
          "name": "_minAmountExpected",
          "type": "uint256"
        }
      ],
      "name": "redeemTokens",
      "outputs": [],
      "stateMutability": "nonpayable",
      "type": "function"
    },
    {
      "inputs": [
        {
          "internalType": "address",
          "name": "_strategy",
          "type": "address"
        },
        {
          "internalType": "address",
          "name": "_assetToken",
          "type": "address"
        },
        {
          "internalType": "uint256",
          "name": "_numTokensToSupply",
          "type": "uint256"
        },
        {
          "internalType": "uint256",
          "name": "_minAmountExpected",
          "type": "uint256"
        }
      ],
      "name": "supplyTokens",
      "outputs": [],
      "stateMutability": "nonpayable",
      "type": "function"
    }
  ],
  "transactionHash": "0x29a764087cab9302ce1934c0200ceb77fba27d8c8f479a2527fa75182b8db310",
  "args": [
    "0xD4a5b5fcB561dAF3aDF86F8477555B92FBa43b5F"
  ],
  "solcInputHash": "62946d8dd628d8e8642608bff33a1ae6",
  "bytecode": "0x60806040523480156200001157600080fd5b5060405162001d9038038062001d90833981810160405260208110156200003757600080fd5b505160408051808201909152600881526718585d995b195b9960c21b60208201528181816001600160a01b038116620000b7576040805162461bcd60e51b815260206004820152601a60248201527f436f6e74726f6c6c6572206d75737420626520646566696e6564000000000000604482015290519081900360640190fd5b8151620000cc906001906020850190620000fd565b50600080546001600160a01b0319166001600160a01b03929092169190911790555050600160025550620001a99050565b828054600181600116156101000203166002900490600052602060002090601f01602090048101928262000135576000855562000180565b82601f106200015057805160ff191683800117855562000180565b8280016001018555821562000180579182015b828111156200018057825182559160200191906001019062000163565b506200018e92915062000192565b5090565b5b808211156200018e576000815560010162000193565b611bd780620001b96000396000f3fe608060405234801561001057600080fd5b50600436106100c95760003560e01c80639e12fef211610081578063f14b57881161005b578063f14b57881461029f578063f77c4791146102db578063ff0a30f0146102e3576100c9565b80639e12fef214610201578063d0d2d3a21461023b578063eb40e60014610279576100c9565b80634deef649116100b25780634deef6491461018357806369940d79146101af5780637137f552146101d3576100c9565b806306fdde03146100ce57806307b54c6f1461014b575b600080fd5b6100d6610309565b6040805160208082528351818301528351919283929083019185019080838360005b838110156101105781810151838201526020016100f8565b50505050905090810190601f16801561013d5780820380516001836020036101000a031916815260200191505b509250505060405180910390f35b6101716004803603602081101561016157600080fd5b50356001600160a01b0316610396565b60408051918252519081900360200190f35b6101716004803603604081101561019957600080fd5b506001600160a01b0381351690602001356103a7565b6101b76103ba565b604080516001600160a01b039092168252519081900360200190f35b610171600480360360408110156101e957600080fd5b506001600160a01b03813581169160200135166103c9565b6102276004803603602081101561021757600080fd5b50356001600160a01b0316610453565b604080519115158252519081900360200190f35b6102776004803603608081101561025157600080fd5b506001600160a01b0381358116916020810135909116906040810135906060013561045e565b005b6101b76004803603602081101561028f57600080fd5b50356001600160a01b0316610b9a565b610277600480360360808110156102b557600080fd5b506001600160a01b03813581169160208101359091169060408101359060600135610ba5565b6101b7611198565b610171600480360360208110156102f957600080fd5b50356001600160a01b03166111a7565b60018054604080516020600284861615610100026000190190941693909304601f8101849004840282018401909252818152929183018282801561038e5780601f106103635761010080835404028352916020019161038e565b820191906000526020600020905b81548152906001019060200180831161037157829003601f168201915b505050505081565b60006103a1826111b2565b92915050565b60006103b383836111b8565b9392505050565b60006103c46111bd565b905090565b60006103d4826111d5565b6001600160a01b03166370a08231846040518263ffffffff1660e01b815260040180826001600160a01b0316815260200191505060206040518083038186803b15801561042057600080fd5b505afa158015610434573d6000803e3d6000fd5b505050506040513d602081101561044a57600080fd5b50519392505050565b60006103a182611263565b6002805414156104b5576040805162461bcd60e51b815260206004820152601f60248201527f5265656e7472616e637947756172643a207265656e7472616e742063616c6c00604482015290519081900360640190fd5b60028055600054604080516313bc6d4b60e01b815233600482015290516001600160a01b03909216916313bc6d4b91602480820192602092909190829003018186803b15801561050457600080fd5b505afa158015610518573d6000803e3d6000fd5b505050506040513d602081101561052e57600080fd5b5051610581576040805162461bcd60e51b815260206004820152601960248201527f4f6e6c792073797374656d2063616e2063616c6c207468697300000000000000604482015290519081900360640190fd5b60006105988585610591876111d5565b8686611305565b90506105a38161147e565b60008060006105b487876001611553565b919450925090506001600160a01b0383161561077e5783600001516001600160a01b0316636bc195dd8484846040518463ffffffff1660e01b815260040180846001600160a01b0316815260200183815260200180602001828103825283818151815260200191508051906020019080838360005b83811015610641578181015183820152602001610629565b50505050905090810190601f16801561066e5780820380516001836020036101000a031916815260200191505b50945050505050600060405180830381600087803b15801561068f57600080fd5b505af11580156106a3573d6000803e3d6000fd5b505050506040513d6000823e601f3d908101601f1916820160405260208110156106cc57600080fd5b81019080805160405193929190846401000000008211156106ec57600080fd5b90830190602082018581111561070157600080fd5b825164010000000081118282018810171561071b57600080fd5b82525081516020918201929091019080838360005b83811015610748578181015183820152602001610730565b50505050905090810190601f1680156107755780820380516001836020036101000a031916815260200191505b50604052505050505b600080600061078e8b8b8b61156b565b92509250925086600001516001600160a01b0316636bc195dd8484846040518463ffffffff1660e01b815260040180846001600160a01b0316815260200183815260200180602001828103825283818151815260200191508051906020019080838360005b8381101561080b5781810151838201526020016107f3565b50505050905090810190601f1680156108385780820380516001836020036101000a031916815260200191505b50945050505050600060405180830381600087803b15801561085957600080fd5b505af115801561086d573d6000803e3d6000fd5b505050506040513d6000823e601f3d908101601f19168201604052602081101561089657600080fd5b81019080805160405193929190846401000000008211156108b657600080fd5b9083019060208201858111156108cb57600080fd5b82516401000000008111828201881017156108e557600080fd5b82525081516020918201929091019080838360005b838110156109125781810151838201526020016108fa565b50505050905090810190601f16801561093f5780820380516001836020036101000a031916815260200191505b506040525050505060008060006109558e6115f5565b919450925090506001600160a01b03831615610b1f5789600001516001600160a01b0316636bc195dd8484846040518463ffffffff1660e01b815260040180846001600160a01b0316815260200183815260200180602001828103825283818151815260200191508051906020019080838360005b838110156109e25781810151838201526020016109ca565b50505050905090810190601f168015610a0f5780820380516001836020036101000a031916815260200191505b50945050505050600060405180830381600087803b158015610a3057600080fd5b505af1158015610a44573d6000803e3d6000fd5b505050506040513d6000823e601f3d908101601f191682016040526020811015610a6d57600080fd5b8101908080516040519392919084640100000000821115610a8d57600080fd5b908301906020820185811115610aa257600080fd5b8251640100000000811182820188101715610abc57600080fd5b82525081516020918201929091019080838360005b83811015610ae9578181015183820152602001610ad1565b50505050905090810190601f168015610b165780820380516001836020036101000a031916815260200191505b50604052505050505b610b288a611711565b8c6001600160a01b03168a600001516001600160a01b03168b602001516001600160a01b03167fd17d95895382b096bb1f89ed05a71c3e014d5ecf25944c8f1f27f07b2b9d31948f6040518082815260200191505060405180910390a450506001600255505050505050505050505050565b60006103a1826111d5565b600280541415610bfc576040805162461bcd60e51b815260206004820152601f60248201527f5265656e7472616e637947756172643a207265656e7472616e742063616c6c00604482015290519081900360640190fd5b60028055600054604080516313bc6d4b60e01b815233600482015290516001600160a01b03909216916313bc6d4b91602480820192602092909190829003018186803b158015610c4b57600080fd5b505afa158015610c5f573d6000803e3d6000fd5b505050506040513d6020811015610c7557600080fd5b5051610cc8576040805162461bcd60e51b815260206004820152601960248201527f4f6e6c792073797374656d2063616e2063616c6c207468697300000000000000604482015290519081900360640190fd5b6000610cd88585610591876111d5565b9050610ce381611802565b6000806000610cf487876000611553565b919450925090506001600160a01b03831615610ebe5783600001516001600160a01b0316636bc195dd8484846040518463ffffffff1660e01b815260040180846001600160a01b0316815260200183815260200180602001828103825283818151815260200191508051906020019080838360005b83811015610d81578181015183820152602001610d69565b50505050905090810190601f168015610dae5780820380516001836020036101000a031916815260200191505b50945050505050600060405180830381600087803b158015610dcf57600080fd5b505af1158015610de3573d6000803e3d6000fd5b505050506040513d6000823e601f3d908101601f191682016040526020811015610e0c57600080fd5b8101908080516040519392919084640100000000821115610e2c57600080fd5b908301906020820185811115610e4157600080fd5b8251640100000000811182820188101715610e5b57600080fd5b82525081516020918201929091019080838360005b83811015610e88578181015183820152602001610e70565b50505050905090810190601f168015610eb55780820380516001836020036101000a031916815260200191505b50604052505050505b6001600160a01b03871615610f575783516001600160a01b03166397ccdc60610ee68961188d565b89896040518463ffffffff1660e01b815260040180846001600160a01b03168152602001836001600160a01b031681526020018281526020019350505050600060405180830381600087803b158015610f3e57600080fd5b505af1158015610f52573d6000803e3d6000fd5b505050505b6000806000610f678b8b8b6118a6565b92509250925086600001516001600160a01b0316636bc195dd8484846040518463ffffffff1660e01b815260040180846001600160a01b0316815260200183815260200180602001828103825283818151815260200191508051906020019080838360005b83811015610fe4578181015183820152602001610fcc565b50505050905090810190601f1680156110115780820380516001836020036101000a031916815260200191505b50945050505050600060405180830381600087803b15801561103257600080fd5b505af1158015611046573d6000803e3d6000fd5b505050506040513d6000823e601f3d908101601f19168201604052602081101561106f57600080fd5b810190808051604051939291908464010000000082111561108f57600080fd5b9083019060208201858111156110a457600080fd5b82516401000000008111828201881017156110be57600080fd5b82525081516020918201929091019080838360005b838110156110eb5781810151838201526020016110d3565b50505050905090810190601f1680156111185780820380516001836020036101000a031916815260200191505b506040525050505061112987611932565b896001600160a01b031687600001516001600160a01b031688602001516001600160a01b03167fd17d95895382b096bb1f89ed05a71c3e014d5ecf25944c8f1f27f07b2b9d31948c6040518082815260200191505060405180910390a450506001600255505050505050505050565b6000546001600160a01b031681565b60006103a182611985565b50600190565b919050565b737fc66500c84a76ad7e9c93437bfc5ac33e2ddae990565b60008073057835ad21a177dbdd3090bb1cae03eacf78fc6d6001600160a01b031663d2493b6c846040518263ffffffff1660e01b815260040180826001600160a01b0316815260200191505060606040518083038186803b15801561123957600080fd5b505afa15801561124d573d6000803e3d6000fd5b505050506040513d606081101561044a57600080fd5b60008073057835ad21a177dbdd3090bb1cae03eacf78fc6d6001600160a01b031663d2493b6c846040518263ffffffff1660e01b815260040180826001600160a01b0316815260200191505060606040518083038186803b1580156112c757600080fd5b505afa1580156112db573d6000803e3d6000fd5b505050506040513d60608110156112f157600080fd5b50516001600160a01b031615159392505050565b61130d611a1a565b611315611a1a565b6001600160a01b038716808252604080517f56ba88b800000000000000000000000000000000000000000000000000000000815290516356ba88b891600480820192602092909190829003018186803b15801561137157600080fd5b505afa158015611385573d6000803e3d6000fd5b505050506040513d602081101561139b57600080fd5b50516001600160a01b0390811660208301528681166040830152851660608201526113c687876103c9565b60a08201526001600160a01b0386161561145857856001600160a01b03166370a08231886040518263ffffffff1660e01b815260040180826001600160a01b0316815260200191505060206040518083038186803b15801561142757600080fd5b505afa15801561143b573d6000803e3d6000fd5b505050506040513d602081101561145157600080fd5b5051611464565b866001600160a01b0316315b60c082015260808101939093525060e08201529392505050565b61148b8160400151611263565b6114c65760405162461bcd60e51b8152600401808060200182810382526023815260200180611b7f6023913960400191505060405180910390fd5b60008160800151116115095760405162461bcd60e51b8152600401808060200182810382526034815260200180611b4b6034913960400191505060405180910390fd5b80608001518160a0015110156115505760405162461bcd60e51b8152600401808060200182810382526031815260200180611a846031913960400191505060405180910390fd5b50565b50506040805160208101909152600080825292839250565b604080516001600160a01b0393841660248201526044810192909252929091166064808301919091528251808303909101815260849091019091526020810180516001600160e01b03167f69328dec00000000000000000000000000000000000000000000000000000000179052737d2768de32b0b80b7a3454c06bdac94a69ddc7a99160009190565b6000806060600084734da27a545c0c5b758a6ba100e3a049001de870f56001600160a01b03166370a08231876040518263ffffffff1660e01b815260040180826001600160a01b0316815260200191505060206040518083038186803b15801561165e57600080fd5b505afa158015611672573d6000803e3d6000fd5b505050506040513d602081101561168857600080fd5b5051604080516001600160a01b0390931660248401526044808401929092528051808403909201825260649092019091526020810180516001600160e01b03167f9a99b4f000000000000000000000000000000000000000000000000000000000179052734da27a545c0c5b758a6ba100e3a049001de870f59450600093509150509193909250565b60408101516000906001600160a01b0316156117ad5781604001516001600160a01b03166370a0823183600001516040518263ffffffff1660e01b815260040180826001600160a01b0316815260200191505060206040518083038186803b15801561177c57600080fd5b505afa158015611790573d6000803e3d6000fd5b505050506040513d60208110156117a657600080fd5b50516117ba565b81516001600160a01b0316315b90508160c0015181116117fe5760405162461bcd60e51b815260040180806020018281038252602f815260200180611ae5602f913960400191505060405180910390fd5b5050565b61180f8160400151611263565b61184a5760405162461bcd60e51b8152600401808060200182810382526023815260200180611b7f6023913960400191505060405180910390fd5b60008160800151116115505760405162461bcd60e51b8152600401808060200182810382526037815260200180611b146037913960400191505060405180910390fd5b50737d2768de32b0b80b7a3454c06bdac94a69ddc7a990565b604080516001600160a01b0393841660248201526044810192909252929091166064820152600060848083018290528351808403909101815260a49092019092526020810180516001600160e01b03167fe8eda9df00000000000000000000000000000000000000000000000000000000179052737d2768de32b0b80b7a3454c06bdac94a69ddc7a992565b8060a00151611949826000015183604001516103c9565b116115505760405162461bcd60e51b8152600401808060200182810382526030815260200180611ab56030913960400191505060405180910390fd5b6000734da27a545c0c5b758a6ba100e3a049001de870f56001600160a01b0316637e90d7ef836040518263ffffffff1660e01b815260040180826001600160a01b0316815260200191505060206040518083038186803b1580156119e857600080fd5b505afa1580156119fc573d6000803e3d6000fd5b505050506040513d6020811015611a1257600080fd5b505192915050565b60405180610100016040528060006001600160a01b0316815260200160006001600160a01b0316815260200160006001600160a01b0316815260200160006001600160a01b0316815260200160008152602001600081526020016000815260200160008152509056fe5468652067617264656e20646f6573206e6f74206861766520656e6f75676820696e766573746d656e7420746f6b656e735468652067617264656e20646964206e6f7420726563656976652074686520696e766573746d656e7420746f6b656e735468652067617264656e20646964206e6f742072657475726e2074686520696e766573746d656e7420746f6b656e734d696e20696e766573746d656e7420746f6b656e7320746f2072656365697665206d7573742062652067726561746572207468616e2030496e766573746d656e7420746f6b656e7320746f2065786368616e6765206d7573742062652067726561746572207468616e203054686520696e766573746d656e742061646472657373206973206e6f742076616c6964a2646970667358221220edf6510bb2bcd9a7954be69fabe78249b8f946cd8e4e379ce0efc0a0002caf1d64736f6c63430007060033",
  "devdoc": {
    "author": "Babylon Finance Protocol Aave lend integration.",
    "kind": "dev",
    "methods": {
      "constructor": {
        "params": {
          "_controller": "Address of the controller"
        }
      },
      "getExpectedShares(address,uint256)": {
        "params": {
          "_numTokensToSupply": "Amount of ERC20 tokens to supply"
        },
        "returns": {
          "_0": "uint256                           Amount of supply tokens to receive"
        }
      },
      "getRewardToken()": {
        "returns": {
          "_0": "address       Address of the reward token"
        }
      },
      "getRewardsAccrued(address)": {
        "params": {
          "_strategy": "Address of the strategy"
        },
        "returns": {
          "_0": "address       Address of the reward token"
        }
      },
      "isInvestment(address)": {
        "params": {
          "_investmentAddress": "Investment address to check"
        },
        "returns": {
          "_0": "bool                              True if the address is a investment"
        }
      }
    },
    "title": "AaveLendIntegration",
    "version": 1
  },
  "userdoc": {
    "kind": "user",
    "methods": {
      "constructor": {
        "notice": "Creates the integration"
      },
      "getExpectedShares(address,uint256)": {
        "notice": "Gets the amount of cTokens expected to get after depositing ERC20 asset."
      },
      "getRewardToken()": {
        "notice": "Returns the reward token"
      },
      "getRewardsAccrued(address)": {
        "notice": "Returns the number of reward tokens accrued"
      },
      "isInvestment(address)": {
        "notice": "Checks whether an investment address is valid"
      }
    },
    "version": 1
  },
  "storageLayout": {
    "storage": [
      {
        "astId": 22891,
        "contract": "contracts/integrations/lend/AaveLendIntegration.sol:AaveLendIntegration",
        "label": "controller",
        "offset": 0,
        "slot": "0",
        "type": "t_contract(IBabController)36210"
      },
      {
        "astId": 22893,
        "contract": "contracts/integrations/lend/AaveLendIntegration.sol:AaveLendIntegration",
        "label": "name",
        "offset": 0,
        "slot": "1",
        "type": "t_string_storage"
      },
      {
        "astId": 6418,
        "contract": "contracts/integrations/lend/AaveLendIntegration.sol:AaveLendIntegration",
        "label": "_status",
        "offset": 0,
        "slot": "2",
        "type": "t_uint256"
      }
    ],
    "types": {
      "t_contract(IBabController)36210": {
        "encoding": "inplace",
        "label": "contract IBabController",
        "numberOfBytes": "20"
      },
      "t_string_storage": {
        "encoding": "bytes",
        "label": "string",
        "numberOfBytes": "32"
      },
      "t_uint256": {
        "encoding": "inplace",
        "label": "uint256",
        "numberOfBytes": "32"
      }
    }
  }
}