{
  "address": "0x4C78ab1FF38fb42C96d331F466bD0958E0CAd652",
  "abi": [
    {
      "inputs": [
        {
          "internalType": "address",
          "name": "_controller",
          "type": "address"
        },
        {
          "internalType": "address",
          "name": "_weth",
          "type": "address"
        }
      ],
      "stateMutability": "nonpayable",
      "type": "constructor"
    },
    {
      "anonymous": false,
      "inputs": [
        {
          "indexed": true,
          "internalType": "address",
          "name": "garden",
          "type": "address"
        },
        {
          "indexed": true,
          "internalType": "address",
          "name": "strategy",
          "type": "address"
        },
        {
          "indexed": true,
          "internalType": "address",
          "name": "assetToken",
          "type": "address"
        },
        {
          "indexed": false,
          "internalType": "uint256",
          "name": "numTokensToRedeem",
          "type": "uint256"
        },
        {
          "indexed": false,
          "internalType": "uint256",
          "name": "protocolFee",
          "type": "uint256"
        }
      ],
      "name": "TokensRedeemed",
      "type": "event"
    },
    {
      "anonymous": false,
      "inputs": [
        {
          "indexed": true,
          "internalType": "address",
          "name": "garden",
          "type": "address"
        },
        {
          "indexed": true,
          "internalType": "address",
          "name": "strategy",
          "type": "address"
        },
        {
          "indexed": true,
          "internalType": "address",
          "name": "assetToken",
          "type": "address"
        },
        {
          "indexed": false,
          "internalType": "uint256",
          "name": "numTokensToSupply",
          "type": "uint256"
        }
      ],
      "name": "TokensSupplied",
      "type": "event"
    },
    {
      "inputs": [],
      "name": "controller",
      "outputs": [
        {
          "internalType": "address",
          "name": "",
          "type": "address"
        }
      ],
      "stateMutability": "view",
      "type": "function"
    },
    {
      "inputs": [
        {
          "internalType": "address",
          "name": "_assetToken",
          "type": "address"
        }
      ],
      "name": "getExchangeRatePerToken",
      "outputs": [
        {
          "internalType": "uint256",
          "name": "",
          "type": "uint256"
        }
      ],
      "stateMutability": "view",
      "type": "function"
    },
    {
      "inputs": [
        {
          "internalType": "address",
          "name": "_assetToken",
          "type": "address"
        },
        {
          "internalType": "uint256",
          "name": "_numTokensToSupply",
          "type": "uint256"
        }
      ],
      "name": "getExpectedShares",
      "outputs": [
        {
          "internalType": "uint256",
          "name": "",
          "type": "uint256"
        }
      ],
      "stateMutability": "view",
      "type": "function"
    },
    {
      "inputs": [
        {
          "internalType": "address",
          "name": "_assetToken",
          "type": "address"
        }
      ],
      "name": "getInvestmentToken",
      "outputs": [
        {
          "internalType": "address",
          "name": "",
          "type": "address"
        }
      ],
      "stateMutability": "view",
      "type": "function"
    },
    {
      "inputs": [],
      "name": "getName",
      "outputs": [
        {
          "internalType": "string",
          "name": "",
          "type": "string"
        }
      ],
      "stateMutability": "view",
      "type": "function"
    },
    {
      "inputs": [
        {
          "internalType": "address",
          "name": "",
          "type": "address"
        }
      ],
      "name": "initializedByGarden",
      "outputs": [
        {
          "internalType": "bool",
          "name": "",
          "type": "bool"
        }
      ],
      "stateMutability": "view",
      "type": "function"
    },
    {
      "inputs": [
        {
          "internalType": "address",
          "name": "_investmentAddress",
          "type": "address"
        }
      ],
      "name": "isInvestment",
      "outputs": [
        {
          "internalType": "bool",
          "name": "",
          "type": "bool"
        }
      ],
      "stateMutability": "view",
      "type": "function"
    },
    {
      "inputs": [],
      "name": "name",
      "outputs": [
        {
          "internalType": "string",
          "name": "",
          "type": "string"
        }
      ],
      "stateMutability": "view",
      "type": "function"
    },
    {
      "inputs": [
        {
          "internalType": "address",
          "name": "_strategy",
          "type": "address"
        },
        {
          "internalType": "address",
          "name": "_assetToken",
          "type": "address"
        },
        {
          "internalType": "uint256",
          "name": "_numTokensToRedeem",
          "type": "uint256"
        },
        {
          "internalType": "uint256",
          "name": "_minAmountExpected",
          "type": "uint256"
        }
      ],
      "name": "redeemTokens",
      "outputs": [],
      "stateMutability": "nonpayable",
      "type": "function"
    },
    {
      "inputs": [
        {
          "internalType": "address",
          "name": "_strategy",
          "type": "address"
        },
        {
          "internalType": "address",
          "name": "_assetToken",
          "type": "address"
        },
        {
          "internalType": "uint256",
          "name": "_numTokensToSupply",
          "type": "uint256"
        },
        {
          "internalType": "uint256",
          "name": "_minAmountExpected",
          "type": "uint256"
        }
      ],
      "name": "supplyTokens",
      "outputs": [],
      "stateMutability": "nonpayable",
      "type": "function"
    },
    {
      "inputs": [],
      "name": "weth",
      "outputs": [
        {
          "internalType": "address",
          "name": "",
          "type": "address"
        }
      ],
      "stateMutability": "view",
      "type": "function"
    }
  ],
  "transactionHash": "0x550486739d82081fd6e820f7e37c1a8fd3d98cf5db1b8623ec459d61b3180356",
  "args": [
    "0xD4a5b5fcB561dAF3aDF86F8477555B92FBa43b5F",
    "0xC02aaA39b223FE8D0A0e5C4F27eAD9083C756Cc2"
  ],
  "solcInputHash": "bd873b418320faeabd457a4fe7c7c19d",
  "bytecode": "0x60a06040523480156200001157600080fd5b506040516200139e3803806200139e833981810160405260408110156200003757600080fd5b50805160209182015160408051808201909152600881526718585d995b195b9960c21b93810193909352909181838282826001600160a01b038116620000c4576040805162461bcd60e51b815260206004820152601a60248201527f436f6e74726f6c6c6572206d75737420626520646566696e6564000000000000604482015290519081900360640190fd5b8251620000d99060019060208601906200011c565b50600080546001600160a01b0319166001600160a01b039290921691909117905560601b6001600160601b0319166080525050600160035550620001c892505050565b828054600181600116156101000203166002900490600052602060002090601f0160209004810192826200015457600085556200019f565b82601f106200016f57805160ff19168380011785556200019f565b828001600101855582156200019f579182015b828111156200019f57825182559160200191906001019062000182565b50620001ad929150620001b1565b5090565b5b80821115620001ad5760008155600101620001b2565b60805160601c6111b8620001e66000398061041852506111b86000f3fe608060405234801561001057600080fd5b50600436106100c95760003560e01c80639e12fef211610081578063eb40e6001161005b578063eb40e60014610279578063f14b57881461029f578063f77c4791146102db576100c9565b80639e12fef2146101db578063b10198fb14610215578063d0d2d3a21461023b576100c9565b806317d7de7c116100b257806317d7de7c146101835780633fc8cef31461018b5780634deef649146101af576100c9565b806306fdde03146100ce57806307b54c6f1461014b575b600080fd5b6100d66102e3565b6040805160208082528351818301528351919283929083019185019080838360005b838110156101105781810151838201526020016100f8565b50505050905090810190601f16801561013d5780820380516001836020036101000a031916815260200191505b509250505060405180910390f35b6101716004803603602081101561016157600080fd5b50356001600160a01b0316610370565b60408051918252519081900360200190f35b6100d6610381565b610193610416565b604080516001600160a01b039092168252519081900360200190f35b610171600480360360408110156101c557600080fd5b506001600160a01b03813516906020013561043a565b610201600480360360208110156101f157600080fd5b50356001600160a01b031661044d565b604080519115158252519081900360200190f35b6102016004803603602081101561022b57600080fd5b50356001600160a01b0316610458565b6102776004803603608081101561025157600080fd5b506001600160a01b0381358116916020810135909116906040810135906060013561046d565b005b6101936004803603602081101561028f57600080fd5b50356001600160a01b03166106b6565b610277600480360360808110156102b557600080fd5b506001600160a01b038135811691602081013590911690604081013590606001356106c1565b610193610937565b60018054604080516020600284861615610100026000190190941693909304601f810184900484028201840190925281815292918301828280156103685780601f1061033d57610100808354040283529160200191610368565b820191906000526020600020905b81548152906001019060200180831161034b57829003601f168201915b505050505081565b600061037b82610946565b92915050565b60018054604080516020601f6002600019610100878916150201909516949094049384018190048102820181019092528281526060939092909183018282801561040c5780601f106103e15761010080835404028352916020019161040c565b820191906000526020600020905b8154815290600101906020018083116103ef57829003601f168201915b5050505050905090565b7f000000000000000000000000000000000000000000000000000000000000000081565b6000610446838361094c565b9392505050565b600061037b82610951565b60026020526000908152604090205460ff1681565b6000610484858561047d876109f3565b8686610a8a565b905061048f81610be5565b600080600061049f888888610cba565b92509250925083600001516001600160a01b0316636bc195dd8484846040518463ffffffff1660e01b815260040180846001600160a01b0316815260200183815260200180602001828103825283818151815260200191508051906020019080838360005b8381101561051c578181015183820152602001610504565b50505050905090810190601f1680156105495780820380516001836020036101000a031916815260200191505b50945050505050600060405180830381600087803b15801561056a57600080fd5b505af115801561057e573d6000803e3d6000fd5b505050506040513d6000823e601f3d908101601f1916820160405260208110156105a757600080fd5b81019080805160405193929190846401000000008211156105c757600080fd5b9083019060208201858111156105dc57600080fd5b82516401000000008111828201881017156105f657600080fd5b82525081516020918201929091019080838360005b8381101561062357818101518382015260200161060b565b50505050905090810190601f1680156106505780820380516001836020036101000a031916815260200191505b506040525050505061066184610d59565b8351602080860151604080518a815290516001600160a01b03808d16958116949316927fd17d95895382b096bb1f89ed05a71c3e014d5ecf25944c8f1f27f07b2b9d3194928290030190a45050505050505050565b600061037b826109f3565b60006106d1858561047d876109f3565b90506106dc81610e21565b80516001600160a01b03166397ccdc606106f586610eac565b86866040518463ffffffff1660e01b815260040180846001600160a01b03168152602001836001600160a01b031681526020018281526020019350505050600060405180830381600087803b15801561074d57600080fd5b505af1158015610761573d6000803e3d6000fd5b505050506000806000610775888888610ec5565b92509250925083600001516001600160a01b0316636bc195dd8484846040518463ffffffff1660e01b815260040180846001600160a01b0316815260200183815260200180602001828103825283818151815260200191508051906020019080838360005b838110156107f25781810151838201526020016107da565b50505050905090810190601f16801561081f5780820380516001836020036101000a031916815260200191505b50945050505050600060405180830381600087803b15801561084057600080fd5b505af1158015610854573d6000803e3d6000fd5b505050506040513d6000823e601f3d908101601f19168201604052602081101561087d57600080fd5b810190808051604051939291908464010000000082111561089d57600080fd5b9083019060208201858111156108b257600080fd5b82516401000000008111828201881017156108cc57600080fd5b82525081516020918201929091019080838360005b838110156108f95781810151838201526020016108e1565b50505050905090810190601f1680156109265780820380516001836020036101000a031916815260200191505b506040525050505061066184610f66565b6000546001600160a01b031681565b50600190565b919050565b60008073057835ad21a177dbdd3090bb1cae03eacf78fc6d6001600160a01b031663d2493b6c846040518263ffffffff1660e01b815260040180826001600160a01b0316815260200191505060606040518083038186803b1580156109b557600080fd5b505afa1580156109c9573d6000803e3d6000fd5b505050506040513d60608110156109df57600080fd5b50516001600160a01b031615159392505050565b60008073057835ad21a177dbdd3090bb1cae03eacf78fc6d6001600160a01b031663d2493b6c846040518263ffffffff1660e01b815260040180826001600160a01b0316815260200191505060606040518083038186803b158015610a5757600080fd5b505afa158015610a6b573d6000803e3d6000fd5b505050506040513d6060811015610a8157600080fd5b50519392505050565b610a92611028565b610a9a611028565b6001600160a01b038716808252604080517f56ba88b800000000000000000000000000000000000000000000000000000000815290516356ba88b891600480820192602092909190829003018186803b158015610af657600080fd5b505afa158015610b0a573d6000803e3d6000fd5b505050506040513d6020811015610b2057600080fd5b50516001600160a01b039081166020838101919091528782166040808501919091528783166060850181905281517f70a08231000000000000000000000000000000000000000000000000000000008152938b166004850152905190926370a08231926024808301939192829003018186803b158015610b9f57600080fd5b505afa158015610bb3573d6000803e3d6000fd5b505050506040513d6020811015610bc957600080fd5b505160a082015260808101939093525060c08201529392505050565b610bf28160400151610951565b610c2d5760405162461bcd60e51b81526004018080602001828103825260238152602001806111606023913960400191505060405180910390fd5b6000816080015111610c705760405162461bcd60e51b815260040180806020018281038252603481526020018061112c6034913960400191505060405180910390fd5b80608001518160a001511015610cb75760405162461bcd60e51b81526004018080602001828103825260318152602001806110656031913960400191505060405180910390fd5b50565b604080516001600160a01b0393841660248201526044810192909252929091166064808301919091528251808303909101815260849091019091526020810180517bffffffffffffffffffffffffffffffffffffffffffffffffffffffff167f69328dec00000000000000000000000000000000000000000000000000000000179052737d2768de32b0b80b7a3454c06bdac94a69ddc7a99160009190565b80608001518160a001510381606001516001600160a01b03166370a0823183600001516040518263ffffffff1660e01b815260040180826001600160a01b0316815260200191505060206040518083038186803b158015610db957600080fd5b505afa158015610dcd573d6000803e3d6000fd5b505050506040513d6020811015610de357600080fd5b505114610cb75760405162461bcd60e51b815260040180806020018281038252602f8152602001806110c6602f913960400191505060405180910390fd5b610e2e8160400151610951565b610e695760405162461bcd60e51b81526004018080602001828103825260238152602001806111606023913960400191505060405180910390fd5b6000816080015111610cb75760405162461bcd60e51b81526004018080602001828103825260378152602001806110f56037913960400191505060405180910390fd5b50737d2768de32b0b80b7a3454c06bdac94a69ddc7a990565b604080516001600160a01b0393841660248201526044810192909252929091166064820152600060848083018290528351808403909101815260a49092019092526020810180517bffffffffffffffffffffffffffffffffffffffffffffffffffffffff167fe8eda9df00000000000000000000000000000000000000000000000000000000179052737d2768de32b0b80b7a3454c06bdac94a69ddc7a992565b8060a0015181606001516001600160a01b03166370a0823183600001516040518263ffffffff1660e01b815260040180826001600160a01b0316815260200191505060206040518083038186803b158015610fc057600080fd5b505afa158015610fd4573d6000803e3d6000fd5b505050506040513d6020811015610fea57600080fd5b505111610cb75760405162461bcd60e51b81526004018080602001828103825260308152602001806110966030913960400191505060405180910390fd5b6040805160e081018252600080825260208201819052918101829052606081018290526080810182905260a0810182905260c08101919091529056fe5468652067617264656e20646f6573206e6f74206861766520656e6f75676820696e766573746d656e7420746f6b656e735468652067617264656e20646964206e6f7420726563656976652074686520696e766573746d656e7420746f6b656e735468652067617264656e20646964206e6f742072657475726e2074686520696e766573746d656e7420746f6b656e734d696e20696e766573746d656e7420746f6b656e7320746f2072656365697665206d7573742062652067726561746572207468616e2030496e766573746d656e7420746f6b656e7320746f2065786368616e6765206d7573742062652067726561746572207468616e203054686520696e766573746d656e742061646472657373206973206e6f742076616c6964a264697066735822122062d543a7b36fd346f38186b4c6256d64bf59d23b699d1d2337e03e7b79ac891164736f6c63430007060033",
  "devdoc": {
    "author": "Babylon Finance Protocol Aave lend integration.",
    "kind": "dev",
    "methods": {
      "constructor": {
        "params": {
          "_controller": "Address of the controller",
          "_weth": "Address of the WETH ERC20"
        }
      },
      "getExpectedShares(address,uint256)": {
        "params": {
          "_numTokensToSupply": "Amount of ERC20 tokens to supply"
        },
        "returns": {
          "_0": "uint256                           Amount of supply tokens to receive"
        }
      },
      "isInvestment(address)": {
        "params": {
          "_investmentAddress": "Investment address to check"
        },
        "returns": {
          "_0": "bool                              True if the address is a investment"
        }
      }
    },
    "title": "AaveLendIntegration",
    "version": 1
  },
  "userdoc": {
    "kind": "user",
    "methods": {
      "constructor": {
        "notice": "Creates the integration"
      },
      "getExpectedShares(address,uint256)": {
        "notice": "Gets the amount of cTokens expected to get after depositing ERC20 asset."
      },
      "getName()": {
        "notice": "Returns the name of the integration"
      },
      "isInvestment(address)": {
        "notice": "Checks whether an investment address is valid"
      }
    },
    "version": 1
  },
  "storageLayout": {
    "storage": [
      {
        "astId": 17657,
        "contract": "contracts/integrations/lend/AaveLendIntegration.sol:AaveLendIntegration",
        "label": "controller",
        "offset": 0,
        "slot": "0",
        "type": "t_address"
      },
      {
        "astId": 17661,
        "contract": "contracts/integrations/lend/AaveLendIntegration.sol:AaveLendIntegration",
        "label": "name",
        "offset": 0,
        "slot": "1",
        "type": "t_string_storage"
      },
      {
        "astId": 17665,
        "contract": "contracts/integrations/lend/AaveLendIntegration.sol:AaveLendIntegration",
        "label": "initializedByGarden",
        "offset": 0,
        "slot": "2",
        "type": "t_mapping(t_address,t_bool)"
      },
      {
        "astId": 5603,
        "contract": "contracts/integrations/lend/AaveLendIntegration.sol:AaveLendIntegration",
        "label": "_status",
        "offset": 0,
        "slot": "3",
        "type": "t_uint256"
      }
    ],
    "types": {
      "t_address": {
        "encoding": "inplace",
        "label": "address",
        "numberOfBytes": "20"
      },
      "t_bool": {
        "encoding": "inplace",
        "label": "bool",
        "numberOfBytes": "1"
      },
      "t_mapping(t_address,t_bool)": {
        "encoding": "mapping",
        "key": "t_address",
        "label": "mapping(address => bool)",
        "numberOfBytes": "32",
        "value": "t_bool"
      },
      "t_string_storage": {
        "encoding": "bytes",
        "label": "string",
        "numberOfBytes": "32"
      },
      "t_uint256": {
        "encoding": "inplace",
        "label": "uint256",
        "numberOfBytes": "32"
      }
    }
  }
}