{
  "address": "0x4bE896b1398408b5fbA7537f8dd13A302fA26528",
  "abi": [
    {
      "inputs": [
        {
          "internalType": "string",
          "name": "_name",
          "type": "string"
        },
        {
          "internalType": "address",
          "name": "_controller",
          "type": "address"
        }
      ],
      "stateMutability": "nonpayable",
      "type": "constructor"
    },
    {
      "inputs": [],
      "name": "controller",
      "outputs": [
        {
          "internalType": "address",
          "name": "",
          "type": "address"
        }
      ],
      "stateMutability": "view",
      "type": "function"
    },
    {
      "inputs": [
        {
          "internalType": "address",
          "name": "_asset",
          "type": "address"
        },
        {
          "internalType": "uint256",
          "name": "_capital",
          "type": "uint256"
        },
        {
          "internalType": "uint8",
          "name": "",
          "type": "uint8"
        },
        {
          "internalType": "address",
          "name": "_pool",
          "type": "address"
        },
        {
          "internalType": "contract IGarden",
          "name": "_garden",
          "type": "address"
        },
        {
          "internalType": "address",
          "name": "_integration",
          "type": "address"
        }
      ],
      "name": "executeOperation",
      "outputs": [
        {
          "internalType": "address",
          "name": "",
          "type": "address"
        },
        {
          "internalType": "uint256",
          "name": "",
          "type": "uint256"
        },
        {
          "internalType": "uint8",
          "name": "",
          "type": "uint8"
        }
      ],
      "stateMutability": "nonpayable",
      "type": "function"
    },
    {
      "inputs": [
        {
          "internalType": "address",
          "name": "",
          "type": "address"
        },
        {
          "internalType": "uint256",
          "name": "",
          "type": "uint256"
        },
        {
          "internalType": "uint8",
          "name": "",
          "type": "uint8"
        },
        {
          "internalType": "uint256",
          "name": "_percentage",
          "type": "uint256"
        },
        {
          "internalType": "address",
          "name": "_data",
          "type": "address"
        },
        {
          "internalType": "contract IGarden",
          "name": "_garden",
          "type": "address"
        },
        {
          "internalType": "address",
          "name": "_integration",
          "type": "address"
        }
      ],
      "name": "exitOperation",
      "outputs": [
        {
          "internalType": "address",
          "name": "",
          "type": "address"
        },
        {
          "internalType": "uint256",
          "name": "",
          "type": "uint256"
        },
        {
          "internalType": "uint8",
          "name": "",
          "type": "uint8"
        }
      ],
      "stateMutability": "nonpayable",
      "type": "function"
    },
    {
      "inputs": [
        {
          "internalType": "address",
          "name": "_pool",
          "type": "address"
        },
        {
          "internalType": "contract IGarden",
          "name": "_garden",
          "type": "address"
        },
        {
          "internalType": "address",
          "name": "_integration",
          "type": "address"
        }
      ],
      "name": "getNAV",
      "outputs": [
        {
          "internalType": "uint256",
          "name": "",
          "type": "uint256"
        },
        {
          "internalType": "bool",
          "name": "",
          "type": "bool"
        }
      ],
      "stateMutability": "view",
      "type": "function"
    },
    {
      "inputs": [],
      "name": "getName",
      "outputs": [
        {
          "internalType": "string",
          "name": "",
          "type": "string"
        }
      ],
      "stateMutability": "view",
      "type": "function"
    },
    {
      "inputs": [],
      "name": "name",
      "outputs": [
        {
          "internalType": "string",
          "name": "",
          "type": "string"
        }
      ],
      "stateMutability": "view",
      "type": "function"
    },
    {
      "inputs": [
        {
          "internalType": "address",
          "name": "_data",
          "type": "address"
        },
        {
          "internalType": "contract IGarden",
          "name": "",
          "type": "address"
        },
        {
          "internalType": "address",
          "name": "_integration",
          "type": "address"
        },
        {
          "internalType": "uint256",
          "name": "",
          "type": "uint256"
        }
      ],
      "name": "validateOperation",
      "outputs": [],
      "stateMutability": "view",
      "type": "function"
    }
  ],
  "transactionHash": "0x675d5327a7ee038a210e991b6889da0d83f14c5846bc3c69955ffac573354369",
  "args": [
    "lp",
    "0xD4a5b5fcB561dAF3aDF86F8477555B92FBa43b5F"
  ],
  "solcInputHash": "9848dc78f52f46992b529e31fb1275ff",
  "bytecode": "0x60806040523480156200001157600080fd5b506040516200261438038062002614833981810160405260408110156200003757600080fd5b81019080805160405193929190846401000000008211156200005857600080fd5b9083019060208201858111156200006e57600080fd5b82516401000000008111828201881017156200008957600080fd5b82525081516020918201929091019080838360005b83811015620000b85781810151838201526020016200009e565b50505050905090810190601f168015620000e65780820380516001836020036101000a031916815260200191505b50604052602001519150829050816001600160a01b03811662000150576040805162461bcd60e51b815260206004820152601a60248201527f436f6e74726f6c6c6572206d75737420626520646566696e6564000000000000604482015290519081900360640190fd5b81516200016590600190602085019062000190565b50600080546001600160a01b0319166001600160a01b0392909216919091179055506200023c915050565b828054600181600116156101000203166002900490600052602060002090601f016020900481019282620001c8576000855562000213565b82601f10620001e357805160ff191683800117855562000213565b8280016001018555821562000213579182015b8281111562000213578251825591602001919060010190620001f6565b506200022192915062000225565b5090565b5b8082111562000221576000815560010162000226565b6123c8806200024c6000396000f3fe608060405234801561001057600080fd5b506004361061007d5760003560e01c80634222326a1161005b5780634222326a1461018757806355d9750b146101d8578063c8cd307514610225578063f77c4791146102635761007d565b806306fdde03146100825780630c22cfd2146100ff57806317d7de7c1461017f575b600080fd5b61008a610287565b6040805160208082528351818301528351919283929083019185019080838360005b838110156100c45781810151838201526020016100ac565b50505050905090810190601f1680156100f15780820380516001836020036101000a031916815260200191505b509250505060405180910390f35b610154600480360360e081101561011557600080fd5b506001600160a01b03813581169160208101359160ff60408301351691606081013591608082013581169160a081013582169160c09091013516610314565b604080516001600160a01b039094168452602084019290925260ff1682820152519081900360600190f35b61008a610c53565b6101bf6004803603606081101561019d57600080fd5b506001600160a01b038135811691602081013582169160409091013516610ce8565b6040805192835290151560208301528051918290030190f35b610154600480360360c08110156101ee57600080fd5b506001600160a01b03813581169160208101359160ff604083013516916060810135821691608082013581169160a0013516611190565b6102616004803603608081101561023b57600080fd5b506001600160a01b038135811691602081013582169160408201351690606001356118e2565b005b61026b611baf565b604080516001600160a01b039092168252519081900360200190f35b60018054604080516020600284861615610100026000190190941693909304601f8101849004840282018401909252818152929183018282801561030c5780601f106102e15761010080835404028352916020019161030c565b820191906000526020600020905b8154815290600101906020018083116102ef57829003601f168201915b505050505081565b6000806000803390506000816001600160a01b03166356ba88b86040518163ffffffff1660e01b815260040160206040518083038186803b15801561035857600080fd5b505afa15801561036c573d6000803e3d6000fd5b505050506040513d602081101561038257600080fd5b5051600054604080516313bc6d4b60e01b81526001600160a01b03808516600483015291519394509116916313bc6d4b91602480820192602092909190829003018186803b1580156103d357600080fd5b505afa1580156103e7573d6000803e3d6000fd5b505050506040513d60208110156103fd57600080fd5b5051610450576040805162461bcd60e51b815260206004820152601b60248201527f4f6e6c7920612067617264656e2063616e2063616c6c20746869730000000000604482015290519081900360640190fd5b60408051633a82192560e01b815233600482015290516001600160a01b03831691633a821925916024808301926020929190829003018186803b15801561049657600080fd5b505afa1580156104aa573d6000803e3d6000fd5b505050506040513d60208110156104c057600080fd5b5051610513576040805162461bcd60e51b815260206004820152601960248201527f53656e646572206d757374206265206120737472617465677900000000000000604482015290519081900360640190fd5b68056bc75e2d63100000891115610571576040805162461bcd60e51b815260206004820152601960248201527f556e77696e642050657263656e74616765203c3d203130302500000000000000604482015290519081900360640190fd5b60008890506000876001600160a01b031663ca4f2803836040518263ffffffff1660e01b815260040180826001600160a01b0316815260200191505060006040518083038186803b1580156105c557600080fd5b505afa1580156105d9573d6000803e3d6000fd5b505050506040513d6000823e601f3d908101601f19168201604052602081101561060257600080fd5b810190808051604051939291908464010000000082111561062257600080fd5b90830190602082018581111561063757600080fd5b825186602082028301116401000000008211171561065457600080fd5b82525081516020918201928201910280838360005b83811015610681578181015183820152602001610669565b50505050905001604052505050905060006107158c846001600160a01b03166370a08231336040518263ffffffff1660e01b815260040180826001600160a01b0316815260200191505060206040518083038186803b1580156106e357600080fd5b505afa1580156106f7573d6000803e3d6000fd5b505050506040513d602081101561070d57600080fd5b505190611bbe565b90506000896001600160a01b031663f5e3932585846040518363ffffffff1660e01b815260040180836001600160a01b031681526020018281526020019250505060006040518083038186803b15801561076e57600080fd5b505afa158015610782573d6000803e3d6000fd5b505050506040513d6000823e601f3d908101601f1916820160405260208110156107ab57600080fd5b81019080805160405193929190846401000000008211156107cb57600080fd5b9083019060208201858111156107e057600080fd5b82518660208202830111640100000000821117156107fd57600080fd5b82525081516020918201928201910280838360005b8381101561082a578181015183820152602001610812565b505050509050016040525050509050896001600160a01b03166362cc395a33868587866040518663ffffffff1660e01b815260040180866001600160a01b03168152602001856001600160a01b031681526020018481526020018060200180602001838103835285818151815260200191508051906020019060200280838360005b838110156108c45781810151838201526020016108ac565b50505050905001838103825284818151815260200191508051906020019060200280838360005b838110156109035781810151838201526020016108eb565b50505050905001975050505050505050600060405180830381600087803b15801561092d57600080fd5b505af1158015610941573d6000803e3d6000fd5b5050505060008b6001600160a01b031663f85cb5c86040518163ffffffff1660e01b815260040160206040518083038186803b15801561098057600080fd5b505afa158015610994573d6000803e3d6000fd5b505050506040513d60208110156109aa57600080fd5b5051905060005b8451811015610c3457816001600160a01b03168582815181106109d057fe5b60200260200101516001600160a01b031614610c2c5760006001600160a01b03168582815181106109fd57fe5b60200260200101516001600160a01b03161415610ab45760408051631a5cfcb760e01b81526001600482015233803160248301529151631a5cfcb79160448082019260009290919082900301818387803b158015610a5a57600080fd5b505af1158015610a6e573d6000803e3d6000fd5b5050505073c02aaa39b223fe8d0a0e5c4f27ead9083c756cc2858281518110610a9357fe5b60200260200101906001600160a01b031690816001600160a01b0316815250505b816001600160a01b0316858281518110610aca57fe5b60200260200101516001600160a01b031614610c2c57336001600160a01b0316630e32db52868381518110610afb57fe5b6020026020010151878481518110610b0f57fe5b60200260200101516001600160a01b03166370a08231336040518263ffffffff1660e01b815260040180826001600160a01b0316815260200191505060206040518083038186803b158015610b6357600080fd5b505afa158015610b77573d6000803e3d6000fd5b505050506040513d6020811015610b8d57600080fd5b5051604080517fffffffff0000000000000000000000000000000000000000000000000000000060e086901b1681526001600160a01b03938416600482015260248101929092529186166044820152905160648083019260209291908290030181600087803b158015610bff57600080fd5b505af1158015610c13573d6000803e3d6000fd5b505050506040513d6020811015610c2957600080fd5b50505b6001016109b1565b508c600080995099509950505050505050509750975097945050505050565b60018054604080516020601f60026000196101008789161502019095169490940493840181900481028201810190925282815260609390929091830182828015610cde5780601f10610cb357610100808354040283529160200191610cde565b820191906000526020600020905b815481529060010190602001808311610cc157829003601f168201915b5050505050905090565b600080336001600160a01b031663e4df5e1a6040518163ffffffff1660e01b815260040160206040518083038186803b158015610d2457600080fd5b505afa158015610d38573d6000803e3d6000fd5b505050506040513d6020811015610d4e57600080fd5b5051610d605750600090506001611188565b6000836001600160a01b031663ca4f2803876040518263ffffffff1660e01b815260040180826001600160a01b0316815260200191505060006040518083038186803b158015610daf57600080fd5b505afa158015610dc3573d6000803e3d6000fd5b505050506040513d6000823e601f3d908101601f191682016040526020811015610dec57600080fd5b8101908080516040519392919084640100000000821115610e0c57600080fd5b908301906020820185811115610e2157600080fd5b8251866020820283011164010000000082111715610e3e57600080fd5b82525081516020918201928201910280838360005b83811015610e6b578181015183820152602001610e53565b505050509050016040525050509050600080876001600160a01b03166318160ddd6040518163ffffffff1660e01b815260040160206040518083038186803b158015610eb657600080fd5b505afa158015610eca573d6000803e3d6000fd5b505050506040513d6020811015610ee057600080fd5b5051604080516370a0823160e01b815233600482015290519192506000916001600160a01b038b16916370a08231916024808301926020929190829003018186803b158015610f2e57600080fd5b505afa158015610f42573d6000803e3d6000fd5b505050506040513d6020811015610f5857600080fd5b5051905060005b845181101561112a57600061102e8a6001600160a01b031663f85cb5c86040518163ffffffff1660e01b815260040160206040518083038186803b158015610fa657600080fd5b505afa158015610fba573d6000803e3d6000fd5b505050506040513d6020811015610fd057600080fd5b50518751600090899086908110610fe357fe5b60200260200101516001600160a01b031614156110145773c02aaa39b223fe8d0a0e5c4f27ead9083c756cc2611029565b87848151811061102057fe5b60200260200101515b611bdf565b90506000806001600160a01b031687848151811061104857fe5b60200260200101516001600160a01b0316141561106f578b6001600160a01b0316316110fc565b86838151811061107b57fe5b60200260200101516001600160a01b03166370a082318d6040518263ffffffff1660e01b815260040180826001600160a01b0316815260200191505060206040518083038186803b1580156110cf57600080fd5b505afa1580156110e3573d6000803e3d6000fd5b505050506040513d60208110156110f957600080fd5b50515b905061111c82611116876111108589611d4c565b90611d70565b90611dd7565b909501945050600101610f5f565b508261117d576040805162461bcd60e51b815260206004820152601660248201527f4e41562068617320746f20626520626967676572203000000000000000000000604482015290519081900360640190fd5b509093506001925050505b935093915050565b6000806000803390506000816001600160a01b03166356ba88b86040518163ffffffff1660e01b815260040160206040518083038186803b1580156111d457600080fd5b505afa1580156111e8573d6000803e3d6000fd5b505050506040513d60208110156111fe57600080fd5b5051600054604080516313bc6d4b60e01b81526001600160a01b03808516600483015291519394509116916313bc6d4b91602480820192602092909190829003018186803b15801561124f57600080fd5b505afa158015611263573d6000803e3d6000fd5b505050506040513d602081101561127957600080fd5b50516112cc576040805162461bcd60e51b815260206004820152601b60248201527f4f6e6c7920612067617264656e2063616e2063616c6c20746869730000000000604482015290519081900360640190fd5b60408051633a82192560e01b815233600482015290516001600160a01b03831691633a821925916024808301926020929190829003018186803b15801561131257600080fd5b505afa158015611326573d6000803e3d6000fd5b505050506040513d602081101561133c57600080fd5b505161138f576040805162461bcd60e51b815260206004820152601960248201527f53656e646572206d757374206265206120737472617465677900000000000000604482015290519081900360640190fd5b6000866001600160a01b031663ca4f28038a6040518263ffffffff1660e01b815260040180826001600160a01b0316815260200191505060006040518083038186803b1580156113de57600080fd5b505afa1580156113f2573d6000803e3d6000fd5b505050506040513d6000823e601f3d908101601f19168201604052602081101561141b57600080fd5b810190808051604051939291908464010000000082111561143b57600080fd5b90830190602082018581111561145057600080fd5b825186602082028301116401000000008211171561146d57600080fd5b82525081516020918201928201910280838360005b8381101561149a578181015183820152602001611482565b5050505090500160405250505090506000815167ffffffffffffffff811180156114c357600080fd5b506040519080825280602002602001820160405280156114ed578160200160208202803683370190505b5090506000886001600160a01b031663bd9d8ad98c6040518263ffffffff1660e01b815260040180826001600160a01b0316815260200191505060006040518083038186803b15801561153f57600080fd5b505afa158015611553573d6000803e3d6000fd5b505050506040513d6000823e601f3d908101601f19168201604052602081101561157c57600080fd5b810190808051604051939291908464010000000082111561159c57600080fd5b9083019060208201858111156115b157600080fd5b82518660208202830111640100000000821117156115ce57600080fd5b82525081516020918201928201910280838360005b838110156115fb5781810151838201526020016115e3565b50505050905001604052505050905060005b8351811015611668576116498f8f8d85858151811061162857fe5b602002602001015188868151811061163c57fe5b6020026020010151611def565b83828151811061165557fe5b602090810291909101015260010161160d565b506000896001600160a01b0316633cd5bd958d8660008151811061168857fe5b60200260200101518660008151811061169d57fe5b60200260200101516040518463ffffffff1660e01b815260040180846001600160a01b03168152602001836001600160a01b03168152602001828152602001935050505060206040518083038186803b1580156116f957600080fd5b505afa15801561170d573d6000803e3d6000fd5b505050506040513d602081101561172357600080fd5b505190506001600160a01b038a1663708a3476338e61175361174c86662386f26fc10000611bbe565b86906121bb565b88886040518663ffffffff1660e01b815260040180866001600160a01b03168152602001856001600160a01b031681526020018481526020018060200180602001838103835285818151815260200191508051906020019060200280838360005b838110156117cc5781810151838201526020016117b4565b50505050905001838103825284818151815260200191508051906020019060200280838360005b8381101561180b5781810151838201526020016117f3565b50505050905001975050505050505050600060405180830381600087803b15801561183557600080fd5b505af1158015611849573d6000803e3d6000fd5b505050508b8c6001600160a01b03166370a08231336040518263ffffffff1660e01b815260040180826001600160a01b0316815260200191505060206040518083038186803b15801561189b57600080fd5b505afa1580156118af573d6000803e3d6000fd5b505050506040513d60208110156118c557600080fd5b505190995097506000965050505050505096509650969350505050565b60003390506000816001600160a01b03166356ba88b86040518163ffffffff1660e01b815260040160206040518083038186803b15801561192257600080fd5b505afa158015611936573d6000803e3d6000fd5b505050506040513d602081101561194c57600080fd5b5051600054604080516313bc6d4b60e01b81526001600160a01b03808516600483015291519394509116916313bc6d4b91602480820192602092909190829003018186803b15801561199d57600080fd5b505afa1580156119b1573d6000803e3d6000fd5b505050506040513d60208110156119c757600080fd5b5051611a1a576040805162461bcd60e51b815260206004820152601b60248201527f4f6e6c7920612067617264656e2063616e2063616c6c20746869730000000000604482015290519081900360640190fd5b60408051633a82192560e01b815233600482015290516001600160a01b03831691633a821925916024808301926020929190829003018186803b158015611a6057600080fd5b505afa158015611a74573d6000803e3d6000fd5b505050506040513d6020811015611a8a57600080fd5b5051611add576040805162461bcd60e51b815260206004820152601960248201527f53656e646572206d757374206265206120737472617465677900000000000000604482015290519081900360640190fd5b836001600160a01b0316635b16ebb7876040518263ffffffff1660e01b815260040180826001600160a01b0316815260200191505060206040518083038186803b158015611b2a57600080fd5b505afa158015611b3e573d6000803e3d6000fd5b505050506040513d6020811015611b5457600080fd5b5051611ba7576040805162461bcd60e51b815260206004820152601060248201527f4e6f7420612076616c696420706f6f6c00000000000000000000000000000000604482015290519081900360640190fd5b505050505050565b6000546001600160a01b031681565b6000611bd6670de0b6b3a76400006111108585611d4c565b90505b92915050565b60008054604080517f2630c12f000000000000000000000000000000000000000000000000000000008152905183926001600160a01b031691632630c12f916004808301926020929190829003018186803b158015611c3d57600080fd5b505afa158015611c51573d6000803e3d6000fd5b505050506040513d6020811015611c6757600080fd5b505190506001600160a01b038082169063ac41865a90861615611c8a5785611ca0565b73c02aaa39b223fe8d0a0e5c4f27ead9083c756cc25b6001600160a01b03861615611cb55785611ccb565b73c02aaa39b223fe8d0a0e5c4f27ead9083c756cc25b6040518363ffffffff1660e01b815260040180836001600160a01b03168152602001826001600160a01b031681526020019250505060206040518083038186803b158015611d1857600080fd5b505afa158015611d2c573d6000803e3d6000fd5b505050506040513d6020811015611d4257600080fd5b5051949350505050565b6000821580611d6757505081810281838281611d6457fe5b04145b611bd957600080fd5b6000808211611dc6576040805162461bcd60e51b815260206004820152601a60248201527f536166654d6174683a206469766973696f6e206279207a65726f000000000000604482015290519081900360640190fd5b818381611dcf57fe5b049392505050565b6000611bd68261111085670de0b6b3a7640000611d4c565b600080611dfc8685611bbe565b90506000611e32886001600160a01b038616611e2c5773c02aaa39b223fe8d0a0e5c4f27ead9083c756cc2611029565b85611bdf565b90506000611e4a8986611e458686611bbe565b6121cb565b9050886001600160a01b0316856001600160a01b031614158015611e7657506001600160a01b03851615155b15611f7b57604080516307196da960e11b81526001600160a01b038b81166004830152602482018690528716604482015290513391630e32db529160648083019260209291908290030181600087803b158015611ed257600080fd5b505af1158015611ee6573d6000803e3d6000fd5b505050506040513d6020811015611efc57600080fd5b5050604080516370a0823160e01b815233600482015290516001600160a01b038716916370a08231916024808301926020929190829003018186803b158015611f4457600080fd5b505afa158015611f58573d6000803e3d6000fd5b505050506040513d6020811015611f6e57600080fd5b505193506121b292505050565b6001600160a01b0385166121ad576001600160a01b03891673c02aaa39b223fe8d0a0e5c4f27ead9083c756cc21461204357604080516307196da960e11b81526001600160a01b038b1660048201526024810185905273c02aaa39b223fe8d0a0e5c4f27ead9083c756cc2604482015290513391630e32db529160648083019260209291908290030181600087803b15801561201657600080fd5b505af115801561202a573d6000803e3d6000fd5b505050506040513d602081101561204057600080fd5b50505b604080516370a0823160e01b8152336004820152905173c02aaa39b223fe8d0a0e5c4f27ead9083c756cc2916370a08231916024808301926020929190829003018186803b15801561209457600080fd5b505afa1580156120a8573d6000803e3d6000fd5b505050506040513d60208110156120be57600080fd5b505181111561214957604080516370a0823160e01b8152336004820152905173c02aaa39b223fe8d0a0e5c4f27ead9083c756cc2916370a08231916024808301926020929190829003018186803b15801561211857600080fd5b505afa15801561212c573d6000803e3d6000fd5b505050506040513d602081101561214257600080fd5b505161214b565b805b60408051631a5cfcb760e01b81526000600482018190526024820184905291519293503392631a5cfcb79260448084019391929182900301818387803b15801561219457600080fd5b505af11580156121a8573d6000803e3d6000fd5b505050505b925050505b95945050505050565b80820382811115611bd957600080fd5b6000806001600160a01b0385161561224757846001600160a01b031663313ce5676040518163ffffffff1660e01b815260040160206040518083038186803b15801561221657600080fd5b505afa15801561222a573d6000803e3d6000fd5b505050506040513d602081101561224057600080fd5b505161224a565b60125b60ff16905060006001600160a01b038516156122ca57846001600160a01b031663313ce5676040518163ffffffff1660e01b815260040160206040518083038186803b15801561229957600080fd5b505afa1580156122ad573d6000803e3d6000fd5b505050506040513d60208110156122c357600080fd5b50516122cd565b60125b60ff169050601282111580156122e4575060128111155b612335576040805162461bcd60e51b815260206004820152601460248201527f556e737570706f7274656420646563696d616c73000000000000000000000000604482015290519081900360640190fd5b8082141561234757839250505061238b565b8181111561236f5761236661235c82846121bb565b8590600a0a611d4c565b9250505061238b565b61238661237c83836121bb565b8590600a0a611d70565b925050505b939250505056fea2646970667358221220163771ad02b72c813d63cd250c7ec24d4e0f889b58b61f075c4bd55f5ee7cf8064736f6c63430007060033",
  "devdoc": {
    "author": "Babylon Finance Executes a add liquidity operation",
    "kind": "dev",
    "methods": {
      "constructor": {
        "params": {
          "_controller": "Address of the controller",
          "_name": "Name of the integration"
        }
      },
      "executeOperation(address,uint256,uint8,address,address,address)": {
        "params": {
          "_asset": "Asset to receive into this operation",
          "_capital": "Amount of asset received param _assetStatus        Status of the asset amount",
          "_garden": "Garden of the strategy",
          "_integration": "Address of the integration to execute",
          "_pool": "Address of the pool to enter"
        }
      },
      "exitOperation(address,uint256,uint8,uint256,address,address,address)": {
        "params": {
          "_percentage": "of capital to exit from the strategy"
        }
      },
      "getNAV(address,address,address)": {
        "params": {
          "_garden": "Garden the strategy belongs to",
          "_integration": "Status of the asset amount",
          "_pool": "Pool address"
        },
        "returns": {
          "_0": "_nav               NAV of the strategy"
        }
      },
      "validateOperation(address,address,address,uint256)": {
        "params": {
          "_data": "Operation data"
        }
      }
    },
    "title": "AddLiquidityOperation",
    "version": 1
  },
  "userdoc": {
    "kind": "user",
    "methods": {
      "constructor": {
        "notice": "Creates the integration"
      },
      "executeOperation(address,uint256,uint8,address,address,address)": {
        "notice": "Executes the add liquidity operation"
      },
      "exitOperation(address,uint256,uint8,uint256,address,address,address)": {
        "notice": "Exits the add liquidity operation."
      },
      "getNAV(address,address,address)": {
        "notice": "Gets the NAV of the add liquidity op in the reserve asset"
      },
      "getName()": {
        "notice": "Returns the name of the operation"
      },
      "validateOperation(address,address,address,uint256)": {
        "notice": "Sets operation data for the add liquidity operation"
      }
    },
    "version": 1
  },
  "storageLayout": {
    "storage": [
      {
        "astId": 36218,
        "contract": "contracts/strategies/operations/AddLiquidityOperation.sol:AddLiquidityOperation",
        "label": "controller",
        "offset": 0,
        "slot": "0",
        "type": "t_address"
      },
      {
        "astId": 36220,
        "contract": "contracts/strategies/operations/AddLiquidityOperation.sol:AddLiquidityOperation",
        "label": "name",
        "offset": 0,
        "slot": "1",
        "type": "t_string_storage"
      }
    ],
    "types": {
      "t_address": {
        "encoding": "inplace",
        "label": "address",
        "numberOfBytes": "20"
      },
      "t_string_storage": {
        "encoding": "bytes",
        "label": "string",
        "numberOfBytes": "32"
      }
    }
  }
}