{
  "address": "0xE06907782254caFca5DB98a31b08C40300dAF01F",
  "abi": [
    {
      "inputs": [
        {
          "internalType": "string",
          "name": "_name",
          "type": "string"
        },
        {
          "internalType": "address",
          "name": "_controller",
          "type": "address"
        }
      ],
      "stateMutability": "nonpayable",
      "type": "constructor"
    },
    {
      "inputs": [],
      "name": "controller",
      "outputs": [
        {
          "internalType": "address",
          "name": "",
          "type": "address"
        }
      ],
      "stateMutability": "view",
      "type": "function"
    },
    {
      "inputs": [
        {
          "internalType": "address",
          "name": "_asset",
          "type": "address"
        },
        {
          "internalType": "uint256",
          "name": "_capital",
          "type": "uint256"
        },
        {
          "internalType": "uint8",
          "name": "",
          "type": "uint8"
        },
        {
          "internalType": "bytes",
          "name": "_data",
          "type": "bytes"
        },
        {
          "internalType": "contract IGarden",
          "name": "_garden",
          "type": "address"
        },
        {
          "internalType": "address",
          "name": "_integration",
          "type": "address"
        }
      ],
      "name": "executeOperation",
      "outputs": [
        {
          "internalType": "address",
          "name": "",
          "type": "address"
        },
        {
          "internalType": "uint256",
          "name": "",
          "type": "uint256"
        },
        {
          "internalType": "uint8",
          "name": "",
          "type": "uint8"
        }
      ],
      "stateMutability": "nonpayable",
      "type": "function"
    },
    {
      "inputs": [
        {
          "internalType": "address",
          "name": "",
          "type": "address"
        },
        {
          "internalType": "uint256",
          "name": "",
          "type": "uint256"
        },
        {
          "internalType": "uint8",
          "name": "",
          "type": "uint8"
        },
        {
          "internalType": "uint256",
          "name": "_percentage",
          "type": "uint256"
        },
        {
          "internalType": "bytes",
          "name": "_data",
          "type": "bytes"
        },
        {
          "internalType": "contract IGarden",
          "name": "",
          "type": "address"
        },
        {
          "internalType": "address",
          "name": "_integration",
          "type": "address"
        }
      ],
      "name": "exitOperation",
      "outputs": [
        {
          "internalType": "address",
          "name": "",
          "type": "address"
        },
        {
          "internalType": "uint256",
          "name": "",
          "type": "uint256"
        },
        {
          "internalType": "uint8",
          "name": "",
          "type": "uint8"
        }
      ],
      "stateMutability": "nonpayable",
      "type": "function"
    },
    {
      "inputs": [
        {
          "internalType": "bytes",
          "name": "_data",
          "type": "bytes"
        },
        {
          "internalType": "contract IGarden",
          "name": "_garden",
          "type": "address"
        },
        {
          "internalType": "address",
          "name": "_integration",
          "type": "address"
        }
      ],
      "name": "getNAV",
      "outputs": [
        {
          "internalType": "uint256",
          "name": "",
          "type": "uint256"
        },
        {
          "internalType": "bool",
          "name": "",
          "type": "bool"
        }
      ],
      "stateMutability": "view",
      "type": "function"
    },
    {
      "inputs": [],
      "name": "getName",
      "outputs": [
        {
          "internalType": "string",
          "name": "",
          "type": "string"
        }
      ],
      "stateMutability": "view",
      "type": "function"
    },
    {
      "inputs": [],
      "name": "name",
      "outputs": [
        {
          "internalType": "string",
          "name": "",
          "type": "string"
        }
      ],
      "stateMutability": "view",
      "type": "function"
    },
    {
      "inputs": [
        {
          "internalType": "bytes",
          "name": "_data",
          "type": "bytes"
        },
        {
          "internalType": "contract IGarden",
          "name": "",
          "type": "address"
        },
        {
          "internalType": "address",
          "name": "_integration",
          "type": "address"
        },
        {
          "internalType": "uint256",
          "name": "",
          "type": "uint256"
        }
      ],
      "name": "validateOperation",
      "outputs": [],
      "stateMutability": "view",
      "type": "function"
    }
  ],
  "transactionHash": "0x549073aec105dfaff7838f2a4535345c79d68f682f44c68d59c929239500101b",
  "args": [
    "lp",
    "0xD4a5b5fcB561dAF3aDF86F8477555B92FBa43b5F"
  ],
  "numDeployments": 8,
  "solcInputHash": "b449cb5aec67dc49b858dceef0213a91",
  "bytecode": "0x60806040523480156200001157600080fd5b506040516200350638038062003506833981810160405260408110156200003757600080fd5b81019080805160405193929190846401000000008211156200005857600080fd5b9083019060208201858111156200006e57600080fd5b82516401000000008111828201881017156200008957600080fd5b82525081516020918201929091019080838360005b83811015620000b85781810151838201526020016200009e565b50505050905090810190601f168015620000e65780820380516001836020036101000a031916815260200191505b50604052602001519150829050816001600160a01b038116620001265760405162461bcd60e51b81526004016200011d9062000212565b60405180910390fd5b81516200013b90600190602085019062000166565b50600080546001600160a01b0319166001600160a01b03929092169190911790555062000249915050565b828054600181600116156101000203166002900490600052602060002090601f0160209004810192826200019e5760008555620001e9565b82601f10620001b957805160ff1916838001178555620001e9565b82800160010185558215620001e9579182015b82811115620001e9578251825591602001919060010190620001cc565b50620001f7929150620001fb565b5090565b5b80821115620001f75760008155600101620001fc565b6020808252601a908201527f436f6e74726f6c6c6572206d75737420626520646566696e6564000000000000604082015260600190565b6132ad80620002596000396000f3fe608060405234801561001057600080fd5b506004361061007d5760003560e01c8063a24258ad1161005b578063a24258ad146101d2578063bdd7a79c1461026c578063cdea203414610311578063f77c47911461039c5761007d565b806306fdde031461008257806317d7de7c146100ff57806387033f6114610107575b600080fd5b61008a6103c0565b6040805160208082528351818301528351919283929083019185019080838360005b838110156100c45781810151838201526020016100ac565b50505050905090810190601f1680156100f15780820380516001836020036101000a031916815260200191505b509250505060405180910390f35b61008a61044d565b6101a7600480360360c081101561011d57600080fd5b6001600160a01b038235169160208101359160ff604083013516919081019060808101606082013564010000000081111561015757600080fd5b82018360208201111561016957600080fd5b8035906020019184600183028401116401000000008311171561018b57600080fd5b91935091506001600160a01b03813581169160200135166104e2565b604080516001600160a01b039094168452602084019290925260ff1682820152519081900360600190f35b610253600480360360608110156101e857600080fd5b81019060208101813564010000000081111561020357600080fd5b82018360208201111561021557600080fd5b8035906020019184600183028401116401000000008311171561023757600080fd5b91935091506001600160a01b0381358116916020013516610e0a565b6040805192835290151560208301528051918290030190f35b6101a7600480360360e081101561028257600080fd5b6001600160a01b038235169160208101359160ff6040830135169160608101359181019060a0810160808201356401000000008111156102c157600080fd5b8201836020820111156102d357600080fd5b803590602001918460018302840111640100000000831117156102f557600080fd5b91935091506001600160a01b0381358116916020013516611585565b61039a6004803603608081101561032757600080fd5b81019060208101813564010000000081111561034257600080fd5b82018360208201111561035457600080fd5b8035906020019184600183028401116401000000008311171561037657600080fd5b91935091506001600160a01b0381358116916020810135909116906040013561200b565b005b6103a46122c8565b604080516001600160a01b039092168252519081900360200190f35b60018054604080516020600284861615610100026000190190941693909304601f810184900484028201840190925281815292918301828280156104455780601f1061041a57610100808354040283529160200191610445565b820191906000526020600020905b81548152906001019060200180831161042857829003601f168201915b505050505081565b60018054604080516020601f600260001961010087891615020190951694909404938401819004810282018101909252828152606093909290918301828280156104d85780601f106104ad576101008083540402835291602001916104d8565b820191906000526020600020905b8154815290600101906020018083116104bb57829003601f168201915b5050505050905090565b6000806000803390506000816001600160a01b03166356ba88b86040518163ffffffff1660e01b815260040160206040518083038186803b15801561052657600080fd5b505afa15801561053a573d6000803e3d6000fd5b505050506040513d601f19601f8201168201806040525081019061055e919061316f565b6000546040516313bc6d4b60e01b81529192506001600160a01b0316906313bc6d4b9061058f9084906004016131c3565b60206040518083038186803b1580156105a757600080fd5b505afa1580156105bb573d6000803e3d6000fd5b505050506040513d601f19601f820116820180604052508101906105df919061318b565b6106045760405162461bcd60e51b81526004016105fb906131f1565b60405180910390fd5b604051633a82192560e01b81526001600160a01b03821690633a821925906106309033906004016131c3565b60206040518083038186803b15801561064857600080fd5b505afa15801561065c573d6000803e3d6000fd5b505050506040513d601f19601f82011682018060405250810190610680919061318b565b61069c5760405162461bcd60e51b81526004016105fb90613228565b604080517fe022710700000000000000000000000000000000000000000000000000000000815260006024820181905260048201928352604482018b9052916001600160a01b0389169163e0227107918d918d9186918190606401858580828437600081840152601f19601f82011690508083019250505094505050505060006040518083038186803b15801561073257600080fd5b505afa158015610746573d6000803e3d6000fd5b505050506040513d6000823e601f3d908101601f19168201604052602081101561076f57600080fd5b810190808051604051939291908464010000000082111561078f57600080fd5b9083019060208201858111156107a457600080fd5b82518660208202830111640100000000821117156107c157600080fd5b82525081516020918201928201910280838360005b838110156107ee5781810151838201526020016107d6565b5050505090500160405250505090506000876001600160a01b03166307ec3d928c8c6040518363ffffffff1660e01b815260040180806020018281038252848482818152602001925080828437600081840152601f19601f820116905080830192505050935050505060006040518083038186803b15801561086f57600080fd5b505afa158015610883573d6000803e3d6000fd5b505050506040513d6000823e601f3d908101601f1916820160405260208110156108ac57600080fd5b81019080805160405193929190846401000000008211156108cc57600080fd5b9083019060208201858111156108e157600080fd5b82518660208202830111640100000000821117156108fe57600080fd5b82525081516020918201928201910280838360005b8381101561092b578181015183820152602001610913565b505050509050016040525050509050876001600160a01b031663640921598c8c6040518363ffffffff1660e01b815260040180806020018281038252848482818152602001925080828437600083820152604051601f909101601f191690920195506020945090925050508083038186803b1580156109a957600080fd5b505afa9250505080156109ce57506040513d60208110156109c957600080fd5b505160015b6109d757610b28565b8015610b26576000805b8451811015610abf57610a778582815181106109f957fe5b602002602001015186600188510381518110610a1157fe5b6020026020010151610a72610a50898681518110610a2b57fe5b60200260200101518a60018c510381518110610a4357fe5b60200260200101516122d7565b888681518110610a5c57fe5b602002602001015161245190919063ffffffff16565b612470565b848281518110610a8357fe5b602002602001018181525050610ab5848281518110610a9e57fe5b6020026020010151836124e890919063ffffffff16565b91506001016109e1565b5060005b8451811015610b2357610b0482610afe670de0b6b3a7640000878581518110610ae857fe5b60200260200101516124f890919063ffffffff16565b9061251c565b848281518110610b1057fe5b6020908102919091010152600101610ac3565b50505b505b6000610b378f8f8c8587612583565b90506000896001600160a01b0316631b7e75b78e8e87600081518110610b5957fe5b602002602001015186600081518110610b6e57fe5b60200260200101516040518563ffffffff1660e01b81526004018080602001846001600160a01b031681526020018381526020018281038252868682818152602001925080828437600081840152601f19601f8201169050808301925050509550505050505060206040518083038186803b158015610bec57600080fd5b505afa158015610c00573d6000803e3d6000fd5b505050506040513d6020811015610c1657600080fd5b505190506001600160a01b038a16637a6731ab338f8f610c47610c4087662386f26fc10000612451565b8790612655565b89886040518763ffffffff1660e01b815260040180876001600160a01b0316815260200180602001858152602001806020018060200184810384528989828181526020019250808284376000838201819052601f909101601f19169092018681038552885181528851602091820193828b0193509102908190849084905b83811015610cdd578181015183820152602001610cc5565b50505050905001848103825285818151815260200191508051906020019060200280838360005b83811015610d1c578181015183820152602001610d04565b505050509050019950505050505050505050600060405180830381600087803b158015610d4857600080fd5b505af1158015610d5c573d6000803e3d6000fd5b50505050610d6b8a8e8e612665565b610d768b8f8f612665565b6001600160a01b03166370a08231336040518263ffffffff1660e01b815260040180826001600160a01b0316815260200191505060206040518083038186803b158015610dc257600080fd5b505afa158015610dd6573d6000803e3d6000fd5b505050506040513d6020811015610dec57600080fd5b50519099509750600096505050505050509750975097945050505050565b600080336001600160a01b031663e4df5e1a6040518163ffffffff1660e01b815260040160206040518083038186803b158015610e4657600080fd5b505afa158015610e5a573d6000803e3d6000fd5b505050506040513d6020811015610e7057600080fd5b5051610e82575060009050600161157c565b6000610e8e87876126f1565b9050836001600160a01b031663bbe4f6db826040518263ffffffff1660e01b815260040180826001600160a01b0316815260200191505060206040518083038186803b158015610edd57600080fd5b505afa158015610ef1573d6000803e3d6000fd5b505050506040513d6020811015610f0757600080fd5b5051604080517f4fc99ed60000000000000000000000000000000000000000000000000000000081526001600160a01b038084166004830152915192935060009291871691634fc99ed691602480820192602092909190829003018186803b158015610f7257600080fd5b505afa158015610f86573d6000803e3d6000fd5b505050506040513d6020811015610f9c57600080fd5b5051604080517ff85cb5c800000000000000000000000000000000000000000000000000000000815290519192506000916110349184916001600160a01b038b169163f85cb5c8916004808301926020929190829003018186803b15801561100357600080fd5b505afa158015611017573d6000803e3d6000fd5b505050506040513d602081101561102d57600080fd5b50516122d7565b905080611088576040805162461bcd60e51b815260206004820152601860248201527f436f756c64206e6f74207072696365206c7020746f6b656e0000000000000000604482015290519081900360640190fd5b600061117183896001600160a01b031663f85cb5c86040518163ffffffff1660e01b815260040160206040518083038186803b1580156110c757600080fd5b505afa1580156110db573d6000803e3d6000fd5b505050506040513d60208110156110f157600080fd5b5051604080516370a0823160e01b81523360048201529051610a729187916001600160a01b038a16916370a08231916024808301926020929190829003018186803b15801561113f57600080fd5b505afa158015611153573d6000803e3d6000fd5b505050506040513d602081101561116957600080fd5b505190612451565b60405163361d45ed60e21b8152602060048201908152602482018c90529192506001600160a01b0389169163d87517b4918d918d918190604401848480828437600081840152601f19601f820116905080830192505050935050505060006040518083038186803b1580156111e557600080fd5b505afa9250505080156112a757506040513d6000823e601f3d908101601f19168201604052602081101561121857600080fd5b810190808051604051939291908464010000000082111561123857600080fd5b90830190602082018581111561124d57600080fd5b825186602082028301116401000000008211171561126a57600080fd5b82525081516020918201928201910280838360005b8381101561129757818101518382015260200161127f565b5050505090500160405250505060015b6112b057611520565b60005b815181101561151d5760006001600160a01b03168282815181106112d357fe5b60200260200101516001600160a01b03161415801561137e57506103e88282815181106112fc57fe5b60200260200101516001600160a01b03166370a08231336040518263ffffffff1660e01b815260040180826001600160a01b0316815260200191505060206040518083038186803b15801561135057600080fd5b505afa158015611364573d6000803e3d6000fd5b505050506040513d602081101561137a57600080fd5b5051115b15611515576113f98a6001600160a01b031663f85cb5c86040518163ffffffff1660e01b815260040160206040518083038186803b1580156113bf57600080fd5b505afa1580156113d3573d6000803e3d6000fd5b505050506040513d60208110156113e957600080fd5b50518351849084908110610a4357fe5b935083156115155761151082828151811061141057fe5b60200260200101518b6001600160a01b031663f85cb5c86040518163ffffffff1660e01b815260040160206040518083038186803b15801561145157600080fd5b505afa158015611465573d6000803e3d6000fd5b505050506040513d602081101561147b57600080fd5b5051845185908590811061148b57fe5b60200260200101516001600160a01b03166370a08231336040518263ffffffff1660e01b815260040180826001600160a01b0316815260200191505060206040518083038186803b1580156114df57600080fd5b505afa1580156114f3573d6000803e3d6000fd5b505050506040513d602081101561150957600080fd5b5051612470565b830192505b6001016112b3565b50505b80611572576040805162461bcd60e51b815260206004820152601660248201527f4e41562068617320746f20626520626967676572203000000000000000000000604482015290519081900360640190fd5b9450600193505050505b94509492505050565b6000806000803390506000816001600160a01b03166356ba88b86040518163ffffffff1660e01b815260040160206040518083038186803b1580156115c957600080fd5b505afa1580156115dd573d6000803e3d6000fd5b505050506040513d601f19601f82011682018060405250810190611601919061316f565b6000546040516313bc6d4b60e01b81529192506001600160a01b0316906313bc6d4b906116329084906004016131c3565b60206040518083038186803b15801561164a57600080fd5b505afa15801561165e573d6000803e3d6000fd5b505050506040513d601f19601f82011682018060405250810190611682919061318b565b61169e5760405162461bcd60e51b81526004016105fb906131f1565b604051633a82192560e01b81526001600160a01b03821690633a821925906116ca9033906004016131c3565b60206040518083038186803b1580156116e257600080fd5b505afa1580156116f6573d6000803e3d6000fd5b505050506040513d601f19601f8201168201806040525081019061171a919061318b565b6117365760405162461bcd60e51b81526004016105fb90613228565b670de0b6b3a76400008a1115611793576040805162461bcd60e51b815260206004820152601960248201527f556e77696e642050657263656e74616765203c3d203130302500000000000000604482015290519081900360640190fd5b600061179f8a8a6126f1565b90506000876001600160a01b031663e02271078c8c60006040518463ffffffff1660e01b8152600401808060200183151581526020018281038252858582818152602001925080828437600081840152601f19601f82011690508083019250505094505050505060006040518083038186803b15801561181e57600080fd5b505afa158015611832573d6000803e3d6000fd5b505050506040513d6000823e601f3d908101601f19168201604052602081101561185b57600080fd5b810190808051604051939291908464010000000082111561187b57600080fd5b90830190602082018581111561189057600080fd5b82518660208202830111640100000000821117156118ad57600080fd5b82525081516020918201928201910280838360005b838110156118da5781810151838201526020016118c2565b50505050905001604052505050905060006119b08d8a6001600160a01b0316634fc99ed6866040518263ffffffff1660e01b815260040180826001600160a01b0316815260200191505060206040518083038186803b15801561193c57600080fd5b505afa158015611950573d6000803e3d6000fd5b505050506040513d602081101561196657600080fd5b5051604080516370a0823160e01b815233600482015290516001600160a01b03909216916370a0823191602480820192602092909190829003018186803b15801561113f57600080fd5b90506000896001600160a01b031663c9d5066b8e8e856040518463ffffffff1660e01b815260040180806020018381526020018281038252858582818152602001925080828437600081840152601f19601f82011690508083019250505094505050505060006040518083038186803b158015611a2c57600080fd5b505afa158015611a40573d6000803e3d6000fd5b505050506040513d6000823e601f3d908101601f191682016040526020811015611a6957600080fd5b8101908080516040519392919084640100000000821115611a8957600080fd5b908301906020820185811115611a9e57600080fd5b8251866020820283011164010000000082111715611abb57600080fd5b82525081516020918201928201910280838360005b83811015611ae8578181015183820152602001611ad0565b505050509050016040525050509050896001600160a01b03166354f070c1338f8f8688876040518763ffffffff1660e01b815260040180876001600160a01b0316815260200180602001858152602001806020018060200184810384528989828181526020019250808284376000838201819052601f909101601f19169092018681038552885181528851602091820193828b0193509102908190849084905b83811015611ba0578181015183820152602001611b88565b50505050905001848103825285818151815260200191508051906020019060200280838360005b83811015611bdf578181015183820152602001611bc7565b505050509050019950505050505050505050600060405180830381600087803b158015611c0b57600080fd5b505af1158015611c1f573d6000803e3d6000fd5b5073c02aaa39b223fe8d0a0e5c4f27ead9083c756cc2925060009150505b8451811015611f5657816001600160a01b0316858281518110611c5c57fe5b60200260200101516001600160a01b031614611f4e57611c8e858281518110611c8157fe5b6020026020010151612715565b8015611c9c57506103e83331115b15611d415760408051631a5cfcb760e01b81526001600482015233803160248301529151631a5cfcb79160448082019260009290919082900301818387803b158015611ce757600080fd5b505af1158015611cfb573d6000803e3d6000fd5b5050505073c02aaa39b223fe8d0a0e5c4f27ead9083c756cc2858281518110611d2057fe5b60200260200101906001600160a01b031690816001600160a01b0316815250505b816001600160a01b0316858281518110611d5757fe5b60200260200101516001600160a01b031614611f4e576103e8858281518110611d7c57fe5b60200260200101516001600160a01b03166370a08231336040518263ffffffff1660e01b815260040180826001600160a01b0316815260200191505060206040518083038186803b158015611dd057600080fd5b505afa158015611de4573d6000803e3d6000fd5b505050506040513d6020811015611dfa57600080fd5b50511115611f4e57336001600160a01b0316630e32db52868381518110611e1d57fe5b6020026020010151878481518110611e3157fe5b60200260200101516001600160a01b03166370a08231336040518263ffffffff1660e01b815260040180826001600160a01b0316815260200191505060206040518083038186803b158015611e8557600080fd5b505afa158015611e99573d6000803e3d6000fd5b505050506040513d6020811015611eaf57600080fd5b5051604080517fffffffff0000000000000000000000000000000000000000000000000000000060e086901b1681526001600160a01b03938416600482015260248101929092529186166044820152905160648083019260209291908290030181600087803b158015611f2157600080fd5b505af1158015611f35573d6000803e3d6000fd5b505050506040513d6020811015611f4b57600080fd5b50505b600101611c3d565b50670de0b6b3a76400008f1415611f7357611f738b8f8f84612751565b80816001600160a01b03166370a08231336040518263ffffffff1660e01b815260040180826001600160a01b0316815260200191505060206040518083038186803b158015611fc157600080fd5b505afa158015611fd5573d6000803e3d6000fd5b505050506040513d6020811015611feb57600080fd5b5051909a5098506000975050505050505050985098509895505050505050565b60003390506000816001600160a01b03166356ba88b86040518163ffffffff1660e01b815260040160206040518083038186803b15801561204b57600080fd5b505afa15801561205f573d6000803e3d6000fd5b505050506040513d601f19601f82011682018060405250810190612083919061316f565b6000546040516313bc6d4b60e01b81529192506001600160a01b0316906313bc6d4b906120b49084906004016131c3565b60206040518083038186803b1580156120cc57600080fd5b505afa1580156120e0573d6000803e3d6000fd5b505050506040513d601f19601f82011682018060405250810190612104919061318b565b6121205760405162461bcd60e51b81526004016105fb906131f1565b604051633a82192560e01b81526001600160a01b03821690633a8219259061214c9033906004016131c3565b60206040518083038186803b15801561216457600080fd5b505afa158015612178573d6000803e3d6000fd5b505050506040513d601f19601f8201168201806040525081019061219c919061318b565b6121b85760405162461bcd60e51b81526004016105fb90613228565b6040517f26062493000000000000000000000000000000000000000000000000000000008152602060048201908152602482018890526001600160a01b038616916326062493918a918a91908190604401848480828437600083820152604051601f909101601f191690920195506020945090925050508083038186803b15801561224257600080fd5b505afa158015612256573d6000803e3d6000fd5b505050506040513d602081101561226c57600080fd5b50516122bf576040805162461bcd60e51b815260206004820152601060248201527f4e6f7420612076616c696420706f6f6c00000000000000000000000000000000604482015290519081900360640190fd5b50505050505050565b6000546001600160a01b031681565b60008054604080517f2630c12f000000000000000000000000000000000000000000000000000000008152905183926001600160a01b031691632630c12f916004808301926020929190829003018186803b15801561233557600080fd5b505afa158015612349573d6000803e3d6000fd5b505050506040513d601f19601f8201168201806040525081019061236d919061316f565b90506001600160a01b038082169063ac41865a9086161561238e57856123a4565b73c02aaa39b223fe8d0a0e5c4f27ead9083c756cc25b6001600160a01b038616156123b957856123cf565b73c02aaa39b223fe8d0a0e5c4f27ead9083c756cc25b6040518363ffffffff1660e01b81526004016123ec9291906131d7565b60206040518083038186803b15801561240457600080fd5b505afa925050508015612434575060408051601f3d908101601f19168201909252612431918101906131ab565b60015b61244257600091505061244b565b915061244b9050565b92915050565b6000612469670de0b6b3a7640000610afe85856124f8565b9392505050565b600080612485856001600160a01b0316612ace565b9050600061249b856001600160a01b0316612ace565b9050808214156124af578392505050612469565b818111156124cf576124c684838303600a0a6124f8565b92505050612469565b6124de84828403600a0a61251c565b9695505050505050565b8082018281101561244b57600080fd5b60008215806125135750508181028183828161251057fe5b04145b61244b57600080fd5b6000808211612572576040805162461bcd60e51b815260206004820152601a60248201527f536166654d6174683a206469766973696f6e206279207a65726f000000000000604482015290519081900360640190fd5b81838161257b57fe5b049392505050565b60606000825167ffffffffffffffff8111801561259f57600080fd5b506040519080825280602002602001820160405280156125c9578160200160208202803683370190505b50905060005b83518110156126485760008582815181106125e657fe5b602002602001015111156126405761262788888888858151811061260657fe5b602002602001015188868151811061261a57fe5b6020026020010151612c12565b82828151811061263357fe5b6020026020010181815250505b6001016125cf565b5090505b95945050505050565b8082038281111561244b57600080fd5b6000836001600160a01b0316634fc99ed661268085856126f1565b6040518263ffffffff1660e01b815260040180826001600160a01b0316815260200191505060206040518083038186803b1580156126bd57600080fd5b505afa1580156126d1573d6000803e3d6000fd5b505050506040513d60208110156126e757600080fd5b5051949350505050565b60008282602081101561270357600080fd5b50356001600160a01b03169392505050565b600073eeeeeeeeeeeeeeeeeeeeeeeeeeeeeeeeeeeeeeee6001600160a01b038316148061274957506001600160a01b038216155b90505b919050565b60405163361d45ed60e21b8152602060048201908152602482018490526001600160a01b0386169163d87517b49186918691908190604401848480828437600081840152601f19601f820116905080830192505050935050505060006040518083038186803b1580156127c357600080fd5b505afa92505050801561288557506040513d6000823e601f3d908101601f1916820160405260208110156127f657600080fd5b810190808051604051939291908464010000000082111561281657600080fd5b90830190602082018581111561282b57600080fd5b825186602082028301116401000000008211171561284857600080fd5b82525081516020918201928201910280838360005b8381101561287557818101518382015260200161285d565b5050505090500160405250505060015b61288e57612ac8565b60005b8151811015612ac55760006001600160a01b03168282815181106128b157fe5b60200260200101516001600160a01b03161415801561295c57506103e88282815181106128da57fe5b60200260200101516001600160a01b03166370a08231336040518263ffffffff1660e01b815260040180826001600160a01b0316815260200191505060206040518083038186803b15801561292e57600080fd5b505afa158015612942573d6000803e3d6000fd5b505050506040513d602081101561295857600080fd5b5051115b15612abd57336001600160a01b031663bb39a96083838151811061297c57fe5b602002602001015184848151811061299057fe5b60200260200101516001600160a01b03166370a08231336040518263ffffffff1660e01b815260040180826001600160a01b0316815260200191505060206040518083038186803b1580156129e457600080fd5b505afa1580156129f8573d6000803e3d6000fd5b505050506040513d6020811015612a0e57600080fd5b5051604080517fffffffff0000000000000000000000000000000000000000000000000000000060e086901b1681526001600160a01b0393841660048201526024810192909252918716604482015266f8b0a10e4700006064820152905160848083019260209291908290030181600087803b158015612a8d57600080fd5b505af1925050508015612ab257506040513d6020811015612aad57600080fd5b505160015b612abb57612abd565b505b600101612891565b50505b50505050565b6000612ad98261314e565b15612ae65750601261274c565b60408051600481526024810182526020810180517bffffffffffffffffffffffffffffffffffffffffffffffffffffffff167f313ce567000000000000000000000000000000000000000000000000000000001781529151815160009384936001600160a01b0388169361138893919290918291908083835b60208310612b7e5780518252601f199092019160209182019101612b5f565b6001836020036101000a0380198251168184511680821785525050505050509050019150506000604051808303818686fa925050503d8060008114612bdf576040519150601f19603f3d011682016040523d82523d6000602084013e612be4565b606091505b509150915081612bf5576012612c0a565b8080602001905160208110156126e757600080fd5b949350505050565b600080612c1f8685612451565b90506000612c5588612c3086612715565b612c3a5785612c50565b73c02aaa39b223fe8d0a0e5c4f27ead9083c756cc25b6122d7565b90506000612c688986610a728686612451565b9050886001600160a01b0316856001600160a01b031614158015612c925750612c9085612715565b155b15612e1757604080516307196da960e11b81526001600160a01b038b81166004830152602482018690528716604482015290513391630e32db529160648083019260209291908290030181600087803b158015612cee57600080fd5b505af1158015612d02573d6000803e3d6000fd5b505050506040513d6020811015612d1857600080fd5b5050604080516370a0823160e01b815233600482015290516001600160a01b038716916370a08231916024808301926020929190829003018186803b158015612d6057600080fd5b505afa158015612d74573d6000803e3d6000fd5b505050506040513d6020811015612d8a57600080fd5b5051811115612e0a57604080516370a0823160e01b815233600482015290516001600160a01b038716916370a08231916024808301926020929190829003018186803b158015612dd957600080fd5b505afa158015612ded573d6000803e3d6000fd5b505050506040513d6020811015612e0357600080fd5b5051612e0c565b805b935061264c92505050565b612e2085612715565b1561304d576001600160a01b03891673c02aaa39b223fe8d0a0e5c4f27ead9083c756cc214612edf57604080516307196da960e11b81526001600160a01b038b1660048201526024810185905273c02aaa39b223fe8d0a0e5c4f27ead9083c756cc2604482015290513391630e32db529160648083019260209291908290030181600087803b158015612eb257600080fd5b505af1158015612ec6573d6000803e3d6000fd5b505050506040513d6020811015612edc57600080fd5b50505b604080516370a0823160e01b8152336004820152905173c02aaa39b223fe8d0a0e5c4f27ead9083c756cc2916370a08231916024808301926020929190829003018186803b158015612f3057600080fd5b505afa158015612f44573d6000803e3d6000fd5b505050506040513d6020811015612f5a57600080fd5b5051811115612fe557604080516370a0823160e01b8152336004820152905173c02aaa39b223fe8d0a0e5c4f27ead9083c756cc2916370a08231916024808301926020929190829003018186803b158015612fb457600080fd5b505afa158015612fc8573d6000803e3d6000fd5b505050506040513d6020811015612fde57600080fd5b5051612fe7565b805b60408051631a5cfcb760e01b81526000600482018190526024820184905291519293503392631a5cfcb79260448084019391929182900301818387803b15801561303057600080fd5b505af1158015613044573d6000803e3d6000fd5b50505050613142565b604080516370a0823160e01b815233600482015290516001600160a01b038716916370a08231916024808301926020929190829003018186803b15801561309357600080fd5b505afa1580156130a7573d6000803e3d6000fd5b505050506040513d60208110156130bd57600080fd5b505181111561313d57604080516370a0823160e01b815233600482015290516001600160a01b038716916370a08231916024808301926020929190829003018186803b15801561310c57600080fd5b505afa158015613120573d6000803e3d6000fd5b505050506040513d602081101561313657600080fd5b505161313f565b805b90505b98975050505050505050565b60006001600160a01b03821615806127495750506001600160a01b03161590565b600060208284031215613180578081fd5b81516124698161325f565b60006020828403121561319c578081fd5b81518015158114612469578182fd5b6000602082840312156131bc578081fd5b5051919050565b6001600160a01b0391909116815260200190565b6001600160a01b0392831681529116602082015260400190565b6020808252601b908201527f4f6e6c7920612067617264656e2063616e2063616c6c20746869730000000000604082015260600190565b60208082526019908201527f53656e646572206d757374206265206120737472617465677900000000000000604082015260600190565b6001600160a01b038116811461327457600080fd5b5056fea2646970667358221220374a92082967ac33e34aa97dbd409db04a7921bedffb4acdf673aed5d0435f1164736f6c63430007060033",
  "devdoc": {
    "author": "Babylon Finance Executes an add liquidity operation",
    "kind": "dev",
    "methods": {
      "constructor": {
        "params": {
          "_controller": "Address of the controller",
          "_name": "Name of the integration"
        }
      },
      "executeOperation(address,uint256,uint8,bytes,address,address)": {
        "params": {
          "_asset": "Asset to receive into this operation",
          "_capital": "Amount of asset received param _assetStatus        Status of the asset amount",
          "_data": "OpData e.g. Address of the pool to enter",
          "_garden": "Garden of the strategy",
          "_integration": "Address of the integration to execute"
        }
      },
      "exitOperation(address,uint256,uint8,uint256,bytes,address,address)": {
        "params": {
          "_percentage": "of capital to exit from the strategy"
        }
      },
      "getNAV(bytes,address,address)": {
        "params": {
          "_data": "OpData e.g. PoolId or asset address",
          "_garden": "Garden the strategy belongs to",
          "_integration": "Status of the asset amount"
        },
        "returns": {
          "_0": "_nav               NAV of the strategy"
        }
      },
      "validateOperation(bytes,address,address,uint256)": {
        "params": {
          "_data": "Operation data"
        }
      }
    },
    "title": "AddLiquidityOperation",
    "version": 1
  },
  "userdoc": {
    "kind": "user",
    "methods": {
      "constructor": {
        "notice": "Creates the integration"
      },
      "executeOperation(address,uint256,uint8,bytes,address,address)": {
        "notice": "Executes the add liquidity operation"
      },
      "exitOperation(address,uint256,uint8,uint256,bytes,address,address)": {
        "notice": "Exits the add liquidity operation."
      },
      "getNAV(bytes,address,address)": {
        "notice": "Gets the NAV of the add liquidity op in the reserve asset"
      },
      "getName()": {
        "notice": "Returns the name of the operation"
      },
      "validateOperation(bytes,address,address,uint256)": {
        "notice": "Sets operation data for the add liquidity operation"
      }
    },
    "version": 1
  },
  "storageLayout": {
    "storage": [
      {
        "astId": 62366,
        "contract": "contracts/strategies/operations/AddLiquidityOperation.sol:AddLiquidityOperation",
        "label": "controller",
        "offset": 0,
        "slot": "0",
        "type": "t_address"
      },
      {
        "astId": 62368,
        "contract": "contracts/strategies/operations/AddLiquidityOperation.sol:AddLiquidityOperation",
        "label": "name",
        "offset": 0,
        "slot": "1",
        "type": "t_string_storage"
      }
    ],
    "types": {
      "t_address": {
        "encoding": "inplace",
        "label": "address",
        "numberOfBytes": "20"
      },
      "t_string_storage": {
        "encoding": "bytes",
        "label": "string",
        "numberOfBytes": "32"
      }
    }
  }
}