{
  "address": "0xe26B0933E0bA0fddB09Ee9092a47dfAf4e1ad7AB",
  "abi": [
    {
      "inputs": [
        {
          "internalType": "string",
          "name": "_name",
          "type": "string"
        },
        {
          "internalType": "address",
          "name": "_controller",
          "type": "address"
        }
      ],
      "stateMutability": "nonpayable",
      "type": "constructor"
    },
    {
      "inputs": [],
      "name": "controller",
      "outputs": [
        {
          "internalType": "address",
          "name": "",
          "type": "address"
        }
      ],
      "stateMutability": "view",
      "type": "function"
    },
    {
      "inputs": [
        {
          "internalType": "address",
          "name": "_asset",
          "type": "address"
        },
        {
          "internalType": "uint256",
          "name": "_capital",
          "type": "uint256"
        },
        {
          "internalType": "uint8",
          "name": "",
          "type": "uint8"
        },
        {
          "internalType": "bytes",
          "name": "_data",
          "type": "bytes"
        },
        {
          "internalType": "contract IGarden",
          "name": "_garden",
          "type": "address"
        },
        {
          "internalType": "address",
          "name": "_integration",
          "type": "address"
        }
      ],
      "name": "executeOperation",
      "outputs": [
        {
          "internalType": "address",
          "name": "",
          "type": "address"
        },
        {
          "internalType": "uint256",
          "name": "",
          "type": "uint256"
        },
        {
          "internalType": "uint8",
          "name": "",
          "type": "uint8"
        }
      ],
      "stateMutability": "nonpayable",
      "type": "function"
    },
    {
      "inputs": [
        {
          "internalType": "address",
          "name": "",
          "type": "address"
        },
        {
          "internalType": "uint256",
          "name": "",
          "type": "uint256"
        },
        {
          "internalType": "uint8",
          "name": "",
          "type": "uint8"
        },
        {
          "internalType": "uint256",
          "name": "_percentage",
          "type": "uint256"
        },
        {
          "internalType": "bytes",
          "name": "_data",
          "type": "bytes"
        },
        {
          "internalType": "contract IGarden",
          "name": "_garden",
          "type": "address"
        },
        {
          "internalType": "address",
          "name": "_integration",
          "type": "address"
        }
      ],
      "name": "exitOperation",
      "outputs": [
        {
          "internalType": "address",
          "name": "",
          "type": "address"
        },
        {
          "internalType": "uint256",
          "name": "",
          "type": "uint256"
        },
        {
          "internalType": "uint8",
          "name": "",
          "type": "uint8"
        }
      ],
      "stateMutability": "nonpayable",
      "type": "function"
    },
    {
      "inputs": [
        {
          "internalType": "bytes",
          "name": "_data",
          "type": "bytes"
        },
        {
          "internalType": "contract IGarden",
          "name": "_garden",
          "type": "address"
        },
        {
          "internalType": "address",
          "name": "_integration",
          "type": "address"
        }
      ],
      "name": "getNAV",
      "outputs": [
        {
          "internalType": "uint256",
          "name": "",
          "type": "uint256"
        },
        {
          "internalType": "bool",
          "name": "",
          "type": "bool"
        }
      ],
      "stateMutability": "view",
      "type": "function"
    },
    {
      "inputs": [],
      "name": "getName",
      "outputs": [
        {
          "internalType": "string",
          "name": "",
          "type": "string"
        }
      ],
      "stateMutability": "view",
      "type": "function"
    },
    {
      "inputs": [],
      "name": "name",
      "outputs": [
        {
          "internalType": "string",
          "name": "",
          "type": "string"
        }
      ],
      "stateMutability": "view",
      "type": "function"
    },
    {
      "inputs": [
        {
          "internalType": "bytes",
          "name": "_data",
          "type": "bytes"
        },
        {
          "internalType": "contract IGarden",
          "name": "",
          "type": "address"
        },
        {
          "internalType": "address",
          "name": "_integration",
          "type": "address"
        },
        {
          "internalType": "uint256",
          "name": "",
          "type": "uint256"
        }
      ],
      "name": "validateOperation",
      "outputs": [],
      "stateMutability": "view",
      "type": "function"
    }
  ],
  "transactionHash": "0x7861b34209bc6c1d474b6ade0b83864d13fcd7ead2a1f32ed031c8dc77c2417c",
  "args": [
    "lp",
    "0xD4a5b5fcB561dAF3aDF86F8477555B92FBa43b5F"
  ],
  "numDeployments": 3,
  "solcInputHash": "d473d609720c87a45aae96e5ba466dc4",
  "bytecode": "0x60806040523480156200001157600080fd5b5060405162003edf38038062003edf833981810160405260408110156200003757600080fd5b81019080805160405193929190846401000000008211156200005857600080fd5b9083019060208201858111156200006e57600080fd5b82516401000000008111828201881017156200008957600080fd5b82525081516020918201929091019080838360005b83811015620000b85781810151838201526020016200009e565b50505050905090810190601f168015620000e65780820380516001836020036101000a031916815260200191505b50604052602001519150829050816001600160a01b038116620001265760405162461bcd60e51b81526004016200011d9062000212565b60405180910390fd5b81516200013b90600190602085019062000166565b50600080546001600160a01b0319166001600160a01b03929092169190911790555062000249915050565b828054600181600116156101000203166002900490600052602060002090601f0160209004810192826200019e5760008555620001e9565b82601f10620001b957805160ff1916838001178555620001e9565b82800160010185558215620001e9579182015b82811115620001e9578251825591602001919060010190620001cc565b50620001f7929150620001fb565b5090565b5b80821115620001f75760008155600101620001fc565b6020808252601a908201527f436f6e74726f6c6c6572206d75737420626520646566696e6564000000000000604082015260600190565b613c8680620002596000396000f3fe608060405234801561001057600080fd5b506004361061007d5760003560e01c8063a24258ad1161005b578063a24258ad146101d2578063bdd7a79c1461026c578063cdea203414610311578063f77c47911461039c5761007d565b806306fdde031461008257806317d7de7c146100ff57806387033f6114610107575b600080fd5b61008a6103c0565b6040805160208082528351818301528351919283929083019185019080838360005b838110156100c45781810151838201526020016100ac565b50505050905090810190601f1680156100f15780820380516001836020036101000a031916815260200191505b509250505060405180910390f35b61008a61044d565b6101a7600480360360c081101561011d57600080fd5b6001600160a01b038235169160208101359160ff604083013516919081019060808101606082013564010000000081111561015757600080fd5b82018360208201111561016957600080fd5b8035906020019184600183028401116401000000008311171561018b57600080fd5b91935091506001600160a01b03813581169160200135166104e2565b604080516001600160a01b039094168452602084019290925260ff1682820152519081900360600190f35b610253600480360360608110156101e857600080fd5b81019060208101813564010000000081111561020357600080fd5b82018360208201111561021557600080fd5b8035906020019184600183028401116401000000008311171561023757600080fd5b91935091506001600160a01b0381358116916020013516610e0a565b6040805192835290151560208301528051918290030190f35b6101a7600480360360e081101561028257600080fd5b6001600160a01b038235169160208101359160ff6040830135169160608101359181019060a0810160808201356401000000008111156102c157600080fd5b8201836020820111156102d357600080fd5b803590602001918460018302840111640100000000831117156102f557600080fd5b91935091506001600160a01b038135811691602001351661190b565b61039a6004803603608081101561032757600080fd5b81019060208101813564010000000081111561034257600080fd5b82018360208201111561035457600080fd5b8035906020019184600183028401116401000000008311171561037657600080fd5b91935091506001600160a01b038135811691602081013590911690604001356123c3565b005b6103a4612680565b604080516001600160a01b039092168252519081900360200190f35b60018054604080516020600284861615610100026000190190941693909304601f810184900484028201840190925281815292918301828280156104455780601f1061041a57610100808354040283529160200191610445565b820191906000526020600020905b81548152906001019060200180831161042857829003601f168201915b505050505081565b60018054604080516020601f600260001961010087891615020190951694909404938401819004810282018101909252828152606093909290918301828280156104d85780601f106104ad576101008083540402835291602001916104d8565b820191906000526020600020905b8154815290600101906020018083116104bb57829003601f168201915b5050505050905090565b6000806000803390506000816001600160a01b03166356ba88b86040518163ffffffff1660e01b815260040160206040518083038186803b15801561052657600080fd5b505afa15801561053a573d6000803e3d6000fd5b505050506040513d601f19601f8201168201806040525081019061055e9190613a3d565b6000546040516313bc6d4b60e01b81529192506001600160a01b0316906313bc6d4b9061058f908490600401613b93565b60206040518083038186803b1580156105a757600080fd5b505afa1580156105bb573d6000803e3d6000fd5b505050506040513d601f19601f820116820180604052508101906105df9190613a59565b6106045760405162461bcd60e51b81526004016105fb90613bc1565b60405180910390fd5b604051633a82192560e01b81526001600160a01b03821690633a82192590610630903390600401613b93565b60206040518083038186803b15801561064857600080fd5b505afa15801561065c573d6000803e3d6000fd5b505050506040513d601f19601f820116820180604052508101906106809190613a59565b61069c5760405162461bcd60e51b81526004016105fb90613bf8565b604080517fe022710700000000000000000000000000000000000000000000000000000000815260006024820181905260048201928352604482018b9052916001600160a01b0389169163e0227107918d918d9186918190606401858580828437600081840152601f19601f82011690508083019250505094505050505060006040518083038186803b15801561073257600080fd5b505afa158015610746573d6000803e3d6000fd5b505050506040513d6000823e601f3d908101601f19168201604052602081101561076f57600080fd5b810190808051604051939291908464010000000082111561078f57600080fd5b9083019060208201858111156107a457600080fd5b82518660208202830111640100000000821117156107c157600080fd5b82525081516020918201928201910280838360005b838110156107ee5781810151838201526020016107d6565b5050505090500160405250505090506000876001600160a01b03166307ec3d928c8c6040518363ffffffff1660e01b815260040180806020018281038252848482818152602001925080828437600081840152601f19601f820116905080830192505050935050505060006040518083038186803b15801561086f57600080fd5b505afa158015610883573d6000803e3d6000fd5b505050506040513d6000823e601f3d908101601f1916820160405260208110156108ac57600080fd5b81019080805160405193929190846401000000008211156108cc57600080fd5b9083019060208201858111156108e157600080fd5b82518660208202830111640100000000821117156108fe57600080fd5b82525081516020918201928201910280838360005b8381101561092b578181015183820152602001610913565b505050509050016040525050509050876001600160a01b031663640921598c8c6040518363ffffffff1660e01b815260040180806020018281038252848482818152602001925080828437600083820152604051601f909101601f191690920195506020945090925050508083038186803b1580156109a957600080fd5b505afa9250505080156109ce57506040513d60208110156109c957600080fd5b505160015b6109d757610b28565b8015610b26576000805b8451811015610abf57610a778582815181106109f957fe5b602002602001015186600188510381518110610a1157fe5b6020026020010151610a72610a50898681518110610a2b57fe5b60200260200101518a60018c510381518110610a4357fe5b602002602001015161268f565b888681518110610a5c57fe5b602002602001015161280990919063ffffffff16565b612828565b848281518110610a8357fe5b602002602001018181525050610ab5848281518110610a9e57fe5b6020026020010151836129e990919063ffffffff16565b91506001016109e1565b5060005b8451811015610b2357610b0482610afe670de0b6b3a7640000878581518110610ae857fe5b60200260200101516129f990919063ffffffff16565b90612a1d565b848281518110610b1057fe5b6020908102919091010152600101610ac3565b50505b505b6000610b378f8f8c8587612a84565b90506000896001600160a01b0316631b7e75b78e8e87600081518110610b5957fe5b602002602001015186600081518110610b6e57fe5b60200260200101516040518563ffffffff1660e01b81526004018080602001846001600160a01b031681526020018381526020018281038252868682818152602001925080828437600081840152601f19601f8201169050808301925050509550505050505060206040518083038186803b158015610bec57600080fd5b505afa158015610c00573d6000803e3d6000fd5b505050506040513d6020811015610c1657600080fd5b505190506001600160a01b038a16637a6731ab338f8f610c47610c4087662386f26fc10000612809565b8790612b56565b89886040518763ffffffff1660e01b815260040180876001600160a01b0316815260200180602001858152602001806020018060200184810384528989828181526020019250808284376000838201819052601f909101601f19169092018681038552885181528851602091820193828b0193509102908190849084905b83811015610cdd578181015183820152602001610cc5565b50505050905001848103825285818151815260200191508051906020019060200280838360005b83811015610d1c578181015183820152602001610d04565b505050509050019950505050505050505050600060405180830381600087803b158015610d4857600080fd5b505af1158015610d5c573d6000803e3d6000fd5b50505050610d6b8a8e8e612b66565b610d768b8f8f612b66565b6001600160a01b03166370a08231336040518263ffffffff1660e01b815260040180826001600160a01b0316815260200191505060206040518083038186803b158015610dc257600080fd5b505afa158015610dd6573d6000803e3d6000fd5b505050506040513d6020811015610dec57600080fd5b50519099509750600096505050505050509750975097945050505050565b600080336001600160a01b031663e4df5e1a6040518163ffffffff1660e01b815260040160206040518083038186803b158015610e4657600080fd5b505afa158015610e5a573d6000803e3d6000fd5b505050506040513d6020811015610e7057600080fd5b5051610e825750600090506001611902565b6000610e8e8787612bf2565b9050836001600160a01b031663bbe4f6db826040518263ffffffff1660e01b815260040180826001600160a01b0316815260200191505060206040518083038186803b158015610edd57600080fd5b505afa158015610ef1573d6000803e3d6000fd5b505050506040513d6020811015610f0757600080fd5b5051604080517f4fc99ed60000000000000000000000000000000000000000000000000000000081526001600160a01b038084166004830152915192935060009291871691634fc99ed691602480820192602092909190829003018186803b158015610f7257600080fd5b505afa158015610f86573d6000803e3d6000fd5b505050506040513d6020811015610f9c57600080fd5b50516040517f662952e0000000000000000000000000000000000000000000000000000000008152602060048201908152602482018a90529192506000916001600160a01b0388169163662952e0918c918c91908190604401848480828437600083820152604051601f909101601f191690920195506020945090925050508083038186803b15801561102e57600080fd5b505afa92505050801561105357506040513d602081101561104e57600080fd5b505160015b61105c5761105f565b90505b8015611166576111586110e06110d9858a6001600160a01b031663f85cb5c86040518163ffffffff1660e01b815260040160206040518083038186803b1580156110a857600080fd5b505afa1580156110bc573d6000803e3d6000fd5b505050506040513d60208110156110d257600080fd5b5051612c16565b8390612809565b604080516370a0823160e01b815233600482015290516001600160a01b038616916370a08231916024808301926020929190829003018186803b15801561112657600080fd5b505afa15801561113a573d6000803e3d6000fd5b505050506040513d602081101561115057600080fd5b505190612809565b600194509450505050611902565b6111d482886001600160a01b031663f85cb5c86040518163ffffffff1660e01b815260040160206040518083038186803b1580156111a357600080fd5b505afa1580156111b7573d6000803e3d6000fd5b505050506040513d60208110156111cd57600080fd5b505161268f565b905080156112915761115882886001600160a01b031663f85cb5c86040518163ffffffff1660e01b815260040160206040518083038186803b15801561121957600080fd5b505afa15801561122d573d6000803e3d6000fd5b505050506040513d602081101561124357600080fd5b5051604080516370a0823160e01b81523360048201529051610a729186916001600160a01b038916916370a08231916024808301926020929190829003018186803b15801561112657600080fd5b600080876001600160a01b031663e02271078c8c60016040518463ffffffff1660e01b8152600401808060200183151581526020018281038252858582818152602001925080828437600081840152601f19601f82011690508083019250505094505050505060006040518083038186803b15801561130f57600080fd5b505afa158015611323573d6000803e3d6000fd5b505050506040513d6000823e601f3d908101601f19168201604052602081101561134c57600080fd5b810190808051604051939291908464010000000082111561136c57600080fd5b90830190602082018581111561138157600080fd5b825186602082028301116401000000008211171561139e57600080fd5b82525081516020918201928201910280838360005b838110156113cb5781810151838201526020016113b3565b50505050905001604052505050905060005b81518110156118a45760006114048383815181106113f757fe5b60200260200101516130c8565b6114215782828151811061141457fe5b6020026020010151611437565b73c02aaa39b223fe8d0a0e5c4f27ead9083c756cc25b90506114a78b6001600160a01b031663f85cb5c86040518163ffffffff1660e01b815260040160206040518083038186803b15801561147557600080fd5b505afa158015611489573d6000803e3d6000fd5b505050506040513d602081101561149f57600080fd5b50518261268f565b9450846115e45760008a6001600160a01b031663bc82b61d8f8f866040518463ffffffff1660e01b815260040180806020018381526020018281038252858582818152602001925080828437600081840152601f19601f820116905080830192505050945050505050604080518083038186803b15801561152757600080fd5b505afa15801561153b573d6000803e3d6000fd5b505050506040513d604081101561155157600080fd5b508051602090910151909250905080156115e2576115d38c6001600160a01b031663f85cb5c86040518163ffffffff1660e01b815260040160206040518083038186803b1580156115a157600080fd5b505afa1580156115b5573d6000803e3d6000fd5b505050506040513d60208110156115cb57600080fd5b50518361268f565b95506115df8682613104565b95505b505b60006115f58484815181106113f757fe5b1561160a57876001600160a01b031631611697565b83838151811061161657fe5b60200260200101516001600160a01b03166370a08231896040518263ffffffff1660e01b815260040180826001600160a01b0316815260200191505060206040518083038186803b15801561166a57600080fd5b505afa15801561167e573d6000803e3d6000fd5b505050506040513d602081101561169457600080fd5b50515b905073c02aaa39b223fe8d0a0e5c4f27ead9083c756cc26001600160a01b03168484815181106116c357fe5b60200260200101516001600160a01b03161480156116df575080155b156116f157506001600160a01b038716315b85158015906116ff57508015155b1561189a57611895828d6001600160a01b031663f85cb5c86040518163ffffffff1660e01b815260040160206040518083038186803b15801561174157600080fd5b505afa158015611755573d6000803e3d6000fd5b505050506040513d602081101561176b57600080fd5b5051604080517f18160ddd0000000000000000000000000000000000000000000000000000000081529051610a72918b9161188f916001600160a01b038f16916318160ddd91600480820192602092909190829003018186803b1580156117d157600080fd5b505afa1580156117e5573d6000803e3d6000fd5b505050506040513d60208110156117fb57600080fd5b8101908080519060200190929190505050610afe8e6001600160a01b03166370a08231336040518263ffffffff1660e01b815260040180826001600160a01b0316815260200191505060206040518083038186803b15801561185c57600080fd5b505afa158015611870573d6000803e3d6000fd5b505050506040513d602081101561188657600080fd5b505189906129f9565b90613104565b850194505b50506001016113dd565b50816118f7576040805162461bcd60e51b815260206004820152601660248201527f4e41562068617320746f20626520626967676572203000000000000000000000604482015290519081900360640190fd5b509450600193505050505b94509492505050565b6000806000803390506000816001600160a01b03166356ba88b86040518163ffffffff1660e01b815260040160206040518083038186803b15801561194f57600080fd5b505afa158015611963573d6000803e3d6000fd5b505050506040513d601f19601f820116820180604052508101906119879190613a3d565b6000546040516313bc6d4b60e01b81529192506001600160a01b0316906313bc6d4b906119b8908490600401613b93565b60206040518083038186803b1580156119d057600080fd5b505afa1580156119e4573d6000803e3d6000fd5b505050506040513d601f19601f82011682018060405250810190611a089190613a59565b611a245760405162461bcd60e51b81526004016105fb90613bc1565b604051633a82192560e01b81526001600160a01b03821690633a82192590611a50903390600401613b93565b60206040518083038186803b158015611a6857600080fd5b505afa158015611a7c573d6000803e3d6000fd5b505050506040513d601f19601f82011682018060405250810190611aa09190613a59565b611abc5760405162461bcd60e51b81526004016105fb90613bf8565b670de0b6b3a76400008a1115611b19576040805162461bcd60e51b815260206004820152601960248201527f556e77696e642050657263656e74616765203c3d203130302500000000000000604482015290519081900360640190fd5b6000611b258a8a612bf2565b90506000876001600160a01b031663e02271078c8c60006040518463ffffffff1660e01b8152600401808060200183151581526020018281038252858582818152602001925080828437600081840152601f19601f82011690508083019250505094505050505060006040518083038186803b158015611ba457600080fd5b505afa158015611bb8573d6000803e3d6000fd5b505050506040513d6000823e601f3d908101601f191682016040526020811015611be157600080fd5b8101908080516040519392919084640100000000821115611c0157600080fd5b908301906020820185811115611c1657600080fd5b8251866020820283011164010000000082111715611c3357600080fd5b82525081516020918201928201910280838360005b83811015611c60578181015183820152602001611c48565b5050505090500160405250505090506000611d368d8a6001600160a01b0316634fc99ed6866040518263ffffffff1660e01b815260040180826001600160a01b0316815260200191505060206040518083038186803b158015611cc257600080fd5b505afa158015611cd6573d6000803e3d6000fd5b505050506040513d6020811015611cec57600080fd5b5051604080516370a0823160e01b815233600482015290516001600160a01b03909216916370a0823191602480820192602092909190829003018186803b15801561112657600080fd5b90506000896001600160a01b031663c9d5066b8e8e856040518463ffffffff1660e01b815260040180806020018381526020018281038252858582818152602001925080828437600081840152601f19601f82011690508083019250505094505050505060006040518083038186803b158015611db257600080fd5b505afa158015611dc6573d6000803e3d6000fd5b505050506040513d6000823e601f3d908101601f191682016040526020811015611def57600080fd5b8101908080516040519392919084640100000000821115611e0f57600080fd5b908301906020820185811115611e2457600080fd5b8251866020820283011164010000000082111715611e4157600080fd5b82525081516020918201928201910280838360005b83811015611e6e578181015183820152602001611e56565b505050509050016040525050509050896001600160a01b03166354f070c1338f8f8688876040518763ffffffff1660e01b815260040180876001600160a01b0316815260200180602001858152602001806020018060200184810384528989828181526020019250808284376000838201819052601f909101601f19169092018681038552885181528851602091820193828b0193509102908190849084905b83811015611f26578181015183820152602001611f0e565b50505050905001848103825285818151815260200191508051906020019060200280838360005b83811015611f65578181015183820152602001611f4d565b505050509050019950505050505050505050600060405180830381600087803b158015611f9157600080fd5b505af1158015611fa5573d6000803e3d6000fd5b5050505060008b6001600160a01b031663f85cb5c86040518163ffffffff1660e01b815260040160206040518083038186803b158015611fe457600080fd5b505afa158015611ff8573d6000803e3d6000fd5b505050506040513d602081101561200e57600080fd5b5051905060005b845181101561231e57816001600160a01b031685828151811061203457fe5b60200260200101516001600160a01b031614612316576120598582815181106113f757fe5b80156120655750333115155b1561210a5760408051631a5cfcb760e01b81526001600482015233803160248301529151631a5cfcb79160448082019260009290919082900301818387803b1580156120b057600080fd5b505af11580156120c4573d6000803e3d6000fd5b5050505073c02aaa39b223fe8d0a0e5c4f27ead9083c756cc28582815181106120e957fe5b60200260200101906001600160a01b031690816001600160a01b0316815250505b816001600160a01b031685828151811061212057fe5b60200260200101516001600160a01b03161461231657600085828151811061214457fe5b60200260200101516001600160a01b03166370a08231336040518263ffffffff1660e01b815260040180826001600160a01b0316815260200191505060206040518083038186803b15801561219857600080fd5b505afa1580156121ac573d6000803e3d6000fd5b505050506040513d60208110156121c257600080fd5b5051111561231657336001600160a01b0316630e32db528683815181106121e557fe5b60200260200101518784815181106121f957fe5b60200260200101516001600160a01b03166370a08231336040518263ffffffff1660e01b815260040180826001600160a01b0316815260200191505060206040518083038186803b15801561224d57600080fd5b505afa158015612261573d6000803e3d6000fd5b505050506040513d602081101561227757600080fd5b5051604080517fffffffff0000000000000000000000000000000000000000000000000000000060e086901b1681526001600160a01b03938416600482015260248101929092529186166044820152905160648083019260209291908290030181600087803b1580156122e957600080fd5b505af11580156122fd573d6000803e3d6000fd5b505050506040513d602081101561231357600080fd5b50505b600101612015565b5061232b8b8f8f8461311c565b80816001600160a01b03166370a08231336040518263ffffffff1660e01b815260040180826001600160a01b0316815260200191505060206040518083038186803b15801561237957600080fd5b505afa15801561238d573d6000803e3d6000fd5b505050506040513d60208110156123a357600080fd5b5051909a5098506000975050505050505050985098509895505050505050565b60003390506000816001600160a01b03166356ba88b86040518163ffffffff1660e01b815260040160206040518083038186803b15801561240357600080fd5b505afa158015612417573d6000803e3d6000fd5b505050506040513d601f19601f8201168201806040525081019061243b9190613a3d565b6000546040516313bc6d4b60e01b81529192506001600160a01b0316906313bc6d4b9061246c908490600401613b93565b60206040518083038186803b15801561248457600080fd5b505afa158015612498573d6000803e3d6000fd5b505050506040513d601f19601f820116820180604052508101906124bc9190613a59565b6124d85760405162461bcd60e51b81526004016105fb90613bc1565b604051633a82192560e01b81526001600160a01b03821690633a82192590612504903390600401613b93565b60206040518083038186803b15801561251c57600080fd5b505afa158015612530573d6000803e3d6000fd5b505050506040513d601f19601f820116820180604052508101906125549190613a59565b6125705760405162461bcd60e51b81526004016105fb90613bf8565b6040517f26062493000000000000000000000000000000000000000000000000000000008152602060048201908152602482018890526001600160a01b038616916326062493918a918a91908190604401848480828437600083820152604051601f909101601f191690920195506020945090925050508083038186803b1580156125fa57600080fd5b505afa15801561260e573d6000803e3d6000fd5b505050506040513d602081101561262457600080fd5b5051612677576040805162461bcd60e51b815260206004820152601060248201527f4e6f7420612076616c696420706f6f6c00000000000000000000000000000000604482015290519081900360640190fd5b50505050505050565b6000546001600160a01b031681565b60008054604080517f2630c12f000000000000000000000000000000000000000000000000000000008152905183926001600160a01b031691632630c12f916004808301926020929190829003018186803b1580156126ed57600080fd5b505afa158015612701573d6000803e3d6000fd5b505050506040513d601f19601f820116820180604052508101906127259190613a3d565b90506001600160a01b038082169063ac41865a90861615612746578561275c565b73c02aaa39b223fe8d0a0e5c4f27ead9083c756cc25b6001600160a01b038616156127715785612787565b73c02aaa39b223fe8d0a0e5c4f27ead9083c756cc25b6040518363ffffffff1660e01b81526004016127a4929190613ba7565b60206040518083038186803b1580156127bc57600080fd5b505afa9250505080156127ec575060408051601f3d908101601f191682019092526127e991810190613a79565b60015b6127fa576000915050612803565b91506128039050565b92915050565b6000612821670de0b6b3a7640000610afe85856129f9565b9392505050565b600080612834856130c8565b6128a257846001600160a01b031663313ce5676040518163ffffffff1660e01b815260040160206040518083038186803b15801561287157600080fd5b505afa158015612885573d6000803e3d6000fd5b505050506040513d602081101561289b57600080fd5b50516128a5565b60125b60ff16905060006128b5856130c8565b61292357846001600160a01b031663313ce5676040518163ffffffff1660e01b815260040160206040518083038186803b1580156128f257600080fd5b505afa158015612906573d6000803e3d6000fd5b505050506040513d602081101561291c57600080fd5b5051612926565b60125b60ff1690506012821115801561293d575060128111155b61298e576040805162461bcd60e51b815260206004820152601460248201527f556e737570706f7274656420646563696d616c73000000000000000000000000604482015290519081900360640190fd5b808214156129a0578392505050612821565b818111156129c8576129bf6129b58284612b56565b8590600a0a6129f9565b92505050612821565b6129df6129d58383612b56565b8590600a0a612a1d565b9695505050505050565b8082018281101561280357600080fd5b6000821580612a1457505081810281838281612a1157fe5b04145b61280357600080fd5b6000808211612a73576040805162461bcd60e51b815260206004820152601a60248201527f536166654d6174683a206469766973696f6e206279207a65726f000000000000604482015290519081900360640190fd5b818381612a7c57fe5b049392505050565b60606000825167ffffffffffffffff81118015612aa057600080fd5b50604051908082528060200260200182016040528015612aca578160200160208202803683370190505b50905060005b8351811015612b49576000858281518110612ae757fe5b60200260200101511115612b4157612b28888888888581518110612b0757fe5b6020026020010151888681518110612b1b57fe5b60200260200101516134b1565b828281518110612b3457fe5b6020026020010181815250505b600101612ad0565b5090505b95945050505050565b8082038281111561280357600080fd5b6000836001600160a01b0316634fc99ed6612b818585612bf2565b6040518263ffffffff1660e01b815260040180826001600160a01b0316815260200191505060206040518083038186803b158015612bbe57600080fd5b505afa158015612bd2573d6000803e3d6000fd5b505050506040513d6020811015612be857600080fd5b5051949350505050565b600082826020811015612c0457600080fd5b50356001600160a01b03169392505050565b600080612c93846001600160a01b0316630dfe16816040518163ffffffff1660e01b815260040160206040518083038186803b158015612c5557600080fd5b505afa158015612c69573d6000803e3d6000fd5b505050506040513d601f19601f82011682018060405250810190612c8d9190613a3d565b8461268f565b90506000612d11856001600160a01b031663d21220a76040518163ffffffff1660e01b815260040160206040518083038186803b158015612cd357600080fd5b505afa158015612ce7573d6000803e3d6000fd5b505050506040513d601f19601f82011682018060405250810190612d0b9190613a3d565b8561268f565b90506000856001600160a01b0316633408f73a6040518163ffffffff1660e01b815260040160206040518083038186803b158015612d4e57600080fd5b505afa158015612d62573d6000803e3d6000fd5b505050506040513d601f19601f82011682018060405250810190612d869190613a3d565b6001600160a01b031663f5d13da06040518163ffffffff1660e01b815260040160206040518083038186803b158015612dbe57600080fd5b505afa158015612dd2573d6000803e3d6000fd5b505050506040513d601f19601f82011682018060405250810190612df69190613a79565b6040517f6cff91f900000000000000000000000000000000000000000000000000000000815290915060009081907325c81e249f913c94f263923421622ba731e6555b90636cff91f990612e4e908690600401613c2f565b604080518083038186803b158015612e6557600080fd5b505afa158015612e79573d6000803e3d6000fd5b505050506040513d601f19601f82011682018060405250810190612e9d9190613a91565b6040517f99fbab88000000000000000000000000000000000000000000000000000000008152919350915060009073c36442b4a4522e871399cd717abdd847ab11fe88906399fbab8890612ef5908790600401613c2f565b6101806040518083038186803b158015612f0e57600080fd5b505afa158015612f22573d6000803e3d6000fd5b505050506040513d601f19601f82011682018060405250810190612f469190613ab4565b50505050975050505050505050806fffffffffffffffffffffffffffffffff1660001415612f7d5760009650505050505050612803565b60006130148a6001600160a01b0316630dfe16816040518163ffffffff1660e01b815260040160206040518083038186803b158015612fbb57600080fd5b505afa158015612fcf573d6000803e3d6000fd5b505050506040513d601f19601f82011682018060405250810190612ff39190613a3d565b8a610a726fffffffffffffffffffffffffffffffff8616610afe898d6129f9565b905060006130ad8b6001600160a01b031663d21220a76040518163ffffffff1660e01b815260040160206040518083038186803b15801561305457600080fd5b505afa158015613068573d6000803e3d6000fd5b505050506040513d601f19601f8201168201806040525081019061308c9190613a3d565b8b610a726fffffffffffffffffffffffffffffffff8716610afe898d6129f9565b90506130b982826129e9565b9b9a5050505050505050505050565b600073eeeeeeeeeeeeeeeeeeeeeeeeeeeeeeeeeeeeeeee6001600160a01b03831614806130fc57506001600160a01b038216155b90505b919050565b600061282182610afe85670de0b6b3a76400006129f9565b6040517fd87517b4000000000000000000000000000000000000000000000000000000008152602060048201908152602482018490526001600160a01b0386169163d87517b49186918691908190604401848480828437600081840152601f19601f820116905080830192505050935050505060006040518083038186803b1580156131a757600080fd5b505afa92505050801561326957506040513d6000823e601f3d908101601f1916820160405260208110156131da57600080fd5b81019080805160405193929190846401000000008211156131fa57600080fd5b90830190602082018581111561320f57600080fd5b825186602082028301116401000000008211171561322c57600080fd5b82525081516020918201928201910280838360005b83811015613259578181015183820152602001613241565b5050505090500160405250505060015b613272576134ab565b60005b81518110156134a85760006001600160a01b031682828151811061329557fe5b60200260200101516001600160a01b03161415801561333f575060008282815181106132bd57fe5b60200260200101516001600160a01b03166370a08231336040518263ffffffff1660e01b815260040180826001600160a01b0316815260200191505060206040518083038186803b15801561331157600080fd5b505afa158015613325573d6000803e3d6000fd5b505050506040513d602081101561333b57600080fd5b5051115b156134a057336001600160a01b031663bb39a96083838151811061335f57fe5b602002602001015184848151811061337357fe5b60200260200101516001600160a01b03166370a08231336040518263ffffffff1660e01b815260040180826001600160a01b0316815260200191505060206040518083038186803b1580156133c757600080fd5b505afa1580156133db573d6000803e3d6000fd5b505050506040513d60208110156133f157600080fd5b5051604080517fffffffff0000000000000000000000000000000000000000000000000000000060e086901b1681526001600160a01b0393841660048201526024810192909252918716604482015266f8b0a10e4700006064820152905160848083019260209291908290030181600087803b15801561347057600080fd5b505af192505050801561349557506040513d602081101561349057600080fd5b505160015b61349e576134a0565b505b600101613275565b50505b50505050565b6000806134be8685612809565b905060006134f4886134cf866130c8565b6134d957856134ef565b73c02aaa39b223fe8d0a0e5c4f27ead9083c756cc25b61268f565b905060006135078986610a728686612809565b9050886001600160a01b0316856001600160a01b031614158015613531575061352f856130c8565b155b156136b657604080516307196da960e11b81526001600160a01b038b81166004830152602482018690528716604482015290513391630e32db529160648083019260209291908290030181600087803b15801561358d57600080fd5b505af11580156135a1573d6000803e3d6000fd5b505050506040513d60208110156135b757600080fd5b5050604080516370a0823160e01b815233600482015290516001600160a01b038716916370a08231916024808301926020929190829003018186803b1580156135ff57600080fd5b505afa158015613613573d6000803e3d6000fd5b505050506040513d602081101561362957600080fd5b50518111156136a957604080516370a0823160e01b815233600482015290516001600160a01b038716916370a08231916024808301926020929190829003018186803b15801561367857600080fd5b505afa15801561368c573d6000803e3d6000fd5b505050506040513d60208110156136a257600080fd5b50516136ab565b805b9350612b4d92505050565b6136bf856130c8565b156138ec576001600160a01b03891673c02aaa39b223fe8d0a0e5c4f27ead9083c756cc21461377e57604080516307196da960e11b81526001600160a01b038b1660048201526024810185905273c02aaa39b223fe8d0a0e5c4f27ead9083c756cc2604482015290513391630e32db529160648083019260209291908290030181600087803b15801561375157600080fd5b505af1158015613765573d6000803e3d6000fd5b505050506040513d602081101561377b57600080fd5b50505b604080516370a0823160e01b8152336004820152905173c02aaa39b223fe8d0a0e5c4f27ead9083c756cc2916370a08231916024808301926020929190829003018186803b1580156137cf57600080fd5b505afa1580156137e3573d6000803e3d6000fd5b505050506040513d60208110156137f957600080fd5b505181111561388457604080516370a0823160e01b8152336004820152905173c02aaa39b223fe8d0a0e5c4f27ead9083c756cc2916370a08231916024808301926020929190829003018186803b15801561385357600080fd5b505afa158015613867573d6000803e3d6000fd5b505050506040513d602081101561387d57600080fd5b5051613886565b805b60408051631a5cfcb760e01b81526000600482018190526024820184905291519293503392631a5cfcb79260448084019391929182900301818387803b1580156138cf57600080fd5b505af11580156138e3573d6000803e3d6000fd5b505050506139e1565b604080516370a0823160e01b815233600482015290516001600160a01b038716916370a08231916024808301926020929190829003018186803b15801561393257600080fd5b505afa158015613946573d6000803e3d6000fd5b505050506040513d602081101561395c57600080fd5b50518111156139dc57604080516370a0823160e01b815233600482015290516001600160a01b038716916370a08231916024808301926020929190829003018186803b1580156139ab57600080fd5b505afa1580156139bf573d6000803e3d6000fd5b505050506040513d60208110156139d557600080fd5b50516139de565b805b90505b98975050505050505050565b80516130ff81613c38565b8051600281900b81146130ff57600080fd5b80516fffffffffffffffffffffffffffffffff811681146130ff57600080fd5b805162ffffff811681146130ff57600080fd5b600060208284031215613a4e578081fd5b815161282181613c38565b600060208284031215613a6a578081fd5b81518015158114612821578182fd5b600060208284031215613a8a578081fd5b5051919050565b60008060408385031215613aa3578081fd5b505080516020909101519092909150565b6000806000806000806000806000806000806101808d8f031215613ad6578788fd5b8c516bffffffffffffffffffffffff81168114613af1578889fd5b9b50613aff60208e016139ed565b9a50613b0d60408e016139ed565b9950613b1b60608e016139ed565b9850613b2960808e01613a2a565b9750613b3760a08e016139f8565b9650613b4560c08e016139f8565b9550613b5360e08e01613a0a565b94506101008d015193506101208d01519250613b726101408e01613a0a565b9150613b816101608e01613a0a565b90509295989b509295989b509295989b565b6001600160a01b0391909116815260200190565b6001600160a01b0392831681529116602082015260400190565b6020808252601b908201527f4f6e6c7920612067617264656e2063616e2063616c6c20746869730000000000604082015260600190565b60208082526019908201527f53656e646572206d757374206265206120737472617465677900000000000000604082015260600190565b90815260200190565b6001600160a01b0381168114613c4d57600080fd5b5056fea26469706673582212201639e4e643f48b63aada41f3b9efbbaa43e3a0af7b77ac395f861f833274218c64736f6c63430007060033",
  "devdoc": {
    "author": "Babylon Finance Executes an add liquidity operation",
    "kind": "dev",
    "methods": {
      "constructor": {
        "params": {
          "_controller": "Address of the controller",
          "_name": "Name of the integration"
        }
      },
      "executeOperation(address,uint256,uint8,bytes,address,address)": {
        "params": {
          "_asset": "Asset to receive into this operation",
          "_capital": "Amount of asset received param _assetStatus        Status of the asset amount",
          "_data": "OpData e.g. Address of the pool to enter",
          "_garden": "Garden of the strategy",
          "_integration": "Address of the integration to execute"
        }
      },
      "exitOperation(address,uint256,uint8,uint256,bytes,address,address)": {
        "params": {
          "_percentage": "of capital to exit from the strategy"
        }
      },
      "getNAV(bytes,address,address)": {
        "params": {
          "_data": "OpData e.g. PoolId or asset address",
          "_garden": "Garden the strategy belongs to",
          "_integration": "Status of the asset amount"
        },
        "returns": {
          "_0": "_nav               NAV of the strategy"
        }
      },
      "validateOperation(bytes,address,address,uint256)": {
        "params": {
          "_data": "Operation data"
        }
      }
    },
    "title": "AddLiquidityOperation",
    "version": 1
  },
  "userdoc": {
    "kind": "user",
    "methods": {
      "constructor": {
        "notice": "Creates the integration"
      },
      "executeOperation(address,uint256,uint8,bytes,address,address)": {
        "notice": "Executes the add liquidity operation"
      },
      "exitOperation(address,uint256,uint8,uint256,bytes,address,address)": {
        "notice": "Exits the add liquidity operation."
      },
      "getNAV(bytes,address,address)": {
        "notice": "Gets the NAV of the add liquidity op in the reserve asset"
      },
      "getName()": {
        "notice": "Returns the name of the operation"
      },
      "validateOperation(bytes,address,address,uint256)": {
        "notice": "Sets operation data for the add liquidity operation"
      }
    },
    "version": 1
  },
  "storageLayout": {
    "storage": [
      {
        "astId": 56159,
        "contract": "contracts/strategies/operations/AddLiquidityOperation.sol:AddLiquidityOperation",
        "label": "controller",
        "offset": 0,
        "slot": "0",
        "type": "t_address"
      },
      {
        "astId": 56161,
        "contract": "contracts/strategies/operations/AddLiquidityOperation.sol:AddLiquidityOperation",
        "label": "name",
        "offset": 0,
        "slot": "1",
        "type": "t_string_storage"
      }
    ],
    "types": {
      "t_address": {
        "encoding": "inplace",
        "label": "address",
        "numberOfBytes": "20"
      },
      "t_string_storage": {
        "encoding": "bytes",
        "label": "string",
        "numberOfBytes": "32"
      }
    }
  }
}