{
  "address": "0x12FF605d212EE3Af7912e68902E654672d671090",
  "abi": [
    {
      "anonymous": false,
      "inputs": [
        {
          "indexed": true,
          "internalType": "address",
          "name": "owner",
          "type": "address"
        },
        {
          "indexed": true,
          "internalType": "address",
          "name": "spender",
          "type": "address"
        },
        {
          "indexed": false,
          "internalType": "uint256",
          "name": "value",
          "type": "uint256"
        }
      ],
      "name": "Approval",
      "type": "event"
    },
    {
      "anonymous": false,
      "inputs": [
        {
          "indexed": true,
          "internalType": "address",
          "name": "from",
          "type": "address"
        },
        {
          "indexed": true,
          "internalType": "address",
          "name": "to",
          "type": "address"
        },
        {
          "indexed": false,
          "internalType": "uint256",
          "name": "value",
          "type": "uint256"
        }
      ],
      "name": "Transfer",
      "type": "event"
    },
    {
      "inputs": [
        {
          "internalType": "address[4]",
          "name": "_newCreators",
          "type": "address[4]"
        }
      ],
      "name": "addExtraCreators",
      "outputs": [],
      "stateMutability": "nonpayable",
      "type": "function"
    },
    {
      "inputs": [
        {
          "internalType": "address",
          "name": "owner",
          "type": "address"
        },
        {
          "internalType": "address",
          "name": "spender",
          "type": "address"
        }
      ],
      "name": "allowance",
      "outputs": [
        {
          "internalType": "uint256",
          "name": "",
          "type": "uint256"
        }
      ],
      "stateMutability": "view",
      "type": "function"
    },
    {
      "inputs": [
        {
          "internalType": "address",
          "name": "spender",
          "type": "address"
        },
        {
          "internalType": "uint256",
          "name": "amount",
          "type": "uint256"
        }
      ],
      "name": "approve",
      "outputs": [
        {
          "internalType": "bool",
          "name": "",
          "type": "bool"
        }
      ],
      "stateMutability": "nonpayable",
      "type": "function"
    },
    {
      "inputs": [
        {
          "internalType": "address",
          "name": "account",
          "type": "address"
        }
      ],
      "name": "balanceOf",
      "outputs": [
        {
          "internalType": "uint256",
          "name": "",
          "type": "uint256"
        }
      ],
      "stateMutability": "view",
      "type": "function"
    },
    {
      "inputs": [],
      "name": "decimals",
      "outputs": [
        {
          "internalType": "uint8",
          "name": "",
          "type": "uint8"
        }
      ],
      "stateMutability": "view",
      "type": "function"
    },
    {
      "inputs": [
        {
          "internalType": "address",
          "name": "spender",
          "type": "address"
        },
        {
          "internalType": "uint256",
          "name": "subtractedValue",
          "type": "uint256"
        }
      ],
      "name": "decreaseAllowance",
      "outputs": [
        {
          "internalType": "bool",
          "name": "",
          "type": "bool"
        }
      ],
      "stateMutability": "nonpayable",
      "type": "function"
    },
    {
      "inputs": [
        {
          "internalType": "address",
          "name": "_token",
          "type": "address"
        },
        {
          "internalType": "address",
          "name": "_delegatee",
          "type": "address"
        }
      ],
      "name": "delegateVotes",
      "outputs": [],
      "stateMutability": "nonpayable",
      "type": "function"
    },
    {
      "inputs": [
        {
          "internalType": "address",
          "name": "spender",
          "type": "address"
        },
        {
          "internalType": "uint256",
          "name": "addedValue",
          "type": "uint256"
        }
      ],
      "name": "increaseAllowance",
      "outputs": [
        {
          "internalType": "bool",
          "name": "",
          "type": "bool"
        }
      ],
      "stateMutability": "nonpayable",
      "type": "function"
    },
    {
      "inputs": [
        {
          "internalType": "address",
          "name": "_reserveAsset",
          "type": "address"
        },
        {
          "internalType": "contract IBabController",
          "name": "_controller",
          "type": "address"
        },
        {
          "internalType": "address",
          "name": "_creator",
          "type": "address"
        },
        {
          "internalType": "string",
          "name": "_name",
          "type": "string"
        },
        {
          "internalType": "string",
          "name": "_symbol",
          "type": "string"
        },
        {
          "internalType": "uint256[]",
          "name": "_gardenParams",
          "type": "uint256[]"
        },
        {
          "internalType": "uint256",
          "name": "_initialContribution",
          "type": "uint256"
        },
        {
          "internalType": "bool[]",
          "name": "_publicGardenStrategistsStewards",
          "type": "bool[]"
        }
      ],
      "name": "initialize",
      "outputs": [],
      "stateMutability": "payable",
      "type": "function"
    },
    {
      "inputs": [],
      "name": "keeperDebt",
      "outputs": [
        {
          "internalType": "uint256",
          "name": "",
          "type": "uint256"
        }
      ],
      "stateMutability": "view",
      "type": "function"
    },
    {
      "inputs": [],
      "name": "makeGardenPublic",
      "outputs": [],
      "stateMutability": "nonpayable",
      "type": "function"
    },
    {
      "inputs": [],
      "name": "name",
      "outputs": [
        {
          "internalType": "string",
          "name": "",
          "type": "string"
        }
      ],
      "stateMutability": "view",
      "type": "function"
    },
    {
      "inputs": [],
      "name": "privateGarden",
      "outputs": [
        {
          "internalType": "bool",
          "name": "",
          "type": "bool"
        }
      ],
      "stateMutability": "view",
      "type": "function"
    },
    {
      "inputs": [
        {
          "internalType": "bool",
          "name": "_publicStrategists",
          "type": "bool"
        },
        {
          "internalType": "bool",
          "name": "_publicStewards",
          "type": "bool"
        }
      ],
      "name": "setPublicRights",
      "outputs": [],
      "stateMutability": "nonpayable",
      "type": "function"
    },
    {
      "inputs": [],
      "name": "symbol",
      "outputs": [
        {
          "internalType": "string",
          "name": "",
          "type": "string"
        }
      ],
      "stateMutability": "view",
      "type": "function"
    },
    {
      "inputs": [],
      "name": "totalSupply",
      "outputs": [
        {
          "internalType": "uint256",
          "name": "",
          "type": "uint256"
        }
      ],
      "stateMutability": "view",
      "type": "function"
    },
    {
      "inputs": [
        {
          "internalType": "address",
          "name": "recipient",
          "type": "address"
        },
        {
          "internalType": "uint256",
          "name": "amount",
          "type": "uint256"
        }
      ],
      "name": "transfer",
      "outputs": [
        {
          "internalType": "bool",
          "name": "",
          "type": "bool"
        }
      ],
      "stateMutability": "nonpayable",
      "type": "function"
    },
    {
      "inputs": [
        {
          "internalType": "address",
          "name": "_newCreator",
          "type": "address"
        },
        {
          "internalType": "uint8",
          "name": "_index",
          "type": "uint8"
        }
      ],
      "name": "transferCreatorRights",
      "outputs": [],
      "stateMutability": "nonpayable",
      "type": "function"
    },
    {
      "inputs": [
        {
          "internalType": "address",
          "name": "sender",
          "type": "address"
        },
        {
          "internalType": "address",
          "name": "recipient",
          "type": "address"
        },
        {
          "internalType": "uint256",
          "name": "amount",
          "type": "uint256"
        }
      ],
      "name": "transferFrom",
      "outputs": [
        {
          "internalType": "bool",
          "name": "",
          "type": "bool"
        }
      ],
      "stateMutability": "nonpayable",
      "type": "function"
    },
    {
      "inputs": [
        {
          "internalType": "address",
          "name": "_newCreator",
          "type": "address"
        },
        {
          "internalType": "address[4]",
          "name": "_newCreators",
          "type": "address[4]"
        }
      ],
      "name": "updateCreators",
      "outputs": [],
      "stateMutability": "nonpayable",
      "type": "function"
    },
    {
      "inputs": [
        {
          "internalType": "uint256[11]",
          "name": "_newParams",
          "type": "uint256[11]"
        }
      ],
      "name": "updateGardenParams",
      "outputs": [],
      "stateMutability": "nonpayable",
      "type": "function"
    }
  ],
  "transactionHash": "0x6a27976dc0ee8bb71932d3f7197c97bf48cec0ebbaad616029aea41246c7eb6d",
  "args": [],
  "numDeployments": 1,
  "solcInputHash": "00dca416874455871275f632bb5d2c2b",
  "bytecode": "0x608060405234801561001057600080fd5b506001606555611f59806100256000396000f3fe60806040526004361061016a5760003560e01c806360d442ca116100cb578063a9059cbb1161007f578063c8882fa011610059578063c8882fa01461078e578063dd62ed3e146107fa578063f8281626146108355761016a565b8063a9059cbb146106c0578063adb9dd07146106f9578063b2ce956e1461075a5761016a565b806370a08231116100b057806370a082311461063f57806395d89b4114610672578063a457c2d7146106875761016a565b806360d442ca146105cb5780636acb733e146105e05761016a565b806335510fee1161012257806347219d271161010757806347219d2714610352578063550c2b7f1461038d578063580d55d5146103a25761016a565b806335510fee146102db57806339509351146103195761016a565b806318160ddd1161015357806318160ddd1461024657806323b872dd1461026d578063313ce567146102b05761016a565b806306fdde031461016f578063095ea7b3146101f9575b600080fd5b34801561017b57600080fd5b5061018461084a565b6040805160208082528351818301528351919283929083019185019080838360005b838110156101be5781810151838201526020016101a6565b50505050905090810190601f1680156101eb5780820380516001836020036101000a031916815260200191505b509250505060405180910390f35b34801561020557600080fd5b506102326004803603604081101561021c57600080fd5b506001600160a01b0381351690602001356108e0565b604080519115158252519081900360200190f35b34801561025257600080fd5b5061025b6108fe565b60408051918252519081900360200190f35b34801561027957600080fd5b506102326004803603606081101561029057600080fd5b506001600160a01b03813581169160208101359091169060400135610904565b3480156102bc57600080fd5b506102c561098b565b6040805160ff9092168252519081900360200190f35b3480156102e757600080fd5b50610317600480360360408110156102fe57600080fd5b5080356001600160a01b0316906020013560ff16610994565b005b34801561032557600080fd5b506102326004803603604081101561033c57600080fd5b506001600160a01b038135169060200135610a6b565b34801561035e57600080fd5b506103176004803603604081101561037557600080fd5b506001600160a01b0381358116916020013516610ab9565b34801561039957600080fd5b50610232610b57565b61031760048036036101008110156103b957600080fd5b6001600160a01b03823581169260208101358216926040820135909216918101906080810160608201356401000000008111156103f557600080fd5b82018360208201111561040757600080fd5b8035906020019184600183028401116401000000008311171561042957600080fd5b91908080601f016020809104026020016040519081016040528093929190818152602001838380828437600092019190915250929594936020810193503591505064010000000081111561047c57600080fd5b82018360208201111561048e57600080fd5b803590602001918460018302840111640100000000831117156104b057600080fd5b91908080601f016020809104026020016040519081016040528093929190818152602001838380828437600092019190915250929594936020810193503591505064010000000081111561050357600080fd5b82018360208201111561051557600080fd5b8035906020019184602083028401116401000000008311171561053757600080fd5b9193909282359260408101906020013564010000000081111561055957600080fd5b82018360208201111561056b57600080fd5b8035906020019184602083028401116401000000008311171561058d57600080fd5b919080806020026020016040519081016040528093929190818152602001838360200280828437600092019190915250929550610b67945050505050565b3480156105d757600080fd5b5061025b610f6f565b3480156105ec57600080fd5b506103176004803603608081101561060357600080fd5b8101908080608001906004806020026040519081016040528092919082600460200280828437600092019190915250919450610f759350505050565b34801561064b57600080fd5b5061025b6004803603602081101561066257600080fd5b50356001600160a01b0316610fc7565b34801561067e57600080fd5b50610184610fe2565b34801561069357600080fd5b50610232600480360360408110156106aa57600080fd5b506001600160a01b038135169060200135611043565b3480156106cc57600080fd5b50610232600480360360408110156106e357600080fd5b506001600160a01b0381351690602001356110ab565b34801561070557600080fd5b50610317600480360361016081101561071d57600080fd5b81019080806101600190600b806020026040519081016040528092919082600b602002808284376000920191909152509194506110bf9350505050565b34801561076657600080fd5b506103176004803603604081101561077d57600080fd5b508035151590602001351515611112565b34801561079a57600080fd5b50610317600480360360a08110156107b157600080fd5b6040805160808181019092526001600160a01b0384351693928301929160a083019190602084019060049083908390808284376000920191909152509194506111579350505050565b34801561080657600080fd5b5061025b6004803603604081101561081d57600080fd5b506001600160a01b03813581169160200135166111fe565b34801561084157600080fd5b50610317611229565b60368054604080516020601f60026000196101006001881615020190951694909404938401819004810282018101909252828152606093909290918301828280156108d65780601f106108ab576101008083540402835291602001916108d6565b820191906000526020600020905b8154815290600101906020018083116108b957829003601f168201915b5050505050905090565b60006108f46108ed6112db565b84846112df565b5060015b92915050565b60355490565b60006109118484846113cb565b6109818461091d6112db565b61097c85604051806060016040528060288152602001611e64602891396001600160a01b038a1660009081526034602052604081209061095b6112db565b6001600160a01b031681526020810191909152604001600020549190611528565b6112df565b5060019392505050565b60385460ff1690565b61099d336115bf565b6109b16109a9836115d2565b15605e61167f565b6109dc6001600160a01b0383161515806109d55750606954600160a81b900460ff16155b606161167f565b6069546001600160a01b0316331415610a0f57606980546001600160a01b0319166001600160a01b038416179055610a67565b610a3633608660ff841660048110610a2357fe5b01546001600160a01b031614601161167f565b8160868260ff1660048110610a4757fe5b0180546001600160a01b0319166001600160a01b03929092169190911790555b5050565b60006108f4610a786112db565b8461097c8560346000610a896112db565b6001600160a01b03908116825260208083019390935260409182016000908120918c16815292529020549061168d565b610ac2336115bf565b610aec6001600160a01b03831615801590610ae557506001600160a01b03821615155b601761167f565b816001600160a01b0316635c19a95c826040518263ffffffff1660e01b815260040180826001600160a01b03168152602001915050600060405180830381600087803b158015610b3b57600080fd5b505af1158015610b4f573d6000803e3d6000fd5b505050505050565b606954600160a81b900460ff1681565b600054610100900460ff1680610b805750610b806116ee565b80610b8e575060005460ff16155b610bc95760405162461bcd60e51b815260040180806020018281038252602e815260200180611e36602e913960400191505060405180910390fd5b600054610100900460ff16158015610bf4576000805460ff1961ff0019909116610100171660011790555b610bfe87876116ff565b606780546001600160a01b03808c166001600160a01b03199283161792839055606680548e8316908416179055606980548c8316931692909217909155604080517f3f2a554000000000000000000000000000000000000000000000000000000000815290519290911691633f2a554091600480820192602092909190829003018186803b158015610c8f57600080fd5b505afa158015610ca3573d6000803e3d6000fd5b505050506040513d6020811015610cb957600080fd5b5051606880546001600160a01b0319166001600160a01b039283161790819055610ce391166117b5565b606760009054906101000a90046001600160a01b03166001600160a01b0316637f80e05b6040518163ffffffff1660e01b815260040160206040518083038186803b158015610d3157600080fd5b505afa158015610d45573d6000803e3d6000fd5b505050506040513d6020811015610d5b57600080fd5b50518015610d7a575081600081518110610d7157fe5b60200260200101515b60698054600160a81b9215830260ff60a81b1990911617908190550460ff16158015610db7575081600181518110610dae57fe5b60200260200101515b6085805460ff191691151591909117905560695460ff600160a81b90910416158015610df4575081600281518110610deb57fe5b60200260200101515b608580549115156101000261ff0019909216919091179055610e6b600086866003818110610e1e57fe5b90506020020135118015610e45575085856003818110610e3a57fe5b905060200201358410155b8015610e64575085856000818110610e5957fe5b905060200201358411155b600161167f565b42607555610f518585600081610e7d57fe5b9050602002013586866001818110610e9157fe5b9050602002013587876002818110610ea557fe5b9050602002013588886003818110610eb957fe5b9050602002013589896004818110610ecd57fe5b905060200201358a8a6005818110610ee157fe5b905060200201358b8b6006818110610ef557fe5b905060200201358c8c6007818110610f0957fe5b905060200201358d8d6008818110610f1d57fe5b905060200201358e8e6009818110610f3157fe5b905060200201358f8f600a818110610f4557fe5b905060200201356117cb565b8015610f63576000805461ff00191690555b50505050505050505050565b60835481565b606954610f8e906001600160a01b03163314605f61167f565b610fa0600082815b6020020151611965565b610fac60018281610f96565b610fb860028281610f96565b610fc460038281610f96565b50565b6001600160a01b031660009081526033602052604090205490565b60378054604080516020601f60026000196101006001881615020190951694909404938401819004810282018101909252828152606093909290918301828280156108d65780601f106108ab576101008083540402835291602001916108d6565b60006108f46110506112db565b8461097c85604051806060016040528060258152602001611eff602591396034600061107a6112db565b6001600160a01b03908116825260208083019390935260409182016000908120918d16815292529020549190611528565b60006108f46110b86112db565b84846113cb565b6110c8336115bf565b8051602082015160408301516060840151608085015160a086015160c087015160e08801516101008901516101208a01516101408b0151610fc49a999897969594939291906117cb565b61111b336115bf565b60695461113490600160a81b900460ff1615605a61167f565b6085805460ff19169215159290921761ff00191661010091151591909102179055565b60675461116c906001600160a01b03166119aa565b6111966001600160a01b038316158015906109d557506069546001600160a01b031615606161167f565b606980546001600160a01b03199081166001600160a01b03858116919091179092558251608680548316918416919091178155602084015160878054841691851691909117905560408401516088805490931693169290921790556060820151906003610a47565b6001600160a01b03918216600090815260346020908152604080832093909416825291909152205490565b611232336115bf565b6069546112cc90600160a81b900460ff1680156112c55750606760009054906101000a90046001600160a01b03166001600160a01b0316637f80e05b6040518163ffffffff1660e01b815260040160206040518083038186803b15801561129857600080fd5b505afa1580156112ac573d6000803e3d6000fd5b505050506040513d60208110156112c257600080fd5b50515b604361167f565b6069805460ff60a81b19169055565b3390565b6001600160a01b0383166113245760405162461bcd60e51b8152600401808060200182810382526024815260200180611edb6024913960400191505060405180910390fd5b6001600160a01b0382166113695760405162461bcd60e51b8152600401808060200182810382526022815260200180611dee6022913960400191505060405180910390fd5b6001600160a01b03808416600081815260346020908152604080832094871680845294825291829020859055815185815291517f8c5be1e5ebec7d5bd14f71427d1e84f3dd0314c0f7b2291e5b200ac8c7c3b9259281900390910190a3505050565b6001600160a01b0383166114105760405162461bcd60e51b8152600401808060200182810382526025815260200180611eb66025913960400191505060405180910390fd5b6001600160a01b0382166114555760405162461bcd60e51b8152600401808060200182810382526023815260200180611dcb6023913960400191505060405180910390fd5b6114608383836117b0565b61149d81604051806060016040528060268152602001611e10602691396001600160a01b0386166000908152603360205260409020549190611528565b6001600160a01b0380851660009081526033602052604080822093909355908416815220546114cc908261168d565b6001600160a01b0380841660008181526033602090815260409182902094909455805185815290519193928716927fddf252ad1be2c89b69c2b068fc378daa952ba7f163c4a11628f55a4df523b3ef92918290030190a3505050565b600081848411156115b75760405162461bcd60e51b81526004018080602001828103825283818151815260200191508051906020019080838360005b8381101561157c578181015183820152602001611564565b50505050905090810190601f1680156115a95780820380516001836020036101000a031916815260200191505b509250505060405180910390fd5b505050900390565b610fc46115cb826115d2565b601161167f565b60006001600160a01b038216158015906108f857506001600160a01b0382166086600001546001600160a01b0316148061162257506001600160a01b0382166086600101546001600160a01b0316145b8061164357506001600160a01b0382166086600201546001600160a01b0316145b8061166457506001600160a01b0382166086600301546001600160a01b0316145b806108f85750506069546001600160a01b0390811691161490565b81610a6757610a6781611acc565b6000828201838110156116e7576040805162461bcd60e51b815260206004820152601b60248201527f536166654d6174683a206164646974696f6e206f766572666c6f770000000000604482015290519081900360640190fd5b9392505050565b60006116f930611b1f565b15905090565b600054610100900460ff168061171857506117186116ee565b80611726575060005460ff16155b6117615760405162461bcd60e51b815260040180806020018281038252602e815260200180611e36602e913960400191505060405180910390fd5b600054610100900460ff1615801561178c576000805460ff1961ff0019909116610100171660011790555b611794611b25565b61179e8383611bc6565b80156117b0576000805461ff00191690555b505050565b610fc46001600160a01b0382161515601761167f565b606754606654604080517ff05017eb0000000000000000000000000000000000000000000000000000000081526001600160a01b039283166004820152905161187b93929092169163f05017eb91602480820192602092909190829003018186803b15801561183957600080fd5b505afa15801561184d573d6000803e3d6000fd5b505050506040513d602081101561186357600080fd5b50518b10801590611874575060008b115b600461167f565b61188960008a11600361167f565b6118a762093a8088111580156118a05750603c8810155b601861167f565b6118e56118bd67016345785d8a00006002611c9e565b87101580156118de57506118da67016345785d8a00006005611d05565b8711155b601961167f565b6119128585101580156118fb5750620151808610155b801561190b57506302932e008511155b603f61167f565b61192d600184101580156119265750600a84105b604061167f565b60749a909a55607796909655607e94909455607a92909255607b92909255607c91909155607d55606e92909255606f55608c55608d55565b6119716109a9826115d2565b6119996000608660ff85166004811061198657fe5b01546001600160a01b031614605e61167f565b8060868360ff1660048110610a4757fe5b806001600160a01b0316638da5cb5b6040518163ffffffff1660e01b815260040160206040518083038186803b1580156119e357600080fd5b505afa1580156119f7573d6000803e3d6000fd5b505050506040513d6020811015611a0d57600080fd5b50516001600160a01b0316331480611a915750806001600160a01b0316638d97e0436040518163ffffffff1660e01b815260040160206040518083038186803b158015611a5957600080fd5b505afa158015611a6d573d6000803e3d6000fd5b505050506040513d6020811015611a8357600080fd5b50516001600160a01b031633145b610fc45760405162461bcd60e51b815260040180806020018281038252602a815260200180611e8c602a913960400191505060405180910390fd5b62461bcd60e51b6000908152602060045260076024526642414223000030600a808404818106603090810160081b95839006959095019082900491820690940160101b939093010160c81b604452606490fd5b3b151590565b600054610100900460ff1680611b3e5750611b3e6116ee565b80611b4c575060005460ff16155b611b875760405162461bcd60e51b815260040180806020018281038252602e815260200180611e36602e913960400191505060405180910390fd5b600054610100900460ff16158015611bb2576000805460ff1961ff0019909116610100171660011790555b8015610fc4576000805461ff001916905550565b600054610100900460ff1680611bdf5750611bdf6116ee565b80611bed575060005460ff16155b611c285760405162461bcd60e51b815260040180806020018281038252602e815260200180611e36602e913960400191505060405180910390fd5b600054610100900460ff16158015611c53576000805460ff1961ff0019909116610100171660011790555b8251611c66906036906020860190611d29565b508151611c7a906037906020850190611d29565b506038805460ff1916601217905580156117b0576000805461ff0019169055505050565b6000808211611cf4576040805162461bcd60e51b815260206004820152601a60248201527f536166654d6174683a206469766973696f6e206279207a65726f000000000000604482015290519081900360640190fd5b818381611cfd57fe5b049392505050565b6000821580611d2057505081810281838281611d1d57fe5b04145b6108f857600080fd5b828054600181600116156101000203166002900490600052602060002090601f016020900481019282611d5f5760008555611da5565b82601f10611d7857805160ff1916838001178555611da5565b82800160010185558215611da5579182015b82811115611da5578251825591602001919060010190611d8a565b50611db1929150611db5565b5090565b5b80821115611db15760008155600101611db656fe45524332303a207472616e7366657220746f20746865207a65726f206164647265737345524332303a20617070726f766520746f20746865207a65726f206164647265737345524332303a207472616e7366657220616d6f756e7420657863656564732062616c616e6365496e697469616c697a61626c653a20636f6e747261637420697320616c726561647920696e697469616c697a656445524332303a207472616e7366657220616d6f756e74206578636565647320616c6c6f77616e63654f6e6c7920676f7665726e616e6365206f7220656d657267656e63792063616e2063616c6c207468697345524332303a207472616e736665722066726f6d20746865207a65726f206164647265737345524332303a20617070726f76652066726f6d20746865207a65726f206164647265737345524332303a2064656372656173656420616c6c6f77616e63652062656c6f77207a65726fa26469706673582212202a7c10b2942b847b3dc5f2488ac6b31aa32b7430b9ad640391b5719ec81a91a164736f6c63430007060033",
  "devdoc": {
    "kind": "dev",
    "methods": {
      "allowance(address,address)": {
        "details": "See {IERC20-allowance}."
      },
      "approve(address,uint256)": {
        "details": "See {IERC20-approve}. Requirements: - `spender` cannot be the zero address."
      },
      "balanceOf(address)": {
        "details": "See {IERC20-balanceOf}."
      },
      "decimals()": {
        "details": "Returns the number of decimals used to get its user representation. For example, if `decimals` equals `2`, a balance of `505` tokens should be displayed to a user as `5,05` (`505 / 10 ** 2`). Tokens usually opt for a value of 18, imitating the relationship between Ether and Wei. This is the value {ERC20} uses, unless {_setupDecimals} is called. NOTE: This information is only used for _display_ purposes: it in no way affects any of the arithmetic of the contract, including {IERC20-balanceOf} and {IERC20-transfer}."
      },
      "decreaseAllowance(address,uint256)": {
        "details": "Atomically decreases the allowance granted to `spender` by the caller. This is an alternative to {approve} that can be used as a mitigation for problems described in {IERC20-approve}. Emits an {Approval} event indicating the updated allowance. Requirements: - `spender` cannot be the zero address. - `spender` must have allowance for the caller of at least `subtractedValue`."
      },
      "delegateVotes(address,address)": {
        "params": {
          "_delegatee": "Address to delegate token voting power into",
          "_token": "Address of BABL or any other ERC20Comp related governance token"
        }
      },
      "increaseAllowance(address,uint256)": {
        "details": "Atomically increases the allowance granted to `spender` by the caller. This is an alternative to {approve} that can be used as a mitigation for problems described in {IERC20-approve}. Emits an {Approval} event indicating the updated allowance. Requirements: - `spender` cannot be the zero address."
      },
      "initialize(address,address,address,string,string,uint256[],uint256,bool[])": {
        "params": {
          "_controller": "Address of the controller",
          "_creator": "Address of the creator",
          "_gardenParams": "Array of numeric garden params",
          "_initialContribution": "Initial Contribution by the Gardener",
          "_name": "Name of the Garden",
          "_publicGardenStrategistsStewards": "Public garden, public strategists rights and public stewards rights",
          "_reserveAsset": "Address of the reserve asset ERC20",
          "_symbol": "Symbol of the Garden"
        }
      },
      "name()": {
        "details": "Returns the name of the token."
      },
      "symbol()": {
        "details": "Returns the symbol of the token, usually a shorter version of the name."
      },
      "totalSupply()": {
        "details": "See {IERC20-totalSupply}."
      },
      "transfer(address,uint256)": {
        "details": "See {IERC20-transfer}. Requirements: - `recipient` cannot be the zero address. - the caller must have a balance of at least `amount`."
      },
      "transferFrom(address,address,uint256)": {
        "details": "See {IERC20-transferFrom}. Emits an {Approval} event indicating the updated allowance. This is not required by the EIP. See the note at the beginning of {ERC20}. Requirements: - `sender` and `recipient` cannot be the zero address. - `sender` must have a balance of at least `amount`. - the caller must have allowance for ``sender``'s tokens of at least `amount`."
      },
      "updateGardenParams(uint256[11])": {
        "params": {
          "_newParams": "New params"
        }
      }
    },
    "title": "AdminGardenModule Class that holds common garden-related state and functions",
    "version": 1
  },
  "userdoc": {
    "kind": "user",
    "methods": {
      "delegateVotes(address,address)": {
        "notice": "PRIVILEGE FUNCTION to delegate Garden voting power itself into a delegatee To be used by Garden Creator only. Compatible with BABL and COMP and few others ERC20Comp related tokens"
      },
      "initialize(address,address,address,string,string,uint256[],uint256,bool[])": {
        "notice": "When a new Garden is created. All parameter validations are on the BabController contract. Validations are performed already on the BabController. WARN: If the reserve Asset is different than WETH the gardener needs to have approved the controller."
      },
      "makeGardenPublic()": {
        "notice": "Makes a previously private garden public"
      },
      "setPublicRights(bool,bool)": {
        "notice": "Gives the right to create strategies and/or voting power to garden users"
      },
      "updateGardenParams(uint256[11])": {
        "notice": "Updates Garden Params Can only be called by the creator"
      }
    },
    "version": 1
  },
  "storageLayout": {
    "storage": [
      {
        "astId": 492,
        "contract": "contracts/gardens/AdminGardenModule.sol:AdminGardenModule",
        "label": "_initialized",
        "offset": 0,
        "slot": "0",
        "type": "t_bool"
      },
      {
        "astId": 495,
        "contract": "contracts/gardens/AdminGardenModule.sol:AdminGardenModule",
        "label": "_initializing",
        "offset": 1,
        "slot": "0",
        "type": "t_bool"
      },
      {
        "astId": 1447,
        "contract": "contracts/gardens/AdminGardenModule.sol:AdminGardenModule",
        "label": "__gap",
        "offset": 0,
        "slot": "1",
        "type": "t_array(t_uint256)50_storage"
      },
      {
        "astId": 571,
        "contract": "contracts/gardens/AdminGardenModule.sol:AdminGardenModule",
        "label": "_balances",
        "offset": 0,
        "slot": "51",
        "type": "t_mapping(t_address,t_uint256)"
      },
      {
        "astId": 577,
        "contract": "contracts/gardens/AdminGardenModule.sol:AdminGardenModule",
        "label": "_allowances",
        "offset": 0,
        "slot": "52",
        "type": "t_mapping(t_address,t_mapping(t_address,t_uint256))"
      },
      {
        "astId": 579,
        "contract": "contracts/gardens/AdminGardenModule.sol:AdminGardenModule",
        "label": "_totalSupply",
        "offset": 0,
        "slot": "53",
        "type": "t_uint256"
      },
      {
        "astId": 581,
        "contract": "contracts/gardens/AdminGardenModule.sol:AdminGardenModule",
        "label": "_name",
        "offset": 0,
        "slot": "54",
        "type": "t_string_storage"
      },
      {
        "astId": 583,
        "contract": "contracts/gardens/AdminGardenModule.sol:AdminGardenModule",
        "label": "_symbol",
        "offset": 0,
        "slot": "55",
        "type": "t_string_storage"
      },
      {
        "astId": 585,
        "contract": "contracts/gardens/AdminGardenModule.sol:AdminGardenModule",
        "label": "_decimals",
        "offset": 0,
        "slot": "56",
        "type": "t_uint8"
      },
      {
        "astId": 1080,
        "contract": "contracts/gardens/AdminGardenModule.sol:AdminGardenModule",
        "label": "__gap",
        "offset": 0,
        "slot": "57",
        "type": "t_array(t_uint256)44_storage"
      },
      {
        "astId": 6418,
        "contract": "contracts/gardens/AdminGardenModule.sol:AdminGardenModule",
        "label": "_status",
        "offset": 0,
        "slot": "101",
        "type": "t_uint256"
      },
      {
        "astId": 23598,
        "contract": "contracts/gardens/AdminGardenModule.sol:AdminGardenModule",
        "label": "reserveAsset",
        "offset": 0,
        "slot": "102",
        "type": "t_address"
      },
      {
        "astId": 23600,
        "contract": "contracts/gardens/AdminGardenModule.sol:AdminGardenModule",
        "label": "controller",
        "offset": 0,
        "slot": "103",
        "type": "t_contract(IBabController)41441"
      },
      {
        "astId": 23602,
        "contract": "contracts/gardens/AdminGardenModule.sol:AdminGardenModule",
        "label": "rewardsDistributor",
        "offset": 0,
        "slot": "104",
        "type": "t_contract(IRewardsDistributor)43217"
      },
      {
        "astId": 23604,
        "contract": "contracts/gardens/AdminGardenModule.sol:AdminGardenModule",
        "label": "creator",
        "offset": 0,
        "slot": "105",
        "type": "t_address"
      },
      {
        "astId": 23606,
        "contract": "contracts/gardens/AdminGardenModule.sol:AdminGardenModule",
        "label": "active",
        "offset": 20,
        "slot": "105",
        "type": "t_bool"
      },
      {
        "astId": 23608,
        "contract": "contracts/gardens/AdminGardenModule.sol:AdminGardenModule",
        "label": "privateGarden",
        "offset": 21,
        "slot": "105",
        "type": "t_bool"
      },
      {
        "astId": 23610,
        "contract": "contracts/gardens/AdminGardenModule.sol:AdminGardenModule",
        "label": "principal",
        "offset": 0,
        "slot": "106",
        "type": "t_uint256"
      },
      {
        "astId": 23612,
        "contract": "contracts/gardens/AdminGardenModule.sol:AdminGardenModule",
        "label": "reserveAssetRewardsSetAside",
        "offset": 0,
        "slot": "107",
        "type": "t_uint256"
      },
      {
        "astId": 23614,
        "contract": "contracts/gardens/AdminGardenModule.sol:AdminGardenModule",
        "label": "reserveAssetPrincipalWindow",
        "offset": 0,
        "slot": "108",
        "type": "t_uint256"
      },
      {
        "astId": 23616,
        "contract": "contracts/gardens/AdminGardenModule.sol:AdminGardenModule",
        "label": "absoluteReturns",
        "offset": 0,
        "slot": "109",
        "type": "t_int256"
      },
      {
        "astId": 23618,
        "contract": "contracts/gardens/AdminGardenModule.sol:AdminGardenModule",
        "label": "minLiquidityAsset",
        "offset": 0,
        "slot": "110",
        "type": "t_uint256"
      },
      {
        "astId": 23620,
        "contract": "contracts/gardens/AdminGardenModule.sol:AdminGardenModule",
        "label": "depositHardlock",
        "offset": 0,
        "slot": "111",
        "type": "t_uint256"
      },
      {
        "astId": 23622,
        "contract": "contracts/gardens/AdminGardenModule.sol:AdminGardenModule",
        "label": "withdrawalsOpenUntil",
        "offset": 0,
        "slot": "112",
        "type": "t_uint256"
      },
      {
        "astId": 23626,
        "contract": "contracts/gardens/AdminGardenModule.sol:AdminGardenModule",
        "label": "contributors",
        "offset": 0,
        "slot": "113",
        "type": "t_mapping(t_address,t_struct(Contributor)23596_storage)"
      },
      {
        "astId": 23628,
        "contract": "contracts/gardens/AdminGardenModule.sol:AdminGardenModule",
        "label": "totalContributors",
        "offset": 0,
        "slot": "114",
        "type": "t_uint256"
      },
      {
        "astId": 23630,
        "contract": "contracts/gardens/AdminGardenModule.sol:AdminGardenModule",
        "label": "maxContributors",
        "offset": 0,
        "slot": "115",
        "type": "t_uint256"
      },
      {
        "astId": 23632,
        "contract": "contracts/gardens/AdminGardenModule.sol:AdminGardenModule",
        "label": "maxDepositLimit",
        "offset": 0,
        "slot": "116",
        "type": "t_uint256"
      },
      {
        "astId": 23634,
        "contract": "contracts/gardens/AdminGardenModule.sol:AdminGardenModule",
        "label": "gardenInitializedAt",
        "offset": 0,
        "slot": "117",
        "type": "t_uint256"
      },
      {
        "astId": 23636,
        "contract": "contracts/gardens/AdminGardenModule.sol:AdminGardenModule",
        "label": "pid",
        "offset": 0,
        "slot": "118",
        "type": "t_uint256"
      },
      {
        "astId": 23638,
        "contract": "contracts/gardens/AdminGardenModule.sol:AdminGardenModule",
        "label": "minContribution",
        "offset": 0,
        "slot": "119",
        "type": "t_uint256"
      },
      {
        "astId": 23640,
        "contract": "contracts/gardens/AdminGardenModule.sol:AdminGardenModule",
        "label": "minGardenTokenSupply",
        "offset": 0,
        "slot": "120",
        "type": "t_uint256"
      },
      {
        "astId": 23642,
        "contract": "contracts/gardens/AdminGardenModule.sol:AdminGardenModule",
        "label": "totalStake",
        "offset": 0,
        "slot": "121",
        "type": "t_uint256"
      },
      {
        "astId": 23644,
        "contract": "contracts/gardens/AdminGardenModule.sol:AdminGardenModule",
        "label": "minVotesQuorum",
        "offset": 0,
        "slot": "122",
        "type": "t_uint256"
      },
      {
        "astId": 23646,
        "contract": "contracts/gardens/AdminGardenModule.sol:AdminGardenModule",
        "label": "minVoters",
        "offset": 0,
        "slot": "123",
        "type": "t_uint256"
      },
      {
        "astId": 23648,
        "contract": "contracts/gardens/AdminGardenModule.sol:AdminGardenModule",
        "label": "minStrategyDuration",
        "offset": 0,
        "slot": "124",
        "type": "t_uint256"
      },
      {
        "astId": 23650,
        "contract": "contracts/gardens/AdminGardenModule.sol:AdminGardenModule",
        "label": "maxStrategyDuration",
        "offset": 0,
        "slot": "125",
        "type": "t_uint256"
      },
      {
        "astId": 23652,
        "contract": "contracts/gardens/AdminGardenModule.sol:AdminGardenModule",
        "label": "strategyCooldownPeriod",
        "offset": 0,
        "slot": "126",
        "type": "t_uint256"
      },
      {
        "astId": 23655,
        "contract": "contracts/gardens/AdminGardenModule.sol:AdminGardenModule",
        "label": "strategies",
        "offset": 0,
        "slot": "127",
        "type": "t_array(t_address)dyn_storage"
      },
      {
        "astId": 23658,
        "contract": "contracts/gardens/AdminGardenModule.sol:AdminGardenModule",
        "label": "finalizedStrategies",
        "offset": 0,
        "slot": "128",
        "type": "t_array(t_address)dyn_storage"
      },
      {
        "astId": 23662,
        "contract": "contracts/gardens/AdminGardenModule.sol:AdminGardenModule",
        "label": "strategyMapping",
        "offset": 0,
        "slot": "129",
        "type": "t_mapping(t_address,t_bool)"
      },
      {
        "astId": 23666,
        "contract": "contracts/gardens/AdminGardenModule.sol:AdminGardenModule",
        "label": "isGardenStrategy",
        "offset": 0,
        "slot": "130",
        "type": "t_mapping(t_address,t_bool)"
      },
      {
        "astId": 23668,
        "contract": "contracts/gardens/AdminGardenModule.sol:AdminGardenModule",
        "label": "keeperDebt",
        "offset": 0,
        "slot": "131",
        "type": "t_uint256"
      },
      {
        "astId": 23670,
        "contract": "contracts/gardens/AdminGardenModule.sol:AdminGardenModule",
        "label": "totalKeeperFees",
        "offset": 0,
        "slot": "132",
        "type": "t_uint256"
      },
      {
        "astId": 23672,
        "contract": "contracts/gardens/AdminGardenModule.sol:AdminGardenModule",
        "label": "publicStrategists",
        "offset": 0,
        "slot": "133",
        "type": "t_bool"
      },
      {
        "astId": 23674,
        "contract": "contracts/gardens/AdminGardenModule.sol:AdminGardenModule",
        "label": "publicStewards",
        "offset": 1,
        "slot": "133",
        "type": "t_bool"
      },
      {
        "astId": 23678,
        "contract": "contracts/gardens/AdminGardenModule.sol:AdminGardenModule",
        "label": "extraCreators",
        "offset": 0,
        "slot": "134",
        "type": "t_array(t_address)4_storage"
      },
      {
        "astId": 23680,
        "contract": "contracts/gardens/AdminGardenModule.sol:AdminGardenModule",
        "label": "lastPricePerShare",
        "offset": 0,
        "slot": "138",
        "type": "t_uint256"
      },
      {
        "astId": 23682,
        "contract": "contracts/gardens/AdminGardenModule.sol:AdminGardenModule",
        "label": "lastPricePerShareTS",
        "offset": 0,
        "slot": "139",
        "type": "t_uint256"
      },
      {
        "astId": 23684,
        "contract": "contracts/gardens/AdminGardenModule.sol:AdminGardenModule",
        "label": "pricePerShareDecayRate",
        "offset": 0,
        "slot": "140",
        "type": "t_uint256"
      },
      {
        "astId": 23686,
        "contract": "contracts/gardens/AdminGardenModule.sol:AdminGardenModule",
        "label": "pricePerShareDelta",
        "offset": 0,
        "slot": "141",
        "type": "t_uint256"
      }
    ],
    "types": {
      "t_address": {
        "encoding": "inplace",
        "label": "address",
        "numberOfBytes": "20"
      },
      "t_array(t_address)4_storage": {
        "base": "t_address",
        "encoding": "inplace",
        "label": "address[4]",
        "numberOfBytes": "128"
      },
      "t_array(t_address)dyn_storage": {
        "base": "t_address",
        "encoding": "dynamic_array",
        "label": "address[]",
        "numberOfBytes": "32"
      },
      "t_array(t_uint256)44_storage": {
        "base": "t_uint256",
        "encoding": "inplace",
        "label": "uint256[44]",
        "numberOfBytes": "1408"
      },
      "t_array(t_uint256)50_storage": {
        "base": "t_uint256",
        "encoding": "inplace",
        "label": "uint256[50]",
        "numberOfBytes": "1600"
      },
      "t_bool": {
        "encoding": "inplace",
        "label": "bool",
        "numberOfBytes": "1"
      },
      "t_contract(IBabController)41441": {
        "encoding": "inplace",
        "label": "contract IBabController",
        "numberOfBytes": "20"
      },
      "t_contract(IRewardsDistributor)43217": {
        "encoding": "inplace",
        "label": "contract IRewardsDistributor",
        "numberOfBytes": "20"
      },
      "t_int256": {
        "encoding": "inplace",
        "label": "int256",
        "numberOfBytes": "32"
      },
      "t_mapping(t_address,t_bool)": {
        "encoding": "mapping",
        "key": "t_address",
        "label": "mapping(address => bool)",
        "numberOfBytes": "32",
        "value": "t_bool"
      },
      "t_mapping(t_address,t_mapping(t_address,t_uint256))": {
        "encoding": "mapping",
        "key": "t_address",
        "label": "mapping(address => mapping(address => uint256))",
        "numberOfBytes": "32",
        "value": "t_mapping(t_address,t_uint256)"
      },
      "t_mapping(t_address,t_struct(Contributor)23596_storage)": {
        "encoding": "mapping",
        "key": "t_address",
        "label": "mapping(address => struct BaseGardenModule.Contributor)",
        "numberOfBytes": "32",
        "value": "t_struct(Contributor)23596_storage"
      },
      "t_mapping(t_address,t_uint256)": {
        "encoding": "mapping",
        "key": "t_address",
        "label": "mapping(address => uint256)",
        "numberOfBytes": "32",
        "value": "t_uint256"
      },
      "t_string_storage": {
        "encoding": "bytes",
        "label": "string",
        "numberOfBytes": "32"
      },
      "t_struct(Contributor)23596_storage": {
        "encoding": "inplace",
        "label": "struct BaseGardenModule.Contributor",
        "members": [
          {
            "astId": 23581,
            "contract": "contracts/gardens/AdminGardenModule.sol:AdminGardenModule",
            "label": "lastDepositAt",
            "offset": 0,
            "slot": "0",
            "type": "t_uint256"
          },
          {
            "astId": 23583,
            "contract": "contracts/gardens/AdminGardenModule.sol:AdminGardenModule",
            "label": "initialDepositAt",
            "offset": 0,
            "slot": "1",
            "type": "t_uint256"
          },
          {
            "astId": 23585,
            "contract": "contracts/gardens/AdminGardenModule.sol:AdminGardenModule",
            "label": "claimedAt",
            "offset": 0,
            "slot": "2",
            "type": "t_uint256"
          },
          {
            "astId": 23587,
            "contract": "contracts/gardens/AdminGardenModule.sol:AdminGardenModule",
            "label": "claimedBABL",
            "offset": 0,
            "slot": "3",
            "type": "t_uint256"
          },
          {
            "astId": 23589,
            "contract": "contracts/gardens/AdminGardenModule.sol:AdminGardenModule",
            "label": "claimedRewards",
            "offset": 0,
            "slot": "4",
            "type": "t_uint256"
          },
          {
            "astId": 23591,
            "contract": "contracts/gardens/AdminGardenModule.sol:AdminGardenModule",
            "label": "withdrawnSince",
            "offset": 0,
            "slot": "5",
            "type": "t_uint256"
          },
          {
            "astId": 23593,
            "contract": "contracts/gardens/AdminGardenModule.sol:AdminGardenModule",
            "label": "totalDeposits",
            "offset": 0,
            "slot": "6",
            "type": "t_uint256"
          },
          {
            "astId": 23595,
            "contract": "contracts/gardens/AdminGardenModule.sol:AdminGardenModule",
            "label": "nonce",
            "offset": 0,
            "slot": "7",
            "type": "t_uint256"
          }
        ],
        "numberOfBytes": "256"
      },
      "t_uint256": {
        "encoding": "inplace",
        "label": "uint256",
        "numberOfBytes": "32"
      },
      "t_uint8": {
        "encoding": "inplace",
        "label": "uint8",
        "numberOfBytes": "1"
      }
    }
  }
}