{
  "address": "0x694D3F149525a26FeAba948E5038b4467EbdAF5F",
  "abi": [
    {
      "inputs": [
        {
          "internalType": "contract IBabController",
          "name": "_controller",
          "type": "address"
        },
        {
          "internalType": "contract IAladdinCRV",
          "name": "_aladdinCRV",
          "type": "address"
        },
        {
          "internalType": "contract IAladdinConvexVault",
          "name": "_aladdinConvexVault",
          "type": "address"
        }
      ],
      "stateMutability": "nonpayable",
      "type": "constructor"
    },
    {
      "anonymous": false,
      "inputs": [
        {
          "indexed": true,
          "internalType": "address",
          "name": "garden",
          "type": "address"
        },
        {
          "indexed": true,
          "internalType": "address",
          "name": "strategy",
          "type": "address"
        },
        {
          "indexed": true,
          "internalType": "address",
          "name": "investment",
          "type": "address"
        },
        {
          "indexed": false,
          "internalType": "address",
          "name": "tokenIn",
          "type": "address"
        },
        {
          "indexed": false,
          "internalType": "uint256",
          "name": "investmentTokensOut",
          "type": "uint256"
        }
      ],
      "name": "InvestmentEntered",
      "type": "event"
    },
    {
      "anonymous": false,
      "inputs": [
        {
          "indexed": true,
          "internalType": "address",
          "name": "garden",
          "type": "address"
        },
        {
          "indexed": true,
          "internalType": "address",
          "name": "strategy",
          "type": "address"
        },
        {
          "indexed": true,
          "internalType": "address",
          "name": "investment",
          "type": "address"
        },
        {
          "indexed": false,
          "internalType": "uint256",
          "name": "investmentTokensOut",
          "type": "uint256"
        }
      ],
      "name": "InvestmentExited",
      "type": "event"
    },
    {
      "inputs": [],
      "name": "aladdinCRV",
      "outputs": [
        {
          "internalType": "contract IAladdinCRV",
          "name": "",
          "type": "address"
        }
      ],
      "stateMutability": "view",
      "type": "function"
    },
    {
      "inputs": [],
      "name": "aladdinConvexVault",
      "outputs": [
        {
          "internalType": "contract IAladdinConvexVault",
          "name": "",
          "type": "address"
        }
      ],
      "stateMutability": "view",
      "type": "function"
    },
    {
      "inputs": [
        {
          "internalType": "uint256",
          "name": "",
          "type": "uint256"
        }
      ],
      "name": "aladdinList",
      "outputs": [
        {
          "internalType": "address",
          "name": "",
          "type": "address"
        }
      ],
      "stateMutability": "view",
      "type": "function"
    },
    {
      "inputs": [
        {
          "internalType": "address",
          "name": "",
          "type": "address"
        }
      ],
      "name": "aladdinPools",
      "outputs": [
        {
          "internalType": "bool",
          "name": "",
          "type": "bool"
        }
      ],
      "stateMutability": "view",
      "type": "function"
    },
    {
      "inputs": [],
      "name": "controller",
      "outputs": [
        {
          "internalType": "contract IBabController",
          "name": "",
          "type": "address"
        }
      ],
      "stateMutability": "view",
      "type": "function"
    },
    {
      "inputs": [
        {
          "internalType": "address",
          "name": "_strategy",
          "type": "address"
        },
        {
          "internalType": "address",
          "name": "_investmentAddress",
          "type": "address"
        },
        {
          "internalType": "uint256",
          "name": "_investmentTokensOut",
          "type": "uint256"
        },
        {
          "internalType": "address",
          "name": "_tokenIn",
          "type": "address"
        },
        {
          "internalType": "uint256",
          "name": "_maxAmountIn",
          "type": "uint256"
        }
      ],
      "name": "enterInvestment",
      "outputs": [],
      "stateMutability": "nonpayable",
      "type": "function"
    },
    {
      "inputs": [
        {
          "internalType": "address",
          "name": "_strategy",
          "type": "address"
        },
        {
          "internalType": "address",
          "name": "_investmentAddress",
          "type": "address"
        },
        {
          "internalType": "uint256",
          "name": "_investmentTokenIn",
          "type": "uint256"
        },
        {
          "internalType": "address",
          "name": "_tokenOut",
          "type": "address"
        },
        {
          "internalType": "uint256",
          "name": "_minAmountOut",
          "type": "uint256"
        }
      ],
      "name": "exitInvestment",
      "outputs": [],
      "stateMutability": "nonpayable",
      "type": "function"
    },
    {
      "inputs": [
        {
          "internalType": "address",
          "name": "_investmentAddress",
          "type": "address"
        }
      ],
      "name": "getInvestmentAsset",
      "outputs": [
        {
          "internalType": "address",
          "name": "",
          "type": "address"
        }
      ],
      "stateMutability": "view",
      "type": "function"
    },
    {
      "inputs": [
        {
          "internalType": "address",
          "name": "_asset",
          "type": "address"
        }
      ],
      "name": "getPid",
      "outputs": [
        {
          "internalType": "bool",
          "name": "",
          "type": "bool"
        },
        {
          "internalType": "uint256",
          "name": "",
          "type": "uint256"
        }
      ],
      "stateMutability": "view",
      "type": "function"
    },
    {
      "inputs": [
        {
          "internalType": "address",
          "name": "_investmentAddress",
          "type": "address"
        }
      ],
      "name": "getResultAsset",
      "outputs": [
        {
          "internalType": "address",
          "name": "",
          "type": "address"
        }
      ],
      "stateMutability": "view",
      "type": "function"
    },
    {
      "inputs": [
        {
          "internalType": "address",
          "name": "_strategy",
          "type": "address"
        },
        {
          "internalType": "address",
          "name": "_resultAssetAddress",
          "type": "address"
        }
      ],
      "name": "getResultBalance",
      "outputs": [
        {
          "internalType": "uint256",
          "name": "",
          "type": "uint256"
        }
      ],
      "stateMutability": "view",
      "type": "function"
    },
    {
      "inputs": [
        {
          "internalType": "address",
          "name": "_strategy",
          "type": "address"
        },
        {
          "internalType": "address",
          "name": "_investmentAddress",
          "type": "address"
        }
      ],
      "name": "getRewards",
      "outputs": [
        {
          "internalType": "address",
          "name": "",
          "type": "address"
        },
        {
          "internalType": "uint256",
          "name": "",
          "type": "uint256"
        }
      ],
      "stateMutability": "view",
      "type": "function"
    },
    {
      "inputs": [],
      "name": "name",
      "outputs": [
        {
          "internalType": "string",
          "name": "",
          "type": "string"
        }
      ],
      "stateMutability": "view",
      "type": "function"
    },
    {
      "inputs": [
        {
          "internalType": "address",
          "name": "_strategy",
          "type": "address"
        },
        {
          "internalType": "bytes",
          "name": "_data",
          "type": "bytes"
        }
      ],
      "name": "needsUnlockSignal",
      "outputs": [
        {
          "internalType": "bool",
          "name": "",
          "type": "bool"
        }
      ],
      "stateMutability": "view",
      "type": "function"
    },
    {
      "inputs": [
        {
          "internalType": "address",
          "name": "_strategy",
          "type": "address"
        },
        {
          "internalType": "bytes",
          "name": "_data",
          "type": "bytes"
        }
      ],
      "name": "signalUnlock",
      "outputs": [],
      "stateMutability": "nonpayable",
      "type": "function"
    },
    {
      "inputs": [],
      "name": "updateCache",
      "outputs": [],
      "stateMutability": "nonpayable",
      "type": "function"
    }
  ],
  "transactionHash": "0xa516bdb8f600b2a8200098657985240b11177c6a5f78d32726f62a7c8680d146",
  "args": [
    "0xD4a5b5fcB561dAF3aDF86F8477555B92FBa43b5F",
    "0x2b95A1Dcc3D405535f9ed33c219ab38E8d7e0884",
    "0xc8fF37F7d057dF1BB9Ad681b53Fa4726f268E0e8"
  ],
  "numDeployments": 1,
  "solcInputHash": "1fc0761e8252e23a98ec5ddcb26779bb",
  "bytecode": "0x60c060405260006004553480156200001657600080fd5b5060405162003bf438038062003bf48339810160408190526200003991620003c6565b60408051808201909152601481527f616c616464696e5f636f6e63656e747261746f7200000000000000000000000060208201528381816001600160a01b038116620000cc576040805162461bcd60e51b815260206004820152601a60248201527f436f6e74726f6c6c6572206d75737420626520646566696e6564000000000000604482015290519081900360640190fd5b8151620000e1906000906020850190620002ec565b50606090811b6001600160601b0319908116608052600180559086901b1660a0525050600280546001600160a01b0319166001600160a01b038416179055506200012a62000133565b50505062000510565b6002546040805163040f1f6d60e11b815290516000926001600160a01b03169163081e3eda916004808301926020929190829003018186803b1580156200017957600080fd5b505afa1580156200018e573d6000803e3d6000fd5b505050506040513d601f19601f82011682018060405250810190620001b49190620004d5565b90508060045410620001c75750620002ea565b6004545b81811015620002e557600254604051631526fe2760e01b81526000916001600160a01b031690631526fe279062000207908590600401620004ee565b6101606040518083038186803b1580156200022157600080fd5b505afa15801562000236573d6000803e3d6000fd5b505050506040513d601f19601f820116820180604052508101906200025c919062000419565b5050506001600160a01b03909316600081815260036020908152604080832060019d8e019081905560059092528220805460ff19168d179055600680549c8d0181559091527ff652222313e28459528d920b65115c16c04f3efc82aaedc97be59f3f377c0d3f909a0180546001600160a01b031916909117905550620001cb9650505050505050565b506004555b565b828054600181600116156101000203166002900490600052602060002090601f0160209004810192826200032457600085556200036f565b82601f106200033f57805160ff19168380011785556200036f565b828001600101855582156200036f579182015b828111156200036f57825182559160200191906001019062000352565b506200037d92915062000381565b5090565b5b808211156200037d576000815560010162000382565b80518015158114620003a957600080fd5b919050565b80516001600160801b0381168114620003a957600080fd5b600080600060608486031215620003db578283fd5b8351620003e881620004f7565b6020850151909350620003fb81620004f7565b60408501519092506200040e81620004f7565b809150509250925092565b60008060008060008060008060008060006101608c8e0312156200043b578687fd5b620004468c620003ae565b9a506200045660208d01620003ae565b995060408c0151985060608c0151975060808c01516200047681620004f7565b60a08d01519097506200048981620004f7565b8096505060c08c0151945060e08c015193506101008c01519250620004b26101208d0162000398565b9150620004c36101408d0162000398565b90509295989b509295989b9093969950565b600060208284031215620004e7578081fd5b5051919050565b90815260200190565b6001600160a01b03811681146200050d57600080fd5b50565b60805160601c60a05160601c61368d62000567600039806104c352806122d752806124fb52806126cc5280612a8e5280612daa5280612e1252508061058e52806110965280611c4452806120bd525061368d6000f3fe608060405234801561001057600080fd5b50600436106101005760003560e01c806391122e4611610097578063d6e5acb011610066578063d6e5acb014610216578063f01fbcc714610236578063f337f6301461023e578063f77c47911461025157610100565b806391122e46146101ca578063976a99be146101dd578063c7eb7846146101f0578063d64bd2981461020357610100565b806360320903116100d35780636032090314610179578063779bcb9b146101815780637b082a74146101a2578063871be911146101b557610100565b806306fdde031461010557806343b55f351461012357806355f974e2146101445780635a59833714610159575b600080fd5b61010d610259565b60405161011a9190613478565b60405180910390f35b610136610131366004613172565b6102e7565b60405161011a929190613468565b61014c61049d565b60405161011a91906133f9565b61016c610167366004613172565b6104ac565b60405161011a919061345d565b61014c6104c1565b61019461018f36600461318e565b6104e5565b60405161011a92919061340d565b61014c6101b0366004613172565b6104fe565b6101c86101c33660046131c6565b610511565b005b61016c6101d8366004613220565b611002565b6101c86101eb3660046131c6565b611019565b61014c6101fe36600461338a565b611b9d565b6101c8610211366004613220565b611bc7565b61022961022436600461318e565b611ed8565b60405161011a9190613502565b6101c8611eed565b61014c61024c366004613172565b6120b0565b61014c6120bb565b6000805460408051602060026001851615610100026000190190941693909304601f810184900484028201840190925281815292918301828280156102df5780601f106102b4576101008083540402835291602001916102df565b820191906000526020600020905b8154815290600101906020018083116102c257829003601f168201915b505050505081565b6001600160a01b03811660009081526003602052604081205481901561032e5750506001600160a01b03811660009081526003602052604090205460019060001901610498565b6002546040805163040f1f6d60e11b815290516000926001600160a01b03169163081e3eda916004808301926020929190829003018186803b15801561037357600080fd5b505afa158015610387573d6000803e3d6000fd5b505050506040513d601f19601f820116820180604052508101906103ab91906133a2565b905080600454106103c3576000809250925050610498565b6004545b8181101561048e57600254604051631526fe2760e01b81526000916001600160a01b031690631526fe2790610400908590600401613502565b6101606040518083038186803b15801561041957600080fd5b505afa15801561042d573d6000803e3d6000fd5b505050506040513d601f19601f8201168201806040525081019061045191906132db565b505050505050945050505050856001600160a01b0316816001600160a01b0316141561048557506001935091506104989050565b506001016103c7565b5060008092509250505b915091565b6002546001600160a01b031681565b60056020526000908152604090205460ff1681565b7f000000000000000000000000000000000000000000000000000000000000000081565b6000806104f284846120df565b915091505b9250929050565b6000610509826122ad565b90505b919050565b60026001541415610569576040805162461bcd60e51b815260206004820152601f60248201527f5265656e7472616e637947756172643a207265656e7472616e742063616c6c00604482015290519081900360640190fd5b6002600155604080516313bc6d4b60e01b815233600482015290516001600160a01b037f000000000000000000000000000000000000000000000000000000000000000016916313bc6d4b916024808301926020929190829003018186803b1580156105d457600080fd5b505afa1580156105e8573d6000803e3d6000fd5b505050506040513d60208110156105fe57600080fd5b5051610651576040805162461bcd60e51b815260206004820152601960248201527f4f6e6c792073797374656d2063616e2063616c6c207468697300000000000000604482015290519081900360640190fd5b600061066086868686866122ff565b905061066b816123e3565b600080600061067d8989896001612470565b919450925090506001600160a01b03831615610a0557600061069e8961248b565b90506001600160a01b038116156107ca5784516001600160a01b03166397ccdc606106ca8b6001612491565b83846001600160a01b03166370a082318f6040518263ffffffff1660e01b815260040180826001600160a01b0316815260200191505060206040518083038186803b15801561071857600080fd5b505afa15801561072c573d6000803e3d6000fd5b505050506040513d602081101561074257600080fd5b5051604080517fffffffff0000000000000000000000000000000000000000000000000000000060e087901b1681526001600160a01b03948516600482015292909316602483015260448201529051606480830192600092919082900301818387803b1580156107b157600080fd5b505af11580156107c5573d6000803e3d6000fd5b505050505b84600001516001600160a01b0316636bc195dd8585856040518463ffffffff1660e01b815260040180846001600160a01b0316815260200183815260200180602001828103825283818151815260200191508051906020019080838360005b83811015610841578181015183820152602001610829565b50505050905090810190601f16801561086e5780820380516001836020036101000a031916815260200191505b50945050505050600060405180830381600087803b15801561088f57600080fd5b505af11580156108a3573d6000803e3d6000fd5b505050506040513d6000823e601f3d908101601f1916820160405260208110156108cc57600080fd5b81019080805160405193929190846401000000008211156108ec57600080fd5b90830190602082018581111561090157600080fd5b825164010000000081118282018810171561091b57600080fd5b82525081516020918201929091019080838360005b83811015610948578181015183820152602001610930565b50505050905090810190601f1680156109755780820380516001836020036101000a031916815260200191505b506040525050505061098689612532565b9850886001600160a01b03166370a082318b6040518263ffffffff1660e01b815260040180826001600160a01b0316815260200191505060206040518083038186803b1580156109d557600080fd5b505afa1580156109e9573d6000803e3d6000fd5b505050506040513d60208110156109ff57600080fd5b50519750505b610a10886001612491565b6001600160a01b0316610a22896122ad565b6001600160a01b031614610abc5783516001600160a01b03166397ccdc60610a4b8a6001612491565b8a8a6040518463ffffffff1660e01b815260040180846001600160a01b03168152602001836001600160a01b031681526020018281526020019350505050600060405180830381600087803b158015610aa357600080fd5b505af1158015610ab7573d6000803e3d6000fd5b505050505b6000806000610ace8c8c8c8c8c612535565b92509250925086600001516001600160a01b0316636bc195dd8484846040518463ffffffff1660e01b815260040180846001600160a01b0316815260200183815260200180602001828103825283818151815260200191508051906020019080838360005b83811015610b4b578181015183820152602001610b33565b50505050905090810190601f168015610b785780820380516001836020036101000a031916815260200191505b50945050505050600060405180830381600087803b158015610b9957600080fd5b505af1158015610bad573d6000803e3d6000fd5b505050506040513d6000823e601f3d908101601f191682016040526020811015610bd657600080fd5b8101908080516040519392919084640100000000821115610bf657600080fd5b908301906020820185811115610c0b57600080fd5b8251640100000000811182820188101715610c2557600080fd5b82525081516020918201929091019080838360005b83811015610c52578181015183820152602001610c3a565b50505050905090810190601f168015610c7f5780820380516001836020036101000a031916815260200191505b5060405250505050610c948c8c8c6001612470565b919750955093506001600160a01b03861615610f86576000610cb58c61248b565b90506001600160a01b03811615610dd1576000816001600160a01b03166370a082318f6040518263ffffffff1660e01b815260040180826001600160a01b0316815260200191505060206040518083038186803b158015610d1557600080fd5b505afa158015610d29573d6000803e3d6000fd5b505050506040513d6020811015610d3f57600080fd5b505189519091506001600160a01b03166397ccdc60610d5f8f6001612491565b84846040518463ffffffff1660e01b815260040180846001600160a01b03168152602001836001600160a01b031681526020018281526020019350505050600060405180830381600087803b158015610db757600080fd5b505af1158015610dcb573d6000803e3d6000fd5b50505050505b87600001516001600160a01b0316636bc195dd8888886040518463ffffffff1660e01b815260040180846001600160a01b0316815260200183815260200180602001828103825283818151815260200191508051906020019080838360005b83811015610e48578181015183820152602001610e30565b50505050905090810190601f168015610e755780820380516001836020036101000a031916815260200191505b50945050505050600060405180830381600087803b158015610e9657600080fd5b505af1158015610eaa573d6000803e3d6000fd5b505050506040513d6000823e601f3d908101601f191682016040526020811015610ed357600080fd5b8101908080516040519392919084640100000000821115610ef357600080fd5b908301906020820185811115610f0857600080fd5b8251640100000000811182820188101715610f2257600080fd5b82525081516020918201929091019080838360005b83811015610f4f578181015183820152602001610f37565b50505050905090810190601f168015610f7c5780820380516001836020036101000a031916815260200191505b5060405250505050505b610f8f8761275e565b86604001516001600160a01b031687600001516001600160a01b031688602001516001600160a01b03167f99d773709d80de3e15433c22c381fd8e3b82a68b56322240ff4a304956ef0e528d6040518082815260200191505060405180910390a450506001805550505050505050505050565b600061100f8484846127bb565b90505b9392505050565b60026001541415611071576040805162461bcd60e51b815260206004820152601f60248201527f5265656e7472616e637947756172643a207265656e7472616e742063616c6c00604482015290519081900360640190fd5b6002600155604080516313bc6d4b60e01b815233600482015290516001600160a01b037f000000000000000000000000000000000000000000000000000000000000000016916313bc6d4b916024808301926020929190829003018186803b1580156110dc57600080fd5b505afa1580156110f0573d6000803e3d6000fd5b505050506040513d602081101561110657600080fd5b5051611159576040805162461bcd60e51b815260206004820152601960248201527f4f6e6c792073797374656d2063616e2063616c6c207468697300000000000000604482015290519081900360640190fd5b600061116886868686866122ff565b9050611173816128b0565b60008060006111858989876000612470565b919450925090506001600160a01b038316156114775760006111a68961248b565b90506001600160a01b038116156112c2576000816001600160a01b03166370a082318c6040518263ffffffff1660e01b815260040180826001600160a01b0316815260200191505060206040518083038186803b15801561120657600080fd5b505afa15801561121a573d6000803e3d6000fd5b505050506040513d602081101561123057600080fd5b505186519091506001600160a01b03166397ccdc606112508c6000612491565b84846040518463ffffffff1660e01b815260040180846001600160a01b03168152602001836001600160a01b031681526020018281526020019350505050600060405180830381600087803b1580156112a857600080fd5b505af11580156112bc573d6000803e3d6000fd5b50505050505b84600001516001600160a01b0316636bc195dd8585856040518463ffffffff1660e01b815260040180846001600160a01b0316815260200183815260200180602001828103825283818151815260200191508051906020019080838360005b83811015611339578181015183820152602001611321565b50505050905090810190601f1680156113665780820380516001836020036101000a031916815260200191505b50945050505050600060405180830381600087803b15801561138757600080fd5b505af115801561139b573d6000803e3d6000fd5b505050506040513d6000823e601f3d908101601f1916820160405260208110156113c457600080fd5b81019080805160405193929190846401000000008211156113e457600080fd5b9083019060208201858111156113f957600080fd5b825164010000000081118282018810171561141357600080fd5b82525081516020918201929091019080838360005b83811015611440578181015183820152602001611428565b50505050905090810190601f16801561146d5780820380516001836020036101000a031916815260200191505b5060405250505050505b6001600160a01b0386161561164a5783516001600160a01b03166397ccdc606114a18a6000612491565b88886040518463ffffffff1660e01b815260040180846001600160a01b03168152602001836001600160a01b031681526020018281526020019350505050600060405180830381600087803b1580156114f957600080fd5b505af115801561150d573d6000803e3d6000fd5b50505050600061151c8961248b565b90506001600160a01b038116156116485784516001600160a01b03166397ccdc606115488b6000612491565b83846001600160a01b03166370a082318f6040518263ffffffff1660e01b815260040180826001600160a01b0316815260200191505060206040518083038186803b15801561159657600080fd5b505afa1580156115aa573d6000803e3d6000fd5b505050506040513d60208110156115c057600080fd5b5051604080517fffffffff0000000000000000000000000000000000000000000000000000000060e087901b1681526001600160a01b03948516600482015292909316602483015260448201529051606480830192600092919082900301818387803b15801561162f57600080fd5b505af1158015611643573d6000803e3d6000fd5b505050505b505b600080600061165c8c8c8c8c8c6128f3565b92509250925086600001516001600160a01b0316636bc195dd8484846040518463ffffffff1660e01b815260040180846001600160a01b0316815260200183815260200180602001828103825283818151815260200191508051906020019080838360005b838110156116d95781810151838201526020016116c1565b50505050905090810190601f1680156117065780820380516001836020036101000a031916815260200191505b50945050505050600060405180830381600087803b15801561172757600080fd5b505af115801561173b573d6000803e3d6000fd5b505050506040513d6000823e601f3d908101601f19168201604052602081101561176457600080fd5b810190808051604051939291908464010000000082111561178457600080fd5b90830190602082018581111561179957600080fd5b82516401000000008111828201881017156117b357600080fd5b82525081516020918201929091019080838360005b838110156117e05781810151838201526020016117c8565b50505050905090810190601f16801561180d5780820380516001836020036101000a031916815260200191505b50604052505050506118228c8c8c6000612470565b919750955093506001600160a01b03861615611b145760006118438c61248b565b90506001600160a01b0381161561195f576000816001600160a01b03166370a082318f6040518263ffffffff1660e01b815260040180826001600160a01b0316815260200191505060206040518083038186803b1580156118a357600080fd5b505afa1580156118b7573d6000803e3d6000fd5b505050506040513d60208110156118cd57600080fd5b505189519091506001600160a01b03166397ccdc606118ed8f6001612491565b84846040518463ffffffff1660e01b815260040180846001600160a01b03168152602001836001600160a01b031681526020018281526020019350505050600060405180830381600087803b15801561194557600080fd5b505af1158015611959573d6000803e3d6000fd5b50505050505b87600001516001600160a01b0316636bc195dd8888886040518463ffffffff1660e01b815260040180846001600160a01b0316815260200183815260200180602001828103825283818151815260200191508051906020019080838360005b838110156119d65781810151838201526020016119be565b50505050905090810190601f168015611a035780820380516001836020036101000a031916815260200191505b50945050505050600060405180830381600087803b158015611a2457600080fd5b505af1158015611a38573d6000803e3d6000fd5b505050506040513d6000823e601f3d908101601f191682016040526020811015611a6157600080fd5b8101908080516040519392919084640100000000821115611a8157600080fd5b908301906020820185811115611a9657600080fd5b8251640100000000811182820188101715611ab057600080fd5b82525081516020918201929091019080838360005b83811015611add578181015183820152602001611ac5565b50505050905090810190601f168015611b0a5780820380516001836020036101000a031916815260200191505b5060405250505050505b611b1d87612b1a565b8a6001600160a01b031687600001516001600160a01b031688602001516001600160a01b03167fdc0718d28ea0f80518c2c454af93bc46bf51dd4a1b25a048ca4ca75a7ac359c48c8e60405180836001600160a01b031681526020018281526020019250505060405180910390a450506001805550505050505050505050565b60068181548110611bad57600080fd5b6000918252602090912001546001600160a01b0316905081565b60026001541415611c1f576040805162461bcd60e51b815260206004820152601f60248201527f5265656e7472616e637947756172643a207265656e7472616e742063616c6c00604482015290519081900360640190fd5b6002600155604080516313bc6d4b60e01b815233600482015290516001600160a01b037f000000000000000000000000000000000000000000000000000000000000000016916313bc6d4b916024808301926020929190829003018186803b158015611c8a57600080fd5b505afa158015611c9e573d6000803e3d6000fd5b505050506040513d6020811015611cb457600080fd5b5051611d07576040805162461bcd60e51b815260206004820152601960248201527f4f6e6c792073797374656d2063616e2063616c6c207468697300000000000000604482015290519081900360640190fd5b6000806000611d17868686612b6e565b925092509250856001600160a01b0316636bc195dd8484846040518463ffffffff1660e01b815260040180846001600160a01b0316815260200183815260200180602001828103825283818151815260200191508051906020019080838360005b83811015611d90578181015183820152602001611d78565b50505050905090810190601f168015611dbd5780820380516001836020036101000a031916815260200191505b50945050505050600060405180830381600087803b158015611dde57600080fd5b505af1158015611df2573d6000803e3d6000fd5b505050506040513d6000823e601f3d908101601f191682016040526020811015611e1b57600080fd5b8101908080516040519392919084640100000000821115611e3b57600080fd5b908301906020820185811115611e5057600080fd5b8251640100000000811182820188101715611e6a57600080fd5b82525081516020918201929091019080838360005b83811015611e97578181015183820152602001611e7f565b50505050905090810190601f168015611ec45780820380516001836020036101000a031916815260200191505b506040525050600180555050505050505050565b6000611ee48383612ce9565b90505b92915050565b6002546040805163040f1f6d60e11b815290516000926001600160a01b03169163081e3eda916004808301926020929190829003018186803b158015611f3257600080fd5b505afa158015611f46573d6000803e3d6000fd5b505050506040513d601f19601f82011682018060405250810190611f6a91906133a2565b90508060045410611f7b57506120ae565b6004545b818110156120a957600254604051631526fe2760e01b81526000916001600160a01b031690631526fe2790611fb8908590600401613502565b6101606040518083038186803b158015611fd157600080fd5b505afa158015611fe5573d6000803e3d6000fd5b505050506040513d601f19601f8201168201806040525081019061200991906132db565b5050506001600160a01b03909316600081815260036020908152604080832060019d8e019081905560059092528220805460ff19168d179055600680549c8d0181559091527ff652222313e28459528d920b65115c16c04f3efc82aaedc97be59f3f377c0d3f909a0180547fffffffffffffffffffffffff000000000000000000000000000000000000000016909117905550611f7f9650505050505050565b506004555b565b600061050982612532565b7f000000000000000000000000000000000000000000000000000000000000000081565b6000806001600160a01b038316734e3fbd56cd56c3e72c1403e103b45db9da5b9d2b14156121b557604051636386c1c760e01b81526000907396c68d861ada016ed98c30c810879f9df7c6415490636386c1c7906121419088906004016133f9565b60a06040518083038186803b15801561215957600080fd5b505afa15801561216d573d6000803e3d6000fd5b505050506040513d601f19601f8201168201806040525081019061219191906133ba565b734e3fbd56cd56c3e72c1403e103b45db9da5b9d2b975095506104f7945050505050565b6001600160a01b03831673d533a949740bb3306d119cc777fa900ba034cd5214156121e5575060009050806104f7565b60006121f0846102e7565b6002546040516393f1a40b60e01b8152919350600092506001600160a01b0316906393f1a40b906122279085908a9060040161350b565b60606040518083038186803b15801561223f57600080fd5b505afa158015612253573d6000803e3d6000fd5b505050506040513d601f19601f8201168201806040525081019061227791906132a0565b5073d533a949740bb3306d119cc777fa900ba034cd5295506fffffffffffffffffffffffffffffffff1693505050509250929050565b60006001600160a01b03821673d533a949740bb3306d119cc777fa900ba034cd5214156122fb57507f000000000000000000000000000000000000000000000000000000000000000061050c565b5090565b6123076130f1565b61230f6130f1565b6001600160a01b038716808252604080517f56ba88b800000000000000000000000000000000000000000000000000000000815290516356ba88b891600480820192602092909190829003018186803b15801561236b57600080fd5b505afa15801561237f573d6000803e3d6000fd5b505050506040513d602081101561239557600080fd5b50516001600160a01b031660208201526123ae866122ad565b6001600160a01b0316604082018190526123c9908890612ce9565b608082015260608101949094525060a08301525092915050565b60008160600151116124265760405162461bcd60e51b81526004018080602001828103825260348152602001806136246034913960400191505060405180910390fd5b80606001518160800151101561246d5760405162461bcd60e51b81526004018080602001828103825260338152602001806135576033913960400191505060405180910390fd5b50565b50506040805160208101909152600080825293849350909150565b50600090565b60006001600160a01b038316734e3fbd56cd56c3e72c1403e103b45db9da5b9d2b14156124d357507396c68d861ada016ed98c30c810879f9df7c64154611ee7565b6001600160a01b03831673d533a949740bb3306d119cc777fa900ba034cd52141561251f57507f0000000000000000000000000000000000000000000000000000000000000000611ee7565b506002546001600160a01b031692915050565b90565b6000806060600080612546896102e7565b90925090506001600160a01b03891673d533a949740bb3306d119cc777fa900ba034cd52148061259257506001600160a01b038916734e3fbd56cd56c3e72c1403e103b45db9da5b9d2b145b8061259a5750815b6125bf5760405162461bcd60e51b81526004016125b6906134cb565b60405180910390fd5b600081898860036040516024016125d99493929190613522565b60408051601f198184030181529190526020810180516001600160e01b03167f995bca01000000000000000000000000000000000000000000000000000000001790526002549091506001600160a01b03908116908b16734e3fbd56cd56c3e72c1403e103b45db9da5b9d2b14156126a55750506040805160048152602481019091526020810180516001600160e01b03167f6fcd112b000000000000000000000000000000000000000000000000000000001790527396c68d861ada016ed98c30c810879f9df7c641545b6001600160a01b038b1673d533a949740bb3306d119cc777fa900ba034cd52141561274b577f000000000000000000000000000000000000000000000000000000000000000090508b8a8960026040516024016127059493929190613426565b60408051601f198184030181529190526020810180516001600160e01b03167f15980d890000000000000000000000000000000000000000000000000000000017905291505b9b60009b50909950975050505050505050565b806060015181608001510360640161277e82600001518360400151612ce9565b111561246d5760405162461bcd60e51b81526004018080602001828103825260318152602001806135bc6031913960400191505060405180910390fd5b6000806127c88484612f4d565b90506001600160a01b038116734e3fbd56cd56c3e72c1403e103b45db9da5b9d2b146127f8576000915050611012565b604051636386c1c760e01b815260009081907396c68d861ada016ed98c30c810879f9df7c6415490636386c1c790612834908a906004016133f9565b60a06040518083038186803b15801561284c57600080fd5b505afa158015612860573d6000803e3d6000fd5b505050506040513d601f19601f8201168201806040525081019061288491906133ba565b5050509150915080821180156128a5575062a0d7006128a288612f71565b11155b979650505050505050565b600081606001511161246d5760405162461bcd60e51b81526004018080602001828103825260378152602001806135ed6037913960400191505060405180910390fd5b6000806060600080612904896102e7565b90925090506001600160a01b03891673d533a949740bb3306d119cc777fa900ba034cd52148061295057506001600160a01b038916734e3fbd56cd56c3e72c1403e103b45db9da5b9d2b145b806129585750815b6129745760405162461bcd60e51b81526004016125b6906134cb565b6000816040516024016129879190613502565b60408051601f198184030181529190526020810180516001600160e01b03167fc6f678bd000000000000000000000000000000000000000000000000000000001790526002549091506001600160a01b03908116908b16734e3fbd56cd56c3e72c1403e103b45db9da5b9d2b1415612a67577396c68d861ada016ed98c30c810879f9df7c64154905087604051602401612a219190613502565b60408051601f198184030181529190526020810180516001600160e01b03167fb6b55f250000000000000000000000000000000000000000000000000000000017905291505b6001600160a01b038b1673d533a949740bb3306d119cc777fa900ba034cd52141561274b577f000000000000000000000000000000000000000000000000000000000000000090508b604051602401612ac091906133f9565b60408051601f198184030181529190526020810180516001600160e01b03167f4c4b5fd700000000000000000000000000000000000000000000000000000000179052915095506000945092505050955095509592505050565b8060800151612b3182600001518360400151612ce9565b101561246d5760405162461bcd60e51b815260040180806020018281038252603281526020018061358a6032913960400191505060405180910390fd5b60008060606000612b7f8686612f4d565b90506001600160a01b038116734e3fbd56cd56c3e72c1403e103b45db9da5b9d2b1415612cc857604051636386c1c760e01b815260009081907396c68d861ada016ed98c30c810879f9df7c6415490636386c1c790612be2908c906004016133f9565b60a06040518083038186803b158015612bfa57600080fd5b505afa158015612c0e573d6000803e3d6000fd5b505050506040513d601f19601f82011682018060405250810190612c3291906133ba565b505050915091506000612c4e82846130e190919063ffffffff16565b604051602401612c5e9190613502565b60408051601f198184030181529190526020810180516001600160e01b03167f6198e339000000000000000000000000000000000000000000000000000000001790527396c68d861ada016ed98c30c810879f9df7c641549750600096509450612ce09350505050565b50506040805160208101909152600080825292508291505b93509350939050565b60006001600160a01b038216734e3fbd56cd56c3e72c1403e103b45db9da5b9d2b1415612da857604051636386c1c760e01b81526000907396c68d861ada016ed98c30c810879f9df7c6415490636386c1c790612d4a9087906004016133f9565b60a06040518083038186803b158015612d6257600080fd5b505afa158015612d76573d6000803e3d6000fd5b505050506040513d601f19601f82011682018060405250810190612d9a91906133ba565b50929450611ee79350505050565b7f00000000000000000000000000000000000000000000000000000000000000006001600160a01b0316826001600160a01b03161415612e9e576040517f70a082310000000000000000000000000000000000000000000000000000000081526001600160a01b037f000000000000000000000000000000000000000000000000000000000000000016906370a0823190612e479086906004016133f9565b60206040518083038186803b158015612e5f57600080fd5b505afa158015612e73573d6000803e3d6000fd5b505050506040513d601f19601f82011682018060405250810190612e9791906133a2565b9050611ee7565b6000612ea9836102e7565b6002546040516393f1a40b60e01b8152919350600092506001600160a01b0316906393f1a40b90612ee0908590899060040161350b565b60606040518083038186803b158015612ef857600080fd5b505afa158015612f0c573d6000803e3d6000fd5b505050506040513d601f19601f82011682018060405250810190612f3091906132a0565b50506fffffffffffffffffffffffffffffffff1695945050505050565b600082826020811015612f5f57600080fd5b50356001600160a01b03169392505050565b6000808290506000816001600160a01b031663bf1dcfe26040518163ffffffff1660e01b815260040160e06040518083038186803b158015612fb257600080fd5b505afa158015612fc6573d6000803e3d6000fd5b505050506040513d60e0811015612fdc57600080fd5b506080015190506000612fef42836130e1565b9050826001600160a01b0316630fb5a6b46040518163ffffffff1660e01b815260040160206040518083038186803b15801561302a57600080fd5b505afa15801561303e573d6000803e3d6000fd5b505050506040513d602081101561305457600080fd5b5051811115613069576000935050505061050c565b6130d881846001600160a01b0316630fb5a6b46040518163ffffffff1660e01b815260040160206040518083038186803b1580156130a657600080fd5b505afa1580156130ba573d6000803e3d6000fd5b505050506040513d60208110156130d057600080fd5b5051906130e1565b95945050505050565b80820382811115611ee757600080fd5b6040518060c0016040528060006001600160a01b0316815260200160006001600160a01b0316815260200160006001600160a01b031681526020016000815260200160008152602001600081525090565b8051801515811461050c57600080fd5b80516fffffffffffffffffffffffffffffffff8116811461050c57600080fd5b600060208284031215613183578081fd5b813561101281613541565b600080604083850312156131a0578081fd5b82356131ab81613541565b915060208301356131bb81613541565b809150509250929050565b600080600080600060a086880312156131dd578081fd5b85356131e881613541565b945060208601356131f881613541565b935060408601359250606086013561320f81613541565b949793965091946080013592915050565b600080600060408486031215613234578283fd5b833561323f81613541565b9250602084013567ffffffffffffffff8082111561325b578384fd5b818601915086601f83011261326e578384fd5b81358181111561327c578485fd5b87602082850101111561328d578485fd5b6020830194508093505050509250925092565b6000806000606084860312156132b4578283fd5b6132bd84613152565b92506132cb60208501613152565b9150604084015190509250925092565b60008060008060008060008060008060006101608c8e0312156132fc578586fd5b6133058c613152565b9a5061331360208d01613152565b995060408c0151985060608c0151975060808c015161333181613541565b60a08d015190975061334281613541565b8096505060c08c0151945060e08c015193506101008c015192506133696101208d01613142565b91506133786101408d01613142565b90509295989b509295989b9093969950565b60006020828403121561339b578081fd5b5035919050565b6000602082840312156133b3578081fd5b5051919050565b600080600080600060a086880312156133d1578081fd5b5050835160208501516040860151606087015160809097015192989197509594509092509050565b6001600160a01b0391909116815260200190565b6001600160a01b03929092168252602082015260400190565b6001600160a01b03851681526020810184905260408101839052608081016005831061344e57fe5b82606083015295945050505050565b901515815260200190565b9115158252602082015260400190565b6000602080835283518082850152825b818110156134a457858101830151858201604001528201613488565b818111156134b55783604083870101525b50601f01601f1916929092016040019392505050565b6020808252601b908201527f416c616464696e20706f6f6c20646f6573206e6f742065786973740000000000604082015260600190565b90815260200190565b9182526001600160a01b0316602082015260400190565b8481526020810184905260408101839052608081016006831061344e57fe5b6001600160a01b038116811461246d57600080fdfe54686520737472617465677920646f6573206e6f74206861766520656e6f75676820696e766573746d656e7420746f6b656e7354686520737472617465677920646964206e6f7420726563656976652074686520696e766573746d656e7420746f6b656e7354686520737472617465677920646964206e6f742072657475726e2074686520696e766573746d656e7420746f6b656e734d696e20696e766573746d656e7420746f6b656e7320746f2072656365697665206d7573742062652067726561746572207468616e2030496e766573746d656e7420746f6b656e7320746f2065786368616e6765206d7573742062652067726561746572207468616e2030a2646970667358221220e19faa5688dc423611520dce57e55a2385f1f37a80be7194601330e1603a715864736f6c63430007060033",
  "devdoc": {
    "author": "Babylon Finance Protocol Aladdin Concentrator Integration",
    "kind": "dev",
    "methods": {
      "constructor": {
        "params": {
          "_aladdinCRV": "Address of our aladdin crv",
          "_aladdinConvexVault": "Address of our aladdin convex vault contract",
          "_controller": "Address of the controller"
        }
      },
      "enterInvestment(address,address,uint256,address,uint256)": {
        "params": {
          "_investmentAddress": "Address of the investment token to join",
          "_investmentTokensOut": "Min amount of investment tokens to receive",
          "_maxAmountIn": "Max amount of the token to deposit",
          "_strategy": "Address of the strategy",
          "_tokenIn": "Token address to deposit"
        }
      },
      "exitInvestment(address,address,uint256,address,uint256)": {
        "params": {
          "_investmentAddress": "Address of the investment token to exit",
          "_investmentTokenIn": "Quantity of investment tokens to return",
          "_minAmountOut": "Min token quantities to receive from the investment",
          "_strategy": "Address of the strategy",
          "_tokenOut": "Token address to withdraw"
        }
      },
      "getInvestmentAsset(address)": {
        "returns": {
          "_0": "address                           Returns the asset that this investment needs"
        }
      },
      "getPid(address)": {
        "params": {
          "_asset": "Address of the convex lp token"
        },
        "returns": {
          "_0": "uint256                       Pid of the pool in convex"
        }
      },
      "getResultAsset(address)": {
        "returns": {
          "_0": "address                            Returns the asset that this investment obtains"
        }
      },
      "getResultBalance(address,address)": {
        "params": {
          "_resultAssetAddress": "Result asset address",
          "_strategy": "Strategy calling"
        },
        "returns": {
          "_0": "uint256                            Returns the balance of the result asset"
        }
      },
      "getRewards(address,address)": {
        "params": {
          "_investmentAddress": "Address of the investment",
          "_strategy": "Address of the strategy"
        },
        "returns": {
          "_0": "address                            Returns the address with the token of extra rewards",
          "_1": "uint256                            Extra rewards received so far"
        }
      },
      "needsUnlockSignal(address,bytes)": {
        "params": {
          "_data": "Data param",
          "_strategy": "Address of the strategy"
        },
        "returns": {
          "_0": "bool                               True if it is needed"
        }
      },
      "signalUnlock(address,bytes)": {
        "params": {
          "_data": "Params",
          "_strategy": "Address of the strategy"
        }
      }
    },
    "title": "AladdinConcentratorIntegration",
    "version": 1
  },
  "userdoc": {
    "kind": "user",
    "methods": {
      "constructor": {
        "notice": "Creates the integration"
      },
      "enterInvestment(address,address,uint256,address,uint256)": {
        "notice": "Deposits tokens into an investment"
      },
      "exitInvestment(address,address,uint256,address,uint256)": {
        "notice": "Exits an outside passive investment"
      },
      "getInvestmentAsset(address)": {
        "notice": "Gets the asset needed to enter the investment"
      },
      "getPid(address)": {
        "notice": "Gets the PID in convex of a convex lp token"
      },
      "getResultAsset(address)": {
        "notice": "Gets the asset you obtained after entering the investment"
      },
      "getResultBalance(address,address)": {
        "notice": "Gets the balance of the asset you obtained after entering the investment"
      },
      "getRewards(address,address)": {
        "notice": "Gets the rewards and the token that they are denominated in"
      },
      "needsUnlockSignal(address,bytes)": {
        "notice": "Checks if the integration needs to execute a tx to prepare the withdrawal"
      },
      "signalUnlock(address,bytes)": {
        "notice": "Executes an unlock to prepare for withdrawal"
      },
      "updateCache()": {
        "notice": "Refreshes aladdin vaults"
      }
    },
    "version": 1
  },
  "storageLayout": {
    "storage": [
      {
        "astId": 25737,
        "contract": "contracts/integrations/passive/AladdinConcentratorIntegration.sol:AladdinConcentratorIntegration",
        "label": "name",
        "offset": 0,
        "slot": "0",
        "type": "t_string_storage"
      },
      {
        "astId": 6418,
        "contract": "contracts/integrations/passive/AladdinConcentratorIntegration.sol:AladdinConcentratorIntegration",
        "label": "_status",
        "offset": 0,
        "slot": "1",
        "type": "t_uint256"
      },
      {
        "astId": 31454,
        "contract": "contracts/integrations/passive/AladdinConcentratorIntegration.sol:AladdinConcentratorIntegration",
        "label": "aladdinConvexVault",
        "offset": 0,
        "slot": "2",
        "type": "t_contract(IAladdinConvexVault)49308"
      },
      {
        "astId": 31458,
        "contract": "contracts/integrations/passive/AladdinConcentratorIntegration.sol:AladdinConcentratorIntegration",
        "label": "cacheAladdinLpTokenToPid",
        "offset": 0,
        "slot": "3",
        "type": "t_mapping(t_address,t_uint256)"
      },
      {
        "astId": 31461,
        "contract": "contracts/integrations/passive/AladdinConcentratorIntegration.sol:AladdinConcentratorIntegration",
        "label": "elementsCached",
        "offset": 0,
        "slot": "4",
        "type": "t_uint256"
      },
      {
        "astId": 31465,
        "contract": "contracts/integrations/passive/AladdinConcentratorIntegration.sol:AladdinConcentratorIntegration",
        "label": "aladdinPools",
        "offset": 0,
        "slot": "5",
        "type": "t_mapping(t_address,t_bool)"
      },
      {
        "astId": 31468,
        "contract": "contracts/integrations/passive/AladdinConcentratorIntegration.sol:AladdinConcentratorIntegration",
        "label": "aladdinList",
        "offset": 0,
        "slot": "6",
        "type": "t_array(t_address)dyn_storage"
      }
    ],
    "types": {
      "t_address": {
        "encoding": "inplace",
        "label": "address",
        "numberOfBytes": "20"
      },
      "t_array(t_address)dyn_storage": {
        "base": "t_address",
        "encoding": "dynamic_array",
        "label": "address[]",
        "numberOfBytes": "32"
      },
      "t_bool": {
        "encoding": "inplace",
        "label": "bool",
        "numberOfBytes": "1"
      },
      "t_contract(IAladdinConvexVault)49308": {
        "encoding": "inplace",
        "label": "contract IAladdinConvexVault",
        "numberOfBytes": "20"
      },
      "t_mapping(t_address,t_bool)": {
        "encoding": "mapping",
        "key": "t_address",
        "label": "mapping(address => bool)",
        "numberOfBytes": "32",
        "value": "t_bool"
      },
      "t_mapping(t_address,t_uint256)": {
        "encoding": "mapping",
        "key": "t_address",
        "label": "mapping(address => uint256)",
        "numberOfBytes": "32",
        "value": "t_uint256"
      },
      "t_string_storage": {
        "encoding": "bytes",
        "label": "string",
        "numberOfBytes": "32"
      },
      "t_uint256": {
        "encoding": "inplace",
        "label": "uint256",
        "numberOfBytes": "32"
      }
    }
  }
}