{
  "address": "0xA646a292e54713af6A7F09227CB117de27a4E54e",
  "abi": [
    {
      "anonymous": false,
      "inputs": [
        {
          "indexed": true,
          "internalType": "address",
          "name": "previousOwner",
          "type": "address"
        },
        {
          "indexed": true,
          "internalType": "address",
          "name": "newOwner",
          "type": "address"
        }
      ],
      "name": "OwnershipTransferred",
      "type": "event"
    },
    {
      "inputs": [],
      "name": "initialize",
      "outputs": [],
      "stateMutability": "nonpayable",
      "type": "function"
    },
    {
      "inputs": [],
      "name": "owner",
      "outputs": [
        {
          "internalType": "address",
          "name": "",
          "type": "address"
        }
      ],
      "stateMutability": "view",
      "type": "function"
    },
    {
      "inputs": [],
      "name": "renounceOwnership",
      "outputs": [],
      "stateMutability": "nonpayable",
      "type": "function"
    },
    {
      "inputs": [],
      "name": "startBondingProgram",
      "outputs": [],
      "stateMutability": "nonpayable",
      "type": "function"
    },
    {
      "inputs": [
        {
          "internalType": "address",
          "name": "newOwner",
          "type": "address"
        }
      ],
      "name": "transferOwnership",
      "outputs": [],
      "stateMutability": "nonpayable",
      "type": "function"
    },
    {
      "stateMutability": "payable",
      "type": "receive"
    }
  ],
  "transactionHash": "0x6d43ccdfb19be234013838410d410b0168e3e08f150e1505aaee057f66d6648e",
  "args": [],
  "solcInputHash": "22f927791810dc6718bc30f71fa3f9d7",
  "bytecode": "0x6080604052606580546001600160a01b03191673d4a5b5fcb561daf3adf86f8477555b92fba43b5f17905534801561003657600080fd5b50610ac5806100466000396000f3fe60806040526004361061005e5760003560e01c80638129fc1c116100435780638129fc1c146100965780638da5cb5b146100ab578063f2fde38b146100d657610065565b8063715018a61461006a5780637e3ce6111461008157610065565b3661006557005b600080fd5b34801561007657600080fd5b5061007f6100f6565b005b34801561008d57600080fd5b5061007f6101c1565b3480156100a257600080fd5b5061007f61028f565b3480156100b757600080fd5b506100c0610299565b6040516100cd91906109c2565b60405180910390f35b3480156100e257600080fd5b5061007f6100f136600461098a565b6102a8565b6100fe6103ca565b6001600160a01b031661010f610299565b6001600160a01b03161461016a576040805162461bcd60e51b815260206004820181905260248201527f4f776e61626c653a2063616c6c6572206973206e6f7420746865206f776e6572604482015290519081900360640190fd5b6033546040516000916001600160a01b0316907f8be0079c531659141344cd1fd0a4f28419497f9722a3daafe3b4186f6b6457e0908390a36033805473ffffffffffffffffffffffffffffffffffffffff19169055565b606554604080517ff58d1c94000000000000000000000000000000000000000000000000000000008152905173f4dc48d260c93ad6a96c5ce563e70ca578987c749261028c926001600160a01b039091169163f58d1c9491600480820192602092909190829003018186803b15801561023957600080fd5b505afa15801561024d573d6000803e3d6000fd5b505050506040513d601f19601f8201168201806040525081019061027191906109a6565b6001600160a01b038316906902544faa778090e000006103ce565b50565b610297610453565b565b6033546001600160a01b031690565b6102b06103ca565b6001600160a01b03166102c1610299565b6001600160a01b03161461031c576040805162461bcd60e51b815260206004820181905260248201527f4f776e61626c653a2063616c6c6572206973206e6f7420746865206f776e6572604482015290519081900360640190fd5b6001600160a01b0381166103615760405162461bcd60e51b81526004018080602001828103825260268152602001806109ec6026913960400191505060405180910390fd5b6033546040516001600160a01b038084169216907f8be0079c531659141344cd1fd0a4f28419497f9722a3daafe3b4186f6b6457e090600090a36033805473ffffffffffffffffffffffffffffffffffffffff19166001600160a01b0392909216919091179055565b3390565b604080516001600160a01b038416602482015260448082018490528251808303909101815260649091019091526020810180517bffffffffffffffffffffffffffffffffffffffffffffffffffffffff167fa9059cbb0000000000000000000000000000000000000000000000000000000017905261044e908490610504565b505050565b600054610100900460ff168061046c575061046c6105b5565b8061047a575060005460ff16155b6104b55760405162461bcd60e51b815260040180806020018281038252602e815260200180610a38602e913960400191505060405180910390fd5b600054610100900460ff161580156104e0576000805460ff1961ff0019909116610100171660011790555b6104e86105c6565b6104f0610666565b801561028c576000805461ff001916905550565b6000610559826040518060400160405280602081526020017f5361666545524332303a206c6f772d6c6576656c2063616c6c206661696c6564815250856001600160a01b031661076c9092919063ffffffff16565b80519091501561044e5780806020019051602081101561057857600080fd5b505161044e5760405162461bcd60e51b815260040180806020018281038252602a815260200180610a66602a913960400191505060405180910390fd5b60006105c030610785565b15905090565b600054610100900460ff16806105df57506105df6105b5565b806105ed575060005460ff16155b6106285760405162461bcd60e51b815260040180806020018281038252602e815260200180610a38602e913960400191505060405180910390fd5b600054610100900460ff161580156104f0576000805460ff1961ff001990911661010017166001179055801561028c576000805461ff001916905550565b600054610100900460ff168061067f575061067f6105b5565b8061068d575060005460ff16155b6106c85760405162461bcd60e51b815260040180806020018281038252602e815260200180610a38602e913960400191505060405180910390fd5b600054610100900460ff161580156106f3576000805460ff1961ff0019909116610100171660011790555b60006106fd6103ca565b6033805473ffffffffffffffffffffffffffffffffffffffff19166001600160a01b038316908117909155604051919250906000907f8be0079c531659141344cd1fd0a4f28419497f9722a3daafe3b4186f6b6457e0908290a350801561028c576000805461ff001916905550565b606061077b848460008561078b565b90505b9392505050565b3b151590565b6060824710156107cc5760405162461bcd60e51b8152600401808060200182810382526026815260200180610a126026913960400191505060405180910390fd5b6107d585610785565b610826576040805162461bcd60e51b815260206004820152601d60248201527f416464726573733a2063616c6c20746f206e6f6e2d636f6e7472616374000000604482015290519081900360640190fd5b600080866001600160a01b031685876040518082805190602001908083835b602083106108645780518252601f199092019160209182019101610845565b6001836020036101000a03801982511681845116808217855250505050505090500191505060006040518083038185875af1925050503d80600081146108c6576040519150601f19603f3d011682016040523d82523d6000602084013e6108cb565b606091505b50915091506108db8282866108e6565b979650505050505050565b606083156108f557508161077e565b8251156109055782518084602001fd5b8160405162461bcd60e51b81526004018080602001828103825283818151815260200191508051906020019080838360005b8381101561094f578181015183820152602001610937565b50505050905090810190601f16801561097c5780820380516001836020036101000a031916815260200191505b509250505060405180910390fd5b60006020828403121561099b578081fd5b813561077e816109d6565b6000602082840312156109b7578081fd5b815161077e816109d6565b6001600160a01b0391909116815260200190565b6001600160a01b038116811461028c57600080fdfe4f776e61626c653a206e6577206f776e657220697320746865207a65726f2061646472657373416464726573733a20696e73756666696369656e742062616c616e636520666f722063616c6c496e697469616c697a61626c653a20636f6e747261637420697320616c726561647920696e697469616c697a65645361666545524332303a204552433230206f7065726174696f6e20646964206e6f742073756363656564a2646970667358221220e97e46cf5faa00ff55a1cdf89bc45924724ac7cea76c1509c6f0098a1aead8d164736f6c63430007060033",
  "devdoc": {
    "kind": "dev",
    "methods": {
      "owner()": {
        "details": "Returns the address of the current owner."
      },
      "renounceOwnership()": {
        "details": "Leaves the contract without owner. It will not be possible to call `onlyOwner` functions anymore. Can only be called by the current owner. NOTE: Renouncing ownership will leave the contract without an owner, thereby removing any functionality that is only available to the owner."
      },
      "transferOwnership(address)": {
        "details": "Transfers ownership of the contract to a new account (`newOwner`). Can only be called by the current owner."
      }
    },
    "version": 1
  },
  "userdoc": {
    "kind": "user",
    "methods": {},
    "version": 1
  },
  "storageLayout": {
    "storage": [
      {
        "astId": 492,
        "contract": "contracts/governance/Assistant.sol:AssistantV6",
        "label": "_initialized",
        "offset": 0,
        "slot": "0",
        "type": "t_bool"
      },
      {
        "astId": 495,
        "contract": "contracts/governance/Assistant.sol:AssistantV6",
        "label": "_initializing",
        "offset": 1,
        "slot": "0",
        "type": "t_bool"
      },
      {
        "astId": 1447,
        "contract": "contracts/governance/Assistant.sol:AssistantV6",
        "label": "__gap",
        "offset": 0,
        "slot": "1",
        "type": "t_array(t_uint256)50_storage"
      },
      {
        "astId": 10,
        "contract": "contracts/governance/Assistant.sol:AssistantV6",
        "label": "_owner",
        "offset": 0,
        "slot": "51",
        "type": "t_address"
      },
      {
        "astId": 129,
        "contract": "contracts/governance/Assistant.sol:AssistantV6",
        "label": "__gap",
        "offset": 0,
        "slot": "52",
        "type": "t_array(t_uint256)49_storage"
      },
      {
        "astId": 26937,
        "contract": "contracts/governance/Assistant.sol:AssistantV6",
        "label": "controller",
        "offset": 0,
        "slot": "101",
        "type": "t_contract(IBabController)41370"
      }
    ],
    "types": {
      "t_address": {
        "encoding": "inplace",
        "label": "address",
        "numberOfBytes": "20"
      },
      "t_array(t_uint256)49_storage": {
        "base": "t_uint256",
        "encoding": "inplace",
        "label": "uint256[49]",
        "numberOfBytes": "1568"
      },
      "t_array(t_uint256)50_storage": {
        "base": "t_uint256",
        "encoding": "inplace",
        "label": "uint256[50]",
        "numberOfBytes": "1600"
      },
      "t_bool": {
        "encoding": "inplace",
        "label": "bool",
        "numberOfBytes": "1"
      },
      "t_contract(IBabController)41370": {
        "encoding": "inplace",
        "label": "contract IBabController",
        "numberOfBytes": "20"
      },
      "t_uint256": {
        "encoding": "inplace",
        "label": "uint256",
        "numberOfBytes": "32"
      }
    }
  }
}