{
  "address": "0x7F7cf4B53d033c9D98071B266863aC4222cA35FA",
  "abi": [
    {
      "anonymous": false,
      "inputs": [
        {
          "indexed": true,
          "internalType": "address",
          "name": "previousOwner",
          "type": "address"
        },
        {
          "indexed": true,
          "internalType": "address",
          "name": "newOwner",
          "type": "address"
        }
      ],
      "name": "OwnershipTransferred",
      "type": "event"
    },
    {
      "inputs": [],
      "name": "initialize",
      "outputs": [],
      "stateMutability": "nonpayable",
      "type": "function"
    },
    {
      "inputs": [],
      "name": "owner",
      "outputs": [
        {
          "internalType": "address",
          "name": "",
          "type": "address"
        }
      ],
      "stateMutability": "view",
      "type": "function"
    },
    {
      "inputs": [],
      "name": "renounceOwnership",
      "outputs": [],
      "stateMutability": "nonpayable",
      "type": "function"
    },
    {
      "inputs": [
        {
          "internalType": "address[]",
          "name": "_addresses",
          "type": "address[]"
        }
      ],
      "name": "rewardProphets",
      "outputs": [],
      "stateMutability": "nonpayable",
      "type": "function"
    },
    {
      "inputs": [],
      "name": "setupUIGovernor",
      "outputs": [],
      "stateMutability": "nonpayable",
      "type": "function"
    },
    {
      "inputs": [
        {
          "internalType": "address",
          "name": "newOwner",
          "type": "address"
        }
      ],
      "name": "transferOwnership",
      "outputs": [],
      "stateMutability": "nonpayable",
      "type": "function"
    },
    {
      "stateMutability": "payable",
      "type": "receive"
    }
  ],
  "transactionHash": "0xdbd8b55af2bb2bf9d61562289901a6c90345fe78f89fdc9fe1ae0ee800ed7525",
  "args": [],
  "numDeployments": 1,
  "solcInputHash": "52326babd87e7897610fb1d2a71f018c",
  "bytecode": "0x608060405234801561001057600080fd5b5061085a806100206000396000f3fe6080604052600436106100695760003560e01c80638129fc1c116100435780638129fc1c146100c15780638da5cb5b146100d6578063f2fde38b1461010157610070565b80634c6bae5814610075578063698f3b5714610097578063715018a6146100ac57610070565b3661007057005b600080fd5b34801561008157600080fd5b506100956100903660046106dd565b610121565b005b3480156100a357600080fd5b50610095610236565b3480156100b857600080fd5b50610095610238565b3480156100cd57600080fd5b50610095610303565b3480156100e257600080fd5b506100eb61030b565b6040516100f8919061076c565b60405180910390f35b34801561010d57600080fd5b5061009561011c3660046106af565b61031a565b7397fcc2ae862d03143b393e9fa73a32b563d57a6e331461015d5760405162461bcd60e51b815260040161015490610799565b60405180910390fd5b73f4dc48d260c93ad6a96c5ce563e70ca578987c748160005b8181101561022f57826001600160a01b031663a9059cbb86868481811061019957fe5b90506020020160208101906101ae91906106af565b671bc16d674ec800006040518363ffffffff1660e01b81526004016101d4929190610780565b602060405180830381600087803b1580156101ee57600080fd5b505af1158015610202573d6000803e3d6000fd5b505050506040513d601f19601f82011682018060405250810190610226919061074c565b50600101610176565b5050505050565b565b61024061043c565b6001600160a01b031661025161030b565b6001600160a01b0316146102ac576040805162461bcd60e51b815260206004820181905260248201527f4f776e61626c653a2063616c6c6572206973206e6f7420746865206f776e6572604482015290519081900360640190fd5b6033546040516000916001600160a01b0316907f8be0079c531659141344cd1fd0a4f28419497f9722a3daafe3b4186f6b6457e0908390a36033805473ffffffffffffffffffffffffffffffffffffffff19169055565b610236610440565b6033546001600160a01b031690565b61032261043c565b6001600160a01b031661033361030b565b6001600160a01b03161461038e576040805162461bcd60e51b815260206004820181905260248201527f4f776e61626c653a2063616c6c6572206973206e6f7420746865206f776e6572604482015290519081900360640190fd5b6001600160a01b0381166103d35760405162461bcd60e51b81526004018080602001828103825260268152602001806107d16026913960400191505060405180910390fd5b6033546040516001600160a01b038084169216907f8be0079c531659141344cd1fd0a4f28419497f9722a3daafe3b4186f6b6457e090600090a36033805473ffffffffffffffffffffffffffffffffffffffff19166001600160a01b0392909216919091179055565b3390565b600054610100900460ff168061045957506104596104f2565b80610467575060005460ff16155b6104a25760405162461bcd60e51b815260040180806020018281038252602e8152602001806107f7602e913960400191505060405180910390fd5b600054610100900460ff161580156104cd576000805460ff1961ff0019909116610100171660011790555b6104d5610503565b6104dd6105a3565b80156104ef576000805461ff00191690555b50565b60006104fd306106a9565b15905090565b600054610100900460ff168061051c575061051c6104f2565b8061052a575060005460ff16155b6105655760405162461bcd60e51b815260040180806020018281038252602e8152602001806107f7602e913960400191505060405180910390fd5b600054610100900460ff161580156104dd576000805460ff1961ff00199091166101001716600117905580156104ef576000805461ff001916905550565b600054610100900460ff16806105bc57506105bc6104f2565b806105ca575060005460ff16155b6106055760405162461bcd60e51b815260040180806020018281038252602e8152602001806107f7602e913960400191505060405180910390fd5b600054610100900460ff16158015610630576000805460ff1961ff0019909116610100171660011790555b600061063a61043c565b6033805473ffffffffffffffffffffffffffffffffffffffff19166001600160a01b038316908117909155604051919250906000907f8be0079c531659141344cd1fd0a4f28419497f9722a3daafe3b4186f6b6457e0908290a35080156104ef576000805461ff001916905550565b3b151590565b6000602082840312156106c0578081fd5b81356001600160a01b03811681146106d6578182fd5b9392505050565b600080602083850312156106ef578081fd5b823567ffffffffffffffff80821115610706578283fd5b818501915085601f830112610719578283fd5b813581811115610727578384fd5b866020808302850101111561073a578384fd5b60209290920196919550909350505050565b60006020828403121561075d578081fd5b815180151581146106d6578182fd5b6001600160a01b0391909116815260200190565b6001600160a01b03929092168252602082015260400190565b6020808252600d908201527f4f6e6c79206d756c74697369670000000000000000000000000000000000000060408201526060019056fe4f776e61626c653a206e6577206f776e657220697320746865207a65726f2061646472657373496e697469616c697a61626c653a20636f6e747261637420697320616c726561647920696e697469616c697a6564a2646970667358221220b3c4d59e44fc96d74f959e13ed9d0509ffb21bc7bc621cb757b2477b8fa898ef64736f6c63430007060033",
  "devdoc": {
    "kind": "dev",
    "methods": {
      "owner()": {
        "details": "Returns the address of the current owner."
      },
      "renounceOwnership()": {
        "details": "Leaves the contract without owner. It will not be possible to call `onlyOwner` functions anymore. Can only be called by the current owner. NOTE: Renouncing ownership will leave the contract without an owner, thereby removing any functionality that is only available to the owner."
      },
      "transferOwnership(address)": {
        "details": "Transfers ownership of the contract to a new account (`newOwner`). Can only be called by the current owner."
      }
    },
    "version": 1
  },
  "userdoc": {
    "kind": "user",
    "methods": {},
    "version": 1
  },
  "storageLayout": {
    "storage": [
      {
        "astId": 492,
        "contract": "contracts/governance/Assistant.sol:AssistantV9",
        "label": "_initialized",
        "offset": 0,
        "slot": "0",
        "type": "t_bool"
      },
      {
        "astId": 495,
        "contract": "contracts/governance/Assistant.sol:AssistantV9",
        "label": "_initializing",
        "offset": 1,
        "slot": "0",
        "type": "t_bool"
      },
      {
        "astId": 1447,
        "contract": "contracts/governance/Assistant.sol:AssistantV9",
        "label": "__gap",
        "offset": 0,
        "slot": "1",
        "type": "t_array(t_uint256)50_storage"
      },
      {
        "astId": 10,
        "contract": "contracts/governance/Assistant.sol:AssistantV9",
        "label": "_owner",
        "offset": 0,
        "slot": "51",
        "type": "t_address"
      },
      {
        "astId": 129,
        "contract": "contracts/governance/Assistant.sol:AssistantV9",
        "label": "__gap",
        "offset": 0,
        "slot": "52",
        "type": "t_array(t_uint256)49_storage"
      }
    ],
    "types": {
      "t_address": {
        "encoding": "inplace",
        "label": "address",
        "numberOfBytes": "20"
      },
      "t_array(t_uint256)49_storage": {
        "base": "t_uint256",
        "encoding": "inplace",
        "label": "uint256[49]",
        "numberOfBytes": "1568"
      },
      "t_array(t_uint256)50_storage": {
        "base": "t_uint256",
        "encoding": "inplace",
        "label": "uint256[50]",
        "numberOfBytes": "1600"
      },
      "t_bool": {
        "encoding": "inplace",
        "label": "bool",
        "numberOfBytes": "1"
      },
      "t_uint256": {
        "encoding": "inplace",
        "label": "uint256",
        "numberOfBytes": "32"
      }
    }
  }
}