{
  "address": "0xc926799c2898618707525249b2EAF13797F7f025",
  "abi": [
    {
      "anonymous": false,
      "inputs": [
        {
          "indexed": true,
          "internalType": "address",
          "name": "previousOwner",
          "type": "address"
        },
        {
          "indexed": true,
          "internalType": "address",
          "name": "newOwner",
          "type": "address"
        }
      ],
      "name": "OwnershipTransferred",
      "type": "event"
    },
    {
      "inputs": [],
      "name": "initialize",
      "outputs": [],
      "stateMutability": "nonpayable",
      "type": "function"
    },
    {
      "inputs": [],
      "name": "owner",
      "outputs": [
        {
          "internalType": "address",
          "name": "",
          "type": "address"
        }
      ],
      "stateMutability": "view",
      "type": "function"
    },
    {
      "inputs": [],
      "name": "renounceOwnership",
      "outputs": [],
      "stateMutability": "nonpayable",
      "type": "function"
    },
    {
      "inputs": [],
      "name": "setupFusePool",
      "outputs": [],
      "stateMutability": "nonpayable",
      "type": "function"
    },
    {
      "inputs": [
        {
          "internalType": "address",
          "name": "newOwner",
          "type": "address"
        }
      ],
      "name": "transferOwnership",
      "outputs": [],
      "stateMutability": "nonpayable",
      "type": "function"
    },
    {
      "stateMutability": "payable",
      "type": "receive"
    }
  ],
  "transactionHash": "0xbc1bafe51d853cbfdc9bfe2df3d73a118c4a2cd859b1db5124b0c6a872beb999",
  "args": [],
  "solcInputHash": "6c0e95a341fe6dcd8d58ce79018a4934",
  "bytecode": "0x608060405234801561001057600080fd5b506113c3806100206000396000f3fe60806040526004361061005e5760003560e01c80638129fc1c116100435780638129fc1c146100965780638da5cb5b146100ab578063f2fde38b146100d657610065565b80631dd35fa41461006a578063715018a61461008157610065565b3661006557005b600080fd5b34801561007657600080fd5b5061007f6100f6565b005b34801561008d57600080fd5b5061007f6106e9565b3480156100a257600080fd5b5061007f6107b4565b3480156100b757600080fd5b506100c06107be565b6040516100cd919061118e565b60405180910390f35b3480156100e257600080fd5b5061007f6100f136600461113e565b6107cd565b600073d4a5b5fcb561daf3adf86f8477555b92fba43b5f9050806001600160a01b0316638da5cb5b6040518163ffffffff1660e01b815260040160206040518083038186803b15801561014857600080fd5b505afa15801561015c573d6000803e3d6000fd5b505050506040513d601f19601f82011682018060405250810190610180919061115a565b6001600160a01b0316336001600160a01b031614806102205750806001600160a01b0316638d97e0436040518163ffffffff1660e01b815260040160206040518083038186803b1580156101d357600080fd5b505afa1580156101e7573d6000803e3d6000fd5b505050506040513d601f19601f8201168201806040525081019061020b919061115a565b6001600160a01b0316336001600160a01b0316145b6102455760405162461bcd60e51b815260040161023c906111d9565b60405180910390fd5b604080517fd0e30db0000000000000000000000000000000000000000000000000000000008152905173f4dc48d260c93ad6a96c5ce563e70ca578987c7491736b175474e89094c44da98b954eedeac495271d0f9173c02aaa39b223fe8d0a0e5c4f27ead9083c756cc29173d7aaf4676f0f52993cb33ad36784bf970f0e12599173e592427a0aece92de3edee1f18e0157c058615649169130ee8e717904440000091686c6b935b8bbd40000091869163d0e30db0914791600480830192600092919082900301818588803b15801561031d57600080fd5b505af1158015610331573d6000803e3d6000fd5b50505050506103418684846108ef565b60408051610100810182526001600160a01b03808916825287811660208301526101f48284015230606083015242608083015260a082018590526801314fb3706298000060c0830152600060e0830181905292517f414bf3890000000000000000000000000000000000000000000000000000000081529192919086169063414bf389906103d3908590600401611210565b602060405180830381600087803b1580156103ed57600080fd5b505af1158015610401573d6000803e3d6000fd5b505050506040513d601f19601f820116820180604052508101906104259190611176565b90506801314fb3706298000081101561043d57600080fd5b68038cfebef754160000735e6c481de496554b66657dd1ca1f70c61cf116606104706001600160a01b038c168287610a58565b6104846001600160a01b038a168284610a58565b6040517f8dbdbe6d0000000000000000000000000000000000000000000000000000000081526000906001600160a01b03831690638dbdbe6d906104d09086908a908e9060040161127f565b602060405180830381600087803b1580156104ea57600080fd5b505af11580156104fe573d6000803e3d6000fd5b505050506040513d601f19601f820116820180604052508101906105229190611176565b6040516370a0823160e01b81529091506001600160a01b038316906370a0823190610551908c9060040161118e565b60206040518083038186803b15801561056957600080fd5b505afa15801561057d573d6000803e3d6000fd5b505050506040513d601f19601f820116820180604052508101906105a19190611176565b8114801561062b57506040516370a0823160e01b81526000906001600160a01b038416906370a08231906105d9908d9060040161118e565b60206040518083038186803b1580156105f157600080fd5b505afa158015610605573d6000803e3d6000fd5b505050506040513d601f19601f820116820180604052508101906106299190611176565b115b6106475760405162461bcd60e51b815260040161023c906111a2565b6106da308a8c6001600160a01b03166370a08231306040518263ffffffff1660e01b8152600401610678919061118e565b60206040518083038186803b15801561069057600080fd5b505afa1580156106a4573d6000803e3d6000fd5b505050506040513d601f19601f820116820180604052508101906106c89190611176565b6001600160a01b038e16929190610b89565b50505050505050505050505050565b6106f1610c02565b6001600160a01b03166107026107be565b6001600160a01b03161461075d576040805162461bcd60e51b815260206004820181905260248201527f4f776e61626c653a2063616c6c6572206973206e6f7420746865206f776e6572604482015290519081900360640190fd5b6033546040516000916001600160a01b0316907f8be0079c531659141344cd1fd0a4f28419497f9722a3daafe3b4186f6b6457e0908390a36033805473ffffffffffffffffffffffffffffffffffffffff19169055565b6107bc610c06565b565b6033546001600160a01b031690565b6107d5610c02565b6001600160a01b03166107e66107be565b6001600160a01b031614610841576040805162461bcd60e51b815260206004820181905260248201527f4f776e61626c653a2063616c6c6572206973206e6f7420746865206f776e6572604482015290519081900360640190fd5b6001600160a01b0381166108865760405162461bcd60e51b81526004018080602001828103825260268152602001806112b46026913960400191505060405180910390fd5b6033546040516001600160a01b038084169216907f8be0079c531659141344cd1fd0a4f28419497f9722a3daafe3b4186f6b6457e090600090a36033805473ffffffffffffffffffffffffffffffffffffffff19166001600160a01b0392909216919091179055565b604080516001600160a01b038481166024830152604480830185905283518084039091018152606490920183526020820180516001600160e01b031663095ea7b360e01b1781529251825160009485949389169392918291908083835b6020831061096b5780518252601f19909201916020918201910161094c565b6001836020036101000a0380198251168184511680821785525050505050509050019150506000604051808303816000865af19150503d80600081146109cd576040519150601f19603f3d011682016040523d82523d6000602084013e6109d2565b606091505b5091509150818015610a00575080511580610a0057508080602001905160208110156109fd57600080fd5b50515b610a51576040805162461bcd60e51b815260206004820152600260248201527f5341000000000000000000000000000000000000000000000000000000000000604482015290519081900360640190fd5b5050505050565b801580610af75750604080517fdd62ed3e0000000000000000000000000000000000000000000000000000000081523060048201526001600160a01b03848116602483015291519185169163dd62ed3e91604480820192602092909190829003018186803b158015610ac957600080fd5b505afa158015610add573d6000803e3d6000fd5b505050506040513d6020811015610af357600080fd5b5051155b610b325760405162461bcd60e51b81526004018080602001828103825260368152602001806113586036913960400191505060405180910390fd5b604080516001600160a01b038416602482015260448082018490528251808303909101815260649091019091526020810180516001600160e01b031663095ea7b360e01b179052610b84908490610cb8565b505050565b604080516001600160a01b0380861660248301528416604482015260648082018490528251808303909101815260849091019091526020810180516001600160e01b03167f23b872dd00000000000000000000000000000000000000000000000000000000179052610bfc908590610cb8565b50505050565b3390565b600054610100900460ff1680610c1f5750610c1f610d69565b80610c2d575060005460ff16155b610c685760405162461bcd60e51b815260040180806020018281038252602e815260200180611300602e913960400191505060405180910390fd5b600054610100900460ff16158015610c93576000805460ff1961ff0019909116610100171660011790555b610c9b610d7a565b610ca3610e1a565b8015610cb5576000805461ff00191690555b50565b6000610d0d826040518060400160405280602081526020017f5361666545524332303a206c6f772d6c6576656c2063616c6c206661696c6564815250856001600160a01b0316610f209092919063ffffffff16565b805190915015610b8457808060200190516020811015610d2c57600080fd5b5051610b845760405162461bcd60e51b815260040180806020018281038252602a81526020018061132e602a913960400191505060405180910390fd5b6000610d7430610f39565b15905090565b600054610100900460ff1680610d935750610d93610d69565b80610da1575060005460ff16155b610ddc5760405162461bcd60e51b815260040180806020018281038252602e815260200180611300602e913960400191505060405180910390fd5b600054610100900460ff16158015610ca3576000805460ff1961ff0019909116610100171660011790558015610cb5576000805461ff001916905550565b600054610100900460ff1680610e335750610e33610d69565b80610e41575060005460ff16155b610e7c5760405162461bcd60e51b815260040180806020018281038252602e815260200180611300602e913960400191505060405180910390fd5b600054610100900460ff16158015610ea7576000805460ff1961ff0019909116610100171660011790555b6000610eb1610c02565b6033805473ffffffffffffffffffffffffffffffffffffffff19166001600160a01b038316908117909155604051919250906000907f8be0079c531659141344cd1fd0a4f28419497f9722a3daafe3b4186f6b6457e0908290a3508015610cb5576000805461ff001916905550565b6060610f2f8484600085610f3f565b90505b9392505050565b3b151590565b606082471015610f805760405162461bcd60e51b81526004018080602001828103825260268152602001806112da6026913960400191505060405180910390fd5b610f8985610f39565b610fda576040805162461bcd60e51b815260206004820152601d60248201527f416464726573733a2063616c6c20746f206e6f6e2d636f6e7472616374000000604482015290519081900360640190fd5b600080866001600160a01b031685876040518082805190602001908083835b602083106110185780518252601f199092019160209182019101610ff9565b6001836020036101000a03801982511681845116808217855250505050505090500191505060006040518083038185875af1925050503d806000811461107a576040519150601f19603f3d011682016040523d82523d6000602084013e61107f565b606091505b509150915061108f82828661109a565b979650505050505050565b606083156110a9575081610f32565b8251156110b95782518084602001fd5b8160405162461bcd60e51b81526004018080602001828103825283818151815260200191508051906020019080838360005b838110156111035781810151838201526020016110eb565b50505050905090810190601f1680156111305780820380516001836020036101000a031916815260200191505b509250505060405180910390fd5b60006020828403121561114f578081fd5b8135610f328161129e565b60006020828403121561116b578081fd5b8151610f328161129e565b600060208284031215611187578081fd5b5051919050565b6001600160a01b0391909116815260200190565b60208082526014908201527f4e6f7420656e6f756768206c7020746f6b656e73000000000000000000000000604082015260600190565b60208082526015908201527f4e6f7420656e6f7567682070726976696c656765730000000000000000000000604082015260600190565b6000610100820190506001600160a01b0380845116835280602085015116602084015262ffffff60408501511660408401528060608501511660608401526080840151608084015260a084015160a084015260c084015160c08401528060e08501511660e08401525092915050565b92835260208301919091526001600160a01b0316604082015260600190565b6001600160a01b0381168114610cb557600080fdfe4f776e61626c653a206e6577206f776e657220697320746865207a65726f2061646472657373416464726573733a20696e73756666696369656e742062616c616e636520666f722063616c6c496e697469616c697a61626c653a20636f6e747261637420697320616c726561647920696e697469616c697a65645361666545524332303a204552433230206f7065726174696f6e20646964206e6f7420737563636565645361666545524332303a20617070726f76652066726f6d206e6f6e2d7a65726f20746f206e6f6e2d7a65726f20616c6c6f77616e6365a26469706673582212204f1efb294d56ae1fc8ab34bec97019ed9e7f8ee80df24d9ca0ee96719d80459864736f6c63430007060033",
  "devdoc": {
    "kind": "dev",
    "methods": {
      "owner()": {
        "details": "Returns the address of the current owner."
      },
      "renounceOwnership()": {
        "details": "Leaves the contract without owner. It will not be possible to call `onlyOwner` functions anymore. Can only be called by the current owner. NOTE: Renouncing ownership will leave the contract without an owner, thereby removing any functionality that is only available to the owner."
      },
      "transferOwnership(address)": {
        "details": "Transfers ownership of the contract to a new account (`newOwner`). Can only be called by the current owner."
      }
    },
    "version": 1
  },
  "userdoc": {
    "kind": "user",
    "methods": {},
    "version": 1
  },
  "storageLayout": {
    "storage": [
      {
        "astId": 492,
        "contract": "contracts/governance/Assistant.sol:AssistantV2",
        "label": "_initialized",
        "offset": 0,
        "slot": "0",
        "type": "t_bool"
      },
      {
        "astId": 495,
        "contract": "contracts/governance/Assistant.sol:AssistantV2",
        "label": "_initializing",
        "offset": 1,
        "slot": "0",
        "type": "t_bool"
      },
      {
        "astId": 1447,
        "contract": "contracts/governance/Assistant.sol:AssistantV2",
        "label": "__gap",
        "offset": 0,
        "slot": "1",
        "type": "t_array(t_uint256)50_storage"
      },
      {
        "astId": 10,
        "contract": "contracts/governance/Assistant.sol:AssistantV2",
        "label": "_owner",
        "offset": 0,
        "slot": "51",
        "type": "t_address"
      },
      {
        "astId": 129,
        "contract": "contracts/governance/Assistant.sol:AssistantV2",
        "label": "__gap",
        "offset": 0,
        "slot": "52",
        "type": "t_array(t_uint256)49_storage"
      }
    ],
    "types": {
      "t_address": {
        "encoding": "inplace",
        "label": "address",
        "numberOfBytes": "20"
      },
      "t_array(t_uint256)49_storage": {
        "base": "t_uint256",
        "encoding": "inplace",
        "label": "uint256[49]",
        "numberOfBytes": "1568"
      },
      "t_array(t_uint256)50_storage": {
        "base": "t_uint256",
        "encoding": "inplace",
        "label": "uint256[50]",
        "numberOfBytes": "1600"
      },
      "t_bool": {
        "encoding": "inplace",
        "label": "bool",
        "numberOfBytes": "1"
      },
      "t_uint256": {
        "encoding": "inplace",
        "label": "uint256",
        "numberOfBytes": "32"
      }
    }
  }
}