{
  "address": "0xb8ab13c7CC7debd3D7C9ddA47281F9F3b67743a4",
  "abi": [
    {
      "anonymous": false,
      "inputs": [
        {
          "indexed": true,
          "internalType": "address",
          "name": "previousOwner",
          "type": "address"
        },
        {
          "indexed": true,
          "internalType": "address",
          "name": "newOwner",
          "type": "address"
        }
      ],
      "name": "OwnershipTransferred",
      "type": "event"
    },
    {
      "inputs": [],
      "name": "initialize",
      "outputs": [],
      "stateMutability": "nonpayable",
      "type": "function"
    },
    {
      "inputs": [],
      "name": "owner",
      "outputs": [
        {
          "internalType": "address",
          "name": "",
          "type": "address"
        }
      ],
      "stateMutability": "view",
      "type": "function"
    },
    {
      "inputs": [],
      "name": "renounceOwnership",
      "outputs": [],
      "stateMutability": "nonpayable",
      "type": "function"
    },
    {
      "inputs": [],
      "name": "setupFusePool",
      "outputs": [],
      "stateMutability": "nonpayable",
      "type": "function"
    },
    {
      "inputs": [
        {
          "internalType": "address",
          "name": "newOwner",
          "type": "address"
        }
      ],
      "name": "transferOwnership",
      "outputs": [],
      "stateMutability": "nonpayable",
      "type": "function"
    }
  ],
  "transactionHash": "0x76fe081456854035e98e919b33b3f6c921db16db45edf87c354e3cf9d836586b",
  "args": [],
  "solcInputHash": "8c2a799b28f0b61028712b52bd4f8226",
  "bytecode": "0x608060405234801561001057600080fd5b50610647806100206000396000f3fe608060405234801561001057600080fd5b50600436106100675760003560e01c80638129fc1c116100505780638129fc1c1461007e5780638da5cb5b14610086578063f2fde38b146100aa57610067565b80631dd35fa41461006c578063715018a614610076575b600080fd5b6100746100d0565b005b610074610146565b610074610211565b61008e610219565b604080516001600160a01b039092168252519081900360200190f35b610074600480360360208110156100c057600080fd5b50356001600160a01b0316610228565b6100d861034a565b6001600160a01b03166100e9610219565b6001600160a01b031614610144576040805162461bcd60e51b815260206004820181905260248201527f4f776e61626c653a2063616c6c6572206973206e6f7420746865206f776e6572604482015290519081900360640190fd5b565b61014e61034a565b6001600160a01b031661015f610219565b6001600160a01b0316146101ba576040805162461bcd60e51b815260206004820181905260248201527f4f776e61626c653a2063616c6c6572206973206e6f7420746865206f776e6572604482015290519081900360640190fd5b6033546040516000916001600160a01b0316907f8be0079c531659141344cd1fd0a4f28419497f9722a3daafe3b4186f6b6457e0908390a36033805473ffffffffffffffffffffffffffffffffffffffff19169055565b61014461034e565b6033546001600160a01b031690565b61023061034a565b6001600160a01b0316610241610219565b6001600160a01b03161461029c576040805162461bcd60e51b815260206004820181905260248201527f4f776e61626c653a2063616c6c6572206973206e6f7420746865206f776e6572604482015290519081900360640190fd5b6001600160a01b0381166102e15760405162461bcd60e51b81526004018080602001828103825260268152602001806105be6026913960400191505060405180910390fd5b6033546040516001600160a01b038084169216907f8be0079c531659141344cd1fd0a4f28419497f9722a3daafe3b4186f6b6457e090600090a36033805473ffffffffffffffffffffffffffffffffffffffff19166001600160a01b0392909216919091179055565b3390565b600054610100900460ff16806103675750610367610400565b80610375575060005460ff16155b6103b05760405162461bcd60e51b815260040180806020018281038252602e8152602001806105e4602e913960400191505060405180910390fd5b600054610100900460ff161580156103db576000805460ff1961ff0019909116610100171660011790555b6103e3610411565b6103eb6104b1565b80156103fd576000805461ff00191690555b50565b600061040b306105b7565b15905090565b600054610100900460ff168061042a575061042a610400565b80610438575060005460ff16155b6104735760405162461bcd60e51b815260040180806020018281038252602e8152602001806105e4602e913960400191505060405180910390fd5b600054610100900460ff161580156103eb576000805460ff1961ff00199091166101001716600117905580156103fd576000805461ff001916905550565b600054610100900460ff16806104ca57506104ca610400565b806104d8575060005460ff16155b6105135760405162461bcd60e51b815260040180806020018281038252602e8152602001806105e4602e913960400191505060405180910390fd5b600054610100900460ff1615801561053e576000805460ff1961ff0019909116610100171660011790555b600061054861034a565b6033805473ffffffffffffffffffffffffffffffffffffffff19166001600160a01b038316908117909155604051919250906000907f8be0079c531659141344cd1fd0a4f28419497f9722a3daafe3b4186f6b6457e0908290a35080156103fd576000805461ff001916905550565b3b15159056fe4f776e61626c653a206e6577206f776e657220697320746865207a65726f2061646472657373496e697469616c697a61626c653a20636f6e747261637420697320616c726561647920696e697469616c697a6564a2646970667358221220f2076e60d98cb095abe97aa1a792a7c7297e9c0330a85f1701e7ce0f5c47420164736f6c63430007060033",
  "devdoc": {
    "kind": "dev",
    "methods": {
      "owner()": {
        "details": "Returns the address of the current owner."
      },
      "renounceOwnership()": {
        "details": "Leaves the contract without owner. It will not be possible to call `onlyOwner` functions anymore. Can only be called by the current owner. NOTE: Renouncing ownership will leave the contract without an owner, thereby removing any functionality that is only available to the owner."
      },
      "transferOwnership(address)": {
        "details": "Transfers ownership of the contract to a new account (`newOwner`). Can only be called by the current owner."
      }
    },
    "version": 1
  },
  "userdoc": {
    "kind": "user",
    "methods": {},
    "version": 1
  },
  "storageLayout": {
    "storage": [
      {
        "astId": 492,
        "contract": "contracts/governance/Assistant.sol:Assistant",
        "label": "_initialized",
        "offset": 0,
        "slot": "0",
        "type": "t_bool"
      },
      {
        "astId": 495,
        "contract": "contracts/governance/Assistant.sol:Assistant",
        "label": "_initializing",
        "offset": 1,
        "slot": "0",
        "type": "t_bool"
      },
      {
        "astId": 1447,
        "contract": "contracts/governance/Assistant.sol:Assistant",
        "label": "__gap",
        "offset": 0,
        "slot": "1",
        "type": "t_array(t_uint256)50_storage"
      },
      {
        "astId": 10,
        "contract": "contracts/governance/Assistant.sol:Assistant",
        "label": "_owner",
        "offset": 0,
        "slot": "51",
        "type": "t_address"
      },
      {
        "astId": 129,
        "contract": "contracts/governance/Assistant.sol:Assistant",
        "label": "__gap",
        "offset": 0,
        "slot": "52",
        "type": "t_array(t_uint256)49_storage"
      }
    ],
    "types": {
      "t_address": {
        "encoding": "inplace",
        "label": "address",
        "numberOfBytes": "20"
      },
      "t_array(t_uint256)49_storage": {
        "base": "t_uint256",
        "encoding": "inplace",
        "label": "uint256[49]",
        "numberOfBytes": "1568"
      },
      "t_array(t_uint256)50_storage": {
        "base": "t_uint256",
        "encoding": "inplace",
        "label": "uint256[50]",
        "numberOfBytes": "1600"
      },
      "t_bool": {
        "encoding": "inplace",
        "label": "bool",
        "numberOfBytes": "1"
      },
      "t_uint256": {
        "encoding": "inplace",
        "label": "uint256",
        "numberOfBytes": "32"
      }
    }
  }
}