{
  "address": "0x76f3340Bdd9e8Ad1E7995E9BB51c20a17F9f4eD7",
  "abi": [
    {
      "anonymous": false,
      "inputs": [
        {
          "indexed": false,
          "internalType": "string",
          "name": "_action",
          "type": "string"
        },
        {
          "indexed": false,
          "internalType": "bool",
          "name": "_pauseState",
          "type": "bool"
        }
      ],
      "name": "ActionPaused",
      "type": "event"
    },
    {
      "anonymous": false,
      "inputs": [
        {
          "indexed": false,
          "internalType": "string",
          "name": "_action",
          "type": "string"
        },
        {
          "indexed": false,
          "internalType": "address",
          "name": "_address",
          "type": "address"
        },
        {
          "indexed": false,
          "internalType": "bool",
          "name": "_pauseState",
          "type": "bool"
        }
      ],
      "name": "ActionPausedIndividually",
      "type": "event"
    },
    {
      "anonymous": false,
      "inputs": [
        {
          "indexed": false,
          "internalType": "address",
          "name": "_integration",
          "type": "address"
        },
        {
          "indexed": true,
          "internalType": "string",
          "name": "_integrationName",
          "type": "string"
        }
      ],
      "name": "ControllerIntegrationAdded",
      "type": "event"
    },
    {
      "anonymous": false,
      "inputs": [
        {
          "indexed": false,
          "internalType": "address",
          "name": "_newIntegration",
          "type": "address"
        },
        {
          "indexed": true,
          "internalType": "string",
          "name": "_integrationName",
          "type": "string"
        }
      ],
      "name": "ControllerIntegrationEdited",
      "type": "event"
    },
    {
      "anonymous": false,
      "inputs": [
        {
          "indexed": false,
          "internalType": "address",
          "name": "_integration",
          "type": "address"
        },
        {
          "indexed": true,
          "internalType": "string",
          "name": "_integrationName",
          "type": "string"
        }
      ],
      "name": "ControllerIntegrationRemoved",
      "type": "event"
    },
    {
      "anonymous": false,
      "inputs": [
        {
          "indexed": true,
          "internalType": "uint8",
          "name": "_kind",
          "type": "uint8"
        },
        {
          "indexed": false,
          "internalType": "address",
          "name": "_address",
          "type": "address"
        }
      ],
      "name": "ControllerOperationSet",
      "type": "event"
    },
    {
      "anonymous": false,
      "inputs": [
        {
          "indexed": true,
          "internalType": "address",
          "name": "_garden",
          "type": "address"
        },
        {
          "indexed": true,
          "internalType": "address",
          "name": "_factory",
          "type": "address"
        }
      ],
      "name": "GardenAdded",
      "type": "event"
    },
    {
      "anonymous": false,
      "inputs": [
        {
          "indexed": true,
          "internalType": "address",
          "name": "_gardenFactory",
          "type": "address"
        },
        {
          "indexed": false,
          "internalType": "address",
          "name": "_oldGardenFactory",
          "type": "address"
        }
      ],
      "name": "GardenFactoryChanged",
      "type": "event"
    },
    {
      "anonymous": false,
      "inputs": [
        {
          "indexed": true,
          "internalType": "address",
          "name": "_newGardenNFT",
          "type": "address"
        },
        {
          "indexed": false,
          "internalType": "address",
          "name": "_oldStrategyNFT",
          "type": "address"
        }
      ],
      "name": "GardenNFTChanged",
      "type": "event"
    },
    {
      "anonymous": false,
      "inputs": [
        {
          "indexed": true,
          "internalType": "address",
          "name": "_garden",
          "type": "address"
        }
      ],
      "name": "GardenRemoved",
      "type": "event"
    },
    {
      "anonymous": false,
      "inputs": [
        {
          "indexed": true,
          "internalType": "address",
          "name": "_gardenValuer",
          "type": "address"
        },
        {
          "indexed": false,
          "internalType": "address",
          "name": "_oldGardenValuer",
          "type": "address"
        }
      ],
      "name": "GardenValuerChanged",
      "type": "event"
    },
    {
      "anonymous": false,
      "inputs": [
        {
          "indexed": false,
          "internalType": "address",
          "name": "_newIshtarGate",
          "type": "address"
        },
        {
          "indexed": false,
          "internalType": "address",
          "name": "_oldIshtarGate",
          "type": "address"
        }
      ],
      "name": "IshtarGateChanged",
      "type": "event"
    },
    {
      "anonymous": false,
      "inputs": [
        {
          "indexed": true,
          "internalType": "address",
          "name": "_resesrveAsset",
          "type": "address"
        },
        {
          "indexed": false,
          "internalType": "uint256",
          "name": "_newMinLiquidityReserve",
          "type": "uint256"
        }
      ],
      "name": "LiquidityMinimumEdited",
      "type": "event"
    },
    {
      "anonymous": false,
      "inputs": [
        {
          "indexed": false,
          "internalType": "address",
          "name": "_newMardukGate",
          "type": "address"
        },
        {
          "indexed": false,
          "internalType": "address",
          "name": "_oldMardukGate",
          "type": "address"
        }
      ],
      "name": "MardukGateChanged",
      "type": "event"
    },
    {
      "anonymous": false,
      "inputs": [
        {
          "indexed": true,
          "internalType": "address",
          "name": "_newTradeIntegration",
          "type": "address"
        },
        {
          "indexed": false,
          "internalType": "address",
          "name": "_oldTradeIntegration",
          "type": "address"
        }
      ],
      "name": "MasterSwapperChanged",
      "type": "event"
    },
    {
      "anonymous": false,
      "inputs": [
        {
          "indexed": false,
          "internalType": "address",
          "name": "_oldPauseGuardian",
          "type": "address"
        },
        {
          "indexed": false,
          "internalType": "address",
          "name": "_newPauseGuardian",
          "type": "address"
        }
      ],
      "name": "NewPauseGuardian",
      "type": "event"
    },
    {
      "anonymous": false,
      "inputs": [
        {
          "indexed": true,
          "internalType": "address",
          "name": "previousOwner",
          "type": "address"
        },
        {
          "indexed": true,
          "internalType": "address",
          "name": "newOwner",
          "type": "address"
        }
      ],
      "name": "OwnershipTransferred",
      "type": "event"
    },
    {
      "anonymous": false,
      "inputs": [
        {
          "indexed": true,
          "internalType": "address",
          "name": "_priceOracle",
          "type": "address"
        },
        {
          "indexed": false,
          "internalType": "address",
          "name": "_oldPriceOracle",
          "type": "address"
        }
      ],
      "name": "PriceOracleChanged",
      "type": "event"
    },
    {
      "anonymous": false,
      "inputs": [
        {
          "indexed": true,
          "internalType": "address",
          "name": "_reserveAsset",
          "type": "address"
        }
      ],
      "name": "ReserveAssetAdded",
      "type": "event"
    },
    {
      "anonymous": false,
      "inputs": [
        {
          "indexed": true,
          "internalType": "address",
          "name": "_reserveAsset",
          "type": "address"
        }
      ],
      "name": "ReserveAssetRemoved",
      "type": "event"
    },
    {
      "anonymous": false,
      "inputs": [
        {
          "indexed": true,
          "internalType": "address",
          "name": "_rewardsDistributor",
          "type": "address"
        },
        {
          "indexed": false,
          "internalType": "address",
          "name": "_oldRewardsDistributor",
          "type": "address"
        }
      ],
      "name": "RewardsDistributorChanged",
      "type": "event"
    },
    {
      "anonymous": false,
      "inputs": [
        {
          "indexed": true,
          "internalType": "address",
          "name": "_strategyFactory",
          "type": "address"
        },
        {
          "indexed": false,
          "internalType": "address",
          "name": "_oldStrategyFactory",
          "type": "address"
        }
      ],
      "name": "StrategyFactoryEdited",
      "type": "event"
    },
    {
      "anonymous": false,
      "inputs": [
        {
          "indexed": true,
          "internalType": "address",
          "name": "_newStrategyNFT",
          "type": "address"
        },
        {
          "indexed": false,
          "internalType": "address",
          "name": "_oldStrategyNFT",
          "type": "address"
        }
      ],
      "name": "StrategyNFTChanged",
      "type": "event"
    },
    {
      "anonymous": false,
      "inputs": [
        {
          "indexed": false,
          "internalType": "address",
          "name": "_newTreasury",
          "type": "address"
        },
        {
          "indexed": false,
          "internalType": "address",
          "name": "_oldTreasury",
          "type": "address"
        }
      ],
      "name": "TreasuryChanged",
      "type": "event"
    },
    {
      "anonymous": false,
      "inputs": [
        {
          "indexed": true,
          "internalType": "address",
          "name": "_newUniswapFactory",
          "type": "address"
        },
        {
          "indexed": false,
          "internalType": "address",
          "name": "_oldUniswapFactory",
          "type": "address"
        }
      ],
      "name": "UniswapFactoryChanged",
      "type": "event"
    },
    {
      "inputs": [],
      "name": "MAX_OPERATIONS",
      "outputs": [
        {
          "internalType": "uint8",
          "name": "",
          "type": "uint8"
        }
      ],
      "stateMutability": "view",
      "type": "function"
    },
    {
      "inputs": [],
      "name": "WETH",
      "outputs": [
        {
          "internalType": "address",
          "name": "",
          "type": "address"
        }
      ],
      "stateMutability": "view",
      "type": "function"
    },
    {
      "inputs": [
        {
          "internalType": "address",
          "name": "_keeper",
          "type": "address"
        }
      ],
      "name": "addKeeper",
      "outputs": [],
      "stateMutability": "nonpayable",
      "type": "function"
    },
    {
      "inputs": [
        {
          "internalType": "address[]",
          "name": "_keepers",
          "type": "address[]"
        }
      ],
      "name": "addKeepers",
      "outputs": [],
      "stateMutability": "nonpayable",
      "type": "function"
    },
    {
      "inputs": [
        {
          "internalType": "address",
          "name": "_reserveAsset",
          "type": "address"
        }
      ],
      "name": "addReserveAsset",
      "outputs": [],
      "stateMutability": "nonpayable",
      "type": "function"
    },
    {
      "inputs": [],
      "name": "allowPublicGardens",
      "outputs": [
        {
          "internalType": "bool",
          "name": "",
          "type": "bool"
        }
      ],
      "stateMutability": "view",
      "type": "function"
    },
    {
      "inputs": [
        {
          "internalType": "address",
          "name": "",
          "type": "address"
        }
      ],
      "name": "assetWhitelist",
      "outputs": [
        {
          "internalType": "bool",
          "name": "",
          "type": "bool"
        }
      ],
      "stateMutability": "view",
      "type": "function"
    },
    {
      "inputs": [],
      "name": "bablMiningProgramEnabled",
      "outputs": [
        {
          "internalType": "bool",
          "name": "",
          "type": "bool"
        }
      ],
      "stateMutability": "view",
      "type": "function"
    },
    {
      "inputs": [
        {
          "internalType": "address",
          "name": "_reserveAsset",
          "type": "address"
        },
        {
          "internalType": "string",
          "name": "_name",
          "type": "string"
        },
        {
          "internalType": "string",
          "name": "_symbol",
          "type": "string"
        },
        {
          "internalType": "string",
          "name": "_tokenURI",
          "type": "string"
        },
        {
          "internalType": "uint256",
          "name": "_seed",
          "type": "uint256"
        },
        {
          "internalType": "uint256[]",
          "name": "_gardenParams",
          "type": "uint256[]"
        },
        {
          "internalType": "uint256",
          "name": "_initialContribution",
          "type": "uint256"
        },
        {
          "internalType": "bool[]",
          "name": "_publicGardenStrategistsStewards",
          "type": "bool[]"
        },
        {
          "internalType": "uint256[]",
          "name": "_profitSharing",
          "type": "uint256[]"
        }
      ],
      "name": "createGarden",
      "outputs": [
        {
          "internalType": "address",
          "name": "",
          "type": "address"
        }
      ],
      "stateMutability": "payable",
      "type": "function"
    },
    {
      "inputs": [
        {
          "internalType": "address",
          "name": "_newGardenFactory",
          "type": "address"
        }
      ],
      "name": "editGardenFactory",
      "outputs": [],
      "stateMutability": "nonpayable",
      "type": "function"
    },
    {
      "inputs": [
        {
          "internalType": "address",
          "name": "_newGardenNFT",
          "type": "address"
        }
      ],
      "name": "editGardenNFT",
      "outputs": [],
      "stateMutability": "nonpayable",
      "type": "function"
    },
    {
      "inputs": [
        {
          "internalType": "address",
          "name": "_gardenValuer",
          "type": "address"
        }
      ],
      "name": "editGardenValuer",
      "outputs": [],
      "stateMutability": "nonpayable",
      "type": "function"
    },
    {
      "inputs": [
        {
          "internalType": "address",
          "name": "_ishtarGate",
          "type": "address"
        }
      ],
      "name": "editIshtarGate",
      "outputs": [],
      "stateMutability": "nonpayable",
      "type": "function"
    },
    {
      "inputs": [
        {
          "internalType": "address",
          "name": "_reserve",
          "type": "address"
        },
        {
          "internalType": "uint256",
          "name": "_newMinLiquidityReserve",
          "type": "uint256"
        }
      ],
      "name": "editLiquidityReserve",
      "outputs": [],
      "stateMutability": "nonpayable",
      "type": "function"
    },
    {
      "inputs": [
        {
          "internalType": "address",
          "name": "_mardukGate",
          "type": "address"
        }
      ],
      "name": "editMardukGate",
      "outputs": [],
      "stateMutability": "nonpayable",
      "type": "function"
    },
    {
      "inputs": [
        {
          "internalType": "address",
          "name": "_priceOracle",
          "type": "address"
        }
      ],
      "name": "editPriceOracle",
      "outputs": [],
      "stateMutability": "nonpayable",
      "type": "function"
    },
    {
      "inputs": [
        {
          "internalType": "address",
          "name": "_newRewardsDistributor",
          "type": "address"
        }
      ],
      "name": "editRewardsDistributor",
      "outputs": [],
      "stateMutability": "nonpayable",
      "type": "function"
    },
    {
      "inputs": [
        {
          "internalType": "address",
          "name": "_newStrategyFactory",
          "type": "address"
        }
      ],
      "name": "editStrategyFactory",
      "outputs": [],
      "stateMutability": "nonpayable",
      "type": "function"
    },
    {
      "inputs": [
        {
          "internalType": "address",
          "name": "_newStrategyNFT",
          "type": "address"
        }
      ],
      "name": "editStrategyNFT",
      "outputs": [],
      "stateMutability": "nonpayable",
      "type": "function"
    },
    {
      "inputs": [
        {
          "internalType": "address",
          "name": "_newTreasury",
          "type": "address"
        }
      ],
      "name": "editTreasury",
      "outputs": [],
      "stateMutability": "nonpayable",
      "type": "function"
    },
    {
      "inputs": [],
      "name": "enableBABLMiningProgram",
      "outputs": [],
      "stateMutability": "nonpayable",
      "type": "function"
    },
    {
      "inputs": [],
      "name": "enableGardenTokensTransfers",
      "outputs": [],
      "stateMutability": "nonpayable",
      "type": "function"
    },
    {
      "inputs": [
        {
          "internalType": "uint256",
          "name": "",
          "type": "uint256"
        }
      ],
      "name": "enabledOperations",
      "outputs": [
        {
          "internalType": "address",
          "name": "",
          "type": "address"
        }
      ],
      "stateMutability": "view",
      "type": "function"
    },
    {
      "inputs": [],
      "name": "gardenCreationIsOpen",
      "outputs": [
        {
          "internalType": "bool",
          "name": "",
          "type": "bool"
        }
      ],
      "stateMutability": "view",
      "type": "function"
    },
    {
      "inputs": [],
      "name": "gardenCreatorBonus",
      "outputs": [
        {
          "internalType": "uint256",
          "name": "",
          "type": "uint256"
        }
      ],
      "stateMutability": "view",
      "type": "function"
    },
    {
      "inputs": [],
      "name": "gardenFactory",
      "outputs": [
        {
          "internalType": "address",
          "name": "",
          "type": "address"
        }
      ],
      "stateMutability": "view",
      "type": "function"
    },
    {
      "inputs": [],
      "name": "gardenNFT",
      "outputs": [
        {
          "internalType": "address",
          "name": "",
          "type": "address"
        }
      ],
      "stateMutability": "view",
      "type": "function"
    },
    {
      "inputs": [],
      "name": "gardenTokensTransfersEnabled",
      "outputs": [
        {
          "internalType": "bool",
          "name": "",
          "type": "bool"
        }
      ],
      "stateMutability": "view",
      "type": "function"
    },
    {
      "inputs": [],
      "name": "gardenValuer",
      "outputs": [
        {
          "internalType": "address",
          "name": "",
          "type": "address"
        }
      ],
      "stateMutability": "view",
      "type": "function"
    },
    {
      "inputs": [
        {
          "internalType": "uint256",
          "name": "",
          "type": "uint256"
        }
      ],
      "name": "gardens",
      "outputs": [
        {
          "internalType": "address",
          "name": "",
          "type": "address"
        }
      ],
      "stateMutability": "view",
      "type": "function"
    },
    {
      "inputs": [],
      "name": "getBABLSharing",
      "outputs": [
        {
          "internalType": "uint256",
          "name": "",
          "type": "uint256"
        },
        {
          "internalType": "uint256",
          "name": "",
          "type": "uint256"
        },
        {
          "internalType": "uint256",
          "name": "",
          "type": "uint256"
        },
        {
          "internalType": "uint256",
          "name": "",
          "type": "uint256"
        }
      ],
      "stateMutability": "view",
      "type": "function"
    },
    {
      "inputs": [],
      "name": "getGardens",
      "outputs": [
        {
          "internalType": "address[]",
          "name": "",
          "type": "address[]"
        }
      ],
      "stateMutability": "view",
      "type": "function"
    },
    {
      "inputs": [],
      "name": "getOperations",
      "outputs": [
        {
          "internalType": "address[20]",
          "name": "",
          "type": "address[20]"
        }
      ],
      "stateMutability": "view",
      "type": "function"
    },
    {
      "inputs": [],
      "name": "getProfitSharing",
      "outputs": [
        {
          "internalType": "uint256",
          "name": "",
          "type": "uint256"
        },
        {
          "internalType": "uint256",
          "name": "",
          "type": "uint256"
        },
        {
          "internalType": "uint256",
          "name": "",
          "type": "uint256"
        }
      ],
      "stateMutability": "view",
      "type": "function"
    },
    {
      "inputs": [],
      "name": "getReserveAssets",
      "outputs": [
        {
          "internalType": "address[]",
          "name": "",
          "type": "address[]"
        }
      ],
      "stateMutability": "view",
      "type": "function"
    },
    {
      "inputs": [],
      "name": "guardian",
      "outputs": [
        {
          "internalType": "address",
          "name": "",
          "type": "address"
        }
      ],
      "stateMutability": "view",
      "type": "function"
    },
    {
      "inputs": [],
      "name": "guardianGlobalPaused",
      "outputs": [
        {
          "internalType": "bool",
          "name": "",
          "type": "bool"
        }
      ],
      "stateMutability": "view",
      "type": "function"
    },
    {
      "inputs": [
        {
          "internalType": "address",
          "name": "",
          "type": "address"
        }
      ],
      "name": "guardianPaused",
      "outputs": [
        {
          "internalType": "bool",
          "name": "",
          "type": "bool"
        }
      ],
      "stateMutability": "view",
      "type": "function"
    },
    {
      "inputs": [],
      "name": "initialize",
      "outputs": [],
      "stateMutability": "nonpayable",
      "type": "function"
    },
    {
      "inputs": [
        {
          "internalType": "address",
          "name": "",
          "type": "address"
        }
      ],
      "name": "isGarden",
      "outputs": [
        {
          "internalType": "bool",
          "name": "",
          "type": "bool"
        }
      ],
      "stateMutability": "view",
      "type": "function"
    },
    {
      "inputs": [
        {
          "internalType": "address",
          "name": "_contract",
          "type": "address"
        }
      ],
      "name": "isPaused",
      "outputs": [
        {
          "internalType": "bool",
          "name": "",
          "type": "bool"
        }
      ],
      "stateMutability": "view",
      "type": "function"
    },
    {
      "inputs": [
        {
          "internalType": "address",
          "name": "_contractAddress",
          "type": "address"
        }
      ],
      "name": "isSystemContract",
      "outputs": [
        {
          "internalType": "bool",
          "name": "",
          "type": "bool"
        }
      ],
      "stateMutability": "view",
      "type": "function"
    },
    {
      "inputs": [
        {
          "internalType": "address",
          "name": "_keeper",
          "type": "address"
        }
      ],
      "name": "isValidKeeper",
      "outputs": [
        {
          "internalType": "bool",
          "name": "",
          "type": "bool"
        }
      ],
      "stateMutability": "view",
      "type": "function"
    },
    {
      "inputs": [
        {
          "internalType": "address",
          "name": "_reserveAsset",
          "type": "address"
        }
      ],
      "name": "isValidReserveAsset",
      "outputs": [
        {
          "internalType": "bool",
          "name": "",
          "type": "bool"
        }
      ],
      "stateMutability": "view",
      "type": "function"
    },
    {
      "inputs": [],
      "name": "ishtarGate",
      "outputs": [
        {
          "internalType": "address",
          "name": "",
          "type": "address"
        }
      ],
      "stateMutability": "view",
      "type": "function"
    },
    {
      "inputs": [
        {
          "internalType": "address",
          "name": "",
          "type": "address"
        }
      ],
      "name": "keeperList",
      "outputs": [
        {
          "internalType": "bool",
          "name": "",
          "type": "bool"
        }
      ],
      "stateMutability": "view",
      "type": "function"
    },
    {
      "inputs": [],
      "name": "lpsBABLPercentage",
      "outputs": [
        {
          "internalType": "uint256",
          "name": "",
          "type": "uint256"
        }
      ],
      "stateMutability": "view",
      "type": "function"
    },
    {
      "inputs": [],
      "name": "lpsProfitPercentage",
      "outputs": [
        {
          "internalType": "uint256",
          "name": "",
          "type": "uint256"
        }
      ],
      "stateMutability": "view",
      "type": "function"
    },
    {
      "inputs": [],
      "name": "mardukGate",
      "outputs": [
        {
          "internalType": "address",
          "name": "",
          "type": "address"
        }
      ],
      "stateMutability": "view",
      "type": "function"
    },
    {
      "inputs": [],
      "name": "masterSwapper",
      "outputs": [
        {
          "internalType": "address",
          "name": "",
          "type": "address"
        }
      ],
      "stateMutability": "view",
      "type": "function"
    },
    {
      "inputs": [],
      "name": "maxContributorsPerGarden",
      "outputs": [
        {
          "internalType": "uint256",
          "name": "",
          "type": "uint256"
        }
      ],
      "stateMutability": "view",
      "type": "function"
    },
    {
      "inputs": [
        {
          "internalType": "address",
          "name": "",
          "type": "address"
        }
      ],
      "name": "minLiquidityPerReserve",
      "outputs": [
        {
          "internalType": "uint256",
          "name": "",
          "type": "uint256"
        }
      ],
      "stateMutability": "view",
      "type": "function"
    },
    {
      "inputs": [],
      "name": "openPublicGardenCreation",
      "outputs": [],
      "stateMutability": "nonpayable",
      "type": "function"
    },
    {
      "inputs": [],
      "name": "owner",
      "outputs": [
        {
          "internalType": "address",
          "name": "",
          "type": "address"
        }
      ],
      "stateMutability": "view",
      "type": "function"
    },
    {
      "inputs": [],
      "name": "priceOracle",
      "outputs": [
        {
          "internalType": "address",
          "name": "",
          "type": "address"
        }
      ],
      "stateMutability": "view",
      "type": "function"
    },
    {
      "inputs": [],
      "name": "protocolManagementFee",
      "outputs": [
        {
          "internalType": "uint256",
          "name": "",
          "type": "uint256"
        }
      ],
      "stateMutability": "view",
      "type": "function"
    },
    {
      "inputs": [],
      "name": "protocolPerformanceFee",
      "outputs": [
        {
          "internalType": "uint256",
          "name": "",
          "type": "uint256"
        }
      ],
      "stateMutability": "view",
      "type": "function"
    },
    {
      "inputs": [
        {
          "internalType": "address",
          "name": "_garden",
          "type": "address"
        }
      ],
      "name": "removeGarden",
      "outputs": [],
      "stateMutability": "nonpayable",
      "type": "function"
    },
    {
      "inputs": [
        {
          "internalType": "address",
          "name": "_keeper",
          "type": "address"
        }
      ],
      "name": "removeKeeper",
      "outputs": [],
      "stateMutability": "nonpayable",
      "type": "function"
    },
    {
      "inputs": [
        {
          "internalType": "address",
          "name": "_reserveAsset",
          "type": "address"
        }
      ],
      "name": "removeReserveAsset",
      "outputs": [],
      "stateMutability": "nonpayable",
      "type": "function"
    },
    {
      "inputs": [],
      "name": "renounceOwnership",
      "outputs": [],
      "stateMutability": "nonpayable",
      "type": "function"
    },
    {
      "inputs": [
        {
          "internalType": "uint256",
          "name": "",
          "type": "uint256"
        }
      ],
      "name": "reserveAssets",
      "outputs": [
        {
          "internalType": "address",
          "name": "",
          "type": "address"
        }
      ],
      "stateMutability": "view",
      "type": "function"
    },
    {
      "inputs": [],
      "name": "rewardsDistributor",
      "outputs": [
        {
          "internalType": "address",
          "name": "",
          "type": "address"
        }
      ],
      "stateMutability": "view",
      "type": "function"
    },
    {
      "inputs": [],
      "name": "setAllowPublicGardens",
      "outputs": [],
      "stateMutability": "nonpayable",
      "type": "function"
    },
    {
      "inputs": [
        {
          "internalType": "bool",
          "name": "_state",
          "type": "bool"
        }
      ],
      "name": "setGlobalPause",
      "outputs": [
        {
          "internalType": "bool",
          "name": "",
          "type": "bool"
        }
      ],
      "stateMutability": "nonpayable",
      "type": "function"
    },
    {
      "inputs": [
        {
          "internalType": "address",
          "name": "_newDefaultMasterSwapper",
          "type": "address"
        }
      ],
      "name": "setMasterSwapper",
      "outputs": [],
      "stateMutability": "nonpayable",
      "type": "function"
    },
    {
      "inputs": [
        {
          "internalType": "uint256",
          "name": "_newMax",
          "type": "uint256"
        }
      ],
      "name": "setMaxContributorsPerGarden",
      "outputs": [],
      "stateMutability": "nonpayable",
      "type": "function"
    },
    {
      "inputs": [
        {
          "internalType": "uint8",
          "name": "_kind",
          "type": "uint8"
        },
        {
          "internalType": "address",
          "name": "_operation",
          "type": "address"
        }
      ],
      "name": "setOperation",
      "outputs": [],
      "stateMutability": "nonpayable",
      "type": "function"
    },
    {
      "inputs": [
        {
          "internalType": "address",
          "name": "_guardian",
          "type": "address"
        }
      ],
      "name": "setPauseGuardian",
      "outputs": [],
      "stateMutability": "nonpayable",
      "type": "function"
    },
    {
      "inputs": [
        {
          "internalType": "address[]",
          "name": "_address",
          "type": "address[]"
        },
        {
          "internalType": "bool",
          "name": "_state",
          "type": "bool"
        }
      ],
      "name": "setSomePause",
      "outputs": [
        {
          "internalType": "bool",
          "name": "",
          "type": "bool"
        }
      ],
      "stateMutability": "nonpayable",
      "type": "function"
    },
    {
      "inputs": [],
      "name": "stewardsBABLPercentage",
      "outputs": [
        {
          "internalType": "uint256",
          "name": "",
          "type": "uint256"
        }
      ],
      "stateMutability": "view",
      "type": "function"
    },
    {
      "inputs": [],
      "name": "stewardsProfitPercentage",
      "outputs": [
        {
          "internalType": "uint256",
          "name": "",
          "type": "uint256"
        }
      ],
      "stateMutability": "view",
      "type": "function"
    },
    {
      "inputs": [],
      "name": "strategistBABLPercentage",
      "outputs": [
        {
          "internalType": "uint256",
          "name": "",
          "type": "uint256"
        }
      ],
      "stateMutability": "view",
      "type": "function"
    },
    {
      "inputs": [],
      "name": "strategistProfitPercentage",
      "outputs": [
        {
          "internalType": "uint256",
          "name": "",
          "type": "uint256"
        }
      ],
      "stateMutability": "view",
      "type": "function"
    },
    {
      "inputs": [],
      "name": "strategyFactory",
      "outputs": [
        {
          "internalType": "address",
          "name": "",
          "type": "address"
        }
      ],
      "stateMutability": "view",
      "type": "function"
    },
    {
      "inputs": [],
      "name": "strategyNFT",
      "outputs": [
        {
          "internalType": "address",
          "name": "",
          "type": "address"
        }
      ],
      "stateMutability": "view",
      "type": "function"
    },
    {
      "inputs": [
        {
          "internalType": "address",
          "name": "newOwner",
          "type": "address"
        }
      ],
      "name": "transferOwnership",
      "outputs": [],
      "stateMutability": "nonpayable",
      "type": "function"
    },
    {
      "inputs": [],
      "name": "treasury",
      "outputs": [
        {
          "internalType": "address",
          "name": "",
          "type": "address"
        }
      ],
      "stateMutability": "view",
      "type": "function"
    },
    {
      "inputs": [
        {
          "internalType": "address",
          "name": "",
          "type": "address"
        }
      ],
      "name": "validReserveAsset",
      "outputs": [
        {
          "internalType": "bool",
          "name": "",
          "type": "bool"
        }
      ],
      "stateMutability": "view",
      "type": "function"
    }
  ],
  "transactionHash": "0xda18bf01440cdfa68b9da2d1478a5a1fecdd88b06ef5243834d037771f4dcc01",
  "args": [],
  "solcInputHash": "ed2ec88c00452e35674a80f5e8f6c4eb",
  "bytecode": "0x608060405234801561001057600080fd5b5061504c806100206000396000f3fe6080604052600436106105585760003560e01c806369a6b3db116102ca578063bc819ea611610179578063dfaef58f116100d6578063f05017eb1161008a578063f2fde38b1161006f578063f2fde38b14611497578063f948e50a146114ca578063f979cdd91461151857610558565b8063f05017eb14611429578063f142c3bc1461145c57610558565b8063e973f4e9116100bb578063e973f4e9146113ae578063ead4c1cf146113e1578063f04ec547146113f657610558565b8063dfaef58f14611366578063e6e605131461139957610558565b8063cfd180191161012d578063d276cbdc11610112578063d276cbdc14611300578063d6a45aa51461133c578063daec2a1a1461135157610558565b8063cfd18019146112d6578063d196f61f146112eb57610558565b8063c80aad631161015e578063c80aad6314611297578063c8ed947f146112ac578063c9f7f2ed146112c157610558565b8063bc819ea6146111ff578063c2d38e791461126457610558565b80638979042911610227578063ad5c4648116101db578063b0ecdf80116101c0578063b0ecdf8014611166578063b82efd4f14611199578063bc092283146111cc57610558565b8063ad5c46481461111e578063ad9d791d1461113357610558565b80638da5cb5b1161020c5780638da5cb5b146110ca5780639e18eb39146110df5780639ef357101461110957610558565b8063897904291461107c5780638d78fb79146110b557610558565b80638129fc1c1161027e578063867b6efa11610263578063867b6efa1461100157806386f2bc811461103457806388e8dc751461104957610558565b80638129fc1c14610fb957806385d5d03614610fce57610558565b80637177fec9116102af5780637177fec914610f7a5780637c4f0a3614610f8f5780637f80e05b14610fa457610558565b806369a6b3db14610f39578063715018a614610f6557610558565b806337973e5f1161042657806352aeec77116103835780635dc2803a1161033757806361d027b31161031c57806361d027b314610edc57806362a4bf0514610ef15780636968551314610f0657610558565b80635dc2803a14610e7e5780635e192de614610ea957610558565b80635618b5b2116103685780635618b5b214610e03578063568c081314610e365780635b14f18314610e4b57610558565b806352aeec7714610ac35780635616147214610ad857610558565b8063411137c3116103da578063452a9320116103bf578063452a932014610a6657806348bde20c14610a7b5780634a44ff4414610aae57610558565b8063411137c314610a00578063447a136614610a3357610558565b80633f2a55401161040b5780633f2a55401461098e5780634032b72b146109a3578063404c3639146109d657610558565b806337973e5f1461094f578063393bfe491461097957610558565b80632630c12f116104d457806330944c6211610488578063314a83c91161046d578063314a83c914610857578063364d11811461090757806336c148b71461093a57610558565b806330944c621461082d578063313754771461084257610558565b8063294d237c116104b9578063294d237c146107be5780632b9db0bf146107d35780632e0519cf146107fa57610558565b80632630c12f1461079457806327e4acc7146107a957610558565b806316d9c0701161052b57806318b9e2521161051057806318b9e25214610704578063201041981461073757806322c7fa8f1461076157610558565b806316d9c070146106bc57806317a25714146106ef57610558565b80630306f6d21461055d5780630ebdb9a21461062357806313bc6d4b1461065457806314ae9f2e14610687575b600080fd5b34801561056957600080fd5b5061060f6004803603604081101561058057600080fd5b81019060208101813564010000000081111561059b57600080fd5b8201836020820111156105ad57600080fd5b803590602001918460208302840111640100000000831117156105cf57600080fd5b919080806020026020016040519081016040528093929190818152602001838360200280828437600092019190915250929550505050351515905061154b565b604080519115158252519081900360200190f35b34801561062f57600080fd5b5061063861173e565b604080516001600160a01b039092168252519081900360200190f35b34801561066057600080fd5b5061060f6004803603602081101561067757600080fd5b50356001600160a01b0316611752565b34801561069357600080fd5b506106ba600480360360208110156106aa57600080fd5b50356001600160a01b0316611b5b565b005b3480156106c857600080fd5b506106ba600480360360208110156106df57600080fd5b50356001600160a01b0316611c4b565b3480156106fb57600080fd5b506106ba611de5565b34801561071057600080fd5b506106ba6004803603602081101561072757600080fd5b50356001600160a01b0316611e5a565b34801561074357600080fd5b506106386004803603602081101561075a57600080fd5b503561214b565b34801561076d57600080fd5b506106ba6004803603602081101561078457600080fd5b50356001600160a01b031661216b565b3480156107a057600080fd5b506106386122eb565b3480156107b557600080fd5b5061060f6122fa565b3480156107ca57600080fd5b50610638612303565b3480156107df57600080fd5b506107e8612312565b60408051918252519081900360200190f35b34801561080657600080fd5b5061080f612318565b60408051938452602084019290925282820152519081900360600190f35b34801561083957600080fd5b5061060f612326565b34801561084e57600080fd5b506107e8612334565b34801561086357600080fd5b506106ba6004803603602081101561087a57600080fd5b81019060208101813564010000000081111561089557600080fd5b8201836020820111156108a757600080fd5b803590602001918460208302840111640100000000831117156108c957600080fd5b91908080602002602001604051908101604052809392919081815260200183836020028082843760009201919091525092955061233a945050505050565b34801561091357600080fd5b5061060f6004803603602081101561092a57600080fd5b50356001600160a01b03166123f8565b34801561094657600080fd5b506106ba61240d565b34801561095b57600080fd5b506106386004803603602081101561097257600080fd5b50356124d6565b34801561098557600080fd5b5061060f612500565b34801561099a57600080fd5b50610638612509565b3480156109af57600080fd5b506106ba600480360360208110156109c657600080fd5b50356001600160a01b0316612518565b3480156109e257600080fd5b506106ba600480360360208110156109f957600080fd5b503561259e565b348015610a0c57600080fd5b5061060f60048036036020811015610a2357600080fd5b50356001600160a01b0316612645565b348015610a3f57600080fd5b5061060f60048036036020811015610a5657600080fd5b50356001600160a01b0316612663565b348015610a7257600080fd5b50610638612678565b348015610a8757600080fd5b506106ba60048036036020811015610a9e57600080fd5b50356001600160a01b031661268c565b348015610aba57600080fd5b506107e86127f7565b348015610acf57600080fd5b506106ba6127fd565b6106386004803603610120811015610aef57600080fd5b6001600160a01b038235169190810190604081016020820135640100000000811115610b1a57600080fd5b820183602082011115610b2c57600080fd5b80359060200191846001830284011164010000000083111715610b4e57600080fd5b91908080601f0160208091040260200160405190810160405280939291908181526020018383808284376000920191909152509295949360208101935035915050640100000000811115610ba157600080fd5b820183602082011115610bb357600080fd5b80359060200191846001830284011164010000000083111715610bd557600080fd5b91908080601f0160208091040260200160405190810160405280939291908181526020018383808284376000920191909152509295949360208101935035915050640100000000811115610c2857600080fd5b820183602082011115610c3a57600080fd5b80359060200191846001830284011164010000000083111715610c5c57600080fd5b91908080601f01602080910402602001604051908101604052809392919081815260200183838082843760009201919091525092958435959094909350604081019250602001359050640100000000811115610cb757600080fd5b820183602082011115610cc957600080fd5b80359060200191846020830284011164010000000083111715610ceb57600080fd5b91939092823592604081019060200135640100000000811115610d0d57600080fd5b820183602082011115610d1f57600080fd5b80359060200191846020830284011164010000000083111715610d4157600080fd5b9190808060200260200160405190810160405280939291908181526020018383602002808284376000920191909152509295949360208101935035915050640100000000811115610d9157600080fd5b820183602082011115610da357600080fd5b80359060200191846020830284011164010000000083111715610dc557600080fd5b9190808060200260200160405190810160405280939291908181526020018383602002808284376000920191909152509295506128f7945050505050565b348015610e0f57600080fd5b506106ba60048036036020811015610e2657600080fd5b50356001600160a01b03166130b5565b348015610e4257600080fd5b506107e861322a565b348015610e5757600080fd5b5061060f60048036036020811015610e6e57600080fd5b50356001600160a01b0316613230565b348015610e8a57600080fd5b50610e9361325e565b6040805160ff9092168252519081900360200190f35b348015610eb557600080fd5b5061060f60048036036020811015610ecc57600080fd5b50356001600160a01b0316613263565b348015610ee857600080fd5b50610638613278565b348015610efd57600080fd5b5061060f613287565b348015610f1257600080fd5b506106ba60048036036020811015610f2957600080fd5b50356001600160a01b0316613290565b348015610f4557600080fd5b5061060f60048036036020811015610f5c57600080fd5b503515156133a2565b348015610f7157600080fd5b506106ba61350c565b348015610f8657600080fd5b506107e86135b8565b348015610f9b57600080fd5b506107e86135be565b348015610fb057600080fd5b5061060f6135c4565b348015610fc557600080fd5b506106ba6135d3565b348015610fda57600080fd5b506106ba60048036036020811015610ff157600080fd5b50356001600160a01b0316613659565b34801561100d57600080fd5b506106ba6004803603602081101561102457600080fd5b50356001600160a01b031661376b565b34801561104057600080fd5b506107e8613880565b34801561105557600080fd5b506106ba6004803603602081101561106c57600080fd5b50356001600160a01b0316613886565b34801561108857600080fd5b506106ba6004803603604081101561109f57600080fd5b506001600160a01b038135169060200135613a1e565b3480156110c157600080fd5b506107e8613b96565b3480156110d657600080fd5b50610638613b9c565b3480156110eb57600080fd5b506106386004803603602081101561110257600080fd5b5035613bab565b34801561111557600080fd5b50610638613bbb565b34801561112a57600080fd5b50610638613bca565b34801561113f57600080fd5b5061060f6004803603602081101561115657600080fd5b50356001600160a01b0316613be2565b34801561117257600080fd5b5061060f6004803603602081101561118957600080fd5b50356001600160a01b0316613bf7565b3480156111a557600080fd5b506106ba600480360360208110156111bc57600080fd5b50356001600160a01b0316613c0c565b3480156111d857600080fd5b506106ba600480360360208110156111ef57600080fd5b50356001600160a01b0316613d1d565b34801561120b57600080fd5b50611214613e9a565b60408051602080825283518183015283519192839290830191858101910280838360005b83811015611250578181015183820152602001611238565b505050509050019250505060405180910390f35b34801561127057600080fd5b506106ba6004803603602081101561128757600080fd5b50356001600160a01b0316613efc565b3480156112a357600080fd5b50610638614079565b3480156112b857600080fd5b50610638614088565b3480156112cd57600080fd5b506107e8614097565b3480156112e257600080fd5b506107e861409d565b3480156112f757600080fd5b506106ba6140a3565b34801561130c57600080fd5b506106ba6004803603604081101561132357600080fd5b50803560ff1690602001356001600160a01b0316614156565b34801561134857600080fd5b5061063861434f565b34801561135d57600080fd5b5061121461435e565b34801561137257600080fd5b506106ba6004803603602081101561138957600080fd5b50356001600160a01b03166143be565b3480156113a557600080fd5b506106386144d0565b3480156113ba57600080fd5b506106ba600480360360208110156113d157600080fd5b50356001600160a01b03166144df565b3480156113ed57600080fd5b506106386145f1565b34801561140257600080fd5b506106ba6004803603602081101561141957600080fd5b50356001600160a01b0316614600565b34801561143557600080fd5b506107e86004803603602081101561144c57600080fd5b50356001600160a01b031661475c565b34801561146857600080fd5b5061147161476e565b604080519485526020850193909352838301919091526060830152519081900360800190f35b3480156114a357600080fd5b506106ba600480360360208110156114ba57600080fd5b50356001600160a01b0316614780565b3480156114d657600080fd5b506114df614883565b604051808261028080838360005b838110156115055781810151838201526020016114ed565b5050505090500191505060405180910390f35b34801561152457600080fd5b5061060f6004803603602081101561153b57600080fd5b50356001600160a01b03166148c3565b60995460009061010090046001600160a01b0316331480611584575061156f613b9c565b6001600160a01b0316336001600160a01b0316145b6115bf5760405162461bcd60e51b8152600401808060200182810382526034815260200180614f0a6034913960400191505060405180910390fd5b6115c7613b9c565b6001600160a01b0316336001600160a01b031614806115e857506001821515145b611639576040805162461bcd60e51b815260206004820152601660248201527f6f6e6c792061646d696e2063616e20756e706175736500000000000000000000604482015290519081900360640190fd5b60005b83518110156117335782609a600086848151811061165657fe5b60200260200101516001600160a01b03166001600160a01b0316815260200190815260200160002060006101000a81548160ff0219169083151502179055507f14fc4a89e124f9817afd6bc9b8270d50250d5ff6f0711b687f6fa4c34decf1cd8482815181106116c257fe5b6020026020010151846040518080602001846001600160a01b031681526020018315158152602001828103825260198152602001807f477561726469616e20696e646976696475616c20706175736500000000000000815250602001935050505060405180910390a160010161163c565b508190505b92915050565b609b5461010090046001600160a01b031681565b6001600160a01b03811660009081526086602052604081205460ff168061178657506068546001600160a01b038381169116145b8061179e57506069546001600160a01b038381169116145b806117b65750606a546001600160a01b038381169116145b806117ce57506071546001600160a01b038381169116145b806117e65750606d546001600160a01b038381169116145b806117fe5750606b546001600160a01b038381169116145b806118215750816001600160a01b0316611816613b9c565b6001600160a01b0316145b8061183457506001600160a01b03821630145b806118435750611843826148e1565b806119cb575060866000836001600160a01b03166356ba88b86040518163ffffffff1660e01b815260040160206040518083038186803b15801561188657600080fd5b505afa15801561189a573d6000803e3d6000fd5b505050506040513d60208110156118b057600080fd5b50516001600160a01b0316815260208101919091526040016000205460ff1680156119cb5750816001600160a01b03166356ba88b86040518163ffffffff1660e01b815260040160206040518083038186803b15801561190f57600080fd5b505afa158015611923573d6000803e3d6000fd5b505050506040513d602081101561193957600080fd5b5051604080517f3a8219250000000000000000000000000000000000000000000000000000000081526001600160a01b03858116600483015291519190921691633a821925916024808301926020929190829003018186803b15801561199e57600080fd5b505afa1580156119b2573d6000803e3d6000fd5b505050506040513d60208110156119c857600080fd5b50515b80611b53575060866000836001600160a01b03166356ba88b86040518163ffffffff1660e01b815260040160206040518083038186803b158015611a0e57600080fd5b505afa158015611a22573d6000803e3d6000fd5b505050506040513d6020811015611a3857600080fd5b50516001600160a01b0316815260208101919091526040016000205460ff168015611b535750816001600160a01b03166356ba88b86040518163ffffffff1660e01b815260040160206040518083038186803b158015611a9757600080fd5b505afa158015611aab573d6000803e3d6000fd5b505050506040513d6020811015611ac157600080fd5b5051604080517f06061dfa0000000000000000000000000000000000000000000000000000000081526001600160a01b038581166004830152915191909216916306061dfa916024808301926020929190829003018186803b158015611b2657600080fd5b505afa158015611b3a573d6000803e3d6000fd5b505050506040513d6020811015611b5057600080fd5b50515b90505b919050565b611b63614931565b6001600160a01b0316611b74613b9c565b6001600160a01b031614611bbd576040805162461bcd60e51b81526020600482018190526024820152600080516020614f6c833981519152604482015290519081900360640190fd5b6001600160a01b03811660009081526089602052604090205460ff16611c2a576040805162461bcd60e51b815260206004820152601560248201527f4b65657065722069732077686974656c69737465640000000000000000000000604482015290519081900360640190fd5b6001600160a01b03166000908152608960205260409020805460ff19169055565b611c53614931565b6001600160a01b0316611c64613b9c565b6001600160a01b031614611cad576040805162461bcd60e51b81526020600482018190526024820152600080516020614f6c833981519152604482015290519081900360640190fd5b609b546001600160a01b03828116610100909204161415611d15576040805162461bcd60e51b815260206004820152601a60248201527f4d617264756b204761746520616c726561647920657869737473000000000000604482015290519081900360640190fd5b6001600160a01b038116611d70576040805162461bcd60e51b815260206004820152601d60248201527f4d617264756b2047617465206f7261636c65206d757374206578697374000000604482015290519081900360640190fd5b609b80546001600160a01b0383811661010081810274ffffffffffffffffffffffffffffffffffffffff001985161790945560408051918252939092041660208201819052825190927f345fc59169aa2ad8a518c40e50702bc683495ac687515df9441cabc39eef54ff928290030190a15050565b611ded614931565b6001600160a01b0316611dfe613b9c565b6001600160a01b031614611e47576040805162461bcd60e51b81526020600482018190526024820152600080516020614f6c833981519152604482015290519081900360640190fd5b6093805462ff0000191662010000179055565b611e62614931565b6001600160a01b0316611e73613b9c565b6001600160a01b031614611ebc576040805162461bcd60e51b81526020600482018190526024820152600080516020614f6c833981519152604482015290519081900360640190fd5b6001600160a01b03811660009081526086602052604090205460ff16611f29576040805162461bcd60e51b815260206004820152601560248201527f47617264656e20646f6573206e6f742065786973740000000000000000000000604482015290519081900360640190fd5b806001600160a01b031663b49a60bb6040518163ffffffff1660e01b815260040160006040518083038186803b158015611f6257600080fd5b505afa158015611f76573d6000803e3d6000fd5b505050506040513d6000823e601f3d908101601f191682016040526020811015611f9f57600080fd5b8101908080516040519392919084640100000000821115611fbf57600080fd5b908301906020820185811115611fd457600080fd5b8251866020820283011164010000000082111715611ff157600080fd5b82525081516020918201928201910280838360005b8381101561201e578181015183820152602001612006565b5050505090500160405250505051600014612080576040805162461bcd60e51b815260206004820152601d60248201527f47617264656e2068617320616374697665207374726174656769657321000000604482015290519081900360640190fd5b6120ed8160658054806020026020016040519081016040528092919081815260200182805480156120da57602002820191906000526020600020905b81546001600160a01b031681526001909101906020018083116120bc575b505050505061493590919063ffffffff16565b805161210191606591602090910190614ded565b506001600160a01b038116600081815260866020526040808220805460ff19169055517fb52dedfe431c6250e847edee5dca0a14cfaad5c6626218f99bd60c8ad9939a9f9190a250565b6072816014811061215b57600080fd5b01546001600160a01b0316905081565b612173614931565b6001600160a01b0316612184613b9c565b6001600160a01b0316146121cd576040805162461bcd60e51b81526020600482018190526024820152600080516020614f6c833981519152604482015290519081900360640190fd5b606c546001600160a01b0382811691161415612230576040805162461bcd60e51b815260206004820152601a60248201527f497368746172204761746520616c726561647920657869737473000000000000604482015290519081900360640190fd5b6001600160a01b03811661228b576040805162461bcd60e51b815260206004820152601d60248201527f4973687461722047617465206f7261636c65206d757374206578697374000000604482015290519081900360640190fd5b606c80546001600160a01b038381166001600160a01b03198316811790935560408051938452911660208301819052815190927f9d8291abf2224012a00e3e6cb815777395423c95684705c6a799205e926f38d492908290030190a15050565b6069546001600160a01b031681565b60995460ff1681565b6068546001600160a01b031681565b60915481565b608c54608d54608e54909192565b609354610100900460ff1681565b60955481565b612342614931565b6001600160a01b0316612353613b9c565b6001600160a01b03161461239c576040805162461bcd60e51b81526020600482018190526024820152600080516020614f6c833981519152604482015290519081900360640190fd5b60005b81518110156123f4576001608960008484815181106123ba57fe5b6020908102919091018101516001600160a01b03168252810191909152604001600020805460ff191691151591909117905560010161239f565b5050565b60866020526000908152604090205460ff1681565b612415614931565b6001600160a01b0316612426613b9c565b6001600160a01b03161461246f576040805162461bcd60e51b81526020600482018190526024820152600080516020614f6c833981519152604482015290519081900360640190fd5b6361d00a0042116124c7576040805162461bcd60e51b815260206004820152601f60248201527f5472616e73666572732063616e6e6f7420626520656e61626c65642079657400604482015290519081900360640190fd5b6093805460ff19166001179055565b606681815481106124e657600080fd5b6000918252602090912001546001600160a01b0316905081565b60935460ff1681565b606b546001600160a01b031681565b612520614931565b6001600160a01b0316612531613b9c565b6001600160a01b03161461257a576040805162461bcd60e51b81526020600482018190526024820152600080516020614f6c833981519152604482015290519081900360640190fd5b6001600160a01b03166000908152608960205260409020805460ff19166001179055565b6125a6614931565b6001600160a01b03166125b7613b9c565b6001600160a01b031614612600576040805162461bcd60e51b81526020600482018190526024820152600080516020614f6c833981519152604482015290519081900360640190fd5b60018110156126405760405162461bcd60e51b815260040180806020018281038252602d815260200180614ead602d913960400191505060405180910390fd5b609855565b6001600160a01b031660009081526089602052604090205460ff1690565b609a6020526000908152604090205460ff1681565b60995461010090046001600160a01b031681565b60995461010090046001600160a01b03163314806126c257506126ad613b9c565b6001600160a01b0316336001600160a01b0316145b6126fd5760405162461bcd60e51b8152600401808060200182810382526037815260200180614f8c6037913960400191505060405180910390fd5b612705613b9c565b6001600160a01b0316336001600160a01b0316148061272c57506001600160a01b03811615155b61277d576040805162461bcd60e51b815260206004820152601e60248201527f477561726469616e2063616e6e6f742072656d6f76652068696d73656c660000604482015290519081900360640190fd5b609980546001600160a01b0383811661010081810274ffffffffffffffffffffffffffffffffffffffff00198516179094556040805194909304919091168084526020840191909152815190927f0613b6ee6a04f0d09f390e4d9318894b9f6ac7fd83897cd8d18896ba579c401e92908290030190a15050565b60905481565b612805614931565b6001600160a01b0316612816613b9c565b6001600160a01b03161461285f576040805162461bcd60e51b81526020600482018190526024820152600080516020614f6c833981519152604482015290519081900360640190fd5b609354610100900460ff166128f5576093805461ff001916610100179055606b54604080517f79fc904f00000000000000000000000000000000000000000000000000000000815290516001600160a01b03909216916379fc904f9160048082019260009290919082900301818387803b1580156128dc57600080fd5b505af11580156128f0573d6000803e3d6000fd5b505050505b565b6071546000906001600160a01b0316612957576040805162461bcd60e51b815260206004820181905260248201527f4e65656420612064656661756c7420747261646520696e746567726174696f6e604482015290519081900360640190fd5b609b54604080517f7804a5dc00000000000000000000000000000000000000000000000000000000815233600482015290516101009092046001600160a01b031691637804a5dc91602480820192602092909190829003018186803b1580156129bf57600080fd5b505afa1580156129d3573d6000803e3d6000fd5b505050506040513d60208110156129e957600080fd5b5051806129f8575060995460ff165b612a335760405162461bcd60e51b8152600401808060200182810382526027815260200180614fc36027913960400191505060405180910390fd5b6000606a60009054906101000a90046001600160a01b03166001600160a01b0316638853932d8d338e8e8e8e8e8e8e8e6040518b63ffffffff1660e01b8152600401808b6001600160a01b031681526020018a6001600160a01b03168152602001806020018060200180602001898152602001806020018781526020018060200186810386528e818151815260200191508051906020019080838360005b83811015612ae9578181015183820152602001612ad1565b50505050905090810190601f168015612b165780820380516001836020036101000a031916815260200191505b5086810385528d5181528d516020918201918f019080838360005b83811015612b49578181015183820152602001612b31565b50505050905090810190601f168015612b765780820380516001836020036101000a031916815260200191505b5086810384528c5181528c516020918201918e019080838360005b83811015612ba9578181015183820152602001612b91565b50505050905090810190601f168015612bd65780820380516001836020036101000a031916815260200191505b5086810383528a8a828181526020019250602002808284376000838201819052601f909101601f19169092018881038452895181528951602091820193828c0193509102908190849084905b83811015612c3a578181015183820152602001612c22565b505050509050019f50505050505050505050505050505050602060405180830381600087803b158015612c6c57600080fd5b505af1158015612c80573d6000803e3d6000fd5b505050506040513d6020811015612c9657600080fd5b505190506001600160a01b038c1673c02aaa39b223fe8d0a0e5c4f27ead9083c756cc2141580612cc4575034155b15612dfc57604080517f23b872dd0000000000000000000000000000000000000000000000000000000081523360048201523060248201526044810187905290516001600160a01b038e16916323b872dd9160648083019260209291908290030181600087803b158015612d3757600080fd5b505af1158015612d4b573d6000803e3d6000fd5b505050506040513d6020811015612d6157600080fd5b5050604080517f095ea7b30000000000000000000000000000000000000000000000000000000081526001600160a01b038381166004830152602482018890529151918e169163095ea7b3916044808201926020929091908290030181600087803b158015612dcf57600080fd5b505af1158015612de3573d6000803e3d6000fd5b505050506040513d6020811015612df957600080fd5b50505b6001600160a01b03811660009081526086602052604090205460ff1615612e6a576040805162461bcd60e51b815260206004820152601560248201527f47617264656e20616c7265616479206578697374730000000000000000000000604482015290519081900360640190fd5b6001600160a01b038116600081815260866020526040808220805460ff191660019081179091556065805480830182559084527f8ff97419363ffd7000167f130ef7168fbea05faf9251824ca5043f113cc6a7c70180546001600160a01b0319168517905581517f695f3f5d000000000000000000000000000000000000000000000000000000008152600481018a9052602481018a90523360448201526064810191909152905163695f3f5d9234926084808201939182900301818588803b158015612f3657600080fd5b505af1158015612f4a573d6000803e3d6000fd5b505050505082600081518110612f5c57fe5b60200260200101516000141580612f88575082600181518110612f7b57fe5b6020026020010151600014155b80612fa8575082600281518110612f9b57fe5b6020026020010151600014155b1561307057606b5483516001600160a01b03909116906380334dbe9083908690600090612fd157fe5b602002602001015186600181518110612fe657fe5b602002602001015187600281518110612ffb57fe5b60200260200101516040518563ffffffff1660e01b815260040180856001600160a01b03168152602001848152602001838152602001828152602001945050505050600060405180830381600087803b15801561305757600080fd5b505af115801561306b573d6000803e3d6000fd5b505050505b60405133906001600160a01b038316907f3f9c315348eaae54d760380967a68b458af53312321328f584799f93283dc1de90600090a39b9a5050505050505050505050565b6130bd614931565b6001600160a01b03166130ce613b9c565b6001600160a01b031614613117576040805162461bcd60e51b81526020600482018190526024820152600080516020614f6c833981519152604482015290519081900360640190fd5b6001600160a01b03811661316a576040805162461bcd60e51b8152602060048201526015602482015274041646472657373206d757374206e6f74206265203605c1b604482015290519081900360640190fd5b6071546001600160a01b03828116911614156131cd576040805162461bcd60e51b815260206004820152601960248201527f41646472657373206d75737420626520646966666572656e7400000000000000604482015290519081900360640190fd5b607180546001600160a01b038381166001600160a01b031983168117909355604080519190921680825291519192917fdc1fc9970870c3bb1ad5fce4186165c260c6492487c580adc8b8e361055ac9889181900360200190a25050565b60945481565b609b5460009060ff1680611b535750506001600160a01b03166000908152609a602052604090205460ff1690565b601481565b60896020526000908152604090205460ff1681565b608b546001600160a01b031681565b609b5460ff1681565b613298614931565b6001600160a01b03166132a9613b9c565b6001600160a01b0316146132f2576040805162461bcd60e51b81526020600482018190526024820152600080516020614f6c833981519152604482015290519081900360640190fd5b6001600160a01b038116613345576040805162461bcd60e51b8152602060048201526015602482015274041646472657373206d757374206e6f74206265203605c1b604482015290519081900360640190fd5b606d80546001600160a01b038381166001600160a01b031983168117909355604080519190921680825291519192917f57c1ea229271e944c7d975557caf535c1c974708de760613121827217db4ce8f9181900360200190a25050565b60995460009061010090046001600160a01b03163314806133db57506133c6613b9c565b6001600160a01b0316336001600160a01b0316145b6134165760405162461bcd60e51b8152600401808060200182810382526030815260200180614eda6030913960400191505060405180910390fd5b61341e613b9c565b6001600160a01b0316336001600160a01b0316148061343f57506001821515145b613490576040805162461bcd60e51b815260206004820152601660248201527f6f6e6c792061646d696e2063616e20756e706175736500000000000000000000604482015290519081900360640190fd5b609b805483151560ff1990911681179091556040805160208101929092528082526015828201527f477561726469616e20676c6f62616c20706175736500000000000000000000006060830152517fef159d9a32b2472e32b098f954f3ce62d232939f1c207070b584df1814de2de09181900360800190a15090565b613514614931565b6001600160a01b0316613525613b9c565b6001600160a01b03161461356e576040805162461bcd60e51b81526020600482018190526024820152600080516020614f6c833981519152604482015290519081900360640190fd5b6033546040516000916001600160a01b0316907f8be0079c531659141344cd1fd0a4f28419497f9722a3daafe3b4186f6b6457e0908390a3603380546001600160a01b0319169055565b60985481565b608c5481565b60935462010000900460ff1681565b6135db6149b2565b6611c37937e0800060955566b1a2bc2ec5000060948190556000609681905560975567016345785d8a0000608c55608d55670b1a2bc2ec500000608e5567011c37937e080000608f5567025bf6196bd10000609055670a688906bd8b0000609155670214e8348c4f000060925560646098556099805460ff19169055565b613661614931565b6001600160a01b0316613672613b9c565b6001600160a01b0316146136bb576040805162461bcd60e51b81526020600482018190526024820152600080516020614f6c833981519152604482015290519081900360640190fd5b6001600160a01b03811661370e576040805162461bcd60e51b8152602060048201526015602482015274041646472657373206d757374206e6f74206265203605c1b604482015290519081900360640190fd5b606b80546001600160a01b038381166001600160a01b031983168117909355604080519190921680825291519192917f52cd8e0a7f86e9df123b3357ab2ee1c4cd0f5ac84ca8c98d93beb2679b2bb8069181900360200190a25050565b613773614931565b6001600160a01b0316613784613b9c565b6001600160a01b0316146137cd576040805162461bcd60e51b81526020600482018190526024820152600080516020614f6c833981519152604482015290519081900360640190fd5b6001600160a01b038116613820576040805162461bcd60e51b8152602060048201526015602482015274041646472657373206d757374206e6f74206265203605c1b604482015290519081900360640190fd5b608b80546001600160a01b038381166001600160a01b03198316811790935560408051938452911660208301819052815190927f8c3aa5f43a388513435861bf27dfad7829cd248696fed367c62d441f6295449692908290030190a15050565b60925481565b61388e614931565b6001600160a01b031661389f613b9c565b6001600160a01b0316146138e8576040805162461bcd60e51b81526020600482018190526024820152600080516020614f6c833981519152604482015290519081900360640190fd5b6001600160a01b03811660009081526087602052604090205460ff16613955576040805162461bcd60e51b815260206004820152601c60248201527f5265736572766520617373657420646f6573206e6f7420657869737400000000604482015290519081900360640190fd5b6139c08160668054806020026020016040519081016040528092919081815260200182805480156120da576020028201919060005260206000209081546001600160a01b031681526001909101906020018083116120bc57505050505061493590919063ffffffff16565b80516139d491606691602090910190614ded565b506001600160a01b038116600081815260876020526040808220805460ff19169055517f2a4ae73bc76175e864e83c9843f11cf15a1bfcfa73152fb96d133416efee48ed9190a250565b613a26614931565b6001600160a01b0316613a37613b9c565b6001600160a01b031614613a80576040805162461bcd60e51b81526020600482018190526024820152600080516020614f6c833981519152604482015290519081900360640190fd5b60008111613ad5576040805162461bcd60e51b815260206004820152601d60248201527f5f6d696e5269736b79506169724c6971756964697479457468203e2030000000604482015290519081900360640190fd5b6001600160a01b03821660009081526087602052604090205460ff16613b42576040805162461bcd60e51b815260206004820152601b60248201527f4e6565647320746f20626520612076616c696420726573657276650000000000604482015290519081900360640190fd5b6001600160a01b0382166000818152608a6020908152604091829020849055815184815291517fb78c51bc9bffa228585b84c38a0234fe0a48eb7aeb9f7a6a7a46f0ddd3270dd59281900390910190a25050565b608e5481565b6000613ba6614a64565b905090565b606581815481106124e657600080fd5b606d546001600160a01b031681565b73c02aaa39b223fe8d0a0e5c4f27ead9083c756cc281565b60886020526000908152604090205460ff1681565b60876020526000908152604090205460ff1681565b613c14614931565b6001600160a01b0316613c25613b9c565b6001600160a01b031614613c6e576040805162461bcd60e51b81526020600482018190526024820152600080516020614f6c833981519152604482015290519081900360640190fd5b6001600160a01b038116613cc1576040805162461bcd60e51b8152602060048201526015602482015274041646472657373206d757374206e6f74206265203605c1b604482015290519081900360640190fd5b606f80546001600160a01b038381166001600160a01b031983168117909355604080519190921680825291519192917e40167ea3901ef812c672b081813db3c0fc117c302ace151f1f9a907906e1669181900360200190a25050565b613d25614931565b6001600160a01b0316613d36613b9c565b6001600160a01b031614613d7f576040805162461bcd60e51b81526020600482018190526024820152600080516020614f6c833981519152604482015290519081900360640190fd5b6068546001600160a01b0382811691161415613de2576040805162461bcd60e51b815260206004820152601c60248201527f47617264656e2056616c75657220616c72656164792065786973747300000000604482015290519081900360640190fd5b6001600160a01b038116613e3d576040805162461bcd60e51b815260206004820152601860248201527f47617264656e2056616c756572206d7573742065786973740000000000000000604482015290519081900360640190fd5b606880546001600160a01b038381166001600160a01b031983168117909355604080519190921680825291519192917fb89b871cab0fe1b2d8c7cc3e16640ef9a9bf67f031e44947331820e025bf69479181900360200190a25050565b60606066805480602002602001604051908101604052809291908181526020018280548015613ef257602002820191906000526020600020905b81546001600160a01b03168152600190910190602001808311613ed4575b5050505050905090565b613f04614931565b6001600160a01b0316613f15613b9c565b6001600160a01b031614613f5e576040805162461bcd60e51b81526020600482018190526024820152600080516020614f6c833981519152604482015290519081900360640190fd5b6069546001600160a01b0382811691161415613fc1576040805162461bcd60e51b815260206004820152601b60248201527f5072696365206f7261636c6520616c7265616479206578697374730000000000604482015290519081900360640190fd5b6001600160a01b03811661401c576040805162461bcd60e51b815260206004820152601760248201527f5072696365206f7261636c65206d757374206578697374000000000000000000604482015290519081900360640190fd5b606980546001600160a01b038381166001600160a01b031983168117909355604080519190921680825291519192917f40bddd72ea96b80dae14e3d13e8ce2c4ecd2500d88c6c0004d24a00deab28f9c9181900360200190a25050565b606a546001600160a01b031681565b606c546001600160a01b031681565b608d5481565b608f5481565b6140ab614931565b6001600160a01b03166140bc613b9c565b6001600160a01b031614614105576040805162461bcd60e51b81526020600482018190526024820152600080516020614f6c833981519152604482015290519081900360640190fd5b60995460ff16156141475760405162461bcd60e51b815260040180806020018281038252602d815260200180614fea602d913960400191505060405180910390fd5b6099805460ff19166001179055565b61415e614931565b6001600160a01b031661416f613b9c565b6001600160a01b0316146141b8576040805162461bcd60e51b81526020600482018190526024820152600080516020614f6c833981519152604482015290519081900360640190fd5b601460ff831610614210576040805162461bcd60e51b815260206004820152601660248201527f4d6178206f7065726174696f6e73207265616368656400000000000000000000604482015290519081900360640190fd5b806001600160a01b031660728360ff166014811061422a57fe5b01546001600160a01b03161415614288576040805162461bcd60e51b815260206004820152601560248201527f4f7065726174696f6e20616c7265616479207365740000000000000000000000604482015290519081900360640190fd5b6001600160a01b0381166142e3576040805162461bcd60e51b815260206004820152601d60248201527f4f7065726174696f6e2061646472657373206d7573742065786973742e000000604482015290519081900360640190fd5b8060728360ff16601481106142f457fe5b0180546001600160a01b039283166001600160a01b03199091161790556040805191831682525160ff8416917f2dc23b4bb2132388a8a9f2d4a7ec650d42dcd4c1c63e6495756fa25e8ecc6abd919081900360200190a25050565b606f546001600160a01b031681565b60606065805480602002602001604051908101604052809291908181526020018280548015613ef2576020028201919060005260206000209081546001600160a01b03168152600190910190602001808311613ed4575050505050905090565b6143c6614931565b6001600160a01b03166143d7613b9c565b6001600160a01b031614614420576040805162461bcd60e51b81526020600482018190526024820152600080516020614f6c833981519152604482015290519081900360640190fd5b6001600160a01b038116614473576040805162461bcd60e51b8152602060048201526015602482015274041646472657373206d757374206e6f74206265203605c1b604482015290519081900360640190fd5b606e80546001600160a01b038381166001600160a01b031983168117909355604080519190921680825291519192917f578086cc379999d712cf9ea4c177a02b092c028a84cf82d2dd590f2606b3169f9181900360200190a25050565b6071546001600160a01b031681565b6144e7614931565b6001600160a01b03166144f8613b9c565b6001600160a01b031614614541576040805162461bcd60e51b81526020600482018190526024820152600080516020614f6c833981519152604482015290519081900360640190fd5b6001600160a01b038116614594576040805162461bcd60e51b8152602060048201526015602482015274041646472657373206d757374206e6f74206265203605c1b604482015290519081900360640190fd5b606a80546001600160a01b038381166001600160a01b031983168117909355604080519190921680825291519192917f1e3307b8b00f4ec731298a869e9665a2662abd65a0e3fe9dd01fd53c35b0ae939181900360200190a25050565b606e546001600160a01b031681565b614608614931565b6001600160a01b0316614619613b9c565b6001600160a01b031614614662576040805162461bcd60e51b81526020600482018190526024820152600080516020614f6c833981519152604482015290519081900360640190fd5b6001600160a01b03811660009081526087602052604090205460ff16156146d0576040805162461bcd60e51b815260206004820152601b60248201527f5265736572766520617373657420616c72656164792061646465640000000000604482015290519081900360640190fd5b6001600160a01b038116600081815260876020526040808220805460ff1916600190811790915560668054918201815583527f46501879b8ca8525e8c2fd519e2fbfcfa2ebea26501294aa02cbfcfb12e943540180546001600160a01b03191684179055517f9fef46e320a4767c320315d2f597ee79c1e17c3c3330d026764d6a7dac8fcd5c9190a250565b608a6020526000908152604090205481565b608f5460905460915460925490919293565b614788614931565b6001600160a01b0316614799613b9c565b6001600160a01b0316146147e2576040805162461bcd60e51b81526020600482018190526024820152600080516020614f6c833981519152604482015290519081900360640190fd5b6001600160a01b0381166148275760405162461bcd60e51b8152600401808060200182810382526026815260200180614e876026913960400191505060405180910390fd5b6033546040516001600160a01b038084169216907f8be0079c531659141344cd1fd0a4f28419497f9722a3daafe3b4186f6b6457e090600090a3603380546001600160a01b0319166001600160a01b0392909216919091179055565b61488b614e52565b60408051610280810191829052607280546001600160a01b031682529091601490607360208501808311613ed4575050505050905090565b6001600160a01b031660009081526087602052604090205460ff1690565b6000805b601460ff821610156149285760728160ff166014811061490157fe5b01546001600160a01b0384811691161415614920576001915050611b56565b6001016148e5565b50600092915050565b3390565b60606000806149448585614a73565b915091508061499a576040805162461bcd60e51b815260206004820152601560248201527f41646472657373206e6f7420696e2061727261792e0000000000000000000000604482015290519081900360640190fd5b60006149a68684614ad9565b50935061173892505050565b600054610100900460ff16806149cb57506149cb614c3d565b806149d9575060005460ff16155b614a145760405162461bcd60e51b815260040180806020018281038252602e815260200180614f3e602e913960400191505060405180910390fd5b600054610100900460ff16158015614a3f576000805460ff1961ff0019909116610100171660011790555b614a47614c4e565b614a4f614cee565b8015614a61576000805461ff00191690555b50565b6033546001600160a01b031690565b81516000908190815b81811015614ac657846001600160a01b0316868281518110614a9a57fe5b60200260200101516001600160a01b03161415614abe57925060019150614ad29050565b600101614a7c565b50600019600092509250505b9250929050565b8151606090600090808410614b35576040805162461bcd60e51b815260206004820152601860248201527f496e646578206d757374206265203c2041206c656e6774680000000000000000604482015290519081900360640190fd5b60006001820367ffffffffffffffff81118015614b5157600080fd5b50604051908082528060200260200182016040528015614b7b578160200160208202803683370190505b50905060005b85811015614bc957868181518110614b9557fe5b6020026020010151828281518110614ba957fe5b6001600160a01b0390921660209283029190910190910152600101614b81565b50600185015b82811015614c1a57868181518110614be357fe5b6020026020010151826001830381518110614bfa57fe5b6001600160a01b0390921660209283029190910190910152600101614bcf565b5080868681518110614c2857fe5b60200260200101519350935050509250929050565b6000614c4830614de7565b15905090565b600054610100900460ff1680614c675750614c67614c3d565b80614c75575060005460ff16155b614cb05760405162461bcd60e51b815260040180806020018281038252602e815260200180614f3e602e913960400191505060405180910390fd5b600054610100900460ff16158015614a4f576000805460ff1961ff0019909116610100171660011790558015614a61576000805461ff001916905550565b600054610100900460ff1680614d075750614d07614c3d565b80614d15575060005460ff16155b614d505760405162461bcd60e51b815260040180806020018281038252602e815260200180614f3e602e913960400191505060405180910390fd5b600054610100900460ff16158015614d7b576000805460ff1961ff0019909116610100171660011790555b6000614d85614931565b603380546001600160a01b0319166001600160a01b038316908117909155604051919250906000907f8be0079c531659141344cd1fd0a4f28419497f9722a3daafe3b4186f6b6457e0908290a3508015614a61576000805461ff001916905550565b3b151590565b828054828255906000526020600020908101928215614e42579160200282015b82811115614e4257825182546001600160a01b0319166001600160a01b03909116178255602090920191600190910190614e0d565b50614e4e929150614e71565b5090565b6040518061028001604052806014906020820280368337509192915050565b5b80821115614e4e5760008155600101614e7256fe4f776e61626c653a206e6577206f776e657220697320746865207a65726f2061646472657373436f6e7472696275746f72732063616e6e6f74206265206c657373207468616e2031207065722067617264656e6f6e6c7920706175736520677561726469616e20616e64206f776e65722063616e20706175736520676c6f62616c6c796f6e6c7920706175736520677561726469616e20616e64206f776e65722063616e20706175736520696e646976696475616c6c79496e697469616c697a61626c653a20636f6e747261637420697320616c726561647920696e697469616c697a65644f776e61626c653a2063616c6c6572206973206e6f7420746865206f776e65726f6e6c7920706175736520677561726469616e20616e64206f776e65722063616e2075706461746520706175736520677561726469616e5573657220646f6573206e6f742068617665206372656174696f6e207065726d697373696f6e7347617264656e206372656174696f6e20697320616c7265616479206f70656e20746f20746865207075626c6963a2646970667358221220bea3fe038abd54e7dd50738d8c8e43c810d0f2eacf38538eece55af715abc45264736f6c63430007060033",
  "devdoc": {
    "kind": "dev",
    "methods": {
      "addKeeper(address)": {
        "params": {
          "_keeper": "Address of the keeper"
        }
      },
      "addKeepers(address[])": {
        "params": {
          "_keepers": "List with keeprs of the assets to whitelist"
        }
      },
      "addReserveAsset(address)": {
        "params": {
          "_reserveAsset": "Address of the reserve assset"
        }
      },
      "createGarden(address,string,string,string,uint256,uint256[],uint256,bool[],uint256[])": {
        "params": {
          "_gardenParams": "Array of numeric garden params",
          "_initialContribution": "Initial contribution by the gardener",
          "_name": "Name of the Garden",
          "_profitSharing": "Custom profit sharing (if any)",
          "_publicGardenStrategistsStewards": "Public garden, public strategist rights and public stewards rights",
          "_reserveAsset": "Reserve asset of the Garden. Initially just weth",
          "_seed": "Seed to regenerate the garden NFT",
          "_symbol": "Symbol of the Garden",
          "_tokenURI": "Garden NFT token URI"
        }
      },
      "editGardenFactory(address)": {
        "params": {
          "_newGardenFactory": "Address of the new garden factory"
        }
      },
      "editGardenNFT(address)": {
        "params": {
          "_newGardenNFT": "Address of the new garden NFT"
        }
      },
      "editGardenValuer(address)": {
        "params": {
          "_gardenValuer": "Address of the new garden valuer"
        }
      },
      "editIshtarGate(address)": {
        "params": {
          "_ishtarGate": "Address of the new Ishtar Gate"
        }
      },
      "editLiquidityReserve(address,uint256)": {
        "params": {
          "_newMinLiquidityReserve": "Absolute min liquidity of an asset to grab price",
          "_reserve": "Address of the reserve to edit"
        }
      },
      "editMardukGate(address)": {
        "params": {
          "_mardukGate": "Address of the new Marduk Gate"
        }
      },
      "editPriceOracle(address)": {
        "params": {
          "_priceOracle": "Address of the new price oracle"
        }
      },
      "editRewardsDistributor(address)": {
        "params": {
          "_newRewardsDistributor": "Address of the new rewards distributor"
        }
      },
      "editStrategyFactory(address)": {
        "params": {
          "_newStrategyFactory": "Address of the new strategy factory"
        }
      },
      "editStrategyNFT(address)": {
        "params": {
          "_newStrategyNFT": "Address of the new strategy NFT"
        }
      },
      "editTreasury(address)": {
        "params": {
          "_newTreasury": "Address of the new protocol fee recipient"
        }
      },
      "getBABLSharing()": {
        "returns": {
          "_0": "Strategist, Stewards, Lps, creator bonus"
        }
      },
      "getProfitSharing()": {
        "returns": {
          "_0": "Strategist, Stewards, Lps, creator bonus"
        }
      },
      "isPaused(address)": {
        "params": {
          "_contract": "Smartcontract address to check for a global or specific pause"
        }
      },
      "isSystemContract(address)": {
        "params": {
          "_contractAddress": "The contract address to check"
        }
      },
      "removeGarden(address)": {
        "params": {
          "_garden": "Address of the Garden contract to remove"
        }
      },
      "removeKeeper(address)": {
        "params": {
          "_keeper": "Address of the keeper"
        }
      },
      "removeReserveAsset(address)": {
        "params": {
          "_reserveAsset": "Address of the reserve asset to remove"
        }
      },
      "renounceOwnership()": {
        "details": "Leaves the contract without owner. It will not be possible to call `onlyOwner` functions anymore. Can only be called by the current owner. NOTE: Renouncing ownership will leave the contract without an owner, thereby removing any functionality that is only available to the owner."
      },
      "setGlobalPause(bool)": {
        "params": {
          "_state": "True to pause, false to unpause."
        }
      },
      "setMasterSwapper(address)": {
        "params": {
          "_newDefaultMasterSwapper": "Address of the new default trade integration"
        }
      },
      "setOperation(uint8,address)": {
        "params": {
          "_kind": "Operation kind",
          "_operation": "Address of the operation contract to set"
        }
      },
      "setPauseGuardian(address)": {
        "params": {
          "_guardian": "Address of the guardian"
        }
      },
      "setSomePause(address[],bool)": {
        "params": {
          "_address": "Addresses of protocol smartcontract to be paused",
          "_state": "Boolean pause state"
        }
      },
      "transferOwnership(address)": {
        "details": "Transfers ownership of the contract to a new account (`newOwner`). Can only be called by the current owner."
      }
    },
    "version": 1
  },
  "userdoc": {
    "events": {
      "ActionPaused(string,bool)": {
        "notice": "Emitted when an action is paused globally"
      },
      "ActionPausedIndividually(string,address,bool)": {
        "notice": "Emitted when an action is paused individually"
      },
      "NewPauseGuardian(address,address)": {
        "notice": "Emitted when pause guardian is changed"
      }
    },
    "kind": "user",
    "methods": {
      "addKeeper(address)": {
        "notice": "PRIVILEGED FACTORY FUNCTION. Adds a new valid keeper to the list"
      },
      "addKeepers(address[])": {
        "notice": "PRIVILEGED FACTORY FUNCTION. Adds a list of assets to the whitelist"
      },
      "addReserveAsset(address)": {
        "notice": "PRIVILEGED FACTORY FUNCTION. Adds a new valid reserve asset for gardens"
      },
      "createGarden(address,string,string,string,uint256,uint256[],uint256,bool[],uint256[])": {
        "notice": "Creates a Garden smart contract and registers the Garden with the controller. If asset is not WETH, the creator needs to approve the controller"
      },
      "editGardenFactory(address)": {
        "notice": "PRIVILEGED GOVERNANCE FUNCTION. Allows governance to edit the protocol garden factory"
      },
      "editGardenNFT(address)": {
        "notice": "PRIVILEGED GOVERNANCE FUNCTION. Allows governance to edit the protocol garden NFT"
      },
      "editGardenValuer(address)": {
        "notice": "PRIVILEGED GOVERNANCE FUNCTION. Allows governance to change the garden valuer"
      },
      "editIshtarGate(address)": {
        "notice": "PRIVILEGED GOVERNANCE FUNCTION. Allows governance to change the Ishtar Gate Address"
      },
      "editLiquidityReserve(address,uint256)": {
        "notice": "GOVERNANCE FUNCTION: Edits the minimum liquidity an asset must have on Uniswap"
      },
      "editMardukGate(address)": {
        "notice": "PRIVILEGED GOVERNANCE FUNCTION. Allows governance to change the Marduk Gate Address"
      },
      "editPriceOracle(address)": {
        "notice": "PRIVILEGED GOVERNANCE FUNCTION. Allows governance to change the price oracle"
      },
      "editRewardsDistributor(address)": {
        "notice": "PRIVILEGED GOVERNANCE FUNCTION. Allows governance to edit the rewards distributor"
      },
      "editStrategyFactory(address)": {
        "notice": "PRIVILEGED GOVERNANCE FUNCTION. Allows governance to edit the protocol strategy factory"
      },
      "editStrategyNFT(address)": {
        "notice": "PRIVILEGED GOVERNANCE FUNCTION. Allows governance to edit the protocol strategy NFT"
      },
      "editTreasury(address)": {
        "notice": "PRIVILEGED GOVERNANCE FUNCTION. Allows governance to edit the protocol fee recipient"
      },
      "enableBABLMiningProgram()": {
        "notice": "PRIVILEGED GOVERNANCE FUNCTION. Enable and starts the BABL Mining program by the Rewards Distributor Can only happen after public launch of the protocol."
      },
      "enableGardenTokensTransfers()": {
        "notice": "PRIVILEGED GOVERNANCE FUNCTION. Allows transfers of ERC20 gardenTokens Can only happen after 2021 is finished."
      },
      "getBABLSharing()": {
        "notice": "Returns the percentages of BABL Profit Sharing"
      },
      "getProfitSharing()": {
        "notice": "Returns the percentages of a strategy Profit Sharing"
      },
      "initialize()": {
        "notice": "Initializes the initial fee recipient on deployment."
      },
      "isPaused(address)": {
        "notice": "Check whether or not there is a global pause or a specific pause of the provided contract address"
      },
      "isSystemContract(address)": {
        "notice": "Check if a contract address is a garden or one of the system contracts"
      },
      "openPublicGardenCreation()": {
        "notice": "PRIVILEGED GOVERNANCE FUNCTION. Allows governance to enable public creation of gardens"
      },
      "removeGarden(address)": {
        "notice": "PRIVILEGED GOVERNANCE FUNCTION. Allows governance to remove a Garden"
      },
      "removeKeeper(address)": {
        "notice": "PRIVILEGED FACTORY FUNCTION. Removes a keeper"
      },
      "removeReserveAsset(address)": {
        "notice": "PRIVILEGED GOVERNANCE FUNCTION. Allows governance to remove a reserve asset"
      },
      "setAllowPublicGardens()": {
        "notice": "PRIVILEGED GOVERNANCE FUNCTION. Allows public gardens"
      },
      "setGlobalPause(bool)": {
        "notice": "PRIVILEGED GOVERNANCE FUNCTION. Pause the protocol globally in case of unexpected issue Only the governance can unpause it"
      },
      "setMasterSwapper(address)": {
        "notice": "PRIVILEGED GOVERNANCE FUNCTION. Allows governance to edit the protocol default trde integration"
      },
      "setMaxContributorsPerGarden(uint256)": {
        "notice": "PRIVILEGED GOVERNANCE FUNCTION. Change the max number of contributors for new Gardens since the change"
      },
      "setOperation(uint8,address)": {
        "notice": "GOVERNANCE FUNCTION: Edit an existing operation on the registry"
      },
      "setPauseGuardian(address)": {
        "notice": "PRIVILEGED GOVERNANCE FUNCTION. Set-up a pause guardian"
      },
      "setSomePause(address[],bool)": {
        "notice": "PRIVILEGED GOVERNANCE FUNCTION. Pause some smartcontracts in a batch process in case of unexpected issue Only the governance can unpause it"
      }
    },
    "version": 1
  },
  "storageLayout": {
    "storage": [
      {
        "astId": 492,
        "contract": "contracts/BabController.sol:BabControllerV6",
        "label": "_initialized",
        "offset": 0,
        "slot": "0",
        "type": "t_bool"
      },
      {
        "astId": 495,
        "contract": "contracts/BabController.sol:BabControllerV6",
        "label": "_initializing",
        "offset": 1,
        "slot": "0",
        "type": "t_bool"
      },
      {
        "astId": 1447,
        "contract": "contracts/BabController.sol:BabControllerV6",
        "label": "__gap",
        "offset": 0,
        "slot": "1",
        "type": "t_array(t_uint256)50_storage"
      },
      {
        "astId": 10,
        "contract": "contracts/BabController.sol:BabControllerV6",
        "label": "_owner",
        "offset": 0,
        "slot": "51",
        "type": "t_address"
      },
      {
        "astId": 129,
        "contract": "contracts/BabController.sol:BabControllerV6",
        "label": "__gap",
        "offset": 0,
        "slot": "52",
        "type": "t_array(t_uint256)49_storage"
      },
      {
        "astId": 8993,
        "contract": "contracts/BabController.sol:BabControllerV6",
        "label": "gardens",
        "offset": 0,
        "slot": "101",
        "type": "t_array(t_address)dyn_storage"
      },
      {
        "astId": 8996,
        "contract": "contracts/BabController.sol:BabControllerV6",
        "label": "reserveAssets",
        "offset": 0,
        "slot": "102",
        "type": "t_array(t_address)dyn_storage"
      },
      {
        "astId": 8998,
        "contract": "contracts/BabController.sol:BabControllerV6",
        "label": "uniswapFactory",
        "offset": 0,
        "slot": "103",
        "type": "t_address"
      },
      {
        "astId": 9001,
        "contract": "contracts/BabController.sol:BabControllerV6",
        "label": "gardenValuer",
        "offset": 0,
        "slot": "104",
        "type": "t_address"
      },
      {
        "astId": 9004,
        "contract": "contracts/BabController.sol:BabControllerV6",
        "label": "priceOracle",
        "offset": 0,
        "slot": "105",
        "type": "t_address"
      },
      {
        "astId": 9007,
        "contract": "contracts/BabController.sol:BabControllerV6",
        "label": "gardenFactory",
        "offset": 0,
        "slot": "106",
        "type": "t_address"
      },
      {
        "astId": 9010,
        "contract": "contracts/BabController.sol:BabControllerV6",
        "label": "rewardsDistributor",
        "offset": 0,
        "slot": "107",
        "type": "t_address"
      },
      {
        "astId": 9013,
        "contract": "contracts/BabController.sol:BabControllerV6",
        "label": "ishtarGate",
        "offset": 0,
        "slot": "108",
        "type": "t_address"
      },
      {
        "astId": 9016,
        "contract": "contracts/BabController.sol:BabControllerV6",
        "label": "strategyFactory",
        "offset": 0,
        "slot": "109",
        "type": "t_address"
      },
      {
        "astId": 9019,
        "contract": "contracts/BabController.sol:BabControllerV6",
        "label": "gardenNFT",
        "offset": 0,
        "slot": "110",
        "type": "t_address"
      },
      {
        "astId": 9022,
        "contract": "contracts/BabController.sol:BabControllerV6",
        "label": "strategyNFT",
        "offset": 0,
        "slot": "111",
        "type": "t_address"
      },
      {
        "astId": 9026,
        "contract": "contracts/BabController.sol:BabControllerV6",
        "label": "enabledIntegrations",
        "offset": 0,
        "slot": "112",
        "type": "t_mapping(t_bytes32,t_address)"
      },
      {
        "astId": 9029,
        "contract": "contracts/BabController.sol:BabControllerV6",
        "label": "masterSwapper",
        "offset": 0,
        "slot": "113",
        "type": "t_address"
      },
      {
        "astId": 9034,
        "contract": "contracts/BabController.sol:BabControllerV6",
        "label": "enabledOperations",
        "offset": 0,
        "slot": "114",
        "type": "t_array(t_address)20_storage"
      },
      {
        "astId": 9039,
        "contract": "contracts/BabController.sol:BabControllerV6",
        "label": "isGarden",
        "offset": 0,
        "slot": "134",
        "type": "t_mapping(t_address,t_bool)"
      },
      {
        "astId": 9043,
        "contract": "contracts/BabController.sol:BabControllerV6",
        "label": "validReserveAsset",
        "offset": 0,
        "slot": "135",
        "type": "t_mapping(t_address,t_bool)"
      },
      {
        "astId": 9047,
        "contract": "contracts/BabController.sol:BabControllerV6",
        "label": "assetWhitelist",
        "offset": 0,
        "slot": "136",
        "type": "t_mapping(t_address,t_bool)"
      },
      {
        "astId": 9051,
        "contract": "contracts/BabController.sol:BabControllerV6",
        "label": "keeperList",
        "offset": 0,
        "slot": "137",
        "type": "t_mapping(t_address,t_bool)"
      },
      {
        "astId": 9056,
        "contract": "contracts/BabController.sol:BabControllerV6",
        "label": "minLiquidityPerReserve",
        "offset": 0,
        "slot": "138",
        "type": "t_mapping(t_address,t_uint256)"
      },
      {
        "astId": 9059,
        "contract": "contracts/BabController.sol:BabControllerV6",
        "label": "treasury",
        "offset": 0,
        "slot": "139",
        "type": "t_address"
      },
      {
        "astId": 9061,
        "contract": "contracts/BabController.sol:BabControllerV6",
        "label": "strategistProfitPercentage",
        "offset": 0,
        "slot": "140",
        "type": "t_uint256"
      },
      {
        "astId": 9063,
        "contract": "contracts/BabController.sol:BabControllerV6",
        "label": "stewardsProfitPercentage",
        "offset": 0,
        "slot": "141",
        "type": "t_uint256"
      },
      {
        "astId": 9065,
        "contract": "contracts/BabController.sol:BabControllerV6",
        "label": "lpsProfitPercentage",
        "offset": 0,
        "slot": "142",
        "type": "t_uint256"
      },
      {
        "astId": 9067,
        "contract": "contracts/BabController.sol:BabControllerV6",
        "label": "strategistBABLPercentage",
        "offset": 0,
        "slot": "143",
        "type": "t_uint256"
      },
      {
        "astId": 9069,
        "contract": "contracts/BabController.sol:BabControllerV6",
        "label": "stewardsBABLPercentage",
        "offset": 0,
        "slot": "144",
        "type": "t_uint256"
      },
      {
        "astId": 9071,
        "contract": "contracts/BabController.sol:BabControllerV6",
        "label": "lpsBABLPercentage",
        "offset": 0,
        "slot": "145",
        "type": "t_uint256"
      },
      {
        "astId": 9073,
        "contract": "contracts/BabController.sol:BabControllerV6",
        "label": "gardenCreatorBonus",
        "offset": 0,
        "slot": "146",
        "type": "t_uint256"
      },
      {
        "astId": 9076,
        "contract": "contracts/BabController.sol:BabControllerV6",
        "label": "gardenTokensTransfersEnabled",
        "offset": 0,
        "slot": "147",
        "type": "t_bool"
      },
      {
        "astId": 9079,
        "contract": "contracts/BabController.sol:BabControllerV6",
        "label": "bablMiningProgramEnabled",
        "offset": 1,
        "slot": "147",
        "type": "t_bool"
      },
      {
        "astId": 9082,
        "contract": "contracts/BabController.sol:BabControllerV6",
        "label": "allowPublicGardens",
        "offset": 2,
        "slot": "147",
        "type": "t_bool"
      },
      {
        "astId": 9085,
        "contract": "contracts/BabController.sol:BabControllerV6",
        "label": "protocolPerformanceFee",
        "offset": 0,
        "slot": "148",
        "type": "t_uint256"
      },
      {
        "astId": 9088,
        "contract": "contracts/BabController.sol:BabControllerV6",
        "label": "protocolManagementFee",
        "offset": 0,
        "slot": "149",
        "type": "t_uint256"
      },
      {
        "astId": 9090,
        "contract": "contracts/BabController.sol:BabControllerV6",
        "label": "protocolDepositGardenTokenFee",
        "offset": 0,
        "slot": "150",
        "type": "t_uint256"
      },
      {
        "astId": 9092,
        "contract": "contracts/BabController.sol:BabControllerV6",
        "label": "protocolWithdrawalGardenTokenFee",
        "offset": 0,
        "slot": "151",
        "type": "t_uint256"
      },
      {
        "astId": 9095,
        "contract": "contracts/BabController.sol:BabControllerV6",
        "label": "maxContributorsPerGarden",
        "offset": 0,
        "slot": "152",
        "type": "t_uint256"
      },
      {
        "astId": 9098,
        "contract": "contracts/BabController.sol:BabControllerV6",
        "label": "gardenCreationIsOpen",
        "offset": 0,
        "slot": "153",
        "type": "t_bool"
      },
      {
        "astId": 9100,
        "contract": "contracts/BabController.sol:BabControllerV6",
        "label": "guardian",
        "offset": 1,
        "slot": "153",
        "type": "t_address"
      },
      {
        "astId": 9105,
        "contract": "contracts/BabController.sol:BabControllerV6",
        "label": "guardianPaused",
        "offset": 0,
        "slot": "154",
        "type": "t_mapping(t_address,t_bool)"
      },
      {
        "astId": 9108,
        "contract": "contracts/BabController.sol:BabControllerV6",
        "label": "guardianGlobalPaused",
        "offset": 0,
        "slot": "155",
        "type": "t_bool"
      },
      {
        "astId": 9111,
        "contract": "contracts/BabController.sol:BabControllerV6",
        "label": "mardukGate",
        "offset": 1,
        "slot": "155",
        "type": "t_address"
      }
    ],
    "types": {
      "t_address": {
        "encoding": "inplace",
        "label": "address",
        "numberOfBytes": "20"
      },
      "t_array(t_address)20_storage": {
        "base": "t_address",
        "encoding": "inplace",
        "label": "address[20]",
        "numberOfBytes": "640"
      },
      "t_array(t_address)dyn_storage": {
        "base": "t_address",
        "encoding": "dynamic_array",
        "label": "address[]",
        "numberOfBytes": "32"
      },
      "t_array(t_uint256)49_storage": {
        "base": "t_uint256",
        "encoding": "inplace",
        "label": "uint256[49]",
        "numberOfBytes": "1568"
      },
      "t_array(t_uint256)50_storage": {
        "base": "t_uint256",
        "encoding": "inplace",
        "label": "uint256[50]",
        "numberOfBytes": "1600"
      },
      "t_bool": {
        "encoding": "inplace",
        "label": "bool",
        "numberOfBytes": "1"
      },
      "t_bytes32": {
        "encoding": "inplace",
        "label": "bytes32",
        "numberOfBytes": "32"
      },
      "t_mapping(t_address,t_bool)": {
        "encoding": "mapping",
        "key": "t_address",
        "label": "mapping(address => bool)",
        "numberOfBytes": "32",
        "value": "t_bool"
      },
      "t_mapping(t_address,t_uint256)": {
        "encoding": "mapping",
        "key": "t_address",
        "label": "mapping(address => uint256)",
        "numberOfBytes": "32",
        "value": "t_uint256"
      },
      "t_mapping(t_bytes32,t_address)": {
        "encoding": "mapping",
        "key": "t_bytes32",
        "label": "mapping(bytes32 => address)",
        "numberOfBytes": "32",
        "value": "t_address"
      },
      "t_uint256": {
        "encoding": "inplace",
        "label": "uint256",
        "numberOfBytes": "32"
      }
    }
  }
}