{
  "address": "0xe5f0c1a2511004a2DCdF819C2d52b3E2a292D198",
  "abi": [
    {
      "anonymous": false,
      "inputs": [
        {
          "indexed": false,
          "internalType": "string",
          "name": "_action",
          "type": "string"
        },
        {
          "indexed": false,
          "internalType": "bool",
          "name": "_pauseState",
          "type": "bool"
        }
      ],
      "name": "ActionPaused",
      "type": "event"
    },
    {
      "anonymous": false,
      "inputs": [
        {
          "indexed": false,
          "internalType": "string",
          "name": "_action",
          "type": "string"
        },
        {
          "indexed": false,
          "internalType": "address",
          "name": "_address",
          "type": "address"
        },
        {
          "indexed": false,
          "internalType": "bool",
          "name": "_pauseState",
          "type": "bool"
        }
      ],
      "name": "ActionPausedIndividually",
      "type": "event"
    },
    {
      "anonymous": false,
      "inputs": [
        {
          "indexed": false,
          "internalType": "address",
          "name": "_integration",
          "type": "address"
        },
        {
          "indexed": true,
          "internalType": "string",
          "name": "_integrationName",
          "type": "string"
        }
      ],
      "name": "ControllerIntegrationAdded",
      "type": "event"
    },
    {
      "anonymous": false,
      "inputs": [
        {
          "indexed": false,
          "internalType": "address",
          "name": "_newIntegration",
          "type": "address"
        },
        {
          "indexed": true,
          "internalType": "string",
          "name": "_integrationName",
          "type": "string"
        }
      ],
      "name": "ControllerIntegrationEdited",
      "type": "event"
    },
    {
      "anonymous": false,
      "inputs": [
        {
          "indexed": false,
          "internalType": "address",
          "name": "_integration",
          "type": "address"
        },
        {
          "indexed": true,
          "internalType": "string",
          "name": "_integrationName",
          "type": "string"
        }
      ],
      "name": "ControllerIntegrationRemoved",
      "type": "event"
    },
    {
      "anonymous": false,
      "inputs": [
        {
          "indexed": true,
          "internalType": "uint8",
          "name": "_kind",
          "type": "uint8"
        },
        {
          "indexed": false,
          "internalType": "address",
          "name": "_address",
          "type": "address"
        }
      ],
      "name": "ControllerOperationSet",
      "type": "event"
    },
    {
      "anonymous": false,
      "inputs": [
        {
          "indexed": true,
          "internalType": "address",
          "name": "_newTradeIntegration",
          "type": "address"
        },
        {
          "indexed": false,
          "internalType": "address",
          "name": "_oldTradeIntegration",
          "type": "address"
        }
      ],
      "name": "DefaultTradeIntegrationChanged",
      "type": "event"
    },
    {
      "anonymous": false,
      "inputs": [
        {
          "indexed": true,
          "internalType": "address",
          "name": "_garden",
          "type": "address"
        },
        {
          "indexed": true,
          "internalType": "address",
          "name": "_factory",
          "type": "address"
        }
      ],
      "name": "GardenAdded",
      "type": "event"
    },
    {
      "anonymous": false,
      "inputs": [
        {
          "indexed": true,
          "internalType": "address",
          "name": "_gardenFactory",
          "type": "address"
        },
        {
          "indexed": false,
          "internalType": "address",
          "name": "_oldGardenFactory",
          "type": "address"
        }
      ],
      "name": "GardenFactoryChanged",
      "type": "event"
    },
    {
      "anonymous": false,
      "inputs": [
        {
          "indexed": true,
          "internalType": "address",
          "name": "_newGardenNFT",
          "type": "address"
        },
        {
          "indexed": false,
          "internalType": "address",
          "name": "_oldStrategyNFT",
          "type": "address"
        }
      ],
      "name": "GardenNFTChanged",
      "type": "event"
    },
    {
      "anonymous": false,
      "inputs": [
        {
          "indexed": true,
          "internalType": "address",
          "name": "_garden",
          "type": "address"
        }
      ],
      "name": "GardenRemoved",
      "type": "event"
    },
    {
      "anonymous": false,
      "inputs": [
        {
          "indexed": true,
          "internalType": "address",
          "name": "_gardenValuer",
          "type": "address"
        },
        {
          "indexed": false,
          "internalType": "address",
          "name": "_oldGardenValuer",
          "type": "address"
        }
      ],
      "name": "GardenValuerChanged",
      "type": "event"
    },
    {
      "anonymous": false,
      "inputs": [
        {
          "indexed": false,
          "internalType": "address",
          "name": "_newIshtarGate",
          "type": "address"
        },
        {
          "indexed": false,
          "internalType": "address",
          "name": "_oldIshtarGate",
          "type": "address"
        }
      ],
      "name": "IshtarGateChanged",
      "type": "event"
    },
    {
      "anonymous": false,
      "inputs": [
        {
          "indexed": true,
          "internalType": "address",
          "name": "_resesrveAsset",
          "type": "address"
        },
        {
          "indexed": false,
          "internalType": "uint256",
          "name": "_newMinLiquidityReserve",
          "type": "uint256"
        }
      ],
      "name": "LiquidityMinimumEdited",
      "type": "event"
    },
    {
      "anonymous": false,
      "inputs": [
        {
          "indexed": false,
          "internalType": "address",
          "name": "_oldPauseGuardian",
          "type": "address"
        },
        {
          "indexed": false,
          "internalType": "address",
          "name": "_newPauseGuardian",
          "type": "address"
        }
      ],
      "name": "NewPauseGuardian",
      "type": "event"
    },
    {
      "anonymous": false,
      "inputs": [
        {
          "indexed": true,
          "internalType": "address",
          "name": "previousOwner",
          "type": "address"
        },
        {
          "indexed": true,
          "internalType": "address",
          "name": "newOwner",
          "type": "address"
        }
      ],
      "name": "OwnershipTransferred",
      "type": "event"
    },
    {
      "anonymous": false,
      "inputs": [
        {
          "indexed": true,
          "internalType": "address",
          "name": "_priceOracle",
          "type": "address"
        },
        {
          "indexed": false,
          "internalType": "address",
          "name": "_oldPriceOracle",
          "type": "address"
        }
      ],
      "name": "PriceOracleChanged",
      "type": "event"
    },
    {
      "anonymous": false,
      "inputs": [
        {
          "indexed": true,
          "internalType": "address",
          "name": "_reserveAsset",
          "type": "address"
        }
      ],
      "name": "ReserveAssetAdded",
      "type": "event"
    },
    {
      "anonymous": false,
      "inputs": [
        {
          "indexed": true,
          "internalType": "address",
          "name": "_reserveAsset",
          "type": "address"
        }
      ],
      "name": "ReserveAssetRemoved",
      "type": "event"
    },
    {
      "anonymous": false,
      "inputs": [
        {
          "indexed": true,
          "internalType": "address",
          "name": "_rewardsDistributor",
          "type": "address"
        },
        {
          "indexed": false,
          "internalType": "address",
          "name": "_oldRewardsDistributor",
          "type": "address"
        }
      ],
      "name": "RewardsDistributorChanged",
      "type": "event"
    },
    {
      "anonymous": false,
      "inputs": [
        {
          "indexed": true,
          "internalType": "address",
          "name": "_strategyFactory",
          "type": "address"
        },
        {
          "indexed": false,
          "internalType": "address",
          "name": "_oldStrategyFactory",
          "type": "address"
        }
      ],
      "name": "StrategyFactoryEdited",
      "type": "event"
    },
    {
      "anonymous": false,
      "inputs": [
        {
          "indexed": true,
          "internalType": "address",
          "name": "_newStrategyNFT",
          "type": "address"
        },
        {
          "indexed": false,
          "internalType": "address",
          "name": "_oldStrategyNFT",
          "type": "address"
        }
      ],
      "name": "StrategyNFTChanged",
      "type": "event"
    },
    {
      "anonymous": false,
      "inputs": [
        {
          "indexed": false,
          "internalType": "address",
          "name": "_newTreasury",
          "type": "address"
        },
        {
          "indexed": false,
          "internalType": "address",
          "name": "_oldTreasury",
          "type": "address"
        }
      ],
      "name": "TreasuryChanged",
      "type": "event"
    },
    {
      "anonymous": false,
      "inputs": [
        {
          "indexed": true,
          "internalType": "address",
          "name": "_newUniswapFactory",
          "type": "address"
        },
        {
          "indexed": false,
          "internalType": "address",
          "name": "_oldUniswapFactory",
          "type": "address"
        }
      ],
      "name": "UniswapFactoryChanged",
      "type": "event"
    },
    {
      "inputs": [],
      "name": "MAX_COOLDOWN_PERIOD",
      "outputs": [
        {
          "internalType": "uint256",
          "name": "",
          "type": "uint256"
        }
      ],
      "stateMutability": "view",
      "type": "function"
    },
    {
      "inputs": [],
      "name": "MAX_OPERATIONS",
      "outputs": [
        {
          "internalType": "uint8",
          "name": "",
          "type": "uint8"
        }
      ],
      "stateMutability": "view",
      "type": "function"
    },
    {
      "inputs": [],
      "name": "MIN_COOLDOWN_PERIOD",
      "outputs": [
        {
          "internalType": "uint256",
          "name": "",
          "type": "uint256"
        }
      ],
      "stateMutability": "view",
      "type": "function"
    },
    {
      "inputs": [],
      "name": "WETH",
      "outputs": [
        {
          "internalType": "address",
          "name": "",
          "type": "address"
        }
      ],
      "stateMutability": "view",
      "type": "function"
    },
    {
      "inputs": [
        {
          "internalType": "string",
          "name": "_name",
          "type": "string"
        },
        {
          "internalType": "address",
          "name": "_integration",
          "type": "address"
        }
      ],
      "name": "addIntegration",
      "outputs": [],
      "stateMutability": "nonpayable",
      "type": "function"
    },
    {
      "inputs": [
        {
          "internalType": "address",
          "name": "_keeper",
          "type": "address"
        }
      ],
      "name": "addKeeper",
      "outputs": [],
      "stateMutability": "nonpayable",
      "type": "function"
    },
    {
      "inputs": [
        {
          "internalType": "address[]",
          "name": "_keepers",
          "type": "address[]"
        }
      ],
      "name": "addKeepers",
      "outputs": [],
      "stateMutability": "nonpayable",
      "type": "function"
    },
    {
      "inputs": [
        {
          "internalType": "address",
          "name": "_reserveAsset",
          "type": "address"
        }
      ],
      "name": "addReserveAsset",
      "outputs": [],
      "stateMutability": "nonpayable",
      "type": "function"
    },
    {
      "inputs": [],
      "name": "allowPublicGardens",
      "outputs": [
        {
          "internalType": "bool",
          "name": "",
          "type": "bool"
        }
      ],
      "stateMutability": "view",
      "type": "function"
    },
    {
      "inputs": [
        {
          "internalType": "address",
          "name": "",
          "type": "address"
        }
      ],
      "name": "assetWhitelist",
      "outputs": [
        {
          "internalType": "bool",
          "name": "",
          "type": "bool"
        }
      ],
      "stateMutability": "view",
      "type": "function"
    },
    {
      "inputs": [],
      "name": "bablMiningProgramEnabled",
      "outputs": [
        {
          "internalType": "bool",
          "name": "",
          "type": "bool"
        }
      ],
      "stateMutability": "view",
      "type": "function"
    },
    {
      "inputs": [
        {
          "internalType": "address",
          "name": "_reserveAsset",
          "type": "address"
        },
        {
          "internalType": "string",
          "name": "_name",
          "type": "string"
        },
        {
          "internalType": "string",
          "name": "_symbol",
          "type": "string"
        },
        {
          "internalType": "string",
          "name": "_tokenURI",
          "type": "string"
        },
        {
          "internalType": "uint256",
          "name": "_seed",
          "type": "uint256"
        },
        {
          "internalType": "uint256[]",
          "name": "_gardenParams",
          "type": "uint256[]"
        },
        {
          "internalType": "uint256",
          "name": "_initialContribution",
          "type": "uint256"
        }
      ],
      "name": "createGarden",
      "outputs": [
        {
          "internalType": "address",
          "name": "",
          "type": "address"
        }
      ],
      "stateMutability": "payable",
      "type": "function"
    },
    {
      "inputs": [],
      "name": "defaultTradeIntegration",
      "outputs": [
        {
          "internalType": "address",
          "name": "",
          "type": "address"
        }
      ],
      "stateMutability": "view",
      "type": "function"
    },
    {
      "inputs": [
        {
          "internalType": "address",
          "name": "_garden",
          "type": "address"
        }
      ],
      "name": "disableGarden",
      "outputs": [],
      "stateMutability": "nonpayable",
      "type": "function"
    },
    {
      "inputs": [
        {
          "internalType": "address",
          "name": "_newGardenFactory",
          "type": "address"
        }
      ],
      "name": "editGardenFactory",
      "outputs": [],
      "stateMutability": "nonpayable",
      "type": "function"
    },
    {
      "inputs": [
        {
          "internalType": "address",
          "name": "_newGardenNFT",
          "type": "address"
        }
      ],
      "name": "editGardenNFT",
      "outputs": [],
      "stateMutability": "nonpayable",
      "type": "function"
    },
    {
      "inputs": [
        {
          "internalType": "address",
          "name": "_gardenValuer",
          "type": "address"
        }
      ],
      "name": "editGardenValuer",
      "outputs": [],
      "stateMutability": "nonpayable",
      "type": "function"
    },
    {
      "inputs": [
        {
          "internalType": "string",
          "name": "_name",
          "type": "string"
        },
        {
          "internalType": "address",
          "name": "_integration",
          "type": "address"
        }
      ],
      "name": "editIntegration",
      "outputs": [],
      "stateMutability": "nonpayable",
      "type": "function"
    },
    {
      "inputs": [
        {
          "internalType": "address",
          "name": "_ishtarGate",
          "type": "address"
        }
      ],
      "name": "editIshtarGate",
      "outputs": [],
      "stateMutability": "nonpayable",
      "type": "function"
    },
    {
      "inputs": [
        {
          "internalType": "address",
          "name": "_reserve",
          "type": "address"
        },
        {
          "internalType": "uint256",
          "name": "_newMinLiquidityReserve",
          "type": "uint256"
        }
      ],
      "name": "editLiquidityReserve",
      "outputs": [],
      "stateMutability": "nonpayable",
      "type": "function"
    },
    {
      "inputs": [
        {
          "internalType": "address",
          "name": "_priceOracle",
          "type": "address"
        }
      ],
      "name": "editPriceOracle",
      "outputs": [],
      "stateMutability": "nonpayable",
      "type": "function"
    },
    {
      "inputs": [
        {
          "internalType": "address",
          "name": "_newRewardsDistributor",
          "type": "address"
        }
      ],
      "name": "editRewardsDistributor",
      "outputs": [],
      "stateMutability": "nonpayable",
      "type": "function"
    },
    {
      "inputs": [
        {
          "internalType": "address",
          "name": "_newStrategyFactory",
          "type": "address"
        }
      ],
      "name": "editStrategyFactory",
      "outputs": [],
      "stateMutability": "nonpayable",
      "type": "function"
    },
    {
      "inputs": [
        {
          "internalType": "address",
          "name": "_newStrategyNFT",
          "type": "address"
        }
      ],
      "name": "editStrategyNFT",
      "outputs": [],
      "stateMutability": "nonpayable",
      "type": "function"
    },
    {
      "inputs": [
        {
          "internalType": "address",
          "name": "_newTreasury",
          "type": "address"
        }
      ],
      "name": "editTreasury",
      "outputs": [],
      "stateMutability": "nonpayable",
      "type": "function"
    },
    {
      "inputs": [],
      "name": "enableBABLMiningProgram",
      "outputs": [],
      "stateMutability": "nonpayable",
      "type": "function"
    },
    {
      "inputs": [
        {
          "internalType": "address",
          "name": "_garden",
          "type": "address"
        }
      ],
      "name": "enableGarden",
      "outputs": [],
      "stateMutability": "nonpayable",
      "type": "function"
    },
    {
      "inputs": [],
      "name": "enableGardenTokensTransfers",
      "outputs": [],
      "stateMutability": "nonpayable",
      "type": "function"
    },
    {
      "inputs": [
        {
          "internalType": "uint256",
          "name": "",
          "type": "uint256"
        }
      ],
      "name": "enabledOperations",
      "outputs": [
        {
          "internalType": "address",
          "name": "",
          "type": "address"
        }
      ],
      "stateMutability": "view",
      "type": "function"
    },
    {
      "inputs": [],
      "name": "gardenCreationIsOpen",
      "outputs": [
        {
          "internalType": "bool",
          "name": "",
          "type": "bool"
        }
      ],
      "stateMutability": "view",
      "type": "function"
    },
    {
      "inputs": [],
      "name": "gardenCreatorBonus",
      "outputs": [
        {
          "internalType": "uint256",
          "name": "",
          "type": "uint256"
        }
      ],
      "stateMutability": "view",
      "type": "function"
    },
    {
      "inputs": [],
      "name": "gardenFactory",
      "outputs": [
        {
          "internalType": "address",
          "name": "",
          "type": "address"
        }
      ],
      "stateMutability": "view",
      "type": "function"
    },
    {
      "inputs": [],
      "name": "gardenNFT",
      "outputs": [
        {
          "internalType": "address",
          "name": "",
          "type": "address"
        }
      ],
      "stateMutability": "view",
      "type": "function"
    },
    {
      "inputs": [],
      "name": "gardenTokensTransfersEnabled",
      "outputs": [
        {
          "internalType": "bool",
          "name": "",
          "type": "bool"
        }
      ],
      "stateMutability": "view",
      "type": "function"
    },
    {
      "inputs": [],
      "name": "gardenValuer",
      "outputs": [
        {
          "internalType": "address",
          "name": "",
          "type": "address"
        }
      ],
      "stateMutability": "view",
      "type": "function"
    },
    {
      "inputs": [
        {
          "internalType": "uint256",
          "name": "",
          "type": "uint256"
        }
      ],
      "name": "gardens",
      "outputs": [
        {
          "internalType": "address",
          "name": "",
          "type": "address"
        }
      ],
      "stateMutability": "view",
      "type": "function"
    },
    {
      "inputs": [],
      "name": "getBABLSharing",
      "outputs": [
        {
          "internalType": "uint256",
          "name": "",
          "type": "uint256"
        },
        {
          "internalType": "uint256",
          "name": "",
          "type": "uint256"
        },
        {
          "internalType": "uint256",
          "name": "",
          "type": "uint256"
        },
        {
          "internalType": "uint256",
          "name": "",
          "type": "uint256"
        }
      ],
      "stateMutability": "view",
      "type": "function"
    },
    {
      "inputs": [],
      "name": "getGardens",
      "outputs": [
        {
          "internalType": "address[]",
          "name": "",
          "type": "address[]"
        }
      ],
      "stateMutability": "view",
      "type": "function"
    },
    {
      "inputs": [
        {
          "internalType": "string",
          "name": "_name",
          "type": "string"
        }
      ],
      "name": "getIntegrationByName",
      "outputs": [
        {
          "internalType": "address",
          "name": "",
          "type": "address"
        }
      ],
      "stateMutability": "view",
      "type": "function"
    },
    {
      "inputs": [
        {
          "internalType": "bytes32",
          "name": "_nameHashP",
          "type": "bytes32"
        }
      ],
      "name": "getIntegrationWithHash",
      "outputs": [
        {
          "internalType": "address",
          "name": "",
          "type": "address"
        }
      ],
      "stateMutability": "view",
      "type": "function"
    },
    {
      "inputs": [],
      "name": "getMaxCooldownPeriod",
      "outputs": [
        {
          "internalType": "uint256",
          "name": "",
          "type": "uint256"
        }
      ],
      "stateMutability": "pure",
      "type": "function"
    },
    {
      "inputs": [],
      "name": "getMinCooldownPeriod",
      "outputs": [
        {
          "internalType": "uint256",
          "name": "",
          "type": "uint256"
        }
      ],
      "stateMutability": "pure",
      "type": "function"
    },
    {
      "inputs": [],
      "name": "getOperations",
      "outputs": [
        {
          "internalType": "address[20]",
          "name": "",
          "type": "address[20]"
        }
      ],
      "stateMutability": "view",
      "type": "function"
    },
    {
      "inputs": [],
      "name": "getProfitSharing",
      "outputs": [
        {
          "internalType": "uint256",
          "name": "",
          "type": "uint256"
        },
        {
          "internalType": "uint256",
          "name": "",
          "type": "uint256"
        },
        {
          "internalType": "uint256",
          "name": "",
          "type": "uint256"
        }
      ],
      "stateMutability": "view",
      "type": "function"
    },
    {
      "inputs": [],
      "name": "getReserveAssets",
      "outputs": [
        {
          "internalType": "address[]",
          "name": "",
          "type": "address[]"
        }
      ],
      "stateMutability": "view",
      "type": "function"
    },
    {
      "inputs": [],
      "name": "guardian",
      "outputs": [
        {
          "internalType": "address",
          "name": "",
          "type": "address"
        }
      ],
      "stateMutability": "view",
      "type": "function"
    },
    {
      "inputs": [],
      "name": "guardianGlobalPaused",
      "outputs": [
        {
          "internalType": "bool",
          "name": "",
          "type": "bool"
        }
      ],
      "stateMutability": "view",
      "type": "function"
    },
    {
      "inputs": [
        {
          "internalType": "address",
          "name": "",
          "type": "address"
        }
      ],
      "name": "guardianPaused",
      "outputs": [
        {
          "internalType": "bool",
          "name": "",
          "type": "bool"
        }
      ],
      "stateMutability": "view",
      "type": "function"
    },
    {
      "inputs": [],
      "name": "initialize",
      "outputs": [],
      "stateMutability": "nonpayable",
      "type": "function"
    },
    {
      "inputs": [
        {
          "internalType": "address",
          "name": "",
          "type": "address"
        }
      ],
      "name": "isGarden",
      "outputs": [
        {
          "internalType": "bool",
          "name": "",
          "type": "bool"
        }
      ],
      "stateMutability": "view",
      "type": "function"
    },
    {
      "inputs": [
        {
          "internalType": "address",
          "name": "_contract",
          "type": "address"
        }
      ],
      "name": "isPaused",
      "outputs": [
        {
          "internalType": "bool",
          "name": "",
          "type": "bool"
        }
      ],
      "stateMutability": "view",
      "type": "function"
    },
    {
      "inputs": [
        {
          "internalType": "address",
          "name": "_contractAddress",
          "type": "address"
        }
      ],
      "name": "isSystemContract",
      "outputs": [
        {
          "internalType": "bool",
          "name": "",
          "type": "bool"
        }
      ],
      "stateMutability": "view",
      "type": "function"
    },
    {
      "inputs": [
        {
          "internalType": "string",
          "name": "_name",
          "type": "string"
        },
        {
          "internalType": "address",
          "name": "_integration",
          "type": "address"
        }
      ],
      "name": "isValidIntegration",
      "outputs": [
        {
          "internalType": "bool",
          "name": "",
          "type": "bool"
        }
      ],
      "stateMutability": "view",
      "type": "function"
    },
    {
      "inputs": [
        {
          "internalType": "address",
          "name": "_keeper",
          "type": "address"
        }
      ],
      "name": "isValidKeeper",
      "outputs": [
        {
          "internalType": "bool",
          "name": "",
          "type": "bool"
        }
      ],
      "stateMutability": "view",
      "type": "function"
    },
    {
      "inputs": [
        {
          "internalType": "address",
          "name": "_reserveAsset",
          "type": "address"
        }
      ],
      "name": "isValidReserveAsset",
      "outputs": [
        {
          "internalType": "bool",
          "name": "",
          "type": "bool"
        }
      ],
      "stateMutability": "view",
      "type": "function"
    },
    {
      "inputs": [],
      "name": "ishtarGate",
      "outputs": [
        {
          "internalType": "address",
          "name": "",
          "type": "address"
        }
      ],
      "stateMutability": "view",
      "type": "function"
    },
    {
      "inputs": [
        {
          "internalType": "address",
          "name": "",
          "type": "address"
        }
      ],
      "name": "keeperList",
      "outputs": [
        {
          "internalType": "bool",
          "name": "",
          "type": "bool"
        }
      ],
      "stateMutability": "view",
      "type": "function"
    },
    {
      "inputs": [],
      "name": "lpsBABLPercentage",
      "outputs": [
        {
          "internalType": "uint256",
          "name": "",
          "type": "uint256"
        }
      ],
      "stateMutability": "view",
      "type": "function"
    },
    {
      "inputs": [],
      "name": "lpsProfitPercentage",
      "outputs": [
        {
          "internalType": "uint256",
          "name": "",
          "type": "uint256"
        }
      ],
      "stateMutability": "view",
      "type": "function"
    },
    {
      "inputs": [],
      "name": "maxContributorsPerGarden",
      "outputs": [
        {
          "internalType": "uint256",
          "name": "",
          "type": "uint256"
        }
      ],
      "stateMutability": "view",
      "type": "function"
    },
    {
      "inputs": [
        {
          "internalType": "address",
          "name": "",
          "type": "address"
        }
      ],
      "name": "minLiquidityPerReserve",
      "outputs": [
        {
          "internalType": "uint256",
          "name": "",
          "type": "uint256"
        }
      ],
      "stateMutability": "view",
      "type": "function"
    },
    {
      "inputs": [],
      "name": "openPublicGardenCreation",
      "outputs": [],
      "stateMutability": "nonpayable",
      "type": "function"
    },
    {
      "inputs": [],
      "name": "owner",
      "outputs": [
        {
          "internalType": "address",
          "name": "",
          "type": "address"
        }
      ],
      "stateMutability": "view",
      "type": "function"
    },
    {
      "inputs": [],
      "name": "priceOracle",
      "outputs": [
        {
          "internalType": "address",
          "name": "",
          "type": "address"
        }
      ],
      "stateMutability": "view",
      "type": "function"
    },
    {
      "inputs": [],
      "name": "protocolManagementFee",
      "outputs": [
        {
          "internalType": "uint256",
          "name": "",
          "type": "uint256"
        }
      ],
      "stateMutability": "view",
      "type": "function"
    },
    {
      "inputs": [],
      "name": "protocolPerformanceFee",
      "outputs": [
        {
          "internalType": "uint256",
          "name": "",
          "type": "uint256"
        }
      ],
      "stateMutability": "view",
      "type": "function"
    },
    {
      "inputs": [
        {
          "internalType": "address",
          "name": "_garden",
          "type": "address"
        }
      ],
      "name": "removeGarden",
      "outputs": [],
      "stateMutability": "nonpayable",
      "type": "function"
    },
    {
      "inputs": [
        {
          "internalType": "string",
          "name": "_name",
          "type": "string"
        }
      ],
      "name": "removeIntegration",
      "outputs": [],
      "stateMutability": "nonpayable",
      "type": "function"
    },
    {
      "inputs": [
        {
          "internalType": "address",
          "name": "_keeper",
          "type": "address"
        }
      ],
      "name": "removeKeeper",
      "outputs": [],
      "stateMutability": "nonpayable",
      "type": "function"
    },
    {
      "inputs": [
        {
          "internalType": "address",
          "name": "_reserveAsset",
          "type": "address"
        }
      ],
      "name": "removeReserveAsset",
      "outputs": [],
      "stateMutability": "nonpayable",
      "type": "function"
    },
    {
      "inputs": [],
      "name": "renounceOwnership",
      "outputs": [],
      "stateMutability": "nonpayable",
      "type": "function"
    },
    {
      "inputs": [
        {
          "internalType": "uint256",
          "name": "",
          "type": "uint256"
        }
      ],
      "name": "reserveAssets",
      "outputs": [
        {
          "internalType": "address",
          "name": "",
          "type": "address"
        }
      ],
      "stateMutability": "view",
      "type": "function"
    },
    {
      "inputs": [],
      "name": "rewardsDistributor",
      "outputs": [
        {
          "internalType": "address",
          "name": "",
          "type": "address"
        }
      ],
      "stateMutability": "view",
      "type": "function"
    },
    {
      "inputs": [],
      "name": "setAllowPublicGardens",
      "outputs": [],
      "stateMutability": "nonpayable",
      "type": "function"
    },
    {
      "inputs": [
        {
          "internalType": "address",
          "name": "_newDefaultTradeIntegation",
          "type": "address"
        }
      ],
      "name": "setDefaultTradeIntegration",
      "outputs": [],
      "stateMutability": "nonpayable",
      "type": "function"
    },
    {
      "inputs": [
        {
          "internalType": "bool",
          "name": "_state",
          "type": "bool"
        }
      ],
      "name": "setGlobalPause",
      "outputs": [
        {
          "internalType": "bool",
          "name": "",
          "type": "bool"
        }
      ],
      "stateMutability": "nonpayable",
      "type": "function"
    },
    {
      "inputs": [
        {
          "internalType": "uint256",
          "name": "_newMax",
          "type": "uint256"
        }
      ],
      "name": "setMaxContributorsPerGarden",
      "outputs": [],
      "stateMutability": "nonpayable",
      "type": "function"
    },
    {
      "inputs": [
        {
          "internalType": "uint8",
          "name": "_kind",
          "type": "uint8"
        },
        {
          "internalType": "address",
          "name": "_operation",
          "type": "address"
        }
      ],
      "name": "setOperation",
      "outputs": [],
      "stateMutability": "nonpayable",
      "type": "function"
    },
    {
      "inputs": [
        {
          "internalType": "address",
          "name": "_guardian",
          "type": "address"
        }
      ],
      "name": "setPauseGuardian",
      "outputs": [],
      "stateMutability": "nonpayable",
      "type": "function"
    },
    {
      "inputs": [
        {
          "internalType": "address[]",
          "name": "_address",
          "type": "address[]"
        },
        {
          "internalType": "bool",
          "name": "_state",
          "type": "bool"
        }
      ],
      "name": "setSomePause",
      "outputs": [
        {
          "internalType": "bool",
          "name": "",
          "type": "bool"
        }
      ],
      "stateMutability": "nonpayable",
      "type": "function"
    },
    {
      "inputs": [],
      "name": "stewardsBABLPercentage",
      "outputs": [
        {
          "internalType": "uint256",
          "name": "",
          "type": "uint256"
        }
      ],
      "stateMutability": "view",
      "type": "function"
    },
    {
      "inputs": [],
      "name": "stewardsProfitPercentage",
      "outputs": [
        {
          "internalType": "uint256",
          "name": "",
          "type": "uint256"
        }
      ],
      "stateMutability": "view",
      "type": "function"
    },
    {
      "inputs": [],
      "name": "strategistBABLPercentage",
      "outputs": [
        {
          "internalType": "uint256",
          "name": "",
          "type": "uint256"
        }
      ],
      "stateMutability": "view",
      "type": "function"
    },
    {
      "inputs": [],
      "name": "strategistProfitPercentage",
      "outputs": [
        {
          "internalType": "uint256",
          "name": "",
          "type": "uint256"
        }
      ],
      "stateMutability": "view",
      "type": "function"
    },
    {
      "inputs": [],
      "name": "strategyFactory",
      "outputs": [
        {
          "internalType": "address",
          "name": "",
          "type": "address"
        }
      ],
      "stateMutability": "view",
      "type": "function"
    },
    {
      "inputs": [],
      "name": "strategyNFT",
      "outputs": [
        {
          "internalType": "address",
          "name": "",
          "type": "address"
        }
      ],
      "stateMutability": "view",
      "type": "function"
    },
    {
      "inputs": [
        {
          "internalType": "address",
          "name": "newOwner",
          "type": "address"
        }
      ],
      "name": "transferOwnership",
      "outputs": [],
      "stateMutability": "nonpayable",
      "type": "function"
    },
    {
      "inputs": [],
      "name": "treasury",
      "outputs": [
        {
          "internalType": "address",
          "name": "",
          "type": "address"
        }
      ],
      "stateMutability": "view",
      "type": "function"
    },
    {
      "inputs": [
        {
          "internalType": "address",
          "name": "",
          "type": "address"
        }
      ],
      "name": "validReserveAsset",
      "outputs": [
        {
          "internalType": "bool",
          "name": "",
          "type": "bool"
        }
      ],
      "stateMutability": "view",
      "type": "function"
    }
  ],
  "transactionHash": "0x6752af3e2022fee8a387d9d5cb93e6bb90af1fb86fba2c79dcad4af2dc28d84e",
  "args": [],
  "solcInputHash": "9848dc78f52f46992b529e31fb1275ff",
  "bytecode": "0x608060405234801561001057600080fd5b506159e380620000216000396000f3fe6080604052600436106105d65760003560e01c80636acf339311610301578063b82efd4f1161019a578063daec2a1a116100ec578063f142c3bc11610095578063f56e895d1161006f578063f56e895d14611861578063f948e50a14611876578063f979cdd9146118c4576105d6565b8063f142c3bc14611735578063f2fde38b14611770578063f4330b49146117a3576105d6565b8063ead4c1cf116100c6578063ead4c1cf146116ba578063f04ec547146116cf578063f05017eb14611702576105d6565b8063daec2a1a1461163f578063dfaef58f14611654578063e973f4e914611687576105d6565b8063c8ed947f1161014e578063d196f61f11610128578063d196f61f146115d9578063d276cbdc146115ee578063d6a45aa51461162a576105d6565b8063c8ed947f1461159a578063c9f7f2ed146115af578063cfd18019146115c4576105d6565b8063bc819ea61161017f578063bc819ea6146114ed578063c2d38e7914611552578063c80aad6314611585576105d6565b8063b82efd4f14611487578063bc092283146114ba576105d6565b806389790429116102535780639e18eb3911610207578063ad5c4648116101e1578063ad5c46481461140c578063ad9d791d14611421578063b0ecdf8014611454576105d6565b80639e18eb391461131a5780639ef3571014611344578063a65b994714611359576105d6565b80638da5cb5b116102385780638da5cb5b146112bd5780638e20fb07146112d2578063974f5728146112e7576105d6565b8063897904291461126f5780638d78fb79146112a8576105d6565b80637f80e05b116102b5578063867b6efa1161028f578063867b6efa146111f457806386f2bc811461122757806388e8dc751461123c576105d6565b80637f80e05b146111975780638129fc1c146111ac57806385d5d036146111c1576105d6565b8063715018a6116102e6578063715018a6146111585780637177fec91461116d5780637c4f0a3614611182576105d6565b80636acf339314610f265780636b2fb67814611143576105d6565b8063393bfe4911610473578063556d1a09116103c55780636176605e1161037957806362a4bf051161035357806362a4bf0514610eb25780636968551314610ec757806369a6b3db14610efa576105d6565b80636176605e14610dd557806361b73ae614610dea57806361d027b314610e9d576105d6565b80635b14f183116103aa5780635b14f18314610d445780635dc2803a14610d775780635e192de614610da2576105d6565b8063556d1a0914610d1a578063568c081314610d2f576105d6565b8063447a1366116104275780634a44ff44116104015780634a44ff4414610cbd57806352aeec7714610cd25780635435ed8b14610ce7576105d6565b8063447a136614610c42578063452a932014610c7557806348bde20c14610c8a576105d6565b80634032b72b116104585780634032b72b14610bb2578063404c363914610be5578063411137c314610c0f576105d6565b8063393bfe4914610b885780633f2a554014610b9d576105d6565b806327e4acc71161052c57806330944c62116104e0578063364d1181116104ba578063364d118114610b1657806336c148b714610b4957806337973e5f14610b5e576105d6565b806330944c6214610a3c5780633137547714610a51578063314a83c914610a66576105d6565b80632b9db0bf116105115780632b9db0bf146109245780632e0519cf1461094b5780633040a2fb1461097e576105d6565b806327e4acc7146108fa578063294d237c1461090f576105d6565b806317a257141161058e5780632010419811610568578063201041981461088857806322c7fa8f146108b25780632630c12f146108e5576105d6565b806317a257141461078257806318b9e252146107975780631bdbf0ac146107ca576105d6565b806313bc6d4b116105bf57806313bc6d4b146106e757806314ae9f2e1461071a57806314f45ca81461074f576105d6565b80630306f6d2146105db57806306796729146106a1575b600080fd5b3480156105e757600080fd5b5061068d600480360360408110156105fe57600080fd5b81019060208101813564010000000081111561061957600080fd5b82018360208201111561062b57600080fd5b8035906020019184602083028401116401000000008311171561064d57600080fd5b91908080602002602001604051908101604052809392919081815260200183836020028082843760009201919091525092955050505035151590506118f7565b604080519115158252519081900360200190f35b3480156106ad57600080fd5b506106cb600480360360208110156106c457600080fd5b5035611aea565b604080516001600160a01b039092168252519081900360200190f35b3480156106f357600080fd5b5061068d6004803603602081101561070a57600080fd5b50356001600160a01b0316611b08565b34801561072657600080fd5b5061074d6004803603602081101561073d57600080fd5b50356001600160a01b0316611d86565b005b34801561075b57600080fd5b5061074d6004803603602081101561077257600080fd5b50356001600160a01b0316611e76565b34801561078e57600080fd5b5061074d612065565b3480156107a357600080fd5b5061074d600480360360208110156107ba57600080fd5b50356001600160a01b03166120da565b3480156107d657600080fd5b5061074d600480360360408110156107ed57600080fd5b81019060208101813564010000000081111561080857600080fd5b82018360208201111561081a57600080fd5b8035906020019184600183028401116401000000008311171561083c57600080fd5b91908080601f016020809104026020016040519081016040528093929190818152602001838380828437600092019190915250929550505090356001600160a01b0316915061232b9050565b34801561089457600080fd5b506106cb600480360360208110156108ab57600080fd5b5035612523565b3480156108be57600080fd5b5061074d600480360360208110156108d557600080fd5b50356001600160a01b0316612543565b3480156108f157600080fd5b506106cb6126c3565b34801561090657600080fd5b5061068d6126d2565b34801561091b57600080fd5b506106cb6126db565b34801561093057600080fd5b506109396126ea565b60408051918252519081900360200190f35b34801561095757600080fd5b506109606126f0565b60408051938452602084019290925282820152519081900360600190f35b34801561098a57600080fd5b5061074d600480360360408110156109a157600080fd5b8101906020810181356401000000008111156109bc57600080fd5b8201836020820111156109ce57600080fd5b803590602001918460018302840111640100000000831117156109f057600080fd5b91908080601f016020809104026020016040519081016040528093929190818152602001838380828437600092019190915250929550505090356001600160a01b031691506126fe9050565b348015610a4857600080fd5b5061068d6128f5565b348015610a5d57600080fd5b50610939612903565b348015610a7257600080fd5b5061074d60048036036020811015610a8957600080fd5b810190602081018135640100000000811115610aa457600080fd5b820183602082011115610ab657600080fd5b80359060200191846020830284011164010000000083111715610ad857600080fd5b919080806020026020016040519081016040528093929190818152602001838360200280828437600092019190915250929550612909945050505050565b348015610b2257600080fd5b5061068d60048036036020811015610b3957600080fd5b50356001600160a01b03166129c7565b348015610b5557600080fd5b5061074d6129dc565b348015610b6a57600080fd5b506106cb60048036036020811015610b8157600080fd5b5035612aa7565b348015610b9457600080fd5b5061068d612ad1565b348015610ba957600080fd5b506106cb612ada565b348015610bbe57600080fd5b5061074d60048036036020811015610bd557600080fd5b50356001600160a01b0316612ae9565b348015610bf157600080fd5b5061074d60048036036020811015610c0857600080fd5b5035612b6f565b348015610c1b57600080fd5b5061068d60048036036020811015610c3257600080fd5b50356001600160a01b0316612c16565b348015610c4e57600080fd5b5061068d60048036036020811015610c6557600080fd5b50356001600160a01b0316612c34565b348015610c8157600080fd5b506106cb612c49565b348015610c9657600080fd5b5061074d60048036036020811015610cad57600080fd5b50356001600160a01b0316612c5d565b348015610cc957600080fd5b50610939612d52565b348015610cde57600080fd5b5061074d612d58565b348015610cf357600080fd5b5061074d60048036036020811015610d0a57600080fd5b50356001600160a01b0316612e52565b348015610d2657600080fd5b5061093961316f565b348015610d3b57600080fd5b50610939613176565b348015610d5057600080fd5b5061068d60048036036020811015610d6757600080fd5b50356001600160a01b031661317c565b348015610d8357600080fd5b50610d8c6131aa565b6040805160ff9092168252519081900360200190f35b348015610dae57600080fd5b5061068d60048036036020811015610dc557600080fd5b50356001600160a01b03166131af565b348015610de157600080fd5b506106cb6131c4565b348015610df657600080fd5b5061074d60048036036020811015610e0d57600080fd5b810190602081018135640100000000811115610e2857600080fd5b820183602082011115610e3a57600080fd5b80359060200191846001830284011164010000000083111715610e5c57600080fd5b91908080601f0160208091040260200160405190810160405280939291908181526020018383808284376000920191909152509295506131d3945050505050565b348015610ea957600080fd5b506106cb613372565b348015610ebe57600080fd5b5061068d613381565b348015610ed357600080fd5b5061074d60048036036020811015610eea57600080fd5b50356001600160a01b031661338a565b348015610f0657600080fd5b5061068d60048036036020811015610f1d57600080fd5b5035151561349c565b6106cb600480360360e0811015610f3c57600080fd5b6001600160a01b038235169190810190604081016020820135640100000000811115610f6757600080fd5b820183602082011115610f7957600080fd5b80359060200191846001830284011164010000000083111715610f9b57600080fd5b91908080601f0160208091040260200160405190810160405280939291908181526020018383808284376000920191909152509295949360208101935035915050640100000000811115610fee57600080fd5b82018360208201111561100057600080fd5b8035906020019184600183028401116401000000008311171561102257600080fd5b91908080601f016020809104026020016040519081016040528093929190818152602001838380828437600092019190915250929594936020810193503591505064010000000081111561107557600080fd5b82018360208201111561108757600080fd5b803590602001918460018302840111640100000000831117156110a957600080fd5b91908080601f0160208091040260200160405190810160405280939291908181526020018383808284376000920191909152509295843595909490935060408101925060200135905064010000000081111561110457600080fd5b82018360208201111561111657600080fd5b8035906020019184602083028401116401000000008311171561113857600080fd5b919350915035613606565b34801561114f57600080fd5b50610939613c5a565b34801561116457600080fd5b5061074d613c60565b34801561117957600080fd5b50610939613d0c565b34801561118e57600080fd5b50610939613d12565b3480156111a357600080fd5b5061068d613d18565b3480156111b857600080fd5b5061074d613d27565b3480156111cd57600080fd5b5061074d600480360360208110156111e457600080fd5b50356001600160a01b0316613dad565b34801561120057600080fd5b5061074d6004803603602081101561121757600080fd5b50356001600160a01b0316613ebf565b34801561123357600080fd5b50610939613fd4565b34801561124857600080fd5b5061074d6004803603602081101561125f57600080fd5b50356001600160a01b0316613fda565b34801561127b57600080fd5b5061074d6004803603604081101561129257600080fd5b506001600160a01b038135169060200135614172565b3480156112b457600080fd5b506109396142ea565b3480156112c957600080fd5b506106cb6142f0565b3480156112de57600080fd5b506109396142ff565b3480156112f357600080fd5b5061074d6004803603602081101561130a57600080fd5b50356001600160a01b0316614306565b34801561132657600080fd5b506106cb6004803603602081101561133d57600080fd5b50356144d6565b34801561135057600080fd5b506106cb6144e6565b34801561136557600080fd5b506106cb6004803603602081101561137c57600080fd5b81019060208101813564010000000081111561139757600080fd5b8201836020820111156113a957600080fd5b803590602001918460018302840111640100000000831117156113cb57600080fd5b91908080601f0160208091040260200160405190810160405280939291908181526020018383808284376000920191909152509295506144f5945050505050565b34801561141857600080fd5b506106cb614524565b34801561142d57600080fd5b5061068d6004803603602081101561144457600080fd5b50356001600160a01b031661453c565b34801561146057600080fd5b5061068d6004803603602081101561147757600080fd5b50356001600160a01b0316614551565b34801561149357600080fd5b5061074d600480360360208110156114aa57600080fd5b50356001600160a01b0316614566565b3480156114c657600080fd5b5061074d600480360360208110156114dd57600080fd5b50356001600160a01b0316614677565b3480156114f957600080fd5b506115026147f4565b60408051602080825283518183015283519192839290830191858101910280838360005b8381101561153e578181015183820152602001611526565b505050509050019250505060405180910390f35b34801561155e57600080fd5b5061074d6004803603602081101561157557600080fd5b50356001600160a01b0316614856565b34801561159157600080fd5b506106cb6149d3565b3480156115a657600080fd5b506106cb6149e2565b3480156115bb57600080fd5b506109396149f1565b3480156115d057600080fd5b506109396149f7565b3480156115e557600080fd5b5061074d6149fd565b3480156115fa57600080fd5b5061074d6004803603604081101561161157600080fd5b50803560ff1690602001356001600160a01b0316614ab0565b34801561163657600080fd5b506106cb614ca9565b34801561164b57600080fd5b50611502614cb8565b34801561166057600080fd5b5061074d6004803603602081101561167757600080fd5b50356001600160a01b0316614d18565b34801561169357600080fd5b5061074d600480360360208110156116aa57600080fd5b50356001600160a01b0316614e2a565b3480156116c657600080fd5b506106cb614f3c565b3480156116db57600080fd5b5061074d600480360360208110156116f257600080fd5b50356001600160a01b0316614f4b565b34801561170e57600080fd5b506109396004803603602081101561172557600080fd5b50356001600160a01b03166150a7565b34801561174157600080fd5b5061174a6150b9565b604080519485526020850193909352838301919091526060830152519081900360800190f35b34801561177c57600080fd5b5061074d6004803603602081101561179357600080fd5b50356001600160a01b03166150cb565b3480156117af57600080fd5b5061068d600480360360408110156117c657600080fd5b8101906020810181356401000000008111156117e157600080fd5b8201836020820111156117f357600080fd5b8035906020019184600183028401116401000000008311171561181557600080fd5b91908080601f016020809104026020016040519081016040528093929190818152602001838380828437600092019190915250929550505090356001600160a01b031691506151ce9050565b34801561186d57600080fd5b50610939615209565b34801561188257600080fd5b5061188b61520f565b604051808261028080838360005b838110156118b1578181015183820152602001611899565b5050505090500191505060405180910390f35b3480156118d057600080fd5b5061068d600480360360208110156118e757600080fd5b50356001600160a01b031661524f565b60995460009061010090046001600160a01b0316331480611930575061191b6142f0565b6001600160a01b0316336001600160a01b0316145b61196b5760405162461bcd60e51b81526004018080602001828103825260348152602001806158a16034913960400191505060405180910390fd5b6119736142f0565b6001600160a01b0316336001600160a01b0316148061199457506001821515145b6119e5576040805162461bcd60e51b815260206004820152601660248201527f6f6e6c792061646d696e2063616e20756e706175736500000000000000000000604482015290519081900360640190fd5b60005b8351811015611adf5782609a6000868481518110611a0257fe5b60200260200101516001600160a01b03166001600160a01b0316815260200190815260200160002060006101000a81548160ff0219169083151502179055507f14fc4a89e124f9817afd6bc9b8270d50250d5ff6f0711b687f6fa4c34decf1cd848281518110611a6e57fe5b6020026020010151846040518080602001846001600160a01b031681526020018315158152602001828103825260198152602001807f477561726469616e20696e646976696475616c20706175736500000000000000815250602001935050505060405180910390a16001016119e8565b508190505b92915050565b6000818152607060205260409020546001600160a01b03165b919050565b6001600160a01b03811660009081526086602052604081205460ff1680611b3c57506068546001600160a01b038381169116145b80611b5457506069546001600160a01b038381169116145b80611b6c5750606a546001600160a01b038381169116145b80611b8457506071546001600160a01b038381169116145b80611b9c5750606d546001600160a01b038381169116145b80611bb45750606b546001600160a01b038381169116145b80611bd75750816001600160a01b0316611bcc6142f0565b6001600160a01b0316145b80611bea57506001600160a01b03821630145b80611bf95750611bf98261526d565b80611ae4575060866000836001600160a01b03166356ba88b86040518163ffffffff1660e01b815260040160206040518083038186803b158015611c3c57600080fd5b505afa158015611c50573d6000803e3d6000fd5b505050506040513d6020811015611c6657600080fd5b50516001600160a01b0316815260208101919091526040016000205460ff168015611ae45750816001600160a01b03166356ba88b86040518163ffffffff1660e01b815260040160206040518083038186803b158015611cc557600080fd5b505afa158015611cd9573d6000803e3d6000fd5b505050506040513d6020811015611cef57600080fd5b5051604080517f3a8219250000000000000000000000000000000000000000000000000000000081526001600160a01b03858116600483015291519190921691633a821925916024808301926020929190829003018186803b158015611d5457600080fd5b505afa158015611d68573d6000803e3d6000fd5b505050506040513d6020811015611d7e57600080fd5b505192915050565b611d8e6152bd565b6001600160a01b0316611d9f6142f0565b6001600160a01b031614611de8576040805162461bcd60e51b81526020600482018190526024820152600080516020615903833981519152604482015290519081900360640190fd5b6001600160a01b03811660009081526089602052604090205460ff16611e55576040805162461bcd60e51b815260206004820152601560248201527f4b65657065722069732077686974656c69737465640000000000000000000000604482015290519081900360640190fd5b6001600160a01b03166000908152608960205260409020805460ff19169055565b611e7e6152bd565b6001600160a01b0316611e8f6142f0565b6001600160a01b031614611ed8576040805162461bcd60e51b81526020600482018190526024820152600080516020615903833981519152604482015290519081900360640190fd5b6001600160a01b03811660009081526086602052604090205460ff16611f45576040805162461bcd60e51b815260206004820152601560248201527f47617264656e20646f6573206e6f742065786973740000000000000000000000604482015290519081900360640190fd5b6000819050806001600160a01b03166302fb0c5e6040518163ffffffff1660e01b815260040160206040518083038186803b158015611f8357600080fd5b505afa158015611f97573d6000803e3d6000fd5b505050506040513d6020811015611fad57600080fd5b505115612001576040805162461bcd60e51b815260206004820181905260248201527f5468652067617264656e206e6565647320746f2062652064697361626c65642e604482015290519081900360640190fd5b6040805163567619c560e11b81526001600482015290516001600160a01b0383169163acec338a91602480830192600092919082900301818387803b15801561204957600080fd5b505af115801561205d573d6000803e3d6000fd5b505050505050565b61206d6152bd565b6001600160a01b031661207e6142f0565b6001600160a01b0316146120c7576040805162461bcd60e51b81526020600482018190526024820152600080516020615903833981519152604482015290519081900360640190fd5b6093805462ff0000191662010000179055565b6120e26152bd565b6001600160a01b03166120f36142f0565b6001600160a01b03161461213c576040805162461bcd60e51b81526020600482018190526024820152600080516020615903833981519152604482015290519081900360640190fd5b6001600160a01b03811660009081526086602052604090205460ff166121a9576040805162461bcd60e51b815260206004820152601560248201527f47617264656e20646f6573206e6f742065786973740000000000000000000000604482015290519081900360640190fd5b806001600160a01b03166302fb0c5e6040518163ffffffff1660e01b815260040160206040518083038186803b1580156121e257600080fd5b505afa1580156121f6573d6000803e3d6000fd5b505050506040513d602081101561220c57600080fd5b505115612260576040805162461bcd60e51b815260206004820181905260248201527f5468652067617264656e206e6565647320746f2062652064697361626c65642e604482015290519081900360640190fd5b6122cd8160658054806020026020016040519081016040528092919081815260200182805480156122ba57602002820191906000526020600020905b81546001600160a01b0316815260019091019060200180831161229c575b50505050506152c190919063ffffffff16565b80516122e191606591602090910190615784565b506001600160a01b038116600081815260866020526040808220805460ff19169055517fb52dedfe431c6250e847edee5dca0a14cfaad5c6626218f99bd60c8ad9939a9f9190a250565b6123336152bd565b6001600160a01b03166123446142f0565b6001600160a01b03161461238d576040805162461bcd60e51b81526020600482018190526024820152600080516020615903833981519152604482015290519081900360640190fd5b60006123988361533e565b6000818152607060205260409020549091506001600160a01b031615612405576040805162461bcd60e51b815260206004820152601b60248201527f496e746567726174696f6e2065786973747320616c72656164792e0000000000604482015290519081900360640190fd5b6001600160a01b038216612460576040805162461bcd60e51b815260206004820152601f60248201527f496e746567726174696f6e2061646472657373206d7573742065786973742e00604482015290519081900360640190fd5b60008181526070602090815260409182902080546001600160a01b0319166001600160a01b0386161790559051845185928291908401908083835b602083106124ba5780518252601f19909201916020918201910161249b565b51815160209384036101000a6000190180199092169116179052604080519290940182900382206001600160a01b038916835293519395507ffda47fb8c9da07a420b19d406f4c50352dfa9f6513a950bb282baf8cb9b9050594509083900301919050a2505050565b6072816014811061253357600080fd5b01546001600160a01b0316905081565b61254b6152bd565b6001600160a01b031661255c6142f0565b6001600160a01b0316146125a5576040805162461bcd60e51b81526020600482018190526024820152600080516020615903833981519152604482015290519081900360640190fd5b606c546001600160a01b0382811691161415612608576040805162461bcd60e51b815260206004820152601a60248201527f497368746172204761746520616c726561647920657869737473000000000000604482015290519081900360640190fd5b6001600160a01b038116612663576040805162461bcd60e51b815260206004820152601d60248201527f4973687461722047617465206f7261636c65206d757374206578697374000000604482015290519081900360640190fd5b606c80546001600160a01b038381166001600160a01b03198316811790935560408051938452911660208301819052815190927f9d8291abf2224012a00e3e6cb815777395423c95684705c6a799205e926f38d492908290030190a15050565b6069546001600160a01b031681565b60995460ff1681565b6068546001600160a01b031681565b60915481565b608c54608d54608e54909192565b6127066152bd565b6001600160a01b03166127176142f0565b6001600160a01b031614612760576040805162461bcd60e51b81526020600482018190526024820152600080516020615903833981519152604482015290519081900360640190fd5b600061276b8361533e565b6000818152607060205260409020549091506001600160a01b03166127d7576040805162461bcd60e51b815260206004820152601b60248201527f496e746567726174696f6e20646f6573206e6f742065786973742e0000000000604482015290519081900360640190fd5b6001600160a01b038216612832576040805162461bcd60e51b815260206004820152601f60248201527f496e746567726174696f6e2061646472657373206d7573742065786973742e00604482015290519081900360640190fd5b60008181526070602090815260409182902080546001600160a01b0319166001600160a01b0386161790559051845185928291908401908083835b6020831061288c5780518252601f19909201916020918201910161286d565b51815160209384036101000a6000190180199092169116179052604080519290940182900382206001600160a01b038916835293519395507f10af83bc70c2a73aefcd7156f6f80519861b0d2657dee2b4b8a8123e70f4b99f94509083900301919050a2505050565b609354610100900460ff1681565b60955481565b6129116152bd565b6001600160a01b03166129226142f0565b6001600160a01b03161461296b576040805162461bcd60e51b81526020600482018190526024820152600080516020615903833981519152604482015290519081900360640190fd5b60005b81518110156129c35760016089600084848151811061298957fe5b6020908102919091018101516001600160a01b03168252810191909152604001600020805460ff191691151591909117905560010161296e565b5050565b60866020526000908152604090205460ff1681565b6129e46152bd565b6001600160a01b03166129f56142f0565b6001600160a01b031614612a3e576040805162461bcd60e51b81526020600482018190526024820152600080516020615903833981519152604482015290519081900360640190fd5b65017e14a710004211612a98576040805162461bcd60e51b815260206004820152601f60248201527f5472616e73666572732063616e6e6f7420626520656e61626c65642079657400604482015290519081900360640190fd5b6093805460ff19166001179055565b60668181548110612ab757600080fd5b6000918252602090912001546001600160a01b0316905081565b60935460ff1681565b606b546001600160a01b031681565b612af16152bd565b6001600160a01b0316612b026142f0565b6001600160a01b031614612b4b576040805162461bcd60e51b81526020600482018190526024820152600080516020615903833981519152604482015290519081900360640190fd5b6001600160a01b03166000908152608960205260409020805460ff19166001179055565b612b776152bd565b6001600160a01b0316612b886142f0565b6001600160a01b031614612bd1576040805162461bcd60e51b81526020600482018190526024820152600080516020615903833981519152604482015290519081900360640190fd5b6001811015612c115760405162461bcd60e51b815260040180806020018281038252602d815260200180615844602d913960400191505060405180910390fd5b609855565b6001600160a01b031660009081526089602052604090205460ff1690565b609a6020526000908152604090205460ff1681565b60995461010090046001600160a01b031681565b60995461010090046001600160a01b0316331480612c935750612c7e6142f0565b6001600160a01b0316336001600160a01b0316145b612cce5760405162461bcd60e51b81526004018080602001828103825260378152602001806159236037913960400191505060405180910390fd5b609980546001600160a01b038381166101008181027fffffffffffffffffffffff0000000000000000000000000000000000000000ff8516179094556040805194909304919091168084526020840191909152815190927f0613b6ee6a04f0d09f390e4d9318894b9f6ac7fd83897cd8d18896ba579c401e92908290030190a15050565b60905481565b612d606152bd565b6001600160a01b0316612d716142f0565b6001600160a01b031614612dba576040805162461bcd60e51b81526020600482018190526024820152600080516020615903833981519152604482015290519081900360640190fd5b609354610100900460ff16612e50576093805461ff001916610100179055606b54604080517f79fc904f00000000000000000000000000000000000000000000000000000000815290516001600160a01b03909216916379fc904f9160048082019260009290919082900301818387803b158015612e3757600080fd5b505af1158015612e4b573d6000803e3d6000fd5b505050505b565b612e5a6152bd565b6001600160a01b0316612e6b6142f0565b6001600160a01b031614612eb4576040805162461bcd60e51b81526020600482018190526024820152600080516020615903833981519152604482015290519081900360640190fd5b6001600160a01b038116612f07576040805162461bcd60e51b8152602060048201526015602482015274041646472657373206d757374206e6f74206265203605c1b604482015290519081900360640190fd5b6071546001600160a01b0382811691161415612f6a576040805162461bcd60e51b815260206004820152601960248201527f41646472657373206d75737420626520646966666572656e7400000000000000604482015290519081900360640190fd5b806001600160a01b0316607060006130a6846001600160a01b03166317d7de7c6040518163ffffffff1660e01b815260040160006040518083038186803b158015612fb457600080fd5b505afa158015612fc8573d6000803e3d6000fd5b505050506040513d6000823e601f3d908101601f191682016040526020811015612ff157600080fd5b810190808051604051939291908464010000000082111561301157600080fd5b90830190602082018581111561302657600080fd5b825164010000000081118282018810171561304057600080fd5b82525081516020918201929091019080838360005b8381101561306d578181015183820152602001613055565b50505050905090810190601f16801561309a5780820380516001836020036101000a031916815260200191505b5060405250505061533e565b81526020810191909152604001600020546001600160a01b031614613112576040805162461bcd60e51b815260206004820152601d60248201527f496e746567726174696f6e206e6565647320746f2062652076616c6964000000604482015290519081900360640190fd5b607180546001600160a01b038381166001600160a01b031983168117909355604080519190921680825291519192917f7c0554a0d606bbd6266e57a40fdb3702f32d1a564d5d06f05ed977ace613dd349181900360200190a25050565b62093a8081565b60945481565b609b5460009060ff1680611ae45750506001600160a01b03166000908152609a602052604090205460ff1690565b601481565b60896020526000908152604090205460ff1681565b6071546001600160a01b031681565b6131db6152bd565b6001600160a01b03166131ec6142f0565b6001600160a01b031614613235576040805162461bcd60e51b81526020600482018190526024820152600080516020615903833981519152604482015290519081900360640190fd5b60006132408261533e565b6000818152607060205260409020549091506001600160a01b03166132ac576040805162461bcd60e51b815260206004820152601b60248201527f496e746567726174696f6e20646f6573206e6f742065786973742e0000000000604482015290519081900360640190fd5b60008181526070602090815260409182902080546001600160a01b03198116909155915184516001600160a01b039093169285928291908401908083835b602083106133095780518252601f1990920191602091820191016132ea565b51815160209384036101000a6000190180199092169116179052604080519290940182900382206001600160a01b038816835293519395507ffc3fbb608ec9e619ead57ddfa31f2ab35c888b67f6471b74dce69c035eed445b94509083900301919050a2505050565b608b546001600160a01b031681565b609b5460ff1681565b6133926152bd565b6001600160a01b03166133a36142f0565b6001600160a01b0316146133ec576040805162461bcd60e51b81526020600482018190526024820152600080516020615903833981519152604482015290519081900360640190fd5b6001600160a01b03811661343f576040805162461bcd60e51b8152602060048201526015602482015274041646472657373206d757374206e6f74206265203605c1b604482015290519081900360640190fd5b606d80546001600160a01b038381166001600160a01b031983168117909355604080519190921680825291519192917f57c1ea229271e944c7d975557caf535c1c974708de760613121827217db4ce8f9181900360200190a25050565b60995460009061010090046001600160a01b03163314806134d557506134c06142f0565b6001600160a01b0316336001600160a01b0316145b6135105760405162461bcd60e51b81526004018080602001828103825260308152602001806158716030913960400191505060405180910390fd5b6135186142f0565b6001600160a01b0316336001600160a01b0316148061353957506001821515145b61358a576040805162461bcd60e51b815260206004820152601660248201527f6f6e6c792061646d696e2063616e20756e706175736500000000000000000000604482015290519081900360640190fd5b609b805483151560ff1990911681179091556040805160208101929092528082526015828201527f477561726469616e20676c6f62616c20706175736500000000000000000000006060830152517fef159d9a32b2472e32b098f954f3ce62d232939f1c207070b584df1814de2de09181900360800190a15090565b6071546000906001600160a01b0316613666576040805162461bcd60e51b815260206004820181905260248201527f4e65656420612064656661756c7420747261646520696e746567726174696f6e604482015290519081900360640190fd5b606c54604080517f7804a5dc00000000000000000000000000000000000000000000000000000000815233600482015290516001600160a01b0390921691637804a5dc91602480820192602092909190829003018186803b1580156136ca57600080fd5b505afa1580156136de573d6000803e3d6000fd5b505050506040513d60208110156136f457600080fd5b505180613703575060995460ff165b61373e5760405162461bcd60e51b815260040180806020018281038252602781526020018061595a6027913960400191505060405180910390fd5b6000606a60009054906101000a90046001600160a01b03166001600160a01b0316638d06366f8b338c8c8c8c8c8c8c6040518a63ffffffff1660e01b8152600401808a6001600160a01b03168152602001896001600160a01b031681526020018060200180602001806020018881526020018060200186815260200185810385528c818151815260200191508051906020019080838360005b838110156137ef5781810151838201526020016137d7565b50505050905090810190601f16801561381c5780820380516001836020036101000a031916815260200191505b5085810384528b5181528b516020918201918d019080838360005b8381101561384f578181015183820152602001613837565b50505050905090810190601f16801561387c5780820380516001836020036101000a031916815260200191505b5085810383528a5181528a516020918201918c019080838360005b838110156138af578181015183820152602001613897565b50505050905090810190601f1680156138dc5780820380516001836020036101000a031916815260200191505b508581038252888882818152602001925060200280828437600081840152601f19601f8201169050808301925050509d5050505050505050505050505050602060405180830381600087803b15801561393457600080fd5b505af1158015613948573d6000803e3d6000fd5b505050506040513d602081101561395e57600080fd5b505190506001600160a01b038a1673c02aaa39b223fe8d0a0e5c4f27ead9083c756cc214158061398c575034155b15613ac457604080517f23b872dd0000000000000000000000000000000000000000000000000000000081523360048201523060248201526044810185905290516001600160a01b038c16916323b872dd9160648083019260209291908290030181600087803b1580156139ff57600080fd5b505af1158015613a13573d6000803e3d6000fd5b505050506040513d6020811015613a2957600080fd5b5050604080517f095ea7b30000000000000000000000000000000000000000000000000000000081526001600160a01b038381166004830152602482018690529151918c169163095ea7b3916044808201926020929091908290030181600087803b158015613a9757600080fd5b505af1158015613aab573d6000803e3d6000fd5b505050506040513d6020811015613ac157600080fd5b50505b6001600160a01b03811660009081526086602052604090205460ff1615613b32576040805162461bcd60e51b815260206004820152601560248201527f47617264656e20616c7265616479206578697374730000000000000000000000604482015290519081900360640190fd5b6001600160a01b038116600081815260866020526040808220805460ff191660019081179091556065805480830182559084527f8ff97419363ffd7000167f130ef7168fbea05faf9251824ca5043f113cc6a7c70180546001600160a01b0319168517905581517f695f3f5d00000000000000000000000000000000000000000000000000000000815260048101889052602481018890523360448201526064810191909152905163695f3f5d9234926084808201939182900301818588803b158015613bfe57600080fd5b505af1158015613c12573d6000803e3d6000fd5b50506040513393506001600160a01b03851692507f3f9c315348eaae54d760380967a68b458af53312321328f584799f93283dc1de9150600090a39998505050505050505050565b61546090565b613c686152bd565b6001600160a01b0316613c796142f0565b6001600160a01b031614613cc2576040805162461bcd60e51b81526020600482018190526024820152600080516020615903833981519152604482015290519081900360640190fd5b6033546040516000916001600160a01b0316907f8be0079c531659141344cd1fd0a4f28419497f9722a3daafe3b4186f6b6457e0908390a3603380546001600160a01b0319169055565b60985481565b608c5481565b60935462010000900460ff1681565b613d2f615349565b6611c37937e0800060955566b1a2bc2ec5000060948190556000609681905560975567016345785d8a0000608c55608d55670b1a2bc2ec500000608e5567011c37937e080000608f5567025bf6196bd10000609055670a688906bd8b0000609155670214e8348c4f000060925560646098556099805460ff19169055565b613db56152bd565b6001600160a01b0316613dc66142f0565b6001600160a01b031614613e0f576040805162461bcd60e51b81526020600482018190526024820152600080516020615903833981519152604482015290519081900360640190fd5b6001600160a01b038116613e62576040805162461bcd60e51b8152602060048201526015602482015274041646472657373206d757374206e6f74206265203605c1b604482015290519081900360640190fd5b606b80546001600160a01b038381166001600160a01b031983168117909355604080519190921680825291519192917f52cd8e0a7f86e9df123b3357ab2ee1c4cd0f5ac84ca8c98d93beb2679b2bb8069181900360200190a25050565b613ec76152bd565b6001600160a01b0316613ed86142f0565b6001600160a01b031614613f21576040805162461bcd60e51b81526020600482018190526024820152600080516020615903833981519152604482015290519081900360640190fd5b6001600160a01b038116613f74576040805162461bcd60e51b8152602060048201526015602482015274041646472657373206d757374206e6f74206265203605c1b604482015290519081900360640190fd5b608b80546001600160a01b038381166001600160a01b03198316811790935560408051938452911660208301819052815190927f8c3aa5f43a388513435861bf27dfad7829cd248696fed367c62d441f6295449692908290030190a15050565b60925481565b613fe26152bd565b6001600160a01b0316613ff36142f0565b6001600160a01b03161461403c576040805162461bcd60e51b81526020600482018190526024820152600080516020615903833981519152604482015290519081900360640190fd5b6001600160a01b03811660009081526087602052604090205460ff166140a9576040805162461bcd60e51b815260206004820152601c60248201527f5265736572766520617373657420646f6573206e6f7420657869737400000000604482015290519081900360640190fd5b6141148160668054806020026020016040519081016040528092919081815260200182805480156122ba576020028201919060005260206000209081546001600160a01b0316815260019091019060200180831161229c5750505050506152c190919063ffffffff16565b805161412891606691602090910190615784565b506001600160a01b038116600081815260876020526040808220805460ff19169055517f2a4ae73bc76175e864e83c9843f11cf15a1bfcfa73152fb96d133416efee48ed9190a250565b61417a6152bd565b6001600160a01b031661418b6142f0565b6001600160a01b0316146141d4576040805162461bcd60e51b81526020600482018190526024820152600080516020615903833981519152604482015290519081900360640190fd5b60008111614229576040805162461bcd60e51b815260206004820152601d60248201527f5f6d696e5269736b79506169724c6971756964697479457468203e2030000000604482015290519081900360640190fd5b6001600160a01b03821660009081526087602052604090205460ff16614296576040805162461bcd60e51b815260206004820152601b60248201527f4e6565647320746f20626520612076616c696420726573657276650000000000604482015290519081900360640190fd5b6001600160a01b0382166000818152608a6020908152604091829020849055815184815291517fb78c51bc9bffa228585b84c38a0234fe0a48eb7aeb9f7a6a7a46f0ddd3270dd59281900390910190a25050565b608e5481565b60006142fa6153fb565b905090565b62093a8090565b61430e6152bd565b6001600160a01b031661431f6142f0565b6001600160a01b031614614368576040805162461bcd60e51b81526020600482018190526024820152600080516020615903833981519152604482015290519081900360640190fd5b6001600160a01b03811660009081526086602052604090205460ff166143d5576040805162461bcd60e51b815260206004820152601560248201527f47617264656e20646f6573206e6f742065786973740000000000000000000000604482015290519081900360640190fd5b6000819050806001600160a01b03166302fb0c5e6040518163ffffffff1660e01b815260040160206040518083038186803b15801561441357600080fd5b505afa158015614427573d6000803e3d6000fd5b505050506040513d602081101561443d57600080fd5b5051614490576040805162461bcd60e51b815260206004820152601e60248201527f5468652067617264656e206e6565647320746f206265206163746976652e0000604482015290519081900360640190fd5b6040805163567619c560e11b815260006004820181905291516001600160a01b0384169263acec338a926024808201939182900301818387803b15801561204957600080fd5b60658181548110612ab757600080fd5b606d546001600160a01b031681565b6000607060006145048461533e565b81526020810191909152604001600020546001600160a01b031692915050565b73c02aaa39b223fe8d0a0e5c4f27ead9083c756cc281565b60886020526000908152604090205460ff1681565b60876020526000908152604090205460ff1681565b61456e6152bd565b6001600160a01b031661457f6142f0565b6001600160a01b0316146145c8576040805162461bcd60e51b81526020600482018190526024820152600080516020615903833981519152604482015290519081900360640190fd5b6001600160a01b03811661461b576040805162461bcd60e51b8152602060048201526015602482015274041646472657373206d757374206e6f74206265203605c1b604482015290519081900360640190fd5b606f80546001600160a01b038381166001600160a01b031983168117909355604080519190921680825291519192917e40167ea3901ef812c672b081813db3c0fc117c302ace151f1f9a907906e1669181900360200190a25050565b61467f6152bd565b6001600160a01b03166146906142f0565b6001600160a01b0316146146d9576040805162461bcd60e51b81526020600482018190526024820152600080516020615903833981519152604482015290519081900360640190fd5b6068546001600160a01b038281169116141561473c576040805162461bcd60e51b815260206004820152601c60248201527f47617264656e2056616c75657220616c72656164792065786973747300000000604482015290519081900360640190fd5b6001600160a01b038116614797576040805162461bcd60e51b815260206004820152601860248201527f47617264656e2056616c756572206d7573742065786973740000000000000000604482015290519081900360640190fd5b606880546001600160a01b038381166001600160a01b031983168117909355604080519190921680825291519192917fb89b871cab0fe1b2d8c7cc3e16640ef9a9bf67f031e44947331820e025bf69479181900360200190a25050565b6060606680548060200260200160405190810160405280929190818152602001828054801561484c57602002820191906000526020600020905b81546001600160a01b0316815260019091019060200180831161482e575b5050505050905090565b61485e6152bd565b6001600160a01b031661486f6142f0565b6001600160a01b0316146148b8576040805162461bcd60e51b81526020600482018190526024820152600080516020615903833981519152604482015290519081900360640190fd5b6069546001600160a01b038281169116141561491b576040805162461bcd60e51b815260206004820152601b60248201527f5072696365206f7261636c6520616c7265616479206578697374730000000000604482015290519081900360640190fd5b6001600160a01b038116614976576040805162461bcd60e51b815260206004820152601760248201527f5072696365206f7261636c65206d757374206578697374000000000000000000604482015290519081900360640190fd5b606980546001600160a01b038381166001600160a01b031983168117909355604080519190921680825291519192917f40bddd72ea96b80dae14e3d13e8ce2c4ecd2500d88c6c0004d24a00deab28f9c9181900360200190a25050565b606a546001600160a01b031681565b606c546001600160a01b031681565b608d5481565b608f5481565b614a056152bd565b6001600160a01b0316614a166142f0565b6001600160a01b031614614a5f576040805162461bcd60e51b81526020600482018190526024820152600080516020615903833981519152604482015290519081900360640190fd5b60995460ff1615614aa15760405162461bcd60e51b815260040180806020018281038252602d815260200180615981602d913960400191505060405180910390fd5b6099805460ff19166001179055565b614ab86152bd565b6001600160a01b0316614ac96142f0565b6001600160a01b031614614b12576040805162461bcd60e51b81526020600482018190526024820152600080516020615903833981519152604482015290519081900360640190fd5b601460ff831610614b6a576040805162461bcd60e51b815260206004820152601660248201527f4d6178206f7065726174696f6e73207265616368656400000000000000000000604482015290519081900360640190fd5b806001600160a01b031660728360ff1660148110614b8457fe5b01546001600160a01b03161415614be2576040805162461bcd60e51b815260206004820152601560248201527f4f7065726174696f6e20616c7265616479207365740000000000000000000000604482015290519081900360640190fd5b6001600160a01b038116614c3d576040805162461bcd60e51b815260206004820152601d60248201527f4f7065726174696f6e2061646472657373206d7573742065786973742e000000604482015290519081900360640190fd5b8060728360ff1660148110614c4e57fe5b0180546001600160a01b039283166001600160a01b03199091161790556040805191831682525160ff8416917f2dc23b4bb2132388a8a9f2d4a7ec650d42dcd4c1c63e6495756fa25e8ecc6abd919081900360200190a25050565b606f546001600160a01b031681565b6060606580548060200260200160405190810160405280929190818152602001828054801561484c576020028201919060005260206000209081546001600160a01b0316815260019091019060200180831161482e575050505050905090565b614d206152bd565b6001600160a01b0316614d316142f0565b6001600160a01b031614614d7a576040805162461bcd60e51b81526020600482018190526024820152600080516020615903833981519152604482015290519081900360640190fd5b6001600160a01b038116614dcd576040805162461bcd60e51b8152602060048201526015602482015274041646472657373206d757374206e6f74206265203605c1b604482015290519081900360640190fd5b606e80546001600160a01b038381166001600160a01b031983168117909355604080519190921680825291519192917f578086cc379999d712cf9ea4c177a02b092c028a84cf82d2dd590f2606b3169f9181900360200190a25050565b614e326152bd565b6001600160a01b0316614e436142f0565b6001600160a01b031614614e8c576040805162461bcd60e51b81526020600482018190526024820152600080516020615903833981519152604482015290519081900360640190fd5b6001600160a01b038116614edf576040805162461bcd60e51b8152602060048201526015602482015274041646472657373206d757374206e6f74206265203605c1b604482015290519081900360640190fd5b606a80546001600160a01b038381166001600160a01b031983168117909355604080519190921680825291519192917f1e3307b8b00f4ec731298a869e9665a2662abd65a0e3fe9dd01fd53c35b0ae939181900360200190a25050565b606e546001600160a01b031681565b614f536152bd565b6001600160a01b0316614f646142f0565b6001600160a01b031614614fad576040805162461bcd60e51b81526020600482018190526024820152600080516020615903833981519152604482015290519081900360640190fd5b6001600160a01b03811660009081526087602052604090205460ff161561501b576040805162461bcd60e51b815260206004820152601b60248201527f5265736572766520617373657420616c72656164792061646465640000000000604482015290519081900360640190fd5b6001600160a01b038116600081815260876020526040808220805460ff1916600190811790915560668054918201815583527f46501879b8ca8525e8c2fd519e2fbfcfa2ebea26501294aa02cbfcfb12e943540180546001600160a01b03191684179055517f9fef46e320a4767c320315d2f597ee79c1e17c3c3330d026764d6a7dac8fcd5c9190a250565b608a6020526000908152604090205481565b608f5460905460915460925490919293565b6150d36152bd565b6001600160a01b03166150e46142f0565b6001600160a01b03161461512d576040805162461bcd60e51b81526020600482018190526024820152600080516020615903833981519152604482015290519081900360640190fd5b6001600160a01b0381166151725760405162461bcd60e51b815260040180806020018281038252602681526020018061581e6026913960400191505060405180910390fd5b6033546040516001600160a01b038084169216907f8be0079c531659141344cd1fd0a4f28419497f9722a3daafe3b4186f6b6457e090600090a3603380546001600160a01b0319166001600160a01b0392909216919091179055565b6000816001600160a01b0316607060006151e78661533e565b81526020810191909152604001600020546001600160a01b0316149392505050565b61546081565b6152176157e9565b60408051610280810191829052607280546001600160a01b03168252909160149060736020850180831161482e575050505050905090565b6001600160a01b031660009081526087602052604090205460ff1690565b6000805b601460ff821610156152b45760728160ff166014811061528d57fe5b01546001600160a01b03848116911614156152ac576001915050611b03565b600101615271565b50600092915050565b3390565b60606000806152d0858561540a565b9150915080615326576040805162461bcd60e51b815260206004820152601560248201527f41646472657373206e6f7420696e2061727261792e0000000000000000000000604482015290519081900360640190fd5b60006153328684615470565b509350611ae492505050565b805160209091012090565b600054610100900460ff168061536257506153626155d4565b80615370575060005460ff16155b6153ab5760405162461bcd60e51b815260040180806020018281038252602e8152602001806158d5602e913960400191505060405180910390fd5b600054610100900460ff161580156153d6576000805460ff1961ff0019909116610100171660011790555b6153de6155e5565b6153e6615685565b80156153f8576000805461ff00191690555b50565b6033546001600160a01b031690565b81516000908190815b8181101561545d57846001600160a01b031686828151811061543157fe5b60200260200101516001600160a01b03161415615455579250600191506154699050565b600101615413565b50600019600092509250505b9250929050565b81516060906000908084106154cc576040805162461bcd60e51b815260206004820152601860248201527f496e646578206d757374206265203c2041206c656e6774680000000000000000604482015290519081900360640190fd5b60006001820367ffffffffffffffff811180156154e857600080fd5b50604051908082528060200260200182016040528015615512578160200160208202803683370190505b50905060005b858110156155605786818151811061552c57fe5b602002602001015182828151811061554057fe5b6001600160a01b0390921660209283029190910190910152600101615518565b50600185015b828110156155b15786818151811061557a57fe5b602002602001015182600183038151811061559157fe5b6001600160a01b0390921660209283029190910190910152600101615566565b50808686815181106155bf57fe5b60200260200101519350935050509250929050565b60006155df3061577e565b15905090565b600054610100900460ff16806155fe57506155fe6155d4565b8061560c575060005460ff16155b6156475760405162461bcd60e51b815260040180806020018281038252602e8152602001806158d5602e913960400191505060405180910390fd5b600054610100900460ff161580156153e6576000805460ff1961ff00199091166101001716600117905580156153f8576000805461ff001916905550565b600054610100900460ff168061569e575061569e6155d4565b806156ac575060005460ff16155b6156e75760405162461bcd60e51b815260040180806020018281038252602e8152602001806158d5602e913960400191505060405180910390fd5b600054610100900460ff16158015615712576000805460ff1961ff0019909116610100171660011790555b600061571c6152bd565b603380546001600160a01b0319166001600160a01b038316908117909155604051919250906000907f8be0079c531659141344cd1fd0a4f28419497f9722a3daafe3b4186f6b6457e0908290a35080156153f8576000805461ff001916905550565b3b151590565b8280548282559060005260206000209081019282156157d9579160200282015b828111156157d957825182546001600160a01b0319166001600160a01b039091161782556020909201916001909101906157a4565b506157e5929150615808565b5090565b6040518061028001604052806014906020820280368337509192915050565b5b808211156157e5576000815560010161580956fe4f776e61626c653a206e6577206f776e657220697320746865207a65726f2061646472657373436f6e7472696275746f72732063616e6e6f74206265206c657373207468616e2031207065722067617264656e6f6e6c7920706175736520677561726469616e20616e64206f776e65722063616e20706175736520676c6f62616c6c796f6e6c7920706175736520677561726469616e20616e64206f776e65722063616e20706175736520696e646976696475616c6c79496e697469616c697a61626c653a20636f6e747261637420697320616c726561647920696e697469616c697a65644f776e61626c653a2063616c6c6572206973206e6f7420746865206f776e65726f6e6c7920706175736520677561726469616e20616e64206f776e65722063616e2075706461746520706175736520677561726469616e5573657220646f6573206e6f742068617665206372656174696f6e207065726d697373696f6e7347617264656e206372656174696f6e20697320616c7265616479206f70656e20746f20746865207075626c6963a26469706673582212203097039ac50ec2bab1a96bdf7ae2d25df8f3250bc61513baa5b0eddee1d394fb64736f6c63430007060033",
  "devdoc": {
    "kind": "dev",
    "methods": {
      "addIntegration(string,address)": {
        "params": {
          "_integration": "Address of the integration contract to add",
          "_name": "Human readable string identifying the integration"
        }
      },
      "addKeeper(address)": {
        "params": {
          "_keeper": "Address of the keeper"
        }
      },
      "addKeepers(address[])": {
        "params": {
          "_keepers": "List with keeprs of the assets to whitelist"
        }
      },
      "addReserveAsset(address)": {
        "params": {
          "_reserveAsset": "Address of the reserve assset"
        }
      },
      "createGarden(address,string,string,string,uint256,uint256[],uint256)": {
        "params": {
          "_gardenParams": "Array of numeric garden params",
          "_initialContribution": "Initial contribution by the gardener",
          "_name": "Name of the Garden",
          "_reserveAsset": "Reserve asset of the Garden. Initially just weth",
          "_seed": "Seed to regenerate the garden NFT",
          "_symbol": "Symbol of the Garden",
          "_tokenURI": "Garden NFT token URI"
        }
      },
      "disableGarden(address)": {
        "params": {
          "_garden": "Address of the garden"
        }
      },
      "editGardenFactory(address)": {
        "params": {
          "_newGardenFactory": "Address of the new garden factory"
        }
      },
      "editGardenNFT(address)": {
        "params": {
          "_newGardenNFT": "Address of the new garden NFT"
        }
      },
      "editGardenValuer(address)": {
        "params": {
          "_gardenValuer": "Address of the new garden valuer"
        }
      },
      "editIntegration(string,address)": {
        "params": {
          "_integration": "Address of the integration contract to edit",
          "_name": "Human readable string identifying the integration"
        }
      },
      "editIshtarGate(address)": {
        "params": {
          "_ishtarGate": "Address of the new Ishtar Gate"
        }
      },
      "editLiquidityReserve(address,uint256)": {
        "params": {
          "_newMinLiquidityReserve": "Absolute min liquidity of an asset to grab price",
          "_reserve": "Address of the reserve to edit"
        }
      },
      "editPriceOracle(address)": {
        "params": {
          "_priceOracle": "Address of the new price oracle"
        }
      },
      "editRewardsDistributor(address)": {
        "params": {
          "_newRewardsDistributor": "Address of the new rewards distributor"
        }
      },
      "editStrategyFactory(address)": {
        "params": {
          "_newStrategyFactory": "Address of the new strategy factory"
        }
      },
      "editStrategyNFT(address)": {
        "params": {
          "_newStrategyNFT": "Address of the new strategy NFT"
        }
      },
      "editTreasury(address)": {
        "params": {
          "_newTreasury": "Address of the new protocol fee recipient"
        }
      },
      "enableGarden(address)": {
        "params": {
          "_garden": "Address of the garden"
        }
      },
      "getBABLSharing()": {
        "returns": {
          "_0": "Strategist, Stewards, Lps, creator bonus"
        }
      },
      "getIntegrationByName(string)": {
        "params": {
          "_name": "Human readable integration name"
        },
        "returns": {
          "_0": "Address of integration"
        }
      },
      "getIntegrationWithHash(bytes32)": {
        "params": {
          "_nameHashP": "Hash of human readable integration name"
        },
        "returns": {
          "_0": "Address of integration"
        }
      },
      "getProfitSharing()": {
        "returns": {
          "_0": "Strategist, Stewards, Lps, creator bonus"
        }
      },
      "isPaused(address)": {
        "params": {
          "_contract": "Smartcontract address to check for a global or specific pause"
        }
      },
      "isSystemContract(address)": {
        "params": {
          "_contractAddress": "The contract address to check"
        }
      },
      "isValidIntegration(string,address)": {
        "params": {
          "_name": "Human readable string identifying the integration"
        },
        "returns": {
          "_0": "Boolean indicating if valid"
        }
      },
      "removeGarden(address)": {
        "params": {
          "_garden": "Address of the Garden contract to remove"
        }
      },
      "removeIntegration(string)": {
        "params": {
          "_name": "Human readable string identifying the integration"
        }
      },
      "removeKeeper(address)": {
        "params": {
          "_keeper": "Address of the keeper"
        }
      },
      "removeReserveAsset(address)": {
        "params": {
          "_reserveAsset": "Address of the reserve asset to remove"
        }
      },
      "renounceOwnership()": {
        "details": "Leaves the contract without owner. It will not be possible to call `onlyOwner` functions anymore. Can only be called by the current owner. NOTE: Renouncing ownership will leave the contract without an owner, thereby removing any functionality that is only available to the owner."
      },
      "setDefaultTradeIntegration(address)": {
        "params": {
          "_newDefaultTradeIntegation": "Address of the new default trade integration"
        }
      },
      "setGlobalPause(bool)": {
        "params": {
          "_state": "True to pause, false to unpause."
        }
      },
      "setOperation(uint8,address)": {
        "params": {
          "_kind": "Operation kind",
          "_operation": "Address of the operation contract to set"
        }
      },
      "setPauseGuardian(address)": {
        "params": {
          "_guardian": "Address of the guardian"
        }
      },
      "setSomePause(address[],bool)": {
        "params": {
          "_address": "Addresses of protocol smartcontract to be paused",
          "_state": "Boolean pause state"
        }
      },
      "transferOwnership(address)": {
        "details": "Transfers ownership of the contract to a new account (`newOwner`). Can only be called by the current owner."
      }
    },
    "version": 1
  },
  "userdoc": {
    "events": {
      "ActionPaused(string,bool)": {
        "notice": "Emitted when an action is paused globally"
      },
      "ActionPausedIndividually(string,address,bool)": {
        "notice": "Emitted when an action is paused individually"
      },
      "NewPauseGuardian(address,address)": {
        "notice": "Emitted when pause guardian is changed"
      }
    },
    "kind": "user",
    "methods": {
      "addIntegration(string,address)": {
        "notice": "GOVERNANCE FUNCTION: Add a new integration to the registry"
      },
      "addKeeper(address)": {
        "notice": "PRIVILEGED FACTORY FUNCTION. Adds a new valid keeper to the list"
      },
      "addKeepers(address[])": {
        "notice": "PRIVILEGED FACTORY FUNCTION. Adds a list of assets to the whitelist"
      },
      "addReserveAsset(address)": {
        "notice": "PRIVILEGED FACTORY FUNCTION. Adds a new valid reserve asset for gardens"
      },
      "createGarden(address,string,string,string,uint256,uint256[],uint256)": {
        "notice": "Creates a Garden smart contract and registers the Garden with the controller. If asset is not WETH, the creator needs to approve the controller"
      },
      "disableGarden(address)": {
        "notice": "PRIVILEGED GOVERNANCE FUNCTION. Allows governance to disable a garden"
      },
      "editGardenFactory(address)": {
        "notice": "PRIVILEGED GOVERNANCE FUNCTION. Allows governance to edit the protocol garden factory"
      },
      "editGardenNFT(address)": {
        "notice": "PRIVILEGED GOVERNANCE FUNCTION. Allows governance to edit the protocol garden NFT"
      },
      "editGardenValuer(address)": {
        "notice": "PRIVILEGED GOVERNANCE FUNCTION. Allows governance to change the garden valuer"
      },
      "editIntegration(string,address)": {
        "notice": "GOVERNANCE FUNCTION: Edit an existing integration on the registry"
      },
      "editIshtarGate(address)": {
        "notice": "PRIVILEGED GOVERNANCE FUNCTION. Allows governance to change the Ishtar Gate Address"
      },
      "editLiquidityReserve(address,uint256)": {
        "notice": "GOVERNANCE FUNCTION: Edits the minimum liquidity an asset must have on Uniswap"
      },
      "editPriceOracle(address)": {
        "notice": "PRIVILEGED GOVERNANCE FUNCTION. Allows governance to change the price oracle"
      },
      "editRewardsDistributor(address)": {
        "notice": "PRIVILEGED GOVERNANCE FUNCTION. Allows governance to edit the rewards distributor"
      },
      "editStrategyFactory(address)": {
        "notice": "PRIVILEGED GOVERNANCE FUNCTION. Allows governance to edit the protocol strategy factory"
      },
      "editStrategyNFT(address)": {
        "notice": "PRIVILEGED GOVERNANCE FUNCTION. Allows governance to edit the protocol strategy NFT"
      },
      "editTreasury(address)": {
        "notice": "PRIVILEGED GOVERNANCE FUNCTION. Allows governance to edit the protocol fee recipient"
      },
      "enableBABLMiningProgram()": {
        "notice": "PRIVILEGED GOVERNANCE FUNCTION. Enable and starts the BABL Mining program by the Rewards Distributor Can only happen after public launch of the protocol."
      },
      "enableGarden(address)": {
        "notice": "PRIVILEGED GOVERNANCE FUNCTION. Allows governance to enable a garden"
      },
      "enableGardenTokensTransfers()": {
        "notice": "PRIVILEGED GOVERNANCE FUNCTION. Allows transfers of ERC20 gardenTokens Can only happen after 2021 is finished."
      },
      "getBABLSharing()": {
        "notice": "Returns the percentages of BABL Profit Sharing"
      },
      "getIntegrationByName(string)": {
        "notice": "Get the integration address associated with passed human readable name"
      },
      "getIntegrationWithHash(bytes32)": {
        "notice": "Get integration integration address associated with passed hashed name"
      },
      "getProfitSharing()": {
        "notice": "Returns the percentages of a strategy Profit Sharing"
      },
      "initialize()": {
        "notice": "Initializes the initial fee recipient on deployment."
      },
      "isPaused(address)": {
        "notice": "Check whether or not there is a global pause or a specific pause of the provided contract address"
      },
      "isSystemContract(address)": {
        "notice": "Check if a contract address is a garden or one of the system contracts"
      },
      "isValidIntegration(string,address)": {
        "notice": "Check if integration name is valid"
      },
      "openPublicGardenCreation()": {
        "notice": "PRIVILEGED GOVERNANCE FUNCTION. Allows governance to enable public creation of gardens"
      },
      "removeGarden(address)": {
        "notice": "PRIVILEGED GOVERNANCE FUNCTION. Allows governance to remove a Garden"
      },
      "removeIntegration(string)": {
        "notice": "GOVERNANCE FUNCTION: Remove an existing integration on the registry"
      },
      "removeKeeper(address)": {
        "notice": "PRIVILEGED FACTORY FUNCTION. Removes a keeper"
      },
      "removeReserveAsset(address)": {
        "notice": "PRIVILEGED GOVERNANCE FUNCTION. Allows governance to remove a reserve asset"
      },
      "setAllowPublicGardens()": {
        "notice": "PRIVILEGED GOVERNANCE FUNCTION. Allows public gardens"
      },
      "setDefaultTradeIntegration(address)": {
        "notice": "PRIVILEGED GOVERNANCE FUNCTION. Allows governance to edit the protocol default trde integration"
      },
      "setGlobalPause(bool)": {
        "notice": "PRIVILEGED GOVERNANCE FUNCTION. Pause the protocol globally in case of unexpected issue Only the governance can unpause it"
      },
      "setMaxContributorsPerGarden(uint256)": {
        "notice": "PRIVILEGED GOVERNANCE FUNCTION. Change the max number of contributors for new Gardens since the change"
      },
      "setOperation(uint8,address)": {
        "notice": "GOVERNANCE FUNCTION: Edit an existing operation on the registry"
      },
      "setPauseGuardian(address)": {
        "notice": "PRIVILEGED GOVERNANCE FUNCTION. Set-up a pause guardian"
      },
      "setSomePause(address[],bool)": {
        "notice": "PRIVILEGED GOVERNANCE FUNCTION. Pause some smartcontracts in a batch process in case of unexpected issue Only the governance can unpause it"
      }
    },
    "version": 1
  },
  "storageLayout": {
    "storage": [
      {
        "astId": 492,
        "contract": "contracts/BabController.sol:BabControllerV4",
        "label": "_initialized",
        "offset": 0,
        "slot": "0",
        "type": "t_bool"
      },
      {
        "astId": 495,
        "contract": "contracts/BabController.sol:BabControllerV4",
        "label": "_initializing",
        "offset": 1,
        "slot": "0",
        "type": "t_bool"
      },
      {
        "astId": 1447,
        "contract": "contracts/BabController.sol:BabControllerV4",
        "label": "__gap",
        "offset": 0,
        "slot": "1",
        "type": "t_array(t_uint256)50_storage"
      },
      {
        "astId": 10,
        "contract": "contracts/BabController.sol:BabControllerV4",
        "label": "_owner",
        "offset": 0,
        "slot": "51",
        "type": "t_address"
      },
      {
        "astId": 129,
        "contract": "contracts/BabController.sol:BabControllerV4",
        "label": "__gap",
        "offset": 0,
        "slot": "52",
        "type": "t_array(t_uint256)49_storage"
      },
      {
        "astId": 8365,
        "contract": "contracts/BabController.sol:BabControllerV4",
        "label": "gardens",
        "offset": 0,
        "slot": "101",
        "type": "t_array(t_address)dyn_storage"
      },
      {
        "astId": 8368,
        "contract": "contracts/BabController.sol:BabControllerV4",
        "label": "reserveAssets",
        "offset": 0,
        "slot": "102",
        "type": "t_array(t_address)dyn_storage"
      },
      {
        "astId": 8370,
        "contract": "contracts/BabController.sol:BabControllerV4",
        "label": "uniswapFactory",
        "offset": 0,
        "slot": "103",
        "type": "t_address"
      },
      {
        "astId": 8373,
        "contract": "contracts/BabController.sol:BabControllerV4",
        "label": "gardenValuer",
        "offset": 0,
        "slot": "104",
        "type": "t_address"
      },
      {
        "astId": 8376,
        "contract": "contracts/BabController.sol:BabControllerV4",
        "label": "priceOracle",
        "offset": 0,
        "slot": "105",
        "type": "t_address"
      },
      {
        "astId": 8379,
        "contract": "contracts/BabController.sol:BabControllerV4",
        "label": "gardenFactory",
        "offset": 0,
        "slot": "106",
        "type": "t_address"
      },
      {
        "astId": 8382,
        "contract": "contracts/BabController.sol:BabControllerV4",
        "label": "rewardsDistributor",
        "offset": 0,
        "slot": "107",
        "type": "t_address"
      },
      {
        "astId": 8385,
        "contract": "contracts/BabController.sol:BabControllerV4",
        "label": "ishtarGate",
        "offset": 0,
        "slot": "108",
        "type": "t_address"
      },
      {
        "astId": 8388,
        "contract": "contracts/BabController.sol:BabControllerV4",
        "label": "strategyFactory",
        "offset": 0,
        "slot": "109",
        "type": "t_address"
      },
      {
        "astId": 8391,
        "contract": "contracts/BabController.sol:BabControllerV4",
        "label": "gardenNFT",
        "offset": 0,
        "slot": "110",
        "type": "t_address"
      },
      {
        "astId": 8394,
        "contract": "contracts/BabController.sol:BabControllerV4",
        "label": "strategyNFT",
        "offset": 0,
        "slot": "111",
        "type": "t_address"
      },
      {
        "astId": 8398,
        "contract": "contracts/BabController.sol:BabControllerV4",
        "label": "enabledIntegrations",
        "offset": 0,
        "slot": "112",
        "type": "t_mapping(t_bytes32,t_address)"
      },
      {
        "astId": 8401,
        "contract": "contracts/BabController.sol:BabControllerV4",
        "label": "defaultTradeIntegration",
        "offset": 0,
        "slot": "113",
        "type": "t_address"
      },
      {
        "astId": 8406,
        "contract": "contracts/BabController.sol:BabControllerV4",
        "label": "enabledOperations",
        "offset": 0,
        "slot": "114",
        "type": "t_array(t_address)20_storage"
      },
      {
        "astId": 8411,
        "contract": "contracts/BabController.sol:BabControllerV4",
        "label": "isGarden",
        "offset": 0,
        "slot": "134",
        "type": "t_mapping(t_address,t_bool)"
      },
      {
        "astId": 8415,
        "contract": "contracts/BabController.sol:BabControllerV4",
        "label": "validReserveAsset",
        "offset": 0,
        "slot": "135",
        "type": "t_mapping(t_address,t_bool)"
      },
      {
        "astId": 8419,
        "contract": "contracts/BabController.sol:BabControllerV4",
        "label": "assetWhitelist",
        "offset": 0,
        "slot": "136",
        "type": "t_mapping(t_address,t_bool)"
      },
      {
        "astId": 8423,
        "contract": "contracts/BabController.sol:BabControllerV4",
        "label": "keeperList",
        "offset": 0,
        "slot": "137",
        "type": "t_mapping(t_address,t_bool)"
      },
      {
        "astId": 8428,
        "contract": "contracts/BabController.sol:BabControllerV4",
        "label": "minLiquidityPerReserve",
        "offset": 0,
        "slot": "138",
        "type": "t_mapping(t_address,t_uint256)"
      },
      {
        "astId": 8431,
        "contract": "contracts/BabController.sol:BabControllerV4",
        "label": "treasury",
        "offset": 0,
        "slot": "139",
        "type": "t_address"
      },
      {
        "astId": 8439,
        "contract": "contracts/BabController.sol:BabControllerV4",
        "label": "strategistProfitPercentage",
        "offset": 0,
        "slot": "140",
        "type": "t_uint256"
      },
      {
        "astId": 8441,
        "contract": "contracts/BabController.sol:BabControllerV4",
        "label": "stewardsProfitPercentage",
        "offset": 0,
        "slot": "141",
        "type": "t_uint256"
      },
      {
        "astId": 8443,
        "contract": "contracts/BabController.sol:BabControllerV4",
        "label": "lpsProfitPercentage",
        "offset": 0,
        "slot": "142",
        "type": "t_uint256"
      },
      {
        "astId": 8445,
        "contract": "contracts/BabController.sol:BabControllerV4",
        "label": "strategistBABLPercentage",
        "offset": 0,
        "slot": "143",
        "type": "t_uint256"
      },
      {
        "astId": 8447,
        "contract": "contracts/BabController.sol:BabControllerV4",
        "label": "stewardsBABLPercentage",
        "offset": 0,
        "slot": "144",
        "type": "t_uint256"
      },
      {
        "astId": 8449,
        "contract": "contracts/BabController.sol:BabControllerV4",
        "label": "lpsBABLPercentage",
        "offset": 0,
        "slot": "145",
        "type": "t_uint256"
      },
      {
        "astId": 8451,
        "contract": "contracts/BabController.sol:BabControllerV4",
        "label": "gardenCreatorBonus",
        "offset": 0,
        "slot": "146",
        "type": "t_uint256"
      },
      {
        "astId": 8454,
        "contract": "contracts/BabController.sol:BabControllerV4",
        "label": "gardenTokensTransfersEnabled",
        "offset": 0,
        "slot": "147",
        "type": "t_bool"
      },
      {
        "astId": 8457,
        "contract": "contracts/BabController.sol:BabControllerV4",
        "label": "bablMiningProgramEnabled",
        "offset": 1,
        "slot": "147",
        "type": "t_bool"
      },
      {
        "astId": 8460,
        "contract": "contracts/BabController.sol:BabControllerV4",
        "label": "allowPublicGardens",
        "offset": 2,
        "slot": "147",
        "type": "t_bool"
      },
      {
        "astId": 8463,
        "contract": "contracts/BabController.sol:BabControllerV4",
        "label": "protocolPerformanceFee",
        "offset": 0,
        "slot": "148",
        "type": "t_uint256"
      },
      {
        "astId": 8466,
        "contract": "contracts/BabController.sol:BabControllerV4",
        "label": "protocolManagementFee",
        "offset": 0,
        "slot": "149",
        "type": "t_uint256"
      },
      {
        "astId": 8468,
        "contract": "contracts/BabController.sol:BabControllerV4",
        "label": "protocolDepositGardenTokenFee",
        "offset": 0,
        "slot": "150",
        "type": "t_uint256"
      },
      {
        "astId": 8470,
        "contract": "contracts/BabController.sol:BabControllerV4",
        "label": "protocolWithdrawalGardenTokenFee",
        "offset": 0,
        "slot": "151",
        "type": "t_uint256"
      },
      {
        "astId": 8473,
        "contract": "contracts/BabController.sol:BabControllerV4",
        "label": "maxContributorsPerGarden",
        "offset": 0,
        "slot": "152",
        "type": "t_uint256"
      },
      {
        "astId": 8476,
        "contract": "contracts/BabController.sol:BabControllerV4",
        "label": "gardenCreationIsOpen",
        "offset": 0,
        "slot": "153",
        "type": "t_bool"
      },
      {
        "astId": 8478,
        "contract": "contracts/BabController.sol:BabControllerV4",
        "label": "guardian",
        "offset": 1,
        "slot": "153",
        "type": "t_address"
      },
      {
        "astId": 8483,
        "contract": "contracts/BabController.sol:BabControllerV4",
        "label": "guardianPaused",
        "offset": 0,
        "slot": "154",
        "type": "t_mapping(t_address,t_bool)"
      },
      {
        "astId": 8486,
        "contract": "contracts/BabController.sol:BabControllerV4",
        "label": "guardianGlobalPaused",
        "offset": 0,
        "slot": "155",
        "type": "t_bool"
      }
    ],
    "types": {
      "t_address": {
        "encoding": "inplace",
        "label": "address",
        "numberOfBytes": "20"
      },
      "t_array(t_address)20_storage": {
        "base": "t_address",
        "encoding": "inplace",
        "label": "address[20]",
        "numberOfBytes": "640"
      },
      "t_array(t_address)dyn_storage": {
        "base": "t_address",
        "encoding": "dynamic_array",
        "label": "address[]",
        "numberOfBytes": "32"
      },
      "t_array(t_uint256)49_storage": {
        "base": "t_uint256",
        "encoding": "inplace",
        "label": "uint256[49]",
        "numberOfBytes": "1568"
      },
      "t_array(t_uint256)50_storage": {
        "base": "t_uint256",
        "encoding": "inplace",
        "label": "uint256[50]",
        "numberOfBytes": "1600"
      },
      "t_bool": {
        "encoding": "inplace",
        "label": "bool",
        "numberOfBytes": "1"
      },
      "t_bytes32": {
        "encoding": "inplace",
        "label": "bytes32",
        "numberOfBytes": "32"
      },
      "t_mapping(t_address,t_bool)": {
        "encoding": "mapping",
        "key": "t_address",
        "label": "mapping(address => bool)",
        "numberOfBytes": "32",
        "value": "t_bool"
      },
      "t_mapping(t_address,t_uint256)": {
        "encoding": "mapping",
        "key": "t_address",
        "label": "mapping(address => uint256)",
        "numberOfBytes": "32",
        "value": "t_uint256"
      },
      "t_mapping(t_bytes32,t_address)": {
        "encoding": "mapping",
        "key": "t_bytes32",
        "label": "mapping(bytes32 => address)",
        "numberOfBytes": "32",
        "value": "t_address"
      },
      "t_uint256": {
        "encoding": "inplace",
        "label": "uint256",
        "numberOfBytes": "32"
      }
    }
  }
}