{
  "address": "0x8230a408a15701022E72135C06f2f41a4b9Ff201",
  "abi": [
    {
      "anonymous": false,
      "inputs": [
        {
          "indexed": false,
          "internalType": "string",
          "name": "_action",
          "type": "string"
        },
        {
          "indexed": false,
          "internalType": "bool",
          "name": "_pauseState",
          "type": "bool"
        }
      ],
      "name": "ActionPaused",
      "type": "event"
    },
    {
      "anonymous": false,
      "inputs": [
        {
          "indexed": false,
          "internalType": "string",
          "name": "_action",
          "type": "string"
        },
        {
          "indexed": false,
          "internalType": "address",
          "name": "_address",
          "type": "address"
        },
        {
          "indexed": false,
          "internalType": "bool",
          "name": "_pauseState",
          "type": "bool"
        }
      ],
      "name": "ActionPausedIndividually",
      "type": "event"
    },
    {
      "anonymous": false,
      "inputs": [
        {
          "indexed": false,
          "internalType": "address",
          "name": "_integration",
          "type": "address"
        },
        {
          "indexed": true,
          "internalType": "string",
          "name": "_integrationName",
          "type": "string"
        }
      ],
      "name": "ControllerIntegrationAdded",
      "type": "event"
    },
    {
      "anonymous": false,
      "inputs": [
        {
          "indexed": false,
          "internalType": "address",
          "name": "_newIntegration",
          "type": "address"
        },
        {
          "indexed": true,
          "internalType": "string",
          "name": "_integrationName",
          "type": "string"
        }
      ],
      "name": "ControllerIntegrationEdited",
      "type": "event"
    },
    {
      "anonymous": false,
      "inputs": [
        {
          "indexed": false,
          "internalType": "address",
          "name": "_integration",
          "type": "address"
        },
        {
          "indexed": true,
          "internalType": "string",
          "name": "_integrationName",
          "type": "string"
        }
      ],
      "name": "ControllerIntegrationRemoved",
      "type": "event"
    },
    {
      "anonymous": false,
      "inputs": [
        {
          "indexed": true,
          "internalType": "uint8",
          "name": "_kind",
          "type": "uint8"
        },
        {
          "indexed": false,
          "internalType": "address",
          "name": "_address",
          "type": "address"
        }
      ],
      "name": "ControllerOperationSet",
      "type": "event"
    },
    {
      "anonymous": false,
      "inputs": [
        {
          "indexed": true,
          "internalType": "address",
          "name": "_newTradeIntegration",
          "type": "address"
        },
        {
          "indexed": false,
          "internalType": "address",
          "name": "_oldTradeIntegration",
          "type": "address"
        }
      ],
      "name": "DefaultTradeIntegrationChanged",
      "type": "event"
    },
    {
      "anonymous": false,
      "inputs": [
        {
          "indexed": true,
          "internalType": "address",
          "name": "_garden",
          "type": "address"
        },
        {
          "indexed": true,
          "internalType": "address",
          "name": "_factory",
          "type": "address"
        }
      ],
      "name": "GardenAdded",
      "type": "event"
    },
    {
      "anonymous": false,
      "inputs": [
        {
          "indexed": true,
          "internalType": "address",
          "name": "_gardenFactory",
          "type": "address"
        },
        {
          "indexed": false,
          "internalType": "address",
          "name": "_oldGardenFactory",
          "type": "address"
        }
      ],
      "name": "GardenFactoryChanged",
      "type": "event"
    },
    {
      "anonymous": false,
      "inputs": [
        {
          "indexed": true,
          "internalType": "address",
          "name": "_newGardenNFT",
          "type": "address"
        },
        {
          "indexed": false,
          "internalType": "address",
          "name": "_oldStrategyNFT",
          "type": "address"
        }
      ],
      "name": "GardenNFTChanged",
      "type": "event"
    },
    {
      "anonymous": false,
      "inputs": [
        {
          "indexed": true,
          "internalType": "address",
          "name": "_garden",
          "type": "address"
        }
      ],
      "name": "GardenRemoved",
      "type": "event"
    },
    {
      "anonymous": false,
      "inputs": [
        {
          "indexed": true,
          "internalType": "address",
          "name": "_gardenValuer",
          "type": "address"
        },
        {
          "indexed": false,
          "internalType": "address",
          "name": "_oldGardenValuer",
          "type": "address"
        }
      ],
      "name": "GardenValuerChanged",
      "type": "event"
    },
    {
      "anonymous": false,
      "inputs": [
        {
          "indexed": false,
          "internalType": "address",
          "name": "_newIshtarGate",
          "type": "address"
        },
        {
          "indexed": false,
          "internalType": "address",
          "name": "_oldIshtarGate",
          "type": "address"
        }
      ],
      "name": "IshtarGateChanged",
      "type": "event"
    },
    {
      "anonymous": false,
      "inputs": [
        {
          "indexed": true,
          "internalType": "address",
          "name": "_resesrveAsset",
          "type": "address"
        },
        {
          "indexed": false,
          "internalType": "uint256",
          "name": "_newMinLiquidityReserve",
          "type": "uint256"
        }
      ],
      "name": "LiquidityMinimumEdited",
      "type": "event"
    },
    {
      "anonymous": false,
      "inputs": [
        {
          "indexed": false,
          "internalType": "address",
          "name": "_oldPauseGuardian",
          "type": "address"
        },
        {
          "indexed": false,
          "internalType": "address",
          "name": "_newPauseGuardian",
          "type": "address"
        }
      ],
      "name": "NewPauseGuardian",
      "type": "event"
    },
    {
      "anonymous": false,
      "inputs": [
        {
          "indexed": true,
          "internalType": "address",
          "name": "previousOwner",
          "type": "address"
        },
        {
          "indexed": true,
          "internalType": "address",
          "name": "newOwner",
          "type": "address"
        }
      ],
      "name": "OwnershipTransferred",
      "type": "event"
    },
    {
      "anonymous": false,
      "inputs": [
        {
          "indexed": true,
          "internalType": "address",
          "name": "_priceOracle",
          "type": "address"
        },
        {
          "indexed": false,
          "internalType": "address",
          "name": "_oldPriceOracle",
          "type": "address"
        }
      ],
      "name": "PriceOracleChanged",
      "type": "event"
    },
    {
      "anonymous": false,
      "inputs": [
        {
          "indexed": true,
          "internalType": "address",
          "name": "_reserveAsset",
          "type": "address"
        }
      ],
      "name": "ReserveAssetAdded",
      "type": "event"
    },
    {
      "anonymous": false,
      "inputs": [
        {
          "indexed": true,
          "internalType": "address",
          "name": "_reserveAsset",
          "type": "address"
        }
      ],
      "name": "ReserveAssetRemoved",
      "type": "event"
    },
    {
      "anonymous": false,
      "inputs": [
        {
          "indexed": true,
          "internalType": "address",
          "name": "_rewardsDistributor",
          "type": "address"
        },
        {
          "indexed": false,
          "internalType": "address",
          "name": "_oldRewardsDistributor",
          "type": "address"
        }
      ],
      "name": "RewardsDistributorChanged",
      "type": "event"
    },
    {
      "anonymous": false,
      "inputs": [
        {
          "indexed": true,
          "internalType": "address",
          "name": "_strategyFactory",
          "type": "address"
        },
        {
          "indexed": false,
          "internalType": "address",
          "name": "_oldStrategyFactory",
          "type": "address"
        }
      ],
      "name": "StrategyFactoryEdited",
      "type": "event"
    },
    {
      "anonymous": false,
      "inputs": [
        {
          "indexed": true,
          "internalType": "address",
          "name": "_newStrategyNFT",
          "type": "address"
        },
        {
          "indexed": false,
          "internalType": "address",
          "name": "_oldStrategyNFT",
          "type": "address"
        }
      ],
      "name": "StrategyNFTChanged",
      "type": "event"
    },
    {
      "anonymous": false,
      "inputs": [
        {
          "indexed": false,
          "internalType": "address",
          "name": "_newTreasury",
          "type": "address"
        },
        {
          "indexed": false,
          "internalType": "address",
          "name": "_oldTreasury",
          "type": "address"
        }
      ],
      "name": "TreasuryChanged",
      "type": "event"
    },
    {
      "anonymous": false,
      "inputs": [
        {
          "indexed": true,
          "internalType": "address",
          "name": "_newUniswapFactory",
          "type": "address"
        },
        {
          "indexed": false,
          "internalType": "address",
          "name": "_oldUniswapFactory",
          "type": "address"
        }
      ],
      "name": "UniswapFactoryChanged",
      "type": "event"
    },
    {
      "inputs": [],
      "name": "MAX_COOLDOWN_PERIOD",
      "outputs": [
        {
          "internalType": "uint256",
          "name": "",
          "type": "uint256"
        }
      ],
      "stateMutability": "view",
      "type": "function"
    },
    {
      "inputs": [],
      "name": "MAX_OPERATIONS",
      "outputs": [
        {
          "internalType": "uint8",
          "name": "",
          "type": "uint8"
        }
      ],
      "stateMutability": "view",
      "type": "function"
    },
    {
      "inputs": [],
      "name": "MIN_COOLDOWN_PERIOD",
      "outputs": [
        {
          "internalType": "uint256",
          "name": "",
          "type": "uint256"
        }
      ],
      "stateMutability": "view",
      "type": "function"
    },
    {
      "inputs": [],
      "name": "WETH",
      "outputs": [
        {
          "internalType": "address",
          "name": "",
          "type": "address"
        }
      ],
      "stateMutability": "view",
      "type": "function"
    },
    {
      "inputs": [
        {
          "internalType": "string",
          "name": "_name",
          "type": "string"
        },
        {
          "internalType": "address",
          "name": "_integration",
          "type": "address"
        }
      ],
      "name": "addIntegration",
      "outputs": [],
      "stateMutability": "nonpayable",
      "type": "function"
    },
    {
      "inputs": [
        {
          "internalType": "address",
          "name": "_keeper",
          "type": "address"
        }
      ],
      "name": "addKeeper",
      "outputs": [],
      "stateMutability": "nonpayable",
      "type": "function"
    },
    {
      "inputs": [
        {
          "internalType": "address[]",
          "name": "_keepers",
          "type": "address[]"
        }
      ],
      "name": "addKeepers",
      "outputs": [],
      "stateMutability": "nonpayable",
      "type": "function"
    },
    {
      "inputs": [
        {
          "internalType": "address",
          "name": "_reserveAsset",
          "type": "address"
        }
      ],
      "name": "addReserveAsset",
      "outputs": [],
      "stateMutability": "nonpayable",
      "type": "function"
    },
    {
      "inputs": [],
      "name": "allowPublicGardens",
      "outputs": [
        {
          "internalType": "bool",
          "name": "",
          "type": "bool"
        }
      ],
      "stateMutability": "view",
      "type": "function"
    },
    {
      "inputs": [
        {
          "internalType": "address",
          "name": "",
          "type": "address"
        }
      ],
      "name": "assetWhitelist",
      "outputs": [
        {
          "internalType": "bool",
          "name": "",
          "type": "bool"
        }
      ],
      "stateMutability": "view",
      "type": "function"
    },
    {
      "inputs": [],
      "name": "bablMiningProgramEnabled",
      "outputs": [
        {
          "internalType": "bool",
          "name": "",
          "type": "bool"
        }
      ],
      "stateMutability": "view",
      "type": "function"
    },
    {
      "inputs": [
        {
          "internalType": "address",
          "name": "_reserveAsset",
          "type": "address"
        },
        {
          "internalType": "string",
          "name": "_name",
          "type": "string"
        },
        {
          "internalType": "string",
          "name": "_symbol",
          "type": "string"
        },
        {
          "internalType": "string",
          "name": "_tokenURI",
          "type": "string"
        },
        {
          "internalType": "uint256",
          "name": "_seed",
          "type": "uint256"
        },
        {
          "internalType": "uint256[]",
          "name": "_gardenParams",
          "type": "uint256[]"
        },
        {
          "internalType": "uint256",
          "name": "_initialContribution",
          "type": "uint256"
        }
      ],
      "name": "createGarden",
      "outputs": [
        {
          "internalType": "address",
          "name": "",
          "type": "address"
        }
      ],
      "stateMutability": "payable",
      "type": "function"
    },
    {
      "inputs": [],
      "name": "defaultTradeIntegration",
      "outputs": [
        {
          "internalType": "address",
          "name": "",
          "type": "address"
        }
      ],
      "stateMutability": "view",
      "type": "function"
    },
    {
      "inputs": [
        {
          "internalType": "address",
          "name": "_garden",
          "type": "address"
        }
      ],
      "name": "disableGarden",
      "outputs": [],
      "stateMutability": "nonpayable",
      "type": "function"
    },
    {
      "inputs": [
        {
          "internalType": "address",
          "name": "_newGardenFactory",
          "type": "address"
        }
      ],
      "name": "editGardenFactory",
      "outputs": [],
      "stateMutability": "nonpayable",
      "type": "function"
    },
    {
      "inputs": [
        {
          "internalType": "address",
          "name": "_newGardenNFT",
          "type": "address"
        }
      ],
      "name": "editGardenNFT",
      "outputs": [],
      "stateMutability": "nonpayable",
      "type": "function"
    },
    {
      "inputs": [
        {
          "internalType": "address",
          "name": "_gardenValuer",
          "type": "address"
        }
      ],
      "name": "editGardenValuer",
      "outputs": [],
      "stateMutability": "nonpayable",
      "type": "function"
    },
    {
      "inputs": [
        {
          "internalType": "string",
          "name": "_name",
          "type": "string"
        },
        {
          "internalType": "address",
          "name": "_integration",
          "type": "address"
        }
      ],
      "name": "editIntegration",
      "outputs": [],
      "stateMutability": "nonpayable",
      "type": "function"
    },
    {
      "inputs": [
        {
          "internalType": "address",
          "name": "_ishtarGate",
          "type": "address"
        }
      ],
      "name": "editIshtarGate",
      "outputs": [],
      "stateMutability": "nonpayable",
      "type": "function"
    },
    {
      "inputs": [
        {
          "internalType": "address",
          "name": "_reserve",
          "type": "address"
        },
        {
          "internalType": "uint256",
          "name": "_newMinLiquidityReserve",
          "type": "uint256"
        }
      ],
      "name": "editLiquidityReserve",
      "outputs": [],
      "stateMutability": "nonpayable",
      "type": "function"
    },
    {
      "inputs": [
        {
          "internalType": "address",
          "name": "_priceOracle",
          "type": "address"
        }
      ],
      "name": "editPriceOracle",
      "outputs": [],
      "stateMutability": "nonpayable",
      "type": "function"
    },
    {
      "inputs": [
        {
          "internalType": "address",
          "name": "_newRewardsDistributor",
          "type": "address"
        }
      ],
      "name": "editRewardsDistributor",
      "outputs": [],
      "stateMutability": "nonpayable",
      "type": "function"
    },
    {
      "inputs": [
        {
          "internalType": "address",
          "name": "_newStrategyFactory",
          "type": "address"
        }
      ],
      "name": "editStrategyFactory",
      "outputs": [],
      "stateMutability": "nonpayable",
      "type": "function"
    },
    {
      "inputs": [
        {
          "internalType": "address",
          "name": "_newStrategyNFT",
          "type": "address"
        }
      ],
      "name": "editStrategyNFT",
      "outputs": [],
      "stateMutability": "nonpayable",
      "type": "function"
    },
    {
      "inputs": [
        {
          "internalType": "address",
          "name": "_newTreasury",
          "type": "address"
        }
      ],
      "name": "editTreasury",
      "outputs": [],
      "stateMutability": "nonpayable",
      "type": "function"
    },
    {
      "inputs": [
        {
          "internalType": "address",
          "name": "_newUniswapFactory",
          "type": "address"
        }
      ],
      "name": "editUniswapFactory",
      "outputs": [],
      "stateMutability": "nonpayable",
      "type": "function"
    },
    {
      "inputs": [],
      "name": "enableBABLMiningProgram",
      "outputs": [],
      "stateMutability": "nonpayable",
      "type": "function"
    },
    {
      "inputs": [
        {
          "internalType": "address",
          "name": "_garden",
          "type": "address"
        }
      ],
      "name": "enableGarden",
      "outputs": [],
      "stateMutability": "nonpayable",
      "type": "function"
    },
    {
      "inputs": [],
      "name": "enableGardenTokensTransfers",
      "outputs": [],
      "stateMutability": "nonpayable",
      "type": "function"
    },
    {
      "inputs": [
        {
          "internalType": "uint256",
          "name": "",
          "type": "uint256"
        }
      ],
      "name": "enabledOperations",
      "outputs": [
        {
          "internalType": "address",
          "name": "",
          "type": "address"
        }
      ],
      "stateMutability": "view",
      "type": "function"
    },
    {
      "inputs": [],
      "name": "gardenCreationIsOpen",
      "outputs": [
        {
          "internalType": "bool",
          "name": "",
          "type": "bool"
        }
      ],
      "stateMutability": "view",
      "type": "function"
    },
    {
      "inputs": [],
      "name": "gardenCreatorBonus",
      "outputs": [
        {
          "internalType": "uint256",
          "name": "",
          "type": "uint256"
        }
      ],
      "stateMutability": "view",
      "type": "function"
    },
    {
      "inputs": [],
      "name": "gardenFactory",
      "outputs": [
        {
          "internalType": "address",
          "name": "",
          "type": "address"
        }
      ],
      "stateMutability": "view",
      "type": "function"
    },
    {
      "inputs": [],
      "name": "gardenNFT",
      "outputs": [
        {
          "internalType": "address",
          "name": "",
          "type": "address"
        }
      ],
      "stateMutability": "view",
      "type": "function"
    },
    {
      "inputs": [],
      "name": "gardenTokensTransfersEnabled",
      "outputs": [
        {
          "internalType": "bool",
          "name": "",
          "type": "bool"
        }
      ],
      "stateMutability": "view",
      "type": "function"
    },
    {
      "inputs": [],
      "name": "gardenValuer",
      "outputs": [
        {
          "internalType": "address",
          "name": "",
          "type": "address"
        }
      ],
      "stateMutability": "view",
      "type": "function"
    },
    {
      "inputs": [
        {
          "internalType": "uint256",
          "name": "",
          "type": "uint256"
        }
      ],
      "name": "gardens",
      "outputs": [
        {
          "internalType": "address",
          "name": "",
          "type": "address"
        }
      ],
      "stateMutability": "view",
      "type": "function"
    },
    {
      "inputs": [],
      "name": "getBABLSharing",
      "outputs": [
        {
          "internalType": "uint256",
          "name": "",
          "type": "uint256"
        },
        {
          "internalType": "uint256",
          "name": "",
          "type": "uint256"
        },
        {
          "internalType": "uint256",
          "name": "",
          "type": "uint256"
        },
        {
          "internalType": "uint256",
          "name": "",
          "type": "uint256"
        }
      ],
      "stateMutability": "view",
      "type": "function"
    },
    {
      "inputs": [],
      "name": "getGardens",
      "outputs": [
        {
          "internalType": "address[]",
          "name": "",
          "type": "address[]"
        }
      ],
      "stateMutability": "view",
      "type": "function"
    },
    {
      "inputs": [
        {
          "internalType": "string",
          "name": "_name",
          "type": "string"
        }
      ],
      "name": "getIntegrationByName",
      "outputs": [
        {
          "internalType": "address",
          "name": "",
          "type": "address"
        }
      ],
      "stateMutability": "view",
      "type": "function"
    },
    {
      "inputs": [
        {
          "internalType": "bytes32",
          "name": "_nameHashP",
          "type": "bytes32"
        }
      ],
      "name": "getIntegrationWithHash",
      "outputs": [
        {
          "internalType": "address",
          "name": "",
          "type": "address"
        }
      ],
      "stateMutability": "view",
      "type": "function"
    },
    {
      "inputs": [],
      "name": "getMaxCooldownPeriod",
      "outputs": [
        {
          "internalType": "uint256",
          "name": "",
          "type": "uint256"
        }
      ],
      "stateMutability": "pure",
      "type": "function"
    },
    {
      "inputs": [],
      "name": "getMinCooldownPeriod",
      "outputs": [
        {
          "internalType": "uint256",
          "name": "",
          "type": "uint256"
        }
      ],
      "stateMutability": "pure",
      "type": "function"
    },
    {
      "inputs": [],
      "name": "getOperations",
      "outputs": [
        {
          "internalType": "address[20]",
          "name": "",
          "type": "address[20]"
        }
      ],
      "stateMutability": "view",
      "type": "function"
    },
    {
      "inputs": [],
      "name": "getProfitSharing",
      "outputs": [
        {
          "internalType": "uint256",
          "name": "",
          "type": "uint256"
        },
        {
          "internalType": "uint256",
          "name": "",
          "type": "uint256"
        },
        {
          "internalType": "uint256",
          "name": "",
          "type": "uint256"
        }
      ],
      "stateMutability": "view",
      "type": "function"
    },
    {
      "inputs": [],
      "name": "getReserveAssets",
      "outputs": [
        {
          "internalType": "address[]",
          "name": "",
          "type": "address[]"
        }
      ],
      "stateMutability": "view",
      "type": "function"
    },
    {
      "inputs": [],
      "name": "guardian",
      "outputs": [
        {
          "internalType": "address",
          "name": "",
          "type": "address"
        }
      ],
      "stateMutability": "view",
      "type": "function"
    },
    {
      "inputs": [],
      "name": "guardianGlobalPaused",
      "outputs": [
        {
          "internalType": "bool",
          "name": "",
          "type": "bool"
        }
      ],
      "stateMutability": "view",
      "type": "function"
    },
    {
      "inputs": [
        {
          "internalType": "address",
          "name": "",
          "type": "address"
        }
      ],
      "name": "guardianPaused",
      "outputs": [
        {
          "internalType": "bool",
          "name": "",
          "type": "bool"
        }
      ],
      "stateMutability": "view",
      "type": "function"
    },
    {
      "inputs": [],
      "name": "initialize",
      "outputs": [],
      "stateMutability": "nonpayable",
      "type": "function"
    },
    {
      "inputs": [
        {
          "internalType": "address",
          "name": "",
          "type": "address"
        }
      ],
      "name": "isGarden",
      "outputs": [
        {
          "internalType": "bool",
          "name": "",
          "type": "bool"
        }
      ],
      "stateMutability": "view",
      "type": "function"
    },
    {
      "inputs": [
        {
          "internalType": "address",
          "name": "_contract",
          "type": "address"
        }
      ],
      "name": "isPaused",
      "outputs": [
        {
          "internalType": "bool",
          "name": "",
          "type": "bool"
        }
      ],
      "stateMutability": "view",
      "type": "function"
    },
    {
      "inputs": [
        {
          "internalType": "address",
          "name": "_contractAddress",
          "type": "address"
        }
      ],
      "name": "isSystemContract",
      "outputs": [
        {
          "internalType": "bool",
          "name": "",
          "type": "bool"
        }
      ],
      "stateMutability": "view",
      "type": "function"
    },
    {
      "inputs": [
        {
          "internalType": "string",
          "name": "_name",
          "type": "string"
        },
        {
          "internalType": "address",
          "name": "_integration",
          "type": "address"
        }
      ],
      "name": "isValidIntegration",
      "outputs": [
        {
          "internalType": "bool",
          "name": "",
          "type": "bool"
        }
      ],
      "stateMutability": "view",
      "type": "function"
    },
    {
      "inputs": [
        {
          "internalType": "address",
          "name": "_keeper",
          "type": "address"
        }
      ],
      "name": "isValidKeeper",
      "outputs": [
        {
          "internalType": "bool",
          "name": "",
          "type": "bool"
        }
      ],
      "stateMutability": "view",
      "type": "function"
    },
    {
      "inputs": [
        {
          "internalType": "address",
          "name": "_reserveAsset",
          "type": "address"
        }
      ],
      "name": "isValidReserveAsset",
      "outputs": [
        {
          "internalType": "bool",
          "name": "",
          "type": "bool"
        }
      ],
      "stateMutability": "view",
      "type": "function"
    },
    {
      "inputs": [],
      "name": "ishtarGate",
      "outputs": [
        {
          "internalType": "address",
          "name": "",
          "type": "address"
        }
      ],
      "stateMutability": "view",
      "type": "function"
    },
    {
      "inputs": [
        {
          "internalType": "address",
          "name": "",
          "type": "address"
        }
      ],
      "name": "keeperList",
      "outputs": [
        {
          "internalType": "bool",
          "name": "",
          "type": "bool"
        }
      ],
      "stateMutability": "view",
      "type": "function"
    },
    {
      "inputs": [],
      "name": "lpsBABLPercentage",
      "outputs": [
        {
          "internalType": "uint256",
          "name": "",
          "type": "uint256"
        }
      ],
      "stateMutability": "view",
      "type": "function"
    },
    {
      "inputs": [],
      "name": "lpsProfitPercentage",
      "outputs": [
        {
          "internalType": "uint256",
          "name": "",
          "type": "uint256"
        }
      ],
      "stateMutability": "view",
      "type": "function"
    },
    {
      "inputs": [],
      "name": "maxContributorsPerGarden",
      "outputs": [
        {
          "internalType": "uint256",
          "name": "",
          "type": "uint256"
        }
      ],
      "stateMutability": "view",
      "type": "function"
    },
    {
      "inputs": [
        {
          "internalType": "address",
          "name": "",
          "type": "address"
        }
      ],
      "name": "minLiquidityPerReserve",
      "outputs": [
        {
          "internalType": "uint256",
          "name": "",
          "type": "uint256"
        }
      ],
      "stateMutability": "view",
      "type": "function"
    },
    {
      "inputs": [],
      "name": "openPublicGardenCreation",
      "outputs": [],
      "stateMutability": "nonpayable",
      "type": "function"
    },
    {
      "inputs": [],
      "name": "owner",
      "outputs": [
        {
          "internalType": "address",
          "name": "",
          "type": "address"
        }
      ],
      "stateMutability": "view",
      "type": "function"
    },
    {
      "inputs": [],
      "name": "priceOracle",
      "outputs": [
        {
          "internalType": "address",
          "name": "",
          "type": "address"
        }
      ],
      "stateMutability": "view",
      "type": "function"
    },
    {
      "inputs": [],
      "name": "protocolManagementFee",
      "outputs": [
        {
          "internalType": "uint256",
          "name": "",
          "type": "uint256"
        }
      ],
      "stateMutability": "view",
      "type": "function"
    },
    {
      "inputs": [],
      "name": "protocolPerformanceFee",
      "outputs": [
        {
          "internalType": "uint256",
          "name": "",
          "type": "uint256"
        }
      ],
      "stateMutability": "view",
      "type": "function"
    },
    {
      "inputs": [
        {
          "internalType": "address",
          "name": "_garden",
          "type": "address"
        }
      ],
      "name": "removeGarden",
      "outputs": [],
      "stateMutability": "nonpayable",
      "type": "function"
    },
    {
      "inputs": [
        {
          "internalType": "string",
          "name": "_name",
          "type": "string"
        }
      ],
      "name": "removeIntegration",
      "outputs": [],
      "stateMutability": "nonpayable",
      "type": "function"
    },
    {
      "inputs": [
        {
          "internalType": "address",
          "name": "_keeper",
          "type": "address"
        }
      ],
      "name": "removeKeeper",
      "outputs": [],
      "stateMutability": "nonpayable",
      "type": "function"
    },
    {
      "inputs": [
        {
          "internalType": "address",
          "name": "_reserveAsset",
          "type": "address"
        }
      ],
      "name": "removeReserveAsset",
      "outputs": [],
      "stateMutability": "nonpayable",
      "type": "function"
    },
    {
      "inputs": [],
      "name": "renounceOwnership",
      "outputs": [],
      "stateMutability": "nonpayable",
      "type": "function"
    },
    {
      "inputs": [
        {
          "internalType": "uint256",
          "name": "",
          "type": "uint256"
        }
      ],
      "name": "reserveAssets",
      "outputs": [
        {
          "internalType": "address",
          "name": "",
          "type": "address"
        }
      ],
      "stateMutability": "view",
      "type": "function"
    },
    {
      "inputs": [],
      "name": "rewardsDistributor",
      "outputs": [
        {
          "internalType": "address",
          "name": "",
          "type": "address"
        }
      ],
      "stateMutability": "view",
      "type": "function"
    },
    {
      "inputs": [],
      "name": "setAllowPublicGardens",
      "outputs": [],
      "stateMutability": "nonpayable",
      "type": "function"
    },
    {
      "inputs": [
        {
          "internalType": "address",
          "name": "_newDefaultTradeIntegation",
          "type": "address"
        }
      ],
      "name": "setDefaultTradeIntegration",
      "outputs": [],
      "stateMutability": "nonpayable",
      "type": "function"
    },
    {
      "inputs": [
        {
          "internalType": "bool",
          "name": "_state",
          "type": "bool"
        }
      ],
      "name": "setGlobalPause",
      "outputs": [
        {
          "internalType": "bool",
          "name": "",
          "type": "bool"
        }
      ],
      "stateMutability": "nonpayable",
      "type": "function"
    },
    {
      "inputs": [
        {
          "internalType": "uint256",
          "name": "_newMax",
          "type": "uint256"
        }
      ],
      "name": "setMaxContributorsPerGarden",
      "outputs": [],
      "stateMutability": "nonpayable",
      "type": "function"
    },
    {
      "inputs": [
        {
          "internalType": "uint8",
          "name": "_kind",
          "type": "uint8"
        },
        {
          "internalType": "address",
          "name": "_operation",
          "type": "address"
        }
      ],
      "name": "setOperation",
      "outputs": [],
      "stateMutability": "nonpayable",
      "type": "function"
    },
    {
      "inputs": [
        {
          "internalType": "address",
          "name": "_guardian",
          "type": "address"
        }
      ],
      "name": "setPauseGuardian",
      "outputs": [],
      "stateMutability": "nonpayable",
      "type": "function"
    },
    {
      "inputs": [
        {
          "internalType": "address[]",
          "name": "_address",
          "type": "address[]"
        },
        {
          "internalType": "bool",
          "name": "_state",
          "type": "bool"
        }
      ],
      "name": "setSomePause",
      "outputs": [
        {
          "internalType": "bool",
          "name": "",
          "type": "bool"
        }
      ],
      "stateMutability": "nonpayable",
      "type": "function"
    },
    {
      "inputs": [],
      "name": "stewardsBABLPercentage",
      "outputs": [
        {
          "internalType": "uint256",
          "name": "",
          "type": "uint256"
        }
      ],
      "stateMutability": "view",
      "type": "function"
    },
    {
      "inputs": [],
      "name": "stewardsProfitPercentage",
      "outputs": [
        {
          "internalType": "uint256",
          "name": "",
          "type": "uint256"
        }
      ],
      "stateMutability": "view",
      "type": "function"
    },
    {
      "inputs": [],
      "name": "strategistBABLPercentage",
      "outputs": [
        {
          "internalType": "uint256",
          "name": "",
          "type": "uint256"
        }
      ],
      "stateMutability": "view",
      "type": "function"
    },
    {
      "inputs": [],
      "name": "strategistProfitPercentage",
      "outputs": [
        {
          "internalType": "uint256",
          "name": "",
          "type": "uint256"
        }
      ],
      "stateMutability": "view",
      "type": "function"
    },
    {
      "inputs": [],
      "name": "strategyFactory",
      "outputs": [
        {
          "internalType": "address",
          "name": "",
          "type": "address"
        }
      ],
      "stateMutability": "view",
      "type": "function"
    },
    {
      "inputs": [],
      "name": "strategyNFT",
      "outputs": [
        {
          "internalType": "address",
          "name": "",
          "type": "address"
        }
      ],
      "stateMutability": "view",
      "type": "function"
    },
    {
      "inputs": [
        {
          "internalType": "address",
          "name": "newOwner",
          "type": "address"
        }
      ],
      "name": "transferOwnership",
      "outputs": [],
      "stateMutability": "nonpayable",
      "type": "function"
    },
    {
      "inputs": [],
      "name": "treasury",
      "outputs": [
        {
          "internalType": "address",
          "name": "",
          "type": "address"
        }
      ],
      "stateMutability": "view",
      "type": "function"
    },
    {
      "inputs": [],
      "name": "uniswapFactory",
      "outputs": [
        {
          "internalType": "address",
          "name": "",
          "type": "address"
        }
      ],
      "stateMutability": "view",
      "type": "function"
    },
    {
      "inputs": [
        {
          "internalType": "address",
          "name": "",
          "type": "address"
        }
      ],
      "name": "validReserveAsset",
      "outputs": [
        {
          "internalType": "bool",
          "name": "",
          "type": "bool"
        }
      ],
      "stateMutability": "view",
      "type": "function"
    }
  ],
  "transactionHash": "0x89a39a9b5ba79346072920c383de4b15d3c402e8b48ba8432cb60dd3960de1d0",
  "args": [],
  "solcInputHash": "1e6d156fb71d6da7705240c4305a90fd",
  "bytecode": "0x608060405234801561001057600080fd5b50615b8880620000216000396000f3fe6080604052600436106105ec5760003560e01c80636acf33931161030c578063b82efd4f1161019a578063daec2a1a116100ec578063f142c3bc11610095578063f56e895d1161006f578063f56e895d146118bf578063f948e50a146118d4578063f979cdd914611922576105ec565b8063f142c3bc14611793578063f2fde38b146117ce578063f4330b4914611801576105ec565b8063ead4c1cf116100c6578063ead4c1cf14611718578063f04ec5471461172d578063f05017eb14611760576105ec565b8063daec2a1a1461169d578063dfaef58f146116b2578063e973f4e9146116e5576105ec565b8063c8ed947f1161014e578063d196f61f11610128578063d196f61f14611637578063d276cbdc1461164c578063d6a45aa514611688576105ec565b8063c8ed947f146115f8578063c9f7f2ed1461160d578063cfd1801914611622576105ec565b8063bc819ea61161017f578063bc819ea61461154b578063c2d38e79146115b0578063c80aad63146115e3576105ec565b8063b82efd4f146114e5578063bc09228314611518576105ec565b8063897904291161025e5780639e18eb3911610207578063ad5c4648116101e1578063ad5c46481461146a578063ad9d791d1461147f578063b0ecdf80146114b2576105ec565b80639e18eb39146113785780639ef35710146113a2578063a65b9947146113b7576105ec565b80638da5cb5b116102385780638da5cb5b1461131b5780638e20fb0714611330578063974f572814611345576105ec565b806389790429146112b85780638bdb2afa146112f15780638d78fb7914611306576105ec565b80637f80e05b116102c0578063867b6efa1161029a578063867b6efa1461123d57806386f2bc811461127057806388e8dc7514611285576105ec565b80637f80e05b146111e05780638129fc1c146111f557806385d5d0361461120a576105ec565b8063715018a6116102f1578063715018a6146111a15780637177fec9146111b65780637c4f0a36146111cb576105ec565b80636acf339314610f6f5780636b2fb6781461118c576105ec565b806337973e5f116104895780635435ed8b116103db5780636176605e1161038457806362a4bf051161035e57806362a4bf0514610efb5780636968551314610f1057806369a6b3db14610f43576105ec565b80636176605e14610e1e57806361b73ae614610e3357806361d027b314610ee6576105ec565b80635b14f183116103b55780635b14f18314610d8d5780635dc2803a14610dc05780635e192de614610deb576105ec565b80635435ed8b14610d30578063556d1a0914610d63578063568c081314610d78576105ec565b8063411137c31161043d57806348bde20c1161041757806348bde20c14610cd35780634a44ff4414610d0657806352aeec7714610d1b576105ec565b8063411137c314610c58578063447a136614610c8b578063452a932014610cbe576105ec565b80633f2a55401161046e5780633f2a554014610be65780634032b72b14610bfb578063404c363914610c2e576105ec565b806337973e5f14610ba7578063393bfe4914610bd1576105ec565b806327e4acc71161054257806330944c62116104f657806333dc7dd0116104d057806333dc7dd014610b2c578063364d118114610b5f57806336c148b714610b92576105ec565b806330944c6214610a525780633137547714610a67578063314a83c914610a7c576105ec565b80632b9db0bf116105275780632b9db0bf1461093a5780632e0519cf146109615780633040a2fb14610994576105ec565b806327e4acc714610910578063294d237c14610925576105ec565b806317a25714116105a4578063201041981161057e578063201041981461089e57806322c7fa8f146108c85780632630c12f146108fb576105ec565b806317a257141461079857806318b9e252146107ad5780631bdbf0ac146107e0576105ec565b806313bc6d4b116105d557806313bc6d4b146106fd57806314ae9f2e1461073057806314f45ca814610765576105ec565b80630306f6d2146105f157806306796729146106b7575b600080fd5b3480156105fd57600080fd5b506106a36004803603604081101561061457600080fd5b81019060208101813564010000000081111561062f57600080fd5b82018360208201111561064157600080fd5b8035906020019184602083028401116401000000008311171561066357600080fd5b9190808060200260200160405190810160405280939291908181526020018383602002808284376000920191909152509295505050503515159050611955565b604080519115158252519081900360200190f35b3480156106c357600080fd5b506106e1600480360360208110156106da57600080fd5b5035611b48565b604080516001600160a01b039092168252519081900360200190f35b34801561070957600080fd5b506106a36004803603602081101561072057600080fd5b50356001600160a01b0316611b66565b34801561073c57600080fd5b506107636004803603602081101561075357600080fd5b50356001600160a01b0316611de4565b005b34801561077157600080fd5b506107636004803603602081101561078857600080fd5b50356001600160a01b0316611ed4565b3480156107a457600080fd5b506107636120c3565b3480156107b957600080fd5b50610763600480360360208110156107d057600080fd5b50356001600160a01b0316612138565b3480156107ec57600080fd5b506107636004803603604081101561080357600080fd5b81019060208101813564010000000081111561081e57600080fd5b82018360208201111561083057600080fd5b8035906020019184600183028401116401000000008311171561085257600080fd5b91908080601f016020809104026020016040519081016040528093929190818152602001838380828437600092019190915250929550505090356001600160a01b031691506123899050565b3480156108aa57600080fd5b506106e1600480360360208110156108c157600080fd5b5035612581565b3480156108d457600080fd5b50610763600480360360208110156108eb57600080fd5b50356001600160a01b03166125a1565b34801561090757600080fd5b506106e1612721565b34801561091c57600080fd5b506106a3612730565b34801561093157600080fd5b506106e1612739565b34801561094657600080fd5b5061094f612748565b60408051918252519081900360200190f35b34801561096d57600080fd5b5061097661274e565b60408051938452602084019290925282820152519081900360600190f35b3480156109a057600080fd5b50610763600480360360408110156109b757600080fd5b8101906020810181356401000000008111156109d257600080fd5b8201836020820111156109e457600080fd5b80359060200191846001830284011164010000000083111715610a0657600080fd5b91908080601f016020809104026020016040519081016040528093929190818152602001838380828437600092019190915250929550505090356001600160a01b0316915061275c9050565b348015610a5e57600080fd5b506106a3612953565b348015610a7357600080fd5b5061094f612961565b348015610a8857600080fd5b5061076360048036036020811015610a9f57600080fd5b810190602081018135640100000000811115610aba57600080fd5b820183602082011115610acc57600080fd5b80359060200191846020830284011164010000000083111715610aee57600080fd5b919080806020026020016040519081016040528093929190818152602001838360200280828437600092019190915250929550612967945050505050565b348015610b3857600080fd5b5061076360048036036020811015610b4f57600080fd5b50356001600160a01b0316612a25565b348015610b6b57600080fd5b506106a360048036036020811015610b8257600080fd5b50356001600160a01b0316612b37565b348015610b9e57600080fd5b50610763612b4c565b348015610bb357600080fd5b506106e160048036036020811015610bca57600080fd5b5035612c17565b348015610bdd57600080fd5b506106a3612c41565b348015610bf257600080fd5b506106e1612c4a565b348015610c0757600080fd5b5061076360048036036020811015610c1e57600080fd5b50356001600160a01b0316612c59565b348015610c3a57600080fd5b5061076360048036036020811015610c5157600080fd5b5035612cdf565b348015610c6457600080fd5b506106a360048036036020811015610c7b57600080fd5b50356001600160a01b0316612d86565b348015610c9757600080fd5b506106a360048036036020811015610cae57600080fd5b50356001600160a01b0316612da4565b348015610cca57600080fd5b506106e1612db9565b348015610cdf57600080fd5b5061076360048036036020811015610cf657600080fd5b50356001600160a01b0316612dcd565b348015610d1257600080fd5b5061094f612ec2565b348015610d2757600080fd5b50610763612ec8565b348015610d3c57600080fd5b5061076360048036036020811015610d5357600080fd5b50356001600160a01b0316612fc2565b348015610d6f57600080fd5b5061094f6132df565b348015610d8457600080fd5b5061094f6132e6565b348015610d9957600080fd5b506106a360048036036020811015610db057600080fd5b50356001600160a01b03166132ec565b348015610dcc57600080fd5b50610dd561331a565b6040805160ff9092168252519081900360200190f35b348015610df757600080fd5b506106a360048036036020811015610e0e57600080fd5b50356001600160a01b031661331f565b348015610e2a57600080fd5b506106e1613334565b348015610e3f57600080fd5b5061076360048036036020811015610e5657600080fd5b810190602081018135640100000000811115610e7157600080fd5b820183602082011115610e8357600080fd5b80359060200191846001830284011164010000000083111715610ea557600080fd5b91908080601f016020809104026020016040519081016040528093929190818152602001838380828437600092019190915250929550613343945050505050565b348015610ef257600080fd5b506106e16134e2565b348015610f0757600080fd5b506106a36134f1565b348015610f1c57600080fd5b5061076360048036036020811015610f3357600080fd5b50356001600160a01b03166134fa565b348015610f4f57600080fd5b506106a360048036036020811015610f6657600080fd5b5035151561360c565b6106e1600480360360e0811015610f8557600080fd5b6001600160a01b038235169190810190604081016020820135640100000000811115610fb057600080fd5b820183602082011115610fc257600080fd5b80359060200191846001830284011164010000000083111715610fe457600080fd5b91908080601f016020809104026020016040519081016040528093929190818152602001838380828437600092019190915250929594936020810193503591505064010000000081111561103757600080fd5b82018360208201111561104957600080fd5b8035906020019184600183028401116401000000008311171561106b57600080fd5b91908080601f01602080910402602001604051908101604052809392919081815260200183838082843760009201919091525092959493602081019350359150506401000000008111156110be57600080fd5b8201836020820111156110d057600080fd5b803590602001918460018302840111640100000000831117156110f257600080fd5b91908080601f0160208091040260200160405190810160405280939291908181526020018383808284376000920191909152509295843595909490935060408101925060200135905064010000000081111561114d57600080fd5b82018360208201111561115f57600080fd5b8035906020019184602083028401116401000000008311171561118157600080fd5b919350915035613776565b34801561119857600080fd5b5061094f613dca565b3480156111ad57600080fd5b50610763613dd0565b3480156111c257600080fd5b5061094f613e7c565b3480156111d757600080fd5b5061094f613e82565b3480156111ec57600080fd5b506106a3613e88565b34801561120157600080fd5b50610763613e97565b34801561121657600080fd5b506107636004803603602081101561122d57600080fd5b50356001600160a01b0316613f43565b34801561124957600080fd5b506107636004803603602081101561126057600080fd5b50356001600160a01b0316614055565b34801561127c57600080fd5b5061094f61416a565b34801561129157600080fd5b50610763600480360360208110156112a857600080fd5b50356001600160a01b0316614170565b3480156112c457600080fd5b50610763600480360360408110156112db57600080fd5b506001600160a01b038135169060200135614308565b3480156112fd57600080fd5b506106e1614480565b34801561131257600080fd5b5061094f61448f565b34801561132757600080fd5b506106e1614495565b34801561133c57600080fd5b5061094f6144a4565b34801561135157600080fd5b506107636004803603602081101561136857600080fd5b50356001600160a01b03166144ab565b34801561138457600080fd5b506106e16004803603602081101561139b57600080fd5b503561467b565b3480156113ae57600080fd5b506106e161468b565b3480156113c357600080fd5b506106e1600480360360208110156113da57600080fd5b8101906020810181356401000000008111156113f557600080fd5b82018360208201111561140757600080fd5b8035906020019184600183028401116401000000008311171561142957600080fd5b91908080601f01602080910402602001604051908101604052809392919081815260200183838082843760009201919091525092955061469a945050505050565b34801561147657600080fd5b506106e16146c9565b34801561148b57600080fd5b506106a3600480360360208110156114a257600080fd5b50356001600160a01b03166146e1565b3480156114be57600080fd5b506106a3600480360360208110156114d557600080fd5b50356001600160a01b03166146f6565b3480156114f157600080fd5b506107636004803603602081101561150857600080fd5b50356001600160a01b031661470b565b34801561152457600080fd5b506107636004803603602081101561153b57600080fd5b50356001600160a01b031661481c565b34801561155757600080fd5b50611560614999565b60408051602080825283518183015283519192839290830191858101910280838360005b8381101561159c578181015183820152602001611584565b505050509050019250505060405180910390f35b3480156115bc57600080fd5b50610763600480360360208110156115d357600080fd5b50356001600160a01b03166149fb565b3480156115ef57600080fd5b506106e1614b78565b34801561160457600080fd5b506106e1614b87565b34801561161957600080fd5b5061094f614b96565b34801561162e57600080fd5b5061094f614b9c565b34801561164357600080fd5b50610763614ba2565b34801561165857600080fd5b506107636004803603604081101561166f57600080fd5b50803560ff1690602001356001600160a01b0316614c55565b34801561169457600080fd5b506106e1614e4e565b3480156116a957600080fd5b50611560614e5d565b3480156116be57600080fd5b50610763600480360360208110156116d557600080fd5b50356001600160a01b0316614ebd565b3480156116f157600080fd5b506107636004803603602081101561170857600080fd5b50356001600160a01b0316614fcf565b34801561172457600080fd5b506106e16150e1565b34801561173957600080fd5b506107636004803603602081101561175057600080fd5b50356001600160a01b03166150f0565b34801561176c57600080fd5b5061094f6004803603602081101561178357600080fd5b50356001600160a01b031661524c565b34801561179f57600080fd5b506117a861525e565b604080519485526020850193909352838301919091526060830152519081900360800190f35b3480156117da57600080fd5b50610763600480360360208110156117f157600080fd5b50356001600160a01b0316615270565b34801561180d57600080fd5b506106a36004803603604081101561182457600080fd5b81019060208101813564010000000081111561183f57600080fd5b82018360208201111561185157600080fd5b8035906020019184600183028401116401000000008311171561187357600080fd5b91908080601f016020809104026020016040519081016040528093929190818152602001838380828437600092019190915250929550505090356001600160a01b031691506153739050565b3480156118cb57600080fd5b5061094f6153ae565b3480156118e057600080fd5b506118e96153b4565b604051808261028080838360005b8381101561190f5781810151838201526020016118f7565b5050505090500191505060405180910390f35b34801561192e57600080fd5b506106a36004803603602081101561194557600080fd5b50356001600160a01b03166153f4565b60995460009061010090046001600160a01b031633148061198e5750611979614495565b6001600160a01b0316336001600160a01b0316145b6119c95760405162461bcd60e51b8152600401808060200182810382526034815260200180615a466034913960400191505060405180910390fd5b6119d1614495565b6001600160a01b0316336001600160a01b031614806119f257506001821515145b611a43576040805162461bcd60e51b815260206004820152601660248201527f6f6e6c792061646d696e2063616e20756e706175736500000000000000000000604482015290519081900360640190fd5b60005b8351811015611b3d5782609a6000868481518110611a6057fe5b60200260200101516001600160a01b03166001600160a01b0316815260200190815260200160002060006101000a81548160ff0219169083151502179055507f14fc4a89e124f9817afd6bc9b8270d50250d5ff6f0711b687f6fa4c34decf1cd848281518110611acc57fe5b6020026020010151846040518080602001846001600160a01b031681526020018315158152602001828103825260198152602001807f477561726469616e20696e646976696475616c20706175736500000000000000815250602001935050505060405180910390a1600101611a46565b508190505b92915050565b6000818152607060205260409020546001600160a01b03165b919050565b6001600160a01b03811660009081526086602052604081205460ff1680611b9a57506068546001600160a01b038381169116145b80611bb257506069546001600160a01b038381169116145b80611bca5750606a546001600160a01b038381169116145b80611be257506071546001600160a01b038381169116145b80611bfa5750606d546001600160a01b038381169116145b80611c125750606b546001600160a01b038381169116145b80611c355750816001600160a01b0316611c2a614495565b6001600160a01b0316145b80611c4857506001600160a01b03821630145b80611c575750611c5782615412565b80611b42575060866000836001600160a01b03166356ba88b86040518163ffffffff1660e01b815260040160206040518083038186803b158015611c9a57600080fd5b505afa158015611cae573d6000803e3d6000fd5b505050506040513d6020811015611cc457600080fd5b50516001600160a01b0316815260208101919091526040016000205460ff168015611b425750816001600160a01b03166356ba88b86040518163ffffffff1660e01b815260040160206040518083038186803b158015611d2357600080fd5b505afa158015611d37573d6000803e3d6000fd5b505050506040513d6020811015611d4d57600080fd5b5051604080517f3a8219250000000000000000000000000000000000000000000000000000000081526001600160a01b03858116600483015291519190921691633a821925916024808301926020929190829003018186803b158015611db257600080fd5b505afa158015611dc6573d6000803e3d6000fd5b505050506040513d6020811015611ddc57600080fd5b505192915050565b611dec615462565b6001600160a01b0316611dfd614495565b6001600160a01b031614611e46576040805162461bcd60e51b81526020600482018190526024820152600080516020615aa8833981519152604482015290519081900360640190fd5b6001600160a01b03811660009081526089602052604090205460ff16611eb3576040805162461bcd60e51b815260206004820152601560248201527f4b65657065722069732077686974656c69737465640000000000000000000000604482015290519081900360640190fd5b6001600160a01b03166000908152608960205260409020805460ff19169055565b611edc615462565b6001600160a01b0316611eed614495565b6001600160a01b031614611f36576040805162461bcd60e51b81526020600482018190526024820152600080516020615aa8833981519152604482015290519081900360640190fd5b6001600160a01b03811660009081526086602052604090205460ff16611fa3576040805162461bcd60e51b815260206004820152601560248201527f47617264656e20646f6573206e6f742065786973740000000000000000000000604482015290519081900360640190fd5b6000819050806001600160a01b03166302fb0c5e6040518163ffffffff1660e01b815260040160206040518083038186803b158015611fe157600080fd5b505afa158015611ff5573d6000803e3d6000fd5b505050506040513d602081101561200b57600080fd5b50511561205f576040805162461bcd60e51b815260206004820181905260248201527f5468652067617264656e206e6565647320746f2062652064697361626c65642e604482015290519081900360640190fd5b6040805163567619c560e11b81526001600482015290516001600160a01b0383169163acec338a91602480830192600092919082900301818387803b1580156120a757600080fd5b505af11580156120bb573d6000803e3d6000fd5b505050505050565b6120cb615462565b6001600160a01b03166120dc614495565b6001600160a01b031614612125576040805162461bcd60e51b81526020600482018190526024820152600080516020615aa8833981519152604482015290519081900360640190fd5b6093805462ff0000191662010000179055565b612140615462565b6001600160a01b0316612151614495565b6001600160a01b03161461219a576040805162461bcd60e51b81526020600482018190526024820152600080516020615aa8833981519152604482015290519081900360640190fd5b6001600160a01b03811660009081526086602052604090205460ff16612207576040805162461bcd60e51b815260206004820152601560248201527f47617264656e20646f6573206e6f742065786973740000000000000000000000604482015290519081900360640190fd5b806001600160a01b03166302fb0c5e6040518163ffffffff1660e01b815260040160206040518083038186803b15801561224057600080fd5b505afa158015612254573d6000803e3d6000fd5b505050506040513d602081101561226a57600080fd5b5051156122be576040805162461bcd60e51b815260206004820181905260248201527f5468652067617264656e206e6565647320746f2062652064697361626c65642e604482015290519081900360640190fd5b61232b81606580548060200260200160405190810160405280929190818152602001828054801561231857602002820191906000526020600020905b81546001600160a01b031681526001909101906020018083116122fa575b505050505061546690919063ffffffff16565b805161233f91606591602090910190615929565b506001600160a01b038116600081815260866020526040808220805460ff19169055517fb52dedfe431c6250e847edee5dca0a14cfaad5c6626218f99bd60c8ad9939a9f9190a250565b612391615462565b6001600160a01b03166123a2614495565b6001600160a01b0316146123eb576040805162461bcd60e51b81526020600482018190526024820152600080516020615aa8833981519152604482015290519081900360640190fd5b60006123f6836154e3565b6000818152607060205260409020549091506001600160a01b031615612463576040805162461bcd60e51b815260206004820152601b60248201527f496e746567726174696f6e2065786973747320616c72656164792e0000000000604482015290519081900360640190fd5b6001600160a01b0382166124be576040805162461bcd60e51b815260206004820152601f60248201527f496e746567726174696f6e2061646472657373206d7573742065786973742e00604482015290519081900360640190fd5b60008181526070602090815260409182902080546001600160a01b0319166001600160a01b0386161790559051845185928291908401908083835b602083106125185780518252601f1990920191602091820191016124f9565b51815160209384036101000a6000190180199092169116179052604080519290940182900382206001600160a01b038916835293519395507ffda47fb8c9da07a420b19d406f4c50352dfa9f6513a950bb282baf8cb9b9050594509083900301919050a2505050565b6072816014811061259157600080fd5b01546001600160a01b0316905081565b6125a9615462565b6001600160a01b03166125ba614495565b6001600160a01b031614612603576040805162461bcd60e51b81526020600482018190526024820152600080516020615aa8833981519152604482015290519081900360640190fd5b606c546001600160a01b0382811691161415612666576040805162461bcd60e51b815260206004820152601a60248201527f497368746172204761746520616c726561647920657869737473000000000000604482015290519081900360640190fd5b6001600160a01b0381166126c1576040805162461bcd60e51b815260206004820152601d60248201527f4973687461722047617465206f7261636c65206d757374206578697374000000604482015290519081900360640190fd5b606c80546001600160a01b038381166001600160a01b03198316811790935560408051938452911660208301819052815190927f9d8291abf2224012a00e3e6cb815777395423c95684705c6a799205e926f38d492908290030190a15050565b6069546001600160a01b031681565b60995460ff1681565b6068546001600160a01b031681565b60915481565b608c54608d54608e54909192565b612764615462565b6001600160a01b0316612775614495565b6001600160a01b0316146127be576040805162461bcd60e51b81526020600482018190526024820152600080516020615aa8833981519152604482015290519081900360640190fd5b60006127c9836154e3565b6000818152607060205260409020549091506001600160a01b0316612835576040805162461bcd60e51b815260206004820152601b60248201527f496e746567726174696f6e20646f6573206e6f742065786973742e0000000000604482015290519081900360640190fd5b6001600160a01b038216612890576040805162461bcd60e51b815260206004820152601f60248201527f496e746567726174696f6e2061646472657373206d7573742065786973742e00604482015290519081900360640190fd5b60008181526070602090815260409182902080546001600160a01b0319166001600160a01b0386161790559051845185928291908401908083835b602083106128ea5780518252601f1990920191602091820191016128cb565b51815160209384036101000a6000190180199092169116179052604080519290940182900382206001600160a01b038916835293519395507f10af83bc70c2a73aefcd7156f6f80519861b0d2657dee2b4b8a8123e70f4b99f94509083900301919050a2505050565b609354610100900460ff1681565b60955481565b61296f615462565b6001600160a01b0316612980614495565b6001600160a01b0316146129c9576040805162461bcd60e51b81526020600482018190526024820152600080516020615aa8833981519152604482015290519081900360640190fd5b60005b8151811015612a21576001608960008484815181106129e757fe5b6020908102919091018101516001600160a01b03168252810191909152604001600020805460ff19169115159190911790556001016129cc565b5050565b612a2d615462565b6001600160a01b0316612a3e614495565b6001600160a01b031614612a87576040805162461bcd60e51b81526020600482018190526024820152600080516020615aa8833981519152604482015290519081900360640190fd5b6001600160a01b038116612ada576040805162461bcd60e51b8152602060048201526015602482015274041646472657373206d757374206e6f74206265203605c1b604482015290519081900360640190fd5b606780546001600160a01b038381166001600160a01b031983168117909355604080519190921680825291519192917f75cbfa1661740f312268987c8dfe34da6bacb541f3e31eb54ea7fd5d88a79e2b9181900360200190a25050565b60866020526000908152604090205460ff1681565b612b54615462565b6001600160a01b0316612b65614495565b6001600160a01b031614612bae576040805162461bcd60e51b81526020600482018190526024820152600080516020615aa8833981519152604482015290519081900360640190fd5b65017e14a710004211612c08576040805162461bcd60e51b815260206004820152601f60248201527f5472616e73666572732063616e6e6f7420626520656e61626c65642079657400604482015290519081900360640190fd5b6093805460ff19166001179055565b60668181548110612c2757600080fd5b6000918252602090912001546001600160a01b0316905081565b60935460ff1681565b606b546001600160a01b031681565b612c61615462565b6001600160a01b0316612c72614495565b6001600160a01b031614612cbb576040805162461bcd60e51b81526020600482018190526024820152600080516020615aa8833981519152604482015290519081900360640190fd5b6001600160a01b03166000908152608960205260409020805460ff19166001179055565b612ce7615462565b6001600160a01b0316612cf8614495565b6001600160a01b031614612d41576040805162461bcd60e51b81526020600482018190526024820152600080516020615aa8833981519152604482015290519081900360640190fd5b6001811015612d815760405162461bcd60e51b815260040180806020018281038252602d8152602001806159e9602d913960400191505060405180910390fd5b609855565b6001600160a01b031660009081526089602052604090205460ff1690565b609a6020526000908152604090205460ff1681565b60995461010090046001600160a01b031681565b60995461010090046001600160a01b0316331480612e035750612dee614495565b6001600160a01b0316336001600160a01b0316145b612e3e5760405162461bcd60e51b8152600401808060200182810382526037815260200180615ac86037913960400191505060405180910390fd5b609980546001600160a01b038381166101008181027fffffffffffffffffffffff0000000000000000000000000000000000000000ff8516179094556040805194909304919091168084526020840191909152815190927f0613b6ee6a04f0d09f390e4d9318894b9f6ac7fd83897cd8d18896ba579c401e92908290030190a15050565b60905481565b612ed0615462565b6001600160a01b0316612ee1614495565b6001600160a01b031614612f2a576040805162461bcd60e51b81526020600482018190526024820152600080516020615aa8833981519152604482015290519081900360640190fd5b609354610100900460ff16612fc0576093805461ff001916610100179055606b54604080517f79fc904f00000000000000000000000000000000000000000000000000000000815290516001600160a01b03909216916379fc904f9160048082019260009290919082900301818387803b158015612fa757600080fd5b505af1158015612fbb573d6000803e3d6000fd5b505050505b565b612fca615462565b6001600160a01b0316612fdb614495565b6001600160a01b031614613024576040805162461bcd60e51b81526020600482018190526024820152600080516020615aa8833981519152604482015290519081900360640190fd5b6001600160a01b038116613077576040805162461bcd60e51b8152602060048201526015602482015274041646472657373206d757374206e6f74206265203605c1b604482015290519081900360640190fd5b6071546001600160a01b03828116911614156130da576040805162461bcd60e51b815260206004820152601960248201527f41646472657373206d75737420626520646966666572656e7400000000000000604482015290519081900360640190fd5b806001600160a01b031660706000613216846001600160a01b03166317d7de7c6040518163ffffffff1660e01b815260040160006040518083038186803b15801561312457600080fd5b505afa158015613138573d6000803e3d6000fd5b505050506040513d6000823e601f3d908101601f19168201604052602081101561316157600080fd5b810190808051604051939291908464010000000082111561318157600080fd5b90830190602082018581111561319657600080fd5b82516401000000008111828201881017156131b057600080fd5b82525081516020918201929091019080838360005b838110156131dd5781810151838201526020016131c5565b50505050905090810190601f16801561320a5780820380516001836020036101000a031916815260200191505b506040525050506154e3565b81526020810191909152604001600020546001600160a01b031614613282576040805162461bcd60e51b815260206004820152601d60248201527f496e746567726174696f6e206e6565647320746f2062652076616c6964000000604482015290519081900360640190fd5b607180546001600160a01b038381166001600160a01b031983168117909355604080519190921680825291519192917f7c0554a0d606bbd6266e57a40fdb3702f32d1a564d5d06f05ed977ace613dd349181900360200190a25050565b62093a8081565b60945481565b609b5460009060ff1680611b425750506001600160a01b03166000908152609a602052604090205460ff1690565b601481565b60896020526000908152604090205460ff1681565b6071546001600160a01b031681565b61334b615462565b6001600160a01b031661335c614495565b6001600160a01b0316146133a5576040805162461bcd60e51b81526020600482018190526024820152600080516020615aa8833981519152604482015290519081900360640190fd5b60006133b0826154e3565b6000818152607060205260409020549091506001600160a01b031661341c576040805162461bcd60e51b815260206004820152601b60248201527f496e746567726174696f6e20646f6573206e6f742065786973742e0000000000604482015290519081900360640190fd5b60008181526070602090815260409182902080546001600160a01b03198116909155915184516001600160a01b039093169285928291908401908083835b602083106134795780518252601f19909201916020918201910161345a565b51815160209384036101000a6000190180199092169116179052604080519290940182900382206001600160a01b038816835293519395507ffc3fbb608ec9e619ead57ddfa31f2ab35c888b67f6471b74dce69c035eed445b94509083900301919050a2505050565b608b546001600160a01b031681565b609b5460ff1681565b613502615462565b6001600160a01b0316613513614495565b6001600160a01b03161461355c576040805162461bcd60e51b81526020600482018190526024820152600080516020615aa8833981519152604482015290519081900360640190fd5b6001600160a01b0381166135af576040805162461bcd60e51b8152602060048201526015602482015274041646472657373206d757374206e6f74206265203605c1b604482015290519081900360640190fd5b606d80546001600160a01b038381166001600160a01b031983168117909355604080519190921680825291519192917f57c1ea229271e944c7d975557caf535c1c974708de760613121827217db4ce8f9181900360200190a25050565b60995460009061010090046001600160a01b03163314806136455750613630614495565b6001600160a01b0316336001600160a01b0316145b6136805760405162461bcd60e51b8152600401808060200182810382526030815260200180615a166030913960400191505060405180910390fd5b613688614495565b6001600160a01b0316336001600160a01b031614806136a957506001821515145b6136fa576040805162461bcd60e51b815260206004820152601660248201527f6f6e6c792061646d696e2063616e20756e706175736500000000000000000000604482015290519081900360640190fd5b609b805483151560ff1990911681179091556040805160208101929092528082526015828201527f477561726469616e20676c6f62616c20706175736500000000000000000000006060830152517fef159d9a32b2472e32b098f954f3ce62d232939f1c207070b584df1814de2de09181900360800190a15090565b6071546000906001600160a01b03166137d6576040805162461bcd60e51b815260206004820181905260248201527f4e65656420612064656661756c7420747261646520696e746567726174696f6e604482015290519081900360640190fd5b606c54604080517f7804a5dc00000000000000000000000000000000000000000000000000000000815233600482015290516001600160a01b0390921691637804a5dc91602480820192602092909190829003018186803b15801561383a57600080fd5b505afa15801561384e573d6000803e3d6000fd5b505050506040513d602081101561386457600080fd5b505180613873575060995460ff165b6138ae5760405162461bcd60e51b8152600401808060200182810382526027815260200180615aff6027913960400191505060405180910390fd5b6000606a60009054906101000a90046001600160a01b03166001600160a01b0316638d06366f8b338c8c8c8c8c8c8c6040518a63ffffffff1660e01b8152600401808a6001600160a01b03168152602001896001600160a01b031681526020018060200180602001806020018881526020018060200186815260200185810385528c818151815260200191508051906020019080838360005b8381101561395f578181015183820152602001613947565b50505050905090810190601f16801561398c5780820380516001836020036101000a031916815260200191505b5085810384528b5181528b516020918201918d019080838360005b838110156139bf5781810151838201526020016139a7565b50505050905090810190601f1680156139ec5780820380516001836020036101000a031916815260200191505b5085810383528a5181528a516020918201918c019080838360005b83811015613a1f578181015183820152602001613a07565b50505050905090810190601f168015613a4c5780820380516001836020036101000a031916815260200191505b508581038252888882818152602001925060200280828437600081840152601f19601f8201169050808301925050509d5050505050505050505050505050602060405180830381600087803b158015613aa457600080fd5b505af1158015613ab8573d6000803e3d6000fd5b505050506040513d6020811015613ace57600080fd5b505190506001600160a01b038a1673c02aaa39b223fe8d0a0e5c4f27ead9083c756cc2141580613afc575034155b15613c3457604080517f23b872dd0000000000000000000000000000000000000000000000000000000081523360048201523060248201526044810185905290516001600160a01b038c16916323b872dd9160648083019260209291908290030181600087803b158015613b6f57600080fd5b505af1158015613b83573d6000803e3d6000fd5b505050506040513d6020811015613b9957600080fd5b5050604080517f095ea7b30000000000000000000000000000000000000000000000000000000081526001600160a01b038381166004830152602482018690529151918c169163095ea7b3916044808201926020929091908290030181600087803b158015613c0757600080fd5b505af1158015613c1b573d6000803e3d6000fd5b505050506040513d6020811015613c3157600080fd5b50505b6001600160a01b03811660009081526086602052604090205460ff1615613ca2576040805162461bcd60e51b815260206004820152601560248201527f47617264656e20616c7265616479206578697374730000000000000000000000604482015290519081900360640190fd5b6001600160a01b038116600081815260866020526040808220805460ff191660019081179091556065805480830182559084527f8ff97419363ffd7000167f130ef7168fbea05faf9251824ca5043f113cc6a7c70180546001600160a01b0319168517905581517f695f3f5d00000000000000000000000000000000000000000000000000000000815260048101889052602481018890523360448201526064810191909152905163695f3f5d9234926084808201939182900301818588803b158015613d6e57600080fd5b505af1158015613d82573d6000803e3d6000fd5b50506040513393506001600160a01b03851692507f3f9c315348eaae54d760380967a68b458af53312321328f584799f93283dc1de9150600090a39998505050505050505050565b61546090565b613dd8615462565b6001600160a01b0316613de9614495565b6001600160a01b031614613e32576040805162461bcd60e51b81526020600482018190526024820152600080516020615aa8833981519152604482015290519081900360640190fd5b6033546040516000916001600160a01b0316907f8be0079c531659141344cd1fd0a4f28419497f9722a3daafe3b4186f6b6457e0908390a3603380546001600160a01b0319169055565b60985481565b608c5481565b60935462010000900460ff1681565b613e9f6154ee565b6611c37937e0800060955566b1a2bc2ec50000609481905560006096819055609755606780546001600160a01b031916731f98431c8ad98523631ae4a59f267346ea31f98417905567016345785d8a0000608c55608d55670b1a2bc2ec500000608e5567011c37937e080000608f5567025bf6196bd10000609055670a688906bd8b0000609155670214e8348c4f000060925560646098556099805460ff19169055565b613f4b615462565b6001600160a01b0316613f5c614495565b6001600160a01b031614613fa5576040805162461bcd60e51b81526020600482018190526024820152600080516020615aa8833981519152604482015290519081900360640190fd5b6001600160a01b038116613ff8576040805162461bcd60e51b8152602060048201526015602482015274041646472657373206d757374206e6f74206265203605c1b604482015290519081900360640190fd5b606b80546001600160a01b038381166001600160a01b031983168117909355604080519190921680825291519192917f52cd8e0a7f86e9df123b3357ab2ee1c4cd0f5ac84ca8c98d93beb2679b2bb8069181900360200190a25050565b61405d615462565b6001600160a01b031661406e614495565b6001600160a01b0316146140b7576040805162461bcd60e51b81526020600482018190526024820152600080516020615aa8833981519152604482015290519081900360640190fd5b6001600160a01b03811661410a576040805162461bcd60e51b8152602060048201526015602482015274041646472657373206d757374206e6f74206265203605c1b604482015290519081900360640190fd5b608b80546001600160a01b038381166001600160a01b03198316811790935560408051938452911660208301819052815190927f8c3aa5f43a388513435861bf27dfad7829cd248696fed367c62d441f6295449692908290030190a15050565b60925481565b614178615462565b6001600160a01b0316614189614495565b6001600160a01b0316146141d2576040805162461bcd60e51b81526020600482018190526024820152600080516020615aa8833981519152604482015290519081900360640190fd5b6001600160a01b03811660009081526087602052604090205460ff1661423f576040805162461bcd60e51b815260206004820152601c60248201527f5265736572766520617373657420646f6573206e6f7420657869737400000000604482015290519081900360640190fd5b6142aa816066805480602002602001604051908101604052809291908181526020018280548015612318576020028201919060005260206000209081546001600160a01b031681526001909101906020018083116122fa57505050505061546690919063ffffffff16565b80516142be91606691602090910190615929565b506001600160a01b038116600081815260876020526040808220805460ff19169055517f2a4ae73bc76175e864e83c9843f11cf15a1bfcfa73152fb96d133416efee48ed9190a250565b614310615462565b6001600160a01b0316614321614495565b6001600160a01b03161461436a576040805162461bcd60e51b81526020600482018190526024820152600080516020615aa8833981519152604482015290519081900360640190fd5b600081116143bf576040805162461bcd60e51b815260206004820152601d60248201527f5f6d696e5269736b79506169724c6971756964697479457468203e2030000000604482015290519081900360640190fd5b6001600160a01b03821660009081526087602052604090205460ff1661442c576040805162461bcd60e51b815260206004820152601b60248201527f4e6565647320746f20626520612076616c696420726573657276650000000000604482015290519081900360640190fd5b6001600160a01b0382166000818152608a6020908152604091829020849055815184815291517fb78c51bc9bffa228585b84c38a0234fe0a48eb7aeb9f7a6a7a46f0ddd3270dd59281900390910190a25050565b6067546001600160a01b031681565b608e5481565b600061449f6155a0565b905090565b62093a8090565b6144b3615462565b6001600160a01b03166144c4614495565b6001600160a01b03161461450d576040805162461bcd60e51b81526020600482018190526024820152600080516020615aa8833981519152604482015290519081900360640190fd5b6001600160a01b03811660009081526086602052604090205460ff1661457a576040805162461bcd60e51b815260206004820152601560248201527f47617264656e20646f6573206e6f742065786973740000000000000000000000604482015290519081900360640190fd5b6000819050806001600160a01b03166302fb0c5e6040518163ffffffff1660e01b815260040160206040518083038186803b1580156145b857600080fd5b505afa1580156145cc573d6000803e3d6000fd5b505050506040513d60208110156145e257600080fd5b5051614635576040805162461bcd60e51b815260206004820152601e60248201527f5468652067617264656e206e6565647320746f206265206163746976652e0000604482015290519081900360640190fd5b6040805163567619c560e11b815260006004820181905291516001600160a01b0384169263acec338a926024808201939182900301818387803b1580156120a757600080fd5b60658181548110612c2757600080fd5b606d546001600160a01b031681565b6000607060006146a9846154e3565b81526020810191909152604001600020546001600160a01b031692915050565b73c02aaa39b223fe8d0a0e5c4f27ead9083c756cc281565b60886020526000908152604090205460ff1681565b60876020526000908152604090205460ff1681565b614713615462565b6001600160a01b0316614724614495565b6001600160a01b03161461476d576040805162461bcd60e51b81526020600482018190526024820152600080516020615aa8833981519152604482015290519081900360640190fd5b6001600160a01b0381166147c0576040805162461bcd60e51b8152602060048201526015602482015274041646472657373206d757374206e6f74206265203605c1b604482015290519081900360640190fd5b606f80546001600160a01b038381166001600160a01b031983168117909355604080519190921680825291519192917e40167ea3901ef812c672b081813db3c0fc117c302ace151f1f9a907906e1669181900360200190a25050565b614824615462565b6001600160a01b0316614835614495565b6001600160a01b03161461487e576040805162461bcd60e51b81526020600482018190526024820152600080516020615aa8833981519152604482015290519081900360640190fd5b6068546001600160a01b03828116911614156148e1576040805162461bcd60e51b815260206004820152601c60248201527f47617264656e2056616c75657220616c72656164792065786973747300000000604482015290519081900360640190fd5b6001600160a01b03811661493c576040805162461bcd60e51b815260206004820152601860248201527f47617264656e2056616c756572206d7573742065786973740000000000000000604482015290519081900360640190fd5b606880546001600160a01b038381166001600160a01b031983168117909355604080519190921680825291519192917fb89b871cab0fe1b2d8c7cc3e16640ef9a9bf67f031e44947331820e025bf69479181900360200190a25050565b606060668054806020026020016040519081016040528092919081815260200182805480156149f157602002820191906000526020600020905b81546001600160a01b031681526001909101906020018083116149d3575b5050505050905090565b614a03615462565b6001600160a01b0316614a14614495565b6001600160a01b031614614a5d576040805162461bcd60e51b81526020600482018190526024820152600080516020615aa8833981519152604482015290519081900360640190fd5b6069546001600160a01b0382811691161415614ac0576040805162461bcd60e51b815260206004820152601b60248201527f5072696365206f7261636c6520616c7265616479206578697374730000000000604482015290519081900360640190fd5b6001600160a01b038116614b1b576040805162461bcd60e51b815260206004820152601760248201527f5072696365206f7261636c65206d757374206578697374000000000000000000604482015290519081900360640190fd5b606980546001600160a01b038381166001600160a01b031983168117909355604080519190921680825291519192917f40bddd72ea96b80dae14e3d13e8ce2c4ecd2500d88c6c0004d24a00deab28f9c9181900360200190a25050565b606a546001600160a01b031681565b606c546001600160a01b031681565b608d5481565b608f5481565b614baa615462565b6001600160a01b0316614bbb614495565b6001600160a01b031614614c04576040805162461bcd60e51b81526020600482018190526024820152600080516020615aa8833981519152604482015290519081900360640190fd5b60995460ff1615614c465760405162461bcd60e51b815260040180806020018281038252602d815260200180615b26602d913960400191505060405180910390fd5b6099805460ff19166001179055565b614c5d615462565b6001600160a01b0316614c6e614495565b6001600160a01b031614614cb7576040805162461bcd60e51b81526020600482018190526024820152600080516020615aa8833981519152604482015290519081900360640190fd5b601460ff831610614d0f576040805162461bcd60e51b815260206004820152601660248201527f4d6178206f7065726174696f6e73207265616368656400000000000000000000604482015290519081900360640190fd5b806001600160a01b031660728360ff1660148110614d2957fe5b01546001600160a01b03161415614d87576040805162461bcd60e51b815260206004820152601560248201527f4f7065726174696f6e20616c7265616479207365740000000000000000000000604482015290519081900360640190fd5b6001600160a01b038116614de2576040805162461bcd60e51b815260206004820152601d60248201527f4f7065726174696f6e2061646472657373206d7573742065786973742e000000604482015290519081900360640190fd5b8060728360ff1660148110614df357fe5b0180546001600160a01b039283166001600160a01b03199091161790556040805191831682525160ff8416917f2dc23b4bb2132388a8a9f2d4a7ec650d42dcd4c1c63e6495756fa25e8ecc6abd919081900360200190a25050565b606f546001600160a01b031681565b606060658054806020026020016040519081016040528092919081815260200182805480156149f1576020028201919060005260206000209081546001600160a01b031681526001909101906020018083116149d3575050505050905090565b614ec5615462565b6001600160a01b0316614ed6614495565b6001600160a01b031614614f1f576040805162461bcd60e51b81526020600482018190526024820152600080516020615aa8833981519152604482015290519081900360640190fd5b6001600160a01b038116614f72576040805162461bcd60e51b8152602060048201526015602482015274041646472657373206d757374206e6f74206265203605c1b604482015290519081900360640190fd5b606e80546001600160a01b038381166001600160a01b031983168117909355604080519190921680825291519192917f578086cc379999d712cf9ea4c177a02b092c028a84cf82d2dd590f2606b3169f9181900360200190a25050565b614fd7615462565b6001600160a01b0316614fe8614495565b6001600160a01b031614615031576040805162461bcd60e51b81526020600482018190526024820152600080516020615aa8833981519152604482015290519081900360640190fd5b6001600160a01b038116615084576040805162461bcd60e51b8152602060048201526015602482015274041646472657373206d757374206e6f74206265203605c1b604482015290519081900360640190fd5b606a80546001600160a01b038381166001600160a01b031983168117909355604080519190921680825291519192917f1e3307b8b00f4ec731298a869e9665a2662abd65a0e3fe9dd01fd53c35b0ae939181900360200190a25050565b606e546001600160a01b031681565b6150f8615462565b6001600160a01b0316615109614495565b6001600160a01b031614615152576040805162461bcd60e51b81526020600482018190526024820152600080516020615aa8833981519152604482015290519081900360640190fd5b6001600160a01b03811660009081526087602052604090205460ff16156151c0576040805162461bcd60e51b815260206004820152601b60248201527f5265736572766520617373657420616c72656164792061646465640000000000604482015290519081900360640190fd5b6001600160a01b038116600081815260876020526040808220805460ff1916600190811790915560668054918201815583527f46501879b8ca8525e8c2fd519e2fbfcfa2ebea26501294aa02cbfcfb12e943540180546001600160a01b03191684179055517f9fef46e320a4767c320315d2f597ee79c1e17c3c3330d026764d6a7dac8fcd5c9190a250565b608a6020526000908152604090205481565b608f5460905460915460925490919293565b615278615462565b6001600160a01b0316615289614495565b6001600160a01b0316146152d2576040805162461bcd60e51b81526020600482018190526024820152600080516020615aa8833981519152604482015290519081900360640190fd5b6001600160a01b0381166153175760405162461bcd60e51b81526004018080602001828103825260268152602001806159c36026913960400191505060405180910390fd5b6033546040516001600160a01b038084169216907f8be0079c531659141344cd1fd0a4f28419497f9722a3daafe3b4186f6b6457e090600090a3603380546001600160a01b0319166001600160a01b0392909216919091179055565b6000816001600160a01b03166070600061538c866154e3565b81526020810191909152604001600020546001600160a01b0316149392505050565b61546081565b6153bc61598e565b60408051610280810191829052607280546001600160a01b0316825290916014906073602085018083116149d3575050505050905090565b6001600160a01b031660009081526087602052604090205460ff1690565b6000805b601460ff821610156154595760728160ff166014811061543257fe5b01546001600160a01b0384811691161415615451576001915050611b61565b600101615416565b50600092915050565b3390565b606060008061547585856155af565b91509150806154cb576040805162461bcd60e51b815260206004820152601560248201527f41646472657373206e6f7420696e2061727261792e0000000000000000000000604482015290519081900360640190fd5b60006154d78684615615565b509350611b4292505050565b805160209091012090565b600054610100900460ff16806155075750615507615779565b80615515575060005460ff16155b6155505760405162461bcd60e51b815260040180806020018281038252602e815260200180615a7a602e913960400191505060405180910390fd5b600054610100900460ff1615801561557b576000805460ff1961ff0019909116610100171660011790555b61558361578a565b61558b61582a565b801561559d576000805461ff00191690555b50565b6033546001600160a01b031690565b81516000908190815b8181101561560257846001600160a01b03168682815181106155d657fe5b60200260200101516001600160a01b031614156155fa5792506001915061560e9050565b6001016155b8565b50600019600092509250505b9250929050565b8151606090600090808410615671576040805162461bcd60e51b815260206004820152601860248201527f496e646578206d757374206265203c2041206c656e6774680000000000000000604482015290519081900360640190fd5b60006001820367ffffffffffffffff8111801561568d57600080fd5b506040519080825280602002602001820160405280156156b7578160200160208202803683370190505b50905060005b85811015615705578681815181106156d157fe5b60200260200101518282815181106156e557fe5b6001600160a01b03909216602092830291909101909101526001016156bd565b50600185015b828110156157565786818151811061571f57fe5b602002602001015182600183038151811061573657fe5b6001600160a01b039092166020928302919091019091015260010161570b565b508086868151811061576457fe5b60200260200101519350935050509250929050565b600061578430615923565b15905090565b600054610100900460ff16806157a357506157a3615779565b806157b1575060005460ff16155b6157ec5760405162461bcd60e51b815260040180806020018281038252602e815260200180615a7a602e913960400191505060405180910390fd5b600054610100900460ff1615801561558b576000805460ff1961ff001990911661010017166001179055801561559d576000805461ff001916905550565b600054610100900460ff16806158435750615843615779565b80615851575060005460ff16155b61588c5760405162461bcd60e51b815260040180806020018281038252602e815260200180615a7a602e913960400191505060405180910390fd5b600054610100900460ff161580156158b7576000805460ff1961ff0019909116610100171660011790555b60006158c1615462565b603380546001600160a01b0319166001600160a01b038316908117909155604051919250906000907f8be0079c531659141344cd1fd0a4f28419497f9722a3daafe3b4186f6b6457e0908290a350801561559d576000805461ff001916905550565b3b151590565b82805482825590600052602060002090810192821561597e579160200282015b8281111561597e57825182546001600160a01b0319166001600160a01b03909116178255602090920191600190910190615949565b5061598a9291506159ad565b5090565b6040518061028001604052806014906020820280368337509192915050565b5b8082111561598a57600081556001016159ae56fe4f776e61626c653a206e6577206f776e657220697320746865207a65726f2061646472657373436f6e7472696275746f72732063616e6e6f74206265206c657373207468616e2031207065722067617264656e6f6e6c7920706175736520677561726469616e20616e64206f776e65722063616e20706175736520676c6f62616c6c796f6e6c7920706175736520677561726469616e20616e64206f776e65722063616e20706175736520696e646976696475616c6c79496e697469616c697a61626c653a20636f6e747261637420697320616c726561647920696e697469616c697a65644f776e61626c653a2063616c6c6572206973206e6f7420746865206f776e65726f6e6c7920706175736520677561726469616e20616e64206f776e65722063616e2075706461746520706175736520677561726469616e5573657220646f6573206e6f742068617665206372656174696f6e207065726d697373696f6e7347617264656e206372656174696f6e20697320616c7265616479206f70656e20746f20746865207075626c6963a2646970667358221220e3fb7511591b8cfa4a6664e167806b19da26d645b42f8691a0d1a10f9aa6096264736f6c63430007060033",
  "devdoc": {
    "author": "Babylon Finance Protocol BabController is a smart contract used to deploy new gardens contracts and house the integrations and resources of the system.",
    "kind": "dev",
    "methods": {
      "addIntegration(string,address)": {
        "params": {
          "_integration": "Address of the integration contract to add",
          "_name": "Human readable string identifying the integration"
        }
      },
      "addKeeper(address)": {
        "params": {
          "_keeper": "Address of the keeper"
        }
      },
      "addKeepers(address[])": {
        "params": {
          "_keepers": "List with keeprs of the assets to whitelist"
        }
      },
      "addReserveAsset(address)": {
        "params": {
          "_reserveAsset": "Address of the reserve assset"
        }
      },
      "createGarden(address,string,string,string,uint256,uint256[],uint256)": {
        "params": {
          "_gardenParams": "Array of numeric garden params",
          "_initialContribution": "Initial contribution by the gardener",
          "_name": "Name of the Garden",
          "_reserveAsset": "Reserve asset of the Garden. Initially just weth",
          "_seed": "Seed to regenerate the garden NFT",
          "_symbol": "Symbol of the Garden",
          "_tokenURI": "Garden NFT token URI"
        }
      },
      "disableGarden(address)": {
        "params": {
          "_garden": "Address of the garden"
        }
      },
      "editGardenFactory(address)": {
        "params": {
          "_newGardenFactory": "Address of the new garden factory"
        }
      },
      "editGardenNFT(address)": {
        "params": {
          "_newGardenNFT": "Address of the new garden NFT"
        }
      },
      "editGardenValuer(address)": {
        "params": {
          "_gardenValuer": "Address of the new garden valuer"
        }
      },
      "editIntegration(string,address)": {
        "params": {
          "_integration": "Address of the integration contract to edit",
          "_name": "Human readable string identifying the integration"
        }
      },
      "editIshtarGate(address)": {
        "params": {
          "_ishtarGate": "Address of the new Ishtar Gate"
        }
      },
      "editLiquidityReserve(address,uint256)": {
        "params": {
          "_newMinLiquidityReserve": "Absolute min liquidity of an asset to grab price",
          "_reserve": "Address of the reserve to edit"
        }
      },
      "editPriceOracle(address)": {
        "params": {
          "_priceOracle": "Address of the new price oracle"
        }
      },
      "editRewardsDistributor(address)": {
        "params": {
          "_newRewardsDistributor": "Address of the new rewards distributor"
        }
      },
      "editStrategyFactory(address)": {
        "params": {
          "_newStrategyFactory": "Address of the new strategy factory"
        }
      },
      "editStrategyNFT(address)": {
        "params": {
          "_newStrategyNFT": "Address of the new strategy NFT"
        }
      },
      "editTreasury(address)": {
        "params": {
          "_newTreasury": "Address of the new protocol fee recipient"
        }
      },
      "editUniswapFactory(address)": {
        "params": {
          "_newUniswapFactory": "Address of the new uniswap factory"
        }
      },
      "enableGarden(address)": {
        "params": {
          "_garden": "Address of the garden"
        }
      },
      "getBABLSharing()": {
        "returns": {
          "_0": "Strategist, Stewards, Lps, creator bonus"
        }
      },
      "getIntegrationByName(string)": {
        "params": {
          "_name": "Human readable integration name"
        },
        "returns": {
          "_0": "Address of integration"
        }
      },
      "getIntegrationWithHash(bytes32)": {
        "params": {
          "_nameHashP": "Hash of human readable integration name"
        },
        "returns": {
          "_0": "Address of integration"
        }
      },
      "getProfitSharing()": {
        "returns": {
          "_0": "Strategist, Stewards, Lps, creator bonus"
        }
      },
      "isPaused(address)": {
        "params": {
          "_contract": "Smartcontract address to check for a global or specific pause"
        }
      },
      "isSystemContract(address)": {
        "params": {
          "_contractAddress": "The contract address to check"
        }
      },
      "isValidIntegration(string,address)": {
        "params": {
          "_name": "Human readable string identifying the integration"
        },
        "returns": {
          "_0": "Boolean indicating if valid"
        }
      },
      "removeGarden(address)": {
        "params": {
          "_garden": "Address of the Garden contract to remove"
        }
      },
      "removeIntegration(string)": {
        "params": {
          "_name": "Human readable string identifying the integration"
        }
      },
      "removeKeeper(address)": {
        "params": {
          "_keeper": "Address of the keeper"
        }
      },
      "removeReserveAsset(address)": {
        "params": {
          "_reserveAsset": "Address of the reserve asset to remove"
        }
      },
      "renounceOwnership()": {
        "details": "Leaves the contract without owner. It will not be possible to call `onlyOwner` functions anymore. Can only be called by the current owner. NOTE: Renouncing ownership will leave the contract without an owner, thereby removing any functionality that is only available to the owner."
      },
      "setDefaultTradeIntegration(address)": {
        "params": {
          "_newDefaultTradeIntegation": "Address of the new default trade integration"
        }
      },
      "setGlobalPause(bool)": {
        "params": {
          "_state": "True to pause, false to unpause."
        }
      },
      "setOperation(uint8,address)": {
        "params": {
          "_kind": "Operation kind",
          "_operation": "Address of the operation contract to set"
        }
      },
      "setPauseGuardian(address)": {
        "params": {
          "_guardian": "Address of the guardian"
        }
      },
      "setSomePause(address[],bool)": {
        "params": {
          "_address": "Addresses of protocol smartcontract to be paused",
          "_state": "Boolean pause state"
        }
      },
      "transferOwnership(address)": {
        "details": "Transfers ownership of the contract to a new account (`newOwner`). Can only be called by the current owner."
      }
    },
    "title": "BabController",
    "version": 1
  },
  "userdoc": {
    "events": {
      "ActionPaused(string,bool)": {
        "notice": "Emitted when an action is paused globally"
      },
      "ActionPausedIndividually(string,address,bool)": {
        "notice": "Emitted when an action is paused individually"
      },
      "NewPauseGuardian(address,address)": {
        "notice": "Emitted when pause guardian is changed"
      }
    },
    "kind": "user",
    "methods": {
      "addIntegration(string,address)": {
        "notice": "GOVERNANCE FUNCTION: Add a new integration to the registry"
      },
      "addKeeper(address)": {
        "notice": "PRIVILEGED FACTORY FUNCTION. Adds a new valid keeper to the list"
      },
      "addKeepers(address[])": {
        "notice": "PRIVILEGED FACTORY FUNCTION. Adds a list of assets to the whitelist"
      },
      "addReserveAsset(address)": {
        "notice": "PRIVILEGED FACTORY FUNCTION. Adds a new valid reserve asset for gardens"
      },
      "createGarden(address,string,string,string,uint256,uint256[],uint256)": {
        "notice": "Creates a Garden smart contract and registers the Garden with the controller. If asset is not WETH, the creator needs to approve the controller"
      },
      "disableGarden(address)": {
        "notice": "PRIVILEGED GOVERNANCE FUNCTION. Allows governance to disable a garden"
      },
      "editGardenFactory(address)": {
        "notice": "PRIVILEGED GOVERNANCE FUNCTION. Allows governance to edit the protocol garden factory"
      },
      "editGardenNFT(address)": {
        "notice": "PRIVILEGED GOVERNANCE FUNCTION. Allows governance to edit the protocol garden NFT"
      },
      "editGardenValuer(address)": {
        "notice": "PRIVILEGED GOVERNANCE FUNCTION. Allows governance to change the garden valuer"
      },
      "editIntegration(string,address)": {
        "notice": "GOVERNANCE FUNCTION: Edit an existing integration on the registry"
      },
      "editIshtarGate(address)": {
        "notice": "PRIVILEGED GOVERNANCE FUNCTION. Allows governance to change the Ishtar Gate Address"
      },
      "editLiquidityReserve(address,uint256)": {
        "notice": "GOVERNANCE FUNCTION: Edits the minimum liquidity an asset must have on Uniswap"
      },
      "editPriceOracle(address)": {
        "notice": "PRIVILEGED GOVERNANCE FUNCTION. Allows governance to change the price oracle"
      },
      "editRewardsDistributor(address)": {
        "notice": "PRIVILEGED GOVERNANCE FUNCTION. Allows governance to edit the rewards distributor"
      },
      "editStrategyFactory(address)": {
        "notice": "PRIVILEGED GOVERNANCE FUNCTION. Allows governance to edit the protocol strategy factory"
      },
      "editStrategyNFT(address)": {
        "notice": "PRIVILEGED GOVERNANCE FUNCTION. Allows governance to edit the protocol strategy NFT"
      },
      "editTreasury(address)": {
        "notice": "PRIVILEGED GOVERNANCE FUNCTION. Allows governance to edit the protocol fee recipient"
      },
      "editUniswapFactory(address)": {
        "notice": "PRIVILEGED GOVERNANCE FUNCTION. Allows governance to edit the protocol uniswaps factory"
      },
      "enableBABLMiningProgram()": {
        "notice": "PRIVILEGED GOVERNANCE FUNCTION. Enable and starts the BABL Mining program by the Rewards Distributor Can only happen after public launch of the protocol."
      },
      "enableGarden(address)": {
        "notice": "PRIVILEGED GOVERNANCE FUNCTION. Allows governance to enable a garden"
      },
      "enableGardenTokensTransfers()": {
        "notice": "PRIVILEGED GOVERNANCE FUNCTION. Allows transfers of ERC20 gardenTokens Can only happen after 2021 is finished."
      },
      "getBABLSharing()": {
        "notice": "Returns the percentages of BABL Profit Sharing"
      },
      "getIntegrationByName(string)": {
        "notice": "Get the integration address associated with passed human readable name"
      },
      "getIntegrationWithHash(bytes32)": {
        "notice": "Get integration integration address associated with passed hashed name"
      },
      "getProfitSharing()": {
        "notice": "Returns the percentages of a strategy Profit Sharing"
      },
      "initialize()": {
        "notice": "Initializes the initial fee recipient on deployment."
      },
      "isPaused(address)": {
        "notice": "Check whether or not there is a global pause or a specific pause of the provided contract address"
      },
      "isSystemContract(address)": {
        "notice": "Check if a contract address is a garden or one of the system contracts"
      },
      "isValidIntegration(string,address)": {
        "notice": "Check if integration name is valid"
      },
      "openPublicGardenCreation()": {
        "notice": "PRIVILEGED GOVERNANCE FUNCTION. Allows governance to enable public creation of gardens"
      },
      "removeGarden(address)": {
        "notice": "PRIVILEGED GOVERNANCE FUNCTION. Allows governance to remove a Garden"
      },
      "removeIntegration(string)": {
        "notice": "GOVERNANCE FUNCTION: Remove an existing integration on the registry"
      },
      "removeKeeper(address)": {
        "notice": "PRIVILEGED FACTORY FUNCTION. Removes a keeper"
      },
      "removeReserveAsset(address)": {
        "notice": "PRIVILEGED GOVERNANCE FUNCTION. Allows governance to remove a reserve asset"
      },
      "setAllowPublicGardens()": {
        "notice": "PRIVILEGED GOVERNANCE FUNCTION. Allows public gardens"
      },
      "setDefaultTradeIntegration(address)": {
        "notice": "PRIVILEGED GOVERNANCE FUNCTION. Allows governance to edit the protocol default trde integration"
      },
      "setGlobalPause(bool)": {
        "notice": "PRIVILEGED GOVERNANCE FUNCTION. Pause the protocol globally in case of unexpected issue Only the governance can unpause it"
      },
      "setMaxContributorsPerGarden(uint256)": {
        "notice": "PRIVILEGED GOVERNANCE FUNCTION. Change the max number of contributors for new Gardens since the change"
      },
      "setOperation(uint8,address)": {
        "notice": "GOVERNANCE FUNCTION: Edit an existing operation on the registry"
      },
      "setPauseGuardian(address)": {
        "notice": "PRIVILEGED GOVERNANCE FUNCTION. Set-up a pause guardian"
      },
      "setSomePause(address[],bool)": {
        "notice": "PRIVILEGED GOVERNANCE FUNCTION. Pause some smartcontracts in a batch process in case of unexpected issue Only the governance can unpause it"
      }
    },
    "version": 1
  },
  "storageLayout": {
    "storage": [
      {
        "astId": 492,
        "contract": "contracts/BabController.sol:BabControllerV3",
        "label": "_initialized",
        "offset": 0,
        "slot": "0",
        "type": "t_bool"
      },
      {
        "astId": 495,
        "contract": "contracts/BabController.sol:BabControllerV3",
        "label": "_initializing",
        "offset": 1,
        "slot": "0",
        "type": "t_bool"
      },
      {
        "astId": 1447,
        "contract": "contracts/BabController.sol:BabControllerV3",
        "label": "__gap",
        "offset": 0,
        "slot": "1",
        "type": "t_array(t_uint256)50_storage"
      },
      {
        "astId": 10,
        "contract": "contracts/BabController.sol:BabControllerV3",
        "label": "_owner",
        "offset": 0,
        "slot": "51",
        "type": "t_address"
      },
      {
        "astId": 129,
        "contract": "contracts/BabController.sol:BabControllerV3",
        "label": "__gap",
        "offset": 0,
        "slot": "52",
        "type": "t_array(t_uint256)49_storage"
      },
      {
        "astId": 10413,
        "contract": "contracts/BabController.sol:BabControllerV3",
        "label": "gardens",
        "offset": 0,
        "slot": "101",
        "type": "t_array(t_address)dyn_storage"
      },
      {
        "astId": 10416,
        "contract": "contracts/BabController.sol:BabControllerV3",
        "label": "reserveAssets",
        "offset": 0,
        "slot": "102",
        "type": "t_array(t_address)dyn_storage"
      },
      {
        "astId": 10419,
        "contract": "contracts/BabController.sol:BabControllerV3",
        "label": "uniswapFactory",
        "offset": 0,
        "slot": "103",
        "type": "t_address"
      },
      {
        "astId": 10422,
        "contract": "contracts/BabController.sol:BabControllerV3",
        "label": "gardenValuer",
        "offset": 0,
        "slot": "104",
        "type": "t_address"
      },
      {
        "astId": 10425,
        "contract": "contracts/BabController.sol:BabControllerV3",
        "label": "priceOracle",
        "offset": 0,
        "slot": "105",
        "type": "t_address"
      },
      {
        "astId": 10428,
        "contract": "contracts/BabController.sol:BabControllerV3",
        "label": "gardenFactory",
        "offset": 0,
        "slot": "106",
        "type": "t_address"
      },
      {
        "astId": 10431,
        "contract": "contracts/BabController.sol:BabControllerV3",
        "label": "rewardsDistributor",
        "offset": 0,
        "slot": "107",
        "type": "t_address"
      },
      {
        "astId": 10434,
        "contract": "contracts/BabController.sol:BabControllerV3",
        "label": "ishtarGate",
        "offset": 0,
        "slot": "108",
        "type": "t_address"
      },
      {
        "astId": 10437,
        "contract": "contracts/BabController.sol:BabControllerV3",
        "label": "strategyFactory",
        "offset": 0,
        "slot": "109",
        "type": "t_address"
      },
      {
        "astId": 10440,
        "contract": "contracts/BabController.sol:BabControllerV3",
        "label": "gardenNFT",
        "offset": 0,
        "slot": "110",
        "type": "t_address"
      },
      {
        "astId": 10443,
        "contract": "contracts/BabController.sol:BabControllerV3",
        "label": "strategyNFT",
        "offset": 0,
        "slot": "111",
        "type": "t_address"
      },
      {
        "astId": 10447,
        "contract": "contracts/BabController.sol:BabControllerV3",
        "label": "enabledIntegrations",
        "offset": 0,
        "slot": "112",
        "type": "t_mapping(t_bytes32,t_address)"
      },
      {
        "astId": 10450,
        "contract": "contracts/BabController.sol:BabControllerV3",
        "label": "defaultTradeIntegration",
        "offset": 0,
        "slot": "113",
        "type": "t_address"
      },
      {
        "astId": 10455,
        "contract": "contracts/BabController.sol:BabControllerV3",
        "label": "enabledOperations",
        "offset": 0,
        "slot": "114",
        "type": "t_array(t_address)20_storage"
      },
      {
        "astId": 10460,
        "contract": "contracts/BabController.sol:BabControllerV3",
        "label": "isGarden",
        "offset": 0,
        "slot": "134",
        "type": "t_mapping(t_address,t_bool)"
      },
      {
        "astId": 10464,
        "contract": "contracts/BabController.sol:BabControllerV3",
        "label": "validReserveAsset",
        "offset": 0,
        "slot": "135",
        "type": "t_mapping(t_address,t_bool)"
      },
      {
        "astId": 10468,
        "contract": "contracts/BabController.sol:BabControllerV3",
        "label": "assetWhitelist",
        "offset": 0,
        "slot": "136",
        "type": "t_mapping(t_address,t_bool)"
      },
      {
        "astId": 10472,
        "contract": "contracts/BabController.sol:BabControllerV3",
        "label": "keeperList",
        "offset": 0,
        "slot": "137",
        "type": "t_mapping(t_address,t_bool)"
      },
      {
        "astId": 10477,
        "contract": "contracts/BabController.sol:BabControllerV3",
        "label": "minLiquidityPerReserve",
        "offset": 0,
        "slot": "138",
        "type": "t_mapping(t_address,t_uint256)"
      },
      {
        "astId": 10480,
        "contract": "contracts/BabController.sol:BabControllerV3",
        "label": "treasury",
        "offset": 0,
        "slot": "139",
        "type": "t_address"
      },
      {
        "astId": 10488,
        "contract": "contracts/BabController.sol:BabControllerV3",
        "label": "strategistProfitPercentage",
        "offset": 0,
        "slot": "140",
        "type": "t_uint256"
      },
      {
        "astId": 10490,
        "contract": "contracts/BabController.sol:BabControllerV3",
        "label": "stewardsProfitPercentage",
        "offset": 0,
        "slot": "141",
        "type": "t_uint256"
      },
      {
        "astId": 10492,
        "contract": "contracts/BabController.sol:BabControllerV3",
        "label": "lpsProfitPercentage",
        "offset": 0,
        "slot": "142",
        "type": "t_uint256"
      },
      {
        "astId": 10494,
        "contract": "contracts/BabController.sol:BabControllerV3",
        "label": "strategistBABLPercentage",
        "offset": 0,
        "slot": "143",
        "type": "t_uint256"
      },
      {
        "astId": 10496,
        "contract": "contracts/BabController.sol:BabControllerV3",
        "label": "stewardsBABLPercentage",
        "offset": 0,
        "slot": "144",
        "type": "t_uint256"
      },
      {
        "astId": 10498,
        "contract": "contracts/BabController.sol:BabControllerV3",
        "label": "lpsBABLPercentage",
        "offset": 0,
        "slot": "145",
        "type": "t_uint256"
      },
      {
        "astId": 10500,
        "contract": "contracts/BabController.sol:BabControllerV3",
        "label": "gardenCreatorBonus",
        "offset": 0,
        "slot": "146",
        "type": "t_uint256"
      },
      {
        "astId": 10503,
        "contract": "contracts/BabController.sol:BabControllerV3",
        "label": "gardenTokensTransfersEnabled",
        "offset": 0,
        "slot": "147",
        "type": "t_bool"
      },
      {
        "astId": 10506,
        "contract": "contracts/BabController.sol:BabControllerV3",
        "label": "bablMiningProgramEnabled",
        "offset": 1,
        "slot": "147",
        "type": "t_bool"
      },
      {
        "astId": 10509,
        "contract": "contracts/BabController.sol:BabControllerV3",
        "label": "allowPublicGardens",
        "offset": 2,
        "slot": "147",
        "type": "t_bool"
      },
      {
        "astId": 10512,
        "contract": "contracts/BabController.sol:BabControllerV3",
        "label": "protocolPerformanceFee",
        "offset": 0,
        "slot": "148",
        "type": "t_uint256"
      },
      {
        "astId": 10515,
        "contract": "contracts/BabController.sol:BabControllerV3",
        "label": "protocolManagementFee",
        "offset": 0,
        "slot": "149",
        "type": "t_uint256"
      },
      {
        "astId": 10517,
        "contract": "contracts/BabController.sol:BabControllerV3",
        "label": "protocolDepositGardenTokenFee",
        "offset": 0,
        "slot": "150",
        "type": "t_uint256"
      },
      {
        "astId": 10519,
        "contract": "contracts/BabController.sol:BabControllerV3",
        "label": "protocolWithdrawalGardenTokenFee",
        "offset": 0,
        "slot": "151",
        "type": "t_uint256"
      },
      {
        "astId": 10522,
        "contract": "contracts/BabController.sol:BabControllerV3",
        "label": "maxContributorsPerGarden",
        "offset": 0,
        "slot": "152",
        "type": "t_uint256"
      },
      {
        "astId": 10525,
        "contract": "contracts/BabController.sol:BabControllerV3",
        "label": "gardenCreationIsOpen",
        "offset": 0,
        "slot": "153",
        "type": "t_bool"
      },
      {
        "astId": 10527,
        "contract": "contracts/BabController.sol:BabControllerV3",
        "label": "guardian",
        "offset": 1,
        "slot": "153",
        "type": "t_address"
      },
      {
        "astId": 10532,
        "contract": "contracts/BabController.sol:BabControllerV3",
        "label": "guardianPaused",
        "offset": 0,
        "slot": "154",
        "type": "t_mapping(t_address,t_bool)"
      },
      {
        "astId": 10535,
        "contract": "contracts/BabController.sol:BabControllerV3",
        "label": "guardianGlobalPaused",
        "offset": 0,
        "slot": "155",
        "type": "t_bool"
      }
    ],
    "types": {
      "t_address": {
        "encoding": "inplace",
        "label": "address",
        "numberOfBytes": "20"
      },
      "t_array(t_address)20_storage": {
        "base": "t_address",
        "encoding": "inplace",
        "label": "address[20]",
        "numberOfBytes": "640"
      },
      "t_array(t_address)dyn_storage": {
        "base": "t_address",
        "encoding": "dynamic_array",
        "label": "address[]",
        "numberOfBytes": "32"
      },
      "t_array(t_uint256)49_storage": {
        "base": "t_uint256",
        "encoding": "inplace",
        "label": "uint256[49]",
        "numberOfBytes": "1568"
      },
      "t_array(t_uint256)50_storage": {
        "base": "t_uint256",
        "encoding": "inplace",
        "label": "uint256[50]",
        "numberOfBytes": "1600"
      },
      "t_bool": {
        "encoding": "inplace",
        "label": "bool",
        "numberOfBytes": "1"
      },
      "t_bytes32": {
        "encoding": "inplace",
        "label": "bytes32",
        "numberOfBytes": "32"
      },
      "t_mapping(t_address,t_bool)": {
        "encoding": "mapping",
        "key": "t_address",
        "label": "mapping(address => bool)",
        "numberOfBytes": "32",
        "value": "t_bool"
      },
      "t_mapping(t_address,t_uint256)": {
        "encoding": "mapping",
        "key": "t_address",
        "label": "mapping(address => uint256)",
        "numberOfBytes": "32",
        "value": "t_uint256"
      },
      "t_mapping(t_bytes32,t_address)": {
        "encoding": "mapping",
        "key": "t_bytes32",
        "label": "mapping(bytes32 => address)",
        "numberOfBytes": "32",
        "value": "t_address"
      },
      "t_uint256": {
        "encoding": "inplace",
        "label": "uint256",
        "numberOfBytes": "32"
      }
    }
  }
}