{
  "address": "0xA77d4eA6b3E73e128b4B6d9Cf9cD647aEF6374c8",
  "abi": [
    {
      "anonymous": false,
      "inputs": [
        {
          "indexed": false,
          "internalType": "string",
          "name": "_action",
          "type": "string"
        },
        {
          "indexed": false,
          "internalType": "bool",
          "name": "_pauseState",
          "type": "bool"
        }
      ],
      "name": "ActionPaused",
      "type": "event"
    },
    {
      "anonymous": false,
      "inputs": [
        {
          "indexed": false,
          "internalType": "string",
          "name": "_action",
          "type": "string"
        },
        {
          "indexed": false,
          "internalType": "address",
          "name": "_address",
          "type": "address"
        },
        {
          "indexed": false,
          "internalType": "bool",
          "name": "_pauseState",
          "type": "bool"
        }
      ],
      "name": "ActionPausedIndividually",
      "type": "event"
    },
    {
      "anonymous": false,
      "inputs": [
        {
          "indexed": false,
          "internalType": "address",
          "name": "_integration",
          "type": "address"
        },
        {
          "indexed": true,
          "internalType": "string",
          "name": "_integrationName",
          "type": "string"
        }
      ],
      "name": "ControllerIntegrationAdded",
      "type": "event"
    },
    {
      "anonymous": false,
      "inputs": [
        {
          "indexed": false,
          "internalType": "address",
          "name": "_newIntegration",
          "type": "address"
        },
        {
          "indexed": true,
          "internalType": "string",
          "name": "_integrationName",
          "type": "string"
        }
      ],
      "name": "ControllerIntegrationEdited",
      "type": "event"
    },
    {
      "anonymous": false,
      "inputs": [
        {
          "indexed": false,
          "internalType": "address",
          "name": "_integration",
          "type": "address"
        },
        {
          "indexed": true,
          "internalType": "string",
          "name": "_integrationName",
          "type": "string"
        }
      ],
      "name": "ControllerIntegrationRemoved",
      "type": "event"
    },
    {
      "anonymous": false,
      "inputs": [
        {
          "indexed": true,
          "internalType": "uint8",
          "name": "_kind",
          "type": "uint8"
        },
        {
          "indexed": false,
          "internalType": "address",
          "name": "_address",
          "type": "address"
        }
      ],
      "name": "ControllerOperationSet",
      "type": "event"
    },
    {
      "anonymous": false,
      "inputs": [
        {
          "indexed": true,
          "internalType": "address",
          "name": "_garden",
          "type": "address"
        },
        {
          "indexed": true,
          "internalType": "address",
          "name": "_factory",
          "type": "address"
        }
      ],
      "name": "GardenAdded",
      "type": "event"
    },
    {
      "anonymous": false,
      "inputs": [
        {
          "indexed": true,
          "internalType": "address",
          "name": "_gardenFactory",
          "type": "address"
        },
        {
          "indexed": false,
          "internalType": "address",
          "name": "_oldGardenFactory",
          "type": "address"
        }
      ],
      "name": "GardenFactoryChanged",
      "type": "event"
    },
    {
      "anonymous": false,
      "inputs": [
        {
          "indexed": true,
          "internalType": "address",
          "name": "_newGardenNFT",
          "type": "address"
        },
        {
          "indexed": false,
          "internalType": "address",
          "name": "_oldStrategyNFT",
          "type": "address"
        }
      ],
      "name": "GardenNFTChanged",
      "type": "event"
    },
    {
      "anonymous": false,
      "inputs": [
        {
          "indexed": true,
          "internalType": "address",
          "name": "_garden",
          "type": "address"
        }
      ],
      "name": "GardenRemoved",
      "type": "event"
    },
    {
      "anonymous": false,
      "inputs": [
        {
          "indexed": true,
          "internalType": "address",
          "name": "_gardenValuer",
          "type": "address"
        },
        {
          "indexed": false,
          "internalType": "address",
          "name": "_oldGardenValuer",
          "type": "address"
        }
      ],
      "name": "GardenValuerChanged",
      "type": "event"
    },
    {
      "anonymous": false,
      "inputs": [
        {
          "indexed": false,
          "internalType": "address",
          "name": "_newIshtarGate",
          "type": "address"
        },
        {
          "indexed": false,
          "internalType": "address",
          "name": "_oldIshtarGate",
          "type": "address"
        }
      ],
      "name": "IshtarGateChanged",
      "type": "event"
    },
    {
      "anonymous": false,
      "inputs": [
        {
          "indexed": true,
          "internalType": "address",
          "name": "_resesrveAsset",
          "type": "address"
        },
        {
          "indexed": false,
          "internalType": "uint256",
          "name": "_newMinLiquidityReserve",
          "type": "uint256"
        }
      ],
      "name": "LiquidityMinimumEdited",
      "type": "event"
    },
    {
      "anonymous": false,
      "inputs": [
        {
          "indexed": false,
          "internalType": "address",
          "name": "_newMardukGate",
          "type": "address"
        },
        {
          "indexed": false,
          "internalType": "address",
          "name": "_oldMardukGate",
          "type": "address"
        }
      ],
      "name": "MardukGateChanged",
      "type": "event"
    },
    {
      "anonymous": false,
      "inputs": [
        {
          "indexed": true,
          "internalType": "address",
          "name": "_newTradeIntegration",
          "type": "address"
        },
        {
          "indexed": false,
          "internalType": "address",
          "name": "_oldTradeIntegration",
          "type": "address"
        }
      ],
      "name": "MasterSwapperChanged",
      "type": "event"
    },
    {
      "anonymous": false,
      "inputs": [
        {
          "indexed": false,
          "internalType": "address",
          "name": "_oldPauseGuardian",
          "type": "address"
        },
        {
          "indexed": false,
          "internalType": "address",
          "name": "_newPauseGuardian",
          "type": "address"
        }
      ],
      "name": "NewPauseGuardian",
      "type": "event"
    },
    {
      "anonymous": false,
      "inputs": [
        {
          "indexed": true,
          "internalType": "address",
          "name": "previousOwner",
          "type": "address"
        },
        {
          "indexed": true,
          "internalType": "address",
          "name": "newOwner",
          "type": "address"
        }
      ],
      "name": "OwnershipTransferred",
      "type": "event"
    },
    {
      "anonymous": false,
      "inputs": [
        {
          "indexed": true,
          "internalType": "address",
          "name": "_priceOracle",
          "type": "address"
        },
        {
          "indexed": false,
          "internalType": "address",
          "name": "_oldPriceOracle",
          "type": "address"
        }
      ],
      "name": "PriceOracleChanged",
      "type": "event"
    },
    {
      "anonymous": false,
      "inputs": [
        {
          "indexed": true,
          "internalType": "address",
          "name": "_reserveAsset",
          "type": "address"
        }
      ],
      "name": "ReserveAssetAdded",
      "type": "event"
    },
    {
      "anonymous": false,
      "inputs": [
        {
          "indexed": true,
          "internalType": "address",
          "name": "_reserveAsset",
          "type": "address"
        }
      ],
      "name": "ReserveAssetRemoved",
      "type": "event"
    },
    {
      "anonymous": false,
      "inputs": [
        {
          "indexed": true,
          "internalType": "address",
          "name": "_rewardsDistributor",
          "type": "address"
        },
        {
          "indexed": false,
          "internalType": "address",
          "name": "_oldRewardsDistributor",
          "type": "address"
        }
      ],
      "name": "RewardsDistributorChanged",
      "type": "event"
    },
    {
      "anonymous": false,
      "inputs": [
        {
          "indexed": true,
          "internalType": "address",
          "name": "_strategyFactory",
          "type": "address"
        },
        {
          "indexed": false,
          "internalType": "address",
          "name": "_oldStrategyFactory",
          "type": "address"
        }
      ],
      "name": "StrategyFactoryEdited",
      "type": "event"
    },
    {
      "anonymous": false,
      "inputs": [
        {
          "indexed": true,
          "internalType": "address",
          "name": "_newStrategyNFT",
          "type": "address"
        },
        {
          "indexed": false,
          "internalType": "address",
          "name": "_oldStrategyNFT",
          "type": "address"
        }
      ],
      "name": "StrategyNFTChanged",
      "type": "event"
    },
    {
      "anonymous": false,
      "inputs": [
        {
          "indexed": false,
          "internalType": "address",
          "name": "_newTreasury",
          "type": "address"
        },
        {
          "indexed": false,
          "internalType": "address",
          "name": "_oldTreasury",
          "type": "address"
        }
      ],
      "name": "TreasuryChanged",
      "type": "event"
    },
    {
      "anonymous": false,
      "inputs": [
        {
          "indexed": true,
          "internalType": "address",
          "name": "_newUniswapFactory",
          "type": "address"
        },
        {
          "indexed": false,
          "internalType": "address",
          "name": "_oldUniswapFactory",
          "type": "address"
        }
      ],
      "name": "UniswapFactoryChanged",
      "type": "event"
    },
    {
      "inputs": [],
      "name": "EMERGENCY_OWNER",
      "outputs": [
        {
          "internalType": "address",
          "name": "",
          "type": "address"
        }
      ],
      "stateMutability": "view",
      "type": "function"
    },
    {
      "inputs": [],
      "name": "MAX_OPERATIONS",
      "outputs": [
        {
          "internalType": "uint8",
          "name": "",
          "type": "uint8"
        }
      ],
      "stateMutability": "view",
      "type": "function"
    },
    {
      "inputs": [],
      "name": "WETH",
      "outputs": [
        {
          "internalType": "address",
          "name": "",
          "type": "address"
        }
      ],
      "stateMutability": "view",
      "type": "function"
    },
    {
      "inputs": [
        {
          "internalType": "address",
          "name": "_keeper",
          "type": "address"
        }
      ],
      "name": "addKeeper",
      "outputs": [],
      "stateMutability": "nonpayable",
      "type": "function"
    },
    {
      "inputs": [
        {
          "internalType": "address[]",
          "name": "_keepers",
          "type": "address[]"
        }
      ],
      "name": "addKeepers",
      "outputs": [],
      "stateMutability": "nonpayable",
      "type": "function"
    },
    {
      "inputs": [
        {
          "internalType": "address",
          "name": "_reserveAsset",
          "type": "address"
        }
      ],
      "name": "addReserveAsset",
      "outputs": [],
      "stateMutability": "nonpayable",
      "type": "function"
    },
    {
      "inputs": [],
      "name": "allowPublicGardens",
      "outputs": [
        {
          "internalType": "bool",
          "name": "",
          "type": "bool"
        }
      ],
      "stateMutability": "view",
      "type": "function"
    },
    {
      "inputs": [
        {
          "internalType": "address",
          "name": "",
          "type": "address"
        }
      ],
      "name": "assetWhitelist",
      "outputs": [
        {
          "internalType": "bool",
          "name": "",
          "type": "bool"
        }
      ],
      "stateMutability": "view",
      "type": "function"
    },
    {
      "inputs": [],
      "name": "bablMiningProgramEnabled",
      "outputs": [
        {
          "internalType": "bool",
          "name": "",
          "type": "bool"
        }
      ],
      "stateMutability": "view",
      "type": "function"
    },
    {
      "inputs": [
        {
          "internalType": "address",
          "name": "_reserveAsset",
          "type": "address"
        },
        {
          "internalType": "string",
          "name": "_name",
          "type": "string"
        },
        {
          "internalType": "string",
          "name": "_symbol",
          "type": "string"
        },
        {
          "internalType": "string",
          "name": "_tokenURI",
          "type": "string"
        },
        {
          "internalType": "uint256",
          "name": "_seed",
          "type": "uint256"
        },
        {
          "internalType": "uint256[]",
          "name": "_gardenParams",
          "type": "uint256[]"
        },
        {
          "internalType": "uint256",
          "name": "_initialContribution",
          "type": "uint256"
        },
        {
          "internalType": "bool[]",
          "name": "_publicGardenStrategistsStewards",
          "type": "bool[]"
        },
        {
          "internalType": "uint256[]",
          "name": "_profitSharing",
          "type": "uint256[]"
        }
      ],
      "name": "createGarden",
      "outputs": [
        {
          "internalType": "address",
          "name": "",
          "type": "address"
        }
      ],
      "stateMutability": "payable",
      "type": "function"
    },
    {
      "inputs": [
        {
          "internalType": "address",
          "name": "_newGardenFactory",
          "type": "address"
        }
      ],
      "name": "editGardenFactory",
      "outputs": [],
      "stateMutability": "nonpayable",
      "type": "function"
    },
    {
      "inputs": [
        {
          "internalType": "address",
          "name": "_newGardenNFT",
          "type": "address"
        }
      ],
      "name": "editGardenNFT",
      "outputs": [],
      "stateMutability": "nonpayable",
      "type": "function"
    },
    {
      "inputs": [
        {
          "internalType": "address",
          "name": "_gardenValuer",
          "type": "address"
        }
      ],
      "name": "editGardenValuer",
      "outputs": [],
      "stateMutability": "nonpayable",
      "type": "function"
    },
    {
      "inputs": [
        {
          "internalType": "address",
          "name": "_reserve",
          "type": "address"
        },
        {
          "internalType": "uint256",
          "name": "_newMinLiquidityReserve",
          "type": "uint256"
        }
      ],
      "name": "editLiquidityReserve",
      "outputs": [],
      "stateMutability": "nonpayable",
      "type": "function"
    },
    {
      "inputs": [
        {
          "internalType": "address",
          "name": "_mardukGate",
          "type": "address"
        }
      ],
      "name": "editMardukGate",
      "outputs": [],
      "stateMutability": "nonpayable",
      "type": "function"
    },
    {
      "inputs": [
        {
          "internalType": "address",
          "name": "_priceOracle",
          "type": "address"
        }
      ],
      "name": "editPriceOracle",
      "outputs": [],
      "stateMutability": "nonpayable",
      "type": "function"
    },
    {
      "inputs": [
        {
          "internalType": "address",
          "name": "_newRewardsDistributor",
          "type": "address"
        }
      ],
      "name": "editRewardsDistributor",
      "outputs": [],
      "stateMutability": "nonpayable",
      "type": "function"
    },
    {
      "inputs": [
        {
          "internalType": "address",
          "name": "_newStrategyFactory",
          "type": "address"
        }
      ],
      "name": "editStrategyFactory",
      "outputs": [],
      "stateMutability": "nonpayable",
      "type": "function"
    },
    {
      "inputs": [
        {
          "internalType": "address",
          "name": "_newStrategyNFT",
          "type": "address"
        }
      ],
      "name": "editStrategyNFT",
      "outputs": [],
      "stateMutability": "nonpayable",
      "type": "function"
    },
    {
      "inputs": [
        {
          "internalType": "address",
          "name": "_newTreasury",
          "type": "address"
        }
      ],
      "name": "editTreasury",
      "outputs": [],
      "stateMutability": "nonpayable",
      "type": "function"
    },
    {
      "inputs": [],
      "name": "enableGardenTokensTransfers",
      "outputs": [],
      "stateMutability": "nonpayable",
      "type": "function"
    },
    {
      "inputs": [
        {
          "internalType": "uint256",
          "name": "",
          "type": "uint256"
        }
      ],
      "name": "enabledOperations",
      "outputs": [
        {
          "internalType": "address",
          "name": "",
          "type": "address"
        }
      ],
      "stateMutability": "view",
      "type": "function"
    },
    {
      "inputs": [],
      "name": "gardenCreationIsOpen",
      "outputs": [
        {
          "internalType": "bool",
          "name": "",
          "type": "bool"
        }
      ],
      "stateMutability": "view",
      "type": "function"
    },
    {
      "inputs": [],
      "name": "gardenFactory",
      "outputs": [
        {
          "internalType": "address",
          "name": "",
          "type": "address"
        }
      ],
      "stateMutability": "view",
      "type": "function"
    },
    {
      "inputs": [],
      "name": "gardenNFT",
      "outputs": [
        {
          "internalType": "address",
          "name": "",
          "type": "address"
        }
      ],
      "stateMutability": "view",
      "type": "function"
    },
    {
      "inputs": [],
      "name": "gardenTokensTransfersEnabled",
      "outputs": [
        {
          "internalType": "bool",
          "name": "",
          "type": "bool"
        }
      ],
      "stateMutability": "view",
      "type": "function"
    },
    {
      "inputs": [],
      "name": "gardenValuer",
      "outputs": [
        {
          "internalType": "address",
          "name": "",
          "type": "address"
        }
      ],
      "stateMutability": "view",
      "type": "function"
    },
    {
      "inputs": [
        {
          "internalType": "uint256",
          "name": "",
          "type": "uint256"
        }
      ],
      "name": "gardens",
      "outputs": [
        {
          "internalType": "address",
          "name": "",
          "type": "address"
        }
      ],
      "stateMutability": "view",
      "type": "function"
    },
    {
      "inputs": [],
      "name": "getGardens",
      "outputs": [
        {
          "internalType": "address[]",
          "name": "",
          "type": "address[]"
        }
      ],
      "stateMutability": "view",
      "type": "function"
    },
    {
      "inputs": [
        {
          "internalType": "uint256",
          "name": "_size",
          "type": "uint256"
        }
      ],
      "name": "getLiveStrategies",
      "outputs": [
        {
          "internalType": "address[]",
          "name": "",
          "type": "address[]"
        }
      ],
      "stateMutability": "view",
      "type": "function"
    },
    {
      "inputs": [],
      "name": "getOperations",
      "outputs": [
        {
          "internalType": "address[20]",
          "name": "",
          "type": "address[20]"
        }
      ],
      "stateMutability": "view",
      "type": "function"
    },
    {
      "inputs": [],
      "name": "getReserveAssets",
      "outputs": [
        {
          "internalType": "address[]",
          "name": "",
          "type": "address[]"
        }
      ],
      "stateMutability": "view",
      "type": "function"
    },
    {
      "inputs": [],
      "name": "guardian",
      "outputs": [
        {
          "internalType": "address",
          "name": "",
          "type": "address"
        }
      ],
      "stateMutability": "view",
      "type": "function"
    },
    {
      "inputs": [],
      "name": "guardianGlobalPaused",
      "outputs": [
        {
          "internalType": "bool",
          "name": "",
          "type": "bool"
        }
      ],
      "stateMutability": "view",
      "type": "function"
    },
    {
      "inputs": [
        {
          "internalType": "address",
          "name": "",
          "type": "address"
        }
      ],
      "name": "guardianPaused",
      "outputs": [
        {
          "internalType": "bool",
          "name": "",
          "type": "bool"
        }
      ],
      "stateMutability": "view",
      "type": "function"
    },
    {
      "inputs": [],
      "name": "initialize",
      "outputs": [],
      "stateMutability": "nonpayable",
      "type": "function"
    },
    {
      "inputs": [
        {
          "internalType": "address[]",
          "name": "_strategies",
          "type": "address[]"
        }
      ],
      "name": "isBetaStrategy",
      "outputs": [
        {
          "internalType": "bool[]",
          "name": "",
          "type": "bool[]"
        },
        {
          "internalType": "uint256[]",
          "name": "",
          "type": "uint256[]"
        }
      ],
      "stateMutability": "view",
      "type": "function"
    },
    {
      "inputs": [
        {
          "internalType": "address",
          "name": "",
          "type": "address"
        }
      ],
      "name": "isGarden",
      "outputs": [
        {
          "internalType": "bool",
          "name": "",
          "type": "bool"
        }
      ],
      "stateMutability": "view",
      "type": "function"
    },
    {
      "inputs": [
        {
          "internalType": "address",
          "name": "_contract",
          "type": "address"
        }
      ],
      "name": "isPaused",
      "outputs": [
        {
          "internalType": "bool",
          "name": "",
          "type": "bool"
        }
      ],
      "stateMutability": "view",
      "type": "function"
    },
    {
      "inputs": [
        {
          "internalType": "address",
          "name": "_contractAddress",
          "type": "address"
        }
      ],
      "name": "isSystemContract",
      "outputs": [
        {
          "internalType": "bool",
          "name": "",
          "type": "bool"
        }
      ],
      "stateMutability": "view",
      "type": "function"
    },
    {
      "inputs": [
        {
          "internalType": "address",
          "name": "_keeper",
          "type": "address"
        }
      ],
      "name": "isValidKeeper",
      "outputs": [
        {
          "internalType": "bool",
          "name": "",
          "type": "bool"
        }
      ],
      "stateMutability": "view",
      "type": "function"
    },
    {
      "inputs": [
        {
          "internalType": "address",
          "name": "_reserveAsset",
          "type": "address"
        }
      ],
      "name": "isValidReserveAsset",
      "outputs": [
        {
          "internalType": "bool",
          "name": "",
          "type": "bool"
        }
      ],
      "stateMutability": "view",
      "type": "function"
    },
    {
      "inputs": [],
      "name": "ishtarGate",
      "outputs": [
        {
          "internalType": "address",
          "name": "",
          "type": "address"
        }
      ],
      "stateMutability": "view",
      "type": "function"
    },
    {
      "inputs": [
        {
          "internalType": "address",
          "name": "",
          "type": "address"
        }
      ],
      "name": "keeperList",
      "outputs": [
        {
          "internalType": "bool",
          "name": "",
          "type": "bool"
        }
      ],
      "stateMutability": "view",
      "type": "function"
    },
    {
      "inputs": [],
      "name": "mardukGate",
      "outputs": [
        {
          "internalType": "address",
          "name": "",
          "type": "address"
        }
      ],
      "stateMutability": "view",
      "type": "function"
    },
    {
      "inputs": [],
      "name": "masterSwapper",
      "outputs": [
        {
          "internalType": "address",
          "name": "",
          "type": "address"
        }
      ],
      "stateMutability": "view",
      "type": "function"
    },
    {
      "inputs": [
        {
          "internalType": "address",
          "name": "",
          "type": "address"
        }
      ],
      "name": "minLiquidityPerReserve",
      "outputs": [
        {
          "internalType": "uint256",
          "name": "",
          "type": "uint256"
        }
      ],
      "stateMutability": "view",
      "type": "function"
    },
    {
      "inputs": [],
      "name": "owner",
      "outputs": [
        {
          "internalType": "address",
          "name": "",
          "type": "address"
        }
      ],
      "stateMutability": "view",
      "type": "function"
    },
    {
      "inputs": [],
      "name": "priceOracle",
      "outputs": [
        {
          "internalType": "address",
          "name": "",
          "type": "address"
        }
      ],
      "stateMutability": "view",
      "type": "function"
    },
    {
      "inputs": [],
      "name": "protocolManagementFee",
      "outputs": [
        {
          "internalType": "uint256",
          "name": "",
          "type": "uint256"
        }
      ],
      "stateMutability": "view",
      "type": "function"
    },
    {
      "inputs": [],
      "name": "protocolPerformanceFee",
      "outputs": [
        {
          "internalType": "uint256",
          "name": "",
          "type": "uint256"
        }
      ],
      "stateMutability": "view",
      "type": "function"
    },
    {
      "inputs": [
        {
          "internalType": "address",
          "name": "_garden",
          "type": "address"
        }
      ],
      "name": "removeGarden",
      "outputs": [],
      "stateMutability": "nonpayable",
      "type": "function"
    },
    {
      "inputs": [
        {
          "internalType": "address",
          "name": "_keeper",
          "type": "address"
        }
      ],
      "name": "removeKeeper",
      "outputs": [],
      "stateMutability": "nonpayable",
      "type": "function"
    },
    {
      "inputs": [
        {
          "internalType": "address",
          "name": "_reserveAsset",
          "type": "address"
        }
      ],
      "name": "removeReserveAsset",
      "outputs": [],
      "stateMutability": "nonpayable",
      "type": "function"
    },
    {
      "inputs": [],
      "name": "renounceOwnership",
      "outputs": [],
      "stateMutability": "nonpayable",
      "type": "function"
    },
    {
      "inputs": [
        {
          "internalType": "uint256",
          "name": "",
          "type": "uint256"
        }
      ],
      "name": "reserveAssets",
      "outputs": [
        {
          "internalType": "address",
          "name": "",
          "type": "address"
        }
      ],
      "stateMutability": "view",
      "type": "function"
    },
    {
      "inputs": [],
      "name": "rewardsDistributor",
      "outputs": [
        {
          "internalType": "address",
          "name": "",
          "type": "address"
        }
      ],
      "stateMutability": "view",
      "type": "function"
    },
    {
      "inputs": [
        {
          "internalType": "bool",
          "name": "_state",
          "type": "bool"
        }
      ],
      "name": "setGlobalPause",
      "outputs": [
        {
          "internalType": "bool",
          "name": "",
          "type": "bool"
        }
      ],
      "stateMutability": "nonpayable",
      "type": "function"
    },
    {
      "inputs": [
        {
          "internalType": "address",
          "name": "_newDefaultMasterSwapper",
          "type": "address"
        }
      ],
      "name": "setMasterSwapper",
      "outputs": [],
      "stateMutability": "nonpayable",
      "type": "function"
    },
    {
      "inputs": [
        {
          "internalType": "uint8",
          "name": "_kind",
          "type": "uint8"
        },
        {
          "internalType": "address",
          "name": "_operation",
          "type": "address"
        }
      ],
      "name": "setOperation",
      "outputs": [],
      "stateMutability": "nonpayable",
      "type": "function"
    },
    {
      "inputs": [
        {
          "internalType": "address",
          "name": "_guardian",
          "type": "address"
        }
      ],
      "name": "setPauseGuardian",
      "outputs": [],
      "stateMutability": "nonpayable",
      "type": "function"
    },
    {
      "inputs": [
        {
          "internalType": "address[]",
          "name": "_address",
          "type": "address[]"
        },
        {
          "internalType": "bool",
          "name": "_state",
          "type": "bool"
        }
      ],
      "name": "setSomePause",
      "outputs": [
        {
          "internalType": "bool",
          "name": "",
          "type": "bool"
        }
      ],
      "stateMutability": "nonpayable",
      "type": "function"
    },
    {
      "inputs": [],
      "name": "strategyFactory",
      "outputs": [
        {
          "internalType": "address",
          "name": "",
          "type": "address"
        }
      ],
      "stateMutability": "view",
      "type": "function"
    },
    {
      "inputs": [],
      "name": "strategyNFT",
      "outputs": [
        {
          "internalType": "address",
          "name": "",
          "type": "address"
        }
      ],
      "stateMutability": "view",
      "type": "function"
    },
    {
      "inputs": [
        {
          "internalType": "address",
          "name": "newOwner",
          "type": "address"
        }
      ],
      "name": "transferOwnership",
      "outputs": [],
      "stateMutability": "nonpayable",
      "type": "function"
    },
    {
      "inputs": [],
      "name": "treasury",
      "outputs": [
        {
          "internalType": "address",
          "name": "",
          "type": "address"
        }
      ],
      "stateMutability": "view",
      "type": "function"
    },
    {
      "inputs": [
        {
          "internalType": "address",
          "name": "",
          "type": "address"
        }
      ],
      "name": "validReserveAsset",
      "outputs": [
        {
          "internalType": "bool",
          "name": "",
          "type": "bool"
        }
      ],
      "stateMutability": "view",
      "type": "function"
    }
  ],
  "transactionHash": "0xc6310817bc9df6ec3fb9aeff8ce52342c8da0a51d86740dc3305950f8571e0f4",
  "args": [],
  "solcInputHash": "32462f87dc3015c4eb8a86a01c781a25",
  "bytecode": "0x608060405234801561001057600080fd5b5061571a80620000216000396000f3fe6080604052600436106104145760003560e01c80636968551311610228578063bc09228311610128578063dfaef58f116100bb578063f04ec5471161008a578063f2fde38b1161006f578063f2fde38b14611329578063f948e50a1461135c578063f979cdd9146113aa57610414565b8063f04ec547146112c3578063f05017eb146112f657610414565b8063dfaef58f14611233578063e6e6051314611266578063e973f4e91461127b578063ead4c1cf146112ae57610414565b8063c8ed947f116100f7578063c8ed947f146111b8578063d276cbdc146111cd578063d6a45aa514611209578063daec2a1a1461121e57610414565b8063bc09228314611128578063bc819ea61461115b578063c2d38e7914611170578063c80aad63146111a357610414565b806389790429116101bb5780639ef357101161018a578063ad9d791d1161016f578063ad9d791d1461108f578063b0ecdf80146110c2578063b82efd4f146110f557610414565b80639ef3571014611065578063ad5c46481461107a57610414565b80638979042914610fd85780638d97e043146110115780638da5cb5b146110265780639e18eb391461103b57610414565b80638129fc1c116101f75780638129fc1c14610f2a57806385d5d03614610f3f578063867b6efa14610f7257806388e8dc7514610fa557610414565b80636968551314610ea157806369a6b3db14610ed4578063715018a614610f005780637f80e05b14610f1557610414565b806337973e5f1161033357806348bde20c116102c65780635b14f183116102955780635e192de61161027a5780635e192de614610e4457806361d027b314610e7757806362a4bf0514610e8c57610414565b80635b14f18314610de65780635dc2803a14610e1957610414565b806348bde20c14610a405780635616147214610a735780635618b5b214610d9e578063568c081314610dd157610414565b8063411137c311610302578063411137c31461087c5780634365a8a8146108af578063447a1366146109f8578063452a932014610a2b57610414565b806337973e5f146107f5578063393bfe491461081f5780633f2a5540146108345780634032b72b1461084957610414565b806327e4acc7116103ab578063314a83c91161037a578063314a83c914610683578063364d11811461073357806336c148b714610766578063374c64e21461077b57610414565b806327e4acc71461061d578063294d237c1461063257806330944c6214610647578063313754771461065c57610414565b806316d9c070116103e757806316d9c0701461057857806318b9e252146105ab57806320104198146105de5780632630c12f1461060857610414565b80630306f6d2146104195780630ebdb9a2146104df57806313bc6d4b1461051057806314ae9f2e14610543575b600080fd5b34801561042557600080fd5b506104cb6004803603604081101561043c57600080fd5b81019060208101813564010000000081111561045757600080fd5b82018360208201111561046957600080fd5b8035906020019184602083028401116401000000008311171561048b57600080fd5b91908080602002602001604051908101604052809392919081815260200183836020028082843760009201919091525092955050505035151590506113dd565b604080519115158252519081900360200190f35b3480156104eb57600080fd5b506104f46115d0565b604080516001600160a01b039092168252519081900360200190f35b34801561051c57600080fd5b506104cb6004803603602081101561053357600080fd5b50356001600160a01b03166115e4565b34801561054f57600080fd5b506105766004803603602081101561056657600080fd5b50356001600160a01b03166119ed565b005b34801561058457600080fd5b506105766004803603602081101561059b57600080fd5b50356001600160a01b0316611add565b3480156105b757600080fd5b50610576600480360360208110156105ce57600080fd5b50356001600160a01b0316611c77565b3480156105ea57600080fd5b506104f46004803603602081101561060157600080fd5b5035611f68565b34801561061457600080fd5b506104f4611f88565b34801561062957600080fd5b506104cb611f97565b34801561063e57600080fd5b506104f4611fa0565b34801561065357600080fd5b506104cb611faf565b34801561066857600080fd5b50610671611fbd565b60408051918252519081900360200190f35b34801561068f57600080fd5b50610576600480360360208110156106a657600080fd5b8101906020810181356401000000008111156106c157600080fd5b8201836020820111156106d357600080fd5b803590602001918460208302840111640100000000831117156106f557600080fd5b919080806020026020016040519081016040528093929190818152602001838360200280828437600092019190915250929550611fc3945050505050565b34801561073f57600080fd5b506104cb6004803603602081101561075657600080fd5b50356001600160a01b0316612081565b34801561077257600080fd5b50610576612096565b34801561078757600080fd5b506107a56004803603602081101561079e57600080fd5b503561215f565b60408051602080825283518183015283519192839290830191858101910280838360005b838110156107e15781810151838201526020016107c9565b505050509050019250505060405180910390f35b34801561080157600080fd5b506104f46004803603602081101561081857600080fd5b50356123fd565b34801561082b57600080fd5b506104cb612427565b34801561084057600080fd5b506104f4612430565b34801561085557600080fd5b506105766004803603602081101561086c57600080fd5b50356001600160a01b031661243f565b34801561088857600080fd5b506104cb6004803603602081101561089f57600080fd5b50356001600160a01b03166124c5565b3480156108bb57600080fd5b5061095f600480360360208110156108d257600080fd5b8101906020810181356401000000008111156108ed57600080fd5b8201836020820111156108ff57600080fd5b8035906020019184602083028401116401000000008311171561092157600080fd5b9190808060200260200160405190810160405280939291908181526020018383602002808284376000920191909152509295506124e3945050505050565b604051808060200180602001838103835285818151815260200191508051906020019060200280838360005b838110156109a357818101518382015260200161098b565b50505050905001838103825284818151815260200191508051906020019060200280838360005b838110156109e25781810151838201526020016109ca565b5050505090500194505050505060405180910390f35b348015610a0457600080fd5b506104cb60048036036020811015610a1b57600080fd5b50356001600160a01b0316612a53565b348015610a3757600080fd5b506104f4612a68565b348015610a4c57600080fd5b5061057660048036036020811015610a6357600080fd5b50356001600160a01b0316612a7c565b6104f46004803603610120811015610a8a57600080fd5b6001600160a01b038235169190810190604081016020820135640100000000811115610ab557600080fd5b820183602082011115610ac757600080fd5b80359060200191846001830284011164010000000083111715610ae957600080fd5b91908080601f0160208091040260200160405190810160405280939291908181526020018383808284376000920191909152509295949360208101935035915050640100000000811115610b3c57600080fd5b820183602082011115610b4e57600080fd5b80359060200191846001830284011164010000000083111715610b7057600080fd5b91908080601f0160208091040260200160405190810160405280939291908181526020018383808284376000920191909152509295949360208101935035915050640100000000811115610bc357600080fd5b820183602082011115610bd557600080fd5b80359060200191846001830284011164010000000083111715610bf757600080fd5b91908080601f01602080910402602001604051908101604052809392919081815260200183838082843760009201919091525092958435959094909350604081019250602001359050640100000000811115610c5257600080fd5b820183602082011115610c6457600080fd5b80359060200191846020830284011164010000000083111715610c8657600080fd5b91939092823592604081019060200135640100000000811115610ca857600080fd5b820183602082011115610cba57600080fd5b80359060200191846020830284011164010000000083111715610cdc57600080fd5b9190808060200260200160405190810160405280939291908181526020018383602002808284376000920191909152509295949360208101935035915050640100000000811115610d2c57600080fd5b820183602082011115610d3e57600080fd5b80359060200191846020830284011164010000000083111715610d6057600080fd5b919080806020026020016040519081016040528093929190818152602001838360200280828437600092019190915250929550612be7945050505050565b348015610daa57600080fd5b5061057660048036036020811015610dc157600080fd5b50356001600160a01b031661329b565b348015610ddd57600080fd5b50610671613431565b348015610df257600080fd5b506104cb60048036036020811015610e0957600080fd5b50356001600160a01b0316613437565b348015610e2557600080fd5b50610e2e613465565b6040805160ff9092168252519081900360200190f35b348015610e5057600080fd5b506104cb60048036036020811015610e6757600080fd5b50356001600160a01b031661346a565b348015610e8357600080fd5b506104f461347f565b348015610e9857600080fd5b506104cb61348e565b348015610ead57600080fd5b5061057660048036036020811015610ec457600080fd5b50356001600160a01b0316613497565b348015610ee057600080fd5b506104cb60048036036020811015610ef757600080fd5b503515156135ca565b348015610f0c57600080fd5b50610576613734565b348015610f2157600080fd5b506104cb6137e0565b348015610f3657600080fd5b506105766137ef565b348015610f4b57600080fd5b5061057660048036036020811015610f6257600080fd5b50356001600160a01b0316613844565b348015610f7e57600080fd5b5061057660048036036020811015610f9557600080fd5b50356001600160a01b0316613956565b348015610fb157600080fd5b5061057660048036036020811015610fc857600080fd5b50356001600160a01b0316613a6b565b348015610fe457600080fd5b5061057660048036036040811015610ffb57600080fd5b506001600160a01b038135169060200135613c03565b34801561101d57600080fd5b506104f4613d7b565b34801561103257600080fd5b506104f4613d93565b34801561104757600080fd5b506104f46004803603602081101561105e57600080fd5b5035613da2565b34801561107157600080fd5b506104f4613db2565b34801561108657600080fd5b506104f4613dc1565b34801561109b57600080fd5b506104cb600480360360208110156110b257600080fd5b50356001600160a01b0316613dd9565b3480156110ce57600080fd5b506104cb600480360360208110156110e557600080fd5b50356001600160a01b0316613dee565b34801561110157600080fd5b506105766004803603602081101561111857600080fd5b50356001600160a01b0316613e03565b34801561113457600080fd5b506105766004803603602081101561114b57600080fd5b50356001600160a01b0316613f35565b34801561116757600080fd5b506107a56140d3565b34801561117c57600080fd5b506105766004803603602081101561119357600080fd5b50356001600160a01b0316614135565b3480156111af57600080fd5b506104f46142d3565b3480156111c457600080fd5b506104f46142e2565b3480156111d957600080fd5b50610576600480360360408110156111f057600080fd5b50803560ff1690602001356001600160a01b03166142f1565b34801561121557600080fd5b506104f461450b565b34801561122a57600080fd5b506107a561451a565b34801561123f57600080fd5b506105766004803603602081101561125657600080fd5b50356001600160a01b031661457a565b34801561127257600080fd5b506104f46146ad565b34801561128757600080fd5b506105766004803603602081101561129e57600080fd5b50356001600160a01b03166146bc565b3480156112ba57600080fd5b506104f46147ef565b3480156112cf57600080fd5b50610576600480360360208110156112e657600080fd5b50356001600160a01b03166147fe565b34801561130257600080fd5b506106716004803603602081101561131957600080fd5b50356001600160a01b031661495a565b34801561133557600080fd5b506105766004803603602081101561134c57600080fd5b50356001600160a01b031661496c565b34801561136857600080fd5b50611371614a6f565b604051808261028080838360005b8381101561139757818101518382015260200161137f565b5050505090500191505060405180910390f35b3480156113b657600080fd5b506104cb600480360360208110156113cd57600080fd5b50356001600160a01b0316614aaf565b60995460009061010090046001600160a01b03163314806114165750611401613d93565b6001600160a01b0316336001600160a01b0316145b6114515760405162461bcd60e51b81526004018080602001828103825260348152602001806155a56034913960400191505060405180910390fd5b611459613d93565b6001600160a01b0316336001600160a01b0316148061147a57506001821515145b6114cb576040805162461bcd60e51b815260206004820152601660248201527f6f6e6c792061646d696e2063616e20756e706175736500000000000000000000604482015290519081900360640190fd5b60005b83518110156115c55782609a60008684815181106114e857fe5b60200260200101516001600160a01b03166001600160a01b0316815260200190815260200160002060006101000a81548160ff0219169083151502179055507f14fc4a89e124f9817afd6bc9b8270d50250d5ff6f0711b687f6fa4c34decf1cd84828151811061155457fe5b6020026020010151846040518080602001846001600160a01b031681526020018315158152602001828103825260198152602001807f477561726469616e20696e646976696475616c20706175736500000000000000815250602001935050505060405180910390a16001016114ce565b508190505b92915050565b609b5461010090046001600160a01b031681565b6001600160a01b03811660009081526086602052604081205460ff168061161857506068546001600160a01b038381169116145b8061163057506069546001600160a01b038381169116145b806116485750606a546001600160a01b038381169116145b8061166057506071546001600160a01b038381169116145b806116785750606d546001600160a01b038381169116145b806116905750606b546001600160a01b038381169116145b806116b35750816001600160a01b03166116a8613d93565b6001600160a01b0316145b806116c657506001600160a01b03821630145b806116d557506116d582614acd565b8061185d575060866000836001600160a01b03166356ba88b86040518163ffffffff1660e01b815260040160206040518083038186803b15801561171857600080fd5b505afa15801561172c573d6000803e3d6000fd5b505050506040513d602081101561174257600080fd5b50516001600160a01b0316815260208101919091526040016000205460ff16801561185d5750816001600160a01b03166356ba88b86040518163ffffffff1660e01b815260040160206040518083038186803b1580156117a157600080fd5b505afa1580156117b5573d6000803e3d6000fd5b505050506040513d60208110156117cb57600080fd5b5051604080517f3a8219250000000000000000000000000000000000000000000000000000000081526001600160a01b03858116600483015291519190921691633a821925916024808301926020929190829003018186803b15801561183057600080fd5b505afa158015611844573d6000803e3d6000fd5b505050506040513d602081101561185a57600080fd5b50515b806119e5575060866000836001600160a01b03166356ba88b86040518163ffffffff1660e01b815260040160206040518083038186803b1580156118a057600080fd5b505afa1580156118b4573d6000803e3d6000fd5b505050506040513d60208110156118ca57600080fd5b50516001600160a01b0316815260208101919091526040016000205460ff1680156119e55750816001600160a01b03166356ba88b86040518163ffffffff1660e01b815260040160206040518083038186803b15801561192957600080fd5b505afa15801561193d573d6000803e3d6000fd5b505050506040513d602081101561195357600080fd5b5051604080517f06061dfa0000000000000000000000000000000000000000000000000000000081526001600160a01b038581166004830152915191909216916306061dfa916024808301926020929190829003018186803b1580156119b857600080fd5b505afa1580156119cc573d6000803e3d6000fd5b505050506040513d60208110156119e257600080fd5b50515b90505b919050565b6119f5614b1d565b6001600160a01b0316611a06613d93565b6001600160a01b031614611a4f576040805162461bcd60e51b81526020600482018190526024820152600080516020615607833981519152604482015290519081900360640190fd5b6001600160a01b03811660009081526089602052604090205460ff16611abc576040805162461bcd60e51b815260206004820152601560248201527f4b65657065722069732077686974656c69737465640000000000000000000000604482015290519081900360640190fd5b6001600160a01b03166000908152608960205260409020805460ff19169055565b611ae5614b1d565b6001600160a01b0316611af6613d93565b6001600160a01b031614611b3f576040805162461bcd60e51b81526020600482018190526024820152600080516020615607833981519152604482015290519081900360640190fd5b609b546001600160a01b03828116610100909204161415611ba7576040805162461bcd60e51b815260206004820152601a60248201527f4d617264756b204761746520616c726561647920657869737473000000000000604482015290519081900360640190fd5b6001600160a01b038116611c02576040805162461bcd60e51b815260206004820152601d60248201527f4d617264756b2047617465206f7261636c65206d757374206578697374000000604482015290519081900360640190fd5b609b80546001600160a01b0383811661010081810274ffffffffffffffffffffffffffffffffffffffff001985161790945560408051918252939092041660208201819052825190927f345fc59169aa2ad8a518c40e50702bc683495ac687515df9441cabc39eef54ff928290030190a15050565b611c7f614b1d565b6001600160a01b0316611c90613d93565b6001600160a01b031614611cd9576040805162461bcd60e51b81526020600482018190526024820152600080516020615607833981519152604482015290519081900360640190fd5b6001600160a01b03811660009081526086602052604090205460ff16611d46576040805162461bcd60e51b815260206004820152601560248201527f47617264656e20646f6573206e6f742065786973740000000000000000000000604482015290519081900360640190fd5b806001600160a01b031663b49a60bb6040518163ffffffff1660e01b815260040160006040518083038186803b158015611d7f57600080fd5b505afa158015611d93573d6000803e3d6000fd5b505050506040513d6000823e601f3d908101601f191682016040526020811015611dbc57600080fd5b8101908080516040519392919084640100000000821115611ddc57600080fd5b908301906020820185811115611df157600080fd5b8251866020820283011164010000000082111715611e0e57600080fd5b82525081516020918201928201910280838360005b83811015611e3b578181015183820152602001611e23565b5050505090500160405250505051600014611e9d576040805162461bcd60e51b815260206004820152601d60248201527f47617264656e2068617320616374697665207374726174656769657321000000604482015290519081900360640190fd5b611f0a816065805480602002602001604051908101604052809291908181526020018280548015611ef757602002820191906000526020600020905b81546001600160a01b03168152600190910190602001808311611ed9575b5050505050614b2190919063ffffffff16565b8051611f1e9160659160209091019061548f565b506001600160a01b038116600081815260866020526040808220805460ff19169055517fb52dedfe431c6250e847edee5dca0a14cfaad5c6626218f99bd60c8ad9939a9f9190a250565b60728160148110611f7857600080fd5b01546001600160a01b0316905081565b6069546001600160a01b031681565b60995460ff1681565b6068546001600160a01b031681565b609354610100900460ff1681565b60955481565b611fcb614b1d565b6001600160a01b0316611fdc613d93565b6001600160a01b031614612025576040805162461bcd60e51b81526020600482018190526024820152600080516020615607833981519152604482015290519081900360640190fd5b60005b815181101561207d5760016089600084848151811061204357fe5b6020908102919091018101516001600160a01b03168252810191909152604001600020805460ff1916911515919091179055600101612028565b5050565b60866020526000908152604090205460ff1681565b61209e614b1d565b6001600160a01b03166120af613d93565b6001600160a01b0316146120f8576040805162461bcd60e51b81526020600482018190526024820152600080516020615607833981519152604482015290519081900360640190fd5b6361d00a004211612150576040805162461bcd60e51b815260206004820152601f60248201527f5472616e73666572732063616e6e6f7420626520656e61626c65642079657400604482015290519081900360640190fd5b6093805460ff19166001179055565b60606000808367ffffffffffffffff8111801561217b57600080fd5b506040519080825280602002602001820160405280156121a5578160200160208202803683370190505b50905060005b6065548110156123f5576000606582815481106121c457fe5b6000918252602082200154604080517fb49a60bb00000000000000000000000000000000000000000000000000000000815290516001600160a01b039092169263b49a60bb92600480840193829003018186803b15801561222457600080fd5b505afa158015612238573d6000803e3d6000fd5b505050506040513d6000823e601f3d908101601f19168201604052602081101561226157600080fd5b810190808051604051939291908464010000000082111561228157600080fd5b90830190602082018581111561229657600080fd5b82518660208202830111640100000000821117156122b357600080fd5b82525081516020918201928201910280838360005b838110156122e05781810151838201526020016122c8565b5050505090500160405250505090508051600014156122ff57506123ed565b60005b81518110156123dc5781818151811061231757fe5b60200260200101516001600160a01b031663e4df5e1a6040518163ffffffff1660e01b815260040160206040518083038186803b15801561235757600080fd5b505afa15801561236b573d6000803e3d6000fd5b505050506040513d602081101561238157600080fd5b5051156123c75781818151811061239457fe5b60200260200101518486815181106123a857fe5b6001600160a01b03909216602092830291909101909101526001909401935b868514156123d4576123dc565b600101612302565b50858414156123eb57506123f5565b505b6001016121ab565b509392505050565b6066818154811061240d57600080fd5b6000918252602090912001546001600160a01b0316905081565b60935460ff1681565b606b546001600160a01b031681565b612447614b1d565b6001600160a01b0316612458613d93565b6001600160a01b0316146124a1576040805162461bcd60e51b81526020600482018190526024820152600080516020615607833981519152604482015290519081900360640190fd5b6001600160a01b03166000908152608960205260409020805460ff19166001179055565b6001600160a01b031660009081526089602052604090205460ff1690565b6060806000835167ffffffffffffffff8111801561250057600080fd5b5060405190808252806020026020018201604052801561252a578160200160208202803683370190505b5090506000845167ffffffffffffffff8111801561254757600080fd5b50604051908082528060200260200182016040528015612571578160200160208202803683370190505b5090506000606b60009054906101000a90046001600160a01b03166001600160a01b031663ddaa26ad6040518163ffffffff1660e01b815260040160206040518083038186803b1580156125c457600080fd5b505afa1580156125d8573d6000803e3d6000fd5b505050506040513d60208110156125ee57600080fd5b5051905060005b8651811015612a465760006001600160a01b031687828151811061261557fe5b60200260200101516001600160a01b03161415612679576040805162461bcd60e51b815260206004820152601360248201527f6e6f7420612076616c6964206164647265737300000000000000000000000000604482015290519081900360640190fd5b600087828151811061268757fe5b60200260200101516001600160a01b03166356ba88b86040518163ffffffff1660e01b815260040160206040518083038186803b1580156126c757600080fd5b505afa1580156126db573d6000803e3d6000fd5b505050506040513d60208110156126f157600080fd5b50516001600160a01b03811660009081526086602052604090205490915060ff1680156127a65750806001600160a01b03166306061dfa89848151811061273457fe5b60200260200101516040518263ffffffff1660e01b815260040180826001600160a01b0316815260200191505060206040518083038186803b15801561277957600080fd5b505afa15801561278d573d6000803e3d6000fd5b505050506040513d60208110156127a357600080fd5b50515b6127f7576040805162461bcd60e51b815260206004820152601760248201527f6e6f7420612070726f746f636f6c207374726174656779000000000000000000604482015290519081900360640190fd5b60408051600280825260608201835260009260208301908036833701905050905088838151811061282457fe5b60200260200101516001600160a01b031663bf1dcfe26040518163ffffffff1660e01b815260040160e06040518083038186803b15801561286457600080fd5b505afa158015612878573d6000803e3d6000fd5b505050506040513d60e081101561288e57600080fd5b50608081015160c090910151825183906000906128a757fe5b60200260200101836001815181106128bb57fe5b602002602001018281525082815250505083816000815181106128da57fe5b6020026020010151108015612902575083816001815181106128f857fe5b6020026020010151105b8015612982575088838151811061291557fe5b60200260200101516001600160a01b031663e4df5e1a6040518163ffffffff1660e01b815260040160206040518083038186803b15801561295557600080fd5b505afa158015612969573d6000803e3d6000fd5b505050506040513d602081101561297f57600080fd5b50515b801561298d57508315155b85848151811061299957fe5b6020026020010190151590811515815250508883815181106129b757fe5b60200260200101516001600160a01b03166303cddb2c6040518163ffffffff1660e01b815260040160206040518083038186803b1580156129f757600080fd5b505afa158015612a0b573d6000803e3d6000fd5b505050506040513d6020811015612a2157600080fd5b50518651879085908110612a3157fe5b602090810291909101015250506001016125f5565b5090935090915050915091565b609a6020526000908152604090205460ff1681565b60995461010090046001600160a01b031681565b60995461010090046001600160a01b0316331480612ab25750612a9d613d93565b6001600160a01b0316336001600160a01b0316145b612aed5760405162461bcd60e51b81526004018080602001828103825260378152602001806156276037913960400191505060405180910390fd5b612af5613d93565b6001600160a01b0316336001600160a01b03161480612b1c57506001600160a01b03811615155b612b6d576040805162461bcd60e51b815260206004820152601e60248201527f477561726469616e2063616e6e6f742072656d6f76652068696d73656c660000604482015290519081900360640190fd5b609980546001600160a01b0383811661010081810274ffffffffffffffffffffffffffffffffffffffff00198516179094556040805194909304919091168084526020840191909152815190927f0613b6ee6a04f0d09f390e4d9318894b9f6ac7fd83897cd8d18896ba579c401e92908290030190a15050565b6071546000906001600160a01b0316612c47576040805162461bcd60e51b815260206004820181905260248201527f4e65656420612064656661756c7420747261646520696e746567726174696f6e604482015290519081900360640190fd5b609b54604080517f7804a5dc00000000000000000000000000000000000000000000000000000000815233600482015290516101009092046001600160a01b031691637804a5dc91602480820192602092909190829003018186803b158015612caf57600080fd5b505afa158015612cc3573d6000803e3d6000fd5b505050506040513d6020811015612cd957600080fd5b505180612ce8575060995460ff165b612d235760405162461bcd60e51b81526004018080602001828103825260278152602001806156886027913960400191505060405180910390fd5b6000606a60009054906101000a90046001600160a01b03166001600160a01b0316638853932d8d338e8e8e8e8e8e8e8e6040518b63ffffffff1660e01b8152600401808b6001600160a01b031681526020018a6001600160a01b03168152602001806020018060200180602001898152602001806020018781526020018060200186810386528e818151815260200191508051906020019080838360005b83811015612dd9578181015183820152602001612dc1565b50505050905090810190601f168015612e065780820380516001836020036101000a031916815260200191505b5086810385528d5181528d516020918201918f019080838360005b83811015612e39578181015183820152602001612e21565b50505050905090810190601f168015612e665780820380516001836020036101000a031916815260200191505b5086810384528c5181528c516020918201918e019080838360005b83811015612e99578181015183820152602001612e81565b50505050905090810190601f168015612ec65780820380516001836020036101000a031916815260200191505b5086810383528a8a828181526020019250602002808284376000838201819052601f909101601f19169092018881038452895181528951602091820193828c0193509102908190849084905b83811015612f2a578181015183820152602001612f12565b505050509050019f50505050505050505050505050505050602060405180830381600087803b158015612f5c57600080fd5b505af1158015612f70573d6000803e3d6000fd5b505050506040513d6020811015612f8657600080fd5b505190506001600160a01b038c1673c02aaa39b223fe8d0a0e5c4f27ead9083c756cc2141580612fb4575034155b15612fe257612fce6001600160a01b038d16333088614b9e565b612fe26001600160a01b038d168287614c2c565b6001600160a01b03811660009081526086602052604090205460ff1615613050576040805162461bcd60e51b815260206004820152601560248201527f47617264656e20616c7265616479206578697374730000000000000000000000604482015290519081900360640190fd5b6001600160a01b038116600081815260866020526040808220805460ff191660019081179091556065805480830182559084527f8ff97419363ffd7000167f130ef7168fbea05faf9251824ca5043f113cc6a7c70180546001600160a01b0319168517905581517f695f3f5d000000000000000000000000000000000000000000000000000000008152600481018a9052602481018a90523360448201526064810191909152905163695f3f5d9234926084808201939182900301818588803b15801561311c57600080fd5b505af1158015613130573d6000803e3d6000fd5b50505050508260008151811061314257fe5b6020026020010151600014158061316e57508260018151811061316157fe5b6020026020010151600014155b8061318e57508260028151811061318157fe5b6020026020010151600014155b1561325657606b5483516001600160a01b03909116906380334dbe90839086906000906131b757fe5b6020026020010151866001815181106131cc57fe5b6020026020010151876002815181106131e157fe5b60200260200101516040518563ffffffff1660e01b815260040180856001600160a01b03168152602001848152602001838152602001828152602001945050505050600060405180830381600087803b15801561323d57600080fd5b505af1158015613251573d6000803e3d6000fd5b505050505b60405133906001600160a01b038316907f3f9c315348eaae54d760380967a68b458af53312321328f584799f93283dc1de90600090a39b9a5050505050505050505050565b6132a3613d93565b6001600160a01b0316336001600160a01b031614806132d5575033730b892ebc6a4bf484cddb7253c6bd5261490163b9145b61331e576040805162461bcd60e51b81526020600482015260156024820152744e6f7420656e6f7567682070726976696c6567657360581b604482015290519081900360640190fd5b6001600160a01b038116613371576040805162461bcd60e51b8152602060048201526015602482015274041646472657373206d757374206e6f74206265203605c1b604482015290519081900360640190fd5b6071546001600160a01b03828116911614156133d4576040805162461bcd60e51b815260206004820152601960248201527f41646472657373206d75737420626520646966666572656e7400000000000000604482015290519081900360640190fd5b607180546001600160a01b038381166001600160a01b031983168117909355604080519190921680825291519192917fdc1fc9970870c3bb1ad5fce4186165c260c6492487c580adc8b8e361055ac9889181900360200190a25050565b60945481565b609b5460009060ff16806119e55750506001600160a01b03166000908152609a602052604090205460ff1690565b601481565b60896020526000908152604090205460ff1681565b608b546001600160a01b031681565b609b5460ff1681565b61349f613d93565b6001600160a01b0316336001600160a01b031614806134d1575033730b892ebc6a4bf484cddb7253c6bd5261490163b9145b61351a576040805162461bcd60e51b81526020600482015260156024820152744e6f7420656e6f7567682070726976696c6567657360581b604482015290519081900360640190fd5b6001600160a01b03811661356d576040805162461bcd60e51b8152602060048201526015602482015274041646472657373206d757374206e6f74206265203605c1b604482015290519081900360640190fd5b606d80546001600160a01b038381166001600160a01b031983168117909355604080519190921680825291519192917f57c1ea229271e944c7d975557caf535c1c974708de760613121827217db4ce8f9181900360200190a25050565b60995460009061010090046001600160a01b031633148061360357506135ee613d93565b6001600160a01b0316336001600160a01b0316145b61363e5760405162461bcd60e51b815260040180806020018281038252603081526020018061554f6030913960400191505060405180910390fd5b613646613d93565b6001600160a01b0316336001600160a01b0316148061366757506001821515145b6136b8576040805162461bcd60e51b815260206004820152601660248201527f6f6e6c792061646d696e2063616e20756e706175736500000000000000000000604482015290519081900360640190fd5b609b805483151560ff1990911681179091556040805160208101929092528082526015828201527f477561726469616e20676c6f62616c20706175736500000000000000000000006060830152517fef159d9a32b2472e32b098f954f3ce62d232939f1c207070b584df1814de2de09181900360800190a15090565b61373c614b1d565b6001600160a01b031661374d613d93565b6001600160a01b031614613796576040805162461bcd60e51b81526020600482018190526024820152600080516020615607833981519152604482015290519081900360640190fd5b6033546040516000916001600160a01b0316907f8be0079c531659141344cd1fd0a4f28419497f9722a3daafe3b4186f6b6457e0908390a3603380546001600160a01b0319169055565b60935462010000900460ff1681565b6137f7614d8b565b6611c37937e0800060955566b1a2bc2ec500006094556000609681905560975560646098556099805460ff191690556093805461ff001962ff000019909116620100001716610100179055565b61384c614b1d565b6001600160a01b031661385d613d93565b6001600160a01b0316146138a6576040805162461bcd60e51b81526020600482018190526024820152600080516020615607833981519152604482015290519081900360640190fd5b6001600160a01b0381166138f9576040805162461bcd60e51b8152602060048201526015602482015274041646472657373206d757374206e6f74206265203605c1b604482015290519081900360640190fd5b606b80546001600160a01b038381166001600160a01b031983168117909355604080519190921680825291519192917f52cd8e0a7f86e9df123b3357ab2ee1c4cd0f5ac84ca8c98d93beb2679b2bb8069181900360200190a25050565b61395e614b1d565b6001600160a01b031661396f613d93565b6001600160a01b0316146139b8576040805162461bcd60e51b81526020600482018190526024820152600080516020615607833981519152604482015290519081900360640190fd5b6001600160a01b038116613a0b576040805162461bcd60e51b8152602060048201526015602482015274041646472657373206d757374206e6f74206265203605c1b604482015290519081900360640190fd5b608b80546001600160a01b038381166001600160a01b03198316811790935560408051938452911660208301819052815190927f8c3aa5f43a388513435861bf27dfad7829cd248696fed367c62d441f6295449692908290030190a15050565b613a73614b1d565b6001600160a01b0316613a84613d93565b6001600160a01b031614613acd576040805162461bcd60e51b81526020600482018190526024820152600080516020615607833981519152604482015290519081900360640190fd5b6001600160a01b03811660009081526087602052604090205460ff16613b3a576040805162461bcd60e51b815260206004820152601c60248201527f5265736572766520617373657420646f6573206e6f7420657869737400000000604482015290519081900360640190fd5b613ba5816066805480602002602001604051908101604052809291908181526020018280548015611ef7576020028201919060005260206000209081546001600160a01b03168152600190910190602001808311611ed9575050505050614b2190919063ffffffff16565b8051613bb99160669160209091019061548f565b506001600160a01b038116600081815260876020526040808220805460ff19169055517f2a4ae73bc76175e864e83c9843f11cf15a1bfcfa73152fb96d133416efee48ed9190a250565b613c0b614b1d565b6001600160a01b0316613c1c613d93565b6001600160a01b031614613c65576040805162461bcd60e51b81526020600482018190526024820152600080516020615607833981519152604482015290519081900360640190fd5b60008111613cba576040805162461bcd60e51b815260206004820152601d60248201527f5f6d696e5269736b79506169724c6971756964697479457468203e2030000000604482015290519081900360640190fd5b6001600160a01b03821660009081526087602052604090205460ff16613d27576040805162461bcd60e51b815260206004820152601b60248201527f4e6565647320746f20626520612076616c696420726573657276650000000000604482015290519081900360640190fd5b6001600160a01b0382166000818152608a6020908152604091829020849055815184815291517fb78c51bc9bffa228585b84c38a0234fe0a48eb7aeb9f7a6a7a46f0ddd3270dd59281900390910190a25050565b730b892ebc6a4bf484cddb7253c6bd5261490163b981565b6000613d9d614e3d565b905090565b6065818154811061240d57600080fd5b606d546001600160a01b031681565b73c02aaa39b223fe8d0a0e5c4f27ead9083c756cc281565b60886020526000908152604090205460ff1681565b60876020526000908152604090205460ff1681565b613e0b613d93565b6001600160a01b0316336001600160a01b03161480613e3d575033730b892ebc6a4bf484cddb7253c6bd5261490163b9145b613e86576040805162461bcd60e51b81526020600482015260156024820152744e6f7420656e6f7567682070726976696c6567657360581b604482015290519081900360640190fd5b6001600160a01b038116613ed9576040805162461bcd60e51b8152602060048201526015602482015274041646472657373206d757374206e6f74206265203605c1b604482015290519081900360640190fd5b606f80546001600160a01b038381166001600160a01b031983168117909355604080519190921680825291519192917e40167ea3901ef812c672b081813db3c0fc117c302ace151f1f9a907906e1669181900360200190a25050565b613f3d613d93565b6001600160a01b0316336001600160a01b03161480613f6f575033730b892ebc6a4bf484cddb7253c6bd5261490163b9145b613fb8576040805162461bcd60e51b81526020600482015260156024820152744e6f7420656e6f7567682070726976696c6567657360581b604482015290519081900360640190fd5b6068546001600160a01b038281169116141561401b576040805162461bcd60e51b815260206004820152601c60248201527f47617264656e2056616c75657220616c72656164792065786973747300000000604482015290519081900360640190fd5b6001600160a01b038116614076576040805162461bcd60e51b815260206004820152601860248201527f47617264656e2056616c756572206d7573742065786973740000000000000000604482015290519081900360640190fd5b606880546001600160a01b038381166001600160a01b031983168117909355604080519190921680825291519192917fb89b871cab0fe1b2d8c7cc3e16640ef9a9bf67f031e44947331820e025bf69479181900360200190a25050565b6060606680548060200260200160405190810160405280929190818152602001828054801561412b57602002820191906000526020600020905b81546001600160a01b0316815260019091019060200180831161410d575b5050505050905090565b61413d613d93565b6001600160a01b0316336001600160a01b0316148061416f575033730b892ebc6a4bf484cddb7253c6bd5261490163b9145b6141b8576040805162461bcd60e51b81526020600482015260156024820152744e6f7420656e6f7567682070726976696c6567657360581b604482015290519081900360640190fd5b6069546001600160a01b038281169116141561421b576040805162461bcd60e51b815260206004820152601b60248201527f5072696365206f7261636c6520616c7265616479206578697374730000000000604482015290519081900360640190fd5b6001600160a01b038116614276576040805162461bcd60e51b815260206004820152601760248201527f5072696365206f7261636c65206d757374206578697374000000000000000000604482015290519081900360640190fd5b606980546001600160a01b038381166001600160a01b031983168117909355604080519190921680825291519192917f40bddd72ea96b80dae14e3d13e8ce2c4ecd2500d88c6c0004d24a00deab28f9c9181900360200190a25050565b606a546001600160a01b031681565b606c546001600160a01b031681565b6142f9613d93565b6001600160a01b0316336001600160a01b0316148061432b575033730b892ebc6a4bf484cddb7253c6bd5261490163b9145b614374576040805162461bcd60e51b81526020600482015260156024820152744e6f7420656e6f7567682070726976696c6567657360581b604482015290519081900360640190fd5b601460ff8316106143cc576040805162461bcd60e51b815260206004820152601660248201527f4d6178206f7065726174696f6e73207265616368656400000000000000000000604482015290519081900360640190fd5b806001600160a01b031660728360ff16601481106143e657fe5b01546001600160a01b03161415614444576040805162461bcd60e51b815260206004820152601560248201527f4f7065726174696f6e20616c7265616479207365740000000000000000000000604482015290519081900360640190fd5b6001600160a01b03811661449f576040805162461bcd60e51b815260206004820152601d60248201527f4f7065726174696f6e2061646472657373206d7573742065786973742e000000604482015290519081900360640190fd5b8060728360ff16601481106144b057fe5b0180546001600160a01b039283166001600160a01b03199091161790556040805191831682525160ff8416917f2dc23b4bb2132388a8a9f2d4a7ec650d42dcd4c1c63e6495756fa25e8ecc6abd919081900360200190a25050565b606f546001600160a01b031681565b6060606580548060200260200160405190810160405280929190818152602001828054801561412b576020028201919060005260206000209081546001600160a01b0316815260019091019060200180831161410d575050505050905090565b614582613d93565b6001600160a01b0316336001600160a01b031614806145b4575033730b892ebc6a4bf484cddb7253c6bd5261490163b9145b6145fd576040805162461bcd60e51b81526020600482015260156024820152744e6f7420656e6f7567682070726976696c6567657360581b604482015290519081900360640190fd5b6001600160a01b038116614650576040805162461bcd60e51b8152602060048201526015602482015274041646472657373206d757374206e6f74206265203605c1b604482015290519081900360640190fd5b606e80546001600160a01b038381166001600160a01b031983168117909355604080519190921680825291519192917f578086cc379999d712cf9ea4c177a02b092c028a84cf82d2dd590f2606b3169f9181900360200190a25050565b6071546001600160a01b031681565b6146c4613d93565b6001600160a01b0316336001600160a01b031614806146f6575033730b892ebc6a4bf484cddb7253c6bd5261490163b9145b61473f576040805162461bcd60e51b81526020600482015260156024820152744e6f7420656e6f7567682070726976696c6567657360581b604482015290519081900360640190fd5b6001600160a01b038116614792576040805162461bcd60e51b8152602060048201526015602482015274041646472657373206d757374206e6f74206265203605c1b604482015290519081900360640190fd5b606a80546001600160a01b038381166001600160a01b031983168117909355604080519190921680825291519192917f1e3307b8b00f4ec731298a869e9665a2662abd65a0e3fe9dd01fd53c35b0ae939181900360200190a25050565b606e546001600160a01b031681565b614806614b1d565b6001600160a01b0316614817613d93565b6001600160a01b031614614860576040805162461bcd60e51b81526020600482018190526024820152600080516020615607833981519152604482015290519081900360640190fd5b6001600160a01b03811660009081526087602052604090205460ff16156148ce576040805162461bcd60e51b815260206004820152601b60248201527f5265736572766520617373657420616c72656164792061646465640000000000604482015290519081900360640190fd5b6001600160a01b038116600081815260876020526040808220805460ff1916600190811790915560668054918201815583527f46501879b8ca8525e8c2fd519e2fbfcfa2ebea26501294aa02cbfcfb12e943540180546001600160a01b03191684179055517f9fef46e320a4767c320315d2f597ee79c1e17c3c3330d026764d6a7dac8fcd5c9190a250565b608a6020526000908152604090205481565b614974614b1d565b6001600160a01b0316614985613d93565b6001600160a01b0316146149ce576040805162461bcd60e51b81526020600482018190526024820152600080516020615607833981519152604482015290519081900360640190fd5b6001600160a01b038116614a135760405162461bcd60e51b81526004018080602001828103825260268152602001806155296026913960400191505060405180910390fd5b6033546040516001600160a01b038084169216907f8be0079c531659141344cd1fd0a4f28419497f9722a3daafe3b4186f6b6457e090600090a3603380546001600160a01b0319166001600160a01b0392909216919091179055565b614a776154f4565b60408051610280810191829052607280546001600160a01b03168252909160149060736020850180831161410d575050505050905090565b6001600160a01b031660009081526087602052604090205460ff1690565b6000805b601460ff82161015614b145760728160ff1660148110614aed57fe5b01546001600160a01b0384811691161415614b0c5760019150506119e8565b600101614ad1565b50600092915050565b3390565b6060600080614b308585614e4c565b9150915080614b86576040805162461bcd60e51b815260206004820152601560248201527f41646472657373206e6f7420696e2061727261792e0000000000000000000000604482015290519081900360640190fd5b6000614b928684614eb2565b5093506115ca92505050565b604080516001600160a01b0380861660248301528416604482015260648082018490528251808303909101815260849091019091526020810180517bffffffffffffffffffffffffffffffffffffffffffffffffffffffff167f23b872dd00000000000000000000000000000000000000000000000000000000179052614c26908590615016565b50505050565b801580614ccb5750604080517fdd62ed3e0000000000000000000000000000000000000000000000000000000081523060048201526001600160a01b03848116602483015291519185169163dd62ed3e91604480820192602092909190829003018186803b158015614c9d57600080fd5b505afa158015614cb1573d6000803e3d6000fd5b505050506040513d6020811015614cc757600080fd5b5051155b614d065760405162461bcd60e51b81526004018080602001828103825260368152602001806156af6036913960400191505060405180910390fd5b604080516001600160a01b038416602482015260448082018490528251808303909101815260649091019091526020810180517bffffffffffffffffffffffffffffffffffffffffffffffffffffffff167f095ea7b300000000000000000000000000000000000000000000000000000000179052614d86908490615016565b505050565b600054610100900460ff1680614da45750614da46150c7565b80614db2575060005460ff16155b614ded5760405162461bcd60e51b815260040180806020018281038252602e8152602001806155d9602e913960400191505060405180910390fd5b600054610100900460ff16158015614e18576000805460ff1961ff0019909116610100171660011790555b614e206150d8565b614e28615178565b8015614e3a576000805461ff00191690555b50565b6033546001600160a01b031690565b81516000908190815b81811015614e9f57846001600160a01b0316868281518110614e7357fe5b60200260200101516001600160a01b03161415614e9757925060019150614eab9050565b600101614e55565b50600019600092509250505b9250929050565b8151606090600090808410614f0e576040805162461bcd60e51b815260206004820152601860248201527f496e646578206d757374206265203c2041206c656e6774680000000000000000604482015290519081900360640190fd5b60006001820367ffffffffffffffff81118015614f2a57600080fd5b50604051908082528060200260200182016040528015614f54578160200160208202803683370190505b50905060005b85811015614fa257868181518110614f6e57fe5b6020026020010151828281518110614f8257fe5b6001600160a01b0390921660209283029190910190910152600101614f5a565b50600185015b82811015614ff357868181518110614fbc57fe5b6020026020010151826001830381518110614fd357fe5b6001600160a01b0390921660209283029190910190910152600101614fa8565b508086868151811061500157fe5b60200260200101519350935050509250929050565b600061506b826040518060400160405280602081526020017f5361666545524332303a206c6f772d6c6576656c2063616c6c206661696c6564815250856001600160a01b03166152719092919063ffffffff16565b805190915015614d865780806020019051602081101561508a57600080fd5b5051614d865760405162461bcd60e51b815260040180806020018281038252602a81526020018061565e602a913960400191505060405180910390fd5b60006150d23061528a565b15905090565b600054610100900460ff16806150f157506150f16150c7565b806150ff575060005460ff16155b61513a5760405162461bcd60e51b815260040180806020018281038252602e8152602001806155d9602e913960400191505060405180910390fd5b600054610100900460ff16158015614e28576000805460ff1961ff0019909116610100171660011790558015614e3a576000805461ff001916905550565b600054610100900460ff168061519157506151916150c7565b8061519f575060005460ff16155b6151da5760405162461bcd60e51b815260040180806020018281038252602e8152602001806155d9602e913960400191505060405180910390fd5b600054610100900460ff16158015615205576000805460ff1961ff0019909116610100171660011790555b600061520f614b1d565b603380546001600160a01b0319166001600160a01b038316908117909155604051919250906000907f8be0079c531659141344cd1fd0a4f28419497f9722a3daafe3b4186f6b6457e0908290a3508015614e3a576000805461ff001916905550565b60606152808484600085615290565b90505b9392505050565b3b151590565b6060824710156152d15760405162461bcd60e51b815260040180806020018281038252602681526020018061557f6026913960400191505060405180910390fd5b6152da8561528a565b61532b576040805162461bcd60e51b815260206004820152601d60248201527f416464726573733a2063616c6c20746f206e6f6e2d636f6e7472616374000000604482015290519081900360640190fd5b600080866001600160a01b031685876040518082805190602001908083835b602083106153695780518252601f19909201916020918201910161534a565b6001836020036101000a03801982511681845116808217855250505050505090500191505060006040518083038185875af1925050503d80600081146153cb576040519150601f19603f3d011682016040523d82523d6000602084013e6153d0565b606091505b50915091506153e08282866153eb565b979650505050505050565b606083156153fa575081615283565b82511561540a5782518084602001fd5b8160405162461bcd60e51b81526004018080602001828103825283818151815260200191508051906020019080838360005b8381101561545457818101518382015260200161543c565b50505050905090810190601f1680156154815780820380516001836020036101000a031916815260200191505b509250505060405180910390fd5b8280548282559060005260206000209081019282156154e4579160200282015b828111156154e457825182546001600160a01b0319166001600160a01b039091161782556020909201916001909101906154af565b506154f0929150615513565b5090565b6040518061028001604052806014906020820280368337509192915050565b5b808211156154f0576000815560010161551456fe4f776e61626c653a206e6577206f776e657220697320746865207a65726f20616464726573736f6e6c7920706175736520677561726469616e20616e64206f776e65722063616e20706175736520676c6f62616c6c79416464726573733a20696e73756666696369656e742062616c616e636520666f722063616c6c6f6e6c7920706175736520677561726469616e20616e64206f776e65722063616e20706175736520696e646976696475616c6c79496e697469616c697a61626c653a20636f6e747261637420697320616c726561647920696e697469616c697a65644f776e61626c653a2063616c6c6572206973206e6f7420746865206f776e65726f6e6c7920706175736520677561726469616e20616e64206f776e65722063616e2075706461746520706175736520677561726469616e5361666545524332303a204552433230206f7065726174696f6e20646964206e6f7420737563636565645573657220646f6573206e6f742068617665206372656174696f6e207065726d697373696f6e735361666545524332303a20617070726f76652066726f6d206e6f6e2d7a65726f20746f206e6f6e2d7a65726f20616c6c6f77616e6365a2646970667358221220d9db30f8e44440b487a24efe6582cab142c48a21febd30879757af557683136b64736f6c63430007060033",
  "devdoc": {
    "kind": "dev",
    "methods": {
      "addKeeper(address)": {
        "params": {
          "_keeper": "Address of the keeper"
        }
      },
      "addKeepers(address[])": {
        "params": {
          "_keepers": "List with keeprs of the assets to whitelist"
        }
      },
      "addReserveAsset(address)": {
        "params": {
          "_reserveAsset": "Address of the reserve assset"
        }
      },
      "createGarden(address,string,string,string,uint256,uint256[],uint256,bool[],uint256[])": {
        "params": {
          "_gardenParams": "Array of numeric garden params",
          "_initialContribution": "Initial contribution by the gardener",
          "_name": "Name of the Garden",
          "_profitSharing": "Custom profit sharing (if any)",
          "_publicGardenStrategistsStewards": "Public garden, public strategist rights and public stewards rights",
          "_reserveAsset": "Reserve asset of the Garden. Initially just weth",
          "_seed": "Seed to regenerate the garden NFT",
          "_symbol": "Symbol of the Garden",
          "_tokenURI": "Garden NFT token URI"
        }
      },
      "editGardenFactory(address)": {
        "params": {
          "_newGardenFactory": "Address of the new garden factory"
        }
      },
      "editGardenNFT(address)": {
        "params": {
          "_newGardenNFT": "Address of the new garden NFT"
        }
      },
      "editGardenValuer(address)": {
        "params": {
          "_gardenValuer": "Address of the new garden valuer"
        }
      },
      "editLiquidityReserve(address,uint256)": {
        "params": {
          "_newMinLiquidityReserve": "Absolute min liquidity of an asset to grab price",
          "_reserve": "Address of the reserve to edit"
        }
      },
      "editMardukGate(address)": {
        "params": {
          "_mardukGate": "Address of the new Marduk Gate"
        }
      },
      "editPriceOracle(address)": {
        "params": {
          "_priceOracle": "Address of the new price oracle"
        }
      },
      "editStrategyFactory(address)": {
        "params": {
          "_newStrategyFactory": "Address of the new strategy factory"
        }
      },
      "editStrategyNFT(address)": {
        "params": {
          "_newStrategyNFT": "Address of the new strategy NFT"
        }
      },
      "editTreasury(address)": {
        "params": {
          "_newTreasury": "Address of the new protocol fee recipient"
        }
      },
      "isBetaStrategy(address[])": {
        "params": {
          "_strategies": "Smartcontract address to check for a global or specific pause"
        }
      },
      "isPaused(address)": {
        "params": {
          "_contract": "Smartcontract address to check for a global or specific pause"
        }
      },
      "isSystemContract(address)": {
        "params": {
          "_contractAddress": "The contract address to check"
        }
      },
      "removeGarden(address)": {
        "params": {
          "_garden": "Address of the Garden contract to remove"
        }
      },
      "removeKeeper(address)": {
        "params": {
          "_keeper": "Address of the keeper"
        }
      },
      "removeReserveAsset(address)": {
        "params": {
          "_reserveAsset": "Address of the reserve asset to remove"
        }
      },
      "renounceOwnership()": {
        "details": "Leaves the contract without owner. It will not be possible to call `onlyOwner` functions anymore. Can only be called by the current owner. NOTE: Renouncing ownership will leave the contract without an owner, thereby removing any functionality that is only available to the owner."
      },
      "setGlobalPause(bool)": {
        "params": {
          "_state": "True to pause, false to unpause."
        }
      },
      "setMasterSwapper(address)": {
        "params": {
          "_newDefaultMasterSwapper": "Address of the new default trade integration"
        }
      },
      "setOperation(uint8,address)": {
        "params": {
          "_kind": "Operation kind",
          "_operation": "Address of the operation contract to set"
        }
      },
      "setPauseGuardian(address)": {
        "params": {
          "_guardian": "Address of the guardian"
        }
      },
      "setSomePause(address[],bool)": {
        "params": {
          "_address": "Addresses of protocol smartcontract to be paused",
          "_state": "Boolean pause state"
        }
      },
      "transferOwnership(address)": {
        "details": "Transfers ownership of the contract to a new account (`newOwner`). Can only be called by the current owner."
      }
    },
    "version": 1
  },
  "userdoc": {
    "events": {
      "ActionPaused(string,bool)": {
        "notice": "Emitted when an action is paused globally"
      },
      "ActionPausedIndividually(string,address,bool)": {
        "notice": "Emitted when an action is paused individually"
      },
      "NewPauseGuardian(address,address)": {
        "notice": "Emitted when pause guardian is changed"
      }
    },
    "kind": "user",
    "methods": {
      "addKeeper(address)": {
        "notice": "PRIVILEGED FACTORY FUNCTION. Adds a new valid keeper to the list"
      },
      "addKeepers(address[])": {
        "notice": "PRIVILEGED FACTORY FUNCTION. Adds a list of assets to the whitelist"
      },
      "addReserveAsset(address)": {
        "notice": "PRIVILEGED FACTORY FUNCTION. Adds a new valid reserve asset for gardens"
      },
      "createGarden(address,string,string,string,uint256,uint256[],uint256,bool[],uint256[])": {
        "notice": "Creates a Garden smart contract and registers the Garden with the controller. If asset is not WETH, the creator needs to approve the controller"
      },
      "editGardenFactory(address)": {
        "notice": "PRIVILEGED GOVERNANCE FUNCTION. Allows governance to edit the protocol garden factory"
      },
      "editGardenNFT(address)": {
        "notice": "PRIVILEGED GOVERNANCE FUNCTION. Allows governance to edit the protocol garden NFT"
      },
      "editGardenValuer(address)": {
        "notice": "PRIVILEGED GOVERNANCE FUNCTION. Allows governance to change the garden valuer"
      },
      "editLiquidityReserve(address,uint256)": {
        "notice": "GOVERNANCE FUNCTION: Edits the minimum liquidity an asset must have on Uniswap"
      },
      "editMardukGate(address)": {
        "notice": "PRIVILEGED GOVERNANCE FUNCTION. Allows governance to change the Marduk Gate Address"
      },
      "editPriceOracle(address)": {
        "notice": "PRIVILEGED GOVERNANCE FUNCTION. Allows governance to change the price oracle"
      },
      "editStrategyFactory(address)": {
        "notice": "PRIVILEGED GOVERNANCE FUNCTION. Allows governance to edit the protocol strategy factory"
      },
      "editStrategyNFT(address)": {
        "notice": "PRIVILEGED GOVERNANCE FUNCTION. Allows governance to edit the protocol strategy NFT"
      },
      "editTreasury(address)": {
        "notice": "PRIVILEGED GOVERNANCE FUNCTION. Allows governance to edit the protocol fee recipient"
      },
      "enableGardenTokensTransfers()": {
        "notice": "PRIVILEGED GOVERNANCE FUNCTION. Allows transfers of ERC20 gardenTokens Can only happen after 2021 is finished."
      },
      "initialize()": {
        "notice": "Initializes the initial fee recipient on deployment."
      },
      "isBetaStrategy(address[])": {
        "notice": "Check whether or not the strategies are beta protocol strategies deserving rewards"
      },
      "isPaused(address)": {
        "notice": "Check whether or not there is a global pause or a specific pause of the provided contract address"
      },
      "isSystemContract(address)": {
        "notice": "Check if a contract address is a garden or one of the system contracts"
      },
      "removeGarden(address)": {
        "notice": "PRIVILEGED GOVERNANCE FUNCTION. Allows governance to remove a Garden"
      },
      "removeKeeper(address)": {
        "notice": "PRIVILEGED FACTORY FUNCTION. Removes a keeper"
      },
      "removeReserveAsset(address)": {
        "notice": "PRIVILEGED GOVERNANCE FUNCTION. Allows governance to remove a reserve asset"
      },
      "setGlobalPause(bool)": {
        "notice": "PRIVILEGED GOVERNANCE FUNCTION. Pause the protocol globally in case of unexpected issue Only the governance can unpause it"
      },
      "setMasterSwapper(address)": {
        "notice": "PRIVILEGED GOVERNANCE FUNCTION. Allows governance to edit the protocol default trde integration"
      },
      "setOperation(uint8,address)": {
        "notice": "GOVERNANCE FUNCTION: Edit an existing operation on the registry"
      },
      "setPauseGuardian(address)": {
        "notice": "PRIVILEGED GOVERNANCE FUNCTION. Set-up a pause guardian"
      },
      "setSomePause(address[],bool)": {
        "notice": "PRIVILEGED GOVERNANCE FUNCTION. Pause some smartcontracts in a batch process in case of unexpected issue Only the governance can unpause it"
      }
    },
    "version": 1
  },
  "storageLayout": {
    "storage": [
      {
        "astId": 492,
        "contract": "contracts/BabController.sol:BabControllerV9",
        "label": "_initialized",
        "offset": 0,
        "slot": "0",
        "type": "t_bool"
      },
      {
        "astId": 495,
        "contract": "contracts/BabController.sol:BabControllerV9",
        "label": "_initializing",
        "offset": 1,
        "slot": "0",
        "type": "t_bool"
      },
      {
        "astId": 1447,
        "contract": "contracts/BabController.sol:BabControllerV9",
        "label": "__gap",
        "offset": 0,
        "slot": "1",
        "type": "t_array(t_uint256)50_storage"
      },
      {
        "astId": 10,
        "contract": "contracts/BabController.sol:BabControllerV9",
        "label": "_owner",
        "offset": 0,
        "slot": "51",
        "type": "t_address"
      },
      {
        "astId": 129,
        "contract": "contracts/BabController.sol:BabControllerV9",
        "label": "__gap",
        "offset": 0,
        "slot": "52",
        "type": "t_array(t_uint256)49_storage"
      },
      {
        "astId": 8573,
        "contract": "contracts/BabController.sol:BabControllerV9",
        "label": "gardens",
        "offset": 0,
        "slot": "101",
        "type": "t_array(t_address)dyn_storage"
      },
      {
        "astId": 8576,
        "contract": "contracts/BabController.sol:BabControllerV9",
        "label": "reserveAssets",
        "offset": 0,
        "slot": "102",
        "type": "t_array(t_address)dyn_storage"
      },
      {
        "astId": 8578,
        "contract": "contracts/BabController.sol:BabControllerV9",
        "label": "uniswapFactory",
        "offset": 0,
        "slot": "103",
        "type": "t_address"
      },
      {
        "astId": 8581,
        "contract": "contracts/BabController.sol:BabControllerV9",
        "label": "gardenValuer",
        "offset": 0,
        "slot": "104",
        "type": "t_address"
      },
      {
        "astId": 8584,
        "contract": "contracts/BabController.sol:BabControllerV9",
        "label": "priceOracle",
        "offset": 0,
        "slot": "105",
        "type": "t_address"
      },
      {
        "astId": 8587,
        "contract": "contracts/BabController.sol:BabControllerV9",
        "label": "gardenFactory",
        "offset": 0,
        "slot": "106",
        "type": "t_address"
      },
      {
        "astId": 8590,
        "contract": "contracts/BabController.sol:BabControllerV9",
        "label": "rewardsDistributor",
        "offset": 0,
        "slot": "107",
        "type": "t_address"
      },
      {
        "astId": 8593,
        "contract": "contracts/BabController.sol:BabControllerV9",
        "label": "ishtarGate",
        "offset": 0,
        "slot": "108",
        "type": "t_address"
      },
      {
        "astId": 8596,
        "contract": "contracts/BabController.sol:BabControllerV9",
        "label": "strategyFactory",
        "offset": 0,
        "slot": "109",
        "type": "t_address"
      },
      {
        "astId": 8599,
        "contract": "contracts/BabController.sol:BabControllerV9",
        "label": "gardenNFT",
        "offset": 0,
        "slot": "110",
        "type": "t_address"
      },
      {
        "astId": 8602,
        "contract": "contracts/BabController.sol:BabControllerV9",
        "label": "strategyNFT",
        "offset": 0,
        "slot": "111",
        "type": "t_address"
      },
      {
        "astId": 8606,
        "contract": "contracts/BabController.sol:BabControllerV9",
        "label": "enabledIntegrations",
        "offset": 0,
        "slot": "112",
        "type": "t_mapping(t_bytes32,t_address)"
      },
      {
        "astId": 8609,
        "contract": "contracts/BabController.sol:BabControllerV9",
        "label": "masterSwapper",
        "offset": 0,
        "slot": "113",
        "type": "t_address"
      },
      {
        "astId": 8614,
        "contract": "contracts/BabController.sol:BabControllerV9",
        "label": "enabledOperations",
        "offset": 0,
        "slot": "114",
        "type": "t_array(t_address)20_storage"
      },
      {
        "astId": 8619,
        "contract": "contracts/BabController.sol:BabControllerV9",
        "label": "isGarden",
        "offset": 0,
        "slot": "134",
        "type": "t_mapping(t_address,t_bool)"
      },
      {
        "astId": 8623,
        "contract": "contracts/BabController.sol:BabControllerV9",
        "label": "validReserveAsset",
        "offset": 0,
        "slot": "135",
        "type": "t_mapping(t_address,t_bool)"
      },
      {
        "astId": 8627,
        "contract": "contracts/BabController.sol:BabControllerV9",
        "label": "assetWhitelist",
        "offset": 0,
        "slot": "136",
        "type": "t_mapping(t_address,t_bool)"
      },
      {
        "astId": 8631,
        "contract": "contracts/BabController.sol:BabControllerV9",
        "label": "keeperList",
        "offset": 0,
        "slot": "137",
        "type": "t_mapping(t_address,t_bool)"
      },
      {
        "astId": 8636,
        "contract": "contracts/BabController.sol:BabControllerV9",
        "label": "minLiquidityPerReserve",
        "offset": 0,
        "slot": "138",
        "type": "t_mapping(t_address,t_uint256)"
      },
      {
        "astId": 8639,
        "contract": "contracts/BabController.sol:BabControllerV9",
        "label": "treasury",
        "offset": 0,
        "slot": "139",
        "type": "t_address"
      },
      {
        "astId": 8641,
        "contract": "contracts/BabController.sol:BabControllerV9",
        "label": "strategistProfitPercentage",
        "offset": 0,
        "slot": "140",
        "type": "t_uint256"
      },
      {
        "astId": 8643,
        "contract": "contracts/BabController.sol:BabControllerV9",
        "label": "stewardsProfitPercentage",
        "offset": 0,
        "slot": "141",
        "type": "t_uint256"
      },
      {
        "astId": 8645,
        "contract": "contracts/BabController.sol:BabControllerV9",
        "label": "lpsProfitPercentage",
        "offset": 0,
        "slot": "142",
        "type": "t_uint256"
      },
      {
        "astId": 8647,
        "contract": "contracts/BabController.sol:BabControllerV9",
        "label": "strategistBABLPercentage",
        "offset": 0,
        "slot": "143",
        "type": "t_uint256"
      },
      {
        "astId": 8649,
        "contract": "contracts/BabController.sol:BabControllerV9",
        "label": "stewardsBABLPercentage",
        "offset": 0,
        "slot": "144",
        "type": "t_uint256"
      },
      {
        "astId": 8651,
        "contract": "contracts/BabController.sol:BabControllerV9",
        "label": "lpsBABLPercentage",
        "offset": 0,
        "slot": "145",
        "type": "t_uint256"
      },
      {
        "astId": 8653,
        "contract": "contracts/BabController.sol:BabControllerV9",
        "label": "gardenCreatorBonus",
        "offset": 0,
        "slot": "146",
        "type": "t_uint256"
      },
      {
        "astId": 8656,
        "contract": "contracts/BabController.sol:BabControllerV9",
        "label": "gardenTokensTransfersEnabled",
        "offset": 0,
        "slot": "147",
        "type": "t_bool"
      },
      {
        "astId": 8659,
        "contract": "contracts/BabController.sol:BabControllerV9",
        "label": "bablMiningProgramEnabled",
        "offset": 1,
        "slot": "147",
        "type": "t_bool"
      },
      {
        "astId": 8662,
        "contract": "contracts/BabController.sol:BabControllerV9",
        "label": "allowPublicGardens",
        "offset": 2,
        "slot": "147",
        "type": "t_bool"
      },
      {
        "astId": 8665,
        "contract": "contracts/BabController.sol:BabControllerV9",
        "label": "protocolPerformanceFee",
        "offset": 0,
        "slot": "148",
        "type": "t_uint256"
      },
      {
        "astId": 8668,
        "contract": "contracts/BabController.sol:BabControllerV9",
        "label": "protocolManagementFee",
        "offset": 0,
        "slot": "149",
        "type": "t_uint256"
      },
      {
        "astId": 8670,
        "contract": "contracts/BabController.sol:BabControllerV9",
        "label": "protocolDepositGardenTokenFee",
        "offset": 0,
        "slot": "150",
        "type": "t_uint256"
      },
      {
        "astId": 8672,
        "contract": "contracts/BabController.sol:BabControllerV9",
        "label": "protocolWithdrawalGardenTokenFee",
        "offset": 0,
        "slot": "151",
        "type": "t_uint256"
      },
      {
        "astId": 8674,
        "contract": "contracts/BabController.sol:BabControllerV9",
        "label": "maxContributorsPerGarden",
        "offset": 0,
        "slot": "152",
        "type": "t_uint256"
      },
      {
        "astId": 8677,
        "contract": "contracts/BabController.sol:BabControllerV9",
        "label": "gardenCreationIsOpen",
        "offset": 0,
        "slot": "153",
        "type": "t_bool"
      },
      {
        "astId": 8679,
        "contract": "contracts/BabController.sol:BabControllerV9",
        "label": "guardian",
        "offset": 1,
        "slot": "153",
        "type": "t_address"
      },
      {
        "astId": 8684,
        "contract": "contracts/BabController.sol:BabControllerV9",
        "label": "guardianPaused",
        "offset": 0,
        "slot": "154",
        "type": "t_mapping(t_address,t_bool)"
      },
      {
        "astId": 8687,
        "contract": "contracts/BabController.sol:BabControllerV9",
        "label": "guardianGlobalPaused",
        "offset": 0,
        "slot": "155",
        "type": "t_bool"
      },
      {
        "astId": 8690,
        "contract": "contracts/BabController.sol:BabControllerV9",
        "label": "mardukGate",
        "offset": 1,
        "slot": "155",
        "type": "t_address"
      }
    ],
    "types": {
      "t_address": {
        "encoding": "inplace",
        "label": "address",
        "numberOfBytes": "20"
      },
      "t_array(t_address)20_storage": {
        "base": "t_address",
        "encoding": "inplace",
        "label": "address[20]",
        "numberOfBytes": "640"
      },
      "t_array(t_address)dyn_storage": {
        "base": "t_address",
        "encoding": "dynamic_array",
        "label": "address[]",
        "numberOfBytes": "32"
      },
      "t_array(t_uint256)49_storage": {
        "base": "t_uint256",
        "encoding": "inplace",
        "label": "uint256[49]",
        "numberOfBytes": "1568"
      },
      "t_array(t_uint256)50_storage": {
        "base": "t_uint256",
        "encoding": "inplace",
        "label": "uint256[50]",
        "numberOfBytes": "1600"
      },
      "t_bool": {
        "encoding": "inplace",
        "label": "bool",
        "numberOfBytes": "1"
      },
      "t_bytes32": {
        "encoding": "inplace",
        "label": "bytes32",
        "numberOfBytes": "32"
      },
      "t_mapping(t_address,t_bool)": {
        "encoding": "mapping",
        "key": "t_address",
        "label": "mapping(address => bool)",
        "numberOfBytes": "32",
        "value": "t_bool"
      },
      "t_mapping(t_address,t_uint256)": {
        "encoding": "mapping",
        "key": "t_address",
        "label": "mapping(address => uint256)",
        "numberOfBytes": "32",
        "value": "t_uint256"
      },
      "t_mapping(t_bytes32,t_address)": {
        "encoding": "mapping",
        "key": "t_bytes32",
        "label": "mapping(bytes32 => address)",
        "numberOfBytes": "32",
        "value": "t_address"
      },
      "t_uint256": {
        "encoding": "inplace",
        "label": "uint256",
        "numberOfBytes": "32"
      }
    }
  }
}