{
  "address": "0xB4605D97A45E24811503c0621cfE82EBB5DcBFe7",
  "abi": [
    {
      "anonymous": false,
      "inputs": [
        {
          "indexed": false,
          "internalType": "bool",
          "name": "_pauseState",
          "type": "bool"
        }
      ],
      "name": "ActionPaused",
      "type": "event"
    },
    {
      "anonymous": false,
      "inputs": [
        {
          "indexed": false,
          "internalType": "address",
          "name": "_address",
          "type": "address"
        },
        {
          "indexed": false,
          "internalType": "bool",
          "name": "_pauseState",
          "type": "bool"
        }
      ],
      "name": "ActionPausedIndividually",
      "type": "event"
    },
    {
      "anonymous": false,
      "inputs": [
        {
          "indexed": true,
          "internalType": "address",
          "name": "_user",
          "type": "address"
        },
        {
          "indexed": false,
          "internalType": "uint256",
          "name": "_rewardsClaimed",
          "type": "uint256"
        }
      ],
      "name": "AffiliateRewardsClaimed",
      "type": "event"
    },
    {
      "anonymous": false,
      "inputs": [
        {
          "indexed": false,
          "internalType": "address",
          "name": "_integration",
          "type": "address"
        },
        {
          "indexed": true,
          "internalType": "string",
          "name": "_integrationName",
          "type": "string"
        }
      ],
      "name": "ControllerIntegrationAdded",
      "type": "event"
    },
    {
      "anonymous": false,
      "inputs": [
        {
          "indexed": false,
          "internalType": "address",
          "name": "_newIntegration",
          "type": "address"
        },
        {
          "indexed": true,
          "internalType": "string",
          "name": "_integrationName",
          "type": "string"
        }
      ],
      "name": "ControllerIntegrationEdited",
      "type": "event"
    },
    {
      "anonymous": false,
      "inputs": [
        {
          "indexed": false,
          "internalType": "address",
          "name": "_integration",
          "type": "address"
        },
        {
          "indexed": true,
          "internalType": "string",
          "name": "_integrationName",
          "type": "string"
        }
      ],
      "name": "ControllerIntegrationRemoved",
      "type": "event"
    },
    {
      "anonymous": false,
      "inputs": [
        {
          "indexed": true,
          "internalType": "uint8",
          "name": "_kind",
          "type": "uint8"
        },
        {
          "indexed": false,
          "internalType": "address",
          "name": "_address",
          "type": "address"
        }
      ],
      "name": "ControllerOperationSet",
      "type": "event"
    },
    {
      "anonymous": false,
      "inputs": [
        {
          "indexed": true,
          "internalType": "address",
          "name": "_garden",
          "type": "address"
        },
        {
          "indexed": true,
          "internalType": "address",
          "name": "_factory",
          "type": "address"
        }
      ],
      "name": "GardenAdded",
      "type": "event"
    },
    {
      "anonymous": false,
      "inputs": [
        {
          "indexed": true,
          "internalType": "address",
          "name": "_garden",
          "type": "address"
        },
        {
          "indexed": false,
          "internalType": "uint256",
          "name": "_affiliateRate",
          "type": "uint256"
        }
      ],
      "name": "GardenAffiliateRateUpdated",
      "type": "event"
    },
    {
      "anonymous": false,
      "inputs": [
        {
          "indexed": true,
          "internalType": "address",
          "name": "_gardenFactory",
          "type": "address"
        },
        {
          "indexed": false,
          "internalType": "address",
          "name": "_oldGardenFactory",
          "type": "address"
        }
      ],
      "name": "GardenFactoryChanged",
      "type": "event"
    },
    {
      "anonymous": false,
      "inputs": [
        {
          "indexed": true,
          "internalType": "address",
          "name": "_newGardenNFT",
          "type": "address"
        },
        {
          "indexed": false,
          "internalType": "address",
          "name": "_oldStrategyNFT",
          "type": "address"
        }
      ],
      "name": "GardenNFTChanged",
      "type": "event"
    },
    {
      "anonymous": false,
      "inputs": [
        {
          "indexed": true,
          "internalType": "address",
          "name": "_garden",
          "type": "address"
        }
      ],
      "name": "GardenRemoved",
      "type": "event"
    },
    {
      "anonymous": false,
      "inputs": [
        {
          "indexed": true,
          "internalType": "address",
          "name": "_gardenValuer",
          "type": "address"
        },
        {
          "indexed": false,
          "internalType": "address",
          "name": "_oldGardenValuer",
          "type": "address"
        }
      ],
      "name": "GardenValuerChanged",
      "type": "event"
    },
    {
      "anonymous": false,
      "inputs": [
        {
          "indexed": true,
          "internalType": "address",
          "name": "_newHeart",
          "type": "address"
        },
        {
          "indexed": false,
          "internalType": "address",
          "name": "_oldHeart",
          "type": "address"
        }
      ],
      "name": "HeartChanged",
      "type": "event"
    },
    {
      "anonymous": false,
      "inputs": [
        {
          "indexed": false,
          "internalType": "address",
          "name": "_newIshtarGate",
          "type": "address"
        },
        {
          "indexed": false,
          "internalType": "address",
          "name": "_oldIshtarGate",
          "type": "address"
        }
      ],
      "name": "IshtarGateChanged",
      "type": "event"
    },
    {
      "anonymous": false,
      "inputs": [
        {
          "indexed": true,
          "internalType": "address",
          "name": "_resesrveAsset",
          "type": "address"
        },
        {
          "indexed": false,
          "internalType": "uint256",
          "name": "_newMinLiquidityReserve",
          "type": "uint256"
        }
      ],
      "name": "LiquidityMinimumEdited",
      "type": "event"
    },
    {
      "anonymous": false,
      "inputs": [
        {
          "indexed": false,
          "internalType": "address",
          "name": "_newMardukGate",
          "type": "address"
        },
        {
          "indexed": false,
          "internalType": "address",
          "name": "_oldMardukGate",
          "type": "address"
        }
      ],
      "name": "MardukGateChanged",
      "type": "event"
    },
    {
      "anonymous": false,
      "inputs": [
        {
          "indexed": true,
          "internalType": "address",
          "name": "_newTradeIntegration",
          "type": "address"
        },
        {
          "indexed": false,
          "internalType": "address",
          "name": "_oldTradeIntegration",
          "type": "address"
        }
      ],
      "name": "MasterSwapperChanged",
      "type": "event"
    },
    {
      "anonymous": false,
      "inputs": [
        {
          "indexed": false,
          "internalType": "address",
          "name": "_oldPauseGuardian",
          "type": "address"
        },
        {
          "indexed": false,
          "internalType": "address",
          "name": "_newPauseGuardian",
          "type": "address"
        }
      ],
      "name": "NewPauseGuardian",
      "type": "event"
    },
    {
      "anonymous": false,
      "inputs": [
        {
          "indexed": true,
          "internalType": "address",
          "name": "previousOwner",
          "type": "address"
        },
        {
          "indexed": true,
          "internalType": "address",
          "name": "newOwner",
          "type": "address"
        }
      ],
      "name": "OwnershipTransferred",
      "type": "event"
    },
    {
      "anonymous": false,
      "inputs": [
        {
          "indexed": true,
          "internalType": "address",
          "name": "_priceOracle",
          "type": "address"
        },
        {
          "indexed": false,
          "internalType": "address",
          "name": "_oldPriceOracle",
          "type": "address"
        }
      ],
      "name": "PriceOracleChanged",
      "type": "event"
    },
    {
      "anonymous": false,
      "inputs": [
        {
          "indexed": true,
          "internalType": "address",
          "name": "_wantedAsset",
          "type": "address"
        },
        {
          "indexed": false,
          "internalType": "bool",
          "name": "_wanted",
          "type": "bool"
        }
      ],
      "name": "ProtocolWantedAssetUpdated",
      "type": "event"
    },
    {
      "anonymous": false,
      "inputs": [
        {
          "indexed": true,
          "internalType": "address",
          "name": "_reserveAsset",
          "type": "address"
        }
      ],
      "name": "ReserveAssetAdded",
      "type": "event"
    },
    {
      "anonymous": false,
      "inputs": [
        {
          "indexed": true,
          "internalType": "address",
          "name": "_reserveAsset",
          "type": "address"
        }
      ],
      "name": "ReserveAssetRemoved",
      "type": "event"
    },
    {
      "anonymous": false,
      "inputs": [
        {
          "indexed": true,
          "internalType": "address",
          "name": "_rewardsDistributor",
          "type": "address"
        },
        {
          "indexed": false,
          "internalType": "address",
          "name": "_oldRewardsDistributor",
          "type": "address"
        }
      ],
      "name": "RewardsDistributorChanged",
      "type": "event"
    },
    {
      "anonymous": false,
      "inputs": [
        {
          "indexed": true,
          "internalType": "address",
          "name": "_strategyFactory",
          "type": "address"
        },
        {
          "indexed": false,
          "internalType": "address",
          "name": "_oldStrategyFactory",
          "type": "address"
        }
      ],
      "name": "StrategyFactoryEdited",
      "type": "event"
    },
    {
      "anonymous": false,
      "inputs": [
        {
          "indexed": true,
          "internalType": "address",
          "name": "_newStrategyNFT",
          "type": "address"
        },
        {
          "indexed": false,
          "internalType": "address",
          "name": "_oldStrategyNFT",
          "type": "address"
        }
      ],
      "name": "StrategyNFTChanged",
      "type": "event"
    },
    {
      "anonymous": false,
      "inputs": [
        {
          "indexed": false,
          "internalType": "address",
          "name": "_newTreasury",
          "type": "address"
        },
        {
          "indexed": false,
          "internalType": "address",
          "name": "_oldTreasury",
          "type": "address"
        }
      ],
      "name": "TreasuryChanged",
      "type": "event"
    },
    {
      "anonymous": false,
      "inputs": [
        {
          "indexed": true,
          "internalType": "address",
          "name": "_newUniswapFactory",
          "type": "address"
        },
        {
          "indexed": false,
          "internalType": "address",
          "name": "_oldUniswapFactory",
          "type": "address"
        }
      ],
      "name": "UniswapFactoryChanged",
      "type": "event"
    },
    {
      "inputs": [],
      "name": "BABL",
      "outputs": [
        {
          "internalType": "contract IERC20",
          "name": "",
          "type": "address"
        }
      ],
      "stateMutability": "view",
      "type": "function"
    },
    {
      "inputs": [],
      "name": "EMERGENCY_OWNER",
      "outputs": [
        {
          "internalType": "address",
          "name": "",
          "type": "address"
        }
      ],
      "stateMutability": "view",
      "type": "function"
    },
    {
      "inputs": [],
      "name": "MAX_OPERATIONS",
      "outputs": [
        {
          "internalType": "uint8",
          "name": "",
          "type": "uint8"
        }
      ],
      "stateMutability": "view",
      "type": "function"
    },
    {
      "inputs": [],
      "name": "WETH",
      "outputs": [
        {
          "internalType": "contract IWETH",
          "name": "",
          "type": "address"
        }
      ],
      "stateMutability": "view",
      "type": "function"
    },
    {
      "inputs": [
        {
          "internalType": "address",
          "name": "_user",
          "type": "address"
        },
        {
          "internalType": "uint256",
          "name": "_reserveAmount",
          "type": "uint256"
        }
      ],
      "name": "addAffiliateReward",
      "outputs": [],
      "stateMutability": "nonpayable",
      "type": "function"
    },
    {
      "inputs": [
        {
          "internalType": "address",
          "name": "_keeper",
          "type": "address"
        }
      ],
      "name": "addKeeper",
      "outputs": [],
      "stateMutability": "nonpayable",
      "type": "function"
    },
    {
      "inputs": [
        {
          "internalType": "address[]",
          "name": "_keepers",
          "type": "address[]"
        }
      ],
      "name": "addKeepers",
      "outputs": [],
      "stateMutability": "nonpayable",
      "type": "function"
    },
    {
      "inputs": [
        {
          "internalType": "address",
          "name": "_reserveAsset",
          "type": "address"
        }
      ],
      "name": "addReserveAsset",
      "outputs": [],
      "stateMutability": "nonpayable",
      "type": "function"
    },
    {
      "inputs": [
        {
          "internalType": "address",
          "name": "",
          "type": "address"
        }
      ],
      "name": "affiliateRewards",
      "outputs": [
        {
          "internalType": "uint256",
          "name": "",
          "type": "uint256"
        }
      ],
      "stateMutability": "view",
      "type": "function"
    },
    {
      "inputs": [],
      "name": "allowPublicGardens",
      "outputs": [
        {
          "internalType": "bool",
          "name": "",
          "type": "bool"
        }
      ],
      "stateMutability": "view",
      "type": "function"
    },
    {
      "inputs": [],
      "name": "bablMiningProgramEnabled",
      "outputs": [
        {
          "internalType": "bool",
          "name": "",
          "type": "bool"
        }
      ],
      "stateMutability": "view",
      "type": "function"
    },
    {
      "inputs": [],
      "name": "claimRewards",
      "outputs": [],
      "stateMutability": "nonpayable",
      "type": "function"
    },
    {
      "inputs": [
        {
          "internalType": "address",
          "name": "_reserveAsset",
          "type": "address"
        },
        {
          "internalType": "string",
          "name": "_name",
          "type": "string"
        },
        {
          "internalType": "string",
          "name": "_symbol",
          "type": "string"
        },
        {
          "internalType": "string",
          "name": "_tokenURI",
          "type": "string"
        },
        {
          "internalType": "uint256",
          "name": "_seed",
          "type": "uint256"
        },
        {
          "internalType": "uint256[]",
          "name": "_gardenParams",
          "type": "uint256[]"
        },
        {
          "internalType": "uint256",
          "name": "_initialContribution",
          "type": "uint256"
        },
        {
          "internalType": "bool[]",
          "name": "_publicGardenStrategistsStewards",
          "type": "bool[]"
        },
        {
          "internalType": "uint256[]",
          "name": "_profitSharing",
          "type": "uint256[]"
        }
      ],
      "name": "createGarden",
      "outputs": [
        {
          "internalType": "address",
          "name": "",
          "type": "address"
        }
      ],
      "stateMutability": "payable",
      "type": "function"
    },
    {
      "inputs": [],
      "name": "curveMetaRegistry",
      "outputs": [
        {
          "internalType": "address",
          "name": "",
          "type": "address"
        }
      ],
      "stateMutability": "view",
      "type": "function"
    },
    {
      "inputs": [
        {
          "internalType": "address",
          "name": "_curveMetaRegistry",
          "type": "address"
        }
      ],
      "name": "editCurveMetaRegistry",
      "outputs": [],
      "stateMutability": "nonpayable",
      "type": "function"
    },
    {
      "inputs": [
        {
          "internalType": "address",
          "name": "_newGardenFactory",
          "type": "address"
        }
      ],
      "name": "editGardenFactory",
      "outputs": [],
      "stateMutability": "nonpayable",
      "type": "function"
    },
    {
      "inputs": [
        {
          "internalType": "address",
          "name": "_newGardenNFT",
          "type": "address"
        }
      ],
      "name": "editGardenNFT",
      "outputs": [],
      "stateMutability": "nonpayable",
      "type": "function"
    },
    {
      "inputs": [
        {
          "internalType": "address",
          "name": "_gardenValuer",
          "type": "address"
        }
      ],
      "name": "editGardenValuer",
      "outputs": [],
      "stateMutability": "nonpayable",
      "type": "function"
    },
    {
      "inputs": [
        {
          "internalType": "address",
          "name": "_newHeart",
          "type": "address"
        }
      ],
      "name": "editHeart",
      "outputs": [],
      "stateMutability": "nonpayable",
      "type": "function"
    },
    {
      "inputs": [
        {
          "internalType": "address",
          "name": "_reserve",
          "type": "address"
        },
        {
          "internalType": "uint256",
          "name": "_newMinLiquidityReserve",
          "type": "uint256"
        }
      ],
      "name": "editLiquidityReserve",
      "outputs": [],
      "stateMutability": "nonpayable",
      "type": "function"
    },
    {
      "inputs": [
        {
          "internalType": "address",
          "name": "_mardukGate",
          "type": "address"
        }
      ],
      "name": "editMardukGate",
      "outputs": [],
      "stateMutability": "nonpayable",
      "type": "function"
    },
    {
      "inputs": [
        {
          "internalType": "address",
          "name": "_priceOracle",
          "type": "address"
        }
      ],
      "name": "editPriceOracle",
      "outputs": [],
      "stateMutability": "nonpayable",
      "type": "function"
    },
    {
      "inputs": [
        {
          "internalType": "address",
          "name": "_newRewardsDistributor",
          "type": "address"
        }
      ],
      "name": "editRewardsDistributor",
      "outputs": [],
      "stateMutability": "nonpayable",
      "type": "function"
    },
    {
      "inputs": [
        {
          "internalType": "address",
          "name": "_newStrategyFactory",
          "type": "address"
        }
      ],
      "name": "editStrategyFactory",
      "outputs": [],
      "stateMutability": "nonpayable",
      "type": "function"
    },
    {
      "inputs": [
        {
          "internalType": "address",
          "name": "_newStrategyNFT",
          "type": "address"
        }
      ],
      "name": "editStrategyNFT",
      "outputs": [],
      "stateMutability": "nonpayable",
      "type": "function"
    },
    {
      "inputs": [
        {
          "internalType": "address",
          "name": "_newTreasury",
          "type": "address"
        }
      ],
      "name": "editTreasury",
      "outputs": [],
      "stateMutability": "nonpayable",
      "type": "function"
    },
    {
      "inputs": [],
      "name": "enableGardenTokensTransfers",
      "outputs": [],
      "stateMutability": "nonpayable",
      "type": "function"
    },
    {
      "inputs": [
        {
          "internalType": "uint256",
          "name": "",
          "type": "uint256"
        }
      ],
      "name": "enabledOperations",
      "outputs": [
        {
          "internalType": "address",
          "name": "",
          "type": "address"
        }
      ],
      "stateMutability": "view",
      "type": "function"
    },
    {
      "inputs": [
        {
          "internalType": "address",
          "name": "",
          "type": "address"
        }
      ],
      "name": "gardenAffiliateRates",
      "outputs": [
        {
          "internalType": "uint256",
          "name": "",
          "type": "uint256"
        }
      ],
      "stateMutability": "view",
      "type": "function"
    },
    {
      "inputs": [],
      "name": "gardenCreationIsOpen",
      "outputs": [
        {
          "internalType": "bool",
          "name": "",
          "type": "bool"
        }
      ],
      "stateMutability": "view",
      "type": "function"
    },
    {
      "inputs": [],
      "name": "gardenFactory",
      "outputs": [
        {
          "internalType": "address",
          "name": "",
          "type": "address"
        }
      ],
      "stateMutability": "view",
      "type": "function"
    },
    {
      "inputs": [],
      "name": "gardenNFT",
      "outputs": [
        {
          "internalType": "address",
          "name": "",
          "type": "address"
        }
      ],
      "stateMutability": "view",
      "type": "function"
    },
    {
      "inputs": [],
      "name": "gardenTokensTransfersEnabled",
      "outputs": [
        {
          "internalType": "bool",
          "name": "",
          "type": "bool"
        }
      ],
      "stateMutability": "view",
      "type": "function"
    },
    {
      "inputs": [],
      "name": "gardenValuer",
      "outputs": [
        {
          "internalType": "address",
          "name": "",
          "type": "address"
        }
      ],
      "stateMutability": "view",
      "type": "function"
    },
    {
      "inputs": [
        {
          "internalType": "uint256",
          "name": "",
          "type": "uint256"
        }
      ],
      "name": "gardens",
      "outputs": [
        {
          "internalType": "address",
          "name": "",
          "type": "address"
        }
      ],
      "stateMutability": "view",
      "type": "function"
    },
    {
      "inputs": [],
      "name": "getGardens",
      "outputs": [
        {
          "internalType": "address[]",
          "name": "",
          "type": "address[]"
        }
      ],
      "stateMutability": "view",
      "type": "function"
    },
    {
      "inputs": [],
      "name": "getOperations",
      "outputs": [
        {
          "internalType": "address[20]",
          "name": "",
          "type": "address[20]"
        }
      ],
      "stateMutability": "view",
      "type": "function"
    },
    {
      "inputs": [],
      "name": "getReserveAssets",
      "outputs": [
        {
          "internalType": "address[]",
          "name": "",
          "type": "address[]"
        }
      ],
      "stateMutability": "view",
      "type": "function"
    },
    {
      "inputs": [],
      "name": "guardian",
      "outputs": [
        {
          "internalType": "address",
          "name": "",
          "type": "address"
        }
      ],
      "stateMutability": "view",
      "type": "function"
    },
    {
      "inputs": [],
      "name": "guardianGlobalPaused",
      "outputs": [
        {
          "internalType": "bool",
          "name": "",
          "type": "bool"
        }
      ],
      "stateMutability": "view",
      "type": "function"
    },
    {
      "inputs": [
        {
          "internalType": "address",
          "name": "",
          "type": "address"
        }
      ],
      "name": "guardianPaused",
      "outputs": [
        {
          "internalType": "bool",
          "name": "",
          "type": "bool"
        }
      ],
      "stateMutability": "view",
      "type": "function"
    },
    {
      "inputs": [],
      "name": "heart",
      "outputs": [
        {
          "internalType": "address",
          "name": "",
          "type": "address"
        }
      ],
      "stateMutability": "view",
      "type": "function"
    },
    {
      "inputs": [],
      "name": "initialize",
      "outputs": [],
      "stateMutability": "nonpayable",
      "type": "function"
    },
    {
      "inputs": [
        {
          "internalType": "address",
          "name": "",
          "type": "address"
        }
      ],
      "name": "isGarden",
      "outputs": [
        {
          "internalType": "bool",
          "name": "",
          "type": "bool"
        }
      ],
      "stateMutability": "view",
      "type": "function"
    },
    {
      "inputs": [
        {
          "internalType": "address",
          "name": "_contract",
          "type": "address"
        }
      ],
      "name": "isPaused",
      "outputs": [
        {
          "internalType": "bool",
          "name": "",
          "type": "bool"
        }
      ],
      "stateMutability": "view",
      "type": "function"
    },
    {
      "inputs": [
        {
          "internalType": "address",
          "name": "_contractAddress",
          "type": "address"
        }
      ],
      "name": "isSystemContract",
      "outputs": [
        {
          "internalType": "bool",
          "name": "",
          "type": "bool"
        }
      ],
      "stateMutability": "view",
      "type": "function"
    },
    {
      "inputs": [
        {
          "internalType": "address",
          "name": "_keeper",
          "type": "address"
        }
      ],
      "name": "isValidKeeper",
      "outputs": [
        {
          "internalType": "bool",
          "name": "",
          "type": "bool"
        }
      ],
      "stateMutability": "view",
      "type": "function"
    },
    {
      "inputs": [
        {
          "internalType": "address",
          "name": "_reserveAsset",
          "type": "address"
        }
      ],
      "name": "isValidReserveAsset",
      "outputs": [
        {
          "internalType": "bool",
          "name": "",
          "type": "bool"
        }
      ],
      "stateMutability": "view",
      "type": "function"
    },
    {
      "inputs": [],
      "name": "ishtarGate",
      "outputs": [
        {
          "internalType": "address",
          "name": "",
          "type": "address"
        }
      ],
      "stateMutability": "view",
      "type": "function"
    },
    {
      "inputs": [
        {
          "internalType": "address",
          "name": "",
          "type": "address"
        }
      ],
      "name": "keeperList",
      "outputs": [
        {
          "internalType": "bool",
          "name": "",
          "type": "bool"
        }
      ],
      "stateMutability": "view",
      "type": "function"
    },
    {
      "inputs": [],
      "name": "mardukGate",
      "outputs": [
        {
          "internalType": "address",
          "name": "",
          "type": "address"
        }
      ],
      "stateMutability": "view",
      "type": "function"
    },
    {
      "inputs": [],
      "name": "masterSwapper",
      "outputs": [
        {
          "internalType": "address",
          "name": "",
          "type": "address"
        }
      ],
      "stateMutability": "view",
      "type": "function"
    },
    {
      "inputs": [
        {
          "internalType": "address",
          "name": "",
          "type": "address"
        }
      ],
      "name": "minLiquidityPerReserve",
      "outputs": [
        {
          "internalType": "uint256",
          "name": "",
          "type": "uint256"
        }
      ],
      "stateMutability": "view",
      "type": "function"
    },
    {
      "inputs": [],
      "name": "owner",
      "outputs": [
        {
          "internalType": "address",
          "name": "",
          "type": "address"
        }
      ],
      "stateMutability": "view",
      "type": "function"
    },
    {
      "inputs": [],
      "name": "priceOracle",
      "outputs": [
        {
          "internalType": "address",
          "name": "",
          "type": "address"
        }
      ],
      "stateMutability": "view",
      "type": "function"
    },
    {
      "inputs": [],
      "name": "protocolManagementFee",
      "outputs": [
        {
          "internalType": "uint256",
          "name": "",
          "type": "uint256"
        }
      ],
      "stateMutability": "view",
      "type": "function"
    },
    {
      "inputs": [],
      "name": "protocolPerformanceFee",
      "outputs": [
        {
          "internalType": "uint256",
          "name": "",
          "type": "uint256"
        }
      ],
      "stateMutability": "view",
      "type": "function"
    },
    {
      "inputs": [
        {
          "internalType": "address",
          "name": "",
          "type": "address"
        }
      ],
      "name": "protocolWantedAssets",
      "outputs": [
        {
          "internalType": "bool",
          "name": "",
          "type": "bool"
        }
      ],
      "stateMutability": "view",
      "type": "function"
    },
    {
      "inputs": [
        {
          "internalType": "address",
          "name": "_garden",
          "type": "address"
        }
      ],
      "name": "removeGarden",
      "outputs": [],
      "stateMutability": "nonpayable",
      "type": "function"
    },
    {
      "inputs": [
        {
          "internalType": "address",
          "name": "_keeper",
          "type": "address"
        }
      ],
      "name": "removeKeeper",
      "outputs": [],
      "stateMutability": "nonpayable",
      "type": "function"
    },
    {
      "inputs": [
        {
          "internalType": "address",
          "name": "_reserveAsset",
          "type": "address"
        }
      ],
      "name": "removeReserveAsset",
      "outputs": [],
      "stateMutability": "nonpayable",
      "type": "function"
    },
    {
      "inputs": [],
      "name": "renounceOwnership",
      "outputs": [],
      "stateMutability": "nonpayable",
      "type": "function"
    },
    {
      "inputs": [
        {
          "internalType": "uint256",
          "name": "",
          "type": "uint256"
        }
      ],
      "name": "reserveAssets",
      "outputs": [
        {
          "internalType": "address",
          "name": "",
          "type": "address"
        }
      ],
      "stateMutability": "view",
      "type": "function"
    },
    {
      "inputs": [],
      "name": "rewardsDistributor",
      "outputs": [
        {
          "internalType": "address",
          "name": "",
          "type": "address"
        }
      ],
      "stateMutability": "view",
      "type": "function"
    },
    {
      "inputs": [
        {
          "internalType": "bool",
          "name": "_state",
          "type": "bool"
        }
      ],
      "name": "setGlobalPause",
      "outputs": [
        {
          "internalType": "bool",
          "name": "",
          "type": "bool"
        }
      ],
      "stateMutability": "nonpayable",
      "type": "function"
    },
    {
      "inputs": [
        {
          "internalType": "address",
          "name": "_newDefaultMasterSwapper",
          "type": "address"
        }
      ],
      "name": "setMasterSwapper",
      "outputs": [],
      "stateMutability": "nonpayable",
      "type": "function"
    },
    {
      "inputs": [
        {
          "internalType": "uint8",
          "name": "_kind",
          "type": "uint8"
        },
        {
          "internalType": "address",
          "name": "_operation",
          "type": "address"
        }
      ],
      "name": "setOperation",
      "outputs": [],
      "stateMutability": "nonpayable",
      "type": "function"
    },
    {
      "inputs": [
        {
          "internalType": "address",
          "name": "_guardian",
          "type": "address"
        }
      ],
      "name": "setPauseGuardian",
      "outputs": [],
      "stateMutability": "nonpayable",
      "type": "function"
    },
    {
      "inputs": [
        {
          "internalType": "address[]",
          "name": "_address",
          "type": "address[]"
        },
        {
          "internalType": "bool",
          "name": "_state",
          "type": "bool"
        }
      ],
      "name": "setSomePause",
      "outputs": [
        {
          "internalType": "bool",
          "name": "",
          "type": "bool"
        }
      ],
      "stateMutability": "nonpayable",
      "type": "function"
    },
    {
      "inputs": [],
      "name": "strategyFactory",
      "outputs": [
        {
          "internalType": "address",
          "name": "",
          "type": "address"
        }
      ],
      "stateMutability": "view",
      "type": "function"
    },
    {
      "inputs": [],
      "name": "strategyNFT",
      "outputs": [
        {
          "internalType": "address",
          "name": "",
          "type": "address"
        }
      ],
      "stateMutability": "view",
      "type": "function"
    },
    {
      "inputs": [
        {
          "internalType": "address",
          "name": "newOwner",
          "type": "address"
        }
      ],
      "name": "transferOwnership",
      "outputs": [],
      "stateMutability": "nonpayable",
      "type": "function"
    },
    {
      "inputs": [],
      "name": "treasury",
      "outputs": [
        {
          "internalType": "address",
          "name": "",
          "type": "address"
        }
      ],
      "stateMutability": "view",
      "type": "function"
    },
    {
      "inputs": [
        {
          "internalType": "address",
          "name": "_garden",
          "type": "address"
        },
        {
          "internalType": "uint256",
          "name": "_affiliateRate",
          "type": "uint256"
        }
      ],
      "name": "updateGardenAffiliateRate",
      "outputs": [],
      "stateMutability": "nonpayable",
      "type": "function"
    },
    {
      "inputs": [
        {
          "internalType": "address",
          "name": "_wantedAsset",
          "type": "address"
        },
        {
          "internalType": "bool",
          "name": "_wanted",
          "type": "bool"
        }
      ],
      "name": "updateProtocolWantedAsset",
      "outputs": [],
      "stateMutability": "nonpayable",
      "type": "function"
    },
    {
      "inputs": [
        {
          "internalType": "address",
          "name": "",
          "type": "address"
        }
      ],
      "name": "validReserveAsset",
      "outputs": [
        {
          "internalType": "bool",
          "name": "",
          "type": "bool"
        }
      ],
      "stateMutability": "view",
      "type": "function"
    },
    {
      "stateMutability": "payable",
      "type": "receive"
    }
  ],
  "transactionHash": "0x80f337e029102c5c114f5a1faa2fdf0fd031596e1cdfc958da91b95722e4b100",
  "args": [],
  "numDeployments": 1,
  "solcInputHash": "52326babd87e7897610fb1d2a71f018c",
  "bytecode": "0x608060405234801561001057600080fd5b5061566180620000216000396000f3fe60806040526004361061050b5760003560e01c80637f80e05b11610294578063c7ba02661161015e578063ea29b188116100d6578063f4afedd11161008a578063f76206c81161006f578063f76206c814611479578063f948e50a146114b4578063f979cdd91461150257610512565b8063f4afedd11461144f578063f58d1c941461146457610512565b8063f04ec547116100bb578063f04ec547146113b6578063f05017eb146113e9578063f2fde38b1461141c57610512565b8063ea29b1881461136e578063ead4c1cf146113a157610512565b8063d6a45aa51161012d578063dfaef58f11610112578063dfaef58f146112f3578063e6e6051314611326578063e973f4e91461133b57610512565b8063d6a45aa5146112c9578063daec2a1a146112de57610512565b8063c7ba026614611230578063c80aad6314611263578063c8ed947f14611278578063d276cbdc1461128d57610512565b80639ef357101161020c578063b82efd4f116101c0578063bc092283116101a5578063bc09228314611165578063bc819ea614611198578063c2d38e79146111fd57610512565b8063b82efd4f146110ff578063bb664c011461113257610512565b8063ad5c4648116101f1578063ad5c464814611084578063b0ecdf8014611099578063b3af1743146110cc57610512565b80639ef357101461103c578063a368af641461105157610512565b806388e8dc75116102635780638d97e043116102485780638d97e04314610fe85780638da5cb5b14610ffd5780639e18eb391461101257610512565b806388e8dc7514610f7c5780638979042914610faf57610512565b80637f80e05b14610eec5780638129fc1c14610f0157806385d5d03614610f16578063867b6efa14610f4957610512565b80633f2a5540116103d55780635b14f1831161034d5780636968551311610301578063715018a6116102e6578063715018a614610e895780637150b97014610e9e5780637be8ec5014610ed757610512565b80636968551314610e2a57806369a6b3db14610e5d57610512565b80635e192de6116103325780635e192de614610dcd57806361d027b314610e0057806362a4bf0514610e1557610512565b80635b14f18314610d6f5780635dc2803a14610da257610512565b8063452a9320116103a4578063561614721161038957806356161472146109fc5780635618b5b214610d27578063568c081314610d5a57610512565b8063452a9320146109b457806348bde20c146109c957610512565b80633f2a5540146109065780634032b72b1461091b578063411137c31461094e578063447a13661461098157610512565b8063294d237c11610483578063364d118111610437578063372500ab1161041c578063372500ab146108b257806337973e5f146108c7578063393bfe49146108f157610512565b8063364d11811461086a57806336c148b71461089d57610512565b806330944c621161046857806330944c621461077e5780633137547714610793578063314a83c9146107ba57610512565b8063294d237c146107305780632fb40c111461074557610512565b806316d9c070116104da57806320104198116104bf57806320104198146106dc5780632630c12f1461070657806327e4acc71461071b57610512565b806316d9c0701461067657806318b9e252146106a957610512565b80630306f6d2146105175780630ebdb9a2146105dd57806313bc6d4b1461060e57806314ae9f2e1461064157610512565b3661051257005b600080fd5b34801561052357600080fd5b506105c96004803603604081101561053a57600080fd5b81019060208101813564010000000081111561055557600080fd5b82018360208201111561056757600080fd5b8035906020019184602083028401116401000000008311171561058957600080fd5b9190808060200260200160405190810160405280939291908181526020018383602002808284376000920191909152509295505050503515159050611535565b604080519115158252519081900360200190f35b3480156105e957600080fd5b506105f2611708565b604080516001600160a01b039092168252519081900360200190f35b34801561061a57600080fd5b506105c96004803603602081101561063157600080fd5b50356001600160a01b031661171c565b34801561064d57600080fd5b506106746004803603602081101561066457600080fd5b50356001600160a01b0316611b3d565b005b34801561068257600080fd5b506106746004803603602081101561069957600080fd5b50356001600160a01b0316611bd3565b3480156106b557600080fd5b50610674600480360360208110156106cc57600080fd5b50356001600160a01b0316611d7f565b3480156106e857600080fd5b506105f2600480360360208110156106ff57600080fd5b5035612082565b34801561071257600080fd5b506105f26120a2565b34801561072757600080fd5b506105c96120b1565b34801561073c57600080fd5b506105f26120ba565b34801561075157600080fd5b506106746004803603604081101561076857600080fd5b506001600160a01b0381351690602001356120c9565b34801561078a57600080fd5b506105c9612207565b34801561079f57600080fd5b506107a8612215565b60408051918252519081900360200190f35b3480156107c657600080fd5b50610674600480360360208110156107dd57600080fd5b8101906020810181356401000000008111156107f857600080fd5b82018360208201111561080a57600080fd5b8035906020019184602083028401116401000000008311171561082c57600080fd5b91908080602002602001604051908101604052809392919081815260200183836020028082843760009201919091525092955061221b945050505050565b34801561087657600080fd5b506105c96004803603602081101561088d57600080fd5b50356001600160a01b031661227b565b3480156108a957600080fd5b50610674612290565b3480156108be57600080fd5b5061067461236b565b3480156108d357600080fd5b506105f2600480360360208110156108ea57600080fd5b50356125a2565b3480156108fd57600080fd5b506105c96125cc565b34801561091257600080fd5b506105f26125d5565b34801561092757600080fd5b506106746004803603602081101561093e57600080fd5b50356001600160a01b03166125e4565b34801561095a57600080fd5b506105c96004803603602081101561097157600080fd5b50356001600160a01b0316612686565b34801561098d57600080fd5b506105c9600480360360208110156109a457600080fd5b50356001600160a01b03166126a4565b3480156109c057600080fd5b506105f26126b9565b3480156109d557600080fd5b50610674600480360360208110156109ec57600080fd5b50356001600160a01b03166126cd565b6105f26004803603610120811015610a1357600080fd5b6001600160a01b038235169190810190604081016020820135640100000000811115610a3e57600080fd5b820183602082011115610a5057600080fd5b80359060200191846001830284011164010000000083111715610a7257600080fd5b91908080601f0160208091040260200160405190810160405280939291908181526020018383808284376000920191909152509295949360208101935035915050640100000000811115610ac557600080fd5b820183602082011115610ad757600080fd5b80359060200191846001830284011164010000000083111715610af957600080fd5b91908080601f0160208091040260200160405190810160405280939291908181526020018383808284376000920191909152509295949360208101935035915050640100000000811115610b4c57600080fd5b820183602082011115610b5e57600080fd5b80359060200191846001830284011164010000000083111715610b8057600080fd5b91908080601f01602080910402602001604051908101604052809392919081815260200183838082843760009201919091525092958435959094909350604081019250602001359050640100000000811115610bdb57600080fd5b820183602082011115610bed57600080fd5b80359060200191846020830284011164010000000083111715610c0f57600080fd5b91939092823592604081019060200135640100000000811115610c3157600080fd5b820183602082011115610c4357600080fd5b80359060200191846020830284011164010000000083111715610c6557600080fd5b9190808060200260200160405190810160405280939291908181526020018383602002808284376000920191909152509295949360208101935035915050640100000000811115610cb557600080fd5b820183602082011115610cc757600080fd5b80359060200191846020830284011164010000000083111715610ce957600080fd5b919080806020026020016040519081016040528093929190818152602001838360200280828437600092019190915250929550612838945050505050565b348015610d3357600080fd5b5061067460048036036020811015610d4a57600080fd5b50356001600160a01b0316612fa6565b348015610d6657600080fd5b506107a86130c1565b348015610d7b57600080fd5b506105c960048036036020811015610d9257600080fd5b50356001600160a01b03166130c7565b348015610dae57600080fd5b50610db76130f5565b6040805160ff9092168252519081900360200190f35b348015610dd957600080fd5b506105c960048036036020811015610df057600080fd5b50356001600160a01b03166130fa565b348015610e0c57600080fd5b506105f261310f565b348015610e2157600080fd5b506105c961311e565b348015610e3657600080fd5b5061067460048036036020811015610e4d57600080fd5b50356001600160a01b0316613127565b348015610e6957600080fd5b506105c960048036036020811015610e8057600080fd5b503515156131df565b348015610e9557600080fd5b5061067461332e565b348015610eaa57600080fd5b5061067460048036036040811015610ec157600080fd5b506001600160a01b0381351690602001356133ec565b348015610ee357600080fd5b506105f2613522565b348015610ef857600080fd5b506105c961353a565b348015610f0d57600080fd5b50610674613549565b348015610f2257600080fd5b5061067460048036036020811015610f3957600080fd5b50356001600160a01b031661363e565b348015610f5557600080fd5b5061067460048036036020811015610f6c57600080fd5b50356001600160a01b0316613762565b348015610f8857600080fd5b5061067460048036036020811015610f9f57600080fd5b50356001600160a01b0316613889565b348015610fbb57600080fd5b5061067460048036036040811015610fd257600080fd5b506001600160a01b0381351690602001356139c7565b348015610ff457600080fd5b506105f2613b51565b34801561100957600080fd5b506105f2613b69565b34801561101e57600080fd5b506105f26004803603602081101561103557600080fd5b5035613b78565b34801561104857600080fd5b506105f2613b88565b34801561105d57600080fd5b506107a86004803603602081101561107457600080fd5b50356001600160a01b0316613b97565b34801561109057600080fd5b506105f2613ba9565b3480156110a557600080fd5b506105c9600480360360208110156110bc57600080fd5b50356001600160a01b0316613bc1565b3480156110d857600080fd5b506105c9600480360360208110156110ef57600080fd5b50356001600160a01b0316613bd6565b34801561110b57600080fd5b506106746004803603602081101561112257600080fd5b50356001600160a01b0316613beb565b34801561113e57600080fd5b506106746004803603602081101561115557600080fd5b50356001600160a01b0316613ca2565b34801561117157600080fd5b506106746004803603602081101561118857600080fd5b50356001600160a01b0316613d5a565b3480156111a457600080fd5b506111ad613e7d565b60408051602080825283518183015283519192839290830191858101910280838360005b838110156111e95781810151838201526020016111d1565b505050509050019250505060405180910390f35b34801561120957600080fd5b506106746004803603602081101561122057600080fd5b50356001600160a01b0316613edf565b34801561123c57600080fd5b506107a86004803603602081101561125357600080fd5b50356001600160a01b0316614002565b34801561126f57600080fd5b506105f2614014565b34801561128457600080fd5b506105f2614023565b34801561129957600080fd5b50610674600480360360408110156112b057600080fd5b50803560ff1690602001356001600160a01b0316614032565b3480156112d557600080fd5b506105f26141d1565b3480156112ea57600080fd5b506111ad6141e0565b3480156112ff57600080fd5b506106746004803603602081101561131657600080fd5b50356001600160a01b0316614240565b34801561133257600080fd5b506105f26142f8565b34801561134757600080fd5b506106746004803603602081101561135e57600080fd5b50356001600160a01b0316614307565b34801561137a57600080fd5b506106746004803603602081101561139157600080fd5b50356001600160a01b03166143bf565b3480156113ad57600080fd5b506105f261443c565b3480156113c257600080fd5b50610674600480360360208110156113d957600080fd5b50356001600160a01b031661444b565b3480156113f557600080fd5b506107a86004803603602081101561140c57600080fd5b50356001600160a01b0316614612565b34801561142857600080fd5b506106746004803603602081101561143f57600080fd5b50356001600160a01b0316614624565b34801561145b57600080fd5b506105f2614739565b34801561147057600080fd5b506105f2614748565b34801561148557600080fd5b506106746004803603604081101561149c57600080fd5b506001600160a01b0381351690602001351515614757565b3480156114c057600080fd5b506114c96148f8565b604051808261028080838360005b838110156114ef5781810151838201526020016114d7565b5050505090500191505060405180910390f35b34801561150e57600080fd5b506105c96004803603602081101561152557600080fd5b50356001600160a01b0316614938565b60995460009061010090046001600160a01b031633148061156e5750611559613b69565b6001600160a01b0316336001600160a01b0316145b8061158c5750337397fcc2ae862d03143b393e9fa73a32b563d57a6e145b6115d5576040805162461bcd60e51b81526020600482015260156024820152744e6f7420656e6f7567682070726976696c6567657360581b604482015290519081900360640190fd5b60995461010090046001600160a01b0316331480156115f2575081155b1561163c576040805162461bcd60e51b81526020600482015260156024820152744e6f7420656e6f7567682070726976696c6567657360581b604482015290519081900360640190fd5b60005b83518110156116fd5782609a600086848151811061165957fe5b60200260200101516001600160a01b03166001600160a01b0316815260200190815260200160002060006101000a81548160ff0219169083151502179055507f08b164e1361a00dc7be10aa56163b102f57083efead28c3f4046c6777d4ede8e8482815181106116c557fe5b60200260200101518460405180836001600160a01b0316815260200182151581526020019250505060405180910390a160010161163f565b508190505b92915050565b609b5461010090046001600160a01b031681565b60006001600160a01b03821661173457506000611b38565b6001600160a01b03821660009081526086602052604090205460ff168061176857506068546001600160a01b038381169116145b8061178057506069546001600160a01b038381169116145b806117985750606a546001600160a01b038381169116145b806117b057506071546001600160a01b038381169116145b806117c85750606d546001600160a01b038381169116145b806117e05750606b546001600160a01b038381169116145b806118035750816001600160a01b03166117f8613b69565b6001600160a01b0316145b8061181657506001600160a01b03821630145b80611825575061182582614956565b806119ad575060866000836001600160a01b03166356ba88b86040518163ffffffff1660e01b815260040160206040518083038186803b15801561186857600080fd5b505afa15801561187c573d6000803e3d6000fd5b505050506040513d602081101561189257600080fd5b50516001600160a01b0316815260208101919091526040016000205460ff1680156119ad5750816001600160a01b03166356ba88b86040518163ffffffff1660e01b815260040160206040518083038186803b1580156118f157600080fd5b505afa158015611905573d6000803e3d6000fd5b505050506040513d602081101561191b57600080fd5b5051604080517f3a8219250000000000000000000000000000000000000000000000000000000081526001600160a01b03858116600483015291519190921691633a821925916024808301926020929190829003018186803b15801561198057600080fd5b505afa158015611994573d6000803e3d6000fd5b505050506040513d60208110156119aa57600080fd5b50515b80611b35575060866000836001600160a01b03166356ba88b86040518163ffffffff1660e01b815260040160206040518083038186803b1580156119f057600080fd5b505afa158015611a04573d6000803e3d6000fd5b505050506040513d6020811015611a1a57600080fd5b50516001600160a01b0316815260208101919091526040016000205460ff168015611b355750816001600160a01b03166356ba88b86040518163ffffffff1660e01b815260040160206040518083038186803b158015611a7957600080fd5b505afa158015611a8d573d6000803e3d6000fd5b505050506040513d6020811015611aa357600080fd5b5051604080517f06061dfa0000000000000000000000000000000000000000000000000000000081526001600160a01b038581166004830152915191909216916306061dfa916024808301926020929190829003018186803b158015611b0857600080fd5b505afa158015611b1c573d6000803e3d6000fd5b505050506040513d6020811015611b3257600080fd5b50515b90505b919050565b611b456149a6565b6001600160a01b03811660009081526089602052604090205460ff16611bb2576040805162461bcd60e51b815260206004820152601560248201527f4b65657065722069732077686974656c69737465640000000000000000000000604482015290519081900360640190fd5b6001600160a01b03166000908152608960205260409020805460ff19169055565b611bdb614a2b565b6001600160a01b0316611bec613b69565b6001600160a01b031614611c47576040805162461bcd60e51b815260206004820181905260248201527f4f776e61626c653a2063616c6c6572206973206e6f7420746865206f776e6572604482015290519081900360640190fd5b609b546001600160a01b03828116610100909204161415611caf576040805162461bcd60e51b815260206004820152601a60248201527f4d617264756b204761746520616c726561647920657869737473000000000000604482015290519081900360640190fd5b6001600160a01b038116611d0a576040805162461bcd60e51b815260206004820152601d60248201527f4d617264756b2047617465206f7261636c65206d757374206578697374000000604482015290519081900360640190fd5b609b80546001600160a01b0383811661010081810274ffffffffffffffffffffffffffffffffffffffff001985161790945560408051918252939092041660208201819052825190927f345fc59169aa2ad8a518c40e50702bc683495ac687515df9441cabc39eef54ff928290030190a15050565b611d87614a2b565b6001600160a01b0316611d98613b69565b6001600160a01b031614611df3576040805162461bcd60e51b815260206004820181905260248201527f4f776e61626c653a2063616c6c6572206973206e6f7420746865206f776e6572604482015290519081900360640190fd5b6001600160a01b03811660009081526086602052604090205460ff16611e60576040805162461bcd60e51b815260206004820152601560248201527f47617264656e20646f6573206e6f742065786973740000000000000000000000604482015290519081900360640190fd5b806001600160a01b031663b49a60bb6040518163ffffffff1660e01b815260040160006040518083038186803b158015611e9957600080fd5b505afa158015611ead573d6000803e3d6000fd5b505050506040513d6000823e601f3d908101601f191682016040526020811015611ed657600080fd5b8101908080516040519392919084640100000000821115611ef657600080fd5b908301906020820185811115611f0b57600080fd5b8251866020820283011164010000000082111715611f2857600080fd5b82525081516020918201928201910280838360005b83811015611f55578181015183820152602001611f3d565b5050505090500160405250505051600014611fb7576040805162461bcd60e51b815260206004820152601d60248201527f47617264656e2068617320616374697665207374726174656769657321000000604482015290519081900360640190fd5b61202481606580548060200260200160405190810160405280929190818152602001828054801561201157602002820191906000526020600020905b81546001600160a01b03168152600190910190602001808311611ff3575b5050505050614a2f90919063ffffffff16565b80516120389160659160209091019061545a565b506001600160a01b038116600081815260866020526040808220805460ff19169055517fb52dedfe431c6250e847edee5dca0a14cfaad5c6626218f99bd60c8ad9939a9f9190a250565b6072816014811061209257600080fd5b01546001600160a01b0316905081565b6069546001600160a01b031681565b60995460ff1681565b6068546001600160a01b031681565b3360009081526086602052604090205460ff1661212d576040805162461bcd60e51b815260206004820152601b60248201527f4f6e6c792067617264656e2063616e2061646420726577617264730000000000604482015290519081900360640190fd5b6001600160a01b038216158015906121455750600081115b612196576040805162461bcd60e51b815260206004820152601a60248201527f5573657220616e642f6f7220616d6f756e7420696e76616c6964000000000000604482015290519081900360640190fd5b336000908152609f60205260409020541561220357336000908152609f60205260409020546121e9906121ca908390614aac565b6001600160a01b038416600090815260a0602052604090205490614ad1565b6001600160a01b038316600090815260a060205260409020555b5050565b609354610100900460ff1681565b60955481565b6122236149a6565b60005b81518110156122035760016089600084848151811061224157fe5b6020908102919091018101516001600160a01b03168252810191909152604001600020805460ff1916911515919091179055600101612226565b60866020526000908152604090205460ff1681565b612298614a2b565b6001600160a01b03166122a9613b69565b6001600160a01b031614612304576040805162461bcd60e51b815260206004820181905260248201527f4f776e61626c653a2063616c6c6572206973206e6f7420746865206f776e6572604482015290519081900360640190fd5b6361d00a00421161235c576040805162461bcd60e51b815260206004820152601f60248201527f5472616e73666572732063616e6e6f7420626520656e61626c65642079657400604482015290519081900360640190fd5b6093805460ff19166001179055565b33600090815260a06020526040902054806123cd576040805162461bcd60e51b815260206004820152601460248201527f4e6f20616666696c696174652072657761726473000000000000000000000000604482015290519081900360640190fd5b604080517f70a082310000000000000000000000000000000000000000000000000000000081523060048201529051829173f4dc48d260c93ad6a96c5ce563e70ca578987c74916370a0823191602480820192602092909190829003018186803b15801561243a57600080fd5b505afa15801561244e573d6000803e3d6000fd5b505050506040513d602081101561246457600080fd5b505110156124b9576040805162461bcd60e51b815260206004820152601760248201527f4e6f7420656e6f756768204241424c2062616c616e6365000000000000000000604482015290519081900360640190fd5b33600081815260a06020908152604080832083905580517fa9059cbb0000000000000000000000000000000000000000000000000000000081526004810194909452602484018590525173f4dc48d260c93ad6a96c5ce563e70ca578987c749363a9059cbb9360448083019493928390030190829087803b15801561253d57600080fd5b505af1158015612551573d6000803e3d6000fd5b505050506040513d602081101561256757600080fd5b505060408051828152905133917f39d78c7f461cdcb4f17ad4d42e412b04713179b5d91ab5d31efdbc29c1936a0a919081900360200190a250565b606681815481106125b257600080fd5b6000918252602090912001546001600160a01b0316905081565b60935460ff1681565b606b546001600160a01b031681565b6125ec6149a6565b6001600160a01b03811660009081526089602052604090205460ff1615801561261d57506001600160a01b03811615155b612662576040805162461bcd60e51b8152602060048201526011602482015270496e636f7272656374206164647265737360781b604482015290519081900360640190fd5b6001600160a01b03166000908152608960205260409020805460ff19166001179055565b6001600160a01b031660009081526089602052604090205460ff1690565b609a6020526000908152604090205460ff1681565b60995461010090046001600160a01b031681565b60995461010090046001600160a01b031633148061270357506126ee613b69565b6001600160a01b0316336001600160a01b0316145b61273e5760405162461bcd60e51b815260040180806020018281038252603781526020018061556e6037913960400191505060405180910390fd5b612746613b69565b6001600160a01b0316336001600160a01b0316148061276d57506001600160a01b03811615155b6127be576040805162461bcd60e51b815260206004820152601e60248201527f477561726469616e2063616e6e6f742072656d6f76652068696d73656c660000604482015290519081900360640190fd5b609980546001600160a01b0383811661010081810274ffffffffffffffffffffffffffffffffffffffff00198516179094556040805194909304919091168084526020840191909152815190927f0613b6ee6a04f0d09f390e4d9318894b9f6ac7fd83897cd8d18896ba579c401e92908290030190a15050565b6071546000906001600160a01b0316612898576040805162461bcd60e51b815260206004820181905260248201527f4e65656420612064656661756c7420747261646520696e746567726174696f6e604482015290519081900360640190fd5b609b5461010090046001600160a01b0316158015906128c15750606e546001600160a01b031615155b80156128d75750606d546001600160a01b031615155b80156128ed57506068546001600160a01b031615155b80156129035750608b546001600160a01b031615155b612954576040805162461bcd60e51b815260206004820152601a60248201527f506172616d6574657273206e6f7420696e697469616c697a6564000000000000604482015290519081900360640190fd5b609b54604080517f7804a5dc00000000000000000000000000000000000000000000000000000000815233600482015290516101009092046001600160a01b031691637804a5dc91602480820192602092909190829003018186803b1580156129bc57600080fd5b505afa1580156129d0573d6000803e3d6000fd5b505050506040513d60208110156129e657600080fd5b5051806129f5575060995460ff165b612a305760405162461bcd60e51b81526004018080602001828103825260278152602001806155cf6027913960400191505060405180910390fd5b6000606a60009054906101000a90046001600160a01b03166001600160a01b0316638853932d8d338e8e8e8e8e8e8e8e6040518b63ffffffff1660e01b8152600401808b6001600160a01b031681526020018a6001600160a01b03168152602001806020018060200180602001898152602001806020018781526020018060200186810386528e818151815260200191508051906020019080838360005b83811015612ae6578181015183820152602001612ace565b50505050905090810190601f168015612b135780820380516001836020036101000a031916815260200191505b5086810385528d5181528d516020918201918f019080838360005b83811015612b46578181015183820152602001612b2e565b50505050905090810190601f168015612b735780820380516001836020036101000a031916815260200191505b5086810384528c5181528c516020918201918e019080838360005b83811015612ba6578181015183820152602001612b8e565b50505050905090810190601f168015612bd35780820380516001836020036101000a031916815260200191505b5086810383528a8a828181526020019250602002808284376000838201819052601f909101601f19169092018881038452895181528951602091820193828c0193509102908190849084905b83811015612c37578181015183820152602001612c1f565b505050509050019f50505050505050505050505050505050602060405180830381600087803b158015612c6957600080fd5b505af1158015612c7d573d6000803e3d6000fd5b505050506040513d6020811015612c9357600080fd5b505190506001600160a01b038c1673c02aaa39b223fe8d0a0e5c4f27ead9083c756cc2141580612cc1575034155b15612cef57612cdb6001600160a01b038d16333088614ae1565b612cef6001600160a01b038d168287614b6f565b6001600160a01b03811660009081526086602052604090205460ff1615612d5d576040805162461bcd60e51b815260206004820152601560248201527f47617264656e20616c7265616479206578697374730000000000000000000000604482015290519081900360640190fd5b6001600160a01b038116600081815260866020526040808220805460ff1916600190811790915560658054918201815583527f8ff97419363ffd7000167f130ef7168fbea05faf9251824ca5043f113cc6a7c70180546001600160a01b0319168417905580517f84715b1100000000000000000000000000000000000000000000000000000000815260048101899052602481018990523360448201526064810183905290516384715b119234926084808201939182900301818588803b158015612e2757600080fd5b505af1158015612e3b573d6000803e3d6000fd5b505050505082600081518110612e4d57fe5b60200260200101516000141580612e79575082600181518110612e6c57fe5b6020026020010151600014155b80612e99575082600281518110612e8c57fe5b6020026020010151600014155b15612f6157606b5483516001600160a01b03909116906380334dbe9083908690600090612ec257fe5b602002602001015186600181518110612ed757fe5b602002602001015187600281518110612eec57fe5b60200260200101516040518563ffffffff1660e01b815260040180856001600160a01b03168152602001848152602001838152602001828152602001945050505050600060405180830381600087803b158015612f4857600080fd5b505af1158015612f5c573d6000803e3d6000fd5b505050505b60405133906001600160a01b038316907f3f9c315348eaae54d760380967a68b458af53312321328f584799f93283dc1de90600090a39b9a5050505050505050505050565b612fae6149a6565b6001600160a01b038116613001576040805162461bcd60e51b8152602060048201526015602482015274041646472657373206d757374206e6f74206265203605c1b604482015290519081900360640190fd5b6071546001600160a01b0382811691161415613064576040805162461bcd60e51b815260206004820152601960248201527f41646472657373206d75737420626520646966666572656e7400000000000000604482015290519081900360640190fd5b607180546001600160a01b038381166001600160a01b031983168117909355604080519190921680825291519192917fdc1fc9970870c3bb1ad5fce4186165c260c6492487c580adc8b8e361055ac9889181900360200190a25050565b60945481565b609b5460009060ff1680611b355750506001600160a01b03166000908152609a602052604090205460ff1690565b601481565b60896020526000908152604090205460ff1681565b608b546001600160a01b031681565b609b5460ff1681565b61312f6149a6565b6001600160a01b038116613182576040805162461bcd60e51b8152602060048201526015602482015274041646472657373206d757374206e6f74206265203605c1b604482015290519081900360640190fd5b606d80546001600160a01b038381166001600160a01b031983168117909355604080519190921680825291519192917f57c1ea229271e944c7d975557caf535c1c974708de760613121827217db4ce8f9181900360200190a25050565b60995460009061010090046001600160a01b03163314806132185750613203613b69565b6001600160a01b0316336001600160a01b0316145b806132365750337397fcc2ae862d03143b393e9fa73a32b563d57a6e145b61327f576040805162461bcd60e51b81526020600482015260156024820152744e6f7420656e6f7567682070726976696c6567657360581b604482015290519081900360640190fd5b60995461010090046001600160a01b03163314801561329c575081155b156132e6576040805162461bcd60e51b81526020600482015260156024820152744e6f7420656e6f7567682070726976696c6567657360581b604482015290519081900360640190fd5b609b805483151560ff19909116811790915560408051918252517f4243b2c9cfaddae209a6aa226ac85c60aee913b594e2e2168d77c9d009cccd829181900360200190a15090565b613336614a2b565b6001600160a01b0316613347613b69565b6001600160a01b0316146133a2576040805162461bcd60e51b815260206004820181905260248201527f4f776e61626c653a2063616c6c6572206973206e6f7420746865206f776e6572604482015290519081900360640190fd5b6033546040516000916001600160a01b0316907f8be0079c531659141344cd1fd0a4f28419497f9722a3daafe3b4186f6b6457e0908390a3603380546001600160a01b0319169055565b6133f46149a6565b6001600160a01b03821660009081526086602052604090205460ff16613461576040805162461bcd60e51b815260206004820152601360248201527f47617264656e206973206e6f742076616c696400000000000000000000000000604482015290519081900360640190fd5b6001600160a01b0382166000908152609f60205260409020548114156134ce576040805162461bcd60e51b815260206004820152601060248201527f5261746520616c72656164792073657400000000000000000000000000000000604482015290519081900360640190fd5b6001600160a01b0382166000818152609f6020908152604091829020849055815184815291517f6001b82c91d9f6f183719d590df71320edeac3708f62b78e85b8aafb61e9b9d39281900390910190a25050565b73f4dc48d260c93ad6a96c5ce563e70ca578987c7481565b60935462010000900460ff1681565b600054610100900460ff16806135625750613562614cce565b80613570575060005460ff16155b6135ab5760405162461bcd60e51b815260040180806020018281038252602e815260200180615540602e913960400191505060405180910390fd5b600054610100900460ff161580156135d6576000805460ff1961ff0019909116610100171660011790555b6135de614cdf565b6611c37937e0800060955566b1a2bc2ec500006094556000609681905560975560646098556099805460ff191690556093805461ff001962ff000019909116620100001716610100179055801561363b576000805461ff00191690555b50565b613646614a2b565b6001600160a01b0316613657613b69565b6001600160a01b0316146136b2576040805162461bcd60e51b815260206004820181905260248201527f4f776e61626c653a2063616c6c6572206973206e6f7420746865206f776e6572604482015290519081900360640190fd5b6001600160a01b038116613705576040805162461bcd60e51b8152602060048201526015602482015274041646472657373206d757374206e6f74206265203605c1b604482015290519081900360640190fd5b606b80546001600160a01b038381166001600160a01b031983168117909355604080519190921680825291519192917f52cd8e0a7f86e9df123b3357ab2ee1c4cd0f5ac84ca8c98d93beb2679b2bb8069181900360200190a25050565b61376a614a2b565b6001600160a01b031661377b613b69565b6001600160a01b0316146137d6576040805162461bcd60e51b815260206004820181905260248201527f4f776e61626c653a2063616c6c6572206973206e6f7420746865206f776e6572604482015290519081900360640190fd5b6001600160a01b038116613829576040805162461bcd60e51b8152602060048201526015602482015274041646472657373206d757374206e6f74206265203605c1b604482015290519081900360640190fd5b608b80546001600160a01b038381166001600160a01b03198316811790935560408051938452911660208301819052815190927f8c3aa5f43a388513435861bf27dfad7829cd248696fed367c62d441f6295449692908290030190a15050565b6138916149a6565b6001600160a01b03811660009081526087602052604090205460ff166138fe576040805162461bcd60e51b815260206004820152601c60248201527f5265736572766520617373657420646f6573206e6f7420657869737400000000604482015290519081900360640190fd5b613969816066805480602002602001604051908101604052809291908181526020018280548015612011576020028201919060005260206000209081546001600160a01b03168152600190910190602001808311611ff3575050505050614a2f90919063ffffffff16565b805161397d9160669160209091019061545a565b506001600160a01b038116600081815260876020526040808220805460ff19169055517f2a4ae73bc76175e864e83c9843f11cf15a1bfcfa73152fb96d133416efee48ed9190a250565b6139cf614a2b565b6001600160a01b03166139e0613b69565b6001600160a01b031614613a3b576040805162461bcd60e51b815260206004820181905260248201527f4f776e61626c653a2063616c6c6572206973206e6f7420746865206f776e6572604482015290519081900360640190fd5b60008111613a90576040805162461bcd60e51b815260206004820152601d60248201527f5f6d696e5269736b79506169724c6971756964697479457468203e2030000000604482015290519081900360640190fd5b6001600160a01b03821660009081526087602052604090205460ff16613afd576040805162461bcd60e51b815260206004820152601b60248201527f4e6565647320746f20626520612076616c696420726573657276650000000000604482015290519081900360640190fd5b6001600160a01b0382166000818152608a6020908152604091829020849055815184815291517fb78c51bc9bffa228585b84c38a0234fe0a48eb7aeb9f7a6a7a46f0ddd3270dd59281900390910190a25050565b7397fcc2ae862d03143b393e9fa73a32b563d57a6e81565b6000613b73614d90565b905090565b606581815481106125b257600080fd5b606d546001600160a01b031681565b609f6020526000908152604090205481565b73c02aaa39b223fe8d0a0e5c4f27ead9083c756cc281565b60876020526000908152604090205460ff1681565b609e6020526000908152604090205460ff1681565b613bf36149a6565b6001600160a01b038116613c46576040805162461bcd60e51b8152602060048201526015602482015274041646472657373206d757374206e6f74206265203605c1b604482015290519081900360640190fd5b606f80546001600160a01b038381166001600160a01b031983168117909355604080519190921680825291519192917e40167ea3901ef812c672b081813db3c0fc117c302ace151f1f9a907906e1669181900360200190a25050565b613caa6149a6565b6001600160a01b038116613cfd576040805162461bcd60e51b8152602060048201526015602482015274041646472657373206d757374206e6f74206265203605c1b604482015290519081900360640190fd5b609c80546001600160a01b038381166001600160a01b031983168117909355604080519190921680825291519192917f94bbd8546306809f8c10cb17628a431e44d23cd7414035173915e71560575b319181900360200190a25050565b613d626149a6565b6068546001600160a01b0382811691161415613dc5576040805162461bcd60e51b815260206004820152601c60248201527f47617264656e2056616c75657220616c72656164792065786973747300000000604482015290519081900360640190fd5b6001600160a01b038116613e20576040805162461bcd60e51b815260206004820152601860248201527f47617264656e2056616c756572206d7573742065786973740000000000000000604482015290519081900360640190fd5b606880546001600160a01b038381166001600160a01b031983168117909355604080519190921680825291519192917fb89b871cab0fe1b2d8c7cc3e16640ef9a9bf67f031e44947331820e025bf69479181900360200190a25050565b60606066805480602002602001604051908101604052809291908181526020018280548015613ed557602002820191906000526020600020905b81546001600160a01b03168152600190910190602001808311613eb7575b5050505050905090565b613ee76149a6565b6069546001600160a01b0382811691161415613f4a576040805162461bcd60e51b815260206004820152601b60248201527f5072696365206f7261636c6520616c7265616479206578697374730000000000604482015290519081900360640190fd5b6001600160a01b038116613fa5576040805162461bcd60e51b815260206004820152601760248201527f5072696365206f7261636c65206d757374206578697374000000000000000000604482015290519081900360640190fd5b606980546001600160a01b038381166001600160a01b031983168117909355604080519190921680825291519192917f40bddd72ea96b80dae14e3d13e8ce2c4ecd2500d88c6c0004d24a00deab28f9c9181900360200190a25050565b60a06020526000908152604090205481565b606a546001600160a01b031681565b606c546001600160a01b031681565b61403a6149a6565b601460ff831610614092576040805162461bcd60e51b815260206004820152601660248201527f4d6178206f7065726174696f6e73207265616368656400000000000000000000604482015290519081900360640190fd5b806001600160a01b031660728360ff16601481106140ac57fe5b01546001600160a01b0316141561410a576040805162461bcd60e51b815260206004820152601560248201527f4f7065726174696f6e20616c7265616479207365740000000000000000000000604482015290519081900360640190fd5b6001600160a01b038116614165576040805162461bcd60e51b815260206004820152601d60248201527f4f7065726174696f6e2061646472657373206d7573742065786973742e000000604482015290519081900360640190fd5b8060728360ff166014811061417657fe5b0180546001600160a01b039283166001600160a01b03199091161790556040805191831682525160ff8416917f2dc23b4bb2132388a8a9f2d4a7ec650d42dcd4c1c63e6495756fa25e8ecc6abd919081900360200190a25050565b606f546001600160a01b031681565b60606065805480602002602001604051908101604052809291908181526020018280548015613ed5576020028201919060005260206000209081546001600160a01b03168152600190910190602001808311613eb7575050505050905090565b6142486149a6565b6001600160a01b03811661429b576040805162461bcd60e51b8152602060048201526015602482015274041646472657373206d757374206e6f74206265203605c1b604482015290519081900360640190fd5b606e80546001600160a01b038381166001600160a01b031983168117909355604080519190921680825291519192917f578086cc379999d712cf9ea4c177a02b092c028a84cf82d2dd590f2606b3169f9181900360200190a25050565b6071546001600160a01b031681565b61430f6149a6565b6001600160a01b038116614362576040805162461bcd60e51b8152602060048201526015602482015274041646472657373206d757374206e6f74206265203605c1b604482015290519081900360640190fd5b606a80546001600160a01b038381166001600160a01b031983168117909355604080519190921680825291519192917f1e3307b8b00f4ec731298a869e9665a2662abd65a0e3fe9dd01fd53c35b0ae939181900360200190a25050565b6143c76149a6565b6001600160a01b03811661441a576040805162461bcd60e51b8152602060048201526015602482015274041646472657373206d757374206e6f74206265203605c1b604482015290519081900360640190fd5b609d80546001600160a01b0319166001600160a01b0392909216919091179055565b606e546001600160a01b031681565b6144536149a6565b6001600160a01b038116158015906144d357506012816001600160a01b031663313ce5676040518163ffffffff1660e01b815260040160206040518083038186803b1580156144a157600080fd5b505afa1580156144b5573d6000803e3d6000fd5b505050506040513d60208110156144cb57600080fd5b505160ff1611155b614518576040805162461bcd60e51b8152602060048201526011602482015270496e636f7272656374206164647265737360781b604482015290519081900360640190fd5b6001600160a01b03811660009081526087602052604090205460ff1615614586576040805162461bcd60e51b815260206004820152601b60248201527f5265736572766520617373657420616c72656164792061646465640000000000604482015290519081900360640190fd5b6001600160a01b038116600081815260876020526040808220805460ff1916600190811790915560668054918201815583527f46501879b8ca8525e8c2fd519e2fbfcfa2ebea26501294aa02cbfcfb12e943540180546001600160a01b03191684179055517f9fef46e320a4767c320315d2f597ee79c1e17c3c3330d026764d6a7dac8fcd5c9190a250565b608a6020526000908152604090205481565b61462c614a2b565b6001600160a01b031661463d613b69565b6001600160a01b031614614698576040805162461bcd60e51b815260206004820181905260248201527f4f776e61626c653a2063616c6c6572206973206e6f7420746865206f776e6572604482015290519081900360640190fd5b6001600160a01b0381166146dd5760405162461bcd60e51b81526004018080602001828103825260268152602001806154f46026913960400191505060405180910390fd5b6033546040516001600160a01b038084169216907f8be0079c531659141344cd1fd0a4f28419497f9722a3daafe3b4186f6b6457e090600090a3603380546001600160a01b0319166001600160a01b0392909216919091179055565b609d546001600160a01b031681565b609c546001600160a01b031681565b61475f6149a6565b6001600160a01b038216158015906147df57506012826001600160a01b031663313ce5676040518163ffffffff1660e01b815260040160206040518083038186803b1580156147ad57600080fd5b505afa1580156147c1573d6000803e3d6000fd5b505050506040513d60208110156147d757600080fd5b505160ff1611155b614824576040805162461bcd60e51b8152602060048201526011602482015270496e636f7272656374206164647265737360781b604482015290519081900360640190fd5b6001600160a01b0382166000908152609e602052604090205460ff1615158115151415614898576040805162461bcd60e51b815260206004820152601a60248201527f57616e74656420617373657420616c7265616479206164646564000000000000604482015290519081900360640190fd5b6001600160a01b0382166000818152609e6020908152604091829020805460ff1916851515908117909155825190815291517f67503734b7ad09f7024bc138f4a86f1f004e8e8d34c23e5f18f495b4e425545b9281900390910190a25050565b6149006154bf565b60408051610280810191829052607280546001600160a01b031682529091601490607360208501808311613eb7575050505050905090565b6001600160a01b031660009081526087602052604090205460ff1690565b6000805b601460ff8216101561499d5760728160ff166014811061497657fe5b01546001600160a01b0384811691161415614995576001915050611b38565b60010161495a565b50600092915050565b6149ae613b69565b6001600160a01b0316336001600160a01b031614806149e05750337397fcc2ae862d03143b393e9fa73a32b563d57a6e145b614a29576040805162461bcd60e51b81526020600482015260156024820152744e6f7420656e6f7567682070726976696c6567657360581b604482015290519081900360640190fd5b565b3390565b6060600080614a3e8585614d9f565b9150915080614a94576040805162461bcd60e51b815260206004820152601560248201527f41646472657373206e6f7420696e2061727261792e0000000000000000000000604482015290519081900360640190fd5b6000614aa08684614e05565b50935061170292505050565b6000614aca670de0b6b3a7640000614ac48585614f69565b90614f8d565b9392505050565b8082018281101561170257600080fd5b604080516001600160a01b0380861660248301528416604482015260648082018490528251808303909101815260849091019091526020810180517bffffffffffffffffffffffffffffffffffffffffffffffffffffffff167f23b872dd00000000000000000000000000000000000000000000000000000000179052614b69908590614ff4565b50505050565b801580614c0e5750604080517fdd62ed3e0000000000000000000000000000000000000000000000000000000081523060048201526001600160a01b03848116602483015291519185169163dd62ed3e91604480820192602092909190829003018186803b158015614be057600080fd5b505afa158015614bf4573d6000803e3d6000fd5b505050506040513d6020811015614c0a57600080fd5b5051155b614c495760405162461bcd60e51b81526004018080602001828103825260368152602001806155f66036913960400191505060405180910390fd5b604080516001600160a01b038416602482015260448082018490528251808303909101815260649091019091526020810180517bffffffffffffffffffffffffffffffffffffffffffffffffffffffff167f095ea7b300000000000000000000000000000000000000000000000000000000179052614cc9908490614ff4565b505050565b6000614cd9306150a5565b15905090565b600054610100900460ff1680614cf85750614cf8614cce565b80614d06575060005460ff16155b614d415760405162461bcd60e51b815260040180806020018281038252602e815260200180615540602e913960400191505060405180910390fd5b600054610100900460ff16158015614d6c576000805460ff1961ff0019909116610100171660011790555b614d746150ab565b614d7c61514b565b801561363b576000805461ff001916905550565b6033546001600160a01b031690565b81516000908190815b81811015614df257846001600160a01b0316868281518110614dc657fe5b60200260200101516001600160a01b03161415614dea57925060019150614dfe9050565b600101614da8565b50600019600092509250505b9250929050565b8151606090600090808410614e61576040805162461bcd60e51b815260206004820152601860248201527f496e646578206d757374206265203c2041206c656e6774680000000000000000604482015290519081900360640190fd5b60006001820367ffffffffffffffff81118015614e7d57600080fd5b50604051908082528060200260200182016040528015614ea7578160200160208202803683370190505b50905060005b85811015614ef557868181518110614ec157fe5b6020026020010151828281518110614ed557fe5b6001600160a01b0390921660209283029190910190910152600101614ead565b50600185015b82811015614f4657868181518110614f0f57fe5b6020026020010151826001830381518110614f2657fe5b6001600160a01b0390921660209283029190910190910152600101614efb565b5080868681518110614f5457fe5b60200260200101519350935050509250929050565b6000821580614f8457505081810281838281614f8157fe5b04145b61170257600080fd5b6000808211614fe3576040805162461bcd60e51b815260206004820152601a60248201527f536166654d6174683a206469766973696f6e206279207a65726f000000000000604482015290519081900360640190fd5b818381614fec57fe5b049392505050565b6000615049826040518060400160405280602081526020017f5361666545524332303a206c6f772d6c6576656c2063616c6c206661696c6564815250856001600160a01b03166152449092919063ffffffff16565b805190915015614cc95780806020019051602081101561506857600080fd5b5051614cc95760405162461bcd60e51b815260040180806020018281038252602a8152602001806155a5602a913960400191505060405180910390fd5b3b151590565b600054610100900460ff16806150c457506150c4614cce565b806150d2575060005460ff16155b61510d5760405162461bcd60e51b815260040180806020018281038252602e815260200180615540602e913960400191505060405180910390fd5b600054610100900460ff16158015614d7c576000805460ff1961ff001990911661010017166001179055801561363b576000805461ff001916905550565b600054610100900460ff16806151645750615164614cce565b80615172575060005460ff16155b6151ad5760405162461bcd60e51b815260040180806020018281038252602e815260200180615540602e913960400191505060405180910390fd5b600054610100900460ff161580156151d8576000805460ff1961ff0019909116610100171660011790555b60006151e2614a2b565b603380546001600160a01b0319166001600160a01b038316908117909155604051919250906000907f8be0079c531659141344cd1fd0a4f28419497f9722a3daafe3b4186f6b6457e0908290a350801561363b576000805461ff001916905550565b6060615253848460008561525b565b949350505050565b60608247101561529c5760405162461bcd60e51b815260040180806020018281038252602681526020018061551a6026913960400191505060405180910390fd5b6152a5856150a5565b6152f6576040805162461bcd60e51b815260206004820152601d60248201527f416464726573733a2063616c6c20746f206e6f6e2d636f6e7472616374000000604482015290519081900360640190fd5b600080866001600160a01b031685876040518082805190602001908083835b602083106153345780518252601f199092019160209182019101615315565b6001836020036101000a03801982511681845116808217855250505050505090500191505060006040518083038185875af1925050503d8060008114615396576040519150601f19603f3d011682016040523d82523d6000602084013e61539b565b606091505b50915091506153ab8282866153b6565b979650505050505050565b606083156153c5575081614aca565b8251156153d55782518084602001fd5b8160405162461bcd60e51b81526004018080602001828103825283818151815260200191508051906020019080838360005b8381101561541f578181015183820152602001615407565b50505050905090810190601f16801561544c5780820380516001836020036101000a031916815260200191505b509250505060405180910390fd5b8280548282559060005260206000209081019282156154af579160200282015b828111156154af57825182546001600160a01b0319166001600160a01b0390911617825560209092019160019091019061547a565b506154bb9291506154de565b5090565b6040518061028001604052806014906020820280368337509192915050565b5b808211156154bb57600081556001016154df56fe4f776e61626c653a206e6577206f776e657220697320746865207a65726f2061646472657373416464726573733a20696e73756666696369656e742062616c616e636520666f722063616c6c496e697469616c697a61626c653a20636f6e747261637420697320616c726561647920696e697469616c697a65646f6e6c7920706175736520677561726469616e20616e64206f776e65722063616e2075706461746520706175736520677561726469616e5361666545524332303a204552433230206f7065726174696f6e20646964206e6f7420737563636565645573657220646f6573206e6f742068617665206372656174696f6e207065726d697373696f6e735361666545524332303a20617070726f76652066726f6d206e6f6e2d7a65726f20746f206e6f6e2d7a65726f20616c6c6f77616e6365a2646970667358221220d3184611086ecdd8c56c1852ae50405f6b5e8b6eb6647938edc163fab4a585c264736f6c63430007060033",
  "devdoc": {
    "kind": "dev",
    "methods": {
      "addAffiliateReward(address,uint256)": {
        "params": {
          "_reserveAmount": "Amount of reserved deposited by a link of the user",
          "_user": "Address of the user"
        }
      },
      "addKeeper(address)": {
        "params": {
          "_keeper": "Address of the keeper"
        }
      },
      "addKeepers(address[])": {
        "params": {
          "_keepers": "List with keeprs of the assets to whitelist"
        }
      },
      "addReserveAsset(address)": {
        "params": {
          "_reserveAsset": "Address of the reserve assset"
        }
      },
      "createGarden(address,string,string,string,uint256,uint256[],uint256,bool[],uint256[])": {
        "params": {
          "_gardenParams": "Array of numeric garden params",
          "_initialContribution": "Initial contribution by the gardener",
          "_name": "Name of the Garden",
          "_profitSharing": "Custom profit sharing (if any)",
          "_publicGardenStrategistsStewards": "Public garden, public strategist rights and public stewards rights",
          "_reserveAsset": "Reserve asset of the Garden. Initially just weth",
          "_seed": "Seed to regenerate the garden NFT",
          "_symbol": "Symbol of the Garden",
          "_tokenURI": "Garden NFT token URI"
        }
      },
      "editCurveMetaRegistry(address)": {
        "params": {
          "_curveMetaRegistry": "Address of the new curve meta registry"
        }
      },
      "editGardenFactory(address)": {
        "params": {
          "_newGardenFactory": "Address of the new garden factory"
        }
      },
      "editGardenNFT(address)": {
        "params": {
          "_newGardenNFT": "Address of the new garden NFT"
        }
      },
      "editGardenValuer(address)": {
        "params": {
          "_gardenValuer": "Address of the new garden valuer"
        }
      },
      "editHeart(address)": {
        "params": {
          "_newHeart": "Address of the new heart"
        }
      },
      "editLiquidityReserve(address,uint256)": {
        "params": {
          "_newMinLiquidityReserve": "Absolute min liquidity of an asset to grab price",
          "_reserve": "Address of the reserve to edit"
        }
      },
      "editMardukGate(address)": {
        "params": {
          "_mardukGate": "Address of the new Marduk Gate"
        }
      },
      "editPriceOracle(address)": {
        "params": {
          "_priceOracle": "Address of the new price oracle"
        }
      },
      "editStrategyFactory(address)": {
        "params": {
          "_newStrategyFactory": "Address of the new strategy factory"
        }
      },
      "editStrategyNFT(address)": {
        "params": {
          "_newStrategyNFT": "Address of the new strategy NFT"
        }
      },
      "editTreasury(address)": {
        "params": {
          "_newTreasury": "Address of the new protocol fee recipient"
        }
      },
      "isPaused(address)": {
        "params": {
          "_contract": "Smartcontract address to check for a global or specific pause"
        }
      },
      "isSystemContract(address)": {
        "params": {
          "_contractAddress": "The contract address to check"
        }
      },
      "removeGarden(address)": {
        "params": {
          "_garden": "Address of the Garden contract to remove"
        }
      },
      "removeKeeper(address)": {
        "params": {
          "_keeper": "Address of the keeper"
        }
      },
      "removeReserveAsset(address)": {
        "params": {
          "_reserveAsset": "Address of the reserve asset to remove"
        }
      },
      "renounceOwnership()": {
        "details": "Leaves the contract without owner. It will not be possible to call `onlyOwner` functions anymore. Can only be called by the current owner. NOTE: Renouncing ownership will leave the contract without an owner, thereby removing any functionality that is only available to the owner."
      },
      "setGlobalPause(bool)": {
        "params": {
          "_state": "True to pause, false to unpause."
        }
      },
      "setMasterSwapper(address)": {
        "params": {
          "_newDefaultMasterSwapper": "Address of the new default trade integration"
        }
      },
      "setOperation(uint8,address)": {
        "params": {
          "_kind": "Operation kind",
          "_operation": "Address of the operation contract to set"
        }
      },
      "setPauseGuardian(address)": {
        "params": {
          "_guardian": "Address of the guardian"
        }
      },
      "setSomePause(address[],bool)": {
        "params": {
          "_address": "Addresses of protocol smartcontract to be paused",
          "_state": "Boolean pause state"
        }
      },
      "transferOwnership(address)": {
        "details": "Transfers ownership of the contract to a new account (`newOwner`). Can only be called by the current owner."
      },
      "updateGardenAffiliateRate(address,uint256)": {
        "params": {
          "_affiliateRate": "Affiliate rate for this garden",
          "_garden": "Address of the garden"
        }
      },
      "updateProtocolWantedAsset(address,bool)": {
        "params": {
          "_wanted": "True if wanted, false otherwise",
          "_wantedAsset": "Address of the wanted assset"
        }
      }
    },
    "version": 1
  },
  "userdoc": {
    "events": {
      "ActionPaused(bool)": {
        "notice": "Emitted when an action is paused globally"
      },
      "ActionPausedIndividually(address,bool)": {
        "notice": "Emitted when an action is paused individually"
      },
      "NewPauseGuardian(address,address)": {
        "notice": "Emitted when pause guardian is changed"
      }
    },
    "kind": "user",
    "methods": {
      "addAffiliateReward(address,uint256)": {
        "notice": "PRIVILEGED FUNCTION. Adds the affiliate rewards earned by an user Only a garden can call this"
      },
      "addKeeper(address)": {
        "notice": "PRIVILEGED FUNCTION. Adds a new valid keeper to the list"
      },
      "addKeepers(address[])": {
        "notice": "PRIVILEGED FUNCTION. Adds a list of assets to the whitelist"
      },
      "addReserveAsset(address)": {
        "notice": "PRIVILEGED FUNCTION. Adds a new valid reserve asset for gardens"
      },
      "claimRewards()": {
        "notice": "Claims affiliate rewards Controller needs to hold BABL."
      },
      "createGarden(address,string,string,string,uint256,uint256[],uint256,bool[],uint256[])": {
        "notice": "Creates a Garden smart contract and registers the Garden with the controller. If asset is not WETH, the creator needs to approve the controller"
      },
      "editCurveMetaRegistry(address)": {
        "notice": "PRIVILEGED GOVERNANCE FUNCTION. Allows governance to edit the curve meta registry"
      },
      "editGardenFactory(address)": {
        "notice": "PRIVILEGED GOVERNANCE FUNCTION. Allows governance to edit the protocol garden factory"
      },
      "editGardenNFT(address)": {
        "notice": "PRIVILEGED GOVERNANCE FUNCTION. Allows governance to edit the protocol garden NFT"
      },
      "editGardenValuer(address)": {
        "notice": "PRIVILEGED GOVERNANCE FUNCTION. Allows governance to change the garden valuer"
      },
      "editHeart(address)": {
        "notice": "PRIVILEGED GOVERNANCE FUNCTION. Allows governance to edit the heart contract"
      },
      "editLiquidityReserve(address,uint256)": {
        "notice": "GOVERNANCE FUNCTION: Edits the minimum liquidity an asset must have on Uniswap"
      },
      "editMardukGate(address)": {
        "notice": "PRIVILEGED GOVERNANCE FUNCTION. Allows governance to change the Marduk Gate Address"
      },
      "editPriceOracle(address)": {
        "notice": "PRIVILEGED GOVERNANCE FUNCTION. Allows governance to change the price oracle"
      },
      "editStrategyFactory(address)": {
        "notice": "PRIVILEGED GOVERNANCE FUNCTION. Allows governance to edit the protocol strategy factory"
      },
      "editStrategyNFT(address)": {
        "notice": "PRIVILEGED GOVERNANCE FUNCTION. Allows governance to edit the protocol strategy NFT"
      },
      "editTreasury(address)": {
        "notice": "PRIVILEGED GOVERNANCE FUNCTION. Allows governance to edit the protocol fee recipient"
      },
      "enableGardenTokensTransfers()": {
        "notice": "PRIVILEGED GOVERNANCE FUNCTION. Allows transfers of ERC20 gardenTokens Can only happen after 2021 is finished."
      },
      "initialize()": {
        "notice": "Initializes the initial fee recipient on deployment."
      },
      "isPaused(address)": {
        "notice": "Check whether or not there is a global pause or a specific pause of the provided contract address"
      },
      "isSystemContract(address)": {
        "notice": "Check if a contract address is a garden or one of the system contracts"
      },
      "removeGarden(address)": {
        "notice": "PRIVILEGED GOVERNANCE FUNCTION. Allows governance to remove a Garden"
      },
      "removeKeeper(address)": {
        "notice": "PRIVILEGED FUNCTION. Removes a keeper"
      },
      "removeReserveAsset(address)": {
        "notice": "PRIVILEGED GOVERNANCE FUNCTION. Allows governance to remove a reserve asset"
      },
      "setGlobalPause(bool)": {
        "notice": "PRIVILEGED GOVERNANCE FUNCTION. Pause the protocol globally in case of unexpected issue Only the governance can unpause it"
      },
      "setMasterSwapper(address)": {
        "notice": "PRIVILEGED GOVERNANCE FUNCTION. Allows governance to edit the protocol default trde integration"
      },
      "setOperation(uint8,address)": {
        "notice": "GOVERNANCE FUNCTION: Edit an existing operation on the registry"
      },
      "setPauseGuardian(address)": {
        "notice": "PRIVILEGED GOVERNANCE FUNCTION. Set-up a pause guardian"
      },
      "setSomePause(address[],bool)": {
        "notice": "PRIVILEGED GOVERNANCE FUNCTION. Pause some smartcontracts in a batch process in case of unexpected issue Only the governance can unpause it"
      },
      "updateGardenAffiliateRate(address,uint256)": {
        "notice": "PRIVILEGED FUNCTION. Updates the affiliate rate for a garden. 0 if none."
      },
      "updateProtocolWantedAsset(address,bool)": {
        "notice": "PRIVILEGED FUNCTION. Updates a protocol wanted asset"
      }
    },
    "version": 1
  },
  "storageLayout": {
    "storage": [
      {
        "astId": 492,
        "contract": "contracts/BabController.sol:BabControllerV16",
        "label": "_initialized",
        "offset": 0,
        "slot": "0",
        "type": "t_bool"
      },
      {
        "astId": 495,
        "contract": "contracts/BabController.sol:BabControllerV16",
        "label": "_initializing",
        "offset": 1,
        "slot": "0",
        "type": "t_bool"
      },
      {
        "astId": 1447,
        "contract": "contracts/BabController.sol:BabControllerV16",
        "label": "__gap",
        "offset": 0,
        "slot": "1",
        "type": "t_array(t_uint256)50_storage"
      },
      {
        "astId": 10,
        "contract": "contracts/BabController.sol:BabControllerV16",
        "label": "_owner",
        "offset": 0,
        "slot": "51",
        "type": "t_address"
      },
      {
        "astId": 129,
        "contract": "contracts/BabController.sol:BabControllerV16",
        "label": "__gap",
        "offset": 0,
        "slot": "52",
        "type": "t_array(t_uint256)49_storage"
      },
      {
        "astId": 9329,
        "contract": "contracts/BabController.sol:BabControllerV16",
        "label": "gardens",
        "offset": 0,
        "slot": "101",
        "type": "t_array(t_address)dyn_storage"
      },
      {
        "astId": 9332,
        "contract": "contracts/BabController.sol:BabControllerV16",
        "label": "reserveAssets",
        "offset": 0,
        "slot": "102",
        "type": "t_array(t_address)dyn_storage"
      },
      {
        "astId": 9334,
        "contract": "contracts/BabController.sol:BabControllerV16",
        "label": "uniswapFactory",
        "offset": 0,
        "slot": "103",
        "type": "t_address"
      },
      {
        "astId": 9337,
        "contract": "contracts/BabController.sol:BabControllerV16",
        "label": "gardenValuer",
        "offset": 0,
        "slot": "104",
        "type": "t_address"
      },
      {
        "astId": 9340,
        "contract": "contracts/BabController.sol:BabControllerV16",
        "label": "priceOracle",
        "offset": 0,
        "slot": "105",
        "type": "t_address"
      },
      {
        "astId": 9343,
        "contract": "contracts/BabController.sol:BabControllerV16",
        "label": "gardenFactory",
        "offset": 0,
        "slot": "106",
        "type": "t_address"
      },
      {
        "astId": 9346,
        "contract": "contracts/BabController.sol:BabControllerV16",
        "label": "rewardsDistributor",
        "offset": 0,
        "slot": "107",
        "type": "t_address"
      },
      {
        "astId": 9349,
        "contract": "contracts/BabController.sol:BabControllerV16",
        "label": "ishtarGate",
        "offset": 0,
        "slot": "108",
        "type": "t_address"
      },
      {
        "astId": 9352,
        "contract": "contracts/BabController.sol:BabControllerV16",
        "label": "strategyFactory",
        "offset": 0,
        "slot": "109",
        "type": "t_address"
      },
      {
        "astId": 9355,
        "contract": "contracts/BabController.sol:BabControllerV16",
        "label": "gardenNFT",
        "offset": 0,
        "slot": "110",
        "type": "t_address"
      },
      {
        "astId": 9358,
        "contract": "contracts/BabController.sol:BabControllerV16",
        "label": "strategyNFT",
        "offset": 0,
        "slot": "111",
        "type": "t_address"
      },
      {
        "astId": 9362,
        "contract": "contracts/BabController.sol:BabControllerV16",
        "label": "enabledIntegrations",
        "offset": 0,
        "slot": "112",
        "type": "t_mapping(t_bytes32,t_address)"
      },
      {
        "astId": 9365,
        "contract": "contracts/BabController.sol:BabControllerV16",
        "label": "masterSwapper",
        "offset": 0,
        "slot": "113",
        "type": "t_address"
      },
      {
        "astId": 9370,
        "contract": "contracts/BabController.sol:BabControllerV16",
        "label": "enabledOperations",
        "offset": 0,
        "slot": "114",
        "type": "t_array(t_address)20_storage"
      },
      {
        "astId": 9375,
        "contract": "contracts/BabController.sol:BabControllerV16",
        "label": "isGarden",
        "offset": 0,
        "slot": "134",
        "type": "t_mapping(t_address,t_bool)"
      },
      {
        "astId": 9379,
        "contract": "contracts/BabController.sol:BabControllerV16",
        "label": "validReserveAsset",
        "offset": 0,
        "slot": "135",
        "type": "t_mapping(t_address,t_bool)"
      },
      {
        "astId": 9383,
        "contract": "contracts/BabController.sol:BabControllerV16",
        "label": "assetWhitelist",
        "offset": 0,
        "slot": "136",
        "type": "t_mapping(t_address,t_bool)"
      },
      {
        "astId": 9387,
        "contract": "contracts/BabController.sol:BabControllerV16",
        "label": "keeperList",
        "offset": 0,
        "slot": "137",
        "type": "t_mapping(t_address,t_bool)"
      },
      {
        "astId": 9392,
        "contract": "contracts/BabController.sol:BabControllerV16",
        "label": "minLiquidityPerReserve",
        "offset": 0,
        "slot": "138",
        "type": "t_mapping(t_address,t_uint256)"
      },
      {
        "astId": 9395,
        "contract": "contracts/BabController.sol:BabControllerV16",
        "label": "treasury",
        "offset": 0,
        "slot": "139",
        "type": "t_address"
      },
      {
        "astId": 9397,
        "contract": "contracts/BabController.sol:BabControllerV16",
        "label": "strategistProfitPercentage",
        "offset": 0,
        "slot": "140",
        "type": "t_uint256"
      },
      {
        "astId": 9399,
        "contract": "contracts/BabController.sol:BabControllerV16",
        "label": "stewardsProfitPercentage",
        "offset": 0,
        "slot": "141",
        "type": "t_uint256"
      },
      {
        "astId": 9401,
        "contract": "contracts/BabController.sol:BabControllerV16",
        "label": "lpsProfitPercentage",
        "offset": 0,
        "slot": "142",
        "type": "t_uint256"
      },
      {
        "astId": 9403,
        "contract": "contracts/BabController.sol:BabControllerV16",
        "label": "strategistBABLPercentage",
        "offset": 0,
        "slot": "143",
        "type": "t_uint256"
      },
      {
        "astId": 9405,
        "contract": "contracts/BabController.sol:BabControllerV16",
        "label": "stewardsBABLPercentage",
        "offset": 0,
        "slot": "144",
        "type": "t_uint256"
      },
      {
        "astId": 9407,
        "contract": "contracts/BabController.sol:BabControllerV16",
        "label": "lpsBABLPercentage",
        "offset": 0,
        "slot": "145",
        "type": "t_uint256"
      },
      {
        "astId": 9409,
        "contract": "contracts/BabController.sol:BabControllerV16",
        "label": "gardenCreatorBonus",
        "offset": 0,
        "slot": "146",
        "type": "t_uint256"
      },
      {
        "astId": 9412,
        "contract": "contracts/BabController.sol:BabControllerV16",
        "label": "gardenTokensTransfersEnabled",
        "offset": 0,
        "slot": "147",
        "type": "t_bool"
      },
      {
        "astId": 9415,
        "contract": "contracts/BabController.sol:BabControllerV16",
        "label": "bablMiningProgramEnabled",
        "offset": 1,
        "slot": "147",
        "type": "t_bool"
      },
      {
        "astId": 9418,
        "contract": "contracts/BabController.sol:BabControllerV16",
        "label": "allowPublicGardens",
        "offset": 2,
        "slot": "147",
        "type": "t_bool"
      },
      {
        "astId": 9421,
        "contract": "contracts/BabController.sol:BabControllerV16",
        "label": "protocolPerformanceFee",
        "offset": 0,
        "slot": "148",
        "type": "t_uint256"
      },
      {
        "astId": 9424,
        "contract": "contracts/BabController.sol:BabControllerV16",
        "label": "protocolManagementFee",
        "offset": 0,
        "slot": "149",
        "type": "t_uint256"
      },
      {
        "astId": 9426,
        "contract": "contracts/BabController.sol:BabControllerV16",
        "label": "protocolDepositGardenTokenFee",
        "offset": 0,
        "slot": "150",
        "type": "t_uint256"
      },
      {
        "astId": 9428,
        "contract": "contracts/BabController.sol:BabControllerV16",
        "label": "protocolWithdrawalGardenTokenFee",
        "offset": 0,
        "slot": "151",
        "type": "t_uint256"
      },
      {
        "astId": 9430,
        "contract": "contracts/BabController.sol:BabControllerV16",
        "label": "maxContributorsPerGarden",
        "offset": 0,
        "slot": "152",
        "type": "t_uint256"
      },
      {
        "astId": 9433,
        "contract": "contracts/BabController.sol:BabControllerV16",
        "label": "gardenCreationIsOpen",
        "offset": 0,
        "slot": "153",
        "type": "t_bool"
      },
      {
        "astId": 9435,
        "contract": "contracts/BabController.sol:BabControllerV16",
        "label": "guardian",
        "offset": 1,
        "slot": "153",
        "type": "t_address"
      },
      {
        "astId": 9440,
        "contract": "contracts/BabController.sol:BabControllerV16",
        "label": "guardianPaused",
        "offset": 0,
        "slot": "154",
        "type": "t_mapping(t_address,t_bool)"
      },
      {
        "astId": 9443,
        "contract": "contracts/BabController.sol:BabControllerV16",
        "label": "guardianGlobalPaused",
        "offset": 0,
        "slot": "155",
        "type": "t_bool"
      },
      {
        "astId": 9446,
        "contract": "contracts/BabController.sol:BabControllerV16",
        "label": "mardukGate",
        "offset": 1,
        "slot": "155",
        "type": "t_address"
      },
      {
        "astId": 9449,
        "contract": "contracts/BabController.sol:BabControllerV16",
        "label": "heart",
        "offset": 0,
        "slot": "156",
        "type": "t_address"
      },
      {
        "astId": 9452,
        "contract": "contracts/BabController.sol:BabControllerV16",
        "label": "curveMetaRegistry",
        "offset": 0,
        "slot": "157",
        "type": "t_address"
      },
      {
        "astId": 9457,
        "contract": "contracts/BabController.sol:BabControllerV16",
        "label": "protocolWantedAssets",
        "offset": 0,
        "slot": "158",
        "type": "t_mapping(t_address,t_bool)"
      },
      {
        "astId": 9462,
        "contract": "contracts/BabController.sol:BabControllerV16",
        "label": "gardenAffiliateRates",
        "offset": 0,
        "slot": "159",
        "type": "t_mapping(t_address,t_uint256)"
      },
      {
        "astId": 9467,
        "contract": "contracts/BabController.sol:BabControllerV16",
        "label": "affiliateRewards",
        "offset": 0,
        "slot": "160",
        "type": "t_mapping(t_address,t_uint256)"
      }
    ],
    "types": {
      "t_address": {
        "encoding": "inplace",
        "label": "address",
        "numberOfBytes": "20"
      },
      "t_array(t_address)20_storage": {
        "base": "t_address",
        "encoding": "inplace",
        "label": "address[20]",
        "numberOfBytes": "640"
      },
      "t_array(t_address)dyn_storage": {
        "base": "t_address",
        "encoding": "dynamic_array",
        "label": "address[]",
        "numberOfBytes": "32"
      },
      "t_array(t_uint256)49_storage": {
        "base": "t_uint256",
        "encoding": "inplace",
        "label": "uint256[49]",
        "numberOfBytes": "1568"
      },
      "t_array(t_uint256)50_storage": {
        "base": "t_uint256",
        "encoding": "inplace",
        "label": "uint256[50]",
        "numberOfBytes": "1600"
      },
      "t_bool": {
        "encoding": "inplace",
        "label": "bool",
        "numberOfBytes": "1"
      },
      "t_bytes32": {
        "encoding": "inplace",
        "label": "bytes32",
        "numberOfBytes": "32"
      },
      "t_mapping(t_address,t_bool)": {
        "encoding": "mapping",
        "key": "t_address",
        "label": "mapping(address => bool)",
        "numberOfBytes": "32",
        "value": "t_bool"
      },
      "t_mapping(t_address,t_uint256)": {
        "encoding": "mapping",
        "key": "t_address",
        "label": "mapping(address => uint256)",
        "numberOfBytes": "32",
        "value": "t_uint256"
      },
      "t_mapping(t_bytes32,t_address)": {
        "encoding": "mapping",
        "key": "t_bytes32",
        "label": "mapping(bytes32 => address)",
        "numberOfBytes": "32",
        "value": "t_address"
      },
      "t_uint256": {
        "encoding": "inplace",
        "label": "uint256",
        "numberOfBytes": "32"
      }
    }
  }
}