{
  "address": "0x30C2a7463474592eB5A3B78d7DA5d9eF8227ebe4",
  "abi": [
    {
      "anonymous": false,
      "inputs": [
        {
          "indexed": false,
          "internalType": "string",
          "name": "_action",
          "type": "string"
        },
        {
          "indexed": false,
          "internalType": "bool",
          "name": "_pauseState",
          "type": "bool"
        }
      ],
      "name": "ActionPaused",
      "type": "event"
    },
    {
      "anonymous": false,
      "inputs": [
        {
          "indexed": false,
          "internalType": "string",
          "name": "_action",
          "type": "string"
        },
        {
          "indexed": false,
          "internalType": "address",
          "name": "_address",
          "type": "address"
        },
        {
          "indexed": false,
          "internalType": "bool",
          "name": "_pauseState",
          "type": "bool"
        }
      ],
      "name": "ActionPausedIndividually",
      "type": "event"
    },
    {
      "anonymous": false,
      "inputs": [
        {
          "indexed": false,
          "internalType": "address",
          "name": "_integration",
          "type": "address"
        },
        {
          "indexed": true,
          "internalType": "string",
          "name": "_integrationName",
          "type": "string"
        }
      ],
      "name": "ControllerIntegrationAdded",
      "type": "event"
    },
    {
      "anonymous": false,
      "inputs": [
        {
          "indexed": false,
          "internalType": "address",
          "name": "_newIntegration",
          "type": "address"
        },
        {
          "indexed": true,
          "internalType": "string",
          "name": "_integrationName",
          "type": "string"
        }
      ],
      "name": "ControllerIntegrationEdited",
      "type": "event"
    },
    {
      "anonymous": false,
      "inputs": [
        {
          "indexed": false,
          "internalType": "address",
          "name": "_integration",
          "type": "address"
        },
        {
          "indexed": true,
          "internalType": "string",
          "name": "_integrationName",
          "type": "string"
        }
      ],
      "name": "ControllerIntegrationRemoved",
      "type": "event"
    },
    {
      "anonymous": false,
      "inputs": [
        {
          "indexed": true,
          "internalType": "uint8",
          "name": "_kind",
          "type": "uint8"
        },
        {
          "indexed": false,
          "internalType": "address",
          "name": "_address",
          "type": "address"
        }
      ],
      "name": "ControllerOperationSet",
      "type": "event"
    },
    {
      "anonymous": false,
      "inputs": [
        {
          "indexed": true,
          "internalType": "address",
          "name": "_newTradeIntegration",
          "type": "address"
        },
        {
          "indexed": false,
          "internalType": "address",
          "name": "_oldTradeIntegration",
          "type": "address"
        }
      ],
      "name": "DefaultTradeIntegrationChanged",
      "type": "event"
    },
    {
      "anonymous": false,
      "inputs": [
        {
          "indexed": true,
          "internalType": "address",
          "name": "_garden",
          "type": "address"
        },
        {
          "indexed": true,
          "internalType": "address",
          "name": "_factory",
          "type": "address"
        }
      ],
      "name": "GardenAdded",
      "type": "event"
    },
    {
      "anonymous": false,
      "inputs": [
        {
          "indexed": true,
          "internalType": "address",
          "name": "_gardenFactory",
          "type": "address"
        },
        {
          "indexed": false,
          "internalType": "address",
          "name": "_oldGardenFactory",
          "type": "address"
        }
      ],
      "name": "GardenFactoryChanged",
      "type": "event"
    },
    {
      "anonymous": false,
      "inputs": [
        {
          "indexed": true,
          "internalType": "address",
          "name": "_newGardenNFT",
          "type": "address"
        },
        {
          "indexed": false,
          "internalType": "address",
          "name": "_oldStrategyNFT",
          "type": "address"
        }
      ],
      "name": "GardenNFTChanged",
      "type": "event"
    },
    {
      "anonymous": false,
      "inputs": [
        {
          "indexed": true,
          "internalType": "address",
          "name": "_garden",
          "type": "address"
        }
      ],
      "name": "GardenRemoved",
      "type": "event"
    },
    {
      "anonymous": false,
      "inputs": [
        {
          "indexed": true,
          "internalType": "address",
          "name": "_gardenValuer",
          "type": "address"
        },
        {
          "indexed": false,
          "internalType": "address",
          "name": "_oldGardenValuer",
          "type": "address"
        }
      ],
      "name": "GardenValuerChanged",
      "type": "event"
    },
    {
      "anonymous": false,
      "inputs": [
        {
          "indexed": false,
          "internalType": "address",
          "name": "_newIshtarGate",
          "type": "address"
        },
        {
          "indexed": false,
          "internalType": "address",
          "name": "_oldIshtarGate",
          "type": "address"
        }
      ],
      "name": "IshtarGateChanged",
      "type": "event"
    },
    {
      "anonymous": false,
      "inputs": [
        {
          "indexed": true,
          "internalType": "address",
          "name": "_resesrveAsset",
          "type": "address"
        },
        {
          "indexed": false,
          "internalType": "uint256",
          "name": "_newMinLiquidityReserve",
          "type": "uint256"
        }
      ],
      "name": "LiquidityMinimumEdited",
      "type": "event"
    },
    {
      "anonymous": false,
      "inputs": [
        {
          "indexed": false,
          "internalType": "address",
          "name": "_oldPauseGuardian",
          "type": "address"
        },
        {
          "indexed": false,
          "internalType": "address",
          "name": "_newPauseGuardian",
          "type": "address"
        }
      ],
      "name": "NewPauseGuardian",
      "type": "event"
    },
    {
      "anonymous": false,
      "inputs": [
        {
          "indexed": true,
          "internalType": "address",
          "name": "previousOwner",
          "type": "address"
        },
        {
          "indexed": true,
          "internalType": "address",
          "name": "newOwner",
          "type": "address"
        }
      ],
      "name": "OwnershipTransferred",
      "type": "event"
    },
    {
      "anonymous": false,
      "inputs": [
        {
          "indexed": true,
          "internalType": "address",
          "name": "_priceOracle",
          "type": "address"
        },
        {
          "indexed": false,
          "internalType": "address",
          "name": "_oldPriceOracle",
          "type": "address"
        }
      ],
      "name": "PriceOracleChanged",
      "type": "event"
    },
    {
      "anonymous": false,
      "inputs": [
        {
          "indexed": true,
          "internalType": "address",
          "name": "_reserveAsset",
          "type": "address"
        }
      ],
      "name": "ReserveAssetAdded",
      "type": "event"
    },
    {
      "anonymous": false,
      "inputs": [
        {
          "indexed": true,
          "internalType": "address",
          "name": "_reserveAsset",
          "type": "address"
        }
      ],
      "name": "ReserveAssetRemoved",
      "type": "event"
    },
    {
      "anonymous": false,
      "inputs": [
        {
          "indexed": true,
          "internalType": "address",
          "name": "_rewardsDistributor",
          "type": "address"
        },
        {
          "indexed": false,
          "internalType": "address",
          "name": "_oldRewardsDistributor",
          "type": "address"
        }
      ],
      "name": "RewardsDistributorChanged",
      "type": "event"
    },
    {
      "anonymous": false,
      "inputs": [
        {
          "indexed": true,
          "internalType": "address",
          "name": "_strategyFactory",
          "type": "address"
        },
        {
          "indexed": false,
          "internalType": "address",
          "name": "_oldStrategyFactory",
          "type": "address"
        }
      ],
      "name": "StrategyFactoryEdited",
      "type": "event"
    },
    {
      "anonymous": false,
      "inputs": [
        {
          "indexed": true,
          "internalType": "address",
          "name": "_newStrategyNFT",
          "type": "address"
        },
        {
          "indexed": false,
          "internalType": "address",
          "name": "_oldStrategyNFT",
          "type": "address"
        }
      ],
      "name": "StrategyNFTChanged",
      "type": "event"
    },
    {
      "anonymous": false,
      "inputs": [
        {
          "indexed": false,
          "internalType": "address",
          "name": "_newTreasury",
          "type": "address"
        },
        {
          "indexed": false,
          "internalType": "address",
          "name": "_oldTreasury",
          "type": "address"
        }
      ],
      "name": "TreasuryChanged",
      "type": "event"
    },
    {
      "anonymous": false,
      "inputs": [
        {
          "indexed": true,
          "internalType": "address",
          "name": "_newUniswapFactory",
          "type": "address"
        },
        {
          "indexed": false,
          "internalType": "address",
          "name": "_oldUniswapFactory",
          "type": "address"
        }
      ],
      "name": "UniswapFactoryChanged",
      "type": "event"
    },
    {
      "inputs": [],
      "name": "MAX_COOLDOWN_PERIOD",
      "outputs": [
        {
          "internalType": "uint256",
          "name": "",
          "type": "uint256"
        }
      ],
      "stateMutability": "view",
      "type": "function"
    },
    {
      "inputs": [],
      "name": "MAX_OPERATIONS",
      "outputs": [
        {
          "internalType": "uint8",
          "name": "",
          "type": "uint8"
        }
      ],
      "stateMutability": "view",
      "type": "function"
    },
    {
      "inputs": [],
      "name": "MIN_COOLDOWN_PERIOD",
      "outputs": [
        {
          "internalType": "uint256",
          "name": "",
          "type": "uint256"
        }
      ],
      "stateMutability": "view",
      "type": "function"
    },
    {
      "inputs": [],
      "name": "WETH",
      "outputs": [
        {
          "internalType": "address",
          "name": "",
          "type": "address"
        }
      ],
      "stateMutability": "view",
      "type": "function"
    },
    {
      "inputs": [
        {
          "internalType": "address",
          "name": "_keeper",
          "type": "address"
        }
      ],
      "name": "addKeeper",
      "outputs": [],
      "stateMutability": "nonpayable",
      "type": "function"
    },
    {
      "inputs": [
        {
          "internalType": "address[]",
          "name": "_keepers",
          "type": "address[]"
        }
      ],
      "name": "addKeepers",
      "outputs": [],
      "stateMutability": "nonpayable",
      "type": "function"
    },
    {
      "inputs": [
        {
          "internalType": "address",
          "name": "_reserveAsset",
          "type": "address"
        }
      ],
      "name": "addReserveAsset",
      "outputs": [],
      "stateMutability": "nonpayable",
      "type": "function"
    },
    {
      "inputs": [],
      "name": "allowPublicGardens",
      "outputs": [
        {
          "internalType": "bool",
          "name": "",
          "type": "bool"
        }
      ],
      "stateMutability": "view",
      "type": "function"
    },
    {
      "inputs": [
        {
          "internalType": "address",
          "name": "",
          "type": "address"
        }
      ],
      "name": "assetWhitelist",
      "outputs": [
        {
          "internalType": "bool",
          "name": "",
          "type": "bool"
        }
      ],
      "stateMutability": "view",
      "type": "function"
    },
    {
      "inputs": [],
      "name": "bablMiningProgramEnabled",
      "outputs": [
        {
          "internalType": "bool",
          "name": "",
          "type": "bool"
        }
      ],
      "stateMutability": "view",
      "type": "function"
    },
    {
      "inputs": [
        {
          "internalType": "address",
          "name": "_reserveAsset",
          "type": "address"
        },
        {
          "internalType": "string",
          "name": "_name",
          "type": "string"
        },
        {
          "internalType": "string",
          "name": "_symbol",
          "type": "string"
        },
        {
          "internalType": "string",
          "name": "_tokenURI",
          "type": "string"
        },
        {
          "internalType": "uint256",
          "name": "_seed",
          "type": "uint256"
        },
        {
          "internalType": "uint256[]",
          "name": "_gardenParams",
          "type": "uint256[]"
        },
        {
          "internalType": "uint256",
          "name": "_initialContribution",
          "type": "uint256"
        },
        {
          "internalType": "bool[]",
          "name": "_publicGardenStrategistsStewards",
          "type": "bool[]"
        },
        {
          "internalType": "uint256[]",
          "name": "_profitSharing",
          "type": "uint256[]"
        }
      ],
      "name": "createGarden",
      "outputs": [
        {
          "internalType": "address",
          "name": "",
          "type": "address"
        }
      ],
      "stateMutability": "payable",
      "type": "function"
    },
    {
      "inputs": [],
      "name": "defaultTradeIntegration",
      "outputs": [
        {
          "internalType": "address",
          "name": "",
          "type": "address"
        }
      ],
      "stateMutability": "view",
      "type": "function"
    },
    {
      "inputs": [
        {
          "internalType": "address",
          "name": "_garden",
          "type": "address"
        }
      ],
      "name": "disableGarden",
      "outputs": [],
      "stateMutability": "nonpayable",
      "type": "function"
    },
    {
      "inputs": [
        {
          "internalType": "address",
          "name": "_newGardenFactory",
          "type": "address"
        }
      ],
      "name": "editGardenFactory",
      "outputs": [],
      "stateMutability": "nonpayable",
      "type": "function"
    },
    {
      "inputs": [
        {
          "internalType": "address",
          "name": "_newGardenNFT",
          "type": "address"
        }
      ],
      "name": "editGardenNFT",
      "outputs": [],
      "stateMutability": "nonpayable",
      "type": "function"
    },
    {
      "inputs": [
        {
          "internalType": "address",
          "name": "_gardenValuer",
          "type": "address"
        }
      ],
      "name": "editGardenValuer",
      "outputs": [],
      "stateMutability": "nonpayable",
      "type": "function"
    },
    {
      "inputs": [
        {
          "internalType": "address",
          "name": "_ishtarGate",
          "type": "address"
        }
      ],
      "name": "editIshtarGate",
      "outputs": [],
      "stateMutability": "nonpayable",
      "type": "function"
    },
    {
      "inputs": [
        {
          "internalType": "address",
          "name": "_reserve",
          "type": "address"
        },
        {
          "internalType": "uint256",
          "name": "_newMinLiquidityReserve",
          "type": "uint256"
        }
      ],
      "name": "editLiquidityReserve",
      "outputs": [],
      "stateMutability": "nonpayable",
      "type": "function"
    },
    {
      "inputs": [
        {
          "internalType": "address",
          "name": "_priceOracle",
          "type": "address"
        }
      ],
      "name": "editPriceOracle",
      "outputs": [],
      "stateMutability": "nonpayable",
      "type": "function"
    },
    {
      "inputs": [
        {
          "internalType": "address",
          "name": "_newRewardsDistributor",
          "type": "address"
        }
      ],
      "name": "editRewardsDistributor",
      "outputs": [],
      "stateMutability": "nonpayable",
      "type": "function"
    },
    {
      "inputs": [
        {
          "internalType": "address",
          "name": "_newStrategyFactory",
          "type": "address"
        }
      ],
      "name": "editStrategyFactory",
      "outputs": [],
      "stateMutability": "nonpayable",
      "type": "function"
    },
    {
      "inputs": [
        {
          "internalType": "address",
          "name": "_newStrategyNFT",
          "type": "address"
        }
      ],
      "name": "editStrategyNFT",
      "outputs": [],
      "stateMutability": "nonpayable",
      "type": "function"
    },
    {
      "inputs": [
        {
          "internalType": "address",
          "name": "_newTreasury",
          "type": "address"
        }
      ],
      "name": "editTreasury",
      "outputs": [],
      "stateMutability": "nonpayable",
      "type": "function"
    },
    {
      "inputs": [],
      "name": "enableBABLMiningProgram",
      "outputs": [],
      "stateMutability": "nonpayable",
      "type": "function"
    },
    {
      "inputs": [
        {
          "internalType": "address",
          "name": "_garden",
          "type": "address"
        }
      ],
      "name": "enableGarden",
      "outputs": [],
      "stateMutability": "nonpayable",
      "type": "function"
    },
    {
      "inputs": [],
      "name": "enableGardenTokensTransfers",
      "outputs": [],
      "stateMutability": "nonpayable",
      "type": "function"
    },
    {
      "inputs": [
        {
          "internalType": "uint256",
          "name": "",
          "type": "uint256"
        }
      ],
      "name": "enabledOperations",
      "outputs": [
        {
          "internalType": "address",
          "name": "",
          "type": "address"
        }
      ],
      "stateMutability": "view",
      "type": "function"
    },
    {
      "inputs": [],
      "name": "gardenCreationIsOpen",
      "outputs": [
        {
          "internalType": "bool",
          "name": "",
          "type": "bool"
        }
      ],
      "stateMutability": "view",
      "type": "function"
    },
    {
      "inputs": [],
      "name": "gardenCreatorBonus",
      "outputs": [
        {
          "internalType": "uint256",
          "name": "",
          "type": "uint256"
        }
      ],
      "stateMutability": "view",
      "type": "function"
    },
    {
      "inputs": [],
      "name": "gardenFactory",
      "outputs": [
        {
          "internalType": "address",
          "name": "",
          "type": "address"
        }
      ],
      "stateMutability": "view",
      "type": "function"
    },
    {
      "inputs": [],
      "name": "gardenNFT",
      "outputs": [
        {
          "internalType": "address",
          "name": "",
          "type": "address"
        }
      ],
      "stateMutability": "view",
      "type": "function"
    },
    {
      "inputs": [],
      "name": "gardenTokensTransfersEnabled",
      "outputs": [
        {
          "internalType": "bool",
          "name": "",
          "type": "bool"
        }
      ],
      "stateMutability": "view",
      "type": "function"
    },
    {
      "inputs": [],
      "name": "gardenValuer",
      "outputs": [
        {
          "internalType": "address",
          "name": "",
          "type": "address"
        }
      ],
      "stateMutability": "view",
      "type": "function"
    },
    {
      "inputs": [
        {
          "internalType": "uint256",
          "name": "",
          "type": "uint256"
        }
      ],
      "name": "gardens",
      "outputs": [
        {
          "internalType": "address",
          "name": "",
          "type": "address"
        }
      ],
      "stateMutability": "view",
      "type": "function"
    },
    {
      "inputs": [],
      "name": "getBABLSharing",
      "outputs": [
        {
          "internalType": "uint256",
          "name": "",
          "type": "uint256"
        },
        {
          "internalType": "uint256",
          "name": "",
          "type": "uint256"
        },
        {
          "internalType": "uint256",
          "name": "",
          "type": "uint256"
        },
        {
          "internalType": "uint256",
          "name": "",
          "type": "uint256"
        }
      ],
      "stateMutability": "view",
      "type": "function"
    },
    {
      "inputs": [],
      "name": "getGardens",
      "outputs": [
        {
          "internalType": "address[]",
          "name": "",
          "type": "address[]"
        }
      ],
      "stateMutability": "view",
      "type": "function"
    },
    {
      "inputs": [],
      "name": "getMaxCooldownPeriod",
      "outputs": [
        {
          "internalType": "uint256",
          "name": "",
          "type": "uint256"
        }
      ],
      "stateMutability": "pure",
      "type": "function"
    },
    {
      "inputs": [],
      "name": "getMinCooldownPeriod",
      "outputs": [
        {
          "internalType": "uint256",
          "name": "",
          "type": "uint256"
        }
      ],
      "stateMutability": "pure",
      "type": "function"
    },
    {
      "inputs": [],
      "name": "getOperations",
      "outputs": [
        {
          "internalType": "address[20]",
          "name": "",
          "type": "address[20]"
        }
      ],
      "stateMutability": "view",
      "type": "function"
    },
    {
      "inputs": [],
      "name": "getProfitSharing",
      "outputs": [
        {
          "internalType": "uint256",
          "name": "",
          "type": "uint256"
        },
        {
          "internalType": "uint256",
          "name": "",
          "type": "uint256"
        },
        {
          "internalType": "uint256",
          "name": "",
          "type": "uint256"
        }
      ],
      "stateMutability": "view",
      "type": "function"
    },
    {
      "inputs": [],
      "name": "getReserveAssets",
      "outputs": [
        {
          "internalType": "address[]",
          "name": "",
          "type": "address[]"
        }
      ],
      "stateMutability": "view",
      "type": "function"
    },
    {
      "inputs": [],
      "name": "guardian",
      "outputs": [
        {
          "internalType": "address",
          "name": "",
          "type": "address"
        }
      ],
      "stateMutability": "view",
      "type": "function"
    },
    {
      "inputs": [],
      "name": "guardianGlobalPaused",
      "outputs": [
        {
          "internalType": "bool",
          "name": "",
          "type": "bool"
        }
      ],
      "stateMutability": "view",
      "type": "function"
    },
    {
      "inputs": [
        {
          "internalType": "address",
          "name": "",
          "type": "address"
        }
      ],
      "name": "guardianPaused",
      "outputs": [
        {
          "internalType": "bool",
          "name": "",
          "type": "bool"
        }
      ],
      "stateMutability": "view",
      "type": "function"
    },
    {
      "inputs": [],
      "name": "initialize",
      "outputs": [],
      "stateMutability": "nonpayable",
      "type": "function"
    },
    {
      "inputs": [
        {
          "internalType": "address",
          "name": "",
          "type": "address"
        }
      ],
      "name": "isGarden",
      "outputs": [
        {
          "internalType": "bool",
          "name": "",
          "type": "bool"
        }
      ],
      "stateMutability": "view",
      "type": "function"
    },
    {
      "inputs": [
        {
          "internalType": "address",
          "name": "_contract",
          "type": "address"
        }
      ],
      "name": "isPaused",
      "outputs": [
        {
          "internalType": "bool",
          "name": "",
          "type": "bool"
        }
      ],
      "stateMutability": "view",
      "type": "function"
    },
    {
      "inputs": [
        {
          "internalType": "address",
          "name": "_contractAddress",
          "type": "address"
        }
      ],
      "name": "isSystemContract",
      "outputs": [
        {
          "internalType": "bool",
          "name": "",
          "type": "bool"
        }
      ],
      "stateMutability": "view",
      "type": "function"
    },
    {
      "inputs": [
        {
          "internalType": "address",
          "name": "_keeper",
          "type": "address"
        }
      ],
      "name": "isValidKeeper",
      "outputs": [
        {
          "internalType": "bool",
          "name": "",
          "type": "bool"
        }
      ],
      "stateMutability": "view",
      "type": "function"
    },
    {
      "inputs": [
        {
          "internalType": "address",
          "name": "_reserveAsset",
          "type": "address"
        }
      ],
      "name": "isValidReserveAsset",
      "outputs": [
        {
          "internalType": "bool",
          "name": "",
          "type": "bool"
        }
      ],
      "stateMutability": "view",
      "type": "function"
    },
    {
      "inputs": [],
      "name": "ishtarGate",
      "outputs": [
        {
          "internalType": "address",
          "name": "",
          "type": "address"
        }
      ],
      "stateMutability": "view",
      "type": "function"
    },
    {
      "inputs": [
        {
          "internalType": "address",
          "name": "",
          "type": "address"
        }
      ],
      "name": "keeperList",
      "outputs": [
        {
          "internalType": "bool",
          "name": "",
          "type": "bool"
        }
      ],
      "stateMutability": "view",
      "type": "function"
    },
    {
      "inputs": [],
      "name": "lpsBABLPercentage",
      "outputs": [
        {
          "internalType": "uint256",
          "name": "",
          "type": "uint256"
        }
      ],
      "stateMutability": "view",
      "type": "function"
    },
    {
      "inputs": [],
      "name": "lpsProfitPercentage",
      "outputs": [
        {
          "internalType": "uint256",
          "name": "",
          "type": "uint256"
        }
      ],
      "stateMutability": "view",
      "type": "function"
    },
    {
      "inputs": [],
      "name": "maxContributorsPerGarden",
      "outputs": [
        {
          "internalType": "uint256",
          "name": "",
          "type": "uint256"
        }
      ],
      "stateMutability": "view",
      "type": "function"
    },
    {
      "inputs": [
        {
          "internalType": "address",
          "name": "",
          "type": "address"
        }
      ],
      "name": "minLiquidityPerReserve",
      "outputs": [
        {
          "internalType": "uint256",
          "name": "",
          "type": "uint256"
        }
      ],
      "stateMutability": "view",
      "type": "function"
    },
    {
      "inputs": [],
      "name": "openPublicGardenCreation",
      "outputs": [],
      "stateMutability": "nonpayable",
      "type": "function"
    },
    {
      "inputs": [],
      "name": "owner",
      "outputs": [
        {
          "internalType": "address",
          "name": "",
          "type": "address"
        }
      ],
      "stateMutability": "view",
      "type": "function"
    },
    {
      "inputs": [],
      "name": "priceOracle",
      "outputs": [
        {
          "internalType": "address",
          "name": "",
          "type": "address"
        }
      ],
      "stateMutability": "view",
      "type": "function"
    },
    {
      "inputs": [],
      "name": "protocolManagementFee",
      "outputs": [
        {
          "internalType": "uint256",
          "name": "",
          "type": "uint256"
        }
      ],
      "stateMutability": "view",
      "type": "function"
    },
    {
      "inputs": [],
      "name": "protocolPerformanceFee",
      "outputs": [
        {
          "internalType": "uint256",
          "name": "",
          "type": "uint256"
        }
      ],
      "stateMutability": "view",
      "type": "function"
    },
    {
      "inputs": [
        {
          "internalType": "address",
          "name": "_garden",
          "type": "address"
        }
      ],
      "name": "removeGarden",
      "outputs": [],
      "stateMutability": "nonpayable",
      "type": "function"
    },
    {
      "inputs": [
        {
          "internalType": "address",
          "name": "_keeper",
          "type": "address"
        }
      ],
      "name": "removeKeeper",
      "outputs": [],
      "stateMutability": "nonpayable",
      "type": "function"
    },
    {
      "inputs": [
        {
          "internalType": "address",
          "name": "_reserveAsset",
          "type": "address"
        }
      ],
      "name": "removeReserveAsset",
      "outputs": [],
      "stateMutability": "nonpayable",
      "type": "function"
    },
    {
      "inputs": [],
      "name": "renounceOwnership",
      "outputs": [],
      "stateMutability": "nonpayable",
      "type": "function"
    },
    {
      "inputs": [
        {
          "internalType": "uint256",
          "name": "",
          "type": "uint256"
        }
      ],
      "name": "reserveAssets",
      "outputs": [
        {
          "internalType": "address",
          "name": "",
          "type": "address"
        }
      ],
      "stateMutability": "view",
      "type": "function"
    },
    {
      "inputs": [],
      "name": "rewardsDistributor",
      "outputs": [
        {
          "internalType": "address",
          "name": "",
          "type": "address"
        }
      ],
      "stateMutability": "view",
      "type": "function"
    },
    {
      "inputs": [],
      "name": "setAllowPublicGardens",
      "outputs": [],
      "stateMutability": "nonpayable",
      "type": "function"
    },
    {
      "inputs": [
        {
          "internalType": "address",
          "name": "_newDefaultTradeIntegation",
          "type": "address"
        }
      ],
      "name": "setDefaultTradeIntegration",
      "outputs": [],
      "stateMutability": "nonpayable",
      "type": "function"
    },
    {
      "inputs": [
        {
          "internalType": "bool",
          "name": "_state",
          "type": "bool"
        }
      ],
      "name": "setGlobalPause",
      "outputs": [
        {
          "internalType": "bool",
          "name": "",
          "type": "bool"
        }
      ],
      "stateMutability": "nonpayable",
      "type": "function"
    },
    {
      "inputs": [
        {
          "internalType": "uint256",
          "name": "_newMax",
          "type": "uint256"
        }
      ],
      "name": "setMaxContributorsPerGarden",
      "outputs": [],
      "stateMutability": "nonpayable",
      "type": "function"
    },
    {
      "inputs": [
        {
          "internalType": "uint8",
          "name": "_kind",
          "type": "uint8"
        },
        {
          "internalType": "address",
          "name": "_operation",
          "type": "address"
        }
      ],
      "name": "setOperation",
      "outputs": [],
      "stateMutability": "nonpayable",
      "type": "function"
    },
    {
      "inputs": [
        {
          "internalType": "address",
          "name": "_guardian",
          "type": "address"
        }
      ],
      "name": "setPauseGuardian",
      "outputs": [],
      "stateMutability": "nonpayable",
      "type": "function"
    },
    {
      "inputs": [
        {
          "internalType": "address[]",
          "name": "_address",
          "type": "address[]"
        },
        {
          "internalType": "bool",
          "name": "_state",
          "type": "bool"
        }
      ],
      "name": "setSomePause",
      "outputs": [
        {
          "internalType": "bool",
          "name": "",
          "type": "bool"
        }
      ],
      "stateMutability": "nonpayable",
      "type": "function"
    },
    {
      "inputs": [],
      "name": "stewardsBABLPercentage",
      "outputs": [
        {
          "internalType": "uint256",
          "name": "",
          "type": "uint256"
        }
      ],
      "stateMutability": "view",
      "type": "function"
    },
    {
      "inputs": [],
      "name": "stewardsProfitPercentage",
      "outputs": [
        {
          "internalType": "uint256",
          "name": "",
          "type": "uint256"
        }
      ],
      "stateMutability": "view",
      "type": "function"
    },
    {
      "inputs": [],
      "name": "strategistBABLPercentage",
      "outputs": [
        {
          "internalType": "uint256",
          "name": "",
          "type": "uint256"
        }
      ],
      "stateMutability": "view",
      "type": "function"
    },
    {
      "inputs": [],
      "name": "strategistProfitPercentage",
      "outputs": [
        {
          "internalType": "uint256",
          "name": "",
          "type": "uint256"
        }
      ],
      "stateMutability": "view",
      "type": "function"
    },
    {
      "inputs": [],
      "name": "strategyFactory",
      "outputs": [
        {
          "internalType": "address",
          "name": "",
          "type": "address"
        }
      ],
      "stateMutability": "view",
      "type": "function"
    },
    {
      "inputs": [],
      "name": "strategyNFT",
      "outputs": [
        {
          "internalType": "address",
          "name": "",
          "type": "address"
        }
      ],
      "stateMutability": "view",
      "type": "function"
    },
    {
      "inputs": [
        {
          "internalType": "address",
          "name": "newOwner",
          "type": "address"
        }
      ],
      "name": "transferOwnership",
      "outputs": [],
      "stateMutability": "nonpayable",
      "type": "function"
    },
    {
      "inputs": [],
      "name": "treasury",
      "outputs": [
        {
          "internalType": "address",
          "name": "",
          "type": "address"
        }
      ],
      "stateMutability": "view",
      "type": "function"
    },
    {
      "inputs": [
        {
          "internalType": "address",
          "name": "",
          "type": "address"
        }
      ],
      "name": "validReserveAsset",
      "outputs": [
        {
          "internalType": "bool",
          "name": "",
          "type": "bool"
        }
      ],
      "stateMutability": "view",
      "type": "function"
    }
  ],
  "transactionHash": "0xdbc91a70412bffef206d5b2dbc75b09ce9c00a1856cb8f1080bf8429c1513a18",
  "args": [],
  "solcInputHash": "adc30126c8f3eb1cc52c1ce23a0cccb6",
  "bytecode": "0x608060405234801561001057600080fd5b50615085806100206000396000f3fe6080604052600436106105945760003560e01c80636b2fb678116102e0578063bc09228311610184578063daec2a1a116100e1578063f05017eb11610095578063f56e895d1161006f578063f56e895d14611563578063f948e50a14611578578063f979cdd9146115c657610594565b8063f05017eb146114c2578063f142c3bc146114f5578063f2fde38b1461153057610594565b8063e973f4e9116100c6578063e973f4e914611447578063ead4c1cf1461147a578063f04ec5471461148f57610594565b8063daec2a1a146113ff578063dfaef58f1461141457610594565b8063c9f7f2ed11610138578063d196f61f1161011d578063d196f61f14611399578063d276cbdc146113ae578063d6a45aa5146113ea57610594565b8063c9f7f2ed1461136f578063cfd180191461138457610594565b8063c2d38e7911610169578063c2d38e7914611312578063c80aad6314611345578063c8ed947f1461135a57610594565b8063bc0922831461127a578063bc819ea6146112ad57610594565b8063897904291161023d5780639e18eb39116101f1578063ad9d791d116101cb578063ad9d791d146111e1578063b0ecdf8014611214578063b82efd4f1461124757610594565b80639e18eb391461118d5780639ef35710146111b7578063ad5c4648146111cc57610594565b80638da5cb5b116102225780638da5cb5b146111305780638e20fb0714611145578063974f57281461115a57610594565b806389790429146110e25780638d78fb791461111b57610594565b80638129fc1c11610294578063867b6efa11610279578063867b6efa1461106757806386f2bc811461109a57806388e8dc75146110af57610594565b80638129fc1c1461101f57806385d5d0361461103457610594565b80637177fec9116102c55780637177fec914610fe05780637c4f0a3614610ff55780637f80e05b1461100a57610594565b80636b2fb67814610fb6578063715018a614610fcb57610594565b80633f2a554011610447578063556d1a09116103a45780635e192de61161035857806362a4bf051161033257806362a4bf0514610f425780636968551314610f5757806369a6b3db14610f8a57610594565b80635e192de614610ee55780636176605e14610f1857806361d027b314610f2d57610594565b8063568c081311610389578063568c081314610e725780635b14f18314610e875780635dc2803a14610eba57610594565b8063556d1a0914610b325780635616147214610b4757610594565b8063452a9320116103fb5780634a44ff44116103e05780634a44ff4414610ad557806352aeec7714610aea5780635435ed8b14610aff57610594565b8063452a932014610a8d57806348bde20c14610aa257610594565b8063404c36391161042c578063404c3639146109fd578063411137c314610a27578063447a136614610a5a57610594565b80633f2a5540146109b55780634032b72b146109ca57610594565b8063294d237c116104f5578063314a83c9116104a957806336c148b71161048e57806336c148b71461096157806337973e5f14610976578063393bfe49146109a057610594565b8063314a83c91461087e578063364d11811461092e57610594565b80632e0519cf116104da5780632e0519cf1461082157806330944c6214610854578063313754771461086957610594565b8063294d237c146107e55780632b9db0bf146107fa57610594565b806318b9e2521161054c57806322c7fa8f1161053157806322c7fa8f146107885780632630c12f146107bb57806327e4acc7146107d057610594565b806318b9e2521461070f578063201041981461074257610594565b806314ae9f2e1161057d57806314ae9f2e1461069257806314f45ca8146106c757806317a25714146106fa57610594565b80630306f6d21461059957806313bc6d4b1461065f575b600080fd5b3480156105a557600080fd5b5061064b600480360360408110156105bc57600080fd5b8101906020810181356401000000008111156105d757600080fd5b8201836020820111156105e957600080fd5b8035906020019184602083028401116401000000008311171561060b57600080fd5b91908080602002602001604051908101604052809392919081815260200183836020028082843760009201919091525092955050505035151590506115f9565b604080519115158252519081900360200190f35b34801561066b57600080fd5b5061064b6004803603602081101561068257600080fd5b50356001600160a01b03166117ec565b34801561069e57600080fd5b506106c5600480360360208110156106b557600080fd5b50356001600160a01b0316611a6d565b005b3480156106d357600080fd5b506106c5600480360360208110156106ea57600080fd5b50356001600160a01b0316611b5d565b34801561070657600080fd5b506106c5611d4c565b34801561071b57600080fd5b506106c56004803603602081101561073257600080fd5b50356001600160a01b0316611dc1565b34801561074e57600080fd5b5061076c6004803603602081101561076557600080fd5b5035612012565b604080516001600160a01b039092168252519081900360200190f35b34801561079457600080fd5b506106c5600480360360208110156107ab57600080fd5b50356001600160a01b0316612032565b3480156107c757600080fd5b5061076c6121b2565b3480156107dc57600080fd5b5061064b6121c1565b3480156107f157600080fd5b5061076c6121ca565b34801561080657600080fd5b5061080f6121d9565b60408051918252519081900360200190f35b34801561082d57600080fd5b506108366121df565b60408051938452602084019290925282820152519081900360600190f35b34801561086057600080fd5b5061064b6121ed565b34801561087557600080fd5b5061080f6121fb565b34801561088a57600080fd5b506106c5600480360360208110156108a157600080fd5b8101906020810181356401000000008111156108bc57600080fd5b8201836020820111156108ce57600080fd5b803590602001918460208302840111640100000000831117156108f057600080fd5b919080806020026020016040519081016040528093929190818152602001838360200280828437600092019190915250929550612201945050505050565b34801561093a57600080fd5b5061064b6004803603602081101561095157600080fd5b50356001600160a01b03166122bf565b34801561096d57600080fd5b506106c56122d4565b34801561098257600080fd5b5061076c6004803603602081101561099957600080fd5b503561239f565b3480156109ac57600080fd5b5061064b6123c9565b3480156109c157600080fd5b5061076c6123d2565b3480156109d657600080fd5b506106c5600480360360208110156109ed57600080fd5b50356001600160a01b03166123e1565b348015610a0957600080fd5b506106c560048036036020811015610a2057600080fd5b5035612467565b348015610a3357600080fd5b5061064b60048036036020811015610a4a57600080fd5b50356001600160a01b031661250e565b348015610a6657600080fd5b5061064b60048036036020811015610a7d57600080fd5b50356001600160a01b031661252c565b348015610a9957600080fd5b5061076c612541565b348015610aae57600080fd5b506106c560048036036020811015610ac557600080fd5b50356001600160a01b0316612555565b348015610ae157600080fd5b5061080f61264a565b348015610af657600080fd5b506106c5612650565b348015610b0b57600080fd5b506106c560048036036020811015610b2257600080fd5b50356001600160a01b031661274a565b348015610b3e57600080fd5b5061080f6128bf565b61076c6004803603610120811015610b5e57600080fd5b6001600160a01b038235169190810190604081016020820135640100000000811115610b8957600080fd5b820183602082011115610b9b57600080fd5b80359060200191846001830284011164010000000083111715610bbd57600080fd5b91908080601f0160208091040260200160405190810160405280939291908181526020018383808284376000920191909152509295949360208101935035915050640100000000811115610c1057600080fd5b820183602082011115610c2257600080fd5b80359060200191846001830284011164010000000083111715610c4457600080fd5b91908080601f0160208091040260200160405190810160405280939291908181526020018383808284376000920191909152509295949360208101935035915050640100000000811115610c9757600080fd5b820183602082011115610ca957600080fd5b80359060200191846001830284011164010000000083111715610ccb57600080fd5b91908080601f01602080910402602001604051908101604052809392919081815260200183838082843760009201919091525092958435959094909350604081019250602001359050640100000000811115610d2657600080fd5b820183602082011115610d3857600080fd5b80359060200191846020830284011164010000000083111715610d5a57600080fd5b91939092823592604081019060200135640100000000811115610d7c57600080fd5b820183602082011115610d8e57600080fd5b80359060200191846020830284011164010000000083111715610db057600080fd5b9190808060200260200160405190810160405280939291908181526020018383602002808284376000920191909152509295949360208101935035915050640100000000811115610e0057600080fd5b820183602082011115610e1257600080fd5b80359060200191846020830284011164010000000083111715610e3457600080fd5b9190808060200260200160405190810160405280939291908181526020018383602002808284376000920191909152509295506128c6945050505050565b348015610e7e57600080fd5b5061080f613080565b348015610e9357600080fd5b5061064b60048036036020811015610eaa57600080fd5b50356001600160a01b0316613086565b348015610ec657600080fd5b50610ecf6130b4565b6040805160ff9092168252519081900360200190f35b348015610ef157600080fd5b5061064b60048036036020811015610f0857600080fd5b50356001600160a01b03166130b9565b348015610f2457600080fd5b5061076c6130ce565b348015610f3957600080fd5b5061076c6130dd565b348015610f4e57600080fd5b5061064b6130ec565b348015610f6357600080fd5b506106c560048036036020811015610f7a57600080fd5b50356001600160a01b03166130f5565b348015610f9657600080fd5b5061064b60048036036020811015610fad57600080fd5b50351515613207565b348015610fc257600080fd5b5061080f613371565b348015610fd757600080fd5b506106c5613377565b348015610fec57600080fd5b5061080f613423565b34801561100157600080fd5b5061080f613429565b34801561101657600080fd5b5061064b61342f565b34801561102b57600080fd5b506106c561343e565b34801561104057600080fd5b506106c56004803603602081101561105757600080fd5b50356001600160a01b03166134c4565b34801561107357600080fd5b506106c56004803603602081101561108a57600080fd5b50356001600160a01b03166135d6565b3480156110a657600080fd5b5061080f6136eb565b3480156110bb57600080fd5b506106c5600480360360208110156110d257600080fd5b50356001600160a01b03166136f1565b3480156110ee57600080fd5b506106c56004803603604081101561110557600080fd5b506001600160a01b038135169060200135613889565b34801561112757600080fd5b5061080f613a01565b34801561113c57600080fd5b5061076c613a07565b34801561115157600080fd5b5061080f613a16565b34801561116657600080fd5b506106c56004803603602081101561117d57600080fd5b50356001600160a01b0316613a1d565b34801561119957600080fd5b5061076c600480360360208110156111b057600080fd5b5035613bed565b3480156111c357600080fd5b5061076c613bfd565b3480156111d857600080fd5b5061076c613c0c565b3480156111ed57600080fd5b5061064b6004803603602081101561120457600080fd5b50356001600160a01b0316613c24565b34801561122057600080fd5b5061064b6004803603602081101561123757600080fd5b50356001600160a01b0316613c39565b34801561125357600080fd5b506106c56004803603602081101561126a57600080fd5b50356001600160a01b0316613c4e565b34801561128657600080fd5b506106c56004803603602081101561129d57600080fd5b50356001600160a01b0316613d5f565b3480156112b957600080fd5b506112c2613edc565b60408051602080825283518183015283519192839290830191858101910280838360005b838110156112fe5781810151838201526020016112e6565b505050509050019250505060405180910390f35b34801561131e57600080fd5b506106c56004803603602081101561133557600080fd5b50356001600160a01b0316613f3e565b34801561135157600080fd5b5061076c6140bb565b34801561136657600080fd5b5061076c6140ca565b34801561137b57600080fd5b5061080f6140d9565b34801561139057600080fd5b5061080f6140df565b3480156113a557600080fd5b506106c56140e5565b3480156113ba57600080fd5b506106c5600480360360408110156113d157600080fd5b50803560ff1690602001356001600160a01b0316614198565b3480156113f657600080fd5b5061076c614391565b34801561140b57600080fd5b506112c26143a0565b34801561142057600080fd5b506106c56004803603602081101561143757600080fd5b50356001600160a01b0316614400565b34801561145357600080fd5b506106c56004803603602081101561146a57600080fd5b50356001600160a01b0316614512565b34801561148657600080fd5b5061076c614624565b34801561149b57600080fd5b506106c5600480360360208110156114b257600080fd5b50356001600160a01b0316614633565b3480156114ce57600080fd5b5061080f600480360360208110156114e557600080fd5b50356001600160a01b031661478f565b34801561150157600080fd5b5061150a6147a1565b604080519485526020850193909352838301919091526060830152519081900360800190f35b34801561153c57600080fd5b506106c56004803603602081101561155357600080fd5b50356001600160a01b03166147b3565b34801561156f57600080fd5b5061080f6148b6565b34801561158457600080fd5b5061158d6148bc565b604051808261028080838360005b838110156115b357818101518382015260200161159b565b5050505090500191505060405180910390f35b3480156115d257600080fd5b5061064b600480360360208110156115e957600080fd5b50356001600160a01b03166148fc565b60995460009061010090046001600160a01b0316331480611632575061161d613a07565b6001600160a01b0316336001600160a01b0316145b61166d5760405162461bcd60e51b8152600401808060200182810382526034815260200180614f436034913960400191505060405180910390fd5b611675613a07565b6001600160a01b0316336001600160a01b0316148061169657506001821515145b6116e7576040805162461bcd60e51b815260206004820152601660248201527f6f6e6c792061646d696e2063616e20756e706175736500000000000000000000604482015290519081900360640190fd5b60005b83518110156117e15782609a600086848151811061170457fe5b60200260200101516001600160a01b03166001600160a01b0316815260200190815260200160002060006101000a81548160ff0219169083151502179055507f14fc4a89e124f9817afd6bc9b8270d50250d5ff6f0711b687f6fa4c34decf1cd84828151811061177057fe5b6020026020010151846040518080602001846001600160a01b031681526020018315158152602001828103825260198152602001807f477561726469616e20696e646976696475616c20706175736500000000000000815250602001935050505060405180910390a16001016116ea565b508190505b92915050565b6001600160a01b03811660009081526086602052604081205460ff168061182057506068546001600160a01b038381169116145b8061183857506069546001600160a01b038381169116145b806118505750606a546001600160a01b038381169116145b8061186857506071546001600160a01b038381169116145b806118805750606d546001600160a01b038381169116145b806118985750606b546001600160a01b038381169116145b806118bb5750816001600160a01b03166118b0613a07565b6001600160a01b0316145b806118ce57506001600160a01b03821630145b806118dd57506118dd8261491a565b80611a65575060866000836001600160a01b03166356ba88b86040518163ffffffff1660e01b815260040160206040518083038186803b15801561192057600080fd5b505afa158015611934573d6000803e3d6000fd5b505050506040513d602081101561194a57600080fd5b50516001600160a01b0316815260208101919091526040016000205460ff168015611a655750816001600160a01b03166356ba88b86040518163ffffffff1660e01b815260040160206040518083038186803b1580156119a957600080fd5b505afa1580156119bd573d6000803e3d6000fd5b505050506040513d60208110156119d357600080fd5b5051604080517f3a8219250000000000000000000000000000000000000000000000000000000081526001600160a01b03858116600483015291519190921691633a821925916024808301926020929190829003018186803b158015611a3857600080fd5b505afa158015611a4c573d6000803e3d6000fd5b505050506040513d6020811015611a6257600080fd5b50515b90505b919050565b611a7561496a565b6001600160a01b0316611a86613a07565b6001600160a01b031614611acf576040805162461bcd60e51b81526020600482018190526024820152600080516020614fa5833981519152604482015290519081900360640190fd5b6001600160a01b03811660009081526089602052604090205460ff16611b3c576040805162461bcd60e51b815260206004820152601560248201527f4b65657065722069732077686974656c69737465640000000000000000000000604482015290519081900360640190fd5b6001600160a01b03166000908152608960205260409020805460ff19169055565b611b6561496a565b6001600160a01b0316611b76613a07565b6001600160a01b031614611bbf576040805162461bcd60e51b81526020600482018190526024820152600080516020614fa5833981519152604482015290519081900360640190fd5b6001600160a01b03811660009081526086602052604090205460ff16611c2c576040805162461bcd60e51b815260206004820152601560248201527f47617264656e20646f6573206e6f742065786973740000000000000000000000604482015290519081900360640190fd5b6000819050806001600160a01b03166302fb0c5e6040518163ffffffff1660e01b815260040160206040518083038186803b158015611c6a57600080fd5b505afa158015611c7e573d6000803e3d6000fd5b505050506040513d6020811015611c9457600080fd5b505115611ce8576040805162461bcd60e51b815260206004820181905260248201527f5468652067617264656e206e6565647320746f2062652064697361626c65642e604482015290519081900360640190fd5b6040805163567619c560e11b81526001600482015290516001600160a01b0383169163acec338a91602480830192600092919082900301818387803b158015611d3057600080fd5b505af1158015611d44573d6000803e3d6000fd5b505050505050565b611d5461496a565b6001600160a01b0316611d65613a07565b6001600160a01b031614611dae576040805162461bcd60e51b81526020600482018190526024820152600080516020614fa5833981519152604482015290519081900360640190fd5b6093805462ff0000191662010000179055565b611dc961496a565b6001600160a01b0316611dda613a07565b6001600160a01b031614611e23576040805162461bcd60e51b81526020600482018190526024820152600080516020614fa5833981519152604482015290519081900360640190fd5b6001600160a01b03811660009081526086602052604090205460ff16611e90576040805162461bcd60e51b815260206004820152601560248201527f47617264656e20646f6573206e6f742065786973740000000000000000000000604482015290519081900360640190fd5b806001600160a01b03166302fb0c5e6040518163ffffffff1660e01b815260040160206040518083038186803b158015611ec957600080fd5b505afa158015611edd573d6000803e3d6000fd5b505050506040513d6020811015611ef357600080fd5b505115611f47576040805162461bcd60e51b815260206004820181905260248201527f5468652067617264656e206e6565647320746f2062652064697361626c65642e604482015290519081900360640190fd5b611fb4816065805480602002602001604051908101604052809291908181526020018280548015611fa157602002820191906000526020600020905b81546001600160a01b03168152600190910190602001808311611f83575b505050505061496e90919063ffffffff16565b8051611fc891606591602090910190614e26565b506001600160a01b038116600081815260866020526040808220805460ff19169055517fb52dedfe431c6250e847edee5dca0a14cfaad5c6626218f99bd60c8ad9939a9f9190a250565b6072816014811061202257600080fd5b01546001600160a01b0316905081565b61203a61496a565b6001600160a01b031661204b613a07565b6001600160a01b031614612094576040805162461bcd60e51b81526020600482018190526024820152600080516020614fa5833981519152604482015290519081900360640190fd5b606c546001600160a01b03828116911614156120f7576040805162461bcd60e51b815260206004820152601a60248201527f497368746172204761746520616c726561647920657869737473000000000000604482015290519081900360640190fd5b6001600160a01b038116612152576040805162461bcd60e51b815260206004820152601d60248201527f4973687461722047617465206f7261636c65206d757374206578697374000000604482015290519081900360640190fd5b606c80546001600160a01b038381166001600160a01b03198316811790935560408051938452911660208301819052815190927f9d8291abf2224012a00e3e6cb815777395423c95684705c6a799205e926f38d492908290030190a15050565b6069546001600160a01b031681565b60995460ff1681565b6068546001600160a01b031681565b60915481565b608c54608d54608e54909192565b609354610100900460ff1681565b60955481565b61220961496a565b6001600160a01b031661221a613a07565b6001600160a01b031614612263576040805162461bcd60e51b81526020600482018190526024820152600080516020614fa5833981519152604482015290519081900360640190fd5b60005b81518110156122bb5760016089600084848151811061228157fe5b6020908102919091018101516001600160a01b03168252810191909152604001600020805460ff1916911515919091179055600101612266565b5050565b60866020526000908152604090205460ff1681565b6122dc61496a565b6001600160a01b03166122ed613a07565b6001600160a01b031614612336576040805162461bcd60e51b81526020600482018190526024820152600080516020614fa5833981519152604482015290519081900360640190fd5b65017e14a710004211612390576040805162461bcd60e51b815260206004820152601f60248201527f5472616e73666572732063616e6e6f7420626520656e61626c65642079657400604482015290519081900360640190fd5b6093805460ff19166001179055565b606681815481106123af57600080fd5b6000918252602090912001546001600160a01b0316905081565b60935460ff1681565b606b546001600160a01b031681565b6123e961496a565b6001600160a01b03166123fa613a07565b6001600160a01b031614612443576040805162461bcd60e51b81526020600482018190526024820152600080516020614fa5833981519152604482015290519081900360640190fd5b6001600160a01b03166000908152608960205260409020805460ff19166001179055565b61246f61496a565b6001600160a01b0316612480613a07565b6001600160a01b0316146124c9576040805162461bcd60e51b81526020600482018190526024820152600080516020614fa5833981519152604482015290519081900360640190fd5b60018110156125095760405162461bcd60e51b815260040180806020018281038252602d815260200180614ee6602d913960400191505060405180910390fd5b609855565b6001600160a01b031660009081526089602052604090205460ff1690565b609a6020526000908152604090205460ff1681565b60995461010090046001600160a01b031681565b60995461010090046001600160a01b031633148061258b5750612576613a07565b6001600160a01b0316336001600160a01b0316145b6125c65760405162461bcd60e51b8152600401808060200182810382526037815260200180614fc56037913960400191505060405180910390fd5b609980546001600160a01b038381166101008181027fffffffffffffffffffffff0000000000000000000000000000000000000000ff8516179094556040805194909304919091168084526020840191909152815190927f0613b6ee6a04f0d09f390e4d9318894b9f6ac7fd83897cd8d18896ba579c401e92908290030190a15050565b60905481565b61265861496a565b6001600160a01b0316612669613a07565b6001600160a01b0316146126b2576040805162461bcd60e51b81526020600482018190526024820152600080516020614fa5833981519152604482015290519081900360640190fd5b609354610100900460ff16612748576093805461ff001916610100179055606b54604080517f79fc904f00000000000000000000000000000000000000000000000000000000815290516001600160a01b03909216916379fc904f9160048082019260009290919082900301818387803b15801561272f57600080fd5b505af1158015612743573d6000803e3d6000fd5b505050505b565b61275261496a565b6001600160a01b0316612763613a07565b6001600160a01b0316146127ac576040805162461bcd60e51b81526020600482018190526024820152600080516020614fa5833981519152604482015290519081900360640190fd5b6001600160a01b0381166127ff576040805162461bcd60e51b8152602060048201526015602482015274041646472657373206d757374206e6f74206265203605c1b604482015290519081900360640190fd5b6071546001600160a01b0382811691161415612862576040805162461bcd60e51b815260206004820152601960248201527f41646472657373206d75737420626520646966666572656e7400000000000000604482015290519081900360640190fd5b607180546001600160a01b038381166001600160a01b031983168117909355604080519190921680825291519192917f7c0554a0d606bbd6266e57a40fdb3702f32d1a564d5d06f05ed977ace613dd349181900360200190a25050565b62093a8081565b6071546000906001600160a01b0316612926576040805162461bcd60e51b815260206004820181905260248201527f4e65656420612064656661756c7420747261646520696e746567726174696f6e604482015290519081900360640190fd5b606c54604080517f7804a5dc00000000000000000000000000000000000000000000000000000000815233600482015290516001600160a01b0390921691637804a5dc91602480820192602092909190829003018186803b15801561298a57600080fd5b505afa15801561299e573d6000803e3d6000fd5b505050506040513d60208110156129b457600080fd5b5051806129c3575060995460ff165b6129fe5760405162461bcd60e51b8152600401808060200182810382526027815260200180614ffc6027913960400191505060405180910390fd5b6000606a60009054906101000a90046001600160a01b03166001600160a01b0316638853932d8d338e8e8e8e8e8e8e8e6040518b63ffffffff1660e01b8152600401808b6001600160a01b031681526020018a6001600160a01b03168152602001806020018060200180602001898152602001806020018781526020018060200186810386528e818151815260200191508051906020019080838360005b83811015612ab4578181015183820152602001612a9c565b50505050905090810190601f168015612ae15780820380516001836020036101000a031916815260200191505b5086810385528d5181528d516020918201918f019080838360005b83811015612b14578181015183820152602001612afc565b50505050905090810190601f168015612b415780820380516001836020036101000a031916815260200191505b5086810384528c5181528c516020918201918e019080838360005b83811015612b74578181015183820152602001612b5c565b50505050905090810190601f168015612ba15780820380516001836020036101000a031916815260200191505b5086810383528a8a828181526020019250602002808284376000838201819052601f909101601f19169092018881038452895181528951602091820193828c0193509102908190849084905b83811015612c05578181015183820152602001612bed565b505050509050019f50505050505050505050505050505050602060405180830381600087803b158015612c3757600080fd5b505af1158015612c4b573d6000803e3d6000fd5b505050506040513d6020811015612c6157600080fd5b505190506001600160a01b038c1673c02aaa39b223fe8d0a0e5c4f27ead9083c756cc2141580612c8f575034155b15612dc757604080517f23b872dd0000000000000000000000000000000000000000000000000000000081523360048201523060248201526044810187905290516001600160a01b038e16916323b872dd9160648083019260209291908290030181600087803b158015612d0257600080fd5b505af1158015612d16573d6000803e3d6000fd5b505050506040513d6020811015612d2c57600080fd5b5050604080517f095ea7b30000000000000000000000000000000000000000000000000000000081526001600160a01b038381166004830152602482018890529151918e169163095ea7b3916044808201926020929091908290030181600087803b158015612d9a57600080fd5b505af1158015612dae573d6000803e3d6000fd5b505050506040513d6020811015612dc457600080fd5b50505b6001600160a01b03811660009081526086602052604090205460ff1615612e35576040805162461bcd60e51b815260206004820152601560248201527f47617264656e20616c7265616479206578697374730000000000000000000000604482015290519081900360640190fd5b6001600160a01b038116600081815260866020526040808220805460ff191660019081179091556065805480830182559084527f8ff97419363ffd7000167f130ef7168fbea05faf9251824ca5043f113cc6a7c70180546001600160a01b0319168517905581517f695f3f5d000000000000000000000000000000000000000000000000000000008152600481018a9052602481018a90523360448201526064810191909152905163695f3f5d9234926084808201939182900301818588803b158015612f0157600080fd5b505af1158015612f15573d6000803e3d6000fd5b505050505082600081518110612f2757fe5b60200260200101516000141580612f53575082600181518110612f4657fe5b6020026020010151600014155b80612f73575082600281518110612f6657fe5b6020026020010151600014155b1561303b57606b5483516001600160a01b03909116906380334dbe9083908690600090612f9c57fe5b602002602001015186600181518110612fb157fe5b602002602001015187600281518110612fc657fe5b60200260200101516040518563ffffffff1660e01b815260040180856001600160a01b03168152602001848152602001838152602001828152602001945050505050600060405180830381600087803b15801561302257600080fd5b505af1158015613036573d6000803e3d6000fd5b505050505b60405133906001600160a01b038316907f3f9c315348eaae54d760380967a68b458af53312321328f584799f93283dc1de90600090a39b9a5050505050505050505050565b60945481565b609b5460009060ff1680611a655750506001600160a01b03166000908152609a602052604090205460ff1690565b601481565b60896020526000908152604090205460ff1681565b6071546001600160a01b031681565b608b546001600160a01b031681565b609b5460ff1681565b6130fd61496a565b6001600160a01b031661310e613a07565b6001600160a01b031614613157576040805162461bcd60e51b81526020600482018190526024820152600080516020614fa5833981519152604482015290519081900360640190fd5b6001600160a01b0381166131aa576040805162461bcd60e51b8152602060048201526015602482015274041646472657373206d757374206e6f74206265203605c1b604482015290519081900360640190fd5b606d80546001600160a01b038381166001600160a01b031983168117909355604080519190921680825291519192917f57c1ea229271e944c7d975557caf535c1c974708de760613121827217db4ce8f9181900360200190a25050565b60995460009061010090046001600160a01b0316331480613240575061322b613a07565b6001600160a01b0316336001600160a01b0316145b61327b5760405162461bcd60e51b8152600401808060200182810382526030815260200180614f136030913960400191505060405180910390fd5b613283613a07565b6001600160a01b0316336001600160a01b031614806132a457506001821515145b6132f5576040805162461bcd60e51b815260206004820152601660248201527f6f6e6c792061646d696e2063616e20756e706175736500000000000000000000604482015290519081900360640190fd5b609b805483151560ff1990911681179091556040805160208101929092528082526015828201527f477561726469616e20676c6f62616c20706175736500000000000000000000006060830152517fef159d9a32b2472e32b098f954f3ce62d232939f1c207070b584df1814de2de09181900360800190a15090565b61546090565b61337f61496a565b6001600160a01b0316613390613a07565b6001600160a01b0316146133d9576040805162461bcd60e51b81526020600482018190526024820152600080516020614fa5833981519152604482015290519081900360640190fd5b6033546040516000916001600160a01b0316907f8be0079c531659141344cd1fd0a4f28419497f9722a3daafe3b4186f6b6457e0908390a3603380546001600160a01b0319169055565b60985481565b608c5481565b60935462010000900460ff1681565b6134466149eb565b6611c37937e0800060955566b1a2bc2ec5000060948190556000609681905560975567016345785d8a0000608c55608d55670b1a2bc2ec500000608e5567011c37937e080000608f5567025bf6196bd10000609055670a688906bd8b0000609155670214e8348c4f000060925560646098556099805460ff19169055565b6134cc61496a565b6001600160a01b03166134dd613a07565b6001600160a01b031614613526576040805162461bcd60e51b81526020600482018190526024820152600080516020614fa5833981519152604482015290519081900360640190fd5b6001600160a01b038116613579576040805162461bcd60e51b8152602060048201526015602482015274041646472657373206d757374206e6f74206265203605c1b604482015290519081900360640190fd5b606b80546001600160a01b038381166001600160a01b031983168117909355604080519190921680825291519192917f52cd8e0a7f86e9df123b3357ab2ee1c4cd0f5ac84ca8c98d93beb2679b2bb8069181900360200190a25050565b6135de61496a565b6001600160a01b03166135ef613a07565b6001600160a01b031614613638576040805162461bcd60e51b81526020600482018190526024820152600080516020614fa5833981519152604482015290519081900360640190fd5b6001600160a01b03811661368b576040805162461bcd60e51b8152602060048201526015602482015274041646472657373206d757374206e6f74206265203605c1b604482015290519081900360640190fd5b608b80546001600160a01b038381166001600160a01b03198316811790935560408051938452911660208301819052815190927f8c3aa5f43a388513435861bf27dfad7829cd248696fed367c62d441f6295449692908290030190a15050565b60925481565b6136f961496a565b6001600160a01b031661370a613a07565b6001600160a01b031614613753576040805162461bcd60e51b81526020600482018190526024820152600080516020614fa5833981519152604482015290519081900360640190fd5b6001600160a01b03811660009081526087602052604090205460ff166137c0576040805162461bcd60e51b815260206004820152601c60248201527f5265736572766520617373657420646f6573206e6f7420657869737400000000604482015290519081900360640190fd5b61382b816066805480602002602001604051908101604052809291908181526020018280548015611fa1576020028201919060005260206000209081546001600160a01b03168152600190910190602001808311611f8357505050505061496e90919063ffffffff16565b805161383f91606691602090910190614e26565b506001600160a01b038116600081815260876020526040808220805460ff19169055517f2a4ae73bc76175e864e83c9843f11cf15a1bfcfa73152fb96d133416efee48ed9190a250565b61389161496a565b6001600160a01b03166138a2613a07565b6001600160a01b0316146138eb576040805162461bcd60e51b81526020600482018190526024820152600080516020614fa5833981519152604482015290519081900360640190fd5b60008111613940576040805162461bcd60e51b815260206004820152601d60248201527f5f6d696e5269736b79506169724c6971756964697479457468203e2030000000604482015290519081900360640190fd5b6001600160a01b03821660009081526087602052604090205460ff166139ad576040805162461bcd60e51b815260206004820152601b60248201527f4e6565647320746f20626520612076616c696420726573657276650000000000604482015290519081900360640190fd5b6001600160a01b0382166000818152608a6020908152604091829020849055815184815291517fb78c51bc9bffa228585b84c38a0234fe0a48eb7aeb9f7a6a7a46f0ddd3270dd59281900390910190a25050565b608e5481565b6000613a11614a9d565b905090565b62093a8090565b613a2561496a565b6001600160a01b0316613a36613a07565b6001600160a01b031614613a7f576040805162461bcd60e51b81526020600482018190526024820152600080516020614fa5833981519152604482015290519081900360640190fd5b6001600160a01b03811660009081526086602052604090205460ff16613aec576040805162461bcd60e51b815260206004820152601560248201527f47617264656e20646f6573206e6f742065786973740000000000000000000000604482015290519081900360640190fd5b6000819050806001600160a01b03166302fb0c5e6040518163ffffffff1660e01b815260040160206040518083038186803b158015613b2a57600080fd5b505afa158015613b3e573d6000803e3d6000fd5b505050506040513d6020811015613b5457600080fd5b5051613ba7576040805162461bcd60e51b815260206004820152601e60248201527f5468652067617264656e206e6565647320746f206265206163746976652e0000604482015290519081900360640190fd5b6040805163567619c560e11b815260006004820181905291516001600160a01b0384169263acec338a926024808201939182900301818387803b158015611d3057600080fd5b606581815481106123af57600080fd5b606d546001600160a01b031681565b73c02aaa39b223fe8d0a0e5c4f27ead9083c756cc281565b60886020526000908152604090205460ff1681565b60876020526000908152604090205460ff1681565b613c5661496a565b6001600160a01b0316613c67613a07565b6001600160a01b031614613cb0576040805162461bcd60e51b81526020600482018190526024820152600080516020614fa5833981519152604482015290519081900360640190fd5b6001600160a01b038116613d03576040805162461bcd60e51b8152602060048201526015602482015274041646472657373206d757374206e6f74206265203605c1b604482015290519081900360640190fd5b606f80546001600160a01b038381166001600160a01b031983168117909355604080519190921680825291519192917e40167ea3901ef812c672b081813db3c0fc117c302ace151f1f9a907906e1669181900360200190a25050565b613d6761496a565b6001600160a01b0316613d78613a07565b6001600160a01b031614613dc1576040805162461bcd60e51b81526020600482018190526024820152600080516020614fa5833981519152604482015290519081900360640190fd5b6068546001600160a01b0382811691161415613e24576040805162461bcd60e51b815260206004820152601c60248201527f47617264656e2056616c75657220616c72656164792065786973747300000000604482015290519081900360640190fd5b6001600160a01b038116613e7f576040805162461bcd60e51b815260206004820152601860248201527f47617264656e2056616c756572206d7573742065786973740000000000000000604482015290519081900360640190fd5b606880546001600160a01b038381166001600160a01b031983168117909355604080519190921680825291519192917fb89b871cab0fe1b2d8c7cc3e16640ef9a9bf67f031e44947331820e025bf69479181900360200190a25050565b60606066805480602002602001604051908101604052809291908181526020018280548015613f3457602002820191906000526020600020905b81546001600160a01b03168152600190910190602001808311613f16575b5050505050905090565b613f4661496a565b6001600160a01b0316613f57613a07565b6001600160a01b031614613fa0576040805162461bcd60e51b81526020600482018190526024820152600080516020614fa5833981519152604482015290519081900360640190fd5b6069546001600160a01b0382811691161415614003576040805162461bcd60e51b815260206004820152601b60248201527f5072696365206f7261636c6520616c7265616479206578697374730000000000604482015290519081900360640190fd5b6001600160a01b03811661405e576040805162461bcd60e51b815260206004820152601760248201527f5072696365206f7261636c65206d757374206578697374000000000000000000604482015290519081900360640190fd5b606980546001600160a01b038381166001600160a01b031983168117909355604080519190921680825291519192917f40bddd72ea96b80dae14e3d13e8ce2c4ecd2500d88c6c0004d24a00deab28f9c9181900360200190a25050565b606a546001600160a01b031681565b606c546001600160a01b031681565b608d5481565b608f5481565b6140ed61496a565b6001600160a01b03166140fe613a07565b6001600160a01b031614614147576040805162461bcd60e51b81526020600482018190526024820152600080516020614fa5833981519152604482015290519081900360640190fd5b60995460ff16156141895760405162461bcd60e51b815260040180806020018281038252602d815260200180615023602d913960400191505060405180910390fd5b6099805460ff19166001179055565b6141a061496a565b6001600160a01b03166141b1613a07565b6001600160a01b0316146141fa576040805162461bcd60e51b81526020600482018190526024820152600080516020614fa5833981519152604482015290519081900360640190fd5b601460ff831610614252576040805162461bcd60e51b815260206004820152601660248201527f4d6178206f7065726174696f6e73207265616368656400000000000000000000604482015290519081900360640190fd5b806001600160a01b031660728360ff166014811061426c57fe5b01546001600160a01b031614156142ca576040805162461bcd60e51b815260206004820152601560248201527f4f7065726174696f6e20616c7265616479207365740000000000000000000000604482015290519081900360640190fd5b6001600160a01b038116614325576040805162461bcd60e51b815260206004820152601d60248201527f4f7065726174696f6e2061646472657373206d7573742065786973742e000000604482015290519081900360640190fd5b8060728360ff166014811061433657fe5b0180546001600160a01b039283166001600160a01b03199091161790556040805191831682525160ff8416917f2dc23b4bb2132388a8a9f2d4a7ec650d42dcd4c1c63e6495756fa25e8ecc6abd919081900360200190a25050565b606f546001600160a01b031681565b60606065805480602002602001604051908101604052809291908181526020018280548015613f34576020028201919060005260206000209081546001600160a01b03168152600190910190602001808311613f16575050505050905090565b61440861496a565b6001600160a01b0316614419613a07565b6001600160a01b031614614462576040805162461bcd60e51b81526020600482018190526024820152600080516020614fa5833981519152604482015290519081900360640190fd5b6001600160a01b0381166144b5576040805162461bcd60e51b8152602060048201526015602482015274041646472657373206d757374206e6f74206265203605c1b604482015290519081900360640190fd5b606e80546001600160a01b038381166001600160a01b031983168117909355604080519190921680825291519192917f578086cc379999d712cf9ea4c177a02b092c028a84cf82d2dd590f2606b3169f9181900360200190a25050565b61451a61496a565b6001600160a01b031661452b613a07565b6001600160a01b031614614574576040805162461bcd60e51b81526020600482018190526024820152600080516020614fa5833981519152604482015290519081900360640190fd5b6001600160a01b0381166145c7576040805162461bcd60e51b8152602060048201526015602482015274041646472657373206d757374206e6f74206265203605c1b604482015290519081900360640190fd5b606a80546001600160a01b038381166001600160a01b031983168117909355604080519190921680825291519192917f1e3307b8b00f4ec731298a869e9665a2662abd65a0e3fe9dd01fd53c35b0ae939181900360200190a25050565b606e546001600160a01b031681565b61463b61496a565b6001600160a01b031661464c613a07565b6001600160a01b031614614695576040805162461bcd60e51b81526020600482018190526024820152600080516020614fa5833981519152604482015290519081900360640190fd5b6001600160a01b03811660009081526087602052604090205460ff1615614703576040805162461bcd60e51b815260206004820152601b60248201527f5265736572766520617373657420616c72656164792061646465640000000000604482015290519081900360640190fd5b6001600160a01b038116600081815260876020526040808220805460ff1916600190811790915560668054918201815583527f46501879b8ca8525e8c2fd519e2fbfcfa2ebea26501294aa02cbfcfb12e943540180546001600160a01b03191684179055517f9fef46e320a4767c320315d2f597ee79c1e17c3c3330d026764d6a7dac8fcd5c9190a250565b608a6020526000908152604090205481565b608f5460905460915460925490919293565b6147bb61496a565b6001600160a01b03166147cc613a07565b6001600160a01b031614614815576040805162461bcd60e51b81526020600482018190526024820152600080516020614fa5833981519152604482015290519081900360640190fd5b6001600160a01b03811661485a5760405162461bcd60e51b8152600401808060200182810382526026815260200180614ec06026913960400191505060405180910390fd5b6033546040516001600160a01b038084169216907f8be0079c531659141344cd1fd0a4f28419497f9722a3daafe3b4186f6b6457e090600090a3603380546001600160a01b0319166001600160a01b0392909216919091179055565b61546081565b6148c4614e8b565b60408051610280810191829052607280546001600160a01b031682529091601490607360208501808311613f16575050505050905090565b6001600160a01b031660009081526087602052604090205460ff1690565b6000805b601460ff821610156149615760728160ff166014811061493a57fe5b01546001600160a01b0384811691161415614959576001915050611a68565b60010161491e565b50600092915050565b3390565b606060008061497d8585614aac565b91509150806149d3576040805162461bcd60e51b815260206004820152601560248201527f41646472657373206e6f7420696e2061727261792e0000000000000000000000604482015290519081900360640190fd5b60006149df8684614b12565b5093506117e692505050565b600054610100900460ff1680614a045750614a04614c76565b80614a12575060005460ff16155b614a4d5760405162461bcd60e51b815260040180806020018281038252602e815260200180614f77602e913960400191505060405180910390fd5b600054610100900460ff16158015614a78576000805460ff1961ff0019909116610100171660011790555b614a80614c87565b614a88614d27565b8015614a9a576000805461ff00191690555b50565b6033546001600160a01b031690565b81516000908190815b81811015614aff57846001600160a01b0316868281518110614ad357fe5b60200260200101516001600160a01b03161415614af757925060019150614b0b9050565b600101614ab5565b50600019600092509250505b9250929050565b8151606090600090808410614b6e576040805162461bcd60e51b815260206004820152601860248201527f496e646578206d757374206265203c2041206c656e6774680000000000000000604482015290519081900360640190fd5b60006001820367ffffffffffffffff81118015614b8a57600080fd5b50604051908082528060200260200182016040528015614bb4578160200160208202803683370190505b50905060005b85811015614c0257868181518110614bce57fe5b6020026020010151828281518110614be257fe5b6001600160a01b0390921660209283029190910190910152600101614bba565b50600185015b82811015614c5357868181518110614c1c57fe5b6020026020010151826001830381518110614c3357fe5b6001600160a01b0390921660209283029190910190910152600101614c08565b5080868681518110614c6157fe5b60200260200101519350935050509250929050565b6000614c8130614e20565b15905090565b600054610100900460ff1680614ca05750614ca0614c76565b80614cae575060005460ff16155b614ce95760405162461bcd60e51b815260040180806020018281038252602e815260200180614f77602e913960400191505060405180910390fd5b600054610100900460ff16158015614a88576000805460ff1961ff0019909116610100171660011790558015614a9a576000805461ff001916905550565b600054610100900460ff1680614d405750614d40614c76565b80614d4e575060005460ff16155b614d895760405162461bcd60e51b815260040180806020018281038252602e815260200180614f77602e913960400191505060405180910390fd5b600054610100900460ff16158015614db4576000805460ff1961ff0019909116610100171660011790555b6000614dbe61496a565b603380546001600160a01b0319166001600160a01b038316908117909155604051919250906000907f8be0079c531659141344cd1fd0a4f28419497f9722a3daafe3b4186f6b6457e0908290a3508015614a9a576000805461ff001916905550565b3b151590565b828054828255906000526020600020908101928215614e7b579160200282015b82811115614e7b57825182546001600160a01b0319166001600160a01b03909116178255602090920191600190910190614e46565b50614e87929150614eaa565b5090565b6040518061028001604052806014906020820280368337509192915050565b5b80821115614e875760008155600101614eab56fe4f776e61626c653a206e6577206f776e657220697320746865207a65726f2061646472657373436f6e7472696275746f72732063616e6e6f74206265206c657373207468616e2031207065722067617264656e6f6e6c7920706175736520677561726469616e20616e64206f776e65722063616e20706175736520676c6f62616c6c796f6e6c7920706175736520677561726469616e20616e64206f776e65722063616e20706175736520696e646976696475616c6c79496e697469616c697a61626c653a20636f6e747261637420697320616c726561647920696e697469616c697a65644f776e61626c653a2063616c6c6572206973206e6f7420746865206f776e65726f6e6c7920706175736520677561726469616e20616e64206f776e65722063616e2075706461746520706175736520677561726469616e5573657220646f6573206e6f742068617665206372656174696f6e207065726d697373696f6e7347617264656e206372656174696f6e20697320616c7265616479206f70656e20746f20746865207075626c6963a2646970667358221220d347be76ba3acb2710e4221b5a27c898a0d37be20cf69b785c276bde28b258bf64736f6c63430007060033",
  "devdoc": {
    "kind": "dev",
    "methods": {
      "addKeeper(address)": {
        "params": {
          "_keeper": "Address of the keeper"
        }
      },
      "addKeepers(address[])": {
        "params": {
          "_keepers": "List with keeprs of the assets to whitelist"
        }
      },
      "addReserveAsset(address)": {
        "params": {
          "_reserveAsset": "Address of the reserve assset"
        }
      },
      "createGarden(address,string,string,string,uint256,uint256[],uint256,bool[],uint256[])": {
        "params": {
          "_gardenParams": "Array of numeric garden params",
          "_initialContribution": "Initial contribution by the gardener",
          "_name": "Name of the Garden",
          "_profitSharing": "Custom profit sharing (if any)",
          "_publicGardenStrategistsStewards": "Public garden, public strategist rights and public stewards rights",
          "_reserveAsset": "Reserve asset of the Garden. Initially just weth",
          "_seed": "Seed to regenerate the garden NFT",
          "_symbol": "Symbol of the Garden",
          "_tokenURI": "Garden NFT token URI"
        }
      },
      "disableGarden(address)": {
        "params": {
          "_garden": "Address of the garden"
        }
      },
      "editGardenFactory(address)": {
        "params": {
          "_newGardenFactory": "Address of the new garden factory"
        }
      },
      "editGardenNFT(address)": {
        "params": {
          "_newGardenNFT": "Address of the new garden NFT"
        }
      },
      "editGardenValuer(address)": {
        "params": {
          "_gardenValuer": "Address of the new garden valuer"
        }
      },
      "editIshtarGate(address)": {
        "params": {
          "_ishtarGate": "Address of the new Ishtar Gate"
        }
      },
      "editLiquidityReserve(address,uint256)": {
        "params": {
          "_newMinLiquidityReserve": "Absolute min liquidity of an asset to grab price",
          "_reserve": "Address of the reserve to edit"
        }
      },
      "editPriceOracle(address)": {
        "params": {
          "_priceOracle": "Address of the new price oracle"
        }
      },
      "editRewardsDistributor(address)": {
        "params": {
          "_newRewardsDistributor": "Address of the new rewards distributor"
        }
      },
      "editStrategyFactory(address)": {
        "params": {
          "_newStrategyFactory": "Address of the new strategy factory"
        }
      },
      "editStrategyNFT(address)": {
        "params": {
          "_newStrategyNFT": "Address of the new strategy NFT"
        }
      },
      "editTreasury(address)": {
        "params": {
          "_newTreasury": "Address of the new protocol fee recipient"
        }
      },
      "enableGarden(address)": {
        "params": {
          "_garden": "Address of the garden"
        }
      },
      "getBABLSharing()": {
        "returns": {
          "_0": "Strategist, Stewards, Lps, creator bonus"
        }
      },
      "getProfitSharing()": {
        "returns": {
          "_0": "Strategist, Stewards, Lps, creator bonus"
        }
      },
      "isPaused(address)": {
        "params": {
          "_contract": "Smartcontract address to check for a global or specific pause"
        }
      },
      "isSystemContract(address)": {
        "params": {
          "_contractAddress": "The contract address to check"
        }
      },
      "removeGarden(address)": {
        "params": {
          "_garden": "Address of the Garden contract to remove"
        }
      },
      "removeKeeper(address)": {
        "params": {
          "_keeper": "Address of the keeper"
        }
      },
      "removeReserveAsset(address)": {
        "params": {
          "_reserveAsset": "Address of the reserve asset to remove"
        }
      },
      "renounceOwnership()": {
        "details": "Leaves the contract without owner. It will not be possible to call `onlyOwner` functions anymore. Can only be called by the current owner. NOTE: Renouncing ownership will leave the contract without an owner, thereby removing any functionality that is only available to the owner."
      },
      "setDefaultTradeIntegration(address)": {
        "params": {
          "_newDefaultTradeIntegation": "Address of the new default trade integration"
        }
      },
      "setGlobalPause(bool)": {
        "params": {
          "_state": "True to pause, false to unpause."
        }
      },
      "setOperation(uint8,address)": {
        "params": {
          "_kind": "Operation kind",
          "_operation": "Address of the operation contract to set"
        }
      },
      "setPauseGuardian(address)": {
        "params": {
          "_guardian": "Address of the guardian"
        }
      },
      "setSomePause(address[],bool)": {
        "params": {
          "_address": "Addresses of protocol smartcontract to be paused",
          "_state": "Boolean pause state"
        }
      },
      "transferOwnership(address)": {
        "details": "Transfers ownership of the contract to a new account (`newOwner`). Can only be called by the current owner."
      }
    },
    "version": 1
  },
  "userdoc": {
    "events": {
      "ActionPaused(string,bool)": {
        "notice": "Emitted when an action is paused globally"
      },
      "ActionPausedIndividually(string,address,bool)": {
        "notice": "Emitted when an action is paused individually"
      },
      "NewPauseGuardian(address,address)": {
        "notice": "Emitted when pause guardian is changed"
      }
    },
    "kind": "user",
    "methods": {
      "addKeeper(address)": {
        "notice": "PRIVILEGED FACTORY FUNCTION. Adds a new valid keeper to the list"
      },
      "addKeepers(address[])": {
        "notice": "PRIVILEGED FACTORY FUNCTION. Adds a list of assets to the whitelist"
      },
      "addReserveAsset(address)": {
        "notice": "PRIVILEGED FACTORY FUNCTION. Adds a new valid reserve asset for gardens"
      },
      "createGarden(address,string,string,string,uint256,uint256[],uint256,bool[],uint256[])": {
        "notice": "Creates a Garden smart contract and registers the Garden with the controller. If asset is not WETH, the creator needs to approve the controller"
      },
      "disableGarden(address)": {
        "notice": "PRIVILEGED GOVERNANCE FUNCTION. Allows governance to disable a garden"
      },
      "editGardenFactory(address)": {
        "notice": "PRIVILEGED GOVERNANCE FUNCTION. Allows governance to edit the protocol garden factory"
      },
      "editGardenNFT(address)": {
        "notice": "PRIVILEGED GOVERNANCE FUNCTION. Allows governance to edit the protocol garden NFT"
      },
      "editGardenValuer(address)": {
        "notice": "PRIVILEGED GOVERNANCE FUNCTION. Allows governance to change the garden valuer"
      },
      "editIshtarGate(address)": {
        "notice": "PRIVILEGED GOVERNANCE FUNCTION. Allows governance to change the Ishtar Gate Address"
      },
      "editLiquidityReserve(address,uint256)": {
        "notice": "GOVERNANCE FUNCTION: Edits the minimum liquidity an asset must have on Uniswap"
      },
      "editPriceOracle(address)": {
        "notice": "PRIVILEGED GOVERNANCE FUNCTION. Allows governance to change the price oracle"
      },
      "editRewardsDistributor(address)": {
        "notice": "PRIVILEGED GOVERNANCE FUNCTION. Allows governance to edit the rewards distributor"
      },
      "editStrategyFactory(address)": {
        "notice": "PRIVILEGED GOVERNANCE FUNCTION. Allows governance to edit the protocol strategy factory"
      },
      "editStrategyNFT(address)": {
        "notice": "PRIVILEGED GOVERNANCE FUNCTION. Allows governance to edit the protocol strategy NFT"
      },
      "editTreasury(address)": {
        "notice": "PRIVILEGED GOVERNANCE FUNCTION. Allows governance to edit the protocol fee recipient"
      },
      "enableBABLMiningProgram()": {
        "notice": "PRIVILEGED GOVERNANCE FUNCTION. Enable and starts the BABL Mining program by the Rewards Distributor Can only happen after public launch of the protocol."
      },
      "enableGarden(address)": {
        "notice": "PRIVILEGED GOVERNANCE FUNCTION. Allows governance to enable a garden"
      },
      "enableGardenTokensTransfers()": {
        "notice": "PRIVILEGED GOVERNANCE FUNCTION. Allows transfers of ERC20 gardenTokens Can only happen after 2021 is finished."
      },
      "getBABLSharing()": {
        "notice": "Returns the percentages of BABL Profit Sharing"
      },
      "getProfitSharing()": {
        "notice": "Returns the percentages of a strategy Profit Sharing"
      },
      "initialize()": {
        "notice": "Initializes the initial fee recipient on deployment."
      },
      "isPaused(address)": {
        "notice": "Check whether or not there is a global pause or a specific pause of the provided contract address"
      },
      "isSystemContract(address)": {
        "notice": "Check if a contract address is a garden or one of the system contracts"
      },
      "openPublicGardenCreation()": {
        "notice": "PRIVILEGED GOVERNANCE FUNCTION. Allows governance to enable public creation of gardens"
      },
      "removeGarden(address)": {
        "notice": "PRIVILEGED GOVERNANCE FUNCTION. Allows governance to remove a Garden"
      },
      "removeKeeper(address)": {
        "notice": "PRIVILEGED FACTORY FUNCTION. Removes a keeper"
      },
      "removeReserveAsset(address)": {
        "notice": "PRIVILEGED GOVERNANCE FUNCTION. Allows governance to remove a reserve asset"
      },
      "setAllowPublicGardens()": {
        "notice": "PRIVILEGED GOVERNANCE FUNCTION. Allows public gardens"
      },
      "setDefaultTradeIntegration(address)": {
        "notice": "PRIVILEGED GOVERNANCE FUNCTION. Allows governance to edit the protocol default trde integration"
      },
      "setGlobalPause(bool)": {
        "notice": "PRIVILEGED GOVERNANCE FUNCTION. Pause the protocol globally in case of unexpected issue Only the governance can unpause it"
      },
      "setMaxContributorsPerGarden(uint256)": {
        "notice": "PRIVILEGED GOVERNANCE FUNCTION. Change the max number of contributors for new Gardens since the change"
      },
      "setOperation(uint8,address)": {
        "notice": "GOVERNANCE FUNCTION: Edit an existing operation on the registry"
      },
      "setPauseGuardian(address)": {
        "notice": "PRIVILEGED GOVERNANCE FUNCTION. Set-up a pause guardian"
      },
      "setSomePause(address[],bool)": {
        "notice": "PRIVILEGED GOVERNANCE FUNCTION. Pause some smartcontracts in a batch process in case of unexpected issue Only the governance can unpause it"
      }
    },
    "version": 1
  },
  "storageLayout": {
    "storage": [
      {
        "astId": 492,
        "contract": "contracts/BabController.sol:BabControllerV5",
        "label": "_initialized",
        "offset": 0,
        "slot": "0",
        "type": "t_bool"
      },
      {
        "astId": 495,
        "contract": "contracts/BabController.sol:BabControllerV5",
        "label": "_initializing",
        "offset": 1,
        "slot": "0",
        "type": "t_bool"
      },
      {
        "astId": 1447,
        "contract": "contracts/BabController.sol:BabControllerV5",
        "label": "__gap",
        "offset": 0,
        "slot": "1",
        "type": "t_array(t_uint256)50_storage"
      },
      {
        "astId": 10,
        "contract": "contracts/BabController.sol:BabControllerV5",
        "label": "_owner",
        "offset": 0,
        "slot": "51",
        "type": "t_address"
      },
      {
        "astId": 129,
        "contract": "contracts/BabController.sol:BabControllerV5",
        "label": "__gap",
        "offset": 0,
        "slot": "52",
        "type": "t_array(t_uint256)49_storage"
      },
      {
        "astId": 8924,
        "contract": "contracts/BabController.sol:BabControllerV5",
        "label": "gardens",
        "offset": 0,
        "slot": "101",
        "type": "t_array(t_address)dyn_storage"
      },
      {
        "astId": 8927,
        "contract": "contracts/BabController.sol:BabControllerV5",
        "label": "reserveAssets",
        "offset": 0,
        "slot": "102",
        "type": "t_array(t_address)dyn_storage"
      },
      {
        "astId": 8929,
        "contract": "contracts/BabController.sol:BabControllerV5",
        "label": "uniswapFactory",
        "offset": 0,
        "slot": "103",
        "type": "t_address"
      },
      {
        "astId": 8932,
        "contract": "contracts/BabController.sol:BabControllerV5",
        "label": "gardenValuer",
        "offset": 0,
        "slot": "104",
        "type": "t_address"
      },
      {
        "astId": 8935,
        "contract": "contracts/BabController.sol:BabControllerV5",
        "label": "priceOracle",
        "offset": 0,
        "slot": "105",
        "type": "t_address"
      },
      {
        "astId": 8938,
        "contract": "contracts/BabController.sol:BabControllerV5",
        "label": "gardenFactory",
        "offset": 0,
        "slot": "106",
        "type": "t_address"
      },
      {
        "astId": 8941,
        "contract": "contracts/BabController.sol:BabControllerV5",
        "label": "rewardsDistributor",
        "offset": 0,
        "slot": "107",
        "type": "t_address"
      },
      {
        "astId": 8944,
        "contract": "contracts/BabController.sol:BabControllerV5",
        "label": "ishtarGate",
        "offset": 0,
        "slot": "108",
        "type": "t_address"
      },
      {
        "astId": 8947,
        "contract": "contracts/BabController.sol:BabControllerV5",
        "label": "strategyFactory",
        "offset": 0,
        "slot": "109",
        "type": "t_address"
      },
      {
        "astId": 8950,
        "contract": "contracts/BabController.sol:BabControllerV5",
        "label": "gardenNFT",
        "offset": 0,
        "slot": "110",
        "type": "t_address"
      },
      {
        "astId": 8953,
        "contract": "contracts/BabController.sol:BabControllerV5",
        "label": "strategyNFT",
        "offset": 0,
        "slot": "111",
        "type": "t_address"
      },
      {
        "astId": 8957,
        "contract": "contracts/BabController.sol:BabControllerV5",
        "label": "enabledIntegrations",
        "offset": 0,
        "slot": "112",
        "type": "t_mapping(t_bytes32,t_address)"
      },
      {
        "astId": 8960,
        "contract": "contracts/BabController.sol:BabControllerV5",
        "label": "defaultTradeIntegration",
        "offset": 0,
        "slot": "113",
        "type": "t_address"
      },
      {
        "astId": 8965,
        "contract": "contracts/BabController.sol:BabControllerV5",
        "label": "enabledOperations",
        "offset": 0,
        "slot": "114",
        "type": "t_array(t_address)20_storage"
      },
      {
        "astId": 8970,
        "contract": "contracts/BabController.sol:BabControllerV5",
        "label": "isGarden",
        "offset": 0,
        "slot": "134",
        "type": "t_mapping(t_address,t_bool)"
      },
      {
        "astId": 8974,
        "contract": "contracts/BabController.sol:BabControllerV5",
        "label": "validReserveAsset",
        "offset": 0,
        "slot": "135",
        "type": "t_mapping(t_address,t_bool)"
      },
      {
        "astId": 8978,
        "contract": "contracts/BabController.sol:BabControllerV5",
        "label": "assetWhitelist",
        "offset": 0,
        "slot": "136",
        "type": "t_mapping(t_address,t_bool)"
      },
      {
        "astId": 8982,
        "contract": "contracts/BabController.sol:BabControllerV5",
        "label": "keeperList",
        "offset": 0,
        "slot": "137",
        "type": "t_mapping(t_address,t_bool)"
      },
      {
        "astId": 8987,
        "contract": "contracts/BabController.sol:BabControllerV5",
        "label": "minLiquidityPerReserve",
        "offset": 0,
        "slot": "138",
        "type": "t_mapping(t_address,t_uint256)"
      },
      {
        "astId": 8990,
        "contract": "contracts/BabController.sol:BabControllerV5",
        "label": "treasury",
        "offset": 0,
        "slot": "139",
        "type": "t_address"
      },
      {
        "astId": 8998,
        "contract": "contracts/BabController.sol:BabControllerV5",
        "label": "strategistProfitPercentage",
        "offset": 0,
        "slot": "140",
        "type": "t_uint256"
      },
      {
        "astId": 9000,
        "contract": "contracts/BabController.sol:BabControllerV5",
        "label": "stewardsProfitPercentage",
        "offset": 0,
        "slot": "141",
        "type": "t_uint256"
      },
      {
        "astId": 9002,
        "contract": "contracts/BabController.sol:BabControllerV5",
        "label": "lpsProfitPercentage",
        "offset": 0,
        "slot": "142",
        "type": "t_uint256"
      },
      {
        "astId": 9004,
        "contract": "contracts/BabController.sol:BabControllerV5",
        "label": "strategistBABLPercentage",
        "offset": 0,
        "slot": "143",
        "type": "t_uint256"
      },
      {
        "astId": 9006,
        "contract": "contracts/BabController.sol:BabControllerV5",
        "label": "stewardsBABLPercentage",
        "offset": 0,
        "slot": "144",
        "type": "t_uint256"
      },
      {
        "astId": 9008,
        "contract": "contracts/BabController.sol:BabControllerV5",
        "label": "lpsBABLPercentage",
        "offset": 0,
        "slot": "145",
        "type": "t_uint256"
      },
      {
        "astId": 9010,
        "contract": "contracts/BabController.sol:BabControllerV5",
        "label": "gardenCreatorBonus",
        "offset": 0,
        "slot": "146",
        "type": "t_uint256"
      },
      {
        "astId": 9013,
        "contract": "contracts/BabController.sol:BabControllerV5",
        "label": "gardenTokensTransfersEnabled",
        "offset": 0,
        "slot": "147",
        "type": "t_bool"
      },
      {
        "astId": 9016,
        "contract": "contracts/BabController.sol:BabControllerV5",
        "label": "bablMiningProgramEnabled",
        "offset": 1,
        "slot": "147",
        "type": "t_bool"
      },
      {
        "astId": 9019,
        "contract": "contracts/BabController.sol:BabControllerV5",
        "label": "allowPublicGardens",
        "offset": 2,
        "slot": "147",
        "type": "t_bool"
      },
      {
        "astId": 9022,
        "contract": "contracts/BabController.sol:BabControllerV5",
        "label": "protocolPerformanceFee",
        "offset": 0,
        "slot": "148",
        "type": "t_uint256"
      },
      {
        "astId": 9025,
        "contract": "contracts/BabController.sol:BabControllerV5",
        "label": "protocolManagementFee",
        "offset": 0,
        "slot": "149",
        "type": "t_uint256"
      },
      {
        "astId": 9027,
        "contract": "contracts/BabController.sol:BabControllerV5",
        "label": "protocolDepositGardenTokenFee",
        "offset": 0,
        "slot": "150",
        "type": "t_uint256"
      },
      {
        "astId": 9029,
        "contract": "contracts/BabController.sol:BabControllerV5",
        "label": "protocolWithdrawalGardenTokenFee",
        "offset": 0,
        "slot": "151",
        "type": "t_uint256"
      },
      {
        "astId": 9032,
        "contract": "contracts/BabController.sol:BabControllerV5",
        "label": "maxContributorsPerGarden",
        "offset": 0,
        "slot": "152",
        "type": "t_uint256"
      },
      {
        "astId": 9035,
        "contract": "contracts/BabController.sol:BabControllerV5",
        "label": "gardenCreationIsOpen",
        "offset": 0,
        "slot": "153",
        "type": "t_bool"
      },
      {
        "astId": 9037,
        "contract": "contracts/BabController.sol:BabControllerV5",
        "label": "guardian",
        "offset": 1,
        "slot": "153",
        "type": "t_address"
      },
      {
        "astId": 9042,
        "contract": "contracts/BabController.sol:BabControllerV5",
        "label": "guardianPaused",
        "offset": 0,
        "slot": "154",
        "type": "t_mapping(t_address,t_bool)"
      },
      {
        "astId": 9045,
        "contract": "contracts/BabController.sol:BabControllerV5",
        "label": "guardianGlobalPaused",
        "offset": 0,
        "slot": "155",
        "type": "t_bool"
      }
    ],
    "types": {
      "t_address": {
        "encoding": "inplace",
        "label": "address",
        "numberOfBytes": "20"
      },
      "t_array(t_address)20_storage": {
        "base": "t_address",
        "encoding": "inplace",
        "label": "address[20]",
        "numberOfBytes": "640"
      },
      "t_array(t_address)dyn_storage": {
        "base": "t_address",
        "encoding": "dynamic_array",
        "label": "address[]",
        "numberOfBytes": "32"
      },
      "t_array(t_uint256)49_storage": {
        "base": "t_uint256",
        "encoding": "inplace",
        "label": "uint256[49]",
        "numberOfBytes": "1568"
      },
      "t_array(t_uint256)50_storage": {
        "base": "t_uint256",
        "encoding": "inplace",
        "label": "uint256[50]",
        "numberOfBytes": "1600"
      },
      "t_bool": {
        "encoding": "inplace",
        "label": "bool",
        "numberOfBytes": "1"
      },
      "t_bytes32": {
        "encoding": "inplace",
        "label": "bytes32",
        "numberOfBytes": "32"
      },
      "t_mapping(t_address,t_bool)": {
        "encoding": "mapping",
        "key": "t_address",
        "label": "mapping(address => bool)",
        "numberOfBytes": "32",
        "value": "t_bool"
      },
      "t_mapping(t_address,t_uint256)": {
        "encoding": "mapping",
        "key": "t_address",
        "label": "mapping(address => uint256)",
        "numberOfBytes": "32",
        "value": "t_uint256"
      },
      "t_mapping(t_bytes32,t_address)": {
        "encoding": "mapping",
        "key": "t_bytes32",
        "label": "mapping(bytes32 => address)",
        "numberOfBytes": "32",
        "value": "t_address"
      },
      "t_uint256": {
        "encoding": "inplace",
        "label": "uint256",
        "numberOfBytes": "32"
      }
    }
  }
}