{
  "address": "0x7b430DcFe07d4eea9e1dCE4c47ca5496203fc835",
  "abi": [
    {
      "anonymous": false,
      "inputs": [
        {
          "indexed": false,
          "internalType": "string",
          "name": "_action",
          "type": "string"
        },
        {
          "indexed": false,
          "internalType": "bool",
          "name": "_pauseState",
          "type": "bool"
        }
      ],
      "name": "ActionPaused",
      "type": "event"
    },
    {
      "anonymous": false,
      "inputs": [
        {
          "indexed": false,
          "internalType": "string",
          "name": "_action",
          "type": "string"
        },
        {
          "indexed": false,
          "internalType": "address",
          "name": "_address",
          "type": "address"
        },
        {
          "indexed": false,
          "internalType": "bool",
          "name": "_pauseState",
          "type": "bool"
        }
      ],
      "name": "ActionPausedIndividually",
      "type": "event"
    },
    {
      "anonymous": false,
      "inputs": [
        {
          "indexed": false,
          "internalType": "address",
          "name": "_integration",
          "type": "address"
        },
        {
          "indexed": true,
          "internalType": "string",
          "name": "_integrationName",
          "type": "string"
        }
      ],
      "name": "ControllerIntegrationAdded",
      "type": "event"
    },
    {
      "anonymous": false,
      "inputs": [
        {
          "indexed": false,
          "internalType": "address",
          "name": "_newIntegration",
          "type": "address"
        },
        {
          "indexed": true,
          "internalType": "string",
          "name": "_integrationName",
          "type": "string"
        }
      ],
      "name": "ControllerIntegrationEdited",
      "type": "event"
    },
    {
      "anonymous": false,
      "inputs": [
        {
          "indexed": false,
          "internalType": "address",
          "name": "_integration",
          "type": "address"
        },
        {
          "indexed": true,
          "internalType": "string",
          "name": "_integrationName",
          "type": "string"
        }
      ],
      "name": "ControllerIntegrationRemoved",
      "type": "event"
    },
    {
      "anonymous": false,
      "inputs": [
        {
          "indexed": true,
          "internalType": "uint8",
          "name": "_kind",
          "type": "uint8"
        },
        {
          "indexed": false,
          "internalType": "address",
          "name": "_address",
          "type": "address"
        }
      ],
      "name": "ControllerOperationSet",
      "type": "event"
    },
    {
      "anonymous": false,
      "inputs": [
        {
          "indexed": true,
          "internalType": "address",
          "name": "_garden",
          "type": "address"
        },
        {
          "indexed": true,
          "internalType": "address",
          "name": "_factory",
          "type": "address"
        }
      ],
      "name": "GardenAdded",
      "type": "event"
    },
    {
      "anonymous": false,
      "inputs": [
        {
          "indexed": true,
          "internalType": "address",
          "name": "_gardenFactory",
          "type": "address"
        },
        {
          "indexed": false,
          "internalType": "address",
          "name": "_oldGardenFactory",
          "type": "address"
        }
      ],
      "name": "GardenFactoryChanged",
      "type": "event"
    },
    {
      "anonymous": false,
      "inputs": [
        {
          "indexed": true,
          "internalType": "address",
          "name": "_newGardenNFT",
          "type": "address"
        },
        {
          "indexed": false,
          "internalType": "address",
          "name": "_oldStrategyNFT",
          "type": "address"
        }
      ],
      "name": "GardenNFTChanged",
      "type": "event"
    },
    {
      "anonymous": false,
      "inputs": [
        {
          "indexed": true,
          "internalType": "address",
          "name": "_garden",
          "type": "address"
        }
      ],
      "name": "GardenRemoved",
      "type": "event"
    },
    {
      "anonymous": false,
      "inputs": [
        {
          "indexed": true,
          "internalType": "address",
          "name": "_gardenValuer",
          "type": "address"
        },
        {
          "indexed": false,
          "internalType": "address",
          "name": "_oldGardenValuer",
          "type": "address"
        }
      ],
      "name": "GardenValuerChanged",
      "type": "event"
    },
    {
      "anonymous": false,
      "inputs": [
        {
          "indexed": false,
          "internalType": "address",
          "name": "_newIshtarGate",
          "type": "address"
        },
        {
          "indexed": false,
          "internalType": "address",
          "name": "_oldIshtarGate",
          "type": "address"
        }
      ],
      "name": "IshtarGateChanged",
      "type": "event"
    },
    {
      "anonymous": false,
      "inputs": [
        {
          "indexed": true,
          "internalType": "address",
          "name": "_resesrveAsset",
          "type": "address"
        },
        {
          "indexed": false,
          "internalType": "uint256",
          "name": "_newMinLiquidityReserve",
          "type": "uint256"
        }
      ],
      "name": "LiquidityMinimumEdited",
      "type": "event"
    },
    {
      "anonymous": false,
      "inputs": [
        {
          "indexed": false,
          "internalType": "address",
          "name": "_newMardukGate",
          "type": "address"
        },
        {
          "indexed": false,
          "internalType": "address",
          "name": "_oldMardukGate",
          "type": "address"
        }
      ],
      "name": "MardukGateChanged",
      "type": "event"
    },
    {
      "anonymous": false,
      "inputs": [
        {
          "indexed": true,
          "internalType": "address",
          "name": "_newTradeIntegration",
          "type": "address"
        },
        {
          "indexed": false,
          "internalType": "address",
          "name": "_oldTradeIntegration",
          "type": "address"
        }
      ],
      "name": "MasterSwapperChanged",
      "type": "event"
    },
    {
      "anonymous": false,
      "inputs": [
        {
          "indexed": false,
          "internalType": "address",
          "name": "_oldPauseGuardian",
          "type": "address"
        },
        {
          "indexed": false,
          "internalType": "address",
          "name": "_newPauseGuardian",
          "type": "address"
        }
      ],
      "name": "NewPauseGuardian",
      "type": "event"
    },
    {
      "anonymous": false,
      "inputs": [
        {
          "indexed": true,
          "internalType": "address",
          "name": "previousOwner",
          "type": "address"
        },
        {
          "indexed": true,
          "internalType": "address",
          "name": "newOwner",
          "type": "address"
        }
      ],
      "name": "OwnershipTransferred",
      "type": "event"
    },
    {
      "anonymous": false,
      "inputs": [
        {
          "indexed": true,
          "internalType": "address",
          "name": "_priceOracle",
          "type": "address"
        },
        {
          "indexed": false,
          "internalType": "address",
          "name": "_oldPriceOracle",
          "type": "address"
        }
      ],
      "name": "PriceOracleChanged",
      "type": "event"
    },
    {
      "anonymous": false,
      "inputs": [
        {
          "indexed": true,
          "internalType": "address",
          "name": "_reserveAsset",
          "type": "address"
        }
      ],
      "name": "ReserveAssetAdded",
      "type": "event"
    },
    {
      "anonymous": false,
      "inputs": [
        {
          "indexed": true,
          "internalType": "address",
          "name": "_reserveAsset",
          "type": "address"
        }
      ],
      "name": "ReserveAssetRemoved",
      "type": "event"
    },
    {
      "anonymous": false,
      "inputs": [
        {
          "indexed": true,
          "internalType": "address",
          "name": "_rewardsDistributor",
          "type": "address"
        },
        {
          "indexed": false,
          "internalType": "address",
          "name": "_oldRewardsDistributor",
          "type": "address"
        }
      ],
      "name": "RewardsDistributorChanged",
      "type": "event"
    },
    {
      "anonymous": false,
      "inputs": [
        {
          "indexed": true,
          "internalType": "address",
          "name": "_strategyFactory",
          "type": "address"
        },
        {
          "indexed": false,
          "internalType": "address",
          "name": "_oldStrategyFactory",
          "type": "address"
        }
      ],
      "name": "StrategyFactoryEdited",
      "type": "event"
    },
    {
      "anonymous": false,
      "inputs": [
        {
          "indexed": true,
          "internalType": "address",
          "name": "_newStrategyNFT",
          "type": "address"
        },
        {
          "indexed": false,
          "internalType": "address",
          "name": "_oldStrategyNFT",
          "type": "address"
        }
      ],
      "name": "StrategyNFTChanged",
      "type": "event"
    },
    {
      "anonymous": false,
      "inputs": [
        {
          "indexed": false,
          "internalType": "address",
          "name": "_newTreasury",
          "type": "address"
        },
        {
          "indexed": false,
          "internalType": "address",
          "name": "_oldTreasury",
          "type": "address"
        }
      ],
      "name": "TreasuryChanged",
      "type": "event"
    },
    {
      "anonymous": false,
      "inputs": [
        {
          "indexed": true,
          "internalType": "address",
          "name": "_newUniswapFactory",
          "type": "address"
        },
        {
          "indexed": false,
          "internalType": "address",
          "name": "_oldUniswapFactory",
          "type": "address"
        }
      ],
      "name": "UniswapFactoryChanged",
      "type": "event"
    },
    {
      "inputs": [],
      "name": "BABL",
      "outputs": [
        {
          "internalType": "contract IERC20",
          "name": "",
          "type": "address"
        }
      ],
      "stateMutability": "view",
      "type": "function"
    },
    {
      "inputs": [],
      "name": "EMERGENCY_OWNER",
      "outputs": [
        {
          "internalType": "address",
          "name": "",
          "type": "address"
        }
      ],
      "stateMutability": "view",
      "type": "function"
    },
    {
      "inputs": [],
      "name": "MAX_OPERATIONS",
      "outputs": [
        {
          "internalType": "uint8",
          "name": "",
          "type": "uint8"
        }
      ],
      "stateMutability": "view",
      "type": "function"
    },
    {
      "inputs": [],
      "name": "WETH",
      "outputs": [
        {
          "internalType": "address",
          "name": "",
          "type": "address"
        }
      ],
      "stateMutability": "view",
      "type": "function"
    },
    {
      "inputs": [
        {
          "internalType": "address",
          "name": "_keeper",
          "type": "address"
        }
      ],
      "name": "addKeeper",
      "outputs": [],
      "stateMutability": "nonpayable",
      "type": "function"
    },
    {
      "inputs": [
        {
          "internalType": "address[]",
          "name": "_keepers",
          "type": "address[]"
        }
      ],
      "name": "addKeepers",
      "outputs": [],
      "stateMutability": "nonpayable",
      "type": "function"
    },
    {
      "inputs": [
        {
          "internalType": "address",
          "name": "_reserveAsset",
          "type": "address"
        }
      ],
      "name": "addReserveAsset",
      "outputs": [],
      "stateMutability": "nonpayable",
      "type": "function"
    },
    {
      "inputs": [],
      "name": "allowPublicGardens",
      "outputs": [
        {
          "internalType": "bool",
          "name": "",
          "type": "bool"
        }
      ],
      "stateMutability": "view",
      "type": "function"
    },
    {
      "inputs": [
        {
          "internalType": "address",
          "name": "",
          "type": "address"
        }
      ],
      "name": "assetWhitelist",
      "outputs": [
        {
          "internalType": "bool",
          "name": "",
          "type": "bool"
        }
      ],
      "stateMutability": "view",
      "type": "function"
    },
    {
      "inputs": [],
      "name": "bablMiningProgramEnabled",
      "outputs": [
        {
          "internalType": "bool",
          "name": "",
          "type": "bool"
        }
      ],
      "stateMutability": "view",
      "type": "function"
    },
    {
      "inputs": [],
      "name": "completeArrival",
      "outputs": [],
      "stateMutability": "nonpayable",
      "type": "function"
    },
    {
      "inputs": [
        {
          "internalType": "address",
          "name": "_reserveAsset",
          "type": "address"
        },
        {
          "internalType": "string",
          "name": "_name",
          "type": "string"
        },
        {
          "internalType": "string",
          "name": "_symbol",
          "type": "string"
        },
        {
          "internalType": "string",
          "name": "_tokenURI",
          "type": "string"
        },
        {
          "internalType": "uint256",
          "name": "_seed",
          "type": "uint256"
        },
        {
          "internalType": "uint256[]",
          "name": "_gardenParams",
          "type": "uint256[]"
        },
        {
          "internalType": "uint256",
          "name": "_initialContribution",
          "type": "uint256"
        },
        {
          "internalType": "bool[]",
          "name": "_publicGardenStrategistsStewards",
          "type": "bool[]"
        },
        {
          "internalType": "uint256[]",
          "name": "_profitSharing",
          "type": "uint256[]"
        }
      ],
      "name": "createGarden",
      "outputs": [
        {
          "internalType": "address",
          "name": "",
          "type": "address"
        }
      ],
      "stateMutability": "payable",
      "type": "function"
    },
    {
      "inputs": [
        {
          "internalType": "address",
          "name": "_newGardenFactory",
          "type": "address"
        }
      ],
      "name": "editGardenFactory",
      "outputs": [],
      "stateMutability": "nonpayable",
      "type": "function"
    },
    {
      "inputs": [
        {
          "internalType": "address",
          "name": "_newGardenNFT",
          "type": "address"
        }
      ],
      "name": "editGardenNFT",
      "outputs": [],
      "stateMutability": "nonpayable",
      "type": "function"
    },
    {
      "inputs": [
        {
          "internalType": "address",
          "name": "_gardenValuer",
          "type": "address"
        }
      ],
      "name": "editGardenValuer",
      "outputs": [],
      "stateMutability": "nonpayable",
      "type": "function"
    },
    {
      "inputs": [
        {
          "internalType": "address",
          "name": "_reserve",
          "type": "address"
        },
        {
          "internalType": "uint256",
          "name": "_newMinLiquidityReserve",
          "type": "uint256"
        }
      ],
      "name": "editLiquidityReserve",
      "outputs": [],
      "stateMutability": "nonpayable",
      "type": "function"
    },
    {
      "inputs": [
        {
          "internalType": "address",
          "name": "_mardukGate",
          "type": "address"
        }
      ],
      "name": "editMardukGate",
      "outputs": [],
      "stateMutability": "nonpayable",
      "type": "function"
    },
    {
      "inputs": [
        {
          "internalType": "address",
          "name": "_priceOracle",
          "type": "address"
        }
      ],
      "name": "editPriceOracle",
      "outputs": [],
      "stateMutability": "nonpayable",
      "type": "function"
    },
    {
      "inputs": [
        {
          "internalType": "address",
          "name": "_newRewardsDistributor",
          "type": "address"
        }
      ],
      "name": "editRewardsDistributor",
      "outputs": [],
      "stateMutability": "nonpayable",
      "type": "function"
    },
    {
      "inputs": [
        {
          "internalType": "address",
          "name": "_newStrategyFactory",
          "type": "address"
        }
      ],
      "name": "editStrategyFactory",
      "outputs": [],
      "stateMutability": "nonpayable",
      "type": "function"
    },
    {
      "inputs": [
        {
          "internalType": "address",
          "name": "_newStrategyNFT",
          "type": "address"
        }
      ],
      "name": "editStrategyNFT",
      "outputs": [],
      "stateMutability": "nonpayable",
      "type": "function"
    },
    {
      "inputs": [
        {
          "internalType": "address",
          "name": "_newTreasury",
          "type": "address"
        }
      ],
      "name": "editTreasury",
      "outputs": [],
      "stateMutability": "nonpayable",
      "type": "function"
    },
    {
      "inputs": [],
      "name": "enableGardenTokensTransfers",
      "outputs": [],
      "stateMutability": "nonpayable",
      "type": "function"
    },
    {
      "inputs": [
        {
          "internalType": "uint256",
          "name": "",
          "type": "uint256"
        }
      ],
      "name": "enabledOperations",
      "outputs": [
        {
          "internalType": "address",
          "name": "",
          "type": "address"
        }
      ],
      "stateMutability": "view",
      "type": "function"
    },
    {
      "inputs": [],
      "name": "gardenCreationIsOpen",
      "outputs": [
        {
          "internalType": "bool",
          "name": "",
          "type": "bool"
        }
      ],
      "stateMutability": "view",
      "type": "function"
    },
    {
      "inputs": [],
      "name": "gardenFactory",
      "outputs": [
        {
          "internalType": "address",
          "name": "",
          "type": "address"
        }
      ],
      "stateMutability": "view",
      "type": "function"
    },
    {
      "inputs": [],
      "name": "gardenNFT",
      "outputs": [
        {
          "internalType": "address",
          "name": "",
          "type": "address"
        }
      ],
      "stateMutability": "view",
      "type": "function"
    },
    {
      "inputs": [],
      "name": "gardenTokensTransfersEnabled",
      "outputs": [
        {
          "internalType": "bool",
          "name": "",
          "type": "bool"
        }
      ],
      "stateMutability": "view",
      "type": "function"
    },
    {
      "inputs": [],
      "name": "gardenValuer",
      "outputs": [
        {
          "internalType": "address",
          "name": "",
          "type": "address"
        }
      ],
      "stateMutability": "view",
      "type": "function"
    },
    {
      "inputs": [
        {
          "internalType": "uint256",
          "name": "",
          "type": "uint256"
        }
      ],
      "name": "gardens",
      "outputs": [
        {
          "internalType": "address",
          "name": "",
          "type": "address"
        }
      ],
      "stateMutability": "view",
      "type": "function"
    },
    {
      "inputs": [],
      "name": "getGardens",
      "outputs": [
        {
          "internalType": "address[]",
          "name": "",
          "type": "address[]"
        }
      ],
      "stateMutability": "view",
      "type": "function"
    },
    {
      "inputs": [
        {
          "internalType": "uint256",
          "name": "_size",
          "type": "uint256"
        }
      ],
      "name": "getLiveStrategies",
      "outputs": [
        {
          "internalType": "address[]",
          "name": "",
          "type": "address[]"
        }
      ],
      "stateMutability": "view",
      "type": "function"
    },
    {
      "inputs": [],
      "name": "getOperations",
      "outputs": [
        {
          "internalType": "address[20]",
          "name": "",
          "type": "address[20]"
        }
      ],
      "stateMutability": "view",
      "type": "function"
    },
    {
      "inputs": [],
      "name": "getReserveAssets",
      "outputs": [
        {
          "internalType": "address[]",
          "name": "",
          "type": "address[]"
        }
      ],
      "stateMutability": "view",
      "type": "function"
    },
    {
      "inputs": [],
      "name": "guardian",
      "outputs": [
        {
          "internalType": "address",
          "name": "",
          "type": "address"
        }
      ],
      "stateMutability": "view",
      "type": "function"
    },
    {
      "inputs": [],
      "name": "guardianGlobalPaused",
      "outputs": [
        {
          "internalType": "bool",
          "name": "",
          "type": "bool"
        }
      ],
      "stateMutability": "view",
      "type": "function"
    },
    {
      "inputs": [
        {
          "internalType": "address",
          "name": "",
          "type": "address"
        }
      ],
      "name": "guardianPaused",
      "outputs": [
        {
          "internalType": "bool",
          "name": "",
          "type": "bool"
        }
      ],
      "stateMutability": "view",
      "type": "function"
    },
    {
      "inputs": [],
      "name": "initialize",
      "outputs": [],
      "stateMutability": "nonpayable",
      "type": "function"
    },
    {
      "inputs": [
        {
          "internalType": "address[]",
          "name": "_strategies",
          "type": "address[]"
        }
      ],
      "name": "isBetaStrategy",
      "outputs": [
        {
          "internalType": "bool[]",
          "name": "",
          "type": "bool[]"
        },
        {
          "internalType": "uint256[]",
          "name": "",
          "type": "uint256[]"
        }
      ],
      "stateMutability": "view",
      "type": "function"
    },
    {
      "inputs": [
        {
          "internalType": "address",
          "name": "",
          "type": "address"
        }
      ],
      "name": "isGarden",
      "outputs": [
        {
          "internalType": "bool",
          "name": "",
          "type": "bool"
        }
      ],
      "stateMutability": "view",
      "type": "function"
    },
    {
      "inputs": [
        {
          "internalType": "address",
          "name": "_contract",
          "type": "address"
        }
      ],
      "name": "isPaused",
      "outputs": [
        {
          "internalType": "bool",
          "name": "",
          "type": "bool"
        }
      ],
      "stateMutability": "view",
      "type": "function"
    },
    {
      "inputs": [
        {
          "internalType": "address",
          "name": "_contractAddress",
          "type": "address"
        }
      ],
      "name": "isSystemContract",
      "outputs": [
        {
          "internalType": "bool",
          "name": "",
          "type": "bool"
        }
      ],
      "stateMutability": "view",
      "type": "function"
    },
    {
      "inputs": [
        {
          "internalType": "address",
          "name": "_keeper",
          "type": "address"
        }
      ],
      "name": "isValidKeeper",
      "outputs": [
        {
          "internalType": "bool",
          "name": "",
          "type": "bool"
        }
      ],
      "stateMutability": "view",
      "type": "function"
    },
    {
      "inputs": [
        {
          "internalType": "address",
          "name": "_reserveAsset",
          "type": "address"
        }
      ],
      "name": "isValidReserveAsset",
      "outputs": [
        {
          "internalType": "bool",
          "name": "",
          "type": "bool"
        }
      ],
      "stateMutability": "view",
      "type": "function"
    },
    {
      "inputs": [],
      "name": "ishtarGate",
      "outputs": [
        {
          "internalType": "address",
          "name": "",
          "type": "address"
        }
      ],
      "stateMutability": "view",
      "type": "function"
    },
    {
      "inputs": [
        {
          "internalType": "address",
          "name": "",
          "type": "address"
        }
      ],
      "name": "keeperList",
      "outputs": [
        {
          "internalType": "bool",
          "name": "",
          "type": "bool"
        }
      ],
      "stateMutability": "view",
      "type": "function"
    },
    {
      "inputs": [],
      "name": "mardukGate",
      "outputs": [
        {
          "internalType": "address",
          "name": "",
          "type": "address"
        }
      ],
      "stateMutability": "view",
      "type": "function"
    },
    {
      "inputs": [],
      "name": "masterSwapper",
      "outputs": [
        {
          "internalType": "address",
          "name": "",
          "type": "address"
        }
      ],
      "stateMutability": "view",
      "type": "function"
    },
    {
      "inputs": [
        {
          "internalType": "address",
          "name": "",
          "type": "address"
        }
      ],
      "name": "minLiquidityPerReserve",
      "outputs": [
        {
          "internalType": "uint256",
          "name": "",
          "type": "uint256"
        }
      ],
      "stateMutability": "view",
      "type": "function"
    },
    {
      "inputs": [],
      "name": "owner",
      "outputs": [
        {
          "internalType": "address",
          "name": "",
          "type": "address"
        }
      ],
      "stateMutability": "view",
      "type": "function"
    },
    {
      "inputs": [],
      "name": "priceOracle",
      "outputs": [
        {
          "internalType": "address",
          "name": "",
          "type": "address"
        }
      ],
      "stateMutability": "view",
      "type": "function"
    },
    {
      "inputs": [],
      "name": "protocolManagementFee",
      "outputs": [
        {
          "internalType": "uint256",
          "name": "",
          "type": "uint256"
        }
      ],
      "stateMutability": "view",
      "type": "function"
    },
    {
      "inputs": [],
      "name": "protocolPerformanceFee",
      "outputs": [
        {
          "internalType": "uint256",
          "name": "",
          "type": "uint256"
        }
      ],
      "stateMutability": "view",
      "type": "function"
    },
    {
      "inputs": [
        {
          "internalType": "address",
          "name": "_garden",
          "type": "address"
        }
      ],
      "name": "removeGarden",
      "outputs": [],
      "stateMutability": "nonpayable",
      "type": "function"
    },
    {
      "inputs": [
        {
          "internalType": "address",
          "name": "_keeper",
          "type": "address"
        }
      ],
      "name": "removeKeeper",
      "outputs": [],
      "stateMutability": "nonpayable",
      "type": "function"
    },
    {
      "inputs": [
        {
          "internalType": "address",
          "name": "_reserveAsset",
          "type": "address"
        }
      ],
      "name": "removeReserveAsset",
      "outputs": [],
      "stateMutability": "nonpayable",
      "type": "function"
    },
    {
      "inputs": [],
      "name": "renounceOwnership",
      "outputs": [],
      "stateMutability": "nonpayable",
      "type": "function"
    },
    {
      "inputs": [
        {
          "internalType": "uint256",
          "name": "",
          "type": "uint256"
        }
      ],
      "name": "reserveAssets",
      "outputs": [
        {
          "internalType": "address",
          "name": "",
          "type": "address"
        }
      ],
      "stateMutability": "view",
      "type": "function"
    },
    {
      "inputs": [],
      "name": "rewardsDistributor",
      "outputs": [
        {
          "internalType": "address",
          "name": "",
          "type": "address"
        }
      ],
      "stateMutability": "view",
      "type": "function"
    },
    {
      "inputs": [
        {
          "internalType": "bool",
          "name": "_state",
          "type": "bool"
        }
      ],
      "name": "setGlobalPause",
      "outputs": [
        {
          "internalType": "bool",
          "name": "",
          "type": "bool"
        }
      ],
      "stateMutability": "nonpayable",
      "type": "function"
    },
    {
      "inputs": [
        {
          "internalType": "address",
          "name": "_newDefaultMasterSwapper",
          "type": "address"
        }
      ],
      "name": "setMasterSwapper",
      "outputs": [],
      "stateMutability": "nonpayable",
      "type": "function"
    },
    {
      "inputs": [
        {
          "internalType": "uint8",
          "name": "_kind",
          "type": "uint8"
        },
        {
          "internalType": "address",
          "name": "_operation",
          "type": "address"
        }
      ],
      "name": "setOperation",
      "outputs": [],
      "stateMutability": "nonpayable",
      "type": "function"
    },
    {
      "inputs": [
        {
          "internalType": "address",
          "name": "_guardian",
          "type": "address"
        }
      ],
      "name": "setPauseGuardian",
      "outputs": [],
      "stateMutability": "nonpayable",
      "type": "function"
    },
    {
      "inputs": [
        {
          "internalType": "address[]",
          "name": "_address",
          "type": "address[]"
        },
        {
          "internalType": "bool",
          "name": "_state",
          "type": "bool"
        }
      ],
      "name": "setSomePause",
      "outputs": [
        {
          "internalType": "bool",
          "name": "",
          "type": "bool"
        }
      ],
      "stateMutability": "nonpayable",
      "type": "function"
    },
    {
      "inputs": [],
      "name": "strategyFactory",
      "outputs": [
        {
          "internalType": "address",
          "name": "",
          "type": "address"
        }
      ],
      "stateMutability": "view",
      "type": "function"
    },
    {
      "inputs": [],
      "name": "strategyNFT",
      "outputs": [
        {
          "internalType": "address",
          "name": "",
          "type": "address"
        }
      ],
      "stateMutability": "view",
      "type": "function"
    },
    {
      "inputs": [
        {
          "internalType": "address",
          "name": "newOwner",
          "type": "address"
        }
      ],
      "name": "transferOwnership",
      "outputs": [],
      "stateMutability": "nonpayable",
      "type": "function"
    },
    {
      "inputs": [],
      "name": "treasury",
      "outputs": [
        {
          "internalType": "address",
          "name": "",
          "type": "address"
        }
      ],
      "stateMutability": "view",
      "type": "function"
    },
    {
      "inputs": [
        {
          "internalType": "address",
          "name": "",
          "type": "address"
        }
      ],
      "name": "validReserveAsset",
      "outputs": [
        {
          "internalType": "bool",
          "name": "",
          "type": "bool"
        }
      ],
      "stateMutability": "view",
      "type": "function"
    },
    {
      "stateMutability": "payable",
      "type": "receive"
    }
  ],
  "transactionHash": "0x8eefdfb66af13ea7c75fb5fe193eb8b251c886821fbbd7bd70559ed111ea71f3",
  "args": [],
  "solcInputHash": "a3f8ad2d1974afa3e3c49c90878ef68c",
  "bytecode": "0x608060405234801561001057600080fd5b50615adc80620000216000396000f3fe60806040526004361061044e5760003560e01c80636968551311610243578063b82efd4f11610143578063dfaef58f116100bb578063f04ec5471161008a578063f2fde38b1161006f578063f2fde38b14611394578063f948e50a146113c7578063f979cdd91461141557610455565b8063f04ec5471461132e578063f05017eb1461136157610455565b8063dfaef58f1461129e578063e6e60513146112d1578063e973f4e9146112e6578063ead4c1cf1461131957610455565b8063c80aad6311610112578063d276cbdc116100f7578063d276cbdc14611238578063d6a45aa514611274578063daec2a1a1461128957610455565b8063c80aad631461120e578063c8ed947f1461122357610455565b8063b82efd4f14611160578063bc09228314611193578063bc819ea6146111c6578063c2d38e79146111db57610455565b806388e8dc75116101d65780639e18eb39116101a5578063ad5c46481161018a578063ad5c4648146110e5578063ad9d791d146110fa578063b0ecdf801461112d57610455565b80639e18eb39146110a65780639ef35710146110d057610455565b806388e8dc751461101057806389790429146110435780638d97e0431461107c5780638da5cb5b1461109157610455565b80637f80e05b116102125780637f80e05b14610f805780638129fc1c14610f9557806385d5d03614610faa578063867b6efa14610fdd57610455565b80636968551314610ef757806369a6b3db14610f2a578063715018a614610f565780637be8ec5014610f6b57610455565b806337973e5f1161034e57806348bde20c116102e15780635b14f183116102b05780635e192de6116102955780635e192de614610e9a57806361d027b314610ecd57806362a4bf0514610ee257610455565b80635b14f18314610e3c5780635dc2803a14610e6f57610455565b806348bde20c14610a965780635616147214610ac95780635618b5b214610df4578063568c081314610e2757610455565b8063411137c31161031d578063411137c3146108d25780634365a8a814610905578063447a136614610a4e578063452a932014610a8157610455565b806337973e5f1461084b578063393bfe49146108755780633f2a55401461088a5780634032b72b1461089f57610455565b80632630c12f116103e157806331375477116103b0578063364d118111610395578063364d11811461078957806336c148b7146107bc578063374c64e2146107d157610455565b806331375477146106b2578063314a83c9146106d957610455565b80632630c12f1461065e57806327e4acc714610673578063294d237c1461068857806330944c621461069d57610455565b806316d9c0701161041d57806316d9c070146105b957806318b9e252146105ec578063201041981461061f5780632444487a1461064957610455565b80630306f6d21461045a5780630ebdb9a21461052057806313bc6d4b1461055157806314ae9f2e1461058457610455565b3661045557005b600080fd5b34801561046657600080fd5b5061050c6004803603604081101561047d57600080fd5b81019060208101813564010000000081111561049857600080fd5b8201836020820111156104aa57600080fd5b803590602001918460208302840111640100000000831117156104cc57600080fd5b9190808060200260200160405190810160405280939291908181526020018383602002808284376000920191909152509295505050503515159050611448565b604080519115158252519081900360200190f35b34801561052c57600080fd5b5061053561163b565b604080516001600160a01b039092168252519081900360200190f35b34801561055d57600080fd5b5061050c6004803603602081101561057457600080fd5b50356001600160a01b031661164f565b34801561059057600080fd5b506105b7600480360360208110156105a757600080fd5b50356001600160a01b0316611a70565b005b3480156105c557600080fd5b506105b7600480360360208110156105dc57600080fd5b50356001600160a01b0316611b60565b3480156105f857600080fd5b506105b76004803603602081101561060f57600080fd5b50356001600160a01b0316611cfa565b34801561062b57600080fd5b506105356004803603602081101561064257600080fd5b5035611feb565b34801561065557600080fd5b506105b761200b565b34801561066a57600080fd5b506105356120e2565b34801561067f57600080fd5b5061050c6120f1565b34801561069457600080fd5b506105356120fa565b3480156106a957600080fd5b5061050c612109565b3480156106be57600080fd5b506106c7612117565b60408051918252519081900360200190f35b3480156106e557600080fd5b506105b7600480360360208110156106fc57600080fd5b81019060208101813564010000000081111561071757600080fd5b82018360208201111561072957600080fd5b8035906020019184602083028401116401000000008311171561074b57600080fd5b91908080602002602001604051908101604052809392919081815260200183836020028082843760009201919091525092955061211d945050505050565b34801561079557600080fd5b5061050c600480360360208110156107ac57600080fd5b50356001600160a01b03166121db565b3480156107c857600080fd5b506105b76121f0565b3480156107dd57600080fd5b506107fb600480360360208110156107f457600080fd5b50356122b9565b60408051602080825283518183015283519192839290830191858101910280838360005b8381101561083757818101518382015260200161081f565b505050509050019250505060405180910390f35b34801561085757600080fd5b506105356004803603602081101561086e57600080fd5b5035612557565b34801561088157600080fd5b5061050c612581565b34801561089657600080fd5b5061053561258a565b3480156108ab57600080fd5b506105b7600480360360208110156108c257600080fd5b50356001600160a01b0316612599565b3480156108de57600080fd5b5061050c600480360360208110156108f557600080fd5b50356001600160a01b03166126a1565b34801561091157600080fd5b506109b56004803603602081101561092857600080fd5b81019060208101813564010000000081111561094357600080fd5b82018360208201111561095557600080fd5b8035906020019184602083028401116401000000008311171561097757600080fd5b9190808060200260200160405190810160405280939291908181526020018383602002808284376000920191909152509295506126bf945050505050565b604051808060200180602001838103835285818151815260200191508051906020019060200280838360005b838110156109f95781810151838201526020016109e1565b50505050905001838103825284818151815260200191508051906020019060200280838360005b83811015610a38578181015183820152602001610a20565b5050505090500194505050505060405180910390f35b348015610a5a57600080fd5b5061050c60048036036020811015610a7157600080fd5b50356001600160a01b0316612c2f565b348015610a8d57600080fd5b50610535612c44565b348015610aa257600080fd5b506105b760048036036020811015610ab957600080fd5b50356001600160a01b0316612c58565b6105356004803603610120811015610ae057600080fd5b6001600160a01b038235169190810190604081016020820135640100000000811115610b0b57600080fd5b820183602082011115610b1d57600080fd5b80359060200191846001830284011164010000000083111715610b3f57600080fd5b91908080601f0160208091040260200160405190810160405280939291908181526020018383808284376000920191909152509295949360208101935035915050640100000000811115610b9257600080fd5b820183602082011115610ba457600080fd5b80359060200191846001830284011164010000000083111715610bc657600080fd5b91908080601f0160208091040260200160405190810160405280939291908181526020018383808284376000920191909152509295949360208101935035915050640100000000811115610c1957600080fd5b820183602082011115610c2b57600080fd5b80359060200191846001830284011164010000000083111715610c4d57600080fd5b91908080601f01602080910402602001604051908101604052809392919081815260200183838082843760009201919091525092958435959094909350604081019250602001359050640100000000811115610ca857600080fd5b820183602082011115610cba57600080fd5b80359060200191846020830284011164010000000083111715610cdc57600080fd5b91939092823592604081019060200135640100000000811115610cfe57600080fd5b820183602082011115610d1057600080fd5b80359060200191846020830284011164010000000083111715610d3257600080fd5b9190808060200260200160405190810160405280939291908181526020018383602002808284376000920191909152509295949360208101935035915050640100000000811115610d8257600080fd5b820183602082011115610d9457600080fd5b80359060200191846020830284011164010000000083111715610db657600080fd5b919080806020026020016040519081016040528093929190818152602001838360200280828437600092019190915250929550612dc3945050505050565b348015610e0057600080fd5b506105b760048036036020811015610e1757600080fd5b50356001600160a01b0316613533565b348015610e3357600080fd5b506106c76136c9565b348015610e4857600080fd5b5061050c60048036036020811015610e5f57600080fd5b50356001600160a01b03166136cf565b348015610e7b57600080fd5b50610e846136fd565b6040805160ff9092168252519081900360200190f35b348015610ea657600080fd5b5061050c60048036036020811015610ebd57600080fd5b50356001600160a01b0316613702565b348015610ed957600080fd5b50610535613717565b348015610eee57600080fd5b5061050c613726565b348015610f0357600080fd5b506105b760048036036020811015610f1a57600080fd5b50356001600160a01b031661372f565b348015610f3657600080fd5b5061050c60048036036020811015610f4d57600080fd5b50351515613862565b348015610f6257600080fd5b506105b76139cc565b348015610f7757600080fd5b50610535613a78565b348015610f8c57600080fd5b5061050c613a90565b348015610fa157600080fd5b506105b7613a9f565b348015610fb657600080fd5b506105b760048036036020811015610fcd57600080fd5b50356001600160a01b0316613af4565b348015610fe957600080fd5b506105b76004803603602081101561100057600080fd5b50356001600160a01b0316613c06565b34801561101c57600080fd5b506105b76004803603602081101561103357600080fd5b50356001600160a01b0316613d1b565b34801561104f57600080fd5b506105b76004803603604081101561106657600080fd5b506001600160a01b038135169060200135613eb3565b34801561108857600080fd5b5061053561402b565b34801561109d57600080fd5b50610535614043565b3480156110b257600080fd5b50610535600480360360208110156110c957600080fd5b5035614052565b3480156110dc57600080fd5b50610535614062565b3480156110f157600080fd5b50610535614071565b34801561110657600080fd5b5061050c6004803603602081101561111d57600080fd5b50356001600160a01b0316614089565b34801561113957600080fd5b5061050c6004803603602081101561115057600080fd5b50356001600160a01b031661409e565b34801561116c57600080fd5b506105b76004803603602081101561118357600080fd5b50356001600160a01b03166140b3565b34801561119f57600080fd5b506105b7600480360360208110156111b657600080fd5b50356001600160a01b03166141e5565b3480156111d257600080fd5b506107fb614383565b3480156111e757600080fd5b506105b7600480360360208110156111fe57600080fd5b50356001600160a01b03166143e5565b34801561121a57600080fd5b50610535614583565b34801561122f57600080fd5b50610535614592565b34801561124457600080fd5b506105b76004803603604081101561125b57600080fd5b50803560ff1690602001356001600160a01b03166145a1565b34801561128057600080fd5b506105356147bb565b34801561129557600080fd5b506107fb6147ca565b3480156112aa57600080fd5b506105b7600480360360208110156112c157600080fd5b50356001600160a01b031661482a565b3480156112dd57600080fd5b5061053561495d565b3480156112f257600080fd5b506105b76004803603602081101561130957600080fd5b50356001600160a01b031661496c565b34801561132557600080fd5b50610535614a9f565b34801561133a57600080fd5b506105b76004803603602081101561135157600080fd5b50356001600160a01b0316614aae565b34801561136d57600080fd5b506106c76004803603602081101561138457600080fd5b50356001600160a01b0316614cdb565b3480156113a057600080fd5b506105b7600480360360208110156113b757600080fd5b50356001600160a01b0316614ced565b3480156113d357600080fd5b506113dc614df0565b604051808261028080838360005b838110156114025781810151838201526020016113ea565b5050505090500191505060405180910390f35b34801561142157600080fd5b5061050c6004803603602081101561143857600080fd5b50356001600160a01b0316614e30565b60995460009061010090046001600160a01b0316331480611481575061146c614043565b6001600160a01b0316336001600160a01b0316145b6114bc5760405162461bcd60e51b81526004018080602001828103825260348152602001806159676034913960400191505060405180910390fd5b6114c4614043565b6001600160a01b0316336001600160a01b031614806114e557506001821515145b611536576040805162461bcd60e51b815260206004820152601660248201527f6f6e6c792061646d696e2063616e20756e706175736500000000000000000000604482015290519081900360640190fd5b60005b83518110156116305782609a600086848151811061155357fe5b60200260200101516001600160a01b03166001600160a01b0316815260200190815260200160002060006101000a81548160ff0219169083151502179055507f14fc4a89e124f9817afd6bc9b8270d50250d5ff6f0711b687f6fa4c34decf1cd8482815181106115bf57fe5b6020026020010151846040518080602001846001600160a01b031681526020018315158152602001828103825260198152602001807f477561726469616e20696e646976696475616c20706175736500000000000000815250602001935050505060405180910390a1600101611539565b508190505b92915050565b609b5461010090046001600160a01b031681565b60006001600160a01b03821661166757506000611a6b565b6001600160a01b03821660009081526086602052604090205460ff168061169b57506068546001600160a01b038381169116145b806116b357506069546001600160a01b038381169116145b806116cb5750606a546001600160a01b038381169116145b806116e357506071546001600160a01b038381169116145b806116fb5750606d546001600160a01b038381169116145b806117135750606b546001600160a01b038381169116145b806117365750816001600160a01b031661172b614043565b6001600160a01b0316145b8061174957506001600160a01b03821630145b80611758575061175882614e4e565b806118e0575060866000836001600160a01b03166356ba88b86040518163ffffffff1660e01b815260040160206040518083038186803b15801561179b57600080fd5b505afa1580156117af573d6000803e3d6000fd5b505050506040513d60208110156117c557600080fd5b50516001600160a01b0316815260208101919091526040016000205460ff1680156118e05750816001600160a01b03166356ba88b86040518163ffffffff1660e01b815260040160206040518083038186803b15801561182457600080fd5b505afa158015611838573d6000803e3d6000fd5b505050506040513d602081101561184e57600080fd5b5051604080517f3a8219250000000000000000000000000000000000000000000000000000000081526001600160a01b03858116600483015291519190921691633a821925916024808301926020929190829003018186803b1580156118b357600080fd5b505afa1580156118c7573d6000803e3d6000fd5b505050506040513d60208110156118dd57600080fd5b50515b80611a68575060866000836001600160a01b03166356ba88b86040518163ffffffff1660e01b815260040160206040518083038186803b15801561192357600080fd5b505afa158015611937573d6000803e3d6000fd5b505050506040513d602081101561194d57600080fd5b50516001600160a01b0316815260208101919091526040016000205460ff168015611a685750816001600160a01b03166356ba88b86040518163ffffffff1660e01b815260040160206040518083038186803b1580156119ac57600080fd5b505afa1580156119c0573d6000803e3d6000fd5b505050506040513d60208110156119d657600080fd5b5051604080517f06061dfa0000000000000000000000000000000000000000000000000000000081526001600160a01b038581166004830152915191909216916306061dfa916024808301926020929190829003018186803b158015611a3b57600080fd5b505afa158015611a4f573d6000803e3d6000fd5b505050506040513d6020811015611a6557600080fd5b50515b90505b919050565b611a78614e9e565b6001600160a01b0316611a89614043565b6001600160a01b031614611ad2576040805162461bcd60e51b815260206004820181905260248201526000805160206159c9833981519152604482015290519081900360640190fd5b6001600160a01b03811660009081526089602052604090205460ff16611b3f576040805162461bcd60e51b815260206004820152601560248201527f4b65657065722069732077686974656c69737465640000000000000000000000604482015290519081900360640190fd5b6001600160a01b03166000908152608960205260409020805460ff19169055565b611b68614e9e565b6001600160a01b0316611b79614043565b6001600160a01b031614611bc2576040805162461bcd60e51b815260206004820181905260248201526000805160206159c9833981519152604482015290519081900360640190fd5b609b546001600160a01b03828116610100909204161415611c2a576040805162461bcd60e51b815260206004820152601a60248201527f4d617264756b204761746520616c726561647920657869737473000000000000604482015290519081900360640190fd5b6001600160a01b038116611c85576040805162461bcd60e51b815260206004820152601d60248201527f4d617264756b2047617465206f7261636c65206d757374206578697374000000604482015290519081900360640190fd5b609b80546001600160a01b0383811661010081810274ffffffffffffffffffffffffffffffffffffffff001985161790945560408051918252939092041660208201819052825190927f345fc59169aa2ad8a518c40e50702bc683495ac687515df9441cabc39eef54ff928290030190a15050565b611d02614e9e565b6001600160a01b0316611d13614043565b6001600160a01b031614611d5c576040805162461bcd60e51b815260206004820181905260248201526000805160206159c9833981519152604482015290519081900360640190fd5b6001600160a01b03811660009081526086602052604090205460ff16611dc9576040805162461bcd60e51b815260206004820152601560248201527f47617264656e20646f6573206e6f742065786973740000000000000000000000604482015290519081900360640190fd5b806001600160a01b031663b49a60bb6040518163ffffffff1660e01b815260040160006040518083038186803b158015611e0257600080fd5b505afa158015611e16573d6000803e3d6000fd5b505050506040513d6000823e601f3d908101601f191682016040526020811015611e3f57600080fd5b8101908080516040519392919084640100000000821115611e5f57600080fd5b908301906020820185811115611e7457600080fd5b8251866020820283011164010000000082111715611e9157600080fd5b82525081516020918201928201910280838360005b83811015611ebe578181015183820152602001611ea6565b5050505090500160405250505051600014611f20576040805162461bcd60e51b815260206004820152601d60248201527f47617264656e2068617320616374697665207374726174656769657321000000604482015290519081900360640190fd5b611f8d816065805480602002602001604051908101604052809291908181526020018280548015611f7a57602002820191906000526020600020905b81546001600160a01b03168152600190910190602001808311611f5c575b5050505050614ea290919063ffffffff16565b8051611fa191606591602090910190615851565b506001600160a01b038116600081815260866020526040808220805460ff19169055517fb52dedfe431c6250e847edee5dca0a14cfaad5c6626218f99bd60c8ad9939a9f9190a250565b60728160148110611ffb57600080fd5b01546001600160a01b0316905081565b612013614e9e565b6001600160a01b0316612024614043565b6001600160a01b03161461206d576040805162461bcd60e51b815260206004820181905260248201526000805160206159c9833981519152604482015290519081900360640190fd5b6120aa73f4dc48d260c93ad6a96c5ce563e70ca578987c747326231a65ef80706307bbe71f032dc1e5bf28ce436903430d71821c35300000614f1f565b608b546120e09073f4dc48d260c93ad6a96c5ce563e70ca578987c74906001600160a01b0316690b8fa7b401feaa900000614f1f565b565b6069546001600160a01b031681565b60995460ff1681565b6068546001600160a01b031681565b609354610100900460ff1681565b60955481565b612125614e9e565b6001600160a01b0316612136614043565b6001600160a01b03161461217f576040805162461bcd60e51b815260206004820181905260248201526000805160206159c9833981519152604482015290519081900360640190fd5b60005b81518110156121d75760016089600084848151811061219d57fe5b6020908102919091018101516001600160a01b03168252810191909152604001600020805460ff1916911515919091179055600101612182565b5050565b60866020526000908152604090205460ff1681565b6121f8614e9e565b6001600160a01b0316612209614043565b6001600160a01b031614612252576040805162461bcd60e51b815260206004820181905260248201526000805160206159c9833981519152604482015290519081900360640190fd5b6361d00a0042116122aa576040805162461bcd60e51b815260206004820152601f60248201527f5472616e73666572732063616e6e6f7420626520656e61626c65642079657400604482015290519081900360640190fd5b6093805460ff19166001179055565b60606000808367ffffffffffffffff811180156122d557600080fd5b506040519080825280602002602001820160405280156122ff578160200160208202803683370190505b50905060005b60655481101561254f5760006065828154811061231e57fe5b6000918252602082200154604080517fb49a60bb00000000000000000000000000000000000000000000000000000000815290516001600160a01b039092169263b49a60bb92600480840193829003018186803b15801561237e57600080fd5b505afa158015612392573d6000803e3d6000fd5b505050506040513d6000823e601f3d908101601f1916820160405260208110156123bb57600080fd5b81019080805160405193929190846401000000008211156123db57600080fd5b9083019060208201858111156123f057600080fd5b825186602082028301116401000000008211171561240d57600080fd5b82525081516020918201928201910280838360005b8381101561243a578181015183820152602001612422565b5050505090500160405250505090508051600014156124595750612547565b60005b81518110156125365781818151811061247157fe5b60200260200101516001600160a01b031663e4df5e1a6040518163ffffffff1660e01b815260040160206040518083038186803b1580156124b157600080fd5b505afa1580156124c5573d6000803e3d6000fd5b505050506040513d60208110156124db57600080fd5b505115612521578181815181106124ee57fe5b602002602001015184868151811061250257fe5b6001600160a01b03909216602092830291909101909101526001909401935b8685141561252e57612536565b60010161245c565b5085841415612545575061254f565b505b600101612305565b509392505050565b6066818154811061256757600080fd5b6000918252602090912001546001600160a01b0316905081565b60935460ff1681565b606b546001600160a01b031681565b6125a1614e9e565b6001600160a01b03166125b2614043565b6001600160a01b0316146125fb576040805162461bcd60e51b815260206004820181905260248201526000805160206159c9833981519152604482015290519081900360640190fd5b6001600160a01b03811660009081526089602052604090205460ff1615801561262c57506001600160a01b03811615155b61267d576040805162461bcd60e51b815260206004820152601160248201527f496e636f72726563742061646472657373000000000000000000000000000000604482015290519081900360640190fd5b6001600160a01b03166000908152608960205260409020805460ff19166001179055565b6001600160a01b031660009081526089602052604090205460ff1690565b6060806000835167ffffffffffffffff811180156126dc57600080fd5b50604051908082528060200260200182016040528015612706578160200160208202803683370190505b5090506000845167ffffffffffffffff8111801561272357600080fd5b5060405190808252806020026020018201604052801561274d578160200160208202803683370190505b5090506000606b60009054906101000a90046001600160a01b03166001600160a01b031663ddaa26ad6040518163ffffffff1660e01b815260040160206040518083038186803b1580156127a057600080fd5b505afa1580156127b4573d6000803e3d6000fd5b505050506040513d60208110156127ca57600080fd5b5051905060005b8651811015612c225760006001600160a01b03168782815181106127f157fe5b60200260200101516001600160a01b03161415612855576040805162461bcd60e51b815260206004820152601360248201527f6e6f7420612076616c6964206164647265737300000000000000000000000000604482015290519081900360640190fd5b600087828151811061286357fe5b60200260200101516001600160a01b03166356ba88b86040518163ffffffff1660e01b815260040160206040518083038186803b1580156128a357600080fd5b505afa1580156128b7573d6000803e3d6000fd5b505050506040513d60208110156128cd57600080fd5b50516001600160a01b03811660009081526086602052604090205490915060ff1680156129825750806001600160a01b03166306061dfa89848151811061291057fe5b60200260200101516040518263ffffffff1660e01b815260040180826001600160a01b0316815260200191505060206040518083038186803b15801561295557600080fd5b505afa158015612969573d6000803e3d6000fd5b505050506040513d602081101561297f57600080fd5b50515b6129d3576040805162461bcd60e51b815260206004820152601760248201527f6e6f7420612070726f746f636f6c207374726174656779000000000000000000604482015290519081900360640190fd5b604080516002808252606082018352600092602083019080368337019050509050888381518110612a0057fe5b60200260200101516001600160a01b031663bf1dcfe26040518163ffffffff1660e01b815260040160e06040518083038186803b158015612a4057600080fd5b505afa158015612a54573d6000803e3d6000fd5b505050506040513d60e0811015612a6a57600080fd5b50608081015160c09091015182518390600090612a8357fe5b6020026020010183600181518110612a9757fe5b60200260200101828152508281525050508381600081518110612ab657fe5b6020026020010151108015612ade57508381600181518110612ad457fe5b6020026020010151105b8015612b5e5750888381518110612af157fe5b60200260200101516001600160a01b031663e4df5e1a6040518163ffffffff1660e01b815260040160206040518083038186803b158015612b3157600080fd5b505afa158015612b45573d6000803e3d6000fd5b505050506040513d6020811015612b5b57600080fd5b50515b8015612b6957508315155b858481518110612b7557fe5b602002602001019015159081151581525050888381518110612b9357fe5b60200260200101516001600160a01b03166303cddb2c6040518163ffffffff1660e01b815260040160206040518083038186803b158015612bd357600080fd5b505afa158015612be7573d6000803e3d6000fd5b505050506040513d6020811015612bfd57600080fd5b50518651879085908110612c0d57fe5b602090810291909101015250506001016127d1565b5090935090915050915091565b609a6020526000908152604090205460ff1681565b60995461010090046001600160a01b031681565b60995461010090046001600160a01b0316331480612c8e5750612c79614043565b6001600160a01b0316336001600160a01b0316145b612cc95760405162461bcd60e51b81526004018080602001828103825260378152602001806159e96037913960400191505060405180910390fd5b612cd1614043565b6001600160a01b0316336001600160a01b03161480612cf857506001600160a01b03811615155b612d49576040805162461bcd60e51b815260206004820152601e60248201527f477561726469616e2063616e6e6f742072656d6f76652068696d73656c660000604482015290519081900360640190fd5b609980546001600160a01b0383811661010081810274ffffffffffffffffffffffffffffffffffffffff00198516179094556040805194909304919091168084526020840191909152815190927f0613b6ee6a04f0d09f390e4d9318894b9f6ac7fd83897cd8d18896ba579c401e92908290030190a15050565b6071546000906001600160a01b0316612e23576040805162461bcd60e51b815260206004820181905260248201527f4e65656420612064656661756c7420747261646520696e746567726174696f6e604482015290519081900360640190fd5b609b5461010090046001600160a01b031615801590612e4c5750606e546001600160a01b031615155b8015612e625750606d546001600160a01b031615155b8015612e7857506068546001600160a01b031615155b8015612e8e5750608b546001600160a01b031615155b612edf576040805162461bcd60e51b815260206004820152601a60248201527f506172616d6574657273206e6f7420696e697469616c697a6564000000000000604482015290519081900360640190fd5b609b54604080517f7804a5dc00000000000000000000000000000000000000000000000000000000815233600482015290516101009092046001600160a01b031691637804a5dc91602480820192602092909190829003018186803b158015612f4757600080fd5b505afa158015612f5b573d6000803e3d6000fd5b505050506040513d6020811015612f7157600080fd5b505180612f80575060995460ff165b612fbb5760405162461bcd60e51b8152600401808060200182810382526027815260200180615a4a6027913960400191505060405180910390fd5b6000606a60009054906101000a90046001600160a01b03166001600160a01b0316638853932d8d338e8e8e8e8e8e8e8e6040518b63ffffffff1660e01b8152600401808b6001600160a01b031681526020018a6001600160a01b03168152602001806020018060200180602001898152602001806020018781526020018060200186810386528e818151815260200191508051906020019080838360005b83811015613071578181015183820152602001613059565b50505050905090810190601f16801561309e5780820380516001836020036101000a031916815260200191505b5086810385528d5181528d516020918201918f019080838360005b838110156130d15781810151838201526020016130b9565b50505050905090810190601f1680156130fe5780820380516001836020036101000a031916815260200191505b5086810384528c5181528c516020918201918e019080838360005b83811015613131578181015183820152602001613119565b50505050905090810190601f16801561315e5780820380516001836020036101000a031916815260200191505b5086810383528a8a828181526020019250602002808284376000838201819052601f909101601f19169092018881038452895181528951602091820193828c0193509102908190849084905b838110156131c25781810151838201526020016131aa565b505050509050019f50505050505050505050505050505050602060405180830381600087803b1580156131f457600080fd5b505af1158015613208573d6000803e3d6000fd5b505050506040513d602081101561321e57600080fd5b505190506001600160a01b038c1673c02aaa39b223fe8d0a0e5c4f27ead9083c756cc214158061324c575034155b1561327a576132666001600160a01b038d16333088614f8f565b61327a6001600160a01b038d168287615008565b6001600160a01b03811660009081526086602052604090205460ff16156132e8576040805162461bcd60e51b815260206004820152601560248201527f47617264656e20616c7265616479206578697374730000000000000000000000604482015290519081900360640190fd5b6001600160a01b038116600081815260866020526040808220805460ff191660019081179091556065805480830182559084527f8ff97419363ffd7000167f130ef7168fbea05faf9251824ca5043f113cc6a7c70180546001600160a01b0319168517905581517f695f3f5d000000000000000000000000000000000000000000000000000000008152600481018a9052602481018a90523360448201526064810191909152905163695f3f5d9234926084808201939182900301818588803b1580156133b457600080fd5b505af11580156133c8573d6000803e3d6000fd5b5050505050826000815181106133da57fe5b602002602001015160001415806134065750826001815181106133f957fe5b6020026020010151600014155b8061342657508260028151811061341957fe5b6020026020010151600014155b156134ee57606b5483516001600160a01b03909116906380334dbe908390869060009061344f57fe5b60200260200101518660018151811061346457fe5b60200260200101518760028151811061347957fe5b60200260200101516040518563ffffffff1660e01b815260040180856001600160a01b03168152602001848152602001838152602001828152602001945050505050600060405180830381600087803b1580156134d557600080fd5b505af11580156134e9573d6000803e3d6000fd5b505050505b60405133906001600160a01b038316907f3f9c315348eaae54d760380967a68b458af53312321328f584799f93283dc1de90600090a39b9a5050505050505050505050565b61353b614043565b6001600160a01b0316336001600160a01b0316148061356d575033730b892ebc6a4bf484cddb7253c6bd5261490163b9145b6135b6576040805162461bcd60e51b81526020600482015260156024820152744e6f7420656e6f7567682070726976696c6567657360581b604482015290519081900360640190fd5b6001600160a01b038116613609576040805162461bcd60e51b8152602060048201526015602482015274041646472657373206d757374206e6f74206265203605c1b604482015290519081900360640190fd5b6071546001600160a01b038281169116141561366c576040805162461bcd60e51b815260206004820152601960248201527f41646472657373206d75737420626520646966666572656e7400000000000000604482015290519081900360640190fd5b607180546001600160a01b038381166001600160a01b031983168117909355604080519190921680825291519192917fdc1fc9970870c3bb1ad5fce4186165c260c6492487c580adc8b8e361055ac9889181900360200190a25050565b60945481565b609b5460009060ff1680611a685750506001600160a01b03166000908152609a602052604090205460ff1690565b601481565b60896020526000908152604090205460ff1681565b608b546001600160a01b031681565b609b5460ff1681565b613737614043565b6001600160a01b0316336001600160a01b03161480613769575033730b892ebc6a4bf484cddb7253c6bd5261490163b9145b6137b2576040805162461bcd60e51b81526020600482015260156024820152744e6f7420656e6f7567682070726976696c6567657360581b604482015290519081900360640190fd5b6001600160a01b038116613805576040805162461bcd60e51b8152602060048201526015602482015274041646472657373206d757374206e6f74206265203605c1b604482015290519081900360640190fd5b606d80546001600160a01b038381166001600160a01b031983168117909355604080519190921680825291519192917f57c1ea229271e944c7d975557caf535c1c974708de760613121827217db4ce8f9181900360200190a25050565b60995460009061010090046001600160a01b031633148061389b5750613886614043565b6001600160a01b0316336001600160a01b0316145b6138d65760405162461bcd60e51b81526004018080602001828103825260308152602001806159116030913960400191505060405180910390fd5b6138de614043565b6001600160a01b0316336001600160a01b031614806138ff57506001821515145b613950576040805162461bcd60e51b815260206004820152601660248201527f6f6e6c792061646d696e2063616e20756e706175736500000000000000000000604482015290519081900360640190fd5b609b805483151560ff1990911681179091556040805160208101929092528082526015828201527f477561726469616e20676c6f62616c20706175736500000000000000000000006060830152517fef159d9a32b2472e32b098f954f3ce62d232939f1c207070b584df1814de2de09181900360800190a15090565b6139d4614e9e565b6001600160a01b03166139e5614043565b6001600160a01b031614613a2e576040805162461bcd60e51b815260206004820181905260248201526000805160206159c9833981519152604482015290519081900360640190fd5b6033546040516000916001600160a01b0316907f8be0079c531659141344cd1fd0a4f28419497f9722a3daafe3b4186f6b6457e0908390a3603380546001600160a01b0319169055565b73f4dc48d260c93ad6a96c5ce563e70ca578987c7481565b60935462010000900460ff1681565b613aa761514d565b6611c37937e0800060955566b1a2bc2ec500006094556000609681905560975560646098556099805460ff191690556093805461ff001962ff000019909116620100001716610100179055565b613afc614e9e565b6001600160a01b0316613b0d614043565b6001600160a01b031614613b56576040805162461bcd60e51b815260206004820181905260248201526000805160206159c9833981519152604482015290519081900360640190fd5b6001600160a01b038116613ba9576040805162461bcd60e51b8152602060048201526015602482015274041646472657373206d757374206e6f74206265203605c1b604482015290519081900360640190fd5b606b80546001600160a01b038381166001600160a01b031983168117909355604080519190921680825291519192917f52cd8e0a7f86e9df123b3357ab2ee1c4cd0f5ac84ca8c98d93beb2679b2bb8069181900360200190a25050565b613c0e614e9e565b6001600160a01b0316613c1f614043565b6001600160a01b031614613c68576040805162461bcd60e51b815260206004820181905260248201526000805160206159c9833981519152604482015290519081900360640190fd5b6001600160a01b038116613cbb576040805162461bcd60e51b8152602060048201526015602482015274041646472657373206d757374206e6f74206265203605c1b604482015290519081900360640190fd5b608b80546001600160a01b038381166001600160a01b03198316811790935560408051938452911660208301819052815190927f8c3aa5f43a388513435861bf27dfad7829cd248696fed367c62d441f6295449692908290030190a15050565b613d23614e9e565b6001600160a01b0316613d34614043565b6001600160a01b031614613d7d576040805162461bcd60e51b815260206004820181905260248201526000805160206159c9833981519152604482015290519081900360640190fd5b6001600160a01b03811660009081526087602052604090205460ff16613dea576040805162461bcd60e51b815260206004820152601c60248201527f5265736572766520617373657420646f6573206e6f7420657869737400000000604482015290519081900360640190fd5b613e55816066805480602002602001604051908101604052809291908181526020018280548015611f7a576020028201919060005260206000209081546001600160a01b03168152600190910190602001808311611f5c575050505050614ea290919063ffffffff16565b8051613e6991606691602090910190615851565b506001600160a01b038116600081815260876020526040808220805460ff19169055517f2a4ae73bc76175e864e83c9843f11cf15a1bfcfa73152fb96d133416efee48ed9190a250565b613ebb614e9e565b6001600160a01b0316613ecc614043565b6001600160a01b031614613f15576040805162461bcd60e51b815260206004820181905260248201526000805160206159c9833981519152604482015290519081900360640190fd5b60008111613f6a576040805162461bcd60e51b815260206004820152601d60248201527f5f6d696e5269736b79506169724c6971756964697479457468203e2030000000604482015290519081900360640190fd5b6001600160a01b03821660009081526087602052604090205460ff16613fd7576040805162461bcd60e51b815260206004820152601b60248201527f4e6565647320746f20626520612076616c696420726573657276650000000000604482015290519081900360640190fd5b6001600160a01b0382166000818152608a6020908152604091829020849055815184815291517fb78c51bc9bffa228585b84c38a0234fe0a48eb7aeb9f7a6a7a46f0ddd3270dd59281900390910190a25050565b730b892ebc6a4bf484cddb7253c6bd5261490163b981565b600061404d6151ff565b905090565b6065818154811061256757600080fd5b606d546001600160a01b031681565b73c02aaa39b223fe8d0a0e5c4f27ead9083c756cc281565b60886020526000908152604090205460ff1681565b60876020526000908152604090205460ff1681565b6140bb614043565b6001600160a01b0316336001600160a01b031614806140ed575033730b892ebc6a4bf484cddb7253c6bd5261490163b9145b614136576040805162461bcd60e51b81526020600482015260156024820152744e6f7420656e6f7567682070726976696c6567657360581b604482015290519081900360640190fd5b6001600160a01b038116614189576040805162461bcd60e51b8152602060048201526015602482015274041646472657373206d757374206e6f74206265203605c1b604482015290519081900360640190fd5b606f80546001600160a01b038381166001600160a01b031983168117909355604080519190921680825291519192917e40167ea3901ef812c672b081813db3c0fc117c302ace151f1f9a907906e1669181900360200190a25050565b6141ed614043565b6001600160a01b0316336001600160a01b0316148061421f575033730b892ebc6a4bf484cddb7253c6bd5261490163b9145b614268576040805162461bcd60e51b81526020600482015260156024820152744e6f7420656e6f7567682070726976696c6567657360581b604482015290519081900360640190fd5b6068546001600160a01b03828116911614156142cb576040805162461bcd60e51b815260206004820152601c60248201527f47617264656e2056616c75657220616c72656164792065786973747300000000604482015290519081900360640190fd5b6001600160a01b038116614326576040805162461bcd60e51b815260206004820152601860248201527f47617264656e2056616c756572206d7573742065786973740000000000000000604482015290519081900360640190fd5b606880546001600160a01b038381166001600160a01b031983168117909355604080519190921680825291519192917fb89b871cab0fe1b2d8c7cc3e16640ef9a9bf67f031e44947331820e025bf69479181900360200190a25050565b606060668054806020026020016040519081016040528092919081815260200182805480156143db57602002820191906000526020600020905b81546001600160a01b031681526001909101906020018083116143bd575b5050505050905090565b6143ed614043565b6001600160a01b0316336001600160a01b0316148061441f575033730b892ebc6a4bf484cddb7253c6bd5261490163b9145b614468576040805162461bcd60e51b81526020600482015260156024820152744e6f7420656e6f7567682070726976696c6567657360581b604482015290519081900360640190fd5b6069546001600160a01b03828116911614156144cb576040805162461bcd60e51b815260206004820152601b60248201527f5072696365206f7261636c6520616c7265616479206578697374730000000000604482015290519081900360640190fd5b6001600160a01b038116614526576040805162461bcd60e51b815260206004820152601760248201527f5072696365206f7261636c65206d757374206578697374000000000000000000604482015290519081900360640190fd5b606980546001600160a01b038381166001600160a01b031983168117909355604080519190921680825291519192917f40bddd72ea96b80dae14e3d13e8ce2c4ecd2500d88c6c0004d24a00deab28f9c9181900360200190a25050565b606a546001600160a01b031681565b606c546001600160a01b031681565b6145a9614043565b6001600160a01b0316336001600160a01b031614806145db575033730b892ebc6a4bf484cddb7253c6bd5261490163b9145b614624576040805162461bcd60e51b81526020600482015260156024820152744e6f7420656e6f7567682070726976696c6567657360581b604482015290519081900360640190fd5b601460ff83161061467c576040805162461bcd60e51b815260206004820152601660248201527f4d6178206f7065726174696f6e73207265616368656400000000000000000000604482015290519081900360640190fd5b806001600160a01b031660728360ff166014811061469657fe5b01546001600160a01b031614156146f4576040805162461bcd60e51b815260206004820152601560248201527f4f7065726174696f6e20616c7265616479207365740000000000000000000000604482015290519081900360640190fd5b6001600160a01b03811661474f576040805162461bcd60e51b815260206004820152601d60248201527f4f7065726174696f6e2061646472657373206d7573742065786973742e000000604482015290519081900360640190fd5b8060728360ff166014811061476057fe5b0180546001600160a01b039283166001600160a01b03199091161790556040805191831682525160ff8416917f2dc23b4bb2132388a8a9f2d4a7ec650d42dcd4c1c63e6495756fa25e8ecc6abd919081900360200190a25050565b606f546001600160a01b031681565b606060658054806020026020016040519081016040528092919081815260200182805480156143db576020028201919060005260206000209081546001600160a01b031681526001909101906020018083116143bd575050505050905090565b614832614043565b6001600160a01b0316336001600160a01b03161480614864575033730b892ebc6a4bf484cddb7253c6bd5261490163b9145b6148ad576040805162461bcd60e51b81526020600482015260156024820152744e6f7420656e6f7567682070726976696c6567657360581b604482015290519081900360640190fd5b6001600160a01b038116614900576040805162461bcd60e51b8152602060048201526015602482015274041646472657373206d757374206e6f74206265203605c1b604482015290519081900360640190fd5b606e80546001600160a01b038381166001600160a01b031983168117909355604080519190921680825291519192917f578086cc379999d712cf9ea4c177a02b092c028a84cf82d2dd590f2606b3169f9181900360200190a25050565b6071546001600160a01b031681565b614974614043565b6001600160a01b0316336001600160a01b031614806149a6575033730b892ebc6a4bf484cddb7253c6bd5261490163b9145b6149ef576040805162461bcd60e51b81526020600482015260156024820152744e6f7420656e6f7567682070726976696c6567657360581b604482015290519081900360640190fd5b6001600160a01b038116614a42576040805162461bcd60e51b8152602060048201526015602482015274041646472657373206d757374206e6f74206265203605c1b604482015290519081900360640190fd5b606a80546001600160a01b038381166001600160a01b031983168117909355604080519190921680825291519192917f1e3307b8b00f4ec731298a869e9665a2662abd65a0e3fe9dd01fd53c35b0ae939181900360200190a25050565b606e546001600160a01b031681565b614ab6614e9e565b6001600160a01b0316614ac7614043565b6001600160a01b031614614b10576040805162461bcd60e51b815260206004820181905260248201526000805160206159c9833981519152604482015290519081900360640190fd5b6001600160a01b03811615801590614b9057506012816001600160a01b031663313ce5676040518163ffffffff1660e01b815260040160206040518083038186803b158015614b5e57600080fd5b505afa158015614b72573d6000803e3d6000fd5b505050506040513d6020811015614b8857600080fd5b505160ff1611155b614be1576040805162461bcd60e51b815260206004820152601160248201527f496e636f72726563742061646472657373000000000000000000000000000000604482015290519081900360640190fd5b6001600160a01b03811660009081526087602052604090205460ff1615614c4f576040805162461bcd60e51b815260206004820152601b60248201527f5265736572766520617373657420616c72656164792061646465640000000000604482015290519081900360640190fd5b6001600160a01b038116600081815260876020526040808220805460ff1916600190811790915560668054918201815583527f46501879b8ca8525e8c2fd519e2fbfcfa2ebea26501294aa02cbfcfb12e943540180546001600160a01b03191684179055517f9fef46e320a4767c320315d2f597ee79c1e17c3c3330d026764d6a7dac8fcd5c9190a250565b608a6020526000908152604090205481565b614cf5614e9e565b6001600160a01b0316614d06614043565b6001600160a01b031614614d4f576040805162461bcd60e51b815260206004820181905260248201526000805160206159c9833981519152604482015290519081900360640190fd5b6001600160a01b038116614d945760405162461bcd60e51b81526004018080602001828103825260268152602001806158eb6026913960400191505060405180910390fd5b6033546040516001600160a01b038084169216907f8be0079c531659141344cd1fd0a4f28419497f9722a3daafe3b4186f6b6457e090600090a3603380546001600160a01b0319166001600160a01b0392909216919091179055565b614df86158b6565b60408051610280810191829052607280546001600160a01b0316825290916014906073602085018083116143bd575050505050905090565b6001600160a01b031660009081526087602052604090205460ff1690565b6000805b601460ff82161015614e955760728160ff1660148110614e6e57fe5b01546001600160a01b0384811691161415614e8d576001915050611a6b565b600101614e52565b50600092915050565b3390565b6060600080614eb1858561520e565b9150915080614f07576040805162461bcd60e51b815260206004820152601560248201527f41646472657373206e6f7420696e2061727261792e0000000000000000000000604482015290519081900360640190fd5b6000614f138684615274565b50935061163592505050565b604080516001600160a01b038416602482015260448082018490528251808303909101815260649091019091526020810180516001600160e01b03167fa9059cbb00000000000000000000000000000000000000000000000000000000179052614f8a9084906153d8565b505050565b604080516001600160a01b0380861660248301528416604482015260648082018490528251808303909101815260849091019091526020810180516001600160e01b03167f23b872dd000000000000000000000000000000000000000000000000000000001790526150029085906153d8565b50505050565b8015806150a75750604080517fdd62ed3e0000000000000000000000000000000000000000000000000000000081523060048201526001600160a01b03848116602483015291519185169163dd62ed3e91604480820192602092909190829003018186803b15801561507957600080fd5b505afa15801561508d573d6000803e3d6000fd5b505050506040513d60208110156150a357600080fd5b5051155b6150e25760405162461bcd60e51b8152600401808060200182810382526036815260200180615a716036913960400191505060405180910390fd5b604080516001600160a01b038416602482015260448082018490528251808303909101815260649091019091526020810180516001600160e01b03167f095ea7b300000000000000000000000000000000000000000000000000000000179052614f8a9084906153d8565b600054610100900460ff16806151665750615166615489565b80615174575060005460ff16155b6151af5760405162461bcd60e51b815260040180806020018281038252602e81526020018061599b602e913960400191505060405180910390fd5b600054610100900460ff161580156151da576000805460ff1961ff0019909116610100171660011790555b6151e261549a565b6151ea61553a565b80156151fc576000805461ff00191690555b50565b6033546001600160a01b031690565b81516000908190815b8181101561526157846001600160a01b031686828151811061523557fe5b60200260200101516001600160a01b031614156152595792506001915061526d9050565b600101615217565b50600019600092509250505b9250929050565b81516060906000908084106152d0576040805162461bcd60e51b815260206004820152601860248201527f496e646578206d757374206265203c2041206c656e6774680000000000000000604482015290519081900360640190fd5b60006001820367ffffffffffffffff811180156152ec57600080fd5b50604051908082528060200260200182016040528015615316578160200160208202803683370190505b50905060005b858110156153645786818151811061533057fe5b602002602001015182828151811061534457fe5b6001600160a01b039092166020928302919091019091015260010161531c565b50600185015b828110156153b55786818151811061537e57fe5b602002602001015182600183038151811061539557fe5b6001600160a01b039092166020928302919091019091015260010161536a565b50808686815181106153c357fe5b60200260200101519350935050509250929050565b600061542d826040518060400160405280602081526020017f5361666545524332303a206c6f772d6c6576656c2063616c6c206661696c6564815250856001600160a01b03166156339092919063ffffffff16565b805190915015614f8a5780806020019051602081101561544c57600080fd5b5051614f8a5760405162461bcd60e51b815260040180806020018281038252602a815260200180615a20602a913960400191505060405180910390fd5b60006154943061564c565b15905090565b600054610100900460ff16806154b357506154b3615489565b806154c1575060005460ff16155b6154fc5760405162461bcd60e51b815260040180806020018281038252602e81526020018061599b602e913960400191505060405180910390fd5b600054610100900460ff161580156151ea576000805460ff1961ff00199091166101001716600117905580156151fc576000805461ff001916905550565b600054610100900460ff16806155535750615553615489565b80615561575060005460ff16155b61559c5760405162461bcd60e51b815260040180806020018281038252602e81526020018061599b602e913960400191505060405180910390fd5b600054610100900460ff161580156155c7576000805460ff1961ff0019909116610100171660011790555b60006155d1614e9e565b603380546001600160a01b0319166001600160a01b038316908117909155604051919250906000907f8be0079c531659141344cd1fd0a4f28419497f9722a3daafe3b4186f6b6457e0908290a35080156151fc576000805461ff001916905550565b60606156428484600085615652565b90505b9392505050565b3b151590565b6060824710156156935760405162461bcd60e51b81526004018080602001828103825260268152602001806159416026913960400191505060405180910390fd5b61569c8561564c565b6156ed576040805162461bcd60e51b815260206004820152601d60248201527f416464726573733a2063616c6c20746f206e6f6e2d636f6e7472616374000000604482015290519081900360640190fd5b600080866001600160a01b031685876040518082805190602001908083835b6020831061572b5780518252601f19909201916020918201910161570c565b6001836020036101000a03801982511681845116808217855250505050505090500191505060006040518083038185875af1925050503d806000811461578d576040519150601f19603f3d011682016040523d82523d6000602084013e615792565b606091505b50915091506157a28282866157ad565b979650505050505050565b606083156157bc575081615645565b8251156157cc5782518084602001fd5b8160405162461bcd60e51b81526004018080602001828103825283818151815260200191508051906020019080838360005b838110156158165781810151838201526020016157fe565b50505050905090810190601f1680156158435780820380516001836020036101000a031916815260200191505b509250505060405180910390fd5b8280548282559060005260206000209081019282156158a6579160200282015b828111156158a657825182546001600160a01b0319166001600160a01b03909116178255602090920191600190910190615871565b506158b29291506158d5565b5090565b6040518061028001604052806014906020820280368337509192915050565b5b808211156158b257600081556001016158d656fe4f776e61626c653a206e6577206f776e657220697320746865207a65726f20616464726573736f6e6c7920706175736520677561726469616e20616e64206f776e65722063616e20706175736520676c6f62616c6c79416464726573733a20696e73756666696369656e742062616c616e636520666f722063616c6c6f6e6c7920706175736520677561726469616e20616e64206f776e65722063616e20706175736520696e646976696475616c6c79496e697469616c697a61626c653a20636f6e747261637420697320616c726561647920696e697469616c697a65644f776e61626c653a2063616c6c6572206973206e6f7420746865206f776e65726f6e6c7920706175736520677561726469616e20616e64206f776e65722063616e2075706461746520706175736520677561726469616e5361666545524332303a204552433230206f7065726174696f6e20646964206e6f7420737563636565645573657220646f6573206e6f742068617665206372656174696f6e207065726d697373696f6e735361666545524332303a20617070726f76652066726f6d206e6f6e2d7a65726f20746f206e6f6e2d7a65726f20616c6c6f77616e6365a26469706673582212203270fb5b6fff036c8fc86a2b06e3719173759d5cb34b945a04c0f12f41566c5364736f6c63430007060033",
  "devdoc": {
    "kind": "dev",
    "methods": {
      "addKeeper(address)": {
        "params": {
          "_keeper": "Address of the keeper"
        }
      },
      "addKeepers(address[])": {
        "params": {
          "_keepers": "List with keeprs of the assets to whitelist"
        }
      },
      "addReserveAsset(address)": {
        "params": {
          "_reserveAsset": "Address of the reserve assset"
        }
      },
      "createGarden(address,string,string,string,uint256,uint256[],uint256,bool[],uint256[])": {
        "params": {
          "_gardenParams": "Array of numeric garden params",
          "_initialContribution": "Initial contribution by the gardener",
          "_name": "Name of the Garden",
          "_profitSharing": "Custom profit sharing (if any)",
          "_publicGardenStrategistsStewards": "Public garden, public strategist rights and public stewards rights",
          "_reserveAsset": "Reserve asset of the Garden. Initially just weth",
          "_seed": "Seed to regenerate the garden NFT",
          "_symbol": "Symbol of the Garden",
          "_tokenURI": "Garden NFT token URI"
        }
      },
      "editGardenFactory(address)": {
        "params": {
          "_newGardenFactory": "Address of the new garden factory"
        }
      },
      "editGardenNFT(address)": {
        "params": {
          "_newGardenNFT": "Address of the new garden NFT"
        }
      },
      "editGardenValuer(address)": {
        "params": {
          "_gardenValuer": "Address of the new garden valuer"
        }
      },
      "editLiquidityReserve(address,uint256)": {
        "params": {
          "_newMinLiquidityReserve": "Absolute min liquidity of an asset to grab price",
          "_reserve": "Address of the reserve to edit"
        }
      },
      "editMardukGate(address)": {
        "params": {
          "_mardukGate": "Address of the new Marduk Gate"
        }
      },
      "editPriceOracle(address)": {
        "params": {
          "_priceOracle": "Address of the new price oracle"
        }
      },
      "editStrategyFactory(address)": {
        "params": {
          "_newStrategyFactory": "Address of the new strategy factory"
        }
      },
      "editStrategyNFT(address)": {
        "params": {
          "_newStrategyNFT": "Address of the new strategy NFT"
        }
      },
      "editTreasury(address)": {
        "params": {
          "_newTreasury": "Address of the new protocol fee recipient"
        }
      },
      "isBetaStrategy(address[])": {
        "params": {
          "_strategies": "Smartcontract address to check for a global or specific pause"
        }
      },
      "isPaused(address)": {
        "params": {
          "_contract": "Smartcontract address to check for a global or specific pause"
        }
      },
      "isSystemContract(address)": {
        "params": {
          "_contractAddress": "The contract address to check"
        }
      },
      "removeGarden(address)": {
        "params": {
          "_garden": "Address of the Garden contract to remove"
        }
      },
      "removeKeeper(address)": {
        "params": {
          "_keeper": "Address of the keeper"
        }
      },
      "removeReserveAsset(address)": {
        "params": {
          "_reserveAsset": "Address of the reserve asset to remove"
        }
      },
      "renounceOwnership()": {
        "details": "Leaves the contract without owner. It will not be possible to call `onlyOwner` functions anymore. Can only be called by the current owner. NOTE: Renouncing ownership will leave the contract without an owner, thereby removing any functionality that is only available to the owner."
      },
      "setGlobalPause(bool)": {
        "params": {
          "_state": "True to pause, false to unpause."
        }
      },
      "setMasterSwapper(address)": {
        "params": {
          "_newDefaultMasterSwapper": "Address of the new default trade integration"
        }
      },
      "setOperation(uint8,address)": {
        "params": {
          "_kind": "Operation kind",
          "_operation": "Address of the operation contract to set"
        }
      },
      "setPauseGuardian(address)": {
        "params": {
          "_guardian": "Address of the guardian"
        }
      },
      "setSomePause(address[],bool)": {
        "params": {
          "_address": "Addresses of protocol smartcontract to be paused",
          "_state": "Boolean pause state"
        }
      },
      "transferOwnership(address)": {
        "details": "Transfers ownership of the contract to a new account (`newOwner`). Can only be called by the current owner."
      }
    },
    "version": 1
  },
  "userdoc": {
    "events": {
      "ActionPaused(string,bool)": {
        "notice": "Emitted when an action is paused globally"
      },
      "ActionPausedIndividually(string,address,bool)": {
        "notice": "Emitted when an action is paused individually"
      },
      "NewPauseGuardian(address,address)": {
        "notice": "Emitted when pause guardian is changed"
      }
    },
    "kind": "user",
    "methods": {
      "addKeeper(address)": {
        "notice": "PRIVILEGED FACTORY FUNCTION. Adds a new valid keeper to the list"
      },
      "addKeepers(address[])": {
        "notice": "PRIVILEGED FACTORY FUNCTION. Adds a list of assets to the whitelist"
      },
      "addReserveAsset(address)": {
        "notice": "PRIVILEGED FACTORY FUNCTION. Adds a new valid reserve asset for gardens"
      },
      "createGarden(address,string,string,string,uint256,uint256[],uint256,bool[],uint256[])": {
        "notice": "Creates a Garden smart contract and registers the Garden with the controller. If asset is not WETH, the creator needs to approve the controller"
      },
      "editGardenFactory(address)": {
        "notice": "PRIVILEGED GOVERNANCE FUNCTION. Allows governance to edit the protocol garden factory"
      },
      "editGardenNFT(address)": {
        "notice": "PRIVILEGED GOVERNANCE FUNCTION. Allows governance to edit the protocol garden NFT"
      },
      "editGardenValuer(address)": {
        "notice": "PRIVILEGED GOVERNANCE FUNCTION. Allows governance to change the garden valuer"
      },
      "editLiquidityReserve(address,uint256)": {
        "notice": "GOVERNANCE FUNCTION: Edits the minimum liquidity an asset must have on Uniswap"
      },
      "editMardukGate(address)": {
        "notice": "PRIVILEGED GOVERNANCE FUNCTION. Allows governance to change the Marduk Gate Address"
      },
      "editPriceOracle(address)": {
        "notice": "PRIVILEGED GOVERNANCE FUNCTION. Allows governance to change the price oracle"
      },
      "editStrategyFactory(address)": {
        "notice": "PRIVILEGED GOVERNANCE FUNCTION. Allows governance to edit the protocol strategy factory"
      },
      "editStrategyNFT(address)": {
        "notice": "PRIVILEGED GOVERNANCE FUNCTION. Allows governance to edit the protocol strategy NFT"
      },
      "editTreasury(address)": {
        "notice": "PRIVILEGED GOVERNANCE FUNCTION. Allows governance to edit the protocol fee recipient"
      },
      "enableGardenTokensTransfers()": {
        "notice": "PRIVILEGED GOVERNANCE FUNCTION. Allows transfers of ERC20 gardenTokens Can only happen after 2021 is finished."
      },
      "initialize()": {
        "notice": "Initializes the initial fee recipient on deployment."
      },
      "isBetaStrategy(address[])": {
        "notice": "Check whether or not the strategies are beta protocol strategies deserving rewards"
      },
      "isPaused(address)": {
        "notice": "Check whether or not there is a global pause or a specific pause of the provided contract address"
      },
      "isSystemContract(address)": {
        "notice": "Check if a contract address is a garden or one of the system contracts"
      },
      "removeGarden(address)": {
        "notice": "PRIVILEGED GOVERNANCE FUNCTION. Allows governance to remove a Garden"
      },
      "removeKeeper(address)": {
        "notice": "PRIVILEGED FACTORY FUNCTION. Removes a keeper"
      },
      "removeReserveAsset(address)": {
        "notice": "PRIVILEGED GOVERNANCE FUNCTION. Allows governance to remove a reserve asset"
      },
      "setGlobalPause(bool)": {
        "notice": "PRIVILEGED GOVERNANCE FUNCTION. Pause the protocol globally in case of unexpected issue Only the governance can unpause it"
      },
      "setMasterSwapper(address)": {
        "notice": "PRIVILEGED GOVERNANCE FUNCTION. Allows governance to edit the protocol default trde integration"
      },
      "setOperation(uint8,address)": {
        "notice": "GOVERNANCE FUNCTION: Edit an existing operation on the registry"
      },
      "setPauseGuardian(address)": {
        "notice": "PRIVILEGED GOVERNANCE FUNCTION. Set-up a pause guardian"
      },
      "setSomePause(address[],bool)": {
        "notice": "PRIVILEGED GOVERNANCE FUNCTION. Pause some smartcontracts in a batch process in case of unexpected issue Only the governance can unpause it"
      }
    },
    "version": 1
  },
  "storageLayout": {
    "storage": [
      {
        "astId": 492,
        "contract": "contracts/BabController.sol:BabControllerV10",
        "label": "_initialized",
        "offset": 0,
        "slot": "0",
        "type": "t_bool"
      },
      {
        "astId": 495,
        "contract": "contracts/BabController.sol:BabControllerV10",
        "label": "_initializing",
        "offset": 1,
        "slot": "0",
        "type": "t_bool"
      },
      {
        "astId": 1447,
        "contract": "contracts/BabController.sol:BabControllerV10",
        "label": "__gap",
        "offset": 0,
        "slot": "1",
        "type": "t_array(t_uint256)50_storage"
      },
      {
        "astId": 10,
        "contract": "contracts/BabController.sol:BabControllerV10",
        "label": "_owner",
        "offset": 0,
        "slot": "51",
        "type": "t_address"
      },
      {
        "astId": 129,
        "contract": "contracts/BabController.sol:BabControllerV10",
        "label": "__gap",
        "offset": 0,
        "slot": "52",
        "type": "t_array(t_uint256)49_storage"
      },
      {
        "astId": 8569,
        "contract": "contracts/BabController.sol:BabControllerV10",
        "label": "gardens",
        "offset": 0,
        "slot": "101",
        "type": "t_array(t_address)dyn_storage"
      },
      {
        "astId": 8572,
        "contract": "contracts/BabController.sol:BabControllerV10",
        "label": "reserveAssets",
        "offset": 0,
        "slot": "102",
        "type": "t_array(t_address)dyn_storage"
      },
      {
        "astId": 8574,
        "contract": "contracts/BabController.sol:BabControllerV10",
        "label": "uniswapFactory",
        "offset": 0,
        "slot": "103",
        "type": "t_address"
      },
      {
        "astId": 8577,
        "contract": "contracts/BabController.sol:BabControllerV10",
        "label": "gardenValuer",
        "offset": 0,
        "slot": "104",
        "type": "t_address"
      },
      {
        "astId": 8580,
        "contract": "contracts/BabController.sol:BabControllerV10",
        "label": "priceOracle",
        "offset": 0,
        "slot": "105",
        "type": "t_address"
      },
      {
        "astId": 8583,
        "contract": "contracts/BabController.sol:BabControllerV10",
        "label": "gardenFactory",
        "offset": 0,
        "slot": "106",
        "type": "t_address"
      },
      {
        "astId": 8586,
        "contract": "contracts/BabController.sol:BabControllerV10",
        "label": "rewardsDistributor",
        "offset": 0,
        "slot": "107",
        "type": "t_address"
      },
      {
        "astId": 8589,
        "contract": "contracts/BabController.sol:BabControllerV10",
        "label": "ishtarGate",
        "offset": 0,
        "slot": "108",
        "type": "t_address"
      },
      {
        "astId": 8592,
        "contract": "contracts/BabController.sol:BabControllerV10",
        "label": "strategyFactory",
        "offset": 0,
        "slot": "109",
        "type": "t_address"
      },
      {
        "astId": 8595,
        "contract": "contracts/BabController.sol:BabControllerV10",
        "label": "gardenNFT",
        "offset": 0,
        "slot": "110",
        "type": "t_address"
      },
      {
        "astId": 8598,
        "contract": "contracts/BabController.sol:BabControllerV10",
        "label": "strategyNFT",
        "offset": 0,
        "slot": "111",
        "type": "t_address"
      },
      {
        "astId": 8602,
        "contract": "contracts/BabController.sol:BabControllerV10",
        "label": "enabledIntegrations",
        "offset": 0,
        "slot": "112",
        "type": "t_mapping(t_bytes32,t_address)"
      },
      {
        "astId": 8605,
        "contract": "contracts/BabController.sol:BabControllerV10",
        "label": "masterSwapper",
        "offset": 0,
        "slot": "113",
        "type": "t_address"
      },
      {
        "astId": 8610,
        "contract": "contracts/BabController.sol:BabControllerV10",
        "label": "enabledOperations",
        "offset": 0,
        "slot": "114",
        "type": "t_array(t_address)20_storage"
      },
      {
        "astId": 8615,
        "contract": "contracts/BabController.sol:BabControllerV10",
        "label": "isGarden",
        "offset": 0,
        "slot": "134",
        "type": "t_mapping(t_address,t_bool)"
      },
      {
        "astId": 8619,
        "contract": "contracts/BabController.sol:BabControllerV10",
        "label": "validReserveAsset",
        "offset": 0,
        "slot": "135",
        "type": "t_mapping(t_address,t_bool)"
      },
      {
        "astId": 8623,
        "contract": "contracts/BabController.sol:BabControllerV10",
        "label": "assetWhitelist",
        "offset": 0,
        "slot": "136",
        "type": "t_mapping(t_address,t_bool)"
      },
      {
        "astId": 8627,
        "contract": "contracts/BabController.sol:BabControllerV10",
        "label": "keeperList",
        "offset": 0,
        "slot": "137",
        "type": "t_mapping(t_address,t_bool)"
      },
      {
        "astId": 8632,
        "contract": "contracts/BabController.sol:BabControllerV10",
        "label": "minLiquidityPerReserve",
        "offset": 0,
        "slot": "138",
        "type": "t_mapping(t_address,t_uint256)"
      },
      {
        "astId": 8635,
        "contract": "contracts/BabController.sol:BabControllerV10",
        "label": "treasury",
        "offset": 0,
        "slot": "139",
        "type": "t_address"
      },
      {
        "astId": 8637,
        "contract": "contracts/BabController.sol:BabControllerV10",
        "label": "strategistProfitPercentage",
        "offset": 0,
        "slot": "140",
        "type": "t_uint256"
      },
      {
        "astId": 8639,
        "contract": "contracts/BabController.sol:BabControllerV10",
        "label": "stewardsProfitPercentage",
        "offset": 0,
        "slot": "141",
        "type": "t_uint256"
      },
      {
        "astId": 8641,
        "contract": "contracts/BabController.sol:BabControllerV10",
        "label": "lpsProfitPercentage",
        "offset": 0,
        "slot": "142",
        "type": "t_uint256"
      },
      {
        "astId": 8643,
        "contract": "contracts/BabController.sol:BabControllerV10",
        "label": "strategistBABLPercentage",
        "offset": 0,
        "slot": "143",
        "type": "t_uint256"
      },
      {
        "astId": 8645,
        "contract": "contracts/BabController.sol:BabControllerV10",
        "label": "stewardsBABLPercentage",
        "offset": 0,
        "slot": "144",
        "type": "t_uint256"
      },
      {
        "astId": 8647,
        "contract": "contracts/BabController.sol:BabControllerV10",
        "label": "lpsBABLPercentage",
        "offset": 0,
        "slot": "145",
        "type": "t_uint256"
      },
      {
        "astId": 8649,
        "contract": "contracts/BabController.sol:BabControllerV10",
        "label": "gardenCreatorBonus",
        "offset": 0,
        "slot": "146",
        "type": "t_uint256"
      },
      {
        "astId": 8652,
        "contract": "contracts/BabController.sol:BabControllerV10",
        "label": "gardenTokensTransfersEnabled",
        "offset": 0,
        "slot": "147",
        "type": "t_bool"
      },
      {
        "astId": 8655,
        "contract": "contracts/BabController.sol:BabControllerV10",
        "label": "bablMiningProgramEnabled",
        "offset": 1,
        "slot": "147",
        "type": "t_bool"
      },
      {
        "astId": 8658,
        "contract": "contracts/BabController.sol:BabControllerV10",
        "label": "allowPublicGardens",
        "offset": 2,
        "slot": "147",
        "type": "t_bool"
      },
      {
        "astId": 8661,
        "contract": "contracts/BabController.sol:BabControllerV10",
        "label": "protocolPerformanceFee",
        "offset": 0,
        "slot": "148",
        "type": "t_uint256"
      },
      {
        "astId": 8664,
        "contract": "contracts/BabController.sol:BabControllerV10",
        "label": "protocolManagementFee",
        "offset": 0,
        "slot": "149",
        "type": "t_uint256"
      },
      {
        "astId": 8666,
        "contract": "contracts/BabController.sol:BabControllerV10",
        "label": "protocolDepositGardenTokenFee",
        "offset": 0,
        "slot": "150",
        "type": "t_uint256"
      },
      {
        "astId": 8668,
        "contract": "contracts/BabController.sol:BabControllerV10",
        "label": "protocolWithdrawalGardenTokenFee",
        "offset": 0,
        "slot": "151",
        "type": "t_uint256"
      },
      {
        "astId": 8670,
        "contract": "contracts/BabController.sol:BabControllerV10",
        "label": "maxContributorsPerGarden",
        "offset": 0,
        "slot": "152",
        "type": "t_uint256"
      },
      {
        "astId": 8673,
        "contract": "contracts/BabController.sol:BabControllerV10",
        "label": "gardenCreationIsOpen",
        "offset": 0,
        "slot": "153",
        "type": "t_bool"
      },
      {
        "astId": 8675,
        "contract": "contracts/BabController.sol:BabControllerV10",
        "label": "guardian",
        "offset": 1,
        "slot": "153",
        "type": "t_address"
      },
      {
        "astId": 8680,
        "contract": "contracts/BabController.sol:BabControllerV10",
        "label": "guardianPaused",
        "offset": 0,
        "slot": "154",
        "type": "t_mapping(t_address,t_bool)"
      },
      {
        "astId": 8683,
        "contract": "contracts/BabController.sol:BabControllerV10",
        "label": "guardianGlobalPaused",
        "offset": 0,
        "slot": "155",
        "type": "t_bool"
      },
      {
        "astId": 8686,
        "contract": "contracts/BabController.sol:BabControllerV10",
        "label": "mardukGate",
        "offset": 1,
        "slot": "155",
        "type": "t_address"
      }
    ],
    "types": {
      "t_address": {
        "encoding": "inplace",
        "label": "address",
        "numberOfBytes": "20"
      },
      "t_array(t_address)20_storage": {
        "base": "t_address",
        "encoding": "inplace",
        "label": "address[20]",
        "numberOfBytes": "640"
      },
      "t_array(t_address)dyn_storage": {
        "base": "t_address",
        "encoding": "dynamic_array",
        "label": "address[]",
        "numberOfBytes": "32"
      },
      "t_array(t_uint256)49_storage": {
        "base": "t_uint256",
        "encoding": "inplace",
        "label": "uint256[49]",
        "numberOfBytes": "1568"
      },
      "t_array(t_uint256)50_storage": {
        "base": "t_uint256",
        "encoding": "inplace",
        "label": "uint256[50]",
        "numberOfBytes": "1600"
      },
      "t_bool": {
        "encoding": "inplace",
        "label": "bool",
        "numberOfBytes": "1"
      },
      "t_bytes32": {
        "encoding": "inplace",
        "label": "bytes32",
        "numberOfBytes": "32"
      },
      "t_mapping(t_address,t_bool)": {
        "encoding": "mapping",
        "key": "t_address",
        "label": "mapping(address => bool)",
        "numberOfBytes": "32",
        "value": "t_bool"
      },
      "t_mapping(t_address,t_uint256)": {
        "encoding": "mapping",
        "key": "t_address",
        "label": "mapping(address => uint256)",
        "numberOfBytes": "32",
        "value": "t_uint256"
      },
      "t_mapping(t_bytes32,t_address)": {
        "encoding": "mapping",
        "key": "t_bytes32",
        "label": "mapping(bytes32 => address)",
        "numberOfBytes": "32",
        "value": "t_address"
      },
      "t_uint256": {
        "encoding": "inplace",
        "label": "uint256",
        "numberOfBytes": "32"
      }
    }
  }
}