{
  "address": "0x9538a8Ab18A33efca1a934dd2a9c1884b9604270",
  "abi": [
    {
      "anonymous": false,
      "inputs": [
        {
          "indexed": false,
          "internalType": "string",
          "name": "_action",
          "type": "string"
        },
        {
          "indexed": false,
          "internalType": "bool",
          "name": "_pauseState",
          "type": "bool"
        }
      ],
      "name": "ActionPaused",
      "type": "event"
    },
    {
      "anonymous": false,
      "inputs": [
        {
          "indexed": false,
          "internalType": "string",
          "name": "_action",
          "type": "string"
        },
        {
          "indexed": false,
          "internalType": "address",
          "name": "_address",
          "type": "address"
        },
        {
          "indexed": false,
          "internalType": "bool",
          "name": "_pauseState",
          "type": "bool"
        }
      ],
      "name": "ActionPausedIndividually",
      "type": "event"
    },
    {
      "anonymous": false,
      "inputs": [
        {
          "indexed": false,
          "internalType": "address",
          "name": "_integration",
          "type": "address"
        },
        {
          "indexed": true,
          "internalType": "string",
          "name": "_integrationName",
          "type": "string"
        }
      ],
      "name": "ControllerIntegrationAdded",
      "type": "event"
    },
    {
      "anonymous": false,
      "inputs": [
        {
          "indexed": false,
          "internalType": "address",
          "name": "_newIntegration",
          "type": "address"
        },
        {
          "indexed": true,
          "internalType": "string",
          "name": "_integrationName",
          "type": "string"
        }
      ],
      "name": "ControllerIntegrationEdited",
      "type": "event"
    },
    {
      "anonymous": false,
      "inputs": [
        {
          "indexed": false,
          "internalType": "address",
          "name": "_integration",
          "type": "address"
        },
        {
          "indexed": true,
          "internalType": "string",
          "name": "_integrationName",
          "type": "string"
        }
      ],
      "name": "ControllerIntegrationRemoved",
      "type": "event"
    },
    {
      "anonymous": false,
      "inputs": [
        {
          "indexed": true,
          "internalType": "uint8",
          "name": "_kind",
          "type": "uint8"
        },
        {
          "indexed": false,
          "internalType": "address",
          "name": "_address",
          "type": "address"
        }
      ],
      "name": "ControllerOperationSet",
      "type": "event"
    },
    {
      "anonymous": false,
      "inputs": [
        {
          "indexed": true,
          "internalType": "address",
          "name": "_garden",
          "type": "address"
        },
        {
          "indexed": true,
          "internalType": "address",
          "name": "_factory",
          "type": "address"
        }
      ],
      "name": "GardenAdded",
      "type": "event"
    },
    {
      "anonymous": false,
      "inputs": [
        {
          "indexed": true,
          "internalType": "address",
          "name": "_gardenFactory",
          "type": "address"
        },
        {
          "indexed": false,
          "internalType": "address",
          "name": "_oldGardenFactory",
          "type": "address"
        }
      ],
      "name": "GardenFactoryChanged",
      "type": "event"
    },
    {
      "anonymous": false,
      "inputs": [
        {
          "indexed": true,
          "internalType": "address",
          "name": "_newGardenNFT",
          "type": "address"
        },
        {
          "indexed": false,
          "internalType": "address",
          "name": "_oldStrategyNFT",
          "type": "address"
        }
      ],
      "name": "GardenNFTChanged",
      "type": "event"
    },
    {
      "anonymous": false,
      "inputs": [
        {
          "indexed": true,
          "internalType": "address",
          "name": "_garden",
          "type": "address"
        }
      ],
      "name": "GardenRemoved",
      "type": "event"
    },
    {
      "anonymous": false,
      "inputs": [
        {
          "indexed": true,
          "internalType": "address",
          "name": "_gardenValuer",
          "type": "address"
        },
        {
          "indexed": false,
          "internalType": "address",
          "name": "_oldGardenValuer",
          "type": "address"
        }
      ],
      "name": "GardenValuerChanged",
      "type": "event"
    },
    {
      "anonymous": false,
      "inputs": [
        {
          "indexed": false,
          "internalType": "address",
          "name": "_newIshtarGate",
          "type": "address"
        },
        {
          "indexed": false,
          "internalType": "address",
          "name": "_oldIshtarGate",
          "type": "address"
        }
      ],
      "name": "IshtarGateChanged",
      "type": "event"
    },
    {
      "anonymous": false,
      "inputs": [
        {
          "indexed": true,
          "internalType": "address",
          "name": "_resesrveAsset",
          "type": "address"
        },
        {
          "indexed": false,
          "internalType": "uint256",
          "name": "_newMinLiquidityReserve",
          "type": "uint256"
        }
      ],
      "name": "LiquidityMinimumEdited",
      "type": "event"
    },
    {
      "anonymous": false,
      "inputs": [
        {
          "indexed": false,
          "internalType": "address",
          "name": "_newMardukGate",
          "type": "address"
        },
        {
          "indexed": false,
          "internalType": "address",
          "name": "_oldMardukGate",
          "type": "address"
        }
      ],
      "name": "MardukGateChanged",
      "type": "event"
    },
    {
      "anonymous": false,
      "inputs": [
        {
          "indexed": true,
          "internalType": "address",
          "name": "_newTradeIntegration",
          "type": "address"
        },
        {
          "indexed": false,
          "internalType": "address",
          "name": "_oldTradeIntegration",
          "type": "address"
        }
      ],
      "name": "MasterSwapperChanged",
      "type": "event"
    },
    {
      "anonymous": false,
      "inputs": [
        {
          "indexed": false,
          "internalType": "address",
          "name": "_oldPauseGuardian",
          "type": "address"
        },
        {
          "indexed": false,
          "internalType": "address",
          "name": "_newPauseGuardian",
          "type": "address"
        }
      ],
      "name": "NewPauseGuardian",
      "type": "event"
    },
    {
      "anonymous": false,
      "inputs": [
        {
          "indexed": true,
          "internalType": "address",
          "name": "previousOwner",
          "type": "address"
        },
        {
          "indexed": true,
          "internalType": "address",
          "name": "newOwner",
          "type": "address"
        }
      ],
      "name": "OwnershipTransferred",
      "type": "event"
    },
    {
      "anonymous": false,
      "inputs": [
        {
          "indexed": true,
          "internalType": "address",
          "name": "_priceOracle",
          "type": "address"
        },
        {
          "indexed": false,
          "internalType": "address",
          "name": "_oldPriceOracle",
          "type": "address"
        }
      ],
      "name": "PriceOracleChanged",
      "type": "event"
    },
    {
      "anonymous": false,
      "inputs": [
        {
          "indexed": true,
          "internalType": "address",
          "name": "_reserveAsset",
          "type": "address"
        }
      ],
      "name": "ReserveAssetAdded",
      "type": "event"
    },
    {
      "anonymous": false,
      "inputs": [
        {
          "indexed": true,
          "internalType": "address",
          "name": "_reserveAsset",
          "type": "address"
        }
      ],
      "name": "ReserveAssetRemoved",
      "type": "event"
    },
    {
      "anonymous": false,
      "inputs": [
        {
          "indexed": true,
          "internalType": "address",
          "name": "_rewardsDistributor",
          "type": "address"
        },
        {
          "indexed": false,
          "internalType": "address",
          "name": "_oldRewardsDistributor",
          "type": "address"
        }
      ],
      "name": "RewardsDistributorChanged",
      "type": "event"
    },
    {
      "anonymous": false,
      "inputs": [
        {
          "indexed": true,
          "internalType": "address",
          "name": "_strategyFactory",
          "type": "address"
        },
        {
          "indexed": false,
          "internalType": "address",
          "name": "_oldStrategyFactory",
          "type": "address"
        }
      ],
      "name": "StrategyFactoryEdited",
      "type": "event"
    },
    {
      "anonymous": false,
      "inputs": [
        {
          "indexed": true,
          "internalType": "address",
          "name": "_newStrategyNFT",
          "type": "address"
        },
        {
          "indexed": false,
          "internalType": "address",
          "name": "_oldStrategyNFT",
          "type": "address"
        }
      ],
      "name": "StrategyNFTChanged",
      "type": "event"
    },
    {
      "anonymous": false,
      "inputs": [
        {
          "indexed": false,
          "internalType": "address",
          "name": "_newTreasury",
          "type": "address"
        },
        {
          "indexed": false,
          "internalType": "address",
          "name": "_oldTreasury",
          "type": "address"
        }
      ],
      "name": "TreasuryChanged",
      "type": "event"
    },
    {
      "anonymous": false,
      "inputs": [
        {
          "indexed": true,
          "internalType": "address",
          "name": "_newUniswapFactory",
          "type": "address"
        },
        {
          "indexed": false,
          "internalType": "address",
          "name": "_oldUniswapFactory",
          "type": "address"
        }
      ],
      "name": "UniswapFactoryChanged",
      "type": "event"
    },
    {
      "inputs": [],
      "name": "MAX_OPERATIONS",
      "outputs": [
        {
          "internalType": "uint8",
          "name": "",
          "type": "uint8"
        }
      ],
      "stateMutability": "view",
      "type": "function"
    },
    {
      "inputs": [],
      "name": "WETH",
      "outputs": [
        {
          "internalType": "address",
          "name": "",
          "type": "address"
        }
      ],
      "stateMutability": "view",
      "type": "function"
    },
    {
      "inputs": [
        {
          "internalType": "address",
          "name": "_keeper",
          "type": "address"
        }
      ],
      "name": "addKeeper",
      "outputs": [],
      "stateMutability": "nonpayable",
      "type": "function"
    },
    {
      "inputs": [
        {
          "internalType": "address[]",
          "name": "_keepers",
          "type": "address[]"
        }
      ],
      "name": "addKeepers",
      "outputs": [],
      "stateMutability": "nonpayable",
      "type": "function"
    },
    {
      "inputs": [
        {
          "internalType": "address",
          "name": "_reserveAsset",
          "type": "address"
        }
      ],
      "name": "addReserveAsset",
      "outputs": [],
      "stateMutability": "nonpayable",
      "type": "function"
    },
    {
      "inputs": [],
      "name": "allowPublicGardens",
      "outputs": [
        {
          "internalType": "bool",
          "name": "",
          "type": "bool"
        }
      ],
      "stateMutability": "view",
      "type": "function"
    },
    {
      "inputs": [
        {
          "internalType": "address",
          "name": "",
          "type": "address"
        }
      ],
      "name": "assetWhitelist",
      "outputs": [
        {
          "internalType": "bool",
          "name": "",
          "type": "bool"
        }
      ],
      "stateMutability": "view",
      "type": "function"
    },
    {
      "inputs": [],
      "name": "bablMiningProgramEnabled",
      "outputs": [
        {
          "internalType": "bool",
          "name": "",
          "type": "bool"
        }
      ],
      "stateMutability": "view",
      "type": "function"
    },
    {
      "inputs": [
        {
          "internalType": "address",
          "name": "_reserveAsset",
          "type": "address"
        },
        {
          "internalType": "string",
          "name": "_name",
          "type": "string"
        },
        {
          "internalType": "string",
          "name": "_symbol",
          "type": "string"
        },
        {
          "internalType": "string",
          "name": "_tokenURI",
          "type": "string"
        },
        {
          "internalType": "uint256",
          "name": "_seed",
          "type": "uint256"
        },
        {
          "internalType": "uint256[]",
          "name": "_gardenParams",
          "type": "uint256[]"
        },
        {
          "internalType": "uint256",
          "name": "_initialContribution",
          "type": "uint256"
        },
        {
          "internalType": "bool[]",
          "name": "_publicGardenStrategistsStewards",
          "type": "bool[]"
        },
        {
          "internalType": "uint256[]",
          "name": "_profitSharing",
          "type": "uint256[]"
        }
      ],
      "name": "createGarden",
      "outputs": [
        {
          "internalType": "address",
          "name": "",
          "type": "address"
        }
      ],
      "stateMutability": "payable",
      "type": "function"
    },
    {
      "inputs": [
        {
          "internalType": "address",
          "name": "_newGardenFactory",
          "type": "address"
        }
      ],
      "name": "editGardenFactory",
      "outputs": [],
      "stateMutability": "nonpayable",
      "type": "function"
    },
    {
      "inputs": [
        {
          "internalType": "address",
          "name": "_newGardenNFT",
          "type": "address"
        }
      ],
      "name": "editGardenNFT",
      "outputs": [],
      "stateMutability": "nonpayable",
      "type": "function"
    },
    {
      "inputs": [
        {
          "internalType": "address",
          "name": "_gardenValuer",
          "type": "address"
        }
      ],
      "name": "editGardenValuer",
      "outputs": [],
      "stateMutability": "nonpayable",
      "type": "function"
    },
    {
      "inputs": [
        {
          "internalType": "address",
          "name": "_ishtarGate",
          "type": "address"
        }
      ],
      "name": "editIshtarGate",
      "outputs": [],
      "stateMutability": "nonpayable",
      "type": "function"
    },
    {
      "inputs": [
        {
          "internalType": "address",
          "name": "_reserve",
          "type": "address"
        },
        {
          "internalType": "uint256",
          "name": "_newMinLiquidityReserve",
          "type": "uint256"
        }
      ],
      "name": "editLiquidityReserve",
      "outputs": [],
      "stateMutability": "nonpayable",
      "type": "function"
    },
    {
      "inputs": [
        {
          "internalType": "address",
          "name": "_mardukGate",
          "type": "address"
        }
      ],
      "name": "editMardukGate",
      "outputs": [],
      "stateMutability": "nonpayable",
      "type": "function"
    },
    {
      "inputs": [
        {
          "internalType": "address",
          "name": "_priceOracle",
          "type": "address"
        }
      ],
      "name": "editPriceOracle",
      "outputs": [],
      "stateMutability": "nonpayable",
      "type": "function"
    },
    {
      "inputs": [
        {
          "internalType": "address",
          "name": "_newRewardsDistributor",
          "type": "address"
        }
      ],
      "name": "editRewardsDistributor",
      "outputs": [],
      "stateMutability": "nonpayable",
      "type": "function"
    },
    {
      "inputs": [
        {
          "internalType": "address",
          "name": "_newStrategyFactory",
          "type": "address"
        }
      ],
      "name": "editStrategyFactory",
      "outputs": [],
      "stateMutability": "nonpayable",
      "type": "function"
    },
    {
      "inputs": [
        {
          "internalType": "address",
          "name": "_newStrategyNFT",
          "type": "address"
        }
      ],
      "name": "editStrategyNFT",
      "outputs": [],
      "stateMutability": "nonpayable",
      "type": "function"
    },
    {
      "inputs": [
        {
          "internalType": "address",
          "name": "_newTreasury",
          "type": "address"
        }
      ],
      "name": "editTreasury",
      "outputs": [],
      "stateMutability": "nonpayable",
      "type": "function"
    },
    {
      "inputs": [],
      "name": "enableBABLMiningProgram",
      "outputs": [],
      "stateMutability": "nonpayable",
      "type": "function"
    },
    {
      "inputs": [],
      "name": "enableGardenTokensTransfers",
      "outputs": [],
      "stateMutability": "nonpayable",
      "type": "function"
    },
    {
      "inputs": [
        {
          "internalType": "uint256",
          "name": "",
          "type": "uint256"
        }
      ],
      "name": "enabledOperations",
      "outputs": [
        {
          "internalType": "address",
          "name": "",
          "type": "address"
        }
      ],
      "stateMutability": "view",
      "type": "function"
    },
    {
      "inputs": [],
      "name": "gardenCreationIsOpen",
      "outputs": [
        {
          "internalType": "bool",
          "name": "",
          "type": "bool"
        }
      ],
      "stateMutability": "view",
      "type": "function"
    },
    {
      "inputs": [],
      "name": "gardenFactory",
      "outputs": [
        {
          "internalType": "address",
          "name": "",
          "type": "address"
        }
      ],
      "stateMutability": "view",
      "type": "function"
    },
    {
      "inputs": [],
      "name": "gardenNFT",
      "outputs": [
        {
          "internalType": "address",
          "name": "",
          "type": "address"
        }
      ],
      "stateMutability": "view",
      "type": "function"
    },
    {
      "inputs": [],
      "name": "gardenTokensTransfersEnabled",
      "outputs": [
        {
          "internalType": "bool",
          "name": "",
          "type": "bool"
        }
      ],
      "stateMutability": "view",
      "type": "function"
    },
    {
      "inputs": [],
      "name": "gardenValuer",
      "outputs": [
        {
          "internalType": "address",
          "name": "",
          "type": "address"
        }
      ],
      "stateMutability": "view",
      "type": "function"
    },
    {
      "inputs": [
        {
          "internalType": "uint256",
          "name": "",
          "type": "uint256"
        }
      ],
      "name": "gardens",
      "outputs": [
        {
          "internalType": "address",
          "name": "",
          "type": "address"
        }
      ],
      "stateMutability": "view",
      "type": "function"
    },
    {
      "inputs": [],
      "name": "getGardens",
      "outputs": [
        {
          "internalType": "address[]",
          "name": "",
          "type": "address[]"
        }
      ],
      "stateMutability": "view",
      "type": "function"
    },
    {
      "inputs": [
        {
          "internalType": "uint256",
          "name": "_size",
          "type": "uint256"
        }
      ],
      "name": "getLiveStrategies",
      "outputs": [
        {
          "internalType": "address[]",
          "name": "",
          "type": "address[]"
        }
      ],
      "stateMutability": "view",
      "type": "function"
    },
    {
      "inputs": [],
      "name": "getOperations",
      "outputs": [
        {
          "internalType": "address[20]",
          "name": "",
          "type": "address[20]"
        }
      ],
      "stateMutability": "view",
      "type": "function"
    },
    {
      "inputs": [],
      "name": "getReserveAssets",
      "outputs": [
        {
          "internalType": "address[]",
          "name": "",
          "type": "address[]"
        }
      ],
      "stateMutability": "view",
      "type": "function"
    },
    {
      "inputs": [],
      "name": "guardian",
      "outputs": [
        {
          "internalType": "address",
          "name": "",
          "type": "address"
        }
      ],
      "stateMutability": "view",
      "type": "function"
    },
    {
      "inputs": [],
      "name": "guardianGlobalPaused",
      "outputs": [
        {
          "internalType": "bool",
          "name": "",
          "type": "bool"
        }
      ],
      "stateMutability": "view",
      "type": "function"
    },
    {
      "inputs": [
        {
          "internalType": "address",
          "name": "",
          "type": "address"
        }
      ],
      "name": "guardianPaused",
      "outputs": [
        {
          "internalType": "bool",
          "name": "",
          "type": "bool"
        }
      ],
      "stateMutability": "view",
      "type": "function"
    },
    {
      "inputs": [],
      "name": "initialize",
      "outputs": [],
      "stateMutability": "nonpayable",
      "type": "function"
    },
    {
      "inputs": [
        {
          "internalType": "address[]",
          "name": "_strategies",
          "type": "address[]"
        }
      ],
      "name": "isBetaStrategy",
      "outputs": [
        {
          "internalType": "bool[]",
          "name": "",
          "type": "bool[]"
        },
        {
          "internalType": "uint256[]",
          "name": "",
          "type": "uint256[]"
        }
      ],
      "stateMutability": "view",
      "type": "function"
    },
    {
      "inputs": [
        {
          "internalType": "address",
          "name": "",
          "type": "address"
        }
      ],
      "name": "isGarden",
      "outputs": [
        {
          "internalType": "bool",
          "name": "",
          "type": "bool"
        }
      ],
      "stateMutability": "view",
      "type": "function"
    },
    {
      "inputs": [
        {
          "internalType": "address",
          "name": "_contract",
          "type": "address"
        }
      ],
      "name": "isPaused",
      "outputs": [
        {
          "internalType": "bool",
          "name": "",
          "type": "bool"
        }
      ],
      "stateMutability": "view",
      "type": "function"
    },
    {
      "inputs": [
        {
          "internalType": "address",
          "name": "_contractAddress",
          "type": "address"
        }
      ],
      "name": "isSystemContract",
      "outputs": [
        {
          "internalType": "bool",
          "name": "",
          "type": "bool"
        }
      ],
      "stateMutability": "view",
      "type": "function"
    },
    {
      "inputs": [
        {
          "internalType": "address",
          "name": "_keeper",
          "type": "address"
        }
      ],
      "name": "isValidKeeper",
      "outputs": [
        {
          "internalType": "bool",
          "name": "",
          "type": "bool"
        }
      ],
      "stateMutability": "view",
      "type": "function"
    },
    {
      "inputs": [
        {
          "internalType": "address",
          "name": "_reserveAsset",
          "type": "address"
        }
      ],
      "name": "isValidReserveAsset",
      "outputs": [
        {
          "internalType": "bool",
          "name": "",
          "type": "bool"
        }
      ],
      "stateMutability": "view",
      "type": "function"
    },
    {
      "inputs": [],
      "name": "ishtarGate",
      "outputs": [
        {
          "internalType": "address",
          "name": "",
          "type": "address"
        }
      ],
      "stateMutability": "view",
      "type": "function"
    },
    {
      "inputs": [
        {
          "internalType": "address",
          "name": "",
          "type": "address"
        }
      ],
      "name": "keeperList",
      "outputs": [
        {
          "internalType": "bool",
          "name": "",
          "type": "bool"
        }
      ],
      "stateMutability": "view",
      "type": "function"
    },
    {
      "inputs": [],
      "name": "mardukGate",
      "outputs": [
        {
          "internalType": "address",
          "name": "",
          "type": "address"
        }
      ],
      "stateMutability": "view",
      "type": "function"
    },
    {
      "inputs": [],
      "name": "masterSwapper",
      "outputs": [
        {
          "internalType": "address",
          "name": "",
          "type": "address"
        }
      ],
      "stateMutability": "view",
      "type": "function"
    },
    {
      "inputs": [
        {
          "internalType": "address",
          "name": "",
          "type": "address"
        }
      ],
      "name": "minLiquidityPerReserve",
      "outputs": [
        {
          "internalType": "uint256",
          "name": "",
          "type": "uint256"
        }
      ],
      "stateMutability": "view",
      "type": "function"
    },
    {
      "inputs": [],
      "name": "openPublicGardenCreation",
      "outputs": [],
      "stateMutability": "nonpayable",
      "type": "function"
    },
    {
      "inputs": [],
      "name": "owner",
      "outputs": [
        {
          "internalType": "address",
          "name": "",
          "type": "address"
        }
      ],
      "stateMutability": "view",
      "type": "function"
    },
    {
      "inputs": [],
      "name": "priceOracle",
      "outputs": [
        {
          "internalType": "address",
          "name": "",
          "type": "address"
        }
      ],
      "stateMutability": "view",
      "type": "function"
    },
    {
      "inputs": [],
      "name": "protocolManagementFee",
      "outputs": [
        {
          "internalType": "uint256",
          "name": "",
          "type": "uint256"
        }
      ],
      "stateMutability": "view",
      "type": "function"
    },
    {
      "inputs": [],
      "name": "protocolPerformanceFee",
      "outputs": [
        {
          "internalType": "uint256",
          "name": "",
          "type": "uint256"
        }
      ],
      "stateMutability": "view",
      "type": "function"
    },
    {
      "inputs": [
        {
          "internalType": "address",
          "name": "_garden",
          "type": "address"
        }
      ],
      "name": "removeGarden",
      "outputs": [],
      "stateMutability": "nonpayable",
      "type": "function"
    },
    {
      "inputs": [
        {
          "internalType": "address",
          "name": "_keeper",
          "type": "address"
        }
      ],
      "name": "removeKeeper",
      "outputs": [],
      "stateMutability": "nonpayable",
      "type": "function"
    },
    {
      "inputs": [
        {
          "internalType": "address",
          "name": "_reserveAsset",
          "type": "address"
        }
      ],
      "name": "removeReserveAsset",
      "outputs": [],
      "stateMutability": "nonpayable",
      "type": "function"
    },
    {
      "inputs": [],
      "name": "renounceOwnership",
      "outputs": [],
      "stateMutability": "nonpayable",
      "type": "function"
    },
    {
      "inputs": [
        {
          "internalType": "uint256",
          "name": "",
          "type": "uint256"
        }
      ],
      "name": "reserveAssets",
      "outputs": [
        {
          "internalType": "address",
          "name": "",
          "type": "address"
        }
      ],
      "stateMutability": "view",
      "type": "function"
    },
    {
      "inputs": [],
      "name": "rewardsDistributor",
      "outputs": [
        {
          "internalType": "address",
          "name": "",
          "type": "address"
        }
      ],
      "stateMutability": "view",
      "type": "function"
    },
    {
      "inputs": [],
      "name": "setAllowPublicGardens",
      "outputs": [],
      "stateMutability": "nonpayable",
      "type": "function"
    },
    {
      "inputs": [
        {
          "internalType": "bool",
          "name": "_state",
          "type": "bool"
        }
      ],
      "name": "setGlobalPause",
      "outputs": [
        {
          "internalType": "bool",
          "name": "",
          "type": "bool"
        }
      ],
      "stateMutability": "nonpayable",
      "type": "function"
    },
    {
      "inputs": [
        {
          "internalType": "address",
          "name": "_newDefaultMasterSwapper",
          "type": "address"
        }
      ],
      "name": "setMasterSwapper",
      "outputs": [],
      "stateMutability": "nonpayable",
      "type": "function"
    },
    {
      "inputs": [
        {
          "internalType": "uint8",
          "name": "_kind",
          "type": "uint8"
        },
        {
          "internalType": "address",
          "name": "_operation",
          "type": "address"
        }
      ],
      "name": "setOperation",
      "outputs": [],
      "stateMutability": "nonpayable",
      "type": "function"
    },
    {
      "inputs": [
        {
          "internalType": "address",
          "name": "_guardian",
          "type": "address"
        }
      ],
      "name": "setPauseGuardian",
      "outputs": [],
      "stateMutability": "nonpayable",
      "type": "function"
    },
    {
      "inputs": [
        {
          "internalType": "address[]",
          "name": "_address",
          "type": "address[]"
        },
        {
          "internalType": "bool",
          "name": "_state",
          "type": "bool"
        }
      ],
      "name": "setSomePause",
      "outputs": [
        {
          "internalType": "bool",
          "name": "",
          "type": "bool"
        }
      ],
      "stateMutability": "nonpayable",
      "type": "function"
    },
    {
      "inputs": [],
      "name": "strategyFactory",
      "outputs": [
        {
          "internalType": "address",
          "name": "",
          "type": "address"
        }
      ],
      "stateMutability": "view",
      "type": "function"
    },
    {
      "inputs": [],
      "name": "strategyNFT",
      "outputs": [
        {
          "internalType": "address",
          "name": "",
          "type": "address"
        }
      ],
      "stateMutability": "view",
      "type": "function"
    },
    {
      "inputs": [
        {
          "internalType": "address",
          "name": "newOwner",
          "type": "address"
        }
      ],
      "name": "transferOwnership",
      "outputs": [],
      "stateMutability": "nonpayable",
      "type": "function"
    },
    {
      "inputs": [],
      "name": "treasury",
      "outputs": [
        {
          "internalType": "address",
          "name": "",
          "type": "address"
        }
      ],
      "stateMutability": "view",
      "type": "function"
    },
    {
      "inputs": [
        {
          "internalType": "address",
          "name": "",
          "type": "address"
        }
      ],
      "name": "validReserveAsset",
      "outputs": [
        {
          "internalType": "bool",
          "name": "",
          "type": "bool"
        }
      ],
      "stateMutability": "view",
      "type": "function"
    }
  ],
  "transactionHash": "0x092fbe1b474b875f48a06984481e5a9ffe919f0b9a1a6a509cb8bf3bef0ab9e0",
  "args": [],
  "solcInputHash": "9c9887941f2a1c4f5cf01389043c722e",
  "bytecode": "0x608060405234801561001057600080fd5b50615a5580620000216000396000f3fe6080604052600436106104655760003560e01c806362a4bf0511610243578063bc09228311610143578063dfaef58f116100bb578063f04ec5471161008a578063f2fde38b1161006f578063f2fde38b146113d7578063f948e50a1461140a578063f979cdd91461145857610465565b8063f04ec54714611371578063f05017eb146113a457610465565b8063dfaef58f146112e1578063e6e6051314611314578063e973f4e914611329578063ead4c1cf1461135c57610465565b8063c8ed947f11610112578063d276cbdc116100f7578063d276cbdc1461127b578063d6a45aa5146112b7578063daec2a1a146112cc57610465565b8063c8ed947f14611251578063d196f61f1461126657610465565b8063bc092283146111c1578063bc819ea6146111f4578063c2d38e7914611209578063c80aad631461123c57610465565b806388e8dc75116101d65780639ef35710116101a5578063ad9d791d1161018a578063ad9d791d14611128578063b0ecdf801461115b578063b82efd4f1461118e57610465565b80639ef35710146110fe578063ad5c46481461111357610465565b806388e8dc751461105357806389790429146110865780638da5cb5b146110bf5780639e18eb39146110d457610465565b80637f80e05b116102125780637f80e05b14610fc35780638129fc1c14610fd857806385d5d03614610fed578063867b6efa1461102057610465565b806362a4bf0514610f3a5780636968551314610f4f57806369a6b3db14610f82578063715018a614610fae57610465565b8063374c64e21161036957806348bde20c116102e1578063568c0813116102b05780635dc2803a116102955780635dc2803a14610ec75780635e192de614610ef257806361d027b314610f2557610465565b8063568c081314610e7f5780635b14f18314610e9457610465565b806348bde20c14610ad957806352aeec7714610b0c5780635616147214610b215780635618b5b214610e4c57610465565b80634032b72b116103385780634365a8a81161031d5780634365a8a814610948578063447a136614610a91578063452a932014610ac457610465565b80634032b72b146108e2578063411137c31461091557610465565b8063374c64e21461081457806337973e5f1461088e578063393bfe49146108b85780633f2a5540146108cd57610465565b806322c7fa8f116103fc57806330944c62116103cb578063314a83c9116103b0578063314a83c91461071c578063364d1181146107cc57806336c148b7146107ff57610465565b806330944c62146106e057806331375477146106f557610465565b806322c7fa8f1461066e5780632630c12f146106a157806327e4acc7146106b6578063294d237c146106cb57610465565b806316d9c0701161043857806316d9c070146105c957806317a25714146105fc57806318b9e25214610611578063201041981461064457610465565b80630306f6d21461046a5780630ebdb9a21461053057806313bc6d4b1461056157806314ae9f2e14610594575b600080fd5b34801561047657600080fd5b5061051c6004803603604081101561048d57600080fd5b8101906020810181356401000000008111156104a857600080fd5b8201836020820111156104ba57600080fd5b803590602001918460208302840111640100000000831117156104dc57600080fd5b919080806020026020016040519081016040528093929190818152602001838360200280828437600092019190915250929550505050351515905061148b565b604080519115158252519081900360200190f35b34801561053c57600080fd5b5061054561167e565b604080516001600160a01b039092168252519081900360200190f35b34801561056d57600080fd5b5061051c6004803603602081101561058457600080fd5b50356001600160a01b0316611692565b3480156105a057600080fd5b506105c7600480360360208110156105b757600080fd5b50356001600160a01b0316611a9b565b005b3480156105d557600080fd5b506105c7600480360360208110156105ec57600080fd5b50356001600160a01b0316611b8b565b34801561060857600080fd5b506105c7611d25565b34801561061d57600080fd5b506105c76004803603602081101561063457600080fd5b50356001600160a01b0316611d9a565b34801561065057600080fd5b506105456004803603602081101561066757600080fd5b503561208b565b34801561067a57600080fd5b506105c76004803603602081101561069157600080fd5b50356001600160a01b03166120ab565b3480156106ad57600080fd5b5061054561222b565b3480156106c257600080fd5b5061051c61223a565b3480156106d757600080fd5b50610545612243565b3480156106ec57600080fd5b5061051c612252565b34801561070157600080fd5b5061070a612260565b60408051918252519081900360200190f35b34801561072857600080fd5b506105c76004803603602081101561073f57600080fd5b81019060208101813564010000000081111561075a57600080fd5b82018360208201111561076c57600080fd5b8035906020019184602083028401116401000000008311171561078e57600080fd5b919080806020026020016040519081016040528093929190818152602001838360200280828437600092019190915250929550612266945050505050565b3480156107d857600080fd5b5061051c600480360360208110156107ef57600080fd5b50356001600160a01b0316612324565b34801561080b57600080fd5b506105c7612339565b34801561082057600080fd5b5061083e6004803603602081101561083757600080fd5b5035612402565b60408051602080825283518183015283519192839290830191858101910280838360005b8381101561087a578181015183820152602001610862565b505050509050019250505060405180910390f35b34801561089a57600080fd5b50610545600480360360208110156108b157600080fd5b50356126a0565b3480156108c457600080fd5b5061051c6126ca565b3480156108d957600080fd5b506105456126d3565b3480156108ee57600080fd5b506105c76004803603602081101561090557600080fd5b50356001600160a01b03166126e2565b34801561092157600080fd5b5061051c6004803603602081101561093857600080fd5b50356001600160a01b0316612768565b34801561095457600080fd5b506109f86004803603602081101561096b57600080fd5b81019060208101813564010000000081111561098657600080fd5b82018360208201111561099857600080fd5b803590602001918460208302840111640100000000831117156109ba57600080fd5b919080806020026020016040519081016040528093929190818152602001838360200280828437600092019190915250929550612786945050505050565b604051808060200180602001838103835285818151815260200191508051906020019060200280838360005b83811015610a3c578181015183820152602001610a24565b50505050905001838103825284818151815260200191508051906020019060200280838360005b83811015610a7b578181015183820152602001610a63565b5050505090500194505050505060405180910390f35b348015610a9d57600080fd5b5061051c60048036036020811015610ab457600080fd5b50356001600160a01b0316612cf6565b348015610ad057600080fd5b50610545612d0b565b348015610ae557600080fd5b506105c760048036036020811015610afc57600080fd5b50356001600160a01b0316612d1f565b348015610b1857600080fd5b506105c7612e8a565b6105456004803603610120811015610b3857600080fd5b6001600160a01b038235169190810190604081016020820135640100000000811115610b6357600080fd5b820183602082011115610b7557600080fd5b80359060200191846001830284011164010000000083111715610b9757600080fd5b91908080601f0160208091040260200160405190810160405280939291908181526020018383808284376000920191909152509295949360208101935035915050640100000000811115610bea57600080fd5b820183602082011115610bfc57600080fd5b80359060200191846001830284011164010000000083111715610c1e57600080fd5b91908080601f0160208091040260200160405190810160405280939291908181526020018383808284376000920191909152509295949360208101935035915050640100000000811115610c7157600080fd5b820183602082011115610c8357600080fd5b80359060200191846001830284011164010000000083111715610ca557600080fd5b91908080601f01602080910402602001604051908101604052809392919081815260200183838082843760009201919091525092958435959094909350604081019250602001359050640100000000811115610d0057600080fd5b820183602082011115610d1257600080fd5b80359060200191846020830284011164010000000083111715610d3457600080fd5b91939092823592604081019060200135640100000000811115610d5657600080fd5b820183602082011115610d6857600080fd5b80359060200191846020830284011164010000000083111715610d8a57600080fd5b9190808060200260200160405190810160405280939291908181526020018383602002808284376000920191909152509295949360208101935035915050640100000000811115610dda57600080fd5b820183602082011115610dec57600080fd5b80359060200191846020830284011164010000000083111715610e0e57600080fd5b919080806020026020016040519081016040528093929190818152602001838360200280828437600092019190915250929550612f84945050505050565b348015610e5857600080fd5b506105c760048036036020811015610e6f57600080fd5b50356001600160a01b0316613638565b348015610e8b57600080fd5b5061070a6137ad565b348015610ea057600080fd5b5061051c60048036036020811015610eb757600080fd5b50356001600160a01b03166137b3565b348015610ed357600080fd5b50610edc6137e1565b6040805160ff9092168252519081900360200190f35b348015610efe57600080fd5b5061051c60048036036020811015610f1557600080fd5b50356001600160a01b03166137e6565b348015610f3157600080fd5b506105456137fb565b348015610f4657600080fd5b5061051c61380a565b348015610f5b57600080fd5b506105c760048036036020811015610f7257600080fd5b50356001600160a01b0316613813565b348015610f8e57600080fd5b5061051c60048036036020811015610fa557600080fd5b50351515613925565b348015610fba57600080fd5b506105c7613a8f565b348015610fcf57600080fd5b5061051c613b3b565b348015610fe457600080fd5b506105c7613b4a565b348015610ff957600080fd5b506105c76004803603602081101561101057600080fd5b50356001600160a01b0316613b83565b34801561102c57600080fd5b506105c76004803603602081101561104357600080fd5b50356001600160a01b0316613c95565b34801561105f57600080fd5b506105c76004803603602081101561107657600080fd5b50356001600160a01b0316613daa565b34801561109257600080fd5b506105c7600480360360408110156110a957600080fd5b506001600160a01b038135169060200135613f42565b3480156110cb57600080fd5b506105456140ba565b3480156110e057600080fd5b50610545600480360360208110156110f757600080fd5b50356140c9565b34801561110a57600080fd5b506105456140d9565b34801561111f57600080fd5b506105456140e8565b34801561113457600080fd5b5061051c6004803603602081101561114b57600080fd5b50356001600160a01b0316614100565b34801561116757600080fd5b5061051c6004803603602081101561117e57600080fd5b50356001600160a01b0316614115565b34801561119a57600080fd5b506105c7600480360360208110156111b157600080fd5b50356001600160a01b031661412a565b3480156111cd57600080fd5b506105c7600480360360208110156111e457600080fd5b50356001600160a01b031661423b565b34801561120057600080fd5b5061083e6143b8565b34801561121557600080fd5b506105c76004803603602081101561122c57600080fd5b50356001600160a01b031661441a565b34801561124857600080fd5b50610545614597565b34801561125d57600080fd5b506105456145a6565b34801561127257600080fd5b506105c76145b5565b34801561128757600080fd5b506105c76004803603604081101561129e57600080fd5b50803560ff1690602001356001600160a01b0316614668565b3480156112c357600080fd5b50610545614861565b3480156112d857600080fd5b5061083e614870565b3480156112ed57600080fd5b506105c76004803603602081101561130457600080fd5b50356001600160a01b03166148d0565b34801561132057600080fd5b506105456149e2565b34801561133557600080fd5b506105c76004803603602081101561134c57600080fd5b50356001600160a01b03166149f1565b34801561136857600080fd5b50610545614b03565b34801561137d57600080fd5b506105c76004803603602081101561139457600080fd5b50356001600160a01b0316614b12565b3480156113b057600080fd5b5061070a600480360360208110156113c757600080fd5b50356001600160a01b0316614c6e565b3480156113e357600080fd5b506105c7600480360360208110156113fa57600080fd5b50356001600160a01b0316614c80565b34801561141657600080fd5b5061141f614d83565b604051808261028080838360005b8381101561144557818101518382015260200161142d565b5050505090500191505060405180910390f35b34801561146457600080fd5b5061051c6004803603602081101561147b57600080fd5b50356001600160a01b0316614dc3565b60995460009061010090046001600160a01b03163314806114c457506114af6140ba565b6001600160a01b0316336001600160a01b0316145b6114ff5760405162461bcd60e51b81526004018080602001828103825260348152602001806158b36034913960400191505060405180910390fd5b6115076140ba565b6001600160a01b0316336001600160a01b0316148061152857506001821515145b611579576040805162461bcd60e51b815260206004820152601660248201527f6f6e6c792061646d696e2063616e20756e706175736500000000000000000000604482015290519081900360640190fd5b60005b83518110156116735782609a600086848151811061159657fe5b60200260200101516001600160a01b03166001600160a01b0316815260200190815260200160002060006101000a81548160ff0219169083151502179055507f14fc4a89e124f9817afd6bc9b8270d50250d5ff6f0711b687f6fa4c34decf1cd84828151811061160257fe5b6020026020010151846040518080602001846001600160a01b031681526020018315158152602001828103825260198152602001807f477561726469616e20696e646976696475616c20706175736500000000000000815250602001935050505060405180910390a160010161157c565b508190505b92915050565b609b5461010090046001600160a01b031681565b6001600160a01b03811660009081526086602052604081205460ff16806116c657506068546001600160a01b038381169116145b806116de57506069546001600160a01b038381169116145b806116f65750606a546001600160a01b038381169116145b8061170e57506071546001600160a01b038381169116145b806117265750606d546001600160a01b038381169116145b8061173e5750606b546001600160a01b038381169116145b806117615750816001600160a01b03166117566140ba565b6001600160a01b0316145b8061177457506001600160a01b03821630145b80611783575061178382614de1565b8061190b575060866000836001600160a01b03166356ba88b86040518163ffffffff1660e01b815260040160206040518083038186803b1580156117c657600080fd5b505afa1580156117da573d6000803e3d6000fd5b505050506040513d60208110156117f057600080fd5b50516001600160a01b0316815260208101919091526040016000205460ff16801561190b5750816001600160a01b03166356ba88b86040518163ffffffff1660e01b815260040160206040518083038186803b15801561184f57600080fd5b505afa158015611863573d6000803e3d6000fd5b505050506040513d602081101561187957600080fd5b5051604080517f3a8219250000000000000000000000000000000000000000000000000000000081526001600160a01b03858116600483015291519190921691633a821925916024808301926020929190829003018186803b1580156118de57600080fd5b505afa1580156118f2573d6000803e3d6000fd5b505050506040513d602081101561190857600080fd5b50515b80611a93575060866000836001600160a01b03166356ba88b86040518163ffffffff1660e01b815260040160206040518083038186803b15801561194e57600080fd5b505afa158015611962573d6000803e3d6000fd5b505050506040513d602081101561197857600080fd5b50516001600160a01b0316815260208101919091526040016000205460ff168015611a935750816001600160a01b03166356ba88b86040518163ffffffff1660e01b815260040160206040518083038186803b1580156119d757600080fd5b505afa1580156119eb573d6000803e3d6000fd5b505050506040513d6020811015611a0157600080fd5b5051604080517f06061dfa0000000000000000000000000000000000000000000000000000000081526001600160a01b038581166004830152915191909216916306061dfa916024808301926020929190829003018186803b158015611a6657600080fd5b505afa158015611a7a573d6000803e3d6000fd5b505050506040513d6020811015611a9057600080fd5b50515b90505b919050565b611aa3614e31565b6001600160a01b0316611ab46140ba565b6001600160a01b031614611afd576040805162461bcd60e51b81526020600482018190526024820152600080516020615915833981519152604482015290519081900360640190fd5b6001600160a01b03811660009081526089602052604090205460ff16611b6a576040805162461bcd60e51b815260206004820152601560248201527f4b65657065722069732077686974656c69737465640000000000000000000000604482015290519081900360640190fd5b6001600160a01b03166000908152608960205260409020805460ff19169055565b611b93614e31565b6001600160a01b0316611ba46140ba565b6001600160a01b031614611bed576040805162461bcd60e51b81526020600482018190526024820152600080516020615915833981519152604482015290519081900360640190fd5b609b546001600160a01b03828116610100909204161415611c55576040805162461bcd60e51b815260206004820152601a60248201527f4d617264756b204761746520616c726561647920657869737473000000000000604482015290519081900360640190fd5b6001600160a01b038116611cb0576040805162461bcd60e51b815260206004820152601d60248201527f4d617264756b2047617465206f7261636c65206d757374206578697374000000604482015290519081900360640190fd5b609b80546001600160a01b0383811661010081810274ffffffffffffffffffffffffffffffffffffffff001985161790945560408051918252939092041660208201819052825190927f345fc59169aa2ad8a518c40e50702bc683495ac687515df9441cabc39eef54ff928290030190a15050565b611d2d614e31565b6001600160a01b0316611d3e6140ba565b6001600160a01b031614611d87576040805162461bcd60e51b81526020600482018190526024820152600080516020615915833981519152604482015290519081900360640190fd5b6093805462ff0000191662010000179055565b611da2614e31565b6001600160a01b0316611db36140ba565b6001600160a01b031614611dfc576040805162461bcd60e51b81526020600482018190526024820152600080516020615915833981519152604482015290519081900360640190fd5b6001600160a01b03811660009081526086602052604090205460ff16611e69576040805162461bcd60e51b815260206004820152601560248201527f47617264656e20646f6573206e6f742065786973740000000000000000000000604482015290519081900360640190fd5b806001600160a01b031663b49a60bb6040518163ffffffff1660e01b815260040160006040518083038186803b158015611ea257600080fd5b505afa158015611eb6573d6000803e3d6000fd5b505050506040513d6000823e601f3d908101601f191682016040526020811015611edf57600080fd5b8101908080516040519392919084640100000000821115611eff57600080fd5b908301906020820185811115611f1457600080fd5b8251866020820283011164010000000082111715611f3157600080fd5b82525081516020918201928201910280838360005b83811015611f5e578181015183820152602001611f46565b5050505090500160405250505051600014611fc0576040805162461bcd60e51b815260206004820152601d60248201527f47617264656e2068617320616374697665207374726174656769657321000000604482015290519081900360640190fd5b61202d81606580548060200260200160405190810160405280929190818152602001828054801561201a57602002820191906000526020600020905b81546001600160a01b03168152600190910190602001808311611ffc575b5050505050614e3590919063ffffffff16565b80516120419160659160209091019061579d565b506001600160a01b038116600081815260866020526040808220805460ff19169055517fb52dedfe431c6250e847edee5dca0a14cfaad5c6626218f99bd60c8ad9939a9f9190a250565b6072816014811061209b57600080fd5b01546001600160a01b0316905081565b6120b3614e31565b6001600160a01b03166120c46140ba565b6001600160a01b03161461210d576040805162461bcd60e51b81526020600482018190526024820152600080516020615915833981519152604482015290519081900360640190fd5b606c546001600160a01b0382811691161415612170576040805162461bcd60e51b815260206004820152601a60248201527f497368746172204761746520616c726561647920657869737473000000000000604482015290519081900360640190fd5b6001600160a01b0381166121cb576040805162461bcd60e51b815260206004820152601d60248201527f4973687461722047617465206f7261636c65206d757374206578697374000000604482015290519081900360640190fd5b606c80546001600160a01b038381166001600160a01b03198316811790935560408051938452911660208301819052815190927f9d8291abf2224012a00e3e6cb815777395423c95684705c6a799205e926f38d492908290030190a15050565b6069546001600160a01b031681565b60995460ff1681565b6068546001600160a01b031681565b609354610100900460ff1681565b60955481565b61226e614e31565b6001600160a01b031661227f6140ba565b6001600160a01b0316146122c8576040805162461bcd60e51b81526020600482018190526024820152600080516020615915833981519152604482015290519081900360640190fd5b60005b8151811015612320576001608960008484815181106122e657fe5b6020908102919091018101516001600160a01b03168252810191909152604001600020805460ff19169115159190911790556001016122cb565b5050565b60866020526000908152604090205460ff1681565b612341614e31565b6001600160a01b03166123526140ba565b6001600160a01b03161461239b576040805162461bcd60e51b81526020600482018190526024820152600080516020615915833981519152604482015290519081900360640190fd5b6361d00a0042116123f3576040805162461bcd60e51b815260206004820152601f60248201527f5472616e73666572732063616e6e6f7420626520656e61626c65642079657400604482015290519081900360640190fd5b6093805460ff19166001179055565b60606000808367ffffffffffffffff8111801561241e57600080fd5b50604051908082528060200260200182016040528015612448578160200160208202803683370190505b50905060005b6065548110156126985760006065828154811061246757fe5b6000918252602082200154604080517fb49a60bb00000000000000000000000000000000000000000000000000000000815290516001600160a01b039092169263b49a60bb92600480840193829003018186803b1580156124c757600080fd5b505afa1580156124db573d6000803e3d6000fd5b505050506040513d6000823e601f3d908101601f19168201604052602081101561250457600080fd5b810190808051604051939291908464010000000082111561252457600080fd5b90830190602082018581111561253957600080fd5b825186602082028301116401000000008211171561255657600080fd5b82525081516020918201928201910280838360005b8381101561258357818101518382015260200161256b565b5050505090500160405250505090508051600014156125a25750612690565b60005b815181101561267f578181815181106125ba57fe5b60200260200101516001600160a01b031663e4df5e1a6040518163ffffffff1660e01b815260040160206040518083038186803b1580156125fa57600080fd5b505afa15801561260e573d6000803e3d6000fd5b505050506040513d602081101561262457600080fd5b50511561266a5781818151811061263757fe5b602002602001015184868151811061264b57fe5b6001600160a01b03909216602092830291909101909101526001909401935b868514156126775761267f565b6001016125a5565b508584141561268e5750612698565b505b60010161244e565b509392505050565b606681815481106126b057600080fd5b6000918252602090912001546001600160a01b0316905081565b60935460ff1681565b606b546001600160a01b031681565b6126ea614e31565b6001600160a01b03166126fb6140ba565b6001600160a01b031614612744576040805162461bcd60e51b81526020600482018190526024820152600080516020615915833981519152604482015290519081900360640190fd5b6001600160a01b03166000908152608960205260409020805460ff19166001179055565b6001600160a01b031660009081526089602052604090205460ff1690565b6060806000835167ffffffffffffffff811180156127a357600080fd5b506040519080825280602002602001820160405280156127cd578160200160208202803683370190505b5090506000845167ffffffffffffffff811180156127ea57600080fd5b50604051908082528060200260200182016040528015612814578160200160208202803683370190505b5090506000606b60009054906101000a90046001600160a01b03166001600160a01b031663ddaa26ad6040518163ffffffff1660e01b815260040160206040518083038186803b15801561286757600080fd5b505afa15801561287b573d6000803e3d6000fd5b505050506040513d602081101561289157600080fd5b5051905060005b8651811015612ce95760006001600160a01b03168782815181106128b857fe5b60200260200101516001600160a01b0316141561291c576040805162461bcd60e51b815260206004820152601360248201527f6e6f7420612076616c6964206164647265737300000000000000000000000000604482015290519081900360640190fd5b600087828151811061292a57fe5b60200260200101516001600160a01b03166356ba88b86040518163ffffffff1660e01b815260040160206040518083038186803b15801561296a57600080fd5b505afa15801561297e573d6000803e3d6000fd5b505050506040513d602081101561299457600080fd5b50516001600160a01b03811660009081526086602052604090205490915060ff168015612a495750806001600160a01b03166306061dfa8984815181106129d757fe5b60200260200101516040518263ffffffff1660e01b815260040180826001600160a01b0316815260200191505060206040518083038186803b158015612a1c57600080fd5b505afa158015612a30573d6000803e3d6000fd5b505050506040513d6020811015612a4657600080fd5b50515b612a9a576040805162461bcd60e51b815260206004820152601760248201527f6e6f7420612070726f746f636f6c207374726174656779000000000000000000604482015290519081900360640190fd5b604080516002808252606082018352600092602083019080368337019050509050888381518110612ac757fe5b60200260200101516001600160a01b031663bf1dcfe26040518163ffffffff1660e01b815260040160e06040518083038186803b158015612b0757600080fd5b505afa158015612b1b573d6000803e3d6000fd5b505050506040513d60e0811015612b3157600080fd5b50608081015160c09091015182518390600090612b4a57fe5b6020026020010183600181518110612b5e57fe5b60200260200101828152508281525050508381600081518110612b7d57fe5b6020026020010151108015612ba557508381600181518110612b9b57fe5b6020026020010151105b8015612c255750888381518110612bb857fe5b60200260200101516001600160a01b031663e4df5e1a6040518163ffffffff1660e01b815260040160206040518083038186803b158015612bf857600080fd5b505afa158015612c0c573d6000803e3d6000fd5b505050506040513d6020811015612c2257600080fd5b50515b8015612c3057508315155b858481518110612c3c57fe5b602002602001019015159081151581525050888381518110612c5a57fe5b60200260200101516001600160a01b03166303cddb2c6040518163ffffffff1660e01b815260040160206040518083038186803b158015612c9a57600080fd5b505afa158015612cae573d6000803e3d6000fd5b505050506040513d6020811015612cc457600080fd5b50518651879085908110612cd457fe5b60209081029190910101525050600101612898565b5090935090915050915091565b609a6020526000908152604090205460ff1681565b60995461010090046001600160a01b031681565b60995461010090046001600160a01b0316331480612d555750612d406140ba565b6001600160a01b0316336001600160a01b0316145b612d905760405162461bcd60e51b81526004018080602001828103825260378152602001806159356037913960400191505060405180910390fd5b612d986140ba565b6001600160a01b0316336001600160a01b03161480612dbf57506001600160a01b03811615155b612e10576040805162461bcd60e51b815260206004820152601e60248201527f477561726469616e2063616e6e6f742072656d6f76652068696d73656c660000604482015290519081900360640190fd5b609980546001600160a01b0383811661010081810274ffffffffffffffffffffffffffffffffffffffff00198516179094556040805194909304919091168084526020840191909152815190927f0613b6ee6a04f0d09f390e4d9318894b9f6ac7fd83897cd8d18896ba579c401e92908290030190a15050565b612e92614e31565b6001600160a01b0316612ea36140ba565b6001600160a01b031614612eec576040805162461bcd60e51b81526020600482018190526024820152600080516020615915833981519152604482015290519081900360640190fd5b609354610100900460ff16612f82576093805461ff001916610100179055606b54604080517f79fc904f00000000000000000000000000000000000000000000000000000000815290516001600160a01b03909216916379fc904f9160048082019260009290919082900301818387803b158015612f6957600080fd5b505af1158015612f7d573d6000803e3d6000fd5b505050505b565b6071546000906001600160a01b0316612fe4576040805162461bcd60e51b815260206004820181905260248201527f4e65656420612064656661756c7420747261646520696e746567726174696f6e604482015290519081900360640190fd5b609b54604080517f7804a5dc00000000000000000000000000000000000000000000000000000000815233600482015290516101009092046001600160a01b031691637804a5dc91602480820192602092909190829003018186803b15801561304c57600080fd5b505afa158015613060573d6000803e3d6000fd5b505050506040513d602081101561307657600080fd5b505180613085575060995460ff165b6130c05760405162461bcd60e51b81526004018080602001828103825260278152602001806159966027913960400191505060405180910390fd5b6000606a60009054906101000a90046001600160a01b03166001600160a01b0316638853932d8d338e8e8e8e8e8e8e8e6040518b63ffffffff1660e01b8152600401808b6001600160a01b031681526020018a6001600160a01b03168152602001806020018060200180602001898152602001806020018781526020018060200186810386528e818151815260200191508051906020019080838360005b8381101561317657818101518382015260200161315e565b50505050905090810190601f1680156131a35780820380516001836020036101000a031916815260200191505b5086810385528d5181528d516020918201918f019080838360005b838110156131d65781810151838201526020016131be565b50505050905090810190601f1680156132035780820380516001836020036101000a031916815260200191505b5086810384528c5181528c516020918201918e019080838360005b8381101561323657818101518382015260200161321e565b50505050905090810190601f1680156132635780820380516001836020036101000a031916815260200191505b5086810383528a8a828181526020019250602002808284376000838201819052601f909101601f19169092018881038452895181528951602091820193828c0193509102908190849084905b838110156132c75781810151838201526020016132af565b505050509050019f50505050505050505050505050505050602060405180830381600087803b1580156132f957600080fd5b505af115801561330d573d6000803e3d6000fd5b505050506040513d602081101561332357600080fd5b505190506001600160a01b038c1673c02aaa39b223fe8d0a0e5c4f27ead9083c756cc2141580613351575034155b1561337f5761336b6001600160a01b038d16333088614eb2565b61337f6001600160a01b038d168287614f3a565b6001600160a01b03811660009081526086602052604090205460ff16156133ed576040805162461bcd60e51b815260206004820152601560248201527f47617264656e20616c7265616479206578697374730000000000000000000000604482015290519081900360640190fd5b6001600160a01b038116600081815260866020526040808220805460ff191660019081179091556065805480830182559084527f8ff97419363ffd7000167f130ef7168fbea05faf9251824ca5043f113cc6a7c70180546001600160a01b0319168517905581517f695f3f5d000000000000000000000000000000000000000000000000000000008152600481018a9052602481018a90523360448201526064810191909152905163695f3f5d9234926084808201939182900301818588803b1580156134b957600080fd5b505af11580156134cd573d6000803e3d6000fd5b5050505050826000815181106134df57fe5b6020026020010151600014158061350b5750826001815181106134fe57fe5b6020026020010151600014155b8061352b57508260028151811061351e57fe5b6020026020010151600014155b156135f357606b5483516001600160a01b03909116906380334dbe908390869060009061355457fe5b60200260200101518660018151811061356957fe5b60200260200101518760028151811061357e57fe5b60200260200101516040518563ffffffff1660e01b815260040180856001600160a01b03168152602001848152602001838152602001828152602001945050505050600060405180830381600087803b1580156135da57600080fd5b505af11580156135ee573d6000803e3d6000fd5b505050505b60405133906001600160a01b038316907f3f9c315348eaae54d760380967a68b458af53312321328f584799f93283dc1de90600090a39b9a5050505050505050505050565b613640614e31565b6001600160a01b03166136516140ba565b6001600160a01b03161461369a576040805162461bcd60e51b81526020600482018190526024820152600080516020615915833981519152604482015290519081900360640190fd5b6001600160a01b0381166136ed576040805162461bcd60e51b8152602060048201526015602482015274041646472657373206d757374206e6f74206265203605c1b604482015290519081900360640190fd5b6071546001600160a01b0382811691161415613750576040805162461bcd60e51b815260206004820152601960248201527f41646472657373206d75737420626520646966666572656e7400000000000000604482015290519081900360640190fd5b607180546001600160a01b038381166001600160a01b031983168117909355604080519190921680825291519192917fdc1fc9970870c3bb1ad5fce4186165c260c6492487c580adc8b8e361055ac9889181900360200190a25050565b60945481565b609b5460009060ff1680611a935750506001600160a01b03166000908152609a602052604090205460ff1690565b601481565b60896020526000908152604090205460ff1681565b608b546001600160a01b031681565b609b5460ff1681565b61381b614e31565b6001600160a01b031661382c6140ba565b6001600160a01b031614613875576040805162461bcd60e51b81526020600482018190526024820152600080516020615915833981519152604482015290519081900360640190fd5b6001600160a01b0381166138c8576040805162461bcd60e51b8152602060048201526015602482015274041646472657373206d757374206e6f74206265203605c1b604482015290519081900360640190fd5b606d80546001600160a01b038381166001600160a01b031983168117909355604080519190921680825291519192917f57c1ea229271e944c7d975557caf535c1c974708de760613121827217db4ce8f9181900360200190a25050565b60995460009061010090046001600160a01b031633148061395e57506139496140ba565b6001600160a01b0316336001600160a01b0316145b6139995760405162461bcd60e51b815260040180806020018281038252603081526020018061585d6030913960400191505060405180910390fd5b6139a16140ba565b6001600160a01b0316336001600160a01b031614806139c257506001821515145b613a13576040805162461bcd60e51b815260206004820152601660248201527f6f6e6c792061646d696e2063616e20756e706175736500000000000000000000604482015290519081900360640190fd5b609b805483151560ff1990911681179091556040805160208101929092528082526015828201527f477561726469616e20676c6f62616c20706175736500000000000000000000006060830152517fef159d9a32b2472e32b098f954f3ce62d232939f1c207070b584df1814de2de09181900360800190a15090565b613a97614e31565b6001600160a01b0316613aa86140ba565b6001600160a01b031614613af1576040805162461bcd60e51b81526020600482018190526024820152600080516020615915833981519152604482015290519081900360640190fd5b6033546040516000916001600160a01b0316907f8be0079c531659141344cd1fd0a4f28419497f9722a3daafe3b4186f6b6457e0908390a3603380546001600160a01b0319169055565b60935462010000900460ff1681565b613b52615099565b6611c37937e0800060955566b1a2bc2ec500006094556000609681905560975560646098556099805460ff19169055565b613b8b614e31565b6001600160a01b0316613b9c6140ba565b6001600160a01b031614613be5576040805162461bcd60e51b81526020600482018190526024820152600080516020615915833981519152604482015290519081900360640190fd5b6001600160a01b038116613c38576040805162461bcd60e51b8152602060048201526015602482015274041646472657373206d757374206e6f74206265203605c1b604482015290519081900360640190fd5b606b80546001600160a01b038381166001600160a01b031983168117909355604080519190921680825291519192917f52cd8e0a7f86e9df123b3357ab2ee1c4cd0f5ac84ca8c98d93beb2679b2bb8069181900360200190a25050565b613c9d614e31565b6001600160a01b0316613cae6140ba565b6001600160a01b031614613cf7576040805162461bcd60e51b81526020600482018190526024820152600080516020615915833981519152604482015290519081900360640190fd5b6001600160a01b038116613d4a576040805162461bcd60e51b8152602060048201526015602482015274041646472657373206d757374206e6f74206265203605c1b604482015290519081900360640190fd5b608b80546001600160a01b038381166001600160a01b03198316811790935560408051938452911660208301819052815190927f8c3aa5f43a388513435861bf27dfad7829cd248696fed367c62d441f6295449692908290030190a15050565b613db2614e31565b6001600160a01b0316613dc36140ba565b6001600160a01b031614613e0c576040805162461bcd60e51b81526020600482018190526024820152600080516020615915833981519152604482015290519081900360640190fd5b6001600160a01b03811660009081526087602052604090205460ff16613e79576040805162461bcd60e51b815260206004820152601c60248201527f5265736572766520617373657420646f6573206e6f7420657869737400000000604482015290519081900360640190fd5b613ee481606680548060200260200160405190810160405280929190818152602001828054801561201a576020028201919060005260206000209081546001600160a01b03168152600190910190602001808311611ffc575050505050614e3590919063ffffffff16565b8051613ef89160669160209091019061579d565b506001600160a01b038116600081815260876020526040808220805460ff19169055517f2a4ae73bc76175e864e83c9843f11cf15a1bfcfa73152fb96d133416efee48ed9190a250565b613f4a614e31565b6001600160a01b0316613f5b6140ba565b6001600160a01b031614613fa4576040805162461bcd60e51b81526020600482018190526024820152600080516020615915833981519152604482015290519081900360640190fd5b60008111613ff9576040805162461bcd60e51b815260206004820152601d60248201527f5f6d696e5269736b79506169724c6971756964697479457468203e2030000000604482015290519081900360640190fd5b6001600160a01b03821660009081526087602052604090205460ff16614066576040805162461bcd60e51b815260206004820152601b60248201527f4e6565647320746f20626520612076616c696420726573657276650000000000604482015290519081900360640190fd5b6001600160a01b0382166000818152608a6020908152604091829020849055815184815291517fb78c51bc9bffa228585b84c38a0234fe0a48eb7aeb9f7a6a7a46f0ddd3270dd59281900390910190a25050565b60006140c461514b565b905090565b606581815481106126b057600080fd5b606d546001600160a01b031681565b73c02aaa39b223fe8d0a0e5c4f27ead9083c756cc281565b60886020526000908152604090205460ff1681565b60876020526000908152604090205460ff1681565b614132614e31565b6001600160a01b03166141436140ba565b6001600160a01b03161461418c576040805162461bcd60e51b81526020600482018190526024820152600080516020615915833981519152604482015290519081900360640190fd5b6001600160a01b0381166141df576040805162461bcd60e51b8152602060048201526015602482015274041646472657373206d757374206e6f74206265203605c1b604482015290519081900360640190fd5b606f80546001600160a01b038381166001600160a01b031983168117909355604080519190921680825291519192917e40167ea3901ef812c672b081813db3c0fc117c302ace151f1f9a907906e1669181900360200190a25050565b614243614e31565b6001600160a01b03166142546140ba565b6001600160a01b03161461429d576040805162461bcd60e51b81526020600482018190526024820152600080516020615915833981519152604482015290519081900360640190fd5b6068546001600160a01b0382811691161415614300576040805162461bcd60e51b815260206004820152601c60248201527f47617264656e2056616c75657220616c72656164792065786973747300000000604482015290519081900360640190fd5b6001600160a01b03811661435b576040805162461bcd60e51b815260206004820152601860248201527f47617264656e2056616c756572206d7573742065786973740000000000000000604482015290519081900360640190fd5b606880546001600160a01b038381166001600160a01b031983168117909355604080519190921680825291519192917fb89b871cab0fe1b2d8c7cc3e16640ef9a9bf67f031e44947331820e025bf69479181900360200190a25050565b6060606680548060200260200160405190810160405280929190818152602001828054801561441057602002820191906000526020600020905b81546001600160a01b031681526001909101906020018083116143f2575b5050505050905090565b614422614e31565b6001600160a01b03166144336140ba565b6001600160a01b03161461447c576040805162461bcd60e51b81526020600482018190526024820152600080516020615915833981519152604482015290519081900360640190fd5b6069546001600160a01b03828116911614156144df576040805162461bcd60e51b815260206004820152601b60248201527f5072696365206f7261636c6520616c7265616479206578697374730000000000604482015290519081900360640190fd5b6001600160a01b03811661453a576040805162461bcd60e51b815260206004820152601760248201527f5072696365206f7261636c65206d757374206578697374000000000000000000604482015290519081900360640190fd5b606980546001600160a01b038381166001600160a01b031983168117909355604080519190921680825291519192917f40bddd72ea96b80dae14e3d13e8ce2c4ecd2500d88c6c0004d24a00deab28f9c9181900360200190a25050565b606a546001600160a01b031681565b606c546001600160a01b031681565b6145bd614e31565b6001600160a01b03166145ce6140ba565b6001600160a01b031614614617576040805162461bcd60e51b81526020600482018190526024820152600080516020615915833981519152604482015290519081900360640190fd5b60995460ff16156146595760405162461bcd60e51b815260040180806020018281038252602d8152602001806159f3602d913960400191505060405180910390fd5b6099805460ff19166001179055565b614670614e31565b6001600160a01b03166146816140ba565b6001600160a01b0316146146ca576040805162461bcd60e51b81526020600482018190526024820152600080516020615915833981519152604482015290519081900360640190fd5b601460ff831610614722576040805162461bcd60e51b815260206004820152601660248201527f4d6178206f7065726174696f6e73207265616368656400000000000000000000604482015290519081900360640190fd5b806001600160a01b031660728360ff166014811061473c57fe5b01546001600160a01b0316141561479a576040805162461bcd60e51b815260206004820152601560248201527f4f7065726174696f6e20616c7265616479207365740000000000000000000000604482015290519081900360640190fd5b6001600160a01b0381166147f5576040805162461bcd60e51b815260206004820152601d60248201527f4f7065726174696f6e2061646472657373206d7573742065786973742e000000604482015290519081900360640190fd5b8060728360ff166014811061480657fe5b0180546001600160a01b039283166001600160a01b03199091161790556040805191831682525160ff8416917f2dc23b4bb2132388a8a9f2d4a7ec650d42dcd4c1c63e6495756fa25e8ecc6abd919081900360200190a25050565b606f546001600160a01b031681565b60606065805480602002602001604051908101604052809291908181526020018280548015614410576020028201919060005260206000209081546001600160a01b031681526001909101906020018083116143f2575050505050905090565b6148d8614e31565b6001600160a01b03166148e96140ba565b6001600160a01b031614614932576040805162461bcd60e51b81526020600482018190526024820152600080516020615915833981519152604482015290519081900360640190fd5b6001600160a01b038116614985576040805162461bcd60e51b8152602060048201526015602482015274041646472657373206d757374206e6f74206265203605c1b604482015290519081900360640190fd5b606e80546001600160a01b038381166001600160a01b031983168117909355604080519190921680825291519192917f578086cc379999d712cf9ea4c177a02b092c028a84cf82d2dd590f2606b3169f9181900360200190a25050565b6071546001600160a01b031681565b6149f9614e31565b6001600160a01b0316614a0a6140ba565b6001600160a01b031614614a53576040805162461bcd60e51b81526020600482018190526024820152600080516020615915833981519152604482015290519081900360640190fd5b6001600160a01b038116614aa6576040805162461bcd60e51b8152602060048201526015602482015274041646472657373206d757374206e6f74206265203605c1b604482015290519081900360640190fd5b606a80546001600160a01b038381166001600160a01b031983168117909355604080519190921680825291519192917f1e3307b8b00f4ec731298a869e9665a2662abd65a0e3fe9dd01fd53c35b0ae939181900360200190a25050565b606e546001600160a01b031681565b614b1a614e31565b6001600160a01b0316614b2b6140ba565b6001600160a01b031614614b74576040805162461bcd60e51b81526020600482018190526024820152600080516020615915833981519152604482015290519081900360640190fd5b6001600160a01b03811660009081526087602052604090205460ff1615614be2576040805162461bcd60e51b815260206004820152601b60248201527f5265736572766520617373657420616c72656164792061646465640000000000604482015290519081900360640190fd5b6001600160a01b038116600081815260876020526040808220805460ff1916600190811790915560668054918201815583527f46501879b8ca8525e8c2fd519e2fbfcfa2ebea26501294aa02cbfcfb12e943540180546001600160a01b03191684179055517f9fef46e320a4767c320315d2f597ee79c1e17c3c3330d026764d6a7dac8fcd5c9190a250565b608a6020526000908152604090205481565b614c88614e31565b6001600160a01b0316614c996140ba565b6001600160a01b031614614ce2576040805162461bcd60e51b81526020600482018190526024820152600080516020615915833981519152604482015290519081900360640190fd5b6001600160a01b038116614d275760405162461bcd60e51b81526004018080602001828103825260268152602001806158376026913960400191505060405180910390fd5b6033546040516001600160a01b038084169216907f8be0079c531659141344cd1fd0a4f28419497f9722a3daafe3b4186f6b6457e090600090a3603380546001600160a01b0319166001600160a01b0392909216919091179055565b614d8b615802565b60408051610280810191829052607280546001600160a01b0316825290916014906073602085018083116143f2575050505050905090565b6001600160a01b031660009081526087602052604090205460ff1690565b6000805b601460ff82161015614e285760728160ff1660148110614e0157fe5b01546001600160a01b0384811691161415614e20576001915050611a96565b600101614de5565b50600092915050565b3390565b6060600080614e44858561515a565b9150915080614e9a576040805162461bcd60e51b815260206004820152601560248201527f41646472657373206e6f7420696e2061727261792e0000000000000000000000604482015290519081900360640190fd5b6000614ea686846151c0565b50935061167892505050565b604080516001600160a01b0380861660248301528416604482015260648082018490528251808303909101815260849091019091526020810180517bffffffffffffffffffffffffffffffffffffffffffffffffffffffff167f23b872dd00000000000000000000000000000000000000000000000000000000179052612f7d908590615324565b801580614fd95750604080517fdd62ed3e0000000000000000000000000000000000000000000000000000000081523060048201526001600160a01b03848116602483015291519185169163dd62ed3e91604480820192602092909190829003018186803b158015614fab57600080fd5b505afa158015614fbf573d6000803e3d6000fd5b505050506040513d6020811015614fd557600080fd5b5051155b6150145760405162461bcd60e51b81526004018080602001828103825260368152602001806159bd6036913960400191505060405180910390fd5b604080516001600160a01b038416602482015260448082018490528251808303909101815260649091019091526020810180517bffffffffffffffffffffffffffffffffffffffffffffffffffffffff167f095ea7b300000000000000000000000000000000000000000000000000000000179052615094908490615324565b505050565b600054610100900460ff16806150b257506150b26153d5565b806150c0575060005460ff16155b6150fb5760405162461bcd60e51b815260040180806020018281038252602e8152602001806158e7602e913960400191505060405180910390fd5b600054610100900460ff16158015615126576000805460ff1961ff0019909116610100171660011790555b61512e6153e6565b615136615486565b8015615148576000805461ff00191690555b50565b6033546001600160a01b031690565b81516000908190815b818110156151ad57846001600160a01b031686828151811061518157fe5b60200260200101516001600160a01b031614156151a5579250600191506151b99050565b600101615163565b50600019600092509250505b9250929050565b815160609060009080841061521c576040805162461bcd60e51b815260206004820152601860248201527f496e646578206d757374206265203c2041206c656e6774680000000000000000604482015290519081900360640190fd5b60006001820367ffffffffffffffff8111801561523857600080fd5b50604051908082528060200260200182016040528015615262578160200160208202803683370190505b50905060005b858110156152b05786818151811061527c57fe5b602002602001015182828151811061529057fe5b6001600160a01b0390921660209283029190910190910152600101615268565b50600185015b82811015615301578681815181106152ca57fe5b60200260200101518260018303815181106152e157fe5b6001600160a01b03909216602092830291909101909101526001016152b6565b508086868151811061530f57fe5b60200260200101519350935050509250929050565b6000615379826040518060400160405280602081526020017f5361666545524332303a206c6f772d6c6576656c2063616c6c206661696c6564815250856001600160a01b031661557f9092919063ffffffff16565b8051909150156150945780806020019051602081101561539857600080fd5b50516150945760405162461bcd60e51b815260040180806020018281038252602a81526020018061596c602a913960400191505060405180910390fd5b60006153e030615598565b15905090565b600054610100900460ff16806153ff57506153ff6153d5565b8061540d575060005460ff16155b6154485760405162461bcd60e51b815260040180806020018281038252602e8152602001806158e7602e913960400191505060405180910390fd5b600054610100900460ff16158015615136576000805460ff1961ff0019909116610100171660011790558015615148576000805461ff001916905550565b600054610100900460ff168061549f575061549f6153d5565b806154ad575060005460ff16155b6154e85760405162461bcd60e51b815260040180806020018281038252602e8152602001806158e7602e913960400191505060405180910390fd5b600054610100900460ff16158015615513576000805460ff1961ff0019909116610100171660011790555b600061551d614e31565b603380546001600160a01b0319166001600160a01b038316908117909155604051919250906000907f8be0079c531659141344cd1fd0a4f28419497f9722a3daafe3b4186f6b6457e0908290a3508015615148576000805461ff001916905550565b606061558e848460008561559e565b90505b9392505050565b3b151590565b6060824710156155df5760405162461bcd60e51b815260040180806020018281038252602681526020018061588d6026913960400191505060405180910390fd5b6155e885615598565b615639576040805162461bcd60e51b815260206004820152601d60248201527f416464726573733a2063616c6c20746f206e6f6e2d636f6e7472616374000000604482015290519081900360640190fd5b600080866001600160a01b031685876040518082805190602001908083835b602083106156775780518252601f199092019160209182019101615658565b6001836020036101000a03801982511681845116808217855250505050505090500191505060006040518083038185875af1925050503d80600081146156d9576040519150601f19603f3d011682016040523d82523d6000602084013e6156de565b606091505b50915091506156ee8282866156f9565b979650505050505050565b60608315615708575081615591565b8251156157185782518084602001fd5b8160405162461bcd60e51b81526004018080602001828103825283818151815260200191508051906020019080838360005b8381101561576257818101518382015260200161574a565b50505050905090810190601f16801561578f5780820380516001836020036101000a031916815260200191505b509250505060405180910390fd5b8280548282559060005260206000209081019282156157f2579160200282015b828111156157f257825182546001600160a01b0319166001600160a01b039091161782556020909201916001909101906157bd565b506157fe929150615821565b5090565b6040518061028001604052806014906020820280368337509192915050565b5b808211156157fe576000815560010161582256fe4f776e61626c653a206e6577206f776e657220697320746865207a65726f20616464726573736f6e6c7920706175736520677561726469616e20616e64206f776e65722063616e20706175736520676c6f62616c6c79416464726573733a20696e73756666696369656e742062616c616e636520666f722063616c6c6f6e6c7920706175736520677561726469616e20616e64206f776e65722063616e20706175736520696e646976696475616c6c79496e697469616c697a61626c653a20636f6e747261637420697320616c726561647920696e697469616c697a65644f776e61626c653a2063616c6c6572206973206e6f7420746865206f776e65726f6e6c7920706175736520677561726469616e20616e64206f776e65722063616e2075706461746520706175736520677561726469616e5361666545524332303a204552433230206f7065726174696f6e20646964206e6f7420737563636565645573657220646f6573206e6f742068617665206372656174696f6e207065726d697373696f6e735361666545524332303a20617070726f76652066726f6d206e6f6e2d7a65726f20746f206e6f6e2d7a65726f20616c6c6f77616e636547617264656e206372656174696f6e20697320616c7265616479206f70656e20746f20746865207075626c6963a264697066735822122070ef00ca3d668f4271e5782387baf63cc38caa2fc67efb0a2b13070db63dfe0264736f6c63430007060033",
  "devdoc": {
    "kind": "dev",
    "methods": {
      "addKeeper(address)": {
        "params": {
          "_keeper": "Address of the keeper"
        }
      },
      "addKeepers(address[])": {
        "params": {
          "_keepers": "List with keeprs of the assets to whitelist"
        }
      },
      "addReserveAsset(address)": {
        "params": {
          "_reserveAsset": "Address of the reserve assset"
        }
      },
      "createGarden(address,string,string,string,uint256,uint256[],uint256,bool[],uint256[])": {
        "params": {
          "_gardenParams": "Array of numeric garden params",
          "_initialContribution": "Initial contribution by the gardener",
          "_name": "Name of the Garden",
          "_profitSharing": "Custom profit sharing (if any)",
          "_publicGardenStrategistsStewards": "Public garden, public strategist rights and public stewards rights",
          "_reserveAsset": "Reserve asset of the Garden. Initially just weth",
          "_seed": "Seed to regenerate the garden NFT",
          "_symbol": "Symbol of the Garden",
          "_tokenURI": "Garden NFT token URI"
        }
      },
      "editGardenFactory(address)": {
        "params": {
          "_newGardenFactory": "Address of the new garden factory"
        }
      },
      "editGardenNFT(address)": {
        "params": {
          "_newGardenNFT": "Address of the new garden NFT"
        }
      },
      "editGardenValuer(address)": {
        "params": {
          "_gardenValuer": "Address of the new garden valuer"
        }
      },
      "editIshtarGate(address)": {
        "params": {
          "_ishtarGate": "Address of the new Ishtar Gate"
        }
      },
      "editLiquidityReserve(address,uint256)": {
        "params": {
          "_newMinLiquidityReserve": "Absolute min liquidity of an asset to grab price",
          "_reserve": "Address of the reserve to edit"
        }
      },
      "editMardukGate(address)": {
        "params": {
          "_mardukGate": "Address of the new Marduk Gate"
        }
      },
      "editPriceOracle(address)": {
        "params": {
          "_priceOracle": "Address of the new price oracle"
        }
      },
      "editRewardsDistributor(address)": {
        "params": {
          "_newRewardsDistributor": "Address of the new rewards distributor"
        }
      },
      "editStrategyFactory(address)": {
        "params": {
          "_newStrategyFactory": "Address of the new strategy factory"
        }
      },
      "editStrategyNFT(address)": {
        "params": {
          "_newStrategyNFT": "Address of the new strategy NFT"
        }
      },
      "editTreasury(address)": {
        "params": {
          "_newTreasury": "Address of the new protocol fee recipient"
        }
      },
      "isBetaStrategy(address[])": {
        "params": {
          "_strategies": "Smartcontract address to check for a global or specific pause"
        }
      },
      "isPaused(address)": {
        "params": {
          "_contract": "Smartcontract address to check for a global or specific pause"
        }
      },
      "isSystemContract(address)": {
        "params": {
          "_contractAddress": "The contract address to check"
        }
      },
      "removeGarden(address)": {
        "params": {
          "_garden": "Address of the Garden contract to remove"
        }
      },
      "removeKeeper(address)": {
        "params": {
          "_keeper": "Address of the keeper"
        }
      },
      "removeReserveAsset(address)": {
        "params": {
          "_reserveAsset": "Address of the reserve asset to remove"
        }
      },
      "renounceOwnership()": {
        "details": "Leaves the contract without owner. It will not be possible to call `onlyOwner` functions anymore. Can only be called by the current owner. NOTE: Renouncing ownership will leave the contract without an owner, thereby removing any functionality that is only available to the owner."
      },
      "setGlobalPause(bool)": {
        "params": {
          "_state": "True to pause, false to unpause."
        }
      },
      "setMasterSwapper(address)": {
        "params": {
          "_newDefaultMasterSwapper": "Address of the new default trade integration"
        }
      },
      "setOperation(uint8,address)": {
        "params": {
          "_kind": "Operation kind",
          "_operation": "Address of the operation contract to set"
        }
      },
      "setPauseGuardian(address)": {
        "params": {
          "_guardian": "Address of the guardian"
        }
      },
      "setSomePause(address[],bool)": {
        "params": {
          "_address": "Addresses of protocol smartcontract to be paused",
          "_state": "Boolean pause state"
        }
      },
      "transferOwnership(address)": {
        "details": "Transfers ownership of the contract to a new account (`newOwner`). Can only be called by the current owner."
      }
    },
    "version": 1
  },
  "userdoc": {
    "events": {
      "ActionPaused(string,bool)": {
        "notice": "Emitted when an action is paused globally"
      },
      "ActionPausedIndividually(string,address,bool)": {
        "notice": "Emitted when an action is paused individually"
      },
      "NewPauseGuardian(address,address)": {
        "notice": "Emitted when pause guardian is changed"
      }
    },
    "kind": "user",
    "methods": {
      "addKeeper(address)": {
        "notice": "PRIVILEGED FACTORY FUNCTION. Adds a new valid keeper to the list"
      },
      "addKeepers(address[])": {
        "notice": "PRIVILEGED FACTORY FUNCTION. Adds a list of assets to the whitelist"
      },
      "addReserveAsset(address)": {
        "notice": "PRIVILEGED FACTORY FUNCTION. Adds a new valid reserve asset for gardens"
      },
      "createGarden(address,string,string,string,uint256,uint256[],uint256,bool[],uint256[])": {
        "notice": "Creates a Garden smart contract and registers the Garden with the controller. If asset is not WETH, the creator needs to approve the controller"
      },
      "editGardenFactory(address)": {
        "notice": "PRIVILEGED GOVERNANCE FUNCTION. Allows governance to edit the protocol garden factory"
      },
      "editGardenNFT(address)": {
        "notice": "PRIVILEGED GOVERNANCE FUNCTION. Allows governance to edit the protocol garden NFT"
      },
      "editGardenValuer(address)": {
        "notice": "PRIVILEGED GOVERNANCE FUNCTION. Allows governance to change the garden valuer"
      },
      "editIshtarGate(address)": {
        "notice": "PRIVILEGED GOVERNANCE FUNCTION. Allows governance to change the Ishtar Gate Address"
      },
      "editLiquidityReserve(address,uint256)": {
        "notice": "GOVERNANCE FUNCTION: Edits the minimum liquidity an asset must have on Uniswap"
      },
      "editMardukGate(address)": {
        "notice": "PRIVILEGED GOVERNANCE FUNCTION. Allows governance to change the Marduk Gate Address"
      },
      "editPriceOracle(address)": {
        "notice": "PRIVILEGED GOVERNANCE FUNCTION. Allows governance to change the price oracle"
      },
      "editRewardsDistributor(address)": {
        "notice": "PRIVILEGED GOVERNANCE FUNCTION. Allows governance to edit the rewards distributor"
      },
      "editStrategyFactory(address)": {
        "notice": "PRIVILEGED GOVERNANCE FUNCTION. Allows governance to edit the protocol strategy factory"
      },
      "editStrategyNFT(address)": {
        "notice": "PRIVILEGED GOVERNANCE FUNCTION. Allows governance to edit the protocol strategy NFT"
      },
      "editTreasury(address)": {
        "notice": "PRIVILEGED GOVERNANCE FUNCTION. Allows governance to edit the protocol fee recipient"
      },
      "enableBABLMiningProgram()": {
        "notice": "PRIVILEGED GOVERNANCE FUNCTION. Enable and starts the BABL Mining program by the Rewards Distributor Can only happen after public launch of the protocol."
      },
      "enableGardenTokensTransfers()": {
        "notice": "PRIVILEGED GOVERNANCE FUNCTION. Allows transfers of ERC20 gardenTokens Can only happen after 2021 is finished."
      },
      "initialize()": {
        "notice": "Initializes the initial fee recipient on deployment."
      },
      "isBetaStrategy(address[])": {
        "notice": "Check whether or not the strategies are beta protocol strategies deserving rewards"
      },
      "isPaused(address)": {
        "notice": "Check whether or not there is a global pause or a specific pause of the provided contract address"
      },
      "isSystemContract(address)": {
        "notice": "Check if a contract address is a garden or one of the system contracts"
      },
      "openPublicGardenCreation()": {
        "notice": "PRIVILEGED GOVERNANCE FUNCTION. Allows governance to enable public creation of gardens"
      },
      "removeGarden(address)": {
        "notice": "PRIVILEGED GOVERNANCE FUNCTION. Allows governance to remove a Garden"
      },
      "removeKeeper(address)": {
        "notice": "PRIVILEGED FACTORY FUNCTION. Removes a keeper"
      },
      "removeReserveAsset(address)": {
        "notice": "PRIVILEGED GOVERNANCE FUNCTION. Allows governance to remove a reserve asset"
      },
      "setAllowPublicGardens()": {
        "notice": "PRIVILEGED GOVERNANCE FUNCTION. Allows public gardens"
      },
      "setGlobalPause(bool)": {
        "notice": "PRIVILEGED GOVERNANCE FUNCTION. Pause the protocol globally in case of unexpected issue Only the governance can unpause it"
      },
      "setMasterSwapper(address)": {
        "notice": "PRIVILEGED GOVERNANCE FUNCTION. Allows governance to edit the protocol default trde integration"
      },
      "setOperation(uint8,address)": {
        "notice": "GOVERNANCE FUNCTION: Edit an existing operation on the registry"
      },
      "setPauseGuardian(address)": {
        "notice": "PRIVILEGED GOVERNANCE FUNCTION. Set-up a pause guardian"
      },
      "setSomePause(address[],bool)": {
        "notice": "PRIVILEGED GOVERNANCE FUNCTION. Pause some smartcontracts in a batch process in case of unexpected issue Only the governance can unpause it"
      }
    },
    "version": 1
  },
  "storageLayout": {
    "storage": [
      {
        "astId": 492,
        "contract": "contracts/BabController.sol:BabControllerV8",
        "label": "_initialized",
        "offset": 0,
        "slot": "0",
        "type": "t_bool"
      },
      {
        "astId": 495,
        "contract": "contracts/BabController.sol:BabControllerV8",
        "label": "_initializing",
        "offset": 1,
        "slot": "0",
        "type": "t_bool"
      },
      {
        "astId": 1447,
        "contract": "contracts/BabController.sol:BabControllerV8",
        "label": "__gap",
        "offset": 0,
        "slot": "1",
        "type": "t_array(t_uint256)50_storage"
      },
      {
        "astId": 10,
        "contract": "contracts/BabController.sol:BabControllerV8",
        "label": "_owner",
        "offset": 0,
        "slot": "51",
        "type": "t_address"
      },
      {
        "astId": 129,
        "contract": "contracts/BabController.sol:BabControllerV8",
        "label": "__gap",
        "offset": 0,
        "slot": "52",
        "type": "t_array(t_uint256)49_storage"
      },
      {
        "astId": 8555,
        "contract": "contracts/BabController.sol:BabControllerV8",
        "label": "gardens",
        "offset": 0,
        "slot": "101",
        "type": "t_array(t_address)dyn_storage"
      },
      {
        "astId": 8558,
        "contract": "contracts/BabController.sol:BabControllerV8",
        "label": "reserveAssets",
        "offset": 0,
        "slot": "102",
        "type": "t_array(t_address)dyn_storage"
      },
      {
        "astId": 8560,
        "contract": "contracts/BabController.sol:BabControllerV8",
        "label": "uniswapFactory",
        "offset": 0,
        "slot": "103",
        "type": "t_address"
      },
      {
        "astId": 8563,
        "contract": "contracts/BabController.sol:BabControllerV8",
        "label": "gardenValuer",
        "offset": 0,
        "slot": "104",
        "type": "t_address"
      },
      {
        "astId": 8566,
        "contract": "contracts/BabController.sol:BabControllerV8",
        "label": "priceOracle",
        "offset": 0,
        "slot": "105",
        "type": "t_address"
      },
      {
        "astId": 8569,
        "contract": "contracts/BabController.sol:BabControllerV8",
        "label": "gardenFactory",
        "offset": 0,
        "slot": "106",
        "type": "t_address"
      },
      {
        "astId": 8572,
        "contract": "contracts/BabController.sol:BabControllerV8",
        "label": "rewardsDistributor",
        "offset": 0,
        "slot": "107",
        "type": "t_address"
      },
      {
        "astId": 8575,
        "contract": "contracts/BabController.sol:BabControllerV8",
        "label": "ishtarGate",
        "offset": 0,
        "slot": "108",
        "type": "t_address"
      },
      {
        "astId": 8578,
        "contract": "contracts/BabController.sol:BabControllerV8",
        "label": "strategyFactory",
        "offset": 0,
        "slot": "109",
        "type": "t_address"
      },
      {
        "astId": 8581,
        "contract": "contracts/BabController.sol:BabControllerV8",
        "label": "gardenNFT",
        "offset": 0,
        "slot": "110",
        "type": "t_address"
      },
      {
        "astId": 8584,
        "contract": "contracts/BabController.sol:BabControllerV8",
        "label": "strategyNFT",
        "offset": 0,
        "slot": "111",
        "type": "t_address"
      },
      {
        "astId": 8588,
        "contract": "contracts/BabController.sol:BabControllerV8",
        "label": "enabledIntegrations",
        "offset": 0,
        "slot": "112",
        "type": "t_mapping(t_bytes32,t_address)"
      },
      {
        "astId": 8591,
        "contract": "contracts/BabController.sol:BabControllerV8",
        "label": "masterSwapper",
        "offset": 0,
        "slot": "113",
        "type": "t_address"
      },
      {
        "astId": 8596,
        "contract": "contracts/BabController.sol:BabControllerV8",
        "label": "enabledOperations",
        "offset": 0,
        "slot": "114",
        "type": "t_array(t_address)20_storage"
      },
      {
        "astId": 8601,
        "contract": "contracts/BabController.sol:BabControllerV8",
        "label": "isGarden",
        "offset": 0,
        "slot": "134",
        "type": "t_mapping(t_address,t_bool)"
      },
      {
        "astId": 8605,
        "contract": "contracts/BabController.sol:BabControllerV8",
        "label": "validReserveAsset",
        "offset": 0,
        "slot": "135",
        "type": "t_mapping(t_address,t_bool)"
      },
      {
        "astId": 8609,
        "contract": "contracts/BabController.sol:BabControllerV8",
        "label": "assetWhitelist",
        "offset": 0,
        "slot": "136",
        "type": "t_mapping(t_address,t_bool)"
      },
      {
        "astId": 8613,
        "contract": "contracts/BabController.sol:BabControllerV8",
        "label": "keeperList",
        "offset": 0,
        "slot": "137",
        "type": "t_mapping(t_address,t_bool)"
      },
      {
        "astId": 8618,
        "contract": "contracts/BabController.sol:BabControllerV8",
        "label": "minLiquidityPerReserve",
        "offset": 0,
        "slot": "138",
        "type": "t_mapping(t_address,t_uint256)"
      },
      {
        "astId": 8621,
        "contract": "contracts/BabController.sol:BabControllerV8",
        "label": "treasury",
        "offset": 0,
        "slot": "139",
        "type": "t_address"
      },
      {
        "astId": 8623,
        "contract": "contracts/BabController.sol:BabControllerV8",
        "label": "strategistProfitPercentage",
        "offset": 0,
        "slot": "140",
        "type": "t_uint256"
      },
      {
        "astId": 8625,
        "contract": "contracts/BabController.sol:BabControllerV8",
        "label": "stewardsProfitPercentage",
        "offset": 0,
        "slot": "141",
        "type": "t_uint256"
      },
      {
        "astId": 8627,
        "contract": "contracts/BabController.sol:BabControllerV8",
        "label": "lpsProfitPercentage",
        "offset": 0,
        "slot": "142",
        "type": "t_uint256"
      },
      {
        "astId": 8629,
        "contract": "contracts/BabController.sol:BabControllerV8",
        "label": "strategistBABLPercentage",
        "offset": 0,
        "slot": "143",
        "type": "t_uint256"
      },
      {
        "astId": 8631,
        "contract": "contracts/BabController.sol:BabControllerV8",
        "label": "stewardsBABLPercentage",
        "offset": 0,
        "slot": "144",
        "type": "t_uint256"
      },
      {
        "astId": 8633,
        "contract": "contracts/BabController.sol:BabControllerV8",
        "label": "lpsBABLPercentage",
        "offset": 0,
        "slot": "145",
        "type": "t_uint256"
      },
      {
        "astId": 8635,
        "contract": "contracts/BabController.sol:BabControllerV8",
        "label": "gardenCreatorBonus",
        "offset": 0,
        "slot": "146",
        "type": "t_uint256"
      },
      {
        "astId": 8638,
        "contract": "contracts/BabController.sol:BabControllerV8",
        "label": "gardenTokensTransfersEnabled",
        "offset": 0,
        "slot": "147",
        "type": "t_bool"
      },
      {
        "astId": 8641,
        "contract": "contracts/BabController.sol:BabControllerV8",
        "label": "bablMiningProgramEnabled",
        "offset": 1,
        "slot": "147",
        "type": "t_bool"
      },
      {
        "astId": 8644,
        "contract": "contracts/BabController.sol:BabControllerV8",
        "label": "allowPublicGardens",
        "offset": 2,
        "slot": "147",
        "type": "t_bool"
      },
      {
        "astId": 8647,
        "contract": "contracts/BabController.sol:BabControllerV8",
        "label": "protocolPerformanceFee",
        "offset": 0,
        "slot": "148",
        "type": "t_uint256"
      },
      {
        "astId": 8650,
        "contract": "contracts/BabController.sol:BabControllerV8",
        "label": "protocolManagementFee",
        "offset": 0,
        "slot": "149",
        "type": "t_uint256"
      },
      {
        "astId": 8652,
        "contract": "contracts/BabController.sol:BabControllerV8",
        "label": "protocolDepositGardenTokenFee",
        "offset": 0,
        "slot": "150",
        "type": "t_uint256"
      },
      {
        "astId": 8654,
        "contract": "contracts/BabController.sol:BabControllerV8",
        "label": "protocolWithdrawalGardenTokenFee",
        "offset": 0,
        "slot": "151",
        "type": "t_uint256"
      },
      {
        "astId": 8656,
        "contract": "contracts/BabController.sol:BabControllerV8",
        "label": "maxContributorsPerGarden",
        "offset": 0,
        "slot": "152",
        "type": "t_uint256"
      },
      {
        "astId": 8659,
        "contract": "contracts/BabController.sol:BabControllerV8",
        "label": "gardenCreationIsOpen",
        "offset": 0,
        "slot": "153",
        "type": "t_bool"
      },
      {
        "astId": 8661,
        "contract": "contracts/BabController.sol:BabControllerV8",
        "label": "guardian",
        "offset": 1,
        "slot": "153",
        "type": "t_address"
      },
      {
        "astId": 8666,
        "contract": "contracts/BabController.sol:BabControllerV8",
        "label": "guardianPaused",
        "offset": 0,
        "slot": "154",
        "type": "t_mapping(t_address,t_bool)"
      },
      {
        "astId": 8669,
        "contract": "contracts/BabController.sol:BabControllerV8",
        "label": "guardianGlobalPaused",
        "offset": 0,
        "slot": "155",
        "type": "t_bool"
      },
      {
        "astId": 8672,
        "contract": "contracts/BabController.sol:BabControllerV8",
        "label": "mardukGate",
        "offset": 1,
        "slot": "155",
        "type": "t_address"
      }
    ],
    "types": {
      "t_address": {
        "encoding": "inplace",
        "label": "address",
        "numberOfBytes": "20"
      },
      "t_array(t_address)20_storage": {
        "base": "t_address",
        "encoding": "inplace",
        "label": "address[20]",
        "numberOfBytes": "640"
      },
      "t_array(t_address)dyn_storage": {
        "base": "t_address",
        "encoding": "dynamic_array",
        "label": "address[]",
        "numberOfBytes": "32"
      },
      "t_array(t_uint256)49_storage": {
        "base": "t_uint256",
        "encoding": "inplace",
        "label": "uint256[49]",
        "numberOfBytes": "1568"
      },
      "t_array(t_uint256)50_storage": {
        "base": "t_uint256",
        "encoding": "inplace",
        "label": "uint256[50]",
        "numberOfBytes": "1600"
      },
      "t_bool": {
        "encoding": "inplace",
        "label": "bool",
        "numberOfBytes": "1"
      },
      "t_bytes32": {
        "encoding": "inplace",
        "label": "bytes32",
        "numberOfBytes": "32"
      },
      "t_mapping(t_address,t_bool)": {
        "encoding": "mapping",
        "key": "t_address",
        "label": "mapping(address => bool)",
        "numberOfBytes": "32",
        "value": "t_bool"
      },
      "t_mapping(t_address,t_uint256)": {
        "encoding": "mapping",
        "key": "t_address",
        "label": "mapping(address => uint256)",
        "numberOfBytes": "32",
        "value": "t_uint256"
      },
      "t_mapping(t_bytes32,t_address)": {
        "encoding": "mapping",
        "key": "t_bytes32",
        "label": "mapping(bytes32 => address)",
        "numberOfBytes": "32",
        "value": "t_address"
      },
      "t_uint256": {
        "encoding": "inplace",
        "label": "uint256",
        "numberOfBytes": "32"
      }
    }
  }
}