{
  "address": "0x5a6DD0c8Fecf10ba5a525915C1Fc5a58165af915",
  "abi": [
    {
      "anonymous": false,
      "inputs": [
        {
          "indexed": false,
          "internalType": "string",
          "name": "_action",
          "type": "string"
        },
        {
          "indexed": false,
          "internalType": "bool",
          "name": "_pauseState",
          "type": "bool"
        }
      ],
      "name": "ActionPaused",
      "type": "event"
    },
    {
      "anonymous": false,
      "inputs": [
        {
          "indexed": false,
          "internalType": "string",
          "name": "_action",
          "type": "string"
        },
        {
          "indexed": false,
          "internalType": "address",
          "name": "_address",
          "type": "address"
        },
        {
          "indexed": false,
          "internalType": "bool",
          "name": "_pauseState",
          "type": "bool"
        }
      ],
      "name": "ActionPausedIndividually",
      "type": "event"
    },
    {
      "anonymous": false,
      "inputs": [
        {
          "indexed": false,
          "internalType": "address",
          "name": "_integration",
          "type": "address"
        },
        {
          "indexed": true,
          "internalType": "string",
          "name": "_integrationName",
          "type": "string"
        }
      ],
      "name": "ControllerIntegrationAdded",
      "type": "event"
    },
    {
      "anonymous": false,
      "inputs": [
        {
          "indexed": false,
          "internalType": "address",
          "name": "_newIntegration",
          "type": "address"
        },
        {
          "indexed": true,
          "internalType": "string",
          "name": "_integrationName",
          "type": "string"
        }
      ],
      "name": "ControllerIntegrationEdited",
      "type": "event"
    },
    {
      "anonymous": false,
      "inputs": [
        {
          "indexed": false,
          "internalType": "address",
          "name": "_integration",
          "type": "address"
        },
        {
          "indexed": true,
          "internalType": "string",
          "name": "_integrationName",
          "type": "string"
        }
      ],
      "name": "ControllerIntegrationRemoved",
      "type": "event"
    },
    {
      "anonymous": false,
      "inputs": [
        {
          "indexed": true,
          "internalType": "uint8",
          "name": "_kind",
          "type": "uint8"
        },
        {
          "indexed": false,
          "internalType": "address",
          "name": "_address",
          "type": "address"
        }
      ],
      "name": "ControllerOperationSet",
      "type": "event"
    },
    {
      "anonymous": false,
      "inputs": [
        {
          "indexed": true,
          "internalType": "address",
          "name": "_garden",
          "type": "address"
        },
        {
          "indexed": true,
          "internalType": "address",
          "name": "_factory",
          "type": "address"
        }
      ],
      "name": "GardenAdded",
      "type": "event"
    },
    {
      "anonymous": false,
      "inputs": [
        {
          "indexed": true,
          "internalType": "address",
          "name": "_gardenFactory",
          "type": "address"
        },
        {
          "indexed": false,
          "internalType": "address",
          "name": "_oldGardenFactory",
          "type": "address"
        }
      ],
      "name": "GardenFactoryChanged",
      "type": "event"
    },
    {
      "anonymous": false,
      "inputs": [
        {
          "indexed": true,
          "internalType": "address",
          "name": "_newGardenNFT",
          "type": "address"
        },
        {
          "indexed": false,
          "internalType": "address",
          "name": "_oldStrategyNFT",
          "type": "address"
        }
      ],
      "name": "GardenNFTChanged",
      "type": "event"
    },
    {
      "anonymous": false,
      "inputs": [
        {
          "indexed": true,
          "internalType": "address",
          "name": "_garden",
          "type": "address"
        }
      ],
      "name": "GardenRemoved",
      "type": "event"
    },
    {
      "anonymous": false,
      "inputs": [
        {
          "indexed": true,
          "internalType": "address",
          "name": "_gardenValuer",
          "type": "address"
        },
        {
          "indexed": false,
          "internalType": "address",
          "name": "_oldGardenValuer",
          "type": "address"
        }
      ],
      "name": "GardenValuerChanged",
      "type": "event"
    },
    {
      "anonymous": false,
      "inputs": [
        {
          "indexed": true,
          "internalType": "address",
          "name": "_newHeart",
          "type": "address"
        },
        {
          "indexed": false,
          "internalType": "address",
          "name": "_oldHeart",
          "type": "address"
        }
      ],
      "name": "HeartChanged",
      "type": "event"
    },
    {
      "anonymous": false,
      "inputs": [
        {
          "indexed": false,
          "internalType": "address",
          "name": "_newIshtarGate",
          "type": "address"
        },
        {
          "indexed": false,
          "internalType": "address",
          "name": "_oldIshtarGate",
          "type": "address"
        }
      ],
      "name": "IshtarGateChanged",
      "type": "event"
    },
    {
      "anonymous": false,
      "inputs": [
        {
          "indexed": true,
          "internalType": "address",
          "name": "_resesrveAsset",
          "type": "address"
        },
        {
          "indexed": false,
          "internalType": "uint256",
          "name": "_newMinLiquidityReserve",
          "type": "uint256"
        }
      ],
      "name": "LiquidityMinimumEdited",
      "type": "event"
    },
    {
      "anonymous": false,
      "inputs": [
        {
          "indexed": false,
          "internalType": "address",
          "name": "_newMardukGate",
          "type": "address"
        },
        {
          "indexed": false,
          "internalType": "address",
          "name": "_oldMardukGate",
          "type": "address"
        }
      ],
      "name": "MardukGateChanged",
      "type": "event"
    },
    {
      "anonymous": false,
      "inputs": [
        {
          "indexed": true,
          "internalType": "address",
          "name": "_newTradeIntegration",
          "type": "address"
        },
        {
          "indexed": false,
          "internalType": "address",
          "name": "_oldTradeIntegration",
          "type": "address"
        }
      ],
      "name": "MasterSwapperChanged",
      "type": "event"
    },
    {
      "anonymous": false,
      "inputs": [
        {
          "indexed": false,
          "internalType": "address",
          "name": "_oldPauseGuardian",
          "type": "address"
        },
        {
          "indexed": false,
          "internalType": "address",
          "name": "_newPauseGuardian",
          "type": "address"
        }
      ],
      "name": "NewPauseGuardian",
      "type": "event"
    },
    {
      "anonymous": false,
      "inputs": [
        {
          "indexed": true,
          "internalType": "address",
          "name": "previousOwner",
          "type": "address"
        },
        {
          "indexed": true,
          "internalType": "address",
          "name": "newOwner",
          "type": "address"
        }
      ],
      "name": "OwnershipTransferred",
      "type": "event"
    },
    {
      "anonymous": false,
      "inputs": [
        {
          "indexed": true,
          "internalType": "address",
          "name": "_priceOracle",
          "type": "address"
        },
        {
          "indexed": false,
          "internalType": "address",
          "name": "_oldPriceOracle",
          "type": "address"
        }
      ],
      "name": "PriceOracleChanged",
      "type": "event"
    },
    {
      "anonymous": false,
      "inputs": [
        {
          "indexed": true,
          "internalType": "address",
          "name": "_reserveAsset",
          "type": "address"
        }
      ],
      "name": "ReserveAssetAdded",
      "type": "event"
    },
    {
      "anonymous": false,
      "inputs": [
        {
          "indexed": true,
          "internalType": "address",
          "name": "_reserveAsset",
          "type": "address"
        }
      ],
      "name": "ReserveAssetRemoved",
      "type": "event"
    },
    {
      "anonymous": false,
      "inputs": [
        {
          "indexed": true,
          "internalType": "address",
          "name": "_rewardsDistributor",
          "type": "address"
        },
        {
          "indexed": false,
          "internalType": "address",
          "name": "_oldRewardsDistributor",
          "type": "address"
        }
      ],
      "name": "RewardsDistributorChanged",
      "type": "event"
    },
    {
      "anonymous": false,
      "inputs": [
        {
          "indexed": true,
          "internalType": "address",
          "name": "_strategyFactory",
          "type": "address"
        },
        {
          "indexed": false,
          "internalType": "address",
          "name": "_oldStrategyFactory",
          "type": "address"
        }
      ],
      "name": "StrategyFactoryEdited",
      "type": "event"
    },
    {
      "anonymous": false,
      "inputs": [
        {
          "indexed": true,
          "internalType": "address",
          "name": "_newStrategyNFT",
          "type": "address"
        },
        {
          "indexed": false,
          "internalType": "address",
          "name": "_oldStrategyNFT",
          "type": "address"
        }
      ],
      "name": "StrategyNFTChanged",
      "type": "event"
    },
    {
      "anonymous": false,
      "inputs": [
        {
          "indexed": false,
          "internalType": "address",
          "name": "_newTreasury",
          "type": "address"
        },
        {
          "indexed": false,
          "internalType": "address",
          "name": "_oldTreasury",
          "type": "address"
        }
      ],
      "name": "TreasuryChanged",
      "type": "event"
    },
    {
      "anonymous": false,
      "inputs": [
        {
          "indexed": true,
          "internalType": "address",
          "name": "_newUniswapFactory",
          "type": "address"
        },
        {
          "indexed": false,
          "internalType": "address",
          "name": "_oldUniswapFactory",
          "type": "address"
        }
      ],
      "name": "UniswapFactoryChanged",
      "type": "event"
    },
    {
      "inputs": [],
      "name": "BABL",
      "outputs": [
        {
          "internalType": "contract IERC20",
          "name": "",
          "type": "address"
        }
      ],
      "stateMutability": "view",
      "type": "function"
    },
    {
      "inputs": [],
      "name": "EMERGENCY_OWNER",
      "outputs": [
        {
          "internalType": "address",
          "name": "",
          "type": "address"
        }
      ],
      "stateMutability": "view",
      "type": "function"
    },
    {
      "inputs": [],
      "name": "MAX_OPERATIONS",
      "outputs": [
        {
          "internalType": "uint8",
          "name": "",
          "type": "uint8"
        }
      ],
      "stateMutability": "view",
      "type": "function"
    },
    {
      "inputs": [],
      "name": "WETH",
      "outputs": [
        {
          "internalType": "contract IWETH",
          "name": "",
          "type": "address"
        }
      ],
      "stateMutability": "view",
      "type": "function"
    },
    {
      "inputs": [
        {
          "internalType": "address",
          "name": "_keeper",
          "type": "address"
        }
      ],
      "name": "addKeeper",
      "outputs": [],
      "stateMutability": "nonpayable",
      "type": "function"
    },
    {
      "inputs": [
        {
          "internalType": "address[]",
          "name": "_keepers",
          "type": "address[]"
        }
      ],
      "name": "addKeepers",
      "outputs": [],
      "stateMutability": "nonpayable",
      "type": "function"
    },
    {
      "inputs": [
        {
          "internalType": "address",
          "name": "_reserveAsset",
          "type": "address"
        }
      ],
      "name": "addReserveAsset",
      "outputs": [],
      "stateMutability": "nonpayable",
      "type": "function"
    },
    {
      "inputs": [],
      "name": "allowPublicGardens",
      "outputs": [
        {
          "internalType": "bool",
          "name": "",
          "type": "bool"
        }
      ],
      "stateMutability": "view",
      "type": "function"
    },
    {
      "inputs": [
        {
          "internalType": "address",
          "name": "",
          "type": "address"
        }
      ],
      "name": "assetWhitelist",
      "outputs": [
        {
          "internalType": "bool",
          "name": "",
          "type": "bool"
        }
      ],
      "stateMutability": "view",
      "type": "function"
    },
    {
      "inputs": [],
      "name": "bablMiningProgramEnabled",
      "outputs": [
        {
          "internalType": "bool",
          "name": "",
          "type": "bool"
        }
      ],
      "stateMutability": "view",
      "type": "function"
    },
    {
      "inputs": [
        {
          "internalType": "address",
          "name": "_reserveAsset",
          "type": "address"
        },
        {
          "internalType": "string",
          "name": "_name",
          "type": "string"
        },
        {
          "internalType": "string",
          "name": "_symbol",
          "type": "string"
        },
        {
          "internalType": "string",
          "name": "_tokenURI",
          "type": "string"
        },
        {
          "internalType": "uint256",
          "name": "_seed",
          "type": "uint256"
        },
        {
          "internalType": "uint256[]",
          "name": "_gardenParams",
          "type": "uint256[]"
        },
        {
          "internalType": "uint256",
          "name": "_initialContribution",
          "type": "uint256"
        },
        {
          "internalType": "bool[]",
          "name": "_publicGardenStrategistsStewards",
          "type": "bool[]"
        },
        {
          "internalType": "uint256[]",
          "name": "_profitSharing",
          "type": "uint256[]"
        }
      ],
      "name": "createGarden",
      "outputs": [
        {
          "internalType": "address",
          "name": "",
          "type": "address"
        }
      ],
      "stateMutability": "payable",
      "type": "function"
    },
    {
      "inputs": [],
      "name": "curveMetaRegistry",
      "outputs": [
        {
          "internalType": "address",
          "name": "",
          "type": "address"
        }
      ],
      "stateMutability": "view",
      "type": "function"
    },
    {
      "inputs": [
        {
          "internalType": "address",
          "name": "_curveMetaRegistry",
          "type": "address"
        }
      ],
      "name": "editCurveMetaRegistry",
      "outputs": [],
      "stateMutability": "nonpayable",
      "type": "function"
    },
    {
      "inputs": [
        {
          "internalType": "address",
          "name": "_newGardenFactory",
          "type": "address"
        }
      ],
      "name": "editGardenFactory",
      "outputs": [],
      "stateMutability": "nonpayable",
      "type": "function"
    },
    {
      "inputs": [
        {
          "internalType": "address",
          "name": "_newGardenNFT",
          "type": "address"
        }
      ],
      "name": "editGardenNFT",
      "outputs": [],
      "stateMutability": "nonpayable",
      "type": "function"
    },
    {
      "inputs": [
        {
          "internalType": "address",
          "name": "_gardenValuer",
          "type": "address"
        }
      ],
      "name": "editGardenValuer",
      "outputs": [],
      "stateMutability": "nonpayable",
      "type": "function"
    },
    {
      "inputs": [
        {
          "internalType": "address",
          "name": "_newHeart",
          "type": "address"
        }
      ],
      "name": "editHeart",
      "outputs": [],
      "stateMutability": "nonpayable",
      "type": "function"
    },
    {
      "inputs": [
        {
          "internalType": "address",
          "name": "_reserve",
          "type": "address"
        },
        {
          "internalType": "uint256",
          "name": "_newMinLiquidityReserve",
          "type": "uint256"
        }
      ],
      "name": "editLiquidityReserve",
      "outputs": [],
      "stateMutability": "nonpayable",
      "type": "function"
    },
    {
      "inputs": [
        {
          "internalType": "address",
          "name": "_mardukGate",
          "type": "address"
        }
      ],
      "name": "editMardukGate",
      "outputs": [],
      "stateMutability": "nonpayable",
      "type": "function"
    },
    {
      "inputs": [
        {
          "internalType": "address",
          "name": "_priceOracle",
          "type": "address"
        }
      ],
      "name": "editPriceOracle",
      "outputs": [],
      "stateMutability": "nonpayable",
      "type": "function"
    },
    {
      "inputs": [
        {
          "internalType": "address",
          "name": "_newRewardsDistributor",
          "type": "address"
        }
      ],
      "name": "editRewardsDistributor",
      "outputs": [],
      "stateMutability": "nonpayable",
      "type": "function"
    },
    {
      "inputs": [
        {
          "internalType": "address",
          "name": "_newStrategyFactory",
          "type": "address"
        }
      ],
      "name": "editStrategyFactory",
      "outputs": [],
      "stateMutability": "nonpayable",
      "type": "function"
    },
    {
      "inputs": [
        {
          "internalType": "address",
          "name": "_newStrategyNFT",
          "type": "address"
        }
      ],
      "name": "editStrategyNFT",
      "outputs": [],
      "stateMutability": "nonpayable",
      "type": "function"
    },
    {
      "inputs": [
        {
          "internalType": "address",
          "name": "_newTreasury",
          "type": "address"
        }
      ],
      "name": "editTreasury",
      "outputs": [],
      "stateMutability": "nonpayable",
      "type": "function"
    },
    {
      "inputs": [],
      "name": "enableGardenTokensTransfers",
      "outputs": [],
      "stateMutability": "nonpayable",
      "type": "function"
    },
    {
      "inputs": [
        {
          "internalType": "uint256",
          "name": "",
          "type": "uint256"
        }
      ],
      "name": "enabledOperations",
      "outputs": [
        {
          "internalType": "address",
          "name": "",
          "type": "address"
        }
      ],
      "stateMutability": "view",
      "type": "function"
    },
    {
      "inputs": [],
      "name": "gardenCreationIsOpen",
      "outputs": [
        {
          "internalType": "bool",
          "name": "",
          "type": "bool"
        }
      ],
      "stateMutability": "view",
      "type": "function"
    },
    {
      "inputs": [],
      "name": "gardenFactory",
      "outputs": [
        {
          "internalType": "address",
          "name": "",
          "type": "address"
        }
      ],
      "stateMutability": "view",
      "type": "function"
    },
    {
      "inputs": [],
      "name": "gardenNFT",
      "outputs": [
        {
          "internalType": "address",
          "name": "",
          "type": "address"
        }
      ],
      "stateMutability": "view",
      "type": "function"
    },
    {
      "inputs": [],
      "name": "gardenTokensTransfersEnabled",
      "outputs": [
        {
          "internalType": "bool",
          "name": "",
          "type": "bool"
        }
      ],
      "stateMutability": "view",
      "type": "function"
    },
    {
      "inputs": [],
      "name": "gardenValuer",
      "outputs": [
        {
          "internalType": "address",
          "name": "",
          "type": "address"
        }
      ],
      "stateMutability": "view",
      "type": "function"
    },
    {
      "inputs": [
        {
          "internalType": "uint256",
          "name": "",
          "type": "uint256"
        }
      ],
      "name": "gardens",
      "outputs": [
        {
          "internalType": "address",
          "name": "",
          "type": "address"
        }
      ],
      "stateMutability": "view",
      "type": "function"
    },
    {
      "inputs": [],
      "name": "getGardens",
      "outputs": [
        {
          "internalType": "address[]",
          "name": "",
          "type": "address[]"
        }
      ],
      "stateMutability": "view",
      "type": "function"
    },
    {
      "inputs": [],
      "name": "getOperations",
      "outputs": [
        {
          "internalType": "address[20]",
          "name": "",
          "type": "address[20]"
        }
      ],
      "stateMutability": "view",
      "type": "function"
    },
    {
      "inputs": [],
      "name": "getReserveAssets",
      "outputs": [
        {
          "internalType": "address[]",
          "name": "",
          "type": "address[]"
        }
      ],
      "stateMutability": "view",
      "type": "function"
    },
    {
      "inputs": [],
      "name": "guardian",
      "outputs": [
        {
          "internalType": "address",
          "name": "",
          "type": "address"
        }
      ],
      "stateMutability": "view",
      "type": "function"
    },
    {
      "inputs": [],
      "name": "guardianGlobalPaused",
      "outputs": [
        {
          "internalType": "bool",
          "name": "",
          "type": "bool"
        }
      ],
      "stateMutability": "view",
      "type": "function"
    },
    {
      "inputs": [
        {
          "internalType": "address",
          "name": "",
          "type": "address"
        }
      ],
      "name": "guardianPaused",
      "outputs": [
        {
          "internalType": "bool",
          "name": "",
          "type": "bool"
        }
      ],
      "stateMutability": "view",
      "type": "function"
    },
    {
      "inputs": [],
      "name": "heart",
      "outputs": [
        {
          "internalType": "address",
          "name": "",
          "type": "address"
        }
      ],
      "stateMutability": "view",
      "type": "function"
    },
    {
      "inputs": [],
      "name": "initialize",
      "outputs": [],
      "stateMutability": "nonpayable",
      "type": "function"
    },
    {
      "inputs": [
        {
          "internalType": "address",
          "name": "",
          "type": "address"
        }
      ],
      "name": "isGarden",
      "outputs": [
        {
          "internalType": "bool",
          "name": "",
          "type": "bool"
        }
      ],
      "stateMutability": "view",
      "type": "function"
    },
    {
      "inputs": [
        {
          "internalType": "address",
          "name": "_contract",
          "type": "address"
        }
      ],
      "name": "isPaused",
      "outputs": [
        {
          "internalType": "bool",
          "name": "",
          "type": "bool"
        }
      ],
      "stateMutability": "view",
      "type": "function"
    },
    {
      "inputs": [
        {
          "internalType": "address",
          "name": "_contractAddress",
          "type": "address"
        }
      ],
      "name": "isSystemContract",
      "outputs": [
        {
          "internalType": "bool",
          "name": "",
          "type": "bool"
        }
      ],
      "stateMutability": "view",
      "type": "function"
    },
    {
      "inputs": [
        {
          "internalType": "address",
          "name": "_keeper",
          "type": "address"
        }
      ],
      "name": "isValidKeeper",
      "outputs": [
        {
          "internalType": "bool",
          "name": "",
          "type": "bool"
        }
      ],
      "stateMutability": "view",
      "type": "function"
    },
    {
      "inputs": [
        {
          "internalType": "address",
          "name": "_reserveAsset",
          "type": "address"
        }
      ],
      "name": "isValidReserveAsset",
      "outputs": [
        {
          "internalType": "bool",
          "name": "",
          "type": "bool"
        }
      ],
      "stateMutability": "view",
      "type": "function"
    },
    {
      "inputs": [],
      "name": "ishtarGate",
      "outputs": [
        {
          "internalType": "address",
          "name": "",
          "type": "address"
        }
      ],
      "stateMutability": "view",
      "type": "function"
    },
    {
      "inputs": [
        {
          "internalType": "address",
          "name": "",
          "type": "address"
        }
      ],
      "name": "keeperList",
      "outputs": [
        {
          "internalType": "bool",
          "name": "",
          "type": "bool"
        }
      ],
      "stateMutability": "view",
      "type": "function"
    },
    {
      "inputs": [],
      "name": "mardukGate",
      "outputs": [
        {
          "internalType": "address",
          "name": "",
          "type": "address"
        }
      ],
      "stateMutability": "view",
      "type": "function"
    },
    {
      "inputs": [],
      "name": "masterSwapper",
      "outputs": [
        {
          "internalType": "address",
          "name": "",
          "type": "address"
        }
      ],
      "stateMutability": "view",
      "type": "function"
    },
    {
      "inputs": [
        {
          "internalType": "address",
          "name": "",
          "type": "address"
        }
      ],
      "name": "minLiquidityPerReserve",
      "outputs": [
        {
          "internalType": "uint256",
          "name": "",
          "type": "uint256"
        }
      ],
      "stateMutability": "view",
      "type": "function"
    },
    {
      "inputs": [],
      "name": "owner",
      "outputs": [
        {
          "internalType": "address",
          "name": "",
          "type": "address"
        }
      ],
      "stateMutability": "view",
      "type": "function"
    },
    {
      "inputs": [],
      "name": "priceOracle",
      "outputs": [
        {
          "internalType": "address",
          "name": "",
          "type": "address"
        }
      ],
      "stateMutability": "view",
      "type": "function"
    },
    {
      "inputs": [],
      "name": "protocolManagementFee",
      "outputs": [
        {
          "internalType": "uint256",
          "name": "",
          "type": "uint256"
        }
      ],
      "stateMutability": "view",
      "type": "function"
    },
    {
      "inputs": [],
      "name": "protocolPerformanceFee",
      "outputs": [
        {
          "internalType": "uint256",
          "name": "",
          "type": "uint256"
        }
      ],
      "stateMutability": "view",
      "type": "function"
    },
    {
      "inputs": [
        {
          "internalType": "address",
          "name": "_garden",
          "type": "address"
        }
      ],
      "name": "removeGarden",
      "outputs": [],
      "stateMutability": "nonpayable",
      "type": "function"
    },
    {
      "inputs": [
        {
          "internalType": "address",
          "name": "_keeper",
          "type": "address"
        }
      ],
      "name": "removeKeeper",
      "outputs": [],
      "stateMutability": "nonpayable",
      "type": "function"
    },
    {
      "inputs": [
        {
          "internalType": "address",
          "name": "_reserveAsset",
          "type": "address"
        }
      ],
      "name": "removeReserveAsset",
      "outputs": [],
      "stateMutability": "nonpayable",
      "type": "function"
    },
    {
      "inputs": [],
      "name": "renounceOwnership",
      "outputs": [],
      "stateMutability": "nonpayable",
      "type": "function"
    },
    {
      "inputs": [
        {
          "internalType": "uint256",
          "name": "",
          "type": "uint256"
        }
      ],
      "name": "reserveAssets",
      "outputs": [
        {
          "internalType": "address",
          "name": "",
          "type": "address"
        }
      ],
      "stateMutability": "view",
      "type": "function"
    },
    {
      "inputs": [],
      "name": "rewardsDistributor",
      "outputs": [
        {
          "internalType": "address",
          "name": "",
          "type": "address"
        }
      ],
      "stateMutability": "view",
      "type": "function"
    },
    {
      "inputs": [
        {
          "internalType": "bool",
          "name": "_state",
          "type": "bool"
        }
      ],
      "name": "setGlobalPause",
      "outputs": [
        {
          "internalType": "bool",
          "name": "",
          "type": "bool"
        }
      ],
      "stateMutability": "nonpayable",
      "type": "function"
    },
    {
      "inputs": [
        {
          "internalType": "address",
          "name": "_newDefaultMasterSwapper",
          "type": "address"
        }
      ],
      "name": "setMasterSwapper",
      "outputs": [],
      "stateMutability": "nonpayable",
      "type": "function"
    },
    {
      "inputs": [
        {
          "internalType": "uint8",
          "name": "_kind",
          "type": "uint8"
        },
        {
          "internalType": "address",
          "name": "_operation",
          "type": "address"
        }
      ],
      "name": "setOperation",
      "outputs": [],
      "stateMutability": "nonpayable",
      "type": "function"
    },
    {
      "inputs": [
        {
          "internalType": "address",
          "name": "_guardian",
          "type": "address"
        }
      ],
      "name": "setPauseGuardian",
      "outputs": [],
      "stateMutability": "nonpayable",
      "type": "function"
    },
    {
      "inputs": [
        {
          "internalType": "address[]",
          "name": "_address",
          "type": "address[]"
        },
        {
          "internalType": "bool",
          "name": "_state",
          "type": "bool"
        }
      ],
      "name": "setSomePause",
      "outputs": [
        {
          "internalType": "bool",
          "name": "",
          "type": "bool"
        }
      ],
      "stateMutability": "nonpayable",
      "type": "function"
    },
    {
      "inputs": [],
      "name": "strategyFactory",
      "outputs": [
        {
          "internalType": "address",
          "name": "",
          "type": "address"
        }
      ],
      "stateMutability": "view",
      "type": "function"
    },
    {
      "inputs": [],
      "name": "strategyNFT",
      "outputs": [
        {
          "internalType": "address",
          "name": "",
          "type": "address"
        }
      ],
      "stateMutability": "view",
      "type": "function"
    },
    {
      "inputs": [
        {
          "internalType": "address",
          "name": "newOwner",
          "type": "address"
        }
      ],
      "name": "transferOwnership",
      "outputs": [],
      "stateMutability": "nonpayable",
      "type": "function"
    },
    {
      "inputs": [],
      "name": "treasury",
      "outputs": [
        {
          "internalType": "address",
          "name": "",
          "type": "address"
        }
      ],
      "stateMutability": "view",
      "type": "function"
    },
    {
      "inputs": [
        {
          "internalType": "address",
          "name": "",
          "type": "address"
        }
      ],
      "name": "validReserveAsset",
      "outputs": [
        {
          "internalType": "bool",
          "name": "",
          "type": "bool"
        }
      ],
      "stateMutability": "view",
      "type": "function"
    },
    {
      "stateMutability": "payable",
      "type": "receive"
    }
  ],
  "transactionHash": "0x776495a11fb70014bdd6d856d1bac8e8535dceb39488b73d2a94ad3c96268172",
  "args": [],
  "numDeployments": 1,
  "solcInputHash": "10c7fa4d398948bcf7cd48abe3dad36c",
  "bytecode": "0x608060405234801561001057600080fd5b506153c1806100206000396000f3fe6080604052600436106104695760003560e01c80637f80e05b11610243578063c2d38e7911610143578063ea29b188116100bb578063f2fde38b1161008a578063f58d1c941161006f578063f58d1c94146112d5578063f948e50a146112ea578063f979cdd91461133857610470565b8063f2fde38b1461128d578063f4afedd1146112c057610470565b8063ea29b188146111df578063ead4c1cf14611212578063f04ec54714611227578063f05017eb1461125a57610470565b8063d6a45aa511610112578063dfaef58f116100f7578063dfaef58f14611164578063e6e6051314611197578063e973f4e9146111ac57610470565b8063d6a45aa51461113a578063daec2a1a1461114f57610470565b8063c2d38e79146110a1578063c80aad63146110d4578063c8ed947f146110e9578063d276cbdc146110fe57610470565b80639e18eb39116101d6578063b0ecdf80116101a5578063bb664c011161018a578063bb664c0114610fd6578063bc09228314611009578063bc819ea61461103c57610470565b8063b0ecdf8014610f70578063b82efd4f14610fa357610470565b80639e18eb3914610ee95780639ef3571014610f13578063ad5c464814610f28578063ad9d791d14610f3d57610470565b806388e8dc751161021257806388e8dc7514610e535780638979042914610e865780638d97e04314610ebf5780638da5cb5b14610ed457610470565b80637f80e05b14610dc35780638129fc1c14610dd857806385d5d03614610ded578063867b6efa14610e2057610470565b80633f2a5540116103695780635b14f183116102e157806362a4bf05116102b057806369a6b3db1161029557806369a6b3db14610d6d578063715018a614610d995780637be8ec5014610dae57610470565b806362a4bf0514610d255780636968551314610d3a57610470565b80635b14f18314610c7f5780635dc2803a14610cb25780635e192de614610cdd57806361d027b314610d1057610470565b8063452a932011610338578063561614721161031d578063561614721461090c5780635618b5b214610c37578063568c081314610c6a57610470565b8063452a9320146108c457806348bde20c146108d957610470565b80633f2a5540146108165780634032b72b1461082b578063411137c31461085e578063447a13661461089157610470565b806327e4acc7116103fc578063314a83c9116103cb57806336c148b7116103b057806336c148b7146107c257806337973e5f146107d7578063393bfe491461080157610470565b8063314a83c9146106df578063364d11811461078f57610470565b806327e4acc714610679578063294d237c1461068e57806330944c62146106a357806331375477146106b857610470565b806316d9c0701161043857806316d9c070146105d457806318b9e25214610607578063201041981461063a5780632630c12f1461066457610470565b80630306f6d2146104755780630ebdb9a21461053b57806313bc6d4b1461056c57806314ae9f2e1461059f57610470565b3661047057005b600080fd5b34801561048157600080fd5b506105276004803603604081101561049857600080fd5b8101906020810181356401000000008111156104b357600080fd5b8201836020820111156104c557600080fd5b803590602001918460208302840111640100000000831117156104e757600080fd5b919080806020026020016040519081016040528093929190818152602001838360200280828437600092019190915250929550505050351515905061136b565b604080519115158252519081900360200190f35b34801561054757600080fd5b5061055061155e565b604080516001600160a01b039092168252519081900360200190f35b34801561057857600080fd5b506105276004803603602081101561058f57600080fd5b50356001600160a01b0316611572565b3480156105ab57600080fd5b506105d2600480360360208110156105c257600080fd5b50356001600160a01b0316611993565b005b3480156105e057600080fd5b506105d2600480360360208110156105f757600080fd5b50356001600160a01b0316611a83565b34801561061357600080fd5b506105d26004803603602081101561062a57600080fd5b50356001600160a01b0316611c1d565b34801561064657600080fd5b506105506004803603602081101561065d57600080fd5b5035611f0e565b34801561067057600080fd5b50610550611f2e565b34801561068557600080fd5b50610527611f3d565b34801561069a57600080fd5b50610550611f46565b3480156106af57600080fd5b50610527611f55565b3480156106c457600080fd5b506106cd611f63565b60408051918252519081900360200190f35b3480156106eb57600080fd5b506105d26004803603602081101561070257600080fd5b81019060208101813564010000000081111561071d57600080fd5b82018360208201111561072f57600080fd5b8035906020019184602083028401116401000000008311171561075157600080fd5b919080806020026020016040519081016040528093929190818152602001838360200280828437600092019190915250929550611f69945050505050565b34801561079b57600080fd5b50610527600480360360208110156107b257600080fd5b50356001600160a01b0316612027565b3480156107ce57600080fd5b506105d261203c565b3480156107e357600080fd5b50610550600480360360208110156107fa57600080fd5b5035612105565b34801561080d57600080fd5b5061052761212f565b34801561082257600080fd5b50610550612138565b34801561083757600080fd5b506105d26004803603602081101561084e57600080fd5b50356001600160a01b0316612147565b34801561086a57600080fd5b506105276004803603602081101561088157600080fd5b50356001600160a01b031661224f565b34801561089d57600080fd5b50610527600480360360208110156108b457600080fd5b50356001600160a01b031661226d565b3480156108d057600080fd5b50610550612282565b3480156108e557600080fd5b506105d2600480360360208110156108fc57600080fd5b50356001600160a01b0316612296565b610550600480360361012081101561092357600080fd5b6001600160a01b03823516919081019060408101602082013564010000000081111561094e57600080fd5b82018360208201111561096057600080fd5b8035906020019184600183028401116401000000008311171561098257600080fd5b91908080601f01602080910402602001604051908101604052809392919081815260200183838082843760009201919091525092959493602081019350359150506401000000008111156109d557600080fd5b8201836020820111156109e757600080fd5b80359060200191846001830284011164010000000083111715610a0957600080fd5b91908080601f0160208091040260200160405190810160405280939291908181526020018383808284376000920191909152509295949360208101935035915050640100000000811115610a5c57600080fd5b820183602082011115610a6e57600080fd5b80359060200191846001830284011164010000000083111715610a9057600080fd5b91908080601f01602080910402602001604051908101604052809392919081815260200183838082843760009201919091525092958435959094909350604081019250602001359050640100000000811115610aeb57600080fd5b820183602082011115610afd57600080fd5b80359060200191846020830284011164010000000083111715610b1f57600080fd5b91939092823592604081019060200135640100000000811115610b4157600080fd5b820183602082011115610b5357600080fd5b80359060200191846020830284011164010000000083111715610b7557600080fd5b9190808060200260200160405190810160405280939291908181526020018383602002808284376000920191909152509295949360208101935035915050640100000000811115610bc557600080fd5b820183602082011115610bd757600080fd5b80359060200191846020830284011164010000000083111715610bf957600080fd5b919080806020026020016040519081016040528093929190818152602001838360200280828437600092019190915250929550612401945050505050565b348015610c4357600080fd5b506105d260048036036020811015610c5a57600080fd5b50356001600160a01b0316612b71565b348015610c7657600080fd5b506106cd612d07565b348015610c8b57600080fd5b5061052760048036036020811015610ca257600080fd5b50356001600160a01b0316612d0d565b348015610cbe57600080fd5b50610cc7612d3b565b6040805160ff9092168252519081900360200190f35b348015610ce957600080fd5b5061052760048036036020811015610d0057600080fd5b50356001600160a01b0316612d40565b348015610d1c57600080fd5b50610550612d55565b348015610d3157600080fd5b50610527612d64565b348015610d4657600080fd5b506105d260048036036020811015610d5d57600080fd5b50356001600160a01b0316612d6d565b348015610d7957600080fd5b5061052760048036036020811015610d9057600080fd5b50351515612ea0565b348015610da557600080fd5b506105d261300a565b348015610dba57600080fd5b506105506130b6565b348015610dcf57600080fd5b506105276130ce565b348015610de457600080fd5b506105d26130dd565b348015610df957600080fd5b506105d260048036036020811015610e1057600080fd5b50356001600160a01b03166131d2565b348015610e2c57600080fd5b506105d260048036036020811015610e4357600080fd5b50356001600160a01b03166132e4565b348015610e5f57600080fd5b506105d260048036036020811015610e7657600080fd5b50356001600160a01b03166133f9565b348015610e9257600080fd5b506105d260048036036040811015610ea957600080fd5b506001600160a01b038135169060200135613591565b348015610ecb57600080fd5b50610550613709565b348015610ee057600080fd5b50610550613721565b348015610ef557600080fd5b5061055060048036036020811015610f0c57600080fd5b5035613730565b348015610f1f57600080fd5b50610550613740565b348015610f3457600080fd5b5061055061374f565b348015610f4957600080fd5b5061052760048036036020811015610f6057600080fd5b50356001600160a01b0316613767565b348015610f7c57600080fd5b5061052760048036036020811015610f9357600080fd5b50356001600160a01b031661377c565b348015610faf57600080fd5b506105d260048036036020811015610fc657600080fd5b50356001600160a01b0316613791565b348015610fe257600080fd5b506105d260048036036020811015610ff957600080fd5b50356001600160a01b03166138c3565b34801561101557600080fd5b506105d26004803603602081101561102c57600080fd5b50356001600160a01b03166139f6565b34801561104857600080fd5b50611051613b94565b60408051602080825283518183015283519192839290830191858101910280838360005b8381101561108d578181015183820152602001611075565b505050509050019250505060405180910390f35b3480156110ad57600080fd5b506105d2600480360360208110156110c457600080fd5b50356001600160a01b0316613bf6565b3480156110e057600080fd5b50610550613d94565b3480156110f557600080fd5b50610550613da3565b34801561110a57600080fd5b506105d26004803603604081101561112157600080fd5b50803560ff1690602001356001600160a01b0316613db2565b34801561114657600080fd5b50610550613fcc565b34801561115b57600080fd5b50611051613fdb565b34801561117057600080fd5b506105d26004803603602081101561118757600080fd5b50356001600160a01b031661403b565b3480156111a357600080fd5b5061055061416e565b3480156111b857600080fd5b506105d2600480360360208110156111cf57600080fd5b50356001600160a01b031661417d565b3480156111eb57600080fd5b506105d26004803603602081101561120257600080fd5b50356001600160a01b03166142b0565b34801561121e57600080fd5b506105506143a8565b34801561123357600080fd5b506105d26004803603602081101561124a57600080fd5b50356001600160a01b03166143b7565b34801561126657600080fd5b506106cd6004803603602081101561127d57600080fd5b50356001600160a01b03166145e4565b34801561129957600080fd5b506105d2600480360360208110156112b057600080fd5b50356001600160a01b03166145f6565b3480156112cc57600080fd5b506105506146f9565b3480156112e157600080fd5b50610550614708565b3480156112f657600080fd5b506112ff614717565b604051808261028080838360005b8381101561132557818101518382015260200161130d565b5050505090500191505060405180910390f35b34801561134457600080fd5b506105276004803603602081101561135b57600080fd5b50356001600160a01b0316614757565b60995460009061010090046001600160a01b03163314806113a4575061138f613721565b6001600160a01b0316336001600160a01b0316145b6113df5760405162461bcd60e51b815260040180806020018281038252603481526020018061524c6034913960400191505060405180910390fd5b6113e7613721565b6001600160a01b0316336001600160a01b0316148061140857506001821515145b611459576040805162461bcd60e51b815260206004820152601660248201527f6f6e6c792061646d696e2063616e20756e706175736500000000000000000000604482015290519081900360640190fd5b60005b83518110156115535782609a600086848151811061147657fe5b60200260200101516001600160a01b03166001600160a01b0316815260200190815260200160002060006101000a81548160ff0219169083151502179055507f14fc4a89e124f9817afd6bc9b8270d50250d5ff6f0711b687f6fa4c34decf1cd8482815181106114e257fe5b6020026020010151846040518080602001846001600160a01b031681526020018315158152602001828103825260198152602001807f477561726469616e20696e646976696475616c20706175736500000000000000815250602001935050505060405180910390a160010161145c565b508190505b92915050565b609b5461010090046001600160a01b031681565b60006001600160a01b03821661158a5750600061198e565b6001600160a01b03821660009081526086602052604090205460ff16806115be57506068546001600160a01b038381169116145b806115d657506069546001600160a01b038381169116145b806115ee5750606a546001600160a01b038381169116145b8061160657506071546001600160a01b038381169116145b8061161e5750606d546001600160a01b038381169116145b806116365750606b546001600160a01b038381169116145b806116595750816001600160a01b031661164e613721565b6001600160a01b0316145b8061166c57506001600160a01b03821630145b8061167b575061167b82614775565b80611803575060866000836001600160a01b03166356ba88b86040518163ffffffff1660e01b815260040160206040518083038186803b1580156116be57600080fd5b505afa1580156116d2573d6000803e3d6000fd5b505050506040513d60208110156116e857600080fd5b50516001600160a01b0316815260208101919091526040016000205460ff1680156118035750816001600160a01b03166356ba88b86040518163ffffffff1660e01b815260040160206040518083038186803b15801561174757600080fd5b505afa15801561175b573d6000803e3d6000fd5b505050506040513d602081101561177157600080fd5b5051604080517f3a8219250000000000000000000000000000000000000000000000000000000081526001600160a01b03858116600483015291519190921691633a821925916024808301926020929190829003018186803b1580156117d657600080fd5b505afa1580156117ea573d6000803e3d6000fd5b505050506040513d602081101561180057600080fd5b50515b8061198b575060866000836001600160a01b03166356ba88b86040518163ffffffff1660e01b815260040160206040518083038186803b15801561184657600080fd5b505afa15801561185a573d6000803e3d6000fd5b505050506040513d602081101561187057600080fd5b50516001600160a01b0316815260208101919091526040016000205460ff16801561198b5750816001600160a01b03166356ba88b86040518163ffffffff1660e01b815260040160206040518083038186803b1580156118cf57600080fd5b505afa1580156118e3573d6000803e3d6000fd5b505050506040513d60208110156118f957600080fd5b5051604080517f06061dfa0000000000000000000000000000000000000000000000000000000081526001600160a01b038581166004830152915191909216916306061dfa916024808301926020929190829003018186803b15801561195e57600080fd5b505afa158015611972573d6000803e3d6000fd5b505050506040513d602081101561198857600080fd5b50515b90505b919050565b61199b6147c5565b6001600160a01b03166119ac613721565b6001600160a01b0316146119f5576040805162461bcd60e51b815260206004820181905260248201526000805160206152ae833981519152604482015290519081900360640190fd5b6001600160a01b03811660009081526089602052604090205460ff16611a62576040805162461bcd60e51b815260206004820152601560248201527f4b65657065722069732077686974656c69737465640000000000000000000000604482015290519081900360640190fd5b6001600160a01b03166000908152608960205260409020805460ff19169055565b611a8b6147c5565b6001600160a01b0316611a9c613721565b6001600160a01b031614611ae5576040805162461bcd60e51b815260206004820181905260248201526000805160206152ae833981519152604482015290519081900360640190fd5b609b546001600160a01b03828116610100909204161415611b4d576040805162461bcd60e51b815260206004820152601a60248201527f4d617264756b204761746520616c726561647920657869737473000000000000604482015290519081900360640190fd5b6001600160a01b038116611ba8576040805162461bcd60e51b815260206004820152601d60248201527f4d617264756b2047617465206f7261636c65206d757374206578697374000000604482015290519081900360640190fd5b609b80546001600160a01b0383811661010081810274ffffffffffffffffffffffffffffffffffffffff001985161790945560408051918252939092041660208201819052825190927f345fc59169aa2ad8a518c40e50702bc683495ac687515df9441cabc39eef54ff928290030190a15050565b611c256147c5565b6001600160a01b0316611c36613721565b6001600160a01b031614611c7f576040805162461bcd60e51b815260206004820181905260248201526000805160206152ae833981519152604482015290519081900360640190fd5b6001600160a01b03811660009081526086602052604090205460ff16611cec576040805162461bcd60e51b815260206004820152601560248201527f47617264656e20646f6573206e6f742065786973740000000000000000000000604482015290519081900360640190fd5b806001600160a01b031663b49a60bb6040518163ffffffff1660e01b815260040160006040518083038186803b158015611d2557600080fd5b505afa158015611d39573d6000803e3d6000fd5b505050506040513d6000823e601f3d908101601f191682016040526020811015611d6257600080fd5b8101908080516040519392919084640100000000821115611d8257600080fd5b908301906020820185811115611d9757600080fd5b8251866020820283011164010000000082111715611db457600080fd5b82525081516020918201928201910280838360005b83811015611de1578181015183820152602001611dc9565b5050505090500160405250505051600014611e43576040805162461bcd60e51b815260206004820152601d60248201527f47617264656e2068617320616374697665207374726174656769657321000000604482015290519081900360640190fd5b611eb0816065805480602002602001604051908101604052809291908181526020018280548015611e9d57602002820191906000526020600020905b81546001600160a01b03168152600190910190602001808311611e7f575b50505050506147c990919063ffffffff16565b8051611ec491606591602090910190615136565b506001600160a01b038116600081815260866020526040808220805460ff19169055517fb52dedfe431c6250e847edee5dca0a14cfaad5c6626218f99bd60c8ad9939a9f9190a250565b60728160148110611f1e57600080fd5b01546001600160a01b0316905081565b6069546001600160a01b031681565b60995460ff1681565b6068546001600160a01b031681565b609354610100900460ff1681565b60955481565b611f716147c5565b6001600160a01b0316611f82613721565b6001600160a01b031614611fcb576040805162461bcd60e51b815260206004820181905260248201526000805160206152ae833981519152604482015290519081900360640190fd5b60005b815181101561202357600160896000848481518110611fe957fe5b6020908102919091018101516001600160a01b03168252810191909152604001600020805460ff1916911515919091179055600101611fce565b5050565b60866020526000908152604090205460ff1681565b6120446147c5565b6001600160a01b0316612055613721565b6001600160a01b03161461209e576040805162461bcd60e51b815260206004820181905260248201526000805160206152ae833981519152604482015290519081900360640190fd5b6361d00a0042116120f6576040805162461bcd60e51b815260206004820152601f60248201527f5472616e73666572732063616e6e6f7420626520656e61626c65642079657400604482015290519081900360640190fd5b6093805460ff19166001179055565b6066818154811061211557600080fd5b6000918252602090912001546001600160a01b0316905081565b60935460ff1681565b606b546001600160a01b031681565b61214f6147c5565b6001600160a01b0316612160613721565b6001600160a01b0316146121a9576040805162461bcd60e51b815260206004820181905260248201526000805160206152ae833981519152604482015290519081900360640190fd5b6001600160a01b03811660009081526089602052604090205460ff161580156121da57506001600160a01b03811615155b61222b576040805162461bcd60e51b815260206004820152601160248201527f496e636f72726563742061646472657373000000000000000000000000000000604482015290519081900360640190fd5b6001600160a01b03166000908152608960205260409020805460ff19166001179055565b6001600160a01b031660009081526089602052604090205460ff1690565b609a6020526000908152604090205460ff1681565b60995461010090046001600160a01b031681565b60995461010090046001600160a01b03163314806122cc57506122b7613721565b6001600160a01b0316336001600160a01b0316145b6123075760405162461bcd60e51b81526004018080602001828103825260378152602001806152ce6037913960400191505060405180910390fd5b61230f613721565b6001600160a01b0316336001600160a01b0316148061233657506001600160a01b03811615155b612387576040805162461bcd60e51b815260206004820152601e60248201527f477561726469616e2063616e6e6f742072656d6f76652068696d73656c660000604482015290519081900360640190fd5b609980546001600160a01b0383811661010081810274ffffffffffffffffffffffffffffffffffffffff00198516179094556040805194909304919091168084526020840191909152815190927f0613b6ee6a04f0d09f390e4d9318894b9f6ac7fd83897cd8d18896ba579c401e92908290030190a15050565b6071546000906001600160a01b0316612461576040805162461bcd60e51b815260206004820181905260248201527f4e65656420612064656661756c7420747261646520696e746567726174696f6e604482015290519081900360640190fd5b609b5461010090046001600160a01b03161580159061248a5750606e546001600160a01b031615155b80156124a05750606d546001600160a01b031615155b80156124b657506068546001600160a01b031615155b80156124cc5750608b546001600160a01b031615155b61251d576040805162461bcd60e51b815260206004820152601a60248201527f506172616d6574657273206e6f7420696e697469616c697a6564000000000000604482015290519081900360640190fd5b609b54604080517f7804a5dc00000000000000000000000000000000000000000000000000000000815233600482015290516101009092046001600160a01b031691637804a5dc91602480820192602092909190829003018186803b15801561258557600080fd5b505afa158015612599573d6000803e3d6000fd5b505050506040513d60208110156125af57600080fd5b5051806125be575060995460ff165b6125f95760405162461bcd60e51b815260040180806020018281038252602781526020018061532f6027913960400191505060405180910390fd5b6000606a60009054906101000a90046001600160a01b03166001600160a01b0316638853932d8d338e8e8e8e8e8e8e8e6040518b63ffffffff1660e01b8152600401808b6001600160a01b031681526020018a6001600160a01b03168152602001806020018060200180602001898152602001806020018781526020018060200186810386528e818151815260200191508051906020019080838360005b838110156126af578181015183820152602001612697565b50505050905090810190601f1680156126dc5780820380516001836020036101000a031916815260200191505b5086810385528d5181528d516020918201918f019080838360005b8381101561270f5781810151838201526020016126f7565b50505050905090810190601f16801561273c5780820380516001836020036101000a031916815260200191505b5086810384528c5181528c516020918201918e019080838360005b8381101561276f578181015183820152602001612757565b50505050905090810190601f16801561279c5780820380516001836020036101000a031916815260200191505b5086810383528a8a828181526020019250602002808284376000838201819052601f909101601f19169092018881038452895181528951602091820193828c0193509102908190849084905b838110156128005781810151838201526020016127e8565b505050509050019f50505050505050505050505050505050602060405180830381600087803b15801561283257600080fd5b505af1158015612846573d6000803e3d6000fd5b505050506040513d602081101561285c57600080fd5b505190506001600160a01b038c1673c02aaa39b223fe8d0a0e5c4f27ead9083c756cc214158061288a575034155b156128b8576128a46001600160a01b038d16333088614846565b6128b86001600160a01b038d1682876148d4565b6001600160a01b03811660009081526086602052604090205460ff1615612926576040805162461bcd60e51b815260206004820152601560248201527f47617264656e20616c7265616479206578697374730000000000000000000000604482015290519081900360640190fd5b6001600160a01b038116600081815260866020526040808220805460ff191660019081179091556065805480830182559084527f8ff97419363ffd7000167f130ef7168fbea05faf9251824ca5043f113cc6a7c70180546001600160a01b0319168517905581517f695f3f5d000000000000000000000000000000000000000000000000000000008152600481018a9052602481018a90523360448201526064810191909152905163695f3f5d9234926084808201939182900301818588803b1580156129f257600080fd5b505af1158015612a06573d6000803e3d6000fd5b505050505082600081518110612a1857fe5b60200260200101516000141580612a44575082600181518110612a3757fe5b6020026020010151600014155b80612a64575082600281518110612a5757fe5b6020026020010151600014155b15612b2c57606b5483516001600160a01b03909116906380334dbe9083908690600090612a8d57fe5b602002602001015186600181518110612aa257fe5b602002602001015187600281518110612ab757fe5b60200260200101516040518563ffffffff1660e01b815260040180856001600160a01b03168152602001848152602001838152602001828152602001945050505050600060405180830381600087803b158015612b1357600080fd5b505af1158015612b27573d6000803e3d6000fd5b505050505b60405133906001600160a01b038316907f3f9c315348eaae54d760380967a68b458af53312321328f584799f93283dc1de90600090a39b9a5050505050505050505050565b612b79613721565b6001600160a01b0316336001600160a01b03161480612bab5750337397fcc2ae862d03143b393e9fa73a32b563d57a6e145b612bf4576040805162461bcd60e51b81526020600482015260156024820152744e6f7420656e6f7567682070726976696c6567657360581b604482015290519081900360640190fd5b6001600160a01b038116612c47576040805162461bcd60e51b8152602060048201526015602482015274041646472657373206d757374206e6f74206265203605c1b604482015290519081900360640190fd5b6071546001600160a01b0382811691161415612caa576040805162461bcd60e51b815260206004820152601960248201527f41646472657373206d75737420626520646966666572656e7400000000000000604482015290519081900360640190fd5b607180546001600160a01b038381166001600160a01b031983168117909355604080519190921680825291519192917fdc1fc9970870c3bb1ad5fce4186165c260c6492487c580adc8b8e361055ac9889181900360200190a25050565b60945481565b609b5460009060ff168061198b5750506001600160a01b03166000908152609a602052604090205460ff1690565b601481565b60896020526000908152604090205460ff1681565b608b546001600160a01b031681565b609b5460ff1681565b612d75613721565b6001600160a01b0316336001600160a01b03161480612da75750337397fcc2ae862d03143b393e9fa73a32b563d57a6e145b612df0576040805162461bcd60e51b81526020600482015260156024820152744e6f7420656e6f7567682070726976696c6567657360581b604482015290519081900360640190fd5b6001600160a01b038116612e43576040805162461bcd60e51b8152602060048201526015602482015274041646472657373206d757374206e6f74206265203605c1b604482015290519081900360640190fd5b606d80546001600160a01b038381166001600160a01b031983168117909355604080519190921680825291519192917f57c1ea229271e944c7d975557caf535c1c974708de760613121827217db4ce8f9181900360200190a25050565b60995460009061010090046001600160a01b0316331480612ed95750612ec4613721565b6001600160a01b0316336001600160a01b0316145b612f145760405162461bcd60e51b81526004018080602001828103825260308152602001806151f66030913960400191505060405180910390fd5b612f1c613721565b6001600160a01b0316336001600160a01b03161480612f3d57506001821515145b612f8e576040805162461bcd60e51b815260206004820152601660248201527f6f6e6c792061646d696e2063616e20756e706175736500000000000000000000604482015290519081900360640190fd5b609b805483151560ff1990911681179091556040805160208101929092528082526015828201527f477561726469616e20676c6f62616c20706175736500000000000000000000006060830152517fef159d9a32b2472e32b098f954f3ce62d232939f1c207070b584df1814de2de09181900360800190a15090565b6130126147c5565b6001600160a01b0316613023613721565b6001600160a01b03161461306c576040805162461bcd60e51b815260206004820181905260248201526000805160206152ae833981519152604482015290519081900360640190fd5b6033546040516000916001600160a01b0316907f8be0079c531659141344cd1fd0a4f28419497f9722a3daafe3b4186f6b6457e0908390a3603380546001600160a01b0319169055565b73f4dc48d260c93ad6a96c5ce563e70ca578987c7481565b60935462010000900460ff1681565b600054610100900460ff16806130f657506130f6614a33565b80613104575060005460ff16155b61313f5760405162461bcd60e51b815260040180806020018281038252602e815260200180615280602e913960400191505060405180910390fd5b600054610100900460ff1615801561316a576000805460ff1961ff0019909116610100171660011790555b613172614a44565b6611c37937e0800060955566b1a2bc2ec500006094556000609681905560975560646098556099805460ff191690556093805461ff001962ff00001990911662010000171661010017905580156131cf576000805461ff00191690555b50565b6131da6147c5565b6001600160a01b03166131eb613721565b6001600160a01b031614613234576040805162461bcd60e51b815260206004820181905260248201526000805160206152ae833981519152604482015290519081900360640190fd5b6001600160a01b038116613287576040805162461bcd60e51b8152602060048201526015602482015274041646472657373206d757374206e6f74206265203605c1b604482015290519081900360640190fd5b606b80546001600160a01b038381166001600160a01b031983168117909355604080519190921680825291519192917f52cd8e0a7f86e9df123b3357ab2ee1c4cd0f5ac84ca8c98d93beb2679b2bb8069181900360200190a25050565b6132ec6147c5565b6001600160a01b03166132fd613721565b6001600160a01b031614613346576040805162461bcd60e51b815260206004820181905260248201526000805160206152ae833981519152604482015290519081900360640190fd5b6001600160a01b038116613399576040805162461bcd60e51b8152602060048201526015602482015274041646472657373206d757374206e6f74206265203605c1b604482015290519081900360640190fd5b608b80546001600160a01b038381166001600160a01b03198316811790935560408051938452911660208301819052815190927f8c3aa5f43a388513435861bf27dfad7829cd248696fed367c62d441f6295449692908290030190a15050565b6134016147c5565b6001600160a01b0316613412613721565b6001600160a01b03161461345b576040805162461bcd60e51b815260206004820181905260248201526000805160206152ae833981519152604482015290519081900360640190fd5b6001600160a01b03811660009081526087602052604090205460ff166134c8576040805162461bcd60e51b815260206004820152601c60248201527f5265736572766520617373657420646f6573206e6f7420657869737400000000604482015290519081900360640190fd5b613533816066805480602002602001604051908101604052809291908181526020018280548015611e9d576020028201919060005260206000209081546001600160a01b03168152600190910190602001808311611e7f5750505050506147c990919063ffffffff16565b805161354791606691602090910190615136565b506001600160a01b038116600081815260876020526040808220805460ff19169055517f2a4ae73bc76175e864e83c9843f11cf15a1bfcfa73152fb96d133416efee48ed9190a250565b6135996147c5565b6001600160a01b03166135aa613721565b6001600160a01b0316146135f3576040805162461bcd60e51b815260206004820181905260248201526000805160206152ae833981519152604482015290519081900360640190fd5b60008111613648576040805162461bcd60e51b815260206004820152601d60248201527f5f6d696e5269736b79506169724c6971756964697479457468203e2030000000604482015290519081900360640190fd5b6001600160a01b03821660009081526087602052604090205460ff166136b5576040805162461bcd60e51b815260206004820152601b60248201527f4e6565647320746f20626520612076616c696420726573657276650000000000604482015290519081900360640190fd5b6001600160a01b0382166000818152608a6020908152604091829020849055815184815291517fb78c51bc9bffa228585b84c38a0234fe0a48eb7aeb9f7a6a7a46f0ddd3270dd59281900390910190a25050565b7397fcc2ae862d03143b393e9fa73a32b563d57a6e81565b600061372b614af5565b905090565b6065818154811061211557600080fd5b606d546001600160a01b031681565b73c02aaa39b223fe8d0a0e5c4f27ead9083c756cc281565b60886020526000908152604090205460ff1681565b60876020526000908152604090205460ff1681565b613799613721565b6001600160a01b0316336001600160a01b031614806137cb5750337397fcc2ae862d03143b393e9fa73a32b563d57a6e145b613814576040805162461bcd60e51b81526020600482015260156024820152744e6f7420656e6f7567682070726976696c6567657360581b604482015290519081900360640190fd5b6001600160a01b038116613867576040805162461bcd60e51b8152602060048201526015602482015274041646472657373206d757374206e6f74206265203605c1b604482015290519081900360640190fd5b606f80546001600160a01b038381166001600160a01b031983168117909355604080519190921680825291519192917e40167ea3901ef812c672b081813db3c0fc117c302ace151f1f9a907906e1669181900360200190a25050565b6138cb613721565b6001600160a01b0316336001600160a01b031614806138fd5750337397fcc2ae862d03143b393e9fa73a32b563d57a6e145b613946576040805162461bcd60e51b81526020600482015260156024820152744e6f7420656e6f7567682070726976696c6567657360581b604482015290519081900360640190fd5b6001600160a01b038116613999576040805162461bcd60e51b8152602060048201526015602482015274041646472657373206d757374206e6f74206265203605c1b604482015290519081900360640190fd5b609c80546001600160a01b038381166001600160a01b031983168117909355604080519190921680825291519192917f94bbd8546306809f8c10cb17628a431e44d23cd7414035173915e71560575b319181900360200190a25050565b6139fe613721565b6001600160a01b0316336001600160a01b03161480613a305750337397fcc2ae862d03143b393e9fa73a32b563d57a6e145b613a79576040805162461bcd60e51b81526020600482015260156024820152744e6f7420656e6f7567682070726976696c6567657360581b604482015290519081900360640190fd5b6068546001600160a01b0382811691161415613adc576040805162461bcd60e51b815260206004820152601c60248201527f47617264656e2056616c75657220616c72656164792065786973747300000000604482015290519081900360640190fd5b6001600160a01b038116613b37576040805162461bcd60e51b815260206004820152601860248201527f47617264656e2056616c756572206d7573742065786973740000000000000000604482015290519081900360640190fd5b606880546001600160a01b038381166001600160a01b031983168117909355604080519190921680825291519192917fb89b871cab0fe1b2d8c7cc3e16640ef9a9bf67f031e44947331820e025bf69479181900360200190a25050565b60606066805480602002602001604051908101604052809291908181526020018280548015613bec57602002820191906000526020600020905b81546001600160a01b03168152600190910190602001808311613bce575b5050505050905090565b613bfe613721565b6001600160a01b0316336001600160a01b03161480613c305750337397fcc2ae862d03143b393e9fa73a32b563d57a6e145b613c79576040805162461bcd60e51b81526020600482015260156024820152744e6f7420656e6f7567682070726976696c6567657360581b604482015290519081900360640190fd5b6069546001600160a01b0382811691161415613cdc576040805162461bcd60e51b815260206004820152601b60248201527f5072696365206f7261636c6520616c7265616479206578697374730000000000604482015290519081900360640190fd5b6001600160a01b038116613d37576040805162461bcd60e51b815260206004820152601760248201527f5072696365206f7261636c65206d757374206578697374000000000000000000604482015290519081900360640190fd5b606980546001600160a01b038381166001600160a01b031983168117909355604080519190921680825291519192917f40bddd72ea96b80dae14e3d13e8ce2c4ecd2500d88c6c0004d24a00deab28f9c9181900360200190a25050565b606a546001600160a01b031681565b606c546001600160a01b031681565b613dba613721565b6001600160a01b0316336001600160a01b03161480613dec5750337397fcc2ae862d03143b393e9fa73a32b563d57a6e145b613e35576040805162461bcd60e51b81526020600482015260156024820152744e6f7420656e6f7567682070726976696c6567657360581b604482015290519081900360640190fd5b601460ff831610613e8d576040805162461bcd60e51b815260206004820152601660248201527f4d6178206f7065726174696f6e73207265616368656400000000000000000000604482015290519081900360640190fd5b806001600160a01b031660728360ff1660148110613ea757fe5b01546001600160a01b03161415613f05576040805162461bcd60e51b815260206004820152601560248201527f4f7065726174696f6e20616c7265616479207365740000000000000000000000604482015290519081900360640190fd5b6001600160a01b038116613f60576040805162461bcd60e51b815260206004820152601d60248201527f4f7065726174696f6e2061646472657373206d7573742065786973742e000000604482015290519081900360640190fd5b8060728360ff1660148110613f7157fe5b0180546001600160a01b039283166001600160a01b03199091161790556040805191831682525160ff8416917f2dc23b4bb2132388a8a9f2d4a7ec650d42dcd4c1c63e6495756fa25e8ecc6abd919081900360200190a25050565b606f546001600160a01b031681565b60606065805480602002602001604051908101604052809291908181526020018280548015613bec576020028201919060005260206000209081546001600160a01b03168152600190910190602001808311613bce575050505050905090565b614043613721565b6001600160a01b0316336001600160a01b031614806140755750337397fcc2ae862d03143b393e9fa73a32b563d57a6e145b6140be576040805162461bcd60e51b81526020600482015260156024820152744e6f7420656e6f7567682070726976696c6567657360581b604482015290519081900360640190fd5b6001600160a01b038116614111576040805162461bcd60e51b8152602060048201526015602482015274041646472657373206d757374206e6f74206265203605c1b604482015290519081900360640190fd5b606e80546001600160a01b038381166001600160a01b031983168117909355604080519190921680825291519192917f578086cc379999d712cf9ea4c177a02b092c028a84cf82d2dd590f2606b3169f9181900360200190a25050565b6071546001600160a01b031681565b614185613721565b6001600160a01b0316336001600160a01b031614806141b75750337397fcc2ae862d03143b393e9fa73a32b563d57a6e145b614200576040805162461bcd60e51b81526020600482015260156024820152744e6f7420656e6f7567682070726976696c6567657360581b604482015290519081900360640190fd5b6001600160a01b038116614253576040805162461bcd60e51b8152602060048201526015602482015274041646472657373206d757374206e6f74206265203605c1b604482015290519081900360640190fd5b606a80546001600160a01b038381166001600160a01b031983168117909355604080519190921680825291519192917f1e3307b8b00f4ec731298a869e9665a2662abd65a0e3fe9dd01fd53c35b0ae939181900360200190a25050565b6142b8613721565b6001600160a01b0316336001600160a01b031614806142ea5750337397fcc2ae862d03143b393e9fa73a32b563d57a6e145b614333576040805162461bcd60e51b81526020600482015260156024820152744e6f7420656e6f7567682070726976696c6567657360581b604482015290519081900360640190fd5b6001600160a01b038116614386576040805162461bcd60e51b8152602060048201526015602482015274041646472657373206d757374206e6f74206265203605c1b604482015290519081900360640190fd5b609d80546001600160a01b0319166001600160a01b0392909216919091179055565b606e546001600160a01b031681565b6143bf6147c5565b6001600160a01b03166143d0613721565b6001600160a01b031614614419576040805162461bcd60e51b815260206004820181905260248201526000805160206152ae833981519152604482015290519081900360640190fd5b6001600160a01b0381161580159061449957506012816001600160a01b031663313ce5676040518163ffffffff1660e01b815260040160206040518083038186803b15801561446757600080fd5b505afa15801561447b573d6000803e3d6000fd5b505050506040513d602081101561449157600080fd5b505160ff1611155b6144ea576040805162461bcd60e51b815260206004820152601160248201527f496e636f72726563742061646472657373000000000000000000000000000000604482015290519081900360640190fd5b6001600160a01b03811660009081526087602052604090205460ff1615614558576040805162461bcd60e51b815260206004820152601b60248201527f5265736572766520617373657420616c72656164792061646465640000000000604482015290519081900360640190fd5b6001600160a01b038116600081815260876020526040808220805460ff1916600190811790915560668054918201815583527f46501879b8ca8525e8c2fd519e2fbfcfa2ebea26501294aa02cbfcfb12e943540180546001600160a01b03191684179055517f9fef46e320a4767c320315d2f597ee79c1e17c3c3330d026764d6a7dac8fcd5c9190a250565b608a6020526000908152604090205481565b6145fe6147c5565b6001600160a01b031661460f613721565b6001600160a01b031614614658576040805162461bcd60e51b815260206004820181905260248201526000805160206152ae833981519152604482015290519081900360640190fd5b6001600160a01b03811661469d5760405162461bcd60e51b81526004018080602001828103825260268152602001806151d06026913960400191505060405180910390fd5b6033546040516001600160a01b038084169216907f8be0079c531659141344cd1fd0a4f28419497f9722a3daafe3b4186f6b6457e090600090a3603380546001600160a01b0319166001600160a01b0392909216919091179055565b609d546001600160a01b031681565b609c546001600160a01b031681565b61471f61519b565b60408051610280810191829052607280546001600160a01b031682529091601490607360208501808311613bce575050505050905090565b6001600160a01b031660009081526087602052604090205460ff1690565b6000805b601460ff821610156147bc5760728160ff166014811061479557fe5b01546001600160a01b03848116911614156147b457600191505061198e565b600101614779565b50600092915050565b3390565b60606000806147d88585614b04565b915091508061482e576040805162461bcd60e51b815260206004820152601560248201527f41646472657373206e6f7420696e2061727261792e0000000000000000000000604482015290519081900360640190fd5b600061483a8684614b6a565b50935061155892505050565b604080516001600160a01b0380861660248301528416604482015260648082018490528251808303909101815260849091019091526020810180517bffffffffffffffffffffffffffffffffffffffffffffffffffffffff167f23b872dd000000000000000000000000000000000000000000000000000000001790526148ce908590614cce565b50505050565b8015806149735750604080517fdd62ed3e0000000000000000000000000000000000000000000000000000000081523060048201526001600160a01b03848116602483015291519185169163dd62ed3e91604480820192602092909190829003018186803b15801561494557600080fd5b505afa158015614959573d6000803e3d6000fd5b505050506040513d602081101561496f57600080fd5b5051155b6149ae5760405162461bcd60e51b81526004018080602001828103825260368152602001806153566036913960400191505060405180910390fd5b604080516001600160a01b038416602482015260448082018490528251808303909101815260649091019091526020810180517bffffffffffffffffffffffffffffffffffffffffffffffffffffffff167f095ea7b300000000000000000000000000000000000000000000000000000000179052614a2e908490614cce565b505050565b6000614a3e30614d7f565b15905090565b600054610100900460ff1680614a5d5750614a5d614a33565b80614a6b575060005460ff16155b614aa65760405162461bcd60e51b815260040180806020018281038252602e815260200180615280602e913960400191505060405180910390fd5b600054610100900460ff16158015614ad1576000805460ff1961ff0019909116610100171660011790555b614ad9614d85565b614ae1614e25565b80156131cf576000805461ff001916905550565b6033546001600160a01b031690565b81516000908190815b81811015614b5757846001600160a01b0316868281518110614b2b57fe5b60200260200101516001600160a01b03161415614b4f57925060019150614b639050565b600101614b0d565b50600019600092509250505b9250929050565b8151606090600090808410614bc6576040805162461bcd60e51b815260206004820152601860248201527f496e646578206d757374206265203c2041206c656e6774680000000000000000604482015290519081900360640190fd5b60006001820367ffffffffffffffff81118015614be257600080fd5b50604051908082528060200260200182016040528015614c0c578160200160208202803683370190505b50905060005b85811015614c5a57868181518110614c2657fe5b6020026020010151828281518110614c3a57fe5b6001600160a01b0390921660209283029190910190910152600101614c12565b50600185015b82811015614cab57868181518110614c7457fe5b6020026020010151826001830381518110614c8b57fe5b6001600160a01b0390921660209283029190910190910152600101614c60565b5080868681518110614cb957fe5b60200260200101519350935050509250929050565b6000614d23826040518060400160405280602081526020017f5361666545524332303a206c6f772d6c6576656c2063616c6c206661696c6564815250856001600160a01b0316614f1e9092919063ffffffff16565b805190915015614a2e57808060200190516020811015614d4257600080fd5b5051614a2e5760405162461bcd60e51b815260040180806020018281038252602a815260200180615305602a913960400191505060405180910390fd5b3b151590565b600054610100900460ff1680614d9e5750614d9e614a33565b80614dac575060005460ff16155b614de75760405162461bcd60e51b815260040180806020018281038252602e815260200180615280602e913960400191505060405180910390fd5b600054610100900460ff16158015614ae1576000805460ff1961ff00199091166101001716600117905580156131cf576000805461ff001916905550565b600054610100900460ff1680614e3e5750614e3e614a33565b80614e4c575060005460ff16155b614e875760405162461bcd60e51b815260040180806020018281038252602e815260200180615280602e913960400191505060405180910390fd5b600054610100900460ff16158015614eb2576000805460ff1961ff0019909116610100171660011790555b6000614ebc6147c5565b603380546001600160a01b0319166001600160a01b038316908117909155604051919250906000907f8be0079c531659141344cd1fd0a4f28419497f9722a3daafe3b4186f6b6457e0908290a35080156131cf576000805461ff001916905550565b6060614f2d8484600085614f37565b90505b9392505050565b606082471015614f785760405162461bcd60e51b81526004018080602001828103825260268152602001806152266026913960400191505060405180910390fd5b614f8185614d7f565b614fd2576040805162461bcd60e51b815260206004820152601d60248201527f416464726573733a2063616c6c20746f206e6f6e2d636f6e7472616374000000604482015290519081900360640190fd5b600080866001600160a01b031685876040518082805190602001908083835b602083106150105780518252601f199092019160209182019101614ff1565b6001836020036101000a03801982511681845116808217855250505050505090500191505060006040518083038185875af1925050503d8060008114615072576040519150601f19603f3d011682016040523d82523d6000602084013e615077565b606091505b5091509150615087828286615092565b979650505050505050565b606083156150a1575081614f30565b8251156150b15782518084602001fd5b8160405162461bcd60e51b81526004018080602001828103825283818151815260200191508051906020019080838360005b838110156150fb5781810151838201526020016150e3565b50505050905090810190601f1680156151285780820380516001836020036101000a031916815260200191505b509250505060405180910390fd5b82805482825590600052602060002090810192821561518b579160200282015b8281111561518b57825182546001600160a01b0319166001600160a01b03909116178255602090920191600190910190615156565b506151979291506151ba565b5090565b6040518061028001604052806014906020820280368337509192915050565b5b8082111561519757600081556001016151bb56fe4f776e61626c653a206e6577206f776e657220697320746865207a65726f20616464726573736f6e6c7920706175736520677561726469616e20616e64206f776e65722063616e20706175736520676c6f62616c6c79416464726573733a20696e73756666696369656e742062616c616e636520666f722063616c6c6f6e6c7920706175736520677561726469616e20616e64206f776e65722063616e20706175736520696e646976696475616c6c79496e697469616c697a61626c653a20636f6e747261637420697320616c726561647920696e697469616c697a65644f776e61626c653a2063616c6c6572206973206e6f7420746865206f776e65726f6e6c7920706175736520677561726469616e20616e64206f776e65722063616e2075706461746520706175736520677561726469616e5361666545524332303a204552433230206f7065726174696f6e20646964206e6f7420737563636565645573657220646f6573206e6f742068617665206372656174696f6e207065726d697373696f6e735361666545524332303a20617070726f76652066726f6d206e6f6e2d7a65726f20746f206e6f6e2d7a65726f20616c6c6f77616e6365a264697066735822122093d8465b7e66999ae111dc17487eadd1c04ed1c029a37c1650efcf59f523700064736f6c63430007060033",
  "devdoc": {
    "kind": "dev",
    "methods": {
      "addKeeper(address)": {
        "params": {
          "_keeper": "Address of the keeper"
        }
      },
      "addKeepers(address[])": {
        "params": {
          "_keepers": "List with keeprs of the assets to whitelist"
        }
      },
      "addReserveAsset(address)": {
        "params": {
          "_reserveAsset": "Address of the reserve assset"
        }
      },
      "createGarden(address,string,string,string,uint256,uint256[],uint256,bool[],uint256[])": {
        "params": {
          "_gardenParams": "Array of numeric garden params",
          "_initialContribution": "Initial contribution by the gardener",
          "_name": "Name of the Garden",
          "_profitSharing": "Custom profit sharing (if any)",
          "_publicGardenStrategistsStewards": "Public garden, public strategist rights and public stewards rights",
          "_reserveAsset": "Reserve asset of the Garden. Initially just weth",
          "_seed": "Seed to regenerate the garden NFT",
          "_symbol": "Symbol of the Garden",
          "_tokenURI": "Garden NFT token URI"
        }
      },
      "editCurveMetaRegistry(address)": {
        "params": {
          "_curveMetaRegistry": "Address of the new curve meta registry"
        }
      },
      "editGardenFactory(address)": {
        "params": {
          "_newGardenFactory": "Address of the new garden factory"
        }
      },
      "editGardenNFT(address)": {
        "params": {
          "_newGardenNFT": "Address of the new garden NFT"
        }
      },
      "editGardenValuer(address)": {
        "params": {
          "_gardenValuer": "Address of the new garden valuer"
        }
      },
      "editHeart(address)": {
        "params": {
          "_newHeart": "Address of the new heart"
        }
      },
      "editLiquidityReserve(address,uint256)": {
        "params": {
          "_newMinLiquidityReserve": "Absolute min liquidity of an asset to grab price",
          "_reserve": "Address of the reserve to edit"
        }
      },
      "editMardukGate(address)": {
        "params": {
          "_mardukGate": "Address of the new Marduk Gate"
        }
      },
      "editPriceOracle(address)": {
        "params": {
          "_priceOracle": "Address of the new price oracle"
        }
      },
      "editStrategyFactory(address)": {
        "params": {
          "_newStrategyFactory": "Address of the new strategy factory"
        }
      },
      "editStrategyNFT(address)": {
        "params": {
          "_newStrategyNFT": "Address of the new strategy NFT"
        }
      },
      "editTreasury(address)": {
        "params": {
          "_newTreasury": "Address of the new protocol fee recipient"
        }
      },
      "isPaused(address)": {
        "params": {
          "_contract": "Smartcontract address to check for a global or specific pause"
        }
      },
      "isSystemContract(address)": {
        "params": {
          "_contractAddress": "The contract address to check"
        }
      },
      "removeGarden(address)": {
        "params": {
          "_garden": "Address of the Garden contract to remove"
        }
      },
      "removeKeeper(address)": {
        "params": {
          "_keeper": "Address of the keeper"
        }
      },
      "removeReserveAsset(address)": {
        "params": {
          "_reserveAsset": "Address of the reserve asset to remove"
        }
      },
      "renounceOwnership()": {
        "details": "Leaves the contract without owner. It will not be possible to call `onlyOwner` functions anymore. Can only be called by the current owner. NOTE: Renouncing ownership will leave the contract without an owner, thereby removing any functionality that is only available to the owner."
      },
      "setGlobalPause(bool)": {
        "params": {
          "_state": "True to pause, false to unpause."
        }
      },
      "setMasterSwapper(address)": {
        "params": {
          "_newDefaultMasterSwapper": "Address of the new default trade integration"
        }
      },
      "setOperation(uint8,address)": {
        "params": {
          "_kind": "Operation kind",
          "_operation": "Address of the operation contract to set"
        }
      },
      "setPauseGuardian(address)": {
        "params": {
          "_guardian": "Address of the guardian"
        }
      },
      "setSomePause(address[],bool)": {
        "params": {
          "_address": "Addresses of protocol smartcontract to be paused",
          "_state": "Boolean pause state"
        }
      },
      "transferOwnership(address)": {
        "details": "Transfers ownership of the contract to a new account (`newOwner`). Can only be called by the current owner."
      }
    },
    "version": 1
  },
  "userdoc": {
    "events": {
      "ActionPaused(string,bool)": {
        "notice": "Emitted when an action is paused globally"
      },
      "ActionPausedIndividually(string,address,bool)": {
        "notice": "Emitted when an action is paused individually"
      },
      "NewPauseGuardian(address,address)": {
        "notice": "Emitted when pause guardian is changed"
      }
    },
    "kind": "user",
    "methods": {
      "addKeeper(address)": {
        "notice": "PRIVILEGED FACTORY FUNCTION. Adds a new valid keeper to the list"
      },
      "addKeepers(address[])": {
        "notice": "PRIVILEGED FACTORY FUNCTION. Adds a list of assets to the whitelist"
      },
      "addReserveAsset(address)": {
        "notice": "PRIVILEGED FACTORY FUNCTION. Adds a new valid reserve asset for gardens"
      },
      "createGarden(address,string,string,string,uint256,uint256[],uint256,bool[],uint256[])": {
        "notice": "Creates a Garden smart contract and registers the Garden with the controller. If asset is not WETH, the creator needs to approve the controller"
      },
      "editCurveMetaRegistry(address)": {
        "notice": "PRIVILEGED GOVERNANCE FUNCTION. Allows governance to edit the curve meta registry"
      },
      "editGardenFactory(address)": {
        "notice": "PRIVILEGED GOVERNANCE FUNCTION. Allows governance to edit the protocol garden factory"
      },
      "editGardenNFT(address)": {
        "notice": "PRIVILEGED GOVERNANCE FUNCTION. Allows governance to edit the protocol garden NFT"
      },
      "editGardenValuer(address)": {
        "notice": "PRIVILEGED GOVERNANCE FUNCTION. Allows governance to change the garden valuer"
      },
      "editHeart(address)": {
        "notice": "PRIVILEGED GOVERNANCE FUNCTION. Allows governance to edit the heart contract"
      },
      "editLiquidityReserve(address,uint256)": {
        "notice": "GOVERNANCE FUNCTION: Edits the minimum liquidity an asset must have on Uniswap"
      },
      "editMardukGate(address)": {
        "notice": "PRIVILEGED GOVERNANCE FUNCTION. Allows governance to change the Marduk Gate Address"
      },
      "editPriceOracle(address)": {
        "notice": "PRIVILEGED GOVERNANCE FUNCTION. Allows governance to change the price oracle"
      },
      "editStrategyFactory(address)": {
        "notice": "PRIVILEGED GOVERNANCE FUNCTION. Allows governance to edit the protocol strategy factory"
      },
      "editStrategyNFT(address)": {
        "notice": "PRIVILEGED GOVERNANCE FUNCTION. Allows governance to edit the protocol strategy NFT"
      },
      "editTreasury(address)": {
        "notice": "PRIVILEGED GOVERNANCE FUNCTION. Allows governance to edit the protocol fee recipient"
      },
      "enableGardenTokensTransfers()": {
        "notice": "PRIVILEGED GOVERNANCE FUNCTION. Allows transfers of ERC20 gardenTokens Can only happen after 2021 is finished."
      },
      "initialize()": {
        "notice": "Initializes the initial fee recipient on deployment."
      },
      "isPaused(address)": {
        "notice": "Check whether or not there is a global pause or a specific pause of the provided contract address"
      },
      "isSystemContract(address)": {
        "notice": "Check if a contract address is a garden or one of the system contracts"
      },
      "removeGarden(address)": {
        "notice": "PRIVILEGED GOVERNANCE FUNCTION. Allows governance to remove a Garden"
      },
      "removeKeeper(address)": {
        "notice": "PRIVILEGED FACTORY FUNCTION. Removes a keeper"
      },
      "removeReserveAsset(address)": {
        "notice": "PRIVILEGED GOVERNANCE FUNCTION. Allows governance to remove a reserve asset"
      },
      "setGlobalPause(bool)": {
        "notice": "PRIVILEGED GOVERNANCE FUNCTION. Pause the protocol globally in case of unexpected issue Only the governance can unpause it"
      },
      "setMasterSwapper(address)": {
        "notice": "PRIVILEGED GOVERNANCE FUNCTION. Allows governance to edit the protocol default trde integration"
      },
      "setOperation(uint8,address)": {
        "notice": "GOVERNANCE FUNCTION: Edit an existing operation on the registry"
      },
      "setPauseGuardian(address)": {
        "notice": "PRIVILEGED GOVERNANCE FUNCTION. Set-up a pause guardian"
      },
      "setSomePause(address[],bool)": {
        "notice": "PRIVILEGED GOVERNANCE FUNCTION. Pause some smartcontracts in a batch process in case of unexpected issue Only the governance can unpause it"
      }
    },
    "version": 1
  },
  "storageLayout": {
    "storage": [
      {
        "astId": 492,
        "contract": "contracts/BabController.sol:BabControllerV13",
        "label": "_initialized",
        "offset": 0,
        "slot": "0",
        "type": "t_bool"
      },
      {
        "astId": 495,
        "contract": "contracts/BabController.sol:BabControllerV13",
        "label": "_initializing",
        "offset": 1,
        "slot": "0",
        "type": "t_bool"
      },
      {
        "astId": 1447,
        "contract": "contracts/BabController.sol:BabControllerV13",
        "label": "__gap",
        "offset": 0,
        "slot": "1",
        "type": "t_array(t_uint256)50_storage"
      },
      {
        "astId": 10,
        "contract": "contracts/BabController.sol:BabControllerV13",
        "label": "_owner",
        "offset": 0,
        "slot": "51",
        "type": "t_address"
      },
      {
        "astId": 129,
        "contract": "contracts/BabController.sol:BabControllerV13",
        "label": "__gap",
        "offset": 0,
        "slot": "52",
        "type": "t_array(t_uint256)49_storage"
      },
      {
        "astId": 9310,
        "contract": "contracts/BabController.sol:BabControllerV13",
        "label": "gardens",
        "offset": 0,
        "slot": "101",
        "type": "t_array(t_address)dyn_storage"
      },
      {
        "astId": 9313,
        "contract": "contracts/BabController.sol:BabControllerV13",
        "label": "reserveAssets",
        "offset": 0,
        "slot": "102",
        "type": "t_array(t_address)dyn_storage"
      },
      {
        "astId": 9315,
        "contract": "contracts/BabController.sol:BabControllerV13",
        "label": "uniswapFactory",
        "offset": 0,
        "slot": "103",
        "type": "t_address"
      },
      {
        "astId": 9318,
        "contract": "contracts/BabController.sol:BabControllerV13",
        "label": "gardenValuer",
        "offset": 0,
        "slot": "104",
        "type": "t_address"
      },
      {
        "astId": 9321,
        "contract": "contracts/BabController.sol:BabControllerV13",
        "label": "priceOracle",
        "offset": 0,
        "slot": "105",
        "type": "t_address"
      },
      {
        "astId": 9324,
        "contract": "contracts/BabController.sol:BabControllerV13",
        "label": "gardenFactory",
        "offset": 0,
        "slot": "106",
        "type": "t_address"
      },
      {
        "astId": 9327,
        "contract": "contracts/BabController.sol:BabControllerV13",
        "label": "rewardsDistributor",
        "offset": 0,
        "slot": "107",
        "type": "t_address"
      },
      {
        "astId": 9330,
        "contract": "contracts/BabController.sol:BabControllerV13",
        "label": "ishtarGate",
        "offset": 0,
        "slot": "108",
        "type": "t_address"
      },
      {
        "astId": 9333,
        "contract": "contracts/BabController.sol:BabControllerV13",
        "label": "strategyFactory",
        "offset": 0,
        "slot": "109",
        "type": "t_address"
      },
      {
        "astId": 9336,
        "contract": "contracts/BabController.sol:BabControllerV13",
        "label": "gardenNFT",
        "offset": 0,
        "slot": "110",
        "type": "t_address"
      },
      {
        "astId": 9339,
        "contract": "contracts/BabController.sol:BabControllerV13",
        "label": "strategyNFT",
        "offset": 0,
        "slot": "111",
        "type": "t_address"
      },
      {
        "astId": 9343,
        "contract": "contracts/BabController.sol:BabControllerV13",
        "label": "enabledIntegrations",
        "offset": 0,
        "slot": "112",
        "type": "t_mapping(t_bytes32,t_address)"
      },
      {
        "astId": 9346,
        "contract": "contracts/BabController.sol:BabControllerV13",
        "label": "masterSwapper",
        "offset": 0,
        "slot": "113",
        "type": "t_address"
      },
      {
        "astId": 9351,
        "contract": "contracts/BabController.sol:BabControllerV13",
        "label": "enabledOperations",
        "offset": 0,
        "slot": "114",
        "type": "t_array(t_address)20_storage"
      },
      {
        "astId": 9356,
        "contract": "contracts/BabController.sol:BabControllerV13",
        "label": "isGarden",
        "offset": 0,
        "slot": "134",
        "type": "t_mapping(t_address,t_bool)"
      },
      {
        "astId": 9360,
        "contract": "contracts/BabController.sol:BabControllerV13",
        "label": "validReserveAsset",
        "offset": 0,
        "slot": "135",
        "type": "t_mapping(t_address,t_bool)"
      },
      {
        "astId": 9364,
        "contract": "contracts/BabController.sol:BabControllerV13",
        "label": "assetWhitelist",
        "offset": 0,
        "slot": "136",
        "type": "t_mapping(t_address,t_bool)"
      },
      {
        "astId": 9368,
        "contract": "contracts/BabController.sol:BabControllerV13",
        "label": "keeperList",
        "offset": 0,
        "slot": "137",
        "type": "t_mapping(t_address,t_bool)"
      },
      {
        "astId": 9373,
        "contract": "contracts/BabController.sol:BabControllerV13",
        "label": "minLiquidityPerReserve",
        "offset": 0,
        "slot": "138",
        "type": "t_mapping(t_address,t_uint256)"
      },
      {
        "astId": 9376,
        "contract": "contracts/BabController.sol:BabControllerV13",
        "label": "treasury",
        "offset": 0,
        "slot": "139",
        "type": "t_address"
      },
      {
        "astId": 9378,
        "contract": "contracts/BabController.sol:BabControllerV13",
        "label": "strategistProfitPercentage",
        "offset": 0,
        "slot": "140",
        "type": "t_uint256"
      },
      {
        "astId": 9380,
        "contract": "contracts/BabController.sol:BabControllerV13",
        "label": "stewardsProfitPercentage",
        "offset": 0,
        "slot": "141",
        "type": "t_uint256"
      },
      {
        "astId": 9382,
        "contract": "contracts/BabController.sol:BabControllerV13",
        "label": "lpsProfitPercentage",
        "offset": 0,
        "slot": "142",
        "type": "t_uint256"
      },
      {
        "astId": 9384,
        "contract": "contracts/BabController.sol:BabControllerV13",
        "label": "strategistBABLPercentage",
        "offset": 0,
        "slot": "143",
        "type": "t_uint256"
      },
      {
        "astId": 9386,
        "contract": "contracts/BabController.sol:BabControllerV13",
        "label": "stewardsBABLPercentage",
        "offset": 0,
        "slot": "144",
        "type": "t_uint256"
      },
      {
        "astId": 9388,
        "contract": "contracts/BabController.sol:BabControllerV13",
        "label": "lpsBABLPercentage",
        "offset": 0,
        "slot": "145",
        "type": "t_uint256"
      },
      {
        "astId": 9390,
        "contract": "contracts/BabController.sol:BabControllerV13",
        "label": "gardenCreatorBonus",
        "offset": 0,
        "slot": "146",
        "type": "t_uint256"
      },
      {
        "astId": 9393,
        "contract": "contracts/BabController.sol:BabControllerV13",
        "label": "gardenTokensTransfersEnabled",
        "offset": 0,
        "slot": "147",
        "type": "t_bool"
      },
      {
        "astId": 9396,
        "contract": "contracts/BabController.sol:BabControllerV13",
        "label": "bablMiningProgramEnabled",
        "offset": 1,
        "slot": "147",
        "type": "t_bool"
      },
      {
        "astId": 9399,
        "contract": "contracts/BabController.sol:BabControllerV13",
        "label": "allowPublicGardens",
        "offset": 2,
        "slot": "147",
        "type": "t_bool"
      },
      {
        "astId": 9402,
        "contract": "contracts/BabController.sol:BabControllerV13",
        "label": "protocolPerformanceFee",
        "offset": 0,
        "slot": "148",
        "type": "t_uint256"
      },
      {
        "astId": 9405,
        "contract": "contracts/BabController.sol:BabControllerV13",
        "label": "protocolManagementFee",
        "offset": 0,
        "slot": "149",
        "type": "t_uint256"
      },
      {
        "astId": 9407,
        "contract": "contracts/BabController.sol:BabControllerV13",
        "label": "protocolDepositGardenTokenFee",
        "offset": 0,
        "slot": "150",
        "type": "t_uint256"
      },
      {
        "astId": 9409,
        "contract": "contracts/BabController.sol:BabControllerV13",
        "label": "protocolWithdrawalGardenTokenFee",
        "offset": 0,
        "slot": "151",
        "type": "t_uint256"
      },
      {
        "astId": 9411,
        "contract": "contracts/BabController.sol:BabControllerV13",
        "label": "maxContributorsPerGarden",
        "offset": 0,
        "slot": "152",
        "type": "t_uint256"
      },
      {
        "astId": 9414,
        "contract": "contracts/BabController.sol:BabControllerV13",
        "label": "gardenCreationIsOpen",
        "offset": 0,
        "slot": "153",
        "type": "t_bool"
      },
      {
        "astId": 9416,
        "contract": "contracts/BabController.sol:BabControllerV13",
        "label": "guardian",
        "offset": 1,
        "slot": "153",
        "type": "t_address"
      },
      {
        "astId": 9421,
        "contract": "contracts/BabController.sol:BabControllerV13",
        "label": "guardianPaused",
        "offset": 0,
        "slot": "154",
        "type": "t_mapping(t_address,t_bool)"
      },
      {
        "astId": 9424,
        "contract": "contracts/BabController.sol:BabControllerV13",
        "label": "guardianGlobalPaused",
        "offset": 0,
        "slot": "155",
        "type": "t_bool"
      },
      {
        "astId": 9427,
        "contract": "contracts/BabController.sol:BabControllerV13",
        "label": "mardukGate",
        "offset": 1,
        "slot": "155",
        "type": "t_address"
      },
      {
        "astId": 9430,
        "contract": "contracts/BabController.sol:BabControllerV13",
        "label": "heart",
        "offset": 0,
        "slot": "156",
        "type": "t_address"
      },
      {
        "astId": 9433,
        "contract": "contracts/BabController.sol:BabControllerV13",
        "label": "curveMetaRegistry",
        "offset": 0,
        "slot": "157",
        "type": "t_address"
      }
    ],
    "types": {
      "t_address": {
        "encoding": "inplace",
        "label": "address",
        "numberOfBytes": "20"
      },
      "t_array(t_address)20_storage": {
        "base": "t_address",
        "encoding": "inplace",
        "label": "address[20]",
        "numberOfBytes": "640"
      },
      "t_array(t_address)dyn_storage": {
        "base": "t_address",
        "encoding": "dynamic_array",
        "label": "address[]",
        "numberOfBytes": "32"
      },
      "t_array(t_uint256)49_storage": {
        "base": "t_uint256",
        "encoding": "inplace",
        "label": "uint256[49]",
        "numberOfBytes": "1568"
      },
      "t_array(t_uint256)50_storage": {
        "base": "t_uint256",
        "encoding": "inplace",
        "label": "uint256[50]",
        "numberOfBytes": "1600"
      },
      "t_bool": {
        "encoding": "inplace",
        "label": "bool",
        "numberOfBytes": "1"
      },
      "t_bytes32": {
        "encoding": "inplace",
        "label": "bytes32",
        "numberOfBytes": "32"
      },
      "t_mapping(t_address,t_bool)": {
        "encoding": "mapping",
        "key": "t_address",
        "label": "mapping(address => bool)",
        "numberOfBytes": "32",
        "value": "t_bool"
      },
      "t_mapping(t_address,t_uint256)": {
        "encoding": "mapping",
        "key": "t_address",
        "label": "mapping(address => uint256)",
        "numberOfBytes": "32",
        "value": "t_uint256"
      },
      "t_mapping(t_bytes32,t_address)": {
        "encoding": "mapping",
        "key": "t_bytes32",
        "label": "mapping(bytes32 => address)",
        "numberOfBytes": "32",
        "value": "t_address"
      },
      "t_uint256": {
        "encoding": "inplace",
        "label": "uint256",
        "numberOfBytes": "32"
      }
    }
  }
}