{
  "address": "0x27ACd7CD11E09AD4B687310cdcD134427459c6f6",
  "abi": [
    {
      "inputs": [
        {
          "internalType": "contract IBabController",
          "name": "newController",
          "type": "address"
        }
      ],
      "stateMutability": "nonpayable",
      "type": "constructor"
    },
    {
      "anonymous": false,
      "inputs": [
        {
          "indexed": true,
          "internalType": "address",
          "name": "owner",
          "type": "address"
        },
        {
          "indexed": true,
          "internalType": "address",
          "name": "spender",
          "type": "address"
        },
        {
          "indexed": false,
          "internalType": "uint256",
          "name": "value",
          "type": "uint256"
        }
      ],
      "name": "Approval",
      "type": "event"
    },
    {
      "anonymous": false,
      "inputs": [
        {
          "indexed": false,
          "internalType": "address",
          "name": "account",
          "type": "address"
        },
        {
          "indexed": false,
          "internalType": "uint256",
          "name": "amount",
          "type": "uint256"
        }
      ],
      "name": "Cancel",
      "type": "event"
    },
    {
      "anonymous": false,
      "inputs": [
        {
          "indexed": false,
          "internalType": "address",
          "name": "_receiver",
          "type": "address"
        },
        {
          "indexed": false,
          "internalType": "uint256",
          "name": "amount",
          "type": "uint256"
        }
      ],
      "name": "Claim",
      "type": "event"
    },
    {
      "anonymous": false,
      "inputs": [
        {
          "indexed": true,
          "internalType": "address",
          "name": "delegator",
          "type": "address"
        },
        {
          "indexed": true,
          "internalType": "address",
          "name": "fromDelegate",
          "type": "address"
        },
        {
          "indexed": true,
          "internalType": "address",
          "name": "toDelegate",
          "type": "address"
        }
      ],
      "name": "DelegateChanged",
      "type": "event"
    },
    {
      "anonymous": false,
      "inputs": [
        {
          "indexed": true,
          "internalType": "address",
          "name": "delegate",
          "type": "address"
        },
        {
          "indexed": false,
          "internalType": "uint256",
          "name": "previousBalance",
          "type": "uint256"
        },
        {
          "indexed": false,
          "internalType": "uint256",
          "name": "newBalance",
          "type": "uint256"
        }
      ],
      "name": "DelegateVotesChanged",
      "type": "event"
    },
    {
      "anonymous": false,
      "inputs": [
        {
          "indexed": false,
          "internalType": "address",
          "name": "_account",
          "type": "address"
        },
        {
          "indexed": false,
          "internalType": "uint256",
          "name": "amount",
          "type": "uint256"
        }
      ],
      "name": "LockedBalance",
      "type": "event"
    },
    {
      "anonymous": false,
      "inputs": [
        {
          "indexed": false,
          "internalType": "uint256",
          "name": "previousAllowedAfterValue",
          "type": "uint256"
        },
        {
          "indexed": false,
          "internalType": "uint256",
          "name": "newAllowedAfterValue",
          "type": "uint256"
        }
      ],
      "name": "MaxSupplyAllowedAfterChanged",
      "type": "event"
    },
    {
      "anonymous": false,
      "inputs": [
        {
          "indexed": false,
          "internalType": "uint256",
          "name": "previousMaxValue",
          "type": "uint256"
        },
        {
          "indexed": false,
          "internalType": "uint256",
          "name": "newMaxValue",
          "type": "uint256"
        }
      ],
      "name": "MaxSupplyChanged",
      "type": "event"
    },
    {
      "anonymous": false,
      "inputs": [
        {
          "indexed": false,
          "internalType": "address",
          "name": "account",
          "type": "address"
        },
        {
          "indexed": false,
          "internalType": "uint256",
          "name": "tokensminted",
          "type": "uint256"
        }
      ],
      "name": "MintedNewTokens",
      "type": "event"
    },
    {
      "anonymous": false,
      "inputs": [
        {
          "indexed": false,
          "internalType": "address",
          "name": "account",
          "type": "address"
        },
        {
          "indexed": false,
          "internalType": "uint256",
          "name": "tokenslocked",
          "type": "uint256"
        },
        {
          "indexed": false,
          "internalType": "bool",
          "name": "isTeamOrAdvisor",
          "type": "bool"
        },
        {
          "indexed": false,
          "internalType": "uint256",
          "name": "startingVesting",
          "type": "uint256"
        },
        {
          "indexed": false,
          "internalType": "uint256",
          "name": "endingVesting",
          "type": "uint256"
        }
      ],
      "name": "NewLockout",
      "type": "event"
    },
    {
      "anonymous": false,
      "inputs": [
        {
          "indexed": false,
          "internalType": "address",
          "name": "previousAddress",
          "type": "address"
        },
        {
          "indexed": false,
          "internalType": "address",
          "name": "newAddress",
          "type": "address"
        }
      ],
      "name": "NewRewardsDistributorRegistration",
      "type": "event"
    },
    {
      "anonymous": false,
      "inputs": [
        {
          "indexed": false,
          "internalType": "address",
          "name": "previousAddress",
          "type": "address"
        },
        {
          "indexed": false,
          "internalType": "address",
          "name": "newAddress",
          "type": "address"
        }
      ],
      "name": "NewTimeLockRegistration",
      "type": "event"
    },
    {
      "anonymous": false,
      "inputs": [
        {
          "indexed": true,
          "internalType": "address",
          "name": "previousOwner",
          "type": "address"
        },
        {
          "indexed": true,
          "internalType": "address",
          "name": "newOwner",
          "type": "address"
        }
      ],
      "name": "OwnershipTransferred",
      "type": "event"
    },
    {
      "anonymous": false,
      "inputs": [
        {
          "indexed": true,
          "internalType": "address",
          "name": "from",
          "type": "address"
        },
        {
          "indexed": true,
          "internalType": "address",
          "name": "to",
          "type": "address"
        },
        {
          "indexed": false,
          "internalType": "uint256",
          "name": "value",
          "type": "uint256"
        }
      ],
      "name": "Transfer",
      "type": "event"
    },
    {
      "inputs": [],
      "name": "BABLTokenDeploymentTimestamp",
      "outputs": [
        {
          "internalType": "uint256",
          "name": "",
          "type": "uint256"
        }
      ],
      "stateMutability": "view",
      "type": "function"
    },
    {
      "inputs": [],
      "name": "DELEGATION_TYPEHASH",
      "outputs": [
        {
          "internalType": "bytes32",
          "name": "",
          "type": "bytes32"
        }
      ],
      "stateMutability": "view",
      "type": "function"
    },
    {
      "inputs": [],
      "name": "DOMAIN_TYPEHASH",
      "outputs": [
        {
          "internalType": "bytes32",
          "name": "",
          "type": "bytes32"
        }
      ],
      "stateMutability": "view",
      "type": "function"
    },
    {
      "inputs": [],
      "name": "MAX_SUPPLY_CAP",
      "outputs": [
        {
          "internalType": "uint8",
          "name": "",
          "type": "uint8"
        }
      ],
      "stateMutability": "view",
      "type": "function"
    },
    {
      "inputs": [],
      "name": "MINT_CAP",
      "outputs": [
        {
          "internalType": "uint8",
          "name": "",
          "type": "uint8"
        }
      ],
      "stateMutability": "view",
      "type": "function"
    },
    {
      "inputs": [
        {
          "internalType": "address",
          "name": "owner",
          "type": "address"
        },
        {
          "internalType": "address",
          "name": "spender",
          "type": "address"
        }
      ],
      "name": "allowance",
      "outputs": [
        {
          "internalType": "uint256",
          "name": "",
          "type": "uint256"
        }
      ],
      "stateMutability": "view",
      "type": "function"
    },
    {
      "inputs": [
        {
          "internalType": "address",
          "name": "spender",
          "type": "address"
        },
        {
          "internalType": "uint256",
          "name": "rawAmount",
          "type": "uint256"
        }
      ],
      "name": "approve",
      "outputs": [
        {
          "internalType": "bool",
          "name": "",
          "type": "bool"
        }
      ],
      "stateMutability": "nonpayable",
      "type": "function"
    },
    {
      "inputs": [
        {
          "internalType": "address",
          "name": "account",
          "type": "address"
        }
      ],
      "name": "balanceOf",
      "outputs": [
        {
          "internalType": "uint256",
          "name": "",
          "type": "uint256"
        }
      ],
      "stateMutability": "view",
      "type": "function"
    },
    {
      "inputs": [
        {
          "internalType": "address",
          "name": "lockedAccount",
          "type": "address"
        }
      ],
      "name": "cancelVestedTokens",
      "outputs": [
        {
          "internalType": "uint256",
          "name": "",
          "type": "uint256"
        }
      ],
      "stateMutability": "nonpayable",
      "type": "function"
    },
    {
      "inputs": [
        {
          "internalType": "uint256",
          "name": "newMaxSupply",
          "type": "uint256"
        },
        {
          "internalType": "uint256",
          "name": "newMaxSupplyAllowedAfter",
          "type": "uint256"
        }
      ],
      "name": "changeMaxSupply",
      "outputs": [
        {
          "internalType": "bool",
          "name": "",
          "type": "bool"
        }
      ],
      "stateMutability": "nonpayable",
      "type": "function"
    },
    {
      "inputs": [
        {
          "internalType": "address",
          "name": "",
          "type": "address"
        },
        {
          "internalType": "uint32",
          "name": "",
          "type": "uint32"
        }
      ],
      "name": "checkpoints",
      "outputs": [
        {
          "internalType": "uint32",
          "name": "fromBlock",
          "type": "uint32"
        },
        {
          "internalType": "uint96",
          "name": "votes",
          "type": "uint96"
        }
      ],
      "stateMutability": "view",
      "type": "function"
    },
    {
      "inputs": [],
      "name": "claimMyTokens",
      "outputs": [],
      "stateMutability": "nonpayable",
      "type": "function"
    },
    {
      "inputs": [],
      "name": "controller",
      "outputs": [
        {
          "internalType": "contract IBabController",
          "name": "",
          "type": "address"
        }
      ],
      "stateMutability": "view",
      "type": "function"
    },
    {
      "inputs": [],
      "name": "decimals",
      "outputs": [
        {
          "internalType": "uint8",
          "name": "",
          "type": "uint8"
        }
      ],
      "stateMutability": "view",
      "type": "function"
    },
    {
      "inputs": [
        {
          "internalType": "address",
          "name": "spender",
          "type": "address"
        },
        {
          "internalType": "uint256",
          "name": "subtractedValue",
          "type": "uint256"
        }
      ],
      "name": "decreaseAllowance",
      "outputs": [
        {
          "internalType": "bool",
          "name": "",
          "type": "bool"
        }
      ],
      "stateMutability": "nonpayable",
      "type": "function"
    },
    {
      "inputs": [
        {
          "internalType": "address",
          "name": "delegatee",
          "type": "address"
        }
      ],
      "name": "delegate",
      "outputs": [],
      "stateMutability": "nonpayable",
      "type": "function"
    },
    {
      "inputs": [
        {
          "internalType": "address",
          "name": "delegatee",
          "type": "address"
        },
        {
          "internalType": "uint256",
          "name": "nonce",
          "type": "uint256"
        },
        {
          "internalType": "uint256",
          "name": "expiry",
          "type": "uint256"
        },
        {
          "internalType": "uint8",
          "name": "v",
          "type": "uint8"
        },
        {
          "internalType": "bytes32",
          "name": "r",
          "type": "bytes32"
        },
        {
          "internalType": "bytes32",
          "name": "s",
          "type": "bytes32"
        },
        {
          "internalType": "bool",
          "name": "prefix",
          "type": "bool"
        }
      ],
      "name": "delegateBySig",
      "outputs": [],
      "stateMutability": "nonpayable",
      "type": "function"
    },
    {
      "inputs": [
        {
          "internalType": "address",
          "name": "",
          "type": "address"
        }
      ],
      "name": "delegates",
      "outputs": [
        {
          "internalType": "address",
          "name": "",
          "type": "address"
        }
      ],
      "stateMutability": "view",
      "type": "function"
    },
    {
      "inputs": [],
      "name": "disableTokensTransfers",
      "outputs": [],
      "stateMutability": "nonpayable",
      "type": "function"
    },
    {
      "inputs": [],
      "name": "enableTokensTransfers",
      "outputs": [],
      "stateMutability": "nonpayable",
      "type": "function"
    },
    {
      "inputs": [
        {
          "internalType": "address",
          "name": "account",
          "type": "address"
        },
        {
          "internalType": "uint32",
          "name": "id",
          "type": "uint32"
        }
      ],
      "name": "getCheckpoints",
      "outputs": [
        {
          "internalType": "uint32",
          "name": "fromBlock",
          "type": "uint32"
        },
        {
          "internalType": "uint96",
          "name": "votes",
          "type": "uint96"
        }
      ],
      "stateMutability": "view",
      "type": "function"
    },
    {
      "inputs": [
        {
          "internalType": "address",
          "name": "account",
          "type": "address"
        }
      ],
      "name": "getCurrentVotes",
      "outputs": [
        {
          "internalType": "uint96",
          "name": "",
          "type": "uint96"
        }
      ],
      "stateMutability": "view",
      "type": "function"
    },
    {
      "inputs": [
        {
          "internalType": "address",
          "name": "account",
          "type": "address"
        }
      ],
      "name": "getDelegatee",
      "outputs": [
        {
          "internalType": "address",
          "name": "",
          "type": "address"
        }
      ],
      "stateMutability": "view",
      "type": "function"
    },
    {
      "inputs": [],
      "name": "getMyDelegatee",
      "outputs": [
        {
          "internalType": "address",
          "name": "",
          "type": "address"
        }
      ],
      "stateMutability": "view",
      "type": "function"
    },
    {
      "inputs": [
        {
          "internalType": "address",
          "name": "account",
          "type": "address"
        }
      ],
      "name": "getNumberOfCheckpoints",
      "outputs": [
        {
          "internalType": "uint32",
          "name": "",
          "type": "uint32"
        }
      ],
      "stateMutability": "view",
      "type": "function"
    },
    {
      "inputs": [
        {
          "internalType": "address",
          "name": "account",
          "type": "address"
        },
        {
          "internalType": "uint256",
          "name": "blockNumber",
          "type": "uint256"
        }
      ],
      "name": "getPriorVotes",
      "outputs": [
        {
          "internalType": "uint96",
          "name": "",
          "type": "uint96"
        }
      ],
      "stateMutability": "view",
      "type": "function"
    },
    {
      "inputs": [],
      "name": "getTimeLockRegistry",
      "outputs": [
        {
          "internalType": "address",
          "name": "",
          "type": "address"
        }
      ],
      "stateMutability": "view",
      "type": "function"
    },
    {
      "inputs": [
        {
          "internalType": "address",
          "name": "spender",
          "type": "address"
        },
        {
          "internalType": "uint256",
          "name": "addedValue",
          "type": "uint256"
        }
      ],
      "name": "increaseAllowance",
      "outputs": [
        {
          "internalType": "bool",
          "name": "",
          "type": "bool"
        }
      ],
      "stateMutability": "nonpayable",
      "type": "function"
    },
    {
      "inputs": [
        {
          "internalType": "address",
          "name": "account",
          "type": "address"
        }
      ],
      "name": "lockedBalance",
      "outputs": [
        {
          "internalType": "uint256",
          "name": "",
          "type": "uint256"
        }
      ],
      "stateMutability": "nonpayable",
      "type": "function"
    },
    {
      "inputs": [],
      "name": "maxSupply",
      "outputs": [
        {
          "internalType": "uint96",
          "name": "",
          "type": "uint96"
        },
        {
          "internalType": "uint256",
          "name": "",
          "type": "uint256"
        }
      ],
      "stateMutability": "view",
      "type": "function"
    },
    {
      "inputs": [],
      "name": "maxSupplyAllowed",
      "outputs": [
        {
          "internalType": "uint256",
          "name": "",
          "type": "uint256"
        }
      ],
      "stateMutability": "view",
      "type": "function"
    },
    {
      "inputs": [],
      "name": "maxSupplyAllowedAfter",
      "outputs": [
        {
          "internalType": "uint256",
          "name": "",
          "type": "uint256"
        }
      ],
      "stateMutability": "view",
      "type": "function"
    },
    {
      "inputs": [
        {
          "internalType": "address",
          "name": "_to",
          "type": "address"
        },
        {
          "internalType": "uint256",
          "name": "_amount",
          "type": "uint256"
        }
      ],
      "name": "mint",
      "outputs": [
        {
          "internalType": "bool",
          "name": "",
          "type": "bool"
        }
      ],
      "stateMutability": "nonpayable",
      "type": "function"
    },
    {
      "inputs": [],
      "name": "mintingAllowedAfter",
      "outputs": [
        {
          "internalType": "uint256",
          "name": "",
          "type": "uint256"
        }
      ],
      "stateMutability": "view",
      "type": "function"
    },
    {
      "inputs": [],
      "name": "name",
      "outputs": [
        {
          "internalType": "string",
          "name": "",
          "type": "string"
        }
      ],
      "stateMutability": "view",
      "type": "function"
    },
    {
      "inputs": [
        {
          "internalType": "address",
          "name": "",
          "type": "address"
        }
      ],
      "name": "nonces",
      "outputs": [
        {
          "internalType": "uint256",
          "name": "",
          "type": "uint256"
        }
      ],
      "stateMutability": "view",
      "type": "function"
    },
    {
      "inputs": [
        {
          "internalType": "address",
          "name": "",
          "type": "address"
        }
      ],
      "name": "numCheckpoints",
      "outputs": [
        {
          "internalType": "uint32",
          "name": "",
          "type": "uint32"
        }
      ],
      "stateMutability": "view",
      "type": "function"
    },
    {
      "inputs": [],
      "name": "owner",
      "outputs": [
        {
          "internalType": "address",
          "name": "",
          "type": "address"
        }
      ],
      "stateMutability": "view",
      "type": "function"
    },
    {
      "inputs": [
        {
          "internalType": "address",
          "name": "_receiver",
          "type": "address"
        },
        {
          "internalType": "uint256",
          "name": "_amount",
          "type": "uint256"
        },
        {
          "internalType": "bool",
          "name": "_profile",
          "type": "bool"
        },
        {
          "internalType": "uint256",
          "name": "_vestingBegin",
          "type": "uint256"
        },
        {
          "internalType": "uint256",
          "name": "_vestingEnd",
          "type": "uint256"
        },
        {
          "internalType": "uint256",
          "name": "_lastClaim",
          "type": "uint256"
        }
      ],
      "name": "registerLockup",
      "outputs": [
        {
          "internalType": "bool",
          "name": "",
          "type": "bool"
        }
      ],
      "stateMutability": "nonpayable",
      "type": "function"
    },
    {
      "inputs": [],
      "name": "renounceOwnership",
      "outputs": [],
      "stateMutability": "nonpayable",
      "type": "function"
    },
    {
      "inputs": [],
      "name": "rewardsDistributor",
      "outputs": [
        {
          "internalType": "contract IRewardsDistributor",
          "name": "",
          "type": "address"
        }
      ],
      "stateMutability": "view",
      "type": "function"
    },
    {
      "inputs": [
        {
          "internalType": "contract IRewardsDistributor",
          "name": "newRewardsDistributor",
          "type": "address"
        }
      ],
      "name": "setRewardsDistributor",
      "outputs": [
        {
          "internalType": "bool",
          "name": "",
          "type": "bool"
        }
      ],
      "stateMutability": "nonpayable",
      "type": "function"
    },
    {
      "inputs": [
        {
          "internalType": "contract TimeLockRegistry",
          "name": "newTimeLockRegistry",
          "type": "address"
        }
      ],
      "name": "setTimeLockRegistry",
      "outputs": [
        {
          "internalType": "bool",
          "name": "",
          "type": "bool"
        }
      ],
      "stateMutability": "nonpayable",
      "type": "function"
    },
    {
      "inputs": [],
      "name": "symbol",
      "outputs": [
        {
          "internalType": "string",
          "name": "",
          "type": "string"
        }
      ],
      "stateMutability": "view",
      "type": "function"
    },
    {
      "inputs": [],
      "name": "timeLockRegistry",
      "outputs": [
        {
          "internalType": "contract TimeLockRegistry",
          "name": "",
          "type": "address"
        }
      ],
      "stateMutability": "view",
      "type": "function"
    },
    {
      "inputs": [],
      "name": "totalSupply",
      "outputs": [
        {
          "internalType": "uint256",
          "name": "",
          "type": "uint256"
        }
      ],
      "stateMutability": "view",
      "type": "function"
    },
    {
      "inputs": [
        {
          "internalType": "address",
          "name": "recipient",
          "type": "address"
        },
        {
          "internalType": "uint256",
          "name": "amount",
          "type": "uint256"
        }
      ],
      "name": "transfer",
      "outputs": [
        {
          "internalType": "bool",
          "name": "",
          "type": "bool"
        }
      ],
      "stateMutability": "nonpayable",
      "type": "function"
    },
    {
      "inputs": [
        {
          "internalType": "address",
          "name": "sender",
          "type": "address"
        },
        {
          "internalType": "address",
          "name": "recipient",
          "type": "address"
        },
        {
          "internalType": "uint256",
          "name": "amount",
          "type": "uint256"
        }
      ],
      "name": "transferFrom",
      "outputs": [
        {
          "internalType": "bool",
          "name": "",
          "type": "bool"
        }
      ],
      "stateMutability": "nonpayable",
      "type": "function"
    },
    {
      "inputs": [
        {
          "internalType": "address",
          "name": "newOwner",
          "type": "address"
        }
      ],
      "name": "transferOwnership",
      "outputs": [],
      "stateMutability": "nonpayable",
      "type": "function"
    },
    {
      "inputs": [
        {
          "internalType": "address",
          "name": "account",
          "type": "address"
        }
      ],
      "name": "unlockedBalance",
      "outputs": [
        {
          "internalType": "uint256",
          "name": "",
          "type": "uint256"
        }
      ],
      "stateMutability": "nonpayable",
      "type": "function"
    },
    {
      "inputs": [
        {
          "internalType": "address",
          "name": "",
          "type": "address"
        }
      ],
      "name": "vestedToken",
      "outputs": [
        {
          "internalType": "bool",
          "name": "teamOrAdvisor",
          "type": "bool"
        },
        {
          "internalType": "uint256",
          "name": "vestingBegin",
          "type": "uint256"
        },
        {
          "internalType": "uint256",
          "name": "vestingEnd",
          "type": "uint256"
        },
        {
          "internalType": "uint256",
          "name": "lastClaim",
          "type": "uint256"
        }
      ],
      "stateMutability": "view",
      "type": "function"
    },
    {
      "inputs": [
        {
          "internalType": "address",
          "name": "account",
          "type": "address"
        }
      ],
      "name": "viewLockedBalance",
      "outputs": [
        {
          "internalType": "uint256",
          "name": "",
          "type": "uint256"
        }
      ],
      "stateMutability": "view",
      "type": "function"
    }
  ],
  "transactionHash": "0xfdb045a35d288507101b442ccbc6521dce438c474d25c9f83b2ba0333225aa57",
  "args": [
    "0xD4a5b5fcB561dAF3aDF86F8477555B92FBa43b5F"
  ],
  "solcInputHash": "209260804bdfb9d5aad72197ba46a3b8",
  "bytecode": "0x608060405269d3c21bcecceda10000006010553480156200001f57600080fd5b506040516200503438038062005034833981810160405260208110156200004557600080fd5b5051604080518082018252600f81526e426162796c6f6e2e46696e616e636560881b6020828101918252835180850190945260048452631090509360e21b9084015281519192918391839183918391620000a29160039162000458565b508051620000b890600490602084019062000458565b50506005805460ff19166012179055506000620000d4620001d0565b60058054610100600160a81b0319166101006001600160a01b03841690810291909117909155604051919250906000907f8be0079c531659141344cd1fd0a4f28419497f9722a3daafe3b4186f6b6457e0908290a3505060016006555050600f8054600160a01b60ff60a01b19909116179055504260138190556200016a90630f099c00620001d4602090811b62002e7917901c565b601155620001833369d3c21bcecceda1000000620001eb565b620001a7630f099c0063ffffffff1642620001d460201b62002e791790919060201c565b601255600d80546001600160a01b0319166001600160a01b039290921691909117905562000504565b3390565b80820182811015620001e557600080fd5b92915050565b6001600160a01b03821662000247576040805162461bcd60e51b815260206004820152601f60248201527f45524332303a206d696e7420746f20746865207a65726f206164647265737300604482015290519081900360640190fd5b6200025560008383620002fa565b62000271816002546200038e60201b62002e891790919060201c565b6002556001600160a01b03821660009081526020818152604090912054620002a491839062002e896200038e821b17901c565b6001600160a01b0383166000818152602081815260408083209490945583518581529351929391927fddf252ad1be2c89b69c2b068fc378daa952ba7f163c4a11628f55a4df523b3ef9281900390910190a35050565b620003128383836200038960201b62002ee31760201c565b620003896001600160a01b03841615806200033a5750600e546001600160a01b038581169116145b80620003535750600f546001600160a01b038581169116145b806200036c5750600e546001600160a01b038481169116145b80620003815750600f54600160a01b900460ff165b603e620003f0565b505050565b600082820183811015620003e9576040805162461bcd60e51b815260206004820152601b60248201527f536166654d6174683a206164646974696f6e206f766572666c6f770000000000604482015290519081900360640190fd5b9392505050565b816200040157620004018162000405565b5050565b62461bcd60e51b6000908152602060045260076024526642414223000030600a808404818106603090810160081b95839006959095019082900491820690940160101b939093010160c81b604452606490fd5b828054600181600116156101000203166002900490600052602060002090601f016020900481019282620004905760008555620004db565b82601f10620004ab57805160ff1916838001178555620004db565b82800160010185558215620004db579182015b82811115620004db578251825591602001919060010190620004be565b50620004e9929150620004ed565b5090565b5b80821115620004e95760008155600101620004ee565b614b2080620005146000396000f3fe608060405234801561001057600080fd5b506004361061034c5760003560e01c806382e012b1116101bd578063b23ddce7116100f9578063d5e62855116100a2578063e7a324dc1161007c578063e7a324dc14610a00578063f1127ed814610a08578063f2fde38b14610a3a578063f77c479114610a605761034c565b8063d5e62855146109c2578063d6a73a54146109ca578063dd62ed3e146109d25761034c565b8063c7de902d116100d3578063c7de902d1461094b578063d1f5c33b14610971578063d5abeb01146109975761034c565b8063b23ddce71461087c578063b4838cb4146108d6578063b4b5ea57146109255761034c565b8063962399e2116101665780639b4e735f116101405780639b4e735f146107f6578063a15d39d41461081c578063a457c2d714610824578063a9059cbb146108505761034c565b8063962399e2146107a257806398f1312e146107c85780639ae697bf146107d05761034c565b80638da5cb5b116101975780638da5cb5b1461078a578063937f2e331461079257806395d89b411461079a5761034c565b806382e012b1146106ee57806386cb9498146106f65780638cec2923146107445761034c565b806340c10f191161028c57806360caae5811610235578063715018a61161020f578063715018a61461067057806376ee403814610678578063782d6fe1146106805780637ecebe00146106c85761034c565b806360caae581461061c5780636fcfff451461062457806370a082311461064a5761034c565b8063587cde1e11610266578063587cde1e146105a85780635c19a95c146105ce5780635e0fac2e146105f65761034c565b806340c10f191461051757806342061268146105435780634f205087146105825761034c565b806323b872dd116102f9578063313ce567116102d3578063313ce567146104bd57806339509351146104db5780633dd5a83e146105075780633f2a55401461050f5761034c565b806323b872dd1461045c578063265e7bde1461049257806330b36cef146104b55761034c565b806318160ddd1161032a57806318160ddd1461042857806320606b7014610430578063238189a8146104385761034c565b806306fdde0314610351578063095ea7b3146103ce5780631523a3711461040e575b600080fd5b610359610a68565b6040805160208082528351818301528351919283929083019185019080838360005b8381101561039357818101518382015260200161037b565b50505050905090810190601f1680156103c05780820380516001836020036101000a031916815260200191505b509250505060405180910390f35b6103fa600480360360408110156103e457600080fd5b506001600160a01b038135169060200135610afe565b604080519115158252519081900360200190f35b610416610d0d565b60408051918252519081900360200190f35b610416610d13565b610416610d19565b610440610d3d565b604080516001600160a01b039092168252519081900360200190f35b6103fa6004803603606081101561047257600080fd5b506001600160a01b03813581169160208101359091169060400135610d4c565b6103fa600480360360408110156104a857600080fd5b5080359060200135610dd3565b6104166110c0565b6104c56110c6565b6040805160ff9092168252519081900360200190f35b6103fa600480360360408110156104f157600080fd5b506001600160a01b0381351690602001356110cf565b61044061124d565b61044061125c565b6103fa6004803603604081101561052d57600080fd5b506001600160a01b03813516906020013561126b565b6105696004803603602081101561055957600080fd5b50356001600160a01b03166115a6565b6040805163ffffffff9092168252519081900360200190f35b6104166004803603602081101561059857600080fd5b50356001600160a01b03166115cb565b610440600480360360208110156105be57600080fd5b50356001600160a01b0316611620565b6105f4600480360360208110156105e457600080fd5b50356001600160a01b031661163b565b005b6104166004803603602081101561060c57600080fd5b50356001600160a01b0316611648565b6104c5611665565b6105696004803603602081101561063a57600080fd5b50356001600160a01b031661166a565b6104166004803603602081101561066057600080fd5b50356001600160a01b0316611682565b6105f461169d565b61044061176e565b6106ac6004803603604081101561069657600080fd5b506001600160a01b03813516906020013561178a565b604080516001600160601b039092168252519081900360200190f35b610416600480360360208110156106de57600080fd5b50356001600160a01b03166119b5565b6105f46119c7565b61071c6004803603602081101561070c57600080fd5b50356001600160a01b0316611a6b565b6040805194151585526020850193909352838301919091526060830152519081900360800190f35b6103fa600480360360c081101561075a57600080fd5b506001600160a01b0381351690602081013590604081013515159060608101359060808101359060a00135611a96565b610440611d7c565b6105f4611d90565b610359611e97565b6103fa600480360360208110156107b857600080fd5b50356001600160a01b0316611ef8565b6104c5612162565b610416600480360360208110156107e657600080fd5b50356001600160a01b0316612167565b6104406004803603602081101561080c57600080fd5b50356001600160a01b0316612242565b610416612260565b6103fa6004803603604081101561083a57600080fd5b506001600160a01b038135169060200135612266565b6103fa6004803603604081101561086657600080fd5b506001600160a01b0381351690602001356123fa565b6108ae6004803603604081101561089257600080fd5b5080356001600160a01b0316906020013563ffffffff16612417565b6040805163ffffffff90931683526001600160601b0390911660208301528051918290030190f35b6105f4600480360360e08110156108ec57600080fd5b506001600160a01b038135169060208101359060408101359060ff6060820135169060808101359060a08101359060c00135151561245d565b6106ac6004803603602081101561093b57600080fd5b50356001600160a01b0316612803565b6104166004803603602081101561096157600080fd5b50356001600160a01b0316612875565b6103fa6004803603602081101561098757600080fd5b50356001600160a01b031661296d565b61099f612b79565b604080516001600160601b03909316835260208301919091528051918290030190f35b6105f4612baf565b610416612cb2565b610416600480360360408110156109e857600080fd5b506001600160a01b0381358116916020013516612cb8565b610416612ce3565b6108ae60048036036040811015610a1e57600080fd5b5080356001600160a01b0316906020013563ffffffff16612d07565b6105f460048036036020811015610a5057600080fd5b50356001600160a01b0316612d3d565b610440612e6a565b60038054604080516020601f6002600019610100600188161502019095169490940493840181900481028201810190925282815260609390929091830182828015610af45780601f10610ac957610100808354040283529160200191610af4565b820191906000526020600020905b815481529060010190602001808311610ad757829003601f168201915b5050505050905090565b600060026006541415610b58576040805162461bcd60e51b815260206004820152601f60248201527f5265656e7472616e637947756172643a207265656e7472616e742063616c6c00604482015290519081900360640190fd5b60026006556001600160a01b038316610ba25760405162461bcd60e51b815260040180806020018281038252603881526020018061425b6038913960400191505060405180910390fd5b6001600160a01b038316331415610bea5760405162461bcd60e51b815260040180806020018281038252603a81526020018061488a603a913960400191505060405180910390fd5b6000600019831415610bff5750600019610c24565b610c218360405180606001604052806030815260200161415660309139612ee8565b90505b600e546001600160a01b038581169116148015610c5f5750600e54610c539033906001600160a01b0316612cb8565b816001600160601b0316105b15610ca057600e54610c9d90610c7f9033906001600160a01b0316612cb8565b60405180608001604052806047815260200161492f60479139612ee8565b90505b610cb43385836001600160601b0316612f8b565b604080516001600160601b038316815290516001600160a01b0386169133917f8c5be1e5ebec7d5bd14f71427d1e84f3dd0314c0f7b2291e5b200ac8c7c3b9259181900360200190a36001915050600160065592915050565b60135481565b60025490565b7f8cad95687ba82c2ce50e74f7b754645e5117c3a5bec8151c0726d5857980a86681565b600e546001600160a01b031681565b6000610d59848484613077565b610dc984610d656132d6565b610dc48560405180606001604052806028815260200161441d602891396001600160a01b038a16600090815260016020526040812090610da36132d6565b6001600160a01b0316815260208101919091526040016000205491906132da565b612f8b565b5060019392505050565b6000610ddd6132d6565b6001600160a01b0316610dee611d7c565b6001600160a01b031614610e49576040805162461bcd60e51b815260206004820181905260248201527f4f776e61626c653a2063616c6c6572206973206e6f7420746865206f776e6572604482015290519081900360640190fd5b601354610e5a90630f099c00612e79565b421015610e985760405162461bcd60e51b81526004018080602001828103825260638152602001806144a56063913960800191505060405180910390fd5b601154421015610ed95760405162461bcd60e51b81526004018080602001828103825260488152602001806146396048913960600191505060405180910390fd5b6010548311610f195760405162461bcd60e51b815260040180806020018281038252605081526020018061420b6050913960600191505060405180910390fd5b6000610f4b610f426064610f3c600560ff1660105461333490919063ffffffff16565b90613358565b60105490612e79565b905080841115610f8c5760405162461bcd60e51b81526004018080602001828103825260368152602001806143486036913960400191505060405180910390fd5b601054604080519182526020820186905280517fa626f93317e2474b716846a09cf0e28aacb96052643b252fe97704208fecf9b59281900390910190a1610feb846040518060600160405280604081526020016148c460409139612ee8565b6001600160601b03166010556000611007426301e13380612e79565b9050808410156110485760405162461bcd60e51b81526004018080602001828103825260608152602001806144456060913960600191505060405180910390fd5b601154604080519182526020820186905280517f63abb52e09389994840613a4780aa50f65baa62888e3cdcfcb088ac2de0b7db59281900390910190a16110a7846040518060800160405280604881526020016141c360489139612ee8565b6001600160601b03166011555060019150505b92915050565b60125481565b60055460ff1690565b600060026006541415611129576040805162461bcd60e51b815260206004820152601f60248201527f5265656e7472616e637947756172643a207265656e7472616e742063616c6c00604482015290519081900360640190fd5b60026006556111428261113c3386612cb8565b90612e79565b61114b33611648565b1015806111655750600e546001600160a01b038481169116145b6111a05760405162461bcd60e51b815260040180806020018281038252603d8152602001806149c6603d913960400191505060405180910390fd5b6001600160a01b0383166111e55760405162461bcd60e51b81526004018080602001828103825260418152602001806143ac6041913960600191505060405180910390fd5b6001600160a01b03831633141561122d5760405162461bcd60e51b8152600401808060200182810382526043815260200180614aa86043913960600191505060405180910390fd5b6112403384610dc48561113c3389612cb8565b5060018060065592915050565b600e546001600160a01b031690565b600f546001600160a01b031681565b60006112756132d6565b6001600160a01b0316611286611d7c565b6001600160a01b0316146112e1576040805162461bcd60e51b815260206004820181905260248201527f4f776e61626c653a2063616c6c6572206973206e6f7420746865206f776e6572604482015290519081900360640190fd5b6010546112f08361113c610d13565b111561132d5760405162461bcd60e51b81526004018080602001828103825260248152602001806145946024913960400191505060405180910390fd5b60135461133e90630f099c00612e79565b42101561137c5760405162461bcd60e51b8152600401808060200182810382526055815260200180614a036055913960600191505060405180910390fd5b600082116113bb5760405162461bcd60e51b81526004018080602001828103825260308152602001806143ed6030913960400191505060405180910390fd5b6012544210156113fc5760405162461bcd60e51b81526004018080602001828103825260448152602001806142c46044913960600191505060405180910390fd5b6001600160a01b0383166114415760405162461bcd60e51b81526004018080602001828103825260348152602001806145606034913960400191505060405180910390fd5b6001600160a01b0383163014156114895760405162461bcd60e51b815260040180806020018281038252603c815260200180614079603c913960400191505060405180910390fd5b611497426301e13380612e79565b60128190555060006114c1836040518060600160405280602781526020016147b260279139612ee8565b90506114db6064610f3c60026114d5610d13565b90613334565b816001600160601b031611156115225760405162461bcd60e51b81526004018080602001828103825260388152602001806147006038913960400191505060405180910390fd5b61153584826001600160601b03166133bf565b604080516001600160a01b03861681526001600160601b038316602082015281517f51c018f451551bf4e92356d59bc5f1fcd317ef0f884d97807cae6dd395da7fe0929181900390910190a16001600160a01b03808516600090815260076020526040812054610dc99216836134af565b6001600160a01b03811660009081526009602052604090205463ffffffff165b919050565b600e546000906001600160a01b031633146116175760405162461bcd60e51b8152600401808060200182810382526050815260200180613fab6050913960600191505060405180910390fd5b6110ba8261364b565b6007602052600090815260409020546001600160a01b031681565b6116453382613868565b50565b60006110ba61165683612167565b61165f84611682565b9061392b565b600581565b60096020526000908152604090205463ffffffff1681565b6001600160a01b031660009081526020819052604090205490565b6116a56132d6565b6001600160a01b03166116b6611d7c565b6001600160a01b031614611711576040805162461bcd60e51b815260206004820181905260248201527f4f776e61626c653a2063616c6c6572206973206e6f7420746865206f776e6572604482015290519081900360640190fd5b60055460405160009161010090046001600160a01b0316907f8be0079c531659141344cd1fd0a4f28419497f9722a3daafe3b4186f6b6457e0908390a36005805474ffffffffffffffffffffffffffffffffffffffff0019169055565b336000908152600760205260409020546001600160a01b031690565b60004382106117ca5760405162461bcd60e51b815260040180806020018281038252602c8152602001806147d9602c913960400191505060405180910390fd5b6001600160a01b03831660009081526009602052604090205463ffffffff16806117f85760009150506110ba565b6001600160a01b038416600090815260086020908152604080832063ffffffff600019860181168552925290912054168310611875576001600160a01b03841660009081526008602090815260408083206000199490940163ffffffff168352929052205464010000000090046001600160601b031690506110ba565b6001600160a01b038416600090815260086020908152604080832083805290915290205463ffffffff168310156118b05760009150506110ba565b600060001982015b8163ffffffff168163ffffffff16111561196f576000600263ffffffff848403166001600160a01b038916600090815260086020908152604080832094909304860363ffffffff8181168452948252918390208351808501909452549384168084526401000000009094046001600160601b03169083015292509087141561194a576020015194506110ba9350505050565b805163ffffffff1687111561196157819350611968565b6001820392505b50506118b8565b506001600160a01b038516600090815260086020908152604080832063ffffffff909416835292905220546001600160601b036401000000009091041691505092915050565b600a6020526000908152604090205481565b6119cf6132d6565b6001600160a01b03166119e0611d7c565b6001600160a01b031614611a3b576040805162461bcd60e51b815260206004820181905260248201527f4f776e61626c653a2063616c6c6572206973206e6f7420746865206f776e6572604482015290519081900360640190fd5b600f80547fffffffffffffffffffffff00ffffffffffffffffffffffffffffffffffffffff16600160a01b179055565b600c60205260009081526040902080546001820154600283015460039093015460ff90921692909184565b600e546000906001600160a01b03163314611ae25760405162461bcd60e51b8152600401808060200182810382526050815260200180613fab6050913960600191505060405180910390fd5b85611aec33611682565b1015611b3f576040805162461bcd60e51b815260206004820152601460248201527f696e73756666696369656e742062616c616e6365000000000000000000000000604482015290519081900360640190fd5b6001600160a01b038716611b9a576040805162461bcd60e51b815260206004820152601660248201527f63616e6e6f74206265207a65726f206164647265737300000000000000000000604482015290519081900360640190fd5b6001600160a01b038716301415611bf8576040805162461bcd60e51b815260206004820152601760248201527f63616e6e6f74206265207468697320636f6e7472616374000000000000000000604482015290519081900360640190fd5b600e546001600160a01b0388811691161415611c455760405162461bcd60e51b815260040180806020018281038252602e81526020018061437e602e913960400191505060405180910390fd5b6001600160a01b038716331415611ca3576040805162461bcd60e51b815260206004820152601e60248201527f746865206f776e65722063616e6e6f74206c6f636b757020697473656c660000604482015290519081900360640190fd5b6001600160a01b0387166000908152600b6020526040902054611cc69087612e79565b6001600160a01b0388166000908152600b6020908152604080832093909355600c905220805460ff1916861515178155600181018590556002810184905560038101839055611d16338989613077565b604080516001600160a01b038a1681526020810189905287151581830152606081018790526080810186905290517f7ec8d498ce0e4d11d52cf0588976b9a8b30679d7135f9e82de77e2e318a1ea409181900360a00190a1506001979650505050505050565b60055461010090046001600160a01b031690565b600e54604080517f1e83409a00000000000000000000000000000000000000000000000000000000815233600482015290516000926001600160a01b031691631e83409a91602480830192602092919082900301818787803b158015611df557600080fd5b505af1158015611e09573d6000803e3d6000fd5b505050506040513d6020811015611e1f57600080fd5b5051336000908152600c602052604090205490915060ff16151560011415611e5957600e54611e57906001600160a01b031682610afe565b505b604080513381526020810183905281517f47cee97cb7acd717b3c0aa1435d004cd5b3c8c57d70dbceb4e4458bbd60e39d4929181900390910190a150565b60048054604080516020601f6002600019610100600188161502019095169490940493840181900481028201810190925282815260609390929091830182828015610af45780601f10610ac957610100808354040283529160200191610af4565b600e546000906001600160a01b031615611fcc57600e60009054906101000a90046001600160a01b03166001600160a01b0316638da5cb5b6040518163ffffffff1660e01b815260040160206040518083038186803b158015611f5a57600080fd5b505afa158015611f6e573d6000803e3d6000fd5b505050506040513d6020811015611f8457600080fd5b50516001600160a01b03163314611fcc5760405162461bcd60e51b815260040180806020018281038252605a815260200180613f24605a913960600191505060405180910390fd5b6001600160a01b038216612027576040805162461bcd60e51b815260206004820152601660248201527f63616e6e6f74206265207a65726f206164647265737300000000000000000000604482015290519081900360640190fd5b6001600160a01b038216301415612085576040805162461bcd60e51b815260206004820152601760248201527f63616e6e6f74206265207468697320636f6e7472616374000000000000000000604482015290519081900360640190fd5b600e546001600160a01b03838116911614156120e8576040805162461bcd60e51b815260206004820152601c60248201527f6d757374206265206e65772054696d654c6f636b526567697374727900000000604482015290519081900360640190fd5b600e54604080516001600160a01b039283168152918416602083015280517f1b4fa7e35ece4dcbbb914f91d8c3539c828d43c0b8a700237373966a27a9693a9281900390910190a150600e80546001600160a01b03831673ffffffffffffffffffffffffffffffffffffffff199091161790556001919050565b600281565b60008061217383612875565b6001600160a01b0384166000908152600c602052604090206002015490915042108015906121a95750336001600160a01b038416145b80156121b3575080155b80156121d957506001600160a01b0383166000908152600c602052604090206002015415155b156121f8576001600160a01b0383166000908152600b60205260408120555b604080516001600160a01b03851681526020810183905281517febfb816221eaf798e256b970818c54755242a19e3e1a2b5b2060f9d22ecbf46d929181900390910190a192915050565b6001600160a01b039081166000908152600760205260409020541690565b60105481565b6000600260065414156122c0576040805162461bcd60e51b815260206004820152601f60248201527f5265656e7472616e637947756172643a207265656e7472616e742063616c6c00604482015290519081900360640190fd5b60026006556001600160a01b03831661230a5760405162461bcd60e51b81526004018080602001828103825260418152602001806145b86041913960600191505060405180910390fd5b6001600160a01b0383163314156123525760405162461bcd60e51b81526004018080602001828103825260438152602001806148476043913960600191505060405180910390fd5b8161235d3385612cb8565b101561239a5760405162461bcd60e51b81526004018080602001828103825260368152602001806140436036913960400191505060405180910390fd5b600e546001600160a01b03848116911614156123e75760405162461bcd60e51b81526004018080602001828103825260508152602001806141066050913960600191505060405180910390fd5b6112403384610dc48561165f3389612cb8565b600061240e6124076132d6565b8484613077565b50600192915050565b6001600160a01b0391909116600090815260086020908152604080832063ffffffff9485168452909152902054908116916401000000009091046001600160601b031690565b6000807f8cad95687ba82c2ce50e74f7b754645e5117c3a5bec8151c0726d5857980a866612489610a68565b8051906020012061249861393b565b60408051602080820195909552808201939093526060830191909152306080808401919091528151808403909101815260a0830182528051908401207fe48329057bfd03d55e49b547132e39cffd9c1820ad7b9d4c5307691425d15adf60c08401526001600160a01b038d1660e084015261010083018c90526101208084018c905282518085039091018152610140840183528051908501207f19010000000000000000000000000000000000000000000000000000000000006101608501526101628401829052610182808501829052835180860390910181526101a29094019092528251929093019190912091925090841561264557604080517f19457468657265756d205369676e6564204d6573736167653a0a333200000000602080830191909152603c80830185905283518084039091018152605c83018085528151918301919091206000909152607c830180855281905260ff8c16609c84015260bc83018b905260dc83018a9052925160019260fc8082019392601f1981019281900390910190855afa158015612633573d6000803e3d6000fd5b505050602060405103519450506126ac565b60018189898960405160008152602001604052604051808581526020018460ff1681526020018381526020018281526020019450505050506020604051602081039080840390855afa15801561269f573d6000803e3d6000fd5b5050506020604051035193505b60006126b785611682565b116126f35760405162461bcd60e51b815260040180806020018281038252602b8152602001806140b5602b913960400191505060405180910390fd5b6001600160a01b0384166127385760405162461bcd60e51b815260040180806020018281038252602b815260200180614904602b913960400191505060405180910390fd5b6001600160a01b0384166000908152600a60205260409020548a1461278e5760405162461bcd60e51b8152600401808060200182810382526027815260200180613ecd6027913960400191505060405180910390fd5b6001600160a01b0384166000908152600a6020526040902080546001019055428910156127ec5760405162461bcd60e51b815260040180806020018281038252602b815260200180614a7d602b913960400191505060405180910390fd5b6127f6848c613868565b5050505050505050505050565b6001600160a01b03811660009081526009602052604081205463ffffffff168061282e57600061286e565b6001600160a01b0383166000908152600860209081526040808320600019850163ffffffff16845290915290205464010000000090046001600160601b03165b9392505050565b6001600160a01b0381166000908152600b6020908152604080832054600c909252822060010154819042906128ae906301e13380612e79565b1180156128ba57508115155b156128c85791506115c69050565b6001600160a01b0384166000908152600c6020526040902060020154421015806128f0575081155b156128fd5750600061286e565b811561286e576001600160a01b0384166000908152600c60205260409020600181015460029091015461296591612934919061392b565b6001600160a01b0386166000908152600c6020526040902060020154610f3c9061295e904261392b565b8590613334565b949350505050565b60006129776132d6565b6001600160a01b0316612988611d7c565b6001600160a01b0316146129e3576040805162461bcd60e51b815260206004820181905260248201527f4f776e61626c653a2063616c6c6572206973206e6f7420746865206f776e6572604482015290519081900360640190fd5b6001600160a01b038216612a3e576040805162461bcd60e51b815260206004820152601660248201527f63616e6e6f74206265207a65726f206164647265737300000000000000000000604482015290519081900360640190fd5b6001600160a01b038216301415612a9c576040805162461bcd60e51b815260206004820152601760248201527f63616e6e6f74206265207468697320636f6e7472616374000000000000000000604482015290519081900360640190fd5b600f546001600160a01b0383811691161415612aff576040805162461bcd60e51b815260206004820152601f60248201527f6d757374206265206e65772052657761726473204469737472696275746f7200604482015290519081900360640190fd5b600f54604080516001600160a01b039283168152918416602083015280517fd8732c543edde4e60b54e1136459ee3a610f1243749765d9dbdbcf9fe76a7bd59281900390910190a150600f80546001600160a01b03831673ffffffffffffffffffffffffffffffffffffffff199091161790556001919050565b6000806000612ba26010546040518060600160405280603d8152602001613e6d603d9139612ee8565b6011549093509150509091565b612bb76132d6565b6001600160a01b0316612bc8611d7c565b6001600160a01b031614612c23576040805162461bcd60e51b815260206004820181905260248201527f4f776e61626c653a2063616c6c6572206973206e6f7420746865206f776e6572604482015290519081900360640190fd5b600f54600160a81b900460ff1615612c82576040805162461bcd60e51b815260206004820152600e60248201527f4241424c206d75737420666c6f77000000000000000000000000000000000000604482015290519081900360640190fd5b600f80547fffffffffffffffffffff0000ffffffffffffffffffffffffffffffffffffffff16600160a81b179055565b60115481565b6001600160a01b03918216600090815260016020908152604080832093909416825291909152205490565b7fe48329057bfd03d55e49b547132e39cffd9c1820ad7b9d4c5307691425d15adf81565b600860209081526000928352604080842090915290825290205463ffffffff81169064010000000090046001600160601b031682565b612d456132d6565b6001600160a01b0316612d56611d7c565b6001600160a01b031614612db1576040805162461bcd60e51b815260206004820181905260248201527f4f776e61626c653a2063616c6c6572206973206e6f7420746865206f776e6572604482015290519081900360640190fd5b6001600160a01b038116612df65760405162461bcd60e51b8152600401808060200182810382526026815260200180613ffb6026913960400191505060405180910390fd5b6005546040516001600160a01b0380841692610100900416907f8be0079c531659141344cd1fd0a4f28419497f9722a3daafe3b4186f6b6457e090600090a3600580546001600160a01b039092166101000274ffffffffffffffffffffffffffffffffffffffff0019909216919091179055565b600d546001600160a01b031681565b808201828110156110ba57600080fd5b60008282018381101561286e576040805162461bcd60e51b815260206004820152601b60248201527f536166654d6174683a206164646974696f6e206f766572666c6f770000000000604482015290519081900360640190fd5b505050565b6000816c010000000000000000000000008410612f835760405162461bcd60e51b81526004018080602001828103825283818151815260200191508051906020019080838360005b83811015612f48578181015183820152602001612f30565b50505050905090810190601f168015612f755780820380516001836020036101000a031916815260200191505b509250505060405180910390fd5b509192915050565b6001600160a01b038316612fd05760405162461bcd60e51b815260040180806020018281038252602481526020018061478e6024913960400191505060405180910390fd5b6001600160a01b0382166130155760405162461bcd60e51b81526004018080602001828103825260228152602001806140216022913960400191505060405180910390fd5b6001600160a01b03808416600081815260016020908152604080832094871680845294825291829020859055815185815291517f8c5be1e5ebec7d5bd14f71427d1e84f3dd0314c0f7b2291e5b200ac8c7c3b9259281900390910190a3505050565b600d54604080517f5b14f1830000000000000000000000000000000000000000000000000000000081523060048201529051613110926001600160a01b031691635b14f183916024808301926020929190829003018186803b1580156130dc57600080fd5b505afa1580156130f0573d6000803e3d6000fd5b505050506040513d602081101561310657600080fd5b505115605361393f565b6001600160a01b0383166131555760405162461bcd60e51b81526004018080602001828103825260428152602001806148056042913960600191505060405180910390fd5b6001600160a01b03821661319a5760405162461bcd60e51b81526004018080602001828103825260408152602001806143086040913960400191505060405180910390fd5b6001600160a01b0382163014156131e25760405162461bcd60e51b81526004018080602001828103825260508152602001806149766050913960600191505060405180910390fd5b806131ec84611682565b10156132295760405162461bcd60e51b815260040180806020018281038252603181526020018061475d6031913960400191505060405180910390fd5b8061323384611648565b10156132705760405162461bcd60e51b81526004018080602001828103825260408152602001806145f96040913960400191505060405180910390fd5b61327b838383613951565b6001600160a01b0380841660009081526007602090815260408083205486851684529281902054815160608101909252602c808352612ee3959485169491909116926132d1928792909161450890830139612ee8565b6134af565b3390565b6000818484111561332c5760405162461bcd60e51b8152602060048201818152835160248401528351909283926044909101919085019080838360008315612f48578181015183820152602001612f30565b505050900390565b600082158061334f5750508181028183828161334c57fe5b04145b6110ba57600080fd5b60008082116133ae576040805162461bcd60e51b815260206004820152601a60248201527f536166654d6174683a206469766973696f6e206279207a65726f000000000000604482015290519081900360640190fd5b8183816133b757fe5b049392505050565b6001600160a01b03821661341a576040805162461bcd60e51b815260206004820152601f60248201527f45524332303a206d696e7420746f20746865207a65726f206164647265737300604482015290519081900360640190fd5b61342660008383613aac565b6002546134339082612e89565b6002556001600160a01b0382166000908152602081905260409020546134599082612e89565b6001600160a01b0383166000818152602081815260408083209490945583518581529351929391927fddf252ad1be2c89b69c2b068fc378daa952ba7f163c4a11628f55a4df523b3ef9281900390910190a35050565b816001600160a01b0316836001600160a01b0316141580156134da57506000816001600160601b0316115b15612ee3576001600160a01b03831615613593576001600160a01b03831660009081526009602052604081205463ffffffff16908161351a57600061355a565b6001600160a01b0385166000908152600860209081526040808320600019860163ffffffff16845290915290205464010000000090046001600160601b03165b90506000613581828560405180606001604052806031815260200161429360319139613b28565b905061358f86848484613b8d565b5050505b6001600160a01b03821615612ee3576001600160a01b03821660009081526009602052604081205463ffffffff1690816135ce57600061360e565b6001600160a01b0384166000908152600860209081526040808320600019860163ffffffff16845290915290205464010000000090046001600160601b03165b905060006136358285604051806060016040528060308152602001613ef460309139613d4e565b905061364385848484613b8d565b505050505050565b600e546000906001600160a01b031633146136975760405162461bcd60e51b8152600401808060200182810382526050815260200180613fab6050913960600191505060405180910390fd5b6001600160a01b0382166000908152600b60205260409020546136eb5760405162461bcd60e51b815260040180806020018281038252602c815260200180614534602c913960400191505060405180910390fd5b60006136f683612167565b9050600081116137375760405162461bcd60e51b815260040180806020018281038252603d815260200180614186603d913960400191505060405180910390fd5b6001600160a01b0383166000908152600c602052604090205460ff1615156001146137935760405162461bcd60e51b81526004018080602001828103825260468152602001806146ba6046913960600191505060405180910390fd5b6001600160a01b038084166000908152600b60209081526040808320839055600c9091528120805460ff19168155600181018290556002810182905560030155600e546137e39185911683610d4c565b61381e5760405162461bcd60e51b815260040180806020018281038252602d815260200180613f7e602d913960400191505060405180910390fd5b604080516001600160a01b03851681526020810183905281517f27f83af92b39768b17fe0c8d6922452702717efb8626d97e7a754e0b27d4f6d2929181900390910190a192915050565b6001600160a01b03808316600090815260076020526040812054909116906138b061389285613db8565b604051806060016040528060258152602001614a5860259139612ee8565b6001600160a01b03858116600081815260076020526040808220805473ffffffffffffffffffffffffffffffffffffffff1916898616908117909155905194955093928616927f3134e8a2e6d97e929a7e54011ea5485d7d196dd5f0ba4d4ef95803e8e3fc257f9190a46139258284836134af565b50505050565b808203828111156110ba57600080fd5b4690565b8161394d5761394d81613dc3565b5050565b6001600160a01b0383166139965760405162461bcd60e51b81526004018080602001828103825260258152602001806147386025913960400191505060405180910390fd5b6001600160a01b0382166139db5760405162461bcd60e51b8152600401808060200182810382526023815260200180613eaa6023913960400191505060405180910390fd5b6139e6838383613aac565b613a23816040518060600160405280602681526020016140e0602691396001600160a01b03861660009081526020819052604090205491906132da565b6001600160a01b038085166000908152602081905260408082209390935590841681522054613a529082612e89565b6001600160a01b038084166000818152602081815260409182902094909455805185815290519193928716927fddf252ad1be2c89b69c2b068fc378daa952ba7f163c4a11628f55a4df523b3ef92918290030190a3505050565b613ab7838383612ee3565b612ee36001600160a01b0384161580613add5750600e546001600160a01b038581169116145b80613af55750600f546001600160a01b038581169116145b80613b0d5750600e546001600160a01b038481169116145b80613b215750600f54600160a01b900460ff165b603e61393f565b6000836001600160601b0316836001600160601b03161115829061332c5760405162461bcd60e51b8152602060048201818152835160248401528351909283926044909101919085019080838360008315612f48578181015183820152602001612f30565b6000613bb14360405180606001604052806039815260200161468160399139613e16565b905060008463ffffffff16118015613bfa57506001600160a01b038516600090815260086020908152604080832063ffffffff6000198901811685529252909120548282169116145b15613c5a576001600160a01b0385166000908152600860209081526040808320600019880163ffffffff168452909152902080546fffffffffffffffffffffffff0000000019166401000000006001600160601b03851602179055613cfa565b60408051808201825263ffffffff80841682526001600160601b0380861660208085019182526001600160a01b038b166000818152600883528781208c871682528352878120965187549451909516640100000000026fffffffffffffffffffffffff000000001995871663ffffffff19958616179590951694909417909555938252600990935292909220805460018801909316929091169190911790555b604080516001600160601b0380861682528416602082015281516001600160a01b038816927fdec2bacdd2f05b59de34da9b523dff8be42e5e38e818c82fdb0bae774387a724928290030190a25050505050565b6000838301826001600160601b038087169083161015613daf5760405162461bcd60e51b8152602060048201818152835160248401528351909283926044909101919085019080838360008315612f48578181015183820152602001612f30565b50949350505050565b60006110ba82611682565b62461bcd60e51b6000908152602060045260076024526642414223000030600a808404818106603090810160081b95839006959095019082900491820690940160101b939093010160c81b604452606490fd5b6000816401000000008410612f835760405162461bcd60e51b8152602060048201818152835160248401528351909283926044909101919085019080838360008315612f48578181015183820152602001612f3056fe4241424c546f6b656e3a3a6d6178537570706c79416c6c6f7765643a206d6178537570706c79416c6c6f7765642065786365656473203936206269747345524332303a207472616e7366657220746f20746865207a65726f2061646472657373566f7465546f6b656e3a3a64656c656761746542795369673a20696e76616c6964206e6f6e6365566f7465546f6b656e3a3a5f6d6f766544656c6567617465733a20766f746520616d6f756e74206f766572666c6f777354696d654c6f636b6564546f6b656e3a3a206f6e6c7954696d654c6f636b4f776e65723a2063616e206f6e6c7920626520657865637574656420627920746865206f776e6572206f662054696d654c6f636b526567697374727954696d654c6f636b6564546f6b656e3a3a63616e63656c546f6b656e733a5472616e73666572206661696c656454696d654c6f636b6564546f6b656e3a3a206f6e6c7954696d654c6f636b52656769737472793a2063616e206f6e6c792062652065786563757465642062792054696d654c6f636b52656769737472794f776e61626c653a206e6577206f776e657220697320746865207a65726f206164647265737345524332303a20617070726f766520746f20746865207a65726f206164647265737354696d654c6f636b6564546f6b656e3a3a6465637265617365416c6c6f77616e63653a556e646572666c6f7720636f6e646974696f6e4241424c546f6b656e3a3a6d696e743a2063616e6e6f74206d696e7420746f207468652061646472657373206f66207468697320636f6e7472616374566f7465546f6b656e3a3a64656c656761746542795369673a20696e76616c69642064656c656761746f7245524332303a207472616e7366657220616d6f756e7420657863656564732062616c616e636554696d654c6f636b6564546f6b656e3a3a6465637265617365416c6c6f77616e63653a63616e6e6f7420646563726561736520616c6c6f77616e636520746f2074696d654c6f636b526567697374727954696d654c6f636b6564546f6b656e3a3a617070726f76653a20616d6f756e742065786365656473203936206269747354696d654c6f636b6564546f6b656e3a3a63616e63656c546f6b656e733a546865726520617265206e6f206d6f7265206c6f636b656420746f6b656e734241424c546f6b656e3a3a6368616e67654d6178537570706c793a206e6577206e65774d6178537570706c79416c6c6f7765644166746572206578636565647320393620626974734241424c546f6b656e3a3a6368616e67654d6178537570706c793a206368616e67654d6178537570706c792073686f756c6420626520686967686572207468616e2070726576696f75732076616c756554696d654c6f636b6564546f6b656e3a3a617070726f76653a207370656e6465722063616e6e6f74206265207a65726f2061646472657373566f7465546f6b656e3a3a5f6d6f766544656c6567617465733a20766f746520616d6f756e7420756e646572666c6f77734241424c546f6b656e3a3a6d696e743a206d696e74696e67206e6f7420616c6c6f776564207965742062656361757365206d696e74696e67416c6c6f776564416674657254696d654c6f636b6564546f6b656e3a3a205f7472616e736665723a2063616e6e6f74207472616e7366657220746f20746865207a65726f20616464726573734241424c546f6b656e3a3a6368616e67654d6178537570706c793a206578636565646564206f6620616c6c6f7765642035252063617063616e6e6f74206265207468652054696d654c6f636b526567697374727920636f6e747261637420697473656c6654696d654c6f636b6564546f6b656e3a3a696e637265617365416c6c6f77616e63653a5370656e6465722063616e6e6f74206265207a65726f20616464726573734241424c546f6b656e3a3a6d696e743a206d696e742073686f756c6420626520686967686572207468616e207a65726f45524332303a207472616e7366657220616d6f756e74206578636565647320616c6c6f77616e63654241424c546f6b656e3a3a6368616e67654d6178537570706c793a20746865206e65774d6178537570706c79416c6c6f77656441667465722073686f756c64206265206174206c656173742031207965617220696e20746865206675747572654241424c546f6b656e3a3a6368616e67654d6178537570706c793a2061206368616e6765206f6e206d6178537570706c79416c6c6f776564206e6f7420616c6c6f77656420756e74696c2038207965617273206166746572206465706c6f796d656e7454696d654c6f636b6564546f6b656e3a3a205f7472616e736665723a2075696e743936206f766572666c6f7754696d654c6f636b6564546f6b656e3a3a63616e63656c546f6b656e733a4e6f7420726567697374657265644241424c546f6b656e3a3a6d696e743a2063616e6e6f74207472616e7366657220746f20746865207a65726f20616464726573734241424c546f6b656e3a3a6d696e743a206d617820737570706c7920657863656564656454696d654c6f636b6564546f6b656e3a3a6465637265617365416c6c6f77616e63653a5370656e6465722063616e6e6f74206265207a65726f206164647265737354696d654c6f636b6564546f6b656e3a3a205f7472616e736665723a20617474656d7074696e6720746f207472616e73666572206c6f636b65642066756e64734241424c546f6b656e3a3a6368616e67654d6178537570706c793a2061206368616e6765206f6e206d6178537570706c79416c6c6f776564206e6f7420616c6c6f77656420796574566f7465546f6b656e3a3a5f7772697465436865636b706f696e743a20626c6f636b206e756d6265722065786365656473203332206269747354696d654c6f636b6564546f6b656e3a3a63616e63656c546f6b656e733a63616e6e6f742063616e63656c206c6f636b656420746f6b656e7320746f20496e766573746f72734241424c546f6b656e3a3a6d696e743a206578636565646564206d696e7420636170206f66203225206f6620746f74616c20737570706c7945524332303a207472616e736665722066726f6d20746865207a65726f206164647265737354696d654c6f636b6564546f6b656e3a3a205f7472616e736665723a20696e73756666696369656e742062616c616e636545524332303a20617070726f76652066726f6d20746865207a65726f20616464726573734241424c546f6b656e3a3a6d696e743a20616d6f756e74206578636565647320393620626974734241424c546f6b656e3a3a6765745072696f72566f7465733a206e6f74207965742064657465726d696e656454696d654c6f636b6564546f6b656e3a3a205f7472616e736665723a2063616e6e6f74207472616e736665722066726f6d20746865207a65726f206164647265737354696d654c6f636b6564546f6b656e3a3a6465637265617365416c6c6f77616e63653a5370656e6465722063616e6e6f7420626520746865206d73672e73656e64657254696d654c6f636b6564546f6b656e3a3a617070726f76653a207370656e6465722063616e6e6f7420626520746865206d73672e73656e6465724241424c546f6b656e3a3a6368616e67654d6178537570706c793a20706f74656e7469616c206d617820616d6f756e7420657863656564732039362062697473566f7465546f6b656e3a3a64656c656761746542795369673a20696e76616c6964207369676e617475726554696d654c6f636b6564546f6b656e3a3a617070726f76653a2063616e6e6f7420646563726561736520616c6c6f77616e636520746f2074696d656c6f636b726567697374727954696d654c6f636b6564546f6b656e3a3a205f7472616e736665723a20646f206e6f74207472616e7366657220746f6b656e7320746f2074686520746f6b656e20636f6e747261637420697473656c6654696d654c6f636b6564546f6b656e3a3a696e637265617365416c6c6f77616e63653a4e6f7420656e6f75676820756e6c6f636b656420746f6b656e734241424c546f6b656e3a3a6d696e743a206d696e74696e67206e6f7420616c6c6f776564206166746572207468652046495253545f45504f43485f4d494e542068617320706173736564203e3d2038207965617273566f7465546f6b656e3a3a5f64656c65676174653a2075696e743936206f766572666c6f77566f7465546f6b656e3a3a64656c656761746542795369673a207369676e6174757265206578706972656454696d654c6f636b6564546f6b656e3a3a696e637265617365416c6c6f77616e63653a5370656e6465722063616e6e6f7420626520746865206d73672e73656e646572a2646970667358221220b60f513208010dc4e8bc27793259d8faee771be695d2fcecb25dc7d78f50697664736f6c63430007060033",
  "devdoc": {
    "details": "The BABLToken contract is ERC20 using 18 decimals as a standard Is Ownable to transfer ownership to Governor Alpha for Decentralized Governance It overrides the mint and maximum supply to control the timing and maximum cap allowed along the time.",
    "kind": "dev",
    "methods": {
      "allowance(address,address)": {
        "details": "See {IERC20-allowance}."
      },
      "approve(address,uint256)": {
        "details": "This will overwrite the approval amount for `spender` except in the case of spender is Time Lock Registry and is subject to issues noted [here](https://eips.ethereum.org/EIPS/eip-20#approve)",
        "params": {
          "rawAmount": "The number of tokens that are approved (2^256-1 means infinite)",
          "spender": "The address of the account which may transfer tokens"
        },
        "returns": {
          "_0": "Whether or not the approval succeeded"
        }
      },
      "balanceOf(address)": {
        "details": "See {IERC20-balanceOf}."
      },
      "cancelVestedTokens(address)": {
        "details": "Cancel distribution registration",
        "params": {
          "lockedAccount": "that should have its still locked distribution removed due to non-completion of its vesting period"
        }
      },
      "changeMaxSupply(uint256,uint256)": {
        "params": {
          "newMaxSupply": "The new maximum limit, limited by a maximum of 5% cap per year",
          "newMaxSupplyAllowedAfter": "The new waiting period to change the maxSupplyAllowed limited for a minimum of 1 year"
        },
        "returns": {
          "_0": "Whether or not the changeMaxSupply succeeded"
        }
      },
      "claimMyTokens()": {
        "details": "Claim msg.sender tokens (if any available in the registry)"
      },
      "decimals()": {
        "details": "Returns the number of decimals used to get its user representation. For example, if `decimals` equals `2`, a balance of `505` tokens should be displayed to a user as `5,05` (`505 / 10 ** 2`). Tokens usually opt for a value of 18, imitating the relationship between Ether and Wei. This is the value {ERC20} uses, unless {_setupDecimals} is called. NOTE: This information is only used for _display_ purposes: it in no way affects any of the arithmetic of the contract, including {IERC20-balanceOf} and {IERC20-transfer}."
      },
      "decreaseAllowance(address,uint256)": {
        "details": "Atomically decreases the allowance granted to `spender` by the caller. This is an override with respect to the fulfillment of vesting conditions along the way An user cannot decrease the allowance to the Time Lock Registry who is in charge of vesting conditions",
        "returns": {
          "_0": "Whether or not the decreaseAllowance succeeded"
        }
      },
      "delegate(address)": {
        "params": {
          "delegatee": "The address to delegate votes to"
        }
      },
      "delegateBySig(address,uint256,uint256,uint8,bytes32,bytes32,bool)": {
        "params": {
          "delegatee": "The address to delegate votes to",
          "expiry": "The time at which to expire the signature",
          "nonce": "The contract state required to match the signature",
          "r": "Half of the ECDSA signature pair",
          "s": "Half of the ECDSA signature pair",
          "v": "The recovery byte of the signature"
        }
      },
      "getCurrentVotes(address)": {
        "params": {
          "account": "Account to get voting power for"
        },
        "returns": {
          "_0": "Voting power for an account"
        }
      },
      "getPriorVotes(address,uint256)": {
        "params": {
          "account": "Account to get voting power for",
          "blockNumber": "Block to get voting power at"
        },
        "returns": {
          "_0": "Voting power for an account at specific block"
        }
      },
      "getTimeLockRegistry()": {
        "returns": {
          "_0": "Address of the Time Lock Registry"
        }
      },
      "increaseAllowance(address,uint256)": {
        "details": "This is an override with respect to the fulfillment of vesting conditions along the way However an user can increase allowance many times, it will never be able to transfer locked tokens during vesting period",
        "returns": {
          "_0": "Whether or not the increaseAllowance succeeded"
        }
      },
      "lockedBalance(address)": {
        "params": {
          "account": "Account to check"
        },
        "returns": {
          "_0": "Amount locked in the time of checking"
        }
      },
      "maxSupply()": {
        "returns": {
          "_0": "Returns the value of maxSupplyAllowed at the time"
        }
      },
      "mint(address,uint256)": {
        "details": "MINT_CAP The new maximum limit, limited by a 2% cap of totalSupply for each new mint and always limited by maxSupplyAllowed. mintingAllowedAfter Defines the next time allowed for a new mint",
        "params": {
          "_amount": "The number of tokens to be minted",
          "_to": "The address of the destination account that will receive the new BABL tokens"
        },
        "returns": {
          "_0": "Whether or not the mint succeeded"
        }
      },
      "name()": {
        "details": "Returns the name of the token."
      },
      "owner()": {
        "details": "Returns the address of the current owner."
      },
      "registerLockup(address,uint256,bool,uint256,uint256,uint256)": {
        "params": {
          "_amount": "Tokens to be transferred",
          "_lastClaim": "Unix Time when the claim was done from that particular address",
          "_profile": "True if is a Team Member or Advisor",
          "_receiver": "Address to receive the tokens",
          "_vestingBegin": "Unix Time when the vesting for that particular address",
          "_vestingEnd": "Unix Time when the vesting for that particular address"
        }
      },
      "renounceOwnership()": {
        "details": "Leaves the contract without owner. It will not be possible to call `onlyOwner` functions anymore. Can only be called by the current owner. NOTE: Renouncing ownership will leave the contract without an owner, thereby removing any functionality that is only available to the owner."
      },
      "setRewardsDistributor(address)": {
        "params": {
          "newRewardsDistributor": "Address of Rewards Distributor contract"
        }
      },
      "setTimeLockRegistry(address)": {
        "params": {
          "newTimeLockRegistry": "Address of TimeLockRegistry contract"
        }
      },
      "symbol()": {
        "details": "Returns the symbol of the token, usually a shorter version of the name."
      },
      "totalSupply()": {
        "details": "See {IERC20-totalSupply}."
      },
      "transfer(address,uint256)": {
        "details": "See {IERC20-transfer}. Requirements: - `recipient` cannot be the zero address. - the caller must have a balance of at least `amount`."
      },
      "transferFrom(address,address,uint256)": {
        "details": "See {IERC20-transferFrom}. Emits an {Approval} event indicating the updated allowance. This is not required by the EIP. See the note at the beginning of {ERC20}. Requirements: - `sender` and `recipient` cannot be the zero address. - `sender` must have a balance of at least `amount`. - the caller must have allowance for ``sender``'s tokens of at least `amount`."
      },
      "transferOwnership(address)": {
        "details": "Transfers ownership of the contract to a new account (`newOwner`). Can only be called by the current owner."
      },
      "unlockedBalance(address)": {
        "params": {
          "account": "Account to check"
        },
        "returns": {
          "_0": "Amount that is unlocked and available eg. to transfer"
        }
      },
      "viewLockedBalance(address)": {
        "params": {
          "account": "Account to check"
        },
        "returns": {
          "_0": "Amount locked in the time of checking"
        }
      }
    },
    "stateVariables": {
      "FIRST_EPOCH_MINT": {
        "details": "First Epoch Mint where no more than 1 Million BABL can be minted (>= 8 Years)"
      },
      "MIN_TIME_BETWEEN_MINTS": {
        "details": "Minimum time between mints after"
      },
      "NAME": {
        "details": "EIP-20 token name for this token"
      },
      "SYMBOL": {
        "details": "EIP-20 token symbol for this token"
      },
      "maxSupplyAllowed": {
        "details": "Maximum number of tokens in circulation of 1 million for the first 8 years (using 18 decimals as ERC20 standard)"
      }
    },
    "title": "BABL Token",
    "version": 1
  },
  "userdoc": {
    "events": {
      "Cancel(address,uint256)": {
        "notice": "An event that emitted when a cancellation of Lock tokens is registered"
      },
      "Claim(address,uint256)": {
        "notice": "An event that emitted when a claim of tokens are registered"
      },
      "LockedBalance(address,uint256)": {
        "notice": "An event that emitted when a lockedBalance query is done"
      },
      "MaxSupplyAllowedAfterChanged(uint256,uint256)": {
        "notice": "An event that emitted when maxSupplyAllowedAfter changes"
      },
      "MaxSupplyChanged(uint256,uint256)": {
        "notice": "An event thats emitted when maxSupplyAllowed changes"
      },
      "MintedNewTokens(address,uint256)": {
        "notice": "An event that emitted when a new mint ocurr"
      },
      "NewLockout(address,uint256,bool,uint256,uint256)": {
        "notice": "An event that emitted when a new lockout ocurr"
      },
      "NewRewardsDistributorRegistration(address,address)": {
        "notice": "An event that emitted when a new Rewards Distributor is registered"
      },
      "NewTimeLockRegistration(address,address)": {
        "notice": "An event that emitted when a new Time Lock is registered"
      }
    },
    "kind": "user",
    "methods": {
      "BABLTokenDeploymentTimestamp()": {
        "notice": "The timestamp of BABL Token deployment"
      },
      "DELEGATION_TYPEHASH()": {
        "notice": "The EIP-712 typehash for the delegation struct used by the contract"
      },
      "DOMAIN_TYPEHASH()": {
        "notice": "The EIP-712 typehash for the contract's domain"
      },
      "MAX_SUPPLY_CAP()": {
        "notice": "Cap on the percentage of maxSupplyAllowed that can be increased per year after maxSupplyAllowedAfter"
      },
      "MINT_CAP()": {
        "notice": "Cap on the percentage of totalSupply that can be minted at each mint after the initial 1 Million BABL"
      },
      "approve(address,uint256)": {
        "notice": "PRIVILEGED GOVERNANCE FUNCTION. Override the Approval of allowances of ERC20 with special conditions for vestingOverride of \"Approve\" function to allow the `spender` to transfer up to `amount` from `src`"
      },
      "cancelVestedTokens(address)": {
        "notice": "PRIVILEGED GOVERNANCE FUNCTION. Cancel and remove locked tokens due to non-completion of vesting period applied only by Time Lock Registry and specifically to Team or Advisors as it does not apply to investors."
      },
      "changeMaxSupply(uint256,uint256)": {
        "notice": "PRIVILEGED GOVERNANCE FUNCTION. Allows governance to change maxSupplyAllowedSet-up a greater maxSupplyAllowed value to allow more tokens to be minted"
      },
      "checkpoints(address,uint32)": {
        "notice": "A record of votes checkpoints for each account, by index"
      },
      "claimMyTokens()": {
        "notice": "GOVERNANCE FUNCTION. Each token owner can claim its own specific tokens with its own specific vesting conditions from the Time Lock Registry"
      },
      "constructor": {
        "notice": "Construct a new BABL token and gives ownership to sender"
      },
      "decreaseAllowance(address,uint256)": {
        "notice": "PRIVILEGED GOVERNANCE FUNCTION. Override the decrease of allowances of ERC20 with special conditions for vestingAtomically decrease the allowance granted to `spender` by the caller."
      },
      "delegate(address)": {
        "notice": "PRIVILEGED GOVERNANCE FUNCTION. Delegating votes from msg.sender to delegateeDelegate votes from `msg.sender` to `delegatee`"
      },
      "delegateBySig(address,uint256,uint256,uint8,bytes32,bytes32,bool)": {
        "notice": "PRIVILEGED GOVERNANCE FUNCTION. Delegate votes using signature to 'delegatee'Delegates votes from signatory to `delegatee`"
      },
      "disableTokensTransfers()": {
        "notice": "PRIVILEGED GOVERNANCE FUNCTION. Disables transfers of ERC20 BABL Tokens"
      },
      "enableTokensTransfers()": {
        "notice": "PRIVILEGED GOVERNANCE FUNCTION. Allows transfers of ERC20 BABL Tokens Can only happen after the protocol is fully decentralized."
      },
      "getCurrentVotes(address)": {
        "notice": "GOVERNANCE FUNCTION. Check Delegate votes using signature to 'delegatee'Get current voting power for an account"
      },
      "getPriorVotes(address,uint256)": {
        "notice": "GOVERNANCE FUNCTION. Get voting power at a specific block for an account"
      },
      "getTimeLockRegistry()": {
        "notice": "PUBLIC FUNCTION. Get the address of Time Lock RegistryGet the address of Time Lock Registry"
      },
      "increaseAllowance(address,uint256)": {
        "notice": "PRIVILEGED GOVERNANCE FUNCTION. Override the Increase of allowances of ERC20 with special conditions for vestingAtomically increases the allowance granted to `spender` by the caller."
      },
      "lockedBalance(address)": {
        "notice": "GOVERNANCE FUNCTION. Get locked balance for an accountGet locked balance for an account"
      },
      "maxSupply()": {
        "notice": "PUBLIC FUNCTION. Get the value of maxSupplyAllowed"
      },
      "maxSupplyAllowedAfter()": {
        "notice": "The timestamp after which a change on maxSupplyAllowed may occur"
      },
      "mint(address,uint256)": {
        "notice": "PRIVILEGED GOVERNANCE FUNCTION. Allows to mint new tokensMint new BABL tokens. Initial 1 Million BABL. After 8 years new BABL could be minted by governance decision"
      },
      "mintingAllowedAfter()": {
        "notice": "The timestamp after which minting may occur after FIRST_EPOCH_MINT (8 years)"
      },
      "nonces(address)": {
        "notice": "A record of states for signing / validating signatures"
      },
      "numCheckpoints(address)": {
        "notice": "The number of checkpoints for each account"
      },
      "registerLockup(address,uint256,bool,uint256,uint256,uint256)": {
        "notice": "PRIVILEGED GOVERNANCE FUNCTION. Register new token lockup conditions for vested tokens defined only by Time Lock RegistryTokens are completely delivered during the registration however lockup conditions apply for vested tokens locking them according to the distribution epoch periods and the type of recipient (Team, Advisor, Investor) Emits a transfer event showing a transfer to the recipient Only the registry can call this function"
      },
      "setRewardsDistributor(address)": {
        "notice": "PRIVILEGED GOVERNANCE FUNCTION. Set the Rewards Distributor contract to control either BABL Mining or profit rewardsSet the Rewards Distriburor contract to control both types of rewards (profit and BABL Mining program)"
      },
      "setTimeLockRegistry(address)": {
        "notice": "PRIVILEGED GOVERNANCE FUNCTION. Set the Time Lock Registry contract to control token vesting conditionsSet the Time Lock Registry contract to control token vesting conditions"
      },
      "unlockedBalance(address)": {
        "notice": "GOVERNANCE FUNCTION. Get unlocked balance for an accountGet unlocked balance for an account"
      },
      "vestedToken(address)": {
        "notice": "A record of token owners under vesting conditions for each account, by index"
      },
      "viewLockedBalance(address)": {
        "notice": "GOVERNANCE FUNCTION. View the locked balance for an accountView locked balance for an account"
      }
    },
    "version": 1
  },
  "storageLayout": {
    "storage": [
      {
        "astId": 2514,
        "contract": "contracts/token/BABLToken.sol:BABLToken",
        "label": "_balances",
        "offset": 0,
        "slot": "0",
        "type": "t_mapping(t_address,t_uint256)"
      },
      {
        "astId": 2520,
        "contract": "contracts/token/BABLToken.sol:BABLToken",
        "label": "_allowances",
        "offset": 0,
        "slot": "1",
        "type": "t_mapping(t_address,t_mapping(t_address,t_uint256))"
      },
      {
        "astId": 2522,
        "contract": "contracts/token/BABLToken.sol:BABLToken",
        "label": "_totalSupply",
        "offset": 0,
        "slot": "2",
        "type": "t_uint256"
      },
      {
        "astId": 2524,
        "contract": "contracts/token/BABLToken.sol:BABLToken",
        "label": "_name",
        "offset": 0,
        "slot": "3",
        "type": "t_string_storage"
      },
      {
        "astId": 2526,
        "contract": "contracts/token/BABLToken.sol:BABLToken",
        "label": "_symbol",
        "offset": 0,
        "slot": "4",
        "type": "t_string_storage"
      },
      {
        "astId": 2528,
        "contract": "contracts/token/BABLToken.sol:BABLToken",
        "label": "_decimals",
        "offset": 0,
        "slot": "5",
        "type": "t_uint8"
      },
      {
        "astId": 1456,
        "contract": "contracts/token/BABLToken.sol:BABLToken",
        "label": "_owner",
        "offset": 1,
        "slot": "5",
        "type": "t_address"
      },
      {
        "astId": 5859,
        "contract": "contracts/token/BABLToken.sol:BABLToken",
        "label": "_status",
        "offset": 0,
        "slot": "6",
        "type": "t_uint256"
      },
      {
        "astId": 44339,
        "contract": "contracts/token/BABLToken.sol:BABLToken",
        "label": "delegates",
        "offset": 0,
        "slot": "7",
        "type": "t_mapping(t_address,t_address)"
      },
      {
        "astId": 44351,
        "contract": "contracts/token/BABLToken.sol:BABLToken",
        "label": "checkpoints",
        "offset": 0,
        "slot": "8",
        "type": "t_mapping(t_address,t_mapping(t_uint32,t_struct(Checkpoint)44344_storage))"
      },
      {
        "astId": 44356,
        "contract": "contracts/token/BABLToken.sol:BABLToken",
        "label": "numCheckpoints",
        "offset": 0,
        "slot": "9",
        "type": "t_mapping(t_address,t_uint32)"
      },
      {
        "astId": 44361,
        "contract": "contracts/token/BABLToken.sol:BABLToken",
        "label": "nonces",
        "offset": 0,
        "slot": "10",
        "type": "t_mapping(t_address,t_uint256)"
      },
      {
        "astId": 43255,
        "contract": "contracts/token/BABLToken.sol:BABLToken",
        "label": "distribution",
        "offset": 0,
        "slot": "11",
        "type": "t_mapping(t_address,t_uint256)"
      },
      {
        "astId": 43269,
        "contract": "contracts/token/BABLToken.sol:BABLToken",
        "label": "vestedToken",
        "offset": 0,
        "slot": "12",
        "type": "t_mapping(t_address,t_struct(VestedToken)43264_storage)"
      },
      {
        "astId": 43271,
        "contract": "contracts/token/BABLToken.sol:BABLToken",
        "label": "controller",
        "offset": 0,
        "slot": "13",
        "type": "t_contract(IBabController)24674"
      },
      {
        "astId": 43273,
        "contract": "contracts/token/BABLToken.sol:BABLToken",
        "label": "timeLockRegistry",
        "offset": 0,
        "slot": "14",
        "type": "t_contract(TimeLockRegistry)43117"
      },
      {
        "astId": 43275,
        "contract": "contracts/token/BABLToken.sol:BABLToken",
        "label": "rewardsDistributor",
        "offset": 0,
        "slot": "15",
        "type": "t_contract(IRewardsDistributor)25686"
      },
      {
        "astId": 43277,
        "contract": "contracts/token/BABLToken.sol:BABLToken",
        "label": "tokenTransfersEnabled",
        "offset": 20,
        "slot": "15",
        "type": "t_bool"
      },
      {
        "astId": 43279,
        "contract": "contracts/token/BABLToken.sol:BABLToken",
        "label": "tokenTransfersWereDisabled",
        "offset": 21,
        "slot": "15",
        "type": "t_bool"
      },
      {
        "astId": 37716,
        "contract": "contracts/token/BABLToken.sol:BABLToken",
        "label": "maxSupplyAllowed",
        "offset": 0,
        "slot": "16",
        "type": "t_uint256"
      },
      {
        "astId": 37719,
        "contract": "contracts/token/BABLToken.sol:BABLToken",
        "label": "maxSupplyAllowedAfter",
        "offset": 0,
        "slot": "17",
        "type": "t_uint256"
      },
      {
        "astId": 37730,
        "contract": "contracts/token/BABLToken.sol:BABLToken",
        "label": "mintingAllowedAfter",
        "offset": 0,
        "slot": "18",
        "type": "t_uint256"
      },
      {
        "astId": 37733,
        "contract": "contracts/token/BABLToken.sol:BABLToken",
        "label": "BABLTokenDeploymentTimestamp",
        "offset": 0,
        "slot": "19",
        "type": "t_uint256"
      }
    ],
    "types": {
      "t_address": {
        "encoding": "inplace",
        "label": "address",
        "numberOfBytes": "20"
      },
      "t_bool": {
        "encoding": "inplace",
        "label": "bool",
        "numberOfBytes": "1"
      },
      "t_contract(IBabController)24674": {
        "encoding": "inplace",
        "label": "contract IBabController",
        "numberOfBytes": "20"
      },
      "t_contract(IRewardsDistributor)25686": {
        "encoding": "inplace",
        "label": "contract IRewardsDistributor",
        "numberOfBytes": "20"
      },
      "t_contract(TimeLockRegistry)43117": {
        "encoding": "inplace",
        "label": "contract TimeLockRegistry",
        "numberOfBytes": "20"
      },
      "t_mapping(t_address,t_address)": {
        "encoding": "mapping",
        "key": "t_address",
        "label": "mapping(address => address)",
        "numberOfBytes": "32",
        "value": "t_address"
      },
      "t_mapping(t_address,t_mapping(t_address,t_uint256))": {
        "encoding": "mapping",
        "key": "t_address",
        "label": "mapping(address => mapping(address => uint256))",
        "numberOfBytes": "32",
        "value": "t_mapping(t_address,t_uint256)"
      },
      "t_mapping(t_address,t_mapping(t_uint32,t_struct(Checkpoint)44344_storage))": {
        "encoding": "mapping",
        "key": "t_address",
        "label": "mapping(address => mapping(uint32 => struct VoteToken.Checkpoint))",
        "numberOfBytes": "32",
        "value": "t_mapping(t_uint32,t_struct(Checkpoint)44344_storage)"
      },
      "t_mapping(t_address,t_struct(VestedToken)43264_storage)": {
        "encoding": "mapping",
        "key": "t_address",
        "label": "mapping(address => struct TimeLockedToken.VestedToken)",
        "numberOfBytes": "32",
        "value": "t_struct(VestedToken)43264_storage"
      },
      "t_mapping(t_address,t_uint256)": {
        "encoding": "mapping",
        "key": "t_address",
        "label": "mapping(address => uint256)",
        "numberOfBytes": "32",
        "value": "t_uint256"
      },
      "t_mapping(t_address,t_uint32)": {
        "encoding": "mapping",
        "key": "t_address",
        "label": "mapping(address => uint32)",
        "numberOfBytes": "32",
        "value": "t_uint32"
      },
      "t_mapping(t_uint32,t_struct(Checkpoint)44344_storage)": {
        "encoding": "mapping",
        "key": "t_uint32",
        "label": "mapping(uint32 => struct VoteToken.Checkpoint)",
        "numberOfBytes": "32",
        "value": "t_struct(Checkpoint)44344_storage"
      },
      "t_string_storage": {
        "encoding": "bytes",
        "label": "string",
        "numberOfBytes": "32"
      },
      "t_struct(Checkpoint)44344_storage": {
        "encoding": "inplace",
        "label": "struct VoteToken.Checkpoint",
        "members": [
          {
            "astId": 44341,
            "contract": "contracts/token/BABLToken.sol:BABLToken",
            "label": "fromBlock",
            "offset": 0,
            "slot": "0",
            "type": "t_uint32"
          },
          {
            "astId": 44343,
            "contract": "contracts/token/BABLToken.sol:BABLToken",
            "label": "votes",
            "offset": 4,
            "slot": "0",
            "type": "t_uint96"
          }
        ],
        "numberOfBytes": "32"
      },
      "t_struct(VestedToken)43264_storage": {
        "encoding": "inplace",
        "label": "struct TimeLockedToken.VestedToken",
        "members": [
          {
            "astId": 43257,
            "contract": "contracts/token/BABLToken.sol:BABLToken",
            "label": "teamOrAdvisor",
            "offset": 0,
            "slot": "0",
            "type": "t_bool"
          },
          {
            "astId": 43259,
            "contract": "contracts/token/BABLToken.sol:BABLToken",
            "label": "vestingBegin",
            "offset": 0,
            "slot": "1",
            "type": "t_uint256"
          },
          {
            "astId": 43261,
            "contract": "contracts/token/BABLToken.sol:BABLToken",
            "label": "vestingEnd",
            "offset": 0,
            "slot": "2",
            "type": "t_uint256"
          },
          {
            "astId": 43263,
            "contract": "contracts/token/BABLToken.sol:BABLToken",
            "label": "lastClaim",
            "offset": 0,
            "slot": "3",
            "type": "t_uint256"
          }
        ],
        "numberOfBytes": "128"
      },
      "t_uint256": {
        "encoding": "inplace",
        "label": "uint256",
        "numberOfBytes": "32"
      },
      "t_uint32": {
        "encoding": "inplace",
        "label": "uint32",
        "numberOfBytes": "4"
      },
      "t_uint8": {
        "encoding": "inplace",
        "label": "uint8",
        "numberOfBytes": "1"
      },
      "t_uint96": {
        "encoding": "inplace",
        "label": "uint96",
        "numberOfBytes": "12"
      }
    }
  }
}