{
  "address": "0x927761829796FdE7fb3581Ee4FdDe35f371a1926",
  "abi": [
    {
      "inputs": [
        {
          "internalType": "contract TimeLockRegistry",
          "name": "newTimeLockRegistry",
          "type": "address"
        },
        {
          "internalType": "contract IBabController",
          "name": "newController",
          "type": "address"
        }
      ],
      "stateMutability": "nonpayable",
      "type": "constructor"
    },
    {
      "anonymous": false,
      "inputs": [
        {
          "indexed": true,
          "internalType": "address",
          "name": "owner",
          "type": "address"
        },
        {
          "indexed": true,
          "internalType": "address",
          "name": "spender",
          "type": "address"
        },
        {
          "indexed": false,
          "internalType": "uint256",
          "name": "value",
          "type": "uint256"
        }
      ],
      "name": "Approval",
      "type": "event"
    },
    {
      "anonymous": false,
      "inputs": [
        {
          "indexed": false,
          "internalType": "address",
          "name": "account",
          "type": "address"
        },
        {
          "indexed": false,
          "internalType": "uint256",
          "name": "amount",
          "type": "uint256"
        }
      ],
      "name": "Cancel",
      "type": "event"
    },
    {
      "anonymous": false,
      "inputs": [
        {
          "indexed": false,
          "internalType": "address",
          "name": "_receiver",
          "type": "address"
        },
        {
          "indexed": false,
          "internalType": "uint256",
          "name": "amount",
          "type": "uint256"
        }
      ],
      "name": "Claim",
      "type": "event"
    },
    {
      "anonymous": false,
      "inputs": [
        {
          "indexed": true,
          "internalType": "address",
          "name": "delegator",
          "type": "address"
        },
        {
          "indexed": true,
          "internalType": "address",
          "name": "fromDelegate",
          "type": "address"
        },
        {
          "indexed": true,
          "internalType": "address",
          "name": "toDelegate",
          "type": "address"
        }
      ],
      "name": "DelegateChanged",
      "type": "event"
    },
    {
      "anonymous": false,
      "inputs": [
        {
          "indexed": true,
          "internalType": "address",
          "name": "delegate",
          "type": "address"
        },
        {
          "indexed": false,
          "internalType": "uint256",
          "name": "previousBalance",
          "type": "uint256"
        },
        {
          "indexed": false,
          "internalType": "uint256",
          "name": "newBalance",
          "type": "uint256"
        }
      ],
      "name": "DelegateVotesChanged",
      "type": "event"
    },
    {
      "anonymous": false,
      "inputs": [
        {
          "indexed": false,
          "internalType": "address",
          "name": "_account",
          "type": "address"
        },
        {
          "indexed": false,
          "internalType": "uint256",
          "name": "amount",
          "type": "uint256"
        }
      ],
      "name": "LockedBalance",
      "type": "event"
    },
    {
      "anonymous": false,
      "inputs": [
        {
          "indexed": false,
          "internalType": "uint256",
          "name": "previousAllowedAfterValue",
          "type": "uint256"
        },
        {
          "indexed": false,
          "internalType": "uint256",
          "name": "newAllowedAfterValue",
          "type": "uint256"
        }
      ],
      "name": "MaxSupplyAllowedAfterChanged",
      "type": "event"
    },
    {
      "anonymous": false,
      "inputs": [
        {
          "indexed": false,
          "internalType": "uint256",
          "name": "previousMaxValue",
          "type": "uint256"
        },
        {
          "indexed": false,
          "internalType": "uint256",
          "name": "newMaxValue",
          "type": "uint256"
        }
      ],
      "name": "MaxSupplyChanged",
      "type": "event"
    },
    {
      "anonymous": false,
      "inputs": [
        {
          "indexed": false,
          "internalType": "address",
          "name": "account",
          "type": "address"
        },
        {
          "indexed": false,
          "internalType": "uint256",
          "name": "tokensminted",
          "type": "uint256"
        }
      ],
      "name": "MintedNewTokens",
      "type": "event"
    },
    {
      "anonymous": false,
      "inputs": [
        {
          "indexed": false,
          "internalType": "address",
          "name": "account",
          "type": "address"
        },
        {
          "indexed": false,
          "internalType": "uint256",
          "name": "tokenslocked",
          "type": "uint256"
        },
        {
          "indexed": false,
          "internalType": "bool",
          "name": "isTeamOrAdvisor",
          "type": "bool"
        },
        {
          "indexed": false,
          "internalType": "uint256",
          "name": "startingVesting",
          "type": "uint256"
        },
        {
          "indexed": false,
          "internalType": "uint256",
          "name": "endingVesting",
          "type": "uint256"
        }
      ],
      "name": "NewLockout",
      "type": "event"
    },
    {
      "anonymous": false,
      "inputs": [
        {
          "indexed": false,
          "internalType": "address",
          "name": "previousAddress",
          "type": "address"
        },
        {
          "indexed": false,
          "internalType": "address",
          "name": "newAddress",
          "type": "address"
        }
      ],
      "name": "NewRewardsDistributorRegistration",
      "type": "event"
    },
    {
      "anonymous": false,
      "inputs": [
        {
          "indexed": false,
          "internalType": "address",
          "name": "previousAddress",
          "type": "address"
        },
        {
          "indexed": false,
          "internalType": "address",
          "name": "newAddress",
          "type": "address"
        }
      ],
      "name": "NewTimeLockRegistration",
      "type": "event"
    },
    {
      "anonymous": false,
      "inputs": [
        {
          "indexed": true,
          "internalType": "address",
          "name": "previousOwner",
          "type": "address"
        },
        {
          "indexed": true,
          "internalType": "address",
          "name": "newOwner",
          "type": "address"
        }
      ],
      "name": "OwnershipTransferred",
      "type": "event"
    },
    {
      "anonymous": false,
      "inputs": [
        {
          "indexed": true,
          "internalType": "address",
          "name": "from",
          "type": "address"
        },
        {
          "indexed": true,
          "internalType": "address",
          "name": "to",
          "type": "address"
        },
        {
          "indexed": false,
          "internalType": "uint256",
          "name": "value",
          "type": "uint256"
        }
      ],
      "name": "Transfer",
      "type": "event"
    },
    {
      "inputs": [],
      "name": "BABLTokenDeploymentTimestamp",
      "outputs": [
        {
          "internalType": "uint256",
          "name": "",
          "type": "uint256"
        }
      ],
      "stateMutability": "view",
      "type": "function"
    },
    {
      "inputs": [],
      "name": "DELEGATION_TYPEHASH",
      "outputs": [
        {
          "internalType": "bytes32",
          "name": "",
          "type": "bytes32"
        }
      ],
      "stateMutability": "view",
      "type": "function"
    },
    {
      "inputs": [],
      "name": "DOMAIN_TYPEHASH",
      "outputs": [
        {
          "internalType": "bytes32",
          "name": "",
          "type": "bytes32"
        }
      ],
      "stateMutability": "view",
      "type": "function"
    },
    {
      "inputs": [],
      "name": "MAX_SUPPLY_CAP",
      "outputs": [
        {
          "internalType": "uint8",
          "name": "",
          "type": "uint8"
        }
      ],
      "stateMutability": "view",
      "type": "function"
    },
    {
      "inputs": [],
      "name": "MINT_CAP",
      "outputs": [
        {
          "internalType": "uint8",
          "name": "",
          "type": "uint8"
        }
      ],
      "stateMutability": "view",
      "type": "function"
    },
    {
      "inputs": [
        {
          "internalType": "address",
          "name": "owner",
          "type": "address"
        },
        {
          "internalType": "address",
          "name": "spender",
          "type": "address"
        }
      ],
      "name": "allowance",
      "outputs": [
        {
          "internalType": "uint256",
          "name": "",
          "type": "uint256"
        }
      ],
      "stateMutability": "view",
      "type": "function"
    },
    {
      "inputs": [
        {
          "internalType": "address",
          "name": "spender",
          "type": "address"
        },
        {
          "internalType": "uint256",
          "name": "rawAmount",
          "type": "uint256"
        }
      ],
      "name": "approve",
      "outputs": [
        {
          "internalType": "bool",
          "name": "",
          "type": "bool"
        }
      ],
      "stateMutability": "nonpayable",
      "type": "function"
    },
    {
      "inputs": [
        {
          "internalType": "address",
          "name": "account",
          "type": "address"
        }
      ],
      "name": "balanceOf",
      "outputs": [
        {
          "internalType": "uint256",
          "name": "",
          "type": "uint256"
        }
      ],
      "stateMutability": "view",
      "type": "function"
    },
    {
      "inputs": [
        {
          "internalType": "address",
          "name": "lockedAccount",
          "type": "address"
        }
      ],
      "name": "cancelVestedTokens",
      "outputs": [
        {
          "internalType": "uint256",
          "name": "",
          "type": "uint256"
        }
      ],
      "stateMutability": "nonpayable",
      "type": "function"
    },
    {
      "inputs": [
        {
          "internalType": "uint256",
          "name": "newMaxSupply",
          "type": "uint256"
        },
        {
          "internalType": "uint256",
          "name": "newMaxSupplyAllowedAfter",
          "type": "uint256"
        }
      ],
      "name": "changeMaxSupply",
      "outputs": [
        {
          "internalType": "bool",
          "name": "",
          "type": "bool"
        }
      ],
      "stateMutability": "nonpayable",
      "type": "function"
    },
    {
      "inputs": [
        {
          "internalType": "address",
          "name": "",
          "type": "address"
        },
        {
          "internalType": "uint32",
          "name": "",
          "type": "uint32"
        }
      ],
      "name": "checkpoints",
      "outputs": [
        {
          "internalType": "uint32",
          "name": "fromBlock",
          "type": "uint32"
        },
        {
          "internalType": "uint96",
          "name": "votes",
          "type": "uint96"
        }
      ],
      "stateMutability": "view",
      "type": "function"
    },
    {
      "inputs": [],
      "name": "claimMyTokens",
      "outputs": [],
      "stateMutability": "nonpayable",
      "type": "function"
    },
    {
      "inputs": [],
      "name": "controller",
      "outputs": [
        {
          "internalType": "contract IBabController",
          "name": "",
          "type": "address"
        }
      ],
      "stateMutability": "view",
      "type": "function"
    },
    {
      "inputs": [],
      "name": "decimals",
      "outputs": [
        {
          "internalType": "uint8",
          "name": "",
          "type": "uint8"
        }
      ],
      "stateMutability": "view",
      "type": "function"
    },
    {
      "inputs": [
        {
          "internalType": "address",
          "name": "spender",
          "type": "address"
        },
        {
          "internalType": "uint256",
          "name": "subtractedValue",
          "type": "uint256"
        }
      ],
      "name": "decreaseAllowance",
      "outputs": [
        {
          "internalType": "bool",
          "name": "",
          "type": "bool"
        }
      ],
      "stateMutability": "nonpayable",
      "type": "function"
    },
    {
      "inputs": [
        {
          "internalType": "address",
          "name": "delegatee",
          "type": "address"
        }
      ],
      "name": "delegate",
      "outputs": [],
      "stateMutability": "nonpayable",
      "type": "function"
    },
    {
      "inputs": [
        {
          "internalType": "address",
          "name": "delegatee",
          "type": "address"
        },
        {
          "internalType": "uint256",
          "name": "nonce",
          "type": "uint256"
        },
        {
          "internalType": "uint256",
          "name": "expiry",
          "type": "uint256"
        },
        {
          "internalType": "uint8",
          "name": "v",
          "type": "uint8"
        },
        {
          "internalType": "bytes32",
          "name": "r",
          "type": "bytes32"
        },
        {
          "internalType": "bytes32",
          "name": "s",
          "type": "bytes32"
        }
      ],
      "name": "delegateBySig",
      "outputs": [],
      "stateMutability": "nonpayable",
      "type": "function"
    },
    {
      "inputs": [
        {
          "internalType": "address",
          "name": "",
          "type": "address"
        }
      ],
      "name": "delegates",
      "outputs": [
        {
          "internalType": "address",
          "name": "",
          "type": "address"
        }
      ],
      "stateMutability": "view",
      "type": "function"
    },
    {
      "inputs": [],
      "name": "disableTokensTransfers",
      "outputs": [],
      "stateMutability": "nonpayable",
      "type": "function"
    },
    {
      "inputs": [],
      "name": "enableTokensTransfers",
      "outputs": [],
      "stateMutability": "nonpayable",
      "type": "function"
    },
    {
      "inputs": [
        {
          "internalType": "address",
          "name": "account",
          "type": "address"
        },
        {
          "internalType": "uint32",
          "name": "id",
          "type": "uint32"
        }
      ],
      "name": "getCheckpoints",
      "outputs": [
        {
          "internalType": "uint32",
          "name": "fromBlock",
          "type": "uint32"
        },
        {
          "internalType": "uint96",
          "name": "votes",
          "type": "uint96"
        }
      ],
      "stateMutability": "view",
      "type": "function"
    },
    {
      "inputs": [
        {
          "internalType": "address",
          "name": "account",
          "type": "address"
        }
      ],
      "name": "getCurrentVotes",
      "outputs": [
        {
          "internalType": "uint96",
          "name": "",
          "type": "uint96"
        }
      ],
      "stateMutability": "view",
      "type": "function"
    },
    {
      "inputs": [
        {
          "internalType": "address",
          "name": "account",
          "type": "address"
        }
      ],
      "name": "getDelegatee",
      "outputs": [
        {
          "internalType": "address",
          "name": "",
          "type": "address"
        }
      ],
      "stateMutability": "view",
      "type": "function"
    },
    {
      "inputs": [],
      "name": "getMyDelegatee",
      "outputs": [
        {
          "internalType": "address",
          "name": "",
          "type": "address"
        }
      ],
      "stateMutability": "view",
      "type": "function"
    },
    {
      "inputs": [
        {
          "internalType": "address",
          "name": "account",
          "type": "address"
        }
      ],
      "name": "getNumberOfCheckpoints",
      "outputs": [
        {
          "internalType": "uint32",
          "name": "",
          "type": "uint32"
        }
      ],
      "stateMutability": "view",
      "type": "function"
    },
    {
      "inputs": [
        {
          "internalType": "address",
          "name": "account",
          "type": "address"
        },
        {
          "internalType": "uint256",
          "name": "blockNumber",
          "type": "uint256"
        }
      ],
      "name": "getPriorVotes",
      "outputs": [
        {
          "internalType": "uint96",
          "name": "",
          "type": "uint96"
        }
      ],
      "stateMutability": "view",
      "type": "function"
    },
    {
      "inputs": [],
      "name": "getTimeLockRegistry",
      "outputs": [
        {
          "internalType": "address",
          "name": "",
          "type": "address"
        }
      ],
      "stateMutability": "view",
      "type": "function"
    },
    {
      "inputs": [
        {
          "internalType": "address",
          "name": "spender",
          "type": "address"
        },
        {
          "internalType": "uint256",
          "name": "addedValue",
          "type": "uint256"
        }
      ],
      "name": "increaseAllowance",
      "outputs": [
        {
          "internalType": "bool",
          "name": "",
          "type": "bool"
        }
      ],
      "stateMutability": "nonpayable",
      "type": "function"
    },
    {
      "inputs": [
        {
          "internalType": "address",
          "name": "account",
          "type": "address"
        }
      ],
      "name": "lockedBalance",
      "outputs": [
        {
          "internalType": "uint256",
          "name": "",
          "type": "uint256"
        }
      ],
      "stateMutability": "nonpayable",
      "type": "function"
    },
    {
      "inputs": [],
      "name": "maxSupply",
      "outputs": [
        {
          "internalType": "uint96",
          "name": "",
          "type": "uint96"
        },
        {
          "internalType": "uint256",
          "name": "",
          "type": "uint256"
        }
      ],
      "stateMutability": "view",
      "type": "function"
    },
    {
      "inputs": [],
      "name": "maxSupplyAllowed",
      "outputs": [
        {
          "internalType": "uint256",
          "name": "",
          "type": "uint256"
        }
      ],
      "stateMutability": "view",
      "type": "function"
    },
    {
      "inputs": [],
      "name": "maxSupplyAllowedAfter",
      "outputs": [
        {
          "internalType": "uint256",
          "name": "",
          "type": "uint256"
        }
      ],
      "stateMutability": "view",
      "type": "function"
    },
    {
      "inputs": [
        {
          "internalType": "address",
          "name": "_to",
          "type": "address"
        },
        {
          "internalType": "uint256",
          "name": "_amount",
          "type": "uint256"
        }
      ],
      "name": "mint",
      "outputs": [
        {
          "internalType": "bool",
          "name": "",
          "type": "bool"
        }
      ],
      "stateMutability": "nonpayable",
      "type": "function"
    },
    {
      "inputs": [],
      "name": "mintingAllowedAfter",
      "outputs": [
        {
          "internalType": "uint256",
          "name": "",
          "type": "uint256"
        }
      ],
      "stateMutability": "view",
      "type": "function"
    },
    {
      "inputs": [],
      "name": "name",
      "outputs": [
        {
          "internalType": "string",
          "name": "",
          "type": "string"
        }
      ],
      "stateMutability": "view",
      "type": "function"
    },
    {
      "inputs": [
        {
          "internalType": "address",
          "name": "",
          "type": "address"
        }
      ],
      "name": "nonces",
      "outputs": [
        {
          "internalType": "uint256",
          "name": "",
          "type": "uint256"
        }
      ],
      "stateMutability": "view",
      "type": "function"
    },
    {
      "inputs": [
        {
          "internalType": "address",
          "name": "",
          "type": "address"
        }
      ],
      "name": "numCheckpoints",
      "outputs": [
        {
          "internalType": "uint32",
          "name": "",
          "type": "uint32"
        }
      ],
      "stateMutability": "view",
      "type": "function"
    },
    {
      "inputs": [],
      "name": "owner",
      "outputs": [
        {
          "internalType": "address",
          "name": "",
          "type": "address"
        }
      ],
      "stateMutability": "view",
      "type": "function"
    },
    {
      "inputs": [
        {
          "internalType": "address",
          "name": "_receiver",
          "type": "address"
        },
        {
          "internalType": "uint256",
          "name": "_amount",
          "type": "uint256"
        },
        {
          "internalType": "bool",
          "name": "_profile",
          "type": "bool"
        },
        {
          "internalType": "uint256",
          "name": "_vestingBegin",
          "type": "uint256"
        },
        {
          "internalType": "uint256",
          "name": "_vestingEnd",
          "type": "uint256"
        },
        {
          "internalType": "uint256",
          "name": "_lastClaim",
          "type": "uint256"
        }
      ],
      "name": "registerLockup",
      "outputs": [
        {
          "internalType": "bool",
          "name": "",
          "type": "bool"
        }
      ],
      "stateMutability": "nonpayable",
      "type": "function"
    },
    {
      "inputs": [],
      "name": "renounceOwnership",
      "outputs": [],
      "stateMutability": "nonpayable",
      "type": "function"
    },
    {
      "inputs": [],
      "name": "rewardsDistributor",
      "outputs": [
        {
          "internalType": "contract RewardsDistributor",
          "name": "",
          "type": "address"
        }
      ],
      "stateMutability": "view",
      "type": "function"
    },
    {
      "inputs": [
        {
          "internalType": "contract RewardsDistributor",
          "name": "newRewardsDistributor",
          "type": "address"
        }
      ],
      "name": "setRewardsDistributor",
      "outputs": [
        {
          "internalType": "bool",
          "name": "",
          "type": "bool"
        }
      ],
      "stateMutability": "nonpayable",
      "type": "function"
    },
    {
      "inputs": [
        {
          "internalType": "contract TimeLockRegistry",
          "name": "newTimeLockRegistry",
          "type": "address"
        }
      ],
      "name": "setTimeLockRegistry",
      "outputs": [
        {
          "internalType": "bool",
          "name": "",
          "type": "bool"
        }
      ],
      "stateMutability": "nonpayable",
      "type": "function"
    },
    {
      "inputs": [],
      "name": "symbol",
      "outputs": [
        {
          "internalType": "string",
          "name": "",
          "type": "string"
        }
      ],
      "stateMutability": "view",
      "type": "function"
    },
    {
      "inputs": [],
      "name": "timeLockRegistry",
      "outputs": [
        {
          "internalType": "contract TimeLockRegistry",
          "name": "",
          "type": "address"
        }
      ],
      "stateMutability": "view",
      "type": "function"
    },
    {
      "inputs": [],
      "name": "totalSupply",
      "outputs": [
        {
          "internalType": "uint256",
          "name": "",
          "type": "uint256"
        }
      ],
      "stateMutability": "view",
      "type": "function"
    },
    {
      "inputs": [
        {
          "internalType": "address",
          "name": "recipient",
          "type": "address"
        },
        {
          "internalType": "uint256",
          "name": "amount",
          "type": "uint256"
        }
      ],
      "name": "transfer",
      "outputs": [
        {
          "internalType": "bool",
          "name": "",
          "type": "bool"
        }
      ],
      "stateMutability": "nonpayable",
      "type": "function"
    },
    {
      "inputs": [
        {
          "internalType": "address",
          "name": "sender",
          "type": "address"
        },
        {
          "internalType": "address",
          "name": "recipient",
          "type": "address"
        },
        {
          "internalType": "uint256",
          "name": "amount",
          "type": "uint256"
        }
      ],
      "name": "transferFrom",
      "outputs": [
        {
          "internalType": "bool",
          "name": "",
          "type": "bool"
        }
      ],
      "stateMutability": "nonpayable",
      "type": "function"
    },
    {
      "inputs": [
        {
          "internalType": "address",
          "name": "newOwner",
          "type": "address"
        }
      ],
      "name": "transferOwnership",
      "outputs": [],
      "stateMutability": "nonpayable",
      "type": "function"
    },
    {
      "inputs": [
        {
          "internalType": "address",
          "name": "account",
          "type": "address"
        }
      ],
      "name": "unlockedBalance",
      "outputs": [
        {
          "internalType": "uint256",
          "name": "",
          "type": "uint256"
        }
      ],
      "stateMutability": "nonpayable",
      "type": "function"
    },
    {
      "inputs": [
        {
          "internalType": "address",
          "name": "",
          "type": "address"
        }
      ],
      "name": "vestedToken",
      "outputs": [
        {
          "internalType": "bool",
          "name": "teamOrAdvisor",
          "type": "bool"
        },
        {
          "internalType": "uint256",
          "name": "vestingBegin",
          "type": "uint256"
        },
        {
          "internalType": "uint256",
          "name": "vestingEnd",
          "type": "uint256"
        },
        {
          "internalType": "uint256",
          "name": "lastClaim",
          "type": "uint256"
        }
      ],
      "stateMutability": "view",
      "type": "function"
    },
    {
      "inputs": [
        {
          "internalType": "address",
          "name": "account",
          "type": "address"
        }
      ],
      "name": "viewLockedBalance",
      "outputs": [
        {
          "internalType": "uint256",
          "name": "",
          "type": "uint256"
        }
      ],
      "stateMutability": "view",
      "type": "function"
    }
  ],
  "transactionHash": "0x5312eb38223a49b64c3b0978bd5e79be325d74dcd9517234d8148e27d7d23ad2",
  "args": [
    "0x0000000000000000000000000000000000000000",
    "0xD4a5b5fcB561dAF3aDF86F8477555B92FBa43b5F"
  ],
  "solcInputHash": "bd873b418320faeabd457a4fe7c7c19d",
  "bytecode": "0x6080604052630784ce00600d556305a39a80600e5569d3c21bcecceda10000006012553480156200002f57600080fd5b5060405162004f5338038062004f53833981810160405260408110156200005557600080fd5b508051602091820151604080518082018252600f81526e426162796c6f6e2e46696e616e636560881b818601908152825180840190935260048352631090509360e21b9583019590955280519394929390928391839183918391620000be916003919062000469565b508051620000d490600490602084019062000469565b50506005805460ff19166012179055506000620000f0620001f8565b60058054610100600160a81b0319166101006001600160a01b03841690810291909117909155604051919250906000907f8be0079c531659141344cd1fd0a4f28419497f9722a3daafe3b4186f6b6457e0908290a350506001600655505060118054600160a01b60ff60a01b19909116179055504260158190556200018690630f099c00620001fc602090811b62002d9b17901c565b6013556200019f3369d3c21bcecceda10000006200025e565b620001c3630f099c0063ffffffff1642620001fc60201b62002d9b1790919060201c565b601455601080546001600160a01b039384166001600160a01b031991821617909155600f805492909316911617905562000515565b3390565b60008282018381101562000257576040805162461bcd60e51b815260206004820152601b60248201527f536166654d6174683a206164646974696f6e206f766572666c6f770000000000604482015290519081900360640190fd5b9392505050565b6001600160a01b038216620002ba576040805162461bcd60e51b815260206004820152601f60248201527f45524332303a206d696e7420746f20746865207a65726f206164647265737300604482015290519081900360640190fd5b620002c8600083836200036d565b620002e481600254620001fc60201b62002d9b1790919060201c565b6002556001600160a01b038216600090815260208181526040909120546200031791839062002d9b620001fc821b17901c565b6001600160a01b0383166000818152602081815260408083209490945583518581529351929391927fddf252ad1be2c89b69c2b068fc378daa952ba7f163c4a11628f55a4df523b3ef9281900390910190a35050565b62000385838383620003fc60201b62002df51760201c565b620003fc6001600160a01b0384161580620003ad57506010546001600160a01b038581169116145b80620003c657506011546001600160a01b038581169116145b80620003df57506010546001600160a01b038481169116145b80620003f45750601154600160a01b900460ff165b603e62000401565b505050565b816200041257620004128162000416565b5050565b62461bcd60e51b6000908152602060045260076024526642414223000030600a808404818106603090810160081b95839006959095019082900491820690940160101b939093010160c81b604452606490fd5b828054600181600116156101000203166002900490600052602060002090601f016020900481019282620004a15760008555620004ec565b82601f10620004bc57805160ff1916838001178555620004ec565b82800160010185558215620004ec579182015b82811115620004ec578251825591602001919060010190620004cf565b50620004fa929150620004fe565b5090565b5b80821115620004fa5760008155600101620004ff565b614a2e80620005256000396000f3fe608060405234801561001057600080fd5b506004361061034c5760003560e01c806382e012b1116101bd578063b23ddce7116100f9578063d5e62855116100a2578063e7a324dc1161007c578063e7a324dc146109f8578063f1127ed814610a00578063f2fde38b14610a32578063f77c479114610a585761034c565b8063d5e62855146109ba578063d6a73a54146109c2578063dd62ed3e146109ca5761034c565b8063c7de902d116100d3578063c7de902d14610943578063d1f5c33b14610969578063d5abeb011461098f5761034c565b8063b23ddce71461087c578063b4b5ea57146108d6578063c3cda520146108fc5761034c565b8063962399e2116101665780639b4e735f116101405780639b4e735f146107f6578063a15d39d41461081c578063a457c2d714610824578063a9059cbb146108505761034c565b8063962399e2146107a257806398f1312e146107c85780639ae697bf146107d05761034c565b80638da5cb5b116101975780638da5cb5b1461078a578063937f2e331461079257806395d89b411461079a5761034c565b806382e012b1146106ee57806386cb9498146106f65780638cec2923146107445761034c565b806340c10f191161028c57806360caae5811610235578063715018a61161020f578063715018a61461067057806376ee403814610678578063782d6fe1146106805780637ecebe00146106c85761034c565b806360caae581461061c5780636fcfff451461062457806370a082311461064a5761034c565b8063587cde1e11610266578063587cde1e146105a85780635c19a95c146105ce5780635e0fac2e146105f65761034c565b806340c10f191461051757806342061268146105435780634f205087146105825761034c565b806323b872dd116102f9578063313ce567116102d3578063313ce567146104bd57806339509351146104db5780633dd5a83e146105075780633f2a55401461050f5761034c565b806323b872dd1461045c578063265e7bde1461049257806330b36cef146104b55761034c565b806318160ddd1161032a57806318160ddd1461042857806320606b7014610430578063238189a8146104385761034c565b806306fdde0314610351578063095ea7b3146103ce5780631523a3711461040e575b600080fd5b610359610a60565b6040805160208082528351818301528351919283929083019185019080838360005b8381101561039357818101518382015260200161037b565b50505050905090810190601f1680156103c05780820380516001836020036101000a031916815260200191505b509250505060405180910390f35b6103fa600480360360408110156103e457600080fd5b506001600160a01b038135169060200135610af6565b604080519115158252519081900360200190f35b610416610d05565b60408051918252519081900360200190f35b610416610d0b565b610416610d11565b610440610d35565b604080516001600160a01b039092168252519081900360200190f35b6103fa6004803603606081101561047257600080fd5b506001600160a01b03813581169160208101359091169060400135610d44565b6103fa600480360360408110156104a857600080fd5b5080359060200135610dcb565b6104166110b8565b6104c56110be565b6040805160ff9092168252519081900360200190f35b6103fa600480360360408110156104f157600080fd5b506001600160a01b0381351690602001356110c7565b610440611245565b610440611254565b6103fa6004803603604081101561052d57600080fd5b506001600160a01b038135169060200135611263565b6105696004803603602081101561055957600080fd5b50356001600160a01b031661159e565b6040805163ffffffff9092168252519081900360200190f35b6104166004803603602081101561059857600080fd5b50356001600160a01b03166115c3565b610440600480360360208110156105be57600080fd5b50356001600160a01b0316611618565b6105f4600480360360208110156105e457600080fd5b50356001600160a01b0316611633565b005b6104166004803603602081101561060c57600080fd5b50356001600160a01b0316611640565b6104c561165d565b6105696004803603602081101561063a57600080fd5b50356001600160a01b0316611662565b6104166004803603602081101561066057600080fd5b50356001600160a01b031661167a565b6105f4611695565b610440611766565b6106ac6004803603604081101561069657600080fd5b506001600160a01b038135169060200135611782565b604080516001600160601b039092168252519081900360200190f35b610416600480360360208110156106de57600080fd5b50356001600160a01b03166119ad565b6105f46119bf565b61071c6004803603602081101561070c57600080fd5b50356001600160a01b0316611a63565b6040805194151585526020850193909352838301919091526060830152519081900360800190f35b6103fa600480360360c081101561075a57600080fd5b506001600160a01b0381351690602081013590604081013515159060608101359060808101359060a00135611a8e565b610440611d74565b6105f4611d88565b610359611e8f565b6103fa600480360360208110156107b857600080fd5b50356001600160a01b0316611ef0565b6104c561215a565b610416600480360360208110156107e657600080fd5b50356001600160a01b031661215f565b6104406004803603602081101561080c57600080fd5b50356001600160a01b031661223a565b610416612258565b6103fa6004803603604081101561083a57600080fd5b506001600160a01b03813516906020013561225e565b6103fa6004803603604081101561086657600080fd5b506001600160a01b038135169060200135612412565b6108ae6004803603604081101561089257600080fd5b5080356001600160a01b0316906020013563ffffffff1661242f565b6040805163ffffffff90931683526001600160601b0390911660208301528051918290030190f35b6106ac600480360360208110156108ec57600080fd5b50356001600160a01b0316612475565b6105f4600480360360c081101561091257600080fd5b506001600160a01b038135169060208101359060408101359060ff6060820135169060808101359060a001356124e7565b6104166004803603602081101561095957600080fd5b50356001600160a01b0316612797565b6103fa6004803603602081101561097f57600080fd5b50356001600160a01b031661288f565b610997612a9b565b604080516001600160601b03909316835260208301919091528051918290030190f35b6105f4612ad1565b610416612bd4565b610416600480360360408110156109e057600080fd5b506001600160a01b0381358116916020013516612bda565b610416612c05565b6108ae60048036036040811015610a1657600080fd5b5080356001600160a01b0316906020013563ffffffff16612c29565b6105f460048036036020811015610a4857600080fd5b50356001600160a01b0316612c5f565b610440612d8c565b60038054604080516020601f6002600019610100600188161502019095169490940493840181900481028201810190925282815260609390929091830182828015610aec5780601f10610ac157610100808354040283529160200191610aec565b820191906000526020600020905b815481529060010190602001808311610acf57829003601f168201915b5050505050905090565b600060026006541415610b50576040805162461bcd60e51b815260206004820152601f60248201527f5265656e7472616e637947756172643a207265656e7472616e742063616c6c00604482015290519081900360640190fd5b60026006556001600160a01b038316610b9a5760405162461bcd60e51b81526004018080602001828103825260388152602001806141236038913960400191505060405180910390fd5b6001600160a01b038316331415610be25760405162461bcd60e51b815260040180806020018281038252603a815260200180614773603a913960400191505060405180910390fd5b6000600019831415610bf75750600019610c1c565b610c198360405180606001604052806030815260200161401e60309139612dfa565b90505b6010546001600160a01b038581169116148015610c575750601054610c4b9033906001600160a01b0316612bda565b816001600160601b0316105b15610c9857601054610c9590610c779033906001600160a01b0316612bda565b60405180608001604052806047815260200161481860479139612dfa565b90505b610cac3385836001600160601b0316612e9d565b604080516001600160601b038316815290516001600160a01b0386169133917f8c5be1e5ebec7d5bd14f71427d1e84f3dd0314c0f7b2291e5b200ac8c7c3b9259181900360200190a36001915050600160065592915050565b60155481565b60025490565b7f8cad95687ba82c2ce50e74f7b754645e5117c3a5bec8151c0726d5857980a86681565b6010546001600160a01b031681565b6000610d51848484612f89565b610dc184610d5d61314f565b610dbc85604051806060016040528060288152602001614306602891396001600160a01b038a16600090815260016020526040812090610d9b61314f565b6001600160a01b031681526020810191909152604001600020549190613153565b612e9d565b5060019392505050565b6000610dd561314f565b6001600160a01b0316610de6611d74565b6001600160a01b031614610e41576040805162461bcd60e51b815260206004820181905260248201527f4f776e61626c653a2063616c6c6572206973206e6f7420746865206f776e6572604482015290519081900360640190fd5b601554610e5290630f099c00612d9b565b421015610e905760405162461bcd60e51b815260040180806020018281038252606381526020018061438e6063913960800191505060405180910390fd5b601354421015610ed15760405162461bcd60e51b81526004018080602001828103825260488152602001806145226048913960600191505060405180910390fd5b6012548311610f115760405162461bcd60e51b81526004018080602001828103825260508152602001806140d36050913960600191505060405180910390fd5b6000610f43610f3a6064610f34600560ff166012546131ad90919063ffffffff16565b90613206565b60125490612d9b565b905080841115610f845760405162461bcd60e51b81526004018080602001828103825260368152602001806142106036913960400191505060405180910390fd5b601254604080519182526020820186905280517fa626f93317e2474b716846a09cf0e28aacb96052643b252fe97704208fecf9b59281900390910190a1610fe3846040518060600160405280604081526020016147ad60409139612dfa565b6001600160601b03166012556000610fff426301e13380612d9b565b9050808410156110405760405162461bcd60e51b815260040180806020018281038252606081526020018061432e6060913960600191505060405180910390fd5b601354604080519182526020820186905280517f63abb52e09389994840613a4780aa50f65baa62888e3cdcfcb088ac2de0b7db59281900390910190a161109f8460405180608001604052806048815260200161408b60489139612dfa565b6001600160601b03166013555060019150505b92915050565b60145481565b60055460ff1690565b600060026006541415611121576040805162461bcd60e51b815260206004820152601f60248201527f5265656e7472616e637947756172643a207265656e7472616e742063616c6c00604482015290519081900360640190fd5b600260065561113a826111343386612bda565b90612d9b565b61114333611640565b10158061115d57506010546001600160a01b038481169116145b6111985760405162461bcd60e51b815260040180806020018281038252603d8152602001806148af603d913960400191505060405180910390fd5b6001600160a01b0383166111dd5760405162461bcd60e51b81526004018080602001828103825260418152602001806142746041913960600191505060405180910390fd5b6001600160a01b0383163314156112255760405162461bcd60e51b81526004018080602001828103825260438152602001806149b66043913960600191505060405180910390fd5b6112383384610dbc856111343389612bda565b5060018060065592915050565b6010546001600160a01b031690565b6011546001600160a01b031681565b600061126d61314f565b6001600160a01b031661127e611d74565b6001600160a01b0316146112d9576040805162461bcd60e51b815260206004820181905260248201527f4f776e61626c653a2063616c6c6572206973206e6f7420746865206f776e6572604482015290519081900360640190fd5b6012546112e883611134610d0b565b11156113255760405162461bcd60e51b815260040180806020018281038252602481526020018061447d6024913960400191505060405180910390fd5b60155461133690630f099c00612d9b565b4210156113745760405162461bcd60e51b81526004018080602001828103825260558152602001806148ec6055913960600191505060405180910390fd5b600082116113b35760405162461bcd60e51b81526004018080602001828103825260308152602001806142d66030913960400191505060405180910390fd5b6014544210156113f45760405162461bcd60e51b815260040180806020018281038252604481526020018061418c6044913960600191505060405180910390fd5b6001600160a01b0383166114395760405162461bcd60e51b81526004018080602001828103825260348152602001806144496034913960400191505060405180910390fd5b6001600160a01b0383163014156114815760405162461bcd60e51b815260040180806020018281038252603c815260200180613f6c603c913960400191505060405180910390fd5b61148f426301e13380612d9b565b60148190555060006114b98360405180606001604052806027815260200161469b60279139612dfa565b90506114d36064610f3460026114cd610d0b565b906131ad565b816001600160601b0316111561151a5760405162461bcd60e51b81526004018080602001828103825260388152602001806145e96038913960400191505060405180910390fd5b61152d84826001600160601b031661326d565b604080516001600160a01b03861681526001600160601b038316602082015281517f51c018f451551bf4e92356d59bc5f1fcd317ef0f884d97807cae6dd395da7fe0929181900390910190a16001600160a01b03808516600090815260076020526040812054610dc192168361335d565b6001600160a01b03811660009081526009602052604090205463ffffffff165b919050565b6010546000906001600160a01b0316331461160f5760405162461bcd60e51b8152600401808060200182810382526050815260200180613e9e6050913960600191505060405180910390fd5b6110b2826134f1565b6007602052600090815260409020546001600160a01b031681565b61163d338261370e565b50565b60006110b261164e8361215f565b6116578461167a565b906137d1565b600581565b60096020526000908152604090205463ffffffff1681565b6001600160a01b031660009081526020819052604090205490565b61169d61314f565b6001600160a01b03166116ae611d74565b6001600160a01b031614611709576040805162461bcd60e51b815260206004820181905260248201527f4f776e61626c653a2063616c6c6572206973206e6f7420746865206f776e6572604482015290519081900360640190fd5b60055460405160009161010090046001600160a01b0316907f8be0079c531659141344cd1fd0a4f28419497f9722a3daafe3b4186f6b6457e0908390a36005805474ffffffffffffffffffffffffffffffffffffffff0019169055565b336000908152600760205260409020546001600160a01b031690565b60004382106117c25760405162461bcd60e51b815260040180806020018281038252602c8152602001806146c2602c913960400191505060405180910390fd5b6001600160a01b03831660009081526009602052604090205463ffffffff16806117f05760009150506110b2565b6001600160a01b038416600090815260086020908152604080832063ffffffff60001986018116855292529091205416831061186d576001600160a01b03841660009081526008602090815260408083206000199490940163ffffffff168352929052205464010000000090046001600160601b031690506110b2565b6001600160a01b038416600090815260086020908152604080832083805290915290205463ffffffff168310156118a85760009150506110b2565b600060001982015b8163ffffffff168163ffffffff161115611967576000600263ffffffff848403166001600160a01b038916600090815260086020908152604080832094909304860363ffffffff8181168452948252918390208351808501909452549384168084526401000000009094046001600160601b031690830152925090871415611942576020015194506110b29350505050565b805163ffffffff1687111561195957819350611960565b6001820392505b50506118b0565b506001600160a01b038516600090815260086020908152604080832063ffffffff909416835292905220546001600160601b036401000000009091041691505092915050565b600a6020526000908152604090205481565b6119c761314f565b6001600160a01b03166119d8611d74565b6001600160a01b031614611a33576040805162461bcd60e51b815260206004820181905260248201527f4f776e61626c653a2063616c6c6572206973206e6f7420746865206f776e6572604482015290519081900360640190fd5b601180547fffffffffffffffffffffff00ffffffffffffffffffffffffffffffffffffffff16600160a01b179055565b600c60205260009081526040902080546001820154600283015460039093015460ff90921692909184565b6010546000906001600160a01b03163314611ada5760405162461bcd60e51b8152600401808060200182810382526050815260200180613e9e6050913960600191505060405180910390fd5b85611ae43361167a565b1015611b37576040805162461bcd60e51b815260206004820152601460248201527f696e73756666696369656e742062616c616e6365000000000000000000000000604482015290519081900360640190fd5b6001600160a01b038716611b92576040805162461bcd60e51b815260206004820152601660248201527f63616e6e6f74206265207a65726f206164647265737300000000000000000000604482015290519081900360640190fd5b6001600160a01b038716301415611bf0576040805162461bcd60e51b815260206004820152601760248201527f63616e6e6f74206265207468697320636f6e7472616374000000000000000000604482015290519081900360640190fd5b6010546001600160a01b0388811691161415611c3d5760405162461bcd60e51b815260040180806020018281038252602e815260200180614246602e913960400191505060405180910390fd5b6001600160a01b038716331415611c9b576040805162461bcd60e51b815260206004820152601e60248201527f746865206f776e65722063616e6e6f74206c6f636b757020697473656c660000604482015290519081900360640190fd5b6001600160a01b0387166000908152600b6020526040902054611cbe9087612d9b565b6001600160a01b0388166000908152600b6020908152604080832093909355600c905220805460ff1916861515178155600181018590556002810184905560038101839055611d0e338989612f89565b604080516001600160a01b038a1681526020810189905287151581830152606081018790526080810186905290517f7ec8d498ce0e4d11d52cf0588976b9a8b30679d7135f9e82de77e2e318a1ea409181900360a00190a1506001979650505050505050565b60055461010090046001600160a01b031690565b601054604080517f1e83409a00000000000000000000000000000000000000000000000000000000815233600482015290516000926001600160a01b031691631e83409a91602480830192602092919082900301818787803b158015611ded57600080fd5b505af1158015611e01573d6000803e3d6000fd5b505050506040513d6020811015611e1757600080fd5b5051336000908152600c602052604090205490915060ff16151560011415611e5157601054611e4f906001600160a01b031682610af6565b505b604080513381526020810183905281517f47cee97cb7acd717b3c0aa1435d004cd5b3c8c57d70dbceb4e4458bbd60e39d4929181900390910190a150565b60048054604080516020601f6002600019610100600188161502019095169490940493840181900481028201810190925282815260609390929091830182828015610aec5780601f10610ac157610100808354040283529160200191610aec565b6010546000906001600160a01b031615611fc457601060009054906101000a90046001600160a01b03166001600160a01b0316638da5cb5b6040518163ffffffff1660e01b815260040160206040518083038186803b158015611f5257600080fd5b505afa158015611f66573d6000803e3d6000fd5b505050506040513d6020811015611f7c57600080fd5b50516001600160a01b03163314611fc45760405162461bcd60e51b815260040180806020018281038252605a815260200180613e17605a913960600191505060405180910390fd5b6001600160a01b03821661201f576040805162461bcd60e51b815260206004820152601660248201527f63616e6e6f74206265207a65726f206164647265737300000000000000000000604482015290519081900360640190fd5b6001600160a01b03821630141561207d576040805162461bcd60e51b815260206004820152601760248201527f63616e6e6f74206265207468697320636f6e7472616374000000000000000000604482015290519081900360640190fd5b6010546001600160a01b03838116911614156120e0576040805162461bcd60e51b815260206004820152601c60248201527f6d757374206265206e65772054696d654c6f636b526567697374727900000000604482015290519081900360640190fd5b601054604080516001600160a01b039283168152918416602083015280517f1b4fa7e35ece4dcbbb914f91d8c3539c828d43c0b8a700237373966a27a9693a9281900390910190a150601080546001600160a01b03831673ffffffffffffffffffffffffffffffffffffffff199091161790556001919050565b600281565b60008061216b83612797565b6001600160a01b0384166000908152600c602052604090206002015490915042108015906121a15750336001600160a01b038416145b80156121ab575080155b80156121d157506001600160a01b0383166000908152600c602052604090206002015415155b156121f0576001600160a01b0383166000908152600b60205260408120555b604080516001600160a01b03851681526020810183905281517febfb816221eaf798e256b970818c54755242a19e3e1a2b5b2060f9d22ecbf46d929181900390910190a192915050565b6001600160a01b039081166000908152600760205260409020541690565b60125481565b6000600260065414156122b8576040805162461bcd60e51b815260206004820152601f60248201527f5265656e7472616e637947756172643a207265656e7472616e742063616c6c00604482015290519081900360640190fd5b60026006556001600160a01b0383166123025760405162461bcd60e51b81526004018080602001828103825260418152602001806144a16041913960600191505060405180910390fd5b6001600160a01b03831633141561234a5760405162461bcd60e51b81526004018080602001828103825260438152602001806147306043913960600191505060405180910390fd5b816123553385612bda565b10156123925760405162461bcd60e51b8152600401808060200182810382526036815260200180613f366036913960400191505060405180910390fd5b6010546001600160a01b03848116911614156123df5760405162461bcd60e51b8152600401808060200182810382526050815260200180613fce6050913960600191505060405180910390fd5b6112383384610dbc856040518060600160405280602581526020016149666025913961240b338a612bda565b9190613153565b600061242661241f61314f565b8484612f89565b50600192915050565b6001600160a01b0391909116600090815260086020908152604080832063ffffffff9485168452909152902054908116916401000000009091046001600160601b031690565b6001600160a01b03811660009081526009602052604081205463ffffffff16806124a05760006124e0565b6001600160a01b0383166000908152600860209081526040808320600019850163ffffffff16845290915290205464010000000090046001600160601b03165b9392505050565b60007f8cad95687ba82c2ce50e74f7b754645e5117c3a5bec8151c0726d5857980a866612512610a60565b8051906020012061252161382e565b60408051602080820195909552808201939093526060830191909152306080808401919091528151808403909101815260a0830182528051908401207fe48329057bfd03d55e49b547132e39cffd9c1820ad7b9d4c5307691425d15adf60c08401526001600160a01b038b1660e084015261010083018a90526101208084018a905282518085039091018152610140840183528051908501207f19010000000000000000000000000000000000000000000000000000000000006101608501526101628401829052610182808501829052835180860390910181526101a285018085528151918701919091206000918290526101c2860180865281905260ff8b166101e287015261020286018a90526102228601899052935192965090949293909260019261024280840193601f198301929081900390910190855afa15801561266f573d6000803e3d6000fd5b5050604051601f1901519150506001600160a01b0381166126c15760405162461bcd60e51b815260040180806020018281038252602b8152602001806147ed602b913960400191505060405180910390fd5b6001600160a01b0381166000908152600a60205260409020546126e5906001612d9b565b89146127225760405162461bcd60e51b8152600401808060200182810382526027815260200180613dc06027913960400191505060405180910390fd5b6001600160a01b0381166000908152600a6020526040902080546001019055428810156127805760405162461bcd60e51b815260040180806020018281038252602b81526020018061498b602b913960400191505060405180910390fd5b61278a818b61370e565b505050505b505050505050565b6001600160a01b0381166000908152600b6020908152604080832054600c909252822060010154819042906127d0906301e13380612d9b565b1180156127dc57508115155b156127ea5791506115be9050565b6001600160a01b0384166000908152600c602052604090206002015442101580612812575081155b1561281f575060006124e0565b81156124e0576001600160a01b0384166000908152600c6020526040902060018101546002909101546128879161285691906137d1565b6001600160a01b0386166000908152600c6020526040902060020154610f349061288090426137d1565b85906131ad565b949350505050565b600061289961314f565b6001600160a01b03166128aa611d74565b6001600160a01b031614612905576040805162461bcd60e51b815260206004820181905260248201527f4f776e61626c653a2063616c6c6572206973206e6f7420746865206f776e6572604482015290519081900360640190fd5b6001600160a01b038216612960576040805162461bcd60e51b815260206004820152601660248201527f63616e6e6f74206265207a65726f206164647265737300000000000000000000604482015290519081900360640190fd5b6001600160a01b0382163014156129be576040805162461bcd60e51b815260206004820152601760248201527f63616e6e6f74206265207468697320636f6e7472616374000000000000000000604482015290519081900360640190fd5b6011546001600160a01b0383811691161415612a21576040805162461bcd60e51b815260206004820152601f60248201527f6d757374206265206e65772052657761726473204469737472696275746f7200604482015290519081900360640190fd5b601154604080516001600160a01b039283168152918416602083015280517fd8732c543edde4e60b54e1136459ee3a610f1243749765d9dbdbcf9fe76a7bd59281900390910190a150601180546001600160a01b03831673ffffffffffffffffffffffffffffffffffffffff199091161790556001919050565b6000806000612ac46012546040518060600160405280603d8152602001613d60603d9139612dfa565b6013549093509150509091565b612ad961314f565b6001600160a01b0316612aea611d74565b6001600160a01b031614612b45576040805162461bcd60e51b815260206004820181905260248201527f4f776e61626c653a2063616c6c6572206973206e6f7420746865206f776e6572604482015290519081900360640190fd5b601154600160a81b900460ff1615612ba4576040805162461bcd60e51b815260206004820152600e60248201527f4241424c206d75737420666c6f77000000000000000000000000000000000000604482015290519081900360640190fd5b601180547fffffffffffffffffffff0000ffffffffffffffffffffffffffffffffffffffff16600160a81b179055565b60135481565b6001600160a01b03918216600090815260016020908152604080832093909416825291909152205490565b7fe48329057bfd03d55e49b547132e39cffd9c1820ad7b9d4c5307691425d15adf81565b600860209081526000928352604080842090915290825290205463ffffffff81169064010000000090046001600160601b031682565b612c6761314f565b6001600160a01b0316612c78611d74565b6001600160a01b031614612cd3576040805162461bcd60e51b815260206004820181905260248201527f4f776e61626c653a2063616c6c6572206973206e6f7420746865206f776e6572604482015290519081900360640190fd5b6001600160a01b038116612d185760405162461bcd60e51b8152600401808060200182810382526026815260200180613eee6026913960400191505060405180910390fd5b6005546040516001600160a01b0380841692610100900416907f8be0079c531659141344cd1fd0a4f28419497f9722a3daafe3b4186f6b6457e090600090a3600580546001600160a01b039092166101000274ffffffffffffffffffffffffffffffffffffffff0019909216919091179055565b600f546001600160a01b031681565b6000828201838110156124e0576040805162461bcd60e51b815260206004820152601b60248201527f536166654d6174683a206164646974696f6e206f766572666c6f770000000000604482015290519081900360640190fd5b505050565b6000816c010000000000000000000000008410612e955760405162461bcd60e51b81526004018080602001828103825283818151815260200191508051906020019080838360005b83811015612e5a578181015183820152602001612e42565b50505050905090810190601f168015612e875780820380516001836020036101000a031916815260200191505b509250505060405180910390fd5b509192915050565b6001600160a01b038316612ee25760405162461bcd60e51b81526004018080602001828103825260248152602001806146776024913960400191505060405180910390fd5b6001600160a01b038216612f275760405162461bcd60e51b8152600401808060200182810382526022815260200180613f146022913960400191505060405180910390fd5b6001600160a01b03808416600081815260016020908152604080832094871680845294825291829020859055815185815291517f8c5be1e5ebec7d5bd14f71427d1e84f3dd0314c0f7b2291e5b200ac8c7c3b9259281900390910190a3505050565b6001600160a01b038316612fce5760405162461bcd60e51b81526004018080602001828103825260428152602001806146ee6042913960600191505060405180910390fd5b6001600160a01b0382166130135760405162461bcd60e51b81526004018080602001828103825260408152602001806141d06040913960400191505060405180910390fd5b6001600160a01b03821630141561305b5760405162461bcd60e51b815260040180806020018281038252605081526020018061485f6050913960600191505060405180910390fd5b806130658461167a565b10156130a25760405162461bcd60e51b81526004018080602001828103825260318152602001806146466031913960400191505060405180910390fd5b806130ac84611640565b10156130e95760405162461bcd60e51b81526004018080602001828103825260408152602001806144e26040913960400191505060405180910390fd5b6130f4838383613832565b6001600160a01b0380841660009081526007602090815260408083205486851684529281902054815160608101909252602c808352612df59594851694919091169261314a92879290916143f190830139612dfa565b61335d565b3390565b600081848411156131a55760405162461bcd60e51b8152602060048201818152835160248401528351909283926044909101919085019080838360008315612e5a578181015183820152602001612e42565b505050900390565b6000826131bc575060006110b2565b828202828482816131c957fe5b04146124e05760405162461bcd60e51b81526004018080602001828103825260218152602001806142b56021913960400191505060405180910390fd5b600080821161325c576040805162461bcd60e51b815260206004820152601a60248201527f536166654d6174683a206469766973696f6e206279207a65726f000000000000604482015290519081900360640190fd5b81838161326557fe5b049392505050565b6001600160a01b0382166132c8576040805162461bcd60e51b815260206004820152601f60248201527f45524332303a206d696e7420746f20746865207a65726f206164647265737300604482015290519081900360640190fd5b6132d46000838361398d565b6002546132e19082612d9b565b6002556001600160a01b0382166000908152602081905260409020546133079082612d9b565b6001600160a01b0383166000818152602081815260408083209490945583518581529351929391927fddf252ad1be2c89b69c2b068fc378daa952ba7f163c4a11628f55a4df523b3ef9281900390910190a35050565b816001600160a01b0316836001600160a01b03161415801561338857506000816001600160601b0316115b15612df5576001600160a01b03831615613441576001600160a01b03831660009081526009602052604081205463ffffffff1690816133c8576000613408565b6001600160a01b0385166000908152600860209081526040808320600019860163ffffffff16845290915290205464010000000090046001600160601b03165b9050600061342f828560405180606001604052806031815260200161415b60319139613a09565b905061343d86848484613a6e565b5050505b6001600160a01b03821615612df5576001600160a01b03821660009081526009602052604081205463ffffffff16908161347c5760006134bc565b6001600160a01b0384166000908152600860209081526040808320600019860163ffffffff16845290915290205464010000000090046001600160601b03165b905060006134e38285604051806060016040528060308152602001613de760309139613c2f565b905061278f85848484613a6e565b6010546000906001600160a01b0316331461353d5760405162461bcd60e51b8152600401808060200182810382526050815260200180613e9e6050913960600191505060405180910390fd5b6001600160a01b0382166000908152600b60205260409020546135915760405162461bcd60e51b815260040180806020018281038252602c81526020018061441d602c913960400191505060405180910390fd5b600061359c8361215f565b9050600081116135dd5760405162461bcd60e51b815260040180806020018281038252603d81526020018061404e603d913960400191505060405180910390fd5b6001600160a01b0383166000908152600c602052604090205460ff1615156001146136395760405162461bcd60e51b81526004018080602001828103825260468152602001806145a36046913960600191505060405180910390fd5b6001600160a01b038084166000908152600b60209081526040808320839055600c9091528120805460ff191681556001810182905560028101829055600301556010546136899185911683610d44565b6136c45760405162461bcd60e51b815260040180806020018281038252602d815260200180613e71602d913960400191505060405180910390fd5b604080516001600160a01b03851681526020810183905281517f27f83af92b39768b17fe0c8d6922452702717efb8626d97e7a754e0b27d4f6d2929181900390910190a192915050565b6001600160a01b038083166000908152600760205260408120549091169061375661373885613c99565b60405180606001604052806025815260200161494160259139612dfa565b6001600160a01b03858116600081815260076020526040808220805473ffffffffffffffffffffffffffffffffffffffff1916898616908117909155905194955093928616927f3134e8a2e6d97e929a7e54011ea5485d7d196dd5f0ba4d4ef95803e8e3fc257f9190a46137cb82848361335d565b50505050565b600082821115613828576040805162461bcd60e51b815260206004820152601e60248201527f536166654d6174683a207375627472616374696f6e206f766572666c6f770000604482015290519081900360640190fd5b50900390565b4690565b6001600160a01b0383166138775760405162461bcd60e51b81526004018080602001828103825260258152602001806146216025913960400191505060405180910390fd5b6001600160a01b0382166138bc5760405162461bcd60e51b8152600401808060200182810382526023815260200180613d9d6023913960400191505060405180910390fd5b6138c783838361398d565b61390481604051806060016040528060268152602001613fa8602691396001600160a01b0386166000908152602081905260409020549190613153565b6001600160a01b0380851660009081526020819052604080822093909355908416815220546139339082612d9b565b6001600160a01b038084166000818152602081815260409182902094909455805185815290519193928716927fddf252ad1be2c89b69c2b068fc378daa952ba7f163c4a11628f55a4df523b3ef92918290030190a3505050565b613998838383612df5565b612df56001600160a01b03841615806139be57506010546001600160a01b038581169116145b806139d657506011546001600160a01b038581169116145b806139ee57506010546001600160a01b038481169116145b80613a025750601154600160a01b900460ff165b603e613ca4565b6000836001600160601b0316836001600160601b0316111582906131a55760405162461bcd60e51b8152602060048201818152835160248401528351909283926044909101919085019080838360008315612e5a578181015183820152602001612e42565b6000613a924360405180606001604052806039815260200161456a60399139613cb6565b905060008463ffffffff16118015613adb57506001600160a01b038516600090815260086020908152604080832063ffffffff6000198901811685529252909120548282169116145b15613b3b576001600160a01b0385166000908152600860209081526040808320600019880163ffffffff168452909152902080546fffffffffffffffffffffffff0000000019166401000000006001600160601b03851602179055613bdb565b60408051808201825263ffffffff80841682526001600160601b0380861660208085019182526001600160a01b038b166000818152600883528781208c871682528352878120965187549451909516640100000000026fffffffffffffffffffffffff000000001995871663ffffffff19958616179590951694909417909555938252600990935292909220805460018801909316929091169190911790555b604080516001600160601b0380861682528416602082015281516001600160a01b038816927fdec2bacdd2f05b59de34da9b523dff8be42e5e38e818c82fdb0bae774387a724928290030190a25050505050565b6000838301826001600160601b038087169083161015613c905760405162461bcd60e51b8152602060048201818152835160248401528351909283926044909101919085019080838360008315612e5a578181015183820152602001612e42565b50949350505050565b60006110b28261167a565b81613cb257613cb281613d0c565b5050565b6000816401000000008410612e955760405162461bcd60e51b8152602060048201818152835160248401528351909283926044909101919085019080838360008315612e5a578181015183820152602001612e42565b62461bcd60e51b6000908152602060045260076024526642414223000030600a808404818106603090810160081b95839006959095019082900491820690940160101b939093010160c81b604452606490fdfe4241424c546f6b656e3a3a6d6178537570706c79416c6c6f7765643a206d6178537570706c79416c6c6f7765642065786365656473203936206269747345524332303a207472616e7366657220746f20746865207a65726f2061646472657373566f7465546f6b656e3a3a64656c656761746542795369673a20696e76616c6964206e6f6e6365566f7465546f6b656e3a3a5f6d6f766544656c6567617465733a20766f746520616d6f756e74206f766572666c6f777354696d654c6f636b6564546f6b656e3a3a206f6e6c7954696d654c6f636b4f776e65723a2063616e206f6e6c7920626520657865637574656420627920746865206f776e6572206f662054696d654c6f636b526567697374727954696d654c6f636b6564546f6b656e3a3a63616e63656c546f6b656e733a5472616e73666572206661696c656454696d654c6f636b6564546f6b656e3a3a206f6e6c7954696d654c6f636b52656769737472793a2063616e206f6e6c792062652065786563757465642062792054696d654c6f636b52656769737472794f776e61626c653a206e6577206f776e657220697320746865207a65726f206164647265737345524332303a20617070726f766520746f20746865207a65726f206164647265737354696d654c6f636b6564546f6b656e3a3a6465637265617365416c6c6f77616e63653a556e646572666c6f7720636f6e646974696f6e4241424c546f6b656e3a3a6d696e743a2063616e6e6f74206d696e7420746f207468652061646472657373206f66207468697320636f6e747261637445524332303a207472616e7366657220616d6f756e7420657863656564732062616c616e636554696d654c6f636b6564546f6b656e3a3a6465637265617365416c6c6f77616e63653a63616e6e6f7420646563726561736520616c6c6f77616e636520746f2074696d654c6f636b526567697374727954696d654c6f636b6564546f6b656e3a3a617070726f76653a20616d6f756e742065786365656473203936206269747354696d654c6f636b6564546f6b656e3a3a63616e63656c546f6b656e733a546865726520617265206e6f206d6f7265206c6f636b656420746f6b656e734241424c546f6b656e3a3a6368616e67654d6178537570706c793a206e6577206e65774d6178537570706c79416c6c6f7765644166746572206578636565647320393620626974734241424c546f6b656e3a3a6368616e67654d6178537570706c793a206368616e67654d6178537570706c792073686f756c6420626520686967686572207468616e2070726576696f75732076616c756554696d654c6f636b6564546f6b656e3a3a617070726f76653a207370656e6465722063616e6e6f74206265207a65726f2061646472657373566f7465546f6b656e3a3a5f6d6f766544656c6567617465733a20766f746520616d6f756e7420756e646572666c6f77734241424c546f6b656e3a3a6d696e743a206d696e74696e67206e6f7420616c6c6f776564207965742062656361757365206d696e74696e67416c6c6f776564416674657254696d654c6f636b6564546f6b656e3a3a205f7472616e736665723a2063616e6e6f74207472616e7366657220746f20746865207a65726f20616464726573734241424c546f6b656e3a3a6368616e67654d6178537570706c793a206578636565646564206f6620616c6c6f7765642035252063617063616e6e6f74206265207468652054696d654c6f636b526567697374727920636f6e747261637420697473656c6654696d654c6f636b6564546f6b656e3a3a696e637265617365416c6c6f77616e63653a5370656e6465722063616e6e6f74206265207a65726f2061646472657373536166654d6174683a206d756c7469706c69636174696f6e206f766572666c6f774241424c546f6b656e3a3a6d696e743a206d696e742073686f756c6420626520686967686572207468616e207a65726f45524332303a207472616e7366657220616d6f756e74206578636565647320616c6c6f77616e63654241424c546f6b656e3a3a6368616e67654d6178537570706c793a20746865206e65774d6178537570706c79416c6c6f77656441667465722073686f756c64206265206174206c656173742031207965617220696e20746865206675747572654241424c546f6b656e3a3a6368616e67654d6178537570706c793a2061206368616e6765206f6e206d6178537570706c79416c6c6f776564206e6f7420616c6c6f77656420756e74696c2038207965617273206166746572206465706c6f796d656e7454696d654c6f636b6564546f6b656e3a3a205f7472616e736665723a2075696e743936206f766572666c6f7754696d654c6f636b6564546f6b656e3a3a63616e63656c546f6b656e733a4e6f7420726567697374657265644241424c546f6b656e3a3a6d696e743a2063616e6e6f74207472616e7366657220746f20746865207a65726f20616464726573734241424c546f6b656e3a3a6d696e743a206d617820737570706c7920657863656564656454696d654c6f636b6564546f6b656e3a3a6465637265617365416c6c6f77616e63653a5370656e6465722063616e6e6f74206265207a65726f206164647265737354696d654c6f636b6564546f6b656e3a3a205f7472616e736665723a20617474656d7074696e6720746f207472616e73666572206c6f636b65642066756e64734241424c546f6b656e3a3a6368616e67654d6178537570706c793a2061206368616e6765206f6e206d6178537570706c79416c6c6f776564206e6f7420616c6c6f77656420796574566f7465546f6b656e3a3a5f7772697465436865636b706f696e743a20626c6f636b206e756d6265722065786365656473203332206269747354696d654c6f636b6564546f6b656e3a3a63616e63656c546f6b656e733a63616e6e6f742063616e63656c206c6f636b656420746f6b656e7320746f20496e766573746f72734241424c546f6b656e3a3a6d696e743a206578636565646564206d696e7420636170206f66203225206f6620746f74616c20737570706c7945524332303a207472616e736665722066726f6d20746865207a65726f206164647265737354696d654c6f636b6564546f6b656e3a3a205f7472616e736665723a20696e73756666696369656e742062616c616e636545524332303a20617070726f76652066726f6d20746865207a65726f20616464726573734241424c546f6b656e3a3a6d696e743a20616d6f756e74206578636565647320393620626974734241424c546f6b656e3a3a6765745072696f72566f7465733a206e6f74207965742064657465726d696e656454696d654c6f636b6564546f6b656e3a3a205f7472616e736665723a2063616e6e6f74207472616e736665722066726f6d20746865207a65726f206164647265737354696d654c6f636b6564546f6b656e3a3a6465637265617365416c6c6f77616e63653a5370656e6465722063616e6e6f7420626520746865206d73672e73656e64657254696d654c6f636b6564546f6b656e3a3a617070726f76653a207370656e6465722063616e6e6f7420626520746865206d73672e73656e6465724241424c546f6b656e3a3a6368616e67654d6178537570706c793a20706f74656e7469616c206d617820616d6f756e7420657863656564732039362062697473566f7465546f6b656e3a3a64656c656761746542795369673a20696e76616c6964207369676e617475726554696d654c6f636b6564546f6b656e3a3a617070726f76653a2063616e6e6f7420646563726561736520616c6c6f77616e636520746f2074696d656c6f636b726567697374727954696d654c6f636b6564546f6b656e3a3a205f7472616e736665723a20646f206e6f74207472616e7366657220746f6b656e7320746f2074686520746f6b656e20636f6e747261637420697473656c6654696d654c6f636b6564546f6b656e3a3a696e637265617365416c6c6f77616e63653a4e6f7420656e6f75676820756e6c6f636b656420746f6b656e734241424c546f6b656e3a3a6d696e743a206d696e74696e67206e6f7420616c6c6f776564206166746572207468652046495253545f45504f43485f4d494e542068617320706173736564203e3d2038207965617273566f7465546f6b656e3a3a5f64656c65676174653a2075696e743936206f766572666c6f7745524332303a2064656372656173656420616c6c6f77616e63652062656c6f77207a65726f566f7465546f6b656e3a3a64656c656761746542795369673a207369676e6174757265206578706972656454696d654c6f636b6564546f6b656e3a3a696e637265617365416c6c6f77616e63653a5370656e6465722063616e6e6f7420626520746865206d73672e73656e646572a26469706673582212209afd2bbafaaa21285f1bb582288a23985c3f370073cab716bfb7bbd3a1ba560464736f6c63430007060033",
  "devdoc": {
    "details": "The BABLToken contract is ERC20 using 18 decimals as a standard Is Ownable to transfer ownership to Governor Alpha for Decentralized Governance It overrides the mint and maximum supply to control the timing and maximum cap allowed along the time.",
    "kind": "dev",
    "methods": {
      "allowance(address,address)": {
        "details": "See {IERC20-allowance}."
      },
      "approve(address,uint256)": {
        "details": "This will overwrite the approval amount for `spender` except in the case of spender is Time Lock Registry and is subject to issues noted [here](https://eips.ethereum.org/EIPS/eip-20#approve)",
        "params": {
          "rawAmount": "The number of tokens that are approved (2^256-1 means infinite)",
          "spender": "The address of the account which may transfer tokens"
        },
        "returns": {
          "_0": "Whether or not the approval succeeded"
        }
      },
      "balanceOf(address)": {
        "details": "See {IERC20-balanceOf}."
      },
      "cancelVestedTokens(address)": {
        "details": "Cancel distribution registration",
        "params": {
          "lockedAccount": "that should have its still locked distribution removed due to non-completion of its vesting period"
        }
      },
      "changeMaxSupply(uint256,uint256)": {
        "params": {
          "newMaxSupply": "The new maximum limit, limited by a maximum of 5% cap per year",
          "newMaxSupplyAllowedAfter": "The new waiting period to change the maxSupplyAllowed limited for a minimum of 1 year"
        },
        "returns": {
          "_0": "Whether or not the changeMaxSupply succeeded"
        }
      },
      "claimMyTokens()": {
        "details": "Claim msg.sender tokens (if any available in the registry)"
      },
      "decimals()": {
        "details": "Returns the number of decimals used to get its user representation. For example, if `decimals` equals `2`, a balance of `505` tokens should be displayed to a user as `5,05` (`505 / 10 ** 2`). Tokens usually opt for a value of 18, imitating the relationship between Ether and Wei. This is the value {ERC20} uses, unless {_setupDecimals} is called. NOTE: This information is only used for _display_ purposes: it in no way affects any of the arithmetic of the contract, including {IERC20-balanceOf} and {IERC20-transfer}."
      },
      "decreaseAllowance(address,uint256)": {
        "details": "Atomically decreases the allowance granted to `spender` by the caller. This is an override with respect to the fulfillment of vesting conditions along the way An user cannot decrease the allowance to the Time Lock Registry who is in charge of vesting conditions",
        "returns": {
          "_0": "Whether or not the decreaseAllowance succeeded"
        }
      },
      "delegate(address)": {
        "params": {
          "delegatee": "The address to delegate votes to"
        }
      },
      "delegateBySig(address,uint256,uint256,uint8,bytes32,bytes32)": {
        "params": {
          "delegatee": "The address to delegate votes to",
          "expiry": "The time at which to expire the signature",
          "nonce": "The contract state required to match the signature",
          "r": "Half of the ECDSA signature pair",
          "s": "Half of the ECDSA signature pair",
          "v": "The recovery byte of the signature"
        }
      },
      "getCurrentVotes(address)": {
        "params": {
          "account": "Account to get voting power for"
        },
        "returns": {
          "_0": "Voting power for an account"
        }
      },
      "getPriorVotes(address,uint256)": {
        "params": {
          "account": "Account to get voting power for",
          "blockNumber": "Block to get voting power at"
        },
        "returns": {
          "_0": "Voting power for an account at specific block"
        }
      },
      "getTimeLockRegistry()": {
        "returns": {
          "_0": "Address of the Time Lock Registry"
        }
      },
      "increaseAllowance(address,uint256)": {
        "details": "This is an override with respect to the fulfillment of vesting conditions along the way However an user can increase allowance many times, it will never be able to transfer locked tokens during vesting period",
        "returns": {
          "_0": "Whether or not the increaseAllowance succeeded"
        }
      },
      "lockedBalance(address)": {
        "params": {
          "account": "Account to check"
        },
        "returns": {
          "_0": "Amount locked in the time of checking"
        }
      },
      "maxSupply()": {
        "returns": {
          "_0": "Returns the value of maxSupplyAllowed at the time"
        }
      },
      "mint(address,uint256)": {
        "details": "MINT_CAP The new maximum limit, limited by a 2% cap of totalSupply for each new mint and always limited by maxSupplyAllowed. mintingAllowedAfter Defines the next time allowed for a new mint",
        "params": {
          "_amount": "The number of tokens to be minted",
          "_to": "The address of the destination account that will receive the new BABL tokens"
        },
        "returns": {
          "_0": "Whether or not the mint succeeded"
        }
      },
      "name()": {
        "details": "Returns the name of the token."
      },
      "owner()": {
        "details": "Returns the address of the current owner."
      },
      "registerLockup(address,uint256,bool,uint256,uint256,uint256)": {
        "params": {
          "_amount": "Tokens to be transferred",
          "_lastClaim": "Unix Time when the claim was done from that particular address",
          "_profile": "True if is a Team Member or Advisor",
          "_receiver": "Address to receive the tokens",
          "_vestingBegin": "Unix Time when the vesting for that particular address",
          "_vestingEnd": "Unix Time when the vesting for that particular address"
        }
      },
      "renounceOwnership()": {
        "details": "Leaves the contract without owner. It will not be possible to call `onlyOwner` functions anymore. Can only be called by the current owner. NOTE: Renouncing ownership will leave the contract without an owner, thereby removing any functionality that is only available to the owner."
      },
      "setRewardsDistributor(address)": {
        "params": {
          "newRewardsDistributor": "Address of Rewards Distributor contract"
        }
      },
      "setTimeLockRegistry(address)": {
        "params": {
          "newTimeLockRegistry": "Address of TimeLockRegistry contract"
        }
      },
      "symbol()": {
        "details": "Returns the symbol of the token, usually a shorter version of the name."
      },
      "totalSupply()": {
        "details": "See {IERC20-totalSupply}."
      },
      "transfer(address,uint256)": {
        "details": "See {IERC20-transfer}. Requirements: - `recipient` cannot be the zero address. - the caller must have a balance of at least `amount`."
      },
      "transferFrom(address,address,uint256)": {
        "details": "See {IERC20-transferFrom}. Emits an {Approval} event indicating the updated allowance. This is not required by the EIP. See the note at the beginning of {ERC20}. Requirements: - `sender` and `recipient` cannot be the zero address. - `sender` must have a balance of at least `amount`. - the caller must have allowance for ``sender``'s tokens of at least `amount`."
      },
      "transferOwnership(address)": {
        "details": "Transfers ownership of the contract to a new account (`newOwner`). Can only be called by the current owner."
      },
      "unlockedBalance(address)": {
        "params": {
          "account": "Account to check"
        },
        "returns": {
          "_0": "Amount that is unlocked and available eg. to transfer"
        }
      },
      "viewLockedBalance(address)": {
        "params": {
          "account": "Account to check"
        },
        "returns": {
          "_0": "Amount locked in the time of checking"
        }
      }
    },
    "stateVariables": {
      "FIRST_EPOCH_MINT": {
        "details": "First Epoch Mint where no more than 1 Million BABL can be minted (>= 8 Years)"
      },
      "MIN_TIME_BETWEEN_MINTS": {
        "details": "Minimum time between mints after"
      },
      "NAME": {
        "details": "EIP-20 token name for this token"
      },
      "SYMBOL": {
        "details": "EIP-20 token symbol for this token"
      },
      "maxSupplyAllowed": {
        "details": "Maximum number of tokens in circulation of 1 million for the first 8 years (using 18 decimals as ERC20 standard)"
      }
    },
    "title": "BABL Token",
    "version": 1
  },
  "userdoc": {
    "events": {
      "Cancel(address,uint256)": {
        "notice": "An event that emitted when a cancellation of Lock tokens is registered"
      },
      "Claim(address,uint256)": {
        "notice": "An event that emitted when a claim of tokens are registered"
      },
      "LockedBalance(address,uint256)": {
        "notice": "An event that emitted when a lockedBalance query is done"
      },
      "MaxSupplyAllowedAfterChanged(uint256,uint256)": {
        "notice": "An event that emitted when maxSupplyAllowedAfter changes"
      },
      "MaxSupplyChanged(uint256,uint256)": {
        "notice": "An event thats emitted when maxSupplyAllowed changes"
      },
      "MintedNewTokens(address,uint256)": {
        "notice": "An event that emitted when a new mint ocurr"
      },
      "NewLockout(address,uint256,bool,uint256,uint256)": {
        "notice": "An event that emitted when a new lockout ocurr"
      },
      "NewRewardsDistributorRegistration(address,address)": {
        "notice": "An event that emitted when a new Rewards Distributor is registered"
      },
      "NewTimeLockRegistration(address,address)": {
        "notice": "An event that emitted when a new Time Lock is registered"
      }
    },
    "kind": "user",
    "methods": {
      "BABLTokenDeploymentTimestamp()": {
        "notice": "The timestamp of BABL Token deployment"
      },
      "DELEGATION_TYPEHASH()": {
        "notice": "The EIP-712 typehash for the delegation struct used by the contract"
      },
      "DOMAIN_TYPEHASH()": {
        "notice": "The EIP-712 typehash for the contract's domain"
      },
      "MAX_SUPPLY_CAP()": {
        "notice": "Cap on the percentage of maxSupplyAllowed that can be increased per year after maxSupplyAllowedAfter"
      },
      "MINT_CAP()": {
        "notice": "Cap on the percentage of totalSupply that can be minted at each mint after the initial 1 Million BABL"
      },
      "approve(address,uint256)": {
        "notice": "PRIVILEGED GOVERNANCE FUNCTION. Override the Approval of allowances of ERC20 with special conditions for vestingOverride of \"Approve\" function to allow the `spender` to transfer up to `amount` from `src`"
      },
      "cancelVestedTokens(address)": {
        "notice": "PRIVILEGED GOVERNANCE FUNCTION. Cancel and remove locked tokens due to non-completion of vesting period applied only by Time Lock Registry and specifically to Team or Advisors as it does not apply to investors."
      },
      "changeMaxSupply(uint256,uint256)": {
        "notice": "PRIVILEGED GOVERNANCE FUNCTION. Allows governance to change maxSupplyAllowedSet-up a greater maxSupplyAllowed value to allow more tokens to be minted"
      },
      "checkpoints(address,uint32)": {
        "notice": "A record of votes checkpoints for each account, by index"
      },
      "claimMyTokens()": {
        "notice": "GOVERNANCE FUNCTION. Each token owner can claim its own specific tokens with its own specific vesting conditions from the Time Lock Registry"
      },
      "constructor": {
        "notice": "Construct a new BABL token and gives ownership to sender"
      },
      "decreaseAllowance(address,uint256)": {
        "notice": "PRIVILEGED GOVERNANCE FUNCTION. Override the decrease of allowances of ERC20 with special conditions for vestingAtomically decrease the allowance granted to `spender` by the caller."
      },
      "delegate(address)": {
        "notice": "PRIVILEGED GOVERNANCE FUNCTION. Delegating votes from msg.sender to delegateeDelegate votes from `msg.sender` to `delegatee`"
      },
      "delegateBySig(address,uint256,uint256,uint8,bytes32,bytes32)": {
        "notice": "PRIVILEGED GOVERNANCE FUNCTION. Delegate votes using signature to 'delegatee'Delegates votes from signatory to `delegatee`"
      },
      "disableTokensTransfers()": {
        "notice": "PRIVILEGED GOVERNANCE FUNCTION. Disables transfers of ERC20 BABL Tokens"
      },
      "enableTokensTransfers()": {
        "notice": "PRIVILEGED GOVERNANCE FUNCTION. Allows transfers of ERC20 BABL Tokens Can only happen after the protocol is fully decentralized."
      },
      "getCurrentVotes(address)": {
        "notice": "GOVERNANCE FUNCTION. Check Delegate votes using signature to 'delegatee'Get current voting power for an account"
      },
      "getPriorVotes(address,uint256)": {
        "notice": "GOVERNANCE FUNCTION. Get voting power at a specific block for an account"
      },
      "getTimeLockRegistry()": {
        "notice": "PUBLIC FUNCTION. Get the address of Time Lock RegistryGet the address of Time Lock Registry"
      },
      "increaseAllowance(address,uint256)": {
        "notice": "PRIVILEGED GOVERNANCE FUNCTION. Override the Increase of allowances of ERC20 with special conditions for vestingAtomically increases the allowance granted to `spender` by the caller."
      },
      "lockedBalance(address)": {
        "notice": "GOVERNANCE FUNCTION. Get locked balance for an accountGet locked balance for an account"
      },
      "maxSupply()": {
        "notice": "PUBLIC FUNCTION. Get the value of maxSupplyAllowed"
      },
      "maxSupplyAllowedAfter()": {
        "notice": "The timestamp after which a change on maxSupplyAllowed may occur"
      },
      "mint(address,uint256)": {
        "notice": "PRIVILEGED GOVERNANCE FUNCTION. Allows to mint new tokensMint new BABL tokens. Initial 1 Million BABL. After 8 years new BABL could be minted by governance decision"
      },
      "mintingAllowedAfter()": {
        "notice": "The timestamp after which minting may occur after FIRST_EPOCH_MINT (8 years)"
      },
      "nonces(address)": {
        "notice": "A record of states for signing / validating signatures"
      },
      "numCheckpoints(address)": {
        "notice": "The number of checkpoints for each account"
      },
      "registerLockup(address,uint256,bool,uint256,uint256,uint256)": {
        "notice": "PRIVILEGED GOVERNANCE FUNCTION. Register new token lockup conditions for vested tokens defined only by Time Lock RegistryTokens are completely delivered during the registration however lockup conditions apply for vested tokens locking them according to the distribution epoch periods and the type of recipient (Team, Advisor, Investor) Emits a transfer event showing a transfer to the recipient Only the registry can call this function"
      },
      "setRewardsDistributor(address)": {
        "notice": "PRIVILEGED GOVERNANCE FUNCTION. Set the Rewards Distributor contract to control either BABL Mining or profit rewardsSet the Rewards Distriburor contract to control both types of rewards (profit and BABL Mining program)"
      },
      "setTimeLockRegistry(address)": {
        "notice": "PRIVILEGED GOVERNANCE FUNCTION. Set the Time Lock Registry contract to control token vesting conditionsSet the Time Lock Registry contract to control token vesting conditions"
      },
      "unlockedBalance(address)": {
        "notice": "GOVERNANCE FUNCTION. Get unlocked balance for an accountGet unlocked balance for an account"
      },
      "vestedToken(address)": {
        "notice": "A record of token owners under vesting conditions for each account, by index"
      },
      "viewLockedBalance(address)": {
        "notice": "GOVERNANCE FUNCTION. View the locked balance for an accountView locked balance for an account"
      }
    },
    "version": 1
  },
  "storageLayout": {
    "storage": [
      {
        "astId": 2258,
        "contract": "contracts/token/BABLToken.sol:BABLToken",
        "label": "_balances",
        "offset": 0,
        "slot": "0",
        "type": "t_mapping(t_address,t_uint256)"
      },
      {
        "astId": 2264,
        "contract": "contracts/token/BABLToken.sol:BABLToken",
        "label": "_allowances",
        "offset": 0,
        "slot": "1",
        "type": "t_mapping(t_address,t_mapping(t_address,t_uint256))"
      },
      {
        "astId": 2266,
        "contract": "contracts/token/BABLToken.sol:BABLToken",
        "label": "_totalSupply",
        "offset": 0,
        "slot": "2",
        "type": "t_uint256"
      },
      {
        "astId": 2268,
        "contract": "contracts/token/BABLToken.sol:BABLToken",
        "label": "_name",
        "offset": 0,
        "slot": "3",
        "type": "t_string_storage"
      },
      {
        "astId": 2270,
        "contract": "contracts/token/BABLToken.sol:BABLToken",
        "label": "_symbol",
        "offset": 0,
        "slot": "4",
        "type": "t_string_storage"
      },
      {
        "astId": 2272,
        "contract": "contracts/token/BABLToken.sol:BABLToken",
        "label": "_decimals",
        "offset": 0,
        "slot": "5",
        "type": "t_uint8"
      },
      {
        "astId": 1456,
        "contract": "contracts/token/BABLToken.sol:BABLToken",
        "label": "_owner",
        "offset": 1,
        "slot": "5",
        "type": "t_address"
      },
      {
        "astId": 5603,
        "contract": "contracts/token/BABLToken.sol:BABLToken",
        "label": "_status",
        "offset": 0,
        "slot": "6",
        "type": "t_uint256"
      },
      {
        "astId": 39581,
        "contract": "contracts/token/BABLToken.sol:BABLToken",
        "label": "delegates",
        "offset": 0,
        "slot": "7",
        "type": "t_mapping(t_address,t_address)"
      },
      {
        "astId": 39593,
        "contract": "contracts/token/BABLToken.sol:BABLToken",
        "label": "checkpoints",
        "offset": 0,
        "slot": "8",
        "type": "t_mapping(t_address,t_mapping(t_uint32,t_struct(Checkpoint)39586_storage))"
      },
      {
        "astId": 39598,
        "contract": "contracts/token/BABLToken.sol:BABLToken",
        "label": "numCheckpoints",
        "offset": 0,
        "slot": "9",
        "type": "t_mapping(t_address,t_uint32)"
      },
      {
        "astId": 39603,
        "contract": "contracts/token/BABLToken.sol:BABLToken",
        "label": "nonces",
        "offset": 0,
        "slot": "10",
        "type": "t_mapping(t_address,t_uint256)"
      },
      {
        "astId": 38488,
        "contract": "contracts/token/BABLToken.sol:BABLToken",
        "label": "distribution",
        "offset": 0,
        "slot": "11",
        "type": "t_mapping(t_address,t_uint256)"
      },
      {
        "astId": 38502,
        "contract": "contracts/token/BABLToken.sol:BABLToken",
        "label": "vestedToken",
        "offset": 0,
        "slot": "12",
        "type": "t_mapping(t_address,t_struct(VestedToken)38497_storage)"
      },
      {
        "astId": 38507,
        "contract": "contracts/token/BABLToken.sol:BABLToken",
        "label": "teamVesting",
        "offset": 0,
        "slot": "13",
        "type": "t_uint256"
      },
      {
        "astId": 38512,
        "contract": "contracts/token/BABLToken.sol:BABLToken",
        "label": "investorVesting",
        "offset": 0,
        "slot": "14",
        "type": "t_uint256"
      },
      {
        "astId": 38514,
        "contract": "contracts/token/BABLToken.sol:BABLToken",
        "label": "controller",
        "offset": 0,
        "slot": "15",
        "type": "t_contract(IBabController)22767"
      },
      {
        "astId": 38516,
        "contract": "contracts/token/BABLToken.sol:BABLToken",
        "label": "timeLockRegistry",
        "offset": 0,
        "slot": "16",
        "type": "t_contract(TimeLockRegistry)38369"
      },
      {
        "astId": 38518,
        "contract": "contracts/token/BABLToken.sol:BABLToken",
        "label": "rewardsDistributor",
        "offset": 0,
        "slot": "17",
        "type": "t_contract(RewardsDistributor)37812"
      },
      {
        "astId": 38520,
        "contract": "contracts/token/BABLToken.sol:BABLToken",
        "label": "tokenTransfersEnabled",
        "offset": 20,
        "slot": "17",
        "type": "t_bool"
      },
      {
        "astId": 38522,
        "contract": "contracts/token/BABLToken.sol:BABLToken",
        "label": "tokenTransfersWereDisabled",
        "offset": 21,
        "slot": "17",
        "type": "t_bool"
      },
      {
        "astId": 33266,
        "contract": "contracts/token/BABLToken.sol:BABLToken",
        "label": "maxSupplyAllowed",
        "offset": 0,
        "slot": "18",
        "type": "t_uint256"
      },
      {
        "astId": 33269,
        "contract": "contracts/token/BABLToken.sol:BABLToken",
        "label": "maxSupplyAllowedAfter",
        "offset": 0,
        "slot": "19",
        "type": "t_uint256"
      },
      {
        "astId": 33280,
        "contract": "contracts/token/BABLToken.sol:BABLToken",
        "label": "mintingAllowedAfter",
        "offset": 0,
        "slot": "20",
        "type": "t_uint256"
      },
      {
        "astId": 33283,
        "contract": "contracts/token/BABLToken.sol:BABLToken",
        "label": "BABLTokenDeploymentTimestamp",
        "offset": 0,
        "slot": "21",
        "type": "t_uint256"
      }
    ],
    "types": {
      "t_address": {
        "encoding": "inplace",
        "label": "address",
        "numberOfBytes": "20"
      },
      "t_bool": {
        "encoding": "inplace",
        "label": "bool",
        "numberOfBytes": "1"
      },
      "t_contract(IBabController)22767": {
        "encoding": "inplace",
        "label": "contract IBabController",
        "numberOfBytes": "20"
      },
      "t_contract(RewardsDistributor)37812": {
        "encoding": "inplace",
        "label": "contract RewardsDistributor",
        "numberOfBytes": "20"
      },
      "t_contract(TimeLockRegistry)38369": {
        "encoding": "inplace",
        "label": "contract TimeLockRegistry",
        "numberOfBytes": "20"
      },
      "t_mapping(t_address,t_address)": {
        "encoding": "mapping",
        "key": "t_address",
        "label": "mapping(address => address)",
        "numberOfBytes": "32",
        "value": "t_address"
      },
      "t_mapping(t_address,t_mapping(t_address,t_uint256))": {
        "encoding": "mapping",
        "key": "t_address",
        "label": "mapping(address => mapping(address => uint256))",
        "numberOfBytes": "32",
        "value": "t_mapping(t_address,t_uint256)"
      },
      "t_mapping(t_address,t_mapping(t_uint32,t_struct(Checkpoint)39586_storage))": {
        "encoding": "mapping",
        "key": "t_address",
        "label": "mapping(address => mapping(uint32 => struct VoteToken.Checkpoint))",
        "numberOfBytes": "32",
        "value": "t_mapping(t_uint32,t_struct(Checkpoint)39586_storage)"
      },
      "t_mapping(t_address,t_struct(VestedToken)38497_storage)": {
        "encoding": "mapping",
        "key": "t_address",
        "label": "mapping(address => struct TimeLockedToken.VestedToken)",
        "numberOfBytes": "32",
        "value": "t_struct(VestedToken)38497_storage"
      },
      "t_mapping(t_address,t_uint256)": {
        "encoding": "mapping",
        "key": "t_address",
        "label": "mapping(address => uint256)",
        "numberOfBytes": "32",
        "value": "t_uint256"
      },
      "t_mapping(t_address,t_uint32)": {
        "encoding": "mapping",
        "key": "t_address",
        "label": "mapping(address => uint32)",
        "numberOfBytes": "32",
        "value": "t_uint32"
      },
      "t_mapping(t_uint32,t_struct(Checkpoint)39586_storage)": {
        "encoding": "mapping",
        "key": "t_uint32",
        "label": "mapping(uint32 => struct VoteToken.Checkpoint)",
        "numberOfBytes": "32",
        "value": "t_struct(Checkpoint)39586_storage"
      },
      "t_string_storage": {
        "encoding": "bytes",
        "label": "string",
        "numberOfBytes": "32"
      },
      "t_struct(Checkpoint)39586_storage": {
        "encoding": "inplace",
        "label": "struct VoteToken.Checkpoint",
        "members": [
          {
            "astId": 39583,
            "contract": "contracts/token/BABLToken.sol:BABLToken",
            "label": "fromBlock",
            "offset": 0,
            "slot": "0",
            "type": "t_uint32"
          },
          {
            "astId": 39585,
            "contract": "contracts/token/BABLToken.sol:BABLToken",
            "label": "votes",
            "offset": 4,
            "slot": "0",
            "type": "t_uint96"
          }
        ],
        "numberOfBytes": "32"
      },
      "t_struct(VestedToken)38497_storage": {
        "encoding": "inplace",
        "label": "struct TimeLockedToken.VestedToken",
        "members": [
          {
            "astId": 38490,
            "contract": "contracts/token/BABLToken.sol:BABLToken",
            "label": "teamOrAdvisor",
            "offset": 0,
            "slot": "0",
            "type": "t_bool"
          },
          {
            "astId": 38492,
            "contract": "contracts/token/BABLToken.sol:BABLToken",
            "label": "vestingBegin",
            "offset": 0,
            "slot": "1",
            "type": "t_uint256"
          },
          {
            "astId": 38494,
            "contract": "contracts/token/BABLToken.sol:BABLToken",
            "label": "vestingEnd",
            "offset": 0,
            "slot": "2",
            "type": "t_uint256"
          },
          {
            "astId": 38496,
            "contract": "contracts/token/BABLToken.sol:BABLToken",
            "label": "lastClaim",
            "offset": 0,
            "slot": "3",
            "type": "t_uint256"
          }
        ],
        "numberOfBytes": "128"
      },
      "t_uint256": {
        "encoding": "inplace",
        "label": "uint256",
        "numberOfBytes": "32"
      },
      "t_uint32": {
        "encoding": "inplace",
        "label": "uint32",
        "numberOfBytes": "4"
      },
      "t_uint8": {
        "encoding": "inplace",
        "label": "uint8",
        "numberOfBytes": "1"
      },
      "t_uint96": {
        "encoding": "inplace",
        "label": "uint96",
        "numberOfBytes": "12"
      }
    }
  }
}