{
  "address": "0x3Ed713fa0e914526E6B3D9E43038C5460F03539f",
  "abi": [
    {
      "inputs": [
        {
          "internalType": "contract IBabController",
          "name": "_controller",
          "type": "address"
        }
      ],
      "stateMutability": "nonpayable",
      "type": "constructor"
    },
    {
      "inputs": [],
      "name": "controller",
      "outputs": [
        {
          "internalType": "contract IBabController",
          "name": "",
          "type": "address"
        }
      ],
      "stateMutability": "view",
      "type": "function"
    },
    {
      "inputs": [
        {
          "internalType": "address",
          "name": "_strategy",
          "type": "address"
        }
      ],
      "name": "getCompleteStrategy",
      "outputs": [
        {
          "internalType": "address",
          "name": "",
          "type": "address"
        },
        {
          "internalType": "string",
          "name": "",
          "type": "string"
        },
        {
          "internalType": "uint256[13]",
          "name": "",
          "type": "uint256[13]"
        },
        {
          "internalType": "bool[]",
          "name": "",
          "type": "bool[]"
        },
        {
          "internalType": "uint256[]",
          "name": "",
          "type": "uint256[]"
        }
      ],
      "stateMutability": "view",
      "type": "function"
    },
    {
      "inputs": [
        {
          "internalType": "address",
          "name": "_garden",
          "type": "address"
        },
        {
          "internalType": "address",
          "name": "_user",
          "type": "address"
        }
      ],
      "name": "getContributionAndRewards",
      "outputs": [
        {
          "internalType": "uint256[]",
          "name": "",
          "type": "uint256[]"
        },
        {
          "internalType": "uint256[]",
          "name": "",
          "type": "uint256[]"
        }
      ],
      "stateMutability": "view",
      "type": "function"
    },
    {
      "inputs": [
        {
          "internalType": "address",
          "name": "_garden",
          "type": "address"
        }
      ],
      "name": "getGardenDetails",
      "outputs": [
        {
          "internalType": "string",
          "name": "",
          "type": "string"
        },
        {
          "internalType": "string",
          "name": "",
          "type": "string"
        },
        {
          "internalType": "address[5]",
          "name": "",
          "type": "address[5]"
        },
        {
          "internalType": "address",
          "name": "",
          "type": "address"
        },
        {
          "internalType": "bool[4]",
          "name": "",
          "type": "bool[4]"
        },
        {
          "internalType": "address[]",
          "name": "",
          "type": "address[]"
        },
        {
          "internalType": "address[]",
          "name": "",
          "type": "address[]"
        },
        {
          "internalType": "uint256[11]",
          "name": "",
          "type": "uint256[11]"
        },
        {
          "internalType": "uint256[9]",
          "name": "",
          "type": "uint256[9]"
        },
        {
          "internalType": "uint256[3]",
          "name": "",
          "type": "uint256[3]"
        }
      ],
      "stateMutability": "view",
      "type": "function"
    },
    {
      "inputs": [
        {
          "internalType": "address",
          "name": "_garden",
          "type": "address"
        },
        {
          "internalType": "address",
          "name": "_user",
          "type": "address"
        }
      ],
      "name": "getGardenPermissions",
      "outputs": [
        {
          "internalType": "bool",
          "name": "",
          "type": "bool"
        },
        {
          "internalType": "bool",
          "name": "",
          "type": "bool"
        },
        {
          "internalType": "bool",
          "name": "",
          "type": "bool"
        }
      ],
      "stateMutability": "view",
      "type": "function"
    },
    {
      "inputs": [
        {
          "internalType": "address",
          "name": "_garden",
          "type": "address"
        }
      ],
      "name": "getGardenPrincipal",
      "outputs": [
        {
          "internalType": "uint256",
          "name": "",
          "type": "uint256"
        }
      ],
      "stateMutability": "view",
      "type": "function"
    },
    {
      "inputs": [
        {
          "internalType": "address",
          "name": "_garden",
          "type": "address"
        },
        {
          "internalType": "address",
          "name": "_user",
          "type": "address"
        }
      ],
      "name": "getGardenUserAvgPricePerShare",
      "outputs": [
        {
          "internalType": "uint256",
          "name": "",
          "type": "uint256"
        }
      ],
      "stateMutability": "view",
      "type": "function"
    },
    {
      "inputs": [
        {
          "internalType": "address",
          "name": "_user",
          "type": "address"
        },
        {
          "internalType": "uint256",
          "name": "_offset",
          "type": "uint256"
        }
      ],
      "name": "getGardensUser",
      "outputs": [
        {
          "internalType": "address[]",
          "name": "",
          "type": "address[]"
        },
        {
          "internalType": "bool[]",
          "name": "",
          "type": "bool[]"
        }
      ],
      "stateMutability": "view",
      "type": "function"
    },
    {
      "inputs": [
        {
          "internalType": "address",
          "name": "_strategy",
          "type": "address"
        }
      ],
      "name": "getOperationsStrategy",
      "outputs": [
        {
          "internalType": "uint8[]",
          "name": "",
          "type": "uint8[]"
        },
        {
          "internalType": "address[]",
          "name": "",
          "type": "address[]"
        },
        {
          "internalType": "bytes[]",
          "name": "",
          "type": "bytes[]"
        }
      ],
      "stateMutability": "view",
      "type": "function"
    },
    {
      "inputs": [
        {
          "internalType": "address",
          "name": "_user",
          "type": "address"
        }
      ],
      "name": "getPermissions",
      "outputs": [
        {
          "internalType": "bool",
          "name": "",
          "type": "bool"
        },
        {
          "internalType": "bool",
          "name": "",
          "type": "bool"
        }
      ],
      "stateMutability": "view",
      "type": "function"
    },
    {
      "inputs": [
        {
          "internalType": "address",
          "name": "_garden",
          "type": "address"
        },
        {
          "internalType": "address[]",
          "name": "_members",
          "type": "address[]"
        }
      ],
      "name": "getPotentialVotes",
      "outputs": [
        {
          "internalType": "uint256",
          "name": "",
          "type": "uint256"
        }
      ],
      "stateMutability": "view",
      "type": "function"
    },
    {
      "inputs": [
        {
          "internalType": "address",
          "name": "_tokenIn",
          "type": "address"
        },
        {
          "internalType": "address",
          "name": "_reserveAsset",
          "type": "address"
        }
      ],
      "name": "getPriceAndLiquidity",
      "outputs": [
        {
          "internalType": "uint256",
          "name": "",
          "type": "uint256"
        },
        {
          "internalType": "uint256",
          "name": "",
          "type": "uint256"
        }
      ],
      "stateMutability": "view",
      "type": "function"
    },
    {
      "inputs": [
        {
          "internalType": "address",
          "name": "_garden",
          "type": "address"
        },
        {
          "internalType": "address",
          "name": "_user",
          "type": "address"
        }
      ],
      "name": "getUserPermission",
      "outputs": [
        {
          "internalType": "bool",
          "name": "canDeposit",
          "type": "bool"
        },
        {
          "internalType": "bool",
          "name": "canVote",
          "type": "bool"
        },
        {
          "internalType": "bool",
          "name": "canCreateStrategy",
          "type": "bool"
        }
      ],
      "stateMutability": "view",
      "type": "function"
    },
    {
      "inputs": [
        {
          "internalType": "address[]",
          "name": "_strategies",
          "type": "address[]"
        },
        {
          "internalType": "address",
          "name": "_user",
          "type": "address"
        }
      ],
      "name": "getUserStrategyActions",
      "outputs": [
        {
          "internalType": "uint256",
          "name": "",
          "type": "uint256"
        },
        {
          "internalType": "uint256",
          "name": "",
          "type": "uint256"
        }
      ],
      "stateMutability": "view",
      "type": "function"
    }
  ],
  "transactionHash": "0xb50cebbda47766bea552173f579c408b62dac0ccd5725e9c8f2614793fbbfa37",
  "args": [
    "0xD4a5b5fcB561dAF3aDF86F8477555B92FBa43b5F"
  ],
  "solcInputHash": "4f2ede57b38e39518764caf3bdab1569",
  "bytecode": "0x60806040523480156200001157600080fd5b506040516200548c3803806200548c83398101604081905262000034916200008c565b6001600160a01b038116620000665760405162461bcd60e51b81526004016200005d90620000bc565b60405180910390fd5b600080546001600160a01b0319166001600160a01b0392909216919091179055620000f3565b6000602082840312156200009e578081fd5b81516001600160a01b0381168114620000b5578182fd5b9392505050565b60208082526015908201527f436f6e74726f6c6c6572206d7573742065786973740000000000000000000000604082015260600190565b61538980620001036000396000f3fe608060405234801561001057600080fd5b50600436106100ea5760003560e01c8063b105b0441161008c578063d005ce5c11610066578063d005ce5c1461021c578063e644fe0914610245578063ede1209e14610258578063f77c479114610279576100ea565b8063b105b044146101d5578063bf6f9337146101f6578063c68b7c3a14610209576100ea565b80635dcb4959116100c85780635dcb49591461015c578063932a6942146101805780639ab05426146101a0578063a63037da146101b3576100ea565b8063160a7925146100ef5780631b76c124146101195780634c038f201461013a575b600080fd5b6101026100fd366004614887565b61028e565b6040516101109291906151a5565b60405180910390f35b61012c6101273660046148bf565b61041f565b6040516101109291906152b1565b61014d6101483660046148bf565b610548565b604051610110939291906151b7565b61016f61016a366004614887565b610a72565b60405161011095949392919061502b565b61019361018e3660046148bf565b6114bf565b60405161011091906151d1565b61012c6101ae366004614ab4565b61160d565b6101c66101c1366004614887565b6117a1565b604051610110939291906150f7565b6101e86101e33660046149eb565b611a18565b6040516101109291906150ad565b6101936102043660046148f7565b611c3d565b61014d6102173660046148bf565b611e32565b61022f61022a366004614887565b61225d565b6040516101109a999897969594939291906151da565b610193610253366004614887565b61347f565b61026b6102663660046148bf565b613a3a565b6040516101109291906150d2565b610281613e7e565b6040516101109190614fa0565b60008060008060009054906101000a90046001600160a01b03166001600160a01b031663c8ed947f6040518163ffffffff1660e01b815260040160206040518083038186803b1580156102e057600080fd5b505afa1580156102f4573d6000803e3d6000fd5b505050506040513d601f19601f8201168201806040525081019061031891906148a3565b90506000816001600160a01b03166370a08231866040518263ffffffff1660e01b81526004016103489190614fa0565b60206040518083038186803b15801561036057600080fd5b505afa158015610374573d6000803e3d6000fd5b505050506040513d601f19601f820116820180604052508101906103989190614c79565b11816001600160a01b0316637804a5dc866040518263ffffffff1660e01b81526004016103c59190614fa0565b60206040518083038186803b1580156103dd57600080fd5b505afa1580156103f1573d6000803e3d6000fd5b505050506040513d601f19601f820116820180604052508101906104159190614c5f565b9250925050915091565b60008054604080517f2630c12f000000000000000000000000000000000000000000000000000000008152905183926001600160a01b031691632630c12f916004808301926020929190829003018186803b15801561047d57600080fd5b505afa158015610491573d6000803e3d6000fd5b505050506040513d601f19601f820116820180604052508101906104b591906148a3565b6001600160a01b031663ac41865a85856040518363ffffffff1660e01b81526004016104e2929190614fb4565b60206040518083038186803b1580156104fa57600080fd5b505afa15801561050e573d6000803e3d6000fd5b505050506040513d601f19601f820116820180604052508101906105329190614c79565b61053c8585613e8d565b915091505b9250929050565b60008060008060008054906101000a90046001600160a01b03166001600160a01b031663c8ed947f6040518163ffffffff1660e01b815260040160206040518083038186803b15801561059a57600080fd5b505afa1580156105ae573d6000803e3d6000fd5b505050506040513d601f19601f820116820180604052508101906105d291906148a3565b6040517fc7ec5d5d0000000000000000000000000000000000000000000000000000000081529091506001600160a01b0382169063c7ec5d5d9061061c9089908990600401614fb4565b60206040518083038186803b15801561063457600080fd5b505afa158015610648573d6000803e3d6000fd5b505050506040513d601f19601f8201168201806040525081019061066c9190614c5f565b8061076c57506040516370a0823160e01b81526000906001600160a01b038316906370a08231906106a1908990600401614fa0565b60206040518083038186803b1580156106b957600080fd5b505afa1580156106cd573d6000803e3d6000fd5b505050506040513d601f19601f820116820180604052508101906106f19190614c79565b11801561076c5750856001600160a01b031663550c2b7f6040518163ffffffff1660e01b815260040160206040518083038186803b15801561073257600080fd5b505afa158015610746573d6000803e3d6000fd5b505050506040513d601f19601f8201168201806040525081019061076a9190614c5f565b155b6040516304d98fbf60e41b81526001600160a01b03831690634d98fbf09061079a908a908a90600401614fb4565b60206040518083038186803b1580156107b257600080fd5b505afa1580156107c6573d6000803e3d6000fd5b505050506040513d601f19601f820116820180604052508101906107ea9190614c5f565b806108e857506040516370a0823160e01b81526000906001600160a01b038416906370a082319061081f908a90600401614fa0565b60206040518083038186803b15801561083757600080fd5b505afa15801561084b573d6000803e3d6000fd5b505050506040513d601f19601f8201168201806040525081019061086f9190614c79565b1180156108e85750866001600160a01b03166377e7ff3c6040518163ffffffff1660e01b815260040160206040518083038186803b1580156108b057600080fd5b505afa1580156108c4573d6000803e3d6000fd5b505050506040513d601f19601f820116820180604052508101906108e89190614c5f565b604051631419b1c560e21b81526001600160a01b03841690635066c71490610916908b908b90600401614fb4565b60206040518083038186803b15801561092e57600080fd5b505afa158015610942573d6000803e3d6000fd5b505050506040513d601f19601f820116820180604052508101906109669190614c5f565b80610a6457506040516370a0823160e01b81526000906001600160a01b038516906370a082319061099b908b90600401614fa0565b60206040518083038186803b1580156109b357600080fd5b505afa1580156109c7573d6000803e3d6000fd5b505050506040513d601f19601f820116820180604052508101906109eb9190614c79565b118015610a645750876001600160a01b0316631780998b6040518163ffffffff1660e01b815260040160206040518083038186803b158015610a2c57600080fd5b505afa158015610a40573d6000803e3d6000fd5b505050506040513d601f19601f82011682018060405250810190610a649190614c5f565b935093509350509250925092565b60006060610a7e61476c565b604080516003808252608082019092526060918291879160009190602082018580368337505060408051600480825260a08201909252929350600092915060208201608080368337019050509050826001600160a01b031663bf1dcfe26040518163ffffffff1660e01b815260040160e06040518083038186803b158015610b0557600080fd5b505afa158015610b19573d6000803e3d6000fd5b505050506040513d601f19601f82011682018060405250810190610b3d9190614979565b9091929394955087600081518110610b5157fe5b6020026020010188600181518110610b6557fe5b6020026020010189600281518110610b7957fe5b6020026020010189600081518110610b8d57fe5b602002602001018a600181518110610ba157fe5b602002602001018b600281518110610bb557fe5b602090810291909101019590955294909352939092529215159092529115159091529015159052805160009082906001908110610bee57fe5b602002602001015160001415610c05576000610d04565b60008054906101000a90046001600160a01b03166001600160a01b0316633f2a55406040518163ffffffff1660e01b815260040160206040518083038186803b158015610c5157600080fd5b505afa158015610c65573d6000803e3d6000fd5b505050506040513d601f19601f82011682018060405250810190610c8991906148a3565b6001600160a01b0316639de9a0528b6040518263ffffffff1660e01b8152600401610cb49190614fa0565b60206040518083038186803b158015610ccc57600080fd5b505afa158015610ce0573d6000803e3d6000fd5b505050506040513d601f19601f82011682018060405250810190610d049190614df3565b6bffffffffffffffffffffffff169050836001600160a01b031663a30ca2046040518163ffffffff1660e01b815260040160206040518083038186803b158015610d4d57600080fd5b505afa158015610d61573d6000803e3d6000fd5b505050506040513d601f19601f82011682018060405250810190610d859190614c79565b82600381518110610d9257fe5b602002602001018181525050836001600160a01b0316631fe4a6866040518163ffffffff1660e01b815260040160206040518083038186803b158015610dd757600080fd5b505afa158015610deb573d6000803e3d6000fd5b505050506040513d601f19601f82011682018060405250810190610e0f91906148a3565b60008054906101000a90046001600160a01b03166001600160a01b031663d6a45aa56040518163ffffffff1660e01b815260040160206040518083038186803b158015610e5b57600080fd5b505afa158015610e6f573d6000803e3d6000fd5b505050506040513d601f19601f82011682018060405250810190610e9391906148a3565b6001600160a01b03166323b0e4158c6040518263ffffffff1660e01b8152600401610ebe9190614fa0565b60006040518083038186803b158015610ed657600080fd5b505afa158015610eea573d6000803e3d6000fd5b505050506040513d6000823e601f3d908101601f19168201604052610f129190810190614c91565b604051806101a00160405280876001600160a01b031663dd1033f86040518163ffffffff1660e01b815260040160206040518083038186803b158015610f5757600080fd5b505afa158015610f6b573d6000803e3d6000fd5b505050506040513d601f19601f82011682018060405250810190610f8f9190614c79565b8152602001876001600160a01b0316633a4b66f16040518163ffffffff1660e01b815260040160206040518083038186803b158015610fcd57600080fd5b505afa158015610fe1573d6000803e3d6000fd5b505050506040513d601f19601f820116820180604052508101906110059190614c79565b8152602001876001600160a01b031663d40244cb6040518163ffffffff1660e01b815260040160206040518083038186803b15801561104357600080fd5b505afa158015611057573d6000803e3d6000fd5b505050506040513d601f19601f8201168201806040525081019061107b9190614c79565b8152602001876001600160a01b031663449b98266040518163ffffffff1660e01b815260040160206040518083038186803b1580156110b957600080fd5b505afa1580156110cd573d6000803e3d6000fd5b505050506040513d601f19601f820116820180604052508101906110f19190614c79565b8152602001876001600160a01b03166303cddb2c6040518163ffffffff1660e01b815260040160206040518083038186803b15801561112f57600080fd5b505afa158015611143573d6000803e3d6000fd5b505050506040513d601f19601f820116820180604052508101906111679190614c79565b8152602001876001600160a01b03166303976e386040518163ffffffff1660e01b815260040160206040518083038186803b1580156111a557600080fd5b505afa1580156111b9573d6000803e3d6000fd5b505050506040513d601f19601f820116820180604052508101906111dd9190614c79565b8152602001876001600160a01b0316630fb5a6b46040518163ffffffff1660e01b815260040160206040518083038186803b15801561121b57600080fd5b505afa15801561122f573d6000803e3d6000fd5b505050506040513d601f19601f820116820180604052508101906112539190614c79565b8152602001876001600160a01b031663d3406abd6040518163ffffffff1660e01b815260040160206040518083038186803b15801561129157600080fd5b505afa1580156112a5573d6000803e3d6000fd5b505050506040513d601f19601f820116820180604052508101906112c99190614c79565b8152602001876001600160a01b03166393baae416040518163ffffffff1660e01b815260040160206040518083038186803b15801561130757600080fd5b505afa15801561131b573d6000803e3d6000fd5b505050506040513d601f19601f8201168201806040525081019061133f9190614c79565b8152602001876001600160a01b0316636db9cc996040518163ffffffff1660e01b815260040160206040518083038186803b15801561137d57600080fd5b505afa158015611391573d6000803e3d6000fd5b505050506040513d601f19601f820116820180604052508101906113b59190614c79565b8152602001876001600160a01b0316630126c6066040518163ffffffff1660e01b815260040160206040518083038186803b1580156113f357600080fd5b505afa158015611407573d6000803e3d6000fd5b505050506040513d601f19601f8201168201806040525081019061142b9190614c79565b8152602001848152602001876001600160a01b031663707cddfe6040518163ffffffff1660e01b815260040160206040518083038186803b15801561146f57600080fd5b505afa158015611483573d6000803e3d6000fd5b505050506040513d601f19601f820116820180604052508101906114a79190614c79565b9052919c909b50909950929750909550909350505050565b6040805160028082526060820183526000928592849290916020830190803683375050604051633d8270f560e01b8152919250506001600160a01b03831690633d8270f590611512908790600401614fa0565b6101406040518083038186803b15801561152b57600080fd5b505afa15801561153f573d6000803e3d6000fd5b505050506040513d601f19601f820116820180604052508101906115639190614d06565b5050885192975090955087945060009350501515905061157f57fe5b602002602001018360018151811061159357fe5b60200260200101828152508281525050506000816001815181106115b357fe5b6020026020010151116115c7576000611602565b611602816001815181106115d757fe5b6020026020010151826000815181106115ec57fe5b602002602001015161405590919063ffffffff16565b925050505b92915050565b60008060008060005b86518160ff161015611795576000878260ff168151811061163357fe5b60200260200101519050866001600160a01b0316816001600160a01b0316631fe4a6866040518163ffffffff1660e01b815260040160206040518083038186803b15801561168057600080fd5b505afa158015611694573d6000803e3d6000fd5b505050506040513d601f19601f820116820180604052508101906116b891906148a3565b6001600160a01b031614156116d5576116d284600161406d565b93505b6040517f950c78220000000000000000000000000000000000000000000000000000000081526000906001600160a01b0383169063950c78229061171d908b90600401614fa0565b60206040518083038186803b15801561173557600080fd5b505afa158015611749573d6000803e3d6000fd5b505050506040513d601f19601f8201168201806040525081019061176d9190614c79565b9050801561178b576117886117818261407d565b859061406d565b93505b5050600101611616565b50909590945092505050565b606080606060008490506000816001600160a01b031663dd1033f86040518163ffffffff1660e01b815260040160206040518083038186803b1580156117e657600080fd5b505afa1580156117fa573d6000803e3d6000fd5b505050506040513d601f19601f8201168201806040525081019061181e9190614c79565b905060008167ffffffffffffffff8111801561183957600080fd5b50604051908082528060200260200182016040528015611863578160200160208202803683370190505b50905060008267ffffffffffffffff8111801561187f57600080fd5b506040519080825280602002602001820160405280156118a9578160200160208202803683370190505b50905060008367ffffffffffffffff811180156118c557600080fd5b506040519080825280602002602001820160405280156118f957816020015b60608152602001906001900390816118e45790505b50905060005b848160ff161015611a08576040517f48a4beaa0000000000000000000000000000000000000000000000000000000081526001600160a01b038716906348a4beaa9061194f9084906004016152bf565b60006040518083038186803b15801561196757600080fd5b505afa15801561197b573d6000803e3d6000fd5b505050506040513d6000823e601f3d908101601f191682016040526119a39190810190614d79565b868460ff16815181106119b257fe5b60200260200101868560ff16815181106119c857fe5b60200260200101868660ff16815181106119de57fe5b60209081029190910101929092526001600160a01b03909216905260ff90911690526001016118ff565b5091989097509095509350505050565b60608060008060009054906101000a90046001600160a01b03166001600160a01b031663daec2a1a6040518163ffffffff1660e01b815260040160006040518083038186803b158015611a6a57600080fd5b505afa158015611a7e573d6000803e3d6000fd5b505050506040513d6000823e601f3d908101601f19168201604052611aa69190810190614a16565b604080516019808252610340820190925291925060009190602082016103208036833750506040805160198082526103408201909252929350600092915060208201610320803683370190505090506000865b8451811015611c2f576000611b21868381518110611b1357fe5b60200260200101518b610548565b505090508015611c2657858281518110611b3757fe5b6020026020010151858460ff1681518110611b4e57fe5b60200260200101906001600160a01b031690816001600160a01b0316815250506000868381518110611b7c57fe5b60200260200101516001600160a01b03166370a082318c6040518263ffffffff1660e01b8152600401611baf9190614fa0565b60206040518083038186803b158015611bc757600080fd5b505afa158015611bdb573d6000803e3d6000fd5b505050506040513d601f19601f82011682018060405250810190611bff9190614c79565b11848460ff1681518110611c0f57fe5b911515602092830291909101909101526001909201915b50600101611af9565b509197909650945050505050565b600080849050806001600160a01b03166377e7ff3c6040518163ffffffff1660e01b815260040160206040518083038186803b158015611c7c57600080fd5b505afa158015611c90573d6000803e3d6000fd5b505050506040513d601f19601f82011682018060405250810190611cb49190614c5f565b15611d3257846001600160a01b03166318160ddd6040518163ffffffff1660e01b815260040160206040518083038186803b158015611cf257600080fd5b505afa158015611d06573d6000803e3d6000fd5b505050506040513d601f19601f82011682018060405250810190611d2a9190614c79565b915050611e2b565b6000805b84811015611e2657600080611d6689898986818110611d5157fe5b90506020020160208101906102179190614887565b5091509150818015611d755750805b15611e1c57611e19896001600160a01b03166370a082318a8a87818110611d9857fe5b9050602002016020810190611dad9190614887565b6040518263ffffffff1660e01b8152600401611dc99190614fa0565b60206040518083038186803b158015611de157600080fd5b505afa158015611df5573d6000803e3d6000fd5b505050506040513d601f19601f820116820180604052508101906117819190614c79565b93505b5050600101611d36565b509150505b9392505050565b60008054604080517fc8ed947f000000000000000000000000000000000000000000000000000000008152905183928392879284926001600160a01b03169163c8ed947f916004808301926020929190829003018186803b158015611e9657600080fd5b505afa158015611eaa573d6000803e3d6000fd5b505050506040513d601f19601f82011682018060405250810190611ece91906148a3565b9050600080826001600160a01b03166370a08231896040518263ffffffff1660e01b8152600401611eff9190614fa0565b60206040518083038186803b158015611f1757600080fd5b505afa158015611f2b573d6000803e3d6000fd5b505050506040513d601f19601f82011682018060405250810190611f4f9190614c79565b119050816001600160a01b031663c7ec5d5d89896040518363ffffffff1660e01b8152600401611f80929190614fb4565b60206040518083038186803b158015611f9857600080fd5b505afa158015611fac573d6000803e3d6000fd5b505050506040513d601f19601f82011682018060405250810190611fd09190614c5f565b8061205157508080156120515750826001600160a01b031663550c2b7f6040518163ffffffff1660e01b815260040160206040518083038186803b15801561201757600080fd5b505afa15801561202b573d6000803e3d6000fd5b505050506040513d601f19601f8201168201806040525081019061204f9190614c5f565b155b6040516304d98fbf60e41b81529096506001600160a01b03831690634d98fbf090612082908b908b90600401614fb4565b60206040518083038186803b15801561209a57600080fd5b505afa1580156120ae573d6000803e3d6000fd5b505050506040513d601f19601f820116820180604052508101906120d29190614c5f565b8061215157508080156121515750826001600160a01b03166377e7ff3c6040518163ffffffff1660e01b815260040160206040518083038186803b15801561211957600080fd5b505afa15801561212d573d6000803e3d6000fd5b505050506040513d601f19601f820116820180604052508101906121519190614c5f565b604051631419b1c560e21b81529095506001600160a01b03831690635066c71490612182908b908b90600401614fb4565b60206040518083038186803b15801561219a57600080fd5b505afa1580156121ae573d6000803e3d6000fd5b505050506040513d601f19601f820116820180604052508101906121d29190614c5f565b8061225157508080156122515750826001600160a01b0316631780998b6040518163ffffffff1660e01b815260040160206040518083038186803b15801561221957600080fd5b505afa15801561222d573d6000803e3d6000fd5b505050506040513d601f19601f820116820180604052508101906122519190614c5f565b93505050509250925092565b60608061226861478b565b60006122726147a9565b60608061227d6147c7565b6122856147e6565b61228d614805565b8a60006122998261347f565b6040805160038082526080820190925291925060009190602082016060803683370190505090508d6001600160a01b03166318160ddd6040518163ffffffff1660e01b815260040160206040518083038186803b1580156122f957600080fd5b505afa15801561230d573d6000803e3d6000fd5b505050506040513d601f19601f820116820180604052508101906123319190614c79565b8160008151811061233e57fe5b60200260200101818152505060008160008151811061235957fe5b60200260200101511161236d5760006124de565b60008054906101000a90046001600160a01b03166001600160a01b031663294d237c6040518163ffffffff1660e01b815260040160206040518083038186803b1580156123b957600080fd5b505afa1580156123cd573d6000803e3d6000fd5b505050506040513d601f19601f820116820180604052508101906123f191906148a3565b6001600160a01b031663bc14773a8f856001600160a01b031663f85cb5c86040518163ffffffff1660e01b815260040160206040518083038186803b15801561243957600080fd5b505afa15801561244d573d6000803e3d6000fd5b505050506040513d601f19601f8201168201806040525081019061247191906148a3565b6040518363ffffffff1660e01b815260040161248e929190614fb4565b60206040518083038186803b1580156124a657600080fd5b505afa1580156124ba573d6000803e3d6000fd5b505050506040513d601f19601f820116820180604052508101906124de9190614c79565b816001815181106124eb57fe5b6020026020010181815250506125008e614094565b8160028151811061250d57fe5b60200260200101818152505060006125248f614196565b90508e6001600160a01b03166306fdde036040518163ffffffff1660e01b815260040160006040518083038186803b15801561255f57600080fd5b505afa158015612573573d6000803e3d6000fd5b505050506040513d6000823e601f3d908101601f1916820160405261259b9190810190614c91565b8f6001600160a01b03166395d89b416040518163ffffffff1660e01b815260040160006040518083038186803b1580156125d457600080fd5b505afa1580156125e8573d6000803e3d6000fd5b505050506040513d6000823e601f3d908101601f191682016040526126109190810190614c91565b6040518060a00160405280876001600160a01b03166302d05d3f6040518163ffffffff1660e01b815260040160206040518083038186803b15801561265457600080fd5b505afa158015612668573d6000803e3d6000fd5b505050506040513d601f19601f8201168201806040525081019061268c91906148a3565b6001600160a01b03166001600160a01b03168152602001876001600160a01b03166363f568b960006040518263ffffffff1660e01b81526004016126d091906151d1565b60206040518083038186803b1580156126e857600080fd5b505afa1580156126fc573d6000803e3d6000fd5b505050506040513d601f19601f8201168201806040525081019061272091906148a3565b6001600160a01b03166001600160a01b03168152602001876001600160a01b03166363f568b960016040518263ffffffff1660e01b815260040161276491906151d1565b60206040518083038186803b15801561277c57600080fd5b505afa158015612790573d6000803e3d6000fd5b505050506040513d601f19601f820116820180604052508101906127b491906148a3565b6001600160a01b03166001600160a01b03168152602001876001600160a01b03166363f568b960026040518263ffffffff1660e01b81526004016127f891906151d1565b60206040518083038186803b15801561281057600080fd5b505afa158015612824573d6000803e3d6000fd5b505050506040513d601f19601f8201168201806040525081019061284891906148a3565b6001600160a01b03166001600160a01b03168152602001876001600160a01b03166363f568b960036040518263ffffffff1660e01b815260040161288c91906151d1565b60206040518083038186803b1580156128a457600080fd5b505afa1580156128b8573d6000803e3d6000fd5b505050506040513d601f19601f820116820180604052508101906128dc91906148a3565b6001600160a01b03166001600160a01b0316815250866001600160a01b031663f85cb5c86040518163ffffffff1660e01b815260040160206040518083038186803b15801561292a57600080fd5b505afa15801561293e573d6000803e3d6000fd5b505050506040513d601f19601f8201168201806040525081019061296291906148a3565b60405180608001604052806001151515158152602001896001600160a01b031663550c2b7f6040518163ffffffff1660e01b815260040160206040518083038186803b1580156129b157600080fd5b505afa1580156129c5573d6000803e3d6000fd5b505050506040513d601f19601f820116820180604052508101906129e99190614c5f565b151515158152602001896001600160a01b0316631780998b6040518163ffffffff1660e01b815260040160206040518083038186803b158015612a2b57600080fd5b505afa158015612a3f573d6000803e3d6000fd5b505050506040513d601f19601f82011682018060405250810190612a639190614c5f565b151515158152602001896001600160a01b03166377e7ff3c6040518163ffffffff1660e01b815260040160206040518083038186803b158015612aa557600080fd5b505afa158015612ab9573d6000803e3d6000fd5b505050506040513d601f19601f82011682018060405250810190612add9190614c5f565b15151515815250886001600160a01b031663b49a60bb6040518163ffffffff1660e01b815260040160006040518083038186803b158015612b1d57600080fd5b505afa158015612b31573d6000803e3d6000fd5b505050506040513d6000823e601f3d908101601f19168201604052612b599190810190614a16565b896001600160a01b031663b304b8156040518163ffffffff1660e01b815260040160006040518083038186803b158015612b9257600080fd5b505afa158015612ba6573d6000803e3d6000fd5b505050506040513d6000823e601f3d908101601f19168201604052612bce9190810190614a16565b6040518061016001604052808c6001600160a01b0316637550ed186040518163ffffffff1660e01b815260040160206040518083038186803b158015612c1357600080fd5b505afa158015612c27573d6000803e3d6000fd5b505050506040513d601f19601f82011682018060405250810190612c4b9190614c79565b81526020018c6001600160a01b0316638bbde0fd6040518163ffffffff1660e01b815260040160206040518083038186803b158015612c8957600080fd5b505afa158015612c9d573d6000803e3d6000fd5b505050506040513d601f19601f82011682018060405250810190612cc19190614c79565b81526020018c6001600160a01b03166386fa50636040518163ffffffff1660e01b815260040160206040518083038186803b158015612cff57600080fd5b505afa158015612d13573d6000803e3d6000fd5b505050506040513d601f19601f82011682018060405250810190612d379190614c79565b81526020018c6001600160a01b031663b63c44e76040518163ffffffff1660e01b815260040160206040518083038186803b158015612d7557600080fd5b505afa158015612d89573d6000803e3d6000fd5b505050506040513d601f19601f82011682018060405250810190612dad9190614c79565b81526020018c6001600160a01b0316635a16656a6040518163ffffffff1660e01b815260040160206040518083038186803b158015612deb57600080fd5b505afa158015612dff573d6000803e3d6000fd5b505050506040513d601f19601f82011682018060405250810190612e239190614c79565b81526020018c6001600160a01b03166395cdbedb6040518163ffffffff1660e01b815260040160206040518083038186803b158015612e6157600080fd5b505afa158015612e75573d6000803e3d6000fd5b505050506040513d601f19601f82011682018060405250810190612e999190614c79565b81526020018c6001600160a01b031663297ce5986040518163ffffffff1660e01b815260040160206040518083038186803b158015612ed757600080fd5b505afa158015612eeb573d6000803e3d6000fd5b505050506040513d601f19601f82011682018060405250810190612f0f9190614c79565b81526020018c6001600160a01b0316633deddb3f6040518163ffffffff1660e01b815260040160206040518083038186803b158015612f4d57600080fd5b505afa158015612f61573d6000803e3d6000fd5b505050506040513d601f19601f82011682018060405250810190612f859190614c79565b81526020018c6001600160a01b031663aaffadf36040518163ffffffff1660e01b815260040160206040518083038186803b158015612fc357600080fd5b505afa158015612fd7573d6000803e3d6000fd5b505050506040513d601f19601f82011682018060405250810190612ffb9190614c79565b81526020018c6001600160a01b031663a63c643d6040518163ffffffff1660e01b815260040160206040518083038186803b15801561303957600080fd5b505afa15801561304d573d6000803e3d6000fd5b505050506040513d601f19601f820116820180604052508101906130719190614c79565b81526020016131618d6001600160a01b03166360d442ca6040518163ffffffff1660e01b815260040160206040518083038186803b1580156130b257600080fd5b505afa1580156130c6573d6000803e3d6000fd5b505050506040513d601f19601f820116820180604052508101906130ea9190614c79565b8e6001600160a01b031663a06931f96040518163ffffffff1660e01b815260040160206040518083038186803b15801561312357600080fd5b505afa158015613137573d6000803e3d6000fd5b505050506040513d601f19601f8201168201806040525081019061315b9190614c79565b9061406d565b8152506040518061012001604052808c81526020018d6001600160a01b031663b9e675396040518163ffffffff1660e01b815260040160206040518083038186803b1580156131af57600080fd5b505afa1580156131c3573d6000803e3d6000fd5b505050506040513d601f19601f820116820180604052508101906131e79190614c79565b81526020018d6001600160a01b031663792e42e26040518163ffffffff1660e01b815260040160206040518083038186803b15801561322557600080fd5b505afa158015613239573d6000803e3d6000fd5b505050506040513d601f19601f8201168201806040525081019061325d9190614c79565b81526020018d6001600160a01b031663cb12233b6040518163ffffffff1660e01b815260040160206040518083038186803b15801561329b57600080fd5b505afa1580156132af573d6000803e3d6000fd5b505050506040513d601f19601f820116820180604052508101906132d39190614c79565b81526020018d6001600160a01b031663f251fc8c6040518163ffffffff1660e01b815260040160206040518083038186803b15801561331157600080fd5b505afa158015613325573d6000803e3d6000fd5b505050506040513d601f19601f820116820180604052508101906133499190614c79565b81526020018d6001600160a01b0316638b0e9f3f6040518163ffffffff1660e01b815260040160206040518083038186803b15801561338757600080fd5b505afa15801561339b573d6000803e3d6000fd5b505050506040513d601f19601f820116820180604052508101906133bf9190614c79565b815260200160008c6001815181106133d357fe5b6020026020010151116133e7576000613422565b6134228c6001815181106133f757fe5b60200260200101518d60008151811061340c57fe5b602002602001015161429d90919063ffffffff16565b81526020018b60008151811061343457fe5b602002602001015181526020018b60028151811061344e57fe5b6020026020010151815250899d509d509d509d509d509d509d509d509d509d50505050509193959799509193959799565b6000808290506000816001600160a01b031663f85cb5c86040518163ffffffff1660e01b815260040160206040518083038186803b1580156134c057600080fd5b505afa1580156134d4573d6000803e3d6000fd5b505050506040513d601f19601f820116820180604052508101906134f891906148a3565b905060006135f2836001600160a01b031663b9e675396040518163ffffffff1660e01b815260040160206040518083038186803b15801561353857600080fd5b505afa15801561354c573d6000803e3d6000fd5b505050506040513d601f19601f820116820180604052508101906135709190614c79565b6040516370a0823160e01b81526001600160a01b038516906370a082319061359c908890600401614fa0565b60206040518083038186803b1580156135b457600080fd5b505afa1580156135c8573d6000803e3d6000fd5b505050506040513d601f19601f820116820180604052508101906135ec9190614c79565b906142b5565b905060008060009054906101000a90046001600160a01b03166001600160a01b031663313754776040518163ffffffff1660e01b815260040160206040518083038186803b15801561364357600080fd5b505afa158015613657573d6000803e3d6000fd5b505050506040513d601f19601f8201168201806040525081019061367b9190614c79565b90506000846001600160a01b031663b49a60bb6040518163ffffffff1660e01b815260040160006040518083038186803b1580156136b857600080fd5b505afa1580156136cc573d6000803e3d6000fd5b505050506040513d6000823e601f3d908101601f191682016040526136f49190810190614a16565b905060005b815181101561381e57600082828151811061371057fe5b60200260200101519050613813613798826001600160a01b03166303cddb2c6040518163ffffffff1660e01b815260040160206040518083038186803b15801561375957600080fd5b505afa15801561376d573d6000803e3d6000fd5b505050506040513d601f19601f820116820180604052508101906137919190614c79565b869061429d565b61315b836001600160a01b03166303cddb2c6040518163ffffffff1660e01b815260040160206040518083038186803b1580156137d457600080fd5b505afa1580156137e8573d6000803e3d6000fd5b505050506040513d601f19601f8201168201806040525081019061380c9190614c79565b889061406d565b9450506001016136f9565b506000856001600160a01b031663b304b8156040518163ffffffff1660e01b815260040160006040518083038186803b15801561385a57600080fd5b505afa15801561386e573d6000803e3d6000fd5b505050506040513d6000823e601f3d908101601f191682016040526138969190810190614a16565b905060005b815181101561394c5760008282815181106138b257fe5b6020026020010151905061394161393a826001600160a01b03166303cddb2c6040518163ffffffff1660e01b815260040160206040518083038186803b1580156138fb57600080fd5b505afa15801561390f573d6000803e3d6000fd5b505050506040513d601f19601f820116820180604052508101906139339190614c79565b879061429d565b879061406d565b95505060010161389b565b50613989866001600160a01b031663a06931f96040518163ffffffff1660e01b815260040160206040518083038186803b158015611de157600080fd5b93506000866001600160a01b031663792e42e26040518163ffffffff1660e01b815260040160206040518083038186803b1580156139c657600080fd5b505afa1580156139da573d6000803e3d6000fd5b505050506040513d601f19601f820116820180604052508101906139fe9190614c79565b90506000811315613a1a57613a1385826142b5565b9450613a2b565b613a2885600083900361406d565b94505b5092955050505050505b919050565b60408051600a8082526101608201909252606091829185916000919060208201610140803683375050604051633d8270f560e01b8152919250506001600160a01b03831690633d8270f590613a93908890600401614fa0565b6101406040518083038186803b158015613aac57600080fd5b505afa158015613ac0573d6000803e3d6000fd5b505050506040513d601f19601f82011682018060405250810190613ae49190614d06565b508951909250899150600090613af657fe5b6020026020010188600181518110613b0a57fe5b6020026020010189600281518110613b1e57fe5b602002602001018a600381518110613b3257fe5b602002602001018b600481518110613b4657fe5b602002602001018c600581518110613b5a57fe5b602002602001018d600881518110613b6e57fe5b60209081029190910101969096529590945294909352939052929052919052526040516370a0823160e01b81526001600160a01b038716906370a0823190613bba908890600401614fa0565b60206040518083038186803b158015613bd257600080fd5b505afa158015613be6573d6000803e3d6000fd5b505050506040513d601f19601f82011682018060405250810190613c0a9190614c79565b81600681518110613c1757fe5b60209081029190910101526040517fc40868930000000000000000000000000000000000000000000000000000000081526001600160a01b0383169063c408689390613c67908890600401614fa0565b60206040518083038186803b158015613c7f57600080fd5b505afa158015613c93573d6000803e3d6000fd5b505050506040513d601f19601f82011682018060405250810190613cb79190614c79565b81600781518110613cc457fe5b60200260200101818152505060008060009054906101000a90046001600160a01b03166001600160a01b0316633f2a55406040518163ffffffff1660e01b815260040160206040518083038186803b158015613d1f57600080fd5b505afa158015613d33573d6000803e3d6000fd5b505050506040513d601f19601f82011682018060405250810190613d5791906148a3565b6001600160a01b03166369795e938888866001600160a01b031663b304b8156040518163ffffffff1660e01b815260040160006040518083038186803b158015613da057600080fd5b505afa158015613db4573d6000803e3d6000fd5b505050506040513d6000823e601f3d908101601f19168201604052613ddc9190810190614a16565b6040518463ffffffff1660e01b8152600401613dfa93929190614fce565b60006040518083038186803b158015613e1257600080fd5b505afa158015613e26573d6000803e3d6000fd5b505050506040513d6000823e601f3d908101601f19168201604052613e4e9190810190614bdb565b9050613e5a87876114bf565b82600981518110613e6757fe5b602090810291909101015290969095509350505050565b6000546001600160a01b031681565b6000816001600160a01b0316836001600160a01b03161415613ebd57506c0c9f2c9cd04674edea40000000611607565b6000613ec984846142c5565b5090506000816001600160a01b0316631a6865026040518163ffffffff1660e01b815260040160206040518083038186803b158015613f0757600080fd5b505afa158015613f1b573d6000803e3d6000fd5b505050506040513d601f19601f82011682018060405250810190613f3f9190614cdf565b6001600160801b03169050600061404b836001600160a01b0316630dfe16816040518163ffffffff1660e01b815260040160206040518083038186803b158015613f8857600080fd5b505afa158015613f9c573d6000803e3d6000fd5b505050506040513d601f19601f82011682018060405250810190613fc091906148a3565b6001600160a01b03166370a08231856040518263ffffffff1660e01b8152600401613feb9190614fa0565b60206040518083038186803b15801561400357600080fd5b505afa158015614017573d6000803e3d6000fd5b505050506040513d601f19601f8201168201806040525081019061403b9190614c79565b61404584806146c7565b906146eb565b9695505050505050565b6000611e2b8261404585670de0b6b3a76400006146c7565b8082018281101561160757600080fd5b6000808212156140905781600003611607565b5090565b60008060009054906101000a90046001600160a01b03166001600160a01b031663ead4c1cf6040518163ffffffff1660e01b815260040160206040518083038186803b1580156140e357600080fd5b505afa1580156140f7573d6000803e3d6000fd5b505050506040513d601f19601f8201168201806040525081019061411b91906148a3565b6001600160a01b031663181df307836040518263ffffffff1660e01b81526004016141469190614fa0565b60206040518083038186803b15801561415e57600080fd5b505afa158015614172573d6000803e3d6000fd5b505050506040513d601f19601f820116820180604052508101906116079190614c79565b61419e614805565b60008054906101000a90046001600160a01b03166001600160a01b0316633f2a55406040518163ffffffff1660e01b815260040160206040518083038186803b1580156141ea57600080fd5b505afa1580156141fe573d6000803e3d6000fd5b505050506040513d601f19601f8201168201806040525081019061422291906148a3565b6001600160a01b031663070e8a4a836040518263ffffffff1660e01b815260040161424d9190614fa0565b60606040518083038186803b15801561426557600080fd5b505afa158015614279573d6000803e3d6000fd5b505050506040513d601f19601f820116820180604052508101906116079190614b5f565b6000611e2b670de0b6b3a764000061404585856146c7565b8082038281111561160757600080fd5b604051630b4c774160e11b815260009081908190731f98431c8ad98523631ae4a59f267346ea31f98490631698ee829061430990889088906101f490600401615003565b60206040518083038186803b15801561432157600080fd5b505afa158015614335573d6000803e3d6000fd5b505050506040513d601f19601f8201168201806040525081019061435991906148a3565b604051630b4c774160e11b8152909150600090731f98431c8ad98523631ae4a59f267346ea31f98490631698ee829061439c9089908990610bb890600401615003565b60206040518083038186803b1580156143b457600080fd5b505afa1580156143c8573d6000803e3d6000fd5b505050506040513d601f19601f820116820180604052508101906143ec91906148a3565b604051630b4c774160e11b8152909150600090731f98431c8ad98523631ae4a59f267346ea31f98490631698ee829061442f908a908a9061271090600401615003565b60206040518083038186803b15801561444757600080fd5b505afa15801561445b573d6000803e3d6000fd5b505050506040513d601f19601f8201168201806040525081019061447f91906148a3565b905060006001600160a01b038416614498576000614509565b836001600160a01b0316631a6865026040518163ffffffff1660e01b815260040160206040518083038186803b1580156144d157600080fd5b505afa1580156144e5573d6000803e3d6000fd5b505050506040513d601f19601f820116820180604052508101906145099190614cdf565b905060006001600160a01b038416614522576000614593565b836001600160a01b0316631a6865026040518163ffffffff1660e01b815260040160206040518083038186803b15801561455b57600080fd5b505afa15801561456f573d6000803e3d6000fd5b505050506040513d601f19601f820116820180604052508101906145939190614cdf565b905060006001600160a01b0384166145ac57600061461d565b836001600160a01b0316631a6865026040518163ffffffff1660e01b815260040160206040518083038186803b1580156145e557600080fd5b505afa1580156145f9573d6000803e3d6000fd5b505050506040513d601f19601f8201168201806040525081019061461d9190614cdf565b9050816001600160801b0316836001600160801b03161180156146525750806001600160801b0316836001600160801b031610155b1561466a57856101f497509750505050505050610541565b826001600160801b0316826001600160801b031611801561469d5750806001600160801b0316826001600160801b031610155b156146b55784610bb897509750505050505050610541565b50919861271098509650505050505050565b60008215806146e2575050818102818382816146df57fe5b04145b61160757600080fd5b600080821161475b57604080517f08c379a000000000000000000000000000000000000000000000000000000000815260206004820152601a60248201527f536166654d6174683a206469766973696f6e206279207a65726f000000000000604482015290519081900360640190fd5b81838161476457fe5b049392505050565b604051806101a00160405280600d906020820280368337509192915050565b6040518060a001604052806005906020820280368337509192915050565b60405180608001604052806004906020820280368337509192915050565b604051806101600160405280600b906020820280368337509192915050565b6040518061012001604052806009906020820280368337509192915050565b60405180606001604052806003906020820280368337509192915050565b600067ffffffffffffffff83111561483757fe5b61484a601f8401601f19166020016152cd565b905082815283838301111561485e57600080fd5b611e2b83602083018461530f565b8035613a358161533b565b80518015158114613a3557600080fd5b600060208284031215614898578081fd5b8135611e2b8161533b565b6000602082840312156148b4578081fd5b8151611e2b8161533b565b600080604083850312156148d1578081fd5b82356148dc8161533b565b915060208301356148ec8161533b565b809150509250929050565b60008060006040848603121561490b578081fd5b83356149168161533b565b9250602084013567ffffffffffffffff80821115614932578283fd5b818601915086601f830112614945578283fd5b813581811115614953578384fd5b8760208083028501011115614966578384fd5b6020830194508093505050509250925092565b600080600080600080600060e0888a031215614993578485fd5b875161499e8161533b565b96506149ac60208901614877565b95506149ba60408901614877565b94506149c860608901614877565b93506080880151925060a0880151915060c0880151905092959891949750929550565b600080604083850312156149fd578182fd5b8235614a088161533b565b946020939093013593505050565b60006020808385031215614a28578182fd5b825167ffffffffffffffff811115614a3e578283fd5b8301601f81018513614a4e578283fd5b8051614a61614a5c826152f1565b6152cd565b8181528381019083850185840285018601891015614a7d578687fd5b8694505b83851015614aa8578051614a948161533b565b835260019490940193918501918501614a81565b50979650505050505050565b60008060408385031215614ac6578182fd5b823567ffffffffffffffff811115614adc578283fd5b8301601f81018513614aec578283fd5b80356020614afc614a5c836152f1565b82815281810190848301838502860184018a1015614b18578788fd5b8795505b84861015614b43578035614b2f8161533b565b835260019590950194918301918301614b1c565b509550614b53905086820161486c565b93505050509250929050565b600060608284031215614b70578081fd5b82601f830112614b7e578081fd5b6040516060810181811067ffffffffffffffff82111715614b9b57fe5b604052808360608101861015614baf578384fd5b835b6003811015614bd0578151835260209283019290910190600101614bb1565b509195945050505050565b60006020808385031215614bed578182fd5b825167ffffffffffffffff811115614c03578283fd5b8301601f81018513614c13578283fd5b8051614c21614a5c826152f1565b8181528381019083850185840285018601891015614c3d578687fd5b8694505b83851015614aa8578051835260019490940193918501918501614c41565b600060208284031215614c70578081fd5b611e2b82614877565b600060208284031215614c8a578081fd5b5051919050565b600060208284031215614ca2578081fd5b815167ffffffffffffffff811115614cb8578182fd5b8201601f81018413614cc8578182fd5b614cd784825160208401614823565b949350505050565b600060208284031215614cf0578081fd5b81516001600160801b0381168114611e2b578182fd5b6000806000806000806000806000806101408b8d031215614d25578384fd5b8a51995060208b0151985060408b0151975060608b0151965060808b0151955060a08b0151945060c08b0151935060e08b015192506101008b015191506101208b015190509295989b9194979a5092959850565b600080600060608486031215614d8d578081fd5b835160ff81168114614d9d578182fd5b6020850151909350614dae8161533b565b604085015190925067ffffffffffffffff811115614dca578182fd5b8401601f81018613614dda578182fd5b614de986825160208401614823565b9150509250925092565b600060208284031215614e04578081fd5b81516bffffffffffffffffffffffff81168114611e2b578182fd5b6001600160a01b0316815260200190565b6001600160a01b03169052565b6000815180845260208085019450808401835b83811015614e755781516001600160a01b031687529582019590820190600101614e50565b509495945050505050565b8060005b6004811015614ea55781511515845260209384019390910190600101614e84565b50505050565b6000815180845260208085019450808401835b83811015614e75578151151587529582019590820190600101614ebe565b8060005b600b811015614ea5578151845260209384019390910190600101614ee0565b8060005b6003811015614ea5578151845260209384019390910190600101614f03565b8060005b6009811015614ea5578151845260209384019390910190600101614f26565b6000815180845260208085019450808401835b83811015614e7557815187529582019590820190600101614f58565b60008151808452614f8c81602086016020860161530f565b601f01601f19169290920160200192915050565b6001600160a01b0391909116815260200190565b6001600160a01b0392831681529116602082015260400190565b60006001600160a01b03808616835280851660208401525060606040830152614ffa6060830184614e3d565b95945050505050565b6001600160a01b03938416815291909216602082015262ffffff909116604082015260600190565b60006102206001600160a01b03881683526020818185015261504f82850189614f74565b91506040840187845b600d81101561507557815183529183019190830190600101615058565b505050508281036101e084015261508c8186614eab565b90508281036102008401526150a18185614f45565b98975050505050505050565b6000604082526150c06040830185614e3d565b8281036020840152614ffa8185614eab565b6000604082526150e56040830185614f45565b8281036020840152614ffa8185614f45565b606080825284519082018190526000906020906080840190828801845b8281101561513357815160ff1684529284019290840190600101615114565b505050838103828501526151478187614e3d565b848103604086015285518082529091508282019083810283018401848801865b8381101561519557601f19868403018552615183838351614f74565b94870194925090860190600101615167565b50909a9950505050505050505050565b91151582521515602082015260400190565b921515835290151560208301521515604082015260600190565b90815260200190565b60006104a08083526151ee8184018e614f74565b9050602083820381850152615203828e614f74565b9150604084018c845b600581101561522e57615220838351614e1f565b92509083019060010161520c565b5050505061523f60e084018b614e30565b61524d61010084018a614e80565b8281036101808401526152608189614e3d565b90508281036101a08401526152758188614e3d565b9150506152866101c0830186614edc565b615294610320830185614f22565b6152a2610440830184614eff565b9b9a5050505050505050505050565b918252602082015260400190565b60ff91909116815260200190565b60405181810167ffffffffffffffff811182821017156152e957fe5b604052919050565b600067ffffffffffffffff82111561530557fe5b5060209081020190565b60005b8381101561532a578181015183820152602001615312565b83811115614ea55750506000910152565b6001600160a01b038116811461535057600080fd5b5056fea264697066735822122043686cabbc563ecef4aa39a9a8d921e92ac9c8d42f7e07d97b620774ca25cbb364736f6c63430007060033",
  "devdoc": {
    "author": "Babylon Finance Class that holds common view functions to retrieve garden information effectively",
    "kind": "dev",
    "methods": {
      "getCompleteStrategy(address)": {
        "params": {
          "_strategy": "Address of the strategy to fetch"
        },
        "returns": {
          "_0": "All strategy details"
        }
      },
      "getGardenDetails(address)": {
        "params": {
          "_garden": "Address of the garden to fetch"
        },
        "returns": {
          "_0": "Garden complete details"
        }
      },
      "getGardenPrincipal(address)": {
        "params": {
          "_garden": "Address of the garden to fetch"
        },
        "returns": {
          "_0": "Garden principal"
        }
      },
      "getPotentialVotes(address,address[])": {
        "params": {
          "_garden": "Garden to retrieve votes for",
          "_members": "All members of a garden"
        },
        "returns": {
          "_0": "uint256 Total number of tokens that can vote"
        }
      }
    },
    "title": "BabylonViewer",
    "version": 1
  },
  "userdoc": {
    "kind": "user",
    "methods": {
      "getCompleteStrategy(address)": {
        "notice": "Gets complete strategy details"
      },
      "getGardenDetails(address)": {
        "notice": "Gets garden details"
      },
      "getGardenPrincipal(address)": {
        "notice": "Gets garden principal"
      },
      "getPotentialVotes(address,address[])": {
        "notice": "Gets the number of tokens that can vote in this garden"
      }
    },
    "version": 1
  },
  "storageLayout": {
    "storage": [
      {
        "astId": 10613,
        "contract": "contracts/BabylonViewer.sol:BabylonViewer",
        "label": "controller",
        "offset": 0,
        "slot": "0",
        "type": "t_contract(IBabController)33589"
      }
    ],
    "types": {
      "t_contract(IBabController)33589": {
        "encoding": "inplace",
        "label": "contract IBabController",
        "numberOfBytes": "20"
      }
    }
  }
}