{
  "address": "0xfa40f8ed1aA170a6D8E52a8eD085EcDEa42E325a",
  "abi": [
    {
      "inputs": [
        {
          "internalType": "contract IBabController",
          "name": "_controller",
          "type": "address"
        }
      ],
      "stateMutability": "nonpayable",
      "type": "constructor"
    },
    {
      "inputs": [],
      "name": "controller",
      "outputs": [
        {
          "internalType": "contract IBabController",
          "name": "",
          "type": "address"
        }
      ],
      "stateMutability": "view",
      "type": "function"
    },
    {
      "inputs": [
        {
          "internalType": "address",
          "name": "_strategy",
          "type": "address"
        }
      ],
      "name": "getCompleteStrategy",
      "outputs": [
        {
          "internalType": "address",
          "name": "",
          "type": "address"
        },
        {
          "internalType": "string",
          "name": "",
          "type": "string"
        },
        {
          "internalType": "uint256[12]",
          "name": "",
          "type": "uint256[12]"
        },
        {
          "internalType": "bool[]",
          "name": "",
          "type": "bool[]"
        },
        {
          "internalType": "uint256[]",
          "name": "",
          "type": "uint256[]"
        }
      ],
      "stateMutability": "view",
      "type": "function"
    },
    {
      "inputs": [
        {
          "internalType": "address",
          "name": "_garden",
          "type": "address"
        },
        {
          "internalType": "address",
          "name": "_user",
          "type": "address"
        }
      ],
      "name": "getContributionAndRewards",
      "outputs": [
        {
          "internalType": "uint256[]",
          "name": "",
          "type": "uint256[]"
        },
        {
          "internalType": "uint256[]",
          "name": "",
          "type": "uint256[]"
        }
      ],
      "stateMutability": "view",
      "type": "function"
    },
    {
      "inputs": [
        {
          "internalType": "address",
          "name": "_garden",
          "type": "address"
        }
      ],
      "name": "getGardenDetails",
      "outputs": [
        {
          "internalType": "string",
          "name": "",
          "type": "string"
        },
        {
          "internalType": "string",
          "name": "",
          "type": "string"
        },
        {
          "internalType": "address",
          "name": "",
          "type": "address"
        },
        {
          "internalType": "address",
          "name": "",
          "type": "address"
        },
        {
          "internalType": "bool[4]",
          "name": "",
          "type": "bool[4]"
        },
        {
          "internalType": "address[]",
          "name": "",
          "type": "address[]"
        },
        {
          "internalType": "address[]",
          "name": "",
          "type": "address[]"
        },
        {
          "internalType": "uint256[10]",
          "name": "",
          "type": "uint256[10]"
        },
        {
          "internalType": "uint256[9]",
          "name": "",
          "type": "uint256[9]"
        },
        {
          "internalType": "uint256[3]",
          "name": "",
          "type": "uint256[3]"
        }
      ],
      "stateMutability": "view",
      "type": "function"
    },
    {
      "inputs": [
        {
          "internalType": "address",
          "name": "_garden",
          "type": "address"
        },
        {
          "internalType": "address",
          "name": "_user",
          "type": "address"
        }
      ],
      "name": "getGardenPermissions",
      "outputs": [
        {
          "internalType": "bool",
          "name": "",
          "type": "bool"
        },
        {
          "internalType": "bool",
          "name": "",
          "type": "bool"
        },
        {
          "internalType": "bool",
          "name": "",
          "type": "bool"
        }
      ],
      "stateMutability": "view",
      "type": "function"
    },
    {
      "inputs": [
        {
          "internalType": "address",
          "name": "_garden",
          "type": "address"
        },
        {
          "internalType": "address",
          "name": "_user",
          "type": "address"
        }
      ],
      "name": "getGardenUserAvgPricePerShare",
      "outputs": [
        {
          "internalType": "uint256",
          "name": "",
          "type": "uint256"
        }
      ],
      "stateMutability": "view",
      "type": "function"
    },
    {
      "inputs": [
        {
          "internalType": "address",
          "name": "_user",
          "type": "address"
        },
        {
          "internalType": "uint256",
          "name": "_offset",
          "type": "uint256"
        }
      ],
      "name": "getGardensUser",
      "outputs": [
        {
          "internalType": "address[]",
          "name": "",
          "type": "address[]"
        },
        {
          "internalType": "bool[]",
          "name": "",
          "type": "bool[]"
        }
      ],
      "stateMutability": "view",
      "type": "function"
    },
    {
      "inputs": [
        {
          "internalType": "address",
          "name": "_strategy",
          "type": "address"
        }
      ],
      "name": "getOperationsStrategy",
      "outputs": [
        {
          "internalType": "uint8[]",
          "name": "",
          "type": "uint8[]"
        },
        {
          "internalType": "address[]",
          "name": "",
          "type": "address[]"
        },
        {
          "internalType": "bytes[]",
          "name": "",
          "type": "bytes[]"
        }
      ],
      "stateMutability": "view",
      "type": "function"
    },
    {
      "inputs": [
        {
          "internalType": "address",
          "name": "_user",
          "type": "address"
        }
      ],
      "name": "getPermissions",
      "outputs": [
        {
          "internalType": "bool",
          "name": "",
          "type": "bool"
        },
        {
          "internalType": "bool",
          "name": "",
          "type": "bool"
        }
      ],
      "stateMutability": "view",
      "type": "function"
    },
    {
      "inputs": [
        {
          "internalType": "address[]",
          "name": "_strategies",
          "type": "address[]"
        },
        {
          "internalType": "address",
          "name": "_user",
          "type": "address"
        }
      ],
      "name": "getUserStrategyActions",
      "outputs": [
        {
          "internalType": "uint256",
          "name": "",
          "type": "uint256"
        },
        {
          "internalType": "uint256",
          "name": "",
          "type": "uint256"
        }
      ],
      "stateMutability": "view",
      "type": "function"
    }
  ],
  "transactionHash": "0x1c02166cc681cfaf470dc4fa3e380abde189d3f846aa31554bcdd0c8586b8024",
  "args": [
    "0xD4a5b5fcB561dAF3aDF86F8477555B92FBa43b5F"
  ],
  "solcInputHash": "c1f525c5f5ec5d756d5e07b589917725",
  "bytecode": "0x60806040523480156200001157600080fd5b5060405162003df238038062003df283398101604081905262000034916200008c565b6001600160a01b038116620000665760405162461bcd60e51b81526004016200005d90620000bc565b60405180910390fd5b600080546001600160a01b0319166001600160a01b0392909216919091179055620000f3565b6000602082840312156200009e578081fd5b81516001600160a01b0381168114620000b5578182fd5b9392505050565b60208082526015908201527f436f6e74726f6c6c6572206d7573742065786973740000000000000000000000604082015260600190565b613cef80620001036000396000f3fe608060405234801561001057600080fd5b50600436106100be5760003560e01c8063a63037da11610076578063d005ce5c1161005b578063d005ce5c146101b7578063ede1209e146101e0578063f77c479114610201576100be565b8063a63037da14610174578063b105b04414610196576100be565b80635dcb4959116100a75780635dcb49591461010f578063932a6942146101335780639ab0542614610153576100be565b8063160a7925146100c35780634c038f20146100ed575b600080fd5b6100d66100d1366004613308565b610216565b6040516100e4929190613b12565b60405180910390f35b6101006100fb366004613340565b6103a7565b6040516100e493929190613b24565b61012261011d366004613308565b610903565b6040516100e4959493929190613998565b610146610141366004613340565b6112d8565b6040516100e49190613c0e565b6101666101613660046134b3565b611426565b6040516100e4929190613c17565b610187610182366004613308565b6115ba565b6040516100e493929190613a64565b6101a96101a43660046133ea565b611831565b6040516100e4929190613a1a565b6101ca6101c5366004613308565b611ae8565b6040516100e49a99989796959493929190613b3e565b6101f36101ee366004613340565b612a74565b6040516100e4929190613a3f565b610209612eb8565b6040516100e49190613935565b60008060008060009054906101000a90046001600160a01b03166001600160a01b031663c8ed947f6040518163ffffffff1660e01b815260040160206040518083038186803b15801561026857600080fd5b505afa15801561027c573d6000803e3d6000fd5b505050506040513d601f19601f820116820180604052508101906102a09190613324565b90506000816001600160a01b03166370a08231866040518263ffffffff1660e01b81526004016102d09190613935565b60206040518083038186803b1580156102e857600080fd5b505afa1580156102fc573d6000803e3d6000fd5b505050506040513d601f19601f820116820180604052508101906103209190613678565b11816001600160a01b0316637804a5dc866040518263ffffffff1660e01b815260040161034d9190613935565b60206040518083038186803b15801561036557600080fd5b505afa158015610379573d6000803e3d6000fd5b505050506040513d601f19601f8201168201806040525081019061039d919061365e565b9250925050915091565b60008060008060008054906101000a90046001600160a01b03166001600160a01b031663c8ed947f6040518163ffffffff1660e01b815260040160206040518083038186803b1580156103f957600080fd5b505afa15801561040d573d6000803e3d6000fd5b505050506040513d601f19601f820116820180604052508101906104319190613324565b6040517fc7ec5d5d0000000000000000000000000000000000000000000000000000000081529091506001600160a01b0382169063c7ec5d5d9061047b9089908990600401613949565b60206040518083038186803b15801561049357600080fd5b505afa1580156104a7573d6000803e3d6000fd5b505050506040513d601f19601f820116820180604052508101906104cb919061365e565b806105cb57506040516370a0823160e01b81526000906001600160a01b038316906370a0823190610500908990600401613935565b60206040518083038186803b15801561051857600080fd5b505afa15801561052c573d6000803e3d6000fd5b505050506040513d601f19601f820116820180604052508101906105509190613678565b1180156105cb5750856001600160a01b031663550c2b7f6040518163ffffffff1660e01b815260040160206040518083038186803b15801561059157600080fd5b505afa1580156105a5573d6000803e3d6000fd5b505050506040513d601f19601f820116820180604052508101906105c9919061365e565b155b6040517f4d98fbf00000000000000000000000000000000000000000000000000000000081526001600160a01b03831690634d98fbf090610612908a908a90600401613949565b60206040518083038186803b15801561062a57600080fd5b505afa15801561063e573d6000803e3d6000fd5b505050506040513d601f19601f82011682018060405250810190610662919061365e565b8061076057506040516370a0823160e01b81526000906001600160a01b038416906370a0823190610697908a90600401613935565b60206040518083038186803b1580156106af57600080fd5b505afa1580156106c3573d6000803e3d6000fd5b505050506040513d601f19601f820116820180604052508101906106e79190613678565b1180156107605750866001600160a01b03166377e7ff3c6040518163ffffffff1660e01b815260040160206040518083038186803b15801561072857600080fd5b505afa15801561073c573d6000803e3d6000fd5b505050506040513d601f19601f82011682018060405250810190610760919061365e565b6040517f5066c7140000000000000000000000000000000000000000000000000000000081526001600160a01b03841690635066c714906107a7908b908b90600401613949565b60206040518083038186803b1580156107bf57600080fd5b505afa1580156107d3573d6000803e3d6000fd5b505050506040513d601f19601f820116820180604052508101906107f7919061365e565b806108f557506040516370a0823160e01b81526000906001600160a01b038516906370a082319061082c908b90600401613935565b60206040518083038186803b15801561084457600080fd5b505afa158015610858573d6000803e3d6000fd5b505050506040513d601f19601f8201168201806040525081019061087c9190613678565b1180156108f55750876001600160a01b0316631780998b6040518163ffffffff1660e01b815260040160206040518083038186803b1580156108bd57600080fd5b505afa1580156108d1573d6000803e3d6000fd5b505050506040513d601f19601f820116820180604052508101906108f5919061365e565b935093509350509250925092565b6000606061090f61320b565b604080516003808252608082019092526060918291879160009190602082018580368337505060408051600480825260a08201909252929350600092915060208201608080368337019050509050826001600160a01b031663bf1dcfe26040518163ffffffff1660e01b815260040160e06040518083038186803b15801561099657600080fd5b505afa1580156109aa573d6000803e3d6000fd5b505050506040513d601f19601f820116820180604052508101906109ce9190613378565b90919293949550876000815181106109e257fe5b60200260200101886001815181106109f657fe5b6020026020010189600281518110610a0a57fe5b6020026020010189600081518110610a1e57fe5b602002602001018a600181518110610a3257fe5b602002602001018b600281518110610a4657fe5b602090810291909101019590955294909352939092529215159092529115159091529015159052805160009082906001908110610a7f57fe5b602002602001015160001415610a96576000610b95565b60008054906101000a90046001600160a01b03166001600160a01b0316633f2a55406040518163ffffffff1660e01b815260040160206040518083038186803b158015610ae257600080fd5b505afa158015610af6573d6000803e3d6000fd5b505050506040513d601f19601f82011682018060405250810190610b1a9190613324565b6001600160a01b0316639de9a0528b6040518263ffffffff1660e01b8152600401610b459190613935565b60206040518083038186803b158015610b5d57600080fd5b505afa158015610b71573d6000803e3d6000fd5b505050506040513d601f19601f82011682018060405250810190610b9591906137cb565b6bffffffffffffffffffffffff169050836001600160a01b031663a30ca2046040518163ffffffff1660e01b815260040160206040518083038186803b158015610bde57600080fd5b505afa158015610bf2573d6000803e3d6000fd5b505050506040513d601f19601f82011682018060405250810190610c169190613678565b82600381518110610c2357fe5b602002602001018181525050836001600160a01b0316631fe4a6866040518163ffffffff1660e01b815260040160206040518083038186803b158015610c6857600080fd5b505afa158015610c7c573d6000803e3d6000fd5b505050506040513d601f19601f82011682018060405250810190610ca09190613324565b60008054906101000a90046001600160a01b03166001600160a01b031663d6a45aa56040518163ffffffff1660e01b815260040160206040518083038186803b158015610cec57600080fd5b505afa158015610d00573d6000803e3d6000fd5b505050506040513d601f19601f82011682018060405250810190610d249190613324565b6001600160a01b03166323b0e4158c6040518263ffffffff1660e01b8152600401610d4f9190613935565b60006040518083038186803b158015610d6757600080fd5b505afa158015610d7b573d6000803e3d6000fd5b505050506040513d6000823e601f3d908101601f19168201604052610da39190810190613690565b604051806101800160405280876001600160a01b031663dd1033f86040518163ffffffff1660e01b815260040160206040518083038186803b158015610de857600080fd5b505afa158015610dfc573d6000803e3d6000fd5b505050506040513d601f19601f82011682018060405250810190610e209190613678565b8152602001876001600160a01b0316633a4b66f16040518163ffffffff1660e01b815260040160206040518083038186803b158015610e5e57600080fd5b505afa158015610e72573d6000803e3d6000fd5b505050506040513d601f19601f82011682018060405250810190610e969190613678565b8152602001876001600160a01b031663d40244cb6040518163ffffffff1660e01b815260040160206040518083038186803b158015610ed457600080fd5b505afa158015610ee8573d6000803e3d6000fd5b505050506040513d601f19601f82011682018060405250810190610f0c9190613678565b8152602001876001600160a01b031663449b98266040518163ffffffff1660e01b815260040160206040518083038186803b158015610f4a57600080fd5b505afa158015610f5e573d6000803e3d6000fd5b505050506040513d601f19601f82011682018060405250810190610f829190613678565b8152602001876001600160a01b03166303cddb2c6040518163ffffffff1660e01b815260040160206040518083038186803b158015610fc057600080fd5b505afa158015610fd4573d6000803e3d6000fd5b505050506040513d601f19601f82011682018060405250810190610ff89190613678565b8152602001876001600160a01b03166303976e386040518163ffffffff1660e01b815260040160206040518083038186803b15801561103657600080fd5b505afa15801561104a573d6000803e3d6000fd5b505050506040513d601f19601f8201168201806040525081019061106e9190613678565b8152602001876001600160a01b0316630fb5a6b46040518163ffffffff1660e01b815260040160206040518083038186803b1580156110ac57600080fd5b505afa1580156110c0573d6000803e3d6000fd5b505050506040513d601f19601f820116820180604052508101906110e49190613678565b8152602001876001600160a01b031663d3406abd6040518163ffffffff1660e01b815260040160206040518083038186803b15801561112257600080fd5b505afa158015611136573d6000803e3d6000fd5b505050506040513d601f19601f8201168201806040525081019061115a9190613678565b8152602001876001600160a01b03166393baae416040518163ffffffff1660e01b815260040160206040518083038186803b15801561119857600080fd5b505afa1580156111ac573d6000803e3d6000fd5b505050506040513d601f19601f820116820180604052508101906111d09190613678565b8152602001876001600160a01b0316636db9cc996040518163ffffffff1660e01b815260040160206040518083038186803b15801561120e57600080fd5b505afa158015611222573d6000803e3d6000fd5b505050506040513d601f19601f820116820180604052508101906112469190613678565b8152602001876001600160a01b0316630126c6066040518163ffffffff1660e01b815260040160206040518083038186803b15801561128457600080fd5b505afa158015611298573d6000803e3d6000fd5b505050506040513d601f19601f820116820180604052508101906112bc9190613678565b815260200193909352909b909a50909850919650945092505050565b6040805160028082526060820183526000928592849290916020830190803683375050604051633d8270f560e01b8152919250506001600160a01b03831690633d8270f59061132b908790600401613935565b6101406040518083038186803b15801561134457600080fd5b505afa158015611358573d6000803e3d6000fd5b505050506040513d601f19601f8201168201806040525081019061137c91906136de565b5050885192975090955087945060009350501515905061139857fe5b60200260200101836001815181106113ac57fe5b60200260200101828152508281525050506000816001815181106113cc57fe5b6020026020010151116113e057600061141b565b61141b816001815181106113f057fe5b60200260200101518260008151811061140557fe5b6020026020010151612ec790919063ffffffff16565b925050505b92915050565b60008060008060005b86518160ff1610156115ae576000878260ff168151811061144c57fe5b60200260200101519050866001600160a01b0316816001600160a01b0316631fe4a6866040518163ffffffff1660e01b815260040160206040518083038186803b15801561149957600080fd5b505afa1580156114ad573d6000803e3d6000fd5b505050506040513d601f19601f820116820180604052508101906114d19190613324565b6001600160a01b031614156114ee576114eb846001612eec565b93505b6040517f950c78220000000000000000000000000000000000000000000000000000000081526000906001600160a01b0383169063950c782290611536908b90600401613935565b60206040518083038186803b15801561154e57600080fd5b505afa158015611562573d6000803e3d6000fd5b505050506040513d601f19601f820116820180604052508101906115869190613678565b905080156115a4576115a161159a82612f46565b8590612eec565b93505b505060010161142f565b50909590945092505050565b606080606060008490506000816001600160a01b031663dd1033f86040518163ffffffff1660e01b815260040160206040518083038186803b1580156115ff57600080fd5b505afa158015611613573d6000803e3d6000fd5b505050506040513d601f19601f820116820180604052508101906116379190613678565b905060008167ffffffffffffffff8111801561165257600080fd5b5060405190808252806020026020018201604052801561167c578160200160208202803683370190505b50905060008267ffffffffffffffff8111801561169857600080fd5b506040519080825280602002602001820160405280156116c2578160200160208202803683370190505b50905060008367ffffffffffffffff811180156116de57600080fd5b5060405190808252806020026020018201604052801561171257816020015b60608152602001906001900390816116fd5790505b50905060005b848160ff161015611821576040517f48a4beaa0000000000000000000000000000000000000000000000000000000081526001600160a01b038716906348a4beaa90611768908490600401613c25565b60006040518083038186803b15801561178057600080fd5b505afa158015611794573d6000803e3d6000fd5b505050506040513d6000823e601f3d908101601f191682016040526117bc9190810190613751565b868460ff16815181106117cb57fe5b60200260200101868560ff16815181106117e157fe5b60200260200101868660ff16815181106117f757fe5b60209081029190910101929092526001600160a01b03909216905260ff9091169052600101611718565b5091989097509095509350505050565b60608060008060009054906101000a90046001600160a01b03166001600160a01b031663daec2a1a6040518163ffffffff1660e01b815260040160006040518083038186803b15801561188357600080fd5b505afa158015611897573d6000803e3d6000fd5b505050506040513d6000823e601f3d908101601f191682016040526118bf9190810190613415565b604080516019808252610340820190925291925060009190602082016103208036833750506040805160198082526103408201909252929350600092915060208201610320803683370190505090506000865b8451811015611ada57600085828151811061192957fe5b60200260200101519050600061195287848151811061194457fe5b60200260200101518c6103a7565b50509050816001600160a01b03166302fb0c5e6040518163ffffffff1660e01b815260040160206040518083038186803b15801561198f57600080fd5b505afa1580156119a3573d6000803e3d6000fd5b505050506040513d601f19601f820116820180604052508101906119c7919061365e565b80156119d05750805b15611ad0578683815181106119e157fe5b6020026020010151868560ff16815181106119f857fe5b60200260200101906001600160a01b031690816001600160a01b0316815250506000878481518110611a2657fe5b60200260200101516001600160a01b03166370a082318d6040518263ffffffff1660e01b8152600401611a599190613935565b60206040518083038186803b158015611a7157600080fd5b505afa158015611a85573d6000803e3d6000fd5b505050506040513d601f19601f82011682018060405250810190611aa99190613678565b11858560ff1681518110611ab957fe5b911515602092830291909101909101526001909301925b5050600101611912565b509197909650945050505050565b606080600080611af661322a565b606080611b01613248565b611b09613267565b611b11613286565b604080516003808252608082019092528c9160009190602082016060803683370190505090508c6001600160a01b03166318160ddd6040518163ffffffff1660e01b815260040160206040518083038186803b158015611b7057600080fd5b505afa158015611b84573d6000803e3d6000fd5b505050506040513d601f19601f82011682018060405250810190611ba89190613678565b81600081518110611bb557fe5b602002602001018181525050600081600081518110611bd057fe5b602002602001015111611be4576000611d55565b60008054906101000a90046001600160a01b03166001600160a01b031663294d237c6040518163ffffffff1660e01b815260040160206040518083038186803b158015611c3057600080fd5b505afa158015611c44573d6000803e3d6000fd5b505050506040513d601f19601f82011682018060405250810190611c689190613324565b6001600160a01b031663bc14773a8e846001600160a01b031663f85cb5c86040518163ffffffff1660e01b815260040160206040518083038186803b158015611cb057600080fd5b505afa158015611cc4573d6000803e3d6000fd5b505050506040513d601f19601f82011682018060405250810190611ce89190613324565b6040518363ffffffff1660e01b8152600401611d05929190613949565b60206040518083038186803b158015611d1d57600080fd5b505afa158015611d31573d6000803e3d6000fd5b505050506040513d601f19601f82011682018060405250810190611d559190613678565b81600181518110611d6257fe5b602002602001018181525050611d778d612f63565b81600281518110611d8457fe5b6020026020010181815250506000611d9b8e613065565b90508d6001600160a01b03166306fdde036040518163ffffffff1660e01b815260040160006040518083038186803b158015611dd657600080fd5b505afa158015611dea573d6000803e3d6000fd5b505050506040513d6000823e601f3d908101601f19168201604052611e129190810190613690565b8e6001600160a01b03166395d89b416040518163ffffffff1660e01b815260040160006040518083038186803b158015611e4b57600080fd5b505afa158015611e5f573d6000803e3d6000fd5b505050506040513d6000823e601f3d908101601f19168201604052611e879190810190613690565b846001600160a01b03166302d05d3f6040518163ffffffff1660e01b815260040160206040518083038186803b158015611ec057600080fd5b505afa158015611ed4573d6000803e3d6000fd5b505050506040513d601f19601f82011682018060405250810190611ef89190613324565b856001600160a01b031663f85cb5c86040518163ffffffff1660e01b815260040160206040518083038186803b158015611f3157600080fd5b505afa158015611f45573d6000803e3d6000fd5b505050506040513d601f19601f82011682018060405250810190611f699190613324565b6040518060800160405280886001600160a01b03166302fb0c5e6040518163ffffffff1660e01b815260040160206040518083038186803b158015611fad57600080fd5b505afa158015611fc1573d6000803e3d6000fd5b505050506040513d601f19601f82011682018060405250810190611fe5919061365e565b151515158152602001886001600160a01b031663550c2b7f6040518163ffffffff1660e01b815260040160206040518083038186803b15801561202757600080fd5b505afa15801561203b573d6000803e3d6000fd5b505050506040513d601f19601f8201168201806040525081019061205f919061365e565b151515158152602001886001600160a01b0316631780998b6040518163ffffffff1660e01b815260040160206040518083038186803b1580156120a157600080fd5b505afa1580156120b5573d6000803e3d6000fd5b505050506040513d601f19601f820116820180604052508101906120d9919061365e565b151515158152602001886001600160a01b03166377e7ff3c6040518163ffffffff1660e01b815260040160206040518083038186803b15801561211b57600080fd5b505afa15801561212f573d6000803e3d6000fd5b505050506040513d601f19601f82011682018060405250810190612153919061365e565b15151515815250876001600160a01b031663b49a60bb6040518163ffffffff1660e01b815260040160006040518083038186803b15801561219357600080fd5b505afa1580156121a7573d6000803e3d6000fd5b505050506040513d6000823e601f3d908101601f191682016040526121cf9190810190613415565b886001600160a01b031663b304b8156040518163ffffffff1660e01b815260040160006040518083038186803b15801561220857600080fd5b505afa15801561221c573d6000803e3d6000fd5b505050506040513d6000823e601f3d908101601f191682016040526122449190810190613415565b6040518061014001604052808b6001600160a01b0316637550ed186040518163ffffffff1660e01b815260040160206040518083038186803b15801561228957600080fd5b505afa15801561229d573d6000803e3d6000fd5b505050506040513d601f19601f820116820180604052508101906122c19190613678565b81526020018b6001600160a01b0316638bbde0fd6040518163ffffffff1660e01b815260040160206040518083038186803b1580156122ff57600080fd5b505afa158015612313573d6000803e3d6000fd5b505050506040513d601f19601f820116820180604052508101906123379190613678565b81526020018b6001600160a01b03166386fa50636040518163ffffffff1660e01b815260040160206040518083038186803b15801561237557600080fd5b505afa158015612389573d6000803e3d6000fd5b505050506040513d601f19601f820116820180604052508101906123ad9190613678565b81526020018b6001600160a01b031663b63c44e76040518163ffffffff1660e01b815260040160206040518083038186803b1580156123eb57600080fd5b505afa1580156123ff573d6000803e3d6000fd5b505050506040513d601f19601f820116820180604052508101906124239190613678565b81526020018b6001600160a01b0316635a16656a6040518163ffffffff1660e01b815260040160206040518083038186803b15801561246157600080fd5b505afa158015612475573d6000803e3d6000fd5b505050506040513d601f19601f820116820180604052508101906124999190613678565b81526020018b6001600160a01b03166395cdbedb6040518163ffffffff1660e01b815260040160206040518083038186803b1580156124d757600080fd5b505afa1580156124eb573d6000803e3d6000fd5b505050506040513d601f19601f8201168201806040525081019061250f9190613678565b81526020018b6001600160a01b031663297ce5986040518163ffffffff1660e01b815260040160206040518083038186803b15801561254d57600080fd5b505afa158015612561573d6000803e3d6000fd5b505050506040513d601f19601f820116820180604052508101906125859190613678565b81526020018b6001600160a01b0316633deddb3f6040518163ffffffff1660e01b815260040160206040518083038186803b1580156125c357600080fd5b505afa1580156125d7573d6000803e3d6000fd5b505050506040513d601f19601f820116820180604052508101906125fb9190613678565b81526020018b6001600160a01b031663aaffadf36040518163ffffffff1660e01b815260040160206040518083038186803b15801561263957600080fd5b505afa15801561264d573d6000803e3d6000fd5b505050506040513d601f19601f820116820180604052508101906126719190613678565b81526020018b6001600160a01b031663a63c643d6040518163ffffffff1660e01b815260040160206040518083038186803b1580156126af57600080fd5b505afa1580156126c3573d6000803e3d6000fd5b505050506040513d601f19601f820116820180604052508101906126e79190613678565b8152506040518061012001604052808c6001600160a01b031663ba5d30786040518163ffffffff1660e01b815260040160206040518083038186803b15801561272f57600080fd5b505afa158015612743573d6000803e3d6000fd5b505050506040513d601f19601f820116820180604052508101906127679190613678565b81526020018c6001600160a01b031663b9e675396040518163ffffffff1660e01b815260040160206040518083038186803b1580156127a557600080fd5b505afa1580156127b9573d6000803e3d6000fd5b505050506040513d601f19601f820116820180604052508101906127dd9190613678565b81526020018c6001600160a01b031663792e42e26040518163ffffffff1660e01b815260040160206040518083038186803b15801561281b57600080fd5b505afa15801561282f573d6000803e3d6000fd5b505050506040513d601f19601f820116820180604052508101906128539190613678565b81526020018c6001600160a01b031663cb12233b6040518163ffffffff1660e01b815260040160206040518083038186803b15801561289157600080fd5b505afa1580156128a5573d6000803e3d6000fd5b505050506040513d601f19601f820116820180604052508101906128c99190613678565b81526020018c6001600160a01b031663f251fc8c6040518163ffffffff1660e01b815260040160206040518083038186803b15801561290757600080fd5b505afa15801561291b573d6000803e3d6000fd5b505050506040513d601f19601f8201168201806040525081019061293f9190613678565b81526020018c6001600160a01b0316638b0e9f3f6040518163ffffffff1660e01b815260040160206040518083038186803b15801561297d57600080fd5b505afa158015612991573d6000803e3d6000fd5b505050506040513d601f19601f820116820180604052508101906129b59190613678565b815260200160008c6001815181106129c957fe5b6020026020010151116129dd576000612a18565b612a188c6001815181106129ed57fe5b60200260200101518d600081518110612a0257fe5b602002602001015161316c90919063ffffffff16565b81526020018b600081518110612a2a57fe5b602002602001015181526020018b600281518110612a4457fe5b6020026020010151815250899c509c509c509c509c509c509c509c509c509c505050509193959799509193959799565b60408051600a8082526101608201909252606091829185916000919060208201610140803683375050604051633d8270f560e01b8152919250506001600160a01b03831690633d8270f590612acd908890600401613935565b6101406040518083038186803b158015612ae657600080fd5b505afa158015612afa573d6000803e3d6000fd5b505050506040513d601f19601f82011682018060405250810190612b1e91906136de565b508951909250899150600090612b3057fe5b6020026020010188600181518110612b4457fe5b6020026020010189600281518110612b5857fe5b602002602001018a600381518110612b6c57fe5b602002602001018b600481518110612b8057fe5b602002602001018c600581518110612b9457fe5b602002602001018d600881518110612ba857fe5b60209081029190910101969096529590945294909352939052929052919052526040516370a0823160e01b81526001600160a01b038716906370a0823190612bf4908890600401613935565b60206040518083038186803b158015612c0c57600080fd5b505afa158015612c20573d6000803e3d6000fd5b505050506040513d601f19601f82011682018060405250810190612c449190613678565b81600681518110612c5157fe5b60209081029190910101526040517fc40868930000000000000000000000000000000000000000000000000000000081526001600160a01b0383169063c408689390612ca1908890600401613935565b60206040518083038186803b158015612cb957600080fd5b505afa158015612ccd573d6000803e3d6000fd5b505050506040513d601f19601f82011682018060405250810190612cf19190613678565b81600781518110612cfe57fe5b60200260200101818152505060008060009054906101000a90046001600160a01b03166001600160a01b0316633f2a55406040518163ffffffff1660e01b815260040160206040518083038186803b158015612d5957600080fd5b505afa158015612d6d573d6000803e3d6000fd5b505050506040513d601f19601f82011682018060405250810190612d919190613324565b6001600160a01b03166369795e938888866001600160a01b031663b304b8156040518163ffffffff1660e01b815260040160006040518083038186803b158015612dda57600080fd5b505afa158015612dee573d6000803e3d6000fd5b505050506040513d6000823e601f3d908101601f19168201604052612e169190810190613415565b6040518463ffffffff1660e01b8152600401612e3493929190613963565b60006040518083038186803b158015612e4c57600080fd5b505afa158015612e60573d6000803e3d6000fd5b505050506040513d6000823e601f3d908101601f19168201604052612e8891908101906135da565b9050612e9487876112d8565b82600981518110612ea157fe5b602090810291909101015290969095509350505050565b6000546001600160a01b031681565b6000612ee582612edf85670de0b6b3a7640000613180565b906131a4565b9392505050565b600082820183811015612ee5576040805162461bcd60e51b815260206004820152601b60248201527f536166654d6174683a206164646974696f6e206f766572666c6f770000000000604482015290519081900360640190fd5b600080821215612f595781600003612f5b565b815b90505b919050565b60008060009054906101000a90046001600160a01b03166001600160a01b031663ead4c1cf6040518163ffffffff1660e01b815260040160206040518083038186803b158015612fb257600080fd5b505afa158015612fc6573d6000803e3d6000fd5b505050506040513d601f19601f82011682018060405250810190612fea9190613324565b6001600160a01b031663181df307836040518263ffffffff1660e01b81526004016130159190613935565b60206040518083038186803b15801561302d57600080fd5b505afa158015613041573d6000803e3d6000fd5b505050506040513d601f19601f82011682018060405250810190612f5b9190613678565b61306d613286565b60008054906101000a90046001600160a01b03166001600160a01b0316633f2a55406040518163ffffffff1660e01b815260040160206040518083038186803b1580156130b957600080fd5b505afa1580156130cd573d6000803e3d6000fd5b505050506040513d601f19601f820116820180604052508101906130f19190613324565b6001600160a01b031663070e8a4a836040518263ffffffff1660e01b815260040161311c9190613935565b60606040518083038186803b15801561313457600080fd5b505afa158015613148573d6000803e3d6000fd5b505050506040513d601f19601f82011682018060405250810190612f5b919061355e565b6000612ee5670de0b6b3a7640000612edf85855b600082158061319b5750508181028183828161319857fe5b04145b61142057600080fd5b60008082116131fa576040805162461bcd60e51b815260206004820152601a60248201527f536166654d6174683a206469766973696f6e206279207a65726f000000000000604482015290519081900360640190fd5b81838161320357fe5b049392505050565b604051806101800160405280600c906020820280368337509192915050565b60405180608001604052806004906020820280368337509192915050565b604051806101400160405280600a906020820280368337509192915050565b6040518061012001604052806009906020820280368337509192915050565b60405180606001604052806003906020820280368337509192915050565b600067ffffffffffffffff8311156132b857fe5b6132cb601f8401601f1916602001613c33565b90508281528383830111156132df57600080fd5b612ee5836020830184613c75565b8035612f5e81613ca1565b80518015158114612f5e57600080fd5b600060208284031215613319578081fd5b8135612ee581613ca1565b600060208284031215613335578081fd5b8151612ee581613ca1565b60008060408385031215613352578081fd5b823561335d81613ca1565b9150602083013561336d81613ca1565b809150509250929050565b600080600080600080600060e0888a031215613392578283fd5b875161339d81613ca1565b96506133ab602089016132f8565b95506133b9604089016132f8565b94506133c7606089016132f8565b93506080880151925060a0880151915060c0880151905092959891949750929550565b600080604083850312156133fc578182fd5b823561340781613ca1565b946020939093013593505050565b60006020808385031215613427578182fd5b825167ffffffffffffffff81111561343d578283fd5b8301601f8101851361344d578283fd5b805161346061345b82613c57565b613c33565b818152838101908385018584028501860189101561347c578687fd5b8694505b838510156134a757805161349381613ca1565b835260019490940193918501918501613480565b50979650505050505050565b600080604083850312156134c5578182fd5b823567ffffffffffffffff8111156134db578283fd5b8301601f810185136134eb578283fd5b803560206134fb61345b83613c57565b82815281810190848301838502860184018a1015613517578788fd5b8795505b8486101561354257803561352e81613ca1565b83526001959095019491830191830161351b565b50955061355290508682016132ed565b93505050509250929050565b60006060828403121561356f578081fd5b82601f83011261357d578081fd5b6040516060810181811067ffffffffffffffff8211171561359a57fe5b6040528083606081018610156135ae578384fd5b835b60038110156135cf5781518352602092830192909101906001016135b0565b509195945050505050565b600060208083850312156135ec578182fd5b825167ffffffffffffffff811115613602578283fd5b8301601f81018513613612578283fd5b805161362061345b82613c57565b818152838101908385018584028501860189101561363c578687fd5b8694505b838510156134a7578051835260019490940193918501918501613640565b60006020828403121561366f578081fd5b612ee5826132f8565b600060208284031215613689578081fd5b5051919050565b6000602082840312156136a1578081fd5b815167ffffffffffffffff8111156136b7578182fd5b8201601f810184136136c7578182fd5b6136d6848251602084016132a4565b949350505050565b6000806000806000806000806000806101408b8d0312156136fd578384fd5b8a51995060208b0151985060408b0151975060608b0151965060808b0151955060a08b0151945060c08b0151935060e08b015192506101008b015191506101208b015190509295989b9194979a5092959850565b600080600060608486031215613765578081fd5b835160ff81168114613775578182fd5b602085015190935061378681613ca1565b604085015190925067ffffffffffffffff8111156137a2578182fd5b8401601f810186136137b2578182fd5b6137c1868251602084016132a4565b9150509250925092565b6000602082840312156137dc578081fd5b81516bffffffffffffffffffffffff81168114612ee5578182fd5b6000815180845260208085019450808401835b8381101561382f5781516001600160a01b03168752958201959082019060010161380a565b509495945050505050565b6000815180845260208085019450808401835b8381101561382f57815115158752958201959082019060010161384d565b8060005b600a81101561388e57815184526020938401939091019060010161386f565b50505050565b8060005b600381101561388e578151845260209384019390910190600101613898565b8060005b600981101561388e5781518452602093840193909101906001016138bb565b6000815180845260208085019450808401835b8381101561382f578151875295820195908201906001016138ed565b60008151808452613921816020860160208601613c75565b601f01601f19169290920160200192915050565b6001600160a01b0391909116815260200190565b6001600160a01b0392831681529116602082015260400190565b60006001600160a01b0380861683528085166020840152506060604083015261398f60608301846137f7565b95945050505050565b60006102006001600160a01b0388168352602081818501526139bc82850189613909565b91506040840187845b600c8110156139e2578151835291830191908301906001016139c5565b505050508281036101c08401526139f9818661383a565b90508281036101e0840152613a0e81856138da565b98975050505050505050565b600060408252613a2d60408301856137f7565b828103602084015261398f818561383a565b600060408252613a5260408301856138da565b828103602084015261398f81856138da565b606080825284519082018190526000906020906080840190828801845b82811015613aa057815160ff1684529284019290840190600101613a81565b50505083810382850152613ab481876137f7565b848103604086015285518082529091508282019083810283018401848801865b83811015613b0257601f19868403018552613af0838351613909565b94870194925090860190600101613ad4565b50909a9950505050505050505050565b91151582521515602082015260400190565b921515835290151560208301521515604082015260600190565b6000610400808352613b528184018e613909565b9050602083820381850152613b67828e613909565b6001600160a01b038d811660408701528c1660608601529150608084018a845b6004811015613ba6578151151583529183019190830190600101613b87565b50505050828103610100840152613bbd81896137f7565b9050828103610120840152613bd281886137f7565b915050613be361014083018661386b565b613bf16102808301856138b7565b613bff6103a0830184613894565b9b9a5050505050505050505050565b90815260200190565b918252602082015260400190565b60ff91909116815260200190565b60405181810167ffffffffffffffff81118282101715613c4f57fe5b604052919050565b600067ffffffffffffffff821115613c6b57fe5b5060209081020190565b60005b83811015613c90578181015183820152602001613c78565b8381111561388e5750506000910152565b6001600160a01b0381168114613cb657600080fd5b5056fea264697066735822122010a2b69bbbd2ed0e56891bd59ba7b2f15e936cb88ec52025fb1d6f0b7910ea5c64736f6c63430007060033",
  "devdoc": {
    "author": "Babylon Finance Class that holds common view functions to retrieve garden information effectively",
    "kind": "dev",
    "methods": {
      "getCompleteStrategy(address)": {
        "params": {
          "_strategy": "Address of the strategy to fetch"
        },
        "returns": {
          "_0": "All strategy details"
        }
      },
      "getGardenDetails(address)": {
        "params": {
          "_garden": "Address of the garden to fetch"
        },
        "returns": {
          "_0": "Garden complete details"
        }
      }
    },
    "title": "BabylonViewer",
    "version": 1
  },
  "userdoc": {
    "kind": "user",
    "methods": {
      "getCompleteStrategy(address)": {
        "notice": "Gets complete strategy details"
      },
      "getGardenDetails(address)": {
        "notice": "Gets garden details"
      }
    },
    "version": 1
  },
  "storageLayout": {
    "storage": [
      {
        "astId": 10551,
        "contract": "contracts/BabylonViewer.sol:BabylonViewer",
        "label": "controller",
        "offset": 0,
        "slot": "0",
        "type": "t_contract(IBabController)28639"
      }
    ],
    "types": {
      "t_contract(IBabController)28639": {
        "encoding": "inplace",
        "label": "contract IBabController",
        "numberOfBytes": "20"
      }
    }
  }
}