{
  "address": "0xD22889bbfb4e21C7aDCDD2d1E1deeEC4C5Eb8F48",
  "abi": [
    {
      "inputs": [
        {
          "internalType": "contract IBabController",
          "name": "_controller",
          "type": "address"
        }
      ],
      "stateMutability": "nonpayable",
      "type": "constructor"
    },
    {
      "inputs": [],
      "name": "controller",
      "outputs": [
        {
          "internalType": "contract IBabController",
          "name": "",
          "type": "address"
        }
      ],
      "stateMutability": "view",
      "type": "function"
    },
    {
      "inputs": [
        {
          "internalType": "address",
          "name": "_strategy",
          "type": "address"
        }
      ],
      "name": "getCompleteStrategy",
      "outputs": [
        {
          "internalType": "address",
          "name": "",
          "type": "address"
        },
        {
          "internalType": "string",
          "name": "",
          "type": "string"
        },
        {
          "internalType": "uint256[13]",
          "name": "",
          "type": "uint256[13]"
        },
        {
          "internalType": "bool[]",
          "name": "",
          "type": "bool[]"
        },
        {
          "internalType": "uint256[]",
          "name": "",
          "type": "uint256[]"
        }
      ],
      "stateMutability": "view",
      "type": "function"
    },
    {
      "inputs": [
        {
          "internalType": "address",
          "name": "_garden",
          "type": "address"
        },
        {
          "internalType": "address",
          "name": "_user",
          "type": "address"
        }
      ],
      "name": "getContributionAndRewards",
      "outputs": [
        {
          "internalType": "uint256[]",
          "name": "",
          "type": "uint256[]"
        },
        {
          "internalType": "uint256[]",
          "name": "",
          "type": "uint256[]"
        }
      ],
      "stateMutability": "view",
      "type": "function"
    },
    {
      "inputs": [
        {
          "internalType": "address",
          "name": "_garden",
          "type": "address"
        }
      ],
      "name": "getGardenDetails",
      "outputs": [
        {
          "internalType": "string",
          "name": "",
          "type": "string"
        },
        {
          "internalType": "string",
          "name": "",
          "type": "string"
        },
        {
          "internalType": "address[5]",
          "name": "",
          "type": "address[5]"
        },
        {
          "internalType": "address",
          "name": "",
          "type": "address"
        },
        {
          "internalType": "bool[4]",
          "name": "",
          "type": "bool[4]"
        },
        {
          "internalType": "address[]",
          "name": "",
          "type": "address[]"
        },
        {
          "internalType": "address[]",
          "name": "",
          "type": "address[]"
        },
        {
          "internalType": "uint256[11]",
          "name": "",
          "type": "uint256[11]"
        },
        {
          "internalType": "uint256[10]",
          "name": "",
          "type": "uint256[10]"
        },
        {
          "internalType": "uint256[3]",
          "name": "",
          "type": "uint256[3]"
        }
      ],
      "stateMutability": "view",
      "type": "function"
    },
    {
      "inputs": [
        {
          "internalType": "address",
          "name": "_garden",
          "type": "address"
        },
        {
          "internalType": "address",
          "name": "_user",
          "type": "address"
        }
      ],
      "name": "getGardenPermissions",
      "outputs": [
        {
          "internalType": "bool",
          "name": "",
          "type": "bool"
        },
        {
          "internalType": "bool",
          "name": "",
          "type": "bool"
        },
        {
          "internalType": "bool",
          "name": "",
          "type": "bool"
        }
      ],
      "stateMutability": "view",
      "type": "function"
    },
    {
      "inputs": [
        {
          "internalType": "address",
          "name": "_garden",
          "type": "address"
        }
      ],
      "name": "getGardenPrincipal",
      "outputs": [
        {
          "internalType": "uint256",
          "name": "",
          "type": "uint256"
        }
      ],
      "stateMutability": "view",
      "type": "function"
    },
    {
      "inputs": [
        {
          "internalType": "address",
          "name": "_garden",
          "type": "address"
        },
        {
          "internalType": "address",
          "name": "_user",
          "type": "address"
        }
      ],
      "name": "getGardenUserAvgPricePerShare",
      "outputs": [
        {
          "internalType": "uint256",
          "name": "",
          "type": "uint256"
        }
      ],
      "stateMutability": "view",
      "type": "function"
    },
    {
      "inputs": [
        {
          "internalType": "address",
          "name": "_user",
          "type": "address"
        },
        {
          "internalType": "uint256",
          "name": "_offset",
          "type": "uint256"
        }
      ],
      "name": "getGardensUser",
      "outputs": [
        {
          "internalType": "address[]",
          "name": "",
          "type": "address[]"
        },
        {
          "internalType": "bool[]",
          "name": "",
          "type": "bool[]"
        }
      ],
      "stateMutability": "view",
      "type": "function"
    },
    {
      "inputs": [
        {
          "internalType": "address",
          "name": "_strategy",
          "type": "address"
        }
      ],
      "name": "getOperationsStrategy",
      "outputs": [
        {
          "internalType": "uint8[]",
          "name": "",
          "type": "uint8[]"
        },
        {
          "internalType": "address[]",
          "name": "",
          "type": "address[]"
        },
        {
          "internalType": "bytes[]",
          "name": "",
          "type": "bytes[]"
        }
      ],
      "stateMutability": "view",
      "type": "function"
    },
    {
      "inputs": [
        {
          "internalType": "address",
          "name": "_user",
          "type": "address"
        }
      ],
      "name": "getPermissions",
      "outputs": [
        {
          "internalType": "bool",
          "name": "",
          "type": "bool"
        },
        {
          "internalType": "bool",
          "name": "",
          "type": "bool"
        }
      ],
      "stateMutability": "view",
      "type": "function"
    },
    {
      "inputs": [
        {
          "internalType": "address",
          "name": "_garden",
          "type": "address"
        },
        {
          "internalType": "address[]",
          "name": "_members",
          "type": "address[]"
        }
      ],
      "name": "getPotentialVotes",
      "outputs": [
        {
          "internalType": "uint256",
          "name": "",
          "type": "uint256"
        }
      ],
      "stateMutability": "view",
      "type": "function"
    },
    {
      "inputs": [
        {
          "internalType": "address",
          "name": "_tokenIn",
          "type": "address"
        },
        {
          "internalType": "address",
          "name": "_reserveAsset",
          "type": "address"
        }
      ],
      "name": "getPriceAndLiquidity",
      "outputs": [
        {
          "internalType": "uint256",
          "name": "",
          "type": "uint256"
        },
        {
          "internalType": "uint256",
          "name": "",
          "type": "uint256"
        }
      ],
      "stateMutability": "view",
      "type": "function"
    },
    {
      "inputs": [
        {
          "internalType": "address[]",
          "name": "_strategies",
          "type": "address[]"
        },
        {
          "internalType": "address",
          "name": "_user",
          "type": "address"
        }
      ],
      "name": "getUserStrategyActions",
      "outputs": [
        {
          "internalType": "uint256",
          "name": "",
          "type": "uint256"
        },
        {
          "internalType": "uint256",
          "name": "",
          "type": "uint256"
        }
      ],
      "stateMutability": "view",
      "type": "function"
    }
  ],
  "transactionHash": "0xb408caaabff79bf4c9fbe5a51411b0621d7d585307434519c1727e56e259cac8",
  "args": [
    "0xD4a5b5fcB561dAF3aDF86F8477555B92FBa43b5F"
  ],
  "solcInputHash": "d2b557aa7aad810dfc0ce3f4749cf5ca",
  "bytecode": "0x60806040523480156200001157600080fd5b50604051620057953803806200579583398101604081905262000034916200008c565b6001600160a01b038116620000665760405162461bcd60e51b81526004016200005d90620000bc565b60405180910390fd5b600080546001600160a01b0319166001600160a01b0392909216919091179055620000f3565b6000602082840312156200009e578081fd5b81516001600160a01b0381168114620000b5578182fd5b9392505050565b60208082526015908201527f436f6e74726f6c6c6572206d7573742065786973740000000000000000000000604082015260600190565b61569280620001036000396000f3fe608060405234801561001057600080fd5b50600436106100df5760003560e01c8063a63037da1161008c578063d005ce5c11610066578063d005ce5c146101fe578063e644fe0914610227578063ede1209e1461023a578063f77c47911461025b576100df565b8063a63037da146101a8578063b105b044146101ca578063bf6f9337146101eb576100df565b80635dcb4959116100bd5780635dcb495914610151578063932a6942146101755780639ab0542614610195576100df565b8063160a7925146100e45780631b76c1241461010e5780634c038f201461012f575b600080fd5b6100f76100f2366004614b90565b610270565b6040516101059291906154ae565b60405180910390f35b61012161011c366004614bc8565b610431565b6040516101059291906155ba565b61014261013d366004614bc8565b61055a565b604051610105939291906154c0565b61016461015f366004614b90565b61093d565b604051610105959493929190615334565b610188610183366004614bc8565b61138a565b60405161010591906154da565b6101216101a3366004614dbd565b6114d8565b6101bb6101b6366004614b90565b61166c565b60405161010593929190615400565b6101dd6101d8366004614cf4565b6118e3565b6040516101059291906153b6565b6101886101f9366004614c00565b611b2a565b61021161020c366004614b90565b611d1f565b6040516101059a999897969594939291906154e3565b610188610235366004614b90565b61329f565b61024d610248366004614bc8565b61385a565b6040516101059291906153db565b610263613c9e565b60405161010591906152a9565b60008060008060009054906101000a90046001600160a01b03166001600160a01b0316630ebdb9a26040518163ffffffff1660e01b815260040160206040518083038186803b1580156102c257600080fd5b505afa1580156102d6573d6000803e3d6000fd5b505050506040513d601f19601f820116820180604052508101906102fa9190614bac565b6040517f20382f8e0000000000000000000000000000000000000000000000000000000081529091506001600160a01b038216906320382f8e906103429087906004016152a9565b60206040518083038186803b15801561035a57600080fd5b505afa15801561036e573d6000803e3d6000fd5b505050506040513d601f19601f820116820180604052508101906103929190614f68565b6040517f7804a5dc0000000000000000000000000000000000000000000000000000000081526001600160a01b03831690637804a5dc906103d79088906004016152a9565b60206040518083038186803b1580156103ef57600080fd5b505afa158015610403573d6000803e3d6000fd5b505050506040513d601f19601f820116820180604052508101906104279190614f68565b9250925050915091565b60008054604080517f2630c12f000000000000000000000000000000000000000000000000000000008152905183926001600160a01b031691632630c12f916004808301926020929190829003018186803b15801561048f57600080fd5b505afa1580156104a3573d6000803e3d6000fd5b505050506040513d601f19601f820116820180604052508101906104c79190614bac565b6001600160a01b031663ac41865a85856040518363ffffffff1660e01b81526004016104f49291906152bd565b60206040518083038186803b15801561050c57600080fd5b505afa158015610520573d6000803e3d6000fd5b505050506040513d601f19601f820116820180604052508101906105449190614f82565b61054e8585613cad565b915091505b9250929050565b60008060008060008054906101000a90046001600160a01b03166001600160a01b0316630ebdb9a26040518163ffffffff1660e01b815260040160206040518083038186803b1580156105ac57600080fd5b505afa1580156105c0573d6000803e3d6000fd5b505050506040513d601f19601f820116820180604052508101906105e49190614bac565b6040517fc7ec5d5d0000000000000000000000000000000000000000000000000000000081529091506001906001600160a01b0383169063c7ec5d5d90610631908a908a906004016152bd565b60206040518083038186803b15801561064957600080fd5b505afa15801561065d573d6000803e3d6000fd5b505050506040513d601f19601f820116820180604052508101906106819190614f68565b8061070257508080156107025750866001600160a01b031663550c2b7f6040518163ffffffff1660e01b815260040160206040518083038186803b1580156106c857600080fd5b505afa1580156106dc573d6000803e3d6000fd5b505050506040513d601f19601f820116820180604052508101906107009190614f68565b155b6040517f4d98fbf00000000000000000000000000000000000000000000000000000000081526001600160a01b03841690634d98fbf090610749908b908b906004016152bd565b60206040518083038186803b15801561076157600080fd5b505afa158015610775573d6000803e3d6000fd5b505050506040513d601f19601f820116820180604052508101906107999190614f68565b8061081857508180156108185750876001600160a01b03166377e7ff3c6040518163ffffffff1660e01b815260040160206040518083038186803b1580156107e057600080fd5b505afa1580156107f4573d6000803e3d6000fd5b505050506040513d601f19601f820116820180604052508101906108189190614f68565b6040517f5066c7140000000000000000000000000000000000000000000000000000000081526001600160a01b03851690635066c7149061085f908c908c906004016152bd565b60206040518083038186803b15801561087757600080fd5b505afa15801561088b573d6000803e3d6000fd5b505050506040513d601f19601f820116820180604052508101906108af9190614f68565b8061092e575082801561092e5750886001600160a01b0316631780998b6040518163ffffffff1660e01b815260040160206040518083038186803b1580156108f657600080fd5b505afa15801561090a573d6000803e3d6000fd5b505050506040513d601f19601f8201168201806040525081019061092e9190614f68565b94509450945050509250925092565b60006060610949614a75565b604080516003808252608082019092526060918291879160009190602082018580368337505060408051600480825260a08201909252929350600092915060208201608080368337019050509050826001600160a01b031663bf1dcfe26040518163ffffffff1660e01b815260040160e06040518083038186803b1580156109d057600080fd5b505afa1580156109e4573d6000803e3d6000fd5b505050506040513d601f19601f82011682018060405250810190610a089190614c82565b9091929394955087600081518110610a1c57fe5b6020026020010188600181518110610a3057fe5b6020026020010189600281518110610a4457fe5b6020026020010189600081518110610a5857fe5b602002602001018a600181518110610a6c57fe5b602002602001018b600281518110610a8057fe5b602090810291909101019590955294909352939092529215159092529115159091529015159052805160009082906001908110610ab957fe5b602002602001015160001415610ad0576000610bcf565b60008054906101000a90046001600160a01b03166001600160a01b0316633f2a55406040518163ffffffff1660e01b815260040160206040518083038186803b158015610b1c57600080fd5b505afa158015610b30573d6000803e3d6000fd5b505050506040513d601f19601f82011682018060405250810190610b549190614bac565b6001600160a01b0316639de9a0528b6040518263ffffffff1660e01b8152600401610b7f91906152a9565b60206040518083038186803b158015610b9757600080fd5b505afa158015610bab573d6000803e3d6000fd5b505050506040513d601f19601f82011682018060405250810190610bcf91906150fc565b6bffffffffffffffffffffffff169050836001600160a01b031663a30ca2046040518163ffffffff1660e01b815260040160206040518083038186803b158015610c1857600080fd5b505afa158015610c2c573d6000803e3d6000fd5b505050506040513d601f19601f82011682018060405250810190610c509190614f82565b82600381518110610c5d57fe5b602002602001018181525050836001600160a01b0316631fe4a6866040518163ffffffff1660e01b815260040160206040518083038186803b158015610ca257600080fd5b505afa158015610cb6573d6000803e3d6000fd5b505050506040513d601f19601f82011682018060405250810190610cda9190614bac565b60008054906101000a90046001600160a01b03166001600160a01b031663d6a45aa56040518163ffffffff1660e01b815260040160206040518083038186803b158015610d2657600080fd5b505afa158015610d3a573d6000803e3d6000fd5b505050506040513d601f19601f82011682018060405250810190610d5e9190614bac565b6001600160a01b03166323b0e4158c6040518263ffffffff1660e01b8152600401610d8991906152a9565b60006040518083038186803b158015610da157600080fd5b505afa158015610db5573d6000803e3d6000fd5b505050506040513d6000823e601f3d908101601f19168201604052610ddd9190810190614f9a565b604051806101a00160405280876001600160a01b031663dd1033f86040518163ffffffff1660e01b815260040160206040518083038186803b158015610e2257600080fd5b505afa158015610e36573d6000803e3d6000fd5b505050506040513d601f19601f82011682018060405250810190610e5a9190614f82565b8152602001876001600160a01b0316633a4b66f16040518163ffffffff1660e01b815260040160206040518083038186803b158015610e9857600080fd5b505afa158015610eac573d6000803e3d6000fd5b505050506040513d601f19601f82011682018060405250810190610ed09190614f82565b8152602001876001600160a01b031663d40244cb6040518163ffffffff1660e01b815260040160206040518083038186803b158015610f0e57600080fd5b505afa158015610f22573d6000803e3d6000fd5b505050506040513d601f19601f82011682018060405250810190610f469190614f82565b8152602001876001600160a01b031663449b98266040518163ffffffff1660e01b815260040160206040518083038186803b158015610f8457600080fd5b505afa158015610f98573d6000803e3d6000fd5b505050506040513d601f19601f82011682018060405250810190610fbc9190614f82565b8152602001876001600160a01b03166303cddb2c6040518163ffffffff1660e01b815260040160206040518083038186803b158015610ffa57600080fd5b505afa15801561100e573d6000803e3d6000fd5b505050506040513d601f19601f820116820180604052508101906110329190614f82565b8152602001876001600160a01b03166303976e386040518163ffffffff1660e01b815260040160206040518083038186803b15801561107057600080fd5b505afa158015611084573d6000803e3d6000fd5b505050506040513d601f19601f820116820180604052508101906110a89190614f82565b8152602001876001600160a01b0316630fb5a6b46040518163ffffffff1660e01b815260040160206040518083038186803b1580156110e657600080fd5b505afa1580156110fa573d6000803e3d6000fd5b505050506040513d601f19601f8201168201806040525081019061111e9190614f82565b8152602001876001600160a01b031663d3406abd6040518163ffffffff1660e01b815260040160206040518083038186803b15801561115c57600080fd5b505afa158015611170573d6000803e3d6000fd5b505050506040513d601f19601f820116820180604052508101906111949190614f82565b8152602001876001600160a01b03166393baae416040518163ffffffff1660e01b815260040160206040518083038186803b1580156111d257600080fd5b505afa1580156111e6573d6000803e3d6000fd5b505050506040513d601f19601f8201168201806040525081019061120a9190614f82565b8152602001876001600160a01b0316636db9cc996040518163ffffffff1660e01b815260040160206040518083038186803b15801561124857600080fd5b505afa15801561125c573d6000803e3d6000fd5b505050506040513d601f19601f820116820180604052508101906112809190614f82565b8152602001876001600160a01b0316630126c6066040518163ffffffff1660e01b815260040160206040518083038186803b1580156112be57600080fd5b505afa1580156112d2573d6000803e3d6000fd5b505050506040513d601f19601f820116820180604052508101906112f69190614f82565b8152602001848152602001876001600160a01b031663707cddfe6040518163ffffffff1660e01b815260040160206040518083038186803b15801561133a57600080fd5b505afa15801561134e573d6000803e3d6000fd5b505050506040513d601f19601f820116820180604052508101906113729190614f82565b9052919c909b50909950929750909550909350505050565b6040805160028082526060820183526000928592849290916020830190803683375050604051633d8270f560e01b8152919250506001600160a01b03831690633d8270f5906113dd9087906004016152a9565b6101406040518083038186803b1580156113f657600080fd5b505afa15801561140a573d6000803e3d6000fd5b505050506040513d601f19601f8201168201806040525081019061142e919061500f565b5050885192975090955087945060009350501515905061144a57fe5b602002602001018360018151811061145e57fe5b602002602001018281525082815250505060008160018151811061147e57fe5b6020026020010151116114925760006114cd565b6114cd816001815181106114a257fe5b6020026020010151826000815181106114b757fe5b602002602001015161418190919063ffffffff16565b925050505b92915050565b60008060008060005b86518160ff161015611660576000878260ff16815181106114fe57fe5b60200260200101519050866001600160a01b0316816001600160a01b0316631fe4a6866040518163ffffffff1660e01b815260040160206040518083038186803b15801561154b57600080fd5b505afa15801561155f573d6000803e3d6000fd5b505050506040513d601f19601f820116820180604052508101906115839190614bac565b6001600160a01b031614156115a05761159d846001614199565b93505b6040517f950c78220000000000000000000000000000000000000000000000000000000081526000906001600160a01b0383169063950c7822906115e8908b906004016152a9565b60206040518083038186803b15801561160057600080fd5b505afa158015611614573d6000803e3d6000fd5b505050506040513d601f19601f820116820180604052508101906116389190614f82565b905080156116565761165361164c826141a9565b8590614199565b93505b50506001016114e1565b50909590945092505050565b606080606060008490506000816001600160a01b031663dd1033f86040518163ffffffff1660e01b815260040160206040518083038186803b1580156116b157600080fd5b505afa1580156116c5573d6000803e3d6000fd5b505050506040513d601f19601f820116820180604052508101906116e99190614f82565b905060008167ffffffffffffffff8111801561170457600080fd5b5060405190808252806020026020018201604052801561172e578160200160208202803683370190505b50905060008267ffffffffffffffff8111801561174a57600080fd5b50604051908082528060200260200182016040528015611774578160200160208202803683370190505b50905060008367ffffffffffffffff8111801561179057600080fd5b506040519080825280602002602001820160405280156117c457816020015b60608152602001906001900390816117af5790505b50905060005b848160ff1610156118d3576040517f48a4beaa0000000000000000000000000000000000000000000000000000000081526001600160a01b038716906348a4beaa9061181a9084906004016155c8565b60006040518083038186803b15801561183257600080fd5b505afa158015611846573d6000803e3d6000fd5b505050506040513d6000823e601f3d908101601f1916820160405261186e9190810190615082565b868460ff168151811061187d57fe5b60200260200101868560ff168151811061189357fe5b60200260200101868660ff16815181106118a957fe5b60209081029190910101929092526001600160a01b03909216905260ff90911690526001016117ca565b5091989097509095509350505050565b60608060008060009054906101000a90046001600160a01b03166001600160a01b031663daec2a1a6040518163ffffffff1660e01b815260040160006040518083038186803b15801561193557600080fd5b505afa158015611949573d6000803e3d6000fd5b505050506040513d6000823e601f3d908101601f191682016040526119719190810190614d1f565b6040805160328082526106608201909252919250600091906020820161064080368337505060408051603280825261066082019092529293506000929150602082016106408036833701905050905060006032845111156119dc576119d7876032614199565b6119df565b83515b90506000875b82811015611b1a576000611a0c8783815181106119fe57fe5b60200260200101518c61055a565b505090508015611b1157868281518110611a2257fe5b6020026020010151868460ff1681518110611a3957fe5b60200260200101906001600160a01b031690816001600160a01b0316815250506000878381518110611a6757fe5b60200260200101516001600160a01b03166370a082318d6040518263ffffffff1660e01b8152600401611a9a91906152a9565b60206040518083038186803b158015611ab257600080fd5b505afa158015611ac6573d6000803e3d6000fd5b505050506040513d601f19601f82011682018060405250810190611aea9190614f82565b11858460ff1681518110611afa57fe5b911515602092830291909101909101526001909201915b506001016119e5565b5092989197509095505050505050565b600080849050806001600160a01b03166377e7ff3c6040518163ffffffff1660e01b815260040160206040518083038186803b158015611b6957600080fd5b505afa158015611b7d573d6000803e3d6000fd5b505050506040513d601f19601f82011682018060405250810190611ba19190614f68565b15611c1f57846001600160a01b03166318160ddd6040518163ffffffff1660e01b815260040160206040518083038186803b158015611bdf57600080fd5b505afa158015611bf3573d6000803e3d6000fd5b505050506040513d601f19601f82011682018060405250810190611c179190614f82565b915050611d18565b6000805b84811015611d1357600080611c5389898986818110611c3e57fe5b905060200201602081019061013d9190614b90565b5091509150818015611c625750805b15611d0957611d06896001600160a01b03166370a082318a8a87818110611c8557fe5b9050602002016020810190611c9a9190614b90565b6040518263ffffffff1660e01b8152600401611cb691906152a9565b60206040518083038186803b158015611cce57600080fd5b505afa158015611ce2573d6000803e3d6000fd5b505050506040513d601f19601f8201168201806040525081019061164c9190614f82565b93505b5050600101611c23565b509150505b9392505050565b606080611d2a614a94565b6000611d34614ab2565b606080611d3f614ad0565b611d47614aef565b611d4f614b0e565b8a6000611d5b8261329f565b60408051600480825260a0820190925291925060009190602082016080803683370190505090508d6001600160a01b03166318160ddd6040518163ffffffff1660e01b815260040160206040518083038186803b158015611dbb57600080fd5b505afa158015611dcf573d6000803e3d6000fd5b505050506040513d601f19601f82011682018060405250810190611df39190614f82565b81600081518110611e0057fe5b602002602001018181525050600081600081518110611e1b57fe5b602002602001015111611e2f576000611fa0565b60008054906101000a90046001600160a01b03166001600160a01b031663294d237c6040518163ffffffff1660e01b815260040160206040518083038186803b158015611e7b57600080fd5b505afa158015611e8f573d6000803e3d6000fd5b505050506040513d601f19601f82011682018060405250810190611eb39190614bac565b6001600160a01b031663bc14773a8f856001600160a01b031663f85cb5c86040518163ffffffff1660e01b815260040160206040518083038186803b158015611efb57600080fd5b505afa158015611f0f573d6000803e3d6000fd5b505050506040513d601f19601f82011682018060405250810190611f339190614bac565b6040518363ffffffff1660e01b8152600401611f509291906152bd565b60206040518083038186803b158015611f6857600080fd5b505afa158015611f7c573d6000803e3d6000fd5b505050506040513d601f19601f82011682018060405250810190611fa09190614f82565b81600181518110611fad57fe5b602002602001018181525050611fc28e6141c0565b81600281518110611fcf57fe5b602002602001018181525050826001600160a01b031663f85cb5c86040518163ffffffff1660e01b815260040160206040518083038186803b15801561201457600080fd5b505afa158015612028573d6000803e3d6000fd5b505050506040513d601f19601f8201168201806040525081019061204c9190614bac565b6001600160a01b03166370a08231846040518263ffffffff1660e01b815260040161207791906152a9565b60206040518083038186803b15801561208f57600080fd5b505afa1580156120a3573d6000803e3d6000fd5b505050506040513d601f19601f820116820180604052508101906120c79190614f82565b816003815181106120d457fe5b602002602001018181525050826001600160a01b03166360d442ca6040518163ffffffff1660e01b815260040160206040518083038186803b15801561211957600080fd5b505afa15801561212d573d6000803e3d6000fd5b505050506040513d601f19601f820116820180604052508101906121519190614f82565b8160038151811061215e57fe5b6020026020010151111561221d57612203836001600160a01b03166360d442ca6040518163ffffffff1660e01b815260040160206040518083038186803b1580156121a857600080fd5b505afa1580156121bc573d6000803e3d6000fd5b505050506040513d601f19601f820116820180604052508101906121e09190614f82565b826003815181106121ed57fe5b60200260200101516142c290919063ffffffff16565b8160038151811061221057fe5b6020026020010181815250505b826001600160a01b031663b9e675396040518163ffffffff1660e01b815260040160206040518083038186803b15801561225657600080fd5b505afa15801561226a573d6000803e3d6000fd5b505050506040513d601f19601f8201168201806040525081019061228e9190614f82565b8160038151811061229b57fe5b60200260200101511115612303576122e5836001600160a01b031663b9e675396040518163ffffffff1660e01b815260040160206040518083038186803b1580156121a857600080fd5b816003815181106122f257fe5b60200260200101818152505061231f565b60008160038151811061231257fe5b6020026020010181815250505b600061232a8f6142d2565b90508e6001600160a01b03166306fdde036040518163ffffffff1660e01b815260040160006040518083038186803b15801561236557600080fd5b505afa158015612379573d6000803e3d6000fd5b505050506040513d6000823e601f3d908101601f191682016040526123a19190810190614f9a565b8f6001600160a01b03166395d89b416040518163ffffffff1660e01b815260040160006040518083038186803b1580156123da57600080fd5b505afa1580156123ee573d6000803e3d6000fd5b505050506040513d6000823e601f3d908101601f191682016040526124169190810190614f9a565b6040518060a00160405280876001600160a01b03166302d05d3f6040518163ffffffff1660e01b815260040160206040518083038186803b15801561245a57600080fd5b505afa15801561246e573d6000803e3d6000fd5b505050506040513d601f19601f820116820180604052508101906124929190614bac565b6001600160a01b03166001600160a01b03168152602001876001600160a01b03166363f568b960006040518263ffffffff1660e01b81526004016124d691906154da565b60206040518083038186803b1580156124ee57600080fd5b505afa158015612502573d6000803e3d6000fd5b505050506040513d601f19601f820116820180604052508101906125269190614bac565b6001600160a01b03166001600160a01b03168152602001876001600160a01b03166363f568b960016040518263ffffffff1660e01b815260040161256a91906154da565b60206040518083038186803b15801561258257600080fd5b505afa158015612596573d6000803e3d6000fd5b505050506040513d601f19601f820116820180604052508101906125ba9190614bac565b6001600160a01b03166001600160a01b03168152602001876001600160a01b03166363f568b960026040518263ffffffff1660e01b81526004016125fe91906154da565b60206040518083038186803b15801561261657600080fd5b505afa15801561262a573d6000803e3d6000fd5b505050506040513d601f19601f8201168201806040525081019061264e9190614bac565b6001600160a01b03166001600160a01b03168152602001876001600160a01b03166363f568b960036040518263ffffffff1660e01b815260040161269291906154da565b60206040518083038186803b1580156126aa57600080fd5b505afa1580156126be573d6000803e3d6000fd5b505050506040513d601f19601f820116820180604052508101906126e29190614bac565b6001600160a01b03166001600160a01b0316815250866001600160a01b031663f85cb5c86040518163ffffffff1660e01b815260040160206040518083038186803b15801561273057600080fd5b505afa158015612744573d6000803e3d6000fd5b505050506040513d601f19601f820116820180604052508101906127689190614bac565b60405180608001604052806001151515158152602001896001600160a01b031663550c2b7f6040518163ffffffff1660e01b815260040160206040518083038186803b1580156127b757600080fd5b505afa1580156127cb573d6000803e3d6000fd5b505050506040513d601f19601f820116820180604052508101906127ef9190614f68565b151515158152602001896001600160a01b0316631780998b6040518163ffffffff1660e01b815260040160206040518083038186803b15801561283157600080fd5b505afa158015612845573d6000803e3d6000fd5b505050506040513d601f19601f820116820180604052508101906128699190614f68565b151515158152602001896001600160a01b03166377e7ff3c6040518163ffffffff1660e01b815260040160206040518083038186803b1580156128ab57600080fd5b505afa1580156128bf573d6000803e3d6000fd5b505050506040513d601f19601f820116820180604052508101906128e39190614f68565b15151515815250886001600160a01b031663b49a60bb6040518163ffffffff1660e01b815260040160006040518083038186803b15801561292357600080fd5b505afa158015612937573d6000803e3d6000fd5b505050506040513d6000823e601f3d908101601f1916820160405261295f9190810190614d1f565b896001600160a01b031663b304b8156040518163ffffffff1660e01b815260040160006040518083038186803b15801561299857600080fd5b505afa1580156129ac573d6000803e3d6000fd5b505050506040513d6000823e601f3d908101601f191682016040526129d49190810190614d1f565b6040518061016001604052808c6001600160a01b0316637550ed186040518163ffffffff1660e01b815260040160206040518083038186803b158015612a1957600080fd5b505afa158015612a2d573d6000803e3d6000fd5b505050506040513d601f19601f82011682018060405250810190612a519190614f82565b81526020018c6001600160a01b0316638bbde0fd6040518163ffffffff1660e01b815260040160206040518083038186803b158015612a8f57600080fd5b505afa158015612aa3573d6000803e3d6000fd5b505050506040513d601f19601f82011682018060405250810190612ac79190614f82565b81526020018c6001600160a01b03166386fa50636040518163ffffffff1660e01b815260040160206040518083038186803b158015612b0557600080fd5b505afa158015612b19573d6000803e3d6000fd5b505050506040513d601f19601f82011682018060405250810190612b3d9190614f82565b81526020018c6001600160a01b031663b63c44e76040518163ffffffff1660e01b815260040160206040518083038186803b158015612b7b57600080fd5b505afa158015612b8f573d6000803e3d6000fd5b505050506040513d601f19601f82011682018060405250810190612bb39190614f82565b81526020018c6001600160a01b0316635a16656a6040518163ffffffff1660e01b815260040160206040518083038186803b158015612bf157600080fd5b505afa158015612c05573d6000803e3d6000fd5b505050506040513d601f19601f82011682018060405250810190612c299190614f82565b81526020018c6001600160a01b03166395cdbedb6040518163ffffffff1660e01b815260040160206040518083038186803b158015612c6757600080fd5b505afa158015612c7b573d6000803e3d6000fd5b505050506040513d601f19601f82011682018060405250810190612c9f9190614f82565b81526020018c6001600160a01b031663297ce5986040518163ffffffff1660e01b815260040160206040518083038186803b158015612cdd57600080fd5b505afa158015612cf1573d6000803e3d6000fd5b505050506040513d601f19601f82011682018060405250810190612d159190614f82565b81526020018c6001600160a01b0316633deddb3f6040518163ffffffff1660e01b815260040160206040518083038186803b158015612d5357600080fd5b505afa158015612d67573d6000803e3d6000fd5b505050506040513d601f19601f82011682018060405250810190612d8b9190614f82565b81526020018c6001600160a01b031663aaffadf36040518163ffffffff1660e01b815260040160206040518083038186803b158015612dc957600080fd5b505afa158015612ddd573d6000803e3d6000fd5b505050506040513d601f19601f82011682018060405250810190612e019190614f82565b81526020018c6001600160a01b031663a63c643d6040518163ffffffff1660e01b815260040160206040518083038186803b158015612e3f57600080fd5b505afa158015612e53573d6000803e3d6000fd5b505050506040513d601f19601f82011682018060405250810190612e779190614f82565b8152602001612f678d6001600160a01b03166360d442ca6040518163ffffffff1660e01b815260040160206040518083038186803b158015612eb857600080fd5b505afa158015612ecc573d6000803e3d6000fd5b505050506040513d601f19601f82011682018060405250810190612ef09190614f82565b8e6001600160a01b031663a06931f96040518163ffffffff1660e01b815260040160206040518083038186803b158015612f2957600080fd5b505afa158015612f3d573d6000803e3d6000fd5b505050506040513d601f19601f82011682018060405250810190612f619190614f82565b90614199565b8152506040518061014001604052808c81526020018d6001600160a01b031663b9e675396040518163ffffffff1660e01b815260040160206040518083038186803b158015612fb557600080fd5b505afa158015612fc9573d6000803e3d6000fd5b505050506040513d601f19601f82011682018060405250810190612fed9190614f82565b81526020018d6001600160a01b031663792e42e26040518163ffffffff1660e01b815260040160206040518083038186803b15801561302b57600080fd5b505afa15801561303f573d6000803e3d6000fd5b505050506040513d601f19601f820116820180604052508101906130639190614f82565b81526020018d6001600160a01b031663cb12233b6040518163ffffffff1660e01b815260040160206040518083038186803b1580156130a157600080fd5b505afa1580156130b5573d6000803e3d6000fd5b505050506040513d601f19601f820116820180604052508101906130d99190614f82565b81526020018d6001600160a01b031663f251fc8c6040518163ffffffff1660e01b815260040160206040518083038186803b15801561311757600080fd5b505afa15801561312b573d6000803e3d6000fd5b505050506040513d601f19601f8201168201806040525081019061314f9190614f82565b81526020018d6001600160a01b0316638b0e9f3f6040518163ffffffff1660e01b815260040160206040518083038186803b15801561318d57600080fd5b505afa1580156131a1573d6000803e3d6000fd5b505050506040513d601f19601f820116820180604052508101906131c59190614f82565b815260200160008c6001815181106131d957fe5b6020026020010151116131ed576000613228565b6132288c6001815181106131fd57fe5b60200260200101518d60008151811061321257fe5b60200260200101516143d990919063ffffffff16565b81526020018b60008151811061323a57fe5b602002602001015181526020018b60028151811061325457fe5b602002602001015181526020018b60038151811061326e57fe5b6020026020010151815250899d509d509d509d509d509d509d509d509d509d50505050509193959799509193959799565b6000808290506000816001600160a01b031663f85cb5c86040518163ffffffff1660e01b815260040160206040518083038186803b1580156132e057600080fd5b505afa1580156132f4573d6000803e3d6000fd5b505050506040513d601f19601f820116820180604052508101906133189190614bac565b90506000613412836001600160a01b031663b9e675396040518163ffffffff1660e01b815260040160206040518083038186803b15801561335857600080fd5b505afa15801561336c573d6000803e3d6000fd5b505050506040513d601f19601f820116820180604052508101906133909190614f82565b6040516370a0823160e01b81526001600160a01b038516906370a08231906133bc9088906004016152a9565b60206040518083038186803b1580156133d457600080fd5b505afa1580156133e8573d6000803e3d6000fd5b505050506040513d601f19601f8201168201806040525081019061340c9190614f82565b906142c2565b905060008060009054906101000a90046001600160a01b03166001600160a01b031663313754776040518163ffffffff1660e01b815260040160206040518083038186803b15801561346357600080fd5b505afa158015613477573d6000803e3d6000fd5b505050506040513d601f19601f8201168201806040525081019061349b9190614f82565b90506000846001600160a01b031663b49a60bb6040518163ffffffff1660e01b815260040160006040518083038186803b1580156134d857600080fd5b505afa1580156134ec573d6000803e3d6000fd5b505050506040513d6000823e601f3d908101601f191682016040526135149190810190614d1f565b905060005b815181101561363e57600082828151811061353057fe5b602002602001015190506136336135b8826001600160a01b03166303cddb2c6040518163ffffffff1660e01b815260040160206040518083038186803b15801561357957600080fd5b505afa15801561358d573d6000803e3d6000fd5b505050506040513d601f19601f820116820180604052508101906135b19190614f82565b86906143d9565b612f61836001600160a01b03166303cddb2c6040518163ffffffff1660e01b815260040160206040518083038186803b1580156135f457600080fd5b505afa158015613608573d6000803e3d6000fd5b505050506040513d601f19601f8201168201806040525081019061362c9190614f82565b8890614199565b945050600101613519565b506000856001600160a01b031663b304b8156040518163ffffffff1660e01b815260040160006040518083038186803b15801561367a57600080fd5b505afa15801561368e573d6000803e3d6000fd5b505050506040513d6000823e601f3d908101601f191682016040526136b69190810190614d1f565b905060005b815181101561376c5760008282815181106136d257fe5b6020026020010151905061376161375a826001600160a01b03166303cddb2c6040518163ffffffff1660e01b815260040160206040518083038186803b15801561371b57600080fd5b505afa15801561372f573d6000803e3d6000fd5b505050506040513d601f19601f820116820180604052508101906137539190614f82565b87906143d9565b8790614199565b9550506001016136bb565b506137a9866001600160a01b031663a06931f96040518163ffffffff1660e01b815260040160206040518083038186803b158015611cce57600080fd5b93506000866001600160a01b031663792e42e26040518163ffffffff1660e01b815260040160206040518083038186803b1580156137e657600080fd5b505afa1580156137fa573d6000803e3d6000fd5b505050506040513d601f19601f8201168201806040525081019061381e9190614f82565b9050600081131561383a5761383385826142c2565b945061384b565b613848856000839003614199565b94505b5092955050505050505b919050565b60408051600a8082526101608201909252606091829185916000919060208201610140803683375050604051633d8270f560e01b8152919250506001600160a01b03831690633d8270f5906138b39088906004016152a9565b6101406040518083038186803b1580156138cc57600080fd5b505afa1580156138e0573d6000803e3d6000fd5b505050506040513d601f19601f82011682018060405250810190613904919061500f565b50895190925089915060009061391657fe5b602002602001018860018151811061392a57fe5b602002602001018960028151811061393e57fe5b602002602001018a60038151811061395257fe5b602002602001018b60048151811061396657fe5b602002602001018c60058151811061397a57fe5b602002602001018d60088151811061398e57fe5b60209081029190910101969096529590945294909352939052929052919052526040516370a0823160e01b81526001600160a01b038716906370a08231906139da9088906004016152a9565b60206040518083038186803b1580156139f257600080fd5b505afa158015613a06573d6000803e3d6000fd5b505050506040513d601f19601f82011682018060405250810190613a2a9190614f82565b81600681518110613a3757fe5b60209081029190910101526040517fc40868930000000000000000000000000000000000000000000000000000000081526001600160a01b0383169063c408689390613a879088906004016152a9565b60206040518083038186803b158015613a9f57600080fd5b505afa158015613ab3573d6000803e3d6000fd5b505050506040513d601f19601f82011682018060405250810190613ad79190614f82565b81600781518110613ae457fe5b60200260200101818152505060008060009054906101000a90046001600160a01b03166001600160a01b0316633f2a55406040518163ffffffff1660e01b815260040160206040518083038186803b158015613b3f57600080fd5b505afa158015613b53573d6000803e3d6000fd5b505050506040513d601f19601f82011682018060405250810190613b779190614bac565b6001600160a01b03166369795e938888866001600160a01b031663b304b8156040518163ffffffff1660e01b815260040160006040518083038186803b158015613bc057600080fd5b505afa158015613bd4573d6000803e3d6000fd5b505050506040513d6000823e601f3d908101601f19168201604052613bfc9190810190614d1f565b6040518463ffffffff1660e01b8152600401613c1a939291906152d7565b60006040518083038186803b158015613c3257600080fd5b505afa158015613c46573d6000803e3d6000fd5b505050506040513d6000823e601f3d908101601f19168201604052613c6e9190810190614ee4565b9050613c7a878761138a565b82600981518110613c8757fe5b602090810291909101015290969095509350505050565b6000546001600160a01b031681565b6000816001600160a01b0316836001600160a01b03161415613cdd57506c0c9f2c9cd04674edea400000006114d2565b6000613ce984846143f1565b5090506001600160a01b038116613d045760009150506114d2565b6000816001600160a01b0316631a6865026040518163ffffffff1660e01b815260040160206040518083038186803b158015613d3f57600080fd5b505afa158015613d53573d6000803e3d6000fd5b505050506040513d601f19601f82011682018060405250810190613d779190614fe8565b6001600160801b03169050600080856001600160a01b0316846001600160a01b0316630dfe16816040518163ffffffff1660e01b815260040160206040518083038186803b158015613dc857600080fd5b505afa158015613ddc573d6000803e3d6000fd5b505050506040513d601f19601f82011682018060405250810190613e009190614bac565b6001600160a01b03161415613f8857613f0e846001600160a01b031663d21220a76040518163ffffffff1660e01b815260040160206040518083038186803b158015613e4b57600080fd5b505afa158015613e5f573d6000803e3d6000fd5b505050506040513d601f19601f82011682018060405250810190613e839190614bac565b6001600160a01b03166370a08231866040518263ffffffff1660e01b8152600401613eae91906152a9565b60206040518083038186803b158015613ec657600080fd5b505afa158015613eda573d6000803e3d6000fd5b505050506040513d601f19601f82011682018060405250810190613efe9190614f82565b613f0885806147f3565b90614817565b9150836001600160a01b0316630dfe16816040518163ffffffff1660e01b815260040160206040518083038186803b158015613f4957600080fd5b505afa158015613f5d573d6000803e3d6000fd5b505050506040513d601f19601f82011682018060405250810190613f819190614bac565b905061403a565b613fc4846001600160a01b0316630dfe16816040518163ffffffff1660e01b815260040160206040518083038186803b158015613e4b57600080fd5b9150836001600160a01b031663d21220a76040518163ffffffff1660e01b815260040160206040518083038186803b158015613fff57600080fd5b505afa158015614013573d6000803e3d6000fd5b505050506040513d601f19601f820116820180604052508101906140379190614bac565b90505b856001600160a01b0316816001600160a01b0316146141775760008060009054906101000a90046001600160a01b03166001600160a01b0316632630c12f6040518163ffffffff1660e01b815260040160206040518083038186803b1580156140a257600080fd5b505afa1580156140b6573d6000803e3d6000fd5b505050506040513d601f19601f820116820180604052508101906140da9190614bac565b90506000816001600160a01b031663ac41865a848a6040518363ffffffff1660e01b815260040161410c9291906152bd565b60206040518083038186803b15801561412457600080fd5b505afa158015614138573d6000803e3d6000fd5b505050506040513d601f19601f8201168201806040525081019061415c9190614f82565b9050614172838961416d87856143d9565b61487e565b935050505b5095945050505050565b6000611d1882613f0885670de0b6b3a76400006147f3565b808201828110156114d257600080fd5b6000808212156141bc57816000036114d2565b5090565b60008060009054906101000a90046001600160a01b03166001600160a01b031663ead4c1cf6040518163ffffffff1660e01b815260040160206040518083038186803b15801561420f57600080fd5b505afa158015614223573d6000803e3d6000fd5b505050506040513d601f19601f820116820180604052508101906142479190614bac565b6001600160a01b031663181df307836040518263ffffffff1660e01b815260040161427291906152a9565b60206040518083038186803b15801561428a57600080fd5b505afa15801561429e573d6000803e3d6000fd5b505050506040513d601f19601f820116820180604052508101906114d29190614f82565b808203828111156114d257600080fd5b6142da614b0e565b60008054906101000a90046001600160a01b03166001600160a01b0316633f2a55406040518163ffffffff1660e01b815260040160206040518083038186803b15801561432657600080fd5b505afa15801561433a573d6000803e3d6000fd5b505050506040513d601f19601f8201168201806040525081019061435e9190614bac565b6001600160a01b031663070e8a4a836040518263ffffffff1660e01b815260040161438991906152a9565b60606040518083038186803b1580156143a157600080fd5b505afa1580156143b5573d6000803e3d6000fd5b505050506040513d601f19601f820116820180604052508101906114d29190614e68565b6000611d18670de0b6b3a7640000613f0885856147f3565b604051630b4c774160e11b815260009081908190731f98431c8ad98523631ae4a59f267346ea31f98490631698ee829061443590889088906101f49060040161530c565b60206040518083038186803b15801561444d57600080fd5b505afa158015614461573d6000803e3d6000fd5b505050506040513d601f19601f820116820180604052508101906144859190614bac565b604051630b4c774160e11b8152909150600090731f98431c8ad98523631ae4a59f267346ea31f98490631698ee82906144c89089908990610bb89060040161530c565b60206040518083038186803b1580156144e057600080fd5b505afa1580156144f4573d6000803e3d6000fd5b505050506040513d601f19601f820116820180604052508101906145189190614bac565b604051630b4c774160e11b8152909150600090731f98431c8ad98523631ae4a59f267346ea31f98490631698ee829061455b908a908a906127109060040161530c565b60206040518083038186803b15801561457357600080fd5b505afa158015614587573d6000803e3d6000fd5b505050506040513d601f19601f820116820180604052508101906145ab9190614bac565b905060006001600160a01b0384166145c4576000614635565b836001600160a01b0316631a6865026040518163ffffffff1660e01b815260040160206040518083038186803b1580156145fd57600080fd5b505afa158015614611573d6000803e3d6000fd5b505050506040513d601f19601f820116820180604052508101906146359190614fe8565b905060006001600160a01b03841661464e5760006146bf565b836001600160a01b0316631a6865026040518163ffffffff1660e01b815260040160206040518083038186803b15801561468757600080fd5b505afa15801561469b573d6000803e3d6000fd5b505050506040513d601f19601f820116820180604052508101906146bf9190614fe8565b905060006001600160a01b0384166146d8576000614749565b836001600160a01b0316631a6865026040518163ffffffff1660e01b815260040160206040518083038186803b15801561471157600080fd5b505afa158015614725573d6000803e3d6000fd5b505050506040513d601f19601f820116820180604052508101906147499190614fe8565b9050816001600160801b0316836001600160801b031611801561477e5750806001600160801b0316836001600160801b031610155b1561479657856101f497509750505050505050610553565b826001600160801b0316826001600160801b03161180156147c95750806001600160801b0316826001600160801b031610155b156147e15784610bb897509750505050505050610553565b50919861271098509650505050505050565b600082158061480e5750508181028183828161480b57fe5b04145b6114d257600080fd5b600080821161486d576040805162461bcd60e51b815260206004820152601a60248201527f536166654d6174683a206469766973696f6e206279207a65726f000000000000604482015290519081900360640190fd5b81838161487657fe5b049392505050565b60008061488a85614a3f565b6148f857846001600160a01b031663313ce5676040518163ffffffff1660e01b815260040160206040518083038186803b1580156148c757600080fd5b505afa1580156148db573d6000803e3d6000fd5b505050506040513d60208110156148f157600080fd5b50516148fb565b60125b60ff169050600061490b85614a3f565b61497957846001600160a01b031663313ce5676040518163ffffffff1660e01b815260040160206040518083038186803b15801561494857600080fd5b505afa15801561495c573d6000803e3d6000fd5b505050506040513d602081101561497257600080fd5b505161497c565b60125b60ff16905060128211158015614993575060128111155b6149e4576040805162461bcd60e51b815260206004820152601460248201527f556e737570706f7274656420646563696d616c73000000000000000000000000604482015290519081900360640190fd5b808214156149f6578392505050611d18565b81811115614a1e57614a15614a0b82846142c2565b8590600a0a6147f3565b92505050611d18565b614a35614a2b83836142c2565b8590600a0a614817565b9695505050505050565b600073eeeeeeeeeeeeeeeeeeeeeeeeeeeeeeeeeeeeeeee6001600160a01b03831614806114d25750506001600160a01b03161590565b604051806101a00160405280600d906020820280368337509192915050565b6040518060a001604052806005906020820280368337509192915050565b60405180608001604052806004906020820280368337509192915050565b604051806101600160405280600b906020820280368337509192915050565b604051806101400160405280600a906020820280368337509192915050565b60405180606001604052806003906020820280368337509192915050565b600067ffffffffffffffff831115614b4057fe5b614b53601f8401601f19166020016155d6565b9050828152838383011115614b6757600080fd5b611d18836020830184615618565b803561385581615644565b8051801515811461385557600080fd5b600060208284031215614ba1578081fd5b8135611d1881615644565b600060208284031215614bbd578081fd5b8151611d1881615644565b60008060408385031215614bda578081fd5b8235614be581615644565b91506020830135614bf581615644565b809150509250929050565b600080600060408486031215614c14578081fd5b8335614c1f81615644565b9250602084013567ffffffffffffffff80821115614c3b578283fd5b818601915086601f830112614c4e578283fd5b813581811115614c5c578384fd5b8760208083028501011115614c6f578384fd5b6020830194508093505050509250925092565b600080600080600080600060e0888a031215614c9c578485fd5b8751614ca781615644565b9650614cb560208901614b80565b9550614cc360408901614b80565b9450614cd160608901614b80565b93506080880151925060a0880151915060c0880151905092959891949750929550565b60008060408385031215614d06578182fd5b8235614d1181615644565b946020939093013593505050565b60006020808385031215614d31578182fd5b825167ffffffffffffffff811115614d47578283fd5b8301601f81018513614d57578283fd5b8051614d6a614d65826155fa565b6155d6565b8181528381019083850185840285018601891015614d86578687fd5b8694505b83851015614db1578051614d9d81615644565b835260019490940193918501918501614d8a565b50979650505050505050565b60008060408385031215614dcf578182fd5b823567ffffffffffffffff811115614de5578283fd5b8301601f81018513614df5578283fd5b80356020614e05614d65836155fa565b82815281810190848301838502860184018a1015614e21578788fd5b8795505b84861015614e4c578035614e3881615644565b835260019590950194918301918301614e25565b509550614e5c9050868201614b75565b93505050509250929050565b600060608284031215614e79578081fd5b82601f830112614e87578081fd5b6040516060810181811067ffffffffffffffff82111715614ea457fe5b604052808360608101861015614eb8578384fd5b835b6003811015614ed9578151835260209283019290910190600101614eba565b509195945050505050565b60006020808385031215614ef6578182fd5b825167ffffffffffffffff811115614f0c578283fd5b8301601f81018513614f1c578283fd5b8051614f2a614d65826155fa565b8181528381019083850185840285018601891015614f46578687fd5b8694505b83851015614db1578051835260019490940193918501918501614f4a565b600060208284031215614f79578081fd5b611d1882614b80565b600060208284031215614f93578081fd5b5051919050565b600060208284031215614fab578081fd5b815167ffffffffffffffff811115614fc1578182fd5b8201601f81018413614fd1578182fd5b614fe084825160208401614b2c565b949350505050565b600060208284031215614ff9578081fd5b81516001600160801b0381168114611d18578182fd5b6000806000806000806000806000806101408b8d03121561502e578384fd5b8a51995060208b0151985060408b0151975060608b0151965060808b0151955060a08b0151945060c08b0151935060e08b015192506101008b015191506101208b015190509295989b9194979a5092959850565b600080600060608486031215615096578081fd5b835160ff811681146150a6578182fd5b60208501519093506150b781615644565b604085015190925067ffffffffffffffff8111156150d3578182fd5b8401601f810186136150e3578182fd5b6150f286825160208401614b2c565b9150509250925092565b60006020828403121561510d578081fd5b81516bffffffffffffffffffffffff81168114611d18578182fd5b6001600160a01b0316815260200190565b6001600160a01b03169052565b6000815180845260208085019450808401835b8381101561517e5781516001600160a01b031687529582019590820190600101615159565b509495945050505050565b8060005b60048110156151ae578151151584526020938401939091019060010161518d565b50505050565b6000815180845260208085019450808401835b8381101561517e5781511515875295820195908201906001016151c7565b8060005b600a8110156151ae5781518452602093840193909101906001016151e9565b8060005b600b8110156151ae57815184526020938401939091019060010161520c565b8060005b60038110156151ae57815184526020938401939091019060010161522f565b6000815180845260208085019450808401835b8381101561517e57815187529582019590820190600101615261565b60008151808452615295816020860160208601615618565b601f01601f19169290920160200192915050565b6001600160a01b0391909116815260200190565b6001600160a01b0392831681529116602082015260400190565b60006001600160a01b038086168352808516602084015250606060408301526153036060830184615146565b95945050505050565b6001600160a01b03938416815291909216602082015262ffffff909116604082015260600190565b60006102206001600160a01b0388168352602081818501526153588285018961527d565b91506040840187845b600d81101561537e57815183529183019190830190600101615361565b505050508281036101e084015261539581866151b4565b90508281036102008401526153aa818561524e565b98975050505050505050565b6000604082526153c96040830185615146565b828103602084015261530381856151b4565b6000604082526153ee604083018561524e565b8281036020840152615303818561524e565b606080825284519082018190526000906020906080840190828801845b8281101561543c57815160ff168452928401929084019060010161541d565b505050838103828501526154508187615146565b848103604086015285518082529091508282019083810283018401848801865b8381101561549e57601f1986840301855261548c83835161527d565b94870194925090860190600101615470565b50909a9950505050505050505050565b91151582521515602082015260400190565b921515835290151560208301521515604082015260600190565b90815260200190565b60006104c08083526154f78184018e61527d565b905060208382038185015261550c828e61527d565b9150604084018c845b600581101561553757615529838351615128565b925090830190600101615515565b5050505061554860e084018b615139565b61555661010084018a615189565b8281036101808401526155698189615146565b90508281036101a084015261557e8188615146565b91505061558f6101c0830186615208565b61559d6103208301856151e5565b6155ab61046083018461522b565b9b9a5050505050505050505050565b918252602082015260400190565b60ff91909116815260200190565b60405181810167ffffffffffffffff811182821017156155f257fe5b604052919050565b600067ffffffffffffffff82111561560e57fe5b5060209081020190565b60005b8381101561563357818101518382015260200161561b565b838111156151ae5750506000910152565b6001600160a01b038116811461565957600080fd5b5056fea2646970667358221220aae38765c31551a1769e0d677725a22bb4a5d6a479d2f09b9873f613ebef79e264736f6c63430007060033",
  "devdoc": {
    "author": "Babylon Finance Class that holds common view functions to retrieve garden information effectively",
    "kind": "dev",
    "methods": {
      "getCompleteStrategy(address)": {
        "params": {
          "_strategy": "Address of the strategy to fetch"
        },
        "returns": {
          "_0": "All strategy details"
        }
      },
      "getGardenDetails(address)": {
        "params": {
          "_garden": "Address of the garden to fetch"
        },
        "returns": {
          "_0": "Garden complete details"
        }
      },
      "getGardenPrincipal(address)": {
        "params": {
          "_garden": "Address of the garden to fetch"
        },
        "returns": {
          "_0": "Garden principal"
        }
      },
      "getPotentialVotes(address,address[])": {
        "params": {
          "_garden": "Garden to retrieve votes for",
          "_members": "All members of a garden"
        },
        "returns": {
          "_0": "uint256 Total number of tokens that can vote"
        }
      }
    },
    "title": "BabylonViewer",
    "version": 1
  },
  "userdoc": {
    "kind": "user",
    "methods": {
      "getCompleteStrategy(address)": {
        "notice": "Gets complete strategy details"
      },
      "getGardenDetails(address)": {
        "notice": "Gets garden details"
      },
      "getGardenPrincipal(address)": {
        "notice": "Gets garden principal"
      },
      "getPotentialVotes(address,address[])": {
        "notice": "Gets the number of tokens that can vote in this garden"
      }
    },
    "version": 1
  },
  "storageLayout": {
    "storage": [
      {
        "astId": 10618,
        "contract": "contracts/BabylonViewer.sol:BabylonViewer",
        "label": "controller",
        "offset": 0,
        "slot": "0",
        "type": "t_contract(IBabController)33953"
      }
    ],
    "types": {
      "t_contract(IBabController)33953": {
        "encoding": "inplace",
        "label": "contract IBabController",
        "numberOfBytes": "20"
      }
    }
  }
}