{
  "address": "0x4d8002a8f47d1dBDA6e6f4555786E43ECCfE8827",
  "abi": [
    {
      "inputs": [
        {
          "internalType": "contract IBabController",
          "name": "_controller",
          "type": "address"
        }
      ],
      "stateMutability": "nonpayable",
      "type": "constructor"
    },
    {
      "inputs": [],
      "name": "controller",
      "outputs": [
        {
          "internalType": "contract IBabController",
          "name": "",
          "type": "address"
        }
      ],
      "stateMutability": "view",
      "type": "function"
    },
    {
      "inputs": [
        {
          "internalType": "address",
          "name": "_strategy",
          "type": "address"
        }
      ],
      "name": "getCompleteStrategy",
      "outputs": [
        {
          "internalType": "address",
          "name": "",
          "type": "address"
        },
        {
          "internalType": "string",
          "name": "",
          "type": "string"
        },
        {
          "internalType": "uint256[12]",
          "name": "",
          "type": "uint256[12]"
        },
        {
          "internalType": "bool[]",
          "name": "",
          "type": "bool[]"
        },
        {
          "internalType": "uint256[]",
          "name": "",
          "type": "uint256[]"
        }
      ],
      "stateMutability": "view",
      "type": "function"
    },
    {
      "inputs": [
        {
          "internalType": "address",
          "name": "_garden",
          "type": "address"
        },
        {
          "internalType": "address",
          "name": "_user",
          "type": "address"
        }
      ],
      "name": "getContributionAndRewards",
      "outputs": [
        {
          "internalType": "uint256[]",
          "name": "",
          "type": "uint256[]"
        },
        {
          "internalType": "uint256[]",
          "name": "",
          "type": "uint256[]"
        }
      ],
      "stateMutability": "view",
      "type": "function"
    },
    {
      "inputs": [
        {
          "internalType": "address",
          "name": "_garden",
          "type": "address"
        }
      ],
      "name": "getGardenDetails",
      "outputs": [
        {
          "internalType": "string",
          "name": "",
          "type": "string"
        },
        {
          "internalType": "string",
          "name": "",
          "type": "string"
        },
        {
          "internalType": "address",
          "name": "",
          "type": "address"
        },
        {
          "internalType": "address",
          "name": "",
          "type": "address"
        },
        {
          "internalType": "bool[2]",
          "name": "",
          "type": "bool[2]"
        },
        {
          "internalType": "address[]",
          "name": "",
          "type": "address[]"
        },
        {
          "internalType": "address[]",
          "name": "",
          "type": "address[]"
        },
        {
          "internalType": "uint256[11]",
          "name": "",
          "type": "uint256[11]"
        },
        {
          "internalType": "uint256[10]",
          "name": "",
          "type": "uint256[10]"
        }
      ],
      "stateMutability": "view",
      "type": "function"
    },
    {
      "inputs": [
        {
          "internalType": "address",
          "name": "_garden",
          "type": "address"
        },
        {
          "internalType": "address",
          "name": "_user",
          "type": "address"
        }
      ],
      "name": "getGardenPermissions",
      "outputs": [
        {
          "internalType": "bool",
          "name": "",
          "type": "bool"
        },
        {
          "internalType": "bool",
          "name": "",
          "type": "bool"
        },
        {
          "internalType": "bool",
          "name": "",
          "type": "bool"
        }
      ],
      "stateMutability": "view",
      "type": "function"
    },
    {
      "inputs": [
        {
          "internalType": "address",
          "name": "_user",
          "type": "address"
        },
        {
          "internalType": "uint256",
          "name": "_offset",
          "type": "uint256"
        }
      ],
      "name": "getGardensUser",
      "outputs": [
        {
          "internalType": "address[]",
          "name": "",
          "type": "address[]"
        },
        {
          "internalType": "bool[]",
          "name": "",
          "type": "bool[]"
        }
      ],
      "stateMutability": "view",
      "type": "function"
    },
    {
      "inputs": [
        {
          "internalType": "address",
          "name": "_strategy",
          "type": "address"
        }
      ],
      "name": "getOperationsStrategy",
      "outputs": [
        {
          "internalType": "uint8[]",
          "name": "",
          "type": "uint8[]"
        },
        {
          "internalType": "address[]",
          "name": "",
          "type": "address[]"
        },
        {
          "internalType": "address[]",
          "name": "",
          "type": "address[]"
        }
      ],
      "stateMutability": "view",
      "type": "function"
    },
    {
      "inputs": [
        {
          "internalType": "address",
          "name": "_user",
          "type": "address"
        }
      ],
      "name": "getPermissions",
      "outputs": [
        {
          "internalType": "bool",
          "name": "",
          "type": "bool"
        },
        {
          "internalType": "bool",
          "name": "",
          "type": "bool"
        }
      ],
      "stateMutability": "view",
      "type": "function"
    },
    {
      "inputs": [
        {
          "internalType": "address[]",
          "name": "_strategies",
          "type": "address[]"
        },
        {
          "internalType": "address",
          "name": "_user",
          "type": "address"
        }
      ],
      "name": "getUserStrategyActions",
      "outputs": [
        {
          "internalType": "uint256",
          "name": "",
          "type": "uint256"
        },
        {
          "internalType": "uint256",
          "name": "",
          "type": "uint256"
        }
      ],
      "stateMutability": "view",
      "type": "function"
    }
  ],
  "transactionHash": "0x049799dd5c6395999247d93051b12a2d1d2b492baed961e5b1aef10816fbc824",
  "args": [
    "0xD4a5b5fcB561dAF3aDF86F8477555B92FBa43b5F"
  ],
  "solcInputHash": "00647010c4a05b8972421e1312a933a7",
  "bytecode": "0x608060405234801561001057600080fd5b5060405162003ad538038062003ad58339818101604052602081101561003557600080fd5b50516001600160a01b038116610092576040805162461bcd60e51b815260206004820152601560248201527f436f6e74726f6c6c6572206d7573742065786973740000000000000000000000604482015290519081900360640190fd5b600080546001600160a01b039092166001600160a01b0319909216919091179055613a1280620000c36000396000f3fe608060405234801561001057600080fd5b50600436106100a35760003560e01c8063a63037da11610076578063d005ce5c1161005b578063d005ce5c14610529578063ede1209e14610756578063f77c479114610784576100a3565b8063a63037da14610360578063b105b04414610464576100a3565b8063160a7925146100a85780634c038f20146100e95780635dcb4959146101395780639ab0542614610299575b600080fd5b6100ce600480360360208110156100be57600080fd5b50356001600160a01b03166107a8565b60408051921515835290151560208301528051918290030190f35b610117600480360360408110156100ff57600080fd5b506001600160a01b0381358116916020013516610940565b6040805193151584529115156020840152151582820152519081900360600190f35b61015f6004803603602081101561014f57600080fd5b50356001600160a01b0316610b95565b60405180866001600160a01b031681526020018060200185600c60200280838360005b8381101561019a578181015183820152602001610182565b505050509050018060200180602001848103845288818151815260200191508051906020019080838360005b838110156101de5781810151838201526020016101c6565b50505050905090810190601f16801561020b5780820380516001836020036101000a031916815260200191505b508481038352865181528651602091820191808901910280838360005b83811015610240578181015183820152602001610228565b50505050905001848103825285818151815260200191508051906020019060200280838360005b8381101561027f578181015183820152602001610267565b505050509050019850505050505050505060405180910390f35b610347600480360360408110156102af57600080fd5b8101906020810181356401000000008111156102ca57600080fd5b8201836020820111156102dc57600080fd5b803590602001918460208302840111640100000000831117156102fe57600080fd5b919080806020026020016040519081016040528093929190818152602001838360200280828437600092019190915250929550505090356001600160a01b031691506117619050565b6040805192835260208301919091528051918290030190f35b6103866004803603602081101561037657600080fd5b50356001600160a01b03166118cc565b60405180806020018060200180602001848103845287818151815260200191508051906020019060200280838360005b838110156103ce5781810151838201526020016103b6565b50505050905001848103835286818151815260200191508051906020019060200280838360005b8381101561040d5781810151838201526020016103f5565b50505050905001848103825285818151815260200191508051906020019060200280838360005b8381101561044c578181015183820152602001610434565b50505050905001965050505050505060405180910390f35b6104906004803603604081101561047a57600080fd5b506001600160a01b038135169060200135611b1a565b604051808060200180602001838103835285818151815260200191508051906020019060200280838360005b838110156104d45781810151838201526020016104bc565b50505050905001838103825284818151815260200191508051906020019060200280838360005b838110156105135781810151838201526020016104fb565b5050505090500194505050505060405180910390f35b61054f6004803603602081101561053f57600080fd5b50356001600160a01b0316611fd5565b6040518080602001806020018a6001600160a01b03168152602001896001600160a01b0316815260200188600260200280838360005b8381101561059d578181015183820152602001610585565b505050920191505060208101604082018761016080838360005b838110156105cf5781810151838201526020016105b7565b5050505090500186600a60200280838360005b838110156105fa5781810151838201526020016105e2565b5050505090500185810385528e818151815260200191508051906020019080838360005b8381101561063657818101518382015260200161061e565b50505050905090810190601f1680156106635780820380516001836020036101000a031916815260200191505b5085810384528d5181528d516020918201918f019080838360005b8381101561069657818101518382015260200161067e565b50505050905090810190601f1680156106c35780820380516001836020036101000a031916815260200191505b508581038352895181528951602091820191808c01910280838360005b838110156106f85781810151838201526020016106e0565b50505050905001858103825288818151815260200191508051906020019060200280838360005b8381101561073757818101518382015260200161071f565b505050509050019d505050505050505050505050505060405180910390f35b6104906004803603604081101561076c57600080fd5b506001600160a01b038135811691602001351661316d565b61078c61371f565b604080516001600160a01b039092168252519081900360200190f35b60008060008060009054906101000a90046001600160a01b03166001600160a01b031663c8ed947f6040518163ffffffff1660e01b815260040160206040518083038186803b1580156107fa57600080fd5b505afa15801561080e573d6000803e3d6000fd5b505050506040513d602081101561082457600080fd5b5051604080516370a0823160e01b81526001600160a01b0387811660048301529151929350600092918416916370a0823191602480820192602092909190829003018186803b15801561087657600080fd5b505afa15801561088a573d6000803e3d6000fd5b505050506040513d60208110156108a057600080fd5b5051604080517f7804a5dc0000000000000000000000000000000000000000000000000000000081526001600160a01b0388811660048301529151939092119290841691637804a5dc916024808301926020929190829003018186803b15801561090957600080fd5b505afa15801561091d573d6000803e3d6000fd5b505050506040513d602081101561093357600080fd5b5051909350915050915091565b60008060008060008054906101000a90046001600160a01b03166001600160a01b031663c8ed947f6040518163ffffffff1660e01b815260040160206040518083038186803b15801561099257600080fd5b505afa1580156109a6573d6000803e3d6000fd5b505050506040513d60208110156109bc57600080fd5b5051604080517fc7ec5d5d0000000000000000000000000000000000000000000000000000000081526001600160a01b038981166004830152888116602483015291519293509083169163c7ec5d5d91604480820192602092909190829003018186803b158015610a2c57600080fd5b505afa158015610a40573d6000803e3d6000fd5b505050506040513d6020811015610a5657600080fd5b5051604080517f4d98fbf00000000000000000000000000000000000000000000000000000000081526001600160a01b0389811660048301528881166024830152915191841691634d98fbf091604480820192602092909190829003018186803b158015610ac357600080fd5b505afa158015610ad7573d6000803e3d6000fd5b505050506040513d6020811015610aed57600080fd5b5051604080517f5066c7140000000000000000000000000000000000000000000000000000000081526001600160a01b038a811660048301528981166024830152915191851691635066c71491604480820192602092909190829003018186803b158015610b5a57600080fd5b505afa158015610b6e573d6000803e3d6000fd5b505050506040513d6020811015610b8457600080fd5b505191955093509150509250925092565b60006060610ba1613961565b604080516003808252608082019092526060918291879160009190602082018580368337505060408051600480825260a08201909252929350600092915060208201608080368337019050509050826001600160a01b031663bf1dcfe26040518163ffffffff1660e01b815260040160e06040518083038186803b158015610c2857600080fd5b505afa158015610c3c573d6000803e3d6000fd5b505050506040513d60e0811015610c5257600080fd5b50602081015160408201516060830151608084015160a085015160c090950151875194959394929391928890600090610c8757fe5b6020026020010188600181518110610c9b57fe5b6020026020010189600281518110610caf57fe5b6020026020010189600081518110610cc357fe5b602002602001018a600181518110610cd757fe5b602002602001018b600281518110610ceb57fe5b6020908102919091018101969096529590955294909352931515909252921515909252911515909152604080517fd0f9953e00000000000000000000000000000000000000000000000000000000815290516000926001600160a01b0387169263d0f9953e9260048083019392829003018186803b158015610d6c57600080fd5b505afa158015610d80573d6000803e3d6000fd5b505050506040513d6020811015610d9657600080fd5b5051610da3576000610eab565b60008054906101000a90046001600160a01b03166001600160a01b0316633f2a55406040518163ffffffff1660e01b815260040160206040518083038186803b158015610def57600080fd5b505afa158015610e03573d6000803e3d6000fd5b505050506040513d6020811015610e1957600080fd5b5051604080517f9de9a0520000000000000000000000000000000000000000000000000000000081526001600160a01b038d8116600483015291519190921691639de9a052916024808301926020929190829003018186803b158015610e7e57600080fd5b505afa158015610e92573d6000803e3d6000fd5b505050506040513d6020811015610ea857600080fd5b50515b6bffffffffffffffffffffffff169050836001600160a01b031663a30ca2046040518163ffffffff1660e01b815260040160206040518083038186803b158015610ef457600080fd5b505afa158015610f08573d6000803e3d6000fd5b505050506040513d6020811015610f1e57600080fd5b5051825183906003908110610f2f57fe5b602002602001018181525050836001600160a01b0316631fe4a6866040518163ffffffff1660e01b815260040160206040518083038186803b158015610f7457600080fd5b505afa158015610f88573d6000803e3d6000fd5b505050506040513d6020811015610f9e57600080fd5b5051600054604080517fd6a45aa500000000000000000000000000000000000000000000000000000000815290516001600160a01b039092169163d6a45aa591600480820192602092909190829003018186803b158015610ffe57600080fd5b505afa158015611012573d6000803e3d6000fd5b505050506040513d602081101561102857600080fd5b5051604080517f23b0e4150000000000000000000000000000000000000000000000000000000081526001600160a01b038e81166004830152915191909216916323b0e415916024808301926000929190829003018186803b15801561108d57600080fd5b505afa1580156110a1573d6000803e3d6000fd5b505050506040513d6000823e601f3d908101601f1916820160405260208110156110ca57600080fd5b81019080805160405193929190846401000000008211156110ea57600080fd5b9083019060208201858111156110ff57600080fd5b825164010000000081118282018810171561111957600080fd5b82525081516020918201929091019080838360005b8381101561114657818101518382015260200161112e565b50505050905090810190601f1680156111735780820380516001836020036101000a031916815260200191505b50604052505050604051806101800160405280876001600160a01b031663dd1033f86040518163ffffffff1660e01b815260040160206040518083038186803b1580156111bf57600080fd5b505afa1580156111d3573d6000803e3d6000fd5b505050506040513d60208110156111e957600080fd5b50518152604080517f3a4b66f100000000000000000000000000000000000000000000000000000000815290516020928301926001600160a01b038b1692633a4b66f19260048083019392829003018186803b15801561124857600080fd5b505afa15801561125c573d6000803e3d6000fd5b505050506040513d602081101561127257600080fd5b50518152604080517fd40244cb00000000000000000000000000000000000000000000000000000000815290516020928301926001600160a01b038b169263d40244cb9260048083019392829003018186803b1580156112d157600080fd5b505afa1580156112e5573d6000803e3d6000fd5b505050506040513d60208110156112fb57600080fd5b50518152604080517f449b982600000000000000000000000000000000000000000000000000000000815290516020928301926001600160a01b038b169263449b98269260048083019392829003018186803b15801561135a57600080fd5b505afa15801561136e573d6000803e3d6000fd5b505050506040513d602081101561138457600080fd5b50518152604080517f03cddb2c00000000000000000000000000000000000000000000000000000000815290516020928301926001600160a01b038b16926303cddb2c9260048083019392829003018186803b1580156113e357600080fd5b505afa1580156113f7573d6000803e3d6000fd5b505050506040513d602081101561140d57600080fd5b50518152604080517f03976e3800000000000000000000000000000000000000000000000000000000815290516020928301926001600160a01b038b16926303976e389260048083019392829003018186803b15801561146c57600080fd5b505afa158015611480573d6000803e3d6000fd5b505050506040513d602081101561149657600080fd5b50518152604080517f0fb5a6b400000000000000000000000000000000000000000000000000000000815290516020928301926001600160a01b038b1692630fb5a6b49260048083019392829003018186803b1580156114f557600080fd5b505afa158015611509573d6000803e3d6000fd5b505050506040513d602081101561151f57600080fd5b50518152604080517fd3406abd00000000000000000000000000000000000000000000000000000000815290516020928301926001600160a01b038b169263d3406abd9260048083019392829003018186803b15801561157e57600080fd5b505afa158015611592573d6000803e3d6000fd5b505050506040513d60208110156115a857600080fd5b50518152604080517f93baae4100000000000000000000000000000000000000000000000000000000815290516020928301926001600160a01b038b16926393baae419260048083019392829003018186803b15801561160757600080fd5b505afa15801561161b573d6000803e3d6000fd5b505050506040513d602081101561163157600080fd5b50518152604080517f6db9cc9900000000000000000000000000000000000000000000000000000000815290516020928301926001600160a01b038b1692636db9cc999260048083019392829003018186803b15801561169057600080fd5b505afa1580156116a4573d6000803e3d6000fd5b505050506040513d60208110156116ba57600080fd5b50518152604080517f0126c60600000000000000000000000000000000000000000000000000000000815290516020928301926001600160a01b038b1692630126c6069260048083019392829003018186803b15801561171957600080fd5b505afa15801561172d573d6000803e3d6000fd5b505050506040513d602081101561174357600080fd5b5051815260200193909352909b909a50909850919650945092505050565b60008060008060005b86518160ff1610156118c0576000878260ff168151811061178757fe5b60200260200101519050866001600160a01b0316816001600160a01b0316631fe4a6866040518163ffffffff1660e01b815260040160206040518083038186803b1580156117d457600080fd5b505afa1580156117e8573d6000803e3d6000fd5b505050506040513d60208110156117fe57600080fd5b50516001600160a01b0316141561181d5761181a84600161372e565b93505b6000816001600160a01b031663950c7822896040518263ffffffff1660e01b815260040180826001600160a01b0316815260200191505060206040518083038186803b15801561186c57600080fd5b505afa158015611880573d6000803e3d6000fd5b505050506040513d602081101561189657600080fd5b5051905080156118b6576118b36118ac82613791565b859061372e565b93505b505060010161176a565b50909590945092505050565b606080606060008490506000816001600160a01b031663dd1033f86040518163ffffffff1660e01b815260040160206040518083038186803b15801561191157600080fd5b505afa158015611925573d6000803e3d6000fd5b505050506040513d602081101561193b57600080fd5b5051905060008167ffffffffffffffff8111801561195857600080fd5b50604051908082528060200260200182016040528015611982578160200160208202803683370190505b50905060008267ffffffffffffffff8111801561199e57600080fd5b506040519080825280602002602001820160405280156119c8578160200160208202803683370190505b50905060008367ffffffffffffffff811180156119e457600080fd5b50604051908082528060200260200182016040528015611a0e578160200160208202803683370190505b50905060005b848160ff161015611b0a57856001600160a01b03166348a4beaa826040518263ffffffff1660e01b8152600401808260ff16815260200191505060606040518083038186803b158015611a6657600080fd5b505afa158015611a7a573d6000803e3d6000fd5b505050506040513d6060811015611a9057600080fd5b50805160208201516040909201518651919291879060ff8616908110611ab257fe5b60200260200101868560ff1681518110611ac857fe5b60200260200101868660ff1681518110611ade57fe5b6001600160a01b0394851660209182029290920101529290911690915260ff9091169052600101611a14565b5091989097509095509350505050565b60608060008060009054906101000a90046001600160a01b03166001600160a01b031663daec2a1a6040518163ffffffff1660e01b815260040160006040518083038186803b158015611b6c57600080fd5b505afa158015611b80573d6000803e3d6000fd5b505050506040513d6000823e601f3d908101601f191682016040526020811015611ba957600080fd5b8101908080516040519392919084640100000000821115611bc957600080fd5b908301906020820185811115611bde57600080fd5b8251866020820283011164010000000082111715611bfb57600080fd5b82525081516020918201928201910280838360005b83811015611c28578181015183820152602001611c10565b5050505090500160405250505090506000601967ffffffffffffffff81118015611c5157600080fd5b50604051908082528060200260200182016040528015611c7b578160200160208202803683370190505b50604080516019808252610340820190925291925060009190602082016103208036833701905050905060008060008054906101000a90046001600160a01b03166001600160a01b031663c8ed947f6040518163ffffffff1660e01b815260040160206040518083038186803b158015611cf457600080fd5b505afa158015611d08573d6000803e3d6000fd5b505050506040513d6020811015611d1e57600080fd5b50519050875b8551811015611fc5576000868281518110611d3b57fe5b60200260200101519050806001600160a01b03166302fb0c5e6040518163ffffffff1660e01b815260040160206040518083038186803b158015611d7e57600080fd5b505afa158015611d92573d6000803e3d6000fd5b505050506040513d6020811015611da857600080fd5b50518015611ebb5750806001600160a01b0316634edfb99a6040518163ffffffff1660e01b815260040160206040518083038186803b158015611dea57600080fd5b505afa158015611dfe573d6000803e3d6000fd5b505050506040513d6020811015611e1457600080fd5b50511580611ebb5750826001600160a01b031663c7ec5d5d888481518110611e3857fe5b60200260200101518d6040518363ffffffff1660e01b815260040180836001600160a01b03168152602001826001600160a01b031681526020019250505060206040518083038186803b158015611e8e57600080fd5b505afa158015611ea2573d6000803e3d6000fd5b505050506040513d6020811015611eb857600080fd5b50515b15611fbc57868281518110611ecc57fe5b6020026020010151868560ff1681518110611ee357fe5b60200260200101906001600160a01b031690816001600160a01b0316815250506000878381518110611f1157fe5b60200260200101516001600160a01b03166370a082318d6040518263ffffffff1660e01b815260040180826001600160a01b0316815260200191505060206040518083038186803b158015611f6557600080fd5b505afa158015611f79573d6000803e3d6000fd5b505050506040513d6020811015611f8f57600080fd5b50518651911090869060ff8716908110611fa557fe5b911515602092830291909101909101526001909301925b50600101611d24565b5092989197509095505050505050565b606080600080611fe3613980565b606080611fee61399e565b611ff66139bd565b60008054604080517f294d237c00000000000000000000000000000000000000000000000000000000815290518d93926001600160a01b03169163294d237c916004808301926020929190829003018186803b15801561205557600080fd5b505afa158015612069573d6000803e3d6000fd5b505050506040513d602081101561207f57600080fd5b5051604080517f18160ddd00000000000000000000000000000000000000000000000000000000815290519192506000916001600160a01b038f16916318160ddd916004808301926020929190829003018186803b1580156120e057600080fd5b505afa1580156120f4573d6000803e3d6000fd5b505050506040513d602081101561210a57600080fd5b5051905060008161211c576000612224565b826001600160a01b031663bc14773a8f866001600160a01b031663f85cb5c86040518163ffffffff1660e01b815260040160206040518083038186803b15801561216557600080fd5b505afa158015612179573d6000803e3d6000fd5b505050506040513d602081101561218f57600080fd5b5051604080517fffffffff0000000000000000000000000000000000000000000000000000000060e086901b1681526001600160a01b039384166004820152929091166024830152516044808301926020929190829003018186803b1580156121f757600080fd5b505afa15801561220b573d6000803e3d6000fd5b505050506040513d602081101561222157600080fd5b50515b905060006122318f6137a8565b90508e6001600160a01b03166306fdde036040518163ffffffff1660e01b815260040160006040518083038186803b15801561226c57600080fd5b505afa158015612280573d6000803e3d6000fd5b505050506040513d6000823e601f3d908101601f1916820160405260208110156122a957600080fd5b81019080805160405193929190846401000000008211156122c957600080fd5b9083019060208201858111156122de57600080fd5b82516401000000008111828201881017156122f857600080fd5b82525081516020918201929091019080838360005b8381101561232557818101518382015260200161230d565b50505050905090810190601f1680156123525780820380516001836020036101000a031916815260200191505b506040525050508f6001600160a01b03166395d89b416040518163ffffffff1660e01b815260040160006040518083038186803b15801561239257600080fd5b505afa1580156123a6573d6000803e3d6000fd5b505050506040513d6000823e601f3d908101601f1916820160405260208110156123cf57600080fd5b81019080805160405193929190846401000000008211156123ef57600080fd5b90830190602082018581111561240457600080fd5b825164010000000081118282018810171561241e57600080fd5b82525081516020918201929091019080838360005b8381101561244b578181015183820152602001612433565b50505050905090810190601f1680156124785780820380516001836020036101000a031916815260200191505b50604052505050866001600160a01b03166302d05d3f6040518163ffffffff1660e01b815260040160206040518083038186803b1580156124b857600080fd5b505afa1580156124cc573d6000803e3d6000fd5b505050506040513d60208110156124e257600080fd5b5051604080517ff85cb5c800000000000000000000000000000000000000000000000000000000815290516001600160a01b038a169163f85cb5c8916004808301926020929190829003018186803b15801561253d57600080fd5b505afa158015612551573d6000803e3d6000fd5b505050506040513d602081101561256757600080fd5b5051604080518082018083527f02fb0c5e000000000000000000000000000000000000000000000000000000009052905181906001600160a01b038c16906302fb0c5e90604480850191602091818703018186803b1580156125c857600080fd5b505afa1580156125dc573d6000803e3d6000fd5b505050506040513d60208110156125f257600080fd5b505115158152604080517f4edfb99a00000000000000000000000000000000000000000000000000000000815290516020928301926001600160a01b038e1692634edfb99a9260048083019392829003018186803b15801561265357600080fd5b505afa158015612667573d6000803e3d6000fd5b505050506040513d602081101561267d57600080fd5b505115159052604080517fb49a60bb00000000000000000000000000000000000000000000000000000000815290516001600160a01b038c169163b49a60bb916004808301926000929190829003018186803b1580156126dc57600080fd5b505afa1580156126f0573d6000803e3d6000fd5b505050506040513d6000823e601f3d908101601f19168201604052602081101561271957600080fd5b810190808051604051939291908464010000000082111561273957600080fd5b90830190602082018581111561274e57600080fd5b825186602082028301116401000000008211171561276b57600080fd5b82525081516020918201928201910280838360005b83811015612798578181015183820152602001612780565b505050509050016040525050508a6001600160a01b031663b304b8156040518163ffffffff1660e01b815260040160006040518083038186803b1580156127de57600080fd5b505afa1580156127f2573d6000803e3d6000fd5b505050506040513d6000823e601f3d908101601f19168201604052602081101561281b57600080fd5b810190808051604051939291908464010000000082111561283b57600080fd5b90830190602082018581111561285057600080fd5b825186602082028301116401000000008211171561286d57600080fd5b82525081516020918201928201910280838360005b8381101561289a578181015183820152602001612882565b505050509050016040525050506040518061016001604052808d6001600160a01b0316637550ed186040518163ffffffff1660e01b815260040160206040518083038186803b1580156128ec57600080fd5b505afa158015612900573d6000803e3d6000fd5b505050506040513d602081101561291657600080fd5b810190808051906020019092919050505081526020018d6001600160a01b0316637ce9059c6040518163ffffffff1660e01b815260040160206040518083038186803b15801561296557600080fd5b505afa158015612979573d6000803e3d6000fd5b505050506040513d602081101561298f57600080fd5b810190808051906020019092919050505081526020018d6001600160a01b0316638bbde0fd6040518163ffffffff1660e01b815260040160206040518083038186803b1580156129de57600080fd5b505afa1580156129f2573d6000803e3d6000fd5b505050506040513d6020811015612a0857600080fd5b810190808051906020019092919050505081526020018d6001600160a01b03166386fa50636040518163ffffffff1660e01b815260040160206040518083038186803b158015612a5757600080fd5b505afa158015612a6b573d6000803e3d6000fd5b505050506040513d6020811015612a8157600080fd5b810190808051906020019092919050505081526020018d6001600160a01b031663b63c44e76040518163ffffffff1660e01b815260040160206040518083038186803b158015612ad057600080fd5b505afa158015612ae4573d6000803e3d6000fd5b505050506040513d6020811015612afa57600080fd5b810190808051906020019092919050505081526020018d6001600160a01b0316635a16656a6040518163ffffffff1660e01b815260040160206040518083038186803b158015612b4957600080fd5b505afa158015612b5d573d6000803e3d6000fd5b505050506040513d6020811015612b7357600080fd5b810190808051906020019092919050505081526020018d6001600160a01b03166395cdbedb6040518163ffffffff1660e01b815260040160206040518083038186803b158015612bc257600080fd5b505afa158015612bd6573d6000803e3d6000fd5b505050506040513d6020811015612bec57600080fd5b810190808051906020019092919050505081526020018d6001600160a01b031663297ce5986040518163ffffffff1660e01b815260040160206040518083038186803b158015612c3b57600080fd5b505afa158015612c4f573d6000803e3d6000fd5b505050506040513d6020811015612c6557600080fd5b810190808051906020019092919050505081526020018d6001600160a01b0316633deddb3f6040518163ffffffff1660e01b815260040160206040518083038186803b158015612cb457600080fd5b505afa158015612cc8573d6000803e3d6000fd5b505050506040513d6020811015612cde57600080fd5b810190808051906020019092919050505081526020018d6001600160a01b031663aaffadf36040518163ffffffff1660e01b815260040160206040518083038186803b158015612d2d57600080fd5b505afa158015612d41573d6000803e3d6000fd5b505050506040513d6020811015612d5757600080fd5b810190808051906020019092919050505081526020018d6001600160a01b031663a63c643d6040518163ffffffff1660e01b815260040160206040518083038186803b158015612da657600080fd5b505afa158015612dba573d6000803e3d6000fd5b505050506040513d6020811015612dd057600080fd5b81019080805190602001909291905050508152506040518061014001604052808e6001600160a01b031663ba5d30786040518163ffffffff1660e01b815260040160206040518083038186803b158015612e2957600080fd5b505afa158015612e3d573d6000803e3d6000fd5b505050506040513d6020811015612e5357600080fd5b810190808051906020019092919050505081526020018e6001600160a01b031663b9e675396040518163ffffffff1660e01b815260040160206040518083038186803b158015612ea257600080fd5b505afa158015612eb6573d6000803e3d6000fd5b505050506040513d6020811015612ecc57600080fd5b810190808051906020019092919050505081526020018e6001600160a01b0316638ee330b06040518163ffffffff1660e01b815260040160206040518083038186803b158015612f1b57600080fd5b505afa158015612f2f573d6000803e3d6000fd5b505050506040513d6020811015612f4557600080fd5b810190808051906020019092919050505081526020018e6001600160a01b031663792e42e26040518163ffffffff1660e01b815260040160206040518083038186803b158015612f9457600080fd5b505afa158015612fa8573d6000803e3d6000fd5b505050506040513d6020811015612fbe57600080fd5b810190808051906020019092919050505081526020018e6001600160a01b031663cb12233b6040518163ffffffff1660e01b815260040160206040518083038186803b15801561300d57600080fd5b505afa158015613021573d6000803e3d6000fd5b505050506040513d602081101561303757600080fd5b810190808051906020019092919050505081526020018e6001600160a01b031663f251fc8c6040518163ffffffff1660e01b815260040160206040518083038186803b15801561308657600080fd5b505afa15801561309a573d6000803e3d6000fd5b505050506040513d60208110156130b057600080fd5b810190808051906020019092919050505081526020018e6001600160a01b0316638b0e9f3f6040518163ffffffff1660e01b815260040160206040518083038186803b1580156130ff57600080fd5b505afa158015613113573d6000803e3d6000fd5b505050506040513d602081101561312957600080fd5b5051815260200161313a8d8d6138b8565b81526020018c81526020018a8152509d509d509d509d509d509d509d509d509d5050505050509193959799909294969850565b604080516009808252610140820190925260609182918591600091906020820161012080368337019050509050816001600160a01b0316633d8270f5866040518263ffffffff1660e01b815260040180826001600160a01b031681526020019150506101206040518083038186803b1580156131e857600080fd5b505afa1580156131fc573d6000803e3d6000fd5b505050506040513d61012081101561321357600080fd5b508051602082015160408301516060840151608085015160a08601516101009096015187519596949593949293919291889060009061324e57fe5b602002602001018860018151811061326257fe5b602002602001018960028151811061327657fe5b602002602001018a60038151811061328a57fe5b602002602001018b60048151811061329e57fe5b602002602001018c6005815181106132b257fe5b602002602001018d6008815181106132c657fe5b602090810291909101810197909752969096529590945294909352939052929052919052604080516370a0823160e01b81526001600160a01b0388811660048301529151918916926370a0823192602480840193829003018186803b15801561332e57600080fd5b505afa158015613342573d6000803e3d6000fd5b505050506040513d602081101561335857600080fd5b505181518290600690811061336957fe5b602002602001018181525050816001600160a01b031663c4086893866040518263ffffffff1660e01b815260040180826001600160a01b0316815260200191505060206040518083038186803b1580156133c257600080fd5b505afa1580156133d6573d6000803e3d6000fd5b505050506040513d60208110156133ec57600080fd5b50518151829060079081106133fd57fe5b60200260200101818152505060008060009054906101000a90046001600160a01b03166001600160a01b0316633f2a55406040518163ffffffff1660e01b815260040160206040518083038186803b15801561345857600080fd5b505afa15801561346c573d6000803e3d6000fd5b505050506040513d602081101561348257600080fd5b5051604080517fb304b81500000000000000000000000000000000000000000000000000000000815290516001600160a01b03928316926369795e93928b928b9289169163b304b815916004808301926000929190829003018186803b1580156134eb57600080fd5b505afa1580156134ff573d6000803e3d6000fd5b505050506040513d6000823e601f3d908101601f19168201604052602081101561352857600080fd5b810190808051604051939291908464010000000082111561354857600080fd5b90830190602082018581111561355d57600080fd5b825186602082028301116401000000008211171561357a57600080fd5b82525081516020918201928201910280838360005b838110156135a757818101518382015260200161358f565b505050509050016040525050506040518463ffffffff1660e01b815260040180846001600160a01b03168152602001836001600160a01b0316815260200180602001828103825283818151815260200191508051906020019060200280838360005b83811015613621578181015183820152602001613609565b5050505090500194505050505060006040518083038186803b15801561364657600080fd5b505afa15801561365a573d6000803e3d6000fd5b505050506040513d6000823e601f3d908101601f19168201604052602081101561368357600080fd5b81019080805160405193929190846401000000008211156136a357600080fd5b9083019060208201858111156136b857600080fd5b82518660208202830111640100000000821117156136d557600080fd5b82525081516020918201928201910280838360005b838110156137025781810151838201526020016136ea565b505050509190910160405250949a92995091975050505050505050565b6000546001600160a01b031681565b600082820183811015613788576040805162461bcd60e51b815260206004820152601b60248201527f536166654d6174683a206164646974696f6e206f766572666c6f770000000000604482015290519081900360640190fd5b90505b92915050565b6000808212156137a4578160000361378b565b5090565b60008060009054906101000a90046001600160a01b03166001600160a01b031663ead4c1cf6040518163ffffffff1660e01b815260040160206040518083038186803b1580156137f757600080fd5b505afa15801561380b573d6000803e3d6000fd5b505050506040513d602081101561382157600080fd5b5051604080517f181df3070000000000000000000000000000000000000000000000000000000081526001600160a01b0385811660048301529151919092169163181df307916024808301926020929190829003018186803b15801561388657600080fd5b505afa15801561389a573d6000803e3d6000fd5b505050506040513d60208110156138b057600080fd5b505192915050565b6000613788670de0b6b3a76400006138d085856138d6565b906138fa565b60008215806138f1575050818102818382816138ee57fe5b04145b61378b57600080fd5b6000808211613950576040805162461bcd60e51b815260206004820152601a60248201527f536166654d6174683a206469766973696f6e206279207a65726f000000000000604482015290519081900360640190fd5b81838161395957fe5b049392505050565b604051806101800160405280600c906020820280368337509192915050565b60405180604001604052806002906020820280368337509192915050565b604051806101600160405280600b906020820280368337509192915050565b604051806101400160405280600a90602082028036833750919291505056fea264697066735822122021ee4b0ff832f5616e0b2b9ddc67af91f83ae9f4474cb027e68361b748999a7a64736f6c63430007060033",
  "devdoc": {
    "author": "Babylon Finance Class that holds common view functions to retrieve garden information effectively",
    "kind": "dev",
    "methods": {
      "getCompleteStrategy(address)": {
        "params": {
          "_strategy": "Address of the strategy to fetch"
        },
        "returns": {
          "_0": "All strategy details"
        }
      },
      "getGardenDetails(address)": {
        "params": {
          "_garden": "Address of the garden to fetch"
        },
        "returns": {
          "_0": "Garden complete details"
        }
      }
    },
    "title": "BabylonViewer",
    "version": 1
  },
  "userdoc": {
    "kind": "user",
    "methods": {
      "getCompleteStrategy(address)": {
        "notice": "Gets complete strategy details"
      },
      "getGardenDetails(address)": {
        "notice": "Gets garden details"
      }
    },
    "version": 1
  },
  "storageLayout": {
    "storage": [
      {
        "astId": 10159,
        "contract": "contracts/BabylonViewer.sol:BabylonViewer",
        "label": "controller",
        "offset": 0,
        "slot": "0",
        "type": "t_contract(IBabController)24212"
      }
    ],
    "types": {
      "t_contract(IBabController)24212": {
        "encoding": "inplace",
        "label": "contract IBabController",
        "numberOfBytes": "20"
      }
    }
  }
}