{
  "address": "0x2131C81b3af8a4F3055D44801Aa331b594C1E38e",
  "abi": [
    {
      "inputs": [
        {
          "internalType": "contract IBabController",
          "name": "_controller",
          "type": "address"
        }
      ],
      "stateMutability": "nonpayable",
      "type": "constructor"
    },
    {
      "inputs": [],
      "name": "controller",
      "outputs": [
        {
          "internalType": "contract IBabController",
          "name": "",
          "type": "address"
        }
      ],
      "stateMutability": "view",
      "type": "function"
    },
    {
      "inputs": [
        {
          "internalType": "address",
          "name": "_strategy",
          "type": "address"
        }
      ],
      "name": "getCompleteStrategy",
      "outputs": [
        {
          "internalType": "address",
          "name": "",
          "type": "address"
        },
        {
          "internalType": "string",
          "name": "",
          "type": "string"
        },
        {
          "internalType": "uint256[12]",
          "name": "",
          "type": "uint256[12]"
        },
        {
          "internalType": "bool[]",
          "name": "",
          "type": "bool[]"
        },
        {
          "internalType": "uint256[]",
          "name": "",
          "type": "uint256[]"
        }
      ],
      "stateMutability": "view",
      "type": "function"
    },
    {
      "inputs": [
        {
          "internalType": "address",
          "name": "_garden",
          "type": "address"
        },
        {
          "internalType": "address",
          "name": "_user",
          "type": "address"
        }
      ],
      "name": "getContributionAndRewards",
      "outputs": [
        {
          "internalType": "uint256[]",
          "name": "",
          "type": "uint256[]"
        },
        {
          "internalType": "uint256[]",
          "name": "",
          "type": "uint256[]"
        }
      ],
      "stateMutability": "view",
      "type": "function"
    },
    {
      "inputs": [
        {
          "internalType": "address",
          "name": "_garden",
          "type": "address"
        }
      ],
      "name": "getGardenDetails",
      "outputs": [
        {
          "internalType": "string",
          "name": "",
          "type": "string"
        },
        {
          "internalType": "string",
          "name": "",
          "type": "string"
        },
        {
          "internalType": "address",
          "name": "",
          "type": "address"
        },
        {
          "internalType": "address",
          "name": "",
          "type": "address"
        },
        {
          "internalType": "bool[4]",
          "name": "",
          "type": "bool[4]"
        },
        {
          "internalType": "address[]",
          "name": "",
          "type": "address[]"
        },
        {
          "internalType": "address[]",
          "name": "",
          "type": "address[]"
        },
        {
          "internalType": "uint256[10]",
          "name": "",
          "type": "uint256[10]"
        },
        {
          "internalType": "uint256[9]",
          "name": "",
          "type": "uint256[9]"
        },
        {
          "internalType": "uint256[3]",
          "name": "",
          "type": "uint256[3]"
        }
      ],
      "stateMutability": "view",
      "type": "function"
    },
    {
      "inputs": [
        {
          "internalType": "address",
          "name": "_garden",
          "type": "address"
        },
        {
          "internalType": "address",
          "name": "_user",
          "type": "address"
        }
      ],
      "name": "getGardenPermissions",
      "outputs": [
        {
          "internalType": "bool",
          "name": "",
          "type": "bool"
        },
        {
          "internalType": "bool",
          "name": "",
          "type": "bool"
        },
        {
          "internalType": "bool",
          "name": "",
          "type": "bool"
        }
      ],
      "stateMutability": "view",
      "type": "function"
    },
    {
      "inputs": [
        {
          "internalType": "address",
          "name": "_garden",
          "type": "address"
        },
        {
          "internalType": "address",
          "name": "_user",
          "type": "address"
        }
      ],
      "name": "getGardenUserAvgPricePerShare",
      "outputs": [
        {
          "internalType": "uint256",
          "name": "",
          "type": "uint256"
        }
      ],
      "stateMutability": "view",
      "type": "function"
    },
    {
      "inputs": [
        {
          "internalType": "address",
          "name": "_user",
          "type": "address"
        },
        {
          "internalType": "uint256",
          "name": "_offset",
          "type": "uint256"
        }
      ],
      "name": "getGardensUser",
      "outputs": [
        {
          "internalType": "address[]",
          "name": "",
          "type": "address[]"
        },
        {
          "internalType": "bool[]",
          "name": "",
          "type": "bool[]"
        }
      ],
      "stateMutability": "view",
      "type": "function"
    },
    {
      "inputs": [
        {
          "internalType": "address",
          "name": "_strategy",
          "type": "address"
        }
      ],
      "name": "getOperationsStrategy",
      "outputs": [
        {
          "internalType": "uint8[]",
          "name": "",
          "type": "uint8[]"
        },
        {
          "internalType": "address[]",
          "name": "",
          "type": "address[]"
        },
        {
          "internalType": "bytes[]",
          "name": "",
          "type": "bytes[]"
        }
      ],
      "stateMutability": "view",
      "type": "function"
    },
    {
      "inputs": [
        {
          "internalType": "address",
          "name": "_user",
          "type": "address"
        }
      ],
      "name": "getPermissions",
      "outputs": [
        {
          "internalType": "bool",
          "name": "",
          "type": "bool"
        },
        {
          "internalType": "bool",
          "name": "",
          "type": "bool"
        }
      ],
      "stateMutability": "view",
      "type": "function"
    },
    {
      "inputs": [
        {
          "internalType": "address",
          "name": "_tokenIn",
          "type": "address"
        },
        {
          "internalType": "address",
          "name": "_reserveAsset",
          "type": "address"
        }
      ],
      "name": "getPriceAndLiquidity",
      "outputs": [
        {
          "internalType": "uint256",
          "name": "",
          "type": "uint256"
        },
        {
          "internalType": "uint256",
          "name": "",
          "type": "uint256"
        }
      ],
      "stateMutability": "view",
      "type": "function"
    },
    {
      "inputs": [
        {
          "internalType": "address[]",
          "name": "_strategies",
          "type": "address[]"
        },
        {
          "internalType": "address",
          "name": "_user",
          "type": "address"
        }
      ],
      "name": "getUserStrategyActions",
      "outputs": [
        {
          "internalType": "uint256",
          "name": "",
          "type": "uint256"
        },
        {
          "internalType": "uint256",
          "name": "",
          "type": "uint256"
        }
      ],
      "stateMutability": "view",
      "type": "function"
    }
  ],
  "transactionHash": "0xb4405ec9886e9dc9834454807c5f0ee50f498de9c240595506d38898bb5885f7",
  "args": [
    "0xD4a5b5fcB561dAF3aDF86F8477555B92FBa43b5F"
  ],
  "solcInputHash": "56e856013acd3b359502f859eb0b5f83",
  "bytecode": "0x60806040523480156200001157600080fd5b50604051620048823803806200488283398101604081905262000034916200008c565b6001600160a01b038116620000665760405162461bcd60e51b81526004016200005d90620000bc565b60405180910390fd5b600080546001600160a01b0319166001600160a01b0392909216919091179055620000f3565b6000602082840312156200009e578081fd5b81516001600160a01b0381168114620000b5578182fd5b9392505050565b60208082526015908201527f436f6e74726f6c6c6572206d7573742065786973740000000000000000000000604082015260600190565b61477f80620001036000396000f3fe608060405234801561001057600080fd5b50600436106100c95760003560e01c80639ab0542611610081578063d005ce5c1161005b578063d005ce5c146101d5578063ede1209e146101fe578063f77c47911461021f576100c9565b80639ab054261461017f578063a63037da14610192578063b105b044146101b4576100c9565b80634c038f20116100b25780634c038f20146101195780635dcb49591461013b578063932a69421461015f576100c9565b8063160a7925146100ce5780631b76c124146100f8575b600080fd5b6100e16100dc366004613d28565b610234565b6040516100ef929190614581565b60405180910390f35b61010b610106366004613d60565b6103c5565b6040516100ef929190614686565b61012c610127366004613d60565b6104ee565b6040516100ef93929190614593565b61014e610149366004613d28565b610a4a565b6040516100ef959493929190614407565b61017261016d366004613d60565b61141f565b6040516100ef919061467d565b61010b61018d366004613ed3565b61156d565b6101a56101a0366004613d28565b611701565b6040516100ef939291906144d3565b6101c76101c2366004613e0a565b611978565b6040516100ef929190614489565b6101e86101e3366004613d28565b611c2f565b6040516100ef9a999897969594939291906145ad565b61021161020c366004613d60565b612bbb565b6040516100ef9291906144ae565b610227612fff565b6040516100ef919061437c565b60008060008060009054906101000a90046001600160a01b03166001600160a01b031663c8ed947f6040518163ffffffff1660e01b815260040160206040518083038186803b15801561028657600080fd5b505afa15801561029a573d6000803e3d6000fd5b505050506040513d601f19601f820116820180604052508101906102be9190613d44565b90506000816001600160a01b03166370a08231866040518263ffffffff1660e01b81526004016102ee919061437c565b60206040518083038186803b15801561030657600080fd5b505afa15801561031a573d6000803e3d6000fd5b505050506040513d601f19601f8201168201806040525081019061033e9190614098565b11816001600160a01b0316637804a5dc866040518263ffffffff1660e01b815260040161036b919061437c565b60206040518083038186803b15801561038357600080fd5b505afa158015610397573d6000803e3d6000fd5b505050506040513d601f19601f820116820180604052508101906103bb919061407e565b9250925050915091565b60008054604080517f2630c12f000000000000000000000000000000000000000000000000000000008152905183926001600160a01b031691632630c12f916004808301926020929190829003018186803b15801561042357600080fd5b505afa158015610437573d6000803e3d6000fd5b505050506040513d601f19601f8201168201806040525081019061045b9190613d44565b6001600160a01b031663ac41865a85856040518363ffffffff1660e01b8152600401610488929190614390565b60206040518083038186803b1580156104a057600080fd5b505afa1580156104b4573d6000803e3d6000fd5b505050506040513d601f19601f820116820180604052508101906104d89190614098565b6104e2858561300e565b915091505b9250929050565b60008060008060008054906101000a90046001600160a01b03166001600160a01b031663c8ed947f6040518163ffffffff1660e01b815260040160206040518083038186803b15801561054057600080fd5b505afa158015610554573d6000803e3d6000fd5b505050506040513d601f19601f820116820180604052508101906105789190613d44565b6040517fc7ec5d5d0000000000000000000000000000000000000000000000000000000081529091506001600160a01b0382169063c7ec5d5d906105c29089908990600401614390565b60206040518083038186803b1580156105da57600080fd5b505afa1580156105ee573d6000803e3d6000fd5b505050506040513d601f19601f82011682018060405250810190610612919061407e565b8061071257506040516370a0823160e01b81526000906001600160a01b038316906370a082319061064790899060040161437c565b60206040518083038186803b15801561065f57600080fd5b505afa158015610673573d6000803e3d6000fd5b505050506040513d601f19601f820116820180604052508101906106979190614098565b1180156107125750856001600160a01b031663550c2b7f6040518163ffffffff1660e01b815260040160206040518083038186803b1580156106d857600080fd5b505afa1580156106ec573d6000803e3d6000fd5b505050506040513d601f19601f82011682018060405250810190610710919061407e565b155b6040517f4d98fbf00000000000000000000000000000000000000000000000000000000081526001600160a01b03831690634d98fbf090610759908a908a90600401614390565b60206040518083038186803b15801561077157600080fd5b505afa158015610785573d6000803e3d6000fd5b505050506040513d601f19601f820116820180604052508101906107a9919061407e565b806108a757506040516370a0823160e01b81526000906001600160a01b038416906370a08231906107de908a9060040161437c565b60206040518083038186803b1580156107f657600080fd5b505afa15801561080a573d6000803e3d6000fd5b505050506040513d601f19601f8201168201806040525081019061082e9190614098565b1180156108a75750866001600160a01b03166377e7ff3c6040518163ffffffff1660e01b815260040160206040518083038186803b15801561086f57600080fd5b505afa158015610883573d6000803e3d6000fd5b505050506040513d601f19601f820116820180604052508101906108a7919061407e565b6040517f5066c7140000000000000000000000000000000000000000000000000000000081526001600160a01b03841690635066c714906108ee908b908b90600401614390565b60206040518083038186803b15801561090657600080fd5b505afa15801561091a573d6000803e3d6000fd5b505050506040513d601f19601f8201168201806040525081019061093e919061407e565b80610a3c57506040516370a0823160e01b81526000906001600160a01b038516906370a0823190610973908b9060040161437c565b60206040518083038186803b15801561098b57600080fd5b505afa15801561099f573d6000803e3d6000fd5b505050506040513d601f19601f820116820180604052508101906109c39190614098565b118015610a3c5750876001600160a01b0316631780998b6040518163ffffffff1660e01b815260040160206040518083038186803b158015610a0457600080fd5b505afa158015610a18573d6000803e3d6000fd5b505050506040513d601f19601f82011682018060405250810190610a3c919061407e565b935093509350509250925092565b60006060610a56613c2b565b604080516003808252608082019092526060918291879160009190602082018580368337505060408051600480825260a08201909252929350600092915060208201608080368337019050509050826001600160a01b031663bf1dcfe26040518163ffffffff1660e01b815260040160e06040518083038186803b158015610add57600080fd5b505afa158015610af1573d6000803e3d6000fd5b505050506040513d601f19601f82011682018060405250810190610b159190613d98565b9091929394955087600081518110610b2957fe5b6020026020010188600181518110610b3d57fe5b6020026020010189600281518110610b5157fe5b6020026020010189600081518110610b6557fe5b602002602001018a600181518110610b7957fe5b602002602001018b600281518110610b8d57fe5b602090810291909101019590955294909352939092529215159092529115159091529015159052805160009082906001908110610bc657fe5b602002602001015160001415610bdd576000610cdc565b60008054906101000a90046001600160a01b03166001600160a01b0316633f2a55406040518163ffffffff1660e01b815260040160206040518083038186803b158015610c2957600080fd5b505afa158015610c3d573d6000803e3d6000fd5b505050506040513d601f19601f82011682018060405250810190610c619190613d44565b6001600160a01b0316639de9a0528b6040518263ffffffff1660e01b8152600401610c8c919061437c565b60206040518083038186803b158015610ca457600080fd5b505afa158015610cb8573d6000803e3d6000fd5b505050506040513d601f19601f82011682018060405250810190610cdc9190614212565b6bffffffffffffffffffffffff169050836001600160a01b031663a30ca2046040518163ffffffff1660e01b815260040160206040518083038186803b158015610d2557600080fd5b505afa158015610d39573d6000803e3d6000fd5b505050506040513d601f19601f82011682018060405250810190610d5d9190614098565b82600381518110610d6a57fe5b602002602001018181525050836001600160a01b0316631fe4a6866040518163ffffffff1660e01b815260040160206040518083038186803b158015610daf57600080fd5b505afa158015610dc3573d6000803e3d6000fd5b505050506040513d601f19601f82011682018060405250810190610de79190613d44565b60008054906101000a90046001600160a01b03166001600160a01b031663d6a45aa56040518163ffffffff1660e01b815260040160206040518083038186803b158015610e3357600080fd5b505afa158015610e47573d6000803e3d6000fd5b505050506040513d601f19601f82011682018060405250810190610e6b9190613d44565b6001600160a01b03166323b0e4158c6040518263ffffffff1660e01b8152600401610e96919061437c565b60006040518083038186803b158015610eae57600080fd5b505afa158015610ec2573d6000803e3d6000fd5b505050506040513d6000823e601f3d908101601f19168201604052610eea91908101906140b0565b604051806101800160405280876001600160a01b031663dd1033f86040518163ffffffff1660e01b815260040160206040518083038186803b158015610f2f57600080fd5b505afa158015610f43573d6000803e3d6000fd5b505050506040513d601f19601f82011682018060405250810190610f679190614098565b8152602001876001600160a01b0316633a4b66f16040518163ffffffff1660e01b815260040160206040518083038186803b158015610fa557600080fd5b505afa158015610fb9573d6000803e3d6000fd5b505050506040513d601f19601f82011682018060405250810190610fdd9190614098565b8152602001876001600160a01b031663d40244cb6040518163ffffffff1660e01b815260040160206040518083038186803b15801561101b57600080fd5b505afa15801561102f573d6000803e3d6000fd5b505050506040513d601f19601f820116820180604052508101906110539190614098565b8152602001876001600160a01b031663449b98266040518163ffffffff1660e01b815260040160206040518083038186803b15801561109157600080fd5b505afa1580156110a5573d6000803e3d6000fd5b505050506040513d601f19601f820116820180604052508101906110c99190614098565b8152602001876001600160a01b03166303cddb2c6040518163ffffffff1660e01b815260040160206040518083038186803b15801561110757600080fd5b505afa15801561111b573d6000803e3d6000fd5b505050506040513d601f19601f8201168201806040525081019061113f9190614098565b8152602001876001600160a01b03166303976e386040518163ffffffff1660e01b815260040160206040518083038186803b15801561117d57600080fd5b505afa158015611191573d6000803e3d6000fd5b505050506040513d601f19601f820116820180604052508101906111b59190614098565b8152602001876001600160a01b0316630fb5a6b46040518163ffffffff1660e01b815260040160206040518083038186803b1580156111f357600080fd5b505afa158015611207573d6000803e3d6000fd5b505050506040513d601f19601f8201168201806040525081019061122b9190614098565b8152602001876001600160a01b031663d3406abd6040518163ffffffff1660e01b815260040160206040518083038186803b15801561126957600080fd5b505afa15801561127d573d6000803e3d6000fd5b505050506040513d601f19601f820116820180604052508101906112a19190614098565b8152602001876001600160a01b03166393baae416040518163ffffffff1660e01b815260040160206040518083038186803b1580156112df57600080fd5b505afa1580156112f3573d6000803e3d6000fd5b505050506040513d601f19601f820116820180604052508101906113179190614098565b8152602001876001600160a01b0316636db9cc996040518163ffffffff1660e01b815260040160206040518083038186803b15801561135557600080fd5b505afa158015611369573d6000803e3d6000fd5b505050506040513d601f19601f8201168201806040525081019061138d9190614098565b8152602001876001600160a01b0316630126c6066040518163ffffffff1660e01b815260040160206040518083038186803b1580156113cb57600080fd5b505afa1580156113df573d6000803e3d6000fd5b505050506040513d601f19601f820116820180604052508101906114039190614098565b815260200193909352909b909a50909850919650945092505050565b6040805160028082526060820183526000928592849290916020830190803683375050604051633d8270f560e01b8152919250506001600160a01b03831690633d8270f59061147290879060040161437c565b6101406040518083038186803b15801561148b57600080fd5b505afa15801561149f573d6000803e3d6000fd5b505050506040513d601f19601f820116820180604052508101906114c39190614125565b505088519297509095508794506000935050151590506114df57fe5b60200260200101836001815181106114f357fe5b602002602001018281525082815250505060008160018151811061151357fe5b602002602001015111611527576000611562565b6115628160018151811061153757fe5b60200260200101518260008151811061154c57fe5b602002602001015161348e90919063ffffffff16565b925050505b92915050565b60008060008060005b86518160ff1610156116f5576000878260ff168151811061159357fe5b60200260200101519050866001600160a01b0316816001600160a01b0316631fe4a6866040518163ffffffff1660e01b815260040160206040518083038186803b1580156115e057600080fd5b505afa1580156115f4573d6000803e3d6000fd5b505050506040513d601f19601f820116820180604052508101906116189190613d44565b6001600160a01b03161415611635576116328460016134ad565b93505b6040517f950c78220000000000000000000000000000000000000000000000000000000081526000906001600160a01b0383169063950c78229061167d908b9060040161437c565b60206040518083038186803b15801561169557600080fd5b505afa1580156116a9573d6000803e3d6000fd5b505050506040513d601f19601f820116820180604052508101906116cd9190614098565b905080156116eb576116e86116e182613507565b85906134ad565b93505b5050600101611576565b50909590945092505050565b606080606060008490506000816001600160a01b031663dd1033f86040518163ffffffff1660e01b815260040160206040518083038186803b15801561174657600080fd5b505afa15801561175a573d6000803e3d6000fd5b505050506040513d601f19601f8201168201806040525081019061177e9190614098565b905060008167ffffffffffffffff8111801561179957600080fd5b506040519080825280602002602001820160405280156117c3578160200160208202803683370190505b50905060008267ffffffffffffffff811180156117df57600080fd5b50604051908082528060200260200182016040528015611809578160200160208202803683370190505b50905060008367ffffffffffffffff8111801561182557600080fd5b5060405190808252806020026020018201604052801561185957816020015b60608152602001906001900390816118445790505b50905060005b848160ff161015611968576040517f48a4beaa0000000000000000000000000000000000000000000000000000000081526001600160a01b038716906348a4beaa906118af908490600401614694565b60006040518083038186803b1580156118c757600080fd5b505afa1580156118db573d6000803e3d6000fd5b505050506040513d6000823e601f3d908101601f191682016040526119039190810190614198565b868460ff168151811061191257fe5b60200260200101868560ff168151811061192857fe5b60200260200101868660ff168151811061193e57fe5b60209081029190910101929092526001600160a01b03909216905260ff909116905260010161185f565b5091989097509095509350505050565b60608060008060009054906101000a90046001600160a01b03166001600160a01b031663daec2a1a6040518163ffffffff1660e01b815260040160006040518083038186803b1580156119ca57600080fd5b505afa1580156119de573d6000803e3d6000fd5b505050506040513d6000823e601f3d908101601f19168201604052611a069190810190613e35565b604080516019808252610340820190925291925060009190602082016103208036833750506040805160198082526103408201909252929350600092915060208201610320803683370190505090506000865b8451811015611c21576000858281518110611a7057fe5b602002602001015190506000611a99878481518110611a8b57fe5b60200260200101518c6104ee565b50509050816001600160a01b03166302fb0c5e6040518163ffffffff1660e01b815260040160206040518083038186803b158015611ad657600080fd5b505afa158015611aea573d6000803e3d6000fd5b505050506040513d601f19601f82011682018060405250810190611b0e919061407e565b8015611b175750805b15611c1757868381518110611b2857fe5b6020026020010151868560ff1681518110611b3f57fe5b60200260200101906001600160a01b031690816001600160a01b0316815250506000878481518110611b6d57fe5b60200260200101516001600160a01b03166370a082318d6040518263ffffffff1660e01b8152600401611ba0919061437c565b60206040518083038186803b158015611bb857600080fd5b505afa158015611bcc573d6000803e3d6000fd5b505050506040513d601f19601f82011682018060405250810190611bf09190614098565b11858560ff1681518110611c0057fe5b911515602092830291909101909101526001909301925b5050600101611a59565b509197909650945050505050565b606080600080611c3d613c4a565b606080611c48613c68565b611c50613c87565b611c58613ca6565b604080516003808252608082019092528c9160009190602082016060803683370190505090508c6001600160a01b03166318160ddd6040518163ffffffff1660e01b815260040160206040518083038186803b158015611cb757600080fd5b505afa158015611ccb573d6000803e3d6000fd5b505050506040513d601f19601f82011682018060405250810190611cef9190614098565b81600081518110611cfc57fe5b602002602001018181525050600081600081518110611d1757fe5b602002602001015111611d2b576000611e9c565b60008054906101000a90046001600160a01b03166001600160a01b031663294d237c6040518163ffffffff1660e01b815260040160206040518083038186803b158015611d7757600080fd5b505afa158015611d8b573d6000803e3d6000fd5b505050506040513d601f19601f82011682018060405250810190611daf9190613d44565b6001600160a01b031663bc14773a8e846001600160a01b031663f85cb5c86040518163ffffffff1660e01b815260040160206040518083038186803b158015611df757600080fd5b505afa158015611e0b573d6000803e3d6000fd5b505050506040513d601f19601f82011682018060405250810190611e2f9190613d44565b6040518363ffffffff1660e01b8152600401611e4c929190614390565b60206040518083038186803b158015611e6457600080fd5b505afa158015611e78573d6000803e3d6000fd5b505050506040513d601f19601f82011682018060405250810190611e9c9190614098565b81600181518110611ea957fe5b602002602001018181525050611ebe8d613524565b81600281518110611ecb57fe5b6020026020010181815250506000611ee28e613626565b90508d6001600160a01b03166306fdde036040518163ffffffff1660e01b815260040160006040518083038186803b158015611f1d57600080fd5b505afa158015611f31573d6000803e3d6000fd5b505050506040513d6000823e601f3d908101601f19168201604052611f5991908101906140b0565b8e6001600160a01b03166395d89b416040518163ffffffff1660e01b815260040160006040518083038186803b158015611f9257600080fd5b505afa158015611fa6573d6000803e3d6000fd5b505050506040513d6000823e601f3d908101601f19168201604052611fce91908101906140b0565b846001600160a01b03166302d05d3f6040518163ffffffff1660e01b815260040160206040518083038186803b15801561200757600080fd5b505afa15801561201b573d6000803e3d6000fd5b505050506040513d601f19601f8201168201806040525081019061203f9190613d44565b856001600160a01b031663f85cb5c86040518163ffffffff1660e01b815260040160206040518083038186803b15801561207857600080fd5b505afa15801561208c573d6000803e3d6000fd5b505050506040513d601f19601f820116820180604052508101906120b09190613d44565b6040518060800160405280886001600160a01b03166302fb0c5e6040518163ffffffff1660e01b815260040160206040518083038186803b1580156120f457600080fd5b505afa158015612108573d6000803e3d6000fd5b505050506040513d601f19601f8201168201806040525081019061212c919061407e565b151515158152602001886001600160a01b031663550c2b7f6040518163ffffffff1660e01b815260040160206040518083038186803b15801561216e57600080fd5b505afa158015612182573d6000803e3d6000fd5b505050506040513d601f19601f820116820180604052508101906121a6919061407e565b151515158152602001886001600160a01b0316631780998b6040518163ffffffff1660e01b815260040160206040518083038186803b1580156121e857600080fd5b505afa1580156121fc573d6000803e3d6000fd5b505050506040513d601f19601f82011682018060405250810190612220919061407e565b151515158152602001886001600160a01b03166377e7ff3c6040518163ffffffff1660e01b815260040160206040518083038186803b15801561226257600080fd5b505afa158015612276573d6000803e3d6000fd5b505050506040513d601f19601f8201168201806040525081019061229a919061407e565b15151515815250876001600160a01b031663b49a60bb6040518163ffffffff1660e01b815260040160006040518083038186803b1580156122da57600080fd5b505afa1580156122ee573d6000803e3d6000fd5b505050506040513d6000823e601f3d908101601f191682016040526123169190810190613e35565b886001600160a01b031663b304b8156040518163ffffffff1660e01b815260040160006040518083038186803b15801561234f57600080fd5b505afa158015612363573d6000803e3d6000fd5b505050506040513d6000823e601f3d908101601f1916820160405261238b9190810190613e35565b6040518061014001604052808b6001600160a01b0316637550ed186040518163ffffffff1660e01b815260040160206040518083038186803b1580156123d057600080fd5b505afa1580156123e4573d6000803e3d6000fd5b505050506040513d601f19601f820116820180604052508101906124089190614098565b81526020018b6001600160a01b0316638bbde0fd6040518163ffffffff1660e01b815260040160206040518083038186803b15801561244657600080fd5b505afa15801561245a573d6000803e3d6000fd5b505050506040513d601f19601f8201168201806040525081019061247e9190614098565b81526020018b6001600160a01b03166386fa50636040518163ffffffff1660e01b815260040160206040518083038186803b1580156124bc57600080fd5b505afa1580156124d0573d6000803e3d6000fd5b505050506040513d601f19601f820116820180604052508101906124f49190614098565b81526020018b6001600160a01b031663b63c44e76040518163ffffffff1660e01b815260040160206040518083038186803b15801561253257600080fd5b505afa158015612546573d6000803e3d6000fd5b505050506040513d601f19601f8201168201806040525081019061256a9190614098565b81526020018b6001600160a01b0316635a16656a6040518163ffffffff1660e01b815260040160206040518083038186803b1580156125a857600080fd5b505afa1580156125bc573d6000803e3d6000fd5b505050506040513d601f19601f820116820180604052508101906125e09190614098565b81526020018b6001600160a01b03166395cdbedb6040518163ffffffff1660e01b815260040160206040518083038186803b15801561261e57600080fd5b505afa158015612632573d6000803e3d6000fd5b505050506040513d601f19601f820116820180604052508101906126569190614098565b81526020018b6001600160a01b031663297ce5986040518163ffffffff1660e01b815260040160206040518083038186803b15801561269457600080fd5b505afa1580156126a8573d6000803e3d6000fd5b505050506040513d601f19601f820116820180604052508101906126cc9190614098565b81526020018b6001600160a01b0316633deddb3f6040518163ffffffff1660e01b815260040160206040518083038186803b15801561270a57600080fd5b505afa15801561271e573d6000803e3d6000fd5b505050506040513d601f19601f820116820180604052508101906127429190614098565b81526020018b6001600160a01b031663aaffadf36040518163ffffffff1660e01b815260040160206040518083038186803b15801561278057600080fd5b505afa158015612794573d6000803e3d6000fd5b505050506040513d601f19601f820116820180604052508101906127b89190614098565b81526020018b6001600160a01b031663a63c643d6040518163ffffffff1660e01b815260040160206040518083038186803b1580156127f657600080fd5b505afa15801561280a573d6000803e3d6000fd5b505050506040513d601f19601f8201168201806040525081019061282e9190614098565b8152506040518061012001604052808c6001600160a01b031663ba5d30786040518163ffffffff1660e01b815260040160206040518083038186803b15801561287657600080fd5b505afa15801561288a573d6000803e3d6000fd5b505050506040513d601f19601f820116820180604052508101906128ae9190614098565b81526020018c6001600160a01b031663b9e675396040518163ffffffff1660e01b815260040160206040518083038186803b1580156128ec57600080fd5b505afa158015612900573d6000803e3d6000fd5b505050506040513d601f19601f820116820180604052508101906129249190614098565b81526020018c6001600160a01b031663792e42e26040518163ffffffff1660e01b815260040160206040518083038186803b15801561296257600080fd5b505afa158015612976573d6000803e3d6000fd5b505050506040513d601f19601f8201168201806040525081019061299a9190614098565b81526020018c6001600160a01b031663cb12233b6040518163ffffffff1660e01b815260040160206040518083038186803b1580156129d857600080fd5b505afa1580156129ec573d6000803e3d6000fd5b505050506040513d601f19601f82011682018060405250810190612a109190614098565b81526020018c6001600160a01b031663f251fc8c6040518163ffffffff1660e01b815260040160206040518083038186803b158015612a4e57600080fd5b505afa158015612a62573d6000803e3d6000fd5b505050506040513d601f19601f82011682018060405250810190612a869190614098565b81526020018c6001600160a01b0316638b0e9f3f6040518163ffffffff1660e01b815260040160206040518083038186803b158015612ac457600080fd5b505afa158015612ad8573d6000803e3d6000fd5b505050506040513d601f19601f82011682018060405250810190612afc9190614098565b815260200160008c600181518110612b1057fe5b602002602001015111612b24576000612b5f565b612b5f8c600181518110612b3457fe5b60200260200101518d600081518110612b4957fe5b602002602001015161372d90919063ffffffff16565b81526020018b600081518110612b7157fe5b602002602001015181526020018b600281518110612b8b57fe5b6020026020010151815250899c509c509c509c509c509c509c509c509c509c505050509193959799509193959799565b60408051600a8082526101608201909252606091829185916000919060208201610140803683375050604051633d8270f560e01b8152919250506001600160a01b03831690633d8270f590612c1490889060040161437c565b6101406040518083038186803b158015612c2d57600080fd5b505afa158015612c41573d6000803e3d6000fd5b505050506040513d601f19601f82011682018060405250810190612c659190614125565b508951909250899150600090612c7757fe5b6020026020010188600181518110612c8b57fe5b6020026020010189600281518110612c9f57fe5b602002602001018a600381518110612cb357fe5b602002602001018b600481518110612cc757fe5b602002602001018c600581518110612cdb57fe5b602002602001018d600881518110612cef57fe5b60209081029190910101969096529590945294909352939052929052919052526040516370a0823160e01b81526001600160a01b038716906370a0823190612d3b90889060040161437c565b60206040518083038186803b158015612d5357600080fd5b505afa158015612d67573d6000803e3d6000fd5b505050506040513d601f19601f82011682018060405250810190612d8b9190614098565b81600681518110612d9857fe5b60209081029190910101526040517fc40868930000000000000000000000000000000000000000000000000000000081526001600160a01b0383169063c408689390612de890889060040161437c565b60206040518083038186803b158015612e0057600080fd5b505afa158015612e14573d6000803e3d6000fd5b505050506040513d601f19601f82011682018060405250810190612e389190614098565b81600781518110612e4557fe5b60200260200101818152505060008060009054906101000a90046001600160a01b03166001600160a01b0316633f2a55406040518163ffffffff1660e01b815260040160206040518083038186803b158015612ea057600080fd5b505afa158015612eb4573d6000803e3d6000fd5b505050506040513d601f19601f82011682018060405250810190612ed89190613d44565b6001600160a01b03166369795e938888866001600160a01b031663b304b8156040518163ffffffff1660e01b815260040160006040518083038186803b158015612f2157600080fd5b505afa158015612f35573d6000803e3d6000fd5b505050506040513d6000823e601f3d908101601f19168201604052612f5d9190810190613e35565b6040518463ffffffff1660e01b8152600401612f7b939291906143aa565b60006040518083038186803b158015612f9357600080fd5b505afa158015612fa7573d6000803e3d6000fd5b505050506040513d6000823e601f3d908101601f19168201604052612fcf9190810190613ffa565b9050612fdb878761141f565b82600981518110612fe857fe5b602090810291909101015290969095509350505050565b6000546001600160a01b031681565b60008273c02aaa39b223fe8d0a0e5c4f27ead9083c756cc2826130318386613745565b5090506000816001600160a01b0316631a6865026040518163ffffffff1660e01b815260040160206040518083038186803b15801561306f57600080fd5b505afa158015613083573d6000803e3d6000fd5b505050506040513d601f19601f820116820180604052508101906130a791906140fe565b6001600160801b03169050600073c02aaa39b223fe8d0a0e5c4f27ead9083c756cc26001600160a01b0316836001600160a01b0316630dfe16816040518163ffffffff1660e01b815260040160206040518083038186803b15801561310b57600080fd5b505afa15801561311f573d6000803e3d6000fd5b505050506040513d601f19601f820116820180604052508101906131439190613d44565b6001600160a01b0316141561325457613251836001600160a01b031663d21220a76040518163ffffffff1660e01b815260040160206040518083038186803b15801561318e57600080fd5b505afa1580156131a2573d6000803e3d6000fd5b505050506040513d601f19601f820116820180604052508101906131c69190613d44565b6001600160a01b03166370a08231856040518263ffffffff1660e01b81526004016131f1919061437c565b60206040518083038186803b15801561320957600080fd5b505afa15801561321d573d6000803e3d6000fd5b505050506040513d601f19601f820116820180604052508101906132419190614098565b61324b8480613b47565b90613ba0565b90505b73c02aaa39b223fe8d0a0e5c4f27ead9083c756cc26001600160a01b0316836001600160a01b031663d21220a76040518163ffffffff1660e01b815260040160206040518083038186803b1580156132ab57600080fd5b505afa1580156132bf573d6000803e3d6000fd5b505050506040513d601f19601f820116820180604052508101906132e39190613d44565b6001600160a01b031614156133315761332e836001600160a01b0316630dfe16816040518163ffffffff1660e01b815260040160206040518083038186803b15801561318e57600080fd5b90505b73c02aaa39b223fe8d0a0e5c4f27ead9083c756cc26001600160a01b038816146134835760008060009054906101000a90046001600160a01b03166001600160a01b0316632630c12f6040518163ffffffff1660e01b815260040160206040518083038186803b1580156133a457600080fd5b505afa1580156133b8573d6000803e3d6000fd5b505050506040513d601f19601f820116820180604052508101906133dc9190613d44565b90506000816001600160a01b031663ac41865a73c02aaa39b223fe8d0a0e5c4f27ead9083c756cc28b6040518363ffffffff1660e01b8152600401613422929190614390565b60206040518083038186803b15801561343a57600080fd5b505afa15801561344e573d6000803e3d6000fd5b505050506040513d601f19601f820116820180604052508101906134729190614098565b905061347e838261372d565b925050505b979650505050505050565b60006134a68261324b85670de0b6b3a7640000613c07565b9392505050565b6000828201838110156134a6576040805162461bcd60e51b815260206004820152601b60248201527f536166654d6174683a206164646974696f6e206f766572666c6f770000000000604482015290519081900360640190fd5b60008082121561351a578160000361351c565b815b90505b919050565b60008060009054906101000a90046001600160a01b03166001600160a01b031663ead4c1cf6040518163ffffffff1660e01b815260040160206040518083038186803b15801561357357600080fd5b505afa158015613587573d6000803e3d6000fd5b505050506040513d601f19601f820116820180604052508101906135ab9190613d44565b6001600160a01b031663181df307836040518263ffffffff1660e01b81526004016135d6919061437c565b60206040518083038186803b1580156135ee57600080fd5b505afa158015613602573d6000803e3d6000fd5b505050506040513d601f19601f8201168201806040525081019061351c9190614098565b61362e613ca6565b60008054906101000a90046001600160a01b03166001600160a01b0316633f2a55406040518163ffffffff1660e01b815260040160206040518083038186803b15801561367a57600080fd5b505afa15801561368e573d6000803e3d6000fd5b505050506040513d601f19601f820116820180604052508101906136b29190613d44565b6001600160a01b031663070e8a4a836040518263ffffffff1660e01b81526004016136dd919061437c565b60606040518083038186803b1580156136f557600080fd5b505afa158015613709573d6000803e3d6000fd5b505050506040513d601f19601f8201168201806040525081019061351c9190613f7e565b60006134a6670de0b6b3a764000061324b8585613c07565b604051630b4c774160e11b815260009081908190731f98431c8ad98523631ae4a59f267346ea31f98490631698ee829061378990889088906101f4906004016143df565b60206040518083038186803b1580156137a157600080fd5b505afa1580156137b5573d6000803e3d6000fd5b505050506040513d601f19601f820116820180604052508101906137d99190613d44565b604051630b4c774160e11b8152909150600090731f98431c8ad98523631ae4a59f267346ea31f98490631698ee829061381c9089908990610bb8906004016143df565b60206040518083038186803b15801561383457600080fd5b505afa158015613848573d6000803e3d6000fd5b505050506040513d601f19601f8201168201806040525081019061386c9190613d44565b604051630b4c774160e11b8152909150600090731f98431c8ad98523631ae4a59f267346ea31f98490631698ee82906138af908a908a90612710906004016143df565b60206040518083038186803b1580156138c757600080fd5b505afa1580156138db573d6000803e3d6000fd5b505050506040513d601f19601f820116820180604052508101906138ff9190613d44565b905060006001600160a01b038416613918576000613989565b836001600160a01b0316631a6865026040518163ffffffff1660e01b815260040160206040518083038186803b15801561395157600080fd5b505afa158015613965573d6000803e3d6000fd5b505050506040513d601f19601f8201168201806040525081019061398991906140fe565b905060006001600160a01b0384166139a2576000613a13565b836001600160a01b0316631a6865026040518163ffffffff1660e01b815260040160206040518083038186803b1580156139db57600080fd5b505afa1580156139ef573d6000803e3d6000fd5b505050506040513d601f19601f82011682018060405250810190613a1391906140fe565b905060006001600160a01b038416613a2c576000613a9d565b836001600160a01b0316631a6865026040518163ffffffff1660e01b815260040160206040518083038186803b158015613a6557600080fd5b505afa158015613a79573d6000803e3d6000fd5b505050506040513d601f19601f82011682018060405250810190613a9d91906140fe565b9050816001600160801b0316836001600160801b0316118015613ad25750806001600160801b0316836001600160801b031610155b15613aea57856101f4975097505050505050506104e7565b826001600160801b0316826001600160801b0316118015613b1d5750806001600160801b0316826001600160801b031610155b15613b355784610bb8975097505050505050506104e7565b50919861271098509650505050505050565b600082613b5657506000611567565b82820282848281613b6357fe5b04146134a65760405162461bcd60e51b81526004018080602001828103825260218152602001806147296021913960400191505060405180910390fd5b6000808211613bf6576040805162461bcd60e51b815260206004820152601a60248201527f536166654d6174683a206469766973696f6e206279207a65726f000000000000604482015290519081900360640190fd5b818381613bff57fe5b049392505050565b6000821580613c2257505081810281838281613c1f57fe5b04145b61156757600080fd5b604051806101800160405280600c906020820280368337509192915050565b60405180608001604052806004906020820280368337509192915050565b604051806101400160405280600a906020820280368337509192915050565b6040518061012001604052806009906020820280368337509192915050565b60405180606001604052806003906020820280368337509192915050565b600067ffffffffffffffff831115613cd857fe5b613ceb601f8401601f19166020016146a2565b9050828152838383011115613cff57600080fd5b6134a68360208301846146e4565b803561351f81614710565b8051801515811461351f57600080fd5b600060208284031215613d39578081fd5b81356134a681614710565b600060208284031215613d55578081fd5b81516134a681614710565b60008060408385031215613d72578081fd5b8235613d7d81614710565b91506020830135613d8d81614710565b809150509250929050565b600080600080600080600060e0888a031215613db2578283fd5b8751613dbd81614710565b9650613dcb60208901613d18565b9550613dd960408901613d18565b9450613de760608901613d18565b93506080880151925060a0880151915060c0880151905092959891949750929550565b60008060408385031215613e1c578182fd5b8235613e2781614710565b946020939093013593505050565b60006020808385031215613e47578182fd5b825167ffffffffffffffff811115613e5d578283fd5b8301601f81018513613e6d578283fd5b8051613e80613e7b826146c6565b6146a2565b8181528381019083850185840285018601891015613e9c578687fd5b8694505b83851015613ec7578051613eb381614710565b835260019490940193918501918501613ea0565b50979650505050505050565b60008060408385031215613ee5578182fd5b823567ffffffffffffffff811115613efb578283fd5b8301601f81018513613f0b578283fd5b80356020613f1b613e7b836146c6565b82815281810190848301838502860184018a1015613f37578788fd5b8795505b84861015613f62578035613f4e81614710565b835260019590950194918301918301613f3b565b509550613f729050868201613d0d565b93505050509250929050565b600060608284031215613f8f578081fd5b82601f830112613f9d578081fd5b6040516060810181811067ffffffffffffffff82111715613fba57fe5b604052808360608101861015613fce578384fd5b835b6003811015613fef578151835260209283019290910190600101613fd0565b509195945050505050565b6000602080838503121561400c578182fd5b825167ffffffffffffffff811115614022578283fd5b8301601f81018513614032578283fd5b8051614040613e7b826146c6565b818152838101908385018584028501860189101561405c578687fd5b8694505b83851015613ec7578051835260019490940193918501918501614060565b60006020828403121561408f578081fd5b6134a682613d18565b6000602082840312156140a9578081fd5b5051919050565b6000602082840312156140c1578081fd5b815167ffffffffffffffff8111156140d7578182fd5b8201601f810184136140e7578182fd5b6140f684825160208401613cc4565b949350505050565b60006020828403121561410f578081fd5b81516001600160801b03811681146134a6578182fd5b6000806000806000806000806000806101408b8d031215614144578384fd5b8a51995060208b0151985060408b0151975060608b0151965060808b0151955060a08b0151945060c08b0151935060e08b015192506101008b015191506101208b015190509295989b9194979a5092959850565b6000806000606084860312156141ac578081fd5b835160ff811681146141bc578182fd5b60208501519093506141cd81614710565b604085015190925067ffffffffffffffff8111156141e9578182fd5b8401601f810186136141f9578182fd5b61420886825160208401613cc4565b9150509250925092565b600060208284031215614223578081fd5b81516bffffffffffffffffffffffff811681146134a6578182fd5b6000815180845260208085019450808401835b838110156142765781516001600160a01b031687529582019590820190600101614251565b509495945050505050565b6000815180845260208085019450808401835b83811015614276578151151587529582019590820190600101614294565b8060005b600a8110156142d55781518452602093840193909101906001016142b6565b50505050565b8060005b60038110156142d55781518452602093840193909101906001016142df565b8060005b60098110156142d5578151845260209384019390910190600101614302565b6000815180845260208085019450808401835b8381101561427657815187529582019590820190600101614334565b600081518084526143688160208601602086016146e4565b601f01601f19169290920160200192915050565b6001600160a01b0391909116815260200190565b6001600160a01b0392831681529116602082015260400190565b60006001600160a01b038086168352808516602084015250606060408301526143d6606083018461423e565b95945050505050565b6001600160a01b03938416815291909216602082015262ffffff909116604082015260600190565b60006102006001600160a01b03881683526020818185015261442b82850189614350565b91506040840187845b600c81101561445157815183529183019190830190600101614434565b505050508281036101c08401526144688186614281565b90508281036101e084015261447d8185614321565b98975050505050505050565b60006040825261449c604083018561423e565b82810360208401526143d68185614281565b6000604082526144c16040830185614321565b82810360208401526143d68185614321565b606080825284519082018190526000906020906080840190828801845b8281101561450f57815160ff16845292840192908401906001016144f0565b50505083810382850152614523818761423e565b848103604086015285518082529091508282019083810283018401848801865b8381101561457157601f1986840301855261455f838351614350565b94870194925090860190600101614543565b50909a9950505050505050505050565b91151582521515602082015260400190565b921515835290151560208301521515604082015260600190565b60006104008083526145c18184018e614350565b90506020838203818501526145d6828e614350565b6001600160a01b038d811660408701528c1660608601529150608084018a845b60048110156146155781511515835291830191908301906001016145f6565b5050505082810361010084015261462c818961423e565b9050828103610120840152614641818861423e565b9150506146526101408301866142b2565b6146606102808301856142fe565b61466e6103a08301846142db565b9b9a5050505050505050505050565b90815260200190565b918252602082015260400190565b60ff91909116815260200190565b60405181810167ffffffffffffffff811182821017156146be57fe5b604052919050565b600067ffffffffffffffff8211156146da57fe5b5060209081020190565b60005b838110156146ff5781810151838201526020016146e7565b838111156142d55750506000910152565b6001600160a01b038116811461472557600080fd5b5056fe536166654d6174683a206d756c7469706c69636174696f6e206f766572666c6f77a2646970667358221220db5d44cde156016035ff53e23fc173aef897cbb3048ab6d39af77ca89e0453d864736f6c63430007060033",
  "devdoc": {
    "author": "Babylon Finance Class that holds common view functions to retrieve garden information effectively",
    "kind": "dev",
    "methods": {
      "getCompleteStrategy(address)": {
        "params": {
          "_strategy": "Address of the strategy to fetch"
        },
        "returns": {
          "_0": "All strategy details"
        }
      },
      "getGardenDetails(address)": {
        "params": {
          "_garden": "Address of the garden to fetch"
        },
        "returns": {
          "_0": "Garden complete details"
        }
      }
    },
    "title": "BabylonViewer",
    "version": 1
  },
  "userdoc": {
    "kind": "user",
    "methods": {
      "getCompleteStrategy(address)": {
        "notice": "Gets complete strategy details"
      },
      "getGardenDetails(address)": {
        "notice": "Gets garden details"
      }
    },
    "version": 1
  },
  "storageLayout": {
    "storage": [
      {
        "astId": 10555,
        "contract": "contracts/BabylonViewer.sol:BabylonViewer",
        "label": "controller",
        "offset": 0,
        "slot": "0",
        "type": "t_contract(IBabController)28936"
      }
    ],
    "types": {
      "t_contract(IBabController)28936": {
        "encoding": "inplace",
        "label": "contract IBabController",
        "numberOfBytes": "20"
      }
    }
  }
}