{
  "address": "0x8208286b7B694a575Dd5CDd001fCf1f10a6741ff",
  "abi": [
    {
      "inputs": [
        {
          "internalType": "contract IBabController",
          "name": "_controller",
          "type": "address"
        }
      ],
      "stateMutability": "nonpayable",
      "type": "constructor"
    },
    {
      "inputs": [
        {
          "internalType": "address",
          "name": "_address",
          "type": "address"
        }
      ],
      "name": "getAllProphets",
      "outputs": [
        {
          "internalType": "uint256[]",
          "name": "",
          "type": "uint256[]"
        }
      ],
      "stateMutability": "view",
      "type": "function"
    },
    {
      "inputs": [
        {
          "internalType": "address",
          "name": "_strategy",
          "type": "address"
        }
      ],
      "name": "getCompleteStrategy",
      "outputs": [
        {
          "internalType": "address",
          "name": "",
          "type": "address"
        },
        {
          "internalType": "string",
          "name": "",
          "type": "string"
        },
        {
          "internalType": "uint256[16]",
          "name": "",
          "type": "uint256[16]"
        },
        {
          "internalType": "bool[]",
          "name": "",
          "type": "bool[]"
        },
        {
          "internalType": "uint256[]",
          "name": "",
          "type": "uint256[]"
        }
      ],
      "stateMutability": "view",
      "type": "function"
    },
    {
      "inputs": [
        {
          "internalType": "address",
          "name": "_garden",
          "type": "address"
        },
        {
          "internalType": "address",
          "name": "_user",
          "type": "address"
        }
      ],
      "name": "getContributionAndRewards",
      "outputs": [
        {
          "internalType": "uint256[]",
          "name": "",
          "type": "uint256[]"
        },
        {
          "internalType": "uint256[]",
          "name": "",
          "type": "uint256[]"
        },
        {
          "internalType": "uint256[]",
          "name": "",
          "type": "uint256[]"
        }
      ],
      "stateMutability": "view",
      "type": "function"
    },
    {
      "inputs": [
        {
          "internalType": "address",
          "name": "_garden",
          "type": "address"
        }
      ],
      "name": "getGardenDetails",
      "outputs": [
        {
          "internalType": "string",
          "name": "",
          "type": "string"
        },
        {
          "internalType": "string",
          "name": "",
          "type": "string"
        },
        {
          "internalType": "address[5]",
          "name": "",
          "type": "address[5]"
        },
        {
          "internalType": "address",
          "name": "",
          "type": "address"
        },
        {
          "internalType": "bool[4]",
          "name": "",
          "type": "bool[4]"
        },
        {
          "internalType": "address[]",
          "name": "",
          "type": "address[]"
        },
        {
          "internalType": "address[]",
          "name": "",
          "type": "address[]"
        },
        {
          "internalType": "uint256[12]",
          "name": "",
          "type": "uint256[12]"
        },
        {
          "internalType": "uint256[10]",
          "name": "",
          "type": "uint256[10]"
        },
        {
          "internalType": "uint256[3]",
          "name": "",
          "type": "uint256[3]"
        }
      ],
      "stateMutability": "view",
      "type": "function"
    },
    {
      "inputs": [
        {
          "internalType": "address",
          "name": "_garden",
          "type": "address"
        },
        {
          "internalType": "address",
          "name": "_user",
          "type": "address"
        }
      ],
      "name": "getGardenPermissions",
      "outputs": [
        {
          "internalType": "bool",
          "name": "",
          "type": "bool"
        },
        {
          "internalType": "bool",
          "name": "",
          "type": "bool"
        },
        {
          "internalType": "bool",
          "name": "",
          "type": "bool"
        }
      ],
      "stateMutability": "view",
      "type": "function"
    },
    {
      "inputs": [
        {
          "internalType": "address",
          "name": "_garden",
          "type": "address"
        }
      ],
      "name": "getGardenPrincipal",
      "outputs": [
        {
          "internalType": "uint256",
          "name": "",
          "type": "uint256"
        }
      ],
      "stateMutability": "view",
      "type": "function"
    },
    {
      "inputs": [
        {
          "internalType": "address",
          "name": "_garden",
          "type": "address"
        },
        {
          "internalType": "address",
          "name": "_user",
          "type": "address"
        }
      ],
      "name": "getGardenUserAvgPricePerShare",
      "outputs": [
        {
          "internalType": "uint256",
          "name": "",
          "type": "uint256"
        }
      ],
      "stateMutability": "view",
      "type": "function"
    },
    {
      "inputs": [
        {
          "internalType": "address",
          "name": "_user",
          "type": "address"
        },
        {
          "internalType": "uint256",
          "name": "_offset",
          "type": "uint256"
        }
      ],
      "name": "getGardensUser",
      "outputs": [
        {
          "internalType": "address[]",
          "name": "",
          "type": "address[]"
        },
        {
          "internalType": "bool[]",
          "name": "",
          "type": "bool[]"
        }
      ],
      "stateMutability": "view",
      "type": "function"
    },
    {
      "inputs": [
        {
          "internalType": "address",
          "name": "_strategy",
          "type": "address"
        }
      ],
      "name": "getOperationsStrategy",
      "outputs": [
        {
          "internalType": "uint8[]",
          "name": "",
          "type": "uint8[]"
        },
        {
          "internalType": "address[]",
          "name": "",
          "type": "address[]"
        },
        {
          "internalType": "bytes[]",
          "name": "",
          "type": "bytes[]"
        }
      ],
      "stateMutability": "view",
      "type": "function"
    },
    {
      "inputs": [
        {
          "internalType": "address",
          "name": "_user",
          "type": "address"
        }
      ],
      "name": "getPermissions",
      "outputs": [
        {
          "internalType": "bool",
          "name": "",
          "type": "bool"
        },
        {
          "internalType": "bool",
          "name": "",
          "type": "bool"
        }
      ],
      "stateMutability": "view",
      "type": "function"
    },
    {
      "inputs": [
        {
          "internalType": "address",
          "name": "_garden",
          "type": "address"
        },
        {
          "internalType": "address[]",
          "name": "_members",
          "type": "address[]"
        }
      ],
      "name": "getPotentialVotes",
      "outputs": [
        {
          "internalType": "uint256",
          "name": "",
          "type": "uint256"
        }
      ],
      "stateMutability": "view",
      "type": "function"
    },
    {
      "inputs": [
        {
          "internalType": "address",
          "name": "_tokenIn",
          "type": "address"
        },
        {
          "internalType": "address",
          "name": "_reserveAsset",
          "type": "address"
        }
      ],
      "name": "getPriceAndLiquidity",
      "outputs": [
        {
          "internalType": "uint256",
          "name": "",
          "type": "uint256"
        },
        {
          "internalType": "uint256",
          "name": "",
          "type": "uint256"
        }
      ],
      "stateMutability": "view",
      "type": "function"
    },
    {
      "inputs": [
        {
          "internalType": "address[]",
          "name": "_strategies",
          "type": "address[]"
        },
        {
          "internalType": "address",
          "name": "_user",
          "type": "address"
        }
      ],
      "name": "getUserStrategyActions",
      "outputs": [
        {
          "internalType": "uint256",
          "name": "",
          "type": "uint256"
        },
        {
          "internalType": "uint256",
          "name": "",
          "type": "uint256"
        }
      ],
      "stateMutability": "view",
      "type": "function"
    }
  ],
  "transactionHash": "0x156cbf91c6c78edefe8e0df65b51c5bb3fd25215487c10279e5b9b3ea339fc05",
  "args": [
    "0xD4a5b5fcB561dAF3aDF86F8477555B92FBa43b5F"
  ],
  "numDeployments": 3,
  "solcInputHash": "8f24fe1dad55345ad391289508383784",
  "bytecode": "0x60a06040523480156200001157600080fd5b506040516200601e3803806200601e83398101604081905262000034916200004a565b60601b6001600160601b0319166080526200007a565b6000602082840312156200005c578081fd5b81516001600160a01b038116811462000073578182fd5b9392505050565b60805160601c615f45620000d96000398061028352806104d552806105ff5280610b7c5280610d855280611cb9528061221f52806138895280613fa2528061458652806146c0528061480d52806148e15280614a305250615f456000f3fe608060405234801561001057600080fd5b50600436106100df5760003560e01c80639cc98ff91161008c578063bf6f933711610066578063bf6f93371461020b578063d005ce5c1461021e578063e644fe0914610247578063ede1209e1461025a576100df565b80639cc98ff9146101a8578063a63037da146101c8578063b105b044146101ea576100df565b80635dcb4959116100bd5780635dcb495914610151578063932a6942146101755780639ab0542614610195576100df565b8063160a7925146100e45780631b76c1241461010e5780634c038f201461012f575b600080fd5b6100f76100f236600461542f565b61027c565b604051610105929190615d61565b60405180910390f35b61012161011c366004615467565b6104d0565b604051610105929190615e6d565b61014261013d366004615467565b6105f7565b60405161010593929190615d73565b61016461015f36600461542f565b6109e7565b604051610105959493929190615ba7565b610188610183366004615467565b6115b6565b6040516101059190615d8d565b6101216101a336600461565c565b611704565b6101bb6101b636600461542f565b611898565b6040516101059190615c67565b6101db6101d636600461542f565b611a3b565b60405161010593929190615cb3565b6101fd6101f8366004615593565b611cb2565b604051610105929190615c42565b61018861021936600461549f565b611f18565b61023161022c36600461542f565b61210d565b6040516101059a99989796959493929190615d96565b61018861025536600461542f565b613710565b61026d610268366004615467565b613ce3565b60405161010593929190615c7a565b60008060007f00000000000000000000000000000000000000000000000000000000000000006001600160a01b0316630ebdb9a26040518163ffffffff1660e01b815260040160206040518083038186803b1580156102da57600080fd5b505afa1580156102ee573d6000803e3d6000fd5b505050506040513d601f19601f82011682018060405250810190610312919061544b565b6040516370a0823160e01b815290915060009081907326231a65ef80706307bbe71f032dc1e5bf28ce43906370a0823190610351908990600401615b1c565b60206040518083038186803b15801561036957600080fd5b505afa15801561037d573d6000803e3d6000fd5b505050506040513d601f19601f820116820180604052508101906103a19190615821565b119050816001600160a01b03166320382f8e866040518263ffffffff1660e01b81526004016103d09190615b1c565b60206040518083038186803b1580156103e857600080fd5b505afa1580156103fc573d6000803e3d6000fd5b505050506040513d601f19601f820116820180604052508101906104209190615807565b806104285750805b6040517f7804a5dc0000000000000000000000000000000000000000000000000000000081526001600160a01b03841690637804a5dc9061046d908990600401615b1c565b60206040518083038186803b15801561048557600080fd5b505afa158015610499573d6000803e3d6000fd5b505050506040513d601f19601f820116820180604052508101906104bd9190615807565b806104c55750815b935093505050915091565b6000807f00000000000000000000000000000000000000000000000000000000000000006001600160a01b0316632630c12f6040518163ffffffff1660e01b815260040160206040518083038186803b15801561052c57600080fd5b505afa158015610540573d6000803e3d6000fd5b505050506040513d601f19601f82011682018060405250810190610564919061544b565b6001600160a01b031663ac41865a85856040518363ffffffff1660e01b8152600401610591929190615b30565b60206040518083038186803b1580156105a957600080fd5b505afa1580156105bd573d6000803e3d6000fd5b505050506040513d601f19601f820116820180604052508101906105e19190615821565b6105eb85856141dc565b915091505b9250929050565b6000806000807f00000000000000000000000000000000000000000000000000000000000000006001600160a01b0316630ebdb9a26040518163ffffffff1660e01b815260040160206040518083038186803b15801561065657600080fd5b505afa15801561066a573d6000803e3d6000fd5b505050506040513d601f19601f8201168201806040525081019061068e919061544b565b6040517fc7ec5d5d0000000000000000000000000000000000000000000000000000000081529091506001906001600160a01b0383169063c7ec5d5d906106db908a908a90600401615b30565b60206040518083038186803b1580156106f357600080fd5b505afa158015610707573d6000803e3d6000fd5b505050506040513d601f19601f8201168201806040525081019061072b9190615807565b806107ac57508080156107ac5750866001600160a01b031663550c2b7f6040518163ffffffff1660e01b815260040160206040518083038186803b15801561077257600080fd5b505afa158015610786573d6000803e3d6000fd5b505050506040513d601f19601f820116820180604052508101906107aa9190615807565b155b6040517f4d98fbf00000000000000000000000000000000000000000000000000000000081526001600160a01b03841690634d98fbf0906107f3908b908b90600401615b30565b60206040518083038186803b15801561080b57600080fd5b505afa15801561081f573d6000803e3d6000fd5b505050506040513d601f19601f820116820180604052508101906108439190615807565b806108c257508180156108c25750876001600160a01b03166377e7ff3c6040518163ffffffff1660e01b815260040160206040518083038186803b15801561088a57600080fd5b505afa15801561089e573d6000803e3d6000fd5b505050506040513d601f19601f820116820180604052508101906108c29190615807565b6040517f5066c7140000000000000000000000000000000000000000000000000000000081526001600160a01b03851690635066c71490610909908c908c90600401615b30565b60206040518083038186803b15801561092157600080fd5b505afa158015610935573d6000803e3d6000fd5b505050506040513d601f19601f820116820180604052508101906109599190615807565b806109d857508280156109d85750886001600160a01b0316631780998b6040518163ffffffff1660e01b815260040160206040518083038186803b1580156109a057600080fd5b505afa1580156109b4573d6000803e3d6000fd5b505050506040513d601f19601f820116820180604052508101906109d89190615807565b94509450945050509250925092565b600060606109f3615314565b604080516003808252608082019092526060918291879160009190602082018580368337505060408051600480825260a08201909252929350600092915060208201608080368337019050509050826001600160a01b031663bf1dcfe26040518163ffffffff1660e01b815260040160e06040518083038186803b158015610a7a57600080fd5b505afa158015610a8e573d6000803e3d6000fd5b505050506040513d601f19601f82011682018060405250810190610ab29190615521565b9091929394955087600081518110610ac657fe5b6020026020010188600181518110610ada57fe5b6020026020010189600281518110610aee57fe5b6020026020010189600081518110610b0257fe5b602002602001018a600181518110610b1657fe5b602002602001018b600281518110610b2a57fe5b602090810291909101019590955294909352939092529215159092529115159091529015159052805160009082906001908110610b6357fe5b602002602001015160001415610b7a576000610c86565b7f00000000000000000000000000000000000000000000000000000000000000006001600160a01b0316633f2a55406040518163ffffffff1660e01b815260040160206040518083038186803b158015610bd357600080fd5b505afa158015610be7573d6000803e3d6000fd5b505050506040513d601f19601f82011682018060405250810190610c0b919061544b565b6001600160a01b0316639de9a0528b6040518263ffffffff1660e01b8152600401610c369190615b1c565b60206040518083038186803b158015610c4e57600080fd5b505afa158015610c62573d6000803e3d6000fd5b505050506040513d601f19601f82011682018060405250810190610c869190615821565b9050836001600160a01b031663a30ca2046040518163ffffffff1660e01b815260040160206040518083038186803b158015610cc157600080fd5b505afa158015610cd5573d6000803e3d6000fd5b505050506040513d601f19601f82011682018060405250810190610cf99190615821565b82600381518110610d0657fe5b602002602001018181525050836001600160a01b0316631fe4a6866040518163ffffffff1660e01b815260040160206040518083038186803b158015610d4b57600080fd5b505afa158015610d5f573d6000803e3d6000fd5b505050506040513d601f19601f82011682018060405250810190610d83919061544b565b7f00000000000000000000000000000000000000000000000000000000000000006001600160a01b031663d6a45aa56040518163ffffffff1660e01b815260040160206040518083038186803b158015610ddc57600080fd5b505afa158015610df0573d6000803e3d6000fd5b505050506040513d601f19601f82011682018060405250810190610e14919061544b565b6001600160a01b03166323b0e4158c6040518263ffffffff1660e01b8152600401610e3f9190615b1c565b60006040518083038186803b158015610e5757600080fd5b505afa158015610e6b573d6000803e3d6000fd5b505050506040513d6000823e601f3d908101601f19168201604052610e939190810190615839565b604051806102000160405280876001600160a01b031663dd1033f86040518163ffffffff1660e01b815260040160206040518083038186803b158015610ed857600080fd5b505afa158015610eec573d6000803e3d6000fd5b505050506040513d601f19601f82011682018060405250810190610f109190615821565b8152602001876001600160a01b0316633a4b66f16040518163ffffffff1660e01b815260040160206040518083038186803b158015610f4e57600080fd5b505afa158015610f62573d6000803e3d6000fd5b505050506040513d601f19601f82011682018060405250810190610f869190615821565b8152602001876001600160a01b031663d40244cb6040518163ffffffff1660e01b815260040160206040518083038186803b158015610fc457600080fd5b505afa158015610fd8573d6000803e3d6000fd5b505050506040513d601f19601f82011682018060405250810190610ffc9190615821565b8152602001876001600160a01b031663449b98266040518163ffffffff1660e01b815260040160206040518083038186803b15801561103a57600080fd5b505afa15801561104e573d6000803e3d6000fd5b505050506040513d601f19601f820116820180604052508101906110729190615821565b8152602001876001600160a01b03166303cddb2c6040518163ffffffff1660e01b815260040160206040518083038186803b1580156110b057600080fd5b505afa1580156110c4573d6000803e3d6000fd5b505050506040513d601f19601f820116820180604052508101906110e89190615821565b8152602001876001600160a01b03166303976e386040518163ffffffff1660e01b815260040160206040518083038186803b15801561112657600080fd5b505afa15801561113a573d6000803e3d6000fd5b505050506040513d601f19601f8201168201806040525081019061115e9190615821565b8152602001876001600160a01b0316630fb5a6b46040518163ffffffff1660e01b815260040160206040518083038186803b15801561119c57600080fd5b505afa1580156111b0573d6000803e3d6000fd5b505050506040513d601f19601f820116820180604052508101906111d49190615821565b8152602001876001600160a01b031663d3406abd6040518163ffffffff1660e01b815260040160206040518083038186803b15801561121257600080fd5b505afa158015611226573d6000803e3d6000fd5b505050506040513d601f19601f8201168201806040525081019061124a9190615821565b8152602001876001600160a01b03166393baae416040518163ffffffff1660e01b815260040160206040518083038186803b15801561128857600080fd5b505afa15801561129c573d6000803e3d6000fd5b505050506040513d601f19601f820116820180604052508101906112c09190615821565b8152602001876001600160a01b0316636db9cc996040518163ffffffff1660e01b815260040160206040518083038186803b1580156112fe57600080fd5b505afa158015611312573d6000803e3d6000fd5b505050506040513d601f19601f820116820180604052508101906113369190615821565b8152602001876001600160a01b0316630126c6066040518163ffffffff1660e01b815260040160206040518083038186803b15801561137457600080fd5b505afa158015611388573d6000803e3d6000fd5b505050506040513d601f19601f820116820180604052508101906113ac9190615821565b8152602001848152602001876001600160a01b031663707cddfe6040518163ffffffff1660e01b815260040160206040518083038186803b1580156113f057600080fd5b505afa158015611404573d6000803e3d6000fd5b505050506040513d601f19601f820116820180604052508101906114289190615821565b8152602001876001600160a01b031663397dc9036040518163ffffffff1660e01b815260040160206040518083038186803b15801561146657600080fd5b505afa15801561147a573d6000803e3d6000fd5b505050506040513d601f19601f8201168201806040525081019061149e9190615821565b8152602001876001600160a01b0316634b2e52f06040518163ffffffff1660e01b815260040160206040518083038186803b1580156114dc57600080fd5b505afa1580156114f0573d6000803e3d6000fd5b505050506040513d601f19601f820116820180604052508101906115149190615821565b8152602001876001600160a01b031663e4df5e1a6040518163ffffffff1660e01b815260040160206040518083038186803b15801561155257600080fd5b505afa158015611566573d6000803e3d6000fd5b505050506040513d601f19601f8201168201806040525081019061158a9190615807565b61159557600061159e565b61159e8e6146bc565b9052919c909b50909950929750909550909350505050565b6040805160028082526060820183526000928592849290916020830190803683375050604051633d8270f560e01b8152919250506001600160a01b03831690633d8270f590611609908790600401615b1c565b6101406040518083038186803b15801561162257600080fd5b505afa158015611636573d6000803e3d6000fd5b505050506040513d601f19601f8201168201806040525081019061165a91906158ae565b5050885192975090955087945060009350501515905061167657fe5b602002602001018360018151811061168a57fe5b60200260200101828152508281525050506000816001815181106116aa57fe5b6020026020010151116116be5760006116f9565b6116f9816001815181106116ce57fe5b6020026020010151826000815181106116e357fe5b60200260200101516147ca90919063ffffffff16565b925050505b92915050565b60008060008060005b86518160ff16101561188c576000878260ff168151811061172a57fe5b60200260200101519050866001600160a01b0316816001600160a01b0316631fe4a6866040518163ffffffff1660e01b815260040160206040518083038186803b15801561177757600080fd5b505afa15801561178b573d6000803e3d6000fd5b505050506040513d601f19601f820116820180604052508101906117af919061544b565b6001600160a01b031614156117cc576117c98460016147e2565b93505b6040517f950c78220000000000000000000000000000000000000000000000000000000081526000906001600160a01b0383169063950c782290611814908b90600401615b1c565b60206040518083038186803b15801561182c57600080fd5b505afa158015611840573d6000803e3d6000fd5b505050506040513d601f19601f820116820180604052508101906118649190615821565b905080156118825761187f611878826147f2565b85906147e2565b93505b505060010161170d565b50909590945092505050565b6040516370a0823160e01b81526060907326231a65ef80706307bbe71f032dc1e5bf28ce439060009082906370a08231906118d7908790600401615b1c565b60206040518083038186803b1580156118ef57600080fd5b505afa158015611903573d6000803e3d6000fd5b505050506040513d601f19601f820116820180604052508101906119279190615821565b905060008167ffffffffffffffff8111801561194257600080fd5b5060405190808252806020026020018201604052801561196c578160200160208202803683370190505b50905060005b82811015611a30576040517f2f745c590000000000000000000000000000000000000000000000000000000081526001600160a01b03851690632f745c59906119c19089908590600401615c29565b60206040518083038186803b1580156119d957600080fd5b505afa1580156119ed573d6000803e3d6000fd5b505050506040513d601f19601f82011682018060405250810190611a119190615821565b828281518110611a1d57fe5b6020908102919091010152600101611972565b50925050505b919050565b606080606060008490506000816001600160a01b031663dd1033f86040518163ffffffff1660e01b815260040160206040518083038186803b158015611a8057600080fd5b505afa158015611a94573d6000803e3d6000fd5b505050506040513d601f19601f82011682018060405250810190611ab89190615821565b905060008167ffffffffffffffff81118015611ad357600080fd5b50604051908082528060200260200182016040528015611afd578160200160208202803683370190505b50905060008267ffffffffffffffff81118015611b1957600080fd5b50604051908082528060200260200182016040528015611b43578160200160208202803683370190505b50905060008367ffffffffffffffff81118015611b5f57600080fd5b50604051908082528060200260200182016040528015611b9357816020015b6060815260200190600190039081611b7e5790505b50905060005b848160ff161015611ca2576040517f48a4beaa0000000000000000000000000000000000000000000000000000000081526001600160a01b038716906348a4beaa90611be9908490600401615e7b565b60006040518083038186803b158015611c0157600080fd5b505afa158015611c15573d6000803e3d6000fd5b505050506040513d6000823e601f3d908101601f19168201604052611c3d9190810190615921565b868460ff1681518110611c4c57fe5b60200260200101868560ff1681518110611c6257fe5b60200260200101868660ff1681518110611c7857fe5b60209081029190910101929092526001600160a01b03909216905260ff9091169052600101611b99565b5091989097509095509350505050565b60608060007f00000000000000000000000000000000000000000000000000000000000000006001600160a01b031663daec2a1a6040518163ffffffff1660e01b815260040160006040518083038186803b158015611d1057600080fd5b505afa158015611d24573d6000803e3d6000fd5b505050506040513d6000823e601f3d908101601f19168201604052611d4c91908101906155be565b604080516064808252610ca082019092529192506000919060208201610c80803683375050604080516064808252610ca08201909252929350600092915060208201610c80803683370190505090506000606484511115611db757611db28760646147e2565b611dba565b83515b905083518110611dcb578351611dcd565b805b90506000875b82811015611f08576000611dfa878381518110611dec57fe5b60200260200101518c6105f7565b505090508015611eff57868281518110611e1057fe5b6020026020010151868460ff1681518110611e2757fe5b60200260200101906001600160a01b031690816001600160a01b0316815250506000878381518110611e5557fe5b60200260200101516001600160a01b03166370a082318d6040518263ffffffff1660e01b8152600401611e889190615b1c565b60206040518083038186803b158015611ea057600080fd5b505afa158015611eb4573d6000803e3d6000fd5b505050506040513d601f19601f82011682018060405250810190611ed89190615821565b11858460ff1681518110611ee857fe5b911515602092830291909101909101526001909201915b50600101611dd3565b5092989197509095505050505050565b600080849050806001600160a01b03166377e7ff3c6040518163ffffffff1660e01b815260040160206040518083038186803b158015611f5757600080fd5b505afa158015611f6b573d6000803e3d6000fd5b505050506040513d601f19601f82011682018060405250810190611f8f9190615807565b1561200d57846001600160a01b03166318160ddd6040518163ffffffff1660e01b815260040160206040518083038186803b158015611fcd57600080fd5b505afa158015611fe1573d6000803e3d6000fd5b505050506040513d601f19601f820116820180604052508101906120059190615821565b915050612106565b6000805b84811015612101576000806120418989898681811061202c57fe5b905060200201602081019061013d919061542f565b50915091508180156120505750805b156120f7576120f4896001600160a01b03166370a082318a8a8781811061207357fe5b9050602002016020810190612088919061542f565b6040518263ffffffff1660e01b81526004016120a49190615b1c565b60206040518083038186803b1580156120bc57600080fd5b505afa1580156120d0573d6000803e3d6000fd5b505050506040513d601f19601f820116820180604052508101906118789190615821565b93505b5050600101612011565b509150505b9392505050565b606080612118615333565b6000612122615351565b60608061212d61536f565b61213561538e565b61213d6153ad565b8a600061214982613710565b60408051600480825260a0820190925291925060009190602082016080803683370190505090508d6001600160a01b03166318160ddd6040518163ffffffff1660e01b815260040160206040518083038186803b1580156121a957600080fd5b505afa1580156121bd573d6000803e3d6000fd5b505050506040513d601f19601f820116820180604052508101906121e19190615821565b816000815181106121ee57fe5b60200260200101818152505060008160008151811061220957fe5b60200260200101511161221d57600061239b565b7f00000000000000000000000000000000000000000000000000000000000000006001600160a01b031663294d237c6040518163ffffffff1660e01b815260040160206040518083038186803b15801561227657600080fd5b505afa15801561228a573d6000803e3d6000fd5b505050506040513d601f19601f820116820180604052508101906122ae919061544b565b6001600160a01b031663bc14773a8f856001600160a01b031663f85cb5c86040518163ffffffff1660e01b815260040160206040518083038186803b1580156122f657600080fd5b505afa15801561230a573d6000803e3d6000fd5b505050506040513d601f19601f8201168201806040525081019061232e919061544b565b6040518363ffffffff1660e01b815260040161234b929190615b30565b60206040518083038186803b15801561236357600080fd5b505afa158015612377573d6000803e3d6000fd5b505050506040513d601f19601f8201168201806040525081019061239b9190615821565b816001815181106123a857fe5b6020026020010181815250506123bd8e614809565b816002815181106123ca57fe5b602002602001018181525050826001600160a01b031663f85cb5c86040518163ffffffff1660e01b815260040160206040518083038186803b15801561240f57600080fd5b505afa158015612423573d6000803e3d6000fd5b505050506040513d601f19601f82011682018060405250810190612447919061544b565b6001600160a01b03166370a08231846040518263ffffffff1660e01b81526004016124729190615b1c565b60206040518083038186803b15801561248a57600080fd5b505afa15801561249e573d6000803e3d6000fd5b505050506040513d601f19601f820116820180604052508101906124c29190615821565b816003815181106124cf57fe5b602002602001018181525050826001600160a01b03166360d442ca6040518163ffffffff1660e01b815260040160206040518083038186803b15801561251457600080fd5b505afa158015612528573d6000803e3d6000fd5b505050506040513d601f19601f8201168201806040525081019061254c9190615821565b8160038151811061255957fe5b60200260200101511115612618576125fe836001600160a01b03166360d442ca6040518163ffffffff1660e01b815260040160206040518083038186803b1580156125a357600080fd5b505afa1580156125b7573d6000803e3d6000fd5b505050506040513d601f19601f820116820180604052508101906125db9190615821565b826003815181106125e857fe5b60200260200101516148c790919063ffffffff16565b8160038151811061260b57fe5b6020026020010181815250505b826001600160a01b031663b9e675396040518163ffffffff1660e01b815260040160206040518083038186803b15801561265157600080fd5b505afa158015612665573d6000803e3d6000fd5b505050506040513d601f19601f820116820180604052508101906126899190615821565b8160038151811061269657fe5b602002602001015111156126fe576126e0836001600160a01b031663b9e675396040518163ffffffff1660e01b815260040160206040518083038186803b1580156125a357600080fd5b816003815181106126ed57fe5b60200260200101818152505061271a565b60008160038151811061270d57fe5b6020026020010181815250505b60006127258f6148d7565b90508e6001600160a01b03166306fdde036040518163ffffffff1660e01b815260040160006040518083038186803b15801561276057600080fd5b505afa158015612774573d6000803e3d6000fd5b505050506040513d6000823e601f3d908101601f1916820160405261279c9190810190615839565b8f6001600160a01b03166395d89b416040518163ffffffff1660e01b815260040160006040518083038186803b1580156127d557600080fd5b505afa1580156127e9573d6000803e3d6000fd5b505050506040513d6000823e601f3d908101601f191682016040526128119190810190615839565b6040518060a00160405280876001600160a01b03166302d05d3f6040518163ffffffff1660e01b815260040160206040518083038186803b15801561285557600080fd5b505afa158015612869573d6000803e3d6000fd5b505050506040513d601f19601f8201168201806040525081019061288d919061544b565b6001600160a01b03166001600160a01b03168152602001876001600160a01b03166363f568b960006040518263ffffffff1660e01b81526004016128d19190615d8d565b60206040518083038186803b1580156128e957600080fd5b505afa1580156128fd573d6000803e3d6000fd5b505050506040513d601f19601f82011682018060405250810190612921919061544b565b6001600160a01b03166001600160a01b03168152602001876001600160a01b03166363f568b960016040518263ffffffff1660e01b81526004016129659190615d8d565b60206040518083038186803b15801561297d57600080fd5b505afa158015612991573d6000803e3d6000fd5b505050506040513d601f19601f820116820180604052508101906129b5919061544b565b6001600160a01b03166001600160a01b03168152602001876001600160a01b03166363f568b960026040518263ffffffff1660e01b81526004016129f99190615d8d565b60206040518083038186803b158015612a1157600080fd5b505afa158015612a25573d6000803e3d6000fd5b505050506040513d601f19601f82011682018060405250810190612a49919061544b565b6001600160a01b03166001600160a01b03168152602001876001600160a01b03166363f568b960036040518263ffffffff1660e01b8152600401612a8d9190615d8d565b60206040518083038186803b158015612aa557600080fd5b505afa158015612ab9573d6000803e3d6000fd5b505050506040513d601f19601f82011682018060405250810190612add919061544b565b6001600160a01b03166001600160a01b0316815250866001600160a01b031663f85cb5c86040518163ffffffff1660e01b815260040160206040518083038186803b158015612b2b57600080fd5b505afa158015612b3f573d6000803e3d6000fd5b505050506040513d601f19601f82011682018060405250810190612b63919061544b565b60405180608001604052806001151515158152602001896001600160a01b031663550c2b7f6040518163ffffffff1660e01b815260040160206040518083038186803b158015612bb257600080fd5b505afa158015612bc6573d6000803e3d6000fd5b505050506040513d601f19601f82011682018060405250810190612bea9190615807565b151515158152602001896001600160a01b0316631780998b6040518163ffffffff1660e01b815260040160206040518083038186803b158015612c2c57600080fd5b505afa158015612c40573d6000803e3d6000fd5b505050506040513d601f19601f82011682018060405250810190612c649190615807565b151515158152602001896001600160a01b03166377e7ff3c6040518163ffffffff1660e01b815260040160206040518083038186803b158015612ca657600080fd5b505afa158015612cba573d6000803e3d6000fd5b505050506040513d601f19601f82011682018060405250810190612cde9190615807565b15151515815250886001600160a01b031663b49a60bb6040518163ffffffff1660e01b815260040160006040518083038186803b158015612d1e57600080fd5b505afa158015612d32573d6000803e3d6000fd5b505050506040513d6000823e601f3d908101601f19168201604052612d5a91908101906155be565b896001600160a01b031663b304b8156040518163ffffffff1660e01b815260040160006040518083038186803b158015612d9357600080fd5b505afa158015612da7573d6000803e3d6000fd5b505050506040513d6000823e601f3d908101601f19168201604052612dcf91908101906155be565b6040518061018001604052808c6001600160a01b0316637550ed186040518163ffffffff1660e01b815260040160206040518083038186803b158015612e1457600080fd5b505afa158015612e28573d6000803e3d6000fd5b505050506040513d601f19601f82011682018060405250810190612e4c9190615821565b81526020018c6001600160a01b0316638bbde0fd6040518163ffffffff1660e01b815260040160206040518083038186803b158015612e8a57600080fd5b505afa158015612e9e573d6000803e3d6000fd5b505050506040513d601f19601f82011682018060405250810190612ec29190615821565b81526020018c6001600160a01b031663b63c44e76040518163ffffffff1660e01b815260040160206040518083038186803b158015612f0057600080fd5b505afa158015612f14573d6000803e3d6000fd5b505050506040513d601f19601f82011682018060405250810190612f389190615821565b81526020018c6001600160a01b0316635a16656a6040518163ffffffff1660e01b815260040160206040518083038186803b158015612f7657600080fd5b505afa158015612f8a573d6000803e3d6000fd5b505050506040513d601f19601f82011682018060405250810190612fae9190615821565b81526020018c6001600160a01b03166395cdbedb6040518163ffffffff1660e01b815260040160206040518083038186803b158015612fec57600080fd5b505afa158015613000573d6000803e3d6000fd5b505050506040513d601f19601f820116820180604052508101906130249190615821565b81526020018c6001600160a01b031663297ce5986040518163ffffffff1660e01b815260040160206040518083038186803b15801561306257600080fd5b505afa158015613076573d6000803e3d6000fd5b505050506040513d601f19601f8201168201806040525081019061309a9190615821565b81526020018c6001600160a01b0316633deddb3f6040518163ffffffff1660e01b815260040160206040518083038186803b1580156130d857600080fd5b505afa1580156130ec573d6000803e3d6000fd5b505050506040513d601f19601f820116820180604052508101906131109190615821565b81526020018c6001600160a01b031663aaffadf36040518163ffffffff1660e01b815260040160206040518083038186803b15801561314e57600080fd5b505afa158015613162573d6000803e3d6000fd5b505050506040513d601f19601f820116820180604052508101906131869190615821565b81526020018c6001600160a01b031663a63c643d6040518163ffffffff1660e01b815260040160206040518083038186803b1580156131c457600080fd5b505afa1580156131d8573d6000803e3d6000fd5b505050506040513d601f19601f820116820180604052508101906131fc9190615821565b81526020016132ec8d6001600160a01b03166360d442ca6040518163ffffffff1660e01b815260040160206040518083038186803b15801561323d57600080fd5b505afa158015613251573d6000803e3d6000fd5b505050506040513d601f19601f820116820180604052508101906132759190615821565b8e6001600160a01b031663a06931f96040518163ffffffff1660e01b815260040160206040518083038186803b1580156132ae57600080fd5b505afa1580156132c2573d6000803e3d6000fd5b505050506040513d601f19601f820116820180604052508101906132e69190615821565b906147e2565b81526020018c6001600160a01b031663d6888eab6040518163ffffffff1660e01b815260040160206040518083038186803b15801561332a57600080fd5b505afa15801561333e573d6000803e3d6000fd5b505050506040513d601f19601f820116820180604052508101906133629190615821565b81526020018c6001600160a01b0316633aa1f9ed6040518163ffffffff1660e01b815260040160206040518083038186803b1580156133a057600080fd5b505afa1580156133b4573d6000803e3d6000fd5b505050506040513d601f19601f820116820180604052508101906133d89190615821565b8152506040518061014001604052808c81526020018d6001600160a01b031663b9e675396040518163ffffffff1660e01b815260040160206040518083038186803b15801561342657600080fd5b505afa15801561343a573d6000803e3d6000fd5b505050506040513d601f19601f8201168201806040525081019061345e9190615821565b81526020018d6001600160a01b031663792e42e26040518163ffffffff1660e01b815260040160206040518083038186803b15801561349c57600080fd5b505afa1580156134b0573d6000803e3d6000fd5b505050506040513d601f19601f820116820180604052508101906134d49190615821565b81526020018d6001600160a01b031663cb12233b6040518163ffffffff1660e01b815260040160206040518083038186803b15801561351257600080fd5b505afa158015613526573d6000803e3d6000fd5b505050506040513d601f19601f8201168201806040525081019061354a9190615821565b81526020018d6001600160a01b031663f251fc8c6040518163ffffffff1660e01b815260040160206040518083038186803b15801561358857600080fd5b505afa15801561359c573d6000803e3d6000fd5b505050506040513d601f19601f820116820180604052508101906135c09190615821565b81526020018d6001600160a01b0316638b0e9f3f6040518163ffffffff1660e01b815260040160206040518083038186803b1580156135fe57600080fd5b505afa158015613612573d6000803e3d6000fd5b505050506040513d601f19601f820116820180604052508101906136369190615821565b815260200160008c60018151811061364a57fe5b60200260200101511161365e576000613699565b6136998c60018151811061366e57fe5b60200260200101518d60008151811061368357fe5b60200260200101516149eb90919063ffffffff16565b81526020018b6000815181106136ab57fe5b602002602001015181526020018b6002815181106136c557fe5b602002602001015181526020018b6003815181106136df57fe5b6020026020010151815250899d509d509d509d509d509d509d509d509d509d50505050509193959799509193959799565b6000808290506000816001600160a01b031663f85cb5c86040518163ffffffff1660e01b815260040160206040518083038186803b15801561375157600080fd5b505afa158015613765573d6000803e3d6000fd5b505050506040513d601f19601f82011682018060405250810190613789919061544b565b90506000613883836001600160a01b031663b9e675396040518163ffffffff1660e01b815260040160206040518083038186803b1580156137c957600080fd5b505afa1580156137dd573d6000803e3d6000fd5b505050506040513d601f19601f820116820180604052508101906138019190615821565b6040516370a0823160e01b81526001600160a01b038516906370a082319061382d908890600401615b1c565b60206040518083038186803b15801561384557600080fd5b505afa158015613859573d6000803e3d6000fd5b505050506040513d601f19601f8201168201806040525081019061387d9190615821565b906148c7565b905060007f00000000000000000000000000000000000000000000000000000000000000006001600160a01b031663313754776040518163ffffffff1660e01b815260040160206040518083038186803b1580156138e057600080fd5b505afa1580156138f4573d6000803e3d6000fd5b505050506040513d601f19601f820116820180604052508101906139189190615821565b90506000846001600160a01b031663b49a60bb6040518163ffffffff1660e01b815260040160006040518083038186803b15801561395557600080fd5b505afa158015613969573d6000803e3d6000fd5b505050506040513d6000823e601f3d908101601f1916820160405261399191908101906155be565b905060005b8151811015613abb5760008282815181106139ad57fe5b60200260200101519050613ab0613a35826001600160a01b03166303cddb2c6040518163ffffffff1660e01b815260040160206040518083038186803b1580156139f657600080fd5b505afa158015613a0a573d6000803e3d6000fd5b505050506040513d601f19601f82011682018060405250810190613a2e9190615821565b86906149eb565b6132e6836001600160a01b03166303cddb2c6040518163ffffffff1660e01b815260040160206040518083038186803b158015613a7157600080fd5b505afa158015613a85573d6000803e3d6000fd5b505050506040513d601f19601f82011682018060405250810190613aa99190615821565b88906147e2565b945050600101613996565b506000856001600160a01b031663b304b8156040518163ffffffff1660e01b815260040160006040518083038186803b158015613af757600080fd5b505afa158015613b0b573d6000803e3d6000fd5b505050506040513d6000823e601f3d908101601f19168201604052613b3391908101906155be565b905060005b8151811015613be9576000828281518110613b4f57fe5b60200260200101519050613bde613bd7826001600160a01b03166303cddb2c6040518163ffffffff1660e01b815260040160206040518083038186803b158015613b9857600080fd5b505afa158015613bac573d6000803e3d6000fd5b505050506040513d601f19601f82011682018060405250810190613bd09190615821565b87906149eb565b87906147e2565b955050600101613b38565b50613c26866001600160a01b031663a06931f96040518163ffffffff1660e01b815260040160206040518083038186803b1580156120bc57600080fd5b93506000866001600160a01b031663792e42e26040518163ffffffff1660e01b815260040160206040518083038186803b158015613c6357600080fd5b505afa158015613c77573d6000803e3d6000fd5b505050506040513d601f19601f82011682018060405250810190613c9b9190615821565b90506000811315613cc557808511613cb4576000613cbe565b613cbe85826148c7565b9450613cd6565b613cd38560008390036147e2565b94505b5092979650505050505050565b60408051600a80825261016082019092526060918291829186916000916020820161014080368337505060408051600480825260a082019092529293506000929150602082016080803683375050604051633d8270f560e01b8152919250506001600160a01b03841690633d8270f590613d61908a90600401615b1c565b6101406040518083038186803b158015613d7a57600080fd5b505afa158015613d8e573d6000803e3d6000fd5b505050506040513d601f19601f82011682018060405250810190613db291906158ae565b508a519092508a9150600090613dc457fe5b6020026020010189600181518110613dd857fe5b602002602001018a600281518110613dec57fe5b602002602001018b600381518110613e0057fe5b602002602001018c600481518110613e1457fe5b602002602001018d600581518110613e2857fe5b602002602001018e600881518110613e3c57fe5b60209081029190910101969096529590945294909352939052929052919052526040516370a0823160e01b81526001600160a01b038916906370a0823190613e88908a90600401615b1c565b60206040518083038186803b158015613ea057600080fd5b505afa158015613eb4573d6000803e3d6000fd5b505050506040513d601f19601f82011682018060405250810190613ed89190615821565b82600681518110613ee557fe5b60209081029190910101526040517fc40868930000000000000000000000000000000000000000000000000000000081526001600160a01b0384169063c408689390613f35908a90600401615b1c565b60206040518083038186803b158015613f4d57600080fd5b505afa158015613f61573d6000803e3d6000fd5b505050506040513d601f19601f82011682018060405250810190613f859190615821565b82600781518110613f9257fe5b60200260200101818152505060007f00000000000000000000000000000000000000000000000000000000000000006001600160a01b0316633f2a55406040518163ffffffff1660e01b815260040160206040518083038186803b158015613ff957600080fd5b505afa15801561400d573d6000803e3d6000fd5b505050506040513d601f19601f82011682018060405250810190614031919061544b565b6001600160a01b03166369795e938a8a876001600160a01b031663b304b8156040518163ffffffff1660e01b815260040160006040518083038186803b15801561407a57600080fd5b505afa15801561408e573d6000803e3d6000fd5b505050506040513d6000823e601f3d908101601f191682016040526140b691908101906155be565b6040518463ffffffff1660e01b81526004016140d493929190615b4a565b60006040518083038186803b1580156140ec57600080fd5b505afa158015614100573d6000803e3d6000fd5b505050506040513d6000823e601f3d908101601f191682016040526141289190810190615783565b905061413489896115b6565b8360098151811061414157fe5b6020026020010181815250506141cb88856001600160a01b031663b49a60bb6040518163ffffffff1660e01b815260040160006040518083038186803b15801561418a57600080fd5b505afa15801561419e573d6000803e3d6000fd5b505050506040513d6000823e601f3d908101601f191682016040526141c691908101906155be565b614a03565b929650945090925050509250925092565b6000816001600160a01b0316836001600160a01b0316141561420c57506c0c9f2c9cd04674edea400000006116fe565b60006142188484614c90565b5090506001600160a01b0381166142335760009150506116fe565b6000816001600160a01b0316631a6865026040518163ffffffff1660e01b815260040160206040518083038186803b15801561426e57600080fd5b505afa158015614282573d6000803e3d6000fd5b505050506040513d601f19601f820116820180604052508101906142a69190615887565b6001600160801b03169050600080856001600160a01b0316846001600160a01b0316630dfe16816040518163ffffffff1660e01b815260040160206040518083038186803b1580156142f757600080fd5b505afa15801561430b573d6000803e3d6000fd5b505050506040513d601f19601f8201168201806040525081019061432f919061544b565b6001600160a01b031614156144b75761443d846001600160a01b031663d21220a76040518163ffffffff1660e01b815260040160206040518083038186803b15801561437a57600080fd5b505afa15801561438e573d6000803e3d6000fd5b505050506040513d601f19601f820116820180604052508101906143b2919061544b565b6001600160a01b03166370a08231866040518263ffffffff1660e01b81526004016143dd9190615b1c565b60206040518083038186803b1580156143f557600080fd5b505afa158015614409573d6000803e3d6000fd5b505050506040513d601f19601f8201168201806040525081019061442d9190615821565b6144378580615092565b906150b6565b9150836001600160a01b0316630dfe16816040518163ffffffff1660e01b815260040160206040518083038186803b15801561447857600080fd5b505afa15801561448c573d6000803e3d6000fd5b505050506040513d601f19601f820116820180604052508101906144b0919061544b565b9050614569565b6144f3846001600160a01b0316630dfe16816040518163ffffffff1660e01b815260040160206040518083038186803b15801561437a57600080fd5b9150836001600160a01b031663d21220a76040518163ffffffff1660e01b815260040160206040518083038186803b15801561452e57600080fd5b505afa158015614542573d6000803e3d6000fd5b505050506040513d601f19601f82011682018060405250810190614566919061544b565b90505b856001600160a01b0316816001600160a01b0316146146b25760007f00000000000000000000000000000000000000000000000000000000000000006001600160a01b0316632630c12f6040518163ffffffff1660e01b815260040160206040518083038186803b1580156145dd57600080fd5b505afa1580156145f1573d6000803e3d6000fd5b505050506040513d601f19601f82011682018060405250810190614615919061544b565b90506000816001600160a01b031663ac41865a848a6040518363ffffffff1660e01b8152600401614647929190615b30565b60206040518083038186803b15801561465f57600080fd5b505afa158015614673573d6000803e3d6000fd5b505050506040513d601f19601f820116820180604052508101906146979190615821565b90506146ad83896146a887856149eb565b61511d565b935050505b5095945050505050565b60007f00000000000000000000000000000000000000000000000000000000000000006001600160a01b0316633f2a55406040518163ffffffff1660e01b815260040160206040518083038186803b15801561471757600080fd5b505afa15801561472b573d6000803e3d6000fd5b505050506040513d601f19601f8201168201806040525081019061474f919061544b565b6001600160a01b0316637eea8bb7836040518263ffffffff1660e01b815260040161477a9190615b1c565b60206040518083038186803b15801561479257600080fd5b505afa1580156147a6573d6000803e3d6000fd5b505050506040513d601f19601f820116820180604052508101906116fe9190615821565b60006121068261443785670de0b6b3a7640000615092565b808201828110156116fe57600080fd5b60008082121561480557816000036116fe565b5090565b60007f00000000000000000000000000000000000000000000000000000000000000006001600160a01b031663ead4c1cf6040518163ffffffff1660e01b815260040160206040518083038186803b15801561486457600080fd5b505afa158015614878573d6000803e3d6000fd5b505050506040513d601f19601f8201168201806040525081019061489c919061544b565b6001600160a01b031663181df307836040518263ffffffff1660e01b815260040161477a9190615b1c565b808203828111156116fe57600080fd5b6148df6153ad565b7f00000000000000000000000000000000000000000000000000000000000000006001600160a01b0316633f2a55406040518163ffffffff1660e01b815260040160206040518083038186803b15801561493857600080fd5b505afa15801561494c573d6000803e3d6000fd5b505050506040513d601f19601f82011682018060405250810190614970919061544b565b6001600160a01b031663070e8a4a836040518263ffffffff1660e01b815260040161499b9190615b1c565b60606040518083038186803b1580156149b357600080fd5b505afa1580156149c7573d6000803e3d6000fd5b505050506040513d601f19601f820116820180604052508101906116fe9190615707565b6000612106670de0b6b3a76400006144378585615092565b604080516008808252610120820190925260609160009190602082016101008036833701905050905060007f00000000000000000000000000000000000000000000000000000000000000006001600160a01b0316633f2a55406040518163ffffffff1660e01b815260040160206040518083038186803b158015614a8757600080fd5b505afa158015614a9b573d6000803e3d6000fd5b505050506040513d601f19601f82011682018060405250810190614abf919061544b565b905060005b8451811015614c865760408051600880825261012082019092526000916020820161010080368337019050509050858281518110614afe57fe5b60200260200101516001600160a01b031663e4df5e1a6040518163ffffffff1660e01b815260040160206040518083038186803b158015614b3e57600080fd5b505afa158015614b52573d6000803e3d6000fd5b505050506040513d601f19601f82011682018060405250810190614b769190615807565b614b805750614c7e565b826001600160a01b031663b8626391878481518110614b9b57fe5b6020026020010151896040518363ffffffff1660e01b8152600401614bc1929190615b30565b60006040518083038186803b158015614bd957600080fd5b505afa158015614bed573d6000803e3d6000fd5b505050506040513d6000823e601f3d908101601f19168201604052614c159190810190615783565b905060005b6008811015614c7b57614c5c828281518110614c3257fe5b6020026020010151868381518110614c4657fe5b60200260200101516147e290919063ffffffff16565b858281518110614c6857fe5b6020908102919091010152600101614c1a565b50505b600101614ac4565b5090949350505050565b604051630b4c774160e11b815260009081908190731f98431c8ad98523631ae4a59f267346ea31f98490631698ee8290614cd490889088906101f490600401615b7f565b60206040518083038186803b158015614cec57600080fd5b505afa158015614d00573d6000803e3d6000fd5b505050506040513d601f19601f82011682018060405250810190614d24919061544b565b604051630b4c774160e11b8152909150600090731f98431c8ad98523631ae4a59f267346ea31f98490631698ee8290614d679089908990610bb890600401615b7f565b60206040518083038186803b158015614d7f57600080fd5b505afa158015614d93573d6000803e3d6000fd5b505050506040513d601f19601f82011682018060405250810190614db7919061544b565b604051630b4c774160e11b8152909150600090731f98431c8ad98523631ae4a59f267346ea31f98490631698ee8290614dfa908a908a9061271090600401615b7f565b60206040518083038186803b158015614e1257600080fd5b505afa158015614e26573d6000803e3d6000fd5b505050506040513d601f19601f82011682018060405250810190614e4a919061544b565b905060006001600160a01b038416614e63576000614ed4565b836001600160a01b0316631a6865026040518163ffffffff1660e01b815260040160206040518083038186803b158015614e9c57600080fd5b505afa158015614eb0573d6000803e3d6000fd5b505050506040513d601f19601f82011682018060405250810190614ed49190615887565b905060006001600160a01b038416614eed576000614f5e565b836001600160a01b0316631a6865026040518163ffffffff1660e01b815260040160206040518083038186803b158015614f2657600080fd5b505afa158015614f3a573d6000803e3d6000fd5b505050506040513d601f19601f82011682018060405250810190614f5e9190615887565b905060006001600160a01b038416614f77576000614fe8565b836001600160a01b0316631a6865026040518163ffffffff1660e01b815260040160206040518083038186803b158015614fb057600080fd5b505afa158015614fc4573d6000803e3d6000fd5b505050506040513d601f19601f82011682018060405250810190614fe89190615887565b9050816001600160801b0316836001600160801b031611801561501d5750806001600160801b0316836001600160801b031610155b1561503557856101f4975097505050505050506105f0565b826001600160801b0316826001600160801b03161180156150685750806001600160801b0316826001600160801b031610155b156150805784610bb8975097505050505050506105f0565b50919861271098509650505050505050565b60008215806150ad575050818102818382816150aa57fe5b04145b6116fe57600080fd5b600080821161510c576040805162461bcd60e51b815260206004820152601a60248201527f536166654d6174683a206469766973696f6e206279207a65726f000000000000604482015290519081900360640190fd5b81838161511557fe5b049392505050565b600080615129856152de565b61519757846001600160a01b031663313ce5676040518163ffffffff1660e01b815260040160206040518083038186803b15801561516657600080fd5b505afa15801561517a573d6000803e3d6000fd5b505050506040513d602081101561519057600080fd5b505161519a565b60125b60ff16905060006151aa856152de565b61521857846001600160a01b031663313ce5676040518163ffffffff1660e01b815260040160206040518083038186803b1580156151e757600080fd5b505afa1580156151fb573d6000803e3d6000fd5b505050506040513d602081101561521157600080fd5b505161521b565b60125b60ff16905060128211158015615232575060128111155b615283576040805162461bcd60e51b815260206004820152601460248201527f556e737570706f7274656420646563696d616c73000000000000000000000000604482015290519081900360640190fd5b80821415615295578392505050612106565b818111156152bd576152b46152aa82846148c7565b8590600a0a615092565b92505050612106565b6152d46152ca83836148c7565b8590600a0a6150b6565b9695505050505050565b600073eeeeeeeeeeeeeeeeeeeeeeeeeeeeeeeeeeeeeeee6001600160a01b03831614806116fe5750506001600160a01b03161590565b6040518061020001604052806010906020820280368337509192915050565b6040518060a001604052806005906020820280368337509192915050565b60405180608001604052806004906020820280368337509192915050565b604051806101800160405280600c906020820280368337509192915050565b604051806101400160405280600a906020820280368337509192915050565b60405180606001604052806003906020820280368337509192915050565b600067ffffffffffffffff8311156153df57fe5b6153f2601f8401601f1916602001615e89565b905082815283838301111561540657600080fd5b612106836020830184615ecb565b8035611a3681615ef7565b80518015158114611a3657600080fd5b600060208284031215615440578081fd5b813561210681615ef7565b60006020828403121561545c578081fd5b815161210681615ef7565b60008060408385031215615479578081fd5b823561548481615ef7565b9150602083013561549481615ef7565b809150509250929050565b6000806000604084860312156154b3578081fd5b83356154be81615ef7565b9250602084013567ffffffffffffffff808211156154da578283fd5b818601915086601f8301126154ed578283fd5b8135818111156154fb578384fd5b876020808302850101111561550e578384fd5b6020830194508093505050509250925092565b600080600080600080600060e0888a03121561553b578485fd5b875161554681615ef7565b96506155546020890161541f565b95506155626040890161541f565b94506155706060890161541f565b93506080880151925060a0880151915060c0880151905092959891949750929550565b600080604083850312156155a5578182fd5b82356155b081615ef7565b946020939093013593505050565b600060208083850312156155d0578182fd5b825167ffffffffffffffff8111156155e6578283fd5b8301601f810185136155f6578283fd5b805161560961560482615ead565b615e89565b8181528381019083850185840285018601891015615625578687fd5b8694505b8385101561565057805161563c81615ef7565b835260019490940193918501918501615629565b50979650505050505050565b6000806040838503121561566e578182fd5b823567ffffffffffffffff811115615684578283fd5b8301601f81018513615694578283fd5b803560206156a461560483615ead565b82815281810190848301838502860184018a10156156c0578788fd5b8795505b848610156156eb5780356156d781615ef7565b8352600195909501949183019183016156c4565b5095506156fb9050868201615414565b93505050509250929050565b600060608284031215615718578081fd5b82601f830112615726578081fd5b6040516060810181811067ffffffffffffffff8211171561574357fe5b604052808360608101861015615757578384fd5b835b6003811015615778578151835260209283019290910190600101615759565b509195945050505050565b60006020808385031215615795578182fd5b825167ffffffffffffffff8111156157ab578283fd5b8301601f810185136157bb578283fd5b80516157c961560482615ead565b81815283810190838501858402850186018910156157e5578687fd5b8694505b838510156156505780518352600194909401939185019185016157e9565b600060208284031215615818578081fd5b6121068261541f565b600060208284031215615832578081fd5b5051919050565b60006020828403121561584a578081fd5b815167ffffffffffffffff811115615860578182fd5b8201601f81018413615870578182fd5b61587f848251602084016153cb565b949350505050565b600060208284031215615898578081fd5b81516001600160801b0381168114612106578182fd5b6000806000806000806000806000806101408b8d0312156158cd578384fd5b8a51995060208b0151985060408b0151975060608b0151965060808b0151955060a08b0151945060c08b0151935060e08b015192506101008b015191506101208b015190509295989b9194979a5092959850565b600080600060608486031215615935578081fd5b835160ff81168114615945578182fd5b602085015190935061595681615ef7565b604085015190925067ffffffffffffffff811115615972578182fd5b8401601f81018613615982578182fd5b615991868251602084016153cb565b9150509250925092565b6001600160a01b0316815260200190565b6001600160a01b03169052565b6000815180845260208085019450808401835b838110156159f15781516001600160a01b0316875295820195908201906001016159cc565b509495945050505050565b8060005b6004811015615a215781511515845260209384019390910190600101615a00565b50505050565b6000815180845260208085019450808401835b838110156159f1578151151587529582019590820190600101615a3a565b8060005b600a811015615a21578151845260209384019390910190600101615a5c565b8060005b600c811015615a21578151845260209384019390910190600101615a7f565b8060005b6003811015615a21578151845260209384019390910190600101615aa2565b6000815180845260208085019450808401835b838110156159f157815187529582019590820190600101615ad4565b60008151808452615b08816020860160208601615ecb565b601f01601f19169290920160200192915050565b6001600160a01b0391909116815260200190565b6001600160a01b0392831681529116602082015260400190565b60006001600160a01b03808616835280851660208401525060606040830152615b7660608301846159b9565b95945050505050565b6001600160a01b03938416815291909216602082015262ffffff909116604082015260600190565b60006102806001600160a01b038816835260208181850152615bcb82850189615af0565b91506040840187845b6010811015615bf157815183529183019190830190600101615bd4565b50505050828103610240840152615c088186615a27565b9050828103610260840152615c1d8185615ac1565b98975050505050505050565b6001600160a01b03929092168252602082015260400190565b600060408252615c5560408301856159b9565b8281036020840152615b768185615a27565b6000602082526121066020830184615ac1565b600060608252615c8d6060830186615ac1565b8281036020840152615c9f8186615ac1565b905082810360408401526152d48185615ac1565b606080825284519082018190526000906020906080840190828801845b82811015615cef57815160ff1684529284019290840190600101615cd0565b50505083810382850152615d0381876159b9565b848103604086015285518082529091508282019083810283018401848801865b83811015615d5157601f19868403018552615d3f838351615af0565b94870194925090860190600101615d23565b50909a9950505050505050505050565b91151582521515602082015260400190565b921515835290151560208301521515604082015260600190565b90815260200190565b60006104e0808352615daa8184018e615af0565b9050602083820381850152615dbf828e615af0565b9150604084018c845b6005811015615dea57615ddc83835161599b565b925090830190600101615dc8565b50505050615dfb60e084018b6159ac565b615e0961010084018a6159fc565b828103610180840152615e1c81896159b9565b90508281036101a0840152615e3181886159b9565b915050615e426101c0830186615a7b565b615e50610340830185615a58565b615e5e610480830184615a9e565b9b9a5050505050505050505050565b918252602082015260400190565b60ff91909116815260200190565b60405181810167ffffffffffffffff81118282101715615ea557fe5b604052919050565b600067ffffffffffffffff821115615ec157fe5b5060209081020190565b60005b83811015615ee6578181015183820152602001615ece565b83811115615a215750506000910152565b6001600160a01b0381168114615f0c57600080fd5b5056fea26469706673582212201d1631039346aa732042ef8dfbffb39872eed560aebcbb68709d7b48166e788564736f6c63430007060033",
  "devdoc": {
    "author": "Babylon Finance Class that holds common view functions to retrieve garden information effectively",
    "kind": "dev",
    "methods": {
      "getCompleteStrategy(address)": {
        "params": {
          "_strategy": "Address of the strategy to fetch"
        },
        "returns": {
          "_0": "All strategy details"
        }
      },
      "getGardenDetails(address)": {
        "params": {
          "_garden": "Address of the garden to fetch"
        },
        "returns": {
          "_0": "Garden complete details"
        }
      },
      "getGardenPrincipal(address)": {
        "params": {
          "_garden": "Address of the garden to fetch"
        },
        "returns": {
          "_0": "Garden principal"
        }
      },
      "getPotentialVotes(address,address[])": {
        "params": {
          "_garden": "Garden to retrieve votes for",
          "_members": "All members of a garden"
        },
        "returns": {
          "_0": "uint256 Total number of tokens that can vote"
        }
      }
    },
    "title": "BabylonViewer",
    "version": 1
  },
  "userdoc": {
    "kind": "user",
    "methods": {
      "getCompleteStrategy(address)": {
        "notice": "Gets complete strategy details"
      },
      "getGardenDetails(address)": {
        "notice": "Gets garden details"
      },
      "getGardenPrincipal(address)": {
        "notice": "Gets garden principal"
      },
      "getPotentialVotes(address,address[])": {
        "notice": "Gets the number of tokens that can vote in this garden"
      }
    },
    "version": 1
  },
  "storageLayout": {
    "storage": [],
    "types": null
  }
}