{
  "address": "0xBEC3de5b14902C660Bd2C7EfD2F259998424cc24",
  "abi": [
    {
      "inputs": [
        {
          "internalType": "contract ERC20VotesComp",
          "name": "_token",
          "type": "address"
        },
        {
          "internalType": "contract TimelockController",
          "name": "_timelock",
          "type": "address"
        }
      ],
      "stateMutability": "nonpayable",
      "type": "constructor"
    },
    {
      "anonymous": false,
      "inputs": [
        {
          "indexed": false,
          "internalType": "uint256",
          "name": "proposalId",
          "type": "uint256"
        }
      ],
      "name": "ProposalCanceled",
      "type": "event"
    },
    {
      "anonymous": false,
      "inputs": [
        {
          "indexed": false,
          "internalType": "uint256",
          "name": "proposalId",
          "type": "uint256"
        },
        {
          "indexed": false,
          "internalType": "address",
          "name": "proposer",
          "type": "address"
        },
        {
          "indexed": false,
          "internalType": "address[]",
          "name": "targets",
          "type": "address[]"
        },
        {
          "indexed": false,
          "internalType": "uint256[]",
          "name": "values",
          "type": "uint256[]"
        },
        {
          "indexed": false,
          "internalType": "string[]",
          "name": "signatures",
          "type": "string[]"
        },
        {
          "indexed": false,
          "internalType": "bytes[]",
          "name": "calldatas",
          "type": "bytes[]"
        },
        {
          "indexed": false,
          "internalType": "uint256",
          "name": "startBlock",
          "type": "uint256"
        },
        {
          "indexed": false,
          "internalType": "uint256",
          "name": "endBlock",
          "type": "uint256"
        },
        {
          "indexed": false,
          "internalType": "string",
          "name": "description",
          "type": "string"
        }
      ],
      "name": "ProposalCreated",
      "type": "event"
    },
    {
      "anonymous": false,
      "inputs": [
        {
          "indexed": false,
          "internalType": "uint256",
          "name": "proposalId",
          "type": "uint256"
        }
      ],
      "name": "ProposalExecuted",
      "type": "event"
    },
    {
      "anonymous": false,
      "inputs": [
        {
          "indexed": false,
          "internalType": "uint256",
          "name": "proposalId",
          "type": "uint256"
        },
        {
          "indexed": false,
          "internalType": "uint256",
          "name": "eta",
          "type": "uint256"
        }
      ],
      "name": "ProposalQueued",
      "type": "event"
    },
    {
      "anonymous": false,
      "inputs": [
        {
          "indexed": false,
          "internalType": "address",
          "name": "oldTimelock",
          "type": "address"
        },
        {
          "indexed": false,
          "internalType": "address",
          "name": "newTimelock",
          "type": "address"
        }
      ],
      "name": "TimelockChange",
      "type": "event"
    },
    {
      "anonymous": false,
      "inputs": [
        {
          "indexed": true,
          "internalType": "address",
          "name": "voter",
          "type": "address"
        },
        {
          "indexed": false,
          "internalType": "uint256",
          "name": "proposalId",
          "type": "uint256"
        },
        {
          "indexed": false,
          "internalType": "uint8",
          "name": "support",
          "type": "uint8"
        },
        {
          "indexed": false,
          "internalType": "uint256",
          "name": "weight",
          "type": "uint256"
        },
        {
          "indexed": false,
          "internalType": "string",
          "name": "reason",
          "type": "string"
        }
      ],
      "name": "VoteCast",
      "type": "event"
    },
    {
      "inputs": [],
      "name": "BALLOT_TYPEHASH",
      "outputs": [
        {
          "internalType": "bytes32",
          "name": "",
          "type": "bytes32"
        }
      ],
      "stateMutability": "view",
      "type": "function"
    },
    {
      "inputs": [],
      "name": "COUNTING_MODE",
      "outputs": [
        {
          "internalType": "string",
          "name": "",
          "type": "string"
        }
      ],
      "stateMutability": "pure",
      "type": "function"
    },
    {
      "inputs": [
        {
          "internalType": "uint256",
          "name": "proposalId",
          "type": "uint256"
        }
      ],
      "name": "cancel",
      "outputs": [],
      "stateMutability": "nonpayable",
      "type": "function"
    },
    {
      "inputs": [
        {
          "internalType": "uint256",
          "name": "proposalId",
          "type": "uint256"
        },
        {
          "internalType": "uint8",
          "name": "support",
          "type": "uint8"
        }
      ],
      "name": "castVote",
      "outputs": [
        {
          "internalType": "uint256",
          "name": "",
          "type": "uint256"
        }
      ],
      "stateMutability": "nonpayable",
      "type": "function"
    },
    {
      "inputs": [
        {
          "internalType": "uint256",
          "name": "proposalId",
          "type": "uint256"
        },
        {
          "internalType": "uint8",
          "name": "support",
          "type": "uint8"
        },
        {
          "internalType": "uint8",
          "name": "v",
          "type": "uint8"
        },
        {
          "internalType": "bytes32",
          "name": "r",
          "type": "bytes32"
        },
        {
          "internalType": "bytes32",
          "name": "s",
          "type": "bytes32"
        }
      ],
      "name": "castVoteBySig",
      "outputs": [
        {
          "internalType": "uint256",
          "name": "",
          "type": "uint256"
        }
      ],
      "stateMutability": "nonpayable",
      "type": "function"
    },
    {
      "inputs": [
        {
          "internalType": "uint256",
          "name": "proposalId",
          "type": "uint256"
        },
        {
          "internalType": "uint8",
          "name": "support",
          "type": "uint8"
        },
        {
          "internalType": "string",
          "name": "reason",
          "type": "string"
        }
      ],
      "name": "castVoteWithReason",
      "outputs": [
        {
          "internalType": "uint256",
          "name": "",
          "type": "uint256"
        }
      ],
      "stateMutability": "nonpayable",
      "type": "function"
    },
    {
      "inputs": [
        {
          "internalType": "address[]",
          "name": "targets",
          "type": "address[]"
        },
        {
          "internalType": "uint256[]",
          "name": "values",
          "type": "uint256[]"
        },
        {
          "internalType": "bytes[]",
          "name": "calldatas",
          "type": "bytes[]"
        },
        {
          "internalType": "bytes32",
          "name": "descriptionHash",
          "type": "bytes32"
        }
      ],
      "name": "execute",
      "outputs": [
        {
          "internalType": "uint256",
          "name": "",
          "type": "uint256"
        }
      ],
      "stateMutability": "payable",
      "type": "function"
    },
    {
      "inputs": [
        {
          "internalType": "uint256",
          "name": "proposalId",
          "type": "uint256"
        }
      ],
      "name": "execute",
      "outputs": [],
      "stateMutability": "payable",
      "type": "function"
    },
    {
      "inputs": [
        {
          "internalType": "uint256",
          "name": "proposalId",
          "type": "uint256"
        }
      ],
      "name": "getActions",
      "outputs": [
        {
          "internalType": "address[]",
          "name": "targets",
          "type": "address[]"
        },
        {
          "internalType": "uint256[]",
          "name": "values",
          "type": "uint256[]"
        },
        {
          "internalType": "string[]",
          "name": "signatures",
          "type": "string[]"
        },
        {
          "internalType": "bytes[]",
          "name": "calldatas",
          "type": "bytes[]"
        }
      ],
      "stateMutability": "view",
      "type": "function"
    },
    {
      "inputs": [
        {
          "internalType": "uint256",
          "name": "proposalId",
          "type": "uint256"
        },
        {
          "internalType": "address",
          "name": "voter",
          "type": "address"
        }
      ],
      "name": "getReceipt",
      "outputs": [
        {
          "components": [
            {
              "internalType": "bool",
              "name": "hasVoted",
              "type": "bool"
            },
            {
              "internalType": "uint8",
              "name": "support",
              "type": "uint8"
            },
            {
              "internalType": "uint96",
              "name": "votes",
              "type": "uint96"
            }
          ],
          "internalType": "struct IGovernorCompatibilityBravo.Receipt",
          "name": "",
          "type": "tuple"
        }
      ],
      "stateMutability": "view",
      "type": "function"
    },
    {
      "inputs": [
        {
          "internalType": "address",
          "name": "account",
          "type": "address"
        },
        {
          "internalType": "uint256",
          "name": "blockNumber",
          "type": "uint256"
        }
      ],
      "name": "getVotes",
      "outputs": [
        {
          "internalType": "uint256",
          "name": "",
          "type": "uint256"
        }
      ],
      "stateMutability": "view",
      "type": "function"
    },
    {
      "inputs": [
        {
          "internalType": "uint256",
          "name": "proposalId",
          "type": "uint256"
        },
        {
          "internalType": "address",
          "name": "account",
          "type": "address"
        }
      ],
      "name": "hasVoted",
      "outputs": [
        {
          "internalType": "bool",
          "name": "",
          "type": "bool"
        }
      ],
      "stateMutability": "view",
      "type": "function"
    },
    {
      "inputs": [
        {
          "internalType": "address[]",
          "name": "targets",
          "type": "address[]"
        },
        {
          "internalType": "uint256[]",
          "name": "values",
          "type": "uint256[]"
        },
        {
          "internalType": "bytes[]",
          "name": "calldatas",
          "type": "bytes[]"
        },
        {
          "internalType": "bytes32",
          "name": "descriptionHash",
          "type": "bytes32"
        }
      ],
      "name": "hashProposal",
      "outputs": [
        {
          "internalType": "uint256",
          "name": "",
          "type": "uint256"
        }
      ],
      "stateMutability": "pure",
      "type": "function"
    },
    {
      "inputs": [],
      "name": "name",
      "outputs": [
        {
          "internalType": "string",
          "name": "",
          "type": "string"
        }
      ],
      "stateMutability": "view",
      "type": "function"
    },
    {
      "inputs": [
        {
          "internalType": "uint256",
          "name": "proposalId",
          "type": "uint256"
        }
      ],
      "name": "proposalDeadline",
      "outputs": [
        {
          "internalType": "uint256",
          "name": "",
          "type": "uint256"
        }
      ],
      "stateMutability": "view",
      "type": "function"
    },
    {
      "inputs": [
        {
          "internalType": "uint256",
          "name": "proposalId",
          "type": "uint256"
        }
      ],
      "name": "proposalEta",
      "outputs": [
        {
          "internalType": "uint256",
          "name": "",
          "type": "uint256"
        }
      ],
      "stateMutability": "view",
      "type": "function"
    },
    {
      "inputs": [
        {
          "internalType": "uint256",
          "name": "proposalId",
          "type": "uint256"
        }
      ],
      "name": "proposalSnapshot",
      "outputs": [
        {
          "internalType": "uint256",
          "name": "",
          "type": "uint256"
        }
      ],
      "stateMutability": "view",
      "type": "function"
    },
    {
      "inputs": [],
      "name": "proposalThreshold",
      "outputs": [
        {
          "internalType": "uint256",
          "name": "",
          "type": "uint256"
        }
      ],
      "stateMutability": "pure",
      "type": "function"
    },
    {
      "inputs": [
        {
          "internalType": "uint256",
          "name": "proposalId",
          "type": "uint256"
        }
      ],
      "name": "proposals",
      "outputs": [
        {
          "internalType": "uint256",
          "name": "id",
          "type": "uint256"
        },
        {
          "internalType": "address",
          "name": "proposer",
          "type": "address"
        },
        {
          "internalType": "uint256",
          "name": "eta",
          "type": "uint256"
        },
        {
          "internalType": "uint256",
          "name": "startBlock",
          "type": "uint256"
        },
        {
          "internalType": "uint256",
          "name": "endBlock",
          "type": "uint256"
        },
        {
          "internalType": "uint256",
          "name": "forVotes",
          "type": "uint256"
        },
        {
          "internalType": "uint256",
          "name": "againstVotes",
          "type": "uint256"
        },
        {
          "internalType": "uint256",
          "name": "abstainVotes",
          "type": "uint256"
        },
        {
          "internalType": "bool",
          "name": "canceled",
          "type": "bool"
        },
        {
          "internalType": "bool",
          "name": "executed",
          "type": "bool"
        }
      ],
      "stateMutability": "view",
      "type": "function"
    },
    {
      "inputs": [
        {
          "internalType": "address[]",
          "name": "targets",
          "type": "address[]"
        },
        {
          "internalType": "uint256[]",
          "name": "values",
          "type": "uint256[]"
        },
        {
          "internalType": "bytes[]",
          "name": "calldatas",
          "type": "bytes[]"
        },
        {
          "internalType": "string",
          "name": "description",
          "type": "string"
        }
      ],
      "name": "propose",
      "outputs": [
        {
          "internalType": "uint256",
          "name": "",
          "type": "uint256"
        }
      ],
      "stateMutability": "nonpayable",
      "type": "function"
    },
    {
      "inputs": [
        {
          "internalType": "address[]",
          "name": "targets",
          "type": "address[]"
        },
        {
          "internalType": "uint256[]",
          "name": "values",
          "type": "uint256[]"
        },
        {
          "internalType": "string[]",
          "name": "signatures",
          "type": "string[]"
        },
        {
          "internalType": "bytes[]",
          "name": "calldatas",
          "type": "bytes[]"
        },
        {
          "internalType": "string",
          "name": "description",
          "type": "string"
        }
      ],
      "name": "propose",
      "outputs": [
        {
          "internalType": "uint256",
          "name": "",
          "type": "uint256"
        }
      ],
      "stateMutability": "nonpayable",
      "type": "function"
    },
    {
      "inputs": [
        {
          "internalType": "address[]",
          "name": "targets",
          "type": "address[]"
        },
        {
          "internalType": "uint256[]",
          "name": "values",
          "type": "uint256[]"
        },
        {
          "internalType": "bytes[]",
          "name": "calldatas",
          "type": "bytes[]"
        },
        {
          "internalType": "bytes32",
          "name": "descriptionHash",
          "type": "bytes32"
        }
      ],
      "name": "queue",
      "outputs": [
        {
          "internalType": "uint256",
          "name": "",
          "type": "uint256"
        }
      ],
      "stateMutability": "nonpayable",
      "type": "function"
    },
    {
      "inputs": [
        {
          "internalType": "uint256",
          "name": "proposalId",
          "type": "uint256"
        }
      ],
      "name": "queue",
      "outputs": [],
      "stateMutability": "nonpayable",
      "type": "function"
    },
    {
      "inputs": [
        {
          "internalType": "uint256",
          "name": "blockNumber",
          "type": "uint256"
        }
      ],
      "name": "quorum",
      "outputs": [
        {
          "internalType": "uint256",
          "name": "",
          "type": "uint256"
        }
      ],
      "stateMutability": "pure",
      "type": "function"
    },
    {
      "inputs": [],
      "name": "quorumVotes",
      "outputs": [
        {
          "internalType": "uint256",
          "name": "",
          "type": "uint256"
        }
      ],
      "stateMutability": "view",
      "type": "function"
    },
    {
      "inputs": [
        {
          "internalType": "uint256",
          "name": "proposalId",
          "type": "uint256"
        }
      ],
      "name": "state",
      "outputs": [
        {
          "internalType": "enum IGovernor.ProposalState",
          "name": "",
          "type": "uint8"
        }
      ],
      "stateMutability": "view",
      "type": "function"
    },
    {
      "inputs": [
        {
          "internalType": "bytes4",
          "name": "interfaceId",
          "type": "bytes4"
        }
      ],
      "name": "supportsInterface",
      "outputs": [
        {
          "internalType": "bool",
          "name": "",
          "type": "bool"
        }
      ],
      "stateMutability": "view",
      "type": "function"
    },
    {
      "inputs": [],
      "name": "timelock",
      "outputs": [
        {
          "internalType": "address",
          "name": "",
          "type": "address"
        }
      ],
      "stateMutability": "view",
      "type": "function"
    },
    {
      "inputs": [],
      "name": "token",
      "outputs": [
        {
          "internalType": "contract ERC20VotesComp",
          "name": "",
          "type": "address"
        }
      ],
      "stateMutability": "view",
      "type": "function"
    },
    {
      "inputs": [
        {
          "internalType": "contract TimelockController",
          "name": "newTimelock",
          "type": "address"
        }
      ],
      "name": "updateTimelock",
      "outputs": [],
      "stateMutability": "nonpayable",
      "type": "function"
    },
    {
      "inputs": [],
      "name": "version",
      "outputs": [
        {
          "internalType": "string",
          "name": "",
          "type": "string"
        }
      ],
      "stateMutability": "view",
      "type": "function"
    },
    {
      "inputs": [],
      "name": "votingDelay",
      "outputs": [
        {
          "internalType": "uint256",
          "name": "",
          "type": "uint256"
        }
      ],
      "stateMutability": "view",
      "type": "function"
    },
    {
      "inputs": [],
      "name": "votingPeriod",
      "outputs": [
        {
          "internalType": "uint256",
          "name": "",
          "type": "uint256"
        }
      ],
      "stateMutability": "view",
      "type": "function"
    }
  ],
  "transactionHash": "0x6d938a11f89b3b55f6c8fd13d4370cc9ac3587f7495dda11b5ecc415878f11a8",
  "args": [
    "0xF4Dc48D260C93ad6a96c5Ce563E70CA578987c74",
    "0xe6ed0eacb79a6e457416e4df38ed778fd6c6d193"
  ],
  "solcInputHash": "811e05dbcf5454c3e2b6d50303267941",
  "bytecode": "0x6101406040523480156200001257600080fd5b50604051620042903803806200429083398101604081905262000035916200025b565b80826040518060400160405280600f81526020016e2130b13cb637b723b7bb32b93737b960891b81525080620000706200013160201b60201c565b815160209283012081519183019190912060c082815260e08290524660a0818152604080517f8b73c3c69bb8fe3d512ecc4cf759cc79239f7b179b0ffacaa9a75d522b39400f8189018190528183019790975260608101959095526080808601939093523085830152805180860390920182529390920190925280519084012090526101005281516200010a9160009190840190620001b5565b505060601b6001600160601b0319166101205262000128816200014c565b505050620002ef565b6040805180820190915260018152603160f81b602082015290565b600354604080516001600160a01b03928316815291831660208301527f08f74ea46ef7894f65eabfb5e6e695de773a000b47c529ab559178069b226401910160405180910390a1600380546001600160a01b0319166001600160a01b0392909216919091179055565b828054620001c39062000299565b90600052602060002090601f016020900481019282620001e7576000855562000232565b82601f106200020257805160ff191683800117855562000232565b8280016001018555821562000232579182015b828111156200023257825182559160200191906001019062000215565b506200024092915062000244565b5090565b5b8082111562000240576000815560010162000245565b600080604083850312156200026e578182fd5b82516200027b81620002d6565b60208401519092506200028e81620002d6565b809150509250929050565b600281046001821680620002ae57607f821691505b60208210811415620002d057634e487b7160e01b600052602260045260246000fd5b50919050565b6001600160a01b0381168114620002ec57600080fd5b50565b60805160a05160c05160e051610100516101205160601c613f4762000349600039600081816107b7015261222501526000612402015260006124510152600061242c015260006123ae015260006123d70152613f476000f3fe6080604052600436106101fe5760003560e01c80637b3c71d31161011d578063da95691a116100b0578063e23a9a521161007f578063f8ce560a11610064578063f8ce560a1461077b578063fc0c546a146107a5578063fe0d94c1146107d9576101fe565b8063e23a9a5214610687578063eb9019d41461075b576101fe565b8063da95691a146105cd578063dd4e2ba5146105ed578063ddf0b00914610633578063deaaa7cc14610653576101fe565b8063b58131b0116100ec578063b58131b01461053e578063c01f9e371461055b578063c59057e41461057b578063d33219b41461059b576101fe565b80637b3c71d3146104be5780637d5e81e2146104de578063a890c910146104fe578063ab58fb8e1461051e576101fe565b8063328dd9821161019557806340e58ee51161016457806340e58ee5146103ec578063438596321461040e57806354fd4d5014610458578063567813881461049e576101fe565b8063328dd9821461035b5780633932abb11461038b5780633bccf4fd1461039f5780633e4f49e6146103bf576101fe565b8063160cbed7116101d1578063160cbed7146102f357806324bc1a64146103135780632656227d146103285780632d63f6931461033b576101fe565b8063013cf08b1461020357806301ffc9a71461027e57806302a251a3146102ae57806306fdde03146102d1575b600080fd5b34801561020f57600080fd5b5061022361021e3660046138e3565b6107ec565b604080519a8b526001600160a01b0390991660208b0152978901969096526060880194909452608087019290925260a086015260c085015260e084015215156101008301521515610120820152610140015b60405180910390f35b34801561028a57600080fd5b5061029e61029936600461389f565b6108b1565b6040519015158152602001610275565b3480156102ba57600080fd5b506102c36108c4565b604051908152602001610275565b3480156102dd57600080fd5b506102e66108cb565b6040516102759190613c9b565b3480156102ff57600080fd5b506102c361030e366004613667565b61095d565b34801561031f57600080fd5b506102c3610c15565b6102c3610336366004613667565b610c2a565b34801561034757600080fd5b506102c36103563660046138e3565b610d53565b34801561036757600080fd5b5061037b6103763660046138e3565b610d8c565b6040516102759493929190613c4e565b34801561039757600080fd5b5060016102c3565b3480156103ab57600080fd5b506102c36103ba3660046139d7565b61101d565b3480156103cb57600080fd5b506103df6103da3660046138e3565b6110b1565b6040516102759190613cae565b3480156103f857600080fd5b5061040c6104073660046138e3565b6110bc565b005b34801561041a57600080fd5b5061029e6104293660046138fb565b60008281526002602090815260408083206001600160a01b038516845260080190915290205460ff1692915050565b34801561046457600080fd5b5060408051808201909152600181527f310000000000000000000000000000000000000000000000000000000000000060208201526102e6565b3480156104aa57600080fd5b506102c36104b936600461392a565b6113ed565b3480156104ca57600080fd5b506102c36104d9366004613955565b611416565b3480156104ea57600080fd5b506102c36104f93660046136f3565b611468565b34801561050a57600080fd5b5061040c6105193660046138c7565b61147f565b34801561052a57600080fd5b506102c36105393660046138e3565b6114f3565b34801561054a57600080fd5b5069010f0cf064dd592000006102c3565b34801561056757600080fd5b506102c36105763660046138e3565b6115b4565b34801561058757600080fd5b506102c3610596366004613667565b6115e4565b3480156105a757600080fd5b506003546001600160a01b03165b6040516001600160a01b039091168152602001610275565b3480156105d957600080fd5b506102c36105e836600461379b565b61161e565b3480156105f957600080fd5b5060408051808201909152601a81527f737570706f72743d627261766f2671756f72756d3d627261766f00000000000060208201526102e6565b34801561063f57600080fd5b5061040c61064e3660046138e3565b611643565b34801561065f57600080fd5b506102c37f150214d74d59b7d1e90c73fc22ef3d991dd0a76b046543d4d80ab92d2a50328f81565b34801561069357600080fd5b506107266106a23660046138fb565b60408051606081018252600080825260208201819052918101919091525060009182526002602090815260408084206001600160a01b0393909316845260089092018152918190208151606081018352905460ff8082161515835261010082041693820193909352620100009092046bffffffffffffffffffffffff169082015290565b6040805182511515815260208084015160ff1690820152918101516bffffffffffffffffffffffff1690820152606001610275565b34801561076757600080fd5b506102c361077636600461363c565b6118b1565b34801561078757600080fd5b506102c36107963660046138e3565b50690878678326eac900000090565b3480156107b157600080fd5b506105b57f000000000000000000000000000000000000000000000000000000000000000081565b61040c6107e73660046138e3565b6118bd565b80600080808080808080806108008a6114f3565b975061080b8b610d53565b96506108168b6115b4565b60008c815260026020526040812080546005820154600683015460078401546001600160a01b039093169e50949a5098509296509194506108568d6110b1565b9050600281600781111561087a57634e487b7160e01b600052602160045260246000fd5b149350600781600781111561089f57634e487b7160e01b600052602160045260246000fd5b14925050509193959799509193959799565b60006108bc82611b2b565b90505b919050565b61b2fa5b90565b6060600080546108da90613e80565b80601f016020809104026020016040519081016040528092919081815260200182805461090690613e80565b80156109535780601f1061092857610100808354040283529160200191610953565b820191906000526020600020905b81548152906001019060200180831161093657829003601f168201915b5050505050905090565b60008061096c868686866115e4565b90506004610979826110b1565b600781111561099857634e487b7160e01b600052602160045260246000fd5b146109f45760405162461bcd60e51b815260206004820152602160248201527f476f7665726e6f723a2070726f706f73616c206e6f74207375636365737366756044820152601b60fa1b60648201526084015b60405180910390fd5b600354604080517ff27a0c9200000000000000000000000000000000000000000000000000000000815290516000926001600160a01b03169163f27a0c92916004808301926020929190829003018186803b158015610a5257600080fd5b505afa158015610a66573d6000803e3d6000fd5b505050506040513d601f19601f82011682018060405250810190610a8a9190613887565b6003546040517fb1c5f4270000000000000000000000000000000000000000000000000000000081529192506001600160a01b03169063b1c5f42790610add908a908a908a906000908b90600401613ba8565b60206040518083038186803b158015610af557600080fd5b505afa158015610b09573d6000803e3d6000fd5b505050506040513d601f19601f82011682018060405250810190610b2d9190613887565b60008381526004602081905260408083209390935560035492517f8f2a0bb00000000000000000000000000000000000000000000000000000000081526001600160a01b0390931692638f2a0bb092610b92928c928c928c9290918c918a9101613bf6565b600060405180830381600087803b158015610bac57600080fd5b505af1158015610bc0573d6000803e3d6000fd5b505050507f9a2e42fd6722813d69113e7d0079d3d940171428df7373df9c7f7617cfda2892828242610bf29190613df5565b604080519283526020830191909152015b60405180910390a15095945050505050565b6000610c25610796600143613e39565b905090565b600080610c39868686866115e4565b90506000610c46826110b1565b90506004816007811115610c6a57634e487b7160e01b600052602160045260246000fd5b1480610c9557506005816007811115610c9357634e487b7160e01b600052602160045260246000fd5b145b610ceb5760405162461bcd60e51b815260206004820152602160248201527f476f7665726e6f723a2070726f706f73616c206e6f74207375636365737366756044820152601b60fa1b60648201526084016109eb565b600082815260016020818152604092839020600201805460ff191690921790915590518381527f712ae1383f79ac853f8d882153778e0260ef8f03b504e2866e0593e04d2b291f910160405180910390a1610d498288888888611b69565b5095945050505050565b600081815260016020908152604080832081519283019091525467ffffffffffffffff16908190525b67ffffffffffffffff1692915050565b60608060608060006002600087815260200190815260200160002090508060010181600201826003018360040183805480602002602001604051908101604052809291908181526020018280548015610e0e57602002820191906000526020600020905b81546001600160a01b03168152600190910190602001808311610df0575b5050505050935082805480602002602001604051908101604052809291908181526020018280548015610e6057602002820191906000526020600020905b815481526020019060010190808311610e4c575b5050505050925081805480602002602001604051908101604052809291908181526020016000905b82821015610f34578382906000526020600020018054610ea790613e80565b80601f0160208091040260200160405190810160405280929190818152602001828054610ed390613e80565b8015610f205780601f10610ef557610100808354040283529160200191610f20565b820191906000526020600020905b815481529060010190602001808311610f0357829003601f168201915b505050505081526020019060010190610e88565b50505050915080805480602002602001604051908101604052809291908181526020016000905b82821015611007578382906000526020600020018054610f7a90613e80565b80601f0160208091040260200160405190810160405280929190818152602001828054610fa690613e80565b8015610ff35780601f10610fc857610100808354040283529160200191610ff3565b820191906000526020600020905b815481529060010190602001808311610fd657829003601f168201915b505050505081526020019060010190610f5b565b5050505090509450945094509450509193509193565b604080517f150214d74d59b7d1e90c73fc22ef3d991dd0a76b046543d4d80ab92d2a50328f602082015290810186905260ff851660608201526000908190611089906110819060800160405160208183030381529060405280519060200120611b7d565b868686611be6565b90506110a687828860405180602001604052806000815250611c04565b979650505050505050565b60006108bc82611d38565b600081815260026020526040902080546001600160a01b0316336001600160a01b0316148061110d575069010f0cf064dd59200000815461110b906001600160a01b0316610776600143613e39565b105b61117f5760405162461bcd60e51b815260206004820152602760248201527f476f7665726e6f72427261766f3a2070726f706f7365722061626f766520746860448201527f726573686f6c640000000000000000000000000000000000000000000000000060648201526084016109eb565b6113e8816001018054806020026020016040519081016040528092919081815260200182805480156111da57602002820191906000526020600020905b81546001600160a01b031681526001909101906020018083116111bc575b50505050508260020180548060200260200160405190810160405280929190818152602001828054801561122d57602002820191906000526020600020905b815481526020019060010190808311611219575b50505050506113de84600301805480602002602001604051908101604052809291908181526020016000905b8282101561130557838290600052602060002001805461127890613e80565b80601f01602080910402602001604051908101604052809291908181526020018280546112a490613e80565b80156112f15780601f106112c6576101008083540402835291602001916112f1565b820191906000526020600020905b8154815290600101906020018083116112d457829003601f168201915b505050505081526020019060010190611259565b50505060048701805460408051602080840282018101909252828152935060009084015b828210156113d557838290600052602060002001805461134890613e80565b80601f016020809104026020016040519081016040528092919081815260200182805461137490613e80565b80156113c15780601f10611396576101008083540402835291602001916113c1565b820191906000526020600020905b8154815290600101906020018083116113a457829003601f168201915b505050505081526020019060010190611329565b50505050611e40565b846009015461200a565b505050565b60008033905061140e84828560405180602001604052806000815250611c04565b949350505050565b60008033905061145e86828787878080601f016020809104026020016040519081016040528093929190818152602001838380828437600092019190915250611c0492505050565b9695505050505050565b600061147685858585612018565b95945050505050565b61148761208f565b6001600160a01b0316336001600160a01b0316146114e75760405162461bcd60e51b815260206004820152601860248201527f476f7665726e6f723a206f6e6c79476f7665726e616e6365000000000000000060448201526064016109eb565b6114f0816120a3565b50565b60035460008281526004602081905260408083205490517fd45c443500000000000000000000000000000000000000000000000000000000815291820152909182916001600160a01b039091169063d45c44359060240160206040518083038186803b15801561156257600080fd5b505afa158015611576573d6000803e3d6000fd5b505050506040513d601f19601f8201168201806040525081019061159a9190613887565b9050806001146115aa57806115ad565b60005b9392505050565b600081815260016020818152604080842081519283019091529091015467ffffffffffffffff1690819052610d7c565b6000848484846040516020016115fd9493929190613b5d565b60408051601f19818403018152919052805160209091012095945050505050565b600061162e338787878787612119565b61145e868661163d8787611e40565b85611468565b60008181526002602090815260409182902060018101805484518185028101850190955280855291936113e8939092908301828280156116ac57602002820191906000526020600020905b81546001600160a01b0316815260019091019060200180831161168e575b5050505050826002018054806020026020016040519081016040528092919081815260200182805480156116ff57602002820191906000526020600020905b8154815260200190600101908083116116eb575b50505050506118a784600301805480602002602001604051908101604052809291908181526020016000905b828210156117d757838290600052602060002001805461174a90613e80565b80601f016020809104026020016040519081016040528092919081815260200182805461177690613e80565b80156117c35780601f10611798576101008083540402835291602001916117c3565b820191906000526020600020905b8154815290600101906020018083116117a657829003601f168201915b50505050508152602001906001019061172b565b50505060048701805460408051602080840282018101909252828152935060009084015b828210156113d557838290600052602060002001805461181a90613e80565b80601f016020809104026020016040519081016040528092919081815260200182805461184690613e80565b80156118935780601f1061186857610100808354040283529160200191611893565b820191906000526020600020905b81548152906001019060200180831161187657829003601f168201915b5050505050815260200190600101906117fb565b846009015461095d565b60006115ad83836121e3565b60008181526002602090815260409182902060018101805484518185028101850190955280855291936113e89390929083018282801561192657602002820191906000526020600020905b81546001600160a01b03168152600190910190602001808311611908575b50505050508260020180548060200260200160405190810160405280929190818152602001828054801561197957602002820191906000526020600020905b815481526020019060010190808311611965575b5050505050611b2184600301805480602002602001604051908101604052809291908181526020016000905b82821015611a515783829060005260206000200180546119c490613e80565b80601f01602080910402602001604051908101604052809291908181526020018280546119f090613e80565b8015611a3d5780601f10611a1257610100808354040283529160200191611a3d565b820191906000526020600020905b815481529060010190602001808311611a2057829003601f168201915b5050505050815260200190600101906119a5565b50505060048701805460408051602080840282018101909252828152935060009084015b828210156113d5578382906000526020600020018054611a9490613e80565b80601f0160208091040260200160405190810160405280929190818152602001828054611ac090613e80565b8015611b0d5780601f10611ae257610100808354040283529160200191611b0d565b820191906000526020600020905b815481529060010190602001808311611af057829003601f168201915b505050505081526020019060010190611a75565b8460090154610c2a565b60006001600160e01b031982167f6e665ced0000000000000000000000000000000000000000000000000000000014806108bc57506108bc826122b6565b611b76858585858561231d565b5050505050565b60006108bc611b8a6123aa565b836040517f19010000000000000000000000000000000000000000000000000000000000006020820152602281018390526042810182905260009060620160405160208183030381529060405280519060200120905092915050565b6000806000611bf7878787876124a1565b91509150610d498161258e565b6000848152600160208190526040822090611c1e876110b1565b6007811115611c3d57634e487b7160e01b600052602160045260246000fd5b14611cb05760405162461bcd60e51b815260206004820152602360248201527f476f7665726e6f723a20766f7465206e6f742063757272656e746c792061637460448201527f697665000000000000000000000000000000000000000000000000000000000060648201526084016109eb565b6040805160208101909152815467ffffffffffffffff1690819052600090611cd99087906118b1565b9050611ce787878784612791565b856001600160a01b03167fb8e138887d0aa13bab447e82de9d5c1777041ecd21ca36ba824ff1e6c07ddda488878488604051611d269493929190613d78565b60405180910390a29695505050505050565b600080611d448361295f565b90506004816007811115611d6857634e487b7160e01b600052602160045260246000fd5b14611d745790506108bf565b60008381526004602052604090205480611d90575090506108bf565b6003546040517f2ab0f529000000000000000000000000000000000000000000000000000000008152600481018390526001600160a01b0390911690632ab0f5299060240160206040518083038186803b158015611ded57600080fd5b505afa158015611e01573d6000803e3d6000fd5b505050506040513d601f19601f82011682018060405250810190611e259190613867565b15611e35576007925050506108bf565b6005925050506108bf565b60606000825167ffffffffffffffff811115611e6c57634e487b7160e01b600052604160045260246000fd5b604051908082528060200260200182016040528015611e9f57816020015b6060815260200190600190039081611e8a5790505b50905060005b845181101561200257848181518110611ece57634e487b7160e01b600052603260045260246000fd5b602002602001015151600014611f9d57848181518110611efe57634e487b7160e01b600052603260045260246000fd5b6020026020010151848281518110611f2657634e487b7160e01b600052603260045260246000fd5b6020026020010151604051602401611f3e9190613c9b565b60408051601f198184030181529082905291611f5991613b41565b6040519081900390206020820180517bffffffffffffffffffffffffffffffffffffffffffffffffffffffff166001600160e01b0319909216919091179052611fc6565b838181518110611fbd57634e487b7160e01b600052603260045260246000fd5b60200260200101515b828281518110611fe657634e487b7160e01b600052603260045260246000fd5b602002602001018190525080611ffb90613eb5565b9050611ea5565b509392505050565b600061147685858585612ace565b6000612083338686865167ffffffffffffffff81111561204857634e487b7160e01b600052604160045260246000fd5b60405190808252806020026020018201604052801561207b57816020015b60608152602001906001900390816120665790505b508787612119565b61147685858585612b95565b6000610c256003546001600160a01b031690565b600354604080516001600160a01b03928316815291831660208301527f08f74ea46ef7894f65eabfb5e6e695de773a000b47c529ab559178069b226401910160405180910390a16003805473ffffffffffffffffffffffffffffffffffffffff19166001600160a01b0392909216919091179055565b80516020820120600061213787876121318888611e40565b856115e4565b60008181526002602052604090206009810154919250906121d857805473ffffffffffffffffffffffffffffffffffffffff19166001600160a01b038a16178155875161218d90600183019060208b01906131cd565b5086516121a390600283019060208a019061323b565b5085516121b99060038301906020890190613276565b5084516121cf90600483019060208801906132cf565b50600981018390555b505050505050505050565b6040517f782d6fe10000000000000000000000000000000000000000000000000000000081526001600160a01b038381166004830152602482018390526000917f00000000000000000000000000000000000000000000000000000000000000009091169063782d6fe19060440160206040518083038186803b15801561226957600080fd5b505afa15801561227d573d6000803e3d6000fd5b505050506040513d601f19601f820116820180604052508101906122a19190613a24565b6bffffffffffffffffffffffff169392505050565b60006001600160e01b031982167fbf26d8970000000000000000000000000000000000000000000000000000000014806108bc57507f01ffc9a7000000000000000000000000000000000000000000000000000000006001600160e01b03198316146108bc565b6003546040517fe38335e50000000000000000000000000000000000000000000000000000000081526001600160a01b039091169063e38335e5903490612371908890889088906000908990600401613ba8565b6000604051808303818588803b15801561238a57600080fd5b505af115801561239e573d6000803e3d6000fd5b50505050505050505050565b60007f00000000000000000000000000000000000000000000000000000000000000004614156123fb57507f00000000000000000000000000000000000000000000000000000000000000006108c8565b50604080517f00000000000000000000000000000000000000000000000000000000000000006020808301919091527f0000000000000000000000000000000000000000000000000000000000000000828401527f000000000000000000000000000000000000000000000000000000000000000060608301524660808301523060a0808401919091528351808403909101815260c090920190925280519101206108c8565b6000807f7fffffffffffffffffffffffffffffff5d576e7357a4501ddfe92f46681b20a08311156124d85750600090506003612585565b8460ff16601b141580156124f057508460ff16601c14155b156125015750600090506004612585565b6040805160008082526020820180845289905260ff881692820192909252606081018690526080810185905260019060a0016020604051602081039080840390855afa158015612555573d6000803e3d6000fd5b5050604051601f1901519150506001600160a01b03811661257e57600060019250925050612585565b9150600090505b94509492505050565b60008160048111156125b057634e487b7160e01b600052602160045260246000fd5b14156125bb576114f0565b60018160048111156125dd57634e487b7160e01b600052602160045260246000fd5b141561262b5760405162461bcd60e51b815260206004820152601860248201527f45434453413a20696e76616c6964207369676e6174757265000000000000000060448201526064016109eb565b600281600481111561264d57634e487b7160e01b600052602160045260246000fd5b141561269b5760405162461bcd60e51b815260206004820152601f60248201527f45434453413a20696e76616c6964207369676e6174757265206c656e6774680060448201526064016109eb565b60038160048111156126bd57634e487b7160e01b600052602160045260246000fd5b14156127165760405162461bcd60e51b815260206004820152602260248201527f45434453413a20696e76616c6964207369676e6174757265202773272076616c604482015261756560f01b60648201526084016109eb565b600481600481111561273857634e487b7160e01b600052602160045260246000fd5b14156114f05760405162461bcd60e51b815260206004820152602260248201527f45434453413a20696e76616c6964207369676e6174757265202776272076616c604482015261756560f01b60648201526084016109eb565b60008481526002602090815260408083206001600160a01b038716845260088101909252909120805460ff16156128305760405162461bcd60e51b815260206004820152602d60248201527f476f7665726e6f72436f6d7061746962696c697479427261766f3a20766f746560448201527f20616c726561647920636173740000000000000000000000000000000000000060648201526084016109eb565b8054600160ff199091161761ff00191661010060ff86160217815561285483612c57565b81546bffffffffffffffffffffffff9190911662010000026dffffffffffffffffffffffff00001990911617815560ff84166128a9578282600601600082825461289e9190613df5565b909155506129579050565b60ff8416600114156128c9578282600501600082825461289e9190613df5565b60ff8416600214156128e9578282600701600082825461289e9190613df5565b60405162461bcd60e51b815260206004820152602d60248201527f476f7665726e6f72436f6d7061746962696c697479427261766f3a20696e766160448201527f6c696420766f746520747970650000000000000000000000000000000000000060648201526084016109eb565b505050505050565b6000818152600160208181526040808420815160a081018352815467ffffffffffffffff90811660808301908152825283518086018552958301541685529283019390935260029092015460ff808216158015948401949094526101009091041615156060820152906129d65760079150506108bf565b8060600151156129ea5760029150506108bf565b8051514367ffffffffffffffff9091161115612a0a5760009150506108bf565b6020810151514367ffffffffffffffff9091161115612a2d5760019150506108bf565b612a3a8160200151612cdf565b15612a8057612a4883612d10565b8015612a6a575060008381526002602052604090206006810154600590910154115b612a75576003612a78565b60045b9150506108bf565b60405162461bcd60e51b815260206004820152601d60248201527f476f7665726e6f723a20756e6b6e6f776e2070726f706f73616c20696400000060448201526064016109eb565b50919050565b600080612add86868686612d37565b60008181526004602052604090205490915015611476576003546000828152600460208190526040918290205491517fc4d252f5000000000000000000000000000000000000000000000000000000008152908101919091526001600160a01b039091169063c4d252f590602401600060405180830381600087803b158015612b6557600080fd5b505af1158015612b79573d6000803e3d6000fd5b5050506000828152600460205260408120555095945050505050565b600069010f0cf064dd59200000612bb133610776600143613e39565b1015612c4b5760405162461bcd60e51b815260206004820152604360248201527f476f7665726e6f72436f6d7061746962696c697479427261766f3a2070726f7060448201527f6f73657220766f7465732062656c6f772070726f706f73616c2074687265736860648201527f6f6c640000000000000000000000000000000000000000000000000000000000608482015260a4016109eb565b61147685858585612e6d565b60006bffffffffffffffffffffffff821115612cdb5760405162461bcd60e51b815260206004820152602660248201527f53616665436173743a2076616c756520646f65736e27742066697420696e203960448201527f362062697473000000000000000000000000000000000000000000000000000060648201526084016109eb565b5090565b6000612cf5825167ffffffffffffffff16151590565b80156108bc575050514367ffffffffffffffff909116111590565b60008181526002602052604081206005810154612d2f61079685610d53565b109392505050565b600080612d46868686866115e4565b90506000612d53826110b1565b90506002816007811115612d7757634e487b7160e01b600052602160045260246000fd5b14158015612da557506006816007811115612da257634e487b7160e01b600052602160045260246000fd5b14155b8015612dd157506007816007811115612dce57634e487b7160e01b600052602160045260246000fd5b14155b612e1d5760405162461bcd60e51b815260206004820152601d60248201527f476f7665726e6f723a2070726f706f73616c206e6f742061637469766500000060448201526064016109eb565b60008281526001602052604090819020600201805461ff001916610100179055517f789cf55be980739dad1d0699b93b58e806b51c9d96619bfa8fe0a28abaa7b30c90610c039084815260200190565b600080612e8386868686805190602001206115e4565b90508451865114612ee05760405162461bcd60e51b815260206004820152602160248201527f476f7665726e6f723a20696e76616c69642070726f706f73616c206c656e67746044820152600d60fb1b60648201526084016109eb565b8351865114612f3b5760405162461bcd60e51b815260206004820152602160248201527f476f7665726e6f723a20696e76616c69642070726f706f73616c206c656e67746044820152600d60fb1b60648201526084016109eb565b6000865111612f8c5760405162461bcd60e51b815260206004820152601860248201527f476f7665726e6f723a20656d7074792070726f706f73616c000000000000000060448201526064016109eb565b6000818152600160209081526040918290208251918201909252815467ffffffffffffffff1690819052156130295760405162461bcd60e51b815260206004820152602160248201527f476f7665726e6f723a2070726f706f73616c20616c726561647920657869737460448201527f730000000000000000000000000000000000000000000000000000000000000060648201526084016109eb565b600061303660015b61314d565b61303f4361314d565b6130499190613e0d565b905060006130586130316108c4565b6130629083613e0d565b835467ffffffffffffffff191667ffffffffffffffff8416178455905060018301805467ffffffffffffffff191667ffffffffffffffff83161790557f7d84a6263ae0d98d3329bd7b46bb4e8d6f98cd35a7adb45c274c8b7fd5ebd5e084338b8b8d5167ffffffffffffffff8111156130eb57634e487b7160e01b600052604160045260246000fd5b60405190808252806020026020018201604052801561311e57816020015b60608152602001906001900390816131095790505b508c88888e60405161313899989796959493929190613cd6565b60405180910390a15091979650505050505050565b600067ffffffffffffffff821115612cdb5760405162461bcd60e51b815260206004820152602660248201527f53616665436173743a2076616c756520646f65736e27742066697420696e203660448201527f342062697473000000000000000000000000000000000000000000000000000060648201526084016109eb565b82805482825590600052602060002090810192821561322f579160200282015b8281111561322f578251825473ffffffffffffffffffffffffffffffffffffffff19166001600160a01b039091161782556020909201916001909101906131ed565b50612cdb929150613328565b82805482825590600052602060002090810192821561322f579160200282015b8281111561322f57825182559160200191906001019061325b565b8280548282559060005260206000209081019282156132c3579160200282015b828111156132c357825180516132b391849160209091019061333d565b5091602001919060010190613296565b50612cdb9291506133b0565b82805482825590600052602060002090810192821561331c579160200282015b8281111561331c578251805161330c91849160209091019061333d565b50916020019190600101906132ef565b50612cdb9291506133cd565b5b80821115612cdb5760008155600101613329565b82805461334990613e80565b90600052602060002090601f01602090048101928261336b576000855561322f565b82601f1061338457805160ff191683800117855561322f565b8280016001018555821561322f579182018281111561322f57825182559160200191906001019061325b565b80821115612cdb5760006133c482826133ea565b506001016133b0565b80821115612cdb5760006133e182826133ea565b506001016133cd565b5080546133f690613e80565b6000825580601f1061340857506114f0565b601f0160209004906000526020600020908101906114f09190613328565b600067ffffffffffffffff83111561344057613440613ee6565b613453601f8401601f1916602001613da0565b905082815283838301111561346757600080fd5b828260208301376000602084830101529392505050565b600082601f83011261348e578081fd5b813560206134a361349e83613dd1565b613da0565b82815281810190858301838502870184018810156134bf578586fd5b855b858110156134e65781356134d481613efc565b845292840192908401906001016134c1565b5090979650505050505050565b600082601f830112613503578081fd5b8135602061351361349e83613dd1565b82815281810190858301855b858110156134e6578135880189603f820112613539578788fd5b61354a8a8783013560408401613426565b855250928401929084019060010161351f565b600082601f83011261356d578081fd5b8135602061357d61349e83613dd1565b82815281810190858301855b858110156134e6576135a0898684358b010161360c565b84529284019290840190600101613589565b600082601f8301126135c2578081fd5b813560206135d261349e83613dd1565b82815281810190858301838502870184018810156135ee578586fd5b855b858110156134e6578135845292840192908401906001016135f0565b600082601f83011261361c578081fd5b6115ad83833560208501613426565b803560ff811681146108bf57600080fd5b6000806040838503121561364e578182fd5b823561365981613efc565b946020939093013593505050565b6000806000806080858703121561367c578182fd5b843567ffffffffffffffff80821115613693578384fd5b61369f8883890161347e565b955060208701359150808211156136b4578384fd5b6136c0888389016135b2565b945060408701359150808211156136d5578384fd5b506136e2878288016134f3565b949793965093946060013593505050565b60008060008060808587031215613708578182fd5b843567ffffffffffffffff8082111561371f578384fd5b61372b8883890161347e565b95506020870135915080821115613740578384fd5b61374c888389016135b2565b94506040870135915080821115613761578384fd5b61376d888389016134f3565b93506060870135915080821115613782578283fd5b5061378f8782880161360c565b91505092959194509250565b600080600080600060a086880312156137b2578283fd5b853567ffffffffffffffff808211156137c9578485fd5b6137d589838a0161347e565b965060208801359150808211156137ea578485fd5b6137f689838a016135b2565b9550604088013591508082111561380b578485fd5b61381789838a0161355d565b9450606088013591508082111561382c578283fd5b61383889838a016134f3565b9350608088013591508082111561384d578283fd5b5061385a8882890161360c565b9150509295509295909350565b600060208284031215613878578081fd5b815180151581146115ad578182fd5b600060208284031215613898578081fd5b5051919050565b6000602082840312156138b0578081fd5b81356001600160e01b0319811681146115ad578182fd5b6000602082840312156138d8578081fd5b81356115ad81613efc565b6000602082840312156138f4578081fd5b5035919050565b6000806040838503121561390d578182fd5b82359150602083013561391f81613efc565b809150509250929050565b6000806040838503121561393c578182fd5b8235915061394c6020840161362b565b90509250929050565b6000806000806060858703121561396a578182fd5b8435935061397a6020860161362b565b9250604085013567ffffffffffffffff80821115613996578384fd5b818701915087601f8301126139a9578384fd5b8135818111156139b7578485fd5b8860208285010111156139c8578485fd5b95989497505060200194505050565b600080600080600060a086880312156139ee578283fd5b853594506139fe6020870161362b565b9350613a0c6040870161362b565b94979396509394606081013594506080013592915050565b600060208284031215613a35578081fd5b81516bffffffffffffffffffffffff811681146115ad578182fd5b6000815180845260208085019450808401835b83811015613a885781516001600160a01b031687529582019590820190600101613a63565b509495945050505050565b6000815180845260208085018081965082840281019150828601855b85811015613ad9578284038952613ac7848351613b15565b98850198935090840190600101613aaf565b5091979650505050505050565b6000815180845260208085019450808401835b83811015613a8857815187529582019590820190600101613af9565b60008151808452613b2d816020860160208601613e50565b601f01601f19169290920160200192915050565b60008251613b53818460208701613e50565b9190910192915050565b600060808252613b706080830187613a50565b8281036020840152613b828187613ae6565b90508281036040840152613b968186613a93565b91505082606083015295945050505050565b600060a08252613bbb60a0830188613a50565b8281036020840152613bcd8188613ae6565b90508281036040840152613be18187613a93565b60608401959095525050608001529392505050565b600060c08252613c0960c0830189613a50565b8281036020840152613c1b8189613ae6565b90508281036040840152613c2f8188613a93565b60608401969096525050608081019290925260a0909101529392505050565b600060808252613c616080830187613a50565b8281036020840152613c738187613ae6565b90508281036040840152613c878186613a93565b905082810360608401526110a68185613a93565b6000602082526115ad6020830184613b15565b6020810160088310613cd057634e487b7160e01b600052602160045260246000fd5b91905290565b60006101208b83526001600160a01b038b166020840152806040840152613cff8184018b613a50565b90508281036060840152613d13818a613ae6565b90508281036080840152613d278189613a93565b905082810360a0840152613d3b8188613a93565b67ffffffffffffffff87811660c0860152861660e08501528381036101008501529050613d688185613b15565b9c9b505050505050505050505050565b600085825260ff851660208301528360408301526080606083015261145e6080830184613b15565b604051601f8201601f1916810167ffffffffffffffff81118282101715613dc957613dc9613ee6565b604052919050565b600067ffffffffffffffff821115613deb57613deb613ee6565b5060209081020190565b60008219821115613e0857613e08613ed0565b500190565b600067ffffffffffffffff808316818516808303821115613e3057613e30613ed0565b01949350505050565b600082821015613e4b57613e4b613ed0565b500390565b60005b83811015613e6b578181015183820152602001613e53565b83811115613e7a576000848401525b50505050565b600281046001821680613e9457607f821691505b60208210811415612ac857634e487b7160e01b600052602260045260246000fd5b6000600019821415613ec957613ec9613ed0565b5060010190565b634e487b7160e01b600052601160045260246000fd5b634e487b7160e01b600052604160045260246000fd5b6001600160a01b03811681146114f057600080fdfea2646970667358221220b41df7c3501b83d3d514edd88d779a51f89ac48906e8ea010ce4814db33f670b64736f6c63430008020033",
  "devdoc": {
    "kind": "dev",
    "methods": {
      "COUNTING_MODE()": {
        "details": "A description of the possible `support` values for {castVote} and the way these votes are counted, meant to be consumed by UIs to show correct vote options and interpret the results. The string is a URL-encoded sequence of key-value pairs that each describe one aspect, for example `support=bravo&quorum=for,abstain`. There are 2 standard keys: `support` and `quorum`. - `support=bravo` refers to the vote options 0 = For, 1 = Against, 2 = Abstain, as in `GovernorBravo`. - `quorum=bravo` means that only For votes are counted towards quorum. - `quorum=for,abstain` means that both For and Abstain votes are counted towards quorum. NOTE: The string can be decoded by the standard https://developer.mozilla.org/en-US/docs/Web/API/URLSearchParams[`URLSearchParams`] JavaScript class."
      },
      "cancel(uint256)": {
        "details": "Cancels a proposal only if sender is the proposer, or proposer delegates dropped below proposal threshold."
      },
      "castVote(uint256,uint8)": {
        "details": "See {IGovernor-castVote}."
      },
      "castVoteBySig(uint256,uint8,uint8,bytes32,bytes32)": {
        "details": "See {IGovernor-castVoteBySig}."
      },
      "castVoteWithReason(uint256,uint8,string)": {
        "details": "See {IGovernor-castVoteWithReason}."
      },
      "execute(address[],uint256[],bytes[],bytes32)": {
        "details": "See {IGovernor-execute}."
      },
      "execute(uint256)": {
        "details": "See {IGovernorCompatibilityBravo-execute}."
      },
      "getActions(uint256)": {
        "details": "See {IGovernorCompatibilityBravo-getActions}."
      },
      "getReceipt(uint256,address)": {
        "details": "See {IGovernorCompatibilityBravo-getReceipt}."
      },
      "hasVoted(uint256,address)": {
        "details": "See {IGovernor-hasVoted}."
      },
      "hashProposal(address[],uint256[],bytes[],bytes32)": {
        "details": "See {IGovernor-hashProposal}. The proposal id is produced by hashing the RLC encoded `targets` array, the `values` array, the `calldatas` array and the descriptionHash (bytes32 which itself is the keccak256 hash of the description string). This proposal id can be produced from the proposal data which is part of the {ProposalCreated} event. It can even be computed in advance, before the proposal is submitted. Note that the chainId and the governor address are not part of the proposal id computation. Consequently, the same proposal (with same operation and same description) will have the same id if submitted on multiple governors accross multiple networks. This also means that in order to execute the same operation twice (on the same governor) the proposer will have to change the description in order to avoid proposal id conflicts."
      },
      "name()": {
        "details": "See {IGovernor-name}."
      },
      "proposalDeadline(uint256)": {
        "details": "See {IGovernor-proposalDeadline}."
      },
      "proposalEta(uint256)": {
        "details": "Public accessor to check the eta of a queued proposal"
      },
      "proposalSnapshot(uint256)": {
        "details": "See {IGovernor-proposalSnapshot}."
      },
      "proposalThreshold()": {
        "details": "Part of the Governor Bravo's interface: _\"The number of votes required in order for a voter to become a proposer\"_."
      },
      "proposals(uint256)": {
        "details": "See {IGovernorCompatibilityBravo-proposals}."
      },
      "propose(address[],uint256[],string[],bytes[],string)": {
        "details": "See {IGovernorCompatibilityBravo-propose}."
      },
      "queue(address[],uint256[],bytes[],bytes32)": {
        "details": "Function to queue a proposal to the timelock."
      },
      "queue(uint256)": {
        "details": "See {IGovernorCompatibilityBravo-queue}."
      },
      "quorum(uint256)": {
        "details": "Minimum number of cast voted required for a proposal to be successful. Note: The `blockNumber` parameter corresponds to the snaphot used for counting vote. This allows to scale the quroum depending on values such as the totalSupply of a token at this block (see {ERC20Votes})."
      },
      "quorumVotes()": {
        "details": "See {IGovernorCompatibilityBravo-quorumVotes}."
      },
      "timelock()": {
        "details": "Public accessor to check the address of the timelock"
      },
      "updateTimelock(address)": {
        "details": "Public endpoint to update the underlying timelock instance. Restricted to the timelock itself, so updates must be proposed, scheduled and executed using the {Governor} workflow."
      },
      "version()": {
        "details": "See {IGovernor-version}."
      },
      "votingDelay()": {
        "details": "delay, in number of block, between the proposal is created and the vote starts. This can be increassed to leave time for users to buy voting power, of delegate it, before the voting of a proposal starts."
      },
      "votingPeriod()": {
        "details": "delay, in number of blocks, between the vote start and vote ends. Note: the {votingDelay} can delay the start of the vote. This must be considered when setting the voting duration compared to the voting delay."
      }
    },
    "version": 1
  },
  "userdoc": {
    "kind": "user",
    "methods": {
      "COUNTING_MODE()": {
        "notice": "module:voting"
      },
      "quorum(uint256)": {
        "notice": "module:user-config"
      },
      "votingDelay()": {
        "notice": "module:user-config"
      },
      "votingPeriod()": {
        "notice": "module:user-config"
      }
    },
    "version": 1
  },
  "storageLayout": {
    "storage": [
      {
        "astId": 1320,
        "contract": "contracts/governance/BabylonGovernor.sol:BabylonGovernor",
        "label": "_name",
        "offset": 0,
        "slot": "0",
        "type": "t_string_storage"
      },
      {
        "astId": 1325,
        "contract": "contracts/governance/BabylonGovernor.sol:BabylonGovernor",
        "label": "_proposals",
        "offset": 0,
        "slot": "1",
        "type": "t_mapping(t_uint256,t_struct(ProposalCore)1318_storage)"
      },
      {
        "astId": 3135,
        "contract": "contracts/governance/BabylonGovernor.sol:BabylonGovernor",
        "label": "_proposalDetails",
        "offset": 0,
        "slot": "2",
        "type": "t_mapping(t_uint256,t_struct(ProposalDetails)3130_storage)"
      },
      {
        "astId": 4308,
        "contract": "contracts/governance/BabylonGovernor.sol:BabylonGovernor",
        "label": "_timelock",
        "offset": 0,
        "slot": "3",
        "type": "t_contract(TimelockController)3073"
      },
      {
        "astId": 4312,
        "contract": "contracts/governance/BabylonGovernor.sol:BabylonGovernor",
        "label": "_timelockIds",
        "offset": 0,
        "slot": "4",
        "type": "t_mapping(t_uint256,t_bytes32)"
      }
    ],
    "types": {
      "t_address": {
        "encoding": "inplace",
        "label": "address",
        "numberOfBytes": "20"
      },
      "t_array(t_address)dyn_storage": {
        "base": "t_address",
        "encoding": "dynamic_array",
        "label": "address[]",
        "numberOfBytes": "32"
      },
      "t_array(t_bytes_storage)dyn_storage": {
        "base": "t_bytes_storage",
        "encoding": "dynamic_array",
        "label": "bytes[]",
        "numberOfBytes": "32"
      },
      "t_array(t_string_storage)dyn_storage": {
        "base": "t_string_storage",
        "encoding": "dynamic_array",
        "label": "string[]",
        "numberOfBytes": "32"
      },
      "t_array(t_uint256)dyn_storage": {
        "base": "t_uint256",
        "encoding": "dynamic_array",
        "label": "uint256[]",
        "numberOfBytes": "32"
      },
      "t_bool": {
        "encoding": "inplace",
        "label": "bool",
        "numberOfBytes": "1"
      },
      "t_bytes32": {
        "encoding": "inplace",
        "label": "bytes32",
        "numberOfBytes": "32"
      },
      "t_bytes_storage": {
        "encoding": "bytes",
        "label": "bytes",
        "numberOfBytes": "32"
      },
      "t_contract(TimelockController)3073": {
        "encoding": "inplace",
        "label": "contract TimelockController",
        "numberOfBytes": "20"
      },
      "t_mapping(t_address,t_struct(Receipt)3910_storage)": {
        "encoding": "mapping",
        "key": "t_address",
        "label": "mapping(address => struct IGovernorCompatibilityBravo.Receipt)",
        "numberOfBytes": "32",
        "value": "t_struct(Receipt)3910_storage"
      },
      "t_mapping(t_uint256,t_bytes32)": {
        "encoding": "mapping",
        "key": "t_uint256",
        "label": "mapping(uint256 => bytes32)",
        "numberOfBytes": "32",
        "value": "t_bytes32"
      },
      "t_mapping(t_uint256,t_struct(ProposalCore)1318_storage)": {
        "encoding": "mapping",
        "key": "t_uint256",
        "label": "mapping(uint256 => struct Governor.ProposalCore)",
        "numberOfBytes": "32",
        "value": "t_struct(ProposalCore)1318_storage"
      },
      "t_mapping(t_uint256,t_struct(ProposalDetails)3130_storage)": {
        "encoding": "mapping",
        "key": "t_uint256",
        "label": "mapping(uint256 => struct GovernorCompatibilityBravo.ProposalDetails)",
        "numberOfBytes": "32",
        "value": "t_struct(ProposalDetails)3130_storage"
      },
      "t_string_storage": {
        "encoding": "bytes",
        "label": "string",
        "numberOfBytes": "32"
      },
      "t_struct(BlockNumber)7007_storage": {
        "encoding": "inplace",
        "label": "struct Timers.BlockNumber",
        "members": [
          {
            "astId": 7006,
            "contract": "contracts/governance/BabylonGovernor.sol:BabylonGovernor",
            "label": "_deadline",
            "offset": 0,
            "slot": "0",
            "type": "t_uint64"
          }
        ],
        "numberOfBytes": "32"
      },
      "t_struct(ProposalCore)1318_storage": {
        "encoding": "inplace",
        "label": "struct Governor.ProposalCore",
        "members": [
          {
            "astId": 1310,
            "contract": "contracts/governance/BabylonGovernor.sol:BabylonGovernor",
            "label": "voteStart",
            "offset": 0,
            "slot": "0",
            "type": "t_struct(BlockNumber)7007_storage"
          },
          {
            "astId": 1313,
            "contract": "contracts/governance/BabylonGovernor.sol:BabylonGovernor",
            "label": "voteEnd",
            "offset": 0,
            "slot": "1",
            "type": "t_struct(BlockNumber)7007_storage"
          },
          {
            "astId": 1315,
            "contract": "contracts/governance/BabylonGovernor.sol:BabylonGovernor",
            "label": "executed",
            "offset": 0,
            "slot": "2",
            "type": "t_bool"
          },
          {
            "astId": 1317,
            "contract": "contracts/governance/BabylonGovernor.sol:BabylonGovernor",
            "label": "canceled",
            "offset": 1,
            "slot": "2",
            "type": "t_bool"
          }
        ],
        "numberOfBytes": "96"
      },
      "t_struct(ProposalDetails)3130_storage": {
        "encoding": "inplace",
        "label": "struct GovernorCompatibilityBravo.ProposalDetails",
        "members": [
          {
            "astId": 3104,
            "contract": "contracts/governance/BabylonGovernor.sol:BabylonGovernor",
            "label": "proposer",
            "offset": 0,
            "slot": "0",
            "type": "t_address"
          },
          {
            "astId": 3107,
            "contract": "contracts/governance/BabylonGovernor.sol:BabylonGovernor",
            "label": "targets",
            "offset": 0,
            "slot": "1",
            "type": "t_array(t_address)dyn_storage"
          },
          {
            "astId": 3110,
            "contract": "contracts/governance/BabylonGovernor.sol:BabylonGovernor",
            "label": "values",
            "offset": 0,
            "slot": "2",
            "type": "t_array(t_uint256)dyn_storage"
          },
          {
            "astId": 3113,
            "contract": "contracts/governance/BabylonGovernor.sol:BabylonGovernor",
            "label": "signatures",
            "offset": 0,
            "slot": "3",
            "type": "t_array(t_string_storage)dyn_storage"
          },
          {
            "astId": 3116,
            "contract": "contracts/governance/BabylonGovernor.sol:BabylonGovernor",
            "label": "calldatas",
            "offset": 0,
            "slot": "4",
            "type": "t_array(t_bytes_storage)dyn_storage"
          },
          {
            "astId": 3118,
            "contract": "contracts/governance/BabylonGovernor.sol:BabylonGovernor",
            "label": "forVotes",
            "offset": 0,
            "slot": "5",
            "type": "t_uint256"
          },
          {
            "astId": 3120,
            "contract": "contracts/governance/BabylonGovernor.sol:BabylonGovernor",
            "label": "againstVotes",
            "offset": 0,
            "slot": "6",
            "type": "t_uint256"
          },
          {
            "astId": 3122,
            "contract": "contracts/governance/BabylonGovernor.sol:BabylonGovernor",
            "label": "abstainVotes",
            "offset": 0,
            "slot": "7",
            "type": "t_uint256"
          },
          {
            "astId": 3127,
            "contract": "contracts/governance/BabylonGovernor.sol:BabylonGovernor",
            "label": "receipts",
            "offset": 0,
            "slot": "8",
            "type": "t_mapping(t_address,t_struct(Receipt)3910_storage)"
          },
          {
            "astId": 3129,
            "contract": "contracts/governance/BabylonGovernor.sol:BabylonGovernor",
            "label": "descriptionHash",
            "offset": 0,
            "slot": "9",
            "type": "t_bytes32"
          }
        ],
        "numberOfBytes": "320"
      },
      "t_struct(Receipt)3910_storage": {
        "encoding": "inplace",
        "label": "struct IGovernorCompatibilityBravo.Receipt",
        "members": [
          {
            "astId": 3905,
            "contract": "contracts/governance/BabylonGovernor.sol:BabylonGovernor",
            "label": "hasVoted",
            "offset": 0,
            "slot": "0",
            "type": "t_bool"
          },
          {
            "astId": 3907,
            "contract": "contracts/governance/BabylonGovernor.sol:BabylonGovernor",
            "label": "support",
            "offset": 1,
            "slot": "0",
            "type": "t_uint8"
          },
          {
            "astId": 3909,
            "contract": "contracts/governance/BabylonGovernor.sol:BabylonGovernor",
            "label": "votes",
            "offset": 2,
            "slot": "0",
            "type": "t_uint96"
          }
        ],
        "numberOfBytes": "32"
      },
      "t_uint256": {
        "encoding": "inplace",
        "label": "uint256",
        "numberOfBytes": "32"
      },
      "t_uint64": {
        "encoding": "inplace",
        "label": "uint64",
        "numberOfBytes": "8"
      },
      "t_uint8": {
        "encoding": "inplace",
        "label": "uint8",
        "numberOfBytes": "1"
      },
      "t_uint96": {
        "encoding": "inplace",
        "label": "uint96",
        "numberOfBytes": "12"
      }
    }
  }
}