{
  "address": "0x796aF8955e2E0eB81ad72a77DF9Aa515D92226E0",
  "abi": [
    {
      "inputs": [
        {
          "internalType": "contract IBabController",
          "name": "_controller",
          "type": "address"
        }
      ],
      "stateMutability": "nonpayable",
      "type": "constructor"
    },
    {
      "inputs": [],
      "name": "controller",
      "outputs": [
        {
          "internalType": "contract IBabController",
          "name": "",
          "type": "address"
        }
      ],
      "stateMutability": "view",
      "type": "function"
    },
    {
      "inputs": [
        {
          "internalType": "address",
          "name": "_address",
          "type": "address"
        }
      ],
      "name": "getAllProphets",
      "outputs": [
        {
          "internalType": "uint256[]",
          "name": "",
          "type": "uint256[]"
        }
      ],
      "stateMutability": "view",
      "type": "function"
    },
    {
      "inputs": [
        {
          "internalType": "address",
          "name": "_strategy",
          "type": "address"
        }
      ],
      "name": "getCompleteStrategy",
      "outputs": [
        {
          "internalType": "address",
          "name": "",
          "type": "address"
        },
        {
          "internalType": "string",
          "name": "",
          "type": "string"
        },
        {
          "internalType": "uint256[16]",
          "name": "",
          "type": "uint256[16]"
        },
        {
          "internalType": "bool[]",
          "name": "",
          "type": "bool[]"
        },
        {
          "internalType": "uint256[]",
          "name": "",
          "type": "uint256[]"
        }
      ],
      "stateMutability": "view",
      "type": "function"
    },
    {
      "inputs": [
        {
          "internalType": "address",
          "name": "_garden",
          "type": "address"
        },
        {
          "internalType": "address",
          "name": "_user",
          "type": "address"
        }
      ],
      "name": "getContributionAndRewards",
      "outputs": [
        {
          "internalType": "uint256[]",
          "name": "",
          "type": "uint256[]"
        },
        {
          "internalType": "uint256[]",
          "name": "",
          "type": "uint256[]"
        },
        {
          "internalType": "uint256[]",
          "name": "",
          "type": "uint256[]"
        }
      ],
      "stateMutability": "view",
      "type": "function"
    },
    {
      "inputs": [
        {
          "internalType": "address",
          "name": "_garden",
          "type": "address"
        }
      ],
      "name": "getGardenDetails",
      "outputs": [
        {
          "internalType": "string",
          "name": "",
          "type": "string"
        },
        {
          "internalType": "string",
          "name": "",
          "type": "string"
        },
        {
          "internalType": "address[5]",
          "name": "",
          "type": "address[5]"
        },
        {
          "internalType": "address",
          "name": "",
          "type": "address"
        },
        {
          "internalType": "bool[4]",
          "name": "",
          "type": "bool[4]"
        },
        {
          "internalType": "address[]",
          "name": "",
          "type": "address[]"
        },
        {
          "internalType": "address[]",
          "name": "",
          "type": "address[]"
        },
        {
          "internalType": "uint256[10]",
          "name": "",
          "type": "uint256[10]"
        },
        {
          "internalType": "uint256[10]",
          "name": "",
          "type": "uint256[10]"
        },
        {
          "internalType": "uint256[3]",
          "name": "",
          "type": "uint256[3]"
        }
      ],
      "stateMutability": "view",
      "type": "function"
    },
    {
      "inputs": [
        {
          "internalType": "address",
          "name": "_garden",
          "type": "address"
        },
        {
          "internalType": "address",
          "name": "_user",
          "type": "address"
        }
      ],
      "name": "getGardenPermissions",
      "outputs": [
        {
          "internalType": "bool",
          "name": "",
          "type": "bool"
        },
        {
          "internalType": "bool",
          "name": "",
          "type": "bool"
        },
        {
          "internalType": "bool",
          "name": "",
          "type": "bool"
        }
      ],
      "stateMutability": "view",
      "type": "function"
    },
    {
      "inputs": [
        {
          "internalType": "address",
          "name": "_garden",
          "type": "address"
        }
      ],
      "name": "getGardenPrincipal",
      "outputs": [
        {
          "internalType": "uint256",
          "name": "",
          "type": "uint256"
        }
      ],
      "stateMutability": "view",
      "type": "function"
    },
    {
      "inputs": [
        {
          "internalType": "address",
          "name": "_garden",
          "type": "address"
        },
        {
          "internalType": "address",
          "name": "_user",
          "type": "address"
        }
      ],
      "name": "getGardenUserAvgPricePerShare",
      "outputs": [
        {
          "internalType": "uint256",
          "name": "",
          "type": "uint256"
        }
      ],
      "stateMutability": "view",
      "type": "function"
    },
    {
      "inputs": [
        {
          "internalType": "address",
          "name": "_user",
          "type": "address"
        },
        {
          "internalType": "uint256",
          "name": "_offset",
          "type": "uint256"
        }
      ],
      "name": "getGardensUser",
      "outputs": [
        {
          "internalType": "address[]",
          "name": "",
          "type": "address[]"
        },
        {
          "internalType": "bool[]",
          "name": "",
          "type": "bool[]"
        }
      ],
      "stateMutability": "view",
      "type": "function"
    },
    {
      "inputs": [
        {
          "internalType": "address",
          "name": "_strategy",
          "type": "address"
        }
      ],
      "name": "getOperationsStrategy",
      "outputs": [
        {
          "internalType": "uint8[]",
          "name": "",
          "type": "uint8[]"
        },
        {
          "internalType": "address[]",
          "name": "",
          "type": "address[]"
        },
        {
          "internalType": "bytes[]",
          "name": "",
          "type": "bytes[]"
        }
      ],
      "stateMutability": "view",
      "type": "function"
    },
    {
      "inputs": [
        {
          "internalType": "address",
          "name": "_user",
          "type": "address"
        }
      ],
      "name": "getPermissions",
      "outputs": [
        {
          "internalType": "bool",
          "name": "",
          "type": "bool"
        },
        {
          "internalType": "bool",
          "name": "",
          "type": "bool"
        }
      ],
      "stateMutability": "view",
      "type": "function"
    },
    {
      "inputs": [
        {
          "internalType": "address",
          "name": "_garden",
          "type": "address"
        },
        {
          "internalType": "address[]",
          "name": "_members",
          "type": "address[]"
        }
      ],
      "name": "getPotentialVotes",
      "outputs": [
        {
          "internalType": "uint256",
          "name": "",
          "type": "uint256"
        }
      ],
      "stateMutability": "view",
      "type": "function"
    },
    {
      "inputs": [
        {
          "internalType": "address",
          "name": "_tokenIn",
          "type": "address"
        },
        {
          "internalType": "address",
          "name": "_reserveAsset",
          "type": "address"
        }
      ],
      "name": "getPriceAndLiquidity",
      "outputs": [
        {
          "internalType": "uint256",
          "name": "",
          "type": "uint256"
        },
        {
          "internalType": "uint256",
          "name": "",
          "type": "uint256"
        }
      ],
      "stateMutability": "view",
      "type": "function"
    },
    {
      "inputs": [
        {
          "internalType": "address[]",
          "name": "_strategies",
          "type": "address[]"
        },
        {
          "internalType": "address",
          "name": "_user",
          "type": "address"
        }
      ],
      "name": "getUserStrategyActions",
      "outputs": [
        {
          "internalType": "uint256",
          "name": "",
          "type": "uint256"
        },
        {
          "internalType": "uint256",
          "name": "",
          "type": "uint256"
        }
      ],
      "stateMutability": "view",
      "type": "function"
    }
  ],
  "transactionHash": "0xa72d009b2aae5dbc2f873fb4bc0cedc6aac2696ab8e69ada26b30efa5c70b049",
  "args": [
    "0xD4a5b5fcB561dAF3aDF86F8477555B92FBa43b5F"
  ],
  "solcInputHash": "6c4abd5f70f8a37f238ccd29702c7be0",
  "bytecode": "0x60806040523480156200001157600080fd5b506040516200604b3803806200604b83398101604081905262000034916200008c565b6001600160a01b038116620000665760405162461bcd60e51b81526004016200005d90620000bc565b60405180910390fd5b600080546001600160a01b0319166001600160a01b0392909216919091179055620000f3565b6000602082840312156200009e578081fd5b81516001600160a01b0381168114620000b5578182fd5b9392505050565b60208082526015908201527f436f6e74726f6c6c6572206d7573742065786973740000000000000000000000604082015260600190565b615f4880620001036000396000f3fe608060405234801561001057600080fd5b50600436106100ea5760003560e01c8063a63037da1161008c578063d005ce5c11610066578063d005ce5c14610229578063e644fe0914610252578063ede1209e14610265578063f77c479114610287576100ea565b8063a63037da146101d3578063b105b044146101f5578063bf6f933714610216576100ea565b80635dcb4959116100c85780635dcb49591461015c578063932a6942146101805780639ab05426146101a05780639cc98ff9146101b3576100ea565b8063160a7925146100ef5780631b76c124146101195780634c038f201461013a575b600080fd5b6101026100fd366004615455565b61029c565b604051610110929190615d64565b60405180910390f35b61012c61012736600461548d565b6104e4565b604051610110929190615e70565b61014d61014836600461548d565b61060d565b60405161011093929190615d76565b61016f61016a366004615455565b6109f0565b604051610110959493929190615baa565b61019361018e36600461548d565b6115a5565b6040516101109190615d90565b61012c6101ae366004615682565b6116f3565b6101c66101c1366004615455565b611887565b6040516101109190615c6a565b6101e66101e1366004615455565b611a2a565b60405161011093929190615cb6565b6102086102033660046155b9565b611ca1565b604051610110929190615c45565b6101936102243660046154c5565b611efb565b61023c610237366004615455565b6120f0565b6040516101109a99989796959493929190615d99565b610193610260366004615455565b6135fa565b61027861027336600461548d565b613bc1565b60405161011093929190615c7d565b61028f6140ae565b6040516101109190615b1f565b60008060008060009054906101000a90046001600160a01b03166001600160a01b0316630ebdb9a26040518163ffffffff1660e01b815260040160206040518083038186803b1580156102ee57600080fd5b505afa158015610302573d6000803e3d6000fd5b505050506040513d601f19601f820116820180604052508101906103269190615471565b6040516370a0823160e01b815290915060009081907326231a65ef80706307bbe71f032dc1e5bf28ce43906370a0823190610365908990600401615b1f565b60206040518083038186803b15801561037d57600080fd5b505afa158015610391573d6000803e3d6000fd5b505050506040513d601f19601f820116820180604052508101906103b59190615847565b119050816001600160a01b03166320382f8e866040518263ffffffff1660e01b81526004016103e49190615b1f565b60206040518083038186803b1580156103fc57600080fd5b505afa158015610410573d6000803e3d6000fd5b505050506040513d601f19601f82011682018060405250810190610434919061582d565b8061043c5750805b6040517f7804a5dc0000000000000000000000000000000000000000000000000000000081526001600160a01b03841690637804a5dc90610481908990600401615b1f565b60206040518083038186803b15801561049957600080fd5b505afa1580156104ad573d6000803e3d6000fd5b505050506040513d601f19601f820116820180604052508101906104d1919061582d565b806104d95750815b935093505050915091565b60008054604080517f2630c12f000000000000000000000000000000000000000000000000000000008152905183926001600160a01b031691632630c12f916004808301926020929190829003018186803b15801561054257600080fd5b505afa158015610556573d6000803e3d6000fd5b505050506040513d601f19601f8201168201806040525081019061057a9190615471565b6001600160a01b031663ac41865a85856040518363ffffffff1660e01b81526004016105a7929190615b33565b60206040518083038186803b1580156105bf57600080fd5b505afa1580156105d3573d6000803e3d6000fd5b505050506040513d601f19601f820116820180604052508101906105f79190615847565b61060185856140bd565b915091505b9250929050565b60008060008060008054906101000a90046001600160a01b03166001600160a01b0316630ebdb9a26040518163ffffffff1660e01b815260040160206040518083038186803b15801561065f57600080fd5b505afa158015610673573d6000803e3d6000fd5b505050506040513d601f19601f820116820180604052508101906106979190615471565b6040517fc7ec5d5d0000000000000000000000000000000000000000000000000000000081529091506001906001600160a01b0383169063c7ec5d5d906106e4908a908a90600401615b33565b60206040518083038186803b1580156106fc57600080fd5b505afa158015610710573d6000803e3d6000fd5b505050506040513d601f19601f82011682018060405250810190610734919061582d565b806107b557508080156107b55750866001600160a01b031663550c2b7f6040518163ffffffff1660e01b815260040160206040518083038186803b15801561077b57600080fd5b505afa15801561078f573d6000803e3d6000fd5b505050506040513d601f19601f820116820180604052508101906107b3919061582d565b155b6040517f4d98fbf00000000000000000000000000000000000000000000000000000000081526001600160a01b03841690634d98fbf0906107fc908b908b90600401615b33565b60206040518083038186803b15801561081457600080fd5b505afa158015610828573d6000803e3d6000fd5b505050506040513d601f19601f8201168201806040525081019061084c919061582d565b806108cb57508180156108cb5750876001600160a01b03166377e7ff3c6040518163ffffffff1660e01b815260040160206040518083038186803b15801561089357600080fd5b505afa1580156108a7573d6000803e3d6000fd5b505050506040513d601f19601f820116820180604052508101906108cb919061582d565b6040517f5066c7140000000000000000000000000000000000000000000000000000000081526001600160a01b03851690635066c71490610912908c908c90600401615b33565b60206040518083038186803b15801561092a57600080fd5b505afa15801561093e573d6000803e3d6000fd5b505050506040513d601f19601f82011682018060405250810190610962919061582d565b806109e157508280156109e15750886001600160a01b0316631780998b6040518163ffffffff1660e01b815260040160206040518083038186803b1580156109a957600080fd5b505afa1580156109bd573d6000803e3d6000fd5b505050506040513d601f19601f820116820180604052508101906109e1919061582d565b94509450945050509250925092565b600060606109fc615359565b604080516003808252608082019092526060918291879160009190602082018580368337505060408051600480825260a08201909252929350600092915060208201608080368337019050509050826001600160a01b031663bf1dcfe26040518163ffffffff1660e01b815260040160e06040518083038186803b158015610a8357600080fd5b505afa158015610a97573d6000803e3d6000fd5b505050506040513d601f19601f82011682018060405250810190610abb9190615547565b9091929394955087600081518110610acf57fe5b6020026020010188600181518110610ae357fe5b6020026020010189600281518110610af757fe5b6020026020010189600081518110610b0b57fe5b602002602001018a600181518110610b1f57fe5b602002602001018b600281518110610b3357fe5b602090810291909101019590955294909352939092529215159092529115159091529015159052805160009082906001908110610b6c57fe5b602002602001015160001415610b83576000610c82565b60008054906101000a90046001600160a01b03166001600160a01b0316633f2a55406040518163ffffffff1660e01b815260040160206040518083038186803b158015610bcf57600080fd5b505afa158015610be3573d6000803e3d6000fd5b505050506040513d601f19601f82011682018060405250810190610c079190615471565b6001600160a01b0316639de9a0528b6040518263ffffffff1660e01b8152600401610c329190615b1f565b60206040518083038186803b158015610c4a57600080fd5b505afa158015610c5e573d6000803e3d6000fd5b505050506040513d601f19601f82011682018060405250810190610c829190615847565b9050836001600160a01b031663a30ca2046040518163ffffffff1660e01b815260040160206040518083038186803b158015610cbd57600080fd5b505afa158015610cd1573d6000803e3d6000fd5b505050506040513d601f19601f82011682018060405250810190610cf59190615847565b82600381518110610d0257fe5b602002602001018181525050836001600160a01b0316631fe4a6866040518163ffffffff1660e01b815260040160206040518083038186803b158015610d4757600080fd5b505afa158015610d5b573d6000803e3d6000fd5b505050506040513d601f19601f82011682018060405250810190610d7f9190615471565b60008054906101000a90046001600160a01b03166001600160a01b031663d6a45aa56040518163ffffffff1660e01b815260040160206040518083038186803b158015610dcb57600080fd5b505afa158015610ddf573d6000803e3d6000fd5b505050506040513d601f19601f82011682018060405250810190610e039190615471565b6001600160a01b03166323b0e4158c6040518263ffffffff1660e01b8152600401610e2e9190615b1f565b60006040518083038186803b158015610e4657600080fd5b505afa158015610e5a573d6000803e3d6000fd5b505050506040513d6000823e601f3d908101601f19168201604052610e82919081019061585f565b604051806102000160405280876001600160a01b031663dd1033f86040518163ffffffff1660e01b815260040160206040518083038186803b158015610ec757600080fd5b505afa158015610edb573d6000803e3d6000fd5b505050506040513d601f19601f82011682018060405250810190610eff9190615847565b8152602001876001600160a01b0316633a4b66f16040518163ffffffff1660e01b815260040160206040518083038186803b158015610f3d57600080fd5b505afa158015610f51573d6000803e3d6000fd5b505050506040513d601f19601f82011682018060405250810190610f759190615847565b8152602001876001600160a01b031663d40244cb6040518163ffffffff1660e01b815260040160206040518083038186803b158015610fb357600080fd5b505afa158015610fc7573d6000803e3d6000fd5b505050506040513d601f19601f82011682018060405250810190610feb9190615847565b8152602001876001600160a01b031663449b98266040518163ffffffff1660e01b815260040160206040518083038186803b15801561102957600080fd5b505afa15801561103d573d6000803e3d6000fd5b505050506040513d601f19601f820116820180604052508101906110619190615847565b8152602001876001600160a01b03166303cddb2c6040518163ffffffff1660e01b815260040160206040518083038186803b15801561109f57600080fd5b505afa1580156110b3573d6000803e3d6000fd5b505050506040513d601f19601f820116820180604052508101906110d79190615847565b8152602001876001600160a01b03166303976e386040518163ffffffff1660e01b815260040160206040518083038186803b15801561111557600080fd5b505afa158015611129573d6000803e3d6000fd5b505050506040513d601f19601f8201168201806040525081019061114d9190615847565b8152602001876001600160a01b0316630fb5a6b46040518163ffffffff1660e01b815260040160206040518083038186803b15801561118b57600080fd5b505afa15801561119f573d6000803e3d6000fd5b505050506040513d601f19601f820116820180604052508101906111c39190615847565b8152602001876001600160a01b031663d3406abd6040518163ffffffff1660e01b815260040160206040518083038186803b15801561120157600080fd5b505afa158015611215573d6000803e3d6000fd5b505050506040513d601f19601f820116820180604052508101906112399190615847565b8152602001876001600160a01b03166393baae416040518163ffffffff1660e01b815260040160206040518083038186803b15801561127757600080fd5b505afa15801561128b573d6000803e3d6000fd5b505050506040513d601f19601f820116820180604052508101906112af9190615847565b8152602001876001600160a01b0316636db9cc996040518163ffffffff1660e01b815260040160206040518083038186803b1580156112ed57600080fd5b505afa158015611301573d6000803e3d6000fd5b505050506040513d601f19601f820116820180604052508101906113259190615847565b8152602001876001600160a01b0316630126c6066040518163ffffffff1660e01b815260040160206040518083038186803b15801561136357600080fd5b505afa158015611377573d6000803e3d6000fd5b505050506040513d601f19601f8201168201806040525081019061139b9190615847565b8152602001848152602001876001600160a01b031663707cddfe6040518163ffffffff1660e01b815260040160206040518083038186803b1580156113df57600080fd5b505afa1580156113f3573d6000803e3d6000fd5b505050506040513d601f19601f820116820180604052508101906114179190615847565b8152602001876001600160a01b031663397dc9036040518163ffffffff1660e01b815260040160206040518083038186803b15801561145557600080fd5b505afa158015611469573d6000803e3d6000fd5b505050506040513d601f19601f8201168201806040525081019061148d9190615847565b8152602001876001600160a01b0316634b2e52f06040518163ffffffff1660e01b815260040160206040518083038186803b1580156114cb57600080fd5b505afa1580156114df573d6000803e3d6000fd5b505050506040513d601f19601f820116820180604052508101906115039190615847565b8152602001876001600160a01b031663e4df5e1a6040518163ffffffff1660e01b815260040160206040518083038186803b15801561154157600080fd5b505afa158015611555573d6000803e3d6000fd5b505050506040513d601f19601f82011682018060405250810190611579919061582d565b61158457600061158d565b61158d8e614591565b9052919c909b50909950929750909550909350505050565b6040805160028082526060820183526000928592849290916020830190803683375050604051633d8270f560e01b8152919250506001600160a01b03831690633d8270f5906115f8908790600401615b1f565b6101406040518083038186803b15801561161157600080fd5b505afa158015611625573d6000803e3d6000fd5b505050506040513d601f19601f8201168201806040525081019061164991906158d4565b5050885192975090955087945060009350501515905061166557fe5b602002602001018360018151811061167957fe5b602002602001018281525082815250505060008160018151811061169957fe5b6020026020010151116116ad5760006116e8565b6116e8816001815181106116bd57fe5b6020026020010151826000815181106116d257fe5b602002602001015161469390919063ffffffff16565b925050505b92915050565b60008060008060005b86518160ff16101561187b576000878260ff168151811061171957fe5b60200260200101519050866001600160a01b0316816001600160a01b0316631fe4a6866040518163ffffffff1660e01b815260040160206040518083038186803b15801561176657600080fd5b505afa15801561177a573d6000803e3d6000fd5b505050506040513d601f19601f8201168201806040525081019061179e9190615471565b6001600160a01b031614156117bb576117b88460016146ab565b93505b6040517f950c78220000000000000000000000000000000000000000000000000000000081526000906001600160a01b0383169063950c782290611803908b90600401615b1f565b60206040518083038186803b15801561181b57600080fd5b505afa15801561182f573d6000803e3d6000fd5b505050506040513d601f19601f820116820180604052508101906118539190615847565b905080156118715761186e611867826146bb565b85906146ab565b93505b50506001016116fc565b50909590945092505050565b6040516370a0823160e01b81526060907326231a65ef80706307bbe71f032dc1e5bf28ce439060009082906370a08231906118c6908790600401615b1f565b60206040518083038186803b1580156118de57600080fd5b505afa1580156118f2573d6000803e3d6000fd5b505050506040513d601f19601f820116820180604052508101906119169190615847565b905060008167ffffffffffffffff8111801561193157600080fd5b5060405190808252806020026020018201604052801561195b578160200160208202803683370190505b50905060005b82811015611a1f576040517f2f745c590000000000000000000000000000000000000000000000000000000081526001600160a01b03851690632f745c59906119b09089908590600401615c2c565b60206040518083038186803b1580156119c857600080fd5b505afa1580156119dc573d6000803e3d6000fd5b505050506040513d601f19601f82011682018060405250810190611a009190615847565b828281518110611a0c57fe5b6020908102919091010152600101611961565b50925050505b919050565b606080606060008490506000816001600160a01b031663dd1033f86040518163ffffffff1660e01b815260040160206040518083038186803b158015611a6f57600080fd5b505afa158015611a83573d6000803e3d6000fd5b505050506040513d601f19601f82011682018060405250810190611aa79190615847565b905060008167ffffffffffffffff81118015611ac257600080fd5b50604051908082528060200260200182016040528015611aec578160200160208202803683370190505b50905060008267ffffffffffffffff81118015611b0857600080fd5b50604051908082528060200260200182016040528015611b32578160200160208202803683370190505b50905060008367ffffffffffffffff81118015611b4e57600080fd5b50604051908082528060200260200182016040528015611b8257816020015b6060815260200190600190039081611b6d5790505b50905060005b848160ff161015611c91576040517f48a4beaa0000000000000000000000000000000000000000000000000000000081526001600160a01b038716906348a4beaa90611bd8908490600401615e7e565b60006040518083038186803b158015611bf057600080fd5b505afa158015611c04573d6000803e3d6000fd5b505050506040513d6000823e601f3d908101601f19168201604052611c2c9190810190615947565b868460ff1681518110611c3b57fe5b60200260200101868560ff1681518110611c5157fe5b60200260200101868660ff1681518110611c6757fe5b60209081029190910101929092526001600160a01b03909216905260ff9091169052600101611b88565b5091989097509095509350505050565b60608060008060009054906101000a90046001600160a01b03166001600160a01b031663daec2a1a6040518163ffffffff1660e01b815260040160006040518083038186803b158015611cf357600080fd5b505afa158015611d07573d6000803e3d6000fd5b505050506040513d6000823e601f3d908101601f19168201604052611d2f91908101906155e4565b604080516064808252610ca082019092529192506000919060208201610c80803683375050604080516064808252610ca08201909252929350600092915060208201610c80803683370190505090506000606484511115611d9a57611d958760646146ab565b611d9d565b83515b905083518110611dae578351611db0565b805b90506000875b82811015611eeb576000611ddd878381518110611dcf57fe5b60200260200101518c61060d565b505090508015611ee257868281518110611df357fe5b6020026020010151868460ff1681518110611e0a57fe5b60200260200101906001600160a01b031690816001600160a01b0316815250506000878381518110611e3857fe5b60200260200101516001600160a01b03166370a082318d6040518263ffffffff1660e01b8152600401611e6b9190615b1f565b60206040518083038186803b158015611e8357600080fd5b505afa158015611e97573d6000803e3d6000fd5b505050506040513d601f19601f82011682018060405250810190611ebb9190615847565b11858460ff1681518110611ecb57fe5b911515602092830291909101909101526001909201915b50600101611db6565b5092989197509095505050505050565b600080849050806001600160a01b03166377e7ff3c6040518163ffffffff1660e01b815260040160206040518083038186803b158015611f3a57600080fd5b505afa158015611f4e573d6000803e3d6000fd5b505050506040513d601f19601f82011682018060405250810190611f72919061582d565b15611ff057846001600160a01b03166318160ddd6040518163ffffffff1660e01b815260040160206040518083038186803b158015611fb057600080fd5b505afa158015611fc4573d6000803e3d6000fd5b505050506040513d601f19601f82011682018060405250810190611fe89190615847565b9150506120e9565b6000805b848110156120e4576000806120248989898681811061200f57fe5b90506020020160208101906101489190615455565b50915091508180156120335750805b156120da576120d7896001600160a01b03166370a082318a8a8781811061205657fe5b905060200201602081019061206b9190615455565b6040518263ffffffff1660e01b81526004016120879190615b1f565b60206040518083038186803b15801561209f57600080fd5b505afa1580156120b3573d6000803e3d6000fd5b505050506040513d601f19601f820116820180604052508101906118679190615847565b93505b5050600101611ff4565b509150505b9392505050565b6060806120fb615378565b6000612105615396565b6060806121106153b4565b6121186153b4565b6121206153d3565b8a600061212c826135fa565b60408051600480825260a0820190925291925060009190602082016080803683370190505090508d6001600160a01b03166318160ddd6040518163ffffffff1660e01b815260040160206040518083038186803b15801561218c57600080fd5b505afa1580156121a0573d6000803e3d6000fd5b505050506040513d601f19601f820116820180604052508101906121c49190615847565b816000815181106121d157fe5b6020026020010181815250506000816000815181106121ec57fe5b602002602001015111612200576000612371565b60008054906101000a90046001600160a01b03166001600160a01b031663294d237c6040518163ffffffff1660e01b815260040160206040518083038186803b15801561224c57600080fd5b505afa158015612260573d6000803e3d6000fd5b505050506040513d601f19601f820116820180604052508101906122849190615471565b6001600160a01b031663bc14773a8f856001600160a01b031663f85cb5c86040518163ffffffff1660e01b815260040160206040518083038186803b1580156122cc57600080fd5b505afa1580156122e0573d6000803e3d6000fd5b505050506040513d601f19601f820116820180604052508101906123049190615471565b6040518363ffffffff1660e01b8152600401612321929190615b33565b60206040518083038186803b15801561233957600080fd5b505afa15801561234d573d6000803e3d6000fd5b505050506040513d601f19601f820116820180604052508101906123719190615847565b8160018151811061237e57fe5b6020026020010181815250506123938e6146d2565b816002815181106123a057fe5b602002602001018181525050826001600160a01b031663f85cb5c86040518163ffffffff1660e01b815260040160206040518083038186803b1580156123e557600080fd5b505afa1580156123f9573d6000803e3d6000fd5b505050506040513d601f19601f8201168201806040525081019061241d9190615471565b6001600160a01b03166370a08231846040518263ffffffff1660e01b81526004016124489190615b1f565b60206040518083038186803b15801561246057600080fd5b505afa158015612474573d6000803e3d6000fd5b505050506040513d601f19601f820116820180604052508101906124989190615847565b816003815181106124a557fe5b602002602001018181525050826001600160a01b03166360d442ca6040518163ffffffff1660e01b815260040160206040518083038186803b1580156124ea57600080fd5b505afa1580156124fe573d6000803e3d6000fd5b505050506040513d601f19601f820116820180604052508101906125229190615847565b8160038151811061252f57fe5b602002602001015111156125ee576125d4836001600160a01b03166360d442ca6040518163ffffffff1660e01b815260040160206040518083038186803b15801561257957600080fd5b505afa15801561258d573d6000803e3d6000fd5b505050506040513d601f19601f820116820180604052508101906125b19190615847565b826003815181106125be57fe5b602002602001015161478490919063ffffffff16565b816003815181106125e157fe5b6020026020010181815250505b826001600160a01b031663b9e675396040518163ffffffff1660e01b815260040160206040518083038186803b15801561262757600080fd5b505afa15801561263b573d6000803e3d6000fd5b505050506040513d601f19601f8201168201806040525081019061265f9190615847565b8160038151811061266c57fe5b602002602001015111156126d4576126b6836001600160a01b031663b9e675396040518163ffffffff1660e01b815260040160206040518083038186803b15801561257957600080fd5b816003815181106126c357fe5b6020026020010181815250506126f0565b6000816003815181106126e357fe5b6020026020010181815250505b60006126fb8f614794565b90508e6001600160a01b03166306fdde036040518163ffffffff1660e01b815260040160006040518083038186803b15801561273657600080fd5b505afa15801561274a573d6000803e3d6000fd5b505050506040513d6000823e601f3d908101601f19168201604052612772919081019061585f565b8f6001600160a01b03166395d89b416040518163ffffffff1660e01b815260040160006040518083038186803b1580156127ab57600080fd5b505afa1580156127bf573d6000803e3d6000fd5b505050506040513d6000823e601f3d908101601f191682016040526127e7919081019061585f565b6040518060a00160405280876001600160a01b03166302d05d3f6040518163ffffffff1660e01b815260040160206040518083038186803b15801561282b57600080fd5b505afa15801561283f573d6000803e3d6000fd5b505050506040513d601f19601f820116820180604052508101906128639190615471565b6001600160a01b03166001600160a01b03168152602001876001600160a01b03166363f568b960006040518263ffffffff1660e01b81526004016128a79190615d90565b60206040518083038186803b1580156128bf57600080fd5b505afa1580156128d3573d6000803e3d6000fd5b505050506040513d601f19601f820116820180604052508101906128f79190615471565b6001600160a01b03166001600160a01b03168152602001876001600160a01b03166363f568b960016040518263ffffffff1660e01b815260040161293b9190615d90565b60206040518083038186803b15801561295357600080fd5b505afa158015612967573d6000803e3d6000fd5b505050506040513d601f19601f8201168201806040525081019061298b9190615471565b6001600160a01b03166001600160a01b03168152602001876001600160a01b03166363f568b960026040518263ffffffff1660e01b81526004016129cf9190615d90565b60206040518083038186803b1580156129e757600080fd5b505afa1580156129fb573d6000803e3d6000fd5b505050506040513d601f19601f82011682018060405250810190612a1f9190615471565b6001600160a01b03166001600160a01b03168152602001876001600160a01b03166363f568b960036040518263ffffffff1660e01b8152600401612a639190615d90565b60206040518083038186803b158015612a7b57600080fd5b505afa158015612a8f573d6000803e3d6000fd5b505050506040513d601f19601f82011682018060405250810190612ab39190615471565b6001600160a01b03166001600160a01b0316815250866001600160a01b031663f85cb5c86040518163ffffffff1660e01b815260040160206040518083038186803b158015612b0157600080fd5b505afa158015612b15573d6000803e3d6000fd5b505050506040513d601f19601f82011682018060405250810190612b399190615471565b60405180608001604052806001151515158152602001896001600160a01b031663550c2b7f6040518163ffffffff1660e01b815260040160206040518083038186803b158015612b8857600080fd5b505afa158015612b9c573d6000803e3d6000fd5b505050506040513d601f19601f82011682018060405250810190612bc0919061582d565b151515158152602001896001600160a01b0316631780998b6040518163ffffffff1660e01b815260040160206040518083038186803b158015612c0257600080fd5b505afa158015612c16573d6000803e3d6000fd5b505050506040513d601f19601f82011682018060405250810190612c3a919061582d565b151515158152602001896001600160a01b03166377e7ff3c6040518163ffffffff1660e01b815260040160206040518083038186803b158015612c7c57600080fd5b505afa158015612c90573d6000803e3d6000fd5b505050506040513d601f19601f82011682018060405250810190612cb4919061582d565b15151515815250886001600160a01b031663b49a60bb6040518163ffffffff1660e01b815260040160006040518083038186803b158015612cf457600080fd5b505afa158015612d08573d6000803e3d6000fd5b505050506040513d6000823e601f3d908101601f19168201604052612d3091908101906155e4565b896001600160a01b031663b304b8156040518163ffffffff1660e01b815260040160006040518083038186803b158015612d6957600080fd5b505afa158015612d7d573d6000803e3d6000fd5b505050506040513d6000823e601f3d908101601f19168201604052612da591908101906155e4565b6040518061014001604052808c6001600160a01b0316637550ed186040518163ffffffff1660e01b815260040160206040518083038186803b158015612dea57600080fd5b505afa158015612dfe573d6000803e3d6000fd5b505050506040513d601f19601f82011682018060405250810190612e229190615847565b81526020018c6001600160a01b0316638bbde0fd6040518163ffffffff1660e01b815260040160206040518083038186803b158015612e6057600080fd5b505afa158015612e74573d6000803e3d6000fd5b505050506040513d601f19601f82011682018060405250810190612e989190615847565b81526020018c6001600160a01b031663b63c44e76040518163ffffffff1660e01b815260040160206040518083038186803b158015612ed657600080fd5b505afa158015612eea573d6000803e3d6000fd5b505050506040513d601f19601f82011682018060405250810190612f0e9190615847565b81526020018c6001600160a01b0316635a16656a6040518163ffffffff1660e01b815260040160206040518083038186803b158015612f4c57600080fd5b505afa158015612f60573d6000803e3d6000fd5b505050506040513d601f19601f82011682018060405250810190612f849190615847565b81526020018c6001600160a01b03166395cdbedb6040518163ffffffff1660e01b815260040160206040518083038186803b158015612fc257600080fd5b505afa158015612fd6573d6000803e3d6000fd5b505050506040513d601f19601f82011682018060405250810190612ffa9190615847565b81526020018c6001600160a01b031663297ce5986040518163ffffffff1660e01b815260040160206040518083038186803b15801561303857600080fd5b505afa15801561304c573d6000803e3d6000fd5b505050506040513d601f19601f820116820180604052508101906130709190615847565b81526020018c6001600160a01b0316633deddb3f6040518163ffffffff1660e01b815260040160206040518083038186803b1580156130ae57600080fd5b505afa1580156130c2573d6000803e3d6000fd5b505050506040513d601f19601f820116820180604052508101906130e69190615847565b81526020018c6001600160a01b031663aaffadf36040518163ffffffff1660e01b815260040160206040518083038186803b15801561312457600080fd5b505afa158015613138573d6000803e3d6000fd5b505050506040513d601f19601f8201168201806040525081019061315c9190615847565b81526020018c6001600160a01b031663a63c643d6040518163ffffffff1660e01b815260040160206040518083038186803b15801561319a57600080fd5b505afa1580156131ae573d6000803e3d6000fd5b505050506040513d601f19601f820116820180604052508101906131d29190615847565b81526020016132c28d6001600160a01b03166360d442ca6040518163ffffffff1660e01b815260040160206040518083038186803b15801561321357600080fd5b505afa158015613227573d6000803e3d6000fd5b505050506040513d601f19601f8201168201806040525081019061324b9190615847565b8e6001600160a01b031663a06931f96040518163ffffffff1660e01b815260040160206040518083038186803b15801561328457600080fd5b505afa158015613298573d6000803e3d6000fd5b505050506040513d601f19601f820116820180604052508101906132bc9190615847565b906146ab565b8152506040518061014001604052808c81526020018d6001600160a01b031663b9e675396040518163ffffffff1660e01b815260040160206040518083038186803b15801561331057600080fd5b505afa158015613324573d6000803e3d6000fd5b505050506040513d601f19601f820116820180604052508101906133489190615847565b81526020018d6001600160a01b031663792e42e26040518163ffffffff1660e01b815260040160206040518083038186803b15801561338657600080fd5b505afa15801561339a573d6000803e3d6000fd5b505050506040513d601f19601f820116820180604052508101906133be9190615847565b81526020018d6001600160a01b031663cb12233b6040518163ffffffff1660e01b815260040160206040518083038186803b1580156133fc57600080fd5b505afa158015613410573d6000803e3d6000fd5b505050506040513d601f19601f820116820180604052508101906134349190615847565b81526020018d6001600160a01b031663f251fc8c6040518163ffffffff1660e01b815260040160206040518083038186803b15801561347257600080fd5b505afa158015613486573d6000803e3d6000fd5b505050506040513d601f19601f820116820180604052508101906134aa9190615847565b81526020018d6001600160a01b0316638b0e9f3f6040518163ffffffff1660e01b815260040160206040518083038186803b1580156134e857600080fd5b505afa1580156134fc573d6000803e3d6000fd5b505050506040513d601f19601f820116820180604052508101906135209190615847565b815260200160008c60018151811061353457fe5b602002602001015111613548576000613583565b6135838c60018151811061355857fe5b60200260200101518d60008151811061356d57fe5b602002602001015161489b90919063ffffffff16565b81526020018b60008151811061359557fe5b602002602001015181526020018b6002815181106135af57fe5b602002602001015181526020018b6003815181106135c957fe5b6020026020010151815250899d509d509d509d509d509d509d509d509d509d50505050509193959799509193959799565b6000808290506000816001600160a01b031663f85cb5c86040518163ffffffff1660e01b815260040160206040518083038186803b15801561363b57600080fd5b505afa15801561364f573d6000803e3d6000fd5b505050506040513d601f19601f820116820180604052508101906136739190615471565b9050600061376d836001600160a01b031663b9e675396040518163ffffffff1660e01b815260040160206040518083038186803b1580156136b357600080fd5b505afa1580156136c7573d6000803e3d6000fd5b505050506040513d601f19601f820116820180604052508101906136eb9190615847565b6040516370a0823160e01b81526001600160a01b038516906370a0823190613717908890600401615b1f565b60206040518083038186803b15801561372f57600080fd5b505afa158015613743573d6000803e3d6000fd5b505050506040513d601f19601f820116820180604052508101906137679190615847565b90614784565b905060008060009054906101000a90046001600160a01b03166001600160a01b031663313754776040518163ffffffff1660e01b815260040160206040518083038186803b1580156137be57600080fd5b505afa1580156137d2573d6000803e3d6000fd5b505050506040513d601f19601f820116820180604052508101906137f69190615847565b90506000846001600160a01b031663b49a60bb6040518163ffffffff1660e01b815260040160006040518083038186803b15801561383357600080fd5b505afa158015613847573d6000803e3d6000fd5b505050506040513d6000823e601f3d908101601f1916820160405261386f91908101906155e4565b905060005b815181101561399957600082828151811061388b57fe5b6020026020010151905061398e613913826001600160a01b03166303cddb2c6040518163ffffffff1660e01b815260040160206040518083038186803b1580156138d457600080fd5b505afa1580156138e8573d6000803e3d6000fd5b505050506040513d601f19601f8201168201806040525081019061390c9190615847565b869061489b565b6132bc836001600160a01b03166303cddb2c6040518163ffffffff1660e01b815260040160206040518083038186803b15801561394f57600080fd5b505afa158015613963573d6000803e3d6000fd5b505050506040513d601f19601f820116820180604052508101906139879190615847565b88906146ab565b945050600101613874565b506000856001600160a01b031663b304b8156040518163ffffffff1660e01b815260040160006040518083038186803b1580156139d557600080fd5b505afa1580156139e9573d6000803e3d6000fd5b505050506040513d6000823e601f3d908101601f19168201604052613a1191908101906155e4565b905060005b8151811015613ac7576000828281518110613a2d57fe5b60200260200101519050613abc613ab5826001600160a01b03166303cddb2c6040518163ffffffff1660e01b815260040160206040518083038186803b158015613a7657600080fd5b505afa158015613a8a573d6000803e3d6000fd5b505050506040513d601f19601f82011682018060405250810190613aae9190615847565b879061489b565b87906146ab565b955050600101613a16565b50613b04866001600160a01b031663a06931f96040518163ffffffff1660e01b815260040160206040518083038186803b15801561209f57600080fd5b93506000866001600160a01b031663792e42e26040518163ffffffff1660e01b815260040160206040518083038186803b158015613b4157600080fd5b505afa158015613b55573d6000803e3d6000fd5b505050506040513d601f19601f82011682018060405250810190613b799190615847565b90506000811315613ba357808511613b92576000613b9c565b613b9c8582614784565b9450613bb4565b613bb18560008390036146ab565b94505b5092979650505050505050565b60408051600a80825261016082019092526060918291829186916000916020820161014080368337505060408051600480825260a082019092529293506000929150602082016080803683375050604051633d8270f560e01b8152919250506001600160a01b03841690633d8270f590613c3f908a90600401615b1f565b6101406040518083038186803b158015613c5857600080fd5b505afa158015613c6c573d6000803e3d6000fd5b505050506040513d601f19601f82011682018060405250810190613c9091906158d4565b508a519092508a9150600090613ca257fe5b6020026020010189600181518110613cb657fe5b602002602001018a600281518110613cca57fe5b602002602001018b600381518110613cde57fe5b602002602001018c600481518110613cf257fe5b602002602001018d600581518110613d0657fe5b602002602001018e600881518110613d1a57fe5b60209081029190910101969096529590945294909352939052929052919052526040516370a0823160e01b81526001600160a01b038916906370a0823190613d66908a90600401615b1f565b60206040518083038186803b158015613d7e57600080fd5b505afa158015613d92573d6000803e3d6000fd5b505050506040513d601f19601f82011682018060405250810190613db69190615847565b82600681518110613dc357fe5b60209081029190910101526040517fc40868930000000000000000000000000000000000000000000000000000000081526001600160a01b0384169063c408689390613e13908a90600401615b1f565b60206040518083038186803b158015613e2b57600080fd5b505afa158015613e3f573d6000803e3d6000fd5b505050506040513d601f19601f82011682018060405250810190613e639190615847565b82600781518110613e7057fe5b60200260200101818152505060008060009054906101000a90046001600160a01b03166001600160a01b0316633f2a55406040518163ffffffff1660e01b815260040160206040518083038186803b158015613ecb57600080fd5b505afa158015613edf573d6000803e3d6000fd5b505050506040513d601f19601f82011682018060405250810190613f039190615471565b6001600160a01b03166369795e938a8a876001600160a01b031663b304b8156040518163ffffffff1660e01b815260040160006040518083038186803b158015613f4c57600080fd5b505afa158015613f60573d6000803e3d6000fd5b505050506040513d6000823e601f3d908101601f19168201604052613f8891908101906155e4565b6040518463ffffffff1660e01b8152600401613fa693929190615b4d565b60006040518083038186803b158015613fbe57600080fd5b505afa158015613fd2573d6000803e3d6000fd5b505050506040513d6000823e601f3d908101601f19168201604052613ffa91908101906157a9565b905061400689896115a5565b8360098151811061401357fe5b60200260200101818152505061409d88856001600160a01b031663b49a60bb6040518163ffffffff1660e01b815260040160006040518083038186803b15801561405c57600080fd5b505afa158015614070573d6000803e3d6000fd5b505050506040513d6000823e601f3d908101601f1916820160405261409891908101906155e4565b6148b3565b929650945090925050509250925092565b6000546001600160a01b031681565b6000816001600160a01b0316836001600160a01b031614156140ed57506c0c9f2c9cd04674edea400000006116ed565b60006140f98484614cd5565b5090506001600160a01b0381166141145760009150506116ed565b6000816001600160a01b0316631a6865026040518163ffffffff1660e01b815260040160206040518083038186803b15801561414f57600080fd5b505afa158015614163573d6000803e3d6000fd5b505050506040513d601f19601f8201168201806040525081019061418791906158ad565b6001600160801b03169050600080856001600160a01b0316846001600160a01b0316630dfe16816040518163ffffffff1660e01b815260040160206040518083038186803b1580156141d857600080fd5b505afa1580156141ec573d6000803e3d6000fd5b505050506040513d601f19601f820116820180604052508101906142109190615471565b6001600160a01b031614156143985761431e846001600160a01b031663d21220a76040518163ffffffff1660e01b815260040160206040518083038186803b15801561425b57600080fd5b505afa15801561426f573d6000803e3d6000fd5b505050506040513d601f19601f820116820180604052508101906142939190615471565b6001600160a01b03166370a08231866040518263ffffffff1660e01b81526004016142be9190615b1f565b60206040518083038186803b1580156142d657600080fd5b505afa1580156142ea573d6000803e3d6000fd5b505050506040513d601f19601f8201168201806040525081019061430e9190615847565b61431885806150d7565b906150fb565b9150836001600160a01b0316630dfe16816040518163ffffffff1660e01b815260040160206040518083038186803b15801561435957600080fd5b505afa15801561436d573d6000803e3d6000fd5b505050506040513d601f19601f820116820180604052508101906143919190615471565b905061444a565b6143d4846001600160a01b0316630dfe16816040518163ffffffff1660e01b815260040160206040518083038186803b15801561425b57600080fd5b9150836001600160a01b031663d21220a76040518163ffffffff1660e01b815260040160206040518083038186803b15801561440f57600080fd5b505afa158015614423573d6000803e3d6000fd5b505050506040513d601f19601f820116820180604052508101906144479190615471565b90505b856001600160a01b0316816001600160a01b0316146145875760008060009054906101000a90046001600160a01b03166001600160a01b0316632630c12f6040518163ffffffff1660e01b815260040160206040518083038186803b1580156144b257600080fd5b505afa1580156144c6573d6000803e3d6000fd5b505050506040513d601f19601f820116820180604052508101906144ea9190615471565b90506000816001600160a01b031663ac41865a848a6040518363ffffffff1660e01b815260040161451c929190615b33565b60206040518083038186803b15801561453457600080fd5b505afa158015614548573d6000803e3d6000fd5b505050506040513d601f19601f8201168201806040525081019061456c9190615847565b9050614582838961457d878561489b565b615162565b935050505b5095945050505050565b60008060009054906101000a90046001600160a01b03166001600160a01b0316633f2a55406040518163ffffffff1660e01b815260040160206040518083038186803b1580156145e057600080fd5b505afa1580156145f4573d6000803e3d6000fd5b505050506040513d601f19601f820116820180604052508101906146189190615471565b6001600160a01b0316637eea8bb7836040518263ffffffff1660e01b81526004016146439190615b1f565b60206040518083038186803b15801561465b57600080fd5b505afa15801561466f573d6000803e3d6000fd5b505050506040513d601f19601f820116820180604052508101906116ed9190615847565b60006120e98261431885670de0b6b3a76400006150d7565b808201828110156116ed57600080fd5b6000808212156146ce57816000036116ed565b5090565b60008060009054906101000a90046001600160a01b03166001600160a01b031663ead4c1cf6040518163ffffffff1660e01b815260040160206040518083038186803b15801561472157600080fd5b505afa158015614735573d6000803e3d6000fd5b505050506040513d601f19601f820116820180604052508101906147599190615471565b6001600160a01b031663181df307836040518263ffffffff1660e01b81526004016146439190615b1f565b808203828111156116ed57600080fd5b61479c6153d3565b60008054906101000a90046001600160a01b03166001600160a01b0316633f2a55406040518163ffffffff1660e01b815260040160206040518083038186803b1580156147e857600080fd5b505afa1580156147fc573d6000803e3d6000fd5b505050506040513d601f19601f820116820180604052508101906148209190615471565b6001600160a01b031663070e8a4a836040518263ffffffff1660e01b815260040161484b9190615b1f565b60606040518083038186803b15801561486357600080fd5b505afa158015614877573d6000803e3d6000fd5b505050506040513d601f19601f820116820180604052508101906116ed919061572d565b60006120e9670de0b6b3a764000061431885856150d7565b604080516008808252610120820190925260609160009190602082016101008036833701905050905060008060009054906101000a90046001600160a01b03166001600160a01b0316633f2a55406040518163ffffffff1660e01b815260040160206040518083038186803b15801561492b57600080fd5b505afa15801561493f573d6000803e3d6000fd5b505050506040513d601f19601f820116820180604052508101906149639190615471565b905060005b8451811015614ccb57604080516008808252610120820190925260009160208201610100803683370190505090508582815181106149a257fe5b60200260200101516001600160a01b031663e4df5e1a6040518163ffffffff1660e01b815260040160206040518083038186803b1580156149e257600080fd5b505afa1580156149f6573d6000803e3d6000fd5b505050506040513d601f19601f82011682018060405250810190614a1a919061582d565b614a245750614cc3565b826001600160a01b031663b8626391878481518110614a3f57fe5b6020026020010151896040518363ffffffff1660e01b8152600401614a65929190615b33565b60006040518083038186803b158015614a7d57600080fd5b505afa158015614a91573d6000803e3d6000fd5b505050506040513d6000823e601f3d908101601f19168201604052614ab991908101906157a9565b9050614af681600081518110614acb57fe5b602002602001015185600081518110614ae057fe5b60200260200101516146ab90919063ffffffff16565b84600081518110614b0357fe5b602002602001018181525050614b3481600181518110614b1f57fe5b602002602001015185600181518110614ae057fe5b84600181518110614b4157fe5b602002602001018181525050614b7281600281518110614b5d57fe5b602002602001015185600281518110614ae057fe5b84600281518110614b7f57fe5b602002602001018181525050614bb081600381518110614b9b57fe5b602002602001015185600381518110614ae057fe5b84600381518110614bbd57fe5b602002602001018181525050614bee81600481518110614bd957fe5b602002602001015185600481518110614ae057fe5b84600481518110614bfb57fe5b602002602001018181525050614c2c81600581518110614c1757fe5b602002602001015185600581518110614ae057fe5b84600581518110614c3957fe5b602002602001018181525050614c6a81600681518110614c5557fe5b602002602001015185600681518110614ae057fe5b84600681518110614c7757fe5b602002602001018181525050614ca881600781518110614c9357fe5b602002602001015185600781518110614ae057fe5b84600781518110614cb557fe5b602002602001018181525050505b600101614968565b5090949350505050565b604051630b4c774160e11b815260009081908190731f98431c8ad98523631ae4a59f267346ea31f98490631698ee8290614d1990889088906101f490600401615b82565b60206040518083038186803b158015614d3157600080fd5b505afa158015614d45573d6000803e3d6000fd5b505050506040513d601f19601f82011682018060405250810190614d699190615471565b604051630b4c774160e11b8152909150600090731f98431c8ad98523631ae4a59f267346ea31f98490631698ee8290614dac9089908990610bb890600401615b82565b60206040518083038186803b158015614dc457600080fd5b505afa158015614dd8573d6000803e3d6000fd5b505050506040513d601f19601f82011682018060405250810190614dfc9190615471565b604051630b4c774160e11b8152909150600090731f98431c8ad98523631ae4a59f267346ea31f98490631698ee8290614e3f908a908a9061271090600401615b82565b60206040518083038186803b158015614e5757600080fd5b505afa158015614e6b573d6000803e3d6000fd5b505050506040513d601f19601f82011682018060405250810190614e8f9190615471565b905060006001600160a01b038416614ea8576000614f19565b836001600160a01b0316631a6865026040518163ffffffff1660e01b815260040160206040518083038186803b158015614ee157600080fd5b505afa158015614ef5573d6000803e3d6000fd5b505050506040513d601f19601f82011682018060405250810190614f1991906158ad565b905060006001600160a01b038416614f32576000614fa3565b836001600160a01b0316631a6865026040518163ffffffff1660e01b815260040160206040518083038186803b158015614f6b57600080fd5b505afa158015614f7f573d6000803e3d6000fd5b505050506040513d601f19601f82011682018060405250810190614fa391906158ad565b905060006001600160a01b038416614fbc57600061502d565b836001600160a01b0316631a6865026040518163ffffffff1660e01b815260040160206040518083038186803b158015614ff557600080fd5b505afa158015615009573d6000803e3d6000fd5b505050506040513d601f19601f8201168201806040525081019061502d91906158ad565b9050816001600160801b0316836001600160801b03161180156150625750806001600160801b0316836001600160801b031610155b1561507a57856101f497509750505050505050610606565b826001600160801b0316826001600160801b03161180156150ad5750806001600160801b0316826001600160801b031610155b156150c55784610bb897509750505050505050610606565b50919861271098509650505050505050565b60008215806150f2575050818102818382816150ef57fe5b04145b6116ed57600080fd5b6000808211615151576040805162461bcd60e51b815260206004820152601a60248201527f536166654d6174683a206469766973696f6e206279207a65726f000000000000604482015290519081900360640190fd5b81838161515a57fe5b049392505050565b60008061516e85615323565b6151dc57846001600160a01b031663313ce5676040518163ffffffff1660e01b815260040160206040518083038186803b1580156151ab57600080fd5b505afa1580156151bf573d6000803e3d6000fd5b505050506040513d60208110156151d557600080fd5b50516151df565b60125b60ff16905060006151ef85615323565b61525d57846001600160a01b031663313ce5676040518163ffffffff1660e01b815260040160206040518083038186803b15801561522c57600080fd5b505afa158015615240573d6000803e3d6000fd5b505050506040513d602081101561525657600080fd5b5051615260565b60125b60ff16905060128211158015615277575060128111155b6152c8576040805162461bcd60e51b815260206004820152601460248201527f556e737570706f7274656420646563696d616c73000000000000000000000000604482015290519081900360640190fd5b808214156152da5783925050506120e9565b81811115615302576152f96152ef8284614784565b8590600a0a6150d7565b925050506120e9565b61531961530f8383614784565b8590600a0a6150fb565b9695505050505050565b600073eeeeeeeeeeeeeeeeeeeeeeeeeeeeeeeeeeeeeeee6001600160a01b03831614806116ed5750506001600160a01b03161590565b6040518061020001604052806010906020820280368337509192915050565b6040518060a001604052806005906020820280368337509192915050565b60405180608001604052806004906020820280368337509192915050565b604051806101400160405280600a906020820280368337509192915050565b60405180606001604052806003906020820280368337509192915050565b600067ffffffffffffffff83111561540557fe5b615418601f8401601f1916602001615e8c565b905082815283838301111561542c57600080fd5b6120e9836020830184615ece565b8035611a2581615efa565b80518015158114611a2557600080fd5b600060208284031215615466578081fd5b81356120e981615efa565b600060208284031215615482578081fd5b81516120e981615efa565b6000806040838503121561549f578081fd5b82356154aa81615efa565b915060208301356154ba81615efa565b809150509250929050565b6000806000604084860312156154d9578081fd5b83356154e481615efa565b9250602084013567ffffffffffffffff80821115615500578283fd5b818601915086601f830112615513578283fd5b813581811115615521578384fd5b8760208083028501011115615534578384fd5b6020830194508093505050509250925092565b600080600080600080600060e0888a031215615561578485fd5b875161556c81615efa565b965061557a60208901615445565b955061558860408901615445565b945061559660608901615445565b93506080880151925060a0880151915060c0880151905092959891949750929550565b600080604083850312156155cb578182fd5b82356155d681615efa565b946020939093013593505050565b600060208083850312156155f6578182fd5b825167ffffffffffffffff81111561560c578283fd5b8301601f8101851361561c578283fd5b805161562f61562a82615eb0565b615e8c565b818152838101908385018584028501860189101561564b578687fd5b8694505b8385101561567657805161566281615efa565b83526001949094019391850191850161564f565b50979650505050505050565b60008060408385031215615694578182fd5b823567ffffffffffffffff8111156156aa578283fd5b8301601f810185136156ba578283fd5b803560206156ca61562a83615eb0565b82815281810190848301838502860184018a10156156e6578788fd5b8795505b848610156157115780356156fd81615efa565b8352600195909501949183019183016156ea565b509550615721905086820161543a565b93505050509250929050565b60006060828403121561573e578081fd5b82601f83011261574c578081fd5b6040516060810181811067ffffffffffffffff8211171561576957fe5b60405280836060810186101561577d578384fd5b835b600381101561579e57815183526020928301929091019060010161577f565b509195945050505050565b600060208083850312156157bb578182fd5b825167ffffffffffffffff8111156157d1578283fd5b8301601f810185136157e1578283fd5b80516157ef61562a82615eb0565b818152838101908385018584028501860189101561580b578687fd5b8694505b8385101561567657805183526001949094019391850191850161580f565b60006020828403121561583e578081fd5b6120e982615445565b600060208284031215615858578081fd5b5051919050565b600060208284031215615870578081fd5b815167ffffffffffffffff811115615886578182fd5b8201601f81018413615896578182fd5b6158a5848251602084016153f1565b949350505050565b6000602082840312156158be578081fd5b81516001600160801b03811681146120e9578182fd5b6000806000806000806000806000806101408b8d0312156158f3578384fd5b8a51995060208b0151985060408b0151975060608b0151965060808b0151955060a08b0151945060c08b0151935060e08b015192506101008b015191506101208b015190509295989b9194979a5092959850565b60008060006060848603121561595b578081fd5b835160ff8116811461596b578182fd5b602085015190935061597c81615efa565b604085015190925067ffffffffffffffff811115615998578182fd5b8401601f810186136159a8578182fd5b6159b7868251602084016153f1565b9150509250925092565b6001600160a01b0316815260200190565b6001600160a01b03169052565b6000815180845260208085019450808401835b83811015615a175781516001600160a01b0316875295820195908201906001016159f2565b509495945050505050565b8060005b6004811015615a475781511515845260209384019390910190600101615a26565b50505050565b6000815180845260208085019450808401835b83811015615a17578151151587529582019590820190600101615a60565b8060005b600a811015615a47578151845260209384019390910190600101615a82565b8060005b6003811015615a47578151845260209384019390910190600101615aa5565b6000815180845260208085019450808401835b83811015615a1757815187529582019590820190600101615ad7565b60008151808452615b0b816020860160208601615ece565b601f01601f19169290920160200192915050565b6001600160a01b0391909116815260200190565b6001600160a01b0392831681529116602082015260400190565b60006001600160a01b03808616835280851660208401525060606040830152615b7960608301846159df565b95945050505050565b6001600160a01b03938416815291909216602082015262ffffff909116604082015260600190565b60006102806001600160a01b038816835260208181850152615bce82850189615af3565b91506040840187845b6010811015615bf457815183529183019190830190600101615bd7565b50505050828103610240840152615c0b8186615a4d565b9050828103610260840152615c208185615ac4565b98975050505050505050565b6001600160a01b03929092168252602082015260400190565b600060408252615c5860408301856159df565b8281036020840152615b798185615a4d565b6000602082526120e96020830184615ac4565b600060608252615c906060830186615ac4565b8281036020840152615ca28186615ac4565b905082810360408401526153198185615ac4565b606080825284519082018190526000906020906080840190828801845b82811015615cf257815160ff1684529284019290840190600101615cd3565b50505083810382850152615d0681876159df565b848103604086015285518082529091508282019083810283018401848801865b83811015615d5457601f19868403018552615d42838351615af3565b94870194925090860190600101615d26565b50909a9950505050505050505050565b91151582521515602082015260400190565b921515835290151560208301521515604082015260600190565b90815260200190565b60006104a0808352615dad8184018e615af3565b9050602083820381850152615dc2828e615af3565b9150604084018c845b6005811015615ded57615ddf8383516159c1565b925090830190600101615dcb565b50505050615dfe60e084018b6159d2565b615e0c61010084018a615a22565b828103610180840152615e1f81896159df565b90508281036101a0840152615e3481886159df565b915050615e456101c0830186615a7e565b615e53610300830185615a7e565b615e61610440830184615aa1565b9b9a5050505050505050505050565b918252602082015260400190565b60ff91909116815260200190565b60405181810167ffffffffffffffff81118282101715615ea857fe5b604052919050565b600067ffffffffffffffff821115615ec457fe5b5060209081020190565b60005b83811015615ee9578181015183820152602001615ed1565b83811115615a475750506000910152565b6001600160a01b0381168114615f0f57600080fd5b5056fea264697066735822122002cf28b8cadd01a90b3ddd5f1431f93b7f5bb849ab6cfdbc6d8d13876b495af964736f6c63430007060033",
  "devdoc": {
    "author": "Babylon Finance Class that holds common view functions to retrieve garden information effectively",
    "kind": "dev",
    "methods": {
      "getCompleteStrategy(address)": {
        "params": {
          "_strategy": "Address of the strategy to fetch"
        },
        "returns": {
          "_0": "All strategy details"
        }
      },
      "getGardenDetails(address)": {
        "params": {
          "_garden": "Address of the garden to fetch"
        },
        "returns": {
          "_0": "Garden complete details"
        }
      },
      "getGardenPrincipal(address)": {
        "params": {
          "_garden": "Address of the garden to fetch"
        },
        "returns": {
          "_0": "Garden principal"
        }
      },
      "getPotentialVotes(address,address[])": {
        "params": {
          "_garden": "Garden to retrieve votes for",
          "_members": "All members of a garden"
        },
        "returns": {
          "_0": "uint256 Total number of tokens that can vote"
        }
      }
    },
    "title": "BabylonViewer",
    "version": 1
  },
  "userdoc": {
    "kind": "user",
    "methods": {
      "getCompleteStrategy(address)": {
        "notice": "Gets complete strategy details"
      },
      "getGardenDetails(address)": {
        "notice": "Gets garden details"
      },
      "getGardenPrincipal(address)": {
        "notice": "Gets garden principal"
      },
      "getPotentialVotes(address,address[])": {
        "notice": "Gets the number of tokens that can vote in this garden"
      }
    },
    "version": 1
  },
  "storageLayout": {
    "storage": [
      {
        "astId": 10905,
        "contract": "contracts/BabylonViewer.sol:BabylonViewer",
        "label": "controller",
        "offset": 0,
        "slot": "0",
        "type": "t_contract(IBabController)38518"
      }
    ],
    "types": {
      "t_contract(IBabController)38518": {
        "encoding": "inplace",
        "label": "contract IBabController",
        "numberOfBytes": "20"
      }
    }
  }
}