{
  "address": "0x9871c07e1C1156f9DB90cEF42A3592F8833EAb65",
  "abi": [
    {
      "inputs": [
        {
          "internalType": "contract IBabController",
          "name": "_controller",
          "type": "address"
        },
        {
          "internalType": "address",
          "name": "_coreFactoryAddress",
          "type": "address"
        }
      ],
      "stateMutability": "nonpayable",
      "type": "constructor"
    },
    {
      "anonymous": false,
      "inputs": [
        {
          "indexed": true,
          "internalType": "address",
          "name": "_strategy",
          "type": "address"
        },
        {
          "indexed": true,
          "internalType": "address",
          "name": "_garden",
          "type": "address"
        },
        {
          "indexed": false,
          "internalType": "address",
          "name": "_pool",
          "type": "address"
        },
        {
          "indexed": false,
          "internalType": "uint256",
          "name": "_poolTokensOut",
          "type": "uint256"
        }
      ],
      "name": "PoolEntered",
      "type": "event"
    },
    {
      "anonymous": false,
      "inputs": [
        {
          "indexed": true,
          "internalType": "address",
          "name": "_strategy",
          "type": "address"
        },
        {
          "indexed": true,
          "internalType": "address",
          "name": "_garden",
          "type": "address"
        },
        {
          "indexed": false,
          "internalType": "address",
          "name": "_pool",
          "type": "address"
        },
        {
          "indexed": false,
          "internalType": "uint256",
          "name": "_poolTokensIn",
          "type": "uint256"
        }
      ],
      "name": "PoolExited",
      "type": "event"
    },
    {
      "inputs": [],
      "name": "controller",
      "outputs": [
        {
          "internalType": "contract IBabController",
          "name": "",
          "type": "address"
        }
      ],
      "stateMutability": "view",
      "type": "function"
    },
    {
      "inputs": [],
      "name": "coreFactory",
      "outputs": [
        {
          "internalType": "contract IBFactory",
          "name": "",
          "type": "address"
        }
      ],
      "stateMutability": "view",
      "type": "function"
    },
    {
      "inputs": [
        {
          "internalType": "address",
          "name": "_strategy",
          "type": "address"
        },
        {
          "internalType": "bytes",
          "name": "_pool",
          "type": "bytes"
        },
        {
          "internalType": "uint256",
          "name": "_poolTokensIn",
          "type": "uint256"
        },
        {
          "internalType": "address[]",
          "name": "_tokensOut",
          "type": "address[]"
        },
        {
          "internalType": "uint256[]",
          "name": "_minAmountsOut",
          "type": "uint256[]"
        }
      ],
      "name": "exitPool",
      "outputs": [],
      "stateMutability": "nonpayable",
      "type": "function"
    },
    {
      "inputs": [
        {
          "internalType": "address",
          "name": "_pool",
          "type": "address"
        }
      ],
      "name": "getLPToken",
      "outputs": [
        {
          "internalType": "address",
          "name": "",
          "type": "address"
        }
      ],
      "stateMutability": "view",
      "type": "function"
    },
    {
      "inputs": [
        {
          "internalType": "address",
          "name": "_pool",
          "type": "address"
        }
      ],
      "name": "getPool",
      "outputs": [
        {
          "internalType": "address",
          "name": "",
          "type": "address"
        }
      ],
      "stateMutability": "view",
      "type": "function"
    },
    {
      "inputs": [
        {
          "internalType": "bytes",
          "name": "_pool",
          "type": "bytes"
        },
        {
          "internalType": "uint256",
          "name": "_liquidity",
          "type": "uint256"
        }
      ],
      "name": "getPoolMinAmountsOut",
      "outputs": [
        {
          "internalType": "uint256[]",
          "name": "_minAmountsOut",
          "type": "uint256[]"
        }
      ],
      "stateMutability": "view",
      "type": "function"
    },
    {
      "inputs": [
        {
          "internalType": "bytes",
          "name": "_pool",
          "type": "bytes"
        },
        {
          "internalType": "bool",
          "name": "",
          "type": "bool"
        }
      ],
      "name": "getPoolTokens",
      "outputs": [
        {
          "internalType": "address[]",
          "name": "",
          "type": "address[]"
        }
      ],
      "stateMutability": "view",
      "type": "function"
    },
    {
      "inputs": [
        {
          "internalType": "bytes",
          "name": "_pool",
          "type": "bytes"
        },
        {
          "internalType": "address",
          "name": "_poolToken",
          "type": "address"
        },
        {
          "internalType": "uint256",
          "name": "_maxAmountsIn",
          "type": "uint256"
        }
      ],
      "name": "getPoolTokensOut",
      "outputs": [
        {
          "internalType": "uint256",
          "name": "",
          "type": "uint256"
        }
      ],
      "stateMutability": "view",
      "type": "function"
    },
    {
      "inputs": [
        {
          "internalType": "bytes",
          "name": "_pool",
          "type": "bytes"
        }
      ],
      "name": "getPoolWeights",
      "outputs": [
        {
          "internalType": "uint256[]",
          "name": "",
          "type": "uint256[]"
        }
      ],
      "stateMutability": "view",
      "type": "function"
    },
    {
      "inputs": [
        {
          "internalType": "bytes",
          "name": "_pool",
          "type": "bytes"
        }
      ],
      "name": "getPricePerShare",
      "outputs": [
        {
          "internalType": "uint256",
          "name": "",
          "type": "uint256"
        }
      ],
      "stateMutability": "view",
      "type": "function"
    },
    {
      "inputs": [
        {
          "internalType": "bytes",
          "name": "_pool",
          "type": "bytes"
        }
      ],
      "name": "getRewardTokens",
      "outputs": [
        {
          "internalType": "address[]",
          "name": "",
          "type": "address[]"
        }
      ],
      "stateMutability": "view",
      "type": "function"
    },
    {
      "inputs": [
        {
          "internalType": "bytes",
          "name": "_pool",
          "type": "bytes"
        },
        {
          "internalType": "uint256",
          "name": "_i",
          "type": "uint256"
        }
      ],
      "name": "getUnderlyingAndRate",
      "outputs": [
        {
          "internalType": "address",
          "name": "",
          "type": "address"
        },
        {
          "internalType": "uint256",
          "name": "",
          "type": "uint256"
        }
      ],
      "stateMutability": "view",
      "type": "function"
    },
    {
      "inputs": [
        {
          "internalType": "bytes",
          "name": "_pool",
          "type": "bytes"
        }
      ],
      "name": "isPool",
      "outputs": [
        {
          "internalType": "bool",
          "name": "",
          "type": "bool"
        }
      ],
      "stateMutability": "view",
      "type": "function"
    },
    {
      "inputs": [
        {
          "internalType": "address",
          "name": "_strategy",
          "type": "address"
        },
        {
          "internalType": "bytes",
          "name": "_pool",
          "type": "bytes"
        },
        {
          "internalType": "uint256",
          "name": "_poolTokensOut",
          "type": "uint256"
        },
        {
          "internalType": "address[]",
          "name": "_tokensIn",
          "type": "address[]"
        },
        {
          "internalType": "uint256[]",
          "name": "_maxAmountsIn",
          "type": "uint256[]"
        }
      ],
      "name": "joinPool",
      "outputs": [],
      "stateMutability": "nonpayable",
      "type": "function"
    },
    {
      "inputs": [],
      "name": "name",
      "outputs": [
        {
          "internalType": "string",
          "name": "",
          "type": "string"
        }
      ],
      "stateMutability": "view",
      "type": "function"
    },
    {
      "inputs": [
        {
          "internalType": "bytes",
          "name": "",
          "type": "bytes"
        }
      ],
      "name": "poolWeightsByPrice",
      "outputs": [
        {
          "internalType": "bool",
          "name": "",
          "type": "bool"
        }
      ],
      "stateMutability": "view",
      "type": "function"
    },
    {
      "inputs": [
        {
          "internalType": "address",
          "name": "_pool",
          "type": "address"
        }
      ],
      "name": "totalSupply",
      "outputs": [
        {
          "internalType": "uint256",
          "name": "",
          "type": "uint256"
        }
      ],
      "stateMutability": "view",
      "type": "function"
    }
  ],
  "transactionHash": "0x1e18eedfa0888e05e87708c39bd482a185131e21e9e496e0e4b69e91eb63f234",
  "args": [
    "0xD4a5b5fcB561dAF3aDF86F8477555B92FBa43b5F",
    "0x9424B1412450D0f8Fc2255FAf6046b98213B76Bd"
  ],
  "numDeployments": 2,
  "solcInputHash": "1685f18bc0c8b84c8ae8326407ba769c",
  "bytecode": "0x60a06040523480156200001157600080fd5b50604051620029a1380380620029a1833981810160405260408110156200003757600080fd5b5080516020918201516040805180820190915260088152673130b630b731b2b960c11b9381019390935290918281816001600160a01b038116620000c2576040805162461bcd60e51b815260206004820152601a60248201527f436f6e74726f6c6c6572206d75737420626520646566696e6564000000000000604482015290519081900360640190fd5b8151620000d79060009060208501906200017b565b5060601b6001600160601b031916608052505060018055506001600160a01b038216158015906200011057506001600160a01b03811615155b62000154576040805162461bcd60e51b815260206004820152600f60248201526e696e76616c6964206164647265737360881b604482015290519081900360640190fd5b600280546001600160a01b0319166001600160a01b03929092169190911790555062000227565b828054600181600116156101000203166002900490600052602060002090601f016020900481019282620001b35760008555620001fe565b82601f10620001ce57805160ff1916838001178555620001fe565b82800160010185558215620001fe579182015b82811115620001fe578251825591602001919060010190620001e1565b506200020c92915062000210565b5090565b5b808211156200020c576000815560010162000211565b60805160601c6127526200024f60003980610d81528061121d5280611b8552506127526000f3fe608060405234801561001057600080fd5b506004361061011b5760003560e01c8063662952e0116100b2578063c9d5066b11610081578063e022710711610066578063e02271071461087b578063e4dc2aa4146108eb578063f77c4791146109115761011b565b8063c9d5066b1461079f578063d87517b41461080d5761011b565b8063662952e01461057e5780637a6731ab146105ec578063bbe4f6db146103c6578063bc82b61d1461070e5761011b565b80633d8df667116100ee5780633d8df667146103a25780634fc99ed6146103c657806354f070c1146103ec57806364092159146105105761011b565b806306fdde031461012057806307ec3d921461019d5780631b7e75b71461025b57806326062493146102ea575b600080fd5b610128610919565b6040805160208082528351818301528351919283929083019185019080838360005b8381101561016257818101518382015260200161014a565b50505050905090810190601f16801561018f5780820380516001836020036101000a031916815260200191505b509250505060405180910390f35b61020b600480360360208110156101b357600080fd5b810190602081018135600160201b8111156101cd57600080fd5b8201836020820111156101df57600080fd5b803590602001918460018302840111600160201b8311171561020057600080fd5b5090925090506109a7565b60408051602080825283518183015283519192839290830191858101910280838360005b8381101561024757818101518382015260200161022f565b505050509050019250505060405180910390f35b6102d86004803603606081101561027157600080fd5b810190602081018135600160201b81111561028b57600080fd5b82018360208201111561029d57600080fd5b803590602001918460018302840111600160201b831117156102be57600080fd5b91935091506001600160a01b038135169060200135610bd0565b60408051918252519081900360200190f35b61038e6004803603602081101561030057600080fd5b810190602081018135600160201b81111561031a57600080fd5b82018360208201111561032c57600080fd5b803590602001918460018302840111600160201b8311171561034d57600080fd5b91908080601f016020809104026020016040519081016040528093929190818152602001838380828437600092019190915250929550610cdf945050505050565b604080519115158252519081900360200190f35b6103aa610cea565b604080516001600160a01b039092168252519081900360200190f35b6103aa600480360360208110156103dc57600080fd5b50356001600160a01b0316610cf9565b61050e600480360360a081101561040257600080fd5b6001600160a01b038235169190810190604081016020820135600160201b81111561042c57600080fd5b82018360208201111561043e57600080fd5b803590602001918460018302840111600160201b8311171561045f57600080fd5b91939092823592604081019060200135600160201b81111561048057600080fd5b82018360208201111561049257600080fd5b803590602001918460208302840111600160201b831117156104b357600080fd5b919390929091602081019035600160201b8111156104d057600080fd5b8201836020820111156104e257600080fd5b803590602001918460208302840111600160201b8311171561050357600080fd5b509092509050610d04565b005b61038e6004803603602081101561052657600080fd5b810190602081018135600160201b81111561054057600080fd5b82018360208201111561055257600080fd5b803590602001918460018302840111600160201b8311171561057357600080fd5b509092509050611185565b6102d86004803603602081101561059457600080fd5b810190602081018135600160201b8111156105ae57600080fd5b8201836020820111156105c057600080fd5b803590602001918460018302840111600160201b831117156105e157600080fd5b50909250905061118d565b61050e600480360360a081101561060257600080fd5b6001600160a01b038235169190810190604081016020820135600160201b81111561062c57600080fd5b82018360208201111561063e57600080fd5b803590602001918460018302840111600160201b8311171561065f57600080fd5b91939092823592604081019060200135600160201b81111561068057600080fd5b82018360208201111561069257600080fd5b803590602001918460208302840111600160201b831117156106b357600080fd5b919390929091602081019035600160201b8111156106d057600080fd5b8201836020820111156106e257600080fd5b803590602001918460208302840111600160201b8311171561070357600080fd5b5090925090506111a0565b61077c6004803603604081101561072457600080fd5b810190602081018135600160201b81111561073e57600080fd5b82018360208201111561075057600080fd5b803590602001918460018302840111600160201b8311171561077157600080fd5b91935091503561174c565b604080516001600160a01b03909316835260208301919091528051918290030190f35b61020b600480360360408110156107b557600080fd5b810190602081018135600160201b8111156107cf57600080fd5b8201836020820111156107e157600080fd5b803590602001918460018302840111600160201b8311171561080257600080fd5b919350915035611766565b61020b6004803603602081101561082357600080fd5b810190602081018135600160201b81111561083d57600080fd5b82018360208201111561084f57600080fd5b803590602001918460018302840111600160201b8311171561087057600080fd5b509092509050611a3d565b61020b6004803603604081101561089157600080fd5b810190602081018135600160201b8111156108ab57600080fd5b8201836020820111156108bd57600080fd5b803590602001918460018302840111600160201b831117156108de57600080fd5b9193509150351515611a5e565b6102d86004803603602081101561090157600080fd5b50356001600160a01b0316611b78565b6103aa611b83565b6000805460408051602060026001851615610100026000190190941693909304601f8101849004840282018401909252818152929183018282801561099f5780601f106109745761010080835404028352916020019161099f565b820191906000526020600020905b81548152906001019060200180831161098257829003601f168201915b505050505081565b606060006109b58484611ba7565b90506000816001600160a01b031663cc77828d6040518163ffffffff1660e01b815260040160006040518083038186803b1580156109f257600080fd5b505afa158015610a06573d6000803e3d6000fd5b505050506040513d6000823e601f3d908101601f191682016040526020811015610a2f57600080fd5b8101908080516040519392919084600160201b821115610a4e57600080fd5b908301906020820185811115610a6357600080fd5b82518660208202830111600160201b82111715610a7f57600080fd5b82525081516020918201928201910280838360005b83811015610aac578181015183820152602001610a94565b5050505090500160405250505090506000815167ffffffffffffffff81118015610ad557600080fd5b50604051908082528060200260200182016040528015610aff578160200160208202803683370190505b50905060005b82518160ff161015610bc457836001600160a01b031663f1b8a9b7848360ff1681518110610b2f57fe5b60200260200101516040518263ffffffff1660e01b815260040180826001600160a01b0316815260200191505060206040518083038186803b158015610b7457600080fd5b505afa158015610b88573d6000803e3d6000fd5b505050506040513d6020811015610b9e57600080fd5b50518251839060ff8416908110610bb157fe5b6020908102919091010152600101610b05565b50925050505b92915050565b600080610bdd8686611ba7565b90506000816001600160a01b031663f8b2cb4f866040518263ffffffff1660e01b815260040180826001600160a01b0316815260200191505060206040518083038186803b158015610c2e57600080fd5b505afa158015610c42573d6000803e3d6000fd5b505050506040513d6020811015610c5857600080fd5b50519050610cd4610c698583611bcb565b836001600160a01b03166318160ddd6040518163ffffffff1660e01b815260040160206040518083038186803b158015610ca257600080fd5b505afa158015610cb6573d6000803e3d6000fd5b505050506040513d6020811015610ccc57600080fd5b505190611be3565b979650505050505050565b6000610bca82611bfb565b6002546001600160a01b031681565b6000610bca82611ca4565b60026001541415610d5c576040805162461bcd60e51b815260206004820152601f60248201527f5265656e7472616e637947756172643a207265656e7472616e742063616c6c00604482015290519081900360640190fd5b6002600155604080516313bc6d4b60e01b815233600482015290516001600160a01b037f000000000000000000000000000000000000000000000000000000000000000016916313bc6d4b916024808301926020929190829003018186803b158015610dc757600080fd5b505afa158015610ddb573d6000803e3d6000fd5b505050506040513d6020811015610df157600080fd5b5051610e44576040805162461bcd60e51b815260206004820152601960248201527f4f6e6c792073797374656d2063616e2063616c6c207468697300000000000000604482015290519081900360640190fd5b6000610e508888611ba7565b90506000610e648a8a8a8a8a8a8a8a611ca7565b9050610e6f81611e8b565b80602001516001600160a01b03166397ccdc60610e8e8b8b6001611f76565b83606001518a6040518463ffffffff1660e01b815260040180846001600160a01b03168152602001836001600160a01b031681526020018281526020019350505050600060405180830381600087803b158015610eea57600080fd5b505af1158015610efe573d6000803e3d6000fd5b505050506000806000610f4e8d8d8d8080601f0160208091040260200160405190810160405280939291908181526020018383808284376000920191909152508f92508e91508d90508c8c611f8c565b92509250925083602001516001600160a01b0316636bc195dd8484846040518463ffffffff1660e01b815260040180846001600160a01b0316815260200183815260200180602001828103825283818151815260200191508051906020019080838360005b83811015610fcb578181015183820152602001610fb3565b50505050905090810190601f168015610ff85780820380516001836020036101000a031916815260200191505b50945050505050600060405180830381600087803b15801561101957600080fd5b505af115801561102d573d6000803e3d6000fd5b505050506040513d6000823e601f3d908101601f19168201604052602081101561105657600080fd5b8101908080516040519392919084600160201b82111561107557600080fd5b90830190602082018581111561108a57600080fd5b8251600160201b8111828201881017156110a357600080fd5b82525081516020918201929091019080838360005b838110156110d05781810151838201526020016110b8565b50505050905090810190601f1680156110fd5780820380516001836020036101000a031916815260200191505b506040525050505061110e84612102565b83600001516001600160a01b031684602001516001600160a01b03167f7659e40cf608296ce5aa9eff9c80adc7a49cb481173fc4e302e3983827b042df878d60405180836001600160a01b031681526020018281526020019250505060405180910390a35050600180555050505050505050505050565b600092915050565b60006111998383611185565b9392505050565b600260015414156111f8576040805162461bcd60e51b815260206004820152601f60248201527f5265656e7472616e637947756172643a207265656e7472616e742063616c6c00604482015290519081900360640190fd5b6002600155604080516313bc6d4b60e01b815233600482015290516001600160a01b037f000000000000000000000000000000000000000000000000000000000000000016916313bc6d4b916024808301926020929190829003018186803b15801561126357600080fd5b505afa158015611277573d6000803e3d6000fd5b505050506040513d602081101561128d57600080fd5b50516112e0576040805162461bcd60e51b815260206004820152601960248201527f4f6e6c792073797374656d2063616e2063616c6c207468697300000000000000604482015290519081900360640190fd5b60006112f28989898989898989611ca7565b90506112fd816121ca565b60006113098989611ba7565b905060005b8581101561146b57600087878381811061132457fe5b905060200201356001600160a01b03166001600160a01b031614158015611383575073eeeeeeeeeeeeeeeeeeeeeeeeeeeeeeeeeeeeeeee87878381811061136757fe5b905060200201356001600160a01b03166001600160a01b031614155b80156113a15750600085858381811061139857fe5b90506020020135115b156114635782602001516001600160a01b03166397ccdc606113c58c8c6000611f76565b8989858181106113d157fe5b905060200201356001600160a01b03168888868181106113ed57fe5b905060200201356040518463ffffffff1660e01b815260040180846001600160a01b03168152602001836001600160a01b031681526020018281526020019350505050600060405180830381600087803b15801561144a57600080fd5b505af115801561145e573d6000803e3d6000fd5b505050505b60010161130e565b5060008060006114818d8d8d8d8d8d8d8d61226b565b92509250925084602001516001600160a01b0316636bc195dd8484846040518463ffffffff1660e01b815260040180846001600160a01b0316815260200183815260200180602001828103825283818151815260200191508051906020019080838360005b838110156114fe5781810151838201526020016114e6565b50505050905090810190601f16801561152b5780820380516001836020036101000a031916815260200191505b50945050505050600060405180830381600087803b15801561154c57600080fd5b505af1158015611560573d6000803e3d6000fd5b505050506040513d6000823e601f3d908101601f19168201604052602081101561158957600080fd5b8101908080516040519392919084600160201b8211156115a857600080fd5b9083019060208201858111156115bd57600080fd5b8251600160201b8111828201881017156115d657600080fd5b82525081516020918201929091019080838360005b838110156116035781810151838201526020016115eb565b50505050905090810190601f1680156116305780820380516001836020036101000a031916815260200191505b50604052505050506116c78560c0015186606001516001600160a01b03166370a0823188602001516040518263ffffffff1660e01b815260040180826001600160a01b0316815260200191505060206040518083038186803b15801561169557600080fd5b505afa1580156116a9573d6000803e3d6000fd5b505050506040513d60208110156116bf57600080fd5b505190612337565b60a08601526116d585612347565b84600001516001600160a01b031685602001516001600160a01b03167fe5ca6288535c5c6c2462c912b4033eade15b80926717896a2d58a2defdeb9128868d60405180836001600160a01b031681526020018281526020019250505060405180910390a35050600180555050505050505050505050565b60008061175a858585612409565b91509150935093915050565b606060006117748585611ba7565b90506000816001600160a01b03166318160ddd6040518163ffffffff1660e01b815260040160206040518083038186803b1580156117b157600080fd5b505afa1580156117c5573d6000803e3d6000fd5b505050506040513d60208110156117db57600080fd5b5051604080517fcc77828d00000000000000000000000000000000000000000000000000000000815290519192506000916001600160a01b0385169163cc77828d9160048083019286929190829003018186803b15801561183b57600080fd5b505afa15801561184f573d6000803e3d6000fd5b505050506040513d6000823e601f3d908101601f19168201604052602081101561187857600080fd5b8101908080516040519392919084600160201b82111561189757600080fd5b9083019060208201858111156118ac57600080fd5b82518660208202830111600160201b821117156118c857600080fd5b82525081516020918201928201910280838360005b838110156118f55781810151838201526020016118dd565b5050505090500160405250505090506000815167ffffffffffffffff8111801561191e57600080fd5b50604051908082528060200260200182016040528015611948578160200160208202803683370190505b50905060005b8251811015611a3157611a1266b1a2bc2ec50000670de0b6b3a764000003611a0c86611a068b88878151811061198057fe5b60200260200101516001600160a01b03166370a082318c6040518263ffffffff1660e01b815260040180826001600160a01b0316815260200191505060206040518083038186803b1580156119d457600080fd5b505afa1580156119e8573d6000803e3d6000fd5b505050506040513d60208110156119fe57600080fd5b505190612440565b90612464565b90611be3565b828281518110611a1e57fe5b602090810291909101015260010161194e565b50979650505050505050565b60606000611a4b8484611ba7565b9050611a56816124cb565b949350505050565b60606000611a6c8585611ba7565b9050806001600160a01b031663cc77828d6040518163ffffffff1660e01b815260040160006040518083038186803b158015611aa757600080fd5b505afa158015611abb573d6000803e3d6000fd5b505050506040513d6000823e601f3d908101601f191682016040526020811015611ae457600080fd5b8101908080516040519392919084600160201b821115611b0357600080fd5b908301906020820185811115611b1857600080fd5b82518660208202830111600160201b82111715611b3457600080fd5b82525081516020918201928201910280838360005b83811015611b61578181015183820152602001611b49565b505050509050016040525050509150509392505050565b6000610bca826124f1565b7f000000000000000000000000000000000000000000000000000000000000000081565b600082826020811015611bb957600080fd5b50356001600160a01b03169392505050565b600061119982611a0685670de0b6b3a7640000612440565b6000611199670de0b6b3a7640000611a068585612440565b600080611c0983600c61255e565b600254604080517fc2bb6dc20000000000000000000000000000000000000000000000000000000081526001600160a01b038085166004830152915193945091169163c2bb6dc291602480820192602092909190829003018186803b158015611c7157600080fd5b505afa158015611c85573d6000803e3d6000fd5b505050506040513d6020811015611c9b57600080fd5b50519392505050565b90565b611caf6125d9565b6000611cbb8989611ba7565b9050611cc56125d9565b611cce82611ca4565b6001600160a01b0390811660608301528b166020808301829052604080517f56ba88b800000000000000000000000000000000000000000000000000000000815290516356ba88b892600480840193919291829003018186803b158015611d3457600080fd5b505afa158015611d48573d6000803e3d6000fd5b505050506040513d6020811015611d5e57600080fd5b50516001600160a01b03168152604080516020601f8c018190048102820181019092528a8152908b908b9081908401838280828437600092019190915250505050604080830191909152606082015181517f70a082310000000000000000000000000000000000000000000000000000000081526001600160a01b038e81166004830152925192909116916370a0823191602480820192602092909190829003018186803b158015611e0f57600080fd5b505afa158015611e23573d6000803e3d6000fd5b505050506040513d6020811015611e3957600080fd5b505160c082015260a081018890526040805160208681028281018201909352868252909187918791829185019084908082843760009201919091525050505060e08201529a9950505050505050505050565b611e988160400151611bfb565b611ee9576040805162461bcd60e51b815260206004820152601d60248201527f54686520706f6f6c2061646472657373206973206e6f742076616c6964000000604482015290519081900360640190fd5b60008160a0015111611f2c5760405162461bcd60e51b815260040180806020018281038252602e81526020018061266b602e913960400191505060405180910390fd5b8060a001518160c001511015611f735760405162461bcd60e51b815260040180806020018281038252602d8152602001806126c5602d913960400191505060405180910390fd5b50565b600080611f838585611ba7565b95945050505050565b60008060606000611f9e8a600c61255e565b905060008911611ff5576040805162461bcd60e51b815260206004820152601a60248201527f5f706f6f6c546f6b656e73496e2068617320746f206e6f742030000000000000604482015290519081900360640190fd5b6001851161204a576040805162461bcd60e51b815260206004820152601d60248201527f48617320746f2070726f76696465205f6d696e416d6f756e74734f7574000000604482015290519081900360640190fd5b600089878760405160240180848152602001806020018281038252848482818152602001925060200280828437600083820181905260408051601f909301601f199081169095018381039095018352939093526020810180517bffffffffffffffffffffffffffffffffffffffffffffffffffffffff167fb02f0b7300000000000000000000000000000000000000000000000000000000179052989b50909950969750505050505050509750975097945050505050565b8060a001518160c001510381606001516001600160a01b03166370a0823183602001516040518263ffffffff1660e01b815260040180826001600160a01b0316815260200191505060206040518083038186803b15801561216257600080fd5b505afa158015612176573d6000803e3d6000fd5b505050506040513d602081101561218c57600080fd5b505114611f735760405162461bcd60e51b815260040180806020018281038252602b8152602001806126f2602b913960400191505060405180910390fd5b6121d78160400151611bfb565b612228576040805162461bcd60e51b815260206004820152601d60248201527f54686520706f6f6c2061646472657373206973206e6f742076616c6964000000604482015290519081900360640190fd5b60008160a0015111611f735760405162461bcd60e51b815260040180806020018281038252603181526020018061263a6031913960400191505060405180910390fd5b6000806060600061227c8b8b611ba7565b9050600089878760405160240180848152602001806020018281038252848482818152602001925060200280828437600083820181905260408051601f909301601f199081169095018381039095018352939093526020810180517bffffffffffffffffffffffffffffffffffffffffffffffffffffffff167f4f69c0d400000000000000000000000000000000000000000000000000000000179052989b5090995096975050505050505050985098509895505050505050565b80820382811115610bca57600080fd5b8060c0015181606001516001600160a01b03166370a0823183602001516040518263ffffffff1660e01b815260040180826001600160a01b0316815260200191505060206040518083038186803b1580156123a157600080fd5b505afa1580156123b5573d6000803e3d6000fd5b505050506040513d60208110156123cb57600080fd5b505111611f735760405162461bcd60e51b815260040180806020018281038252602c815260200180612699602c913960400191505060405180910390fd5b60008061241885856000611a5e565b838151811061242357fe5b6020026020010151670de0b6b3a764000091509150935093915050565b600082158061245b5750508181028183828161245857fe5b04145b610bca57600080fd5b60008082116124ba576040805162461bcd60e51b815260206004820152601a60248201527f536166654d6174683a206469766973696f6e206279207a65726f000000000000604482015290519081900360640190fd5b8183816124c357fe5b049392505050565b604080516001808252818301909252606091602080830190803683370190505092915050565b6000816001600160a01b03166318160ddd6040518163ffffffff1660e01b815260040160206040518083038186803b15801561252c57600080fd5b505afa158015612540573d6000803e3d6000fd5b505050506040513d602081101561255657600080fd5b505192915050565b60006111998383600081601401835110156125c0576040805162461bcd60e51b815260206004820152601560248201527f746f416464726573735f6f75744f66426f756e64730000000000000000000000604482015290519081900360640190fd5b5001602001516c01000000000000000000000000900490565b60405180610100016040528060006001600160a01b0316815260200160006001600160a01b031681526020016060815260200160006001600160a01b0316815260200160008152602001600081526020016000815260200160608152509056fe4d696e20706f6f6c20746f6b656e7320746f2072656365697665206d7573742062652067726561746572207468616e2030506f6f6c20746f6b656e7320746f2065786368616e6765206d7573742062652067726561746572207468616e203054686520737472617465677920646964206e6f7420726563656976652074686520706f6f6c20746f6b656e7354686520737472617465677920646f6573206e6f74206861766520656e6f75676820706f6f6c20746f6b656e7354686520737472617465677920646964206e6f742072657475726e2074686520706f6f6c20746f6b656e73a26469706673582212203659415f91745aae59b3f5d5ea1dc28842e551eddb85eef2db80e4bd3c5f803b64736f6c63430007060033",
  "devdoc": {
    "author": "Babylon Finance Protocol Balancer protocol trade integration",
    "kind": "dev",
    "methods": {
      "constructor": {
        "params": {
          "_controller": "Address of the controller",
          "_coreFactoryAddress": "Address of Balancer core factory address"
        }
      },
      "exitPool(address,bytes,uint256,address[],uint256[])": {
        "params": {
          "_minAmountsOut": "Array of min token quantities to receive from the pool",
          "_pool": "Pool info e.g. PoolId or Address of the pool token to join + metadata",
          "_poolTokensIn": "Pool tokens to exchange for the underlying tokens",
          "_strategy": "Address of the strategy",
          "_tokensOut": "Array of token addresses to withdraw"
        }
      },
      "getLPToken(address)": {
        "params": {
          "_pool": "Address of the pool"
        },
        "returns": {
          "_0": "address                 Address of the LP token"
        }
      },
      "getPool(address)": {
        "params": {
          "_pool": "Address of the maybe pool"
        },
        "returns": {
          "_0": "address                 Address of the pool itself"
        }
      },
      "getUnderlyingAndRate(bytes,uint256)": {
        "params": {
          "_i": "Index of coin in the pool",
          "_pool": "Address of the pool"
        },
        "returns": {
          "_0": "address                 Underlying coin",
          "_1": "uint256                 Rate from coin to underlying"
        }
      },
      "isPool(bytes)": {
        "params": {
          "_pool": "OpData e.g. Pool address to check"
        },
        "returns": {
          "_0": "bool                 True if the address is a pool"
        }
      },
      "joinPool(address,bytes,uint256,address[],uint256[])": {
        "params": {
          "_maxAmountsIn": "Array of max token quantities to pull out from the garden",
          "_pool": "OpData e.g. Address of the pool token to join",
          "_poolTokensOut": "Min amount of pool tokens to receive",
          "_strategy": "Address of the strategy",
          "_tokensIn": "Array of token addresses to deposit"
        }
      },
      "totalSupply(address)": {
        "params": {
          "_pool": "Address of the pool"
        },
        "returns": {
          "_0": "address                 Total supply of the token"
        }
      }
    },
    "title": "BalancerIntegration",
    "version": 1
  },
  "userdoc": {
    "kind": "user",
    "methods": {
      "constructor": {
        "notice": "Creates the integration"
      },
      "exitPool(address,bytes,uint256,address[],uint256[])": {
        "notice": "Exits a liquidity pool. Accrue protocol fee (if any)"
      },
      "getLPToken(address)": {
        "notice": "Returns the actual address of the LP token. Different for curve."
      },
      "getPool(address)": {
        "notice": "Gets the underlying pool that holds the internal tokens. Different for curve."
      },
      "getUnderlyingAndRate(bytes,uint256)": {
        "notice": "Returns the underlying coin"
      },
      "isPool(bytes)": {
        "notice": "Checks whether a pool address is valid"
      },
      "joinPool(address,bytes,uint256,address[],uint256[])": {
        "notice": "Joins a pool"
      },
      "totalSupply(address)": {
        "notice": "Returns the total supply of the pool tokens"
      }
    },
    "version": 1
  },
  "storageLayout": {
    "storage": [
      {
        "astId": 26747,
        "contract": "contracts/integrations/pool/BalancerIntegration.sol:BalancerIntegration",
        "label": "name",
        "offset": 0,
        "slot": "0",
        "type": "t_string_storage"
      },
      {
        "astId": 6418,
        "contract": "contracts/integrations/pool/BalancerIntegration.sol:BalancerIntegration",
        "label": "_status",
        "offset": 0,
        "slot": "1",
        "type": "t_uint256"
      },
      {
        "astId": 33455,
        "contract": "contracts/integrations/pool/BalancerIntegration.sol:BalancerIntegration",
        "label": "coreFactory",
        "offset": 0,
        "slot": "2",
        "type": "t_contract(IBFactory)45960"
      }
    ],
    "types": {
      "t_contract(IBFactory)45960": {
        "encoding": "inplace",
        "label": "contract IBFactory",
        "numberOfBytes": "20"
      },
      "t_string_storage": {
        "encoding": "bytes",
        "label": "string",
        "numberOfBytes": "32"
      },
      "t_uint256": {
        "encoding": "inplace",
        "label": "uint256",
        "numberOfBytes": "32"
      }
    }
  }
}