{
  "address": "0x6aA8fcf1f54edec27019C9363F05F80881Fd5342",
  "abi": [
    {
      "inputs": [
        {
          "internalType": "address",
          "name": "_controller",
          "type": "address"
        },
        {
          "internalType": "address",
          "name": "_weth",
          "type": "address"
        },
        {
          "internalType": "address",
          "name": "_coreFactoryAddress",
          "type": "address"
        }
      ],
      "stateMutability": "nonpayable",
      "type": "constructor"
    },
    {
      "anonymous": false,
      "inputs": [
        {
          "indexed": true,
          "internalType": "address",
          "name": "_strategy",
          "type": "address"
        },
        {
          "indexed": true,
          "internalType": "address",
          "name": "_garden",
          "type": "address"
        },
        {
          "indexed": false,
          "internalType": "address",
          "name": "_pool",
          "type": "address"
        },
        {
          "indexed": false,
          "internalType": "uint256",
          "name": "_poolTokensOut",
          "type": "uint256"
        }
      ],
      "name": "PoolEntered",
      "type": "event"
    },
    {
      "anonymous": false,
      "inputs": [
        {
          "indexed": true,
          "internalType": "address",
          "name": "_strategy",
          "type": "address"
        },
        {
          "indexed": true,
          "internalType": "address",
          "name": "_garden",
          "type": "address"
        },
        {
          "indexed": false,
          "internalType": "address",
          "name": "_pool",
          "type": "address"
        },
        {
          "indexed": false,
          "internalType": "uint256",
          "name": "_poolTokensIn",
          "type": "uint256"
        }
      ],
      "name": "PoolExited",
      "type": "event"
    },
    {
      "inputs": [],
      "name": "controller",
      "outputs": [
        {
          "internalType": "address",
          "name": "",
          "type": "address"
        }
      ],
      "stateMutability": "view",
      "type": "function"
    },
    {
      "inputs": [],
      "name": "coreFactory",
      "outputs": [
        {
          "internalType": "contract IBFactory",
          "name": "",
          "type": "address"
        }
      ],
      "stateMutability": "view",
      "type": "function"
    },
    {
      "inputs": [
        {
          "internalType": "address",
          "name": "_strategy",
          "type": "address"
        },
        {
          "internalType": "address",
          "name": "_poolAddress",
          "type": "address"
        },
        {
          "internalType": "uint256",
          "name": "_poolTokensIn",
          "type": "uint256"
        },
        {
          "internalType": "address[]",
          "name": "_tokensOut",
          "type": "address[]"
        },
        {
          "internalType": "uint256[]",
          "name": "_minAmountsOut",
          "type": "uint256[]"
        }
      ],
      "name": "exitPool",
      "outputs": [],
      "stateMutability": "nonpayable",
      "type": "function"
    },
    {
      "inputs": [],
      "name": "getName",
      "outputs": [
        {
          "internalType": "string",
          "name": "",
          "type": "string"
        }
      ],
      "stateMutability": "view",
      "type": "function"
    },
    {
      "inputs": [
        {
          "internalType": "address",
          "name": "_poolAddress",
          "type": "address"
        },
        {
          "internalType": "uint256",
          "name": "_liquidity",
          "type": "uint256"
        }
      ],
      "name": "getPoolMinAmountsOut",
      "outputs": [
        {
          "internalType": "uint256[]",
          "name": "_minAmountsOut",
          "type": "uint256[]"
        }
      ],
      "stateMutability": "view",
      "type": "function"
    },
    {
      "inputs": [
        {
          "internalType": "address",
          "name": "_poolAddress",
          "type": "address"
        }
      ],
      "name": "getPoolTokens",
      "outputs": [
        {
          "internalType": "address[]",
          "name": "",
          "type": "address[]"
        }
      ],
      "stateMutability": "view",
      "type": "function"
    },
    {
      "inputs": [
        {
          "internalType": "address",
          "name": "_poolAddress",
          "type": "address"
        },
        {
          "internalType": "address",
          "name": "_poolToken",
          "type": "address"
        },
        {
          "internalType": "uint256",
          "name": "_maxAmountsIn",
          "type": "uint256"
        }
      ],
      "name": "getPoolTokensOut",
      "outputs": [
        {
          "internalType": "uint256",
          "name": "",
          "type": "uint256"
        }
      ],
      "stateMutability": "view",
      "type": "function"
    },
    {
      "inputs": [
        {
          "internalType": "address",
          "name": "_poolAddress",
          "type": "address"
        }
      ],
      "name": "getPoolWeights",
      "outputs": [
        {
          "internalType": "uint256[]",
          "name": "",
          "type": "uint256[]"
        }
      ],
      "stateMutability": "view",
      "type": "function"
    },
    {
      "inputs": [
        {
          "internalType": "address",
          "name": "",
          "type": "address"
        }
      ],
      "name": "initializedByGarden",
      "outputs": [
        {
          "internalType": "bool",
          "name": "",
          "type": "bool"
        }
      ],
      "stateMutability": "view",
      "type": "function"
    },
    {
      "inputs": [
        {
          "internalType": "address",
          "name": "_poolAddress",
          "type": "address"
        }
      ],
      "name": "isPool",
      "outputs": [
        {
          "internalType": "bool",
          "name": "",
          "type": "bool"
        }
      ],
      "stateMutability": "view",
      "type": "function"
    },
    {
      "inputs": [
        {
          "internalType": "address",
          "name": "_strategy",
          "type": "address"
        },
        {
          "internalType": "address",
          "name": "_poolAddress",
          "type": "address"
        },
        {
          "internalType": "uint256",
          "name": "_poolTokensOut",
          "type": "uint256"
        },
        {
          "internalType": "address[]",
          "name": "_tokensIn",
          "type": "address[]"
        },
        {
          "internalType": "uint256[]",
          "name": "_maxAmountsIn",
          "type": "uint256[]"
        }
      ],
      "name": "joinPool",
      "outputs": [],
      "stateMutability": "nonpayable",
      "type": "function"
    },
    {
      "inputs": [],
      "name": "name",
      "outputs": [
        {
          "internalType": "string",
          "name": "",
          "type": "string"
        }
      ],
      "stateMutability": "view",
      "type": "function"
    },
    {
      "inputs": [],
      "name": "weth",
      "outputs": [
        {
          "internalType": "address",
          "name": "",
          "type": "address"
        }
      ],
      "stateMutability": "view",
      "type": "function"
    }
  ],
  "transactionHash": "0x6c81387ad1a88f416e59f298acca28dcca88f1ec6c1957e669c853b105e445fa",
  "args": [
    "0xD4a5b5fcB561dAF3aDF86F8477555B92FBa43b5F",
    "0xC02aaA39b223FE8D0A0e5C4F27eAD9083C756Cc2",
    "0x9424B1412450D0f8Fc2255FAf6046b98213B76Bd"
  ],
  "solcInputHash": "bd873b418320faeabd457a4fe7c7c19d",
  "bytecode": "0x60a06040523480156200001157600080fd5b506040516200234438038062002344833981810160405260608110156200003757600080fd5b508051602080830151604093840151845180860190955260088552673130b630b731b2b960c11b92850192909252919282848282826001600160a01b038116620000c8576040805162461bcd60e51b815260206004820152601a60248201527f436f6e74726f6c6c6572206d75737420626520646566696e6564000000000000604482015290519081900360640190fd5b8251620000dd90600190602086019062000132565b50600080546001600160a01b03199081166001600160a01b039384161790915560609290921b6001600160601b03191660805260016003556004805490921696169590951790945550620001de945050505050565b828054600181600116156101000203166002900490600052602060002090601f0160209004810192826200016a5760008555620001b5565b82601f106200018557805160ff1916838001178555620001b5565b82800160010185558215620001b5579182015b82811115620001b557825182559160200191906001019062000198565b50620001c3929150620001c7565b5090565b5b80821115620001c35760008155600101620001c8565b60805160601c612148620001fc6000398061070552506121486000f3fe608060405234801561001057600080fd5b50600436106100df5760003560e01c806362cc395a1161008c578063bd9d8ad911610066578063bd9d8ad914610403578063ca4f280314610479578063f5e393251461049f578063f77c4791146104cb576100df565b806362cc395a14610217578063708a3476146102fb578063b10198fb146103dd576100df565b80633d8df667116100bd5780633d8df667146101b15780633fc8cef3146101d55780635b16ebb7146101dd576100df565b806306fdde03146100e457806317d7de7c146101615780633cd5bd9514610169575b600080fd5b6100ec6104d3565b6040805160208082528351818301528351919283929083019185019080838360005b8381101561012657818101518382015260200161010e565b50505050905090810190601f1680156101535780820380516001836020036101000a031916815260200191505b509250505060405180910390f35b6100ec610560565b61019f6004803603606081101561017f57600080fd5b506001600160a01b038135811691602081013590911690604001356105f5565b60408051918252519081900360200190f35b6101b96106f4565b604080516001600160a01b039092168252519081900360200190f35b6101b9610703565b610203600480360360208110156101f357600080fd5b50356001600160a01b0316610727565b604080519115158252519081900360200190f35b6102f9600480360360a081101561022d57600080fd5b6001600160a01b0382358116926020810135909116916040820135919081019060808101606082013564010000000081111561026857600080fd5b82018360208201111561027a57600080fd5b8035906020019184602083028401116401000000008311171561029c57600080fd5b9193909290916020810190356401000000008111156102ba57600080fd5b8201836020820111156102cc57600080fd5b803590602001918460208302840111640100000000831117156102ee57600080fd5b509092509050610738565b005b6102f9600480360360a081101561031157600080fd5b6001600160a01b0382358116926020810135909116916040820135919081019060808101606082013564010000000081111561034c57600080fd5b82018360208201111561035e57600080fd5b8035906020019184602083028401116401000000008311171561038057600080fd5b91939092909160208101903564010000000081111561039e57600080fd5b8201836020820111156103b057600080fd5b803590602001918460208302840111640100000000831117156103d257600080fd5b509092509050610b55565b610203600480360360208110156103f357600080fd5b50356001600160a01b0316611074565b6104296004803603602081101561041957600080fd5b50356001600160a01b0316611089565b60408051602080825283518183015283519192839290830191858101910280838360005b8381101561046557818101518382015260200161044d565b505050509050019250505060405180910390f35b6104296004803603602081101561048f57600080fd5b50356001600160a01b03166112a2565b610429600480360360408110156104b557600080fd5b506001600160a01b0381351690602001356113ad565b6101b9611676565b60018054604080516020600284861615610100026000190190941693909304601f810184900484028201840190925281815292918301828280156105585780601f1061052d57610100808354040283529160200191610558565b820191906000526020600020905b81548152906001019060200180831161053b57829003601f168201915b505050505081565b60018054604080516020601f600260001961010087891615020190951694909404938401819004810282018101909252828152606093909290918301828280156105eb5780601f106105c0576101008083540402835291602001916105eb565b820191906000526020600020905b8154815290600101906020018083116105ce57829003601f168201915b5050505050905090565b600080846001600160a01b031663f8b2cb4f856040518263ffffffff1660e01b815260040180826001600160a01b0316815260200191505060206040518083038186803b15801561064557600080fd5b505afa158015610659573d6000803e3d6000fd5b505050506040513d602081101561066f57600080fd5b505190506106eb6106808483611685565b866001600160a01b03166318160ddd6040518163ffffffff1660e01b815260040160206040518083038186803b1580156106b957600080fd5b505afa1580156106cd573d6000803e3d6000fd5b505050506040513d60208110156106e357600080fd5b5051906116a4565b95945050505050565b6004546001600160a01b031681565b7f000000000000000000000000000000000000000000000000000000000000000081565b6000610732826116bc565b92915050565b60026003541415610790576040805162461bcd60e51b815260206004820152601f60248201527f5265656e7472616e637947756172643a207265656e7472616e742063616c6c00604482015290519081900360640190fd5b6002600355600054604080516313bc6d4b60e01b815233600482015290516001600160a01b03909216916313bc6d4b91602480820192602092909190829003018186803b1580156107e057600080fd5b505afa1580156107f4573d6000803e3d6000fd5b505050506040513d602081101561080a57600080fd5b505161085d576040805162461bcd60e51b815260206004820152601960248201527f4f6e6c792073797374656d2063616e2063616c6c207468697300000000000000604482015290519081900360640190fd5b600061086e88888888888888611752565b90506108798161195e565b80602001516001600160a01b03166397ccdc6061089589611a49565b89896040518463ffffffff1660e01b815260040180846001600160a01b03168152602001836001600160a01b031681526020018281526020019350505050600060405180830381600087803b1580156108ed57600080fd5b505af1158015610901573d6000803e3d6000fd5b5050505060008060006109198b8b8b8b8b8b8b611a4c565b92509250925083602001516001600160a01b0316636bc195dd8484846040518463ffffffff1660e01b815260040180846001600160a01b0316815260200183815260200180602001828103825283818151815260200191508051906020019080838360005b8381101561099657818101518382015260200161097e565b50505050905090810190601f1680156109c35780820380516001836020036101000a031916815260200191505b50945050505050600060405180830381600087803b1580156109e457600080fd5b505af11580156109f8573d6000803e3d6000fd5b505050506040513d6000823e601f3d908101601f191682016040526020811015610a2157600080fd5b8101908080516040519392919084640100000000821115610a4157600080fd5b908301906020820185811115610a5657600080fd5b8251640100000000811182820188101715610a7057600080fd5b82525081516020918201929091019080838360005b83811015610a9d578181015183820152602001610a85565b50505050905090810190601f168015610aca5780820380516001836020036101000a031916815260200191505b5060405250505050610adb84611bb2565b83600001516001600160a01b031684602001516001600160a01b03167f7659e40cf608296ce5aa9eff9c80adc7a49cb481173fc4e302e3983827b042df86604001518c60405180836001600160a01b031681526020018281526020019250505060405180910390a350506001600355505050505050505050565b60026003541415610bad576040805162461bcd60e51b815260206004820152601f60248201527f5265656e7472616e637947756172643a207265656e7472616e742063616c6c00604482015290519081900360640190fd5b6002600355600054604080516313bc6d4b60e01b815233600482015290516001600160a01b03909216916313bc6d4b91602480820192602092909190829003018186803b158015610bfd57600080fd5b505afa158015610c11573d6000803e3d6000fd5b505050506040513d6020811015610c2757600080fd5b5051610c7a576040805162461bcd60e51b815260206004820152601960248201527f4f6e6c792073797374656d2063616e2063616c6c207468697300000000000000604482015290519081900360640190fd5b6000610c8b88888888888888611752565b9050610c9681611c7a565b60005b84811015610d8f576000868683818110610caf57fe5b905060200201356001600160a01b03166001600160a01b031614610d875781602001516001600160a01b03166397ccdc60610ce98a611a49565b888885818110610cf557fe5b905060200201356001600160a01b0316878786818110610d1157fe5b905060200201356040518463ffffffff1660e01b815260040180846001600160a01b03168152602001836001600160a01b031681526020018281526020019350505050600060405180830381600087803b158015610d6e57600080fd5b505af1158015610d82573d6000803e3d6000fd5b505050505b600101610c99565b506000806000610da48b8b8b8b8b8b8b611d1b565b92509250925083602001516001600160a01b0316636bc195dd8484846040518463ffffffff1660e01b815260040180846001600160a01b0316815260200183815260200180602001828103825283818151815260200191508051906020019080838360005b83811015610e21578181015183820152602001610e09565b50505050905090810190601f168015610e4e5780820380516001836020036101000a031916815260200191505b50945050505050600060405180830381600087803b158015610e6f57600080fd5b505af1158015610e83573d6000803e3d6000fd5b505050506040513d6000823e601f3d908101601f191682016040526020811015610eac57600080fd5b8101908080516040519392919084640100000000821115610ecc57600080fd5b908301906020820185811115610ee157600080fd5b8251640100000000811182820188101715610efb57600080fd5b82525081516020918201929091019080838360005b83811015610f28578181015183820152602001610f10565b50505050905090810190601f168015610f555780820380516001836020036101000a031916815260200191505b5060405250505050610fec8460a0015185604001516001600160a01b03166370a0823187602001516040518263ffffffff1660e01b815260040180826001600160a01b0316815260200191505060206040518083038186803b158015610fba57600080fd5b505afa158015610fce573d6000803e3d6000fd5b505050506040513d6020811015610fe457600080fd5b505190611dd7565b6080850152610ffa84611e34565b83600001516001600160a01b031684602001516001600160a01b03167fe5ca6288535c5c6c2462c912b4033eade15b80926717896a2d58a2defdeb912886604001518c60405180836001600160a01b031681526020018281526020019250505060405180910390a350506001600355505050505050505050565b60026020526000908152604090205460ff1681565b60606000826001600160a01b031663cc77828d6040518163ffffffff1660e01b815260040160006040518083038186803b1580156110c657600080fd5b505afa1580156110da573d6000803e3d6000fd5b505050506040513d6000823e601f3d908101601f19168201604052602081101561110357600080fd5b810190808051604051939291908464010000000082111561112357600080fd5b90830190602082018581111561113857600080fd5b825186602082028301116401000000008211171561115557600080fd5b82525081516020918201928201910280838360005b8381101561118257818101518382015260200161116a565b5050505090500160405250505090506000815167ffffffffffffffff811180156111ab57600080fd5b506040519080825280602002602001820160405280156111d5578160200160208202803683370190505b50905060005b82518160ff16101561129a57846001600160a01b031663f1b8a9b7848360ff168151811061120557fe5b60200260200101516040518263ffffffff1660e01b815260040180826001600160a01b0316815260200191505060206040518083038186803b15801561124a57600080fd5b505afa15801561125e573d6000803e3d6000fd5b505050506040513d602081101561127457600080fd5b50518251839060ff841690811061128757fe5b60209081029190910101526001016111db565b509392505050565b6060816001600160a01b031663cc77828d6040518163ffffffff1660e01b815260040160006040518083038186803b1580156112dd57600080fd5b505afa1580156112f1573d6000803e3d6000fd5b505050506040513d6000823e601f3d908101601f19168201604052602081101561131a57600080fd5b810190808051604051939291908464010000000082111561133a57600080fd5b90830190602082018581111561134f57600080fd5b825186602082028301116401000000008211171561136c57600080fd5b82525081516020918201928201910280838360005b83811015611399578181015183820152602001611381565b505050509050016040525050509050919050565b60606000836001600160a01b03166318160ddd6040518163ffffffff1660e01b815260040160206040518083038186803b1580156113ea57600080fd5b505afa1580156113fe573d6000803e3d6000fd5b505050506040513d602081101561141457600080fd5b5051604080517fcc77828d00000000000000000000000000000000000000000000000000000000815290519192506000916001600160a01b0387169163cc77828d9160048083019286929190829003018186803b15801561147457600080fd5b505afa158015611488573d6000803e3d6000fd5b505050506040513d6000823e601f3d908101601f1916820160405260208110156114b157600080fd5b81019080805160405193929190846401000000008211156114d157600080fd5b9083019060208201858111156114e657600080fd5b825186602082028301116401000000008211171561150357600080fd5b82525081516020918201928201910280838360005b83811015611530578181015183820152602001611518565b5050505090500160405250505090506000815167ffffffffffffffff8111801561155957600080fd5b50604051908082528060200260200182016040528015611583578160200160208202803683370190505b50905060005b825181101561166c5761164d662386f26fc10000670de0b6b3a764000003611647866116418a8887815181106115bb57fe5b60200260200101516001600160a01b03166370a082318e6040518263ffffffff1660e01b815260040180826001600160a01b0316815260200191505060206040518083038186803b15801561160f57600080fd5b505afa158015611623573d6000803e3d6000fd5b505050506040513d602081101561163957600080fd5b505190611ef6565b90611f4f565b906116a4565b82828151811061165957fe5b6020908102919091010152600101611589565b5095945050505050565b6000546001600160a01b031681565b600061169d8261164185670de0b6b3a7640000611ef6565b9392505050565b600061169d670de0b6b3a76400006116418585611ef6565b6000600460009054906101000a90046001600160a01b03166001600160a01b031663c2bb6dc2836040518263ffffffff1660e01b815260040180826001600160a01b0316815260200191505060206040518083038186803b15801561172057600080fd5b505afa158015611734573d6000803e3d6000fd5b505050506040513d602081101561174a57600080fd5b505192915050565b61175a611fb6565b611762611fb6565b6001600160a01b0389166020808301829052604080517f56ba88b800000000000000000000000000000000000000000000000000000000815290516356ba88b892600480840193919291829003018186803b1580156117c057600080fd5b505afa1580156117d4573d6000803e3d6000fd5b505050506040513d60208110156117ea57600080fd5b50516001600160a01b0390811682528816604080830182905280517f18160ddd00000000000000000000000000000000000000000000000000000000815290516318160ddd91600480820192602092909190829003018186803b15801561185057600080fd5b505afa158015611864573d6000803e3d6000fd5b505050506040513d602081101561187a57600080fd5b50516060820152604080517f70a082310000000000000000000000000000000000000000000000000000000081526001600160a01b038b811660048301529151918a16916370a0823191602480820192602092909190829003018186803b1580156118e457600080fd5b505afa1580156118f8573d6000803e3d6000fd5b505050506040513d602081101561190e57600080fd5b505160a0820152608081018790526040805160208581028281018201909352858252909186918691829185019084908082843760009201919091525050505060c082015298975050505050505050565b61196b81604001516116bc565b6119bc576040805162461bcd60e51b815260206004820152601d60248201527f54686520706f6f6c2061646472657373206973206e6f742076616c6964000000604482015290519081900360640190fd5b60008160800151116119ff5760405162461bcd60e51b815260040180806020018281038252602e815260200180612061602e913960400191505060405180910390fd5b80608001518160a001511015611a465760405162461bcd60e51b815260040180806020018281038252602d8152602001806120bb602d913960400191505060405180910390fd5b50565b90565b600080606060008811611aa6576040805162461bcd60e51b815260206004820152601a60248201527f5f706f6f6c546f6b656e73496e2068617320746f206e6f742030000000000000604482015290519081900360640190fd5b60018411611afb576040805162461bcd60e51b815260206004820152601d60248201527f48617320746f2070726f76696465205f6d696e416d6f756e74734f7574000000604482015290519081900360640190fd5b600088868660405160240180848152602001806020018281038252848482818152602001925060200280828437600081840152601f19601f8201169050808301925050509450505050506040516020818303038152906040527fb02f0b73000000000000000000000000000000000000000000000000000000006001600160e01b0319166020820180516001600160e01b038381831617835250505050905089600082935093509350509750975097945050505050565b80608001518160a001510381604001516001600160a01b03166370a0823183602001516040518263ffffffff1660e01b815260040180826001600160a01b0316815260200191505060206040518083038186803b158015611c1257600080fd5b505afa158015611c26573d6000803e3d6000fd5b505050506040513d6020811015611c3c57600080fd5b505114611a465760405162461bcd60e51b815260040180806020018281038252602b8152602001806120e8602b913960400191505060405180910390fd5b611c8781604001516116bc565b611cd8576040805162461bcd60e51b815260206004820152601d60248201527f54686520706f6f6c2061646472657373206973206e6f742076616c6964000000604482015290519081900360640190fd5b6000816080015111611a465760405162461bcd60e51b815260040180806020018281038252603181526020018061200f6031913960400191505060405180910390fd5b6000806060600088868660405160240180848152602001806020018281038252848482818152602001925060200280828437600081840152601f19601f8201169050808301925050509450505050506040516020818303038152906040527f4f69c0d4000000000000000000000000000000000000000000000000000000006001600160e01b0319166020820180516001600160e01b038381831617835250505050905089600082935093509350509750975097945050505050565b600082821115611e2e576040805162461bcd60e51b815260206004820152601e60248201527f536166654d6174683a207375627472616374696f6e206f766572666c6f770000604482015290519081900360640190fd5b50900390565b8060a0015181604001516001600160a01b03166370a0823183602001516040518263ffffffff1660e01b815260040180826001600160a01b0316815260200191505060206040518083038186803b158015611e8e57600080fd5b505afa158015611ea2573d6000803e3d6000fd5b505050506040513d6020811015611eb857600080fd5b505111611a465760405162461bcd60e51b815260040180806020018281038252602c81526020018061208f602c913960400191505060405180910390fd5b600082611f0557506000610732565b82820282848281611f1257fe5b041461169d5760405162461bcd60e51b81526004018080602001828103825260218152602001806120406021913960400191505060405180910390fd5b6000808211611fa5576040805162461bcd60e51b815260206004820152601a60248201527f536166654d6174683a206469766973696f6e206279207a65726f000000000000604482015290519081900360640190fd5b818381611fae57fe5b049392505050565b6040518060e0016040528060006001600160a01b0316815260200160006001600160a01b0316815260200160006001600160a01b0316815260200160008152602001600081526020016000815260200160608152509056fe4d696e20706f6f6c20746f6b656e7320746f2072656365697665206d7573742062652067726561746572207468616e2030536166654d6174683a206d756c7469706c69636174696f6e206f766572666c6f77506f6f6c20746f6b656e7320746f2065786368616e6765206d7573742062652067726561746572207468616e203054686520737472617465677920646964206e6f7420726563656976652074686520706f6f6c20746f6b656e7354686520737472617465677920646f6573206e6f74206861766520656e6f75676820706f6f6c20746f6b656e7354686520737472617465677920646964206e6f742072657475726e2074686520706f6f6c20746f6b656e73a26469706673582212200174d3d9b68eae456f02e99e8de18bcb5944a511b1ec8fd124805338c0eaeb6164736f6c63430007060033",
  "devdoc": {
    "author": "Babylon Finance Protocol Kyber protocol trade integration",
    "kind": "dev",
    "methods": {
      "constructor": {
        "params": {
          "_controller": "Address of the controller",
          "_coreFactoryAddress": "Address of Balancer core factory address",
          "_weth": "Address of the WETH ERC20"
        }
      },
      "exitPool(address,address,uint256,address[],uint256[])": {
        "params": {
          "_minAmountsOut": "Array of min token quantities to receive from the pool",
          "_poolAddress": "Address of the pool token to join",
          "_poolTokensIn": "Pool tokens to exchange for the underlying tokens",
          "_strategy": "Address of the strategy",
          "_tokensOut": "Array of token addresses to withdraw"
        }
      },
      "isPool(address)": {
        "params": {
          "_poolAddress": "Pool address to check"
        },
        "returns": {
          "_0": "bool                        True if the address is a pool"
        }
      },
      "joinPool(address,address,uint256,address[],uint256[])": {
        "params": {
          "_maxAmountsIn": "Array of max token quantities to pull out from the garden",
          "_poolAddress": "Address of the pool token to join",
          "_poolTokensOut": "Min amount of pool tokens to receive",
          "_strategy": "Address of the strategy",
          "_tokensIn": "Array of token addresses to deposit"
        }
      }
    },
    "title": "BalancerIntegration",
    "version": 1
  },
  "userdoc": {
    "kind": "user",
    "methods": {
      "constructor": {
        "notice": "Creates the integration"
      },
      "exitPool(address,address,uint256,address[],uint256[])": {
        "notice": "Exits a liquidity pool. Accrue protocol fee (if any)"
      },
      "getName()": {
        "notice": "Returns the name of the integration"
      },
      "isPool(address)": {
        "notice": "Checks whether a pool address is valid"
      },
      "joinPool(address,address,uint256,address[],uint256[])": {
        "notice": "Joins a pool"
      }
    },
    "version": 1
  },
  "storageLayout": {
    "storage": [
      {
        "astId": 17657,
        "contract": "contracts/integrations/pool/BalancerIntegration.sol:BalancerIntegration",
        "label": "controller",
        "offset": 0,
        "slot": "0",
        "type": "t_address"
      },
      {
        "astId": 17661,
        "contract": "contracts/integrations/pool/BalancerIntegration.sol:BalancerIntegration",
        "label": "name",
        "offset": 0,
        "slot": "1",
        "type": "t_string_storage"
      },
      {
        "astId": 17665,
        "contract": "contracts/integrations/pool/BalancerIntegration.sol:BalancerIntegration",
        "label": "initializedByGarden",
        "offset": 0,
        "slot": "2",
        "type": "t_mapping(t_address,t_bool)"
      },
      {
        "astId": 5603,
        "contract": "contracts/integrations/pool/BalancerIntegration.sol:BalancerIntegration",
        "label": "_status",
        "offset": 0,
        "slot": "3",
        "type": "t_uint256"
      },
      {
        "astId": 19625,
        "contract": "contracts/integrations/pool/BalancerIntegration.sol:BalancerIntegration",
        "label": "coreFactory",
        "offset": 0,
        "slot": "4",
        "type": "t_contract(IBFactory)25238"
      }
    ],
    "types": {
      "t_address": {
        "encoding": "inplace",
        "label": "address",
        "numberOfBytes": "20"
      },
      "t_bool": {
        "encoding": "inplace",
        "label": "bool",
        "numberOfBytes": "1"
      },
      "t_contract(IBFactory)25238": {
        "encoding": "inplace",
        "label": "contract IBFactory",
        "numberOfBytes": "20"
      },
      "t_mapping(t_address,t_bool)": {
        "encoding": "mapping",
        "key": "t_address",
        "label": "mapping(address => bool)",
        "numberOfBytes": "32",
        "value": "t_bool"
      },
      "t_string_storage": {
        "encoding": "bytes",
        "label": "string",
        "numberOfBytes": "32"
      },
      "t_uint256": {
        "encoding": "inplace",
        "label": "uint256",
        "numberOfBytes": "32"
      }
    }
  }
}