{
  "address": "0xa31aD604920396C468e94E9C0Ec29a9478c01B29",
  "abi": [
    {
      "inputs": [
        {
          "internalType": "contract IBabController",
          "name": "_controller",
          "type": "address"
        },
        {
          "internalType": "address",
          "name": "_coreFactoryAddress",
          "type": "address"
        }
      ],
      "stateMutability": "nonpayable",
      "type": "constructor"
    },
    {
      "anonymous": false,
      "inputs": [
        {
          "indexed": true,
          "internalType": "address",
          "name": "_strategy",
          "type": "address"
        },
        {
          "indexed": true,
          "internalType": "address",
          "name": "_garden",
          "type": "address"
        },
        {
          "indexed": false,
          "internalType": "address",
          "name": "_pool",
          "type": "address"
        },
        {
          "indexed": false,
          "internalType": "uint256",
          "name": "_poolTokensOut",
          "type": "uint256"
        }
      ],
      "name": "PoolEntered",
      "type": "event"
    },
    {
      "anonymous": false,
      "inputs": [
        {
          "indexed": true,
          "internalType": "address",
          "name": "_strategy",
          "type": "address"
        },
        {
          "indexed": true,
          "internalType": "address",
          "name": "_garden",
          "type": "address"
        },
        {
          "indexed": false,
          "internalType": "address",
          "name": "_pool",
          "type": "address"
        },
        {
          "indexed": false,
          "internalType": "uint256",
          "name": "_poolTokensIn",
          "type": "uint256"
        }
      ],
      "name": "PoolExited",
      "type": "event"
    },
    {
      "inputs": [],
      "name": "controller",
      "outputs": [
        {
          "internalType": "contract IBabController",
          "name": "",
          "type": "address"
        }
      ],
      "stateMutability": "view",
      "type": "function"
    },
    {
      "inputs": [],
      "name": "coreFactory",
      "outputs": [
        {
          "internalType": "contract IBFactory",
          "name": "",
          "type": "address"
        }
      ],
      "stateMutability": "view",
      "type": "function"
    },
    {
      "inputs": [
        {
          "internalType": "address",
          "name": "_strategy",
          "type": "address"
        },
        {
          "internalType": "bytes",
          "name": "_pool",
          "type": "bytes"
        },
        {
          "internalType": "uint256",
          "name": "_poolTokensIn",
          "type": "uint256"
        },
        {
          "internalType": "address[]",
          "name": "_tokensOut",
          "type": "address[]"
        },
        {
          "internalType": "uint256[]",
          "name": "_minAmountsOut",
          "type": "uint256[]"
        }
      ],
      "name": "exitPool",
      "outputs": [],
      "stateMutability": "nonpayable",
      "type": "function"
    },
    {
      "inputs": [
        {
          "internalType": "address",
          "name": "_pool",
          "type": "address"
        }
      ],
      "name": "getLPToken",
      "outputs": [
        {
          "internalType": "address",
          "name": "",
          "type": "address"
        }
      ],
      "stateMutability": "view",
      "type": "function"
    },
    {
      "inputs": [],
      "name": "getName",
      "outputs": [
        {
          "internalType": "string",
          "name": "",
          "type": "string"
        }
      ],
      "stateMutability": "view",
      "type": "function"
    },
    {
      "inputs": [
        {
          "internalType": "address",
          "name": "_pool",
          "type": "address"
        }
      ],
      "name": "getPool",
      "outputs": [
        {
          "internalType": "address",
          "name": "",
          "type": "address"
        }
      ],
      "stateMutability": "view",
      "type": "function"
    },
    {
      "inputs": [
        {
          "internalType": "bytes",
          "name": "_pool",
          "type": "bytes"
        },
        {
          "internalType": "uint256",
          "name": "_liquidity",
          "type": "uint256"
        }
      ],
      "name": "getPoolMinAmountsOut",
      "outputs": [
        {
          "internalType": "uint256[]",
          "name": "_minAmountsOut",
          "type": "uint256[]"
        }
      ],
      "stateMutability": "view",
      "type": "function"
    },
    {
      "inputs": [
        {
          "internalType": "bytes",
          "name": "_pool",
          "type": "bytes"
        },
        {
          "internalType": "bool",
          "name": "forNAV",
          "type": "bool"
        }
      ],
      "name": "getPoolTokens",
      "outputs": [
        {
          "internalType": "address[]",
          "name": "",
          "type": "address[]"
        }
      ],
      "stateMutability": "view",
      "type": "function"
    },
    {
      "inputs": [
        {
          "internalType": "bytes",
          "name": "_pool",
          "type": "bytes"
        },
        {
          "internalType": "address",
          "name": "_poolToken",
          "type": "address"
        },
        {
          "internalType": "uint256",
          "name": "_maxAmountsIn",
          "type": "uint256"
        }
      ],
      "name": "getPoolTokensOut",
      "outputs": [
        {
          "internalType": "uint256",
          "name": "",
          "type": "uint256"
        }
      ],
      "stateMutability": "view",
      "type": "function"
    },
    {
      "inputs": [
        {
          "internalType": "bytes",
          "name": "_pool",
          "type": "bytes"
        }
      ],
      "name": "getPoolWeights",
      "outputs": [
        {
          "internalType": "uint256[]",
          "name": "",
          "type": "uint256[]"
        }
      ],
      "stateMutability": "view",
      "type": "function"
    },
    {
      "inputs": [
        {
          "internalType": "bytes",
          "name": "_pool",
          "type": "bytes"
        }
      ],
      "name": "isPool",
      "outputs": [
        {
          "internalType": "bool",
          "name": "",
          "type": "bool"
        }
      ],
      "stateMutability": "view",
      "type": "function"
    },
    {
      "inputs": [
        {
          "internalType": "address",
          "name": "_strategy",
          "type": "address"
        },
        {
          "internalType": "bytes",
          "name": "_pool",
          "type": "bytes"
        },
        {
          "internalType": "uint256",
          "name": "_poolTokensOut",
          "type": "uint256"
        },
        {
          "internalType": "address[]",
          "name": "_tokensIn",
          "type": "address[]"
        },
        {
          "internalType": "uint256[]",
          "name": "_maxAmountsIn",
          "type": "uint256[]"
        }
      ],
      "name": "joinPool",
      "outputs": [],
      "stateMutability": "nonpayable",
      "type": "function"
    },
    {
      "inputs": [],
      "name": "name",
      "outputs": [
        {
          "internalType": "string",
          "name": "",
          "type": "string"
        }
      ],
      "stateMutability": "view",
      "type": "function"
    },
    {
      "inputs": [
        {
          "internalType": "address",
          "name": "_pool",
          "type": "address"
        }
      ],
      "name": "totalSupply",
      "outputs": [
        {
          "internalType": "uint256",
          "name": "",
          "type": "uint256"
        }
      ],
      "stateMutability": "view",
      "type": "function"
    }
  ],
  "transactionHash": "0x194990c4479c2ecfe785d25f13e52f120f4a9391454d6ee70aa11d6138e45d39",
  "args": [
    "0xD4a5b5fcB561dAF3aDF86F8477555B92FBa43b5F",
    "0x9424B1412450D0f8Fc2255FAf6046b98213B76Bd"
  ],
  "solcInputHash": "c1f525c5f5ec5d756d5e07b589917725",
  "bytecode": "0x60806040523480156200001157600080fd5b506040516200267e3803806200267e833981810160405260408110156200003757600080fd5b5080516020918201516040805180820190915260088152673130b630b731b2b960c11b9381019390935290918281816001600160a01b038116620000c2576040805162461bcd60e51b815260206004820152601a60248201527f436f6e74726f6c6c6572206d75737420626520646566696e6564000000000000604482015290519081900360640190fd5b8151620000d790600190602085019062000118565b50600080546001600160a01b039283166001600160a01b0319918216179091556001600255600380549690921695169490941790935550620001c492505050565b828054600181600116156101000203166002900490600052602060002090601f0160209004810192826200015057600085556200019b565b82601f106200016b57805160ff19168380011785556200019b565b828001600101855582156200019b579182015b828111156200019b5782518255916020019190600101906200017e565b50620001a9929150620001ad565b5090565b5b80821115620001a95760008155600101620001ae565b6124aa80620001d46000396000f3fe608060405234801561001057600080fd5b50600436106100ea5760003560e01c806354f070c11161008c578063c9d5066b11610066578063c9d5066b14610609578063e022710714610677578063e4dc2aa4146106e7578063f77c47911461070d576100ea565b806354f070c1146103c35780637a6731ab146104e7578063bbe4f6db1461039d576100ea565b80631b7e75b7116100c85780631b7e75b71461023257806326062493146102c15780633d8df667146103795780634fc99ed61461039d576100ea565b806306fdde03146100ef57806307ec3d921461016c57806317d7de7c1461022a575b600080fd5b6100f7610715565b6040805160208082528351818301528351919283929083019185019080838360005b83811015610131578181015183820152602001610119565b50505050905090810190601f16801561015e5780820380516001836020036101000a031916815260200191505b509250505060405180910390f35b6101da6004803603602081101561018257600080fd5b810190602081018135600160201b81111561019c57600080fd5b8201836020820111156101ae57600080fd5b803590602001918460018302840111600160201b831117156101cf57600080fd5b5090925090506107a2565b60408051602080825283518183015283519192839290830191858101910280838360005b838110156102165781810151838201526020016101fe565b505050509050019250505060405180910390f35b6100f76109cb565b6102af6004803603606081101561024857600080fd5b810190602081018135600160201b81111561026257600080fd5b82018360208201111561027457600080fd5b803590602001918460018302840111600160201b8311171561029557600080fd5b91935091506001600160a01b038135169060200135610a60565b60408051918252519081900360200190f35b610365600480360360208110156102d757600080fd5b810190602081018135600160201b8111156102f157600080fd5b82018360208201111561030357600080fd5b803590602001918460018302840111600160201b8311171561032457600080fd5b91908080601f016020809104026020016040519081016040528093929190818152602001838380828437600092019190915250929550610b6f945050505050565b604080519115158252519081900360200190f35b610381610b7a565b604080516001600160a01b039092168252519081900360200190f35b610381600480360360208110156103b357600080fd5b50356001600160a01b0316610b89565b6104e5600480360360a08110156103d957600080fd5b6001600160a01b038235169190810190604081016020820135600160201b81111561040357600080fd5b82018360208201111561041557600080fd5b803590602001918460018302840111600160201b8311171561043657600080fd5b91939092823592604081019060200135600160201b81111561045757600080fd5b82018360208201111561046957600080fd5b803590602001918460208302840111600160201b8311171561048a57600080fd5b919390929091602081019035600160201b8111156104a757600080fd5b8201836020820111156104b957600080fd5b803590602001918460208302840111600160201b831117156104da57600080fd5b509092509050610b94565b005b6104e5600480360360a08110156104fd57600080fd5b6001600160a01b038235169190810190604081016020820135600160201b81111561052757600080fd5b82018360208201111561053957600080fd5b803590602001918460018302840111600160201b8311171561055a57600080fd5b91939092823592604081019060200135600160201b81111561057b57600080fd5b82018360208201111561058d57600080fd5b803590602001918460208302840111600160201b831117156105ae57600080fd5b919390929091602081019035600160201b8111156105cb57600080fd5b8201836020820111156105dd57600080fd5b803590602001918460208302840111600160201b831117156105fe57600080fd5b509092509050610ff7565b6101da6004803603604081101561061f57600080fd5b810190602081018135600160201b81111561063957600080fd5b82018360208201111561064b57600080fd5b803590602001918460018302840111600160201b8311171561066c57600080fd5b919350915035611521565b6101da6004803603604081101561068d57600080fd5b810190602081018135600160201b8111156106a757600080fd5b8201836020820111156106b957600080fd5b803590602001918460018302840111600160201b831117156106da57600080fd5b91935091503515156117f8565b6102af600480360360208110156106fd57600080fd5b50356001600160a01b0316611912565b61038161191d565b60018054604080516020600284861615610100026000190190941693909304601f8101849004840282018401909252818152929183018282801561079a5780601f1061076f5761010080835404028352916020019161079a565b820191906000526020600020905b81548152906001019060200180831161077d57829003601f168201915b505050505081565b606060006107b0848461192c565b90506000816001600160a01b031663cc77828d6040518163ffffffff1660e01b815260040160006040518083038186803b1580156107ed57600080fd5b505afa158015610801573d6000803e3d6000fd5b505050506040513d6000823e601f3d908101601f19168201604052602081101561082a57600080fd5b8101908080516040519392919084600160201b82111561084957600080fd5b90830190602082018581111561085e57600080fd5b82518660208202830111600160201b8211171561087a57600080fd5b82525081516020918201928201910280838360005b838110156108a757818101518382015260200161088f565b5050505090500160405250505090506000815167ffffffffffffffff811180156108d057600080fd5b506040519080825280602002602001820160405280156108fa578160200160208202803683370190505b50905060005b82518160ff1610156109bf57836001600160a01b031663f1b8a9b7848360ff168151811061092a57fe5b60200260200101516040518263ffffffff1660e01b815260040180826001600160a01b0316815260200191505060206040518083038186803b15801561096f57600080fd5b505afa158015610983573d6000803e3d6000fd5b505050506040513d602081101561099957600080fd5b50518251839060ff84169081106109ac57fe5b6020908102919091010152600101610900565b50925050505b92915050565b60018054604080516020601f60026000196101008789161502019095169490940493840181900481028201810190925282815260609390929091830182828015610a565780601f10610a2b57610100808354040283529160200191610a56565b820191906000526020600020905b815481529060010190602001808311610a3957829003601f168201915b5050505050905090565b600080610a6d868661192c565b90506000816001600160a01b031663f8b2cb4f866040518263ffffffff1660e01b815260040180826001600160a01b0316815260200191505060206040518083038186803b158015610abe57600080fd5b505afa158015610ad2573d6000803e3d6000fd5b505050506040513d6020811015610ae857600080fd5b50519050610b64610af98583611950565b836001600160a01b03166318160ddd6040518163ffffffff1660e01b815260040160206040518083038186803b158015610b3257600080fd5b505afa158015610b46573d6000803e3d6000fd5b505050506040513d6020811015610b5c57600080fd5b50519061196f565b979650505050505050565b60006109c582611987565b6003546001600160a01b031681565b60006109c582611a30565b600280541415610beb576040805162461bcd60e51b815260206004820152601f60248201527f5265656e7472616e637947756172643a207265656e7472616e742063616c6c00604482015290519081900360640190fd5b60028055600054604080516313bc6d4b60e01b815233600482015290516001600160a01b03909216916313bc6d4b91602480820192602092909190829003018186803b158015610c3a57600080fd5b505afa158015610c4e573d6000803e3d6000fd5b505050506040513d6020811015610c6457600080fd5b5051610cb7576040805162461bcd60e51b815260206004820152601960248201527f4f6e6c792073797374656d2063616e2063616c6c207468697300000000000000604482015290519081900360640190fd5b6000610cc3888861192c565b90506000610cd78a8a8a8a8a8a8a8a611a33565b9050610ce281611c17565b80602001516001600160a01b03166397ccdc60610cff8b8b611d02565b83606001518a6040518463ffffffff1660e01b815260040180846001600160a01b03168152602001836001600160a01b031681526020018281526020019350505050600060405180830381600087803b158015610d5b57600080fd5b505af1158015610d6f573d6000803e3d6000fd5b505050506000806000610dbf8d8d8d8080601f0160208091040260200160405190810160405280939291908181526020018383808284376000920191909152508f92508e91508d90508c8c611d17565b92509250925083602001516001600160a01b0316636bc195dd8484846040518463ffffffff1660e01b815260040180846001600160a01b0316815260200183815260200180602001828103825283818151815260200191508051906020019080838360005b83811015610e3c578181015183820152602001610e24565b50505050905090810190601f168015610e695780820380516001836020036101000a031916815260200191505b50945050505050600060405180830381600087803b158015610e8a57600080fd5b505af1158015610e9e573d6000803e3d6000fd5b505050506040513d6000823e601f3d908101601f191682016040526020811015610ec757600080fd5b8101908080516040519392919084600160201b821115610ee657600080fd5b908301906020820185811115610efb57600080fd5b8251600160201b811182820188101715610f1457600080fd5b82525081516020918201929091019080838360005b83811015610f41578181015183820152602001610f29565b50505050905090810190601f168015610f6e5780820380516001836020036101000a031916815260200191505b5060405250505050610f7f84611e8d565b83600001516001600160a01b031684602001516001600160a01b03167f7659e40cf608296ce5aa9eff9c80adc7a49cb481173fc4e302e3983827b042df878d60405180836001600160a01b031681526020018281526020019250505060405180910390a3505060016002555050505050505050505050565b60028054141561104e576040805162461bcd60e51b815260206004820152601f60248201527f5265656e7472616e637947756172643a207265656e7472616e742063616c6c00604482015290519081900360640190fd5b60028055600054604080516313bc6d4b60e01b815233600482015290516001600160a01b03909216916313bc6d4b91602480820192602092909190829003018186803b15801561109d57600080fd5b505afa1580156110b1573d6000803e3d6000fd5b505050506040513d60208110156110c757600080fd5b505161111a576040805162461bcd60e51b815260206004820152601960248201527f4f6e6c792073797374656d2063616e2063616c6c207468697300000000000000604482015290519081900360640190fd5b600061112c8989898989898989611a33565b905061113781611f6c565b6000611143898961192c565b905060005b8581101561123f57600087878381811061115e57fe5b905060200201356001600160a01b03166001600160a01b0316146112375782602001516001600160a01b03166397ccdc606111998c8c611d02565b8989858181106111a557fe5b905060200201356001600160a01b03168888868181106111c157fe5b905060200201356040518463ffffffff1660e01b815260040180846001600160a01b03168152602001836001600160a01b031681526020018281526020019350505050600060405180830381600087803b15801561121e57600080fd5b505af1158015611232573d6000803e3d6000fd5b505050505b600101611148565b5060008060006112558d8d8d8d8d8d8d8d61200d565b92509250925084602001516001600160a01b0316636bc195dd8484846040518463ffffffff1660e01b815260040180846001600160a01b0316815260200183815260200180602001828103825283818151815260200191508051906020019080838360005b838110156112d25781810151838201526020016112ba565b50505050905090810190601f1680156112ff5780820380516001836020036101000a031916815260200191505b50945050505050600060405180830381600087803b15801561132057600080fd5b505af1158015611334573d6000803e3d6000fd5b505050506040513d6000823e601f3d908101601f19168201604052602081101561135d57600080fd5b8101908080516040519392919084600160201b82111561137c57600080fd5b90830190602082018581111561139157600080fd5b8251600160201b8111828201881017156113aa57600080fd5b82525081516020918201929091019080838360005b838110156113d75781810151838201526020016113bf565b50505050905090810190601f1680156114045780820380516001836020036101000a031916815260200191505b506040525050505061149b8560c0015186606001516001600160a01b03166370a0823188602001516040518263ffffffff1660e01b815260040180826001600160a01b0316815260200191505060206040518083038186803b15801561146957600080fd5b505afa15801561147d573d6000803e3d6000fd5b505050506040513d602081101561149357600080fd5b5051906120d9565b60a08601526114a9856120e9565b84600001516001600160a01b031685602001516001600160a01b03167fe5ca6288535c5c6c2462c912b4033eade15b80926717896a2d58a2defdeb9128868d60405180836001600160a01b031681526020018281526020019250505060405180910390a3505060016002555050505050505050505050565b6060600061152f858561192c565b90506000816001600160a01b03166318160ddd6040518163ffffffff1660e01b815260040160206040518083038186803b15801561156c57600080fd5b505afa158015611580573d6000803e3d6000fd5b505050506040513d602081101561159657600080fd5b5051604080517fcc77828d00000000000000000000000000000000000000000000000000000000815290519192506000916001600160a01b0385169163cc77828d9160048083019286929190829003018186803b1580156115f657600080fd5b505afa15801561160a573d6000803e3d6000fd5b505050506040513d6000823e601f3d908101601f19168201604052602081101561163357600080fd5b8101908080516040519392919084600160201b82111561165257600080fd5b90830190602082018581111561166757600080fd5b82518660208202830111600160201b8211171561168357600080fd5b82525081516020918201928201910280838360005b838110156116b0578181015183820152602001611698565b5050505090500160405250505090506000815167ffffffffffffffff811180156116d957600080fd5b50604051908082528060200260200182016040528015611703578160200160208202803683370190505b50905060005b82518110156117ec576117cd66b1a2bc2ec50000670de0b6b3a7640000036117c7866117c18b88878151811061173b57fe5b60200260200101516001600160a01b03166370a082318c6040518263ffffffff1660e01b815260040180826001600160a01b0316815260200191505060206040518083038186803b15801561178f57600080fd5b505afa1580156117a3573d6000803e3d6000fd5b505050506040513d60208110156117b957600080fd5b5051906121be565b906121e2565b9061196f565b8282815181106117d957fe5b6020908102919091010152600101611709565b50979650505050505050565b60606000611806858561192c565b9050806001600160a01b031663cc77828d6040518163ffffffff1660e01b815260040160006040518083038186803b15801561184157600080fd5b505afa158015611855573d6000803e3d6000fd5b505050506040513d6000823e601f3d908101601f19168201604052602081101561187e57600080fd5b8101908080516040519392919084600160201b82111561189d57600080fd5b9083019060208201858111156118b257600080fd5b82518660208202830111600160201b821117156118ce57600080fd5b82525081516020918201928201910280838360005b838110156118fb5781810151838201526020016118e3565b505050509050016040525050509150509392505050565b60006109c582612249565b6000546001600160a01b031681565b60008282602081101561193e57600080fd5b50356001600160a01b03169392505050565b6000611968826117c185670de0b6b3a76400006121be565b9392505050565b6000611968670de0b6b3a76400006117c185856121be565b60008061199583600c6122b6565b600354604080517fc2bb6dc20000000000000000000000000000000000000000000000000000000081526001600160a01b038085166004830152915193945091169163c2bb6dc291602480820192602092909190829003018186803b1580156119fd57600080fd5b505afa158015611a11573d6000803e3d6000fd5b505050506040513d6020811015611a2757600080fd5b50519392505050565b90565b611a3b612331565b6000611a47898961192c565b9050611a51612331565b611a5a82611a30565b6001600160a01b0390811660608301528b166020808301829052604080517f56ba88b800000000000000000000000000000000000000000000000000000000815290516356ba88b892600480840193919291829003018186803b158015611ac057600080fd5b505afa158015611ad4573d6000803e3d6000fd5b505050506040513d6020811015611aea57600080fd5b50516001600160a01b03168152604080516020601f8c018190048102820181019092528a8152908b908b9081908401838280828437600092019190915250505050604080830191909152606082015181517f70a082310000000000000000000000000000000000000000000000000000000081526001600160a01b038e81166004830152925192909116916370a0823191602480820192602092909190829003018186803b158015611b9b57600080fd5b505afa158015611baf573d6000803e3d6000fd5b505050506040513d6020811015611bc557600080fd5b505160c082015260a081018890526040805160208681028281018201909352868252909187918791829185019084908082843760009201919091525050505060e08201529a9950505050505050505050565b611c248160400151611987565b611c75576040805162461bcd60e51b815260206004820152601d60248201527f54686520706f6f6c2061646472657373206973206e6f742076616c6964000000604482015290519081900360640190fd5b60008160a0015111611cb85760405162461bcd60e51b815260040180806020018281038252602e8152602001806123c3602e913960400191505060405180910390fd5b8060a001518160c001511015611cff5760405162461bcd60e51b815260040180806020018281038252602d81526020018061241d602d913960400191505060405180910390fd5b50565b600080611d0f848461192c565b949350505050565b60008060606000611d298a600c6122b6565b905060008911611d80576040805162461bcd60e51b815260206004820152601a60248201527f5f706f6f6c546f6b656e73496e2068617320746f206e6f742030000000000000604482015290519081900360640190fd5b60018511611dd5576040805162461bcd60e51b815260206004820152601d60248201527f48617320746f2070726f76696465205f6d696e416d6f756e74734f7574000000604482015290519081900360640190fd5b600089878760405160240180848152602001806020018281038252848482818152602001925060200280828437600083820181905260408051601f909301601f199081169095018381039095018352939093526020810180517bffffffffffffffffffffffffffffffffffffffffffffffffffffffff167fb02f0b7300000000000000000000000000000000000000000000000000000000179052989b50909950969750505050505050509750975097945050505050565b6000611e9e8260400151600c6122b6565b90508160a001518260c001510382606001516001600160a01b03166370a0823184602001516040518263ffffffff1660e01b815260040180826001600160a01b0316815260200191505060206040518083038186803b158015611f0057600080fd5b505afa158015611f14573d6000803e3d6000fd5b505050506040513d6020811015611f2a57600080fd5b505114611f685760405162461bcd60e51b815260040180806020018281038252602b81526020018061244a602b913960400191505060405180910390fd5b5050565b611f798160400151611987565b611fca576040805162461bcd60e51b815260206004820152601d60248201527f54686520706f6f6c2061646472657373206973206e6f742076616c6964000000604482015290519081900360640190fd5b60008160a0015111611cff5760405162461bcd60e51b81526004018080602001828103825260318152602001806123926031913960400191505060405180910390fd5b6000806060600061201e8b8b61192c565b9050600089878760405160240180848152602001806020018281038252848482818152602001925060200280828437600083820181905260408051601f909301601f199081169095018381039095018352939093526020810180517bffffffffffffffffffffffffffffffffffffffffffffffffffffffff167f4f69c0d400000000000000000000000000000000000000000000000000000000179052989b5090995096975050505050505050985098509895505050505050565b808203828111156109c557600080fd5b60006120fa8260400151600c6122b6565b90508160c0015182606001516001600160a01b03166370a0823184602001516040518263ffffffff1660e01b815260040180826001600160a01b0316815260200191505060206040518083038186803b15801561215657600080fd5b505afa15801561216a573d6000803e3d6000fd5b505050506040513d602081101561218057600080fd5b505111611f685760405162461bcd60e51b815260040180806020018281038252602c8152602001806123f1602c913960400191505060405180910390fd5b60008215806121d9575050818102818382816121d657fe5b04145b6109c557600080fd5b6000808211612238576040805162461bcd60e51b815260206004820152601a60248201527f536166654d6174683a206469766973696f6e206279207a65726f000000000000604482015290519081900360640190fd5b81838161224157fe5b049392505050565b6000816001600160a01b03166318160ddd6040518163ffffffff1660e01b815260040160206040518083038186803b15801561228457600080fd5b505afa158015612298573d6000803e3d6000fd5b505050506040513d60208110156122ae57600080fd5b505192915050565b6000611968838360008160140183511015612318576040805162461bcd60e51b815260206004820152601560248201527f746f416464726573735f6f75744f66426f756e64730000000000000000000000604482015290519081900360640190fd5b5001602001516c01000000000000000000000000900490565b60405180610100016040528060006001600160a01b0316815260200160006001600160a01b031681526020016060815260200160006001600160a01b0316815260200160008152602001600081526020016000815260200160608152509056fe4d696e20706f6f6c20746f6b656e7320746f2072656365697665206d7573742062652067726561746572207468616e2030506f6f6c20746f6b656e7320746f2065786368616e6765206d7573742062652067726561746572207468616e203054686520737472617465677920646964206e6f7420726563656976652074686520706f6f6c20746f6b656e7354686520737472617465677920646f6573206e6f74206861766520656e6f75676820706f6f6c20746f6b656e7354686520737472617465677920646964206e6f742072657475726e2074686520706f6f6c20746f6b656e73a2646970667358221220917b35b4cf35f2720af38da69ec5c937ce14bb49205d4ec3ae99b0895f40705364736f6c63430007060033",
  "devdoc": {
    "author": "Babylon Finance Protocol Balancer protocol trade integration",
    "kind": "dev",
    "methods": {
      "constructor": {
        "params": {
          "_controller": "Address of the controller",
          "_coreFactoryAddress": "Address of Balancer core factory address"
        }
      },
      "exitPool(address,bytes,uint256,address[],uint256[])": {
        "params": {
          "_minAmountsOut": "Array of min token quantities to receive from the pool",
          "_pool": "Pool info e.g. PoolId or Address of the pool token to join + metadata",
          "_poolTokensIn": "Pool tokens to exchange for the underlying tokens",
          "_strategy": "Address of the strategy",
          "_tokensOut": "Array of token addresses to withdraw"
        }
      },
      "getLPToken(address)": {
        "params": {
          "_pool": "Address of the pool"
        },
        "returns": {
          "_0": "address                 Address of the LP token"
        }
      },
      "getPool(address)": {
        "params": {
          "_pool": "Address of the maybe pool"
        },
        "returns": {
          "_0": "address                 Address of the pool itself"
        }
      },
      "isPool(bytes)": {
        "params": {
          "_pool": "OpData e.g. Pool address to check"
        },
        "returns": {
          "_0": "bool                 True if the address is a pool"
        }
      },
      "joinPool(address,bytes,uint256,address[],uint256[])": {
        "params": {
          "_maxAmountsIn": "Array of max token quantities to pull out from the garden",
          "_pool": "OpData e.g. Address of the pool token to join",
          "_poolTokensOut": "Min amount of pool tokens to receive",
          "_strategy": "Address of the strategy",
          "_tokensIn": "Array of token addresses to deposit"
        }
      },
      "totalSupply(address)": {
        "params": {
          "_pool": "Address of the pool"
        },
        "returns": {
          "_0": "address                 Total supply of the token"
        }
      }
    },
    "title": "BalancerIntegration",
    "version": 1
  },
  "userdoc": {
    "kind": "user",
    "methods": {
      "constructor": {
        "notice": "Creates the integration"
      },
      "exitPool(address,bytes,uint256,address[],uint256[])": {
        "notice": "Exits a liquidity pool. Accrue protocol fee (if any)"
      },
      "getLPToken(address)": {
        "notice": "Returns the actual address of the LP token. Different for curve."
      },
      "getName()": {
        "notice": "Returns the name of the integration"
      },
      "getPool(address)": {
        "notice": "Gets the underlying pool that holds the internal tokens. Different for curve."
      },
      "isPool(bytes)": {
        "notice": "Checks whether a pool address is valid"
      },
      "joinPool(address,bytes,uint256,address[],uint256[])": {
        "notice": "Joins a pool"
      },
      "totalSupply(address)": {
        "notice": "Returns the total supply of the pool tokens"
      }
    },
    "version": 1
  },
  "storageLayout": {
    "storage": [
      {
        "astId": 19406,
        "contract": "contracts/integrations/pool/BalancerIntegration.sol:BalancerIntegration",
        "label": "controller",
        "offset": 0,
        "slot": "0",
        "type": "t_contract(IBabController)28639"
      },
      {
        "astId": 19411,
        "contract": "contracts/integrations/pool/BalancerIntegration.sol:BalancerIntegration",
        "label": "name",
        "offset": 0,
        "slot": "1",
        "type": "t_string_storage"
      },
      {
        "astId": 6418,
        "contract": "contracts/integrations/pool/BalancerIntegration.sol:BalancerIntegration",
        "label": "_status",
        "offset": 0,
        "slot": "2",
        "type": "t_uint256"
      },
      {
        "astId": 23970,
        "contract": "contracts/integrations/pool/BalancerIntegration.sol:BalancerIntegration",
        "label": "coreFactory",
        "offset": 0,
        "slot": "3",
        "type": "t_contract(IBFactory)31192"
      }
    ],
    "types": {
      "t_contract(IBFactory)31192": {
        "encoding": "inplace",
        "label": "contract IBFactory",
        "numberOfBytes": "20"
      },
      "t_contract(IBabController)28639": {
        "encoding": "inplace",
        "label": "contract IBabController",
        "numberOfBytes": "20"
      },
      "t_string_storage": {
        "encoding": "bytes",
        "label": "string",
        "numberOfBytes": "32"
      },
      "t_uint256": {
        "encoding": "inplace",
        "label": "uint256",
        "numberOfBytes": "32"
      }
    }
  }
}