{
  "address": "0x9F162A86b4A34F2B4c1A200190f4E21fa3F652c7",
  "abi": [
    {
      "inputs": [
        {
          "internalType": "string",
          "name": "_name",
          "type": "string"
        },
        {
          "internalType": "address",
          "name": "_controller",
          "type": "address"
        }
      ],
      "stateMutability": "nonpayable",
      "type": "constructor"
    },
    {
      "inputs": [],
      "name": "controller",
      "outputs": [
        {
          "internalType": "address",
          "name": "",
          "type": "address"
        }
      ],
      "stateMutability": "view",
      "type": "function"
    },
    {
      "inputs": [
        {
          "internalType": "address",
          "name": "_asset",
          "type": "address"
        },
        {
          "internalType": "uint256",
          "name": "_capital",
          "type": "uint256"
        },
        {
          "internalType": "uint8",
          "name": "_assetStatus",
          "type": "uint8"
        },
        {
          "internalType": "address",
          "name": "_borrowToken",
          "type": "address"
        },
        {
          "internalType": "contract IGarden",
          "name": "",
          "type": "address"
        },
        {
          "internalType": "address",
          "name": "_integration",
          "type": "address"
        }
      ],
      "name": "executeOperation",
      "outputs": [
        {
          "internalType": "address",
          "name": "",
          "type": "address"
        },
        {
          "internalType": "uint256",
          "name": "",
          "type": "uint256"
        },
        {
          "internalType": "uint8",
          "name": "",
          "type": "uint8"
        }
      ],
      "stateMutability": "nonpayable",
      "type": "function"
    },
    {
      "inputs": [
        {
          "internalType": "address",
          "name": "",
          "type": "address"
        },
        {
          "internalType": "uint256",
          "name": "",
          "type": "uint256"
        },
        {
          "internalType": "uint8",
          "name": "",
          "type": "uint8"
        },
        {
          "internalType": "uint256",
          "name": "_percentage",
          "type": "uint256"
        },
        {
          "internalType": "address",
          "name": "_assetToken",
          "type": "address"
        },
        {
          "internalType": "contract IGarden",
          "name": "",
          "type": "address"
        },
        {
          "internalType": "address",
          "name": "_integration",
          "type": "address"
        }
      ],
      "name": "exitOperation",
      "outputs": [
        {
          "internalType": "address",
          "name": "",
          "type": "address"
        },
        {
          "internalType": "uint256",
          "name": "",
          "type": "uint256"
        },
        {
          "internalType": "uint8",
          "name": "",
          "type": "uint8"
        }
      ],
      "stateMutability": "nonpayable",
      "type": "function"
    },
    {
      "inputs": [
        {
          "internalType": "address",
          "name": "_assetToken",
          "type": "address"
        },
        {
          "internalType": "contract IGarden",
          "name": "_garden",
          "type": "address"
        },
        {
          "internalType": "address",
          "name": "_integration",
          "type": "address"
        }
      ],
      "name": "getNAV",
      "outputs": [
        {
          "internalType": "uint256",
          "name": "",
          "type": "uint256"
        },
        {
          "internalType": "bool",
          "name": "",
          "type": "bool"
        }
      ],
      "stateMutability": "view",
      "type": "function"
    },
    {
      "inputs": [],
      "name": "getName",
      "outputs": [
        {
          "internalType": "string",
          "name": "",
          "type": "string"
        }
      ],
      "stateMutability": "view",
      "type": "function"
    },
    {
      "inputs": [],
      "name": "name",
      "outputs": [
        {
          "internalType": "string",
          "name": "",
          "type": "string"
        }
      ],
      "stateMutability": "view",
      "type": "function"
    },
    {
      "inputs": [
        {
          "internalType": "address",
          "name": "",
          "type": "address"
        },
        {
          "internalType": "contract IGarden",
          "name": "",
          "type": "address"
        },
        {
          "internalType": "address",
          "name": "",
          "type": "address"
        },
        {
          "internalType": "uint256",
          "name": "_index",
          "type": "uint256"
        }
      ],
      "name": "validateOperation",
      "outputs": [],
      "stateMutability": "view",
      "type": "function"
    }
  ],
  "transactionHash": "0x62ddd5ac2fd4970fc30684a3884f0c5a17837cdf749723d5ae62790b03e3ee38",
  "args": [
    "borrow",
    "0xD4a5b5fcB561dAF3aDF86F8477555B92FBa43b5F"
  ],
  "solcInputHash": "031aeaf93d736e843a479d8863a4b686",
  "bytecode": "0x60806040523480156200001157600080fd5b5060405162001ae938038062001ae9833981810160405260408110156200003757600080fd5b81019080805160405193929190846401000000008211156200005857600080fd5b9083019060208201858111156200006e57600080fd5b82516401000000008111828201881017156200008957600080fd5b82525081516020918201929091019080838360005b83811015620000b85781810151838201526020016200009e565b50505050905090810190601f168015620000e65780820380516001836020036101000a031916815260200191505b50604052602001519150829050816001600160a01b03811662000150576040805162461bcd60e51b815260206004820152601a60248201527f436f6e74726f6c6c6572206d75737420626520646566696e6564000000000000604482015290519081900360640190fd5b81516200016590600190602085019062000190565b50600080546001600160a01b0319166001600160a01b0392909216919091179055506200023c915050565b828054600181600116156101000203166002900490600052602060002090601f016020900481019282620001c8576000855562000213565b82601f10620001e357805160ff191683800117855562000213565b8280016001018555821562000213579182015b8281111562000213578251825591602001919060010190620001f6565b506200022192915062000225565b5090565b5b8082111562000221576000815560010162000226565b61189d806200024c6000396000f3fe608060405234801561001057600080fd5b506004361061007d5760003560e01c80634222326a1161005b5780634222326a1461018757806355d9750b146101d8578063c8cd307514610225578063f77c4791146102635761007d565b806306fdde03146100825780630c22cfd2146100ff57806317d7de7c1461017f575b600080fd5b61008a610287565b6040805160208082528351818301528351919283929083019185019080838360005b838110156100c45781810151838201526020016100ac565b50505050905090810190601f1680156100f15780820380516001836020036101000a031916815260200191505b509250505060405180910390f35b610154600480360360e081101561011557600080fd5b506001600160a01b03813581169160208101359160ff60408301351691606081013591608082013581169160a081013582169160c09091013516610314565b604080516001600160a01b039094168452602084019290925260ff1682820152519081900360600190f35b61008a61072f565b6101bf6004803603606081101561019d57600080fd5b506001600160a01b0381358116916020810135821691604090910135166107c4565b6040805192835290151560208301528051918290030190f35b610154600480360360c08110156101ee57600080fd5b506001600160a01b03813581169160208101359160ff604083013516916060810135821691608082013581169160a0013516610c2f565b6102616004803603608081101561023b57600080fd5b506001600160a01b03813581169160208101358216916040820135169060600135611131565b005b61026b611373565b604080516001600160a01b039092168252519081900360200190f35b60018054604080516020600284861615610100026000190190941693909304601f8101849004840282018401909252818152929183018282801561030c5780601f106102e15761010080835404028352916020019161030c565b820191906000526020600020905b8154815290600101906020018083116102ef57829003601f168201915b505050505081565b6000806000803390506000816001600160a01b03166356ba88b86040518163ffffffff1660e01b815260040160206040518083038186803b15801561035857600080fd5b505afa15801561036c573d6000803e3d6000fd5b505050506040513d602081101561038257600080fd5b5051600054604080516313bc6d4b60e01b81526001600160a01b03808516600483015291519394509116916313bc6d4b91602480820192602092909190829003018186803b1580156103d357600080fd5b505afa1580156103e7573d6000803e3d6000fd5b505050506040513d60208110156103fd57600080fd5b5051610450576040805162461bcd60e51b815260206004820152601b60248201527f4f6e6c7920612067617264656e2063616e2063616c6c20746869730000000000604482015290519081900360640190fd5b60408051633a82192560e01b815233600482015290516001600160a01b03831691633a821925916024808301926020929190829003018186803b15801561049657600080fd5b505afa1580156104aa573d6000803e3d6000fd5b505050506040513d60208110156104c057600080fd5b5051610513576040805162461bcd60e51b815260206004820152601960248201527f53656e646572206d757374206265206120737472617465677900000000000000604482015290519081900360640190fd5b670de0b6b3a7640000891115610570576040805162461bcd60e51b815260206004820152601960248201527f556e77696e642050657263656e74616765203c3d203130302500000000000000604482015290519081900360640190fd5b856001600160a01b0316631da649cf338a8b6001600160a01b031660006001600160a01b03161461062b57604080517f70a0823100000000000000000000000000000000000000000000000000000000815233600482015290516001600160a01b038e16916370a08231916024808301926020929190829003018186803b1580156105fa57600080fd5b505afa15801561060e573d6000803e3d6000fd5b505050506040513d602081101561062457600080fd5b505161062e565b33315b6040518463ffffffff1660e01b815260040180846001600160a01b03168152602001836001600160a01b031681526020018281526020019350505050600060405180830381600087803b15801561068457600080fd5b505af1158015610698573d6000803e3d6000fd5b50506040805163118e31b760e01b81523360048201526001600160a01b03808d16602483015291518c9450918a16925063118e31b7916044808301926020929190829003018186803b1580156106ed57600080fd5b505afa158015610701573d6000803e3d6000fd5b505050506040513d602081101561071757600080fd5b5051909d909c5060029b509950505050505050505050565b60018054604080516020601f600260001961010087891615020190951694909404938401819004810282018101909252828152606093909290918301828280156107ba5780601f1061078f576101008083540402835291602001916107ba565b820191906000526020600020905b81548152906001019060200180831161079d57829003601f168201915b5050505050905090565b60008060003390506000816001600160a01b03166356ba88b86040518163ffffffff1660e01b815260040160206040518083038186803b15801561080757600080fd5b505afa15801561081b573d6000803e3d6000fd5b505050506040513d602081101561083157600080fd5b5051600054604080516313bc6d4b60e01b81526001600160a01b03808516600483015291519394509116916313bc6d4b91602480820192602092909190829003018186803b15801561088257600080fd5b505afa158015610896573d6000803e3d6000fd5b505050506040513d60208110156108ac57600080fd5b50516108ff576040805162461bcd60e51b815260206004820152601b60248201527f4f6e6c7920612067617264656e2063616e2063616c6c20746869730000000000604482015290519081900360640190fd5b60408051633a82192560e01b815233600482015290516001600160a01b03831691633a821925916024808301926020929190829003018186803b15801561094557600080fd5b505afa158015610959573d6000803e3d6000fd5b505050506040513d602081101561096f57600080fd5b50516109c2576040805162461bcd60e51b815260206004820152601960248201527f53656e646572206d757374206265206120737472617465677900000000000000604482015290519081900360640190fd5b336001600160a01b031663e4df5e1a6040518163ffffffff1660e01b815260040160206040518083038186803b1580156109fb57600080fd5b505afa158015610a0f573d6000803e3d6000fd5b505050506040513d6020811015610a2557600080fd5b5051610a38576000600193509350610c25565b6040805163118e31b760e01b81523360048201526001600160a01b038981166024830152915160009288169163118e31b7916044808301926020929190829003018186803b158015610a8957600080fd5b505afa158015610a9d573d6000803e3d6000fd5b505050506040513d6020811015610ab357600080fd5b5051604080517ff85cb5c80000000000000000000000000000000000000000000000000000000081529051919250600091610b4b916001600160a01b038b169163f85cb5c891600480820192602092909190829003018186803b158015610b1957600080fd5b505afa158015610b2d573d6000803e3d6000fd5b505050506040513d6020811015610b4357600080fd5b50518a611382565b90506000610bc882610bc28c8c6001600160a01b031663f85cb5c86040518163ffffffff1660e01b815260040160206040518083038186803b158015610b9057600080fd5b505afa158015610ba4573d6000803e3d6000fd5b505050506040513d6020811015610bba57600080fd5b5051876114f1565b906116b8565b905080610c1c576040805162461bcd60e51b815260206004820152601e60248201527f4e41562068617320746f20626520646966666572656e74207468616e20300000604482015290519081900360640190fd5b95506000945050505b5050935093915050565b6000806000803390506000816001600160a01b03166356ba88b86040518163ffffffff1660e01b815260040160206040518083038186803b158015610c7357600080fd5b505afa158015610c87573d6000803e3d6000fd5b505050506040513d6020811015610c9d57600080fd5b5051600054604080516313bc6d4b60e01b81526001600160a01b03808516600483015291519394509116916313bc6d4b91602480820192602092909190829003018186803b158015610cee57600080fd5b505afa158015610d02573d6000803e3d6000fd5b505050506040513d6020811015610d1857600080fd5b5051610d6b576040805162461bcd60e51b815260206004820152601b60248201527f4f6e6c7920612067617264656e2063616e2063616c6c20746869730000000000604482015290519081900360640190fd5b60408051633a82192560e01b815233600482015290516001600160a01b03831691633a821925916024808301926020929190829003018186803b158015610db157600080fd5b505afa158015610dc5573d6000803e3d6000fd5b505050506040513d6020811015610ddb57600080fd5b5051610e2e576040805162461bcd60e51b815260206004820152601960248201527f53656e646572206d757374206265206120737472617465677900000000000000604482015290519081900360640190fd5b60008a118015610e4157508860ff166001145b8015610e5f5750876001600160a01b03168b6001600160a01b031614155b8015610efe5750604080517fb7d5820b0000000000000000000000000000000000000000000000000000000081523360048201526001600160a01b038d81166024830152915160009289169163b7d5820b916044808301926020929190829003018186803b158015610ed057600080fd5b505afa158015610ee4573d6000803e3d6000fd5b505050506040513d6020811015610efa57600080fd5b5051115b610f4f576040805162461bcd60e51b815260206004820152601d60248201527f5468657265206973206e6f20636f6c6c61746572616c206c6f636b6564000000604482015290519081900360640190fd5b6000610f5b8c8a611382565b90506000610fd7886001600160a01b0316638dc441836040518163ffffffff1660e01b815260040160206040518083038186803b158015610f9b57600080fd5b505afa158015610faf573d6000803e3d6000fd5b505050506040513d6020811015610fc557600080fd5b5051610fd18e856116d6565b906116d6565b90506000610fe68e8c846114f1565b604080517f5224372c0000000000000000000000000000000000000000000000000000000081523360048201526001600160a01b038e81166024830152604482018490529151929350908b1691635224372c9160648082019260009290919082900301818387803b15801561105a57600080fd5b505af115801561106e573d6000803e3d6000fd5b505050506001600160a01b038b1615611087578a61109d565b73c02aaa39b223fe8d0a0e5c4f27ead9083c756cc25b9a508a8b6001600160a01b03166370a08231336040518263ffffffff1660e01b815260040180826001600160a01b0316815260200191505060206040518083038186803b1580156110ed57600080fd5b505afa158015611101573d6000803e3d6000fd5b505050506040513d602081101561111757600080fd5b5051909f909e5060009d509b505050505050505050505050565b60003390506000816001600160a01b03166356ba88b86040518163ffffffff1660e01b815260040160206040518083038186803b15801561117157600080fd5b505afa158015611185573d6000803e3d6000fd5b505050506040513d602081101561119b57600080fd5b5051600054604080516313bc6d4b60e01b81526001600160a01b03808516600483015291519394509116916313bc6d4b91602480820192602092909190829003018186803b1580156111ec57600080fd5b505afa158015611200573d6000803e3d6000fd5b505050506040513d602081101561121657600080fd5b5051611269576040805162461bcd60e51b815260206004820152601b60248201527f4f6e6c7920612067617264656e2063616e2063616c6c20746869730000000000604482015290519081900360640190fd5b60408051633a82192560e01b815233600482015290516001600160a01b03831691633a821925916024808301926020929190829003018186803b1580156112af57600080fd5b505afa1580156112c3573d6000803e3d6000fd5b505050506040513d60208110156112d957600080fd5b505161132c576040805162461bcd60e51b815260206004820152601960248201527f53656e646572206d757374206265206120737472617465677900000000000000604482015290519081900360640190fd5b6000831161136b5760405162461bcd60e51b815260040180806020018281038252603b81526020018061182d603b913960400191505060405180910390fd5b505050505050565b6000546001600160a01b031681565b60008054604080517f2630c12f000000000000000000000000000000000000000000000000000000008152905183926001600160a01b031691632630c12f916004808301926020929190829003018186803b1580156113e057600080fd5b505afa1580156113f4573d6000803e3d6000fd5b505050506040513d602081101561140a57600080fd5b505190506001600160a01b038082169063ac41865a9086161561142d5785611443565b73c02aaa39b223fe8d0a0e5c4f27ead9083c756cc25b6001600160a01b03861615611458578561146e565b73c02aaa39b223fe8d0a0e5c4f27ead9083c756cc25b6040518363ffffffff1660e01b815260040180836001600160a01b03168152602001826001600160a01b031681526020019250505060206040518083038186803b1580156114bb57600080fd5b505afa1580156114cf573d6000803e3d6000fd5b505050506040513d60208110156114e557600080fd5b50519150505b92915050565b6000806001600160a01b0385161561156d57846001600160a01b031663313ce5676040518163ffffffff1660e01b815260040160206040518083038186803b15801561153c57600080fd5b505afa158015611550573d6000803e3d6000fd5b505050506040513d602081101561156657600080fd5b5051611570565b60125b60ff16905060006001600160a01b038516156115f057846001600160a01b031663313ce5676040518163ffffffff1660e01b815260040160206040518083038186803b1580156115bf57600080fd5b505afa1580156115d3573d6000803e3d6000fd5b505050506040513d60208110156115e957600080fd5b50516115f3565b60125b60ff1690506012821115801561160a575060128111155b61165b576040805162461bcd60e51b815260206004820152601460248201527f556e737570706f7274656420646563696d616c73000000000000000000000000604482015290519081900360640190fd5b8082141561166d5783925050506116b1565b818111156116955761168c61168282846116ee565b8590600a0a61174b565b925050506116b1565b6116ac6116a283836116ee565b8590600a0a6117a4565b925050505b9392505050565b60006116b1826116d085670de0b6b3a764000061174b565b906117a4565b60006116b1670de0b6b3a76400006116d0858561174b565b600082821115611745576040805162461bcd60e51b815260206004820152601e60248201527f536166654d6174683a207375627472616374696f6e206f766572666c6f770000604482015290519081900360640190fd5b50900390565b60008261175a575060006114eb565b8282028284828161176757fe5b04146116b15760405162461bcd60e51b815260040180806020018281038252602181526020018061180c6021913960400191505060405180910390fd5b60008082116117fa576040805162461bcd60e51b815260206004820152601a60248201527f536166654d6174683a206469766973696f6e206279207a65726f000000000000604482015290519081900360640190fd5b81838161180357fe5b04939250505056fe536166654d6174683a206d756c7469706c69636174696f6e206f766572666c6f77546865206f7065726174696f6e2063616e6e6f74206265207468652066697273742e204e6565647320746f2062652061206c656e64206669727374a2646970667358221220a83809c7c3e4d7f03e93d2a47b3a6417dc5d2de81e45748cf7c608b079b4537e64736f6c63430007060033",
  "devdoc": {
    "author": "Babylon Finance Executes a borrow operation",
    "kind": "dev",
    "methods": {
      "constructor": {
        "params": {
          "_controller": "Address of the controller",
          "_name": "Name of the integration"
        }
      },
      "executeOperation(address,uint256,uint8,address,address,address)": {
        "params": {
          "_asset": "Asset to receive into this operation",
          "_assetStatus": "Status of the asset amount",
          "_borrowToken": "Token to borrow param _garden              Garden of the strategy",
          "_capital": "Amount of asset received",
          "_integration": "Address of the integration to execute"
        }
      },
      "exitOperation(address,uint256,uint8,uint256,address,address,address)": {
        "params": {
          "_percentage": "of capital to exit from the strategy"
        }
      },
      "getNAV(address,address,address)": {
        "params": {
          "_assetToken": "Asset borrowed",
          "_garden": "Garden the strategy belongs to",
          "_integration": "Status of the asset amount"
        },
        "returns": {
          "_0": "_nav               NAV of the strategy"
        }
      },
      "validateOperation(address,address,address,uint256)": {
        "params": {
          "_index": "Index of this operation"
        }
      }
    },
    "title": "LendOperatin",
    "version": 1
  },
  "userdoc": {
    "kind": "user",
    "methods": {
      "constructor": {
        "notice": "Creates the integration"
      },
      "executeOperation(address,uint256,uint8,address,address,address)": {
        "notice": "Executes the borrow operation"
      },
      "exitOperation(address,uint256,uint8,uint256,address,address,address)": {
        "notice": "Exits the borrow operation."
      },
      "getNAV(address,address,address)": {
        "notice": "Gets the NAV of the lend op in the reserve asset"
      },
      "getName()": {
        "notice": "Returns the name of the operation"
      },
      "validateOperation(address,address,address,uint256)": {
        "notice": "Sets operation data for the borrow operation param _data                   Operation data param _garden                 Garden param _integration            Integration used"
      }
    },
    "version": 1
  },
  "storageLayout": {
    "storage": [
      {
        "astId": 37947,
        "contract": "contracts/strategies/operations/BorrowOperation.sol:BorrowOperation",
        "label": "controller",
        "offset": 0,
        "slot": "0",
        "type": "t_address"
      },
      {
        "astId": 37949,
        "contract": "contracts/strategies/operations/BorrowOperation.sol:BorrowOperation",
        "label": "name",
        "offset": 0,
        "slot": "1",
        "type": "t_string_storage"
      }
    ],
    "types": {
      "t_address": {
        "encoding": "inplace",
        "label": "address",
        "numberOfBytes": "20"
      },
      "t_string_storage": {
        "encoding": "bytes",
        "label": "string",
        "numberOfBytes": "32"
      }
    }
  }
}