{
  "address": "0x4d44e813d5A4A8562fEA263C7c0a945a92f0a384",
  "abi": [
    {
      "inputs": [
        {
          "internalType": "contract IBabController",
          "name": "_controller",
          "type": "address"
        },
        {
          "internalType": "address",
          "name": "_weth",
          "type": "address"
        }
      ],
      "stateMutability": "nonpayable",
      "type": "constructor"
    },
    {
      "anonymous": false,
      "inputs": [
        {
          "indexed": true,
          "internalType": "address",
          "name": "garden",
          "type": "address"
        },
        {
          "indexed": true,
          "internalType": "address",
          "name": "strategy",
          "type": "address"
        },
        {
          "indexed": true,
          "internalType": "address",
          "name": "assetToken",
          "type": "address"
        },
        {
          "indexed": false,
          "internalType": "uint256",
          "name": "numTokensToRedeem",
          "type": "uint256"
        },
        {
          "indexed": false,
          "internalType": "uint256",
          "name": "protocolFee",
          "type": "uint256"
        }
      ],
      "name": "TokensRedeemed",
      "type": "event"
    },
    {
      "anonymous": false,
      "inputs": [
        {
          "indexed": true,
          "internalType": "address",
          "name": "garden",
          "type": "address"
        },
        {
          "indexed": true,
          "internalType": "address",
          "name": "strategy",
          "type": "address"
        },
        {
          "indexed": true,
          "internalType": "address",
          "name": "assetToken",
          "type": "address"
        },
        {
          "indexed": false,
          "internalType": "uint256",
          "name": "numTokensToSupply",
          "type": "uint256"
        }
      ],
      "name": "TokensSupplied",
      "type": "event"
    },
    {
      "inputs": [
        {
          "internalType": "address",
          "name": "",
          "type": "address"
        }
      ],
      "name": "assetToCToken",
      "outputs": [
        {
          "internalType": "address",
          "name": "",
          "type": "address"
        }
      ],
      "stateMutability": "view",
      "type": "function"
    },
    {
      "inputs": [],
      "name": "controller",
      "outputs": [
        {
          "internalType": "contract IBabController",
          "name": "",
          "type": "address"
        }
      ],
      "stateMutability": "view",
      "type": "function"
    },
    {
      "inputs": [
        {
          "internalType": "address",
          "name": "_assetToken",
          "type": "address"
        }
      ],
      "name": "getExchangeRatePerToken",
      "outputs": [
        {
          "internalType": "uint256",
          "name": "",
          "type": "uint256"
        }
      ],
      "stateMutability": "view",
      "type": "function"
    },
    {
      "inputs": [
        {
          "internalType": "address",
          "name": "_assetToken",
          "type": "address"
        },
        {
          "internalType": "uint256",
          "name": "_numTokensToSupply",
          "type": "uint256"
        }
      ],
      "name": "getExpectedShares",
      "outputs": [
        {
          "internalType": "uint256",
          "name": "",
          "type": "uint256"
        }
      ],
      "stateMutability": "view",
      "type": "function"
    },
    {
      "inputs": [
        {
          "internalType": "address",
          "name": "_assetToken",
          "type": "address"
        }
      ],
      "name": "getInvestmentToken",
      "outputs": [
        {
          "internalType": "address",
          "name": "",
          "type": "address"
        }
      ],
      "stateMutability": "view",
      "type": "function"
    },
    {
      "inputs": [
        {
          "internalType": "address",
          "name": "_address",
          "type": "address"
        },
        {
          "internalType": "address",
          "name": "_assetToken",
          "type": "address"
        }
      ],
      "name": "getInvestmentTokenAmount",
      "outputs": [
        {
          "internalType": "uint256",
          "name": "",
          "type": "uint256"
        }
      ],
      "stateMutability": "view",
      "type": "function"
    },
    {
      "inputs": [],
      "name": "getName",
      "outputs": [
        {
          "internalType": "string",
          "name": "",
          "type": "string"
        }
      ],
      "stateMutability": "view",
      "type": "function"
    },
    {
      "inputs": [
        {
          "internalType": "address",
          "name": "",
          "type": "address"
        }
      ],
      "name": "initializedByGarden",
      "outputs": [
        {
          "internalType": "bool",
          "name": "",
          "type": "bool"
        }
      ],
      "stateMutability": "view",
      "type": "function"
    },
    {
      "inputs": [
        {
          "internalType": "address",
          "name": "_investmentAddress",
          "type": "address"
        }
      ],
      "name": "isInvestment",
      "outputs": [
        {
          "internalType": "bool",
          "name": "",
          "type": "bool"
        }
      ],
      "stateMutability": "view",
      "type": "function"
    },
    {
      "inputs": [],
      "name": "name",
      "outputs": [
        {
          "internalType": "string",
          "name": "",
          "type": "string"
        }
      ],
      "stateMutability": "view",
      "type": "function"
    },
    {
      "inputs": [
        {
          "internalType": "address",
          "name": "_strategy",
          "type": "address"
        },
        {
          "internalType": "address",
          "name": "_assetToken",
          "type": "address"
        },
        {
          "internalType": "uint256",
          "name": "_numTokensToRedeem",
          "type": "uint256"
        },
        {
          "internalType": "uint256",
          "name": "_minAmountExpected",
          "type": "uint256"
        }
      ],
      "name": "redeemTokens",
      "outputs": [],
      "stateMutability": "nonpayable",
      "type": "function"
    },
    {
      "inputs": [
        {
          "internalType": "address",
          "name": "_strategy",
          "type": "address"
        },
        {
          "internalType": "address",
          "name": "_assetToken",
          "type": "address"
        },
        {
          "internalType": "uint256",
          "name": "_numTokensToSupply",
          "type": "uint256"
        },
        {
          "internalType": "uint256",
          "name": "_minAmountExpected",
          "type": "uint256"
        }
      ],
      "name": "supplyTokens",
      "outputs": [],
      "stateMutability": "nonpayable",
      "type": "function"
    },
    {
      "inputs": [
        {
          "internalType": "address",
          "name": "_assetAddress",
          "type": "address"
        },
        {
          "internalType": "address",
          "name": "_cTokenAddress",
          "type": "address"
        }
      ],
      "name": "updateCTokenMapping",
      "outputs": [],
      "stateMutability": "nonpayable",
      "type": "function"
    },
    {
      "inputs": [],
      "name": "weth",
      "outputs": [
        {
          "internalType": "address",
          "name": "",
          "type": "address"
        }
      ],
      "stateMutability": "view",
      "type": "function"
    }
  ],
  "transactionHash": "0xcdc8ad2cf5f68b94a8c60dafc519baca2647d3652acb9abc91756ac401f940c8",
  "args": [
    "0xD4a5b5fcB561dAF3aDF86F8477555B92FBa43b5F",
    "0xC02aaA39b223FE8D0A0e5C4F27eAD9083C756Cc2"
  ],
  "solcInputHash": "031aeaf93d736e843a479d8863a4b686",
  "bytecode": "0x60a06040523480156200001157600080fd5b506040516200229b3803806200229b833981810160405260408110156200003757600080fd5b50805160209182015160408051808201909152600c81526b18dbdb5c1bdd5b991b195b9960a21b93810193909352909181838282826001600160a01b038116620000c8576040805162461bcd60e51b815260206004820152601a60248201527f436f6e74726f6c6c6572206d75737420626520646566696e6564000000000000604482015290519081900360640190fd5b8251620000dd9060019060208601906200045b565b50600080546001600160a01b039092166001600160a01b03199283161781556001600160601b031960609390931b92909216608052600160035560046020527f1f26cc04db5725a6013f9a871c79fcbf894bb366deda2d7526896a3d7f7bf1e680548216735d3a536e4d6dbd6114cc1ead35777bab948e36431790557f7ad6a3b7b68a4f5cf66df337fd5942d7c746b3a5d321592ec5762ec798359679805482167335a18000230da775cac24873d00ff85bccded5501790557f17ef568e3e12ab5b9c7254a8d58478811de00f9e6eb34345acd53bf8fd09d3ec80548216734ddc2d193948926d02f9b1fe9e1daa0718270ed51790557f2216881abda8ce28bb79ec6ad24ecf589e0594fff84ade38d82ca32ec9eff5c6805482167339aa39c021dfbae8fac545936693ac917d5e75631790557fce6b0bb3482d6fcd115ad33ec4464c30e4c8b24ec6e3e5aa13819b39c576a85c8054821673f650c3d88d12db855b8bf7d11be6c55a4e07dcc91790557fdcea66f53103f73a3eee020f324bf4679e60b5665cd91d355a9467ab00173ae48054821673ccf4429db6322d5c611ee964527d42e5d685dd6a1790557f10d76dfe0f3b809fe9d2b2241c0475e8ec5f5344571bd48e8a64f26f4f47c64b805482167370e36f6bf80a52b3b46b3af8e106cc0ed743e8e41790557fb7bcb9b3bd6921b7c1145b4621892f09e0476b0950c014c9d5d9021b52d2e92680548216736c8c6b02e7b2be14d4fa6022dfd6d75921d90e4e1790557febb842796419b49d0fcc7cc3e1cfa3a00e6d8e3c2f2099d4249f3f97c10267998054821673face851a4921ce59e912d19329929ce6da6eb0c71790557f04d8f72cb3fc882a5a6b6b7c9a9dcbcfdd6ce51e5085ccaf6b060f01dc8b7dab8054821673158079ee67fce2f58472a96584a73c7ab9ac95c11790557f50e3cb9945e3b71f914e3d77ec3caacd14c686ae21ca2a51ab9715c0e4c0e9498054821673f5dce57282a584d2746faf1593d3121fcac444dc1790557fb12235716996ffd0d21b94afa47a028192faf8ddc5224919b8548ae0fda820f6805482167312392f67bdf24fae0af363c24ac620a2f67dad8617905573e41d2489571d322189246dafa5ebde1f4699f4989091527f30e05cc8bdb94270b43ac20d3bd2c196672b032ca560add426e611b186a547b9805490911673b3319f5d18bc0d84dd1b4825dcde5d5f7266d4071790555062000507945050505050565b828054600181600116156101000203166002900490600052602060002090601f016020900481019282620004935760008555620004de565b82601f10620004ae57805160ff1916838001178555620004de565b82800160010185558215620004de579182015b82811115620004de578251825591602001919060010190620004c1565b50620004ec929150620004f0565b5090565b5b80821115620004ec5760008155600101620004f1565b60805160601c611d7662000525600039806104d85250611d766000f3fe608060405234801561001057600080fd5b50600436106100ea5760003560e01c8063912a18571161008c578063d0d2d3a211610066578063d0d2d3a2146102e0578063eb40e6001461031c578063f14b578814610342578063f77c47911461037e576100ea565b8063912a1857146102505780639e12fef214610280578063b10198fb146102ba576100ea565b80633550bd62116100c85780633550bd62146101ac5780633fc8cef3146101ee5780634deef649146101f65780637137f55214610222576100ea565b806306fdde03146100ef57806307b54c6f1461016c57806317d7de7c146101a4575b600080fd5b6100f7610386565b6040805160208082528351818301528351919283929083019185019080838360005b83811015610131578181015183820152602001610119565b50505050905090810190601f16801561015e5780820380516001836020036101000a031916815260200191505b509250505060405180910390f35b6101926004803603602081101561018257600080fd5b50356001600160a01b0316610413565b60408051918252519081900360200190f35b6100f7610426565b6101d2600480360360208110156101c257600080fd5b50356001600160a01b03166104bb565b604080516001600160a01b039092168252519081900360200190f35b6101d26104d6565b6101926004803603604081101561020c57600080fd5b506001600160a01b0381351690602001356104fa565b6101926004803603604081101561023857600080fd5b506001600160a01b038135811691602001351661050f565b61027e6004803603604081101561026657600080fd5b506001600160a01b0381358116916020013516610634565b005b6102a66004803603602081101561029657600080fd5b50356001600160a01b031661074e565b604080519115158252519081900360200190f35b6102a6600480360360208110156102d057600080fd5b50356001600160a01b0316610759565b61027e600480360360808110156102f657600080fd5b506001600160a01b0381358116916020810135909116906040810135906060013561076e565b6101d26004803603602081101561033257600080fd5b50356001600160a01b0316610cd1565b61027e6004803603608081101561035857600080fd5b506001600160a01b03813581169160208101359091169060408101359060600135610cdc565b6101d2611262565b60018054604080516020600284861615610100026000190190941693909304601f8101849004840282018401909252818152929183018282801561040b5780601f106103e05761010080835404028352916020019161040b565b820191906000526020600020905b8154815290600101906020018083116103ee57829003601f168201915b505050505081565b600061041e82611271565b90505b919050565b60018054604080516020601f600260001961010087891615020190951694909404938401819004810282018101909252828152606093909290918301828280156104b15780601f10610486576101008083540402835291602001916104b1565b820191906000526020600020905b81548152906001019060200180831161049457829003601f168201915b5050505050905090565b6004602052600090815260409020546001600160a01b031681565b7f000000000000000000000000000000000000000000000000000000000000000081565b600061050683836113cf565b90505b92915050565b60008061051b836113f3565b905061062c670de0b6b3a7640000610626836001600160a01b031663182df0f56040518163ffffffff1660e01b815260040160206040518083038186803b15801561056557600080fd5b505afa158015610579573d6000803e3d6000fd5b505050506040513d602081101561058f57600080fd5b5051604080517f70a082310000000000000000000000000000000000000000000000000000000081526001600160a01b038a811660048301529151918716916370a0823191602480820192602092909190829003018186803b1580156105f457600080fd5b505afa158015610608573d6000803e3d6000fd5b505050506040513d602081101561061e57600080fd5b505190611411565b9061146a565b949350505050565b60008054906101000a90046001600160a01b03166001600160a01b0316638da5cb5b6040518163ffffffff1660e01b815260040160206040518083038186803b15801561068057600080fd5b505afa158015610694573d6000803e3d6000fd5b505050506040513d60208110156106aa57600080fd5b50516001600160a01b03163314610708576040805162461bcd60e51b815260206004820152601d60248201527f4f6e6c7920676f7665726e616e63652063616e2063616c6c2074686973000000604482015290519081900360640190fd5b6001600160a01b03918216600090815260046020526040902080547fffffffffffffffffffffffff00000000000000000000000000000000000000001691909216179055565b600061041e826114d1565b60026020526000908152604090205460ff1681565b600260035414156107c6576040805162461bcd60e51b815260206004820152601f60248201527f5265656e7472616e637947756172643a207265656e7472616e742063616c6c00604482015290519081900360640190fd5b6002600355600054604080516313bc6d4b60e01b815233600482015290516001600160a01b03909216916313bc6d4b91602480820192602092909190829003018186803b15801561081657600080fd5b505afa15801561082a573d6000803e3d6000fd5b505050506040513d602081101561084057600080fd5b5051610893576040805162461bcd60e51b815260206004820152601960248201527f4f6e6c792073797374656d2063616e2063616c6c207468697300000000000000604482015290519081900360640190fd5b60006108aa85856108a3876113f3565b86866114f1565b90506108b5816115cc565b60008060006108c6878760016116a1565b919450925090506001600160a01b03831615610a905783600001516001600160a01b0316636bc195dd8484846040518463ffffffff1660e01b815260040180846001600160a01b0316815260200183815260200180602001828103825283818151815260200191508051906020019080838360005b8381101561095357818101518382015260200161093b565b50505050905090810190601f1680156109805780820380516001836020036101000a031916815260200191505b50945050505050600060405180830381600087803b1580156109a157600080fd5b505af11580156109b5573d6000803e3d6000fd5b505050506040513d6000823e601f3d908101601f1916820160405260208110156109de57600080fd5b81019080805160405193929190846401000000008211156109fe57600080fd5b908301906020820185811115610a1357600080fd5b8251640100000000811182820188101715610a2d57600080fd5b82525081516020918201929091019080838360005b83811015610a5a578181015183820152602001610a42565b50505050905090810190601f168015610a875780820380516001836020036101000a031916815260200191505b50604052505050505b6000806000610aa08b8b8b6117e5565b92509250925086600001516001600160a01b0316636bc195dd8484846040518463ffffffff1660e01b815260040180846001600160a01b0316815260200183815260200180602001828103825283818151815260200191508051906020019080838360005b83811015610b1d578181015183820152602001610b05565b50505050905090810190601f168015610b4a5780820380516001836020036101000a031916815260200191505b50945050505050600060405180830381600087803b158015610b6b57600080fd5b505af1158015610b7f573d6000803e3d6000fd5b505050506040513d6000823e601f3d908101601f191682016040526020811015610ba857600080fd5b8101908080516040519392919084640100000000821115610bc857600080fd5b908301906020820185811115610bdd57600080fd5b8251640100000000811182820188101715610bf757600080fd5b82525081516020918201929091019080838360005b83811015610c24578181015183820152602001610c0c565b50505050905090810190601f168015610c515780820380516001836020036101000a031916815260200191505b5060405250505050610c6287611858565b896001600160a01b031687600001516001600160a01b031688602001516001600160a01b03167fd17d95895382b096bb1f89ed05a71c3e014d5ecf25944c8f1f27f07b2b9d31948c6040518082815260200191505060405180910390a450506001600355505050505050505050565b600061041e826113f3565b60026003541415610d34576040805162461bcd60e51b815260206004820152601f60248201527f5265656e7472616e637947756172643a207265656e7472616e742063616c6c00604482015290519081900360640190fd5b6002600355600054604080516313bc6d4b60e01b815233600482015290516001600160a01b03909216916313bc6d4b91602480820192602092909190829003018186803b158015610d8457600080fd5b505afa158015610d98573d6000803e3d6000fd5b505050506040513d6020811015610dae57600080fd5b5051610e01576040805162461bcd60e51b815260206004820152601960248201527f4f6e6c792073797374656d2063616e2063616c6c207468697300000000000000604482015290519081900360640190fd5b6000610e1185856108a3876113f3565b9050610e1c81611950565b6000806000610e2d878760006116a1565b919450925090506001600160a01b03831615610ff75783600001516001600160a01b0316636bc195dd8484846040518463ffffffff1660e01b815260040180846001600160a01b0316815260200183815260200180602001828103825283818151815260200191508051906020019080838360005b83811015610eba578181015183820152602001610ea2565b50505050905090810190601f168015610ee75780820380516001836020036101000a031916815260200191505b50945050505050600060405180830381600087803b158015610f0857600080fd5b505af1158015610f1c573d6000803e3d6000fd5b505050506040513d6000823e601f3d908101601f191682016040526020811015610f4557600080fd5b8101908080516040519392919084640100000000821115610f6557600080fd5b908301906020820185811115610f7a57600080fd5b8251640100000000811182820188101715610f9457600080fd5b82525081516020918201929091019080838360005b83811015610fc1578181015183820152602001610fa9565b50505050905090810190601f168015610fee5780820380516001836020036101000a031916815260200191505b50604052505050505b6001600160a01b038716156110905783516001600160a01b03166397ccdc6061101f896113f3565b89896040518463ffffffff1660e01b815260040180846001600160a01b03168152602001836001600160a01b031681526020018281526020019350505050600060405180830381600087803b15801561107757600080fd5b505af115801561108b573d6000803e3d6000fd5b505050505b60008060006110a08b8b8b6119db565b92509250925086600001516001600160a01b0316636bc195dd8484846040518463ffffffff1660e01b815260040180846001600160a01b0316815260200183815260200180602001828103825283818151815260200191508051906020019080838360005b8381101561111d578181015183820152602001611105565b50505050905090810190601f16801561114a5780820380516001836020036101000a031916815260200191505b50945050505050600060405180830381600087803b15801561116b57600080fd5b505af115801561117f573d6000803e3d6000fd5b505050506040513d6000823e601f3d908101601f1916820160405260208110156111a857600080fd5b81019080805160405193929190846401000000008211156111c857600080fd5b9083019060208201858111156111dd57600080fd5b82516401000000008111828201881017156111f757600080fd5b82525081516020918201929091019080838360005b8381101561122457818101518382015260200161120c565b50505050905090810190601f1680156112515780820380516001836020036101000a031916815260200191505b5060405250505050610c6287611b03565b6000546001600160a01b031681565b6001600160a01b0380821660009081526004602081815260408084205481517f182df0f50000000000000000000000000000000000000000000000000000000081529151949516938593859363182df0f59380830193919290829003018186803b1580156112de57600080fd5b505afa1580156112f2573d6000803e3d6000fd5b505050506040513d602081101561130857600080fd5b5051905060006001600160a01b0385161561138757846001600160a01b031663313ce5676040518163ffffffff1660e01b815260040160206040518083038186803b15801561135657600080fd5b505afa15801561136a573d6000803e3d6000fd5b505050506040513d602081101561138057600080fd5b505161138a565b60125b905060088160ff1610156113b95760ff6008829003166113ae83600a83900a611411565b945050505050610421565b60ff6007198201166113ae83600a83900a61146a565b6000806113db84611271565b905061062c670de0b6b3a76400006106268386611411565b6001600160a01b039081166000908152600460205260409020541690565b60008261142057506000610509565b8282028284828161142d57fe5b04146105065760405162461bcd60e51b8152600401808060200182810382526021815260200180611cc96021913960400191505060405180910390fd5b60008082116114c0576040805162461bcd60e51b815260206004820152601a60248201527f536166654d6174683a206469766973696f6e206279207a65726f000000000000604482015290519081900360640190fd5b8183816114c957fe5b049392505050565b6001600160a01b0390811660009081526004602052604090205416151590565b6114f9611bc5565b611501611bc5565b6001600160a01b038716808252604080517f56ba88b800000000000000000000000000000000000000000000000000000000815290516356ba88b891600480820192602092909190829003018186803b15801561155d57600080fd5b505afa158015611571573d6000803e3d6000fd5b505050506040513d602081101561158757600080fd5b50516001600160a01b0390811660208301528681166040830152851660608201526115b2878761050f565b60a082015260808101939093525060c08201529392505050565b6115d981604001516114d1565b6116145760405162461bcd60e51b8152600401808060200182810382526023815260200180611d1e6023913960400191505060405180910390fd5b60008160800151116116575760405162461bcd60e51b8152600401808060200182810382526034815260200180611cea6034913960400191505060405180910390fd5b80608001518160a00151101561169e5760405162461bcd60e51b8152600401808060200182810382526031815260200180611c026031913960400191505060405180910390fd5b50565b6000806060836117c557604080516001808252818301909252600091602080830190803683375050506001600160a01b038881166000908152600460205260408120548351939450909116918391906116f657fe5b6001600160a01b0390921660209283029190910182015260405160248101828152835160448301528351600093859383926064909101918581019102808383895b8381101561174f578181015183820152602001611737565b50506040805193909501838103601f19018452909452506020810180517fc2998238000000000000000000000000000000000000000000000000000000006001600160e01b03909116179052733d9819210a31b4961b30ef54be2aed79b9c9cd3b9a506000995097506117dc9650505050505050565b505060408051602081019091526000808252915081905b93509350939050565b60408051602480820193909352815180820390930183526044018152602080830180516001600160e01b03167f852a12e3000000000000000000000000000000000000000000000000000000001790526001600160a01b0393841660009081526004909152908120549092169391925090565b60408101516000906001600160a01b0316156118f45781604001516001600160a01b03166370a0823183600001516040518263ffffffff1660e01b815260040180826001600160a01b0316815260200191505060206040518083038186803b1580156118c357600080fd5b505afa1580156118d7573d6000803e3d6000fd5b505050506040513d60208110156118ed57600080fd5b5051611901565b81516001600160a01b0316315b905081608001518260a001510381101561194c5760405162461bcd60e51b815260040180806020018281038252602f815260200180611c63602f913960400191505060405180910390fd5b5050565b61195d81604001516114d1565b6119985760405162461bcd60e51b8152600401808060200182810382526023815260200180611d1e6023913960400191505060405180910390fd5b600081608001511161169e5760405162461bcd60e51b8152600401808060200182810382526037815260200180611c926037913960400191505060405180910390fd5b6001600160a01b0382811660009081526004602052604081205490918291606091829116734ddc2d193948926d02f9b1fe9e1daa0718270ed51415611a6257506040805160048152602481019091526020810180516001600160e01b03167f1249c58b00000000000000000000000000000000000000000000000000000000179052611ab5565b506040805160248082018790528251808303909101815260449091019091526020810180516001600160e01b03167fa0712d68000000000000000000000000000000000000000000000000000000001790525b6001600160a01b0380871660009081526004602052604090205416734ddc2d193948926d02f9b1fe9e1daa0718270ed58114611af2576000611af4565b855b90989097509095509350505050565b8060a0015181606001516001600160a01b03166370a0823183600001516040518263ffffffff1660e01b815260040180826001600160a01b0316815260200191505060206040518083038186803b158015611b5d57600080fd5b505afa158015611b71573d6000803e3d6000fd5b505050506040513d6020811015611b8757600080fd5b50511161169e5760405162461bcd60e51b8152600401808060200182810382526030815260200180611c336030913960400191505060405180910390fd5b6040805160e081018252600080825260208201819052918101829052606081018290526080810182905260a0810182905260c08101919091529056fe5468652067617264656e20646f6573206e6f74206861766520656e6f75676820696e766573746d656e7420746f6b656e735468652067617264656e20646964206e6f7420726563656976652074686520696e766573746d656e7420746f6b656e735468652067617264656e20646964206e6f742072657475726e2074686520696e766573746d656e7420746f6b656e734d696e20696e766573746d656e7420746f6b656e7320746f2072656365697665206d7573742062652067726561746572207468616e2030536166654d6174683a206d756c7469706c69636174696f6e206f766572666c6f77496e766573746d656e7420746f6b656e7320746f2065786368616e6765206d7573742062652067726561746572207468616e203054686520696e766573746d656e742061646472657373206973206e6f742076616c6964a2646970667358221220d6570c1806bae36b765badbfa6222e9486eab7c81e7886bab81a9053a6b5c5e964736f6c63430007060033",
  "devdoc": {
    "author": "Babylon Finance Protocol Compound lend integration.",
    "kind": "dev",
    "methods": {
      "constructor": {
        "params": {
          "_controller": "Address of the controller",
          "_weth": "Address of the WETH ERC20"
        }
      },
      "getExpectedShares(address,uint256)": {
        "params": {
          "_numTokensToSupply": "Amount of ERC20 tokens to supply"
        },
        "returns": {
          "_0": "uint256                           Amount of supply tokens to receive"
        }
      },
      "isInvestment(address)": {
        "params": {
          "_investmentAddress": "Investment address to check"
        },
        "returns": {
          "_0": "bool                              True if the address is a investment"
        }
      }
    },
    "title": "CompoundLendIntegration",
    "version": 1
  },
  "userdoc": {
    "kind": "user",
    "methods": {
      "constructor": {
        "notice": "Creates the integration"
      },
      "getExpectedShares(address,uint256)": {
        "notice": "Gets the amount of cTokens expected to get after depositing ERC20 asset."
      },
      "getName()": {
        "notice": "Returns the name of the integration"
      },
      "isInvestment(address)": {
        "notice": "Checks whether an investment address is valid"
      }
    },
    "version": 1
  },
  "storageLayout": {
    "storage": [
      {
        "astId": 18504,
        "contract": "contracts/integrations/lend/CompoundLendIntegration.sol:CompoundLendIntegration",
        "label": "controller",
        "offset": 0,
        "slot": "0",
        "type": "t_contract(IBabController)25684"
      },
      {
        "astId": 18508,
        "contract": "contracts/integrations/lend/CompoundLendIntegration.sol:CompoundLendIntegration",
        "label": "name",
        "offset": 0,
        "slot": "1",
        "type": "t_string_storage"
      },
      {
        "astId": 18512,
        "contract": "contracts/integrations/lend/CompoundLendIntegration.sol:CompoundLendIntegration",
        "label": "initializedByGarden",
        "offset": 0,
        "slot": "2",
        "type": "t_mapping(t_address,t_bool)"
      },
      {
        "astId": 5859,
        "contract": "contracts/integrations/lend/CompoundLendIntegration.sol:CompoundLendIntegration",
        "label": "_status",
        "offset": 0,
        "slot": "3",
        "type": "t_uint256"
      },
      {
        "astId": 20333,
        "contract": "contracts/integrations/lend/CompoundLendIntegration.sol:CompoundLendIntegration",
        "label": "assetToCToken",
        "offset": 0,
        "slot": "4",
        "type": "t_mapping(t_address,t_address)"
      }
    ],
    "types": {
      "t_address": {
        "encoding": "inplace",
        "label": "address",
        "numberOfBytes": "20"
      },
      "t_bool": {
        "encoding": "inplace",
        "label": "bool",
        "numberOfBytes": "1"
      },
      "t_contract(IBabController)25684": {
        "encoding": "inplace",
        "label": "contract IBabController",
        "numberOfBytes": "20"
      },
      "t_mapping(t_address,t_address)": {
        "encoding": "mapping",
        "key": "t_address",
        "label": "mapping(address => address)",
        "numberOfBytes": "32",
        "value": "t_address"
      },
      "t_mapping(t_address,t_bool)": {
        "encoding": "mapping",
        "key": "t_address",
        "label": "mapping(address => bool)",
        "numberOfBytes": "32",
        "value": "t_bool"
      },
      "t_string_storage": {
        "encoding": "bytes",
        "label": "string",
        "numberOfBytes": "32"
      },
      "t_uint256": {
        "encoding": "inplace",
        "label": "uint256",
        "numberOfBytes": "32"
      }
    }
  }
}