{
  "address": "0xCfBA8914e3C543DEd1753a71999BEd53d169855D",
  "abi": [
    {
      "inputs": [
        {
          "internalType": "address",
          "name": "_controller",
          "type": "address"
        },
        {
          "internalType": "address",
          "name": "_weth",
          "type": "address"
        }
      ],
      "stateMutability": "nonpayable",
      "type": "constructor"
    },
    {
      "anonymous": false,
      "inputs": [
        {
          "indexed": true,
          "internalType": "address",
          "name": "garden",
          "type": "address"
        },
        {
          "indexed": true,
          "internalType": "address",
          "name": "strategy",
          "type": "address"
        },
        {
          "indexed": true,
          "internalType": "address",
          "name": "assetToken",
          "type": "address"
        },
        {
          "indexed": false,
          "internalType": "uint256",
          "name": "numTokensToRedeem",
          "type": "uint256"
        },
        {
          "indexed": false,
          "internalType": "uint256",
          "name": "protocolFee",
          "type": "uint256"
        }
      ],
      "name": "TokensRedeemed",
      "type": "event"
    },
    {
      "anonymous": false,
      "inputs": [
        {
          "indexed": true,
          "internalType": "address",
          "name": "garden",
          "type": "address"
        },
        {
          "indexed": true,
          "internalType": "address",
          "name": "strategy",
          "type": "address"
        },
        {
          "indexed": true,
          "internalType": "address",
          "name": "assetToken",
          "type": "address"
        },
        {
          "indexed": false,
          "internalType": "uint256",
          "name": "numTokensToSupply",
          "type": "uint256"
        }
      ],
      "name": "TokensSupplied",
      "type": "event"
    },
    {
      "inputs": [
        {
          "internalType": "address",
          "name": "",
          "type": "address"
        }
      ],
      "name": "assetToCToken",
      "outputs": [
        {
          "internalType": "address",
          "name": "",
          "type": "address"
        }
      ],
      "stateMutability": "view",
      "type": "function"
    },
    {
      "inputs": [],
      "name": "controller",
      "outputs": [
        {
          "internalType": "address",
          "name": "",
          "type": "address"
        }
      ],
      "stateMutability": "view",
      "type": "function"
    },
    {
      "inputs": [
        {
          "internalType": "address",
          "name": "_assetToken",
          "type": "address"
        }
      ],
      "name": "getExchangeRatePerToken",
      "outputs": [
        {
          "internalType": "uint256",
          "name": "",
          "type": "uint256"
        }
      ],
      "stateMutability": "view",
      "type": "function"
    },
    {
      "inputs": [
        {
          "internalType": "address",
          "name": "_assetToken",
          "type": "address"
        },
        {
          "internalType": "uint256",
          "name": "_numTokensToSupply",
          "type": "uint256"
        }
      ],
      "name": "getExpectedShares",
      "outputs": [
        {
          "internalType": "uint256",
          "name": "",
          "type": "uint256"
        }
      ],
      "stateMutability": "view",
      "type": "function"
    },
    {
      "inputs": [
        {
          "internalType": "address",
          "name": "_assetToken",
          "type": "address"
        }
      ],
      "name": "getInvestmentToken",
      "outputs": [
        {
          "internalType": "address",
          "name": "",
          "type": "address"
        }
      ],
      "stateMutability": "view",
      "type": "function"
    },
    {
      "inputs": [],
      "name": "getName",
      "outputs": [
        {
          "internalType": "string",
          "name": "",
          "type": "string"
        }
      ],
      "stateMutability": "view",
      "type": "function"
    },
    {
      "inputs": [
        {
          "internalType": "address",
          "name": "",
          "type": "address"
        }
      ],
      "name": "initializedByGarden",
      "outputs": [
        {
          "internalType": "bool",
          "name": "",
          "type": "bool"
        }
      ],
      "stateMutability": "view",
      "type": "function"
    },
    {
      "inputs": [
        {
          "internalType": "address",
          "name": "_investmentAddress",
          "type": "address"
        }
      ],
      "name": "isInvestment",
      "outputs": [
        {
          "internalType": "bool",
          "name": "",
          "type": "bool"
        }
      ],
      "stateMutability": "view",
      "type": "function"
    },
    {
      "inputs": [],
      "name": "name",
      "outputs": [
        {
          "internalType": "string",
          "name": "",
          "type": "string"
        }
      ],
      "stateMutability": "view",
      "type": "function"
    },
    {
      "inputs": [
        {
          "internalType": "address",
          "name": "_strategy",
          "type": "address"
        },
        {
          "internalType": "address",
          "name": "_assetToken",
          "type": "address"
        },
        {
          "internalType": "uint256",
          "name": "_numTokensToRedeem",
          "type": "uint256"
        },
        {
          "internalType": "uint256",
          "name": "_minAmountExpected",
          "type": "uint256"
        }
      ],
      "name": "redeemTokens",
      "outputs": [],
      "stateMutability": "nonpayable",
      "type": "function"
    },
    {
      "inputs": [
        {
          "internalType": "address",
          "name": "_strategy",
          "type": "address"
        },
        {
          "internalType": "address",
          "name": "_assetToken",
          "type": "address"
        },
        {
          "internalType": "uint256",
          "name": "_numTokensToSupply",
          "type": "uint256"
        },
        {
          "internalType": "uint256",
          "name": "_minAmountExpected",
          "type": "uint256"
        }
      ],
      "name": "supplyTokens",
      "outputs": [],
      "stateMutability": "nonpayable",
      "type": "function"
    },
    {
      "inputs": [
        {
          "internalType": "address",
          "name": "_assetAddress",
          "type": "address"
        },
        {
          "internalType": "address",
          "name": "_cTokenAddress",
          "type": "address"
        }
      ],
      "name": "updateCTokenMapping",
      "outputs": [],
      "stateMutability": "nonpayable",
      "type": "function"
    },
    {
      "inputs": [],
      "name": "weth",
      "outputs": [
        {
          "internalType": "address",
          "name": "",
          "type": "address"
        }
      ],
      "stateMutability": "view",
      "type": "function"
    }
  ],
  "transactionHash": "0xf65019141a34fb7e8ffbd3254c901a03bf6db64ca9dd7e9446980306168e1550",
  "args": [
    "0xffe7c30daDb1B132b86aB7bbede496615d54c8Ac",
    "0xC02aaA39b223FE8D0A0e5C4F27eAD9083C756Cc2"
  ],
  "solcInputHash": "a02a2075cf667a20c416d2d0a5e8f337",
  "bytecode": "0x60a06040523480156200001157600080fd5b50604051620017fd380380620017fd833981810160405260408110156200003757600080fd5b50805160209182015160408051808201909152600c81526b18dbdb5c1bdd5b991b195b9960a21b93810193909352909181838282826001600160a01b038116620000c8576040805162461bcd60e51b815260206004820152601a60248201527f436f6e74726f6c6c6572206d75737420626520646566696e6564000000000000604482015290519081900360640190fd5b8251620000dd906001906020860190620002ec565b50600080546001600160a01b039092166001600160a01b03199283161781556001600160601b031960609390931b92909216608052600160035560046020527f1f26cc04db5725a6013f9a871c79fcbf894bb366deda2d7526896a3d7f7bf1e680548216735d3a536e4d6dbd6114cc1ead35777bab948e36431790557f7ad6a3b7b68a4f5cf66df337fd5942d7c746b3a5d321592ec5762ec798359679805482167335a18000230da775cac24873d00ff85bccded5501790557e137c28eabea4eda5601e544e6551e6761ee561d32c4142c29e0f892835a36180548216734ddc2d193948926d02f9b1fe9e1daa0718270ed51790557f2216881abda8ce28bb79ec6ad24ecf589e0594fff84ade38d82ca32ec9eff5c6805482167339aa39c021dfbae8fac545936693ac917d5e75631790557fce6b0bb3482d6fcd115ad33ec4464c30e4c8b24ec6e3e5aa13819b39c576a85c8054821673f650c3d88d12db855b8bf7d11be6c55a4e07dcc91790557fdcea66f53103f73a3eee020f324bf4679e60b5665cd91d355a9467ab00173ae48054821673c11b1268c1a384e55c48c2391d8d480264a3a7f417905573c00e94cb662c3520282e6f5717214004a7f268889091527f10d76dfe0f3b809fe9d2b2241c0475e8ec5f5344571bd48e8a64f26f4f47c64b80549091167370e36f6bf80a52b3b46b3af8e106cc0ed743e8e41790555062000398945050505050565b828054600181600116156101000203166002900490600052602060002090601f0160209004810192826200032457600085556200036f565b82601f106200033f57805160ff19168380011785556200036f565b828001600101855582156200036f579182015b828111156200036f57825182559160200191906001019062000352565b506200037d92915062000381565b5090565b5b808211156200037d576000815560010162000382565b60805160601c611447620003b66000398061049f52506114476000f3fe608060405234801561001057600080fd5b50600436106100df5760003560e01c8063912a18571161008c578063d0d2d3a211610066578063d0d2d3a2146102a7578063eb40e600146102e3578063f14b578814610309578063f77c479114610345576100df565b8063912a1857146102175780639e12fef214610247578063b10198fb14610281576100df565b80633550bd62116100bd5780633550bd62146101a15780633fc8cef3146101e35780634deef649146101eb576100df565b806306fdde03146100e457806307b54c6f1461016157806317d7de7c14610199575b600080fd5b6100ec61034d565b6040805160208082528351818301528351919283929083019185019080838360005b8381101561012657818101518382015260200161010e565b50505050905090810190601f1680156101535780820380516001836020036101000a031916815260200191505b509250505060405180910390f35b6101876004803603602081101561017757600080fd5b50356001600160a01b03166103da565b60408051918252519081900360200190f35b6100ec6103ed565b6101c7600480360360208110156101b757600080fd5b50356001600160a01b0316610482565b604080516001600160a01b039092168252519081900360200190f35b6101c761049d565b6101876004803603604081101561020157600080fd5b506001600160a01b0381351690602001356104c1565b6102456004803603604081101561022d57600080fd5b506001600160a01b03813581169160200135166104d6565b005b61026d6004803603602081101561025d57600080fd5b50356001600160a01b031661057b565b604080519115158252519081900360200190f35b61026d6004803603602081101561029757600080fd5b50356001600160a01b0316610586565b610245600480360360808110156102bd57600080fd5b506001600160a01b0381358116916020810135909116906040810135906060013561059b565b6101c7600480360360208110156102f957600080fd5b50356001600160a01b03166107e4565b6102456004803603608081101561031f57600080fd5b506001600160a01b038135811691602081013590911690604081013590606001356107ef565b6101c7610a65565b60018054604080516020600284861615610100026000190190941693909304601f810184900484028201840190925281815292918301828280156103d25780601f106103a7576101008083540402835291602001916103d2565b820191906000526020600020905b8154815290600101906020018083116103b557829003601f168201915b505050505081565b60006103e582610a74565b90505b919050565b60018054604080516020601f600260001961010087891615020190951694909404938401819004810282018101909252828152606093909290918301828280156104785780601f1061044d57610100808354040283529160200191610478565b820191906000526020600020905b81548152906001019060200180831161045b57829003601f168201915b5050505050905090565b6004602052600090815260409020546001600160a01b031681565b7f000000000000000000000000000000000000000000000000000000000000000081565b60006104cd8383610bdd565b90505b92915050565b6000546001600160a01b03163314610535576040805162461bcd60e51b815260206004820152601d60248201527f4f6e6c7920636f6e74726f6c6c65722063616e2063616c6c2074686973000000604482015290519081900360640190fd5b6001600160a01b03918216600090815260046020526040902080547fffffffffffffffffffffffff00000000000000000000000000000000000000001691909216179055565b60006103e582610c0f565b60026020526000908152604090205460ff1681565b60006105b285856105ab87610c2f565b8686610c4d565b90506105bd81610da8565b60008060006105cd888888610e7d565b92509250925083600001516001600160a01b0316636bc195dd8484846040518463ffffffff1660e01b815260040180846001600160a01b0316815260200183815260200180602001828103825283818151815260200191508051906020019080838360005b8381101561064a578181015183820152602001610632565b50505050905090810190601f1680156106775780820380516001836020036101000a031916815260200191505b50945050505050600060405180830381600087803b15801561069857600080fd5b505af11580156106ac573d6000803e3d6000fd5b505050506040513d6000823e601f3d908101601f1916820160405260208110156106d557600080fd5b81019080805160405193929190846401000000008211156106f557600080fd5b90830190602082018581111561070a57600080fd5b825164010000000081118282018810171561072457600080fd5b82525081516020918201929091019080838360005b83811015610751578181015183820152602001610739565b50505050905090810190601f16801561077e5780820380516001836020036101000a031916815260200191505b506040525050505061078f84610f05565b8351602080860151604080518a815290516001600160a01b03808d16958116949316927fd17d95895382b096bb1f89ed05a71c3e014d5ecf25944c8f1f27f07b2b9d3194928290030190a45050505050505050565b60006103e582610c2f565b60006107ff85856105ab87610c2f565b905061080a81610fcd565b80516001600160a01b03166397ccdc6061082386610c2f565b86866040518463ffffffff1660e01b815260040180846001600160a01b03168152602001836001600160a01b031681526020018281526020019350505050600060405180830381600087803b15801561087b57600080fd5b505af115801561088f573d6000803e3d6000fd5b5050505060008060006108a3888888611058565b92509250925083600001516001600160a01b0316636bc195dd8484846040518463ffffffff1660e01b815260040180846001600160a01b0316815260200183815260200180602001828103825283818151815260200191508051906020019080838360005b83811015610920578181015183820152602001610908565b50505050905090810190601f16801561094d5780820380516001836020036101000a031916815260200191505b50945050505050600060405180830381600087803b15801561096e57600080fd5b505af1158015610982573d6000803e3d6000fd5b505050506040513d6000823e601f3d908101601f1916820160405260208110156109ab57600080fd5b81019080805160405193929190846401000000008211156109cb57600080fd5b9083019060208201858111156109e057600080fd5b82516401000000008111828201881017156109fa57600080fd5b82525081516020918201929091019080838360005b83811015610a27578181015183820152602001610a0f565b50505050905090810190601f168015610a545780820380516001836020036101000a031916815260200191505b506040525050505061078f84611114565b6000546001600160a01b031681565b6001600160a01b0380821660009081526004602081815260408084205481517f182df0f50000000000000000000000000000000000000000000000000000000081529151949516938593859363182df0f59380830193919290829003018186803b158015610ae157600080fd5b505afa158015610af5573d6000803e3d6000fd5b505050506040513d6020811015610b0b57600080fd5b5051604080517f313ce56700000000000000000000000000000000000000000000000000000000815290519192506000916001600160a01b0387169163313ce567916004808301926020929190829003018186803b158015610b6c57600080fd5b505afa158015610b80573d6000803e3d6000fd5b505050506040513d6020811015610b9657600080fd5b50519050600860ff82161015610bc75760ff600882900316610bbc83600a83900a6111d6565b9450505050506103e8565b60ff600719820116610bbc83600a83900a61122f565b600080610be984610a74565b9050610c07670de0b6b3a7640000610c0183866111d6565b9061122f565b949350505050565b6001600160a01b0390811660009081526004602052604090205416151590565b6001600160a01b039081166000908152600460205260409020541690565b610c55611296565b610c5d611296565b6001600160a01b038716808252604080517f56ba88b800000000000000000000000000000000000000000000000000000000815290516356ba88b891600480820192602092909190829003018186803b158015610cb957600080fd5b505afa158015610ccd573d6000803e3d6000fd5b505050506040513d6020811015610ce357600080fd5b50516001600160a01b039081166020838101919091528782166040808501919091528783166060850181905281517f70a08231000000000000000000000000000000000000000000000000000000008152938b166004850152905190926370a08231926024808301939192829003018186803b158015610d6257600080fd5b505afa158015610d76573d6000803e3d6000fd5b505050506040513d6020811015610d8c57600080fd5b505160a082015260808101939093525060c08201529392505050565b610db58160400151610c0f565b610df05760405162461bcd60e51b81526004018080602001828103825260238152602001806113ef6023913960400191505060405180910390fd5b6000816080015111610e335760405162461bcd60e51b81526004018080602001828103825260348152602001806113bb6034913960400191505060405180910390fd5b80608001518160a001511015610e7a5760405162461bcd60e51b81526004018080602001828103825260318152602001806112d36031913960400191505060405180910390fd5b50565b60408051602480820193909352815180820390930183526044018152602080830180517bffffffffffffffffffffffffffffffffffffffffffffffffffffffff167fdb006a75000000000000000000000000000000000000000000000000000000001790526001600160a01b0393841660009081526004909152908120549092169391925090565b80608001518160a001510381606001516001600160a01b03166370a0823183600001516040518263ffffffff1660e01b815260040180826001600160a01b0316815260200191505060206040518083038186803b158015610f6557600080fd5b505afa158015610f79573d6000803e3d6000fd5b505050506040513d6020811015610f8f57600080fd5b505114610e7a5760405162461bcd60e51b815260040180806020018281038252602f815260200180611334602f913960400191505060405180910390fd5b610fda8160400151610c0f565b6110155760405162461bcd60e51b81526004018080602001828103825260238152602001806113ef6023913960400191505060405180910390fd5b6000816080015111610e7a5760405162461bcd60e51b81526004018080602001828103825260378152602001806113636037913960400191505060405180910390fd5b6040805160248082018490528251808303909101815260449091018252602081810180517bffffffffffffffffffffffffffffffffffffffffffffffffffffffff167fa0712d68000000000000000000000000000000000000000000000000000000001790526001600160a01b03808616600090815260049092529281205490928392606092909116734ddc2d193948926d02f9b1fe9e1daa0718270ed58114611103576000611105565b855b90989097509095509350505050565b8060a0015181606001516001600160a01b03166370a0823183600001516040518263ffffffff1660e01b815260040180826001600160a01b0316815260200191505060206040518083038186803b15801561116e57600080fd5b505afa158015611182573d6000803e3d6000fd5b505050506040513d602081101561119857600080fd5b505111610e7a5760405162461bcd60e51b81526004018080602001828103825260308152602001806113046030913960400191505060405180910390fd5b6000826111e5575060006104d0565b828202828482816111f257fe5b04146104cd5760405162461bcd60e51b815260040180806020018281038252602181526020018061139a6021913960400191505060405180910390fd5b6000808211611285576040805162461bcd60e51b815260206004820152601a60248201527f536166654d6174683a206469766973696f6e206279207a65726f000000000000604482015290519081900360640190fd5b81838161128e57fe5b049392505050565b6040805160e081018252600080825260208201819052918101829052606081018290526080810182905260a0810182905260c08101919091529056fe5468652067617264656e20646f6573206e6f74206861766520656e6f75676820696e766573746d656e7420746f6b656e735468652067617264656e20646964206e6f7420726563656976652074686520696e766573746d656e7420746f6b656e735468652067617264656e20646964206e6f742072657475726e2074686520696e766573746d656e7420746f6b656e734d696e20696e766573746d656e7420746f6b656e7320746f2072656365697665206d7573742062652067726561746572207468616e2030536166654d6174683a206d756c7469706c69636174696f6e206f766572666c6f77496e766573746d656e7420746f6b656e7320746f2065786368616e6765206d7573742062652067726561746572207468616e203054686520696e766573746d656e742061646472657373206973206e6f742076616c6964a2646970667358221220f363320d57628c88cf149beaf89ba7ae31ffaf95c79d2376acd9596d391a3ec664736f6c63430007060033",
  "devdoc": {
    "author": "Babylon Finance Protocol Compound lend integration.",
    "kind": "dev",
    "methods": {
      "constructor": {
        "params": {
          "_controller": "Address of the controller",
          "_weth": "Address of the WETH ERC20"
        }
      },
      "getExpectedShares(address,uint256)": {
        "params": {
          "_numTokensToSupply": "Amount of ERC20 tokens to supply"
        },
        "returns": {
          "_0": "uint256                           Amount of supply tokens to receive"
        }
      },
      "isInvestment(address)": {
        "params": {
          "_investmentAddress": "Investment address to check"
        },
        "returns": {
          "_0": "bool                              True if the address is a investment"
        }
      }
    },
    "title": "CompoundLendIntegration",
    "version": 1
  },
  "userdoc": {
    "kind": "user",
    "methods": {
      "constructor": {
        "notice": "Creates the integration"
      },
      "getExpectedShares(address,uint256)": {
        "notice": "Gets the amount of cTokens expected to get after depositing ERC20 asset."
      },
      "getName()": {
        "notice": "Returns the name of the integration"
      },
      "isInvestment(address)": {
        "notice": "Checks whether an investment address is valid"
      }
    },
    "version": 1
  },
  "storageLayout": {
    "storage": [
      {
        "astId": 18742,
        "contract": "contracts/integrations/lend/CompoundLendIntegration.sol:CompoundLendIntegration",
        "label": "controller",
        "offset": 0,
        "slot": "0",
        "type": "t_address"
      },
      {
        "astId": 18746,
        "contract": "contracts/integrations/lend/CompoundLendIntegration.sol:CompoundLendIntegration",
        "label": "name",
        "offset": 0,
        "slot": "1",
        "type": "t_string_storage"
      },
      {
        "astId": 18750,
        "contract": "contracts/integrations/lend/CompoundLendIntegration.sol:CompoundLendIntegration",
        "label": "initializedByGarden",
        "offset": 0,
        "slot": "2",
        "type": "t_mapping(t_address,t_bool)"
      },
      {
        "astId": 7995,
        "contract": "contracts/integrations/lend/CompoundLendIntegration.sol:CompoundLendIntegration",
        "label": "_status",
        "offset": 0,
        "slot": "3",
        "type": "t_uint256"
      },
      {
        "astId": 19066,
        "contract": "contracts/integrations/lend/CompoundLendIntegration.sol:CompoundLendIntegration",
        "label": "assetToCToken",
        "offset": 0,
        "slot": "4",
        "type": "t_mapping(t_address,t_address)"
      }
    ],
    "types": {
      "t_address": {
        "encoding": "inplace",
        "label": "address",
        "numberOfBytes": "20"
      },
      "t_bool": {
        "encoding": "inplace",
        "label": "bool",
        "numberOfBytes": "1"
      },
      "t_mapping(t_address,t_address)": {
        "encoding": "mapping",
        "key": "t_address",
        "label": "mapping(address => address)",
        "numberOfBytes": "32",
        "value": "t_address"
      },
      "t_mapping(t_address,t_bool)": {
        "encoding": "mapping",
        "key": "t_address",
        "label": "mapping(address => bool)",
        "numberOfBytes": "32",
        "value": "t_bool"
      },
      "t_string_storage": {
        "encoding": "bytes",
        "label": "string",
        "numberOfBytes": "32"
      },
      "t_uint256": {
        "encoding": "inplace",
        "label": "uint256",
        "numberOfBytes": "32"
      }
    }
  }
}