{
  "address": "0x78815A0733A7E07A532d979E5C63c27adCDf2221",
  "abi": [
    {
      "inputs": [
        {
          "internalType": "contract IBabController",
          "name": "_controller",
          "type": "address"
        },
        {
          "internalType": "address",
          "name": "_weth",
          "type": "address"
        },
        {
          "internalType": "uint256",
          "name": "_maxCollateralFactor",
          "type": "uint256"
        }
      ],
      "stateMutability": "nonpayable",
      "type": "constructor"
    },
    {
      "anonymous": false,
      "inputs": [
        {
          "indexed": true,
          "internalType": "contract IStrategy",
          "name": "strategy",
          "type": "address"
        },
        {
          "indexed": true,
          "internalType": "contract IGarden",
          "name": "garden",
          "type": "address"
        },
        {
          "indexed": false,
          "internalType": "address",
          "name": "asset",
          "type": "address"
        },
        {
          "indexed": false,
          "internalType": "uint256",
          "name": "amount",
          "type": "uint256"
        }
      ],
      "name": "AmountBorrowed",
      "type": "event"
    },
    {
      "anonymous": false,
      "inputs": [
        {
          "indexed": true,
          "internalType": "contract IStrategy",
          "name": "strategy",
          "type": "address"
        },
        {
          "indexed": true,
          "internalType": "contract IGarden",
          "name": "garden",
          "type": "address"
        },
        {
          "indexed": false,
          "internalType": "address",
          "name": "asset",
          "type": "address"
        },
        {
          "indexed": false,
          "internalType": "uint256",
          "name": "amount",
          "type": "uint256"
        }
      ],
      "name": "AmountRepaid",
      "type": "event"
    },
    {
      "inputs": [
        {
          "internalType": "address",
          "name": "",
          "type": "address"
        }
      ],
      "name": "assetToCToken",
      "outputs": [
        {
          "internalType": "address",
          "name": "",
          "type": "address"
        }
      ],
      "stateMutability": "view",
      "type": "function"
    },
    {
      "inputs": [
        {
          "internalType": "address",
          "name": "_strategy",
          "type": "address"
        },
        {
          "internalType": "address",
          "name": "asset",
          "type": "address"
        },
        {
          "internalType": "uint256",
          "name": "amount",
          "type": "uint256"
        }
      ],
      "name": "borrow",
      "outputs": [],
      "stateMutability": "nonpayable",
      "type": "function"
    },
    {
      "inputs": [],
      "name": "controller",
      "outputs": [
        {
          "internalType": "contract IBabController",
          "name": "",
          "type": "address"
        }
      ],
      "stateMutability": "view",
      "type": "function"
    },
    {
      "inputs": [
        {
          "internalType": "address",
          "name": "_strategy",
          "type": "address"
        },
        {
          "internalType": "address",
          "name": "asset",
          "type": "address"
        }
      ],
      "name": "getBorrowBalance",
      "outputs": [
        {
          "internalType": "uint256",
          "name": "",
          "type": "uint256"
        }
      ],
      "stateMutability": "view",
      "type": "function"
    },
    {
      "inputs": [
        {
          "internalType": "address",
          "name": "_strategy",
          "type": "address"
        },
        {
          "internalType": "address",
          "name": "asset",
          "type": "address"
        }
      ],
      "name": "getCollateralBalance",
      "outputs": [
        {
          "internalType": "uint256",
          "name": "",
          "type": "uint256"
        }
      ],
      "stateMutability": "view",
      "type": "function"
    },
    {
      "inputs": [],
      "name": "getName",
      "outputs": [
        {
          "internalType": "string",
          "name": "",
          "type": "string"
        }
      ],
      "stateMutability": "view",
      "type": "function"
    },
    {
      "inputs": [
        {
          "internalType": "address",
          "name": "_strategy",
          "type": "address"
        }
      ],
      "name": "getRemainingLiquidity",
      "outputs": [
        {
          "internalType": "uint256",
          "name": "",
          "type": "uint256"
        }
      ],
      "stateMutability": "view",
      "type": "function"
    },
    {
      "inputs": [
        {
          "internalType": "address",
          "name": "",
          "type": "address"
        }
      ],
      "name": "initializedByGarden",
      "outputs": [
        {
          "internalType": "bool",
          "name": "",
          "type": "bool"
        }
      ],
      "stateMutability": "view",
      "type": "function"
    },
    {
      "inputs": [],
      "name": "maxCollateralFactor",
      "outputs": [
        {
          "internalType": "uint256",
          "name": "",
          "type": "uint256"
        }
      ],
      "stateMutability": "view",
      "type": "function"
    },
    {
      "inputs": [],
      "name": "name",
      "outputs": [
        {
          "internalType": "string",
          "name": "",
          "type": "string"
        }
      ],
      "stateMutability": "view",
      "type": "function"
    },
    {
      "inputs": [
        {
          "internalType": "address",
          "name": "_strategy",
          "type": "address"
        },
        {
          "internalType": "address",
          "name": "asset",
          "type": "address"
        },
        {
          "internalType": "uint256",
          "name": "amount",
          "type": "uint256"
        }
      ],
      "name": "repay",
      "outputs": [],
      "stateMutability": "nonpayable",
      "type": "function"
    },
    {
      "inputs": [
        {
          "internalType": "address",
          "name": "_assetAddress",
          "type": "address"
        },
        {
          "internalType": "address",
          "name": "_cTokenAddress",
          "type": "address"
        }
      ],
      "name": "updateCTokenMapping",
      "outputs": [],
      "stateMutability": "nonpayable",
      "type": "function"
    },
    {
      "inputs": [
        {
          "internalType": "uint256",
          "name": "_newMaxCollateralFactor",
          "type": "uint256"
        }
      ],
      "name": "updateMaxCollateralFactor",
      "outputs": [],
      "stateMutability": "nonpayable",
      "type": "function"
    },
    {
      "inputs": [],
      "name": "weth",
      "outputs": [
        {
          "internalType": "address",
          "name": "",
          "type": "address"
        }
      ],
      "stateMutability": "view",
      "type": "function"
    }
  ],
  "transactionHash": "0x1a28cd11790ecf99676b6aae8a93e617991531240588bf423d0cc3963ee98b5a",
  "args": [
    "0xD4a5b5fcB561dAF3aDF86F8477555B92FBa43b5F",
    "0xC02aaA39b223FE8D0A0e5C4F27eAD9083C756Cc2",
    "300000000000000000"
  ],
  "solcInputHash": "031aeaf93d736e843a479d8863a4b686",
  "bytecode": "0x60a06040523480156200001157600080fd5b50604051620021e4380380620021e4833981810160405260608110156200003757600080fd5b5080516020808301516040938401518451808601909552600e85526d636f6d706f756e64626f72726f7760901b9285019290925291928284838383836001600160a01b038116620000cf576040805162461bcd60e51b815260206004820152601a60248201527f436f6e74726f6c6c6572206d75737420626520646566696e6564000000000000604482015290519081900360640190fd5b8251620000e490600190602086019062000468565b50600080546001600160a01b039092166001600160a01b03199283161781556001600160601b031960609390931b92909216608052600160035560049390935560056020527f5f06832f00638c4bd9ae67faf8ec91c3c0bebea16aa05f3810305a4cbd9845f680548416735d3a536e4d6dbd6114cc1ead35777bab948e36431790557fcf04ef9aa044f20599ee30150fdae230e1d89fdcedea0b7dcdc0e7573f2345ca805484167335a18000230da775cac24873d00ff85bccded5501790557f05b8ccbb9d4d8fb16ea74ce3c29a41f1b461fbdaff4714a0d9a8eb05499746bc80548416734ddc2d193948926d02f9b1fe9e1daa0718270ed51790557fa8e1248eddf82e10c0adc6c737b6d8da17674abf51801ea5a4549f41c2dfdf21805484167339aa39c021dfbae8fac545936693ac917d5e75631790557f0a7e0e74b40a947daf7b6df34c66be699f819f509940d1bd48c4d99bc5e3353c8054841673f650c3d88d12db855b8bf7d11be6c55a4e07dcc91790557f2f97bae778107453c9fa4e71a644cd0a05ed4723a03b3b8af2d1b088c870a29b8054841673ccf4429db6322d5c611ee964527d42e5d685dd6a1790557fd31b915b8c059317a7ab778e9af3cee81c898ec726c3b9ad695f3662d09dbed1805484167370e36f6bf80a52b3b46b3af8e106cc0ed743e8e41790557f30142df316b024d72202300be5b781ae8f70bbd138f15521792aecb4bf39db7380548416736c8c6b02e7b2be14d4fa6022dfd6d75921d90e4e1790557f8e85557e1b9acb100391c21a5b9083e197eadc760120979e4a4badda2c9445be8054841673face851a4921ce59e912d19329929ce6da6eb0c71790557f210fc46c6b85dca48ddffaab1ce732ffa218871dc9dc451b220c633a220345988054841673158079ee67fce2f58472a96584a73c7ab9ac95c11790557f726bdd8183be1b2dca0e3e604891ae20a3e6be08ea5929c0cfb29a6f99a0e76b8054841673f5dce57282a584d2746faf1593d3121fcac444dc1790557ff7f4542d22cad9850f689b595147030708dddeaebc315a4597b1fc4696e63568805484167312392f67bdf24fae0af363c24ac620a2f67dad8617905573e41d2489571d322189246dafa5ebde1f4699f4989052507f44d4a7a6daf90c300c39a7faa8e27436960bec39c614e20b6c35303b9721b5c3805490911673b3319f5d18bc0d84dd1b4825dcde5d5f7266d4071790555062000514945050505050565b828054600181600116156101000203166002900490600052602060002090601f016020900481019282620004a05760008555620004eb565b82601f10620004bb57805160ff1916838001178555620004eb565b82800160010185558215620004eb579182015b82811115620004eb578251825591602001919060010190620004ce565b50620004f9929150620004fd565b5090565b5b80821115620004f95760008155600101620004fe565b60805160601c611cb26200053260003980610b265250611cb26000f3fe608060405234801561001057600080fd5b50600436106100ea5760003560e01c80638dc441831161008c578063b7d5820b11610066578063b7d5820b146102dc578063bf95f0e91461030a578063d92f209f14610327578063f77c47911461034d576100ea565b80638dc441831461026c578063912a185714610274578063b10198fb146102a2576100ea565b80631da649cf116100c85780631da649cf146101b45780633550bd62146101ec5780633fc8cef31461022e5780635224372c14610236576100ea565b806306fdde03146100ef578063118e31b71461016c57806317d7de7c146101ac575b600080fd5b6100f7610355565b6040805160208082528351818301528351919283929083019185019080838360005b83811015610131578181015183820152602001610119565b50505050905090810190601f16801561015e5780820380516001836020036101000a031916815260200191505b509250505060405180910390f35b61019a6004803603604081101561018257600080fd5b506001600160a01b03813581169160200135166103e2565b60408051918252519081900360200190f35b6100f761047b565b6101ea600480360360608110156101ca57600080fd5b506001600160a01b03813581169160208101359091169060400135610510565b005b6102126004803603602081101561020257600080fd5b50356001600160a01b0316610b09565b604080516001600160a01b039092168252519081900360200190f35b610212610b24565b6101ea6004803603606081101561024c57600080fd5b506001600160a01b03813581169160208101359091169060400135610b48565b61019a6110a7565b6101ea6004803603604081101561028a57600080fd5b506001600160a01b03813581169160200135166110ad565b6102c8600480360360208110156102b857600080fd5b50356001600160a01b03166111c7565b604080519115158252519081900360200190f35b61019a600480360360408110156102f257600080fd5b506001600160a01b03813581169160200135166111dc565b6101ea6004803603602081101561032057600080fd5b503561131d565b61019a6004803603602081101561033d57600080fd5b50356001600160a01b0316611322565b6102126113c2565b60018054604080516020600284861615610100026000190190941693909304601f810184900484028201840190925281815292918301828280156103da5780601f106103af576101008083540402835291602001916103da565b820191906000526020600020905b8154815290600101906020018083116103bd57829003601f168201915b505050505081565b6001600160a01b038082166000908152600560205260408082205481516361bfb47160e11b815286851660048201529151929316918391839163c37f68e291602480820192608092909190829003018186803b15801561044157600080fd5b505afa158015610455573d6000803e3d6000fd5b505050506040513d608081101561046b57600080fd5b5060400151925050505b92915050565b60018054604080516020601f600260001961010087891615020190951694909404938401819004810282018101909252828152606093909290918301828280156105065780601f106104db57610100808354040283529160200191610506565b820191906000526020600020905b8154815290600101906020018083116104e957829003601f168201915b5050505050905090565b60026003541415610568576040805162461bcd60e51b815260206004820152601f60248201527f5265656e7472616e637947756172643a207265656e7472616e742063616c6c00604482015290519081900360640190fd5b6002600355600054604080516313bc6d4b60e01b815233600482015290516001600160a01b03909216916313bc6d4b91602480820192602092909190829003018186803b1580156105b857600080fd5b505afa1580156105cc573d6000803e3d6000fd5b505050506040513d60208110156105e257600080fd5b5051610635576040805162461bcd60e51b815260206004820152601960248201527f4f6e6c792073797374656d2063616e2063616c6c207468697300000000000000604482015290519081900360640190fd5b600061064484848460016113d1565b905061064f816114a9565b6000808061065f86866001611601565b919450925090506001600160a01b038316156108295783600001516001600160a01b0316636bc195dd8484846040518463ffffffff1660e01b815260040180846001600160a01b0316815260200183815260200180602001828103825283818151815260200191508051906020019080838360005b838110156106ec5781810151838201526020016106d4565b50505050905090810190601f1680156107195780820380516001836020036101000a031916815260200191505b50945050505050600060405180830381600087803b15801561073a57600080fd5b505af115801561074e573d6000803e3d6000fd5b505050506040513d6000823e601f3d908101601f19168201604052602081101561077757600080fd5b810190808051604051939291908464010000000082111561079757600080fd5b9083019060208201858111156107ac57600080fd5b82516401000000008111828201881017156107c657600080fd5b82525081516020918201929091019080838360005b838110156107f35781810151838201526020016107db565b50505050905090810190601f1680156108205780820380516001836020036101000a031916815260200191505b50604052505050505b6001600160a01b038616156108c25783516001600160a01b03166397ccdc6061085188611745565b88886040518463ffffffff1660e01b815260040180846001600160a01b03168152602001836001600160a01b031681526020018281526020019350505050600060405180830381600087803b1580156108a957600080fd5b505af11580156108bd573d6000803e3d6000fd5b505050505b60008060006108d28a8a8a611763565b92509250925086600001516001600160a01b0316636bc195dd8484846040518463ffffffff1660e01b815260040180846001600160a01b0316815260200183815260200180602001828103825283818151815260200191508051906020019080838360005b8381101561094f578181015183820152602001610937565b50505050905090810190601f16801561097c5780820380516001836020036101000a031916815260200191505b50945050505050600060405180830381600087803b15801561099d57600080fd5b505af11580156109b1573d6000803e3d6000fd5b505050506040513d6000823e601f3d908101601f1916820160405260208110156109da57600080fd5b81019080805160405193929190846401000000008211156109fa57600080fd5b908301906020820185811115610a0f57600080fd5b8251640100000000811182820188101715610a2957600080fd5b82525081516020918201929091019080838360005b83811015610a56578181015183820152602001610a3e565b50505050905090810190601f168015610a835780820380516001836020036101000a031916815260200191505b5060405250505050610a948761188b565b86602001516001600160a01b031687600001516001600160a01b03167f953ac0f64e660bd9358471208544a0fa23b1ad2cdbf382fe3895ec090e2a1e568b8b60405180836001600160a01b031681526020018281526020019250505060405180910390a3505060016003555050505050505050565b6005602052600090815260409020546001600160a01b031681565b7f000000000000000000000000000000000000000000000000000000000000000081565b60026003541415610ba0576040805162461bcd60e51b815260206004820152601f60248201527f5265656e7472616e637947756172643a207265656e7472616e742063616c6c00604482015290519081900360640190fd5b6002600355600054604080516313bc6d4b60e01b815233600482015290516001600160a01b03909216916313bc6d4b91602480820192602092909190829003018186803b158015610bf057600080fd5b505afa158015610c04573d6000803e3d6000fd5b505050506040513d6020811015610c1a57600080fd5b5051610c6d576040805162461bcd60e51b815260206004820152601960248201527f4f6e6c792073797374656d2063616e2063616c6c207468697300000000000000604482015290519081900360640190fd5b6000610c7c84848460006113d1565b9050610c87816118f7565b60008080610c96868683611601565b919450925090506001600160a01b03831615610e605783600001516001600160a01b0316636bc195dd8484846040518463ffffffff1660e01b815260040180846001600160a01b0316815260200183815260200180602001828103825283818151815260200191508051906020019080838360005b83811015610d23578181015183820152602001610d0b565b50505050905090810190601f168015610d505780820380516001836020036101000a031916815260200191505b50945050505050600060405180830381600087803b158015610d7157600080fd5b505af1158015610d85573d6000803e3d6000fd5b505050506040513d6000823e601f3d908101601f191682016040526020811015610dae57600080fd5b8101908080516040519392919084640100000000821115610dce57600080fd5b908301906020820185811115610de357600080fd5b8251640100000000811182820188101715610dfd57600080fd5b82525081516020918201929091019080838360005b83811015610e2a578181015183820152602001610e12565b50505050905090810190601f168015610e575780820380516001836020036101000a031916815260200191505b50604052505050505b6000806000610e708a8a8a611958565b92509250925086600001516001600160a01b0316636bc195dd8484846040518463ffffffff1660e01b815260040180846001600160a01b0316815260200183815260200180602001828103825283818151815260200191508051906020019080838360005b83811015610eed578181015183820152602001610ed5565b50505050905090810190601f168015610f1a5780820380516001836020036101000a031916815260200191505b50945050505050600060405180830381600087803b158015610f3b57600080fd5b505af1158015610f4f573d6000803e3d6000fd5b505050506040513d6000823e601f3d908101601f191682016040526020811015610f7857600080fd5b8101908080516040519392919084640100000000821115610f9857600080fd5b908301906020820185811115610fad57600080fd5b8251640100000000811182820188101715610fc757600080fd5b82525081516020918201929091019080838360005b83811015610ff4578181015183820152602001610fdc565b50505050905090810190601f1680156110215780820380516001836020036101000a031916815260200191505b5060405250505050611032876119cb565b86602001516001600160a01b031687600001516001600160a01b03167f2ec5eda0a8db97f94fa37b7d1c339013a051f2286a5c9f2be7e907641d1c03568b8b60405180836001600160a01b031681526020018281526020019250505060405180910390a3505060016003555050505050505050565b60045481565b60008054906101000a90046001600160a01b03166001600160a01b0316638da5cb5b6040518163ffffffff1660e01b815260040160206040518083038186803b1580156110f957600080fd5b505afa15801561110d573d6000803e3d6000fd5b505050506040513d602081101561112357600080fd5b50516001600160a01b03163314611181576040805162461bcd60e51b815260206004820152601d60248201527f4f6e6c7920676f7665726e616e63652063616e2063616c6c2074686973000000604482015290519081900360640190fd5b6001600160a01b03918216600090815260056020526040902080547fffffffffffffffffffffffff00000000000000000000000000000000000000001691909216179055565b60026020526000908152604090205460ff1681565b6001600160a01b038082166000908152600560205260408082205481516361bfb47160e11b8152868516600482015291519293169183918291849163c37f68e2916024808301926080929190829003018186803b15801561123c57600080fd5b505afa158015611250573d6000803e3d6000fd5b505050506040513d608081101561126657600080fd5b506020810151606090910151909250905060006001600160a01b038616156112f257856001600160a01b031663313ce5676040518163ffffffff1660e01b815260040160206040518083038186803b1580156112c157600080fd5b505afa1580156112d5573d6000803e3d6000fd5b505050506040513d60208110156112eb57600080fd5b50516112f5565b60125b60ff169050611312600a82900a61130c8585611b1a565b90611b7a565b979650505050505050565b600455565b600080733d9819210a31b4961b30ef54be2aed79b9c9cd3b90506000816001600160a01b0316635ec88c79856040518263ffffffff1660e01b815260040180826001600160a01b0316815260200191505060606040518083038186803b15801561138b57600080fd5b505afa15801561139f573d6000803e3d6000fd5b505050506040513d60608110156113b557600080fd5b5060200151949350505050565b6000546001600160a01b031681565b6113d9611be1565b6113e1611be1565b6001600160a01b038616808252604080517f56ba88b800000000000000000000000000000000000000000000000000000000815290516356ba88b891600480820192602092909190829003018186803b15801561143d57600080fd5b505afa158015611451573d6000803e3d6000fd5b505050506040513d602081101561146757600080fd5b50516001600160a01b03908116602083015285166040820181905261148d9087906103e2565b608082015260608101939093525060ff1660a082015292915050565b60408101516000906001600160a01b0316156115455781604001516001600160a01b03166370a0823183600001516040518263ffffffff1660e01b815260040180826001600160a01b0316815260200191505060206040518083038186803b15801561151457600080fd5b505afa158015611528573d6000803e3d6000fd5b505050506040513d602081101561153e57600080fd5b5051611552565b81516001600160a01b0316315b905081606001518110156115975760405162461bcd60e51b8152600401808060200182810382526023815260200180611c176023913960400191505060405180910390fd5b60006115ab836000015184604001516103e2565b116115fd576040805162461bcd60e51b815260206004820152601060248201527f4e6f206465627420746f20726570617900000000000000000000000000000000604482015290519081900360640190fd5b5050565b60008060608361172557604080516001808252818301909252600091602080830190803683375050506001600160a01b0388811660009081526005602052604081205483519394509091169183919061165657fe5b6001600160a01b0390921660209283029190910182015260405160248101828152835160448301528351600093859383926064909101918581019102808383895b838110156116af578181015183820152602001611697565b50506040805193909501838103601f19018452909452506020810180517fc2998238000000000000000000000000000000000000000000000000000000006001600160e01b03909116179052733d9819210a31b4961b30ef54be2aed79b9c9cd3b9a5060009950975061173c9650505050505050565b505060408051602081019091526000808252915081905b93509350939050565b6001600160a01b039081166000908152600560205260409020541690565b6001600160a01b0382811660009081526005602052604081205490918291606091829116734ddc2d193948926d02f9b1fe9e1daa0718270ed514156117ea57506040805160048152602481019091526020810180516001600160e01b03167f4e4d9fea0000000000000000000000000000000000000000000000000000000017905261183d565b506040805160248082018790528251808303909101815260449091019091526020810180516001600160e01b03167f0e752702000000000000000000000000000000000000000000000000000000001790525b6001600160a01b0380871660009081526005602052604090205416734ddc2d193948926d02f9b1fe9e1daa0718270ed5811461187a57600061187c565b855b90989097509095509350505050565b80608001516118a2826000015183604001516103e2565b106118f4576040805162461bcd60e51b815260206004820152601360248201527f4465627420776173206e6f742072657061696400000000000000000000000000604482015290519081900360640190fd5b50565b60006119068260000151611322565b116118f4576040805162461bcd60e51b815260206004820152601460248201527f4e6f7420656e6f756768206c6971756964697479000000000000000000000000604482015290519081900360640190fd5b60408051602480820193909352815180820390930183526044018152602080830180516001600160e01b03167fc5ebeaec000000000000000000000000000000000000000000000000000000001790526001600160a01b0393841660009081526005909152908120549092169391925090565b60408101516000906001600160a01b031615611a675781604001516001600160a01b03166370a0823183600001516040518263ffffffff1660e01b815260040180826001600160a01b0316815260200191505060206040518083038186803b158015611a3657600080fd5b505afa158015611a4a573d6000803e3d6000fd5b505050506040513d6020811015611a6057600080fd5b5051611a74565b81516001600160a01b0316315b90508160600151811015611ab95760405162461bcd60e51b8152600401808060200182810382526022815260200180611c3a6022913960400191505060405180910390fd5b6000611ac88360000151611322565b116115fd576040805162461bcd60e51b815260206004820152601460248201527f4e6f7420656e6f756768206c6971756964697479000000000000000000000000604482015290519081900360640190fd5b600082611b2957506000610475565b82820282848281611b3657fe5b0414611b735760405162461bcd60e51b8152600401808060200182810382526021815260200180611c5c6021913960400191505060405180910390fd5b9392505050565b6000808211611bd0576040805162461bcd60e51b815260206004820152601a60248201527f536166654d6174683a206469766973696f6e206279207a65726f000000000000604482015290519081900360640190fd5b818381611bd957fe5b049392505050565b6040805160c081018252600080825260208201819052918101829052606081018290526080810182905260a08101919091529056fe576520646f206e6f74206861766520656e6f75676820746f2072657061792064656274446964206e6f7420726563656976652074686520626f72726f776564206173736574536166654d6174683a206d756c7469706c69636174696f6e206f766572666c6f77a2646970667358221220f0f040e23884dfe1b519f3a1edee845bb8dc0fd4e395f39f7ebb21e8cd6c168d64736f6c63430007060033",
  "devdoc": {
    "author": "Babylon Finance Abstract class that houses compound borring logic.",
    "kind": "dev",
    "methods": {
      "borrow(address,address,uint256)": {
        "params": {
          "amount": "The amount to borrow",
          "asset": "The asset to be borrowed"
        }
      },
      "constructor": {
        "params": {
          "_controller": "Address of the controller",
          "_maxCollateralFactor": "Max collateral factor allowed",
          "_weth": "Address of the WETH ERC20"
        }
      },
      "getBorrowBalance(address,address)": {
        "params": {
          "asset": "The underlying asset"
        }
      },
      "getCollateralBalance(address,address)": {
        "params": {
          "asset": "The collateral to check"
        }
      },
      "repay(address,address,uint256)": {
        "params": {
          "amount": "The amount to repay",
          "asset": "The asset to be repaid"
        }
      }
    },
    "title": "CompoundBorrowIntegration",
    "version": 1
  },
  "userdoc": {
    "kind": "user",
    "methods": {
      "borrow(address,address,uint256)": {
        "notice": "Borrows an asset"
      },
      "constructor": {
        "notice": "Creates the integration"
      },
      "getBorrowBalance(address,address)": {
        "notice": "Get the amount of borrowed debt that needs to be repaid"
      },
      "getCollateralBalance(address,address)": {
        "notice": "Get the amount of collateral depposited"
      },
      "getName()": {
        "notice": "Returns the name of the integration"
      },
      "getRemainingLiquidity(address)": {
        "notice": "Get the remaining liquidity available to borrow"
      },
      "repay(address,address,uint256)": {
        "notice": "Repays a borrowed asset debt"
      }
    },
    "version": 1
  },
  "storageLayout": {
    "storage": [
      {
        "astId": 18504,
        "contract": "contracts/integrations/borrow/CompoundBorrowIntegration.sol:CompoundBorrowIntegration",
        "label": "controller",
        "offset": 0,
        "slot": "0",
        "type": "t_contract(IBabController)25684"
      },
      {
        "astId": 18508,
        "contract": "contracts/integrations/borrow/CompoundBorrowIntegration.sol:CompoundBorrowIntegration",
        "label": "name",
        "offset": 0,
        "slot": "1",
        "type": "t_string_storage"
      },
      {
        "astId": 18512,
        "contract": "contracts/integrations/borrow/CompoundBorrowIntegration.sol:CompoundBorrowIntegration",
        "label": "initializedByGarden",
        "offset": 0,
        "slot": "2",
        "type": "t_mapping(t_address,t_bool)"
      },
      {
        "astId": 5859,
        "contract": "contracts/integrations/borrow/CompoundBorrowIntegration.sol:CompoundBorrowIntegration",
        "label": "_status",
        "offset": 0,
        "slot": "3",
        "type": "t_uint256"
      },
      {
        "astId": 18899,
        "contract": "contracts/integrations/borrow/CompoundBorrowIntegration.sol:CompoundBorrowIntegration",
        "label": "maxCollateralFactor",
        "offset": 0,
        "slot": "4",
        "type": "t_uint256"
      },
      {
        "astId": 19599,
        "contract": "contracts/integrations/borrow/CompoundBorrowIntegration.sol:CompoundBorrowIntegration",
        "label": "assetToCToken",
        "offset": 0,
        "slot": "5",
        "type": "t_mapping(t_address,t_address)"
      }
    ],
    "types": {
      "t_address": {
        "encoding": "inplace",
        "label": "address",
        "numberOfBytes": "20"
      },
      "t_bool": {
        "encoding": "inplace",
        "label": "bool",
        "numberOfBytes": "1"
      },
      "t_contract(IBabController)25684": {
        "encoding": "inplace",
        "label": "contract IBabController",
        "numberOfBytes": "20"
      },
      "t_mapping(t_address,t_address)": {
        "encoding": "mapping",
        "key": "t_address",
        "label": "mapping(address => address)",
        "numberOfBytes": "32",
        "value": "t_address"
      },
      "t_mapping(t_address,t_bool)": {
        "encoding": "mapping",
        "key": "t_address",
        "label": "mapping(address => bool)",
        "numberOfBytes": "32",
        "value": "t_bool"
      },
      "t_string_storage": {
        "encoding": "bytes",
        "label": "string",
        "numberOfBytes": "32"
      },
      "t_uint256": {
        "encoding": "inplace",
        "label": "uint256",
        "numberOfBytes": "32"
      }
    }
  }
}