{
  "address": "0xFbbF642eC7D336B8e62CbF60Bf0a2a92C8566e56",
  "abi": [
    {
      "inputs": [
        {
          "internalType": "string",
          "name": "_name",
          "type": "string"
        },
        {
          "internalType": "contract IBabController",
          "name": "_controller",
          "type": "address"
        },
        {
          "internalType": "contract IComptroller",
          "name": "_comptroller",
          "type": "address"
        }
      ],
      "stateMutability": "nonpayable",
      "type": "constructor"
    },
    {
      "anonymous": false,
      "inputs": [
        {
          "indexed": true,
          "internalType": "address",
          "name": "garden",
          "type": "address"
        },
        {
          "indexed": true,
          "internalType": "address",
          "name": "strategy",
          "type": "address"
        },
        {
          "indexed": true,
          "internalType": "address",
          "name": "assetToken",
          "type": "address"
        },
        {
          "indexed": false,
          "internalType": "uint256",
          "name": "numTokensToRedeem",
          "type": "uint256"
        },
        {
          "indexed": false,
          "internalType": "uint256",
          "name": "protocolFee",
          "type": "uint256"
        }
      ],
      "name": "TokensRedeemed",
      "type": "event"
    },
    {
      "anonymous": false,
      "inputs": [
        {
          "indexed": true,
          "internalType": "address",
          "name": "garden",
          "type": "address"
        },
        {
          "indexed": true,
          "internalType": "address",
          "name": "strategy",
          "type": "address"
        },
        {
          "indexed": true,
          "internalType": "address",
          "name": "assetToken",
          "type": "address"
        },
        {
          "indexed": false,
          "internalType": "uint256",
          "name": "numTokensToSupply",
          "type": "uint256"
        }
      ],
      "name": "TokensSupplied",
      "type": "event"
    },
    {
      "inputs": [
        {
          "internalType": "address",
          "name": "",
          "type": "address"
        }
      ],
      "name": "assetToCToken",
      "outputs": [
        {
          "internalType": "address",
          "name": "",
          "type": "address"
        }
      ],
      "stateMutability": "view",
      "type": "function"
    },
    {
      "inputs": [],
      "name": "controller",
      "outputs": [
        {
          "internalType": "contract IBabController",
          "name": "",
          "type": "address"
        }
      ],
      "stateMutability": "view",
      "type": "function"
    },
    {
      "inputs": [
        {
          "internalType": "address",
          "name": "_assetToken",
          "type": "address"
        }
      ],
      "name": "getCollateralFactor",
      "outputs": [
        {
          "internalType": "uint256",
          "name": "",
          "type": "uint256"
        }
      ],
      "stateMutability": "view",
      "type": "function"
    },
    {
      "inputs": [
        {
          "internalType": "address",
          "name": "_assetToken",
          "type": "address"
        }
      ],
      "name": "getExchangeRatePerToken",
      "outputs": [
        {
          "internalType": "uint256",
          "name": "",
          "type": "uint256"
        }
      ],
      "stateMutability": "view",
      "type": "function"
    },
    {
      "inputs": [
        {
          "internalType": "address",
          "name": "_assetToken",
          "type": "address"
        },
        {
          "internalType": "uint256",
          "name": "_numTokensToSupply",
          "type": "uint256"
        }
      ],
      "name": "getExpectedShares",
      "outputs": [
        {
          "internalType": "uint256",
          "name": "",
          "type": "uint256"
        }
      ],
      "stateMutability": "view",
      "type": "function"
    },
    {
      "inputs": [
        {
          "internalType": "address",
          "name": "_assetToken",
          "type": "address"
        }
      ],
      "name": "getInvestmentToken",
      "outputs": [
        {
          "internalType": "address",
          "name": "",
          "type": "address"
        }
      ],
      "stateMutability": "view",
      "type": "function"
    },
    {
      "inputs": [
        {
          "internalType": "address",
          "name": "_address",
          "type": "address"
        },
        {
          "internalType": "address",
          "name": "_assetToken",
          "type": "address"
        }
      ],
      "name": "getInvestmentTokenAmount",
      "outputs": [
        {
          "internalType": "uint256",
          "name": "",
          "type": "uint256"
        }
      ],
      "stateMutability": "view",
      "type": "function"
    },
    {
      "inputs": [],
      "name": "getRewardToken",
      "outputs": [
        {
          "internalType": "address",
          "name": "",
          "type": "address"
        }
      ],
      "stateMutability": "view",
      "type": "function"
    },
    {
      "inputs": [
        {
          "internalType": "address",
          "name": "_strategy",
          "type": "address"
        }
      ],
      "name": "getRewardsAccrued",
      "outputs": [
        {
          "internalType": "uint256",
          "name": "",
          "type": "uint256"
        }
      ],
      "stateMutability": "view",
      "type": "function"
    },
    {
      "inputs": [
        {
          "internalType": "address",
          "name": "_investmentAddress",
          "type": "address"
        }
      ],
      "name": "isInvestment",
      "outputs": [
        {
          "internalType": "bool",
          "name": "",
          "type": "bool"
        }
      ],
      "stateMutability": "view",
      "type": "function"
    },
    {
      "inputs": [],
      "name": "name",
      "outputs": [
        {
          "internalType": "string",
          "name": "",
          "type": "string"
        }
      ],
      "stateMutability": "view",
      "type": "function"
    },
    {
      "inputs": [],
      "name": "overrideMappings",
      "outputs": [],
      "stateMutability": "nonpayable",
      "type": "function"
    },
    {
      "inputs": [
        {
          "internalType": "address",
          "name": "_strategy",
          "type": "address"
        },
        {
          "internalType": "address",
          "name": "_assetToken",
          "type": "address"
        },
        {
          "internalType": "uint256",
          "name": "_numTokensToRedeem",
          "type": "uint256"
        },
        {
          "internalType": "uint256",
          "name": "_minAmountExpected",
          "type": "uint256"
        }
      ],
      "name": "redeemTokens",
      "outputs": [],
      "stateMutability": "nonpayable",
      "type": "function"
    },
    {
      "inputs": [
        {
          "internalType": "address",
          "name": "_strategy",
          "type": "address"
        },
        {
          "internalType": "address",
          "name": "_assetToken",
          "type": "address"
        },
        {
          "internalType": "uint256",
          "name": "_numTokensToSupply",
          "type": "uint256"
        },
        {
          "internalType": "uint256",
          "name": "_minAmountExpected",
          "type": "uint256"
        }
      ],
      "name": "supplyTokens",
      "outputs": [],
      "stateMutability": "nonpayable",
      "type": "function"
    },
    {
      "inputs": [
        {
          "internalType": "address",
          "name": "_assetAddress",
          "type": "address"
        },
        {
          "internalType": "address",
          "name": "_cTokenAddress",
          "type": "address"
        }
      ],
      "name": "updateCTokenMapping",
      "outputs": [],
      "stateMutability": "nonpayable",
      "type": "function"
    }
  ],
  "transactionHash": "0xfd8403d281ecedc8202eca000b10b58f2899463b110d27f09a211c4d2c6faf76",
  "args": [
    "compoundlend",
    "0xD4a5b5fcB561dAF3aDF86F8477555B92FBa43b5F",
    "0x3d9819210a31b4961b30ef54be2aed79b9c9cd3b"
  ],
  "solcInputHash": "31b3d113567ae9d01dece0c4b23779c1",
  "bytecode": "0x60c06040523480156200001157600080fd5b5060405162002b6a38038062002b6a833981810160405260608110156200003757600080fd5b81019080805160405193929190846401000000008211156200005857600080fd5b9083019060208201858111156200006e57600080fd5b82516401000000008111828201881017156200008957600080fd5b82525081516020918201929091019080838360005b83811015620000b85781810151838201526020016200009e565b50505050905090810190601f168015620000e65780820380516001836020036101000a031916815260200191505b50604090815260208201519101519092509050828281816001600160a01b03811662000159576040805162461bcd60e51b815260206004820152601a60248201527f436f6e74726f6c6c6572206d75737420626520646566696e6564000000000000604482015290519081900360640190fd5b81516200016e906000906020850190620003dc565b506001600160601b0319606091821b8116608052600180559085901b1660a052506200019e9150829050620001a7565b50505062000488565b6000816001600160a01b031663b0772d0b6040518163ffffffff1660e01b815260040160006040518083038186803b158015620001e357600080fd5b505afa158015620001f8573d6000803e3d6000fd5b505050506040513d6000823e601f3d908101601f1916820160405260208110156200022257600080fd5b81019080805160405193929190846401000000008211156200024357600080fd5b9083019060208201858111156200025957600080fd5b82518660208202830111640100000000821117156200027757600080fd5b82525081516020918201928201910280838360005b83811015620002a65781810151838201526020016200028c565b50505050905001604052505050905060005b8151811015620003d7576000828281518110620002d157fe5b60200260200101516001600160a01b0316734ddc2d193948926d02f9b1fe9e1daa0718270ed56001600160a01b03161462000385578282815181106200031357fe5b60200260200101516001600160a01b0316636f307dc36040518163ffffffff1660e01b815260040160206040518083038186803b1580156200035457600080fd5b505afa15801562000369573d6000803e3d6000fd5b505050506040513d60208110156200038057600080fd5b505190505b8282815181106200039257fe5b6020908102919091018101516001600160a01b0392831660009081526002909252604090912080546001600160a01b03191692909116919091179055600101620002b8565b505050565b828054600181600116156101000203166002900490600052602060002090601f0160209004810192826200041457600085556200045f565b82601f106200042f57805160ff19168380011785556200045f565b828001600101855582156200045f579182015b828111156200045f57825182559160200191906001019062000442565b506200046d92915062000471565b5090565b5b808211156200046d576000815560010162000472565b60805160601c60a05160601c612686620004e4600039806108cb528061179a5280611ebb5280611fe152806122c45250806105c9528061065f528061076652806107fc528061097952806110dc528061167052506126866000f3fe608060405234801561001057600080fd5b50600436106100f55760003560e01c8063912a185711610097578063eb40e60011610066578063eb40e60014610327578063f14b57881461034d578063f77c479114610389578063ff0a30f014610391576100f5565b8063912a18571461027957806397bb9342146102a95780639e12fef2146102b1578063d0d2d3a2146102eb576100f5565b80633550bd62116100d35780633550bd62146101d55780634deef6491461021757806369940d79146102435780637137f5521461024b576100f5565b806306fdde03146100fa57806307b54c6f1461017757806323617585146101af575b600080fd5b6101026103b7565b6040805160208082528351818301528351919283929083019185019080838360005b8381101561013c578181015183820152602001610124565b50505050905090810190601f1680156101695780820380516001836020036101000a031916815260200191505b509250505060405180910390f35b61019d6004803603602081101561018d57600080fd5b50356001600160a01b0316610445565b60408051918252519081900360200190f35b61019d600480360360208110156101c557600080fd5b50356001600160a01b0316610458565b6101fb600480360360208110156101eb57600080fd5b50356001600160a01b0316610463565b604080516001600160a01b039092168252519081900360200190f35b61019d6004803603604081101561022d57600080fd5b506001600160a01b03813516906020013561047e565b6101fb610493565b61019d6004803603604081101561026157600080fd5b506001600160a01b03813581169160200135166104a2565b6102a76004803603604081101561028f57600080fd5b506001600160a01b03813581169160200135166105c7565b005b6102a7610764565b6102d7600480360360208110156102c757600080fd5b50356001600160a01b03166108f1565b604080519115158252519081900360200190f35b6102a76004803603608081101561030157600080fd5b506001600160a01b038135811691602081013590911690604081013590606001356108fc565b6101fb6004803603602081101561033d57600080fd5b50356001600160a01b0316611054565b6102a76004803603608081101561036357600080fd5b506001600160a01b0381358116916020810135909116906040810135906060013561105f565b6101fb61166e565b61019d600480360360208110156103a757600080fd5b50356001600160a01b0316611692565b6000805460408051602060026001851615610100026000190190941693909304601f8101849004840282018401909252818152929183018282801561043d5780601f106104125761010080835404028352916020019161043d565b820191906000526020600020905b81548152906001019060200180831161042057829003601f168201915b505050505081565b60006104508261169d565b90505b919050565b600061045082611788565b6002602052600090815260409020546001600160a01b031681565b600061048a838361183b565b90505b92915050565b600061049d61185f565b905090565b6000806104ae83611877565b90506105bf670de0b6b3a76400006105b9836001600160a01b031663182df0f56040518163ffffffff1660e01b815260040160206040518083038186803b1580156104f857600080fd5b505afa15801561050c573d6000803e3d6000fd5b505050506040513d602081101561052257600080fd5b5051604080517f70a082310000000000000000000000000000000000000000000000000000000081526001600160a01b038a811660048301529151918716916370a0823191602480820192602092909190829003018186803b15801561058757600080fd5b505afa15801561059b573d6000803e3d6000fd5b505050506040513d60208110156105b157600080fd5b505190611895565b906118b9565b949350505050565b7f00000000000000000000000000000000000000000000000000000000000000006001600160a01b0316638da5cb5b6040518163ffffffff1660e01b815260040160206040518083038186803b15801561062057600080fd5b505afa158015610634573d6000803e3d6000fd5b505050506040513d602081101561064a57600080fd5b50516001600160a01b03163314806106ee57507f00000000000000000000000000000000000000000000000000000000000000006001600160a01b0316638d97e0436040518163ffffffff1660e01b815260040160206040518083038186803b1580156106b657600080fd5b505afa1580156106ca573d6000803e3d6000fd5b505050506040513d60208110156106e057600080fd5b50516001600160a01b031633145b6107295760405162461bcd60e51b815260040180806020018281038252602a8152602001806125d0602a913960400191505060405180910390fd5b6001600160a01b039182166000908152600260205260409020805473ffffffffffffffffffffffffffffffffffffffff191691909216179055565b7f00000000000000000000000000000000000000000000000000000000000000006001600160a01b0316638da5cb5b6040518163ffffffff1660e01b815260040160206040518083038186803b1580156107bd57600080fd5b505afa1580156107d1573d6000803e3d6000fd5b505050506040513d60208110156107e757600080fd5b50516001600160a01b031633148061088b57507f00000000000000000000000000000000000000000000000000000000000000006001600160a01b0316638d97e0436040518163ffffffff1660e01b815260040160206040518083038186803b15801561085357600080fd5b505afa158015610867573d6000803e3d6000fd5b505050506040513d602081101561087d57600080fd5b50516001600160a01b031633145b6108c65760405162461bcd60e51b815260040180806020018281038252602a8152602001806125d0602a913960400191505060405180910390fd5b6108ef7f0000000000000000000000000000000000000000000000000000000000000000611920565b565b600061045082611b51565b60026001541415610954576040805162461bcd60e51b815260206004820152601f60248201527f5265656e7472616e637947756172643a207265656e7472616e742063616c6c00604482015290519081900360640190fd5b6002600155604080516313bc6d4b60e01b815233600482015290516001600160a01b037f000000000000000000000000000000000000000000000000000000000000000016916313bc6d4b916024808301926020929190829003018186803b1580156109bf57600080fd5b505afa1580156109d3573d6000803e3d6000fd5b505050506040513d60208110156109e957600080fd5b5051610a3c576040805162461bcd60e51b815260206004820152601960248201527f4f6e6c792073797374656d2063616e2063616c6c207468697300000000000000604482015290519081900360640190fd5b6000610a538585610a4c87611877565b8686611b71565b9050610a5e81611cea565b6000806000610a6f87876001611dbf565b919450925090506001600160a01b03831615610c395783600001516001600160a01b0316636bc195dd8484846040518463ffffffff1660e01b815260040180846001600160a01b0316815260200183815260200180602001828103825283818151815260200191508051906020019080838360005b83811015610afc578181015183820152602001610ae4565b50505050905090810190601f168015610b295780820380516001836020036101000a031916815260200191505b50945050505050600060405180830381600087803b158015610b4a57600080fd5b505af1158015610b5e573d6000803e3d6000fd5b505050506040513d6000823e601f3d908101601f191682016040526020811015610b8757600080fd5b8101908080516040519392919084640100000000821115610ba757600080fd5b908301906020820185811115610bbc57600080fd5b8251640100000000811182820188101715610bd657600080fd5b82525081516020918201929091019080838360005b83811015610c03578181015183820152602001610beb565b50505050905090810190601f168015610c305780820380516001836020036101000a031916815260200191505b50604052505050505b6000806000610c498b8b8b611f0f565b92509250925086600001516001600160a01b0316636bc195dd8484846040518463ffffffff1660e01b815260040180846001600160a01b0316815260200183815260200180602001828103825283818151815260200191508051906020019080838360005b83811015610cc6578181015183820152602001610cae565b50505050905090810190601f168015610cf35780820380516001836020036101000a031916815260200191505b50945050505050600060405180830381600087803b158015610d1457600080fd5b505af1158015610d28573d6000803e3d6000fd5b505050506040513d6000823e601f3d908101601f191682016040526020811015610d5157600080fd5b8101908080516040519392919084640100000000821115610d7157600080fd5b908301906020820185811115610d8657600080fd5b8251640100000000811182820188101715610da057600080fd5b82525081516020918201929091019080838360005b83811015610dcd578181015183820152602001610db5565b50505050905090810190601f168015610dfa5780820380516001836020036101000a031916815260200191505b50604052505050506000806000610e108e611f82565b919450925090506001600160a01b03831615610fda5789600001516001600160a01b0316636bc195dd8484846040518463ffffffff1660e01b815260040180846001600160a01b0316815260200183815260200180602001828103825283818151815260200191508051906020019080838360005b83811015610e9d578181015183820152602001610e85565b50505050905090810190601f168015610eca5780820380516001836020036101000a031916815260200191505b50945050505050600060405180830381600087803b158015610eeb57600080fd5b505af1158015610eff573d6000803e3d6000fd5b505050506040513d6000823e601f3d908101601f191682016040526020811015610f2857600080fd5b8101908080516040519392919084640100000000821115610f4857600080fd5b908301906020820185811115610f5d57600080fd5b8251640100000000811182820188101715610f7757600080fd5b82525081516020918201929091019080838360005b83811015610fa4578181015183820152602001610f8c565b50505050905090810190601f168015610fd15780820380516001836020036101000a031916815260200191505b50604052505050505b610fe38a612007565b8c6001600160a01b03168a600001516001600160a01b03168b602001516001600160a01b03167fd17d95895382b096bb1f89ed05a71c3e014d5ecf25944c8f1f27f07b2b9d31948f6040518082815260200191505060405180910390a4505060018055505050505050505050505050565b600061045082611877565b600260015414156110b7576040805162461bcd60e51b815260206004820152601f60248201527f5265656e7472616e637947756172643a207265656e7472616e742063616c6c00604482015290519081900360640190fd5b6002600155604080516313bc6d4b60e01b815233600482015290516001600160a01b037f000000000000000000000000000000000000000000000000000000000000000016916313bc6d4b916024808301926020929190829003018186803b15801561112257600080fd5b505afa158015611136573d6000803e3d6000fd5b505050506040513d602081101561114c57600080fd5b505161119f576040805162461bcd60e51b815260206004820152601960248201527f4f6e6c792073797374656d2063616e2063616c6c207468697300000000000000604482015290519081900360640190fd5b60006111af8585610a4c87611877565b90506111ba816120f8565b60008060006111cb87876000611dbf565b919450925090506001600160a01b038316156113955783600001516001600160a01b0316636bc195dd8484846040518463ffffffff1660e01b815260040180846001600160a01b0316815260200183815260200180602001828103825283818151815260200191508051906020019080838360005b83811015611258578181015183820152602001611240565b50505050905090810190601f1680156112855780820380516001836020036101000a031916815260200191505b50945050505050600060405180830381600087803b1580156112a657600080fd5b505af11580156112ba573d6000803e3d6000fd5b505050506040513d6000823e601f3d908101601f1916820160405260208110156112e357600080fd5b810190808051604051939291908464010000000082111561130357600080fd5b90830190602082018581111561131857600080fd5b825164010000000081118282018810171561133257600080fd5b82525081516020918201929091019080838360005b8381101561135f578181015183820152602001611347565b50505050905090810190601f16801561138c5780820380516001836020036101000a031916815260200191505b50604052505050505b6001600160a01b0387161561142e5783516001600160a01b03166397ccdc606113bd89611877565b89896040518463ffffffff1660e01b815260040180846001600160a01b03168152602001836001600160a01b031681526020018281526020019350505050600060405180830381600087803b15801561141557600080fd5b505af1158015611429573d6000803e3d6000fd5b505050505b600080600061143e8b8b8b612183565b92509250925086600001516001600160a01b0316636bc195dd8484846040518463ffffffff1660e01b815260040180846001600160a01b0316815260200183815260200180602001828103825283818151815260200191508051906020019080838360005b838110156114bb5781810151838201526020016114a3565b50505050905090810190601f1680156114e85780820380516001836020036101000a031916815260200191505b50945050505050600060405180830381600087803b15801561150957600080fd5b505af115801561151d573d6000803e3d6000fd5b505050506040513d6000823e601f3d908101601f19168201604052602081101561154657600080fd5b810190808051604051939291908464010000000082111561156657600080fd5b90830190602082018581111561157b57600080fd5b825164010000000081118282018810171561159557600080fd5b82525081516020918201929091019080838360005b838110156115c25781810151838201526020016115aa565b50505050905090810190601f1680156115ef5780820380516001836020036101000a031916815260200191505b50604052505050506116008761226d565b896001600160a01b031687600001516001600160a01b031688602001516001600160a01b03167fd17d95895382b096bb1f89ed05a71c3e014d5ecf25944c8f1f27f07b2b9d31948c6040518082815260200191505060405180910390a4505060018055505050505050505050565b7f000000000000000000000000000000000000000000000000000000000000000081565b6000610450826122c0565b6001600160a01b0380821660009081526002602090815260408083205481517f182df0f50000000000000000000000000000000000000000000000000000000081529151939416928492849263182df0f59260048083019392829003018186803b15801561170a57600080fd5b505afa15801561171e573d6000803e3d6000fd5b505050506040513d602081101561173457600080fd5b50519050600061174c6001600160a01b038616612361565b9050600881101561177557600881900361176a83600a83900a611895565b945050505050610453565b600719810161176a83600a83900a6118b9565b60008061179483611877565b905060007f00000000000000000000000000000000000000000000000000000000000000006001600160a01b0316638e8f294b836040518263ffffffff1660e01b815260040180826001600160a01b03168152602001915050604080518083038186803b15801561180457600080fd5b505afa158015611818573d6000803e3d6000fd5b505050506040513d604081101561182e57600080fd5b5060200151949350505050565b6000806118478461169d565b90506105bf670de0b6b3a76400006105b98386611895565b73c00e94cb662c3520282e6f5717214004a7f2688890565b6001600160a01b039081166000908152600260205260409020541690565b60008215806118b0575050818102818382816118ad57fe5b04145b61048d57600080fd5b600080821161190f576040805162461bcd60e51b815260206004820152601a60248201527f536166654d6174683a206469766973696f6e206279207a65726f000000000000604482015290519081900360640190fd5b81838161191857fe5b049392505050565b6000816001600160a01b031663b0772d0b6040518163ffffffff1660e01b815260040160006040518083038186803b15801561195b57600080fd5b505afa15801561196f573d6000803e3d6000fd5b505050506040513d6000823e601f3d908101601f19168201604052602081101561199857600080fd5b81019080805160405193929190846401000000008211156119b857600080fd5b9083019060208201858111156119cd57600080fd5b82518660208202830111640100000000821117156119ea57600080fd5b82525081516020918201928201910280838360005b83811015611a175781810151838201526020016119ff565b50505050905001604052505050905060005b8151811015611b4c576000828281518110611a4057fe5b60200260200101516001600160a01b0316734ddc2d193948926d02f9b1fe9e1daa0718270ed56001600160a01b031614611aef57828281518110611a8057fe5b60200260200101516001600160a01b0316636f307dc36040518163ffffffff1660e01b815260040160206040518083038186803b158015611ac057600080fd5b505afa158015611ad4573d6000803e3d6000fd5b505050506040513d6020811015611aea57600080fd5b505190505b828281518110611afb57fe5b6020908102919091018101516001600160a01b03928316600090815260029092526040909120805473ffffffffffffffffffffffffffffffffffffffff191692909116919091179055600101611a29565b505050565b6001600160a01b0390811660009081526002602052604090205416151590565b611b7961249f565b611b8161249f565b6001600160a01b038716808252604080517f56ba88b800000000000000000000000000000000000000000000000000000000815290516356ba88b891600480820192602092909190829003018186803b158015611bdd57600080fd5b505afa158015611bf1573d6000803e3d6000fd5b505050506040513d6020811015611c0757600080fd5b50516001600160a01b039081166020830152868116604083015285166060820152611c3287876104a2565b60a08201526001600160a01b03861615611cc457856001600160a01b03166370a08231886040518263ffffffff1660e01b815260040180826001600160a01b0316815260200191505060206040518083038186803b158015611c9357600080fd5b505afa158015611ca7573d6000803e3d6000fd5b505050506040513d6020811015611cbd57600080fd5b5051611cd0565b866001600160a01b0316315b60c082015260808101939093525060e08201529392505050565b611cf78160400151611b51565b611d325760405162461bcd60e51b815260040180806020018281038252602381526020018061262e6023913960400191505060405180910390fd5b6000816080015111611d755760405162461bcd60e51b81526004018080602001828103825260348152602001806125fa6034913960400191505060405180910390fd5b80608001518160a001511015611dbc5760405162461bcd60e51b81526004018080602001828103825260318152602001806125096031913960400191505060405180910390fd5b50565b600080606083611eef57604080516001808252818301909252600091602080830190803683375050506001600160a01b03888116600090815260026020526040812054835193945090911691839190611e1457fe5b6001600160a01b0390921660209283029190910182015260405160248101828152835160448301528351600093859383926064909101918581019102808383895b83811015611e6d578181015183820152602001611e55565b50506040805193909501838103601f19018452909452506020810180517fc2998238000000000000000000000000000000000000000000000000000000006001600160e01b039091161790527f00000000000000000000000000000000000000000000000000000000000000009a50600099509750611f069650505050505050565b505060408051602081019091526000808252915081905b93509350939050565b60408051602480820193909352815180820390930183526044018152602080830180516001600160e01b03167f852a12e3000000000000000000000000000000000000000000000000000000001790526001600160a01b0393841660009081526002909152908120549092169391925090565b604080516001600160a01b039290921660248084019190915281518084039091018152604490920190526020810180516001600160e01b03167fe9af0292000000000000000000000000000000000000000000000000000000001790527f00000000000000000000000000000000000000000000000000000000000000009160009190565b60408101516000906001600160a01b0316156120a35781604001516001600160a01b03166370a0823183600001516040518263ffffffff1660e01b815260040180826001600160a01b0316815260200191505060206040518083038186803b15801561207257600080fd5b505afa158015612086573d6000803e3d6000fd5b505050506040513d602081101561209c57600080fd5b50516120b0565b81516001600160a01b0316315b90508160c0015181116120f45760405162461bcd60e51b815260040180806020018281038252602f81526020018061256a602f913960400191505060405180910390fd5b5050565b6121058160400151611b51565b6121405760405162461bcd60e51b815260040180806020018281038252602381526020018061262e6023913960400191505060405180910390fd5b6000816080015111611dbc5760405162461bcd60e51b81526004018080602001828103825260378152602001806125996037913960400191505060405180910390fd5b6000806060806001600160a01b0386166121df57506040805160048152602481019091526020810180516001600160e01b03167f1249c58b00000000000000000000000000000000000000000000000000000000179052612232565b506040805160248082018790528251808303909101815260449091019091526020810180516001600160e01b03167fa0712d68000000000000000000000000000000000000000000000000000000001790525b6001600160a01b03808716600081815260026020526040902054909116901561225c57600061225e565b855b90989097509095509350505050565b8060a00151612284826000015183604001516104a2565b11611dbc5760405162461bcd60e51b815260040180806020018281038252603081526020018061253a6030913960400191505060405180910390fd5b60007f00000000000000000000000000000000000000000000000000000000000000006001600160a01b031663cc7ebdc4836040518263ffffffff1660e01b815260040180826001600160a01b0316815260200191505060206040518083038186803b15801561232f57600080fd5b505afa158015612343573d6000803e3d6000fd5b505050506040513d602081101561235957600080fd5b505192915050565b600061236c82612492565b1561237957506012610453565b60408051600481526024810182526020810180516001600160e01b03167f313ce567000000000000000000000000000000000000000000000000000000001781529151815160009384936001600160a01b0388169361138893919290918291908083835b602083106123fc5780518252601f1990920191602091820191016123dd565b6001836020036101000a0380198251168184511680821785525050505050509050019150506000604051808303818686fa925050503d806000811461245d576040519150601f19603f3d011682016040523d82523d6000602084013e612462565b606091505b5091509150816124735760126105bf565b80806020019051602081101561248857600080fd5b5051949350505050565b6001600160a01b03161590565b60405180610100016040528060006001600160a01b0316815260200160006001600160a01b0316815260200160006001600160a01b0316815260200160006001600160a01b0316815260200160008152602001600081526020016000815260200160008152509056fe5468652067617264656e20646f6573206e6f74206861766520656e6f75676820696e766573746d656e7420746f6b656e735468652067617264656e20646964206e6f7420726563656976652074686520696e766573746d656e7420746f6b656e735468652067617264656e20646964206e6f742072657475726e2074686520696e766573746d656e7420746f6b656e734d696e20696e766573746d656e7420746f6b656e7320746f2072656365697665206d7573742062652067726561746572207468616e20304f6e6c7920676f7665726e616e6365206f7220656d657267656e63792063616e2063616c6c2074686973496e766573746d656e7420746f6b656e7320746f2065786368616e6765206d7573742062652067726561746572207468616e203054686520696e766573746d656e742061646472657373206973206e6f742076616c6964a26469706673582212200797a8b0cce5d41c154a4c815878958f6667a5d3c62a308a64fcab61ea4f183b64736f6c63430007060033",
  "devdoc": {
    "author": "Babylon Finance Protocol Compound lend integration.",
    "kind": "dev",
    "methods": {
      "constructor": {
        "params": {
          "_comptroller": "Address of the compound comptroller",
          "_controller": "Address of the controller",
          "_name": "Name of the integration"
        }
      },
      "getExpectedShares(address,uint256)": {
        "params": {
          "_numTokensToSupply": "Amount of ERC20 tokens to supply"
        },
        "returns": {
          "_0": "uint256                           Amount of supply tokens to receive"
        }
      },
      "getRewardToken()": {
        "returns": {
          "_0": "address       Address of the reward token"
        }
      },
      "getRewardsAccrued(address)": {
        "params": {
          "_strategy": "Address of the strategy"
        },
        "returns": {
          "_0": "address       Address of the reward token"
        }
      },
      "isInvestment(address)": {
        "params": {
          "_investmentAddress": "Investment address to check"
        },
        "returns": {
          "_0": "bool                              True if the address is a investment"
        }
      }
    },
    "title": "CompoundLendIntegration",
    "version": 1
  },
  "userdoc": {
    "kind": "user",
    "methods": {
      "constructor": {
        "notice": "Creates the integration"
      },
      "getExpectedShares(address,uint256)": {
        "notice": "Gets the amount of cTokens expected to get after depositing ERC20 asset."
      },
      "getRewardToken()": {
        "notice": "Returns the reward token"
      },
      "getRewardsAccrued(address)": {
        "notice": "Returns the number of reward tokens accrued"
      },
      "isInvestment(address)": {
        "notice": "Checks whether an investment address is valid"
      }
    },
    "version": 1
  },
  "storageLayout": {
    "storage": [
      {
        "astId": 24909,
        "contract": "contracts/integrations/lend/CompoundLendIntegration.sol:CompoundLendIntegration",
        "label": "name",
        "offset": 0,
        "slot": "0",
        "type": "t_string_storage"
      },
      {
        "astId": 6418,
        "contract": "contracts/integrations/lend/CompoundLendIntegration.sol:CompoundLendIntegration",
        "label": "_status",
        "offset": 0,
        "slot": "1",
        "type": "t_uint256"
      },
      {
        "astId": 26840,
        "contract": "contracts/integrations/lend/CompoundLendIntegration.sol:CompoundLendIntegration",
        "label": "assetToCToken",
        "offset": 0,
        "slot": "2",
        "type": "t_mapping(t_address,t_address)"
      }
    ],
    "types": {
      "t_address": {
        "encoding": "inplace",
        "label": "address",
        "numberOfBytes": "20"
      },
      "t_mapping(t_address,t_address)": {
        "encoding": "mapping",
        "key": "t_address",
        "label": "mapping(address => address)",
        "numberOfBytes": "32",
        "value": "t_address"
      },
      "t_string_storage": {
        "encoding": "bytes",
        "label": "string",
        "numberOfBytes": "32"
      },
      "t_uint256": {
        "encoding": "inplace",
        "label": "uint256",
        "numberOfBytes": "32"
      }
    }
  }
}