{
  "address": "0xFe06f1d501f417e6E87531aB7618c65D42735995",
  "abi": [
    {
      "inputs": [
        {
          "internalType": "contract IBabController",
          "name": "_controller",
          "type": "address"
        }
      ],
      "stateMutability": "nonpayable",
      "type": "constructor"
    },
    {
      "anonymous": false,
      "inputs": [
        {
          "indexed": true,
          "internalType": "address",
          "name": "garden",
          "type": "address"
        },
        {
          "indexed": true,
          "internalType": "address",
          "name": "strategy",
          "type": "address"
        },
        {
          "indexed": true,
          "internalType": "address",
          "name": "investment",
          "type": "address"
        },
        {
          "indexed": false,
          "internalType": "address",
          "name": "tokenIn",
          "type": "address"
        },
        {
          "indexed": false,
          "internalType": "uint256",
          "name": "investmentTokensOut",
          "type": "uint256"
        }
      ],
      "name": "InvestmentEntered",
      "type": "event"
    },
    {
      "anonymous": false,
      "inputs": [
        {
          "indexed": true,
          "internalType": "address",
          "name": "garden",
          "type": "address"
        },
        {
          "indexed": true,
          "internalType": "address",
          "name": "strategy",
          "type": "address"
        },
        {
          "indexed": true,
          "internalType": "address",
          "name": "investment",
          "type": "address"
        },
        {
          "indexed": false,
          "internalType": "uint256",
          "name": "investmentTokensOut",
          "type": "uint256"
        }
      ],
      "name": "InvestmentExited",
      "type": "event"
    },
    {
      "inputs": [],
      "name": "_updateCache",
      "outputs": [],
      "stateMutability": "nonpayable",
      "type": "function"
    },
    {
      "inputs": [],
      "name": "controller",
      "outputs": [
        {
          "internalType": "contract IBabController",
          "name": "",
          "type": "address"
        }
      ],
      "stateMutability": "view",
      "type": "function"
    },
    {
      "inputs": [
        {
          "internalType": "address",
          "name": "_strategy",
          "type": "address"
        },
        {
          "internalType": "address",
          "name": "_investmentAddress",
          "type": "address"
        },
        {
          "internalType": "uint256",
          "name": "_investmentTokensOut",
          "type": "uint256"
        },
        {
          "internalType": "address",
          "name": "_tokenIn",
          "type": "address"
        },
        {
          "internalType": "uint256",
          "name": "_maxAmountIn",
          "type": "uint256"
        }
      ],
      "name": "enterInvestment",
      "outputs": [],
      "stateMutability": "nonpayable",
      "type": "function"
    },
    {
      "inputs": [
        {
          "internalType": "address",
          "name": "_strategy",
          "type": "address"
        },
        {
          "internalType": "address",
          "name": "_investmentAddress",
          "type": "address"
        },
        {
          "internalType": "uint256",
          "name": "_investmentTokenIn",
          "type": "uint256"
        },
        {
          "internalType": "address",
          "name": "_tokenOut",
          "type": "address"
        },
        {
          "internalType": "uint256",
          "name": "_minAmountOut",
          "type": "uint256"
        }
      ],
      "name": "exitInvestment",
      "outputs": [],
      "stateMutability": "nonpayable",
      "type": "function"
    },
    {
      "inputs": [
        {
          "internalType": "address",
          "name": "_investmentAddress",
          "type": "address"
        },
        {
          "internalType": "uint256",
          "name": "_ethAmount",
          "type": "uint256"
        }
      ],
      "name": "getExpectedShares",
      "outputs": [
        {
          "internalType": "uint256",
          "name": "",
          "type": "uint256"
        }
      ],
      "stateMutability": "view",
      "type": "function"
    },
    {
      "inputs": [
        {
          "internalType": "address",
          "name": "_investmentAddress",
          "type": "address"
        }
      ],
      "name": "getInvestmentAsset",
      "outputs": [
        {
          "internalType": "address",
          "name": "",
          "type": "address"
        }
      ],
      "stateMutability": "view",
      "type": "function"
    },
    {
      "inputs": [],
      "name": "getName",
      "outputs": [
        {
          "internalType": "string",
          "name": "",
          "type": "string"
        }
      ],
      "stateMutability": "view",
      "type": "function"
    },
    {
      "inputs": [
        {
          "internalType": "address",
          "name": "_asset",
          "type": "address"
        }
      ],
      "name": "getPid",
      "outputs": [
        {
          "internalType": "bool",
          "name": "",
          "type": "bool"
        },
        {
          "internalType": "uint256",
          "name": "",
          "type": "uint256"
        }
      ],
      "stateMutability": "view",
      "type": "function"
    },
    {
      "inputs": [
        {
          "internalType": "address",
          "name": "_investmentAddress",
          "type": "address"
        }
      ],
      "name": "getPricePerShare",
      "outputs": [
        {
          "internalType": "uint256",
          "name": "",
          "type": "uint256"
        }
      ],
      "stateMutability": "view",
      "type": "function"
    },
    {
      "inputs": [
        {
          "internalType": "address",
          "name": "_investmentAddress",
          "type": "address"
        }
      ],
      "name": "getResultAsset",
      "outputs": [
        {
          "internalType": "address",
          "name": "",
          "type": "address"
        }
      ],
      "stateMutability": "view",
      "type": "function"
    },
    {
      "inputs": [],
      "name": "name",
      "outputs": [
        {
          "internalType": "string",
          "name": "",
          "type": "string"
        }
      ],
      "stateMutability": "view",
      "type": "function"
    }
  ],
  "transactionHash": "0x67b070c4a3fe21163588dc757157884aa5362542a131ad2dd15b585b0e900ea4",
  "args": [
    "0xD4a5b5fcB561dAF3aDF86F8477555B92FBa43b5F"
  ],
  "solcInputHash": "4f2ede57b38e39518764caf3bdab1569",
  "bytecode": "0x608060405260006004553480156200001657600080fd5b50604051620021b0380380620021b0833981810160405260208110156200003c57600080fd5b50516040805180820190915260068152650c6dedceccaf60d31b60208201528181816001600160a01b038116620000ba576040805162461bcd60e51b815260206004820152601a60248201527f436f6e74726f6c6c6572206d75737420626520646566696e6564000000000000604482015290519081900360640190fd5b8151620000cf90600190602085019062000264565b50600080546001600160a01b0319166001600160a01b039290921691909117905550506001600255506200010262000109565b5062000310565b600073f403c135812408bfbe8713b5a23a04b3d48aae316001600160a01b031663081e3eda6040518163ffffffff1660e01b815260040160206040518083038186803b1580156200015957600080fd5b505afa1580156200016e573d6000803e3d6000fd5b505050506040513d60208110156200018557600080fd5b505160045490915081116200019b575062000262565b6004545b818110156200025d57600073f403c135812408bfbe8713b5a23a04b3d48aae316001600160a01b0316631526fe27836040518263ffffffff1660e01b81526004018082815260200191505060c06040518083038186803b1580156200020357600080fd5b505afa15801562000218573d6000803e3d6000fd5b505050506040513d60c08110156200022f57600080fd5b506020908101516001600160a01b03166000908152600390915260409020600190920191829055506200019f565b506004555b565b828054600181600116156101000203166002900490600052602060002090601f0160209004810192826200029c5760008555620002e7565b82601f10620002b757805160ff1916838001178555620002e7565b82800160010185558215620002e7579182015b82811115620002e7578251825591602001919060010190620002ca565b50620002f5929150620002f9565b5090565b5b80821115620002f55760008155600101620002fa565b611e9080620003206000396000f3fe608060405234801561001057600080fd5b50600436106100c95760003560e01c8063871be91111610081578063ec422afd1161005b578063ec422afd146102a6578063f337f630146102cc578063f77c4791146102f2576100c9565b8063871be91114610214578063976a99be1461025a578063a540bb541461029e576100c9565b806343b55f35116100b257806343b55f35146101535780634deef649146101945780637b082a74146101d2576100c9565b806306fdde03146100ce57806317d7de7c1461014b575b600080fd5b6100d66102fa565b6040805160208082528351818301528351919283929083019185019080838360005b838110156101105781810151838201526020016100f8565b50505050905090810190601f16801561013d5780820380516001836020036101000a031916815260200191505b509250505060405180910390f35b6100d6610387565b6101796004803603602081101561016957600080fd5b50356001600160a01b031661041c565b60408051921515835260208301919091528051918290030190f35b6101c0600480360360408110156101aa57600080fd5b506001600160a01b0381351690602001356105c8565b60408051918252519081900360200190f35b6101f8600480360360208110156101e857600080fd5b50356001600160a01b03166105dd565b604080516001600160a01b039092168252519081900360200190f35b610258600480360360a081101561022a57600080fd5b506001600160a01b0381358116916020810135821691604082013591606081013590911690608001356105e8565b005b610258600480360360a081101561027057600080fd5b506001600160a01b038135811691602081013582169160408201359160608101359091169060800135610d81565b610258611389565b6101c0600480360360208110156102bc57600080fd5b50356001600160a01b03166114da565b6101f8600480360360208110156102e257600080fd5b50356001600160a01b03166114e5565b6101f86114f0565b60018054604080516020600284861615610100026000190190941693909304601f8101849004840282018401909252818152929183018282801561037f5780601f106103545761010080835404028352916020019161037f565b820191906000526020600020905b81548152906001019060200180831161036257829003601f168201915b505050505081565b60018054604080516020601f600260001961010087891615020190951694909404938401819004810282018101909252828152606093909290918301828280156104125780601f106103e757610100808354040283529160200191610412565b820191906000526020600020905b8154815290600101906020018083116103f557829003601f168201915b5050505050905090565b6001600160a01b0381166000908152600360205260408120548190156104635750506001600160a01b038116600090815260036020526040902054600190600019016105c3565b600073f403c135812408bfbe8713b5a23a04b3d48aae316001600160a01b031663081e3eda6040518163ffffffff1660e01b815260040160206040518083038186803b1580156104b257600080fd5b505afa1580156104c6573d6000803e3d6000fd5b505050506040513d60208110156104dc57600080fd5b505160045490915081116104f75760008092509250506105c3565b6004545b818110156105b957600073f403c135812408bfbe8713b5a23a04b3d48aae316001600160a01b0316631526fe27836040518263ffffffff1660e01b81526004018082815260200191505060c06040518083038186803b15801561055d57600080fd5b505afa158015610571573d6000803e3d6000fd5b505050506040513d60c081101561058757600080fd5b506020015190506001600160a01b0380821690871614156105b057506001935091506105c39050565b506001016104fb565b5060008092509250505b915091565b60006105d483836114ff565b90505b92915050565b60006105d782611504565b60028054141561063f576040805162461bcd60e51b815260206004820152601f60248201527f5265656e7472616e637947756172643a207265656e7472616e742063616c6c00604482015290519081900360640190fd5b60028055600054604080516313bc6d4b60e01b815233600482015290516001600160a01b03909216916313bc6d4b91602480820192602092909190829003018186803b15801561068e57600080fd5b505afa1580156106a2573d6000803e3d6000fd5b505050506040513d60208110156106b857600080fd5b505161070b576040805162461bcd60e51b815260206004820152601960248201527f4f6e6c792073797374656d2063616e2063616c6c207468697300000000000000604482015290519081900360640190fd5b600061071a868686868661150f565b9050610725816116f3565b600080600061073688886001611780565b919450925090506001600160a01b03831615610aae57610754611798565b156108745783516001600160a01b03166397ccdc606107748a600161179d565b85866001600160a01b03166370a082318e6040518263ffffffff1660e01b815260040180826001600160a01b0316815260200191505060206040518083038186803b1580156107c257600080fd5b505afa1580156107d6573d6000803e3d6000fd5b505050506040513d60208110156107ec57600080fd5b5051604080517fffffffff0000000000000000000000000000000000000000000000000000000060e087901b1681526001600160a01b03948516600482015292909316602483015260448201529051606480830192600092919082900301818387803b15801561085b57600080fd5b505af115801561086f573d6000803e3d6000fd5b505050505b83600001516001600160a01b0316636bc195dd8484846040518463ffffffff1660e01b815260040180846001600160a01b0316815260200183815260200180602001828103825283818151815260200191508051906020019080838360005b838110156108eb5781810151838201526020016108d3565b50505050905090810190601f1680156109185780820380516001836020036101000a031916815260200191505b50945050505050600060405180830381600087803b15801561093957600080fd5b505af115801561094d573d6000803e3d6000fd5b505050506040513d6000823e601f3d908101601f19168201604052602081101561097657600080fd5b810190808051604051939291908464010000000082111561099657600080fd5b9083019060208201858111156109ab57600080fd5b82516401000000008111828201881017156109c557600080fd5b82525081516020918201929091019080838360005b838110156109f25781810151838201526020016109da565b50505050905090810190601f168015610a1f5780820380516001836020036101000a031916815260200191505b5060405250505050610a30886117cb565b9750876001600160a01b03166370a082318a6040518263ffffffff1660e01b815260040180826001600160a01b0316815260200191505060206040518083038186803b158015610a7f57600080fd5b505afa158015610a93573d6000803e3d6000fd5b505050506040513d6020811015610aa957600080fd5b505196505b83516001600160a01b03166397ccdc60610ac98a600161179d565b8a8a6040518463ffffffff1660e01b815260040180846001600160a01b03168152602001836001600160a01b031681526020018281526020019350505050600060405180830381600087803b158015610b2157600080fd5b505af1158015610b35573d6000803e3d6000fd5b505050506000806000610b4b8c8c8c8c8c6117ce565b92509250925086600001516001600160a01b0316636bc195dd8484846040518463ffffffff1660e01b815260040180846001600160a01b0316815260200183815260200180602001828103825283818151815260200191508051906020019080838360005b83811015610bc8578181015183820152602001610bb0565b50505050905090810190601f168015610bf55780820380516001836020036101000a031916815260200191505b50945050505050600060405180830381600087803b158015610c1657600080fd5b505af1158015610c2a573d6000803e3d6000fd5b505050506040513d6000823e601f3d908101601f191682016040526020811015610c5357600080fd5b8101908080516040519392919084640100000000821115610c7357600080fd5b908301906020820185811115610c8857600080fd5b8251640100000000811182820188101715610ca257600080fd5b82525081516020918201929091019080838360005b83811015610ccf578181015183820152602001610cb7565b50505050905090810190601f168015610cfc5780820380516001836020036101000a031916815260200191505b5060405250505050610d0d87611859565b86604001516001600160a01b031687600001516001600160a01b031688602001516001600160a01b03167f99d773709d80de3e15433c22c381fd8e3b82a68b56322240ff4a304956ef0e528d6040518082815260200191505060405180910390a45050600160025550505050505050505050565b600280541415610dd8576040805162461bcd60e51b815260206004820152601f60248201527f5265656e7472616e637947756172643a207265656e7472616e742063616c6c00604482015290519081900360640190fd5b60028055600054604080516313bc6d4b60e01b815233600482015290516001600160a01b03909216916313bc6d4b91602480820192602092909190829003018186803b158015610e2757600080fd5b505afa158015610e3b573d6000803e3d6000fd5b505050506040513d6020811015610e5157600080fd5b5051610ea4576040805162461bcd60e51b815260206004820152601960248201527f4f6e6c792073797374656d2063616e2063616c6c207468697300000000000000604482015290519081900360640190fd5b6000610eb3868686868661150f565b9050610ebe81611925565b6000806000610ecf88866000611780565b919450925090506001600160a01b038316156110995783600001516001600160a01b0316636bc195dd8484846040518463ffffffff1660e01b815260040180846001600160a01b0316815260200183815260200180602001828103825283818151815260200191508051906020019080838360005b83811015610f5c578181015183820152602001610f44565b50505050905090810190601f168015610f895780820380516001836020036101000a031916815260200191505b50945050505050600060405180830381600087803b158015610faa57600080fd5b505af1158015610fbe573d6000803e3d6000fd5b505050506040513d6000823e601f3d908101601f191682016040526020811015610fe757600080fd5b810190808051604051939291908464010000000082111561100757600080fd5b90830190602082018581111561101c57600080fd5b825164010000000081118282018810171561103657600080fd5b82525081516020918201929091019080838360005b8381101561106357818101518382015260200161104b565b50505050905090810190601f1680156110905780820380516001836020036101000a031916815260200191505b50604052505050505b6001600160a01b038616156111345783516001600160a01b03166397ccdc606110c38a600061179d565b88886040518463ffffffff1660e01b815260040180846001600160a01b03168152602001836001600160a01b031681526020018281526020019350505050600060405180830381600087803b15801561111b57600080fd5b505af115801561112f573d6000803e3d6000fd5b505050505b60008060006111468c8c8c8c8c611968565b92509250925086600001516001600160a01b0316636bc195dd8484846040518463ffffffff1660e01b815260040180846001600160a01b0316815260200183815260200180602001828103825283818151815260200191508051906020019080838360005b838110156111c35781810151838201526020016111ab565b50505050905090810190601f1680156111f05780820380516001836020036101000a031916815260200191505b50945050505050600060405180830381600087803b15801561121157600080fd5b505af1158015611225573d6000803e3d6000fd5b505050506040513d6000823e601f3d908101601f19168201604052602081101561124e57600080fd5b810190808051604051939291908464010000000082111561126e57600080fd5b90830190602082018581111561128357600080fd5b825164010000000081118282018810171561129d57600080fd5b82525081516020918201929091019080838360005b838110156112ca5781810151838201526020016112b2565b50505050905090810190601f1680156112f75780820380516001836020036101000a031916815260200191505b506040525050505061130887611a6f565b8a6001600160a01b031687600001516001600160a01b031688602001516001600160a01b03167fdc0718d28ea0f80518c2c454af93bc46bf51dd4a1b25a048ca4ca75a7ac359c48c8e60405180836001600160a01b031681526020018281526020019250505060405180910390a45050600160025550505050505050505050565b600073f403c135812408bfbe8713b5a23a04b3d48aae316001600160a01b031663081e3eda6040518163ffffffff1660e01b815260040160206040518083038186803b1580156113d857600080fd5b505afa1580156113ec573d6000803e3d6000fd5b505050506040513d602081101561140257600080fd5b5051600454909150811161141657506114d8565b6004545b818110156114d357600073f403c135812408bfbe8713b5a23a04b3d48aae316001600160a01b0316631526fe27836040518263ffffffff1660e01b81526004018082815260200191505060c06040518083038186803b15801561147c57600080fd5b505afa158015611490573d6000803e3d6000fd5b505050506040513d60c08110156114a657600080fd5b506020908101516001600160a01b031660009081526003909152604090206001909201918290555061141a565b506004555b565b60006105d782611b31565b60006105d782611b3e565b6000546001600160a01b031681565b919050565b60006105d782611c1e565b611517611d01565b61151f611d01565b6001600160a01b038716808252604080517f56ba88b800000000000000000000000000000000000000000000000000000000815290516356ba88b891600480820192602092909190829003018186803b15801561157b57600080fd5b505afa15801561158f573d6000803e3d6000fd5b505050506040513d60208110156115a557600080fd5b50516001600160a01b031660208201526115be86611504565b81604001906001600160a01b031690816001600160a01b031681525050856001600160a01b03166318160ddd6040518163ffffffff1660e01b815260040160206040518083038186803b15801561161457600080fd5b505afa158015611628573d6000803e3d6000fd5b505050506040513d602081101561163e57600080fd5b5051606082015260408082015181517f70a082310000000000000000000000000000000000000000000000000000000081526001600160a01b038a81166004830152925192909116916370a0823191602480820192602092909190829003018186803b1580156116ad57600080fd5b505afa1580156116c1573d6000803e3d6000fd5b505050506040513d60208110156116d757600080fd5b505160a082015260808101949094525060c08301525092915050565b60008160800151116117365760405162461bcd60e51b8152600401808060200182810382526034815260200180611e276034913960400191505060405180910390fd5b80608001518160a00151101561177d5760405162461bcd60e51b8152600401808060200182810382526033815260200180611d5a6033913960400191505060405180910390fd5b50565b50506040805160208101909152600080825292839250565b600090565b600060ff82166117c2575073f403c135812408bfbe8713b5a23a04b3d48aae316105d7565b6105d483611c1e565b90565b6040805160016024808301919091528251808303909101815260449091019091526020810180517bffffffffffffffffffffffffffffffffffffffffffffffffffffffff167f49f039a200000000000000000000000000000000000000000000000000000000179052600090819060609061184888611c1e565b996000995090975095505050505050565b80608001518160a001510360640181604001516001600160a01b03166370a0823183600001516040518263ffffffff1660e01b815260040180826001600160a01b0316815260200191505060206040518083038186803b1580156118bc57600080fd5b505afa1580156118d0573d6000803e3d6000fd5b505050506040513d60208110156118e657600080fd5b5051111561177d5760405162461bcd60e51b8152600401808060200182810382526031815260200180611dbf6031913960400191505060405180910390fd5b600081608001511161177d5760405162461bcd60e51b8152600401808060200182810382526037815260200180611df06037913960400191505060405180910390fd5b60008060606000806119798961041c565b91509150816119cf576040805162461bcd60e51b815260206004820152601a60248201527f436f6e76657820706f6f6c20646f6573206e6f74206578697374000000000000604482015290519081900360640190fd5b60408051602481019290925260448201879052600160648084019190915281518084039091018152608490920190526020810180517bffffffffffffffffffffffffffffffffffffffffffffffffffffffff167f43a0d0660000000000000000000000000000000000000000000000000000000017905273f403c135812408bfbe8713b5a23a04b3d48aae31945060009350915050955095509592505050565b8060a0015181604001516001600160a01b03166370a0823183600001516040518263ffffffff1660e01b815260040180826001600160a01b0316815260200191505060206040518083038186803b158015611ac957600080fd5b505afa158015611add573d6000803e3d6000fd5b505050506040513d6020811015611af357600080fd5b50511161177d5760405162461bcd60e51b8152600401808060200182810382526032815260200180611d8d6032913960400191505060405180910390fd5b50670de0b6b3a764000090565b6000806000611b4c8461041c565b9150915081611b92576040805162461bcd60e51b815260206004820152600d60248201526c141a59081b9bdd08199bdd5b99609a1b604482015290519081900360640190fd5b73f403c135812408bfbe8713b5a23a04b3d48aae316001600160a01b0316631526fe27826040518263ffffffff1660e01b81526004018082815260200191505060c06040518083038186803b158015611bea57600080fd5b505afa158015611bfe573d6000803e3d6000fd5b505050506040513d60c0811015611c1457600080fd5b5051949350505050565b6000806000611c2c8461041c565b9150915081611c72576040805162461bcd60e51b815260206004820152600d60248201526c141a59081b9bdd08199bdd5b99609a1b604482015290519081900360640190fd5b73f403c135812408bfbe8713b5a23a04b3d48aae316001600160a01b0316631526fe27826040518263ffffffff1660e01b81526004018082815260200191505060c06040518083038186803b158015611cca57600080fd5b505afa158015611cde573d6000803e3d6000fd5b505050506040513d60c0811015611cf457600080fd5b5060600151949350505050565b6040518060e0016040528060006001600160a01b0316815260200160006001600160a01b0316815260200160006001600160a01b0316815260200160008152602001600081526020016000815260200160008152509056fe54686520737472617465677920646f6573206e6f74206861766520656e6f75676820696e766573746d656e7420746f6b656e7354686520737472617465677920646964206e6f7420726563656976652074686520696e766573746d656e7420746f6b656e7354686520737472617465677920646964206e6f742072657475726e2074686520696e766573746d656e7420746f6b656e734d696e20696e766573746d656e7420746f6b656e7320746f2072656365697665206d7573742062652067726561746572207468616e2030496e766573746d656e7420746f6b656e7320746f2065786368616e6765206d7573742062652067726561746572207468616e2030a26469706673582212204760767fb16caac8d157866faea369dc5a2482833f8b9881d958c3e393e1de4a64736f6c63430007060033",
  "devdoc": {
    "author": "Babylon Finance Protocol Lido Integration",
    "kind": "dev",
    "methods": {
      "constructor": {
        "params": {
          "_controller": "Address of the controller"
        }
      },
      "enterInvestment(address,address,uint256,address,uint256)": {
        "params": {
          "_investmentAddress": "Address of the investment token to join",
          "_investmentTokensOut": "Min amount of investment tokens to receive",
          "_maxAmountIn": "Max amount of the token to deposit",
          "_strategy": "Address of the strategy",
          "_tokenIn": "Token address to deposit"
        }
      },
      "exitInvestment(address,address,uint256,address,uint256)": {
        "params": {
          "_investmentAddress": "Address of the investment token to exit",
          "_investmentTokenIn": "Quantity of investment tokens to return",
          "_minAmountOut": "Min token quantities to receive from the investment",
          "_strategy": "Address of the strategy",
          "_tokenOut": "Token address to withdraw"
        }
      },
      "getExpectedShares(address,uint256)": {
        "params": {
          "_ethAmount": "Amount of eth to invest",
          "_investmentAddress": "Investment address to check"
        },
        "returns": {
          "_0": "uint256                           Amount of investment shares to receive"
        }
      },
      "getInvestmentAsset(address)": {
        "returns": {
          "_0": "address                           Returns the asset that this investment needs"
        }
      },
      "getPid(address)": {
        "params": {
          "_asset": "Address of the convex lp token"
        },
        "returns": {
          "_0": "uint256                       Pid of the pool in convex"
        }
      },
      "getPricePerShare(address)": {
        "params": {
          "_investmentAddress": "Investment address to check"
        },
        "returns": {
          "_0": "uint256                           Returns the price in ETH of an investment share"
        }
      },
      "getResultAsset(address)": {
        "returns": {
          "_0": "address                            Returns the asset that this investment obtains"
        }
      }
    },
    "title": "ConvexStakeIntegration",
    "version": 1
  },
  "userdoc": {
    "kind": "user",
    "methods": {
      "constructor": {
        "notice": "Creates the integration"
      },
      "enterInvestment(address,address,uint256,address,uint256)": {
        "notice": "Deposits tokens into an investment"
      },
      "exitInvestment(address,address,uint256,address,uint256)": {
        "notice": "Exits an outside passive investment"
      },
      "getExpectedShares(address,uint256)": {
        "notice": "Gets the amount of shares expected to get after depositing _ethAmount"
      },
      "getInvestmentAsset(address)": {
        "notice": "Gets the asset needed to enter the investment"
      },
      "getName()": {
        "notice": "Returns the name of the integration"
      },
      "getPid(address)": {
        "notice": "Gets the PID in convex of a convex lp token"
      },
      "getPricePerShare(address)": {
        "notice": "Gets how much eth one unit of the investment is worth"
      },
      "getResultAsset(address)": {
        "notice": "Gets the asset you obtained after entering the investment"
      }
    },
    "version": 1
  },
  "storageLayout": {
    "storage": [
      {
        "astId": 21421,
        "contract": "contracts/integrations/passive/ConvexStakeIntegration.sol:ConvexStakeIntegration",
        "label": "controller",
        "offset": 0,
        "slot": "0",
        "type": "t_contract(IBabController)33589"
      },
      {
        "astId": 21447,
        "contract": "contracts/integrations/passive/ConvexStakeIntegration.sol:ConvexStakeIntegration",
        "label": "name",
        "offset": 0,
        "slot": "1",
        "type": "t_string_storage"
      },
      {
        "astId": 6418,
        "contract": "contracts/integrations/passive/ConvexStakeIntegration.sol:ConvexStakeIntegration",
        "label": "_status",
        "offset": 0,
        "slot": "2",
        "type": "t_uint256"
      },
      {
        "astId": 24622,
        "contract": "contracts/integrations/passive/ConvexStakeIntegration.sol:ConvexStakeIntegration",
        "label": "cacheConvexTokenToPid",
        "offset": 0,
        "slot": "3",
        "type": "t_mapping(t_address,t_uint256)"
      },
      {
        "astId": 24625,
        "contract": "contracts/integrations/passive/ConvexStakeIntegration.sol:ConvexStakeIntegration",
        "label": "elementsCached",
        "offset": 0,
        "slot": "4",
        "type": "t_uint256"
      }
    ],
    "types": {
      "t_address": {
        "encoding": "inplace",
        "label": "address",
        "numberOfBytes": "20"
      },
      "t_contract(IBabController)33589": {
        "encoding": "inplace",
        "label": "contract IBabController",
        "numberOfBytes": "20"
      },
      "t_mapping(t_address,t_uint256)": {
        "encoding": "mapping",
        "key": "t_address",
        "label": "mapping(address => uint256)",
        "numberOfBytes": "32",
        "value": "t_uint256"
      },
      "t_string_storage": {
        "encoding": "bytes",
        "label": "string",
        "numberOfBytes": "32"
      },
      "t_uint256": {
        "encoding": "inplace",
        "label": "uint256",
        "numberOfBytes": "32"
      }
    }
  }
}