{
  "address": "0xDcCDf2D78239aBB788aD728D63ac45d90dEfe24A",
  "abi": [
    {
      "inputs": [
        {
          "internalType": "contract IBabController",
          "name": "_controller",
          "type": "address"
        }
      ],
      "stateMutability": "nonpayable",
      "type": "constructor"
    },
    {
      "anonymous": false,
      "inputs": [
        {
          "indexed": true,
          "internalType": "address",
          "name": "garden",
          "type": "address"
        },
        {
          "indexed": true,
          "internalType": "address",
          "name": "strategy",
          "type": "address"
        },
        {
          "indexed": true,
          "internalType": "address",
          "name": "investment",
          "type": "address"
        },
        {
          "indexed": false,
          "internalType": "address",
          "name": "tokenIn",
          "type": "address"
        },
        {
          "indexed": false,
          "internalType": "uint256",
          "name": "investmentTokensOut",
          "type": "uint256"
        }
      ],
      "name": "InvestmentEntered",
      "type": "event"
    },
    {
      "anonymous": false,
      "inputs": [
        {
          "indexed": true,
          "internalType": "address",
          "name": "garden",
          "type": "address"
        },
        {
          "indexed": true,
          "internalType": "address",
          "name": "strategy",
          "type": "address"
        },
        {
          "indexed": true,
          "internalType": "address",
          "name": "investment",
          "type": "address"
        },
        {
          "indexed": false,
          "internalType": "uint256",
          "name": "investmentTokensOut",
          "type": "uint256"
        }
      ],
      "name": "InvestmentExited",
      "type": "event"
    },
    {
      "inputs": [],
      "name": "_updateCache",
      "outputs": [],
      "stateMutability": "nonpayable",
      "type": "function"
    },
    {
      "inputs": [],
      "name": "controller",
      "outputs": [
        {
          "internalType": "contract IBabController",
          "name": "",
          "type": "address"
        }
      ],
      "stateMutability": "view",
      "type": "function"
    },
    {
      "inputs": [
        {
          "internalType": "address",
          "name": "_strategy",
          "type": "address"
        },
        {
          "internalType": "address",
          "name": "_investmentAddress",
          "type": "address"
        },
        {
          "internalType": "uint256",
          "name": "_investmentTokensOut",
          "type": "uint256"
        },
        {
          "internalType": "address",
          "name": "_tokenIn",
          "type": "address"
        },
        {
          "internalType": "uint256",
          "name": "_maxAmountIn",
          "type": "uint256"
        }
      ],
      "name": "enterInvestment",
      "outputs": [],
      "stateMutability": "nonpayable",
      "type": "function"
    },
    {
      "inputs": [
        {
          "internalType": "address",
          "name": "_strategy",
          "type": "address"
        },
        {
          "internalType": "address",
          "name": "_investmentAddress",
          "type": "address"
        },
        {
          "internalType": "uint256",
          "name": "_investmentTokenIn",
          "type": "uint256"
        },
        {
          "internalType": "address",
          "name": "_tokenOut",
          "type": "address"
        },
        {
          "internalType": "uint256",
          "name": "_minAmountOut",
          "type": "uint256"
        }
      ],
      "name": "exitInvestment",
      "outputs": [],
      "stateMutability": "nonpayable",
      "type": "function"
    },
    {
      "inputs": [
        {
          "internalType": "address",
          "name": "_investmentAddress",
          "type": "address"
        },
        {
          "internalType": "uint256",
          "name": "_ethAmount",
          "type": "uint256"
        }
      ],
      "name": "getExpectedShares",
      "outputs": [
        {
          "internalType": "uint256",
          "name": "",
          "type": "uint256"
        }
      ],
      "stateMutability": "view",
      "type": "function"
    },
    {
      "inputs": [
        {
          "internalType": "address",
          "name": "_investmentAddress",
          "type": "address"
        }
      ],
      "name": "getInvestmentAsset",
      "outputs": [
        {
          "internalType": "address",
          "name": "",
          "type": "address"
        }
      ],
      "stateMutability": "view",
      "type": "function"
    },
    {
      "inputs": [],
      "name": "getName",
      "outputs": [
        {
          "internalType": "string",
          "name": "",
          "type": "string"
        }
      ],
      "stateMutability": "view",
      "type": "function"
    },
    {
      "inputs": [
        {
          "internalType": "address",
          "name": "_asset",
          "type": "address"
        }
      ],
      "name": "getPid",
      "outputs": [
        {
          "internalType": "bool",
          "name": "",
          "type": "bool"
        },
        {
          "internalType": "uint256",
          "name": "",
          "type": "uint256"
        }
      ],
      "stateMutability": "view",
      "type": "function"
    },
    {
      "inputs": [
        {
          "internalType": "address",
          "name": "_investmentAddress",
          "type": "address"
        }
      ],
      "name": "getPricePerShare",
      "outputs": [
        {
          "internalType": "uint256",
          "name": "",
          "type": "uint256"
        }
      ],
      "stateMutability": "view",
      "type": "function"
    },
    {
      "inputs": [
        {
          "internalType": "address",
          "name": "_investmentAddress",
          "type": "address"
        }
      ],
      "name": "getResultAsset",
      "outputs": [
        {
          "internalType": "address",
          "name": "",
          "type": "address"
        }
      ],
      "stateMutability": "view",
      "type": "function"
    },
    {
      "inputs": [
        {
          "internalType": "address",
          "name": "_investmentAddress",
          "type": "address"
        }
      ],
      "name": "getRewards",
      "outputs": [
        {
          "internalType": "address",
          "name": "",
          "type": "address"
        },
        {
          "internalType": "uint256",
          "name": "",
          "type": "uint256"
        }
      ],
      "stateMutability": "view",
      "type": "function"
    },
    {
      "inputs": [],
      "name": "name",
      "outputs": [
        {
          "internalType": "string",
          "name": "",
          "type": "string"
        }
      ],
      "stateMutability": "view",
      "type": "function"
    }
  ],
  "transactionHash": "0xdc5359456c364f8efdcded22c43cd6d69a466d4d8850f1d58e9e3ddc058b6a56",
  "args": [
    "0xD4a5b5fcB561dAF3aDF86F8477555B92FBa43b5F"
  ],
  "solcInputHash": "36b08ab2d597a8a403edd1e6ce62ad3f",
  "bytecode": "0x608060405260006004553480156200001657600080fd5b50604051620027a1380380620027a1833981810160405260208110156200003c57600080fd5b505160408051808201909152600981526831b7b73b32bc2fbb1960b91b60208201528181816001600160a01b038116620000bd576040805162461bcd60e51b815260206004820152601a60248201527f436f6e74726f6c6c6572206d75737420626520646566696e6564000000000000604482015290519081900360640190fd5b8151620000d290600190602085019062000267565b50600080546001600160a01b0319166001600160a01b03929092169190911790555050600160025550620001056200010c565b5062000313565b600073f403c135812408bfbe8713b5a23a04b3d48aae316001600160a01b031663081e3eda6040518163ffffffff1660e01b815260040160206040518083038186803b1580156200015c57600080fd5b505afa15801562000171573d6000803e3d6000fd5b505050506040513d60208110156200018857600080fd5b505160045490915081116200019e575062000265565b6004545b818110156200026057600073f403c135812408bfbe8713b5a23a04b3d48aae316001600160a01b0316631526fe27836040518263ffffffff1660e01b81526004018082815260200191505060c06040518083038186803b1580156200020657600080fd5b505afa1580156200021b573d6000803e3d6000fd5b505050506040513d60c08110156200023257600080fd5b506020908101516001600160a01b0316600090815260039091526040902060019092019182905550620001a2565b506004555b565b828054600181600116156101000203166002900490600052602060002090601f0160209004810192826200029f5760008555620002ea565b82601f10620002ba57805160ff1916838001178555620002ea565b82800160010185558215620002ea579182015b82811115620002ea578251825591602001919060010190620002cd565b50620002f8929150620002fc565b5090565b5b80821115620002f85760008155600101620002fd565b61247e80620003236000396000f3fe608060405234801561001057600080fd5b50600436106100d45760003560e01c8063871be91111610081578063ec422afd1161005b578063ec422afd146102fa578063f337f63014610320578063f77c479114610346576100d4565b8063871be91114610268578063976a99be146102ae578063a540bb54146102f2576100d4565b80634deef649116100b25780634deef6491461019f57806379ee54f7146101dd5780637b082a7414610226576100d4565b806306fdde03146100d957806317d7de7c1461015657806343b55f351461015e575b600080fd5b6100e161034e565b6040805160208082528351818301528351919283929083019185019080838360005b8381101561011b578181015183820152602001610103565b50505050905090810190601f1680156101485780820380516001836020036101000a031916815260200191505b509250505060405180910390f35b6100e16103db565b6101846004803603602081101561017457600080fd5b50356001600160a01b0316610470565b60408051921515835260208301919091528051918290030190f35b6101cb600480360360408110156101b557600080fd5b506001600160a01b03813516906020013561061c565b60408051918252519081900360200190f35b610203600480360360208110156101f357600080fd5b50356001600160a01b0316610631565b604080516001600160a01b03909316835260208301919091528051918290030190f35b61024c6004803603602081101561023c57600080fd5b50356001600160a01b0316610646565b604080516001600160a01b039092168252519081900360200190f35b6102ac600480360360a081101561027e57600080fd5b506001600160a01b038135811691602081013582169160408201359160608101359091169060800135610651565b005b6102ac600480360360a08110156102c457600080fd5b506001600160a01b038135811691602081013582169160408201359160608101359091169060800135610dea565b6102ac6113f2565b6101cb6004803603602081101561031057600080fd5b50356001600160a01b0316611543565b61024c6004803603602081101561033657600080fd5b50356001600160a01b031661154e565b61024c611559565b60018054604080516020600284861615610100026000190190941693909304601f810184900484028201840190925281815292918301828280156103d35780601f106103a8576101008083540402835291602001916103d3565b820191906000526020600020905b8154815290600101906020018083116103b657829003601f168201915b505050505081565b60018054604080516020601f600260001961010087891615020190951694909404938401819004810282018101909252828152606093909290918301828280156104665780601f1061043b57610100808354040283529160200191610466565b820191906000526020600020905b81548152906001019060200180831161044957829003601f168201915b5050505050905090565b6001600160a01b0381166000908152600360205260408120548190156104b75750506001600160a01b03811660009081526003602052604090205460019060001901610617565b600073f403c135812408bfbe8713b5a23a04b3d48aae316001600160a01b031663081e3eda6040518163ffffffff1660e01b815260040160206040518083038186803b15801561050657600080fd5b505afa15801561051a573d6000803e3d6000fd5b505050506040513d602081101561053057600080fd5b5051600454909150811161054b576000809250925050610617565b6004545b8181101561060d57600073f403c135812408bfbe8713b5a23a04b3d48aae316001600160a01b0316631526fe27836040518263ffffffff1660e01b81526004018082815260200191505060c06040518083038186803b1580156105b157600080fd5b505afa1580156105c5573d6000803e3d6000fd5b505050506040513d60c08110156105db57600080fd5b506020015190506001600160a01b03808216908716141561060457506001935091506106179050565b5060010161054f565b5060008092509250505b915091565b60006106288383611568565b90505b92915050565b60008061063d8361156d565b91509150915091565b600061062b82611a39565b6002805414156106a8576040805162461bcd60e51b815260206004820152601f60248201527f5265656e7472616e637947756172643a207265656e7472616e742063616c6c00604482015290519081900360640190fd5b60028055600054604080516313bc6d4b60e01b815233600482015290516001600160a01b03909216916313bc6d4b91602480820192602092909190829003018186803b1580156106f757600080fd5b505afa15801561070b573d6000803e3d6000fd5b505050506040513d602081101561072157600080fd5b5051610774576040805162461bcd60e51b815260206004820152601960248201527f4f6e6c792073797374656d2063616e2063616c6c207468697300000000000000604482015290519081900360640190fd5b60006107838686868686611a44565b905061078e81611c28565b600080600061079f88886001611cb5565b919450925090506001600160a01b03831615610b17576107bd611ccd565b156108dd5783516001600160a01b03166397ccdc606107dd8a6001611cd2565b85866001600160a01b03166370a082318e6040518263ffffffff1660e01b815260040180826001600160a01b0316815260200191505060206040518083038186803b15801561082b57600080fd5b505afa15801561083f573d6000803e3d6000fd5b505050506040513d602081101561085557600080fd5b5051604080517fffffffff0000000000000000000000000000000000000000000000000000000060e087901b1681526001600160a01b03948516600482015292909316602483015260448201529051606480830192600092919082900301818387803b1580156108c457600080fd5b505af11580156108d8573d6000803e3d6000fd5b505050505b83600001516001600160a01b0316636bc195dd8484846040518463ffffffff1660e01b815260040180846001600160a01b0316815260200183815260200180602001828103825283818151815260200191508051906020019080838360005b8381101561095457818101518382015260200161093c565b50505050905090810190601f1680156109815780820380516001836020036101000a031916815260200191505b50945050505050600060405180830381600087803b1580156109a257600080fd5b505af11580156109b6573d6000803e3d6000fd5b505050506040513d6000823e601f3d908101601f1916820160405260208110156109df57600080fd5b81019080805160405193929190846401000000008211156109ff57600080fd5b908301906020820185811115610a1457600080fd5b8251640100000000811182820188101715610a2e57600080fd5b82525081516020918201929091019080838360005b83811015610a5b578181015183820152602001610a43565b50505050905090810190601f168015610a885780820380516001836020036101000a031916815260200191505b5060405250505050610a9988611d00565b9750876001600160a01b03166370a082318a6040518263ffffffff1660e01b815260040180826001600160a01b0316815260200191505060206040518083038186803b158015610ae857600080fd5b505afa158015610afc573d6000803e3d6000fd5b505050506040513d6020811015610b1257600080fd5b505196505b83516001600160a01b03166397ccdc60610b328a6001611cd2565b8a8a6040518463ffffffff1660e01b815260040180846001600160a01b03168152602001836001600160a01b031681526020018281526020019350505050600060405180830381600087803b158015610b8a57600080fd5b505af1158015610b9e573d6000803e3d6000fd5b505050506000806000610bb48c8c8c8c8c611d03565b92509250925086600001516001600160a01b0316636bc195dd8484846040518463ffffffff1660e01b815260040180846001600160a01b0316815260200183815260200180602001828103825283818151815260200191508051906020019080838360005b83811015610c31578181015183820152602001610c19565b50505050905090810190601f168015610c5e5780820380516001836020036101000a031916815260200191505b50945050505050600060405180830381600087803b158015610c7f57600080fd5b505af1158015610c93573d6000803e3d6000fd5b505050506040513d6000823e601f3d908101601f191682016040526020811015610cbc57600080fd5b8101908080516040519392919084640100000000821115610cdc57600080fd5b908301906020820185811115610cf157600080fd5b8251640100000000811182820188101715610d0b57600080fd5b82525081516020918201929091019080838360005b83811015610d38578181015183820152602001610d20565b50505050905090810190601f168015610d655780820380516001836020036101000a031916815260200191505b5060405250505050610d7687611d8e565b86604001516001600160a01b031687600001516001600160a01b031688602001516001600160a01b03167f99d773709d80de3e15433c22c381fd8e3b82a68b56322240ff4a304956ef0e528d6040518082815260200191505060405180910390a45050600160025550505050505050505050565b600280541415610e41576040805162461bcd60e51b815260206004820152601f60248201527f5265656e7472616e637947756172643a207265656e7472616e742063616c6c00604482015290519081900360640190fd5b60028055600054604080516313bc6d4b60e01b815233600482015290516001600160a01b03909216916313bc6d4b91602480820192602092909190829003018186803b158015610e9057600080fd5b505afa158015610ea4573d6000803e3d6000fd5b505050506040513d6020811015610eba57600080fd5b5051610f0d576040805162461bcd60e51b815260206004820152601960248201527f4f6e6c792073797374656d2063616e2063616c6c207468697300000000000000604482015290519081900360640190fd5b6000610f1c8686868686611a44565b9050610f2781611e5a565b6000806000610f3888866000611cb5565b919450925090506001600160a01b038316156111025783600001516001600160a01b0316636bc195dd8484846040518463ffffffff1660e01b815260040180846001600160a01b0316815260200183815260200180602001828103825283818151815260200191508051906020019080838360005b83811015610fc5578181015183820152602001610fad565b50505050905090810190601f168015610ff25780820380516001836020036101000a031916815260200191505b50945050505050600060405180830381600087803b15801561101357600080fd5b505af1158015611027573d6000803e3d6000fd5b505050506040513d6000823e601f3d908101601f19168201604052602081101561105057600080fd5b810190808051604051939291908464010000000082111561107057600080fd5b90830190602082018581111561108557600080fd5b825164010000000081118282018810171561109f57600080fd5b82525081516020918201929091019080838360005b838110156110cc5781810151838201526020016110b4565b50505050905090810190601f1680156110f95780820380516001836020036101000a031916815260200191505b50604052505050505b6001600160a01b0386161561119d5783516001600160a01b03166397ccdc6061112c8a6000611cd2565b88886040518463ffffffff1660e01b815260040180846001600160a01b03168152602001836001600160a01b031681526020018281526020019350505050600060405180830381600087803b15801561118457600080fd5b505af1158015611198573d6000803e3d6000fd5b505050505b60008060006111af8c8c8c8c8c611e9d565b92509250925086600001516001600160a01b0316636bc195dd8484846040518463ffffffff1660e01b815260040180846001600160a01b0316815260200183815260200180602001828103825283818151815260200191508051906020019080838360005b8381101561122c578181015183820152602001611214565b50505050905090810190601f1680156112595780820380516001836020036101000a031916815260200191505b50945050505050600060405180830381600087803b15801561127a57600080fd5b505af115801561128e573d6000803e3d6000fd5b505050506040513d6000823e601f3d908101601f1916820160405260208110156112b757600080fd5b81019080805160405193929190846401000000008211156112d757600080fd5b9083019060208201858111156112ec57600080fd5b825164010000000081118282018810171561130657600080fd5b82525081516020918201929091019080838360005b8381101561133357818101518382015260200161131b565b50505050905090810190601f1680156113605780820380516001836020036101000a031916815260200191505b506040525050505061137187611fa4565b8a6001600160a01b031687600001516001600160a01b031688602001516001600160a01b03167fdc0718d28ea0f80518c2c454af93bc46bf51dd4a1b25a048ca4ca75a7ac359c48c8e60405180836001600160a01b031681526020018281526020019250505060405180910390a45050600160025550505050505050505050565b600073f403c135812408bfbe8713b5a23a04b3d48aae316001600160a01b031663081e3eda6040518163ffffffff1660e01b815260040160206040518083038186803b15801561144157600080fd5b505afa158015611455573d6000803e3d6000fd5b505050506040513d602081101561146b57600080fd5b5051600454909150811161147f5750611541565b6004545b8181101561153c57600073f403c135812408bfbe8713b5a23a04b3d48aae316001600160a01b0316631526fe27836040518263ffffffff1660e01b81526004018082815260200191505060c06040518083038186803b1580156114e557600080fd5b505afa1580156114f9573d6000803e3d6000fd5b505050506040513d60c081101561150f57600080fd5b506020908101516001600160a01b0316600090815260039091526040902060019092019182905550611483565b506004555b565b600061062b82612066565b600061062b82612073565b6000546001600160a01b031681565b919050565b600080600061157b84612153565b905060008060009054906101000a90046001600160a01b03166001600160a01b0316632630c12f6040518163ffffffff1660e01b815260040160206040518083038186803b1580156115cc57600080fd5b505afa1580156115e0573d6000803e3d6000fd5b505050506040513d60208110156115f657600080fd5b5051604080516246613160e11b815233600482015290519192506000916001600160a01b03851691628cc262916024808301926020929190829003018186803b15801561164257600080fd5b505afa158015611656573d6000803e3d6000fd5b505050506040513d602081101561166c57600080fd5b5051604080517fd55a23f40000000000000000000000000000000000000000000000000000000081529051600290920292506000916001600160a01b0386169163d55a23f4916004808301926020929190829003018186803b1580156116d157600080fd5b505afa1580156116e5573d6000803e3d6000fd5b505050506040513d60208110156116fb57600080fd5b5051905080156119c75760005b818110156119c5576000856001600160a01b03166340c35446836040518263ffffffff1660e01b81526004018082815260200191505060206040518083038186803b15801561175657600080fd5b505afa15801561176a573d6000803e3d6000fd5b505050506040513d602081101561178057600080fd5b5051604080516246613160e11b815233600482015290519192506119ba916119b3916001600160a01b03851691628cc26291602480820192602092909190829003018186803b1580156117d257600080fd5b505afa1580156117e6573d6000803e3d6000fd5b505050506040513d60208110156117fc57600080fd5b5051604080517f40c354460000000000000000000000000000000000000000000000000000000081526004810187905290516001600160a01b03808b169263ac41865a92918d16916340c3544691602480820192602092909190829003018186803b15801561186a57600080fd5b505afa15801561187e573d6000803e3d6000fd5b505050506040513d602081101561189457600080fd5b5051604080517ff7c618c100000000000000000000000000000000000000000000000000000000815290516001600160a01b0389169163f7c618c1916004808301926020929190829003018186803b1580156118ef57600080fd5b505afa158015611903573d6000803e3d6000fd5b505050506040513d602081101561191957600080fd5b5051604080517fffffffff0000000000000000000000000000000000000000000000000000000060e086901b1681526001600160a01b039384166004820152929091166024830152516044808301926020929190829003018186803b15801561198157600080fd5b505afa158015611995573d6000803e3d6000fd5b505050506040513d60208110156119ab57600080fd5b505190612236565b8590612254565b935050600101611708565b505b836001600160a01b031663f7c618c16040518163ffffffff1660e01b815260040160206040518083038186803b158015611a0057600080fd5b505afa158015611a14573d6000803e3d6000fd5b505050506040513d6020811015611a2a57600080fd5b50519550909350505050915091565b600061062b82612153565b611a4c6122ef565b611a546122ef565b6001600160a01b038716808252604080517f56ba88b800000000000000000000000000000000000000000000000000000000815290516356ba88b891600480820192602092909190829003018186803b158015611ab057600080fd5b505afa158015611ac4573d6000803e3d6000fd5b505050506040513d6020811015611ada57600080fd5b50516001600160a01b03166020820152611af386611a39565b81604001906001600160a01b031690816001600160a01b031681525050856001600160a01b03166318160ddd6040518163ffffffff1660e01b815260040160206040518083038186803b158015611b4957600080fd5b505afa158015611b5d573d6000803e3d6000fd5b505050506040513d6020811015611b7357600080fd5b5051606082015260408082015181517f70a082310000000000000000000000000000000000000000000000000000000081526001600160a01b038a81166004830152925192909116916370a0823191602480820192602092909190829003018186803b158015611be257600080fd5b505afa158015611bf6573d6000803e3d6000fd5b505050506040513d6020811015611c0c57600080fd5b505160a082015260808101949094525060c08301525092915050565b6000816080015111611c6b5760405162461bcd60e51b81526004018080602001828103825260348152602001806124156034913960400191505060405180910390fd5b80608001518160a001511015611cb25760405162461bcd60e51b81526004018080602001828103825260338152602001806123486033913960400191505060405180910390fd5b50565b50506040805160208101909152600080825292839250565b600090565b600060ff8216611cf7575073f403c135812408bfbe8713b5a23a04b3d48aae3161062b565b61062883612153565b90565b6040805160016024808301919091528251808303909101815260449091019091526020810180517bffffffffffffffffffffffffffffffffffffffffffffffffffffffff167f49f039a2000000000000000000000000000000000000000000000000000000001790526000908190606090611d7d88612153565b996000995090975095505050505050565b80608001518160a001510360640181604001516001600160a01b03166370a0823183600001516040518263ffffffff1660e01b815260040180826001600160a01b0316815260200191505060206040518083038186803b158015611df157600080fd5b505afa158015611e05573d6000803e3d6000fd5b505050506040513d6020811015611e1b57600080fd5b50511115611cb25760405162461bcd60e51b81526004018080602001828103825260318152602001806123ad6031913960400191505060405180910390fd5b6000816080015111611cb25760405162461bcd60e51b81526004018080602001828103825260378152602001806123de6037913960400191505060405180910390fd5b6000806060600080611eae89610470565b9150915081611f04576040805162461bcd60e51b815260206004820152601a60248201527f436f6e76657820706f6f6c20646f6573206e6f74206578697374000000000000604482015290519081900360640190fd5b60408051602481019290925260448201879052600160648084019190915281518084039091018152608490920190526020810180517bffffffffffffffffffffffffffffffffffffffffffffffffffffffff167f43a0d0660000000000000000000000000000000000000000000000000000000017905273f403c135812408bfbe8713b5a23a04b3d48aae31945060009350915050955095509592505050565b8060a0015181604001516001600160a01b03166370a0823183600001516040518263ffffffff1660e01b815260040180826001600160a01b0316815260200191505060206040518083038186803b158015611ffe57600080fd5b505afa158015612012573d6000803e3d6000fd5b505050506040513d602081101561202857600080fd5b505111611cb25760405162461bcd60e51b815260040180806020018281038252603281526020018061237b6032913960400191505060405180910390fd5b50670de0b6b3a764000090565b600080600061208184610470565b91509150816120c7576040805162461bcd60e51b815260206004820152600d60248201526c141a59081b9bdd08199bdd5b99609a1b604482015290519081900360640190fd5b73f403c135812408bfbe8713b5a23a04b3d48aae316001600160a01b0316631526fe27826040518263ffffffff1660e01b81526004018082815260200191505060c06040518083038186803b15801561211f57600080fd5b505afa158015612133573d6000803e3d6000fd5b505050506040513d60c081101561214957600080fd5b5051949350505050565b600080600061216184610470565b91509150816121a7576040805162461bcd60e51b815260206004820152600d60248201526c141a59081b9bdd08199bdd5b99609a1b604482015290519081900360640190fd5b73f403c135812408bfbe8713b5a23a04b3d48aae316001600160a01b0316631526fe27826040518263ffffffff1660e01b81526004018082815260200191505060c06040518083038186803b1580156121ff57600080fd5b505afa158015612213573d6000803e3d6000fd5b505050506040513d60c081101561222957600080fd5b5060600151949350505050565b6000610628670de0b6b3a764000061224e8585612264565b90612288565b8082018281101561062b57600080fd5b600082158061227f5750508181028183828161227c57fe5b04145b61062b57600080fd5b60008082116122de576040805162461bcd60e51b815260206004820152601a60248201527f536166654d6174683a206469766973696f6e206279207a65726f000000000000604482015290519081900360640190fd5b8183816122e757fe5b049392505050565b6040518060e0016040528060006001600160a01b0316815260200160006001600160a01b0316815260200160006001600160a01b0316815260200160008152602001600081526020016000815260200160008152509056fe54686520737472617465677920646f6573206e6f74206861766520656e6f75676820696e766573746d656e7420746f6b656e7354686520737472617465677920646964206e6f7420726563656976652074686520696e766573746d656e7420746f6b656e7354686520737472617465677920646964206e6f742072657475726e2074686520696e766573746d656e7420746f6b656e734d696e20696e766573746d656e7420746f6b656e7320746f2072656365697665206d7573742062652067726561746572207468616e2030496e766573746d656e7420746f6b656e7320746f2065786368616e6765206d7573742062652067726561746572207468616e2030a2646970667358221220e0a5d0a838c5d97f888cfa40fd9d9ee5ef12b187a67b31c5650d990839b8e7eb64736f6c63430007060033",
  "devdoc": {
    "author": "Babylon Finance Protocol Lido Integration",
    "kind": "dev",
    "methods": {
      "constructor": {
        "params": {
          "_controller": "Address of the controller"
        }
      },
      "enterInvestment(address,address,uint256,address,uint256)": {
        "params": {
          "_investmentAddress": "Address of the investment token to join",
          "_investmentTokensOut": "Min amount of investment tokens to receive",
          "_maxAmountIn": "Max amount of the token to deposit",
          "_strategy": "Address of the strategy",
          "_tokenIn": "Token address to deposit"
        }
      },
      "exitInvestment(address,address,uint256,address,uint256)": {
        "params": {
          "_investmentAddress": "Address of the investment token to exit",
          "_investmentTokenIn": "Quantity of investment tokens to return",
          "_minAmountOut": "Min token quantities to receive from the investment",
          "_strategy": "Address of the strategy",
          "_tokenOut": "Token address to withdraw"
        }
      },
      "getExpectedShares(address,uint256)": {
        "params": {
          "_ethAmount": "Amount of eth to invest",
          "_investmentAddress": "Investment address to check"
        },
        "returns": {
          "_0": "uint256                           Amount of investment shares to receive"
        }
      },
      "getInvestmentAsset(address)": {
        "returns": {
          "_0": "address                           Returns the asset that this investment needs"
        }
      },
      "getPid(address)": {
        "params": {
          "_asset": "Address of the convex lp token"
        },
        "returns": {
          "_0": "uint256                       Pid of the pool in convex"
        }
      },
      "getPricePerShare(address)": {
        "params": {
          "_investmentAddress": "Investment address to check"
        },
        "returns": {
          "_0": "uint256                           Returns the price in ETH of an investment share"
        }
      },
      "getResultAsset(address)": {
        "returns": {
          "_0": "address                            Returns the asset that this investment obtains"
        }
      },
      "getRewards(address)": {
        "returns": {
          "_0": "address                            Returns the address with the token of extra rewards",
          "_1": "uint256                            Extra rewards received so far"
        }
      }
    },
    "title": "ConvexStakeIntegration",
    "version": 1
  },
  "userdoc": {
    "kind": "user",
    "methods": {
      "constructor": {
        "notice": "Creates the integration"
      },
      "enterInvestment(address,address,uint256,address,uint256)": {
        "notice": "Deposits tokens into an investment"
      },
      "exitInvestment(address,address,uint256,address,uint256)": {
        "notice": "Exits an outside passive investment"
      },
      "getExpectedShares(address,uint256)": {
        "notice": "Gets the amount of shares expected to get after depositing _ethAmount"
      },
      "getInvestmentAsset(address)": {
        "notice": "Gets the asset needed to enter the investment"
      },
      "getName()": {
        "notice": "Returns the name of the integration"
      },
      "getPid(address)": {
        "notice": "Gets the PID in convex of a convex lp token"
      },
      "getPricePerShare(address)": {
        "notice": "Gets how much eth one unit of the investment is worth"
      },
      "getResultAsset(address)": {
        "notice": "Gets the asset you obtained after entering the investment"
      },
      "getRewards(address)": {
        "notice": "Gets the rewards and the token that they are denominated in"
      }
    },
    "version": 1
  },
  "storageLayout": {
    "storage": [
      {
        "astId": 21615,
        "contract": "contracts/integrations/passive/ConvexStakeIntegration.sol:ConvexStakeIntegration",
        "label": "controller",
        "offset": 0,
        "slot": "0",
        "type": "t_contract(IBabController)34086"
      },
      {
        "astId": 21641,
        "contract": "contracts/integrations/passive/ConvexStakeIntegration.sol:ConvexStakeIntegration",
        "label": "name",
        "offset": 0,
        "slot": "1",
        "type": "t_string_storage"
      },
      {
        "astId": 6418,
        "contract": "contracts/integrations/passive/ConvexStakeIntegration.sol:ConvexStakeIntegration",
        "label": "_status",
        "offset": 0,
        "slot": "2",
        "type": "t_uint256"
      },
      {
        "astId": 24846,
        "contract": "contracts/integrations/passive/ConvexStakeIntegration.sol:ConvexStakeIntegration",
        "label": "cacheConvexTokenToPid",
        "offset": 0,
        "slot": "3",
        "type": "t_mapping(t_address,t_uint256)"
      },
      {
        "astId": 24849,
        "contract": "contracts/integrations/passive/ConvexStakeIntegration.sol:ConvexStakeIntegration",
        "label": "elementsCached",
        "offset": 0,
        "slot": "4",
        "type": "t_uint256"
      }
    ],
    "types": {
      "t_address": {
        "encoding": "inplace",
        "label": "address",
        "numberOfBytes": "20"
      },
      "t_contract(IBabController)34086": {
        "encoding": "inplace",
        "label": "contract IBabController",
        "numberOfBytes": "20"
      },
      "t_mapping(t_address,t_uint256)": {
        "encoding": "mapping",
        "key": "t_address",
        "label": "mapping(address => uint256)",
        "numberOfBytes": "32",
        "value": "t_uint256"
      },
      "t_string_storage": {
        "encoding": "bytes",
        "label": "string",
        "numberOfBytes": "32"
      },
      "t_uint256": {
        "encoding": "inplace",
        "label": "uint256",
        "numberOfBytes": "32"
      }
    }
  }
}