{
  "address": "0xB95d213cdDBd256D3B9ae98b21CC6B9D8a1818ef",
  "abi": [
    {
      "inputs": [
        {
          "internalType": "contract IBabController",
          "name": "_controller",
          "type": "address"
        }
      ],
      "stateMutability": "nonpayable",
      "type": "constructor"
    },
    {
      "inputs": [],
      "name": "booster",
      "outputs": [
        {
          "internalType": "contract IBooster",
          "name": "",
          "type": "address"
        }
      ],
      "stateMutability": "view",
      "type": "function"
    },
    {
      "inputs": [],
      "name": "controller",
      "outputs": [
        {
          "internalType": "contract IBabController",
          "name": "",
          "type": "address"
        }
      ],
      "stateMutability": "view",
      "type": "function"
    },
    {
      "inputs": [
        {
          "internalType": "uint256",
          "name": "",
          "type": "uint256"
        }
      ],
      "name": "convexList",
      "outputs": [
        {
          "internalType": "address",
          "name": "",
          "type": "address"
        }
      ],
      "stateMutability": "view",
      "type": "function"
    },
    {
      "inputs": [
        {
          "internalType": "address",
          "name": "",
          "type": "address"
        }
      ],
      "name": "convexPools",
      "outputs": [
        {
          "internalType": "bool",
          "name": "",
          "type": "bool"
        }
      ],
      "stateMutability": "view",
      "type": "function"
    },
    {
      "inputs": [],
      "name": "getAllConvexPools",
      "outputs": [
        {
          "internalType": "address[]",
          "name": "",
          "type": "address[]"
        }
      ],
      "stateMutability": "view",
      "type": "function"
    },
    {
      "inputs": [
        {
          "internalType": "address",
          "name": "_pool",
          "type": "address"
        }
      ],
      "name": "getConvexInputToken",
      "outputs": [
        {
          "internalType": "address",
          "name": "inputToken",
          "type": "address"
        }
      ],
      "stateMutability": "view",
      "type": "function"
    },
    {
      "inputs": [
        {
          "internalType": "address",
          "name": "_asset",
          "type": "address"
        }
      ],
      "name": "getPid",
      "outputs": [
        {
          "internalType": "bool",
          "name": "",
          "type": "bool"
        },
        {
          "internalType": "uint256",
          "name": "",
          "type": "uint256"
        }
      ],
      "stateMutability": "view",
      "type": "function"
    },
    {
      "inputs": [
        {
          "internalType": "address",
          "name": "_asset",
          "type": "address"
        }
      ],
      "name": "getRewardPool",
      "outputs": [
        {
          "internalType": "address",
          "name": "reward",
          "type": "address"
        }
      ],
      "stateMutability": "view",
      "type": "function"
    },
    {
      "inputs": [],
      "name": "updateCache",
      "outputs": [],
      "stateMutability": "nonpayable",
      "type": "function"
    }
  ],
  "transactionHash": "0x109e62c9e283086c2c58e15e18a063085a5282b9c592477693a2b03ec928cb3b",
  "args": [
    "0xD4a5b5fcB561dAF3aDF86F8477555B92FBa43b5F"
  ],
  "numDeployments": 1,
  "solcInputHash": "b449cb5aec67dc49b858dceef0213a91",
  "bytecode": "0x60a0604052600060015534801561001557600080fd5b50604051610b7c380380610b7c8339818101604052602081101561003857600080fd5b50516001600160a01b038116610095576040805162461bcd60e51b815260206004820152601760248201527f436f6e74726f6c6c6572206973206e6f742076616c6964000000000000000000604482015290519081900360640190fd5b6001600160601b0319606082901b166080526100af6100b5565b5061029b565b600073f403c135812408bfbe8713b5a23a04b3d48aae316001600160a01b031663081e3eda6040518163ffffffff1660e01b815260040160206040518083038186803b15801561010457600080fd5b505afa158015610118573d6000803e3d6000fd5b505050506040513d602081101561012e57600080fd5b505160015490915081116101425750610299565b6001545b818110156102945760008073f403c135812408bfbe8713b5a23a04b3d48aae316001600160a01b0316631526fe27846040518263ffffffff1660e01b81526004018082815260200191505060c06040518083038186803b1580156101a957600080fd5b505afa1580156101bd573d6000803e3d6000fd5b505050506040513d60c08110156101d357600080fd5b506020808201516060909201516001600160a01b03928316600081815280845260408082206001998a0190819055959093168082528382208690558282526002909452828120805460ff199081168a1790915584825292812080549093168817909255600380548089018255928190527fc2575a0e9e593c00f959f8c92f12db2869c3395a3b0502d05e2516446f71f85b92830180546001600160a01b03199081169093179055805497880190559501805490951617909355506101469050565b506001555b565b60805160601c6108c46102b86000398061086c52506108c46000f3fe608060405234801561001057600080fd5b50600436106100a35760003560e01c8063c38c1d9d11610076578063d523d1c51161005b578063d523d1c5146101b0578063f01fbcc714610208578063f77c479114610212576100a3565b8063c38c1d9d14610182578063c6def076146101a8576100a3565b8063017cb1f4146100a85780630a59b148146100e257806343b55f351461011b578063514a90091461015c575b600080fd5b6100ce600480360360208110156100be57600080fd5b50356001600160a01b031661021a565b604080519115158252519081900360200190f35b6100ff600480360360208110156100f857600080fd5b503561022f565b604080516001600160a01b039092168252519081900360200190f35b6101416004803603602081101561013157600080fd5b50356001600160a01b0316610259565b60408051921515835260208301919091528051918290030190f35b6100ff6004803603602081101561017257600080fd5b50356001600160a01b031661042f565b6100ff6004803603602081101561019857600080fd5b50356001600160a01b0316610512565b6100ff6105f2565b6101b861060a565b60408051602080825283518183015283519192839290830191858101910280838360005b838110156101f45781810151838201526020016101dc565b505050509050019250505060405180910390f35b61021061066c565b005b6100ff61086a565b60026020526000908152604090205460ff1681565b6003818154811061023f57600080fd5b6000918252602090912001546001600160a01b0316905081565b6001600160a01b0381166000908152602081905260408120548190156102a05750506001600160a01b0381166000908152602081905260409020546001906000190161042a565b600073f403c135812408bfbe8713b5a23a04b3d48aae316001600160a01b031663081e3eda6040518163ffffffff1660e01b815260040160206040518083038186803b1580156102ef57600080fd5b505afa158015610303573d6000803e3d6000fd5b505050506040513d602081101561031957600080fd5b5051600154909150811161033457600080925092505061042a565b6001545b818110156104205760008073f403c135812408bfbe8713b5a23a04b3d48aae316001600160a01b0316631526fe27846040518263ffffffff1660e01b81526004018082815260200191505060c06040518083038186803b15801561039b57600080fd5b505afa1580156103af573d6000803e3d6000fd5b505050506040513d60c08110156103c557600080fd5b50602081015160609091015190925090506001600160a01b0380831690881614806104015750866001600160a01b0316816001600160a01b0316145b1561041657600183955095505050505061042a565b5050600101610338565b5060008092509250505b915091565b600080600061043d84610259565b9150915081610483576040805162461bcd60e51b815260206004820152600d60248201526c141a59081b9bdd08199bdd5b99609a1b604482015290519081900360640190fd5b73f403c135812408bfbe8713b5a23a04b3d48aae316001600160a01b0316631526fe27826040518263ffffffff1660e01b81526004018082815260200191505060c06040518083038186803b1580156104db57600080fd5b505afa1580156104ef573d6000803e3d6000fd5b505050506040513d60c081101561050557600080fd5b5060600151949350505050565b600080600061052084610259565b9150915081610566576040805162461bcd60e51b815260206004820152600d60248201526c141a59081b9bdd08199bdd5b99609a1b604482015290519081900360640190fd5b73f403c135812408bfbe8713b5a23a04b3d48aae316001600160a01b0316631526fe27826040518263ffffffff1660e01b81526004018082815260200191505060c06040518083038186803b1580156105be57600080fd5b505afa1580156105d2573d6000803e3d6000fd5b505050506040513d60c08110156105e857600080fd5b5051949350505050565b73f403c135812408bfbe8713b5a23a04b3d48aae3181565b6060600380548060200260200160405190810160405280929190818152602001828054801561066257602002820191906000526020600020905b81546001600160a01b03168152600190910190602001808311610644575b5050505050905090565b600073f403c135812408bfbe8713b5a23a04b3d48aae316001600160a01b031663081e3eda6040518163ffffffff1660e01b815260040160206040518083038186803b1580156106bb57600080fd5b505afa1580156106cf573d6000803e3d6000fd5b505050506040513d60208110156106e557600080fd5b505160015490915081116106f95750610868565b6001545b818110156108635760008073f403c135812408bfbe8713b5a23a04b3d48aae316001600160a01b0316631526fe27846040518263ffffffff1660e01b81526004018082815260200191505060c06040518083038186803b15801561076057600080fd5b505afa158015610774573d6000803e3d6000fd5b505050506040513d60c081101561078a57600080fd5b506020808201516060909201516001600160a01b03928316600081815280845260408082206001998a0190819055959093168082528382208690558282526002909452828120805460ff199081168a1790915584825292812080549093168817909255600380548089018255928190527fc2575a0e9e593c00f959f8c92f12db2869c3395a3b0502d05e2516446f71f85b92830180547fffffffffffffffffffffffff00000000000000000000000000000000000000009081169093179055805497880190559501805490951617909355506106fd9050565b506001555b565b7f00000000000000000000000000000000000000000000000000000000000000008156fea264697066735822122087e65f56a1119a1a2b580905baed29fa4e3ce872535377c7cf4a1d2fccc80bcb64736f6c63430007060033",
  "devdoc": {
    "author": "Babylon Finance Protocol Abstraction for all the different convex pools",
    "kind": "dev",
    "methods": {
      "getAllConvexPools()": {
        "returns": {
          "_0": "address[]                       Addresses of the convex tokens"
        }
      },
      "getConvexInputToken(address)": {
        "params": {
          "_pool": "Address of the convex token"
        },
        "returns": {
          "inputToken": "                   Address of the input token"
        }
      },
      "getPid(address)": {
        "params": {
          "_asset": "Address of the convex lp token"
        },
        "returns": {
          "_0": "uint256                       Pid of the pool in convex"
        }
      },
      "getRewardPool(address)": {
        "params": {
          "_asset": "Address of the convex token"
        },
        "returns": {
          "reward": "                       Address of the reward pool"
        }
      }
    },
    "title": "ConvexRegistry",
    "version": 1
  },
  "userdoc": {
    "kind": "user",
    "methods": {
      "getAllConvexPools()": {
        "notice": "Gets all the convex tokens"
      },
      "getConvexInputToken(address)": {
        "notice": "Gets the input token address given a convex token"
      },
      "getPid(address)": {
        "notice": "Gets the PID in convex of a convex lp token"
      },
      "getRewardPool(address)": {
        "notice": "Gets the reward pool address given a convex token"
      },
      "updateCache()": {
        "notice": "Refreshes convex vaults"
      }
    },
    "version": 1
  },
  "storageLayout": {
    "storage": [
      {
        "astId": 52735,
        "contract": "contracts/registries/ConvexRegistry.sol:ConvexRegistry",
        "label": "cacheConvexTokenToPid",
        "offset": 0,
        "slot": "0",
        "type": "t_mapping(t_address,t_uint256)"
      },
      {
        "astId": 52738,
        "contract": "contracts/registries/ConvexRegistry.sol:ConvexRegistry",
        "label": "elementsCached",
        "offset": 0,
        "slot": "1",
        "type": "t_uint256"
      },
      {
        "astId": 52743,
        "contract": "contracts/registries/ConvexRegistry.sol:ConvexRegistry",
        "label": "convexPools",
        "offset": 0,
        "slot": "2",
        "type": "t_mapping(t_address,t_bool)"
      },
      {
        "astId": 52746,
        "contract": "contracts/registries/ConvexRegistry.sol:ConvexRegistry",
        "label": "convexList",
        "offset": 0,
        "slot": "3",
        "type": "t_array(t_address)dyn_storage"
      }
    ],
    "types": {
      "t_address": {
        "encoding": "inplace",
        "label": "address",
        "numberOfBytes": "20"
      },
      "t_array(t_address)dyn_storage": {
        "base": "t_address",
        "encoding": "dynamic_array",
        "label": "address[]",
        "numberOfBytes": "32"
      },
      "t_bool": {
        "encoding": "inplace",
        "label": "bool",
        "numberOfBytes": "1"
      },
      "t_mapping(t_address,t_bool)": {
        "encoding": "mapping",
        "key": "t_address",
        "label": "mapping(address => bool)",
        "numberOfBytes": "32",
        "value": "t_bool"
      },
      "t_mapping(t_address,t_uint256)": {
        "encoding": "mapping",
        "key": "t_address",
        "label": "mapping(address => uint256)",
        "numberOfBytes": "32",
        "value": "t_uint256"
      },
      "t_uint256": {
        "encoding": "inplace",
        "label": "uint256",
        "numberOfBytes": "32"
      }
    }
  }
}