{
  "address": "0xF1392356e22F5b10A2F0eF2a29b7E78ffaBF6F5E",
  "abi": [
    {
      "inputs": [
        {
          "internalType": "contract IBabController",
          "name": "_controller",
          "type": "address"
        }
      ],
      "stateMutability": "nonpayable",
      "type": "constructor"
    },
    {
      "anonymous": false,
      "inputs": [
        {
          "indexed": true,
          "internalType": "address",
          "name": "garden",
          "type": "address"
        },
        {
          "indexed": true,
          "internalType": "address",
          "name": "strategy",
          "type": "address"
        },
        {
          "indexed": true,
          "internalType": "address",
          "name": "investment",
          "type": "address"
        },
        {
          "indexed": false,
          "internalType": "address",
          "name": "tokenIn",
          "type": "address"
        },
        {
          "indexed": false,
          "internalType": "uint256",
          "name": "investmentTokensOut",
          "type": "uint256"
        }
      ],
      "name": "InvestmentEntered",
      "type": "event"
    },
    {
      "anonymous": false,
      "inputs": [
        {
          "indexed": true,
          "internalType": "address",
          "name": "garden",
          "type": "address"
        },
        {
          "indexed": true,
          "internalType": "address",
          "name": "strategy",
          "type": "address"
        },
        {
          "indexed": true,
          "internalType": "address",
          "name": "investment",
          "type": "address"
        },
        {
          "indexed": false,
          "internalType": "uint256",
          "name": "investmentTokensOut",
          "type": "uint256"
        }
      ],
      "name": "InvestmentExited",
      "type": "event"
    },
    {
      "inputs": [],
      "name": "_updateCache",
      "outputs": [],
      "stateMutability": "nonpayable",
      "type": "function"
    },
    {
      "inputs": [],
      "name": "controller",
      "outputs": [
        {
          "internalType": "contract IBabController",
          "name": "",
          "type": "address"
        }
      ],
      "stateMutability": "view",
      "type": "function"
    },
    {
      "inputs": [
        {
          "internalType": "address",
          "name": "_strategy",
          "type": "address"
        },
        {
          "internalType": "address",
          "name": "_investmentAddress",
          "type": "address"
        },
        {
          "internalType": "uint256",
          "name": "_investmentTokensOut",
          "type": "uint256"
        },
        {
          "internalType": "address",
          "name": "_tokenIn",
          "type": "address"
        },
        {
          "internalType": "uint256",
          "name": "_maxAmountIn",
          "type": "uint256"
        }
      ],
      "name": "enterInvestment",
      "outputs": [],
      "stateMutability": "nonpayable",
      "type": "function"
    },
    {
      "inputs": [
        {
          "internalType": "address",
          "name": "_strategy",
          "type": "address"
        },
        {
          "internalType": "address",
          "name": "_investmentAddress",
          "type": "address"
        },
        {
          "internalType": "uint256",
          "name": "_investmentTokenIn",
          "type": "uint256"
        },
        {
          "internalType": "address",
          "name": "_tokenOut",
          "type": "address"
        },
        {
          "internalType": "uint256",
          "name": "_minAmountOut",
          "type": "uint256"
        }
      ],
      "name": "exitInvestment",
      "outputs": [],
      "stateMutability": "nonpayable",
      "type": "function"
    },
    {
      "inputs": [
        {
          "internalType": "address",
          "name": "_investmentAddress",
          "type": "address"
        },
        {
          "internalType": "uint256",
          "name": "_ethAmount",
          "type": "uint256"
        }
      ],
      "name": "getExpectedShares",
      "outputs": [
        {
          "internalType": "uint256",
          "name": "",
          "type": "uint256"
        }
      ],
      "stateMutability": "view",
      "type": "function"
    },
    {
      "inputs": [
        {
          "internalType": "address",
          "name": "_investmentAddress",
          "type": "address"
        }
      ],
      "name": "getInvestmentAsset",
      "outputs": [
        {
          "internalType": "address",
          "name": "",
          "type": "address"
        }
      ],
      "stateMutability": "view",
      "type": "function"
    },
    {
      "inputs": [
        {
          "internalType": "address",
          "name": "_asset",
          "type": "address"
        }
      ],
      "name": "getPid",
      "outputs": [
        {
          "internalType": "bool",
          "name": "",
          "type": "bool"
        },
        {
          "internalType": "uint256",
          "name": "",
          "type": "uint256"
        }
      ],
      "stateMutability": "view",
      "type": "function"
    },
    {
      "inputs": [
        {
          "internalType": "address",
          "name": "_investmentAddress",
          "type": "address"
        }
      ],
      "name": "getPricePerShare",
      "outputs": [
        {
          "internalType": "uint256",
          "name": "",
          "type": "uint256"
        }
      ],
      "stateMutability": "view",
      "type": "function"
    },
    {
      "inputs": [
        {
          "internalType": "address",
          "name": "_investmentAddress",
          "type": "address"
        }
      ],
      "name": "getResultAsset",
      "outputs": [
        {
          "internalType": "address",
          "name": "",
          "type": "address"
        }
      ],
      "stateMutability": "view",
      "type": "function"
    },
    {
      "inputs": [
        {
          "internalType": "address",
          "name": "_strategy",
          "type": "address"
        },
        {
          "internalType": "address",
          "name": "_investmentAddress",
          "type": "address"
        }
      ],
      "name": "getRewards",
      "outputs": [
        {
          "internalType": "address",
          "name": "",
          "type": "address"
        },
        {
          "internalType": "uint256",
          "name": "",
          "type": "uint256"
        }
      ],
      "stateMutability": "view",
      "type": "function"
    },
    {
      "inputs": [],
      "name": "name",
      "outputs": [
        {
          "internalType": "string",
          "name": "",
          "type": "string"
        }
      ],
      "stateMutability": "view",
      "type": "function"
    }
  ],
  "transactionHash": "0x9e3de9b9cfd7bceb4c5c999e4fcb68125fd88d74b2822bed5894a8ed5a9314c3",
  "args": [
    "0xD4a5b5fcB561dAF3aDF86F8477555B92FBa43b5F"
  ],
  "solcInputHash": "cdfaa32bb382efb69edc708f16edb7d6",
  "bytecode": "0x608060405260006004553480156200001657600080fd5b50604051620028c6380380620028c6833981810160405260208110156200003c57600080fd5b505160408051808201909152600981526831b7b73b32bc2fbb1960b91b60208201528181816001600160a01b038116620000bd576040805162461bcd60e51b815260206004820152601a60248201527f436f6e74726f6c6c6572206d75737420626520646566696e6564000000000000604482015290519081900360640190fd5b8151620000d290600190602085019062000267565b50600080546001600160a01b0319166001600160a01b03929092169190911790555050600160025550620001056200010c565b5062000313565b600073f403c135812408bfbe8713b5a23a04b3d48aae316001600160a01b031663081e3eda6040518163ffffffff1660e01b815260040160206040518083038186803b1580156200015c57600080fd5b505afa15801562000171573d6000803e3d6000fd5b505050506040513d60208110156200018857600080fd5b505160045490915081116200019e575062000265565b6004545b818110156200026057600073f403c135812408bfbe8713b5a23a04b3d48aae316001600160a01b0316631526fe27836040518263ffffffff1660e01b81526004018082815260200191505060c06040518083038186803b1580156200020657600080fd5b505afa1580156200021b573d6000803e3d6000fd5b505050506040513d60c08110156200023257600080fd5b506020908101516001600160a01b0316600090815260039091526040902060019092019182905550620001a2565b506004555b565b828054600181600116156101000203166002900490600052602060002090601f0160209004810192826200029f5760008555620002ea565b82601f10620002ba57805160ff1916838001178555620002ea565b82800160010185558215620002ea579182015b82811115620002ea578251825591602001919060010190620002cd565b50620002f8929150620002fc565b5090565b5b80821115620002f85760008155600101620002fd565b6125a380620003236000396000f3fe608060405234801561001057600080fd5b50600436106100c95760003560e01c8063871be91111610081578063ec422afd1161005b578063ec422afd146102ef578063f337f63014610315578063f77c47911461033b576100c9565b8063871be9111461025d578063976a99be146102a3578063a540bb54146102e7576100c9565b80634deef649116100b25780634deef6491461018c578063779bcb9b146101ca5780637b082a741461021b576100c9565b806306fdde03146100ce57806343b55f351461014b575b600080fd5b6100d6610343565b6040805160208082528351818301528351919283929083019185019080838360005b838110156101105781810151838201526020016100f8565b50505050905090810190601f16801561013d5780820380516001836020036101000a031916815260200191505b509250505060405180910390f35b6101716004803603602081101561016157600080fd5b50356001600160a01b03166103d0565b60408051921515835260208301919091528051918290030190f35b6101b8600480360360408110156101a257600080fd5b506001600160a01b03813516906020013561057c565b60408051918252519081900360200190f35b6101f8600480360360408110156101e057600080fd5b506001600160a01b0381358116916020013516610591565b604080516001600160a01b03909316835260208301919091528051918290030190f35b6102416004803603602081101561023157600080fd5b50356001600160a01b03166105a9565b604080516001600160a01b039092168252519081900360200190f35b6102a1600480360360a081101561027357600080fd5b506001600160a01b0381358116916020810135821691604082013591606081013590911690608001356105b4565b005b6102a1600480360360a08110156102b957600080fd5b506001600160a01b038135811691602081013582169160408201359160608101359091169060800135610f23565b6102a161152b565b6101b86004803603602081101561030557600080fd5b50356001600160a01b031661167c565b6102416004803603602081101561032b57600080fd5b50356001600160a01b0316611687565b610241611692565b60018054604080516020600284861615610100026000190190941693909304601f810184900484028201840190925281815292918301828280156103c85780601f1061039d576101008083540402835291602001916103c8565b820191906000526020600020905b8154815290600101906020018083116103ab57829003601f168201915b505050505081565b6001600160a01b0381166000908152600360205260408120548190156104175750506001600160a01b03811660009081526003602052604090205460019060001901610577565b600073f403c135812408bfbe8713b5a23a04b3d48aae316001600160a01b031663081e3eda6040518163ffffffff1660e01b815260040160206040518083038186803b15801561046657600080fd5b505afa15801561047a573d6000803e3d6000fd5b505050506040513d602081101561049057600080fd5b505160045490915081116104ab576000809250925050610577565b6004545b8181101561056d57600073f403c135812408bfbe8713b5a23a04b3d48aae316001600160a01b0316631526fe27836040518263ffffffff1660e01b81526004018082815260200191505060c06040518083038186803b15801561051157600080fd5b505afa158015610525573d6000803e3d6000fd5b505050506040513d60c081101561053b57600080fd5b506020015190506001600160a01b03808216908716141561056457506001935091506105779050565b506001016104af565b5060008092509250505b915091565b600061058883836116a1565b90505b92915050565b60008061059e84846116a6565b915091509250929050565b600061058b82611b57565b60028054141561060b576040805162461bcd60e51b815260206004820152601f60248201527f5265656e7472616e637947756172643a207265656e7472616e742063616c6c00604482015290519081900360640190fd5b60028055600054604080516313bc6d4b60e01b815233600482015290516001600160a01b03909216916313bc6d4b91602480820192602092909190829003018186803b15801561065a57600080fd5b505afa15801561066e573d6000803e3d6000fd5b505050506040513d602081101561068457600080fd5b50516106d7576040805162461bcd60e51b815260206004820152601960248201527f4f6e6c792073797374656d2063616e2063616c6c207468697300000000000000604482015290519081900360640190fd5b60006106e68686868686611b62565b90506106f181611d46565b600080600061070288886001611dd3565b919450925090506001600160a01b03831615610a7a57610720611deb565b156108405783516001600160a01b03166397ccdc606107408a6001611df0565b85866001600160a01b03166370a082318e6040518263ffffffff1660e01b815260040180826001600160a01b0316815260200191505060206040518083038186803b15801561078e57600080fd5b505afa1580156107a2573d6000803e3d6000fd5b505050506040513d60208110156107b857600080fd5b5051604080517fffffffff0000000000000000000000000000000000000000000000000000000060e087901b1681526001600160a01b03948516600482015292909316602483015260448201529051606480830192600092919082900301818387803b15801561082757600080fd5b505af115801561083b573d6000803e3d6000fd5b505050505b83600001516001600160a01b0316636bc195dd8484846040518463ffffffff1660e01b815260040180846001600160a01b0316815260200183815260200180602001828103825283818151815260200191508051906020019080838360005b838110156108b757818101518382015260200161089f565b50505050905090810190601f1680156108e45780820380516001836020036101000a031916815260200191505b50945050505050600060405180830381600087803b15801561090557600080fd5b505af1158015610919573d6000803e3d6000fd5b505050506040513d6000823e601f3d908101601f19168201604052602081101561094257600080fd5b810190808051604051939291908464010000000082111561096257600080fd5b90830190602082018581111561097757600080fd5b825164010000000081118282018810171561099157600080fd5b82525081516020918201929091019080838360005b838110156109be5781810151838201526020016109a6565b50505050905090810190601f1680156109eb5780820380516001836020036101000a031916815260200191505b50604052505050506109fc88611e1e565b9750876001600160a01b03166370a082318a6040518263ffffffff1660e01b815260040180826001600160a01b0316815260200191505060206040518083038186803b158015610a4b57600080fd5b505afa158015610a5f573d6000803e3d6000fd5b505050506040513d6020811015610a7557600080fd5b505196505b83516001600160a01b03166397ccdc60610a958a6001611df0565b8a8a6040518463ffffffff1660e01b815260040180846001600160a01b03168152602001836001600160a01b031681526020018281526020019350505050600060405180830381600087803b158015610aed57600080fd5b505af1158015610b01573d6000803e3d6000fd5b505050506000806000610b178c8c8c8c8c611e21565b92509250925086600001516001600160a01b0316636bc195dd8484846040518463ffffffff1660e01b815260040180846001600160a01b0316815260200183815260200180602001828103825283818151815260200191508051906020019080838360005b83811015610b94578181015183820152602001610b7c565b50505050905090810190601f168015610bc15780820380516001836020036101000a031916815260200191505b50945050505050600060405180830381600087803b158015610be257600080fd5b505af1158015610bf6573d6000803e3d6000fd5b505050506040513d6000823e601f3d908101601f191682016040526020811015610c1f57600080fd5b8101908080516040519392919084640100000000821115610c3f57600080fd5b908301906020820185811115610c5457600080fd5b8251640100000000811182820188101715610c6e57600080fd5b82525081516020918201929091019080838360005b83811015610c9b578181015183820152602001610c83565b50505050905090810190601f168015610cc85780820380516001836020036101000a031916815260200191505b5060405250505050610cdc8b8b6001611dd3565b919750955093506001600160a01b03861615610ea65786600001516001600160a01b0316636bc195dd8787876040518463ffffffff1660e01b815260040180846001600160a01b0316815260200183815260200180602001828103825283818151815260200191508051906020019080838360005b83811015610d69578181015183820152602001610d51565b50505050905090810190601f168015610d965780820380516001836020036101000a031916815260200191505b50945050505050600060405180830381600087803b158015610db757600080fd5b505af1158015610dcb573d6000803e3d6000fd5b505050506040513d6000823e601f3d908101601f191682016040526020811015610df457600080fd5b8101908080516040519392919084640100000000821115610e1457600080fd5b908301906020820185811115610e2957600080fd5b8251640100000000811182820188101715610e4357600080fd5b82525081516020918201929091019080838360005b83811015610e70578181015183820152602001610e58565b50505050905090810190601f168015610e9d5780820380516001836020036101000a031916815260200191505b50604052505050505b610eaf87611eb3565b86604001516001600160a01b031687600001516001600160a01b031688602001516001600160a01b03167f99d773709d80de3e15433c22c381fd8e3b82a68b56322240ff4a304956ef0e528d6040518082815260200191505060405180910390a45050600160025550505050505050505050565b600280541415610f7a576040805162461bcd60e51b815260206004820152601f60248201527f5265656e7472616e637947756172643a207265656e7472616e742063616c6c00604482015290519081900360640190fd5b60028055600054604080516313bc6d4b60e01b815233600482015290516001600160a01b03909216916313bc6d4b91602480820192602092909190829003018186803b158015610fc957600080fd5b505afa158015610fdd573d6000803e3d6000fd5b505050506040513d6020811015610ff357600080fd5b5051611046576040805162461bcd60e51b815260206004820152601960248201527f4f6e6c792073797374656d2063616e2063616c6c207468697300000000000000604482015290519081900360640190fd5b60006110558686868686611b62565b905061106081611f7f565b600080600061107188866000611dd3565b919450925090506001600160a01b0383161561123b5783600001516001600160a01b0316636bc195dd8484846040518463ffffffff1660e01b815260040180846001600160a01b0316815260200183815260200180602001828103825283818151815260200191508051906020019080838360005b838110156110fe5781810151838201526020016110e6565b50505050905090810190601f16801561112b5780820380516001836020036101000a031916815260200191505b50945050505050600060405180830381600087803b15801561114c57600080fd5b505af1158015611160573d6000803e3d6000fd5b505050506040513d6000823e601f3d908101601f19168201604052602081101561118957600080fd5b81019080805160405193929190846401000000008211156111a957600080fd5b9083019060208201858111156111be57600080fd5b82516401000000008111828201881017156111d857600080fd5b82525081516020918201929091019080838360005b838110156112055781810151838201526020016111ed565b50505050905090810190601f1680156112325780820380516001836020036101000a031916815260200191505b50604052505050505b6001600160a01b038616156112d65783516001600160a01b03166397ccdc606112658a6000611df0565b88886040518463ffffffff1660e01b815260040180846001600160a01b03168152602001836001600160a01b031681526020018281526020019350505050600060405180830381600087803b1580156112bd57600080fd5b505af11580156112d1573d6000803e3d6000fd5b505050505b60008060006112e88c8c8c8c8c611fc2565b92509250925086600001516001600160a01b0316636bc195dd8484846040518463ffffffff1660e01b815260040180846001600160a01b0316815260200183815260200180602001828103825283818151815260200191508051906020019080838360005b8381101561136557818101518382015260200161134d565b50505050905090810190601f1680156113925780820380516001836020036101000a031916815260200191505b50945050505050600060405180830381600087803b1580156113b357600080fd5b505af11580156113c7573d6000803e3d6000fd5b505050506040513d6000823e601f3d908101601f1916820160405260208110156113f057600080fd5b810190808051604051939291908464010000000082111561141057600080fd5b90830190602082018581111561142557600080fd5b825164010000000081118282018810171561143f57600080fd5b82525081516020918201929091019080838360005b8381101561146c578181015183820152602001611454565b50505050905090810190601f1680156114995780820380516001836020036101000a031916815260200191505b50604052505050506114aa876120c9565b8a6001600160a01b031687600001516001600160a01b031688602001516001600160a01b03167fdc0718d28ea0f80518c2c454af93bc46bf51dd4a1b25a048ca4ca75a7ac359c48c8e60405180836001600160a01b031681526020018281526020019250505060405180910390a45050600160025550505050505050505050565b600073f403c135812408bfbe8713b5a23a04b3d48aae316001600160a01b031663081e3eda6040518163ffffffff1660e01b815260040160206040518083038186803b15801561157a57600080fd5b505afa15801561158e573d6000803e3d6000fd5b505050506040513d60208110156115a457600080fd5b505160045490915081116115b8575061167a565b6004545b8181101561167557600073f403c135812408bfbe8713b5a23a04b3d48aae316001600160a01b0316631526fe27836040518263ffffffff1660e01b81526004018082815260200191505060c06040518083038186803b15801561161e57600080fd5b505afa158015611632573d6000803e3d6000fd5b505050506040513d60c081101561164857600080fd5b506020908101516001600160a01b03166000908152600390915260409020600190920191829055506115bc565b506004555b565b600061058b8261218b565b600061058b82612198565b6000546001600160a01b031681565b919050565b60008060006116b484612278565b905060008060009054906101000a90046001600160a01b03166001600160a01b0316632630c12f6040518163ffffffff1660e01b815260040160206040518083038186803b15801561170557600080fd5b505afa158015611719573d6000803e3d6000fd5b505050506040513d602081101561172f57600080fd5b5051604080516246613160e11b81526001600160a01b03898116600483015291519293506000926117b89260029290871691628cc26291602480820192602092909190829003018186803b15801561178657600080fd5b505afa15801561179a573d6000803e3d6000fd5b505050506040513d60208110156117b057600080fd5b50519061235b565b90506000836001600160a01b031663d55a23f46040518163ffffffff1660e01b815260040160206040518083038186803b1580156117f557600080fd5b505afa158015611809573d6000803e3d6000fd5b505050506040513d602081101561181f57600080fd5b505190508015611ae45760005b81811015611ae2576000856001600160a01b03166340c35446836040518263ffffffff1660e01b81526004018082815260200191505060206040518083038186803b15801561187a57600080fd5b505afa15801561188e573d6000803e3d6000fd5b505050506040513d60208110156118a457600080fd5b5051604080516246613160e11b81526001600160a01b038d81166004830152915192935060009291841691628cc26291602480820192602092909190829003018186803b1580156118f457600080fd5b505afa158015611908573d6000803e3d6000fd5b505050506040513d602081101561191e57600080fd5b505190508015611ad857856001600160a01b031663ac41865a886001600160a01b03166340c35446866040518263ffffffff1660e01b81526004018082815260200191505060206040518083038186803b15801561197b57600080fd5b505afa15801561198f573d6000803e3d6000fd5b505050506040513d60208110156119a557600080fd5b5051604080517ff7c618c100000000000000000000000000000000000000000000000000000000815290516001600160a01b0387169163f7c618c1916004808301926020929190829003018186803b158015611a0057600080fd5b505afa158015611a14573d6000803e3d6000fd5b505050506040513d6020811015611a2a57600080fd5b5051604080517fffffffff0000000000000000000000000000000000000000000000000000000060e086901b1681526001600160a01b039384166004820152929091166024830152516044808301926020929190829003018186803b158015611a9257600080fd5b505afa925050508015611ab757506040513d6020811015611ab257600080fd5b505160015b611ac057611ad8565b611ad4611acd828461237f565b879061239d565b9550505b505060010161182c565b505b836001600160a01b031663f7c618c16040518163ffffffff1660e01b815260040160206040518083038186803b158015611b1d57600080fd5b505afa158015611b31573d6000803e3d6000fd5b505050506040513d6020811015611b4757600080fd5b5051989197509095505050505050565b600061058b82612278565b611b6a612414565b611b72612414565b6001600160a01b038716808252604080517f56ba88b800000000000000000000000000000000000000000000000000000000815290516356ba88b891600480820192602092909190829003018186803b158015611bce57600080fd5b505afa158015611be2573d6000803e3d6000fd5b505050506040513d6020811015611bf857600080fd5b50516001600160a01b03166020820152611c1186611b57565b81604001906001600160a01b031690816001600160a01b031681525050856001600160a01b03166318160ddd6040518163ffffffff1660e01b815260040160206040518083038186803b158015611c6757600080fd5b505afa158015611c7b573d6000803e3d6000fd5b505050506040513d6020811015611c9157600080fd5b5051606082015260408082015181517f70a082310000000000000000000000000000000000000000000000000000000081526001600160a01b038a81166004830152925192909116916370a0823191602480820192602092909190829003018186803b158015611d0057600080fd5b505afa158015611d14573d6000803e3d6000fd5b505050506040513d6020811015611d2a57600080fd5b505160a082015260808101949094525060c08301525092915050565b6000816080015111611d895760405162461bcd60e51b815260040180806020018281038252603481526020018061253a6034913960400191505060405180910390fd5b80608001518160a001511015611dd05760405162461bcd60e51b815260040180806020018281038252603381526020018061246d6033913960400191505060405180910390fd5b50565b50506040805160208101909152600080825292839250565b600090565b600060ff8216611e15575073f403c135812408bfbe8713b5a23a04b3d48aae3161058b565b61058883612278565b90565b604080516024810185905260016044808301919091528251808303909101815260649091019091526020810180517bffffffffffffffffffffffffffffffffffffffffffffffffffffffff167fc32e7202000000000000000000000000000000000000000000000000000000001790526000908190606090611ea288612278565b996000995090975095505050505050565b80608001518160a001510360640181604001516001600160a01b03166370a0823183600001516040518263ffffffff1660e01b815260040180826001600160a01b0316815260200191505060206040518083038186803b158015611f1657600080fd5b505afa158015611f2a573d6000803e3d6000fd5b505050506040513d6020811015611f4057600080fd5b50511115611dd05760405162461bcd60e51b81526004018080602001828103825260318152602001806124d26031913960400191505060405180910390fd5b6000816080015111611dd05760405162461bcd60e51b81526004018080602001828103825260378152602001806125036037913960400191505060405180910390fd5b6000806060600080611fd3896103d0565b9150915081612029576040805162461bcd60e51b815260206004820152601a60248201527f436f6e76657820706f6f6c20646f6573206e6f74206578697374000000000000604482015290519081900360640190fd5b60408051602481019290925260448201879052600160648084019190915281518084039091018152608490920190526020810180517bffffffffffffffffffffffffffffffffffffffffffffffffffffffff167f43a0d0660000000000000000000000000000000000000000000000000000000017905273f403c135812408bfbe8713b5a23a04b3d48aae31945060009350915050955095509592505050565b8060a0015181604001516001600160a01b03166370a0823183600001516040518263ffffffff1660e01b815260040180826001600160a01b0316815260200191505060206040518083038186803b15801561212357600080fd5b505afa158015612137573d6000803e3d6000fd5b505050506040513d602081101561214d57600080fd5b505111611dd05760405162461bcd60e51b81526004018080602001828103825260328152602001806124a06032913960400191505060405180910390fd5b50670de0b6b3a764000090565b60008060006121a6846103d0565b91509150816121ec576040805162461bcd60e51b815260206004820152600d60248201526c141a59081b9bdd08199bdd5b99609a1b604482015290519081900360640190fd5b73f403c135812408bfbe8713b5a23a04b3d48aae316001600160a01b0316631526fe27826040518263ffffffff1660e01b81526004018082815260200191505060c06040518083038186803b15801561224457600080fd5b505afa158015612258573d6000803e3d6000fd5b505050506040513d60c081101561226e57600080fd5b5051949350505050565b6000806000612286846103d0565b91509150816122cc576040805162461bcd60e51b815260206004820152600d60248201526c141a59081b9bdd08199bdd5b99609a1b604482015290519081900360640190fd5b73f403c135812408bfbe8713b5a23a04b3d48aae316001600160a01b0316631526fe27826040518263ffffffff1660e01b81526004018082815260200191505060c06040518083038186803b15801561232457600080fd5b505afa158015612338573d6000803e3d6000fd5b505050506040513d60c081101561234e57600080fd5b5060600151949350505050565b60008215806123765750508181028183828161237357fe5b04145b61058b57600080fd5b6000610588670de0b6b3a7640000612397858561235b565b906123ad565b8082018281101561058b57600080fd5b6000808211612403576040805162461bcd60e51b815260206004820152601a60248201527f536166654d6174683a206469766973696f6e206279207a65726f000000000000604482015290519081900360640190fd5b81838161240c57fe5b049392505050565b6040518060e0016040528060006001600160a01b0316815260200160006001600160a01b0316815260200160006001600160a01b0316815260200160008152602001600081526020016000815260200160008152509056fe54686520737472617465677920646f6573206e6f74206861766520656e6f75676820696e766573746d656e7420746f6b656e7354686520737472617465677920646964206e6f7420726563656976652074686520696e766573746d656e7420746f6b656e7354686520737472617465677920646964206e6f742072657475726e2074686520696e766573746d656e7420746f6b656e734d696e20696e766573746d656e7420746f6b656e7320746f2072656365697665206d7573742062652067726561746572207468616e2030496e766573746d656e7420746f6b656e7320746f2065786368616e6765206d7573742062652067726561746572207468616e2030a2646970667358221220a86bb36cd7208babbeb7fec0aca5e98acd61d38a13e1ceb1e9f839f625ce7ab864736f6c63430007060033",
  "devdoc": {
    "author": "Babylon Finance Protocol Lido Integration",
    "kind": "dev",
    "methods": {
      "constructor": {
        "params": {
          "_controller": "Address of the controller"
        }
      },
      "enterInvestment(address,address,uint256,address,uint256)": {
        "params": {
          "_investmentAddress": "Address of the investment token to join",
          "_investmentTokensOut": "Min amount of investment tokens to receive",
          "_maxAmountIn": "Max amount of the token to deposit",
          "_strategy": "Address of the strategy",
          "_tokenIn": "Token address to deposit"
        }
      },
      "exitInvestment(address,address,uint256,address,uint256)": {
        "params": {
          "_investmentAddress": "Address of the investment token to exit",
          "_investmentTokenIn": "Quantity of investment tokens to return",
          "_minAmountOut": "Min token quantities to receive from the investment",
          "_strategy": "Address of the strategy",
          "_tokenOut": "Token address to withdraw"
        }
      },
      "getExpectedShares(address,uint256)": {
        "params": {
          "_ethAmount": "Amount of eth to invest",
          "_investmentAddress": "Investment address to check"
        },
        "returns": {
          "_0": "uint256                           Amount of investment shares to receive"
        }
      },
      "getInvestmentAsset(address)": {
        "returns": {
          "_0": "address                           Returns the asset that this investment needs"
        }
      },
      "getPid(address)": {
        "params": {
          "_asset": "Address of the convex lp token"
        },
        "returns": {
          "_0": "uint256                       Pid of the pool in convex"
        }
      },
      "getPricePerShare(address)": {
        "params": {
          "_investmentAddress": "Investment address to check"
        },
        "returns": {
          "_0": "uint256                           Returns the price in ETH of an investment share"
        }
      },
      "getResultAsset(address)": {
        "returns": {
          "_0": "address                            Returns the asset that this investment obtains"
        }
      },
      "getRewards(address,address)": {
        "params": {
          "_investmentAddress": "Address of the investment",
          "_strategy": "Address of the strategy"
        },
        "returns": {
          "_0": "address                            Returns the address with the token of extra rewards",
          "_1": "uint256                            Extra rewards received so far"
        }
      }
    },
    "title": "ConvexStakeIntegration",
    "version": 1
  },
  "userdoc": {
    "kind": "user",
    "methods": {
      "constructor": {
        "notice": "Creates the integration"
      },
      "enterInvestment(address,address,uint256,address,uint256)": {
        "notice": "Deposits tokens into an investment"
      },
      "exitInvestment(address,address,uint256,address,uint256)": {
        "notice": "Exits an outside passive investment"
      },
      "getExpectedShares(address,uint256)": {
        "notice": "Gets the amount of shares expected to get after depositing _ethAmount"
      },
      "getInvestmentAsset(address)": {
        "notice": "Gets the asset needed to enter the investment"
      },
      "getPid(address)": {
        "notice": "Gets the PID in convex of a convex lp token"
      },
      "getPricePerShare(address)": {
        "notice": "Gets how much eth one unit of the investment is worth"
      },
      "getResultAsset(address)": {
        "notice": "Gets the asset you obtained after entering the investment"
      },
      "getRewards(address,address)": {
        "notice": "Gets the rewards and the token that they are denominated in"
      }
    },
    "version": 1
  },
  "storageLayout": {
    "storage": [
      {
        "astId": 22891,
        "contract": "contracts/integrations/passive/ConvexStakeIntegration.sol:ConvexStakeIntegration",
        "label": "controller",
        "offset": 0,
        "slot": "0",
        "type": "t_contract(IBabController)36211"
      },
      {
        "astId": 22893,
        "contract": "contracts/integrations/passive/ConvexStakeIntegration.sol:ConvexStakeIntegration",
        "label": "name",
        "offset": 0,
        "slot": "1",
        "type": "t_string_storage"
      },
      {
        "astId": 6418,
        "contract": "contracts/integrations/passive/ConvexStakeIntegration.sol:ConvexStakeIntegration",
        "label": "_status",
        "offset": 0,
        "slot": "2",
        "type": "t_uint256"
      },
      {
        "astId": 26074,
        "contract": "contracts/integrations/passive/ConvexStakeIntegration.sol:ConvexStakeIntegration",
        "label": "cacheConvexTokenToPid",
        "offset": 0,
        "slot": "3",
        "type": "t_mapping(t_address,t_uint256)"
      },
      {
        "astId": 26077,
        "contract": "contracts/integrations/passive/ConvexStakeIntegration.sol:ConvexStakeIntegration",
        "label": "elementsCached",
        "offset": 0,
        "slot": "4",
        "type": "t_uint256"
      }
    ],
    "types": {
      "t_address": {
        "encoding": "inplace",
        "label": "address",
        "numberOfBytes": "20"
      },
      "t_contract(IBabController)36211": {
        "encoding": "inplace",
        "label": "contract IBabController",
        "numberOfBytes": "20"
      },
      "t_mapping(t_address,t_uint256)": {
        "encoding": "mapping",
        "key": "t_address",
        "label": "mapping(address => uint256)",
        "numberOfBytes": "32",
        "value": "t_uint256"
      },
      "t_string_storage": {
        "encoding": "bytes",
        "label": "string",
        "numberOfBytes": "32"
      },
      "t_uint256": {
        "encoding": "inplace",
        "label": "uint256",
        "numberOfBytes": "32"
      }
    }
  }
}