{
  "address": "0x22619F6710C7D82D7b7FE31449D351B61373D63D",
  "abi": [
    {
      "inputs": [
        {
          "internalType": "contract IBabController",
          "name": "_controller",
          "type": "address"
        }
      ],
      "stateMutability": "nonpayable",
      "type": "constructor"
    },
    {
      "anonymous": false,
      "inputs": [
        {
          "indexed": true,
          "internalType": "address",
          "name": "garden",
          "type": "address"
        },
        {
          "indexed": true,
          "internalType": "address",
          "name": "strategy",
          "type": "address"
        },
        {
          "indexed": true,
          "internalType": "address",
          "name": "investment",
          "type": "address"
        },
        {
          "indexed": false,
          "internalType": "address",
          "name": "tokenIn",
          "type": "address"
        },
        {
          "indexed": false,
          "internalType": "uint256",
          "name": "investmentTokensOut",
          "type": "uint256"
        }
      ],
      "name": "InvestmentEntered",
      "type": "event"
    },
    {
      "anonymous": false,
      "inputs": [
        {
          "indexed": true,
          "internalType": "address",
          "name": "garden",
          "type": "address"
        },
        {
          "indexed": true,
          "internalType": "address",
          "name": "strategy",
          "type": "address"
        },
        {
          "indexed": true,
          "internalType": "address",
          "name": "investment",
          "type": "address"
        },
        {
          "indexed": false,
          "internalType": "uint256",
          "name": "investmentTokensOut",
          "type": "uint256"
        }
      ],
      "name": "InvestmentExited",
      "type": "event"
    },
    {
      "inputs": [],
      "name": "_updateCache",
      "outputs": [],
      "stateMutability": "nonpayable",
      "type": "function"
    },
    {
      "inputs": [],
      "name": "controller",
      "outputs": [
        {
          "internalType": "contract IBabController",
          "name": "",
          "type": "address"
        }
      ],
      "stateMutability": "view",
      "type": "function"
    },
    {
      "inputs": [
        {
          "internalType": "address",
          "name": "_strategy",
          "type": "address"
        },
        {
          "internalType": "address",
          "name": "_investmentAddress",
          "type": "address"
        },
        {
          "internalType": "uint256",
          "name": "_investmentTokensOut",
          "type": "uint256"
        },
        {
          "internalType": "address",
          "name": "_tokenIn",
          "type": "address"
        },
        {
          "internalType": "uint256",
          "name": "_maxAmountIn",
          "type": "uint256"
        }
      ],
      "name": "enterInvestment",
      "outputs": [],
      "stateMutability": "nonpayable",
      "type": "function"
    },
    {
      "inputs": [
        {
          "internalType": "address",
          "name": "_strategy",
          "type": "address"
        },
        {
          "internalType": "address",
          "name": "_investmentAddress",
          "type": "address"
        },
        {
          "internalType": "uint256",
          "name": "_investmentTokenIn",
          "type": "uint256"
        },
        {
          "internalType": "address",
          "name": "_tokenOut",
          "type": "address"
        },
        {
          "internalType": "uint256",
          "name": "_minAmountOut",
          "type": "uint256"
        }
      ],
      "name": "exitInvestment",
      "outputs": [],
      "stateMutability": "nonpayable",
      "type": "function"
    },
    {
      "inputs": [
        {
          "internalType": "address",
          "name": "_investmentAddress",
          "type": "address"
        },
        {
          "internalType": "uint256",
          "name": "_ethAmount",
          "type": "uint256"
        }
      ],
      "name": "getExpectedShares",
      "outputs": [
        {
          "internalType": "uint256",
          "name": "",
          "type": "uint256"
        }
      ],
      "stateMutability": "view",
      "type": "function"
    },
    {
      "inputs": [
        {
          "internalType": "address",
          "name": "_investmentAddress",
          "type": "address"
        }
      ],
      "name": "getInvestmentAsset",
      "outputs": [
        {
          "internalType": "address",
          "name": "",
          "type": "address"
        }
      ],
      "stateMutability": "view",
      "type": "function"
    },
    {
      "inputs": [],
      "name": "getName",
      "outputs": [
        {
          "internalType": "string",
          "name": "",
          "type": "string"
        }
      ],
      "stateMutability": "view",
      "type": "function"
    },
    {
      "inputs": [
        {
          "internalType": "address",
          "name": "_asset",
          "type": "address"
        }
      ],
      "name": "getPid",
      "outputs": [
        {
          "internalType": "bool",
          "name": "",
          "type": "bool"
        },
        {
          "internalType": "uint256",
          "name": "",
          "type": "uint256"
        }
      ],
      "stateMutability": "view",
      "type": "function"
    },
    {
      "inputs": [
        {
          "internalType": "address",
          "name": "_investmentAddress",
          "type": "address"
        }
      ],
      "name": "getPricePerShare",
      "outputs": [
        {
          "internalType": "uint256",
          "name": "",
          "type": "uint256"
        }
      ],
      "stateMutability": "view",
      "type": "function"
    },
    {
      "inputs": [
        {
          "internalType": "address",
          "name": "_investmentAddress",
          "type": "address"
        }
      ],
      "name": "getResultAsset",
      "outputs": [
        {
          "internalType": "address",
          "name": "",
          "type": "address"
        }
      ],
      "stateMutability": "view",
      "type": "function"
    },
    {
      "inputs": [
        {
          "internalType": "address",
          "name": "_strategy",
          "type": "address"
        },
        {
          "internalType": "address",
          "name": "_investmentAddress",
          "type": "address"
        }
      ],
      "name": "getRewards",
      "outputs": [
        {
          "internalType": "address",
          "name": "",
          "type": "address"
        },
        {
          "internalType": "uint256",
          "name": "",
          "type": "uint256"
        }
      ],
      "stateMutability": "view",
      "type": "function"
    },
    {
      "inputs": [],
      "name": "name",
      "outputs": [
        {
          "internalType": "string",
          "name": "",
          "type": "string"
        }
      ],
      "stateMutability": "view",
      "type": "function"
    }
  ],
  "transactionHash": "0xa7e272f9e54d975a1b9571a319d42c09894bfa5f27c4c7329ca8fe3ba5b66d8d",
  "args": [
    "0xD4a5b5fcB561dAF3aDF86F8477555B92FBa43b5F"
  ],
  "solcInputHash": "4b0c4fbbb92a3486352c438162ebc902",
  "bytecode": "0x608060405260006004553480156200001657600080fd5b506040516200279938038062002799833981810160405260208110156200003c57600080fd5b505160408051808201909152600981526831b7b73b32bc2fbb1960b91b60208201528181816001600160a01b038116620000bd576040805162461bcd60e51b815260206004820152601a60248201527f436f6e74726f6c6c6572206d75737420626520646566696e6564000000000000604482015290519081900360640190fd5b8151620000d290600190602085019062000267565b50600080546001600160a01b0319166001600160a01b03929092169190911790555050600160025550620001056200010c565b5062000313565b600073f403c135812408bfbe8713b5a23a04b3d48aae316001600160a01b031663081e3eda6040518163ffffffff1660e01b815260040160206040518083038186803b1580156200015c57600080fd5b505afa15801562000171573d6000803e3d6000fd5b505050506040513d60208110156200018857600080fd5b505160045490915081116200019e575062000265565b6004545b818110156200026057600073f403c135812408bfbe8713b5a23a04b3d48aae316001600160a01b0316631526fe27836040518263ffffffff1660e01b81526004018082815260200191505060c06040518083038186803b1580156200020657600080fd5b505afa1580156200021b573d6000803e3d6000fd5b505050506040513d60c08110156200023257600080fd5b506020908101516001600160a01b0316600090815260039091526040902060019092019182905550620001a2565b506004555b565b828054600181600116156101000203166002900490600052602060002090601f0160209004810192826200029f5760008555620002ea565b82601f10620002ba57805160ff1916838001178555620002ea565b82800160010185558215620002ea579182015b82811115620002ea578251825591602001919060010190620002cd565b50620002f8929150620002fc565b5090565b5b80821115620002f85760008155600101620002fd565b61247680620003236000396000f3fe608060405234801561001057600080fd5b50600436106100d45760003560e01c8063871be91111610081578063ec422afd1161005b578063ec422afd14610302578063f337f63014610328578063f77c47911461034e576100d4565b8063871be91114610270578063976a99be146102b6578063a540bb54146102fa576100d4565b80634deef649116100b25780634deef6491461019f578063779bcb9b146101dd5780637b082a741461022e576100d4565b806306fdde03146100d957806317d7de7c1461015657806343b55f351461015e575b600080fd5b6100e1610356565b6040805160208082528351818301528351919283929083019185019080838360005b8381101561011b578181015183820152602001610103565b50505050905090810190601f1680156101485780820380516001836020036101000a031916815260200191505b509250505060405180910390f35b6100e16103e3565b6101846004803603602081101561017457600080fd5b50356001600160a01b0316610478565b60408051921515835260208301919091528051918290030190f35b6101cb600480360360408110156101b557600080fd5b506001600160a01b038135169060200135610624565b60408051918252519081900360200190f35b61020b600480360360408110156101f357600080fd5b506001600160a01b0381358116916020013516610639565b604080516001600160a01b03909316835260208301919091528051918290030190f35b6102546004803603602081101561024457600080fd5b50356001600160a01b0316610651565b604080516001600160a01b039092168252519081900360200190f35b6102b4600480360360a081101561028657600080fd5b506001600160a01b03813581169160208101358216916040820135916060810135909116906080013561065c565b005b6102b4600480360360a08110156102cc57600080fd5b506001600160a01b038135811691602081013582169160408201359160608101359091169060800135610df5565b6102b46113fd565b6101cb6004803603602081101561031857600080fd5b50356001600160a01b031661154e565b6102546004803603602081101561033e57600080fd5b50356001600160a01b0316611559565b610254611564565b60018054604080516020600284861615610100026000190190941693909304601f810184900484028201840190925281815292918301828280156103db5780601f106103b0576101008083540402835291602001916103db565b820191906000526020600020905b8154815290600101906020018083116103be57829003601f168201915b505050505081565b60018054604080516020601f6002600019610100878916150201909516949094049384018190048102820181019092528281526060939092909183018282801561046e5780601f106104435761010080835404028352916020019161046e565b820191906000526020600020905b81548152906001019060200180831161045157829003601f168201915b5050505050905090565b6001600160a01b0381166000908152600360205260408120548190156104bf5750506001600160a01b0381166000908152600360205260409020546001906000190161061f565b600073f403c135812408bfbe8713b5a23a04b3d48aae316001600160a01b031663081e3eda6040518163ffffffff1660e01b815260040160206040518083038186803b15801561050e57600080fd5b505afa158015610522573d6000803e3d6000fd5b505050506040513d602081101561053857600080fd5b5051600454909150811161055357600080925092505061061f565b6004545b8181101561061557600073f403c135812408bfbe8713b5a23a04b3d48aae316001600160a01b0316631526fe27836040518263ffffffff1660e01b81526004018082815260200191505060c06040518083038186803b1580156105b957600080fd5b505afa1580156105cd573d6000803e3d6000fd5b505050506040513d60c08110156105e357600080fd5b506020015190506001600160a01b03808216908716141561060c575060019350915061061f9050565b50600101610557565b5060008092509250505b915091565b60006106308383611573565b90505b92915050565b6000806106468484611578565b915091509250929050565b600061063382611a31565b6002805414156106b3576040805162461bcd60e51b815260206004820152601f60248201527f5265656e7472616e637947756172643a207265656e7472616e742063616c6c00604482015290519081900360640190fd5b60028055600054604080516313bc6d4b60e01b815233600482015290516001600160a01b03909216916313bc6d4b91602480820192602092909190829003018186803b15801561070257600080fd5b505afa158015610716573d6000803e3d6000fd5b505050506040513d602081101561072c57600080fd5b505161077f576040805162461bcd60e51b815260206004820152601960248201527f4f6e6c792073797374656d2063616e2063616c6c207468697300000000000000604482015290519081900360640190fd5b600061078e8686868686611a3c565b905061079981611c20565b60008060006107aa88886001611cad565b919450925090506001600160a01b03831615610b22576107c8611cc5565b156108e85783516001600160a01b03166397ccdc606107e88a6001611cca565b85866001600160a01b03166370a082318e6040518263ffffffff1660e01b815260040180826001600160a01b0316815260200191505060206040518083038186803b15801561083657600080fd5b505afa15801561084a573d6000803e3d6000fd5b505050506040513d602081101561086057600080fd5b5051604080517fffffffff0000000000000000000000000000000000000000000000000000000060e087901b1681526001600160a01b03948516600482015292909316602483015260448201529051606480830192600092919082900301818387803b1580156108cf57600080fd5b505af11580156108e3573d6000803e3d6000fd5b505050505b83600001516001600160a01b0316636bc195dd8484846040518463ffffffff1660e01b815260040180846001600160a01b0316815260200183815260200180602001828103825283818151815260200191508051906020019080838360005b8381101561095f578181015183820152602001610947565b50505050905090810190601f16801561098c5780820380516001836020036101000a031916815260200191505b50945050505050600060405180830381600087803b1580156109ad57600080fd5b505af11580156109c1573d6000803e3d6000fd5b505050506040513d6000823e601f3d908101601f1916820160405260208110156109ea57600080fd5b8101908080516040519392919084640100000000821115610a0a57600080fd5b908301906020820185811115610a1f57600080fd5b8251640100000000811182820188101715610a3957600080fd5b82525081516020918201929091019080838360005b83811015610a66578181015183820152602001610a4e565b50505050905090810190601f168015610a935780820380516001836020036101000a031916815260200191505b5060405250505050610aa488611cf8565b9750876001600160a01b03166370a082318a6040518263ffffffff1660e01b815260040180826001600160a01b0316815260200191505060206040518083038186803b158015610af357600080fd5b505afa158015610b07573d6000803e3d6000fd5b505050506040513d6020811015610b1d57600080fd5b505196505b83516001600160a01b03166397ccdc60610b3d8a6001611cca565b8a8a6040518463ffffffff1660e01b815260040180846001600160a01b03168152602001836001600160a01b031681526020018281526020019350505050600060405180830381600087803b158015610b9557600080fd5b505af1158015610ba9573d6000803e3d6000fd5b505050506000806000610bbf8c8c8c8c8c611cfb565b92509250925086600001516001600160a01b0316636bc195dd8484846040518463ffffffff1660e01b815260040180846001600160a01b0316815260200183815260200180602001828103825283818151815260200191508051906020019080838360005b83811015610c3c578181015183820152602001610c24565b50505050905090810190601f168015610c695780820380516001836020036101000a031916815260200191505b50945050505050600060405180830381600087803b158015610c8a57600080fd5b505af1158015610c9e573d6000803e3d6000fd5b505050506040513d6000823e601f3d908101601f191682016040526020811015610cc757600080fd5b8101908080516040519392919084640100000000821115610ce757600080fd5b908301906020820185811115610cfc57600080fd5b8251640100000000811182820188101715610d1657600080fd5b82525081516020918201929091019080838360005b83811015610d43578181015183820152602001610d2b565b50505050905090810190601f168015610d705780820380516001836020036101000a031916815260200191505b5060405250505050610d8187611d86565b86604001516001600160a01b031687600001516001600160a01b031688602001516001600160a01b03167f99d773709d80de3e15433c22c381fd8e3b82a68b56322240ff4a304956ef0e528d6040518082815260200191505060405180910390a45050600160025550505050505050505050565b600280541415610e4c576040805162461bcd60e51b815260206004820152601f60248201527f5265656e7472616e637947756172643a207265656e7472616e742063616c6c00604482015290519081900360640190fd5b60028055600054604080516313bc6d4b60e01b815233600482015290516001600160a01b03909216916313bc6d4b91602480820192602092909190829003018186803b158015610e9b57600080fd5b505afa158015610eaf573d6000803e3d6000fd5b505050506040513d6020811015610ec557600080fd5b5051610f18576040805162461bcd60e51b815260206004820152601960248201527f4f6e6c792073797374656d2063616e2063616c6c207468697300000000000000604482015290519081900360640190fd5b6000610f278686868686611a3c565b9050610f3281611e52565b6000806000610f4388866000611cad565b919450925090506001600160a01b0383161561110d5783600001516001600160a01b0316636bc195dd8484846040518463ffffffff1660e01b815260040180846001600160a01b0316815260200183815260200180602001828103825283818151815260200191508051906020019080838360005b83811015610fd0578181015183820152602001610fb8565b50505050905090810190601f168015610ffd5780820380516001836020036101000a031916815260200191505b50945050505050600060405180830381600087803b15801561101e57600080fd5b505af1158015611032573d6000803e3d6000fd5b505050506040513d6000823e601f3d908101601f19168201604052602081101561105b57600080fd5b810190808051604051939291908464010000000082111561107b57600080fd5b90830190602082018581111561109057600080fd5b82516401000000008111828201881017156110aa57600080fd5b82525081516020918201929091019080838360005b838110156110d75781810151838201526020016110bf565b50505050905090810190601f1680156111045780820380516001836020036101000a031916815260200191505b50604052505050505b6001600160a01b038616156111a85783516001600160a01b03166397ccdc606111378a6000611cca565b88886040518463ffffffff1660e01b815260040180846001600160a01b03168152602001836001600160a01b031681526020018281526020019350505050600060405180830381600087803b15801561118f57600080fd5b505af11580156111a3573d6000803e3d6000fd5b505050505b60008060006111ba8c8c8c8c8c611e95565b92509250925086600001516001600160a01b0316636bc195dd8484846040518463ffffffff1660e01b815260040180846001600160a01b0316815260200183815260200180602001828103825283818151815260200191508051906020019080838360005b8381101561123757818101518382015260200161121f565b50505050905090810190601f1680156112645780820380516001836020036101000a031916815260200191505b50945050505050600060405180830381600087803b15801561128557600080fd5b505af1158015611299573d6000803e3d6000fd5b505050506040513d6000823e601f3d908101601f1916820160405260208110156112c257600080fd5b81019080805160405193929190846401000000008211156112e257600080fd5b9083019060208201858111156112f757600080fd5b825164010000000081118282018810171561131157600080fd5b82525081516020918201929091019080838360005b8381101561133e578181015183820152602001611326565b50505050905090810190601f16801561136b5780820380516001836020036101000a031916815260200191505b506040525050505061137c87611f9c565b8a6001600160a01b031687600001516001600160a01b031688602001516001600160a01b03167fdc0718d28ea0f80518c2c454af93bc46bf51dd4a1b25a048ca4ca75a7ac359c48c8e60405180836001600160a01b031681526020018281526020019250505060405180910390a45050600160025550505050505050505050565b600073f403c135812408bfbe8713b5a23a04b3d48aae316001600160a01b031663081e3eda6040518163ffffffff1660e01b815260040160206040518083038186803b15801561144c57600080fd5b505afa158015611460573d6000803e3d6000fd5b505050506040513d602081101561147657600080fd5b5051600454909150811161148a575061154c565b6004545b8181101561154757600073f403c135812408bfbe8713b5a23a04b3d48aae316001600160a01b0316631526fe27836040518263ffffffff1660e01b81526004018082815260200191505060c06040518083038186803b1580156114f057600080fd5b505afa158015611504573d6000803e3d6000fd5b505050506040513d60c081101561151a57600080fd5b506020908101516001600160a01b031660009081526003909152604090206001909201918290555061148e565b506004555b565b60006106338261205e565b60006106338261206b565b6000546001600160a01b031681565b919050565b60008060006115868461214b565b905060008060009054906101000a90046001600160a01b03166001600160a01b0316632630c12f6040518163ffffffff1660e01b815260040160206040518083038186803b1580156115d757600080fd5b505afa1580156115eb573d6000803e3d6000fd5b505050506040513d602081101561160157600080fd5b5051604080516246613160e11b81526001600160a01b038981166004830152915192935060009261168a9260029290871691628cc26291602480820192602092909190829003018186803b15801561165857600080fd5b505afa15801561166c573d6000803e3d6000fd5b505050506040513d602081101561168257600080fd5b50519061222e565b90506000836001600160a01b031663d55a23f46040518163ffffffff1660e01b815260040160206040518083038186803b1580156116c757600080fd5b505afa1580156116db573d6000803e3d6000fd5b505050506040513d60208110156116f157600080fd5b5051905080156119be5760005b818110156119bc576000856001600160a01b03166340c35446836040518263ffffffff1660e01b81526004018082815260200191505060206040518083038186803b15801561174c57600080fd5b505afa158015611760573d6000803e3d6000fd5b505050506040513d602081101561177657600080fd5b5051604080516246613160e11b81526001600160a01b038d8116600483015291519293506119b1926119aa92851691628cc262916024808301926020929190829003018186803b1580156117c957600080fd5b505afa1580156117dd573d6000803e3d6000fd5b505050506040513d60208110156117f357600080fd5b5051604080517f40c354460000000000000000000000000000000000000000000000000000000081526004810187905290516001600160a01b03808b169263ac41865a92918d16916340c3544691602480820192602092909190829003018186803b15801561186157600080fd5b505afa158015611875573d6000803e3d6000fd5b505050506040513d602081101561188b57600080fd5b5051604080517ff7c618c100000000000000000000000000000000000000000000000000000000815290516001600160a01b0389169163f7c618c1916004808301926020929190829003018186803b1580156118e657600080fd5b505afa1580156118fa573d6000803e3d6000fd5b505050506040513d602081101561191057600080fd5b5051604080517fffffffff0000000000000000000000000000000000000000000000000000000060e086901b1681526001600160a01b039384166004820152929091166024830152516044808301926020929190829003018186803b15801561197857600080fd5b505afa15801561198c573d6000803e3d6000fd5b505050506040513d60208110156119a257600080fd5b505190612252565b8590612270565b9350506001016116fe565b505b836001600160a01b031663f7c618c16040518163ffffffff1660e01b815260040160206040518083038186803b1580156119f757600080fd5b505afa158015611a0b573d6000803e3d6000fd5b505050506040513d6020811015611a2157600080fd5b5051989197509095505050505050565b60006106338261214b565b611a446122e7565b611a4c6122e7565b6001600160a01b038716808252604080517f56ba88b800000000000000000000000000000000000000000000000000000000815290516356ba88b891600480820192602092909190829003018186803b158015611aa857600080fd5b505afa158015611abc573d6000803e3d6000fd5b505050506040513d6020811015611ad257600080fd5b50516001600160a01b03166020820152611aeb86611a31565b81604001906001600160a01b031690816001600160a01b031681525050856001600160a01b03166318160ddd6040518163ffffffff1660e01b815260040160206040518083038186803b158015611b4157600080fd5b505afa158015611b55573d6000803e3d6000fd5b505050506040513d6020811015611b6b57600080fd5b5051606082015260408082015181517f70a082310000000000000000000000000000000000000000000000000000000081526001600160a01b038a81166004830152925192909116916370a0823191602480820192602092909190829003018186803b158015611bda57600080fd5b505afa158015611bee573d6000803e3d6000fd5b505050506040513d6020811015611c0457600080fd5b505160a082015260808101949094525060c08301525092915050565b6000816080015111611c635760405162461bcd60e51b815260040180806020018281038252603481526020018061240d6034913960400191505060405180910390fd5b80608001518160a001511015611caa5760405162461bcd60e51b81526004018080602001828103825260338152602001806123406033913960400191505060405180910390fd5b50565b50506040805160208101909152600080825292839250565b600090565b600060ff8216611cef575073f403c135812408bfbe8713b5a23a04b3d48aae31610633565b6106308361214b565b90565b6040805160016024808301919091528251808303909101815260449091019091526020810180517bffffffffffffffffffffffffffffffffffffffffffffffffffffffff167f49f039a2000000000000000000000000000000000000000000000000000000001790526000908190606090611d758861214b565b996000995090975095505050505050565b80608001518160a001510360640181604001516001600160a01b03166370a0823183600001516040518263ffffffff1660e01b815260040180826001600160a01b0316815260200191505060206040518083038186803b158015611de957600080fd5b505afa158015611dfd573d6000803e3d6000fd5b505050506040513d6020811015611e1357600080fd5b50511115611caa5760405162461bcd60e51b81526004018080602001828103825260318152602001806123a56031913960400191505060405180910390fd5b6000816080015111611caa5760405162461bcd60e51b81526004018080602001828103825260378152602001806123d66037913960400191505060405180910390fd5b6000806060600080611ea689610478565b9150915081611efc576040805162461bcd60e51b815260206004820152601a60248201527f436f6e76657820706f6f6c20646f6573206e6f74206578697374000000000000604482015290519081900360640190fd5b60408051602481019290925260448201879052600160648084019190915281518084039091018152608490920190526020810180517bffffffffffffffffffffffffffffffffffffffffffffffffffffffff167f43a0d0660000000000000000000000000000000000000000000000000000000017905273f403c135812408bfbe8713b5a23a04b3d48aae31945060009350915050955095509592505050565b8060a0015181604001516001600160a01b03166370a0823183600001516040518263ffffffff1660e01b815260040180826001600160a01b0316815260200191505060206040518083038186803b158015611ff657600080fd5b505afa15801561200a573d6000803e3d6000fd5b505050506040513d602081101561202057600080fd5b505111611caa5760405162461bcd60e51b81526004018080602001828103825260328152602001806123736032913960400191505060405180910390fd5b50670de0b6b3a764000090565b600080600061207984610478565b91509150816120bf576040805162461bcd60e51b815260206004820152600d60248201526c141a59081b9bdd08199bdd5b99609a1b604482015290519081900360640190fd5b73f403c135812408bfbe8713b5a23a04b3d48aae316001600160a01b0316631526fe27826040518263ffffffff1660e01b81526004018082815260200191505060c06040518083038186803b15801561211757600080fd5b505afa15801561212b573d6000803e3d6000fd5b505050506040513d60c081101561214157600080fd5b5051949350505050565b600080600061215984610478565b915091508161219f576040805162461bcd60e51b815260206004820152600d60248201526c141a59081b9bdd08199bdd5b99609a1b604482015290519081900360640190fd5b73f403c135812408bfbe8713b5a23a04b3d48aae316001600160a01b0316631526fe27826040518263ffffffff1660e01b81526004018082815260200191505060c06040518083038186803b1580156121f757600080fd5b505afa15801561220b573d6000803e3d6000fd5b505050506040513d60c081101561222157600080fd5b5060600151949350505050565b60008215806122495750508181028183828161224657fe5b04145b61063357600080fd5b6000610630670de0b6b3a764000061226a858561222e565b90612280565b8082018281101561063357600080fd5b60008082116122d6576040805162461bcd60e51b815260206004820152601a60248201527f536166654d6174683a206469766973696f6e206279207a65726f000000000000604482015290519081900360640190fd5b8183816122df57fe5b049392505050565b6040518060e0016040528060006001600160a01b0316815260200160006001600160a01b0316815260200160006001600160a01b0316815260200160008152602001600081526020016000815260200160008152509056fe54686520737472617465677920646f6573206e6f74206861766520656e6f75676820696e766573746d656e7420746f6b656e7354686520737472617465677920646964206e6f7420726563656976652074686520696e766573746d656e7420746f6b656e7354686520737472617465677920646964206e6f742072657475726e2074686520696e766573746d656e7420746f6b656e734d696e20696e766573746d656e7420746f6b656e7320746f2072656365697665206d7573742062652067726561746572207468616e2030496e766573746d656e7420746f6b656e7320746f2065786368616e6765206d7573742062652067726561746572207468616e2030a2646970667358221220445e130f8a1bb649676b110ecfd35dfcf891a46d85c148689c4a77cf8050317c64736f6c63430007060033",
  "devdoc": {
    "author": "Babylon Finance Protocol Lido Integration",
    "kind": "dev",
    "methods": {
      "constructor": {
        "params": {
          "_controller": "Address of the controller"
        }
      },
      "enterInvestment(address,address,uint256,address,uint256)": {
        "params": {
          "_investmentAddress": "Address of the investment token to join",
          "_investmentTokensOut": "Min amount of investment tokens to receive",
          "_maxAmountIn": "Max amount of the token to deposit",
          "_strategy": "Address of the strategy",
          "_tokenIn": "Token address to deposit"
        }
      },
      "exitInvestment(address,address,uint256,address,uint256)": {
        "params": {
          "_investmentAddress": "Address of the investment token to exit",
          "_investmentTokenIn": "Quantity of investment tokens to return",
          "_minAmountOut": "Min token quantities to receive from the investment",
          "_strategy": "Address of the strategy",
          "_tokenOut": "Token address to withdraw"
        }
      },
      "getExpectedShares(address,uint256)": {
        "params": {
          "_ethAmount": "Amount of eth to invest",
          "_investmentAddress": "Investment address to check"
        },
        "returns": {
          "_0": "uint256                           Amount of investment shares to receive"
        }
      },
      "getInvestmentAsset(address)": {
        "returns": {
          "_0": "address                           Returns the asset that this investment needs"
        }
      },
      "getPid(address)": {
        "params": {
          "_asset": "Address of the convex lp token"
        },
        "returns": {
          "_0": "uint256                       Pid of the pool in convex"
        }
      },
      "getPricePerShare(address)": {
        "params": {
          "_investmentAddress": "Investment address to check"
        },
        "returns": {
          "_0": "uint256                           Returns the price in ETH of an investment share"
        }
      },
      "getResultAsset(address)": {
        "returns": {
          "_0": "address                            Returns the asset that this investment obtains"
        }
      },
      "getRewards(address,address)": {
        "params": {
          "_investmentAddress": "Address of the investment",
          "_strategy": "Address of the strategy"
        },
        "returns": {
          "_0": "address                            Returns the address with the token of extra rewards",
          "_1": "uint256                            Extra rewards received so far"
        }
      }
    },
    "title": "ConvexStakeIntegration",
    "version": 1
  },
  "userdoc": {
    "kind": "user",
    "methods": {
      "constructor": {
        "notice": "Creates the integration"
      },
      "enterInvestment(address,address,uint256,address,uint256)": {
        "notice": "Deposits tokens into an investment"
      },
      "exitInvestment(address,address,uint256,address,uint256)": {
        "notice": "Exits an outside passive investment"
      },
      "getExpectedShares(address,uint256)": {
        "notice": "Gets the amount of shares expected to get after depositing _ethAmount"
      },
      "getInvestmentAsset(address)": {
        "notice": "Gets the asset needed to enter the investment"
      },
      "getName()": {
        "notice": "Returns the name of the integration"
      },
      "getPid(address)": {
        "notice": "Gets the PID in convex of a convex lp token"
      },
      "getPricePerShare(address)": {
        "notice": "Gets how much eth one unit of the investment is worth"
      },
      "getResultAsset(address)": {
        "notice": "Gets the asset you obtained after entering the investment"
      },
      "getRewards(address,address)": {
        "notice": "Gets the rewards and the token that they are denominated in"
      }
    },
    "version": 1
  },
  "storageLayout": {
    "storage": [
      {
        "astId": 21737,
        "contract": "contracts/integrations/passive/ConvexStakeIntegration.sol:ConvexStakeIntegration",
        "label": "controller",
        "offset": 0,
        "slot": "0",
        "type": "t_contract(IBabController)34256"
      },
      {
        "astId": 21763,
        "contract": "contracts/integrations/passive/ConvexStakeIntegration.sol:ConvexStakeIntegration",
        "label": "name",
        "offset": 0,
        "slot": "1",
        "type": "t_string_storage"
      },
      {
        "astId": 5975,
        "contract": "contracts/integrations/passive/ConvexStakeIntegration.sol:ConvexStakeIntegration",
        "label": "_status",
        "offset": 0,
        "slot": "2",
        "type": "t_uint256"
      },
      {
        "astId": 24952,
        "contract": "contracts/integrations/passive/ConvexStakeIntegration.sol:ConvexStakeIntegration",
        "label": "cacheConvexTokenToPid",
        "offset": 0,
        "slot": "3",
        "type": "t_mapping(t_address,t_uint256)"
      },
      {
        "astId": 24955,
        "contract": "contracts/integrations/passive/ConvexStakeIntegration.sol:ConvexStakeIntegration",
        "label": "elementsCached",
        "offset": 0,
        "slot": "4",
        "type": "t_uint256"
      }
    ],
    "types": {
      "t_address": {
        "encoding": "inplace",
        "label": "address",
        "numberOfBytes": "20"
      },
      "t_contract(IBabController)34256": {
        "encoding": "inplace",
        "label": "contract IBabController",
        "numberOfBytes": "20"
      },
      "t_mapping(t_address,t_uint256)": {
        "encoding": "mapping",
        "key": "t_address",
        "label": "mapping(address => uint256)",
        "numberOfBytes": "32",
        "value": "t_uint256"
      },
      "t_string_storage": {
        "encoding": "bytes",
        "label": "string",
        "numberOfBytes": "32"
      },
      "t_uint256": {
        "encoding": "inplace",
        "label": "uint256",
        "numberOfBytes": "32"
      }
    }
  }
}