{
  "address": "0x39ad9e2eB818980aa9ad97625F7d6A45E6299CF4",
  "abi": [
    {
      "inputs": [
        {
          "internalType": "contract IBabController",
          "name": "_controller",
          "type": "address"
        }
      ],
      "stateMutability": "nonpayable",
      "type": "constructor"
    },
    {
      "inputs": [],
      "name": "controller",
      "outputs": [
        {
          "internalType": "contract IBabController",
          "name": "",
          "type": "address"
        }
      ],
      "stateMutability": "view",
      "type": "function"
    },
    {
      "inputs": [
        {
          "internalType": "address",
          "name": "",
          "type": "address"
        }
      ],
      "name": "cryptoFactoryLpTokenToPools",
      "outputs": [
        {
          "internalType": "address",
          "name": "",
          "type": "address"
        }
      ],
      "stateMutability": "view",
      "type": "function"
    },
    {
      "inputs": [],
      "name": "cryptoRegistry",
      "outputs": [
        {
          "internalType": "contract ICryptoRegistry",
          "name": "",
          "type": "address"
        }
      ],
      "stateMutability": "view",
      "type": "function"
    },
    {
      "inputs": [],
      "name": "cryptoRegistryF",
      "outputs": [
        {
          "internalType": "contract ICryptoFactoryRegistry",
          "name": "",
          "type": "address"
        }
      ],
      "stateMutability": "view",
      "type": "function"
    },
    {
      "inputs": [],
      "name": "curveRegistry",
      "outputs": [
        {
          "internalType": "contract ICurveRegistry",
          "name": "",
          "type": "address"
        }
      ],
      "stateMutability": "view",
      "type": "function"
    },
    {
      "inputs": [],
      "name": "factoryRegistry",
      "outputs": [
        {
          "internalType": "contract IFactoryRegistry",
          "name": "",
          "type": "address"
        }
      ],
      "stateMutability": "view",
      "type": "function"
    },
    {
      "inputs": [
        {
          "internalType": "address",
          "name": "_fromToken",
          "type": "address"
        },
        {
          "internalType": "address",
          "name": "_toToken",
          "type": "address"
        },
        {
          "internalType": "uint256",
          "name": "_i",
          "type": "uint256"
        }
      ],
      "name": "findPoolForCoins",
      "outputs": [
        {
          "internalType": "address",
          "name": "",
          "type": "address"
        }
      ],
      "stateMutability": "view",
      "type": "function"
    },
    {
      "inputs": [
        {
          "internalType": "address",
          "name": "",
          "type": "address"
        }
      ],
      "name": "gaugeToPool",
      "outputs": [
        {
          "internalType": "address",
          "name": "",
          "type": "address"
        }
      ],
      "stateMutability": "view",
      "type": "function"
    },
    {
      "inputs": [
        {
          "internalType": "address",
          "name": "_pool",
          "type": "address"
        },
        {
          "internalType": "bool",
          "name": "_getUnderlying",
          "type": "bool"
        }
      ],
      "name": "getCoinAddresses",
      "outputs": [
        {
          "internalType": "address[8]",
          "name": "",
          "type": "address[8]"
        }
      ],
      "stateMutability": "view",
      "type": "function"
    },
    {
      "inputs": [
        {
          "internalType": "address",
          "name": "_pool",
          "type": "address"
        },
        {
          "internalType": "address",
          "name": "_fromToken",
          "type": "address"
        },
        {
          "internalType": "address",
          "name": "_toToken",
          "type": "address"
        }
      ],
      "name": "getCoinIndices",
      "outputs": [
        {
          "internalType": "uint256",
          "name": "",
          "type": "uint256"
        },
        {
          "internalType": "uint256",
          "name": "",
          "type": "uint256"
        },
        {
          "internalType": "bool",
          "name": "",
          "type": "bool"
        }
      ],
      "stateMutability": "view",
      "type": "function"
    },
    {
      "inputs": [
        {
          "internalType": "address",
          "name": "_pool",
          "type": "address"
        }
      ],
      "name": "getGauge",
      "outputs": [
        {
          "internalType": "address",
          "name": "",
          "type": "address"
        }
      ],
      "stateMutability": "view",
      "type": "function"
    },
    {
      "inputs": [
        {
          "internalType": "address",
          "name": "_pool",
          "type": "address"
        }
      ],
      "name": "getLpToken",
      "outputs": [
        {
          "internalType": "address",
          "name": "",
          "type": "address"
        }
      ],
      "stateMutability": "view",
      "type": "function"
    },
    {
      "inputs": [
        {
          "internalType": "address",
          "name": "_pool",
          "type": "address"
        }
      ],
      "name": "getNCoins",
      "outputs": [
        {
          "internalType": "uint256",
          "name": "",
          "type": "uint256"
        }
      ],
      "stateMutability": "view",
      "type": "function"
    },
    {
      "inputs": [
        {
          "internalType": "address",
          "name": "_lpToken",
          "type": "address"
        }
      ],
      "name": "getPoolFromLpToken",
      "outputs": [
        {
          "internalType": "address",
          "name": "",
          "type": "address"
        }
      ],
      "stateMutability": "view",
      "type": "function"
    },
    {
      "inputs": [
        {
          "internalType": "address",
          "name": "_pool",
          "type": "address"
        },
        {
          "internalType": "uint256",
          "name": "_i",
          "type": "uint256"
        }
      ],
      "name": "getUnderlyingAndRate",
      "outputs": [
        {
          "internalType": "address",
          "name": "",
          "type": "address"
        },
        {
          "internalType": "uint256",
          "name": "",
          "type": "uint256"
        }
      ],
      "stateMutability": "view",
      "type": "function"
    },
    {
      "inputs": [
        {
          "internalType": "address",
          "name": "_lpToken",
          "type": "address"
        }
      ],
      "name": "getVirtualPriceFromLpToken",
      "outputs": [
        {
          "internalType": "uint256",
          "name": "",
          "type": "uint256"
        }
      ],
      "stateMutability": "view",
      "type": "function"
    },
    {
      "inputs": [
        {
          "internalType": "address",
          "name": "_pool",
          "type": "address"
        }
      ],
      "name": "isMeta",
      "outputs": [
        {
          "internalType": "bool",
          "name": "",
          "type": "bool"
        }
      ],
      "stateMutability": "view",
      "type": "function"
    },
    {
      "inputs": [
        {
          "internalType": "address",
          "name": "_poolAddress",
          "type": "address"
        }
      ],
      "name": "isPool",
      "outputs": [
        {
          "internalType": "bool",
          "name": "",
          "type": "bool"
        }
      ],
      "stateMutability": "view",
      "type": "function"
    },
    {
      "inputs": [
        {
          "internalType": "address",
          "name": "",
          "type": "address"
        }
      ],
      "name": "poolToRegistry",
      "outputs": [
        {
          "internalType": "uint8",
          "name": "",
          "type": "uint8"
        }
      ],
      "stateMutability": "view",
      "type": "function"
    },
    {
      "inputs": [],
      "name": "updateCryptoRegistries",
      "outputs": [],
      "stateMutability": "nonpayable",
      "type": "function"
    },
    {
      "inputs": [],
      "name": "updatePoolsList",
      "outputs": [],
      "stateMutability": "nonpayable",
      "type": "function"
    }
  ],
  "transactionHash": "0x84eb3340eb79fe2412f75b29c596dfb72730a786e63af18d1838a07cb8c87458",
  "args": [
    "0xD4a5b5fcB561dAF3aDF86F8477555B92FBa43b5F"
  ],
  "numDeployments": 3,
  "solcInputHash": "aabccacf1ad5d387cf6aa6a9716b0857",
  "bytecode": "0x60a06040523480156200001157600080fd5b5060405162002a1e38038062002a1e833981810160405260208110156200003757600080fd5b50516001600160a01b03811662000095576040805162461bcd60e51b815260206004820152601760248201527f436f6e74726f6c6c6572206973206e6f742076616c6964000000000000000000604482015290519081900360640190fd5b6001600160601b0319606082901b166080526040805163a262904b60e01b815290516f22d53366457f9d5e68ec105046fc43839163a262904b916004808301926020929190829003018186803b158015620000ef57600080fd5b505afa15801562000104573d6000803e3d6000fd5b505050506040513d60208110156200011b57600080fd5b5051600080546001600160a01b0319166001600160a01b039092169190911790556040805163124fd3dd60e21b81526003600482015290516f22d53366457f9d5e68ec105046fc43839163493f4f74916024808301926020929190829003018186803b1580156200018b57600080fd5b505afa158015620001a0573d6000803e3d6000fd5b505050506040513d6020811015620001b757600080fd5b5051600180546001600160a01b0319166001600160a01b039092169190911790556040805163124fd3dd60e21b81526005600482015290516f22d53366457f9d5e68ec105046fc43839163493f4f74916024808301926020929190829003018186803b1580156200022757600080fd5b505afa1580156200023c573d6000803e3d6000fd5b505050506040513d60208110156200025357600080fd5b5051600280546001600160a01b0319166001600160a01b039092169190911790556040805163124fd3dd60e21b81526006600482015290516f22d53366457f9d5e68ec105046fc43839163493f4f74916024808301926020929190829003018186803b158015620002c357600080fd5b505afa158015620002d8573d6000803e3d6000fd5b505050506040513d6020811015620002ef57600080fd5b5051600380546001600160a01b0319166001600160a01b0392831617908190556200031e916004911662000373565b60015462000338906002906001600160a01b031662000373565b60025462000352906003906001600160a01b031662000373565b6000546200036c906001906001600160a01b031662000373565b50620007b6565b60005b816001600160a01b031663956aae3a6040518163ffffffff1660e01b815260040160206040518083038186803b158015620003b057600080fd5b505afa158015620003c5573d6000803e3d6000fd5b505050506040513d6020811015620003dc57600080fd5b505181101562000579576000826001600160a01b0316633a1d5d8e836040518263ffffffff1660e01b81526004018082815260200191505060206040518083038186803b1580156200042d57600080fd5b505afa15801562000442573d6000803e3d6000fd5b505050506040513d60208110156200045957600080fd5b50516001600160a01b0381166000908152600560205260409020805460ff191660ff8716908117909155909150600414156200052e578060046000836001600160a01b031663fc0c546a6040518163ffffffff1660e01b815260040160206040518083038186803b158015620004ce57600080fd5b505afa158015620004e3573d6000803e3d6000fd5b505050506040513d6020811015620004fa57600080fd5b50516001600160a01b039081168252602082019290925260400160002080546001600160a01b031916929091169190911790555b80600660006200053e836200057e565b6001600160a01b039081168252602082019290925260400160002080546001600160a01b031916929091169190911790555060010162000376565b505050565b6001600160a01b038082166000908152600560205260408120548154919260ff90911691166002821415620005bb57506001546001600160a01b03165b8160031415620005d357506002546001600160a01b03165b8160041415620005eb57506003546001600160a01b03165b8160011480620005fb5750816003145b156200070d57600080826001600160a01b03166356059ffb876040518263ffffffff1660e01b815260040180826001600160a01b031681526020019150506102806040518083038186803b1580156200065357600080fd5b505afa15801562000668573d6000803e3d6000fd5b505050506040513d601f19601f820116820180604052506102808110156200068f57600080fd5b50915050610140810160005b600a81101562000709578181600a8110620006b257fe5b6020020151600f0b1580620006db57508181600a8110620006cf57fe5b6020020151600f0b6005145b1562000700578281600a8110620006ee57fe5b602002015195505050505050620007b1565b6001016200069b565b5050505b81600214806200071d5750816004145b15620007aa57806001600160a01b031663daf297b9856040518263ffffffff1660e01b815260040180826001600160a01b0316815260200191505060206040518083038186803b1580156200077157600080fd5b505afa15801562000786573d6000803e3d6000fd5b505050506040513d60208110156200079d57600080fd5b50519250620007b1915050565b6000925050505b919050565b60805160601c612240620007de60003980610af7528061154a5280611e5452506122406000f3fe608060405234801561001057600080fd5b50600436106101775760003560e01c806364d894d2116100d8578063b1c6f0e91161008c578063e39e268211610066578063e39e268214610498578063f77c4791146104be578063fc911e74146104c657610177565b8063b1c6f0e914610404578063b35084db1461042a578063c4c09b551461046057610177565b80637d54e794116100bd5780637d54e7941461036f578063a07952a414610395578063aee466f6146103fc57610177565b806364d894d2146102fa57806371174f161461034957610177565b80632ae914321161012f5780633bf0c9fb116101145780633bf0c9fb1461027c57806347698799146102845780635b16ebb7146102c057610177565b80632ae914321461024c5780633a5e5ceb1461027257610177565b806327c24a5d1161016057806327c24a5d146101c657806329a0eb85146101ce5780632abd8a261461022657610177565b80630d56cc791461017c57806324a59233146101a0575b600080fd5b6101846104ce565b604080516001600160a01b039092168252519081900360200190f35b610184600480360360208110156101b657600080fd5b50356001600160a01b03166104dd565b610184610653565b610206600480360360608110156101e457600080fd5b506001600160a01b038135811691602081013582169160409091013516610662565b604080519384526020840192909252151582820152519081900360600190f35b6101846004803603602081101561023c57600080fd5b50356001600160a01b031661092f565b6101846004803603602081101561026257600080fd5b50356001600160a01b0316610ad7565b61027a610af2565b005b610184610d8d565b6102aa6004803603602081101561029a57600080fd5b50356001600160a01b0316610d9c565b6040805160ff9092168252519081900360200190f35b6102e6600480360360208110156102d657600080fd5b50356001600160a01b0316610db1565b604080519115158252519081900360200190f35b6103266004803603604081101561031057600080fd5b506001600160a01b038135169060200135610dd1565b604080516001600160a01b03909316835260208301919091528051918290030190f35b6102e66004803603602081101561035f57600080fd5b50356001600160a01b0316611034565b6101846004803603602081101561038557600080fd5b50356001600160a01b0316611114565b6103c3600480360360408110156103ab57600080fd5b506001600160a01b038135169060200135151561112f565b604051808261010080838360005b838110156103e95781810151838201526020016103d1565b5050505090500191505060405180910390f35b61027a611545565b6101846004803603602081101561041a57600080fd5b50356001600160a01b03166115d7565b6101846004803603606081101561044057600080fd5b506001600160a01b038135811691602081013590911690604001356117f7565b6104866004803603602081101561047657600080fd5b50356001600160a01b0316611a6e565b60408051918252519081900360200190f35b610486600480360360208110156104ae57600080fd5b50356001600160a01b0316611c8d565b610184611e52565b610184611e76565b6003546001600160a01b031681565b6001600160a01b03811660009081526005602052604081205460ff166002141561050857508061064e565b6001600160a01b0380831660009081526004602052604090205416801561053057905061064e565b6000546040805163bdf475c360e01b81526001600160a01b0386811660048301529151919092169163bdf475c3916024808301926020929190829003018186803b15801561057d57600080fd5b505afa9250505080156105a257506040513d602081101561059d57600080fd5b505160015b6105ab576105c5565b6001600160a01b038116156105c357915061064e9050565b505b6002546040805163bdf475c360e01b81526001600160a01b0386811660048301529151919092169163bdf475c3916024808301926020929190829003018186803b15801561061257600080fd5b505afa92505050801561063757506040513d602081101561063257600080fd5b505160015b61064557600091505061064e565b915061064e9050565b919050565b6000546001600160a01b031681565b6001600160a01b0383166000908152600560205260408120548190819060ff16818080600184141561073557600080546040805163eb85226d60e01b81526001600160a01b038e811660048301528d811660248301528c81166044830152915184938493169163eb85226d916064808301926060929190829003018186803b1580156106ed57600080fd5b505afa158015610701573d6000803e3d6000fd5b505050506040513d606081101561071757600080fd5b50805160208201516040909201519750600f90810b96500b93505050505b83600214156107e9576001546040805163eb85226d60e01b81526001600160a01b038d811660048301528c811660248301528b8116604483015291516000938493849391169163eb85226d91606480820192606092909190829003018186803b1580156107a157600080fd5b505afa1580156107b5573d6000803e3d6000fd5b505050506040513d60608110156107cb57600080fd5b50805160208201516040909201519750600f90810b96500b93505050505b8360031415610884576002546040805163eb85226d60e01b81526001600160a01b038d811660048301528c811660248301528b81166044830152825193169263eb85226d92606480840193919291829003018186803b15801561084b57600080fd5b505afa15801561085f573d6000803e3d6000fd5b505050506040513d604081101561087557600080fd5b50805160209091015190925090505b836004141561091f576003546040805163eb85226d60e01b81526001600160a01b038d811660048301528c811660248301528b81166044830152825193169263eb85226d92606480840193919291829003018186803b1580156108e657600080fd5b505afa1580156108fa573d6000803e3d6000fd5b505050506040513d604081101561091057600080fd5b50805160209091015190925090505b9099909850909650945050505050565b6001600160a01b03811660009081526005602052604081205460ff1660018114156109d65760005460408051633795104960e01b81526001600160a01b038681166004830152915191909216916337951049916024808301926020929190829003018186803b1580156109a157600080fd5b505afa1580156109b5573d6000803e3d6000fd5b505050506040513d60208110156109cb57600080fd5b5051915061064e9050565b8060031415610a2c5760025460408051633795104960e01b81526001600160a01b038681166004830152915191909216916337951049916024808301926020929190829003018186803b1580156109a157600080fd5b8060021415610a3e578291505061064e565b600354604080517f977d91220000000000000000000000000000000000000000000000000000000081526001600160a01b0386811660048301529151919092169163977d9122916024808301926020929190829003018186803b158015610aa457600080fd5b505afa158015610ab8573d6000803e3d6000fd5b505050506040513d6020811015610ace57600080fd5b50519392505050565b6004602052600090815260409020546001600160a01b031681565b610b247f00000000000000000000000000000000000000000000000000000000000000006001600160a01b0316611e85565b6f22d53366457f9d5e68ec105046fc43836001600160a01b031663a262904b6040518163ffffffff1660e01b815260040160206040518083038186803b158015610b6d57600080fd5b505afa158015610b81573d6000803e3d6000fd5b505050506040513d6020811015610b9757600080fd5b5051600080546001600160a01b0319166001600160a01b039092169190911790556040805163124fd3dd60e21b81526003600482015290516f22d53366457f9d5e68ec105046fc43839163493f4f74916024808301926020929190829003018186803b158015610c0657600080fd5b505afa158015610c1a573d6000803e3d6000fd5b505050506040513d6020811015610c3057600080fd5b5051600180546001600160a01b0319166001600160a01b039092169190911790556040805163124fd3dd60e21b81526005600482015290516f22d53366457f9d5e68ec105046fc43839163493f4f74916024808301926020929190829003018186803b158015610c9f57600080fd5b505afa158015610cb3573d6000803e3d6000fd5b505050506040513d6020811015610cc957600080fd5b5051600280546001600160a01b0319166001600160a01b039092169190911790556040805163124fd3dd60e21b81526006600482015290516f22d53366457f9d5e68ec105046fc43839163493f4f74916024808301926020929190829003018186803b158015610d3857600080fd5b505afa158015610d4c573d6000803e3d6000fd5b505050506040513d6020811015610d6257600080fd5b5051600380546001600160a01b0319166001600160a01b03909216919091179055610d8b611545565b565b6001546001600160a01b031681565b60056020526000908152604090205460ff1681565b6001600160a01b031660009081526005602052604090205460ff16151590565b6001600160a01b038216600090815260056020526040812054819060ff166001811415610f34576000546040805163a77576ef60e01b81526001600160a01b0388811660048301529151919092169163a77576ef91602480830192610100929190829003018186803b158015610e4657600080fd5b505afa158015610e5a573d6000803e3d6000fd5b505050506040513d601f19601f82011682018060405250610100811015610e8057600080fd5b508460088110610e8c57fe5b60200201516000546040805163674cf22d60e11b81526001600160a01b0389811660048301529151919092169163ce99e45a91602480830192610100929190829003018186803b158015610edf57600080fd5b505afa158015610ef3573d6000803e3d6000fd5b505050506040513d601f19601f82011682018060405250610100811015610f1957600080fd5b508560088110610f2557fe5b6020020151925092505061102d565b8060021415611024576001546040805163a77576ef60e01b81526001600160a01b0388811660048301529151919092169163a77576ef91602480830192610100929190829003018186803b158015610f8b57600080fd5b505afa158015610f9f573d6000803e3d6000fd5b505050506040513d601f19601f82011682018060405250610100811015610fc557600080fd5b508460088110610fd157fe5b60200201516001546040805163674cf22d60e11b81526001600160a01b0389811660048301529151919092169163ce99e45a91602480830192610100929190829003018186803b158015610edf57600080fd5b60008092509250505b9250929050565b6001600160a01b03811660009081526005602052604081205460ff1660018114801590611062575080600214155b1561107157600091505061064e565b80600114156110c7576000546040805163e4d332a960e01b81526001600160a01b0386811660048301529151919092169163e4d332a9916024808301926020929190829003018186803b1580156109a157600080fd5b6001546040805163e4d332a960e01b81526001600160a01b0386811660048301529151919092169163e4d332a9916024808301926020929190829003018186803b158015610aa457600080fd5b6006602052600090815260409020546001600160a01b031681565b6111376121c1565b6001600160a01b03831660009081526005602052604090205460ff1682156112a35780600114156111f4576000546040805163a77576ef60e01b81526001600160a01b0387811660048301529151919092169163a77576ef91602480830192610100929190829003018186803b1580156111b057600080fd5b505afa1580156111c4573d6000803e3d6000fd5b505050506040513d601f19601f820116820180604052506101008110156111ea57600080fd5b50915061153f9050565b8060021415611295576001546040805163a77576ef60e01b81526001600160a01b0387811660048301529151919092169163a77576ef91602480830192610100929190829003018186803b15801561124b57600080fd5b505afa92505050801561127f57506040513d601f19601f8201168201806040525061010081101561127b57600080fd5b5060015b61128c5760009250611295565b915061153f9050565b60028111156112a357600092505b8261153d5780600114156112ff5760005460408051639ac90d3d60e01b81526001600160a01b03878116600483015291519190921691639ac90d3d91602480830192610100929190829003018186803b1580156111b057600080fd5b80600214156113fc5760015460408051639ac90d3d60e01b81526001600160a01b03878116600483015291516000939290921691639ac90d3d91602480820192608092909190829003018186803b15801561135957600080fd5b505afa15801561136d573d6000803e3d6000fd5b505050506040513d601f19601f82011682018060405250608081101561139257600080fd5b50604080516101008101825282516001600160a01b039081168252602080850151821690830152838301518116928201929092526060928301519091169181019190915260006080820181905260a0820181905260c0820181905260e0820152925061153f915050565b80600314156114535760025460408051639ac90d3d60e01b81526001600160a01b03878116600483015291519190921691639ac90d3d91602480830192610100929190829003018186803b1580156111b057600080fd5b806004141561153d5760035460408051639ac90d3d60e01b81526001600160a01b03878116600483015282516000949190911692639ac90d3d9260248082019391829003018186803b1580156114a857600080fd5b505afa1580156114bc573d6000803e3d6000fd5b505050506040513d601f19601f8201168201806040525060408110156114e157600080fd5b50604080516101008101825282516001600160a01b03908116825260209384015116928101929092526000908201819052606082018190526080820181905260a0820181905260c0820181905260e0820152925061153f915050565b505b92915050565b6115777f00000000000000000000000000000000000000000000000000000000000000006001600160a01b0316611e85565b60035461158f906004906001600160a01b0316611fc4565b6002546115a7906003906001600160a01b0316611fc4565b6001546115bf906002906001600160a01b0316611fc4565b600054610d8b906001906001600160a01b0316611fc4565b6001600160a01b038082166000908152600560205260408120548154919260ff9091169116600282141561161357506001546001600160a01b03165b816003141561162a57506002546001600160a01b03165b816004141561164157506003546001600160a01b03165b81600114806116505750816003145b1561175657600080826001600160a01b03166356059ffb876040518263ffffffff1660e01b815260040180826001600160a01b031681526020019150506102806040518083038186803b1580156116a657600080fd5b505afa1580156116ba573d6000803e3d6000fd5b505050506040513d601f19601f820116820180604052506102808110156116e057600080fd5b50915050610140810160005b600a811015611752578181600a811061170157fe5b6020020151600f0b158061172857508181600a811061171c57fe5b6020020151600f0b6005145b1561174a578281600a811061173957fe5b60200201519550505050505061064e565b6001016116ec565b5050505b81600214806117655750816004145b156117ed57806001600160a01b031663daf297b9856040518263ffffffff1660e01b815260040180826001600160a01b0316815260200191505060206040518083038186803b1580156117b757600080fd5b505afa1580156117cb573d6000803e3d6000fd5b505050506040513d60208110156117e157600080fd5b5051925061064e915050565b5060009392505050565b6000805460408051636982eb0b60e01b81526001600160a01b038781166004830152868116602483015260448201869052915184939290921691636982eb0b91606480820192602092909190829003018186803b15801561185757600080fd5b505afa15801561186b573d6000803e3d6000fd5b505050506040513d602081101561188157600080fd5b505190506001600160a01b0381161561189b579050611a67565b60015460408051636982eb0b60e01b81526001600160a01b03888116600483015287811660248301526044820187905291519190921691636982eb0b916064808301926020929190829003018186803b1580156118f757600080fd5b505afa15801561190b573d6000803e3d6000fd5b505050506040513d602081101561192157600080fd5b505190506001600160a01b0381161561193b579050611a67565b60025460408051636982eb0b60e01b81526001600160a01b03888116600483015287811660248301526044820187905291519190921691636982eb0b916064808301926020929190829003018186803b15801561199757600080fd5b505afa1580156119ab573d6000803e3d6000fd5b505050506040513d60208110156119c157600080fd5b505190506001600160a01b038116156119db579050611a67565b60035460408051636982eb0b60e01b81526001600160a01b03888116600483015287811660248301526044820187905291519190921691636982eb0b916064808301926020929190829003018186803b158015611a3757600080fd5b505afa158015611a4b573d6000803e3d6000fd5b505050506040513d6020811015611a6157600080fd5b50519150505b9392505050565b6001600160a01b03811660009081526005602052604081205460ff166001811415611b15576000546040805163940494f160e01b81526001600160a01b038681166004830152825193169263940494f192602480840193919291829003018186803b158015611adc57600080fd5b505afa158015611af0573d6000803e3d6000fd5b505050506040513d601f19601f8201168201806040525060408110156109cb57600080fd5b8060021415611c2e576001546040805163940494f160e01b81526001600160a01b0386811660048301529151600093929092169163940494f191602480820192602092909190829003018186803b158015611b6f57600080fd5b505afa158015611b83573d6000803e3d6000fd5b505050506040513d6020811015611b9957600080fd5b505190508061064557600154604080517feb73f37d0000000000000000000000000000000000000000000000000000000081526001600160a01b038781166004830152825193169263eb73f37d92602480840193919291829003018186803b158015611c0457600080fd5b505afa158015611c18573d6000803e3d6000fd5b505050506040513d60408110156117e157600080fd5b8060031415611c84576002546040805163940494f160e01b81526001600160a01b0386811660048301529151919092169163940494f1916024808301926020929190829003018186803b1580156109a157600080fd5b50600292915050565b600080611c99836104dd565b6001600160a01b03811660009081526005602052604090205490915060ff166001811415611d2757600054604080517fc5b7074a0000000000000000000000000000000000000000000000000000000081526001600160a01b0387811660048301529151919092169163c5b7074a916024808301926020929190829003018186803b1580156117b757600080fd5b8060021415611d6957816001600160a01b031663bb7b8b806040518163ffffffff1660e01b815260040160206040518083038186803b1580156117b757600080fd5b6001600160a01b03841673c4ad29ba4b3c580e6d59105fff484999997675ff1415611ddb5773e8b2989276e2ca8fdea2268e3551b2b4b24189506001600160a01b03166354f0f7d56040518163ffffffff1660e01b815260040160206040518083038186803b1580156117b757600080fd5b816001600160a01b03166354f0f7d56040518163ffffffff1660e01b815260040160206040518083038186803b158015611e1457600080fd5b505afa925050508015611e3957506040513d6020811015611e3457600080fd5b505160015b611e485760009250505061064e565b925061064e915050565b7f000000000000000000000000000000000000000000000000000000000000000081565b6002546001600160a01b031681565b806001600160a01b0316638da5cb5b6040518163ffffffff1660e01b815260040160206040518083038186803b158015611ebe57600080fd5b505afa158015611ed2573d6000803e3d6000fd5b505050506040513d6020811015611ee857600080fd5b50516001600160a01b0316331480611f6c5750806001600160a01b0316638d97e0436040518163ffffffff1660e01b815260040160206040518083038186803b158015611f3457600080fd5b505afa158015611f48573d6000803e3d6000fd5b505050506040513d6020811015611f5e57600080fd5b50516001600160a01b031633145b611fc1576040517f08c379a000000000000000000000000000000000000000000000000000000000815260040180806020018281038252602a8152602001806121e1602a913960400191505060405180910390fd5b50565b60005b816001600160a01b031663956aae3a6040518163ffffffff1660e01b815260040160206040518083038186803b15801561200057600080fd5b505afa158015612014573d6000803e3d6000fd5b505050506040513d602081101561202a57600080fd5b50518110156121bc576000826001600160a01b0316633a1d5d8e836040518263ffffffff1660e01b81526004018082815260200191505060206040518083038186803b15801561207957600080fd5b505afa15801561208d573d6000803e3d6000fd5b505050506040513d60208110156120a357600080fd5b50516001600160a01b0381166000908152600560205260409020805460ff191660ff871690811790915590915060041415612174578060046000836001600160a01b031663fc0c546a6040518163ffffffff1660e01b815260040160206040518083038186803b15801561211657600080fd5b505afa15801561212a573d6000803e3d6000fd5b505050506040513d602081101561214057600080fd5b50516001600160a01b039081168252602082019290925260400160002080546001600160a01b031916929091169190911790555b8060066000612182846115d7565b6001600160a01b039081168252602082019290925260400160002080546001600160a01b0319169290911691909117905550600101611fc7565b505050565b604051806101000160405280600890602082028036833750919291505056fe4f6e6c7920676f7665726e616e6365206f7220656d657267656e63792063616e2063616c6c2074686973a264697066735822122053430a987e055ff3e4d44e6c42665dc4beddc8361e610b6220d203d4a5d6387f64736f6c63430007060033",
  "devdoc": {
    "author": "Babylon Finance Protocol Abstraction for all the different Curve registries",
    "kind": "dev",
    "methods": {
      "findPoolForCoins(address,address,uint256)": {
        "params": {
          "_fromToken": "Token 1",
          "_i": "Index of the pool to retrieve (if more than one)",
          "_toToken": "Token 2"
        },
        "returns": {
          "_0": "address                Address of the pool"
        }
      },
      "getCoinAddresses(address,bool)": {
        "params": {
          "_getUnderlying": "Whether or not to get the underlying coins"
        },
        "returns": {
          "_0": "address[8]             Addresses of the pool assets. Array of size 8 (filled with 0)"
        }
      },
      "getCoinIndices(address,address,address)": {
        "params": {
          "_fromToken": "Token 1",
          "_pool": "Pool address",
          "_toToken": "Token 2"
        },
        "returns": {
          "_0": "uint256                Index of token 1",
          "_1": "uint256                Index of token 2",
          "_2": "bool                   Whether or not is underlying"
        }
      },
      "getGauge(address)": {
        "params": {
          "_pool": "Pool Address"
        },
        "returns": {
          "_0": "address                Address of the gauge"
        }
      },
      "getLpToken(address)": {
        "params": {
          "_pool": "Pool Address"
        },
        "returns": {
          "_0": "address                Address of the lp token"
        }
      },
      "getNCoins(address)": {
        "params": {
          "_pool": "Pool Address"
        },
        "returns": {
          "_0": "uint256                Number of coins in the pool"
        }
      },
      "getPoolFromLpToken(address)": {
        "params": {
          "_lpToken": "Address of the lp token"
        },
        "returns": {
          "_0": "address                Address of the pool, 0 if it doesn't exist"
        }
      },
      "getUnderlyingAndRate(address,uint256)": {
        "params": {
          "_i": "Asset index",
          "_pool": "Pool Address"
        },
        "returns": {
          "_0": "address                Address of the underlying asset. 0 if none",
          "_1": "uint256                Rate of conversion between the underlying and the asset"
        }
      },
      "getVirtualPriceFromLpToken(address)": {
        "params": {
          "_lpToken": "Lp token Address"
        },
        "returns": {
          "_0": "uint256                Price of the lp token"
        }
      },
      "isMeta(address)": {
        "params": {
          "_pool": "Pool Address"
        },
        "returns": {
          "_0": "bool                Whether the pool is a meta pool or not"
        }
      },
      "isPool(address)": {
        "params": {
          "_poolAddress": "Pool address"
        },
        "returns": {
          "_0": "bool                   Whether or not is underlying"
        }
      }
    },
    "title": "CurveMetaRegistry",
    "version": 1
  },
  "userdoc": {
    "kind": "user",
    "methods": {
      "findPoolForCoins(address,address,uint256)": {
        "notice": "Finds a pool given those tokens and the index _i"
      },
      "getCoinAddresses(address,bool)": {
        "notice": "Gets the coin addresses of a pool"
      },
      "getCoinIndices(address,address,address)": {
        "notice": "Gets the indices of two tokens given a pool address"
      },
      "getGauge(address)": {
        "notice": "Returns the gauge for a given pool address"
      },
      "getLpToken(address)": {
        "notice": "Gets the lp token from a curve pool address"
      },
      "getNCoins(address)": {
        "notice": "Gets the number of coins of a curve pool"
      },
      "getPoolFromLpToken(address)": {
        "notice": "Gets the pool from a curve lp token"
      },
      "getUnderlyingAndRate(address,uint256)": {
        "notice": "Returns the underlying asset and the rate of conversion at the index i"
      },
      "getVirtualPriceFromLpToken(address)": {
        "notice": "Returns the virtual price of an lp token from curve"
      },
      "isMeta(address)": {
        "notice": "Returns whether the pool is a meta pool"
      },
      "isPool(address)": {
        "notice": "Returns whether or not a given address is a curve pool"
      },
      "updateCryptoRegistries()": {
        "notice": "Updates the addresses of the registries themselves"
      },
      "updatePoolsList()": {
        "notice": "Updates the mapping of pools for gas efficiency"
      }
    },
    "version": 1
  },
  "storageLayout": {
    "storage": [
      {
        "astId": 53428,
        "contract": "contracts/registries/CurveMetaRegistry.sol:CurveMetaRegistry",
        "label": "curveRegistry",
        "offset": 0,
        "slot": "0",
        "type": "t_contract(ICurveRegistry)46923"
      },
      {
        "astId": 53430,
        "contract": "contracts/registries/CurveMetaRegistry.sol:CurveMetaRegistry",
        "label": "factoryRegistry",
        "offset": 0,
        "slot": "1",
        "type": "t_contract(IFactoryRegistry)47065"
      },
      {
        "astId": 53432,
        "contract": "contracts/registries/CurveMetaRegistry.sol:CurveMetaRegistry",
        "label": "cryptoRegistry",
        "offset": 0,
        "slot": "2",
        "type": "t_contract(ICryptoRegistry)46634"
      },
      {
        "astId": 53434,
        "contract": "contracts/registries/CurveMetaRegistry.sol:CurveMetaRegistry",
        "label": "cryptoRegistryF",
        "offset": 0,
        "slot": "3",
        "type": "t_contract(ICryptoFactoryRegistry)46542"
      },
      {
        "astId": 53438,
        "contract": "contracts/registries/CurveMetaRegistry.sol:CurveMetaRegistry",
        "label": "cryptoFactoryLpTokenToPools",
        "offset": 0,
        "slot": "4",
        "type": "t_mapping(t_address,t_address)"
      },
      {
        "astId": 53442,
        "contract": "contracts/registries/CurveMetaRegistry.sol:CurveMetaRegistry",
        "label": "poolToRegistry",
        "offset": 0,
        "slot": "5",
        "type": "t_mapping(t_address,t_uint8)"
      },
      {
        "astId": 53447,
        "contract": "contracts/registries/CurveMetaRegistry.sol:CurveMetaRegistry",
        "label": "gaugeToPool",
        "offset": 0,
        "slot": "6",
        "type": "t_mapping(t_address,t_address)"
      }
    ],
    "types": {
      "t_address": {
        "encoding": "inplace",
        "label": "address",
        "numberOfBytes": "20"
      },
      "t_contract(ICryptoFactoryRegistry)46542": {
        "encoding": "inplace",
        "label": "contract ICryptoFactoryRegistry",
        "numberOfBytes": "20"
      },
      "t_contract(ICryptoRegistry)46634": {
        "encoding": "inplace",
        "label": "contract ICryptoRegistry",
        "numberOfBytes": "20"
      },
      "t_contract(ICurveRegistry)46923": {
        "encoding": "inplace",
        "label": "contract ICurveRegistry",
        "numberOfBytes": "20"
      },
      "t_contract(IFactoryRegistry)47065": {
        "encoding": "inplace",
        "label": "contract IFactoryRegistry",
        "numberOfBytes": "20"
      },
      "t_mapping(t_address,t_address)": {
        "encoding": "mapping",
        "key": "t_address",
        "label": "mapping(address => address)",
        "numberOfBytes": "32",
        "value": "t_address"
      },
      "t_mapping(t_address,t_uint8)": {
        "encoding": "mapping",
        "key": "t_address",
        "label": "mapping(address => uint8)",
        "numberOfBytes": "32",
        "value": "t_uint8"
      },
      "t_uint8": {
        "encoding": "inplace",
        "label": "uint8",
        "numberOfBytes": "1"
      }
    }
  }
}