{
  "address": "0x7a9d9E11159759aCFb89db02bb0617Bc372bD2B2",
  "abi": [
    {
      "inputs": [
        {
          "internalType": "contract IBabController",
          "name": "_controller",
          "type": "address"
        },
        {
          "internalType": "contract ICurveMetaRegistry",
          "name": "_curveMetaRegistry",
          "type": "address"
        }
      ],
      "stateMutability": "nonpayable",
      "type": "constructor"
    },
    {
      "inputs": [],
      "name": "controller",
      "outputs": [
        {
          "internalType": "contract IBabController",
          "name": "",
          "type": "address"
        }
      ],
      "stateMutability": "view",
      "type": "function"
    },
    {
      "inputs": [],
      "name": "name",
      "outputs": [
        {
          "internalType": "string",
          "name": "",
          "type": "string"
        }
      ],
      "stateMutability": "view",
      "type": "function"
    },
    {
      "inputs": [
        {
          "internalType": "address",
          "name": "_strategy",
          "type": "address"
        },
        {
          "internalType": "address",
          "name": "_sendToken",
          "type": "address"
        },
        {
          "internalType": "uint256",
          "name": "_sendQuantity",
          "type": "uint256"
        },
        {
          "internalType": "address",
          "name": "_receiveToken",
          "type": "address"
        },
        {
          "internalType": "uint256",
          "name": "_minReceiveQuantity",
          "type": "uint256"
        },
        {
          "internalType": "address",
          "name": "_hopToken",
          "type": "address"
        }
      ],
      "name": "trade",
      "outputs": [],
      "stateMutability": "nonpayable",
      "type": "function"
    },
    {
      "inputs": [
        {
          "internalType": "address",
          "name": "_strategy",
          "type": "address"
        },
        {
          "internalType": "address",
          "name": "_sendToken",
          "type": "address"
        },
        {
          "internalType": "uint256",
          "name": "_sendQuantity",
          "type": "uint256"
        },
        {
          "internalType": "address",
          "name": "_receiveToken",
          "type": "address"
        },
        {
          "internalType": "uint256",
          "name": "_minReceiveQuantity",
          "type": "uint256"
        }
      ],
      "name": "trade",
      "outputs": [],
      "stateMutability": "nonpayable",
      "type": "function"
    }
  ],
  "transactionHash": "0x069fb212eaef933f1a6e1b41e27e302dc26e99ed6a0eff599ef76f207065fc93",
  "args": [
    "0xD4a5b5fcB561dAF3aDF86F8477555B92FBa43b5F",
    "0x2B4A741F5281Ea672b7cc21C6d4B4e63c5d7F2A5"
  ],
  "numDeployments": 2,
  "solcInputHash": "d473d609720c87a45aae96e5ba466dc4",
  "bytecode": "0x60c06040523480156200001157600080fd5b5060405162001ff738038062001ff78339810160408190526200003491620001d7565b60408051808201909152600b81526a63757276655f747261646560a81b60208201528281816001600160a01b038116620000b5576040805162461bcd60e51b815260206004820152601a60248201527f436f6e74726f6c6c6572206d75737420626520646566696e6564000000000000604482015290519081900360640190fd5b8151620000ca9060009060208501906200012b565b5060601b6001600160601b031916608052505060018055506001600160a01b038116620001145760405162461bcd60e51b81526004016200010b9062000215565b60405180910390fd5b60601b6001600160601b03191660a0525062000265565b828054600181600116156101000203166002900490600052602060002090601f016020900481019282620001635760008555620001ae565b82601f106200017e57805160ff1916838001178555620001ae565b82800160010185558215620001ae579182015b82811115620001ae57825182559160200191906001019062000191565b50620001bc929150620001c0565b5090565b5b80821115620001bc5760008155600101620001c1565b60008060408385031215620001ea578182fd5b8251620001f7816200024c565b60208401519092506200020a816200024c565b809150509250929050565b60208082526019908201527f41646472657373206e6565647320746f2062652076616c696400000000000000604082015260600190565b6001600160a01b03811681146200026257600080fd5b50565b60805160601c60a05160601c611d4f620002a86000398061118a52806116dd52806117e452806118d75250806101b7528061029652806103355250611d4f6000f3fe608060405234801561001057600080fd5b506004361061004c5760003560e01c806306fdde0314610051578063f694c75c1461006f578063f77c479114610084578063fa1ca82014610099575b600080fd5b6100596100ac565b6040516100669190611c43565b60405180910390f35b61008261007d366004611b18565b61013a565b005b61008c610294565b6040516100669190611c0a565b6100826100a7366004611abe565b6102b8565b6000805460408051602060026001851615610100026000190190941693909304601f810184900484028201840190925281815292918301828280156101325780601f1061010757610100808354040283529160200191610132565b820191906000526020600020905b81548152906001019060200180831161011557829003601f168201915b505050505081565b60026001541415610192576040805162461bcd60e51b815260206004820152601f60248201527f5265656e7472616e637947756172643a207265656e7472616e742063616c6c00604482015290519081900360640190fd5b6002600155604080516313bc6d4b60e01b815233600482015290516001600160a01b037f000000000000000000000000000000000000000000000000000000000000000016916313bc6d4b916024808301926020929190829003018186803b1580156101fd57600080fd5b505afa158015610211573d6000803e3d6000fd5b505050506040513d602081101561022757600080fd5b505161027a576040805162461bcd60e51b815260206004820152601960248201527f4f6e6c792073797374656d2063616e2063616c6c207468697300000000000000604482015290519081900360640190fd5b610288868686868686610412565b50506001805550505050565b7f000000000000000000000000000000000000000000000000000000000000000081565b60026001541415610310576040805162461bcd60e51b815260206004820152601f60248201527f5265656e7472616e637947756172643a207265656e7472616e742063616c6c00604482015290519081900360640190fd5b6002600155604080516313bc6d4b60e01b815233600482015290516001600160a01b037f000000000000000000000000000000000000000000000000000000000000000016916313bc6d4b916024808301926020929190829003018186803b15801561037b57600080fd5b505afa15801561038f573d6000803e3d6000fd5b505050506040513d60208110156103a557600080fd5b50516103f8576040805162461bcd60e51b815260206004820152601960248201527f4f6e6c792073797374656d2063616e2063616c6c207468697300000000000000604482015290519081900360640190fd5b61040785858585856000610412565b505060018055505050565b6000805460408051602060026001851615610100026000190190941693909304601f81018490048402820184019092528181526104ac928a92859183018282801561049e5780601f106104735761010080835404028352916020019161049e565b820191906000526020600020905b81548152906001019060200180831161048157829003601f168201915b505050505088878988610c99565b90506104b88186610f41565b60008060006104c889888a61105d565b919450925090506001600160a01b038316156107405760006104e984611133565b6001600160a01b03161461058c5783602001516001600160a01b03166397ccdc6061051385611133565b86606001518760c001516040518463ffffffff1660e01b815260040180846001600160a01b03168152602001836001600160a01b031681526020018281526020019350505050600060405180830381600087803b15801561057357600080fd5b505af1158015610587573d6000803e3d6000fd5b505050505b83602001516001600160a01b0316636bc195dd8484846040518463ffffffff1660e01b815260040180846001600160a01b0316815260200183815260200180602001828103825283818151815260200191508051906020019080838360005b838110156106035781810151838201526020016105eb565b50505050905090810190601f1680156106305780820380516001836020036101000a031916815260200191505b50945050505050600060405180830381600087803b15801561065157600080fd5b505af1158015610665573d6000803e3d6000fd5b505050506040513d6000823e601f3d908101601f19168201604052602081101561068e57600080fd5b81019080805160405193929190846401000000008211156106ae57600080fd5b9083019060208201858111156106c357600080fd5b82516401000000008111828201881017156106dd57600080fd5b82525081516020918201929091019080838360005b8381101561070a5781810151838201526020016106f2565b50505050905090810190601f1680156107375780820380516001836020036101000a031916815260200191505b50604052505050505b600080806001600160a01b03881661076f5761076a8d88606001518960c001518a60800151611139565b610788565b6107888d88606001518960c001518a608001518c611335565b919450925090506001600160a01b038316156109e65786602001516001600160a01b03166397ccdc606107ba85611352565b89606001518a60c001516040518463ffffffff1660e01b815260040180846001600160a01b03168152602001836001600160a01b031681526020018281526020019350505050600060405180830381600087803b15801561081a57600080fd5b505af115801561082e573d6000803e3d6000fd5b5050505086602001516001600160a01b0316636bc195dd8484846040518463ffffffff1660e01b815260040180846001600160a01b0316815260200183815260200180602001828103825283818151815260200191508051906020019080838360005b838110156108a9578181015183820152602001610891565b50505050905090810190601f1680156108d65780820380516001836020036101000a031916815260200191505b50945050505050600060405180830381600087803b1580156108f757600080fd5b505af115801561090b573d6000803e3d6000fd5b505050506040513d6000823e601f3d908101601f19168201604052602081101561093457600080fd5b810190808051604051939291908464010000000082111561095457600080fd5b90830190602082018581111561096957600080fd5b825164010000000081118282018810171561098357600080fd5b82525081516020918201929091019080838360005b838110156109b0578181015183820152602001610998565b50505050905090810190601f1680156109dd5780820380516001836020036101000a031916815260200191505b50604052505050505b60006109fa8e6109f58d611355565b61136e565b9050610a078d8c8361143a565b919850965094506001600160a01b03871615610c7f576000610a2888611133565b6001600160a01b031614610acb5787602001516001600160a01b03166397ccdc60610a5289611133565b610a5b8e611355565b846040518463ffffffff1660e01b815260040180846001600160a01b03168152602001836001600160a01b031681526020018281526020019350505050600060405180830381600087803b158015610ab257600080fd5b505af1158015610ac6573d6000803e3d6000fd5b505050505b87602001516001600160a01b0316636bc195dd8888886040518463ffffffff1660e01b815260040180846001600160a01b0316815260200183815260200180602001828103825283818151815260200191508051906020019080838360005b83811015610b42578181015183820152602001610b2a565b50505050905090810190601f168015610b6f5780820380516001836020036101000a031916815260200191505b50945050505050600060405180830381600087803b158015610b9057600080fd5b505af1158015610ba4573d6000803e3d6000fd5b505050506040513d6000823e601f3d908101601f191682016040526020811015610bcd57600080fd5b8101908080516040519392919084640100000000821115610bed57600080fd5b908301906020820185811115610c0257600080fd5b8251640100000000811182820188101715610c1c57600080fd5b82525081516020918201929091019080838360005b83811015610c49578181015183820152602001610c31565b50505050905090810190601f168015610c765780820380516001836020036101000a031916815260200191505b50604052505050505b610c88886114d7565b505050505050505050505050505050565b610ca1611a2b565b610ca9611a2b565b6001600160a01b038816602080830182905260408051630ad7511760e31b815290516356ba88b892600480840193919291829003018186803b158015610cee57600080fd5b505afa158015610d02573d6000803e3d6000fd5b505050506040513d6020811015610d1857600080fd5b50516001600160a01b0390811682526040808301899052878216606084015286821660808401526020838101518251630ad7511760e31b815292519316926356ba88b8926004808201939291829003018186803b158015610d7857600080fd5b505afa158015610d8c573d6000803e3d6000fd5b505050506040513d6020811015610da257600080fd5b5051604080517f18160ddd00000000000000000000000000000000000000000000000000000000815290516001600160a01b03909216916318160ddd91600480820192602092909190829003018186803b158015610dff57600080fd5b505afa158015610e13573d6000803e3d6000fd5b505050506040513d6020811015610e2957600080fd5b505160a082015260c0810184905260e08101839052604080516370a0823160e01b81526001600160a01b038a811660048301529151918816916370a0823191602480820192602092909190829003018186803b158015610e8857600080fd5b505afa158015610e9c573d6000803e3d6000fd5b505050506040513d6020811015610eb257600080fd5b5051610100820152604080516370a0823160e01b81526001600160a01b038a811660048301529151918716916370a0823191602480820192602092909190829003018186803b158015610f0457600080fd5b505afa158015610f18573d6000803e3d6000fd5b505050506040513d6020811015610f2e57600080fd5b5051610120820152979650505050505050565b60008260c0015111610f9a576040805162461bcd60e51b815260206004820152601d60248201527f546f6b656e20746f2073656c6c206d757374206265206e6f6e7a65726f000000604482015290519081900360640190fd5b8082606001516001600160a01b03166370a0823184602001516040518263ffffffff1660e01b815260040180826001600160a01b0316815260200191505060206040518083038186803b158015610ff057600080fd5b505afa158015611004573d6000803e3d6000fd5b505050506040513d602081101561101a57600080fd5b505110156110595760405162461bcd60e51b815260040180806020018281038252602b815260200180611cef602b913960400191505060405180910390fd5b5050565b6000806060600061106e87876116d5565b509150506001600160a01b03811673eeeeeeeeeeeeeeeeeeeeeeeeeeeeeeeeeeeeeeee1415611112576000856040516024016110aa9190611ccd565b60408051601f198184030181529190526020810180516001600160e01b03167f2e1a7d4d0000000000000000000000000000000000000000000000000000000017905273c02aaa39b223fe8d0a0e5c4f27ead9083c756cc2955060009450925061112a915050565b50506040805160208101909152600080825292508291505b93509350939050565b50600090565b6000806060600080600061114d89886116d5565b919450925090506001600160a01b0383166111835760405162461bcd60e51b815260040161117a90611c96565b60405180910390fd5b60008060007f00000000000000000000000000000000000000000000000000000000000000006001600160a01b03166329a0eb858787876040518463ffffffff1660e01b81526004016111d893929190611bc3565b60606040518083038186803b1580156111f057600080fd5b505afa158015611204573d6000803e3d6000fd5b505050506040513d601f19601f820116820180604052508101906112289190611b87565b925092509250600083838d60016040516024016112489493929190611c1e565b60408051601f198184030181529190526020810180516001600160e01b03167f3df0212400000000000000000000000000000000000000000000000000000000179052905081156112f15783838d60016040516024016112ab9493929190611c1e565b60408051601f198184030181529190526020810180516001600160e01b03167fa6417ed60000000000000000000000000000000000000000000000000000000017905290505b866001600160a01b03871673eeeeeeeeeeeeeeeeeeeeeeeeeeeeeeeeeeeeeeee1461131d57600061131f565b8c5b909f909e50909c509a5050505050505050505050565b505060408051602081019091526000808252948594509092509050565b90565b5073eeeeeeeeeeeeeeeeeeeeeeeeeeeeeeeeeeeeeeee90565b60006001600160a01b03821615806113a257506001600160a01b03821673eeeeeeeeeeeeeeeeeeeeeeeeeeeeeeeeeeeeeeee145b156113b857506001600160a01b03821631611434565b816001600160a01b03166370a08231846040518263ffffffff1660e01b815260040180826001600160a01b0316815260200191505060206040518083038186803b15801561140557600080fd5b505afa158015611419573d6000803e3d6000fd5b505050506040513d602081101561142f57600080fd5b505190505b92915050565b6000806060600061144b87876116d5565b925050506001600160a01b03811673eeeeeeeeeeeeeeeeeeeeeeeeeeeeeeeeeeeeeeee14156111125750506040805160048152602481019091526020810180516001600160e01b03167fd0e30db00000000000000000000000000000000000000000000000000000000017905273c02aaa39b223fe8d0a0e5c4f27ead9083c756cc2925083915061112a565b60008061156a83610120015184608001516001600160a01b03166370a0823186602001516040518263ffffffff1660e01b815260040180826001600160a01b0316815260200191505060206040518083038186803b15801561153857600080fd5b505afa15801561154c573d6000803e3d6000fd5b505050506040513d602081101561156257600080fd5b50519061196b565b9050600083606001516001600160a01b03166370a0823185602001516040518263ffffffff1660e01b815260040180826001600160a01b0316815260200191505060206040518083038186803b1580156115c357600080fd5b505afa1580156115d7573d6000803e3d6000fd5b505050506040513d60208110156115ed57600080fd5b5051610100850151909150600090611605908361196b565b60c086015190915061161f90670c7d713b49da000061197b565b811015611673576040805162461bcd60e51b815260206004820152601960248201527f5061727469616c207472616465206e6f7420616c6c6f77656400000000000000604482015290519081900360640190fd5b8460e001518310156116cc576040805162461bcd60e51b815260206004820152601d60248201527f536c6970706167652067726561746572207468616e20616c6c6f776564000000604482015290519081900360640190fd5b50909392505050565b6000806000807f00000000000000000000000000000000000000000000000000000000000000006001600160a01b031663b35084db878760006040518463ffffffff1660e01b815260040161172c93929190611be6565b60206040518083038186803b15801561174457600080fd5b505afa158015611758573d6000803e3d6000fd5b505050506040513d601f19601f8201168201806040525081019061177c9190611aa2565b90506001600160a01b03861673c02aaa39b223fe8d0a0e5c4f27ead9083c756cc21480156117b157506001600160a01b038116155b156118715760405163b35084db60e01b815273eeeeeeeeeeeeeeeeeeeeeeeeeeeeeeeeeeeeeeee96506001600160a01b037f0000000000000000000000000000000000000000000000000000000000000000169063b35084db9061181e9089908990600090600401611be6565b60206040518083038186803b15801561183657600080fd5b505afa15801561184a573d6000803e3d6000fd5b505050506040513d601f19601f8201168201806040525081019061186e9190611aa2565b90505b6001600160a01b03851673c02aaa39b223fe8d0a0e5c4f27ead9083c756cc21480156118a457506001600160a01b038116155b156119645760405163b35084db60e01b815273eeeeeeeeeeeeeeeeeeeeeeeeeeeeeeeeeeeeeeee95506001600160a01b037f0000000000000000000000000000000000000000000000000000000000000000169063b35084db906119119089908990600090600401611be6565b60206040518083038186803b15801561192957600080fd5b505afa15801561193d573d6000803e3d6000fd5b505050506040513d601f19601f820116820180604052508101906119619190611aa2565b90505b9592505050565b8082038281111561143457600080fd5b6000611999670de0b6b3a764000061199385856119a0565b906119c4565b9392505050565b60008215806119bb575050818102818382816119b857fe5b04145b61143457600080fd5b6000808211611a1a576040805162461bcd60e51b815260206004820152601a60248201527f536166654d6174683a206469766973696f6e206279207a65726f000000000000604482015290519081900360640190fd5b818381611a2357fe5b049392505050565b60405180610140016040528060006001600160a01b0316815260200160006001600160a01b031681526020016060815260200160006001600160a01b0316815260200160006001600160a01b0316815260200160008152602001600081526020016000815260200160008152602001600081525090565b600060208284031215611ab3578081fd5b815161199981611cd6565b600080600080600060a08688031215611ad5578081fd5b8535611ae081611cd6565b94506020860135611af081611cd6565b9350604086013592506060860135611b0781611cd6565b949793965091946080013592915050565b60008060008060008060c08789031215611b30578081fd5b8635611b3b81611cd6565b95506020870135611b4b81611cd6565b9450604087013593506060870135611b6281611cd6565b92506080870135915060a0870135611b7981611cd6565b809150509295509295509295565b600080600060608486031215611b9b578283fd5b835192506020840151915060408401518015158114611bb8578182fd5b809150509250925092565b6001600160a01b0393841681529183166020830152909116604082015260600190565b6001600160a01b039384168152919092166020820152604081019190915260600190565b6001600160a01b0391909116815260200190565b600f94850b81529290930b6020830152604082015260ff909116606082015260800190565b6000602080835283518082850152825b81811015611c6f57858101830151858201604001528201611c53565b81811115611c805783604083870101525b50601f01601f1916929092016040019392505050565b6020808252600d908201527f4e6f20637572766520706f6f6c00000000000000000000000000000000000000604082015260600190565b90815260200190565b6001600160a01b0381168114611ceb57600080fd5b5056fe5374726174656779206e6565647320746f206861766520656e6f756768206c697175696420746f6b656e73a264697066735822122062b4544a54fea3e1cfb3c3fc265df79b909bf033823d6517f7f3f891da3b8ab464736f6c63430007060033",
  "devdoc": {
    "author": "Babylon Finance Protocol Curve trade integration",
    "kind": "dev",
    "methods": {
      "constructor": {
        "params": {
          "_controller": "Address of the controller",
          "_curveMetaRegistry": "Address of the curve meta registry"
        }
      },
      "trade(address,address,uint256,address,uint256)": {
        "details": "@param _strategy             Address of the strategy",
        "params": {
          "_minReceiveQuantity": "Min units of wanted token to be received from the exchange",
          "_receiveToken": "Address of the token that will be received from the exchange",
          "_sendQuantity": "Units of reserve asset token sent to the exchange",
          "_sendToken": "Address of the token to be sent to the exchange"
        }
      },
      "trade(address,address,uint256,address,uint256,address)": {
        "details": "@param _strategy             Address of the strategy",
        "params": {
          "_minReceiveQuantity": "Min units of wanted token to be received from the exchange",
          "_receiveToken": "Address of the token that will be received from the exchange",
          "_sendQuantity": "Units of reserve asset token sent to the exchange",
          "_sendToken": "Address of the token to be sent to the exchange"
        }
      }
    },
    "title": "CurveTradeIntegration",
    "version": 1
  },
  "userdoc": {
    "kind": "user",
    "methods": {
      "constructor": {
        "notice": "Creates the integration"
      },
      "trade(address,address,uint256,address,uint256)": {
        "notice": "Executes a trade on a supported DEX."
      },
      "trade(address,address,uint256,address,uint256,address)": {
        "notice": "Executes a trade on a supported DEX."
      }
    },
    "version": 1
  },
  "storageLayout": {
    "storage": [
      {
        "astId": 25782,
        "contract": "contracts/integrations/trade/CurveTradeIntegration.sol:CurveTradeIntegration",
        "label": "name",
        "offset": 0,
        "slot": "0",
        "type": "t_string_storage"
      },
      {
        "astId": 6418,
        "contract": "contracts/integrations/trade/CurveTradeIntegration.sol:CurveTradeIntegration",
        "label": "_status",
        "offset": 0,
        "slot": "1",
        "type": "t_uint256"
      }
    ],
    "types": {
      "t_string_storage": {
        "encoding": "bytes",
        "label": "string",
        "numberOfBytes": "32"
      },
      "t_uint256": {
        "encoding": "inplace",
        "label": "uint256",
        "numberOfBytes": "32"
      }
    }
  }
}