{
  "address": "0x2B4A741F5281Ea672b7cc21C6d4B4e63c5d7F2A5",
  "abi": [
    {
      "inputs": [
        {
          "internalType": "contract IBabController",
          "name": "_controller",
          "type": "address"
        }
      ],
      "stateMutability": "nonpayable",
      "type": "constructor"
    },
    {
      "inputs": [],
      "name": "controller",
      "outputs": [
        {
          "internalType": "contract IBabController",
          "name": "",
          "type": "address"
        }
      ],
      "stateMutability": "view",
      "type": "function"
    },
    {
      "inputs": [
        {
          "internalType": "address",
          "name": "",
          "type": "address"
        }
      ],
      "name": "cryptoFactoryLpTokenToPools",
      "outputs": [
        {
          "internalType": "address",
          "name": "",
          "type": "address"
        }
      ],
      "stateMutability": "view",
      "type": "function"
    },
    {
      "inputs": [],
      "name": "cryptoRegistry",
      "outputs": [
        {
          "internalType": "contract ICryptoRegistry",
          "name": "",
          "type": "address"
        }
      ],
      "stateMutability": "view",
      "type": "function"
    },
    {
      "inputs": [],
      "name": "cryptoRegistryF",
      "outputs": [
        {
          "internalType": "contract ICryptoFactoryRegistry",
          "name": "",
          "type": "address"
        }
      ],
      "stateMutability": "view",
      "type": "function"
    },
    {
      "inputs": [],
      "name": "curveRegistry",
      "outputs": [
        {
          "internalType": "contract ICurveRegistry",
          "name": "",
          "type": "address"
        }
      ],
      "stateMutability": "view",
      "type": "function"
    },
    {
      "inputs": [],
      "name": "factoryRegistry",
      "outputs": [
        {
          "internalType": "contract IFactoryRegistry",
          "name": "",
          "type": "address"
        }
      ],
      "stateMutability": "view",
      "type": "function"
    },
    {
      "inputs": [
        {
          "internalType": "address",
          "name": "_fromToken",
          "type": "address"
        },
        {
          "internalType": "address",
          "name": "_toToken",
          "type": "address"
        },
        {
          "internalType": "uint256",
          "name": "_i",
          "type": "uint256"
        }
      ],
      "name": "findPoolForCoins",
      "outputs": [
        {
          "internalType": "address",
          "name": "",
          "type": "address"
        }
      ],
      "stateMutability": "view",
      "type": "function"
    },
    {
      "inputs": [
        {
          "internalType": "address",
          "name": "_pool",
          "type": "address"
        },
        {
          "internalType": "bool",
          "name": "_getUnderlying",
          "type": "bool"
        }
      ],
      "name": "getCoinAddresses",
      "outputs": [
        {
          "internalType": "address[8]",
          "name": "",
          "type": "address[8]"
        }
      ],
      "stateMutability": "view",
      "type": "function"
    },
    {
      "inputs": [
        {
          "internalType": "address",
          "name": "_pool",
          "type": "address"
        },
        {
          "internalType": "address",
          "name": "_fromToken",
          "type": "address"
        },
        {
          "internalType": "address",
          "name": "_toToken",
          "type": "address"
        }
      ],
      "name": "getCoinIndices",
      "outputs": [
        {
          "internalType": "uint256",
          "name": "",
          "type": "uint256"
        },
        {
          "internalType": "uint256",
          "name": "",
          "type": "uint256"
        },
        {
          "internalType": "bool",
          "name": "",
          "type": "bool"
        }
      ],
      "stateMutability": "view",
      "type": "function"
    },
    {
      "inputs": [
        {
          "internalType": "address",
          "name": "_pool",
          "type": "address"
        }
      ],
      "name": "getLpToken",
      "outputs": [
        {
          "internalType": "address",
          "name": "",
          "type": "address"
        }
      ],
      "stateMutability": "view",
      "type": "function"
    },
    {
      "inputs": [
        {
          "internalType": "address",
          "name": "_pool",
          "type": "address"
        }
      ],
      "name": "getNCoins",
      "outputs": [
        {
          "internalType": "uint256",
          "name": "",
          "type": "uint256"
        }
      ],
      "stateMutability": "view",
      "type": "function"
    },
    {
      "inputs": [
        {
          "internalType": "address",
          "name": "_lpToken",
          "type": "address"
        }
      ],
      "name": "getPoolFromLpToken",
      "outputs": [
        {
          "internalType": "address",
          "name": "",
          "type": "address"
        }
      ],
      "stateMutability": "view",
      "type": "function"
    },
    {
      "inputs": [
        {
          "internalType": "address",
          "name": "_pool",
          "type": "address"
        },
        {
          "internalType": "uint256",
          "name": "_i",
          "type": "uint256"
        }
      ],
      "name": "getUnderlyingAndRate",
      "outputs": [
        {
          "internalType": "address",
          "name": "",
          "type": "address"
        },
        {
          "internalType": "uint256",
          "name": "",
          "type": "uint256"
        }
      ],
      "stateMutability": "view",
      "type": "function"
    },
    {
      "inputs": [
        {
          "internalType": "address",
          "name": "_lpToken",
          "type": "address"
        }
      ],
      "name": "getVirtualPriceFromLpToken",
      "outputs": [
        {
          "internalType": "uint256",
          "name": "",
          "type": "uint256"
        }
      ],
      "stateMutability": "view",
      "type": "function"
    },
    {
      "inputs": [
        {
          "internalType": "address",
          "name": "_pool",
          "type": "address"
        }
      ],
      "name": "isMeta",
      "outputs": [
        {
          "internalType": "bool",
          "name": "",
          "type": "bool"
        }
      ],
      "stateMutability": "view",
      "type": "function"
    },
    {
      "inputs": [
        {
          "internalType": "address",
          "name": "_poolAddress",
          "type": "address"
        }
      ],
      "name": "isPool",
      "outputs": [
        {
          "internalType": "bool",
          "name": "",
          "type": "bool"
        }
      ],
      "stateMutability": "view",
      "type": "function"
    },
    {
      "inputs": [
        {
          "internalType": "address",
          "name": "",
          "type": "address"
        }
      ],
      "name": "poolToRegistry",
      "outputs": [
        {
          "internalType": "uint8",
          "name": "",
          "type": "uint8"
        }
      ],
      "stateMutability": "view",
      "type": "function"
    },
    {
      "inputs": [],
      "name": "updateCryptoRegistries",
      "outputs": [],
      "stateMutability": "nonpayable",
      "type": "function"
    },
    {
      "inputs": [],
      "name": "updatePoolsList",
      "outputs": [],
      "stateMutability": "nonpayable",
      "type": "function"
    }
  ],
  "transactionHash": "0x3364c0bdb8933f2affe8e905d1975407a60e0c7bd4421f2e451840e83dc8797c",
  "args": [
    "0xD4a5b5fcB561dAF3aDF86F8477555B92FBa43b5F"
  ],
  "numDeployments": 1,
  "solcInputHash": "d473d609720c87a45aae96e5ba466dc4",
  "bytecode": "0x60a06040523480156200001157600080fd5b50604051620024ef380380620024ef833981810160405260208110156200003757600080fd5b50516001600160a01b03811662000095576040805162461bcd60e51b815260206004820152601760248201527f436f6e74726f6c6c6572206973206e6f742076616c6964000000000000000000604482015290519081900360640190fd5b6001600160601b0319606082901b166080526040805163a262904b60e01b815290516f22d53366457f9d5e68ec105046fc43839163a262904b916004808301926020929190829003018186803b158015620000ef57600080fd5b505afa15801562000104573d6000803e3d6000fd5b505050506040513d60208110156200011b57600080fd5b5051600080546001600160a01b0319166001600160a01b039092169190911790556040805163124fd3dd60e21b81526003600482015290516f22d53366457f9d5e68ec105046fc43839163493f4f74916024808301926020929190829003018186803b1580156200018b57600080fd5b505afa158015620001a0573d6000803e3d6000fd5b505050506040513d6020811015620001b757600080fd5b5051600180546001600160a01b0319166001600160a01b039092169190911790556040805163124fd3dd60e21b81526005600482015290516f22d53366457f9d5e68ec105046fc43839163493f4f74916024808301926020929190829003018186803b1580156200022757600080fd5b505afa1580156200023c573d6000803e3d6000fd5b505050506040513d60208110156200025357600080fd5b5051600280546001600160a01b0319166001600160a01b039092169190911790556040805163124fd3dd60e21b81526006600482015290516f22d53366457f9d5e68ec105046fc43839163493f4f74916024808301926020929190829003018186803b158015620002c357600080fd5b505afa158015620002d8573d6000803e3d6000fd5b505050506040513d6020811015620002ef57600080fd5b5051600380546001600160a01b0319166001600160a01b0392831617908190556200031e916004911662000373565b60015462000338906002906001600160a01b031662000373565b60025462000352906003906001600160a01b031662000373565b6000546200036c906001906001600160a01b031662000373565b506200053d565b60005b816001600160a01b031663956aae3a6040518163ffffffff1660e01b815260040160206040518083038186803b158015620003b057600080fd5b505afa158015620003c5573d6000803e3d6000fd5b505050506040513d6020811015620003dc57600080fd5b505181101562000538576000826001600160a01b0316633a1d5d8e836040518263ffffffff1660e01b81526004018082815260200191505060206040518083038186803b1580156200042d57600080fd5b505afa15801562000442573d6000803e3d6000fd5b505050506040513d60208110156200045957600080fd5b50516001600160a01b0381166000908152600560205260409020805460ff191660ff8716908117909155909150600414156200052e578060046000836001600160a01b031663fc0c546a6040518163ffffffff1660e01b815260040160206040518083038186803b158015620004ce57600080fd5b505afa158015620004e3573d6000803e3d6000fd5b505050506040513d6020811015620004fa57600080fd5b50516001600160a01b039081168252602082019290925260400160002080546001600160a01b031916929091169190911790555b5060010162000376565b505050565b60805160601c611f8a6200056560003980610a8552806114bd5280611bdd5250611f8a6000f3fe608060405234801561001057600080fd5b50600436106101515760003560e01c80635b16ebb7116100cd578063b35084db11610081578063e39e268211610066578063e39e268214610426578063f77c47911461044c578063fc911e741461045457610151565b8063b35084db146103b8578063c4c09b55146103ee57610151565b806371174f16116100b257806371174f1614610323578063a07952a414610349578063aee466f6146103b057610151565b80635b16ebb71461029a57806364d894d2146102d457610151565b80632abd8a26116101245780633a5e5ceb116101095780633a5e5ceb1461024c5780633bf0c9fb14610256578063476987991461025e57610151565b80632abd8a26146102005780632ae914321461022657610151565b80630d56cc791461015657806324a592331461017a57806327c24a5d146101a057806329a0eb85146101a8575b600080fd5b61015e61045c565b604080516001600160a01b039092168252519081900360200190f35b61015e6004803603602081101561019057600080fd5b50356001600160a01b031661046b565b61015e6105e1565b6101e0600480360360608110156101be57600080fd5b506001600160a01b0381358116916020810135821691604090910135166105f0565b604080519384526020840192909252151582820152519081900360600190f35b61015e6004803603602081101561021657600080fd5b50356001600160a01b03166108bd565b61015e6004803603602081101561023c57600080fd5b50356001600160a01b0316610a65565b610254610a80565b005b61015e610d1b565b6102846004803603602081101561027457600080fd5b50356001600160a01b0316610d2a565b6040805160ff9092168252519081900360200190f35b6102c0600480360360208110156102b057600080fd5b50356001600160a01b0316610d3f565b604080519115158252519081900360200190f35b610300600480360360408110156102ea57600080fd5b506001600160a01b038135169060200135610d5f565b604080516001600160a01b03909316835260208301919091528051918290030190f35b6102c06004803603602081101561033957600080fd5b50356001600160a01b0316610fc2565b6103776004803603604081101561035f57600080fd5b506001600160a01b03813516906020013515156110a2565b604051808261010080838360005b8381101561039d578181015183820152602001610385565b5050505090500191505060405180910390f35b6102546114b8565b61015e600480360360608110156103ce57600080fd5b506001600160a01b0381358116916020810135909116906040013561154a565b6104146004803603602081101561040457600080fd5b50356001600160a01b03166117c1565b60408051918252519081900360200190f35b6104146004803603602081101561043c57600080fd5b50356001600160a01b03166119ec565b61015e611bdb565b61015e611bff565b6003546001600160a01b031681565b6001600160a01b03811660009081526005602052604081205460ff16600214156104965750806105dc565b6001600160a01b038083166000908152600460205260409020541680156104be5790506105dc565b6000546040805163bdf475c360e01b81526001600160a01b0386811660048301529151919092169163bdf475c3916024808301926020929190829003018186803b15801561050b57600080fd5b505afa92505050801561053057506040513d602081101561052b57600080fd5b505160015b61053957610553565b6001600160a01b038116156105515791506105dc9050565b505b6002546040805163bdf475c360e01b81526001600160a01b0386811660048301529151919092169163bdf475c3916024808301926020929190829003018186803b1580156105a057600080fd5b505afa9250505080156105c557506040513d60208110156105c057600080fd5b505160015b6105d35760009150506105dc565b91506105dc9050565b919050565b6000546001600160a01b031681565b6001600160a01b0383166000908152600560205260408120548190819060ff1681808060018414156106c357600080546040805163eb85226d60e01b81526001600160a01b038e811660048301528d811660248301528c81166044830152915184938493169163eb85226d916064808301926060929190829003018186803b15801561067b57600080fd5b505afa15801561068f573d6000803e3d6000fd5b505050506040513d60608110156106a557600080fd5b50805160208201516040909201519750600f90810b96500b93505050505b8360021415610777576001546040805163eb85226d60e01b81526001600160a01b038d811660048301528c811660248301528b8116604483015291516000938493849391169163eb85226d91606480820192606092909190829003018186803b15801561072f57600080fd5b505afa158015610743573d6000803e3d6000fd5b505050506040513d606081101561075957600080fd5b50805160208201516040909201519750600f90810b96500b93505050505b8360031415610812576002546040805163eb85226d60e01b81526001600160a01b038d811660048301528c811660248301528b81166044830152825193169263eb85226d92606480840193919291829003018186803b1580156107d957600080fd5b505afa1580156107ed573d6000803e3d6000fd5b505050506040513d604081101561080357600080fd5b50805160209091015190925090505b83600414156108ad576003546040805163eb85226d60e01b81526001600160a01b038d811660048301528c811660248301528b81166044830152825193169263eb85226d92606480840193919291829003018186803b15801561087457600080fd5b505afa158015610888573d6000803e3d6000fd5b505050506040513d604081101561089e57600080fd5b50805160209091015190925090505b9099909850909650945050505050565b6001600160a01b03811660009081526005602052604081205460ff1660018114156109645760005460408051633795104960e01b81526001600160a01b038681166004830152915191909216916337951049916024808301926020929190829003018186803b15801561092f57600080fd5b505afa158015610943573d6000803e3d6000fd5b505050506040513d602081101561095957600080fd5b505191506105dc9050565b80600314156109ba5760025460408051633795104960e01b81526001600160a01b038681166004830152915191909216916337951049916024808301926020929190829003018186803b15801561092f57600080fd5b80600214156109cc57829150506105dc565b600354604080517f977d91220000000000000000000000000000000000000000000000000000000081526001600160a01b0386811660048301529151919092169163977d9122916024808301926020929190829003018186803b158015610a3257600080fd5b505afa158015610a46573d6000803e3d6000fd5b505050506040513d6020811015610a5c57600080fd5b50519392505050565b6004602052600090815260409020546001600160a01b031681565b610ab27f00000000000000000000000000000000000000000000000000000000000000006001600160a01b0316611c0e565b6f22d53366457f9d5e68ec105046fc43836001600160a01b031663a262904b6040518163ffffffff1660e01b815260040160206040518083038186803b158015610afb57600080fd5b505afa158015610b0f573d6000803e3d6000fd5b505050506040513d6020811015610b2557600080fd5b5051600080546001600160a01b0319166001600160a01b039092169190911790556040805163124fd3dd60e21b81526003600482015290516f22d53366457f9d5e68ec105046fc43839163493f4f74916024808301926020929190829003018186803b158015610b9457600080fd5b505afa158015610ba8573d6000803e3d6000fd5b505050506040513d6020811015610bbe57600080fd5b5051600180546001600160a01b0319166001600160a01b039092169190911790556040805163124fd3dd60e21b81526005600482015290516f22d53366457f9d5e68ec105046fc43839163493f4f74916024808301926020929190829003018186803b158015610c2d57600080fd5b505afa158015610c41573d6000803e3d6000fd5b505050506040513d6020811015610c5757600080fd5b5051600280546001600160a01b0319166001600160a01b039092169190911790556040805163124fd3dd60e21b81526006600482015290516f22d53366457f9d5e68ec105046fc43839163493f4f74916024808301926020929190829003018186803b158015610cc657600080fd5b505afa158015610cda573d6000803e3d6000fd5b505050506040513d6020811015610cf057600080fd5b5051600380546001600160a01b0319166001600160a01b03909216919091179055610d196114b8565b565b6001546001600160a01b031681565b60056020526000908152604090205460ff1681565b6001600160a01b031660009081526005602052604090205460ff16151590565b6001600160a01b038216600090815260056020526040812054819060ff166001811415610ec2576000546040805163a77576ef60e01b81526001600160a01b0388811660048301529151919092169163a77576ef91602480830192610100929190829003018186803b158015610dd457600080fd5b505afa158015610de8573d6000803e3d6000fd5b505050506040513d601f19601f82011682018060405250610100811015610e0e57600080fd5b508460088110610e1a57fe5b60200201516000546040805163674cf22d60e11b81526001600160a01b0389811660048301529151919092169163ce99e45a91602480830192610100929190829003018186803b158015610e6d57600080fd5b505afa158015610e81573d6000803e3d6000fd5b505050506040513d601f19601f82011682018060405250610100811015610ea757600080fd5b508560088110610eb357fe5b60200201519250925050610fbb565b8060021415610fb2576001546040805163a77576ef60e01b81526001600160a01b0388811660048301529151919092169163a77576ef91602480830192610100929190829003018186803b158015610f1957600080fd5b505afa158015610f2d573d6000803e3d6000fd5b505050506040513d601f19601f82011682018060405250610100811015610f5357600080fd5b508460088110610f5f57fe5b60200201516001546040805163674cf22d60e11b81526001600160a01b0389811660048301529151919092169163ce99e45a91602480830192610100929190829003018186803b158015610e6d57600080fd5b60008092509250505b9250929050565b6001600160a01b03811660009081526005602052604081205460ff1660018114801590610ff0575080600214155b15610fff5760009150506105dc565b8060011415611055576000546040805163e4d332a960e01b81526001600160a01b0386811660048301529151919092169163e4d332a9916024808301926020929190829003018186803b15801561092f57600080fd5b6001546040805163e4d332a960e01b81526001600160a01b0386811660048301529151919092169163e4d332a9916024808301926020929190829003018186803b158015610a3257600080fd5b6110aa611f0b565b6001600160a01b03831660009081526005602052604090205460ff168215611216578060011415611167576000546040805163a77576ef60e01b81526001600160a01b0387811660048301529151919092169163a77576ef91602480830192610100929190829003018186803b15801561112357600080fd5b505afa158015611137573d6000803e3d6000fd5b505050506040513d601f19601f8201168201806040525061010081101561115d57600080fd5b5091506114b29050565b8060021415611208576001546040805163a77576ef60e01b81526001600160a01b0387811660048301529151919092169163a77576ef91602480830192610100929190829003018186803b1580156111be57600080fd5b505afa9250505080156111f257506040513d601f19601f820116820180604052506101008110156111ee57600080fd5b5060015b6111ff5760009250611208565b91506114b29050565b600281111561121657600092505b826114b05780600114156112725760005460408051639ac90d3d60e01b81526001600160a01b03878116600483015291519190921691639ac90d3d91602480830192610100929190829003018186803b15801561112357600080fd5b806002141561136f5760015460408051639ac90d3d60e01b81526001600160a01b03878116600483015291516000939290921691639ac90d3d91602480820192608092909190829003018186803b1580156112cc57600080fd5b505afa1580156112e0573d6000803e3d6000fd5b505050506040513d601f19601f82011682018060405250608081101561130557600080fd5b50604080516101008101825282516001600160a01b039081168252602080850151821690830152838301518116928201929092526060928301519091169181019190915260006080820181905260a0820181905260c0820181905260e082015292506114b2915050565b80600314156113c65760025460408051639ac90d3d60e01b81526001600160a01b03878116600483015291519190921691639ac90d3d91602480830192610100929190829003018186803b15801561112357600080fd5b80600414156114b05760035460408051639ac90d3d60e01b81526001600160a01b03878116600483015282516000949190911692639ac90d3d9260248082019391829003018186803b15801561141b57600080fd5b505afa15801561142f573d6000803e3d6000fd5b505050506040513d601f19601f82011682018060405250604081101561145457600080fd5b50604080516101008101825282516001600160a01b03908116825260209384015116928101929092526000908201819052606082018190526080820181905260a0820181905260c0820181905260e082015292506114b2915050565b505b92915050565b6114ea7f00000000000000000000000000000000000000000000000000000000000000006001600160a01b0316611c0e565b600354611502906004906001600160a01b0316611d4d565b60025461151a906003906001600160a01b0316611d4d565b600154611532906002906001600160a01b0316611d4d565b600054610d19906001906001600160a01b0316611d4d565b6000805460408051636982eb0b60e01b81526001600160a01b038781166004830152868116602483015260448201869052915184939290921691636982eb0b91606480820192602092909190829003018186803b1580156115aa57600080fd5b505afa1580156115be573d6000803e3d6000fd5b505050506040513d60208110156115d457600080fd5b505190506001600160a01b038116156115ee5790506117ba565b60015460408051636982eb0b60e01b81526001600160a01b03888116600483015287811660248301526044820187905291519190921691636982eb0b916064808301926020929190829003018186803b15801561164a57600080fd5b505afa15801561165e573d6000803e3d6000fd5b505050506040513d602081101561167457600080fd5b505190506001600160a01b0381161561168e5790506117ba565b60025460408051636982eb0b60e01b81526001600160a01b03888116600483015287811660248301526044820187905291519190921691636982eb0b916064808301926020929190829003018186803b1580156116ea57600080fd5b505afa1580156116fe573d6000803e3d6000fd5b505050506040513d602081101561171457600080fd5b505190506001600160a01b0381161561172e5790506117ba565b60035460408051636982eb0b60e01b81526001600160a01b03888116600483015287811660248301526044820187905291519190921691636982eb0b916064808301926020929190829003018186803b15801561178a57600080fd5b505afa15801561179e573d6000803e3d6000fd5b505050506040513d60208110156117b457600080fd5b50519150505b9392505050565b6001600160a01b03811660009081526005602052604081205460ff166001811415611868576000546040805163940494f160e01b81526001600160a01b038681166004830152825193169263940494f192602480840193919291829003018186803b15801561182f57600080fd5b505afa158015611843573d6000803e3d6000fd5b505050506040513d601f19601f82011682018060405250604081101561095957600080fd5b806002141561198d576001546040805163940494f160e01b81526001600160a01b0386811660048301529151600093929092169163940494f191602480820192602092909190829003018186803b1580156118c257600080fd5b505afa1580156118d6573d6000803e3d6000fd5b505050506040513d60208110156118ec57600080fd5b50519050806105d357600154604080517feb73f37d0000000000000000000000000000000000000000000000000000000081526001600160a01b038781166004830152825193169263eb73f37d92602480840193919291829003018186803b15801561195757600080fd5b505afa15801561196b573d6000803e3d6000fd5b505050506040513d604081101561198157600080fd5b505192506105dc915050565b80600314156119e3576002546040805163940494f160e01b81526001600160a01b0386811660048301529151919092169163940494f1916024808301926020929190829003018186803b15801561092f57600080fd5b50600292915050565b6000806119f88361046b565b6001600160a01b03811660009081526005602052604090205490915060ff166001811415611ab057600054604080517fc5b7074a0000000000000000000000000000000000000000000000000000000081526001600160a01b0387811660048301529151919092169163c5b7074a916024808301926020929190829003018186803b158015611a8657600080fd5b505afa158015611a9a573d6000803e3d6000fd5b505050506040513d602081101561198157600080fd5b8060021415611af257816001600160a01b031663bb7b8b806040518163ffffffff1660e01b815260040160206040518083038186803b158015611a8657600080fd5b6001600160a01b03841673c4ad29ba4b3c580e6d59105fff484999997675ff1415611b645773e8b2989276e2ca8fdea2268e3551b2b4b24189506001600160a01b03166354f0f7d56040518163ffffffff1660e01b815260040160206040518083038186803b158015611a8657600080fd5b816001600160a01b03166354f0f7d56040518163ffffffff1660e01b815260040160206040518083038186803b158015611b9d57600080fd5b505afa925050508015611bc257506040513d6020811015611bbd57600080fd5b505160015b611bd1576000925050506105dc565b92506105dc915050565b7f000000000000000000000000000000000000000000000000000000000000000081565b6002546001600160a01b031681565b806001600160a01b0316638da5cb5b6040518163ffffffff1660e01b815260040160206040518083038186803b158015611c4757600080fd5b505afa158015611c5b573d6000803e3d6000fd5b505050506040513d6020811015611c7157600080fd5b50516001600160a01b0316331480611cf55750806001600160a01b0316638d97e0436040518163ffffffff1660e01b815260040160206040518083038186803b158015611cbd57600080fd5b505afa158015611cd1573d6000803e3d6000fd5b505050506040513d6020811015611ce757600080fd5b50516001600160a01b031633145b611d4a576040517f08c379a000000000000000000000000000000000000000000000000000000000815260040180806020018281038252602a815260200180611f2b602a913960400191505060405180910390fd5b50565b60005b816001600160a01b031663956aae3a6040518163ffffffff1660e01b815260040160206040518083038186803b158015611d8957600080fd5b505afa158015611d9d573d6000803e3d6000fd5b505050506040513d6020811015611db357600080fd5b5051811015611f06576000826001600160a01b0316633a1d5d8e836040518263ffffffff1660e01b81526004018082815260200191505060206040518083038186803b158015611e0257600080fd5b505afa158015611e16573d6000803e3d6000fd5b505050506040513d6020811015611e2c57600080fd5b50516001600160a01b0381166000908152600560205260409020805460ff191660ff871690811790915590915060041415611efd578060046000836001600160a01b031663fc0c546a6040518163ffffffff1660e01b815260040160206040518083038186803b158015611e9f57600080fd5b505afa158015611eb3573d6000803e3d6000fd5b505050506040513d6020811015611ec957600080fd5b50516001600160a01b039081168252602082019290925260400160002080546001600160a01b031916929091169190911790555b50600101611d50565b505050565b604051806101000160405280600890602082028036833750919291505056fe4f6e6c7920676f7665726e616e6365206f7220656d657267656e63792063616e2063616c6c2074686973a26469706673582212208af423c04971d7c189cc771bc5d1d4f36b5e152f4ea52773448b9b8985cc204064736f6c63430007060033",
  "devdoc": {
    "author": "Babylon Finance Protocol Abstraction for all the different Curve registries",
    "kind": "dev",
    "methods": {
      "findPoolForCoins(address,address,uint256)": {
        "params": {
          "_fromToken": "Token 1",
          "_i": "Index of the pool to retrieve (if more than one)",
          "_toToken": "Token 2"
        },
        "returns": {
          "_0": "address                Address of the pool"
        }
      },
      "getCoinAddresses(address,bool)": {
        "params": {
          "_getUnderlying": "Whether or not to get the underlying coins"
        },
        "returns": {
          "_0": "address[8]             Addresses of the pool assets. Array of size 8 (filled with 0)"
        }
      },
      "getCoinIndices(address,address,address)": {
        "params": {
          "_fromToken": "Token 1",
          "_pool": "Pool address",
          "_toToken": "Token 2"
        },
        "returns": {
          "_0": "uint256                Index of token 1",
          "_1": "uint256                Index of token 2",
          "_2": "bool                   Whether or not is underlying"
        }
      },
      "getLpToken(address)": {
        "params": {
          "_pool": "Pool Address"
        },
        "returns": {
          "_0": "address                Address of the lp token"
        }
      },
      "getNCoins(address)": {
        "params": {
          "_pool": "Pool Address"
        },
        "returns": {
          "_0": "uint256                Number of coins in the pool"
        }
      },
      "getPoolFromLpToken(address)": {
        "params": {
          "_lpToken": "Address of the lp token"
        },
        "returns": {
          "_0": "address                Address of the pool, 0 if it doesn't exist"
        }
      },
      "getUnderlyingAndRate(address,uint256)": {
        "params": {
          "_i": "Asset index",
          "_pool": "Pool Address"
        },
        "returns": {
          "_0": "address                Address of the underlying asset. 0 if none",
          "_1": "uint256                Rate of conversion between the underlying and the asset"
        }
      },
      "getVirtualPriceFromLpToken(address)": {
        "params": {
          "_lpToken": "Lp token Address"
        },
        "returns": {
          "_0": "uint256                Whether the pool is a meta pool or not"
        }
      },
      "isMeta(address)": {
        "params": {
          "_pool": "Pool Address"
        },
        "returns": {
          "_0": "bool                Whether the pool is a meta pool or not"
        }
      },
      "isPool(address)": {
        "params": {
          "_poolAddress": "Pool address"
        },
        "returns": {
          "_0": "bool                   Whether or not is underlying"
        }
      }
    },
    "title": "CurveMetaRegistry",
    "version": 1
  },
  "userdoc": {
    "kind": "user",
    "methods": {
      "findPoolForCoins(address,address,uint256)": {
        "notice": "Finds a pool given those tokens and the index _i"
      },
      "getCoinAddresses(address,bool)": {
        "notice": "Gets the coin addresses of a pool"
      },
      "getCoinIndices(address,address,address)": {
        "notice": "Gets the indices of two tokens given a pool address"
      },
      "getLpToken(address)": {
        "notice": "Gets the lp token from a curve pool address"
      },
      "getNCoins(address)": {
        "notice": "Gets the number of coins of a curve pool"
      },
      "getPoolFromLpToken(address)": {
        "notice": "Gets the pool from a curve lp token"
      },
      "getUnderlyingAndRate(address,uint256)": {
        "notice": "Returns the underlying asset and the rate of conversion at the index i"
      },
      "getVirtualPriceFromLpToken(address)": {
        "notice": "Returns the virtual price of an lp token from curve"
      },
      "isMeta(address)": {
        "notice": "Returns whether the pool is a meta pool"
      },
      "isPool(address)": {
        "notice": "Returns whether or not a given address is a curve pool"
      },
      "updateCryptoRegistries()": {
        "notice": "Updates the addresses of the registries themselves"
      },
      "updatePoolsList()": {
        "notice": "Updates the mapping of pools for gas efficiency"
      }
    },
    "version": 1
  },
  "storageLayout": {
    "storage": [
      {
        "astId": 12966,
        "contract": "contracts/CurveMetaRegistry.sol:CurveMetaRegistry",
        "label": "curveRegistry",
        "offset": 0,
        "slot": "0",
        "type": "t_contract(ICurveRegistry)44012"
      },
      {
        "astId": 12968,
        "contract": "contracts/CurveMetaRegistry.sol:CurveMetaRegistry",
        "label": "factoryRegistry",
        "offset": 0,
        "slot": "1",
        "type": "t_contract(IFactoryRegistry)44147"
      },
      {
        "astId": 12970,
        "contract": "contracts/CurveMetaRegistry.sol:CurveMetaRegistry",
        "label": "cryptoRegistry",
        "offset": 0,
        "slot": "2",
        "type": "t_contract(ICryptoRegistry)43741"
      },
      {
        "astId": 12972,
        "contract": "contracts/CurveMetaRegistry.sol:CurveMetaRegistry",
        "label": "cryptoRegistryF",
        "offset": 0,
        "slot": "3",
        "type": "t_contract(ICryptoFactoryRegistry)43649"
      },
      {
        "astId": 12976,
        "contract": "contracts/CurveMetaRegistry.sol:CurveMetaRegistry",
        "label": "cryptoFactoryLpTokenToPools",
        "offset": 0,
        "slot": "4",
        "type": "t_mapping(t_address,t_address)"
      },
      {
        "astId": 12980,
        "contract": "contracts/CurveMetaRegistry.sol:CurveMetaRegistry",
        "label": "poolToRegistry",
        "offset": 0,
        "slot": "5",
        "type": "t_mapping(t_address,t_uint8)"
      }
    ],
    "types": {
      "t_address": {
        "encoding": "inplace",
        "label": "address",
        "numberOfBytes": "20"
      },
      "t_contract(ICryptoFactoryRegistry)43649": {
        "encoding": "inplace",
        "label": "contract ICryptoFactoryRegistry",
        "numberOfBytes": "20"
      },
      "t_contract(ICryptoRegistry)43741": {
        "encoding": "inplace",
        "label": "contract ICryptoRegistry",
        "numberOfBytes": "20"
      },
      "t_contract(ICurveRegistry)44012": {
        "encoding": "inplace",
        "label": "contract ICurveRegistry",
        "numberOfBytes": "20"
      },
      "t_contract(IFactoryRegistry)44147": {
        "encoding": "inplace",
        "label": "contract IFactoryRegistry",
        "numberOfBytes": "20"
      },
      "t_mapping(t_address,t_address)": {
        "encoding": "mapping",
        "key": "t_address",
        "label": "mapping(address => address)",
        "numberOfBytes": "32",
        "value": "t_address"
      },
      "t_mapping(t_address,t_uint8)": {
        "encoding": "mapping",
        "key": "t_address",
        "label": "mapping(address => uint8)",
        "numberOfBytes": "32",
        "value": "t_uint8"
      },
      "t_uint8": {
        "encoding": "inplace",
        "label": "uint8",
        "numberOfBytes": "1"
      }
    }
  }
}