{
  "address": "0xEFA11E0C8FB92c303A2b3e22CaA442F5f0355e23",
  "abi": [
    {
      "inputs": [
        {
          "internalType": "contract IBabController",
          "name": "_controller",
          "type": "address"
        }
      ],
      "stateMutability": "nonpayable",
      "type": "constructor"
    },
    {
      "anonymous": false,
      "inputs": [
        {
          "indexed": true,
          "internalType": "address",
          "name": "_strategy",
          "type": "address"
        },
        {
          "indexed": true,
          "internalType": "address",
          "name": "_garden",
          "type": "address"
        },
        {
          "indexed": false,
          "internalType": "address",
          "name": "_pool",
          "type": "address"
        },
        {
          "indexed": false,
          "internalType": "uint256",
          "name": "_poolTokensOut",
          "type": "uint256"
        }
      ],
      "name": "PoolEntered",
      "type": "event"
    },
    {
      "anonymous": false,
      "inputs": [
        {
          "indexed": true,
          "internalType": "address",
          "name": "_strategy",
          "type": "address"
        },
        {
          "indexed": true,
          "internalType": "address",
          "name": "_garden",
          "type": "address"
        },
        {
          "indexed": false,
          "internalType": "address",
          "name": "_pool",
          "type": "address"
        },
        {
          "indexed": false,
          "internalType": "uint256",
          "name": "_poolTokensIn",
          "type": "uint256"
        }
      ],
      "name": "PoolExited",
      "type": "event"
    },
    {
      "inputs": [],
      "name": "controller",
      "outputs": [
        {
          "internalType": "contract IBabController",
          "name": "",
          "type": "address"
        }
      ],
      "stateMutability": "view",
      "type": "function"
    },
    {
      "inputs": [
        {
          "internalType": "address",
          "name": "_strategy",
          "type": "address"
        },
        {
          "internalType": "bytes",
          "name": "_pool",
          "type": "bytes"
        },
        {
          "internalType": "uint256",
          "name": "_poolTokensIn",
          "type": "uint256"
        },
        {
          "internalType": "address[]",
          "name": "_tokensOut",
          "type": "address[]"
        },
        {
          "internalType": "uint256[]",
          "name": "_minAmountsOut",
          "type": "uint256[]"
        }
      ],
      "name": "exitPool",
      "outputs": [],
      "stateMutability": "nonpayable",
      "type": "function"
    },
    {
      "inputs": [
        {
          "internalType": "address",
          "name": "_pool",
          "type": "address"
        }
      ],
      "name": "getLPToken",
      "outputs": [
        {
          "internalType": "address",
          "name": "",
          "type": "address"
        }
      ],
      "stateMutability": "view",
      "type": "function"
    },
    {
      "inputs": [
        {
          "internalType": "address",
          "name": "_pool",
          "type": "address"
        }
      ],
      "name": "getPool",
      "outputs": [
        {
          "internalType": "address",
          "name": "",
          "type": "address"
        }
      ],
      "stateMutability": "view",
      "type": "function"
    },
    {
      "inputs": [
        {
          "internalType": "bytes",
          "name": "_pool",
          "type": "bytes"
        },
        {
          "internalType": "uint256",
          "name": "",
          "type": "uint256"
        }
      ],
      "name": "getPoolMinAmountsOut",
      "outputs": [
        {
          "internalType": "uint256[]",
          "name": "_minAmountsOut",
          "type": "uint256[]"
        }
      ],
      "stateMutability": "view",
      "type": "function"
    },
    {
      "inputs": [
        {
          "internalType": "bytes",
          "name": "_pool",
          "type": "bytes"
        },
        {
          "internalType": "bool",
          "name": "forNAV",
          "type": "bool"
        }
      ],
      "name": "getPoolTokens",
      "outputs": [
        {
          "internalType": "address[]",
          "name": "",
          "type": "address[]"
        }
      ],
      "stateMutability": "view",
      "type": "function"
    },
    {
      "inputs": [
        {
          "internalType": "bytes",
          "name": "",
          "type": "bytes"
        },
        {
          "internalType": "address",
          "name": "",
          "type": "address"
        },
        {
          "internalType": "uint256",
          "name": "",
          "type": "uint256"
        }
      ],
      "name": "getPoolTokensOut",
      "outputs": [
        {
          "internalType": "uint256",
          "name": "",
          "type": "uint256"
        }
      ],
      "stateMutability": "pure",
      "type": "function"
    },
    {
      "inputs": [
        {
          "internalType": "bytes",
          "name": "_pool",
          "type": "bytes"
        }
      ],
      "name": "getPoolWeights",
      "outputs": [
        {
          "internalType": "uint256[]",
          "name": "",
          "type": "uint256[]"
        }
      ],
      "stateMutability": "view",
      "type": "function"
    },
    {
      "inputs": [
        {
          "internalType": "bytes",
          "name": "_pool",
          "type": "bytes"
        }
      ],
      "name": "getPricePerShare",
      "outputs": [
        {
          "internalType": "uint256",
          "name": "",
          "type": "uint256"
        }
      ],
      "stateMutability": "view",
      "type": "function"
    },
    {
      "inputs": [
        {
          "internalType": "bytes",
          "name": "_pool",
          "type": "bytes"
        }
      ],
      "name": "getRewardTokens",
      "outputs": [
        {
          "internalType": "address[]",
          "name": "",
          "type": "address[]"
        }
      ],
      "stateMutability": "view",
      "type": "function"
    },
    {
      "inputs": [
        {
          "internalType": "bytes",
          "name": "_pool",
          "type": "bytes"
        },
        {
          "internalType": "uint256",
          "name": "_i",
          "type": "uint256"
        }
      ],
      "name": "getUnderlyingAndRate",
      "outputs": [
        {
          "internalType": "address",
          "name": "",
          "type": "address"
        },
        {
          "internalType": "uint256",
          "name": "",
          "type": "uint256"
        }
      ],
      "stateMutability": "view",
      "type": "function"
    },
    {
      "inputs": [
        {
          "internalType": "bytes",
          "name": "_pool",
          "type": "bytes"
        }
      ],
      "name": "isPool",
      "outputs": [
        {
          "internalType": "bool",
          "name": "",
          "type": "bool"
        }
      ],
      "stateMutability": "view",
      "type": "function"
    },
    {
      "inputs": [
        {
          "internalType": "address",
          "name": "_strategy",
          "type": "address"
        },
        {
          "internalType": "bytes",
          "name": "_pool",
          "type": "bytes"
        },
        {
          "internalType": "uint256",
          "name": "_poolTokensOut",
          "type": "uint256"
        },
        {
          "internalType": "address[]",
          "name": "_tokensIn",
          "type": "address[]"
        },
        {
          "internalType": "uint256[]",
          "name": "_maxAmountsIn",
          "type": "uint256[]"
        }
      ],
      "name": "joinPool",
      "outputs": [],
      "stateMutability": "nonpayable",
      "type": "function"
    },
    {
      "inputs": [],
      "name": "name",
      "outputs": [
        {
          "internalType": "string",
          "name": "",
          "type": "string"
        }
      ],
      "stateMutability": "view",
      "type": "function"
    },
    {
      "inputs": [
        {
          "internalType": "address",
          "name": "",
          "type": "address"
        }
      ],
      "name": "poolToDeposit",
      "outputs": [
        {
          "internalType": "address",
          "name": "",
          "type": "address"
        }
      ],
      "stateMutability": "view",
      "type": "function"
    },
    {
      "inputs": [
        {
          "internalType": "bytes",
          "name": "",
          "type": "bytes"
        }
      ],
      "name": "poolWeightsByPrice",
      "outputs": [
        {
          "internalType": "bool",
          "name": "",
          "type": "bool"
        }
      ],
      "stateMutability": "view",
      "type": "function"
    },
    {
      "inputs": [
        {
          "internalType": "address",
          "name": "",
          "type": "address"
        }
      ],
      "name": "supportsUnderlyingParam",
      "outputs": [
        {
          "internalType": "bool",
          "name": "",
          "type": "bool"
        }
      ],
      "stateMutability": "view",
      "type": "function"
    },
    {
      "inputs": [
        {
          "internalType": "address",
          "name": "_pool",
          "type": "address"
        }
      ],
      "name": "totalSupply",
      "outputs": [
        {
          "internalType": "uint256",
          "name": "",
          "type": "uint256"
        }
      ],
      "stateMutability": "view",
      "type": "function"
    },
    {
      "inputs": [
        {
          "internalType": "address",
          "name": "",
          "type": "address"
        }
      ],
      "name": "usesUnderlying",
      "outputs": [
        {
          "internalType": "bool",
          "name": "",
          "type": "bool"
        }
      ],
      "stateMutability": "view",
      "type": "function"
    }
  ],
  "transactionHash": "0x6b588c098aa855fd7d8cef3d526d7060ac8c28827cced96b5667b9e9d714be3b",
  "args": [
    "0xD4a5b5fcB561dAF3aDF86F8477555B92FBa43b5F"
  ],
  "solcInputHash": "6c18d48b784e24aab6450b8a717fe7ca",
  "bytecode": "0x60806040523480156200001157600080fd5b5060405162003f4b38038062003f4b833981810160405260208110156200003757600080fd5b505160408051808201909152600a81526918dd5c9d9957dc1bdbdb60b21b60208201528181816001600160a01b038116620000b9576040805162461bcd60e51b815260206004820152601a60248201527f436f6e74726f6c6c6572206d75737420626520646566696e6564000000000000604482015290519081900360640190fd5b8151620000ce90600190602085019062000523565b50600080546001600160a01b0319166001600160a01b0392831617905560016002558416151592506200013d915050576040805162461bcd60e51b815260206004820152600f60248201526e696e76616c6964206164647265737360881b604482015290519081900360640190fd5b507f38fc7b768800a4335eb6d0058d1769a8b6e638cce3c027935b309dd2dc77a0f7805460ff1990811660019081179092557fc93ef16521a94a913cd5d973e74d1efd20cf6b62ad257e1b694bcbaca3a3502d80548216831790557f2f43e821286d0eb0a6a495fb6bae6d14333647ac4fbe14db3dce858e0b39e87c80548216831790557f50ff3b7eaac545657de77206de4cef5a059cc278bdc5e4ae6c8a5d888047523480548216831790557f209232a67cf252242128fd307be3082334473fe38982aa643b60b6c5545bc88980548216831790557f3eafb3a2bead1630f395ad9e8293f4d9734d52ab4c59d67d86d5902999418c1980548216831790557fcbcf0194f1962c90c67be51739fff6f0ae17f58bc28aec5d6ddaaee7e5d307c780548216831790557fcf858af4e91dffe7beee1a4fe00380d266e0c6bf854ae161e4a8982348d0327380548216831790557ff9549814d47e0062c836e2e49f30f5f7e11cc4d21dbf7a7a6f6a0315c92e399d80548216831790557f562fb3757ab1bec3e1ab646f03371eb2d6488da4a0a4a87c8d00673785d2782080548216831790557f9e3085c549c940a937d9df5aa77527a2fbb5c8922f29b891d2a37c297f52c5c280546001600160a01b031990811673eb21209ae4c2c9ff2a86aca31e123764a3b6bc06179091557f371e38fd35f2cbab3241489b78c5dec877159d01b652724d178dc78bb43952638054821673ac795d2c97e60df6a99ff1c814727302fd747a801790557fcbbd5b15413e60259d032af565227af6e6c59bb1663b311f827bbc306242e1788054821673a50ccc70b6a011cffddf45057e396793791872871790557f7b750edd9f2f9e63fa616f346ec6c82693f5728b5b31ec978c987596748ad7178054821673b6c057591e073249f2d9d88ba59a46cfc9b59edb1790557f575a61620848edd8667f6c0d525c88fc200cbcd700c2c338684329e071b220b58054821673bbc81d23ea2c3ec7e56d39296f0cbb648873a5d31790557f413e93e93adcd366de858449d1d736f9932796f510c70aca5f04ce7638c63e1a805490911673fcba3e75865d2d561be8d220616520c171f1285117905560056020527fca5644fcb4a97acb1891cb8cdfc8744d32f8e7781afbb9c5d577e6a74ea1c1ad80548216831790557faf05735a8b3e4ef510ad59f0dfdfc3db28825a76def5d4aa9a7eef25a13d905180548216831790557f997d512b64725eb57616189879d7bea7135897dc1b1d5977c61711762730579d805482168317905573eb16ae0052ed37f479f7fe63849198df1765a7336000527f492161250cf4cfca7f8c4dc7c9174f5a3cd3cad0ef396b0cd70ca272a0190cde80549091169091179055620005cf565b828054600181600116156101000203166002900490600052602060002090601f0160209004810192826200055b5760008555620005a6565b82601f106200057657805160ff1916838001178555620005a6565b82800160010185558215620005a6579182015b82811115620005a657825182559160200191906001019062000589565b50620005b4929150620005b8565b5090565b5b80821115620005b45760008155600101620005b9565b61396c80620005df6000396000f3fe608060405234801561001057600080fd5b50600436106101515760003560e01c8063662952e0116100cd578063c9d5066b11610081578063e022710711610066578063e022710714610941578063e4dc2aa4146109b1578063f77c4791146109d757610151565b8063c9d5066b14610865578063d87517b4146108d357610151565b806396e406e6116100b257806396e406e614610788578063bbe4f6db146107ae578063bc82b61d146107d457610151565b8063662952e0146105f85780637a6731ab1461066657610151565b8063260624931161012457806354f070c11161010957806354f070c114610440578063571a28e614610564578063640921591461058a57610151565b8063260624931461035a5780634fc99ed6146103fe57610151565b806306fdde031461015657806307ec3d92146101d35780631b7e75b71461029157806323dd213014610320575b600080fd5b61015e6109df565b6040805160208082528351818301528351919283929083019185019080838360005b83811015610198578181015183820152602001610180565b50505050905090810190601f1680156101c55780820380516001836020036101000a031916815260200191505b509250505060405180910390f35b610241600480360360208110156101e957600080fd5b810190602081018135600160201b81111561020357600080fd5b82018360208201111561021557600080fd5b803590602001918460018302840111600160201b8311171561023657600080fd5b509092509050610a6c565b60408051602080825283518183015283519192839290830191858101910280838360005b8381101561027d578181015183820152602001610265565b505050509050019250505060405180910390f35b61030e600480360360608110156102a757600080fd5b810190602081018135600160201b8111156102c157600080fd5b8201836020820111156102d357600080fd5b803590602001918460018302840111600160201b831117156102f457600080fd5b91935091506001600160a01b038135169060200135610cc8565b60408051918252519081900360200190f35b6103466004803603602081101561033657600080fd5b50356001600160a01b0316610cd2565b604080519115158252519081900360200190f35b6103466004803603602081101561037057600080fd5b810190602081018135600160201b81111561038a57600080fd5b82018360208201111561039c57600080fd5b803590602001918460018302840111600160201b831117156103bd57600080fd5b91908080601f016020809104026020016040519081016040528093929190818152602001838380828437600092019190915250929550610ce7945050505050565b6104246004803603602081101561041457600080fd5b50356001600160a01b0316610cfa565b604080516001600160a01b039092168252519081900360200190f35b610562600480360360a081101561045657600080fd5b6001600160a01b038235169190810190604081016020820135600160201b81111561048057600080fd5b82018360208201111561049257600080fd5b803590602001918460018302840111600160201b831117156104b357600080fd5b91939092823592604081019060200135600160201b8111156104d457600080fd5b8201836020820111156104e657600080fd5b803590602001918460208302840111600160201b8311171561050757600080fd5b919390929091602081019035600160201b81111561052457600080fd5b82018360208201111561053657600080fd5b803590602001918460208302840111600160201b8311171561055757600080fd5b509092509050610d05565b005b6103466004803603602081101561057a57600080fd5b50356001600160a01b0316611168565b610346600480360360208110156105a057600080fd5b810190602081018135600160201b8111156105ba57600080fd5b8201836020820111156105cc57600080fd5b803590602001918460018302840111600160201b831117156105ed57600080fd5b50909250905061117d565b61030e6004803603602081101561060e57600080fd5b810190602081018135600160201b81111561062857600080fd5b82018360208201111561063a57600080fd5b803590602001918460018302840111600160201b8311171561065b57600080fd5b509092509050611185565b610562600480360360a081101561067c57600080fd5b6001600160a01b038235169190810190604081016020820135600160201b8111156106a657600080fd5b8201836020820111156106b857600080fd5b803590602001918460018302840111600160201b831117156106d957600080fd5b91939092823592604081019060200135600160201b8111156106fa57600080fd5b82018360208201111561070c57600080fd5b803590602001918460208302840111600160201b8311171561072d57600080fd5b919390929091602081019035600160201b81111561074a57600080fd5b82018360208201111561075c57600080fd5b803590602001918460208302840111600160201b8311171561077d57600080fd5b509092509050611198565b6104246004803603602081101561079e57600080fd5b50356001600160a01b0316611708565b610424600480360360208110156107c457600080fd5b50356001600160a01b0316611723565b610842600480360360408110156107ea57600080fd5b810190602081018135600160201b81111561080457600080fd5b82018360208201111561081657600080fd5b803590602001918460018302840111600160201b8311171561083757600080fd5b91935091503561172e565b604080516001600160a01b03909316835260208301919091528051918290030190f35b6102416004803603604081101561087b57600080fd5b810190602081018135600160201b81111561089557600080fd5b8201836020820111156108a757600080fd5b803590602001918460018302840111600160201b831117156108c857600080fd5b919350915035611748565b610241600480360360208110156108e957600080fd5b810190602081018135600160201b81111561090357600080fd5b82018360208201111561091557600080fd5b803590602001918460018302840111600160201b8311171561093657600080fd5b5090925090506117ae565b6102416004803603604081101561095757600080fd5b810190602081018135600160201b81111561097157600080fd5b82018360208201111561098357600080fd5b803590602001918460018302840111600160201b831117156109a457600080fd5b91935091503515156117cf565b61030e600480360360208110156109c757600080fd5b50356001600160a01b0316611a5b565b610424611a66565b60018054604080516020600284861615610100026000190190941693909304601f81018490048402820184019092528181529291830182828015610a645780601f10610a3957610100808354040283529160200191610a64565b820191906000526020600020905b815481529060010190602001808311610a4757829003601f168201915b505050505081565b60606000610a7a8484611a75565b90506000610a8a858560006117cf565b90506000610a9783611a99565b67ffffffffffffffff81118015610aad57600080fd5b50604051908082528060200260200182016040528015610ad7578160200160208202803683370190505b5090506001600160a01b03831673d51a44d3fae010294c616388b506acda1bfaae461415610b5857600081600081518110610b0e57fe5b602002602001018181525050600081600181518110610b2957fe5b602002602001018181525050670de0b6b3a764000081600281518110610b4b57fe5b6020026020010181815250505b60006f22d53366457f9d5e68ec105046fc43836001600160a01b031663a262904b6040518163ffffffff1660e01b815260040160206040518083038186803b158015610ba357600080fd5b505afa158015610bb7573d6000803e3d6000fd5b505050506040513d6020811015610bcd57600080fd5b50516040805163e4d332a960e01b81526001600160a01b03878116600483015291519293509083169163e4d332a991602480820192602092909190829003018186803b158015610c1c57600080fd5b505afa158015610c30573d6000803e3d6000fd5b505050506040513d6020811015610c4657600080fd5b505115610c7457670de0b6b3a764000082600081518110610c6357fe5b602002602001018181525050610cbc565b60005b83518160ff161015610cba578351610c9890670de0b6b3a764000090611bb5565b838260ff1681518110610ca757fe5b6020908102919091010152600101610c77565b505b50925050505b92915050565b6001949350505050565b60046020526000908152604090205460ff1681565b6000610cf282611c1c565b90505b919050565b6000610cf282611d49565b600280541415610d5c576040805162461bcd60e51b815260206004820152601f60248201527f5265656e7472616e637947756172643a207265656e7472616e742063616c6c00604482015290519081900360640190fd5b60028055600054604080516313bc6d4b60e01b815233600482015290516001600160a01b03909216916313bc6d4b91602480820192602092909190829003018186803b158015610dab57600080fd5b505afa158015610dbf573d6000803e3d6000fd5b505050506040513d6020811015610dd557600080fd5b5051610e28576040805162461bcd60e51b815260206004820152601960248201527f4f6e6c792073797374656d2063616e2063616c6c207468697300000000000000604482015290519081900360640190fd5b6000610e348888611a75565b90506000610e488a8a8a8a8a8a8a8a611e51565b9050610e5381612035565b80602001516001600160a01b03166397ccdc60610e708b8b612120565b83606001518a6040518463ffffffff1660e01b815260040180846001600160a01b03168152602001836001600160a01b031681526020018281526020019350505050600060405180830381600087803b158015610ecc57600080fd5b505af1158015610ee0573d6000803e3d6000fd5b505050506000806000610f308d8d8d8080601f0160208091040260200160405190810160405280939291908181526020018383808284376000920191909152508f92508e91508d90508c8c612172565b92509250925083602001516001600160a01b0316636bc195dd8484846040518463ffffffff1660e01b815260040180846001600160a01b0316815260200183815260200180602001828103825283818151815260200191508051906020019080838360005b83811015610fad578181015183820152602001610f95565b50505050905090810190601f168015610fda5780820380516001836020036101000a031916815260200191505b50945050505050600060405180830381600087803b158015610ffb57600080fd5b505af115801561100f573d6000803e3d6000fd5b505050506040513d6000823e601f3d908101601f19168201604052602081101561103857600080fd5b8101908080516040519392919084600160201b82111561105757600080fd5b90830190602082018581111561106c57600080fd5b8251600160201b81118282018810171561108557600080fd5b82525081516020918201929091019080838360005b838110156110b257818101518382015260200161109a565b50505050905090810190601f1680156110df5780820380516001836020036101000a031916815260200191505b50604052505050506110f0846122a4565b83600001516001600160a01b031684602001516001600160a01b03167f7659e40cf608296ce5aa9eff9c80adc7a49cb481173fc4e302e3983827b042df878d60405180836001600160a01b031681526020018281526020019250505060405180910390a3505060016002555050505050505050505050565b60056020526000908152604090205460ff1681565b600092915050565b6000611191838361117d565b9392505050565b6002805414156111ef576040805162461bcd60e51b815260206004820152601f60248201527f5265656e7472616e637947756172643a207265656e7472616e742063616c6c00604482015290519081900360640190fd5b60028055600054604080516313bc6d4b60e01b815233600482015290516001600160a01b03909216916313bc6d4b91602480820192602092909190829003018186803b15801561123e57600080fd5b505afa158015611252573d6000803e3d6000fd5b505050506040513d602081101561126857600080fd5b50516112bb576040805162461bcd60e51b815260206004820152601960248201527f4f6e6c792073797374656d2063616e2063616c6c207468697300000000000000604482015290519081900360640190fd5b60006112cd8989898989898989611e51565b90506112d88161236c565b60006112e48989611a75565b905060005b858110156114265760008787838181106112ff57fe5b905060200201356001600160a01b03166001600160a01b03161415801561135e575073eeeeeeeeeeeeeeeeeeeeeeeeeeeeeeeeeeeeeeee87878381811061134257fe5b905060200201356001600160a01b03166001600160a01b031614155b1561141e5782602001516001600160a01b03166397ccdc606113808c8c612120565b89898581811061138c57fe5b905060200201356001600160a01b03168888868181106113a857fe5b905060200201356040518463ffffffff1660e01b815260040180846001600160a01b03168152602001836001600160a01b031681526020018281526020019350505050600060405180830381600087803b15801561140557600080fd5b505af1158015611419573d6000803e3d6000fd5b505050505b6001016112e9565b50600080600061143c8d8d8d8d8d8d8d8d61240d565b92509250925084602001516001600160a01b0316636bc195dd8484846040518463ffffffff1660e01b815260040180846001600160a01b0316815260200183815260200180602001828103825283818151815260200191508051906020019080838360005b838110156114b95781810151838201526020016114a1565b50505050905090810190601f1680156114e65780820380516001836020036101000a031916815260200191505b50945050505050600060405180830381600087803b15801561150757600080fd5b505af115801561151b573d6000803e3d6000fd5b505050506040513d6000823e601f3d908101601f19168201604052602081101561154457600080fd5b8101908080516040519392919084600160201b82111561156357600080fd5b90830190602082018581111561157857600080fd5b8251600160201b81118282018810171561159157600080fd5b82525081516020918201929091019080838360005b838110156115be5781810151838201526020016115a6565b50505050905090810190601f1680156115eb5780820380516001836020036101000a031916815260200191505b50604052505050506116828560c0015186606001516001600160a01b03166370a0823188602001516040518263ffffffff1660e01b815260040180826001600160a01b0316815260200191505060206040518083038186803b15801561165057600080fd5b505afa158015611664573d6000803e3d6000fd5b505050506040513d602081101561167a57600080fd5b50519061252c565b60a08601526116908561253c565b84600001516001600160a01b031685602001516001600160a01b03167fe5ca6288535c5c6c2462c912b4033eade15b80926717896a2d58a2defdeb9128868d60405180836001600160a01b031681526020018281526020019250505060405180910390a3505060016002555050505050505050505050565b6003602052600090815260409020546001600160a01b031681565b6000610cf2826125fe565b60008061173c858585612601565b91509150935093915050565b606060006117568585611a75565b9050600061176382611a99565b67ffffffffffffffff8111801561177957600080fd5b506040519080825280602002602001820160405280156117a3578160200160208202803683370190505b509695505050505050565b606060006117bc8484611a75565b90506117c7816127cb565b949350505050565b606060006f22d53366457f9d5e68ec105046fc43836001600160a01b031663a262904b6040518163ffffffff1660e01b815260040160206040518083038186803b15801561181c57600080fd5b505afa158015611830573d6000803e3d6000fd5b505050506040513d602081101561184657600080fd5b5051905060006118568686611a75565b9050600061186382611a99565b67ffffffffffffffff8111801561187957600080fd5b506040519080825280602002602001820160405280156118a3578160200160208202803683370190505b5090506118ae6137d4565b6001600160a01b03831660009081526004602052604090205460ff1680156118d4575085155b1561196957836001600160a01b031663a77576ef846040518263ffffffff1660e01b815260040180826001600160a01b031681526020019150506101006040518083038186803b15801561192757600080fd5b505afa15801561193b573d6000803e3d6000fd5b505050506040513d601f19601f8201168201806040525061010081101561196157600080fd5b5090506119f5565b836001600160a01b0316639ac90d3d846040518263ffffffff1660e01b815260040180826001600160a01b031681526020019150506101006040518083038186803b1580156119b757600080fd5b505afa1580156119cb573d6000803e3d6000fd5b505050506040513d601f19601f820116820180604052506101008110156119f157600080fd5b5090505b60005b611a0184611a99565b8160ff161015611a4e57818160ff1660088110611a1a57fe5b6020020151838260ff1681518110611a2e57fe5b6001600160a01b03909216602092830291909101909101526001016119f8565b5090979650505050505050565b6000610cf282612873565b6000546001600160a01b031681565b600082826020811015611a8757600080fd5b50356001600160a01b03169392505050565b6000806f22d53366457f9d5e68ec105046fc43836001600160a01b031663a262904b6040518163ffffffff1660e01b815260040160206040518083038186803b158015611ae557600080fd5b505afa158015611af9573d6000803e3d6000fd5b505050506040513d6020811015611b0f57600080fd5b5051604080517f940494f10000000000000000000000000000000000000000000000000000000081526001600160a01b038681166004830152825193945084169263940494f192602480840193919291829003018186803b158015611b7357600080fd5b505afa158015611b87573d6000803e3d6000fd5b505050506040513d601f19601f820116820180604052506040811015611bac57600080fd5b50519392505050565b6000808211611c0b576040805162461bcd60e51b815260206004820152601a60248201527f536166654d6174683a206469766973696f6e206279207a65726f000000000000604482015290519081900360640190fd5b818381611c1457fe5b049392505050565b600080611c2a83600c612880565b905060006f22d53366457f9d5e68ec105046fc43836001600160a01b031663a262904b6040518163ffffffff1660e01b815260040160206040518083038186803b158015611c7757600080fd5b505afa158015611c8b573d6000803e3d6000fd5b505050506040513d6020811015611ca157600080fd5b5051604080517f55b30b190000000000000000000000000000000000000000000000000000000081526001600160a01b0385811660048301529151929350908316916355b30b1991602480820192602092909190829003018186803b158015611d0957600080fd5b505afa925050508015611d2e57506040513d6020811015611d2957600080fd5b505160015b611d3d57600092505050610cf5565b60019350505050610cf5565b6000806f22d53366457f9d5e68ec105046fc43836001600160a01b031663a262904b6040518163ffffffff1660e01b815260040160206040518083038186803b158015611d9557600080fd5b505afa158015611da9573d6000803e3d6000fd5b505050506040513d6020811015611dbf57600080fd5b5051604080517f379510490000000000000000000000000000000000000000000000000000000081526001600160a01b038681166004830152915192935090831691633795104991602480820192602092909190829003018186803b158015611e2757600080fd5b505afa158015611e3b573d6000803e3d6000fd5b505050506040513d6020811015611bac57600080fd5b611e596137f3565b6000611e658989611a75565b9050611e6f6137f3565b611e7882611d49565b6001600160a01b0390811660608301528b166020808301829052604080517f56ba88b800000000000000000000000000000000000000000000000000000000815290516356ba88b892600480840193919291829003018186803b158015611ede57600080fd5b505afa158015611ef2573d6000803e3d6000fd5b505050506040513d6020811015611f0857600080fd5b50516001600160a01b03168152604080516020601f8c018190048102820181019092528a8152908b908b9081908401838280828437600092019190915250505050604080830191909152606082015181517f70a082310000000000000000000000000000000000000000000000000000000081526001600160a01b038e81166004830152925192909116916370a0823191602480820192602092909190829003018186803b158015611fb957600080fd5b505afa158015611fcd573d6000803e3d6000fd5b505050506040513d6020811015611fe357600080fd5b505160c082015260a081018890526040805160208681028281018201909352868252909187918791829185019084908082843760009201919091525050505060e08201529a9950505050505050505050565b6120428160400151611c1c565b612093576040805162461bcd60e51b815260206004820152601d60248201527f54686520706f6f6c2061646472657373206973206e6f742076616c6964000000604482015290519081900360640190fd5b60008160a00151116120d65760405162461bcd60e51b815260040180806020018281038252602e815260200180613885602e913960400191505060405180910390fd5b8060a001518160c00151101561211d5760405162461bcd60e51b815260040180806020018281038252602d8152602001806138df602d913960400191505060405180910390fd5b50565b60008061212d8484611a75565b6001600160a01b038082166000908152600360205260409020549192501615611191576001600160a01b03908116600090815260036020526040902054169392505050565b600080606060006121848a600c612880565b9050600061219182611a99565b905060008a116121e8576040805162461bcd60e51b815260206004820152601a60248201527f5f706f6f6c546f6b656e73496e2068617320746f206e6f742030000000000000604482015290519081900360640190fd5b6001861161223d576040805162461bcd60e51b815260206004820152601d60248201527f48617320746f2070726f76696465205f6d696e416d6f756e74734f7574000000604482015290519081900360640190fd5b600061224c83838a8a8f61288c565b6001600160a01b03848116600090815260036020526040902054919250161561228e576001600160a01b03928316600090815260036020526040902054909216915b919c60009c50919a509098505050505050505050565b8060a001518160c001510381606001516001600160a01b03166370a0823183602001516040518263ffffffff1660e01b815260040180826001600160a01b0316815260200191505060206040518083038186803b15801561230457600080fd5b505afa158015612318573d6000803e3d6000fd5b505050506040513d602081101561232e57600080fd5b50511461211d5760405162461bcd60e51b815260040180806020018281038252602b81526020018061390c602b913960400191505060405180910390fd5b6123798160400151611c1c565b6123ca576040805162461bcd60e51b815260206004820152601d60248201527f54686520706f6f6c2061646472657373206973206e6f742076616c6964000000604482015290519081900360640190fd5b60008160a001511161211d5760405162461bcd60e51b81526004018080602001828103825260318152602001806138546031913960400191505060405180910390fd5b6000806060600061241e8b8b611a75565b9050600061242b82611a99565b9050600061243c83838a8a8f6130b8565b90506000805b838110156124d75760008c8c8381811061245857fe5b905060200201356001600160a01b03166001600160a01b031614806124b4575073eeeeeeeeeeeeeeeeeeeeeeeeeeeeeeeeeeeeeeee8c8c8381811061249957fe5b905060200201356001600160a01b03166001600160a01b0316145b156124cf578989828181106124c557fe5b9050602002013591505b600101612442565b506001600160a01b038481166000908152600360205260409020541615612517576001600160a01b03938416600090815260036020526040902054909316925b929e929d509b50909950505050505050505050565b80820382811115610cc257600080fd5b8060c0015181606001516001600160a01b03166370a0823183602001516040518263ffffffff1660e01b815260040180826001600160a01b0316815260200191505060206040518083038186803b15801561259657600080fd5b505afa1580156125aa573d6000803e3d6000fd5b505050506040513d60208110156125c057600080fd5b50511161211d5760405162461bcd60e51b815260040180806020018281038252602c8152602001806138b3602c913960400191505060405180910390fd5b90565b60008060006f22d53366457f9d5e68ec105046fc43836001600160a01b031663a262904b6040518163ffffffff1660e01b815260040160206040518083038186803b15801561264f57600080fd5b505afa158015612663573d6000803e3d6000fd5b505050506040513d602081101561267957600080fd5b5051905060006126898787611a75565b9050816001600160a01b031663a77576ef826040518263ffffffff1660e01b815260040180826001600160a01b031681526020019150506101006040518083038186803b1580156126d957600080fd5b505afa1580156126ed573d6000803e3d6000fd5b505050506040513d601f19601f8201168201806040525061010081101561271357600080fd5b50856008811061271f57fe5b6020020151826001600160a01b031663ce99e45a836040518263ffffffff1660e01b815260040180826001600160a01b031681526020019150506101006040518083038186803b15801561277257600080fd5b505afa158015612786573d6000803e3d6000fd5b505050506040513d601f19601f820116820180604052506101008110156127ac57600080fd5b5086600881106127b857fe5b6020020151935093505050935093915050565b6040805160028082526060808301845292600092919060208301908036833701905050905073d533a949740bb3306d119cc777fa900ba034cd528160008151811061281257fe5b60200260200101906001600160a01b031690816001600160a01b031681525050734e3fbd56cd56c3e72c1403e103b45db9da5b9d2b8160018151811061285457fe5b6001600160a01b03909216602092830291909101909101529050919050565b50670de0b6b3a764000090565b60006111918383613760565b606060006f22d53366457f9d5e68ec105046fc43836001600160a01b031663a262904b6040518163ffffffff1660e01b815260040160206040518083038186803b1580156128d957600080fd5b505afa1580156128ed573d6000803e3d6000fd5b505050506040513d602081101561290357600080fd5b50516040805163e4d332a960e01b81526001600160a01b038a8116600483015291519293509083169163e4d332a991602480820192602092909190829003018186803b15801561295257600080fd5b505afa158015612966573d6000803e3d6000fd5b505050506040513d602081101561297c57600080fd5b505115612a0a578260008686600081811061299357fe5b604080516024810196909652600f9490940b604486015260209081029290920135606480860191909152835180860390910181526084909401909252820180516001600160e01b03167f1a4d01d2000000000000000000000000000000000000000000000000000000001790525091506130af9050565b8560021415612b67576001600160a01b03871660009081526005602052604090205460ff1615612ad1578285856000818110612a4257fe5b9050602002013586866001818110612a5657fe5b60408051602481019690965260448601949094526020908102929092013560648501525060016084808501919091528251808503909101815260a4909301909152810180516001600160e01b03167f269b55810000000000000000000000000000000000000000000000000000000017905291506130af9050565b8285856000818110612adf57fe5b9050602002013586866001818110612af357fe5b604080516024810196909652604486019490945260209081029290920135606480860191909152835180860390910181526084909401909252820180516001600160e01b03167f5b36389c000000000000000000000000000000000000000000000000000000001790525091506130af9050565b8560031415612cf6576001600160a01b03871660009081526005602052604090205460ff1615612c47578285856000818110612b9f57fe5b9050602002013586866001818110612bb357fe5b9050602002013587876002818110612bc757fe5b6040805160248101979097526044870195909552606486019390935250602091820201356084840152600160a4808501919091528251808503909101815260c4909301909152810180516001600160e01b03167ffce647360000000000000000000000000000000000000000000000000000000017905291506130af9050565b8285856000818110612c5557fe5b9050602002013586866001818110612c6957fe5b9050602002013587876002818110612c7d57fe5b6040805160248101979097526044870195909552606486019390935250602091820201356084808501919091528251808503909101815260a4909301909152810180516001600160e01b03167fecb586a50000000000000000000000000000000000000000000000000000000017905291506130af9050565b8560041415612ebd576001600160a01b03871660009081526005602052604090205460ff1615612df2578285856000818110612d2e57fe5b9050602002013586866001818110612d4257fe5b9050602002013587876002818110612d5657fe5b9050602002013588886003818110612d6a57fe5b604080516024810198909852604488019690965260648701949094525060848501919091526020918202013560a4840152600160c4808501919091528251808503909101815260e4909301909152810180516001600160e01b03167fa69298950000000000000000000000000000000000000000000000000000000017905291506130af9050565b8285856000818110612e0057fe5b9050602002013586866001818110612e1457fe5b9050602002013587876002818110612e2857fe5b9050602002013588886003818110612e3c57fe5b604080516024810198909852604488019690965260648701949094525060848501919091526020918202013560a4808501919091528251808503909101815260c4909301909152810180516001600160e01b03167f7d49d8750000000000000000000000000000000000000000000000000000000017905291506130af9050565b856005141561309d576001600160a01b03871660009081526005602052604090205460ff1615612fb9578285856000818110612ef557fe5b9050602002013586866001818110612f0957fe5b9050602002013587876003818110612f1d57fe5b9050602002013588886004818110612f3157fe5b604080516024810198909852604488019690965260648701949094525060848501919091526020918202013560a4840152600160c4808501919091528251808503909101815260e4909301909152810180516001600160e01b03167fcbfe789f0000000000000000000000000000000000000000000000000000000017905291506130af9050565b8285856000818110612fc757fe5b9050602002013586866001818110612fdb57fe5b9050602002013587876002818110612fef57fe5b905060200201358888600381811061300357fe5b905060200201358989600481811061301757fe5b6040805160248101999099526044890197909752606488019590955250608486019290925260a48501526020918202013560c4808501919091528251808503909101815260e4909301909152810180516001600160e01b03167fe3bff5ce0000000000000000000000000000000000000000000000000000000017905291506130af9050565b50506040805160208101909152600081525b95945050505050565b6060846002141561320c576001600160a01b03861660009081526005602052604090205460ff161561317d57838360008181106130f157fe5b905060200201358484600181811061310557fe5b6040805160248101959095526020918202939093013560448501526064840186905260016084808601919091528351808603909101815260a490940190925250810180516001600160e01b03167fee22be230000000000000000000000000000000000000000000000000000000017905290506130af565b8383600081811061318a57fe5b905060200201358484600181811061319e57fe5b604080516024810195909552602091820293909301356044850152606480850187905283518086039091018152608490940190925250810180516001600160e01b03167f0b4c7e4d0000000000000000000000000000000000000000000000000000000017905290506130af565b8460031415613396576001600160a01b03861660009081526005602052604090205460ff16156132eb578383600081811061324357fe5b905060200201358484600181811061325757fe5b905060200201358585600281811061326b57fe5b60408051602481019690965260448601949094526020908102929092013560648501525060848301859052600160a4808501919091528251808503909101815260c4909301909152810180516001600160e01b03167f2b6e993a0000000000000000000000000000000000000000000000000000000017905290506130af565b838360008181106132f857fe5b905060200201358484600181811061330c57fe5b905060200201358585600281811061332057fe5b60408051602481019690965260448601949094526020908102929092013560648501525060848084018690528251808503909101815260a4909301909152810180516001600160e01b03167f4515cef30000000000000000000000000000000000000000000000000000000017905290506130af565b8460041415613552576001600160a01b03861660009081526005602052604090205460ff161561348e57838360008181106133cd57fe5b90506020020135848460018181106133e157fe5b90506020020135858560028181106133f557fe5b905060200201358686600381811061340957fe5b604080516024810197909752604487019590955260648601939093525060209182020135608484015260a48301859052600160c4808501919091528251808503909101815260e4909301909152810180516001600160e01b03167fdc3a2d810000000000000000000000000000000000000000000000000000000017905290506130af565b8383600081811061349b57fe5b90506020020135848460018181106134af57fe5b90506020020135858560028181106134c357fe5b90506020020135868660038181106134d757fe5b604080516024810197909752604487019590955260648601939093525060209182020135608484015260a48084018690528251808503909101815260c4909301909152810180516001600160e01b03167f029b2f340000000000000000000000000000000000000000000000000000000017905290506130af565b8460051415613747576001600160a01b03861660009081526005602052604090205460ff1615613667578383600081811061358957fe5b905060200201358484600181811061359d57fe5b90506020020135858560028181106135b157fe5b90506020020135868660038181106135c557fe5b90506020020135878760048181106135d957fe5b604080516024810198909852604488019690965260648701949094525060848501919091526020918202013560a484015260c48301859052600160e48085019190915282518085039091018152610104909301909152810180516001600160e01b03167fc25fd5650000000000000000000000000000000000000000000000000000000017905290506130af565b8383600081811061367457fe5b905060200201358484600181811061368857fe5b905060200201358585600281811061369c57fe5b90506020020135868660038181106136b057fe5b90506020020135878760048181106136c457fe5b604080516024810198909852604488019690965260648701949094525060848501919091526020918202013560a484015260c48084018690528251808503909101815260e4909301909152810180516001600160e01b03167f847384990000000000000000000000000000000000000000000000000000000017905290506130af565b5060408051602081019091526000815295945050505050565b600081601401835110156137bb576040805162461bcd60e51b815260206004820152601560248201527f746f416464726573735f6f75744f66426f756e64730000000000000000000000604482015290519081900360640190fd5b5001602001516c01000000000000000000000000900490565b6040518061010001604052806008906020820280368337509192915050565b60405180610100016040528060006001600160a01b0316815260200160006001600160a01b031681526020016060815260200160006001600160a01b0316815260200160008152602001600081526020016000815260200160608152509056fe4d696e20706f6f6c20746f6b656e7320746f2072656365697665206d7573742062652067726561746572207468616e2030506f6f6c20746f6b656e7320746f2065786368616e6765206d7573742062652067726561746572207468616e203054686520737472617465677920646964206e6f7420726563656976652074686520706f6f6c20746f6b656e7354686520737472617465677920646f6573206e6f74206861766520656e6f75676820706f6f6c20746f6b656e7354686520737472617465677920646964206e6f742072657475726e2074686520706f6f6c20746f6b656e73a2646970667358221220604dba7adef0f42c986d799a9f77d822a3d2c19248fa37def423217bec5d17fb64736f6c63430007060033",
  "devdoc": {
    "author": "Babylon Finance Protocol Curve liquidity providing integration",
    "kind": "dev",
    "methods": {
      "constructor": {
        "params": {
          "_controller": "Address of the controller"
        }
      },
      "exitPool(address,bytes,uint256,address[],uint256[])": {
        "params": {
          "_minAmountsOut": "Array of min token quantities to receive from the pool",
          "_pool": "Pool info e.g. PoolId or Address of the pool token to join + metadata",
          "_poolTokensIn": "Pool tokens to exchange for the underlying tokens",
          "_strategy": "Address of the strategy",
          "_tokensOut": "Array of token addresses to withdraw"
        }
      },
      "getLPToken(address)": {
        "params": {
          "_pool": "Address of the pool"
        },
        "returns": {
          "_0": "address                 Address of the LP token"
        }
      },
      "getPool(address)": {
        "params": {
          "_pool": "Address of the maybe pool"
        },
        "returns": {
          "_0": "address                 Address of the pool itself"
        }
      },
      "getUnderlyingAndRate(bytes,uint256)": {
        "params": {
          "_i": "Index of coin in the pool",
          "_pool": "Address of the pool"
        },
        "returns": {
          "_0": "address                 Underlying coin",
          "_1": "uint256                 Rate from coin to underlying"
        }
      },
      "isPool(bytes)": {
        "params": {
          "_pool": "OpData e.g. Pool address to check"
        },
        "returns": {
          "_0": "bool                 True if the address is a pool"
        }
      },
      "joinPool(address,bytes,uint256,address[],uint256[])": {
        "params": {
          "_maxAmountsIn": "Array of max token quantities to pull out from the garden",
          "_pool": "OpData e.g. Address of the pool token to join",
          "_poolTokensOut": "Min amount of pool tokens to receive",
          "_strategy": "Address of the strategy",
          "_tokensIn": "Array of token addresses to deposit"
        }
      },
      "totalSupply(address)": {
        "params": {
          "_pool": "Address of the pool"
        },
        "returns": {
          "_0": "address                 Total supply of the token"
        }
      }
    },
    "title": "CurvePoolIntegration",
    "version": 1
  },
  "userdoc": {
    "kind": "user",
    "methods": {
      "constructor": {
        "notice": "Creates the integration"
      },
      "exitPool(address,bytes,uint256,address[],uint256[])": {
        "notice": "Exits a liquidity pool. Accrue protocol fee (if any)"
      },
      "getLPToken(address)": {
        "notice": "Returns the actual address of the LP token. Different for curve."
      },
      "getPool(address)": {
        "notice": "Gets the underlying pool that holds the internal tokens. Different for curve."
      },
      "getUnderlyingAndRate(bytes,uint256)": {
        "notice": "Returns the underlying coin"
      },
      "isPool(bytes)": {
        "notice": "Checks whether a pool address is valid"
      },
      "joinPool(address,bytes,uint256,address[],uint256[])": {
        "notice": "Joins a pool"
      },
      "totalSupply(address)": {
        "notice": "Returns the total supply of the pool tokens"
      }
    },
    "version": 1
  },
  "storageLayout": {
    "storage": [
      {
        "astId": 21838,
        "contract": "contracts/integrations/pool/CurvePoolIntegration.sol:CurvePoolIntegration",
        "label": "controller",
        "offset": 0,
        "slot": "0",
        "type": "t_contract(IBabController)35369"
      },
      {
        "astId": 21840,
        "contract": "contracts/integrations/pool/CurvePoolIntegration.sol:CurvePoolIntegration",
        "label": "name",
        "offset": 0,
        "slot": "1",
        "type": "t_string_storage"
      },
      {
        "astId": 5975,
        "contract": "contracts/integrations/pool/CurvePoolIntegration.sol:CurvePoolIntegration",
        "label": "_status",
        "offset": 0,
        "slot": "2",
        "type": "t_uint256"
      },
      {
        "astId": 27885,
        "contract": "contracts/integrations/pool/CurvePoolIntegration.sol:CurvePoolIntegration",
        "label": "poolToDeposit",
        "offset": 0,
        "slot": "3",
        "type": "t_mapping(t_address,t_address)"
      },
      {
        "astId": 27889,
        "contract": "contracts/integrations/pool/CurvePoolIntegration.sol:CurvePoolIntegration",
        "label": "usesUnderlying",
        "offset": 0,
        "slot": "4",
        "type": "t_mapping(t_address,t_bool)"
      },
      {
        "astId": 27893,
        "contract": "contracts/integrations/pool/CurvePoolIntegration.sol:CurvePoolIntegration",
        "label": "supportsUnderlyingParam",
        "offset": 0,
        "slot": "5",
        "type": "t_mapping(t_address,t_bool)"
      }
    ],
    "types": {
      "t_address": {
        "encoding": "inplace",
        "label": "address",
        "numberOfBytes": "20"
      },
      "t_bool": {
        "encoding": "inplace",
        "label": "bool",
        "numberOfBytes": "1"
      },
      "t_contract(IBabController)35369": {
        "encoding": "inplace",
        "label": "contract IBabController",
        "numberOfBytes": "20"
      },
      "t_mapping(t_address,t_address)": {
        "encoding": "mapping",
        "key": "t_address",
        "label": "mapping(address => address)",
        "numberOfBytes": "32",
        "value": "t_address"
      },
      "t_mapping(t_address,t_bool)": {
        "encoding": "mapping",
        "key": "t_address",
        "label": "mapping(address => bool)",
        "numberOfBytes": "32",
        "value": "t_bool"
      },
      "t_string_storage": {
        "encoding": "bytes",
        "label": "string",
        "numberOfBytes": "32"
      },
      "t_uint256": {
        "encoding": "inplace",
        "label": "uint256",
        "numberOfBytes": "32"
      }
    }
  }
}