{
  "address": "0x745a51080efDF5C8664A28f150eF3688f97E331e",
  "abi": [
    {
      "inputs": [
        {
          "internalType": "contract IBabController",
          "name": "_controller",
          "type": "address"
        }
      ],
      "stateMutability": "nonpayable",
      "type": "constructor"
    },
    {
      "anonymous": false,
      "inputs": [
        {
          "indexed": true,
          "internalType": "address",
          "name": "_strategy",
          "type": "address"
        },
        {
          "indexed": true,
          "internalType": "address",
          "name": "_garden",
          "type": "address"
        },
        {
          "indexed": false,
          "internalType": "address",
          "name": "_pool",
          "type": "address"
        },
        {
          "indexed": false,
          "internalType": "uint256",
          "name": "_poolTokensOut",
          "type": "uint256"
        }
      ],
      "name": "PoolEntered",
      "type": "event"
    },
    {
      "anonymous": false,
      "inputs": [
        {
          "indexed": true,
          "internalType": "address",
          "name": "_strategy",
          "type": "address"
        },
        {
          "indexed": true,
          "internalType": "address",
          "name": "_garden",
          "type": "address"
        },
        {
          "indexed": false,
          "internalType": "address",
          "name": "_pool",
          "type": "address"
        },
        {
          "indexed": false,
          "internalType": "uint256",
          "name": "_poolTokensIn",
          "type": "uint256"
        }
      ],
      "name": "PoolExited",
      "type": "event"
    },
    {
      "inputs": [],
      "name": "controller",
      "outputs": [
        {
          "internalType": "contract IBabController",
          "name": "",
          "type": "address"
        }
      ],
      "stateMutability": "view",
      "type": "function"
    },
    {
      "inputs": [
        {
          "internalType": "address",
          "name": "_strategy",
          "type": "address"
        },
        {
          "internalType": "bytes",
          "name": "_pool",
          "type": "bytes"
        },
        {
          "internalType": "uint256",
          "name": "_poolTokensIn",
          "type": "uint256"
        },
        {
          "internalType": "address[]",
          "name": "_tokensOut",
          "type": "address[]"
        },
        {
          "internalType": "uint256[]",
          "name": "_minAmountsOut",
          "type": "uint256[]"
        }
      ],
      "name": "exitPool",
      "outputs": [],
      "stateMutability": "nonpayable",
      "type": "function"
    },
    {
      "inputs": [
        {
          "internalType": "address",
          "name": "_pool",
          "type": "address"
        }
      ],
      "name": "getLPToken",
      "outputs": [
        {
          "internalType": "address",
          "name": "",
          "type": "address"
        }
      ],
      "stateMutability": "view",
      "type": "function"
    },
    {
      "inputs": [],
      "name": "getName",
      "outputs": [
        {
          "internalType": "string",
          "name": "",
          "type": "string"
        }
      ],
      "stateMutability": "view",
      "type": "function"
    },
    {
      "inputs": [
        {
          "internalType": "address",
          "name": "_pool",
          "type": "address"
        }
      ],
      "name": "getPool",
      "outputs": [
        {
          "internalType": "address",
          "name": "",
          "type": "address"
        }
      ],
      "stateMutability": "view",
      "type": "function"
    },
    {
      "inputs": [
        {
          "internalType": "bytes",
          "name": "_pool",
          "type": "bytes"
        },
        {
          "internalType": "uint256",
          "name": "",
          "type": "uint256"
        }
      ],
      "name": "getPoolMinAmountsOut",
      "outputs": [
        {
          "internalType": "uint256[]",
          "name": "_minAmountsOut",
          "type": "uint256[]"
        }
      ],
      "stateMutability": "view",
      "type": "function"
    },
    {
      "inputs": [
        {
          "internalType": "bytes",
          "name": "_pool",
          "type": "bytes"
        },
        {
          "internalType": "bool",
          "name": "forNAV",
          "type": "bool"
        }
      ],
      "name": "getPoolTokens",
      "outputs": [
        {
          "internalType": "address[]",
          "name": "",
          "type": "address[]"
        }
      ],
      "stateMutability": "view",
      "type": "function"
    },
    {
      "inputs": [
        {
          "internalType": "bytes",
          "name": "",
          "type": "bytes"
        },
        {
          "internalType": "address",
          "name": "",
          "type": "address"
        },
        {
          "internalType": "uint256",
          "name": "",
          "type": "uint256"
        }
      ],
      "name": "getPoolTokensOut",
      "outputs": [
        {
          "internalType": "uint256",
          "name": "",
          "type": "uint256"
        }
      ],
      "stateMutability": "pure",
      "type": "function"
    },
    {
      "inputs": [
        {
          "internalType": "bytes",
          "name": "_pool",
          "type": "bytes"
        }
      ],
      "name": "getPoolWeights",
      "outputs": [
        {
          "internalType": "uint256[]",
          "name": "",
          "type": "uint256[]"
        }
      ],
      "stateMutability": "view",
      "type": "function"
    },
    {
      "inputs": [
        {
          "internalType": "bytes",
          "name": "_pool",
          "type": "bytes"
        }
      ],
      "name": "getRewardTokens",
      "outputs": [
        {
          "internalType": "address[]",
          "name": "",
          "type": "address[]"
        }
      ],
      "stateMutability": "view",
      "type": "function"
    },
    {
      "inputs": [
        {
          "internalType": "bytes",
          "name": "_pool",
          "type": "bytes"
        },
        {
          "internalType": "uint256",
          "name": "_i",
          "type": "uint256"
        }
      ],
      "name": "getUnderlyingAndRate",
      "outputs": [
        {
          "internalType": "address",
          "name": "",
          "type": "address"
        },
        {
          "internalType": "uint256",
          "name": "",
          "type": "uint256"
        }
      ],
      "stateMutability": "view",
      "type": "function"
    },
    {
      "inputs": [
        {
          "internalType": "bytes",
          "name": "_pool",
          "type": "bytes"
        }
      ],
      "name": "isPool",
      "outputs": [
        {
          "internalType": "bool",
          "name": "",
          "type": "bool"
        }
      ],
      "stateMutability": "view",
      "type": "function"
    },
    {
      "inputs": [
        {
          "internalType": "address",
          "name": "_strategy",
          "type": "address"
        },
        {
          "internalType": "bytes",
          "name": "_pool",
          "type": "bytes"
        },
        {
          "internalType": "uint256",
          "name": "_poolTokensOut",
          "type": "uint256"
        },
        {
          "internalType": "address[]",
          "name": "_tokensIn",
          "type": "address[]"
        },
        {
          "internalType": "uint256[]",
          "name": "_maxAmountsIn",
          "type": "uint256[]"
        }
      ],
      "name": "joinPool",
      "outputs": [],
      "stateMutability": "nonpayable",
      "type": "function"
    },
    {
      "inputs": [],
      "name": "name",
      "outputs": [
        {
          "internalType": "string",
          "name": "",
          "type": "string"
        }
      ],
      "stateMutability": "view",
      "type": "function"
    },
    {
      "inputs": [
        {
          "internalType": "address",
          "name": "",
          "type": "address"
        }
      ],
      "name": "poolToDeposit",
      "outputs": [
        {
          "internalType": "address",
          "name": "",
          "type": "address"
        }
      ],
      "stateMutability": "view",
      "type": "function"
    },
    {
      "inputs": [
        {
          "internalType": "address",
          "name": "",
          "type": "address"
        }
      ],
      "name": "supportsUnderlyingParam",
      "outputs": [
        {
          "internalType": "bool",
          "name": "",
          "type": "bool"
        }
      ],
      "stateMutability": "view",
      "type": "function"
    },
    {
      "inputs": [
        {
          "internalType": "address",
          "name": "_pool",
          "type": "address"
        }
      ],
      "name": "totalSupply",
      "outputs": [
        {
          "internalType": "uint256",
          "name": "",
          "type": "uint256"
        }
      ],
      "stateMutability": "view",
      "type": "function"
    },
    {
      "inputs": [
        {
          "internalType": "address",
          "name": "",
          "type": "address"
        }
      ],
      "name": "usesUnderlying",
      "outputs": [
        {
          "internalType": "bool",
          "name": "",
          "type": "bool"
        }
      ],
      "stateMutability": "view",
      "type": "function"
    }
  ],
  "transactionHash": "0xeb99887c567937d4667e7670c095601a47e49ae43ecd0b55bcf41832425c157e",
  "args": [
    "0xD4a5b5fcB561dAF3aDF86F8477555B92FBa43b5F"
  ],
  "solcInputHash": "4f2ede57b38e39518764caf3bdab1569",
  "bytecode": "0x60806040523480156200001157600080fd5b5060405162003c5938038062003c59833981810160405260208110156200003757600080fd5b505160408051808201909152600a81526918dd5c9d9957dc1bdbdb60b21b60208201528181816001600160a01b038116620000b9576040805162461bcd60e51b815260206004820152601a60248201527f436f6e74726f6c6c6572206d75737420626520646566696e6564000000000000604482015290519081900360640190fd5b8151620000ce906001906020850190620004cf565b50600080546001600160a01b039092166001600160a01b0319928316178155600160028190557f38fc7b768800a4335eb6d0058d1769a8b6e638cce3c027935b309dd2dc77a0f7805460ff1990811683179091557fc93ef16521a94a913cd5d973e74d1efd20cf6b62ad257e1b694bcbaca3a3502d80548216831790557f2f43e821286d0eb0a6a495fb6bae6d14333647ac4fbe14db3dce858e0b39e87c80548216831790557f50ff3b7eaac545657de77206de4cef5a059cc278bdc5e4ae6c8a5d888047523480548216831790557f209232a67cf252242128fd307be3082334473fe38982aa643b60b6c5545bc88980548216831790557f3eafb3a2bead1630f395ad9e8293f4d9734d52ab4c59d67d86d5902999418c1980548216831790557fcbcf0194f1962c90c67be51739fff6f0ae17f58bc28aec5d6ddaaee7e5d307c780548216831790557fcf858af4e91dffe7beee1a4fe00380d266e0c6bf854ae161e4a8982348d0327380548216831790557ff9549814d47e0062c836e2e49f30f5f7e11cc4d21dbf7a7a6f6a0315c92e399d80548216831790557f562fb3757ab1bec3e1ab646f03371eb2d6488da4a0a4a87c8d00673785d2782080548216831790557f9e3085c549c940a937d9df5aa77527a2fbb5c8922f29b891d2a37c297f52c5c28054851673eb21209ae4c2c9ff2a86aca31e123764a3b6bc061790557f371e38fd35f2cbab3241489b78c5dec877159d01b652724d178dc78bb43952638054851673ac795d2c97e60df6a99ff1c814727302fd747a801790557fcbbd5b15413e60259d032af565227af6e6c59bb1663b311f827bbc306242e1788054851673a50ccc70b6a011cffddf45057e396793791872871790557f7b750edd9f2f9e63fa616f346ec6c82693f5728b5b31ec978c987596748ad7178054851673b6c057591e073249f2d9d88ba59a46cfc9b59edb1790557f575a61620848edd8667f6c0d525c88fc200cbcd700c2c338684329e071b220b58054851673bbc81d23ea2c3ec7e56d39296f0cbb648873a5d31790557f413e93e93adcd366de858449d1d736f9932796f510c70aca5f04ce7638c63e1a805490941673fcba3e75865d2d561be8d220616520c171f128511790935560056020527fca5644fcb4a97acb1891cb8cdfc8744d32f8e7781afbb9c5d577e6a74ea1c1ad80548416821790557faf05735a8b3e4ef510ad59f0dfdfc3db28825a76def5d4aa9a7eef25a13d905180548416821790557f997d512b64725eb57616189879d7bea7135897dc1b1d5977c61711762730579d805484168217905573eb16ae0052ed37f479f7fe63849198df1765a7339091527f492161250cf4cfca7f8c4dc7c9174f5a3cd3cad0ef396b0cd70ca272a0190cde8054909216179055506200057b92505050565b828054600181600116156101000203166002900490600052602060002090601f01602090048101928262000507576000855562000552565b82601f106200052257805160ff191683800117855562000552565b8280016001018555821562000552579182015b828111156200055257825182559160200191906001019062000535565b506200056092915062000564565b5090565b5b8082111562000560576000815560010162000565565b6136ce806200058b6000396000f3fe608060405234801561001057600080fd5b50600436106101365760003560e01c80637a6731ab116100b2578063c9d5066b11610081578063e022710711610066578063e022710714610852578063e4dc2aa4146108c2578063f77c4791146108e857610136565b8063c9d5066b14610776578063d87517b4146107e457610136565b80637a6731ab1461057757806396e406e614610699578063bbe4f6db146106bf578063bc82b61d146106e557610136565b806323dd2130116101095780634fc99ed6116100ee5780634fc99ed6146103eb57806354f070c11461042d578063571a28e61461055157610136565b806323dd21301461030d578063260624931461034757610136565b806306fdde031461013b57806307ec3d92146101b857806317d7de7c146102765780631b7e75b71461027e575b600080fd5b6101436108f0565b6040805160208082528351818301528351919283929083019185019080838360005b8381101561017d578181015183820152602001610165565b50505050905090810190601f1680156101aa5780820380516001836020036101000a031916815260200191505b509250505060405180910390f35b610226600480360360208110156101ce57600080fd5b810190602081018135600160201b8111156101e857600080fd5b8201836020820111156101fa57600080fd5b803590602001918460018302840111600160201b8311171561021b57600080fd5b50909250905061097d565b60408051602080825283518183015283519192839290830191858101910280838360005b8381101561026257818101518382015260200161024a565b505050509050019250505060405180910390f35b610143610abb565b6102fb6004803603606081101561029457600080fd5b810190602081018135600160201b8111156102ae57600080fd5b8201836020820111156102c057600080fd5b803590602001918460018302840111600160201b831117156102e157600080fd5b91935091506001600160a01b038135169060200135610b50565b60408051918252519081900360200190f35b6103336004803603602081101561032357600080fd5b50356001600160a01b0316610b5a565b604080519115158252519081900360200190f35b6103336004803603602081101561035d57600080fd5b810190602081018135600160201b81111561037757600080fd5b82018360208201111561038957600080fd5b803590602001918460018302840111600160201b831117156103aa57600080fd5b91908080601f016020809104026020016040519081016040528093929190818152602001838380828437600092019190915250929550610b6f945050505050565b6104116004803603602081101561040157600080fd5b50356001600160a01b0316610b82565b604080516001600160a01b039092168252519081900360200190f35b61054f600480360360a081101561044357600080fd5b6001600160a01b038235169190810190604081016020820135600160201b81111561046d57600080fd5b82018360208201111561047f57600080fd5b803590602001918460018302840111600160201b831117156104a057600080fd5b91939092823592604081019060200135600160201b8111156104c157600080fd5b8201836020820111156104d357600080fd5b803590602001918460208302840111600160201b831117156104f457600080fd5b919390929091602081019035600160201b81111561051157600080fd5b82018360208201111561052357600080fd5b803590602001918460208302840111600160201b8311171561054457600080fd5b509092509050610b8d565b005b6103336004803603602081101561056757600080fd5b50356001600160a01b0316610ff0565b61054f600480360360a081101561058d57600080fd5b6001600160a01b038235169190810190604081016020820135600160201b8111156105b757600080fd5b8201836020820111156105c957600080fd5b803590602001918460018302840111600160201b831117156105ea57600080fd5b91939092823592604081019060200135600160201b81111561060b57600080fd5b82018360208201111561061d57600080fd5b803590602001918460208302840111600160201b8311171561063e57600080fd5b919390929091602081019035600160201b81111561065b57600080fd5b82018360208201111561066d57600080fd5b803590602001918460208302840111600160201b8311171561068e57600080fd5b509092509050611005565b610411600480360360208110156106af57600080fd5b50356001600160a01b0316611575565b610411600480360360208110156106d557600080fd5b50356001600160a01b0316611590565b610753600480360360408110156106fb57600080fd5b810190602081018135600160201b81111561071557600080fd5b82018360208201111561072757600080fd5b803590602001918460018302840111600160201b8311171561074857600080fd5b91935091503561159b565b604080516001600160a01b03909316835260208301919091528051918290030190f35b6102266004803603604081101561078c57600080fd5b810190602081018135600160201b8111156107a657600080fd5b8201836020820111156107b857600080fd5b803590602001918460018302840111600160201b831117156107d957600080fd5b9193509150356115b5565b610226600480360360208110156107fa57600080fd5b810190602081018135600160201b81111561081457600080fd5b82018360208201111561082657600080fd5b803590602001918460018302840111600160201b8311171561084757600080fd5b50909250905061161b565b6102266004803603604081101561086857600080fd5b810190602081018135600160201b81111561088257600080fd5b82018360208201111561089457600080fd5b803590602001918460018302840111600160201b831117156108b557600080fd5b919350915035151561163c565b6102fb600480360360208110156108d857600080fd5b50356001600160a01b0316611925565b610411611930565b60018054604080516020600284861615610100026000190190941693909304601f810184900484028201840190925281815292918301828280156109755780601f1061094a57610100808354040283529160200191610975565b820191906000526020600020905b81548152906001019060200180831161095857829003601f168201915b505050505081565b6060600061098b848461193f565b9050600061099b8585600061163c565b905060006109a883611963565b67ffffffffffffffff811180156109be57600080fd5b506040519080825280602002602001820160405280156109e8578160200160208202803683370190505b5090506001600160a01b03831673331af2e331bd619defaa5dac6c038f53fcf9f7851415610a6957600081600081518110610a1f57fe5b602002602001018181525050600081600181518110610a3a57fe5b602002602001018181525050670de0b6b3a764000081600281518110610a5c57fe5b6020026020010181815250505b60005b82518160ff161015610aaf578251610a8d90670de0b6b3a764000090611a7f565b828260ff1681518110610a9c57fe5b6020908102919091010152600101610a6c565b50925050505b92915050565b60018054604080516020601f60026000196101008789161502019095169490940493840181900481028201810190925282815260609390929091830182828015610b465780601f10610b1b57610100808354040283529160200191610b46565b820191906000526020600020905b815481529060010190602001808311610b2957829003601f168201915b5050505050905090565b6001949350505050565b60046020526000908152604090205460ff1681565b6000610b7a82611ae6565b90505b919050565b6000610b7a82611c13565b600280541415610be4576040805162461bcd60e51b815260206004820152601f60248201527f5265656e7472616e637947756172643a207265656e7472616e742063616c6c00604482015290519081900360640190fd5b60028055600054604080516313bc6d4b60e01b815233600482015290516001600160a01b03909216916313bc6d4b91602480820192602092909190829003018186803b158015610c3357600080fd5b505afa158015610c47573d6000803e3d6000fd5b505050506040513d6020811015610c5d57600080fd5b5051610cb0576040805162461bcd60e51b815260206004820152601960248201527f4f6e6c792073797374656d2063616e2063616c6c207468697300000000000000604482015290519081900360640190fd5b6000610cbc888861193f565b90506000610cd08a8a8a8a8a8a8a8a611d1b565b9050610cdb81611eff565b80602001516001600160a01b03166397ccdc60610cf88b8b611fea565b83606001518a6040518463ffffffff1660e01b815260040180846001600160a01b03168152602001836001600160a01b031681526020018281526020019350505050600060405180830381600087803b158015610d5457600080fd5b505af1158015610d68573d6000803e3d6000fd5b505050506000806000610db88d8d8d8080601f0160208091040260200160405190810160405280939291908181526020018383808284376000920191909152508f92508e91508d90508c8c61203d565b92509250925083602001516001600160a01b0316636bc195dd8484846040518463ffffffff1660e01b815260040180846001600160a01b0316815260200183815260200180602001828103825283818151815260200191508051906020019080838360005b83811015610e35578181015183820152602001610e1d565b50505050905090810190601f168015610e625780820380516001836020036101000a031916815260200191505b50945050505050600060405180830381600087803b158015610e8357600080fd5b505af1158015610e97573d6000803e3d6000fd5b505050506040513d6000823e601f3d908101601f191682016040526020811015610ec057600080fd5b8101908080516040519392919084600160201b821115610edf57600080fd5b908301906020820185811115610ef457600080fd5b8251600160201b811182820188101715610f0d57600080fd5b82525081516020918201929091019080838360005b83811015610f3a578181015183820152602001610f22565b50505050905090810190601f168015610f675780820380516001836020036101000a031916815260200191505b5060405250505050610f788461216f565b83600001516001600160a01b031684602001516001600160a01b03167f7659e40cf608296ce5aa9eff9c80adc7a49cb481173fc4e302e3983827b042df878d60405180836001600160a01b031681526020018281526020019250505060405180910390a3505060016002555050505050505050505050565b60056020526000908152604090205460ff1681565b60028054141561105c576040805162461bcd60e51b815260206004820152601f60248201527f5265656e7472616e637947756172643a207265656e7472616e742063616c6c00604482015290519081900360640190fd5b60028055600054604080516313bc6d4b60e01b815233600482015290516001600160a01b03909216916313bc6d4b91602480820192602092909190829003018186803b1580156110ab57600080fd5b505afa1580156110bf573d6000803e3d6000fd5b505050506040513d60208110156110d557600080fd5b5051611128576040805162461bcd60e51b815260206004820152601960248201527f4f6e6c792073797374656d2063616e2063616c6c207468697300000000000000604482015290519081900360640190fd5b600061113a8989898989898989611d1b565b905061114581612237565b6000611151898961193f565b905060005b8581101561129357600087878381811061116c57fe5b905060200201356001600160a01b03166001600160a01b0316141580156111cb575073eeeeeeeeeeeeeeeeeeeeeeeeeeeeeeeeeeeeeeee8787838181106111af57fe5b905060200201356001600160a01b03166001600160a01b031614155b1561128b5782602001516001600160a01b03166397ccdc606111ed8c8c611fea565b8989858181106111f957fe5b905060200201356001600160a01b031688888681811061121557fe5b905060200201356040518463ffffffff1660e01b815260040180846001600160a01b03168152602001836001600160a01b031681526020018281526020019350505050600060405180830381600087803b15801561127257600080fd5b505af1158015611286573d6000803e3d6000fd5b505050505b600101611156565b5060008060006112a98d8d8d8d8d8d8d8d6122d8565b92509250925084602001516001600160a01b0316636bc195dd8484846040518463ffffffff1660e01b815260040180846001600160a01b0316815260200183815260200180602001828103825283818151815260200191508051906020019080838360005b8381101561132657818101518382015260200161130e565b50505050905090810190601f1680156113535780820380516001836020036101000a031916815260200191505b50945050505050600060405180830381600087803b15801561137457600080fd5b505af1158015611388573d6000803e3d6000fd5b505050506040513d6000823e601f3d908101601f1916820160405260208110156113b157600080fd5b8101908080516040519392919084600160201b8211156113d057600080fd5b9083019060208201858111156113e557600080fd5b8251600160201b8111828201881017156113fe57600080fd5b82525081516020918201929091019080838360005b8381101561142b578181015183820152602001611413565b50505050905090810190601f1680156114585780820380516001836020036101000a031916815260200191505b50604052505050506114ef8560c0015186606001516001600160a01b03166370a0823188602001516040518263ffffffff1660e01b815260040180826001600160a01b0316815260200191505060206040518083038186803b1580156114bd57600080fd5b505afa1580156114d1573d6000803e3d6000fd5b505050506040513d60208110156114e757600080fd5b505190612434565b60a08601526114fd85612444565b84600001516001600160a01b031685602001516001600160a01b03167fe5ca6288535c5c6c2462c912b4033eade15b80926717896a2d58a2defdeb9128868d60405180836001600160a01b031681526020018281526020019250505060405180910390a3505060016002555050505050505050505050565b6003602052600090815260409020546001600160a01b031681565b6000610b7a82612506565b6000806115a9858585612509565b91509150935093915050565b606060006115c3858561193f565b905060006115d082611963565b67ffffffffffffffff811180156115e657600080fd5b50604051908082528060200260200182016040528015611610578160200160208202803683370190505b509695505050505050565b60606000611629848461193f565b9050611634816126d3565b949350505050565b606060006f22d53366457f9d5e68ec105046fc43836001600160a01b031663a262904b6040518163ffffffff1660e01b815260040160206040518083038186803b15801561168957600080fd5b505afa15801561169d573d6000803e3d6000fd5b505050506040513d60208110156116b357600080fd5b5051905060006116c3868661193f565b905060006116d082611963565b67ffffffffffffffff811180156116e657600080fd5b50604051908082528060200260200182016040528015611710578160200160208202803683370190505b50905061171b613536565b6001600160a01b03831660009081526004602052604090205460ff168015611741575085155b156117d657836001600160a01b031663a77576ef846040518263ffffffff1660e01b815260040180826001600160a01b031681526020019150506101006040518083038186803b15801561179457600080fd5b505afa1580156117a8573d6000803e3d6000fd5b505050506040513d601f19601f820116820180604052506101008110156117ce57600080fd5b509050611862565b836001600160a01b0316639ac90d3d846040518263ffffffff1660e01b815260040180826001600160a01b031681526020019150506101006040518083038186803b15801561182457600080fd5b505afa158015611838573d6000803e3d6000fd5b505050506040513d601f19601f8201168201806040525061010081101561185e57600080fd5b5090505b60005b61186e84611963565b8160ff1610156118bb57818160ff166008811061188757fe5b6020020151838260ff168151811061189b57fe5b6001600160a01b0390921660209283029190910190910152600101611865565b506001600160a01b03831673331af2e331bd619defaa5dac6c038f53fcf9f7851480156118e6575085155b15611610576000826002815181106118fa57fe5b60200260200101906001600160a01b031690816001600160a01b031681525050509695505050505050565b6000610b7a8261277b565b6000546001600160a01b031681565b60008282602081101561195157600080fd5b50356001600160a01b03169392505050565b6000806f22d53366457f9d5e68ec105046fc43836001600160a01b031663a262904b6040518163ffffffff1660e01b815260040160206040518083038186803b1580156119af57600080fd5b505afa1580156119c3573d6000803e3d6000fd5b505050506040513d60208110156119d957600080fd5b5051604080517f940494f10000000000000000000000000000000000000000000000000000000081526001600160a01b038681166004830152825193945084169263940494f192602480840193919291829003018186803b158015611a3d57600080fd5b505afa158015611a51573d6000803e3d6000fd5b505050506040513d601f19601f820116820180604052506040811015611a7657600080fd5b50519392505050565b6000808211611ad5576040805162461bcd60e51b815260206004820152601a60248201527f536166654d6174683a206469766973696f6e206279207a65726f000000000000604482015290519081900360640190fd5b818381611ade57fe5b049392505050565b600080611af483600c612788565b905060006f22d53366457f9d5e68ec105046fc43836001600160a01b031663a262904b6040518163ffffffff1660e01b815260040160206040518083038186803b158015611b4157600080fd5b505afa158015611b55573d6000803e3d6000fd5b505050506040513d6020811015611b6b57600080fd5b5051604080517f55b30b190000000000000000000000000000000000000000000000000000000081526001600160a01b0385811660048301529151929350908316916355b30b1991602480820192602092909190829003018186803b158015611bd357600080fd5b505afa925050508015611bf857506040513d6020811015611bf357600080fd5b505160015b611c0757600092505050610b7d565b60019350505050610b7d565b6000806f22d53366457f9d5e68ec105046fc43836001600160a01b031663a262904b6040518163ffffffff1660e01b815260040160206040518083038186803b158015611c5f57600080fd5b505afa158015611c73573d6000803e3d6000fd5b505050506040513d6020811015611c8957600080fd5b5051604080517f379510490000000000000000000000000000000000000000000000000000000081526001600160a01b038681166004830152915192935090831691633795104991602480820192602092909190829003018186803b158015611cf157600080fd5b505afa158015611d05573d6000803e3d6000fd5b505050506040513d6020811015611a7657600080fd5b611d23613555565b6000611d2f898961193f565b9050611d39613555565b611d4282611c13565b6001600160a01b0390811660608301528b166020808301829052604080517f56ba88b800000000000000000000000000000000000000000000000000000000815290516356ba88b892600480840193919291829003018186803b158015611da857600080fd5b505afa158015611dbc573d6000803e3d6000fd5b505050506040513d6020811015611dd257600080fd5b50516001600160a01b03168152604080516020601f8c018190048102820181019092528a8152908b908b9081908401838280828437600092019190915250505050604080830191909152606082015181517f70a082310000000000000000000000000000000000000000000000000000000081526001600160a01b038e81166004830152925192909116916370a0823191602480820192602092909190829003018186803b158015611e8357600080fd5b505afa158015611e97573d6000803e3d6000fd5b505050506040513d6020811015611ead57600080fd5b505160c082015260a081018890526040805160208681028281018201909352868252909187918791829185019084908082843760009201919091525050505060e08201529a9950505050505050505050565b611f0c8160400151611ae6565b611f5d576040805162461bcd60e51b815260206004820152601d60248201527f54686520706f6f6c2061646472657373206973206e6f742076616c6964000000604482015290519081900360640190fd5b60008160a0015111611fa05760405162461bcd60e51b815260040180806020018281038252602e8152602001806135e7602e913960400191505060405180910390fd5b8060a001518160c001511015611fe75760405162461bcd60e51b815260040180806020018281038252602d815260200180613641602d913960400191505060405180910390fd5b50565b600080611ff7848461193f565b6001600160a01b038082166000908152600360205260409020549192501615612036576001600160a01b03908116600090815260036020526040902054165b9392505050565b6000806060600061204f8a600c612788565b9050600061205c82611963565b905060008a116120b3576040805162461bcd60e51b815260206004820152601a60248201527f5f706f6f6c546f6b656e73496e2068617320746f206e6f742030000000000000604482015290519081900360640190fd5b60018611612108576040805162461bcd60e51b815260206004820152601d60248201527f48617320746f2070726f76696465205f6d696e416d6f756e74734f7574000000604482015290519081900360640190fd5b600061211783838a8a8f612794565b6001600160a01b038481166000908152600360205260409020549192501615612159576001600160a01b03928316600090815260036020526040902054909216915b919c60009c50919a509098505050505050505050565b8060a001518160c001510381606001516001600160a01b03166370a0823183602001516040518263ffffffff1660e01b815260040180826001600160a01b0316815260200191505060206040518083038186803b1580156121cf57600080fd5b505afa1580156121e3573d6000803e3d6000fd5b505050506040513d60208110156121f957600080fd5b505114611fe75760405162461bcd60e51b815260040180806020018281038252602b81526020018061366e602b913960400191505060405180910390fd5b6122448160400151611ae6565b612295576040805162461bcd60e51b815260206004820152601d60248201527f54686520706f6f6c2061646472657373206973206e6f742076616c6964000000604482015290519081900360640190fd5b60008160a0015111611fe75760405162461bcd60e51b81526004018080602001828103825260318152602001806135b66031913960400191505060405180910390fd5b600080606060006122e98b8b61193f565b905060006122f682611963565b9050600061230783838a8a8f612e33565b905060006001600160a01b03841673331af2e331bd619defaa5dac6c038f53fcf9f7851415612347578888600281811061233d57fe5b9050602002013590505b60005b838110156123df5760008c8c8381811061236057fe5b905060200201356001600160a01b03166001600160a01b031614806123bc575073eeeeeeeeeeeeeeeeeeeeeeeeeeeeeeeeeeeeeeee8c8c838181106123a157fe5b905060200201356001600160a01b03166001600160a01b0316145b156123d7578989828181106123cd57fe5b9050602002013591505b60010161234a565b506001600160a01b03848116600090815260036020526040902054161561241f576001600160a01b03938416600090815260036020526040902054909316925b929e929d509b50909950505050505050505050565b80820382811115610ab557600080fd5b8060c0015181606001516001600160a01b03166370a0823183602001516040518263ffffffff1660e01b815260040180826001600160a01b0316815260200191505060206040518083038186803b15801561249e57600080fd5b505afa1580156124b2573d6000803e3d6000fd5b505050506040513d60208110156124c857600080fd5b505111611fe75760405162461bcd60e51b815260040180806020018281038252602c815260200180613615602c913960400191505060405180910390fd5b90565b60008060006f22d53366457f9d5e68ec105046fc43836001600160a01b031663a262904b6040518163ffffffff1660e01b815260040160206040518083038186803b15801561255757600080fd5b505afa15801561256b573d6000803e3d6000fd5b505050506040513d602081101561258157600080fd5b505190506000612591878761193f565b9050816001600160a01b031663a77576ef826040518263ffffffff1660e01b815260040180826001600160a01b031681526020019150506101006040518083038186803b1580156125e157600080fd5b505afa1580156125f5573d6000803e3d6000fd5b505050506040513d601f19601f8201168201806040525061010081101561261b57600080fd5b50856008811061262757fe5b6020020151826001600160a01b031663ce99e45a836040518263ffffffff1660e01b815260040180826001600160a01b031681526020019150506101006040518083038186803b15801561267a57600080fd5b505afa15801561268e573d6000803e3d6000fd5b505050506040513d601f19601f820116820180604052506101008110156126b457600080fd5b5086600881106126c057fe5b6020020151935093505050935093915050565b6040805160028082526060808301845292600092919060208301908036833701905050905073d533a949740bb3306d119cc777fa900ba034cd528160008151811061271a57fe5b60200260200101906001600160a01b031690816001600160a01b031681525050734e3fbd56cd56c3e72c1403e103b45db9da5b9d2b8160018151811061275c57fe5b6001600160a01b03909216602092830291909101909101529050919050565b50670de0b6b3a764000090565b600061203683836134c2565b606084600214156128ef576001600160a01b03861660009081526005602052604090205460ff161561285b5781848460008181106127ce57fe5b90506020020135858560018181106127e257fe5b60408051602481019690965260448601949094526020908102929092013560648501525060016084808501919091528251808503909101815260a4909301909152810180516001600160e01b03167f269b5581000000000000000000000000000000000000000000000000000000001790529050612e2a565b818484600081811061286957fe5b905060200201358585600181811061287d57fe5b604080516024810196909652604486019490945260209081029290920135606480860191909152835180860390910181526084909401909252820180516001600160e01b03167f5b36389c00000000000000000000000000000000000000000000000000000000179052509050612e2a565b8460031415612a7a576001600160a01b03861660009081526005602052604090205460ff16156129cd57818484600081811061292757fe5b905060200201358585600181811061293b57fe5b905060200201358686600281811061294f57fe5b6040805160248101979097526044870195909552606486019390935250602091820201356084840152600160a4808501919091528251808503909101815260c4909301909152810180516001600160e01b03167ffce64736000000000000000000000000000000000000000000000000000000001790529050612e2a565b81848460008181106129db57fe5b90506020020135858560018181106129ef57fe5b9050602002013586866002818110612a0357fe5b6040805160248101979097526044870195909552606486019390935250602091820201356084808501919091528251808503909101815260a4909301909152810180516001600160e01b03167fecb586a5000000000000000000000000000000000000000000000000000000001790529050612e2a565b8460041415612c3d576001600160a01b03861660009081526005602052604090205460ff1615612b74578184846000818110612ab257fe5b9050602002013585856001818110612ac657fe5b9050602002013586866002818110612ada57fe5b9050602002013587876003818110612aee57fe5b604080516024810198909852604488019690965260648701949094525060848501919091526020918202013560a4840152600160c4808501919091528251808503909101815260e4909301909152810180516001600160e01b03167fa6929895000000000000000000000000000000000000000000000000000000001790529050612e2a565b8184846000818110612b8257fe5b9050602002013585856001818110612b9657fe5b9050602002013586866002818110612baa57fe5b9050602002013587876003818110612bbe57fe5b604080516024810198909852604488019690965260648701949094525060848501919091526020918202013560a4808501919091528251808503909101815260c4909301909152810180516001600160e01b03167f7d49d875000000000000000000000000000000000000000000000000000000001790529050612e2a565b8460051415612e19576001600160a01b03861660009081526005602052604090205460ff1615612d37578184846000818110612c7557fe5b9050602002013585856001818110612c8957fe5b9050602002013586866003818110612c9d57fe5b9050602002013587876004818110612cb157fe5b604080516024810198909852604488019690965260648701949094525060848501919091526020918202013560a4840152600160c4808501919091528251808503909101815260e4909301909152810180516001600160e01b03167fcbfe789f000000000000000000000000000000000000000000000000000000001790529050612e2a565b8184846000818110612d4557fe5b9050602002013585856001818110612d5957fe5b9050602002013586866002818110612d6d57fe5b9050602002013587876003818110612d8157fe5b9050602002013588886004818110612d9557fe5b6040805160248101999099526044890197909752606488019590955250608486019290925260a48501526020918202013560c4808501919091528251808503909101815260e4909301909152810180516001600160e01b03167fe3bff5ce000000000000000000000000000000000000000000000000000000001790529050612e2a565b506040805160208101909152600081525b95945050505050565b60608460021415612f87576001600160a01b03861660009081526005602052604090205460ff1615612ef85783836000818110612e6c57fe5b9050602002013584846001818110612e8057fe5b6040805160248101959095526020918202939093013560448501526064840186905260016084808601919091528351808603909101815260a490940190925250810180516001600160e01b03167fee22be23000000000000000000000000000000000000000000000000000000001790529050612e2a565b83836000818110612f0557fe5b9050602002013584846001818110612f1957fe5b604080516024810195909552602091820293909301356044850152606480850187905283518086039091018152608490940190925250810180516001600160e01b03167f0b4c7e4d000000000000000000000000000000000000000000000000000000001790529050612e2a565b8460031415613111576001600160a01b03861660009081526005602052604090205460ff16156130665783836000818110612fbe57fe5b9050602002013584846001818110612fd257fe5b9050602002013585856002818110612fe657fe5b60408051602481019690965260448601949094526020908102929092013560648501525060848301859052600160a4808501919091528251808503909101815260c4909301909152810180516001600160e01b03167f2b6e993a000000000000000000000000000000000000000000000000000000001790529050612e2a565b8383600081811061307357fe5b905060200201358484600181811061308757fe5b905060200201358585600281811061309b57fe5b60408051602481019690965260448601949094526020908102929092013560648501525060848084018690528251808503909101815260a4909301909152810180516001600160e01b03167f4515cef3000000000000000000000000000000000000000000000000000000001790529050612e2a565b84600414156132cd576001600160a01b03861660009081526005602052604090205460ff1615613209578383600081811061314857fe5b905060200201358484600181811061315c57fe5b905060200201358585600281811061317057fe5b905060200201358686600381811061318457fe5b604080516024810197909752604487019590955260648601939093525060209182020135608484015260a48301859052600160c4808501919091528251808503909101815260e4909301909152810180516001600160e01b03167fdc3a2d81000000000000000000000000000000000000000000000000000000001790529050612e2a565b8383600081811061321657fe5b905060200201358484600181811061322a57fe5b905060200201358585600281811061323e57fe5b905060200201358686600381811061325257fe5b604080516024810197909752604487019590955260648601939093525060209182020135608484015260a48084018690528251808503909101815260c4909301909152810180516001600160e01b03167f029b2f34000000000000000000000000000000000000000000000000000000001790529050612e2a565b8460051415612e19576001600160a01b03861660009081526005602052604090205460ff16156133e2578383600081811061330457fe5b905060200201358484600181811061331857fe5b905060200201358585600281811061332c57fe5b905060200201358686600381811061334057fe5b905060200201358787600481811061335457fe5b604080516024810198909852604488019690965260648701949094525060848501919091526020918202013560a484015260c48301859052600160e48085019190915282518085039091018152610104909301909152810180516001600160e01b03167fc25fd565000000000000000000000000000000000000000000000000000000001790529050612e2a565b838360008181106133ef57fe5b905060200201358484600181811061340357fe5b905060200201358585600281811061341757fe5b905060200201358686600381811061342b57fe5b905060200201358787600481811061343f57fe5b604080516024810198909852604488019690965260648701949094525060848501919091526020918202013560a484015260c48084018690528251808503909101815260e4909301909152810180516001600160e01b03167f84738499000000000000000000000000000000000000000000000000000000001790529050612e2a565b6000816014018351101561351d576040805162461bcd60e51b815260206004820152601560248201527f746f416464726573735f6f75744f66426f756e64730000000000000000000000604482015290519081900360640190fd5b5001602001516c01000000000000000000000000900490565b6040518061010001604052806008906020820280368337509192915050565b60405180610100016040528060006001600160a01b0316815260200160006001600160a01b031681526020016060815260200160006001600160a01b0316815260200160008152602001600081526020016000815260200160608152509056fe4d696e20706f6f6c20746f6b656e7320746f2072656365697665206d7573742062652067726561746572207468616e2030506f6f6c20746f6b656e7320746f2065786368616e6765206d7573742062652067726561746572207468616e203054686520737472617465677920646964206e6f7420726563656976652074686520706f6f6c20746f6b656e7354686520737472617465677920646f6573206e6f74206861766520656e6f75676820706f6f6c20746f6b656e7354686520737472617465677920646964206e6f742072657475726e2074686520706f6f6c20746f6b656e73a2646970667358221220f5467face7c611f022b31bdc3a0f8d5d5faa9a795095362ab4961d25f967abd264736f6c63430007060033",
  "devdoc": {
    "author": "Babylon Finance Protocol Curve liquidity providing integration",
    "kind": "dev",
    "methods": {
      "constructor": {
        "params": {
          "_controller": "Address of the controller"
        }
      },
      "exitPool(address,bytes,uint256,address[],uint256[])": {
        "params": {
          "_minAmountsOut": "Array of min token quantities to receive from the pool",
          "_pool": "Pool info e.g. PoolId or Address of the pool token to join + metadata",
          "_poolTokensIn": "Pool tokens to exchange for the underlying tokens",
          "_strategy": "Address of the strategy",
          "_tokensOut": "Array of token addresses to withdraw"
        }
      },
      "getLPToken(address)": {
        "params": {
          "_pool": "Address of the pool"
        },
        "returns": {
          "_0": "address                 Address of the LP token"
        }
      },
      "getPool(address)": {
        "params": {
          "_pool": "Address of the maybe pool"
        },
        "returns": {
          "_0": "address                 Address of the pool itself"
        }
      },
      "getUnderlyingAndRate(bytes,uint256)": {
        "params": {
          "_i": "Index of coin in the pool",
          "_pool": "Address of the pool"
        },
        "returns": {
          "_0": "address                 Underlying coin",
          "_1": "uint256                 Rate from coin to underlying"
        }
      },
      "isPool(bytes)": {
        "params": {
          "_pool": "OpData e.g. Pool address to check"
        },
        "returns": {
          "_0": "bool                 True if the address is a pool"
        }
      },
      "joinPool(address,bytes,uint256,address[],uint256[])": {
        "params": {
          "_maxAmountsIn": "Array of max token quantities to pull out from the garden",
          "_pool": "OpData e.g. Address of the pool token to join",
          "_poolTokensOut": "Min amount of pool tokens to receive",
          "_strategy": "Address of the strategy",
          "_tokensIn": "Array of token addresses to deposit"
        }
      },
      "totalSupply(address)": {
        "params": {
          "_pool": "Address of the pool"
        },
        "returns": {
          "_0": "address                 Total supply of the token"
        }
      }
    },
    "title": "CurvePoolIntegration",
    "version": 1
  },
  "userdoc": {
    "kind": "user",
    "methods": {
      "constructor": {
        "notice": "Creates the integration"
      },
      "exitPool(address,bytes,uint256,address[],uint256[])": {
        "notice": "Exits a liquidity pool. Accrue protocol fee (if any)"
      },
      "getLPToken(address)": {
        "notice": "Returns the actual address of the LP token. Different for curve."
      },
      "getName()": {
        "notice": "Returns the name of the integration"
      },
      "getPool(address)": {
        "notice": "Gets the underlying pool that holds the internal tokens. Different for curve."
      },
      "getUnderlyingAndRate(bytes,uint256)": {
        "notice": "Returns the underlying coin"
      },
      "isPool(bytes)": {
        "notice": "Checks whether a pool address is valid"
      },
      "joinPool(address,bytes,uint256,address[],uint256[])": {
        "notice": "Joins a pool"
      },
      "totalSupply(address)": {
        "notice": "Returns the total supply of the pool tokens"
      }
    },
    "version": 1
  },
  "storageLayout": {
    "storage": [
      {
        "astId": 21421,
        "contract": "contracts/integrations/pool/CurvePoolIntegration.sol:CurvePoolIntegration",
        "label": "controller",
        "offset": 0,
        "slot": "0",
        "type": "t_contract(IBabController)33589"
      },
      {
        "astId": 21447,
        "contract": "contracts/integrations/pool/CurvePoolIntegration.sol:CurvePoolIntegration",
        "label": "name",
        "offset": 0,
        "slot": "1",
        "type": "t_string_storage"
      },
      {
        "astId": 6418,
        "contract": "contracts/integrations/pool/CurvePoolIntegration.sol:CurvePoolIntegration",
        "label": "_status",
        "offset": 0,
        "slot": "2",
        "type": "t_uint256"
      },
      {
        "astId": 26932,
        "contract": "contracts/integrations/pool/CurvePoolIntegration.sol:CurvePoolIntegration",
        "label": "poolToDeposit",
        "offset": 0,
        "slot": "3",
        "type": "t_mapping(t_address,t_address)"
      },
      {
        "astId": 26936,
        "contract": "contracts/integrations/pool/CurvePoolIntegration.sol:CurvePoolIntegration",
        "label": "usesUnderlying",
        "offset": 0,
        "slot": "4",
        "type": "t_mapping(t_address,t_bool)"
      },
      {
        "astId": 26940,
        "contract": "contracts/integrations/pool/CurvePoolIntegration.sol:CurvePoolIntegration",
        "label": "supportsUnderlyingParam",
        "offset": 0,
        "slot": "5",
        "type": "t_mapping(t_address,t_bool)"
      }
    ],
    "types": {
      "t_address": {
        "encoding": "inplace",
        "label": "address",
        "numberOfBytes": "20"
      },
      "t_bool": {
        "encoding": "inplace",
        "label": "bool",
        "numberOfBytes": "1"
      },
      "t_contract(IBabController)33589": {
        "encoding": "inplace",
        "label": "contract IBabController",
        "numberOfBytes": "20"
      },
      "t_mapping(t_address,t_address)": {
        "encoding": "mapping",
        "key": "t_address",
        "label": "mapping(address => address)",
        "numberOfBytes": "32",
        "value": "t_address"
      },
      "t_mapping(t_address,t_bool)": {
        "encoding": "mapping",
        "key": "t_address",
        "label": "mapping(address => bool)",
        "numberOfBytes": "32",
        "value": "t_bool"
      },
      "t_string_storage": {
        "encoding": "bytes",
        "label": "string",
        "numberOfBytes": "32"
      },
      "t_uint256": {
        "encoding": "inplace",
        "label": "uint256",
        "numberOfBytes": "32"
      }
    }
  }
}