{
  "address": "0x4DC23bEFEa4Fa92aF2de5834120e14Ea43AD7924",
  "abi": [
    {
      "inputs": [
        {
          "internalType": "contract IBabController",
          "name": "_controller",
          "type": "address"
        }
      ],
      "stateMutability": "nonpayable",
      "type": "constructor"
    },
    {
      "anonymous": false,
      "inputs": [
        {
          "indexed": true,
          "internalType": "address",
          "name": "_strategy",
          "type": "address"
        },
        {
          "indexed": true,
          "internalType": "address",
          "name": "_garden",
          "type": "address"
        },
        {
          "indexed": false,
          "internalType": "address",
          "name": "_pool",
          "type": "address"
        },
        {
          "indexed": false,
          "internalType": "uint256",
          "name": "_poolTokensOut",
          "type": "uint256"
        }
      ],
      "name": "PoolEntered",
      "type": "event"
    },
    {
      "anonymous": false,
      "inputs": [
        {
          "indexed": true,
          "internalType": "address",
          "name": "_strategy",
          "type": "address"
        },
        {
          "indexed": true,
          "internalType": "address",
          "name": "_garden",
          "type": "address"
        },
        {
          "indexed": false,
          "internalType": "address",
          "name": "_pool",
          "type": "address"
        },
        {
          "indexed": false,
          "internalType": "uint256",
          "name": "_poolTokensIn",
          "type": "uint256"
        }
      ],
      "name": "PoolExited",
      "type": "event"
    },
    {
      "inputs": [
        {
          "internalType": "address",
          "name": "",
          "type": "address"
        }
      ],
      "name": "coinsInt128",
      "outputs": [
        {
          "internalType": "bool",
          "name": "",
          "type": "bool"
        }
      ],
      "stateMutability": "view",
      "type": "function"
    },
    {
      "inputs": [],
      "name": "controller",
      "outputs": [
        {
          "internalType": "contract IBabController",
          "name": "",
          "type": "address"
        }
      ],
      "stateMutability": "view",
      "type": "function"
    },
    {
      "inputs": [
        {
          "internalType": "address",
          "name": "",
          "type": "address"
        }
      ],
      "name": "depositToToken",
      "outputs": [
        {
          "internalType": "address",
          "name": "",
          "type": "address"
        }
      ],
      "stateMutability": "view",
      "type": "function"
    },
    {
      "inputs": [
        {
          "internalType": "address",
          "name": "_strategy",
          "type": "address"
        },
        {
          "internalType": "bytes",
          "name": "_pool",
          "type": "bytes"
        },
        {
          "internalType": "uint256",
          "name": "_poolTokensIn",
          "type": "uint256"
        },
        {
          "internalType": "address[]",
          "name": "_tokensOut",
          "type": "address[]"
        },
        {
          "internalType": "uint256[]",
          "name": "_minAmountsOut",
          "type": "uint256[]"
        }
      ],
      "name": "exitPool",
      "outputs": [],
      "stateMutability": "nonpayable",
      "type": "function"
    },
    {
      "inputs": [
        {
          "internalType": "address",
          "name": "_pool",
          "type": "address"
        }
      ],
      "name": "getLPToken",
      "outputs": [
        {
          "internalType": "address",
          "name": "",
          "type": "address"
        }
      ],
      "stateMutability": "view",
      "type": "function"
    },
    {
      "inputs": [],
      "name": "getName",
      "outputs": [
        {
          "internalType": "string",
          "name": "",
          "type": "string"
        }
      ],
      "stateMutability": "view",
      "type": "function"
    },
    {
      "inputs": [
        {
          "internalType": "address",
          "name": "_pool",
          "type": "address"
        }
      ],
      "name": "getPool",
      "outputs": [
        {
          "internalType": "address",
          "name": "",
          "type": "address"
        }
      ],
      "stateMutability": "view",
      "type": "function"
    },
    {
      "inputs": [
        {
          "internalType": "bytes",
          "name": "_pool",
          "type": "bytes"
        },
        {
          "internalType": "uint256",
          "name": "_liquidity",
          "type": "uint256"
        }
      ],
      "name": "getPoolMinAmountsOut",
      "outputs": [
        {
          "internalType": "uint256[]",
          "name": "_minAmountsOut",
          "type": "uint256[]"
        }
      ],
      "stateMutability": "view",
      "type": "function"
    },
    {
      "inputs": [
        {
          "internalType": "bytes",
          "name": "_pool",
          "type": "bytes"
        },
        {
          "internalType": "bool",
          "name": "forNAV",
          "type": "bool"
        }
      ],
      "name": "getPoolTokens",
      "outputs": [
        {
          "internalType": "address[]",
          "name": "",
          "type": "address[]"
        }
      ],
      "stateMutability": "view",
      "type": "function"
    },
    {
      "inputs": [
        {
          "internalType": "bytes",
          "name": "_pool",
          "type": "bytes"
        },
        {
          "internalType": "address",
          "name": "_poolToken",
          "type": "address"
        },
        {
          "internalType": "uint256",
          "name": "_maxAmountsIn",
          "type": "uint256"
        }
      ],
      "name": "getPoolTokensOut",
      "outputs": [
        {
          "internalType": "uint256",
          "name": "",
          "type": "uint256"
        }
      ],
      "stateMutability": "view",
      "type": "function"
    },
    {
      "inputs": [
        {
          "internalType": "bytes",
          "name": "_pool",
          "type": "bytes"
        }
      ],
      "name": "getPoolWeights",
      "outputs": [
        {
          "internalType": "uint256[]",
          "name": "",
          "type": "uint256[]"
        }
      ],
      "stateMutability": "view",
      "type": "function"
    },
    {
      "inputs": [
        {
          "internalType": "bytes",
          "name": "_pool",
          "type": "bytes"
        }
      ],
      "name": "isPool",
      "outputs": [
        {
          "internalType": "bool",
          "name": "",
          "type": "bool"
        }
      ],
      "stateMutability": "view",
      "type": "function"
    },
    {
      "inputs": [
        {
          "internalType": "address",
          "name": "_strategy",
          "type": "address"
        },
        {
          "internalType": "bytes",
          "name": "_pool",
          "type": "bytes"
        },
        {
          "internalType": "uint256",
          "name": "_poolTokensOut",
          "type": "uint256"
        },
        {
          "internalType": "address[]",
          "name": "_tokensIn",
          "type": "address[]"
        },
        {
          "internalType": "uint256[]",
          "name": "_maxAmountsIn",
          "type": "uint256[]"
        }
      ],
      "name": "joinPool",
      "outputs": [],
      "stateMutability": "nonpayable",
      "type": "function"
    },
    {
      "inputs": [],
      "name": "name",
      "outputs": [
        {
          "internalType": "string",
          "name": "",
          "type": "string"
        }
      ],
      "stateMutability": "view",
      "type": "function"
    },
    {
      "inputs": [
        {
          "internalType": "address",
          "name": "",
          "type": "address"
        }
      ],
      "name": "supportsUnderlyingParam",
      "outputs": [
        {
          "internalType": "bool",
          "name": "",
          "type": "bool"
        }
      ],
      "stateMutability": "view",
      "type": "function"
    },
    {
      "inputs": [
        {
          "internalType": "address",
          "name": "_pool",
          "type": "address"
        }
      ],
      "name": "totalSupply",
      "outputs": [
        {
          "internalType": "uint256",
          "name": "",
          "type": "uint256"
        }
      ],
      "stateMutability": "view",
      "type": "function"
    },
    {
      "inputs": [
        {
          "internalType": "address",
          "name": "",
          "type": "address"
        }
      ],
      "name": "usesUnderlying",
      "outputs": [
        {
          "internalType": "bool",
          "name": "",
          "type": "bool"
        }
      ],
      "stateMutability": "view",
      "type": "function"
    }
  ],
  "transactionHash": "0x1577e9bccbbc8d9cd73d5c80181d56751ec590582c0570401e71e8cefb9ea9b2",
  "args": [
    "0xD4a5b5fcB561dAF3aDF86F8477555B92FBa43b5F"
  ],
  "solcInputHash": "c1f525c5f5ec5d756d5e07b589917725",
  "bytecode": "0x60806040523480156200001157600080fd5b5060405162003add38038062003add833981810160405260208110156200003757600080fd5b505160408051808201909152600a81526918dd5c9d9957dc1bdbdb60b21b60208201528181816001600160a01b038116620000b9576040805162461bcd60e51b815260206004820152601a60248201527f436f6e74726f6c6c6572206d75737420626520646566696e6564000000000000604482015290519081900360640190fd5b8151620000ce90600190602085019062000561565b50600080546001600160a01b039092166001600160a01b0319928316178155600160028190557f882d7ed9f2a3bb94081200846cb72e20b34d0a96f26eafd7e2ec91639183323c80548416736c3f90f043a72fa612cbac8115ee7e52bde6e4901790557fa293237c9f22d9b6f7716dfbf21cdeac68a11d8bd0eca0b6748fdb4922b0750a8054841673b19059ebb43466c323583928285a49f558e572fd1790557f6b952f6a36563f2ba577572e1f977783269346465b32a3eaaf6833e2a8ea9ae9805484167349849c98ae39fff122806c06791fa73784fb36751790557f3d8122bacbd44602332daa2535661007f9ba01b86e4f0a84b8d5578ac34eb7ab8054841673075b1bb99792c9e1041ba13afef80c91a1e70fb31790557fd3c3f303ab90a94fc444d14368bfb7575580b92003db3f5b9d47f69cfcbc270c805490931673a3d87fffce63b53e0d54faa1cc983b7eb0b74a9c179092557f38fc7b768800a4335eb6d0058d1769a8b6e638cce3c027935b309dd2dc77a0f7805460ff1990811684179091557f46219496a610d674b9f4c524f2da260829fbd6d739f5a32dc601ab2c86dc360480548216841790557f694f35e0f598aaa5bc314d50b885b78d56e37fefe9466edce0d565ff0186a10280548216841790557f209232a67cf252242128fd307be3082334473fe38982aa643b60b6c5545bc88980548216841790557f8687a1afc6b0791635ea98ee5678bdc2fd1b48cdc91ad24bfa32c2a7177df64b80548216841790557f367b9b4cb03cbce4943dfd24b6499081f54aca4f90cb671b9e6ac68051247f5880548216841790557fb5e1cae12b6b5c70f9fa49696779706284c4af7e0509e0a94c77e51112dd63b980548216841790557ff9549814d47e0062c836e2e49f30f5f7e11cc4d21dbf7a7a6f6a0315c92e399d80548216841790557fca5644fcb4a97acb1891cb8cdfc8744d32f8e7781afbb9c5d577e6a74ea1c1ad80548216841790557faf05735a8b3e4ef510ad59f0dfdfc3db28825a76def5d4aa9a7eef25a13d905180548216841790557f997d512b64725eb57616189879d7bea7135897dc1b1d5977c61711762730579d805482168417905560066020527f3ffe479466c24e2d556724c0f094a7efd2146f827efbaf1dfc14a7fb01d7ab2180548216841790557f6d8ae04c03666098a33ec196be3a9017018c49c52d620e02e9ecabf6cf97ac4580548216841790557f0d1287de7c7cfbffd7a3a17a6d77198b4e1ee2c97eb7cf6de7749ddd8bdf313580548216841790557f96bd5db4f9cab4726d892b6345a4062112a3b50c4948cdc3a6b4f64373d072d580548216841790557f57379bf480a579e222b134f20b63ec98ca02ed64dce0817ad97e787e5fbc0b6180548216841790557f53bb52a630e8878730e32273ec87d74adbca69b04ff12efebc0862e8d28dc3aa80548216841790557f18049f704e2bb1c0f885392d94a4aedb151a1444ff010a4120bdda1ad3813e89805482168417905573bbc81d23ea2c3ec7e56d39296f0cbb648873a5d39091527f0bed99f54963a9a515b8656c865c7f6c74f002b493527ad0e4a96ed2dcb6074780549091169091179055506200060d92505050565b828054600181600116156101000203166002900490600052602060002090601f016020900481019282620005995760008555620005e4565b82601f10620005b457805160ff1916838001178555620005e4565b82800160010185558215620005e4579182015b82811115620005e4578251825591602001919060010190620005c7565b50620005f2929150620005f6565b5090565b5b80821115620005f25760008155600101620005f7565b6134c0806200061d6000396000f3fe608060405234801561001057600080fd5b506004361061011b5760003560e01c8063571a28e6116100b2578063c9d5066b11610081578063e4dc2aa411610066578063e4dc2aa4146107be578063f5b4d5c5146107e4578063f77c47911461080a5761011b565b8063c9d5066b146106dc578063e02271071461074c5761011b565b8063571a28e6146105425780635eb7d579146105685780637a6731ab1461058e578063bbe4f6db146106b65761011b565b806323dd2130116100ee57806323dd2130146102f657806326062493146103305780634fc99ed6146103d657806354f070c1146104185761011b565b806306fdde031461012057806307ec3d921461019d57806317d7de7c1461025d5780631b7e75b714610265575b600080fd5b610128610812565b6040805160208082528351818301528351919283929083019185019080838360005b8381101561016257818101518382015260200161014a565b50505050905090810190601f16801561018f5780820380516001836020036101000a031916815260200191505b509250505060405180910390f35b61020d600480360360208110156101b357600080fd5b8101906020810181356401000000008111156101ce57600080fd5b8201836020820111156101e057600080fd5b8035906020019184600183028401116401000000008311171561020257600080fd5b50909250905061089f565b60408051602080825283518183015283519192839290830191858101910280838360005b83811015610249578181015183820152602001610231565b505050509050019250505060405180910390f35b6101286109dd565b6102e46004803603606081101561027b57600080fd5b81019060208101813564010000000081111561029657600080fd5b8201836020820111156102a857600080fd5b803590602001918460018302840111640100000000831117156102ca57600080fd5b91935091506001600160a01b038135169060200135610a72565b60408051918252519081900360200190f35b61031c6004803603602081101561030c57600080fd5b50356001600160a01b0316610a7c565b604080519115158252519081900360200190f35b61031c6004803603602081101561034657600080fd5b81019060208101813564010000000081111561036157600080fd5b82018360208201111561037357600080fd5b8035906020019184600183028401116401000000008311171561039557600080fd5b91908080601f016020809104026020016040519081016040528093929190818152602001838380828437600092019190915250929550610a91945050505050565b6103fc600480360360208110156103ec57600080fd5b50356001600160a01b0316610aa4565b604080516001600160a01b039092168252519081900360200190f35b610540600480360360a081101561042e57600080fd5b6001600160a01b03823516919081019060408101602082013564010000000081111561045957600080fd5b82018360208201111561046b57600080fd5b8035906020019184600183028401116401000000008311171561048d57600080fd5b919390928235926040810190602001356401000000008111156104af57600080fd5b8201836020820111156104c157600080fd5b803590602001918460208302840111640100000000831117156104e357600080fd5b91939092909160208101903564010000000081111561050157600080fd5b82018360208201111561051357600080fd5b8035906020019184602083028401116401000000008311171561053557600080fd5b509092509050610aaf565b005b61031c6004803603602081101561055857600080fd5b50356001600160a01b0316610f14565b61031c6004803603602081101561057e57600080fd5b50356001600160a01b0316610f29565b610540600480360360a08110156105a457600080fd5b6001600160a01b0382351691908101906040810160208201356401000000008111156105cf57600080fd5b8201836020820111156105e157600080fd5b8035906020019184600183028401116401000000008311171561060357600080fd5b9193909282359260408101906020013564010000000081111561062557600080fd5b82018360208201111561063757600080fd5b8035906020019184602083028401116401000000008311171561065957600080fd5b91939092909160208101903564010000000081111561067757600080fd5b82018360208201111561068957600080fd5b803590602001918460208302840111640100000000831117156106ab57600080fd5b509092509050610f3e565b6103fc600480360360208110156106cc57600080fd5b50356001600160a01b031661146a565b61020d600480360360408110156106f257600080fd5b81019060208101813564010000000081111561070d57600080fd5b82018360208201111561071f57600080fd5b8035906020019184600183028401116401000000008311171561074157600080fd5b919350915035611475565b61020d6004803603604081101561076257600080fd5b81019060208101813564010000000081111561077d57600080fd5b82018360208201111561078f57600080fd5b803590602001918460018302840111640100000000831117156107b157600080fd5b91935091503515156114db565b6102e4600480360360208110156107d457600080fd5b50356001600160a01b031661186c565b6103fc600480360360208110156107fa57600080fd5b50356001600160a01b0316611877565b6103fc611892565b60018054604080516020600284861615610100026000190190941693909304601f810184900484028201840190925281815292918301828280156108975780601f1061086c57610100808354040283529160200191610897565b820191906000526020600020905b81548152906001019060200180831161087a57829003601f168201915b505050505081565b606060006108ad84846118a1565b905060006108bd858560006114db565b905060006108ca836118c5565b67ffffffffffffffff811180156108e057600080fd5b5060405190808252806020026020018201604052801561090a578160200160208202803683370190505b5090506001600160a01b03831673331af2e331bd619defaa5dac6c038f53fcf9f785141561098b5760008160008151811061094157fe5b60200260200101818152505060008160018151811061095c57fe5b602002602001018181525050670de0b6b3a76400008160028151811061097e57fe5b6020026020010181815250505b60005b82518160ff1610156109d15782516109af90670de0b6b3a764000090611a66565b828260ff16815181106109be57fe5b602090810291909101015260010161098e565b50925050505b92915050565b60018054604080516020601f60026000196101008789161502019095169490940493840181900481028201810190925282815260609390929091830182828015610a685780601f10610a3d57610100808354040283529160200191610a68565b820191906000526020600020905b815481529060010190602001808311610a4b57829003601f168201915b5050505050905090565b6001949350505050565b60046020526000908152604090205460ff1681565b6000610a9c82611acd565b90505b919050565b6000610a9c82611bdf565b600280541415610b06576040805162461bcd60e51b815260206004820152601f60248201527f5265656e7472616e637947756172643a207265656e7472616e742063616c6c00604482015290519081900360640190fd5b60028055600054604080516313bc6d4b60e01b815233600482015290516001600160a01b03909216916313bc6d4b91602480820192602092909190829003018186803b158015610b5557600080fd5b505afa158015610b69573d6000803e3d6000fd5b505050506040513d6020811015610b7f57600080fd5b5051610bd2576040805162461bcd60e51b815260206004820152601960248201527f4f6e6c792073797374656d2063616e2063616c6c207468697300000000000000604482015290519081900360640190fd5b6000610bde88886118a1565b90506000610bf28a8a8a8a8a8a8a8a611ced565b9050610bfd81611ed1565b80602001516001600160a01b03166397ccdc60610c1a8b8b611fbc565b83606001518a6040518463ffffffff1660e01b815260040180846001600160a01b03168152602001836001600160a01b031681526020018281526020019350505050600060405180830381600087803b158015610c7657600080fd5b505af1158015610c8a573d6000803e3d6000fd5b505050506000806000610cda8d8d8d8080601f0160208091040260200160405190810160405280939291908181526020018383808284376000920191909152508f92508e91508d90508c8c611fd1565b92509250925083602001516001600160a01b0316636bc195dd8484846040518463ffffffff1660e01b815260040180846001600160a01b0316815260200183815260200180602001828103825283818151815260200191508051906020019080838360005b83811015610d57578181015183820152602001610d3f565b50505050905090810190601f168015610d845780820380516001836020036101000a031916815260200191505b50945050505050600060405180830381600087803b158015610da557600080fd5b505af1158015610db9573d6000803e3d6000fd5b505050506040513d6000823e601f3d908101601f191682016040526020811015610de257600080fd5b8101908080516040519392919084640100000000821115610e0257600080fd5b908301906020820185811115610e1757600080fd5b8251640100000000811182820188101715610e3157600080fd5b82525081516020918201929091019080838360005b83811015610e5e578181015183820152602001610e46565b50505050905090810190601f168015610e8b5780820380516001836020036101000a031916815260200191505b5060405250505050610e9c846120c2565b83600001516001600160a01b031684602001516001600160a01b03167f7659e40cf608296ce5aa9eff9c80adc7a49cb481173fc4e302e3983827b042df878d60405180836001600160a01b031681526020018281526020019250505060405180910390a3505060016002555050505050505050505050565b60056020526000908152604090205460ff1681565b60066020526000908152604090205460ff1681565b600280541415610f95576040805162461bcd60e51b815260206004820152601f60248201527f5265656e7472616e637947756172643a207265656e7472616e742063616c6c00604482015290519081900360640190fd5b60028055600054604080516313bc6d4b60e01b815233600482015290516001600160a01b03909216916313bc6d4b91602480820192602092909190829003018186803b158015610fe457600080fd5b505afa158015610ff8573d6000803e3d6000fd5b505050506040513d602081101561100e57600080fd5b5051611061576040805162461bcd60e51b815260206004820152601960248201527f4f6e6c792073797374656d2063616e2063616c6c207468697300000000000000604482015290519081900360640190fd5b60006110738989898989898989611ced565b905061107e816121a1565b600061108a89896118a1565b905060005b858110156111865760008787838181106110a557fe5b905060200201356001600160a01b03166001600160a01b03161461117e5782602001516001600160a01b03166397ccdc606110e08c8c611fbc565b8989858181106110ec57fe5b905060200201356001600160a01b031688888681811061110857fe5b905060200201356040518463ffffffff1660e01b815260040180846001600160a01b03168152602001836001600160a01b031681526020018281526020019350505050600060405180830381600087803b15801561116557600080fd5b505af1158015611179573d6000803e3d6000fd5b505050505b60010161108f565b50600080600061119c8d8d8d8d8d8d8d8d612242565b92509250925084602001516001600160a01b0316636bc195dd8484846040518463ffffffff1660e01b815260040180846001600160a01b0316815260200183815260200180602001828103825283818151815260200191508051906020019080838360005b83811015611219578181015183820152602001611201565b50505050905090810190601f1680156112465780820380516001836020036101000a031916815260200191505b50945050505050600060405180830381600087803b15801561126757600080fd5b505af115801561127b573d6000803e3d6000fd5b505050506040513d6000823e601f3d908101601f1916820160405260208110156112a457600080fd5b81019080805160405193929190846401000000008211156112c457600080fd5b9083019060208201858111156112d957600080fd5b82516401000000008111828201881017156112f357600080fd5b82525081516020918201929091019080838360005b83811015611320578181015183820152602001611308565b50505050905090810190601f16801561134d5780820380516001836020036101000a031916815260200191505b50604052505050506113e48560c0015186606001516001600160a01b03166370a0823188602001516040518263ffffffff1660e01b815260040180826001600160a01b0316815260200191505060206040518083038186803b1580156113b257600080fd5b505afa1580156113c6573d6000803e3d6000fd5b505050506040513d60208110156113dc57600080fd5b5051906122c6565b60a08601526113f2856122d6565b84600001516001600160a01b031685602001516001600160a01b03167fe5ca6288535c5c6c2462c912b4033eade15b80926717896a2d58a2defdeb9128868d60405180836001600160a01b031681526020018281526020019250505060405180910390a3505060016002555050505050505050505050565b6000610a9c826123ab565b6060600061148385856118a1565b90506000611490826118c5565b67ffffffffffffffff811180156114a657600080fd5b506040519080825280602002602001820160405280156114d0578160200160208202803683370190505b509695505050505050565b606060006114e985856118a1565b905060006114f6826118c5565b67ffffffffffffffff8111801561150c57600080fd5b50604051908082528060200260200182016040528015611536578160200160208202803683370190505b50905060005b611545836118c5565b8160ff161015611803576001600160a01b03831660009081526004602052604090205460ff168015611575575084155b156116ee576001600160a01b03831660009081526006602052604090205460ff161561164457826001600160a01b031663b739953e826040518263ffffffff1660e01b8152600401808260ff16815260200191505060206040518083038186803b1580156115e257600080fd5b505afa1580156115f6573d6000803e3d6000fd5b505050506040513d602081101561160c57600080fd5b50518251839060ff841690811061161f57fe5b60200260200101906001600160a01b031690816001600160a01b0316815250506116e9565b826001600160a01b031663b9947eb0826040518263ffffffff1660e01b8152600401808260ff16815260200191505060206040518083038186803b15801561168b57600080fd5b505afa15801561169f573d6000803e3d6000fd5b505050506040513d60208110156116b557600080fd5b50518251839060ff84169081106116c857fe5b60200260200101906001600160a01b031690816001600160a01b0316815250505b6117fb565b6001600160a01b03831660009081526006602052604090205460ff161561175657826001600160a01b03166323746eb8826040518263ffffffff1660e01b8152600401808260ff16815260200191505060206040518083038186803b15801561168b57600080fd5b826001600160a01b031663c6610657826040518263ffffffff1660e01b8152600401808260ff16815260200191505060206040518083038186803b15801561179d57600080fd5b505afa1580156117b1573d6000803e3d6000fd5b505050506040513d60208110156117c757600080fd5b50518251839060ff84169081106117da57fe5b60200260200101906001600160a01b031690816001600160a01b0316815250505b60010161153c565b506001600160a01b03821673331af2e331bd619defaa5dac6c038f53fcf9f78514801561182e575083155b156118635760008160028151811061184257fe5b60200260200101906001600160a01b031690816001600160a01b0316815250505b95945050505050565b6000610a9c82612478565b6003602052600090815260409020546001600160a01b031681565b6000546001600160a01b031681565b6000828260208110156118b357600080fd5b50356001600160a01b03169392505050565b6001600160a01b03811660009081526006602052604081205460ff16156118f6576118ef82612485565b9050610a9f565b816001600160a01b031663c661065760046040518263ffffffff1660e01b81526004018082815260200191505060206040518083038186803b15801561193b57600080fd5b505afa92505050801561196057506040513d602081101561195b57600080fd5b505160015b611a5c57816001600160a01b031663c661065760036040518263ffffffff1660e01b81526004018082815260200191505060206040518083038186803b1580156119a957600080fd5b505afa9250505080156119ce57506040513d60208110156119c957600080fd5b505160015b611a5257816001600160a01b031663c661065760026040518263ffffffff1660e01b81526004018082815260200191505060206040518083038186803b158015611a1757600080fd5b505afa925050508015611a3c57506040513d6020811015611a3757600080fd5b505160015b611a4857506002610a9f565b6003915050610a9f565b6004915050610a9f565b6005915050610a9f565b6000808211611abc576040805162461bcd60e51b815260206004820152601a60248201527f536166654d6174683a206469766973696f6e206279207a65726f000000000000604482015290519081900360640190fd5b818381611ac557fe5b049392505050565b600080611adb83600c6125a8565b6001600160a01b03811660009081526006602052604090205490915060ff1615611b8f5760006001600160a01b0316816001600160a01b03166323746eb860006040518263ffffffff1660e01b81526004018082815260200191505060206040518083038186803b158015611b4f57600080fd5b505afa158015611b63573d6000803e3d6000fd5b505050506040513d6020811015611b7957600080fd5b50516001600160a01b031614159150610a9f9050565b60006001600160a01b0316816001600160a01b031663c661065760006040518263ffffffff1660e01b81526004018082815260200191505060206040518083038186803b158015611b4f57600080fd5b6000816001600160a01b03166382c630666040518163ffffffff1660e01b815260040160206040518083038186803b158015611c1a57600080fd5b505afa925050508015611c3f57506040513d6020811015611c3a57600080fd5b505160015b6118ef57816001600160a01b031663fc0c546a6040518163ffffffff1660e01b815260040160206040518083038186803b158015611c7c57600080fd5b505afa925050508015611ca157506040513d6020811015611c9c57600080fd5b505160015b6118ef576001600160a01b038281166000908152600360205260409020541615611ce657506001600160a01b0380821660009081526003602052604090205416610a9f565b5080610a9f565b611cf5613347565b6000611d0189896118a1565b9050611d0b613347565b611d1482611bdf565b6001600160a01b0390811660608301528b166020808301829052604080517f56ba88b800000000000000000000000000000000000000000000000000000000815290516356ba88b892600480840193919291829003018186803b158015611d7a57600080fd5b505afa158015611d8e573d6000803e3d6000fd5b505050506040513d6020811015611da457600080fd5b50516001600160a01b03168152604080516020601f8c018190048102820181019092528a8152908b908b9081908401838280828437600092019190915250505050604080830191909152606082015181517f70a082310000000000000000000000000000000000000000000000000000000081526001600160a01b038e81166004830152925192909116916370a0823191602480820192602092909190829003018186803b158015611e5557600080fd5b505afa158015611e69573d6000803e3d6000fd5b505050506040513d6020811015611e7f57600080fd5b505160c082015260a081018890526040805160208681028281018201909352868252909187918791829185019084908082843760009201919091525050505060e08201529a9950505050505050505050565b611ede8160400151611acd565b611f2f576040805162461bcd60e51b815260206004820152601d60248201527f54686520706f6f6c2061646472657373206973206e6f742076616c6964000000604482015290519081900360640190fd5b60008160a0015111611f725760405162461bcd60e51b815260040180806020018281038252602e8152602001806133d9602e913960400191505060405180910390fd5b8060a001518160c001511015611fb95760405162461bcd60e51b815260040180806020018281038252602d815260200180613433602d913960400191505060405180910390fd5b50565b600080611fc984846118a1565b949350505050565b60008060606000611fe38a600c6125a8565b90506000611ff0826118c5565b905060008a11612047576040805162461bcd60e51b815260206004820152601a60248201527f5f706f6f6c546f6b656e73496e2068617320746f206e6f742030000000000000604482015290519081900360640190fd5b6001861161209c576040805162461bcd60e51b815260206004820152601d60248201527f48617320746f2070726f76696465205f6d696e416d6f756e74734f7574000000604482015290519081900360640190fd5b60006120ab83838a8a8f6125bb565b929d60009d50929b50919950505050505050505050565b60006120d38260400151600c6125a8565b90508160a001518260c001510382606001516001600160a01b03166370a0823184602001516040518263ffffffff1660e01b815260040180826001600160a01b0316815260200191505060206040518083038186803b15801561213557600080fd5b505afa158015612149573d6000803e3d6000fd5b505050506040513d602081101561215f57600080fd5b50511461219d5760405162461bcd60e51b815260040180806020018281038252602b815260200180613460602b913960400191505060405180910390fd5b5050565b6121ae8160400151611acd565b6121ff576040805162461bcd60e51b815260206004820152601d60248201527f54686520706f6f6c2061646472657373206973206e6f742076616c6964000000604482015290519081900360640190fd5b60008160a0015111611fb95760405162461bcd60e51b81526004018080602001828103825260318152602001806133a86031913960400191505060405180910390fd5b600080606060006122538b8b6118a1565b90506000612260826118c5565b9050600061227183838a8a8f612c44565b905060006001600160a01b03841673331af2e331bd619defaa5dac6c038f53fcf9f78514156122b157888860028181106122a757fe5b9050602002013590505b929e929d509b50909950505050505050505050565b808203828111156109d757600080fd5b60006122e78260400151600c6125a8565b90508160c0015182606001516001600160a01b03166370a0823184602001516040518263ffffffff1660e01b815260040180826001600160a01b0316815260200191505060206040518083038186803b15801561234357600080fd5b505afa158015612357573d6000803e3d6000fd5b505050506040513d602081101561236d57600080fd5b50511161219d5760405162461bcd60e51b815260040180806020018281038252602c815260200180613407602c913960400191505060405180910390fd5b6000816001600160a01b03166316f0115b6040518163ffffffff1660e01b815260040160206040518083038186803b1580156123e657600080fd5b505afa92505050801561240b57506040513d602081101561240657600080fd5b505160015b6118ef57816001600160a01b0316637165485d6040518163ffffffff1660e01b815260040160206040518083038186803b15801561244857600080fd5b505afa92505050801561246d57506040513d602081101561246857600080fd5b505160015b6118ef575080610a9f565b50670de0b6b3a764000090565b6000816001600160a01b03166323746eb860046040518263ffffffff1660e01b81526004018082815260200191505060206040518083038186803b1580156124cc57600080fd5b505afa9250505080156124f157506040513d60208110156124ec57600080fd5b505160015b611a5c57816001600160a01b03166323746eb860036040518263ffffffff1660e01b81526004018082815260200191505060206040518083038186803b15801561253a57600080fd5b505afa92505050801561255f57506040513d602081101561255a57600080fd5b505160015b611a5257816001600160a01b03166323746eb860026040518263ffffffff1660e01b81526004018082815260200191505060206040518083038186803b158015611a1757600080fd5b60006125b483836132d3565b9392505050565b60608460021415612716576001600160a01b03861660009081526005602052604090205460ff16156126825781848460008181106125f557fe5b905060200201358585600181811061260957fe5b60408051602481019690965260448601949094526020908102929092013560648501525060016084808501919091528251808503909101815260a4909301909152810180516001600160e01b03167f269b5581000000000000000000000000000000000000000000000000000000001790529050611863565b818484600081811061269057fe5b90506020020135858560018181106126a457fe5b604080516024810196909652604486019490945260209081029290920135606480860191909152835180860390910181526084909401909252820180516001600160e01b03167f5b36389c00000000000000000000000000000000000000000000000000000000179052509050611863565b84600314156128a1576001600160a01b03861660009081526005602052604090205460ff16156127f457818484600081811061274e57fe5b905060200201358585600181811061276257fe5b905060200201358686600281811061277657fe5b6040805160248101979097526044870195909552606486019390935250602091820201356084840152600160a4808501919091528251808503909101815260c4909301909152810180516001600160e01b03167ffce64736000000000000000000000000000000000000000000000000000000001790529050611863565b818484600081811061280257fe5b905060200201358585600181811061281657fe5b905060200201358686600281811061282a57fe5b6040805160248101979097526044870195909552606486019390935250602091820201356084808501919091528251808503909101815260a4909301909152810180516001600160e01b03167fecb586a5000000000000000000000000000000000000000000000000000000001790529050611863565b8460041415612a64576001600160a01b03861660009081526005602052604090205460ff161561299b5781848460008181106128d957fe5b90506020020135858560018181106128ed57fe5b905060200201358686600281811061290157fe5b905060200201358787600381811061291557fe5b604080516024810198909852604488019690965260648701949094525060848501919091526020918202013560a4840152600160c4808501919091528251808503909101815260e4909301909152810180516001600160e01b03167fa6929895000000000000000000000000000000000000000000000000000000001790529050611863565b81848460008181106129a957fe5b90506020020135858560018181106129bd57fe5b90506020020135868660028181106129d157fe5b90506020020135878760038181106129e557fe5b604080516024810198909852604488019690965260648701949094525060848501919091526020918202013560a4808501919091528251808503909101815260c4909301909152810180516001600160e01b03167f7d49d875000000000000000000000000000000000000000000000000000000001790529050611863565b8460051415611863576001600160a01b03861660009081526005602052604090205460ff1615612b5e578184846000818110612a9c57fe5b9050602002013585856001818110612ab057fe5b9050602002013586866003818110612ac457fe5b9050602002013587876004818110612ad857fe5b604080516024810198909852604488019690965260648701949094525060848501919091526020918202013560a4840152600160c4808501919091528251808503909101815260e4909301909152810180516001600160e01b03167fcbfe789f000000000000000000000000000000000000000000000000000000001790529050611863565b8184846000818110612b6c57fe5b9050602002013585856001818110612b8057fe5b9050602002013586866002818110612b9457fe5b9050602002013587876003818110612ba857fe5b9050602002013588886004818110612bbc57fe5b6040805160248101999099526044890197909752606488019590955250608486019290925260a48501526020918202013560c4808501919091528251808503909101815260e4909301909152810180516001600160e01b03167fe3bff5ce00000000000000000000000000000000000000000000000000000000179052905095945050505050565b60608460021415612d98576001600160a01b03861660009081526005602052604090205460ff1615612d095783836000818110612c7d57fe5b9050602002013584846001818110612c9157fe5b6040805160248101959095526020918202939093013560448501526064840186905260016084808601919091528351808603909101815260a490940190925250810180516001600160e01b03167fee22be23000000000000000000000000000000000000000000000000000000001790529050611863565b83836000818110612d1657fe5b9050602002013584846001818110612d2a57fe5b604080516024810195909552602091820293909301356044850152606480850187905283518086039091018152608490940190925250810180516001600160e01b03167f0b4c7e4d000000000000000000000000000000000000000000000000000000001790529050611863565b8460031415612f22576001600160a01b03861660009081526005602052604090205460ff1615612e775783836000818110612dcf57fe5b9050602002013584846001818110612de357fe5b9050602002013585856002818110612df757fe5b60408051602481019690965260448601949094526020908102929092013560648501525060848301859052600160a4808501919091528251808503909101815260c4909301909152810180516001600160e01b03167f2b6e993a000000000000000000000000000000000000000000000000000000001790529050611863565b83836000818110612e8457fe5b9050602002013584846001818110612e9857fe5b9050602002013585856002818110612eac57fe5b60408051602481019690965260448601949094526020908102929092013560648501525060848084018690528251808503909101815260a4909301909152810180516001600160e01b03167f4515cef3000000000000000000000000000000000000000000000000000000001790529050611863565b84600414156130de576001600160a01b03861660009081526005602052604090205460ff161561301a5783836000818110612f5957fe5b9050602002013584846001818110612f6d57fe5b9050602002013585856002818110612f8157fe5b9050602002013586866003818110612f9557fe5b604080516024810197909752604487019590955260648601939093525060209182020135608484015260a48301859052600160c4808501919091528251808503909101815260e4909301909152810180516001600160e01b03167fdc3a2d81000000000000000000000000000000000000000000000000000000001790529050611863565b8383600081811061302757fe5b905060200201358484600181811061303b57fe5b905060200201358585600281811061304f57fe5b905060200201358686600381811061306357fe5b604080516024810197909752604487019590955260648601939093525060209182020135608484015260a48084018690528251808503909101815260c4909301909152810180516001600160e01b03167f029b2f34000000000000000000000000000000000000000000000000000000001790529050611863565b8460051415611863576001600160a01b03861660009081526005602052604090205460ff16156131f3578383600081811061311557fe5b905060200201358484600181811061312957fe5b905060200201358585600281811061313d57fe5b905060200201358686600381811061315157fe5b905060200201358787600481811061316557fe5b604080516024810198909852604488019690965260648701949094525060848501919091526020918202013560a484015260c48301859052600160e48085019190915282518085039091018152610104909301909152810180516001600160e01b03167fc25fd565000000000000000000000000000000000000000000000000000000001790529050611863565b8383600081811061320057fe5b905060200201358484600181811061321457fe5b905060200201358585600281811061322857fe5b905060200201358686600381811061323c57fe5b905060200201358787600481811061325057fe5b604080516024810198909852604488019690965260648701949094525060848501919091526020918202013560a484015260c48084018690528251808503909101815260e4909301909152810180516001600160e01b03167f84738499000000000000000000000000000000000000000000000000000000001790529050611863565b6000816014018351101561332e576040805162461bcd60e51b815260206004820152601560248201527f746f416464726573735f6f75744f66426f756e64730000000000000000000000604482015290519081900360640190fd5b5001602001516c01000000000000000000000000900490565b60405180610100016040528060006001600160a01b0316815260200160006001600160a01b031681526020016060815260200160006001600160a01b0316815260200160008152602001600081526020016000815260200160608152509056fe4d696e20706f6f6c20746f6b656e7320746f2072656365697665206d7573742062652067726561746572207468616e2030506f6f6c20746f6b656e7320746f2065786368616e6765206d7573742062652067726561746572207468616e203054686520737472617465677920646964206e6f7420726563656976652074686520706f6f6c20746f6b656e7354686520737472617465677920646f6573206e6f74206861766520656e6f75676820706f6f6c20746f6b656e7354686520737472617465677920646964206e6f742072657475726e2074686520706f6f6c20746f6b656e73a2646970667358221220bf2f3edc499a226ee99eea00937f35741d9d22acadc2db97ad59d8d35506058f64736f6c63430007060033",
  "devdoc": {
    "author": "Babylon Finance Protocol Curve liquidity providing integration",
    "kind": "dev",
    "methods": {
      "constructor": {
        "params": {
          "_controller": "Address of the controller"
        }
      },
      "exitPool(address,bytes,uint256,address[],uint256[])": {
        "params": {
          "_minAmountsOut": "Array of min token quantities to receive from the pool",
          "_pool": "Pool info e.g. PoolId or Address of the pool token to join + metadata",
          "_poolTokensIn": "Pool tokens to exchange for the underlying tokens",
          "_strategy": "Address of the strategy",
          "_tokensOut": "Array of token addresses to withdraw"
        }
      },
      "getLPToken(address)": {
        "params": {
          "_pool": "Address of the pool"
        },
        "returns": {
          "_0": "address                 Address of the LP token"
        }
      },
      "getPool(address)": {
        "params": {
          "_pool": "Address of the maybe pool"
        },
        "returns": {
          "_0": "address                 Address of the pool itself"
        }
      },
      "isPool(bytes)": {
        "params": {
          "_pool": "OpData e.g. Pool address to check"
        },
        "returns": {
          "_0": "bool                 True if the address is a pool"
        }
      },
      "joinPool(address,bytes,uint256,address[],uint256[])": {
        "params": {
          "_maxAmountsIn": "Array of max token quantities to pull out from the garden",
          "_pool": "OpData e.g. Address of the pool token to join",
          "_poolTokensOut": "Min amount of pool tokens to receive",
          "_strategy": "Address of the strategy",
          "_tokensIn": "Array of token addresses to deposit"
        }
      },
      "totalSupply(address)": {
        "params": {
          "_pool": "Address of the pool"
        },
        "returns": {
          "_0": "address                 Total supply of the token"
        }
      }
    },
    "title": "CurvePoolIntegration",
    "version": 1
  },
  "userdoc": {
    "kind": "user",
    "methods": {
      "constructor": {
        "notice": "Creates the integration"
      },
      "exitPool(address,bytes,uint256,address[],uint256[])": {
        "notice": "Exits a liquidity pool. Accrue protocol fee (if any)"
      },
      "getLPToken(address)": {
        "notice": "Returns the actual address of the LP token. Different for curve."
      },
      "getName()": {
        "notice": "Returns the name of the integration"
      },
      "getPool(address)": {
        "notice": "Gets the underlying pool that holds the internal tokens. Different for curve."
      },
      "isPool(bytes)": {
        "notice": "Checks whether a pool address is valid"
      },
      "joinPool(address,bytes,uint256,address[],uint256[])": {
        "notice": "Joins a pool"
      },
      "totalSupply(address)": {
        "notice": "Returns the total supply of the pool tokens"
      }
    },
    "version": 1
  },
  "storageLayout": {
    "storage": [
      {
        "astId": 19406,
        "contract": "contracts/integrations/pool/CurvePoolIntegration.sol:CurvePoolIntegration",
        "label": "controller",
        "offset": 0,
        "slot": "0",
        "type": "t_contract(IBabController)28639"
      },
      {
        "astId": 19411,
        "contract": "contracts/integrations/pool/CurvePoolIntegration.sol:CurvePoolIntegration",
        "label": "name",
        "offset": 0,
        "slot": "1",
        "type": "t_string_storage"
      },
      {
        "astId": 6418,
        "contract": "contracts/integrations/pool/CurvePoolIntegration.sol:CurvePoolIntegration",
        "label": "_status",
        "offset": 0,
        "slot": "2",
        "type": "t_uint256"
      },
      {
        "astId": 24399,
        "contract": "contracts/integrations/pool/CurvePoolIntegration.sol:CurvePoolIntegration",
        "label": "depositToToken",
        "offset": 0,
        "slot": "3",
        "type": "t_mapping(t_address,t_address)"
      },
      {
        "astId": 24403,
        "contract": "contracts/integrations/pool/CurvePoolIntegration.sol:CurvePoolIntegration",
        "label": "usesUnderlying",
        "offset": 0,
        "slot": "4",
        "type": "t_mapping(t_address,t_bool)"
      },
      {
        "astId": 24407,
        "contract": "contracts/integrations/pool/CurvePoolIntegration.sol:CurvePoolIntegration",
        "label": "supportsUnderlyingParam",
        "offset": 0,
        "slot": "5",
        "type": "t_mapping(t_address,t_bool)"
      },
      {
        "astId": 24411,
        "contract": "contracts/integrations/pool/CurvePoolIntegration.sol:CurvePoolIntegration",
        "label": "coinsInt128",
        "offset": 0,
        "slot": "6",
        "type": "t_mapping(t_address,t_bool)"
      }
    ],
    "types": {
      "t_address": {
        "encoding": "inplace",
        "label": "address",
        "numberOfBytes": "20"
      },
      "t_bool": {
        "encoding": "inplace",
        "label": "bool",
        "numberOfBytes": "1"
      },
      "t_contract(IBabController)28639": {
        "encoding": "inplace",
        "label": "contract IBabController",
        "numberOfBytes": "20"
      },
      "t_mapping(t_address,t_address)": {
        "encoding": "mapping",
        "key": "t_address",
        "label": "mapping(address => address)",
        "numberOfBytes": "32",
        "value": "t_address"
      },
      "t_mapping(t_address,t_bool)": {
        "encoding": "mapping",
        "key": "t_address",
        "label": "mapping(address => bool)",
        "numberOfBytes": "32",
        "value": "t_bool"
      },
      "t_string_storage": {
        "encoding": "bytes",
        "label": "string",
        "numberOfBytes": "32"
      },
      "t_uint256": {
        "encoding": "inplace",
        "label": "uint256",
        "numberOfBytes": "32"
      }
    }
  }
}