{
  "address": "0xcb5A91A89c164a05AECDF3459b370Bd62032503c",
  "abi": [
    {
      "inputs": [
        {
          "internalType": "string",
          "name": "_name",
          "type": "string"
        },
        {
          "internalType": "address",
          "name": "_controller",
          "type": "address"
        }
      ],
      "stateMutability": "nonpayable",
      "type": "constructor"
    },
    {
      "inputs": [],
      "name": "controller",
      "outputs": [
        {
          "internalType": "address",
          "name": "",
          "type": "address"
        }
      ],
      "stateMutability": "view",
      "type": "function"
    },
    {
      "inputs": [
        {
          "internalType": "address",
          "name": "_asset",
          "type": "address"
        },
        {
          "internalType": "uint256",
          "name": "_capital",
          "type": "uint256"
        },
        {
          "internalType": "uint8",
          "name": "",
          "type": "uint8"
        },
        {
          "internalType": "address",
          "name": "_data",
          "type": "address"
        },
        {
          "internalType": "contract IGarden",
          "name": "",
          "type": "address"
        },
        {
          "internalType": "address",
          "name": "_integration",
          "type": "address"
        }
      ],
      "name": "executeOperation",
      "outputs": [
        {
          "internalType": "address",
          "name": "",
          "type": "address"
        },
        {
          "internalType": "uint256",
          "name": "",
          "type": "uint256"
        },
        {
          "internalType": "uint8",
          "name": "",
          "type": "uint8"
        }
      ],
      "stateMutability": "nonpayable",
      "type": "function"
    },
    {
      "inputs": [
        {
          "internalType": "uint256",
          "name": "_percentage",
          "type": "uint256"
        },
        {
          "internalType": "address",
          "name": "_data",
          "type": "address"
        },
        {
          "internalType": "contract IGarden",
          "name": "_garden",
          "type": "address"
        },
        {
          "internalType": "address",
          "name": "_integration",
          "type": "address"
        }
      ],
      "name": "exitOperation",
      "outputs": [],
      "stateMutability": "nonpayable",
      "type": "function"
    },
    {
      "inputs": [
        {
          "internalType": "address",
          "name": "_data",
          "type": "address"
        },
        {
          "internalType": "contract IGarden",
          "name": "_garden",
          "type": "address"
        },
        {
          "internalType": "address",
          "name": "_integration",
          "type": "address"
        }
      ],
      "name": "getNAV",
      "outputs": [
        {
          "internalType": "uint256",
          "name": "",
          "type": "uint256"
        }
      ],
      "stateMutability": "view",
      "type": "function"
    },
    {
      "inputs": [],
      "name": "getName",
      "outputs": [
        {
          "internalType": "string",
          "name": "",
          "type": "string"
        }
      ],
      "stateMutability": "view",
      "type": "function"
    },
    {
      "inputs": [],
      "name": "name",
      "outputs": [
        {
          "internalType": "string",
          "name": "",
          "type": "string"
        }
      ],
      "stateMutability": "view",
      "type": "function"
    },
    {
      "inputs": [
        {
          "internalType": "address",
          "name": "_data",
          "type": "address"
        },
        {
          "internalType": "contract IGarden",
          "name": "",
          "type": "address"
        },
        {
          "internalType": "address",
          "name": "_integration",
          "type": "address"
        },
        {
          "internalType": "uint256",
          "name": "",
          "type": "uint256"
        }
      ],
      "name": "validateOperation",
      "outputs": [],
      "stateMutability": "view",
      "type": "function"
    }
  ],
  "transactionHash": "0xa6c0b9c4aca7b5feda5c849cb639bc0647d31a622fa267c020c3becf8a9259ef",
  "args": [
    "vault",
    "0xffe7c30daDb1B132b86aB7bbede496615d54c8Ac"
  ],
  "solcInputHash": "a02a2075cf667a20c416d2d0a5e8f337",
  "bytecode": "0x60806040523480156200001157600080fd5b5060405162001c7438038062001c74833981810160405260408110156200003757600080fd5b81019080805160405193929190846401000000008211156200005857600080fd5b9083019060208201858111156200006e57600080fd5b82516401000000008111828201881017156200008957600080fd5b82525081516020918201929091019080838360005b83811015620000b85781810151838201526020016200009e565b50505050905090810190601f168015620000e65780820380516001836020036101000a031916815260200191505b50604052602001519150829050816001600160a01b03811662000150576040805162461bcd60e51b815260206004820152601a60248201527f436f6e74726f6c6c6572206d75737420626520646566696e6564000000000000604482015290519081900360640190fd5b81516200016590600190602085019062000190565b50600080546001600160a01b0319166001600160a01b0392909216919091179055506200023c915050565b828054600181600116156101000203166002900490600052602060002090601f016020900481019282620001c8576000855562000213565b82601f10620001e357805160ff191683800117855562000213565b8280016001018555821562000213579182015b8281111562000213578251825591602001919060010190620001f6565b506200022192915062000225565b5090565b5b8082111562000221576000815560010162000226565b611a28806200024c6000396000f3fe608060405234801561001057600080fd5b506004361061007d5760003560e01c80634222326a1161005b5780634222326a1461014757806355d9750b14610191578063c8cd307514610209578063f77c4791146102455761007d565b806306fdde031461008257806317d7de7c146100ff578063419ea18a14610107575b600080fd5b61008a610269565b6040805160208082528351818301528351919283929083019185019080838360005b838110156100c45781810151838201526020016100ac565b50505050905090810190601f1680156100f15780820380516001836020036101000a031916815260200191505b509250505060405180910390f35b61008a6102f6565b6101456004803603608081101561011d57600080fd5b508035906001600160a01b03602082013581169160408101358216916060909101351661038b565b005b61017f6004803603606081101561015d57600080fd5b506001600160a01b038135811691602081013582169160409091013516610a4a565b60408051918252519081900360200190f35b6101de600480360360c08110156101a757600080fd5b506001600160a01b03813581169160208101359160ff604083013516916060810135821691608082013581169160a0013516610eff565b604080516001600160a01b039094168452602084019290925260ff1682820152519081900360600190f35b6101456004803603608081101561021f57600080fd5b506001600160a01b0381358116916020810135821691604082013516906060013561148b565b61024d611758565b604080516001600160a01b039092168252519081900360200190f35b60018054604080516020600284861615610100026000190190941693909304601f810184900484028201840190925281815292918301828280156102ee5780601f106102c3576101008083540402835291602001916102ee565b820191906000526020600020905b8154815290600101906020018083116102d157829003601f168201915b505050505081565b60018054604080516020601f600260001961010087891615020190951694909404938401819004810282018101909252828152606093909290918301828280156103815780601f1061035657610100808354040283529160200191610381565b820191906000526020600020905b81548152906001019060200180831161036457829003601f168201915b5050505050905090565b60003390506000816001600160a01b03166356ba88b86040518163ffffffff1660e01b815260040160206040518083038186803b1580156103cb57600080fd5b505afa1580156103df573d6000803e3d6000fd5b505050506040513d60208110156103f557600080fd5b5051600054604080516313bc6d4b60e01b81526001600160a01b03808516600483015291519394509116916313bc6d4b91602480820192602092909190829003018186803b15801561044657600080fd5b505afa15801561045a573d6000803e3d6000fd5b505050506040513d602081101561047057600080fd5b50516104c3576040805162461bcd60e51b815260206004820152601b60248201527f4f6e6c7920612067617264656e2063616e2063616c6c20746869730000000000604482015290519081900360640190fd5b604080516317475d5760e11b815233600482015290516001600160a01b03831691632e8ebaae916024808301926020929190829003018186803b15801561050957600080fd5b505afa15801561051d573d6000803e3d6000fd5b505050506040513d602081101561053357600080fd5b5051610586576040805162461bcd60e51b815260206004820152601960248201527f53656e646572206d757374206265206120737472617465677900000000000000604482015290519081900360640190fd5b670de0b6b3a76400008611156105e3576040805162461bcd60e51b815260206004820152601960248201527f556e77696e642050657263656e74616765203c3d203130302500000000000000604482015290519081900360640190fd5b60008590506000846001600160a01b031663f337f630836040518263ffffffff1660e01b815260040180826001600160a01b0316815260200191505060206040518083038186803b15801561063757600080fd5b505afa15801561064b573d6000803e3d6000fd5b505050506040513d602081101561066157600080fd5b5051604080517f70a082310000000000000000000000000000000000000000000000000000000081523360048201529051919250600091610700918b916001600160a01b038716916370a08231916024808301926020929190829003018186803b1580156106ce57600080fd5b505afa1580156106e2573d6000803e3d6000fd5b505050506040513d60208110156106f857600080fd5b505190611767565b90506001600160a01b03861663871be911338584866107b261073361072c84662386f26fc10000611767565b8990611788565b8d6001600160a01b031663ec422afd8c6040518263ffffffff1660e01b815260040180826001600160a01b0316815260200191505060206040518083038186803b15801561078057600080fd5b505afa158015610794573d6000803e3d6000fd5b505050506040513d60208110156107aa57600080fd5b5051906117e5565b6040518663ffffffff1660e01b815260040180866001600160a01b03168152602001856001600160a01b03168152602001848152602001836001600160a01b0316815260200182815260200195505050505050600060405180830381600087803b15801561081f57600080fd5b505af1158015610833573d6000803e3d6000fd5b50505050866001600160a01b031663f85cb5c86040518163ffffffff1660e01b815260040160206040518083038186803b15801561087057600080fd5b505afa158015610884573d6000803e3d6000fd5b505050506040513d602081101561089a57600080fd5b50516001600160a01b03838116911614610a3f57336001600160a01b0316630e32db5283846001600160a01b03166370a08231336040518263ffffffff1660e01b815260040180826001600160a01b0316815260200191505060206040518083038186803b15801561090b57600080fd5b505afa15801561091f573d6000803e3d6000fd5b505050506040513d602081101561093557600080fd5b505160408051631f0b96b960e31b815290516001600160a01b038d169163f85cb5c8916004808301926020929190829003018186803b15801561097757600080fd5b505afa15801561098b573d6000803e3d6000fd5b505050506040513d60208110156109a157600080fd5b5051604080517fffffffff0000000000000000000000000000000000000000000000000000000060e087901b1681526001600160a01b039485166004820152602481019390935292166044820152905160648083019260209291908290030181600087803b158015610a1257600080fd5b505af1158015610a26573d6000803e3d6000fd5b505050506040513d6020811015610a3c57600080fd5b50505b505050505050505050565b6000803390506000816001600160a01b03166356ba88b86040518163ffffffff1660e01b815260040160206040518083038186803b158015610a8b57600080fd5b505afa158015610a9f573d6000803e3d6000fd5b505050506040513d6020811015610ab557600080fd5b5051600054604080516313bc6d4b60e01b81526001600160a01b03808516600483015291519394509116916313bc6d4b91602480820192602092909190829003018186803b158015610b0657600080fd5b505afa158015610b1a573d6000803e3d6000fd5b505050506040513d6020811015610b3057600080fd5b5051610b83576040805162461bcd60e51b815260206004820152601b60248201527f4f6e6c7920612067617264656e2063616e2063616c6c20746869730000000000604482015290519081900360640190fd5b604080516317475d5760e11b815233600482015290516001600160a01b03831691632e8ebaae916024808301926020929190829003018186803b158015610bc957600080fd5b505afa158015610bdd573d6000803e3d6000fd5b505050506040513d6020811015610bf357600080fd5b5051610c46576040805162461bcd60e51b815260206004820152601960248201527f53656e646572206d757374206265206120737472617465677900000000000000604482015290519081900360640190fd5b336001600160a01b031663e4df5e1a6040518163ffffffff1660e01b815260040160206040518083038186803b158015610c7f57600080fd5b505afa158015610c93573d6000803e3d6000fd5b505050506040513d6020811015610ca957600080fd5b5051610cb85760009250610ef6565b6000846001600160a01b031663f337f630886040518263ffffffff1660e01b815260040180826001600160a01b0316815260200191505060206040518083038186803b158015610d0757600080fd5b505afa158015610d1b573d6000803e3d6000fd5b505050506040513d6020811015610d3157600080fd5b505160408051631f0b96b960e31b81529051919250600091610db0916001600160a01b038a169163f85cb5c891600480820192602092909190829003018186803b158015610d7e57600080fd5b505afa158015610d92573d6000803e3d6000fd5b505050506040513d6020811015610da857600080fd5b50518361183e565b90506000610e9d82610e978b6001600160a01b03166370a08231336040518263ffffffff1660e01b815260040180826001600160a01b0316815260200191505060206040518083038186803b158015610e0857600080fd5b505afa158015610e1c573d6000803e3d6000fd5b505050506040513d6020811015610e3257600080fd5b5051604080517fec422afd0000000000000000000000000000000000000000000000000000000081526001600160a01b038f811660048301529151918d169163ec422afd91602480820192602092909190829003018186803b15801561078057600080fd5b9061196a565b905080610ef1576040805162461bcd60e51b815260206004820152601660248201527f4e41562068617320746f20626520626967676572203000000000000000000000604482015290519081900360640190fd5b945050505b50509392505050565b6000806000803390506000816001600160a01b03166356ba88b86040518163ffffffff1660e01b815260040160206040518083038186803b158015610f4357600080fd5b505afa158015610f57573d6000803e3d6000fd5b505050506040513d6020811015610f6d57600080fd5b5051600054604080516313bc6d4b60e01b81526001600160a01b03808516600483015291519394509116916313bc6d4b91602480820192602092909190829003018186803b158015610fbe57600080fd5b505afa158015610fd2573d6000803e3d6000fd5b505050506040513d6020811015610fe857600080fd5b505161103b576040805162461bcd60e51b815260206004820152601b60248201527f4f6e6c7920612067617264656e2063616e2063616c6c20746869730000000000604482015290519081900360640190fd5b604080516317475d5760e11b815233600482015290516001600160a01b03831691632e8ebaae916024808301926020929190829003018186803b15801561108157600080fd5b505afa158015611095573d6000803e3d6000fd5b505050506040513d60208110156110ab57600080fd5b50516110fe576040805162461bcd60e51b815260206004820152601960248201527f53656e646572206d757374206265206120737472617465677900000000000000604482015290519081900360640190fd5b60008890506000876001600160a01b031663f337f630836040518263ffffffff1660e01b815260040180826001600160a01b0316815260200191505060206040518083038186803b15801561115257600080fd5b505afa158015611166573d6000803e3d6000fd5b505050506040513d602081101561117c57600080fd5b505190506001600160a01b03808216908e161461123057604080517f0e32db520000000000000000000000000000000000000000000000000000000081526001600160a01b038f81166004830152602482018f90528316604482015290513391630e32db529160648083019260209291908290030181600087803b15801561120357600080fd5b505af1158015611217573d6000803e3d6000fd5b505050506040513d602081101561122d57600080fd5b50505b6000886001600160a01b0316634deef649848f6040518363ffffffff1660e01b815260040180836001600160a01b031681526020018281526020019250505060206040518083038186803b15801561128757600080fd5b505afa15801561129b573d6000803e3d6000fd5b505050506040513d60208110156112b157600080fd5b5051905060006112d26112cb83662386f26fc10000611767565b8390611788565b9050896001600160a01b031663976a99be33868487886001600160a01b03166370a08231336040518263ffffffff1660e01b815260040180826001600160a01b0316815260200191505060206040518083038186803b15801561133457600080fd5b505afa158015611348573d6000803e3d6000fd5b505050506040513d602081101561135e57600080fd5b5051604080517fffffffff0000000000000000000000000000000000000000000000000000000060e089901b1681526001600160a01b03968716600482015294861660248601526044850193909352931660648301526084820192909252905160a480830192600092919082900301818387803b1580156113de57600080fd5b505af11580156113f2573d6000803e3d6000fd5b5050505083846001600160a01b03166370a08231336040518263ffffffff1660e01b815260040180826001600160a01b0316815260200191505060206040518083038186803b15801561144457600080fd5b505afa158015611458573d6000803e3d6000fd5b505050506040513d602081101561146e57600080fd5b505190995097506000965050505050505096509650969350505050565b60003390506000816001600160a01b03166356ba88b86040518163ffffffff1660e01b815260040160206040518083038186803b1580156114cb57600080fd5b505afa1580156114df573d6000803e3d6000fd5b505050506040513d60208110156114f557600080fd5b5051600054604080516313bc6d4b60e01b81526001600160a01b03808516600483015291519394509116916313bc6d4b91602480820192602092909190829003018186803b15801561154657600080fd5b505afa15801561155a573d6000803e3d6000fd5b505050506040513d602081101561157057600080fd5b50516115c3576040805162461bcd60e51b815260206004820152601b60248201527f4f6e6c7920612067617264656e2063616e2063616c6c20746869730000000000604482015290519081900360640190fd5b604080516317475d5760e11b815233600482015290516001600160a01b03831691632e8ebaae916024808301926020929190829003018186803b15801561160957600080fd5b505afa15801561161d573d6000803e3d6000fd5b505050506040513d602081101561163357600080fd5b5051611686576040805162461bcd60e51b815260206004820152601960248201527f53656e646572206d757374206265206120737472617465677900000000000000604482015290519081900360640190fd5b836001600160a01b0316639e12fef2876040518263ffffffff1660e01b815260040180826001600160a01b0316815260200191505060206040518083038186803b1580156116d357600080fd5b505afa1580156116e7573d6000803e3d6000fd5b505050506040513d60208110156116fd57600080fd5b5051611750576040805162461bcd60e51b815260206004820152601b60248201527f4d75737420626520612076616c6964207969656c64207661756c740000000000604482015290519081900360640190fd5b505050505050565b6000546001600160a01b031681565b600061177f670de0b6b3a7640000610e9785856117e5565b90505b92915050565b6000828211156117df576040805162461bcd60e51b815260206004820152601e60248201527f536166654d6174683a207375627472616374696f6e206f766572666c6f770000604482015290519081900360640190fd5b50900390565b6000826117f457506000611782565b8282028284828161180157fe5b041461177f5760405162461bcd60e51b81526004018080602001828103825260218152602001806119d26021913960400191505060405180910390fd5b60008054604080517f2630c12f000000000000000000000000000000000000000000000000000000008152905183926001600160a01b031691632630c12f916004808301926020929190829003018186803b15801561189c57600080fd5b505afa1580156118b0573d6000803e3d6000fd5b505050506040513d60208110156118c657600080fd5b5051604080517fac41865a0000000000000000000000000000000000000000000000000000000081526001600160a01b038781166004830152868116602483015291519293509083169163ac41865a91604480820192602092909190829003018186803b15801561193657600080fd5b505afa15801561194a573d6000803e3d6000fd5b505050506040513d602081101561196057600080fd5b5051949350505050565b60008082116119c0576040805162461bcd60e51b815260206004820152601a60248201527f536166654d6174683a206469766973696f6e206279207a65726f000000000000604482015290519081900360640190fd5b8183816119c957fe5b04939250505056fe536166654d6174683a206d756c7469706c69636174696f6e206f766572666c6f77a2646970667358221220f15281613f21a8613a01856895ffa02befe792756d133abb45d801a56466397064736f6c63430007060033",
  "devdoc": {
    "author": "Babylon Finance Executes a deposit vault operation",
    "kind": "dev",
    "methods": {
      "constructor": {
        "params": {
          "_controller": "Address of the controller",
          "_name": "Name of the integration"
        }
      },
      "executeOperation(address,uint256,uint8,address,address,address)": {
        "params": {
          "_capital": "Amount of capital received from the garden"
        }
      },
      "exitOperation(uint256,address,address,address)": {
        "params": {
          "_percentage": "of capital to exit from the strategy"
        }
      },
      "getNAV(address,address,address)": {
        "returns": {
          "_0": "_nav           NAV of the strategy"
        }
      },
      "validateOperation(address,address,address,uint256)": {
        "params": {
          "_data": "Operation data"
        }
      }
    },
    "title": "DepositVaultOperation",
    "version": 1
  },
  "userdoc": {
    "kind": "user",
    "methods": {
      "constructor": {
        "notice": "Creates the integration"
      },
      "executeOperation(address,uint256,uint8,address,address,address)": {
        "notice": "Executes the deposit vault operation"
      },
      "exitOperation(uint256,address,address,address)": {
        "notice": "Exits the deposit vault operation."
      },
      "getNAV(address,address,address)": {
        "notice": "Gets the NAV of the deposit vault op in the reserve asset"
      },
      "getName()": {
        "notice": "Returns the name of the operation"
      },
      "validateOperation(address,address,address,uint256)": {
        "notice": "Sets operation data for the deposit vault operation"
      }
    },
    "version": 1
  },
  "storageLayout": {
    "storage": [
      {
        "astId": 33459,
        "contract": "contracts/strategies/operations/DepositVaultOperation.sol:DepositVaultOperation",
        "label": "controller",
        "offset": 0,
        "slot": "0",
        "type": "t_address"
      },
      {
        "astId": 33461,
        "contract": "contracts/strategies/operations/DepositVaultOperation.sol:DepositVaultOperation",
        "label": "name",
        "offset": 0,
        "slot": "1",
        "type": "t_string_storage"
      }
    ],
    "types": {
      "t_address": {
        "encoding": "inplace",
        "label": "address",
        "numberOfBytes": "20"
      },
      "t_string_storage": {
        "encoding": "bytes",
        "label": "string",
        "numberOfBytes": "32"
      }
    }
  }
}