{
  "address": "0xD45af5912Ec965635fbd47D111444FA2BdCc54B4",
  "abi": [
    {
      "inputs": [
        {
          "internalType": "contract IBabController",
          "name": "_controller",
          "type": "address"
        },
        {
          "internalType": "contract IComptroller",
          "name": "_comptroller",
          "type": "address"
        }
      ],
      "stateMutability": "nonpayable",
      "type": "constructor"
    },
    {
      "anonymous": false,
      "inputs": [
        {
          "indexed": true,
          "internalType": "address",
          "name": "garden",
          "type": "address"
        },
        {
          "indexed": true,
          "internalType": "address",
          "name": "strategy",
          "type": "address"
        },
        {
          "indexed": true,
          "internalType": "address",
          "name": "assetToken",
          "type": "address"
        },
        {
          "indexed": false,
          "internalType": "uint256",
          "name": "numTokensToRedeem",
          "type": "uint256"
        },
        {
          "indexed": false,
          "internalType": "uint256",
          "name": "protocolFee",
          "type": "uint256"
        }
      ],
      "name": "TokensRedeemed",
      "type": "event"
    },
    {
      "anonymous": false,
      "inputs": [
        {
          "indexed": true,
          "internalType": "address",
          "name": "garden",
          "type": "address"
        },
        {
          "indexed": true,
          "internalType": "address",
          "name": "strategy",
          "type": "address"
        },
        {
          "indexed": true,
          "internalType": "address",
          "name": "assetToken",
          "type": "address"
        },
        {
          "indexed": false,
          "internalType": "uint256",
          "name": "numTokensToSupply",
          "type": "uint256"
        }
      ],
      "name": "TokensSupplied",
      "type": "event"
    },
    {
      "inputs": [
        {
          "internalType": "address",
          "name": "",
          "type": "address"
        }
      ],
      "name": "assetToCToken",
      "outputs": [
        {
          "internalType": "address",
          "name": "",
          "type": "address"
        }
      ],
      "stateMutability": "view",
      "type": "function"
    },
    {
      "inputs": [],
      "name": "controller",
      "outputs": [
        {
          "internalType": "contract IBabController",
          "name": "",
          "type": "address"
        }
      ],
      "stateMutability": "view",
      "type": "function"
    },
    {
      "inputs": [
        {
          "internalType": "address",
          "name": "_assetToken",
          "type": "address"
        }
      ],
      "name": "getCollateralFactor",
      "outputs": [
        {
          "internalType": "uint256",
          "name": "",
          "type": "uint256"
        }
      ],
      "stateMutability": "view",
      "type": "function"
    },
    {
      "inputs": [
        {
          "internalType": "address",
          "name": "_assetToken",
          "type": "address"
        }
      ],
      "name": "getExchangeRatePerToken",
      "outputs": [
        {
          "internalType": "uint256",
          "name": "",
          "type": "uint256"
        }
      ],
      "stateMutability": "view",
      "type": "function"
    },
    {
      "inputs": [
        {
          "internalType": "address",
          "name": "_assetToken",
          "type": "address"
        },
        {
          "internalType": "uint256",
          "name": "_numTokensToSupply",
          "type": "uint256"
        }
      ],
      "name": "getExpectedShares",
      "outputs": [
        {
          "internalType": "uint256",
          "name": "",
          "type": "uint256"
        }
      ],
      "stateMutability": "view",
      "type": "function"
    },
    {
      "inputs": [
        {
          "internalType": "address",
          "name": "_assetToken",
          "type": "address"
        }
      ],
      "name": "getInvestmentToken",
      "outputs": [
        {
          "internalType": "address",
          "name": "",
          "type": "address"
        }
      ],
      "stateMutability": "view",
      "type": "function"
    },
    {
      "inputs": [
        {
          "internalType": "address",
          "name": "_address",
          "type": "address"
        },
        {
          "internalType": "address",
          "name": "_assetToken",
          "type": "address"
        }
      ],
      "name": "getInvestmentTokenAmount",
      "outputs": [
        {
          "internalType": "uint256",
          "name": "",
          "type": "uint256"
        }
      ],
      "stateMutability": "view",
      "type": "function"
    },
    {
      "inputs": [],
      "name": "getRewardToken",
      "outputs": [
        {
          "internalType": "address",
          "name": "",
          "type": "address"
        }
      ],
      "stateMutability": "view",
      "type": "function"
    },
    {
      "inputs": [
        {
          "internalType": "address",
          "name": "_strategy",
          "type": "address"
        }
      ],
      "name": "getRewardsAccrued",
      "outputs": [
        {
          "internalType": "uint256",
          "name": "",
          "type": "uint256"
        }
      ],
      "stateMutability": "view",
      "type": "function"
    },
    {
      "inputs": [
        {
          "internalType": "address",
          "name": "_investmentAddress",
          "type": "address"
        }
      ],
      "name": "isInvestment",
      "outputs": [
        {
          "internalType": "bool",
          "name": "",
          "type": "bool"
        }
      ],
      "stateMutability": "view",
      "type": "function"
    },
    {
      "inputs": [],
      "name": "name",
      "outputs": [
        {
          "internalType": "string",
          "name": "",
          "type": "string"
        }
      ],
      "stateMutability": "view",
      "type": "function"
    },
    {
      "inputs": [],
      "name": "overrideMappings",
      "outputs": [],
      "stateMutability": "nonpayable",
      "type": "function"
    },
    {
      "inputs": [
        {
          "internalType": "address",
          "name": "_strategy",
          "type": "address"
        },
        {
          "internalType": "address",
          "name": "_assetToken",
          "type": "address"
        },
        {
          "internalType": "uint256",
          "name": "_numTokensToRedeem",
          "type": "uint256"
        },
        {
          "internalType": "uint256",
          "name": "_minAmountExpected",
          "type": "uint256"
        }
      ],
      "name": "redeemTokens",
      "outputs": [],
      "stateMutability": "nonpayable",
      "type": "function"
    },
    {
      "inputs": [
        {
          "internalType": "address",
          "name": "_strategy",
          "type": "address"
        },
        {
          "internalType": "address",
          "name": "_assetToken",
          "type": "address"
        },
        {
          "internalType": "uint256",
          "name": "_numTokensToSupply",
          "type": "uint256"
        },
        {
          "internalType": "uint256",
          "name": "_minAmountExpected",
          "type": "uint256"
        }
      ],
      "name": "supplyTokens",
      "outputs": [],
      "stateMutability": "nonpayable",
      "type": "function"
    },
    {
      "inputs": [
        {
          "internalType": "address",
          "name": "_assetAddress",
          "type": "address"
        },
        {
          "internalType": "address",
          "name": "_cTokenAddress",
          "type": "address"
        }
      ],
      "name": "updateCTokenMapping",
      "outputs": [],
      "stateMutability": "nonpayable",
      "type": "function"
    }
  ],
  "transactionHash": "0xb3781432630961a9d15dc548e901a6530b58bc640d482329ad015186a666427e",
  "args": [
    "0xD4a5b5fcB561dAF3aDF86F8477555B92FBa43b5F",
    "0xC7125E3A2925877C7371d579D29dAe4729Ac9033"
  ],
  "numDeployments": 2,
  "solcInputHash": "e2cfbd590350fba8dc3b9c04d1cac4d7",
  "bytecode": "0x60c06040523480156200001157600080fd5b506040516200335c3803806200335c8339810160408190526200003491620003e6565b604080518082019091526008815267199d5cd95b195b9960c21b60208201528282828281816001600160a01b038116620000b5576040805162461bcd60e51b815260206004820152601a60248201527f436f6e74726f6c6c6572206d75737420626520646566696e6564000000000000604482015290519081900360640190fd5b8151620000ca9060009060208501906200033a565b506001600160601b0319606091821b8116608052600180559085901b1660a05250620000fa915082905062000105565b50505050506200043d565b6000816001600160a01b031663b0772d0b6040518163ffffffff1660e01b815260040160006040518083038186803b1580156200014157600080fd5b505afa15801562000156573d6000803e3d6000fd5b505050506040513d6000823e601f3d908101601f1916820160405260208110156200018057600080fd5b8101908080516040519392919084640100000000821115620001a157600080fd5b908301906020820185811115620001b757600080fd5b8251866020820283011164010000000082111715620001d557600080fd5b82525081516020918201928201910280838360005b8381101562000204578181015183820152602001620001ea565b50505050905001604052505050905060005b8151811015620003355760008282815181106200022f57fe5b60200260200101516001600160a01b0316734ddc2d193948926d02f9b1fe9e1daa0718270ed56001600160a01b031614620002e3578282815181106200027157fe5b60200260200101516001600160a01b0316636f307dc36040518163ffffffff1660e01b815260040160206040518083038186803b158015620002b257600080fd5b505afa158015620002c7573d6000803e3d6000fd5b505050506040513d6020811015620002de57600080fd5b505190505b828281518110620002f057fe5b6020908102919091018101516001600160a01b0392831660009081526002909252604090912080546001600160a01b0319169290911691909117905560010162000216565b505050565b828054600181600116156101000203166002900490600052602060002090601f016020900481019282620003725760008555620003bd565b82601f106200038d57805160ff1916838001178555620003bd565b82800160010185558215620003bd579182015b82811115620003bd578251825591602001919060010190620003a0565b50620003cb929150620003cf565b5090565b5b80821115620003cb5760008155600101620003d0565b60008060408385031215620003f9578182fd5b8251620004068162000424565b6020840151909250620004198162000424565b809150509250929050565b6001600160a01b03811681146200043a57600080fd5b50565b60805160601c60a05160601c612ec362000499600039806104df52806113ae52806114785280611d105280611de052806121d3528061227752508061044052806104ad528061058d5280610cf052806112845250612ec36000f3fe608060405234801561001057600080fd5b50600436106100f55760003560e01c8063912a185711610097578063eb40e60011610066578063eb40e600146101e9578063f14b5788146101fc578063f77c47911461020f578063ff0a30f014610217576100f5565b8063912a18571461019957806397bb9342146101ae5780639e12fef2146101b6578063d0d2d3a2146101d6576100f5565b80633550bd62116100d35780633550bd621461014b5780634deef6491461016b57806369940d791461017e5780637137f55214610186576100f5565b806306fdde03146100fa57806307b54c6f146101185780632361758514610138575b600080fd5b61010261022a565b60405161010f9190612cd4565b60405180910390f35b61012b610126366004612ad3565b6102b8565b60405161010f9190612d27565b61012b610146366004612ad3565b6102cb565b61015e610159366004612ad3565b6102d6565b60405161010f9190612cb5565b61012b610179366004612b88565b6102f1565b61015e610306565b61012b610194366004612b0b565b610316565b6101ac6101a7366004612b0b565b61043b565b005b6101ac6104a8565b6101c96101c4366004612ad3565b610505565b60405161010f9190612cc9565b6101ac6101e4366004612b43565b610510565b61015e6101f7366004612ad3565b610c68565b6101ac61020a366004612b43565b610c73565b61015e611282565b61012b610225366004612ad3565b6112a6565b6000805460408051602060026001851615610100026000190190941693909304601f810184900484028201840190925281815292918301828280156102b05780601f10610285576101008083540402835291602001916102b0565b820191906000526020600020905b81548152906001019060200180831161029357829003601f168201915b505050505081565b60006102c3826112b1565b90505b919050565b60006102c38261139c565b6002602052600090815260409020546001600160a01b031681565b60006102fd838361144f565b90505b92915050565b6000610310611473565b90505b90565b600080610322836115aa565b9050610433670de0b6b3a764000061042d836001600160a01b031663182df0f56040518163ffffffff1660e01b815260040160206040518083038186803b15801561036c57600080fd5b505afa158015610380573d6000803e3d6000fd5b505050506040513d602081101561039657600080fd5b5051604080517f70a082310000000000000000000000000000000000000000000000000000000081526001600160a01b038a811660048301529151918716916370a0823191602480820192602092909190829003018186803b1580156103fb57600080fd5b505afa15801561040f573d6000803e3d6000fd5b505050506040513d602081101561042557600080fd5b5051906115c8565b906115ec565b949350505050565b61046d7f00000000000000000000000000000000000000000000000000000000000000006001600160a01b0316611653565b6001600160a01b039182166000908152600260205260409020805473ffffffffffffffffffffffffffffffffffffffff191691909216179055565b6104da7f00000000000000000000000000000000000000000000000000000000000000006001600160a01b0316611653565b6105037f0000000000000000000000000000000000000000000000000000000000000000611778565b565b60006102c3826119a9565b60026001541415610568576040805162461bcd60e51b815260206004820152601f60248201527f5265656e7472616e637947756172643a207265656e7472616e742063616c6c00604482015290519081900360640190fd5b6002600155604080516313bc6d4b60e01b815233600482015290516001600160a01b037f000000000000000000000000000000000000000000000000000000000000000016916313bc6d4b916024808301926020929190829003018186803b1580156105d357600080fd5b505afa1580156105e7573d6000803e3d6000fd5b505050506040513d60208110156105fd57600080fd5b5051610650576040805162461bcd60e51b815260206004820152601960248201527f4f6e6c792073797374656d2063616e2063616c6c207468697300000000000000604482015290519081900360640190fd5b60006106678585610660876115aa565b86866119c9565b905061067281611b42565b600080600061068387876001611c14565b919450925090506001600160a01b0383161561084d5783600001516001600160a01b0316636bc195dd8484846040518463ffffffff1660e01b815260040180846001600160a01b0316815260200183815260200180602001828103825283818151815260200191508051906020019080838360005b838110156107105781810151838201526020016106f8565b50505050905090810190601f16801561073d5780820380516001836020036101000a031916815260200191505b50945050505050600060405180830381600087803b15801561075e57600080fd5b505af1158015610772573d6000803e3d6000fd5b505050506040513d6000823e601f3d908101601f19168201604052602081101561079b57600080fd5b81019080805160405193929190846401000000008211156107bb57600080fd5b9083019060208201858111156107d057600080fd5b82516401000000008111828201881017156107ea57600080fd5b82525081516020918201929091019080838360005b838110156108175781810151838201526020016107ff565b50505050905090810190601f1680156108445780820380516001836020036101000a031916815260200191505b50604052505050505b600080600061085d8b8b8b611d64565b92509250925086600001516001600160a01b0316636bc195dd8484846040518463ffffffff1660e01b815260040180846001600160a01b0316815260200183815260200180602001828103825283818151815260200191508051906020019080838360005b838110156108da5781810151838201526020016108c2565b50505050905090810190601f1680156109075780820380516001836020036101000a031916815260200191505b50945050505050600060405180830381600087803b15801561092857600080fd5b505af115801561093c573d6000803e3d6000fd5b505050506040513d6000823e601f3d908101601f19168201604052602081101561096557600080fd5b810190808051604051939291908464010000000082111561098557600080fd5b90830190602082018581111561099a57600080fd5b82516401000000008111828201881017156109b457600080fd5b82525081516020918201929091019080838360005b838110156109e15781810151838201526020016109c9565b50505050905090810190601f168015610a0e5780820380516001836020036101000a031916815260200191505b50604052505050506000806000610a248e611dd7565b919450925090506001600160a01b03831615610bee5789600001516001600160a01b0316636bc195dd8484846040518463ffffffff1660e01b815260040180846001600160a01b0316815260200183815260200180602001828103825283818151815260200191508051906020019080838360005b83811015610ab1578181015183820152602001610a99565b50505050905090810190601f168015610ade5780820380516001836020036101000a031916815260200191505b50945050505050600060405180830381600087803b158015610aff57600080fd5b505af1158015610b13573d6000803e3d6000fd5b505050506040513d6000823e601f3d908101601f191682016040526020811015610b3c57600080fd5b8101908080516040519392919084640100000000821115610b5c57600080fd5b908301906020820185811115610b7157600080fd5b8251640100000000811182820188101715610b8b57600080fd5b82525081516020918201929091019080838360005b83811015610bb8578181015183820152602001610ba0565b50505050905090810190601f168015610be55780820380516001836020036101000a031916815260200191505b50604052505050505b610bf78a611f15565b8c6001600160a01b03168a600001516001600160a01b03168b602001516001600160a01b03167fd17d95895382b096bb1f89ed05a71c3e014d5ecf25944c8f1f27f07b2b9d31948f6040518082815260200191505060405180910390a4505060018055505050505050505050505050565b60006102c3826115aa565b60026001541415610ccb576040805162461bcd60e51b815260206004820152601f60248201527f5265656e7472616e637947756172643a207265656e7472616e742063616c6c00604482015290519081900360640190fd5b6002600155604080516313bc6d4b60e01b815233600482015290516001600160a01b037f000000000000000000000000000000000000000000000000000000000000000016916313bc6d4b916024808301926020929190829003018186803b158015610d3657600080fd5b505afa158015610d4a573d6000803e3d6000fd5b505050506040513d6020811015610d6057600080fd5b5051610db3576040805162461bcd60e51b815260206004820152601960248201527f4f6e6c792073797374656d2063616e2063616c6c207468697300000000000000604482015290519081900360640190fd5b6000610dc38585610660876115aa565b9050610dce81612006565b6000806000610ddf87876000611c14565b919450925090506001600160a01b03831615610fa95783600001516001600160a01b0316636bc195dd8484846040518463ffffffff1660e01b815260040180846001600160a01b0316815260200183815260200180602001828103825283818151815260200191508051906020019080838360005b83811015610e6c578181015183820152602001610e54565b50505050905090810190601f168015610e995780820380516001836020036101000a031916815260200191505b50945050505050600060405180830381600087803b158015610eba57600080fd5b505af1158015610ece573d6000803e3d6000fd5b505050506040513d6000823e601f3d908101601f191682016040526020811015610ef757600080fd5b8101908080516040519392919084640100000000821115610f1757600080fd5b908301906020820185811115610f2c57600080fd5b8251640100000000811182820188101715610f4657600080fd5b82525081516020918201929091019080838360005b83811015610f73578181015183820152602001610f5b565b50505050905090810190601f168015610fa05780820380516001836020036101000a031916815260200191505b50604052505050505b6001600160a01b038716156110425783516001600160a01b03166397ccdc60610fd1896115aa565b89896040518463ffffffff1660e01b815260040180846001600160a01b03168152602001836001600160a01b031681526020018281526020019350505050600060405180830381600087803b15801561102957600080fd5b505af115801561103d573d6000803e3d6000fd5b505050505b60008060006110528b8b8b612091565b92509250925086600001516001600160a01b0316636bc195dd8484846040518463ffffffff1660e01b815260040180846001600160a01b0316815260200183815260200180602001828103825283818151815260200191508051906020019080838360005b838110156110cf5781810151838201526020016110b7565b50505050905090810190601f1680156110fc5780820380516001836020036101000a031916815260200191505b50945050505050600060405180830381600087803b15801561111d57600080fd5b505af1158015611131573d6000803e3d6000fd5b505050506040513d6000823e601f3d908101601f19168201604052602081101561115a57600080fd5b810190808051604051939291908464010000000082111561117a57600080fd5b90830190602082018581111561118f57600080fd5b82516401000000008111828201881017156111a957600080fd5b82525081516020918201929091019080838360005b838110156111d65781810151838201526020016111be565b50505050905090810190601f1680156112035780820380516001836020036101000a031916815260200191505b50604052505050506112148761217b565b896001600160a01b031687600001516001600160a01b031688602001516001600160a01b03167fd17d95895382b096bb1f89ed05a71c3e014d5ecf25944c8f1f27f07b2b9d31948c6040518082815260200191505060405180910390a4505060018055505050505050505050565b7f000000000000000000000000000000000000000000000000000000000000000081565b60006102c3826121ce565b6001600160a01b0380821660009081526002602090815260408083205481517f182df0f50000000000000000000000000000000000000000000000000000000081529151939416928492849263182df0f59260048083019392829003018186803b15801561131e57600080fd5b505afa158015611332573d6000803e3d6000fd5b505050506040513d602081101561134857600080fd5b5051905060006113606001600160a01b038616612855565b9050600881101561138957600881900361137e83600a83900a6115c8565b9450505050506102c6565b600719810161137e83600a83900a6115ec565b6000806113a8836115aa565b905060007f00000000000000000000000000000000000000000000000000000000000000006001600160a01b0316638e8f294b836040518263ffffffff1660e01b815260040180826001600160a01b03168152602001915050604080518083038186803b15801561141857600080fd5b505afa15801561142c573d6000803e3d6000fd5b505050506040513d604081101561144257600080fd5b5060200151949350505050565b60008061145b846112b1565b9050610433670de0b6b3a764000061042d83866115c8565b6000807f00000000000000000000000000000000000000000000000000000000000000006001600160a01b0316633605b51b6040518163ffffffff1660e01b815260040160006040518083038186803b1580156114cf57600080fd5b505afa1580156114e3573d6000803e3d6000fd5b505050506040513d6000823e601f3d908101601f1916820160405261150b9190810190612bb3565b8051909150156115a2578060008151811061152257fe5b60200260200101516001600160a01b031663f7c618c16040518163ffffffff1660e01b815260040160206040518083038186803b15801561156257600080fd5b505afa158015611576573d6000803e3d6000fd5b505050506040513d601f19601f8201168201806040525081019061159a9190612aef565b915050610313565b600091505090565b6001600160a01b039081166000908152600260205260409020541690565b60008215806115e3575050818102818382816115e057fe5b04145b61030057600080fd5b6000808211611642576040805162461bcd60e51b815260206004820152601a60248201527f536166654d6174683a206469766973696f6e206279207a65726f000000000000604482015290519081900360640190fd5b81838161164b57fe5b049392505050565b806001600160a01b0316638da5cb5b6040518163ffffffff1660e01b815260040160206040518083038186803b15801561168c57600080fd5b505afa1580156116a0573d6000803e3d6000fd5b505050506040513d60208110156116b657600080fd5b50516001600160a01b031633148061173a5750806001600160a01b0316638d97e0436040518163ffffffff1660e01b815260040160206040518083038186803b15801561170257600080fd5b505afa158015611716573d6000803e3d6000fd5b505050506040513d602081101561172c57600080fd5b50516001600160a01b031633145b6117755760405162461bcd60e51b815260040180806020018281038252602a815260200180612e0d602a913960400191505060405180910390fd5b50565b6000816001600160a01b031663b0772d0b6040518163ffffffff1660e01b815260040160006040518083038186803b1580156117b357600080fd5b505afa1580156117c7573d6000803e3d6000fd5b505050506040513d6000823e601f3d908101601f1916820160405260208110156117f057600080fd5b810190808051604051939291908464010000000082111561181057600080fd5b90830190602082018581111561182557600080fd5b825186602082028301116401000000008211171561184257600080fd5b82525081516020918201928201910280838360005b8381101561186f578181015183820152602001611857565b50505050905001604052505050905060005b81518110156119a457600082828151811061189857fe5b60200260200101516001600160a01b0316734ddc2d193948926d02f9b1fe9e1daa0718270ed56001600160a01b031614611947578282815181106118d857fe5b60200260200101516001600160a01b0316636f307dc36040518163ffffffff1660e01b815260040160206040518083038186803b15801561191857600080fd5b505afa15801561192c573d6000803e3d6000fd5b505050506040513d602081101561194257600080fd5b505190505b82828151811061195357fe5b6020908102919091018101516001600160a01b03928316600090815260029092526040909120805473ffffffffffffffffffffffffffffffffffffffff191692909116919091179055600101611881565b505050565b6001600160a01b0390811660009081526002602052604090205416151590565b6119d1612a5f565b6119d9612a5f565b6001600160a01b038716808252604080517f56ba88b800000000000000000000000000000000000000000000000000000000815290516356ba88b891600480820192602092909190829003018186803b158015611a3557600080fd5b505afa158015611a49573d6000803e3d6000fd5b505050506040513d6020811015611a5f57600080fd5b50516001600160a01b039081166020830152868116604083015285166060820152611a8a8787610316565b60a08201526001600160a01b03861615611b1c57856001600160a01b03166370a08231886040518263ffffffff1660e01b815260040180826001600160a01b0316815260200191505060206040518083038186803b158015611aeb57600080fd5b505afa158015611aff573d6000803e3d6000fd5b505050506040513d6020811015611b1557600080fd5b5051611b28565b866001600160a01b0316315b60c082015260808101939093525060e08201529392505050565b611b4f81604001516119a9565b611b8a5760405162461bcd60e51b8152600401808060200182810382526023815260200180612e6b6023913960400191505060405180910390fd5b6000816080015111611bcd5760405162461bcd60e51b8152600401808060200182810382526034815260200180612e376034913960400191505060405180910390fd5b80608001518160a0015110156117755760405162461bcd60e51b8152600401808060200182810382526031815260200180612d466031913960400191505060405180910390fd5b600080606083611d4457604080516001808252818301909252600091602080830190803683375050506001600160a01b03888116600090815260026020526040812054835193945090911691839190611c6957fe5b6001600160a01b0390921660209283029190910182015260405160248101828152835160448301528351600093859383926064909101918581019102808383895b83811015611cc2578181015183820152602001611caa565b50506040805193909501838103601f19018452909452506020810180517fc2998238000000000000000000000000000000000000000000000000000000006001600160e01b039091161790527f00000000000000000000000000000000000000000000000000000000000000009a50600099509750611d5b9650505050505050565b505060408051602081019091526000808252915081905b93509350939050565b60408051602480820193909352815180820390930183526044018152602080830180516001600160e01b03167f852a12e3000000000000000000000000000000000000000000000000000000001790526001600160a01b0393841660009081526002909152908120549092169391925090565b600080606060007f00000000000000000000000000000000000000000000000000000000000000006001600160a01b0316633605b51b6040518163ffffffff1660e01b815260040160006040518083038186803b158015611e3757600080fd5b505afa158015611e4b573d6000803e3d6000fd5b505050506040513d6000823e601f3d908101601f19168201604052611e739190810190612bb3565b805190915015611ef65780600081518110611e8a57fe5b6020026020010151600086604051602401611ea59190612cb5565b60408051601f198184030181529190526020810180516001600160e01b03167fef5cfb8c0000000000000000000000000000000000000000000000000000000017905291955093509150611f0e9050565b50506040805160208101909152600080825292508291505b9193909250565b60408101516000906001600160a01b031615611fb15781604001516001600160a01b03166370a0823183600001516040518263ffffffff1660e01b815260040180826001600160a01b0316815260200191505060206040518083038186803b158015611f8057600080fd5b505afa158015611f94573d6000803e3d6000fd5b505050506040513d6020811015611faa57600080fd5b5051611fbe565b81516001600160a01b0316315b90508160c0015181116120025760405162461bcd60e51b815260040180806020018281038252602f815260200180612da7602f913960400191505060405180910390fd5b5050565b61201381604001516119a9565b61204e5760405162461bcd60e51b8152600401808060200182810382526023815260200180612e6b6023913960400191505060405180910390fd5b60008160800151116117755760405162461bcd60e51b8152600401808060200182810382526037815260200180612dd66037913960400191505060405180910390fd5b6000806060806001600160a01b0386166120ed57506040805160048152602481019091526020810180516001600160e01b03167f1249c58b00000000000000000000000000000000000000000000000000000000179052612140565b506040805160248082018790528251808303909101815260449091019091526020810180516001600160e01b03167fa0712d68000000000000000000000000000000000000000000000000000000001790525b6001600160a01b03808716600081815260026020526040902054909116901561216a57600061216c565b855b90989097509095509350505050565b8060a0015161219282600001518360400151610316565b116117755760405162461bcd60e51b8152600401808060200182810382526030815260200180612d776030913960400191505060405180910390fd5b6000807f00000000000000000000000000000000000000000000000000000000000000006001600160a01b0316633605b51b6040518163ffffffff1660e01b815260040160006040518083038186803b15801561222a57600080fd5b505afa15801561223e573d6000803e3d6000fd5b505050506040513d6000823e601f3d908101601f191682016040526122669190810190612bb3565b90506000808251111561284e5760007f00000000000000000000000000000000000000000000000000000000000000006001600160a01b031663b0772d0b6040518163ffffffff1660e01b815260040160006040518083038186803b1580156122ce57600080fd5b505afa1580156122e2573d6000803e3d6000fd5b505050506040513d6000823e601f3d908101601f1916820160405261230a9190810190612bb3565b9050600061231786612986565b905060005b825181101561284a57600083828151811061233357fe5b60200260200101516001600160a01b03166370a08231896040518263ffffffff1660e01b81526004016123669190612cb5565b60206040518083038186803b15801561237e57600080fd5b505afa158015612392573d6000803e3d6000fd5b505050506040513d601f19601f820116820180604052508101906123b69190612c68565b905060008082156125a0576000808786815181106123d057fe5b60200260200101516001600160a01b031663c37f68e28d6040518263ffffffff1660e01b81526004016124039190612cb5565b60806040518083038186803b15801561241b57600080fd5b505afa15801561242f573d6000803e3d6000fd5b505050506040513d601f19601f820116820180604052508101906124539190612c80565b93505092505061246c8183612a0290919063ffffffff16565b94508960008151811061247b57fe5b60200260200101516001600160a01b0316636aa875b589888151811061249d57fe5b60200260200101516040518263ffffffff1660e01b81526004016124c19190612cb5565b60206040518083038186803b1580156124d957600080fd5b505afa1580156124ed573d6000803e3d6000fd5b505050506040513d601f19601f820116820180604052508101906125119190612c68565b935087868151811061251f57fe5b60200260200101516001600160a01b0316633b1d21a26040518163ffffffff1660e01b815260040160206040518083038186803b15801561255f57600080fd5b505afa158015612573573d6000803e3d6000fd5b505050506040513d601f19601f820116820180604052508101906125979190612c68565b925050506127f3565b60008685815181106125ae57fe5b60200260200101516001600160a01b031663f8f9da286040518163ffffffff1660e01b815260040160206040518083038186803b1580156125ee57600080fd5b505afa158015612602573d6000803e3d6000fd5b505050506040513d601f19601f820116820180604052508101906126269190612c68565b11156127f35785848151811061263857fe5b60200260200101516001600160a01b031663c37f68e28b6040518263ffffffff1660e01b815260040161266b9190612cb5565b60806040518083038186803b15801561268357600080fd5b505afa158015612697573d6000803e3d6000fd5b505050506040513d601f19601f820116820180604052508101906126bb9190612c80565b50945050831590506127f357876000815181106126d457fe5b60200260200101516001600160a01b031663f4a433c08786815181106126f657fe5b60200260200101516040518263ffffffff1660e01b815260040161271a9190612cb5565b60206040518083038186803b15801561273257600080fd5b505afa158015612746573d6000803e3d6000fd5b505050506040513d601f19601f8201168201806040525081019061276a9190612c68565b915085848151811061277857fe5b60200260200101516001600160a01b03166347bd37186040518163ffffffff1660e01b815260040160206040518083038186803b1580156127b857600080fd5b505afa1580156127cc573d6000803e3d6000fd5b505050506040513d601f19601f820116820180604052508101906127f09190612c68565b90505b6000831180156128035750600082115b801561280f5750600081115b1561283f5761283c6128358661282f6128288786612a1a565b8690612a02565b906115c8565b8890612a32565b96505b50505060010161231c565b5050505b9392505050565b600061286082612a42565b1561286d575060126102c6565b60408051600481526024810182526020810180516001600160e01b03167f313ce567000000000000000000000000000000000000000000000000000000001781529151815160009384936001600160a01b0388169361138893919290918291908083835b602083106128f05780518252601f1990920191602091820191016128d1565b6001836020036101000a0380198251168184511680821785525050505050509050019150506000604051808303818686fa925050503d8060008114612951576040519150601f19603f3d011682016040523d82523d6000602084013e612956565b606091505b509150915081612967576012610433565b80806020019051602081101561297c57600080fd5b5051949350505050565b6000808290506000816001600160a01b031663bf1dcfe26040518163ffffffff1660e01b815260040160e06040518083038186803b1580156129c757600080fd5b505afa1580156129db573d6000803e3d6000fd5b505050506040513d60e08110156129f157600080fd5b506080015190506104334282612a4f565b60006102fd670de0b6b3a764000061042d85856115c8565b60006102fd8261042d85670de0b6b3a76400006115c8565b8082018281101561030057600080fd5b6001600160a01b03161590565b8082038281111561030057600080fd5b60405180610100016040528060006001600160a01b0316815260200160006001600160a01b0316815260200160006001600160a01b0316815260200160006001600160a01b03168152602001600081526020016000815260200160008152602001600081525090565b80516102c681612d30565b600060208284031215612ae4578081fd5b813561284e81612d30565b600060208284031215612b00578081fd5b815161284e81612d30565b60008060408385031215612b1d578081fd5b8235612b2881612d30565b91506020830135612b3881612d30565b809150509250929050565b60008060008060808587031215612b58578182fd5b8435612b6381612d30565b93506020850135612b7381612d30565b93969395505050506040820135916060013590565b60008060408385031215612b9a578182fd5b8235612ba581612d30565b946020939093013593505050565b60006020808385031215612bc5578182fd5b825167ffffffffffffffff80821115612bdc578384fd5b818501915085601f830112612bef578384fd5b815181811115612bfb57fe5b83810260405185828201018181108582111715612c1457fe5b604052828152858101935084860182860187018a1015612c32578788fd5b8795505b83861015612c5b57612c4781612ac8565b855260019590950194938601938601612c36565b5098975050505050505050565b600060208284031215612c79578081fd5b5051919050565b60008060008060808587031215612c95578384fd5b505082516020840151604085015160609095015191969095509092509050565b6001600160a01b0391909116815260200190565b901515815260200190565b6000602080835283518082850152825b81811015612d0057858101830151858201604001528201612ce4565b81811115612d115783604083870101525b50601f01601f1916929092016040019392505050565b90815260200190565b6001600160a01b038116811461177557600080fdfe5468652067617264656e20646f6573206e6f74206861766520656e6f75676820696e766573746d656e7420746f6b656e735468652067617264656e20646964206e6f7420726563656976652074686520696e766573746d656e7420746f6b656e735468652067617264656e20646964206e6f742072657475726e2074686520696e766573746d656e7420746f6b656e734d696e20696e766573746d656e7420746f6b656e7320746f2072656365697665206d7573742062652067726561746572207468616e20304f6e6c7920676f7665726e616e6365206f7220656d657267656e63792063616e2063616c6c2074686973496e766573746d656e7420746f6b656e7320746f2065786368616e6765206d7573742062652067726561746572207468616e203054686520696e766573746d656e742061646472657373206973206e6f742076616c6964a2646970667358221220e700719a9a6054bc485826d553a07565c3495754bda3c6f908a1e83bb36a01cb64736f6c63430007060033",
  "devdoc": {
    "author": "Babylon Finance Class that houses Fuse lending logic.",
    "kind": "dev",
    "methods": {
      "constructor": {
        "params": {
          "_comptroller": "Address of the fuse pool comptroller",
          "_controller": "Address of the controller"
        }
      },
      "getExpectedShares(address,uint256)": {
        "params": {
          "_numTokensToSupply": "Amount of ERC20 tokens to supply"
        },
        "returns": {
          "_0": "uint256                           Amount of supply tokens to receive"
        }
      },
      "getRewardToken()": {
        "returns": {
          "_0": "address       Address of the reward token"
        }
      },
      "getRewardsAccrued(address)": {
        "params": {
          "_strategy": "Address of the strategy"
        },
        "returns": {
          "_0": "address       Address of the reward token"
        }
      },
      "isInvestment(address)": {
        "params": {
          "_investmentAddress": "Investment address to check"
        },
        "returns": {
          "_0": "bool                              True if the address is a investment"
        }
      }
    },
    "title": "FuseLendIntegration",
    "version": 1
  },
  "userdoc": {
    "kind": "user",
    "methods": {
      "constructor": {
        "notice": "Creates the integration"
      },
      "getExpectedShares(address,uint256)": {
        "notice": "Gets the amount of cTokens expected to get after depositing ERC20 asset."
      },
      "getRewardToken()": {
        "notice": "Returns the reward token"
      },
      "getRewardsAccrued(address)": {
        "notice": "Returns the number of reward tokens accrued"
      },
      "isInvestment(address)": {
        "notice": "Checks whether an investment address is valid"
      }
    },
    "version": 1
  },
  "storageLayout": {
    "storage": [
      {
        "astId": 27081,
        "contract": "contracts/integrations/lend/FuseLendIntegration.sol:FuseLendIntegration",
        "label": "name",
        "offset": 0,
        "slot": "0",
        "type": "t_string_storage"
      },
      {
        "astId": 6418,
        "contract": "contracts/integrations/lend/FuseLendIntegration.sol:FuseLendIntegration",
        "label": "_status",
        "offset": 0,
        "slot": "1",
        "type": "t_uint256"
      },
      {
        "astId": 29004,
        "contract": "contracts/integrations/lend/FuseLendIntegration.sol:FuseLendIntegration",
        "label": "assetToCToken",
        "offset": 0,
        "slot": "2",
        "type": "t_mapping(t_address,t_address)"
      }
    ],
    "types": {
      "t_address": {
        "encoding": "inplace",
        "label": "address",
        "numberOfBytes": "20"
      },
      "t_mapping(t_address,t_address)": {
        "encoding": "mapping",
        "key": "t_address",
        "label": "mapping(address => address)",
        "numberOfBytes": "32",
        "value": "t_address"
      },
      "t_string_storage": {
        "encoding": "bytes",
        "label": "string",
        "numberOfBytes": "32"
      },
      "t_uint256": {
        "encoding": "inplace",
        "label": "uint256",
        "numberOfBytes": "32"
      }
    }
  }
}