{
  "address": "0x6392620EbD21a536FD8C76dddD1DDfE57046E4cc",
  "abi": [
    {
      "inputs": [
        {
          "internalType": "contract IBabController",
          "name": "_controller",
          "type": "address"
        }
      ],
      "stateMutability": "nonpayable",
      "type": "constructor"
    },
    {
      "anonymous": false,
      "inputs": [
        {
          "indexed": true,
          "internalType": "address",
          "name": "_strategy",
          "type": "address"
        },
        {
          "indexed": true,
          "internalType": "address",
          "name": "_garden",
          "type": "address"
        },
        {
          "indexed": false,
          "internalType": "address",
          "name": "_pool",
          "type": "address"
        },
        {
          "indexed": false,
          "internalType": "uint256",
          "name": "_poolTokensOut",
          "type": "uint256"
        }
      ],
      "name": "PoolEntered",
      "type": "event"
    },
    {
      "anonymous": false,
      "inputs": [
        {
          "indexed": true,
          "internalType": "address",
          "name": "_strategy",
          "type": "address"
        },
        {
          "indexed": true,
          "internalType": "address",
          "name": "_garden",
          "type": "address"
        },
        {
          "indexed": false,
          "internalType": "address",
          "name": "_pool",
          "type": "address"
        },
        {
          "indexed": false,
          "internalType": "uint256",
          "name": "_poolTokensIn",
          "type": "uint256"
        }
      ],
      "name": "PoolExited",
      "type": "event"
    },
    {
      "inputs": [],
      "name": "controller",
      "outputs": [
        {
          "internalType": "contract IBabController",
          "name": "",
          "type": "address"
        }
      ],
      "stateMutability": "view",
      "type": "function"
    },
    {
      "inputs": [
        {
          "internalType": "address",
          "name": "_strategy",
          "type": "address"
        },
        {
          "internalType": "bytes",
          "name": "_pool",
          "type": "bytes"
        },
        {
          "internalType": "uint256",
          "name": "_poolTokensIn",
          "type": "uint256"
        },
        {
          "internalType": "address[]",
          "name": "_tokensOut",
          "type": "address[]"
        },
        {
          "internalType": "uint256[]",
          "name": "_minAmountsOut",
          "type": "uint256[]"
        }
      ],
      "name": "exitPool",
      "outputs": [],
      "stateMutability": "nonpayable",
      "type": "function"
    },
    {
      "inputs": [
        {
          "internalType": "address",
          "name": "_pool",
          "type": "address"
        }
      ],
      "name": "getLPToken",
      "outputs": [
        {
          "internalType": "address",
          "name": "",
          "type": "address"
        }
      ],
      "stateMutability": "view",
      "type": "function"
    },
    {
      "inputs": [
        {
          "internalType": "address",
          "name": "_pool",
          "type": "address"
        }
      ],
      "name": "getPool",
      "outputs": [
        {
          "internalType": "address",
          "name": "",
          "type": "address"
        }
      ],
      "stateMutability": "view",
      "type": "function"
    },
    {
      "inputs": [
        {
          "internalType": "bytes",
          "name": "_pool",
          "type": "bytes"
        },
        {
          "internalType": "uint256",
          "name": "_liquidity",
          "type": "uint256"
        }
      ],
      "name": "getPoolMinAmountsOut",
      "outputs": [
        {
          "internalType": "uint256[]",
          "name": "_minAmountsOut",
          "type": "uint256[]"
        }
      ],
      "stateMutability": "view",
      "type": "function"
    },
    {
      "inputs": [
        {
          "internalType": "bytes",
          "name": "_pool",
          "type": "bytes"
        },
        {
          "internalType": "bool",
          "name": "",
          "type": "bool"
        }
      ],
      "name": "getPoolTokens",
      "outputs": [
        {
          "internalType": "address[]",
          "name": "",
          "type": "address[]"
        }
      ],
      "stateMutability": "view",
      "type": "function"
    },
    {
      "inputs": [
        {
          "internalType": "bytes",
          "name": "",
          "type": "bytes"
        },
        {
          "internalType": "address",
          "name": "",
          "type": "address"
        },
        {
          "internalType": "uint256",
          "name": "",
          "type": "uint256"
        }
      ],
      "name": "getPoolTokensOut",
      "outputs": [
        {
          "internalType": "uint256",
          "name": "",
          "type": "uint256"
        }
      ],
      "stateMutability": "pure",
      "type": "function"
    },
    {
      "inputs": [
        {
          "internalType": "bytes",
          "name": "_pool",
          "type": "bytes"
        }
      ],
      "name": "getPoolWeights",
      "outputs": [
        {
          "internalType": "uint256[]",
          "name": "",
          "type": "uint256[]"
        }
      ],
      "stateMutability": "view",
      "type": "function"
    },
    {
      "inputs": [
        {
          "internalType": "bytes",
          "name": "_pool",
          "type": "bytes"
        }
      ],
      "name": "getPricePerShare",
      "outputs": [
        {
          "internalType": "uint256",
          "name": "",
          "type": "uint256"
        }
      ],
      "stateMutability": "view",
      "type": "function"
    },
    {
      "inputs": [
        {
          "internalType": "bytes",
          "name": "_pool",
          "type": "bytes"
        }
      ],
      "name": "getRewardTokens",
      "outputs": [
        {
          "internalType": "address[]",
          "name": "",
          "type": "address[]"
        }
      ],
      "stateMutability": "view",
      "type": "function"
    },
    {
      "inputs": [
        {
          "internalType": "bytes",
          "name": "_pool",
          "type": "bytes"
        },
        {
          "internalType": "uint256",
          "name": "_i",
          "type": "uint256"
        }
      ],
      "name": "getUnderlyingAndRate",
      "outputs": [
        {
          "internalType": "address",
          "name": "",
          "type": "address"
        },
        {
          "internalType": "uint256",
          "name": "",
          "type": "uint256"
        }
      ],
      "stateMutability": "view",
      "type": "function"
    },
    {
      "inputs": [
        {
          "internalType": "bytes",
          "name": "_pool",
          "type": "bytes"
        }
      ],
      "name": "isPool",
      "outputs": [
        {
          "internalType": "bool",
          "name": "",
          "type": "bool"
        }
      ],
      "stateMutability": "view",
      "type": "function"
    },
    {
      "inputs": [
        {
          "internalType": "address",
          "name": "_strategy",
          "type": "address"
        },
        {
          "internalType": "bytes",
          "name": "_pool",
          "type": "bytes"
        },
        {
          "internalType": "uint256",
          "name": "_poolTokensOut",
          "type": "uint256"
        },
        {
          "internalType": "address[]",
          "name": "_tokensIn",
          "type": "address[]"
        },
        {
          "internalType": "uint256[]",
          "name": "_maxAmountsIn",
          "type": "uint256[]"
        }
      ],
      "name": "joinPool",
      "outputs": [],
      "stateMutability": "nonpayable",
      "type": "function"
    },
    {
      "inputs": [],
      "name": "name",
      "outputs": [
        {
          "internalType": "string",
          "name": "",
          "type": "string"
        }
      ],
      "stateMutability": "view",
      "type": "function"
    },
    {
      "inputs": [
        {
          "internalType": "bytes",
          "name": "",
          "type": "bytes"
        }
      ],
      "name": "poolWeightsByPrice",
      "outputs": [
        {
          "internalType": "bool",
          "name": "",
          "type": "bool"
        }
      ],
      "stateMutability": "pure",
      "type": "function"
    },
    {
      "inputs": [
        {
          "internalType": "address",
          "name": "_pool",
          "type": "address"
        }
      ],
      "name": "totalSupply",
      "outputs": [
        {
          "internalType": "uint256",
          "name": "",
          "type": "uint256"
        }
      ],
      "stateMutability": "view",
      "type": "function"
    }
  ],
  "transactionHash": "0x5498634826145dea594a405ed55b06837a3407b07e3e065940ffb78deb2d1e26",
  "args": [
    "0xD4a5b5fcB561dAF3aDF86F8477555B92FBa43b5F"
  ],
  "numDeployments": 1,
  "solcInputHash": "1685f18bc0c8b84c8ae8326407ba769c",
  "bytecode": "0x60a06040523480156200001157600080fd5b506040516200265038038062002650833981810160405260208110156200003757600080fd5b505160408051808201909152600581526467616d6d6160d81b60208201528181816001600160a01b038116620000b4576040805162461bcd60e51b815260206004820152601a60248201527f436f6e74726f6c6c6572206d75737420626520646566696e6564000000000000604482015290519081900360640190fd5b8151620000c990600090602085019062000136565b5060601b6001600160601b031916608052505060018055506001600160a01b0381166200012f576040805162461bcd60e51b815260206004820152600f60248201526e696e76616c6964206164647265737360881b604482015290519081900360640190fd5b50620001e2565b828054600181600116156101000203166002900490600052602060002090601f0160209004810192826200016e5760008555620001b9565b82601f106200018957805160ff1916838001178555620001b9565b82800160010185558215620001b9579182015b82811115620001b95782518255916020019190600101906200019c565b50620001c7929150620001cb565b5090565b5b80821115620001c75760008155600101620001cc565b60805160601c6124466200020a60003980610afa5280610f96528061181452506124466000f3fe608060405234801561001057600080fd5b50600436106101005760003560e01c80637a6731ab11610097578063d87517b411610066578063d87517b4146107ea578063e022710714610858578063e4dc2aa4146108c8578063f77c4791146108ee57610100565b80637a6731ab146105c9578063bbe4f6db14610387578063bc82b61d146106eb578063c9d5066b1461077c57610100565b80634fc99ed6116100d35780634fc99ed61461038757806354f070c1146103c957806364092159146104ed578063662952e01461055b57610100565b806306fdde031461010557806307ec3d92146101825780631b7e75b71461024057806326062493146102cf575b600080fd5b61010d6108f6565b6040805160208082528351818301528351919283929083019185019080838360005b8381101561014757818101518382015260200161012f565b50505050905090810190601f1680156101745780820380516001836020036101000a031916815260200191505b509250505060405180910390f35b6101f06004803603602081101561019857600080fd5b810190602081018135600160201b8111156101b257600080fd5b8201836020820111156101c457600080fd5b803590602001918460018302840111600160201b831117156101e557600080fd5b509092509050610984565b60408051602080825283518183015283519192839290830191858101910280838360005b8381101561022c578181015183820152602001610214565b505050509050019250505060405180910390f35b6102bd6004803603606081101561025657600080fd5b810190602081018135600160201b81111561027057600080fd5b82018360208201111561028257600080fd5b803590602001918460018302840111600160201b831117156102a357600080fd5b91935091506001600160a01b038135169060200135610a5d565b60408051918252519081900360200190f35b610373600480360360208110156102e557600080fd5b810190602081018135600160201b8111156102ff57600080fd5b82018360208201111561031157600080fd5b803590602001918460018302840111600160201b8311171561033257600080fd5b91908080601f016020809104026020016040519081016040528093929190818152602001838380828437600092019190915250929550610a67945050505050565b604080519115158252519081900360200190f35b6103ad6004803603602081101561039d57600080fd5b50356001600160a01b0316610a72565b604080516001600160a01b039092168252519081900360200190f35b6104eb600480360360a08110156103df57600080fd5b6001600160a01b038235169190810190604081016020820135600160201b81111561040957600080fd5b82018360208201111561041b57600080fd5b803590602001918460018302840111600160201b8311171561043c57600080fd5b91939092823592604081019060200135600160201b81111561045d57600080fd5b82018360208201111561046f57600080fd5b803590602001918460208302840111600160201b8311171561049057600080fd5b919390929091602081019035600160201b8111156104ad57600080fd5b8201836020820111156104bf57600080fd5b803590602001918460208302840111600160201b831117156104e057600080fd5b509092509050610a7d565b005b6103736004803603602081101561050357600080fd5b810190602081018135600160201b81111561051d57600080fd5b82018360208201111561052f57600080fd5b803590602001918460018302840111600160201b8311171561055057600080fd5b509092509050610efe565b6102bd6004803603602081101561057157600080fd5b810190602081018135600160201b81111561058b57600080fd5b82018360208201111561059d57600080fd5b803590602001918460018302840111600160201b831117156105be57600080fd5b509092509050610f06565b6104eb600480360360a08110156105df57600080fd5b6001600160a01b038235169190810190604081016020820135600160201b81111561060957600080fd5b82018360208201111561061b57600080fd5b803590602001918460018302840111600160201b8311171561063c57600080fd5b91939092823592604081019060200135600160201b81111561065d57600080fd5b82018360208201111561066f57600080fd5b803590602001918460208302840111600160201b8311171561069057600080fd5b919390929091602081019035600160201b8111156106ad57600080fd5b8201836020820111156106bf57600080fd5b803590602001918460208302840111600160201b831117156106e057600080fd5b509092509050610f19565b6107596004803603604081101561070157600080fd5b810190602081018135600160201b81111561071b57600080fd5b82018360208201111561072d57600080fd5b803590602001918460018302840111600160201b8311171561074e57600080fd5b9193509150356114c5565b604080516001600160a01b03909316835260208301919091528051918290030190f35b6101f06004803603604081101561079257600080fd5b810190602081018135600160201b8111156107ac57600080fd5b8201836020820111156107be57600080fd5b803590602001918460018302840111600160201b831117156107df57600080fd5b9193509150356114df565b6101f06004803603602081101561080057600080fd5b810190602081018135600160201b81111561081a57600080fd5b82018360208201111561082c57600080fd5b803590602001918460018302840111600160201b8311171561084d57600080fd5b50909250905061168a565b6101f06004803603604081101561086e57600080fd5b810190602081018135600160201b81111561088857600080fd5b82018360208201111561089a57600080fd5b803590602001918460018302840111600160201b831117156108bb57600080fd5b91935091503515156116ab565b6102bd600480360360208110156108de57600080fd5b50356001600160a01b0316611807565b6103ad611812565b6000805460408051602060026001851615610100026000190190941693909304601f8101849004840282018401909252818152929183018282801561097c5780601f106109515761010080835404028352916020019161097c565b820191906000526020600020905b81548152906001019060200180831161095f57829003601f168201915b505050505081565b606060006109928484611836565b6040805160028082526060820183529293506000929091602083019080368337019050509050816001600160a01b031663c4a7761e6040518163ffffffff1660e01b8152600401604080518083038186803b1580156109f057600080fd5b505afa158015610a04573d6000803e3d6000fd5b505050506040513d6040811015610a1a57600080fd5b50805160209091015182518390600090610a3057fe5b6020026020010183600181518110610a4457fe5b6020908102919091010191909152529150505b92915050565b6001949350505050565b6000610a578261185a565b6000610a57826118d9565b60026001541415610ad5576040805162461bcd60e51b815260206004820152601f60248201527f5265656e7472616e637947756172643a207265656e7472616e742063616c6c00604482015290519081900360640190fd5b6002600155604080516313bc6d4b60e01b815233600482015290516001600160a01b037f000000000000000000000000000000000000000000000000000000000000000016916313bc6d4b916024808301926020929190829003018186803b158015610b4057600080fd5b505afa158015610b54573d6000803e3d6000fd5b505050506040513d6020811015610b6a57600080fd5b5051610bbd576040805162461bcd60e51b815260206004820152601960248201527f4f6e6c792073797374656d2063616e2063616c6c207468697300000000000000604482015290519081900360640190fd5b6000610bc98888611836565b90506000610bdd8a8a8a8a8a8a8a8a6118dc565b9050610be881611ac0565b80602001516001600160a01b03166397ccdc60610c078b8b6001611bab565b83606001518a6040518463ffffffff1660e01b815260040180846001600160a01b03168152602001836001600160a01b031681526020018281526020019350505050600060405180830381600087803b158015610c6357600080fd5b505af1158015610c77573d6000803e3d6000fd5b505050506000806000610cc78d8d8d8080601f0160208091040260200160405190810160405280939291908181526020018383808284376000920191909152508f92508e91508d90508c8c611bc1565b92509250925083602001516001600160a01b0316636bc195dd8484846040518463ffffffff1660e01b815260040180846001600160a01b0316815260200183815260200180602001828103825283818151815260200191508051906020019080838360005b83811015610d44578181015183820152602001610d2c565b50505050905090810190601f168015610d715780820380516001836020036101000a031916815260200191505b50945050505050600060405180830381600087803b158015610d9257600080fd5b505af1158015610da6573d6000803e3d6000fd5b505050506040513d6000823e601f3d908101601f191682016040526020811015610dcf57600080fd5b8101908080516040519392919084600160201b821115610dee57600080fd5b908301906020820185811115610e0357600080fd5b8251600160201b811182820188101715610e1c57600080fd5b82525081516020918201929091019080838360005b83811015610e49578181015183820152602001610e31565b50505050905090810190601f168015610e765780820380516001836020036101000a031916815260200191505b5060405250505050610e8784611cff565b83600001516001600160a01b031684602001516001600160a01b03167f7659e40cf608296ce5aa9eff9c80adc7a49cb481173fc4e302e3983827b042df878d60405180836001600160a01b031681526020018281526020019250505060405180910390a35050600180555050505050505050505050565b600192915050565b6000610f128383611dc7565b9392505050565b60026001541415610f71576040805162461bcd60e51b815260206004820152601f60248201527f5265656e7472616e637947756172643a207265656e7472616e742063616c6c00604482015290519081900360640190fd5b6002600155604080516313bc6d4b60e01b815233600482015290516001600160a01b037f000000000000000000000000000000000000000000000000000000000000000016916313bc6d4b916024808301926020929190829003018186803b158015610fdc57600080fd5b505afa158015610ff0573d6000803e3d6000fd5b505050506040513d602081101561100657600080fd5b5051611059576040805162461bcd60e51b815260206004820152601960248201527f4f6e6c792073797374656d2063616e2063616c6c207468697300000000000000604482015290519081900360640190fd5b600061106b89898989898989896118dc565b905061107681611dcf565b60006110828989611836565b905060005b858110156111e457600087878381811061109d57fe5b905060200201356001600160a01b03166001600160a01b0316141580156110fc575073eeeeeeeeeeeeeeeeeeeeeeeeeeeeeeeeeeeeeeee8787838181106110e057fe5b905060200201356001600160a01b03166001600160a01b031614155b801561111a5750600085858381811061111157fe5b90506020020135115b156111dc5782602001516001600160a01b03166397ccdc6061113e8c8c6000611bab565b89898581811061114a57fe5b905060200201356001600160a01b031688888681811061116657fe5b905060200201356040518463ffffffff1660e01b815260040180846001600160a01b03168152602001836001600160a01b031681526020018281526020019350505050600060405180830381600087803b1580156111c357600080fd5b505af11580156111d7573d6000803e3d6000fd5b505050505b600101611087565b5060008060006111fa8d8d8d8d8d8d8d8d611e70565b92509250925084602001516001600160a01b0316636bc195dd8484846040518463ffffffff1660e01b815260040180846001600160a01b0316815260200183815260200180602001828103825283818151815260200191508051906020019080838360005b8381101561127757818101518382015260200161125f565b50505050905090810190601f1680156112a45780820380516001836020036101000a031916815260200191505b50945050505050600060405180830381600087803b1580156112c557600080fd5b505af11580156112d9573d6000803e3d6000fd5b505050506040513d6000823e601f3d908101601f19168201604052602081101561130257600080fd5b8101908080516040519392919084600160201b82111561132157600080fd5b90830190602082018581111561133657600080fd5b8251600160201b81118282018810171561134f57600080fd5b82525081516020918201929091019080838360005b8381101561137c578181015183820152602001611364565b50505050905090810190601f1680156113a95780820380516001836020036101000a031916815260200191505b50604052505050506114408560c0015186606001516001600160a01b03166370a0823188602001516040518263ffffffff1660e01b815260040180826001600160a01b0316815260200191505060206040518083038186803b15801561140e57600080fd5b505afa158015611422573d6000803e3d6000fd5b505050506040513d602081101561143857600080fd5b505190612013565b60a086015261144e85612023565b84600001516001600160a01b031685602001516001600160a01b03167fe5ca6288535c5c6c2462c912b4033eade15b80926717896a2d58a2defdeb9128868d60405180836001600160a01b031681526020018281526020019250505060405180910390a35050600180555050505050505050505050565b6000806114d38585856120e5565b91509150935093915050565b606060006114ed8585611836565b90506000816001600160a01b03166318160ddd6040518163ffffffff1660e01b815260040160206040518083038186803b15801561152a57600080fd5b505afa15801561153e573d6000803e3d6000fd5b505050506040513d602081101561155457600080fd5b5051604080517fc4a7761e000000000000000000000000000000000000000000000000000000008152815192935060009283926001600160a01b0387169263c4a7761e9260048083019392829003018186803b1580156115b357600080fd5b505afa1580156115c7573d6000803e3d6000fd5b505050506040513d60408110156115dd57600080fd5b50805160209182015160408051600280825260608201835293965091945060009391929183019080368337019050509050611634670d2f13f7789f000061162e86611628878c61211c565b90612140565b906121a7565b8160008151811061164157fe5b6020908102919091010152611666670d2f13f7789f000061162e86611628868c61211c565b8160018151811061167357fe5b602090810291909101015298975050505050505050565b606060006116988484611836565b90506116a3816121bf565b949350505050565b606060006116b98585611836565b6040805160028082526060820183529293506000929091602083019080368337019050509050816001600160a01b0316630dfe16816040518163ffffffff1660e01b815260040160206040518083038186803b15801561171857600080fd5b505afa15801561172c573d6000803e3d6000fd5b505050506040513d602081101561174257600080fd5b50518151829060009061175157fe5b60200260200101906001600160a01b031690816001600160a01b031681525050816001600160a01b031663d21220a76040518163ffffffff1660e01b815260040160206040518083038186803b1580156117aa57600080fd5b505afa1580156117be573d6000803e3d6000fd5b505050506040513d60208110156117d457600080fd5b50518151829060019081106117e557fe5b6001600160a01b03909216602092830291909101909101529150509392505050565b6000610a57826121e5565b7f000000000000000000000000000000000000000000000000000000000000000081565b60008282602081101561184857600080fd5b50356001600160a01b03169392505050565b60008061186883600c612252565b90506000816001600160a01b03166318160ddd6040518163ffffffff1660e01b815260040160206040518083038186803b1580156118a557600080fd5b505afa1580156118b9573d6000803e3d6000fd5b505050506040513d60208110156118cf57600080fd5b5051119392505050565b90565b6118e46122cd565b60006118f08989611836565b90506118fa6122cd565b611903826118d9565b6001600160a01b0390811660608301528b166020808301829052604080517f56ba88b800000000000000000000000000000000000000000000000000000000815290516356ba88b892600480840193919291829003018186803b15801561196957600080fd5b505afa15801561197d573d6000803e3d6000fd5b505050506040513d602081101561199357600080fd5b50516001600160a01b03168152604080516020601f8c018190048102820181019092528a8152908b908b9081908401838280828437600092019190915250505050604080830191909152606082015181517f70a082310000000000000000000000000000000000000000000000000000000081526001600160a01b038e81166004830152925192909116916370a0823191602480820192602092909190829003018186803b158015611a4457600080fd5b505afa158015611a58573d6000803e3d6000fd5b505050506040513d6020811015611a6e57600080fd5b505160c082015260a081018890526040805160208681028281018201909352868252909187918791829185019084908082843760009201919091525050505060e08201529a9950505050505050505050565b611acd816040015161185a565b611b1e576040805162461bcd60e51b815260206004820152601d60248201527f54686520706f6f6c2061646472657373206973206e6f742076616c6964000000604482015290519081900360640190fd5b60008160a0015111611b615760405162461bcd60e51b815260040180806020018281038252602e81526020018061235f602e913960400191505060405180910390fd5b8060a001518160c001511015611ba85760405162461bcd60e51b815260040180806020018281038252602d8152602001806123b9602d913960400191505060405180910390fd5b50565b600080611bb88585611836565b95945050505050565b60008060606000611bd38a600c612252565b905060028714611c2a576040805162461bcd60e51b815260206004820152601360248201527f54776f20746f6b656e7320726571756972656400000000000000000000000000604482015290519081900360640190fd5b60028514611c7f576040805162461bcd60e51b815260206004820152601460248201527f54776f20616d6f756e7473207265717569726564000000000000000000000000604482015290519081900360640190fd5b60408051602481018b90526001600160a01b038d16604482018190526064808301919091528251808303909101815260849091019091526020810180516001600160e01b03167fb460af94000000000000000000000000000000000000000000000000000000001790529093506000925090509750975097945050505050565b8060a001518160c001510381606001516001600160a01b03166370a0823183602001516040518263ffffffff1660e01b815260040180826001600160a01b0316815260200191505060206040518083038186803b158015611d5f57600080fd5b505afa158015611d73573d6000803e3d6000fd5b505050506040513d6020811015611d8957600080fd5b505114611ba85760405162461bcd60e51b815260040180806020018281038252602b8152602001806123e6602b913960400191505060405180910390fd5b600092915050565b611ddc816040015161185a565b611e2d576040805162461bcd60e51b815260206004820152601d60248201527f54686520706f6f6c2061646472657373206973206e6f742076616c6964000000604482015290519081900360640190fd5b60008160a0015111611ba85760405162461bcd60e51b815260040180806020018281038252603181526020018061232e6031913960400191505060405180910390fd5b600080606060028614611eca576040805162461bcd60e51b815260206004820152601360248201527f54776f20746f6b656e7320726571756972656400000000000000000000000000604482015290519081900360640190fd5b60028414611f1f576040805162461bcd60e51b815260206004820152601460248201527f54776f20616d6f756e7473207265717569726564000000000000000000000000604482015290519081900360640190fd5b6000611f2b8b8b611836565b9050600086866000818110611f3c57fe5b9050602002013587876001818110611f5057fe5b905060200201358e8460405160240180858152602001848152602001836001600160a01b03168152602001826001600160a01b031681526020019450505050506040516020818303038152906040527f84715b11000000000000000000000000000000000000000000000000000000006001600160e01b0319166020820180516001600160e01b03838183161783525050505090507396a4f484915523553272a9f64fd9848859f799fa6000829450945094505050985098509895505050505050565b80820382811115610a5757600080fd5b8060c0015181606001516001600160a01b03166370a0823183602001516040518263ffffffff1660e01b815260040180826001600160a01b0316815260200191505060206040518083038186803b15801561207d57600080fd5b505afa158015612091573d6000803e3d6000fd5b505050506040513d60208110156120a757600080fd5b505111611ba85760405162461bcd60e51b815260040180806020018281038252602c81526020018061238d602c913960400191505060405180910390fd5b6000806120f4858560006116ab565b83815181106120ff57fe5b6020026020010151670de0b6b3a764000091509150935093915050565b60008215806121375750508181028183828161213457fe5b04145b610a5757600080fd5b6000808211612196576040805162461bcd60e51b815260206004820152601a60248201527f536166654d6174683a206469766973696f6e206279207a65726f000000000000604482015290519081900360640190fd5b81838161219f57fe5b049392505050565b6000610f12670de0b6b3a7640000611628858561211c565b604080516001808252818301909252606091602080830190803683370190505092915050565b6000816001600160a01b03166318160ddd6040518163ffffffff1660e01b815260040160206040518083038186803b15801561222057600080fd5b505afa158015612234573d6000803e3d6000fd5b505050506040513d602081101561224a57600080fd5b505192915050565b6000610f128383600081601401835110156122b4576040805162461bcd60e51b815260206004820152601560248201527f746f416464726573735f6f75744f66426f756e64730000000000000000000000604482015290519081900360640190fd5b5001602001516c01000000000000000000000000900490565b60405180610100016040528060006001600160a01b0316815260200160006001600160a01b031681526020016060815260200160006001600160a01b0316815260200160008152602001600081526020016000815260200160608152509056fe4d696e20706f6f6c20746f6b656e7320746f2072656365697665206d7573742062652067726561746572207468616e2030506f6f6c20746f6b656e7320746f2065786368616e6765206d7573742062652067726561746572207468616e203054686520737472617465677920646964206e6f7420726563656976652074686520706f6f6c20746f6b656e7354686520737472617465677920646f6573206e6f74206861766520656e6f75676820706f6f6c20746f6b656e7354686520737472617465677920646964206e6f742072657475726e2074686520706f6f6c20746f6b656e73a26469706673582212204eb133377e9706bb445d7c8c7d558694445247b1cda8abcc9df39508fa68213664736f6c63430007060033",
  "devdoc": {
    "author": "Babylon Finance Protocol Gamma protocol integration",
    "kind": "dev",
    "methods": {
      "constructor": {
        "params": {
          "_controller": "Address of the controller"
        }
      },
      "exitPool(address,bytes,uint256,address[],uint256[])": {
        "params": {
          "_minAmountsOut": "Array of min token quantities to receive from the pool",
          "_pool": "Pool info e.g. PoolId or Address of the pool token to join + metadata",
          "_poolTokensIn": "Pool tokens to exchange for the underlying tokens",
          "_strategy": "Address of the strategy",
          "_tokensOut": "Array of token addresses to withdraw"
        }
      },
      "getLPToken(address)": {
        "params": {
          "_pool": "Address of the pool"
        },
        "returns": {
          "_0": "address                 Address of the LP token"
        }
      },
      "getPool(address)": {
        "params": {
          "_pool": "Address of the maybe pool"
        },
        "returns": {
          "_0": "address                 Address of the pool itself"
        }
      },
      "getUnderlyingAndRate(bytes,uint256)": {
        "params": {
          "_i": "Index of coin in the pool",
          "_pool": "Address of the pool"
        },
        "returns": {
          "_0": "address                 Underlying coin",
          "_1": "uint256                 Rate from coin to underlying"
        }
      },
      "isPool(bytes)": {
        "params": {
          "_pool": "OpData e.g. Pool address to check"
        },
        "returns": {
          "_0": "bool                 True if the address is a pool"
        }
      },
      "joinPool(address,bytes,uint256,address[],uint256[])": {
        "params": {
          "_maxAmountsIn": "Array of max token quantities to pull out from the garden",
          "_pool": "OpData e.g. Address of the pool token to join",
          "_poolTokensOut": "Min amount of pool tokens to receive",
          "_strategy": "Address of the strategy",
          "_tokensIn": "Array of token addresses to deposit"
        }
      },
      "totalSupply(address)": {
        "params": {
          "_pool": "Address of the pool"
        },
        "returns": {
          "_0": "address                 Total supply of the token"
        }
      }
    },
    "title": "Gamma Uni V3 Pool Integration",
    "version": 1
  },
  "userdoc": {
    "kind": "user",
    "methods": {
      "constructor": {
        "notice": "Creates the integration"
      },
      "exitPool(address,bytes,uint256,address[],uint256[])": {
        "notice": "Exits a liquidity pool. Accrue protocol fee (if any)"
      },
      "getLPToken(address)": {
        "notice": "Returns the actual address of the LP token. Different for curve."
      },
      "getPool(address)": {
        "notice": "Gets the underlying pool that holds the internal tokens. Different for curve."
      },
      "getUnderlyingAndRate(bytes,uint256)": {
        "notice": "Returns the underlying coin"
      },
      "isPool(bytes)": {
        "notice": "Checks whether a pool address is valid"
      },
      "joinPool(address,bytes,uint256,address[],uint256[])": {
        "notice": "Joins a pool"
      },
      "totalSupply(address)": {
        "notice": "Returns the total supply of the pool tokens"
      }
    },
    "version": 1
  },
  "storageLayout": {
    "storage": [
      {
        "astId": 26747,
        "contract": "contracts/integrations/pool/GammaIntegration.sol:GammaIntegration",
        "label": "name",
        "offset": 0,
        "slot": "0",
        "type": "t_string_storage"
      },
      {
        "astId": 6418,
        "contract": "contracts/integrations/pool/GammaIntegration.sol:GammaIntegration",
        "label": "_status",
        "offset": 0,
        "slot": "1",
        "type": "t_uint256"
      }
    ],
    "types": {
      "t_string_storage": {
        "encoding": "bytes",
        "label": "string",
        "numberOfBytes": "32"
      },
      "t_uint256": {
        "encoding": "inplace",
        "label": "uint256",
        "numberOfBytes": "32"
      }
    }
  }
}