{
  "address": "0xBf86931e5E7eB9EAE2Ca489F6B625c8f7BDA75c9",
  "abi": [
    {
      "inputs": [
        {
          "internalType": "address",
          "name": "_controller",
          "type": "address"
        }
      ],
      "stateMutability": "nonpayable",
      "type": "constructor"
    },
    {
      "inputs": [
        {
          "internalType": "address",
          "name": "_garden",
          "type": "address"
        },
        {
          "internalType": "address",
          "name": "_quoteAsset",
          "type": "address"
        }
      ],
      "name": "calculateGardenValuation",
      "outputs": [
        {
          "internalType": "uint256",
          "name": "",
          "type": "uint256"
        }
      ],
      "stateMutability": "view",
      "type": "function"
    },
    {
      "inputs": [],
      "name": "controller",
      "outputs": [
        {
          "internalType": "address",
          "name": "",
          "type": "address"
        }
      ],
      "stateMutability": "view",
      "type": "function"
    }
  ],
  "transactionHash": "0xe68eec5d7fa00f1c186471cd364e0ce0e5afbf46b84466044704aae54290b8c2",
  "args": [
    "0xD4a5b5fcB561dAF3aDF86F8477555B92FBa43b5F"
  ],
  "solcInputHash": "bd873b418320faeabd457a4fe7c7c19d",
  "bytecode": "0x608060405234801561001057600080fd5b506040516108f43803806108f48339818101604052602081101561003357600080fd5b5051600080546001600160a01b039092166001600160a01b031990921691909117905561088f806100656000396000f3fe608060405234801561001057600080fd5b50600436106100365760003560e01c8063bc14773a1461003b578063f77c47911461007b575b600080fd5b6100696004803603604081101561005157600080fd5b506001600160a01b038135811691602001351661009f565b60408051918252519081900360200190f35b6100836106d2565b604080516001600160a01b039092168252519081900360200190f35b60008054604080517f2630c12f000000000000000000000000000000000000000000000000000000008152905183926001600160a01b031691632630c12f916004808301926020929190829003018186803b1580156100fd57600080fd5b505afa158015610111573d6000803e3d6000fd5b505050506040513d602081101561012757600080fd5b5051604080517ff85cb5c800000000000000000000000000000000000000000000000000000000815290519192506000916001600160a01b0387169163f85cb5c8916004808301926020929190829003018186803b15801561018857600080fd5b505afa15801561019c573d6000803e3d6000fd5b505050506040513d60208110156101b257600080fd5b5051604080517f313ce56700000000000000000000000000000000000000000000000000000000815290519192506000916001600160a01b0387169163313ce567916004808301926020929190829003018186803b15801561021357600080fd5b505afa158015610227573d6000803e3d6000fd5b505050506040513d602081101561023d57600080fd5b5051905060006001600160a01b0383811690871614156102665750670de0b6b3a76400006102f3565b836001600160a01b031663ac41865a84886040518363ffffffff1660e01b815260040180836001600160a01b03168152602001826001600160a01b031681526020019250505060206040518083038186803b1580156102c457600080fd5b505afa1580156102d8573d6000803e3d6000fd5b505050506040513d60208110156102ee57600080fd5b505190505b60006001600160a01b03871673c02aaa39b223fe8d0a0e5c4f27ead9083c756cc214156103295750670de0b6b3a76400006103d5565b604080517fac41865a00000000000000000000000000000000000000000000000000000000815273c02aaa39b223fe8d0a0e5c4f27ead9083c756cc260048201526001600160a01b03898116602483015291519187169163ac41865a91604480820192602092909190829003018186803b1580156103a657600080fd5b505afa1580156103ba573d6000803e3d6000fd5b505050506040513d60208110156103d057600080fd5b505190505b6000886001600160a01b031663b49a60bb6040518163ffffffff1660e01b815260040160006040518083038186803b15801561041057600080fd5b505afa158015610424573d6000803e3d6000fd5b505050506040513d6000823e601f3d908101601f19168201604052602081101561044d57600080fd5b810190808051604051939291908464010000000082111561046d57600080fd5b90830190602082018581111561048257600080fd5b825186602082028301116401000000008211171561049f57600080fd5b82525081516020918201928201910280838360005b838110156104cc5781810151838201526020016104b4565b505050509050016040525050509050600080600090505b825181101561057e5760008382815181106104fa57fe5b60200260200101519050610573816001600160a01b0316630126c6066040518163ffffffff1660e01b815260040160206040518083038186803b15801561054057600080fd5b505afa158015610554573d6000803e3d6000fd5b505050506040513d602081101561056a57600080fd5b505184906106e1565b9250506001016104e3565b50610602866001600160a01b03166370a082318c6040518263ffffffff1660e01b815260040180826001600160a01b0316815260200191505060206040518083038186803b1580156105cf57600080fd5b505afa1580156105e3573d6000803e3d6000fd5b505050506040513d60208110156105f957600080fd5b505182906106e1565b905061060e8185610742565b905061062e6106276001600160a01b038c163185610742565b82906106e1565b905060128560ff161015610653576106508160ff601288900316600a0a610760565b90505b6106c28a6001600160a01b03166318160ddd6040518163ffffffff1660e01b815260040160206040518083038186803b15801561068f57600080fd5b505afa1580156106a3573d6000803e3d6000fd5b505050506040513d60208110156106b957600080fd5b505182906107b9565b9750505050505050505b92915050565b6000546001600160a01b031681565b60008282018381101561073b576040805162461bcd60e51b815260206004820152601b60248201527f536166654d6174683a206164646974696f6e206f766572666c6f770000000000604482015290519081900360640190fd5b9392505050565b600061073b670de0b6b3a764000061075a8585610760565b906107d1565b60008261076f575060006106cc565b8282028284828161077c57fe5b041461073b5760405162461bcd60e51b81526004018080602001828103825260218152602001806108396021913960400191505060405180910390fd5b600061073b8261075a85670de0b6b3a7640000610760565b6000808211610827576040805162461bcd60e51b815260206004820152601a60248201527f536166654d6174683a206469766973696f6e206279207a65726f000000000000604482015290519081900360640190fd5b81838161083057fe5b04939250505056fe536166654d6174683a206d756c7469706c69636174696f6e206f766572666c6f77a2646970667358221220f6c7fe9456369f5efc81e602648d6fa5ed7bec9acea0e393b6b19128b8273fd064736f6c63430007060033",
  "devdoc": {
    "author": "Babylon Finance Contract that returns the valuation of a Garden using price oracle data used in contracts that are external to the system. Note: Prices are returned in preciseUnits (i.e. 18 decimals of precision)",
    "kind": "dev",
    "methods": {
      "calculateGardenValuation(address,address)": {
        "params": {
          "_garden": "Garden instance to get valuation",
          "_quoteAsset": "Quote asset for the valuation"
        },
        "returns": {
          "_0": "Token valuation in terms of quote asset in precise units 1e18"
        }
      },
      "constructor": {
        "params": {
          "_controller": "Address of controller contract"
        }
      }
    },
    "title": "GardenValuer",
    "version": 1
  },
  "userdoc": {
    "kind": "user",
    "methods": {
      "calculateGardenValuation(address,address)": {
        "notice": "Gets the valuation of a Garden using data from the price oracle. Adds all the active strategies plus the reserve asset and ETH. Note: this works for external positions and negative (debt) positions. Note: There is a risk that the valuation is off if airdrops aren't retrieved"
      },
      "constructor": {
        "notice": "Set state variables and map asset pairs to their oracles"
      }
    },
    "version": 1
  },
  "storageLayout": {
    "storage": [
      {
        "astId": 11202,
        "contract": "contracts/GardenValuer.sol:GardenValuer",
        "label": "controller",
        "offset": 0,
        "slot": "0",
        "type": "t_address"
      }
    ],
    "types": {
      "t_address": {
        "encoding": "inplace",
        "label": "address",
        "numberOfBytes": "20"
      }
    }
  }
}