{
  "address": "0x953A8aC6C393A9B3c09D6032c175F2CdE6235CA9",
  "abi": [
    {
      "anonymous": false,
      "inputs": [
        {
          "indexed": true,
          "internalType": "address",
          "name": "_strategy",
          "type": "address"
        },
        {
          "indexed": false,
          "internalType": "uint256",
          "name": "_expectedReturn",
          "type": "uint256"
        }
      ],
      "name": "AddStrategy",
      "type": "event"
    },
    {
      "anonymous": false,
      "inputs": [
        {
          "indexed": true,
          "internalType": "address",
          "name": "owner",
          "type": "address"
        },
        {
          "indexed": true,
          "internalType": "address",
          "name": "spender",
          "type": "address"
        },
        {
          "indexed": false,
          "internalType": "uint256",
          "name": "value",
          "type": "uint256"
        }
      ],
      "name": "Approval",
      "type": "event"
    },
    {
      "anonymous": false,
      "inputs": [
        {
          "indexed": true,
          "internalType": "address",
          "name": "_contributor",
          "type": "address"
        },
        {
          "indexed": false,
          "internalType": "uint256",
          "name": "_rewards",
          "type": "uint256"
        }
      ],
      "name": "BABLRewardsForContributor",
      "type": "event"
    },
    {
      "anonymous": false,
      "inputs": [
        {
          "indexed": true,
          "internalType": "address",
          "name": "_to",
          "type": "address"
        },
        {
          "indexed": false,
          "internalType": "uint256",
          "name": "reserveToken",
          "type": "uint256"
        },
        {
          "indexed": false,
          "internalType": "uint256",
          "name": "reserveTokenQuantity",
          "type": "uint256"
        },
        {
          "indexed": false,
          "internalType": "uint256",
          "name": "timestamp",
          "type": "uint256"
        }
      ],
      "name": "GardenDeposit",
      "type": "event"
    },
    {
      "anonymous": false,
      "inputs": [
        {
          "indexed": true,
          "internalType": "address",
          "name": "_from",
          "type": "address"
        },
        {
          "indexed": true,
          "internalType": "address",
          "name": "_to",
          "type": "address"
        },
        {
          "indexed": false,
          "internalType": "uint256",
          "name": "reserveToken",
          "type": "uint256"
        },
        {
          "indexed": false,
          "internalType": "uint256",
          "name": "reserveTokenQuantity",
          "type": "uint256"
        },
        {
          "indexed": false,
          "internalType": "uint256",
          "name": "timestamp",
          "type": "uint256"
        }
      ],
      "name": "GardenWithdrawal",
      "type": "event"
    },
    {
      "anonymous": false,
      "inputs": [
        {
          "indexed": true,
          "internalType": "address",
          "name": "_contributor",
          "type": "address"
        },
        {
          "indexed": true,
          "internalType": "uint256",
          "name": "_amount",
          "type": "uint256"
        }
      ],
      "name": "RewardsForContributor",
      "type": "event"
    },
    {
      "anonymous": false,
      "inputs": [
        {
          "indexed": true,
          "internalType": "address",
          "name": "from",
          "type": "address"
        },
        {
          "indexed": true,
          "internalType": "address",
          "name": "to",
          "type": "address"
        },
        {
          "indexed": false,
          "internalType": "uint256",
          "name": "value",
          "type": "uint256"
        }
      ],
      "name": "Transfer",
      "type": "event"
    },
    {
      "inputs": [],
      "name": "absoluteReturns",
      "outputs": [
        {
          "internalType": "int256",
          "name": "",
          "type": "int256"
        }
      ],
      "stateMutability": "view",
      "type": "function"
    },
    {
      "inputs": [],
      "name": "active",
      "outputs": [
        {
          "internalType": "bool",
          "name": "",
          "type": "bool"
        }
      ],
      "stateMutability": "view",
      "type": "function"
    },
    {
      "inputs": [
        {
          "internalType": "string",
          "name": "_name",
          "type": "string"
        },
        {
          "internalType": "string",
          "name": "_symbol",
          "type": "string"
        },
        {
          "internalType": "uint256[]",
          "name": "_stratParams",
          "type": "uint256[]"
        },
        {
          "internalType": "uint8[]",
          "name": "_opTypes",
          "type": "uint8[]"
        },
        {
          "internalType": "address[]",
          "name": "_opIntegrations",
          "type": "address[]"
        },
        {
          "internalType": "address[]",
          "name": "_opDatas",
          "type": "address[]"
        }
      ],
      "name": "addStrategy",
      "outputs": [],
      "stateMutability": "nonpayable",
      "type": "function"
    },
    {
      "inputs": [
        {
          "internalType": "uint256",
          "name": "_capital",
          "type": "uint256"
        }
      ],
      "name": "allocateCapitalToStrategy",
      "outputs": [],
      "stateMutability": "nonpayable",
      "type": "function"
    },
    {
      "inputs": [
        {
          "internalType": "address",
          "name": "owner",
          "type": "address"
        },
        {
          "internalType": "address",
          "name": "spender",
          "type": "address"
        }
      ],
      "name": "allowance",
      "outputs": [
        {
          "internalType": "uint256",
          "name": "",
          "type": "uint256"
        }
      ],
      "stateMutability": "view",
      "type": "function"
    },
    {
      "inputs": [
        {
          "internalType": "address",
          "name": "spender",
          "type": "address"
        },
        {
          "internalType": "uint256",
          "name": "amount",
          "type": "uint256"
        }
      ],
      "name": "approve",
      "outputs": [
        {
          "internalType": "bool",
          "name": "",
          "type": "bool"
        }
      ],
      "stateMutability": "nonpayable",
      "type": "function"
    },
    {
      "inputs": [
        {
          "internalType": "address",
          "name": "account",
          "type": "address"
        }
      ],
      "name": "balanceOf",
      "outputs": [
        {
          "internalType": "uint256",
          "name": "",
          "type": "uint256"
        }
      ],
      "stateMutability": "view",
      "type": "function"
    },
    {
      "inputs": [
        {
          "internalType": "address",
          "name": "_strategist",
          "type": "address"
        },
        {
          "internalType": "uint256",
          "name": "_amount",
          "type": "uint256"
        }
      ],
      "name": "burnStrategistStake",
      "outputs": [],
      "stateMutability": "nonpayable",
      "type": "function"
    },
    {
      "inputs": [
        {
          "internalType": "address[]",
          "name": "_finalizedStrategies",
          "type": "address[]"
        }
      ],
      "name": "claimReturns",
      "outputs": [],
      "stateMutability": "nonpayable",
      "type": "function"
    },
    {
      "inputs": [],
      "name": "controller",
      "outputs": [
        {
          "internalType": "address",
          "name": "",
          "type": "address"
        }
      ],
      "stateMutability": "view",
      "type": "function"
    },
    {
      "inputs": [],
      "name": "creator",
      "outputs": [
        {
          "internalType": "address",
          "name": "",
          "type": "address"
        }
      ],
      "stateMutability": "view",
      "type": "function"
    },
    {
      "inputs": [],
      "name": "decimals",
      "outputs": [
        {
          "internalType": "uint8",
          "name": "",
          "type": "uint8"
        }
      ],
      "stateMutability": "view",
      "type": "function"
    },
    {
      "inputs": [
        {
          "internalType": "address",
          "name": "spender",
          "type": "address"
        },
        {
          "internalType": "uint256",
          "name": "subtractedValue",
          "type": "uint256"
        }
      ],
      "name": "decreaseAllowance",
      "outputs": [
        {
          "internalType": "bool",
          "name": "",
          "type": "bool"
        }
      ],
      "stateMutability": "nonpayable",
      "type": "function"
    },
    {
      "inputs": [
        {
          "internalType": "uint256",
          "name": "_reserveAssetQuantity",
          "type": "uint256"
        },
        {
          "internalType": "uint256",
          "name": "_minGardenTokenReceiveQuantity",
          "type": "uint256"
        },
        {
          "internalType": "address",
          "name": "_to",
          "type": "address"
        },
        {
          "internalType": "bool",
          "name": "_mintNft",
          "type": "bool"
        }
      ],
      "name": "deposit",
      "outputs": [],
      "stateMutability": "payable",
      "type": "function"
    },
    {
      "inputs": [],
      "name": "depositHardlock",
      "outputs": [
        {
          "internalType": "uint256",
          "name": "",
          "type": "uint256"
        }
      ],
      "stateMutability": "view",
      "type": "function"
    },
    {
      "inputs": [
        {
          "internalType": "address",
          "name": "_strategy",
          "type": "address"
        }
      ],
      "name": "expireCandidateStrategy",
      "outputs": [],
      "stateMutability": "nonpayable",
      "type": "function"
    },
    {
      "inputs": [],
      "name": "gardenInitializedAt",
      "outputs": [
        {
          "internalType": "uint256",
          "name": "",
          "type": "uint256"
        }
      ],
      "stateMutability": "view",
      "type": "function"
    },
    {
      "inputs": [
        {
          "internalType": "address",
          "name": "_contributor",
          "type": "address"
        }
      ],
      "name": "getContributor",
      "outputs": [
        {
          "internalType": "uint256",
          "name": "",
          "type": "uint256"
        },
        {
          "internalType": "uint256",
          "name": "",
          "type": "uint256"
        },
        {
          "internalType": "uint256",
          "name": "",
          "type": "uint256"
        },
        {
          "internalType": "uint256",
          "name": "",
          "type": "uint256"
        },
        {
          "internalType": "uint256",
          "name": "",
          "type": "uint256"
        },
        {
          "internalType": "uint256",
          "name": "",
          "type": "uint256"
        }
      ],
      "stateMutability": "view",
      "type": "function"
    },
    {
      "inputs": [
        {
          "internalType": "uint256",
          "name": "_gardenTokenQuantity",
          "type": "uint256"
        }
      ],
      "name": "getExpectedReserveWithdrawalQuantity",
      "outputs": [
        {
          "internalType": "uint256",
          "name": "",
          "type": "uint256"
        }
      ],
      "stateMutability": "view",
      "type": "function"
    },
    {
      "inputs": [],
      "name": "getFinalizedStrategies",
      "outputs": [
        {
          "internalType": "address[]",
          "name": "",
          "type": "address[]"
        }
      ],
      "stateMutability": "view",
      "type": "function"
    },
    {
      "inputs": [
        {
          "internalType": "uint256",
          "name": "_reserveAssetQuantity",
          "type": "uint256"
        },
        {
          "internalType": "bool",
          "name": "isDeposit",
          "type": "bool"
        }
      ],
      "name": "getGardenTokenMintQuantity",
      "outputs": [
        {
          "internalType": "uint256",
          "name": "",
          "type": "uint256"
        }
      ],
      "stateMutability": "view",
      "type": "function"
    },
    {
      "inputs": [
        {
          "internalType": "address",
          "name": "_contributor",
          "type": "address"
        }
      ],
      "name": "getLockedBalance",
      "outputs": [
        {
          "internalType": "uint256",
          "name": "",
          "type": "uint256"
        },
        {
          "internalType": "uint256",
          "name": "",
          "type": "uint256"
        }
      ],
      "stateMutability": "view",
      "type": "function"
    },
    {
      "inputs": [],
      "name": "getStrategies",
      "outputs": [
        {
          "internalType": "address[]",
          "name": "",
          "type": "address[]"
        }
      ],
      "stateMutability": "view",
      "type": "function"
    },
    {
      "inputs": [],
      "name": "guestListEnabled",
      "outputs": [
        {
          "internalType": "bool",
          "name": "",
          "type": "bool"
        }
      ],
      "stateMutability": "view",
      "type": "function"
    },
    {
      "inputs": [
        {
          "internalType": "address",
          "name": "spender",
          "type": "address"
        },
        {
          "internalType": "uint256",
          "name": "addedValue",
          "type": "uint256"
        }
      ],
      "name": "increaseAllowance",
      "outputs": [
        {
          "internalType": "bool",
          "name": "",
          "type": "bool"
        }
      ],
      "stateMutability": "nonpayable",
      "type": "function"
    },
    {
      "inputs": [
        {
          "internalType": "address",
          "name": "_reserveAsset",
          "type": "address"
        },
        {
          "internalType": "address",
          "name": "_controller",
          "type": "address"
        },
        {
          "internalType": "address",
          "name": "_creator",
          "type": "address"
        },
        {
          "internalType": "string",
          "name": "_name",
          "type": "string"
        },
        {
          "internalType": "string",
          "name": "_symbol",
          "type": "string"
        },
        {
          "internalType": "uint256[]",
          "name": "_gardenParams",
          "type": "uint256[]"
        },
        {
          "internalType": "uint256",
          "name": "_initialContribution",
          "type": "uint256"
        }
      ],
      "name": "initialize",
      "outputs": [],
      "stateMutability": "payable",
      "type": "function"
    },
    {
      "inputs": [
        {
          "internalType": "address",
          "name": "",
          "type": "address"
        }
      ],
      "name": "isGardenStrategy",
      "outputs": [
        {
          "internalType": "bool",
          "name": "",
          "type": "bool"
        }
      ],
      "stateMutability": "view",
      "type": "function"
    },
    {
      "inputs": [],
      "name": "keeperDebt",
      "outputs": [
        {
          "internalType": "uint256",
          "name": "",
          "type": "uint256"
        }
      ],
      "stateMutability": "view",
      "type": "function"
    },
    {
      "inputs": [],
      "name": "makeGardenPublic",
      "outputs": [],
      "stateMutability": "nonpayable",
      "type": "function"
    },
    {
      "inputs": [],
      "name": "maxContributors",
      "outputs": [
        {
          "internalType": "uint256",
          "name": "",
          "type": "uint256"
        }
      ],
      "stateMutability": "view",
      "type": "function"
    },
    {
      "inputs": [],
      "name": "maxDepositLimit",
      "outputs": [
        {
          "internalType": "uint256",
          "name": "",
          "type": "uint256"
        }
      ],
      "stateMutability": "view",
      "type": "function"
    },
    {
      "inputs": [],
      "name": "maxStrategyDuration",
      "outputs": [
        {
          "internalType": "uint256",
          "name": "",
          "type": "uint256"
        }
      ],
      "stateMutability": "view",
      "type": "function"
    },
    {
      "inputs": [],
      "name": "minContribution",
      "outputs": [
        {
          "internalType": "uint256",
          "name": "",
          "type": "uint256"
        }
      ],
      "stateMutability": "view",
      "type": "function"
    },
    {
      "inputs": [],
      "name": "minLiquidityAsset",
      "outputs": [
        {
          "internalType": "uint256",
          "name": "",
          "type": "uint256"
        }
      ],
      "stateMutability": "view",
      "type": "function"
    },
    {
      "inputs": [],
      "name": "minStrategyDuration",
      "outputs": [
        {
          "internalType": "uint256",
          "name": "",
          "type": "uint256"
        }
      ],
      "stateMutability": "view",
      "type": "function"
    },
    {
      "inputs": [],
      "name": "minVoters",
      "outputs": [
        {
          "internalType": "uint256",
          "name": "",
          "type": "uint256"
        }
      ],
      "stateMutability": "view",
      "type": "function"
    },
    {
      "inputs": [],
      "name": "minVotesQuorum",
      "outputs": [
        {
          "internalType": "uint256",
          "name": "",
          "type": "uint256"
        }
      ],
      "stateMutability": "view",
      "type": "function"
    },
    {
      "inputs": [],
      "name": "name",
      "outputs": [
        {
          "internalType": "string",
          "name": "",
          "type": "string"
        }
      ],
      "stateMutability": "view",
      "type": "function"
    },
    {
      "inputs": [
        {
          "internalType": "address payable",
          "name": "_keeper",
          "type": "address"
        },
        {
          "internalType": "uint256",
          "name": "_fee",
          "type": "uint256"
        }
      ],
      "name": "payKeeper",
      "outputs": [],
      "stateMutability": "nonpayable",
      "type": "function"
    },
    {
      "inputs": [],
      "name": "principal",
      "outputs": [
        {
          "internalType": "uint256",
          "name": "",
          "type": "uint256"
        }
      ],
      "stateMutability": "view",
      "type": "function"
    },
    {
      "inputs": [],
      "name": "reserveAsset",
      "outputs": [
        {
          "internalType": "address",
          "name": "",
          "type": "address"
        }
      ],
      "stateMutability": "view",
      "type": "function"
    },
    {
      "inputs": [],
      "name": "reserveAssetPrincipalWindow",
      "outputs": [
        {
          "internalType": "uint256",
          "name": "",
          "type": "uint256"
        }
      ],
      "stateMutability": "view",
      "type": "function"
    },
    {
      "inputs": [],
      "name": "reserveAssetRewardsSetAside",
      "outputs": [
        {
          "internalType": "uint256",
          "name": "",
          "type": "uint256"
        }
      ],
      "stateMutability": "view",
      "type": "function"
    },
    {
      "inputs": [
        {
          "internalType": "bool",
          "name": "_newValue",
          "type": "bool"
        }
      ],
      "name": "setActive",
      "outputs": [],
      "stateMutability": "nonpayable",
      "type": "function"
    },
    {
      "inputs": [
        {
          "internalType": "uint256",
          "name": "_amount",
          "type": "uint256"
        },
        {
          "internalType": "uint256",
          "name": "_rewards",
          "type": "uint256"
        },
        {
          "internalType": "int256",
          "name": "_returns",
          "type": "int256"
        },
        {
          "internalType": "address",
          "name": "_strategy",
          "type": "address"
        }
      ],
      "name": "startWithdrawalWindow",
      "outputs": [],
      "stateMutability": "nonpayable",
      "type": "function"
    },
    {
      "inputs": [],
      "name": "strategyCooldownPeriod",
      "outputs": [
        {
          "internalType": "uint256",
          "name": "",
          "type": "uint256"
        }
      ],
      "stateMutability": "view",
      "type": "function"
    },
    {
      "inputs": [
        {
          "internalType": "address",
          "name": "",
          "type": "address"
        }
      ],
      "name": "strategyMapping",
      "outputs": [
        {
          "internalType": "bool",
          "name": "",
          "type": "bool"
        }
      ],
      "stateMutability": "view",
      "type": "function"
    },
    {
      "inputs": [],
      "name": "symbol",
      "outputs": [
        {
          "internalType": "string",
          "name": "",
          "type": "string"
        }
      ],
      "stateMutability": "view",
      "type": "function"
    },
    {
      "inputs": [],
      "name": "totalContributors",
      "outputs": [
        {
          "internalType": "uint256",
          "name": "",
          "type": "uint256"
        }
      ],
      "stateMutability": "view",
      "type": "function"
    },
    {
      "inputs": [],
      "name": "totalStake",
      "outputs": [
        {
          "internalType": "uint256",
          "name": "",
          "type": "uint256"
        }
      ],
      "stateMutability": "view",
      "type": "function"
    },
    {
      "inputs": [],
      "name": "totalSupply",
      "outputs": [
        {
          "internalType": "uint256",
          "name": "",
          "type": "uint256"
        }
      ],
      "stateMutability": "view",
      "type": "function"
    },
    {
      "inputs": [
        {
          "internalType": "address",
          "name": "recipient",
          "type": "address"
        },
        {
          "internalType": "uint256",
          "name": "amount",
          "type": "uint256"
        }
      ],
      "name": "transfer",
      "outputs": [
        {
          "internalType": "bool",
          "name": "",
          "type": "bool"
        }
      ],
      "stateMutability": "nonpayable",
      "type": "function"
    },
    {
      "inputs": [
        {
          "internalType": "address",
          "name": "sender",
          "type": "address"
        },
        {
          "internalType": "address",
          "name": "recipient",
          "type": "address"
        },
        {
          "internalType": "uint256",
          "name": "amount",
          "type": "uint256"
        }
      ],
      "name": "transferFrom",
      "outputs": [
        {
          "internalType": "bool",
          "name": "",
          "type": "bool"
        }
      ],
      "stateMutability": "nonpayable",
      "type": "function"
    },
    {
      "inputs": [
        {
          "internalType": "uint256",
          "name": "_gardenTokenQuantity",
          "type": "uint256"
        },
        {
          "internalType": "uint256",
          "name": "_minReserveReceiveQuantity",
          "type": "uint256"
        },
        {
          "internalType": "address payable",
          "name": "_to",
          "type": "address"
        },
        {
          "internalType": "bool",
          "name": "_withPenalty",
          "type": "bool"
        }
      ],
      "name": "withdraw",
      "outputs": [],
      "stateMutability": "nonpayable",
      "type": "function"
    },
    {
      "inputs": [],
      "name": "withdrawalsOpenUntil",
      "outputs": [
        {
          "internalType": "uint256",
          "name": "",
          "type": "uint256"
        }
      ],
      "stateMutability": "view",
      "type": "function"
    },
    {
      "stateMutability": "payable",
      "type": "receive"
    }
  ],
  "transactionHash": "0x380f830744dcde8d52f1f932b3238b7b84ac1695a4668b681561ac0fc9519b4d",
  "args": [],
  "solcInputHash": "1e6d156fb71d6da7705240c4305a90fd",
  "bytecode": "0x608060405267016345785d8a0000607a5534801561001c57600080fd5b50600160655561590380620000326000396000f3fe6080604052600436106103645760003560e01c80637ce9059c116101c6578063b2644e66116100f7578063c408689311610095578063f251fc8c1161006f578063f251fc8c1461102d578063f77c479114611042578063f828162614611057578063f85cb5c81461106c5761036b565b8063c408689314610f91578063cb12233b14610fdd578063dd62ed3e14610ff25761036b565b8063b59adc59116100d1578063b59adc5914610f20578063b63c44e714610f52578063b9e6753914610f67578063ba5d307814610f7c5761036b565b8063b2644e6614610e73578063b304b81514610ea6578063b49a60bb14610f0b5761036b565b80639ab6374211610164578063a9059cbb1161013e578063a9059cbb14610db2578063aaffadf314610deb578063ac39871714610e00578063acec338a14610e475761036b565b80639ab6374214610d2b578063a457c2d714610d64578063a63c643d14610d9d5761036b565b80638bbde0fd116101a05780638bbde0fd14610cd75780638ee330b014610cec57806395cdbedb14610d0157806395d89b4114610d165761036b565b80637ce9059c14610c9857806386fa506314610cad5780638b0e9f3f14610cc25761036b565b806339509351116102a05780635a16656a1161023e578063695f3f5d11610218578063695f3f5d14610c0157806370a0823114610c3b5780637550ed1814610c6e578063792e42e214610c835761036b565b80635a16656a14610a385780635fe3d4ce14610a4d57806360d442ca14610bec5761036b565b80633d8270f51161027a5780633d8270f51461097e5780633deddb3f146109e45780634422b0dc146109f95780634edfb99a14610a235761036b565b806339509351146108955780633a821925146108ce5780633ad8d04d146109015761036b565b80631e6ea56f1161030d578063250caaa8116102e7578063250caaa8146107d7578063297ce5981461081c5780632befcc5c14610831578063313ce5671461086a5761036b565b80631e6ea56f146104e757806322385e381461076a57806323b872dd146107945761036b565b806306fdde031161033e57806306fdde03146103fd578063095ea7b31461048757806318160ddd146104c05761036b565b806302d05d3f1461037057806302fb0c5e146103a157806306061dfa146103ca5761036b565b3661036b57005b600080fd5b34801561037c57600080fd5b50610385611081565b604080516001600160a01b039092168252519081900360200190f35b3480156103ad57600080fd5b506103b6611090565b604080519115158252519081900360200190f35b3480156103d657600080fd5b506103b6600480360360208110156103ed57600080fd5b50356001600160a01b03166110a0565b34801561040957600080fd5b506104126110b5565b6040805160208082528351818301528351919283929083019185019080838360005b8381101561044c578181015183820152602001610434565b50505050905090810190601f1680156104795780820380516001836020036101000a031916815260200191505b509250505060405180910390f35b34801561049357600080fd5b506103b6600480360360408110156104aa57600080fd5b506001600160a01b03813516906020013561114b565b3480156104cc57600080fd5b506104d5611169565b60408051918252519081900360200190f35b3480156104f357600080fd5b50610768600480360360c081101561050a57600080fd5b81019060208101813564010000000081111561052557600080fd5b82018360208201111561053757600080fd5b8035906020019184600183028401116401000000008311171561055957600080fd5b91908080601f01602080910402602001604051908101604052809392919081815260200183838082843760009201919091525092959493602081019350359150506401000000008111156105ac57600080fd5b8201836020820111156105be57600080fd5b803590602001918460018302840111640100000000831117156105e057600080fd5b91908080601f016020809104026020016040519081016040528093929190818152602001838380828437600092019190915250929594936020810193503591505064010000000081111561063357600080fd5b82018360208201111561064557600080fd5b8035906020019184602083028401116401000000008311171561066757600080fd5b91939092909160208101903564010000000081111561068557600080fd5b82018360208201111561069757600080fd5b803590602001918460208302840111640100000000831117156106b957600080fd5b9193909290916020810190356401000000008111156106d757600080fd5b8201836020820111156106e957600080fd5b8035906020019184602083028401116401000000008311171561070b57600080fd5b91939092909160208101903564010000000081111561072957600080fd5b82018360208201111561073b57600080fd5b8035906020019184602083028401116401000000008311171561075d57600080fd5b50909250905061116f565b005b34801561077657600080fd5b506104d56004803603602081101561078d57600080fd5b503561170f565b3480156107a057600080fd5b506103b6600480360360608110156107b757600080fd5b506001600160a01b03813581169160208101359091169060400135611728565b3480156107e357600080fd5b50610768600480360360808110156107fa57600080fd5b50803590602081013590604081013590606001356001600160a01b03166117b0565b34801561082857600080fd5b506104d56119e0565b34801561083d57600080fd5b506107686004803603604081101561085457600080fd5b506001600160a01b0381351690602001356119e6565b34801561087657600080fd5b5061087f611a17565b6040805160ff9092168252519081900360200190f35b3480156108a157600080fd5b506103b6600480360360408110156108b857600080fd5b506001600160a01b038135169060200135611a20565b3480156108da57600080fd5b506103b6600480360360208110156108f157600080fd5b50356001600160a01b0316611a6e565b34801561090d57600080fd5b506107686004803603602081101561092457600080fd5b81019060208101813564010000000081111561093f57600080fd5b82018360208201111561095157600080fd5b8035906020019184602083028401116401000000008311171561097357600080fd5b509092509050611a83565b34801561098a57600080fd5b506109b1600480360360208110156109a157600080fd5b50356001600160a01b0316611f0e565b604080519687526020870195909552858501939093526060850191909152608084015260a0830152519081900360c00190f35b3480156109f057600080fd5b506104d5611f89565b348015610a0557600080fd5b5061076860048036036020811015610a1c57600080fd5b5035611f8f565b348015610a2f57600080fd5b506103b66120f6565b348015610a4457600080fd5b506104d5612106565b610768600480360360e0811015610a6357600080fd5b6001600160a01b0382358116926020810135821692604082013590921691810190608081016060820135640100000000811115610a9f57600080fd5b820183602082011115610ab157600080fd5b80359060200191846001830284011164010000000083111715610ad357600080fd5b91908080601f0160208091040260200160405190810160405280939291908181526020018383808284376000920191909152509295949360208101935035915050640100000000811115610b2657600080fd5b820183602082011115610b3857600080fd5b80359060200191846001830284011164010000000083111715610b5a57600080fd5b91908080601f0160208091040260200160405190810160405280939291908181526020018383808284376000920191909152509295949360208101935035915050640100000000811115610bad57600080fd5b820183602082011115610bbf57600080fd5b80359060200191846020830284011164010000000083111715610be157600080fd5b91935091503561210c565b348015610bf857600080fd5b506104d5612561565b61076860048036036080811015610c1757600080fd5b508035906020810135906001600160a01b0360408201351690606001351515612567565b348015610c4757600080fd5b506104d560048036036020811015610c5e57600080fd5b50356001600160a01b0316612acd565b348015610c7a57600080fd5b506104d5612ae8565b348015610c8f57600080fd5b506104d5612aee565b348015610ca457600080fd5b506104d5612af4565b348015610cb957600080fd5b506104d5612afa565b348015610cce57600080fd5b506104d5612b00565b348015610ce357600080fd5b506104d5612b06565b348015610cf857600080fd5b506104d5612b0c565b348015610d0d57600080fd5b506104d5612b12565b348015610d2257600080fd5b50610412612b18565b348015610d3757600080fd5b5061076860048036036040811015610d4e57600080fd5b506001600160a01b038135169060200135612b79565b348015610d7057600080fd5b506103b660048036036040811015610d8757600080fd5b506001600160a01b038135169060200135612cf4565b348015610da957600080fd5b506104d5612d5c565b348015610dbe57600080fd5b506103b660048036036040811015610dd557600080fd5b506001600160a01b038135169060200135612d62565b348015610df757600080fd5b506104d5612d76565b348015610e0c57600080fd5b5061076860048036036080811015610e2357600080fd5b508035906020810135906001600160a01b0360408201351690606001351515612d7c565b348015610e5357600080fd5b5061076860048036036020811015610e6a57600080fd5b50351515612f9b565b348015610e7f57600080fd5b5061076860048036036020811015610e9657600080fd5b50356001600160a01b0316612ff2565b348015610eb257600080fd5b50610ebb61309b565b60408051602080825283518183015283519192839290830191858101910280838360005b83811015610ef7578181015183820152602001610edf565b505050509050019250505060405180910390f35b348015610f1757600080fd5b50610ebb6130fc565b348015610f2c57600080fd5b506104d560048036036040811015610f4357600080fd5b5080359060200135151561315c565b348015610f5e57600080fd5b506104d5613348565b348015610f7357600080fd5b506104d561334e565b348015610f8857600080fd5b506104d5613354565b348015610f9d57600080fd5b50610fc460048036036020811015610fb457600080fd5b50356001600160a01b031661335a565b6040805192835260208301919091528051918290030190f35b348015610fe957600080fd5b506104d5613554565b348015610ffe57600080fd5b506104d56004803603604081101561101557600080fd5b506001600160a01b038135811691602001351661355a565b34801561103957600080fd5b506104d5613585565b34801561104e57600080fd5b5061038561358b565b34801561106357600080fd5b5061076861359a565b34801561107857600080fd5b5061038561365c565b6069546001600160a01b031681565b606954600160a01b900460ff1681565b60826020526000908152604090205460ff1681565b60368054604080516020601f60026000196101006001881615020190951694909404938401819004810282018101909252828152606093909290918301828280156111415780601f1061111657610100808354040283529160200191611141565b820191906000526020600020905b81548152906001019060200180831161112457829003601f168201915b5050505050905090565b600061115f61115861366b565b848461366f565b5060015b92915050565b60355490565b61117761375b565b61117f61377d565b606754604080517fc8ed947f00000000000000000000000000000000000000000000000000000000815290516112a4926001600160a01b03169163c8ed947f916004808301926020929190829003018186803b1580156111de57600080fd5b505afa1580156111f2573d6000803e3d6000fd5b505050506040513d602081101561120857600080fd5b5051604080517f5066c71400000000000000000000000000000000000000000000000000000000815230600482015233602482015290516001600160a01b0390921691635066c71491604480820192602092909190829003018186803b15801561127157600080fd5b505afa158015611285573d6000803e3d6000fd5b505050506040513d602081101561129b57600080fd5b5051601e613797565b607f546112b590601411601a613797565b6112c360048814604d613797565b606754604080517f9ef3571000000000000000000000000000000000000000000000000000000000815290516000926001600160a01b031691639ef35710916004808301926020929190829003018186803b15801561132157600080fd5b505afa158015611335573d6000803e3d6000fd5b505050506040513d602081101561134b57600080fd5b81019080805190602001909291905050506001600160a01b03166378afca3e8c8c33308e8e6040518763ffffffff1660e01b8152600401808060200180602001876001600160a01b03168152602001866001600160a01b031681526020018060200184810384528a818151815260200191508051906020019080838360005b838110156113e25781810151838201526020016113ca565b50505050905090810190601f16801561140f5780820380516001836020036101000a031916815260200191505b5084810383528951815289516020918201918b019080838360005b8381101561144257818101518382015260200161142a565b50505050905090810190601f16801561146f5780820380516001836020036101000a031916815260200191505b508481038252868682818152602001925060200280828437600081840152601f19601f8201169050808301925050509950505050505050505050602060405180830381600087803b1580156114c357600080fd5b505af11580156114d7573d6000803e3d6000fd5b505050506040513d60208110156114ed57600080fd5b50516001600160a01b0381166000908152608160205260409020805460ff19166001908117909155909150611541908a908a9081811061152957fe5b905060200201356079546137a590919063ffffffff16565b607955607f80546001810182556000919091527f66925e85f1a4743fd8d60ba595ed74887b7caf321dd83b21e04d77c1153834080180546001600160a01b0319166001600160a01b0383169081179091556040517fc2ea0bc40000000000000000000000000000000000000000000000000000000081526060600482019081526064820189905263c2ea0bc4918a918a918a918a918a918a918190602481019060448101906084018a60208b0280828437600083820152601f01601f19169091018581038452888152602090810191508990890280828437600083820152601f01601f19169091018581038352868152602090810191508790870280828437600081840152601f19601f8201169050808301925050509950505050505050505050600060405180830381600087803b15801561167c57600080fd5b505af1158015611690573d6000803e3d6000fd5b5050506001600160a01b0382166000818152608260205260409020805460ff1916600117905590507fad5c211a0d035244e85dedad8dff9545aa6a4c7670f7d8ce5a2b41360bfbe0be8a8a60038181106116e657fe5b905060200201356040518082815260200191505060405180910390a25050505050505050505050565b606654600090611163906001600160a01b0316836137ff565b6000611735848484613986565b6117a58461174161366b565b6117a0856040518060600160405280602881526020016157c5602891396001600160a01b038a1660009081526034602052604081209061177f61366b565b6001600160a01b031681526020810191909152604001600020549190613ae3565b61366f565b5060015b9392505050565b6117b8613b7a565b336000908152608160205260409020546118579060ff1680156118505750306001600160a01b0316336001600160a01b03166356ba88b86040518163ffffffff1660e01b815260040160206040518083038186803b15801561181957600080fd5b505afa15801561182d573d6000803e3d6000fd5b505050506040513d602081101561184357600080fd5b50516001600160a01b0316145b6014613797565b61187461186f83611869606a54613c13565b90613c77565b613cdc565b606a556070544210156118b5576118ad6118a661189c42607054613d3390919063ffffffff16565b62093a8090613d33565b42906137a5565b6070556118c6565b6118c24262093a806137a5565b6070555b606b546118d390846137a5565b606b55606c546118e390856137a5565b606c55606d546118f39083613c77565b606d8190555061196681607f80548060200260200160405190810160405280929190818152602001828054801561195357602002820191906000526020600020905b81546001600160a01b03168152600190910190602001808311611935575b5050505050613d9090919063ffffffff16565b805161197a91607f91602090910190615575565b5060808054600181019091557f59f3fb058c6bba7a4e76396639fc4dd21bd59163db798899cf56cef48b3c9ec90180546001600160a01b039092166001600160a01b0319909216821790556000908152608160205260409020805460ff19169055505050565b607d5481565b6119ee613e0d565b6119f782612acd565b8110611a0957611a0682612acd565b90505b611a138282613e33565b5050565b60385460ff1690565b600061115f611a2d61366b565b846117a08560346000611a3e61366b565b6001600160a01b03908116825260208083019390935260409182016000908120918c1681529252902054906137a5565b60816020526000908152604090205460ff1681565b60026065541415611adb576040805162461bcd60e51b815260206004820152601f60248201527f5265656e7472616e637947756172643a207265656e7472616e742063616c6c00604482015290519081900360640190fd5b6002606555611ae861377d565b3360009081526071602052604090206002810154611b09904211600c613797565b60408051600780825261010082019092526000916020820160e08036833750506068546040517f69795e9300000000000000000000000000000000000000000000000000000000815230600482018181523360248401819052606060448501908152606485018b90529697506001600160a01b03909416956369795e9395509193928a928a9291608401846020850280828437600081840152601f19601f8201169050808301925050509550505050505060006040518083038186803b158015611bd257600080fd5b505afa158015611be6573d6000803e3d6000fd5b505050506040513d6000823e601f3d908101601f191682016040526020811015611c0f57600080fd5b8101908080516040519392919084640100000000821115611c2f57600080fd5b908301906020820185811115611c4457600080fd5b8251866020820283011164010000000082111715611c6157600080fd5b82525081516020918201928201910280838360005b83811015611c8e578181015183820152602001611c76565b505050509050016040525050509050611cde600082600581518110611caf57fe5b60200260200101511180611cd75750600082600681518110611ccd57fe5b6020026020010151115b6052613797565b600081600681518110611ced57fe5b60200260200101511115611dce57611d2681600681518110611d0b57fe5b602002602001015183600401546137a590919063ffffffff16565b8260040181905550611d5781600681518110611d3e57fe5b6020026020010151606b54613d3390919063ffffffff16565b606b554260028301558051611d8290339083906006908110611d7557fe5b6020026020010151613f2f565b80600681518110611d8f57fe5b6020026020010151336001600160a01b03167f4dacaff8a707e7b54321fbdedb3b65d1f3316b59787949c034bae8946d6ff4e160405160405180910390a35b600081600581518110611ddd57fe5b60200260200101511115611f0357611e1681600581518110611dfb57fe5b602002602001015183600301546137a590919063ffffffff16565b600383015542600283015560685481516001600160a01b039091169063a8d9a78190339084906005908110611e4757fe5b60200260200101516040518363ffffffff1660e01b815260040180836001600160a01b0316815260200182815260200192505050600060405180830381600087803b158015611e9557600080fd5b505af1158015611ea9573d6000803e3d6000fd5b50505050336001600160a01b03167f09703ae9c781fcf86e1d44c6d854c2684b3f5dcfe234dfc64f4d356d0e3cd73e82600581518110611ee557fe5b60200260200101516040518082815260200191505060405180910390a25b505060016065555050565b600080600080600080600060716000896001600160a01b03166001600160a01b03168152602001908152602001600020905080600001548160010154826002015483600301548460040154611f7486600501548760060154613d3390919063ffffffff16565b949d939c50919a509850965090945092505050565b607e5481565b611f97613e0d565b611f9f61375b565b611fa7613ff7565b600061202d82606760009054906101000a90046001600160a01b03166001600160a01b031663313754776040518163ffffffff1660e01b815260040160206040518083038186803b158015611ffb57600080fd5b505afa15801561200f573d6000803e3d6000fd5b505050506040513d602081101561202557600080fd5b50519061400c565b606c54606654604080516370a0823160e01b815230600482015290519394506120c9936120b693926001600160a01b0316916370a08231916024808301926020929190829003018186803b15801561208457600080fd5b505afa158015612098573d6000803e3d6000fd5b505050506040513d60208110156120ae57600080fd5b505190613d33565b6120c084846137a5565b11156004613797565b6066546120df906001600160a01b03168261402a565b606654611a13906001600160a01b031633846140c2565b606954600160a81b900460ff1681565b607b5481565b600054610100900460ff16806121255750612125614147565b80612133575060005460ff16155b61216e5760405162461bcd60e51b815260040180806020018281038252602e815260200180615776602e913960400191505060405180910390fd5b600054610100900460ff16158015612199576000805460ff1961ff0019909116610100171660011790555b6121a86032875110604f613797565b6122456001600160a01b038816158015906121cb57506001600160a01b03891615155b801561223e575060008a6001600160a01b031663313ce5676040518163ffffffff1660e01b815260040160206040518083038186803b15801561220d57600080fd5b505afa158015612221573d6000803e3d6000fd5b505050506040513d602081101561223757600080fd5b505160ff16115b6017613797565b612253600a8414604e613797565b6122d6886001600160a01b031663f979cdd98b6040518263ffffffff1660e01b815260040180826001600160a01b0316815260200191505060206040518083038186803b1580156122a357600080fd5b505afa1580156122b7573d6000803e3d6000fd5b505050506040513d60208110156122cd57600080fd5b5051600e613797565b6122e08686614158565b606780546001600160a01b03808b166001600160a01b03199283168117909355606680548d831690841617905560698054918b1691909216179055604080517f7177fec90000000000000000000000000000000000000000000000000000000081529051637177fec991600480820192602092909190829003018186803b15801561236a57600080fd5b505afa15801561237e573d6000803e3d6000fd5b505050506040513d602081101561239457600080fd5b5051607355606754604080517f3f2a554000000000000000000000000000000000000000000000000000000000815290516001600160a01b0390921691633f2a554091600480820192602092909190829003018186803b1580156123f757600080fd5b505afa15801561240b573d6000803e3d6000fd5b505050506040513d602081101561242157600080fd5b5051606880546001600160a01b0319166001600160a01b03928316179081905561244f911615156017613797565b6069805460ff60a81b1916600160a81b17905561253182858560008161247157fe5b905060200201358686600181811061248557fe5b905060200201358787600281811061249957fe5b90506020020135888860038181106124ad57fe5b90506020020135898960048181106124c157fe5b905060200201358a8a60058181106124d557fe5b905060200201358b8b60068181106124e957fe5b905060200201358c8c60078181106124fd57fe5b905060200201358d8d600881811061251157fe5b905060200201358e8e600981811061252557fe5b9050602002013561420d565b6069805460ff60a01b1916600160a01b1790558015612556576000805461ff00191690555b505050505050505050565b60835481565b600260655414156125bf576040805162461bcd60e51b815260206004820152601f60248201527f5265656e7472616e637947756172643a207265656e7472616e742063616c6c00604482015290519081900360640190fd5b60026065556125cc61375b565b60695461271190600160a81b900460ff1615806126f25750606760009054906101000a90046001600160a01b03166001600160a01b031663c8ed947f6040518163ffffffff1660e01b815260040160206040518083038186803b15801561263257600080fd5b505afa158015612646573d6000803e3d6000fd5b505050506040513d602081101561265c57600080fd5b5051604080517fc7ec5d5d00000000000000000000000000000000000000000000000000000000815230600482015233602482015290516001600160a01b039092169163c7ec5d5d91604480820192602092909190829003018186803b1580156126c557600080fd5b505afa1580156126d9573d6000803e3d6000fd5b505050506040513d60208110156126ef57600080fd5b50515b8061270a57506069546001600160a01b038481169116145b601d613797565b6074541561273d5761273d60745461273486606a546137a590919063ffffffff16565b11156000613797565b61274f6073546072541115603d613797565b61275f6077548510156001613797565b606654604080516370a0823160e01b815230600482015290516000926001600160a01b0316916370a08231916024808301926020929190829003018186803b1580156127aa57600080fd5b505afa1580156127be573d6000803e3d6000fd5b505050506040513d60208110156127d457600080fd5b50516066549091506001600160a01b031673c02aaa39b223fe8d0a0e5c4f27ead9083c756cc21480156128075750600034115b156128795773c02aaa39b223fe8d0a0e5c4f27ead9083c756cc26001600160a01b031663d0e30db0346040518263ffffffff1660e01b81526004016000604051808303818588803b15801561285b57600080fd5b505af115801561286f573d6000803e3d6000fd5b5050505050612891565b606654612891906001600160a01b031633308861452d565b606654604080516370a0823160e01b815230600482015290516128ed9288926128e59286926001600160a01b0316916370a08231916024808301926020929190829003018186803b15801561208457600080fd5b146005613797565b6128fb848610156002613797565b600061290684612acd565b905061291c8461291788600161315c565b6145bb565b6129278482886146ad565b606a5461293490876137a5565b606a558215612a4957606760009054906101000a90046001600160a01b03166001600160a01b031663ead4c1cf6040518163ffffffff1660e01b815260040160206040518083038186803b15801561298b57600080fd5b505afa15801561299f573d6000803e3d6000fd5b505050506040513d60208110156129b557600080fd5b5051604080517f45b497470000000000000000000000000000000000000000000000000000000081526001600160a01b038781166004830152915191909216916345b497479160248083019260209291908290030181600087803b158015612a1c57600080fd5b505af1158015612a30573d6000803e3d6000fd5b505050506040513d6020811015612a4657600080fd5b50505b612a5e6000612a56611169565b116004613797565b6040805134815260208101889052428183015290516001600160a01b038616917f8d878fd0c5092c0e518d34fa1f3d23c8b3a1b2b7f86174bdba0ceaabf68b5a53919081900360600190a2612ac0607854612ab7611169565b10156002613797565b5050600160655550505050565b6001600160a01b031660009081526033602052604090205490565b606f5481565b606d5481565b60705481565b60735481565b60795481565b607a5481565b606c5481565b607c5481565b60378054604080516020601f60026000196101006001881615020190951694909404938401819004810282018101909252828152606093909290918301828280156111415780601f1061111657610100808354040283529160200191611141565b606754604080517f411137c30000000000000000000000000000000000000000000000000000000081526001600160a01b0385811660048301529151612c1793929092169163411137c391602480820192602092909190829003018186803b158015612be457600080fd5b505afa158015612bf8573d6000803e3d6000fd5b505050506040513d6020811015612c0e57600080fd5b50516012613797565b612c1f613e0d565b608354612c2c90826137a5565b608381905515801590612cb75750608354606654604080516370a0823160e01b815230600482015290516001600160a01b03909216916370a0823191602480820192602092909190829003018186803b158015612c8857600080fd5b505afa158015612c9c573d6000803e3d6000fd5b505050506040513d6020811015612cb257600080fd5b505110155b15611a1357608354606654612cd9916001600160a01b039091169084906140c2565b608354606a54612ce891613d33565b606a5560006083555050565b600061115f612d0161366b565b846117a0856040518060600160405280602581526020016158a96025913960346000612d2b61366b565b6001600160a01b03908116825260208083019390935260409182016000908120918d16815292529020549190613ae3565b606e5481565b600061115f612d6f61366b565b8484613986565b60775481565b60026065541415612dd4576040805162461bcd60e51b815260206004820152601f60248201527f5265656e7472616e637947756172643a207265656e7472616e742063616c6c00604482015290519081900360640190fd5b6002606555612de161377d565b604080517fc408689300000000000000000000000000000000000000000000000000000000815233600482015281516000928392309263c408689392602480840193919291829003018186803b158015612e3a57600080fd5b505afa158015612e4e573d6000803e3d6000fd5b505050506040513d6040811015612e6457600080fd5b5080516020909101519092509050612e92612e8883612e8233612acd565b90613d33565b8711156007613797565b82612eb957612ea7612e8882612e8233612acd565b612eb28686866147ad565b5050611f03565b612ece612ec633886148b8565b15601c613797565b6000612eec612ee588670214e8348c4f000061400c565b8890613d33565b9050600080612ef9614a48565b9250925050806001600160a01b03166342296724846040518263ffffffff1660e01b815260040180828152602001915050600060405180830381600087803b158015612f4457600080fd5b505af1158015612f58573d6000803e3d6000fd5b50505050612f8033612f7b670214e8348c4f00008c61400c90919063ffffffff16565b613e33565b612f8b8389896147ad565b5050505050505060016065555050565b606754612fb4906001600160a01b031633146010613797565b606954612fd49060ff600160a01b90910416151582151514156016613797565b60698054911515600160a01b0260ff60a01b19909216919091179055565b612ffa613e0d565b61306581607f805480602002602001604051908101604052809291908181526020018280548015611953576020028201919060005260206000209081546001600160a01b03168152600190910190602001808311611935575050505050613d9090919063ffffffff16565b805161307991607f91602090910190615575565b506001600160a01b03166000908152608160205260409020805460ff19169055565b6060608080548060200260200160405190810160405280929190818152602001828054801561114157602002820191906000526020600020905b81546001600160a01b031681526001909101906020018083116130d5575050505050905090565b6060607f805480602002602001604051908101604052809291908181526020018280548015611141576020028201919060005260206000209081546001600160a01b031681526001909101906020018083116130d5575050505050905090565b600080606660009054906101000a90046001600160a01b03166001600160a01b031663313ce5676040518163ffffffff1660e01b815260040160206040518083038186803b1580156131ad57600080fd5b505afa1580156131c1573d6000803e3d6000fd5b505050506040513d60208110156131d757600080fd5b505160ff16600a0a905060006131ed8583614bc6565b90506131f7611169565b6132045791506111639050565b606754604080517f294d237c00000000000000000000000000000000000000000000000000000000815290516000926001600160a01b03169163294d237c916004808301926020929190829003018186803b15801561326257600080fd5b505afa158015613276573d6000803e3d6000fd5b505050506040513d602081101561328c57600080fd5b505160665460408051635e0a3b9d60e11b81523060048201526001600160a01b0392831660248201529051919092169163bc14773a916044808301926020929190829003018186803b1580156132e157600080fd5b505afa1580156132f5573d6000803e3d6000fd5b505050506040513d602081101561330b57600080fd5b5051905084156133345761333161332a613323611169565b8490614bc6565b8290613d33565b90505b61333e8282614bc6565b9695505050505050565b60745481565b606b5481565b606a5481565b60008060008060005b607f5481101561352d576000607f828154811061337c57fe5b60009182526020918290200154604080517f1fe4a68600000000000000000000000000000000000000000000000000000000815290516001600160a01b0390921693508392631fe4a68692600480840193829003018186803b1580156133e157600080fd5b505afa1580156133f5573d6000803e3d6000fd5b505050506040513d602081101561340b57600080fd5b50516001600160a01b03888116911614156134925761348f816001600160a01b0316633a4b66f16040518163ffffffff1660e01b815260040160206040518083038186803b15801561345c57600080fd5b505afa158015613470573d6000803e3d6000fd5b505050506040513d602081101561348657600080fd5b505185906137a5565b93505b6000613515826001600160a01b031663950c78228a6040518263ffffffff1660e01b815260040180826001600160a01b0316815260200191505060206040518083038186803b1580156134e457600080fd5b505afa1580156134f8573d6000803e3d6000fd5b505050506040513d602081101561350e57600080fd5b5051614bde565b905083811115613523578093505b5050600101613363565b508161353886612acd565b101561354a5761354785612acd565b91505b9092509050915091565b60755481565b6001600160a01b03918216600090815260346020908152604080832093909416825291909152205490565b60725481565b6067546001600160a01b031681565b6069546135b3906001600160a01b031633146011613797565b60695461364d90600160a81b900460ff1680156136465750606760009054906101000a90046001600160a01b03166001600160a01b0316637f80e05b6040518163ffffffff1660e01b815260040160206040518083038186803b15801561361957600080fd5b505afa15801561362d573d6000803e3d6000fd5b505050506040513d602081101561364357600080fd5b50515b6043613797565b6069805460ff60a81b19169055565b6066546001600160a01b031681565b3390565b6001600160a01b0383166136b45760405162461bcd60e51b81526004018080602001828103825260248152602001806158336024913960400191505060405180910390fd5b6001600160a01b0382166136f95760405162461bcd60e51b81526004018080602001828103825260228152602001806156ad6022913960400191505060405180910390fd5b6001600160a01b03808416600081815260346020908152604080832094871680845294825291829020859055815185815291517f8c5be1e5ebec7d5bd14f71427d1e84f3dd0314c0f7b2291e5b200ac8c7c3b9259281900390910190a3505050565b613763613b7a565b60695461377b90600160a01b900460ff166015613797565b565b613785613b7a565b61377b600061379333612acd565b11600f5b81611a1357611a1381614bf1565b6000828201838110156117a9576040805162461bcd60e51b815260206004820152601b60248201527f536166654d6174683a206164646974696f6e206f766572666c6f770000000000604482015290519081900360640190fd5b600080606760009054906101000a90046001600160a01b03166001600160a01b031663294d237c6040518163ffffffff1660e01b815260040160206040518083038186803b15801561385057600080fd5b505afa158015613864573d6000803e3d6000fd5b505050506040513d602081101561387a57600080fd5b505160408051635e0a3b9d60e11b81523060048201526001600160a01b0387811660248301529151919092169163bc14773a916044808301926020929190829003018186803b1580156138cc57600080fd5b505afa1580156138e0573d6000803e3d6000fd5b505050506040513d60208110156138f657600080fd5b505190506000613906848361400c565b905061397d856001600160a01b031663313ce5676040518163ffffffff1660e01b815260040160206040518083038186803b15801561394457600080fd5b505afa158015613958573d6000803e3d6000fd5b505050506040513d602081101561396e57600080fd5b5051829060ff16600a0a61400c565b95945050505050565b6001600160a01b0383166139cb5760405162461bcd60e51b815260040180806020018281038252602581526020018061580e6025913960400191505060405180910390fd5b6001600160a01b038216613a105760405162461bcd60e51b81526004018080602001828103825260238152602001806156686023913960400191505060405180910390fd5b613a1b838383614c44565b613a58816040518060600160405280602681526020016156cf602691396001600160a01b0386166000908152603360205260409020549190613ae3565b6001600160a01b038085166000908152603360205260408082209390935590841681522054613a8790826137a5565b6001600160a01b0380841660008181526033602090815260409182902094909455805185815290519193928716927fddf252ad1be2c89b69c2b068fc378daa952ba7f163c4a11628f55a4df523b3ef92918290030190a3505050565b60008184841115613b725760405162461bcd60e51b81526004018080602001828103825283818151815260200191508051906020019080838360005b83811015613b37578181015183820152602001613b1f565b50505050905090810190601f168015613b645780820380516001836020036101000a031916815260200191505b509250505060405180910390fd5b505050900390565b606754604080517f5b14f183000000000000000000000000000000000000000000000000000000008152306004820152905161377b926001600160a01b031691635b14f183916024808301926020929190829003018186803b158015613bdf57600080fd5b505afa158015613bf3573d6000803e3d6000fd5b505050506040513d6020811015613c0957600080fd5b5051156053613797565b60007f80000000000000000000000000000000000000000000000000000000000000008210613c735760405162461bcd60e51b81526004018080602001828103825260288152602001806158576028913960400191505060405180910390fd5b5090565b6000828201818312801590613c8c5750838112155b80613ca15750600083128015613ca157508381125b6117a95760405162461bcd60e51b81526004018080602001828103825260218152602001806156f56021913960400191505060405180910390fd5b600080821215613c73576040805162461bcd60e51b815260206004820181905260248201527f53616665436173743a2076616c7565206d75737420626520706f736974697665604482015290519081900360640190fd5b600082821115613d8a576040805162461bcd60e51b815260206004820152601e60248201527f536166654d6174683a207375627472616374696f6e206f766572666c6f770000604482015290519081900360640190fd5b50900390565b6060600080613d9f8585614d0c565b9150915080613df5576040805162461bcd60e51b815260206004820152601560248201527f41646472657373206e6f7420696e2061727261792e0000000000000000000000604482015290519081900360640190fd5b6000613e018684614d72565b50935061116392505050565b613e15613b7a565b3360009081526081602052604090205461377b9060ff166014613797565b6001600160a01b038216613e785760405162461bcd60e51b81526004018080602001828103825260218152602001806157ed6021913960400191505060405180910390fd5b613e8482600083614c44565b613ec18160405180606001604052806022815260200161568b602291396001600160a01b0385166000908152603360205260409020549190613ae3565b6001600160a01b038316600090815260336020526040902055603554613ee79082613d33565b6035556040805182815290516000916001600160a01b038516917fddf252ad1be2c89b69c2b068fc378daa952ba7f163c4a11628f55a4df523b3ef9181900360200190a35050565b6066546001600160a01b031673c02aaa39b223fe8d0a0e5c4f27ead9083c756cc21415613fe05780471015613fd15773c02aaa39b223fe8d0a0e5c4f27ead9083c756cc2632e1a7d4d613f828347613d33565b6040518263ffffffff1660e01b815260040180828152602001915050600060405180830381600087803b158015613fb857600080fd5b505af1158015613fcc573d6000803e3d6000fd5b505050505b613fdb8282614ed6565b611a13565b606654611a13906001600160a01b031683836140c2565b607054421061377b5760006070819055606c55565b60006117a9670de0b6b3a76400006140248585614fbb565b90615014565b606754604080517f61d027b30000000000000000000000000000000000000000000000000000000081529051611a13926001600160a01b0316916361d027b3916004808301926020929190829003018186803b15801561408957600080fd5b505afa15801561409d573d6000803e3d6000fd5b505050506040513d60208110156140b357600080fd5b50516001600160a01b03841690835b604080516001600160a01b038416602482015260448082018490528251808303909101815260649091019091526020810180517bffffffffffffffffffffffffffffffffffffffffffffffffffffffff167fa9059cbb0000000000000000000000000000000000000000000000000000000017905261414290849061507b565b505050565b60006141523061512c565b15905090565b600054610100900460ff16806141715750614171614147565b8061417f575060005460ff16155b6141ba5760405162461bcd60e51b815260040180806020018281038252602e815260200180615776602e913960400191505060405180910390fd5b600054610100900460ff161580156141e5576000805460ff1961ff0019909116610100171660011790555b6141ed615132565b6141f783836151d4565b8015614142576000805461ff0019169055505050565b6142276000871180156142205750868c10155b6001613797565b6142d5898c101580156142ce5750606754606654604080517ff05017eb0000000000000000000000000000000000000000000000000000000081526001600160a01b0392831660048201529051919092169163f05017eb916024808301926020929190829003018186803b15801561429e57600080fd5b505afa1580156142b2573d6000803e3d6000fd5b505050506040513d60208110156142c857600080fd5b50518910155b6004613797565b61433e8a8c1115801561433757506066546001600160a01b031673c02aaa39b223fe8d0a0e5c4f27ead9083c756cc21461431a576a084595161401484a000000614326565b69021e19e0c9bab24000005b6affffffffffffffffffffff168b11155b6000613797565b61434c60008a116002613797565b61435a600088116003613797565b606754604080517f8e20fb070000000000000000000000000000000000000000000000000000000081529051614474926001600160a01b031691638e20fb07916004808301926020929190829003018186803b1580156143b957600080fd5b505afa1580156143cd573d6000803e3d6000fd5b505050506040513d60208110156143e357600080fd5b5051861180159061446d5750606760009054906101000a90046001600160a01b03166001600160a01b0316636b2fb6786040518163ffffffff1660e01b815260040160206040518083038186803b15801561443d57600080fd5b505afa158015614451573d6000803e3d6000fd5b505050506040513d602081101561446757600080fd5b50518610155b6018613797565b6144a867016345785d8a000085101580156144a1575061449d67016345785d8a00006005614fbb565b8511155b6019613797565b6144d58383101580156144be5750620151808410155b80156144ce57506302932e008311155b603f613797565b6144f0600182101580156144e95750600a82105b6040613797565b607795909555607e93909355607a91909155607b92909255607c91909155607d5560789290925560749290925542607555606e91909155606f5550565b604080516001600160a01b0380861660248301528416604482015260648082018490528251808303909101815260849091019091526020810180517bffffffffffffffffffffffffffffffffffffffffffffffffffffffff167f23b872dd000000000000000000000000000000000000000000000000000000001790526145b590859061507b565b50505050565b6001600160a01b038216614616576040805162461bcd60e51b815260206004820152601f60248201527f45524332303a206d696e7420746f20746865207a65726f206164647265737300604482015290519081900360640190fd5b61462260008383614c44565b60355461462f90826137a5565b6035556001600160a01b03821660009081526033602052604090205461465590826137a5565b6001600160a01b03831660008181526033602090815260408083209490945583518581529351929391927fddf252ad1be2c89b69c2b068fc378daa952ba7f163c4a11628f55a4df523b3ef9281900390910190a35050565b6001600160a01b03831660009081526071602052604090208215806146d457506001810154155b15614702576146ea60735460725410603d613797565b6072546146f89060016137a5565b6072554260018201555b600681015461471190836137a5565b60068201554281556068546076546040805163bad67dd160e01b81523060048201526001600160a01b038881166024830152604482018890526001606483015260848201939093529051919092169163bad67dd19160a480830192600092919082900301818387803b15801561478657600080fd5b505af115801561479a573d6000803e3d6000fd5b5050607680546001019055505050505050565b606f54336000908152607160205260409020546147d991906147d0904290613d33565b10156003613797565b6147e1613ff7565b6066546000906147fa906001600160a01b0316856137ff565b90506148096142ce33836148b8565b61481b607854612ab786612e82611169565b614829838210156002613797565b6148333385613e33565b61483d3382613f2f565b614846816152ac565b61485681606a5410156008613797565b606a546148639082613d33565b606a556040805182815260208101869052428183015290516001600160a01b0384169133917f32a44bf15c44dad7691e20191a033527995d56d46ebe5115756d9e2eec16d3339181900360600190a350505050565b606654604080516370a0823160e01b8152306004820152905160009283926001600160a01b03909116916370a0823191602480820192602092909190829003018186803b15801561490857600080fd5b505afa15801561491c573d6000803e3d6000fd5b505050506040513d602081101561493257600080fd5b50519050614944838210156042613797565b6070544211614a3e57606c5461495a90846137a5565b81111561496b576001915050611163565b6068546001600160a01b0385811660008181526071602090815260408083206001015481517f7602bdde000000000000000000000000000000000000000000000000000000008152306004820152602481019590955260448501524260648501525191949390931692637602bdde9260848082019391829003018186803b1580156149f557600080fd5b505afa158015614a09573d6000803e3d6000fd5b505050506040513d6020811015614a1f57600080fd5b5051606c549091508490614a33908361400c565b101592505050611163565b8211159050611163565b60008080808080805b607f5460ff82161015614bb9576000607f8260ff1681548110614a7057fe5b60009182526020918290200154604080517fe4df5e1a00000000000000000000000000000000000000000000000000000000815290516001600160a01b039092169350839263e4df5e1a92600480840193829003018186803b158015614ad557600080fd5b505afa158015614ae9573d6000803e3d6000fd5b505050506040513d6020811015614aff57600080fd5b505115614bb0576000816001600160a01b03166303cddb2c6040518163ffffffff1660e01b815260040160206040518083038186803b158015614b4157600080fd5b505afa158015614b55573d6000803e3d6000fd5b505050506040513d6020811015614b6b57600080fd5b50519050614b7986826137a5565b955084811115614bae57809450607f8360ff1681548110614b9657fe5b6000918252602090912001546001600160a01b031693505b505b50600101614a51565b5091945092509050909192565b60006117a98261402485670de0b6b3a7640000614fbb565b600080821215613c735781600003611163565b62461bcd60e51b6000908152602060045260076024526642414223000030600a808404818106603090810160081b95839006959095019082900491820690940160101b939093010160c81b604452606490fd5b614c4f838383614142565b6141426001600160a01b0384161580614c6f57506001600160a01b038316155b80614d055750606760009054906101000a90046001600160a01b03166001600160a01b031663393bfe496040518163ffffffff1660e01b815260040160206040518083038186803b158015614cc357600080fd5b505afa158015614cd7573d6000803e3d6000fd5b505050506040513d6020811015614ced57600080fd5b50518015614d055750606954600160a81b900460ff16155b603b613797565b81516000908190815b81811015614d5f57846001600160a01b0316868281518110614d3357fe5b60200260200101516001600160a01b03161415614d5757925060019150614d6b9050565b600101614d15565b50600019600092509250505b9250929050565b8151606090600090808410614dce576040805162461bcd60e51b815260206004820152601860248201527f496e646578206d757374206265203c2041206c656e6774680000000000000000604482015290519081900360640190fd5b60006001820367ffffffffffffffff81118015614dea57600080fd5b50604051908082528060200260200182016040528015614e14578160200160208202803683370190505b50905060005b85811015614e6257868181518110614e2e57fe5b6020026020010151828281518110614e4257fe5b6001600160a01b0390921660209283029190910190910152600101614e1a565b50600185015b82811015614eb357868181518110614e7c57fe5b6020026020010151826001830381518110614e9357fe5b6001600160a01b0390921660209283029190910190910152600101614e68565b5080868681518110614ec157fe5b60200260200101519350935050509250929050565b80471015614f2b576040805162461bcd60e51b815260206004820152601d60248201527f416464726573733a20696e73756666696369656e742062616c616e6365000000604482015290519081900360640190fd5b6040516000906001600160a01b0384169083908381818185875af1925050503d8060008114614f76576040519150601f19603f3d011682016040523d82523d6000602084013e614f7b565b606091505b50509050806141425760405162461bcd60e51b815260040180806020018281038252603a815260200180615716603a913960400191505060405180910390fd5b600082614fca57506000611163565b82820282848281614fd757fe5b04146117a95760405162461bcd60e51b81526004018080602001828103825260218152602001806157a46021913960400191505060405180910390fd5b600080821161506a576040805162461bcd60e51b815260206004820152601a60248201527f536166654d6174683a206469766973696f6e206279207a65726f000000000000604482015290519081900360640190fd5b81838161507357fe5b049392505050565b60006150d0826040518060400160405280602081526020017f5361666545524332303a206c6f772d6c6576656c2063616c6c206661696c6564815250856001600160a01b031661539d9092919063ffffffff16565b805190915015614142578080602001905160208110156150ef57600080fd5b50516141425760405162461bcd60e51b815260040180806020018281038252602a81526020018061587f602a913960400191505060405180910390fd5b3b151590565b600054610100900460ff168061514b575061514b614147565b80615159575060005460ff16155b6151945760405162461bcd60e51b815260040180806020018281038252602e815260200180615776602e913960400191505060405180910390fd5b600054610100900460ff161580156151bf576000805460ff1961ff0019909116610100171660011790555b80156151d1576000805461ff00191690555b50565b600054610100900460ff16806151ed57506151ed614147565b806151fb575060005460ff16155b6152365760405162461bcd60e51b815260040180806020018281038252602e815260200180615776602e913960400191505060405180910390fd5b600054610100900460ff16158015615261576000805460ff1961ff0019909116610100171660011790555b82516152749060369060208601906155d6565b5081516152889060379060208501906155d6565b506038805460ff191660121790558015614142576000805461ff0019169055505050565b336000818152607160205260409020906152c590612acd565b6152f957600080825560018083018290556005830182905560068301919091556072546152f191613d33565b60725561530e565b600581015461530890836137a5565b60058201555b6068546076546040805163bad67dd160e01b815230600482015233602482015260006044820181905260648201819052608482019390935290516001600160a01b039093169263bad67dd19260a48084019391929182900301818387803b15801561537857600080fd5b505af115801561538c573d6000803e3d6000fd5b505060768054600101905550505050565b60606153ac84846000856153b4565b949350505050565b6060824710156153f55760405162461bcd60e51b81526004018080602001828103825260268152602001806157506026913960400191505060405180910390fd5b6153fe8561512c565b61544f576040805162461bcd60e51b815260206004820152601d60248201527f416464726573733a2063616c6c20746f206e6f6e2d636f6e7472616374000000604482015290519081900360640190fd5b600080866001600160a01b031685876040518082805190602001908083835b6020831061548d5780518252601f19909201916020918201910161546e565b6001836020036101000a03801982511681845116808217855250505050505090500191505060006040518083038185875af1925050503d80600081146154ef576040519150601f19603f3d011682016040523d82523d6000602084013e6154f4565b606091505b509150915061550482828661550f565b979650505050505050565b6060831561551e5750816117a9565b82511561552e5782518084602001fd5b60405162461bcd60e51b8152602060048201818152845160248401528451859391928392604401919085019080838360008315613b37578181015183820152602001613b1f565b8280548282559060005260206000209081019282156155ca579160200282015b828111156155ca57825182546001600160a01b0319166001600160a01b03909116178255602090920191600190910190615595565b50613c73929150615652565b828054600181600116156101000203166002900490600052602060002090601f01602090048101928261560c57600085556155ca565b82601f1061562557805160ff19168380011785556155ca565b828001600101855582156155ca579182015b828111156155ca578251825591602001919060010190615637565b5b80821115613c73576000815560010161565356fe45524332303a207472616e7366657220746f20746865207a65726f206164647265737345524332303a206275726e20616d6f756e7420657863656564732062616c616e636545524332303a20617070726f766520746f20746865207a65726f206164647265737345524332303a207472616e7366657220616d6f756e7420657863656564732062616c616e63655369676e6564536166654d6174683a206164646974696f6e206f766572666c6f77416464726573733a20756e61626c6520746f2073656e642076616c75652c20726563697069656e74206d61792068617665207265766572746564416464726573733a20696e73756666696369656e742062616c616e636520666f722063616c6c496e697469616c697a61626c653a20636f6e747261637420697320616c726561647920696e697469616c697a6564536166654d6174683a206d756c7469706c69636174696f6e206f766572666c6f7745524332303a207472616e7366657220616d6f756e74206578636565647320616c6c6f77616e636545524332303a206275726e2066726f6d20746865207a65726f206164647265737345524332303a207472616e736665722066726f6d20746865207a65726f206164647265737345524332303a20617070726f76652066726f6d20746865207a65726f206164647265737353616665436173743a2076616c756520646f65736e27742066697420696e20616e20696e743235365361666545524332303a204552433230206f7065726174696f6e20646964206e6f74207375636365656445524332303a2064656372656173656420616c6c6f77616e63652062656c6f77207a65726fa2646970667358221220a2ee9d73470bbd2e63d10f8c73c04e25ad3dedd11aec7728cadac4a96c6ab61864736f6c63430007060033",
  "devdoc": {
    "author": "Babylon Finance Class that holds common garden-related state and functions",
    "kind": "dev",
    "methods": {
      "addStrategy(string,string,uint256[],uint8[],address[],address[])": {
        "params": {
          "_name": "Name of the strategy",
          "_opDatas": "Param for every operation in the strategy",
          "_opIntegrations": "Integration to use for every operation",
          "_opTypes": "Type for every operation in the strategy",
          "_stratParams": "Num params for the strategy",
          "_symbol": "Symbol of the strategy"
        }
      },
      "allocateCapitalToStrategy(uint256)": {
        "params": {
          "_capital": "Amount of capital to allocate to the strategy"
        }
      },
      "allowance(address,address)": {
        "details": "See {IERC20-allowance}."
      },
      "approve(address,uint256)": {
        "details": "See {IERC20-approve}. Requirements: - `spender` cannot be the zero address."
      },
      "balanceOf(address)": {
        "details": "See {IERC20-balanceOf}."
      },
      "decimals()": {
        "details": "Returns the number of decimals used to get its user representation. For example, if `decimals` equals `2`, a balance of `505` tokens should be displayed to a user as `5,05` (`505 / 10 ** 2`). Tokens usually opt for a value of 18, imitating the relationship between Ether and Wei. This is the value {ERC20} uses, unless {_setupDecimals} is called. NOTE: This information is only used for _display_ purposes: it in no way affects any of the arithmetic of the contract, including {IERC20-balanceOf} and {IERC20-transfer}."
      },
      "decreaseAllowance(address,uint256)": {
        "details": "Atomically decreases the allowance granted to `spender` by the caller. This is an alternative to {approve} that can be used as a mitigation for problems described in {IERC20-approve}. Emits an {Approval} event indicating the updated allowance. Requirements: - `spender` cannot be the zero address. - `spender` must have allowance for the caller of at least `subtractedValue`."
      },
      "deposit(uint256,uint256,address,bool)": {
        "params": {
          "_minGardenTokenReceiveQuantity": "Min quantity of Garden token to receive after issuance",
          "_mintNft": "Whether to mint NFT or not",
          "_reserveAssetQuantity": "Quantity of the reserve asset that are received",
          "_to": "Address to mint Garden tokens to"
        }
      },
      "getExpectedReserveWithdrawalQuantity(uint256)": {
        "params": {
          "_gardenTokenQuantity": "Quantity of Garden tokens to withdrawal"
        },
        "returns": {
          "_0": "uint256                     Expected reserve asset quantity withdrawaled"
        }
      },
      "getFinalizedStrategies()": {
        "returns": {
          "_0": "address[]        Returns list of addresses"
        }
      },
      "getLockedBalance(address)": {
        "params": {
          "_contributor": "Address of the account"
        },
        "returns": {
          "_0": "uint256                    Returns the amount of locked garden tokens for the account",
          "_1": "uint256                    Returns the amount of active votes for the account"
        }
      },
      "getStrategies()": {
        "returns": {
          "_0": "address[]        Returns list of addresses"
        }
      },
      "increaseAllowance(address,uint256)": {
        "details": "Atomically increases the allowance granted to `spender` by the caller. This is an alternative to {approve} that can be used as a mitigation for problems described in {IERC20-approve}. Emits an {Approval} event indicating the updated allowance. Requirements: - `spender` cannot be the zero address."
      },
      "initialize(address,address,address,string,string,uint256[],uint256)": {
        "params": {
          "_controller": "Address of the controller",
          "_creator": "Address of the creator",
          "_gardenParams": "Array of numeric garden params",
          "_initialContribution": "Initial Contribution by the Gardener",
          "_name": "Name of the Garden",
          "_reserveAsset": "Address of the reserve asset ERC20",
          "_symbol": "Symbol of the Garden"
        }
      },
      "name()": {
        "details": "Returns the name of the token."
      },
      "payKeeper(address,uint256)": {
        "params": {
          "_fee": "The fee paid to keeper to compensate the gas cost",
          "_keeper": "Keeper that executed the transaction"
        }
      },
      "startWithdrawalWindow(uint256,uint256,int256,address)": {
        "params": {
          "_amount": "Amount of Reserve Asset to set aside until the window ends",
          "_returns": "Profits or losses that the strategy received",
          "_rewards": "Amount of Reserve Asset to set aside forever"
        }
      },
      "symbol()": {
        "details": "Returns the symbol of the token, usually a shorter version of the name."
      },
      "totalSupply()": {
        "details": "See {IERC20-totalSupply}."
      },
      "transfer(address,uint256)": {
        "details": "See {IERC20-transfer}. Requirements: - `recipient` cannot be the zero address. - the caller must have a balance of at least `amount`."
      },
      "transferFrom(address,address,uint256)": {
        "details": "See {IERC20-transferFrom}. Emits an {Approval} event indicating the updated allowance. This is not required by the EIP. See the note at the beginning of {ERC20}. Requirements: - `sender` and `recipient` cannot be the zero address. - `sender` must have a balance of at least `amount`. - the caller must have allowance for ``sender``'s tokens of at least `amount`."
      },
      "withdraw(uint256,uint256,address,bool)": {
        "params": {
          "_gardenTokenQuantity": "Quantity of the garden token to withdrawal",
          "_minReserveReceiveQuantity": "Min quantity of reserve asset to receive",
          "_to": "Address to send component assets to",
          "_withPenalty": "Whether or not this is an immediate withdrawal"
        }
      }
    },
    "title": "BaseGarden",
    "version": 1
  },
  "userdoc": {
    "kind": "user",
    "methods": {
      "addStrategy(string,string,uint256[],uint8[],address[],address[])": {
        "notice": "Creates a new strategy calling the factory and adds it to the array"
      },
      "allocateCapitalToStrategy(uint256)": {
        "notice": "Allocates garden capital to an strategy"
      },
      "claimReturns(address[])": {
        "notice": "User can claim the rewards from the strategies that his principal was invested in."
      },
      "deposit(uint256,uint256,address,bool)": {
        "notice": "Deposits the reserve asset into the garden and mints the Garden token of the given quantity to the specified _to address. WARN: If the reserve Asset is different than WETH the sender needs to have approved the garden."
      },
      "getExpectedReserveWithdrawalQuantity(uint256)": {
        "notice": "Get the expected reserve asset to be withdrawaled"
      },
      "getFinalizedStrategies()": {
        "notice": "Gets finalized strategies"
      },
      "getLockedBalance(address)": {
        "notice": "Checks balance locked for strategists in active strategies"
      },
      "getStrategies()": {
        "notice": "Gets current strategies"
      },
      "initialize(address,address,address,string,string,uint256[],uint256)": {
        "notice": "When a new Garden is created. All parameter validations are on the BabController contract. Validations are performed already on the BabController. WARN: If the reserve Asset is different than WETH the gardener needs to have approved the controller."
      },
      "makeGardenPublic()": {
        "notice": "Makes a previously private garden public"
      },
      "payKeeper(address,uint256)": {
        "notice": "Pays gas costs back to the keeper from executing transactions including the past debt"
      },
      "setActive(bool)": {
        "notice": "PRIVILEGED Manager, protocol FUNCTION. When a Garden is active, deposits are enabled."
      },
      "startWithdrawalWindow(uint256,uint256,int256,address)": {
        "notice": "When an strategy finishes execution, we want to make that eth available for withdrawals from members of the garden."
      },
      "withdraw(uint256,uint256,address,bool)": {
        "notice": "Withdraws the ETH relative to the token participation in the garden and sends it back to the sender."
      }
    },
    "version": 1
  },
  "storageLayout": {
    "storage": [
      {
        "astId": 492,
        "contract": "contracts/gardens/Garden.sol:GardenV2",
        "label": "_initialized",
        "offset": 0,
        "slot": "0",
        "type": "t_bool"
      },
      {
        "astId": 495,
        "contract": "contracts/gardens/Garden.sol:GardenV2",
        "label": "_initializing",
        "offset": 1,
        "slot": "0",
        "type": "t_bool"
      },
      {
        "astId": 1447,
        "contract": "contracts/gardens/Garden.sol:GardenV2",
        "label": "__gap",
        "offset": 0,
        "slot": "1",
        "type": "t_array(t_uint256)50_storage"
      },
      {
        "astId": 571,
        "contract": "contracts/gardens/Garden.sol:GardenV2",
        "label": "_balances",
        "offset": 0,
        "slot": "51",
        "type": "t_mapping(t_address,t_uint256)"
      },
      {
        "astId": 577,
        "contract": "contracts/gardens/Garden.sol:GardenV2",
        "label": "_allowances",
        "offset": 0,
        "slot": "52",
        "type": "t_mapping(t_address,t_mapping(t_address,t_uint256))"
      },
      {
        "astId": 579,
        "contract": "contracts/gardens/Garden.sol:GardenV2",
        "label": "_totalSupply",
        "offset": 0,
        "slot": "53",
        "type": "t_uint256"
      },
      {
        "astId": 581,
        "contract": "contracts/gardens/Garden.sol:GardenV2",
        "label": "_name",
        "offset": 0,
        "slot": "54",
        "type": "t_string_storage"
      },
      {
        "astId": 583,
        "contract": "contracts/gardens/Garden.sol:GardenV2",
        "label": "_symbol",
        "offset": 0,
        "slot": "55",
        "type": "t_string_storage"
      },
      {
        "astId": 585,
        "contract": "contracts/gardens/Garden.sol:GardenV2",
        "label": "_decimals",
        "offset": 0,
        "slot": "56",
        "type": "t_uint8"
      },
      {
        "astId": 1080,
        "contract": "contracts/gardens/Garden.sol:GardenV2",
        "label": "__gap",
        "offset": 0,
        "slot": "57",
        "type": "t_array(t_uint256)44_storage"
      },
      {
        "astId": 5859,
        "contract": "contracts/gardens/Garden.sol:GardenV2",
        "label": "_status",
        "offset": 0,
        "slot": "101",
        "type": "t_uint256"
      },
      {
        "astId": 13976,
        "contract": "contracts/gardens/Garden.sol:GardenV2",
        "label": "reserveAsset",
        "offset": 0,
        "slot": "102",
        "type": "t_address"
      },
      {
        "astId": 13979,
        "contract": "contracts/gardens/Garden.sol:GardenV2",
        "label": "controller",
        "offset": 0,
        "slot": "103",
        "type": "t_address"
      },
      {
        "astId": 13981,
        "contract": "contracts/gardens/Garden.sol:GardenV2",
        "label": "rewardsDistributor",
        "offset": 0,
        "slot": "104",
        "type": "t_contract(IRewardsDistributor)26532"
      },
      {
        "astId": 13984,
        "contract": "contracts/gardens/Garden.sol:GardenV2",
        "label": "creator",
        "offset": 0,
        "slot": "105",
        "type": "t_address"
      },
      {
        "astId": 13987,
        "contract": "contracts/gardens/Garden.sol:GardenV2",
        "label": "active",
        "offset": 20,
        "slot": "105",
        "type": "t_bool"
      },
      {
        "astId": 13990,
        "contract": "contracts/gardens/Garden.sol:GardenV2",
        "label": "guestListEnabled",
        "offset": 21,
        "slot": "105",
        "type": "t_bool"
      },
      {
        "astId": 13993,
        "contract": "contracts/gardens/Garden.sol:GardenV2",
        "label": "principal",
        "offset": 0,
        "slot": "106",
        "type": "t_uint256"
      },
      {
        "astId": 13996,
        "contract": "contracts/gardens/Garden.sol:GardenV2",
        "label": "reserveAssetRewardsSetAside",
        "offset": 0,
        "slot": "107",
        "type": "t_uint256"
      },
      {
        "astId": 13999,
        "contract": "contracts/gardens/Garden.sol:GardenV2",
        "label": "reserveAssetPrincipalWindow",
        "offset": 0,
        "slot": "108",
        "type": "t_uint256"
      },
      {
        "astId": 14002,
        "contract": "contracts/gardens/Garden.sol:GardenV2",
        "label": "absoluteReturns",
        "offset": 0,
        "slot": "109",
        "type": "t_int256"
      },
      {
        "astId": 14005,
        "contract": "contracts/gardens/Garden.sol:GardenV2",
        "label": "minLiquidityAsset",
        "offset": 0,
        "slot": "110",
        "type": "t_uint256"
      },
      {
        "astId": 14007,
        "contract": "contracts/gardens/Garden.sol:GardenV2",
        "label": "depositHardlock",
        "offset": 0,
        "slot": "111",
        "type": "t_uint256"
      },
      {
        "astId": 14009,
        "contract": "contracts/gardens/Garden.sol:GardenV2",
        "label": "withdrawalsOpenUntil",
        "offset": 0,
        "slot": "112",
        "type": "t_uint256"
      },
      {
        "astId": 14013,
        "contract": "contracts/gardens/Garden.sol:GardenV2",
        "label": "contributors",
        "offset": 0,
        "slot": "113",
        "type": "t_mapping(t_address,t_struct(Contributor)13973_storage)"
      },
      {
        "astId": 14016,
        "contract": "contracts/gardens/Garden.sol:GardenV2",
        "label": "totalContributors",
        "offset": 0,
        "slot": "114",
        "type": "t_uint256"
      },
      {
        "astId": 14019,
        "contract": "contracts/gardens/Garden.sol:GardenV2",
        "label": "maxContributors",
        "offset": 0,
        "slot": "115",
        "type": "t_uint256"
      },
      {
        "astId": 14021,
        "contract": "contracts/gardens/Garden.sol:GardenV2",
        "label": "maxDepositLimit",
        "offset": 0,
        "slot": "116",
        "type": "t_uint256"
      },
      {
        "astId": 14024,
        "contract": "contracts/gardens/Garden.sol:GardenV2",
        "label": "gardenInitializedAt",
        "offset": 0,
        "slot": "117",
        "type": "t_uint256"
      },
      {
        "astId": 14026,
        "contract": "contracts/gardens/Garden.sol:GardenV2",
        "label": "pid",
        "offset": 0,
        "slot": "118",
        "type": "t_uint256"
      },
      {
        "astId": 14029,
        "contract": "contracts/gardens/Garden.sol:GardenV2",
        "label": "minContribution",
        "offset": 0,
        "slot": "119",
        "type": "t_uint256"
      },
      {
        "astId": 14031,
        "contract": "contracts/gardens/Garden.sol:GardenV2",
        "label": "minGardenTokenSupply",
        "offset": 0,
        "slot": "120",
        "type": "t_uint256"
      },
      {
        "astId": 14034,
        "contract": "contracts/gardens/Garden.sol:GardenV2",
        "label": "totalStake",
        "offset": 0,
        "slot": "121",
        "type": "t_uint256"
      },
      {
        "astId": 14038,
        "contract": "contracts/gardens/Garden.sol:GardenV2",
        "label": "minVotesQuorum",
        "offset": 0,
        "slot": "122",
        "type": "t_uint256"
      },
      {
        "astId": 14041,
        "contract": "contracts/gardens/Garden.sol:GardenV2",
        "label": "minVoters",
        "offset": 0,
        "slot": "123",
        "type": "t_uint256"
      },
      {
        "astId": 14044,
        "contract": "contracts/gardens/Garden.sol:GardenV2",
        "label": "minStrategyDuration",
        "offset": 0,
        "slot": "124",
        "type": "t_uint256"
      },
      {
        "astId": 14047,
        "contract": "contracts/gardens/Garden.sol:GardenV2",
        "label": "maxStrategyDuration",
        "offset": 0,
        "slot": "125",
        "type": "t_uint256"
      },
      {
        "astId": 14050,
        "contract": "contracts/gardens/Garden.sol:GardenV2",
        "label": "strategyCooldownPeriod",
        "offset": 0,
        "slot": "126",
        "type": "t_uint256"
      },
      {
        "astId": 14053,
        "contract": "contracts/gardens/Garden.sol:GardenV2",
        "label": "strategies",
        "offset": 0,
        "slot": "127",
        "type": "t_array(t_address)dyn_storage"
      },
      {
        "astId": 14056,
        "contract": "contracts/gardens/Garden.sol:GardenV2",
        "label": "finalizedStrategies",
        "offset": 0,
        "slot": "128",
        "type": "t_array(t_address)dyn_storage"
      },
      {
        "astId": 14061,
        "contract": "contracts/gardens/Garden.sol:GardenV2",
        "label": "strategyMapping",
        "offset": 0,
        "slot": "129",
        "type": "t_mapping(t_address,t_bool)"
      },
      {
        "astId": 14066,
        "contract": "contracts/gardens/Garden.sol:GardenV2",
        "label": "isGardenStrategy",
        "offset": 0,
        "slot": "130",
        "type": "t_mapping(t_address,t_bool)"
      },
      {
        "astId": 14068,
        "contract": "contracts/gardens/Garden.sol:GardenV2",
        "label": "keeperDebt",
        "offset": 0,
        "slot": "131",
        "type": "t_uint256"
      }
    ],
    "types": {
      "t_address": {
        "encoding": "inplace",
        "label": "address",
        "numberOfBytes": "20"
      },
      "t_array(t_address)dyn_storage": {
        "base": "t_address",
        "encoding": "dynamic_array",
        "label": "address[]",
        "numberOfBytes": "32"
      },
      "t_array(t_uint256)44_storage": {
        "base": "t_uint256",
        "encoding": "inplace",
        "label": "uint256[44]",
        "numberOfBytes": "1408"
      },
      "t_array(t_uint256)50_storage": {
        "base": "t_uint256",
        "encoding": "inplace",
        "label": "uint256[50]",
        "numberOfBytes": "1600"
      },
      "t_bool": {
        "encoding": "inplace",
        "label": "bool",
        "numberOfBytes": "1"
      },
      "t_contract(IRewardsDistributor)26532": {
        "encoding": "inplace",
        "label": "contract IRewardsDistributor",
        "numberOfBytes": "20"
      },
      "t_int256": {
        "encoding": "inplace",
        "label": "int256",
        "numberOfBytes": "32"
      },
      "t_mapping(t_address,t_bool)": {
        "encoding": "mapping",
        "key": "t_address",
        "label": "mapping(address => bool)",
        "numberOfBytes": "32",
        "value": "t_bool"
      },
      "t_mapping(t_address,t_mapping(t_address,t_uint256))": {
        "encoding": "mapping",
        "key": "t_address",
        "label": "mapping(address => mapping(address => uint256))",
        "numberOfBytes": "32",
        "value": "t_mapping(t_address,t_uint256)"
      },
      "t_mapping(t_address,t_struct(Contributor)13973_storage)": {
        "encoding": "mapping",
        "key": "t_address",
        "label": "mapping(address => struct GardenV2.Contributor)",
        "numberOfBytes": "32",
        "value": "t_struct(Contributor)13973_storage"
      },
      "t_mapping(t_address,t_uint256)": {
        "encoding": "mapping",
        "key": "t_address",
        "label": "mapping(address => uint256)",
        "numberOfBytes": "32",
        "value": "t_uint256"
      },
      "t_string_storage": {
        "encoding": "bytes",
        "label": "string",
        "numberOfBytes": "32"
      },
      "t_struct(Contributor)13973_storage": {
        "encoding": "inplace",
        "label": "struct GardenV2.Contributor",
        "members": [
          {
            "astId": 13960,
            "contract": "contracts/gardens/Garden.sol:GardenV2",
            "label": "lastDepositAt",
            "offset": 0,
            "slot": "0",
            "type": "t_uint256"
          },
          {
            "astId": 13962,
            "contract": "contracts/gardens/Garden.sol:GardenV2",
            "label": "initialDepositAt",
            "offset": 0,
            "slot": "1",
            "type": "t_uint256"
          },
          {
            "astId": 13964,
            "contract": "contracts/gardens/Garden.sol:GardenV2",
            "label": "claimedAt",
            "offset": 0,
            "slot": "2",
            "type": "t_uint256"
          },
          {
            "astId": 13966,
            "contract": "contracts/gardens/Garden.sol:GardenV2",
            "label": "claimedBABL",
            "offset": 0,
            "slot": "3",
            "type": "t_uint256"
          },
          {
            "astId": 13968,
            "contract": "contracts/gardens/Garden.sol:GardenV2",
            "label": "claimedRewards",
            "offset": 0,
            "slot": "4",
            "type": "t_uint256"
          },
          {
            "astId": 13970,
            "contract": "contracts/gardens/Garden.sol:GardenV2",
            "label": "withdrawnSince",
            "offset": 0,
            "slot": "5",
            "type": "t_uint256"
          },
          {
            "astId": 13972,
            "contract": "contracts/gardens/Garden.sol:GardenV2",
            "label": "totalDeposits",
            "offset": 0,
            "slot": "6",
            "type": "t_uint256"
          }
        ],
        "numberOfBytes": "224"
      },
      "t_uint256": {
        "encoding": "inplace",
        "label": "uint256",
        "numberOfBytes": "32"
      },
      "t_uint8": {
        "encoding": "inplace",
        "label": "uint8",
        "numberOfBytes": "1"
      }
    }
  }
}