{
  "address": "0xf41D7880414595B3eB2Ea818a1FfEF1c7C06E7db",
  "abi": [
    {
      "inputs": [
        {
          "internalType": "contract VTableBeacon",
          "name": "_beacon",
          "type": "address"
        },
        {
          "internalType": "contract IERC20",
          "name": "_babl",
          "type": "address"
        }
      ],
      "stateMutability": "nonpayable",
      "type": "constructor"
    },
    {
      "anonymous": false,
      "inputs": [
        {
          "indexed": true,
          "internalType": "address",
          "name": "owner",
          "type": "address"
        },
        {
          "indexed": true,
          "internalType": "address",
          "name": "spender",
          "type": "address"
        },
        {
          "indexed": false,
          "internalType": "uint256",
          "name": "value",
          "type": "uint256"
        }
      ],
      "name": "Approval",
      "type": "event"
    },
    {
      "anonymous": false,
      "inputs": [
        {
          "indexed": true,
          "internalType": "address",
          "name": "_contributor",
          "type": "address"
        },
        {
          "indexed": false,
          "internalType": "uint256",
          "name": "_rewards",
          "type": "uint256"
        }
      ],
      "name": "BABLRewardsForContributor",
      "type": "event"
    },
    {
      "anonymous": false,
      "inputs": [
        {
          "indexed": true,
          "internalType": "address",
          "name": "_to",
          "type": "address"
        },
        {
          "indexed": false,
          "internalType": "uint256",
          "name": "reserveToken",
          "type": "uint256"
        },
        {
          "indexed": false,
          "internalType": "uint256",
          "name": "reserveTokenQuantity",
          "type": "uint256"
        },
        {
          "indexed": false,
          "internalType": "uint256",
          "name": "timestamp",
          "type": "uint256"
        }
      ],
      "name": "GardenDeposit",
      "type": "event"
    },
    {
      "anonymous": false,
      "inputs": [
        {
          "indexed": true,
          "internalType": "address",
          "name": "_from",
          "type": "address"
        },
        {
          "indexed": true,
          "internalType": "address",
          "name": "_to",
          "type": "address"
        },
        {
          "indexed": false,
          "internalType": "uint256",
          "name": "reserveToken",
          "type": "uint256"
        },
        {
          "indexed": false,
          "internalType": "uint256",
          "name": "reserveTokenQuantity",
          "type": "uint256"
        },
        {
          "indexed": false,
          "internalType": "uint256",
          "name": "timestamp",
          "type": "uint256"
        }
      ],
      "name": "GardenWithdrawal",
      "type": "event"
    },
    {
      "anonymous": false,
      "inputs": [
        {
          "indexed": true,
          "internalType": "address",
          "name": "_contributor",
          "type": "address"
        },
        {
          "indexed": true,
          "internalType": "uint256",
          "name": "_amount",
          "type": "uint256"
        }
      ],
      "name": "RewardsForContributor",
      "type": "event"
    },
    {
      "anonymous": false,
      "inputs": [
        {
          "indexed": true,
          "internalType": "address",
          "name": "_contributor",
          "type": "address"
        },
        {
          "indexed": false,
          "internalType": "uint256",
          "name": "_babl",
          "type": "uint256"
        }
      ],
      "name": "StakeBABLRewards",
      "type": "event"
    },
    {
      "anonymous": false,
      "inputs": [
        {
          "indexed": true,
          "internalType": "address",
          "name": "from",
          "type": "address"
        },
        {
          "indexed": true,
          "internalType": "address",
          "name": "to",
          "type": "address"
        },
        {
          "indexed": false,
          "internalType": "uint256",
          "name": "value",
          "type": "uint256"
        }
      ],
      "name": "Transfer",
      "type": "event"
    },
    {
      "stateMutability": "payable",
      "type": "fallback"
    },
    {
      "inputs": [],
      "name": "absoluteReturns",
      "outputs": [
        {
          "internalType": "int256",
          "name": "",
          "type": "int256"
        }
      ],
      "stateMutability": "view",
      "type": "function"
    },
    {
      "inputs": [
        {
          "internalType": "address",
          "name": "owner",
          "type": "address"
        },
        {
          "internalType": "address",
          "name": "spender",
          "type": "address"
        }
      ],
      "name": "allowance",
      "outputs": [
        {
          "internalType": "uint256",
          "name": "",
          "type": "uint256"
        }
      ],
      "stateMutability": "view",
      "type": "function"
    },
    {
      "inputs": [
        {
          "internalType": "address",
          "name": "spender",
          "type": "address"
        },
        {
          "internalType": "uint256",
          "name": "amount",
          "type": "uint256"
        }
      ],
      "name": "approve",
      "outputs": [
        {
          "internalType": "bool",
          "name": "",
          "type": "bool"
        }
      ],
      "stateMutability": "nonpayable",
      "type": "function"
    },
    {
      "inputs": [
        {
          "internalType": "address",
          "name": "account",
          "type": "address"
        }
      ],
      "name": "balanceOf",
      "outputs": [
        {
          "internalType": "uint256",
          "name": "",
          "type": "uint256"
        }
      ],
      "stateMutability": "view",
      "type": "function"
    },
    {
      "inputs": [],
      "name": "beacon",
      "outputs": [
        {
          "internalType": "contract VTableBeacon",
          "name": "",
          "type": "address"
        }
      ],
      "stateMutability": "view",
      "type": "function"
    },
    {
      "inputs": [],
      "name": "canMintNftAfter",
      "outputs": [
        {
          "internalType": "uint256",
          "name": "",
          "type": "uint256"
        }
      ],
      "stateMutability": "view",
      "type": "function"
    },
    {
      "inputs": [
        {
          "internalType": "uint256",
          "name": "_minAmountOut",
          "type": "uint256"
        },
        {
          "internalType": "address[]",
          "name": "_finalizedStrategies",
          "type": "address[]"
        }
      ],
      "name": "claimAndStakeReturns",
      "outputs": [],
      "stateMutability": "nonpayable",
      "type": "function"
    },
    {
      "inputs": [
        {
          "internalType": "uint256",
          "name": "_babl",
          "type": "uint256"
        },
        {
          "internalType": "uint256",
          "name": "_profits",
          "type": "uint256"
        },
        {
          "internalType": "uint256",
          "name": "_minAmountOut",
          "type": "uint256"
        },
        {
          "internalType": "uint256",
          "name": "_nonce",
          "type": "uint256"
        },
        {
          "internalType": "uint256",
          "name": "_nonceHeart",
          "type": "uint256"
        },
        {
          "internalType": "uint256",
          "name": "_maxFee",
          "type": "uint256"
        },
        {
          "internalType": "uint256",
          "name": "_pricePerShare",
          "type": "uint256"
        },
        {
          "internalType": "uint256",
          "name": "_fee",
          "type": "uint256"
        },
        {
          "internalType": "address",
          "name": "_signer",
          "type": "address"
        },
        {
          "internalType": "bytes",
          "name": "_signature",
          "type": "bytes"
        }
      ],
      "name": "claimAndStakeRewardsBySig",
      "outputs": [],
      "stateMutability": "nonpayable",
      "type": "function"
    },
    {
      "inputs": [],
      "name": "claimNFT",
      "outputs": [],
      "stateMutability": "nonpayable",
      "type": "function"
    },
    {
      "inputs": [
        {
          "internalType": "address[]",
          "name": "_finalizedStrategies",
          "type": "address[]"
        }
      ],
      "name": "claimReturns",
      "outputs": [],
      "stateMutability": "nonpayable",
      "type": "function"
    },
    {
      "inputs": [
        {
          "internalType": "uint256",
          "name": "_babl",
          "type": "uint256"
        },
        {
          "internalType": "uint256",
          "name": "_profits",
          "type": "uint256"
        },
        {
          "internalType": "uint256",
          "name": "_nonce",
          "type": "uint256"
        },
        {
          "internalType": "uint256",
          "name": "_maxFee",
          "type": "uint256"
        },
        {
          "internalType": "uint256",
          "name": "_fee",
          "type": "uint256"
        },
        {
          "internalType": "address",
          "name": "_signer",
          "type": "address"
        },
        {
          "internalType": "bytes",
          "name": "_signature",
          "type": "bytes"
        }
      ],
      "name": "claimRewardsBySig",
      "outputs": [],
      "stateMutability": "nonpayable",
      "type": "function"
    },
    {
      "inputs": [],
      "name": "controller",
      "outputs": [
        {
          "internalType": "contract IBabController",
          "name": "",
          "type": "address"
        }
      ],
      "stateMutability": "view",
      "type": "function"
    },
    {
      "inputs": [],
      "name": "creator",
      "outputs": [
        {
          "internalType": "address",
          "name": "",
          "type": "address"
        }
      ],
      "stateMutability": "view",
      "type": "function"
    },
    {
      "inputs": [],
      "name": "customIntegrationsEnabled",
      "outputs": [
        {
          "internalType": "bool",
          "name": "",
          "type": "bool"
        }
      ],
      "stateMutability": "view",
      "type": "function"
    },
    {
      "inputs": [],
      "name": "decimals",
      "outputs": [
        {
          "internalType": "uint8",
          "name": "",
          "type": "uint8"
        }
      ],
      "stateMutability": "view",
      "type": "function"
    },
    {
      "inputs": [
        {
          "internalType": "address",
          "name": "spender",
          "type": "address"
        },
        {
          "internalType": "uint256",
          "name": "subtractedValue",
          "type": "uint256"
        }
      ],
      "name": "decreaseAllowance",
      "outputs": [
        {
          "internalType": "bool",
          "name": "",
          "type": "bool"
        }
      ],
      "stateMutability": "nonpayable",
      "type": "function"
    },
    {
      "inputs": [
        {
          "internalType": "uint256",
          "name": "_amountIn",
          "type": "uint256"
        },
        {
          "internalType": "uint256",
          "name": "_minAmountOut",
          "type": "uint256"
        },
        {
          "internalType": "address",
          "name": "_to",
          "type": "address"
        },
        {
          "internalType": "address",
          "name": "_referrer",
          "type": "address"
        }
      ],
      "name": "deposit",
      "outputs": [],
      "stateMutability": "payable",
      "type": "function"
    },
    {
      "inputs": [
        {
          "internalType": "uint256",
          "name": "_amountIn",
          "type": "uint256"
        },
        {
          "internalType": "uint256",
          "name": "_minAmountOut",
          "type": "uint256"
        },
        {
          "internalType": "uint256",
          "name": "_nonce",
          "type": "uint256"
        },
        {
          "internalType": "uint256",
          "name": "_maxFee",
          "type": "uint256"
        },
        {
          "internalType": "address",
          "name": "_to",
          "type": "address"
        },
        {
          "internalType": "uint256",
          "name": "_pricePerShare",
          "type": "uint256"
        },
        {
          "internalType": "uint256",
          "name": "_fee",
          "type": "uint256"
        },
        {
          "internalType": "address",
          "name": "_signer",
          "type": "address"
        },
        {
          "internalType": "address",
          "name": "_referrer",
          "type": "address"
        },
        {
          "internalType": "bytes",
          "name": "_signature",
          "type": "bytes"
        }
      ],
      "name": "depositBySig",
      "outputs": [],
      "stateMutability": "nonpayable",
      "type": "function"
    },
    {
      "inputs": [],
      "name": "depositHardlock",
      "outputs": [
        {
          "internalType": "uint256",
          "name": "",
          "type": "uint256"
        }
      ],
      "stateMutability": "view",
      "type": "function"
    },
    {
      "inputs": [
        {
          "internalType": "uint256",
          "name": "",
          "type": "uint256"
        }
      ],
      "name": "extraCreators",
      "outputs": [
        {
          "internalType": "address",
          "name": "",
          "type": "address"
        }
      ],
      "stateMutability": "view",
      "type": "function"
    },
    {
      "inputs": [],
      "name": "gardenInitializedAt",
      "outputs": [
        {
          "internalType": "uint256",
          "name": "",
          "type": "uint256"
        }
      ],
      "stateMutability": "view",
      "type": "function"
    },
    {
      "inputs": [
        {
          "internalType": "address",
          "name": "_contributor",
          "type": "address"
        }
      ],
      "name": "getContributor",
      "outputs": [
        {
          "internalType": "uint256",
          "name": "lastDepositAt",
          "type": "uint256"
        },
        {
          "internalType": "uint256",
          "name": "initialDepositAt",
          "type": "uint256"
        },
        {
          "internalType": "uint256",
          "name": "claimedAt",
          "type": "uint256"
        },
        {
          "internalType": "uint256",
          "name": "claimedBABL",
          "type": "uint256"
        },
        {
          "internalType": "uint256",
          "name": "claimedRewards",
          "type": "uint256"
        },
        {
          "internalType": "uint256",
          "name": "withdrawnSince",
          "type": "uint256"
        },
        {
          "internalType": "uint256",
          "name": "totalDeposits",
          "type": "uint256"
        },
        {
          "internalType": "uint256",
          "name": "nonce",
          "type": "uint256"
        },
        {
          "internalType": "uint256",
          "name": "lockedBalance",
          "type": "uint256"
        }
      ],
      "stateMutability": "view",
      "type": "function"
    },
    {
      "inputs": [],
      "name": "getFinalizedStrategies",
      "outputs": [
        {
          "internalType": "address[]",
          "name": "",
          "type": "address[]"
        }
      ],
      "stateMutability": "view",
      "type": "function"
    },
    {
      "inputs": [],
      "name": "getStrategies",
      "outputs": [
        {
          "internalType": "address[]",
          "name": "",
          "type": "address[]"
        }
      ],
      "stateMutability": "view",
      "type": "function"
    },
    {
      "inputs": [],
      "name": "hardlockStartsAt",
      "outputs": [
        {
          "internalType": "uint256",
          "name": "",
          "type": "uint256"
        }
      ],
      "stateMutability": "view",
      "type": "function"
    },
    {
      "inputs": [
        {
          "internalType": "address",
          "name": "spender",
          "type": "address"
        },
        {
          "internalType": "uint256",
          "name": "addedValue",
          "type": "uint256"
        }
      ],
      "name": "increaseAllowance",
      "outputs": [
        {
          "internalType": "bool",
          "name": "",
          "type": "bool"
        }
      ],
      "stateMutability": "nonpayable",
      "type": "function"
    },
    {
      "inputs": [
        {
          "internalType": "address",
          "name": "",
          "type": "address"
        }
      ],
      "name": "isGardenStrategy",
      "outputs": [
        {
          "internalType": "bool",
          "name": "",
          "type": "bool"
        }
      ],
      "stateMutability": "view",
      "type": "function"
    },
    {
      "inputs": [
        {
          "internalType": "bytes32",
          "name": "_hash",
          "type": "bytes32"
        },
        {
          "internalType": "bytes",
          "name": "_signature",
          "type": "bytes"
        }
      ],
      "name": "isValidSignature",
      "outputs": [
        {
          "internalType": "bytes4",
          "name": "magicValue",
          "type": "bytes4"
        }
      ],
      "stateMutability": "view",
      "type": "function"
    },
    {
      "inputs": [],
      "name": "keeperDebt",
      "outputs": [
        {
          "internalType": "uint256",
          "name": "",
          "type": "uint256"
        }
      ],
      "stateMutability": "view",
      "type": "function"
    },
    {
      "inputs": [],
      "name": "lastPricePerShare",
      "outputs": [
        {
          "internalType": "uint256",
          "name": "",
          "type": "uint256"
        }
      ],
      "stateMutability": "view",
      "type": "function"
    },
    {
      "inputs": [],
      "name": "lastPricePerShareTS",
      "outputs": [
        {
          "internalType": "uint256",
          "name": "",
          "type": "uint256"
        }
      ],
      "stateMutability": "view",
      "type": "function"
    },
    {
      "inputs": [],
      "name": "maxDepositLimit",
      "outputs": [
        {
          "internalType": "uint256",
          "name": "",
          "type": "uint256"
        }
      ],
      "stateMutability": "view",
      "type": "function"
    },
    {
      "inputs": [],
      "name": "maxStrategyDuration",
      "outputs": [
        {
          "internalType": "uint256",
          "name": "",
          "type": "uint256"
        }
      ],
      "stateMutability": "view",
      "type": "function"
    },
    {
      "inputs": [],
      "name": "minContribution",
      "outputs": [
        {
          "internalType": "uint256",
          "name": "",
          "type": "uint256"
        }
      ],
      "stateMutability": "view",
      "type": "function"
    },
    {
      "inputs": [],
      "name": "minLiquidityAsset",
      "outputs": [
        {
          "internalType": "uint256",
          "name": "",
          "type": "uint256"
        }
      ],
      "stateMutability": "view",
      "type": "function"
    },
    {
      "inputs": [],
      "name": "minStrategyDuration",
      "outputs": [
        {
          "internalType": "uint256",
          "name": "",
          "type": "uint256"
        }
      ],
      "stateMutability": "view",
      "type": "function"
    },
    {
      "inputs": [],
      "name": "minVoters",
      "outputs": [
        {
          "internalType": "uint256",
          "name": "",
          "type": "uint256"
        }
      ],
      "stateMutability": "view",
      "type": "function"
    },
    {
      "inputs": [],
      "name": "minVotesQuorum",
      "outputs": [
        {
          "internalType": "uint256",
          "name": "",
          "type": "uint256"
        }
      ],
      "stateMutability": "view",
      "type": "function"
    },
    {
      "inputs": [],
      "name": "name",
      "outputs": [
        {
          "internalType": "string",
          "name": "",
          "type": "string"
        }
      ],
      "stateMutability": "view",
      "type": "function"
    },
    {
      "inputs": [],
      "name": "pricePerShareDecayRate",
      "outputs": [
        {
          "internalType": "uint256",
          "name": "",
          "type": "uint256"
        }
      ],
      "stateMutability": "view",
      "type": "function"
    },
    {
      "inputs": [],
      "name": "pricePerShareDelta",
      "outputs": [
        {
          "internalType": "uint256",
          "name": "",
          "type": "uint256"
        }
      ],
      "stateMutability": "view",
      "type": "function"
    },
    {
      "inputs": [],
      "name": "privateGarden",
      "outputs": [
        {
          "internalType": "bool",
          "name": "",
          "type": "bool"
        }
      ],
      "stateMutability": "view",
      "type": "function"
    },
    {
      "inputs": [],
      "name": "publicStewards",
      "outputs": [
        {
          "internalType": "bool",
          "name": "",
          "type": "bool"
        }
      ],
      "stateMutability": "view",
      "type": "function"
    },
    {
      "inputs": [],
      "name": "publicStrategists",
      "outputs": [
        {
          "internalType": "bool",
          "name": "",
          "type": "bool"
        }
      ],
      "stateMutability": "view",
      "type": "function"
    },
    {
      "inputs": [],
      "name": "reserveAsset",
      "outputs": [
        {
          "internalType": "address",
          "name": "",
          "type": "address"
        }
      ],
      "stateMutability": "view",
      "type": "function"
    },
    {
      "inputs": [],
      "name": "reserveAssetRewardsSetAside",
      "outputs": [
        {
          "internalType": "uint256",
          "name": "",
          "type": "uint256"
        }
      ],
      "stateMutability": "view",
      "type": "function"
    },
    {
      "inputs": [
        {
          "internalType": "uint256",
          "name": "_amountIn",
          "type": "uint256"
        },
        {
          "internalType": "uint256",
          "name": "_profits",
          "type": "uint256"
        },
        {
          "internalType": "uint256",
          "name": "_minAmountOut",
          "type": "uint256"
        },
        {
          "internalType": "uint256",
          "name": "_nonce",
          "type": "uint256"
        },
        {
          "internalType": "uint256",
          "name": "_nonceHeart",
          "type": "uint256"
        },
        {
          "internalType": "uint256",
          "name": "_maxFee",
          "type": "uint256"
        },
        {
          "internalType": "address",
          "name": "_to",
          "type": "address"
        },
        {
          "internalType": "uint256",
          "name": "_pricePerShare",
          "type": "uint256"
        },
        {
          "internalType": "address",
          "name": "_signer",
          "type": "address"
        },
        {
          "internalType": "bytes",
          "name": "_signature",
          "type": "bytes"
        }
      ],
      "name": "stakeBySig",
      "outputs": [],
      "stateMutability": "nonpayable",
      "type": "function"
    },
    {
      "inputs": [],
      "name": "strategyCooldownPeriod",
      "outputs": [
        {
          "internalType": "uint256",
          "name": "",
          "type": "uint256"
        }
      ],
      "stateMutability": "view",
      "type": "function"
    },
    {
      "inputs": [
        {
          "internalType": "address",
          "name": "",
          "type": "address"
        }
      ],
      "name": "strategyMapping",
      "outputs": [
        {
          "internalType": "bool",
          "name": "",
          "type": "bool"
        }
      ],
      "stateMutability": "view",
      "type": "function"
    },
    {
      "inputs": [],
      "name": "symbol",
      "outputs": [
        {
          "internalType": "string",
          "name": "",
          "type": "string"
        }
      ],
      "stateMutability": "view",
      "type": "function"
    },
    {
      "inputs": [],
      "name": "totalContributors",
      "outputs": [
        {
          "internalType": "uint256",
          "name": "",
          "type": "uint256"
        }
      ],
      "stateMutability": "view",
      "type": "function"
    },
    {
      "inputs": [],
      "name": "totalKeeperFees",
      "outputs": [
        {
          "internalType": "uint256",
          "name": "",
          "type": "uint256"
        }
      ],
      "stateMutability": "view",
      "type": "function"
    },
    {
      "inputs": [],
      "name": "totalStake",
      "outputs": [
        {
          "internalType": "uint256",
          "name": "",
          "type": "uint256"
        }
      ],
      "stateMutability": "view",
      "type": "function"
    },
    {
      "inputs": [],
      "name": "totalSupply",
      "outputs": [
        {
          "internalType": "uint256",
          "name": "",
          "type": "uint256"
        }
      ],
      "stateMutability": "view",
      "type": "function"
    },
    {
      "inputs": [
        {
          "internalType": "address",
          "name": "recipient",
          "type": "address"
        },
        {
          "internalType": "uint256",
          "name": "amount",
          "type": "uint256"
        }
      ],
      "name": "transfer",
      "outputs": [
        {
          "internalType": "bool",
          "name": "",
          "type": "bool"
        }
      ],
      "stateMutability": "nonpayable",
      "type": "function"
    },
    {
      "inputs": [
        {
          "internalType": "address",
          "name": "sender",
          "type": "address"
        },
        {
          "internalType": "address",
          "name": "recipient",
          "type": "address"
        },
        {
          "internalType": "uint256",
          "name": "amount",
          "type": "uint256"
        }
      ],
      "name": "transferFrom",
      "outputs": [
        {
          "internalType": "bool",
          "name": "",
          "type": "bool"
        }
      ],
      "stateMutability": "nonpayable",
      "type": "function"
    },
    {
      "inputs": [],
      "name": "verifiedCategory",
      "outputs": [
        {
          "internalType": "uint256",
          "name": "",
          "type": "uint256"
        }
      ],
      "stateMutability": "view",
      "type": "function"
    },
    {
      "inputs": [
        {
          "internalType": "uint256",
          "name": "_amountIn",
          "type": "uint256"
        },
        {
          "internalType": "uint256",
          "name": "_minAmountOut",
          "type": "uint256"
        },
        {
          "internalType": "address payable",
          "name": "_to",
          "type": "address"
        },
        {
          "internalType": "bool",
          "name": "_withPenalty",
          "type": "bool"
        },
        {
          "internalType": "address",
          "name": "_unwindStrategy",
          "type": "address"
        }
      ],
      "name": "withdraw",
      "outputs": [],
      "stateMutability": "nonpayable",
      "type": "function"
    },
    {
      "inputs": [
        {
          "internalType": "uint256",
          "name": "_amountIn",
          "type": "uint256"
        },
        {
          "internalType": "uint256",
          "name": "_minAmountOut",
          "type": "uint256"
        },
        {
          "internalType": "uint256",
          "name": "_nonce",
          "type": "uint256"
        },
        {
          "internalType": "uint256",
          "name": "_maxFee",
          "type": "uint256"
        },
        {
          "internalType": "bool",
          "name": "_withPenalty",
          "type": "bool"
        },
        {
          "internalType": "address",
          "name": "_unwindStrategy",
          "type": "address"
        },
        {
          "internalType": "uint256",
          "name": "_pricePerShare",
          "type": "uint256"
        },
        {
          "internalType": "uint256",
          "name": "_strategyNAV",
          "type": "uint256"
        },
        {
          "internalType": "uint256",
          "name": "_fee",
          "type": "uint256"
        },
        {
          "internalType": "address",
          "name": "_signer",
          "type": "address"
        },
        {
          "internalType": "bytes",
          "name": "_signature",
          "type": "bytes"
        }
      ],
      "name": "withdrawBySig",
      "outputs": [],
      "stateMutability": "nonpayable",
      "type": "function"
    },
    {
      "stateMutability": "payable",
      "type": "receive"
    }
  ],
  "transactionHash": "0x2cf13820bc7db857a8a2e18c84df1a8b26f819006acab9d25f55ab4f73af256f",
  "args": [
    "0xaAaCb63Ab80969af93b811DEB81dDEB4C8710591",
    "0xf4dc48d260c93ad6a96c5ce563e70ca578987c74"
  ],
  "numDeployments": 2,
  "solcInputHash": "bf6a16f7347fee0fc288b37260d58b7c",
  "bytecode": "0x60c060405234801561001057600080fd5b5060405162005428380380620054288339818101604052604081101561003557600080fd5b50805160209091015160016065556001600160601b0319606092831b8116608052911b1660a05260805160601c60a05160601c61539d6200008b6000398061397d525080611c995280612b8b525061539d6000f3fe6080604052600436106103905760003560e01c806377e7ff3c116101dc578063ac9dc9e811610102578063cb12233b116100a0578063dd62ed3e1161006f578063dd62ed3e1461113b578063f251fc8c14611176578063f77c47911461118b578063f85cb5c8146111a05761039f565b8063cb12233b14610fbc578063d360386c14610fd1578063d6888eab146110d5578063daeffcca146110ea5761039f565b8063b49a60bb116100dc578063b49a60bb14610e83578063b63c44e714610e98578063b9e6753914610ead578063be546f5e14610ec25761039f565b8063ac9dc9e814610df4578063b1b7586714610e09578063b304b81514610e1e5761039f565b806394bd87ac1161017a578063a457c2d711610149578063a457c2d714610d58578063a63c643d14610d91578063a9059cbb14610da6578063aaffadf314610ddf5761039f565b806394bd87ac14610c2257806395cdbedb14610d1957806395d89b4114610d2e578063a06931f914610d435761039f565b806384715b11116101b657806384715b1114610ade5780638b0e9f3f14610b185780638bbde0fd14610b2d5780638fa3eab114610b425761039f565b806377e7ff3c14610a9f578063792e42e214610ab45780637fab0dd414610ac95761039f565b806339509351116102c1578063550c2b7f1161025f57806363f568b91161022e57806363f568b914610a18578063672756ad14610a4257806370a0823114610a575780637550ed1814610a8a5761039f565b8063550c2b7f146109c457806359659e90146109d95780635a16656a146109ee57806360d442ca14610a035761039f565b80633ad8d04d1161029b5780633ad8d04d146108345780633d8270f5146108b15780633deddb3f1461092b5780634961a279146109405761039f565b806339509351146107b35780633a821925146107ec5780633aa1f9ed1461081f5761039f565b806318160ddd1161032e5780632f214efc116103085780632f214efc1461066257806330869d871461075e578063313ce5671461077357806338e45bc31461079e5761039f565b806318160ddd146105e357806323b872dd1461060a578063297ce5981461064d5761039f565b8063095ea7b31161036a578063095ea7b3146104a95780630b33dbd6146104e25780631626ba7e146104f75780631780998b146105ce5761039f565b806302d05d3f146103a757806306061dfa146103d857806306fdde031461041f5761039f565b3661039f5761039d6111b5565b005b61039d6111b5565b3480156103b357600080fd5b506103bc6111cf565b604080516001600160a01b039092168252519081900360200190f35b3480156103e457600080fd5b5061040b600480360360208110156103fb57600080fd5b50356001600160a01b03166111de565b604080519115158252519081900360200190f35b34801561042b57600080fd5b506104346111f3565b6040805160208082528351818301528351919283929083019185019080838360005b8381101561046e578181015183820152602001610456565b50505050905090810190601f16801561049b5780820380516001836020036101000a031916815260200191505b509250505060405180910390f35b3480156104b557600080fd5b5061040b600480360360408110156104cc57600080fd5b506001600160a01b03813516906020013561128a565b3480156104ee57600080fd5b5061040b6112a8565b34801561050357600080fd5b506105b16004803603604081101561051a57600080fd5b8135919081019060408101602082013564010000000081111561053c57600080fd5b82018360208201111561054e57600080fd5b8035906020019184600183028401116401000000008311171561057057600080fd5b91908080601f0160208091040260200160405190810160405280939291908181526020018383808284376000920191909152509295506112b1945050505050565b604080516001600160e01b03199092168252519081900360200190f35b3480156105da57600080fd5b5061040b611305565b3480156105ef57600080fd5b506105f861130e565b60408051918252519081900360200190f35b34801561061657600080fd5b5061040b6004803603606081101561062d57600080fd5b506001600160a01b03813581169160208101359091169060400135611314565b34801561065957600080fd5b506105f861139b565b34801561066e57600080fd5b5061039d600480360361014081101561068657600080fd5b8135916020810135916040820135916060810135916001600160a01b03608083013581169260a08101359260c08201359260e08301358116926101008101359091169181019061014081016101208201356401000000008111156106e957600080fd5b8201836020820111156106fb57600080fd5b8035906020019184600183028401116401000000008311171561071d57600080fd5b91908080601f0160208091040260200160405190810160405280939291908181526020018383808284376000920191909152509295506113a1945050505050565b34801561076a57600080fd5b506105f8611538565b34801561077f57600080fd5b5061078861153e565b6040805160ff9092168252519081900360200190f35b3480156107aa57600080fd5b506105f8611547565b3480156107bf57600080fd5b5061040b600480360360408110156107d657600080fd5b506001600160a01b03813516906020013561154d565b3480156107f857600080fd5b5061040b6004803603602081101561080f57600080fd5b50356001600160a01b031661159b565b34801561082b57600080fd5b506105f86115b0565b34801561084057600080fd5b5061039d6004803603602081101561085757600080fd5b81019060208101813564010000000081111561087257600080fd5b82018360208201111561088457600080fd5b803590602001918460208302840111640100000000831117156108a657600080fd5b5090925090506115b6565b3480156108bd57600080fd5b506108e4600480360360208110156108d457600080fd5b50356001600160a01b03166117ce565b60408051998a5260208a0198909852888801969096526060880194909452608087019290925260a086015260c085015260e084015261010083015251908190036101200190f35b34801561093757600080fd5b506105f8611866565b34801561094c57600080fd5b5061039d6004803603604081101561096357600080fd5b8135919081019060408101602082013564010000000081111561098557600080fd5b82018360208201111561099757600080fd5b803590602001918460208302840111640100000000831117156109b957600080fd5b50909250905061186c565b3480156109d057600080fd5b5061040b611c87565b3480156109e557600080fd5b506103bc611c97565b3480156109fa57600080fd5b506105f8611cbb565b348015610a0f57600080fd5b506105f8611cc1565b348015610a2457600080fd5b506103bc60048036036020811015610a3b57600080fd5b5035611cc7565b348015610a4e57600080fd5b5061039d611ce7565b348015610a6357600080fd5b506105f860048036036020811015610a7a57600080fd5b50356001600160a01b0316611e45565b348015610a9657600080fd5b506105f8611e60565b348015610aab57600080fd5b5061040b611e66565b348015610ac057600080fd5b506105f8611e74565b348015610ad557600080fd5b506105f8611e7a565b61039d60048036036080811015610af457600080fd5b508035906020810135906001600160a01b0360408201358116916060013516611e80565b348015610b2457600080fd5b506105f8611f00565b348015610b3957600080fd5b506105f8611f06565b348015610b4e57600080fd5b5061039d600480360360e0811015610b6557600080fd5b8135916020810135916040820135916060810135916080820135916001600160a01b0360a0820135169181019060e0810160c0820135640100000000811115610bad57600080fd5b820183602082011115610bbf57600080fd5b80359060200191846001830284011164010000000083111715610be157600080fd5b91908080601f016020809104026020016040519081016040528093929190818152602001838380828437600092019190915250929550611f0c945050505050565b348015610c2e57600080fd5b5061039d6004803603610140811015610c4657600080fd5b81359160208101359160408201359160608101359160808201359160a08101359160c08201359160e0810135916001600160a01b036101008301351691908101906101408101610120820135640100000000811115610ca457600080fd5b820183602082011115610cb657600080fd5b80359060200191846001830284011164010000000083111715610cd857600080fd5b91908080601f01602080910402602001604051908101604052809392919081815260200183838082843760009201919091525092955061204f945050505050565b348015610d2557600080fd5b506105f8612468565b348015610d3a57600080fd5b5061043461246e565b348015610d4f57600080fd5b506105f86124cf565b348015610d6457600080fd5b5061040b60048036036040811015610d7b57600080fd5b506001600160a01b0381351690602001356124d5565b348015610d9d57600080fd5b506105f861253d565b348015610db257600080fd5b5061040b60048036036040811015610dc957600080fd5b506001600160a01b038135169060200135612543565b348015610deb57600080fd5b506105f8612557565b348015610e0057600080fd5b506105f861255d565b348015610e1557600080fd5b506105f8612563565b348015610e2a57600080fd5b50610e33612569565b60408051602080825283518183015283519192839290830191858101910280838360005b83811015610e6f578181015183820152602001610e57565b505050509050019250505060405180910390f35b348015610e8f57600080fd5b50610e336125ca565b348015610ea457600080fd5b506105f861262a565b348015610eb957600080fd5b506105f8612630565b348015610ece57600080fd5b5061039d6004803603610140811015610ee657600080fd5b81359160208101359160408201359160608101359160808201359160a0810135916001600160a01b0360c083013581169260e081013592610100820135909216918101906101408101610120820135640100000000811115610f4757600080fd5b820183602082011115610f5957600080fd5b80359060200191846001830284011164010000000083111715610f7b57600080fd5b91908080601f016020809104026020016040519081016040528093929190818152602001838380828437600092019190915250929550612636945050505050565b348015610fc857600080fd5b506105f86128d4565b348015610fdd57600080fd5b5061039d6004803603610160811015610ff557600080fd5b81359160208101359160408201359160608101359160808201351515916001600160a01b0360a082013581169260c08301359260e081013592610100820135926101208301359091169190810190610160810161014082013564010000000081111561106057600080fd5b82018360208201111561107257600080fd5b8035906020019184600183028401116401000000008311171561109457600080fd5b91908080601f0160208091040260200160405190810160405280939291908181526020018383808284376000920191909152509295506128da945050505050565b3480156110e157600080fd5b506105f86129fb565b3480156110f657600080fd5b5061039d600480360360a081101561110d57600080fd5b508035906020810135906001600160a01b036040820135811691606081013515159160809091013516612a01565b34801561114757600080fd5b506105f86004803603604081101561115e57600080fd5b506001600160a01b0381358116916020013516612b09565b34801561118257600080fd5b506105f8612b34565b34801561119757600080fd5b506103bc612b3a565b3480156111ac57600080fd5b506103bc612b49565b6111bd6111cd565b6111cd6111c8612b58565b612c20565b565b6069546001600160a01b031681565b60826020526000908152604090205460ff1681565b60368054604080516020601f600260001961010060018816150201909516949094049384018190048102820181019092528281526060939092909183018282801561127f5780601f106112545761010080835404028352916020019161127f565b820191906000526020600020905b81548152906001019060200180831161126257829003601f168201915b505050505090505b90565b600061129e611297612c44565b8484612c48565b5060015b92915050565b60925460ff1681565b6090546000906001600160a01b03166112ca8484612d34565b6001600160a01b03161480156112ea57506090546001600160a01b031615155b6112f55760006112fe565b630b135d3f60e11b5b9392505050565b60855460ff1681565b60355490565b6000611321848484612db4565b6113918461132d612c44565b61138c85604051806060016040528060288152602001615251602891396001600160a01b038a1660009081526034602052604081209061136b612c44565b6001600160a01b031681526020810191909152604001600020549190612f11565b612c48565b5060019392505050565b607d5481565b600260655414156113f9576040805162461bcd60e51b815260206004820152601f60248201527f5265656e7472616e637947756172643a207265656e7472616e742063616c6c00604482015290519081900360640190fd5b60026065556114088488612fa8565b604080517fd29d500304178a7a55901b6b67f2f14762edc14de19f872f4c0f68dd2ecdc1366020808301919091523082840152606082018d9052608082018c905260a082018b905260c082018a90526001600160a01b03808a1660e084015285166101008084019190915283518084039091018152610120909201909252805191012060009061149790613052565b90506114a684888b84866130a3565b84156115155760006114b886886130f1565b90506114f76114c78d88613187565b6114d18d84613187565b8a888b8b607754116114e45760006114f1565b6077546114f1908d613187565b8a613197565b60665461150f906001600160a01b03168633896136bd565b50611526565b6115268b8b89878a60775489613197565b50506001606555505050505050505050565b608f5481565b60385460ff1690565b60915481565b600061129e61155a612c44565b8461138c856034600061156b612c44565b6001600160a01b03908116825260208083019390935260409182016000908120918c168152925290205490613736565b60816020526000908152604090205460ff1681565b608d5481565b6002606554141561160e576040805162461bcd60e51b815260206004820152601f60248201527f5265656e7472616e637947756172643a207265656e7472616e742063616c6c00604482015290519081900360640190fd5b60026065556040805160088082526101208201909252600091602082016101008036833750506068546040516369795e9360e01b815230600482018181523360248401819052606060448501908152606485018a90529697506001600160a01b03909416956369795e9395509193928992899291608401846020850280828437600081840152601f19601f8201169050808301925050509550505050505060006040518083038186803b1580156116c457600080fd5b505afa1580156116d8573d6000803e3d6000fd5b505050506040513d6000823e601f3d908101601f19168201604052602081101561170157600080fd5b810190808051604051939291908464010000000082111561172157600080fd5b90830190602082018581111561173657600080fd5b825186602082028301116401000000008211171561175357600080fd5b82525081516020918201928201910280838360005b83811015611780578181015183820152602001611768565b5050505090500160405250505090506117c433826005815181106117a057fe5b6020026020010151836006815181106117b557fe5b60200260200101516000613790565b5050600160655550565b6001600160a01b0316600090815260716020908152604091829020825161012081018452815480825260018301549382018490526002830154948201859052600383015460608301819052600484015460808401819052600585015460a08501819052600686015460c08601819052600787015460e08701819052600890970154610100909601869052939896979692959194909392565b607e5481565b600260655414156118c4576040805162461bcd60e51b815260206004820152601f60248201527f5265656e7472616e637947756172643a207265656e7472616e742063616c6c00604482015290519081900360640190fd5b60026065556040805160088082526101208201909252600091602082016101008036833750506068546040516369795e9360e01b815230600482018181523360248401819052606060448501908152606485018a90529697506001600160a01b03909416956369795e9395509193928992899291608401846020850280828437600081840152601f19601f8201169050808301925050509550505050505060006040518083038186803b15801561197a57600080fd5b505afa15801561198e573d6000803e3d6000fd5b505050506040513d6000823e601f3d908101601f1916820160405260208110156119b757600080fd5b81019080805160405193929190846401000000008211156119d757600080fd5b9083019060208201858111156119ec57600080fd5b8251866020820283011164010000000082111715611a0957600080fd5b82525081516020918201928201910280838360005b83811015611a36578181015183820152602001611a1e565b5050505090500160405250505090506000606760009054906101000a90046001600160a01b03166001600160a01b031663f58d1c946040518163ffffffff1660e01b815260040160206040518083038186803b158015611a9557600080fd5b505afa158015611aa9573d6000803e3d6000fd5b505050506040513d6020811015611abf57600080fd5b505160408051630cbefec960e31b815290516001600160a01b03909216916365f7f64891600480820192602092909190829003018186803b158015611b0357600080fd5b505afa158015611b17573d6000803e3d6000fd5b505050506040513d6020811015611b2d57600080fd5b50518251909150611b6b90339084906005908110611b4757fe5b602002602001015184600681518110611b5c57fe5b60200260200101516001613790565b611b898183600581518110611b7c57fe5b6020026020010151613970565b806001600160a01b03166384715b1183600581518110611ba557fe5b6020026020010151873360006040518563ffffffff1660e01b815260040180858152602001848152602001836001600160a01b03168152602001826001600160a01b03168152602001945050505050600060405180830381600087803b158015611c0e57600080fd5b505af1158015611c22573d6000803e3d6000fd5b50505050336001600160a01b03167f1886d3d8c9b71f99d9224bccca0588192d9d4428b2adab6cfcf70e8a07d4d2f283600581518110611c5e57fe5b60200260200101516040518082815260200191505060405180910390a250506001606555505050565b606954600160a81b900460ff1681565b7f000000000000000000000000000000000000000000000000000000000000000081565b607b5481565b60835481565b60868160048110611cd757600080fd5b01546001600160a01b0316905081565b611cfe607754611cf633611e45565b11600f6139a4565b336000908152607160205260409020609154611d399015801590611d3257506091546001830154611d30904290613187565b115b607d6139a4565b606760009054906101000a90046001600160a01b03166001600160a01b031663ead4c1cf6040518163ffffffff1660e01b815260040160206040518083038186803b158015611d8757600080fd5b505afa158015611d9b573d6000803e3d6000fd5b505050506040513d6020811015611db157600080fd5b5051604080517f45b4974700000000000000000000000000000000000000000000000000000000815233600482015290516001600160a01b03909216916345b49747916024808201926020929091908290030181600087803b158015611e1657600080fd5b505af1158015611e2a573d6000803e3d6000fd5b505050506040513d6020811015611e4057600080fd5b505050565b6001600160a01b031660009081526033602052604090205490565b606f5481565b608554610100900460ff1681565b606d5481565b608b5481565b60026065541415611ed8576040805162461bcd60e51b815260206004820152601f60248201527f5265656e7472616e637947756172643a207265656e7472616e742063616c6c00604482015290519081900360640190fd5b6002606555611ef584848433611eec6139b2565b60775487613197565b505060016065555050565b60795481565b607a5481565b60026065541415611f64576040805162461bcd60e51b815260206004820152601f60248201527f5265656e7472616e637947756172643a207265656e7472616e742063616c6c00604482015290519081900360640190fd5b6002606555611f738385612fa8565b604080517f4a667eb0782d5566daf0bdf399587241ea093b0424d78811ac44135dd7a8a45d6020808301919091523082840152606082018a90526080820189905260a0820188905260c08083018890528351808403909101815260e09092019092528051910120600090611fe690613052565b9050611ff660008511606a6139a4565b61200383848884866130a3565b61201b69012a27d53bc048700000891115607b6139a4565b606654612033906001600160a01b03168433876136bd565b6120408389896000613790565b50506001606555505050505050565b600260655414156120a7576040805162461bcd60e51b815260206004820152601f60248201527f5265656e7472616e637947756172643a207265656e7472616e742063616c6c00604482015290519081900360640190fd5b60026065556120b68386612fa8565b60675460408051633d63472560e21b815290516000926001600160a01b03169163f58d1c94916004808301926020929190829003018186803b1580156120fb57600080fd5b505afa15801561210f573d6000803e3d6000fd5b505050506040513d602081101561212557600080fd5b505160408051630cbefec960e31b815290516001600160a01b03909216916365f7f64891600480820192602092909190829003018186803b15801561216957600080fd5b505afa15801561217d573d6000803e3d6000fd5b505050506040513d602081101561219357600080fd5b8101908080519060200190929190505050905060006122497f3b316a46c148535e4353962e052926fc1375db328a64d9bf0d8311a12095015f838e8e8e8e8e8e8c604051602001808a8152602001896001600160a01b03168152602001888152602001878152602001868152602001858152602001848152602001838152602001826001600160a01b03168152602001995050505050505050505060405160208183030381529060405280519060200120613052565b905061225884858b84876130a3565b61226660008611606a6139a4565b61227e69012a27d53bc0487000008d1115607b6139a4565b606654612296906001600160a01b03168533886136bd565b6122a3848d8d6001613790565b6122ad828d613970565b83609060006101000a8154816001600160a01b0302191690836001600160a01b03160217905550816001600160a01b031663be546f5e8d8d8d8d8d8d8b8e308d6040518b63ffffffff1660e01b8152600401808b81526020018a8152602001898152602001888152602001878152602001868152602001856001600160a01b03168152602001848152602001836001600160a01b0316815260200180602001828103825283818151815260200191508051906020019080838360005b83811015612381578181015183820152602001612369565b50505050905090810190601f1680156123ae5780820380516001836020036101000a031916815260200191505b509b505050505050505050505050600060405180830381600087803b1580156123d657600080fd5b505af11580156123ea573d6000803e3d6000fd5b5050609080547fffffffffffffffffffffffff00000000000000000000000000000000000000001690555050604080518d815290516001600160a01b038616917f1886d3d8c9b71f99d9224bccca0588192d9d4428b2adab6cfcf70e8a07d4d2f2919081900360200190a25050600160655550505050505050505050565b607c5481565b60378054604080516020601f600260001961010060018816150201909516949094049384018190048102820181019092528281526060939092909183018282801561127f5780601f106112545761010080835404028352916020019161127f565b60845481565b600061129e6124e2612c44565b8461138c85604051806060016040528060258152602001615343602591396034600061250c612c44565b6001600160a01b03908116825260208083019390935260409182016000908120918d16815292529020549190612f11565b606e5481565b600061129e612550612c44565b8484612db4565b60775481565b608a5481565b608e5481565b6060608080548060200260200160405190810160405280929190818152602001828054801561127f57602002820191906000526020600020905b81546001600160a01b031681526001909101906020018083116125a3575050505050905090565b6060607f80548060200260200160405190810160405280929190818152602001828054801561127f576020028201919060005260206000209081546001600160a01b031681526001909101906020018083116125a3575050505050905090565b60745481565b606b5481565b6002606554141561268e576040805162461bcd60e51b815260206004820152601f60248201527f5265656e7472616e637947756172643a207265656e7472616e742063616c6c00604482015290519081900360640190fd5b6002606555606754604080517f364d1181000000000000000000000000000000000000000000000000000000008152336004820152905161272b926001600160a01b03169163364d1181916024808301926020929190829003018186803b1580156126f857600080fd5b505afa15801561270c573d6000803e3d6000fd5b505050506040513d602081101561272257600080fd5b505160236139a4565b60675460408051633d63472560e21b8152905161281d926001600160a01b03169163f58d1c94916004808301926020929190829003018186803b15801561277157600080fd5b505afa158015612785573d6000803e3d6000fd5b505050506040513d602081101561279b57600080fd5b505160408051630cbefec960e31b815290516001600160a01b03909216916365f7f64891600480820192602092909190829003018186803b1580156127df57600080fd5b505afa1580156127f3573d6000803e3d6000fd5b505050506040513d602081101561280957600080fd5b50516001600160a01b03163014607a6139a4565b604080517f3b316a46c148535e4353962e052926fc1375db328a64d9bf0d8311a12095015f6020808301919091523082840152606082018d9052608082018c905260a082018b905260c082018a905260e0820189905261010082018890526001600160a01b038716610120808401919091528351808403909101815261014090920190925280519101206000906128b390613052565b90506128c283868984866130a3565b6115268b8a8786886077546000613197565b60755481565b60026065541415612932576040805162461bcd60e51b815260206004820152601f60248201527f5265656e7472616e637947756172643a207265656e7472616e742063616c6c00604482015290519081900360640190fd5b60026065556129418389612fa8565b604080517f48e615d8fee5c01aae8a4beb02057e459c71d65cdc5cf029e76a47019d54e5af6020808301919091523082840152606082018e9052608082018d905260a082018c905260c082018b905289151560e0808401919091528351808403909101815261010090920190925280519101206000906129c090613052565b90506129cf83848c84866130a3565b6129e88c6129dd8d8c613187565b858b8b8b8b8b613b9a565b5050600160655550505050505050505050565b608c5481565b60026065541415612a59576040805162461bcd60e51b815260206004820152601f60248201527f5265656e7472616e637947756172643a207265656e7472616e742063616c6c00604482015290519081900360640190fd5b6002606555612a74336001600160a01b03851614600f6139a4565b612afd8585858585612a846139b2565b88612a90576000612af6565b876001600160a01b0316630126c6066040518163ffffffff1660e01b815260040160206040518083038186803b158015612ac957600080fd5b505afa158015612add573d6000803e3d6000fd5b505050506040513d6020811015612af357600080fd5b50515b6000613b9a565b50506001606555505050565b6001600160a01b03918216600090815260346020908152604080832093909416825291909152205490565b60725481565b6067546001600160a01b031681565b6066546001600160a01b031681565b6040517f0d7415770000000000000000000000000000000000000000000000000000000081526000906001600160a01b037f00000000000000000000000000000000000000000000000000000000000000001690630d74157790612bcb906001600160e01b03198535169060040161510a565b60206040518083038186803b158015612be357600080fd5b505afa158015612bf7573d6000803e3d6000fd5b505050506040513d601f19601f82011682018060405250810190612c1b91906150e3565b905090565b3660008037600080366000845af43d6000803e808015612c3f573d6000f35b3d6000fd5b3390565b6001600160a01b038316612c8d5760405162461bcd60e51b81526004018080602001828103825260248152602001806152bf6024913960400191505060405180910390fd5b6001600160a01b038216612cd25760405162461bcd60e51b81526004018080602001828103825260228152602001806151656022913960400191505060405180910390fd5b6001600160a01b03808416600081815260346020908152604080832094871680845294825291829020859055815185815291517f8c5be1e5ebec7d5bd14f71427d1e84f3dd0314c0f7b2291e5b200ac8c7c3b9259281900390910190a3505050565b60008151604114612d8c576040805162461bcd60e51b815260206004820152601f60248201527f45434453413a20696e76616c6964207369676e6174757265206c656e67746800604482015290519081900360640190fd5b60208201516040830151606084015160001a612daa86828585613e03565b9695505050505050565b6001600160a01b038316612df95760405162461bcd60e51b815260040180806020018281038252602581526020018061529a6025913960400191505060405180910390fd5b6001600160a01b038216612e3e5760405162461bcd60e51b81526004018080602001828103825260238152602001806151206023913960400191505060405180910390fd5b612e49838383613f81565b612e8681604051806060016040528060268152602001615187602691396001600160a01b0386166000908152603360205260409020549190612f11565b6001600160a01b038085166000908152603360205260408082209390935590841681522054612eb59082613736565b6001600160a01b0380841660008181526033602090815260409182902094909455805185815290519193928716927fddf252ad1be2c89b69c2b068fc378daa952ba7f163c4a11628f55a4df523b3ef92918290030190a3505050565b60008184841115612fa05760405162461bcd60e51b81526004018080602001828103825283818151815260200191508051906020019080838360005b83811015612f65578181015183820152602001612f4d565b50505050905090810190601f168015612f925780820380516001836020036101000a031916815260200191505b509250505060405180910390fd5b505050900390565b606754604080517f411137c30000000000000000000000000000000000000000000000000000000081523360048201529051613040926001600160a01b03169163411137c3916024808301926020929190829003018186803b15801561300d57600080fd5b505afa158015613021573d6000803e3d6000fd5b505050506040513d602081101561303757600080fd5b505160126139a4565b61304e8183111560136139a4565b5050565b604080517f19457468657265756d205369676e6564204d6573736167653a0a333200000000602080830191909152603c8083019490945282518083039094018452605c909101909152815191012090565b6001600160a01b0384166000908152607160205260409020600701546130cc90841460596139a4565b6130ea6130e36001600160a01b03871684846140db565b60586139a4565b5050505050565b60006112fe82613181606660009054906101000a90046001600160a01b03166001600160a01b031663313ce5676040518163ffffffff1660e01b815260040160206040518083038186803b15801561314857600080fd5b505afa15801561315c573d6000803e3d6000fd5b505050506040513d602081101561317257600080fd5b5051869060ff16600a0a61420a565b9061420a565b808203828111156112a257600080fd5b61319f614228565b6131a8856142c1565b6131b1836142da565b606954600090600160a81b900460ff1615806132d85750606760009054906101000a90046001600160a01b03166001600160a01b0316630ebdb9a26040518163ffffffff1660e01b815260040160206040518083038186803b15801561321657600080fd5b505afa15801561322a573d6000803e3d6000fd5b505050506040513d602081101561324057600080fd5b5051604080517fc7ec5d5d0000000000000000000000000000000000000000000000000000000081523060048201526001600160a01b0389811660248301529151919092169163c7ec5d5d916044808301926020929190829003018186803b1580156132ab57600080fd5b505afa1580156132bf573d6000803e3d6000fd5b505050506040513d60208110156132d557600080fd5b50515b90506132f56132e6876143d1565b806132ee5750815b601d6139a4565b6074541561331e5761331e6074546133158a61330f61447e565b906144fc565b111560006139a4565b61332c8389101560016139a4565b606654604080516370a0823160e01b815230600482015290516000926001600160a01b0316916370a08231916024808301926020929190829003018186803b15801561337757600080fd5b505afa15801561338b573d6000803e3d6000fd5b505050506040513d60208110156133a157600080fd5b50516066549091506001600160a01b031673c02aaa39b223fe8d0a0e5c4f27ead9083c756cc21480156133d45750600034115b156134465773c02aaa39b223fe8d0a0e5c4f27ead9083c756cc26001600160a01b031663d0e30db0346040518263ffffffff1660e01b81526004016000604051808303818588803b15801561342857600080fd5b505af115801561343c573d6000803e3d6000fd5b505050505061345e565b60665461345e906001600160a01b031687308c6136bd565b606654604080516370a0823160e01b815230600482015290516134ec928c926134e49286926001600160a01b0316916370a08231916024808301926020929190829003018186803b1580156134b257600080fd5b505afa1580156134c6573d6000803e3d6000fd5b505050506040513d60208110156134dc57600080fd5b505190613187565b1460056139a4565b60006134f788611e45565b90506000613585606660009054906101000a90046001600160a01b03166001600160a01b031663313ce5676040518163ffffffff1660e01b815260040160206040518083038186803b15801561354c57600080fd5b505afa158015613560573d6000803e3d6000fd5b505050506040513d602081101561357657600080fd5b50518c9060ff16600a0a61420a565b90506000613593828961420a565b90506135a38b82101560566139a4565b6135ad8a8261450c565b6067546001600160a01b039081169063c432ae45908b9089166135d0578b6135d2565b885b8f6040518463ffffffff1660e01b815260040180846001600160a01b03168152602001836001600160a01b031681526020018281526020019350505050600060405180830381600087803b15801561362957600080fd5b505af115801561363d573d6000803e3d6000fd5b5050505061364d8a848e846145fe565b6001600160a01b038a166000818152607160209081526040918290206007018054600101905581518e81529081018f9052428183015290517f8d878fd0c5092c0e518d34fa1f3d23c8b3a1b2b7f86174bdba0ceaabf68b5a539181900360600190a2505050505050505050505050565b604080516001600160a01b0380861660248301528416604482015260648082018490528251808303909101815260849091019091526020810180516001600160e01b03167f23b872dd000000000000000000000000000000000000000000000000000000001790526137309085906146e1565b50505050565b6000828201838110156112fe576040805162461bcd60e51b815260206004820152601b60248201527f536166654d6174683a206164646974696f6e206f766572666c6f770000000000604482015290519081900360640190fd5b6001600160a01b03841660009081526071602052604090206137b0614228565b6137c26000826007015411600f6139a4565b6137db60008511806137d45750600084115b60526139a4565b6137eb83606b54101560566139a4565b6137fc81600201544211600c6139a4565b6007810180546001019055426002820155821561387857600481015461382290846144fc565b6004820155606b546138349084613187565b606b556138418584614792565b60405183906001600160a01b038716907f4dacaff8a707e7b54321fbdedb3b65d1f3316b59787949c034bae8946d6ff4e190600090a35b83156130ea576068546000906001600160a01b0316638ce90e828461389d578761389f565b305b876040518363ffffffff1660e01b815260040180836001600160a01b0316815260200182815260200192505050602060405180830381600087803b1580156138e657600080fd5b505af11580156138fa573d6000803e3d6000fd5b505050506040513d602081101561391057600080fd5b5051600383015490915061392490826144fc565b60038301556040805182815290516001600160a01b038816917f09703ae9c781fcf86e1d44c6d854c2684b3f5dcfe234dfc64f4d356d0e3cd73e919081900360200190a2505050505050565b61304e6001600160a01b037f000000000000000000000000000000000000000000000000000000000000000016838361485a565b8161304e5761304e8161499f565b607f54600090613a81576139c461130e565b15613a7257613a6d6139d461130e565b606654604080517f313ce5670000000000000000000000000000000000000000000000000000000081529051613181926001600160a01b03169163313ce567916004808301926020929190829003018186803b158015613a3357600080fd5b505afa158015613a47573d6000803e3d6000fd5b505050506040513d6020811015613a5d57600080fd5b505160ff16600a0a61318161447e565b613a7a565b613a7a6149f2565b9050611287565b606760009054906101000a90046001600160a01b03166001600160a01b031663294d237c6040518163ffffffff1660e01b815260040160206040518083038186803b158015613acf57600080fd5b505afa158015613ae3573d6000803e3d6000fd5b505050506040513d6020811015613af957600080fd5b5051606654604080517fbc14773a0000000000000000000000000000000000000000000000000000000081523060048201526001600160a01b0392831660248201529051919092169163bc14773a916044808301926020929190829003018186803b158015613b6757600080fd5b505afa158015613b7b573d6000803e3d6000fd5b505050506040513d6020811015613b9157600080fd5b50519050611287565b613ba2614228565b613bab836142da565b6000613bb687611e45565b9050613bc660008211600f6139a4565b613be8606f54613bdf613bd88a6149fe565b4290613187565b101560036139a4565b6001600160a01b038716600090815260716020526040902060080154613c0e8282613187565b8a11613c1a5789613c24565b613c248282613187565b9950613c3d613c338383613187565b8b111560076139a4565b6000613c498b87614a45565b9050878015613c5e575080613c5c61447e565b105b15613d0a57613c7e613c77826658d15e17628000614ad0565b8290613187565b9050613c89876142c1565b6001600160a01b03871663fa9bacac613cb3613cac8466b1a2bc2ec50000614ad0565b84906144fc565b876040518363ffffffff1660e01b81526004018083815260200182815260200192505050600060405180830381600087803b158015613cf157600080fd5b505af1158015613d05573d6000803e3d6000fd5b505050505b613d248a8210158015613d1d575060008c115b60566139a4565b613d3981613d3061447e565b101560046139a4565b613d43898c614ae8565b8315613d6057606654613d60906001600160a01b03163386614be4565b613d75898285613d6f8d611e45565b8f614c4f565b6001600160a01b038916600090815260716020526040902060070180546001019055613daa89613da58387613187565b614792565b60408051828152602081018d9052428183015290516001600160a01b038b169182917f32a44bf15c44dad7691e20191a033527995d56d46ebe5115756d9e2eec16d3339181900360600190a35050505050505050505050565b60007f7fffffffffffffffffffffffffffffff5d576e7357a4501ddfe92f46681b20a0821115613e645760405162461bcd60e51b81526004018080602001828103825260228152602001806151e76022913960400191505060405180910390fd5b8360ff16601b1480613e7957508360ff16601c145b613eb45760405162461bcd60e51b815260040180806020018281038252602281526020018061522f6022913960400191505060405180910390fd5b600060018686868660405160008152602001604052604051808581526020018460ff1681526020018381526020018281526020019450505050506020604051602081039080840390855afa158015613f10573d6000803e3d6000fd5b5050604051601f1901519150506001600160a01b038116613f78576040805162461bcd60e51b815260206004820152601860248201527f45434453413a20696e76616c6964207369676e61747572650000000000000000604482015290519081900360640190fd5b95945050505050565b613f8c838383611e40565b6140496001600160a01b0384161580613fac57506001600160a01b038316155b806140425750606760009054906101000a90046001600160a01b03166001600160a01b031663393bfe496040518163ffffffff1660e01b815260040160206040518083038186803b15801561400057600080fd5b505afa158015614014573d6000803e3d6000fd5b505050506040513d602081101561402a57600080fd5b505180156140425750606954600160a81b900460ff16155b603b6139a4565b6001600160a01b0383161580159061406957506001600160a01b03821615155b15611e4057600061407984611e45565b6001600160a01b0385166000908152607160205260409020600801549091506140af836140a68484613187565b101560076139a4565b6140c6856000846140c08188613187565b87614c4f565b6130ea846140d386611e45565b6000866145fe565b60006140e684614d38565b156141e55760408051630b135d3f60e11b815260048101858152602482019283528451604483015284516001600160a01b03881693631626ba7e938893889390929160640190602085019080838360005b8381101561414f578181015183820152602001614137565b50505050905090810190601f16801561417c5780820380516001836020036101000a031916815260200191505b50935050505060206040518083038186803b15801561419a57600080fd5b505afa9250505080156141bf57506040513d60208110156141ba57600080fd5b505160015b6141cb575060006112fe565b6001600160e01b031916630b135d3f60e11b1490506112fe565b836001600160a01b03166141f98484612d34565b6001600160a01b03161490506112fe565b60006112fe8261422285670de0b6b3a7640000614d3e565b90614d62565b606754604080517f5b14f18300000000000000000000000000000000000000000000000000000000815230600482015290516111cd926001600160a01b031691635b14f183916024808301926020929190829003018186803b15801561428d57600080fd5b505afa1580156142a1573d6000803e3d6000fd5b505050506040513d60208110156142b757600080fd5b50511560536139a4565b6142d76001600160a01b038216151560176139a4565b50565b600080608d54116142f3576703782dace9d900006142f7565b608d545b9050600080608c541161431257670de0b6b3a7640000614316565b608c545b9050608a546000146143c65761435361434c826143466301e13380613181608b544261318790919063ffffffff16565b90614ad0565b83906144fc565b9150608a5483111561438c57608a54614387906143709084614ad0565b608a5461437e908690613187565b111560766139a4565b6143c6565b6143c66143b96143b06143a785670de0b6b3a76400006144fc565b608a549061420a565b608a5490613187565b608a5461437e9086613187565b5050608a5542608b55565b60006001600160a01b038216158015906112a257506001600160a01b0382166086600001546001600160a01b0316148061442157506001600160a01b0382166086600101546001600160a01b0316145b8061444257506001600160a01b0382166086600201546001600160a01b0316145b8061446357506001600160a01b0382166086600301546001600160a01b0316145b806112a25750506069546001600160a01b0390811691161490565b606b54606654604080516370a0823160e01b8152306004820152905160009384936144d69391926001600160a01b03909116916370a08231916024808301926020929190829003018186803b1580156134b257600080fd5b905060835481116144e85760006144f6565b6083546144f6908290613187565b91505090565b808201828110156112a257600080fd5b6001600160a01b038216614567576040805162461bcd60e51b815260206004820152601f60248201527f45524332303a206d696e7420746f20746865207a65726f206164647265737300604482015290519081900360640190fd5b61457360008383613f81565b6035546145809082613736565b6035556001600160a01b0382166000908152603360205260409020546145a69082613736565b6001600160a01b03831660008181526033602090815260408083209490945583518581529351929391927fddf252ad1be2c89b69c2b068fc378daa952ba7f163c4a11628f55a4df523b3ef9281900390910190a35050565b6001600160a01b038416600090815260716020526040902083158061462557506001810154155b15614642576072546146389060016144fc565b6072554260018201555b600681015461465190846144fc565b60068201554281556068546040805163df8a4e4560e01b81523060048201526001600160a01b0388811660248301526044820188905260648201869052600160848301529151919092169163df8a4e459160a480830192600092919082900301818387803b1580156146c257600080fd5b505af11580156146d6573d6000803e3d6000fd5b505050505050505050565b6000614736826040518060400160405280602081526020017f5361666545524332303a206c6f772d6c6576656c2063616c6c206661696c6564815250856001600160a01b0316614dc99092919063ffffffff16565b805190915015611e405780806020019051602081101561475557600080fd5b5051611e405760405162461bcd60e51b815260040180806020018281038252602a8152602001806152e3602a913960400191505060405180910390fd5b6066546001600160a01b031673c02aaa39b223fe8d0a0e5c4f27ead9083c756cc2141561484357804710156148345773c02aaa39b223fe8d0a0e5c4f27ead9083c756cc2632e1a7d4d6147e58347613187565b6040518263ffffffff1660e01b815260040180828152602001915050600060405180830381600087803b15801561481b57600080fd5b505af115801561482f573d6000803e3d6000fd5b505050505b61483e8282614de0565b61304e565b60665461304e906001600160a01b03168383614be4565b8015806148f95750604080517fdd62ed3e0000000000000000000000000000000000000000000000000000000081523060048201526001600160a01b03848116602483015291519185169163dd62ed3e91604480820192602092909190829003018186803b1580156148cb57600080fd5b505afa1580156148df573d6000803e3d6000fd5b505050506040513d60208110156148f557600080fd5b5051155b6149345760405162461bcd60e51b815260040180806020018281038252603681526020018061530d6036913960400191505060405180910390fd5b604080516001600160a01b038416602482015260448082018490528251808303909101815260649091019091526020810180516001600160e01b03167f095ea7b300000000000000000000000000000000000000000000000000000000179052611e409084906146e1565b62461bcd60e51b6000908152602060045260076024526642414223000030600a808404818106603090810160081b95839006959095019082900491820690940160101b939093010160c81b604452606490fd5b670de0b6b3a764000090565b6001600160a01b038116600090815260716020526040812054608f5411614a3d576001600160a01b0382166000908152607160205260409020546112a2565b5050608f5490565b60006112fe606660009054906101000a90046001600160a01b03166001600160a01b031663313ce5676040518163ffffffff1660e01b815260040160206040518083038186803b158015614a9857600080fd5b505afa158015614aac573d6000803e3d6000fd5b505050506040513d6020811015614ac257600080fd5b505160ff16600a0a61434685855b60006112fe670de0b6b3a76400006142228585614d3e565b6001600160a01b038216614b2d5760405162461bcd60e51b81526004018080602001828103825260218152602001806152796021913960400191505060405180910390fd5b614b3982600083613f81565b614b7681604051806060016040528060228152602001615143602291396001600160a01b0385166000908152603360205260409020549190612f11565b6001600160a01b038316600090815260336020526040902055603554614b9c9082614ec5565b6035556040805182815290516000916001600160a01b038516917fddf252ad1be2c89b69c2b068fc378daa952ba7f163c4a11628f55a4df523b3ef9181900360200190a35050565b604080516001600160a01b038416602482015260448082018490528251808303909101815260649091019091526020810180516001600160e01b03167fa9059cbb00000000000000000000000000000000000000000000000000000000179052611e409084906146e1565b6001600160a01b038516600090815260716020526040902082614c9c5760008082556001808301829055600583018290556006830191909155607254614c9491613187565b607255614cb1565b6005810154614cab90866144fc565b60058201555b6068546040805163df8a4e4560e01b81523060048201526001600160a01b0389811660248301526044820188905260648201869052600060848301819052925193169263df8a4e459260a48084019391929182900301818387803b158015614d1857600080fd5b505af1158015614d2c573d6000803e3d6000fd5b50505050505050505050565b3b151590565b6000821580614d5957505081810281838281614d5657fe5b04145b6112a257600080fd5b6000808211614db8576040805162461bcd60e51b815260206004820152601a60248201527f536166654d6174683a206469766973696f6e206279207a65726f000000000000604482015290519081900360640190fd5b818381614dc157fe5b049392505050565b6060614dd88484600085614f22565b949350505050565b80471015614e35576040805162461bcd60e51b815260206004820152601d60248201527f416464726573733a20696e73756666696369656e742062616c616e6365000000604482015290519081900360640190fd5b6040516000906001600160a01b0384169083908381818185875af1925050503d8060008114614e80576040519150601f19603f3d011682016040523d82523d6000602084013e614e85565b606091505b5050905080611e405760405162461bcd60e51b815260040180806020018281038252603a8152602001806151ad603a913960400191505060405180910390fd5b600082821115614f1c576040805162461bcd60e51b815260206004820152601e60248201527f536166654d6174683a207375627472616374696f6e206f766572666c6f770000604482015290519081900360640190fd5b50900390565b606082471015614f635760405162461bcd60e51b81526004018080602001828103825260268152602001806152096026913960400191505060405180910390fd5b614f6c85614d38565b614fbd576040805162461bcd60e51b815260206004820152601d60248201527f416464726573733a2063616c6c20746f206e6f6e2d636f6e7472616374000000604482015290519081900360640190fd5b600080866001600160a01b031685876040518082805190602001908083835b60208310614ffb5780518252601f199092019160209182019101614fdc565b6001836020036101000a03801982511681845116808217855250505050505090500191505060006040518083038185875af1925050503d806000811461505d576040519150601f19603f3d011682016040523d82523d6000602084013e615062565b606091505b509150915061507282828661507d565b979650505050505050565b6060831561508c5750816112fe565b82511561509c5782518084602001fd5b60405162461bcd60e51b8152602060048201818152845160248401528451859391928392604401919085019080838360008315612f65578181015183820152602001612f4d565b6000602082840312156150f4578081fd5b81516001600160a01b03811681146112fe578182fd5b6001600160e01b03199190911681526020019056fe45524332303a207472616e7366657220746f20746865207a65726f206164647265737345524332303a206275726e20616d6f756e7420657863656564732062616c616e636545524332303a20617070726f766520746f20746865207a65726f206164647265737345524332303a207472616e7366657220616d6f756e7420657863656564732062616c616e6365416464726573733a20756e61626c6520746f2073656e642076616c75652c20726563697069656e74206d6179206861766520726576657274656445434453413a20696e76616c6964207369676e6174757265202773272076616c7565416464726573733a20696e73756666696369656e742062616c616e636520666f722063616c6c45434453413a20696e76616c6964207369676e6174757265202776272076616c756545524332303a207472616e7366657220616d6f756e74206578636565647320616c6c6f77616e636545524332303a206275726e2066726f6d20746865207a65726f206164647265737345524332303a207472616e736665722066726f6d20746865207a65726f206164647265737345524332303a20617070726f76652066726f6d20746865207a65726f20616464726573735361666545524332303a204552433230206f7065726174696f6e20646964206e6f7420737563636565645361666545524332303a20617070726f76652066726f6d206e6f6e2d7a65726f20746f206e6f6e2d7a65726f20616c6c6f77616e636545524332303a2064656372656173656420616c6c6f77616e63652062656c6f77207a65726fa264697066735822122009e25c85cf16ed440e1fb1c31580f56fd7a8d38378a32b3322dd0cfb7a4c200b64736f6c63430007060033",
  "devdoc": {
    "kind": "dev",
    "methods": {
      "allowance(address,address)": {
        "details": "See {IERC20-allowance}."
      },
      "approve(address,uint256)": {
        "details": "See {IERC20-approve}. Requirements: - `spender` cannot be the zero address."
      },
      "balanceOf(address)": {
        "details": "See {IERC20-balanceOf}."
      },
      "claimAndStakeReturns(uint256,address[])": {
        "params": {
          "_finalizedStrategies": "Finalized strategies to process",
          "_minAmountOut": "Minimum hBABL as part of the Heart garden BABL staking"
        }
      },
      "claimAndStakeRewardsBySig(uint256,uint256,uint256,uint256,uint256,uint256,uint256,uint256,address,bytes)": {
        "details": "Should be called instead of the `claimAndStakeReturns` to save gas due   to getRewards caculated off-chain. The Keeper fee is paid out of user's   reserveAsset and it is calculated off-chain.",
        "params": {
          "_babl": "BABL rewards from mining program.",
          "_fee": "Actual fee keeper demands. Have to be less than _maxFee.",
          "_maxFee": "Max fee user is willing to pay keeper. Fee is                         substracted from user wallet in reserveAsset. Fee is                         expressed in reserve asset.",
          "_minAmountOut": "Minimum hBABL as part of the Heart Garden BABL staking",
          "_nonce": "Current nonce of user in the claiming garden at to prevent replay attacks.",
          "_nonceHeart": "Current nonce of user in Heart Garden to prevent replay attacks.",
          "_pricePerShare": "Price per share of Heart Garden",
          "_profits": "Profit rewards in reserve asset.",
          "_signature": "Signature of signer",
          "_signer": "Signer of the tx"
        }
      },
      "claimReturns(address[])": {
        "params": {
          "_finalizedStrategies": "Finalized strategies to process"
        }
      },
      "claimRewardsBySig(uint256,uint256,uint256,uint256,uint256,address,bytes)": {
        "details": "Should be called instead of the `claimRewards at RD` to save gas due to   getRewards caculated off-chain. The Keeper fee is paid out of user's   reserveAsset and it is calculated off-chain.",
        "params": {
          "_babl": "BABL rewards from mining program.",
          "_fee": "Actual fee keeper demands. Have to be less than _maxFee.",
          "_maxFee": "Max fee user is willing to pay keeper. Fee is                         substracted from user wallet in reserveAsset. Fee is                         expressed in reserve asset.",
          "_nonce": "Current nonce to prevent replay attacks.",
          "_profits": "Profit rewards in reserve asset.",
          "_signature": "Signature by the user to verify claim parmas.",
          "_signer": "The user to who signed the signature"
        }
      },
      "decimals()": {
        "details": "Returns the number of decimals used to get its user representation. For example, if `decimals` equals `2`, a balance of `505` tokens should be displayed to a user as `5,05` (`505 / 10 ** 2`). Tokens usually opt for a value of 18, imitating the relationship between Ether and Wei. This is the value {ERC20} uses, unless {_setupDecimals} is called. NOTE: This information is only used for _display_ purposes: it in no way affects any of the arithmetic of the contract, including {IERC20-balanceOf} and {IERC20-transfer}."
      },
      "decreaseAllowance(address,uint256)": {
        "details": "Atomically decreases the allowance granted to `spender` by the caller. This is an alternative to {approve} that can be used as a mitigation for problems described in {IERC20-approve}. Emits an {Approval} event indicating the updated allowance. Requirements: - `spender` cannot be the zero address. - `spender` must have allowance for the caller of at least `subtractedValue`."
      },
      "deposit(uint256,uint256,address,address)": {
        "details": "WARN: If the reserve asset is different than ETH the sender needs to   have approved the garden.   Efficient to use of strategies.length == 0, otherwise can consume a lot   of gas ~2kk. Use `depositBySig` for gas efficiency.",
        "params": {
          "_amountIn": "Amount of the reserve asset that is received from contributor",
          "_minAmountOut": "Min amount of Garden shares to receive by contributor",
          "_referrer": "The user that referred the deposit",
          "_to": "Address to mint Garden shares to"
        }
      },
      "depositBySig(uint256,uint256,uint256,uint256,address,uint256,uint256,address,address,bytes)": {
        "params": {
          "_amountIn": "Amount of the reserve asset that is received from contributor.",
          "_fee": "Actual fee keeper demands. Have to be less than _maxFee.",
          "_maxFee": "Max fee user is willing to pay keeper. Fee is                                substracted from the withdrawn amount. Fee is                                expressed in reserve asset.",
          "_minAmountOut": "Min amount of Garden shares to receive by contributor.",
          "_nonce": "Current nonce to prevent replay attacks.",
          "_pricePerShare": "Price per share of the garden calculated off-chain by Keeper.",
          "_referrer": "The user that referred the deposit",
          "_signature": "Signature by the user to verify deposit parmas.",
          "_signer": "The user to who signed the signature.",
          "_to": "Address to mint shares to."
        }
      },
      "getContributor(address)": {
        "params": {
          "_contributor": "The contributor address"
        },
        "returns": {
          "claimedAt": "         Timestamp of the last claim",
          "claimedBABL": "       Total amount of claimed BABL",
          "claimedRewards": "    Total amount of claimed rewards",
          "initialDepositAt": "  Timestamp of the initial deposit",
          "lastDepositAt": "     Timestamp of the last deposit",
          "lockedBalance": "     Locked balance of the contributor",
          "nonce": "             Contributor nonce",
          "totalDeposits": "     Total amount of deposits",
          "withdrawnSince": "    Timestamp of last withdrawal"
        }
      },
      "getFinalizedStrategies()": {
        "returns": {
          "_0": "address[]        Returns list of addresses"
        }
      },
      "getStrategies()": {
        "returns": {
          "_0": "address[]        Returns list of addresses"
        }
      },
      "increaseAllowance(address,uint256)": {
        "details": "Atomically increases the allowance granted to `spender` by the caller. This is an alternative to {approve} that can be used as a mitigation for problems described in {IERC20-approve}. Emits an {Approval} event indicating the updated allowance. Requirements: - `spender` cannot be the zero address."
      },
      "name()": {
        "details": "Returns the name of the token."
      },
      "stakeBySig(uint256,uint256,uint256,uint256,uint256,uint256,address,uint256,address,bytes)": {
        "details": "Staking is in practical terms is depositing BABL into Heart garden.",
        "params": {
          "_amountIn": "Amount of the reserve asset that is received from contributor.",
          "_maxFee": "Max fee user is willing to pay keeper. Fee is                                substracted from the withdrawn amount. Fee is                                expressed in reserve asset.",
          "_minAmountOut": "Min amount of Garden shares to receive by contributor.",
          "_nonce": "Current nonce to prevent replay attacks.",
          "_nonceHeart": "Current nonce of the Heart garden to prevent replay attacks.",
          "_pricePerShare": "Price per share of the garden calculated off-chain by Keeper.",
          "_profits": "Amount of the reserve asset that is received from contributor.",
          "_signature": "Signature by the user to verify deposit params.",
          "_signer": "The user to who signed the signature.",
          "_to": "Address to mint shares to."
        }
      },
      "symbol()": {
        "details": "Returns the symbol of the token, usually a shorter version of the name."
      },
      "totalSupply()": {
        "details": "See {IERC20-totalSupply}."
      },
      "transfer(address,uint256)": {
        "details": "See {IERC20-transfer}. Requirements: - `recipient` cannot be the zero address. - the caller must have a balance of at least `amount`."
      },
      "transferFrom(address,address,uint256)": {
        "details": "See {IERC20-transferFrom}. Emits an {Approval} event indicating the updated allowance. This is not required by the EIP. See the note at the beginning of {ERC20}. Requirements: - `sender` and `recipient` cannot be the zero address. - `sender` must have a balance of at least `amount`. - the caller must have allowance for ``sender``'s tokens of at least `amount`."
      },
      "withdraw(uint256,uint256,address,bool,address)": {
        "details": "ATTENTION. Do not call withPenalty unless certain. If penalty is set,   it will be applied regardless of the garden state.   It is advised to first try to withdraw with no penalty and it this   reverts then try to with penalty.",
        "params": {
          "_amountIn": "Quantity of the garden token to withdrawal",
          "_minAmountOut": "Min quantity of reserve asset to receive",
          "_to": "Address to send component assets to",
          "_unwindStrategy": "Strategy to unwind",
          "_withPenalty": "Whether or not this is an immediate withdrawal"
        }
      },
      "withdrawBySig(uint256,uint256,uint256,uint256,bool,address,uint256,uint256,uint256,address,bytes)": {
        "details": "Should be called instead of the `withdraw` to save gas due to   pricePerShare caculated off-chain. Doesn't allow to unwind strategies   contrary to `withdraw`.   The Keeper fee is paid out of user's shares.   The true _minAmountOut is actually _minAmountOut - _maxFee due to the   Keeper fee.",
        "params": {
          "_amountIn": "Quantity of the garden tokens to withdraw.",
          "_fee": "Actual fee keeper demands. Have to be less than _maxFee.",
          "_maxFee": "Max fee user is willing to pay keeper. Fee is                         substracted from the withdrawn amount. Fee is                         expressed in reserve asset.",
          "_minAmountOut": "Min quantity of reserve asset to receive.",
          "_nonce": "Current nonce to prevent replay attacks.",
          "_pricePerShare": "Price per share of the garden calculated off-chain by Keeper.",
          "_signature": "Signature by the user to verify withdraw parmas.",
          "_signer": "The user to who signed the signature",
          "_strategyNAV": "NAV of the strategy to unwind.",
          "_unwindStrategy": "Strategy to unwind",
          "_withPenalty": "Whether or not this is an immediate withdrawal"
        }
      }
    },
    "version": 1
  },
  "userdoc": {
    "kind": "user",
    "methods": {
      "claimAndStakeReturns(uint256,address[])": {
        "notice": "User can claim the rewards from the strategies that his principal was   invested in and stake BABL into Heart Garden"
      },
      "claimAndStakeRewardsBySig(uint256,uint256,uint256,uint256,uint256,uint256,uint256,uint256,address,bytes)": {
        "notice": "This method allows users to stake their BABL rewards and claim their   profit rewards."
      },
      "claimNFT()": {
        "notice": "Allows a contributor to claim an NFT."
      },
      "claimReturns(address[])": {
        "notice": "Claims a contributor rewards in BABL and reserve asset."
      },
      "claimRewardsBySig(uint256,uint256,uint256,uint256,uint256,address,bytes)": {
        "notice": "Claims a contributor rewards in BABL and reserve asset."
      },
      "deposit(uint256,uint256,address,address)": {
        "notice": "Deposits the _amountIn in reserve asset into the garden. Gurantee to   recieve at least _minAmountOut."
      },
      "depositBySig(uint256,uint256,uint256,uint256,address,uint256,uint256,address,address,bytes)": {
        "notice": "Deposits the _amountIn in reserve asset into the garden. Gurantee to   recieve at least _minAmountOut."
      },
      "getContributor(address)": {
        "notice": "Gets the contributor data"
      },
      "getFinalizedStrategies()": {
        "notice": "Gets finalized strategies"
      },
      "getStrategies()": {
        "notice": "Gets current strategies"
      },
      "isValidSignature(bytes32,bytes)": {
        "notice": "Implements EIP-1271"
      },
      "stakeBySig(uint256,uint256,uint256,uint256,uint256,uint256,address,uint256,address,bytes)": {
        "notice": "Stakes _amountIn of BABL into the Heart garden."
      },
      "withdraw(uint256,uint256,address,bool,address)": {
        "notice": "Exchanges a contributor gardens shares for at least minimum amount in reserve asset."
      },
      "withdrawBySig(uint256,uint256,uint256,uint256,bool,address,uint256,uint256,uint256,address,bytes)": {
        "notice": "Exchanges user's gardens shairs for amount in reserve asset. This   method allows users to leave garden and reclaim their inital investment   plus profits or losses."
      }
    },
    "version": 1
  },
  "storageLayout": {
    "storage": [
      {
        "astId": 492,
        "contract": "contracts/gardens/Garden.sol:GardenV21",
        "label": "_initialized",
        "offset": 0,
        "slot": "0",
        "type": "t_bool"
      },
      {
        "astId": 495,
        "contract": "contracts/gardens/Garden.sol:GardenV21",
        "label": "_initializing",
        "offset": 1,
        "slot": "0",
        "type": "t_bool"
      },
      {
        "astId": 1447,
        "contract": "contracts/gardens/Garden.sol:GardenV21",
        "label": "__gap",
        "offset": 0,
        "slot": "1",
        "type": "t_array(t_uint256)50_storage"
      },
      {
        "astId": 571,
        "contract": "contracts/gardens/Garden.sol:GardenV21",
        "label": "_balances",
        "offset": 0,
        "slot": "51",
        "type": "t_mapping(t_address,t_uint256)"
      },
      {
        "astId": 577,
        "contract": "contracts/gardens/Garden.sol:GardenV21",
        "label": "_allowances",
        "offset": 0,
        "slot": "52",
        "type": "t_mapping(t_address,t_mapping(t_address,t_uint256))"
      },
      {
        "astId": 579,
        "contract": "contracts/gardens/Garden.sol:GardenV21",
        "label": "_totalSupply",
        "offset": 0,
        "slot": "53",
        "type": "t_uint256"
      },
      {
        "astId": 581,
        "contract": "contracts/gardens/Garden.sol:GardenV21",
        "label": "_name",
        "offset": 0,
        "slot": "54",
        "type": "t_string_storage"
      },
      {
        "astId": 583,
        "contract": "contracts/gardens/Garden.sol:GardenV21",
        "label": "_symbol",
        "offset": 0,
        "slot": "55",
        "type": "t_string_storage"
      },
      {
        "astId": 585,
        "contract": "contracts/gardens/Garden.sol:GardenV21",
        "label": "_decimals",
        "offset": 0,
        "slot": "56",
        "type": "t_uint8"
      },
      {
        "astId": 1080,
        "contract": "contracts/gardens/Garden.sol:GardenV21",
        "label": "__gap",
        "offset": 0,
        "slot": "57",
        "type": "t_array(t_uint256)44_storage"
      },
      {
        "astId": 6418,
        "contract": "contracts/gardens/Garden.sol:GardenV21",
        "label": "_status",
        "offset": 0,
        "slot": "101",
        "type": "t_uint256"
      },
      {
        "astId": 21796,
        "contract": "contracts/gardens/Garden.sol:GardenV21",
        "label": "reserveAsset",
        "offset": 0,
        "slot": "102",
        "type": "t_address"
      },
      {
        "astId": 21799,
        "contract": "contracts/gardens/Garden.sol:GardenV21",
        "label": "controller",
        "offset": 0,
        "slot": "103",
        "type": "t_contract(IBabController)43643"
      },
      {
        "astId": 21801,
        "contract": "contracts/gardens/Garden.sol:GardenV21",
        "label": "rewardsDistributor",
        "offset": 0,
        "slot": "104",
        "type": "t_contract(IRewardsDistributor)45861"
      },
      {
        "astId": 21804,
        "contract": "contracts/gardens/Garden.sol:GardenV21",
        "label": "creator",
        "offset": 0,
        "slot": "105",
        "type": "t_address"
      },
      {
        "astId": 21806,
        "contract": "contracts/gardens/Garden.sol:GardenV21",
        "label": "active",
        "offset": 20,
        "slot": "105",
        "type": "t_bool"
      },
      {
        "astId": 21809,
        "contract": "contracts/gardens/Garden.sol:GardenV21",
        "label": "privateGarden",
        "offset": 21,
        "slot": "105",
        "type": "t_bool"
      },
      {
        "astId": 21811,
        "contract": "contracts/gardens/Garden.sol:GardenV21",
        "label": "principal",
        "offset": 0,
        "slot": "106",
        "type": "t_uint256"
      },
      {
        "astId": 21814,
        "contract": "contracts/gardens/Garden.sol:GardenV21",
        "label": "reserveAssetRewardsSetAside",
        "offset": 0,
        "slot": "107",
        "type": "t_uint256"
      },
      {
        "astId": 21816,
        "contract": "contracts/gardens/Garden.sol:GardenV21",
        "label": "reserveAssetPrincipalWindow",
        "offset": 0,
        "slot": "108",
        "type": "t_uint256"
      },
      {
        "astId": 21819,
        "contract": "contracts/gardens/Garden.sol:GardenV21",
        "label": "absoluteReturns",
        "offset": 0,
        "slot": "109",
        "type": "t_int256"
      },
      {
        "astId": 21822,
        "contract": "contracts/gardens/Garden.sol:GardenV21",
        "label": "minLiquidityAsset",
        "offset": 0,
        "slot": "110",
        "type": "t_uint256"
      },
      {
        "astId": 21825,
        "contract": "contracts/gardens/Garden.sol:GardenV21",
        "label": "depositHardlock",
        "offset": 0,
        "slot": "111",
        "type": "t_uint256"
      },
      {
        "astId": 21827,
        "contract": "contracts/gardens/Garden.sol:GardenV21",
        "label": "withdrawalsOpenUntil",
        "offset": 0,
        "slot": "112",
        "type": "t_uint256"
      },
      {
        "astId": 21831,
        "contract": "contracts/gardens/Garden.sol:GardenV21",
        "label": "contributors",
        "offset": 0,
        "slot": "113",
        "type": "t_mapping(t_address,t_struct(Contributor)44621_storage)"
      },
      {
        "astId": 21834,
        "contract": "contracts/gardens/Garden.sol:GardenV21",
        "label": "totalContributors",
        "offset": 0,
        "slot": "114",
        "type": "t_uint256"
      },
      {
        "astId": 21836,
        "contract": "contracts/gardens/Garden.sol:GardenV21",
        "label": "maxContributors",
        "offset": 0,
        "slot": "115",
        "type": "t_uint256"
      },
      {
        "astId": 21839,
        "contract": "contracts/gardens/Garden.sol:GardenV21",
        "label": "maxDepositLimit",
        "offset": 0,
        "slot": "116",
        "type": "t_uint256"
      },
      {
        "astId": 21842,
        "contract": "contracts/gardens/Garden.sol:GardenV21",
        "label": "gardenInitializedAt",
        "offset": 0,
        "slot": "117",
        "type": "t_uint256"
      },
      {
        "astId": 21844,
        "contract": "contracts/gardens/Garden.sol:GardenV21",
        "label": "pid",
        "offset": 0,
        "slot": "118",
        "type": "t_uint256"
      },
      {
        "astId": 21847,
        "contract": "contracts/gardens/Garden.sol:GardenV21",
        "label": "minContribution",
        "offset": 0,
        "slot": "119",
        "type": "t_uint256"
      },
      {
        "astId": 21849,
        "contract": "contracts/gardens/Garden.sol:GardenV21",
        "label": "minGardenTokenSupply",
        "offset": 0,
        "slot": "120",
        "type": "t_uint256"
      },
      {
        "astId": 21852,
        "contract": "contracts/gardens/Garden.sol:GardenV21",
        "label": "totalStake",
        "offset": 0,
        "slot": "121",
        "type": "t_uint256"
      },
      {
        "astId": 21855,
        "contract": "contracts/gardens/Garden.sol:GardenV21",
        "label": "minVotesQuorum",
        "offset": 0,
        "slot": "122",
        "type": "t_uint256"
      },
      {
        "astId": 21858,
        "contract": "contracts/gardens/Garden.sol:GardenV21",
        "label": "minVoters",
        "offset": 0,
        "slot": "123",
        "type": "t_uint256"
      },
      {
        "astId": 21861,
        "contract": "contracts/gardens/Garden.sol:GardenV21",
        "label": "minStrategyDuration",
        "offset": 0,
        "slot": "124",
        "type": "t_uint256"
      },
      {
        "astId": 21864,
        "contract": "contracts/gardens/Garden.sol:GardenV21",
        "label": "maxStrategyDuration",
        "offset": 0,
        "slot": "125",
        "type": "t_uint256"
      },
      {
        "astId": 21867,
        "contract": "contracts/gardens/Garden.sol:GardenV21",
        "label": "strategyCooldownPeriod",
        "offset": 0,
        "slot": "126",
        "type": "t_uint256"
      },
      {
        "astId": 21870,
        "contract": "contracts/gardens/Garden.sol:GardenV21",
        "label": "strategies",
        "offset": 0,
        "slot": "127",
        "type": "t_array(t_address)dyn_storage"
      },
      {
        "astId": 21873,
        "contract": "contracts/gardens/Garden.sol:GardenV21",
        "label": "finalizedStrategies",
        "offset": 0,
        "slot": "128",
        "type": "t_array(t_address)dyn_storage"
      },
      {
        "astId": 21878,
        "contract": "contracts/gardens/Garden.sol:GardenV21",
        "label": "strategyMapping",
        "offset": 0,
        "slot": "129",
        "type": "t_mapping(t_address,t_bool)"
      },
      {
        "astId": 21883,
        "contract": "contracts/gardens/Garden.sol:GardenV21",
        "label": "isGardenStrategy",
        "offset": 0,
        "slot": "130",
        "type": "t_mapping(t_address,t_bool)"
      },
      {
        "astId": 21886,
        "contract": "contracts/gardens/Garden.sol:GardenV21",
        "label": "keeperDebt",
        "offset": 0,
        "slot": "131",
        "type": "t_uint256"
      },
      {
        "astId": 21889,
        "contract": "contracts/gardens/Garden.sol:GardenV21",
        "label": "totalKeeperFees",
        "offset": 0,
        "slot": "132",
        "type": "t_uint256"
      },
      {
        "astId": 21892,
        "contract": "contracts/gardens/Garden.sol:GardenV21",
        "label": "publicStrategists",
        "offset": 0,
        "slot": "133",
        "type": "t_bool"
      },
      {
        "astId": 21895,
        "contract": "contracts/gardens/Garden.sol:GardenV21",
        "label": "publicStewards",
        "offset": 1,
        "slot": "133",
        "type": "t_bool"
      },
      {
        "astId": 21900,
        "contract": "contracts/gardens/Garden.sol:GardenV21",
        "label": "extraCreators",
        "offset": 0,
        "slot": "134",
        "type": "t_array(t_address)4_storage"
      },
      {
        "astId": 21903,
        "contract": "contracts/gardens/Garden.sol:GardenV21",
        "label": "lastPricePerShare",
        "offset": 0,
        "slot": "138",
        "type": "t_uint256"
      },
      {
        "astId": 21906,
        "contract": "contracts/gardens/Garden.sol:GardenV21",
        "label": "lastPricePerShareTS",
        "offset": 0,
        "slot": "139",
        "type": "t_uint256"
      },
      {
        "astId": 21909,
        "contract": "contracts/gardens/Garden.sol:GardenV21",
        "label": "pricePerShareDecayRate",
        "offset": 0,
        "slot": "140",
        "type": "t_uint256"
      },
      {
        "astId": 21912,
        "contract": "contracts/gardens/Garden.sol:GardenV21",
        "label": "pricePerShareDelta",
        "offset": 0,
        "slot": "141",
        "type": "t_uint256"
      },
      {
        "astId": 21915,
        "contract": "contracts/gardens/Garden.sol:GardenV21",
        "label": "verifiedCategory",
        "offset": 0,
        "slot": "142",
        "type": "t_uint256"
      },
      {
        "astId": 21918,
        "contract": "contracts/gardens/Garden.sol:GardenV21",
        "label": "hardlockStartsAt",
        "offset": 0,
        "slot": "143",
        "type": "t_uint256"
      },
      {
        "astId": 21920,
        "contract": "contracts/gardens/Garden.sol:GardenV21",
        "label": "signer",
        "offset": 0,
        "slot": "144",
        "type": "t_address"
      },
      {
        "astId": 21923,
        "contract": "contracts/gardens/Garden.sol:GardenV21",
        "label": "canMintNftAfter",
        "offset": 0,
        "slot": "145",
        "type": "t_uint256"
      },
      {
        "astId": 21926,
        "contract": "contracts/gardens/Garden.sol:GardenV21",
        "label": "customIntegrationsEnabled",
        "offset": 0,
        "slot": "146",
        "type": "t_bool"
      }
    ],
    "types": {
      "t_address": {
        "encoding": "inplace",
        "label": "address",
        "numberOfBytes": "20"
      },
      "t_array(t_address)4_storage": {
        "base": "t_address",
        "encoding": "inplace",
        "label": "address[4]",
        "numberOfBytes": "128"
      },
      "t_array(t_address)dyn_storage": {
        "base": "t_address",
        "encoding": "dynamic_array",
        "label": "address[]",
        "numberOfBytes": "32"
      },
      "t_array(t_uint256)44_storage": {
        "base": "t_uint256",
        "encoding": "inplace",
        "label": "uint256[44]",
        "numberOfBytes": "1408"
      },
      "t_array(t_uint256)50_storage": {
        "base": "t_uint256",
        "encoding": "inplace",
        "label": "uint256[50]",
        "numberOfBytes": "1600"
      },
      "t_bool": {
        "encoding": "inplace",
        "label": "bool",
        "numberOfBytes": "1"
      },
      "t_contract(IBabController)43643": {
        "encoding": "inplace",
        "label": "contract IBabController",
        "numberOfBytes": "20"
      },
      "t_contract(IRewardsDistributor)45861": {
        "encoding": "inplace",
        "label": "contract IRewardsDistributor",
        "numberOfBytes": "20"
      },
      "t_int256": {
        "encoding": "inplace",
        "label": "int256",
        "numberOfBytes": "32"
      },
      "t_mapping(t_address,t_bool)": {
        "encoding": "mapping",
        "key": "t_address",
        "label": "mapping(address => bool)",
        "numberOfBytes": "32",
        "value": "t_bool"
      },
      "t_mapping(t_address,t_mapping(t_address,t_uint256))": {
        "encoding": "mapping",
        "key": "t_address",
        "label": "mapping(address => mapping(address => uint256))",
        "numberOfBytes": "32",
        "value": "t_mapping(t_address,t_uint256)"
      },
      "t_mapping(t_address,t_struct(Contributor)44621_storage)": {
        "encoding": "mapping",
        "key": "t_address",
        "label": "mapping(address => struct IGarden.Contributor)",
        "numberOfBytes": "32",
        "value": "t_struct(Contributor)44621_storage"
      },
      "t_mapping(t_address,t_uint256)": {
        "encoding": "mapping",
        "key": "t_address",
        "label": "mapping(address => uint256)",
        "numberOfBytes": "32",
        "value": "t_uint256"
      },
      "t_string_storage": {
        "encoding": "bytes",
        "label": "string",
        "numberOfBytes": "32"
      },
      "t_struct(Contributor)44621_storage": {
        "encoding": "inplace",
        "label": "struct IGarden.Contributor",
        "members": [
          {
            "astId": 44604,
            "contract": "contracts/gardens/Garden.sol:GardenV21",
            "label": "lastDepositAt",
            "offset": 0,
            "slot": "0",
            "type": "t_uint256"
          },
          {
            "astId": 44606,
            "contract": "contracts/gardens/Garden.sol:GardenV21",
            "label": "initialDepositAt",
            "offset": 0,
            "slot": "1",
            "type": "t_uint256"
          },
          {
            "astId": 44608,
            "contract": "contracts/gardens/Garden.sol:GardenV21",
            "label": "claimedAt",
            "offset": 0,
            "slot": "2",
            "type": "t_uint256"
          },
          {
            "astId": 44610,
            "contract": "contracts/gardens/Garden.sol:GardenV21",
            "label": "claimedBABL",
            "offset": 0,
            "slot": "3",
            "type": "t_uint256"
          },
          {
            "astId": 44612,
            "contract": "contracts/gardens/Garden.sol:GardenV21",
            "label": "claimedRewards",
            "offset": 0,
            "slot": "4",
            "type": "t_uint256"
          },
          {
            "astId": 44614,
            "contract": "contracts/gardens/Garden.sol:GardenV21",
            "label": "withdrawnSince",
            "offset": 0,
            "slot": "5",
            "type": "t_uint256"
          },
          {
            "astId": 44616,
            "contract": "contracts/gardens/Garden.sol:GardenV21",
            "label": "totalDeposits",
            "offset": 0,
            "slot": "6",
            "type": "t_uint256"
          },
          {
            "astId": 44618,
            "contract": "contracts/gardens/Garden.sol:GardenV21",
            "label": "nonce",
            "offset": 0,
            "slot": "7",
            "type": "t_uint256"
          },
          {
            "astId": 44620,
            "contract": "contracts/gardens/Garden.sol:GardenV21",
            "label": "lockedBalance",
            "offset": 0,
            "slot": "8",
            "type": "t_uint256"
          }
        ],
        "numberOfBytes": "288"
      },
      "t_uint256": {
        "encoding": "inplace",
        "label": "uint256",
        "numberOfBytes": "32"
      },
      "t_uint8": {
        "encoding": "inplace",
        "label": "uint8",
        "numberOfBytes": "1"
      }
    }
  }
}