{
  "address": "0x5950e7661a79a4eB4d476513C12C0A1A097aAb02",
  "abi": [
    {
      "anonymous": false,
      "inputs": [
        {
          "indexed": true,
          "internalType": "address",
          "name": "_strategy",
          "type": "address"
        },
        {
          "indexed": false,
          "internalType": "string",
          "name": "_name",
          "type": "string"
        },
        {
          "indexed": false,
          "internalType": "uint256",
          "name": "_expectedReturn",
          "type": "uint256"
        }
      ],
      "name": "AddStrategy",
      "type": "event"
    },
    {
      "anonymous": false,
      "inputs": [
        {
          "indexed": true,
          "internalType": "address",
          "name": "owner",
          "type": "address"
        },
        {
          "indexed": true,
          "internalType": "address",
          "name": "spender",
          "type": "address"
        },
        {
          "indexed": false,
          "internalType": "uint256",
          "name": "value",
          "type": "uint256"
        }
      ],
      "name": "Approval",
      "type": "event"
    },
    {
      "anonymous": false,
      "inputs": [
        {
          "indexed": true,
          "internalType": "address",
          "name": "_contributor",
          "type": "address"
        },
        {
          "indexed": false,
          "internalType": "uint256",
          "name": "_rewards",
          "type": "uint256"
        }
      ],
      "name": "BABLRewardsForContributor",
      "type": "event"
    },
    {
      "anonymous": false,
      "inputs": [
        {
          "indexed": true,
          "internalType": "address",
          "name": "_to",
          "type": "address"
        },
        {
          "indexed": false,
          "internalType": "uint256",
          "name": "minAmountOutShares",
          "type": "uint256"
        },
        {
          "indexed": false,
          "internalType": "uint256",
          "name": "reserveTokenQuantity",
          "type": "uint256"
        },
        {
          "indexed": false,
          "internalType": "uint256",
          "name": "timestamp",
          "type": "uint256"
        }
      ],
      "name": "GardenDeposit",
      "type": "event"
    },
    {
      "anonymous": false,
      "inputs": [
        {
          "indexed": true,
          "internalType": "address",
          "name": "_from",
          "type": "address"
        },
        {
          "indexed": true,
          "internalType": "address",
          "name": "_to",
          "type": "address"
        },
        {
          "indexed": false,
          "internalType": "uint256",
          "name": "reserveToken",
          "type": "uint256"
        },
        {
          "indexed": false,
          "internalType": "uint256",
          "name": "reserveTokenQuantity",
          "type": "uint256"
        },
        {
          "indexed": false,
          "internalType": "uint256",
          "name": "timestamp",
          "type": "uint256"
        }
      ],
      "name": "GardenWithdrawal",
      "type": "event"
    },
    {
      "anonymous": false,
      "inputs": [
        {
          "indexed": true,
          "internalType": "address",
          "name": "_contributor",
          "type": "address"
        },
        {
          "indexed": true,
          "internalType": "uint256",
          "name": "_amount",
          "type": "uint256"
        }
      ],
      "name": "RewardsForContributor",
      "type": "event"
    },
    {
      "anonymous": false,
      "inputs": [
        {
          "indexed": true,
          "internalType": "address",
          "name": "from",
          "type": "address"
        },
        {
          "indexed": true,
          "internalType": "address",
          "name": "to",
          "type": "address"
        },
        {
          "indexed": false,
          "internalType": "uint256",
          "name": "value",
          "type": "uint256"
        }
      ],
      "name": "Transfer",
      "type": "event"
    },
    {
      "inputs": [],
      "name": "absoluteReturns",
      "outputs": [
        {
          "internalType": "int256",
          "name": "",
          "type": "int256"
        }
      ],
      "stateMutability": "view",
      "type": "function"
    },
    {
      "inputs": [],
      "name": "active",
      "outputs": [
        {
          "internalType": "bool",
          "name": "",
          "type": "bool"
        }
      ],
      "stateMutability": "view",
      "type": "function"
    },
    {
      "inputs": [
        {
          "internalType": "string",
          "name": "_name",
          "type": "string"
        },
        {
          "internalType": "string",
          "name": "_symbol",
          "type": "string"
        },
        {
          "internalType": "uint256[]",
          "name": "_stratParams",
          "type": "uint256[]"
        },
        {
          "internalType": "uint8[]",
          "name": "_opTypes",
          "type": "uint8[]"
        },
        {
          "internalType": "address[]",
          "name": "_opIntegrations",
          "type": "address[]"
        },
        {
          "internalType": "bytes",
          "name": "_opEncodedDatas",
          "type": "bytes"
        }
      ],
      "name": "addStrategy",
      "outputs": [],
      "stateMutability": "nonpayable",
      "type": "function"
    },
    {
      "inputs": [
        {
          "internalType": "uint256",
          "name": "_capital",
          "type": "uint256"
        }
      ],
      "name": "allocateCapitalToStrategy",
      "outputs": [],
      "stateMutability": "nonpayable",
      "type": "function"
    },
    {
      "inputs": [
        {
          "internalType": "address",
          "name": "owner",
          "type": "address"
        },
        {
          "internalType": "address",
          "name": "spender",
          "type": "address"
        }
      ],
      "name": "allowance",
      "outputs": [
        {
          "internalType": "uint256",
          "name": "",
          "type": "uint256"
        }
      ],
      "stateMutability": "view",
      "type": "function"
    },
    {
      "inputs": [
        {
          "internalType": "address",
          "name": "spender",
          "type": "address"
        },
        {
          "internalType": "uint256",
          "name": "amount",
          "type": "uint256"
        }
      ],
      "name": "approve",
      "outputs": [
        {
          "internalType": "bool",
          "name": "",
          "type": "bool"
        }
      ],
      "stateMutability": "nonpayable",
      "type": "function"
    },
    {
      "inputs": [
        {
          "internalType": "address",
          "name": "account",
          "type": "address"
        }
      ],
      "name": "balanceOf",
      "outputs": [
        {
          "internalType": "uint256",
          "name": "",
          "type": "uint256"
        }
      ],
      "stateMutability": "view",
      "type": "function"
    },
    {
      "inputs": [
        {
          "internalType": "address",
          "name": "_strategist",
          "type": "address"
        },
        {
          "internalType": "uint256",
          "name": "_amount",
          "type": "uint256"
        }
      ],
      "name": "burnStrategistStake",
      "outputs": [],
      "stateMutability": "nonpayable",
      "type": "function"
    },
    {
      "inputs": [
        {
          "internalType": "address[]",
          "name": "_finalizedStrategies",
          "type": "address[]"
        }
      ],
      "name": "claimReturns",
      "outputs": [],
      "stateMutability": "nonpayable",
      "type": "function"
    },
    {
      "inputs": [],
      "name": "controller",
      "outputs": [
        {
          "internalType": "address",
          "name": "",
          "type": "address"
        }
      ],
      "stateMutability": "view",
      "type": "function"
    },
    {
      "inputs": [],
      "name": "creator",
      "outputs": [
        {
          "internalType": "address",
          "name": "",
          "type": "address"
        }
      ],
      "stateMutability": "view",
      "type": "function"
    },
    {
      "inputs": [],
      "name": "decimals",
      "outputs": [
        {
          "internalType": "uint8",
          "name": "",
          "type": "uint8"
        }
      ],
      "stateMutability": "view",
      "type": "function"
    },
    {
      "inputs": [
        {
          "internalType": "address",
          "name": "spender",
          "type": "address"
        },
        {
          "internalType": "uint256",
          "name": "subtractedValue",
          "type": "uint256"
        }
      ],
      "name": "decreaseAllowance",
      "outputs": [
        {
          "internalType": "bool",
          "name": "",
          "type": "bool"
        }
      ],
      "stateMutability": "nonpayable",
      "type": "function"
    },
    {
      "inputs": [
        {
          "internalType": "uint256",
          "name": "_amountIn",
          "type": "uint256"
        },
        {
          "internalType": "uint256",
          "name": "_minAmountOut",
          "type": "uint256"
        },
        {
          "internalType": "address",
          "name": "_to",
          "type": "address"
        },
        {
          "internalType": "bool",
          "name": "_mintNft",
          "type": "bool"
        }
      ],
      "name": "deposit",
      "outputs": [],
      "stateMutability": "payable",
      "type": "function"
    },
    {
      "inputs": [
        {
          "internalType": "uint256",
          "name": "_amountIn",
          "type": "uint256"
        },
        {
          "internalType": "uint256",
          "name": "_minAmountOut",
          "type": "uint256"
        },
        {
          "internalType": "bool",
          "name": "_mintNft",
          "type": "bool"
        },
        {
          "internalType": "uint256",
          "name": "_nonce",
          "type": "uint256"
        },
        {
          "internalType": "uint256",
          "name": "_pricePerShare",
          "type": "uint256"
        },
        {
          "internalType": "uint8",
          "name": "v",
          "type": "uint8"
        },
        {
          "internalType": "bytes32",
          "name": "r",
          "type": "bytes32"
        },
        {
          "internalType": "bytes32",
          "name": "s",
          "type": "bytes32"
        }
      ],
      "name": "depositBySig",
      "outputs": [],
      "stateMutability": "nonpayable",
      "type": "function"
    },
    {
      "inputs": [],
      "name": "depositHardlock",
      "outputs": [
        {
          "internalType": "uint256",
          "name": "",
          "type": "uint256"
        }
      ],
      "stateMutability": "view",
      "type": "function"
    },
    {
      "inputs": [
        {
          "internalType": "address",
          "name": "_strategy",
          "type": "address"
        }
      ],
      "name": "expireCandidateStrategy",
      "outputs": [],
      "stateMutability": "nonpayable",
      "type": "function"
    },
    {
      "inputs": [
        {
          "internalType": "uint256",
          "name": "_rewards",
          "type": "uint256"
        },
        {
          "internalType": "int256",
          "name": "_returns",
          "type": "int256"
        }
      ],
      "name": "finalizeStrategy",
      "outputs": [],
      "stateMutability": "nonpayable",
      "type": "function"
    },
    {
      "inputs": [],
      "name": "gardenInitializedAt",
      "outputs": [
        {
          "internalType": "uint256",
          "name": "",
          "type": "uint256"
        }
      ],
      "stateMutability": "view",
      "type": "function"
    },
    {
      "inputs": [
        {
          "internalType": "address",
          "name": "_contributor",
          "type": "address"
        }
      ],
      "name": "getContributor",
      "outputs": [
        {
          "internalType": "uint256",
          "name": "",
          "type": "uint256"
        },
        {
          "internalType": "uint256",
          "name": "",
          "type": "uint256"
        },
        {
          "internalType": "uint256",
          "name": "",
          "type": "uint256"
        },
        {
          "internalType": "uint256",
          "name": "",
          "type": "uint256"
        },
        {
          "internalType": "uint256",
          "name": "",
          "type": "uint256"
        },
        {
          "internalType": "uint256",
          "name": "",
          "type": "uint256"
        },
        {
          "internalType": "uint256",
          "name": "",
          "type": "uint256"
        },
        {
          "internalType": "uint256",
          "name": "",
          "type": "uint256"
        },
        {
          "internalType": "uint256",
          "name": "",
          "type": "uint256"
        },
        {
          "internalType": "uint256",
          "name": "",
          "type": "uint256"
        }
      ],
      "stateMutability": "view",
      "type": "function"
    },
    {
      "inputs": [],
      "name": "getFinalizedStrategies",
      "outputs": [
        {
          "internalType": "address[]",
          "name": "",
          "type": "address[]"
        }
      ],
      "stateMutability": "view",
      "type": "function"
    },
    {
      "inputs": [
        {
          "internalType": "address",
          "name": "_contributor",
          "type": "address"
        }
      ],
      "name": "getLockedBalance",
      "outputs": [
        {
          "internalType": "uint256",
          "name": "",
          "type": "uint256"
        }
      ],
      "stateMutability": "view",
      "type": "function"
    },
    {
      "inputs": [],
      "name": "getStrategies",
      "outputs": [
        {
          "internalType": "address[]",
          "name": "",
          "type": "address[]"
        }
      ],
      "stateMutability": "view",
      "type": "function"
    },
    {
      "inputs": [
        {
          "internalType": "address",
          "name": "spender",
          "type": "address"
        },
        {
          "internalType": "uint256",
          "name": "addedValue",
          "type": "uint256"
        }
      ],
      "name": "increaseAllowance",
      "outputs": [
        {
          "internalType": "bool",
          "name": "",
          "type": "bool"
        }
      ],
      "stateMutability": "nonpayable",
      "type": "function"
    },
    {
      "inputs": [
        {
          "internalType": "address",
          "name": "_reserveAsset",
          "type": "address"
        },
        {
          "internalType": "address",
          "name": "_controller",
          "type": "address"
        },
        {
          "internalType": "address",
          "name": "_creator",
          "type": "address"
        },
        {
          "internalType": "string",
          "name": "_name",
          "type": "string"
        },
        {
          "internalType": "string",
          "name": "_symbol",
          "type": "string"
        },
        {
          "internalType": "uint256[]",
          "name": "_gardenParams",
          "type": "uint256[]"
        },
        {
          "internalType": "uint256",
          "name": "_initialContribution",
          "type": "uint256"
        },
        {
          "internalType": "bool[]",
          "name": "_publicGardenStrategistsStewards",
          "type": "bool[]"
        }
      ],
      "name": "initialize",
      "outputs": [],
      "stateMutability": "payable",
      "type": "function"
    },
    {
      "inputs": [
        {
          "internalType": "address",
          "name": "",
          "type": "address"
        }
      ],
      "name": "isGardenStrategy",
      "outputs": [
        {
          "internalType": "bool",
          "name": "",
          "type": "bool"
        }
      ],
      "stateMutability": "view",
      "type": "function"
    },
    {
      "inputs": [],
      "name": "keeperDebt",
      "outputs": [
        {
          "internalType": "uint256",
          "name": "",
          "type": "uint256"
        }
      ],
      "stateMutability": "view",
      "type": "function"
    },
    {
      "inputs": [],
      "name": "makeGardenPublic",
      "outputs": [],
      "stateMutability": "nonpayable",
      "type": "function"
    },
    {
      "inputs": [],
      "name": "maxContributors",
      "outputs": [
        {
          "internalType": "uint256",
          "name": "",
          "type": "uint256"
        }
      ],
      "stateMutability": "view",
      "type": "function"
    },
    {
      "inputs": [],
      "name": "maxDepositLimit",
      "outputs": [
        {
          "internalType": "uint256",
          "name": "",
          "type": "uint256"
        }
      ],
      "stateMutability": "view",
      "type": "function"
    },
    {
      "inputs": [],
      "name": "maxStrategyDuration",
      "outputs": [
        {
          "internalType": "uint256",
          "name": "",
          "type": "uint256"
        }
      ],
      "stateMutability": "view",
      "type": "function"
    },
    {
      "inputs": [],
      "name": "minContribution",
      "outputs": [
        {
          "internalType": "uint256",
          "name": "",
          "type": "uint256"
        }
      ],
      "stateMutability": "view",
      "type": "function"
    },
    {
      "inputs": [],
      "name": "minLiquidityAsset",
      "outputs": [
        {
          "internalType": "uint256",
          "name": "",
          "type": "uint256"
        }
      ],
      "stateMutability": "view",
      "type": "function"
    },
    {
      "inputs": [],
      "name": "minStrategyDuration",
      "outputs": [
        {
          "internalType": "uint256",
          "name": "",
          "type": "uint256"
        }
      ],
      "stateMutability": "view",
      "type": "function"
    },
    {
      "inputs": [],
      "name": "minVoters",
      "outputs": [
        {
          "internalType": "uint256",
          "name": "",
          "type": "uint256"
        }
      ],
      "stateMutability": "view",
      "type": "function"
    },
    {
      "inputs": [],
      "name": "minVotesQuorum",
      "outputs": [
        {
          "internalType": "uint256",
          "name": "",
          "type": "uint256"
        }
      ],
      "stateMutability": "view",
      "type": "function"
    },
    {
      "inputs": [],
      "name": "name",
      "outputs": [
        {
          "internalType": "string",
          "name": "",
          "type": "string"
        }
      ],
      "stateMutability": "view",
      "type": "function"
    },
    {
      "inputs": [
        {
          "internalType": "address payable",
          "name": "_keeper",
          "type": "address"
        },
        {
          "internalType": "uint256",
          "name": "_fee",
          "type": "uint256"
        }
      ],
      "name": "payKeeper",
      "outputs": [],
      "stateMutability": "nonpayable",
      "type": "function"
    },
    {
      "inputs": [],
      "name": "principal",
      "outputs": [
        {
          "internalType": "uint256",
          "name": "",
          "type": "uint256"
        }
      ],
      "stateMutability": "view",
      "type": "function"
    },
    {
      "inputs": [],
      "name": "privateGarden",
      "outputs": [
        {
          "internalType": "bool",
          "name": "",
          "type": "bool"
        }
      ],
      "stateMutability": "view",
      "type": "function"
    },
    {
      "inputs": [],
      "name": "publicStewards",
      "outputs": [
        {
          "internalType": "bool",
          "name": "",
          "type": "bool"
        }
      ],
      "stateMutability": "view",
      "type": "function"
    },
    {
      "inputs": [],
      "name": "publicStrategists",
      "outputs": [
        {
          "internalType": "bool",
          "name": "",
          "type": "bool"
        }
      ],
      "stateMutability": "view",
      "type": "function"
    },
    {
      "inputs": [],
      "name": "reserveAsset",
      "outputs": [
        {
          "internalType": "address",
          "name": "",
          "type": "address"
        }
      ],
      "stateMutability": "view",
      "type": "function"
    },
    {
      "inputs": [],
      "name": "reserveAssetRewardsSetAside",
      "outputs": [
        {
          "internalType": "uint256",
          "name": "",
          "type": "uint256"
        }
      ],
      "stateMutability": "view",
      "type": "function"
    },
    {
      "inputs": [
        {
          "internalType": "bool",
          "name": "_newValue",
          "type": "bool"
        }
      ],
      "name": "setActive",
      "outputs": [],
      "stateMutability": "nonpayable",
      "type": "function"
    },
    {
      "inputs": [
        {
          "internalType": "bool",
          "name": "_publicStrategists",
          "type": "bool"
        },
        {
          "internalType": "bool",
          "name": "_publicStewards",
          "type": "bool"
        }
      ],
      "name": "setPublicRights",
      "outputs": [],
      "stateMutability": "nonpayable",
      "type": "function"
    },
    {
      "inputs": [],
      "name": "strategyCooldownPeriod",
      "outputs": [
        {
          "internalType": "uint256",
          "name": "",
          "type": "uint256"
        }
      ],
      "stateMutability": "view",
      "type": "function"
    },
    {
      "inputs": [
        {
          "internalType": "address",
          "name": "",
          "type": "address"
        }
      ],
      "name": "strategyMapping",
      "outputs": [
        {
          "internalType": "bool",
          "name": "",
          "type": "bool"
        }
      ],
      "stateMutability": "view",
      "type": "function"
    },
    {
      "inputs": [],
      "name": "symbol",
      "outputs": [
        {
          "internalType": "string",
          "name": "",
          "type": "string"
        }
      ],
      "stateMutability": "view",
      "type": "function"
    },
    {
      "inputs": [],
      "name": "totalContributors",
      "outputs": [
        {
          "internalType": "uint256",
          "name": "",
          "type": "uint256"
        }
      ],
      "stateMutability": "view",
      "type": "function"
    },
    {
      "inputs": [],
      "name": "totalKeeperFees",
      "outputs": [
        {
          "internalType": "uint256",
          "name": "",
          "type": "uint256"
        }
      ],
      "stateMutability": "view",
      "type": "function"
    },
    {
      "inputs": [],
      "name": "totalStake",
      "outputs": [
        {
          "internalType": "uint256",
          "name": "",
          "type": "uint256"
        }
      ],
      "stateMutability": "view",
      "type": "function"
    },
    {
      "inputs": [],
      "name": "totalSupply",
      "outputs": [
        {
          "internalType": "uint256",
          "name": "",
          "type": "uint256"
        }
      ],
      "stateMutability": "view",
      "type": "function"
    },
    {
      "inputs": [
        {
          "internalType": "address",
          "name": "recipient",
          "type": "address"
        },
        {
          "internalType": "uint256",
          "name": "amount",
          "type": "uint256"
        }
      ],
      "name": "transfer",
      "outputs": [
        {
          "internalType": "bool",
          "name": "",
          "type": "bool"
        }
      ],
      "stateMutability": "nonpayable",
      "type": "function"
    },
    {
      "inputs": [
        {
          "internalType": "address",
          "name": "sender",
          "type": "address"
        },
        {
          "internalType": "address",
          "name": "recipient",
          "type": "address"
        },
        {
          "internalType": "uint256",
          "name": "amount",
          "type": "uint256"
        }
      ],
      "name": "transferFrom",
      "outputs": [
        {
          "internalType": "bool",
          "name": "",
          "type": "bool"
        }
      ],
      "stateMutability": "nonpayable",
      "type": "function"
    },
    {
      "inputs": [
        {
          "internalType": "uint256",
          "name": "_amountIn",
          "type": "uint256"
        },
        {
          "internalType": "uint256",
          "name": "_minAmountOut",
          "type": "uint256"
        },
        {
          "internalType": "address payable",
          "name": "_to",
          "type": "address"
        },
        {
          "internalType": "bool",
          "name": "_withPenalty",
          "type": "bool"
        },
        {
          "internalType": "address",
          "name": "_unwindStrategy",
          "type": "address"
        }
      ],
      "name": "withdraw",
      "outputs": [],
      "stateMutability": "nonpayable",
      "type": "function"
    },
    {
      "inputs": [
        {
          "internalType": "uint256",
          "name": "_amountIn",
          "type": "uint256"
        },
        {
          "internalType": "uint256",
          "name": "_minAmountOut",
          "type": "uint256"
        },
        {
          "internalType": "uint256",
          "name": "_nonce",
          "type": "uint256"
        },
        {
          "internalType": "uint256",
          "name": "_pricePerShare",
          "type": "uint256"
        },
        {
          "internalType": "uint8",
          "name": "v",
          "type": "uint8"
        },
        {
          "internalType": "bytes32",
          "name": "r",
          "type": "bytes32"
        },
        {
          "internalType": "bytes32",
          "name": "s",
          "type": "bytes32"
        }
      ],
      "name": "withdrawBySig",
      "outputs": [],
      "stateMutability": "nonpayable",
      "type": "function"
    },
    {
      "stateMutability": "payable",
      "type": "receive"
    }
  ],
  "transactionHash": "0x8edbc4491a821601a9eadd220959072ec73caf0a62a7744808b721564bcae189",
  "args": [],
  "solcInputHash": "c1f525c5f5ec5d756d5e07b589917725",
  "bytecode": "0x608060405267016345785d8a0000607a5534801561001c57600080fd5b506001606555615dc780620000326000396000f3fe60806040526004361061037a5760003560e01c806386fa5063116101d1578063b2ce956e11610102578063cb12233b116100a0578063f251fc8c1161006f578063f251fc8c1461115e578063f77c479114611173578063f828162614611188578063f85cb5c81461119d57610381565b8063cb12233b1461106c578063daeffcca14611081578063db41afcf146110d2578063dd62ed3e1461112357610381565b8063b63c44e7116100dc578063b63c44e714610ffa578063b9e675391461100f578063ba5d307814611024578063c40868931461103957610381565b8063b2ce956e14610f4c578063b304b81514610f80578063b49a60bb14610fe557610381565b8063a06931f91161016f578063a9059cbb11610149578063a9059cbb14610e9f578063aaffadf314610ed8578063acec338a14610eed578063b2644e6614610f1957610381565b8063a06931f914610e3c578063a457c2d714610e51578063a63c643d14610e8a57610381565b80638bbde0fd116101ab5780638bbde0fd14610dc457806395cdbedb14610dd957806395d89b4114610dee5780639ab6374214610e0357610381565b806386fa506314610d4057806388d2875014610d555780638b0e9f3f14610daf57610381565b80633d8270f5116102ab5780635bb3cf291161024957806370a082311161022357806370a0823114610cce5780637550ed1814610d0157806377e7ff3c14610d16578063792e42e214610d2b57610381565b80635bb3cf2914610c4f57806360d442ca14610c7f578063695f3f5d14610c9457610381565b8063550c2b7f11610285578063550c2b7f1461077b578063580d55d5146107905780635a16656a146109b95780635a9e6daa146109ce57610381565b80633d8270f5146106b95780633deddb3f1461073c5780634422b0dc1461075157610381565b806323b872dd11610318578063313ce567116102f2578063313ce567146105a557806339509351146105d05780633a821925146106095780633ad8d04d1461063c57610381565b806323b872dd14610512578063297ce598146105555780632befcc5c1461056a57610381565b806306fdde031161035457806306fdde0314610413578063095ea7b31461049d5780631780998b146104d657806318160ddd146104eb57610381565b806302d05d3f1461038657806302fb0c5e146103b757806306061dfa146103e057610381565b3661038157005b600080fd5b34801561039257600080fd5b5061039b6111b2565b604080516001600160a01b039092168252519081900360200190f35b3480156103c357600080fd5b506103cc6111c1565b604080519115158252519081900360200190f35b3480156103ec57600080fd5b506103cc6004803603602081101561040357600080fd5b50356001600160a01b03166111d1565b34801561041f57600080fd5b506104286111e6565b6040805160208082528351818301528351919283929083019185019080838360005b8381101561046257818101518382015260200161044a565b50505050905090810190601f16801561048f5780820380516001836020036101000a031916815260200191505b509250505060405180910390f35b3480156104a957600080fd5b506103cc600480360360408110156104c057600080fd5b506001600160a01b03813516906020013561127c565b3480156104e257600080fd5b506103cc61129a565b3480156104f757600080fd5b506105006112a3565b60408051918252519081900360200190f35b34801561051e57600080fd5b506103cc6004803603606081101561053557600080fd5b506001600160a01b038135811691602081013590911690604001356112a9565b34801561056157600080fd5b50610500611331565b34801561057657600080fd5b506105a36004803603604081101561058d57600080fd5b506001600160a01b038135169060200135611337565b005b3480156105b157600080fd5b506105ba611368565b6040805160ff9092168252519081900360200190f35b3480156105dc57600080fd5b506103cc600480360360408110156105f357600080fd5b506001600160a01b038135169060200135611371565b34801561061557600080fd5b506103cc6004803603602081101561062c57600080fd5b50356001600160a01b03166113bf565b34801561064857600080fd5b506105a36004803603602081101561065f57600080fd5b81019060208101813564010000000081111561067a57600080fd5b82018360208201111561068c57600080fd5b803590602001918460208302840111640100000000831117156106ae57600080fd5b5090925090506113d4565b3480156106c557600080fd5b506106ec600480360360208110156106dc57600080fd5b50356001600160a01b0316611867565b604080519a8b5260208b0199909952898901979097526060890195909552608088019390935260a087019190915260c086015260e085015261010084015261012083015251908190036101400190f35b34801561074857600080fd5b506105006119be565b34801561075d57600080fd5b506105a36004803603602081101561077457600080fd5b50356119c4565b34801561078757600080fd5b506103cc611aa7565b6105a360048036036101008110156107a757600080fd5b6001600160a01b03823581169260208101358216926040820135909216918101906080810160608201356401000000008111156107e357600080fd5b8201836020820111156107f557600080fd5b8035906020019184600183028401116401000000008311171561081757600080fd5b91908080601f016020809104026020016040519081016040528093929190818152602001838380828437600092019190915250929594936020810193503591505064010000000081111561086a57600080fd5b82018360208201111561087c57600080fd5b8035906020019184600183028401116401000000008311171561089e57600080fd5b91908080601f01602080910402602001604051908101604052809392919081815260200183838082843760009201919091525092959493602081019350359150506401000000008111156108f157600080fd5b82018360208201111561090357600080fd5b8035906020019184602083028401116401000000008311171561092557600080fd5b9193909282359260408101906020013564010000000081111561094757600080fd5b82018360208201111561095957600080fd5b8035906020019184602083028401116401000000008311171561097b57600080fd5b919080806020026020016040519081016040528093929190818152602001838360200280828437600092019190915250929550611ab7945050505050565b3480156109c557600080fd5b50610500611fdc565b3480156109da57600080fd5b506105a3600480360360c08110156109f157600080fd5b810190602081018135640100000000811115610a0c57600080fd5b820183602082011115610a1e57600080fd5b80359060200191846001830284011164010000000083111715610a4057600080fd5b91908080601f0160208091040260200160405190810160405280939291908181526020018383808284376000920191909152509295949360208101935035915050640100000000811115610a9357600080fd5b820183602082011115610aa557600080fd5b80359060200191846001830284011164010000000083111715610ac757600080fd5b91908080601f0160208091040260200160405190810160405280939291908181526020018383808284376000920191909152509295949360208101935035915050640100000000811115610b1a57600080fd5b820183602082011115610b2c57600080fd5b80359060200191846020830284011164010000000083111715610b4e57600080fd5b919390929091602081019035640100000000811115610b6c57600080fd5b820183602082011115610b7e57600080fd5b80359060200191846020830284011164010000000083111715610ba057600080fd5b919390929091602081019035640100000000811115610bbe57600080fd5b820183602082011115610bd057600080fd5b80359060200191846020830284011164010000000083111715610bf257600080fd5b919390929091602081019035640100000000811115610c1057600080fd5b820183602082011115610c2257600080fd5b80359060200191846001830284011164010000000083111715610c4457600080fd5b509092509050611fe2565b348015610c5b57600080fd5b506105a360048036036040811015610c7257600080fd5b50803590602001356124e6565b348015610c8b57600080fd5b5061050061268c565b6105a360048036036080811015610caa57600080fd5b508035906020810135906001600160a01b0360408201351690606001351515612692565b348015610cda57600080fd5b5061050060048036036020811015610cf157600080fd5b50356001600160a01b03166128da565b348015610d0d57600080fd5b506105006128f5565b348015610d2257600080fd5b506103cc6128fb565b348015610d3757600080fd5b50610500612909565b348015610d4c57600080fd5b5061050061290f565b348015610d6157600080fd5b506105a36004803603610100811015610d7957600080fd5b50803590602081013590604081013515159060608101359060808101359060ff60a0820135169060c08101359060e00135612915565b348015610dbb57600080fd5b50610500612a56565b348015610dd057600080fd5b50610500612a5c565b348015610de557600080fd5b50610500612a62565b348015610dfa57600080fd5b50610428612a68565b348015610e0f57600080fd5b506105a360048036036040811015610e2657600080fd5b506001600160a01b038135169060200135612ac9565b348015610e4857600080fd5b50610500612d01565b348015610e5d57600080fd5b506103cc60048036036040811015610e7457600080fd5b506001600160a01b038135169060200135612d07565b348015610e9657600080fd5b50610500612d6f565b348015610eab57600080fd5b506103cc60048036036040811015610ec257600080fd5b506001600160a01b038135169060200135612d75565b348015610ee457600080fd5b50610500612d89565b348015610ef957600080fd5b506105a360048036036020811015610f1057600080fd5b50351515612d8f565b348015610f2557600080fd5b506105a360048036036020811015610f3c57600080fd5b50356001600160a01b0316612de6565b348015610f5857600080fd5b506105a360048036036040811015610f6f57600080fd5b508035151590602001351515612e8f565b348015610f8c57600080fd5b50610f95612ee4565b60408051602080825283518183015283519192839290830191858101910280838360005b83811015610fd1578181015183820152602001610fb9565b505050509050019250505060405180910390f35b348015610ff157600080fd5b50610f95612f45565b34801561100657600080fd5b50610500612fa5565b34801561101b57600080fd5b50610500612fab565b34801561103057600080fd5b50610500612fb1565b34801561104557600080fd5b506105006004803603602081101561105c57600080fd5b50356001600160a01b0316612fb7565b34801561107857600080fd5b5061050061310f565b34801561108d57600080fd5b506105a3600480360360a08110156110a457600080fd5b508035906020810135906001600160a01b036040820135811691606081013515159160809091013516613115565b3480156110de57600080fd5b506105a3600480360360e08110156110f557600080fd5b5080359060208101359060408101359060608101359060ff6080820135169060a08101359060c001356132ae565b34801561112f57600080fd5b506105006004803603604081101561114657600080fd5b506001600160a01b03813581169160200135166133e7565b34801561116a57600080fd5b50610500613412565b34801561117f57600080fd5b5061039b613418565b34801561119457600080fd5b506105a3613427565b3480156111a957600080fd5b5061039b6134e9565b6069546001600160a01b031681565b606954600160a01b900460ff1681565b60826020526000908152604090205460ff1681565b60368054604080516020601f60026000196101006001881615020190951694909404938401819004810282018101909252828152606093909290918301828280156112725780601f1061124757610100808354040283529160200191611272565b820191906000526020600020905b81548152906001019060200180831161125557829003601f168201915b5050505050905090565b60006112906112896134f8565b84846134fc565b5060015b92915050565b60855460ff1681565b60355490565b60006112b68484846135e8565b611326846112c26134f8565b61132185604051806060016040528060288152602001615cb1602891396001600160a01b038a166000908152603460205260408120906113006134f8565b6001600160a01b031681526020810191909152604001600020549190613745565b6134fc565b5060015b9392505050565b607d5481565b61133f6137dc565b611348826128da565b811061135a57611357826128da565b90505b61136482826137fc565b5050565b60385460ff1690565b600061129061137e6134f8565b84611321856034600061138f6134f8565b6001600160a01b03908116825260208083019390935260409182016000908120918c1681529252902054906138f8565b60816020526000908152604090205460ff1681565b6002606554141561142c576040805162461bcd60e51b815260206004820152601f60248201527f5265656e7472616e637947756172643a207265656e7472616e742063616c6c00604482015290519081900360640190fd5b6002606555611439613952565b6114416139eb565b3360009081526071602052604090206002810154611462904211600c6139fd565b60408051600780825261010082019092526000916020820160e08036833750506068546040517f69795e9300000000000000000000000000000000000000000000000000000000815230600482018181523360248401819052606060448501908152606485018b90529697506001600160a01b03909416956369795e9395509193928a928a9291608401846020850280828437600081840152601f19601f8201169050808301925050509550505050505060006040518083038186803b15801561152b57600080fd5b505afa15801561153f573d6000803e3d6000fd5b505050506040513d6000823e601f3d908101601f19168201604052602081101561156857600080fd5b810190808051604051939291908464010000000082111561158857600080fd5b90830190602082018581111561159d57600080fd5b82518660208202830111640100000000821117156115ba57600080fd5b82525081516020918201928201910280838360005b838110156115e75781810151838201526020016115cf565b50505050905001604052505050905061163760008260058151811061160857fe5b60200260200101511180611630575060008260068151811061162657fe5b6020026020010151115b60526139fd565b60008160068151811061164657fe5b602002602001015111156117275761167f8160068151811061166457fe5b60200260200101518360040154613a0b90919063ffffffff16565b82600401819055506116b08160068151811061169757fe5b6020026020010151606b54613a1b90919063ffffffff16565b606b5542600283015580516116db903390839060069081106116ce57fe5b6020026020010151613a2b565b806006815181106116e857fe5b6020026020010151336001600160a01b03167f4dacaff8a707e7b54321fbdedb3b65d1f3316b59787949c034bae8946d6ff4e160405160405180910390a35b60008160058151811061173657fe5b6020026020010151111561185c5761176f8160058151811061175457fe5b60200260200101518360030154613a0b90919063ffffffff16565b600383015542600283015560685481516001600160a01b039091169063a8d9a781903390849060059081106117a057fe5b60200260200101516040518363ffffffff1660e01b815260040180836001600160a01b0316815260200182815260200192505050600060405180830381600087803b1580156117ee57600080fd5b505af1158015611802573d6000803e3d6000fd5b50505050336001600160a01b03167f09703ae9c781fcf86e1d44c6d854c2684b3f5dcfe234dfc64f4d356d0e3cd73e8260058151811061183e57fe5b60200260200101516040518082815260200191505060405180910390a25b505060016065555050565b6001600160a01b038082166000818152607160209081526040808320606854600182015483517f7602bdde000000000000000000000000000000000000000000000000000000008152306004820152602481019790975260448701524260648701529151939586958695869586958695869586958695869593948694931692637602bdde9260848082019391829003018186803b15801561190757600080fd5b505afa15801561191b573d6000803e3d6000fd5b505050506040513d602081101561193157600080fd5b5051905060006119408e6128da565b9050600061194d8f612fb7565b905083600001548460010154856002015486600301548760040154886005015489600601541161197e576000611991565b600589015460068a015461199191613a1b565b87878a8c600701549d509d509d509d509d509d509d509d509d509d50505050509193959799509193959799565b607e5481565b6119cc6137dc565b6119d4613af3565b6000611a5a82606760009054906101000a90046001600160a01b03166001600160a01b031663313754776040518163ffffffff1660e01b815260040160206040518083038186803b158015611a2857600080fd5b505afa158015611a3c573d6000803e3d6000fd5b505050506040513d6020811015611a5257600080fd5b505190613b0b565b9050611a7a611a67613b29565b611a718484613a0b565b111560046139fd565b606654611a90906001600160a01b031682613bd9565b606654611364906001600160a01b03163384613c71565b606954600160a81b900460ff1681565b600054610100900460ff1680611ad05750611ad0613cf6565b80611ade575060005460ff16155b611b195760405162461bcd60e51b815260040180806020018281038252602e815260200180615c61602e913960400191505060405180910390fd5b600054610100900460ff16158015611b44576000805460ff1961ff0019909116610100171660011790555b611b536032885110604f6139fd565b611bf06001600160a01b03891615801590611b7657506001600160a01b038a1615155b8015611be9575060008b6001600160a01b031663313ce5676040518163ffffffff1660e01b815260040160206040518083038186803b158015611bb857600080fd5b505afa158015611bcc573d6000803e3d6000fd5b505050506040513d6020811015611be257600080fd5b505160ff16115b60176139fd565b611bfe600a8514604e6139fd565b611c81896001600160a01b031663f979cdd98c6040518263ffffffff1660e01b815260040180826001600160a01b0316815260200191505060206040518083038186803b158015611c4e57600080fd5b505afa158015611c62573d6000803e3d6000fd5b505050506040513d6020811015611c7857600080fd5b5051600e6139fd565b611c8b8787613d07565b606780546001600160a01b03808c166001600160a01b03199283161792839055606680548e8316908416179055606980548c8316931692909217909155604080517f3f2a554000000000000000000000000000000000000000000000000000000000815290519290911691633f2a554091600480820192602092909190829003018186803b158015611d1c57600080fd5b505afa158015611d30573d6000803e3d6000fd5b505050506040513d6020811015611d4657600080fd5b5051606880546001600160a01b0319166001600160a01b039283161790819055611d749116151560176139fd565b606760009054906101000a90046001600160a01b03166001600160a01b0316637f80e05b6040518163ffffffff1660e01b815260040160206040518083038186803b158015611dc257600080fd5b505afa158015611dd6573d6000803e3d6000fd5b505050506040513d6020811015611dec57600080fd5b50518015611e0b575081600081518110611e0257fe5b60200260200101515b611e16576001611e2d565b81600081518110611e2357fe5b6020026020010151155b6069805460ff60a81b1916600160a81b9215158302179081905560ff91900416158015611e6b575081600181518110611e6257fe5b60200260200101515b611e76576000611e79565b60015b6085805460ff191691151591909117905560695460ff600160a81b90910416158015611eb6575081600281518110611ead57fe5b60200260200101515b611ec1576000611ec4565b60015b608580549115156101000261ff0019909216919091179055611fab838686600081611eeb57fe5b9050602002013587876001818110611eff57fe5b9050602002013588886002818110611f1357fe5b9050602002013589896003818110611f2757fe5b905060200201358a8a6004818110611f3b57fe5b905060200201358b8b6005818110611f4f57fe5b905060200201358c8c6006818110611f6357fe5b905060200201358d8d6007818110611f7757fe5b905060200201358e8e6008818110611f8b57fe5b905060200201358f8f6009818110611f9f57fe5b90506020020135613dbc565b6069805460ff60a01b1916600160a01b1790558015611fd0576000805461ff00191690555b50505050505050505050565b607b5481565b611fea613952565b611ff2613af3565b611ffa6139eb565b600061200533614151565b9250505061201481601e6139fd565b607f5461202590601411601a6139fd565b61203360048914604d6139fd565b606754604080517f9ef3571000000000000000000000000000000000000000000000000000000000815290516000926001600160a01b031691639ef35710916004808301926020929190829003018186803b15801561209157600080fd5b505afa1580156120a5573d6000803e3d6000fd5b505050506040513d60208110156120bb57600080fd5b81019080805190602001909291905050506001600160a01b03166378afca3e8d8d33308f8f6040518763ffffffff1660e01b8152600401808060200180602001876001600160a01b03168152602001866001600160a01b031681526020018060200184810384528a818151815260200191508051906020019080838360005b8381101561215257818101518382015260200161213a565b50505050905090810190601f16801561217f5780820380516001836020036101000a031916815260200191505b5084810383528951815289516020918201918b019080838360005b838110156121b257818101518382015260200161219a565b50505050905090810190601f1680156121df5780820380516001836020036101000a031916815260200191505b508481038252868682818152602001925060200280828437600081840152601f19601f8201169050808301925050509950505050505050505050602060405180830381600087803b15801561223357600080fd5b505af1158015612247573d6000803e3d6000fd5b505050506040513d602081101561225d57600080fd5b50516001600160a01b0381166000908152608160205260409020805460ff191660019081179091559091506122b1908b908b9081811061229957fe5b90506020020135607954613a0b90919063ffffffff16565b607955607f80546001810182556000919091527f66925e85f1a4743fd8d60ba595ed74887b7caf321dd83b21e04d77c1153834080180546001600160a01b0319166001600160a01b0383169081179091556040517fecbc2cda000000000000000000000000000000000000000000000000000000008152606060048201908152606482018a905263ecbc2cda918b918b918b918b918b918b918190602481019060448101906084018a60208b0280828437600083820152601f01601f19169091018581038452888152602090810191508990890280828437600083820152601f01601f191690910185810383528681526020019050868680828437600081840152601f19601f8201169050808301925050509950505050505050505050600060405180830381600087803b1580156123e857600080fd5b505af11580156123fc573d6000803e3d6000fd5b5050506001600160a01b0382166000818152608260205260409020805460ff1916600117905590507f9e896c245c70d187fa97788cded4bca6b7546fa444cc7b0c111c57b592affa018d8c8c600381811061245357fe5b905060200201356040518080602001838152602001828103825284818151815260200191508051906020019080838360005b8381101561249d578181015183820152602001612485565b50505050905090810190601f1680156124ca5780820380516001836020036101000a031916815260200191505b50935050505060405180910390a2505050505050505050505050565b6124ee613952565b3360009081526081602052604090205461258d9060ff1680156125865750306001600160a01b0316336001600160a01b03166356ba88b86040518163ffffffff1660e01b815260040160206040518083038186803b15801561254f57600080fd5b505afa158015612563573d6000803e3d6000fd5b505050506040513d602081101561257957600080fd5b50516001600160a01b0316145b60146139fd565b606b5461259a9083613a0b565b606b55606d546125aa9082614455565b606d8190555061261d33607f80548060200260200160405190810160405280929190818152602001828054801561260a57602002820191906000526020600020905b81546001600160a01b031681526001909101906020018083116125ec575b50505050506144ba90919063ffffffff16565b805161263191607f91602090910190615a3a565b505060808054600181019091557f59f3fb058c6bba7a4e76396639fc4dd21bd59163db798899cf56cef48b3c9ec90180546001600160a01b031916339081179091556000908152608160205260409020805460ff1916905550565b60835481565b600260655414156126ea576040805162461bcd60e51b815260206004820152601f60248201527f5265656e7472616e637947756172643a207265656e7472616e742063616c6c00604482015290519081900360640190fd5b6002606555607f546000906127c4576127016112a3565b156127b5576127b06127116112a3565b606654604080517f313ce56700000000000000000000000000000000000000000000000000000000815290516127aa926001600160a01b03169163313ce567916004808301926020929190829003018186803b15801561277057600080fd5b505afa158015612784573d6000803e3d6000fd5b505050506040513d602081101561279a57600080fd5b505160ff16600a0a6127aa613b29565b90614537565b6127bd565b6127bd61454f565b90506128c0565b606760009054906101000a90046001600160a01b03166001600160a01b031663294d237c6040518163ffffffff1660e01b815260040160206040518083038186803b15801561281257600080fd5b505afa158015612826573d6000803e3d6000fd5b505050506040513d602081101561283c57600080fd5b505160665460408051635e0a3b9d60e11b81523060048201526001600160a01b0392831660248201529051919092169163bc14773a916044808301926020929190829003018186803b15801561289157600080fd5b505afa1580156128a5573d6000803e3d6000fd5b505050506040513d60208110156128bb57600080fd5b505190505b6128ce85858533868661455b565b50506001606555505050565b6001600160a01b031660009081526033602052604090205490565b606f5481565b608554610100900460ff1681565b606d5481565b60735481565b6002606554141561296d576040805162461bcd60e51b815260206004820152601f60248201527f5265656e7472616e637947756172643a207265656e7472616e742063616c6c00604482015290519081900360640190fd5b6002606555604080517f57b0789737c0cfb519c8fff6a093179b683bafbf56fc30409ab88b4f03b391c26020808301919091523082840152606082018b9052608082018a905288151560a083015260c08083018990528351808403909101815260e090920190925280519101206000906129e6906149bf565b905060006129f682868686614a10565b9050612a0e6001600160a01b038216151560586139fd565b6001600160a01b038116600090815260716020526040902060070154612a3790881460596139fd565b612a458a8a83848c8b61455b565b505060016065555050505050505050565b60795481565b607a5481565b607c5481565b60378054604080516020601f60026000196101006001881615020190951694909404938401819004810282018101909252828152606093909290918301828280156112725780601f1061124757610100808354040283529160200191611272565b612ad1613952565b612ad96137dc565b606754604080517f411137c30000000000000000000000000000000000000000000000000000000081526001600160a01b0385811660048301529151612b7793929092169163411137c391602480820192602092909190829003018186803b158015612b4457600080fd5b505afa158015612b58573d6000803e3d6000fd5b505050506040513d6020811015612b6e57600080fd5b505160126139fd565b6066546001600160a01b031673c02aaa39b223fe8d0a0e5c4f27ead9083c756cc21415612bb957612bb4670de0b6b3a764000082111560136139fd565b612c72565b6066546001600160a01b0316736b175474e89094c44da98b954eedeac495271d0f1415612bf757612bb4686c6b935b8bbd40000082111560136139fd565b6066546001600160a01b031673a0b86991c6218b36c1d19d4a2e9eb0ce3606eb481415612c3057612bb4637735940082111560136139fd565b6066546001600160a01b0316732260fac5e5542a773aa44fbcfedf7c193bc2c5991415612c6857612bb4624c4b4082111560136139fd565b612c726055614b8e565b608354612c7f9082613a0b565b608381905515801590612c9a57506000612c97613b29565b10155b15611364576000608354612cac613b29565b11612cbe57612cb9613b29565b612cc2565b6083545b606654909150612cdc906001600160a01b03168483613c71565b608454612ce99082613a0b565b608455608354612cf99082613a1b565b608355505050565b60845481565b6000611290612d146134f8565b8461132185604051806060016040528060258152602001615d6d6025913960346000612d3e6134f8565b6001600160a01b03908116825260208083019390935260409182016000908120918d16815292529020549190613745565b606e5481565b6000611290612d826134f8565b84846135e8565b60775481565b606754612da8906001600160a01b0316331460106139fd565b606954612dc89060ff600160a01b909104161515821515141560166139fd565b60698054911515600160a01b0260ff60a01b19909216919091179055565b612dee6137dc565b612e5981607f80548060200260200160405190810160405280929190818152602001828054801561260a576020028201919060005260206000209081546001600160a01b031681526001909101906020018083116125ec5750505050506144ba90919063ffffffff16565b8051612e6d91607f91602090910190615a3a565b506001600160a01b03166000908152608160205260409020805460ff19169055565b606954612ea8906001600160a01b0316331460116139fd565b606954612ec190600160a81b900460ff1615605a6139fd565b6085805460ff19169215159290921761ff00191661010091151591909102179055565b6060608080548060200260200160405190810160405280929190818152602001828054801561127257602002820191906000526020600020905b81546001600160a01b03168152600190910190602001808311612f1e575050505050905090565b6060607f805480602002602001604051908101604052809291908181526020018280548015611272576020028201919060005260206000209081546001600160a01b03168152600190910190602001808311612f1e575050505050905090565b60745481565b606b5481565b606a5481565b60008060005b607f548110156130f5576000607f8281548110612fd657fe5b60009182526020918290200154604080517f1fe4a68600000000000000000000000000000000000000000000000000000000815290516001600160a01b0390921693508392631fe4a68692600480840193829003018186803b15801561303b57600080fd5b505afa15801561304f573d6000803e3d6000fd5b505050506040513d602081101561306557600080fd5b50516001600160a01b03868116911614156130ec576130e9816001600160a01b0316633a4b66f16040518163ffffffff1660e01b815260040160206040518083038186803b1580156130b657600080fd5b505afa1580156130ca573d6000803e3d6000fd5b505050506040513d60208110156130e057600080fd5b50518490613a0b565b92505b50600101612fbd565b5080613100846128da565b10156112945761132a836128da565b60755481565b6002606554141561316d576040805162461bcd60e51b815260206004820152601f60248201527f5265656e7472616e637947756172643a207265656e7472616e742063616c6c00604482015290519081900360640190fd5b6002606555606754604080517f294d237c00000000000000000000000000000000000000000000000000000000815290516000926001600160a01b03169163294d237c916004808301926020929190829003018186803b1580156131d057600080fd5b505afa1580156131e4573d6000803e3d6000fd5b505050506040513d60208110156131fa57600080fd5b505160665460408051635e0a3b9d60e11b81523060048201526001600160a01b0392831660248201529051919092169163bc14773a916044808301926020929190829003018186803b15801561324f57600080fd5b505afa158015613263573d6000803e3d6000fd5b505050506040513d602081101561327957600080fd5b50519050613293336001600160a01b03861614600f6139fd565b6132a1868686868686614be1565b5050600160655550505050565b60026065541415613306576040805162461bcd60e51b815260206004820152601f60248201527f5265656e7472616e637947756172643a207265656e7472616e742063616c6c00604482015290519081900360640190fd5b6002606555604080517f0fc9f4e7c65020f4af4fe068f91f89ab749ed28a772ffc0dca3e1bb2d417ea9b6020808301919091523082840152606082018a90526080820189905260a08083018990528351808403909101815260c09092019092528051910120600090613377906149bf565b9050600061338782868686614a10565b905061339f6001600160a01b038216151560586139fd565b6001600160a01b0381166000908152607160205260409020600701546133c890881460596139fd565b6133d78989836000808b614be1565b5050600160655550505050505050565b6001600160a01b03918216600090815260346020908152604080832093909416825291909152205490565b60725481565b6067546001600160a01b031681565b606954613440906001600160a01b0316331460116139fd565b6069546134da90600160a81b900460ff1680156134d35750606760009054906101000a90046001600160a01b03166001600160a01b0316637f80e05b6040518163ffffffff1660e01b815260040160206040518083038186803b1580156134a657600080fd5b505afa1580156134ba573d6000803e3d6000fd5b505050506040513d60208110156134d057600080fd5b50515b60436139fd565b6069805460ff60a81b19169055565b6066546001600160a01b031681565b3390565b6001600160a01b0383166135415760405162461bcd60e51b8152600401808060200182810382526024815260200180615d1f6024913960400191505060405180910390fd5b6001600160a01b0382166135865760405162461bcd60e51b8152600401808060200182810382526022815260200180615b766022913960400191505060405180910390fd5b6001600160a01b03808416600081815260346020908152604080832094871680845294825291829020859055815185815291517f8c5be1e5ebec7d5bd14f71427d1e84f3dd0314c0f7b2291e5b200ac8c7c3b9259281900390910190a3505050565b6001600160a01b03831661362d5760405162461bcd60e51b8152600401808060200182810382526025815260200180615cfa6025913960400191505060405180910390fd5b6001600160a01b0382166136725760405162461bcd60e51b8152600401808060200182810382526023815260200180615b316023913960400191505060405180910390fd5b61367d838383614e46565b6136ba81604051806060016040528060268152602001615b98602691396001600160a01b0386166000908152603360205260409020549190613745565b6001600160a01b0380851660009081526033602052604080822093909355908416815220546136e990826138f8565b6001600160a01b0380841660008181526033602090815260409182902094909455805185815290519193928716927fddf252ad1be2c89b69c2b068fc378daa952ba7f163c4a11628f55a4df523b3ef92918290030190a3505050565b600081848411156137d45760405162461bcd60e51b81526004018080602001828103825283818151815260200191508051906020019080838360005b83811015613799578181015183820152602001613781565b50505050905090810190601f1680156137c65780820380516001836020036101000a031916815260200191505b509250505060405180910390fd5b505050900390565b336000908152608160205260409020546137fa9060ff1660146139fd565b565b6001600160a01b0382166138415760405162461bcd60e51b8152600401808060200182810382526021815260200180615cd96021913960400191505060405180910390fd5b61384d82600083614e46565b61388a81604051806060016040528060228152602001615b54602291396001600160a01b0385166000908152603360205260409020549190613745565b6001600160a01b0383166000908152603360205260409020556035546138b09082614f0e565b6035556040805182815290516000916001600160a01b038516917fddf252ad1be2c89b69c2b068fc378daa952ba7f163c4a11628f55a4df523b3ef9181900360200190a35050565b60008282018381101561132a576040805162461bcd60e51b815260206004820152601b60248201527f536166654d6174683a206164646974696f6e206f766572666c6f770000000000604482015290519081900360640190fd5b606754604080517f5b14f18300000000000000000000000000000000000000000000000000000000815230600482015290516137fa926001600160a01b031691635b14f183916024808301926020929190829003018186803b1580156139b757600080fd5b505afa1580156139cb573d6000803e3d6000fd5b505050506040513d60208110156139e157600080fd5b50511560536139fd565b6137fa60006139f9336128da565b11600f5b816113645761136481614b8e565b8082018281101561129457600080fd5b8082038281111561129457600080fd5b6066546001600160a01b031673c02aaa39b223fe8d0a0e5c4f27ead9083c756cc21415613adc5780471015613acd5773c02aaa39b223fe8d0a0e5c4f27ead9083c756cc2632e1a7d4d613a7e8347613a1b565b6040518263ffffffff1660e01b815260040180828152602001915050600060405180830381600087803b158015613ab457600080fd5b505af1158015613ac8573d6000803e3d6000fd5b505050505b613ad78282614f6b565b611364565b606654611364906001600160a01b03168383613c71565b6069546137fa90600160a01b900460ff1660156139fd565b600061132a670de0b6b3a7640000613b238585615050565b90615074565b606b54606654604080516370a0823160e01b815230600482015290516000938493613bb39391926001600160a01b03909116916370a08231916024808301926020929190829003018186803b158015613b8157600080fd5b505afa158015613b95573d6000803e3d6000fd5b505050506040513d6020811015613bab57600080fd5b505190613a1b565b90506083548111613bc5576000613bd3565b608354613bd3908290613a1b565b91505090565b606754604080517f61d027b30000000000000000000000000000000000000000000000000000000081529051611364926001600160a01b0316916361d027b3916004808301926020929190829003018186803b158015613c3857600080fd5b505afa158015613c4c573d6000803e3d6000fd5b505050506040513d6020811015613c6257600080fd5b50516001600160a01b03841690835b604080516001600160a01b038416602482015260448082018490528251808303909101815260649091019091526020810180517bffffffffffffffffffffffffffffffffffffffffffffffffffffffff167fa9059cbb00000000000000000000000000000000000000000000000000000000179052613cf19084906150db565b505050565b6000613d013061518c565b15905090565b600054610100900460ff1680613d205750613d20613cf6565b80613d2e575060005460ff16155b613d695760405162461bcd60e51b815260040180806020018281038252602e815260200180615c61602e913960400191505060405180910390fd5b600054610100900460ff16158015613d94576000805460ff1961ff0019909116610100171660011790555b613d9c615192565b613da68383615234565b8015613cf1576000805461ff0019169055505050565b613dd6600088118015613dcf5750878c10155b60016139fd565b606754606654604080517ff05017eb0000000000000000000000000000000000000000000000000000000081526001600160a01b0392831660048201529051613e7a93929092169163f05017eb91602480820192602092909190829003018186803b158015613e4457600080fd5b505afa158015613e58573d6000803e3d6000fd5b505050506040513d6020811015613e6e57600080fd5b50518a101560046139fd565b613ee38a8c11158015613edc57506066546001600160a01b031673c02aaa39b223fe8d0a0e5c4f27ead9083c756cc214613ebf576a084595161401484a000000613ecb565b69021e19e0c9bab24000005b6affffffffffffffffffffff168b11155b60006139fd565b613ef16000891160036139fd565b606754604080517f8e20fb07000000000000000000000000000000000000000000000000000000008152905161400b926001600160a01b031691638e20fb07916004808301926020929190829003018186803b158015613f5057600080fd5b505afa158015613f64573d6000803e3d6000fd5b505050506040513d6020811015613f7a57600080fd5b505187118015906140045750606760009054906101000a90046001600160a01b03166001600160a01b0316636b2fb6786040518163ffffffff1660e01b815260040160206040518083038186803b158015613fd457600080fd5b505afa158015613fe8573d6000803e3d6000fd5b505050506040513d6020811015613ffe57600080fd5b50518710155b60186139fd565b61403f67016345785d8a00008610158015614038575061403467016345785d8a00006005615050565b8611155b60196139fd565b61406c8484101580156140555750620151808510155b801561406557506302932e008411155b603f6139fd565b614087600183101580156140805750600a83105b60406139fd565b61411a6000821180156141135750606760009054906101000a90046001600160a01b03166001600160a01b0316637177fec96040518163ffffffff1660e01b815260040160206040518083038186803b1580156140e357600080fd5b505afa1580156140f7573d6000803e3d6000fd5b505050506040513d602081101561410d57600080fd5b50518211155b605b6139fd565b607355607795909555607e93909355607a91909155607b92909255607c91909155607d5560749290925542607555606e55606f5550565b600080600080606760009054906101000a90046001600160a01b03166001600160a01b031663c8ed947f6040518163ffffffff1660e01b815260040160206040518083038186803b1580156141a557600080fd5b505afa1580156141b9573d6000803e3d6000fd5b505050506040513d60208110156141cf57600080fd5b5051604080516370a0823160e01b81526001600160a01b038881166004830152915192935060009283928516916370a08231916024808301926020929190829003018186803b15801561422157600080fd5b505afa158015614235573d6000803e3d6000fd5b505050506040513d602081101561424b57600080fd5b5051604080517fc7ec5d5d0000000000000000000000000000000000000000000000000000000081523060048201526001600160a01b038a81166024830152915193909211935084169163c7ec5d5d91604480820192602092909190829003018186803b1580156142bb57600080fd5b505afa1580156142cf573d6000803e3d6000fd5b505050506040513d60208110156142e557600080fd5b50518061430457508080156143045750606954600160a81b900460ff16155b9450816001600160a01b0316634d98fbf030886040518363ffffffff1660e01b815260040180836001600160a01b03168152602001826001600160a01b031681526020019250505060206040518083038186803b15801561436457600080fd5b505afa158015614378573d6000803e3d6000fd5b505050506040513d602081101561438e57600080fd5b5051806143aa57508080156143aa5750608554610100900460ff165b9350816001600160a01b0316635066c71430886040518363ffffffff1660e01b815260040180836001600160a01b03168152602001826001600160a01b031681526020019250505060206040518083038186803b15801561440a57600080fd5b505afa15801561441e573d6000803e3d6000fd5b505050506040513d602081101561443457600080fd5b50518061444b575080801561444b575060855460ff165b9496939550505050565b600082820181831280159061446a5750838112155b8061447f575060008312801561447f57508381125b61132a5760405162461bcd60e51b8152600401808060200182810382526021815260200180615bbe6021913960400191505060405180910390fd5b60606000806144c9858561530c565b915091508061451f576040805162461bcd60e51b815260206004820152601560248201527f41646472657373206e6f7420696e2061727261792e0000000000000000000000604482015290519081900360640190fd5b600061452b8684615372565b50935061129492505050565b600061132a82613b2385670de0b6b3a7640000615050565b670de0b6b3a764000090565b614563613952565b61456b613af3565b600061457684614151565b5050905061459d818061459657506069546001600160a01b038781169116145b601d6139fd565b607454156145c9576145c96074546145c089606a54613a0b90919063ffffffff16565b111560006139fd565b6145db6073546072541115603d6139fd565b6145eb60775488101560016139fd565b606654604080516370a0823160e01b815230600482015290516000926001600160a01b0316916370a08231916024808301926020929190829003018186803b15801561463657600080fd5b505afa15801561464a573d6000803e3d6000fd5b505050506040513d602081101561466057600080fd5b50516066549091506001600160a01b031673c02aaa39b223fe8d0a0e5c4f27ead9083c756cc21480156146935750600034115b156147055773c02aaa39b223fe8d0a0e5c4f27ead9083c756cc26001600160a01b031663d0e30db0346040518263ffffffff1660e01b81526004016000604051808303818588803b1580156146e757600080fd5b505af11580156146fb573d6000803e3d6000fd5b505050505061471d565b60665461471d906001600160a01b031686308b6154d6565b606654604080516370a0823160e01b81523060048201529051614779928b926147719286926001600160a01b0316916370a08231916024808301926020929190829003018186803b158015613b8157600080fd5b1460056139fd565b6000614784876128da565b90506000614812606660009054906101000a90046001600160a01b03166001600160a01b031663313ce5676040518163ffffffff1660e01b815260040160206040518083038186803b1580156147d957600080fd5b505afa1580156147ed573d6000803e3d6000fd5b505050506040513d602081101561480357600080fd5b50518b9060ff16600a0a614537565b905060006148208287614537565b90506148308a82101560566139fd565b61483a8982615564565b61484589848d615656565b606a54614852908c613a0b565b606a55861561496757606760009054906101000a90046001600160a01b03166001600160a01b031663ead4c1cf6040518163ffffffff1660e01b815260040160206040518083038186803b1580156148a957600080fd5b505afa1580156148bd573d6000803e3d6000fd5b505050506040513d60208110156148d357600080fd5b5051604080517f45b497470000000000000000000000000000000000000000000000000000000081526001600160a01b038c81166004830152915191909216916345b497479160248083019260209291908290030181600087803b15801561493a57600080fd5b505af115801561494e573d6000803e3d6000fd5b505050506040513d602081101561496457600080fd5b50505b604080518b8152602081018d9052428183015290516001600160a01b038b16917f8d878fd0c5092c0e518d34fa1f3d23c8b3a1b2b7f86174bdba0ceaabf68b5a53919081900360600190a25050505050505050505050565b604080517f19457468657265756d205369676e6564204d6573736167653a0a333200000000602080830191909152603c8083019490945282518083039094018452605c909101909152815191012090565b60007f7fffffffffffffffffffffffffffffff5d576e7357a4501ddfe92f46681b20a0821115614a715760405162461bcd60e51b8152600401808060200182810382526022815260200180615c196022913960400191505060405180910390fd5b8360ff16601b1480614a8657508360ff16601c145b614ac15760405162461bcd60e51b8152600401808060200182810382526022815260200180615c8f6022913960400191505060405180910390fd5b600060018686868660405160008152602001604052604051808581526020018460ff1681526020018381526020018281526020019450505050506020604051602081039080840390855afa158015614b1d573d6000803e3d6000fd5b5050604051601f1901519150506001600160a01b038116614b85576040805162461bcd60e51b815260206004820152601860248201527f45434453413a20696e76616c6964207369676e61747572650000000000000000604482015290519081900360640190fd5b95945050505050565b62461bcd60e51b6000908152602060045260076024526642414223000030600a808404818106603090810160081b95839006959095019082900491820690940160101b939093010160c81b604452606490fd5b614be9613952565b614bf760006139f9866128da565b606f546001600160a01b038516600090815260716020526040902054614c2c9190614c23904290613a1b565b101560036139fd565b6000614c3785612fb7565b9050614c59614c4f82614c49886128da565b90613a1b565b88111560076139fd565b6000614c658884613b0b565b90506000614cf3606660009054906101000a90046001600160a01b03166001600160a01b031663313ce5676040518163ffffffff1660e01b815260040160206040518083038186803b158015614cba57600080fd5b505afa158015614cce573d6000803e3d6000fd5b505050506040513d6020811015614ce457600080fd5b5051839060ff16600a0a613b0b565b90508515614d9157614d16614d0f826658d15e17628000613b0b565b8290613a1b565b90506001600160a01b0385166342296724614d42614d3b8466b1a2bc2ec50000613b0b565b8490613a0b565b6040518263ffffffff1660e01b815260040180828152602001915050600060405180830381600087803b158015614d7857600080fd5b505af1158015614d8c573d6000803e3d6000fd5b505050505b614d9f8882101560566139fd565b614db481614dab613b29565b101560046139fd565b614dbe878a6137fc565b614dc88782613a2b565b614dd181615765565b614ddf8882101560086139fd565b606a54614dec9082613a1b565b606a5560408051828152602081018b9052428183015290516001600160a01b0389169182917f32a44bf15c44dad7691e20191a033527995d56d46ebe5115756d9e2eec16d3339181900360600190a3505050505050505050565b614e51838383613cf1565b613cf16001600160a01b0384161580614e7157506001600160a01b038316155b80614f075750606760009054906101000a90046001600160a01b03166001600160a01b031663393bfe496040518163ffffffff1660e01b815260040160206040518083038186803b158015614ec557600080fd5b505afa158015614ed9573d6000803e3d6000fd5b505050506040513d6020811015614eef57600080fd5b50518015614f075750606954600160a81b900460ff16155b603b6139fd565b600082821115614f65576040805162461bcd60e51b815260206004820152601e60248201527f536166654d6174683a207375627472616374696f6e206f766572666c6f770000604482015290519081900360640190fd5b50900390565b80471015614fc0576040805162461bcd60e51b815260206004820152601d60248201527f416464726573733a20696e73756666696369656e742062616c616e6365000000604482015290519081900360640190fd5b6040516000906001600160a01b0384169083908381818185875af1925050503d806000811461500b576040519150601f19603f3d011682016040523d82523d6000602084013e615010565b606091505b5050905080613cf15760405162461bcd60e51b815260040180806020018281038252603a815260200180615bdf603a913960400191505060405180910390fd5b600082158061506b5750508181028183828161506857fe5b04145b61129457600080fd5b60008082116150ca576040805162461bcd60e51b815260206004820152601a60248201527f536166654d6174683a206469766973696f6e206279207a65726f000000000000604482015290519081900360640190fd5b8183816150d357fe5b049392505050565b6000615130826040518060400160405280602081526020017f5361666545524332303a206c6f772d6c6576656c2063616c6c206661696c6564815250856001600160a01b03166158629092919063ffffffff16565b805190915015613cf15780806020019051602081101561514f57600080fd5b5051613cf15760405162461bcd60e51b815260040180806020018281038252602a815260200180615d43602a913960400191505060405180910390fd5b3b151590565b600054610100900460ff16806151ab57506151ab613cf6565b806151b9575060005460ff16155b6151f45760405162461bcd60e51b815260040180806020018281038252602e815260200180615c61602e913960400191505060405180910390fd5b600054610100900460ff1615801561521f576000805460ff1961ff0019909116610100171660011790555b8015615231576000805461ff00191690555b50565b600054610100900460ff168061524d575061524d613cf6565b8061525b575060005460ff16155b6152965760405162461bcd60e51b815260040180806020018281038252602e815260200180615c61602e913960400191505060405180910390fd5b600054610100900460ff161580156152c1576000805460ff1961ff0019909116610100171660011790555b82516152d4906036906020860190615a9f565b5081516152e8906037906020850190615a9f565b506038805460ff191660121790558015613cf1576000805461ff0019169055505050565b81516000908190815b8181101561535f57846001600160a01b031686828151811061533357fe5b60200260200101516001600160a01b031614156153575792506001915061536b9050565b600101615315565b50600019600092509250505b9250929050565b81516060906000908084106153ce576040805162461bcd60e51b815260206004820152601860248201527f496e646578206d757374206265203c2041206c656e6774680000000000000000604482015290519081900360640190fd5b60006001820367ffffffffffffffff811180156153ea57600080fd5b50604051908082528060200260200182016040528015615414578160200160208202803683370190505b50905060005b858110156154625786818151811061542e57fe5b602002602001015182828151811061544257fe5b6001600160a01b039092166020928302919091019091015260010161541a565b50600185015b828110156154b35786818151811061547c57fe5b602002602001015182600183038151811061549357fe5b6001600160a01b0390921660209283029190910190910152600101615468565b50808686815181106154c157fe5b60200260200101519350935050509250929050565b604080516001600160a01b0380861660248301528416604482015260648082018490528251808303909101815260849091019091526020810180517bffffffffffffffffffffffffffffffffffffffffffffffffffffffff167f23b872dd0000000000000000000000000000000000000000000000000000000017905261555e9085906150db565b50505050565b6001600160a01b0382166155bf576040805162461bcd60e51b815260206004820152601f60248201527f45524332303a206d696e7420746f20746865207a65726f206164647265737300604482015290519081900360640190fd5b6155cb60008383614e46565b6035546155d890826138f8565b6035556001600160a01b0382166000908152603360205260409020546155fe90826138f8565b6001600160a01b03831660008181526033602090815260408083209490945583518581529351929391927fddf252ad1be2c89b69c2b068fc378daa952ba7f163c4a11628f55a4df523b3ef9281900390910190a35050565b6001600160a01b038316600090815260716020526040902082158061567d57506001810154155b156156ab5761569360735460725410603d6139fd565b6072546156a1906001613a0b565b6072554260018201555b60068101546156ba9083613a0b565b600682015542815560078101805460019081019091556068546076546040805163bad67dd160e01b81523060048201526001600160a01b038981166024830152604482018990526064820195909552608481019290925251929091169163bad67dd19160a48082019260009290919082900301818387803b15801561573e57600080fd5b505af1158015615752573d6000803e3d6000fd5b5050607680546001019055505050505050565b3360008181526071602052604090209061577e906128da565b6157b257600080825560018083018290556005830182905560068301919091556072546157aa91613a1b565b6072556157c7565b60058101546157c19083613a0b565b60058201555b6068546076546040805163bad67dd160e01b815230600482015233602482015260006044820181905260648201819052608482019390935290516001600160a01b039093169263bad67dd19260a48084019391929182900301818387803b15801561583157600080fd5b505af1158015615845573d6000803e3d6000fd5b505050506007018054600190810190915560768054909101905550565b60606158718484600085615879565b949350505050565b6060824710156158ba5760405162461bcd60e51b8152600401808060200182810382526026815260200180615c3b6026913960400191505060405180910390fd5b6158c38561518c565b615914576040805162461bcd60e51b815260206004820152601d60248201527f416464726573733a2063616c6c20746f206e6f6e2d636f6e7472616374000000604482015290519081900360640190fd5b600080866001600160a01b031685876040518082805190602001908083835b602083106159525780518252601f199092019160209182019101615933565b6001836020036101000a03801982511681845116808217855250505050505090500191505060006040518083038185875af1925050503d80600081146159b4576040519150601f19603f3d011682016040523d82523d6000602084013e6159b9565b606091505b50915091506159c98282866159d4565b979650505050505050565b606083156159e357508161132a565b8251156159f35782518084602001fd5b60405162461bcd60e51b8152602060048201818152845160248401528451859391928392604401919085019080838360008315613799578181015183820152602001613781565b828054828255906000526020600020908101928215615a8f579160200282015b82811115615a8f57825182546001600160a01b0319166001600160a01b03909116178255602090920191600190910190615a5a565b50615a9b929150615b1b565b5090565b828054600181600116156101000203166002900490600052602060002090601f016020900481019282615ad55760008555615a8f565b82601f10615aee57805160ff1916838001178555615a8f565b82800160010185558215615a8f579182015b82811115615a8f578251825591602001919060010190615b00565b5b80821115615a9b5760008155600101615b1c56fe45524332303a207472616e7366657220746f20746865207a65726f206164647265737345524332303a206275726e20616d6f756e7420657863656564732062616c616e636545524332303a20617070726f766520746f20746865207a65726f206164647265737345524332303a207472616e7366657220616d6f756e7420657863656564732062616c616e63655369676e6564536166654d6174683a206164646974696f6e206f766572666c6f77416464726573733a20756e61626c6520746f2073656e642076616c75652c20726563697069656e74206d6179206861766520726576657274656445434453413a20696e76616c6964207369676e6174757265202773272076616c7565416464726573733a20696e73756666696369656e742062616c616e636520666f722063616c6c496e697469616c697a61626c653a20636f6e747261637420697320616c726561647920696e697469616c697a656445434453413a20696e76616c6964207369676e6174757265202776272076616c756545524332303a207472616e7366657220616d6f756e74206578636565647320616c6c6f77616e636545524332303a206275726e2066726f6d20746865207a65726f206164647265737345524332303a207472616e736665722066726f6d20746865207a65726f206164647265737345524332303a20617070726f76652066726f6d20746865207a65726f20616464726573735361666545524332303a204552433230206f7065726174696f6e20646964206e6f74207375636365656445524332303a2064656372656173656420616c6c6f77616e63652062656c6f77207a65726fa2646970667358221220320edbe26f389758f1436246f510d8d19cc1e733b09a2b1b5ef33b62726200fa64736f6c63430007060033",
  "devdoc": {
    "kind": "dev",
    "methods": {
      "addStrategy(string,string,uint256[],uint8[],address[],bytes)": {
        "params": {
          "_name": "Name of the strategy",
          "_opEncodedDatas": "Param for every operation in the strategy",
          "_opIntegrations": "Integration to use for every operation",
          "_opTypes": "Type for every operation in the strategy",
          "_stratParams": "Num params for the strategy",
          "_symbol": "Symbol of the strategy"
        }
      },
      "allocateCapitalToStrategy(uint256)": {
        "params": {
          "_capital": "Amount of capital to allocate to the strategy"
        }
      },
      "allowance(address,address)": {
        "details": "See {IERC20-allowance}."
      },
      "approve(address,uint256)": {
        "details": "See {IERC20-approve}. Requirements: - `spender` cannot be the zero address."
      },
      "balanceOf(address)": {
        "details": "See {IERC20-balanceOf}."
      },
      "decimals()": {
        "details": "Returns the number of decimals used to get its user representation. For example, if `decimals` equals `2`, a balance of `505` tokens should be displayed to a user as `5,05` (`505 / 10 ** 2`). Tokens usually opt for a value of 18, imitating the relationship between Ether and Wei. This is the value {ERC20} uses, unless {_setupDecimals} is called. NOTE: This information is only used for _display_ purposes: it in no way affects any of the arithmetic of the contract, including {IERC20-balanceOf} and {IERC20-transfer}."
      },
      "decreaseAllowance(address,uint256)": {
        "details": "Atomically decreases the allowance granted to `spender` by the caller. This is an alternative to {approve} that can be used as a mitigation for problems described in {IERC20-approve}. Emits an {Approval} event indicating the updated allowance. Requirements: - `spender` cannot be the zero address. - `spender` must have allowance for the caller of at least `subtractedValue`."
      },
      "deposit(uint256,uint256,address,bool)": {
        "details": "WARN: If the reserve asset is different than ETH the sender needs to   have approved the garden.   Efficient to use of strategies.length == 0, otherwise can consume a lot   of gas ~2kk. Use `depositBySig` for gas efficiency.",
        "params": {
          "_amountIn": "Amount of the reserve asset that is received from contributor",
          "_minAmountOut": "Min amount of Garden shares to receive by contributor",
          "_mintNft": "Whether to mint NFT or not",
          "_to": "Address to mint Garden shares to"
        }
      },
      "finalizeStrategy(uint256,int256)": {
        "params": {
          "_returns": "Profits or losses that the strategy received",
          "_rewards": "Amount of Reserve Asset to set aside forever"
        }
      },
      "getFinalizedStrategies()": {
        "returns": {
          "_0": "address[]        Returns list of addresses"
        }
      },
      "getLockedBalance(address)": {
        "params": {
          "_contributor": "Address of the account"
        },
        "returns": {
          "_0": "uint256                    Returns the amount of locked garden tokens for the account"
        }
      },
      "getStrategies()": {
        "returns": {
          "_0": "address[]        Returns list of addresses"
        }
      },
      "increaseAllowance(address,uint256)": {
        "details": "Atomically increases the allowance granted to `spender` by the caller. This is an alternative to {approve} that can be used as a mitigation for problems described in {IERC20-approve}. Emits an {Approval} event indicating the updated allowance. Requirements: - `spender` cannot be the zero address."
      },
      "initialize(address,address,address,string,string,uint256[],uint256,bool[])": {
        "params": {
          "_controller": "Address of the controller",
          "_creator": "Address of the creator",
          "_gardenParams": "Array of numeric garden params",
          "_initialContribution": "Initial Contribution by the Gardener",
          "_name": "Name of the Garden",
          "_publicGardenStrategistsStewards": "Public garden, public strategists rights and public stewards rights",
          "_reserveAsset": "Address of the reserve asset ERC20",
          "_symbol": "Symbol of the Garden"
        }
      },
      "name()": {
        "details": "Returns the name of the token."
      },
      "payKeeper(address,uint256)": {
        "details": "We assume that calling keeper functions should be less expensive than   1 million gas and the gas price should be lower than 1000 gwei.",
        "params": {
          "_fee": "The fee paid to keeper to compensate the gas cost",
          "_keeper": "Keeper that executed the transaction"
        }
      },
      "symbol()": {
        "details": "Returns the symbol of the token, usually a shorter version of the name."
      },
      "totalSupply()": {
        "details": "See {IERC20-totalSupply}."
      },
      "transfer(address,uint256)": {
        "details": "See {IERC20-transfer}. Requirements: - `recipient` cannot be the zero address. - the caller must have a balance of at least `amount`."
      },
      "transferFrom(address,address,uint256)": {
        "details": "See {IERC20-transferFrom}. Emits an {Approval} event indicating the updated allowance. This is not required by the EIP. See the note at the beginning of {ERC20}. Requirements: - `sender` and `recipient` cannot be the zero address. - `sender` must have a balance of at least `amount`. - the caller must have allowance for ``sender``'s tokens of at least `amount`."
      },
      "withdraw(uint256,uint256,address,bool,address)": {
        "details": "ATTENTION. Do not call withPenalty unless certain. If penalty is set,   it will be applied regardless of the garden state.   It is advised to first try to withdraw with no penalty and it this   reverts then try to with penalty.",
        "params": {
          "_amountIn": "Quantity of the garden token to withdrawal",
          "_minAmountOut": "Min quantity of reserve asset to receive",
          "_to": "Address to send component assets to",
          "_unwindStrategy": "Strategy to unwind",
          "_withPenalty": "Whether or not this is an immediate withdrawal"
        }
      }
    },
    "version": 1
  },
  "userdoc": {
    "kind": "user",
    "methods": {
      "addStrategy(string,string,uint256[],uint8[],address[],bytes)": {
        "notice": "Creates a new strategy calling the factory and adds it to the array"
      },
      "allocateCapitalToStrategy(uint256)": {
        "notice": "Allocates garden capital to an strategy"
      },
      "claimReturns(address[])": {
        "notice": "User can claim the rewards from the strategies that his principal was invested in."
      },
      "deposit(uint256,uint256,address,bool)": {
        "notice": "Deposits the _amountIn in reserve asset into the garden. Gurantee to   recieve at least _minAmountOut."
      },
      "finalizeStrategy(uint256,int256)": {
        "notice": "When strategy ends puts saves returns, rewards and marks strategy as  finalized."
      },
      "getFinalizedStrategies()": {
        "notice": "Gets finalized strategies"
      },
      "getLockedBalance(address)": {
        "notice": "Checks balance locked for strategists in active strategies"
      },
      "getStrategies()": {
        "notice": "Gets current strategies"
      },
      "initialize(address,address,address,string,string,uint256[],uint256,bool[])": {
        "notice": "When a new Garden is created. All parameter validations are on the BabController contract. Validations are performed already on the BabController. WARN: If the reserve Asset is different than WETH the gardener needs to have approved the controller."
      },
      "makeGardenPublic()": {
        "notice": "Makes a previously private garden public"
      },
      "payKeeper(address,uint256)": {
        "notice": "Pays gas costs back to the keeper from executing transactions   including the past debt"
      },
      "setActive(bool)": {
        "notice": "PRIVILEGED Manager, protocol FUNCTION. When a Garden is active, deposits are enabled."
      },
      "setPublicRights(bool,bool)": {
        "notice": "Gives the right to create strategies and/or voting power to garden users"
      },
      "withdraw(uint256,uint256,address,bool,address)": {
        "notice": "Withdraws the reserve asset relative to the token participation in the garden   and sends it back to the sender."
      }
    },
    "version": 1
  },
  "storageLayout": {
    "storage": [
      {
        "astId": 492,
        "contract": "contracts/gardens/Garden.sol:GardenV4",
        "label": "_initialized",
        "offset": 0,
        "slot": "0",
        "type": "t_bool"
      },
      {
        "astId": 495,
        "contract": "contracts/gardens/Garden.sol:GardenV4",
        "label": "_initializing",
        "offset": 1,
        "slot": "0",
        "type": "t_bool"
      },
      {
        "astId": 1447,
        "contract": "contracts/gardens/Garden.sol:GardenV4",
        "label": "__gap",
        "offset": 0,
        "slot": "1",
        "type": "t_array(t_uint256)50_storage"
      },
      {
        "astId": 571,
        "contract": "contracts/gardens/Garden.sol:GardenV4",
        "label": "_balances",
        "offset": 0,
        "slot": "51",
        "type": "t_mapping(t_address,t_uint256)"
      },
      {
        "astId": 577,
        "contract": "contracts/gardens/Garden.sol:GardenV4",
        "label": "_allowances",
        "offset": 0,
        "slot": "52",
        "type": "t_mapping(t_address,t_mapping(t_address,t_uint256))"
      },
      {
        "astId": 579,
        "contract": "contracts/gardens/Garden.sol:GardenV4",
        "label": "_totalSupply",
        "offset": 0,
        "slot": "53",
        "type": "t_uint256"
      },
      {
        "astId": 581,
        "contract": "contracts/gardens/Garden.sol:GardenV4",
        "label": "_name",
        "offset": 0,
        "slot": "54",
        "type": "t_string_storage"
      },
      {
        "astId": 583,
        "contract": "contracts/gardens/Garden.sol:GardenV4",
        "label": "_symbol",
        "offset": 0,
        "slot": "55",
        "type": "t_string_storage"
      },
      {
        "astId": 585,
        "contract": "contracts/gardens/Garden.sol:GardenV4",
        "label": "_decimals",
        "offset": 0,
        "slot": "56",
        "type": "t_uint8"
      },
      {
        "astId": 1080,
        "contract": "contracts/gardens/Garden.sol:GardenV4",
        "label": "__gap",
        "offset": 0,
        "slot": "57",
        "type": "t_array(t_uint256)44_storage"
      },
      {
        "astId": 6418,
        "contract": "contracts/gardens/Garden.sol:GardenV4",
        "label": "_status",
        "offset": 0,
        "slot": "101",
        "type": "t_uint256"
      },
      {
        "astId": 14614,
        "contract": "contracts/gardens/Garden.sol:GardenV4",
        "label": "reserveAsset",
        "offset": 0,
        "slot": "102",
        "type": "t_address"
      },
      {
        "astId": 14617,
        "contract": "contracts/gardens/Garden.sol:GardenV4",
        "label": "controller",
        "offset": 0,
        "slot": "103",
        "type": "t_address"
      },
      {
        "astId": 14619,
        "contract": "contracts/gardens/Garden.sol:GardenV4",
        "label": "rewardsDistributor",
        "offset": 0,
        "slot": "104",
        "type": "t_contract(IRewardsDistributor)29694"
      },
      {
        "astId": 14622,
        "contract": "contracts/gardens/Garden.sol:GardenV4",
        "label": "creator",
        "offset": 0,
        "slot": "105",
        "type": "t_address"
      },
      {
        "astId": 14625,
        "contract": "contracts/gardens/Garden.sol:GardenV4",
        "label": "active",
        "offset": 20,
        "slot": "105",
        "type": "t_bool"
      },
      {
        "astId": 14628,
        "contract": "contracts/gardens/Garden.sol:GardenV4",
        "label": "privateGarden",
        "offset": 21,
        "slot": "105",
        "type": "t_bool"
      },
      {
        "astId": 14631,
        "contract": "contracts/gardens/Garden.sol:GardenV4",
        "label": "principal",
        "offset": 0,
        "slot": "106",
        "type": "t_uint256"
      },
      {
        "astId": 14634,
        "contract": "contracts/gardens/Garden.sol:GardenV4",
        "label": "reserveAssetRewardsSetAside",
        "offset": 0,
        "slot": "107",
        "type": "t_uint256"
      },
      {
        "astId": 14636,
        "contract": "contracts/gardens/Garden.sol:GardenV4",
        "label": "reserveAssetPrincipalWindow",
        "offset": 0,
        "slot": "108",
        "type": "t_uint256"
      },
      {
        "astId": 14639,
        "contract": "contracts/gardens/Garden.sol:GardenV4",
        "label": "absoluteReturns",
        "offset": 0,
        "slot": "109",
        "type": "t_int256"
      },
      {
        "astId": 14642,
        "contract": "contracts/gardens/Garden.sol:GardenV4",
        "label": "minLiquidityAsset",
        "offset": 0,
        "slot": "110",
        "type": "t_uint256"
      },
      {
        "astId": 14645,
        "contract": "contracts/gardens/Garden.sol:GardenV4",
        "label": "depositHardlock",
        "offset": 0,
        "slot": "111",
        "type": "t_uint256"
      },
      {
        "astId": 14647,
        "contract": "contracts/gardens/Garden.sol:GardenV4",
        "label": "withdrawalsOpenUntil",
        "offset": 0,
        "slot": "112",
        "type": "t_uint256"
      },
      {
        "astId": 14651,
        "contract": "contracts/gardens/Garden.sol:GardenV4",
        "label": "contributors",
        "offset": 0,
        "slot": "113",
        "type": "t_mapping(t_address,t_struct(Contributor)14611_storage)"
      },
      {
        "astId": 14654,
        "contract": "contracts/gardens/Garden.sol:GardenV4",
        "label": "totalContributors",
        "offset": 0,
        "slot": "114",
        "type": "t_uint256"
      },
      {
        "astId": 14657,
        "contract": "contracts/gardens/Garden.sol:GardenV4",
        "label": "maxContributors",
        "offset": 0,
        "slot": "115",
        "type": "t_uint256"
      },
      {
        "astId": 14660,
        "contract": "contracts/gardens/Garden.sol:GardenV4",
        "label": "maxDepositLimit",
        "offset": 0,
        "slot": "116",
        "type": "t_uint256"
      },
      {
        "astId": 14663,
        "contract": "contracts/gardens/Garden.sol:GardenV4",
        "label": "gardenInitializedAt",
        "offset": 0,
        "slot": "117",
        "type": "t_uint256"
      },
      {
        "astId": 14665,
        "contract": "contracts/gardens/Garden.sol:GardenV4",
        "label": "pid",
        "offset": 0,
        "slot": "118",
        "type": "t_uint256"
      },
      {
        "astId": 14668,
        "contract": "contracts/gardens/Garden.sol:GardenV4",
        "label": "minContribution",
        "offset": 0,
        "slot": "119",
        "type": "t_uint256"
      },
      {
        "astId": 14670,
        "contract": "contracts/gardens/Garden.sol:GardenV4",
        "label": "minGardenTokenSupply",
        "offset": 0,
        "slot": "120",
        "type": "t_uint256"
      },
      {
        "astId": 14673,
        "contract": "contracts/gardens/Garden.sol:GardenV4",
        "label": "totalStake",
        "offset": 0,
        "slot": "121",
        "type": "t_uint256"
      },
      {
        "astId": 14677,
        "contract": "contracts/gardens/Garden.sol:GardenV4",
        "label": "minVotesQuorum",
        "offset": 0,
        "slot": "122",
        "type": "t_uint256"
      },
      {
        "astId": 14680,
        "contract": "contracts/gardens/Garden.sol:GardenV4",
        "label": "minVoters",
        "offset": 0,
        "slot": "123",
        "type": "t_uint256"
      },
      {
        "astId": 14683,
        "contract": "contracts/gardens/Garden.sol:GardenV4",
        "label": "minStrategyDuration",
        "offset": 0,
        "slot": "124",
        "type": "t_uint256"
      },
      {
        "astId": 14686,
        "contract": "contracts/gardens/Garden.sol:GardenV4",
        "label": "maxStrategyDuration",
        "offset": 0,
        "slot": "125",
        "type": "t_uint256"
      },
      {
        "astId": 14689,
        "contract": "contracts/gardens/Garden.sol:GardenV4",
        "label": "strategyCooldownPeriod",
        "offset": 0,
        "slot": "126",
        "type": "t_uint256"
      },
      {
        "astId": 14692,
        "contract": "contracts/gardens/Garden.sol:GardenV4",
        "label": "strategies",
        "offset": 0,
        "slot": "127",
        "type": "t_array(t_address)dyn_storage"
      },
      {
        "astId": 14695,
        "contract": "contracts/gardens/Garden.sol:GardenV4",
        "label": "finalizedStrategies",
        "offset": 0,
        "slot": "128",
        "type": "t_array(t_address)dyn_storage"
      },
      {
        "astId": 14700,
        "contract": "contracts/gardens/Garden.sol:GardenV4",
        "label": "strategyMapping",
        "offset": 0,
        "slot": "129",
        "type": "t_mapping(t_address,t_bool)"
      },
      {
        "astId": 14705,
        "contract": "contracts/gardens/Garden.sol:GardenV4",
        "label": "isGardenStrategy",
        "offset": 0,
        "slot": "130",
        "type": "t_mapping(t_address,t_bool)"
      },
      {
        "astId": 14708,
        "contract": "contracts/gardens/Garden.sol:GardenV4",
        "label": "keeperDebt",
        "offset": 0,
        "slot": "131",
        "type": "t_uint256"
      },
      {
        "astId": 14711,
        "contract": "contracts/gardens/Garden.sol:GardenV4",
        "label": "totalKeeperFees",
        "offset": 0,
        "slot": "132",
        "type": "t_uint256"
      },
      {
        "astId": 14714,
        "contract": "contracts/gardens/Garden.sol:GardenV4",
        "label": "publicStrategists",
        "offset": 0,
        "slot": "133",
        "type": "t_bool"
      },
      {
        "astId": 14717,
        "contract": "contracts/gardens/Garden.sol:GardenV4",
        "label": "publicStewards",
        "offset": 1,
        "slot": "133",
        "type": "t_bool"
      }
    ],
    "types": {
      "t_address": {
        "encoding": "inplace",
        "label": "address",
        "numberOfBytes": "20"
      },
      "t_array(t_address)dyn_storage": {
        "base": "t_address",
        "encoding": "dynamic_array",
        "label": "address[]",
        "numberOfBytes": "32"
      },
      "t_array(t_uint256)44_storage": {
        "base": "t_uint256",
        "encoding": "inplace",
        "label": "uint256[44]",
        "numberOfBytes": "1408"
      },
      "t_array(t_uint256)50_storage": {
        "base": "t_uint256",
        "encoding": "inplace",
        "label": "uint256[50]",
        "numberOfBytes": "1600"
      },
      "t_bool": {
        "encoding": "inplace",
        "label": "bool",
        "numberOfBytes": "1"
      },
      "t_contract(IRewardsDistributor)29694": {
        "encoding": "inplace",
        "label": "contract IRewardsDistributor",
        "numberOfBytes": "20"
      },
      "t_int256": {
        "encoding": "inplace",
        "label": "int256",
        "numberOfBytes": "32"
      },
      "t_mapping(t_address,t_bool)": {
        "encoding": "mapping",
        "key": "t_address",
        "label": "mapping(address => bool)",
        "numberOfBytes": "32",
        "value": "t_bool"
      },
      "t_mapping(t_address,t_mapping(t_address,t_uint256))": {
        "encoding": "mapping",
        "key": "t_address",
        "label": "mapping(address => mapping(address => uint256))",
        "numberOfBytes": "32",
        "value": "t_mapping(t_address,t_uint256)"
      },
      "t_mapping(t_address,t_struct(Contributor)14611_storage)": {
        "encoding": "mapping",
        "key": "t_address",
        "label": "mapping(address => struct Garden.Contributor)",
        "numberOfBytes": "32",
        "value": "t_struct(Contributor)14611_storage"
      },
      "t_mapping(t_address,t_uint256)": {
        "encoding": "mapping",
        "key": "t_address",
        "label": "mapping(address => uint256)",
        "numberOfBytes": "32",
        "value": "t_uint256"
      },
      "t_string_storage": {
        "encoding": "bytes",
        "label": "string",
        "numberOfBytes": "32"
      },
      "t_struct(Contributor)14611_storage": {
        "encoding": "inplace",
        "label": "struct Garden.Contributor",
        "members": [
          {
            "astId": 14596,
            "contract": "contracts/gardens/Garden.sol:GardenV4",
            "label": "lastDepositAt",
            "offset": 0,
            "slot": "0",
            "type": "t_uint256"
          },
          {
            "astId": 14598,
            "contract": "contracts/gardens/Garden.sol:GardenV4",
            "label": "initialDepositAt",
            "offset": 0,
            "slot": "1",
            "type": "t_uint256"
          },
          {
            "astId": 14600,
            "contract": "contracts/gardens/Garden.sol:GardenV4",
            "label": "claimedAt",
            "offset": 0,
            "slot": "2",
            "type": "t_uint256"
          },
          {
            "astId": 14602,
            "contract": "contracts/gardens/Garden.sol:GardenV4",
            "label": "claimedBABL",
            "offset": 0,
            "slot": "3",
            "type": "t_uint256"
          },
          {
            "astId": 14604,
            "contract": "contracts/gardens/Garden.sol:GardenV4",
            "label": "claimedRewards",
            "offset": 0,
            "slot": "4",
            "type": "t_uint256"
          },
          {
            "astId": 14606,
            "contract": "contracts/gardens/Garden.sol:GardenV4",
            "label": "withdrawnSince",
            "offset": 0,
            "slot": "5",
            "type": "t_uint256"
          },
          {
            "astId": 14608,
            "contract": "contracts/gardens/Garden.sol:GardenV4",
            "label": "totalDeposits",
            "offset": 0,
            "slot": "6",
            "type": "t_uint256"
          },
          {
            "astId": 14610,
            "contract": "contracts/gardens/Garden.sol:GardenV4",
            "label": "nonce",
            "offset": 0,
            "slot": "7",
            "type": "t_uint256"
          }
        ],
        "numberOfBytes": "256"
      },
      "t_uint256": {
        "encoding": "inplace",
        "label": "uint256",
        "numberOfBytes": "32"
      },
      "t_uint8": {
        "encoding": "inplace",
        "label": "uint8",
        "numberOfBytes": "1"
      }
    }
  }
}