{
  "address": "0x1245dc4da2DC2c56B909B6e3E50E0d2D8827617b",
  "abi": [
    {
      "anonymous": false,
      "inputs": [
        {
          "indexed": true,
          "internalType": "address",
          "name": "_strategy",
          "type": "address"
        },
        {
          "indexed": false,
          "internalType": "uint256",
          "name": "_expectedReturn",
          "type": "uint256"
        }
      ],
      "name": "AddStrategy",
      "type": "event"
    },
    {
      "anonymous": false,
      "inputs": [
        {
          "indexed": true,
          "internalType": "address",
          "name": "owner",
          "type": "address"
        },
        {
          "indexed": true,
          "internalType": "address",
          "name": "spender",
          "type": "address"
        },
        {
          "indexed": false,
          "internalType": "uint256",
          "name": "value",
          "type": "uint256"
        }
      ],
      "name": "Approval",
      "type": "event"
    },
    {
      "anonymous": false,
      "inputs": [
        {
          "indexed": true,
          "internalType": "address",
          "name": "_contributor",
          "type": "address"
        },
        {
          "indexed": false,
          "internalType": "uint256",
          "name": "_rewards",
          "type": "uint256"
        }
      ],
      "name": "BABLRewardsForContributor",
      "type": "event"
    },
    {
      "anonymous": false,
      "inputs": [
        {
          "indexed": true,
          "internalType": "address",
          "name": "_to",
          "type": "address"
        },
        {
          "indexed": false,
          "internalType": "uint256",
          "name": "reserveToken",
          "type": "uint256"
        },
        {
          "indexed": false,
          "internalType": "uint256",
          "name": "reserveTokenQuantity",
          "type": "uint256"
        },
        {
          "indexed": false,
          "internalType": "uint256",
          "name": "protocolFees",
          "type": "uint256"
        },
        {
          "indexed": false,
          "internalType": "uint256",
          "name": "timestamp",
          "type": "uint256"
        }
      ],
      "name": "GardenDeposit",
      "type": "event"
    },
    {
      "anonymous": false,
      "inputs": [
        {
          "indexed": true,
          "internalType": "address",
          "name": "_from",
          "type": "address"
        },
        {
          "indexed": true,
          "internalType": "address",
          "name": "_to",
          "type": "address"
        },
        {
          "indexed": false,
          "internalType": "uint256",
          "name": "reserveToken",
          "type": "uint256"
        },
        {
          "indexed": false,
          "internalType": "uint256",
          "name": "reserveTokenQuantity",
          "type": "uint256"
        },
        {
          "indexed": false,
          "internalType": "uint256",
          "name": "protocolFees",
          "type": "uint256"
        },
        {
          "indexed": false,
          "internalType": "uint256",
          "name": "timestamp",
          "type": "uint256"
        }
      ],
      "name": "GardenWithdrawal",
      "type": "event"
    },
    {
      "anonymous": false,
      "inputs": [
        {
          "indexed": true,
          "internalType": "address",
          "name": "_contributor",
          "type": "address"
        },
        {
          "indexed": true,
          "internalType": "uint256",
          "name": "_amount",
          "type": "uint256"
        }
      ],
      "name": "RewardsForContributor",
      "type": "event"
    },
    {
      "anonymous": false,
      "inputs": [
        {
          "indexed": true,
          "internalType": "address",
          "name": "from",
          "type": "address"
        },
        {
          "indexed": true,
          "internalType": "address",
          "name": "to",
          "type": "address"
        },
        {
          "indexed": false,
          "internalType": "uint256",
          "name": "value",
          "type": "uint256"
        }
      ],
      "name": "Transfer",
      "type": "event"
    },
    {
      "inputs": [],
      "name": "absoluteReturns",
      "outputs": [
        {
          "internalType": "int256",
          "name": "",
          "type": "int256"
        }
      ],
      "stateMutability": "view",
      "type": "function"
    },
    {
      "inputs": [],
      "name": "active",
      "outputs": [
        {
          "internalType": "bool",
          "name": "",
          "type": "bool"
        }
      ],
      "stateMutability": "view",
      "type": "function"
    },
    {
      "inputs": [
        {
          "internalType": "string",
          "name": "_name",
          "type": "string"
        },
        {
          "internalType": "string",
          "name": "_symbol",
          "type": "string"
        },
        {
          "internalType": "uint256[]",
          "name": "_stratParams",
          "type": "uint256[]"
        },
        {
          "internalType": "uint8[]",
          "name": "_opTypes",
          "type": "uint8[]"
        },
        {
          "internalType": "address[]",
          "name": "_opIntegrations",
          "type": "address[]"
        },
        {
          "internalType": "address[]",
          "name": "_opDatas",
          "type": "address[]"
        }
      ],
      "name": "addStrategy",
      "outputs": [],
      "stateMutability": "nonpayable",
      "type": "function"
    },
    {
      "inputs": [
        {
          "internalType": "uint256",
          "name": "_capital",
          "type": "uint256"
        }
      ],
      "name": "allocateCapitalToStrategy",
      "outputs": [],
      "stateMutability": "nonpayable",
      "type": "function"
    },
    {
      "inputs": [
        {
          "internalType": "address",
          "name": "owner",
          "type": "address"
        },
        {
          "internalType": "address",
          "name": "spender",
          "type": "address"
        }
      ],
      "name": "allowance",
      "outputs": [
        {
          "internalType": "uint256",
          "name": "",
          "type": "uint256"
        }
      ],
      "stateMutability": "view",
      "type": "function"
    },
    {
      "inputs": [
        {
          "internalType": "address",
          "name": "spender",
          "type": "address"
        },
        {
          "internalType": "uint256",
          "name": "amount",
          "type": "uint256"
        }
      ],
      "name": "approve",
      "outputs": [
        {
          "internalType": "bool",
          "name": "",
          "type": "bool"
        }
      ],
      "stateMutability": "nonpayable",
      "type": "function"
    },
    {
      "inputs": [
        {
          "internalType": "address",
          "name": "account",
          "type": "address"
        }
      ],
      "name": "balanceOf",
      "outputs": [
        {
          "internalType": "uint256",
          "name": "",
          "type": "uint256"
        }
      ],
      "stateMutability": "view",
      "type": "function"
    },
    {
      "inputs": [
        {
          "internalType": "address",
          "name": "_strategist",
          "type": "address"
        },
        {
          "internalType": "uint256",
          "name": "_amount",
          "type": "uint256"
        }
      ],
      "name": "burnStrategistStake",
      "outputs": [],
      "stateMutability": "nonpayable",
      "type": "function"
    },
    {
      "inputs": [
        {
          "internalType": "address[]",
          "name": "_finalizedStrategies",
          "type": "address[]"
        }
      ],
      "name": "claimReturns",
      "outputs": [],
      "stateMutability": "nonpayable",
      "type": "function"
    },
    {
      "inputs": [],
      "name": "controller",
      "outputs": [
        {
          "internalType": "address",
          "name": "",
          "type": "address"
        }
      ],
      "stateMutability": "view",
      "type": "function"
    },
    {
      "inputs": [],
      "name": "creator",
      "outputs": [
        {
          "internalType": "address",
          "name": "",
          "type": "address"
        }
      ],
      "stateMutability": "view",
      "type": "function"
    },
    {
      "inputs": [],
      "name": "decimals",
      "outputs": [
        {
          "internalType": "uint8",
          "name": "",
          "type": "uint8"
        }
      ],
      "stateMutability": "view",
      "type": "function"
    },
    {
      "inputs": [
        {
          "internalType": "address",
          "name": "spender",
          "type": "address"
        },
        {
          "internalType": "uint256",
          "name": "subtractedValue",
          "type": "uint256"
        }
      ],
      "name": "decreaseAllowance",
      "outputs": [
        {
          "internalType": "bool",
          "name": "",
          "type": "bool"
        }
      ],
      "stateMutability": "nonpayable",
      "type": "function"
    },
    {
      "inputs": [
        {
          "internalType": "uint256",
          "name": "_reserveAssetQuantity",
          "type": "uint256"
        },
        {
          "internalType": "uint256",
          "name": "_minGardenTokenReceiveQuantity",
          "type": "uint256"
        },
        {
          "internalType": "address",
          "name": "_to",
          "type": "address"
        }
      ],
      "name": "deposit",
      "outputs": [],
      "stateMutability": "payable",
      "type": "function"
    },
    {
      "inputs": [],
      "name": "depositHardlock",
      "outputs": [
        {
          "internalType": "uint256",
          "name": "",
          "type": "uint256"
        }
      ],
      "stateMutability": "view",
      "type": "function"
    },
    {
      "inputs": [
        {
          "internalType": "address",
          "name": "_strategy",
          "type": "address"
        }
      ],
      "name": "expireCandidateStrategy",
      "outputs": [],
      "stateMutability": "nonpayable",
      "type": "function"
    },
    {
      "inputs": [],
      "name": "gardenInitializedAt",
      "outputs": [
        {
          "internalType": "uint256",
          "name": "",
          "type": "uint256"
        }
      ],
      "stateMutability": "view",
      "type": "function"
    },
    {
      "inputs": [
        {
          "internalType": "address",
          "name": "_contributor",
          "type": "address"
        }
      ],
      "name": "getContributor",
      "outputs": [
        {
          "internalType": "uint256",
          "name": "",
          "type": "uint256"
        },
        {
          "internalType": "uint256",
          "name": "",
          "type": "uint256"
        },
        {
          "internalType": "uint256",
          "name": "",
          "type": "uint256"
        },
        {
          "internalType": "uint256",
          "name": "",
          "type": "uint256"
        },
        {
          "internalType": "uint256",
          "name": "",
          "type": "uint256"
        },
        {
          "internalType": "uint256",
          "name": "",
          "type": "uint256"
        }
      ],
      "stateMutability": "view",
      "type": "function"
    },
    {
      "inputs": [
        {
          "internalType": "uint256",
          "name": "_gardenTokenQuantity",
          "type": "uint256"
        }
      ],
      "name": "getExpectedReserveWithdrawalQuantity",
      "outputs": [
        {
          "internalType": "uint256",
          "name": "",
          "type": "uint256"
        }
      ],
      "stateMutability": "view",
      "type": "function"
    },
    {
      "inputs": [],
      "name": "getFinalizedStrategies",
      "outputs": [
        {
          "internalType": "address[]",
          "name": "",
          "type": "address[]"
        }
      ],
      "stateMutability": "view",
      "type": "function"
    },
    {
      "inputs": [
        {
          "internalType": "uint256",
          "name": "_reserveAssetQuantity",
          "type": "uint256"
        },
        {
          "internalType": "bool",
          "name": "isDeposit",
          "type": "bool"
        }
      ],
      "name": "getGardenTokenMintQuantity",
      "outputs": [
        {
          "internalType": "uint256",
          "name": "",
          "type": "uint256"
        }
      ],
      "stateMutability": "view",
      "type": "function"
    },
    {
      "inputs": [
        {
          "internalType": "address",
          "name": "_contributor",
          "type": "address"
        }
      ],
      "name": "getLockedBalance",
      "outputs": [
        {
          "internalType": "uint256",
          "name": "",
          "type": "uint256"
        },
        {
          "internalType": "uint256",
          "name": "",
          "type": "uint256"
        }
      ],
      "stateMutability": "view",
      "type": "function"
    },
    {
      "inputs": [],
      "name": "getStrategies",
      "outputs": [
        {
          "internalType": "address[]",
          "name": "",
          "type": "address[]"
        }
      ],
      "stateMutability": "view",
      "type": "function"
    },
    {
      "inputs": [],
      "name": "guestListEnabled",
      "outputs": [
        {
          "internalType": "bool",
          "name": "",
          "type": "bool"
        }
      ],
      "stateMutability": "view",
      "type": "function"
    },
    {
      "inputs": [
        {
          "internalType": "address",
          "name": "spender",
          "type": "address"
        },
        {
          "internalType": "uint256",
          "name": "addedValue",
          "type": "uint256"
        }
      ],
      "name": "increaseAllowance",
      "outputs": [
        {
          "internalType": "bool",
          "name": "",
          "type": "bool"
        }
      ],
      "stateMutability": "nonpayable",
      "type": "function"
    },
    {
      "inputs": [
        {
          "internalType": "address",
          "name": "_reserveAsset",
          "type": "address"
        },
        {
          "internalType": "address",
          "name": "_controller",
          "type": "address"
        },
        {
          "internalType": "address",
          "name": "_creator",
          "type": "address"
        },
        {
          "internalType": "string",
          "name": "_name",
          "type": "string"
        },
        {
          "internalType": "string",
          "name": "_symbol",
          "type": "string"
        },
        {
          "internalType": "uint256[]",
          "name": "_gardenParams",
          "type": "uint256[]"
        },
        {
          "internalType": "uint256",
          "name": "_initialContribution",
          "type": "uint256"
        }
      ],
      "name": "initialize",
      "outputs": [],
      "stateMutability": "payable",
      "type": "function"
    },
    {
      "inputs": [
        {
          "internalType": "address",
          "name": "",
          "type": "address"
        }
      ],
      "name": "isGardenStrategy",
      "outputs": [
        {
          "internalType": "bool",
          "name": "",
          "type": "bool"
        }
      ],
      "stateMutability": "view",
      "type": "function"
    },
    {
      "inputs": [],
      "name": "keeperDebt",
      "outputs": [
        {
          "internalType": "uint256",
          "name": "",
          "type": "uint256"
        }
      ],
      "stateMutability": "view",
      "type": "function"
    },
    {
      "inputs": [],
      "name": "makeGardenPublic",
      "outputs": [],
      "stateMutability": "nonpayable",
      "type": "function"
    },
    {
      "inputs": [],
      "name": "maxContributors",
      "outputs": [
        {
          "internalType": "uint256",
          "name": "",
          "type": "uint256"
        }
      ],
      "stateMutability": "view",
      "type": "function"
    },
    {
      "inputs": [],
      "name": "maxDepositLimit",
      "outputs": [
        {
          "internalType": "uint256",
          "name": "",
          "type": "uint256"
        }
      ],
      "stateMutability": "view",
      "type": "function"
    },
    {
      "inputs": [],
      "name": "maxStrategyDuration",
      "outputs": [
        {
          "internalType": "uint256",
          "name": "",
          "type": "uint256"
        }
      ],
      "stateMutability": "view",
      "type": "function"
    },
    {
      "inputs": [],
      "name": "minContribution",
      "outputs": [
        {
          "internalType": "uint256",
          "name": "",
          "type": "uint256"
        }
      ],
      "stateMutability": "view",
      "type": "function"
    },
    {
      "inputs": [],
      "name": "minLiquidityAsset",
      "outputs": [
        {
          "internalType": "uint256",
          "name": "",
          "type": "uint256"
        }
      ],
      "stateMutability": "view",
      "type": "function"
    },
    {
      "inputs": [],
      "name": "minStrategyDuration",
      "outputs": [
        {
          "internalType": "uint256",
          "name": "",
          "type": "uint256"
        }
      ],
      "stateMutability": "view",
      "type": "function"
    },
    {
      "inputs": [],
      "name": "minVoters",
      "outputs": [
        {
          "internalType": "uint256",
          "name": "",
          "type": "uint256"
        }
      ],
      "stateMutability": "view",
      "type": "function"
    },
    {
      "inputs": [],
      "name": "minVotesQuorum",
      "outputs": [
        {
          "internalType": "uint256",
          "name": "",
          "type": "uint256"
        }
      ],
      "stateMutability": "view",
      "type": "function"
    },
    {
      "inputs": [],
      "name": "name",
      "outputs": [
        {
          "internalType": "string",
          "name": "",
          "type": "string"
        }
      ],
      "stateMutability": "view",
      "type": "function"
    },
    {
      "inputs": [
        {
          "internalType": "address payable",
          "name": "_keeper",
          "type": "address"
        },
        {
          "internalType": "uint256",
          "name": "_fee",
          "type": "uint256"
        }
      ],
      "name": "payKeeper",
      "outputs": [],
      "stateMutability": "nonpayable",
      "type": "function"
    },
    {
      "inputs": [],
      "name": "principal",
      "outputs": [
        {
          "internalType": "uint256",
          "name": "",
          "type": "uint256"
        }
      ],
      "stateMutability": "view",
      "type": "function"
    },
    {
      "inputs": [
        {
          "internalType": "uint256",
          "name": "_fee",
          "type": "uint256"
        }
      ],
      "name": "rebalanceStrategies",
      "outputs": [],
      "stateMutability": "nonpayable",
      "type": "function"
    },
    {
      "inputs": [],
      "name": "reserveAsset",
      "outputs": [
        {
          "internalType": "address",
          "name": "",
          "type": "address"
        }
      ],
      "stateMutability": "view",
      "type": "function"
    },
    {
      "inputs": [],
      "name": "reserveAssetPrincipalWindow",
      "outputs": [
        {
          "internalType": "uint256",
          "name": "",
          "type": "uint256"
        }
      ],
      "stateMutability": "view",
      "type": "function"
    },
    {
      "inputs": [],
      "name": "reserveAssetRewardsSetAside",
      "outputs": [
        {
          "internalType": "uint256",
          "name": "",
          "type": "uint256"
        }
      ],
      "stateMutability": "view",
      "type": "function"
    },
    {
      "inputs": [
        {
          "internalType": "bool",
          "name": "_newValue",
          "type": "bool"
        }
      ],
      "name": "setActive",
      "outputs": [],
      "stateMutability": "nonpayable",
      "type": "function"
    },
    {
      "inputs": [
        {
          "internalType": "uint256",
          "name": "_amount",
          "type": "uint256"
        },
        {
          "internalType": "uint256",
          "name": "_rewards",
          "type": "uint256"
        },
        {
          "internalType": "int256",
          "name": "_returns",
          "type": "int256"
        },
        {
          "internalType": "address",
          "name": "_strategy",
          "type": "address"
        }
      ],
      "name": "startWithdrawalWindow",
      "outputs": [],
      "stateMutability": "nonpayable",
      "type": "function"
    },
    {
      "inputs": [],
      "name": "strategyCooldownPeriod",
      "outputs": [
        {
          "internalType": "uint256",
          "name": "",
          "type": "uint256"
        }
      ],
      "stateMutability": "view",
      "type": "function"
    },
    {
      "inputs": [
        {
          "internalType": "address",
          "name": "",
          "type": "address"
        }
      ],
      "name": "strategyMapping",
      "outputs": [
        {
          "internalType": "bool",
          "name": "",
          "type": "bool"
        }
      ],
      "stateMutability": "view",
      "type": "function"
    },
    {
      "inputs": [],
      "name": "symbol",
      "outputs": [
        {
          "internalType": "string",
          "name": "",
          "type": "string"
        }
      ],
      "stateMutability": "view",
      "type": "function"
    },
    {
      "inputs": [],
      "name": "totalContributors",
      "outputs": [
        {
          "internalType": "uint256",
          "name": "",
          "type": "uint256"
        }
      ],
      "stateMutability": "view",
      "type": "function"
    },
    {
      "inputs": [],
      "name": "totalStake",
      "outputs": [
        {
          "internalType": "uint256",
          "name": "",
          "type": "uint256"
        }
      ],
      "stateMutability": "view",
      "type": "function"
    },
    {
      "inputs": [],
      "name": "totalSupply",
      "outputs": [
        {
          "internalType": "uint256",
          "name": "",
          "type": "uint256"
        }
      ],
      "stateMutability": "view",
      "type": "function"
    },
    {
      "inputs": [
        {
          "internalType": "address",
          "name": "recipient",
          "type": "address"
        },
        {
          "internalType": "uint256",
          "name": "amount",
          "type": "uint256"
        }
      ],
      "name": "transfer",
      "outputs": [
        {
          "internalType": "bool",
          "name": "",
          "type": "bool"
        }
      ],
      "stateMutability": "nonpayable",
      "type": "function"
    },
    {
      "inputs": [
        {
          "internalType": "address",
          "name": "sender",
          "type": "address"
        },
        {
          "internalType": "address",
          "name": "recipient",
          "type": "address"
        },
        {
          "internalType": "uint256",
          "name": "amount",
          "type": "uint256"
        }
      ],
      "name": "transferFrom",
      "outputs": [
        {
          "internalType": "bool",
          "name": "",
          "type": "bool"
        }
      ],
      "stateMutability": "nonpayable",
      "type": "function"
    },
    {
      "inputs": [
        {
          "internalType": "uint256",
          "name": "_gardenTokenQuantity",
          "type": "uint256"
        },
        {
          "internalType": "uint256",
          "name": "_minReserveReceiveQuantity",
          "type": "uint256"
        },
        {
          "internalType": "address payable",
          "name": "_to",
          "type": "address"
        },
        {
          "internalType": "bool",
          "name": "_withPenalty",
          "type": "bool"
        }
      ],
      "name": "withdraw",
      "outputs": [],
      "stateMutability": "nonpayable",
      "type": "function"
    },
    {
      "inputs": [],
      "name": "withdrawalsOpenUntil",
      "outputs": [
        {
          "internalType": "uint256",
          "name": "",
          "type": "uint256"
        }
      ],
      "stateMutability": "view",
      "type": "function"
    },
    {
      "stateMutability": "payable",
      "type": "receive"
    }
  ],
  "transactionHash": "0x4fd55a95b6b6e7e9f5b99c899f219df01f8846f80a3d659705d8976f5cd8150b",
  "args": [],
  "solcInputHash": "3d00fad6e2a8def9880d61c8c4c2d9ca",
  "bytecode": "0x608060405267016345785d8a0000607a5534801561001c57600080fd5b506001606555615fa780620000326000396000f3fe60806040526004361061036f5760003560e01c80638b0e9f3f116101c6578063b2644e66116100f7578063c408689311610095578063f251fc8c1161006f578063f251fc8c1461105a578063f77c47911461106f578063f828162614611084578063f85cb5c81461109957610376565b8063c408689314610fbe578063cb12233b1461100a578063dd62ed3e1461101f57610376565b8063b59adc59116100d1578063b59adc5914610f4d578063b63c44e714610f7f578063b9e6753914610f94578063ba5d307814610fa957610376565b8063b2644e6614610ea0578063b304b81514610ed3578063b49a60bb14610f3857610376565b8063a37aa3c311610164578063a9059cbb1161013e578063a9059cbb14610ddf578063aaffadf314610e18578063ac39871714610e2d578063acec338a14610e7457610376565b8063a37aa3c314610d67578063a457c2d714610d91578063a63c643d14610dca57610376565b80638ee330b0116101a05780638ee330b014610cef57806395cdbedb14610d0457806395d89b4114610d195780639ab6374214610d2e57610376565b80638b0e9f3f14610c935780638bbde0fd14610ca85780638dbdbe6d14610cbd57610376565b80633a821925116102a05780635fe3d4ce1161023e5780637550ed18116102185780637550ed1814610c3f578063792e42e214610c545780637ce9059c14610c6957806386fa506314610c7e57610376565b80635fe3d4ce14610a5857806360d442ca14610bf757806370a0823114610c0c57610376565b80633deddb3f1161027a5780633deddb3f146109ef5780634422b0dc14610a045780634edfb99a14610a2e5780635a16656a14610a4357610376565b80633a821925146108d95780633ad8d04d1461090c5780633d8270f51461098957610376565b806322385e381161030d578063297ce598116102e7578063297ce598146108275780632befcc5c1461083c578063313ce5671461087557806339509351146108a057610376565b806322385e381461077557806323b872dd1461079f578063250caaa8146107e257610376565b806306fdde031161034957806306fdde0314610408578063095ea7b31461049257806318160ddd146104cb5780631e6ea56f146104f257610376565b806302d05d3f1461037b57806302fb0c5e146103ac57806306061dfa146103d557610376565b3661037657005b600080fd5b34801561038757600080fd5b506103906110ae565b604080516001600160a01b039092168252519081900360200190f35b3480156103b857600080fd5b506103c16110bd565b604080519115158252519081900360200190f35b3480156103e157600080fd5b506103c1600480360360208110156103f857600080fd5b50356001600160a01b03166110cd565b34801561041457600080fd5b5061041d6110e2565b6040805160208082528351818301528351919283929083019185019080838360005b8381101561045757818101518382015260200161043f565b50505050905090810190601f1680156104845780820380516001836020036101000a031916815260200191505b509250505060405180910390f35b34801561049e57600080fd5b506103c1600480360360408110156104b557600080fd5b506001600160a01b038135169060200135611178565b3480156104d757600080fd5b506104e0611196565b60408051918252519081900360200190f35b3480156104fe57600080fd5b50610773600480360360c081101561051557600080fd5b81019060208101813564010000000081111561053057600080fd5b82018360208201111561054257600080fd5b8035906020019184600183028401116401000000008311171561056457600080fd5b91908080601f01602080910402602001604051908101604052809392919081815260200183838082843760009201919091525092959493602081019350359150506401000000008111156105b757600080fd5b8201836020820111156105c957600080fd5b803590602001918460018302840111640100000000831117156105eb57600080fd5b91908080601f016020809104026020016040519081016040528093929190818152602001838380828437600092019190915250929594936020810193503591505064010000000081111561063e57600080fd5b82018360208201111561065057600080fd5b8035906020019184602083028401116401000000008311171561067257600080fd5b91939092909160208101903564010000000081111561069057600080fd5b8201836020820111156106a257600080fd5b803590602001918460208302840111640100000000831117156106c457600080fd5b9193909290916020810190356401000000008111156106e257600080fd5b8201836020820111156106f457600080fd5b8035906020019184602083028401116401000000008311171561071657600080fd5b91939092909160208101903564010000000081111561073457600080fd5b82018360208201111561074657600080fd5b8035906020019184602083028401116401000000008311171561076857600080fd5b50909250905061119c565b005b34801561078157600080fd5b506104e06004803603602081101561079857600080fd5b503561173c565b3480156107ab57600080fd5b506103c1600480360360608110156107c257600080fd5b506001600160a01b0381358116916020810135909116906040013561176a565b3480156107ee57600080fd5b506107736004803603608081101561080557600080fd5b50803590602081013590604081013590606001356001600160a01b03166117f2565b34801561083357600080fd5b506104e0611a22565b34801561084857600080fd5b506107736004803603604081101561085f57600080fd5b506001600160a01b038135169060200135611a28565b34801561088157600080fd5b5061088a611a59565b6040805160ff9092168252519081900360200190f35b3480156108ac57600080fd5b506103c1600480360360408110156108c357600080fd5b506001600160a01b038135169060200135611a62565b3480156108e557600080fd5b506103c1600480360360208110156108fc57600080fd5b50356001600160a01b0316611ab0565b34801561091857600080fd5b506107736004803603602081101561092f57600080fd5b81019060208101813564010000000081111561094a57600080fd5b82018360208201111561095c57600080fd5b8035906020019184602083028401116401000000008311171561097e57600080fd5b509092509050611ac5565b34801561099557600080fd5b506109bc600480360360208110156109ac57600080fd5b50356001600160a01b0316611f50565b604080519687526020870195909552858501939093526060850191909152608084015260a0830152519081900360c00190f35b3480156109fb57600080fd5b506104e0611f8d565b348015610a1057600080fd5b5061077360048036036020811015610a2757600080fd5b5035611f93565b348015610a3a57600080fd5b506103c16120fa565b348015610a4f57600080fd5b506104e061210a565b610773600480360360e0811015610a6e57600080fd5b6001600160a01b0382358116926020810135821692604082013590921691810190608081016060820135640100000000811115610aaa57600080fd5b820183602082011115610abc57600080fd5b80359060200191846001830284011164010000000083111715610ade57600080fd5b91908080601f0160208091040260200160405190810160405280939291908181526020018383808284376000920191909152509295949360208101935035915050640100000000811115610b3157600080fd5b820183602082011115610b4357600080fd5b80359060200191846001830284011164010000000083111715610b6557600080fd5b91908080601f0160208091040260200160405190810160405280939291908181526020018383808284376000920191909152509295949360208101935035915050640100000000811115610bb857600080fd5b820183602082011115610bca57600080fd5b80359060200191846020830284011164010000000083111715610bec57600080fd5b919350915035612110565b348015610c0357600080fd5b506104e0612565565b348015610c1857600080fd5b506104e060048036036020811015610c2f57600080fd5b50356001600160a01b031661256b565b348015610c4b57600080fd5b506104e0612586565b348015610c6057600080fd5b506104e061258c565b348015610c7557600080fd5b506104e0612592565b348015610c8a57600080fd5b506104e0612598565b348015610c9f57600080fd5b506104e061259e565b348015610cb457600080fd5b506104e06125a4565b61077360048036036060811015610cd357600080fd5b50803590602081013590604001356001600160a01b03166125aa565b348015610cfb57600080fd5b506104e0612814565b348015610d1057600080fd5b506104e061281a565b348015610d2557600080fd5b5061041d612820565b348015610d3a57600080fd5b5061077360048036036040811015610d5157600080fd5b506001600160a01b038135169060200135612881565b348015610d7357600080fd5b5061077360048036036020811015610d8a57600080fd5b50356129fc565b348015610d9d57600080fd5b506103c160048036036040811015610db457600080fd5b506001600160a01b038135169060200135612e75565b348015610dd657600080fd5b506104e0612edd565b348015610deb57600080fd5b506103c160048036036040811015610e0257600080fd5b506001600160a01b038135169060200135612ee3565b348015610e2457600080fd5b506104e0612ef7565b348015610e3957600080fd5b5061077360048036036080811015610e5057600080fd5b508035906020810135906001600160a01b0360408201351690606001351515612efd565b348015610e8057600080fd5b5061077360048036036020811015610e9757600080fd5b50351515613199565b348015610eac57600080fd5b5061077360048036036020811015610ec357600080fd5b50356001600160a01b03166131f0565b348015610edf57600080fd5b50610ee8613299565b60408051602080825283518183015283519192839290830191858101910280838360005b83811015610f24578181015183820152602001610f0c565b505050509050019250505060405180910390f35b348015610f4457600080fd5b50610ee86132fa565b348015610f5957600080fd5b506104e060048036036040811015610f7057600080fd5b5080359060200135151561335a565b348015610f8b57600080fd5b506104e0613546565b348015610fa057600080fd5b506104e061354c565b348015610fb557600080fd5b506104e0613552565b348015610fca57600080fd5b50610ff160048036036020811015610fe157600080fd5b50356001600160a01b0316613558565b6040805192835260208301919091528051918290030190f35b34801561101657600080fd5b506104e0613752565b34801561102b57600080fd5b506104e06004803603604081101561104257600080fd5b506001600160a01b0381358116916020013516613758565b34801561106657600080fd5b506104e0613783565b34801561107b57600080fd5b50610390613789565b34801561109057600080fd5b50610773613798565b3480156110a557600080fd5b5061039061385a565b6069546001600160a01b031681565b606954600160a01b900460ff1681565b60826020526000908152604090205460ff1681565b60368054604080516020601f600260001961010060018816150201909516949094049384018190048102820181019092528281526060939092909183018282801561116e5780601f106111435761010080835404028352916020019161116e565b820191906000526020600020905b81548152906001019060200180831161115157829003601f168201915b5050505050905090565b600061118c611185613869565b848461386d565b5060015b92915050565b60355490565b6111a4613959565b6111ac61397b565b606754604080517fc8ed947f00000000000000000000000000000000000000000000000000000000815290516112d1926001600160a01b03169163c8ed947f916004808301926020929190829003018186803b15801561120b57600080fd5b505afa15801561121f573d6000803e3d6000fd5b505050506040513d602081101561123557600080fd5b5051604080517f5066c71400000000000000000000000000000000000000000000000000000000815230600482015233602482015290516001600160a01b0390921691635066c71491604480820192602092909190829003018186803b15801561129e57600080fd5b505afa1580156112b2573d6000803e3d6000fd5b505050506040513d60208110156112c857600080fd5b5051601e613995565b607f546112e290601411601a613995565b6112f060058814604d613995565b606754604080517f9ef3571000000000000000000000000000000000000000000000000000000000815290516000926001600160a01b031691639ef35710916004808301926020929190829003018186803b15801561134e57600080fd5b505afa158015611362573d6000803e3d6000fd5b505050506040513d602081101561137857600080fd5b81019080805190602001909291905050506001600160a01b03166378afca3e8c8c33308e8e6040518763ffffffff1660e01b8152600401808060200180602001876001600160a01b03168152602001866001600160a01b031681526020018060200184810384528a818151815260200191508051906020019080838360005b8381101561140f5781810151838201526020016113f7565b50505050905090810190601f16801561143c5780820380516001836020036101000a031916815260200191505b5084810383528951815289516020918201918b019080838360005b8381101561146f578181015183820152602001611457565b50505050905090810190601f16801561149c5780820380516001836020036101000a031916815260200191505b508481038252868682818152602001925060200280828437600081840152601f19601f8201169050808301925050509950505050505050505050602060405180830381600087803b1580156114f057600080fd5b505af1158015611504573d6000803e3d6000fd5b505050506040513d602081101561151a57600080fd5b50516001600160a01b0381166000908152608160205260409020805460ff1916600190811790915590915061156e908a908a9081811061155657fe5b905060200201356079546139a390919063ffffffff16565b607955607f80546001810182556000919091527f66925e85f1a4743fd8d60ba595ed74887b7caf321dd83b21e04d77c1153834080180546001600160a01b0319166001600160a01b0383169081179091556040517fc2ea0bc40000000000000000000000000000000000000000000000000000000081526060600482019081526064820189905263c2ea0bc4918a918a918a918a918a918a918190602481019060448101906084018a60208b0280828437600083820152601f01601f19169091018581038452888152602090810191508990890280828437600083820152601f01601f19169091018581038352868152602090810191508790870280828437600081840152601f19601f8201169050808301925050509950505050505050505050600060405180830381600087803b1580156116a957600080fd5b505af11580156116bd573d6000803e3d6000fd5b5050506001600160a01b0382166000818152608260205260409020805460ff1916600117905590507fad5c211a0d035244e85dedad8dff9545aa6a4c7670f7d8ce5a2b41360bfbe0be8a8a600381811061171357fe5b905060200201356040518082815260200191505060405180910390a25050505050505050505050565b60665460009081906117629061175b906001600160a01b0316856139fd565b6000613b84565b949350505050565b6000611777848484613cb1565b6117e784611783613869565b6117e285604051806060016040528060288152602001615e69602891396001600160a01b038a166000908152603460205260408120906117c1613869565b6001600160a01b031681526020810191909152604001600020549190613e0e565b61386d565b5060015b9392505050565b6117fa613ea5565b336000908152608160205260409020546118999060ff1680156118925750306001600160a01b0316336001600160a01b03166356ba88b86040518163ffffffff1660e01b815260040160206040518083038186803b15801561185b57600080fd5b505afa15801561186f573d6000803e3d6000fd5b505050506040513d602081101561188557600080fd5b50516001600160a01b0316145b6014613995565b6118b66118b1836118ab606a54613fd1565b90614035565b61409a565b606a556070544210156118f7576118ef6118e86118de426070546140f190919063ffffffff16565b62093a80906140f1565b42906139a3565b607055611908565b6119044262093a806139a3565b6070555b606b5461191590846139a3565b606b55606c5461192590856139a3565b606c55606d546119359083614035565b606d819055506119a881607f80548060200260200160405190810160405280929190818152602001828054801561199557602002820191906000526020600020905b81546001600160a01b03168152600190910190602001808311611977575b505050505061414e90919063ffffffff16565b80516119bc91607f91602090910190615c3f565b5060808054600181019091557f59f3fb058c6bba7a4e76396639fc4dd21bd59163db798899cf56cef48b3c9ec90180546001600160a01b039092166001600160a01b0319909216821790556000908152608160205260409020805460ff19169055505050565b607d5481565b611a306141cb565b611a398261256b565b8110611a4b57611a488261256b565b90505b611a5582826141f1565b5050565b60385460ff1690565b600061118c611a6f613869565b846117e28560346000611a80613869565b6001600160a01b03908116825260208083019390935260409182016000908120918c1681529252902054906139a3565b60816020526000908152604090205460ff1681565b60026065541415611b1d576040805162461bcd60e51b815260206004820152601f60248201527f5265656e7472616e637947756172643a207265656e7472616e742063616c6c00604482015290519081900360640190fd5b6002606555611b2a61397b565b3360009081526071602052604090206002810154611b4b904211600c613995565b60408051600780825261010082019092526000916020820160e08036833750506068546040517f69795e9300000000000000000000000000000000000000000000000000000000815230600482018181523360248401819052606060448501908152606485018b90529697506001600160a01b03909416956369795e9395509193928a928a9291608401846020850280828437600081840152601f19601f8201169050808301925050509550505050505060006040518083038186803b158015611c1457600080fd5b505afa158015611c28573d6000803e3d6000fd5b505050506040513d6000823e601f3d908101601f191682016040526020811015611c5157600080fd5b8101908080516040519392919084640100000000821115611c7157600080fd5b908301906020820185811115611c8657600080fd5b8251866020820283011164010000000082111715611ca357600080fd5b82525081516020918201928201910280838360005b83811015611cd0578181015183820152602001611cb8565b505050509050016040525050509050611d20600082600581518110611cf157fe5b60200260200101511180611d195750600082600681518110611d0f57fe5b6020026020010151115b6052613995565b600081600681518110611d2f57fe5b60200260200101511115611e1057611d6881600681518110611d4d57fe5b602002602001015183600401546139a390919063ffffffff16565b8260040181905550611d9981600681518110611d8057fe5b6020026020010151606b546140f190919063ffffffff16565b606b554260028301558051611dc490339083906006908110611db757fe5b60200260200101516142ed565b80600681518110611dd157fe5b6020026020010151336001600160a01b03167f4dacaff8a707e7b54321fbdedb3b65d1f3316b59787949c034bae8946d6ff4e160405160405180910390a35b600081600581518110611e1f57fe5b60200260200101511115611f4557611e5881600581518110611e3d57fe5b602002602001015183600301546139a390919063ffffffff16565b600383015542600283015560685481516001600160a01b039091169063a8d9a78190339084906005908110611e8957fe5b60200260200101516040518363ffffffff1660e01b815260040180836001600160a01b0316815260200182815260200192505050600060405180830381600087803b158015611ed757600080fd5b505af1158015611eeb573d6000803e3d6000fd5b50505050336001600160a01b03167f09703ae9c781fcf86e1d44c6d854c2684b3f5dcfe234dfc64f4d356d0e3cd73e82600581518110611f2757fe5b60200260200101516040518082815260200191505060405180910390a25b505060016065555050565b6001600160a01b03166000908152607160205260409020805460018201546002830154600384015460048501546005909501549395929491939092565b607e5481565b611f9b6141cb565b611fa3613959565b611fab6143b5565b600061203182606760009054906101000a90046001600160a01b03166001600160a01b031663313754776040518163ffffffff1660e01b815260040160206040518083038186803b158015611fff57600080fd5b505afa158015612013573d6000803e3d6000fd5b505050506040513d602081101561202957600080fd5b5051906143ca565b606c54606654604080516370a0823160e01b815230600482015290519394506120cd936120ba93926001600160a01b0316916370a08231916024808301926020929190829003018186803b15801561208857600080fd5b505afa15801561209c573d6000803e3d6000fd5b505050506040513d60208110156120b257600080fd5b5051906140f1565b6120c484846139a3565b11156004613995565b6066546120e3906001600160a01b0316826143e8565b606654611a55906001600160a01b03163384614480565b606954600160a81b900460ff1681565b607b5481565b600054610100900460ff16806121295750612129614500565b80612137575060005460ff16155b6121725760405162461bcd60e51b815260040180806020018281038252602e815260200180615e1a602e913960400191505060405180910390fd5b600054610100900460ff1615801561219d576000805460ff1961ff0019909116610100171660011790555b6121ac6032875110604f613995565b6122496001600160a01b038816158015906121cf57506001600160a01b03891615155b8015612242575060008a6001600160a01b031663313ce5676040518163ffffffff1660e01b815260040160206040518083038186803b15801561221157600080fd5b505afa158015612225573d6000803e3d6000fd5b505050506040513d602081101561223b57600080fd5b505160ff16115b6017613995565b612257600a8414604e613995565b6122da886001600160a01b031663f979cdd98b6040518263ffffffff1660e01b815260040180826001600160a01b0316815260200191505060206040518083038186803b1580156122a757600080fd5b505afa1580156122bb573d6000803e3d6000fd5b505050506040513d60208110156122d157600080fd5b5051600e613995565b6122e48686614511565b606780546001600160a01b03808b166001600160a01b03199283168117909355606680548d831690841617905560698054918b1691909216179055604080517f7177fec90000000000000000000000000000000000000000000000000000000081529051637177fec991600480820192602092909190829003018186803b15801561236e57600080fd5b505afa158015612382573d6000803e3d6000fd5b505050506040513d602081101561239857600080fd5b5051607355606754604080517f3f2a554000000000000000000000000000000000000000000000000000000000815290516001600160a01b0390921691633f2a554091600480820192602092909190829003018186803b1580156123fb57600080fd5b505afa15801561240f573d6000803e3d6000fd5b505050506040513d602081101561242557600080fd5b5051606880546001600160a01b0319166001600160a01b039283161790819055612453911615156017613995565b6069805460ff60a81b1916600160a81b17905561253582858560008161247557fe5b905060200201358686600181811061248957fe5b905060200201358787600281811061249d57fe5b90506020020135888860038181106124b157fe5b90506020020135898960048181106124c557fe5b905060200201358a8a60058181106124d957fe5b905060200201358b8b60068181106124ed57fe5b905060200201358c8c600781811061250157fe5b905060200201358d8d600881811061251557fe5b905060200201358e8e600981811061252957fe5b905060200201356145c6565b6069805460ff60a01b1916600160a01b179055801561255a576000805461ff00191690555b505050505050505050565b60835481565b6001600160a01b031660009081526033602052604090205490565b606f5481565b606d5481565b60705481565b60735481565b60795481565b607a5481565b60026065541415612602576040805162461bcd60e51b815260206004820152601f60248201527f5265656e7472616e637947756172643a207265656e7472616e742063616c6c00604482015290519081900360640190fd5b600260655561260f613959565b60695461275490600160a81b900460ff1615806127355750606760009054906101000a90046001600160a01b03166001600160a01b031663c8ed947f6040518163ffffffff1660e01b815260040160206040518083038186803b15801561267557600080fd5b505afa158015612689573d6000803e3d6000fd5b505050506040513d602081101561269f57600080fd5b5051604080517fc7ec5d5d00000000000000000000000000000000000000000000000000000000815230600482015233602482015290516001600160a01b039092169163c7ec5d5d91604480820192602092909190829003018186803b15801561270857600080fd5b505afa15801561271c573d6000803e3d6000fd5b505050506040513d602081101561273257600080fd5b50515b8061274d57506069546001600160a01b038381169116145b601d613995565b607454156127805761278060745461277785606a546139a390919063ffffffff16565b11156000613995565b6127926073546072541115603d613995565b61279b836148e6565b6000806127a9856001613b84565b915091506127bb848210156002613995565b6066546127d1906001600160a01b0316836143e8565b6127f183826127eb84606a546139a390919063ffffffff16565b85614a84565b6128086078546127ff611196565b10156002613995565b50506001606555505050565b606c5481565b607c5481565b60378054604080516020601f600260001961010060018816150201909516949094049384018190048102820181019092528281526060939092909183018282801561116e5780601f106111435761010080835404028352916020019161116e565b606754604080517f411137c30000000000000000000000000000000000000000000000000000000081526001600160a01b038581166004830152915161291f93929092169163411137c391602480820192602092909190829003018186803b1580156128ec57600080fd5b505afa158015612900573d6000803e3d6000fd5b505050506040513d602081101561291657600080fd5b50516012613995565b6129276141cb565b60835461293490826139a3565b6083819055158015906129bf5750608354606654604080516370a0823160e01b815230600482015290516001600160a01b03909216916370a0823191602480820192602092909190829003018186803b15801561299057600080fd5b505afa1580156129a4573d6000803e3d6000fd5b505050506040513d60208110156129ba57600080fd5b505110155b15611a55576083546066546129e1916001600160a01b03909116908490614480565b608354606a546129f0916140f1565b606a5560006083555050565b612a04613ea5565b6000805b607f54811015612b21576000607f8281548110612a2157fe5b600091825260209182902001546040805163726faf0d60e11b815290516001600160a01b039092169350839263e4df5e1a92600480840193829003018186803b158015612a6d57600080fd5b505afa158015612a81573d6000803e3d6000fd5b505050506040513d6020811015612a9757600080fd5b505115612b1857612b15612b0e826001600160a01b0316630d15fd776040518163ffffffff1660e01b815260040160206040518083038186803b158015612add57600080fd5b505afa158015612af1573d6000803e3d6000fd5b505050506040513d6020811015612b0757600080fd5b505161409a565b84906139a3565b92505b50600101612a08565b50612b3e612b378267016345785d8a00006143ca565b82906139a3565b905060005b607f54811015612e70576000607f8281548110612b5c57fe5b600091825260209182902001546040805163726faf0d60e11b815290516001600160a01b039092169350839263e4df5e1a92600480840193829003018186803b158015612ba857600080fd5b505afa158015612bbc573d6000803e3d6000fd5b505050506040513d6020811015612bd257600080fd5b505115612e67576000612c6f612c2485612c1e856001600160a01b0316630d15fd776040518163ffffffff1660e01b815260040160206040518083038186803b158015612add57600080fd5b90614c3e565b606654604080516370a0823160e01b815230600482015290516001600160a01b03909216916370a0823191602480820192602092909190829003018186803b158015611fff57600080fd5b9050816001600160a01b031663302733566040518163ffffffff1660e01b815260040160206040518083038186803b158015612caa57600080fd5b505afa158015612cbe573d6000803e3d6000fd5b505050506040513d6020811015612cd457600080fd5b50518110801590612dd95750816001600160a01b03166393baae416040518163ffffffff1660e01b815260040160206040518083038186803b158015612d1957600080fd5b505afa158015612d2d573d6000803e3d6000fd5b505050506040513d6020811015612d4357600080fd5b5051604080517f03cddb2c0000000000000000000000000000000000000000000000000000000081529051612dd6916001600160a01b038616916303cddb2c91600480820192602092909190829003018186803b158015612da357600080fd5b505afa158015612db7573d6000803e3d6000fd5b505050506040513d6020811015612dcd57600080fd5b505183906139a3565b11155b15612e6557604080517f92c88555000000000000000000000000000000000000000000000000000000008152600481018390526024810187905233604482015290516001600160a01b038416916392c8855591606480830192600092919082900301818387803b158015612e4c57600080fd5b505af1158015612e60573d6000803e3d6000fd5b505050505b505b50600101612b43565b505050565b600061118c612e82613869565b846117e285604051806060016040528060258152602001615f4d6025913960346000612eac613869565b6001600160a01b03908116825260208083019390935260409182016000908120918d16815292529020549190613e0e565b606e5481565b600061118c612ef0613869565b8484613cb1565b60775481565b60026065541415612f55576040805162461bcd60e51b815260206004820152601f60248201527f5265656e7472616e637947756172643a207265656e7472616e742063616c6c00604482015290519081900360640190fd5b6002606555612f6261397b565b604080517fc408689300000000000000000000000000000000000000000000000000000000815233600482015281516000928392309263c408689392602480840193919291829003018186803b158015612fbb57600080fd5b505afa158015612fcf573d6000803e3d6000fd5b505050506040513d6040811015612fe557600080fd5b5080516020909101519092509050613013613009836130033361256b565b906140f1565b8711156007613995565b8261303a57613028613009826130033361256b565b613033868686614c56565b5050611f45565b61304f6130473388614da1565b15601c613995565b600061306d61306688670214e8348c4f00006143ca565b88906140f1565b905060008061307a614f31565b90935091506130fc905061308e83856140f1565b826001600160a01b031663302733566040518163ffffffff1660e01b815260040160206040518083038186803b1580156130c757600080fd5b505afa1580156130db573d6000803e3d6000fd5b505050506040513d60208110156130f157600080fd5b505111156044613995565b806001600160a01b03166342296724846040518263ffffffff1660e01b815260040180828152602001915050600060405180830381600087803b15801561314257600080fd5b505af1158015613156573d6000803e3d6000fd5b5050505061317e33613179670214e8348c4f00008c6143ca90919063ffffffff16565b6141f1565b613189838989614c56565b5050505050505060016065555050565b6067546131b2906001600160a01b031633146010613995565b6069546131d29060ff600160a01b90910416151582151514156016613995565b60698054911515600160a01b0260ff60a01b19909216919091179055565b6131f86141cb565b61326381607f805480602002602001604051908101604052809291908181526020018280548015611995576020028201919060005260206000209081546001600160a01b0316815260019091019060200180831161197757505050505061414e90919063ffffffff16565b805161327791607f91602090910190615c3f565b506001600160a01b03166000908152608160205260409020805460ff19169055565b6060608080548060200260200160405190810160405280929190818152602001828054801561116e57602002820191906000526020600020905b81546001600160a01b031681526001909101906020018083116132d3575050505050905090565b6060607f80548060200260200160405190810160405280929190818152602001828054801561116e576020028201919060005260206000209081546001600160a01b031681526001909101906020018083116132d3575050505050905090565b600080606660009054906101000a90046001600160a01b03166001600160a01b031663313ce5676040518163ffffffff1660e01b815260040160206040518083038186803b1580156133ab57600080fd5b505afa1580156133bf573d6000803e3d6000fd5b505050506040513d60208110156133d557600080fd5b505160ff16600a0a905060006133eb8583614c3e565b90506133f5611196565b6134025791506111909050565b606754604080517f294d237c00000000000000000000000000000000000000000000000000000000815290516000926001600160a01b03169163294d237c916004808301926020929190829003018186803b15801561346057600080fd5b505afa158015613474573d6000803e3d6000fd5b505050506040513d602081101561348a57600080fd5b505160665460408051635e0a3b9d60e11b81523060048201526001600160a01b0392831660248201529051919092169163bc14773a916044808301926020929190829003018186803b1580156134df57600080fd5b505afa1580156134f3573d6000803e3d6000fd5b505050506040513d602081101561350957600080fd5b5051905084156135325761352f613528613521611196565b8490614c3e565b82906140f1565b90505b61353c8282614c3e565b9695505050505050565b60745481565b606b5481565b606a5481565b60008060008060005b607f5481101561372b576000607f828154811061357a57fe5b60009182526020918290200154604080517f1fe4a68600000000000000000000000000000000000000000000000000000000815290516001600160a01b0390921693508392631fe4a68692600480840193829003018186803b1580156135df57600080fd5b505afa1580156135f3573d6000803e3d6000fd5b505050506040513d602081101561360957600080fd5b50516001600160a01b03888116911614156136905761368d816001600160a01b0316633a4b66f16040518163ffffffff1660e01b815260040160206040518083038186803b15801561365a57600080fd5b505afa15801561366e573d6000803e3d6000fd5b505050506040513d602081101561368457600080fd5b505185906139a3565b93505b6000613713826001600160a01b031663950c78228a6040518263ffffffff1660e01b815260040180826001600160a01b0316815260200191505060206040518083038186803b1580156136e257600080fd5b505afa1580156136f6573d6000803e3d6000fd5b505050506040513d602081101561370c57600080fd5b5051615096565b905083811115613721578093505b5050600101613561565b50816137368661256b565b1015613748576137458561256b565b91505b9092509050915091565b60755481565b6001600160a01b03918216600090815260346020908152604080832093909416825291909152205490565b60725481565b6067546001600160a01b031681565b6069546137b1906001600160a01b031633146011613995565b60695461384b90600160a81b900460ff1680156138445750606760009054906101000a90046001600160a01b03166001600160a01b0316637f80e05b6040518163ffffffff1660e01b815260040160206040518083038186803b15801561381757600080fd5b505afa15801561382b573d6000803e3d6000fd5b505050506040513d602081101561384157600080fd5b50515b6043613995565b6069805460ff60a81b19169055565b6066546001600160a01b031681565b3390565b6001600160a01b0383166138b25760405162461bcd60e51b8152600401808060200182810382526024815260200180615ed76024913960400191505060405180910390fd5b6001600160a01b0382166138f75760405162461bcd60e51b8152600401808060200182810382526022815260200180615d776022913960400191505060405180910390fd5b6001600160a01b03808416600081815260346020908152604080832094871680845294825291829020859055815185815291517f8c5be1e5ebec7d5bd14f71427d1e84f3dd0314c0f7b2291e5b200ac8c7c3b9259281900390910190a3505050565b613961613ea5565b60695461397990600160a01b900460ff166015613995565b565b613983613ea5565b61397960006139913361256b565b11600f5b81611a5557611a55816150a7565b6000828201838110156117eb576040805162461bcd60e51b815260206004820152601b60248201527f536166654d6174683a206164646974696f6e206f766572666c6f770000000000604482015290519081900360640190fd5b600080606760009054906101000a90046001600160a01b03166001600160a01b031663294d237c6040518163ffffffff1660e01b815260040160206040518083038186803b158015613a4e57600080fd5b505afa158015613a62573d6000803e3d6000fd5b505050506040513d6020811015613a7857600080fd5b505160408051635e0a3b9d60e11b81523060048201526001600160a01b0387811660248301529151919092169163bc14773a916044808301926020929190829003018186803b158015613aca57600080fd5b505afa158015613ade573d6000803e3d6000fd5b505050506040513d6020811015613af457600080fd5b505190506000613b0484836143ca565b9050613b7b856001600160a01b031663313ce5676040518163ffffffff1660e01b815260040160206040518083038186803b158015613b4257600080fd5b505afa158015613b56573d6000803e3d6000fd5b505050506040513d6020811015613b6c57600080fd5b5051829060ff16600a0a6143ca565b95945050505050565b600080600083613c0d57606760009054906101000a90046001600160a01b03166001600160a01b031663259072e16040518163ffffffff1660e01b815260040160206040518083038186803b158015613bdc57600080fd5b505afa158015613bf0573d6000803e3d6000fd5b505050506040513d6020811015613c0657600080fd5b5051613c88565b606760009054906101000a90046001600160a01b03166001600160a01b03166350d9f37f6040518163ffffffff1660e01b815260040160206040518083038186803b158015613c5b57600080fd5b505afa158015613c6f573d6000803e3d6000fd5b505050506040513d6020811015613c8557600080fd5b50515b90506000613c9682876143ca565b905080613ca387826140f1565b9350935050505b9250929050565b6001600160a01b038316613cf65760405162461bcd60e51b8152600401808060200182810382526025815260200180615eb26025913960400191505060405180910390fd5b6001600160a01b038216613d3b5760405162461bcd60e51b8152600401808060200182810382526023815260200180615d326023913960400191505060405180910390fd5b613d468383836150fa565b613d8381604051806060016040528060268152602001615d99602691396001600160a01b0386166000908152603360205260409020549190613e0e565b6001600160a01b038085166000908152603360205260408082209390935590841681522054613db290826139a3565b6001600160a01b0380841660008181526033602090815260409182902094909455805185815290519193928716927fddf252ad1be2c89b69c2b068fc378daa952ba7f163c4a11628f55a4df523b3ef92918290030190a3505050565b60008184841115613e9d5760405162461bcd60e51b81526004018080602001828103825283818151815260200191508051906020019080838360005b83811015613e62578181015183820152602001613e4a565b50505050905090810190601f168015613e8f5780820380516001836020036101000a031916815260200191505b509250505060405180910390fd5b505050900390565b606754604080517f62a4bf050000000000000000000000000000000000000000000000000000000081529051613979926001600160a01b0316916362a4bf05916004808301926020929190829003018186803b158015613f0457600080fd5b505afa158015613f18573d6000803e3d6000fd5b505050506040513d6020811015613f2e57600080fd5b5051158015613fca5750606754604080517f447a136600000000000000000000000000000000000000000000000000000000815230600482015290516001600160a01b039092169163447a136691602480820192602092909190829003018186803b158015613f9c57600080fd5b505afa158015613fb0573d6000803e3d6000fd5b505050506040513d6020811015613fc657600080fd5b5051155b6053613995565b60007f800000000000000000000000000000000000000000000000000000000000000082106140315760405162461bcd60e51b8152600401808060200182810382526028815260200180615efb6028913960400191505060405180910390fd5b5090565b600082820181831280159061404a5750838112155b8061405f575060008312801561405f57508381125b6117eb5760405162461bcd60e51b8152600401808060200182810382526021815260200180615dbf6021913960400191505060405180910390fd5b600080821215614031576040805162461bcd60e51b815260206004820181905260248201527f53616665436173743a2076616c7565206d75737420626520706f736974697665604482015290519081900360640190fd5b600082821115614148576040805162461bcd60e51b815260206004820152601e60248201527f536166654d6174683a207375627472616374696f6e206f766572666c6f770000604482015290519081900360640190fd5b50900390565b606060008061415d85856151c2565b91509150806141b3576040805162461bcd60e51b815260206004820152601560248201527f41646472657373206e6f7420696e2061727261792e0000000000000000000000604482015290519081900360640190fd5b60006141bf8684615225565b50935061119092505050565b6141d3613ea5565b336000908152608160205260409020546139799060ff166014613995565b6001600160a01b0382166142365760405162461bcd60e51b8152600401808060200182810382526021815260200180615e916021913960400191505060405180910390fd5b614242826000836150fa565b61427f81604051806060016040528060228152602001615d55602291396001600160a01b0385166000908152603360205260409020549190613e0e565b6001600160a01b0383166000908152603360205260409020556035546142a590826140f1565b6035556040805182815290516000916001600160a01b038516917fddf252ad1be2c89b69c2b068fc378daa952ba7f163c4a11628f55a4df523b3ef9181900360200190a35050565b6066546001600160a01b031673c02aaa39b223fe8d0a0e5c4f27ead9083c756cc2141561439e578047101561438f5773c02aaa39b223fe8d0a0e5c4f27ead9083c756cc2632e1a7d4d61434083476140f1565b6040518263ffffffff1660e01b815260040180828152602001915050600060405180830381600087803b15801561437657600080fd5b505af115801561438a573d6000803e3d6000fd5b505050505b6143998282615389565b611a55565b606654611a55906001600160a01b03168383614480565b60705442106139795760006070819055606c55565b60006117eb670de0b6b3a76400006143e2858561546e565b906154c7565b606754604080517f61d027b30000000000000000000000000000000000000000000000000000000081529051611a55926001600160a01b0316916361d027b3916004808301926020929190829003018186803b15801561444757600080fd5b505afa15801561445b573d6000803e3d6000fd5b505050506040513d602081101561447157600080fd5b50516001600160a01b03841690835b604080516001600160a01b038416602482015260448082018490528251808303909101815260649091019091526020810180517bffffffffffffffffffffffffffffffffffffffffffffffffffffffff167fa9059cbb00000000000000000000000000000000000000000000000000000000179052612e7090849061552e565b600061450b306155df565b15905090565b600054610100900460ff168061452a575061452a614500565b80614538575060005460ff16155b6145735760405162461bcd60e51b815260040180806020018281038252602e815260200180615e1a602e913960400191505060405180910390fd5b600054610100900460ff1615801561459e576000805460ff1961ff0019909116610100171660011790555b6145a66155e5565b6145b08383615687565b8015612e70576000805461ff0019169055505050565b6145e06000871180156145d95750868c10155b6001613995565b61468e898c101580156146875750606754606654604080517ff05017eb0000000000000000000000000000000000000000000000000000000081526001600160a01b0392831660048201529051919092169163f05017eb916024808301926020929190829003018186803b15801561465757600080fd5b505afa15801561466b573d6000803e3d6000fd5b505050506040513d602081101561468157600080fd5b50518910155b6004613995565b6146f78a8c111580156146f057506066546001600160a01b031673c02aaa39b223fe8d0a0e5c4f27ead9083c756cc2146146d3576a084595161401484a0000006146df565b69021e19e0c9bab24000005b6affffffffffffffffffffff168b11155b6000613995565b61470560008a116002613995565b614713600088116003613995565b606754604080517f8e20fb07000000000000000000000000000000000000000000000000000000008152905161482d926001600160a01b031691638e20fb07916004808301926020929190829003018186803b15801561477257600080fd5b505afa158015614786573d6000803e3d6000fd5b505050506040513d602081101561479c57600080fd5b505186118015906148265750606760009054906101000a90046001600160a01b03166001600160a01b0316636b2fb6786040518163ffffffff1660e01b815260040160206040518083038186803b1580156147f657600080fd5b505afa15801561480a573d6000803e3d6000fd5b505050506040513d602081101561482057600080fd5b50518610155b6018613995565b61486167016345785d8a0000851015801561485a575061485667016345785d8a0000600561546e565b8511155b6019613995565b61488e8383101580156148775750620151808410155b801561488757506302932e008311155b603f613995565b6148a9600182101580156148a25750600a82105b6040613995565b607795909555607e93909355607a91909155607b92909255607c91909155607d5560789290925560749290925542607555606e91909155606f5550565b6148f66077548210156001613995565b606654604080516370a0823160e01b815230600482015290516000926001600160a01b0316916370a08231916024808301926020929190829003018186803b15801561494157600080fd5b505afa158015614955573d6000803e3d6000fd5b505050506040513d602081101561496b57600080fd5b50516066549091506001600160a01b031673c02aaa39b223fe8d0a0e5c4f27ead9083c756cc214801561499e5750600034115b15614a105773c02aaa39b223fe8d0a0e5c4f27ead9083c756cc26001600160a01b031663d0e30db0346040518263ffffffff1660e01b81526004016000604051808303818588803b1580156149f257600080fd5b505af1158015614a06573d6000803e3d6000fd5b5050505050614a28565b606654614a28906001600160a01b031633308561575f565b606654604080516370a0823160e01b81523060048201529051611a55928592614a7c9286926001600160a01b0316916370a08231916024808301926020929190829003018186803b15801561208857600080fd5b146005613995565b6000614a8f8561256b565b9050614aa585614aa086600161335a565b6157ed565b614aaf85826158df565b606a839055606754604080517fead4c1cf00000000000000000000000000000000000000000000000000000000815290516001600160a01b039092169163ead4c1cf91600480820192602092909190829003018186803b158015614b1257600080fd5b505afa158015614b26573d6000803e3d6000fd5b505050506040513d6020811015614b3c57600080fd5b5051604080517f45b497470000000000000000000000000000000000000000000000000000000081526001600160a01b038881166004830152915191909216916345b497479160248083019260209291908290030181600087803b158015614ba357600080fd5b505af1158015614bb7573d6000803e3d6000fd5b505050506040513d6020811015614bcd57600080fd5b50614be590506000614bdd611196565b116004613995565b604080513481526020810186905280820184905242606082015290516001600160a01b038716917f38574f2bc5e150a9fd6f2ced17988994c3d1d8cafd2b73402da66a97164e8e3f919081900360800190a25050505050565b60006117eb826143e285670de0b6b3a764000061546e565b606f5433600090815260716020526040902054614c829190614c799042906140f1565b10156003613995565b614c8a6143b5565b606654600090614ca3906001600160a01b0316856139fd565b9050600080614cb3836000613b84565b91509150614cc46146873383614da1565b614cd66078546127ff88613003611196565b614ce4858210156002613995565b614cee33876141f1565b614cf833826142ed565b614d01816159ca565b606654614d17906001600160a01b0316836143e8565b6000614d2382846139a3565b9050614d3581606a5410156008613995565b606a54614d4290826140f1565b606a55604080518381526020810189905280820185905242606082015290516001600160a01b0387169133917f25b65b867b695d9502ad64f047cea91edc82a4d945f78fb241dd9f58d10cbb359181900360800190a350505050505050565b606654604080516370a0823160e01b8152306004820152905160009283926001600160a01b03909116916370a0823191602480820192602092909190829003018186803b158015614df157600080fd5b505afa158015614e05573d6000803e3d6000fd5b505050506040513d6020811015614e1b57600080fd5b50519050614e2d838210156042613995565b6070544211614f2757606c54614e4390846139a3565b811115614e54576001915050611190565b6068546001600160a01b0385811660008181526071602090815260408083206001015481517f7602bdde000000000000000000000000000000000000000000000000000000008152306004820152602481019590955260448501524260648501525191949390931692637602bdde9260848082019391829003018186803b158015614ede57600080fd5b505afa158015614ef2573d6000803e3d6000fd5b505050506040513d6020811015614f0857600080fd5b5051606c549091508490614f1c90836143ca565b101592505050611190565b8211159050611190565b60008080808080805b607f5460ff82161015615089576000607f8260ff1681548110614f5957fe5b600091825260209182902001546040805163726faf0d60e11b815290516001600160a01b039092169350839263e4df5e1a92600480840193829003018186803b158015614fa557600080fd5b505afa158015614fb9573d6000803e3d6000fd5b505050506040513d6020811015614fcf57600080fd5b505115615080576000816001600160a01b03166303cddb2c6040518163ffffffff1660e01b815260040160206040518083038186803b15801561501157600080fd5b505afa158015615025573d6000803e3d6000fd5b505050506040513d602081101561503b57600080fd5b5051905061504986826139a3565b95508481111561507e57809450607f8360ff168154811061506657fe5b6000918252602090912001546001600160a01b031693505b505b50600101614f3a565b5091945092509050909192565b600080821215614031575060000390565b62461bcd60e51b6000908152602060045260076024526642414223000030600a808404818106603090810160081b95839006959095019082900491820690940160101b939093010160c81b604452606490fd5b615105838383612e70565b612e706001600160a01b038416158061512557506001600160a01b038316155b806151bb5750606760009054906101000a90046001600160a01b03166001600160a01b031663393bfe496040518163ffffffff1660e01b815260040160206040518083038186803b15801561517957600080fd5b505afa15801561518d573d6000803e3d6000fd5b505050506040513d60208110156151a357600080fd5b505180156151bb5750606954600160a81b900460ff16155b603b613995565b81516000908190815b8181101561521557846001600160a01b03168682815181106151e957fe5b60200260200101516001600160a01b0316141561520d57925060019150613caa9050565b6001016151cb565b5060001995600095509350505050565b8151606090600090808410615281576040805162461bcd60e51b815260206004820152601860248201527f496e646578206d757374206265203c2041206c656e6774680000000000000000604482015290519081900360640190fd5b60006001820367ffffffffffffffff8111801561529d57600080fd5b506040519080825280602002602001820160405280156152c7578160200160208202803683370190505b50905060005b85811015615315578681815181106152e157fe5b60200260200101518282815181106152f557fe5b6001600160a01b03909216602092830291909101909101526001016152cd565b50600185015b828110156153665786818151811061532f57fe5b602002602001015182600183038151811061534657fe5b6001600160a01b039092166020928302919091019091015260010161531b565b508086868151811061537457fe5b60200260200101519350935050509250929050565b804710156153de576040805162461bcd60e51b815260206004820152601d60248201527f416464726573733a20696e73756666696369656e742062616c616e6365000000604482015290519081900360640190fd5b6040516000906001600160a01b0384169083908381818185875af1925050503d8060008114615429576040519150601f19603f3d011682016040523d82523d6000602084013e61542e565b606091505b5050905080612e705760405162461bcd60e51b815260040180806020018281038252603a815260200180615de0603a913960400191505060405180910390fd5b60008261547d57506000611190565b8282028284828161548a57fe5b04146117eb5760405162461bcd60e51b8152600401808060200182810382526021815260200180615e486021913960400191505060405180910390fd5b600080821161551d576040805162461bcd60e51b815260206004820152601a60248201527f536166654d6174683a206469766973696f6e206279207a65726f000000000000604482015290519081900360640190fd5b81838161552657fe5b049392505050565b6000615583826040518060400160405280602081526020017f5361666545524332303a206c6f772d6c6576656c2063616c6c206661696c6564815250856001600160a01b0316615ab49092919063ffffffff16565b805190915015612e70578080602001905160208110156155a257600080fd5b5051612e705760405162461bcd60e51b815260040180806020018281038252602a815260200180615f23602a913960400191505060405180910390fd5b3b151590565b600054610100900460ff16806155fe57506155fe614500565b8061560c575060005460ff16155b6156475760405162461bcd60e51b815260040180806020018281038252602e815260200180615e1a602e913960400191505060405180910390fd5b600054610100900460ff16158015615672576000805460ff1961ff0019909116610100171660011790555b8015615684576000805461ff00191690555b50565b600054610100900460ff16806156a057506156a0614500565b806156ae575060005460ff16155b6156e95760405162461bcd60e51b815260040180806020018281038252602e815260200180615e1a602e913960400191505060405180910390fd5b600054610100900460ff16158015615714576000805460ff1961ff0019909116610100171660011790555b8251615727906036906020860190615ca0565b50815161573b906037906020850190615ca0565b506038805460ff191660121790558015612e70576000805461ff0019169055505050565b604080516001600160a01b0380861660248301528416604482015260648082018490528251808303909101815260849091019091526020810180517bffffffffffffffffffffffffffffffffffffffffffffffffffffffff167f23b872dd000000000000000000000000000000000000000000000000000000001790526157e790859061552e565b50505050565b6001600160a01b038216615848576040805162461bcd60e51b815260206004820152601f60248201527f45524332303a206d696e7420746f20746865207a65726f206164647265737300604482015290519081900360640190fd5b615854600083836150fa565b60355461586190826139a3565b6035556001600160a01b03821660009081526033602052604090205461588790826139a3565b6001600160a01b03831660008181526033602090815260408083209490945583518581529351929391927fddf252ad1be2c89b69c2b068fc378daa952ba7f163c4a11628f55a4df523b3ef9281900390910190a35050565b6001600160a01b038216600090815260716020526040902081158061590657506001810154155b156159345761591c60735460725410603d613995565b60725461592a9060016139a3565b6072554260018201555b4281556068546076546040805163bad67dd160e01b81523060048201526001600160a01b038781166024830152604482018790526001606483015260848201939093529051919092169163bad67dd19160a480830192600092919082900301818387803b1580156159a457600080fd5b505af11580156159b8573d6000803e3d6000fd5b50506076805460010190555050505050565b336000818152607160205260409020906159e39061256b565b615a1057600080825560018083018290556005830191909155607254615a08916140f1565b607255615a25565b6005810154615a1f90836139a3565b60058201555b6068546076546040805163bad67dd160e01b815230600482015233602482015260006044820181905260648201819052608482019390935290516001600160a01b039093169263bad67dd19260a48084019391929182900301818387803b158015615a8f57600080fd5b505af1158015615aa3573d6000803e3d6000fd5b505060768054600101905550505050565b6060611762848460008585615ac8856155df565b615b19576040805162461bcd60e51b815260206004820152601d60248201527f416464726573733a2063616c6c20746f206e6f6e2d636f6e7472616374000000604482015290519081900360640190fd5b600080866001600160a01b031685876040518082805190602001908083835b60208310615b575780518252601f199092019160209182019101615b38565b6001836020036101000a03801982511681845116808217855250505050505090500191505060006040518083038185875af1925050503d8060008114615bb9576040519150601f19603f3d011682016040523d82523d6000602084013e615bbe565b606091505b5091509150615bce828286615bd9565b979650505050505050565b60608315615be85750816117eb565b825115615bf85782518084602001fd5b60405162461bcd60e51b8152602060048201818152845160248401528451859391928392604401919085019080838360008315613e62578181015183820152602001613e4a565b828054828255906000526020600020908101928215615c94579160200282015b82811115615c9457825182546001600160a01b0319166001600160a01b03909116178255602090920191600190910190615c5f565b50614031929150615d1c565b828054600181600116156101000203166002900490600052602060002090601f016020900481019282615cd65760008555615c94565b82601f10615cef57805160ff1916838001178555615c94565b82800160010185558215615c94579182015b82811115615c94578251825591602001919060010190615d01565b5b808211156140315760008155600101615d1d56fe45524332303a207472616e7366657220746f20746865207a65726f206164647265737345524332303a206275726e20616d6f756e7420657863656564732062616c616e636545524332303a20617070726f766520746f20746865207a65726f206164647265737345524332303a207472616e7366657220616d6f756e7420657863656564732062616c616e63655369676e6564536166654d6174683a206164646974696f6e206f766572666c6f77416464726573733a20756e61626c6520746f2073656e642076616c75652c20726563697069656e74206d61792068617665207265766572746564496e697469616c697a61626c653a20636f6e747261637420697320616c726561647920696e697469616c697a6564536166654d6174683a206d756c7469706c69636174696f6e206f766572666c6f7745524332303a207472616e7366657220616d6f756e74206578636565647320616c6c6f77616e636545524332303a206275726e2066726f6d20746865207a65726f206164647265737345524332303a207472616e736665722066726f6d20746865207a65726f206164647265737345524332303a20617070726f76652066726f6d20746865207a65726f206164647265737353616665436173743a2076616c756520646f65736e27742066697420696e20616e20696e743235365361666545524332303a204552433230206f7065726174696f6e20646964206e6f74207375636365656445524332303a2064656372656173656420616c6c6f77616e63652062656c6f77207a65726fa2646970667358221220b440ec0ffa98ded6b7fb0783fb36a156414e5fcabac2610ed17adc3794c3e34564736f6c63430007060033",
  "devdoc": {
    "author": "Babylon Finance Class that holds common garden-related state and functions",
    "kind": "dev",
    "methods": {
      "addStrategy(string,string,uint256[],uint8[],address[],address[])": {
        "params": {
          "_name": "Name of the strategy",
          "_opDatas": "Param for every operation in the strategy",
          "_opIntegrations": "Integration to use for every operation",
          "_opTypes": "Type for every operation in the strategy",
          "_stratParams": "Num params for the strategy",
          "_symbol": "Symbol of the strategy"
        }
      },
      "allocateCapitalToStrategy(uint256)": {
        "params": {
          "_capital": "Amount of capital to allocate to the strategy"
        }
      },
      "allowance(address,address)": {
        "details": "See {IERC20-allowance}."
      },
      "approve(address,uint256)": {
        "details": "See {IERC20-approve}. Requirements: - `spender` cannot be the zero address."
      },
      "balanceOf(address)": {
        "details": "See {IERC20-balanceOf}."
      },
      "decimals()": {
        "details": "Returns the number of decimals used to get its user representation. For example, if `decimals` equals `2`, a balance of `505` tokens should be displayed to a user as `5,05` (`505 / 10 ** 2`). Tokens usually opt for a value of 18, imitating the relationship between Ether and Wei. This is the value {ERC20} uses, unless {_setupDecimals} is called. NOTE: This information is only used for _display_ purposes: it in no way affects any of the arithmetic of the contract, including {IERC20-balanceOf} and {IERC20-transfer}."
      },
      "decreaseAllowance(address,uint256)": {
        "details": "Atomically decreases the allowance granted to `spender` by the caller. This is an alternative to {approve} that can be used as a mitigation for problems described in {IERC20-approve}. Emits an {Approval} event indicating the updated allowance. Requirements: - `spender` cannot be the zero address. - `spender` must have allowance for the caller of at least `subtractedValue`."
      },
      "deposit(uint256,uint256,address)": {
        "params": {
          "_minGardenTokenReceiveQuantity": "Min quantity of Garden token to receive after issuance",
          "_reserveAssetQuantity": "Quantity of the reserve asset that are received",
          "_to": "Address to mint Garden tokens to"
        }
      },
      "getExpectedReserveWithdrawalQuantity(uint256)": {
        "params": {
          "_gardenTokenQuantity": "Quantity of Garden tokens to withdrawal"
        },
        "returns": {
          "_0": "uint256                     Expected reserve asset quantity withdrawaled"
        }
      },
      "getFinalizedStrategies()": {
        "returns": {
          "_0": "address[]        Returns list of addresses"
        }
      },
      "getLockedBalance(address)": {
        "params": {
          "_contributor": "Address of the account"
        },
        "returns": {
          "_0": "uint256                    Returns the amount of locked garden tokens for the account",
          "_1": "uint256                    Returns the amount of active votes for the account"
        }
      },
      "getStrategies()": {
        "returns": {
          "_0": "address[]        Returns list of addresses"
        }
      },
      "increaseAllowance(address,uint256)": {
        "details": "Atomically increases the allowance granted to `spender` by the caller. This is an alternative to {approve} that can be used as a mitigation for problems described in {IERC20-approve}. Emits an {Approval} event indicating the updated allowance. Requirements: - `spender` cannot be the zero address."
      },
      "initialize(address,address,address,string,string,uint256[],uint256)": {
        "params": {
          "_controller": "Address of the controller",
          "_creator": "Address of the creator",
          "_gardenParams": "Array of numeric garden params",
          "_initialContribution": "Initial Contribution by the Gardener",
          "_name": "Name of the Garden",
          "_reserveAsset": "Address of the reserve asset ERC20",
          "_symbol": "Symbol of the Garden"
        }
      },
      "name()": {
        "details": "Returns the name of the token."
      },
      "payKeeper(address,uint256)": {
        "params": {
          "_fee": "The fee paid to keeper to compensate the gas cost",
          "_keeper": "Keeper that executed the transaction"
        }
      },
      "rebalanceStrategies(uint256)": {
        "params": {
          "_fee": "The fee paid to keeper to compensate the gas cost for each strategy executed"
        }
      },
      "startWithdrawalWindow(uint256,uint256,int256,address)": {
        "params": {
          "_amount": "Amount of Reserve Asset to set aside until the window ends",
          "_returns": "Profits or losses that the strategy received",
          "_rewards": "Amount of Reserve Asset to set aside forever"
        }
      },
      "symbol()": {
        "details": "Returns the symbol of the token, usually a shorter version of the name."
      },
      "totalSupply()": {
        "details": "See {IERC20-totalSupply}."
      },
      "transfer(address,uint256)": {
        "details": "See {IERC20-transfer}. Requirements: - `recipient` cannot be the zero address. - the caller must have a balance of at least `amount`."
      },
      "transferFrom(address,address,uint256)": {
        "details": "See {IERC20-transferFrom}. Emits an {Approval} event indicating the updated allowance. This is not required by the EIP. See the note at the beginning of {ERC20}. Requirements: - `sender` and `recipient` cannot be the zero address. - `sender` must have a balance of at least `amount`. - the caller must have allowance for ``sender``'s tokens of at least `amount`."
      },
      "withdraw(uint256,uint256,address,bool)": {
        "params": {
          "_gardenTokenQuantity": "Quantity of the garden token to withdrawal",
          "_minReserveReceiveQuantity": "Min quantity of reserve asset to receive",
          "_to": "Address to send component assets to",
          "_withPenalty": "Whether or not this is an immediate withdrawal"
        }
      }
    },
    "title": "BaseGarden",
    "version": 1
  },
  "userdoc": {
    "kind": "user",
    "methods": {
      "addStrategy(string,string,uint256[],uint8[],address[],address[])": {
        "notice": "Creates a new strategy calling the factory and adds it to the array"
      },
      "allocateCapitalToStrategy(uint256)": {
        "notice": "Allocates garden capital to an strategy"
      },
      "claimReturns(address[])": {
        "notice": "User can claim the rewards from the strategies that his principal was invested in."
      },
      "deposit(uint256,uint256,address)": {
        "notice": "Deposits the reserve asset into the garden and mints the Garden token of the given quantity to the specified _to address. WARN: If the reserve Asset is different than WETH the sender needs to have approved the garden."
      },
      "getExpectedReserveWithdrawalQuantity(uint256)": {
        "notice": "Get the expected reserve asset to be withdrawaled"
      },
      "getFinalizedStrategies()": {
        "notice": "Gets finalized strategies"
      },
      "getLockedBalance(address)": {
        "notice": "Checks balance locked for strategists in active strategies"
      },
      "getStrategies()": {
        "notice": "Gets current strategies"
      },
      "initialize(address,address,address,string,string,uint256[],uint256)": {
        "notice": "When a new Garden is created. All parameter validations are on the BabController contract. Validations are performed already on the BabController. WARN: If the reserve Asset is different than WETH the gardener needs to have approved the controller."
      },
      "makeGardenPublic()": {
        "notice": "Makes a previously private garden public"
      },
      "payKeeper(address,uint256)": {
        "notice": "Pays gas costs back to the keeper from executing transactions including the past debt"
      },
      "rebalanceStrategies(uint256)": {
        "notice": "Rebalances available capital of the garden between the strategies that are active. We enter into the strategy and add it to the executed strategies array."
      },
      "setActive(bool)": {
        "notice": "PRIVILEGED Manager, protocol FUNCTION. When a Garden is active, deposits are enabled."
      },
      "startWithdrawalWindow(uint256,uint256,int256,address)": {
        "notice": "When an strategy finishes execution, we want to make that eth available for withdrawals from members of the garden."
      },
      "withdraw(uint256,uint256,address,bool)": {
        "notice": "Withdraws the ETH relative to the token participation in the garden and sends it back to the sender."
      }
    },
    "version": 1
  },
  "storageLayout": {
    "storage": [
      {
        "astId": 492,
        "contract": "contracts/gardens/Garden.sol:Garden",
        "label": "_initialized",
        "offset": 0,
        "slot": "0",
        "type": "t_bool"
      },
      {
        "astId": 495,
        "contract": "contracts/gardens/Garden.sol:Garden",
        "label": "_initializing",
        "offset": 1,
        "slot": "0",
        "type": "t_bool"
      },
      {
        "astId": 1447,
        "contract": "contracts/gardens/Garden.sol:Garden",
        "label": "__gap",
        "offset": 0,
        "slot": "1",
        "type": "t_array(t_uint256)50_storage"
      },
      {
        "astId": 571,
        "contract": "contracts/gardens/Garden.sol:Garden",
        "label": "_balances",
        "offset": 0,
        "slot": "51",
        "type": "t_mapping(t_address,t_uint256)"
      },
      {
        "astId": 577,
        "contract": "contracts/gardens/Garden.sol:Garden",
        "label": "_allowances",
        "offset": 0,
        "slot": "52",
        "type": "t_mapping(t_address,t_mapping(t_address,t_uint256))"
      },
      {
        "astId": 579,
        "contract": "contracts/gardens/Garden.sol:Garden",
        "label": "_totalSupply",
        "offset": 0,
        "slot": "53",
        "type": "t_uint256"
      },
      {
        "astId": 581,
        "contract": "contracts/gardens/Garden.sol:Garden",
        "label": "_name",
        "offset": 0,
        "slot": "54",
        "type": "t_string_storage"
      },
      {
        "astId": 583,
        "contract": "contracts/gardens/Garden.sol:Garden",
        "label": "_symbol",
        "offset": 0,
        "slot": "55",
        "type": "t_string_storage"
      },
      {
        "astId": 585,
        "contract": "contracts/gardens/Garden.sol:Garden",
        "label": "_decimals",
        "offset": 0,
        "slot": "56",
        "type": "t_uint8"
      },
      {
        "astId": 1080,
        "contract": "contracts/gardens/Garden.sol:Garden",
        "label": "__gap",
        "offset": 0,
        "slot": "57",
        "type": "t_array(t_uint256)44_storage"
      },
      {
        "astId": 5859,
        "contract": "contracts/gardens/Garden.sol:Garden",
        "label": "_status",
        "offset": 0,
        "slot": "101",
        "type": "t_uint256"
      },
      {
        "astId": 15352,
        "contract": "contracts/gardens/Garden.sol:Garden",
        "label": "reserveAsset",
        "offset": 0,
        "slot": "102",
        "type": "t_address"
      },
      {
        "astId": 15355,
        "contract": "contracts/gardens/Garden.sol:Garden",
        "label": "controller",
        "offset": 0,
        "slot": "103",
        "type": "t_address"
      },
      {
        "astId": 15357,
        "contract": "contracts/gardens/Garden.sol:Garden",
        "label": "rewardsDistributor",
        "offset": 0,
        "slot": "104",
        "type": "t_contract(IRewardsDistributor)26351"
      },
      {
        "astId": 15360,
        "contract": "contracts/gardens/Garden.sol:Garden",
        "label": "creator",
        "offset": 0,
        "slot": "105",
        "type": "t_address"
      },
      {
        "astId": 15363,
        "contract": "contracts/gardens/Garden.sol:Garden",
        "label": "active",
        "offset": 20,
        "slot": "105",
        "type": "t_bool"
      },
      {
        "astId": 15366,
        "contract": "contracts/gardens/Garden.sol:Garden",
        "label": "guestListEnabled",
        "offset": 21,
        "slot": "105",
        "type": "t_bool"
      },
      {
        "astId": 15369,
        "contract": "contracts/gardens/Garden.sol:Garden",
        "label": "principal",
        "offset": 0,
        "slot": "106",
        "type": "t_uint256"
      },
      {
        "astId": 15372,
        "contract": "contracts/gardens/Garden.sol:Garden",
        "label": "reserveAssetRewardsSetAside",
        "offset": 0,
        "slot": "107",
        "type": "t_uint256"
      },
      {
        "astId": 15375,
        "contract": "contracts/gardens/Garden.sol:Garden",
        "label": "reserveAssetPrincipalWindow",
        "offset": 0,
        "slot": "108",
        "type": "t_uint256"
      },
      {
        "astId": 15378,
        "contract": "contracts/gardens/Garden.sol:Garden",
        "label": "absoluteReturns",
        "offset": 0,
        "slot": "109",
        "type": "t_int256"
      },
      {
        "astId": 15381,
        "contract": "contracts/gardens/Garden.sol:Garden",
        "label": "minLiquidityAsset",
        "offset": 0,
        "slot": "110",
        "type": "t_uint256"
      },
      {
        "astId": 15383,
        "contract": "contracts/gardens/Garden.sol:Garden",
        "label": "depositHardlock",
        "offset": 0,
        "slot": "111",
        "type": "t_uint256"
      },
      {
        "astId": 15385,
        "contract": "contracts/gardens/Garden.sol:Garden",
        "label": "withdrawalsOpenUntil",
        "offset": 0,
        "slot": "112",
        "type": "t_uint256"
      },
      {
        "astId": 15389,
        "contract": "contracts/gardens/Garden.sol:Garden",
        "label": "contributors",
        "offset": 0,
        "slot": "113",
        "type": "t_mapping(t_address,t_struct(Contributor)15349_storage)"
      },
      {
        "astId": 15392,
        "contract": "contracts/gardens/Garden.sol:Garden",
        "label": "totalContributors",
        "offset": 0,
        "slot": "114",
        "type": "t_uint256"
      },
      {
        "astId": 15395,
        "contract": "contracts/gardens/Garden.sol:Garden",
        "label": "maxContributors",
        "offset": 0,
        "slot": "115",
        "type": "t_uint256"
      },
      {
        "astId": 15397,
        "contract": "contracts/gardens/Garden.sol:Garden",
        "label": "maxDepositLimit",
        "offset": 0,
        "slot": "116",
        "type": "t_uint256"
      },
      {
        "astId": 15400,
        "contract": "contracts/gardens/Garden.sol:Garden",
        "label": "gardenInitializedAt",
        "offset": 0,
        "slot": "117",
        "type": "t_uint256"
      },
      {
        "astId": 15402,
        "contract": "contracts/gardens/Garden.sol:Garden",
        "label": "pid",
        "offset": 0,
        "slot": "118",
        "type": "t_uint256"
      },
      {
        "astId": 15405,
        "contract": "contracts/gardens/Garden.sol:Garden",
        "label": "minContribution",
        "offset": 0,
        "slot": "119",
        "type": "t_uint256"
      },
      {
        "astId": 15407,
        "contract": "contracts/gardens/Garden.sol:Garden",
        "label": "minGardenTokenSupply",
        "offset": 0,
        "slot": "120",
        "type": "t_uint256"
      },
      {
        "astId": 15410,
        "contract": "contracts/gardens/Garden.sol:Garden",
        "label": "totalStake",
        "offset": 0,
        "slot": "121",
        "type": "t_uint256"
      },
      {
        "astId": 15414,
        "contract": "contracts/gardens/Garden.sol:Garden",
        "label": "minVotesQuorum",
        "offset": 0,
        "slot": "122",
        "type": "t_uint256"
      },
      {
        "astId": 15417,
        "contract": "contracts/gardens/Garden.sol:Garden",
        "label": "minVoters",
        "offset": 0,
        "slot": "123",
        "type": "t_uint256"
      },
      {
        "astId": 15420,
        "contract": "contracts/gardens/Garden.sol:Garden",
        "label": "minStrategyDuration",
        "offset": 0,
        "slot": "124",
        "type": "t_uint256"
      },
      {
        "astId": 15423,
        "contract": "contracts/gardens/Garden.sol:Garden",
        "label": "maxStrategyDuration",
        "offset": 0,
        "slot": "125",
        "type": "t_uint256"
      },
      {
        "astId": 15426,
        "contract": "contracts/gardens/Garden.sol:Garden",
        "label": "strategyCooldownPeriod",
        "offset": 0,
        "slot": "126",
        "type": "t_uint256"
      },
      {
        "astId": 15429,
        "contract": "contracts/gardens/Garden.sol:Garden",
        "label": "strategies",
        "offset": 0,
        "slot": "127",
        "type": "t_array(t_address)dyn_storage"
      },
      {
        "astId": 15432,
        "contract": "contracts/gardens/Garden.sol:Garden",
        "label": "finalizedStrategies",
        "offset": 0,
        "slot": "128",
        "type": "t_array(t_address)dyn_storage"
      },
      {
        "astId": 15437,
        "contract": "contracts/gardens/Garden.sol:Garden",
        "label": "strategyMapping",
        "offset": 0,
        "slot": "129",
        "type": "t_mapping(t_address,t_bool)"
      },
      {
        "astId": 15442,
        "contract": "contracts/gardens/Garden.sol:Garden",
        "label": "isGardenStrategy",
        "offset": 0,
        "slot": "130",
        "type": "t_mapping(t_address,t_bool)"
      },
      {
        "astId": 15444,
        "contract": "contracts/gardens/Garden.sol:Garden",
        "label": "keeperDebt",
        "offset": 0,
        "slot": "131",
        "type": "t_uint256"
      }
    ],
    "types": {
      "t_address": {
        "encoding": "inplace",
        "label": "address",
        "numberOfBytes": "20"
      },
      "t_array(t_address)dyn_storage": {
        "base": "t_address",
        "encoding": "dynamic_array",
        "label": "address[]",
        "numberOfBytes": "32"
      },
      "t_array(t_uint256)44_storage": {
        "base": "t_uint256",
        "encoding": "inplace",
        "label": "uint256[44]",
        "numberOfBytes": "1408"
      },
      "t_array(t_uint256)50_storage": {
        "base": "t_uint256",
        "encoding": "inplace",
        "label": "uint256[50]",
        "numberOfBytes": "1600"
      },
      "t_bool": {
        "encoding": "inplace",
        "label": "bool",
        "numberOfBytes": "1"
      },
      "t_contract(IRewardsDistributor)26351": {
        "encoding": "inplace",
        "label": "contract IRewardsDistributor",
        "numberOfBytes": "20"
      },
      "t_int256": {
        "encoding": "inplace",
        "label": "int256",
        "numberOfBytes": "32"
      },
      "t_mapping(t_address,t_bool)": {
        "encoding": "mapping",
        "key": "t_address",
        "label": "mapping(address => bool)",
        "numberOfBytes": "32",
        "value": "t_bool"
      },
      "t_mapping(t_address,t_mapping(t_address,t_uint256))": {
        "encoding": "mapping",
        "key": "t_address",
        "label": "mapping(address => mapping(address => uint256))",
        "numberOfBytes": "32",
        "value": "t_mapping(t_address,t_uint256)"
      },
      "t_mapping(t_address,t_struct(Contributor)15349_storage)": {
        "encoding": "mapping",
        "key": "t_address",
        "label": "mapping(address => struct Garden.Contributor)",
        "numberOfBytes": "32",
        "value": "t_struct(Contributor)15349_storage"
      },
      "t_mapping(t_address,t_uint256)": {
        "encoding": "mapping",
        "key": "t_address",
        "label": "mapping(address => uint256)",
        "numberOfBytes": "32",
        "value": "t_uint256"
      },
      "t_string_storage": {
        "encoding": "bytes",
        "label": "string",
        "numberOfBytes": "32"
      },
      "t_struct(Contributor)15349_storage": {
        "encoding": "inplace",
        "label": "struct Garden.Contributor",
        "members": [
          {
            "astId": 15338,
            "contract": "contracts/gardens/Garden.sol:Garden",
            "label": "lastDepositAt",
            "offset": 0,
            "slot": "0",
            "type": "t_uint256"
          },
          {
            "astId": 15340,
            "contract": "contracts/gardens/Garden.sol:Garden",
            "label": "initialDepositAt",
            "offset": 0,
            "slot": "1",
            "type": "t_uint256"
          },
          {
            "astId": 15342,
            "contract": "contracts/gardens/Garden.sol:Garden",
            "label": "claimedAt",
            "offset": 0,
            "slot": "2",
            "type": "t_uint256"
          },
          {
            "astId": 15344,
            "contract": "contracts/gardens/Garden.sol:Garden",
            "label": "claimedBABL",
            "offset": 0,
            "slot": "3",
            "type": "t_uint256"
          },
          {
            "astId": 15346,
            "contract": "contracts/gardens/Garden.sol:Garden",
            "label": "claimedRewards",
            "offset": 0,
            "slot": "4",
            "type": "t_uint256"
          },
          {
            "astId": 15348,
            "contract": "contracts/gardens/Garden.sol:Garden",
            "label": "withdrawnSince",
            "offset": 0,
            "slot": "5",
            "type": "t_uint256"
          }
        ],
        "numberOfBytes": "192"
      },
      "t_uint256": {
        "encoding": "inplace",
        "label": "uint256",
        "numberOfBytes": "32"
      },
      "t_uint8": {
        "encoding": "inplace",
        "label": "uint8",
        "numberOfBytes": "1"
      }
    }
  }
}