{
  "address": "0x48741717469415E00039eA664DCA9BDb1cb054F7",
  "abi": [
    {
      "anonymous": false,
      "inputs": [
        {
          "indexed": true,
          "internalType": "address",
          "name": "_strategy",
          "type": "address"
        },
        {
          "indexed": false,
          "internalType": "string",
          "name": "_name",
          "type": "string"
        },
        {
          "indexed": false,
          "internalType": "uint256",
          "name": "_expectedReturn",
          "type": "uint256"
        }
      ],
      "name": "AddStrategy",
      "type": "event"
    },
    {
      "anonymous": false,
      "inputs": [
        {
          "indexed": true,
          "internalType": "address",
          "name": "owner",
          "type": "address"
        },
        {
          "indexed": true,
          "internalType": "address",
          "name": "spender",
          "type": "address"
        },
        {
          "indexed": false,
          "internalType": "uint256",
          "name": "value",
          "type": "uint256"
        }
      ],
      "name": "Approval",
      "type": "event"
    },
    {
      "anonymous": false,
      "inputs": [
        {
          "indexed": true,
          "internalType": "address",
          "name": "_contributor",
          "type": "address"
        },
        {
          "indexed": false,
          "internalType": "uint256",
          "name": "_rewards",
          "type": "uint256"
        }
      ],
      "name": "BABLRewardsForContributor",
      "type": "event"
    },
    {
      "anonymous": false,
      "inputs": [
        {
          "indexed": true,
          "internalType": "address",
          "name": "_to",
          "type": "address"
        },
        {
          "indexed": false,
          "internalType": "uint256",
          "name": "reserveToken",
          "type": "uint256"
        },
        {
          "indexed": false,
          "internalType": "uint256",
          "name": "reserveTokenQuantity",
          "type": "uint256"
        },
        {
          "indexed": false,
          "internalType": "uint256",
          "name": "timestamp",
          "type": "uint256"
        }
      ],
      "name": "GardenDeposit",
      "type": "event"
    },
    {
      "anonymous": false,
      "inputs": [
        {
          "indexed": true,
          "internalType": "address",
          "name": "_from",
          "type": "address"
        },
        {
          "indexed": true,
          "internalType": "address",
          "name": "_to",
          "type": "address"
        },
        {
          "indexed": false,
          "internalType": "uint256",
          "name": "reserveToken",
          "type": "uint256"
        },
        {
          "indexed": false,
          "internalType": "uint256",
          "name": "reserveTokenQuantity",
          "type": "uint256"
        },
        {
          "indexed": false,
          "internalType": "uint256",
          "name": "timestamp",
          "type": "uint256"
        }
      ],
      "name": "GardenWithdrawal",
      "type": "event"
    },
    {
      "anonymous": false,
      "inputs": [
        {
          "indexed": true,
          "internalType": "address",
          "name": "_contributor",
          "type": "address"
        },
        {
          "indexed": true,
          "internalType": "uint256",
          "name": "_amount",
          "type": "uint256"
        }
      ],
      "name": "RewardsForContributor",
      "type": "event"
    },
    {
      "anonymous": false,
      "inputs": [
        {
          "indexed": true,
          "internalType": "address",
          "name": "from",
          "type": "address"
        },
        {
          "indexed": true,
          "internalType": "address",
          "name": "to",
          "type": "address"
        },
        {
          "indexed": false,
          "internalType": "uint256",
          "name": "value",
          "type": "uint256"
        }
      ],
      "name": "Transfer",
      "type": "event"
    },
    {
      "inputs": [],
      "name": "absoluteReturns",
      "outputs": [
        {
          "internalType": "int256",
          "name": "",
          "type": "int256"
        }
      ],
      "stateMutability": "view",
      "type": "function"
    },
    {
      "inputs": [
        {
          "internalType": "address[4]",
          "name": "_newCreators",
          "type": "address[4]"
        }
      ],
      "name": "addExtraCreators",
      "outputs": [],
      "stateMutability": "nonpayable",
      "type": "function"
    },
    {
      "inputs": [
        {
          "internalType": "string",
          "name": "_name",
          "type": "string"
        },
        {
          "internalType": "string",
          "name": "_symbol",
          "type": "string"
        },
        {
          "internalType": "uint256[]",
          "name": "_stratParams",
          "type": "uint256[]"
        },
        {
          "internalType": "uint8[]",
          "name": "_opTypes",
          "type": "uint8[]"
        },
        {
          "internalType": "address[]",
          "name": "_opIntegrations",
          "type": "address[]"
        },
        {
          "internalType": "bytes",
          "name": "_opEncodedDatas",
          "type": "bytes"
        }
      ],
      "name": "addStrategy",
      "outputs": [],
      "stateMutability": "nonpayable",
      "type": "function"
    },
    {
      "inputs": [
        {
          "internalType": "uint256",
          "name": "_capital",
          "type": "uint256"
        }
      ],
      "name": "allocateCapitalToStrategy",
      "outputs": [],
      "stateMutability": "nonpayable",
      "type": "function"
    },
    {
      "inputs": [
        {
          "internalType": "address",
          "name": "owner",
          "type": "address"
        },
        {
          "internalType": "address",
          "name": "spender",
          "type": "address"
        }
      ],
      "name": "allowance",
      "outputs": [
        {
          "internalType": "uint256",
          "name": "",
          "type": "uint256"
        }
      ],
      "stateMutability": "view",
      "type": "function"
    },
    {
      "inputs": [
        {
          "internalType": "address",
          "name": "spender",
          "type": "address"
        },
        {
          "internalType": "uint256",
          "name": "amount",
          "type": "uint256"
        }
      ],
      "name": "approve",
      "outputs": [
        {
          "internalType": "bool",
          "name": "",
          "type": "bool"
        }
      ],
      "stateMutability": "nonpayable",
      "type": "function"
    },
    {
      "inputs": [
        {
          "internalType": "address",
          "name": "account",
          "type": "address"
        }
      ],
      "name": "balanceOf",
      "outputs": [
        {
          "internalType": "uint256",
          "name": "",
          "type": "uint256"
        }
      ],
      "stateMutability": "view",
      "type": "function"
    },
    {
      "inputs": [
        {
          "internalType": "address[]",
          "name": "_finalizedStrategies",
          "type": "address[]"
        }
      ],
      "name": "claimReturns",
      "outputs": [],
      "stateMutability": "nonpayable",
      "type": "function"
    },
    {
      "inputs": [
        {
          "internalType": "uint256",
          "name": "_babl",
          "type": "uint256"
        },
        {
          "internalType": "uint256",
          "name": "_profits",
          "type": "uint256"
        },
        {
          "internalType": "uint256",
          "name": "_nonce",
          "type": "uint256"
        },
        {
          "internalType": "uint256",
          "name": "_maxFee",
          "type": "uint256"
        },
        {
          "internalType": "uint256",
          "name": "_fee",
          "type": "uint256"
        },
        {
          "internalType": "uint8",
          "name": "v",
          "type": "uint8"
        },
        {
          "internalType": "bytes32",
          "name": "r",
          "type": "bytes32"
        },
        {
          "internalType": "bytes32",
          "name": "s",
          "type": "bytes32"
        }
      ],
      "name": "claimRewardsBySig",
      "outputs": [],
      "stateMutability": "nonpayable",
      "type": "function"
    },
    {
      "inputs": [],
      "name": "controller",
      "outputs": [
        {
          "internalType": "contract IBabController",
          "name": "",
          "type": "address"
        }
      ],
      "stateMutability": "view",
      "type": "function"
    },
    {
      "inputs": [],
      "name": "creator",
      "outputs": [
        {
          "internalType": "address",
          "name": "",
          "type": "address"
        }
      ],
      "stateMutability": "view",
      "type": "function"
    },
    {
      "inputs": [],
      "name": "decimals",
      "outputs": [
        {
          "internalType": "uint8",
          "name": "",
          "type": "uint8"
        }
      ],
      "stateMutability": "view",
      "type": "function"
    },
    {
      "inputs": [
        {
          "internalType": "address",
          "name": "spender",
          "type": "address"
        },
        {
          "internalType": "uint256",
          "name": "subtractedValue",
          "type": "uint256"
        }
      ],
      "name": "decreaseAllowance",
      "outputs": [
        {
          "internalType": "bool",
          "name": "",
          "type": "bool"
        }
      ],
      "stateMutability": "nonpayable",
      "type": "function"
    },
    {
      "inputs": [
        {
          "internalType": "uint256",
          "name": "_amountIn",
          "type": "uint256"
        },
        {
          "internalType": "uint256",
          "name": "_minAmountOut",
          "type": "uint256"
        },
        {
          "internalType": "address",
          "name": "_to",
          "type": "address"
        },
        {
          "internalType": "bool",
          "name": "_mintNft",
          "type": "bool"
        }
      ],
      "name": "deposit",
      "outputs": [],
      "stateMutability": "payable",
      "type": "function"
    },
    {
      "inputs": [
        {
          "internalType": "uint256",
          "name": "_amountIn",
          "type": "uint256"
        },
        {
          "internalType": "uint256",
          "name": "_minAmountOut",
          "type": "uint256"
        },
        {
          "internalType": "bool",
          "name": "_mintNft",
          "type": "bool"
        },
        {
          "internalType": "uint256",
          "name": "_nonce",
          "type": "uint256"
        },
        {
          "internalType": "uint256",
          "name": "_maxFee",
          "type": "uint256"
        },
        {
          "internalType": "uint256",
          "name": "_pricePerShare",
          "type": "uint256"
        },
        {
          "internalType": "uint256",
          "name": "_fee",
          "type": "uint256"
        },
        {
          "internalType": "uint8",
          "name": "v",
          "type": "uint8"
        },
        {
          "internalType": "bytes32",
          "name": "r",
          "type": "bytes32"
        },
        {
          "internalType": "bytes32",
          "name": "s",
          "type": "bytes32"
        }
      ],
      "name": "depositBySig",
      "outputs": [],
      "stateMutability": "nonpayable",
      "type": "function"
    },
    {
      "inputs": [],
      "name": "depositHardlock",
      "outputs": [
        {
          "internalType": "uint256",
          "name": "",
          "type": "uint256"
        }
      ],
      "stateMutability": "view",
      "type": "function"
    },
    {
      "inputs": [
        {
          "internalType": "address",
          "name": "_strategy",
          "type": "address"
        }
      ],
      "name": "expireCandidateStrategy",
      "outputs": [],
      "stateMutability": "nonpayable",
      "type": "function"
    },
    {
      "inputs": [
        {
          "internalType": "uint256",
          "name": "",
          "type": "uint256"
        }
      ],
      "name": "extraCreators",
      "outputs": [
        {
          "internalType": "address",
          "name": "",
          "type": "address"
        }
      ],
      "stateMutability": "view",
      "type": "function"
    },
    {
      "inputs": [
        {
          "internalType": "uint256",
          "name": "_rewards",
          "type": "uint256"
        },
        {
          "internalType": "int256",
          "name": "_returns",
          "type": "int256"
        },
        {
          "internalType": "uint256",
          "name": "_burningAmount",
          "type": "uint256"
        }
      ],
      "name": "finalizeStrategy",
      "outputs": [],
      "stateMutability": "nonpayable",
      "type": "function"
    },
    {
      "inputs": [],
      "name": "gardenInitializedAt",
      "outputs": [
        {
          "internalType": "uint256",
          "name": "",
          "type": "uint256"
        }
      ],
      "stateMutability": "view",
      "type": "function"
    },
    {
      "inputs": [
        {
          "internalType": "address",
          "name": "_contributor",
          "type": "address"
        }
      ],
      "name": "getContributor",
      "outputs": [
        {
          "internalType": "uint256",
          "name": "",
          "type": "uint256"
        },
        {
          "internalType": "uint256",
          "name": "",
          "type": "uint256"
        },
        {
          "internalType": "uint256",
          "name": "",
          "type": "uint256"
        },
        {
          "internalType": "uint256",
          "name": "",
          "type": "uint256"
        },
        {
          "internalType": "uint256",
          "name": "",
          "type": "uint256"
        },
        {
          "internalType": "uint256",
          "name": "",
          "type": "uint256"
        },
        {
          "internalType": "uint256",
          "name": "",
          "type": "uint256"
        },
        {
          "internalType": "uint256",
          "name": "",
          "type": "uint256"
        },
        {
          "internalType": "uint256",
          "name": "",
          "type": "uint256"
        },
        {
          "internalType": "uint256",
          "name": "",
          "type": "uint256"
        }
      ],
      "stateMutability": "view",
      "type": "function"
    },
    {
      "inputs": [],
      "name": "getFinalizedStrategies",
      "outputs": [
        {
          "internalType": "address[]",
          "name": "",
          "type": "address[]"
        }
      ],
      "stateMutability": "view",
      "type": "function"
    },
    {
      "inputs": [
        {
          "internalType": "address",
          "name": "_contributor",
          "type": "address"
        }
      ],
      "name": "getLockedBalance",
      "outputs": [
        {
          "internalType": "uint256",
          "name": "",
          "type": "uint256"
        }
      ],
      "stateMutability": "view",
      "type": "function"
    },
    {
      "inputs": [],
      "name": "getStrategies",
      "outputs": [
        {
          "internalType": "address[]",
          "name": "",
          "type": "address[]"
        }
      ],
      "stateMutability": "view",
      "type": "function"
    },
    {
      "inputs": [
        {
          "internalType": "address",
          "name": "spender",
          "type": "address"
        },
        {
          "internalType": "uint256",
          "name": "addedValue",
          "type": "uint256"
        }
      ],
      "name": "increaseAllowance",
      "outputs": [
        {
          "internalType": "bool",
          "name": "",
          "type": "bool"
        }
      ],
      "stateMutability": "nonpayable",
      "type": "function"
    },
    {
      "inputs": [
        {
          "internalType": "address",
          "name": "_reserveAsset",
          "type": "address"
        },
        {
          "internalType": "contract IBabController",
          "name": "_controller",
          "type": "address"
        },
        {
          "internalType": "address",
          "name": "_creator",
          "type": "address"
        },
        {
          "internalType": "string",
          "name": "_name",
          "type": "string"
        },
        {
          "internalType": "string",
          "name": "_symbol",
          "type": "string"
        },
        {
          "internalType": "uint256[]",
          "name": "_gardenParams",
          "type": "uint256[]"
        },
        {
          "internalType": "uint256",
          "name": "_initialContribution",
          "type": "uint256"
        },
        {
          "internalType": "bool[]",
          "name": "_publicGardenStrategistsStewards",
          "type": "bool[]"
        }
      ],
      "name": "initialize",
      "outputs": [],
      "stateMutability": "payable",
      "type": "function"
    },
    {
      "inputs": [
        {
          "internalType": "address",
          "name": "",
          "type": "address"
        }
      ],
      "name": "isGardenStrategy",
      "outputs": [
        {
          "internalType": "bool",
          "name": "",
          "type": "bool"
        }
      ],
      "stateMutability": "view",
      "type": "function"
    },
    {
      "inputs": [],
      "name": "keeperDebt",
      "outputs": [
        {
          "internalType": "uint256",
          "name": "",
          "type": "uint256"
        }
      ],
      "stateMutability": "view",
      "type": "function"
    },
    {
      "inputs": [],
      "name": "makeGardenPublic",
      "outputs": [],
      "stateMutability": "nonpayable",
      "type": "function"
    },
    {
      "inputs": [],
      "name": "maxDepositLimit",
      "outputs": [
        {
          "internalType": "uint256",
          "name": "",
          "type": "uint256"
        }
      ],
      "stateMutability": "view",
      "type": "function"
    },
    {
      "inputs": [],
      "name": "maxStrategyDuration",
      "outputs": [
        {
          "internalType": "uint256",
          "name": "",
          "type": "uint256"
        }
      ],
      "stateMutability": "view",
      "type": "function"
    },
    {
      "inputs": [],
      "name": "minContribution",
      "outputs": [
        {
          "internalType": "uint256",
          "name": "",
          "type": "uint256"
        }
      ],
      "stateMutability": "view",
      "type": "function"
    },
    {
      "inputs": [],
      "name": "minLiquidityAsset",
      "outputs": [
        {
          "internalType": "uint256",
          "name": "",
          "type": "uint256"
        }
      ],
      "stateMutability": "view",
      "type": "function"
    },
    {
      "inputs": [],
      "name": "minStrategyDuration",
      "outputs": [
        {
          "internalType": "uint256",
          "name": "",
          "type": "uint256"
        }
      ],
      "stateMutability": "view",
      "type": "function"
    },
    {
      "inputs": [],
      "name": "minVoters",
      "outputs": [
        {
          "internalType": "uint256",
          "name": "",
          "type": "uint256"
        }
      ],
      "stateMutability": "view",
      "type": "function"
    },
    {
      "inputs": [],
      "name": "minVotesQuorum",
      "outputs": [
        {
          "internalType": "uint256",
          "name": "",
          "type": "uint256"
        }
      ],
      "stateMutability": "view",
      "type": "function"
    },
    {
      "inputs": [],
      "name": "name",
      "outputs": [
        {
          "internalType": "string",
          "name": "",
          "type": "string"
        }
      ],
      "stateMutability": "view",
      "type": "function"
    },
    {
      "inputs": [
        {
          "internalType": "address payable",
          "name": "_keeper",
          "type": "address"
        },
        {
          "internalType": "uint256",
          "name": "_fee",
          "type": "uint256"
        }
      ],
      "name": "payKeeper",
      "outputs": [],
      "stateMutability": "nonpayable",
      "type": "function"
    },
    {
      "inputs": [],
      "name": "privateGarden",
      "outputs": [
        {
          "internalType": "bool",
          "name": "",
          "type": "bool"
        }
      ],
      "stateMutability": "view",
      "type": "function"
    },
    {
      "inputs": [],
      "name": "publicStewards",
      "outputs": [
        {
          "internalType": "bool",
          "name": "",
          "type": "bool"
        }
      ],
      "stateMutability": "view",
      "type": "function"
    },
    {
      "inputs": [],
      "name": "publicStrategists",
      "outputs": [
        {
          "internalType": "bool",
          "name": "",
          "type": "bool"
        }
      ],
      "stateMutability": "view",
      "type": "function"
    },
    {
      "inputs": [],
      "name": "reserveAsset",
      "outputs": [
        {
          "internalType": "address",
          "name": "",
          "type": "address"
        }
      ],
      "stateMutability": "view",
      "type": "function"
    },
    {
      "inputs": [],
      "name": "reserveAssetRewardsSetAside",
      "outputs": [
        {
          "internalType": "uint256",
          "name": "",
          "type": "uint256"
        }
      ],
      "stateMutability": "view",
      "type": "function"
    },
    {
      "inputs": [
        {
          "internalType": "bool",
          "name": "_publicStrategists",
          "type": "bool"
        },
        {
          "internalType": "bool",
          "name": "_publicStewards",
          "type": "bool"
        }
      ],
      "name": "setPublicRights",
      "outputs": [],
      "stateMutability": "nonpayable",
      "type": "function"
    },
    {
      "inputs": [],
      "name": "strategyCooldownPeriod",
      "outputs": [
        {
          "internalType": "uint256",
          "name": "",
          "type": "uint256"
        }
      ],
      "stateMutability": "view",
      "type": "function"
    },
    {
      "inputs": [
        {
          "internalType": "address",
          "name": "",
          "type": "address"
        }
      ],
      "name": "strategyMapping",
      "outputs": [
        {
          "internalType": "bool",
          "name": "",
          "type": "bool"
        }
      ],
      "stateMutability": "view",
      "type": "function"
    },
    {
      "inputs": [],
      "name": "symbol",
      "outputs": [
        {
          "internalType": "string",
          "name": "",
          "type": "string"
        }
      ],
      "stateMutability": "view",
      "type": "function"
    },
    {
      "inputs": [],
      "name": "totalContributors",
      "outputs": [
        {
          "internalType": "uint256",
          "name": "",
          "type": "uint256"
        }
      ],
      "stateMutability": "view",
      "type": "function"
    },
    {
      "inputs": [],
      "name": "totalKeeperFees",
      "outputs": [
        {
          "internalType": "uint256",
          "name": "",
          "type": "uint256"
        }
      ],
      "stateMutability": "view",
      "type": "function"
    },
    {
      "inputs": [],
      "name": "totalStake",
      "outputs": [
        {
          "internalType": "uint256",
          "name": "",
          "type": "uint256"
        }
      ],
      "stateMutability": "view",
      "type": "function"
    },
    {
      "inputs": [],
      "name": "totalSupply",
      "outputs": [
        {
          "internalType": "uint256",
          "name": "",
          "type": "uint256"
        }
      ],
      "stateMutability": "view",
      "type": "function"
    },
    {
      "inputs": [
        {
          "internalType": "address",
          "name": "recipient",
          "type": "address"
        },
        {
          "internalType": "uint256",
          "name": "amount",
          "type": "uint256"
        }
      ],
      "name": "transfer",
      "outputs": [
        {
          "internalType": "bool",
          "name": "",
          "type": "bool"
        }
      ],
      "stateMutability": "nonpayable",
      "type": "function"
    },
    {
      "inputs": [
        {
          "internalType": "address",
          "name": "_newCreator",
          "type": "address"
        },
        {
          "internalType": "uint8",
          "name": "_index",
          "type": "uint8"
        }
      ],
      "name": "transferCreatorRights",
      "outputs": [],
      "stateMutability": "nonpayable",
      "type": "function"
    },
    {
      "inputs": [
        {
          "internalType": "address",
          "name": "sender",
          "type": "address"
        },
        {
          "internalType": "address",
          "name": "recipient",
          "type": "address"
        },
        {
          "internalType": "uint256",
          "name": "amount",
          "type": "uint256"
        }
      ],
      "name": "transferFrom",
      "outputs": [
        {
          "internalType": "bool",
          "name": "",
          "type": "bool"
        }
      ],
      "stateMutability": "nonpayable",
      "type": "function"
    },
    {
      "inputs": [
        {
          "internalType": "uint256[9]",
          "name": "_newParams",
          "type": "uint256[9]"
        }
      ],
      "name": "updateGardenParams",
      "outputs": [],
      "stateMutability": "nonpayable",
      "type": "function"
    },
    {
      "inputs": [
        {
          "internalType": "uint256",
          "name": "_amountIn",
          "type": "uint256"
        },
        {
          "internalType": "uint256",
          "name": "_minAmountOut",
          "type": "uint256"
        },
        {
          "internalType": "address payable",
          "name": "_to",
          "type": "address"
        },
        {
          "internalType": "bool",
          "name": "_withPenalty",
          "type": "bool"
        },
        {
          "internalType": "address",
          "name": "_unwindStrategy",
          "type": "address"
        }
      ],
      "name": "withdraw",
      "outputs": [],
      "stateMutability": "nonpayable",
      "type": "function"
    },
    {
      "inputs": [
        {
          "internalType": "uint256",
          "name": "_amountIn",
          "type": "uint256"
        },
        {
          "internalType": "uint256",
          "name": "_minAmountOut",
          "type": "uint256"
        },
        {
          "internalType": "uint256",
          "name": "_nonce",
          "type": "uint256"
        },
        {
          "internalType": "uint256",
          "name": "_maxFee",
          "type": "uint256"
        },
        {
          "internalType": "bool",
          "name": "_withPenalty",
          "type": "bool"
        },
        {
          "internalType": "address",
          "name": "_unwindStrategy",
          "type": "address"
        },
        {
          "internalType": "uint256",
          "name": "_pricePerShare",
          "type": "uint256"
        },
        {
          "internalType": "uint256",
          "name": "_strategyNAV",
          "type": "uint256"
        },
        {
          "internalType": "uint256",
          "name": "_fee",
          "type": "uint256"
        },
        {
          "internalType": "uint8",
          "name": "v",
          "type": "uint8"
        },
        {
          "internalType": "bytes32",
          "name": "r",
          "type": "bytes32"
        },
        {
          "internalType": "bytes32",
          "name": "s",
          "type": "bytes32"
        }
      ],
      "name": "withdrawBySig",
      "outputs": [],
      "stateMutability": "nonpayable",
      "type": "function"
    },
    {
      "stateMutability": "payable",
      "type": "receive"
    }
  ],
  "transactionHash": "0x58e728bf05bba2bd12de7b9b29e3f3312ba6fe7e9a4b3b74547b80b9e463bc76",
  "args": [],
  "solcInputHash": "a4c989860017955c31564e8613cb488e",
  "bytecode": "0x608060405267016345785d8a0000607a5534801561001c57600080fd5b506001606555615fc380620000326000396000f3fe60806040526004361061037a5760003560e01c806370a08231116101d1578063b2644e6611610102578063cb12233b116100a0578063f77c47911161006f578063f77c479114611237578063f82816261461124c578063f85cb5c814611261578063fd8440371461127657610381565b8063cb12233b14611181578063daeffcca14611196578063dd62ed3e146111e7578063f251fc8c1461122257610381565b8063b49a60bb116100dc578063b49a60bb1461110f578063b63c44e714611124578063b9e6753914611139578063c40868931461114e57610381565b8063b2644e6614611043578063b2ce956e14611076578063b304b815146110aa57610381565b806395d89b411161016f578063a457c2d711610149578063a457c2d714610fa7578063a63c643d14610fe0578063a9059cbb14610ff5578063aaffadf31461102e57610381565b806395d89b4114610f445780639ab6374214610f59578063a06931f914610f9257610381565b8063792e42e2116101ab578063792e42e214610ef05780638b0e9f3f14610f055780638bbde0fd14610f1a57806395cdbedb14610f2f57610381565b806370a0823114610e935780637550ed1814610ec657806377e7ff3c14610edb57610381565b80633ad8d04d116102ab5780635942e8711161024957806360d442ca1161022357806360d442ca14610dbb57806363f568b914610dd0578063695f3f5d14610dfa5780636acb733e14610e3457610381565b80635942e87114610aa65780635a16656a14610b255780635a9e6daa14610b3a57610381565b80634422b0dc116102855780634422b0dc1461080857806350a9600314610832578063550c2b7f14610868578063580d55d51461087d57610381565b80633ad8d04d146106f35780633d8270f5146107705780633deddb3f146107f357610381565b806323b872dd11610318578063313ce567116102f2578063313ce5671461062057806335510fee1461064b57806339509351146106875780633a821925146106c057610381565b806323b872dd1461056057806327cca23d146105a3578063297ce5981461060b57610381565b806306fdde031161035457806306fdde0314610461578063095ea7b3146104eb5780631780998b1461052457806318160ddd1461053957610381565b806302a1bc071461038657806302d05d3f146103e957806306061dfa1461041a57610381565b3661038157005b600080fd5b34801561039257600080fd5b506103e760048036036101208110156103aa57600080fd5b8101908080610120019060098060200260405190810160405280929190826009602002808284376000920191909152509194506112ce9350505050565b005b3480156103f557600080fd5b506103fe611316565b604080516001600160a01b039092168252519081900360200190f35b34801561042657600080fd5b5061044d6004803603602081101561043d57600080fd5b50356001600160a01b0316611325565b604080519115158252519081900360200190f35b34801561046d57600080fd5b5061047661133a565b6040805160208082528351818301528351919283929083019185019080838360005b838110156104b0578181015183820152602001610498565b50505050905090810190601f1680156104dd5780820380516001836020036101000a031916815260200191505b509250505060405180910390f35b3480156104f757600080fd5b5061044d6004803603604081101561050e57600080fd5b506001600160a01b0381351690602001356113d1565b34801561053057600080fd5b5061044d6113ef565b34801561054557600080fd5b5061054e6113f8565b60408051918252519081900360200190f35b34801561056c57600080fd5b5061044d6004803603606081101561058357600080fd5b506001600160a01b038135811691602081013590911690604001356113fe565b3480156105af57600080fd5b506103e760048036036101408110156105c757600080fd5b50803590602081013590604081013515159060608101359060808101359060a08101359060c08101359060ff60e08201351690610100810135906101200135611486565b34801561061757600080fd5b5061054e611618565b34801561062c57600080fd5b5061063561161e565b6040805160ff9092168252519081900360200190f35b34801561065757600080fd5b506103e76004803603604081101561066e57600080fd5b5080356001600160a01b0316906020013560ff16611627565b34801561069357600080fd5b5061044d600480360360408110156106aa57600080fd5b506001600160a01b0381351690602001356116fe565b3480156106cc57600080fd5b5061044d600480360360208110156106e357600080fd5b50356001600160a01b031661174c565b3480156106ff57600080fd5b506103e76004803603602081101561071657600080fd5b81019060208101813564010000000081111561073157600080fd5b82018360208201111561074357600080fd5b8035906020019184602083028401116401000000008311171561076557600080fd5b509092509050611761565b34801561077c57600080fd5b506107a36004803603602081101561079357600080fd5b50356001600160a01b03166119bc565b604080519a8b5260208b0199909952898901979097526060890195909552608088019390935260a087019190915260c086015260e085015261010084015261012083015251908190036101400190f35b3480156107ff57600080fd5b5061054e611a7d565b34801561081457600080fd5b506103e76004803603602081101561082b57600080fd5b5035611a83565b34801561083e57600080fd5b506103e76004803603606081101561085557600080fd5b5080359060208101359060400135611be6565b34801561087457600080fd5b5061044d611ded565b6103e7600480360361010081101561089457600080fd5b6001600160a01b03823581169260208101358216926040820135909216918101906080810160608201356401000000008111156108d057600080fd5b8201836020820111156108e257600080fd5b8035906020019184600183028401116401000000008311171561090457600080fd5b91908080601f016020809104026020016040519081016040528093929190818152602001838380828437600092019190915250929594936020810193503591505064010000000081111561095757600080fd5b82018360208201111561096957600080fd5b8035906020019184600183028401116401000000008311171561098b57600080fd5b91908080601f01602080910402602001604051908101604052809392919081815260200183838082843760009201919091525092959493602081019350359150506401000000008111156109de57600080fd5b8201836020820111156109f057600080fd5b80359060200191846020830284011164010000000083111715610a1257600080fd5b91939092823592604081019060200135640100000000811115610a3457600080fd5b820183602082011115610a4657600080fd5b80359060200191846020830284011164010000000083111715610a6857600080fd5b919080806020026020016040519081016040528093929190818152602001838360200280828437600092019190915250929550611dfd945050505050565b348015610ab257600080fd5b506103e76004803603610180811015610aca57600080fd5b5080359060208101359060408101359060608101359060808101351515906001600160a01b0360a0820135169060c08101359060e0810135906101008101359060ff61012082013516906101408101359061016001356121dd565b348015610b3157600080fd5b5061054e612285565b348015610b4657600080fd5b506103e7600480360360c0811015610b5d57600080fd5b810190602081018135640100000000811115610b7857600080fd5b820183602082011115610b8a57600080fd5b80359060200191846001830284011164010000000083111715610bac57600080fd5b91908080601f0160208091040260200160405190810160405280939291908181526020018383808284376000920191909152509295949360208101935035915050640100000000811115610bff57600080fd5b820183602082011115610c1157600080fd5b80359060200191846001830284011164010000000083111715610c3357600080fd5b91908080601f0160208091040260200160405190810160405280939291908181526020018383808284376000920191909152509295949360208101935035915050640100000000811115610c8657600080fd5b820183602082011115610c9857600080fd5b80359060200191846020830284011164010000000083111715610cba57600080fd5b919390929091602081019035640100000000811115610cd857600080fd5b820183602082011115610cea57600080fd5b80359060200191846020830284011164010000000083111715610d0c57600080fd5b919390929091602081019035640100000000811115610d2a57600080fd5b820183602082011115610d3c57600080fd5b80359060200191846020830284011164010000000083111715610d5e57600080fd5b919390929091602081019035640100000000811115610d7c57600080fd5b820183602082011115610d8e57600080fd5b80359060200191846001830284011164010000000083111715610db057600080fd5b50909250905061228b565b348015610dc757600080fd5b5061054e612787565b348015610ddc57600080fd5b506103fe60048036036020811015610df357600080fd5b503561278d565b6103e760048036036080811015610e1057600080fd5b508035906020810135906001600160a01b03604082013516906060013515156127ad565b348015610e4057600080fd5b506103e760048036036080811015610e5757600080fd5b810190808060800190600480602002604051908101604052809291908260046020028082843760009201919091525091945061282d9350505050565b348015610e9f57600080fd5b5061054e60048036036020811015610eb657600080fd5b50356001600160a01b031661287c565b348015610ed257600080fd5b5061054e612897565b348015610ee757600080fd5b5061044d61289d565b348015610efc57600080fd5b5061054e6128ab565b348015610f1157600080fd5b5061054e6128b1565b348015610f2657600080fd5b5061054e6128b7565b348015610f3b57600080fd5b5061054e6128bd565b348015610f5057600080fd5b506104766128c3565b348015610f6557600080fd5b506103e760048036036040811015610f7c57600080fd5b506001600160a01b038135169060200135612924565b348015610f9e57600080fd5b5061054e612cb1565b348015610fb357600080fd5b5061044d60048036036040811015610fca57600080fd5b506001600160a01b038135169060200135612cb7565b348015610fec57600080fd5b5061054e612d1f565b34801561100157600080fd5b5061044d6004803603604081101561101857600080fd5b506001600160a01b038135169060200135612d25565b34801561103a57600080fd5b5061054e612d39565b34801561104f57600080fd5b506103e76004803603602081101561106657600080fd5b50356001600160a01b0316612d3f565b34801561108257600080fd5b506103e76004803603604081101561109957600080fd5b508035151590602001351515612de8565b3480156110b657600080fd5b506110bf612e2d565b60408051602080825283518183015283519192839290830191858101910280838360005b838110156110fb5781810151838201526020016110e3565b505050509050019250505060405180910390f35b34801561111b57600080fd5b506110bf612e8e565b34801561113057600080fd5b5061054e612eee565b34801561114557600080fd5b5061054e612ef4565b34801561115a57600080fd5b5061054e6004803603602081101561117157600080fd5b50356001600160a01b0316612efa565b34801561118d57600080fd5b5061054e613052565b3480156111a257600080fd5b506103e7600480360360a08110156111b957600080fd5b508035906020810135906001600160a01b036040820135811691606081013515159160809091013516613058565b3480156111f357600080fd5b5061054e6004803603604081101561120a57600080fd5b506001600160a01b0381358116916020013516613154565b34801561122e57600080fd5b5061054e61317f565b34801561124357600080fd5b506103fe613185565b34801561125857600080fd5b506103e7613194565b34801561126d57600080fd5b506103fe613246565b34801561128257600080fd5b506103e7600480360361010081101561129a57600080fd5b5080359060208101359060408101359060608101359060808101359060ff60a0820135169060c08101359060e00135613255565b6112d73361338d565b8051602082015160408301516060840151608085015160a086015160c087015160e08801516101008901516113139897969594939291906133a0565b50565b6069546001600160a01b031681565b60826020526000908152604090205460ff1681565b60368054604080516020601f60026000196101006001881615020190951694909404938401819004810282018101909252828152606093909290918301828280156113c65780601f1061139b576101008083540402835291602001916113c6565b820191906000526020600020905b8154815290600101906020018083116113a957829003601f168201915b505050505090505b90565b60006113e56113de613531565b8484613535565b5060015b92915050565b60855460ff1681565b60355490565b600061140b848484613621565b61147b84611417613531565b61147685604051806060016040528060288152602001615ead602891396001600160a01b038a16600090815260346020526040812090611455613531565b6001600160a01b03168152602081019190915260400160002054919061377e565b613535565b5060015b9392505050565b600260655414156114de576040805162461bcd60e51b815260206004820152601f60248201527f5265656e7472616e637947756172643a207265656e7472616e742063616c6c00604482015290519081900360640190fd5b60026065556114ed8487613815565b604080517f93eebca8e5470e4d1458515a43ba13d8cb740543f7cabf1ccffbe71b9f76ae8b6020808301919091523082840152606082018d9052608082018c90528a151560a083015260c082018a905260e08083018a90528351808403909101815261010090920190925280519101206000906115699061386f565b90506000611579828686866138c0565b9050611585818a613a3e565b85156115f45760006115978789613a7d565b90506115d66115a68e89613b13565b6115b08e84613b13565b84858f8d8d607754116115c45760006115d1565b6077546115d1908f613b13565b613b23565b6066546115ee906001600160a01b031683338a613fa9565b50611605565b6116058c8c83848e8c607754613b23565b5050600160655550505050505050505050565b607d5481565b60385460ff1690565b6116303361338d565b61164461163c83614037565b15605e6140e4565b61166f6001600160a01b0383161515806116685750606954600160a81b900460ff16155b60616140e4565b6069546001600160a01b03163314156116a257606980546001600160a01b0319166001600160a01b0384161790556116fa565b6116c933608660ff8416600481106116b657fe5b01546001600160a01b03161460116140e4565b8160868260ff16600481106116da57fe5b0180546001600160a01b0319166001600160a01b03929092169190911790555b5050565b60006113e561170b613531565b84611476856034600061171c613531565b6001600160a01b03908116825260208083019390935260409182016000908120918c1681529252902054906140f2565b60816020526000908152604090205460ff1681565b600260655414156117b9576040805162461bcd60e51b815260206004820152601f60248201527f5265656e7472616e637947756172643a207265656e7472616e742063616c6c00604482015290519081900360640190fd5b6002606555606f54336000908152607160205260409020546117ea91906117e1904290613b13565b101560036140e4565b6040805160088082526101208201909252600091602082016101008036833750506068546040517f69795e9300000000000000000000000000000000000000000000000000000000815230600482018181523360248401819052606060448501908152606485018a90529697506001600160a01b03909416956369795e9395509193928992899291608401846020850280828437600081840152601f19601f8201169050808301925050509550505050505060006040518083038186803b1580156118b457600080fd5b505afa1580156118c8573d6000803e3d6000fd5b505050506040513d6000823e601f3d908101601f1916820160405260208110156118f157600080fd5b810190808051604051939291908464010000000082111561191157600080fd5b90830190602082018581111561192657600080fd5b825186602082028301116401000000008211171561194357600080fd5b82525081516020918201928201910280838360005b83811015611970578181015183820152602001611958565b5050505090500160405250505090506119b2338260058151811061199057fe5b6020026020010151836006815181106119a557fe5b602002602001015161414c565b5050600160655550565b6000806000806000806000806000806000607160008d6001600160a01b03166001600160a01b03168152602001908152602001600020905060006119ff8d61287c565b90506000611a0c8e612efa565b9050826000015483600101548460020154856003015486600401548760050154886006015411611a3d576000611a50565b60058801546006890154611a5091613b13565b878760008b600701549c509c509c509c509c509c509c509c509c509c505050509193959799509193959799565b607e5481565b611a8b614336565b6000611b1182606760009054906101000a90046001600160a01b03166001600160a01b031663313754776040518163ffffffff1660e01b815260040160206040518083038186803b158015611adf57600080fd5b505afa158015611af3573d6000803e3d6000fd5b505050506040513d6020811015611b0957600080fd5b505190614356565b9050611b31611b1e614374565b611b2884846143f2565b111560046140e4565b606754604080517ff58d1c940000000000000000000000000000000000000000000000000000000081529051611bcf926001600160a01b03169163f58d1c94916004808301926020929190829003018186803b158015611b9057600080fd5b505afa158015611ba4573d6000803e3d6000fd5b505050506040513d6020811015611bba57600080fd5b50516066546001600160a01b03169083614402565b6066546116fa906001600160a01b03163384614402565b60026065541415611c3e576040805162461bcd60e51b815260206004820152601f60248201527f5265656e7472616e637947756172643a207265656e7472616e742063616c6c00604482015290519081900360640190fd5b6002606555611c4b614487565b611c53614336565b8015611ce9576000336001600160a01b0316631fe4a6866040518163ffffffff1660e01b815260040160206040518083038186803b158015611c9457600080fd5b505afa158015611ca8573d6000803e3d6000fd5b505050506040513d6020811015611cbe57600080fd5b50519050611ccb8161287c565b8210611cdd57611cda8161287c565b91505b611ce78183614520565b505b606b54611cf690846143f2565b606b55606d54611d06908361461c565b606d81905550611d7933607f805480602002602001604051908101604052809291908181526020018280548015611d6657602002820191906000526020600020905b81546001600160a01b03168152600190910190602001808311611d48575b505050505061468190919063ffffffff16565b8051611d8d91607f91602090910190615c36565b50506080805460018181019092557f59f3fb058c6bba7a4e76396639fc4dd21bd59163db798899cf56cef48b3c9ec90180546001600160a01b031916339081179091556000908152608160205260409020805460ff191690556065555050565b606954600160a81b900460ff1681565b600054610100900460ff1680611e165750611e166146fe565b80611e24575060005460ff16155b611e5f5760405162461bcd60e51b815260040180806020018281038252602e815260200180615e5d602e913960400191505060405180910390fd5b600054610100900460ff16158015611e8a576000805460ff1961ff0019909116610100171660011790555b611e94878761470f565b606780546001600160a01b03808c166001600160a01b03199283161792839055606680548e8316908416179055606980548c8316931692909217909155604080517f3f2a554000000000000000000000000000000000000000000000000000000000815290519290911691633f2a554091600480820192602092909190829003018186803b158015611f2557600080fd5b505afa158015611f39573d6000803e3d6000fd5b505050506040513d6020811015611f4f57600080fd5b5051606880546001600160a01b0319166001600160a01b039283161790819055611f7991166147c4565b606760009054906101000a90046001600160a01b03166001600160a01b0316637f80e05b6040518163ffffffff1660e01b815260040160206040518083038186803b158015611fc757600080fd5b505afa158015611fdb573d6000803e3d6000fd5b505050506040513d6020811015611ff157600080fd5b5051801561201057508160008151811061200757fe5b60200260200101515b60698054600160a81b9215830260ff60a81b1990911617908190550460ff1615801561204d57508160018151811061204457fe5b60200260200101515b6085805460ff191691151591909117905560695460ff600160a81b9091041615801561208a57508160028151811061208157fe5b60200260200101515b608580549115156101000261ff00199092169190911790556121016000868660038181106120b457fe5b905060200201351180156120db5750858560038181106120d057fe5b905060200201358410155b80156120fa5750858560008181106120ef57fe5b905060200201358411155b60016140e4565b426075556121bf858560008161211357fe5b905060200201358686600181811061212757fe5b905060200201358787600281811061213b57fe5b905060200201358888600381811061214f57fe5b905060200201358989600481811061216357fe5b905060200201358a8a600581811061217757fe5b905060200201358b8b600681811061218b57fe5b905060200201358c8c600781811061219f57fe5b905060200201358d8d60088181106121b357fe5b905060200201356133a0565b80156121d1576000805461ff00191690555b50505050505050505050565b60026065541415612235576040805162461bcd60e51b815260206004820152601f60248201527f5265656e7472616e637947756172643a207265656e7472616e742063616c6c00604482015290519081900360640190fd5b6002606555612244848a613815565b60006122568d8d8d8d8d8989896147da565b90506122718d6122668e8d613b13565b838c8c8c8c8c614885565b505060016065555050505050505050505050565b607b5481565b612293614487565b6122a960006122a13361287c565b11600f6140e4565b60006122b433614ab4565b925050506122c381601e6140e4565b607f546122d490601411601a6140e4565b606754604080517f9ef3571000000000000000000000000000000000000000000000000000000000815290516000926001600160a01b031691639ef35710916004808301926020929190829003018186803b15801561233257600080fd5b505afa158015612346573d6000803e3d6000fd5b505050506040513d602081101561235c57600080fd5b81019080805190602001909291905050506001600160a01b03166378afca3e8d8d33308f8f6040518763ffffffff1660e01b8152600401808060200180602001876001600160a01b03168152602001866001600160a01b031681526020018060200184810384528a818151815260200191508051906020019080838360005b838110156123f35781810151838201526020016123db565b50505050905090810190601f1680156124205780820380516001836020036101000a031916815260200191505b5084810383528951815289516020918201918b019080838360005b8381101561245357818101518382015260200161243b565b50505050905090810190601f1680156124805780820380516001836020036101000a031916815260200191505b508481038252868682818152602001925060200280828437600081840152601f19601f8201169050808301925050509950505050505050505050602060405180830381600087803b1580156124d457600080fd5b505af11580156124e8573d6000803e3d6000fd5b505050506040513d60208110156124fe57600080fd5b50516001600160a01b0381166000908152608160205260409020805460ff19166001908117909155909150612552908b908b9081811061253a57fe5b905060200201356079546143f290919063ffffffff16565b607955607f80546001810182556000919091527f66925e85f1a4743fd8d60ba595ed74887b7caf321dd83b21e04d77c1153834080180546001600160a01b0319166001600160a01b0383169081179091556040517fecbc2cda000000000000000000000000000000000000000000000000000000008152606060048201908152606482018a905263ecbc2cda918b918b918b918b918b918b918190602481019060448101906084018a60208b0280828437600083820152601f01601f19169091018581038452888152602090810191508990890280828437600083820152601f01601f191690910185810383528681526020019050868680828437600081840152601f19601f8201169050808301925050509950505050505050505050600060405180830381600087803b15801561268957600080fd5b505af115801561269d573d6000803e3d6000fd5b5050506001600160a01b0382166000818152608260205260409020805460ff1916600117905590507f9e896c245c70d187fa97788cded4bca6b7546fa444cc7b0c111c57b592affa018d8c8c60038181106126f457fe5b905060200201356040518080602001838152602001828103825284818151815260200191508051906020019080838360005b8381101561273e578181015183820152602001612726565b50505050905090810190601f16801561276b5780820380516001836020036101000a031916815260200191505b50935050505060405180910390a2505050505050505050505050565b60835481565b6086816004811061279d57600080fd5b01546001600160a01b0316905081565b60026065541415612805576040805162461bcd60e51b815260206004820152601f60248201527f5265656e7472616e637947756172643a207265656e7472616e742063616c6c00604482015290519081900360640190fd5b6002606555612822848484338561281a614d4c565b607754613b23565b505060016065555050565b606954612846906001600160a01b03163314605f6140e4565b612858600082815b6020020151614f1b565b6128646001828161284e565b6128706002828161284e565b6113136003828161284e565b6001600160a01b031660009081526033602052604090205490565b606f5481565b608554610100900460ff1681565b606d5481565b60795481565b607a5481565b607c5481565b60378054604080516020601f60026000196101006001881615020190951694909404938401819004810282018101909252828152606093909290918301828280156113c65780601f1061139b576101008083540402835291602001916113c6565b6002606554141561297c576040805162461bcd60e51b815260206004820152601f60248201527f5265656e7472616e637947756172643a207265656e7472616e742063616c6c00604482015290519081900360640190fd5b6002606555612989614487565b6129b0333014806129a957503360009081526081602052604090205460ff165b60146140e4565b6067546040805163411137c360e01b81526001600160a01b0385811660048301529151612a3593929092169163411137c391602480820192602092909190829003018186803b158015612a0257600080fd5b505afa158015612a16573d6000803e3d6000fd5b505050506040513d6020811015612a2c57600080fd5b505160126140e4565b606754604080517f2630c12f00000000000000000000000000000000000000000000000000000000815290516000926001600160a01b031691632630c12f916004808301926020929190829003018186803b158015612a9357600080fd5b505afa158015612aa7573d6000803e3d6000fd5b505050506040513d6020811015612abd57600080fd5b5051606654604080517fac41865a0000000000000000000000000000000000000000000000000000000081526001600160a01b039283166004820152736b175474e89094c44da98b954eedeac495271d0f60248201529051919092169163ac41865a916044808301926020929190829003018186803b158015612b3f57600080fd5b505afa158015612b53573d6000803e3d6000fd5b505050506040513d6020811015612b6957600080fd5b50516066546040805163313ce56760e01b81529051929350600092612c0892612bf5926001600160a01b039091169163313ce56791600480820192602092909190829003018186803b158015612bbe57600080fd5b505afa158015612bd2573d6000803e3d6000fd5b505050506040513d6020811015612be857600080fd5b505160129060ff16613b13565b600a0a612c028486614356565b90614f60565b9050612c21686c6b935b8bbd40000082111560136140e4565b608354612c2e90846143f2565b6083556000612c3b614374565b90506000608354118015612c4f5750600081115b15612ca55760006083548211612c655781612c69565b6083545b606654909150612c83906001600160a01b03168783614402565b608454612c9090826143f2565b608455608354612ca09082613b13565b608355505b50506001606555505050565b60845481565b60006113e5612cc4613531565b8461147685604051806060016040528060258152602001615f696025913960346000612cee613531565b6001600160a01b03908116825260208083019390935260409182016000908120918d1681529252902054919061377e565b606e5481565b60006113e5612d32613531565b8484613621565b60775481565b612d47614336565b612db281607f805480602002602001604051908101604052809291908181526020018280548015611d66576020028201919060005260206000209081546001600160a01b03168152600190910190602001808311611d4857505050505061468190919063ffffffff16565b8051612dc691607f91602090910190615c36565b506001600160a01b03166000908152608160205260409020805460ff19169055565b612df13361338d565b606954612e0a90600160a81b900460ff1615605a6140e4565b6085805460ff19169215159290921761ff00191661010091151591909102179055565b606060808054806020026020016040519081016040528092919081815260200182805480156113c657602002820191906000526020600020905b81546001600160a01b03168152600190910190602001808311612e67575050505050905090565b6060607f8054806020026020016040519081016040528092919081815260200182805480156113c6576020028201919060005260206000209081546001600160a01b03168152600190910190602001808311612e67575050505050905090565b60745481565b606b5481565b60008060005b607f54811015613038576000607f8281548110612f1957fe5b60009182526020918290200154604080517f1fe4a68600000000000000000000000000000000000000000000000000000000815290516001600160a01b0390921693508392631fe4a68692600480840193829003018186803b158015612f7e57600080fd5b505afa158015612f92573d6000803e3d6000fd5b505050506040513d6020811015612fa857600080fd5b50516001600160a01b038681169116141561302f5761302c816001600160a01b0316633a4b66f16040518163ffffffff1660e01b815260040160206040518083038186803b158015612ff957600080fd5b505afa15801561300d573d6000803e3d6000fd5b505050506040513d602081101561302357600080fd5b505184906143f2565b92505b50600101612f00565b50806130438461287c565b10156113e95761147f8361287c565b60755481565b600260655414156130b0576040805162461bcd60e51b815260206004820152601f60248201527f5265656e7472616e637947756172643a207265656e7472616e742063616c6c00604482015290519081900360640190fd5b60026065556130cb336001600160a01b03851614600f6140e4565b612ca585858585856130db614d4c565b886130e757600061314d565b876001600160a01b0316630126c6066040518163ffffffff1660e01b815260040160206040518083038186803b15801561312057600080fd5b505afa158015613134573d6000803e3d6000fd5b505050506040513d602081101561314a57600080fd5b50515b6000614885565b6001600160a01b03918216600090815260346020908152604080832093909416825291909152205490565b60725481565b6067546001600160a01b031681565b61319d3361338d565b60695461323790600160a81b900460ff1680156132305750606760009054906101000a90046001600160a01b03166001600160a01b0316637f80e05b6040518163ffffffff1660e01b815260040160206040518083038186803b15801561320357600080fd5b505afa158015613217573d6000803e3d6000fd5b505050506040513d602081101561322d57600080fd5b50515b60436140e4565b6069805460ff60a81b19169055565b6066546001600160a01b031681565b600260655414156132ad576040805162461bcd60e51b815260206004820152601f60248201527f5265656e7472616e637947756172643a207265656e7472616e742063616c6c00604482015290519081900360640190fd5b60026065556132bc8486613815565b604080517f4a667eb0782d5566daf0bdf399587241ea093b0424d78811ac44135dd7a8a45d6020808301919091523082840152606082018b9052608082018a905260a0820189905260c08083018990528351808403909101815260e0909201909252805191012060009061332f9061386f565b9050600061333f828686866138c0565b905061334b8189613a3e565b61335960008711606a6140e4565b606654613371906001600160a01b0316823389613fa9565b61337c818b8b61414c565b505060016065555050505050505050565b61131361339982614037565b60116140e4565b606754606654604080517ff05017eb0000000000000000000000000000000000000000000000000000000081526001600160a01b039283166004820152905161345093929092169163f05017eb91602480820192602092909190829003018186803b15801561340e57600080fd5b505afa158015613422573d6000803e3d6000fd5b505050506040513d602081101561343857600080fd5b505189108015906134495750600089115b60046140e4565b61345e6000881160036140e4565b61347c62093a8086111580156134755750603c8610155b60186140e4565b6134ba61349267016345785d8a00006002614f84565b85101580156134b357506134af67016345785d8a00006005614f60565b8511155b60196140e4565b6134e78383101580156134d05750620151808410155b80156134e057506302932e008311155b603f6140e4565b613502600182101580156134fb5750600a82105b60406140e4565b607795909555607e93909355607a91909155607b92909255607c91909155607d55607492909255606e55606f55565b3390565b6001600160a01b03831661357a5760405162461bcd60e51b8152600401808060200182810382526024815260200180615f1b6024913960400191505060405180910390fd5b6001600160a01b0382166135bf5760405162461bcd60e51b8152600401808060200182810382526022815260200180615d726022913960400191505060405180910390fd5b6001600160a01b03808416600081815260346020908152604080832094871680845294825291829020859055815185815291517f8c5be1e5ebec7d5bd14f71427d1e84f3dd0314c0f7b2291e5b200ac8c7c3b9259281900390910190a3505050565b6001600160a01b0383166136665760405162461bcd60e51b8152600401808060200182810382526025815260200180615ef66025913960400191505060405180910390fd5b6001600160a01b0382166136ab5760405162461bcd60e51b8152600401808060200182810382526023815260200180615d2d6023913960400191505060405180910390fd5b6136b6838383614feb565b6136f381604051806060016040528060268152602001615d94602691396001600160a01b038616600090815260336020526040902054919061377e565b6001600160a01b03808516600090815260336020526040808220939093559084168152205461372290826140f2565b6001600160a01b0380841660008181526033602090815260409182902094909455805185815290519193928716927fddf252ad1be2c89b69c2b068fc378daa952ba7f163c4a11628f55a4df523b3ef92918290030190a3505050565b6000818484111561380d5760405162461bcd60e51b81526004018080602001828103825283818151815260200191508051906020019080838360005b838110156137d25781810151838201526020016137ba565b50505050905090810190601f1680156137ff5780820380516001836020036101000a031916815260200191505b509250505060405180910390fd5b505050900390565b6067546040805163411137c360e01b81523360048201529051613861926001600160a01b03169163411137c3916024808301926020929190829003018186803b158015612a0257600080fd5b6116fa8183111560136140e4565b604080517f19457468657265756d205369676e6564204d6573736167653a0a333200000000602080830191909152603c8083019490945282518083039094018452605c909101909152815191012090565b60007f7fffffffffffffffffffffffffffffff5d576e7357a4501ddfe92f46681b20a08211156139215760405162461bcd60e51b8152600401808060200182810382526022815260200180615e156022913960400191505060405180910390fd5b8360ff16601b148061393657508360ff16601c145b6139715760405162461bcd60e51b8152600401808060200182810382526022815260200180615e8b6022913960400191505060405180910390fd5b600060018686868660405160008152602001604052604051808581526020018460ff1681526020018381526020018281526020019450505050506020604051602081039080840390855afa1580156139cd573d6000803e3d6000fd5b5050604051601f1901519150506001600160a01b038116613a35576040805162461bcd60e51b815260206004820152601860248201527f45434453413a20696e76616c6964207369676e61747572650000000000000000604482015290519081900360640190fd5b95945050505050565b613a546001600160a01b038316151560586140e4565b6001600160a01b0382166000908152607160205260409020600701546116fa90821460596140e4565b600061147f82613b0d606660009054906101000a90046001600160a01b03166001600160a01b031663313ce5676040518163ffffffff1660e01b815260040160206040518083038186803b158015613ad457600080fd5b505afa158015613ae8573d6000803e3d6000fd5b505050506040513d6020811015613afe57600080fd5b5051869060ff16600a0a6150b3565b906150b3565b808203828111156113e957600080fd5b613b2b614487565b613b34856147c4565b6000613b3f85614ab4565b50509050613b7a613b4f87614037565b80613b735750818015613b735750866001600160a01b0316866001600160a01b0316145b601d6140e4565b60745415613ba357613ba3607454613b9a8a613b94614374565b906143f2565b111560006140e4565b613bb18289101560016140e4565b606654604080516370a0823160e01b815230600482015290516000926001600160a01b0316916370a08231916024808301926020929190829003018186803b158015613bfc57600080fd5b505afa158015613c10573d6000803e3d6000fd5b505050506040513d6020811015613c2657600080fd5b50516066549091506001600160a01b031673c02aaa39b223fe8d0a0e5c4f27ead9083c756cc2148015613c595750600034115b15613ccb5773c02aaa39b223fe8d0a0e5c4f27ead9083c756cc26001600160a01b031663d0e30db0346040518263ffffffff1660e01b81526004016000604051808303818588803b158015613cad57600080fd5b505af1158015613cc1573d6000803e3d6000fd5b5050505050613ce3565b606654613ce3906001600160a01b031687308c613fa9565b606654604080516370a0823160e01b81523060048201529051613d71928c92613d699286926001600160a01b0316916370a08231916024808301926020929190829003018186803b158015613d3757600080fd5b505afa158015613d4b573d6000803e3d6000fd5b505050506040513d6020811015613d6157600080fd5b505190613b13565b1460056140e4565b6000613d7c8861287c565b90506000613e0a606660009054906101000a90046001600160a01b03166001600160a01b031663313ce5676040518163ffffffff1660e01b815260040160206040518083038186803b158015613dd157600080fd5b505afa158015613de5573d6000803e3d6000fd5b505050506040513d6020811015613dfb57600080fd5b50518c9060ff16600a0a6150b3565b90506000613e1882886150b3565b9050613e288b82101560566140e4565b613e328a826150cb565b613e3e8a848e846151bd565b8715613f5057606760009054906101000a90046001600160a01b03166001600160a01b031663ead4c1cf6040518163ffffffff1660e01b815260040160206040518083038186803b158015613e9257600080fd5b505afa158015613ea6573d6000803e3d6000fd5b505050506040513d6020811015613ebc57600080fd5b5051604080517f45b497470000000000000000000000000000000000000000000000000000000081526001600160a01b038d81166004830152915191909216916345b497479160248083019260209291908290030181600087803b158015613f2357600080fd5b505af1158015613f37573d6000803e3d6000fd5b505050506040513d6020811015613f4d57600080fd5b50505b604080518c8152602081018e9052428183015290516001600160a01b038c16917f8d878fd0c5092c0e518d34fa1f3d23c8b3a1b2b7f86174bdba0ceaabf68b5a53919081900360600190a2505050505050505050505050565b604080516001600160a01b0380861660248301528416604482015260648082018490528251808303909101815260849091019091526020810180517bffffffffffffffffffffffffffffffffffffffffffffffffffffffff167f23b872dd0000000000000000000000000000000000000000000000000000000017905261403190859061522c565b50505050565b60006001600160a01b038216158015906113e957506001600160a01b0382166086600001546001600160a01b0316148061408757506001600160a01b0382166086600101546001600160a01b0316145b806140a857506001600160a01b0382166086600201546001600160a01b0316145b806140c957506001600160a01b0382166086600301546001600160a01b0316145b806113e95750506069546001600160a01b0390811691161490565b816116fa576116fa816152dd565b60008282018381101561147f576040805162461bcd60e51b815260206004820152601b60248201527f536166654d6174683a206164646974696f6e206f766572666c6f770000000000604482015290519081900360640190fd5b614154614487565b6001600160a01b0383166000908152607160205260409020600781015461417e901515600f6140e4565b61419760008411806141905750600083115b60526140e4565b6141a782606b54101560566140e4565b600781018054600101905560028101546141c4904211600c6140e4565b42600282015581156142355760048101546141df90836143f2565b6004820155606b546141f19083613b13565b606b556141fe8483615330565b60405182906001600160a01b038616907f4dacaff8a707e7b54321fbdedb3b65d1f3316b59787949c034bae8946d6ff4e190600090a35b821561403157606854604080517f8ce90e820000000000000000000000000000000000000000000000000000000081526001600160a01b0387811660048301526024820187905291516000939290921691638ce90e829160448082019260209290919082900301818787803b1580156142ad57600080fd5b505af11580156142c1573d6000803e3d6000fd5b505050506040513d60208110156142d757600080fd5b505160038301549091506142eb90826143f2565b60038301556040805182815290516001600160a01b038716917f09703ae9c781fcf86e1d44c6d854c2684b3f5dcfe234dfc64f4d356d0e3cd73e919081900360200190a25050505050565b336000908152608160205260409020546143549060ff1660146140e4565b565b600061147f670de0b6b3a764000061436e8585614f60565b90614f84565b606b54606654604080516370a0823160e01b8152306004820152905160009384936143cc9391926001600160a01b03909116916370a08231916024808301926020929190829003018186803b158015613d3757600080fd5b905060835481116143de5760006143ec565b6083546143ec908290613b13565b91505090565b808201828110156113e957600080fd5b604080516001600160a01b038416602482015260448082018490528251808303909101815260649091019091526020810180517bffffffffffffffffffffffffffffffffffffffffffffffffffffffff167fa9059cbb0000000000000000000000000000000000000000000000000000000017905261448290849061522c565b505050565b606754604080517f5b14f1830000000000000000000000000000000000000000000000000000000081523060048201529051614354926001600160a01b031691635b14f183916024808301926020929190829003018186803b1580156144ec57600080fd5b505afa158015614500573d6000803e3d6000fd5b505050506040513d602081101561451657600080fd5b50511560536140e4565b6001600160a01b0382166145655760405162461bcd60e51b8152600401808060200182810382526021815260200180615ed56021913960400191505060405180910390fd5b61457182600083614feb565b6145ae81604051806060016040528060228152602001615d50602291396001600160a01b038516600090815260336020526040902054919061377e565b6001600160a01b0383166000908152603360205260409020556035546145d490826153f8565b6035556040805182815290516000916001600160a01b038516917fddf252ad1be2c89b69c2b068fc378daa952ba7f163c4a11628f55a4df523b3ef9181900360200190a35050565b60008282018183128015906146315750838112155b80614646575060008312801561464657508381125b61147f5760405162461bcd60e51b8152600401808060200182810382526021815260200180615dba6021913960400191505060405180910390fd5b60606000806146908585615455565b91509150806146e6576040805162461bcd60e51b815260206004820152601560248201527f41646472657373206e6f7420696e2061727261792e0000000000000000000000604482015290519081900360640190fd5b60006146f286846154bb565b5093506113e992505050565b60006147093061561f565b15905090565b600054610100900460ff168061472857506147286146fe565b80614736575060005460ff16155b6147715760405162461bcd60e51b815260040180806020018281038252602e815260200180615e5d602e913960400191505060405180910390fd5b600054610100900460ff1615801561479c576000805460ff1961ff0019909116610100171660011790555b6147a4615625565b6147ae83836156c6565b8015614482576000805461ff0019169055505050565b6113136001600160a01b038216151560176140e4565b604080517f48e615d8fee5c01aae8a4beb02057e459c71d65cdc5cf029e76a47019d54e5af6020808301919091523082840152606082018b9052608082018a905260a0820189905260c0820188905286151560e080840191909152835180840390910181526101009092019092528051910120600090819061485b9061386f565b9050600061486b828787876138c0565b9050614877818a613a3e565b9a9950505050505050505050565b61488d614487565b60006148988761287c565b90506148a860008211600f6140e4565b606f546001600160a01b0388166000908152607160205260409020546148d491906117e1904290613b13565b6148e76148e088612efa565b8290613b13565b89116148f357886148ff565b6148ff6148e088612efa565b985061492161491761491089612efa565b8390613b13565b8a111560076140e4565b600061492d8a8661579e565b9050868015614942575080614940614374565b105b156149e75761495b6148e0826658d15e17628000614356565b9050614966866147c4565b6001600160a01b03861663fa9bacac6149906149898466b1a2bc2ec50000614356565b84906143f2565b866040518363ffffffff1660e01b81526004018083815260200182815260200192505050600060405180830381600087803b1580156149ce57600080fd5b505af11580156149e2573d6000803e3d6000fd5b505050505b614a018982101580156149fa575060008b115b60566140e4565b614a1681614a0d614374565b101560046140e4565b614a20888b614520565b614a3388614a2e8386613b13565b615330565b8215614a5057606654614a50906001600160a01b03163385614402565b614a5c8882848d615833565b60408051828152602081018c9052428183015290516001600160a01b038a169182917f32a44bf15c44dad7691e20191a033527995d56d46ebe5115756d9e2eec16d3339181900360600190a350505050505050505050565b600080600080606760009054906101000a90046001600160a01b03166001600160a01b0316630ebdb9a26040518163ffffffff1660e01b815260040160206040518083038186803b158015614b0857600080fd5b505afa158015614b1c573d6000803e3d6000fd5b505050506040513d6020811015614b3257600080fd5b50519050600160695460ff600160a81b909104161580614be35750604080517fc7ec5d5d0000000000000000000000000000000000000000000000000000000081523060048201526001600160a01b03888116602483015291519184169163c7ec5d5d91604480820192602092909190829003018186803b158015614bb657600080fd5b505afa158015614bca573d6000803e3d6000fd5b505050506040513d6020811015614be057600080fd5b50515b9450808015614bf95750608554610100900460ff165b80614c955750604080517f4d98fbf00000000000000000000000000000000000000000000000000000000081523060048201526001600160a01b038881166024830152915191841691634d98fbf091604480820192602092909190829003018186803b158015614c6857600080fd5b505afa158015614c7c573d6000803e3d6000fd5b505050506040513d6020811015614c9257600080fd5b50515b9350808015614ca6575060855460ff165b80614d425750604080517f5066c7140000000000000000000000000000000000000000000000000000000081523060048201526001600160a01b038881166024830152915191841691635066c71491604480820192602092909190829003018186803b158015614d1557600080fd5b505afa158015614d29573d6000803e3d6000fd5b505050506040513d6020811015614d3f57600080fd5b50515b9496939550505050565b607f54600090614e0257614d5e6113f8565b15614df357614dee614d6e6113f8565b6066546040805163313ce56760e01b81529051613b0d926001600160a01b03169163313ce567916004808301926020929190829003018186803b158015614db457600080fd5b505afa158015614dc8573d6000803e3d6000fd5b505050506040513d6020811015614dde57600080fd5b505160ff16600a0a613b0d614374565b614dfb565b614dfb6158aa565b90506113ce565b606760009054906101000a90046001600160a01b03166001600160a01b031663294d237c6040518163ffffffff1660e01b815260040160206040518083038186803b158015614e5057600080fd5b505afa158015614e64573d6000803e3d6000fd5b505050506040513d6020811015614e7a57600080fd5b5051606654604080517fbc14773a0000000000000000000000000000000000000000000000000000000081523060048201526001600160a01b0392831660248201529051919092169163bc14773a916044808301926020929190829003018186803b158015614ee857600080fd5b505afa158015614efc573d6000803e3d6000fd5b505050506040513d6020811015614f1257600080fd5b505190506113ce565b614f2761163c82614037565b614f4f6000608660ff851660048110614f3c57fe5b01546001600160a01b031614605e6140e4565b8060868360ff16600481106116da57fe5b6000821580614f7b57505081810281838281614f7857fe5b04145b6113e957600080fd5b6000808211614fda576040805162461bcd60e51b815260206004820152601a60248201527f536166654d6174683a206469766973696f6e206279207a65726f000000000000604482015290519081900360640190fd5b818381614fe357fe5b049392505050565b614ff6838383614482565b6144826001600160a01b038416158061501657506001600160a01b038316155b806150ac5750606760009054906101000a90046001600160a01b03166001600160a01b031663393bfe496040518163ffffffff1660e01b815260040160206040518083038186803b15801561506a57600080fd5b505afa15801561507e573d6000803e3d6000fd5b505050506040513d602081101561509457600080fd5b505180156150ac5750606954600160a81b900460ff16155b603b6140e4565b600061147f8261436e85670de0b6b3a7640000614f60565b6001600160a01b038216615126576040805162461bcd60e51b815260206004820152601f60248201527f45524332303a206d696e7420746f20746865207a65726f206164647265737300604482015290519081900360640190fd5b61513260008383614feb565b60355461513f90826140f2565b6035556001600160a01b03821660009081526033602052604090205461516590826140f2565b6001600160a01b03831660008181526033602090815260408083209490945583518581529351929391927fddf252ad1be2c89b69c2b068fc378daa952ba7f163c4a11628f55a4df523b3ef9281900390910190a35050565b6001600160a01b03841660009081526071602052604090208315806151e457506001810154155b15615201576072546151f79060016143f2565b6072554260018201555b600681015461521090846143f2565b600682015542815561522585858460016158b6565b5050505050565b6000615281826040518060400160405280602081526020017f5361666545524332303a206c6f772d6c6576656c2063616c6c206661696c6564815250856001600160a01b03166159799092919063ffffffff16565b805190915015614482578080602001905160208110156152a057600080fd5b50516144825760405162461bcd60e51b815260040180806020018281038252602a815260200180615f3f602a913960400191505060405180910390fd5b62461bcd60e51b6000908152602060045260076024526642414223000030600a808404818106603090810160081b95839006959095019082900491820690940160101b939093010160c81b604452606490fd5b6066546001600160a01b031673c02aaa39b223fe8d0a0e5c4f27ead9083c756cc214156153e157804710156153d25773c02aaa39b223fe8d0a0e5c4f27ead9083c756cc2632e1a7d4d6153838347613b13565b6040518263ffffffff1660e01b815260040180828152602001915050600060405180830381600087803b1580156153b957600080fd5b505af11580156153cd573d6000803e3d6000fd5b505050505b6153dc8282615990565b6116fa565b6066546116fa906001600160a01b03168383614402565b60008282111561544f576040805162461bcd60e51b815260206004820152601e60248201527f536166654d6174683a207375627472616374696f6e206f766572666c6f770000604482015290519081900360640190fd5b50900390565b81516000908190815b818110156154a857846001600160a01b031686828151811061547c57fe5b60200260200101516001600160a01b031614156154a0579250600191506154b49050565b60010161545e565b50600019600092509250505b9250929050565b8151606090600090808410615517576040805162461bcd60e51b815260206004820152601860248201527f496e646578206d757374206265203c2041206c656e6774680000000000000000604482015290519081900360640190fd5b60006001820367ffffffffffffffff8111801561553357600080fd5b5060405190808252806020026020018201604052801561555d578160200160208202803683370190505b50905060005b858110156155ab5786818151811061557757fe5b602002602001015182828151811061558b57fe5b6001600160a01b0390921660209283029190910190910152600101615563565b50600185015b828110156155fc578681815181106155c557fe5b60200260200101518260018303815181106155dc57fe5b6001600160a01b03909216602092830291909101909101526001016155b1565b508086868151811061560a57fe5b60200260200101519350935050509250929050565b3b151590565b600054610100900460ff168061563e575061563e6146fe565b8061564c575060005460ff16155b6156875760405162461bcd60e51b815260040180806020018281038252602e815260200180615e5d602e913960400191505060405180910390fd5b600054610100900460ff161580156156b2576000805460ff1961ff0019909116610100171660011790555b8015611313576000805461ff001916905550565b600054610100900460ff16806156df57506156df6146fe565b806156ed575060005460ff16155b6157285760405162461bcd60e51b815260040180806020018281038252602e815260200180615e5d602e913960400191505060405180910390fd5b600054610100900460ff16158015615753576000805460ff1961ff0019909116610100171660011790555b8251615766906036906020860190615c9b565b50815161577a906037906020850190615c9b565b506038805460ff191660121790558015614482576000805461ff0019169055505050565b600061147f606660009054906101000a90046001600160a01b03166001600160a01b031663313ce5676040518163ffffffff1660e01b815260040160206040518083038186803b1580156157f157600080fd5b505afa158015615805573d6000803e3d6000fd5b505050506040513d602081101561581b57600080fd5b505160ff16600a0a61582d8585614356565b90614356565b6001600160a01b03841660009081526071602052604090206158548561287c565b615888576000808255600180830182905560058301829055600683019190915560725461588091613b13565b60725561589d565b600581015461589790856143f2565b60058201555b61522585848460006158b6565b670de0b6b3a764000090565b606854604080517fdf8a4e450000000000000000000000000000000000000000000000000000000081523060048201526001600160a01b038781166024830152604482018790526064820186905284151560848301529151919092169163df8a4e459160a480830192600092919082900301818387803b15801561593957600080fd5b505af115801561594d573d6000803e3d6000fd5b5050506001600160a01b0390941660009081526071602052604090206007018054600101905550505050565b60606159888484600085615a75565b949350505050565b804710156159e5576040805162461bcd60e51b815260206004820152601d60248201527f416464726573733a20696e73756666696369656e742062616c616e6365000000604482015290519081900360640190fd5b6040516000906001600160a01b0384169083908381818185875af1925050503d8060008114615a30576040519150601f19603f3d011682016040523d82523d6000602084013e615a35565b606091505b50509050806144825760405162461bcd60e51b815260040180806020018281038252603a815260200180615ddb603a913960400191505060405180910390fd5b606082471015615ab65760405162461bcd60e51b8152600401808060200182810382526026815260200180615e376026913960400191505060405180910390fd5b615abf8561561f565b615b10576040805162461bcd60e51b815260206004820152601d60248201527f416464726573733a2063616c6c20746f206e6f6e2d636f6e7472616374000000604482015290519081900360640190fd5b600080866001600160a01b031685876040518082805190602001908083835b60208310615b4e5780518252601f199092019160209182019101615b2f565b6001836020036101000a03801982511681845116808217855250505050505090500191505060006040518083038185875af1925050503d8060008114615bb0576040519150601f19603f3d011682016040523d82523d6000602084013e615bb5565b606091505b5091509150615bc5828286615bd0565b979650505050505050565b60608315615bdf57508161147f565b825115615bef5782518084602001fd5b60405162461bcd60e51b81526020600482018181528451602484015284518593919283926044019190850190808383600083156137d25781810151838201526020016137ba565b828054828255906000526020600020908101928215615c8b579160200282015b82811115615c8b57825182546001600160a01b0319166001600160a01b03909116178255602090920191600190910190615c56565b50615c97929150615d17565b5090565b828054600181600116156101000203166002900490600052602060002090601f016020900481019282615cd15760008555615c8b565b82601f10615cea57805160ff1916838001178555615c8b565b82800160010185558215615c8b579182015b82811115615c8b578251825591602001919060010190615cfc565b5b80821115615c975760008155600101615d1856fe45524332303a207472616e7366657220746f20746865207a65726f206164647265737345524332303a206275726e20616d6f756e7420657863656564732062616c616e636545524332303a20617070726f766520746f20746865207a65726f206164647265737345524332303a207472616e7366657220616d6f756e7420657863656564732062616c616e63655369676e6564536166654d6174683a206164646974696f6e206f766572666c6f77416464726573733a20756e61626c6520746f2073656e642076616c75652c20726563697069656e74206d6179206861766520726576657274656445434453413a20696e76616c6964207369676e6174757265202773272076616c7565416464726573733a20696e73756666696369656e742062616c616e636520666f722063616c6c496e697469616c697a61626c653a20636f6e747261637420697320616c726561647920696e697469616c697a656445434453413a20696e76616c6964207369676e6174757265202776272076616c756545524332303a207472616e7366657220616d6f756e74206578636565647320616c6c6f77616e636545524332303a206275726e2066726f6d20746865207a65726f206164647265737345524332303a207472616e736665722066726f6d20746865207a65726f206164647265737345524332303a20617070726f76652066726f6d20746865207a65726f20616464726573735361666545524332303a204552433230206f7065726174696f6e20646964206e6f74207375636365656445524332303a2064656372656173656420616c6c6f77616e63652062656c6f77207a65726fa264697066735822122072b54e7de948846f8381fcc914897299d8a45edc7f86003fb3cdaff3b97c806e64736f6c63430007060033",
  "devdoc": {
    "kind": "dev",
    "methods": {
      "addStrategy(string,string,uint256[],uint8[],address[],bytes)": {
        "params": {
          "_name": "Name of the strategy",
          "_opEncodedDatas": "Param for every operation in the strategy",
          "_opIntegrations": "Integration to use for every operation",
          "_opTypes": "Type for every operation in the strategy",
          "_stratParams": "Num params for the strategy",
          "_symbol": "Symbol of the strategy"
        }
      },
      "allocateCapitalToStrategy(uint256)": {
        "params": {
          "_capital": "Amount of capital to allocate to the strategy"
        }
      },
      "allowance(address,address)": {
        "details": "See {IERC20-allowance}."
      },
      "approve(address,uint256)": {
        "details": "See {IERC20-approve}. Requirements: - `spender` cannot be the zero address."
      },
      "balanceOf(address)": {
        "details": "See {IERC20-balanceOf}."
      },
      "claimRewardsBySig(uint256,uint256,uint256,uint256,uint256,uint8,bytes32,bytes32)": {
        "details": "Should be called instead of the `claimRewards at RD` to save gas due to   getRewards caculated off-chain.   The Keeper fee is paid out of user's reserveAsset and it is calculated off-chain.",
        "params": {
          "_babl": "BABL rewards from mining program.",
          "_fee": "Actual fee keeper demands. Have to be less than _maxFee.",
          "_maxFee": "Max fee user is willing to pay keeper. Fee is                         substracted from user wallet in reserveAsset. Fee is                         expressed in reserve asset.",
          "_nonce": "Current nonce to prevent replay attacks.",
          "_profits": "Profit rewards in reserve asset."
        }
      },
      "decimals()": {
        "details": "Returns the number of decimals used to get its user representation. For example, if `decimals` equals `2`, a balance of `505` tokens should be displayed to a user as `5,05` (`505 / 10 ** 2`). Tokens usually opt for a value of 18, imitating the relationship between Ether and Wei. This is the value {ERC20} uses, unless {_setupDecimals} is called. NOTE: This information is only used for _display_ purposes: it in no way affects any of the arithmetic of the contract, including {IERC20-balanceOf} and {IERC20-transfer}."
      },
      "decreaseAllowance(address,uint256)": {
        "details": "Atomically decreases the allowance granted to `spender` by the caller. This is an alternative to {approve} that can be used as a mitigation for problems described in {IERC20-approve}. Emits an {Approval} event indicating the updated allowance. Requirements: - `spender` cannot be the zero address. - `spender` must have allowance for the caller of at least `subtractedValue`."
      },
      "deposit(uint256,uint256,address,bool)": {
        "details": "WARN: If the reserve asset is different than ETH the sender needs to   have approved the garden.   Efficient to use of strategies.length == 0, otherwise can consume a lot   of gas ~2kk. Use `depositBySig` for gas efficiency.",
        "params": {
          "_amountIn": "Amount of the reserve asset that is received from contributor",
          "_minAmountOut": "Min amount of Garden shares to receive by contributor",
          "_mintNft": "Whether to mint NFT or not",
          "_to": "Address to mint Garden shares to"
        }
      },
      "finalizeStrategy(uint256,int256,uint256)": {
        "params": {
          "_burningAmount": "The amount of strategist stake to burn in case of                        strategy losses.",
          "_returns": "Profits or losses that the strategy received",
          "_rewards": "Amount of Reserve Asset to set aside forever"
        }
      },
      "getFinalizedStrategies()": {
        "returns": {
          "_0": "address[]        Returns list of addresses"
        }
      },
      "getLockedBalance(address)": {
        "params": {
          "_contributor": "Address of the account"
        },
        "returns": {
          "_0": "uint256                    Returns the amount of locked garden tokens for the account"
        }
      },
      "getStrategies()": {
        "returns": {
          "_0": "address[]        Returns list of addresses"
        }
      },
      "increaseAllowance(address,uint256)": {
        "details": "Atomically increases the allowance granted to `spender` by the caller. This is an alternative to {approve} that can be used as a mitigation for problems described in {IERC20-approve}. Emits an {Approval} event indicating the updated allowance. Requirements: - `spender` cannot be the zero address."
      },
      "initialize(address,address,address,string,string,uint256[],uint256,bool[])": {
        "params": {
          "_controller": "Address of the controller",
          "_creator": "Address of the creator",
          "_gardenParams": "Array of numeric garden params",
          "_initialContribution": "Initial Contribution by the Gardener",
          "_name": "Name of the Garden",
          "_publicGardenStrategistsStewards": "Public garden, public strategists rights and public stewards rights",
          "_reserveAsset": "Address of the reserve asset ERC20",
          "_symbol": "Symbol of the Garden"
        }
      },
      "name()": {
        "details": "Returns the name of the token."
      },
      "payKeeper(address,uint256)": {
        "details": "We assume that calling keeper functions should be less expensive than 2000 DAI.",
        "params": {
          "_fee": "The fee paid to keeper to compensate the gas cost",
          "_keeper": "Keeper that executed the transaction"
        }
      },
      "symbol()": {
        "details": "Returns the symbol of the token, usually a shorter version of the name."
      },
      "totalSupply()": {
        "details": "See {IERC20-totalSupply}."
      },
      "transfer(address,uint256)": {
        "details": "See {IERC20-transfer}. Requirements: - `recipient` cannot be the zero address. - the caller must have a balance of at least `amount`."
      },
      "transferFrom(address,address,uint256)": {
        "details": "See {IERC20-transferFrom}. Emits an {Approval} event indicating the updated allowance. This is not required by the EIP. See the note at the beginning of {ERC20}. Requirements: - `sender` and `recipient` cannot be the zero address. - `sender` must have a balance of at least `amount`. - the caller must have allowance for ``sender``'s tokens of at least `amount`."
      },
      "updateGardenParams(uint256[9])": {
        "params": {
          "_newParams": "New params"
        }
      },
      "withdraw(uint256,uint256,address,bool,address)": {
        "details": "ATTENTION. Do not call withPenalty unless certain. If penalty is set,   it will be applied regardless of the garden state.   It is advised to first try to withdraw with no penalty and it this   reverts then try to with penalty.",
        "params": {
          "_amountIn": "Quantity of the garden token to withdrawal",
          "_minAmountOut": "Min quantity of reserve asset to receive",
          "_to": "Address to send component assets to",
          "_unwindStrategy": "Strategy to unwind",
          "_withPenalty": "Whether or not this is an immediate withdrawal"
        }
      },
      "withdrawBySig(uint256,uint256,uint256,uint256,bool,address,uint256,uint256,uint256,uint8,bytes32,bytes32)": {
        "details": "Should be called instead of the `withdraw` to save gas due to   pricePerShare caculated off-chain. Doesn't allow to unwind strategies   contrary to `withdraw`.   The Keeper fee is paid out of user's shares.   The true _minAmountOut is actually _minAmountOut - _maxFee due to the   Keeper fee.",
        "params": {
          "_amountIn": "Quantity of the garden tokens to withdraw.",
          "_fee": "Actual fee keeper demands. Have to be less than _maxFee.",
          "_maxFee": "Max fee user is willing to pay keeper. Fee is                         substracted from the withdrawn amount. Fee is                         expressed in reserve asset.",
          "_minAmountOut": "Min quantity of reserve asset to receive.",
          "_nonce": "Current nonce to prevent replay attacks.",
          "_pricePerShare": "Price per share of the garden calculated off-chain by Keeper.",
          "_strategyNAV": "NAV of the strategy to unwind.",
          "_unwindStrategy": "Strategy to unwind",
          "_withPenalty": "Whether or not this is an immediate withdrawal"
        }
      }
    },
    "version": 1
  },
  "userdoc": {
    "kind": "user",
    "methods": {
      "addStrategy(string,string,uint256[],uint8[],address[],bytes)": {
        "notice": "Creates a new strategy calling the factory and adds it to the array"
      },
      "allocateCapitalToStrategy(uint256)": {
        "notice": "Allocates garden capital to an strategy"
      },
      "claimReturns(address[])": {
        "notice": "User can claim the rewards from the strategies that his principal was invested in."
      },
      "claimRewardsBySig(uint256,uint256,uint256,uint256,uint256,uint8,bytes32,bytes32)": {
        "notice": "This method allows users   to claim their rewards either profits or BABL."
      },
      "deposit(uint256,uint256,address,bool)": {
        "notice": "Deposits the _amountIn in reserve asset into the garden. Gurantee to   recieve at least _minAmountOut."
      },
      "finalizeStrategy(uint256,int256,uint256)": {
        "notice": "When strategy ends puts saves returns, rewards and marks strategy as  finalized."
      },
      "getFinalizedStrategies()": {
        "notice": "Gets finalized strategies"
      },
      "getLockedBalance(address)": {
        "notice": "Checks balance locked for strategists in active strategies"
      },
      "getStrategies()": {
        "notice": "Gets current strategies"
      },
      "initialize(address,address,address,string,string,uint256[],uint256,bool[])": {
        "notice": "When a new Garden is created. All parameter validations are on the BabController contract. Validations are performed already on the BabController. WARN: If the reserve Asset is different than WETH the gardener needs to have approved the controller."
      },
      "makeGardenPublic()": {
        "notice": "Makes a previously private garden public"
      },
      "payKeeper(address,uint256)": {
        "notice": "Pays gas costs back to the keeper from executing transactions   including the past debt"
      },
      "setPublicRights(bool,bool)": {
        "notice": "Gives the right to create strategies and/or voting power to garden users"
      },
      "updateGardenParams(uint256[9])": {
        "notice": "Updates Garden Params Can only be called by the creator"
      },
      "withdraw(uint256,uint256,address,bool,address)": {
        "notice": "Withdraws the reserve asset relative to the token participation in the garden   and sends it back to the sender."
      },
      "withdrawBySig(uint256,uint256,uint256,uint256,bool,address,uint256,uint256,uint256,uint8,bytes32,bytes32)": {
        "notice": "Exchanges user's gardens shairs for amount in reserve asset. This   method allows users to leave garden and reclaim their inital investment   plus profits or losses."
      }
    },
    "version": 1
  },
  "storageLayout": {
    "storage": [
      {
        "astId": 492,
        "contract": "contracts/gardens/Garden.sol:GardenV17",
        "label": "_initialized",
        "offset": 0,
        "slot": "0",
        "type": "t_bool"
      },
      {
        "astId": 495,
        "contract": "contracts/gardens/Garden.sol:GardenV17",
        "label": "_initializing",
        "offset": 1,
        "slot": "0",
        "type": "t_bool"
      },
      {
        "astId": 1447,
        "contract": "contracts/gardens/Garden.sol:GardenV17",
        "label": "__gap",
        "offset": 0,
        "slot": "1",
        "type": "t_array(t_uint256)50_storage"
      },
      {
        "astId": 571,
        "contract": "contracts/gardens/Garden.sol:GardenV17",
        "label": "_balances",
        "offset": 0,
        "slot": "51",
        "type": "t_mapping(t_address,t_uint256)"
      },
      {
        "astId": 577,
        "contract": "contracts/gardens/Garden.sol:GardenV17",
        "label": "_allowances",
        "offset": 0,
        "slot": "52",
        "type": "t_mapping(t_address,t_mapping(t_address,t_uint256))"
      },
      {
        "astId": 579,
        "contract": "contracts/gardens/Garden.sol:GardenV17",
        "label": "_totalSupply",
        "offset": 0,
        "slot": "53",
        "type": "t_uint256"
      },
      {
        "astId": 581,
        "contract": "contracts/gardens/Garden.sol:GardenV17",
        "label": "_name",
        "offset": 0,
        "slot": "54",
        "type": "t_string_storage"
      },
      {
        "astId": 583,
        "contract": "contracts/gardens/Garden.sol:GardenV17",
        "label": "_symbol",
        "offset": 0,
        "slot": "55",
        "type": "t_string_storage"
      },
      {
        "astId": 585,
        "contract": "contracts/gardens/Garden.sol:GardenV17",
        "label": "_decimals",
        "offset": 0,
        "slot": "56",
        "type": "t_uint8"
      },
      {
        "astId": 1080,
        "contract": "contracts/gardens/Garden.sol:GardenV17",
        "label": "__gap",
        "offset": 0,
        "slot": "57",
        "type": "t_array(t_uint256)44_storage"
      },
      {
        "astId": 6418,
        "contract": "contracts/gardens/Garden.sol:GardenV17",
        "label": "_status",
        "offset": 0,
        "slot": "101",
        "type": "t_uint256"
      },
      {
        "astId": 21306,
        "contract": "contracts/gardens/Garden.sol:GardenV17",
        "label": "reserveAsset",
        "offset": 0,
        "slot": "102",
        "type": "t_address"
      },
      {
        "astId": 21309,
        "contract": "contracts/gardens/Garden.sol:GardenV17",
        "label": "controller",
        "offset": 0,
        "slot": "103",
        "type": "t_contract(IBabController)38289"
      },
      {
        "astId": 21311,
        "contract": "contracts/gardens/Garden.sol:GardenV17",
        "label": "rewardsDistributor",
        "offset": 0,
        "slot": "104",
        "type": "t_contract(IRewardsDistributor)39866"
      },
      {
        "astId": 21314,
        "contract": "contracts/gardens/Garden.sol:GardenV17",
        "label": "creator",
        "offset": 0,
        "slot": "105",
        "type": "t_address"
      },
      {
        "astId": 21316,
        "contract": "contracts/gardens/Garden.sol:GardenV17",
        "label": "active",
        "offset": 20,
        "slot": "105",
        "type": "t_bool"
      },
      {
        "astId": 21319,
        "contract": "contracts/gardens/Garden.sol:GardenV17",
        "label": "privateGarden",
        "offset": 21,
        "slot": "105",
        "type": "t_bool"
      },
      {
        "astId": 21321,
        "contract": "contracts/gardens/Garden.sol:GardenV17",
        "label": "principal",
        "offset": 0,
        "slot": "106",
        "type": "t_uint256"
      },
      {
        "astId": 21324,
        "contract": "contracts/gardens/Garden.sol:GardenV17",
        "label": "reserveAssetRewardsSetAside",
        "offset": 0,
        "slot": "107",
        "type": "t_uint256"
      },
      {
        "astId": 21326,
        "contract": "contracts/gardens/Garden.sol:GardenV17",
        "label": "reserveAssetPrincipalWindow",
        "offset": 0,
        "slot": "108",
        "type": "t_uint256"
      },
      {
        "astId": 21329,
        "contract": "contracts/gardens/Garden.sol:GardenV17",
        "label": "absoluteReturns",
        "offset": 0,
        "slot": "109",
        "type": "t_int256"
      },
      {
        "astId": 21332,
        "contract": "contracts/gardens/Garden.sol:GardenV17",
        "label": "minLiquidityAsset",
        "offset": 0,
        "slot": "110",
        "type": "t_uint256"
      },
      {
        "astId": 21335,
        "contract": "contracts/gardens/Garden.sol:GardenV17",
        "label": "depositHardlock",
        "offset": 0,
        "slot": "111",
        "type": "t_uint256"
      },
      {
        "astId": 21337,
        "contract": "contracts/gardens/Garden.sol:GardenV17",
        "label": "withdrawalsOpenUntil",
        "offset": 0,
        "slot": "112",
        "type": "t_uint256"
      },
      {
        "astId": 21341,
        "contract": "contracts/gardens/Garden.sol:GardenV17",
        "label": "contributors",
        "offset": 0,
        "slot": "113",
        "type": "t_mapping(t_address,t_struct(Contributor)21303_storage)"
      },
      {
        "astId": 21344,
        "contract": "contracts/gardens/Garden.sol:GardenV17",
        "label": "totalContributors",
        "offset": 0,
        "slot": "114",
        "type": "t_uint256"
      },
      {
        "astId": 21346,
        "contract": "contracts/gardens/Garden.sol:GardenV17",
        "label": "maxContributors",
        "offset": 0,
        "slot": "115",
        "type": "t_uint256"
      },
      {
        "astId": 21349,
        "contract": "contracts/gardens/Garden.sol:GardenV17",
        "label": "maxDepositLimit",
        "offset": 0,
        "slot": "116",
        "type": "t_uint256"
      },
      {
        "astId": 21352,
        "contract": "contracts/gardens/Garden.sol:GardenV17",
        "label": "gardenInitializedAt",
        "offset": 0,
        "slot": "117",
        "type": "t_uint256"
      },
      {
        "astId": 21354,
        "contract": "contracts/gardens/Garden.sol:GardenV17",
        "label": "pid",
        "offset": 0,
        "slot": "118",
        "type": "t_uint256"
      },
      {
        "astId": 21357,
        "contract": "contracts/gardens/Garden.sol:GardenV17",
        "label": "minContribution",
        "offset": 0,
        "slot": "119",
        "type": "t_uint256"
      },
      {
        "astId": 21359,
        "contract": "contracts/gardens/Garden.sol:GardenV17",
        "label": "minGardenTokenSupply",
        "offset": 0,
        "slot": "120",
        "type": "t_uint256"
      },
      {
        "astId": 21362,
        "contract": "contracts/gardens/Garden.sol:GardenV17",
        "label": "totalStake",
        "offset": 0,
        "slot": "121",
        "type": "t_uint256"
      },
      {
        "astId": 21366,
        "contract": "contracts/gardens/Garden.sol:GardenV17",
        "label": "minVotesQuorum",
        "offset": 0,
        "slot": "122",
        "type": "t_uint256"
      },
      {
        "astId": 21369,
        "contract": "contracts/gardens/Garden.sol:GardenV17",
        "label": "minVoters",
        "offset": 0,
        "slot": "123",
        "type": "t_uint256"
      },
      {
        "astId": 21372,
        "contract": "contracts/gardens/Garden.sol:GardenV17",
        "label": "minStrategyDuration",
        "offset": 0,
        "slot": "124",
        "type": "t_uint256"
      },
      {
        "astId": 21375,
        "contract": "contracts/gardens/Garden.sol:GardenV17",
        "label": "maxStrategyDuration",
        "offset": 0,
        "slot": "125",
        "type": "t_uint256"
      },
      {
        "astId": 21378,
        "contract": "contracts/gardens/Garden.sol:GardenV17",
        "label": "strategyCooldownPeriod",
        "offset": 0,
        "slot": "126",
        "type": "t_uint256"
      },
      {
        "astId": 21381,
        "contract": "contracts/gardens/Garden.sol:GardenV17",
        "label": "strategies",
        "offset": 0,
        "slot": "127",
        "type": "t_array(t_address)dyn_storage"
      },
      {
        "astId": 21384,
        "contract": "contracts/gardens/Garden.sol:GardenV17",
        "label": "finalizedStrategies",
        "offset": 0,
        "slot": "128",
        "type": "t_array(t_address)dyn_storage"
      },
      {
        "astId": 21389,
        "contract": "contracts/gardens/Garden.sol:GardenV17",
        "label": "strategyMapping",
        "offset": 0,
        "slot": "129",
        "type": "t_mapping(t_address,t_bool)"
      },
      {
        "astId": 21394,
        "contract": "contracts/gardens/Garden.sol:GardenV17",
        "label": "isGardenStrategy",
        "offset": 0,
        "slot": "130",
        "type": "t_mapping(t_address,t_bool)"
      },
      {
        "astId": 21397,
        "contract": "contracts/gardens/Garden.sol:GardenV17",
        "label": "keeperDebt",
        "offset": 0,
        "slot": "131",
        "type": "t_uint256"
      },
      {
        "astId": 21400,
        "contract": "contracts/gardens/Garden.sol:GardenV17",
        "label": "totalKeeperFees",
        "offset": 0,
        "slot": "132",
        "type": "t_uint256"
      },
      {
        "astId": 21403,
        "contract": "contracts/gardens/Garden.sol:GardenV17",
        "label": "publicStrategists",
        "offset": 0,
        "slot": "133",
        "type": "t_bool"
      },
      {
        "astId": 21406,
        "contract": "contracts/gardens/Garden.sol:GardenV17",
        "label": "publicStewards",
        "offset": 1,
        "slot": "133",
        "type": "t_bool"
      },
      {
        "astId": 21411,
        "contract": "contracts/gardens/Garden.sol:GardenV17",
        "label": "extraCreators",
        "offset": 0,
        "slot": "134",
        "type": "t_array(t_address)4_storage"
      }
    ],
    "types": {
      "t_address": {
        "encoding": "inplace",
        "label": "address",
        "numberOfBytes": "20"
      },
      "t_array(t_address)4_storage": {
        "base": "t_address",
        "encoding": "inplace",
        "label": "address[4]",
        "numberOfBytes": "128"
      },
      "t_array(t_address)dyn_storage": {
        "base": "t_address",
        "encoding": "dynamic_array",
        "label": "address[]",
        "numberOfBytes": "32"
      },
      "t_array(t_uint256)44_storage": {
        "base": "t_uint256",
        "encoding": "inplace",
        "label": "uint256[44]",
        "numberOfBytes": "1408"
      },
      "t_array(t_uint256)50_storage": {
        "base": "t_uint256",
        "encoding": "inplace",
        "label": "uint256[50]",
        "numberOfBytes": "1600"
      },
      "t_bool": {
        "encoding": "inplace",
        "label": "bool",
        "numberOfBytes": "1"
      },
      "t_contract(IBabController)38289": {
        "encoding": "inplace",
        "label": "contract IBabController",
        "numberOfBytes": "20"
      },
      "t_contract(IRewardsDistributor)39866": {
        "encoding": "inplace",
        "label": "contract IRewardsDistributor",
        "numberOfBytes": "20"
      },
      "t_int256": {
        "encoding": "inplace",
        "label": "int256",
        "numberOfBytes": "32"
      },
      "t_mapping(t_address,t_bool)": {
        "encoding": "mapping",
        "key": "t_address",
        "label": "mapping(address => bool)",
        "numberOfBytes": "32",
        "value": "t_bool"
      },
      "t_mapping(t_address,t_mapping(t_address,t_uint256))": {
        "encoding": "mapping",
        "key": "t_address",
        "label": "mapping(address => mapping(address => uint256))",
        "numberOfBytes": "32",
        "value": "t_mapping(t_address,t_uint256)"
      },
      "t_mapping(t_address,t_struct(Contributor)21303_storage)": {
        "encoding": "mapping",
        "key": "t_address",
        "label": "mapping(address => struct Garden.Contributor)",
        "numberOfBytes": "32",
        "value": "t_struct(Contributor)21303_storage"
      },
      "t_mapping(t_address,t_uint256)": {
        "encoding": "mapping",
        "key": "t_address",
        "label": "mapping(address => uint256)",
        "numberOfBytes": "32",
        "value": "t_uint256"
      },
      "t_string_storage": {
        "encoding": "bytes",
        "label": "string",
        "numberOfBytes": "32"
      },
      "t_struct(Contributor)21303_storage": {
        "encoding": "inplace",
        "label": "struct Garden.Contributor",
        "members": [
          {
            "astId": 21288,
            "contract": "contracts/gardens/Garden.sol:GardenV17",
            "label": "lastDepositAt",
            "offset": 0,
            "slot": "0",
            "type": "t_uint256"
          },
          {
            "astId": 21290,
            "contract": "contracts/gardens/Garden.sol:GardenV17",
            "label": "initialDepositAt",
            "offset": 0,
            "slot": "1",
            "type": "t_uint256"
          },
          {
            "astId": 21292,
            "contract": "contracts/gardens/Garden.sol:GardenV17",
            "label": "claimedAt",
            "offset": 0,
            "slot": "2",
            "type": "t_uint256"
          },
          {
            "astId": 21294,
            "contract": "contracts/gardens/Garden.sol:GardenV17",
            "label": "claimedBABL",
            "offset": 0,
            "slot": "3",
            "type": "t_uint256"
          },
          {
            "astId": 21296,
            "contract": "contracts/gardens/Garden.sol:GardenV17",
            "label": "claimedRewards",
            "offset": 0,
            "slot": "4",
            "type": "t_uint256"
          },
          {
            "astId": 21298,
            "contract": "contracts/gardens/Garden.sol:GardenV17",
            "label": "withdrawnSince",
            "offset": 0,
            "slot": "5",
            "type": "t_uint256"
          },
          {
            "astId": 21300,
            "contract": "contracts/gardens/Garden.sol:GardenV17",
            "label": "totalDeposits",
            "offset": 0,
            "slot": "6",
            "type": "t_uint256"
          },
          {
            "astId": 21302,
            "contract": "contracts/gardens/Garden.sol:GardenV17",
            "label": "nonce",
            "offset": 0,
            "slot": "7",
            "type": "t_uint256"
          }
        ],
        "numberOfBytes": "256"
      },
      "t_uint256": {
        "encoding": "inplace",
        "label": "uint256",
        "numberOfBytes": "32"
      },
      "t_uint8": {
        "encoding": "inplace",
        "label": "uint8",
        "numberOfBytes": "1"
      }
    }
  }
}