{
  "address": "0xbe178FC57dbDB35b0231158d3E46cE5428e93CbA",
  "abi": [
    {
      "inputs": [
        {
          "internalType": "address",
          "name": "_controller",
          "type": "address"
        }
      ],
      "stateMutability": "nonpayable",
      "type": "constructor"
    },
    {
      "inputs": [
        {
          "internalType": "address",
          "name": "_reserveAsset",
          "type": "address"
        },
        {
          "internalType": "address",
          "name": "_creator",
          "type": "address"
        },
        {
          "internalType": "string",
          "name": "_name",
          "type": "string"
        },
        {
          "internalType": "string",
          "name": "_symbol",
          "type": "string"
        },
        {
          "internalType": "string",
          "name": "_tokenURI",
          "type": "string"
        },
        {
          "internalType": "uint256",
          "name": "_seed",
          "type": "uint256"
        },
        {
          "internalType": "uint256[]",
          "name": "_gardenParams",
          "type": "uint256[]"
        },
        {
          "internalType": "uint256",
          "name": "_initialContribution",
          "type": "uint256"
        }
      ],
      "name": "createGarden",
      "outputs": [
        {
          "internalType": "address",
          "name": "",
          "type": "address"
        }
      ],
      "stateMutability": "nonpayable",
      "type": "function"
    }
  ],
  "transactionHash": "0xd892cb8adfefef480e7ef82d1221f69196df3364c6c11b532411057d219aefb9",
  "args": [
    "0xD4a5b5fcB561dAF3aDF86F8477555B92FBa43b5F"
  ],
  "solcInputHash": "bd873b418320faeabd457a4fe7c7c19d",
  "bytecode": "0x60c060405234801561001057600080fd5b5060405161686c38038061686c8339818101604052602081101561003357600080fd5b50516001600160a01b038116610085576040805162461bcd60e51b8152602060048201526012602482015271436f6e74726f6c6c6572206973207a65726f60701b604482015290519081900360640190fd5b6001600160601b0319606082901b166080526040516100a3906100d6565b604051809103906000f0801580156100bf573d6000803e3d6000fd5b5060601b6001600160601b03191660a052506100e3565b615fef8061087d83390190565b60805160601c60a05160601c610767610116600039806102e3525080610280528061031b52806104c452506107676000f3fe608060405234801561001057600080fd5b506004361061002b5760003560e01c80638d06366f14610030575b600080fd5b610257600480360361010081101561004757600080fd5b6001600160a01b03823581169260208101359091169181019060608101604082013564010000000081111561007b57600080fd5b82018360208201111561008d57600080fd5b803590602001918460018302840111640100000000831117156100af57600080fd5b91908080601f016020809104026020016040519081016040528093929190818152602001838380828437600092019190915250929594936020810193503591505064010000000081111561010257600080fd5b82018360208201111561011457600080fd5b8035906020019184600183028401116401000000008311171561013657600080fd5b91908080601f016020809104026020016040519081016040528093929190818152602001838380828437600092019190915250929594936020810193503591505064010000000081111561018957600080fd5b82018360208201111561019b57600080fd5b803590602001918460018302840111640100000000831117156101bd57600080fd5b91908080601f0160208091040260200160405190810160405280939291908181526020018383808284376000920191909152509295843595909490935060408101925060200135905064010000000081111561021857600080fd5b82018360208201111561022a57600080fd5b8035906020019184602083028401116401000000008311171561024c57600080fd5b919350915035610273565b604080516001600160a01b039092168252519081900360200190f35b6000336001600160a01b037f000000000000000000000000000000000000000000000000000000000000000016146102dc5760405162461bcd60e51b815260040180806020018281038252602681526020018061070c6026913960400191505060405180910390fd5b60006103077f000000000000000000000000000000000000000000000000000000000000000061064b565b9050806001600160a01b0316635fe3d4ce8c7f00000000000000000000000000000000000000000000000000000000000000008d8d8d8b8b8b6040518963ffffffff1660e01b815260040180896001600160a01b03168152602001886001600160a01b03168152602001876001600160a01b03168152602001806020018060200180602001858152602001848103845289818151815260200191508051906020019080838360005b838110156103c75781810151838201526020016103af565b50505050905090810190601f1680156103f45780820380516001836020036101000a031916815260200191505b5084810383528851815288516020918201918a019080838360005b8381101561042757818101518382015260200161040f565b50505050905090810190601f1680156104545780820380516001836020036101000a031916815260200191505b508481038252878782818152602001925060200280828437600081840152601f19601f8201169050808301925050509b505050505050505050505050600060405180830381600087803b1580156104aa57600080fd5b505af11580156104be573d6000803e3d6000fd5b505050507f00000000000000000000000000000000000000000000000000000000000000006001600160a01b031663ead4c1cf6040518163ffffffff1660e01b815260040160206040518083038186803b15801561051b57600080fd5b505afa15801561052f573d6000803e3d6000fd5b505050506040513d602081101561054557600080fd5b50516040517f616ac7920000000000000000000000000000000000000000000000000000000081526001600160a01b0383811660048301908152604483018a90526060602484019081528b5160648501528b51929094169363616ac7929386938d938d9390929091608490910190602086019080838360005b838110156105d65781810151838201526020016105be565b50505050905090810190601f1680156106035780820380516001836020036101000a031916815260200191505b50945050505050600060405180830381600087803b15801561062457600080fd5b505af1158015610638573d6000803e3d6000fd5b50929d9c50505050505050505050505050565b60006040517f3d602d80600a3d3981f3363d3d373d3d3d363d7300000000000000000000000081528260601b60148201527f5af43d82803e903d91602b57fd5bf3000000000000000000000000000000000060288201526037816000f09150506001600160a01b038116610706576040805162461bcd60e51b815260206004820152601660248201527f455243313136373a20637265617465206661696c656400000000000000000000604482015290519081900360640190fd5b91905056fe4f6e6c792074686520636f6e74726f6c6c65722063616e206372656174652067617264656e73a264697066735822122041520f490fe42d0da8583f2d052d5981c4cd87a620bf3045ea5a36769c82ee9c64736f6c63430007060033608060405267016345785d8a0000607a5534801561001c57600080fd5b506001606555615fbd80620000326000396000f3fe6080604052600436106103bc5760003560e01c806386fa5063116101f2578063b49a60bb1161010d578063cb12233b116100a0578063f251fc8c1161006f578063f251fc8c1461117b578063f77c479114611190578063f8281626146111a5578063f85cb5c8146111ba576103c3565b8063cb12233b14611101578063dd62ed3e14611116578063e2073f9014611151578063f106845414611166576103c3565b8063b918ee25116100dc578063b918ee251461108f578063b9e67539146110a4578063ba5d3078146110b9578063c4086893146110ce576103c3565b8063b49a60bb1461101e578063b55b6b0514611033578063b59adc5914611048578063b63c44e71461107a576103c3565b8063a457c2d711610185578063ac39871711610154578063ac39871714610f13578063acec338a14610f5a578063b2644e6614610f86578063b304b81514610fb9576103c3565b8063a457c2d714610e77578063a63c643d14610eb0578063a9059cbb14610ec5578063aaffadf314610efe576103c3565b806395cdbedb116101c157806395cdbedb14610dea57806395d89b4114610dff5780639ab6374214610e14578063a37aa3c314610e4d576103c3565b806386fa506314610d795780638b0e9f3f14610d8e5780638dbdbe6d14610da35780638ee330b014610dd5576103c3565b8063313ce567116102e25780635fe3d4ce116102755780637550ed18116102445780637550ed1814610d2557806376e7985414610d3a578063792e42e214610d4f5780637ce9059c14610d64576103c3565b80635fe3d4ce14610b2957806360d442ca14610cc857806365f985b614610cdd57806370a0823114610cf2576103c3565b80633d8270f5116102b15780633d8270f514610aa25780633deddb3f14610ad55780634422b0dc14610aea5780634edfb99a14610b14576103c3565b8063313ce5671461098e57806339509351146109b95780633a821925146109f25780633ad8d04d14610a25576103c3565b806318160ddd1161035a57806323b872dd1161032957806323b872dd146108b8578063250caaa8146108fb578063297ce598146109405780632befcc5c14610955576103c3565b806318160ddd146105805780631e6ea56f146105a75780631f6d49421461082857806322385e381461088e576103c3565b806306061dfa1161039657806306061dfa1461045757806306fdde031461048a578063095ea7b31461051457806317ab9f201461054d576103c3565b806301681a62146103c857806302d05d3f146103fd57806302fb0c5e1461042e576103c3565b366103c357005b600080fd5b3480156103d457600080fd5b506103fb600480360360208110156103eb57600080fd5b50356001600160a01b03166111cf565b005b34801561040957600080fd5b50610412611277565b604080516001600160a01b039092168252519081900360200190f35b34801561043a57600080fd5b50610443611286565b604080519115158252519081900360200190f35b34801561046357600080fd5b506104436004803603602081101561047a57600080fd5b50356001600160a01b0316611296565b34801561049657600080fd5b5061049f6112ab565b6040805160208082528351818301528351919283929083019185019080838360005b838110156104d95781810151838201526020016104c1565b50505050905090810190601f1680156105065780820380516001836020036101000a031916815260200191505b509250505060405180910390f35b34801561052057600080fd5b506104436004803603604081101561053757600080fd5b506001600160a01b038135169060200135611341565b34801561055957600080fd5b506104436004803603602081101561057057600080fd5b50356001600160a01b031661135f565b34801561058c57600080fd5b5061059561137d565b60408051918252519081900360200190f35b3480156105b357600080fd5b506103fb600480360360c08110156105ca57600080fd5b8101906020810181356401000000008111156105e557600080fd5b8201836020820111156105f757600080fd5b8035906020019184600183028401116401000000008311171561061957600080fd5b91908080601f016020809104026020016040519081016040528093929190818152602001838380828437600092019190915250929594936020810193503591505064010000000081111561066c57600080fd5b82018360208201111561067e57600080fd5b803590602001918460018302840111640100000000831117156106a057600080fd5b91908080601f01602080910402602001604051908101604052809392919081815260200183838082843760009201919091525092959493602081019350359150506401000000008111156106f357600080fd5b82018360208201111561070557600080fd5b8035906020019184602083028401116401000000008311171561072757600080fd5b91939092909160208101903564010000000081111561074557600080fd5b82018360208201111561075757600080fd5b8035906020019184602083028401116401000000008311171561077957600080fd5b91939092909160208101903564010000000081111561079757600080fd5b8201836020820111156107a957600080fd5b803590602001918460208302840111640100000000831117156107cb57600080fd5b9193909290916020810190356401000000008111156107e957600080fd5b8201836020820111156107fb57600080fd5b8035906020019184602083028401116401000000008311171561081d57600080fd5b509092509050611383565b34801561083457600080fd5b5061085b6004803603602081101561084b57600080fd5b50356001600160a01b03166118e5565b604080519687526020870195909552858501939093526060850191909152608084015260a0830152519081900360c00190f35b34801561089a57600080fd5b50610595600480360360208110156108b157600080fd5b503561191a565b3480156108c457600080fd5b50610443600480360360608110156108db57600080fd5b506001600160a01b03813581169160208101359091169060400135611948565b34801561090757600080fd5b506103fb6004803603608081101561091e57600080fd5b50803590602081013590604081013590606001356001600160a01b03166119d0565b34801561094c57600080fd5b50610595611c05565b34801561096157600080fd5b506103fb6004803603604081101561097857600080fd5b506001600160a01b038135169060200135611c0b565b34801561099a57600080fd5b506109a3611c38565b6040805160ff9092168252519081900360200190f35b3480156109c557600080fd5b50610443600480360360408110156109dc57600080fd5b506001600160a01b038135169060200135611c41565b3480156109fe57600080fd5b5061044360048036036020811015610a1557600080fd5b50356001600160a01b0316611c8f565b348015610a3157600080fd5b506103fb60048036036020811015610a4857600080fd5b810190602081018135640100000000811115610a6357600080fd5b820183602082011115610a7557600080fd5b80359060200191846020830284011164010000000083111715610a9757600080fd5b509092509050611ca4565b348015610aae57600080fd5b5061085b60048036036020811015610ac557600080fd5b50356001600160a01b0316611ffd565b348015610ae157600080fd5b5061059561203a565b348015610af657600080fd5b506103fb60048036036020811015610b0d57600080fd5b5035612040565b348015610b2057600080fd5b506104436121b4565b6103fb600480360360e0811015610b3f57600080fd5b6001600160a01b0382358116926020810135821692604082013590921691810190608081016060820135640100000000811115610b7b57600080fd5b820183602082011115610b8d57600080fd5b80359060200191846001830284011164010000000083111715610baf57600080fd5b91908080601f0160208091040260200160405190810160405280939291908181526020018383808284376000920191909152509295949360208101935035915050640100000000811115610c0257600080fd5b820183602082011115610c1457600080fd5b80359060200191846001830284011164010000000083111715610c3657600080fd5b91908080601f0160208091040260200160405190810160405280939291908181526020018383808284376000920191909152509295949360208101935035915050640100000000811115610c8957600080fd5b820183602082011115610c9b57600080fd5b80359060200191846020830284011164010000000083111715610cbd57600080fd5b9193509150356121c4565b348015610cd457600080fd5b50610595612560565b348015610ce957600080fd5b50610595612566565b348015610cfe57600080fd5b5061059560048036036020811015610d1557600080fd5b50356001600160a01b031661256c565b348015610d3157600080fd5b50610595612587565b348015610d4657600080fd5b5061059561258d565b348015610d5b57600080fd5b50610595612592565b348015610d7057600080fd5b50610595612598565b348015610d8557600080fd5b5061059561259e565b348015610d9a57600080fd5b506105956125a4565b6103fb60048036036060811015610db957600080fd5b50803590602081013590604001356001600160a01b03166125aa565b348015610de157600080fd5b50610595612814565b348015610df657600080fd5b5061059561281a565b348015610e0b57600080fd5b5061049f612820565b348015610e2057600080fd5b506103fb60048036036040811015610e3757600080fd5b506001600160a01b038135169060200135612881565b348015610e5957600080fd5b506103fb60048036036020811015610e7057600080fd5b50356129e3565b348015610e8357600080fd5b5061044360048036036040811015610e9a57600080fd5b506001600160a01b038135169060200135612e76565b348015610ebc57600080fd5b50610595612ede565b348015610ed157600080fd5b5061044360048036036040811015610ee857600080fd5b506001600160a01b038135169060200135612ee4565b348015610f0a57600080fd5b50610595612ef8565b348015610f1f57600080fd5b506103fb60048036036080811015610f3657600080fd5b508035906020810135906001600160a01b0360408201351690606001351515612efe565b348015610f6657600080fd5b506103fb60048036036020811015610f7d57600080fd5b503515156130d7565b348015610f9257600080fd5b506103fb60048036036020811015610fa957600080fd5b50356001600160a01b031661312e565b348015610fc557600080fd5b50610fce6131d7565b60408051602080825283518183015283519192839290830191858101910280838360005b8381101561100a578181015183820152602001610ff2565b505050509050019250505060405180910390f35b34801561102a57600080fd5b50610fce613238565b34801561103f57600080fd5b50610595613298565b34801561105457600080fd5b506105956004803603604081101561106b57600080fd5b5080359060200135151561329e565b34801561108657600080fd5b5061059561348a565b34801561109b57600080fd5b50610595613490565b3480156110b057600080fd5b5061059561349c565b3480156110c557600080fd5b506105956134a2565b3480156110da57600080fd5b50610595600480360360208110156110f157600080fd5b50356001600160a01b03166134a8565b34801561110d57600080fd5b506105956135a5565b34801561112257600080fd5b506105956004803603604081101561113957600080fd5b506001600160a01b03813581169160200135166135ab565b34801561115d57600080fd5b506105956135d6565b34801561117257600080fd5b506105956135dc565b34801561118757600080fd5b506105956135e2565b34801561119c57600080fd5b506104126135e8565b3480156111b157600080fd5b506103fb6135f7565b3480156111c657600080fd5b506104126136b9565b6066546111ec906001600160a01b0383811691161415600e6136c8565b6000816001600160a01b03166370a08231306040518263ffffffff1660e01b815260040180826001600160a01b0316815260200191505060206040518083038186803b15801561123b57600080fd5b505afa15801561124f573d6000803e3d6000fd5b505050506040513d602081101561126557600080fd5b5051905061127382826136d6565b5050565b6068546001600160a01b031681565b606854600160a01b900460ff1681565b60816020526000908152604090205460ff1681565b60368054604080516020601f60026000196101006001881615020190951694909404938401819004810282018101909252828152606093909290918301828280156113375780601f1061130c57610100808354040283529160200191611337565b820191906000526020600020905b81548152906001019060200180831161131a57829003601f168201915b5050505050905090565b600061135561134e613772565b8484613776565b5060015b92915050565b6001600160a01b031660009081526080602052604090205460ff1690565b60355490565b61138b613862565b61139361387c565b606754604080517fc8ed947f00000000000000000000000000000000000000000000000000000000815290516114b8926001600160a01b03169163c8ed947f916004808301926020929190829003018186803b1580156113f257600080fd5b505afa158015611406573d6000803e3d6000fd5b505050506040513d602081101561141c57600080fd5b5051604080517f5066c71400000000000000000000000000000000000000000000000000000000815230600482015233602482015290516001600160a01b0390921691635066c71491604480820192602092909190829003018186803b15801561148557600080fd5b505afa158015611499573d6000803e3d6000fd5b505050506040513d60208110156114af57600080fd5b5051601e6136c8565b607e546114c990601411601a6136c8565b6114d760058814604d6136c8565b606754604080517f9ef3571000000000000000000000000000000000000000000000000000000000815290516000926001600160a01b031691639ef35710916004808301926020929190829003018186803b15801561153557600080fd5b505afa158015611549573d6000803e3d6000fd5b505050506040513d602081101561155f57600080fd5b81019080805190602001909291905050506001600160a01b03166378afca3e8c8c33308e8e6040518763ffffffff1660e01b8152600401808060200180602001876001600160a01b03168152602001866001600160a01b031681526020018060200184810384528a818151815260200191508051906020019080838360005b838110156115f65781810151838201526020016115de565b50505050905090810190601f1680156116235780820380516001836020036101000a031916815260200191505b5084810383528951815289516020918201918b019080838360005b8381101561165657818101518382015260200161163e565b50505050905090810190601f1680156116835780820380516001836020036101000a031916815260200191505b508481038252868682818152602001925060200280828437600081840152601f19601f8201169050808301925050509950505050505050505050602060405180830381600087803b1580156116d757600080fd5b505af11580156116eb573d6000803e3d6000fd5b505050506040513d602081101561170157600080fd5b50516001600160a01b0381166000908152608060205260409020805460ff19166001908117909155909150611755908a908a9081811061173d57fe5b9050602002013560795461389290919063ffffffff16565b607955607e80546001810182556000919091527f0f2ada1f2dbae48ae468fe0cdb7bcda7d0cffee8545442e682273ba01a6203a701805473ffffffffffffffffffffffffffffffffffffffff19166001600160a01b0383169081179091556040517fc2ea0bc40000000000000000000000000000000000000000000000000000000081526060600482019081526064820189905263c2ea0bc4918a918a918a918a918a918a918190602481019060448101906084018a60208b0280828437600083820152601f01601f19169091018581038452888152602090810191508990890280828437600083820152601f01601f19169091018581038352868152602090810191508790870280828437600081840152601f19601f8201169050808301925050509950505050505050505050600060405180830381600087803b15801561189d57600080fd5b505af11580156118b1573d6000803e3d6000fd5b5050506001600160a01b039091166000908152608160205260409020805460ff191660011790555050505050505050505050565b607160205260009081526040902080546001820154600283015460038401546004850154600590950154939492939192909186565b606654600090819061194090611939906001600160a01b0316856138ec565b6000613a6c565b949350505050565b6000611955848484613b99565b6119c584611961613772565b6119c085604051806060016040528060288152602001615e7f602891396001600160a01b038a1660009081526034602052604081209061199f613772565b6001600160a01b031681526020810191909152604001600020549190613cf6565b613776565b5060015b9392505050565b33600090815260806020526040902054611a6f9060ff168015611a685750306001600160a01b0316336001600160a01b03166356ba88b86040518163ffffffff1660e01b815260040160206040518083038186803b158015611a3157600080fd5b505afa158015611a45573d6000803e3d6000fd5b505050506040513d6020811015611a5b57600080fd5b50516001600160a01b0316145b60146136c8565b611a8c611a8783611a81606954613d8d565b90613df1565b613e56565b606955607054421015611acc57611ac4611abd611ab442607054613ead90919063ffffffff16565b606f5490613ead565b4290613892565b607055611ade565b606f54611ada904290613892565b6070555b606a54611aeb9084613892565b606a55606b54611afb9085613892565b606b55606c54611b0b9083613df1565b606c81905550611b7e81607e805480602002602001604051908101604052809291908181526020018280548015611b6b57602002820191906000526020600020905b81546001600160a01b03168152600190910190602001808311611b4d575b5050505050613f0a90919063ffffffff16565b8051611b9291607e91602090910190615c48565b50607f8054600181019091557f66925e85f1a4743fd8d60ba595ed74887b7caf321dd83b21e04d77c1153834080180546001600160a01b0390921673ffffffffffffffffffffffffffffffffffffffff19909216821790556000908152608060205260409020805460ff19169055505050565b607c5481565b611c13613f87565b611c1c8261256c565b8110611c2e57611c2b8261256c565b90505b6112738282613fa5565b60385460ff1690565b6000611355611c4e613772565b846119c08560346000611c5f613772565b6001600160a01b03908116825260208083019390935260409182016000908120918c168152925290205490613892565b60806020526000908152604090205460ff1681565b60026065541415611cfc576040805162461bcd60e51b815260206004820152601f60248201527f5265656e7472616e637947756172643a207265656e7472616e742063616c6c00604482015290519081900360640190fd5b6002606555611d0961387c565b3360009081526071602052604090206002810154611d2a904211600c6136c8565b6067546040805162fca95560e61b815290516000926001600160a01b031691633f2a5540916004808301926020929190829003018186803b158015611d6e57600080fd5b505afa158015611d82573d6000803e3d6000fd5b505050506040513d6020811015611d9857600080fd5b50516040517f69795e93000000000000000000000000000000000000000000000000000000008152306004820181815233602484018190526060604485019081526064850189905294955060009485946001600160a01b038816946369795e93949093928c928c929190608401846020850280828437600081840152601f19601f82011690508083019250505095505050505050604080518083038186803b158015611e4357600080fd5b505afa158015611e57573d6000803e3d6000fd5b505050506040513d6040811015611e6d57600080fd5b5080516020909101519092506bffffffffffffffffffffffff1690508115801590611e985750814710155b15611eff576004840154611eac9083613892565b6004850155611ebb33836140a1565b606a54611ec89083613ead565b606a55604051829033907f4dacaff8a707e7b54321fbdedb3b65d1f3316b59787949c034bae8946d6ff4e190600090a34260028501555b8015611ff0576003840154611f149082613892565b6003850155604080517f6bf15bbd0000000000000000000000000000000000000000000000000000000081523360048201526bffffffffffffffffffffffff8316602482015290516001600160a01b03851691636bf15bbd91604480830192600092919082900301818387803b158015611f8d57600080fd5b505af1158015611fa1573d6000803e3d6000fd5b5050604080516bffffffffffffffffffffffff8516815290513393507f475c0834f68d797672d1b72d49bd010f85eecfd60d3fb7afb7ede1a03530f4a492509081900360200190a24260028501555b5050600160655550505050565b6001600160a01b03166000908152607160205260409020805460018201546002830154600384015460048501546005909501549395929491939092565b607d5481565b612048613f87565b612050613862565b612058614186565b606b54606654604080516370a0823160e01b815230600482015290516000936120e19390926001600160a01b03909116916370a0823191602480820192602092909190829003018186803b1580156120af57600080fd5b505afa1580156120c3573d6000803e3d6000fd5b505050506040513d60208110156120d957600080fd5b505190613ead565b9050600061216983606760009054906101000a90046001600160a01b03166001600160a01b031663313754776040518163ffffffff1660e01b815260040160206040518083038186803b15801561213757600080fd5b505afa15801561214b573d6000803e3d6000fd5b505050506040513d602081101561216157600080fd5b50519061419b565b9050612182826121798584613892565b111560046136c8565b606654612198906001600160a01b0316826136d6565b6066546121af906001600160a01b031633856141b9565b505050565b606854600160a81b900460ff1681565b600054610100900460ff16806121dd57506121dd614239565b806121eb575060005460ff16155b6122265760405162461bcd60e51b815260040180806020018281038252602e815260200180615e30602e913960400191505060405180910390fd5b600054610100900460ff16158015612251576000805460ff1961ff0019909116610100171660011790555b6122606032875110604f6136c8565b6122766001600160a01b038816151560176136c8565b61228c6001600160a01b038916151560176136c8565b61230160008a6001600160a01b031663313ce5676040518163ffffffff1660e01b815260040160206040518083038186803b1580156122ca57600080fd5b505afa1580156122de573d6000803e3d6000fd5b505050506040513d60208110156122f457600080fd5b505160ff161160176136c8565b61230f60098414604e6136c8565b612392886001600160a01b031663f979cdd98b6040518263ffffffff1660e01b815260040180826001600160a01b0316815260200191505060206040518083038186803b15801561235f57600080fd5b505afa158015612373573d6000803e3d6000fd5b505050506040513d602081101561238957600080fd5b5051600e6136c8565b61239c868661424a565b606780546001600160a01b03808b1673ffffffffffffffffffffffffffffffffffffffff199283168117909355606680548d831690841617905560688054918b1691909216179055604080517f7177fec90000000000000000000000000000000000000000000000000000000081529051637177fec991600480820192602092909190829003018186803b15801561243357600080fd5b505afa158015612447573d6000803e3d6000fd5b505050506040513d602081101561245d57600080fd5b50516073556068805460ff60a81b1916600160a81b17905561253082858560008161248457fe5b905060200201358686600181811061249857fe5b90506020020135878760028181106124ac57fe5b90506020020135888860038181106124c057fe5b90506020020135898960048181106124d457fe5b905060200201358a8a60058181106124e857fe5b905060200201358b8b60068181106124fc57fe5b905060200201358c8c600781811061251057fe5b905060200201358d8d600881811061252457fe5b905060200201356142ff565b6068805460ff60a01b1916600160a01b1790558015612555576000805461ff00191690555b505050505050505050565b60825481565b606f5481565b6001600160a01b031660009081526033602052604090205490565b606e5481565b601481565b606c5481565b60705481565b60735481565b60795481565b60026065541415612602576040805162461bcd60e51b815260206004820152601f60248201527f5265656e7472616e637947756172643a207265656e7472616e742063616c6c00604482015290519081900360640190fd5b600260655561260f613862565b60685461275490600160a81b900460ff1615806127355750606760009054906101000a90046001600160a01b03166001600160a01b031663c8ed947f6040518163ffffffff1660e01b815260040160206040518083038186803b15801561267557600080fd5b505afa158015612689573d6000803e3d6000fd5b505050506040513d602081101561269f57600080fd5b5051604080517fc7ec5d5d00000000000000000000000000000000000000000000000000000000815230600482015233602482015290516001600160a01b039092169163c7ec5d5d91604480820192602092909190829003018186803b15801561270857600080fd5b505afa15801561271c573d6000803e3d6000fd5b505050506040513d602081101561273257600080fd5b50515b8061274d57506068546001600160a01b038381169116145b601d6136c8565b60745415612780576127806074546127778560695461389290919063ffffffff16565b111560006136c8565b6127926073546072541115603d6136c8565b61279b83614610565b6000806127a9856001613a6c565b915091506127bb8482101560026136c8565b6066546127d1906001600160a01b0316836136d6565b6127f183826127eb8460695461389290919063ffffffff16565b856147ae565b6128086078546127ff61137d565b101560026136c8565b50506001606555505050565b606b5481565b607b5481565b60378054604080516020601f60026000196101006001881615020190951694909404938401819004810282018101909252828152606093909290918301828280156113375780601f1061130c57610100808354040283529160200191611337565b6067546040805163411137c360e01b81526001600160a01b038581166004830152915161290693929092169163411137c391602480820192602092909190829003018186803b1580156128d357600080fd5b505afa1580156128e7573d6000803e3d6000fd5b505050506040513d60208110156128fd57600080fd5b505160126136c8565b61290e613f87565b60825461291b9082613892565b6082819055158015906129a65750608254606654604080516370a0823160e01b815230600482015290516001600160a01b03909216916370a0823191602480820192602092909190829003018186803b15801561297757600080fd5b505afa15801561298b573d6000803e3d6000fd5b505050506040513d60208110156129a157600080fd5b505110155b15611273576082546066546129c8916001600160a01b039091169084906141b9565b6082546069546129d791613ead565b60695560006082555050565b6129eb613862565b6067546040805163411137c360e01b81523360048201529051612a37926001600160a01b03169163411137c3916024808301926020929190829003018186803b1580156128d357600080fd5b612a4d670de0b6b3a764000082111560136136c8565b606654604080516370a0823160e01b815230600482015290516000926001600160a01b0316916370a08231916024808301926020929190829003018186803b158015612a9857600080fd5b505afa158015612aac573d6000803e3d6000fd5b505050506040513d6020811015612ac257600080fd5b5051905060005b607e548110156121af576000607e8281548110612ae257fe5b9060005260206000200160009054906101000a90046001600160a01b031690506000612b7d607954612b77846001600160a01b0316630d15fd776040518163ffffffff1660e01b815260040160206040518083038186803b158015612b4657600080fd5b505afa158015612b5a573d6000803e3d6000fd5b505050506040513d6020811015612b7057600080fd5b5051613e56565b90614968565b90506000612b8b858361419b565b9050612c8d62015180612c87856001600160a01b0316630fb5a6b46040518163ffffffff1660e01b815260040160206040518083038186803b158015612bd057600080fd5b505afa158015612be4573d6000803e3d6000fd5b505050506040513d6020811015612bfa57600080fd5b5051604080517f825deffe00000000000000000000000000000000000000000000000000000000815290516001600160a01b0389169163825deffe916004808301926020929190829003018186803b158015612c5557600080fd5b505afa158015612c69573d6000803e3d6000fd5b505050506040513d6020811015612c7f57600080fd5b505190613892565b90613ead565b42108015612cff5750826001600160a01b031663302733566040518163ffffffff1660e01b815260040160206040518083038186803b158015612ccf57600080fd5b505afa158015612ce3573d6000803e3d6000fd5b505050506040513d6020811015612cf957600080fd5b50518110155b8015612dff5750826001600160a01b03166393baae416040518163ffffffff1660e01b815260040160206040518083038186803b158015612d3f57600080fd5b505afa158015612d53573d6000803e3d6000fd5b505050506040513d6020811015612d6957600080fd5b5051604080517f03cddb2c0000000000000000000000000000000000000000000000000000000081529051612dfc916001600160a01b038716916303cddb2c91600480820192602092909190829003018186803b158015612dc957600080fd5b505afa158015612ddd573d6000803e3d6000fd5b505050506040513d6020811015612df357600080fd5b50518390613892565b11155b15612e6b57826001600160a01b031663f101e82b82886040518363ffffffff1660e01b81526004018083815260200182815260200192505050600060405180830381600087803b158015612e5257600080fd5b505af1158015612e66573d6000803e3d6000fd5b505050505b505050600101612ac9565b6000611355612e83613772565b846119c085604051806060016040528060258152602001615f636025913960346000612ead613772565b6001600160a01b03908116825260208083019390935260409182016000908120918d16815292529020549190613cf6565b606d5481565b6000611355612ef1613772565b8484613b99565b60775481565b60026065541415612f56576040805162461bcd60e51b815260206004820152601f60248201527f5265656e7472616e637947756172643a207265656e7472616e742063616c6c00604482015290519081900360640190fd5b6002606555612f6361387c565b80612f7857612f73848484614980565b6130cc565b612f8d612f853386614c52565b15601c6136c8565b6000612fab612fa486670214e8348c4f000061419b565b8690613ead565b9050600080612fb8614e53565b909350915061303a9050612fcc8385613ead565b826001600160a01b031663302733566040518163ffffffff1660e01b815260040160206040518083038186803b15801561300557600080fd5b505afa158015613019573d6000803e3d6000fd5b505050506040513d602081101561302f57600080fd5b5051111560446136c8565b806001600160a01b03166342296724846040518263ffffffff1660e01b815260040180828152602001915050600060405180830381600087803b15801561308057600080fd5b505af1158015613094573d6000803e3d6000fd5b505050506130bc336130b7670214e8348c4f00008a61419b90919063ffffffff16565b613fa5565b6130c883600187614980565b5050505b505060016065555050565b6067546130f0906001600160a01b0316331460106136c8565b6068546131109060ff600160a01b909104161515821515141560166136c8565b60688054911515600160a01b0260ff60a01b19909216919091179055565b613136613f87565b6131a181607e805480602002602001604051908101604052809291908181526020018280548015611b6b576020028201919060005260206000209081546001600160a01b03168152600190910190602001808311611b4d575050505050613f0a90919063ffffffff16565b80516131b591607e91602090910190615c48565b506001600160a01b03166000908152608060205260409020805460ff19169055565b6060607f80548060200260200160405190810160405280929190818152602001828054801561133757602002820191906000526020600020905b81546001600160a01b03168152600190910190602001808311613211575050505050905090565b6060607e805480602002602001604051908101604052809291908181526020018280548015611337576020028201919060005260206000209081546001600160a01b03168152600190910190602001808311613211575050505050905090565b60785481565b600080606660009054906101000a90046001600160a01b03166001600160a01b031663313ce5676040518163ffffffff1660e01b815260040160206040518083038186803b1580156132ef57600080fd5b505afa158015613303573d6000803e3d6000fd5b505050506040513d602081101561331957600080fd5b505160ff16600a0a9050600061332f8583614968565b905061333961137d565b6133465791506113599050565b606754604080517f294d237c00000000000000000000000000000000000000000000000000000000815290516000926001600160a01b03169163294d237c916004808301926020929190829003018186803b1580156133a457600080fd5b505afa1580156133b8573d6000803e3d6000fd5b505050506040513d60208110156133ce57600080fd5b505160665460408051635e0a3b9d60e11b81523060048201526001600160a01b0392831660248201529051919092169163bc14773a916044808301926020929190829003018186803b15801561342357600080fd5b505afa158015613437573d6000803e3d6000fd5b505050506040513d602081101561344d57600080fd5b5051905084156134765761347361346c61346561137d565b8490614968565b8290613ead565b90505b6134808282614968565b9695505050505050565b60745481565b670214e8348c4f000081565b606a5481565b60695481565b60008060005b607e5481101561358b576000607e82815481106134c757fe5b6000918252602080832090910154604080517f950c78220000000000000000000000000000000000000000000000000000000081526001600160a01b038a81166004830152915191909216945061356c92859263950c78229260248083019392829003018186803b15801561353b57600080fd5b505afa15801561354f573d6000803e3d6000fd5b505050506040513d602081101561356557600080fd5b5051614fd1565b905080156135815761357e8482613892565b93505b50506001016134ae565b50806135968461256c565b1015611359576119c98361256c565b60755481565b6001600160a01b03918216600090815260346020908152604080832093909416825291909152205490565b607a5481565b60765481565b60725481565b6067546001600160a01b031681565b606854613610906001600160a01b0316331460116136c8565b6068546136aa90600160a81b900460ff1680156136a35750606760009054906101000a90046001600160a01b03166001600160a01b0316637f80e05b6040518163ffffffff1660e01b815260040160206040518083038186803b15801561367657600080fd5b505afa15801561368a573d6000803e3d6000fd5b505050506040513d60208110156136a057600080fd5b50515b60436136c8565b6068805460ff60a81b19169055565b6066546001600160a01b031681565b816112735761127381614fe2565b606754604080517f61d027b30000000000000000000000000000000000000000000000000000000081529051611273926001600160a01b0316916361d027b3916004808301926020929190829003018186803b15801561373557600080fd5b505afa158015613749573d6000803e3d6000fd5b505050506040513d602081101561375f57600080fd5b50516001600160a01b03841690836141b9565b3390565b6001600160a01b0383166137bb5760405162461bcd60e51b8152600401808060200182810382526024815260200180615eed6024913960400191505060405180910390fd5b6001600160a01b0382166138005760405162461bcd60e51b8152600401808060200182810382526022815260200180615d8d6022913960400191505060405180910390fd5b6001600160a01b03808416600081815260346020908152604080832094871680845294825291829020859055815185815291517f8c5be1e5ebec7d5bd14f71427d1e84f3dd0314c0f7b2291e5b200ac8c7c3b9259281900390910190a3505050565b60685461387a90600160a01b900460ff1660156136c8565b565b61387a600061388a3361256c565b11600f6136c8565b6000828201838110156119c9576040805162461bcd60e51b815260206004820152601b60248201527f536166654d6174683a206164646974696f6e206f766572666c6f770000000000604482015290519081900360640190fd5b600080606760009054906101000a90046001600160a01b03166001600160a01b031663294d237c6040518163ffffffff1660e01b815260040160206040518083038186803b15801561393d57600080fd5b505afa158015613951573d6000803e3d6000fd5b505050506040513d602081101561396757600080fd5b505160408051635e0a3b9d60e11b81523060048201526001600160a01b0387811660248301529151919092169163bc14773a916044808301926020929190829003018186803b1580156139b957600080fd5b505afa1580156139cd573d6000803e3d6000fd5b505050506040513d60208110156139e357600080fd5b5051905060006139f3848361419b565b90506000613480866001600160a01b031663313ce5676040518163ffffffff1660e01b815260040160206040518083038186803b158015613a3357600080fd5b505afa158015613a47573d6000803e3d6000fd5b505050506040513d6020811015613a5d57600080fd5b5051839060ff16600a0a61419b565b600080600083613af557606760009054906101000a90046001600160a01b03166001600160a01b031663259072e16040518163ffffffff1660e01b815260040160206040518083038186803b158015613ac457600080fd5b505afa158015613ad8573d6000803e3d6000fd5b505050506040513d6020811015613aee57600080fd5b5051613b70565b606760009054906101000a90046001600160a01b03166001600160a01b03166350d9f37f6040518163ffffffff1660e01b815260040160206040518083038186803b158015613b4357600080fd5b505afa158015613b57573d6000803e3d6000fd5b505050506040513d6020811015613b6d57600080fd5b50515b90506000613b7e828761419b565b905080613b8b8782613ead565b9350935050505b9250929050565b6001600160a01b038316613bde5760405162461bcd60e51b8152600401808060200182810382526025815260200180615ec86025913960400191505060405180910390fd5b6001600160a01b038216613c235760405162461bcd60e51b8152600401808060200182810382526023815260200180615d486023913960400191505060405180910390fd5b613c2e838383615035565b613c6b81604051806060016040528060268152602001615daf602691396001600160a01b0386166000908152603360205260409020549190613cf6565b6001600160a01b038085166000908152603360205260408082209390935590841681522054613c9a9082613892565b6001600160a01b0380841660008181526033602090815260409182902094909455805185815290519193928716927fddf252ad1be2c89b69c2b068fc378daa952ba7f163c4a11628f55a4df523b3ef92918290030190a3505050565b60008184841115613d855760405162461bcd60e51b81526004018080602001828103825283818151815260200191508051906020019080838360005b83811015613d4a578181015183820152602001613d32565b50505050905090810190601f168015613d775780820380516001836020036101000a031916815260200191505b509250505060405180910390fd5b505050900390565b60007f80000000000000000000000000000000000000000000000000000000000000008210613ded5760405162461bcd60e51b8152600401808060200182810382526028815260200180615f116028913960400191505060405180910390fd5b5090565b6000828201818312801590613e065750838112155b80613e1b5750600083128015613e1b57508381125b6119c95760405162461bcd60e51b8152600401808060200182810382526021815260200180615dd56021913960400191505060405180910390fd5b600080821215613ded576040805162461bcd60e51b815260206004820181905260248201527f53616665436173743a2076616c7565206d75737420626520706f736974697665604482015290519081900360640190fd5b600082821115613f04576040805162461bcd60e51b815260206004820152601e60248201527f536166654d6174683a207375627472616374696f6e206f766572666c6f770000604482015290519081900360640190fd5b50900390565b6060600080613f1985856150fd565b9150915080613f6f576040805162461bcd60e51b815260206004820152601560248201527f41646472657373206e6f7420696e2061727261792e0000000000000000000000604482015290519081900360640190fd5b6000613f7b8684615160565b50935061135992505050565b3360009081526080602052604090205461387a9060ff1660146136c8565b6001600160a01b038216613fea5760405162461bcd60e51b8152600401808060200182810382526021815260200180615ea76021913960400191505060405180910390fd5b613ff682600083615035565b61403381604051806060016040528060228152602001615d6b602291396001600160a01b0385166000908152603360205260409020549190613cf6565b6001600160a01b0383166000908152603360205260409020556035546140599082613ead565b6035556040805182815290516000916001600160a01b038516917fddf252ad1be2c89b69c2b068fc378daa952ba7f163c4a11628f55a4df523b3ef9181900360200190a35050565b804710156140f6576040805162461bcd60e51b815260206004820152601d60248201527f416464726573733a20696e73756666696369656e742062616c616e6365000000604482015290519081900360640190fd5b6040516000906001600160a01b0384169083908381818185875af1925050503d8060008114614141576040519150601f19603f3d011682016040523d82523d6000602084013e614146565b606091505b50509050806121af5760405162461bcd60e51b815260040180806020018281038252603a815260200180615df6603a913960400191505060405180910390fd5b607054421061387a5760006070819055606b55565b60006119c9670de0b6b3a76400006141b385856152c4565b9061531d565b604080516001600160a01b038416602482015260448082018490528251808303909101815260649091019091526020810180517bffffffffffffffffffffffffffffffffffffffffffffffffffffffff167fa9059cbb000000000000000000000000000000000000000000000000000000001790526121af908490615384565b600061424430615435565b15905090565b600054610100900460ff16806142635750614263614239565b80614271575060005460ff16155b6142ac5760405162461bcd60e51b815260040180806020018281038252602e815260200180615e30602e913960400191505060405180910390fd5b600054610100900460ff161580156142d7576000805460ff1961ff0019909116610100171660011790555b6142df61543b565b6142e983836154dd565b80156121af576000805461ff0019169055505050565b61430d6000861160016136c8565b61431b858b101560016136c8565b614329888b101560046136c8565b614337898b111560006136c8565b606654614395906001600160a01b031673c02aaa39b223fe8d0a0e5c4f27ead9083c756cc214614372576a084595161401484a00000061437e565b69021e19e0c9bab24000005b6affffffffffffffffffffff168a111560006136c8565b6067546001600160a01b03166143ae89151560026136c8565b6143bc6000881160036136c8565b606654604080517ff05017eb0000000000000000000000000000000000000000000000000000000081526001600160a01b039283166004820152905161445a9284169163f05017eb916024808301926020929190829003018186803b15801561442457600080fd5b505afa158015614438573d6000803e3d6000fd5b505050506040513d602081101561444e57600080fd5b505189101560046136c8565b606754604080517f8e20fb070000000000000000000000000000000000000000000000000000000081529051614574926001600160a01b031691638e20fb07916004808301926020929190829003018186803b1580156144b957600080fd5b505afa1580156144cd573d6000803e3d6000fd5b505050506040513d60208110156144e357600080fd5b5051861180159061456d5750606760009054906101000a90046001600160a01b03166001600160a01b0316636b2fb6786040518163ffffffff1660e01b815260040160206040518083038186803b15801561453d57600080fd5b505afa158015614551573d6000803e3d6000fd5b505050506040513d602081101561456757600080fd5b50518610155b60186136c8565b6145a867016345785d8a000085101580156145a1575061459d67016345785d8a000060056152c4565b8511155b60196136c8565b6145b683831015603f6136c8565b6145d76201518084101580156145d057506302932e008311155b603f6136c8565b50607794909455607d92909255607a55607b55607c5560789290925560749290925542607555606d91909155606e555062093a80606f55565b61462060775482101560016136c8565b606654604080516370a0823160e01b815230600482015290516000926001600160a01b0316916370a08231916024808301926020929190829003018186803b15801561466b57600080fd5b505afa15801561467f573d6000803e3d6000fd5b505050506040513d602081101561469557600080fd5b50516066549091506001600160a01b031673c02aaa39b223fe8d0a0e5c4f27ead9083c756cc21480156146c85750600034115b1561473a5773c02aaa39b223fe8d0a0e5c4f27ead9083c756cc26001600160a01b031663d0e30db0346040518263ffffffff1660e01b81526004016000604051808303818588803b15801561471c57600080fd5b505af1158015614730573d6000803e3d6000fd5b5050505050614752565b606654614752906001600160a01b03163330856155b5565b606654604080516370a0823160e01b815230600482015290516112739285926147a69286926001600160a01b0316916370a08231916024808301926020929190829003018186803b1580156120af57600080fd5b1460056136c8565b60006147b98561256c565b90506147cf856147ca86600161329e565b615643565b6147d98582615735565b6069839055606754604080517fead4c1cf00000000000000000000000000000000000000000000000000000000815290516001600160a01b039092169163ead4c1cf91600480820192602092909190829003018186803b15801561483c57600080fd5b505afa158015614850573d6000803e3d6000fd5b505050506040513d602081101561486657600080fd5b5051604080517f45b497470000000000000000000000000000000000000000000000000000000081526001600160a01b038881166004830152915191909216916345b497479160248083019260209291908290030181600087803b1580156148cd57600080fd5b505af11580156148e1573d6000803e3d6000fd5b505050506040513d60208110156148f757600080fd5b5061490f9050600061490761137d565b1160046136c8565b604080513481526020810186905280820184905242606082015290516001600160a01b038716917f38574f2bc5e150a9fd6f2ced17988994c3d1d8cafd2b73402da66a97164e8e3f919081900360800190a25050505050565b60006119c9826141b385670de0b6b3a76400006152c4565b61499661498c3361256c565b84111560066136c8565b606e54336000908152607160205260409020546149c291906149b9904290613ead565b101560036136c8565b604080517fc40868930000000000000000000000000000000000000000000000000000000081523360048201529051614a5f91614a5591309163c4086893916024808301926020929190829003018186803b158015614a2057600080fd5b505afa158015614a34573d6000803e3d6000fd5b505050506040513d6020811015614a4a57600080fd5b5051612c873361256c565b84111560076136c8565b614a67614186565b606654600090614a80906001600160a01b0316856138ec565b9050600080614a90836000613a6c565b915091506000614aa287612c8761137d565b9050614ab8614ab13384614c52565b60046136c8565b614ac860785482101560026136c8565b614ad68683101560026136c8565b614ae03388613fa5565b6066546001600160a01b031673c02aaa39b223fe8d0a0e5c4f27ead9083c756cc21415614b915781471015614b825773c02aaa39b223fe8d0a0e5c4f27ead9083c756cc2632e1a7d4d614b338447613ead565b6040518263ffffffff1660e01b815260040180828152602001915050600060405180830381600087803b158015614b6957600080fd5b505af1158015614b7d573d6000803e3d6000fd5b505050505b614b8c85836140a1565b614ba8565b606654614ba8906001600160a01b031633846141b9565b614bb1826158fb565b606654614bc7906001600160a01b0316846136d6565b6000614bd38385613892565b9050614be581606954101560086136c8565b606954614bf29082613ead565b60695560408051848152602081018a905280820186905242606082015290516001600160a01b0388169133917f25b65b867b695d9502ad64f047cea91edc82a4d945f78fb241dd9f58d10cbb359181900360800190a35050505050505050565b606654604080516370a0823160e01b8152306004820152905160009283926001600160a01b03909116916370a0823191602480820192602092909190829003018186803b158015614ca257600080fd5b505afa158015614cb6573d6000803e3d6000fd5b505050506040513d6020811015614ccc57600080fd5b50519050614cde8382101560426136c8565b6070544211614e4957606b54614cf49084613892565b811115614d05576001915050611359565b6067546040805162fca95560e61b815290516000926001600160a01b031691633f2a5540916004808301926020929190829003018186803b158015614d4957600080fd5b505afa158015614d5d573d6000803e3d6000fd5b505050506040513d6020811015614d7357600080fd5b50516001600160a01b0386811660008181526071602090815260408083206001015481517f7602bdde0000000000000000000000000000000000000000000000000000000081523060048201526024810195909552604485015242606485015251949550909392851692637602bdde926084808201939291829003018186803b158015614dff57600080fd5b505afa158015614e13573d6000803e3d6000fd5b505050506040513d6020811015614e2957600080fd5b5051606b549091508590614e3d908361419b565b10159350505050611359565b8211159050611359565b60008080808080805b607e5460ff82161015614fc4576000607e8260ff1681548110614e7b57fe5b60009182526020918290200154604080517fe4df5e1a00000000000000000000000000000000000000000000000000000000815290516001600160a01b039092169350839263e4df5e1a92600480840193829003018186803b158015614ee057600080fd5b505afa158015614ef4573d6000803e3d6000fd5b505050506040513d6020811015614f0a57600080fd5b505115614fbb576000816001600160a01b03166303cddb2c6040518163ffffffff1660e01b815260040160206040518083038186803b158015614f4c57600080fd5b505afa158015614f60573d6000803e3d6000fd5b505050506040513d6020811015614f7657600080fd5b50519050614f848682613892565b955084811115614fb957809450607e8360ff1681548110614fa157fe5b6000918252602090912001546001600160a01b031693505b505b50600101614e5c565b5091945092509050909192565b600080821215613ded575060000390565b62461bcd60e51b6000908152602060045260076024526642414223000030600a808404818106603090810160081b95839006959095019082900491820690940160101b939093010160c81b604452606490fd5b6150408383836121af565b6121af6001600160a01b038416158061506057506001600160a01b038316155b806150f65750606760009054906101000a90046001600160a01b03166001600160a01b031663393bfe496040518163ffffffff1660e01b815260040160206040518083038186803b1580156150b457600080fd5b505afa1580156150c8573d6000803e3d6000fd5b505050506040513d60208110156150de57600080fd5b505180156150f65750606854600160a81b900460ff16155b603b6136c8565b81516000908190815b8181101561515057846001600160a01b031686828151811061512457fe5b60200260200101516001600160a01b0316141561514857925060019150613b929050565b600101615106565b5060001995600095509350505050565b81516060906000908084106151bc576040805162461bcd60e51b815260206004820152601860248201527f496e646578206d757374206265203c2041206c656e6774680000000000000000604482015290519081900360640190fd5b60006001820367ffffffffffffffff811180156151d857600080fd5b50604051908082528060200260200182016040528015615202578160200160208202803683370190505b50905060005b858110156152505786818151811061521c57fe5b602002602001015182828151811061523057fe5b6001600160a01b0390921660209283029190910190910152600101615208565b50600185015b828110156152a15786818151811061526a57fe5b602002602001015182600183038151811061528157fe5b6001600160a01b0390921660209283029190910190910152600101615256565b50808686815181106152af57fe5b60200260200101519350935050509250929050565b6000826152d357506000611359565b828202828482816152e057fe5b04146119c95760405162461bcd60e51b8152600401808060200182810382526021815260200180615e5e6021913960400191505060405180910390fd5b6000808211615373576040805162461bcd60e51b815260206004820152601a60248201527f536166654d6174683a206469766973696f6e206279207a65726f000000000000604482015290519081900360640190fd5b81838161537c57fe5b049392505050565b60006153d9826040518060400160405280602081526020017f5361666545524332303a206c6f772d6c6576656c2063616c6c206661696c6564815250856001600160a01b0316615abd9092919063ffffffff16565b8051909150156121af578080602001905160208110156153f857600080fd5b50516121af5760405162461bcd60e51b815260040180806020018281038252602a815260200180615f39602a913960400191505060405180910390fd5b3b151590565b600054610100900460ff16806154545750615454614239565b80615462575060005460ff16155b61549d5760405162461bcd60e51b815260040180806020018281038252602e815260200180615e30602e913960400191505060405180910390fd5b600054610100900460ff161580156154c8576000805460ff1961ff0019909116610100171660011790555b80156154da576000805461ff00191690555b50565b600054610100900460ff16806154f657506154f6614239565b80615504575060005460ff16155b61553f5760405162461bcd60e51b815260040180806020018281038252602e815260200180615e30602e913960400191505060405180910390fd5b600054610100900460ff1615801561556a576000805460ff1961ff0019909116610100171660011790555b825161557d906036906020860190615cb6565b508151615591906037906020850190615cb6565b506038805460ff1916601217905580156121af576000805461ff0019169055505050565b604080516001600160a01b0380861660248301528416604482015260648082018490528251808303909101815260849091019091526020810180517bffffffffffffffffffffffffffffffffffffffffffffffffffffffff167f23b872dd0000000000000000000000000000000000000000000000000000000017905261563d908590615384565b50505050565b6001600160a01b03821661569e576040805162461bcd60e51b815260206004820152601f60248201527f45524332303a206d696e7420746f20746865207a65726f206164647265737300604482015290519081900360640190fd5b6156aa60008383615035565b6035546156b79082613892565b6035556001600160a01b0382166000908152603360205260409020546156dd9082613892565b6001600160a01b03831660008181526033602090815260408083209490945583518581529351929391927fddf252ad1be2c89b69c2b068fc378daa952ba7f163c4a11628f55a4df523b3ef9281900390910190a35050565b6001600160a01b038216600090815260716020526040902081158061575c57506001810154155b1561578a5761577260735460725410603d6136c8565b607254615780906001613892565b6072554260018201555b4281556067546040805162fca95560e61b815290516000926001600160a01b031691633f2a5540916004808301926020929190829003018186803b1580156157d157600080fd5b505afa1580156157e5573d6000803e3d6000fd5b505050506040513d60208110156157fb57600080fd5b50516076546040805163df14e06f60e01b81523060048201526024810192909252519192506001600160a01b0383169163df14e06f9160448082019260009290919082900301818387803b15801561585257600080fd5b505af1158015615866573d6000803e3d6000fd5b505060765460408051632db4b3a760e01b81523060048201526001600160a01b0389811660248301526044820189905260016064830152608482019390935290519185169350632db4b3a7925060a48082019260009290919082900301818387803b1580156158d457600080fd5b505af11580156158e8573d6000803e3d6000fd5b5050607680546001019055505050505050565b336000818152607160205260409020906159149061256c565b6159415760008082556001808301829055600583019190915560725461593991613ead565b607255615956565b60058101546159509083613892565b60058201555b6067546040805162fca95560e61b815290516000926001600160a01b031691633f2a5540916004808301926020929190829003018186803b15801561599a57600080fd5b505afa1580156159ae573d6000803e3d6000fd5b505050506040513d60208110156159c457600080fd5b50516076546040805163df14e06f60e01b81523060048201526024810192909252519192506001600160a01b0383169163df14e06f9160448082019260009290919082900301818387803b158015615a1b57600080fd5b505af1158015615a2f573d6000803e3d6000fd5b505060765460408051632db4b3a760e01b815230600482015233602482015260006044820181905260648201819052608482019390935290516001600160a01b0386169450632db4b3a7935060a4808301939282900301818387803b158015615a9757600080fd5b505af1158015615aab573d6000803e3d6000fd5b50506076805460010190555050505050565b6060611940848460008585615ad185615435565b615b22576040805162461bcd60e51b815260206004820152601d60248201527f416464726573733a2063616c6c20746f206e6f6e2d636f6e7472616374000000604482015290519081900360640190fd5b600080866001600160a01b031685876040518082805190602001908083835b60208310615b605780518252601f199092019160209182019101615b41565b6001836020036101000a03801982511681845116808217855250505050505090500191505060006040518083038185875af1925050503d8060008114615bc2576040519150601f19603f3d011682016040523d82523d6000602084013e615bc7565b606091505b5091509150615bd7828286615be2565b979650505050505050565b60608315615bf15750816119c9565b825115615c015782518084602001fd5b60405162461bcd60e51b8152602060048201818152845160248401528451859391928392604401919085019080838360008315613d4a578181015183820152602001613d32565b828054828255906000526020600020908101928215615caa579160200282015b82811115615caa578251825473ffffffffffffffffffffffffffffffffffffffff19166001600160a01b03909116178255602090920191600190910190615c68565b50613ded929150615d32565b828054600181600116156101000203166002900490600052602060002090601f016020900481019282615cec5760008555615caa565b82601f10615d0557805160ff1916838001178555615caa565b82800160010185558215615caa579182015b82811115615caa578251825591602001919060010190615d17565b5b80821115613ded5760008155600101615d3356fe45524332303a207472616e7366657220746f20746865207a65726f206164647265737345524332303a206275726e20616d6f756e7420657863656564732062616c616e636545524332303a20617070726f766520746f20746865207a65726f206164647265737345524332303a207472616e7366657220616d6f756e7420657863656564732062616c616e63655369676e6564536166654d6174683a206164646974696f6e206f766572666c6f77416464726573733a20756e61626c6520746f2073656e642076616c75652c20726563697069656e74206d61792068617665207265766572746564496e697469616c697a61626c653a20636f6e747261637420697320616c726561647920696e697469616c697a6564536166654d6174683a206d756c7469706c69636174696f6e206f766572666c6f7745524332303a207472616e7366657220616d6f756e74206578636565647320616c6c6f77616e636545524332303a206275726e2066726f6d20746865207a65726f206164647265737345524332303a207472616e736665722066726f6d20746865207a65726f206164647265737345524332303a20617070726f76652066726f6d20746865207a65726f206164647265737353616665436173743a2076616c756520646f65736e27742066697420696e20616e20696e743235365361666545524332303a204552433230206f7065726174696f6e20646964206e6f74207375636365656445524332303a2064656372656173656420616c6c6f77616e63652062656c6f77207a65726fa264697066735822122031a5a9d4dfe8369ee82a0ed4e07c2759b179ef1a2ae67478b907d23b7aea015864736f6c63430007060033",
  "devdoc": {
    "author": "Babylon Finance Factory to create garden contracts",
    "kind": "dev",
    "methods": {
      "createGarden(address,address,string,string,string,uint256,uint256[],uint256)": {
        "params": {
          "_creator": "Address of the creator",
          "_gardenParams": "Array of numeric params in the garden",
          "_initialContribution": "Initial Contribution by the Gardener",
          "_name": "Name of the Garden",
          "_reserveAsset": "Address of the reserve asset ERC20",
          "_seed": "Seed to regenerate the garden NFT",
          "_symbol": "Symbol of the Garden",
          "_tokenURI": "URL of the garden NFT JSON"
        }
      }
    },
    "title": "GardenFactory",
    "version": 1
  },
  "userdoc": {
    "kind": "user",
    "methods": {
      "createGarden(address,address,string,string,string,uint256,uint256[],uint256)": {
        "notice": "Creates a garden using minimal proxies"
      }
    },
    "version": 1
  },
  "storageLayout": {
    "storage": [],
    "types": null
  }
}