{
  "address": "0xc97343720BA8806f15B2D85163b6733f0D8f83eb",
  "abi": [
    {
      "inputs": [
        {
          "internalType": "contract IBabController",
          "name": "_controller",
          "type": "address"
        }
      ],
      "stateMutability": "nonpayable",
      "type": "constructor"
    },
    {
      "inputs": [
        {
          "internalType": "address",
          "name": "_address",
          "type": "address"
        }
      ],
      "name": "getAllProphets",
      "outputs": [
        {
          "internalType": "uint256[]",
          "name": "",
          "type": "uint256[]"
        }
      ],
      "stateMutability": "view",
      "type": "function"
    },
    {
      "inputs": [
        {
          "internalType": "contract IGarden",
          "name": "_garden",
          "type": "address"
        },
        {
          "internalType": "address",
          "name": "_user",
          "type": "address"
        }
      ],
      "name": "getContributionAndRewards",
      "outputs": [
        {
          "internalType": "uint256[10]",
          "name": "",
          "type": "uint256[10]"
        },
        {
          "internalType": "uint256[]",
          "name": "",
          "type": "uint256[]"
        },
        {
          "internalType": "uint256[]",
          "name": "",
          "type": "uint256[]"
        }
      ],
      "stateMutability": "view",
      "type": "function"
    },
    {
      "inputs": [
        {
          "internalType": "address",
          "name": "_garden",
          "type": "address"
        }
      ],
      "name": "getGardenDetails",
      "outputs": [
        {
          "internalType": "string",
          "name": "",
          "type": "string"
        },
        {
          "internalType": "string",
          "name": "",
          "type": "string"
        },
        {
          "internalType": "address[5]",
          "name": "",
          "type": "address[5]"
        },
        {
          "internalType": "address",
          "name": "",
          "type": "address"
        },
        {
          "internalType": "bool[4]",
          "name": "",
          "type": "bool[4]"
        },
        {
          "internalType": "address[]",
          "name": "",
          "type": "address[]"
        },
        {
          "internalType": "address[]",
          "name": "",
          "type": "address[]"
        },
        {
          "internalType": "uint256[13]",
          "name": "",
          "type": "uint256[13]"
        },
        {
          "internalType": "uint256[10]",
          "name": "",
          "type": "uint256[10]"
        },
        {
          "internalType": "uint256[3]",
          "name": "",
          "type": "uint256[3]"
        }
      ],
      "stateMutability": "view",
      "type": "function"
    },
    {
      "inputs": [
        {
          "internalType": "address",
          "name": "_garden",
          "type": "address"
        },
        {
          "internalType": "address",
          "name": "_user",
          "type": "address"
        }
      ],
      "name": "getGardenPermissions",
      "outputs": [
        {
          "internalType": "bool",
          "name": "",
          "type": "bool"
        },
        {
          "internalType": "bool",
          "name": "",
          "type": "bool"
        },
        {
          "internalType": "bool",
          "name": "",
          "type": "bool"
        }
      ],
      "stateMutability": "view",
      "type": "function"
    },
    {
      "inputs": [
        {
          "internalType": "address",
          "name": "_garden",
          "type": "address"
        }
      ],
      "name": "getGardenPrincipal",
      "outputs": [
        {
          "internalType": "uint256",
          "name": "",
          "type": "uint256"
        }
      ],
      "stateMutability": "view",
      "type": "function"
    },
    {
      "inputs": [
        {
          "internalType": "contract IGarden",
          "name": "_garden",
          "type": "address"
        },
        {
          "internalType": "address",
          "name": "_user",
          "type": "address"
        }
      ],
      "name": "getGardenUserAvgPricePerShare",
      "outputs": [
        {
          "internalType": "uint256",
          "name": "",
          "type": "uint256"
        }
      ],
      "stateMutability": "view",
      "type": "function"
    },
    {
      "inputs": [
        {
          "internalType": "address",
          "name": "_user",
          "type": "address"
        },
        {
          "internalType": "uint256",
          "name": "_offset",
          "type": "uint256"
        }
      ],
      "name": "getGardensUser",
      "outputs": [
        {
          "internalType": "address[]",
          "name": "",
          "type": "address[]"
        },
        {
          "internalType": "bool[]",
          "name": "",
          "type": "bool[]"
        },
        {
          "components": [
            {
              "internalType": "address",
              "name": "addr",
              "type": "address"
            },
            {
              "internalType": "string",
              "name": "name",
              "type": "string"
            },
            {
              "internalType": "bool",
              "name": "publicLP",
              "type": "bool"
            },
            {
              "internalType": "uint256",
              "name": "verified",
              "type": "uint256"
            },
            {
              "internalType": "uint256",
              "name": "totalContributors",
              "type": "uint256"
            },
            {
              "internalType": "address",
              "name": "reserveAsset",
              "type": "address"
            },
            {
              "internalType": "uint256",
              "name": "netAssetValue",
              "type": "uint256"
            }
          ],
          "internalType": "struct IGardenViewer.PartialGardenInfo[]",
          "name": "",
          "type": "tuple[]"
        }
      ],
      "stateMutability": "view",
      "type": "function"
    },
    {
      "inputs": [
        {
          "internalType": "address",
          "name": "_garden",
          "type": "address"
        },
        {
          "internalType": "address[]",
          "name": "_members",
          "type": "address[]"
        }
      ],
      "name": "getPotentialVotes",
      "outputs": [
        {
          "internalType": "uint256",
          "name": "",
          "type": "uint256"
        }
      ],
      "stateMutability": "view",
      "type": "function"
    },
    {
      "inputs": [
        {
          "internalType": "address",
          "name": "_tokenIn",
          "type": "address"
        },
        {
          "internalType": "address",
          "name": "_reserveAsset",
          "type": "address"
        }
      ],
      "name": "getPriceAndLiquidity",
      "outputs": [
        {
          "internalType": "uint256",
          "name": "",
          "type": "uint256"
        },
        {
          "internalType": "uint256",
          "name": "",
          "type": "uint256"
        }
      ],
      "stateMutability": "view",
      "type": "function"
    }
  ],
  "transactionHash": "0x5c9b0a466cd39791c4db9203d5027c5ae30850ea731a2af09c28ed895fe7f9df",
  "args": [
    "0xD4a5b5fcB561dAF3aDF86F8477555B92FBa43b5F"
  ],
  "numDeployments": 1,
  "solcInputHash": "52326babd87e7897610fb1d2a71f018c",
  "bytecode": "0x60a06040523480156200001157600080fd5b5060405162004cc338038062004cc383398101604081905262000034916200004a565b60601b6001600160601b0319166080526200007a565b6000602082840312156200005c578081fd5b81516001600160a01b038116811462000073578182fd5b9392505050565b60805160601c614bfe620000c5600039806101cc52806102f65280610996528061130152806129e15280612e525280613407528061360e52806137325280613a135250614bfe6000f3fe608060405234801561001057600080fd5b50600436106100a35760003560e01c8063b105b04411610076578063d005ce5c1161005b578063d005ce5c14610169578063e644fe0914610192578063ede1209e146101a5576100a3565b8063b105b04414610134578063bf6f933714610156576100a3565b80631b76c124146100a85780634c038f20146100d2578063932a6942146100f45780639cc98ff914610114575b600080fd5b6100bb6100b636600461431a565b6101c7565b6040516100c9929190614b34565b60405180910390f35b6100e56100e036600461431a565b6102ee565b6040516100c993929190614a3a565b6101076101023660046145bd565b6106c2565b6040516100c99190614a54565b6101276101223660046142e2565b6107ec565b6040516100c99190614a27565b6101476101423660046143d4565b61098d565b6040516100c9939291906148eb565b610107610164366004614352565b610ff3565b61017c6101773660046142e2565b6111ef565b6040516100c99a99989796959493929190614a5d565b6101076101a03660046142e2565b612868565b6101b86101b33660046145bd565b612e3b565b6040516100c9939291906149f0565b6000807f00000000000000000000000000000000000000000000000000000000000000006001600160a01b0316632630c12f6040518163ffffffff1660e01b815260040160206040518083038186803b15801561022357600080fd5b505afa158015610237573d6000803e3d6000fd5b505050506040513d601f19601f8201168201806040525081019061025b91906142fe565b6001600160a01b031663ac41865a85856040518363ffffffff1660e01b815260040161028892919061485b565b60206040518083038186803b1580156102a057600080fd5b505afa1580156102b4573d6000803e3d6000fd5b505050506040513d601f19601f820116820180604052508101906102d891906145cf565b6102e28585613063565b915091505b9250929050565b6000806000807f00000000000000000000000000000000000000000000000000000000000000006001600160a01b0316630ebdb9a26040518163ffffffff1660e01b815260040160206040518083038186803b15801561034d57600080fd5b505afa158015610361573d6000803e3d6000fd5b505050506040513d601f19601f8201168201806040525081019061038591906142fe565b6040517fc7ec5d5d0000000000000000000000000000000000000000000000000000000081529091506001600160a01b0382169063c7ec5d5d906103cf908990899060040161485b565b60206040518083038186803b1580156103e757600080fd5b505afa1580156103fb573d6000803e3d6000fd5b505050506040513d601f19601f8201168201806040525081019061041f919061459d565b806104985750856001600160a01b031663550c2b7f6040518163ffffffff1660e01b815260040160206040518083038186803b15801561045e57600080fd5b505afa158015610472573d6000803e3d6000fd5b505050506040513d601f19601f82011682018060405250810190610496919061459d565b155b6040517f4d98fbf00000000000000000000000000000000000000000000000000000000081526001600160a01b03831690634d98fbf0906104df908a908a9060040161485b565b60206040518083038186803b1580156104f757600080fd5b505afa15801561050b573d6000803e3d6000fd5b505050506040513d601f19601f8201168201806040525081019061052f919061459d565b806105a65750866001600160a01b03166377e7ff3c6040518163ffffffff1660e01b815260040160206040518083038186803b15801561056e57600080fd5b505afa158015610582573d6000803e3d6000fd5b505050506040513d601f19601f820116820180604052508101906105a6919061459d565b6040517f5066c7140000000000000000000000000000000000000000000000000000000081526001600160a01b03841690635066c714906105ed908b908b9060040161485b565b60206040518083038186803b15801561060557600080fd5b505afa158015610619573d6000803e3d6000fd5b505050506040513d601f19601f8201168201806040525081019061063d919061459d565b806106b45750876001600160a01b0316631780998b6040518163ffffffff1660e01b815260040160206040518083038186803b15801561067c57600080fd5b505afa158015610690573d6000803e3d6000fd5b505050506040513d601f19601f820116820180604052508101906106b4919061459d565b935093509350509250925092565b600080836001600160a01b0316633d8270f5846040518263ffffffff1660e01b81526004016106f19190614847565b6101206040518083038186803b15801561070a57600080fd5b505afa15801561071e573d6000803e3d6000fd5b505050506040513d601f19601f82011682018060405250810190610742919061468f565b505096505050505050506000811161075b5760006107e2565b6040516370a0823160e01b81526107e2906001600160a01b038616906370a082319061078b908790600401614847565b60206040518083038186803b1580156107a357600080fd5b505afa1580156107b7573d6000803e3d6000fd5b505050506040513d601f19601f820116820180604052508101906107db91906145cf565b829061353d565b9150505b92915050565b6040516370a0823160e01b81526060907326231a65ef80706307bbe71f032dc1e5bf28ce439060009082906370a082319061082b908790600401614847565b60206040518083038186803b15801561084357600080fd5b505afa158015610857573d6000803e3d6000fd5b505050506040513d601f19601f8201168201806040525081019061087b91906145cf565b905060008167ffffffffffffffff8111801561089657600080fd5b506040519080825280602002602001820160405280156108c0578160200160208202803683370190505b50905060005b82811015610984576040517f2f745c590000000000000000000000000000000000000000000000000000000081526001600160a01b03851690632f745c599061091590899085906004016148d2565b60206040518083038186803b15801561092d57600080fd5b505afa158015610941573d6000803e3d6000fd5b505050506040513d601f19601f8201168201806040525081019061096591906145cf565b82828151811061097157fe5b60209081029190910101526001016108c6565b50949350505050565b606080606060007f00000000000000000000000000000000000000000000000000000000000000006001600160a01b031663daec2a1a6040518163ffffffff1660e01b815260040160006040518083038186803b1580156109ed57600080fd5b505afa158015610a01573d6000803e3d6000fd5b505050506040513d6000823e601f3d908101601f19168201604052610a2991908101906143ff565b60408051603280825261066082019092529192506000919060208201610640803683375050604080516032808252610660820190925292935060009291506020820161064080368337505060408051603280825261066082019092529293506000929150602082015b610a9a6141f9565b815260200190600190039081610a925790505090506000603285511115610acb57610ac6896032613555565b610ace565b84515b905084518110610adf578451610ae1565b805b90506000895b82811015610fe0576000610b0e888381518110610b0057fe5b60200260200101518e6102ee565b505090508015610fd757878281518110610b2457fe5b6020026020010151878460ff1681518110610b3b57fe5b6001600160a01b0392831660209182029290920101528d16610b5e576000610bf1565b6000888381518110610b6c57fe5b60200260200101516001600160a01b03166370a082318f6040518263ffffffff1660e01b8152600401610b9f9190614847565b60206040518083038186803b158015610bb757600080fd5b505afa158015610bcb573d6000803e3d6000fd5b505050506040513d601f19601f82011682018060405250810190610bef91906145cf565b115b868460ff1681518110610c0057fe5b6020026020010190151590811515815250506000888381518110610c2057fe5b602002602001015190506040518060e001604052808a8581518110610c4157fe5b60200260200101516001600160a01b03168152602001826001600160a01b03166306fdde036040518163ffffffff1660e01b815260040160006040518083038186803b158015610c9057600080fd5b505afa158015610ca4573d6000803e3d6000fd5b505050506040513d6000823e601f3d908101601f19168201604052610ccc91908101906145e7565b8152602001826001600160a01b031663550c2b7f6040518163ffffffff1660e01b815260040160206040518083038186803b158015610d0a57600080fd5b505afa158015610d1e573d6000803e3d6000fd5b505050506040513d601f19601f82011682018060405250810190610d42919061459d565b1515158152602001826001600160a01b031663b1b758676040518163ffffffff1660e01b815260040160206040518083038186803b158015610d8357600080fd5b505afa158015610d97573d6000803e3d6000fd5b505050506040513d601f19601f82011682018060405250810190610dbb91906145cf565b8152602001826001600160a01b031663f251fc8c6040518163ffffffff1660e01b815260040160206040518083038186803b158015610df957600080fd5b505afa158015610e0d573d6000803e3d6000fd5b505050506040513d601f19601f82011682018060405250810190610e3191906145cf565b8152602001826001600160a01b031663f85cb5c86040518163ffffffff1660e01b815260040160206040518083038186803b158015610e6f57600080fd5b505afa158015610e83573d6000803e3d6000fd5b505050506040513d601f19601f82011682018060405250810190610ea791906142fe565b6001600160a01b03168152602001610fb2670de0b6b3a7640000610fac856001600160a01b031663ac9dc9e86040518163ffffffff1660e01b815260040160206040518083038186803b158015610efd57600080fd5b505afa158015610f11573d6000803e3d6000fd5b505050506040513d601f19601f82011682018060405250810190610f3591906145cf565b866001600160a01b03166318160ddd6040518163ffffffff1660e01b815260040160206040518083038186803b158015610f6e57600080fd5b505afa158015610f82573d6000803e3d6000fd5b505050506040513d601f19601f82011682018060405250810190610fa691906145cf565b90613565565b90613589565b815250868560ff1681518110610fc457fe5b6020026020010181905250836001019350505b50600101610ae7565b5093975091955093505050509250925092565b600080849050806001600160a01b03166377e7ff3c6040518163ffffffff1660e01b815260040160206040518083038186803b15801561103257600080fd5b505afa158015611046573d6000803e3d6000fd5b505050506040513d601f19601f8201168201806040525081019061106a919061459d565b156110e857846001600160a01b03166318160ddd6040518163ffffffff1660e01b815260040160206040518083038186803b1580156110a857600080fd5b505afa1580156110bc573d6000803e3d6000fd5b505050506040513d601f19601f820116820180604052508101906110e091906145cf565b9150506111e8565b6000805b848110156111e35760008061111c8989898681811061110757fe5b90506020020160208101906100e091906142e2565b509150915081801561112b5750805b156111d9576111d6896001600160a01b03166370a082318a8a8781811061114e57fe5b905060200201602081019061116391906142e2565b6040518263ffffffff1660e01b815260040161117f9190614847565b60206040518083038186803b15801561119757600080fd5b505afa1580156111ab573d6000803e3d6000fd5b505050506040513d601f19601f820116820180604052508101906111cf91906145cf565b8590613555565b93505b50506001016110ec565b509150505b9392505050565b6060806111fa61424a565b6000611204614268565b60608061120f614286565b6112176142a5565b61121f6142c4565b8a600061122b82612868565b60408051600480825260a0820190925291925060009190602082016080803683370190505090508d6001600160a01b03166318160ddd6040518163ffffffff1660e01b815260040160206040518083038186803b15801561128b57600080fd5b505afa15801561129f573d6000803e3d6000fd5b505050506040513d601f19601f820116820180604052508101906112c391906145cf565b816000815181106112d057fe5b6020026020010181815250506000816000815181106112eb57fe5b6020026020010151116112ff57600061147d565b7f00000000000000000000000000000000000000000000000000000000000000006001600160a01b031663294d237c6040518163ffffffff1660e01b815260040160206040518083038186803b15801561135857600080fd5b505afa15801561136c573d6000803e3d6000fd5b505050506040513d601f19601f8201168201806040525081019061139091906142fe565b6001600160a01b031663bc14773a8f856001600160a01b031663f85cb5c86040518163ffffffff1660e01b815260040160206040518083038186803b1580156113d857600080fd5b505afa1580156113ec573d6000803e3d6000fd5b505050506040513d601f19601f8201168201806040525081019061141091906142fe565b6040518363ffffffff1660e01b815260040161142d92919061485b565b60206040518083038186803b15801561144557600080fd5b505afa158015611459573d6000803e3d6000fd5b505050506040513d601f19601f8201168201806040525081019061147d91906145cf565b8160018151811061148a57fe5b60200260200101818152505061149f8e61360a565b816002815181106114ac57fe5b602002602001018181525050826001600160a01b031663f85cb5c86040518163ffffffff1660e01b815260040160206040518083038186803b1580156114f157600080fd5b505afa158015611505573d6000803e3d6000fd5b505050506040513d601f19601f8201168201806040525081019061152991906142fe565b6001600160a01b03166370a08231846040518263ffffffff1660e01b81526004016115549190614847565b60206040518083038186803b15801561156c57600080fd5b505afa158015611580573d6000803e3d6000fd5b505050506040513d601f19601f820116820180604052508101906115a491906145cf565b816003815181106115b157fe5b602002602001018181525050826001600160a01b03166360d442ca6040518163ffffffff1660e01b815260040160206040518083038186803b1580156115f657600080fd5b505afa15801561160a573d6000803e3d6000fd5b505050506040513d601f19601f8201168201806040525081019061162e91906145cf565b8160038151811061163b57fe5b602002602001015111156116fa576116e0836001600160a01b03166360d442ca6040518163ffffffff1660e01b815260040160206040518083038186803b15801561168557600080fd5b505afa158015611699573d6000803e3d6000fd5b505050506040513d601f19601f820116820180604052508101906116bd91906145cf565b826003815181106116ca57fe5b602002602001015161371890919063ffffffff16565b816003815181106116ed57fe5b6020026020010181815250505b826001600160a01b031663b9e675396040518163ffffffff1660e01b815260040160206040518083038186803b15801561173357600080fd5b505afa158015611747573d6000803e3d6000fd5b505050506040513d601f19601f8201168201806040525081019061176b91906145cf565b8160038151811061177857fe5b602002602001015111156117e0576117c2836001600160a01b031663b9e675396040518163ffffffff1660e01b815260040160206040518083038186803b15801561168557600080fd5b816003815181106117cf57fe5b6020026020010181815250506117fc565b6000816003815181106117ef57fe5b6020026020010181815250505b60006118078f613728565b90508e6001600160a01b03166306fdde036040518163ffffffff1660e01b815260040160006040518083038186803b15801561184257600080fd5b505afa158015611856573d6000803e3d6000fd5b505050506040513d6000823e601f3d908101601f1916820160405261187e91908101906145e7565b8f6001600160a01b03166395d89b416040518163ffffffff1660e01b815260040160006040518083038186803b1580156118b757600080fd5b505afa1580156118cb573d6000803e3d6000fd5b505050506040513d6000823e601f3d908101601f191682016040526118f391908101906145e7565b6040518060a00160405280876001600160a01b03166302d05d3f6040518163ffffffff1660e01b815260040160206040518083038186803b15801561193757600080fd5b505afa15801561194b573d6000803e3d6000fd5b505050506040513d601f19601f8201168201806040525081019061196f91906142fe565b6001600160a01b03166001600160a01b03168152602001876001600160a01b03166363f568b960006040518263ffffffff1660e01b81526004016119b39190614a54565b60206040518083038186803b1580156119cb57600080fd5b505afa1580156119df573d6000803e3d6000fd5b505050506040513d601f19601f82011682018060405250810190611a0391906142fe565b6001600160a01b03166001600160a01b03168152602001876001600160a01b03166363f568b960016040518263ffffffff1660e01b8152600401611a479190614a54565b60206040518083038186803b158015611a5f57600080fd5b505afa158015611a73573d6000803e3d6000fd5b505050506040513d601f19601f82011682018060405250810190611a9791906142fe565b6001600160a01b03166001600160a01b03168152602001876001600160a01b03166363f568b960026040518263ffffffff1660e01b8152600401611adb9190614a54565b60206040518083038186803b158015611af357600080fd5b505afa158015611b07573d6000803e3d6000fd5b505050506040513d601f19601f82011682018060405250810190611b2b91906142fe565b6001600160a01b03166001600160a01b03168152602001876001600160a01b03166363f568b960036040518263ffffffff1660e01b8152600401611b6f9190614a54565b60206040518083038186803b158015611b8757600080fd5b505afa158015611b9b573d6000803e3d6000fd5b505050506040513d601f19601f82011682018060405250810190611bbf91906142fe565b6001600160a01b03166001600160a01b0316815250866001600160a01b031663f85cb5c86040518163ffffffff1660e01b815260040160206040518083038186803b158015611c0d57600080fd5b505afa158015611c21573d6000803e3d6000fd5b505050506040513d601f19601f82011682018060405250810190611c4591906142fe565b60405180608001604052806001151515158152602001896001600160a01b031663550c2b7f6040518163ffffffff1660e01b815260040160206040518083038186803b158015611c9457600080fd5b505afa158015611ca8573d6000803e3d6000fd5b505050506040513d601f19601f82011682018060405250810190611ccc919061459d565b151515158152602001896001600160a01b0316631780998b6040518163ffffffff1660e01b815260040160206040518083038186803b158015611d0e57600080fd5b505afa158015611d22573d6000803e3d6000fd5b505050506040513d601f19601f82011682018060405250810190611d46919061459d565b151515158152602001896001600160a01b03166377e7ff3c6040518163ffffffff1660e01b815260040160206040518083038186803b158015611d8857600080fd5b505afa158015611d9c573d6000803e3d6000fd5b505050506040513d601f19601f82011682018060405250810190611dc0919061459d565b15151515815250886001600160a01b031663b49a60bb6040518163ffffffff1660e01b815260040160006040518083038186803b158015611e0057600080fd5b505afa158015611e14573d6000803e3d6000fd5b505050506040513d6000823e601f3d908101601f19168201604052611e3c91908101906143ff565b896001600160a01b031663b304b8156040518163ffffffff1660e01b815260040160006040518083038186803b158015611e7557600080fd5b505afa158015611e89573d6000803e3d6000fd5b505050506040513d6000823e601f3d908101601f19168201604052611eb191908101906143ff565b604051806101a001604052808c6001600160a01b0316637550ed186040518163ffffffff1660e01b815260040160206040518083038186803b158015611ef657600080fd5b505afa158015611f0a573d6000803e3d6000fd5b505050506040513d601f19601f82011682018060405250810190611f2e91906145cf565b81526020018c6001600160a01b0316638bbde0fd6040518163ffffffff1660e01b815260040160206040518083038186803b158015611f6c57600080fd5b505afa158015611f80573d6000803e3d6000fd5b505050506040513d601f19601f82011682018060405250810190611fa491906145cf565b81526020018c6001600160a01b031663b63c44e76040518163ffffffff1660e01b815260040160206040518083038186803b158015611fe257600080fd5b505afa158015611ff6573d6000803e3d6000fd5b505050506040513d601f19601f8201168201806040525081019061201a91906145cf565b81526020018c6001600160a01b0316635a16656a6040518163ffffffff1660e01b815260040160206040518083038186803b15801561205857600080fd5b505afa15801561206c573d6000803e3d6000fd5b505050506040513d601f19601f8201168201806040525081019061209091906145cf565b81526020018c6001600160a01b03166395cdbedb6040518163ffffffff1660e01b815260040160206040518083038186803b1580156120ce57600080fd5b505afa1580156120e2573d6000803e3d6000fd5b505050506040513d601f19601f8201168201806040525081019061210691906145cf565b81526020018c6001600160a01b031663297ce5986040518163ffffffff1660e01b815260040160206040518083038186803b15801561214457600080fd5b505afa158015612158573d6000803e3d6000fd5b505050506040513d601f19601f8201168201806040525081019061217c91906145cf565b81526020018c6001600160a01b0316633deddb3f6040518163ffffffff1660e01b815260040160206040518083038186803b1580156121ba57600080fd5b505afa1580156121ce573d6000803e3d6000fd5b505050506040513d601f19601f820116820180604052508101906121f291906145cf565b81526020018c6001600160a01b031663aaffadf36040518163ffffffff1660e01b815260040160206040518083038186803b15801561223057600080fd5b505afa158015612244573d6000803e3d6000fd5b505050506040513d601f19601f8201168201806040525081019061226891906145cf565b81526020018c6001600160a01b031663a63c643d6040518163ffffffff1660e01b815260040160206040518083038186803b1580156122a657600080fd5b505afa1580156122ba573d6000803e3d6000fd5b505050506040513d601f19601f820116820180604052508101906122de91906145cf565b81526020016123ce8d6001600160a01b03166360d442ca6040518163ffffffff1660e01b815260040160206040518083038186803b15801561231f57600080fd5b505afa158015612333573d6000803e3d6000fd5b505050506040513d601f19601f8201168201806040525081019061235791906145cf565b8e6001600160a01b031663a06931f96040518163ffffffff1660e01b815260040160206040518083038186803b15801561239057600080fd5b505afa1580156123a4573d6000803e3d6000fd5b505050506040513d601f19601f820116820180604052508101906123c891906145cf565b90613555565b81526020018c6001600160a01b031663d6888eab6040518163ffffffff1660e01b815260040160206040518083038186803b15801561240c57600080fd5b505afa158015612420573d6000803e3d6000fd5b505050506040513d601f19601f8201168201806040525081019061244491906145cf565b81526020018c6001600160a01b0316633aa1f9ed6040518163ffffffff1660e01b815260040160206040518083038186803b15801561248257600080fd5b505afa158015612496573d6000803e3d6000fd5b505050506040513d601f19601f820116820180604052508101906124ba91906145cf565b81526020018c6001600160a01b031663b1b758676040518163ffffffff1660e01b815260040160206040518083038186803b1580156124f857600080fd5b505afa15801561250c573d6000803e3d6000fd5b505050506040513d601f19601f8201168201806040525081019061253091906145cf565b8152506040518061014001604052808c81526020018d6001600160a01b031663b9e675396040518163ffffffff1660e01b815260040160206040518083038186803b15801561257e57600080fd5b505afa158015612592573d6000803e3d6000fd5b505050506040513d601f19601f820116820180604052508101906125b691906145cf565b81526020018d6001600160a01b031663792e42e26040518163ffffffff1660e01b815260040160206040518083038186803b1580156125f457600080fd5b505afa158015612608573d6000803e3d6000fd5b505050506040513d601f19601f8201168201806040525081019061262c91906145cf565b81526020018d6001600160a01b031663cb12233b6040518163ffffffff1660e01b815260040160206040518083038186803b15801561266a57600080fd5b505afa15801561267e573d6000803e3d6000fd5b505050506040513d601f19601f820116820180604052508101906126a291906145cf565b81526020018d6001600160a01b031663f251fc8c6040518163ffffffff1660e01b815260040160206040518083038186803b1580156126e057600080fd5b505afa1580156126f4573d6000803e3d6000fd5b505050506040513d601f19601f8201168201806040525081019061271891906145cf565b81526020018d6001600160a01b0316638b0e9f3f6040518163ffffffff1660e01b815260040160206040518083038186803b15801561275657600080fd5b505afa15801561276a573d6000803e3d6000fd5b505050506040513d601f19601f8201168201806040525081019061278e91906145cf565b815260200160008c6001815181106127a257fe5b6020026020010151116127b65760006127f1565b6127f18c6001815181106127c657fe5b60200260200101518d6000815181106127db57fe5b602002602001015161383c90919063ffffffff16565b81526020018b60008151811061280357fe5b602002602001015181526020018b60028151811061281d57fe5b602002602001015181526020018b60038151811061283757fe5b6020026020010151815250899d509d509d509d509d509d509d509d509d509d50505050509193959799509193959799565b6000808290506000816001600160a01b031663f85cb5c86040518163ffffffff1660e01b815260040160206040518083038186803b1580156128a957600080fd5b505afa1580156128bd573d6000803e3d6000fd5b505050506040513d601f19601f820116820180604052508101906128e191906142fe565b905060006129db836001600160a01b031663b9e675396040518163ffffffff1660e01b815260040160206040518083038186803b15801561292157600080fd5b505afa158015612935573d6000803e3d6000fd5b505050506040513d601f19601f8201168201806040525081019061295991906145cf565b6040516370a0823160e01b81526001600160a01b038516906370a0823190612985908890600401614847565b60206040518083038186803b15801561299d57600080fd5b505afa1580156129b1573d6000803e3d6000fd5b505050506040513d601f19601f820116820180604052508101906129d591906145cf565b90613718565b905060007f00000000000000000000000000000000000000000000000000000000000000006001600160a01b031663313754776040518163ffffffff1660e01b815260040160206040518083038186803b158015612a3857600080fd5b505afa158015612a4c573d6000803e3d6000fd5b505050506040513d601f19601f82011682018060405250810190612a7091906145cf565b90506000846001600160a01b031663b49a60bb6040518163ffffffff1660e01b815260040160006040518083038186803b158015612aad57600080fd5b505afa158015612ac1573d6000803e3d6000fd5b505050506040513d6000823e601f3d908101601f19168201604052612ae991908101906143ff565b905060005b8151811015612c13576000828281518110612b0557fe5b60200260200101519050612c08612b8d826001600160a01b03166303cddb2c6040518163ffffffff1660e01b815260040160206040518083038186803b158015612b4e57600080fd5b505afa158015612b62573d6000803e3d6000fd5b505050506040513d601f19601f82011682018060405250810190612b8691906145cf565b869061383c565b6123c8836001600160a01b03166303cddb2c6040518163ffffffff1660e01b815260040160206040518083038186803b158015612bc957600080fd5b505afa158015612bdd573d6000803e3d6000fd5b505050506040513d601f19601f82011682018060405250810190612c0191906145cf565b8890613555565b945050600101612aee565b506000856001600160a01b031663b304b8156040518163ffffffff1660e01b815260040160006040518083038186803b158015612c4f57600080fd5b505afa158015612c63573d6000803e3d6000fd5b505050506040513d6000823e601f3d908101601f19168201604052612c8b91908101906143ff565b905060005b8151811015612d41576000828281518110612ca757fe5b60200260200101519050612d36612d2f826001600160a01b03166303cddb2c6040518163ffffffff1660e01b815260040160206040518083038186803b158015612cf057600080fd5b505afa158015612d04573d6000803e3d6000fd5b505050506040513d601f19601f82011682018060405250810190612d2891906145cf565b879061383c565b8790613555565b955050600101612c90565b50612d7e866001600160a01b031663a06931f96040518163ffffffff1660e01b815260040160206040518083038186803b15801561119757600080fd5b93506000866001600160a01b031663792e42e26040518163ffffffff1660e01b815260040160206040518083038186803b158015612dbb57600080fd5b505afa158015612dcf573d6000803e3d6000fd5b505050506040513d601f19601f82011682018060405250810190612df391906145cf565b90506000811315612e1d57808511612e0c576000612e16565b612e168582613718565b9450612e2e565b612e2b856000839003613555565b94505b5092979650505050505050565b612e436142a5565b606080612e508585613854565b7f00000000000000000000000000000000000000000000000000000000000000006001600160a01b0316633f2a55406040518163ffffffff1660e01b815260040160206040518083038186803b158015612ea957600080fd5b505afa158015612ebd573d6000803e3d6000fd5b505050506040513d601f19601f82011682018060405250810190612ee191906142fe565b6001600160a01b03166369795e938787896001600160a01b031663b304b8156040518163ffffffff1660e01b815260040160006040518083038186803b158015612f2a57600080fd5b505afa158015612f3e573d6000803e3d6000fd5b505050506040513d6000823e601f3d908101601f19168201604052612f6691908101906143ff565b6040518463ffffffff1660e01b8152600401612f8493929190614875565b60006040518083038186803b158015612f9c57600080fd5b505afa158015612fb0573d6000803e3d6000fd5b505050506040513d6000823e601f3d908101601f19168201604052612fd89190810190614519565b61305686886001600160a01b031663b49a60bb6040518163ffffffff1660e01b815260040160006040518083038186803b15801561301557600080fd5b505afa158015613029573d6000803e3d6000fd5b505050506040513d6000823e601f3d908101601f1916820160405261305191908101906143ff565b6139e6565b9250925092509250925092565b6000816001600160a01b0316836001600160a01b0316141561309357506c0c9f2c9cd04674edea400000006107e6565b600061309f8484613c73565b5090506001600160a01b0381166130ba5760009150506107e6565b6000816001600160a01b0316631a6865026040518163ffffffff1660e01b815260040160206040518083038186803b1580156130f557600080fd5b505afa158015613109573d6000803e3d6000fd5b505050506040513d601f19601f8201168201806040525081019061312d9190614668565b6001600160801b03169050600080856001600160a01b0316846001600160a01b0316630dfe16816040518163ffffffff1660e01b815260040160206040518083038186803b15801561317e57600080fd5b505afa158015613192573d6000803e3d6000fd5b505050506040513d601f19601f820116820180604052508101906131b691906142fe565b6001600160a01b03161415613338576132be846001600160a01b031663d21220a76040518163ffffffff1660e01b815260040160206040518083038186803b15801561320157600080fd5b505afa158015613215573d6000803e3d6000fd5b505050506040513d601f19601f8201168201806040525081019061323991906142fe565b6001600160a01b03166370a08231866040518263ffffffff1660e01b81526004016132649190614847565b60206040518083038186803b15801561327c57600080fd5b505afa158015613290573d6000803e3d6000fd5b505050506040513d601f19601f820116820180604052508101906132b491906145cf565b610fac8580613565565b9150836001600160a01b0316630dfe16816040518163ffffffff1660e01b815260040160206040518083038186803b1580156132f957600080fd5b505afa15801561330d573d6000803e3d6000fd5b505050506040513d601f19601f8201168201806040525081019061333191906142fe565b90506133ea565b613374846001600160a01b0316630dfe16816040518163ffffffff1660e01b815260040160206040518083038186803b15801561320157600080fd5b9150836001600160a01b031663d21220a76040518163ffffffff1660e01b815260040160206040518083038186803b1580156133af57600080fd5b505afa1580156133c3573d6000803e3d6000fd5b505050506040513d601f19601f820116820180604052508101906133e791906142fe565b90505b856001600160a01b0316816001600160a01b0316146135335760007f00000000000000000000000000000000000000000000000000000000000000006001600160a01b0316632630c12f6040518163ffffffff1660e01b815260040160206040518083038186803b15801561345e57600080fd5b505afa158015613472573d6000803e3d6000fd5b505050506040513d601f19601f8201168201806040525081019061349691906142fe565b90506000816001600160a01b031663ac41865a848a6040518363ffffffff1660e01b81526004016134c892919061485b565b60206040518083038186803b1580156134e057600080fd5b505afa1580156134f4573d6000803e3d6000fd5b505050506040513d601f19601f8201168201806040525081019061351891906145cf565b905061352e8389613529878561383c565b614075565b935050505b5095945050505050565b60006111e882610fac85670de0b6b3a7640000613565565b808201828110156107e657600080fd5b60008215806135805750508181028183828161357d57fe5b04145b6107e657600080fd5b60008082116135f957604080517f08c379a000000000000000000000000000000000000000000000000000000000815260206004820152601a60248201527f536166654d6174683a206469766973696f6e206279207a65726f000000000000604482015290519081900360640190fd5b81838161360257fe5b049392505050565b60007f00000000000000000000000000000000000000000000000000000000000000006001600160a01b031663ead4c1cf6040518163ffffffff1660e01b815260040160206040518083038186803b15801561366557600080fd5b505afa158015613679573d6000803e3d6000fd5b505050506040513d601f19601f8201168201806040525081019061369d91906142fe565b6001600160a01b031663181df307836040518263ffffffff1660e01b81526004016136c89190614847565b60206040518083038186803b1580156136e057600080fd5b505afa1580156136f4573d6000803e3d6000fd5b505050506040513d601f19601f820116820180604052508101906107e691906145cf565b808203828111156107e657600080fd5b6137306142c4565b7f00000000000000000000000000000000000000000000000000000000000000006001600160a01b0316633f2a55406040518163ffffffff1660e01b815260040160206040518083038186803b15801561378957600080fd5b505afa15801561379d573d6000803e3d6000fd5b505050506040513d601f19601f820116820180604052508101906137c191906142fe565b6001600160a01b031663070e8a4a836040518263ffffffff1660e01b81526004016137ec9190614847565b60606040518083038186803b15801561380457600080fd5b505afa158015613818573d6000803e3d6000fd5b505050506040513d601f19601f820116820180604052508101906107e6919061449d565b60006111e8670de0b6b3a7640000610fac8585613565565b61385c6142a5565b6000806000806000806000808a6001600160a01b0316633d8270f58b6040518263ffffffff1660e01b81526004016138949190614847565b6101206040518083038186803b1580156138ad57600080fd5b505afa1580156138c1573d6000803e3d6000fd5b505050506040513d601f19601f820116820180604052508101906138e5919061468f565b985050975097509750975097509750975060405180610140016040528089815260200188815260200187815260200186815260200185815260200184841161392e576000613938565b6139388486613718565b81526020018c6001600160a01b03166370a082318d6040518263ffffffff1660e01b81526004016139699190614847565b60206040518083038186803b15801561398157600080fd5b505afa158015613995573d6000803e3d6000fd5b505050506040513d601f19601f820116820180604052508101906139b991906145cf565b8152602001828152602001600081526020016139d58d8d6106c2565b90529b9a5050505050505050505050565b604080516008808252610120820190925260609160009190602082016101008036833701905050905060007f00000000000000000000000000000000000000000000000000000000000000006001600160a01b0316633f2a55406040518163ffffffff1660e01b815260040160206040518083038186803b158015613a6a57600080fd5b505afa158015613a7e573d6000803e3d6000fd5b505050506040513d601f19601f82011682018060405250810190613aa291906142fe565b905060005b8451811015613c695760408051600880825261012082019092526000916020820161010080368337019050509050858281518110613ae157fe5b60200260200101516001600160a01b031663e4df5e1a6040518163ffffffff1660e01b815260040160206040518083038186803b158015613b2157600080fd5b505afa158015613b35573d6000803e3d6000fd5b505050506040513d601f19601f82011682018060405250810190613b59919061459d565b613b635750613c61565b826001600160a01b031663b8626391878481518110613b7e57fe5b6020026020010151896040518363ffffffff1660e01b8152600401613ba492919061485b565b60006040518083038186803b158015613bbc57600080fd5b505afa158015613bd0573d6000803e3d6000fd5b505050506040513d6000823e601f3d908101601f19168201604052613bf89190810190614519565b905060005b6008811015613c5e57613c3f828281518110613c1557fe5b6020026020010151868381518110613c2957fe5b602002602001015161355590919063ffffffff16565b858281518110613c4b57fe5b6020908102919091010152600101613bfd565b50505b600101613aa7565b5090949350505050565b604051630b4c774160e11b815260009081908190731f98431c8ad98523631ae4a59f267346ea31f98490631698ee8290613cb790889088906101f4906004016148aa565b60206040518083038186803b158015613ccf57600080fd5b505afa158015613ce3573d6000803e3d6000fd5b505050506040513d601f19601f82011682018060405250810190613d0791906142fe565b604051630b4c774160e11b8152909150600090731f98431c8ad98523631ae4a59f267346ea31f98490631698ee8290613d4a9089908990610bb8906004016148aa565b60206040518083038186803b158015613d6257600080fd5b505afa158015613d76573d6000803e3d6000fd5b505050506040513d601f19601f82011682018060405250810190613d9a91906142fe565b604051630b4c774160e11b8152909150600090731f98431c8ad98523631ae4a59f267346ea31f98490631698ee8290613ddd908a908a90612710906004016148aa565b60206040518083038186803b158015613df557600080fd5b505afa158015613e09573d6000803e3d6000fd5b505050506040513d601f19601f82011682018060405250810190613e2d91906142fe565b905060006001600160a01b038416613e46576000613eb7565b836001600160a01b0316631a6865026040518163ffffffff1660e01b815260040160206040518083038186803b158015613e7f57600080fd5b505afa158015613e93573d6000803e3d6000fd5b505050506040513d601f19601f82011682018060405250810190613eb79190614668565b905060006001600160a01b038416613ed0576000613f41565b836001600160a01b0316631a6865026040518163ffffffff1660e01b815260040160206040518083038186803b158015613f0957600080fd5b505afa158015613f1d573d6000803e3d6000fd5b505050506040513d601f19601f82011682018060405250810190613f419190614668565b905060006001600160a01b038416613f5a576000613fcb565b836001600160a01b0316631a6865026040518163ffffffff1660e01b815260040160206040518083038186803b158015613f9357600080fd5b505afa158015613fa7573d6000803e3d6000fd5b505050506040513d601f19601f82011682018060405250810190613fcb9190614668565b9050816001600160801b0316836001600160801b03161180156140005750806001600160801b0316836001600160801b031610155b1561401857856101f4975097505050505050506102e7565b826001600160801b0316826001600160801b031611801561404b5750806001600160801b0316826001600160801b031610155b156140635784610bb8975097505050505050506102e7565b50919861271098509650505050505050565b600080614081856141c3565b6140ef57846001600160a01b031663313ce5676040518163ffffffff1660e01b815260040160206040518083038186803b1580156140be57600080fd5b505afa1580156140d2573d6000803e3d6000fd5b505050506040513d60208110156140e857600080fd5b50516140f2565b60125b60ff1690506000614102856141c3565b61417057846001600160a01b031663313ce5676040518163ffffffff1660e01b815260040160206040518083038186803b15801561413f57600080fd5b505afa158015614153573d6000803e3d6000fd5b505050506040513d602081101561416957600080fd5b5051614173565b60125b60ff1690508082141561418a5783925050506111e8565b818111156141aa576141a184838303600a0a613565565b925050506111e8565b6141b984828403600a0a613589565b9695505050505050565b600073eeeeeeeeeeeeeeeeeeeeeeeeeeeeeeeeeeeeeeee6001600160a01b03831614806107e65750506001600160a01b03161590565b6040518060e0016040528060006001600160a01b0316815260200160608152602001600015158152602001600081526020016000815260200160006001600160a01b03168152602001600081525090565b6040518060a001604052806005906020820280368337509192915050565b60405180608001604052806004906020820280368337509192915050565b604051806101a00160405280600d906020820280368337509192915050565b604051806101400160405280600a906020820280368337509192915050565b60405180606001604052806003906020820280368337509192915050565b6000602082840312156142f3578081fd5b81356111e881614bb0565b60006020828403121561430f578081fd5b81516111e881614bb0565b6000806040838503121561432c578081fd5b823561433781614bb0565b9150602083013561434781614bb0565b809150509250929050565b600080600060408486031215614366578081fd5b833561437181614bb0565b9250602084013567ffffffffffffffff8082111561438d578283fd5b818601915086601f8301126143a0578283fd5b8135818111156143ae578384fd5b87602080830285010111156143c1578384fd5b6020830194508093505050509250925092565b600080604083850312156143e6578182fd5b82356143f181614bb0565b946020939093013593505050565b60006020808385031215614411578182fd5b825167ffffffffffffffff811115614427578283fd5b8301601f81018513614437578283fd5b805161444a61444582614b66565b614b42565b8181528381019083850185840285018601891015614466578687fd5b8694505b8385101561449157805161447d81614bb0565b83526001949094019391850191850161446a565b50979650505050505050565b6000606082840312156144ae578081fd5b82601f8301126144bc578081fd5b6040516060810181811067ffffffffffffffff821117156144d957fe5b6040528083606081018610156144ed578384fd5b835b600381101561450e5781518352602092830192909101906001016144ef565b509195945050505050565b6000602080838503121561452b578182fd5b825167ffffffffffffffff811115614541578283fd5b8301601f81018513614551578283fd5b805161455f61444582614b66565b818152838101908385018584028501860189101561457b578687fd5b8694505b8385101561449157805183526001949094019391850191850161457f565b6000602082840312156145ae578081fd5b815180151581146111e8578182fd5b6000806040838503121561432c578182fd5b6000602082840312156145e0578081fd5b5051919050565b6000602082840312156145f8578081fd5b815167ffffffffffffffff8082111561460f578283fd5b818401915084601f830112614622578283fd5b81518181111561462e57fe5b614641601f8201601f1916602001614b42565b9150808252856020828501011115614657578384fd5b610984816020840160208601614b84565b600060208284031215614679578081fd5b81516001600160801b03811681146111e8578182fd5b60008060008060008060008060006101208a8c0312156146ad578687fd5b8951985060208a0151975060408a0151965060608a0151955060808a0151945060a08a0151935060c08a0151925060e08a015191506101008a015190509295985092959850929598565b6001600160a01b0316815260200190565b6001600160a01b03169052565b6000815180845260208085019450808401835b8381101561474d5781516001600160a01b031687529582019590820190600101614728565b509495945050505050565b8060005b600481101561477d578151151584526020938401939091019060010161475c565b50505050565b8060005b600a81101561477d578151845260209384019390910190600101614787565b8060005b600d81101561477d5781518452602093840193909101906001016147aa565b8060005b600381101561477d5781518452602093840193909101906001016147cd565b6000815180845260208085019450808401835b8381101561474d578151875295820195908201906001016147ff565b60008151808452614833816020860160208601614b84565b601f01601f19169290920160200192915050565b6001600160a01b0391909116815260200190565b6001600160a01b0392831681529116602082015260400190565b60006001600160a01b038086168352808516602084015250606060408301526148a16060830184614715565b95945050505050565b6001600160a01b03938416815291909216602082015262ffffff909116604082015260600190565b6001600160a01b03929092168252602082015260400190565b600060608083526148fe81840187614715565b838103602085810191909152865180835287820192820190855b81811015614936578451151583529383019391830191600101614918565b50506040925085810383870152808751808352838301915083848202840101848a01885b838110156149de57601f19868403018552815160e06001600160a01b0380835116865289830151828b8801526149928388018261481b565b848d01511515888e01528d8501518e8901526080808601519089015260a080860151909316928801929092525060c092830151929095019190915250938601939086019060010161495a565b50909c9b505050505050505050505050565b60006101806149ff8387614783565b80610140840152614a12818401866147ec565b90508281036101608401526141b981856147ec565b6000602082526111e860208301846147ec565b921515835290151560208301521515604082015260600190565b90815260200190565b6000610500808352614a718184018e61481b565b9050602083820381850152614a86828e61481b565b9150604084018c845b6005811015614ab157614aa38383516146f7565b925090830190600101614a8f565b50505050614ac260e084018b614708565b614ad061010084018a614758565b828103610180840152614ae38189614715565b90508281036101a0840152614af88188614715565b915050614b096101c08301866147a6565b614b17610360830185614783565b614b256104a08301846147c9565b9b9a5050505050505050505050565b918252602082015260400190565b60405181810167ffffffffffffffff81118282101715614b5e57fe5b604052919050565b600067ffffffffffffffff821115614b7a57fe5b5060209081020190565b60005b83811015614b9f578181015183820152602001614b87565b8381111561477d5750506000910152565b6001600160a01b0381168114614bc557600080fd5b5056fea2646970667358221220b2c2e04469347eaae008ae9eb19a2928ac74bbc55b2876e38f6a9d088123c9b064736f6c63430007060033",
  "devdoc": {
    "author": "Babylon Finance Class that holds common view functions to retrieve garden information effectively",
    "kind": "dev",
    "methods": {
      "getGardenDetails(address)": {
        "params": {
          "_garden": "Address of the garden to fetch"
        },
        "returns": {
          "_0": "Garden complete details"
        }
      },
      "getGardenPrincipal(address)": {
        "params": {
          "_garden": "Address of the garden to fetch"
        },
        "returns": {
          "_0": "Garden principal"
        }
      },
      "getPotentialVotes(address,address[])": {
        "params": {
          "_garden": "Garden to retrieve votes for",
          "_members": "All members of a garden"
        },
        "returns": {
          "_0": "uint256 Total number of tokens that can vote"
        }
      }
    },
    "title": "GardenViewer",
    "version": 1
  },
  "userdoc": {
    "kind": "user",
    "methods": {
      "getGardenDetails(address)": {
        "notice": "Gets garden details"
      },
      "getGardenPrincipal(address)": {
        "notice": "Gets garden principal"
      },
      "getPotentialVotes(address,address[])": {
        "notice": "Gets the number of tokens that can vote in this garden"
      }
    },
    "version": 1
  },
  "storageLayout": {
    "storage": [],
    "types": null
  }
}