{
  "address": "0x0087C27e6131792D3a237471652cE0726aE3D5E1",
  "abi": [
    {
      "inputs": [
        {
          "internalType": "contract IBabController",
          "name": "_controller",
          "type": "address"
        },
        {
          "internalType": "contract UpgradeableBeacon",
          "name": "_beacon",
          "type": "address"
        }
      ],
      "stateMutability": "nonpayable",
      "type": "constructor"
    },
    {
      "inputs": [
        {
          "internalType": "address",
          "name": "_reserveAsset",
          "type": "address"
        },
        {
          "internalType": "address",
          "name": "_creator",
          "type": "address"
        },
        {
          "internalType": "string",
          "name": "_name",
          "type": "string"
        },
        {
          "internalType": "string",
          "name": "_symbol",
          "type": "string"
        },
        {
          "internalType": "string",
          "name": "_tokenURI",
          "type": "string"
        },
        {
          "internalType": "uint256",
          "name": "_seed",
          "type": "uint256"
        },
        {
          "internalType": "uint256[]",
          "name": "_gardenParams",
          "type": "uint256[]"
        },
        {
          "internalType": "uint256",
          "name": "_initialContribution",
          "type": "uint256"
        }
      ],
      "name": "createGarden",
      "outputs": [
        {
          "internalType": "address",
          "name": "",
          "type": "address"
        }
      ],
      "stateMutability": "nonpayable",
      "type": "function"
    }
  ],
  "transactionHash": "0x0dbb8ed4716a4f45dcc8e211461c015aa2b0e61cc8af8f3f60934934347c9b42",
  "args": [
    "0xD4a5b5fcB561dAF3aDF86F8477555B92FBa43b5F",
    "0xc8f44C560efe396a6e57e48fF07205bD28AF5E75"
  ],
  "solcInputHash": "1e6d156fb71d6da7705240c4305a90fd",
  "bytecode": "0x60c060405234801561001057600080fd5b506040516111013803806111018339818101604052604081101561003357600080fd5b5080516020909101516001600160a01b03821661008c576040805162461bcd60e51b8152602060048201526012602482015271436f6e74726f6c6c6572206973207a65726f60701b604482015290519081900360640190fd5b6001600160a01b0381166100d8576040805162461bcd60e51b815260206004820152600e60248201526d426561636f6e206973207a65726f60901b604482015290519081900360640190fd5b6001600160601b0319606092831b8116608052911b1660a05260805160601c60a05160601c610fdd610124600039806102fa525080610280528061032452806105915250610fdd6000f3fe608060405234801561001057600080fd5b506004361061002b5760003560e01c80638d06366f14610030575b600080fd5b610257600480360361010081101561004757600080fd5b6001600160a01b03823581169260208101359091169181019060608101604082013564010000000081111561007b57600080fd5b82018360208201111561008d57600080fd5b803590602001918460018302840111640100000000831117156100af57600080fd5b91908080601f016020809104026020016040519081016040528093929190818152602001838380828437600092019190915250929594936020810193503591505064010000000081111561010257600080fd5b82018360208201111561011457600080fd5b8035906020019184600183028401116401000000008311171561013657600080fd5b91908080601f016020809104026020016040519081016040528093929190818152602001838380828437600092019190915250929594936020810193503591505064010000000081111561018957600080fd5b82018360208201111561019b57600080fd5b803590602001918460018302840111640100000000831117156101bd57600080fd5b91908080601f0160208091040260200160405190810160405280939291908181526020018383808284376000920191909152509295843595909490935060408101925060200135905064010000000081111561021857600080fd5b82018360208201111561022a57600080fd5b8035906020019184602083028401116401000000008311171561024c57600080fd5b919350915035610273565b604080516001600160a01b039092168252519081900360200190f35b6000336001600160a01b037f000000000000000000000000000000000000000000000000000000000000000016146102f6576040517f08c379a0000000000000000000000000000000000000000000000000000000008152600401808060200182810382526026815260200180610f826026913960400191505060405180910390fd5b60007f0000000000000000000000000000000000000000000000000000000000000000635fe3d4ce60e01b8c7f00000000000000000000000000000000000000000000000000000000000000008d8d8d8b8b8b60405160240180896001600160a01b03168152602001886001600160a01b03168152602001876001600160a01b03168152602001806020018060200180602001858152602001848103845289818151815260200191508051906020019080838360005b838110156103c45781810151838201526020016103ac565b50505050905090810190601f1680156103f15780820380516001836020036101000a031916815260200191505b5084810383528851815288516020918201918a019080838360005b8381101561042457818101518382015260200161040c565b50505050905090810190601f1680156104515780820380516001836020036101000a031916815260200191505b508481038252878782818152602001925060200280828437600081840152601f19601f8201169050808301925050509b505050505050505050505050604051602081830303815290604052907bffffffffffffffffffffffffffffffffffffffffffffffffffffffff19166020820180517bffffffffffffffffffffffffffffffffffffffffffffffffffffffff83818316178352505050506040516104f690610718565b6001600160a01b0383168152604060208083018281528451928401929092528351606084019185019080838360005b8381101561053d578181015183820152602001610525565b50505050905090810190601f16801561056a5780820380516001836020036101000a031916815260200191505b509350505050604051809103906000f08015801561058c573d6000803e3d6000fd5b5090507f00000000000000000000000000000000000000000000000000000000000000006001600160a01b031663ead4c1cf6040518163ffffffff1660e01b815260040160206040518083038186803b1580156105e857600080fd5b505afa1580156105fc573d6000803e3d6000fd5b505050506040513d602081101561061257600080fd5b50516040517f616ac7920000000000000000000000000000000000000000000000000000000081526001600160a01b0383811660048301908152604483018a90526060602484019081528b5160648501528b51929094169363616ac7929386938d938d9390929091608490910190602086019080838360005b838110156106a357818101518382015260200161068b565b50505050905090810190601f1680156106d05780820380516001836020036101000a031916815260200191505b50945050505050600060405180830381600087803b1580156106f157600080fd5b505af1158015610705573d6000803e3d6000fd5b50929d9c50505050505050505050505050565b61085c806107268339019056fe608060405260405161085c38038061085c8339818101604052604081101561002657600080fd5b81516020830180516040519294929383019291908464010000000082111561004d57600080fd5b90830190602082018581111561006257600080fd5b825164010000000081118282018810171561007c57600080fd5b82525081516020918201929091019080838360005b838110156100a9578181015183820152602001610091565b50505050905090810190601f1680156100d65780820380516001836020036101000a031916815260200191505b50604052508391508290506100eb82826100f4565b5050505061047e565b6101078261024960201b61002f1760201c565b6101425760405162461bcd60e51b81526004018080602001828103825260258152602001806107dd6025913960400191505060405180910390fd5b6101ba826001600160a01b0316635c60da1b6040518163ffffffff1660e01b815260040160206040518083038186803b15801561017e57600080fd5b505afa158015610192573d6000803e3d6000fd5b505050506040513d60208110156101a857600080fd5b5051610249602090811b61002f17901c565b6101f55760405162461bcd60e51b81526004018080602001828103825260348152602001806108286034913960400191505060405180910390fd5b60008051602061079c8339815191528281558151156102445761024261021961024f565b836040518060600160405280602181526020016107bc602191396102c260201b6100351760201c565b505b505050565b3b151590565b60006102596103c7565b6001600160a01b0316635c60da1b6040518163ffffffff1660e01b815260040160206040518083038186803b15801561029157600080fd5b505afa1580156102a5573d6000803e3d6000fd5b505050506040513d60208110156102bb57600080fd5b5051905090565b60606102cd84610249565b6103085760405162461bcd60e51b81526004018080602001828103825260268152602001806108026026913960400191505060405180910390fd5b600080856001600160a01b0316856040518082805190602001908083835b602083106103455780518252601f199092019160209182019101610326565b6001836020036101000a038019825116818451168082178552505050505050905001915050600060405180830381855af49150503d80600081146103a5576040519150601f19603f3d011682016040523d82523d6000602084013e6103aa565b606091505b5090925090506103bb8282866103da565b925050505b9392505050565b60008051602061079c8339815191525490565b606083156103e95750816103c0565b8251156103f95782518084602001fd5b8160405162461bcd60e51b81526004018080602001828103825283818151815260200191508051906020019080838360005b8381101561044357818101518382015260200161042b565b50505050905090810190601f1680156104705780820380516001836020036101000a031916815260200191505b509250505060405180910390fd5b61030f8061048d6000396000f3fe60806040523661000b57005b610013610015565b005b61001d61002d565b61002d610028610146565b6101c6565b565b3b151590565b60606100408461002f565b61007b5760405162461bcd60e51b81526004018080602001828103825260268152602001806102b46026913960400191505060405180910390fd5b6000808573ffffffffffffffffffffffffffffffffffffffff16856040518082805190602001908083835b602083106100c55780518252601f1990920191602091820191016100a6565b6001836020036101000a038019825116818451168082178552505050505050905001915050600060405180830381855af49150503d8060008114610125576040519150601f19603f3d011682016040523d82523d6000602084013e61012a565b606091505b509150915061013a8282866101ea565b925050505b9392505050565b600061015061028e565b73ffffffffffffffffffffffffffffffffffffffff16635c60da1b6040518163ffffffff1660e01b815260040160206040518083038186803b15801561019557600080fd5b505afa1580156101a9573d6000803e3d6000fd5b505050506040513d60208110156101bf57600080fd5b5051905090565b3660008037600080366000845af43d6000803e8080156101e5573d6000f35b3d6000fd5b606083156101f957508161013f565b8251156102095782518084602001fd5b8160405162461bcd60e51b81526004018080602001828103825283818151815260200191508051906020019080838360005b8381101561025357818101518382015260200161023b565b50505050905090810190601f1680156102805780820380516001836020036101000a031916815260200191505b509250505060405180910390fd5b7fa3f0ad74e5423aebfd80d3ef4346578335a9a72aeaee59ff6cb3582b35133d50549056fe416464726573733a2064656c65676174652063616c6c20746f206e6f6e2d636f6e7472616374a26469706673582212202d92425cab0cd3b71cbc16c48eea8a69f3738d5cf7b303a8f177140c57fd29db64736f6c63430007060033a3f0ad74e5423aebfd80d3ef4346578335a9a72aeaee59ff6cb3582b35133d50426561636f6e50726f78793a2066756e6374696f6e2063616c6c206661696c6564426561636f6e50726f78793a20626561636f6e206973206e6f74206120636f6e7472616374416464726573733a2064656c65676174652063616c6c20746f206e6f6e2d636f6e7472616374426561636f6e50726f78793a20626561636f6e20696d706c656d656e746174696f6e206973206e6f74206120636f6e74726163744f6e6c792074686520636f6e74726f6c6c65722063616e206372656174652067617264656e73a264697066735822122059c7eee9f78b3c65eb2dba28a8143e43f2ee176554face986555cc6214ecdd3564736f6c63430007060033",
  "devdoc": {
    "author": "Babylon Finance Factory to create garden contracts",
    "kind": "dev",
    "methods": {
      "createGarden(address,address,string,string,string,uint256,uint256[],uint256)": {
        "params": {
          "_creator": "Address of the creator",
          "_gardenParams": "Array of numeric params in the garden",
          "_initialContribution": "Initial Contribution by the Gardener",
          "_name": "Name of the Garden",
          "_reserveAsset": "Address of the reserve asset ERC20",
          "_seed": "Seed to regenerate the garden NFT",
          "_symbol": "Symbol of the Garden",
          "_tokenURI": "URL of the garden NFT JSON"
        }
      }
    },
    "title": "GardenFactory",
    "version": 1
  },
  "userdoc": {
    "kind": "user",
    "methods": {
      "createGarden(address,address,string,string,string,uint256,uint256[],uint256)": {
        "notice": "Creates a garden using minimal proxies"
      }
    },
    "version": 1
  },
  "storageLayout": {
    "storage": [],
    "types": null
  }
}