{
  "address": "0x23e96129F758974fc88A5EA4E5D90031Db6Bc9F8",
  "abi": [
    {
      "inputs": [
        {
          "internalType": "address",
          "name": "_controller",
          "type": "address"
        }
      ],
      "stateMutability": "nonpayable",
      "type": "constructor"
    },
    {
      "inputs": [
        {
          "internalType": "address",
          "name": "_garden",
          "type": "address"
        },
        {
          "internalType": "address",
          "name": "_quoteAsset",
          "type": "address"
        }
      ],
      "name": "calculateGardenValuation",
      "outputs": [
        {
          "internalType": "uint256",
          "name": "",
          "type": "uint256"
        }
      ],
      "stateMutability": "view",
      "type": "function"
    },
    {
      "inputs": [],
      "name": "controller",
      "outputs": [
        {
          "internalType": "address",
          "name": "",
          "type": "address"
        }
      ],
      "stateMutability": "view",
      "type": "function"
    }
  ],
  "transactionHash": "0x1fc45f8142aeeb683b5d78ca58dabc044695879d1ddf20310199ef8e9e0f0721",
  "args": [
    "0xD4a5b5fcB561dAF3aDF86F8477555B92FBa43b5F"
  ],
  "solcInputHash": "c1f525c5f5ec5d756d5e07b589917725",
  "bytecode": "0x608060405234801561001057600080fd5b506040516108673803806108678339818101604052602081101561003357600080fd5b5051600080546001600160a01b039092166001600160a01b0319909216919091179055610802806100656000396000f3fe608060405234801561001057600080fd5b50600436106100365760003560e01c8063bc14773a1461003b578063f77c47911461007b575b600080fd5b6100696004803603604081101561005157600080fd5b506001600160a01b038135811691602001351661009f565b60408051918252519081900360200190f35b6100836106bb565b604080516001600160a01b039092168252519081900360200190f35b60008054604080517f2630c12f000000000000000000000000000000000000000000000000000000008152905183926001600160a01b031691632630c12f916004808301926020929190829003018186803b1580156100fd57600080fd5b505afa158015610111573d6000803e3d6000fd5b505050506040513d602081101561012757600080fd5b5051604080517ff85cb5c800000000000000000000000000000000000000000000000000000000815290519192506000916001600160a01b0387169163f85cb5c8916004808301926020929190829003018186803b15801561018857600080fd5b505afa15801561019c573d6000803e3d6000fd5b505050506040513d60208110156101b257600080fd5b5051604080517f18160ddd00000000000000000000000000000000000000000000000000000000815290519192506000916001600160a01b038816916318160ddd916004808301926020929190829003018186803b15801561021357600080fd5b505afa158015610227573d6000803e3d6000fd5b505050506040513d602081101561023d57600080fd5b505190508061025257600093505050506106b5565b6000856001600160a01b031663313ce5676040518163ffffffff1660e01b815260040160206040518083038186803b15801561028d57600080fd5b505afa1580156102a1573d6000803e3d6000fd5b505050506040513d60208110156102b757600080fd5b5051905060006001600160a01b0384811690881614156102e05750670de0b6b3a764000061036d565b846001600160a01b031663ac41865a85896040518363ffffffff1660e01b815260040180836001600160a01b03168152602001826001600160a01b031681526020019250505060206040518083038186803b15801561033e57600080fd5b505afa158015610352573d6000803e3d6000fd5b505050506040513d602081101561036857600080fd5b505190505b6000886001600160a01b031663b49a60bb6040518163ffffffff1660e01b815260040160006040518083038186803b1580156103a857600080fd5b505afa1580156103bc573d6000803e3d6000fd5b505050506040513d6000823e601f3d908101601f1916820160405260208110156103e557600080fd5b810190808051604051939291908464010000000082111561040557600080fd5b90830190602082018581111561041a57600080fd5b825186602082028301116401000000008211171561043757600080fd5b82525081516020918201928201910280838360005b8381101561046457818101518382015260200161044c565b505050509050016040525050509050600080600090505b825181101561051657600083828151811061049257fe5b6020026020010151905061050b816001600160a01b0316630126c6066040518163ffffffff1660e01b815260040160206040518083038186803b1580156104d857600080fd5b505afa1580156104ec573d6000803e3d6000fd5b505050506040513d602081101561050257600080fd5b505184906106ca565b92505060010161047b565b5061059a866001600160a01b03166370a082318c6040518263ffffffff1660e01b815260040180826001600160a01b0316815260200191505060206040518083038186803b15801561056757600080fd5b505afa15801561057b573d6000803e3d6000fd5b505050506040513d602081101561059157600080fd5b505182906106ca565b905061060b8a6001600160a01b031663b9e675396040518163ffffffff1660e01b815260040160206040518083038186803b1580156105d857600080fd5b505afa1580156105ec573d6000803e3d6000fd5b505050506040513d602081101561060257600080fd5b505182906106da565b905061061781846106ea565b905060128460ff16101561063c576106398160ff601287900316600a0a61070f565b90505b6106ab8a6001600160a01b03166318160ddd6040518163ffffffff1660e01b815260040160206040518083038186803b15801561067857600080fd5b505afa15801561068c573d6000803e3d6000fd5b505050506040513d60208110156106a257600080fd5b50518290610733565b9750505050505050505b92915050565b6000546001600160a01b031681565b808201828110156106b557600080fd5b808203828111156106b557600080fd5b6000610708670de0b6b3a7640000610702858561070f565b9061074b565b9392505050565b600082158061072a5750508181028183828161072757fe5b04145b6106b557600080fd5b60006107088261070285670de0b6b3a764000061070f565b60008082116107bb57604080517f08c379a000000000000000000000000000000000000000000000000000000000815260206004820152601a60248201527f536166654d6174683a206469766973696f6e206279207a65726f000000000000604482015290519081900360640190fd5b8183816107c457fe5b04939250505056fea2646970667358221220ea4bae50f3d17720aecb9650126c79a4672c51ef90d3d4e8dde5d3af32525a8e64736f6c63430007060033",
  "devdoc": {
    "author": "Babylon Finance Contract that returns the valuation of a Garden using price oracle data used in contracts that are external to the system. Note: Prices are returned in preciseUnits (i.e. 18 decimals of precision)",
    "kind": "dev",
    "methods": {
      "calculateGardenValuation(address,address)": {
        "params": {
          "_garden": "Garden instance to get valuation",
          "_quoteAsset": "Quote asset for the valuation"
        },
        "returns": {
          "_0": "Token valuation in terms of quote asset in precise units 1e18"
        }
      },
      "constructor": {
        "params": {
          "_controller": "Address of controller contract"
        }
      }
    },
    "title": "GardenValuer",
    "version": 1
  },
  "userdoc": {
    "kind": "user",
    "methods": {
      "calculateGardenValuation(address,address)": {
        "notice": "Gets the valuation of a Garden using data from the price oracle. Adds all the active strategies plus the reserve asset and ETH. Note: this works for external positions and negative (debt) positions. Note: There is a risk that the valuation is off if airdrops aren't retrieved"
      },
      "constructor": {
        "notice": "Set state variables and map asset pairs to their oracles"
      }
    },
    "version": 1
  },
  "storageLayout": {
    "storage": [
      {
        "astId": 11610,
        "contract": "contracts/GardenValuer.sol:GardenValuer",
        "label": "controller",
        "offset": 0,
        "slot": "0",
        "type": "t_address"
      }
    ],
    "types": {
      "t_address": {
        "encoding": "inplace",
        "label": "address",
        "numberOfBytes": "20"
      }
    }
  }
}