{
  "address": "0xe73825B149027816c3A7a4b8a41B497704a4523b",
  "abi": [
    {
      "anonymous": false,
      "inputs": [
        {
          "indexed": true,
          "internalType": "address",
          "name": "_strategy",
          "type": "address"
        },
        {
          "indexed": false,
          "internalType": "string",
          "name": "_name",
          "type": "string"
        },
        {
          "indexed": false,
          "internalType": "uint256",
          "name": "_expectedReturn",
          "type": "uint256"
        }
      ],
      "name": "AddStrategy",
      "type": "event"
    },
    {
      "anonymous": false,
      "inputs": [
        {
          "indexed": true,
          "internalType": "address",
          "name": "owner",
          "type": "address"
        },
        {
          "indexed": true,
          "internalType": "address",
          "name": "spender",
          "type": "address"
        },
        {
          "indexed": false,
          "internalType": "uint256",
          "name": "value",
          "type": "uint256"
        }
      ],
      "name": "Approval",
      "type": "event"
    },
    {
      "anonymous": false,
      "inputs": [
        {
          "indexed": true,
          "internalType": "address",
          "name": "_contributor",
          "type": "address"
        },
        {
          "indexed": false,
          "internalType": "uint256",
          "name": "_rewards",
          "type": "uint256"
        }
      ],
      "name": "BABLRewardsForContributor",
      "type": "event"
    },
    {
      "anonymous": false,
      "inputs": [
        {
          "indexed": true,
          "internalType": "address",
          "name": "_to",
          "type": "address"
        },
        {
          "indexed": false,
          "internalType": "uint256",
          "name": "reserveToken",
          "type": "uint256"
        },
        {
          "indexed": false,
          "internalType": "uint256",
          "name": "reserveTokenQuantity",
          "type": "uint256"
        },
        {
          "indexed": false,
          "internalType": "uint256",
          "name": "timestamp",
          "type": "uint256"
        }
      ],
      "name": "GardenDeposit",
      "type": "event"
    },
    {
      "anonymous": false,
      "inputs": [
        {
          "indexed": true,
          "internalType": "address",
          "name": "_from",
          "type": "address"
        },
        {
          "indexed": true,
          "internalType": "address",
          "name": "_to",
          "type": "address"
        },
        {
          "indexed": false,
          "internalType": "uint256",
          "name": "reserveToken",
          "type": "uint256"
        },
        {
          "indexed": false,
          "internalType": "uint256",
          "name": "reserveTokenQuantity",
          "type": "uint256"
        },
        {
          "indexed": false,
          "internalType": "uint256",
          "name": "timestamp",
          "type": "uint256"
        }
      ],
      "name": "GardenWithdrawal",
      "type": "event"
    },
    {
      "anonymous": false,
      "inputs": [
        {
          "indexed": true,
          "internalType": "address",
          "name": "_contributor",
          "type": "address"
        },
        {
          "indexed": true,
          "internalType": "uint256",
          "name": "_amount",
          "type": "uint256"
        }
      ],
      "name": "RewardsForContributor",
      "type": "event"
    },
    {
      "anonymous": false,
      "inputs": [
        {
          "indexed": true,
          "internalType": "address",
          "name": "from",
          "type": "address"
        },
        {
          "indexed": true,
          "internalType": "address",
          "name": "to",
          "type": "address"
        },
        {
          "indexed": false,
          "internalType": "uint256",
          "name": "value",
          "type": "uint256"
        }
      ],
      "name": "Transfer",
      "type": "event"
    },
    {
      "inputs": [],
      "name": "absoluteReturns",
      "outputs": [
        {
          "internalType": "int256",
          "name": "",
          "type": "int256"
        }
      ],
      "stateMutability": "view",
      "type": "function"
    },
    {
      "inputs": [],
      "name": "active",
      "outputs": [
        {
          "internalType": "bool",
          "name": "",
          "type": "bool"
        }
      ],
      "stateMutability": "view",
      "type": "function"
    },
    {
      "inputs": [
        {
          "internalType": "string",
          "name": "_name",
          "type": "string"
        },
        {
          "internalType": "string",
          "name": "_symbol",
          "type": "string"
        },
        {
          "internalType": "uint256[]",
          "name": "_stratParams",
          "type": "uint256[]"
        },
        {
          "internalType": "uint8[]",
          "name": "_opTypes",
          "type": "uint8[]"
        },
        {
          "internalType": "address[]",
          "name": "_opIntegrations",
          "type": "address[]"
        },
        {
          "internalType": "bytes",
          "name": "_opEncodedDatas",
          "type": "bytes"
        }
      ],
      "name": "addStrategy",
      "outputs": [],
      "stateMutability": "nonpayable",
      "type": "function"
    },
    {
      "inputs": [
        {
          "internalType": "uint256",
          "name": "_capital",
          "type": "uint256"
        }
      ],
      "name": "allocateCapitalToStrategy",
      "outputs": [],
      "stateMutability": "nonpayable",
      "type": "function"
    },
    {
      "inputs": [
        {
          "internalType": "address",
          "name": "owner",
          "type": "address"
        },
        {
          "internalType": "address",
          "name": "spender",
          "type": "address"
        }
      ],
      "name": "allowance",
      "outputs": [
        {
          "internalType": "uint256",
          "name": "",
          "type": "uint256"
        }
      ],
      "stateMutability": "view",
      "type": "function"
    },
    {
      "inputs": [
        {
          "internalType": "address",
          "name": "spender",
          "type": "address"
        },
        {
          "internalType": "uint256",
          "name": "amount",
          "type": "uint256"
        }
      ],
      "name": "approve",
      "outputs": [
        {
          "internalType": "bool",
          "name": "",
          "type": "bool"
        }
      ],
      "stateMutability": "nonpayable",
      "type": "function"
    },
    {
      "inputs": [
        {
          "internalType": "address",
          "name": "account",
          "type": "address"
        }
      ],
      "name": "balanceOf",
      "outputs": [
        {
          "internalType": "uint256",
          "name": "",
          "type": "uint256"
        }
      ],
      "stateMutability": "view",
      "type": "function"
    },
    {
      "inputs": [
        {
          "internalType": "address",
          "name": "_strategist",
          "type": "address"
        },
        {
          "internalType": "uint256",
          "name": "_amount",
          "type": "uint256"
        }
      ],
      "name": "burnStrategistStake",
      "outputs": [],
      "stateMutability": "nonpayable",
      "type": "function"
    },
    {
      "inputs": [
        {
          "internalType": "address[]",
          "name": "_finalizedStrategies",
          "type": "address[]"
        }
      ],
      "name": "claimReturns",
      "outputs": [],
      "stateMutability": "nonpayable",
      "type": "function"
    },
    {
      "inputs": [],
      "name": "controller",
      "outputs": [
        {
          "internalType": "address",
          "name": "",
          "type": "address"
        }
      ],
      "stateMutability": "view",
      "type": "function"
    },
    {
      "inputs": [],
      "name": "creator",
      "outputs": [
        {
          "internalType": "address",
          "name": "",
          "type": "address"
        }
      ],
      "stateMutability": "view",
      "type": "function"
    },
    {
      "inputs": [],
      "name": "decimals",
      "outputs": [
        {
          "internalType": "uint8",
          "name": "",
          "type": "uint8"
        }
      ],
      "stateMutability": "view",
      "type": "function"
    },
    {
      "inputs": [
        {
          "internalType": "address",
          "name": "spender",
          "type": "address"
        },
        {
          "internalType": "uint256",
          "name": "subtractedValue",
          "type": "uint256"
        }
      ],
      "name": "decreaseAllowance",
      "outputs": [
        {
          "internalType": "bool",
          "name": "",
          "type": "bool"
        }
      ],
      "stateMutability": "nonpayable",
      "type": "function"
    },
    {
      "inputs": [
        {
          "internalType": "uint256",
          "name": "_amountIn",
          "type": "uint256"
        },
        {
          "internalType": "uint256",
          "name": "_minAmountOut",
          "type": "uint256"
        },
        {
          "internalType": "address",
          "name": "_to",
          "type": "address"
        },
        {
          "internalType": "bool",
          "name": "_mintNft",
          "type": "bool"
        }
      ],
      "name": "deposit",
      "outputs": [],
      "stateMutability": "payable",
      "type": "function"
    },
    {
      "inputs": [
        {
          "internalType": "uint256",
          "name": "_amountIn",
          "type": "uint256"
        },
        {
          "internalType": "uint256",
          "name": "_minAmountOut",
          "type": "uint256"
        },
        {
          "internalType": "bool",
          "name": "_mintNft",
          "type": "bool"
        },
        {
          "internalType": "uint256",
          "name": "_nonce",
          "type": "uint256"
        },
        {
          "internalType": "uint256",
          "name": "_pricePerShare",
          "type": "uint256"
        },
        {
          "internalType": "uint8",
          "name": "v",
          "type": "uint8"
        },
        {
          "internalType": "bytes32",
          "name": "r",
          "type": "bytes32"
        },
        {
          "internalType": "bytes32",
          "name": "s",
          "type": "bytes32"
        }
      ],
      "name": "depositBySig",
      "outputs": [],
      "stateMutability": "nonpayable",
      "type": "function"
    },
    {
      "inputs": [],
      "name": "depositHardlock",
      "outputs": [
        {
          "internalType": "uint256",
          "name": "",
          "type": "uint256"
        }
      ],
      "stateMutability": "view",
      "type": "function"
    },
    {
      "inputs": [
        {
          "internalType": "address",
          "name": "_strategy",
          "type": "address"
        }
      ],
      "name": "expireCandidateStrategy",
      "outputs": [],
      "stateMutability": "nonpayable",
      "type": "function"
    },
    {
      "inputs": [
        {
          "internalType": "uint256",
          "name": "_rewards",
          "type": "uint256"
        },
        {
          "internalType": "int256",
          "name": "_returns",
          "type": "int256"
        }
      ],
      "name": "finalizeStrategy",
      "outputs": [],
      "stateMutability": "nonpayable",
      "type": "function"
    },
    {
      "inputs": [],
      "name": "gardenInitializedAt",
      "outputs": [
        {
          "internalType": "uint256",
          "name": "",
          "type": "uint256"
        }
      ],
      "stateMutability": "view",
      "type": "function"
    },
    {
      "inputs": [
        {
          "internalType": "address",
          "name": "_contributor",
          "type": "address"
        }
      ],
      "name": "getContributor",
      "outputs": [
        {
          "internalType": "uint256",
          "name": "",
          "type": "uint256"
        },
        {
          "internalType": "uint256",
          "name": "",
          "type": "uint256"
        },
        {
          "internalType": "uint256",
          "name": "",
          "type": "uint256"
        },
        {
          "internalType": "uint256",
          "name": "",
          "type": "uint256"
        },
        {
          "internalType": "uint256",
          "name": "",
          "type": "uint256"
        },
        {
          "internalType": "uint256",
          "name": "",
          "type": "uint256"
        },
        {
          "internalType": "uint256",
          "name": "",
          "type": "uint256"
        },
        {
          "internalType": "uint256",
          "name": "",
          "type": "uint256"
        },
        {
          "internalType": "uint256",
          "name": "",
          "type": "uint256"
        },
        {
          "internalType": "uint256",
          "name": "",
          "type": "uint256"
        }
      ],
      "stateMutability": "view",
      "type": "function"
    },
    {
      "inputs": [],
      "name": "getFinalizedStrategies",
      "outputs": [
        {
          "internalType": "address[]",
          "name": "",
          "type": "address[]"
        }
      ],
      "stateMutability": "view",
      "type": "function"
    },
    {
      "inputs": [
        {
          "internalType": "address",
          "name": "_contributor",
          "type": "address"
        }
      ],
      "name": "getLockedBalance",
      "outputs": [
        {
          "internalType": "uint256",
          "name": "",
          "type": "uint256"
        }
      ],
      "stateMutability": "view",
      "type": "function"
    },
    {
      "inputs": [],
      "name": "getStrategies",
      "outputs": [
        {
          "internalType": "address[]",
          "name": "",
          "type": "address[]"
        }
      ],
      "stateMutability": "view",
      "type": "function"
    },
    {
      "inputs": [
        {
          "internalType": "address",
          "name": "spender",
          "type": "address"
        },
        {
          "internalType": "uint256",
          "name": "addedValue",
          "type": "uint256"
        }
      ],
      "name": "increaseAllowance",
      "outputs": [
        {
          "internalType": "bool",
          "name": "",
          "type": "bool"
        }
      ],
      "stateMutability": "nonpayable",
      "type": "function"
    },
    {
      "inputs": [
        {
          "internalType": "address",
          "name": "_reserveAsset",
          "type": "address"
        },
        {
          "internalType": "address",
          "name": "_controller",
          "type": "address"
        },
        {
          "internalType": "address",
          "name": "_creator",
          "type": "address"
        },
        {
          "internalType": "string",
          "name": "_name",
          "type": "string"
        },
        {
          "internalType": "string",
          "name": "_symbol",
          "type": "string"
        },
        {
          "internalType": "uint256[]",
          "name": "_gardenParams",
          "type": "uint256[]"
        },
        {
          "internalType": "uint256",
          "name": "_initialContribution",
          "type": "uint256"
        },
        {
          "internalType": "bool[]",
          "name": "_publicGardenStrategistsStewards",
          "type": "bool[]"
        }
      ],
      "name": "initialize",
      "outputs": [],
      "stateMutability": "payable",
      "type": "function"
    },
    {
      "inputs": [
        {
          "internalType": "address",
          "name": "",
          "type": "address"
        }
      ],
      "name": "isGardenStrategy",
      "outputs": [
        {
          "internalType": "bool",
          "name": "",
          "type": "bool"
        }
      ],
      "stateMutability": "view",
      "type": "function"
    },
    {
      "inputs": [],
      "name": "keeperDebt",
      "outputs": [
        {
          "internalType": "uint256",
          "name": "",
          "type": "uint256"
        }
      ],
      "stateMutability": "view",
      "type": "function"
    },
    {
      "inputs": [],
      "name": "makeGardenPublic",
      "outputs": [],
      "stateMutability": "nonpayable",
      "type": "function"
    },
    {
      "inputs": [],
      "name": "maxContributors",
      "outputs": [
        {
          "internalType": "uint256",
          "name": "",
          "type": "uint256"
        }
      ],
      "stateMutability": "view",
      "type": "function"
    },
    {
      "inputs": [],
      "name": "maxDepositLimit",
      "outputs": [
        {
          "internalType": "uint256",
          "name": "",
          "type": "uint256"
        }
      ],
      "stateMutability": "view",
      "type": "function"
    },
    {
      "inputs": [],
      "name": "maxStrategyDuration",
      "outputs": [
        {
          "internalType": "uint256",
          "name": "",
          "type": "uint256"
        }
      ],
      "stateMutability": "view",
      "type": "function"
    },
    {
      "inputs": [],
      "name": "minContribution",
      "outputs": [
        {
          "internalType": "uint256",
          "name": "",
          "type": "uint256"
        }
      ],
      "stateMutability": "view",
      "type": "function"
    },
    {
      "inputs": [],
      "name": "minLiquidityAsset",
      "outputs": [
        {
          "internalType": "uint256",
          "name": "",
          "type": "uint256"
        }
      ],
      "stateMutability": "view",
      "type": "function"
    },
    {
      "inputs": [],
      "name": "minStrategyDuration",
      "outputs": [
        {
          "internalType": "uint256",
          "name": "",
          "type": "uint256"
        }
      ],
      "stateMutability": "view",
      "type": "function"
    },
    {
      "inputs": [],
      "name": "minVoters",
      "outputs": [
        {
          "internalType": "uint256",
          "name": "",
          "type": "uint256"
        }
      ],
      "stateMutability": "view",
      "type": "function"
    },
    {
      "inputs": [],
      "name": "minVotesQuorum",
      "outputs": [
        {
          "internalType": "uint256",
          "name": "",
          "type": "uint256"
        }
      ],
      "stateMutability": "view",
      "type": "function"
    },
    {
      "inputs": [],
      "name": "name",
      "outputs": [
        {
          "internalType": "string",
          "name": "",
          "type": "string"
        }
      ],
      "stateMutability": "view",
      "type": "function"
    },
    {
      "inputs": [
        {
          "internalType": "address payable",
          "name": "_keeper",
          "type": "address"
        },
        {
          "internalType": "uint256",
          "name": "_fee",
          "type": "uint256"
        }
      ],
      "name": "payKeeper",
      "outputs": [],
      "stateMutability": "nonpayable",
      "type": "function"
    },
    {
      "inputs": [],
      "name": "principal",
      "outputs": [
        {
          "internalType": "uint256",
          "name": "",
          "type": "uint256"
        }
      ],
      "stateMutability": "view",
      "type": "function"
    },
    {
      "inputs": [],
      "name": "privateGarden",
      "outputs": [
        {
          "internalType": "bool",
          "name": "",
          "type": "bool"
        }
      ],
      "stateMutability": "view",
      "type": "function"
    },
    {
      "inputs": [],
      "name": "publicStewards",
      "outputs": [
        {
          "internalType": "bool",
          "name": "",
          "type": "bool"
        }
      ],
      "stateMutability": "view",
      "type": "function"
    },
    {
      "inputs": [],
      "name": "publicStrategists",
      "outputs": [
        {
          "internalType": "bool",
          "name": "",
          "type": "bool"
        }
      ],
      "stateMutability": "view",
      "type": "function"
    },
    {
      "inputs": [],
      "name": "reserveAsset",
      "outputs": [
        {
          "internalType": "address",
          "name": "",
          "type": "address"
        }
      ],
      "stateMutability": "view",
      "type": "function"
    },
    {
      "inputs": [],
      "name": "reserveAssetRewardsSetAside",
      "outputs": [
        {
          "internalType": "uint256",
          "name": "",
          "type": "uint256"
        }
      ],
      "stateMutability": "view",
      "type": "function"
    },
    {
      "inputs": [
        {
          "internalType": "bool",
          "name": "_newValue",
          "type": "bool"
        }
      ],
      "name": "setActive",
      "outputs": [],
      "stateMutability": "nonpayable",
      "type": "function"
    },
    {
      "inputs": [],
      "name": "setCooldown",
      "outputs": [],
      "stateMutability": "nonpayable",
      "type": "function"
    },
    {
      "inputs": [
        {
          "internalType": "bool",
          "name": "_publicStrategists",
          "type": "bool"
        },
        {
          "internalType": "bool",
          "name": "_publicStewards",
          "type": "bool"
        }
      ],
      "name": "setPublicRights",
      "outputs": [],
      "stateMutability": "nonpayable",
      "type": "function"
    },
    {
      "inputs": [],
      "name": "strategyCooldownPeriod",
      "outputs": [
        {
          "internalType": "uint256",
          "name": "",
          "type": "uint256"
        }
      ],
      "stateMutability": "view",
      "type": "function"
    },
    {
      "inputs": [
        {
          "internalType": "address",
          "name": "",
          "type": "address"
        }
      ],
      "name": "strategyMapping",
      "outputs": [
        {
          "internalType": "bool",
          "name": "",
          "type": "bool"
        }
      ],
      "stateMutability": "view",
      "type": "function"
    },
    {
      "inputs": [],
      "name": "symbol",
      "outputs": [
        {
          "internalType": "string",
          "name": "",
          "type": "string"
        }
      ],
      "stateMutability": "view",
      "type": "function"
    },
    {
      "inputs": [],
      "name": "totalContributors",
      "outputs": [
        {
          "internalType": "uint256",
          "name": "",
          "type": "uint256"
        }
      ],
      "stateMutability": "view",
      "type": "function"
    },
    {
      "inputs": [],
      "name": "totalKeeperFees",
      "outputs": [
        {
          "internalType": "uint256",
          "name": "",
          "type": "uint256"
        }
      ],
      "stateMutability": "view",
      "type": "function"
    },
    {
      "inputs": [],
      "name": "totalStake",
      "outputs": [
        {
          "internalType": "uint256",
          "name": "",
          "type": "uint256"
        }
      ],
      "stateMutability": "view",
      "type": "function"
    },
    {
      "inputs": [],
      "name": "totalSupply",
      "outputs": [
        {
          "internalType": "uint256",
          "name": "",
          "type": "uint256"
        }
      ],
      "stateMutability": "view",
      "type": "function"
    },
    {
      "inputs": [
        {
          "internalType": "address",
          "name": "recipient",
          "type": "address"
        },
        {
          "internalType": "uint256",
          "name": "amount",
          "type": "uint256"
        }
      ],
      "name": "transfer",
      "outputs": [
        {
          "internalType": "bool",
          "name": "",
          "type": "bool"
        }
      ],
      "stateMutability": "nonpayable",
      "type": "function"
    },
    {
      "inputs": [
        {
          "internalType": "address",
          "name": "sender",
          "type": "address"
        },
        {
          "internalType": "address",
          "name": "recipient",
          "type": "address"
        },
        {
          "internalType": "uint256",
          "name": "amount",
          "type": "uint256"
        }
      ],
      "name": "transferFrom",
      "outputs": [
        {
          "internalType": "bool",
          "name": "",
          "type": "bool"
        }
      ],
      "stateMutability": "nonpayable",
      "type": "function"
    },
    {
      "inputs": [
        {
          "internalType": "uint256",
          "name": "_amountIn",
          "type": "uint256"
        },
        {
          "internalType": "uint256",
          "name": "_minAmountOut",
          "type": "uint256"
        },
        {
          "internalType": "address payable",
          "name": "_to",
          "type": "address"
        },
        {
          "internalType": "bool",
          "name": "_withPenalty",
          "type": "bool"
        },
        {
          "internalType": "address",
          "name": "_unwindStrategy",
          "type": "address"
        }
      ],
      "name": "withdraw",
      "outputs": [],
      "stateMutability": "nonpayable",
      "type": "function"
    },
    {
      "inputs": [
        {
          "internalType": "uint256",
          "name": "_amountIn",
          "type": "uint256"
        },
        {
          "internalType": "uint256",
          "name": "_minAmountOut",
          "type": "uint256"
        },
        {
          "internalType": "uint256",
          "name": "_nonce",
          "type": "uint256"
        },
        {
          "internalType": "uint256",
          "name": "_pricePerShare",
          "type": "uint256"
        },
        {
          "internalType": "uint8",
          "name": "v",
          "type": "uint8"
        },
        {
          "internalType": "bytes32",
          "name": "r",
          "type": "bytes32"
        },
        {
          "internalType": "bytes32",
          "name": "s",
          "type": "bytes32"
        }
      ],
      "name": "withdrawBySig",
      "outputs": [],
      "stateMutability": "nonpayable",
      "type": "function"
    },
    {
      "stateMutability": "payable",
      "type": "receive"
    }
  ],
  "transactionHash": "0x806ec2eefeb914f6549e1ce4f2b4cb4d2bcd7b9e875e72f3757f0175572c2766",
  "args": [],
  "solcInputHash": "e147e98251e2d97c41a3dc1aad1f1ead",
  "bytecode": "0x608060405267016345785d8a0000607a5534801561001c57600080fd5b506001606555615e8b80620000326000396000f3fe6080604052600436106103855760003560e01c806388d28750116101d1578063b304b81511610102578063cb12233b116100a0578063f251fc8c1161006f578063f251fc8c1461117e578063f77c479114611193578063f8281626146111a8578063f85cb5c8146111bd5761038c565b8063cb12233b1461108c578063daeffcca146110a1578063db41afcf146110f2578063dd62ed3e146111435761038c565b8063b9e67539116100dc578063b9e675391461101a578063ba5d30781461102f578063bc541ac814611044578063c4086893146110595761038c565b8063b304b81514610f8b578063b49a60bb14610ff0578063b63c44e7146110055761038c565b8063a457c2d71161016f578063aaffadf311610149578063aaffadf314610ee3578063acec338a14610ef8578063b2644e6614610f24578063b2ce956e14610f575761038c565b8063a457c2d714610e5c578063a63c643d14610e95578063a9059cbb14610eaa5761038c565b806395cdbedb116101ab57806395cdbedb14610de457806395d89b4114610df95780639ab6374214610e0e578063a06931f914610e475761038c565b806388d2875014610d605780638b0e9f3f14610dba5780638bbde0fd14610dcf5761038c565b80633d8270f5116102b65780635bb3cf29116102545780637550ed18116102235780637550ed1814610d0c57806377e7ff3c14610d21578063792e42e214610d3657806386fa506314610d4b5761038c565b80635bb3cf2914610c5a57806360d442ca14610c8a578063695f3f5d14610c9f57806370a0823114610cd95761038c565b8063550c2b7f11610290578063550c2b7f14610786578063580d55d51461079b5780635a16656a146109c45780635a9e6daa146109d95761038c565b80633d8270f5146106c45780633deddb3f146107475780634422b0dc1461075c5761038c565b806323b872dd11610323578063313ce567116102fd578063313ce567146105b057806339509351146105db5780633a821925146106145780633ad8d04d146106475761038c565b806323b872dd1461051d578063297ce598146105605780632befcc5c146105755761038c565b806306fdde031161035f57806306fdde031461041e578063095ea7b3146104a85780631780998b146104e157806318160ddd146104f65761038c565b806302d05d3f1461039157806302fb0c5e146103c257806306061dfa146103eb5761038c565b3661038c57005b600080fd5b34801561039d57600080fd5b506103a66111d2565b604080516001600160a01b039092168252519081900360200190f35b3480156103ce57600080fd5b506103d76111e1565b604080519115158252519081900360200190f35b3480156103f757600080fd5b506103d76004803603602081101561040e57600080fd5b50356001600160a01b03166111f1565b34801561042a57600080fd5b50610433611206565b6040805160208082528351818301528351919283929083019185019080838360005b8381101561046d578181015183820152602001610455565b50505050905090810190601f16801561049a5780820380516001836020036101000a031916815260200191505b509250505060405180910390f35b3480156104b457600080fd5b506103d7600480360360408110156104cb57600080fd5b506001600160a01b03813516906020013561129c565b3480156104ed57600080fd5b506103d76112ba565b34801561050257600080fd5b5061050b6112c3565b60408051918252519081900360200190f35b34801561052957600080fd5b506103d76004803603606081101561054057600080fd5b506001600160a01b038135811691602081013590911690604001356112c9565b34801561056c57600080fd5b5061050b611351565b34801561058157600080fd5b506105ae6004803603604081101561059857600080fd5b506001600160a01b038135169060200135611357565b005b3480156105bc57600080fd5b506105c5611388565b6040805160ff9092168252519081900360200190f35b3480156105e757600080fd5b506103d7600480360360408110156105fe57600080fd5b506001600160a01b038135169060200135611391565b34801561062057600080fd5b506103d76004803603602081101561063757600080fd5b50356001600160a01b03166113df565b34801561065357600080fd5b506105ae6004803603602081101561066a57600080fd5b81019060208101813564010000000081111561068557600080fd5b82018360208201111561069757600080fd5b803590602001918460208302840111640100000000831117156106b957600080fd5b5090925090506113f4565b3480156106d057600080fd5b506106f7600480360360208110156106e757600080fd5b50356001600160a01b0316611887565b604080519a8b5260208b0199909952898901979097526060890195909552608088019390935260a087019190915260c086015260e085015261010084015261012083015251908190036101400190f35b34801561075357600080fd5b5061050b6119de565b34801561076857600080fd5b506105ae6004803603602081101561077f57600080fd5b50356119e4565b34801561079257600080fd5b506103d7611ac7565b6105ae60048036036101008110156107b257600080fd5b6001600160a01b03823581169260208101358216926040820135909216918101906080810160608201356401000000008111156107ee57600080fd5b82018360208201111561080057600080fd5b8035906020019184600183028401116401000000008311171561082257600080fd5b91908080601f016020809104026020016040519081016040528093929190818152602001838380828437600092019190915250929594936020810193503591505064010000000081111561087557600080fd5b82018360208201111561088757600080fd5b803590602001918460018302840111640100000000831117156108a957600080fd5b91908080601f01602080910402602001604051908101604052809392919081815260200183838082843760009201919091525092959493602081019350359150506401000000008111156108fc57600080fd5b82018360208201111561090e57600080fd5b8035906020019184602083028401116401000000008311171561093057600080fd5b9193909282359260408101906020013564010000000081111561095257600080fd5b82018360208201111561096457600080fd5b8035906020019184602083028401116401000000008311171561098657600080fd5b919080806020026020016040519081016040528093929190818152602001838360200280828437600092019190915250929550611ad7945050505050565b3480156109d057600080fd5b5061050b611ffc565b3480156109e557600080fd5b506105ae600480360360c08110156109fc57600080fd5b810190602081018135640100000000811115610a1757600080fd5b820183602082011115610a2957600080fd5b80359060200191846001830284011164010000000083111715610a4b57600080fd5b91908080601f0160208091040260200160405190810160405280939291908181526020018383808284376000920191909152509295949360208101935035915050640100000000811115610a9e57600080fd5b820183602082011115610ab057600080fd5b80359060200191846001830284011164010000000083111715610ad257600080fd5b91908080601f0160208091040260200160405190810160405280939291908181526020018383808284376000920191909152509295949360208101935035915050640100000000811115610b2557600080fd5b820183602082011115610b3757600080fd5b80359060200191846020830284011164010000000083111715610b5957600080fd5b919390929091602081019035640100000000811115610b7757600080fd5b820183602082011115610b8957600080fd5b80359060200191846020830284011164010000000083111715610bab57600080fd5b919390929091602081019035640100000000811115610bc957600080fd5b820183602082011115610bdb57600080fd5b80359060200191846020830284011164010000000083111715610bfd57600080fd5b919390929091602081019035640100000000811115610c1b57600080fd5b820183602082011115610c2d57600080fd5b80359060200191846001830284011164010000000083111715610c4f57600080fd5b509092509050612002565b348015610c6657600080fd5b506105ae60048036036040811015610c7d57600080fd5b5080359060200135612506565b348015610c9657600080fd5b5061050b6126ac565b6105ae60048036036080811015610cb557600080fd5b508035906020810135906001600160a01b03604082013516906060013515156126b2565b348015610ce557600080fd5b5061050b60048036036020811015610cfc57600080fd5b50356001600160a01b03166128fa565b348015610d1857600080fd5b5061050b612915565b348015610d2d57600080fd5b506103d761291b565b348015610d4257600080fd5b5061050b612929565b348015610d5757600080fd5b5061050b61292f565b348015610d6c57600080fd5b506105ae6004803603610100811015610d8457600080fd5b50803590602081013590604081013515159060608101359060808101359060ff60a0820135169060c08101359060e00135612935565b348015610dc657600080fd5b5061050b612a76565b348015610ddb57600080fd5b5061050b612a7c565b348015610df057600080fd5b5061050b612a82565b348015610e0557600080fd5b50610433612a88565b348015610e1a57600080fd5b506105ae60048036036040811015610e3157600080fd5b506001600160a01b038135169060200135612ae9565b348015610e5357600080fd5b5061050b612d21565b348015610e6857600080fd5b506103d760048036036040811015610e7f57600080fd5b506001600160a01b038135169060200135612d27565b348015610ea157600080fd5b5061050b612d8f565b348015610eb657600080fd5b506103d760048036036040811015610ecd57600080fd5b506001600160a01b038135169060200135612d95565b348015610eef57600080fd5b5061050b612da9565b348015610f0457600080fd5b506105ae60048036036020811015610f1b57600080fd5b50351515612daf565b348015610f3057600080fd5b506105ae60048036036020811015610f4757600080fd5b50356001600160a01b0316612e06565b348015610f6357600080fd5b506105ae60048036036040811015610f7a57600080fd5b508035151590602001351515612eaf565b348015610f9757600080fd5b50610fa0612f04565b60408051602080825283518183015283519192839290830191858101910280838360005b83811015610fdc578181015183820152602001610fc4565b505050509050019250505060405180910390f35b348015610ffc57600080fd5b50610fa0612f65565b34801561101157600080fd5b5061050b612fc5565b34801561102657600080fd5b5061050b612fcb565b34801561103b57600080fd5b5061050b612fd1565b34801561105057600080fd5b506105ae612fd7565b34801561106557600080fd5b5061050b6004803603602081101561107c57600080fd5b50356001600160a01b031661307b565b34801561109857600080fd5b5061050b6131d3565b3480156110ad57600080fd5b506105ae600480360360a08110156110c457600080fd5b508035906020810135906001600160a01b0360408201358116916060810135151591608090910135166131d9565b3480156110fe57600080fd5b506105ae600480360360e081101561111557600080fd5b5080359060208101359060408101359060608101359060ff6080820135169060a08101359060c00135613372565b34801561114f57600080fd5b5061050b6004803603604081101561116657600080fd5b506001600160a01b03813581169160200135166134ab565b34801561118a57600080fd5b5061050b6134d6565b34801561119f57600080fd5b506103a66134dc565b3480156111b457600080fd5b506105ae6134eb565b3480156111c957600080fd5b506103a66135ad565b6069546001600160a01b031681565b606954600160a01b900460ff1681565b60826020526000908152604090205460ff1681565b60368054604080516020601f60026000196101006001881615020190951694909404938401819004810282018101909252828152606093909290918301828280156112925780601f1061126757610100808354040283529160200191611292565b820191906000526020600020905b81548152906001019060200180831161127557829003601f168201915b5050505050905090565b60006112b06112a96135bc565b84846135c0565b5060015b92915050565b60855460ff1681565b60355490565b60006112d68484846136ac565b611346846112e26135bc565b61134185604051806060016040528060288152602001615d75602891396001600160a01b038a166000908152603460205260408120906113206135bc565b6001600160a01b031681526020810191909152604001600020549190613809565b6135c0565b5060015b9392505050565b607d5481565b61135f6138a0565b611368826128fa565b811061137a57611377826128fa565b90505b61138482826138c0565b5050565b60385460ff1690565b60006112b061139e6135bc565b8461134185603460006113af6135bc565b6001600160a01b03908116825260208083019390935260409182016000908120918c1681529252902054906139bc565b60816020526000908152604090205460ff1681565b6002606554141561144c576040805162461bcd60e51b815260206004820152601f60248201527f5265656e7472616e637947756172643a207265656e7472616e742063616c6c00604482015290519081900360640190fd5b6002606555611459613a16565b611461613aaf565b3360009081526071602052604090206002810154611482904211600c613ac1565b60408051600780825261010082019092526000916020820160e08036833750506068546040517f69795e9300000000000000000000000000000000000000000000000000000000815230600482018181523360248401819052606060448501908152606485018b90529697506001600160a01b03909416956369795e9395509193928a928a9291608401846020850280828437600081840152601f19601f8201169050808301925050509550505050505060006040518083038186803b15801561154b57600080fd5b505afa15801561155f573d6000803e3d6000fd5b505050506040513d6000823e601f3d908101601f19168201604052602081101561158857600080fd5b81019080805160405193929190846401000000008211156115a857600080fd5b9083019060208201858111156115bd57600080fd5b82518660208202830111640100000000821117156115da57600080fd5b82525081516020918201928201910280838360005b838110156116075781810151838201526020016115ef565b50505050905001604052505050905061165760008260058151811061162857fe5b60200260200101511180611650575060008260068151811061164657fe5b6020026020010151115b6052613ac1565b60008160068151811061166657fe5b602002602001015111156117475761169f8160068151811061168457fe5b60200260200101518360040154613acf90919063ffffffff16565b82600401819055506116d0816006815181106116b757fe5b6020026020010151606b54613adf90919063ffffffff16565b606b5542600283015580516116fb903390839060069081106116ee57fe5b6020026020010151613aef565b8060068151811061170857fe5b6020026020010151336001600160a01b03167f4dacaff8a707e7b54321fbdedb3b65d1f3316b59787949c034bae8946d6ff4e160405160405180910390a35b60008160058151811061175657fe5b6020026020010151111561187c5761178f8160058151811061177457fe5b60200260200101518360030154613acf90919063ffffffff16565b600383015542600283015560685481516001600160a01b039091169063a8d9a781903390849060059081106117c057fe5b60200260200101516040518363ffffffff1660e01b815260040180836001600160a01b0316815260200182815260200192505050600060405180830381600087803b15801561180e57600080fd5b505af1158015611822573d6000803e3d6000fd5b50505050336001600160a01b03167f09703ae9c781fcf86e1d44c6d854c2684b3f5dcfe234dfc64f4d356d0e3cd73e8260058151811061185e57fe5b60200260200101516040518082815260200191505060405180910390a25b505060016065555050565b6001600160a01b038082166000818152607160209081526040808320606854600182015483517f7602bdde000000000000000000000000000000000000000000000000000000008152306004820152602481019790975260448701524260648701529151939586958695869586958695869586958695869593948694931692637602bdde9260848082019391829003018186803b15801561192757600080fd5b505afa15801561193b573d6000803e3d6000fd5b505050506040513d602081101561195157600080fd5b5051905060006119608e6128fa565b9050600061196d8f61307b565b905083600001548460010154856002015486600301548760040154886005015489600601541161199e5760006119b1565b600589015460068a01546119b191613adf565b87878a8c600701549d509d509d509d509d509d509d509d509d509d50505050509193959799509193959799565b607e5481565b6119ec6138a0565b6119f4613bb7565b6000611a7a82606760009054906101000a90046001600160a01b03166001600160a01b031663313754776040518163ffffffff1660e01b815260040160206040518083038186803b158015611a4857600080fd5b505afa158015611a5c573d6000803e3d6000fd5b505050506040513d6020811015611a7257600080fd5b505190613bcf565b9050611a9a611a87613bed565b611a918484613acf565b11156004613ac1565b606654611ab0906001600160a01b031682613c9d565b606654611384906001600160a01b03163384613d35565b606954600160a81b900460ff1681565b600054610100900460ff1680611af05750611af0613dba565b80611afe575060005460ff16155b611b395760405162461bcd60e51b815260040180806020018281038252602e815260200180615d25602e913960400191505060405180910390fd5b600054610100900460ff16158015611b64576000805460ff1961ff0019909116610100171660011790555b611b736032885110604f613ac1565b611c106001600160a01b03891615801590611b9657506001600160a01b038a1615155b8015611c09575060008b6001600160a01b031663313ce5676040518163ffffffff1660e01b815260040160206040518083038186803b158015611bd857600080fd5b505afa158015611bec573d6000803e3d6000fd5b505050506040513d6020811015611c0257600080fd5b505160ff16115b6017613ac1565b611c1e600a8514604e613ac1565b611ca1896001600160a01b031663f979cdd98c6040518263ffffffff1660e01b815260040180826001600160a01b0316815260200191505060206040518083038186803b158015611c6e57600080fd5b505afa158015611c82573d6000803e3d6000fd5b505050506040513d6020811015611c9857600080fd5b5051600e613ac1565b611cab8787613dcb565b606780546001600160a01b03808c166001600160a01b03199283161792839055606680548e8316908416179055606980548c8316931692909217909155604080517f3f2a554000000000000000000000000000000000000000000000000000000000815290519290911691633f2a554091600480820192602092909190829003018186803b158015611d3c57600080fd5b505afa158015611d50573d6000803e3d6000fd5b505050506040513d6020811015611d6657600080fd5b5051606880546001600160a01b0319166001600160a01b039283161790819055611d94911615156017613ac1565b606760009054906101000a90046001600160a01b03166001600160a01b0316637f80e05b6040518163ffffffff1660e01b815260040160206040518083038186803b158015611de257600080fd5b505afa158015611df6573d6000803e3d6000fd5b505050506040513d6020811015611e0c57600080fd5b50518015611e2b575081600081518110611e2257fe5b60200260200101515b611e36576001611e4d565b81600081518110611e4357fe5b6020026020010151155b6069805460ff60a81b1916600160a81b9215158302179081905560ff91900416158015611e8b575081600181518110611e8257fe5b60200260200101515b611e96576000611e99565b60015b6085805460ff191691151591909117905560695460ff600160a81b90910416158015611ed6575081600281518110611ecd57fe5b60200260200101515b611ee1576000611ee4565b60015b608580549115156101000261ff0019909216919091179055611fcb838686600081611f0b57fe5b9050602002013587876001818110611f1f57fe5b9050602002013588886002818110611f3357fe5b9050602002013589896003818110611f4757fe5b905060200201358a8a6004818110611f5b57fe5b905060200201358b8b6005818110611f6f57fe5b905060200201358c8c6006818110611f8357fe5b905060200201358d8d6007818110611f9757fe5b905060200201358e8e6008818110611fab57fe5b905060200201358f8f6009818110611fbf57fe5b90506020020135613e80565b6069805460ff60a01b1916600160a01b1790558015611ff0576000805461ff00191690555b50505050505050505050565b607b5481565b61200a613a16565b612012613bb7565b61201a613aaf565b600061202533614215565b9250505061203481601e613ac1565b607f5461204590601411601a613ac1565b61205360048914604d613ac1565b606754604080517f9ef3571000000000000000000000000000000000000000000000000000000000815290516000926001600160a01b031691639ef35710916004808301926020929190829003018186803b1580156120b157600080fd5b505afa1580156120c5573d6000803e3d6000fd5b505050506040513d60208110156120db57600080fd5b81019080805190602001909291905050506001600160a01b03166378afca3e8d8d33308f8f6040518763ffffffff1660e01b8152600401808060200180602001876001600160a01b03168152602001866001600160a01b031681526020018060200184810384528a818151815260200191508051906020019080838360005b8381101561217257818101518382015260200161215a565b50505050905090810190601f16801561219f5780820380516001836020036101000a031916815260200191505b5084810383528951815289516020918201918b019080838360005b838110156121d25781810151838201526020016121ba565b50505050905090810190601f1680156121ff5780820380516001836020036101000a031916815260200191505b508481038252868682818152602001925060200280828437600081840152601f19601f8201169050808301925050509950505050505050505050602060405180830381600087803b15801561225357600080fd5b505af1158015612267573d6000803e3d6000fd5b505050506040513d602081101561227d57600080fd5b50516001600160a01b0381166000908152608160205260409020805460ff191660019081179091559091506122d1908b908b908181106122b957fe5b90506020020135607954613acf90919063ffffffff16565b607955607f80546001810182556000919091527f66925e85f1a4743fd8d60ba595ed74887b7caf321dd83b21e04d77c1153834080180546001600160a01b0319166001600160a01b0383169081179091556040517fecbc2cda000000000000000000000000000000000000000000000000000000008152606060048201908152606482018a905263ecbc2cda918b918b918b918b918b918b918190602481019060448101906084018a60208b0280828437600083820152601f01601f19169091018581038452888152602090810191508990890280828437600083820152601f01601f191690910185810383528681526020019050868680828437600081840152601f19601f8201169050808301925050509950505050505050505050600060405180830381600087803b15801561240857600080fd5b505af115801561241c573d6000803e3d6000fd5b5050506001600160a01b0382166000818152608260205260409020805460ff1916600117905590507f9e896c245c70d187fa97788cded4bca6b7546fa444cc7b0c111c57b592affa018d8c8c600381811061247357fe5b905060200201356040518080602001838152602001828103825284818151815260200191508051906020019080838360005b838110156124bd5781810151838201526020016124a5565b50505050905090810190601f1680156124ea5780820380516001836020036101000a031916815260200191505b50935050505060405180910390a2505050505050505050505050565b61250e613a16565b336000908152608160205260409020546125ad9060ff1680156125a65750306001600160a01b0316336001600160a01b03166356ba88b86040518163ffffffff1660e01b815260040160206040518083038186803b15801561256f57600080fd5b505afa158015612583573d6000803e3d6000fd5b505050506040513d602081101561259957600080fd5b50516001600160a01b0316145b6014613ac1565b606b546125ba9083613acf565b606b55606d546125ca9082614519565b606d8190555061263d33607f80548060200260200160405190810160405280929190818152602001828054801561262a57602002820191906000526020600020905b81546001600160a01b0316815260019091019060200180831161260c575b505050505061457e90919063ffffffff16565b805161265191607f91602090910190615afe565b505060808054600181019091557f59f3fb058c6bba7a4e76396639fc4dd21bd59163db798899cf56cef48b3c9ec90180546001600160a01b031916339081179091556000908152608160205260409020805460ff1916905550565b60835481565b6002606554141561270a576040805162461bcd60e51b815260206004820152601f60248201527f5265656e7472616e637947756172643a207265656e7472616e742063616c6c00604482015290519081900360640190fd5b6002606555607f546000906127e4576127216112c3565b156127d5576127d06127316112c3565b606654604080517f313ce56700000000000000000000000000000000000000000000000000000000815290516127ca926001600160a01b03169163313ce567916004808301926020929190829003018186803b15801561279057600080fd5b505afa1580156127a4573d6000803e3d6000fd5b505050506040513d60208110156127ba57600080fd5b505160ff16600a0a6127ca613bed565b906145fb565b6127dd565b6127dd614613565b90506128e0565b606760009054906101000a90046001600160a01b03166001600160a01b031663294d237c6040518163ffffffff1660e01b815260040160206040518083038186803b15801561283257600080fd5b505afa158015612846573d6000803e3d6000fd5b505050506040513d602081101561285c57600080fd5b505160665460408051635e0a3b9d60e11b81523060048201526001600160a01b0392831660248201529051919092169163bc14773a916044808301926020929190829003018186803b1580156128b157600080fd5b505afa1580156128c5573d6000803e3d6000fd5b505050506040513d60208110156128db57600080fd5b505190505b6128ee85858533868661461f565b50506001606555505050565b6001600160a01b031660009081526033602052604090205490565b606f5481565b608554610100900460ff1681565b606d5481565b60735481565b6002606554141561298d576040805162461bcd60e51b815260206004820152601f60248201527f5265656e7472616e637947756172643a207265656e7472616e742063616c6c00604482015290519081900360640190fd5b6002606555604080517f57b0789737c0cfb519c8fff6a093179b683bafbf56fc30409ab88b4f03b391c26020808301919091523082840152606082018b9052608082018a905288151560a083015260c08083018990528351808403909101815260e09092019092528051910120600090612a0690614a83565b90506000612a1682868686614ad4565b9050612a2e6001600160a01b03821615156058613ac1565b6001600160a01b038116600090815260716020526040902060070154612a579088146059613ac1565b612a658a8a83848c8b61461f565b505060016065555050505050505050565b60795481565b607a5481565b607c5481565b60378054604080516020601f60026000196101006001881615020190951694909404938401819004810282018101909252828152606093909290918301828280156112925780601f1061126757610100808354040283529160200191611292565b612af1613a16565b612af96138a0565b606754604080517f411137c30000000000000000000000000000000000000000000000000000000081526001600160a01b0385811660048301529151612b9793929092169163411137c391602480820192602092909190829003018186803b158015612b6457600080fd5b505afa158015612b78573d6000803e3d6000fd5b505050506040513d6020811015612b8e57600080fd5b50516012613ac1565b6066546001600160a01b031673c02aaa39b223fe8d0a0e5c4f27ead9083c756cc21415612bd957612bd4670de0b6b3a76400008211156013613ac1565b612c92565b6066546001600160a01b0316736b175474e89094c44da98b954eedeac495271d0f1415612c1757612bd4686c6b935b8bbd4000008211156013613ac1565b6066546001600160a01b031673a0b86991c6218b36c1d19d4a2e9eb0ce3606eb481415612c5057612bd463773594008211156013613ac1565b6066546001600160a01b0316732260fac5e5542a773aa44fbcfedf7c193bc2c5991415612c8857612bd4624c4b408211156013613ac1565b612c926055614c52565b608354612c9f9082613acf565b608381905515801590612cba57506000612cb7613bed565b10155b15611384576000608354612ccc613bed565b11612cde57612cd9613bed565b612ce2565b6083545b606654909150612cfc906001600160a01b03168483613d35565b608454612d099082613acf565b608455608354612d199082613adf565b608355505050565b60845481565b60006112b0612d346135bc565b8461134185604051806060016040528060258152602001615e316025913960346000612d5e6135bc565b6001600160a01b03908116825260208083019390935260409182016000908120918d16815292529020549190613809565b606e5481565b60006112b0612da26135bc565b84846136ac565b60775481565b606754612dc8906001600160a01b031633146010613ac1565b606954612de89060ff600160a01b90910416151582151514156016613ac1565b60698054911515600160a01b0260ff60a01b19909216919091179055565b612e0e6138a0565b612e7981607f80548060200260200160405190810160405280929190818152602001828054801561262a576020028201919060005260206000209081546001600160a01b0316815260019091019060200180831161260c57505050505061457e90919063ffffffff16565b8051612e8d91607f91602090910190615afe565b506001600160a01b03166000908152608160205260409020805460ff19169055565b606954612ec8906001600160a01b031633146011613ac1565b606954612ee190600160a81b900460ff1615605a613ac1565b6085805460ff19169215159290921761ff00191661010091151591909102179055565b6060608080548060200260200160405190810160405280929190818152602001828054801561129257602002820191906000526020600020905b81546001600160a01b03168152600190910190602001808311612f3e575050505050905090565b6060607f805480602002602001604051908101604052809291908181526020018280548015611292576020028201919060005260206000209081546001600160a01b03168152600190910190602001808311612f3e575050505050905090565b60745481565b606b5481565b606a5481565b606754604080517f8da5cb5b0000000000000000000000000000000000000000000000000000000081529051613074926001600160a01b031691638da5cb5b916004808301926020929190829003018186803b15801561303657600080fd5b505afa15801561304a573d6000803e3d6000fd5b505050506040513d602081101561306057600080fd5b50516001600160a01b031633146020613ac1565b603c607e55565b60008060005b607f548110156131b9576000607f828154811061309a57fe5b60009182526020918290200154604080517f1fe4a68600000000000000000000000000000000000000000000000000000000815290516001600160a01b0390921693508392631fe4a68692600480840193829003018186803b1580156130ff57600080fd5b505afa158015613113573d6000803e3d6000fd5b505050506040513d602081101561312957600080fd5b50516001600160a01b03868116911614156131b0576131ad816001600160a01b0316633a4b66f16040518163ffffffff1660e01b815260040160206040518083038186803b15801561317a57600080fd5b505afa15801561318e573d6000803e3d6000fd5b505050506040513d60208110156131a457600080fd5b50518490613acf565b92505b50600101613081565b50806131c4846128fa565b10156112b45761134a836128fa565b60755481565b60026065541415613231576040805162461bcd60e51b815260206004820152601f60248201527f5265656e7472616e637947756172643a207265656e7472616e742063616c6c00604482015290519081900360640190fd5b6002606555606754604080517f294d237c00000000000000000000000000000000000000000000000000000000815290516000926001600160a01b03169163294d237c916004808301926020929190829003018186803b15801561329457600080fd5b505afa1580156132a8573d6000803e3d6000fd5b505050506040513d60208110156132be57600080fd5b505160665460408051635e0a3b9d60e11b81523060048201526001600160a01b0392831660248201529051919092169163bc14773a916044808301926020929190829003018186803b15801561331357600080fd5b505afa158015613327573d6000803e3d6000fd5b505050506040513d602081101561333d57600080fd5b50519050613357336001600160a01b03861614600f613ac1565b613365868686868686614ca5565b5050600160655550505050565b600260655414156133ca576040805162461bcd60e51b815260206004820152601f60248201527f5265656e7472616e637947756172643a207265656e7472616e742063616c6c00604482015290519081900360640190fd5b6002606555604080517f0fc9f4e7c65020f4af4fe068f91f89ab749ed28a772ffc0dca3e1bb2d417ea9b6020808301919091523082840152606082018a90526080820189905260a08083018990528351808403909101815260c0909201909252805191012060009061343b90614a83565b9050600061344b82868686614ad4565b90506134636001600160a01b03821615156058613ac1565b6001600160a01b03811660009081526071602052604090206007015461348c9088146059613ac1565b61349b8989836000808b614ca5565b5050600160655550505050505050565b6001600160a01b03918216600090815260346020908152604080832093909416825291909152205490565b60725481565b6067546001600160a01b031681565b606954613504906001600160a01b031633146011613ac1565b60695461359e90600160a81b900460ff1680156135975750606760009054906101000a90046001600160a01b03166001600160a01b0316637f80e05b6040518163ffffffff1660e01b815260040160206040518083038186803b15801561356a57600080fd5b505afa15801561357e573d6000803e3d6000fd5b505050506040513d602081101561359457600080fd5b50515b6043613ac1565b6069805460ff60a81b19169055565b6066546001600160a01b031681565b3390565b6001600160a01b0383166136055760405162461bcd60e51b8152600401808060200182810382526024815260200180615de36024913960400191505060405180910390fd5b6001600160a01b03821661364a5760405162461bcd60e51b8152600401808060200182810382526022815260200180615c3a6022913960400191505060405180910390fd5b6001600160a01b03808416600081815260346020908152604080832094871680845294825291829020859055815185815291517f8c5be1e5ebec7d5bd14f71427d1e84f3dd0314c0f7b2291e5b200ac8c7c3b9259281900390910190a3505050565b6001600160a01b0383166136f15760405162461bcd60e51b8152600401808060200182810382526025815260200180615dbe6025913960400191505060405180910390fd5b6001600160a01b0382166137365760405162461bcd60e51b8152600401808060200182810382526023815260200180615bf56023913960400191505060405180910390fd5b613741838383614f0a565b61377e81604051806060016040528060268152602001615c5c602691396001600160a01b0386166000908152603360205260409020549190613809565b6001600160a01b0380851660009081526033602052604080822093909355908416815220546137ad90826139bc565b6001600160a01b0380841660008181526033602090815260409182902094909455805185815290519193928716927fddf252ad1be2c89b69c2b068fc378daa952ba7f163c4a11628f55a4df523b3ef92918290030190a3505050565b600081848411156138985760405162461bcd60e51b81526004018080602001828103825283818151815260200191508051906020019080838360005b8381101561385d578181015183820152602001613845565b50505050905090810190601f16801561388a5780820380516001836020036101000a031916815260200191505b509250505060405180910390fd5b505050900390565b336000908152608160205260409020546138be9060ff166014613ac1565b565b6001600160a01b0382166139055760405162461bcd60e51b8152600401808060200182810382526021815260200180615d9d6021913960400191505060405180910390fd5b61391182600083614f0a565b61394e81604051806060016040528060228152602001615c18602291396001600160a01b0385166000908152603360205260409020549190613809565b6001600160a01b0383166000908152603360205260409020556035546139749082614fd2565b6035556040805182815290516000916001600160a01b038516917fddf252ad1be2c89b69c2b068fc378daa952ba7f163c4a11628f55a4df523b3ef9181900360200190a35050565b60008282018381101561134a576040805162461bcd60e51b815260206004820152601b60248201527f536166654d6174683a206164646974696f6e206f766572666c6f770000000000604482015290519081900360640190fd5b606754604080517f5b14f18300000000000000000000000000000000000000000000000000000000815230600482015290516138be926001600160a01b031691635b14f183916024808301926020929190829003018186803b158015613a7b57600080fd5b505afa158015613a8f573d6000803e3d6000fd5b505050506040513d6020811015613aa557600080fd5b5051156053613ac1565b6138be6000613abd336128fa565b11600f5b816113845761138481614c52565b808201828110156112b457600080fd5b808203828111156112b457600080fd5b6066546001600160a01b031673c02aaa39b223fe8d0a0e5c4f27ead9083c756cc21415613ba05780471015613b915773c02aaa39b223fe8d0a0e5c4f27ead9083c756cc2632e1a7d4d613b428347613adf565b6040518263ffffffff1660e01b815260040180828152602001915050600060405180830381600087803b158015613b7857600080fd5b505af1158015613b8c573d6000803e3d6000fd5b505050505b613b9b828261502f565b611384565b606654611384906001600160a01b03168383613d35565b6069546138be90600160a01b900460ff166015613ac1565b600061134a670de0b6b3a7640000613be78585615114565b90615138565b606b54606654604080516370a0823160e01b815230600482015290516000938493613c779391926001600160a01b03909116916370a08231916024808301926020929190829003018186803b158015613c4557600080fd5b505afa158015613c59573d6000803e3d6000fd5b505050506040513d6020811015613c6f57600080fd5b505190613adf565b90506083548111613c89576000613c97565b608354613c97908290613adf565b91505090565b606754604080517f61d027b30000000000000000000000000000000000000000000000000000000081529051611384926001600160a01b0316916361d027b3916004808301926020929190829003018186803b158015613cfc57600080fd5b505afa158015613d10573d6000803e3d6000fd5b505050506040513d6020811015613d2657600080fd5b50516001600160a01b03841690835b604080516001600160a01b038416602482015260448082018490528251808303909101815260649091019091526020810180517bffffffffffffffffffffffffffffffffffffffffffffffffffffffff167fa9059cbb00000000000000000000000000000000000000000000000000000000179052613db590849061519f565b505050565b6000613dc530615250565b15905090565b600054610100900460ff1680613de45750613de4613dba565b80613df2575060005460ff16155b613e2d5760405162461bcd60e51b815260040180806020018281038252602e815260200180615d25602e913960400191505060405180910390fd5b600054610100900460ff16158015613e58576000805460ff1961ff0019909116610100171660011790555b613e60615256565b613e6a83836152f8565b8015613db5576000805461ff0019169055505050565b613e9a600088118015613e935750878c10155b6001613ac1565b606754606654604080517ff05017eb0000000000000000000000000000000000000000000000000000000081526001600160a01b0392831660048201529051613f3e93929092169163f05017eb91602480820192602092909190829003018186803b158015613f0857600080fd5b505afa158015613f1c573d6000803e3d6000fd5b505050506040513d6020811015613f3257600080fd5b50518a10156004613ac1565b613fa78a8c11158015613fa057506066546001600160a01b031673c02aaa39b223fe8d0a0e5c4f27ead9083c756cc214613f83576a084595161401484a000000613f8f565b69021e19e0c9bab24000005b6affffffffffffffffffffff168b11155b6000613ac1565b613fb5600089116003613ac1565b606754604080517f8e20fb0700000000000000000000000000000000000000000000000000000000815290516140cf926001600160a01b031691638e20fb07916004808301926020929190829003018186803b15801561401457600080fd5b505afa158015614028573d6000803e3d6000fd5b505050506040513d602081101561403e57600080fd5b505187118015906140c85750606760009054906101000a90046001600160a01b03166001600160a01b0316636b2fb6786040518163ffffffff1660e01b815260040160206040518083038186803b15801561409857600080fd5b505afa1580156140ac573d6000803e3d6000fd5b505050506040513d60208110156140c257600080fd5b50518710155b6018613ac1565b61410367016345785d8a000086101580156140fc57506140f867016345785d8a00006005615114565b8611155b6019613ac1565b6141308484101580156141195750620151808510155b801561412957506302932e008411155b603f613ac1565b61414b600183101580156141445750600a83105b6040613ac1565b6141de6000821180156141d75750606760009054906101000a90046001600160a01b03166001600160a01b0316637177fec96040518163ffffffff1660e01b815260040160206040518083038186803b1580156141a757600080fd5b505afa1580156141bb573d6000803e3d6000fd5b505050506040513d60208110156141d157600080fd5b50518211155b605b613ac1565b607355607795909555607e93909355607a91909155607b92909255607c91909155607d5560749290925542607555606e55606f5550565b600080600080606760009054906101000a90046001600160a01b03166001600160a01b031663c8ed947f6040518163ffffffff1660e01b815260040160206040518083038186803b15801561426957600080fd5b505afa15801561427d573d6000803e3d6000fd5b505050506040513d602081101561429357600080fd5b5051604080516370a0823160e01b81526001600160a01b038881166004830152915192935060009283928516916370a08231916024808301926020929190829003018186803b1580156142e557600080fd5b505afa1580156142f9573d6000803e3d6000fd5b505050506040513d602081101561430f57600080fd5b5051604080517fc7ec5d5d0000000000000000000000000000000000000000000000000000000081523060048201526001600160a01b038a81166024830152915193909211935084169163c7ec5d5d91604480820192602092909190829003018186803b15801561437f57600080fd5b505afa158015614393573d6000803e3d6000fd5b505050506040513d60208110156143a957600080fd5b5051806143c857508080156143c85750606954600160a81b900460ff16155b9450816001600160a01b0316634d98fbf030886040518363ffffffff1660e01b815260040180836001600160a01b03168152602001826001600160a01b031681526020019250505060206040518083038186803b15801561442857600080fd5b505afa15801561443c573d6000803e3d6000fd5b505050506040513d602081101561445257600080fd5b50518061446e575080801561446e5750608554610100900460ff165b9350816001600160a01b0316635066c71430886040518363ffffffff1660e01b815260040180836001600160a01b03168152602001826001600160a01b031681526020019250505060206040518083038186803b1580156144ce57600080fd5b505afa1580156144e2573d6000803e3d6000fd5b505050506040513d60208110156144f857600080fd5b50518061450f575080801561450f575060855460ff165b9496939550505050565b600082820181831280159061452e5750838112155b80614543575060008312801561454357508381125b61134a5760405162461bcd60e51b8152600401808060200182810382526021815260200180615c826021913960400191505060405180910390fd5b606060008061458d85856153d0565b91509150806145e3576040805162461bcd60e51b815260206004820152601560248201527f41646472657373206e6f7420696e2061727261792e0000000000000000000000604482015290519081900360640190fd5b60006145ef8684615436565b5093506112b492505050565b600061134a82613be785670de0b6b3a7640000615114565b670de0b6b3a764000090565b614627613a16565b61462f613bb7565b600061463a84614215565b50509050614661818061465a57506069546001600160a01b038781169116145b601d613ac1565b6074541561468d5761468d60745461468489606a54613acf90919063ffffffff16565b11156000613ac1565b61469f6073546072541115603d613ac1565b6146af6077548810156001613ac1565b606654604080516370a0823160e01b815230600482015290516000926001600160a01b0316916370a08231916024808301926020929190829003018186803b1580156146fa57600080fd5b505afa15801561470e573d6000803e3d6000fd5b505050506040513d602081101561472457600080fd5b50516066549091506001600160a01b031673c02aaa39b223fe8d0a0e5c4f27ead9083c756cc21480156147575750600034115b156147c95773c02aaa39b223fe8d0a0e5c4f27ead9083c756cc26001600160a01b031663d0e30db0346040518263ffffffff1660e01b81526004016000604051808303818588803b1580156147ab57600080fd5b505af11580156147bf573d6000803e3d6000fd5b50505050506147e1565b6066546147e1906001600160a01b031686308b61559a565b606654604080516370a0823160e01b8152306004820152905161483d928b926148359286926001600160a01b0316916370a08231916024808301926020929190829003018186803b158015613c4557600080fd5b146005613ac1565b6000614848876128fa565b905060006148d6606660009054906101000a90046001600160a01b03166001600160a01b031663313ce5676040518163ffffffff1660e01b815260040160206040518083038186803b15801561489d57600080fd5b505afa1580156148b1573d6000803e3d6000fd5b505050506040513d60208110156148c757600080fd5b50518b9060ff16600a0a6145fb565b905060006148e482876145fb565b90506148f48a8210156056613ac1565b6148fe8982615628565b61490989848d61571a565b606a54614916908c613acf565b606a558615614a2b57606760009054906101000a90046001600160a01b03166001600160a01b031663ead4c1cf6040518163ffffffff1660e01b815260040160206040518083038186803b15801561496d57600080fd5b505afa158015614981573d6000803e3d6000fd5b505050506040513d602081101561499757600080fd5b5051604080517f45b497470000000000000000000000000000000000000000000000000000000081526001600160a01b038c81166004830152915191909216916345b497479160248083019260209291908290030181600087803b1580156149fe57600080fd5b505af1158015614a12573d6000803e3d6000fd5b505050506040513d6020811015614a2857600080fd5b50505b604080518b8152602081018d9052428183015290516001600160a01b038b16917f8d878fd0c5092c0e518d34fa1f3d23c8b3a1b2b7f86174bdba0ceaabf68b5a53919081900360600190a25050505050505050505050565b604080517f19457468657265756d205369676e6564204d6573736167653a0a333200000000602080830191909152603c8083019490945282518083039094018452605c909101909152815191012090565b60007f7fffffffffffffffffffffffffffffff5d576e7357a4501ddfe92f46681b20a0821115614b355760405162461bcd60e51b8152600401808060200182810382526022815260200180615cdd6022913960400191505060405180910390fd5b8360ff16601b1480614b4a57508360ff16601c145b614b855760405162461bcd60e51b8152600401808060200182810382526022815260200180615d536022913960400191505060405180910390fd5b600060018686868660405160008152602001604052604051808581526020018460ff1681526020018381526020018281526020019450505050506020604051602081039080840390855afa158015614be1573d6000803e3d6000fd5b5050604051601f1901519150506001600160a01b038116614c49576040805162461bcd60e51b815260206004820152601860248201527f45434453413a20696e76616c6964207369676e61747572650000000000000000604482015290519081900360640190fd5b95945050505050565b62461bcd60e51b6000908152602060045260076024526642414223000030600a808404818106603090810160081b95839006959095019082900491820690940160101b939093010160c81b604452606490fd5b614cad613a16565b614cbb6000613abd866128fa565b606f546001600160a01b038516600090815260716020526040902054614cf09190614ce7904290613adf565b10156003613ac1565b6000614cfb8561307b565b9050614d1d614d1382614d0d886128fa565b90613adf565b8811156007613ac1565b6000614d298884613bcf565b90506000614db7606660009054906101000a90046001600160a01b03166001600160a01b031663313ce5676040518163ffffffff1660e01b815260040160206040518083038186803b158015614d7e57600080fd5b505afa158015614d92573d6000803e3d6000fd5b505050506040513d6020811015614da857600080fd5b5051839060ff16600a0a613bcf565b90508515614e5557614dda614dd3826658d15e17628000613bcf565b8290613adf565b90506001600160a01b0385166342296724614e06614dff8466b1a2bc2ec50000613bcf565b8490613acf565b6040518263ffffffff1660e01b815260040180828152602001915050600060405180830381600087803b158015614e3c57600080fd5b505af1158015614e50573d6000803e3d6000fd5b505050505b614e63888210156056613ac1565b614e7881614e6f613bed565b10156004613ac1565b614e82878a6138c0565b614e8c8782613aef565b614e9581615829565b614ea3888210156008613ac1565b606a54614eb09082613adf565b606a5560408051828152602081018b9052428183015290516001600160a01b0389169182917f32a44bf15c44dad7691e20191a033527995d56d46ebe5115756d9e2eec16d3339181900360600190a3505050505050505050565b614f15838383613db5565b613db56001600160a01b0384161580614f3557506001600160a01b038316155b80614fcb5750606760009054906101000a90046001600160a01b03166001600160a01b031663393bfe496040518163ffffffff1660e01b815260040160206040518083038186803b158015614f8957600080fd5b505afa158015614f9d573d6000803e3d6000fd5b505050506040513d6020811015614fb357600080fd5b50518015614fcb5750606954600160a81b900460ff16155b603b613ac1565b600082821115615029576040805162461bcd60e51b815260206004820152601e60248201527f536166654d6174683a207375627472616374696f6e206f766572666c6f770000604482015290519081900360640190fd5b50900390565b80471015615084576040805162461bcd60e51b815260206004820152601d60248201527f416464726573733a20696e73756666696369656e742062616c616e6365000000604482015290519081900360640190fd5b6040516000906001600160a01b0384169083908381818185875af1925050503d80600081146150cf576040519150601f19603f3d011682016040523d82523d6000602084013e6150d4565b606091505b5050905080613db55760405162461bcd60e51b815260040180806020018281038252603a815260200180615ca3603a913960400191505060405180910390fd5b600082158061512f5750508181028183828161512c57fe5b04145b6112b457600080fd5b600080821161518e576040805162461bcd60e51b815260206004820152601a60248201527f536166654d6174683a206469766973696f6e206279207a65726f000000000000604482015290519081900360640190fd5b81838161519757fe5b049392505050565b60006151f4826040518060400160405280602081526020017f5361666545524332303a206c6f772d6c6576656c2063616c6c206661696c6564815250856001600160a01b03166159269092919063ffffffff16565b805190915015613db55780806020019051602081101561521357600080fd5b5051613db55760405162461bcd60e51b815260040180806020018281038252602a815260200180615e07602a913960400191505060405180910390fd5b3b151590565b600054610100900460ff168061526f575061526f613dba565b8061527d575060005460ff16155b6152b85760405162461bcd60e51b815260040180806020018281038252602e815260200180615d25602e913960400191505060405180910390fd5b600054610100900460ff161580156152e3576000805460ff1961ff0019909116610100171660011790555b80156152f5576000805461ff00191690555b50565b600054610100900460ff16806153115750615311613dba565b8061531f575060005460ff16155b61535a5760405162461bcd60e51b815260040180806020018281038252602e815260200180615d25602e913960400191505060405180910390fd5b600054610100900460ff16158015615385576000805460ff1961ff0019909116610100171660011790555b8251615398906036906020860190615b63565b5081516153ac906037906020850190615b63565b506038805460ff191660121790558015613db5576000805461ff0019169055505050565b81516000908190815b8181101561542357846001600160a01b03168682815181106153f757fe5b60200260200101516001600160a01b0316141561541b5792506001915061542f9050565b6001016153d9565b50600019600092509250505b9250929050565b8151606090600090808410615492576040805162461bcd60e51b815260206004820152601860248201527f496e646578206d757374206265203c2041206c656e6774680000000000000000604482015290519081900360640190fd5b60006001820367ffffffffffffffff811180156154ae57600080fd5b506040519080825280602002602001820160405280156154d8578160200160208202803683370190505b50905060005b85811015615526578681815181106154f257fe5b602002602001015182828151811061550657fe5b6001600160a01b03909216602092830291909101909101526001016154de565b50600185015b828110156155775786818151811061554057fe5b602002602001015182600183038151811061555757fe5b6001600160a01b039092166020928302919091019091015260010161552c565b508086868151811061558557fe5b60200260200101519350935050509250929050565b604080516001600160a01b0380861660248301528416604482015260648082018490528251808303909101815260849091019091526020810180517bffffffffffffffffffffffffffffffffffffffffffffffffffffffff167f23b872dd0000000000000000000000000000000000000000000000000000000017905261562290859061519f565b50505050565b6001600160a01b038216615683576040805162461bcd60e51b815260206004820152601f60248201527f45524332303a206d696e7420746f20746865207a65726f206164647265737300604482015290519081900360640190fd5b61568f60008383614f0a565b60355461569c90826139bc565b6035556001600160a01b0382166000908152603360205260409020546156c290826139bc565b6001600160a01b03831660008181526033602090815260408083209490945583518581529351929391927fddf252ad1be2c89b69c2b068fc378daa952ba7f163c4a11628f55a4df523b3ef9281900390910190a35050565b6001600160a01b038316600090815260716020526040902082158061574157506001810154155b1561576f5761575760735460725410603d613ac1565b607254615765906001613acf565b6072554260018201555b600681015461577e9083613acf565b600682015542815560078101805460019081019091556068546076546040805163bad67dd160e01b81523060048201526001600160a01b038981166024830152604482018990526064820195909552608481019290925251929091169163bad67dd19160a48082019260009290919082900301818387803b15801561580257600080fd5b505af1158015615816573d6000803e3d6000fd5b5050607680546001019055505050505050565b33600081815260716020526040902090615842906128fa565b615876576000808255600180830182905560058301829055600683019190915560725461586e91613adf565b60725561588b565b60058101546158859083613acf565b60058201555b6068546076546040805163bad67dd160e01b815230600482015233602482015260006044820181905260648201819052608482019390935290516001600160a01b039093169263bad67dd19260a48084019391929182900301818387803b1580156158f557600080fd5b505af1158015615909573d6000803e3d6000fd5b505050506007018054600190810190915560768054909101905550565b6060615935848460008561593d565b949350505050565b60608247101561597e5760405162461bcd60e51b8152600401808060200182810382526026815260200180615cff6026913960400191505060405180910390fd5b61598785615250565b6159d8576040805162461bcd60e51b815260206004820152601d60248201527f416464726573733a2063616c6c20746f206e6f6e2d636f6e7472616374000000604482015290519081900360640190fd5b600080866001600160a01b031685876040518082805190602001908083835b60208310615a165780518252601f1990920191602091820191016159f7565b6001836020036101000a03801982511681845116808217855250505050505090500191505060006040518083038185875af1925050503d8060008114615a78576040519150601f19603f3d011682016040523d82523d6000602084013e615a7d565b606091505b5091509150615a8d828286615a98565b979650505050505050565b60608315615aa757508161134a565b825115615ab75782518084602001fd5b60405162461bcd60e51b815260206004820181815284516024840152845185939192839260440191908501908083836000831561385d578181015183820152602001613845565b828054828255906000526020600020908101928215615b53579160200282015b82811115615b5357825182546001600160a01b0319166001600160a01b03909116178255602090920191600190910190615b1e565b50615b5f929150615bdf565b5090565b828054600181600116156101000203166002900490600052602060002090601f016020900481019282615b995760008555615b53565b82601f10615bb257805160ff1916838001178555615b53565b82800160010185558215615b53579182015b82811115615b53578251825591602001919060010190615bc4565b5b80821115615b5f5760008155600101615be056fe45524332303a207472616e7366657220746f20746865207a65726f206164647265737345524332303a206275726e20616d6f756e7420657863656564732062616c616e636545524332303a20617070726f766520746f20746865207a65726f206164647265737345524332303a207472616e7366657220616d6f756e7420657863656564732062616c616e63655369676e6564536166654d6174683a206164646974696f6e206f766572666c6f77416464726573733a20756e61626c6520746f2073656e642076616c75652c20726563697069656e74206d6179206861766520726576657274656445434453413a20696e76616c6964207369676e6174757265202773272076616c7565416464726573733a20696e73756666696369656e742062616c616e636520666f722063616c6c496e697469616c697a61626c653a20636f6e747261637420697320616c726561647920696e697469616c697a656445434453413a20696e76616c6964207369676e6174757265202776272076616c756545524332303a207472616e7366657220616d6f756e74206578636565647320616c6c6f77616e636545524332303a206275726e2066726f6d20746865207a65726f206164647265737345524332303a207472616e736665722066726f6d20746865207a65726f206164647265737345524332303a20617070726f76652066726f6d20746865207a65726f20616464726573735361666545524332303a204552433230206f7065726174696f6e20646964206e6f74207375636365656445524332303a2064656372656173656420616c6c6f77616e63652062656c6f77207a65726fa2646970667358221220603e1eb375c26c441ed9e6f229243b5ba5b41743fb62f01f3d3e584dc30deb0c64736f6c63430007060033",
  "devdoc": {
    "kind": "dev",
    "methods": {
      "addStrategy(string,string,uint256[],uint8[],address[],bytes)": {
        "params": {
          "_name": "Name of the strategy",
          "_opEncodedDatas": "Param for every operation in the strategy",
          "_opIntegrations": "Integration to use for every operation",
          "_opTypes": "Type for every operation in the strategy",
          "_stratParams": "Num params for the strategy",
          "_symbol": "Symbol of the strategy"
        }
      },
      "allocateCapitalToStrategy(uint256)": {
        "params": {
          "_capital": "Amount of capital to allocate to the strategy"
        }
      },
      "allowance(address,address)": {
        "details": "See {IERC20-allowance}."
      },
      "approve(address,uint256)": {
        "details": "See {IERC20-approve}. Requirements: - `spender` cannot be the zero address."
      },
      "balanceOf(address)": {
        "details": "See {IERC20-balanceOf}."
      },
      "decimals()": {
        "details": "Returns the number of decimals used to get its user representation. For example, if `decimals` equals `2`, a balance of `505` tokens should be displayed to a user as `5,05` (`505 / 10 ** 2`). Tokens usually opt for a value of 18, imitating the relationship between Ether and Wei. This is the value {ERC20} uses, unless {_setupDecimals} is called. NOTE: This information is only used for _display_ purposes: it in no way affects any of the arithmetic of the contract, including {IERC20-balanceOf} and {IERC20-transfer}."
      },
      "decreaseAllowance(address,uint256)": {
        "details": "Atomically decreases the allowance granted to `spender` by the caller. This is an alternative to {approve} that can be used as a mitigation for problems described in {IERC20-approve}. Emits an {Approval} event indicating the updated allowance. Requirements: - `spender` cannot be the zero address. - `spender` must have allowance for the caller of at least `subtractedValue`."
      },
      "deposit(uint256,uint256,address,bool)": {
        "details": "WARN: If the reserve asset is different than ETH the sender needs to   have approved the garden.   Efficient to use of strategies.length == 0, otherwise can consume a lot   of gas ~2kk. Use `depositBySig` for gas efficiency.",
        "params": {
          "_amountIn": "Amount of the reserve asset that is received from contributor",
          "_minAmountOut": "Min amount of Garden shares to receive by contributor",
          "_mintNft": "Whether to mint NFT or not",
          "_to": "Address to mint Garden shares to"
        }
      },
      "finalizeStrategy(uint256,int256)": {
        "params": {
          "_returns": "Profits or losses that the strategy received",
          "_rewards": "Amount of Reserve Asset to set aside forever"
        }
      },
      "getFinalizedStrategies()": {
        "returns": {
          "_0": "address[]        Returns list of addresses"
        }
      },
      "getLockedBalance(address)": {
        "params": {
          "_contributor": "Address of the account"
        },
        "returns": {
          "_0": "uint256                    Returns the amount of locked garden tokens for the account"
        }
      },
      "getStrategies()": {
        "returns": {
          "_0": "address[]        Returns list of addresses"
        }
      },
      "increaseAllowance(address,uint256)": {
        "details": "Atomically increases the allowance granted to `spender` by the caller. This is an alternative to {approve} that can be used as a mitigation for problems described in {IERC20-approve}. Emits an {Approval} event indicating the updated allowance. Requirements: - `spender` cannot be the zero address."
      },
      "initialize(address,address,address,string,string,uint256[],uint256,bool[])": {
        "params": {
          "_controller": "Address of the controller",
          "_creator": "Address of the creator",
          "_gardenParams": "Array of numeric garden params",
          "_initialContribution": "Initial Contribution by the Gardener",
          "_name": "Name of the Garden",
          "_publicGardenStrategistsStewards": "Public garden, public strategists rights and public stewards rights",
          "_reserveAsset": "Address of the reserve asset ERC20",
          "_symbol": "Symbol of the Garden"
        }
      },
      "name()": {
        "details": "Returns the name of the token."
      },
      "payKeeper(address,uint256)": {
        "details": "We assume that calling keeper functions should be less expensive than   1 million gas and the gas price should be lower than 1000 gwei.",
        "params": {
          "_fee": "The fee paid to keeper to compensate the gas cost",
          "_keeper": "Keeper that executed the transaction"
        }
      },
      "setCooldown()": {
        "details": "TODO: Should be removed on the next release"
      },
      "symbol()": {
        "details": "Returns the symbol of the token, usually a shorter version of the name."
      },
      "totalSupply()": {
        "details": "See {IERC20-totalSupply}."
      },
      "transfer(address,uint256)": {
        "details": "See {IERC20-transfer}. Requirements: - `recipient` cannot be the zero address. - the caller must have a balance of at least `amount`."
      },
      "transferFrom(address,address,uint256)": {
        "details": "See {IERC20-transferFrom}. Emits an {Approval} event indicating the updated allowance. This is not required by the EIP. See the note at the beginning of {ERC20}. Requirements: - `sender` and `recipient` cannot be the zero address. - `sender` must have a balance of at least `amount`. - the caller must have allowance for ``sender``'s tokens of at least `amount`."
      },
      "withdraw(uint256,uint256,address,bool,address)": {
        "details": "ATTENTION. Do not call withPenalty unless certain. If penalty is set,   it will be applied regardless of the garden state.   It is advised to first try to withdraw with no penalty and it this   reverts then try to with penalty.",
        "params": {
          "_amountIn": "Quantity of the garden token to withdrawal",
          "_minAmountOut": "Min quantity of reserve asset to receive",
          "_to": "Address to send component assets to",
          "_unwindStrategy": "Strategy to unwind",
          "_withPenalty": "Whether or not this is an immediate withdrawal"
        }
      }
    },
    "version": 1
  },
  "userdoc": {
    "kind": "user",
    "methods": {
      "addStrategy(string,string,uint256[],uint8[],address[],bytes)": {
        "notice": "Creates a new strategy calling the factory and adds it to the array"
      },
      "allocateCapitalToStrategy(uint256)": {
        "notice": "Allocates garden capital to an strategy"
      },
      "claimReturns(address[])": {
        "notice": "User can claim the rewards from the strategies that his principal was invested in."
      },
      "deposit(uint256,uint256,address,bool)": {
        "notice": "Deposits the _amountIn in reserve asset into the garden. Gurantee to   recieve at least _minAmountOut."
      },
      "finalizeStrategy(uint256,int256)": {
        "notice": "When strategy ends puts saves returns, rewards and marks strategy as  finalized."
      },
      "getFinalizedStrategies()": {
        "notice": "Gets finalized strategies"
      },
      "getLockedBalance(address)": {
        "notice": "Checks balance locked for strategists in active strategies"
      },
      "getStrategies()": {
        "notice": "Gets current strategies"
      },
      "initialize(address,address,address,string,string,uint256[],uint256,bool[])": {
        "notice": "When a new Garden is created. All parameter validations are on the BabController contract. Validations are performed already on the BabController. WARN: If the reserve Asset is different than WETH the gardener needs to have approved the controller."
      },
      "makeGardenPublic()": {
        "notice": "Makes a previously private garden public"
      },
      "payKeeper(address,uint256)": {
        "notice": "Pays gas costs back to the keeper from executing transactions   including the past debt"
      },
      "setActive(bool)": {
        "notice": "PRIVILEGED Manager, protocol FUNCTION. When a Garden is active, deposits are enabled."
      },
      "setCooldown()": {
        "notice": "Sets garden's cooldown to min value"
      },
      "setPublicRights(bool,bool)": {
        "notice": "Gives the right to create strategies and/or voting power to garden users"
      },
      "withdraw(uint256,uint256,address,bool,address)": {
        "notice": "Withdraws the reserve asset relative to the token participation in the garden   and sends it back to the sender."
      }
    },
    "version": 1
  },
  "storageLayout": {
    "storage": [
      {
        "astId": 492,
        "contract": "contracts/gardens/Garden.sol:GardenV5",
        "label": "_initialized",
        "offset": 0,
        "slot": "0",
        "type": "t_bool"
      },
      {
        "astId": 495,
        "contract": "contracts/gardens/Garden.sol:GardenV5",
        "label": "_initializing",
        "offset": 1,
        "slot": "0",
        "type": "t_bool"
      },
      {
        "astId": 1447,
        "contract": "contracts/gardens/Garden.sol:GardenV5",
        "label": "__gap",
        "offset": 0,
        "slot": "1",
        "type": "t_array(t_uint256)50_storage"
      },
      {
        "astId": 571,
        "contract": "contracts/gardens/Garden.sol:GardenV5",
        "label": "_balances",
        "offset": 0,
        "slot": "51",
        "type": "t_mapping(t_address,t_uint256)"
      },
      {
        "astId": 577,
        "contract": "contracts/gardens/Garden.sol:GardenV5",
        "label": "_allowances",
        "offset": 0,
        "slot": "52",
        "type": "t_mapping(t_address,t_mapping(t_address,t_uint256))"
      },
      {
        "astId": 579,
        "contract": "contracts/gardens/Garden.sol:GardenV5",
        "label": "_totalSupply",
        "offset": 0,
        "slot": "53",
        "type": "t_uint256"
      },
      {
        "astId": 581,
        "contract": "contracts/gardens/Garden.sol:GardenV5",
        "label": "_name",
        "offset": 0,
        "slot": "54",
        "type": "t_string_storage"
      },
      {
        "astId": 583,
        "contract": "contracts/gardens/Garden.sol:GardenV5",
        "label": "_symbol",
        "offset": 0,
        "slot": "55",
        "type": "t_string_storage"
      },
      {
        "astId": 585,
        "contract": "contracts/gardens/Garden.sol:GardenV5",
        "label": "_decimals",
        "offset": 0,
        "slot": "56",
        "type": "t_uint8"
      },
      {
        "astId": 1080,
        "contract": "contracts/gardens/Garden.sol:GardenV5",
        "label": "__gap",
        "offset": 0,
        "slot": "57",
        "type": "t_array(t_uint256)44_storage"
      },
      {
        "astId": 6418,
        "contract": "contracts/gardens/Garden.sol:GardenV5",
        "label": "_status",
        "offset": 0,
        "slot": "101",
        "type": "t_uint256"
      },
      {
        "astId": 14926,
        "contract": "contracts/gardens/Garden.sol:GardenV5",
        "label": "reserveAsset",
        "offset": 0,
        "slot": "102",
        "type": "t_address"
      },
      {
        "astId": 14929,
        "contract": "contracts/gardens/Garden.sol:GardenV5",
        "label": "controller",
        "offset": 0,
        "slot": "103",
        "type": "t_address"
      },
      {
        "astId": 14931,
        "contract": "contracts/gardens/Garden.sol:GardenV5",
        "label": "rewardsDistributor",
        "offset": 0,
        "slot": "104",
        "type": "t_contract(IRewardsDistributor)30032"
      },
      {
        "astId": 14934,
        "contract": "contracts/gardens/Garden.sol:GardenV5",
        "label": "creator",
        "offset": 0,
        "slot": "105",
        "type": "t_address"
      },
      {
        "astId": 14937,
        "contract": "contracts/gardens/Garden.sol:GardenV5",
        "label": "active",
        "offset": 20,
        "slot": "105",
        "type": "t_bool"
      },
      {
        "astId": 14940,
        "contract": "contracts/gardens/Garden.sol:GardenV5",
        "label": "privateGarden",
        "offset": 21,
        "slot": "105",
        "type": "t_bool"
      },
      {
        "astId": 14943,
        "contract": "contracts/gardens/Garden.sol:GardenV5",
        "label": "principal",
        "offset": 0,
        "slot": "106",
        "type": "t_uint256"
      },
      {
        "astId": 14946,
        "contract": "contracts/gardens/Garden.sol:GardenV5",
        "label": "reserveAssetRewardsSetAside",
        "offset": 0,
        "slot": "107",
        "type": "t_uint256"
      },
      {
        "astId": 14948,
        "contract": "contracts/gardens/Garden.sol:GardenV5",
        "label": "reserveAssetPrincipalWindow",
        "offset": 0,
        "slot": "108",
        "type": "t_uint256"
      },
      {
        "astId": 14951,
        "contract": "contracts/gardens/Garden.sol:GardenV5",
        "label": "absoluteReturns",
        "offset": 0,
        "slot": "109",
        "type": "t_int256"
      },
      {
        "astId": 14954,
        "contract": "contracts/gardens/Garden.sol:GardenV5",
        "label": "minLiquidityAsset",
        "offset": 0,
        "slot": "110",
        "type": "t_uint256"
      },
      {
        "astId": 14957,
        "contract": "contracts/gardens/Garden.sol:GardenV5",
        "label": "depositHardlock",
        "offset": 0,
        "slot": "111",
        "type": "t_uint256"
      },
      {
        "astId": 14959,
        "contract": "contracts/gardens/Garden.sol:GardenV5",
        "label": "withdrawalsOpenUntil",
        "offset": 0,
        "slot": "112",
        "type": "t_uint256"
      },
      {
        "astId": 14963,
        "contract": "contracts/gardens/Garden.sol:GardenV5",
        "label": "contributors",
        "offset": 0,
        "slot": "113",
        "type": "t_mapping(t_address,t_struct(Contributor)14923_storage)"
      },
      {
        "astId": 14966,
        "contract": "contracts/gardens/Garden.sol:GardenV5",
        "label": "totalContributors",
        "offset": 0,
        "slot": "114",
        "type": "t_uint256"
      },
      {
        "astId": 14969,
        "contract": "contracts/gardens/Garden.sol:GardenV5",
        "label": "maxContributors",
        "offset": 0,
        "slot": "115",
        "type": "t_uint256"
      },
      {
        "astId": 14972,
        "contract": "contracts/gardens/Garden.sol:GardenV5",
        "label": "maxDepositLimit",
        "offset": 0,
        "slot": "116",
        "type": "t_uint256"
      },
      {
        "astId": 14975,
        "contract": "contracts/gardens/Garden.sol:GardenV5",
        "label": "gardenInitializedAt",
        "offset": 0,
        "slot": "117",
        "type": "t_uint256"
      },
      {
        "astId": 14977,
        "contract": "contracts/gardens/Garden.sol:GardenV5",
        "label": "pid",
        "offset": 0,
        "slot": "118",
        "type": "t_uint256"
      },
      {
        "astId": 14980,
        "contract": "contracts/gardens/Garden.sol:GardenV5",
        "label": "minContribution",
        "offset": 0,
        "slot": "119",
        "type": "t_uint256"
      },
      {
        "astId": 14982,
        "contract": "contracts/gardens/Garden.sol:GardenV5",
        "label": "minGardenTokenSupply",
        "offset": 0,
        "slot": "120",
        "type": "t_uint256"
      },
      {
        "astId": 14985,
        "contract": "contracts/gardens/Garden.sol:GardenV5",
        "label": "totalStake",
        "offset": 0,
        "slot": "121",
        "type": "t_uint256"
      },
      {
        "astId": 14989,
        "contract": "contracts/gardens/Garden.sol:GardenV5",
        "label": "minVotesQuorum",
        "offset": 0,
        "slot": "122",
        "type": "t_uint256"
      },
      {
        "astId": 14992,
        "contract": "contracts/gardens/Garden.sol:GardenV5",
        "label": "minVoters",
        "offset": 0,
        "slot": "123",
        "type": "t_uint256"
      },
      {
        "astId": 14995,
        "contract": "contracts/gardens/Garden.sol:GardenV5",
        "label": "minStrategyDuration",
        "offset": 0,
        "slot": "124",
        "type": "t_uint256"
      },
      {
        "astId": 14998,
        "contract": "contracts/gardens/Garden.sol:GardenV5",
        "label": "maxStrategyDuration",
        "offset": 0,
        "slot": "125",
        "type": "t_uint256"
      },
      {
        "astId": 15001,
        "contract": "contracts/gardens/Garden.sol:GardenV5",
        "label": "strategyCooldownPeriod",
        "offset": 0,
        "slot": "126",
        "type": "t_uint256"
      },
      {
        "astId": 15004,
        "contract": "contracts/gardens/Garden.sol:GardenV5",
        "label": "strategies",
        "offset": 0,
        "slot": "127",
        "type": "t_array(t_address)dyn_storage"
      },
      {
        "astId": 15007,
        "contract": "contracts/gardens/Garden.sol:GardenV5",
        "label": "finalizedStrategies",
        "offset": 0,
        "slot": "128",
        "type": "t_array(t_address)dyn_storage"
      },
      {
        "astId": 15012,
        "contract": "contracts/gardens/Garden.sol:GardenV5",
        "label": "strategyMapping",
        "offset": 0,
        "slot": "129",
        "type": "t_mapping(t_address,t_bool)"
      },
      {
        "astId": 15017,
        "contract": "contracts/gardens/Garden.sol:GardenV5",
        "label": "isGardenStrategy",
        "offset": 0,
        "slot": "130",
        "type": "t_mapping(t_address,t_bool)"
      },
      {
        "astId": 15020,
        "contract": "contracts/gardens/Garden.sol:GardenV5",
        "label": "keeperDebt",
        "offset": 0,
        "slot": "131",
        "type": "t_uint256"
      },
      {
        "astId": 15023,
        "contract": "contracts/gardens/Garden.sol:GardenV5",
        "label": "totalKeeperFees",
        "offset": 0,
        "slot": "132",
        "type": "t_uint256"
      },
      {
        "astId": 15026,
        "contract": "contracts/gardens/Garden.sol:GardenV5",
        "label": "publicStrategists",
        "offset": 0,
        "slot": "133",
        "type": "t_bool"
      },
      {
        "astId": 15029,
        "contract": "contracts/gardens/Garden.sol:GardenV5",
        "label": "publicStewards",
        "offset": 1,
        "slot": "133",
        "type": "t_bool"
      }
    ],
    "types": {
      "t_address": {
        "encoding": "inplace",
        "label": "address",
        "numberOfBytes": "20"
      },
      "t_array(t_address)dyn_storage": {
        "base": "t_address",
        "encoding": "dynamic_array",
        "label": "address[]",
        "numberOfBytes": "32"
      },
      "t_array(t_uint256)44_storage": {
        "base": "t_uint256",
        "encoding": "inplace",
        "label": "uint256[44]",
        "numberOfBytes": "1408"
      },
      "t_array(t_uint256)50_storage": {
        "base": "t_uint256",
        "encoding": "inplace",
        "label": "uint256[50]",
        "numberOfBytes": "1600"
      },
      "t_bool": {
        "encoding": "inplace",
        "label": "bool",
        "numberOfBytes": "1"
      },
      "t_contract(IRewardsDistributor)30032": {
        "encoding": "inplace",
        "label": "contract IRewardsDistributor",
        "numberOfBytes": "20"
      },
      "t_int256": {
        "encoding": "inplace",
        "label": "int256",
        "numberOfBytes": "32"
      },
      "t_mapping(t_address,t_bool)": {
        "encoding": "mapping",
        "key": "t_address",
        "label": "mapping(address => bool)",
        "numberOfBytes": "32",
        "value": "t_bool"
      },
      "t_mapping(t_address,t_mapping(t_address,t_uint256))": {
        "encoding": "mapping",
        "key": "t_address",
        "label": "mapping(address => mapping(address => uint256))",
        "numberOfBytes": "32",
        "value": "t_mapping(t_address,t_uint256)"
      },
      "t_mapping(t_address,t_struct(Contributor)14923_storage)": {
        "encoding": "mapping",
        "key": "t_address",
        "label": "mapping(address => struct Garden.Contributor)",
        "numberOfBytes": "32",
        "value": "t_struct(Contributor)14923_storage"
      },
      "t_mapping(t_address,t_uint256)": {
        "encoding": "mapping",
        "key": "t_address",
        "label": "mapping(address => uint256)",
        "numberOfBytes": "32",
        "value": "t_uint256"
      },
      "t_string_storage": {
        "encoding": "bytes",
        "label": "string",
        "numberOfBytes": "32"
      },
      "t_struct(Contributor)14923_storage": {
        "encoding": "inplace",
        "label": "struct Garden.Contributor",
        "members": [
          {
            "astId": 14908,
            "contract": "contracts/gardens/Garden.sol:GardenV5",
            "label": "lastDepositAt",
            "offset": 0,
            "slot": "0",
            "type": "t_uint256"
          },
          {
            "astId": 14910,
            "contract": "contracts/gardens/Garden.sol:GardenV5",
            "label": "initialDepositAt",
            "offset": 0,
            "slot": "1",
            "type": "t_uint256"
          },
          {
            "astId": 14912,
            "contract": "contracts/gardens/Garden.sol:GardenV5",
            "label": "claimedAt",
            "offset": 0,
            "slot": "2",
            "type": "t_uint256"
          },
          {
            "astId": 14914,
            "contract": "contracts/gardens/Garden.sol:GardenV5",
            "label": "claimedBABL",
            "offset": 0,
            "slot": "3",
            "type": "t_uint256"
          },
          {
            "astId": 14916,
            "contract": "contracts/gardens/Garden.sol:GardenV5",
            "label": "claimedRewards",
            "offset": 0,
            "slot": "4",
            "type": "t_uint256"
          },
          {
            "astId": 14918,
            "contract": "contracts/gardens/Garden.sol:GardenV5",
            "label": "withdrawnSince",
            "offset": 0,
            "slot": "5",
            "type": "t_uint256"
          },
          {
            "astId": 14920,
            "contract": "contracts/gardens/Garden.sol:GardenV5",
            "label": "totalDeposits",
            "offset": 0,
            "slot": "6",
            "type": "t_uint256"
          },
          {
            "astId": 14922,
            "contract": "contracts/gardens/Garden.sol:GardenV5",
            "label": "nonce",
            "offset": 0,
            "slot": "7",
            "type": "t_uint256"
          }
        ],
        "numberOfBytes": "256"
      },
      "t_uint256": {
        "encoding": "inplace",
        "label": "uint256",
        "numberOfBytes": "32"
      },
      "t_uint8": {
        "encoding": "inplace",
        "label": "uint8",
        "numberOfBytes": "1"
      }
    }
  }
}