{
  "address": "0x4313AAe42fb8e806679672ad94A6d750589A3506",
  "abi": [
    {
      "inputs": [
        {
          "internalType": "contract VTableBeacon",
          "name": "_beacon",
          "type": "address"
        }
      ],
      "stateMutability": "nonpayable",
      "type": "constructor"
    },
    {
      "anonymous": false,
      "inputs": [
        {
          "indexed": true,
          "internalType": "address",
          "name": "owner",
          "type": "address"
        },
        {
          "indexed": true,
          "internalType": "address",
          "name": "spender",
          "type": "address"
        },
        {
          "indexed": false,
          "internalType": "uint256",
          "name": "value",
          "type": "uint256"
        }
      ],
      "name": "Approval",
      "type": "event"
    },
    {
      "anonymous": false,
      "inputs": [
        {
          "indexed": true,
          "internalType": "address",
          "name": "_contributor",
          "type": "address"
        },
        {
          "indexed": false,
          "internalType": "uint256",
          "name": "_rewards",
          "type": "uint256"
        }
      ],
      "name": "BABLRewardsForContributor",
      "type": "event"
    },
    {
      "anonymous": false,
      "inputs": [
        {
          "indexed": true,
          "internalType": "address",
          "name": "_to",
          "type": "address"
        },
        {
          "indexed": false,
          "internalType": "uint256",
          "name": "reserveToken",
          "type": "uint256"
        },
        {
          "indexed": false,
          "internalType": "uint256",
          "name": "reserveTokenQuantity",
          "type": "uint256"
        },
        {
          "indexed": false,
          "internalType": "uint256",
          "name": "timestamp",
          "type": "uint256"
        }
      ],
      "name": "GardenDeposit",
      "type": "event"
    },
    {
      "anonymous": false,
      "inputs": [
        {
          "indexed": true,
          "internalType": "address",
          "name": "_from",
          "type": "address"
        },
        {
          "indexed": true,
          "internalType": "address",
          "name": "_to",
          "type": "address"
        },
        {
          "indexed": false,
          "internalType": "uint256",
          "name": "reserveToken",
          "type": "uint256"
        },
        {
          "indexed": false,
          "internalType": "uint256",
          "name": "reserveTokenQuantity",
          "type": "uint256"
        },
        {
          "indexed": false,
          "internalType": "uint256",
          "name": "timestamp",
          "type": "uint256"
        }
      ],
      "name": "GardenWithdrawal",
      "type": "event"
    },
    {
      "anonymous": false,
      "inputs": [
        {
          "indexed": true,
          "internalType": "address",
          "name": "_contributor",
          "type": "address"
        },
        {
          "indexed": true,
          "internalType": "uint256",
          "name": "_amount",
          "type": "uint256"
        }
      ],
      "name": "RewardsForContributor",
      "type": "event"
    },
    {
      "anonymous": false,
      "inputs": [
        {
          "indexed": true,
          "internalType": "address",
          "name": "_contributor",
          "type": "address"
        },
        {
          "indexed": false,
          "internalType": "uint256",
          "name": "_babl",
          "type": "uint256"
        }
      ],
      "name": "StakeBABLRewards",
      "type": "event"
    },
    {
      "anonymous": false,
      "inputs": [
        {
          "indexed": true,
          "internalType": "address",
          "name": "from",
          "type": "address"
        },
        {
          "indexed": true,
          "internalType": "address",
          "name": "to",
          "type": "address"
        },
        {
          "indexed": false,
          "internalType": "uint256",
          "name": "value",
          "type": "uint256"
        }
      ],
      "name": "Transfer",
      "type": "event"
    },
    {
      "stateMutability": "payable",
      "type": "fallback"
    },
    {
      "inputs": [],
      "name": "absoluteReturns",
      "outputs": [
        {
          "internalType": "int256",
          "name": "",
          "type": "int256"
        }
      ],
      "stateMutability": "view",
      "type": "function"
    },
    {
      "inputs": [
        {
          "internalType": "address",
          "name": "owner",
          "type": "address"
        },
        {
          "internalType": "address",
          "name": "spender",
          "type": "address"
        }
      ],
      "name": "allowance",
      "outputs": [
        {
          "internalType": "uint256",
          "name": "",
          "type": "uint256"
        }
      ],
      "stateMutability": "view",
      "type": "function"
    },
    {
      "inputs": [
        {
          "internalType": "address",
          "name": "spender",
          "type": "address"
        },
        {
          "internalType": "uint256",
          "name": "amount",
          "type": "uint256"
        }
      ],
      "name": "approve",
      "outputs": [
        {
          "internalType": "bool",
          "name": "",
          "type": "bool"
        }
      ],
      "stateMutability": "nonpayable",
      "type": "function"
    },
    {
      "inputs": [
        {
          "internalType": "address",
          "name": "account",
          "type": "address"
        }
      ],
      "name": "balanceOf",
      "outputs": [
        {
          "internalType": "uint256",
          "name": "",
          "type": "uint256"
        }
      ],
      "stateMutability": "view",
      "type": "function"
    },
    {
      "inputs": [],
      "name": "beacon",
      "outputs": [
        {
          "internalType": "contract VTableBeacon",
          "name": "",
          "type": "address"
        }
      ],
      "stateMutability": "view",
      "type": "function"
    },
    {
      "inputs": [],
      "name": "canMintNftAfter",
      "outputs": [
        {
          "internalType": "uint256",
          "name": "",
          "type": "uint256"
        }
      ],
      "stateMutability": "view",
      "type": "function"
    },
    {
      "inputs": [
        {
          "internalType": "uint256",
          "name": "_minAmountOut",
          "type": "uint256"
        },
        {
          "internalType": "address[]",
          "name": "_finalizedStrategies",
          "type": "address[]"
        }
      ],
      "name": "claimAndStakeReturns",
      "outputs": [],
      "stateMutability": "nonpayable",
      "type": "function"
    },
    {
      "inputs": [
        {
          "internalType": "uint256",
          "name": "_babl",
          "type": "uint256"
        },
        {
          "internalType": "uint256",
          "name": "_profits",
          "type": "uint256"
        },
        {
          "internalType": "uint256",
          "name": "_minAmountOut",
          "type": "uint256"
        },
        {
          "internalType": "uint256",
          "name": "_nonce",
          "type": "uint256"
        },
        {
          "internalType": "uint256",
          "name": "_nonceHeart",
          "type": "uint256"
        },
        {
          "internalType": "uint256",
          "name": "_maxFee",
          "type": "uint256"
        },
        {
          "internalType": "uint256",
          "name": "_pricePerShare",
          "type": "uint256"
        },
        {
          "internalType": "uint256",
          "name": "_fee",
          "type": "uint256"
        },
        {
          "internalType": "address",
          "name": "_signer",
          "type": "address"
        },
        {
          "internalType": "bytes",
          "name": "_signature",
          "type": "bytes"
        }
      ],
      "name": "claimAndStakeRewardsBySig",
      "outputs": [],
      "stateMutability": "nonpayable",
      "type": "function"
    },
    {
      "inputs": [],
      "name": "claimNFT",
      "outputs": [],
      "stateMutability": "nonpayable",
      "type": "function"
    },
    {
      "inputs": [
        {
          "internalType": "address[]",
          "name": "_finalizedStrategies",
          "type": "address[]"
        }
      ],
      "name": "claimReturns",
      "outputs": [],
      "stateMutability": "nonpayable",
      "type": "function"
    },
    {
      "inputs": [
        {
          "internalType": "uint256",
          "name": "_babl",
          "type": "uint256"
        },
        {
          "internalType": "uint256",
          "name": "_profits",
          "type": "uint256"
        },
        {
          "internalType": "uint256",
          "name": "_nonce",
          "type": "uint256"
        },
        {
          "internalType": "uint256",
          "name": "_maxFee",
          "type": "uint256"
        },
        {
          "internalType": "uint256",
          "name": "_fee",
          "type": "uint256"
        },
        {
          "internalType": "address",
          "name": "_signer",
          "type": "address"
        },
        {
          "internalType": "bytes",
          "name": "_signature",
          "type": "bytes"
        }
      ],
      "name": "claimRewardsBySig",
      "outputs": [],
      "stateMutability": "nonpayable",
      "type": "function"
    },
    {
      "inputs": [],
      "name": "controller",
      "outputs": [
        {
          "internalType": "contract IBabController",
          "name": "",
          "type": "address"
        }
      ],
      "stateMutability": "view",
      "type": "function"
    },
    {
      "inputs": [],
      "name": "creator",
      "outputs": [
        {
          "internalType": "address",
          "name": "",
          "type": "address"
        }
      ],
      "stateMutability": "view",
      "type": "function"
    },
    {
      "inputs": [],
      "name": "decimals",
      "outputs": [
        {
          "internalType": "uint8",
          "name": "",
          "type": "uint8"
        }
      ],
      "stateMutability": "view",
      "type": "function"
    },
    {
      "inputs": [
        {
          "internalType": "address",
          "name": "spender",
          "type": "address"
        },
        {
          "internalType": "uint256",
          "name": "subtractedValue",
          "type": "uint256"
        }
      ],
      "name": "decreaseAllowance",
      "outputs": [
        {
          "internalType": "bool",
          "name": "",
          "type": "bool"
        }
      ],
      "stateMutability": "nonpayable",
      "type": "function"
    },
    {
      "inputs": [
        {
          "internalType": "uint256",
          "name": "_amountIn",
          "type": "uint256"
        },
        {
          "internalType": "uint256",
          "name": "_minAmountOut",
          "type": "uint256"
        },
        {
          "internalType": "address",
          "name": "_to",
          "type": "address"
        },
        {
          "internalType": "address",
          "name": "_referrer",
          "type": "address"
        }
      ],
      "name": "deposit",
      "outputs": [],
      "stateMutability": "payable",
      "type": "function"
    },
    {
      "inputs": [
        {
          "internalType": "uint256",
          "name": "_amountIn",
          "type": "uint256"
        },
        {
          "internalType": "uint256",
          "name": "_minAmountOut",
          "type": "uint256"
        },
        {
          "internalType": "uint256",
          "name": "_nonce",
          "type": "uint256"
        },
        {
          "internalType": "uint256",
          "name": "_maxFee",
          "type": "uint256"
        },
        {
          "internalType": "address",
          "name": "_to",
          "type": "address"
        },
        {
          "internalType": "uint256",
          "name": "_pricePerShare",
          "type": "uint256"
        },
        {
          "internalType": "uint256",
          "name": "_fee",
          "type": "uint256"
        },
        {
          "internalType": "address",
          "name": "_signer",
          "type": "address"
        },
        {
          "internalType": "address",
          "name": "_referrer",
          "type": "address"
        },
        {
          "internalType": "bytes",
          "name": "_signature",
          "type": "bytes"
        }
      ],
      "name": "depositBySig",
      "outputs": [],
      "stateMutability": "nonpayable",
      "type": "function"
    },
    {
      "inputs": [],
      "name": "depositHardlock",
      "outputs": [
        {
          "internalType": "uint256",
          "name": "",
          "type": "uint256"
        }
      ],
      "stateMutability": "view",
      "type": "function"
    },
    {
      "inputs": [
        {
          "internalType": "uint256",
          "name": "",
          "type": "uint256"
        }
      ],
      "name": "extraCreators",
      "outputs": [
        {
          "internalType": "address",
          "name": "",
          "type": "address"
        }
      ],
      "stateMutability": "view",
      "type": "function"
    },
    {
      "inputs": [],
      "name": "gardenInitializedAt",
      "outputs": [
        {
          "internalType": "uint256",
          "name": "",
          "type": "uint256"
        }
      ],
      "stateMutability": "view",
      "type": "function"
    },
    {
      "inputs": [
        {
          "internalType": "address",
          "name": "_contributor",
          "type": "address"
        }
      ],
      "name": "getContributor",
      "outputs": [
        {
          "internalType": "uint256",
          "name": "lastDepositAt",
          "type": "uint256"
        },
        {
          "internalType": "uint256",
          "name": "initialDepositAt",
          "type": "uint256"
        },
        {
          "internalType": "uint256",
          "name": "claimedAt",
          "type": "uint256"
        },
        {
          "internalType": "uint256",
          "name": "claimedBABL",
          "type": "uint256"
        },
        {
          "internalType": "uint256",
          "name": "claimedRewards",
          "type": "uint256"
        },
        {
          "internalType": "uint256",
          "name": "withdrawnSince",
          "type": "uint256"
        },
        {
          "internalType": "uint256",
          "name": "totalDeposits",
          "type": "uint256"
        },
        {
          "internalType": "uint256",
          "name": "nonce",
          "type": "uint256"
        },
        {
          "internalType": "uint256",
          "name": "lockedBalance",
          "type": "uint256"
        }
      ],
      "stateMutability": "view",
      "type": "function"
    },
    {
      "inputs": [],
      "name": "getFinalizedStrategies",
      "outputs": [
        {
          "internalType": "address[]",
          "name": "",
          "type": "address[]"
        }
      ],
      "stateMutability": "view",
      "type": "function"
    },
    {
      "inputs": [],
      "name": "getStrategies",
      "outputs": [
        {
          "internalType": "address[]",
          "name": "",
          "type": "address[]"
        }
      ],
      "stateMutability": "view",
      "type": "function"
    },
    {
      "inputs": [],
      "name": "hardlockStartsAt",
      "outputs": [
        {
          "internalType": "uint256",
          "name": "",
          "type": "uint256"
        }
      ],
      "stateMutability": "view",
      "type": "function"
    },
    {
      "inputs": [
        {
          "internalType": "address",
          "name": "spender",
          "type": "address"
        },
        {
          "internalType": "uint256",
          "name": "addedValue",
          "type": "uint256"
        }
      ],
      "name": "increaseAllowance",
      "outputs": [
        {
          "internalType": "bool",
          "name": "",
          "type": "bool"
        }
      ],
      "stateMutability": "nonpayable",
      "type": "function"
    },
    {
      "inputs": [
        {
          "internalType": "address",
          "name": "",
          "type": "address"
        }
      ],
      "name": "isGardenStrategy",
      "outputs": [
        {
          "internalType": "bool",
          "name": "",
          "type": "bool"
        }
      ],
      "stateMutability": "view",
      "type": "function"
    },
    {
      "inputs": [
        {
          "internalType": "bytes32",
          "name": "_hash",
          "type": "bytes32"
        },
        {
          "internalType": "bytes",
          "name": "_signature",
          "type": "bytes"
        }
      ],
      "name": "isValidSignature",
      "outputs": [
        {
          "internalType": "bytes4",
          "name": "magicValue",
          "type": "bytes4"
        }
      ],
      "stateMutability": "view",
      "type": "function"
    },
    {
      "inputs": [],
      "name": "keeperDebt",
      "outputs": [
        {
          "internalType": "uint256",
          "name": "",
          "type": "uint256"
        }
      ],
      "stateMutability": "view",
      "type": "function"
    },
    {
      "inputs": [],
      "name": "lastPricePerShare",
      "outputs": [
        {
          "internalType": "uint256",
          "name": "",
          "type": "uint256"
        }
      ],
      "stateMutability": "view",
      "type": "function"
    },
    {
      "inputs": [],
      "name": "lastPricePerShareTS",
      "outputs": [
        {
          "internalType": "uint256",
          "name": "",
          "type": "uint256"
        }
      ],
      "stateMutability": "view",
      "type": "function"
    },
    {
      "inputs": [],
      "name": "maxDepositLimit",
      "outputs": [
        {
          "internalType": "uint256",
          "name": "",
          "type": "uint256"
        }
      ],
      "stateMutability": "view",
      "type": "function"
    },
    {
      "inputs": [],
      "name": "maxStrategyDuration",
      "outputs": [
        {
          "internalType": "uint256",
          "name": "",
          "type": "uint256"
        }
      ],
      "stateMutability": "view",
      "type": "function"
    },
    {
      "inputs": [],
      "name": "minContribution",
      "outputs": [
        {
          "internalType": "uint256",
          "name": "",
          "type": "uint256"
        }
      ],
      "stateMutability": "view",
      "type": "function"
    },
    {
      "inputs": [],
      "name": "minLiquidityAsset",
      "outputs": [
        {
          "internalType": "uint256",
          "name": "",
          "type": "uint256"
        }
      ],
      "stateMutability": "view",
      "type": "function"
    },
    {
      "inputs": [],
      "name": "minStrategyDuration",
      "outputs": [
        {
          "internalType": "uint256",
          "name": "",
          "type": "uint256"
        }
      ],
      "stateMutability": "view",
      "type": "function"
    },
    {
      "inputs": [],
      "name": "minVoters",
      "outputs": [
        {
          "internalType": "uint256",
          "name": "",
          "type": "uint256"
        }
      ],
      "stateMutability": "view",
      "type": "function"
    },
    {
      "inputs": [],
      "name": "minVotesQuorum",
      "outputs": [
        {
          "internalType": "uint256",
          "name": "",
          "type": "uint256"
        }
      ],
      "stateMutability": "view",
      "type": "function"
    },
    {
      "inputs": [],
      "name": "name",
      "outputs": [
        {
          "internalType": "string",
          "name": "",
          "type": "string"
        }
      ],
      "stateMutability": "view",
      "type": "function"
    },
    {
      "inputs": [],
      "name": "pricePerShareDecayRate",
      "outputs": [
        {
          "internalType": "uint256",
          "name": "",
          "type": "uint256"
        }
      ],
      "stateMutability": "view",
      "type": "function"
    },
    {
      "inputs": [],
      "name": "pricePerShareDelta",
      "outputs": [
        {
          "internalType": "uint256",
          "name": "",
          "type": "uint256"
        }
      ],
      "stateMutability": "view",
      "type": "function"
    },
    {
      "inputs": [],
      "name": "privateGarden",
      "outputs": [
        {
          "internalType": "bool",
          "name": "",
          "type": "bool"
        }
      ],
      "stateMutability": "view",
      "type": "function"
    },
    {
      "inputs": [],
      "name": "publicStewards",
      "outputs": [
        {
          "internalType": "bool",
          "name": "",
          "type": "bool"
        }
      ],
      "stateMutability": "view",
      "type": "function"
    },
    {
      "inputs": [],
      "name": "publicStrategists",
      "outputs": [
        {
          "internalType": "bool",
          "name": "",
          "type": "bool"
        }
      ],
      "stateMutability": "view",
      "type": "function"
    },
    {
      "inputs": [],
      "name": "reserveAsset",
      "outputs": [
        {
          "internalType": "address",
          "name": "",
          "type": "address"
        }
      ],
      "stateMutability": "view",
      "type": "function"
    },
    {
      "inputs": [],
      "name": "reserveAssetRewardsSetAside",
      "outputs": [
        {
          "internalType": "uint256",
          "name": "",
          "type": "uint256"
        }
      ],
      "stateMutability": "view",
      "type": "function"
    },
    {
      "inputs": [
        {
          "internalType": "uint256",
          "name": "_amountIn",
          "type": "uint256"
        },
        {
          "internalType": "uint256",
          "name": "_profits",
          "type": "uint256"
        },
        {
          "internalType": "uint256",
          "name": "_minAmountOut",
          "type": "uint256"
        },
        {
          "internalType": "uint256",
          "name": "_nonce",
          "type": "uint256"
        },
        {
          "internalType": "uint256",
          "name": "_nonceHeart",
          "type": "uint256"
        },
        {
          "internalType": "uint256",
          "name": "_maxFee",
          "type": "uint256"
        },
        {
          "internalType": "address",
          "name": "_to",
          "type": "address"
        },
        {
          "internalType": "uint256",
          "name": "_pricePerShare",
          "type": "uint256"
        },
        {
          "internalType": "address",
          "name": "_signer",
          "type": "address"
        },
        {
          "internalType": "bytes",
          "name": "_signature",
          "type": "bytes"
        }
      ],
      "name": "stakeBySig",
      "outputs": [],
      "stateMutability": "nonpayable",
      "type": "function"
    },
    {
      "inputs": [],
      "name": "strategyCooldownPeriod",
      "outputs": [
        {
          "internalType": "uint256",
          "name": "",
          "type": "uint256"
        }
      ],
      "stateMutability": "view",
      "type": "function"
    },
    {
      "inputs": [
        {
          "internalType": "address",
          "name": "",
          "type": "address"
        }
      ],
      "name": "strategyMapping",
      "outputs": [
        {
          "internalType": "bool",
          "name": "",
          "type": "bool"
        }
      ],
      "stateMutability": "view",
      "type": "function"
    },
    {
      "inputs": [],
      "name": "symbol",
      "outputs": [
        {
          "internalType": "string",
          "name": "",
          "type": "string"
        }
      ],
      "stateMutability": "view",
      "type": "function"
    },
    {
      "inputs": [],
      "name": "totalContributors",
      "outputs": [
        {
          "internalType": "uint256",
          "name": "",
          "type": "uint256"
        }
      ],
      "stateMutability": "view",
      "type": "function"
    },
    {
      "inputs": [],
      "name": "totalKeeperFees",
      "outputs": [
        {
          "internalType": "uint256",
          "name": "",
          "type": "uint256"
        }
      ],
      "stateMutability": "view",
      "type": "function"
    },
    {
      "inputs": [],
      "name": "totalStake",
      "outputs": [
        {
          "internalType": "uint256",
          "name": "",
          "type": "uint256"
        }
      ],
      "stateMutability": "view",
      "type": "function"
    },
    {
      "inputs": [],
      "name": "totalSupply",
      "outputs": [
        {
          "internalType": "uint256",
          "name": "",
          "type": "uint256"
        }
      ],
      "stateMutability": "view",
      "type": "function"
    },
    {
      "inputs": [
        {
          "internalType": "address",
          "name": "recipient",
          "type": "address"
        },
        {
          "internalType": "uint256",
          "name": "amount",
          "type": "uint256"
        }
      ],
      "name": "transfer",
      "outputs": [
        {
          "internalType": "bool",
          "name": "",
          "type": "bool"
        }
      ],
      "stateMutability": "nonpayable",
      "type": "function"
    },
    {
      "inputs": [
        {
          "internalType": "address",
          "name": "sender",
          "type": "address"
        },
        {
          "internalType": "address",
          "name": "recipient",
          "type": "address"
        },
        {
          "internalType": "uint256",
          "name": "amount",
          "type": "uint256"
        }
      ],
      "name": "transferFrom",
      "outputs": [
        {
          "internalType": "bool",
          "name": "",
          "type": "bool"
        }
      ],
      "stateMutability": "nonpayable",
      "type": "function"
    },
    {
      "inputs": [],
      "name": "verifiedCategory",
      "outputs": [
        {
          "internalType": "uint256",
          "name": "",
          "type": "uint256"
        }
      ],
      "stateMutability": "view",
      "type": "function"
    },
    {
      "inputs": [
        {
          "internalType": "uint256",
          "name": "_amountIn",
          "type": "uint256"
        },
        {
          "internalType": "uint256",
          "name": "_minAmountOut",
          "type": "uint256"
        },
        {
          "internalType": "address payable",
          "name": "_to",
          "type": "address"
        },
        {
          "internalType": "bool",
          "name": "_withPenalty",
          "type": "bool"
        },
        {
          "internalType": "address",
          "name": "_unwindStrategy",
          "type": "address"
        }
      ],
      "name": "withdraw",
      "outputs": [],
      "stateMutability": "nonpayable",
      "type": "function"
    },
    {
      "inputs": [
        {
          "internalType": "uint256",
          "name": "_amountIn",
          "type": "uint256"
        },
        {
          "internalType": "uint256",
          "name": "_minAmountOut",
          "type": "uint256"
        },
        {
          "internalType": "uint256",
          "name": "_nonce",
          "type": "uint256"
        },
        {
          "internalType": "uint256",
          "name": "_maxFee",
          "type": "uint256"
        },
        {
          "internalType": "bool",
          "name": "_withPenalty",
          "type": "bool"
        },
        {
          "internalType": "address",
          "name": "_unwindStrategy",
          "type": "address"
        },
        {
          "internalType": "uint256",
          "name": "_pricePerShare",
          "type": "uint256"
        },
        {
          "internalType": "uint256",
          "name": "_strategyNAV",
          "type": "uint256"
        },
        {
          "internalType": "uint256",
          "name": "_fee",
          "type": "uint256"
        },
        {
          "internalType": "address",
          "name": "_signer",
          "type": "address"
        },
        {
          "internalType": "bytes",
          "name": "_signature",
          "type": "bytes"
        }
      ],
      "name": "withdrawBySig",
      "outputs": [],
      "stateMutability": "nonpayable",
      "type": "function"
    },
    {
      "stateMutability": "payable",
      "type": "receive"
    }
  ],
  "transactionHash": "0xd1dde76da47d50e6988932c0f37e2ba661f092357245de0fc86498bb37e2fc0c",
  "args": [
    "0xaAaCb63Ab80969af93b811DEB81dDEB4C8710591"
  ],
  "numDeployments": 1,
  "solcInputHash": "8f1fc868f26358c24c42c607c6053b2e",
  "bytecode": "0x60a060405234801561001057600080fd5b5060405162005457380380620054578339818101604052602081101561003557600080fd5b50516001606555606081901b6001600160601b0319166080526001600160a01b03166153e36200007460003980611c705280612b6252506153e36000f3fe6080604052600436106103855760003560e01c8063792e42e2116101d1578063ac9dc9e811610102578063cb12233b116100a0578063dd62ed3e1161006f578063dd62ed3e1461111b578063f251fc8c14611156578063f77c47911461116b578063f85cb5c81461118057610394565b8063cb12233b14610f9c578063d360386c14610fb1578063d6888eab146110b5578063daeffcca146110ca57610394565b8063b49a60bb116100dc578063b49a60bb14610e63578063b63c44e714610e78578063b9e6753914610e8d578063be546f5e14610ea257610394565b8063ac9dc9e814610dd4578063b1b7586714610de9578063b304b81514610dfe57610394565b806395cdbedb1161016f578063a457c2d711610149578063a457c2d714610d38578063a63c643d14610d71578063a9059cbb14610d86578063aaffadf314610dbf57610394565b806395cdbedb14610cf957806395d89b4114610d0e578063a06931f914610d2357610394565b80638b0e9f3f116101ab5780638b0e9f3f14610af85780638bbde0fd14610b0d5780638fa3eab114610b2257806394bd87ac14610c0257610394565b8063792e42e214610a945780637fab0dd414610aa957806384715b1114610abe57610394565b80633a821925116102b657806359659e9011610254578063672756ad11610223578063672756ad14610a2257806370a0823114610a375780637550ed1814610a6a57806377e7ff3c14610a7f57610394565b806359659e90146109b95780635a16656a146109ce57806360d442ca146109e357806363f568b9146109f857610394565b80633d8270f5116102905780633d8270f5146108915780633deddb3f1461090b5780634961a27914610920578063550c2b7f146109a457610394565b80633a821925146107cc5780633aa1f9ed146107ff5780633ad8d04d1461081457610394565b806323b872dd1161032357806330869d87116102fd57806330869d871461073e578063313ce5671461075357806338e45bc31461077e578063395093511461079357610394565b806323b872dd146105ea578063297ce5981461062d5780632f214efc1461064257610394565b8063095ea7b31161035f578063095ea7b31461049e5780631626ba7e146104d75780631780998b146105ae57806318160ddd146105c357610394565b806302d05d3f1461039c57806306061dfa146103cd57806306fdde031461041457610394565b3661039457610392611195565b005b610392611195565b3480156103a857600080fd5b506103b16111af565b604080516001600160a01b039092168252519081900360200190f35b3480156103d957600080fd5b50610400600480360360208110156103f057600080fd5b50356001600160a01b03166111be565b604080519115158252519081900360200190f35b34801561042057600080fd5b506104296111d3565b6040805160208082528351818301528351919283929083019185019080838360005b8381101561046357818101518382015260200161044b565b50505050905090810190601f1680156104905780820380516001836020036101000a031916815260200191505b509250505060405180910390f35b3480156104aa57600080fd5b50610400600480360360408110156104c157600080fd5b506001600160a01b03813516906020013561126a565b3480156104e357600080fd5b50610591600480360360408110156104fa57600080fd5b8135919081019060408101602082013564010000000081111561051c57600080fd5b82018360208201111561052e57600080fd5b8035906020019184600183028401116401000000008311171561055057600080fd5b91908080601f016020809104026020016040519081016040528093929190818152602001838380828437600092019190915250929550611288945050505050565b604080516001600160e01b03199092168252519081900360200190f35b3480156105ba57600080fd5b506104006112dc565b3480156105cf57600080fd5b506105d86112e5565b60408051918252519081900360200190f35b3480156105f657600080fd5b506104006004803603606081101561060d57600080fd5b506001600160a01b038135811691602081013590911690604001356112eb565b34801561063957600080fd5b506105d8611372565b34801561064e57600080fd5b50610392600480360361014081101561066657600080fd5b8135916020810135916040820135916060810135916001600160a01b03608083013581169260a08101359260c08201359260e08301358116926101008101359091169181019061014081016101208201356401000000008111156106c957600080fd5b8201836020820111156106db57600080fd5b803590602001918460018302840111640100000000831117156106fd57600080fd5b91908080601f016020809104026020016040519081016040528093929190818152602001838380828437600092019190915250929550611378945050505050565b34801561074a57600080fd5b506105d861150f565b34801561075f57600080fd5b50610768611515565b6040805160ff9092168252519081900360200190f35b34801561078a57600080fd5b506105d861151e565b34801561079f57600080fd5b50610400600480360360408110156107b657600080fd5b506001600160a01b038135169060200135611524565b3480156107d857600080fd5b50610400600480360360208110156107ef57600080fd5b50356001600160a01b0316611572565b34801561080b57600080fd5b506105d8611587565b34801561082057600080fd5b506103926004803603602081101561083757600080fd5b81019060208101813564010000000081111561085257600080fd5b82018360208201111561086457600080fd5b8035906020019184602083028401116401000000008311171561088657600080fd5b50909250905061158d565b34801561089d57600080fd5b506108c4600480360360208110156108b457600080fd5b50356001600160a01b03166117a5565b60408051998a5260208a0198909852888801969096526060880194909452608087019290925260a086015260c085015260e084015261010083015251908190036101200190f35b34801561091757600080fd5b506105d861183d565b34801561092c57600080fd5b506103926004803603604081101561094357600080fd5b8135919081019060408101602082013564010000000081111561096557600080fd5b82018360208201111561097757600080fd5b8035906020019184602083028401116401000000008311171561099957600080fd5b509092509050611843565b3480156109b057600080fd5b50610400611c5e565b3480156109c557600080fd5b506103b1611c6e565b3480156109da57600080fd5b506105d8611c92565b3480156109ef57600080fd5b506105d8611c98565b348015610a0457600080fd5b506103b160048036036020811015610a1b57600080fd5b5035611c9e565b348015610a2e57600080fd5b50610392611cbe565b348015610a4357600080fd5b506105d860048036036020811015610a5a57600080fd5b50356001600160a01b0316611e1c565b348015610a7657600080fd5b506105d8611e37565b348015610a8b57600080fd5b50610400611e3d565b348015610aa057600080fd5b506105d8611e4b565b348015610ab557600080fd5b506105d8611e51565b61039260048036036080811015610ad457600080fd5b508035906020810135906001600160a01b0360408201358116916060013516611e57565b348015610b0457600080fd5b506105d8611ed7565b348015610b1957600080fd5b506105d8611edd565b348015610b2e57600080fd5b50610392600480360360e0811015610b4557600080fd5b8135916020810135916040820135916060810135916080820135916001600160a01b0360a0820135169181019060e0810160c0820135640100000000811115610b8d57600080fd5b820183602082011115610b9f57600080fd5b80359060200191846001830284011164010000000083111715610bc157600080fd5b91908080601f016020809104026020016040519081016040528093929190818152602001838380828437600092019190915250929550611ee3945050505050565b348015610c0e57600080fd5b506103926004803603610140811015610c2657600080fd5b81359160208101359160408201359160608101359160808201359160a08101359160c08201359160e0810135916001600160a01b036101008301351691908101906101408101610120820135640100000000811115610c8457600080fd5b820183602082011115610c9657600080fd5b80359060200191846001830284011164010000000083111715610cb857600080fd5b91908080601f016020809104026020016040519081016040528093929190818152602001838380828437600092019190915250929550612026945050505050565b348015610d0557600080fd5b506105d861243f565b348015610d1a57600080fd5b50610429612445565b348015610d2f57600080fd5b506105d86124a6565b348015610d4457600080fd5b5061040060048036036040811015610d5b57600080fd5b506001600160a01b0381351690602001356124ac565b348015610d7d57600080fd5b506105d8612514565b348015610d9257600080fd5b5061040060048036036040811015610da957600080fd5b506001600160a01b03813516906020013561251a565b348015610dcb57600080fd5b506105d861252e565b348015610de057600080fd5b506105d8612534565b348015610df557600080fd5b506105d861253a565b348015610e0a57600080fd5b50610e13612540565b60408051602080825283518183015283519192839290830191858101910280838360005b83811015610e4f578181015183820152602001610e37565b505050509050019250505060405180910390f35b348015610e6f57600080fd5b50610e136125a1565b348015610e8457600080fd5b506105d8612601565b348015610e9957600080fd5b506105d8612607565b348015610eae57600080fd5b506103926004803603610140811015610ec657600080fd5b81359160208101359160408201359160608101359160808201359160a0810135916001600160a01b0360c083013581169260e081013592610100820135909216918101906101408101610120820135640100000000811115610f2757600080fd5b820183602082011115610f3957600080fd5b80359060200191846001830284011164010000000083111715610f5b57600080fd5b91908080601f01602080910402602001604051908101604052809392919081815260200183838082843760009201919091525092955061260d945050505050565b348015610fa857600080fd5b506105d86128ab565b348015610fbd57600080fd5b506103926004803603610160811015610fd557600080fd5b81359160208101359160408201359160608101359160808201351515916001600160a01b0360a082013581169260c08301359260e081013592610100820135926101208301359091169190810190610160810161014082013564010000000081111561104057600080fd5b82018360208201111561105257600080fd5b8035906020019184600183028401116401000000008311171561107457600080fd5b91908080601f0160208091040260200160405190810160405280939291908181526020018383808284376000920191909152509295506128b1945050505050565b3480156110c157600080fd5b506105d86129d2565b3480156110d657600080fd5b50610392600480360360a08110156110ed57600080fd5b508035906020810135906001600160a01b0360408201358116916060810135151591608090910135166129d8565b34801561112757600080fd5b506105d86004803603604081101561113e57600080fd5b506001600160a01b0381358116916020013516612ae0565b34801561116257600080fd5b506105d8612b0b565b34801561117757600080fd5b506103b1612b11565b34801561118c57600080fd5b506103b1612b20565b61119d6111ad565b6111ad6111a8612b2f565b612bf7565b565b6069546001600160a01b031681565b60826020526000908152604090205460ff1681565b60368054604080516020601f600260001961010060018816150201909516949094049384018190048102820181019092528281526060939092909183018282801561125f5780601f106112345761010080835404028352916020019161125f565b820191906000526020600020905b81548152906001019060200180831161124257829003601f168201915b505050505090505b90565b600061127e611277612c1b565b8484612c1f565b5060015b92915050565b6090546000906001600160a01b03166112a18484612d0b565b6001600160a01b03161480156112c157506090546001600160a01b031615155b6112cc5760006112d5565b630b135d3f60e11b5b9392505050565b60855460ff1681565b60355490565b60006112f8848484612d8b565b61136884611304612c1b565b61136385604051806060016040528060288152602001615297602891396001600160a01b038a16600090815260346020526040812090611342612c1b565b6001600160a01b031681526020810191909152604001600020549190612ee8565b612c1f565b5060019392505050565b607d5481565b600260655414156113d0576040805162461bcd60e51b815260206004820152601f60248201527f5265656e7472616e637947756172643a207265656e7472616e742063616c6c00604482015290519081900360640190fd5b60026065556113df8488612f7f565b604080517fd29d500304178a7a55901b6b67f2f14762edc14de19f872f4c0f68dd2ecdc1366020808301919091523082840152606082018d9052608082018c905260a082018b905260c082018a90526001600160a01b03808a1660e084015285166101008084019190915283518084039091018152610120909201909252805191012060009061146e90613029565b905061147d84888b848661307a565b84156114ec57600061148f86886130c8565b90506114ce61149e8d8861315e565b6114a88d8461315e565b8a888b8b607754116114bb5760006114c8565b6077546114c8908d61315e565b8a61316e565b6066546114e6906001600160a01b0316863389613694565b506114fd565b6114fd8b8b89878a6077548961316e565b50506001606555505050505050505050565b608f5481565b60385460ff1690565b60915481565b600061127e611531612c1b565b846113638560346000611542612c1b565b6001600160a01b03908116825260208083019390935260409182016000908120918c16815292529020549061370d565b60816020526000908152604090205460ff1681565b608d5481565b600260655414156115e5576040805162461bcd60e51b815260206004820152601f60248201527f5265656e7472616e637947756172643a207265656e7472616e742063616c6c00604482015290519081900360640190fd5b60026065556040805160088082526101208201909252600091602082016101008036833750506068546040516369795e9360e01b815230600482018181523360248401819052606060448501908152606485018a90529697506001600160a01b03909416956369795e9395509193928992899291608401846020850280828437600081840152601f19601f8201169050808301925050509550505050505060006040518083038186803b15801561169b57600080fd5b505afa1580156116af573d6000803e3d6000fd5b505050506040513d6000823e601f3d908101601f1916820160405260208110156116d857600080fd5b81019080805160405193929190846401000000008211156116f857600080fd5b90830190602082018581111561170d57600080fd5b825186602082028301116401000000008211171561172a57600080fd5b82525081516020918201928201910280838360005b8381101561175757818101518382015260200161173f565b50505050905001604052505050905061179b338260058151811061177757fe5b60200260200101518360068151811061178c57fe5b60200260200101516000613767565b5050600160655550565b6001600160a01b0316600090815260716020908152604091829020825161012081018452815480825260018301549382018490526002830154948201859052600383015460608301819052600484015460808401819052600585015460a08501819052600686015460c08601819052600787015460e08701819052600890970154610100909601869052939896979692959194909392565b607e5481565b6002606554141561189b576040805162461bcd60e51b815260206004820152601f60248201527f5265656e7472616e637947756172643a207265656e7472616e742063616c6c00604482015290519081900360640190fd5b60026065556040805160088082526101208201909252600091602082016101008036833750506068546040516369795e9360e01b815230600482018181523360248401819052606060448501908152606485018a90529697506001600160a01b03909416956369795e9395509193928992899291608401846020850280828437600081840152601f19601f8201169050808301925050509550505050505060006040518083038186803b15801561195157600080fd5b505afa158015611965573d6000803e3d6000fd5b505050506040513d6000823e601f3d908101601f19168201604052602081101561198e57600080fd5b81019080805160405193929190846401000000008211156119ae57600080fd5b9083019060208201858111156119c357600080fd5b82518660208202830111640100000000821117156119e057600080fd5b82525081516020918201928201910280838360005b83811015611a0d5781810151838201526020016119f5565b5050505090500160405250505090506000606760009054906101000a90046001600160a01b03166001600160a01b031663f58d1c946040518163ffffffff1660e01b815260040160206040518083038186803b158015611a6c57600080fd5b505afa158015611a80573d6000803e3d6000fd5b505050506040513d6020811015611a9657600080fd5b505160408051630cbefec960e31b815290516001600160a01b03909216916365f7f64891600480820192602092909190829003018186803b158015611ada57600080fd5b505afa158015611aee573d6000803e3d6000fd5b505050506040513d6020811015611b0457600080fd5b50518251909150611b4290339084906005908110611b1e57fe5b602002602001015184600681518110611b3357fe5b60200260200101516001613767565b611b608183600581518110611b5357fe5b6020026020010151613948565b806001600160a01b03166384715b1183600581518110611b7c57fe5b6020026020010151873360006040518563ffffffff1660e01b815260040180858152602001848152602001836001600160a01b03168152602001826001600160a01b03168152602001945050505050600060405180830381600087803b158015611be557600080fd5b505af1158015611bf9573d6000803e3d6000fd5b50505050336001600160a01b03167f1886d3d8c9b71f99d9224bccca0588192d9d4428b2adab6cfcf70e8a07d4d2f283600581518110611c3557fe5b60200260200101516040518082815260200191505060405180910390a250506001606555505050565b606954600160a81b900460ff1681565b7f000000000000000000000000000000000000000000000000000000000000000081565b607b5481565b60835481565b60868160048110611cae57600080fd5b01546001600160a01b0316905081565b611cd5607754611ccd33611e1c565b11600f6139f3565b336000908152607160205260409020609154611d109015801590611d0957506091546001830154611d0790429061315e565b115b607d6139f3565b606760009054906101000a90046001600160a01b03166001600160a01b031663ead4c1cf6040518163ffffffff1660e01b815260040160206040518083038186803b158015611d5e57600080fd5b505afa158015611d72573d6000803e3d6000fd5b505050506040513d6020811015611d8857600080fd5b5051604080517f45b4974700000000000000000000000000000000000000000000000000000000815233600482015290516001600160a01b03909216916345b49747916024808201926020929091908290030181600087803b158015611ded57600080fd5b505af1158015611e01573d6000803e3d6000fd5b505050506040513d6020811015611e1757600080fd5b505050565b6001600160a01b031660009081526033602052604090205490565b606f5481565b608554610100900460ff1681565b606d5481565b608b5481565b60026065541415611eaf576040805162461bcd60e51b815260206004820152601f60248201527f5265656e7472616e637947756172643a207265656e7472616e742063616c6c00604482015290519081900360640190fd5b6002606555611ecc84848433611ec3613a01565b6077548761316e565b505060016065555050565b60795481565b607a5481565b60026065541415611f3b576040805162461bcd60e51b815260206004820152601f60248201527f5265656e7472616e637947756172643a207265656e7472616e742063616c6c00604482015290519081900360640190fd5b6002606555611f4a8385612f7f565b604080517f4a667eb0782d5566daf0bdf399587241ea093b0424d78811ac44135dd7a8a45d6020808301919091523082840152606082018a90526080820189905260a0820188905260c08083018890528351808403909101815260e09092019092528051910120600090611fbd90613029565b9050611fcd60008511606a6139f3565b611fda838488848661307a565b611ff269012a27d53bc048700000891115607b6139f3565b60665461200a906001600160a01b0316843387613694565b6120178389896000613767565b50506001606555505050505050565b6002606554141561207e576040805162461bcd60e51b815260206004820152601f60248201527f5265656e7472616e637947756172643a207265656e7472616e742063616c6c00604482015290519081900360640190fd5b600260655561208d8386612f7f565b60675460408051633d63472560e21b815290516000926001600160a01b03169163f58d1c94916004808301926020929190829003018186803b1580156120d257600080fd5b505afa1580156120e6573d6000803e3d6000fd5b505050506040513d60208110156120fc57600080fd5b505160408051630cbefec960e31b815290516001600160a01b03909216916365f7f64891600480820192602092909190829003018186803b15801561214057600080fd5b505afa158015612154573d6000803e3d6000fd5b505050506040513d602081101561216a57600080fd5b8101908080519060200190929190505050905060006122207f3b316a46c148535e4353962e052926fc1375db328a64d9bf0d8311a12095015f838e8e8e8e8e8e8c604051602001808a8152602001896001600160a01b03168152602001888152602001878152602001868152602001858152602001848152602001838152602001826001600160a01b03168152602001995050505050505050505060405160208183030381529060405280519060200120613029565b905061222f84858b848761307a565b61223d60008611606a6139f3565b61225569012a27d53bc0487000008d1115607b6139f3565b60665461226d906001600160a01b0316853388613694565b61227a848d8d6001613767565b612284828d613948565b83609060006101000a8154816001600160a01b0302191690836001600160a01b03160217905550816001600160a01b031663be546f5e8d8d8d8d8d8d8b8e308d6040518b63ffffffff1660e01b8152600401808b81526020018a8152602001898152602001888152602001878152602001868152602001856001600160a01b03168152602001848152602001836001600160a01b0316815260200180602001828103825283818151815260200191508051906020019080838360005b83811015612358578181015183820152602001612340565b50505050905090810190601f1680156123855780820380516001836020036101000a031916815260200191505b509b505050505050505050505050600060405180830381600087803b1580156123ad57600080fd5b505af11580156123c1573d6000803e3d6000fd5b5050609080547fffffffffffffffffffffffff00000000000000000000000000000000000000001690555050604080518d815290516001600160a01b038616917f1886d3d8c9b71f99d9224bccca0588192d9d4428b2adab6cfcf70e8a07d4d2f2919081900360200190a25050600160655550505050505050505050565b607c5481565b60378054604080516020601f600260001961010060018816150201909516949094049384018190048102820181019092528281526060939092909183018282801561125f5780601f106112345761010080835404028352916020019161125f565b60845481565b600061127e6124b9612c1b565b846113638560405180606001604052806025815260200161538960259139603460006124e3612c1b565b6001600160a01b03908116825260208083019390935260409182016000908120918d16815292529020549190612ee8565b606e5481565b600061127e612527612c1b565b8484612d8b565b60775481565b608a5481565b608e5481565b6060608080548060200260200160405190810160405280929190818152602001828054801561125f57602002820191906000526020600020905b81546001600160a01b0316815260019091019060200180831161257a575050505050905090565b6060607f80548060200260200160405190810160405280929190818152602001828054801561125f576020028201919060005260206000209081546001600160a01b0316815260019091019060200180831161257a575050505050905090565b60745481565b606b5481565b60026065541415612665576040805162461bcd60e51b815260206004820152601f60248201527f5265656e7472616e637947756172643a207265656e7472616e742063616c6c00604482015290519081900360640190fd5b6002606555606754604080517f364d11810000000000000000000000000000000000000000000000000000000081523360048201529051612702926001600160a01b03169163364d1181916024808301926020929190829003018186803b1580156126cf57600080fd5b505afa1580156126e3573d6000803e3d6000fd5b505050506040513d60208110156126f957600080fd5b505160236139f3565b60675460408051633d63472560e21b815290516127f4926001600160a01b03169163f58d1c94916004808301926020929190829003018186803b15801561274857600080fd5b505afa15801561275c573d6000803e3d6000fd5b505050506040513d602081101561277257600080fd5b505160408051630cbefec960e31b815290516001600160a01b03909216916365f7f64891600480820192602092909190829003018186803b1580156127b657600080fd5b505afa1580156127ca573d6000803e3d6000fd5b505050506040513d60208110156127e057600080fd5b50516001600160a01b03163014607a6139f3565b604080517f3b316a46c148535e4353962e052926fc1375db328a64d9bf0d8311a12095015f6020808301919091523082840152606082018d9052608082018c905260a082018b905260c082018a905260e0820189905261010082018890526001600160a01b0387166101208084019190915283518084039091018152610140909201909252805191012060009061288a90613029565b9050612899838689848661307a565b6114fd8b8a878688607754600061316e565b60755481565b60026065541415612909576040805162461bcd60e51b815260206004820152601f60248201527f5265656e7472616e637947756172643a207265656e7472616e742063616c6c00604482015290519081900360640190fd5b60026065556129188389612f7f565b604080517f48e615d8fee5c01aae8a4beb02057e459c71d65cdc5cf029e76a47019d54e5af6020808301919091523082840152606082018e9052608082018d905260a082018c905260c082018b905289151560e08084019190915283518084039091018152610100909201909252805191012060009061299790613029565b90506129a683848c848661307a565b6129bf8c6129b48d8c61315e565b858b8b8b8b8b613be9565b5050600160655550505050505050505050565b608c5481565b60026065541415612a30576040805162461bcd60e51b815260206004820152601f60248201527f5265656e7472616e637947756172643a207265656e7472616e742063616c6c00604482015290519081900360640190fd5b6002606555612a4b336001600160a01b03851614600f6139f3565b612ad48585858585612a5b613a01565b88612a67576000612acd565b876001600160a01b0316630126c6066040518163ffffffff1660e01b815260040160206040518083038186803b158015612aa057600080fd5b505afa158015612ab4573d6000803e3d6000fd5b505050506040513d6020811015612aca57600080fd5b50515b6000613be9565b50506001606555505050565b6001600160a01b03918216600090815260346020908152604080832093909416825291909152205490565b60725481565b6067546001600160a01b031681565b6066546001600160a01b031681565b6040517f0d7415770000000000000000000000000000000000000000000000000000000081526000906001600160a01b037f00000000000000000000000000000000000000000000000000000000000000001690630d74157790612ba2906001600160e01b031985351690600401615150565b60206040518083038186803b158015612bba57600080fd5b505afa158015612bce573d6000803e3d6000fd5b505050506040513d601f19601f82011682018060405250810190612bf29190615129565b905090565b3660008037600080366000845af43d6000803e808015612c16573d6000f35b3d6000fd5b3390565b6001600160a01b038316612c645760405162461bcd60e51b81526004018080602001828103825260248152602001806153056024913960400191505060405180910390fd5b6001600160a01b038216612ca95760405162461bcd60e51b81526004018080602001828103825260228152602001806151ab6022913960400191505060405180910390fd5b6001600160a01b03808416600081815260346020908152604080832094871680845294825291829020859055815185815291517f8c5be1e5ebec7d5bd14f71427d1e84f3dd0314c0f7b2291e5b200ac8c7c3b9259281900390910190a3505050565b60008151604114612d63576040805162461bcd60e51b815260206004820152601f60248201527f45434453413a20696e76616c6964207369676e6174757265206c656e67746800604482015290519081900360640190fd5b60208201516040830151606084015160001a612d8186828585613e49565b9695505050505050565b6001600160a01b038316612dd05760405162461bcd60e51b81526004018080602001828103825260258152602001806152e06025913960400191505060405180910390fd5b6001600160a01b038216612e155760405162461bcd60e51b81526004018080602001828103825260238152602001806151666023913960400191505060405180910390fd5b612e20838383613fc7565b612e5d816040518060600160405280602681526020016151cd602691396001600160a01b0386166000908152603360205260409020549190612ee8565b6001600160a01b038085166000908152603360205260408082209390935590841681522054612e8c908261370d565b6001600160a01b0380841660008181526033602090815260409182902094909455805185815290519193928716927fddf252ad1be2c89b69c2b068fc378daa952ba7f163c4a11628f55a4df523b3ef92918290030190a3505050565b60008184841115612f775760405162461bcd60e51b81526004018080602001828103825283818151815260200191508051906020019080838360005b83811015612f3c578181015183820152602001612f24565b50505050905090810190601f168015612f695780820380516001836020036101000a031916815260200191505b509250505060405180910390fd5b505050900390565b606754604080517f411137c30000000000000000000000000000000000000000000000000000000081523360048201529051613017926001600160a01b03169163411137c3916024808301926020929190829003018186803b158015612fe457600080fd5b505afa158015612ff8573d6000803e3d6000fd5b505050506040513d602081101561300e57600080fd5b505160126139f3565b6130258183111560136139f3565b5050565b604080517f19457468657265756d205369676e6564204d6573736167653a0a333200000000602080830191909152603c8083019490945282518083039094018452605c909101909152815191012090565b6001600160a01b0384166000908152607160205260409020600701546130a390841460596139f3565b6130c16130ba6001600160a01b0387168484614121565b60586139f3565b5050505050565b60006112d582613158606660009054906101000a90046001600160a01b03166001600160a01b031663313ce5676040518163ffffffff1660e01b815260040160206040518083038186803b15801561311f57600080fd5b505afa158015613133573d6000803e3d6000fd5b505050506040513d602081101561314957600080fd5b5051869060ff16600a0a614250565b90614250565b8082038281111561128257600080fd5b61317661426e565b61317f85614307565b61318883614320565b606954600090600160a81b900460ff1615806132af5750606760009054906101000a90046001600160a01b03166001600160a01b0316630ebdb9a26040518163ffffffff1660e01b815260040160206040518083038186803b1580156131ed57600080fd5b505afa158015613201573d6000803e3d6000fd5b505050506040513d602081101561321757600080fd5b5051604080517fc7ec5d5d0000000000000000000000000000000000000000000000000000000081523060048201526001600160a01b0389811660248301529151919092169163c7ec5d5d916044808301926020929190829003018186803b15801561328257600080fd5b505afa158015613296573d6000803e3d6000fd5b505050506040513d60208110156132ac57600080fd5b50515b90506132cc6132bd87614417565b806132c55750815b601d6139f3565b607454156132f5576132f56074546132ec8a6132e66144c4565b90614542565b111560006139f3565b6133038389101560016139f3565b606654604080516370a0823160e01b815230600482015290516000926001600160a01b0316916370a08231916024808301926020929190829003018186803b15801561334e57600080fd5b505afa158015613362573d6000803e3d6000fd5b505050506040513d602081101561337857600080fd5b50516066549091506001600160a01b031673c02aaa39b223fe8d0a0e5c4f27ead9083c756cc21480156133ab5750600034115b1561341d5773c02aaa39b223fe8d0a0e5c4f27ead9083c756cc26001600160a01b031663d0e30db0346040518263ffffffff1660e01b81526004016000604051808303818588803b1580156133ff57600080fd5b505af1158015613413573d6000803e3d6000fd5b5050505050613435565b606654613435906001600160a01b031687308c613694565b606654604080516370a0823160e01b815230600482015290516134c3928c926134bb9286926001600160a01b0316916370a08231916024808301926020929190829003018186803b15801561348957600080fd5b505afa15801561349d573d6000803e3d6000fd5b505050506040513d60208110156134b357600080fd5b50519061315e565b1460056139f3565b60006134ce88611e1c565b9050600061355c606660009054906101000a90046001600160a01b03166001600160a01b031663313ce5676040518163ffffffff1660e01b815260040160206040518083038186803b15801561352357600080fd5b505afa158015613537573d6000803e3d6000fd5b505050506040513d602081101561354d57600080fd5b50518c9060ff16600a0a614250565b9050600061356a8289614250565b905061357a8b82101560566139f3565b6135848a82614552565b6067546001600160a01b039081169063c432ae45908b9089166135a7578b6135a9565b885b8f6040518463ffffffff1660e01b815260040180846001600160a01b03168152602001836001600160a01b031681526020018281526020019350505050600060405180830381600087803b15801561360057600080fd5b505af1158015613614573d6000803e3d6000fd5b505050506136248a848e84614644565b6001600160a01b038a166000818152607160209081526040918290206007018054600101905581518e81529081018f9052428183015290517f8d878fd0c5092c0e518d34fa1f3d23c8b3a1b2b7f86174bdba0ceaabf68b5a539181900360600190a2505050505050505050505050565b604080516001600160a01b0380861660248301528416604482015260648082018490528251808303909101815260849091019091526020810180516001600160e01b03167f23b872dd00000000000000000000000000000000000000000000000000000000179052613707908590614727565b50505050565b6000828201838110156112d5576040805162461bcd60e51b815260206004820152601b60248201527f536166654d6174683a206164646974696f6e206f766572666c6f770000000000604482015290519081900360640190fd5b61376f61426e565b6001600160a01b03841660009081526071602052604090206007810154613799901515600f6139f3565b6137b260008511806137ab5750600084115b60526139f3565b6137c283606b54101560566139f3565b600781018054600101905560028101546137df904211600c6139f3565b42600282015582156138505760048101546137fa9084614542565b6004820155606b5461380c908461315e565b606b5561381985846147d8565b60405183906001600160a01b038716907f4dacaff8a707e7b54321fbdedb3b65d1f3316b59787949c034bae8946d6ff4e190600090a35b83156130c1576068546000906001600160a01b0316638ce90e82846138755787613877565b305b876040518363ffffffff1660e01b815260040180836001600160a01b0316815260200182815260200192505050602060405180830381600087803b1580156138be57600080fd5b505af11580156138d2573d6000803e3d6000fd5b505050506040513d60208110156138e857600080fd5b505160038301549091506138fc9082614542565b60038301556040805182815290516001600160a01b038816917f09703ae9c781fcf86e1d44c6d854c2684b3f5dcfe234dfc64f4d356d0e3cd73e919081900360200190a2505050505050565b604080516370a0823160e01b815230600482015290516139d491839173f4dc48d260c93ad6a96c5ce563e70ca578987c74916370a08231916024808301926020929190829003018186803b15801561399f57600080fd5b505afa1580156139b3573d6000803e3d6000fd5b505050506040513d60208110156139c957600080fd5b50511015607c6139f3565b61302573f4dc48d260c93ad6a96c5ce563e70ca578987c7483836148a0565b8161302557613025816149e5565b607f54600090613ad057613a136112e5565b15613ac157613abc613a236112e5565b606654604080517f313ce5670000000000000000000000000000000000000000000000000000000081529051613158926001600160a01b03169163313ce567916004808301926020929190829003018186803b158015613a8257600080fd5b505afa158015613a96573d6000803e3d6000fd5b505050506040513d6020811015613aac57600080fd5b505160ff16600a0a6131586144c4565b613ac9565b613ac9614a38565b9050611267565b606760009054906101000a90046001600160a01b03166001600160a01b031663294d237c6040518163ffffffff1660e01b815260040160206040518083038186803b158015613b1e57600080fd5b505afa158015613b32573d6000803e3d6000fd5b505050506040513d6020811015613b4857600080fd5b5051606654604080517fbc14773a0000000000000000000000000000000000000000000000000000000081523060048201526001600160a01b0392831660248201529051919092169163bc14773a916044808301926020929190829003018186803b158015613bb657600080fd5b505afa158015613bca573d6000803e3d6000fd5b505050506040513d6020811015613be057600080fd5b50519050611267565b613bf161426e565b613bfa83614320565b6000613c0587611e1c565b9050613c1560008211600f6139f3565b613c37606f54613c2e613c278a614a44565b429061315e565b101560036139f3565b6001600160a01b038716600090815260716020526040902060080154613c5d828261315e565b8a11613c695789613c73565b613c73828261315e565b9950613c8c613c82838361315e565b8b111560076139f3565b6000613c988b87614a8b565b9050878015613cad575080613cab6144c4565b105b15613d5957613ccd613cc6826658d15e17628000614b16565b829061315e565b9050613cd887614307565b6001600160a01b03871663fa9bacac613d02613cfb8466b1a2bc2ec50000614b16565b8490614542565b876040518363ffffffff1660e01b81526004018083815260200182815260200192505050600060405180830381600087803b158015613d4057600080fd5b505af1158015613d54573d6000803e3d6000fd5b505050505b613d738a8210158015613d6c575060008c115b60566139f3565b613d8881613d7f6144c4565b101560046139f3565b613d92898c614b2e565b613da589613da0838761315e565b6147d8565b8315613dc257606654613dc2906001600160a01b03163386614c2a565b613dd7898285613dd18d611e1c565b8f614c95565b6001600160a01b0389166000818152607160209081526040918290206007018054600101905581518481529081018e90524281830152905182917f32a44bf15c44dad7691e20191a033527995d56d46ebe5115756d9e2eec16d333919081900360600190a35050505050505050505050565b60007f7fffffffffffffffffffffffffffffff5d576e7357a4501ddfe92f46681b20a0821115613eaa5760405162461bcd60e51b815260040180806020018281038252602281526020018061522d6022913960400191505060405180910390fd5b8360ff16601b1480613ebf57508360ff16601c145b613efa5760405162461bcd60e51b81526004018080602001828103825260228152602001806152756022913960400191505060405180910390fd5b600060018686868660405160008152602001604052604051808581526020018460ff1681526020018381526020018281526020019450505050506020604051602081039080840390855afa158015613f56573d6000803e3d6000fd5b5050604051601f1901519150506001600160a01b038116613fbe576040805162461bcd60e51b815260206004820152601860248201527f45434453413a20696e76616c6964207369676e61747572650000000000000000604482015290519081900360640190fd5b95945050505050565b613fd2838383611e17565b61408f6001600160a01b0384161580613ff257506001600160a01b038316155b806140885750606760009054906101000a90046001600160a01b03166001600160a01b031663393bfe496040518163ffffffff1660e01b815260040160206040518083038186803b15801561404657600080fd5b505afa15801561405a573d6000803e3d6000fd5b505050506040513d602081101561407057600080fd5b505180156140885750606954600160a81b900460ff16155b603b6139f3565b6001600160a01b038316158015906140af57506001600160a01b03821615155b15611e175760006140bf84611e1c565b6001600160a01b0385166000908152607160205260409020600801549091506140f5836140ec848461315e565b101560076139f3565b61410c85600084614106818861315e565b87614c95565b6130c18461411986611e1c565b600086614644565b600061412c84614d7e565b1561422b5760408051630b135d3f60e11b815260048101858152602482019283528451604483015284516001600160a01b03881693631626ba7e938893889390929160640190602085019080838360005b8381101561419557818101518382015260200161417d565b50505050905090810190601f1680156141c25780820380516001836020036101000a031916815260200191505b50935050505060206040518083038186803b1580156141e057600080fd5b505afa92505050801561420557506040513d602081101561420057600080fd5b505160015b614211575060006112d5565b6001600160e01b031916630b135d3f60e11b1490506112d5565b836001600160a01b031661423f8484612d0b565b6001600160a01b03161490506112d5565b60006112d58261426885670de0b6b3a7640000614d84565b90614da8565b606754604080517f5b14f18300000000000000000000000000000000000000000000000000000000815230600482015290516111ad926001600160a01b031691635b14f183916024808301926020929190829003018186803b1580156142d357600080fd5b505afa1580156142e7573d6000803e3d6000fd5b505050506040513d60208110156142fd57600080fd5b50511560536139f3565b61431d6001600160a01b038216151560176139f3565b50565b600080608d5411614339576703782dace9d9000061433d565b608d545b9050600080608c541161435857670de0b6b3a764000061435c565b608c545b9050608a5460001461440c576143996143928261438c6301e13380613158608b544261315e90919063ffffffff16565b90614b16565b8390614542565b9150608a548311156143d257608a546143cd906143b69084614b16565b608a546143c490869061315e565b111560766139f3565b61440c565b61440c6143ff6143f66143ed85670de0b6b3a7640000614542565b608a5490614250565b608a549061315e565b608a546143c4908661315e565b5050608a5542608b55565b60006001600160a01b0382161580159061128257506001600160a01b0382166086600001546001600160a01b0316148061446757506001600160a01b0382166086600101546001600160a01b0316145b8061448857506001600160a01b0382166086600201546001600160a01b0316145b806144a957506001600160a01b0382166086600301546001600160a01b0316145b806112825750506069546001600160a01b0390811691161490565b606b54606654604080516370a0823160e01b81523060048201529051600093849361451c9391926001600160a01b03909116916370a08231916024808301926020929190829003018186803b15801561348957600080fd5b9050608354811161452e57600061453c565b60835461453c90829061315e565b91505090565b8082018281101561128257600080fd5b6001600160a01b0382166145ad576040805162461bcd60e51b815260206004820152601f60248201527f45524332303a206d696e7420746f20746865207a65726f206164647265737300604482015290519081900360640190fd5b6145b960008383613fc7565b6035546145c6908261370d565b6035556001600160a01b0382166000908152603360205260409020546145ec908261370d565b6001600160a01b03831660008181526033602090815260408083209490945583518581529351929391927fddf252ad1be2c89b69c2b068fc378daa952ba7f163c4a11628f55a4df523b3ef9281900390910190a35050565b6001600160a01b038416600090815260716020526040902083158061466b57506001810154155b156146885760725461467e906001614542565b6072554260018201555b60068101546146979084614542565b60068201554281556068546040805163df8a4e4560e01b81523060048201526001600160a01b0388811660248301526044820188905260648201869052600160848301529151919092169163df8a4e459160a480830192600092919082900301818387803b15801561470857600080fd5b505af115801561471c573d6000803e3d6000fd5b505050505050505050565b600061477c826040518060400160405280602081526020017f5361666545524332303a206c6f772d6c6576656c2063616c6c206661696c6564815250856001600160a01b0316614e0f9092919063ffffffff16565b805190915015611e175780806020019051602081101561479b57600080fd5b5051611e175760405162461bcd60e51b815260040180806020018281038252602a815260200180615329602a913960400191505060405180910390fd5b6066546001600160a01b031673c02aaa39b223fe8d0a0e5c4f27ead9083c756cc21415614889578047101561487a5773c02aaa39b223fe8d0a0e5c4f27ead9083c756cc2632e1a7d4d61482b834761315e565b6040518263ffffffff1660e01b815260040180828152602001915050600060405180830381600087803b15801561486157600080fd5b505af1158015614875573d6000803e3d6000fd5b505050505b6148848282614e26565b613025565b606654613025906001600160a01b03168383614c2a565b80158061493f5750604080517fdd62ed3e0000000000000000000000000000000000000000000000000000000081523060048201526001600160a01b03848116602483015291519185169163dd62ed3e91604480820192602092909190829003018186803b15801561491157600080fd5b505afa158015614925573d6000803e3d6000fd5b505050506040513d602081101561493b57600080fd5b5051155b61497a5760405162461bcd60e51b81526004018080602001828103825260368152602001806153536036913960400191505060405180910390fd5b604080516001600160a01b038416602482015260448082018490528251808303909101815260649091019091526020810180516001600160e01b03167f095ea7b300000000000000000000000000000000000000000000000000000000179052611e17908490614727565b62461bcd60e51b6000908152602060045260076024526642414223000030600a808404818106603090810160081b95839006959095019082900491820690940160101b939093010160c81b604452606490fd5b670de0b6b3a764000090565b6001600160a01b038116600090815260716020526040812054608f5411614a83576001600160a01b038216600090815260716020526040902054611282565b5050608f5490565b60006112d5606660009054906101000a90046001600160a01b03166001600160a01b031663313ce5676040518163ffffffff1660e01b815260040160206040518083038186803b158015614ade57600080fd5b505afa158015614af2573d6000803e3d6000fd5b505050506040513d6020811015614b0857600080fd5b505160ff16600a0a61438c85855b60006112d5670de0b6b3a76400006142688585614d84565b6001600160a01b038216614b735760405162461bcd60e51b81526004018080602001828103825260218152602001806152bf6021913960400191505060405180910390fd5b614b7f82600083613fc7565b614bbc81604051806060016040528060228152602001615189602291396001600160a01b0385166000908152603360205260409020549190612ee8565b6001600160a01b038316600090815260336020526040902055603554614be29082614f0b565b6035556040805182815290516000916001600160a01b038516917fddf252ad1be2c89b69c2b068fc378daa952ba7f163c4a11628f55a4df523b3ef9181900360200190a35050565b604080516001600160a01b038416602482015260448082018490528251808303909101815260649091019091526020810180516001600160e01b03167fa9059cbb00000000000000000000000000000000000000000000000000000000179052611e17908490614727565b6001600160a01b038516600090815260716020526040902082614ce25760008082556001808301829055600583018290556006830191909155607254614cda9161315e565b607255614cf7565b6005810154614cf19086614542565b60058201555b6068546040805163df8a4e4560e01b81523060048201526001600160a01b0389811660248301526044820188905260648201869052600060848301819052925193169263df8a4e459260a48084019391929182900301818387803b158015614d5e57600080fd5b505af1158015614d72573d6000803e3d6000fd5b50505050505050505050565b3b151590565b6000821580614d9f57505081810281838281614d9c57fe5b04145b61128257600080fd5b6000808211614dfe576040805162461bcd60e51b815260206004820152601a60248201527f536166654d6174683a206469766973696f6e206279207a65726f000000000000604482015290519081900360640190fd5b818381614e0757fe5b049392505050565b6060614e1e8484600085614f68565b949350505050565b80471015614e7b576040805162461bcd60e51b815260206004820152601d60248201527f416464726573733a20696e73756666696369656e742062616c616e6365000000604482015290519081900360640190fd5b6040516000906001600160a01b0384169083908381818185875af1925050503d8060008114614ec6576040519150601f19603f3d011682016040523d82523d6000602084013e614ecb565b606091505b5050905080611e175760405162461bcd60e51b815260040180806020018281038252603a8152602001806151f3603a913960400191505060405180910390fd5b600082821115614f62576040805162461bcd60e51b815260206004820152601e60248201527f536166654d6174683a207375627472616374696f6e206f766572666c6f770000604482015290519081900360640190fd5b50900390565b606082471015614fa95760405162461bcd60e51b815260040180806020018281038252602681526020018061524f6026913960400191505060405180910390fd5b614fb285614d7e565b615003576040805162461bcd60e51b815260206004820152601d60248201527f416464726573733a2063616c6c20746f206e6f6e2d636f6e7472616374000000604482015290519081900360640190fd5b600080866001600160a01b031685876040518082805190602001908083835b602083106150415780518252601f199092019160209182019101615022565b6001836020036101000a03801982511681845116808217855250505050505090500191505060006040518083038185875af1925050503d80600081146150a3576040519150601f19603f3d011682016040523d82523d6000602084013e6150a8565b606091505b50915091506150b88282866150c3565b979650505050505050565b606083156150d25750816112d5565b8251156150e25782518084602001fd5b60405162461bcd60e51b8152602060048201818152845160248401528451859391928392604401919085019080838360008315612f3c578181015183820152602001612f24565b60006020828403121561513a578081fd5b81516001600160a01b03811681146112d5578182fd5b6001600160e01b03199190911681526020019056fe45524332303a207472616e7366657220746f20746865207a65726f206164647265737345524332303a206275726e20616d6f756e7420657863656564732062616c616e636545524332303a20617070726f766520746f20746865207a65726f206164647265737345524332303a207472616e7366657220616d6f756e7420657863656564732062616c616e6365416464726573733a20756e61626c6520746f2073656e642076616c75652c20726563697069656e74206d6179206861766520726576657274656445434453413a20696e76616c6964207369676e6174757265202773272076616c7565416464726573733a20696e73756666696369656e742062616c616e636520666f722063616c6c45434453413a20696e76616c6964207369676e6174757265202776272076616c756545524332303a207472616e7366657220616d6f756e74206578636565647320616c6c6f77616e636545524332303a206275726e2066726f6d20746865207a65726f206164647265737345524332303a207472616e736665722066726f6d20746865207a65726f206164647265737345524332303a20617070726f76652066726f6d20746865207a65726f20616464726573735361666545524332303a204552433230206f7065726174696f6e20646964206e6f7420737563636565645361666545524332303a20617070726f76652066726f6d206e6f6e2d7a65726f20746f206e6f6e2d7a65726f20616c6c6f77616e636545524332303a2064656372656173656420616c6c6f77616e63652062656c6f77207a65726fa2646970667358221220c6286ad69f30fe39ae1d2c9a0a33dcfc567823d83377c0737a83388291a63dc864736f6c63430007060033",
  "devdoc": {
    "kind": "dev",
    "methods": {
      "allowance(address,address)": {
        "details": "See {IERC20-allowance}."
      },
      "approve(address,uint256)": {
        "details": "See {IERC20-approve}. Requirements: - `spender` cannot be the zero address."
      },
      "balanceOf(address)": {
        "details": "See {IERC20-balanceOf}."
      },
      "claimAndStakeRewardsBySig(uint256,uint256,uint256,uint256,uint256,uint256,uint256,uint256,address,bytes)": {
        "details": "Should be called instead of the `claimAndStakeReturns` to save gas due to   getRewards caculated off-chain.   The Keeper fee is paid out of user's reserveAsset and it is calculated off-chain.",
        "params": {
          "_babl": "BABL rewards from mining program.",
          "_fee": "Actual fee keeper demands. Have to be less than _maxFee.",
          "_maxFee": "Max fee user is willing to pay keeper. Fee is                         substracted from user wallet in reserveAsset. Fee is                         expressed in reserve asset.",
          "_minAmountOut": "Minimum hBABL as part of the Heart Garden BABL staking",
          "_nonce": "Current nonce of user in the claiming garden at to prevent replay attacks.",
          "_nonceHeart": "Current nonce of user in Heart Garden to prevent replay attacks.",
          "_pricePerShare": "Price per share of Heart Garden",
          "_profits": "Profit rewards in reserve asset.",
          "_signature": "Signature of signer",
          "_signer": "Signer of the tx"
        }
      },
      "claimRewardsBySig(uint256,uint256,uint256,uint256,uint256,address,bytes)": {
        "details": "Should be called instead of the `claimRewards at RD` to save gas due to   getRewards caculated off-chain.   The Keeper fee is paid out of user's reserveAsset and it is calculated off-chain.",
        "params": {
          "_babl": "BABL rewards from mining program.",
          "_fee": "Actual fee keeper demands. Have to be less than _maxFee.",
          "_maxFee": "Max fee user is willing to pay keeper. Fee is                         substracted from user wallet in reserveAsset. Fee is                         expressed in reserve asset.",
          "_nonce": "Current nonce to prevent replay attacks.",
          "_profits": "Profit rewards in reserve asset.",
          "_signature": "Signature by the user to verify claim parmas.",
          "_signer": "The user to who signed the signature"
        }
      },
      "decimals()": {
        "details": "Returns the number of decimals used to get its user representation. For example, if `decimals` equals `2`, a balance of `505` tokens should be displayed to a user as `5,05` (`505 / 10 ** 2`). Tokens usually opt for a value of 18, imitating the relationship between Ether and Wei. This is the value {ERC20} uses, unless {_setupDecimals} is called. NOTE: This information is only used for _display_ purposes: it in no way affects any of the arithmetic of the contract, including {IERC20-balanceOf} and {IERC20-transfer}."
      },
      "decreaseAllowance(address,uint256)": {
        "details": "Atomically decreases the allowance granted to `spender` by the caller. This is an alternative to {approve} that can be used as a mitigation for problems described in {IERC20-approve}. Emits an {Approval} event indicating the updated allowance. Requirements: - `spender` cannot be the zero address. - `spender` must have allowance for the caller of at least `subtractedValue`."
      },
      "deposit(uint256,uint256,address,address)": {
        "details": "WARN: If the reserve asset is different than ETH the sender needs to   have approved the garden.   Efficient to use of strategies.length == 0, otherwise can consume a lot   of gas ~2kk. Use `depositBySig` for gas efficiency.",
        "params": {
          "_amountIn": "Amount of the reserve asset that is received from contributor",
          "_minAmountOut": "Min amount of Garden shares to receive by contributor",
          "_referrer": "The user that referred the deposit",
          "_to": "Address to mint Garden shares to"
        }
      },
      "depositBySig(uint256,uint256,uint256,uint256,address,uint256,uint256,address,address,bytes)": {
        "params": {
          "_amountIn": "Amount of the reserve asset that is received from contributor.",
          "_fee": "Actual fee keeper demands. Have to be less than _maxFee.",
          "_maxFee": "Max fee user is willing to pay keeper. Fee is                                substracted from the withdrawn amount. Fee is                                expressed in reserve asset.",
          "_minAmountOut": "Min amount of Garden shares to receive by contributor.",
          "_nonce": "Current nonce to prevent replay attacks.",
          "_pricePerShare": "Price per share of the garden calculated off-chain by Keeper.",
          "_referrer": "The user that referred the deposit",
          "_signature": "Signature by the user to verify deposit parmas.",
          "_signer": "The user to who signed the signature.",
          "_to": "Address to mint shares to."
        }
      },
      "getFinalizedStrategies()": {
        "returns": {
          "_0": "address[]        Returns list of addresses"
        }
      },
      "getStrategies()": {
        "returns": {
          "_0": "address[]        Returns list of addresses"
        }
      },
      "increaseAllowance(address,uint256)": {
        "details": "Atomically increases the allowance granted to `spender` by the caller. This is an alternative to {approve} that can be used as a mitigation for problems described in {IERC20-approve}. Emits an {Approval} event indicating the updated allowance. Requirements: - `spender` cannot be the zero address."
      },
      "name()": {
        "details": "Returns the name of the token."
      },
      "stakeBySig(uint256,uint256,uint256,uint256,uint256,uint256,address,uint256,address,bytes)": {
        "params": {
          "_amountIn": "Amount of the reserve asset that is received from contributor.",
          "_maxFee": "Max fee user is willing to pay keeper. Fee is                                substracted from the withdrawn amount. Fee is                                expressed in reserve asset.",
          "_minAmountOut": "Min amount of Garden shares to receive by contributor.",
          "_nonce": "Current nonce to prevent replay attacks.",
          "_nonceHeart": "Current nonce to prevent replay attacks.",
          "_pricePerShare": "Price per share of the garden calculated off-chain by Keeper.",
          "_profits": "Amount of the reserve asset that is received from contributor.",
          "_signature": "Signature by the user to verify deposit params.",
          "_signer": "The user to who signed the signature.",
          "_to": "Address to mint shares to."
        }
      },
      "symbol()": {
        "details": "Returns the symbol of the token, usually a shorter version of the name."
      },
      "totalSupply()": {
        "details": "See {IERC20-totalSupply}."
      },
      "transfer(address,uint256)": {
        "details": "See {IERC20-transfer}. Requirements: - `recipient` cannot be the zero address. - the caller must have a balance of at least `amount`."
      },
      "transferFrom(address,address,uint256)": {
        "details": "See {IERC20-transferFrom}. Emits an {Approval} event indicating the updated allowance. This is not required by the EIP. See the note at the beginning of {ERC20}. Requirements: - `sender` and `recipient` cannot be the zero address. - `sender` must have a balance of at least `amount`. - the caller must have allowance for ``sender``'s tokens of at least `amount`."
      },
      "withdraw(uint256,uint256,address,bool,address)": {
        "details": "ATTENTION. Do not call withPenalty unless certain. If penalty is set,   it will be applied regardless of the garden state.   It is advised to first try to withdraw with no penalty and it this   reverts then try to with penalty.",
        "params": {
          "_amountIn": "Quantity of the garden token to withdrawal",
          "_minAmountOut": "Min quantity of reserve asset to receive",
          "_to": "Address to send component assets to",
          "_unwindStrategy": "Strategy to unwind",
          "_withPenalty": "Whether or not this is an immediate withdrawal"
        }
      },
      "withdrawBySig(uint256,uint256,uint256,uint256,bool,address,uint256,uint256,uint256,address,bytes)": {
        "details": "Should be called instead of the `withdraw` to save gas due to   pricePerShare caculated off-chain. Doesn't allow to unwind strategies   contrary to `withdraw`.   The Keeper fee is paid out of user's shares.   The true _minAmountOut is actually _minAmountOut - _maxFee due to the   Keeper fee.",
        "params": {
          "_amountIn": "Quantity of the garden tokens to withdraw.",
          "_fee": "Actual fee keeper demands. Have to be less than _maxFee.",
          "_maxFee": "Max fee user is willing to pay keeper. Fee is                         substracted from the withdrawn amount. Fee is                         expressed in reserve asset.",
          "_minAmountOut": "Min quantity of reserve asset to receive.",
          "_nonce": "Current nonce to prevent replay attacks.",
          "_pricePerShare": "Price per share of the garden calculated off-chain by Keeper.",
          "_signature": "Signature by the user to verify withdraw parmas.",
          "_signer": "The user to who signed the signature",
          "_strategyNAV": "NAV of the strategy to unwind.",
          "_unwindStrategy": "Strategy to unwind",
          "_withPenalty": "Whether or not this is an immediate withdrawal"
        }
      }
    },
    "version": 1
  },
  "userdoc": {
    "kind": "user",
    "methods": {
      "claimAndStakeReturns(uint256,address[])": {
        "notice": "User can claim the rewards from the strategies that his principal was invested in and stake BABL into Heart Garden"
      },
      "claimAndStakeRewardsBySig(uint256,uint256,uint256,uint256,uint256,uint256,uint256,uint256,address,bytes)": {
        "notice": "This method allows users   to stake their BABL rewards and claim their profit rewards."
      },
      "claimNFT()": {
        "notice": "Allows Garden contributors to claim an NFT."
      },
      "claimReturns(address[])": {
        "notice": "User can claim the rewards from the strategies that his principal was invested in."
      },
      "claimRewardsBySig(uint256,uint256,uint256,uint256,uint256,address,bytes)": {
        "notice": "This method allows users   to claim their rewards either profits or BABL."
      },
      "deposit(uint256,uint256,address,address)": {
        "notice": "Deposits the _amountIn in reserve asset into the garden. Gurantee to   recieve at least _minAmountOut."
      },
      "depositBySig(uint256,uint256,uint256,uint256,address,uint256,uint256,address,address,bytes)": {
        "notice": "Deposits the _amountIn in reserve asset into the garden. Gurantee to   recieve at least _minAmountOut."
      },
      "getFinalizedStrategies()": {
        "notice": "Gets finalized strategies"
      },
      "getStrategies()": {
        "notice": "Gets current strategies"
      },
      "isValidSignature(bytes32,bytes)": {
        "notice": "Implements EIP-1271"
      },
      "stakeBySig(uint256,uint256,uint256,uint256,uint256,uint256,address,uint256,address,bytes)": {
        "notice": "Deposits the _amountIn in reserve asset into the garden. Guarantee to   receive at least _minAmountOut."
      },
      "withdraw(uint256,uint256,address,bool,address)": {
        "notice": "Withdraws the reserve asset relative to the token participation in the garden   and sends it back to the sender."
      },
      "withdrawBySig(uint256,uint256,uint256,uint256,bool,address,uint256,uint256,uint256,address,bytes)": {
        "notice": "Exchanges user's gardens shairs for amount in reserve asset. This   method allows users to leave garden and reclaim their inital investment   plus profits or losses."
      }
    },
    "version": 1
  },
  "storageLayout": {
    "storage": [
      {
        "astId": 492,
        "contract": "contracts/gardens/Garden.sol:GardenV20",
        "label": "_initialized",
        "offset": 0,
        "slot": "0",
        "type": "t_bool"
      },
      {
        "astId": 495,
        "contract": "contracts/gardens/Garden.sol:GardenV20",
        "label": "_initializing",
        "offset": 1,
        "slot": "0",
        "type": "t_bool"
      },
      {
        "astId": 1447,
        "contract": "contracts/gardens/Garden.sol:GardenV20",
        "label": "__gap",
        "offset": 0,
        "slot": "1",
        "type": "t_array(t_uint256)50_storage"
      },
      {
        "astId": 571,
        "contract": "contracts/gardens/Garden.sol:GardenV20",
        "label": "_balances",
        "offset": 0,
        "slot": "51",
        "type": "t_mapping(t_address,t_uint256)"
      },
      {
        "astId": 577,
        "contract": "contracts/gardens/Garden.sol:GardenV20",
        "label": "_allowances",
        "offset": 0,
        "slot": "52",
        "type": "t_mapping(t_address,t_mapping(t_address,t_uint256))"
      },
      {
        "astId": 579,
        "contract": "contracts/gardens/Garden.sol:GardenV20",
        "label": "_totalSupply",
        "offset": 0,
        "slot": "53",
        "type": "t_uint256"
      },
      {
        "astId": 581,
        "contract": "contracts/gardens/Garden.sol:GardenV20",
        "label": "_name",
        "offset": 0,
        "slot": "54",
        "type": "t_string_storage"
      },
      {
        "astId": 583,
        "contract": "contracts/gardens/Garden.sol:GardenV20",
        "label": "_symbol",
        "offset": 0,
        "slot": "55",
        "type": "t_string_storage"
      },
      {
        "astId": 585,
        "contract": "contracts/gardens/Garden.sol:GardenV20",
        "label": "_decimals",
        "offset": 0,
        "slot": "56",
        "type": "t_uint8"
      },
      {
        "astId": 1080,
        "contract": "contracts/gardens/Garden.sol:GardenV20",
        "label": "__gap",
        "offset": 0,
        "slot": "57",
        "type": "t_array(t_uint256)44_storage"
      },
      {
        "astId": 6418,
        "contract": "contracts/gardens/Garden.sol:GardenV20",
        "label": "_status",
        "offset": 0,
        "slot": "101",
        "type": "t_uint256"
      },
      {
        "astId": 23246,
        "contract": "contracts/gardens/Garden.sol:GardenV20",
        "label": "reserveAsset",
        "offset": 0,
        "slot": "102",
        "type": "t_address"
      },
      {
        "astId": 23249,
        "contract": "contracts/gardens/Garden.sol:GardenV20",
        "label": "controller",
        "offset": 0,
        "slot": "103",
        "type": "t_contract(IBabController)42452"
      },
      {
        "astId": 23251,
        "contract": "contracts/gardens/Garden.sol:GardenV20",
        "label": "rewardsDistributor",
        "offset": 0,
        "slot": "104",
        "type": "t_contract(IRewardsDistributor)44454"
      },
      {
        "astId": 23254,
        "contract": "contracts/gardens/Garden.sol:GardenV20",
        "label": "creator",
        "offset": 0,
        "slot": "105",
        "type": "t_address"
      },
      {
        "astId": 23256,
        "contract": "contracts/gardens/Garden.sol:GardenV20",
        "label": "active",
        "offset": 20,
        "slot": "105",
        "type": "t_bool"
      },
      {
        "astId": 23259,
        "contract": "contracts/gardens/Garden.sol:GardenV20",
        "label": "privateGarden",
        "offset": 21,
        "slot": "105",
        "type": "t_bool"
      },
      {
        "astId": 23261,
        "contract": "contracts/gardens/Garden.sol:GardenV20",
        "label": "principal",
        "offset": 0,
        "slot": "106",
        "type": "t_uint256"
      },
      {
        "astId": 23264,
        "contract": "contracts/gardens/Garden.sol:GardenV20",
        "label": "reserveAssetRewardsSetAside",
        "offset": 0,
        "slot": "107",
        "type": "t_uint256"
      },
      {
        "astId": 23266,
        "contract": "contracts/gardens/Garden.sol:GardenV20",
        "label": "reserveAssetPrincipalWindow",
        "offset": 0,
        "slot": "108",
        "type": "t_uint256"
      },
      {
        "astId": 23269,
        "contract": "contracts/gardens/Garden.sol:GardenV20",
        "label": "absoluteReturns",
        "offset": 0,
        "slot": "109",
        "type": "t_int256"
      },
      {
        "astId": 23272,
        "contract": "contracts/gardens/Garden.sol:GardenV20",
        "label": "minLiquidityAsset",
        "offset": 0,
        "slot": "110",
        "type": "t_uint256"
      },
      {
        "astId": 23275,
        "contract": "contracts/gardens/Garden.sol:GardenV20",
        "label": "depositHardlock",
        "offset": 0,
        "slot": "111",
        "type": "t_uint256"
      },
      {
        "astId": 23277,
        "contract": "contracts/gardens/Garden.sol:GardenV20",
        "label": "withdrawalsOpenUntil",
        "offset": 0,
        "slot": "112",
        "type": "t_uint256"
      },
      {
        "astId": 23281,
        "contract": "contracts/gardens/Garden.sol:GardenV20",
        "label": "contributors",
        "offset": 0,
        "slot": "113",
        "type": "t_mapping(t_address,t_struct(Contributor)43265_storage)"
      },
      {
        "astId": 23284,
        "contract": "contracts/gardens/Garden.sol:GardenV20",
        "label": "totalContributors",
        "offset": 0,
        "slot": "114",
        "type": "t_uint256"
      },
      {
        "astId": 23286,
        "contract": "contracts/gardens/Garden.sol:GardenV20",
        "label": "maxContributors",
        "offset": 0,
        "slot": "115",
        "type": "t_uint256"
      },
      {
        "astId": 23289,
        "contract": "contracts/gardens/Garden.sol:GardenV20",
        "label": "maxDepositLimit",
        "offset": 0,
        "slot": "116",
        "type": "t_uint256"
      },
      {
        "astId": 23292,
        "contract": "contracts/gardens/Garden.sol:GardenV20",
        "label": "gardenInitializedAt",
        "offset": 0,
        "slot": "117",
        "type": "t_uint256"
      },
      {
        "astId": 23294,
        "contract": "contracts/gardens/Garden.sol:GardenV20",
        "label": "pid",
        "offset": 0,
        "slot": "118",
        "type": "t_uint256"
      },
      {
        "astId": 23297,
        "contract": "contracts/gardens/Garden.sol:GardenV20",
        "label": "minContribution",
        "offset": 0,
        "slot": "119",
        "type": "t_uint256"
      },
      {
        "astId": 23299,
        "contract": "contracts/gardens/Garden.sol:GardenV20",
        "label": "minGardenTokenSupply",
        "offset": 0,
        "slot": "120",
        "type": "t_uint256"
      },
      {
        "astId": 23302,
        "contract": "contracts/gardens/Garden.sol:GardenV20",
        "label": "totalStake",
        "offset": 0,
        "slot": "121",
        "type": "t_uint256"
      },
      {
        "astId": 23305,
        "contract": "contracts/gardens/Garden.sol:GardenV20",
        "label": "minVotesQuorum",
        "offset": 0,
        "slot": "122",
        "type": "t_uint256"
      },
      {
        "astId": 23308,
        "contract": "contracts/gardens/Garden.sol:GardenV20",
        "label": "minVoters",
        "offset": 0,
        "slot": "123",
        "type": "t_uint256"
      },
      {
        "astId": 23311,
        "contract": "contracts/gardens/Garden.sol:GardenV20",
        "label": "minStrategyDuration",
        "offset": 0,
        "slot": "124",
        "type": "t_uint256"
      },
      {
        "astId": 23314,
        "contract": "contracts/gardens/Garden.sol:GardenV20",
        "label": "maxStrategyDuration",
        "offset": 0,
        "slot": "125",
        "type": "t_uint256"
      },
      {
        "astId": 23317,
        "contract": "contracts/gardens/Garden.sol:GardenV20",
        "label": "strategyCooldownPeriod",
        "offset": 0,
        "slot": "126",
        "type": "t_uint256"
      },
      {
        "astId": 23320,
        "contract": "contracts/gardens/Garden.sol:GardenV20",
        "label": "strategies",
        "offset": 0,
        "slot": "127",
        "type": "t_array(t_address)dyn_storage"
      },
      {
        "astId": 23323,
        "contract": "contracts/gardens/Garden.sol:GardenV20",
        "label": "finalizedStrategies",
        "offset": 0,
        "slot": "128",
        "type": "t_array(t_address)dyn_storage"
      },
      {
        "astId": 23328,
        "contract": "contracts/gardens/Garden.sol:GardenV20",
        "label": "strategyMapping",
        "offset": 0,
        "slot": "129",
        "type": "t_mapping(t_address,t_bool)"
      },
      {
        "astId": 23333,
        "contract": "contracts/gardens/Garden.sol:GardenV20",
        "label": "isGardenStrategy",
        "offset": 0,
        "slot": "130",
        "type": "t_mapping(t_address,t_bool)"
      },
      {
        "astId": 23336,
        "contract": "contracts/gardens/Garden.sol:GardenV20",
        "label": "keeperDebt",
        "offset": 0,
        "slot": "131",
        "type": "t_uint256"
      },
      {
        "astId": 23339,
        "contract": "contracts/gardens/Garden.sol:GardenV20",
        "label": "totalKeeperFees",
        "offset": 0,
        "slot": "132",
        "type": "t_uint256"
      },
      {
        "astId": 23342,
        "contract": "contracts/gardens/Garden.sol:GardenV20",
        "label": "publicStrategists",
        "offset": 0,
        "slot": "133",
        "type": "t_bool"
      },
      {
        "astId": 23345,
        "contract": "contracts/gardens/Garden.sol:GardenV20",
        "label": "publicStewards",
        "offset": 1,
        "slot": "133",
        "type": "t_bool"
      },
      {
        "astId": 23350,
        "contract": "contracts/gardens/Garden.sol:GardenV20",
        "label": "extraCreators",
        "offset": 0,
        "slot": "134",
        "type": "t_array(t_address)4_storage"
      },
      {
        "astId": 23353,
        "contract": "contracts/gardens/Garden.sol:GardenV20",
        "label": "lastPricePerShare",
        "offset": 0,
        "slot": "138",
        "type": "t_uint256"
      },
      {
        "astId": 23356,
        "contract": "contracts/gardens/Garden.sol:GardenV20",
        "label": "lastPricePerShareTS",
        "offset": 0,
        "slot": "139",
        "type": "t_uint256"
      },
      {
        "astId": 23359,
        "contract": "contracts/gardens/Garden.sol:GardenV20",
        "label": "pricePerShareDecayRate",
        "offset": 0,
        "slot": "140",
        "type": "t_uint256"
      },
      {
        "astId": 23362,
        "contract": "contracts/gardens/Garden.sol:GardenV20",
        "label": "pricePerShareDelta",
        "offset": 0,
        "slot": "141",
        "type": "t_uint256"
      },
      {
        "astId": 23365,
        "contract": "contracts/gardens/Garden.sol:GardenV20",
        "label": "verifiedCategory",
        "offset": 0,
        "slot": "142",
        "type": "t_uint256"
      },
      {
        "astId": 23368,
        "contract": "contracts/gardens/Garden.sol:GardenV20",
        "label": "hardlockStartsAt",
        "offset": 0,
        "slot": "143",
        "type": "t_uint256"
      },
      {
        "astId": 23370,
        "contract": "contracts/gardens/Garden.sol:GardenV20",
        "label": "signer",
        "offset": 0,
        "slot": "144",
        "type": "t_address"
      },
      {
        "astId": 23373,
        "contract": "contracts/gardens/Garden.sol:GardenV20",
        "label": "canMintNftAfter",
        "offset": 0,
        "slot": "145",
        "type": "t_uint256"
      }
    ],
    "types": {
      "t_address": {
        "encoding": "inplace",
        "label": "address",
        "numberOfBytes": "20"
      },
      "t_array(t_address)4_storage": {
        "base": "t_address",
        "encoding": "inplace",
        "label": "address[4]",
        "numberOfBytes": "128"
      },
      "t_array(t_address)dyn_storage": {
        "base": "t_address",
        "encoding": "dynamic_array",
        "label": "address[]",
        "numberOfBytes": "32"
      },
      "t_array(t_uint256)44_storage": {
        "base": "t_uint256",
        "encoding": "inplace",
        "label": "uint256[44]",
        "numberOfBytes": "1408"
      },
      "t_array(t_uint256)50_storage": {
        "base": "t_uint256",
        "encoding": "inplace",
        "label": "uint256[50]",
        "numberOfBytes": "1600"
      },
      "t_bool": {
        "encoding": "inplace",
        "label": "bool",
        "numberOfBytes": "1"
      },
      "t_contract(IBabController)42452": {
        "encoding": "inplace",
        "label": "contract IBabController",
        "numberOfBytes": "20"
      },
      "t_contract(IRewardsDistributor)44454": {
        "encoding": "inplace",
        "label": "contract IRewardsDistributor",
        "numberOfBytes": "20"
      },
      "t_int256": {
        "encoding": "inplace",
        "label": "int256",
        "numberOfBytes": "32"
      },
      "t_mapping(t_address,t_bool)": {
        "encoding": "mapping",
        "key": "t_address",
        "label": "mapping(address => bool)",
        "numberOfBytes": "32",
        "value": "t_bool"
      },
      "t_mapping(t_address,t_mapping(t_address,t_uint256))": {
        "encoding": "mapping",
        "key": "t_address",
        "label": "mapping(address => mapping(address => uint256))",
        "numberOfBytes": "32",
        "value": "t_mapping(t_address,t_uint256)"
      },
      "t_mapping(t_address,t_struct(Contributor)43265_storage)": {
        "encoding": "mapping",
        "key": "t_address",
        "label": "mapping(address => struct IGarden.Contributor)",
        "numberOfBytes": "32",
        "value": "t_struct(Contributor)43265_storage"
      },
      "t_mapping(t_address,t_uint256)": {
        "encoding": "mapping",
        "key": "t_address",
        "label": "mapping(address => uint256)",
        "numberOfBytes": "32",
        "value": "t_uint256"
      },
      "t_string_storage": {
        "encoding": "bytes",
        "label": "string",
        "numberOfBytes": "32"
      },
      "t_struct(Contributor)43265_storage": {
        "encoding": "inplace",
        "label": "struct IGarden.Contributor",
        "members": [
          {
            "astId": 43248,
            "contract": "contracts/gardens/Garden.sol:GardenV20",
            "label": "lastDepositAt",
            "offset": 0,
            "slot": "0",
            "type": "t_uint256"
          },
          {
            "astId": 43250,
            "contract": "contracts/gardens/Garden.sol:GardenV20",
            "label": "initialDepositAt",
            "offset": 0,
            "slot": "1",
            "type": "t_uint256"
          },
          {
            "astId": 43252,
            "contract": "contracts/gardens/Garden.sol:GardenV20",
            "label": "claimedAt",
            "offset": 0,
            "slot": "2",
            "type": "t_uint256"
          },
          {
            "astId": 43254,
            "contract": "contracts/gardens/Garden.sol:GardenV20",
            "label": "claimedBABL",
            "offset": 0,
            "slot": "3",
            "type": "t_uint256"
          },
          {
            "astId": 43256,
            "contract": "contracts/gardens/Garden.sol:GardenV20",
            "label": "claimedRewards",
            "offset": 0,
            "slot": "4",
            "type": "t_uint256"
          },
          {
            "astId": 43258,
            "contract": "contracts/gardens/Garden.sol:GardenV20",
            "label": "withdrawnSince",
            "offset": 0,
            "slot": "5",
            "type": "t_uint256"
          },
          {
            "astId": 43260,
            "contract": "contracts/gardens/Garden.sol:GardenV20",
            "label": "totalDeposits",
            "offset": 0,
            "slot": "6",
            "type": "t_uint256"
          },
          {
            "astId": 43262,
            "contract": "contracts/gardens/Garden.sol:GardenV20",
            "label": "nonce",
            "offset": 0,
            "slot": "7",
            "type": "t_uint256"
          },
          {
            "astId": 43264,
            "contract": "contracts/gardens/Garden.sol:GardenV20",
            "label": "lockedBalance",
            "offset": 0,
            "slot": "8",
            "type": "t_uint256"
          }
        ],
        "numberOfBytes": "288"
      },
      "t_uint256": {
        "encoding": "inplace",
        "label": "uint256",
        "numberOfBytes": "32"
      },
      "t_uint8": {
        "encoding": "inplace",
        "label": "uint8",
        "numberOfBytes": "1"
      }
    }
  }
}