{
  "address": "0x84b3fA1B3037D8Ee7B6FC51D9e02C834c8eb202e",
  "abi": [
    {
      "anonymous": false,
      "inputs": [
        {
          "indexed": true,
          "internalType": "address",
          "name": "_strategy",
          "type": "address"
        },
        {
          "indexed": false,
          "internalType": "string",
          "name": "_name",
          "type": "string"
        },
        {
          "indexed": false,
          "internalType": "uint256",
          "name": "_expectedReturn",
          "type": "uint256"
        }
      ],
      "name": "AddStrategy",
      "type": "event"
    },
    {
      "anonymous": false,
      "inputs": [
        {
          "indexed": true,
          "internalType": "address",
          "name": "owner",
          "type": "address"
        },
        {
          "indexed": true,
          "internalType": "address",
          "name": "spender",
          "type": "address"
        },
        {
          "indexed": false,
          "internalType": "uint256",
          "name": "value",
          "type": "uint256"
        }
      ],
      "name": "Approval",
      "type": "event"
    },
    {
      "anonymous": false,
      "inputs": [
        {
          "indexed": true,
          "internalType": "address",
          "name": "_contributor",
          "type": "address"
        },
        {
          "indexed": false,
          "internalType": "uint256",
          "name": "_rewards",
          "type": "uint256"
        }
      ],
      "name": "BABLRewardsForContributor",
      "type": "event"
    },
    {
      "anonymous": false,
      "inputs": [
        {
          "indexed": true,
          "internalType": "address",
          "name": "_to",
          "type": "address"
        },
        {
          "indexed": false,
          "internalType": "uint256",
          "name": "reserveToken",
          "type": "uint256"
        },
        {
          "indexed": false,
          "internalType": "uint256",
          "name": "reserveTokenQuantity",
          "type": "uint256"
        },
        {
          "indexed": false,
          "internalType": "uint256",
          "name": "timestamp",
          "type": "uint256"
        }
      ],
      "name": "GardenDeposit",
      "type": "event"
    },
    {
      "anonymous": false,
      "inputs": [
        {
          "indexed": true,
          "internalType": "address",
          "name": "_from",
          "type": "address"
        },
        {
          "indexed": true,
          "internalType": "address",
          "name": "_to",
          "type": "address"
        },
        {
          "indexed": false,
          "internalType": "uint256",
          "name": "reserveToken",
          "type": "uint256"
        },
        {
          "indexed": false,
          "internalType": "uint256",
          "name": "reserveTokenQuantity",
          "type": "uint256"
        },
        {
          "indexed": false,
          "internalType": "uint256",
          "name": "timestamp",
          "type": "uint256"
        }
      ],
      "name": "GardenWithdrawal",
      "type": "event"
    },
    {
      "anonymous": false,
      "inputs": [
        {
          "indexed": true,
          "internalType": "address",
          "name": "_contributor",
          "type": "address"
        },
        {
          "indexed": true,
          "internalType": "uint256",
          "name": "_amount",
          "type": "uint256"
        }
      ],
      "name": "RewardsForContributor",
      "type": "event"
    },
    {
      "anonymous": false,
      "inputs": [
        {
          "indexed": true,
          "internalType": "address",
          "name": "from",
          "type": "address"
        },
        {
          "indexed": true,
          "internalType": "address",
          "name": "to",
          "type": "address"
        },
        {
          "indexed": false,
          "internalType": "uint256",
          "name": "value",
          "type": "uint256"
        }
      ],
      "name": "Transfer",
      "type": "event"
    },
    {
      "inputs": [],
      "name": "absoluteReturns",
      "outputs": [
        {
          "internalType": "int256",
          "name": "",
          "type": "int256"
        }
      ],
      "stateMutability": "view",
      "type": "function"
    },
    {
      "inputs": [
        {
          "internalType": "address[4]",
          "name": "_newCreators",
          "type": "address[4]"
        }
      ],
      "name": "addExtraCreators",
      "outputs": [],
      "stateMutability": "nonpayable",
      "type": "function"
    },
    {
      "inputs": [
        {
          "internalType": "string",
          "name": "_name",
          "type": "string"
        },
        {
          "internalType": "string",
          "name": "_symbol",
          "type": "string"
        },
        {
          "internalType": "uint256[]",
          "name": "_stratParams",
          "type": "uint256[]"
        },
        {
          "internalType": "uint8[]",
          "name": "_opTypes",
          "type": "uint8[]"
        },
        {
          "internalType": "address[]",
          "name": "_opIntegrations",
          "type": "address[]"
        },
        {
          "internalType": "bytes",
          "name": "_opEncodedDatas",
          "type": "bytes"
        }
      ],
      "name": "addStrategy",
      "outputs": [],
      "stateMutability": "nonpayable",
      "type": "function"
    },
    {
      "inputs": [
        {
          "internalType": "uint256",
          "name": "_capital",
          "type": "uint256"
        }
      ],
      "name": "allocateCapitalToStrategy",
      "outputs": [],
      "stateMutability": "nonpayable",
      "type": "function"
    },
    {
      "inputs": [
        {
          "internalType": "address",
          "name": "owner",
          "type": "address"
        },
        {
          "internalType": "address",
          "name": "spender",
          "type": "address"
        }
      ],
      "name": "allowance",
      "outputs": [
        {
          "internalType": "uint256",
          "name": "",
          "type": "uint256"
        }
      ],
      "stateMutability": "view",
      "type": "function"
    },
    {
      "inputs": [
        {
          "internalType": "address",
          "name": "spender",
          "type": "address"
        },
        {
          "internalType": "uint256",
          "name": "amount",
          "type": "uint256"
        }
      ],
      "name": "approve",
      "outputs": [
        {
          "internalType": "bool",
          "name": "",
          "type": "bool"
        }
      ],
      "stateMutability": "nonpayable",
      "type": "function"
    },
    {
      "inputs": [
        {
          "internalType": "address",
          "name": "account",
          "type": "address"
        }
      ],
      "name": "balanceOf",
      "outputs": [
        {
          "internalType": "uint256",
          "name": "",
          "type": "uint256"
        }
      ],
      "stateMutability": "view",
      "type": "function"
    },
    {
      "inputs": [
        {
          "internalType": "address[]",
          "name": "_finalizedStrategies",
          "type": "address[]"
        }
      ],
      "name": "claimReturns",
      "outputs": [],
      "stateMutability": "nonpayable",
      "type": "function"
    },
    {
      "inputs": [],
      "name": "controller",
      "outputs": [
        {
          "internalType": "address",
          "name": "",
          "type": "address"
        }
      ],
      "stateMutability": "view",
      "type": "function"
    },
    {
      "inputs": [],
      "name": "creator",
      "outputs": [
        {
          "internalType": "address",
          "name": "",
          "type": "address"
        }
      ],
      "stateMutability": "view",
      "type": "function"
    },
    {
      "inputs": [],
      "name": "decimals",
      "outputs": [
        {
          "internalType": "uint8",
          "name": "",
          "type": "uint8"
        }
      ],
      "stateMutability": "view",
      "type": "function"
    },
    {
      "inputs": [
        {
          "internalType": "address",
          "name": "spender",
          "type": "address"
        },
        {
          "internalType": "uint256",
          "name": "subtractedValue",
          "type": "uint256"
        }
      ],
      "name": "decreaseAllowance",
      "outputs": [
        {
          "internalType": "bool",
          "name": "",
          "type": "bool"
        }
      ],
      "stateMutability": "nonpayable",
      "type": "function"
    },
    {
      "inputs": [
        {
          "internalType": "uint256",
          "name": "_amountIn",
          "type": "uint256"
        },
        {
          "internalType": "uint256",
          "name": "_minAmountOut",
          "type": "uint256"
        },
        {
          "internalType": "address",
          "name": "_to",
          "type": "address"
        },
        {
          "internalType": "bool",
          "name": "_mintNft",
          "type": "bool"
        }
      ],
      "name": "deposit",
      "outputs": [],
      "stateMutability": "payable",
      "type": "function"
    },
    {
      "inputs": [
        {
          "internalType": "uint256",
          "name": "_amountIn",
          "type": "uint256"
        },
        {
          "internalType": "uint256",
          "name": "_minAmountOut",
          "type": "uint256"
        },
        {
          "internalType": "bool",
          "name": "_mintNft",
          "type": "bool"
        },
        {
          "internalType": "uint256",
          "name": "_nonce",
          "type": "uint256"
        },
        {
          "internalType": "uint256",
          "name": "_maxFee",
          "type": "uint256"
        },
        {
          "internalType": "uint256",
          "name": "_pricePerShare",
          "type": "uint256"
        },
        {
          "internalType": "uint256",
          "name": "_fee",
          "type": "uint256"
        },
        {
          "internalType": "uint8",
          "name": "v",
          "type": "uint8"
        },
        {
          "internalType": "bytes32",
          "name": "r",
          "type": "bytes32"
        },
        {
          "internalType": "bytes32",
          "name": "s",
          "type": "bytes32"
        }
      ],
      "name": "depositBySig",
      "outputs": [],
      "stateMutability": "nonpayable",
      "type": "function"
    },
    {
      "inputs": [],
      "name": "depositHardlock",
      "outputs": [
        {
          "internalType": "uint256",
          "name": "",
          "type": "uint256"
        }
      ],
      "stateMutability": "view",
      "type": "function"
    },
    {
      "inputs": [
        {
          "internalType": "address",
          "name": "_strategy",
          "type": "address"
        }
      ],
      "name": "expireCandidateStrategy",
      "outputs": [],
      "stateMutability": "nonpayable",
      "type": "function"
    },
    {
      "inputs": [
        {
          "internalType": "uint256",
          "name": "",
          "type": "uint256"
        }
      ],
      "name": "extraCreators",
      "outputs": [
        {
          "internalType": "address",
          "name": "",
          "type": "address"
        }
      ],
      "stateMutability": "view",
      "type": "function"
    },
    {
      "inputs": [
        {
          "internalType": "uint256",
          "name": "_rewards",
          "type": "uint256"
        },
        {
          "internalType": "int256",
          "name": "_returns",
          "type": "int256"
        },
        {
          "internalType": "uint256",
          "name": "_burningAmount",
          "type": "uint256"
        }
      ],
      "name": "finalizeStrategy",
      "outputs": [],
      "stateMutability": "nonpayable",
      "type": "function"
    },
    {
      "inputs": [],
      "name": "gardenInitializedAt",
      "outputs": [
        {
          "internalType": "uint256",
          "name": "",
          "type": "uint256"
        }
      ],
      "stateMutability": "view",
      "type": "function"
    },
    {
      "inputs": [
        {
          "internalType": "address",
          "name": "_contributor",
          "type": "address"
        }
      ],
      "name": "getContributor",
      "outputs": [
        {
          "internalType": "uint256",
          "name": "",
          "type": "uint256"
        },
        {
          "internalType": "uint256",
          "name": "",
          "type": "uint256"
        },
        {
          "internalType": "uint256",
          "name": "",
          "type": "uint256"
        },
        {
          "internalType": "uint256",
          "name": "",
          "type": "uint256"
        },
        {
          "internalType": "uint256",
          "name": "",
          "type": "uint256"
        },
        {
          "internalType": "uint256",
          "name": "",
          "type": "uint256"
        },
        {
          "internalType": "uint256",
          "name": "",
          "type": "uint256"
        },
        {
          "internalType": "uint256",
          "name": "",
          "type": "uint256"
        },
        {
          "internalType": "uint256",
          "name": "",
          "type": "uint256"
        },
        {
          "internalType": "uint256",
          "name": "",
          "type": "uint256"
        }
      ],
      "stateMutability": "view",
      "type": "function"
    },
    {
      "inputs": [],
      "name": "getFinalizedStrategies",
      "outputs": [
        {
          "internalType": "address[]",
          "name": "",
          "type": "address[]"
        }
      ],
      "stateMutability": "view",
      "type": "function"
    },
    {
      "inputs": [
        {
          "internalType": "address",
          "name": "_contributor",
          "type": "address"
        }
      ],
      "name": "getLockedBalance",
      "outputs": [
        {
          "internalType": "uint256",
          "name": "",
          "type": "uint256"
        }
      ],
      "stateMutability": "view",
      "type": "function"
    },
    {
      "inputs": [],
      "name": "getStrategies",
      "outputs": [
        {
          "internalType": "address[]",
          "name": "",
          "type": "address[]"
        }
      ],
      "stateMutability": "view",
      "type": "function"
    },
    {
      "inputs": [
        {
          "internalType": "address",
          "name": "spender",
          "type": "address"
        },
        {
          "internalType": "uint256",
          "name": "addedValue",
          "type": "uint256"
        }
      ],
      "name": "increaseAllowance",
      "outputs": [
        {
          "internalType": "bool",
          "name": "",
          "type": "bool"
        }
      ],
      "stateMutability": "nonpayable",
      "type": "function"
    },
    {
      "inputs": [
        {
          "internalType": "address",
          "name": "_reserveAsset",
          "type": "address"
        },
        {
          "internalType": "address",
          "name": "_controller",
          "type": "address"
        },
        {
          "internalType": "address",
          "name": "_creator",
          "type": "address"
        },
        {
          "internalType": "string",
          "name": "_name",
          "type": "string"
        },
        {
          "internalType": "string",
          "name": "_symbol",
          "type": "string"
        },
        {
          "internalType": "uint256[]",
          "name": "_gardenParams",
          "type": "uint256[]"
        },
        {
          "internalType": "uint256",
          "name": "_initialContribution",
          "type": "uint256"
        },
        {
          "internalType": "bool[]",
          "name": "_publicGardenStrategistsStewards",
          "type": "bool[]"
        }
      ],
      "name": "initialize",
      "outputs": [],
      "stateMutability": "payable",
      "type": "function"
    },
    {
      "inputs": [
        {
          "internalType": "address",
          "name": "",
          "type": "address"
        }
      ],
      "name": "isGardenStrategy",
      "outputs": [
        {
          "internalType": "bool",
          "name": "",
          "type": "bool"
        }
      ],
      "stateMutability": "view",
      "type": "function"
    },
    {
      "inputs": [],
      "name": "keeperDebt",
      "outputs": [
        {
          "internalType": "uint256",
          "name": "",
          "type": "uint256"
        }
      ],
      "stateMutability": "view",
      "type": "function"
    },
    {
      "inputs": [],
      "name": "makeGardenPublic",
      "outputs": [],
      "stateMutability": "nonpayable",
      "type": "function"
    },
    {
      "inputs": [],
      "name": "maxContributors",
      "outputs": [
        {
          "internalType": "uint256",
          "name": "",
          "type": "uint256"
        }
      ],
      "stateMutability": "view",
      "type": "function"
    },
    {
      "inputs": [],
      "name": "maxDepositLimit",
      "outputs": [
        {
          "internalType": "uint256",
          "name": "",
          "type": "uint256"
        }
      ],
      "stateMutability": "view",
      "type": "function"
    },
    {
      "inputs": [],
      "name": "maxStrategyDuration",
      "outputs": [
        {
          "internalType": "uint256",
          "name": "",
          "type": "uint256"
        }
      ],
      "stateMutability": "view",
      "type": "function"
    },
    {
      "inputs": [],
      "name": "minContribution",
      "outputs": [
        {
          "internalType": "uint256",
          "name": "",
          "type": "uint256"
        }
      ],
      "stateMutability": "view",
      "type": "function"
    },
    {
      "inputs": [],
      "name": "minLiquidityAsset",
      "outputs": [
        {
          "internalType": "uint256",
          "name": "",
          "type": "uint256"
        }
      ],
      "stateMutability": "view",
      "type": "function"
    },
    {
      "inputs": [],
      "name": "minStrategyDuration",
      "outputs": [
        {
          "internalType": "uint256",
          "name": "",
          "type": "uint256"
        }
      ],
      "stateMutability": "view",
      "type": "function"
    },
    {
      "inputs": [],
      "name": "minVoters",
      "outputs": [
        {
          "internalType": "uint256",
          "name": "",
          "type": "uint256"
        }
      ],
      "stateMutability": "view",
      "type": "function"
    },
    {
      "inputs": [],
      "name": "minVotesQuorum",
      "outputs": [
        {
          "internalType": "uint256",
          "name": "",
          "type": "uint256"
        }
      ],
      "stateMutability": "view",
      "type": "function"
    },
    {
      "inputs": [],
      "name": "name",
      "outputs": [
        {
          "internalType": "string",
          "name": "",
          "type": "string"
        }
      ],
      "stateMutability": "view",
      "type": "function"
    },
    {
      "inputs": [
        {
          "internalType": "address payable",
          "name": "_keeper",
          "type": "address"
        },
        {
          "internalType": "uint256",
          "name": "_fee",
          "type": "uint256"
        }
      ],
      "name": "payKeeper",
      "outputs": [],
      "stateMutability": "nonpayable",
      "type": "function"
    },
    {
      "inputs": [],
      "name": "privateGarden",
      "outputs": [
        {
          "internalType": "bool",
          "name": "",
          "type": "bool"
        }
      ],
      "stateMutability": "view",
      "type": "function"
    },
    {
      "inputs": [],
      "name": "publicStewards",
      "outputs": [
        {
          "internalType": "bool",
          "name": "",
          "type": "bool"
        }
      ],
      "stateMutability": "view",
      "type": "function"
    },
    {
      "inputs": [],
      "name": "publicStrategists",
      "outputs": [
        {
          "internalType": "bool",
          "name": "",
          "type": "bool"
        }
      ],
      "stateMutability": "view",
      "type": "function"
    },
    {
      "inputs": [],
      "name": "reserveAsset",
      "outputs": [
        {
          "internalType": "address",
          "name": "",
          "type": "address"
        }
      ],
      "stateMutability": "view",
      "type": "function"
    },
    {
      "inputs": [],
      "name": "reserveAssetRewardsSetAside",
      "outputs": [
        {
          "internalType": "uint256",
          "name": "",
          "type": "uint256"
        }
      ],
      "stateMutability": "view",
      "type": "function"
    },
    {
      "inputs": [
        {
          "internalType": "bool",
          "name": "_publicStrategists",
          "type": "bool"
        },
        {
          "internalType": "bool",
          "name": "_publicStewards",
          "type": "bool"
        }
      ],
      "name": "setPublicRights",
      "outputs": [],
      "stateMutability": "nonpayable",
      "type": "function"
    },
    {
      "inputs": [],
      "name": "strategyCooldownPeriod",
      "outputs": [
        {
          "internalType": "uint256",
          "name": "",
          "type": "uint256"
        }
      ],
      "stateMutability": "view",
      "type": "function"
    },
    {
      "inputs": [
        {
          "internalType": "address",
          "name": "",
          "type": "address"
        }
      ],
      "name": "strategyMapping",
      "outputs": [
        {
          "internalType": "bool",
          "name": "",
          "type": "bool"
        }
      ],
      "stateMutability": "view",
      "type": "function"
    },
    {
      "inputs": [],
      "name": "symbol",
      "outputs": [
        {
          "internalType": "string",
          "name": "",
          "type": "string"
        }
      ],
      "stateMutability": "view",
      "type": "function"
    },
    {
      "inputs": [],
      "name": "totalContributors",
      "outputs": [
        {
          "internalType": "uint256",
          "name": "",
          "type": "uint256"
        }
      ],
      "stateMutability": "view",
      "type": "function"
    },
    {
      "inputs": [],
      "name": "totalKeeperFees",
      "outputs": [
        {
          "internalType": "uint256",
          "name": "",
          "type": "uint256"
        }
      ],
      "stateMutability": "view",
      "type": "function"
    },
    {
      "inputs": [],
      "name": "totalStake",
      "outputs": [
        {
          "internalType": "uint256",
          "name": "",
          "type": "uint256"
        }
      ],
      "stateMutability": "view",
      "type": "function"
    },
    {
      "inputs": [],
      "name": "totalSupply",
      "outputs": [
        {
          "internalType": "uint256",
          "name": "",
          "type": "uint256"
        }
      ],
      "stateMutability": "view",
      "type": "function"
    },
    {
      "inputs": [
        {
          "internalType": "address",
          "name": "recipient",
          "type": "address"
        },
        {
          "internalType": "uint256",
          "name": "amount",
          "type": "uint256"
        }
      ],
      "name": "transfer",
      "outputs": [
        {
          "internalType": "bool",
          "name": "",
          "type": "bool"
        }
      ],
      "stateMutability": "nonpayable",
      "type": "function"
    },
    {
      "inputs": [
        {
          "internalType": "address",
          "name": "_newCreator",
          "type": "address"
        },
        {
          "internalType": "uint8",
          "name": "_index",
          "type": "uint8"
        }
      ],
      "name": "transferCreatorRights",
      "outputs": [],
      "stateMutability": "nonpayable",
      "type": "function"
    },
    {
      "inputs": [
        {
          "internalType": "address",
          "name": "sender",
          "type": "address"
        },
        {
          "internalType": "address",
          "name": "recipient",
          "type": "address"
        },
        {
          "internalType": "uint256",
          "name": "amount",
          "type": "uint256"
        }
      ],
      "name": "transferFrom",
      "outputs": [
        {
          "internalType": "bool",
          "name": "",
          "type": "bool"
        }
      ],
      "stateMutability": "nonpayable",
      "type": "function"
    },
    {
      "inputs": [
        {
          "internalType": "uint256",
          "name": "_amountIn",
          "type": "uint256"
        },
        {
          "internalType": "uint256",
          "name": "_minAmountOut",
          "type": "uint256"
        },
        {
          "internalType": "address payable",
          "name": "_to",
          "type": "address"
        },
        {
          "internalType": "bool",
          "name": "_withPenalty",
          "type": "bool"
        },
        {
          "internalType": "address",
          "name": "_unwindStrategy",
          "type": "address"
        }
      ],
      "name": "withdraw",
      "outputs": [],
      "stateMutability": "nonpayable",
      "type": "function"
    },
    {
      "inputs": [
        {
          "internalType": "uint256",
          "name": "_amountIn",
          "type": "uint256"
        },
        {
          "internalType": "uint256",
          "name": "_minAmountOut",
          "type": "uint256"
        },
        {
          "internalType": "uint256",
          "name": "_nonce",
          "type": "uint256"
        },
        {
          "internalType": "uint256",
          "name": "_maxFee",
          "type": "uint256"
        },
        {
          "internalType": "uint256",
          "name": "_pricePerShare",
          "type": "uint256"
        },
        {
          "internalType": "uint256",
          "name": "_fee",
          "type": "uint256"
        },
        {
          "internalType": "uint8",
          "name": "v",
          "type": "uint8"
        },
        {
          "internalType": "bytes32",
          "name": "r",
          "type": "bytes32"
        },
        {
          "internalType": "bytes32",
          "name": "s",
          "type": "bytes32"
        }
      ],
      "name": "withdrawBySig",
      "outputs": [],
      "stateMutability": "nonpayable",
      "type": "function"
    },
    {
      "stateMutability": "payable",
      "type": "receive"
    }
  ],
  "transactionHash": "0xe4877f492182401020d4de66db461e8411a9a046a7e0acc60d1a39679886dbc2",
  "args": [],
  "solcInputHash": "6d8137975adebc2fc00993a19712e240",
  "bytecode": "0x608060405267016345785d8a0000607a5534801561001c57600080fd5b506001606555615fdf80620000326000396000f3fe60806040526004361061036f5760003560e01c80637550ed18116101c6578063b2644e66116100f7578063cb12233b11610095578063f251fc8c1161006f578063f251fc8c146111ab578063f77c4791146111c0578063f8281626146111d5578063f85cb5c8146111ea57610376565b8063cb12233b1461110a578063daeffcca1461111f578063dd62ed3e1461117057610376565b8063b49a60bb116100d1578063b49a60bb14611098578063b63c44e7146110ad578063b9e67539146110c2578063c4086893146110d757610376565b8063b2644e6614610fcc578063b2ce956e14610fff578063b304b8151461103357610376565b806395d89b4111610164578063a457c2d71161013e578063a457c2d714610f30578063a63c643d14610f69578063a9059cbb14610f7e578063aaffadf314610fb757610376565b806395d89b4114610ecd5780639ab6374214610ee2578063a06931f914610f1b57610376565b806386fa5063116101a057806386fa506314610e795780638b0e9f3f14610e8e5780638bbde0fd14610ea357806395cdbedb14610eb857610376565b80637550ed1814610e3a57806377e7ff3c14610e4f578063792e42e214610e6457610376565b80633ad8d04d116102a05780635a16656a1161023e57806363f568b91161021857806363f568b914610d44578063695f3f5d14610d6e5780636acb733e14610da857806370a0823114610e0757610376565b80635a16656a14610a995780635a9e6daa14610aae57806360d442ca14610d2f57610376565b80634422b0dc1161027a5780634422b0dc146107fb57806350a9600314610825578063550c2b7f1461085b578063580d55d51461087057610376565b80633ad8d04d146106e65780633d8270f5146107635780633deddb3f146107e657610376565b806323b872dd1161030d578063313ce567116102e7578063313ce5671461061357806335510fee1461063e578063395093511461067a5780633a821925146106b357610376565b806323b872dd1461055357806327cca23d14610596578063297ce598146105fe57610376565b806306fdde031161034957806306fdde0314610454578063095ea7b3146104de5780631780998b1461051757806318160ddd1461052c57610376565b806302d05d3f1461037b57806305e73882146103ac57806306061dfa1461040d57610376565b3661037657005b600080fd5b34801561038757600080fd5b506103906111ff565b604080516001600160a01b039092168252519081900360200190f35b3480156103b857600080fd5b5061040b60048036036101208110156103d057600080fd5b5080359060208101359060408101359060608101359060808101359060a08101359060ff60c0820135169060e081013590610100013561120e565b005b34801561041957600080fd5b506104406004803603602081101561043057600080fd5b50356001600160a01b03166113c2565b604080519115158252519081900360200190f35b34801561046057600080fd5b506104696113d7565b6040805160208082528351818301528351919283929083019185019080838360005b838110156104a357818101518382015260200161048b565b50505050905090810190601f1680156104d05780820380516001836020036101000a031916815260200191505b509250505060405180910390f35b3480156104ea57600080fd5b506104406004803603604081101561050157600080fd5b506001600160a01b03813516906020013561146d565b34801561052357600080fd5b5061044061148b565b34801561053857600080fd5b50610541611494565b60408051918252519081900360200190f35b34801561055f57600080fd5b506104406004803603606081101561057657600080fd5b506001600160a01b0381358116916020810135909116906040013561149a565b3480156105a257600080fd5b5061040b60048036036101408110156105ba57600080fd5b50803590602081013590604081013515159060608101359060808101359060a08101359060c08101359060ff60e08201351690610100810135906101200135611522565b34801561060a57600080fd5b506105416116d5565b34801561061f57600080fd5b506106286116db565b6040805160ff9092168252519081900360200190f35b34801561064a57600080fd5b5061040b6004803603604081101561066157600080fd5b5080356001600160a01b0316906020013560ff166116e4565b34801561068657600080fd5b506104406004803603604081101561069d57600080fd5b506001600160a01b0381351690602001356117bb565b3480156106bf57600080fd5b50610440600480360360208110156106d657600080fd5b50356001600160a01b0316611809565b3480156106f257600080fd5b5061040b6004803603602081101561070957600080fd5b81019060208101813564010000000081111561072457600080fd5b82018360208201111561073657600080fd5b8035906020019184602083028401116401000000008311171561075857600080fd5b50909250905061181e565b34801561076f57600080fd5b506107966004803603602081101561078657600080fd5b50356001600160a01b0316611cb1565b604080519a8b5260208b0199909952898901979097526060890195909552608088019390935260a087019190915260c086015260e085015261010084015261012083015251908190036101400190f35b3480156107f257600080fd5b50610541611e08565b34801561080757600080fd5b5061040b6004803603602081101561081e57600080fd5b5035611e0e565b34801561083157600080fd5b5061040b6004803603606081101561084857600080fd5b5080359060208101359060400135611f71565b34801561086757600080fd5b50610440612117565b61040b600480360361010081101561088757600080fd5b6001600160a01b03823581169260208101358216926040820135909216918101906080810160608201356401000000008111156108c357600080fd5b8201836020820111156108d557600080fd5b803590602001918460018302840111640100000000831117156108f757600080fd5b91908080601f016020809104026020016040519081016040528093929190818152602001838380828437600092019190915250929594936020810193503591505064010000000081111561094a57600080fd5b82018360208201111561095c57600080fd5b8035906020019184600183028401116401000000008311171561097e57600080fd5b91908080601f01602080910402602001604051908101604052809392919081815260200183838082843760009201919091525092959493602081019350359150506401000000008111156109d157600080fd5b8201836020820111156109e357600080fd5b80359060200191846020830284011164010000000083111715610a0557600080fd5b91939092823592604081019060200135640100000000811115610a2757600080fd5b820183602082011115610a3957600080fd5b80359060200191846020830284011164010000000083111715610a5b57600080fd5b919080806020026020016040519081016040528093929190818152602001838360200280828437600092019190915250929550612127945050505050565b348015610aa557600080fd5b506105416125fa565b348015610aba57600080fd5b5061040b600480360360c0811015610ad157600080fd5b810190602081018135640100000000811115610aec57600080fd5b820183602082011115610afe57600080fd5b80359060200191846001830284011164010000000083111715610b2057600080fd5b91908080601f0160208091040260200160405190810160405280939291908181526020018383808284376000920191909152509295949360208101935035915050640100000000811115610b7357600080fd5b820183602082011115610b8557600080fd5b80359060200191846001830284011164010000000083111715610ba757600080fd5b91908080601f0160208091040260200160405190810160405280939291908181526020018383808284376000920191909152509295949360208101935035915050640100000000811115610bfa57600080fd5b820183602082011115610c0c57600080fd5b80359060200191846020830284011164010000000083111715610c2e57600080fd5b919390929091602081019035640100000000811115610c4c57600080fd5b820183602082011115610c5e57600080fd5b80359060200191846020830284011164010000000083111715610c8057600080fd5b919390929091602081019035640100000000811115610c9e57600080fd5b820183602082011115610cb057600080fd5b80359060200191846020830284011164010000000083111715610cd257600080fd5b919390929091602081019035640100000000811115610cf057600080fd5b820183602082011115610d0257600080fd5b80359060200191846001830284011164010000000083111715610d2457600080fd5b509092509050612600565b348015610d3b57600080fd5b50610541612afc565b348015610d5057600080fd5b5061039060048036036020811015610d6757600080fd5b5035612b02565b61040b60048036036080811015610d8457600080fd5b508035906020810135906001600160a01b0360408201351690606001351515612b22565b348015610db457600080fd5b5061040b60048036036080811015610dcb57600080fd5b8101908080608001906004806020026040519081016040528092919082600460200280828437600092019190915250919450612d6a9350505050565b348015610e1357600080fd5b5061054160048036036020811015610e2a57600080fd5b50356001600160a01b0316612dbc565b348015610e4657600080fd5b50610541612dd7565b348015610e5b57600080fd5b50610440612ddd565b348015610e7057600080fd5b50610541612deb565b348015610e8557600080fd5b50610541612df1565b348015610e9a57600080fd5b50610541612df7565b348015610eaf57600080fd5b50610541612dfd565b348015610ec457600080fd5b50610541612e03565b348015610ed957600080fd5b50610469612e09565b348015610eee57600080fd5b5061040b60048036036040811015610f0557600080fd5b506001600160a01b038135169060200135612e6a565b348015610f2757600080fd5b506105416130a8565b348015610f3c57600080fd5b5061044060048036036040811015610f5357600080fd5b506001600160a01b0381351690602001356130ae565b348015610f7557600080fd5b50610541613116565b348015610f8a57600080fd5b5061044060048036036040811015610fa157600080fd5b506001600160a01b03813516906020013561311c565b348015610fc357600080fd5b50610541613130565b348015610fd857600080fd5b5061040b60048036036020811015610fef57600080fd5b50356001600160a01b0316613136565b34801561100b57600080fd5b5061040b6004803603604081101561102257600080fd5b5080351515906020013515156131df565b34801561103f57600080fd5b50611048613224565b60408051602080825283518183015283519192839290830191858101910280838360005b8381101561108457818101518382015260200161106c565b505050509050019250505060405180910390f35b3480156110a457600080fd5b50611048613285565b3480156110b957600080fd5b506105416132e5565b3480156110ce57600080fd5b506105416132eb565b3480156110e357600080fd5b50610541600480360360208110156110fa57600080fd5b50356001600160a01b03166132f1565b34801561111657600080fd5b50610541613449565b34801561112b57600080fd5b5061040b600480360360a081101561114257600080fd5b508035906020810135906001600160a01b03604082013581169160608101351515916080909101351661344f565b34801561117c57600080fd5b506105416004803603604081101561119357600080fd5b506001600160a01b03813581169160200135166135e8565b3480156111b757600080fd5b50610541613613565b3480156111cc57600080fd5b50610390613619565b3480156111e157600080fd5b5061040b613628565b3480156111f657600080fd5b506103906136da565b6069546001600160a01b031681565b60026065541415611266576040805162461bcd60e51b815260206004820152601f60248201527f5265656e7472616e637947756172643a207265656e7472616e742063616c6c00604482015290519081900360640190fd5b60026065556112736136e9565b611281868511156013613737565b604080517f879c06dbbc6a527bc1aa2e59e46db3eda48a1c5a470ba6078cb8fe7a4986d6736020808301919091523082840152606082018c9052608082018b905260a082018a905260c08083018a90528351808403909101815260e090920190925280519101206000906112f490613745565b9050600061130482868686613796565b905061131c6001600160a01b03821615156058613737565b6001600160a01b038116600090815260716020526040902060070154611345908a146059613737565b85156113a15760006113578789613914565b905061137a6113668d836139a4565b6113708d8c6139a4565b846000808d6139b4565b6113848282613c12565b60665461139b906001600160a01b03163389613d0e565b506113b0565b6113b08b8b836000808c6139b4565b50506001606555505050505050505050565b60826020526000908152604090205460ff1681565b60368054604080516020601f60026000196101006001881615020190951694909404938401819004810282018101909252828152606093909290918301828280156114635780601f1061143857610100808354040283529160200191611463565b820191906000526020600020905b81548152906001019060200180831161144657829003601f168201915b5050505050905090565b600061148161147a613d93565b8484613d97565b5060015b92915050565b60855460ff1681565b60355490565b60006114a7848484613e83565b611517846114b3613d93565b61151285604051806060016040528060288152602001615ec9602891396001600160a01b038a166000908152603460205260408120906114f1613d93565b6001600160a01b031681526020810191909152604001600020549190613fe0565b613d97565b5060015b9392505050565b6002606554141561157a576040805162461bcd60e51b815260206004820152601f60248201527f5265656e7472616e637947756172643a207265656e7472616e742063616c6c00604482015290519081900360640190fd5b60026065556115876136e9565b611595868511156013613737565b604080517f93eebca8e5470e4d1458515a43ba13d8cb740543f7cabf1ccffbe71b9f76ae8b6020808301919091523082840152606082018d9052608082018c90528a151560a083015260c082018a905260e08083018a905283518084039091018152610100909201909252805191012060009061161190613745565b9050600061162182868686613796565b90506116396001600160a01b03821615156058613737565b6001600160a01b038116600090815260716020526040902060070154611662908a146059613737565b85156116b45760006116748789613914565b90506116966116838e896139a4565b61168d8e846139a4565b84858f8d614077565b6066546116ae906001600160a01b031683338a6144e9565b506116c2565b6116c28c8c83848e8c614077565b5050600160655550505050505050505050565b607d5481565b60385460ff1690565b6116ed33614577565b6117016116f98361458a565b15605e613737565b61172c6001600160a01b0383161515806117255750606954600160a81b900460ff16155b6061613737565b6069546001600160a01b031633141561175f57606980546001600160a01b0319166001600160a01b0384161790556117b7565b61178633608660ff84166004811061177357fe5b01546001600160a01b0316146011613737565b8160868260ff166004811061179757fe5b0180546001600160a01b0319166001600160a01b03929092169190911790555b5050565b60006114816117c8613d93565b8461151285603460006117d9613d93565b6001600160a01b03908116825260208083019390935260409182016000908120918c168152925290205490614637565b60816020526000908152604090205460ff1681565b60026065541415611876576040805162461bcd60e51b815260206004820152601f60248201527f5265656e7472616e637947756172643a207265656e7472616e742063616c6c00604482015290519081900360640190fd5b6002606555611883614691565b61188b61472a565b33600090815260716020526040902060028101546118ac904211600c613737565b60408051600780825261010082019092526000916020820160e08036833750506068546040517f69795e9300000000000000000000000000000000000000000000000000000000815230600482018181523360248401819052606060448501908152606485018b90529697506001600160a01b03909416956369795e9395509193928a928a9291608401846020850280828437600081840152601f19601f8201169050808301925050509550505050505060006040518083038186803b15801561197557600080fd5b505afa158015611989573d6000803e3d6000fd5b505050506040513d6000823e601f3d908101601f1916820160405260208110156119b257600080fd5b81019080805160405193929190846401000000008211156119d257600080fd5b9083019060208201858111156119e757600080fd5b8251866020820283011164010000000082111715611a0457600080fd5b82525081516020918201928201910280838360005b83811015611a31578181015183820152602001611a19565b505050509050016040525050509050611a81600082600581518110611a5257fe5b60200260200101511180611a7a5750600082600681518110611a7057fe5b6020026020010151115b6052613737565b600081600681518110611a9057fe5b60200260200101511115611b7157611ac981600681518110611aae57fe5b6020026020010151836004015461473890919063ffffffff16565b8260040181905550611afa81600681518110611ae157fe5b6020026020010151606b546139a490919063ffffffff16565b606b554260028301558051611b2590339083906006908110611b1857fe5b6020026020010151614748565b80600681518110611b3257fe5b6020026020010151336001600160a01b03167f4dacaff8a707e7b54321fbdedb3b65d1f3316b59787949c034bae8946d6ff4e160405160405180910390a35b600081600581518110611b8057fe5b60200260200101511115611ca657611bb981600581518110611b9e57fe5b6020026020010151836003015461473890919063ffffffff16565b600383015542600283015560685481516001600160a01b039091169063a8d9a78190339084906005908110611bea57fe5b60200260200101516040518363ffffffff1660e01b815260040180836001600160a01b0316815260200182815260200192505050600060405180830381600087803b158015611c3857600080fd5b505af1158015611c4c573d6000803e3d6000fd5b50505050336001600160a01b03167f09703ae9c781fcf86e1d44c6d854c2684b3f5dcfe234dfc64f4d356d0e3cd73e82600581518110611c8857fe5b60200260200101516040518082815260200191505060405180910390a25b505060016065555050565b6001600160a01b038082166000818152607160209081526040808320606854600182015483517f7602bdde000000000000000000000000000000000000000000000000000000008152306004820152602481019790975260448701524260648701529151939586958695869586958695869586958695869593948694931692637602bdde9260848082019391829003018186803b158015611d5157600080fd5b505afa158015611d65573d6000803e3d6000fd5b505050506040513d6020811015611d7b57600080fd5b505190506000611d8a8e612dbc565b90506000611d978f6132f1565b9050836000015484600101548560020154866003015487600401548860050154896006015411611dc8576000611ddb565b600589015460068a0154611ddb916139a4565b87878a8c600701549d509d509d509d509d509d509d509d509d509d50505050509193959799509193959799565b607e5481565b611e16614810565b6000611e9c82606760009054906101000a90046001600160a01b03166001600160a01b031663313754776040518163ffffffff1660e01b815260040160206040518083038186803b158015611e6a57600080fd5b505afa158015611e7e573d6000803e3d6000fd5b505050506040513d6020811015611e9457600080fd5b50519061482e565b9050611ebc611ea961484c565b611eb38484614738565b11156004613737565b606754604080517f61d027b30000000000000000000000000000000000000000000000000000000081529051611f5a926001600160a01b0316916361d027b3916004808301926020929190829003018186803b158015611f1b57600080fd5b505afa158015611f2f573d6000803e3d6000fd5b505050506040513d6020811015611f4557600080fd5b50516066546001600160a01b03169083613d0e565b6066546117b7906001600160a01b03163384613d0e565b611f79614691565b611f81614810565b8015612017576000336001600160a01b0316631fe4a6866040518163ffffffff1660e01b815260040160206040518083038186803b158015611fc257600080fd5b505afa158015611fd6573d6000803e3d6000fd5b505050506040513d6020811015611fec57600080fd5b50519050611ff981612dbc565b821061200b5761200881612dbc565b91505b6120158183613c12565b505b606b546120249084614738565b606b55606d5461203490836148ca565b606d819055506120a733607f80548060200260200160405190810160405280929190818152602001828054801561209457602002820191906000526020600020905b81546001600160a01b03168152600190910190602001808311612076575b505050505061492f90919063ffffffff16565b80516120bb91607f91602090910190615c52565b505060808054600181019091557f59f3fb058c6bba7a4e76396639fc4dd21bd59163db798899cf56cef48b3c9ec90180546001600160a01b031916339081179091556000908152608160205260409020805460ff191690555050565b606954600160a81b900460ff1681565b600054610100900460ff168061214057506121406149ac565b8061214e575060005460ff16155b6121895760405162461bcd60e51b815260040180806020018281038252602e815260200180615e79602e913960400191505060405180910390fd5b600054610100900460ff161580156121b4576000805460ff1961ff0019909116610100171660011790555b6121c36032885110604f613737565b6122606001600160a01b038916158015906121e657506001600160a01b038a1615155b8015612259575060008b6001600160a01b031663313ce5676040518163ffffffff1660e01b815260040160206040518083038186803b15801561222857600080fd5b505afa15801561223c573d6000803e3d6000fd5b505050506040513d602081101561225257600080fd5b505160ff16115b6017613737565b61226e600a8514604e613737565b6122f1896001600160a01b031663f979cdd98c6040518263ffffffff1660e01b815260040180826001600160a01b0316815260200191505060206040518083038186803b1580156122be57600080fd5b505afa1580156122d2573d6000803e3d6000fd5b505050506040513d60208110156122e857600080fd5b5051600e613737565b6122fb87876149bd565b606780546001600160a01b03808c166001600160a01b03199283161792839055606680548e8316908416179055606980548c8316931692909217909155604080517f3f2a554000000000000000000000000000000000000000000000000000000000815290519290911691633f2a554091600480820192602092909190829003018186803b15801561238c57600080fd5b505afa1580156123a0573d6000803e3d6000fd5b505050506040513d60208110156123b657600080fd5b5051606880546001600160a01b0319166001600160a01b0392831617908190556123e4911615156017613737565b606760009054906101000a90046001600160a01b03166001600160a01b0316637f80e05b6040518163ffffffff1660e01b815260040160206040518083038186803b15801561243257600080fd5b505afa158015612446573d6000803e3d6000fd5b505050506040513d602081101561245c57600080fd5b5051801561247b57508160008151811061247257fe5b60200260200101515b60698054600160a81b9215830260ff60a81b1990911617908190550460ff161580156124b85750816001815181106124af57fe5b60200260200101515b6085805460ff191691151591909117905560695460ff600160a81b909104161580156124f55750816002815181106124ec57fe5b60200260200101515b608580549115156101000261ff00199092169190911790556125dc83868660008161251c57fe5b905060200201358787600181811061253057fe5b905060200201358888600281811061254457fe5b905060200201358989600381811061255857fe5b905060200201358a8a600481811061256c57fe5b905060200201358b8b600581811061258057fe5b905060200201358c8c600681811061259457fe5b905060200201358d8d60078181106125a857fe5b905060200201358e8e60088181106125bc57fe5b905060200201358f8f60098181106125d057fe5b90506020020135614a72565b80156125ee576000805461ff00191690555b50505050505050505050565b607b5481565b612608614691565b61261061472a565b600061261b33614d0b565b9250505061262a81601e613737565b607f5461263b90601411601a613737565b61264960058914604d613737565b606754604080517f9ef3571000000000000000000000000000000000000000000000000000000000815290516000926001600160a01b031691639ef35710916004808301926020929190829003018186803b1580156126a757600080fd5b505afa1580156126bb573d6000803e3d6000fd5b505050506040513d60208110156126d157600080fd5b81019080805190602001909291905050506001600160a01b03166378afca3e8d8d33308f8f6040518763ffffffff1660e01b8152600401808060200180602001876001600160a01b03168152602001866001600160a01b031681526020018060200184810384528a818151815260200191508051906020019080838360005b83811015612768578181015183820152602001612750565b50505050905090810190601f1680156127955780820380516001836020036101000a031916815260200191505b5084810383528951815289516020918201918b019080838360005b838110156127c85781810151838201526020016127b0565b50505050905090810190601f1680156127f55780820380516001836020036101000a031916815260200191505b508481038252868682818152602001925060200280828437600081840152601f19601f8201169050808301925050509950505050505050505050602060405180830381600087803b15801561284957600080fd5b505af115801561285d573d6000803e3d6000fd5b505050506040513d602081101561287357600080fd5b50516001600160a01b0381166000908152608160205260409020805460ff191660019081179091559091506128c7908b908b908181106128af57fe5b9050602002013560795461473890919063ffffffff16565b607955607f80546001810182556000919091527f66925e85f1a4743fd8d60ba595ed74887b7caf321dd83b21e04d77c1153834080180546001600160a01b0319166001600160a01b0383169081179091556040517fecbc2cda000000000000000000000000000000000000000000000000000000008152606060048201908152606482018a905263ecbc2cda918b918b918b918b918b918b918190602481019060448101906084018a60208b0280828437600083820152601f01601f19169091018581038452888152602090810191508990890280828437600083820152601f01601f191690910185810383528681526020019050868680828437600081840152601f19601f8201169050808301925050509950505050505050505050600060405180830381600087803b1580156129fe57600080fd5b505af1158015612a12573d6000803e3d6000fd5b5050506001600160a01b0382166000818152608260205260409020805460ff1916600117905590507f9e896c245c70d187fa97788cded4bca6b7546fa444cc7b0c111c57b592affa018d8c8c6003818110612a6957fe5b905060200201356040518080602001838152602001828103825284818151815260200191508051906020019080838360005b83811015612ab3578181015183820152602001612a9b565b50505050905090810190601f168015612ae05780820380516001836020036101000a031916815260200191505b50935050505060405180910390a2505050505050505050505050565b60835481565b60868160048110612b1257600080fd5b01546001600160a01b0316905081565b60026065541415612b7a576040805162461bcd60e51b815260206004820152601f60248201527f5265656e7472616e637947756172643a207265656e7472616e742063616c6c00604482015290519081900360640190fd5b6002606555607f54600090612c5457612b91611494565b15612c4557612c40612ba1611494565b606654604080517f313ce5670000000000000000000000000000000000000000000000000000000081529051612c3a926001600160a01b03169163313ce567916004808301926020929190829003018186803b158015612c0057600080fd5b505afa158015612c14573d6000803e3d6000fd5b505050506040513d6020811015612c2a57600080fd5b505160ff16600a0a612c3a61484c565b90615026565b612c4d565b612c4d61503e565b9050612d50565b606760009054906101000a90046001600160a01b03166001600160a01b031663294d237c6040518163ffffffff1660e01b815260040160206040518083038186803b158015612ca257600080fd5b505afa158015612cb6573d6000803e3d6000fd5b505050506040513d6020811015612ccc57600080fd5b505160665460408051635e0a3b9d60e11b81523060048201526001600160a01b0392831660248201529051919092169163bc14773a916044808301926020929190829003018186803b158015612d2157600080fd5b505afa158015612d35573d6000803e3d6000fd5b505050506040513d6020811015612d4b57600080fd5b505190505b612d5e858585338686614077565b50506001606555505050565b606954612d83906001600160a01b03163314605f613737565b612d95600082815b602002015161504a565b612da160018281612d8b565b612dad60028281612d8b565b612db960038281612d8b565b50565b6001600160a01b031660009081526033602052604090205490565b606f5481565b608554610100900460ff1681565b606d5481565b60735481565b60795481565b607a5481565b607c5481565b60378054604080516020601f60026000196101006001881615020190951694909404938401819004810282018101909252828152606093909290918301828280156114635780601f1061143857610100808354040283529160200191611463565b612e72614691565b612e9933301480612e9257503360009081526081602052604090205460ff165b6014613737565b6067546040805163411137c360e01b81526001600160a01b0385811660048301529151612f1e93929092169163411137c391602480820192602092909190829003018186803b158015612eeb57600080fd5b505afa158015612eff573d6000803e3d6000fd5b505050506040513d6020811015612f1557600080fd5b50516012613737565b6066546001600160a01b031673c02aaa39b223fe8d0a0e5c4f27ead9083c756cc21415612f6057612f5b670de0b6b3a76400008211156013613737565b613019565b6066546001600160a01b0316736b175474e89094c44da98b954eedeac495271d0f1415612f9e57612f5b686c6b935b8bbd4000008211156013613737565b6066546001600160a01b031673a0b86991c6218b36c1d19d4a2e9eb0ce3606eb481415612fd757612f5b63773594008211156013613737565b6066546001600160a01b0316732260fac5e5542a773aa44fbcfedf7c193bc2c599141561300f57612f5b624c4b408211156013613737565b613019605561508f565b6083546130269082614738565b6083819055158015906130415750600061303e61484c565b10155b156117b757600060835461305361484c565b116130655761306061484c565b613069565b6083545b606654909150613083906001600160a01b03168483613d0e565b6084546130909082614738565b6084556083546130a090826139a4565b608355505050565b60845481565b60006114816130bb613d93565b8461151285604051806060016040528060258152602001615f8560259139603460006130e5613d93565b6001600160a01b03908116825260208083019390935260409182016000908120918d16815292529020549190613fe0565b606e5481565b6000611481613129613d93565b8484613e83565b60775481565b61313e614810565b6131a981607f805480602002602001604051908101604052809291908181526020018280548015612094576020028201919060005260206000209081546001600160a01b0316815260019091019060200180831161207657505050505061492f90919063ffffffff16565b80516131bd91607f91602090910190615c52565b506001600160a01b03166000908152608160205260409020805460ff19169055565b6131e833614577565b60695461320190600160a81b900460ff1615605a613737565b6085805460ff19169215159290921761ff00191661010091151591909102179055565b6060608080548060200260200160405190810160405280929190818152602001828054801561146357602002820191906000526020600020905b81546001600160a01b0316815260019091019060200180831161325e575050505050905090565b6060607f805480602002602001604051908101604052809291908181526020018280548015611463576020028201919060005260206000209081546001600160a01b0316815260019091019060200180831161325e575050505050905090565b60745481565b606b5481565b60008060005b607f5481101561342f576000607f828154811061331057fe5b60009182526020918290200154604080517f1fe4a68600000000000000000000000000000000000000000000000000000000815290516001600160a01b0390921693508392631fe4a68692600480840193829003018186803b15801561337557600080fd5b505afa158015613389573d6000803e3d6000fd5b505050506040513d602081101561339f57600080fd5b50516001600160a01b038681169116141561342657613423816001600160a01b0316633a4b66f16040518163ffffffff1660e01b815260040160206040518083038186803b1580156133f057600080fd5b505afa158015613404573d6000803e3d6000fd5b505050506040513d602081101561341a57600080fd5b50518490614738565b92505b506001016132f7565b508061343a84612dbc565b10156114855761151b83612dbc565b60755481565b600260655414156134a7576040805162461bcd60e51b815260206004820152601f60248201527f5265656e7472616e637947756172643a207265656e7472616e742063616c6c00604482015290519081900360640190fd5b6002606555606754604080517f294d237c00000000000000000000000000000000000000000000000000000000815290516000926001600160a01b03169163294d237c916004808301926020929190829003018186803b15801561350a57600080fd5b505afa15801561351e573d6000803e3d6000fd5b505050506040513d602081101561353457600080fd5b505160665460408051635e0a3b9d60e11b81523060048201526001600160a01b0392831660248201529051919092169163bc14773a916044808301926020929190829003018186803b15801561358957600080fd5b505afa15801561359d573d6000803e3d6000fd5b505050506040513d60208110156135b357600080fd5b505190506135cd336001600160a01b03861614600f613737565b6135db8686868686866139b4565b5050600160655550505050565b6001600160a01b03918216600090815260346020908152604080832093909416825291909152205490565b60725481565b6067546001600160a01b031681565b61363133614577565b6069546136cb90600160a81b900460ff1680156136c45750606760009054906101000a90046001600160a01b03166001600160a01b0316637f80e05b6040518163ffffffff1660e01b815260040160206040518083038186803b15801561369757600080fd5b505afa1580156136ab573d6000803e3d6000fd5b505050506040513d60208110156136c157600080fd5b50515b6043613737565b6069805460ff60a81b19169055565b6066546001600160a01b031681565b6067546040805163411137c360e01b81523360048201529051613735926001600160a01b03169163411137c3916024808301926020929190829003018186803b158015612eeb57600080fd5b565b816117b7576117b78161508f565b604080517f19457468657265756d205369676e6564204d6573736167653a0a333200000000602080830191909152603c8083019490945282518083039094018452605c909101909152815191012090565b60007f7fffffffffffffffffffffffffffffff5d576e7357a4501ddfe92f46681b20a08211156137f75760405162461bcd60e51b8152600401808060200182810382526022815260200180615e316022913960400191505060405180910390fd5b8360ff16601b148061380c57508360ff16601c145b6138475760405162461bcd60e51b8152600401808060200182810382526022815260200180615ea76022913960400191505060405180910390fd5b600060018686868660405160008152602001604052604051808581526020018460ff1681526020018381526020018281526020019450505050506020604051602081039080840390855afa1580156138a3573d6000803e3d6000fd5b5050604051601f1901519150506001600160a01b03811661390b576040805162461bcd60e51b815260206004820152601860248201527f45434453413a20696e76616c6964207369676e61747572650000000000000000604482015290519081900360640190fd5b95945050505050565b600061151b82612c3a606660009054906101000a90046001600160a01b03166001600160a01b031663313ce5676040518163ffffffff1660e01b815260040160206040518083038186803b15801561396b57600080fd5b505afa15801561397f573d6000803e3d6000fd5b505050506040513d602081101561399557600080fd5b5051869060ff16600a0a615026565b8082038281111561148557600080fd5b6139bc614691565b6139d260006139ca86612dbc565b11600f613737565b606f546001600160a01b038516600090815260716020526040902054613a0791906139fe9042906139a4565b10156003613737565b6000613a12856132f1565b9050613a34613a2a82613a2488612dbc565b906139a4565b8811156007613737565b6000613a40888461482e565b90506000613ace606660009054906101000a90046001600160a01b03166001600160a01b031663313ce5676040518163ffffffff1660e01b815260040160206040518083038186803b158015613a9557600080fd5b505afa158015613aa9573d6000803e3d6000fd5b505050506040513d6020811015613abf57600080fd5b5051839060ff16600a0a61482e565b90508515613b6c57613af1613aea826658d15e1762800061482e565b82906139a4565b90506001600160a01b0385166342296724613b1d613b168466b1a2bc2ec5000061482e565b8490614738565b6040518263ffffffff1660e01b815260040180828152602001915050600060405180830381600087803b158015613b5357600080fd5b505af1158015613b67573d6000803e3d6000fd5b505050505b613b7a888210156056613737565b613b8f81613b8661484c565b10156004613737565b613b99878a613c12565b613ba38782614748565b613bad87826150e2565b613bbb888210156008613737565b60408051828152602081018b9052428183015290516001600160a01b0389169182917f32a44bf15c44dad7691e20191a033527995d56d46ebe5115756d9e2eec16d3339181900360600190a3505050505050505050565b6001600160a01b038216613c575760405162461bcd60e51b8152600401808060200182810382526021815260200180615ef16021913960400191505060405180910390fd5b613c63826000836151ea565b613ca081604051806060016040528060228152602001615d6c602291396001600160a01b0385166000908152603360205260409020549190613fe0565b6001600160a01b038316600090815260336020526040902055603554613cc690826152b2565b6035556040805182815290516000916001600160a01b038516917fddf252ad1be2c89b69c2b068fc378daa952ba7f163c4a11628f55a4df523b3ef9181900360200190a35050565b604080516001600160a01b038416602482015260448082018490528251808303909101815260649091019091526020810180517bffffffffffffffffffffffffffffffffffffffffffffffffffffffff167fa9059cbb00000000000000000000000000000000000000000000000000000000179052613d8e90849061530f565b505050565b3390565b6001600160a01b038316613ddc5760405162461bcd60e51b8152600401808060200182810382526024815260200180615f376024913960400191505060405180910390fd5b6001600160a01b038216613e215760405162461bcd60e51b8152600401808060200182810382526022815260200180615d8e6022913960400191505060405180910390fd5b6001600160a01b03808416600081815260346020908152604080832094871680845294825291829020859055815185815291517f8c5be1e5ebec7d5bd14f71427d1e84f3dd0314c0f7b2291e5b200ac8c7c3b9259281900390910190a3505050565b6001600160a01b038316613ec85760405162461bcd60e51b8152600401808060200182810382526025815260200180615f126025913960400191505060405180910390fd5b6001600160a01b038216613f0d5760405162461bcd60e51b8152600401808060200182810382526023815260200180615d496023913960400191505060405180910390fd5b613f188383836151ea565b613f5581604051806060016040528060268152602001615db0602691396001600160a01b0386166000908152603360205260409020549190613fe0565b6001600160a01b038085166000908152603360205260408082209390935590841681522054613f849082614637565b6001600160a01b0380841660008181526033602090815260409182902094909455805185815290519193928716927fddf252ad1be2c89b69c2b068fc378daa952ba7f163c4a11628f55a4df523b3ef92918290030190a3505050565b6000818484111561406f5760405162461bcd60e51b81526004018080602001828103825283818151815260200191508051906020019080838360005b8381101561403457818101518382015260200161401c565b50505050905090810190601f1680156140615780820380516001836020036101000a031916815260200191505b509250505060405180910390fd5b505050900390565b61407f614691565b600061408a84614d0b565b505090506140a881806140a157506140a18661458a565b601d613737565b607454156140d1576140d16074546140c8896140c261484c565b90614738565b11156000613737565b6140e36073546072541115603d613737565b6140f36077548810156001613737565b606654604080516370a0823160e01b815230600482015290516000926001600160a01b0316916370a08231916024808301926020929190829003018186803b15801561413e57600080fd5b505afa158015614152573d6000803e3d6000fd5b505050506040513d602081101561416857600080fd5b50516066549091506001600160a01b031673c02aaa39b223fe8d0a0e5c4f27ead9083c756cc214801561419b5750600034115b1561420d5773c02aaa39b223fe8d0a0e5c4f27ead9083c756cc26001600160a01b031663d0e30db0346040518263ffffffff1660e01b81526004016000604051808303818588803b1580156141ef57600080fd5b505af1158015614203573d6000803e3d6000fd5b5050505050614225565b606654614225906001600160a01b031686308b6144e9565b606654604080516370a0823160e01b815230600482015290516142b3928b926142ab9286926001600160a01b0316916370a08231916024808301926020929190829003018186803b15801561427957600080fd5b505afa15801561428d573d6000803e3d6000fd5b505050506040513d60208110156142a357600080fd5b5051906139a4565b146005613737565b60006142be87612dbc565b9050600061434c606660009054906101000a90046001600160a01b03166001600160a01b031663313ce5676040518163ffffffff1660e01b815260040160206040518083038186803b15801561431357600080fd5b505afa158015614327573d6000803e3d6000fd5b505050506040513d602081101561433d57600080fd5b50518b9060ff16600a0a615026565b9050600061435a8287615026565b905061436a8a8210156056613737565b61437489826153c0565b61437f89848d6154b2565b861561449157606760009054906101000a90046001600160a01b03166001600160a01b031663ead4c1cf6040518163ffffffff1660e01b815260040160206040518083038186803b1580156143d357600080fd5b505afa1580156143e7573d6000803e3d6000fd5b505050506040513d60208110156143fd57600080fd5b5051604080517f45b497470000000000000000000000000000000000000000000000000000000081526001600160a01b038c81166004830152915191909216916345b497479160248083019260209291908290030181600087803b15801561446457600080fd5b505af1158015614478573d6000803e3d6000fd5b505050506040513d602081101561448e57600080fd5b50505b604080518b8152602081018d9052428183015290516001600160a01b038b16917f8d878fd0c5092c0e518d34fa1f3d23c8b3a1b2b7f86174bdba0ceaabf68b5a53919081900360600190a25050505050505050505050565b604080516001600160a01b0380861660248301528416604482015260648082018490528251808303909101815260849091019091526020810180517bffffffffffffffffffffffffffffffffffffffffffffffffffffffff167f23b872dd0000000000000000000000000000000000000000000000000000000017905261457190859061530f565b50505050565b612db96145838261458a565b6011613737565b60006001600160a01b0382161580159061148557506001600160a01b0382166086600001546001600160a01b031614806145da57506001600160a01b0382166086600101546001600160a01b0316145b806145fb57506001600160a01b0382166086600201546001600160a01b0316145b8061461c57506001600160a01b0382166086600301546001600160a01b0316145b806114855750506069546001600160a01b0390811691161490565b60008282018381101561151b576040805162461bcd60e51b815260206004820152601b60248201527f536166654d6174683a206164646974696f6e206f766572666c6f770000000000604482015290519081900360640190fd5b606754604080517f5b14f1830000000000000000000000000000000000000000000000000000000081523060048201529051613735926001600160a01b031691635b14f183916024808301926020929190829003018186803b1580156146f657600080fd5b505afa15801561470a573d6000803e3d6000fd5b505050506040513d602081101561472057600080fd5b5051156053613737565b61373560006139ca33612dbc565b8082018281101561148557600080fd5b6066546001600160a01b031673c02aaa39b223fe8d0a0e5c4f27ead9083c756cc214156147f957804710156147ea5773c02aaa39b223fe8d0a0e5c4f27ead9083c756cc2632e1a7d4d61479b83476139a4565b6040518263ffffffff1660e01b815260040180828152602001915050600060405180830381600087803b1580156147d157600080fd5b505af11580156147e5573d6000803e3d6000fd5b505050505b6147f482826155c1565b6117b7565b6066546117b7906001600160a01b03168383613d0e565b336000908152608160205260409020546137359060ff166014613737565b600061151b670de0b6b3a764000061484685856156a6565b906156ca565b606b54606654604080516370a0823160e01b8152306004820152905160009384936148a49391926001600160a01b03909116916370a08231916024808301926020929190829003018186803b15801561427957600080fd5b905060835481116148b65760006148c4565b6083546148c49082906139a4565b91505090565b60008282018183128015906148df5750838112155b806148f457506000831280156148f457508381125b61151b5760405162461bcd60e51b8152600401808060200182810382526021815260200180615dd66021913960400191505060405180910390fd5b606060008061493e8585615731565b9150915080614994576040805162461bcd60e51b815260206004820152601560248201527f41646472657373206e6f7420696e2061727261792e0000000000000000000000604482015290519081900360640190fd5b60006149a08684615797565b50935061148592505050565b60006149b7306158fb565b15905090565b600054610100900460ff16806149d657506149d66149ac565b806149e4575060005460ff16155b614a1f5760405162461bcd60e51b815260040180806020018281038252602e815260200180615e79602e913960400191505060405180910390fd5b600054610100900460ff16158015614a4a576000805460ff1961ff0019909116610100171660011790555b614a52615901565b614a5c83836159a2565b8015613d8e576000805461ff0019169055505050565b614a8c600088118015614a855750878c10155b6001613737565b606754606654604080517ff05017eb0000000000000000000000000000000000000000000000000000000081526001600160a01b0392831660048201529051614b3093929092169163f05017eb91602480820192602092909190829003018186803b158015614afa57600080fd5b505afa158015614b0e573d6000803e3d6000fd5b505050506040513d6020811015614b2457600080fd5b50518a10156004613737565b614b998a8c11158015614b9257506066546001600160a01b031673c02aaa39b223fe8d0a0e5c4f27ead9083c756cc214614b75576a084595161401484a000000614b81565b69021e19e0c9bab24000005b6affffffffffffffffffffff168b11155b6000613737565b614ba7600089116003613737565b614bc562093a808711158015614bbe5750603c8710155b6018613737565b614bf967016345785d8a00008610158015614bf25750614bee67016345785d8a000060056156a6565b8611155b6019613737565b614c26848410158015614c0f5750620151808510155b8015614c1f57506302932e008411155b603f613737565b614c4160018310158015614c3a5750600a83105b6040613737565b614cd4600082118015614ccd5750606760009054906101000a90046001600160a01b03166001600160a01b0316637177fec96040518163ffffffff1660e01b815260040160206040518083038186803b158015614c9d57600080fd5b505afa158015614cb1573d6000803e3d6000fd5b505050506040513d6020811015614cc757600080fd5b50518211155b605b613737565b607355607795909555607e93909355607a91909155607b92909255607c91909155607d5560749290925542607555606e55606f5550565b600080600080606760009054906101000a90046001600160a01b03166001600160a01b0316630ebdb9a26040518163ffffffff1660e01b815260040160206040518083038186803b158015614d5f57600080fd5b505afa158015614d73573d6000803e3d6000fd5b505050506040513d6020811015614d8957600080fd5b5051604080517f20382f8e0000000000000000000000000000000000000000000000000000000081526001600160a01b0388811660048301529151929350600092918416916320382f8e91602480820192602092909190829003018186803b158015614df457600080fd5b505afa158015614e08573d6000803e3d6000fd5b505050506040513d6020811015614e1e57600080fd5b5051604080517fc7ec5d5d0000000000000000000000000000000000000000000000000000000081523060048201526001600160a01b03898116602483015291519293509084169163c7ec5d5d91604480820192602092909190829003018186803b158015614e8c57600080fd5b505afa158015614ea0573d6000803e3d6000fd5b505050506040513d6020811015614eb657600080fd5b505180614ed55750808015614ed55750606954600160a81b900460ff16155b9450816001600160a01b0316634d98fbf030886040518363ffffffff1660e01b815260040180836001600160a01b03168152602001826001600160a01b031681526020019250505060206040518083038186803b158015614f3557600080fd5b505afa158015614f49573d6000803e3d6000fd5b505050506040513d6020811015614f5f57600080fd5b505180614f7b5750808015614f7b5750608554610100900460ff165b9350816001600160a01b0316635066c71430886040518363ffffffff1660e01b815260040180836001600160a01b03168152602001826001600160a01b031681526020019250505060206040518083038186803b158015614fdb57600080fd5b505afa158015614fef573d6000803e3d6000fd5b505050506040513d602081101561500557600080fd5b50518061501c575080801561501c575060855460ff165b9496939550505050565b600061151b8261484685670de0b6b3a76400006156a6565b670de0b6b3a764000090565b6150566116f98261458a565b61507e6000608660ff85166004811061506b57fe5b01546001600160a01b031614605e613737565b8060868360ff166004811061179757fe5b62461bcd60e51b6000908152602060045260076024526642414223000030600a808404818106603090810160081b95839006959095019082900491820690940160101b939093010160c81b604452606490fd5b6001600160a01b038216600090815260716020526040902061510383612dbc565b615137576000808255600180830182905560058301829055600683019190915560725461512f916139a4565b60725561514c565b60058101546151469083614738565b60058201555b6068546076546040805163bad67dd160e01b81523060048201526001600160a01b0387811660248301526000604483018190526064830181905260848301949094529151919093169263bad67dd19260a480830193919282900301818387803b1580156151b857600080fd5b505af11580156151cc573d6000803e3d6000fd5b50505050600701805460019081019091556076805490910190555050565b6151f5838383613d8e565b613d8e6001600160a01b038416158061521557506001600160a01b038316155b806152ab5750606760009054906101000a90046001600160a01b03166001600160a01b031663393bfe496040518163ffffffff1660e01b815260040160206040518083038186803b15801561526957600080fd5b505afa15801561527d573d6000803e3d6000fd5b505050506040513d602081101561529357600080fd5b505180156152ab5750606954600160a81b900460ff16155b603b613737565b600082821115615309576040805162461bcd60e51b815260206004820152601e60248201527f536166654d6174683a207375627472616374696f6e206f766572666c6f770000604482015290519081900360640190fd5b50900390565b6000615364826040518060400160405280602081526020017f5361666545524332303a206c6f772d6c6576656c2063616c6c206661696c6564815250856001600160a01b0316615a7a9092919063ffffffff16565b805190915015613d8e5780806020019051602081101561538357600080fd5b5051613d8e5760405162461bcd60e51b815260040180806020018281038252602a815260200180615f5b602a913960400191505060405180910390fd5b6001600160a01b03821661541b576040805162461bcd60e51b815260206004820152601f60248201527f45524332303a206d696e7420746f20746865207a65726f206164647265737300604482015290519081900360640190fd5b615427600083836151ea565b6035546154349082614637565b6035556001600160a01b03821660009081526033602052604090205461545a9082614637565b6001600160a01b03831660008181526033602090815260408083209490945583518581529351929391927fddf252ad1be2c89b69c2b068fc378daa952ba7f163c4a11628f55a4df523b3ef9281900390910190a35050565b6001600160a01b03831660009081526071602052604090208215806154d957506001810154155b15615507576154ef60735460725410603d613737565b6072546154fd906001614738565b6072554260018201555b60068101546155169083614738565b600682015542815560078101805460019081019091556068546076546040805163bad67dd160e01b81523060048201526001600160a01b038981166024830152604482018990526064820195909552608481019290925251929091169163bad67dd19160a48082019260009290919082900301818387803b15801561559a57600080fd5b505af11580156155ae573d6000803e3d6000fd5b5050607680546001019055505050505050565b80471015615616576040805162461bcd60e51b815260206004820152601d60248201527f416464726573733a20696e73756666696369656e742062616c616e6365000000604482015290519081900360640190fd5b6040516000906001600160a01b0384169083908381818185875af1925050503d8060008114615661576040519150601f19603f3d011682016040523d82523d6000602084013e615666565b606091505b5050905080613d8e5760405162461bcd60e51b815260040180806020018281038252603a815260200180615df7603a913960400191505060405180910390fd5b60008215806156c1575050818102818382816156be57fe5b04145b61148557600080fd5b6000808211615720576040805162461bcd60e51b815260206004820152601a60248201527f536166654d6174683a206469766973696f6e206279207a65726f000000000000604482015290519081900360640190fd5b81838161572957fe5b049392505050565b81516000908190815b8181101561578457846001600160a01b031686828151811061575857fe5b60200260200101516001600160a01b0316141561577c579250600191506157909050565b60010161573a565b50600019600092509250505b9250929050565b81516060906000908084106157f3576040805162461bcd60e51b815260206004820152601860248201527f496e646578206d757374206265203c2041206c656e6774680000000000000000604482015290519081900360640190fd5b60006001820367ffffffffffffffff8111801561580f57600080fd5b50604051908082528060200260200182016040528015615839578160200160208202803683370190505b50905060005b858110156158875786818151811061585357fe5b602002602001015182828151811061586757fe5b6001600160a01b039092166020928302919091019091015260010161583f565b50600185015b828110156158d8578681815181106158a157fe5b60200260200101518260018303815181106158b857fe5b6001600160a01b039092166020928302919091019091015260010161588d565b50808686815181106158e657fe5b60200260200101519350935050509250929050565b3b151590565b600054610100900460ff168061591a575061591a6149ac565b80615928575060005460ff16155b6159635760405162461bcd60e51b815260040180806020018281038252602e815260200180615e79602e913960400191505060405180910390fd5b600054610100900460ff1615801561598e576000805460ff1961ff0019909116610100171660011790555b8015612db9576000805461ff001916905550565b600054610100900460ff16806159bb57506159bb6149ac565b806159c9575060005460ff16155b615a045760405162461bcd60e51b815260040180806020018281038252602e815260200180615e79602e913960400191505060405180910390fd5b600054610100900460ff16158015615a2f576000805460ff1961ff0019909116610100171660011790555b8251615a42906036906020860190615cb7565b508151615a56906037906020850190615cb7565b506038805460ff191660121790558015613d8e576000805461ff0019169055505050565b6060615a898484600085615a91565b949350505050565b606082471015615ad25760405162461bcd60e51b8152600401808060200182810382526026815260200180615e536026913960400191505060405180910390fd5b615adb856158fb565b615b2c576040805162461bcd60e51b815260206004820152601d60248201527f416464726573733a2063616c6c20746f206e6f6e2d636f6e7472616374000000604482015290519081900360640190fd5b600080866001600160a01b031685876040518082805190602001908083835b60208310615b6a5780518252601f199092019160209182019101615b4b565b6001836020036101000a03801982511681845116808217855250505050505090500191505060006040518083038185875af1925050503d8060008114615bcc576040519150601f19603f3d011682016040523d82523d6000602084013e615bd1565b606091505b5091509150615be1828286615bec565b979650505050505050565b60608315615bfb57508161151b565b825115615c0b5782518084602001fd5b60405162461bcd60e51b815260206004820181815284516024840152845185939192839260440191908501908083836000831561403457818101518382015260200161401c565b828054828255906000526020600020908101928215615ca7579160200282015b82811115615ca757825182546001600160a01b0319166001600160a01b03909116178255602090920191600190910190615c72565b50615cb3929150615d33565b5090565b828054600181600116156101000203166002900490600052602060002090601f016020900481019282615ced5760008555615ca7565b82601f10615d0657805160ff1916838001178555615ca7565b82800160010185558215615ca7579182015b82811115615ca7578251825591602001919060010190615d18565b5b80821115615cb35760008155600101615d3456fe45524332303a207472616e7366657220746f20746865207a65726f206164647265737345524332303a206275726e20616d6f756e7420657863656564732062616c616e636545524332303a20617070726f766520746f20746865207a65726f206164647265737345524332303a207472616e7366657220616d6f756e7420657863656564732062616c616e63655369676e6564536166654d6174683a206164646974696f6e206f766572666c6f77416464726573733a20756e61626c6520746f2073656e642076616c75652c20726563697069656e74206d6179206861766520726576657274656445434453413a20696e76616c6964207369676e6174757265202773272076616c7565416464726573733a20696e73756666696369656e742062616c616e636520666f722063616c6c496e697469616c697a61626c653a20636f6e747261637420697320616c726561647920696e697469616c697a656445434453413a20696e76616c6964207369676e6174757265202776272076616c756545524332303a207472616e7366657220616d6f756e74206578636565647320616c6c6f77616e636545524332303a206275726e2066726f6d20746865207a65726f206164647265737345524332303a207472616e736665722066726f6d20746865207a65726f206164647265737345524332303a20617070726f76652066726f6d20746865207a65726f20616464726573735361666545524332303a204552433230206f7065726174696f6e20646964206e6f74207375636365656445524332303a2064656372656173656420616c6c6f77616e63652062656c6f77207a65726fa26469706673582212207758e01cd0bd4071a9c904cef76ced47ff5b678e3108506979f53933a9866caa64736f6c63430007060033",
  "devdoc": {
    "kind": "dev",
    "methods": {
      "addStrategy(string,string,uint256[],uint8[],address[],bytes)": {
        "params": {
          "_name": "Name of the strategy",
          "_opEncodedDatas": "Param for every operation in the strategy",
          "_opIntegrations": "Integration to use for every operation",
          "_opTypes": "Type for every operation in the strategy",
          "_stratParams": "Num params for the strategy",
          "_symbol": "Symbol of the strategy"
        }
      },
      "allocateCapitalToStrategy(uint256)": {
        "params": {
          "_capital": "Amount of capital to allocate to the strategy"
        }
      },
      "allowance(address,address)": {
        "details": "See {IERC20-allowance}."
      },
      "approve(address,uint256)": {
        "details": "See {IERC20-approve}. Requirements: - `spender` cannot be the zero address."
      },
      "balanceOf(address)": {
        "details": "See {IERC20-balanceOf}."
      },
      "decimals()": {
        "details": "Returns the number of decimals used to get its user representation. For example, if `decimals` equals `2`, a balance of `505` tokens should be displayed to a user as `5,05` (`505 / 10 ** 2`). Tokens usually opt for a value of 18, imitating the relationship between Ether and Wei. This is the value {ERC20} uses, unless {_setupDecimals} is called. NOTE: This information is only used for _display_ purposes: it in no way affects any of the arithmetic of the contract, including {IERC20-balanceOf} and {IERC20-transfer}."
      },
      "decreaseAllowance(address,uint256)": {
        "details": "Atomically decreases the allowance granted to `spender` by the caller. This is an alternative to {approve} that can be used as a mitigation for problems described in {IERC20-approve}. Emits an {Approval} event indicating the updated allowance. Requirements: - `spender` cannot be the zero address. - `spender` must have allowance for the caller of at least `subtractedValue`."
      },
      "deposit(uint256,uint256,address,bool)": {
        "details": "WARN: If the reserve asset is different than ETH the sender needs to   have approved the garden.   Efficient to use of strategies.length == 0, otherwise can consume a lot   of gas ~2kk. Use `depositBySig` for gas efficiency.",
        "params": {
          "_amountIn": "Amount of the reserve asset that is received from contributor",
          "_minAmountOut": "Min amount of Garden shares to receive by contributor",
          "_mintNft": "Whether to mint NFT or not",
          "_to": "Address to mint Garden shares to"
        }
      },
      "finalizeStrategy(uint256,int256,uint256)": {
        "params": {
          "_burningAmount": "The amount of strategist stake to burn in case of                        strategy losses.",
          "_returns": "Profits or losses that the strategy received",
          "_rewards": "Amount of Reserve Asset to set aside forever"
        }
      },
      "getFinalizedStrategies()": {
        "returns": {
          "_0": "address[]        Returns list of addresses"
        }
      },
      "getLockedBalance(address)": {
        "params": {
          "_contributor": "Address of the account"
        },
        "returns": {
          "_0": "uint256                    Returns the amount of locked garden tokens for the account"
        }
      },
      "getStrategies()": {
        "returns": {
          "_0": "address[]        Returns list of addresses"
        }
      },
      "increaseAllowance(address,uint256)": {
        "details": "Atomically increases the allowance granted to `spender` by the caller. This is an alternative to {approve} that can be used as a mitigation for problems described in {IERC20-approve}. Emits an {Approval} event indicating the updated allowance. Requirements: - `spender` cannot be the zero address."
      },
      "initialize(address,address,address,string,string,uint256[],uint256,bool[])": {
        "params": {
          "_controller": "Address of the controller",
          "_creator": "Address of the creator",
          "_gardenParams": "Array of numeric garden params",
          "_initialContribution": "Initial Contribution by the Gardener",
          "_name": "Name of the Garden",
          "_publicGardenStrategistsStewards": "Public garden, public strategists rights and public stewards rights",
          "_reserveAsset": "Address of the reserve asset ERC20",
          "_symbol": "Symbol of the Garden"
        }
      },
      "name()": {
        "details": "Returns the name of the token."
      },
      "payKeeper(address,uint256)": {
        "details": "We assume that calling keeper functions should be less expensive than   1 million gas and the gas price should be lower than 1000 gwei.",
        "params": {
          "_fee": "The fee paid to keeper to compensate the gas cost",
          "_keeper": "Keeper that executed the transaction"
        }
      },
      "symbol()": {
        "details": "Returns the symbol of the token, usually a shorter version of the name."
      },
      "totalSupply()": {
        "details": "See {IERC20-totalSupply}."
      },
      "transfer(address,uint256)": {
        "details": "See {IERC20-transfer}. Requirements: - `recipient` cannot be the zero address. - the caller must have a balance of at least `amount`."
      },
      "transferFrom(address,address,uint256)": {
        "details": "See {IERC20-transferFrom}. Emits an {Approval} event indicating the updated allowance. This is not required by the EIP. See the note at the beginning of {ERC20}. Requirements: - `sender` and `recipient` cannot be the zero address. - `sender` must have a balance of at least `amount`. - the caller must have allowance for ``sender``'s tokens of at least `amount`."
      },
      "withdraw(uint256,uint256,address,bool,address)": {
        "details": "ATTENTION. Do not call withPenalty unless certain. If penalty is set,   it will be applied regardless of the garden state.   It is advised to first try to withdraw with no penalty and it this   reverts then try to with penalty.",
        "params": {
          "_amountIn": "Quantity of the garden token to withdrawal",
          "_minAmountOut": "Min quantity of reserve asset to receive",
          "_to": "Address to send component assets to",
          "_unwindStrategy": "Strategy to unwind",
          "_withPenalty": "Whether or not this is an immediate withdrawal"
        }
      },
      "withdrawBySig(uint256,uint256,uint256,uint256,uint256,uint256,uint8,bytes32,bytes32)": {
        "details": "Should be called instead of the `withdraw` to save gas due to   pricePerShare caculated off-chain. Doesn't allow to unwind strategies   contrary to `withdraw`.   The Keeper fee is paid out of user's shares.   The true _minAmountOut is actually _minAmountOut - _maxFee due to the   Keeper fee.",
        "params": {
          "_amountIn": "Quantity of the garden tokens to withdraw.",
          "_fee": "Actual fee keeper demands. Have to be less than _maxFee.",
          "_maxFee": "Max fee user is willing to pay keeper. Fee is                        substracted from the withdrawn amount. Fee is                        expressed in reserve asset.",
          "_minAmountOut": "Min quantity of reserve asset to receive.",
          "_nonce": "Current nonce to prevent replay attacks.",
          "_pricePerShare": "Price per share of the garden calculated off-chain by Keeper."
        }
      }
    },
    "version": 1
  },
  "userdoc": {
    "kind": "user",
    "methods": {
      "addStrategy(string,string,uint256[],uint8[],address[],bytes)": {
        "notice": "Creates a new strategy calling the factory and adds it to the array"
      },
      "allocateCapitalToStrategy(uint256)": {
        "notice": "Allocates garden capital to an strategy"
      },
      "claimReturns(address[])": {
        "notice": "User can claim the rewards from the strategies that his principal was invested in."
      },
      "deposit(uint256,uint256,address,bool)": {
        "notice": "Deposits the _amountIn in reserve asset into the garden. Gurantee to   recieve at least _minAmountOut."
      },
      "finalizeStrategy(uint256,int256,uint256)": {
        "notice": "When strategy ends puts saves returns, rewards and marks strategy as  finalized."
      },
      "getFinalizedStrategies()": {
        "notice": "Gets finalized strategies"
      },
      "getLockedBalance(address)": {
        "notice": "Checks balance locked for strategists in active strategies"
      },
      "getStrategies()": {
        "notice": "Gets current strategies"
      },
      "initialize(address,address,address,string,string,uint256[],uint256,bool[])": {
        "notice": "When a new Garden is created. All parameter validations are on the BabController contract. Validations are performed already on the BabController. WARN: If the reserve Asset is different than WETH the gardener needs to have approved the controller."
      },
      "makeGardenPublic()": {
        "notice": "Makes a previously private garden public"
      },
      "payKeeper(address,uint256)": {
        "notice": "Pays gas costs back to the keeper from executing transactions   including the past debt"
      },
      "setPublicRights(bool,bool)": {
        "notice": "Gives the right to create strategies and/or voting power to garden users"
      },
      "withdraw(uint256,uint256,address,bool,address)": {
        "notice": "Withdraws the reserve asset relative to the token participation in the garden   and sends it back to the sender."
      },
      "withdrawBySig(uint256,uint256,uint256,uint256,uint256,uint256,uint8,bytes32,bytes32)": {
        "notice": "Exchanges user's gardens shairs for amount in reserve asset. This   method allows users to leave garden and reclaim their inital investment   plus profits or losses."
      }
    },
    "version": 1
  },
  "storageLayout": {
    "storage": [
      {
        "astId": 492,
        "contract": "contracts/gardens/Garden.sol:GardenV8",
        "label": "_initialized",
        "offset": 0,
        "slot": "0",
        "type": "t_bool"
      },
      {
        "astId": 495,
        "contract": "contracts/gardens/Garden.sol:GardenV8",
        "label": "_initializing",
        "offset": 1,
        "slot": "0",
        "type": "t_bool"
      },
      {
        "astId": 1447,
        "contract": "contracts/gardens/Garden.sol:GardenV8",
        "label": "__gap",
        "offset": 0,
        "slot": "1",
        "type": "t_array(t_uint256)50_storage"
      },
      {
        "astId": 571,
        "contract": "contracts/gardens/Garden.sol:GardenV8",
        "label": "_balances",
        "offset": 0,
        "slot": "51",
        "type": "t_mapping(t_address,t_uint256)"
      },
      {
        "astId": 577,
        "contract": "contracts/gardens/Garden.sol:GardenV8",
        "label": "_allowances",
        "offset": 0,
        "slot": "52",
        "type": "t_mapping(t_address,t_mapping(t_address,t_uint256))"
      },
      {
        "astId": 579,
        "contract": "contracts/gardens/Garden.sol:GardenV8",
        "label": "_totalSupply",
        "offset": 0,
        "slot": "53",
        "type": "t_uint256"
      },
      {
        "astId": 581,
        "contract": "contracts/gardens/Garden.sol:GardenV8",
        "label": "_name",
        "offset": 0,
        "slot": "54",
        "type": "t_string_storage"
      },
      {
        "astId": 583,
        "contract": "contracts/gardens/Garden.sol:GardenV8",
        "label": "_symbol",
        "offset": 0,
        "slot": "55",
        "type": "t_string_storage"
      },
      {
        "astId": 585,
        "contract": "contracts/gardens/Garden.sol:GardenV8",
        "label": "_decimals",
        "offset": 0,
        "slot": "56",
        "type": "t_uint8"
      },
      {
        "astId": 1080,
        "contract": "contracts/gardens/Garden.sol:GardenV8",
        "label": "__gap",
        "offset": 0,
        "slot": "57",
        "type": "t_array(t_uint256)44_storage"
      },
      {
        "astId": 6418,
        "contract": "contracts/gardens/Garden.sol:GardenV8",
        "label": "_status",
        "offset": 0,
        "slot": "101",
        "type": "t_uint256"
      },
      {
        "astId": 18253,
        "contract": "contracts/gardens/Garden.sol:GardenV8",
        "label": "reserveAsset",
        "offset": 0,
        "slot": "102",
        "type": "t_address"
      },
      {
        "astId": 18256,
        "contract": "contracts/gardens/Garden.sol:GardenV8",
        "label": "controller",
        "offset": 0,
        "slot": "103",
        "type": "t_address"
      },
      {
        "astId": 18258,
        "contract": "contracts/gardens/Garden.sol:GardenV8",
        "label": "rewardsDistributor",
        "offset": 0,
        "slot": "104",
        "type": "t_contract(IRewardsDistributor)34780"
      },
      {
        "astId": 18261,
        "contract": "contracts/gardens/Garden.sol:GardenV8",
        "label": "creator",
        "offset": 0,
        "slot": "105",
        "type": "t_address"
      },
      {
        "astId": 18263,
        "contract": "contracts/gardens/Garden.sol:GardenV8",
        "label": "active",
        "offset": 20,
        "slot": "105",
        "type": "t_bool"
      },
      {
        "astId": 18266,
        "contract": "contracts/gardens/Garden.sol:GardenV8",
        "label": "privateGarden",
        "offset": 21,
        "slot": "105",
        "type": "t_bool"
      },
      {
        "astId": 18268,
        "contract": "contracts/gardens/Garden.sol:GardenV8",
        "label": "principal",
        "offset": 0,
        "slot": "106",
        "type": "t_uint256"
      },
      {
        "astId": 18271,
        "contract": "contracts/gardens/Garden.sol:GardenV8",
        "label": "reserveAssetRewardsSetAside",
        "offset": 0,
        "slot": "107",
        "type": "t_uint256"
      },
      {
        "astId": 18273,
        "contract": "contracts/gardens/Garden.sol:GardenV8",
        "label": "reserveAssetPrincipalWindow",
        "offset": 0,
        "slot": "108",
        "type": "t_uint256"
      },
      {
        "astId": 18276,
        "contract": "contracts/gardens/Garden.sol:GardenV8",
        "label": "absoluteReturns",
        "offset": 0,
        "slot": "109",
        "type": "t_int256"
      },
      {
        "astId": 18279,
        "contract": "contracts/gardens/Garden.sol:GardenV8",
        "label": "minLiquidityAsset",
        "offset": 0,
        "slot": "110",
        "type": "t_uint256"
      },
      {
        "astId": 18282,
        "contract": "contracts/gardens/Garden.sol:GardenV8",
        "label": "depositHardlock",
        "offset": 0,
        "slot": "111",
        "type": "t_uint256"
      },
      {
        "astId": 18284,
        "contract": "contracts/gardens/Garden.sol:GardenV8",
        "label": "withdrawalsOpenUntil",
        "offset": 0,
        "slot": "112",
        "type": "t_uint256"
      },
      {
        "astId": 18288,
        "contract": "contracts/gardens/Garden.sol:GardenV8",
        "label": "contributors",
        "offset": 0,
        "slot": "113",
        "type": "t_mapping(t_address,t_struct(Contributor)18250_storage)"
      },
      {
        "astId": 18291,
        "contract": "contracts/gardens/Garden.sol:GardenV8",
        "label": "totalContributors",
        "offset": 0,
        "slot": "114",
        "type": "t_uint256"
      },
      {
        "astId": 18294,
        "contract": "contracts/gardens/Garden.sol:GardenV8",
        "label": "maxContributors",
        "offset": 0,
        "slot": "115",
        "type": "t_uint256"
      },
      {
        "astId": 18297,
        "contract": "contracts/gardens/Garden.sol:GardenV8",
        "label": "maxDepositLimit",
        "offset": 0,
        "slot": "116",
        "type": "t_uint256"
      },
      {
        "astId": 18300,
        "contract": "contracts/gardens/Garden.sol:GardenV8",
        "label": "gardenInitializedAt",
        "offset": 0,
        "slot": "117",
        "type": "t_uint256"
      },
      {
        "astId": 18302,
        "contract": "contracts/gardens/Garden.sol:GardenV8",
        "label": "pid",
        "offset": 0,
        "slot": "118",
        "type": "t_uint256"
      },
      {
        "astId": 18305,
        "contract": "contracts/gardens/Garden.sol:GardenV8",
        "label": "minContribution",
        "offset": 0,
        "slot": "119",
        "type": "t_uint256"
      },
      {
        "astId": 18307,
        "contract": "contracts/gardens/Garden.sol:GardenV8",
        "label": "minGardenTokenSupply",
        "offset": 0,
        "slot": "120",
        "type": "t_uint256"
      },
      {
        "astId": 18310,
        "contract": "contracts/gardens/Garden.sol:GardenV8",
        "label": "totalStake",
        "offset": 0,
        "slot": "121",
        "type": "t_uint256"
      },
      {
        "astId": 18314,
        "contract": "contracts/gardens/Garden.sol:GardenV8",
        "label": "minVotesQuorum",
        "offset": 0,
        "slot": "122",
        "type": "t_uint256"
      },
      {
        "astId": 18317,
        "contract": "contracts/gardens/Garden.sol:GardenV8",
        "label": "minVoters",
        "offset": 0,
        "slot": "123",
        "type": "t_uint256"
      },
      {
        "astId": 18320,
        "contract": "contracts/gardens/Garden.sol:GardenV8",
        "label": "minStrategyDuration",
        "offset": 0,
        "slot": "124",
        "type": "t_uint256"
      },
      {
        "astId": 18323,
        "contract": "contracts/gardens/Garden.sol:GardenV8",
        "label": "maxStrategyDuration",
        "offset": 0,
        "slot": "125",
        "type": "t_uint256"
      },
      {
        "astId": 18326,
        "contract": "contracts/gardens/Garden.sol:GardenV8",
        "label": "strategyCooldownPeriod",
        "offset": 0,
        "slot": "126",
        "type": "t_uint256"
      },
      {
        "astId": 18329,
        "contract": "contracts/gardens/Garden.sol:GardenV8",
        "label": "strategies",
        "offset": 0,
        "slot": "127",
        "type": "t_array(t_address)dyn_storage"
      },
      {
        "astId": 18332,
        "contract": "contracts/gardens/Garden.sol:GardenV8",
        "label": "finalizedStrategies",
        "offset": 0,
        "slot": "128",
        "type": "t_array(t_address)dyn_storage"
      },
      {
        "astId": 18337,
        "contract": "contracts/gardens/Garden.sol:GardenV8",
        "label": "strategyMapping",
        "offset": 0,
        "slot": "129",
        "type": "t_mapping(t_address,t_bool)"
      },
      {
        "astId": 18342,
        "contract": "contracts/gardens/Garden.sol:GardenV8",
        "label": "isGardenStrategy",
        "offset": 0,
        "slot": "130",
        "type": "t_mapping(t_address,t_bool)"
      },
      {
        "astId": 18345,
        "contract": "contracts/gardens/Garden.sol:GardenV8",
        "label": "keeperDebt",
        "offset": 0,
        "slot": "131",
        "type": "t_uint256"
      },
      {
        "astId": 18348,
        "contract": "contracts/gardens/Garden.sol:GardenV8",
        "label": "totalKeeperFees",
        "offset": 0,
        "slot": "132",
        "type": "t_uint256"
      },
      {
        "astId": 18351,
        "contract": "contracts/gardens/Garden.sol:GardenV8",
        "label": "publicStrategists",
        "offset": 0,
        "slot": "133",
        "type": "t_bool"
      },
      {
        "astId": 18354,
        "contract": "contracts/gardens/Garden.sol:GardenV8",
        "label": "publicStewards",
        "offset": 1,
        "slot": "133",
        "type": "t_bool"
      },
      {
        "astId": 18359,
        "contract": "contracts/gardens/Garden.sol:GardenV8",
        "label": "extraCreators",
        "offset": 0,
        "slot": "134",
        "type": "t_array(t_address)4_storage"
      }
    ],
    "types": {
      "t_address": {
        "encoding": "inplace",
        "label": "address",
        "numberOfBytes": "20"
      },
      "t_array(t_address)4_storage": {
        "base": "t_address",
        "encoding": "inplace",
        "label": "address[4]",
        "numberOfBytes": "128"
      },
      "t_array(t_address)dyn_storage": {
        "base": "t_address",
        "encoding": "dynamic_array",
        "label": "address[]",
        "numberOfBytes": "32"
      },
      "t_array(t_uint256)44_storage": {
        "base": "t_uint256",
        "encoding": "inplace",
        "label": "uint256[44]",
        "numberOfBytes": "1408"
      },
      "t_array(t_uint256)50_storage": {
        "base": "t_uint256",
        "encoding": "inplace",
        "label": "uint256[50]",
        "numberOfBytes": "1600"
      },
      "t_bool": {
        "encoding": "inplace",
        "label": "bool",
        "numberOfBytes": "1"
      },
      "t_contract(IRewardsDistributor)34780": {
        "encoding": "inplace",
        "label": "contract IRewardsDistributor",
        "numberOfBytes": "20"
      },
      "t_int256": {
        "encoding": "inplace",
        "label": "int256",
        "numberOfBytes": "32"
      },
      "t_mapping(t_address,t_bool)": {
        "encoding": "mapping",
        "key": "t_address",
        "label": "mapping(address => bool)",
        "numberOfBytes": "32",
        "value": "t_bool"
      },
      "t_mapping(t_address,t_mapping(t_address,t_uint256))": {
        "encoding": "mapping",
        "key": "t_address",
        "label": "mapping(address => mapping(address => uint256))",
        "numberOfBytes": "32",
        "value": "t_mapping(t_address,t_uint256)"
      },
      "t_mapping(t_address,t_struct(Contributor)18250_storage)": {
        "encoding": "mapping",
        "key": "t_address",
        "label": "mapping(address => struct Garden.Contributor)",
        "numberOfBytes": "32",
        "value": "t_struct(Contributor)18250_storage"
      },
      "t_mapping(t_address,t_uint256)": {
        "encoding": "mapping",
        "key": "t_address",
        "label": "mapping(address => uint256)",
        "numberOfBytes": "32",
        "value": "t_uint256"
      },
      "t_string_storage": {
        "encoding": "bytes",
        "label": "string",
        "numberOfBytes": "32"
      },
      "t_struct(Contributor)18250_storage": {
        "encoding": "inplace",
        "label": "struct Garden.Contributor",
        "members": [
          {
            "astId": 18235,
            "contract": "contracts/gardens/Garden.sol:GardenV8",
            "label": "lastDepositAt",
            "offset": 0,
            "slot": "0",
            "type": "t_uint256"
          },
          {
            "astId": 18237,
            "contract": "contracts/gardens/Garden.sol:GardenV8",
            "label": "initialDepositAt",
            "offset": 0,
            "slot": "1",
            "type": "t_uint256"
          },
          {
            "astId": 18239,
            "contract": "contracts/gardens/Garden.sol:GardenV8",
            "label": "claimedAt",
            "offset": 0,
            "slot": "2",
            "type": "t_uint256"
          },
          {
            "astId": 18241,
            "contract": "contracts/gardens/Garden.sol:GardenV8",
            "label": "claimedBABL",
            "offset": 0,
            "slot": "3",
            "type": "t_uint256"
          },
          {
            "astId": 18243,
            "contract": "contracts/gardens/Garden.sol:GardenV8",
            "label": "claimedRewards",
            "offset": 0,
            "slot": "4",
            "type": "t_uint256"
          },
          {
            "astId": 18245,
            "contract": "contracts/gardens/Garden.sol:GardenV8",
            "label": "withdrawnSince",
            "offset": 0,
            "slot": "5",
            "type": "t_uint256"
          },
          {
            "astId": 18247,
            "contract": "contracts/gardens/Garden.sol:GardenV8",
            "label": "totalDeposits",
            "offset": 0,
            "slot": "6",
            "type": "t_uint256"
          },
          {
            "astId": 18249,
            "contract": "contracts/gardens/Garden.sol:GardenV8",
            "label": "nonce",
            "offset": 0,
            "slot": "7",
            "type": "t_uint256"
          }
        ],
        "numberOfBytes": "256"
      },
      "t_uint256": {
        "encoding": "inplace",
        "label": "uint256",
        "numberOfBytes": "32"
      },
      "t_uint8": {
        "encoding": "inplace",
        "label": "uint8",
        "numberOfBytes": "1"
      }
    }
  }
}