{
  "address": "0x6562365CA2BdE83a8D882B90778DeC979062010b",
  "abi": [
    {
      "anonymous": false,
      "inputs": [
        {
          "indexed": true,
          "internalType": "address",
          "name": "_strategy",
          "type": "address"
        },
        {
          "indexed": false,
          "internalType": "string",
          "name": "_name",
          "type": "string"
        },
        {
          "indexed": false,
          "internalType": "uint256",
          "name": "_expectedReturn",
          "type": "uint256"
        }
      ],
      "name": "AddStrategy",
      "type": "event"
    },
    {
      "anonymous": false,
      "inputs": [
        {
          "indexed": true,
          "internalType": "address",
          "name": "owner",
          "type": "address"
        },
        {
          "indexed": true,
          "internalType": "address",
          "name": "spender",
          "type": "address"
        },
        {
          "indexed": false,
          "internalType": "uint256",
          "name": "value",
          "type": "uint256"
        }
      ],
      "name": "Approval",
      "type": "event"
    },
    {
      "anonymous": false,
      "inputs": [
        {
          "indexed": true,
          "internalType": "address",
          "name": "_contributor",
          "type": "address"
        },
        {
          "indexed": false,
          "internalType": "uint256",
          "name": "_rewards",
          "type": "uint256"
        }
      ],
      "name": "BABLRewardsForContributor",
      "type": "event"
    },
    {
      "anonymous": false,
      "inputs": [
        {
          "indexed": true,
          "internalType": "address",
          "name": "_to",
          "type": "address"
        },
        {
          "indexed": false,
          "internalType": "uint256",
          "name": "reserveToken",
          "type": "uint256"
        },
        {
          "indexed": false,
          "internalType": "uint256",
          "name": "reserveTokenQuantity",
          "type": "uint256"
        },
        {
          "indexed": false,
          "internalType": "uint256",
          "name": "timestamp",
          "type": "uint256"
        }
      ],
      "name": "GardenDeposit",
      "type": "event"
    },
    {
      "anonymous": false,
      "inputs": [
        {
          "indexed": true,
          "internalType": "address",
          "name": "_from",
          "type": "address"
        },
        {
          "indexed": true,
          "internalType": "address",
          "name": "_to",
          "type": "address"
        },
        {
          "indexed": false,
          "internalType": "uint256",
          "name": "reserveToken",
          "type": "uint256"
        },
        {
          "indexed": false,
          "internalType": "uint256",
          "name": "reserveTokenQuantity",
          "type": "uint256"
        },
        {
          "indexed": false,
          "internalType": "uint256",
          "name": "timestamp",
          "type": "uint256"
        }
      ],
      "name": "GardenWithdrawal",
      "type": "event"
    },
    {
      "anonymous": false,
      "inputs": [
        {
          "indexed": true,
          "internalType": "address",
          "name": "_contributor",
          "type": "address"
        },
        {
          "indexed": true,
          "internalType": "uint256",
          "name": "_amount",
          "type": "uint256"
        }
      ],
      "name": "RewardsForContributor",
      "type": "event"
    },
    {
      "anonymous": false,
      "inputs": [
        {
          "indexed": true,
          "internalType": "address",
          "name": "from",
          "type": "address"
        },
        {
          "indexed": true,
          "internalType": "address",
          "name": "to",
          "type": "address"
        },
        {
          "indexed": false,
          "internalType": "uint256",
          "name": "value",
          "type": "uint256"
        }
      ],
      "name": "Transfer",
      "type": "event"
    },
    {
      "inputs": [],
      "name": "absoluteReturns",
      "outputs": [
        {
          "internalType": "int256",
          "name": "",
          "type": "int256"
        }
      ],
      "stateMutability": "view",
      "type": "function"
    },
    {
      "inputs": [],
      "name": "active",
      "outputs": [
        {
          "internalType": "bool",
          "name": "",
          "type": "bool"
        }
      ],
      "stateMutability": "view",
      "type": "function"
    },
    {
      "inputs": [
        {
          "internalType": "string",
          "name": "_name",
          "type": "string"
        },
        {
          "internalType": "string",
          "name": "_symbol",
          "type": "string"
        },
        {
          "internalType": "uint256[]",
          "name": "_stratParams",
          "type": "uint256[]"
        },
        {
          "internalType": "uint8[]",
          "name": "_opTypes",
          "type": "uint8[]"
        },
        {
          "internalType": "address[]",
          "name": "_opIntegrations",
          "type": "address[]"
        },
        {
          "internalType": "address[]",
          "name": "_opDatas",
          "type": "address[]"
        }
      ],
      "name": "addStrategy",
      "outputs": [],
      "stateMutability": "nonpayable",
      "type": "function"
    },
    {
      "inputs": [
        {
          "internalType": "uint256",
          "name": "_capital",
          "type": "uint256"
        }
      ],
      "name": "allocateCapitalToStrategy",
      "outputs": [],
      "stateMutability": "nonpayable",
      "type": "function"
    },
    {
      "inputs": [
        {
          "internalType": "address",
          "name": "owner",
          "type": "address"
        },
        {
          "internalType": "address",
          "name": "spender",
          "type": "address"
        }
      ],
      "name": "allowance",
      "outputs": [
        {
          "internalType": "uint256",
          "name": "",
          "type": "uint256"
        }
      ],
      "stateMutability": "view",
      "type": "function"
    },
    {
      "inputs": [
        {
          "internalType": "address",
          "name": "spender",
          "type": "address"
        },
        {
          "internalType": "uint256",
          "name": "amount",
          "type": "uint256"
        }
      ],
      "name": "approve",
      "outputs": [
        {
          "internalType": "bool",
          "name": "",
          "type": "bool"
        }
      ],
      "stateMutability": "nonpayable",
      "type": "function"
    },
    {
      "inputs": [
        {
          "internalType": "address",
          "name": "account",
          "type": "address"
        }
      ],
      "name": "balanceOf",
      "outputs": [
        {
          "internalType": "uint256",
          "name": "",
          "type": "uint256"
        }
      ],
      "stateMutability": "view",
      "type": "function"
    },
    {
      "inputs": [
        {
          "internalType": "address",
          "name": "_strategist",
          "type": "address"
        },
        {
          "internalType": "uint256",
          "name": "_amount",
          "type": "uint256"
        }
      ],
      "name": "burnStrategistStake",
      "outputs": [],
      "stateMutability": "nonpayable",
      "type": "function"
    },
    {
      "inputs": [
        {
          "internalType": "address[]",
          "name": "_finalizedStrategies",
          "type": "address[]"
        }
      ],
      "name": "claimReturns",
      "outputs": [],
      "stateMutability": "nonpayable",
      "type": "function"
    },
    {
      "inputs": [],
      "name": "controller",
      "outputs": [
        {
          "internalType": "address",
          "name": "",
          "type": "address"
        }
      ],
      "stateMutability": "view",
      "type": "function"
    },
    {
      "inputs": [],
      "name": "creator",
      "outputs": [
        {
          "internalType": "address",
          "name": "",
          "type": "address"
        }
      ],
      "stateMutability": "view",
      "type": "function"
    },
    {
      "inputs": [],
      "name": "decimals",
      "outputs": [
        {
          "internalType": "uint8",
          "name": "",
          "type": "uint8"
        }
      ],
      "stateMutability": "view",
      "type": "function"
    },
    {
      "inputs": [
        {
          "internalType": "address",
          "name": "spender",
          "type": "address"
        },
        {
          "internalType": "uint256",
          "name": "subtractedValue",
          "type": "uint256"
        }
      ],
      "name": "decreaseAllowance",
      "outputs": [
        {
          "internalType": "bool",
          "name": "",
          "type": "bool"
        }
      ],
      "stateMutability": "nonpayable",
      "type": "function"
    },
    {
      "inputs": [
        {
          "internalType": "uint256",
          "name": "_reserveAssetQuantity",
          "type": "uint256"
        },
        {
          "internalType": "uint256",
          "name": "_minGardenTokenReceiveQuantity",
          "type": "uint256"
        },
        {
          "internalType": "address",
          "name": "_to",
          "type": "address"
        },
        {
          "internalType": "bool",
          "name": "_mintNft",
          "type": "bool"
        }
      ],
      "name": "deposit",
      "outputs": [],
      "stateMutability": "payable",
      "type": "function"
    },
    {
      "inputs": [],
      "name": "depositHardlock",
      "outputs": [
        {
          "internalType": "uint256",
          "name": "",
          "type": "uint256"
        }
      ],
      "stateMutability": "view",
      "type": "function"
    },
    {
      "inputs": [
        {
          "internalType": "address",
          "name": "_strategy",
          "type": "address"
        }
      ],
      "name": "expireCandidateStrategy",
      "outputs": [],
      "stateMutability": "nonpayable",
      "type": "function"
    },
    {
      "inputs": [],
      "name": "gardenInitializedAt",
      "outputs": [
        {
          "internalType": "uint256",
          "name": "",
          "type": "uint256"
        }
      ],
      "stateMutability": "view",
      "type": "function"
    },
    {
      "inputs": [
        {
          "internalType": "address",
          "name": "_contributor",
          "type": "address"
        }
      ],
      "name": "getContributor",
      "outputs": [
        {
          "internalType": "uint256",
          "name": "",
          "type": "uint256"
        },
        {
          "internalType": "uint256",
          "name": "",
          "type": "uint256"
        },
        {
          "internalType": "uint256",
          "name": "",
          "type": "uint256"
        },
        {
          "internalType": "uint256",
          "name": "",
          "type": "uint256"
        },
        {
          "internalType": "uint256",
          "name": "",
          "type": "uint256"
        },
        {
          "internalType": "uint256",
          "name": "",
          "type": "uint256"
        },
        {
          "internalType": "uint256",
          "name": "",
          "type": "uint256"
        },
        {
          "internalType": "uint256",
          "name": "",
          "type": "uint256"
        },
        {
          "internalType": "uint256",
          "name": "",
          "type": "uint256"
        }
      ],
      "stateMutability": "view",
      "type": "function"
    },
    {
      "inputs": [
        {
          "internalType": "uint256",
          "name": "_gardenTokenQuantity",
          "type": "uint256"
        }
      ],
      "name": "getExpectedReserveWithdrawalQuantity",
      "outputs": [
        {
          "internalType": "uint256",
          "name": "",
          "type": "uint256"
        }
      ],
      "stateMutability": "view",
      "type": "function"
    },
    {
      "inputs": [],
      "name": "getFinalizedStrategies",
      "outputs": [
        {
          "internalType": "address[]",
          "name": "",
          "type": "address[]"
        }
      ],
      "stateMutability": "view",
      "type": "function"
    },
    {
      "inputs": [
        {
          "internalType": "uint256",
          "name": "_reserveAssetQuantity",
          "type": "uint256"
        },
        {
          "internalType": "bool",
          "name": "isDeposit",
          "type": "bool"
        }
      ],
      "name": "getGardenTokenMintQuantity",
      "outputs": [
        {
          "internalType": "uint256",
          "name": "",
          "type": "uint256"
        }
      ],
      "stateMutability": "view",
      "type": "function"
    },
    {
      "inputs": [
        {
          "internalType": "address",
          "name": "_contributor",
          "type": "address"
        }
      ],
      "name": "getLockedBalance",
      "outputs": [
        {
          "internalType": "uint256",
          "name": "",
          "type": "uint256"
        }
      ],
      "stateMutability": "view",
      "type": "function"
    },
    {
      "inputs": [],
      "name": "getStrategies",
      "outputs": [
        {
          "internalType": "address[]",
          "name": "",
          "type": "address[]"
        }
      ],
      "stateMutability": "view",
      "type": "function"
    },
    {
      "inputs": [],
      "name": "guestListEnabled",
      "outputs": [
        {
          "internalType": "bool",
          "name": "",
          "type": "bool"
        }
      ],
      "stateMutability": "view",
      "type": "function"
    },
    {
      "inputs": [
        {
          "internalType": "address",
          "name": "spender",
          "type": "address"
        },
        {
          "internalType": "uint256",
          "name": "addedValue",
          "type": "uint256"
        }
      ],
      "name": "increaseAllowance",
      "outputs": [
        {
          "internalType": "bool",
          "name": "",
          "type": "bool"
        }
      ],
      "stateMutability": "nonpayable",
      "type": "function"
    },
    {
      "inputs": [
        {
          "internalType": "address",
          "name": "_reserveAsset",
          "type": "address"
        },
        {
          "internalType": "address",
          "name": "_controller",
          "type": "address"
        },
        {
          "internalType": "address",
          "name": "_creator",
          "type": "address"
        },
        {
          "internalType": "string",
          "name": "_name",
          "type": "string"
        },
        {
          "internalType": "string",
          "name": "_symbol",
          "type": "string"
        },
        {
          "internalType": "uint256[]",
          "name": "_gardenParams",
          "type": "uint256[]"
        },
        {
          "internalType": "uint256",
          "name": "_initialContribution",
          "type": "uint256"
        }
      ],
      "name": "initialize",
      "outputs": [],
      "stateMutability": "payable",
      "type": "function"
    },
    {
      "inputs": [
        {
          "internalType": "address",
          "name": "",
          "type": "address"
        }
      ],
      "name": "isGardenStrategy",
      "outputs": [
        {
          "internalType": "bool",
          "name": "",
          "type": "bool"
        }
      ],
      "stateMutability": "view",
      "type": "function"
    },
    {
      "inputs": [],
      "name": "keeperDebt",
      "outputs": [
        {
          "internalType": "uint256",
          "name": "",
          "type": "uint256"
        }
      ],
      "stateMutability": "view",
      "type": "function"
    },
    {
      "inputs": [],
      "name": "makeGardenPublic",
      "outputs": [],
      "stateMutability": "nonpayable",
      "type": "function"
    },
    {
      "inputs": [],
      "name": "maxContributors",
      "outputs": [
        {
          "internalType": "uint256",
          "name": "",
          "type": "uint256"
        }
      ],
      "stateMutability": "view",
      "type": "function"
    },
    {
      "inputs": [],
      "name": "maxDepositLimit",
      "outputs": [
        {
          "internalType": "uint256",
          "name": "",
          "type": "uint256"
        }
      ],
      "stateMutability": "view",
      "type": "function"
    },
    {
      "inputs": [],
      "name": "maxStrategyDuration",
      "outputs": [
        {
          "internalType": "uint256",
          "name": "",
          "type": "uint256"
        }
      ],
      "stateMutability": "view",
      "type": "function"
    },
    {
      "inputs": [],
      "name": "minContribution",
      "outputs": [
        {
          "internalType": "uint256",
          "name": "",
          "type": "uint256"
        }
      ],
      "stateMutability": "view",
      "type": "function"
    },
    {
      "inputs": [],
      "name": "minLiquidityAsset",
      "outputs": [
        {
          "internalType": "uint256",
          "name": "",
          "type": "uint256"
        }
      ],
      "stateMutability": "view",
      "type": "function"
    },
    {
      "inputs": [],
      "name": "minStrategyDuration",
      "outputs": [
        {
          "internalType": "uint256",
          "name": "",
          "type": "uint256"
        }
      ],
      "stateMutability": "view",
      "type": "function"
    },
    {
      "inputs": [],
      "name": "minVoters",
      "outputs": [
        {
          "internalType": "uint256",
          "name": "",
          "type": "uint256"
        }
      ],
      "stateMutability": "view",
      "type": "function"
    },
    {
      "inputs": [],
      "name": "minVotesQuorum",
      "outputs": [
        {
          "internalType": "uint256",
          "name": "",
          "type": "uint256"
        }
      ],
      "stateMutability": "view",
      "type": "function"
    },
    {
      "inputs": [],
      "name": "name",
      "outputs": [
        {
          "internalType": "string",
          "name": "",
          "type": "string"
        }
      ],
      "stateMutability": "view",
      "type": "function"
    },
    {
      "inputs": [
        {
          "internalType": "address payable",
          "name": "_keeper",
          "type": "address"
        },
        {
          "internalType": "uint256",
          "name": "_fee",
          "type": "uint256"
        }
      ],
      "name": "payKeeper",
      "outputs": [],
      "stateMutability": "nonpayable",
      "type": "function"
    },
    {
      "inputs": [],
      "name": "principal",
      "outputs": [
        {
          "internalType": "uint256",
          "name": "",
          "type": "uint256"
        }
      ],
      "stateMutability": "view",
      "type": "function"
    },
    {
      "inputs": [],
      "name": "reserveAsset",
      "outputs": [
        {
          "internalType": "address",
          "name": "",
          "type": "address"
        }
      ],
      "stateMutability": "view",
      "type": "function"
    },
    {
      "inputs": [],
      "name": "reserveAssetPrincipalWindow",
      "outputs": [
        {
          "internalType": "uint256",
          "name": "",
          "type": "uint256"
        }
      ],
      "stateMutability": "view",
      "type": "function"
    },
    {
      "inputs": [],
      "name": "reserveAssetRewardsSetAside",
      "outputs": [
        {
          "internalType": "uint256",
          "name": "",
          "type": "uint256"
        }
      ],
      "stateMutability": "view",
      "type": "function"
    },
    {
      "inputs": [
        {
          "internalType": "bool",
          "name": "_newValue",
          "type": "bool"
        }
      ],
      "name": "setActive",
      "outputs": [],
      "stateMutability": "nonpayable",
      "type": "function"
    },
    {
      "inputs": [
        {
          "internalType": "uint256",
          "name": "_amount",
          "type": "uint256"
        },
        {
          "internalType": "uint256",
          "name": "_rewards",
          "type": "uint256"
        },
        {
          "internalType": "int256",
          "name": "_returns",
          "type": "int256"
        },
        {
          "internalType": "address",
          "name": "_strategy",
          "type": "address"
        }
      ],
      "name": "startWithdrawalWindow",
      "outputs": [],
      "stateMutability": "nonpayable",
      "type": "function"
    },
    {
      "inputs": [],
      "name": "strategyCooldownPeriod",
      "outputs": [
        {
          "internalType": "uint256",
          "name": "",
          "type": "uint256"
        }
      ],
      "stateMutability": "view",
      "type": "function"
    },
    {
      "inputs": [
        {
          "internalType": "address",
          "name": "",
          "type": "address"
        }
      ],
      "name": "strategyMapping",
      "outputs": [
        {
          "internalType": "bool",
          "name": "",
          "type": "bool"
        }
      ],
      "stateMutability": "view",
      "type": "function"
    },
    {
      "inputs": [],
      "name": "symbol",
      "outputs": [
        {
          "internalType": "string",
          "name": "",
          "type": "string"
        }
      ],
      "stateMutability": "view",
      "type": "function"
    },
    {
      "inputs": [],
      "name": "totalContributors",
      "outputs": [
        {
          "internalType": "uint256",
          "name": "",
          "type": "uint256"
        }
      ],
      "stateMutability": "view",
      "type": "function"
    },
    {
      "inputs": [],
      "name": "totalStake",
      "outputs": [
        {
          "internalType": "uint256",
          "name": "",
          "type": "uint256"
        }
      ],
      "stateMutability": "view",
      "type": "function"
    },
    {
      "inputs": [],
      "name": "totalSupply",
      "outputs": [
        {
          "internalType": "uint256",
          "name": "",
          "type": "uint256"
        }
      ],
      "stateMutability": "view",
      "type": "function"
    },
    {
      "inputs": [
        {
          "internalType": "address",
          "name": "recipient",
          "type": "address"
        },
        {
          "internalType": "uint256",
          "name": "amount",
          "type": "uint256"
        }
      ],
      "name": "transfer",
      "outputs": [
        {
          "internalType": "bool",
          "name": "",
          "type": "bool"
        }
      ],
      "stateMutability": "nonpayable",
      "type": "function"
    },
    {
      "inputs": [
        {
          "internalType": "address",
          "name": "sender",
          "type": "address"
        },
        {
          "internalType": "address",
          "name": "recipient",
          "type": "address"
        },
        {
          "internalType": "uint256",
          "name": "amount",
          "type": "uint256"
        }
      ],
      "name": "transferFrom",
      "outputs": [
        {
          "internalType": "bool",
          "name": "",
          "type": "bool"
        }
      ],
      "stateMutability": "nonpayable",
      "type": "function"
    },
    {
      "inputs": [
        {
          "internalType": "uint256",
          "name": "_gardenTokenQuantity",
          "type": "uint256"
        },
        {
          "internalType": "uint256",
          "name": "_minReserveReceiveQuantity",
          "type": "uint256"
        },
        {
          "internalType": "address payable",
          "name": "_to",
          "type": "address"
        },
        {
          "internalType": "bool",
          "name": "_withPenalty",
          "type": "bool"
        },
        {
          "internalType": "address",
          "name": "_unwindStrategy",
          "type": "address"
        }
      ],
      "name": "withdraw",
      "outputs": [],
      "stateMutability": "nonpayable",
      "type": "function"
    },
    {
      "inputs": [],
      "name": "withdrawalsOpenUntil",
      "outputs": [
        {
          "internalType": "uint256",
          "name": "",
          "type": "uint256"
        }
      ],
      "stateMutability": "view",
      "type": "function"
    },
    {
      "stateMutability": "payable",
      "type": "receive"
    }
  ],
  "transactionHash": "0x71b92ebcefee413d03946b0238026e4898bcedf0ef53736b5e16d85a0d500aec",
  "args": [],
  "solcInputHash": "9848dc78f52f46992b529e31fb1275ff",
  "bytecode": "0x608060405267016345785d8a0000607a5534801561001c57600080fd5b5060016065556154ef806100316000396000f3fe6080604052600436106103645760003560e01c80637ce9059c116101c6578063b304b815116100f7578063cb12233b11610095578063f251fc8c1161006f578063f251fc8c14611032578063f77c479114611047578063f82816261461105c578063f85cb5c8146110715761036b565b8063cb12233b14610f91578063daeffcca14610fa6578063dd62ed3e14610ff75761036b565b8063b63c44e7116100d1578063b63c44e714610f1f578063b9e6753914610f34578063ba5d307814610f49578063c408689314610f5e5761036b565b8063b304b81514610e73578063b49a60bb14610ed8578063b59adc5914610eed5761036b565b80639ab6374211610164578063a9059cbb1161013e578063a9059cbb14610dc6578063aaffadf314610dff578063acec338a14610e14578063b2644e6614610e405761036b565b80639ab6374214610d3f578063a457c2d714610d78578063a63c643d14610db15761036b565b80638bbde0fd116101a05780638bbde0fd14610ceb5780638ee330b014610d0057806395cdbedb14610d1557806395d89b4114610d2a5761036b565b80637ce9059c14610cac57806386fa506314610cc15780638b0e9f3f14610cd65761036b565b806339509351116102a05780635a16656a1161023e578063695f3f5d11610218578063695f3f5d14610c1557806370a0823114610c4f5780637550ed1814610c82578063792e42e214610c975761036b565b80635a16656a14610a4c5780635fe3d4ce14610a6157806360d442ca14610c005761036b565b80633d8270f51161027a5780633d8270f51461097e5780633deddb3f146109f85780634422b0dc14610a0d5780634edfb99a14610a375761036b565b806339509351146108955780633a821925146108ce5780633ad8d04d146109015761036b565b80631e6ea56f1161030d578063250caaa8116102e7578063250caaa8146107d7578063297ce5981461081c5780632befcc5c14610831578063313ce5671461086a5761036b565b80631e6ea56f146104e757806322385e381461076a57806323b872dd146107945761036b565b806306fdde031161033e57806306fdde03146103fd578063095ea7b31461048757806318160ddd146104c05761036b565b806302d05d3f1461037057806302fb0c5e146103a157806306061dfa146103ca5761036b565b3661036b57005b600080fd5b34801561037c57600080fd5b50610385611086565b604080516001600160a01b039092168252519081900360200190f35b3480156103ad57600080fd5b506103b6611095565b604080519115158252519081900360200190f35b3480156103d657600080fd5b506103b6600480360360208110156103ed57600080fd5b50356001600160a01b03166110a5565b34801561040957600080fd5b506104126110ba565b6040805160208082528351818301528351919283929083019185019080838360005b8381101561044c578181015183820152602001610434565b50505050905090810190601f1680156104795780820380516001836020036101000a031916815260200191505b509250505060405180910390f35b34801561049357600080fd5b506103b6600480360360408110156104aa57600080fd5b506001600160a01b038135169060200135611150565b3480156104cc57600080fd5b506104d561116e565b60408051918252519081900360200190f35b3480156104f357600080fd5b50610768600480360360c081101561050a57600080fd5b81019060208101813564010000000081111561052557600080fd5b82018360208201111561053757600080fd5b8035906020019184600183028401116401000000008311171561055957600080fd5b91908080601f01602080910402602001604051908101604052809392919081815260200183838082843760009201919091525092959493602081019350359150506401000000008111156105ac57600080fd5b8201836020820111156105be57600080fd5b803590602001918460018302840111640100000000831117156105e057600080fd5b91908080601f016020809104026020016040519081016040528093929190818152602001838380828437600092019190915250929594936020810193503591505064010000000081111561063357600080fd5b82018360208201111561064557600080fd5b8035906020019184602083028401116401000000008311171561066757600080fd5b91939092909160208101903564010000000081111561068557600080fd5b82018360208201111561069757600080fd5b803590602001918460208302840111640100000000831117156106b957600080fd5b9193909290916020810190356401000000008111156106d757600080fd5b8201836020820111156106e957600080fd5b8035906020019184602083028401116401000000008311171561070b57600080fd5b91939092909160208101903564010000000081111561072957600080fd5b82018360208201111561073b57600080fd5b8035906020019184602083028401116401000000008311171561075d57600080fd5b509092509050611174565b005b34801561077657600080fd5b506104d56004803603602081101561078d57600080fd5b503561177e565b3480156107a057600080fd5b506103b6600480360360608110156107b757600080fd5b506001600160a01b03813581169160208101359091169060400135611797565b3480156107e357600080fd5b50610768600480360360808110156107fa57600080fd5b50803590602081013590604081013590606001356001600160a01b031661181f565b34801561082857600080fd5b506104d5611a2f565b34801561083d57600080fd5b506107686004803603604081101561085457600080fd5b506001600160a01b038135169060200135611a35565b34801561087657600080fd5b5061087f611a66565b6040805160ff9092168252519081900360200190f35b3480156108a157600080fd5b506103b6600480360360408110156108b857600080fd5b506001600160a01b038135169060200135611a6f565b3480156108da57600080fd5b506103b6600480360360208110156108f157600080fd5b50356001600160a01b0316611abd565b34801561090d57600080fd5b506107686004803603602081101561092457600080fd5b81019060208101813564010000000081111561093f57600080fd5b82018360208201111561095157600080fd5b8035906020019184602083028401116401000000008311171561097357600080fd5b509092509050611ad2565b34801561098a57600080fd5b506109b1600480360360208110156109a157600080fd5b50356001600160a01b0316611f5d565b60408051998a5260208a0198909852888801969096526060880194909452608087019290925260a086015260c085015260e084015261010083015251908190036101200190f35b348015610a0457600080fd5b506104d5612095565b348015610a1957600080fd5b5061076860048036036020811015610a3057600080fd5b503561209b565b348015610a4357600080fd5b506103b6612186565b348015610a5857600080fd5b506104d5612196565b610768600480360360e0811015610a7757600080fd5b6001600160a01b0382358116926020810135821692604082013590921691810190608081016060820135640100000000811115610ab357600080fd5b820183602082011115610ac557600080fd5b80359060200191846001830284011164010000000083111715610ae757600080fd5b91908080601f0160208091040260200160405190810160405280939291908181526020018383808284376000920191909152509295949360208101935035915050640100000000811115610b3a57600080fd5b820183602082011115610b4c57600080fd5b80359060200191846001830284011164010000000083111715610b6e57600080fd5b91908080601f0160208091040260200160405190810160405280939291908181526020018383808284376000920191909152509295949360208101935035915050640100000000811115610bc157600080fd5b820183602082011115610bd357600080fd5b80359060200191846020830284011164010000000083111715610bf557600080fd5b91935091503561219c565b348015610c0c57600080fd5b506104d56125dd565b61076860048036036080811015610c2b57600080fd5b508035906020810135906001600160a01b03604082013516906060013515156125e3565b348015610c5b57600080fd5b506104d560048036036020811015610c7257600080fd5b50356001600160a01b0316612b4f565b348015610c8e57600080fd5b506104d5612b6a565b348015610ca357600080fd5b506104d5612b70565b348015610cb857600080fd5b506104d5612b76565b348015610ccd57600080fd5b506104d5612b7c565b348015610ce257600080fd5b506104d5612b82565b348015610cf757600080fd5b506104d5612b88565b348015610d0c57600080fd5b506104d5612b8e565b348015610d2157600080fd5b506104d5612b94565b348015610d3657600080fd5b50610412612b9a565b348015610d4b57600080fd5b5061076860048036036040811015610d6257600080fd5b506001600160a01b038135169060200135612bfb565b348015610d8457600080fd5b506103b660048036036040811015610d9b57600080fd5b506001600160a01b038135169060200135612cf5565b348015610dbd57600080fd5b506104d5612d5d565b348015610dd257600080fd5b506103b660048036036040811015610de957600080fd5b506001600160a01b038135169060200135612d63565b348015610e0b57600080fd5b506104d5612d77565b348015610e2057600080fd5b5061076860048036036020811015610e3757600080fd5b50351515612d7d565b348015610e4c57600080fd5b5061076860048036036020811015610e6357600080fd5b50356001600160a01b0316612dd4565b348015610e7f57600080fd5b50610e88612e7d565b60408051602080825283518183015283519192839290830191858101910280838360005b83811015610ec4578181015183820152602001610eac565b505050509050019250505060405180910390f35b348015610ee457600080fd5b50610e88612ede565b348015610ef957600080fd5b506104d560048036036040811015610f1057600080fd5b50803590602001351515612f3e565b348015610f2b57600080fd5b506104d561312a565b348015610f4057600080fd5b506104d5613130565b348015610f5557600080fd5b506104d5613136565b348015610f6a57600080fd5b506104d560048036036020811015610f8157600080fd5b50356001600160a01b031661313c565b348015610f9d57600080fd5b506104d5613294565b348015610fb257600080fd5b50610768600480360360a0811015610fc957600080fd5b508035906020810135906001600160a01b03604082013581169160608101351515916080909101351661329a565b34801561100357600080fd5b506104d56004803603604081101561101a57600080fd5b506001600160a01b03813581169160200135166134c9565b34801561103e57600080fd5b506104d56134f4565b34801561105357600080fd5b506103856134fa565b34801561106857600080fd5b50610768613509565b34801561107d57600080fd5b506103856135cb565b6069546001600160a01b031681565b606954600160a01b900460ff1681565b60826020526000908152604090205460ff1681565b60368054604080516020601f60026000196101006001881615020190951694909404938401819004810282018101909252828152606093909290918301828280156111465780601f1061111b57610100808354040283529160200191611146565b820191906000526020600020905b81548152906001019060200180831161112957829003601f168201915b5050505050905090565b600061116461115d6135da565b84846135de565b5060015b92915050565b60355490565b61117c6136ca565b6111846136ec565b606754604080517fc8ed947f00000000000000000000000000000000000000000000000000000000815290516112a9926001600160a01b03169163c8ed947f916004808301926020929190829003018186803b1580156111e357600080fd5b505afa1580156111f7573d6000803e3d6000fd5b505050506040513d602081101561120d57600080fd5b5051604080517f5066c71400000000000000000000000000000000000000000000000000000000815230600482015233602482015290516001600160a01b0390921691635066c71491604480820192602092909190829003018186803b15801561127657600080fd5b505afa15801561128a573d6000803e3d6000fd5b505050506040513d60208110156112a057600080fd5b5051601e613706565b607f546112ba90601411601a613706565b6112c860048814604d613706565b606754604080517f9ef3571000000000000000000000000000000000000000000000000000000000815290516000926001600160a01b031691639ef35710916004808301926020929190829003018186803b15801561132657600080fd5b505afa15801561133a573d6000803e3d6000fd5b505050506040513d602081101561135057600080fd5b81019080805190602001909291905050506001600160a01b03166378afca3e8c8c33308e8e6040518763ffffffff1660e01b8152600401808060200180602001876001600160a01b03168152602001866001600160a01b031681526020018060200184810384528a818151815260200191508051906020019080838360005b838110156113e75781810151838201526020016113cf565b50505050905090810190601f1680156114145780820380516001836020036101000a031916815260200191505b5084810383528951815289516020918201918b019080838360005b8381101561144757818101518382015260200161142f565b50505050905090810190601f1680156114745780820380516001836020036101000a031916815260200191505b508481038252868682818152602001925060200280828437600081840152601f19601f8201169050808301925050509950505050505050505050602060405180830381600087803b1580156114c857600080fd5b505af11580156114dc573d6000803e3d6000fd5b505050506040513d60208110156114f257600080fd5b50516001600160a01b0381166000908152608160205260409020805460ff19166001908117909155909150611546908a908a9081811061152e57fe5b9050602002013560795461371490919063ffffffff16565b607955607f80546001810182556000919091527f66925e85f1a4743fd8d60ba595ed74887b7caf321dd83b21e04d77c1153834080180546001600160a01b0319166001600160a01b0383169081179091556040517fc2ea0bc40000000000000000000000000000000000000000000000000000000081526060600482019081526064820189905263c2ea0bc4918a918a918a918a918a918a918190602481019060448101906084018a60208b0280828437600083820152601f01601f19169091018581038452888152602090810191508990890280828437600083820152601f01601f19169091018581038352868152602090810191508790870280828437600081840152601f19601f8201169050808301925050509950505050505050505050600060405180830381600087803b15801561168157600080fd5b505af1158015611695573d6000803e3d6000fd5b5050506001600160a01b0382166000818152608260205260409020805460ff1916600117905590507f9e896c245c70d187fa97788cded4bca6b7546fa444cc7b0c111c57b592affa018c8b8b60038181106116ec57fe5b905060200201356040518080602001838152602001828103825284818151815260200191508051906020019080838360005b8381101561173657818101518382015260200161171e565b50505050905090810190601f1680156117635780820380516001836020036101000a031916815260200191505b50935050505060405180910390a25050505050505050505050565b606654600090611168906001600160a01b031683613724565b60006117a48484846138ab565b611814846117b06135da565b61180f856040518060600160405280602881526020016153d9602891396001600160a01b038a166000908152603460205260408120906117ee6135da565b6001600160a01b031681526020810191909152604001600020549190613a08565b6135de565b5060015b9392505050565b611827613a9f565b336000908152608160205260409020546118c69060ff1680156118bf5750306001600160a01b0316336001600160a01b03166356ba88b86040518163ffffffff1660e01b815260040160206040518083038186803b15801561188857600080fd5b505afa15801561189c573d6000803e3d6000fd5b505050506040513d60208110156118b257600080fd5b50516001600160a01b0316145b6014613706565b426070541115611904576118fc6118f56118eb42607054613b3890919063ffffffff16565b62093a8090613b38565b4290613714565b607055611915565b6119114262093a80613714565b6070555b606b546119229084613714565b606b55606c546119329085613714565b606c55606d546119429083613b48565b606d819055506119b581607f8054806020026020016040519081016040528092919081815260200182805480156119a257602002820191906000526020600020905b81546001600160a01b03168152600190910190602001808311611984575b5050505050613bad90919063ffffffff16565b80516119c991607f916020909101906151a6565b5060808054600181019091557f59f3fb058c6bba7a4e76396639fc4dd21bd59163db798899cf56cef48b3c9ec90180546001600160a01b039092166001600160a01b0319909216821790556000908152608160205260409020805460ff19169055505050565b607d5481565b611a3d613c2a565b611a4682612b4f565b8110611a5857611a5582612b4f565b90505b611a628282613c50565b5050565b60385460ff1690565b6000611164611a7c6135da565b8461180f8560346000611a8d6135da565b6001600160a01b03908116825260208083019390935260409182016000908120918c168152925290205490613d4c565b60816020526000908152604090205460ff1681565b60026065541415611b2a576040805162461bcd60e51b815260206004820152601f60248201527f5265656e7472616e637947756172643a207265656e7472616e742063616c6c00604482015290519081900360640190fd5b6002606555611b376136ec565b3360009081526071602052604090206002810154611b58904211600c613706565b60408051600780825261010082019092526000916020820160e08036833750506068546040517f69795e9300000000000000000000000000000000000000000000000000000000815230600482018181523360248401819052606060448501908152606485018b90529697506001600160a01b03909416956369795e9395509193928a928a9291608401846020850280828437600081840152601f19601f8201169050808301925050509550505050505060006040518083038186803b158015611c2157600080fd5b505afa158015611c35573d6000803e3d6000fd5b505050506040513d6000823e601f3d908101601f191682016040526020811015611c5e57600080fd5b8101908080516040519392919084640100000000821115611c7e57600080fd5b908301906020820185811115611c9357600080fd5b8251866020820283011164010000000082111715611cb057600080fd5b82525081516020918201928201910280838360005b83811015611cdd578181015183820152602001611cc5565b505050509050016040525050509050611d2d600082600581518110611cfe57fe5b60200260200101511180611d265750600082600681518110611d1c57fe5b6020026020010151115b6052613706565b600081600681518110611d3c57fe5b60200260200101511115611e1d57611d7581600681518110611d5a57fe5b6020026020010151836004015461371490919063ffffffff16565b8260040181905550611da681600681518110611d8d57fe5b6020026020010151606b54613b3890919063ffffffff16565b606b554260028301558051611dd190339083906006908110611dc457fe5b6020026020010151613da6565b80600681518110611dde57fe5b6020026020010151336001600160a01b03167f4dacaff8a707e7b54321fbdedb3b65d1f3316b59787949c034bae8946d6ff4e160405160405180910390a35b600081600581518110611e2c57fe5b60200260200101511115611f5257611e6581600581518110611e4a57fe5b6020026020010151836003015461371490919063ffffffff16565b600383015542600283015560685481516001600160a01b039091169063a8d9a78190339084906005908110611e9657fe5b60200260200101516040518363ffffffff1660e01b815260040180836001600160a01b0316815260200182815260200192505050600060405180830381600087803b158015611ee457600080fd5b505af1158015611ef8573d6000803e3d6000fd5b50505050336001600160a01b03167f09703ae9c781fcf86e1d44c6d854c2684b3f5dcfe234dfc64f4d356d0e3cd73e82600581518110611f3457fe5b60200260200101516040518082815260200191505060405180910390a25b505060016065555050565b6001600160a01b03808216600081815260716020908152604080832060685460018201548351633b015eef60e11b81523060048201526024810197909752604487015242606487015291519395869586958695869586958695869586959294869490921692637602bdde92608480840193919291829003018186803b158015611fe557600080fd5b505afa158015611ff9573d6000803e3d6000fd5b505050506040513d602081101561200f57600080fd5b50519050600061201e8d612b4f565b9050600061202b8e61313c565b905083600001548460010154856002015486600301548760040154886005015489600601541161205c57600061206f565b600589015460068a015461206f91613b38565b87878a9c509c509c509c509c509c509c509c509c50505050509193959799909294969850565b607e5481565b6120a3613c2a565b6120ab6136ca565b6120b3613e6e565b600061213982606760009054906101000a90046001600160a01b03166001600160a01b031663313754776040518163ffffffff1660e01b815260040160206040518083038186803b15801561210757600080fd5b505afa15801561211b573d6000803e3d6000fd5b505050506040513d602081101561213157600080fd5b505190613e83565b9050612159612146613ea1565b6121508484613714565b11156004613706565b60665461216f906001600160a01b031682613f05565b606654611a62906001600160a01b03163384613f9d565b606954600160a81b900460ff1681565b607b5481565b600054610100900460ff16806121b557506121b5614022565b806121c3575060005460ff16155b6121fe5760405162461bcd60e51b815260040180806020018281038252602e8152602001806153ab602e913960400191505060405180910390fd5b600054610100900460ff16158015612229576000805460ff1961ff0019909116610100171660011790555b6122386032875110604f613706565b6122d56001600160a01b0388161580159061225b57506001600160a01b03891615155b80156122ce575060008a6001600160a01b031663313ce5676040518163ffffffff1660e01b815260040160206040518083038186803b15801561229d57600080fd5b505afa1580156122b1573d6000803e3d6000fd5b505050506040513d60208110156122c757600080fd5b505160ff16115b6017613706565b6122e360098414604e613706565b612366886001600160a01b031663f979cdd98b6040518263ffffffff1660e01b815260040180826001600160a01b0316815260200191505060206040518083038186803b15801561233357600080fd5b505afa158015612347573d6000803e3d6000fd5b505050506040513d602081101561235d57600080fd5b5051600e613706565b6123708686614033565b606780546001600160a01b03808b166001600160a01b03199283168117909355606680548d831690841617905560698054918b1691909216179055604080517f7177fec90000000000000000000000000000000000000000000000000000000081529051637177fec991600480820192602092909190829003018186803b1580156123fa57600080fd5b505afa15801561240e573d6000803e3d6000fd5b505050506040513d602081101561242457600080fd5b5051607355606754604080517f3f2a554000000000000000000000000000000000000000000000000000000000815290516001600160a01b0390921691633f2a554091600480820192602092909190829003018186803b15801561248757600080fd5b505afa15801561249b573d6000803e3d6000fd5b505050506040513d60208110156124b157600080fd5b5051606880546001600160a01b0319166001600160a01b0392831617908190556124df911615156017613706565b6069805460ff60a81b1916600160a81b1790556125ad82858560008161250157fe5b905060200201358686600181811061251557fe5b905060200201358787600281811061252957fe5b905060200201358888600381811061253d57fe5b905060200201358989600481811061255157fe5b905060200201358a8a600581811061256557fe5b905060200201358b8b600681811061257957fe5b905060200201358c8c600781811061258d57fe5b905060200201358d8d60088181106125a157fe5b905060200201356140e8565b6069805460ff60a01b1916600160a01b17905580156125d2576000805461ff00191690555b505050505050505050565b60835481565b6002606554141561263b576040805162461bcd60e51b815260206004820152601f60248201527f5265656e7472616e637947756172643a207265656e7472616e742063616c6c00604482015290519081900360640190fd5b60026065556126486136ca565b60695461278d90600160a81b900460ff16158061276e5750606760009054906101000a90046001600160a01b03166001600160a01b031663c8ed947f6040518163ffffffff1660e01b815260040160206040518083038186803b1580156126ae57600080fd5b505afa1580156126c2573d6000803e3d6000fd5b505050506040513d60208110156126d857600080fd5b5051604080517fc7ec5d5d00000000000000000000000000000000000000000000000000000000815230600482015233602482015290516001600160a01b039092169163c7ec5d5d91604480820192602092909190829003018186803b15801561274157600080fd5b505afa158015612755573d6000803e3d6000fd5b505050506040513d602081101561276b57600080fd5b50515b8061278657506069546001600160a01b038481169116145b601d613706565b607454156127b9576127b96074546127b086606a5461371490919063ffffffff16565b11156000613706565b6127cb6073546072541115603d613706565b6127db6077548510156001613706565b606654604080516370a0823160e01b815230600482015290516000926001600160a01b0316916370a08231916024808301926020929190829003018186803b15801561282657600080fd5b505afa15801561283a573d6000803e3d6000fd5b505050506040513d602081101561285057600080fd5b50516066549091506001600160a01b031673c02aaa39b223fe8d0a0e5c4f27ead9083c756cc21480156128835750600034115b156128f55773c02aaa39b223fe8d0a0e5c4f27ead9083c756cc26001600160a01b031663d0e30db0346040518263ffffffff1660e01b81526004016000604051808303818588803b1580156128d757600080fd5b505af11580156128eb573d6000803e3d6000fd5b505050505061290d565b60665461290d906001600160a01b03163330886143e7565b606654604080516370a0823160e01b8152306004820152905161299b9288926129939286926001600160a01b0316916370a08231916024808301926020929190829003018186803b15801561296157600080fd5b505afa158015612975573d6000803e3d6000fd5b505050506040513d602081101561298b57600080fd5b505190613b38565b146005613706565b6129a9848610156056613706565b60006129b484612b4f565b90506129ca846129c5886001612f3e565b614475565b6129d5848288614567565b606a546129e29087613714565b606a558215612af757606760009054906101000a90046001600160a01b03166001600160a01b031663ead4c1cf6040518163ffffffff1660e01b815260040160206040518083038186803b158015612a3957600080fd5b505afa158015612a4d573d6000803e3d6000fd5b505050506040513d6020811015612a6357600080fd5b5051604080517f45b497470000000000000000000000000000000000000000000000000000000081526001600160a01b038781166004830152915191909216916345b497479160248083019260209291908290030181600087803b158015612aca57600080fd5b505af1158015612ade573d6000803e3d6000fd5b505050506040513d6020811015612af457600080fd5b50505b6040805134815260208101889052428183015290516001600160a01b038616917f8d878fd0c5092c0e518d34fa1f3d23c8b3a1b2b7f86174bdba0ceaabf68b5a53919081900360600190a25050600160655550505050565b6001600160a01b031660009081526033602052604090205490565b606f5481565b606d5481565b60705481565b60735481565b60795481565b607a5481565b606c5481565b607c5481565b60378054604080516020601f60026000196101006001881615020190951694909404938401819004810282018101909252828152606093909290918301828280156111465780601f1061111b57610100808354040283529160200191611146565b606754604080517f411137c30000000000000000000000000000000000000000000000000000000081526001600160a01b0385811660048301529151612c9993929092169163411137c391602480820192602092909190829003018186803b158015612c6657600080fd5b505afa158015612c7a573d6000803e3d6000fd5b505050506040513d6020811015612c9057600080fd5b50516012613706565b612ca1613c2a565b608354612cae9082613714565b608381905515801590612cca5750608354612cc7613ea1565b10155b15611a6257608354606654612cec916001600160a01b03909116908490613f9d565b60006083555050565b6000611164612d026135da565b8461180f856040518060600160405280602581526020016154956025913960346000612d2c6135da565b6001600160a01b03908116825260208083019390935260409182016000908120918d16815292529020549190613a08565b606e5481565b6000611164612d706135da565b84846138ab565b60775481565b606754612d96906001600160a01b031633146010613706565b606954612db69060ff600160a01b90910416151582151514156016613706565b60698054911515600160a01b0260ff60a01b19909216919091179055565b612ddc613c2a565b612e4781607f8054806020026020016040519081016040528092919081815260200182805480156119a2576020028201919060005260206000209081546001600160a01b03168152600190910190602001808311611984575050505050613bad90919063ffffffff16565b8051612e5b91607f916020909101906151a6565b506001600160a01b03166000908152608160205260409020805460ff19169055565b6060608080548060200260200160405190810160405280929190818152602001828054801561114657602002820191906000526020600020905b81546001600160a01b03168152600190910190602001808311612eb7575050505050905090565b6060607f805480602002602001604051908101604052809291908181526020018280548015611146576020028201919060005260206000209081546001600160a01b03168152600190910190602001808311612eb7575050505050905090565b600080606660009054906101000a90046001600160a01b03166001600160a01b031663313ce5676040518163ffffffff1660e01b815260040160206040518083038186803b158015612f8f57600080fd5b505afa158015612fa3573d6000803e3d6000fd5b505050506040513d6020811015612fb957600080fd5b505160ff16600a0a90506000612fcf8583614667565b9050612fd961116e565b612fe65791506111689050565b606754604080517f294d237c00000000000000000000000000000000000000000000000000000000815290516000926001600160a01b03169163294d237c916004808301926020929190829003018186803b15801561304457600080fd5b505afa158015613058573d6000803e3d6000fd5b505050506040513d602081101561306e57600080fd5b505160665460408051635e0a3b9d60e11b81523060048201526001600160a01b0392831660248201529051919092169163bc14773a916044808301926020929190829003018186803b1580156130c357600080fd5b505afa1580156130d7573d6000803e3d6000fd5b505050506040513d60208110156130ed57600080fd5b5051905084156131165761311361310c61310561116e565b8490614667565b8290613b38565b90505b6131208282614667565b9695505050505050565b60745481565b606b5481565b606a5481565b60008060005b607f5481101561327a576000607f828154811061315b57fe5b60009182526020918290200154604080517f1fe4a68600000000000000000000000000000000000000000000000000000000815290516001600160a01b0390921693508392631fe4a68692600480840193829003018186803b1580156131c057600080fd5b505afa1580156131d4573d6000803e3d6000fd5b505050506040513d60208110156131ea57600080fd5b50516001600160a01b03868116911614156132715761326e816001600160a01b0316633a4b66f16040518163ffffffff1660e01b815260040160206040518083038186803b15801561323b57600080fd5b505afa15801561324f573d6000803e3d6000fd5b505050506040513d602081101561326557600080fd5b50518490613714565b92505b50600101613142565b508061328584612b4f565b10156111685761181883612b4f565b60755481565b600260655414156132f2576040805162461bcd60e51b815260206004820152601f60248201527f5265656e7472616e637947756172643a207265656e7472616e742063616c6c00604482015290519081900360640190fd5b60026065556132ff6136ec565b606f543360009081526071602052604090205461332b9190613322904290613b38565b10156003613706565b60006133363361313c565b905061335861334e8261334833612b4f565b90613b38565b8711156007613706565b606654600090613371906001600160a01b031688613724565b905083156134085761338d61310c8266b1a2bc2ec50000613e83565b90506001600160a01b03831663422967246133b96133b28466b1a2bc2ec50000613e83565b8490613714565b6040518263ffffffff1660e01b815260040180828152602001915050600060405180830381600087803b1580156133ef57600080fd5b505af1158015613403573d6000803e3d6000fd5b505050505b613416868210156056613706565b61342a613423338361467f565b6004613706565b613432613e6e565b61343c3388613c50565b6134463382613da6565b61344f816147fa565b61345f81606a5410156008613706565b606a5461346c9082613b38565b606a556040805182815260208101899052428183015290516001600160a01b0387169133917f32a44bf15c44dad7691e20191a033527995d56d46ebe5115756d9e2eec16d3339181900360600190a3505060016065555050505050565b6001600160a01b03918216600090815260346020908152604080832093909416825291909152205490565b60725481565b6067546001600160a01b031681565b606954613522906001600160a01b031633146011613706565b6069546135bc90600160a81b900460ff1680156135b55750606760009054906101000a90046001600160a01b03166001600160a01b0316637f80e05b6040518163ffffffff1660e01b815260040160206040518083038186803b15801561358857600080fd5b505afa15801561359c573d6000803e3d6000fd5b505050506040513d60208110156135b257600080fd5b50515b6043613706565b6069805460ff60a81b19169055565b6066546001600160a01b031681565b3390565b6001600160a01b0383166136235760405162461bcd60e51b81526004018080602001828103825260248152602001806154476024913960400191505060405180910390fd5b6001600160a01b0382166136685760405162461bcd60e51b81526004018080602001828103825260228152602001806152e26022913960400191505060405180910390fd5b6001600160a01b03808416600081815260346020908152604080832094871680845294825291829020859055815185815291517f8c5be1e5ebec7d5bd14f71427d1e84f3dd0314c0f7b2291e5b200ac8c7c3b9259281900390910190a3505050565b6136d2613a9f565b6069546136ea90600160a01b900460ff166015613706565b565b6136f4613a9f565b6136ea600061370233612b4f565b11600f5b81611a6257611a62816148eb565b8082018281101561116857600080fd5b600080606760009054906101000a90046001600160a01b03166001600160a01b031663294d237c6040518163ffffffff1660e01b815260040160206040518083038186803b15801561377557600080fd5b505afa158015613789573d6000803e3d6000fd5b505050506040513d602081101561379f57600080fd5b505160408051635e0a3b9d60e11b81523060048201526001600160a01b0387811660248301529151919092169163bc14773a916044808301926020929190829003018186803b1580156137f157600080fd5b505afa158015613805573d6000803e3d6000fd5b505050506040513d602081101561381b57600080fd5b50519050600061382b8483613e83565b90506138a2856001600160a01b031663313ce5676040518163ffffffff1660e01b815260040160206040518083038186803b15801561386957600080fd5b505afa15801561387d573d6000803e3d6000fd5b505050506040513d602081101561389357600080fd5b5051829060ff16600a0a613e83565b95945050505050565b6001600160a01b0383166138f05760405162461bcd60e51b81526004018080602001828103825260258152602001806154226025913960400191505060405180910390fd5b6001600160a01b0382166139355760405162461bcd60e51b815260040180806020018281038252602381526020018061529d6023913960400191505060405180910390fd5b61394083838361493e565b61397d81604051806060016040528060268152602001615304602691396001600160a01b0386166000908152603360205260409020549190613a08565b6001600160a01b0380851660009081526033602052604080822093909355908416815220546139ac9082613d4c565b6001600160a01b0380841660008181526033602090815260409182902094909455805185815290519193928716927fddf252ad1be2c89b69c2b068fc378daa952ba7f163c4a11628f55a4df523b3ef92918290030190a3505050565b60008184841115613a975760405162461bcd60e51b81526004018080602001828103825283818151815260200191508051906020019080838360005b83811015613a5c578181015183820152602001613a44565b50505050905090810190601f168015613a895780820380516001836020036101000a031916815260200191505b509250505060405180910390fd5b505050900390565b606754604080517f5b14f18300000000000000000000000000000000000000000000000000000000815230600482015290516136ea926001600160a01b031691635b14f183916024808301926020929190829003018186803b158015613b0457600080fd5b505afa158015613b18573d6000803e3d6000fd5b505050506040513d6020811015613b2e57600080fd5b5051156053613706565b8082038281111561116857600080fd5b6000828201818312801590613b5d5750838112155b80613b725750600083128015613b7257508381125b6118185760405162461bcd60e51b815260040180806020018281038252602181526020018061532a6021913960400191505060405180910390fd5b6060600080613bbc8585614a06565b9150915080613c12576040805162461bcd60e51b815260206004820152601560248201527f41646472657373206e6f7420696e2061727261792e0000000000000000000000604482015290519081900360640190fd5b6000613c1e8684614a6c565b50935061116892505050565b613c32613a9f565b336000908152608160205260409020546136ea9060ff166014613706565b6001600160a01b038216613c955760405162461bcd60e51b81526004018080602001828103825260218152602001806154016021913960400191505060405180910390fd5b613ca18260008361493e565b613cde816040518060600160405280602281526020016152c0602291396001600160a01b0385166000908152603360205260409020549190613a08565b6001600160a01b038316600090815260336020526040902055603554613d049082614bd0565b6035556040805182815290516000916001600160a01b038516917fddf252ad1be2c89b69c2b068fc378daa952ba7f163c4a11628f55a4df523b3ef9181900360200190a35050565b600082820183811015611818576040805162461bcd60e51b815260206004820152601b60248201527f536166654d6174683a206164646974696f6e206f766572666c6f770000000000604482015290519081900360640190fd5b6066546001600160a01b031673c02aaa39b223fe8d0a0e5c4f27ead9083c756cc21415613e575780471015613e485773c02aaa39b223fe8d0a0e5c4f27ead9083c756cc2632e1a7d4d613df98347613b38565b6040518263ffffffff1660e01b815260040180828152602001915050600060405180830381600087803b158015613e2f57600080fd5b505af1158015613e43573d6000803e3d6000fd5b505050505b613e528282614c2d565b611a62565b606654611a62906001600160a01b03168383613f9d565b60705442106136ea5760006070819055606c55565b6000611818670de0b6b3a7640000613e9b8585614d12565b90614d36565b606b54606c54606654604080516370a0823160e01b81523060048201529051600094613f009490936133489391926001600160a01b03909116916370a08231916024808301926020929190829003018186803b15801561296157600080fd5b905090565b606754604080517f61d027b30000000000000000000000000000000000000000000000000000000081529051611a62926001600160a01b0316916361d027b3916004808301926020929190829003018186803b158015613f6457600080fd5b505afa158015613f78573d6000803e3d6000fd5b505050506040513d6020811015613f8e57600080fd5b50516001600160a01b03841690835b604080516001600160a01b038416602482015260448082018490528251808303909101815260649091019091526020810180517bffffffffffffffffffffffffffffffffffffffffffffffffffffffff167fa9059cbb0000000000000000000000000000000000000000000000000000000017905261401d908490614d9d565b505050565b600061402d30614e4e565b15905090565b600054610100900460ff168061404c575061404c614022565b8061405a575060005460ff16155b6140955760405162461bcd60e51b815260040180806020018281038252602e8152602001806153ab602e913960400191505060405180910390fd5b600054610100900460ff161580156140c0576000805460ff1961ff0019909116610100171660011790555b6140c8614e54565b6140d28383614ef6565b801561401d576000805461ff0019169055505050565b6141026000871180156140fb5750868b10155b6001613706565b606754606654604080517ff05017eb0000000000000000000000000000000000000000000000000000000081526001600160a01b03928316600482015290516141a693929092169163f05017eb91602480820192602092909190829003018186803b15801561417057600080fd5b505afa158015614184573d6000803e3d6000fd5b505050506040513d602081101561419a57600080fd5b50518910156004613706565b61420f898b1115801561420857506066546001600160a01b031673c02aaa39b223fe8d0a0e5c4f27ead9083c756cc2146141eb576a084595161401484a0000006141f7565b69021e19e0c9bab24000005b6affffffffffffffffffffff168a11155b6000613706565b61421d600088116003613706565b606754604080517f8e20fb070000000000000000000000000000000000000000000000000000000081529051614337926001600160a01b031691638e20fb07916004808301926020929190829003018186803b15801561427c57600080fd5b505afa158015614290573d6000803e3d6000fd5b505050506040513d60208110156142a657600080fd5b505186118015906143305750606760009054906101000a90046001600160a01b03166001600160a01b0316636b2fb6786040518163ffffffff1660e01b815260040160206040518083038186803b15801561430057600080fd5b505afa158015614314573d6000803e3d6000fd5b505050506040513d602081101561432a57600080fd5b50518610155b6018613706565b61436b67016345785d8a00008510158015614364575061436067016345785d8a00006005614d12565b8511155b6019613706565b6143988383101580156143815750620151808410155b801561439157506302932e008311155b603f613706565b6143b3600182101580156143ac5750600a82105b6040613706565b607795909555607e93909355607a91909155607b92909255607c91909155607d5560749290925542607555606e55606f5550565b604080516001600160a01b0380861660248301528416604482015260648082018490528251808303909101815260849091019091526020810180517bffffffffffffffffffffffffffffffffffffffffffffffffffffffff167f23b872dd0000000000000000000000000000000000000000000000000000000017905261446f908590614d9d565b50505050565b6001600160a01b0382166144d0576040805162461bcd60e51b815260206004820152601f60248201527f45524332303a206d696e7420746f20746865207a65726f206164647265737300604482015290519081900360640190fd5b6144dc6000838361493e565b6035546144e99082613d4c565b6035556001600160a01b03821660009081526033602052604090205461450f9082613d4c565b6001600160a01b03831660008181526033602090815260408083209490945583518581529351929391927fddf252ad1be2c89b69c2b068fc378daa952ba7f163c4a11628f55a4df523b3ef9281900390910190a35050565b6001600160a01b038316600090815260716020526040902082158061458e57506001810154155b156145bc576145a460735460725410603d613706565b6072546145b2906001613714565b6072554260018201555b60068101546145cb9083613714565b60068201554281556068546076546040805163bad67dd160e01b81523060048201526001600160a01b038881166024830152604482018890526001606483015260848201939093529051919092169163bad67dd19160a480830192600092919082900301818387803b15801561464057600080fd5b505af1158015614654573d6000803e3d6000fd5b5050607680546001019055505050505050565b600061181882613e9b85670de0b6b3a7640000614d12565b606b54606654604080516370a0823160e01b8152306004820152905160009384936146d79391926001600160a01b03909116916370a08231916024808301926020929190829003018186803b15801561296157600080fd5b905060705442116147da57826146f8606c5483613b3890919063ffffffff16565b1115614708576001915050611168565b6068546001600160a01b038581166000818152607160209081526040808320600101548151633b015eef60e11b8152306004820152602481019590955260448501524260648501525191949390931692637602bdde9260848082019391829003018186803b15801561477957600080fd5b505afa15801561478d573d6000803e3d6000fd5b505050506040513d60208110156147a357600080fd5b5051606c5490915084906147cf906147bc908590613b38565b606c546147c99085613e83565b90613714565b101592505050611168565b826147f0606c5483613b3890919063ffffffff16565b1015949350505050565b3360008181526071602052604090209061481390612b4f565b614847576000808255600180830182905560058301829055600683019190915560725461483f91613b38565b60725561485c565b60058101546148569083613714565b60058201555b6068546076546040805163bad67dd160e01b815230600482015233602482015260006044820181905260648201819052608482019390935290516001600160a01b039093169263bad67dd19260a48084019391929182900301818387803b1580156148c657600080fd5b505af11580156148da573d6000803e3d6000fd5b505060768054600101905550505050565b62461bcd60e51b6000908152602060045260076024526642414223000030600a808404818106603090810160081b95839006959095019082900491820690940160101b939093010160c81b604452606490fd5b61494983838361401d565b61401d6001600160a01b038416158061496957506001600160a01b038316155b806149ff5750606760009054906101000a90046001600160a01b03166001600160a01b031663393bfe496040518163ffffffff1660e01b815260040160206040518083038186803b1580156149bd57600080fd5b505afa1580156149d1573d6000803e3d6000fd5b505050506040513d60208110156149e757600080fd5b505180156149ff5750606954600160a81b900460ff16155b603b613706565b81516000908190815b81811015614a5957846001600160a01b0316868281518110614a2d57fe5b60200260200101516001600160a01b03161415614a5157925060019150614a659050565b600101614a0f565b50600019600092509250505b9250929050565b8151606090600090808410614ac8576040805162461bcd60e51b815260206004820152601860248201527f496e646578206d757374206265203c2041206c656e6774680000000000000000604482015290519081900360640190fd5b60006001820367ffffffffffffffff81118015614ae457600080fd5b50604051908082528060200260200182016040528015614b0e578160200160208202803683370190505b50905060005b85811015614b5c57868181518110614b2857fe5b6020026020010151828281518110614b3c57fe5b6001600160a01b0390921660209283029190910190910152600101614b14565b50600185015b82811015614bad57868181518110614b7657fe5b6020026020010151826001830381518110614b8d57fe5b6001600160a01b0390921660209283029190910190910152600101614b62565b5080868681518110614bbb57fe5b60200260200101519350935050509250929050565b600082821115614c27576040805162461bcd60e51b815260206004820152601e60248201527f536166654d6174683a207375627472616374696f6e206f766572666c6f770000604482015290519081900360640190fd5b50900390565b80471015614c82576040805162461bcd60e51b815260206004820152601d60248201527f416464726573733a20696e73756666696369656e742062616c616e6365000000604482015290519081900360640190fd5b6040516000906001600160a01b0384169083908381818185875af1925050503d8060008114614ccd576040519150601f19603f3d011682016040523d82523d6000602084013e614cd2565b606091505b505090508061401d5760405162461bcd60e51b815260040180806020018281038252603a81526020018061534b603a913960400191505060405180910390fd5b6000821580614d2d57505081810281838281614d2a57fe5b04145b61116857600080fd5b6000808211614d8c576040805162461bcd60e51b815260206004820152601a60248201527f536166654d6174683a206469766973696f6e206279207a65726f000000000000604482015290519081900360640190fd5b818381614d9557fe5b049392505050565b6000614df2826040518060400160405280602081526020017f5361666545524332303a206c6f772d6c6576656c2063616c6c206661696c6564815250856001600160a01b0316614fce9092919063ffffffff16565b80519091501561401d57808060200190516020811015614e1157600080fd5b505161401d5760405162461bcd60e51b815260040180806020018281038252602a81526020018061546b602a913960400191505060405180910390fd5b3b151590565b600054610100900460ff1680614e6d5750614e6d614022565b80614e7b575060005460ff16155b614eb65760405162461bcd60e51b815260040180806020018281038252602e8152602001806153ab602e913960400191505060405180910390fd5b600054610100900460ff16158015614ee1576000805460ff1961ff0019909116610100171660011790555b8015614ef3576000805461ff00191690555b50565b600054610100900460ff1680614f0f5750614f0f614022565b80614f1d575060005460ff16155b614f585760405162461bcd60e51b815260040180806020018281038252602e8152602001806153ab602e913960400191505060405180910390fd5b600054610100900460ff16158015614f83576000805460ff1961ff0019909116610100171660011790555b8251614f9690603690602086019061520b565b508151614faa90603790602085019061520b565b506038805460ff19166012179055801561401d576000805461ff0019169055505050565b6060614fdd8484600085614fe5565b949350505050565b6060824710156150265760405162461bcd60e51b81526004018080602001828103825260268152602001806153856026913960400191505060405180910390fd5b61502f85614e4e565b615080576040805162461bcd60e51b815260206004820152601d60248201527f416464726573733a2063616c6c20746f206e6f6e2d636f6e7472616374000000604482015290519081900360640190fd5b600080866001600160a01b031685876040518082805190602001908083835b602083106150be5780518252601f19909201916020918201910161509f565b6001836020036101000a03801982511681845116808217855250505050505090500191505060006040518083038185875af1925050503d8060008114615120576040519150601f19603f3d011682016040523d82523d6000602084013e615125565b606091505b5091509150615135828286615140565b979650505050505050565b6060831561514f575081611818565b82511561515f5782518084602001fd5b60405162461bcd60e51b8152602060048201818152845160248401528451859391928392604401919085019080838360008315613a5c578181015183820152602001613a44565b8280548282559060005260206000209081019282156151fb579160200282015b828111156151fb57825182546001600160a01b0319166001600160a01b039091161782556020909201916001909101906151c6565b50615207929150615287565b5090565b828054600181600116156101000203166002900490600052602060002090601f01602090048101928261524157600085556151fb565b82601f1061525a57805160ff19168380011785556151fb565b828001600101855582156151fb579182015b828111156151fb57825182559160200191906001019061526c565b5b80821115615207576000815560010161528856fe45524332303a207472616e7366657220746f20746865207a65726f206164647265737345524332303a206275726e20616d6f756e7420657863656564732062616c616e636545524332303a20617070726f766520746f20746865207a65726f206164647265737345524332303a207472616e7366657220616d6f756e7420657863656564732062616c616e63655369676e6564536166654d6174683a206164646974696f6e206f766572666c6f77416464726573733a20756e61626c6520746f2073656e642076616c75652c20726563697069656e74206d61792068617665207265766572746564416464726573733a20696e73756666696369656e742062616c616e636520666f722063616c6c496e697469616c697a61626c653a20636f6e747261637420697320616c726561647920696e697469616c697a656445524332303a207472616e7366657220616d6f756e74206578636565647320616c6c6f77616e636545524332303a206275726e2066726f6d20746865207a65726f206164647265737345524332303a207472616e736665722066726f6d20746865207a65726f206164647265737345524332303a20617070726f76652066726f6d20746865207a65726f20616464726573735361666545524332303a204552433230206f7065726174696f6e20646964206e6f74207375636365656445524332303a2064656372656173656420616c6c6f77616e63652062656c6f77207a65726fa2646970667358221220f9fe18033540dd419d962f783844f5a9c14370ce929b9cdf9dba253b3a1e846b64736f6c63430007060033",
  "devdoc": {
    "kind": "dev",
    "methods": {
      "addStrategy(string,string,uint256[],uint8[],address[],address[])": {
        "params": {
          "_name": "Name of the strategy",
          "_opDatas": "Param for every operation in the strategy",
          "_opIntegrations": "Integration to use for every operation",
          "_opTypes": "Type for every operation in the strategy",
          "_stratParams": "Num params for the strategy",
          "_symbol": "Symbol of the strategy"
        }
      },
      "allocateCapitalToStrategy(uint256)": {
        "params": {
          "_capital": "Amount of capital to allocate to the strategy"
        }
      },
      "allowance(address,address)": {
        "details": "See {IERC20-allowance}."
      },
      "approve(address,uint256)": {
        "details": "See {IERC20-approve}. Requirements: - `spender` cannot be the zero address."
      },
      "balanceOf(address)": {
        "details": "See {IERC20-balanceOf}."
      },
      "decimals()": {
        "details": "Returns the number of decimals used to get its user representation. For example, if `decimals` equals `2`, a balance of `505` tokens should be displayed to a user as `5,05` (`505 / 10 ** 2`). Tokens usually opt for a value of 18, imitating the relationship between Ether and Wei. This is the value {ERC20} uses, unless {_setupDecimals} is called. NOTE: This information is only used for _display_ purposes: it in no way affects any of the arithmetic of the contract, including {IERC20-balanceOf} and {IERC20-transfer}."
      },
      "decreaseAllowance(address,uint256)": {
        "details": "Atomically decreases the allowance granted to `spender` by the caller. This is an alternative to {approve} that can be used as a mitigation for problems described in {IERC20-approve}. Emits an {Approval} event indicating the updated allowance. Requirements: - `spender` cannot be the zero address. - `spender` must have allowance for the caller of at least `subtractedValue`."
      },
      "deposit(uint256,uint256,address,bool)": {
        "params": {
          "_minGardenTokenReceiveQuantity": "Min quantity of Garden token to receive after issuance",
          "_mintNft": "Whether to mint NFT or not",
          "_reserveAssetQuantity": "Quantity of the reserve asset that are received",
          "_to": "Address to mint Garden tokens to"
        }
      },
      "getExpectedReserveWithdrawalQuantity(uint256)": {
        "params": {
          "_gardenTokenQuantity": "Quantity of Garden tokens to withdrawal"
        },
        "returns": {
          "_0": "uint256                     Expected reserve asset quantity withdrawaled"
        }
      },
      "getFinalizedStrategies()": {
        "returns": {
          "_0": "address[]        Returns list of addresses"
        }
      },
      "getLockedBalance(address)": {
        "params": {
          "_contributor": "Address of the account"
        },
        "returns": {
          "_0": "uint256                    Returns the amount of locked garden tokens for the account"
        }
      },
      "getStrategies()": {
        "returns": {
          "_0": "address[]        Returns list of addresses"
        }
      },
      "increaseAllowance(address,uint256)": {
        "details": "Atomically increases the allowance granted to `spender` by the caller. This is an alternative to {approve} that can be used as a mitigation for problems described in {IERC20-approve}. Emits an {Approval} event indicating the updated allowance. Requirements: - `spender` cannot be the zero address."
      },
      "initialize(address,address,address,string,string,uint256[],uint256)": {
        "params": {
          "_controller": "Address of the controller",
          "_creator": "Address of the creator",
          "_gardenParams": "Array of numeric garden params",
          "_initialContribution": "Initial Contribution by the Gardener",
          "_name": "Name of the Garden",
          "_reserveAsset": "Address of the reserve asset ERC20",
          "_symbol": "Symbol of the Garden"
        }
      },
      "name()": {
        "details": "Returns the name of the token."
      },
      "payKeeper(address,uint256)": {
        "params": {
          "_fee": "The fee paid to keeper to compensate the gas cost",
          "_keeper": "Keeper that executed the transaction"
        }
      },
      "startWithdrawalWindow(uint256,uint256,int256,address)": {
        "params": {
          "_amount": "Amount of Reserve Asset to set aside until the window ends",
          "_returns": "Profits or losses that the strategy received",
          "_rewards": "Amount of Reserve Asset to set aside forever"
        }
      },
      "symbol()": {
        "details": "Returns the symbol of the token, usually a shorter version of the name."
      },
      "totalSupply()": {
        "details": "See {IERC20-totalSupply}."
      },
      "transfer(address,uint256)": {
        "details": "See {IERC20-transfer}. Requirements: - `recipient` cannot be the zero address. - the caller must have a balance of at least `amount`."
      },
      "transferFrom(address,address,uint256)": {
        "details": "See {IERC20-transferFrom}. Emits an {Approval} event indicating the updated allowance. This is not required by the EIP. See the note at the beginning of {ERC20}. Requirements: - `sender` and `recipient` cannot be the zero address. - `sender` must have a balance of at least `amount`. - the caller must have allowance for ``sender``'s tokens of at least `amount`."
      },
      "withdraw(uint256,uint256,address,bool,address)": {
        "params": {
          "_gardenTokenQuantity": "Quantity of the garden token to withdrawal",
          "_minReserveReceiveQuantity": "Min quantity of reserve asset to receive",
          "_to": "Address to send component assets to",
          "_unwindStrategy": "Strategy to unwind",
          "_withPenalty": "Whether or not this is an immediate withdrawal"
        }
      }
    },
    "version": 1
  },
  "userdoc": {
    "kind": "user",
    "methods": {
      "addStrategy(string,string,uint256[],uint8[],address[],address[])": {
        "notice": "Creates a new strategy calling the factory and adds it to the array"
      },
      "allocateCapitalToStrategy(uint256)": {
        "notice": "Allocates garden capital to an strategy"
      },
      "claimReturns(address[])": {
        "notice": "User can claim the rewards from the strategies that his principal was invested in."
      },
      "deposit(uint256,uint256,address,bool)": {
        "notice": "Deposits the reserve asset into the garden and mints the Garden token of the given quantity to the specified _to address. WARN: If the reserve Asset is different than WETH the sender needs to have approved the garden."
      },
      "getExpectedReserveWithdrawalQuantity(uint256)": {
        "notice": "Get the expected reserve asset to be withdrawaled"
      },
      "getFinalizedStrategies()": {
        "notice": "Gets finalized strategies"
      },
      "getLockedBalance(address)": {
        "notice": "Checks balance locked for strategists in active strategies"
      },
      "getStrategies()": {
        "notice": "Gets current strategies"
      },
      "initialize(address,address,address,string,string,uint256[],uint256)": {
        "notice": "When a new Garden is created. All parameter validations are on the BabController contract. Validations are performed already on the BabController. WARN: If the reserve Asset is different than WETH the gardener needs to have approved the controller."
      },
      "makeGardenPublic()": {
        "notice": "Makes a previously private garden public"
      },
      "payKeeper(address,uint256)": {
        "notice": "Pays gas costs back to the keeper from executing transactions including the past debt"
      },
      "setActive(bool)": {
        "notice": "PRIVILEGED Manager, protocol FUNCTION. When a Garden is active, deposits are enabled."
      },
      "startWithdrawalWindow(uint256,uint256,int256,address)": {
        "notice": "When an strategy finishes execution, we want to make that eth available for withdrawals from members of the garden."
      },
      "withdraw(uint256,uint256,address,bool,address)": {
        "notice": "Withdraws the ETH relative to the token participation in the garden and sends it back to the sender. ATTENTION. Do not call withPenalty unless certain. If penalty is set, it will be applied regardless of the garden state. It is advised to first try to withdraw with no penalty and it this reverts then try to with penalty."
      }
    },
    "version": 1
  },
  "storageLayout": {
    "storage": [
      {
        "astId": 492,
        "contract": "contracts/gardens/Garden.sol:GardenV3",
        "label": "_initialized",
        "offset": 0,
        "slot": "0",
        "type": "t_bool"
      },
      {
        "astId": 495,
        "contract": "contracts/gardens/Garden.sol:GardenV3",
        "label": "_initializing",
        "offset": 1,
        "slot": "0",
        "type": "t_bool"
      },
      {
        "astId": 1447,
        "contract": "contracts/gardens/Garden.sol:GardenV3",
        "label": "__gap",
        "offset": 0,
        "slot": "1",
        "type": "t_array(t_uint256)50_storage"
      },
      {
        "astId": 571,
        "contract": "contracts/gardens/Garden.sol:GardenV3",
        "label": "_balances",
        "offset": 0,
        "slot": "51",
        "type": "t_mapping(t_address,t_uint256)"
      },
      {
        "astId": 577,
        "contract": "contracts/gardens/Garden.sol:GardenV3",
        "label": "_allowances",
        "offset": 0,
        "slot": "52",
        "type": "t_mapping(t_address,t_mapping(t_address,t_uint256))"
      },
      {
        "astId": 579,
        "contract": "contracts/gardens/Garden.sol:GardenV3",
        "label": "_totalSupply",
        "offset": 0,
        "slot": "53",
        "type": "t_uint256"
      },
      {
        "astId": 581,
        "contract": "contracts/gardens/Garden.sol:GardenV3",
        "label": "_name",
        "offset": 0,
        "slot": "54",
        "type": "t_string_storage"
      },
      {
        "astId": 583,
        "contract": "contracts/gardens/Garden.sol:GardenV3",
        "label": "_symbol",
        "offset": 0,
        "slot": "55",
        "type": "t_string_storage"
      },
      {
        "astId": 585,
        "contract": "contracts/gardens/Garden.sol:GardenV3",
        "label": "_decimals",
        "offset": 0,
        "slot": "56",
        "type": "t_uint8"
      },
      {
        "astId": 1080,
        "contract": "contracts/gardens/Garden.sol:GardenV3",
        "label": "__gap",
        "offset": 0,
        "slot": "57",
        "type": "t_array(t_uint256)44_storage"
      },
      {
        "astId": 5859,
        "contract": "contracts/gardens/Garden.sol:GardenV3",
        "label": "_status",
        "offset": 0,
        "slot": "101",
        "type": "t_uint256"
      },
      {
        "astId": 12722,
        "contract": "contracts/gardens/Garden.sol:GardenV3",
        "label": "reserveAsset",
        "offset": 0,
        "slot": "102",
        "type": "t_address"
      },
      {
        "astId": 12725,
        "contract": "contracts/gardens/Garden.sol:GardenV3",
        "label": "controller",
        "offset": 0,
        "slot": "103",
        "type": "t_address"
      },
      {
        "astId": 12727,
        "contract": "contracts/gardens/Garden.sol:GardenV3",
        "label": "rewardsDistributor",
        "offset": 0,
        "slot": "104",
        "type": "t_contract(IRewardsDistributor)25170"
      },
      {
        "astId": 12730,
        "contract": "contracts/gardens/Garden.sol:GardenV3",
        "label": "creator",
        "offset": 0,
        "slot": "105",
        "type": "t_address"
      },
      {
        "astId": 12733,
        "contract": "contracts/gardens/Garden.sol:GardenV3",
        "label": "active",
        "offset": 20,
        "slot": "105",
        "type": "t_bool"
      },
      {
        "astId": 12736,
        "contract": "contracts/gardens/Garden.sol:GardenV3",
        "label": "guestListEnabled",
        "offset": 21,
        "slot": "105",
        "type": "t_bool"
      },
      {
        "astId": 12739,
        "contract": "contracts/gardens/Garden.sol:GardenV3",
        "label": "principal",
        "offset": 0,
        "slot": "106",
        "type": "t_uint256"
      },
      {
        "astId": 12742,
        "contract": "contracts/gardens/Garden.sol:GardenV3",
        "label": "reserveAssetRewardsSetAside",
        "offset": 0,
        "slot": "107",
        "type": "t_uint256"
      },
      {
        "astId": 12745,
        "contract": "contracts/gardens/Garden.sol:GardenV3",
        "label": "reserveAssetPrincipalWindow",
        "offset": 0,
        "slot": "108",
        "type": "t_uint256"
      },
      {
        "astId": 12748,
        "contract": "contracts/gardens/Garden.sol:GardenV3",
        "label": "absoluteReturns",
        "offset": 0,
        "slot": "109",
        "type": "t_int256"
      },
      {
        "astId": 12751,
        "contract": "contracts/gardens/Garden.sol:GardenV3",
        "label": "minLiquidityAsset",
        "offset": 0,
        "slot": "110",
        "type": "t_uint256"
      },
      {
        "astId": 12754,
        "contract": "contracts/gardens/Garden.sol:GardenV3",
        "label": "depositHardlock",
        "offset": 0,
        "slot": "111",
        "type": "t_uint256"
      },
      {
        "astId": 12757,
        "contract": "contracts/gardens/Garden.sol:GardenV3",
        "label": "withdrawalsOpenUntil",
        "offset": 0,
        "slot": "112",
        "type": "t_uint256"
      },
      {
        "astId": 12761,
        "contract": "contracts/gardens/Garden.sol:GardenV3",
        "label": "contributors",
        "offset": 0,
        "slot": "113",
        "type": "t_mapping(t_address,t_struct(Contributor)12719_storage)"
      },
      {
        "astId": 12764,
        "contract": "contracts/gardens/Garden.sol:GardenV3",
        "label": "totalContributors",
        "offset": 0,
        "slot": "114",
        "type": "t_uint256"
      },
      {
        "astId": 12767,
        "contract": "contracts/gardens/Garden.sol:GardenV3",
        "label": "maxContributors",
        "offset": 0,
        "slot": "115",
        "type": "t_uint256"
      },
      {
        "astId": 12770,
        "contract": "contracts/gardens/Garden.sol:GardenV3",
        "label": "maxDepositLimit",
        "offset": 0,
        "slot": "116",
        "type": "t_uint256"
      },
      {
        "astId": 12773,
        "contract": "contracts/gardens/Garden.sol:GardenV3",
        "label": "gardenInitializedAt",
        "offset": 0,
        "slot": "117",
        "type": "t_uint256"
      },
      {
        "astId": 12775,
        "contract": "contracts/gardens/Garden.sol:GardenV3",
        "label": "pid",
        "offset": 0,
        "slot": "118",
        "type": "t_uint256"
      },
      {
        "astId": 12778,
        "contract": "contracts/gardens/Garden.sol:GardenV3",
        "label": "minContribution",
        "offset": 0,
        "slot": "119",
        "type": "t_uint256"
      },
      {
        "astId": 12780,
        "contract": "contracts/gardens/Garden.sol:GardenV3",
        "label": "minGardenTokenSupply",
        "offset": 0,
        "slot": "120",
        "type": "t_uint256"
      },
      {
        "astId": 12783,
        "contract": "contracts/gardens/Garden.sol:GardenV3",
        "label": "totalStake",
        "offset": 0,
        "slot": "121",
        "type": "t_uint256"
      },
      {
        "astId": 12787,
        "contract": "contracts/gardens/Garden.sol:GardenV3",
        "label": "minVotesQuorum",
        "offset": 0,
        "slot": "122",
        "type": "t_uint256"
      },
      {
        "astId": 12790,
        "contract": "contracts/gardens/Garden.sol:GardenV3",
        "label": "minVoters",
        "offset": 0,
        "slot": "123",
        "type": "t_uint256"
      },
      {
        "astId": 12793,
        "contract": "contracts/gardens/Garden.sol:GardenV3",
        "label": "minStrategyDuration",
        "offset": 0,
        "slot": "124",
        "type": "t_uint256"
      },
      {
        "astId": 12796,
        "contract": "contracts/gardens/Garden.sol:GardenV3",
        "label": "maxStrategyDuration",
        "offset": 0,
        "slot": "125",
        "type": "t_uint256"
      },
      {
        "astId": 12799,
        "contract": "contracts/gardens/Garden.sol:GardenV3",
        "label": "strategyCooldownPeriod",
        "offset": 0,
        "slot": "126",
        "type": "t_uint256"
      },
      {
        "astId": 12802,
        "contract": "contracts/gardens/Garden.sol:GardenV3",
        "label": "strategies",
        "offset": 0,
        "slot": "127",
        "type": "t_array(t_address)dyn_storage"
      },
      {
        "astId": 12805,
        "contract": "contracts/gardens/Garden.sol:GardenV3",
        "label": "finalizedStrategies",
        "offset": 0,
        "slot": "128",
        "type": "t_array(t_address)dyn_storage"
      },
      {
        "astId": 12810,
        "contract": "contracts/gardens/Garden.sol:GardenV3",
        "label": "strategyMapping",
        "offset": 0,
        "slot": "129",
        "type": "t_mapping(t_address,t_bool)"
      },
      {
        "astId": 12815,
        "contract": "contracts/gardens/Garden.sol:GardenV3",
        "label": "isGardenStrategy",
        "offset": 0,
        "slot": "130",
        "type": "t_mapping(t_address,t_bool)"
      },
      {
        "astId": 12817,
        "contract": "contracts/gardens/Garden.sol:GardenV3",
        "label": "keeperDebt",
        "offset": 0,
        "slot": "131",
        "type": "t_uint256"
      }
    ],
    "types": {
      "t_address": {
        "encoding": "inplace",
        "label": "address",
        "numberOfBytes": "20"
      },
      "t_array(t_address)dyn_storage": {
        "base": "t_address",
        "encoding": "dynamic_array",
        "label": "address[]",
        "numberOfBytes": "32"
      },
      "t_array(t_uint256)44_storage": {
        "base": "t_uint256",
        "encoding": "inplace",
        "label": "uint256[44]",
        "numberOfBytes": "1408"
      },
      "t_array(t_uint256)50_storage": {
        "base": "t_uint256",
        "encoding": "inplace",
        "label": "uint256[50]",
        "numberOfBytes": "1600"
      },
      "t_bool": {
        "encoding": "inplace",
        "label": "bool",
        "numberOfBytes": "1"
      },
      "t_contract(IRewardsDistributor)25170": {
        "encoding": "inplace",
        "label": "contract IRewardsDistributor",
        "numberOfBytes": "20"
      },
      "t_int256": {
        "encoding": "inplace",
        "label": "int256",
        "numberOfBytes": "32"
      },
      "t_mapping(t_address,t_bool)": {
        "encoding": "mapping",
        "key": "t_address",
        "label": "mapping(address => bool)",
        "numberOfBytes": "32",
        "value": "t_bool"
      },
      "t_mapping(t_address,t_mapping(t_address,t_uint256))": {
        "encoding": "mapping",
        "key": "t_address",
        "label": "mapping(address => mapping(address => uint256))",
        "numberOfBytes": "32",
        "value": "t_mapping(t_address,t_uint256)"
      },
      "t_mapping(t_address,t_struct(Contributor)12719_storage)": {
        "encoding": "mapping",
        "key": "t_address",
        "label": "mapping(address => struct Garden.Contributor)",
        "numberOfBytes": "32",
        "value": "t_struct(Contributor)12719_storage"
      },
      "t_mapping(t_address,t_uint256)": {
        "encoding": "mapping",
        "key": "t_address",
        "label": "mapping(address => uint256)",
        "numberOfBytes": "32",
        "value": "t_uint256"
      },
      "t_string_storage": {
        "encoding": "bytes",
        "label": "string",
        "numberOfBytes": "32"
      },
      "t_struct(Contributor)12719_storage": {
        "encoding": "inplace",
        "label": "struct Garden.Contributor",
        "members": [
          {
            "astId": 12706,
            "contract": "contracts/gardens/Garden.sol:GardenV3",
            "label": "lastDepositAt",
            "offset": 0,
            "slot": "0",
            "type": "t_uint256"
          },
          {
            "astId": 12708,
            "contract": "contracts/gardens/Garden.sol:GardenV3",
            "label": "initialDepositAt",
            "offset": 0,
            "slot": "1",
            "type": "t_uint256"
          },
          {
            "astId": 12710,
            "contract": "contracts/gardens/Garden.sol:GardenV3",
            "label": "claimedAt",
            "offset": 0,
            "slot": "2",
            "type": "t_uint256"
          },
          {
            "astId": 12712,
            "contract": "contracts/gardens/Garden.sol:GardenV3",
            "label": "claimedBABL",
            "offset": 0,
            "slot": "3",
            "type": "t_uint256"
          },
          {
            "astId": 12714,
            "contract": "contracts/gardens/Garden.sol:GardenV3",
            "label": "claimedRewards",
            "offset": 0,
            "slot": "4",
            "type": "t_uint256"
          },
          {
            "astId": 12716,
            "contract": "contracts/gardens/Garden.sol:GardenV3",
            "label": "withdrawnSince",
            "offset": 0,
            "slot": "5",
            "type": "t_uint256"
          },
          {
            "astId": 12718,
            "contract": "contracts/gardens/Garden.sol:GardenV3",
            "label": "totalDeposits",
            "offset": 0,
            "slot": "6",
            "type": "t_uint256"
          }
        ],
        "numberOfBytes": "224"
      },
      "t_uint256": {
        "encoding": "inplace",
        "label": "uint256",
        "numberOfBytes": "32"
      },
      "t_uint8": {
        "encoding": "inplace",
        "label": "uint8",
        "numberOfBytes": "1"
      }
    }
  }
}