{
  "address": "0xe500Dd633b3FF1BF8497777eF6E4BcA8108A9511",
  "abi": [
    {
      "inputs": [],
      "stateMutability": "nonpayable",
      "type": "constructor"
    },
    {
      "inputs": [
        {
          "internalType": "address",
          "name": "_reserveAsset",
          "type": "address"
        },
        {
          "internalType": "address",
          "name": "_controller",
          "type": "address"
        },
        {
          "internalType": "address",
          "name": "_creator",
          "type": "address"
        },
        {
          "internalType": "string",
          "name": "_name",
          "type": "string"
        },
        {
          "internalType": "string",
          "name": "_symbol",
          "type": "string"
        },
        {
          "internalType": "string",
          "name": "_tokenURI",
          "type": "string"
        },
        {
          "internalType": "uint256",
          "name": "_seed",
          "type": "uint256"
        },
        {
          "internalType": "uint256[]",
          "name": "_gardenParams",
          "type": "uint256[]"
        }
      ],
      "name": "createGarden",
      "outputs": [
        {
          "internalType": "address",
          "name": "",
          "type": "address"
        }
      ],
      "stateMutability": "payable",
      "type": "function"
    }
  ],
  "transactionHash": "0x7c340610ba957e3b28ce7c093345bf777e27a48529ecf6474609fc4bfc630f0d",
  "args": [],
  "solcInputHash": "1cde26e1be086ba932a8865ced5ceef3",
  "bytecode": "0x60c060405234801561001057600080fd5b5060405161001d90610088565b604051809103906000f080158015610039573d6000803e3d6000fd5b5060601b6001600160601b03191660805260405161005690610095565b604051809103906000f080158015610072573d6000803e3d6000fd5b5060601b6001600160601b03191660a0526100a2565b6160288061080f83390190565b612b2e8061683783390190565b60805160601c60a05160601c6107446100cb600039806102a352508061027652506107446000f3fe60806040526004361061001e5760003560e01c8063ec3f059a14610023575b600080fd5b610252600480360361010081101561003a57600080fd5b6001600160a01b038235811692602081013582169260408201359092169181019060808101606082013564010000000081111561007657600080fd5b82018360208201111561008857600080fd5b803590602001918460018302840111640100000000831117156100aa57600080fd5b91908080601f01602080910402602001604051908101604052809392919081815260200183838082843760009201919091525092959493602081019350359150506401000000008111156100fd57600080fd5b82018360208201111561010f57600080fd5b8035906020019184600183028401116401000000008311171561013157600080fd5b91908080601f016020809104026020016040519081016040528093929190818152602001838380828437600092019190915250929594936020810193503591505064010000000081111561018457600080fd5b82018360208201111561019657600080fd5b803590602001918460018302840111640100000000831117156101b857600080fd5b91908080601f0160208091040260200160405190810160405280939291908181526020018383808284376000920191909152509295843595909490935060408101925060200135905064010000000081111561021357600080fd5b82018360208201111561022557600080fd5b8035906020019184602083028401116401000000008311171561024757600080fd5b50909250905061026e565b604080516001600160a01b039092168252519081900360200190f35b60008061029a7f0000000000000000000000000000000000000000000000000000000000000000610634565b905060006102c77f0000000000000000000000000000000000000000000000000000000000000000610634565b9050806001600160a01b031663ded96d488c848c8c8c8c6040518763ffffffff1660e01b815260040180876001600160a01b03168152602001866001600160a01b03168152602001806020018060200180602001858152602001848103845288818151815260200191508051906020019080838360005b8381101561035657818101518382015260200161033e565b50505050905090810190601f1680156103835780820380516001836020036101000a031916815260200191505b50848103835287518152875160209182019189019080838360005b838110156103b657818101518382015260200161039e565b50505050905090810190601f1680156103e35780820380516001836020036101000a031916815260200191505b50848103825286518152865160209182019188019080838360005b838110156104165781810151838201526020016103fe565b50505050905090810190601f1680156104435780820380516001836020036101000a031916815260200191505b509950505050505050505050600060405180830381600087803b15801561046957600080fd5b505af115801561047d573d6000803e3d6000fd5b50505050816001600160a01b031663dfa5e83b348e8e8e8e8e8c8c8a6040518a63ffffffff1660e01b815260040180896001600160a01b03168152602001886001600160a01b03168152602001876001600160a01b03168152602001806020018060200180602001856001600160a01b03168152602001848103845289818151815260200191508051906020019080838360005b83811015610529578181015183820152602001610511565b50505050905090810190601f1680156105565780820380516001836020036101000a031916815260200191505b5084810383528851815288516020918201918a019080838360005b83811015610589578181015183820152602001610571565b50505050905090810190601f1680156105b65780820380516001836020036101000a031916815260200191505b508481038252878782818152602001925060200280828437600081840152601f19601f8201169050808301925050509b5050505050505050505050506000604051808303818588803b15801561060b57600080fd5b505af115801561061f573d6000803e3d6000fd5b50949f9e505050505050505050505050505050565b60006040517f3d602d80600a3d3981f3363d3d373d3d3d363d7300000000000000000000000081528260601b60148201527f5af43d82803e903d91602b57fd5bf3000000000000000000000000000000000060288201526037816000f09150506001600160a01b03811661070957604080517f08c379a000000000000000000000000000000000000000000000000000000000815260206004820152601660248201527f455243313136373a20637265617465206661696c656400000000000000000000604482015290519081900360640190fd5b91905056fea2646970667358221220bd029e33af9394468d88a55b14b956e844e32fe6ca7edd31147d7ba5820840ee64736f6c63430007060033608060405267016345785d8a0000607b5534801561001c57600080fd5b506001606555615ff680620000326000396000f3fe6080604052600436106103fd5760003560e01c80638b0e9f3f1161020d578063b55b6b0511610128578063cb12233b116100bb578063f10684541161008a578063f77c47911161006f578063f77c479114611217578063f82816261461122c578063f85cb5c81461124157610404565b8063f1068454146111ed578063f251fc8c1461120257610404565b8063cb12233b14610fe0578063dd62ed3e14610ff5578063dfa5e83b14611030578063e2073f90146111d857610404565b8063b9e67539116100f7578063b9e6753914610f6e578063ba5d307814610f83578063bc2f32f214610f98578063c408689314610fad57610404565b8063b55b6b0514610efd578063b59adc5914610f12578063b63c44e714610f44578063b918ee2514610f5957610404565b8063a63c643d116101a0578063acec338a1161016f578063acec338a14610e24578063b2644e6614610e50578063b304b81514610e83578063b49a60bb14610ee857610404565b8063a63c643d14610d88578063a9059cbb14610d9d578063a9b5ca4d14610dd6578063aaffadf314610e0f57610404565b806395d89b41116101dc57806395d89b4114610cd75780639ab6374214610cec578063a37aa3c314610d25578063a457c2d714610d4f57610404565b80638b0e9f3f14610c665780638dbdbe6d14610c7b5780638ee330b014610cad57806395cdbedb14610cc257610404565b806339509351116103185780635bf8633a116102ab5780637550ed181161027a578063792e42e21161025f578063792e42e214610c275780637ce9059c14610c3c57806386fa506314610c5157610404565b80637550ed1814610bfd57806376e7985414610c1257610404565b80635bf8633a14610b8b57806360d442ca14610ba057806365f985b614610bb557806370a0823114610bca57610404565b80633deddb3f116102e75780633deddb3f14610b225780634422b0dc14610b3757806345357cc114610b615780634edfb99a14610b7657610404565b80633950935114610a065780633a82192514610a3f5780633ad8d04d14610a725780633d8270f514610aef57610404565b80631f6d494211610390578063297ce5981161035f578063297ce5981461095a5780632befcc5c1461096f5780632e8ebaae146109a8578063313ce567146109db57610404565b80631f6d49421461084257806322385e38146108a857806323b872dd146108d2578063250caaa81461091557610404565b8063095ea7b3116103cc578063095ea7b3146105225780630ad58d2f1461055b57806318160ddd1461059a5780631e6ea56f146105c157610404565b806301681a621461040957806302d05d3f1461043e57806302fb0c5e1461046f57806306fdde031461049857610404565b3661040457005b600080fd5b34801561041557600080fd5b5061043c6004803603602081101561042c57600080fd5b50356001600160a01b0316611256565b005b34801561044a57600080fd5b5061045361138c565b604080516001600160a01b039092168252519081900360200190f35b34801561047b57600080fd5b5061048461139b565b604080519115158252519081900360200190f35b3480156104a457600080fd5b506104ad6113ab565b6040805160208082528351818301528351919283929083019185019080838360005b838110156104e75781810151838201526020016104cf565b50505050905090810190601f1680156105145780820380516001836020036101000a031916815260200191505b509250505060405180910390f35b34801561052e57600080fd5b506104846004803603604081101561054557600080fd5b506001600160a01b038135169060200135611441565b34801561056757600080fd5b5061043c6004803603606081101561057e57600080fd5b50803590602081013590604001356001600160a01b031661145f565b3480156105a657600080fd5b506105af6114d9565b60408051918252519081900360200190f35b3480156105cd57600080fd5b5061043c600480360360c08110156105e457600080fd5b8101906020810181356401000000008111156105ff57600080fd5b82018360208201111561061157600080fd5b8035906020019184600183028401116401000000008311171561063357600080fd5b91908080601f016020809104026020016040519081016040528093929190818152602001838380828437600092019190915250929594936020810193503591505064010000000081111561068657600080fd5b82018360208201111561069857600080fd5b803590602001918460018302840111640100000000831117156106ba57600080fd5b91908080601f016020809104026020016040519081016040528093929190818152602001838380828437600092019190915250929594936020810193503591505064010000000081111561070d57600080fd5b82018360208201111561071f57600080fd5b8035906020019184602083028401116401000000008311171561074157600080fd5b91939092909160208101903564010000000081111561075f57600080fd5b82018360208201111561077157600080fd5b8035906020019184602083028401116401000000008311171561079357600080fd5b9193909290916020810190356401000000008111156107b157600080fd5b8201836020820111156107c357600080fd5b803590602001918460208302840111640100000000831117156107e557600080fd5b91939092909160208101903564010000000081111561080357600080fd5b82018360208201111561081557600080fd5b8035906020019184602083028401116401000000008311171561083757600080fd5b5090925090506114df565b34801561084e57600080fd5b506108756004803603602081101561086557600080fd5b50356001600160a01b0316611a44565b604080519687526020870195909552858501939093526060850191909152608084015260a0830152519081900360c00190f35b3480156108b457600080fd5b506105af600480360360208110156108cb57600080fd5b5035611a79565b3480156108de57600080fd5b50610484600480360360608110156108f557600080fd5b506001600160a01b03813581169160208101359091169060400135611aa7565b34801561092157600080fd5b5061043c6004803603608081101561093857600080fd5b50803590602081013590604081013590606001356001600160a01b0316611b2f565b34801561096657600080fd5b506105af611df2565b34801561097b57600080fd5b5061043c6004803603604081101561099257600080fd5b506001600160a01b038135169060200135611df8565b3480156109b457600080fd5b50610484600480360360208110156109cb57600080fd5b50356001600160a01b0316611e25565b3480156109e757600080fd5b506109f0611e43565b6040805160ff9092168252519081900360200190f35b348015610a1257600080fd5b5061048460048036036040811015610a2957600080fd5b506001600160a01b038135169060200135611e4c565b348015610a4b57600080fd5b5061048460048036036020811015610a6257600080fd5b50356001600160a01b0316611e9a565b348015610a7e57600080fd5b5061043c60048036036020811015610a9557600080fd5b810190602081018135640100000000811115610ab057600080fd5b820183602082011115610ac257600080fd5b80359060200191846020830284011164010000000083111715610ae457600080fd5b509092509050611eaf565b348015610afb57600080fd5b5061087560048036036020811015610b1257600080fd5b50356001600160a01b0316612208565b348015610b2e57600080fd5b506105af612245565b348015610b4357600080fd5b5061043c60048036036020811015610b5a57600080fd5b503561224b565b348015610b6d57600080fd5b5061043c612428565b348015610b8257600080fd5b506104846124c8565b348015610b9757600080fd5b506104536124d8565b348015610bac57600080fd5b506105af6124e7565b348015610bc157600080fd5b506105af6124ed565b348015610bd657600080fd5b506105af60048036036020811015610bed57600080fd5b50356001600160a01b03166124f3565b348015610c0957600080fd5b506105af61250e565b348015610c1e57600080fd5b506105af612514565b348015610c3357600080fd5b506105af612519565b348015610c4857600080fd5b506105af61251f565b348015610c5d57600080fd5b506105af612525565b348015610c7257600080fd5b506105af61252b565b61043c60048036036060811015610c9157600080fd5b50803590602081013590604001356001600160a01b0316612531565b348015610cb957600080fd5b506105af61281d565b348015610cce57600080fd5b506105af612823565b348015610ce357600080fd5b506104ad612829565b348015610cf857600080fd5b5061043c60048036036040811015610d0f57600080fd5b506001600160a01b03813516906020013561288a565b348015610d3157600080fd5b5061043c60048036036020811015610d4857600080fd5b50356129f1565b348015610d5b57600080fd5b5061048460048036036040811015610d7257600080fd5b506001600160a01b038135169060200135612e84565b348015610d9457600080fd5b506105af612eec565b348015610da957600080fd5b5061048460048036036040811015610dc057600080fd5b506001600160a01b038135169060200135612ef2565b348015610de257600080fd5b5061043c60048036036040811015610df957600080fd5b50803590602001356001600160a01b0316612f06565b348015610e1b57600080fd5b506105af6130bb565b348015610e3057600080fd5b5061043c60048036036020811015610e4757600080fd5b503515156130c1565b348015610e5c57600080fd5b5061043c60048036036020811015610e7357600080fd5b50356001600160a01b0316613118565b348015610e8f57600080fd5b50610e986131c1565b60408051602080825283518183015283519192839290830191858101910280838360005b83811015610ed4578181015183820152602001610ebc565b505050509050019250505060405180910390f35b348015610ef457600080fd5b50610e98613222565b348015610f0957600080fd5b506105af613282565b348015610f1e57600080fd5b506105af60048036036040811015610f3557600080fd5b50803590602001351515613288565b348015610f5057600080fd5b506105af613483565b348015610f6557600080fd5b506105af613489565b348015610f7a57600080fd5b506105af613495565b348015610f8f57600080fd5b506105af61349b565b348015610fa457600080fd5b506105af6134a1565b348015610fb957600080fd5b506105af60048036036020811015610fd057600080fd5b50356001600160a01b03166134ae565b348015610fec57600080fd5b506105af6135ab565b34801561100157600080fd5b506105af6004803603604081101561101857600080fd5b506001600160a01b03813581169160200135166135b1565b61043c600480360360e081101561104657600080fd5b6001600160a01b038235811692602081013582169260408201359092169181019060808101606082013564010000000081111561108257600080fd5b82018360208201111561109457600080fd5b803590602001918460018302840111640100000000831117156110b657600080fd5b91908080601f016020809104026020016040519081016040528093929190818152602001838380828437600092019190915250929594936020810193503591505064010000000081111561110957600080fd5b82018360208201111561111b57600080fd5b8035906020019184600183028401116401000000008311171561113d57600080fd5b91908080601f016020809104026020016040519081016040528093929190818152602001838380828437600092019190915250929594936020810193503591505064010000000081111561119057600080fd5b8201836020820111156111a257600080fd5b803590602001918460208302840111640100000000831117156111c457600080fd5b9193509150356001600160a01b03166135dc565b3480156111e457600080fd5b506105af613936565b3480156111f957600080fd5b506105af61393c565b34801561120e57600080fd5b506105af613942565b34801561122357600080fd5b50610453613948565b34801561123857600080fd5b5061043c613957565b34801561124d57600080fd5b50610453613a19565b61125e613a28565b60665461127b906001600160a01b0383811691161415600e613a3a565b6000816001600160a01b03166370a08231306040518263ffffffff1660e01b815260040180826001600160a01b0316815260200191505060206040518083038186803b1580156112ca57600080fd5b505afa1580156112de573d6000803e3d6000fd5b505050506040513d60208110156112f457600080fd5b505190506113058115156008613a3a565b606754604080516361d027b360e01b81529051611388926001600160a01b0316916361d027b3916004808301926020929190829003018186803b15801561134b57600080fd5b505afa15801561135f573d6000803e3d6000fd5b505050506040513d602081101561137557600080fd5b50516001600160a01b0384169083613a48565b5050565b6069546001600160a01b031681565b606954600160a01b900460ff1681565b60368054604080516020601f60026000196101006001881615020190951694909404938401819004810282018101909252828152606093909290918301828280156114375780601f1061140c57610100808354040283529160200191611437565b820191906000526020600020905b81548152906001019060200180831161141a57829003601f168201915b5050505050905090565b600061145561144e613ac8565b8484613acc565b5060015b92915050565b600260655414156114b7576040805162461bcd60e51b815260206004820152601f60248201527f5265656e7472616e637947756172643a207265656e7472616e742063616c6c00604482015290519081900360640190fd5b60026065556114c4613a28565b6114cf838383613bb8565b5050600160655550565b60355490565b6114e7613e5e565b6114ef613a28565b606754604080517fc8ed947f0000000000000000000000000000000000000000000000000000000081529051611614926001600160a01b03169163c8ed947f916004808301926020929190829003018186803b15801561154e57600080fd5b505afa158015611562573d6000803e3d6000fd5b505050506040513d602081101561157857600080fd5b5051604080517f5066c71400000000000000000000000000000000000000000000000000000000815230600482015233602482015290516001600160a01b0390921691635066c71491604480820192602092909190829003018186803b1580156115e157600080fd5b505afa1580156115f5573d6000803e3d6000fd5b505050506040513d602081101561160b57600080fd5b5051601e613a3a565b607f5461162590601411601a613a3a565b61163360058814604d613a3a565b606754604080517f9ef3571000000000000000000000000000000000000000000000000000000000815290516000926001600160a01b031691639ef35710916004808301926020929190829003018186803b15801561169157600080fd5b505afa1580156116a5573d6000803e3d6000fd5b505050506040513d60208110156116bb57600080fd5b81019080805190602001909291905050506001600160a01b03166399d5ea718c8c3330606760009054906101000a90046001600160a01b03168f8f6040518863ffffffff1660e01b8152600401808060200180602001886001600160a01b03168152602001876001600160a01b03168152602001866001600160a01b031681526020018060200184810384528b818151815260200191508051906020019080838360005b8381101561177757818101518382015260200161175f565b50505050905090810190601f1680156117a45780820380516001836020036101000a031916815260200191505b5084810383528a5181528a516020918201918c019080838360005b838110156117d75781810151838201526020016117bf565b50505050905090810190601f1680156118045780820380516001836020036101000a031916815260200191505b508481038252868682818152602001925060200280828437600081840152601f19601f8201169050808301925050509a5050505050505050505050602060405180830381600087803b15801561185957600080fd5b505af115801561186d573d6000803e3d6000fd5b505050506040513d602081101561188357600080fd5b50516001600160a01b0381166000908152608160205260409020805460ff191660019081179091559091506118d7908a908a908181106118bf57fe5b90506020020135607a54613e7690919063ffffffff16565b607a55607f80546001810182556000919091527f66925e85f1a4743fd8d60ba595ed74887b7caf321dd83b21e04d77c11538340801805473ffffffffffffffffffffffffffffffffffffffff19166001600160a01b0383169081179091556040517fc2ea0bc40000000000000000000000000000000000000000000000000000000081526060600482019081526064820189905263c2ea0bc4918a918a918a918a918a918a918190602481019060448101906084018a60208b0280828437600083820152601f01601f19169091018581038452888152602090810191508990890280828437600083820152601f01601f19169091018581038352868152602090810191508790870280828437600081840152601f19601f8201169050808301925050509950505050505050505050600060405180830381600087803b158015611a1f57600080fd5b505af1158015611a33573d6000803e3d6000fd5b505050505050505050505050505050565b607260205260009081526040902080546001820154600283015460038401546004850154600590950154939492939192909186565b6066546000908190611a9f90611a98906001600160a01b031685613ed0565b6000614054565b949350505050565b6000611ab4848484614184565b611b2484611ac0613ac8565b611b1f85604051806060016040528060288152602001615eb8602891396001600160a01b038a16600090815260346020526040812090611afe613ac8565b6001600160a01b0316815260208101919091526040016000205491906142e1565b613acc565b5060015b9392505050565b33600090815260816020526040902054611be39060ff168015611bc75750306001600160a01b0316336001600160a01b03166356ba88b86040518163ffffffff1660e01b815260040160206040518083038186803b158015611b9057600080fd5b505afa158015611ba4573d6000803e3d6000fd5b505050506040513d6020811015611bba57600080fd5b50516001600160a01b0316145b80611bdc57506067546001600160a01b031633145b601b613a3a565b6000611c02611bfd84611bf7606a54614378565b906143dc565b614441565b9050611c0d81614498565b426071541115611c4a57611c42611c3b611c32426071546144df90919063ffffffff16565b607054906144df565b4290613e76565b607155611c5c565b607054611c58904290613e76565b6071555b606b54611c699085613e76565b606b55606c54611c799086613e76565b606c5573c02aaa39b223fe8d0a0e5c4f27ead9083c756cc2632e1a7d4d611ca08787613e76565b6040518263ffffffff1660e01b815260040180828152602001915050600060405180830381600087803b158015611cd657600080fd5b505af1158015611cea573d6000803e3d6000fd5b5050606d54611cfc92509050846143dc565b50611d6a82607f805480602002602001604051908101604052809291908181526020018280548015611d5757602002820191906000526020600020905b81546001600160a01b03168152600190910190602001808311611d39575b505050505061453c90919063ffffffff16565b8051611d7e91607f91602090910190615c81565b505060808054600181019091557f59f3fb058c6bba7a4e76396639fc4dd21bd59163db798899cf56cef48b3c9ec90180546001600160a01b0390921673ffffffffffffffffffffffffffffffffffffffff19909216821790556000908152608160205260409020805460ff19169055505050565b607d5481565b611e006145b9565b611e09826124f3565b8110611e1b57611e18826124f3565b90505b61138882826145d7565b6001600160a01b031660009081526081602052604090205460ff1690565b60385460ff1690565b6000611455611e59613ac8565b84611b1f8560346000611e6a613ac8565b6001600160a01b03908116825260208083019390935260409182016000908120918c168152925290205490613e76565b60816020526000908152604090205460ff1681565b60026065541415611f07576040805162461bcd60e51b815260206004820152601f60248201527f5265656e7472616e637947756172643a207265656e7472616e742063616c6c00604482015290519081900360640190fd5b6002606555611f14613a28565b3360009081526072602052604090206002810154611f35904211600c613a3a565b6067546040805162fca95560e61b815290516000926001600160a01b031691633f2a5540916004808301926020929190829003018186803b158015611f7957600080fd5b505afa158015611f8d573d6000803e3d6000fd5b505050506040513d6020811015611fa357600080fd5b50516040517f69795e93000000000000000000000000000000000000000000000000000000008152306004820181815233602484018190526060604485019081526064850189905294955060009485946001600160a01b038816946369795e93949093928c928c929190608401846020850280828437600081840152601f19601f82011690508083019250505095505050505050604080518083038186803b15801561204e57600080fd5b505afa158015612062573d6000803e3d6000fd5b505050506040513d604081101561207857600080fd5b5080516020909101519092506bffffffffffffffffffffffff16905081158015906120a35750814710155b1561210a5760048401546120b79083613e76565b60048501556120c633836146d3565b606b546120d390836144df565b606b55604051829033907f4dacaff8a707e7b54321fbdedb3b65d1f3316b59787949c034bae8946d6ff4e190600090a34260028501555b80156121fb57600384015461211f9082613e76565b6003850155604080517f6bf15bbd0000000000000000000000000000000000000000000000000000000081523360048201526bffffffffffffffffffffffff8316602482015290516001600160a01b03851691636bf15bbd91604480830192600092919082900301818387803b15801561219857600080fd5b505af11580156121ac573d6000803e3d6000fd5b5050604080516bffffffffffffffffffffffff8516815290513393507f475c0834f68d797672d1b72d49bd010f85eecfd60d3fb7afb7ede1a03530f4a492509081900360200190a24260028501555b5050600160655550505050565b6001600160a01b03166000908152607260205260409020805460018201546002830154600384015460048501546005909501549395929491939092565b607e5481565b6122536145b9565b61225b613e5e565b606654604080516370a0823160e01b815230600482015290516000926001600160a01b0316916370a08231916024808301926020929190829003018186803b1580156122a657600080fd5b505afa1580156122ba573d6000803e3d6000fd5b505050506040513d60208110156122d057600080fd5b5051606754604080517f31375477000000000000000000000000000000000000000000000000000000008152905192935060009261236e9286926001600160a01b0390911691633137547791600480820192602092909190829003018186803b15801561233c57600080fd5b505afa158015612350573d6000803e3d6000fd5b505050506040513d602081101561236657600080fd5b5051906147b8565b90506123878261237e8584613e76565b11156004613a3a565b606754604080516361d027b360e01b8152905161240c926001600160a01b0316916361d027b3916004808301926020929190829003018186803b1580156123cd57600080fd5b505afa1580156123e1573d6000803e3d6000fd5b505050506040513d60208110156123f757600080fd5b50516066546001600160a01b03169083613a48565b606654612423906001600160a01b03163385613a48565b505050565b607154421015801561243b575060785447115b80156124495750606c544710155b156124c657600060718190555073c02aaa39b223fe8d0a0e5c4f27ead9083c756cc26001600160a01b031663d0e30db0606c546040518263ffffffff1660e01b81526004016000604051808303818588803b1580156124a757600080fd5b505af11580156124bb573d6000803e3d6000fd5b50506000606c555050505b565b606954600160a81b900460ff1681565b6068546001600160a01b031681565b60825481565b60705481565b6001600160a01b031660009081526033602052604090205490565b606f5481565b601481565b606d5481565b60715481565b60745481565b607a5481565b60026065541415612589576040805162461bcd60e51b815260206004820152601f60248201527f5265656e7472616e637947756172643a207265656e7472616e742063616c6c00604482015290519081900360640190fd5b6002606555612596613e5e565b6069546126c390600160a81b900460ff1680156126bc5750606760009054906101000a90046001600160a01b03166001600160a01b031663c8ed947f6040518163ffffffff1660e01b815260040160206040518083038186803b1580156125fc57600080fd5b505afa158015612610573d6000803e3d6000fd5b505050506040513d602081101561262657600080fd5b5051604080517fc7ec5d5d00000000000000000000000000000000000000000000000000000000815230600482015233602482015290516001600160a01b039092169163c7ec5d5d91604480820192602092909190829003018186803b15801561268f57600080fd5b505afa1580156126a3573d6000803e3d6000fd5b505050506040513d60208110156126b957600080fd5b50515b601d613a3a565b6126d36078543410156001613a3a565b607554156126ff576126ff6075546126f634606a54613e7690919063ffffffff16565b11156000613a3a565b61271060745460735410603d613a3a565b61271d8334146005613a3a565b73c02aaa39b223fe8d0a0e5c4f27ead9083c756cc26001600160a01b031663d0e30db0346040518263ffffffff1660e01b81526004016000604051808303818588803b15801561276c57600080fd5b505af1158015612780573d6000803e3d6000fd5b505050505061278d612428565b6066546127a3906001600160a01b0316846147d6565b6000806127b1856001614054565b915091506127cc6079546127c36114d9565b10156002613a3a565b6127da848210156002613a3a565b6066546127f0906001600160a01b03168361484f565b61281133848361280b85606a54613e7690919063ffffffff16565b8661489b565b50506001606555505050565b606c5481565b607c5481565b60378054604080516020601f60026000196101006001881615020190951694909404938401819004810282018101909252828152606093909290918301828280156114375780601f1061140c57610100808354040283529160200191611437565b6067546040805163411137c360e01b81526001600160a01b038581166004830152915161290f93929092169163411137c391602480820192602092909190829003018186803b1580156128dc57600080fd5b505afa1580156128f0573d6000803e3d6000fd5b505050506040513d602081101561290657600080fd5b50516012613a3a565b60825461291c9082613e76565b6082819055158015906129a75750608254606654604080516370a0823160e01b815230600482015290516001600160a01b03909216916370a0823191602480820192602092909190829003018186803b15801561297857600080fd5b505afa15801561298c573d6000803e3d6000fd5b505050506040513d60208110156129a257600080fd5b505110155b15611388576082546066546129c9916001600160a01b03909116908490613a48565b6129e86129e3608254606a546144df90919063ffffffff16565b614498565b60006082555050565b6129f9613e5e565b6067546040805163411137c360e01b81523360048201529051612a45926001600160a01b03169163411137c3916024808301926020929190829003018186803b1580156128dc57600080fd5b612a5b670de0b6b3a76400008211156013613a3a565b606654604080516370a0823160e01b815230600482015290516000926001600160a01b0316916370a08231916024808301926020929190829003018186803b158015612aa657600080fd5b505afa158015612aba573d6000803e3d6000fd5b505050506040513d6020811015612ad057600080fd5b5051905060005b607f54811015612423576000607f8281548110612af057fe5b9060005260206000200160009054906101000a90046001600160a01b031690506000612b8b607a54612b85846001600160a01b0316630d15fd776040518163ffffffff1660e01b815260040160206040518083038186803b158015612b5457600080fd5b505afa158015612b68573d6000803e3d6000fd5b505050506040513d6020811015612b7e57600080fd5b5051614441565b906149d9565b90506000612b9985836147b8565b9050612c9b62015180612c95856001600160a01b0316630fb5a6b46040518163ffffffff1660e01b815260040160206040518083038186803b158015612bde57600080fd5b505afa158015612bf2573d6000803e3d6000fd5b505050506040513d6020811015612c0857600080fd5b5051604080517f825deffe00000000000000000000000000000000000000000000000000000000815290516001600160a01b0389169163825deffe916004808301926020929190829003018186803b158015612c6357600080fd5b505afa158015612c77573d6000803e3d6000fd5b505050506040513d6020811015612c8d57600080fd5b505190613e76565b906144df565b42108015612d0d5750826001600160a01b031663302733566040518163ffffffff1660e01b815260040160206040518083038186803b158015612cdd57600080fd5b505afa158015612cf1573d6000803e3d6000fd5b505050506040513d6020811015612d0757600080fd5b50518110155b8015612e0d5750826001600160a01b03166393baae416040518163ffffffff1660e01b815260040160206040518083038186803b158015612d4d57600080fd5b505afa158015612d61573d6000803e3d6000fd5b505050506040513d6020811015612d7757600080fd5b5051604080517f03cddb2c0000000000000000000000000000000000000000000000000000000081529051612e0a916001600160a01b038716916303cddb2c91600480820192602092909190829003018186803b158015612dd757600080fd5b505afa158015612deb573d6000803e3d6000fd5b505050506040513d6020811015612e0157600080fd5b50518390613e76565b11155b15612e7957826001600160a01b031663f101e82b82886040518363ffffffff1660e01b81526004018083815260200182815260200192505050600060405180830381600087803b158015612e6057600080fd5b505af1158015612e74573d6000803e3d6000fd5b505050505b505050600101612ad7565b6000611455612e91613ac8565b84611b1f85604051806060016040528060258152602001615f9c6025913960346000612ebb613ac8565b6001600160a01b03908116825260208083019390935260409182016000908120918d168152925290205491906142e1565b606e5481565b6000611455612eff613ac8565b8484614184565b60026065541415612f5e576040805162461bcd60e51b815260206004820152601f60248201527f5265656e7472616e637947756172643a207265656e7472616e742063616c6c00604482015290519081900360640190fd5b6002606555612f6b613a28565b612f80612f7833846149f1565b15601c613a3a565b6000612f9e612f9784670214e8348c4f00006147b8565b84906144df565b9050600080612fab614be4565b909350915061302d9050612fbf83856144df565b826001600160a01b031663302733566040518163ffffffff1660e01b815260040160206040518083038186803b158015612ff857600080fd5b505afa15801561300c573d6000803e3d6000fd5b505050506040513d602081101561302257600080fd5b505111156044613a3a565b806001600160a01b03166342296724846040518263ffffffff1660e01b815260040180828152602001915050600060405180830381600087803b15801561307357600080fd5b505af1158015613087573d6000803e3d6000fd5b505050506130af336130aa670214e8348c4f0000886147b890919063ffffffff16565b6145d7565b61281183600186613bb8565b60785481565b6067546130da906001600160a01b031633146010613a3a565b6069546130fa9060ff600160a01b90910416151582151514156016613a3a565b60698054911515600160a01b0260ff60a01b19909216919091179055565b6131206145b9565b61318b81607f805480602002602001604051908101604052809291908181526020018280548015611d57576020028201919060005260206000209081546001600160a01b03168152600190910190602001808311611d3957505050505061453c90919063ffffffff16565b805161319f91607f91602090910190615c81565b506001600160a01b03166000908152608160205260409020805460ff19169055565b6060608080548060200260200160405190810160405280929190818152602001828054801561143757602002820191906000526020600020905b81546001600160a01b031681526001909101906020018083116131fb575050505050905090565b6060607f805480602002602001604051908101604052809291908181526020018280548015611437576020028201919060005260206000209081546001600160a01b031681526001909101906020018083116131fb575050505050905090565b60795481565b600080606660009054906101000a90046001600160a01b03166001600160a01b031663313ce5676040518163ffffffff1660e01b815260040160206040518083038186803b1580156132d957600080fd5b505afa1580156132ed573d6000803e3d6000fd5b505050506040513d602081101561330357600080fd5b5051905060ff8116600a0a600061331a86836149d9565b90506133246114d9565b613332579250611459915050565b606754604080517f294d237c00000000000000000000000000000000000000000000000000000000815290516000926001600160a01b03169163294d237c916004808301926020929190829003018186803b15801561339057600080fd5b505afa1580156133a4573d6000803e3d6000fd5b505050506040513d60208110156133ba57600080fd5b505160665460408051635e0a3b9d60e11b81523060048201526001600160a01b0392831660248201529051919092169163bc14773a916044808301926020929190829003018186803b15801561340f57600080fd5b505afa158015613423573d6000803e3d6000fd5b505050506040513d602081101561343957600080fd5b5051905061344781846149d9565b9050851561346e5761346b61346461345d6114d9565b84906149d9565b82906144df565b90505b61347882826149d9565b979650505050505050565b60755481565b670214e8348c4f000081565b606b5481565b606a5481565b683635c9adc5dea0000081565b60008060005b607f54811015613591576000607f82815481106134cd57fe5b6000918252602080832090910154604080517f950c78220000000000000000000000000000000000000000000000000000000081526001600160a01b038a81166004830152915191909216945061357292859263950c78229260248083019392829003018186803b15801561354157600080fd5b505afa158015613555573d6000803e3d6000fd5b505050506040513d602081101561356b57600080fd5b5051614d62565b90508015613587576135848482613e76565b93505b50506001016134b4565b508061359c846124f3565b101561145957611b28836124f3565b60765481565b6001600160a01b03918216600090815260346020908152604080832093909416825291909152205490565b600054610100900460ff16806135f557506135f5614d73565b80613603575060005460ff16155b61363e5760405162461bcd60e51b815260040180806020018281038252602e815260200180615e69602e913960400191505060405180910390fd5b600054610100900460ff16158015613669576000805460ff1961ff0019909116610100171660011790555b61367f6001600160a01b03881615156017613a3a565b6136956001600160a01b03891615156017613a3a565b6136ab6001600160a01b038a1615156017613a3a565b6136b960098414604e613a3a565b61373c886001600160a01b031663f979cdd98b6040518263ffffffff1660e01b815260040180826001600160a01b0316815260200191505060206040518083038186803b15801561370957600080fd5b505afa15801561371d573d6000803e3d6000fd5b505050506040513d602081101561373357600080fd5b5051600e613a3a565b6137468686614d84565b6067805473ffffffffffffffffffffffffffffffffffffffff199081166001600160a01b038b8116919091179092556066805482168c8416179055606980546064607455606880548416878616179055600160a81b9216928a169290921760ff60a81b19161790556138693485856000816137bd57fe5b90506020020135868660018181106137d157fe5b90506020020135878760028181106137e557fe5b90506020020135888860038181106137f957fe5b905060200201358989600481811061380d57fe5b905060200201358a8a600581811061382157fe5b905060200201358b8b600681811061383557fe5b905060200201358c8c600781811061384957fe5b905060200201358d8d600881811061385d57fe5b90506020020135614e39565b6069805460ff60a01b1916600160a01b179055604080517fd0e30db0000000000000000000000000000000000000000000000000000000008152905173c02aaa39b223fe8d0a0e5c4f27ead9083c756cc29163d0e30db091349160048082019260009290919082900301818588803b1580156138e457600080fd5b505af11580156138f8573d6000803e3d6000fd5b505060695461391993506001600160a01b031691508190503480600061489b565b801561392b576000805461ff00191690555b505050505050505050565b607b5481565b60775481565b60735481565b6067546001600160a01b031681565b606954613970906001600160a01b031633146011613a3a565b606954613a0a90600160a81b900460ff168015613a035750606760009054906101000a90046001600160a01b03166001600160a01b0316637f80e05b6040518163ffffffff1660e01b815260040160206040518083038186803b1580156139d657600080fd5b505afa1580156139ea573d6000803e3d6000fd5b505050506040513d6020811015613a0057600080fd5b50515b6043613a3a565b6069805460ff60a81b19169055565b6066546001600160a01b031681565b6124c66000613a36336124f3565b11600f5b8161138857611388816150df565b604080516001600160a01b038416602482015260448082018490528251808303909101815260649091019091526020810180517bffffffffffffffffffffffffffffffffffffffffffffffffffffffff167fa9059cbb00000000000000000000000000000000000000000000000000000000179052612423908490615132565b3390565b6001600160a01b038316613b115760405162461bcd60e51b8152600401808060200182810382526024815260200180615f266024913960400191505060405180910390fd5b6001600160a01b038216613b565760405162461bcd60e51b8152600401808060200182810382526022815260200180615dc66022913960400191505060405180910390fd5b6001600160a01b03808416600081815260346020908152604080832094871680845294825291829020859055815185815291517f8c5be1e5ebec7d5bd14f71427d1e84f3dd0314c0f7b2291e5b200ac8c7c3b9259281900390910190a3505050565b613bce613bc4336124f3565b8411156006613a3a565b606f5433600090815260726020526040902054613bfa9190613bf19042906144df565b10156003613a3a565b604080517fc40868930000000000000000000000000000000000000000000000000000000081523360048201529051613c9791613c8d91309163c4086893916024808301926020929190829003018186803b158015613c5857600080fd5b505afa158015613c6c573d6000803e3d6000fd5b505050506040513d6020811015613c8257600080fd5b5051612c95336124f3565b8411156007613a3a565b613c9f612428565b606654600090613cb8906001600160a01b031685613ed0565b9050600080613cc8836000614054565b915091506000613cda87612c956114d9565b9050613cf0613ce933846149f1565b6004613a3a565b606654613d06906001600160a01b0316836147d6565b613d166079548210156002613a3a565b613d24868310156002613a3a565b613d2e33886145d7565b81471015613da95773c02aaa39b223fe8d0a0e5c4f27ead9083c756cc2632e1a7d4d613d5a84476144df565b6040518263ffffffff1660e01b815260040180828152602001915050600060405180830381600087803b158015613d9057600080fd5b505af1158015613da4573d6000803e3d6000fd5b505050505b613db2826151e3565b613dbc85836146d3565b606654613dd2906001600160a01b03168461484f565b6000613dde8385613e76565b9050613df081606a5410156008613a3a565b606a54613e01906129e390836144df565b60408051848152602081018a905280820186905242606082015290516001600160a01b0388169133917f25b65b867b695d9502ad64f047cea91edc82a4d945f78fb241dd9f58d10cbb359181900360800190a35050505050505050565b6069546124c690600160a01b900460ff166015613a3a565b600082820183811015611b28576040805162461bcd60e51b815260206004820152601b60248201527f536166654d6174683a206164646974696f6e206f766572666c6f770000000000604482015290519081900360640190fd5b600080606760009054906101000a90046001600160a01b03166001600160a01b031663294d237c6040518163ffffffff1660e01b815260040160206040518083038186803b158015613f2157600080fd5b505afa158015613f35573d6000803e3d6000fd5b505050506040513d6020811015613f4b57600080fd5b505160408051635e0a3b9d60e11b81523060048201526001600160a01b0387811660248301529151919092169163bc14773a916044808301926020929190829003018186803b158015613f9d57600080fd5b505afa158015613fb1573d6000803e3d6000fd5b505050506040513d6020811015613fc757600080fd5b505190506000613fd784836147b8565b90506000856001600160a01b031663313ce5676040518163ffffffff1660e01b815260040160206040518083038186803b15801561401457600080fd5b505afa158015614028573d6000803e3d6000fd5b505050506040513d602081101561403e57600080fd5b5051905060006134788360ff8416600a0a6147b8565b6000806000836140dd57606760009054906101000a90046001600160a01b03166001600160a01b031663259072e16040518163ffffffff1660e01b815260040160206040518083038186803b1580156140ac57600080fd5b505afa1580156140c0573d6000803e3d6000fd5b505050506040513d60208110156140d657600080fd5b5051614158565b606760009054906101000a90046001600160a01b03166001600160a01b03166350d9f37f6040518163ffffffff1660e01b815260040160206040518083038186803b15801561412b57600080fd5b505afa15801561413f573d6000803e3d6000fd5b505050506040513d602081101561415557600080fd5b50515b9050600061416682876147b8565b9050600061417487836144df565b91945090925050505b9250929050565b6001600160a01b0383166141c95760405162461bcd60e51b8152600401808060200182810382526025815260200180615f016025913960400191505060405180910390fd5b6001600160a01b03821661420e5760405162461bcd60e51b8152600401808060200182810382526023815260200180615d816023913960400191505060405180910390fd5b6142198383836153a5565b61425681604051806060016040528060268152602001615de8602691396001600160a01b03861660009081526033602052604090205491906142e1565b6001600160a01b0380851660009081526033602052604080822093909355908416815220546142859082613e76565b6001600160a01b0380841660008181526033602090815260409182902094909455805185815290519193928716927fddf252ad1be2c89b69c2b068fc378daa952ba7f163c4a11628f55a4df523b3ef92918290030190a3505050565b600081848411156143705760405162461bcd60e51b81526004018080602001828103825283818151815260200191508051906020019080838360005b8381101561433557818101518382015260200161431d565b50505050905090810190601f1680156143625780820380516001836020036101000a031916815260200191505b509250505060405180910390fd5b505050900390565b60007f800000000000000000000000000000000000000000000000000000000000000082106143d85760405162461bcd60e51b8152600401808060200182810382526028815260200180615f4a6028913960400191505060405180910390fd5b5090565b60008282018183128015906143f15750838112155b80614406575060008312801561440657508381125b611b285760405162461bcd60e51b8152600401808060200182810382526021815260200180615e0e6021913960400191505060405180910390fd5b6000808212156143d8576040805162461bcd60e51b815260206004820181905260248201527f53616665436173743a2076616c7565206d75737420626520706f736974697665604482015290519081900360640190fd5b606a805490829055604080518381526020810183905281517f6d470be450a2499ac2a545ef5196797015e58ec3729cdf2c2b1ab85a221debd7929181900390910190a15050565b600082821115614536576040805162461bcd60e51b815260206004820152601e60248201527f536166654d6174683a207375627472616374696f6e206f766572666c6f770000604482015290519081900360640190fd5b50900390565b606060008061454b8585615458565b91509150806145a1576040805162461bcd60e51b815260206004820152601560248201527f41646472657373206e6f7420696e2061727261792e0000000000000000000000604482015290519081900360640190fd5b60006145ad86846154bb565b50935061145992505050565b336000908152608160205260409020546124c69060ff166014613a3a565b6001600160a01b03821661461c5760405162461bcd60e51b8152600401808060200182810382526021815260200180615ee06021913960400191505060405180910390fd5b614628826000836153a5565b61466581604051806060016040528060228152602001615da4602291396001600160a01b03851660009081526033602052604090205491906142e1565b6001600160a01b03831660009081526033602052604090205560355461468b90826144df565b6035556040805182815290516000916001600160a01b038516917fddf252ad1be2c89b69c2b068fc378daa952ba7f163c4a11628f55a4df523b3ef9181900360200190a35050565b80471015614728576040805162461bcd60e51b815260206004820152601d60248201527f416464726573733a20696e73756666696369656e742062616c616e6365000000604482015290519081900360640190fd5b6040516000906001600160a01b0384169083908381818185875af1925050503d8060008114614773576040519150601f19603f3d011682016040523d82523d6000602084013e614778565b606091505b50509050806124235760405162461bcd60e51b815260040180806020018281038252603a815260200180615e2f603a913960400191505060405180910390fd5b6000611b28670de0b6b3a76400006147d0858561561f565b90615678565b6147e460008211600d613a3a565b606754604080517ff979cdd90000000000000000000000000000000000000000000000000000000081526001600160a01b038581166004830152915161138893929092169163f979cdd991602480820192602092909190829003018186803b15801561370957600080fd5b801561138857606754604080516361d027b360e01b81529051611388926001600160a01b0316916361d027b3916004808301926020929190829003018186803b15801561134b57600080fd5b60006148a6856124f3565b905060006148b5856001613288565b90506148c186826156df565b6148cb87836157d1565b6148d484614498565b606854604080517f45b497470000000000000000000000000000000000000000000000000000000081526001600160a01b038981166004830152915191909216916345b497479160248083019260209291908290030181600087803b15801561493c57600080fd5b505af1158015614950573d6000803e3d6000fd5b505050506040513d602081101561496657600080fd5b5061497e905060006149766114d9565b116004613a3a565b604080513481526020810187905280820185905242606082015290516001600160a01b038816917f38574f2bc5e150a9fd6f2ced17988994c3d1d8cafd2b73402da66a97164e8e3f919081900360800190a250505050505050565b6000611b28826147d085670de0b6b3a764000061561f565b6000614a03606c544710156042613a3a565b606654604080516370a0823160e01b815230600482015290516000926001600160a01b0316916370a08231916024808301926020929190829003018186803b158015614a4e57600080fd5b505afa158015614a62573d6000803e3d6000fd5b505050506040513d6020811015614a7857600080fd5b50519050828110614a8d576001915050611459565b6071544211614bda576067546040805162fca95560e61b815290516000926001600160a01b031691633f2a5540916004808301926020929190829003018186803b158015614ada57600080fd5b505afa158015614aee573d6000803e3d6000fd5b505050506040513d6020811015614b0457600080fd5b50516001600160a01b0386811660008181526072602090815260408083206001015481517f7602bdde0000000000000000000000000000000000000000000000000000000081523060048201526024810195909552604485015242606485015251949550909392851692637602bdde926084808201939291829003018186803b158015614b9057600080fd5b505afa158015614ba4573d6000803e3d6000fd5b505050506040513d6020811015614bba57600080fd5b5051606c549091508590614bce90836147b8565b10159350505050611459565b5060009392505050565b60008080808080805b607f5460ff82161015614d55576000607f8260ff1681548110614c0c57fe5b60009182526020918290200154604080517fe4df5e1a00000000000000000000000000000000000000000000000000000000815290516001600160a01b039092169350839263e4df5e1a92600480840193829003018186803b158015614c7157600080fd5b505afa158015614c85573d6000803e3d6000fd5b505050506040513d6020811015614c9b57600080fd5b505115614d4c576000816001600160a01b03166303cddb2c6040518163ffffffff1660e01b815260040160206040518083038186803b158015614cdd57600080fd5b505afa158015614cf1573d6000803e3d6000fd5b505050506040513d6020811015614d0757600080fd5b50519050614d158682613e76565b955084811115614d4a57809450607f8360ff1681548110614d3257fe5b6000918252602090912001546001600160a01b031693505b505b50600101614bed565b5091945092509050909192565b6000808212156143d8575060000390565b6000614d7e30615986565b15905090565b600054610100900460ff1680614d9d5750614d9d614d73565b80614dab575060005460ff16155b614de65760405162461bcd60e51b815260040180806020018281038252602e815260200180615e69602e913960400191505060405180910390fd5b600054610100900460ff16158015614e11576000805460ff1961ff0019909116610100171660011790555b614e1961598c565b614e238383615a2e565b8015612423576000805461ff0019169055505050565b614e4f67016345785d8a00008610156001613a3a565b614e5d858b10156001613a3a565b614e6b888b10156004613a3a565b614e79898b11156000613a3a565b614e90683635c9adc5dea000008a11156000613a3a565b6067546001600160a01b0316614ea98915156002613a3a565b614eb7600088116003613a3a565b614f29816001600160a01b03166334514b146040518163ffffffff1660e01b815260040160206040518083038186803b158015614ef357600080fd5b505afa158015614f07573d6000803e3d6000fd5b505050506040513d6020811015614f1d57600080fd5b50518910156004613a3a565b606754604080517f8e20fb070000000000000000000000000000000000000000000000000000000081529051615043926001600160a01b031691638e20fb07916004808301926020929190829003018186803b158015614f8857600080fd5b505afa158015614f9c573d6000803e3d6000fd5b505050506040513d6020811015614fb257600080fd5b5051861180159061503c5750606760009054906101000a90046001600160a01b03166001600160a01b0316636b2fb6786040518163ffffffff1660e01b815260040160206040518083038186803b15801561500c57600080fd5b505afa158015615020573d6000803e3d6000fd5b505050506040513d602081101561503657600080fd5b50518610155b6018613a3a565b61507767016345785d8a00008510158015615070575061506c67016345785d8a0000600561561f565b8511155b6019613a3a565b61508583831015603f613a3a565b6150a662015180841015801561509f57506302932e008311155b603f613a3a565b50607894909455607e92909255607b55607c55607d5560799290925560759290925542607655606e91909155606f555062093a80607055565b62461bcd60e51b6000908152602060045260076024526642414223000030600a808404818106603090810160081b95839006959095019082900491820690940160101b939093010160c81b604452606490fd5b6000615187826040518060400160405280602081526020017f5361666545524332303a206c6f772d6c6576656c2063616c6c206661696c6564815250856001600160a01b0316615b069092919063ffffffff16565b805190915015612423578080602001905160208110156151a657600080fd5b50516124235760405162461bcd60e51b815260040180806020018281038252602a815260200180615f72602a913960400191505060405180910390fd5b336000818152607260205260409020906151fc906124f3565b61522957600080825560018083018290556005830191909155607354615221916144df565b60735561523e565b60058101546152389083613e76565b60058201555b6067546040805162fca95560e61b815290516000926001600160a01b031691633f2a5540916004808301926020929190829003018186803b15801561528257600080fd5b505afa158015615296573d6000803e3d6000fd5b505050506040513d60208110156152ac57600080fd5b50516077546040805163df14e06f60e01b81523060048201526024810192909252519192506001600160a01b0383169163df14e06f9160448082019260009290919082900301818387803b15801561530357600080fd5b505af1158015615317573d6000803e3d6000fd5b505060775460408051632db4b3a760e01b815230600482015233602482015260006044820181905260648201819052608482019390935290516001600160a01b0386169450632db4b3a7935060a4808301939282900301818387803b15801561537f57600080fd5b505af1158015615393573d6000803e3d6000fd5b50506077805460010190555050505050565b6153b0838383612423565b6124236001600160a01b03841615806153d057506001600160a01b038316155b806154515750606760009054906101000a90046001600160a01b03166001600160a01b031663393bfe496040518163ffffffff1660e01b815260040160206040518083038186803b15801561542457600080fd5b505afa158015615438573d6000803e3d6000fd5b505050506040513d602081101561544e57600080fd5b50515b603b613a3a565b81516000908190815b818110156154ab57846001600160a01b031686828151811061547f57fe5b60200260200101516001600160a01b031614156154a35792506001915061417d9050565b600101615461565b5060001995600095509350505050565b8151606090600090808410615517576040805162461bcd60e51b815260206004820152601860248201527f496e646578206d757374206265203c2041206c656e6774680000000000000000604482015290519081900360640190fd5b60006001820367ffffffffffffffff8111801561553357600080fd5b5060405190808252806020026020018201604052801561555d578160200160208202803683370190505b50905060005b858110156155ab5786818151811061557757fe5b602002602001015182828151811061558b57fe5b6001600160a01b0390921660209283029190910190910152600101615563565b50600185015b828110156155fc578681815181106155c557fe5b60200260200101518260018303815181106155dc57fe5b6001600160a01b03909216602092830291909101909101526001016155b1565b508086868151811061560a57fe5b60200260200101519350935050509250929050565b60008261562e57506000611459565b8282028284828161563b57fe5b0414611b285760405162461bcd60e51b8152600401808060200182810382526021815260200180615e976021913960400191505060405180910390fd5b60008082116156ce576040805162461bcd60e51b815260206004820152601a60248201527f536166654d6174683a206469766973696f6e206279207a65726f000000000000604482015290519081900360640190fd5b8183816156d757fe5b049392505050565b6001600160a01b03821661573a576040805162461bcd60e51b815260206004820152601f60248201527f45524332303a206d696e7420746f20746865207a65726f206164647265737300604482015290519081900360640190fd5b615746600083836153a5565b6035546157539082613e76565b6035556001600160a01b0382166000908152603360205260409020546157799082613e76565b6001600160a01b03831660008181526033602090815260408083209490945583518581529351929391927fddf252ad1be2c89b69c2b068fc378daa952ba7f163c4a11628f55a4df523b3ef9281900390910190a35050565b6001600160a01b03821660009081526072602052604090208115806157f857506001810154155b156158155760735461580b906001613e76565b6073554260018201555b4281556067546040805162fca95560e61b815290516000926001600160a01b031691633f2a5540916004808301926020929190829003018186803b15801561585c57600080fd5b505afa158015615870573d6000803e3d6000fd5b505050506040513d602081101561588657600080fd5b50516077546040805163df14e06f60e01b81523060048201526024810192909252519192506001600160a01b0383169163df14e06f9160448082019260009290919082900301818387803b1580156158dd57600080fd5b505af11580156158f1573d6000803e3d6000fd5b505060775460408051632db4b3a760e01b81523060048201526001600160a01b0389811660248301526044820189905260016064830152608482019390935290519185169350632db4b3a7925060a48082019260009290919082900301818387803b15801561595f57600080fd5b505af1158015615973573d6000803e3d6000fd5b5050607780546001019055505050505050565b3b151590565b600054610100900460ff16806159a557506159a5614d73565b806159b3575060005460ff16155b6159ee5760405162461bcd60e51b815260040180806020018281038252602e815260200180615e69602e913960400191505060405180910390fd5b600054610100900460ff16158015615a19576000805460ff1961ff0019909116610100171660011790555b8015615a2b576000805461ff00191690555b50565b600054610100900460ff1680615a475750615a47614d73565b80615a55575060005460ff16155b615a905760405162461bcd60e51b815260040180806020018281038252602e815260200180615e69602e913960400191505060405180910390fd5b600054610100900460ff16158015615abb576000805460ff1961ff0019909116610100171660011790555b8251615ace906036906020860190615cef565b508151615ae2906037906020850190615cef565b506038805460ff191660121790558015612423576000805461ff0019169055505050565b6060611a9f848460008585615b1a85615986565b615b6b576040805162461bcd60e51b815260206004820152601d60248201527f416464726573733a2063616c6c20746f206e6f6e2d636f6e7472616374000000604482015290519081900360640190fd5b600080866001600160a01b031685876040518082805190602001908083835b60208310615ba95780518252601f199092019160209182019101615b8a565b6001836020036101000a03801982511681845116808217855250505050505090500191505060006040518083038185875af1925050503d8060008114615c0b576040519150601f19603f3d011682016040523d82523d6000602084013e615c10565b606091505b509150915061347882828660608315615c2a575081611b28565b825115615c3a5782518084602001fd5b60405162461bcd60e51b815260206004820181815284516024840152845185939192839260440191908501908083836000831561433557818101518382015260200161431d565b828054828255906000526020600020908101928215615ce3579160200282015b82811115615ce3578251825473ffffffffffffffffffffffffffffffffffffffff19166001600160a01b03909116178255602090920191600190910190615ca1565b506143d8929150615d6b565b828054600181600116156101000203166002900490600052602060002090601f016020900481019282615d255760008555615ce3565b82601f10615d3e57805160ff1916838001178555615ce3565b82800160010185558215615ce3579182015b82811115615ce3578251825591602001919060010190615d50565b5b808211156143d85760008155600101615d6c56fe45524332303a207472616e7366657220746f20746865207a65726f206164647265737345524332303a206275726e20616d6f756e7420657863656564732062616c616e636545524332303a20617070726f766520746f20746865207a65726f206164647265737345524332303a207472616e7366657220616d6f756e7420657863656564732062616c616e63655369676e6564536166654d6174683a206164646974696f6e206f766572666c6f77416464726573733a20756e61626c6520746f2073656e642076616c75652c20726563697069656e74206d61792068617665207265766572746564496e697469616c697a61626c653a20636f6e747261637420697320616c726561647920696e697469616c697a6564536166654d6174683a206d756c7469706c69636174696f6e206f766572666c6f7745524332303a207472616e7366657220616d6f756e74206578636565647320616c6c6f77616e636545524332303a206275726e2066726f6d20746865207a65726f206164647265737345524332303a207472616e736665722066726f6d20746865207a65726f206164647265737345524332303a20617070726f76652066726f6d20746865207a65726f206164647265737353616665436173743a2076616c756520646f65736e27742066697420696e20616e20696e743235365361666545524332303a204552433230206f7065726174696f6e20646964206e6f74207375636365656445524332303a2064656372656173656420616c6c6f77616e63652062656c6f77207a65726fa26469706673582212203c680385640782628cc8e8cd0920d8d1a859093bc90b3a43c75f95a2aa89387464736f6c63430007060033608060405234801561001057600080fd5b50612b0e806100206000396000f3fe608060405234801561001057600080fd5b50600436106101985760003560e01c80636352211e116100e3578063b88d4fde1161008c578063ded96d4811610066578063ded96d48146105d3578063e985e9c5146107a2578063f77c4791146107d057610198565b8063b88d4fde1461044a578063c87b56dd14610510578063d83e2c971461052d57610198565b80637d94792a116100bd5780637d94792a1461040c57806395d89b4114610414578063a22cb4651461041c57610198565b80636352211e146103c15780636c0360eb146103de57806370a08231146103e657610198565b80632f745c591161014557806345b497471161011f57806345b49747146103765780634f6ccce71461039c57806356ba88b8146103b957610198565b80632f745c591461030c5780633c130d901461033857806342842e0e1461034057610198565b8063095ea7b311610176578063095ea7b31461028e57806318160ddd146102bc57806323b872dd146102d657610198565b806301ffc9a71461019d57806306fdde03146101d8578063081812fc14610255575b600080fd5b6101c4600480360360208110156101b357600080fd5b50356001600160e01b0319166107d8565b604080519115158252519081900360200190f35b6101e06107fb565b6040805160208082528351818301528351919283929083019185019080838360005b8381101561021a578181015183820152602001610202565b50505050905090810190601f1680156102475780820380516001836020036101000a031916815260200191505b509250505060405180910390f35b6102726004803603602081101561026b57600080fd5b5035610891565b604080516001600160a01b039092168252519081900360200190f35b6102ba600480360360408110156102a457600080fd5b506001600160a01b0381351690602001356108f3565b005b6102c46109ce565b60408051918252519081900360200190f35b6102ba600480360360608110156102ec57600080fd5b506001600160a01b038135811691602081013590911690604001356109df565b6102c46004803603604081101561032257600080fd5b506001600160a01b038135169060200135610a36565b6101e0610a61565b6102ba6004803603606081101561035657600080fd5b506001600160a01b03813581169160208101359091169060400135610aef565b6102c46004803603602081101561038c57600080fd5b50356001600160a01b0316610b0a565b6102c4600480360360208110156103b257600080fd5b5035610bd0565b610272610be6565b610272600480360360208110156103d757600080fd5b5035610bf5565b6101e0610c1d565b6102c4600480360360208110156103fc57600080fd5b50356001600160a01b0316610c7e565b6102c4610ce6565b6101e0610cec565b6102ba6004803603604081101561043257600080fd5b506001600160a01b0381351690602001351515610d4d565b6102ba6004803603608081101561046057600080fd5b6001600160a01b0382358116926020810135909116916040820135919081019060808101606082013564010000000081111561049b57600080fd5b8201836020820111156104ad57600080fd5b803590602001918460018302840111640100000000831117156104cf57600080fd5b91908080601f016020809104026020016040519081016040528093929190818152602001838380828437600092019190915250929550610e52945050505050565b6101e06004803603602081101561052657600080fd5b5035610eb0565b6102ba6004803603602081101561054357600080fd5b81019060208101813564010000000081111561055e57600080fd5b82018360208201111561057057600080fd5b8035906020019184600183028401116401000000008311171561059257600080fd5b91908080601f016020809104026020016040519081016040528093929190818152602001838380828437600092019190915250929550611131945050505050565b6102ba600480360360c08110156105e957600080fd5b6001600160a01b03823581169260208101359091169181019060608101604082013564010000000081111561061d57600080fd5b82018360208201111561062f57600080fd5b8035906020019184600183028401116401000000008311171561065157600080fd5b91908080601f01602080910402602001604051908101604052809392919081815260200183838082843760009201919091525092959493602081019350359150506401000000008111156106a457600080fd5b8201836020820111156106b657600080fd5b803590602001918460018302840111640100000000831117156106d857600080fd5b91908080601f016020809104026020016040519081016040528093929190818152602001838380828437600092019190915250929594936020810193503591505064010000000081111561072b57600080fd5b82018360208201111561073d57600080fd5b8035906020019184600183028401116401000000008311171561075f57600080fd5b91908080601f01602080910402602001604051908101604052809392919081815260200183838082843760009201919091525092955050913592506113c9915050565b6101c4600480360360408110156107b857600080fd5b506001600160a01b038135811691602001351661152c565b61027261155a565b6001600160e01b0319811660009081526033602052604090205460ff165b919050565b606a8054604080516020601f60026000196101006001881615020190951694909404938401819004810282018101909252828152606093909290918301828280156108875780601f1061085c57610100808354040283529160200191610887565b820191906000526020600020905b81548152906001019060200180831161086a57829003601f168201915b5050505050905090565b600061089c82611569565b6108d75760405162461bcd60e51b815260040180806020018281038252602c8152602001806129d7602c913960400191505060405180910390fd5b506000908152606860205260409020546001600160a01b031690565b60006108fe82610bf5565b9050806001600160a01b0316836001600160a01b031614156109515760405162461bcd60e51b8152600401808060200182810382526021815260200180612a876021913960400191505060405180910390fd5b806001600160a01b0316610963611576565b6001600160a01b0316148061098457506109848161097f611576565b61152c565b6109bf5760405162461bcd60e51b81526004018080602001828103825260388152602001806128fc6038913960400191505060405180910390fd5b6109c9838361157a565b505050565b60006109da60666115f5565b905090565b6109f06109ea611576565b82611600565b610a2b5760405162461bcd60e51b8152600401808060200182810382526031815260200180612aa86031913960400191505060405180910390fd5b6109c98383836116a4565b6001600160a01b0382166000908152606560205260408120610a5890836117f0565b90505b92915050565b6099805460408051602060026001851615610100026000190190941693909304601f81018490048402820184019092528181529291830182828015610ae75780601f10610abc57610100808354040283529160200191610ae7565b820191906000526020600020905b815481529060010190602001808311610aca57829003601f168201915b505050505081565b6109c983838360405180602001604052806000815250610e52565b6098546000906001600160a01b03163314610b6c576040805162461bcd60e51b815260206004820181905260248201527f4f6e6c79207468652067617264656e2063616e206d696e7420746865204e4654604482015290519081900360640190fd5b6001600160a01b038216610bc7576040805162461bcd60e51b815260206004820152600f60248201527f55736572206d7573742065786973740000000000000000000000000000000000604482015290519081900360640190fd5b610a5b826117fc565b600080610bde60668461190a565b509392505050565b6098546001600160a01b031681565b6000610a5b8260405180606001604052806029815260200161295e6029913960669190611926565b606d8054604080516020601f60026000196101006001881615020190951694909404938401819004810282018101909252828152606093909290918301828280156108875780601f1061085c57610100808354040283529160200191610887565b60006001600160a01b038216610cc55760405162461bcd60e51b815260040180806020018281038252602a815260200180612934602a913960400191505060405180910390fd5b6001600160a01b0382166000908152606560205260409020610a5b906115f5565b609a5481565b606b8054604080516020601f60026000196101006001881615020190951694909404938401819004810282018101909252828152606093909290918301828280156108875780601f1061085c57610100808354040283529160200191610887565b610d55611576565b6001600160a01b0316826001600160a01b03161415610dbb576040805162461bcd60e51b815260206004820152601960248201527f4552433732313a20617070726f766520746f2063616c6c657200000000000000604482015290519081900360640190fd5b8060696000610dc8611576565b6001600160a01b03908116825260208083019390935260409182016000908120918716808252919093529120805460ff191692151592909217909155610e0c611576565b6001600160a01b03167f17307eab39ab6107e8899845ad3d59bd9653f200f220920489ca2b5937696c318360405180821515815260200191505060405180910390a35050565b610e63610e5d611576565b83611600565b610e9e5760405162461bcd60e51b8152600401808060200182810382526031815260200180612aa86031913960400191505060405180910390fd5b610eaa8484848461193d565b50505050565b6060610ebb82611569565b610ef65760405162461bcd60e51b815260040180806020018281038252602f815260200180612a58602f913960400191505060405180910390fd5b6000828152606c602090815260408083208054825160026001831615610100026000190190921691909104601f810185900485028201850190935282815292909190830182828015610f895780601f10610f5e57610100808354040283529160200191610f89565b820191906000526020600020905b815481529060010190602001808311610f6c57829003601f168201915b505050505090506000610f9a610c1d565b9050805160001415610fae575090506107f6565b81511561106f5780826040516020018083805190602001908083835b60208310610fe95780518252601f199092019160209182019101610fca565b51815160209384036101000a600019018019909216911617905285519190930192850191508083835b602083106110315780518252601f199092019160209182019101611012565b6001836020036101000a03801982511681845116808217855250505050505090500192505050604051602081830303815290604052925050506107f6565b806110798561198f565b6040516020018083805190602001908083835b602083106110ab5780518252601f19909201916020918201910161108c565b51815160209384036101000a600019018019909216911617905285519190930192850191508083835b602083106110f35780518252601f1990920191602091820191016110d4565b6001836020036101000a0380198251168184511680821785525050505050509050019250505060405160208183030381529060405292505050919050565b609760009054906101000a90046001600160a01b03166001600160a01b0316638da5cb5b6040518163ffffffff1660e01b815260040160206040518083038186803b15801561117f57600080fd5b505afa158015611193573d6000803e3d6000fd5b505050506040513d60208110156111a957600080fd5b50516001600160a01b03163314611207576040805162461bcd60e51b815260206004820152601860248201527f4f6e6c79206f776e65722063616e2063616c6c20746869730000000000000000604482015290519081900360640190fd5b60998054604080516020601f60026000196101006001881615020190951694909404938401819004810282018101909252828152600093909290918301828280156112935780601f1061126857610100808354040283529160200191611293565b820191906000526020600020905b81548152906001019060200180831161127657829003601f168201915b505085519394506112af93609993506020870192509050612790565b506040805181815260998054600260001961010060018416150201909116049282018390527f9f69133a51dffac4755e07ebb33840d3f9fc8ed9053110df928ba94b831d3a649290918491819060208201906060830190869080156113555780601f1061132a57610100808354040283529160200191611355565b820191906000526020600020905b81548152906001019060200180831161133857829003601f168201915b5050838103825284518152845160209182019186019080838360005b83811015611389578181015183820152602001611371565b50505050905090810190601f1680156113b65780820380516001836020036101000a031916815260200191505b5094505050505060405180910390a15050565b600054610100900460ff16806113e257506113e2611a9e565b806113f0575060005460ff16155b61142b5760405162461bcd60e51b815260040180806020018281038252602e815260200180612987602e913960400191505060405180910390fd5b600054610100900460ff16158015611456576000805460ff1961ff0019909116610100171660011790555b6001600160a01b0387166114b1576040805162461bcd60e51b815260206004820152601560248201527f436f6e74726f6c6c6572206d7573742065786973740000000000000000000000604482015290519081900360640190fd5b6114bb8585611aaf565b609780546001600160a01b03808a1673ffffffffffffffffffffffffffffffffffffffff19928316179092556098805492891692909116919091179055609a8290558251611510906099906020860190612790565b508015611523576000805461ff00191690555b50505050505050565b6001600160a01b03918216600090815260696020908152604080832093909416825291909152205460ff1690565b6097546001600160a01b031681565b6000610a5b606683611b6c565b3390565b6000818152606860205260409020805473ffffffffffffffffffffffffffffffffffffffff19166001600160a01b03841690811790915581906115bc82610bf5565b6001600160a01b03167f8c5be1e5ebec7d5bd14f71427d1e84f3dd0314c0f7b2291e5b200ac8c7c3b92560405160405180910390a45050565b6000610a5b82611b78565b600061160b82611569565b6116465760405162461bcd60e51b815260040180806020018281038252602c8152602001806128d0602c913960400191505060405180910390fd5b600061165183610bf5565b9050806001600160a01b0316846001600160a01b0316148061168c5750836001600160a01b031661168184610891565b6001600160a01b0316145b8061169c575061169c818561152c565b949350505050565b826001600160a01b03166116b782610bf5565b6001600160a01b0316146116fc5760405162461bcd60e51b8152600401808060200182810382526029815260200180612a2f6029913960400191505060405180910390fd5b6001600160a01b0382166117415760405162461bcd60e51b81526004018080602001828103825260248152602001806128866024913960400191505060405180910390fd5b61174c8383836109c9565b61175760008261157a565b6001600160a01b03831660009081526065602052604090206117799082611b7c565b506001600160a01b038216600090815260656020526040902061179c9082611b88565b506117a960668284611b94565b5080826001600160a01b0316846001600160a01b03167fddf252ad1be2c89b69c2b068fc378daa952ba7f163c4a11628f55a4df523b3ef60405160405180910390a4505050565b6000610a588383611baa565b60008061180883610c7e565b6118ff57611816609b611c0e565b611820609b611b78565b905061182c8382611c17565b6099805460408051602060026001851615610100026000190190941693909304601f81018490048402820184019092528181526118c4938593919290918301828280156118ba5780601f1061188f576101008083540402835291602001916118ba565b820191906000526020600020905b81548152906001019060200180831161189d57829003601f168201915b5050505050611c35565b60405181906001600160a01b038516907f4d515e69e2844aba841b8ecc898590f7a7648dd9d9aa7eebea35e23c13568e0190600090a3610a5b565b610a58836000610a36565b60008080806119198686611c98565b9097909650945050505050565b6000611933848484611d13565b90505b9392505050565b6119488484846116a4565b61195484848484611ddd565b610eaa5760405162461bcd60e51b81526004018080602001828103825260328152602001806128546032913960400191505060405180910390fd5b6060816119d0575060408051808201909152600181527f300000000000000000000000000000000000000000000000000000000000000060208201526107f6565b8160005b81156119e857600101600a820491506119d4565b60008167ffffffffffffffff81118015611a0157600080fd5b506040519080825280601f01601f191660200182016040528015611a2c576020820181803683370190505b50859350905060001982015b8315611a9557600a840660300160f81b82828060019003935081518110611a5b57fe5b60200101907effffffffffffffffffffffffffffffffffffffffffffffffffffffffffffff1916908160001a905350600a84049350611a38565b50949350505050565b6000611aa930611f6f565b15905090565b600054610100900460ff1680611ac85750611ac8611a9e565b80611ad6575060005460ff16155b611b115760405162461bcd60e51b815260040180806020018281038252602e815260200180612987602e913960400191505060405180910390fd5b600054610100900460ff16158015611b3c576000805460ff1961ff0019909116610100171660011790555b611b44611f75565b611b4c612017565b611b5683836120cd565b80156109c9576000805461ff0019169055505050565b6000610a5883836121fd565b5490565b6000610a588383612215565b6000610a5883836122db565b600061193384846001600160a01b038516612325565b81546000908210611bec5760405162461bcd60e51b81526004018080602001828103825260228152602001806128326022913960400191505060405180910390fd5b826000018281548110611bfb57fe5b9060005260206000200154905092915050565b80546001019055565b611c318282604051806020016040528060008152506123bc565b5050565b611c3e82611569565b611c795760405162461bcd60e51b815260040180806020018281038252602c815260200180612a03602c913960400191505060405180910390fd5b6000828152606c6020908152604090912082516109c992840190612790565b815460009081908310611cdc5760405162461bcd60e51b81526004018080602001828103825260228152602001806129b56022913960400191505060405180910390fd5b6000846000018481548110611ced57fe5b906000526020600020906002020190508060000154816001015492509250509250929050565b60008281526001840160205260408120548281611dae5760405162461bcd60e51b81526004018080602001828103825283818151815260200191508051906020019080838360005b83811015611d73578181015183820152602001611d5b565b50505050905090810190601f168015611da05780820380516001836020036101000a031916815260200191505b509250505060405180910390fd5b50846000016001820381548110611dc157fe5b9060005260206000209060020201600101549150509392505050565b6000611df1846001600160a01b0316611f6f565b611dfd5750600161169c565b6000611f35630a85bd0160e11b611e12611576565b88878760405160240180856001600160a01b03168152602001846001600160a01b0316815260200183815260200180602001828103825283818151815260200191508051906020019080838360005b83811015611e79578181015183820152602001611e61565b50505050905090810190601f168015611ea65780820380516001836020036101000a031916815260200191505b5095505050505050604051602081830303815290604052907bffffffffffffffffffffffffffffffffffffffffffffffffffffffff19166020820180517bffffffffffffffffffffffffffffffffffffffffffffffffffffffff8381831617835250505050604051806060016040528060328152602001612854603291396001600160a01b038816919061240e565b90506000818060200190516020811015611f4e57600080fd5b50516001600160e01b031916630a85bd0160e11b1492505050949350505050565b3b151590565b600054610100900460ff1680611f8e5750611f8e611a9e565b80611f9c575060005460ff16155b611fd75760405162461bcd60e51b815260040180806020018281038252602e815260200180612987602e913960400191505060405180910390fd5b600054610100900460ff16158015612002576000805460ff1961ff0019909116610100171660011790555b8015612014576000805461ff00191690555b50565b600054610100900460ff16806120305750612030611a9e565b8061203e575060005460ff16155b6120795760405162461bcd60e51b815260040180806020018281038252602e815260200180612987602e913960400191505060405180910390fd5b600054610100900460ff161580156120a4576000805460ff1961ff0019909116610100171660011790555b6120027f01ffc9a70000000000000000000000000000000000000000000000000000000061241d565b600054610100900460ff16806120e657506120e6611a9e565b806120f4575060005460ff16155b61212f5760405162461bcd60e51b815260040180806020018281038252602e815260200180612987602e913960400191505060405180910390fd5b600054610100900460ff1615801561215a576000805460ff1961ff0019909116610100171660011790555b825161216d90606a906020860190612790565b50815161218190606b906020850190612790565b506121ab7f80ac58cd0000000000000000000000000000000000000000000000000000000061241d565b6121d47f5b5e139f0000000000000000000000000000000000000000000000000000000061241d565b611b567f780e9d630000000000000000000000000000000000000000000000000000000061241d565b60009081526001919091016020526040902054151590565b600081815260018301602052604081205480156122d1578354600019808301919081019060009087908390811061224857fe5b906000526020600020015490508087600001848154811061226557fe5b60009182526020808320909101929092558281526001898101909252604090209084019055865487908061229557fe5b60019003818190600052602060002001600090559055866001016000878152602001908152602001600020600090556001945050505050610a5b565b6000915050610a5b565b60006122e783836121fd565b61231d57508154600181810184556000848152602080822090930184905584548482528286019093526040902091909155610a5b565b506000610a5b565b60008281526001840160205260408120548061238a575050604080518082018252838152602080820184815286546001818101895560008981528481209551600290930290950191825591519082015586548684528188019092529290912055611936565b8285600001600183038154811061239d57fe5b9060005260206000209060020201600101819055506000915050611936565b6123c683836124a1565b6123d36000848484611ddd565b6109c95760405162461bcd60e51b81526004018080602001828103825260328152602001806128546032913960400191505060405180910390fd5b606061193384846000856125cf565b6001600160e01b0319808216141561247c576040805162461bcd60e51b815260206004820152601c60248201527f4552433136353a20696e76616c696420696e7465726661636520696400000000604482015290519081900360640190fd5b6001600160e01b0319166000908152603360205260409020805460ff19166001179055565b6001600160a01b0382166124fc576040805162461bcd60e51b815260206004820181905260248201527f4552433732313a206d696e7420746f20746865207a65726f2061646472657373604482015290519081900360640190fd5b61250581611569565b15612557576040805162461bcd60e51b815260206004820152601c60248201527f4552433732313a20746f6b656e20616c7265616479206d696e74656400000000604482015290519081900360640190fd5b612563600083836109c9565b6001600160a01b03821660009081526065602052604090206125859082611b88565b5061259260668284611b94565b5060405181906001600160a01b038416906000907fddf252ad1be2c89b69c2b068fc378daa952ba7f163c4a11628f55a4df523b3ef908290a45050565b6060824710156126105760405162461bcd60e51b81526004018080602001828103825260268152602001806128aa6026913960400191505060405180910390fd5b61261985611f6f565b61266a576040805162461bcd60e51b815260206004820152601d60248201527f416464726573733a2063616c6c20746f206e6f6e2d636f6e7472616374000000604482015290519081900360640190fd5b600080866001600160a01b031685876040518082805190602001908083835b602083106126a85780518252601f199092019160209182019101612689565b6001836020036101000a03801982511681845116808217855250505050505090500191505060006040518083038185875af1925050503d806000811461270a576040519150601f19603f3d011682016040523d82523d6000602084013e61270f565b606091505b509150915061271f82828661272a565b979650505050505050565b60608315612739575081611936565b8251156127495782518084602001fd5b60405162461bcd60e51b8152602060048201818152845160248401528451859391928392604401919085019080838360008315611d73578181015183820152602001611d5b565b828054600181600116156101000203166002900490600052602060002090601f0160209004810192826127c6576000855561280c565b82601f106127df57805160ff191683800117855561280c565b8280016001018555821561280c579182015b8281111561280c5782518255916020019190600101906127f1565b5061281892915061281c565b5090565b5b80821115612818576000815560010161281d56fe456e756d657261626c655365743a20696e646578206f7574206f6620626f756e64734552433732313a207472616e7366657220746f206e6f6e20455243373231526563656976657220696d706c656d656e7465724552433732313a207472616e7366657220746f20746865207a65726f2061646472657373416464726573733a20696e73756666696369656e742062616c616e636520666f722063616c6c4552433732313a206f70657261746f7220717565727920666f72206e6f6e6578697374656e7420746f6b656e4552433732313a20617070726f76652063616c6c6572206973206e6f74206f776e6572206e6f7220617070726f76656420666f7220616c6c4552433732313a2062616c616e636520717565727920666f7220746865207a65726f20616464726573734552433732313a206f776e657220717565727920666f72206e6f6e6578697374656e7420746f6b656e496e697469616c697a61626c653a20636f6e747261637420697320616c726561647920696e697469616c697a6564456e756d657261626c654d61703a20696e646578206f7574206f6620626f756e64734552433732313a20617070726f76656420717565727920666f72206e6f6e6578697374656e7420746f6b656e4552433732314d657461646174613a2055524920736574206f66206e6f6e6578697374656e7420746f6b656e4552433732313a207472616e73666572206f6620746f6b656e2074686174206973206e6f74206f776e4552433732314d657461646174613a2055524920717565727920666f72206e6f6e6578697374656e7420746f6b656e4552433732313a20617070726f76616c20746f2063757272656e74206f776e65724552433732313a207472616e736665722063616c6c6572206973206e6f74206f776e6572206e6f7220617070726f766564a2646970667358221220f39cec1b28f4b791f530432fbcd26f305534c37bbf07db82f42edc625c32f06764736f6c63430007060033",
  "devdoc": {
    "author": "Babylon Finance Factory to create garden contracts",
    "kind": "dev",
    "methods": {
      "createGarden(address,address,address,string,string,string,uint256,uint256[])": {
        "params": {
          "_controller": "Address of the controller",
          "_creator": "Address of the creator",
          "_gardenParams": "Array of numeric params in the garden",
          "_name": "Name of the Garden",
          "_reserveAsset": "Address of the reserve asset ERC20",
          "_seed": "Seed to regenerate the garden NFT",
          "_symbol": "Symbol of the Garden",
          "_tokenURI": "URL of the garden NFT JSON"
        }
      }
    },
    "title": "GardenFactory",
    "version": 1
  },
  "userdoc": {
    "kind": "user",
    "methods": {
      "createGarden(address,address,address,string,string,string,uint256,uint256[])": {
        "notice": "Creates a garden using minimal proxies"
      }
    },
    "version": 1
  },
  "storageLayout": {
    "storage": [],
    "types": null
  }
}