{
  "address": "0xEea12B571B0a5797f788C69C3f42629b8af2B754",
  "abi": [
    {
      "inputs": [
        {
          "internalType": "contract IBabController",
          "name": "_controller",
          "type": "address"
        }
      ],
      "stateMutability": "nonpayable",
      "type": "constructor"
    },
    {
      "anonymous": false,
      "inputs": [
        {
          "indexed": true,
          "internalType": "address",
          "name": "garden",
          "type": "address"
        },
        {
          "indexed": true,
          "internalType": "address",
          "name": "strategy",
          "type": "address"
        },
        {
          "indexed": true,
          "internalType": "address",
          "name": "investment",
          "type": "address"
        },
        {
          "indexed": false,
          "internalType": "address",
          "name": "tokenIn",
          "type": "address"
        },
        {
          "indexed": false,
          "internalType": "uint256",
          "name": "investmentTokensOut",
          "type": "uint256"
        }
      ],
      "name": "InvestmentEntered",
      "type": "event"
    },
    {
      "anonymous": false,
      "inputs": [
        {
          "indexed": true,
          "internalType": "address",
          "name": "garden",
          "type": "address"
        },
        {
          "indexed": true,
          "internalType": "address",
          "name": "strategy",
          "type": "address"
        },
        {
          "indexed": true,
          "internalType": "address",
          "name": "investment",
          "type": "address"
        },
        {
          "indexed": false,
          "internalType": "uint256",
          "name": "investmentTokensOut",
          "type": "uint256"
        }
      ],
      "name": "InvestmentExited",
      "type": "event"
    },
    {
      "inputs": [],
      "name": "controller",
      "outputs": [
        {
          "internalType": "contract IBabController",
          "name": "",
          "type": "address"
        }
      ],
      "stateMutability": "view",
      "type": "function"
    },
    {
      "inputs": [
        {
          "internalType": "address",
          "name": "_strategy",
          "type": "address"
        },
        {
          "internalType": "address",
          "name": "_investmentAddress",
          "type": "address"
        },
        {
          "internalType": "uint256",
          "name": "_investmentTokensOut",
          "type": "uint256"
        },
        {
          "internalType": "address",
          "name": "_tokenIn",
          "type": "address"
        },
        {
          "internalType": "uint256",
          "name": "_maxAmountIn",
          "type": "uint256"
        }
      ],
      "name": "enterInvestment",
      "outputs": [],
      "stateMutability": "nonpayable",
      "type": "function"
    },
    {
      "inputs": [
        {
          "internalType": "address",
          "name": "_strategy",
          "type": "address"
        },
        {
          "internalType": "address",
          "name": "_investmentAddress",
          "type": "address"
        },
        {
          "internalType": "uint256",
          "name": "_investmentTokenIn",
          "type": "uint256"
        },
        {
          "internalType": "address",
          "name": "_tokenOut",
          "type": "address"
        },
        {
          "internalType": "uint256",
          "name": "_minAmountOut",
          "type": "uint256"
        }
      ],
      "name": "exitInvestment",
      "outputs": [],
      "stateMutability": "nonpayable",
      "type": "function"
    },
    {
      "inputs": [
        {
          "internalType": "address",
          "name": "_investmentAddress",
          "type": "address"
        },
        {
          "internalType": "uint256",
          "name": "_ethAmount",
          "type": "uint256"
        }
      ],
      "name": "getExpectedShares",
      "outputs": [
        {
          "internalType": "uint256",
          "name": "",
          "type": "uint256"
        }
      ],
      "stateMutability": "view",
      "type": "function"
    },
    {
      "inputs": [
        {
          "internalType": "address",
          "name": "_investmentAddress",
          "type": "address"
        }
      ],
      "name": "getInvestmentAsset",
      "outputs": [
        {
          "internalType": "address",
          "name": "",
          "type": "address"
        }
      ],
      "stateMutability": "view",
      "type": "function"
    },
    {
      "inputs": [
        {
          "internalType": "address",
          "name": "_investmentAddress",
          "type": "address"
        }
      ],
      "name": "getPricePerShare",
      "outputs": [
        {
          "internalType": "uint256",
          "name": "",
          "type": "uint256"
        }
      ],
      "stateMutability": "view",
      "type": "function"
    },
    {
      "inputs": [
        {
          "internalType": "address",
          "name": "_investmentAddress",
          "type": "address"
        }
      ],
      "name": "getResultAsset",
      "outputs": [
        {
          "internalType": "address",
          "name": "",
          "type": "address"
        }
      ],
      "stateMutability": "view",
      "type": "function"
    },
    {
      "inputs": [
        {
          "internalType": "address",
          "name": "_strategy",
          "type": "address"
        },
        {
          "internalType": "address",
          "name": "_investmentAddress",
          "type": "address"
        }
      ],
      "name": "getRewards",
      "outputs": [
        {
          "internalType": "address",
          "name": "",
          "type": "address"
        },
        {
          "internalType": "uint256",
          "name": "",
          "type": "uint256"
        }
      ],
      "stateMutability": "view",
      "type": "function"
    },
    {
      "inputs": [],
      "name": "name",
      "outputs": [
        {
          "internalType": "string",
          "name": "",
          "type": "string"
        }
      ],
      "stateMutability": "view",
      "type": "function"
    }
  ],
  "transactionHash": "0x5a2036a93a03e35de77c87cfd54bf74b50b85724ac00ad952637fc17aa58b598",
  "args": [
    "0xD4a5b5fcB561dAF3aDF86F8477555B92FBa43b5F"
  ],
  "solcInputHash": "50b945141257c00eb82cb232b29513d1",
  "bytecode": "0x60806040523480156200001157600080fd5b50604051620021b4380380620021b4833981810160405260208110156200003757600080fd5b505160408051808201909152601081526f686172766573745f7374616b655f763360801b60208201528181816001600160a01b038116620000bf576040805162461bcd60e51b815260206004820152601a60248201527f436f6e74726f6c6c6572206d75737420626520646566696e6564000000000000604482015290519081900360640190fd5b8151620000d490600190602085019062000105565b50600080546001600160a01b0319166001600160a01b03929092169190911790555050600160025550620001b19050565b828054600181600116156101000203166002900490600052602060002090601f0160209004810192826200013d576000855562000188565b82601f106200015857805160ff191683800117855562000188565b8280016001018555821562000188579182015b82811115620001885782518255916020019190600101906200016b565b50620001969291506200019a565b5090565b5b808211156200019657600081556001016200019b565b611ff380620001c16000396000f3fe608060405234801561001057600080fd5b50600436106100a35760003560e01c8063871be91111610076578063ec422afd1161005b578063ec422afd14610280578063f337f630146102a6578063f77c4791146102cc576100a3565b8063871be911146101f6578063976a99be1461023c576100a3565b806306fdde03146100a85780634deef64914610125578063779bcb9b146101635780637b082a74146101b4575b600080fd5b6100b06102d4565b6040805160208082528351818301528351919283929083019185019080838360005b838110156100ea5781810151838201526020016100d2565b50505050905090810190601f1680156101175780820380516001836020036101000a031916815260200191505b509250505060405180910390f35b6101516004803603604081101561013b57600080fd5b506001600160a01b038135169060200135610361565b60408051918252519081900360200190f35b6101916004803603604081101561017957600080fd5b506001600160a01b0381358116916020013516610376565b604080516001600160a01b03909316835260208301919091528051918290030190f35b6101da600480360360208110156101ca57600080fd5b50356001600160a01b031661038e565b604080516001600160a01b039092168252519081900360200190f35b61023a600480360360a081101561020c57600080fd5b506001600160a01b038135811691602081013582169160408201359160608101359091169060800135610399565b005b61023a600480360360a081101561025257600080fd5b506001600160a01b038135811691602081013582169160408201359160608101359091169060800135610d08565b6101516004803603602081101561029657600080fd5b50356001600160a01b0316611310565b6101da600480360360208110156102bc57600080fd5b50356001600160a01b031661131b565b6101da611326565b60018054604080516020600284861615610100026000190190941693909304601f810184900484028201840190925281815292918301828280156103595780601f1061032e57610100808354040283529160200191610359565b820191906000526020600020905b81548152906001019060200180831161033c57829003601f168201915b505050505081565b600061036d8383611335565b90505b92915050565b600080610383848461133a565b915091509250929050565b600061037082611738565b6002805414156103f0576040805162461bcd60e51b815260206004820152601f60248201527f5265656e7472616e637947756172643a207265656e7472616e742063616c6c00604482015290519081900360640190fd5b60028055600054604080516313bc6d4b60e01b815233600482015290516001600160a01b03909216916313bc6d4b91602480820192602092909190829003018186803b15801561043f57600080fd5b505afa158015610453573d6000803e3d6000fd5b505050506040513d602081101561046957600080fd5b50516104bc576040805162461bcd60e51b815260206004820152601960248201527f4f6e6c792073797374656d2063616e2063616c6c207468697300000000000000604482015290519081900360640190fd5b60006104cb868686868661173b565b90506104d681611906565b60008060006104e788886001611993565b919450925090506001600160a01b0383161561085f576105056119b0565b156106255783516001600160a01b03166397ccdc606105258a60016119b5565b85866001600160a01b03166370a082318e6040518263ffffffff1660e01b815260040180826001600160a01b0316815260200191505060206040518083038186803b15801561057357600080fd5b505afa158015610587573d6000803e3d6000fd5b505050506040513d602081101561059d57600080fd5b5051604080517fffffffff0000000000000000000000000000000000000000000000000000000060e087901b1681526001600160a01b03948516600482015292909316602483015260448201529051606480830192600092919082900301818387803b15801561060c57600080fd5b505af1158015610620573d6000803e3d6000fd5b505050505b83600001516001600160a01b0316636bc195dd8484846040518463ffffffff1660e01b815260040180846001600160a01b0316815260200183815260200180602001828103825283818151815260200191508051906020019080838360005b8381101561069c578181015183820152602001610684565b50505050905090810190601f1680156106c95780820380516001836020036101000a031916815260200191505b50945050505050600060405180830381600087803b1580156106ea57600080fd5b505af11580156106fe573d6000803e3d6000fd5b505050506040513d6000823e601f3d908101601f19168201604052602081101561072757600080fd5b810190808051604051939291908464010000000082111561074757600080fd5b90830190602082018581111561075c57600080fd5b825164010000000081118282018810171561077657600080fd5b82525081516020918201929091019080838360005b838110156107a357818101518382015260200161078b565b50505050905090810190601f1680156107d05780820380516001836020036101000a031916815260200191505b50604052505050506107e188611738565b9750876001600160a01b03166370a082318a6040518263ffffffff1660e01b815260040180826001600160a01b0316815260200191505060206040518083038186803b15801561083057600080fd5b505afa158015610844573d6000803e3d6000fd5b505050506040513d602081101561085a57600080fd5b505196505b83516001600160a01b03166397ccdc6061087a8a60016119b5565b8a8a6040518463ffffffff1660e01b815260040180846001600160a01b03168152602001836001600160a01b031681526020018281526020019350505050600060405180830381600087803b1580156108d257600080fd5b505af11580156108e6573d6000803e3d6000fd5b5050505060008060006108fc8c8c8c8c8c6119b9565b92509250925086600001516001600160a01b0316636bc195dd8484846040518463ffffffff1660e01b815260040180846001600160a01b0316815260200183815260200180602001828103825283818151815260200191508051906020019080838360005b83811015610979578181015183820152602001610961565b50505050905090810190601f1680156109a65780820380516001836020036101000a031916815260200191505b50945050505050600060405180830381600087803b1580156109c757600080fd5b505af11580156109db573d6000803e3d6000fd5b505050506040513d6000823e601f3d908101601f191682016040526020811015610a0457600080fd5b8101908080516040519392919084640100000000821115610a2457600080fd5b908301906020820185811115610a3957600080fd5b8251640100000000811182820188101715610a5357600080fd5b82525081516020918201929091019080838360005b83811015610a80578181015183820152602001610a68565b50505050905090810190601f168015610aad5780820380516001836020036101000a031916815260200191505b5060405250505050610ac18b8b6001611a12565b919750955093506001600160a01b03861615610c8b5786600001516001600160a01b0316636bc195dd8787876040518463ffffffff1660e01b815260040180846001600160a01b0316815260200183815260200180602001828103825283818151815260200191508051906020019080838360005b83811015610b4e578181015183820152602001610b36565b50505050905090810190601f168015610b7b5780820380516001836020036101000a031916815260200191505b50945050505050600060405180830381600087803b158015610b9c57600080fd5b505af1158015610bb0573d6000803e3d6000fd5b505050506040513d6000823e601f3d908101601f191682016040526020811015610bd957600080fd5b8101908080516040519392919084640100000000821115610bf957600080fd5b908301906020820185811115610c0e57600080fd5b8251640100000000811182820188101715610c2857600080fd5b82525081516020918201929091019080838360005b83811015610c55578181015183820152602001610c3d565b50505050905090810190601f168015610c825780820380516001836020036101000a031916815260200191505b50604052505050505b610c9487611a87565b86604001516001600160a01b031687600001516001600160a01b031688602001516001600160a01b03167f99d773709d80de3e15433c22c381fd8e3b82a68b56322240ff4a304956ef0e528d6040518082815260200191505060405180910390a45050600160025550505050505050505050565b600280541415610d5f576040805162461bcd60e51b815260206004820152601f60248201527f5265656e7472616e637947756172643a207265656e7472616e742063616c6c00604482015290519081900360640190fd5b60028055600054604080516313bc6d4b60e01b815233600482015290516001600160a01b03909216916313bc6d4b91602480820192602092909190829003018186803b158015610dae57600080fd5b505afa158015610dc2573d6000803e3d6000fd5b505050506040513d6020811015610dd857600080fd5b5051610e2b576040805162461bcd60e51b815260206004820152601960248201527f4f6e6c792073797374656d2063616e2063616c6c207468697300000000000000604482015290519081900360640190fd5b6000610e3a868686868661173b565b9050610e4581611b53565b6000806000610e5688866000611993565b919450925090506001600160a01b038316156110205783600001516001600160a01b0316636bc195dd8484846040518463ffffffff1660e01b815260040180846001600160a01b0316815260200183815260200180602001828103825283818151815260200191508051906020019080838360005b83811015610ee3578181015183820152602001610ecb565b50505050905090810190601f168015610f105780820380516001836020036101000a031916815260200191505b50945050505050600060405180830381600087803b158015610f3157600080fd5b505af1158015610f45573d6000803e3d6000fd5b505050506040513d6000823e601f3d908101601f191682016040526020811015610f6e57600080fd5b8101908080516040519392919084640100000000821115610f8e57600080fd5b908301906020820185811115610fa357600080fd5b8251640100000000811182820188101715610fbd57600080fd5b82525081516020918201929091019080838360005b83811015610fea578181015183820152602001610fd2565b50505050905090810190601f1680156110175780820380516001836020036101000a031916815260200191505b50604052505050505b6001600160a01b038616156110bb5783516001600160a01b03166397ccdc6061104a8a60006119b5565b88886040518463ffffffff1660e01b815260040180846001600160a01b03168152602001836001600160a01b031681526020018281526020019350505050600060405180830381600087803b1580156110a257600080fd5b505af11580156110b6573d6000803e3d6000fd5b505050505b60008060006110cd8c8c8c8c8c611b96565b92509250925086600001516001600160a01b0316636bc195dd8484846040518463ffffffff1660e01b815260040180846001600160a01b0316815260200183815260200180602001828103825283818151815260200191508051906020019080838360005b8381101561114a578181015183820152602001611132565b50505050905090810190601f1680156111775780820380516001836020036101000a031916815260200191505b50945050505050600060405180830381600087803b15801561119857600080fd5b505af11580156111ac573d6000803e3d6000fd5b505050506040513d6000823e601f3d908101601f1916820160405260208110156111d557600080fd5b81019080805160405193929190846401000000008211156111f557600080fd5b90830190602082018581111561120a57600080fd5b825164010000000081118282018810171561122457600080fd5b82525081516020918201929091019080838360005b83811015611251578181015183820152602001611239565b50505050905090810190601f16801561127e5780820380516001836020036101000a031916815260200191505b506040525050505061128f87611c4b565b8a6001600160a01b031687600001516001600160a01b031688602001516001600160a01b03167fdc0718d28ea0f80518c2c454af93bc46bf51dd4a1b25a048ca4ca75a7ac359c48c8e60405180836001600160a01b031681526020018281526020019250505060405180910390a45050600160025550505050505050505050565b600061037082611d0d565b600061037082611d1a565b6000546001600160a01b031681565b919050565b600080600083905060008060009054906101000a90046001600160a01b03166001600160a01b0316632630c12f6040518163ffffffff1660e01b815260040160206040518083038186803b15801561139157600080fd5b505afa1580156113a5573d6000803e3d6000fd5b505050506040513d60208110156113bb57600080fd5b505160408051630ad7511760e31b815290519192506000916001600160a01b038916916356ba88b8916004808301926020929190829003018186803b15801561140357600080fd5b505afa158015611417573d6000803e3d6000fd5b505050506040513d602081101561142d57600080fd5b5051604080517ff85cb5c800000000000000000000000000000000000000000000000000000000815290516001600160a01b039092169163f85cb5c891600480820192602092909190829003018186803b15801561148a57600080fd5b505afa15801561149e573d6000803e3d6000fd5b505050506040513d60208110156114b457600080fd5b5051604080517fbf199e6200000000000000000000000000000000000000000000000000000000815290519192506000916001600160a01b0386169163bf199e62916004808301926020929190829003018186803b15801561151557600080fd5b505afa158015611529573d6000803e3d6000fd5b505050506040513d602081101561153f57600080fd5b50519050600081156117295760005b82811015611727576000866001600160a01b031663e39c08fc838d6040518363ffffffff1660e01b815260040180838152602001826001600160a01b031681526020019250505060206040518083038186803b1580156115ad57600080fd5b505afa1580156115c1573d6000803e3d6000fd5b505050506040513d60208110156115d757600080fd5b5051604080517f7bb7bed100000000000000000000000000000000000000000000000000000000815260048101859052905191925061171c916117159184916001600160a01b03808c169263ac41865a92918e1691637bb7bed191602480820192602092909190829003018186803b15801561165257600080fd5b505afa158015611666573d6000803e3d6000fd5b505050506040513d602081101561167c57600080fd5b5051604080517fffffffff0000000000000000000000000000000000000000000000000000000060e085901b1681526001600160a01b039283166004820152918c166024830152516044808301926020929190829003018186803b1580156116e357600080fd5b505afa1580156116f7573d6000803e3d6000fd5b505050506040513d602081101561170d57600080fd5b505190611d87565b8490611da5565b92505060010161154e565b505b91989197509095505050505050565b90565b611743611e40565b61174b611e40565b6001600160a01b03871680825260408051630ad7511760e31b815290516356ba88b891600480820192602092909190829003018186803b15801561178e57600080fd5b505afa1580156117a2573d6000803e3d6000fd5b505050506040513d60208110156117b857600080fd5b50516001600160a01b031660208201526117d186611738565b81604001906001600160a01b031690816001600160a01b031681525050856001600160a01b03166318160ddd6040518163ffffffff1660e01b815260040160206040518083038186803b15801561182757600080fd5b505afa15801561183b573d6000803e3d6000fd5b505050506040513d602081101561185157600080fd5b5051606082015260408082015181517f70a082310000000000000000000000000000000000000000000000000000000081526001600160a01b038a81166004830152925192909116916370a0823191602480820192602092909190829003018186803b1580156118c057600080fd5b505afa1580156118d4573d6000803e3d6000fd5b505050506040513d60208110156118ea57600080fd5b505160a082015260808101949094525060c08301525092915050565b60008160800151116119495760405162461bcd60e51b8152600401808060200182810382526034815260200180611f8a6034913960400191505060405180910390fd5b80608001518160a0015110156119905760405162461bcd60e51b8152600401808060200182810382526033815260200180611e996033913960400191505060405180910390fd5b50565b604080516020810190915260008082529081905b93509350939050565b600090565b5090565b5050604080516024808201939093528151808203909301835260440190526020810180516001600160e01b03167f2e1a7d4d00000000000000000000000000000000000000000000000000000000179052909260009250565b600080606083611a3757505060408051602081019091526000808252915081906119a7565b50506040805160048152602481019091526020810180516001600160e01b03167f45b35f560000000000000000000000000000000000000000000000000000000017905293946000949350915050565b80608001518160a001510360640181604001516001600160a01b03166370a0823183600001516040518263ffffffff1660e01b815260040180826001600160a01b0316815260200191505060206040518083038186803b158015611aea57600080fd5b505afa158015611afe573d6000803e3d6000fd5b505050506040513d6020811015611b1457600080fd5b505111156119905760405162461bcd60e51b8152600401808060200182810382526031815260200180611f226031913960400191505060405180910390fd5b60008160800151116119905760405162461bcd60e51b8152600401808060200182810382526037815260200180611f536037913960400191505060405180910390fd5b60008060606000611ba688611d1a565b90506001600160a01b038116611bed5760405162461bcd60e51b8152600401808060200182810382526024815260200180611ecc6024913960400191505060405180910390fd5b50506040805160248082019590955281518082039095018552604401905250506020810180516001600160e01b03167fa694fc3a00000000000000000000000000000000000000000000000000000000179052929460009450915050565b8060a0015181604001516001600160a01b03166370a0823183600001516040518263ffffffff1660e01b815260040180826001600160a01b0316815260200191505060206040518083038186803b158015611ca557600080fd5b505afa158015611cb9573d6000803e3d6000fd5b505050506040513d6020811015611ccf57600080fd5b5051116119905760405162461bcd60e51b8152600401808060200182810382526032815260200180611ef06032913960400191505060405180910390fd5b50670de0b6b3a764000090565b6000816001600160a01b0316635fcbd2856040518163ffffffff1660e01b815260040160206040518083038186803b158015611d5557600080fd5b505afa158015611d69573d6000803e3d6000fd5b505050506040513d6020811015611d7f57600080fd5b505192915050565b600061036d670de0b6b3a7640000611d9f8585611db5565b90611dd9565b8082018281101561037057600080fd5b6000821580611dd057505081810281838281611dcd57fe5b04145b61037057600080fd5b6000808211611e2f576040805162461bcd60e51b815260206004820152601a60248201527f536166654d6174683a206469766973696f6e206279207a65726f000000000000604482015290519081900360640190fd5b818381611e3857fe5b049392505050565b6040518060e0016040528060006001600160a01b0316815260200160006001600160a01b0316815260200160006001600160a01b0316815260200160008152602001600081526020016000815260200160008152509056fe54686520737472617465677920646f6573206e6f74206861766520656e6f75676820696e766573746d656e7420746f6b656e7348617276657374205633205374616b6520706f6f6c20646f6573206e6f7420657869737454686520737472617465677920646964206e6f7420726563656976652074686520696e766573746d656e7420746f6b656e7354686520737472617465677920646964206e6f742072657475726e2074686520696e766573746d656e7420746f6b656e734d696e20696e766573746d656e7420746f6b656e7320746f2072656365697665206d7573742062652067726561746572207468616e2030496e766573746d656e7420746f6b656e7320746f2065786368616e6765206d7573742062652067726561746572207468616e2030a26469706673582212208a56daa47d7b5c29e377ab202929b290e592f1b3cf7f6f801916666ce09b0d2d64736f6c63430007060033",
  "devdoc": {
    "author": "Babylon Finance Protocol Harvest V3 Stake Integration",
    "kind": "dev",
    "methods": {
      "constructor": {
        "params": {
          "_controller": "Address of the controller"
        }
      },
      "enterInvestment(address,address,uint256,address,uint256)": {
        "params": {
          "_investmentAddress": "Address of the investment token to join",
          "_investmentTokensOut": "Min amount of investment tokens to receive",
          "_maxAmountIn": "Max amount of the token to deposit",
          "_strategy": "Address of the strategy",
          "_tokenIn": "Token address to deposit"
        }
      },
      "exitInvestment(address,address,uint256,address,uint256)": {
        "params": {
          "_investmentAddress": "Address of the investment token to exit",
          "_investmentTokenIn": "Quantity of investment tokens to return",
          "_minAmountOut": "Min token quantities to receive from the investment",
          "_strategy": "Address of the strategy",
          "_tokenOut": "Token address to withdraw"
        }
      },
      "getExpectedShares(address,uint256)": {
        "params": {
          "_ethAmount": "Amount of eth to invest",
          "_investmentAddress": "Investment address to check"
        },
        "returns": {
          "_0": "uint256                           Amount of investment shares to receive"
        }
      },
      "getInvestmentAsset(address)": {
        "returns": {
          "_0": "address                           Returns the asset that this investment needs"
        }
      },
      "getPricePerShare(address)": {
        "params": {
          "_investmentAddress": "Investment address to check"
        },
        "returns": {
          "_0": "uint256                           Returns the price in ETH of an investment share"
        }
      },
      "getResultAsset(address)": {
        "returns": {
          "_0": "address                            Returns the asset that this investment obtains"
        }
      },
      "getRewards(address,address)": {
        "params": {
          "_investmentAddress": "Address of the investment",
          "_strategy": "Address of the strategy"
        },
        "returns": {
          "_0": "address                            Returns the address with the token of extra rewards",
          "_1": "uint256                            Extra rewards received so far"
        }
      }
    },
    "title": "HarvestV3StakeIntegration",
    "version": 1
  },
  "userdoc": {
    "kind": "user",
    "methods": {
      "constructor": {
        "notice": "Creates the integration"
      },
      "enterInvestment(address,address,uint256,address,uint256)": {
        "notice": "Deposits tokens into an investment"
      },
      "exitInvestment(address,address,uint256,address,uint256)": {
        "notice": "Exits an outside passive investment"
      },
      "getExpectedShares(address,uint256)": {
        "notice": "Gets the amount of shares expected to get after depositing _ethAmount"
      },
      "getInvestmentAsset(address)": {
        "notice": "Gets the asset needed to enter the investment"
      },
      "getPricePerShare(address)": {
        "notice": "Gets how much eth one unit of the investment is worth"
      },
      "getResultAsset(address)": {
        "notice": "Gets the asset you obtained after entering the investment"
      },
      "getRewards(address,address)": {
        "notice": "Gets the rewards and the token that they are denominated in"
      }
    },
    "version": 1
  },
  "storageLayout": {
    "storage": [
      {
        "astId": 21838,
        "contract": "contracts/integrations/passive/HarvestV3StakeIntegration.sol:HarvestV3StakeIntegration",
        "label": "controller",
        "offset": 0,
        "slot": "0",
        "type": "t_contract(IBabController)35346"
      },
      {
        "astId": 21840,
        "contract": "contracts/integrations/passive/HarvestV3StakeIntegration.sol:HarvestV3StakeIntegration",
        "label": "name",
        "offset": 0,
        "slot": "1",
        "type": "t_string_storage"
      },
      {
        "astId": 5975,
        "contract": "contracts/integrations/passive/HarvestV3StakeIntegration.sol:HarvestV3StakeIntegration",
        "label": "_status",
        "offset": 0,
        "slot": "2",
        "type": "t_uint256"
      }
    ],
    "types": {
      "t_contract(IBabController)35346": {
        "encoding": "inplace",
        "label": "contract IBabController",
        "numberOfBytes": "20"
      },
      "t_string_storage": {
        "encoding": "bytes",
        "label": "string",
        "numberOfBytes": "32"
      },
      "t_uint256": {
        "encoding": "inplace",
        "label": "uint256",
        "numberOfBytes": "32"
      }
    }
  }
}