{
  "address": "0xa350547Ac573d2B690d5aFFCa16fF6A73f3cC375",
  "abi": [
    {
      "inputs": [
        {
          "internalType": "contract IBabController",
          "name": "_controller",
          "type": "address"
        },
        {
          "internalType": "address",
          "name": "_weth",
          "type": "address"
        }
      ],
      "stateMutability": "nonpayable",
      "type": "constructor"
    },
    {
      "anonymous": false,
      "inputs": [
        {
          "indexed": true,
          "internalType": "address",
          "name": "garden",
          "type": "address"
        },
        {
          "indexed": true,
          "internalType": "address",
          "name": "strategy",
          "type": "address"
        },
        {
          "indexed": true,
          "internalType": "address",
          "name": "investment",
          "type": "address"
        },
        {
          "indexed": false,
          "internalType": "address",
          "name": "tokenIn",
          "type": "address"
        },
        {
          "indexed": false,
          "internalType": "uint256",
          "name": "investmentTokensOut",
          "type": "uint256"
        }
      ],
      "name": "InvestmentEntered",
      "type": "event"
    },
    {
      "anonymous": false,
      "inputs": [
        {
          "indexed": true,
          "internalType": "address",
          "name": "garden",
          "type": "address"
        },
        {
          "indexed": true,
          "internalType": "address",
          "name": "strategy",
          "type": "address"
        },
        {
          "indexed": true,
          "internalType": "address",
          "name": "investment",
          "type": "address"
        },
        {
          "indexed": false,
          "internalType": "uint256",
          "name": "investmentTokensOut",
          "type": "uint256"
        }
      ],
      "name": "InvestmentExited",
      "type": "event"
    },
    {
      "inputs": [],
      "name": "controller",
      "outputs": [
        {
          "internalType": "contract IBabController",
          "name": "",
          "type": "address"
        }
      ],
      "stateMutability": "view",
      "type": "function"
    },
    {
      "inputs": [
        {
          "internalType": "address",
          "name": "_strategy",
          "type": "address"
        },
        {
          "internalType": "address",
          "name": "_investmentAddress",
          "type": "address"
        },
        {
          "internalType": "uint256",
          "name": "_investmentTokensOut",
          "type": "uint256"
        },
        {
          "internalType": "address",
          "name": "_tokenIn",
          "type": "address"
        },
        {
          "internalType": "uint256",
          "name": "_maxAmountIn",
          "type": "uint256"
        }
      ],
      "name": "enterInvestment",
      "outputs": [],
      "stateMutability": "nonpayable",
      "type": "function"
    },
    {
      "inputs": [
        {
          "internalType": "address",
          "name": "_strategy",
          "type": "address"
        },
        {
          "internalType": "address",
          "name": "_investmentAddress",
          "type": "address"
        },
        {
          "internalType": "uint256",
          "name": "_investmentTokenIn",
          "type": "uint256"
        },
        {
          "internalType": "address",
          "name": "_tokenOut",
          "type": "address"
        },
        {
          "internalType": "uint256",
          "name": "_minAmountOut",
          "type": "uint256"
        }
      ],
      "name": "exitInvestment",
      "outputs": [],
      "stateMutability": "nonpayable",
      "type": "function"
    },
    {
      "inputs": [
        {
          "internalType": "address",
          "name": "_investmentAddress",
          "type": "address"
        },
        {
          "internalType": "uint256",
          "name": "_ethAmount",
          "type": "uint256"
        }
      ],
      "name": "getExpectedShares",
      "outputs": [
        {
          "internalType": "uint256",
          "name": "",
          "type": "uint256"
        }
      ],
      "stateMutability": "view",
      "type": "function"
    },
    {
      "inputs": [
        {
          "internalType": "address",
          "name": "_investmentAddress",
          "type": "address"
        }
      ],
      "name": "getInvestmentAsset",
      "outputs": [
        {
          "internalType": "address",
          "name": "",
          "type": "address"
        }
      ],
      "stateMutability": "view",
      "type": "function"
    },
    {
      "inputs": [],
      "name": "getName",
      "outputs": [
        {
          "internalType": "string",
          "name": "",
          "type": "string"
        }
      ],
      "stateMutability": "view",
      "type": "function"
    },
    {
      "inputs": [
        {
          "internalType": "address",
          "name": "_investmentAddress",
          "type": "address"
        }
      ],
      "name": "getPricePerShare",
      "outputs": [
        {
          "internalType": "uint256",
          "name": "",
          "type": "uint256"
        }
      ],
      "stateMutability": "view",
      "type": "function"
    },
    {
      "inputs": [
        {
          "internalType": "address",
          "name": "",
          "type": "address"
        }
      ],
      "name": "initializedByGarden",
      "outputs": [
        {
          "internalType": "bool",
          "name": "",
          "type": "bool"
        }
      ],
      "stateMutability": "view",
      "type": "function"
    },
    {
      "inputs": [
        {
          "internalType": "address",
          "name": "_investmentAddress",
          "type": "address"
        }
      ],
      "name": "isInvestment",
      "outputs": [
        {
          "internalType": "bool",
          "name": "",
          "type": "bool"
        }
      ],
      "stateMutability": "view",
      "type": "function"
    },
    {
      "inputs": [],
      "name": "name",
      "outputs": [
        {
          "internalType": "string",
          "name": "",
          "type": "string"
        }
      ],
      "stateMutability": "view",
      "type": "function"
    },
    {
      "inputs": [],
      "name": "weth",
      "outputs": [
        {
          "internalType": "address",
          "name": "",
          "type": "address"
        }
      ],
      "stateMutability": "view",
      "type": "function"
    }
  ],
  "transactionHash": "0xb1548850a8d33f92e79487028c69de4405db692fd09c713c6c907be76f62a6c8",
  "args": [
    "0xD4a5b5fcB561dAF3aDF86F8477555B92FBa43b5F",
    "0xC02aaA39b223FE8D0A0e5C4F27eAD9083C756Cc2"
  ],
  "solcInputHash": "3d00fad6e2a8def9880d61c8c4c2d9ca",
  "bytecode": "0x60a06040523480156200001157600080fd5b506040516200188f3803806200188f833981810160405260408110156200003757600080fd5b50805160209182015160408051808201909152600d81526c686172766573747661756c747360981b93810193909352909181838282826001600160a01b038116620000c9576040805162461bcd60e51b815260206004820152601a60248201527f436f6e74726f6c6c6572206d75737420626520646566696e6564000000000000604482015290519081900360640190fd5b8251620000de90600190602086019062000121565b50600080546001600160a01b0319166001600160a01b039290921691909117905560601b6001600160601b0319166080525050600160035550620001cd92505050565b828054600181600116156101000203166002900490600052602060002090601f016020900481019282620001595760008555620001a4565b82601f106200017457805160ff1916838001178555620001a4565b82800160010185558215620001a4579182015b82811115620001a457825182559160200191906001019062000187565b50620001b2929150620001b6565b5090565b5b80821115620001b25760008155600101620001b7565b60805160601c6116a4620001eb6000398061041752506116a46000f3fe608060405234801561001057600080fd5b50600436106100c95760003560e01c8063976a99be11610081578063ec422afd1161005b578063ec422afd1461029f578063f337f630146102c5578063f77c4791146102eb576100c9565b8063976a99be146101fb5780639e12fef21461023f578063b10198fb14610279576100c9565b80633fc8cef3116100b25780633fc8cef3146101535780634deef64914610177578063871be911146101b5576100c9565b806306fdde03146100ce57806317d7de7c1461014b575b600080fd5b6100d66102f3565b6040805160208082528351818301528351919283929083019185019080838360005b838110156101105781810151838201526020016100f8565b50505050905090810190601f16801561013d5780820380516001836020036101000a031916815260200191505b509250505060405180910390f35b6100d6610380565b61015b610415565b604080516001600160a01b039092168252519081900360200190f35b6101a36004803603604081101561018d57600080fd5b506001600160a01b038135169060200135610439565b60408051918252519081900360200190f35b6101f9600480360360a08110156101cb57600080fd5b506001600160a01b03813581169160208101358216916040820135916060810135909116906080013561044e565b005b6101f9600480360360a081101561021157600080fd5b506001600160a01b03813581169160208101358216916040820135916060810135909116906080013561085b565b6102656004803603602081101561025557600080fd5b50356001600160a01b0316610c75565b604080519115158252519081900360200190f35b6102656004803603602081101561028f57600080fd5b50356001600160a01b0316610c80565b6101a3600480360360208110156102b557600080fd5b50356001600160a01b0316610c95565b61015b600480360360208110156102db57600080fd5b50356001600160a01b0316610ca0565b61015b610cab565b60018054604080516020600284861615610100026000190190941693909304601f810184900484028201840190925281815292918301828280156103785780601f1061034d57610100808354040283529160200191610378565b820191906000526020600020905b81548152906001019060200180831161035b57829003601f168201915b505050505081565b60018054604080516020601f6002600019610100878916150201909516949094049384018190048102820181019092528281526060939092909183018282801561040b5780601f106103e05761010080835404028352916020019161040b565b820191906000526020600020905b8154815290600101906020018083116103ee57829003601f168201915b5050505050905090565b7f000000000000000000000000000000000000000000000000000000000000000081565b60006104458383610cba565b90505b92915050565b600260035414156104a6576040805162461bcd60e51b815260206004820152601f60248201527f5265656e7472616e637947756172643a207265656e7472616e742063616c6c00604482015290519081900360640190fd5b6002600355600054604080516313bc6d4b60e01b815233600482015290516001600160a01b03909216916313bc6d4b91602480820192602092909190829003018186803b1580156104f657600080fd5b505afa15801561050a573d6000803e3d6000fd5b505050506040513d602081101561052057600080fd5b5051610573576040805162461bcd60e51b815260206004820152601960248201527f4f6e6c792073797374656d2063616e2063616c6c207468697300000000000000604482015290519081900360640190fd5b60006105828686868686610d2b565b905061058d81610f05565b80516001600160a01b03166397ccdc606105a687610fda565b87876040518463ffffffff1660e01b815260040180846001600160a01b03168152602001836001600160a01b031681526020018281526020019350505050600060405180830381600087803b1580156105fe57600080fd5b505af1158015610612573d6000803e3d6000fd5b5050505060008060006106288989898989610fdd565b92509250925083600001516001600160a01b0316636bc195dd8484846040518463ffffffff1660e01b815260040180846001600160a01b0316815260200183815260200180602001828103825283818151815260200191508051906020019080838360005b838110156106a557818101518382015260200161068d565b50505050905090810190601f1680156106d25780820380516001836020036101000a031916815260200191505b50945050505050600060405180830381600087803b1580156106f357600080fd5b505af1158015610707573d6000803e3d6000fd5b505050506040513d6000823e601f3d908101601f19168201604052602081101561073057600080fd5b810190808051604051939291908464010000000082111561075057600080fd5b90830190602082018581111561076557600080fd5b825164010000000081118282018810171561077f57600080fd5b82525081516020918201929091019080838360005b838110156107ac578181015183820152602001610794565b50505050905090810190601f1680156107d95780820380516001836020036101000a031916815260200191505b50604052505050506107ea8461104b565b83604001516001600160a01b031684600001516001600160a01b031685602001516001600160a01b03167f99d773709d80de3e15433c22c381fd8e3b82a68b56322240ff4a304956ef0e528a6040518082815260200191505060405180910390a45050600160035550505050505050565b600260035414156108b3576040805162461bcd60e51b815260206004820152601f60248201527f5265656e7472616e637947756172643a207265656e7472616e742063616c6c00604482015290519081900360640190fd5b6002600355600054604080516313bc6d4b60e01b815233600482015290516001600160a01b03909216916313bc6d4b91602480820192602092909190829003018186803b15801561090357600080fd5b505afa158015610917573d6000803e3d6000fd5b505050506040513d602081101561092d57600080fd5b5051610980576040805162461bcd60e51b815260206004820152601960248201527f4f6e6c792073797374656d2063616e2063616c6c207468697300000000000000604482015290519081900360640190fd5b600061098f8686868686610d2b565b905061099a81611113565b80516001600160a01b03166397ccdc606109b387610fda565b85856040518463ffffffff1660e01b815260040180846001600160a01b03168152602001836001600160a01b031681526020018281526020019350505050600060405180830381600087803b158015610a0b57600080fd5b505af1158015610a1f573d6000803e3d6000fd5b505050506000806000610a35898989898961119e565b92509250925083600001516001600160a01b0316636bc195dd8484846040518463ffffffff1660e01b815260040180846001600160a01b0316815260200183815260200180602001828103825283818151815260200191508051906020019080838360005b83811015610ab2578181015183820152602001610a9a565b50505050905090810190601f168015610adf5780820380516001836020036101000a031916815260200191505b50945050505050600060405180830381600087803b158015610b0057600080fd5b505af1158015610b14573d6000803e3d6000fd5b505050506040513d6000823e601f3d908101601f191682016040526020811015610b3d57600080fd5b8101908080516040519392919084640100000000821115610b5d57600080fd5b908301906020820185811115610b7257600080fd5b8251640100000000811182820188101715610b8c57600080fd5b82525081516020918201929091019080838360005b83811015610bb9578181015183820152602001610ba1565b50505050905090810190601f168015610be65780820380516001836020036101000a031916815260200191505b5060405250505050610bf78461120d565b876001600160a01b031684600001516001600160a01b031685602001516001600160a01b03167fdc0718d28ea0f80518c2c454af93bc46bf51dd4a1b25a048ca4ca75a7ac359c4898b60405180836001600160a01b031681526020018281526020019250505060405180910390a45050600160035550505050505050565b6000610448826112cf565b60026020526000908152604090205460ff1681565b600061044882611351565b6000610448826113be565b6000546001600160a01b031681565b6000610445836001600160a01b03166377c7b8fc6040518163ffffffff1660e01b815260040160206040518083038186803b158015610cf857600080fd5b505afa158015610d0c573d6000803e3d6000fd5b505050506040513d6020811015610d2257600080fd5b505183906113f9565b610d336114d7565b610d3b6114d7565b6001600160a01b038716808252604080517f56ba88b800000000000000000000000000000000000000000000000000000000815290516356ba88b891600480820192602092909190829003018186803b158015610d9757600080fd5b505afa158015610dab573d6000803e3d6000fd5b505050506040513d6020811015610dc157600080fd5b50516001600160a01b03908116602083810191909152908716604080840182905280517f18160ddd000000000000000000000000000000000000000000000000000000008152905191926318160ddd92600480840193829003018186803b158015610e2b57600080fd5b505afa158015610e3f573d6000803e3d6000fd5b505050506040513d6020811015610e5557600080fd5b50516060820152604080517f70a082310000000000000000000000000000000000000000000000000000000081526001600160a01b0389811660048301529151918816916370a0823191602480820192602092909190829003018186803b158015610ebf57600080fd5b505afa158015610ed3573d6000803e3d6000fd5b505050506040513d6020811015610ee957600080fd5b505160a082015260808101949094525060c08301525092915050565b610f1281604001516112cf565b610f4d5760405162461bcd60e51b815260040180806020018281038252602381526020018061164c6023913960400191505060405180910390fd5b6000816080015111610f905760405162461bcd60e51b81526004018080602001828103825260348152602001806116186034913960400191505060405180910390fd5b80608001518160a001511015610fd75760405162461bcd60e51b81526004018080602001828103825260318152602001806115306031913960400191505060405180910390fd5b50565b90565b5050604080516024808201939093528151808203909301835260440190526020810180517bffffffffffffffffffffffffffffffffffffffffffffffffffffffff167f2e1a7d4d00000000000000000000000000000000000000000000000000000000179052909260009250565b80608001518160a001510381604001516001600160a01b03166370a0823183600001516040518263ffffffff1660e01b815260040180826001600160a01b0316815260200191505060206040518083038186803b1580156110ab57600080fd5b505afa1580156110bf573d6000803e3d6000fd5b505050506040513d60208110156110d557600080fd5b505114610fd75760405162461bcd60e51b815260040180806020018281038252602f815260200180611591602f913960400191505060405180910390fd5b61112081604001516112cf565b61115b5760405162461bcd60e51b815260040180806020018281038252602381526020018061164c6023913960400191505060405180910390fd5b6000816080015111610fd75760405162461bcd60e51b81526004018080602001828103825260378152602001806115c06037913960400191505060405180910390fd5b604080516024808201939093528151808203909301835260440190526020810180517bffffffffffffffffffffffffffffffffffffffffffffffffffffffff167fb6b55f2500000000000000000000000000000000000000000000000000000000179052929460009450915050565b8060a0015181604001516001600160a01b03166370a0823183600001516040518263ffffffff1660e01b815260040180826001600160a01b0316815260200191505060206040518083038186803b15801561126757600080fd5b505afa15801561127b573d6000803e3d6000fd5b505050506040513d602081101561129157600080fd5b505111610fd75760405162461bcd60e51b81526004018080602001828103825260308152602001806115616030913960400191505060405180910390fd5b6000806001600160a01b0316826001600160a01b0316636f307dc36040518163ffffffff1660e01b815260040160206040518083038186803b15801561131457600080fd5b505afa158015611328573d6000803e3d6000fd5b505050506040513d602081101561133e57600080fd5b50516001600160a01b0316141592915050565b6000816001600160a01b03166377c7b8fc6040518163ffffffff1660e01b815260040160206040518083038186803b15801561138c57600080fd5b505afa1580156113a0573d6000803e3d6000fd5b505050506040513d60208110156113b657600080fd5b505192915050565b6000816001600160a01b0316636f307dc36040518163ffffffff1660e01b815260040160206040518083038186803b15801561138c57600080fd5b60006104458261141185670de0b6b3a7640000611417565b90611470565b60008261142657506000610448565b8282028284828161143357fe5b04146104455760405162461bcd60e51b81526004018080602001828103825260218152602001806115f76021913960400191505060405180910390fd5b60008082116114c6576040805162461bcd60e51b815260206004820152601a60248201527f536166654d6174683a206469766973696f6e206279207a65726f000000000000604482015290519081900360640190fd5b8183816114cf57fe5b049392505050565b6040518060e0016040528060006001600160a01b0316815260200160006001600160a01b0316815260200160006001600160a01b0316815260200160008152602001600081526020016000815260200160008152509056fe5468652067617264656e20646f6573206e6f74206861766520656e6f75676820696e766573746d656e7420746f6b656e735468652067617264656e20646964206e6f7420726563656976652074686520696e766573746d656e7420746f6b656e735468652067617264656e20646964206e6f742072657475726e2074686520696e766573746d656e7420746f6b656e734d696e20696e766573746d656e7420746f6b656e7320746f2072656365697665206d7573742062652067726561746572207468616e2030536166654d6174683a206d756c7469706c69636174696f6e206f766572666c6f77496e766573746d656e7420746f6b656e7320746f2065786368616e6765206d7573742062652067726561746572207468616e203054686520696e766573746d656e742061646472657373206973206e6f742076616c6964a2646970667358221220c8cc60df7e160cae18894a55eba15bd26d04183500c6e0374322467c7a7cacc664736f6c63430007060033",
  "devdoc": {
    "author": "Babylon Finance Protocol Harvest v2 Vault Integration",
    "kind": "dev",
    "methods": {
      "constructor": {
        "params": {
          "_controller": "Address of the controller",
          "_weth": "Address of the WETH ERC20"
        }
      },
      "enterInvestment(address,address,uint256,address,uint256)": {
        "params": {
          "_investmentAddress": "Address of the investment token to join",
          "_investmentTokensOut": "Min amount of investment tokens to receive",
          "_maxAmountIn": "Max amount of the token to deposit",
          "_strategy": "Address of the strategy",
          "_tokenIn": "Token aaddress to deposit"
        }
      },
      "exitInvestment(address,address,uint256,address,uint256)": {
        "params": {
          "_investmentAddress": "Address of the investment token to join",
          "_investmentTokenIn": "Quantity of investment tokens to return",
          "_minAmountOut": "Min token quantities to receive from the investment",
          "_strategy": "Address of the strategy",
          "_tokenOut": "Token address to withdraw"
        }
      },
      "getExpectedShares(address,uint256)": {
        "params": {
          "_ethAmount": "Amount of eth to invest",
          "_investmentAddress": "Investment address to check"
        },
        "returns": {
          "_0": "uint256                           Amount of investment shares to receive"
        }
      },
      "getInvestmentAsset(address)": {
        "returns": {
          "_0": "address                           Returns the asset that this investment needs"
        }
      },
      "getPricePerShare(address)": {
        "params": {
          "_investmentAddress": "Investment address to check"
        },
        "returns": {
          "_0": "uint256                           Returns the price in ETH of an investment share"
        }
      },
      "isInvestment(address)": {
        "params": {
          "_investmentAddress": "Investment address to check"
        },
        "returns": {
          "_0": "bool                              True if the address is a investment"
        }
      }
    },
    "title": "HarvestIntegration",
    "version": 1
  },
  "userdoc": {
    "kind": "user",
    "methods": {
      "constructor": {
        "notice": "Creates the integration"
      },
      "enterInvestment(address,address,uint256,address,uint256)": {
        "notice": "Deposits tokens into an investment"
      },
      "exitInvestment(address,address,uint256,address,uint256)": {
        "notice": "Exits an outside passive investment"
      },
      "getExpectedShares(address,uint256)": {
        "notice": "Gets the amount of shares expected to get after depositing _ethAmount"
      },
      "getInvestmentAsset(address)": {
        "notice": "Gets the asset needed to enter the investment"
      },
      "getName()": {
        "notice": "Returns the name of the integration"
      },
      "getPricePerShare(address)": {
        "notice": "Gets how much eth one unit of the investment is worth"
      },
      "isInvestment(address)": {
        "notice": "Checks whether an investment address is valid"
      }
    },
    "version": 1
  },
  "storageLayout": {
    "storage": [
      {
        "astId": 20125,
        "contract": "contracts/integrations/passive/HarvestVaultIntegration.sol:HarvestVaultIntegration",
        "label": "controller",
        "offset": 0,
        "slot": "0",
        "type": "t_contract(IBabController)25452"
      },
      {
        "astId": 20129,
        "contract": "contracts/integrations/passive/HarvestVaultIntegration.sol:HarvestVaultIntegration",
        "label": "name",
        "offset": 0,
        "slot": "1",
        "type": "t_string_storage"
      },
      {
        "astId": 20133,
        "contract": "contracts/integrations/passive/HarvestVaultIntegration.sol:HarvestVaultIntegration",
        "label": "initializedByGarden",
        "offset": 0,
        "slot": "2",
        "type": "t_mapping(t_address,t_bool)"
      },
      {
        "astId": 5859,
        "contract": "contracts/integrations/passive/HarvestVaultIntegration.sol:HarvestVaultIntegration",
        "label": "_status",
        "offset": 0,
        "slot": "3",
        "type": "t_uint256"
      }
    ],
    "types": {
      "t_address": {
        "encoding": "inplace",
        "label": "address",
        "numberOfBytes": "20"
      },
      "t_bool": {
        "encoding": "inplace",
        "label": "bool",
        "numberOfBytes": "1"
      },
      "t_contract(IBabController)25452": {
        "encoding": "inplace",
        "label": "contract IBabController",
        "numberOfBytes": "20"
      },
      "t_mapping(t_address,t_bool)": {
        "encoding": "mapping",
        "key": "t_address",
        "label": "mapping(address => bool)",
        "numberOfBytes": "32",
        "value": "t_bool"
      },
      "t_string_storage": {
        "encoding": "bytes",
        "label": "string",
        "numberOfBytes": "32"
      },
      "t_uint256": {
        "encoding": "inplace",
        "label": "uint256",
        "numberOfBytes": "32"
      }
    }
  }
}