{
  "address": "0x64b2c872D4Ff44BA0803b9ff69C01D0786647412",
  "abi": [
    {
      "inputs": [
        {
          "internalType": "contract IBabController",
          "name": "_controller",
          "type": "address"
        }
      ],
      "stateMutability": "nonpayable",
      "type": "constructor"
    },
    {
      "anonymous": false,
      "inputs": [
        {
          "indexed": true,
          "internalType": "address",
          "name": "_strategy",
          "type": "address"
        },
        {
          "indexed": true,
          "internalType": "address",
          "name": "_garden",
          "type": "address"
        },
        {
          "indexed": false,
          "internalType": "address",
          "name": "_pool",
          "type": "address"
        },
        {
          "indexed": false,
          "internalType": "uint256",
          "name": "_poolTokensOut",
          "type": "uint256"
        }
      ],
      "name": "PoolEntered",
      "type": "event"
    },
    {
      "anonymous": false,
      "inputs": [
        {
          "indexed": true,
          "internalType": "address",
          "name": "_strategy",
          "type": "address"
        },
        {
          "indexed": true,
          "internalType": "address",
          "name": "_garden",
          "type": "address"
        },
        {
          "indexed": false,
          "internalType": "address",
          "name": "_pool",
          "type": "address"
        },
        {
          "indexed": false,
          "internalType": "uint256",
          "name": "_poolTokensIn",
          "type": "uint256"
        }
      ],
      "name": "PoolExited",
      "type": "event"
    },
    {
      "inputs": [],
      "name": "controller",
      "outputs": [
        {
          "internalType": "contract IBabController",
          "name": "",
          "type": "address"
        }
      ],
      "stateMutability": "view",
      "type": "function"
    },
    {
      "inputs": [
        {
          "internalType": "address",
          "name": "_strategy",
          "type": "address"
        },
        {
          "internalType": "bytes",
          "name": "_pool",
          "type": "bytes"
        },
        {
          "internalType": "uint256",
          "name": "_poolTokensIn",
          "type": "uint256"
        },
        {
          "internalType": "address[]",
          "name": "_tokensOut",
          "type": "address[]"
        },
        {
          "internalType": "uint256[]",
          "name": "_minAmountsOut",
          "type": "uint256[]"
        }
      ],
      "name": "exitPool",
      "outputs": [],
      "stateMutability": "nonpayable",
      "type": "function"
    },
    {
      "inputs": [
        {
          "internalType": "address",
          "name": "_pool",
          "type": "address"
        }
      ],
      "name": "getLPToken",
      "outputs": [
        {
          "internalType": "address",
          "name": "",
          "type": "address"
        }
      ],
      "stateMutability": "view",
      "type": "function"
    },
    {
      "inputs": [
        {
          "internalType": "address",
          "name": "_pool",
          "type": "address"
        }
      ],
      "name": "getPool",
      "outputs": [
        {
          "internalType": "address",
          "name": "",
          "type": "address"
        }
      ],
      "stateMutability": "view",
      "type": "function"
    },
    {
      "inputs": [
        {
          "internalType": "bytes",
          "name": "_pool",
          "type": "bytes"
        },
        {
          "internalType": "uint256",
          "name": "_liquidity",
          "type": "uint256"
        }
      ],
      "name": "getPoolMinAmountsOut",
      "outputs": [
        {
          "internalType": "uint256[]",
          "name": "_minAmountsOut",
          "type": "uint256[]"
        }
      ],
      "stateMutability": "view",
      "type": "function"
    },
    {
      "inputs": [
        {
          "internalType": "bytes",
          "name": "_pool",
          "type": "bytes"
        },
        {
          "internalType": "bool",
          "name": "",
          "type": "bool"
        }
      ],
      "name": "getPoolTokens",
      "outputs": [
        {
          "internalType": "address[]",
          "name": "",
          "type": "address[]"
        }
      ],
      "stateMutability": "view",
      "type": "function"
    },
    {
      "inputs": [
        {
          "internalType": "bytes",
          "name": "",
          "type": "bytes"
        },
        {
          "internalType": "address",
          "name": "",
          "type": "address"
        },
        {
          "internalType": "uint256",
          "name": "",
          "type": "uint256"
        }
      ],
      "name": "getPoolTokensOut",
      "outputs": [
        {
          "internalType": "uint256",
          "name": "",
          "type": "uint256"
        }
      ],
      "stateMutability": "pure",
      "type": "function"
    },
    {
      "inputs": [
        {
          "internalType": "bytes",
          "name": "_pool",
          "type": "bytes"
        }
      ],
      "name": "getPoolWeights",
      "outputs": [
        {
          "internalType": "uint256[]",
          "name": "",
          "type": "uint256[]"
        }
      ],
      "stateMutability": "view",
      "type": "function"
    },
    {
      "inputs": [
        {
          "internalType": "bytes",
          "name": "_pool",
          "type": "bytes"
        }
      ],
      "name": "getPricePerShare",
      "outputs": [
        {
          "internalType": "uint256",
          "name": "",
          "type": "uint256"
        }
      ],
      "stateMutability": "view",
      "type": "function"
    },
    {
      "inputs": [
        {
          "internalType": "bytes",
          "name": "_pool",
          "type": "bytes"
        }
      ],
      "name": "getRewardTokens",
      "outputs": [
        {
          "internalType": "address[]",
          "name": "",
          "type": "address[]"
        }
      ],
      "stateMutability": "view",
      "type": "function"
    },
    {
      "inputs": [
        {
          "internalType": "bytes",
          "name": "_pool",
          "type": "bytes"
        },
        {
          "internalType": "uint256",
          "name": "_i",
          "type": "uint256"
        }
      ],
      "name": "getUnderlyingAndRate",
      "outputs": [
        {
          "internalType": "address",
          "name": "",
          "type": "address"
        },
        {
          "internalType": "uint256",
          "name": "",
          "type": "uint256"
        }
      ],
      "stateMutability": "view",
      "type": "function"
    },
    {
      "inputs": [
        {
          "internalType": "bytes",
          "name": "_pool",
          "type": "bytes"
        }
      ],
      "name": "isPool",
      "outputs": [
        {
          "internalType": "bool",
          "name": "",
          "type": "bool"
        }
      ],
      "stateMutability": "view",
      "type": "function"
    },
    {
      "inputs": [
        {
          "internalType": "address",
          "name": "_strategy",
          "type": "address"
        },
        {
          "internalType": "bytes",
          "name": "_pool",
          "type": "bytes"
        },
        {
          "internalType": "uint256",
          "name": "_poolTokensOut",
          "type": "uint256"
        },
        {
          "internalType": "address[]",
          "name": "_tokensIn",
          "type": "address[]"
        },
        {
          "internalType": "uint256[]",
          "name": "_maxAmountsIn",
          "type": "uint256[]"
        }
      ],
      "name": "joinPool",
      "outputs": [],
      "stateMutability": "nonpayable",
      "type": "function"
    },
    {
      "inputs": [],
      "name": "name",
      "outputs": [
        {
          "internalType": "string",
          "name": "",
          "type": "string"
        }
      ],
      "stateMutability": "view",
      "type": "function"
    },
    {
      "inputs": [
        {
          "internalType": "bytes",
          "name": "",
          "type": "bytes"
        }
      ],
      "name": "poolWeightsByPrice",
      "outputs": [
        {
          "internalType": "bool",
          "name": "",
          "type": "bool"
        }
      ],
      "stateMutability": "pure",
      "type": "function"
    },
    {
      "inputs": [
        {
          "internalType": "address",
          "name": "_pool",
          "type": "address"
        }
      ],
      "name": "totalSupply",
      "outputs": [
        {
          "internalType": "uint256",
          "name": "",
          "type": "uint256"
        }
      ],
      "stateMutability": "view",
      "type": "function"
    }
  ],
  "transactionHash": "0xeb21622a80597b53762155ea455ed6fa6c5ac7f62e71ad36fbc7de53625b2960",
  "args": [
    "0xD4a5b5fcB561dAF3aDF86F8477555B92FBa43b5F"
  ],
  "solcInputHash": "c393e099a8c604020e10a2eee964fe3f",
  "bytecode": "0x60806040523480156200001157600080fd5b50604051620028e5380380620028e5833981810160405260208110156200003757600080fd5b505160408051808201909152600d81526c686172766573745f756e69763360981b60208201528181816001600160a01b038116620000bc576040805162461bcd60e51b815260206004820152601a60248201527f436f6e74726f6c6c6572206d75737420626520646566696e6564000000000000604482015290519081900360640190fd5b8151620000d190600190602085019062000147565b50600080546001600160a01b0319166001600160a01b03928316179055600160025584161515925062000140915050576040805162461bcd60e51b815260206004820152600f60248201526e696e76616c6964206164647265737360881b604482015290519081900360640190fd5b50620001f3565b828054600181600116156101000203166002900490600052602060002090601f0160209004810192826200017f5760008555620001ca565b82601f106200019a57805160ff1916838001178555620001ca565b82800160010185558215620001ca579182015b82811115620001ca578251825591602001919060010190620001ad565b50620001d8929150620001dc565b5090565b5b80821115620001d85760008155600101620001dd565b6126e280620002036000396000f3fe608060405234801561001057600080fd5b50600436106101005760003560e01c80637a6731ab11610097578063d87517b411610066578063d87517b4146107ea578063e022710714610858578063e4dc2aa4146108c8578063f77c4791146108ee57610100565b80637a6731ab146105c9578063bbe4f6db14610387578063bc82b61d146106eb578063c9d5066b1461077c57610100565b80634fc99ed6116100d35780634fc99ed61461038757806354f070c1146103c957806364092159146104ed578063662952e01461055b57610100565b806306fdde031461010557806307ec3d92146101825780631b7e75b71461024057806326062493146102cf575b600080fd5b61010d6108f6565b6040805160208082528351818301528351919283929083019185019080838360005b8381101561014757818101518382015260200161012f565b50505050905090810190601f1680156101745780820380516001836020036101000a031916815260200191505b509250505060405180910390f35b6101f06004803603602081101561019857600080fd5b810190602081018135600160201b8111156101b257600080fd5b8201836020820111156101c457600080fd5b803590602001918460018302840111600160201b831117156101e557600080fd5b509092509050610983565b60408051602080825283518183015283519192839290830191858101910280838360005b8381101561022c578181015183820152602001610214565b505050509050019250505060405180910390f35b6102bd6004803603606081101561025657600080fd5b810190602081018135600160201b81111561027057600080fd5b82018360208201111561028257600080fd5b803590602001918460018302840111600160201b831117156102a357600080fd5b91935091506001600160a01b038135169060200135610b7f565b60408051918252519081900360200190f35b610373600480360360208110156102e557600080fd5b810190602081018135600160201b8111156102ff57600080fd5b82018360208201111561031157600080fd5b803590602001918460018302840111600160201b8311171561033257600080fd5b91908080601f016020809104026020016040519081016040528093929190818152602001838380828437600092019190915250929550610b89945050505050565b604080519115158252519081900360200190f35b6103ad6004803603602081101561039d57600080fd5b50356001600160a01b0316610b94565b604080516001600160a01b039092168252519081900360200190f35b6104eb600480360360a08110156103df57600080fd5b6001600160a01b038235169190810190604081016020820135600160201b81111561040957600080fd5b82018360208201111561041b57600080fd5b803590602001918460018302840111600160201b8311171561043c57600080fd5b91939092823592604081019060200135600160201b81111561045d57600080fd5b82018360208201111561046f57600080fd5b803590602001918460208302840111600160201b8311171561049057600080fd5b919390929091602081019035600160201b8111156104ad57600080fd5b8201836020820111156104bf57600080fd5b803590602001918460208302840111600160201b831117156104e057600080fd5b509092509050610b9f565b005b6103736004803603602081101561050357600080fd5b810190602081018135600160201b81111561051d57600080fd5b82018360208201111561052f57600080fd5b803590602001918460018302840111600160201b8311171561055057600080fd5b509092509050611002565b6102bd6004803603602081101561057157600080fd5b810190602081018135600160201b81111561058b57600080fd5b82018360208201111561059d57600080fd5b803590602001918460018302840111600160201b831117156105be57600080fd5b50909250905061100a565b6104eb600480360360a08110156105df57600080fd5b6001600160a01b038235169190810190604081016020820135600160201b81111561060957600080fd5b82018360208201111561061b57600080fd5b803590602001918460018302840111600160201b8311171561063c57600080fd5b91939092823592604081019060200135600160201b81111561065d57600080fd5b82018360208201111561066f57600080fd5b803590602001918460208302840111600160201b8311171561069057600080fd5b919390929091602081019035600160201b8111156106ad57600080fd5b8201836020820111156106bf57600080fd5b803590602001918460208302840111600160201b831117156106e057600080fd5b509092509050611086565b6107596004803603604081101561070157600080fd5b810190602081018135600160201b81111561071b57600080fd5b82018360208201111561072d57600080fd5b803590602001918460018302840111600160201b8311171561074e57600080fd5b9193509150356115f6565b604080516001600160a01b03909316835260208301919091528051918290030190f35b6101f06004803603604081101561079257600080fd5b810190602081018135600160201b8111156107ac57600080fd5b8201836020820111156107be57600080fd5b803590602001918460018302840111600160201b831117156107df57600080fd5b919350915035611610565b6101f06004803603602081101561080057600080fd5b810190602081018135600160201b81111561081a57600080fd5b82018360208201111561082c57600080fd5b803590602001918460018302840111600160201b8311171561084d57600080fd5b509092509050611848565b6101f06004803603604081101561086e57600080fd5b810190602081018135600160201b81111561088857600080fd5b82018360208201111561089a57600080fd5b803590602001918460018302840111600160201b831117156108bb57600080fd5b9193509150351515611869565b6102bd600480360360208110156108de57600080fd5b50356001600160a01b03166119c5565b6103ad6119d0565b60018054604080516020600284861615610100026000190190941693909304601f8101849004840282018401909252818152929183018282801561097b5780601f106109505761010080835404028352916020019161097b565b820191906000526020600020905b81548152906001019060200180831161095e57829003601f168201915b505050505081565b6060600061099184846119df565b60408051600280825260608201835292935060009290916020830190803683370190505090506000826001600160a01b0316633408f73a6040518163ffffffff1660e01b815260040160206040518083038186803b1580156109f257600080fd5b505afa158015610a06573d6000803e3d6000fd5b505050506040513d6020811015610a1c57600080fd5b5051604080517ff5d13da000000000000000000000000000000000000000000000000000000000815290516001600160a01b039092169163f5d13da091600480820192602092909190829003018186803b158015610a7957600080fd5b505afa158015610a8d573d6000803e3d6000fd5b505050506040513d6020811015610aa357600080fd5b5051604080517f6cff91f90000000000000000000000000000000000000000000000000000000081526004810183905281519293507325c81e249f913c94f263923421622ba731e6555b92636cff91f992602480840193919291829003018186803b158015610b1157600080fd5b505afa158015610b25573d6000803e3d6000fd5b505050506040513d6040811015610b3b57600080fd5b50805160209091015183518490600090610b5157fe5b6020026020010184600181518110610b6557fe5b602090810291909101019190915252509150505b92915050565b6001949350505050565b6000610b7982611a03565b6000610b7982611a82565b600280541415610bf6576040805162461bcd60e51b815260206004820152601f60248201527f5265656e7472616e637947756172643a207265656e7472616e742063616c6c00604482015290519081900360640190fd5b60028055600054604080516313bc6d4b60e01b815233600482015290516001600160a01b03909216916313bc6d4b91602480820192602092909190829003018186803b158015610c4557600080fd5b505afa158015610c59573d6000803e3d6000fd5b505050506040513d6020811015610c6f57600080fd5b5051610cc2576040805162461bcd60e51b815260206004820152601960248201527f4f6e6c792073797374656d2063616e2063616c6c207468697300000000000000604482015290519081900360640190fd5b6000610cce88886119df565b90506000610ce28a8a8a8a8a8a8a8a611a85565b9050610ced81611c50565b80602001516001600160a01b03166397ccdc60610d0a8b8b611d3b565b83606001518a6040518463ffffffff1660e01b815260040180846001600160a01b03168152602001836001600160a01b031681526020018281526020019350505050600060405180830381600087803b158015610d6657600080fd5b505af1158015610d7a573d6000803e3d6000fd5b505050506000806000610dca8d8d8d8080601f0160208091040260200160405190810160405280939291908181526020018383808284376000920191909152508f92508e91508d90508c8c611d48565b92509250925083602001516001600160a01b0316636bc195dd8484846040518463ffffffff1660e01b815260040180846001600160a01b0316815260200183815260200180602001828103825283818151815260200191508051906020019080838360005b83811015610e47578181015183820152602001610e2f565b50505050905090810190601f168015610e745780820380516001836020036101000a031916815260200191505b50945050505050600060405180830381600087803b158015610e9557600080fd5b505af1158015610ea9573d6000803e3d6000fd5b505050506040513d6000823e601f3d908101601f191682016040526020811015610ed257600080fd5b8101908080516040519392919084600160201b821115610ef157600080fd5b908301906020820185811115610f0657600080fd5b8251600160201b811182820188101715610f1f57600080fd5b82525081516020918201929091019080838360005b83811015610f4c578181015183820152602001610f34565b50505050905090810190601f168015610f795780820380516001836020036101000a031916815260200191505b5060405250505050610f8a84611f0f565b83600001516001600160a01b031684602001516001600160a01b03167f7659e40cf608296ce5aa9eff9c80adc7a49cb481173fc4e302e3983827b042df878d60405180836001600160a01b031681526020018281526020019250505060405180910390a3505060016002555050505050505050505050565b600192915050565b60008061101784846119df565b9050806001600160a01b03166377c7b8fc6040518163ffffffff1660e01b815260040160206040518083038186803b15801561105257600080fd5b505afa158015611066573d6000803e3d6000fd5b505050506040513d602081101561107c57600080fd5b5051949350505050565b6002805414156110dd576040805162461bcd60e51b815260206004820152601f60248201527f5265656e7472616e637947756172643a207265656e7472616e742063616c6c00604482015290519081900360640190fd5b60028055600054604080516313bc6d4b60e01b815233600482015290516001600160a01b03909216916313bc6d4b91602480820192602092909190829003018186803b15801561112c57600080fd5b505afa158015611140573d6000803e3d6000fd5b505050506040513d602081101561115657600080fd5b50516111a9576040805162461bcd60e51b815260206004820152601960248201527f4f6e6c792073797374656d2063616e2063616c6c207468697300000000000000604482015290519081900360640190fd5b60006111bb8989898989898989611a85565b90506111c681611fd7565b60006111d289896119df565b905060005b858110156113145760008787838181106111ed57fe5b905060200201356001600160a01b03166001600160a01b03161415801561124c575073eeeeeeeeeeeeeeeeeeeeeeeeeeeeeeeeeeeeeeee87878381811061123057fe5b905060200201356001600160a01b03166001600160a01b031614155b1561130c5782602001516001600160a01b03166397ccdc6061126e8c8c611d3b565b89898581811061127a57fe5b905060200201356001600160a01b031688888681811061129657fe5b905060200201356040518463ffffffff1660e01b815260040180846001600160a01b03168152602001836001600160a01b031681526020018281526020019350505050600060405180830381600087803b1580156112f357600080fd5b505af1158015611307573d6000803e3d6000fd5b505050505b6001016111d7565b50600080600061132a8d8d8d8d8d8d8d8d612078565b92509250925084602001516001600160a01b0316636bc195dd8484846040518463ffffffff1660e01b815260040180846001600160a01b0316815260200183815260200180602001828103825283818151815260200191508051906020019080838360005b838110156113a757818101518382015260200161138f565b50505050905090810190601f1680156113d45780820380516001836020036101000a031916815260200191505b50945050505050600060405180830381600087803b1580156113f557600080fd5b505af1158015611409573d6000803e3d6000fd5b505050506040513d6000823e601f3d908101601f19168201604052602081101561143257600080fd5b8101908080516040519392919084600160201b82111561145157600080fd5b90830190602082018581111561146657600080fd5b8251600160201b81118282018810171561147f57600080fd5b82525081516020918201929091019080838360005b838110156114ac578181015183820152602001611494565b50505050905090810190601f1680156114d95780820380516001836020036101000a031916815260200191505b50604052505050506115708560c0015186606001516001600160a01b03166370a0823188602001516040518263ffffffff1660e01b815260040180826001600160a01b0316815260200191505060206040518083038186803b15801561153e57600080fd5b505afa158015611552573d6000803e3d6000fd5b505050506040513d602081101561156857600080fd5b5051906121cb565b60a086015261157e856121db565b84600001516001600160a01b031685602001516001600160a01b03167fe5ca6288535c5c6c2462c912b4033eade15b80926717896a2d58a2defdeb9128868d60405180836001600160a01b031681526020018281526020019250505060405180910390a3505060016002555050505050505050505050565b60008061160485858561229d565b91509150935093915050565b6060600061161e85856119df565b90506000816001600160a01b03166318160ddd6040518163ffffffff1660e01b815260040160206040518083038186803b15801561165b57600080fd5b505afa15801561166f573d6000803e3d6000fd5b505050506040513d602081101561168557600080fd5b505160408051600280825260608201835292935060009290916020830190803683370190505090506117b766b1a2bc2ec50000670de0b6b3a7640000036117b1846117ab89886001600160a01b0316630dfe16816040518163ffffffff1660e01b815260040160206040518083038186803b15801561170357600080fd5b505afa158015611717573d6000803e3d6000fd5b505050506040513d602081101561172d57600080fd5b5051604080516370a0823160e01b81526001600160a01b038c81166004830152915191909216916370a08231916024808301926020929190829003018186803b15801561177957600080fd5b505afa15801561178d573d6000803e3d6000fd5b505050506040513d60208110156117a357600080fd5b5051906122d4565b906122f8565b9061235f565b816000815181106117c457fe5b60200260200101818152505061182666b1a2bc2ec50000670de0b6b3a7640000036117b1846117ab89886001600160a01b031663d21220a76040518163ffffffff1660e01b815260040160206040518083038186803b15801561170357600080fd5b8160018151811061183357fe5b60209081029190910101529695505050505050565b6060600061185684846119df565b90506118618161237e565b949350505050565b6060600061187785856119df565b6040805160028082526060820183529293506000929091602083019080368337019050509050816001600160a01b0316630dfe16816040518163ffffffff1660e01b815260040160206040518083038186803b1580156118d657600080fd5b505afa1580156118ea573d6000803e3d6000fd5b505050506040513d602081101561190057600080fd5b50518151829060009061190f57fe5b60200260200101906001600160a01b031690816001600160a01b031681525050816001600160a01b031663d21220a76040518163ffffffff1660e01b815260040160206040518083038186803b15801561196857600080fd5b505afa15801561197c573d6000803e3d6000fd5b505050506040513d602081101561199257600080fd5b50518151829060019081106119a357fe5b6001600160a01b03909216602092830291909101909101529150509392505050565b6000610b79826123a4565b6000546001600160a01b031681565b6000828260208110156119f157600080fd5b50356001600160a01b03169392505050565b600080611a1183600c612411565b90506000816001600160a01b03166318160ddd6040518163ffffffff1660e01b815260040160206040518083038186803b158015611a4e57600080fd5b505afa158015611a62573d6000803e3d6000fd5b505050506040513d6020811015611a7857600080fd5b5051119392505050565b90565b611a8d612569565b6000611a9989896119df565b9050611aa3612569565b611aac82611a82565b6001600160a01b0390811660608301528b166020808301829052604080517f56ba88b800000000000000000000000000000000000000000000000000000000815290516356ba88b892600480840193919291829003018186803b158015611b1257600080fd5b505afa158015611b26573d6000803e3d6000fd5b505050506040513d6020811015611b3c57600080fd5b50516001600160a01b03168152604080516020601f8c018190048102820181019092528a8152908b908b9081908401838280828437600092019190915250505050604080830191909152606082015181516370a0823160e01b81526001600160a01b038e81166004830152925192909116916370a0823191602480820192602092909190829003018186803b158015611bd457600080fd5b505afa158015611be8573d6000803e3d6000fd5b505050506040513d6020811015611bfe57600080fd5b505160c082015260a081018890526040805160208681028281018201909352868252909187918791829185019084908082843760009201919091525050505060e08201529a9950505050505050505050565b611c5d8160400151611a03565b611cae576040805162461bcd60e51b815260206004820152601d60248201527f54686520706f6f6c2061646472657373206973206e6f742076616c6964000000604482015290519081900360640190fd5b60008160a0015111611cf15760405162461bcd60e51b815260040180806020018281038252602e8152602001806125fb602e913960400191505060405180910390fd5b8060a001518160c001511015611d385760405162461bcd60e51b815260040180806020018281038252602d815260200180612655602d913960400191505060405180910390fd5b50565b60008061186184846119df565b60008060606000611d5a8a600c612411565b90506000816001600160a01b031663b1f8f13b6040518163ffffffff1660e01b815260040160206040518083038186803b158015611d9757600080fd5b505afa158015611dab573d6000803e3d6000fd5b505050506040513d6020811015611dc157600080fd5b50516001600160a01b0316905060028814611e23576040805162461bcd60e51b815260206004820152601360248201527f54776f20746f6b656e7320726571756972656400000000000000000000000000604482015290519081900360640190fd5b60028614611e78576040805162461bcd60e51b815260206004820152601460248201527f54776f20616d6f756e7473207265717569726564000000000000000000000000604482015290519081900360640190fd5b60408051602481019b909b52600160448c0181905260648c015260848b0191909152609660a4808c01919091528151808c03909101815260c4909a0190526020890180517bffffffffffffffffffffffffffffffffffffffffffffffffffffffff167f04ef02d3000000000000000000000000000000000000000000000000000000001790529a60009a5097985050505050505050565b8060a001518160c001510381606001516001600160a01b03166370a0823183602001516040518263ffffffff1660e01b815260040180826001600160a01b0316815260200191505060206040518083038186803b158015611f6f57600080fd5b505afa158015611f83573d6000803e3d6000fd5b505050506040513d6020811015611f9957600080fd5b505114611d385760405162461bcd60e51b815260040180806020018281038252602b815260200180612682602b913960400191505060405180910390fd5b611fe48160400151611a03565b612035576040805162461bcd60e51b815260206004820152601d60248201527f54686520706f6f6c2061646472657373206973206e6f742076616c6964000000604482015290519081900360640190fd5b60008160a0015111611d385760405162461bcd60e51b81526004018080602001828103825260318152602001806125ca6031913960400191505060405180910390fd5b6000806060600286146120d2576040805162461bcd60e51b815260206004820152601360248201527f54776f20746f6b656e7320726571756972656400000000000000000000000000604482015290519081900360640190fd5b60028414612127576040805162461bcd60e51b815260206004820152601460248201527f54776f20616d6f756e7473207265717569726564000000000000000000000000604482015290519081900360640190fd5b60006121338b8b6119df565b90506000816001600160a01b031663b1f8f13b6040518163ffffffff1660e01b815260040160206040518083038186803b15801561217057600080fd5b505afa158015612184573d6000803e3d6000fd5b505050506040513d602081101561219a57600080fd5b50516001600160a01b031690508160006121b5838a8a61241d565b9450945094505050985098509895505050505050565b80820382811115610b7957600080fd5b8060c0015181606001516001600160a01b03166370a0823183602001516040518263ffffffff1660e01b815260040180826001600160a01b0316815260200191505060206040518083038186803b15801561223557600080fd5b505afa158015612249573d6000803e3d6000fd5b505050506040513d602081101561225f57600080fd5b505111611d385760405162461bcd60e51b815260040180806020018281038252602c815260200180612629602c913960400191505060405180910390fd5b6000806122ac85856000611869565b83815181106122b757fe5b6020026020010151670de0b6b3a764000091509150935093915050565b60008215806122ef575050818102818382816122ec57fe5b04145b610b7957600080fd5b600080821161234e576040805162461bcd60e51b815260206004820152601a60248201527f536166654d6174683a206469766973696f6e206279207a65726f000000000000604482015290519081900360640190fd5b81838161235757fe5b049392505050565b6000612377670de0b6b3a76400006117ab85856122d4565b9392505050565b604080516001808252818301909252606091602080830190803683370190505092915050565b6000816001600160a01b03166318160ddd6040518163ffffffff1660e01b815260040160206040518083038186803b1580156123df57600080fd5b505afa1580156123f3573d6000803e3d6000fd5b505050506040513d602081101561240957600080fd5b505192915050565b600061237783836124f5565b60608282600081811061242c57fe5b905060200201358383600181811061244057fe5b60408051602481019590955260209182029390930135604485015260006064850181905260848501899052609660a486015260c4850181905260e48501526001600160a01b038816610104808601919091528351808603909101815261012490940190925250810180517bffffffffffffffffffffffffffffffffffffffffffffffffffffffff167ffe61e6d70000000000000000000000000000000000000000000000000000000017905290509392505050565b60008160140183511015612550576040805162461bcd60e51b815260206004820152601560248201527f746f416464726573735f6f75744f66426f756e64730000000000000000000000604482015290519081900360640190fd5b5001602001516c01000000000000000000000000900490565b60405180610100016040528060006001600160a01b0316815260200160006001600160a01b031681526020016060815260200160006001600160a01b0316815260200160008152602001600081526020016000815260200160608152509056fe4d696e20706f6f6c20746f6b656e7320746f2072656365697665206d7573742062652067726561746572207468616e2030506f6f6c20746f6b656e7320746f2065786368616e6765206d7573742062652067726561746572207468616e203054686520737472617465677920646964206e6f7420726563656976652074686520706f6f6c20746f6b656e7354686520737472617465677920646f6573206e6f74206861766520656e6f75676820706f6f6c20746f6b656e7354686520737472617465677920646964206e6f742072657475726e2074686520706f6f6c20746f6b656e73a26469706673582212206376a217a5faaf92085a787799b72f8b9b636f4d169bc281183eb138999c1e5f64736f6c63430007060033",
  "devdoc": {
    "author": "Babylon Finance Protocol HarvestUniV3 protocol integration",
    "kind": "dev",
    "methods": {
      "constructor": {
        "params": {
          "_controller": "Address of the controller"
        }
      },
      "exitPool(address,bytes,uint256,address[],uint256[])": {
        "params": {
          "_minAmountsOut": "Array of min token quantities to receive from the pool",
          "_pool": "Pool info e.g. PoolId or Address of the pool token to join + metadata",
          "_poolTokensIn": "Pool tokens to exchange for the underlying tokens",
          "_strategy": "Address of the strategy",
          "_tokensOut": "Array of token addresses to withdraw"
        }
      },
      "getLPToken(address)": {
        "params": {
          "_pool": "Address of the pool"
        },
        "returns": {
          "_0": "address                 Address of the LP token"
        }
      },
      "getPool(address)": {
        "params": {
          "_pool": "Address of the maybe pool"
        },
        "returns": {
          "_0": "address                 Address of the pool itself"
        }
      },
      "getUnderlyingAndRate(bytes,uint256)": {
        "params": {
          "_i": "Index of coin in the pool",
          "_pool": "Address of the pool"
        },
        "returns": {
          "_0": "address                 Underlying coin",
          "_1": "uint256                 Rate from coin to underlying"
        }
      },
      "isPool(bytes)": {
        "params": {
          "_pool": "OpData e.g. Pool address to check"
        },
        "returns": {
          "_0": "bool                 True if the address is a pool"
        }
      },
      "joinPool(address,bytes,uint256,address[],uint256[])": {
        "params": {
          "_maxAmountsIn": "Array of max token quantities to pull out from the garden",
          "_pool": "OpData e.g. Address of the pool token to join",
          "_poolTokensOut": "Min amount of pool tokens to receive",
          "_strategy": "Address of the strategy",
          "_tokensIn": "Array of token addresses to deposit"
        }
      },
      "totalSupply(address)": {
        "params": {
          "_pool": "Address of the pool"
        },
        "returns": {
          "_0": "address                 Total supply of the token"
        }
      }
    },
    "title": "Harvest Uni V3 Pool Integration",
    "version": 1
  },
  "userdoc": {
    "kind": "user",
    "methods": {
      "constructor": {
        "notice": "Creates the integration"
      },
      "exitPool(address,bytes,uint256,address[],uint256[])": {
        "notice": "Exits a liquidity pool. Accrue protocol fee (if any)"
      },
      "getLPToken(address)": {
        "notice": "Returns the actual address of the LP token. Different for curve."
      },
      "getPool(address)": {
        "notice": "Gets the underlying pool that holds the internal tokens. Different for curve."
      },
      "getUnderlyingAndRate(bytes,uint256)": {
        "notice": "Returns the underlying coin"
      },
      "isPool(bytes)": {
        "notice": "Checks whether a pool address is valid"
      },
      "joinPool(address,bytes,uint256,address[],uint256[])": {
        "notice": "Joins a pool"
      },
      "totalSupply(address)": {
        "notice": "Returns the total supply of the pool tokens"
      }
    },
    "version": 1
  },
  "storageLayout": {
    "storage": [
      {
        "astId": 21838,
        "contract": "contracts/integrations/pool/HarvestPoolV3Integration.sol:HarvestPoolV3Integration",
        "label": "controller",
        "offset": 0,
        "slot": "0",
        "type": "t_contract(IBabController)34872"
      },
      {
        "astId": 21840,
        "contract": "contracts/integrations/pool/HarvestPoolV3Integration.sol:HarvestPoolV3Integration",
        "label": "name",
        "offset": 0,
        "slot": "1",
        "type": "t_string_storage"
      },
      {
        "astId": 5975,
        "contract": "contracts/integrations/pool/HarvestPoolV3Integration.sol:HarvestPoolV3Integration",
        "label": "_status",
        "offset": 0,
        "slot": "2",
        "type": "t_uint256"
      }
    ],
    "types": {
      "t_contract(IBabController)34872": {
        "encoding": "inplace",
        "label": "contract IBabController",
        "numberOfBytes": "20"
      },
      "t_string_storage": {
        "encoding": "bytes",
        "label": "string",
        "numberOfBytes": "32"
      },
      "t_uint256": {
        "encoding": "inplace",
        "label": "uint256",
        "numberOfBytes": "32"
      }
    }
  }
}