{
  "address": "0xA0AEd403B24380C33D25883770eFC3A7A62f3762",
  "abi": [
    {
      "inputs": [
        {
          "internalType": "contract IBabController",
          "name": "_controller",
          "type": "address"
        },
        {
          "internalType": "contract IGovernor",
          "name": "_governor",
          "type": "address"
        },
        {
          "internalType": "contract IHeart",
          "name": "_heart",
          "type": "address"
        }
      ],
      "stateMutability": "nonpayable",
      "type": "constructor"
    },
    {
      "inputs": [],
      "name": "controller",
      "outputs": [
        {
          "internalType": "contract IBabController",
          "name": "",
          "type": "address"
        }
      ],
      "stateMutability": "view",
      "type": "function"
    },
    {
      "inputs": [],
      "name": "getAllHeartDetails",
      "outputs": [
        {
          "internalType": "address[2]",
          "name": "",
          "type": "address[2]"
        },
        {
          "internalType": "uint256[]",
          "name": "",
          "type": "uint256[]"
        },
        {
          "internalType": "uint256[]",
          "name": "",
          "type": "uint256[]"
        },
        {
          "internalType": "address[]",
          "name": "",
          "type": "address[]"
        },
        {
          "internalType": "uint256[]",
          "name": "",
          "type": "uint256[]"
        },
        {
          "internalType": "uint256[2]",
          "name": "",
          "type": "uint256[2]"
        },
        {
          "internalType": "uint256[2]",
          "name": "",
          "type": "uint256[2]"
        },
        {
          "internalType": "uint256[2]",
          "name": "",
          "type": "uint256[2]"
        }
      ],
      "stateMutability": "view",
      "type": "function"
    },
    {
      "inputs": [
        {
          "internalType": "address[]",
          "name": "_assets",
          "type": "address[]"
        }
      ],
      "name": "getBondDiscounts",
      "outputs": [
        {
          "internalType": "uint256[]",
          "name": "",
          "type": "uint256[]"
        }
      ],
      "stateMutability": "view",
      "type": "function"
    },
    {
      "inputs": [
        {
          "internalType": "uint256[]",
          "name": "_ids",
          "type": "uint256[]"
        }
      ],
      "name": "getGovernanceProposals",
      "outputs": [
        {
          "internalType": "address[]",
          "name": "",
          "type": "address[]"
        },
        {
          "internalType": "uint256[]",
          "name": "",
          "type": "uint256[]"
        },
        {
          "internalType": "uint256[]",
          "name": "",
          "type": "uint256[]"
        },
        {
          "internalType": "uint256[]",
          "name": "",
          "type": "uint256[]"
        }
      ],
      "stateMutability": "view",
      "type": "function"
    },
    {
      "inputs": [],
      "name": "governor",
      "outputs": [
        {
          "internalType": "contract IGovernor",
          "name": "",
          "type": "address"
        }
      ],
      "stateMutability": "view",
      "type": "function"
    },
    {
      "inputs": [],
      "name": "heart",
      "outputs": [
        {
          "internalType": "contract IHeart",
          "name": "",
          "type": "address"
        }
      ],
      "stateMutability": "view",
      "type": "function"
    },
    {
      "inputs": [],
      "name": "visor",
      "outputs": [
        {
          "internalType": "contract IHypervisor",
          "name": "",
          "type": "address"
        }
      ],
      "stateMutability": "view",
      "type": "function"
    },
    {
      "inputs": [],
      "name": "visor_full",
      "outputs": [
        {
          "internalType": "contract IHypervisor",
          "name": "",
          "type": "address"
        }
      ],
      "stateMutability": "view",
      "type": "function"
    }
  ],
  "transactionHash": "0x1bc10d3284fa91c444b455cedd13ea618691f035db9926b91de7f8dedae75aa2",
  "args": [
    "0xd4a5b5fcb561daf3adf86f8477555b92fba43b5f",
    "0xBEC3de5b14902C660Bd2C7EfD2F259998424cc24",
    "0x51e6775b7be2ea1d20ca02cfeeb04453366e72c8"
  ],
  "numDeployments": 4,
  "solcInputHash": "b049683f24ad6e7bf95b2e24413c9124",
  "bytecode": "0x60e06040523480156200001157600080fd5b5060405162001602380380620016028339810160408190526200003491620000b7565b6001600160a01b038316620000665760405162461bcd60e51b81526004016200005d906200010a565b60405180910390fd5b6001600160a01b0382166200008f5760405162461bcd60e51b81526004016200005d9062000141565b6001600160601b0319606093841b811660805291831b821660a05290911b1660c05262000191565b600080600060608486031215620000cc578283fd5b8351620000d98162000178565b6020850151909350620000ec8162000178565b6040850151909250620000ff8162000178565b809150509250925092565b60208082526015908201527f436f6e74726f6c6c6572206d7573742065786973740000000000000000000000604082015260600190565b60208082526013908201527f476f7665726e6f72206d75737420657869737400000000000000000000000000604082015260600190565b6001600160a01b03811681146200018e57600080fd5b50565b60805160601c60a05160601c60c05160601c6113fa6200020860003980610297528061033f52806103e5528061047a528061050f52806105a4528061064452806106da5280610779528061080f5280610b4e5280610c3352508061012c5280610c9b5280610d70525080610c5752506113fa6000f3fe608060405234801561001057600080fd5b50600436106100885760003560e01c8063d551723e1161005b578063d551723e146100f2578063df822edf146100fa578063f58d1c941461011a578063f77c47911461012257610088565b80630c340a241461008d5780630c75b1d8146100ab57806371802996146100c75780639bb1f644146100ea575b600080fd5b61009561012a565b6040516100a2919061122a565b60405180910390f35b6100b361014e565b6040516100a298979695949392919061123e565b6100da6100d5366004610fec565b6108e5565b6040516100a294939291906112f6565b610095610ac9565b610095610ae1565b61010d610108366004610f0e565b610af9565b6040516100a2919061134e565b610095610c31565b610095610c55565b7f000000000000000000000000000000000000000000000000000000000000000081565b610156610e35565b606080606080610164610e35565b61016c610e35565b610174610e35565b60008073f19f91d7889668a533f14d076adc187be781a4586001600160a01b031663c4a7761e6040518163ffffffff1660e01b8152600401604080518083038186803b1580156101c357600080fd5b505afa1580156101d7573d6000803e3d6000fd5b505050506040513d601f19601f820116820180604052508101906101fb919061115b565b91509150600080735e6c481de496554b66657dd1ca1f70c61cf116606001600160a01b031663c4a7761e6040518163ffffffff1660e01b8152600401604080518083038186803b15801561024e57600080fd5b505afa158015610262573d6000803e3d6000fd5b505050506040513d601f19601f82011682018060405250810190610286919061115b565b9150915060405180604001604052807f00000000000000000000000000000000000000000000000000000000000000006001600160a01b03166365f7f6486040518163ffffffff1660e01b815260040160206040518083038186803b1580156102ee57600080fd5b505afa158015610302573d6000803e3d6000fd5b505050506040513d601f19601f820116820180604052508101906103269190610ef2565b6001600160a01b03166001600160a01b031681526020017f00000000000000000000000000000000000000000000000000000000000000006001600160a01b0316636be2f2676040518163ffffffff1660e01b815260040160206040518083038186803b15801561039657600080fd5b505afa1580156103aa573d6000803e3d6000fd5b505050506040513d601f19601f820116820180604052508101906103ce9190610ef2565b6001600160a01b03166001600160a01b03168152507f00000000000000000000000000000000000000000000000000000000000000006001600160a01b031663fc5cbf1d6040518163ffffffff1660e01b815260040160006040518083038186803b15801561043c57600080fd5b505afa158015610450573d6000803e3d6000fd5b505050506040513d6000823e601f3d908101601f191682016040526104789190810190611014565b7f00000000000000000000000000000000000000000000000000000000000000006001600160a01b031663564e4bab6040518163ffffffff1660e01b815260040160006040518083038186803b1580156104d157600080fd5b505afa1580156104e5573d6000803e3d6000fd5b505050506040513d6000823e601f3d908101601f1916820160405261050d9190810190611014565b7f00000000000000000000000000000000000000000000000000000000000000006001600160a01b031663081ab4c26040518163ffffffff1660e01b815260040160006040518083038186803b15801561056657600080fd5b505afa15801561057a573d6000803e3d6000fd5b505050506040513d6000823e601f3d908101601f191682016040526105a29190810190610f4e565b7f00000000000000000000000000000000000000000000000000000000000000006001600160a01b031663cfd2dc996040518163ffffffff1660e01b815260040160006040518083038186803b1580156105fb57600080fd5b505afa15801561060f573d6000803e3d6000fd5b505050506040513d6000823e601f3d908101601f191682016040526106379190810190611014565b60405180604001604052807f00000000000000000000000000000000000000000000000000000000000000006001600160a01b031663a775efa56040518163ffffffff1660e01b815260040160206040518083038186803b15801561069b57600080fd5b505afa1580156106af573d6000803e3d6000fd5b505050506040513d601f19601f820116820180604052508101906106d391906110b7565b81526020017f00000000000000000000000000000000000000000000000000000000000000006001600160a01b031663dac5a9956040518163ffffffff1660e01b815260040160206040518083038186803b15801561073157600080fd5b505afa158015610745573d6000803e3d6000fd5b505050506040513d601f19601f8201168201806040525081019061076991906110b7565b81525060405180604001604052807f00000000000000000000000000000000000000000000000000000000000000006001600160a01b031663394abf456040518163ffffffff1660e01b815260040160206040518083038186803b1580156107d057600080fd5b505afa1580156107e4573d6000803e3d6000fd5b505050506040513d601f19601f8201168201806040525081019061080891906110b7565b81526020017f00000000000000000000000000000000000000000000000000000000000000006001600160a01b031663730fa8c46040518163ffffffff1660e01b815260040160206040518083038186803b15801561086657600080fd5b505afa15801561087a573d6000803e3d6000fd5b505050506040513d601f19601f8201168201806040525081019061089e91906110b7565b905260408051808201909152806108b58d8c610c79565b81526020016108c48c8b610c79565b8152509b509b509b509b509b509b509b509b50505050509091929394959697565b606080808060008567ffffffffffffffff8111801561090357600080fd5b5060405190808252806020026020018201604052801561092d578160200160208202803683370190505b50905060008667ffffffffffffffff8111801561094957600080fd5b50604051908082528060200260200182016040528015610973578160200160208202803683370190505b50905060008767ffffffffffffffff8111801561098f57600080fd5b506040519080825280602002602001820160405280156109b9578160200160208202803683370190505b50905060008867ffffffffffffffff811180156109d557600080fd5b506040519080825280602002602001820160405280156109ff578160200160208202803683370190505b50905060005b89811015610ab857600080610a2b8d8d85818110610a1f57fe5b90506020020135610c89565b9150915081878481518110610a3c57fe5b6001600160a01b03929092166020928302919091019091015280518651879085908110610a6557fe5b60209081029190910101528060016020020151858481518110610a8457fe5b60209081029190910101528060026020020151848481518110610aa357fe5b60209081029190910101525050600101610a05565b509299919850965090945092505050565b735e6c481de496554b66657dd1ca1f70c61cf1166081565b73f19f91d7889668a533f14d076adc187be781a45881565b606060008267ffffffffffffffff81118015610b1457600080fd5b50604051908082528060200260200182016040528015610b3e578160200160208202803683370190505b50905060005b83811015610c27577f00000000000000000000000000000000000000000000000000000000000000006001600160a01b031663f4bd694a868684818110610b8757fe5b9050602002016020810190610b9c9190610ecf565b6040518263ffffffff1660e01b8152600401610bb8919061122a565b60206040518083038186803b158015610bd057600080fd5b505afa158015610be4573d6000803e3d6000fd5b505050506040513d601f19601f82011682018060405250810190610c0891906110b7565b828281518110610c1457fe5b6020908102919091010152600101610b44565b5090505b92915050565b7f000000000000000000000000000000000000000000000000000000000000000081565b7f000000000000000000000000000000000000000000000000000000000000000081565b80820182811015610c2b57600080fd5b6000610c93610e53565b6000806000807f00000000000000000000000000000000000000000000000000000000000000006001600160a01b031663013cf08b886040518263ffffffff1660e01b8152600401610ce59190611361565b6101406040518083038186803b158015610cfe57600080fd5b505afa158015610d12573d6000803e3d6000fd5b505050506040513d601f19601f82011682018060405250810190610d3691906110cf565b5050509650965096505050945050836040518060600160405280858152602001610d698486610e2590919063ffffffff16565b81526020017f00000000000000000000000000000000000000000000000000000000000000006001600160a01b0316633e4f49e68b6040518263ffffffff1660e01b8152600401610dba9190611361565b60206040518083038186803b158015610dd257600080fd5b505afa158015610de6573d6000803e3d6000fd5b505050506040513d601f19601f82011682018060405250810190610e0a9190611098565b6007811115610e1557fe5b8152509550955050505050915091565b80820382811115610c2b57600080fd5b60405180604001604052806002906020820280368337509192915050565b60405180606001604052806003906020820280368337509192915050565b60008083601f840112610e82578182fd5b50813567ffffffffffffffff811115610e99578182fd5b6020830191508360208083028501011115610eb357600080fd5b9250929050565b80518015158114610eca57600080fd5b919050565b600060208284031215610ee0578081fd5b8135610eeb816113ac565b9392505050565b600060208284031215610f03578081fd5b8151610eeb816113ac565b60008060208385031215610f20578081fd5b823567ffffffffffffffff811115610f36578182fd5b610f4285828601610e71565b90969095509350505050565b60006020808385031215610f60578182fd5b825167ffffffffffffffff811115610f76578283fd5b8301601f81018513610f86578283fd5b8051610f99610f948261138e565b61136a565b8181528381019083850185840285018601891015610fb5578687fd5b8694505b83851015610fe0578051610fcc816113ac565b835260019490940193918501918501610fb9565b50979650505050505050565b60008060208385031215610ffe578182fd5b823567ffffffffffffffff811115610f36578283fd5b60006020808385031215611026578182fd5b825167ffffffffffffffff81111561103c578283fd5b8301601f8101851361104c578283fd5b805161105a610f948261138e565b8181528381019083850185840285018601891015611076578687fd5b8694505b83851015610fe057805183526001949094019391850191850161107a565b6000602082840312156110a9578081fd5b815160088110610eeb578182fd5b6000602082840312156110c8578081fd5b5051919050565b6000806000806000806000806000806101408b8d0312156110ee578586fd5b8a51995060208b0151611100816113ac565b8099505060408b0151975060608b0151965060808b0151955060a08b0151945060c08b0151935060e08b0151925061113b6101008c01610eba565b915061114a6101208c01610eba565b90509295989b9194979a5092959850565b6000806040838503121561116d578182fd5b505080516020909101519092909150565b6001600160a01b0316815260200190565b6000815180845260208085019450808401835b838110156111c75781516001600160a01b0316875295820195908201906001016111a2565b509495945050505050565b8060005b60028110156111f55781518452602093840193909101906001016111d6565b50505050565b6000815180845260208085019450808401835b838110156111c75781518752958201959082019060010161120e565b6001600160a01b0391909116815260200190565b6000610180828b835b600281101561126c5761125b83835161117e565b925060209190910190600101611247565b5050508060408401526112818184018b6111fb565b90508281036060840152611295818a6111fb565b905082810360808401526112a9818961118f565b905082810360a08401526112bd81886111fb565b9150506112cd60c08301866111d2565b6112db6101008301856111d2565b6112e96101408301846111d2565b9998505050505050505050565b600060808252611309608083018761118f565b828103602084015261131b81876111fb565b9050828103604084015261132f81866111fb565b9050828103606084015261134381856111fb565b979650505050505050565b600060208252610eeb60208301846111fb565b90815260200190565b60405181810167ffffffffffffffff8111828210171561138657fe5b604052919050565b600067ffffffffffffffff8211156113a257fe5b5060209081020190565b6001600160a01b03811681146113c157600080fd5b5056fea2646970667358221220a41c9932de05c97926c58c768ab241995fa350e287de14acaa1ead0294a774a164736f6c63430007060033",
  "devdoc": {
    "author": "Babylon Finance Class that holds common view functions to retrieve heart and governance information effectively",
    "kind": "dev",
    "methods": {},
    "title": "HeartViewer",
    "version": 1
  },
  "userdoc": {
    "kind": "user",
    "methods": {
      "getAllHeartDetails()": {
        "notice": "Gets all the heart details in one view call"
      }
    },
    "version": 1
  },
  "storageLayout": {
    "storage": [],
    "types": null
  }
}