{
  "address": "0x1a00a52C870C527c5575c3a0Bbbd0E170b44fE69",
  "abi": [
    {
      "inputs": [
        {
          "internalType": "contract IBabController",
          "name": "_controller",
          "type": "address"
        },
        {
          "internalType": "contract IGovernor",
          "name": "_governor",
          "type": "address"
        }
      ],
      "stateMutability": "nonpayable",
      "type": "constructor"
    },
    {
      "anonymous": false,
      "inputs": [
        {
          "indexed": false,
          "internalType": "uint256",
          "name": "_timestamp",
          "type": "uint256"
        },
        {
          "indexed": false,
          "internalType": "uint256",
          "name": "_bablSent",
          "type": "uint256"
        }
      ],
      "name": "BABLRewardSent",
      "type": "event"
    },
    {
      "anonymous": false,
      "inputs": [
        {
          "indexed": false,
          "internalType": "uint256",
          "name": "_timestamp",
          "type": "uint256"
        },
        {
          "indexed": false,
          "internalType": "uint256",
          "name": "_wethSpent",
          "type": "uint256"
        },
        {
          "indexed": false,
          "internalType": "uint256",
          "name": "_bablBought",
          "type": "uint256"
        }
      ],
      "name": "BablBuyback",
      "type": "event"
    },
    {
      "anonymous": false,
      "inputs": [
        {
          "indexed": false,
          "internalType": "uint256",
          "name": "_timestamp",
          "type": "uint256"
        },
        {
          "indexed": false,
          "internalType": "uint256",
          "name": "_amount",
          "type": "uint256"
        }
      ],
      "name": "FeesCollected",
      "type": "event"
    },
    {
      "anonymous": false,
      "inputs": [
        {
          "indexed": false,
          "internalType": "uint256",
          "name": "_timestamp",
          "type": "uint256"
        },
        {
          "indexed": true,
          "internalType": "address",
          "name": "_asset",
          "type": "address"
        },
        {
          "indexed": false,
          "internalType": "uint256",
          "name": "_assetAmount",
          "type": "uint256"
        }
      ],
      "name": "FuseLentAsset",
      "type": "event"
    },
    {
      "anonymous": false,
      "inputs": [
        {
          "indexed": false,
          "internalType": "uint256",
          "name": "_timestamp",
          "type": "uint256"
        },
        {
          "indexed": true,
          "internalType": "address",
          "name": "_garden",
          "type": "address"
        },
        {
          "indexed": false,
          "internalType": "uint256",
          "name": "_wethInvested",
          "type": "uint256"
        }
      ],
      "name": "GardenSeedInvest",
      "type": "event"
    },
    {
      "anonymous": false,
      "inputs": [
        {
          "indexed": false,
          "internalType": "uint256",
          "name": "_timestamp",
          "type": "uint256"
        },
        {
          "indexed": false,
          "internalType": "uint256",
          "name": "_wethBalance",
          "type": "uint256"
        },
        {
          "indexed": false,
          "internalType": "uint256",
          "name": "_bablBalance",
          "type": "uint256"
        }
      ],
      "name": "LiquidityAdded",
      "type": "event"
    },
    {
      "anonymous": false,
      "inputs": [
        {
          "indexed": true,
          "internalType": "address",
          "name": "previousOwner",
          "type": "address"
        },
        {
          "indexed": true,
          "internalType": "address",
          "name": "newOwner",
          "type": "address"
        }
      ],
      "name": "OwnershipTransferred",
      "type": "event"
    },
    {
      "anonymous": false,
      "inputs": [
        {
          "indexed": false,
          "internalType": "uint256",
          "name": "_timestamp",
          "type": "uint256"
        },
        {
          "indexed": false,
          "internalType": "uint256",
          "name": "_proposalId",
          "type": "uint256"
        },
        {
          "indexed": false,
          "internalType": "bool",
          "name": "_isApprove",
          "type": "bool"
        }
      ],
      "name": "ProposalVote",
      "type": "event"
    },
    {
      "anonymous": false,
      "inputs": [
        {
          "indexed": false,
          "internalType": "uint256",
          "name": "_timestamp",
          "type": "uint256"
        }
      ],
      "name": "UpdatedGardenWeights",
      "type": "event"
    },
    {
      "inputs": [
        {
          "internalType": "uint256",
          "name": "_bablAmount",
          "type": "uint256"
        },
        {
          "internalType": "uint256",
          "name": "_weeklyRate",
          "type": "uint256"
        }
      ],
      "name": "addReward",
      "outputs": [],
      "stateMutability": "nonpayable",
      "type": "function"
    },
    {
      "inputs": [],
      "name": "assetForPurchases",
      "outputs": [
        {
          "internalType": "address",
          "name": "",
          "type": "address"
        }
      ],
      "stateMutability": "view",
      "type": "function"
    },
    {
      "inputs": [
        {
          "internalType": "address",
          "name": "",
          "type": "address"
        }
      ],
      "name": "assetToCToken",
      "outputs": [
        {
          "internalType": "address",
          "name": "",
          "type": "address"
        }
      ],
      "stateMutability": "view",
      "type": "function"
    },
    {
      "inputs": [],
      "name": "assetToLend",
      "outputs": [
        {
          "internalType": "address",
          "name": "",
          "type": "address"
        }
      ],
      "stateMutability": "view",
      "type": "function"
    },
    {
      "inputs": [],
      "name": "bablRewardLeft",
      "outputs": [
        {
          "internalType": "uint256",
          "name": "",
          "type": "uint256"
        }
      ],
      "stateMutability": "view",
      "type": "function"
    },
    {
      "inputs": [
        {
          "internalType": "address",
          "name": "_assetToBorrow",
          "type": "address"
        },
        {
          "internalType": "uint256",
          "name": "_borrowAmount",
          "type": "uint256"
        }
      ],
      "name": "borrowFusePool",
      "outputs": [],
      "stateMutability": "nonpayable",
      "type": "function"
    },
    {
      "inputs": [
        {
          "internalType": "uint256",
          "name": "",
          "type": "uint256"
        }
      ],
      "name": "feeDistributionWeights",
      "outputs": [
        {
          "internalType": "uint256",
          "name": "",
          "type": "uint256"
        }
      ],
      "stateMutability": "view",
      "type": "function"
    },
    {
      "inputs": [
        {
          "internalType": "uint256",
          "name": "",
          "type": "uint256"
        }
      ],
      "name": "gardenWeights",
      "outputs": [
        {
          "internalType": "uint256",
          "name": "",
          "type": "uint256"
        }
      ],
      "stateMutability": "view",
      "type": "function"
    },
    {
      "inputs": [],
      "name": "getFeeDistributionWeights",
      "outputs": [
        {
          "internalType": "uint256[]",
          "name": "",
          "type": "uint256[]"
        }
      ],
      "stateMutability": "view",
      "type": "function"
    },
    {
      "inputs": [],
      "name": "getGardenWeights",
      "outputs": [
        {
          "internalType": "uint256[]",
          "name": "",
          "type": "uint256[]"
        }
      ],
      "stateMutability": "view",
      "type": "function"
    },
    {
      "inputs": [],
      "name": "getTotalStats",
      "outputs": [
        {
          "internalType": "uint256[7]",
          "name": "",
          "type": "uint256[7]"
        }
      ],
      "stateMutability": "view",
      "type": "function"
    },
    {
      "inputs": [],
      "name": "getVotedGardens",
      "outputs": [
        {
          "internalType": "address[]",
          "name": "",
          "type": "address[]"
        }
      ],
      "stateMutability": "view",
      "type": "function"
    },
    {
      "inputs": [],
      "name": "heartGarden",
      "outputs": [
        {
          "internalType": "contract IGarden",
          "name": "",
          "type": "address"
        }
      ],
      "stateMutability": "view",
      "type": "function"
    },
    {
      "inputs": [
        {
          "internalType": "uint256[]",
          "name": "_feeWeights",
          "type": "uint256[]"
        }
      ],
      "name": "initialize",
      "outputs": [],
      "stateMutability": "nonpayable",
      "type": "function"
    },
    {
      "inputs": [],
      "name": "lastPumpAt",
      "outputs": [
        {
          "internalType": "uint256",
          "name": "",
          "type": "uint256"
        }
      ],
      "stateMutability": "view",
      "type": "function"
    },
    {
      "inputs": [],
      "name": "lastVotesAt",
      "outputs": [
        {
          "internalType": "uint256",
          "name": "",
          "type": "uint256"
        }
      ],
      "stateMutability": "view",
      "type": "function"
    },
    {
      "inputs": [
        {
          "internalType": "address",
          "name": "_assetToLend",
          "type": "address"
        },
        {
          "internalType": "uint256",
          "name": "_lendAmount",
          "type": "uint256"
        }
      ],
      "name": "lendFusePool",
      "outputs": [],
      "stateMutability": "nonpayable",
      "type": "function"
    },
    {
      "inputs": [
        {
          "internalType": "address",
          "name": "",
          "type": "address"
        }
      ],
      "name": "minAmounts",
      "outputs": [
        {
          "internalType": "uint256",
          "name": "",
          "type": "uint256"
        }
      ],
      "stateMutability": "view",
      "type": "function"
    },
    {
      "inputs": [],
      "name": "owner",
      "outputs": [
        {
          "internalType": "address",
          "name": "",
          "type": "address"
        }
      ],
      "stateMutability": "view",
      "type": "function"
    },
    {
      "inputs": [],
      "name": "pump",
      "outputs": [],
      "stateMutability": "nonpayable",
      "type": "function"
    },
    {
      "inputs": [],
      "name": "renounceOwnership",
      "outputs": [],
      "stateMutability": "nonpayable",
      "type": "function"
    },
    {
      "inputs": [
        {
          "internalType": "address",
          "name": "_borrowedAsset",
          "type": "address"
        },
        {
          "internalType": "uint256",
          "name": "_amountToRepay",
          "type": "uint256"
        }
      ],
      "name": "repayFusePool",
      "outputs": [],
      "stateMutability": "nonpayable",
      "type": "function"
    },
    {
      "inputs": [
        {
          "internalType": "address[]",
          "name": "_gardens",
          "type": "address[]"
        },
        {
          "internalType": "uint256[]",
          "name": "_weights",
          "type": "uint256[]"
        }
      ],
      "name": "resolveGardenVotes",
      "outputs": [],
      "stateMutability": "nonpayable",
      "type": "function"
    },
    {
      "inputs": [
        {
          "internalType": "address[]",
          "name": "_gardens",
          "type": "address[]"
        },
        {
          "internalType": "uint256[]",
          "name": "_weights",
          "type": "uint256[]"
        }
      ],
      "name": "resolveGardenVotesAndPump",
      "outputs": [],
      "stateMutability": "nonpayable",
      "type": "function"
    },
    {
      "inputs": [
        {
          "internalType": "address",
          "name": "_assetToSell",
          "type": "address"
        },
        {
          "internalType": "uint256",
          "name": "_amountToSell",
          "type": "uint256"
        }
      ],
      "name": "sellWantedAssetToHeart",
      "outputs": [],
      "stateMutability": "nonpayable",
      "type": "function"
    },
    {
      "inputs": [
        {
          "internalType": "address",
          "name": "_heartGarden",
          "type": "address"
        }
      ],
      "name": "setHeartGardenAddress",
      "outputs": [],
      "stateMutability": "nonpayable",
      "type": "function"
    },
    {
      "inputs": [
        {
          "internalType": "address",
          "name": "_asset",
          "type": "address"
        },
        {
          "internalType": "uint256",
          "name": "_minAmount",
          "type": "uint256"
        }
      ],
      "name": "setMinTradeAmount",
      "outputs": [],
      "stateMutability": "nonpayable",
      "type": "function"
    },
    {
      "inputs": [
        {
          "internalType": "uint256",
          "name": "_tradeSlippage",
          "type": "uint256"
        }
      ],
      "name": "setTradeSlippage",
      "outputs": [],
      "stateMutability": "nonpayable",
      "type": "function"
    },
    {
      "inputs": [
        {
          "internalType": "uint256",
          "name": "",
          "type": "uint256"
        }
      ],
      "name": "totalStats",
      "outputs": [
        {
          "internalType": "uint256",
          "name": "",
          "type": "uint256"
        }
      ],
      "stateMutability": "view",
      "type": "function"
    },
    {
      "inputs": [
        {
          "internalType": "address",
          "name": "_fromAsset",
          "type": "address"
        },
        {
          "internalType": "address",
          "name": "_toAsset",
          "type": "address"
        },
        {
          "internalType": "uint256",
          "name": "_fromAmount",
          "type": "uint256"
        },
        {
          "internalType": "uint256",
          "name": "_minAmount",
          "type": "uint256"
        }
      ],
      "name": "trade",
      "outputs": [],
      "stateMutability": "nonpayable",
      "type": "function"
    },
    {
      "inputs": [],
      "name": "tradeSlippage",
      "outputs": [
        {
          "internalType": "uint256",
          "name": "",
          "type": "uint256"
        }
      ],
      "stateMutability": "view",
      "type": "function"
    },
    {
      "inputs": [
        {
          "internalType": "address",
          "name": "newOwner",
          "type": "address"
        }
      ],
      "name": "transferOwnership",
      "outputs": [],
      "stateMutability": "nonpayable",
      "type": "function"
    },
    {
      "inputs": [
        {
          "internalType": "address",
          "name": "_assetToLend",
          "type": "address"
        }
      ],
      "name": "updateAssetToLend",
      "outputs": [],
      "stateMutability": "nonpayable",
      "type": "function"
    },
    {
      "inputs": [
        {
          "internalType": "address",
          "name": "_purchaseAsset",
          "type": "address"
        }
      ],
      "name": "updateAssetToPurchase",
      "outputs": [],
      "stateMutability": "nonpayable",
      "type": "function"
    },
    {
      "inputs": [
        {
          "internalType": "uint256[]",
          "name": "_feeWeights",
          "type": "uint256[]"
        }
      ],
      "name": "updateFeeWeights",
      "outputs": [],
      "stateMutability": "nonpayable",
      "type": "function"
    },
    {
      "inputs": [],
      "name": "updateMarkets",
      "outputs": [],
      "stateMutability": "nonpayable",
      "type": "function"
    },
    {
      "inputs": [
        {
          "internalType": "uint256",
          "name": "_proposalId",
          "type": "uint256"
        },
        {
          "internalType": "bool",
          "name": "_isApprove",
          "type": "bool"
        }
      ],
      "name": "voteProposal",
      "outputs": [],
      "stateMutability": "nonpayable",
      "type": "function"
    },
    {
      "inputs": [
        {
          "internalType": "uint256",
          "name": "",
          "type": "uint256"
        }
      ],
      "name": "votedGardens",
      "outputs": [
        {
          "internalType": "address",
          "name": "",
          "type": "address"
        }
      ],
      "stateMutability": "view",
      "type": "function"
    },
    {
      "inputs": [],
      "name": "weeklyRewardAmount",
      "outputs": [
        {
          "internalType": "uint256",
          "name": "",
          "type": "uint256"
        }
      ],
      "stateMutability": "view",
      "type": "function"
    },
    {
      "stateMutability": "payable",
      "type": "receive"
    }
  ],
  "transactionHash": "0x6fac6ca16b1956d2f760b272215f130585e56892c5623cfe3daf7986f5792c12",
  "args": [
    "0xD4a5b5fcB561dAF3aDF86F8477555B92FBa43b5F",
    "0xBEC3de5b14902C660Bd2C7EfD2F259998424cc24"
  ],
  "numDeployments": 1,
  "solcInputHash": "ae381cea49743c4b85f0022eb6725094",
  "bytecode": "0x60e06040523480156200001157600080fd5b506040516200519138038062005191833981016040819052620000349162000279565b60005482908290610100900460ff168062000054575062000054620001c7565b8062000063575060005460ff16155b620000a05760405162461bcd60e51b815260040180806020018281038252602e81526020018062005163602e913960400191505060405180910390fd5b600054610100900460ff16158015620000cc576000805460ff1961ff0019909116610100171660011790555b620000e46001600160a01b03841615156017620001e5565b620000fc6001600160a01b03831615156017620001e5565b826001600160a01b03166080816001600160a01b031660601b81525050826001600160a01b03166361d027b36040518163ffffffff1660e01b815260040160206040518083038186803b1580156200015357600080fd5b505afa15801562000168573d6000803e3d6000fd5b505050506040513d601f19601f820116820180604052508101906200018e919062000253565b6001600160601b0319606091821b811660c0529083901b1660a0528015620001bc576000805461ff00191690555b5050505050620002d0565b6000620001df30620001fa60201b62001f011760201c565b15905090565b81620001f657620001f68162000200565b5050565b3b151590565b62461bcd60e51b6000908152602060045260076024526642414223000030600a808404818106603090810160081b95839006959095019082900491820690940160101b939093010160c81b604452606490fd5b60006020828403121562000265578081fd5b81516200027281620002b7565b9392505050565b600080604083850312156200028c578081fd5b82516200029981620002b7565b6020840151909250620002ac81620002b7565b809150509250929050565b6001600160a01b0381168114620002cd57600080fd5b50565b60805160601c60a05160601c60c05160601c614dea6200037960003980610c9252806125175280612745528061280f52806128b752806129835250806115505250806108945280610a1c5280610dfc5280610e4a5280610ee3528061103e528061107f5280611100528061144152806114f7528061165c52806118fc5280611ad95280611b8f5280611c5c5280611f3b52806121165280612ec652806131c75250614dea6000f3fe6080604052600436106102a45760003560e01c8063715018a61161016e578063bd59c9b0116100cb578063dac5a9951161007f578063f2fde38b11610064578063f2fde38b146106ca578063f30fd020146106ea578063fc5cbf1d1461070a576102ab565b8063dac5a99514610695578063ed63f919146106aa576102ab565b8063cddb7148116100b0578063cddb71481461064b578063cfd2dc9914610660578063d9cf443b14610675576102ab565b8063bd59c9b01461060b578063bd61d4fd1461062b576102ab565b8063a25db51611610122578063a775efa511610107578063a775efa5146105b6578063b1beb88d146105cb578063bcfb9b61146105eb576102ab565b8063a25db51614610581578063a350fe07146105a1576102ab565b806375c93bb91161015357806375c93bb91461052c5780638da5cb5b1461054c5780639c5e52d514610561576102ab565b8063715018a614610502578063730fa8c414610517576102ab565b806340e016501161021c57806361cab712116101d057806365f7f648116101b557806365f7f648146104b85780636be2f267146104cd5780636fe0e559146104e2576102ab565b806361cab7121461047857806362f0e8dc14610498576102ab565b80634849b6c8116102015780634849b6c814610416578063564e4bab146104365780635acaaef314610458576102ab565b806340e01650146103d657806343fce074146103f6576102ab565b80633550bd6211610273578063394abf4511610258578063394abf451461038a578063395ea61b146103ac5780633f1ee167146103c1576102ab565b80633550bd621461033d57806335d10b611461036a576102ab565b8063081ab4c2146102b057806308de5fc6146102db5780631091ea8f146102fd57806319c920941461031d576102ab565b366102ab57005b600080fd5b3480156102bc57600080fd5b506102c561072c565b6040516102d291906148b2565b60405180910390f35b3480156102e757600080fd5b506102fb6102f6366004614503565b61078e565b005b34801561030957600080fd5b506102fb61031836600461443f565b61088f565b34801561032957600080fd5b506102fb61033836600461443f565b610a17565b34801561034957600080fd5b5061035d6103583660046143c2565b610b35565b6040516102d29190614843565b34801561037657600080fd5b5061035d6103853660046146f9565b610b50565b34801561039657600080fd5b5061039f610b7a565b6040516102d29190614c0c565b3480156103b857600080fd5b506102fb610b80565b3480156103cd57600080fd5b5061035d610de8565b3480156103e257600080fd5b506102fb6103f136600461443f565b610df7565b34801561040257600080fd5b506102fb6104113660046143c2565b610e45565b34801561042257600080fd5b506102fb6104313660046143fa565b610ede565b34801561044257600080fd5b5061044b610fe2565b6040516102d29190614930565b34801561046457600080fd5b506102fb61047336600461443f565b611039565b34801561048457600080fd5b506102fb6104933660046145c3565b61107a565b3480156104a457600080fd5b506102fb6104b33660046146f9565b6110fb565b3480156104c457600080fd5b5061035d611132565b3480156104d957600080fd5b5061035d611141565b3480156104ee57600080fd5b506102fb6104fd3660046145c3565b611150565b34801561050e57600080fd5b506102fb611378565b34801561052357600080fd5b5061039f611436565b34801561053857600080fd5b506102fb610547366004614758565b61143c565b34801561055857600080fd5b5061035d6114a4565b34801561056d57600080fd5b5061039f61057c3660046143c2565b6114b3565b34801561058d57600080fd5b5061039f61059c3660046146f9565b6114c5565b3480156105ad57600080fd5b5061039f6114e6565b3480156105c257600080fd5b5061039f6114ec565b3480156105d757600080fd5b506102fb6105e63660046143c2565b6114f2565b3480156105f757600080fd5b506102fb610606366004614729565b611546565b34801561061757600080fd5b5061039f6106263660046146f9565b611630565b34801561063757600080fd5b5061039f6106463660046146f9565b611647565b34801561065757600080fd5b506102fb611657565b34801561066c57600080fd5b5061044b6118a1565b34801561068157600080fd5b506102fb6106903660046143c2565b6118f7565b3480156106a157600080fd5b5061039f61197c565b3480156106b657600080fd5b506102fb6106c5366004614503565b611982565b3480156106d657600080fd5b506102fb6106e53660046143c2565b611994565b3480156106f657600080fd5b506102fb61070536600461443f565b611aa9565b34801561071657600080fd5b5061071f611ecb565b6040516102d291906148ff565b6060606680548060200260200160405190810160405280929190818152602001828054801561078457602002820191906000526020600020905b81546001600160a01b03168152600190910190602001808311610766575b5050505050905090565b610796611f07565b6107a581518351146070611fc9565b6107b160666000614301565b6107bd60676000614301565b60005b825181101561084e5760668382815181106107d757fe5b60209081029190910181015182546001810184556000938452919092200180546001600160a01b0319166001600160a01b03909216919091179055815160679083908390811061082357fe5b60209081029190910181015182546001818101855560009485529290932090920191909155016107c0565b5042606c8190556040517f39dc56f5c791d35313f12a8053a1cb6e24fdc18a55184d2f9f3dc00de3522f8b9161088391614c0c565b60405180910390a15050565b6108c17f00000000000000000000000000000000000000000000000000000000000000006001600160a01b0316611fd7565b6001600160a01b038083166000818152606960205260409081902054905163095ea7b360e01b815292169163095ea7b3906109029084908690600401614899565b602060405180830381600087803b15801561091c57600080fd5b505af1158015610930573d6000803e3d6000fd5b505050506040513d601f19601f8201168201806040525081019061095491906146b6565b506040517f0e7527020000000000000000000000000000000000000000000000000000000081526001600160a01b03821690630e7527029061099a908590600401614c0c565b602060405180830381600087803b1580156109b457600080fd5b505af11580156109c8573d6000803e3d6000fd5b505050506040513d601f19601f820116820180604052508101906109ec9190614711565b15610a125760405162461bcd60e51b8152600401610a0990614a0d565b60405180910390fd5b505050565b610a497f00000000000000000000000000000000000000000000000000000000000000006001600160a01b0316611fd7565b6001600160a01b038083166000908152606960205260409020541680610a815760405162461bcd60e51b8152600401610a099061499f565b6040517fc5ebeaec0000000000000000000000000000000000000000000000000000000081526001600160a01b0382169063c5ebeaec90610ac6908590600401614c0c565b602060405180830381600087803b158015610ae057600080fd5b505af1158015610af4573d6000803e3d6000fd5b505050506040513d601f19601f82011682018060405250810190610b189190614711565b15610a125760405162461bcd60e51b8152600401610a0990614b46565b6069602052600090815260409020546001600160a01b031681565b60668181548110610b6057600080fd5b6000918252602090912001546001600160a01b0316905081565b606b5481565b606554610b99906001600160a01b031615156073611fc9565b610bbe62093a80610bb5606b54426120fc90919063ffffffff16565b1015606d611fc9565b610be262093a80610bda606c54426120fc90919063ffffffff16565b10606e611fc9565b610bea612112565b6040516370a0823160e01b815260009073c02aaa39b223fe8d0a0e5c4f27ead9083c756cc2906370a0823190610c24903090600401614843565b60206040518083038186803b158015610c3c57600080fd5b505afa158015610c50573d6000803e3d6000fd5b505050506040513d601f19601f82011682018060405250810190610c749190614711565b9050610c8c6729a2241af62c0000821015606f611fc9565b610cf9307f0000000000000000000000000000000000000000000000000000000000000000610cdc606f600081548110610cc257fe5b9060005260206000200154856123f590919063ffffffff16565b73c02aaa39b223fe8d0a0e5c4f27ead9083c756cc292919061241a565b610d34610d27606f600081548110610d0d57fe5b9060005260206000200154836123f590919063ffffffff16565b607060015b015490612493565b607155606f8054610d5391610d4e916001908110610d0d57fe5b6124a3565b610d6c610d67606f600281548110610d0d57fe5b612585565b610d85610d80606f600381548110610d0d57fe5b612a4f565b610dd973c02aaa39b223fe8d0a0e5c4f27ead9083c756cc2610dc8606f600481548110610dae57fe5b9060005260206000200154846123f590919063ffffffff16565b606a546001600160a01b0316612c4b565b610de1613054565b5042606b55565b6078546001600160a01b031681565b610e297f00000000000000000000000000000000000000000000000000000000000000006001600160a01b0316611fd7565b6001600160a01b03909116600090815260686020526040902055565b610e777f00000000000000000000000000000000000000000000000000000000000000006001600160a01b0316611fd7565b606a54610e94906001600160a01b03838116911614156074611fc9565b6001600160a01b03818116600090815260696020526040902054610ebc911615156072611fc9565b606a80546001600160a01b0319166001600160a01b0392909216919091179055565b610f107f00000000000000000000000000000000000000000000000000000000000000006001600160a01b0316611fd7565b6040516370a0823160e01b815282906001600160a01b038616906370a0823190610f3e903090600401614843565b60206040518083038186803b158015610f5657600080fd5b505afa158015610f6a573d6000803e3d6000fd5b505050506040513d601f19601f82011682018060405250810190610f8e9190614711565b1015610fac5760405162461bcd60e51b8152600401610a0990614968565b6000610fb98585856131a0565b905081811015610fdb5760405162461bcd60e51b8152600401610a0990614ab2565b5050505050565b6060606f80548060200260200160405190810160405280929190818152602001828054801561078457602002820191906000526020600020905b81548152602001906001019080831161101c575050505050905090565b61106b7f00000000000000000000000000000000000000000000000000000000000000006001600160a01b0316611fd7565b611076828284612c4b565b5050565b6110ac7f00000000000000000000000000000000000000000000000000000000000000006001600160a01b0316611fd7565b6110b8606f6000614301565b60005b81811015610a1257606f8383838181106110d157fe5b835460018082018655600095865260209586902092909502939093013592019190915550016110bb565b61112d7f00000000000000000000000000000000000000000000000000000000000000006001600160a01b0316611fd7565b607755565b6065546001600160a01b031681565b606a546001600160a01b031681565b600054610100900460ff1680611169575061116961353f565b80611177575060005460ff16155b6111b25760405162461bcd60e51b815260040180806020018281038252602e815260200180614d33602e913960400191505060405180910390fd5b600054610100900460ff161580156111dd576000805460ff1961ff0019909116610100171660011790555b6111e5613550565b6111ef838361107a565b6111f7611657565b611214736b175474e89094c44da98b954eedeac495271d0f610e45565b6068602052681b1ae4d6e2ef5000007f4d158bbfd95ee9a2dbb8c3a636c573b20dcaba9e72bb743c844cbd959c77df4a55631dcd65007fd98c4d2a11233789190aab6ba2d225b6bda4b59c2917636996ecacff26f3e69f556706f05b59d3b200007fccdc1587d0c86316e8986de7a983e28b085ec139bbb38b23b4194aea13c3886c55732260fac5e5542a773aa44fbcfedf7c193bc2c599600052622dc6c07fbb3572ea0c5a0fdc48a9bbcbc231cf5f7e7ec4ba06bf0dd23084ade8b950a16e556040517f5c19a95c00000000000000000000000000000000000000000000000000000000815273f4dc48d260c93ad6a96c5ce563e70ca578987c7490635c19a95c90611325903090600401614843565b600060405180830381600087803b15801561133f57600080fd5b505af1158015611353573d6000803e3d6000fd5b50506658d15e1762800060775550508015610a12576000805461ff0019169055505050565b611380613601565b6001600160a01b03166113916114a4565b6001600160a01b0316146113ec576040805162461bcd60e51b815260206004820181905260248201527f4f776e61626c653a2063616c6c6572206973206e6f7420746865206f776e6572604482015290519081900360640190fd5b6033546040516000916001600160a01b0316907f8be0079c531659141344cd1fd0a4f28419497f9722a3daafe3b4186f6b6457e0908390a3603380546001600160a01b0319169055565b606c5481565b61146e7f00000000000000000000000000000000000000000000000000000000000000006001600160a01b0316611fd7565b61148e73f4dc48d260c93ad6a96c5ce563e70ca578987c7433308561241a565b606e5461149b9083612493565b606e55606d5550565b6033546001600160a01b031690565b60686020526000908152604090205481565b606781815481106114d557600080fd5b600091825260209091200154905081565b60775481565b606e5481565b6115247f00000000000000000000000000000000000000000000000000000000000000006001600160a01b0316611fd7565b606580546001600160a01b0319166001600160a01b0392909216919091179055565b61154e611f07565b7f00000000000000000000000000000000000000000000000000000000000000006001600160a01b03166356781388838361158a57600061158d565b60015b6040518363ffffffff1660e01b81526004016115aa929190614c70565b602060405180830381600087803b1580156115c457600080fd5b505af11580156115d8573d6000803e3d6000fd5b505050506040513d601f19601f820116820180604052508101906115fc9190614711565b507fefa00395b2e0ff3ae4ff4742ac3a68646612107e164ca54a2b88dcc983f7252142838360405161088393929190614c42565b6070816007811061164057600080fd5b0154905081565b606f81815481106114d557600080fd5b6116897f00000000000000000000000000000000000000000000000000000000000000006001600160a01b0316611fd7565b600073c7125e3a2925877c7371d579d29dae4729ac90336001600160a01b031663b0772d0b6040518163ffffffff1660e01b815260040160006040518083038186803b1580156116d857600080fd5b505afa1580156116ec573d6000803e3d6000fd5b505050506040513d6000823e601f3d908101601f19168201604052611714919081019061446a565b905060005b81518110156117fa57600082828151811061173057fe5b60200260200101516001600160a01b0316636f307dc36040518163ffffffff1660e01b815260040160206040518083038186803b15801561177057600080fd5b505afa158015611784573d6000803e3d6000fd5b505050506040513d601f19601f820116820180604052508101906117a891906143de565b90508282815181106117b657fe5b6020908102919091018101516001600160a01b0392831660009081526069909252604090912080546001600160a01b03191692909116919091179055600101611719565b506040517fc299823800000000000000000000000000000000000000000000000000000000815273c7125e3a2925877c7371d579d29dae4729ac90339063c29982389061184b9084906004016148b2565b600060405180830381600087803b15801561186557600080fd5b505af1158015611879573d6000803e3d6000fd5b505050506040513d6000823e601f3d908101601f191682016040526110769190810190614632565b60606067805480602002602001604051908101604052809291908181526020018280548015610784576020028201919060005260206000209081548152602001906001019080831161101c575050505050905090565b6119297f00000000000000000000000000000000000000000000000000000000000000006001600160a01b0316611fd7565b60785461195a906001600160a01b0383811691161480159061195357506001600160a01b03821615155b6077611fc9565b607880546001600160a01b0319166001600160a01b0392909216919091179055565b606d5481565b61198c828261078e565b611076610b80565b61199c613601565b6001600160a01b03166119ad6114a4565b6001600160a01b031614611a08576040805162461bcd60e51b815260206004820181905260248201527f4f776e61626c653a2063616c6c6572206973206e6f7420746865206f776e6572604482015290519081900360640190fd5b6001600160a01b038116611a4d5760405162461bcd60e51b8152600401808060200182810382526026815260200180614ce76026913960400191505060405180910390fd5b6033546040516001600160a01b038084169216907f8be0079c531659141344cd1fd0a4f28419497f9722a3daafe3b4186f6b6457e090600090a3603380546001600160a01b0319166001600160a01b0392909216919091179055565b6040517f13bc6d4b0000000000000000000000000000000000000000000000000000000081526001600160a01b037f000000000000000000000000000000000000000000000000000000000000000016906313bc6d4b90611b0e903390600401614843565b60206040518083038186803b158015611b2657600080fd5b505afa158015611b3a573d6000803e3d6000fd5b505050506040513d601f19601f82011682018060405250810190611b5e91906146b6565b506040517fb3af17430000000000000000000000000000000000000000000000000000000081526001600160a01b037f0000000000000000000000000000000000000000000000000000000000000000169063b3af174390611bc4908590600401614843565b60206040518083038186803b158015611bdc57600080fd5b505afa158015611bf0573d6000803e3d6000fd5b505050506040513d601f19601f82011682018060405250810190611c1491906146b6565b611c305760405162461bcd60e51b8152600401610a0990614a7b565b6078546001600160a01b0316611c585760405162461bcd60e51b8152600401610a09906149d6565b60007f00000000000000000000000000000000000000000000000000000000000000006001600160a01b0316632630c12f6040518163ffffffff1660e01b815260040160206040518083038186803b158015611cb357600080fd5b505afa158015611cc7573d6000803e3d6000fd5b505050506040513d601f19601f82011682018060405250810190611ceb91906143de565b6078546040517fac41865a0000000000000000000000000000000000000000000000000000000081526001600160a01b039283169263ac41865a92611d3892889290911690600401614857565b60206040518083038186803b158015611d5057600080fd5b505afa158015611d64573d6000803e3d6000fd5b505050506040513d601f19601f82011682018060405250810190611d889190614711565b905080611da75760405162461bcd60e51b8152600401610a0990614a44565b6000611db382846123f5565b6078546040516370a0823160e01b815291925082916001600160a01b03909116906370a0823190611de8903090600401614843565b60206040518083038186803b158015611e0057600080fd5b505afa158015611e14573d6000803e3d6000fd5b505050506040513d601f19601f82011682018060405250810190611e389190614711565b1015611e565760405162461bcd60e51b8152600401610a0990614ae9565b611e6b6001600160a01b03851633308661241a565b607854600090611eaa906001600160a01b031673c02aaa39b223fe8d0a0e5c4f27ead9083c756cc2611ea585670e043da6172500006123f5565b6131a0565b9050610fdb73c02aaa39b223fe8d0a0e5c4f27ead9083c756cc23383613605565b611ed361431f565b6040805160e0810191829052607080548252909160079060716020850180831161101c575050505050905090565b3b151590565b6040517f411137c3000000000000000000000000000000000000000000000000000000008152611fc7906001600160a01b037f0000000000000000000000000000000000000000000000000000000000000000169063411137c390611f70903390600401614843565b60206040518083038186803b158015611f8857600080fd5b505afa158015611f9c573d6000803e3d6000fd5b505050506040513d601f19601f82011682018060405250810190611fc091906146b6565b6012611fc9565b565b816110765761107681613670565b806001600160a01b0316638da5cb5b6040518163ffffffff1660e01b815260040160206040518083038186803b15801561201057600080fd5b505afa158015612024573d6000803e3d6000fd5b505050506040513d602081101561203a57600080fd5b50516001600160a01b03163314806120be5750806001600160a01b0316638d97e0436040518163ffffffff1660e01b815260040160206040518083038186803b15801561208657600080fd5b505afa15801561209a573d6000803e3d6000fd5b505050506040513d60208110156120b057600080fd5b50516001600160a01b031633145b6120f95760405162461bcd60e51b815260040180806020018281038252602a815260200180614d61602a913960400191505060405180910390fd5b50565b8082038281111561210c57600080fd5b92915050565b60007f00000000000000000000000000000000000000000000000000000000000000006001600160a01b031663bc819ea66040518163ffffffff1660e01b815260040160006040518083038186803b15801561216d57600080fd5b505afa158015612181573d6000803e3d6000fd5b505050506040513d6000823e601f3d908101601f191682016040526121a9919081019061446a565b905060005b81518110156123305760008282815181106121c557fe5b602002602001015190506000816001600160a01b03166370a08231306040518263ffffffff1660e01b81526004016121fd9190614843565b60206040518083038186803b15801561221557600080fd5b505afa158015612229573d6000803e3d6000fd5b505050506040513d601f19601f8201168201806040525081019061224d9190614711565b90506001600160a01b03821673f4dc48d260c93ad6a96c5ce563e70ca578987c741480159061229957506001600160a01b03821673c02aaa39b223fe8d0a0e5c4f27ead9083c756cc214155b80156122bc57506001600160a01b03821660009081526068602052604090205481115b156122f0576122ec6122e38373c02aaa39b223fe8d0a0e5c4f27ead9083c756cc2846131a0565b60706000610d2c565b6070555b6001600160a01b03821673c02aaa39b223fe8d0a0e5c4f27ead9083c756cc21415612326576123228160706000610d2c565b6070555b50506001016121ae565b506040516370a0823160e01b81527f49d512bf9cb224241c05691e73eb9fab078cf350c7dbcbcf66788f1fc0cc8b0b90429073c02aaa39b223fe8d0a0e5c4f27ead9083c756cc2906370a082319061238c903090600401614843565b60206040518083038186803b1580156123a457600080fd5b505afa1580156123b8573d6000803e3d6000fd5b505050506040513d601f19601f820116820180604052508101906123dc9190614711565b6040516123ea929190614c15565b60405180910390a150565b6000612413670de0b6b3a764000061240d85856136c3565b906136e7565b9392505050565b604080516001600160a01b0380861660248301528416604482015260648082018490528251808303909101815260849091019091526020810180516001600160e01b03167f23b872dd0000000000000000000000000000000000000000000000000000000017905261248d90859061374e565b50505050565b8082018281101561210c57600080fd5b60006124d873c02aaa39b223fe8d0a0e5c4f27ead9083c756cc273f4dc48d260c93ad6a96c5ce563e70ca578987c74846131a0565b606554909150612512906001600160a01b03166124f68360026136e7565b73f4dc48d260c93ad6a96c5ce563e70ca578987c749190613605565b6125417f00000000000000000000000000000000000000000000000000000000000000006124f68360026136e7565b61254e8160706002610d2c565b6072556040517fead6bc1fbe3e9483a6b9cb8433997e459522311151455ee2112877dc4daeb5599061088390429085908590614c5a565b6000612599826706f05b59d3b200006123f5565b905060006125d073c02aaa39b223fe8d0a0e5c4f27ead9083c756cc273f4dc48d260c93ad6a96c5ce563e70ca578987c74846131a0565b60405163095ea7b360e01b815290915073f4dc48d260c93ad6a96c5ce563e70ca578987c749063095ea7b3906126209073f19f91d7889668a533f14d076adc187be781a458908590600401614899565b602060405180830381600087803b15801561263a57600080fd5b505af115801561264e573d6000803e3d6000fd5b505050506040513d601f19601f8201168201806040525081019061267291906146b6565b5060405163095ea7b360e01b815273c02aaa39b223fe8d0a0e5c4f27ead9083c756cc29063095ea7b3906126c09073f19f91d7889668a533f14d076adc187be781a458908690600401614899565b602060405180830381600087803b1580156126da57600080fd5b505af11580156126ee573d6000803e3d6000fd5b505050506040513d601f19601f8201168201806040525081019061271291906146b6565b506040516370a0823160e01b815260009073f19f91d7889668a533f14d076adc187be781a458906370a082319061276d907f000000000000000000000000000000000000000000000000000000000000000090600401614843565b60206040518083038186803b15801561278557600080fd5b505afa158015612799573d6000803e3d6000fd5b505050506040513d601f19601f820116820180604052508101906127bd9190614711565b6040517f8dbdbe6d00000000000000000000000000000000000000000000000000000000815290915060009073f19f91d7889668a533f14d076adc187be781a45890638dbdbe6d9061283790879087907f000000000000000000000000000000000000000000000000000000000000000090600401614c23565b602060405180830381600087803b15801561285157600080fd5b505af1158015612865573d6000803e3d6000fd5b505050506040513d601f19601f820116820180604052508101906128899190614711565b9050612a046129488373f19f91d7889668a533f14d076adc187be781a4586001600160a01b03166370a082317f00000000000000000000000000000000000000000000000000000000000000006040518263ffffffff1660e01b81526004016128f29190614843565b60206040518083038186803b15801561290a57600080fd5b505afa15801561291e573d6000803e3d6000fd5b505050506040513d601f19601f820116820180604052508101906129429190614711565b906120fc565b821480156129fd57506040516370a0823160e01b815260009073f19f91d7889668a533f14d076adc187be781a458906370a08231906129ab907f000000000000000000000000000000000000000000000000000000000000000090600401614843565b60206040518083038186803b1580156129c357600080fd5b505afa1580156129d7573d6000803e3d6000fd5b505050506040513d601f19601f820116820180604052508101906129fb9190614711565b115b6071611fc9565b60738054860190556040517fd7f28048575eead8851d024ead087913957dfb4fd1a02b4d1573f5352a5a2be390612a4090429087908790614c5a565b60405180910390a15050505050565b60005b606654811015612c3f57600060668281548110612a6b57fe5b60009182526020918290200154604080517ff85cb5c800000000000000000000000000000000000000000000000000000000815290516001600160a01b039092169263f85cb5c892600480840193829003018186803b158015612acd57600080fd5b505afa158015612ae1573d6000803e3d6000fd5b505050506040513d601f19601f82011682018060405250810190612b0591906143de565b905060006001600160a01b03821673c02aaa39b223fe8d0a0e5c4f27ead9083c756cc214612b7757612b7073c02aaa39b223fe8d0a0e5c4f27ead9083c756cc283611ea560678781548110612b5657fe5b9060005260206000200154886123f590919063ffffffff16565b9050612b8a565b612b8760678481548110610cc257fe5b90505b612bb960668481548110612b9a57fe5b6000918252602090912001546001600160a01b03848116911683613605565b60668381548110612bc657fe5b9060005260206000200160009054906101000a90046001600160a01b03166001600160a01b03167f2eaf4a63a45c70f8c897bb4d267391aa5da44272b2c9eda3aa02a99111d06f3742612c1f60678781548110612b5657fe5b604051612c2d929190614c15565b60405180910390a25050600101612a52565b50607480549091019055565b6001600160a01b0380821660009081526069602052604090205416612c738115156075611fc9565b826001600160a01b0385811690841614612cbf57612cbc856001600160a01b03851615612ca05784612cb6565b73c02aaa39b223fe8d0a0e5c4f27ead9083c756cc25b866131a0565b90505b6001600160a01b038316612da8576040517f2e1a7d4d00000000000000000000000000000000000000000000000000000000815273c02aaa39b223fe8d0a0e5c4f27ead9083c756cc290632e1a7d4d90612d1d908790600401614c0c565b600060405180830381600087803b158015612d3757600080fd5b505af1158015612d4b573d6000803e3d6000fd5b50505050816001600160a01b0316631249c58b856040518263ffffffff1660e01b81526004016000604051808303818588803b158015612d8a57600080fd5b505af1158015612d9e573d6000803e3d6000fd5b5050505050612ec2565b60405163095ea7b360e01b81526001600160a01b0384169063095ea7b390612dd69085908590600401614899565b602060405180830381600087803b158015612df057600080fd5b505af1158015612e04573d6000803e3d6000fd5b505050506040513d601f19601f82011682018060405250810190612e2891906146b6565b506040517fa0712d680000000000000000000000000000000000000000000000000000000081526001600160a01b0383169063a0712d6890612e6e908490600401614c0c565b602060405180830381600087803b158015612e8857600080fd5b505af1158015612e9c573d6000803e3d6000fd5b505050506040513d601f19601f82011682018060405250810190612ec09190614711565b505b60007f00000000000000000000000000000000000000000000000000000000000000006001600160a01b0316632630c12f6040518163ffffffff1660e01b815260040160206040518083038186803b158015612f1d57600080fd5b505afa158015612f31573d6000803e3d6000fd5b505050506040513d601f19601f82011682018060405250810190612f5591906143de565b6001600160a01b031663ac41865a8573c02aaa39b223fe8d0a0e5c4f27ead9083c756cc26040518363ffffffff1660e01b8152600401612f96929190614857565b60206040518083038186803b158015612fae57600080fd5b505afa158015612fc2573d6000803e3d6000fd5b505050506040513d601f19601f82011682018060405250810190612fe69190614711565b90506000612ff483836123f5565b90506130038160706005610d2c565b6075556040516001600160a01b038616907f26ad8f0c19554f6771309e2ce6bbb81e1b4960161535735bd15845e4bbba29a7906130439042908590614c15565b60405180910390a250505050505050565b606e5415611fc7576000606d54606e541061307157606d54613075565b606e545b6040516370a0823160e01b815290915060009073f4dc48d260c93ad6a96c5ce563e70ca578987c74906370a08231906130b2903090600401614843565b60206040518083038186803b1580156130ca57600080fd5b505afa1580156130de573d6000803e3d6000fd5b505050506040513d601f19601f820116820180604052508101906131029190614711565b90508181106131115781613113565b805b6065549092506131429073f4dc48d260c93ad6a96c5ce563e70ca578987c74906001600160a01b031684613605565b606e5461314f90836120fc565b606e556040517fb04849741dcc54ec81be5b4974b53836c36df01b634e717f9d674ec7d30c4f38906131849042908590614c15565b60405180910390a16131998260706006610d2c565b6076555050565b6000826001600160a01b0316846001600160a01b031614156131c3575080612413565b60007f00000000000000000000000000000000000000000000000000000000000000006001600160a01b0316632630c12f6040518163ffffffff1660e01b815260040160206040518083038186803b15801561321e57600080fd5b505afa158015613232573d6000803e3d6000fd5b505050506040513d601f19601f8201168201806040525081019061325691906143de565b6001600160a01b031663ac41865a86866040518363ffffffff1660e01b8152600401613283929190614857565b60206040518083038186803b15801561329b57600080fd5b505afa1580156132af573d6000803e3d6000fd5b505050506040513d601f19601f820116820180604052508101906132d39190614711565b90506132e28115156062611fc9565b60006132f886866132f387866123f5565b6137ff565b9050600061331b613314607754846123f590919063ffffffff16565b83906120fc565b905073e592427a0aece92de3edee1f18e0157c0586156461333d8882886139c0565b60606001600160a01b03891673853d955acef822db058eb8505911ed77f175b99e14801561338857506001600160a01b038816736b175474e89094c44da98b954eedeac495271d0f14155b806133d757506001600160a01b03881673853d955acef822db058eb8505911ed77f175b99e1480156133d757506001600160a01b038916736b175474e89094c44da98b954eedeac495271d0f14155b1561343f57736b175474e89094c44da98b954eedeac495271d0f60006133fd8b83613b22565b9050600061340b8b84613b22565b90508b8284838e6040516020016134269594939291906147d9565b6040516020818303038152906040529350505050613475565b600061344b8a8a613b22565b905089818a60405160200161346293929190614786565b6040516020818303038152906040529150505b6040805160a0810182528281523060208201524281830152606081018990526080810185905290517fc04b8d590000000000000000000000000000000000000000000000000000000081526001600160a01b0384169063c04b8d59906134df908490600401614b7d565b602060405180830381600087803b1580156134f957600080fd5b505af115801561350d573d6000803e3d6000fd5b505050506040513d601f19601f820116820180604052508101906135319190614711565b9a9950505050505050505050565b600061354a30611f01565b15905090565b600054610100900460ff1680613569575061356961353f565b80613577575060005460ff16155b6135b25760405162461bcd60e51b815260040180806020018281038252602e815260200180614d33602e913960400191505060405180910390fd5b600054610100900460ff161580156135dd576000805460ff1961ff0019909116610100171660011790555b6135e5613f1c565b6135ed613fbc565b80156120f9576000805461ff001916905550565b3390565b604080516001600160a01b038416602482015260448082018490528251808303909101815260649091019091526020810180516001600160e01b03167fa9059cbb00000000000000000000000000000000000000000000000000000000179052610a1290849061374e565b62461bcd60e51b6000908152602060045260076024526642414223000030600a808404818106603090810160081b95839006959095019082900491820690940160101b939093010160c81b604452606490fd5b60008215806136de575050818102818382816136db57fe5b04145b61210c57600080fd5b600080821161373d576040805162461bcd60e51b815260206004820152601a60248201527f536166654d6174683a206469766973696f6e206279207a65726f000000000000604482015290519081900360640190fd5b81838161374657fe5b049392505050565b60006137a3826040518060400160405280602081526020017f5361666545524332303a206c6f772d6c6576656c2063616c6c206661696c6564815250856001600160a01b03166140b59092919063ffffffff16565b805190915015610a12578080602001905160208110156137c257600080fd5b5051610a125760405162461bcd60e51b815260040180806020018281038252602a815260200180614d8b602a913960400191505060405180910390fd5b60008061380b856140cc565b61387957846001600160a01b031663313ce5676040518163ffffffff1660e01b815260040160206040518083038186803b15801561384857600080fd5b505afa15801561385c573d6000803e3d6000fd5b505050506040513d602081101561387257600080fd5b505161387c565b60125b60ff169050600061388c856140cc565b6138fa57846001600160a01b031663313ce5676040518163ffffffff1660e01b815260040160206040518083038186803b1580156138c957600080fd5b505afa1580156138dd573d6000803e3d6000fd5b505050506040513d60208110156138f357600080fd5b50516138fd565b60125b60ff16905060128211158015613914575060128111155b613965576040805162461bcd60e51b815260206004820152601460248201527f556e737570706f7274656420646563696d616c73000000000000000000000000604482015290519081900360640190fd5b80821415613977578392505050612413565b8181111561399f5761399661398c82846120fc565b8590600a0a6136c3565b92505050612413565b6139b66139ac83836120fc565b8590600a0a6136e7565b9695505050505050565b604080516001600160a01b038481166024830152604480830185905283518084039091018152606490920183526020820180516001600160e01b031663095ea7b360e01b1781529251825160009485949389169392918291908083835b60208310613a3c5780518252601f199092019160209182019101613a1d565b6001836020036101000a0380198251168184511680821785525050505050509050019150506000604051808303816000865af19150503d8060008114613a9e576040519150601f19603f3d011682016040523d82523d6000602084013e613aa3565b606091505b5091509150818015613ad1575080511580613ad15750808060200190516020811015613ace57600080fd5b50515b610fdb576040805162461bcd60e51b815260206004820152600260248201527f5341000000000000000000000000000000000000000000000000000000000000604482015290519081900360640190fd5b604051630b4c774160e11b81526000908190731f98431c8ad98523631ae4a59f267346ea31f98490631698ee8290613b6490879087906101f490600401614871565b60206040518083038186803b158015613b7c57600080fd5b505afa158015613b90573d6000803e3d6000fd5b505050506040513d601f19601f82011682018060405250810190613bb491906143de565b604051630b4c774160e11b8152909150600090731f98431c8ad98523631ae4a59f267346ea31f98490631698ee8290613bf79088908890610bb890600401614871565b60206040518083038186803b158015613c0f57600080fd5b505afa158015613c23573d6000803e3d6000fd5b505050506040513d601f19601f82011682018060405250810190613c4791906143de565b604051630b4c774160e11b8152909150600090731f98431c8ad98523631ae4a59f267346ea31f98490631698ee8290613c8a908990899061271090600401614871565b60206040518083038186803b158015613ca257600080fd5b505afa158015613cb6573d6000803e3d6000fd5b505050506040513d601f19601f82011682018060405250810190613cda91906143de565b905060006001600160a01b038416613cf3576000613d64565b836001600160a01b0316631a6865026040518163ffffffff1660e01b815260040160206040518083038186803b158015613d2c57600080fd5b505afa158015613d40573d6000803e3d6000fd5b505050506040513d601f19601f82011682018060405250810190613d6491906146d2565b905060006001600160a01b038416613d7d576000613dee565b836001600160a01b0316631a6865026040518163ffffffff1660e01b815260040160206040518083038186803b158015613db657600080fd5b505afa158015613dca573d6000803e3d6000fd5b505050506040513d601f19601f82011682018060405250810190613dee91906146d2565b905060006001600160a01b038416613e07576000613e78565b836001600160a01b0316631a6865026040518163ffffffff1660e01b815260040160206040518083038186803b158015613e4057600080fd5b505afa158015613e54573d6000803e3d6000fd5b505050506040513d601f19601f82011682018060405250810190613e7891906146d2565b9050816001600160801b0316836001600160801b031610158015613eae5750806001600160801b0316836001600160801b031610155b15613ec3576101f4965050505050505061210c565b826001600160801b0316826001600160801b031610158015613ef75750806001600160801b0316826001600160801b031610155b15613f0c57610bb8965050505050505061210c565b5061271098975050505050505050565b600054610100900460ff1680613f355750613f3561353f565b80613f43575060005460ff16155b613f7e5760405162461bcd60e51b815260040180806020018281038252602e815260200180614d33602e913960400191505060405180910390fd5b600054610100900460ff161580156135ed576000805460ff1961ff00199091166101001716600117905580156120f9576000805461ff001916905550565b600054610100900460ff1680613fd55750613fd561353f565b80613fe3575060005460ff16155b61401e5760405162461bcd60e51b815260040180806020018281038252602e815260200180614d33602e913960400191505060405180910390fd5b600054610100900460ff16158015614049576000805460ff1961ff0019909116610100171660011790555b6000614053613601565b603380546001600160a01b0319166001600160a01b038316908117909155604051919250906000907f8be0079c531659141344cd1fd0a4f28419497f9722a3daafe3b4186f6b6457e0908290a35080156120f9576000805461ff001916905550565b60606140c48484600085614102565b949350505050565b600073eeeeeeeeeeeeeeeeeeeeeeeeeeeeeeeeeeeeeeee6001600160a01b038316148061210c5750506001600160a01b03161590565b6060824710156141435760405162461bcd60e51b8152600401808060200182810382526026815260200180614d0d6026913960400191505060405180910390fd5b61414c85611f01565b61419d576040805162461bcd60e51b815260206004820152601d60248201527f416464726573733a2063616c6c20746f206e6f6e2d636f6e7472616374000000604482015290519081900360640190fd5b600080866001600160a01b031685876040518082805190602001908083835b602083106141db5780518252601f1990920191602091820191016141bc565b6001836020036101000a03801982511681845116808217855250505050505090500191505060006040518083038185875af1925050503d806000811461423d576040519150601f19603f3d011682016040523d82523d6000602084013e614242565b606091505b509150915061425282828661425d565b979650505050505050565b6060831561426c575081612413565b82511561427c5782518084602001fd5b8160405162461bcd60e51b81526004018080602001828103825283818151815260200191508051906020019080838360005b838110156142c65781810151838201526020016142ae565b50505050905090810190601f1680156142f35780820380516001836020036101000a031916815260200191505b509250505060405180910390fd5b50805460008255906000526020600020908101906120f9919061433d565b6040518060e001604052806007906020820280368337509192915050565b5b80821115614352576000815560010161433e565b5090565b600082601f830112614366578081fd5b8135602061437b61437683614ca5565b614c81565b8281528181019085830183850287018401881015614397578586fd5b855b858110156143b557813584529284019290840190600101614399565b5090979650505050505050565b6000602082840312156143d3578081fd5b813561241381614cc3565b6000602082840312156143ef578081fd5b815161241381614cc3565b6000806000806080858703121561440f578283fd5b843561441a81614cc3565b9350602085013561442a81614cc3565b93969395505050506040820135916060013590565b60008060408385031215614451578182fd5b823561445c81614cc3565b946020939093013593505050565b6000602080838503121561447c578182fd5b825167ffffffffffffffff811115614492578283fd5b8301601f810185136144a2578283fd5b80516144b061437682614ca5565b81815283810190838501858402850186018910156144cc578687fd5b8694505b838510156144f75780516144e381614cc3565b8352600194909401939185019185016144d0565b50979650505050505050565b60008060408385031215614515578182fd5b823567ffffffffffffffff8082111561452c578384fd5b818501915085601f83011261453f578384fd5b8135602061454f61437683614ca5565b82815281810190858301838502870184018b101561456b578889fd5b8896505b8487101561459657803561458281614cc3565b83526001969096019591830191830161456f565b50965050860135925050808211156145ac578283fd5b506145b985828601614356565b9150509250929050565b600080602083850312156145d5578182fd5b823567ffffffffffffffff808211156145ec578384fd5b818501915085601f8301126145ff578384fd5b81358181111561460d578485fd5b8660208083028501011115614620578485fd5b60209290920196919550909350505050565b60006020808385031215614644578182fd5b825167ffffffffffffffff81111561465a578283fd5b8301601f8101851361466a578283fd5b805161467861437682614ca5565b8181528381019083850185840285018601891015614694578687fd5b8694505b838510156144f7578051835260019490940193918501918501614698565b6000602082840312156146c7578081fd5b815161241381614cd8565b6000602082840312156146e3578081fd5b81516001600160801b0381168114612413578182fd5b60006020828403121561470a578081fd5b5035919050565b600060208284031215614722578081fd5b5051919050565b6000806040838503121561473b578182fd5b82359150602083013561474d81614cd8565b809150509250929050565b6000806040838503121561476a578182fd5b50508035926020909101359150565b6001600160a01b03169052565b606093841b6bffffffffffffffffffffffff19908116825260e89390931b7fffffff0000000000000000000000000000000000000000000000000000000000166014820152921b166017820152602b0190565b6bffffffffffffffffffffffff19606096871b811682527fffffff000000000000000000000000000000000000000000000000000000000060e896871b8116601484015294871b811660178301529290941b909216602b840152921b909116602e82015260420190565b6001600160a01b0391909116815260200190565b6001600160a01b0392831681529116602082015260400190565b6001600160a01b03938416815291909216602082015262ffffff909116604082015260600190565b6001600160a01b03929092168252602082015260400190565b6020808252825182820181905260009190848201906040850190845b818110156148f35783516001600160a01b0316835292840192918401916001016148ce565b50909695505050505050565b60e08101818360005b6007811015614927578151835260209283019290910190600101614908565b50505092915050565b6020808252825182820181905260009190848201906040850190845b818110156148f35783518352928401929184019160010161494c565b60208082526019908201527f4e6f7420656e6f75676820617373657420746f20747261646500000000000000604082015260600190565b60208082526012908201527f4e6f7420612076616c69642063546f6b656e0000000000000000000000000000604082015260600190565b6020808252601b908201527f417373657420666f7220707572636861736573206e6f74207365740000000000604082015260600190565b60208082526013908201527f4e6f7420656e6f75676820746f20726570617900000000000000000000000000604082015260600190565b6020808252600e908201527f4e6f20707269636520666f756e64000000000000000000000000000000000000604082015260600190565b60208082526016908201527f4d75737420626520612077616e74656420617373657400000000000000000000604082015260600190565b60208082526011908201527f546f6f206d75636820736c697070616765000000000000000000000000000000604082015260600190565b60208082526026908201527f4e6f7420656e6f7567682062616c616e636520746f206275792077616e74656460408201527f2061737365740000000000000000000000000000000000000000000000000000606082015260800190565b60208082526015908201527f4e6f7420656e6f75676820636f6c6c61746572616c0000000000000000000000604082015260600190565b60006020808352835160a08285015280518060c0860152835b81811015614bb25782810184015186820160e001528301614b96565b81811115614bc3578460e083880101525b509185015191614bd66040860184614779565b6040860151606086015260608601516080860152608086015160a086015260e0601f19601f830116860101935050505092915050565b90815260200190565b918252602082015260400190565b92835260208301919091526001600160a01b0316604082015260600190565b92835260208301919091521515604082015260600190565b9283526020830191909152604082015260600190565b91825260ff16602082015260400190565b60405181810167ffffffffffffffff81118282101715614c9d57fe5b604052919050565b600067ffffffffffffffff821115614cb957fe5b5060209081020190565b6001600160a01b03811681146120f957600080fd5b80151581146120f957600080fdfe4f776e61626c653a206e6577206f776e657220697320746865207a65726f2061646472657373416464726573733a20696e73756666696369656e742062616c616e636520666f722063616c6c496e697469616c697a61626c653a20636f6e747261637420697320616c726561647920696e697469616c697a65644f6e6c7920676f7665726e616e6365206f7220656d657267656e63792063616e2063616c6c20746869735361666545524332303a204552433230206f7065726174696f6e20646964206e6f742073756363656564a264697066735822122078aa68390e974205ff8daaa5c982562875802a9d7c00740e25a84343558052d364736f6c63430007060033496e697469616c697a61626c653a20636f6e747261637420697320616c726561647920696e697469616c697a6564",
  "devdoc": {
    "kind": "dev",
    "methods": {
      "addReward(uint256,uint256)": {
        "params": {
          "_bablAmount": "Total amount to distribute",
          "_weeklyRate": "Weekly amount to distribute"
        }
      },
      "borrowFusePool(address,uint256)": {
        "params": {
          "_assetToBorrow": "Asset that the heart is receiving from sender",
          "_borrowAmount": "Amount of asset to transfet"
        }
      },
      "getFeeDistributionWeights()": {
        "returns": {
          "_0": "The array of weights for the fees"
        }
      },
      "getGardenWeights()": {
        "returns": {
          "_0": "The array of weights for voted gardens"
        }
      },
      "getTotalStats()": {
        "returns": {
          "_0": "The array of stats for the fees"
        }
      },
      "getVotedGardens()": {
        "returns": {
          "_0": "The array of voted gardens"
        }
      },
      "initialize(uint256[])": {
        "params": {
          "_feeWeights": "Weights of the fee distribution"
        }
      },
      "lendFusePool(address,uint256)": {
        "params": {
          "_assetToLend": "Address of the asset to lend",
          "_lendAmount": "Amount of the asset to lend"
        }
      },
      "owner()": {
        "details": "Returns the address of the current owner."
      },
      "renounceOwnership()": {
        "details": "Leaves the contract without owner. It will not be possible to call `onlyOwner` functions anymore. Can only be called by the current owner. NOTE: Renouncing ownership will leave the contract without an owner, thereby removing any functionality that is only available to the owner."
      },
      "repayFusePool(address,uint256)": {
        "params": {
          "_amountToRepay": "Amount of asset to transfer",
          "_borrowedAsset": "Borrowed asset that we want to pay"
        }
      },
      "resolveGardenVotes(address[],uint256[])": {
        "params": {
          "_gardens": "Gardens that are going to receive investment",
          "_weights": "Weight for the investment in each garden normalied to 1e18 precision"
        }
      },
      "sellWantedAssetToHeart(address,uint256)": {
        "params": {
          "_amountToSell": "Amount of asset to sell",
          "_assetToSell": "Asset that the heart is receiving from strategy to sell"
        }
      },
      "setHeartGardenAddress(address)": {
        "params": {
          "_heartGarden": "New heart garden address"
        }
      },
      "setMinTradeAmount(address,uint256)": {
        "params": {
          "_asset": "Asset to edit the min amount",
          "_minAmount": "New min amount"
        }
      },
      "setTradeSlippage(uint256)": {
        "params": {
          "_tradeSlippage": "Trade slippage"
        }
      },
      "trade(address,address,uint256,uint256)": {
        "params": {
          "_fromAmount": "Amount of asset to exchange",
          "_fromAsset": "Asset to exchange",
          "_minAmount": "Min amount of received asset",
          "_toAsset": "Asset to receive"
        }
      },
      "transferOwnership(address)": {
        "details": "Transfers ownership of the contract to a new account (`newOwner`). Can only be called by the current owner."
      },
      "updateAssetToLend(address)": {
        "params": {
          "_assetToLend": "New asset to lend"
        }
      },
      "updateAssetToPurchase(address)": {
        "params": {
          "_purchaseAsset": "New asset to purchase"
        }
      },
      "updateFeeWeights(uint256[])": {
        "params": {
          "_feeWeights": "Array of % (up to 1e18) with the fee weights"
        }
      }
    },
    "version": 1
  },
  "userdoc": {
    "kind": "user",
    "methods": {
      "addReward(uint256,uint256)": {
        "notice": "Adds a BABL reward to be distributed weekly back to the heart garden"
      },
      "borrowFusePool(address,uint256)": {
        "notice": "Heart borrows using its liquidity Note: Heart must have enough liquidity"
      },
      "getFeeDistributionWeights()": {
        "notice": "Getter to get the whole array of fee weights"
      },
      "getGardenWeights()": {
        "notice": "Getter to get the whole array of garden weights"
      },
      "getTotalStats()": {
        "notice": "Getter to get the whole array of total stats"
      },
      "getVotedGardens()": {
        "notice": "Getter to get the whole array of voted gardens"
      },
      "initialize(uint256[])": {
        "notice": "Set state variables and map asset pairs to their oracles"
      },
      "lendFusePool(address,uint256)": {
        "notice": "Tell the heart to lend an asset on Fuse"
      },
      "pump()": {
        "notice": "Function to pump blood to the heart Note: Anyone can call this. Keeper in Defender will be set up to do it for convenience."
      },
      "repayFusePool(address,uint256)": {
        "notice": "Repays Heart fuse pool position Note: We must have the asset in the heart"
      },
      "resolveGardenVotes(address[],uint256[])": {
        "notice": "Resolves garden votes for this cycle Note: Only keeper can call this"
      },
      "sellWantedAssetToHeart(address,uint256)": {
        "notice": "Strategies can sell wanted assets by the protocol to the heart. Heart will buy them using borrowings in stables. Heart returns WETH so master swapper will take it from there. Note: Strategy needs to have approved the heart."
      },
      "setHeartGardenAddress(address)": {
        "notice": "Updates the heart garden address"
      },
      "setMinTradeAmount(address,uint256)": {
        "notice": "Updates the min amount to trade a specific asset"
      },
      "setTradeSlippage(uint256)": {
        "notice": "Updates the tradeSlippage"
      },
      "trade(address,address,uint256,uint256)": {
        "notice": "Trades one asset for another in the heart Note: We must have the _fromAsset _fromAmount available."
      },
      "updateAssetToLend(address)": {
        "notice": "Updates the next asset to lend on fuse pool"
      },
      "updateAssetToPurchase(address)": {
        "notice": "Updates the next asset to purchase assets from strategies at a premium"
      },
      "updateFeeWeights(uint256[])": {
        "notice": "Set the weights to allocate to different heart initiatives"
      },
      "updateMarkets()": {
        "notice": "Updates fuse pool market information and enters the markets"
      },
      "voteProposal(uint256,bool)": {
        "notice": "Function to vote for a proposal Note: Only keeper can call this. Votes need to have been resolved offchain. Warning: Gardens need to delegate to heart first."
      }
    },
    "version": 1
  },
  "storageLayout": {
    "storage": [
      {
        "astId": 492,
        "contract": "contracts/Heart.sol:HeartV3",
        "label": "_initialized",
        "offset": 0,
        "slot": "0",
        "type": "t_bool"
      },
      {
        "astId": 495,
        "contract": "contracts/Heart.sol:HeartV3",
        "label": "_initializing",
        "offset": 1,
        "slot": "0",
        "type": "t_bool"
      },
      {
        "astId": 1447,
        "contract": "contracts/Heart.sol:HeartV3",
        "label": "__gap",
        "offset": 0,
        "slot": "1",
        "type": "t_array(t_uint256)50_storage"
      },
      {
        "astId": 10,
        "contract": "contracts/Heart.sol:HeartV3",
        "label": "_owner",
        "offset": 0,
        "slot": "51",
        "type": "t_address"
      },
      {
        "astId": 129,
        "contract": "contracts/Heart.sol:HeartV3",
        "label": "__gap",
        "offset": 0,
        "slot": "52",
        "type": "t_array(t_uint256)49_storage"
      },
      {
        "astId": 14503,
        "contract": "contracts/Heart.sol:HeartV3",
        "label": "heartGarden",
        "offset": 0,
        "slot": "101",
        "type": "t_contract(IGarden)42617"
      },
      {
        "astId": 14507,
        "contract": "contracts/Heart.sol:HeartV3",
        "label": "votedGardens",
        "offset": 0,
        "slot": "102",
        "type": "t_array(t_address)dyn_storage"
      },
      {
        "astId": 14511,
        "contract": "contracts/Heart.sol:HeartV3",
        "label": "gardenWeights",
        "offset": 0,
        "slot": "103",
        "type": "t_array(t_uint256)dyn_storage"
      },
      {
        "astId": 14516,
        "contract": "contracts/Heart.sol:HeartV3",
        "label": "minAmounts",
        "offset": 0,
        "slot": "104",
        "type": "t_mapping(t_address,t_uint256)"
      },
      {
        "astId": 14521,
        "contract": "contracts/Heart.sol:HeartV3",
        "label": "assetToCToken",
        "offset": 0,
        "slot": "105",
        "type": "t_mapping(t_address,t_address)"
      },
      {
        "astId": 14524,
        "contract": "contracts/Heart.sol:HeartV3",
        "label": "assetToLend",
        "offset": 0,
        "slot": "106",
        "type": "t_address"
      },
      {
        "astId": 14527,
        "contract": "contracts/Heart.sol:HeartV3",
        "label": "lastPumpAt",
        "offset": 0,
        "slot": "107",
        "type": "t_uint256"
      },
      {
        "astId": 14530,
        "contract": "contracts/Heart.sol:HeartV3",
        "label": "lastVotesAt",
        "offset": 0,
        "slot": "108",
        "type": "t_uint256"
      },
      {
        "astId": 14533,
        "contract": "contracts/Heart.sol:HeartV3",
        "label": "weeklyRewardAmount",
        "offset": 0,
        "slot": "109",
        "type": "t_uint256"
      },
      {
        "astId": 14536,
        "contract": "contracts/Heart.sol:HeartV3",
        "label": "bablRewardLeft",
        "offset": 0,
        "slot": "110",
        "type": "t_uint256"
      },
      {
        "astId": 14540,
        "contract": "contracts/Heart.sol:HeartV3",
        "label": "feeDistributionWeights",
        "offset": 0,
        "slot": "111",
        "type": "t_array(t_uint256)dyn_storage"
      },
      {
        "astId": 14545,
        "contract": "contracts/Heart.sol:HeartV3",
        "label": "totalStats",
        "offset": 0,
        "slot": "112",
        "type": "t_array(t_uint256)7_storage"
      },
      {
        "astId": 14548,
        "contract": "contracts/Heart.sol:HeartV3",
        "label": "tradeSlippage",
        "offset": 0,
        "slot": "119",
        "type": "t_uint256"
      },
      {
        "astId": 14551,
        "contract": "contracts/Heart.sol:HeartV3",
        "label": "assetForPurchases",
        "offset": 0,
        "slot": "120",
        "type": "t_address"
      }
    ],
    "types": {
      "t_address": {
        "encoding": "inplace",
        "label": "address",
        "numberOfBytes": "20"
      },
      "t_array(t_address)dyn_storage": {
        "base": "t_address",
        "encoding": "dynamic_array",
        "label": "address[]",
        "numberOfBytes": "32"
      },
      "t_array(t_uint256)49_storage": {
        "base": "t_uint256",
        "encoding": "inplace",
        "label": "uint256[49]",
        "numberOfBytes": "1568"
      },
      "t_array(t_uint256)50_storage": {
        "base": "t_uint256",
        "encoding": "inplace",
        "label": "uint256[50]",
        "numberOfBytes": "1600"
      },
      "t_array(t_uint256)7_storage": {
        "base": "t_uint256",
        "encoding": "inplace",
        "label": "uint256[7]",
        "numberOfBytes": "224"
      },
      "t_array(t_uint256)dyn_storage": {
        "base": "t_uint256",
        "encoding": "dynamic_array",
        "label": "uint256[]",
        "numberOfBytes": "32"
      },
      "t_bool": {
        "encoding": "inplace",
        "label": "bool",
        "numberOfBytes": "1"
      },
      "t_contract(IGarden)42617": {
        "encoding": "inplace",
        "label": "contract IGarden",
        "numberOfBytes": "20"
      },
      "t_mapping(t_address,t_address)": {
        "encoding": "mapping",
        "key": "t_address",
        "label": "mapping(address => address)",
        "numberOfBytes": "32",
        "value": "t_address"
      },
      "t_mapping(t_address,t_uint256)": {
        "encoding": "mapping",
        "key": "t_address",
        "label": "mapping(address => uint256)",
        "numberOfBytes": "32",
        "value": "t_uint256"
      },
      "t_uint256": {
        "encoding": "inplace",
        "label": "uint256",
        "numberOfBytes": "32"
      }
    }
  }
}