{
  "address": "0x9D4184B69A8e0C29f72Aab43cE6924779fAaeBc1",
  "abi": [
    {
      "inputs": [
        {
          "internalType": "contract IBabController",
          "name": "_controller",
          "type": "address"
        },
        {
          "internalType": "contract IGovernor",
          "name": "_governor",
          "type": "address"
        },
        {
          "internalType": "contract IHeart",
          "name": "_heart",
          "type": "address"
        }
      ],
      "stateMutability": "nonpayable",
      "type": "constructor"
    },
    {
      "inputs": [],
      "name": "controller",
      "outputs": [
        {
          "internalType": "contract IBabController",
          "name": "",
          "type": "address"
        }
      ],
      "stateMutability": "view",
      "type": "function"
    },
    {
      "inputs": [],
      "name": "getAllHeartDetails",
      "outputs": [
        {
          "internalType": "address[2]",
          "name": "",
          "type": "address[2]"
        },
        {
          "internalType": "uint256[7]",
          "name": "",
          "type": "uint256[7]"
        },
        {
          "internalType": "uint256[]",
          "name": "",
          "type": "uint256[]"
        },
        {
          "internalType": "address[]",
          "name": "",
          "type": "address[]"
        },
        {
          "internalType": "uint256[]",
          "name": "",
          "type": "uint256[]"
        },
        {
          "internalType": "uint256[2]",
          "name": "",
          "type": "uint256[2]"
        },
        {
          "internalType": "uint256[2]",
          "name": "",
          "type": "uint256[2]"
        },
        {
          "internalType": "uint256[2]",
          "name": "",
          "type": "uint256[2]"
        }
      ],
      "stateMutability": "view",
      "type": "function"
    },
    {
      "inputs": [
        {
          "internalType": "address[]",
          "name": "_assets",
          "type": "address[]"
        }
      ],
      "name": "getBondDiscounts",
      "outputs": [
        {
          "internalType": "uint256[]",
          "name": "",
          "type": "uint256[]"
        }
      ],
      "stateMutability": "view",
      "type": "function"
    },
    {
      "inputs": [
        {
          "internalType": "uint256[]",
          "name": "_ids",
          "type": "uint256[]"
        }
      ],
      "name": "getGovernanceProposals",
      "outputs": [
        {
          "internalType": "address[]",
          "name": "",
          "type": "address[]"
        },
        {
          "internalType": "uint256[]",
          "name": "",
          "type": "uint256[]"
        },
        {
          "internalType": "uint256[]",
          "name": "",
          "type": "uint256[]"
        },
        {
          "internalType": "uint256[]",
          "name": "",
          "type": "uint256[]"
        }
      ],
      "stateMutability": "view",
      "type": "function"
    },
    {
      "inputs": [],
      "name": "governor",
      "outputs": [
        {
          "internalType": "contract IGovernor",
          "name": "",
          "type": "address"
        }
      ],
      "stateMutability": "view",
      "type": "function"
    },
    {
      "inputs": [],
      "name": "heart",
      "outputs": [
        {
          "internalType": "contract IHeart",
          "name": "",
          "type": "address"
        }
      ],
      "stateMutability": "view",
      "type": "function"
    },
    {
      "inputs": [],
      "name": "visor",
      "outputs": [
        {
          "internalType": "contract IHypervisor",
          "name": "",
          "type": "address"
        }
      ],
      "stateMutability": "view",
      "type": "function"
    },
    {
      "inputs": [],
      "name": "visor_full",
      "outputs": [
        {
          "internalType": "contract IHypervisor",
          "name": "",
          "type": "address"
        }
      ],
      "stateMutability": "view",
      "type": "function"
    }
  ],
  "transactionHash": "0x6994e8eab8c678192208240890ba639616b4c6e5a995a6ab8c5a57d89d2563b1",
  "args": [
    "0xD4a5b5fcB561dAF3aDF86F8477555B92FBa43b5F",
    "0xBEC3de5b14902C660Bd2C7EfD2F259998424cc24",
    "0x51e6775b7bE2eA1d20cA02cFEeB04453366e72C8"
  ],
  "numDeployments": 2,
  "solcInputHash": "52326babd87e7897610fb1d2a71f018c",
  "bytecode": "0x60e06040523480156200001157600080fd5b50604051620016b1380380620016b18339810160408190526200003491620000b7565b6001600160a01b038316620000665760405162461bcd60e51b81526004016200005d906200010a565b60405180910390fd5b6001600160a01b0382166200008f5760405162461bcd60e51b81526004016200005d9062000141565b6001600160601b0319606093841b811660805291831b821660a05290911b1660c05262000191565b600080600060608486031215620000cc578283fd5b8351620000d98162000178565b6020850151909350620000ec8162000178565b6040850151909250620000ff8162000178565b809150509250925092565b60208082526015908201527f436f6e74726f6c6c6572206d7573742065786973740000000000000000000000604082015260600190565b60208082526013908201527f476f7665726e6f72206d75737420657869737400000000000000000000000000604082015260600190565b6001600160a01b03811681146200018e57600080fd5b50565b60805160601c60a05160601c60c05160601c6114a9620002086000398061029e528061034652806103ec528061047d528061051252806105a7528061064752806106dd528061077c52806108125280610b515280610c3652508061012c5280610c9e5280610d73525080610c5a52506114a96000f3fe608060405234801561001057600080fd5b50600436106100885760003560e01c8063d551723e1161005b578063d551723e146100f2578063df822edf146100fa578063f58d1c941461011a578063f77c47911461012257610088565b80630c340a241461008d5780630c75b1d8146100ab57806371802996146100c75780639bb1f644146100ea575b600080fd5b61009561012a565b6040516100a291906112d9565b60405180910390f35b6100b361014e565b6040516100a29897969594939291906112ed565b6100da6100d5366004611089565b6108e8565b6040516100a294939291906113a5565b610095610acc565b610095610ae4565b61010d610108366004610f2f565b610afc565b6040516100a291906113fd565b610095610c34565b610095610c58565b7f000000000000000000000000000000000000000000000000000000000000000081565b610156610e38565b61015e610e56565b606080606061016b610e38565b610173610e38565b61017b610e38565b60008073f19f91d7889668a533f14d076adc187be781a4586001600160a01b031663c4a7761e6040518163ffffffff1660e01b8152600401604080518083038186803b1580156101ca57600080fd5b505afa1580156101de573d6000803e3d6000fd5b505050506040513d601f19601f8201168201806040525081019061020291906111f8565b91509150600080735e6c481de496554b66657dd1ca1f70c61cf116606001600160a01b031663c4a7761e6040518163ffffffff1660e01b8152600401604080518083038186803b15801561025557600080fd5b505afa158015610269573d6000803e3d6000fd5b505050506040513d601f19601f8201168201806040525081019061028d91906111f8565b9150915060405180604001604052807f00000000000000000000000000000000000000000000000000000000000000006001600160a01b03166365f7f6486040518163ffffffff1660e01b815260040160206040518083038186803b1580156102f557600080fd5b505afa158015610309573d6000803e3d6000fd5b505050506040513d601f19601f8201168201806040525081019061032d9190610f13565b6001600160a01b03166001600160a01b031681526020017f00000000000000000000000000000000000000000000000000000000000000006001600160a01b0316636be2f2676040518163ffffffff1660e01b815260040160206040518083038186803b15801561039d57600080fd5b505afa1580156103b1573d6000803e3d6000fd5b505050506040513d601f19601f820116820180604052508101906103d59190610f13565b6001600160a01b03166001600160a01b03168152507f00000000000000000000000000000000000000000000000000000000000000006001600160a01b031663fc5cbf1d6040518163ffffffff1660e01b815260040160e06040518083038186803b15801561044357600080fd5b505afa158015610457573d6000803e3d6000fd5b505050506040513d601f19601f8201168201806040525081019061047b919061100d565b7f00000000000000000000000000000000000000000000000000000000000000006001600160a01b031663564e4bab6040518163ffffffff1660e01b815260040160006040518083038186803b1580156104d457600080fd5b505afa1580156104e8573d6000803e3d6000fd5b505050506040513d6000823e601f3d908101601f1916820160405261051091908101906110b1565b7f00000000000000000000000000000000000000000000000000000000000000006001600160a01b031663081ab4c26040518163ffffffff1660e01b815260040160006040518083038186803b15801561056957600080fd5b505afa15801561057d573d6000803e3d6000fd5b505050506040513d6000823e601f3d908101601f191682016040526105a59190810190610f6f565b7f00000000000000000000000000000000000000000000000000000000000000006001600160a01b031663cfd2dc996040518163ffffffff1660e01b815260040160006040518083038186803b1580156105fe57600080fd5b505afa158015610612573d6000803e3d6000fd5b505050506040513d6000823e601f3d908101601f1916820160405261063a91908101906110b1565b60405180604001604052807f00000000000000000000000000000000000000000000000000000000000000006001600160a01b031663a775efa56040518163ffffffff1660e01b815260040160206040518083038186803b15801561069e57600080fd5b505afa1580156106b2573d6000803e3d6000fd5b505050506040513d601f19601f820116820180604052508101906106d69190611154565b81526020017f00000000000000000000000000000000000000000000000000000000000000006001600160a01b031663dac5a9956040518163ffffffff1660e01b815260040160206040518083038186803b15801561073457600080fd5b505afa158015610748573d6000803e3d6000fd5b505050506040513d601f19601f8201168201806040525081019061076c9190611154565b81525060405180604001604052807f00000000000000000000000000000000000000000000000000000000000000006001600160a01b031663394abf456040518163ffffffff1660e01b815260040160206040518083038186803b1580156107d357600080fd5b505afa1580156107e7573d6000803e3d6000fd5b505050506040513d601f19601f8201168201806040525081019061080b9190611154565b81526020017f00000000000000000000000000000000000000000000000000000000000000006001600160a01b031663730fa8c46040518163ffffffff1660e01b815260040160206040518083038186803b15801561086957600080fd5b505afa15801561087d573d6000803e3d6000fd5b505050506040513d601f19601f820116820180604052508101906108a19190611154565b905260408051808201909152806108b88d8c610c7c565b81526020016108c78c8b610c7c565b8152509b509b509b509b509b509b509b509b50505050509091929394959697565b606080808060008567ffffffffffffffff8111801561090657600080fd5b50604051908082528060200260200182016040528015610930578160200160208202803683370190505b50905060008667ffffffffffffffff8111801561094c57600080fd5b50604051908082528060200260200182016040528015610976578160200160208202803683370190505b50905060008767ffffffffffffffff8111801561099257600080fd5b506040519080825280602002602001820160405280156109bc578160200160208202803683370190505b50905060008867ffffffffffffffff811180156109d857600080fd5b50604051908082528060200260200182016040528015610a02578160200160208202803683370190505b50905060005b89811015610abb57600080610a2e8d8d85818110610a2257fe5b90506020020135610c8c565b9150915081878481518110610a3f57fe5b6001600160a01b03929092166020928302919091019091015280518651879085908110610a6857fe5b60209081029190910101528060016020020151858481518110610a8757fe5b60209081029190910101528060026020020151848481518110610aa657fe5b60209081029190910101525050600101610a08565b509299919850965090945092505050565b735e6c481de496554b66657dd1ca1f70c61cf1166081565b73f19f91d7889668a533f14d076adc187be781a45881565b606060008267ffffffffffffffff81118015610b1757600080fd5b50604051908082528060200260200182016040528015610b41578160200160208202803683370190505b50905060005b83811015610c2a577f00000000000000000000000000000000000000000000000000000000000000006001600160a01b031663f4bd694a868684818110610b8a57fe5b9050602002016020810190610b9f9190610ef0565b6040518263ffffffff1660e01b8152600401610bbb91906112d9565b60206040518083038186803b158015610bd357600080fd5b505afa158015610be7573d6000803e3d6000fd5b505050506040513d601f19601f82011682018060405250810190610c0b9190611154565b828281518110610c1757fe5b6020908102919091010152600101610b47565b5090505b92915050565b7f000000000000000000000000000000000000000000000000000000000000000081565b7f000000000000000000000000000000000000000000000000000000000000000081565b80820182811015610c2e57600080fd5b6000610c96610e74565b6000806000807f00000000000000000000000000000000000000000000000000000000000000006001600160a01b031663013cf08b886040518263ffffffff1660e01b8152600401610ce89190611410565b6101406040518083038186803b158015610d0157600080fd5b505afa158015610d15573d6000803e3d6000fd5b505050506040513d601f19601f82011682018060405250810190610d39919061116c565b5050509650965096505050945050836040518060600160405280858152602001610d6c8486610e2890919063ffffffff16565b81526020017f00000000000000000000000000000000000000000000000000000000000000006001600160a01b0316633e4f49e68b6040518263ffffffff1660e01b8152600401610dbd9190611410565b60206040518083038186803b158015610dd557600080fd5b505afa158015610de9573d6000803e3d6000fd5b505050506040513d601f19601f82011682018060405250810190610e0d9190611135565b6007811115610e1857fe5b8152509550955050505050915091565b80820382811115610c2e57600080fd5b60405180604001604052806002906020820280368337509192915050565b6040518060e001604052806007906020820280368337509192915050565b60405180606001604052806003906020820280368337509192915050565b60008083601f840112610ea3578182fd5b50813567ffffffffffffffff811115610eba578182fd5b6020830191508360208083028501011115610ed457600080fd5b9250929050565b80518015158114610eeb57600080fd5b919050565b600060208284031215610f01578081fd5b8135610f0c8161145b565b9392505050565b600060208284031215610f24578081fd5b8151610f0c8161145b565b60008060208385031215610f41578081fd5b823567ffffffffffffffff811115610f57578182fd5b610f6385828601610e92565b90969095509350505050565b60006020808385031215610f81578182fd5b825167ffffffffffffffff811115610f97578283fd5b8301601f81018513610fa7578283fd5b8051610fba610fb58261143d565b611419565b8181528381019083850185840285018601891015610fd6578687fd5b8694505b83851015611001578051610fed8161145b565b835260019490940193918501918501610fda565b50979650505050505050565b600060e0828403121561101e578081fd5b82601f83011261102c578081fd5b60405160e0810181811067ffffffffffffffff8211171561104957fe5b604052808360e0810186101561105d578384fd5b835b600781101561107e57815183526020928301929091019060010161105f565b509195945050505050565b6000806020838503121561109b578182fd5b823567ffffffffffffffff811115610f57578283fd5b600060208083850312156110c3578182fd5b825167ffffffffffffffff8111156110d9578283fd5b8301601f810185136110e9578283fd5b80516110f7610fb58261143d565b8181528381019083850185840285018601891015611113578687fd5b8694505b83851015611001578051835260019490940193918501918501611117565b600060208284031215611146578081fd5b815160088110610f0c578182fd5b600060208284031215611165578081fd5b5051919050565b6000806000806000806000806000806101408b8d03121561118b578586fd5b8a51995060208b015161119d8161145b565b8099505060408b0151975060608b0151965060808b0151955060a08b0151945060c08b0151935060e08b015192506111d86101008c01610edb565b91506111e76101208c01610edb565b90509295989b9194979a5092959850565b6000806040838503121561120a578182fd5b505080516020909101519092909150565b6000815180845260208085019450808401835b838110156112535781516001600160a01b03168752958201959082019060010161122e565b509495945050505050565b8060005b6002811015611281578151845260209384019390910190600101611262565b50505050565b8060005b600781101561128157815184526020938401939091019060010161128b565b6000815180845260208085019450808401835b83811015611253578151875295820195908201906001016112bd565b6001600160a01b0391909116815260200190565b6000610240828b835b600281101561131e5781516001600160a01b03168352602092830192909101906001016112f6565b50505061132e604084018b611287565b806101208401526113418184018a6112aa565b9050828103610140840152611356818961121b565b905082810361016084015261136b81886112aa565b91505061137c61018083018661125e565b61138a6101c083018561125e565b61139861020083018461125e565b9998505050505050505050565b6000608082526113b8608083018761121b565b82810360208401526113ca81876112aa565b905082810360408401526113de81866112aa565b905082810360608401526113f281856112aa565b979650505050505050565b600060208252610f0c60208301846112aa565b90815260200190565b60405181810167ffffffffffffffff8111828210171561143557fe5b604052919050565b600067ffffffffffffffff82111561145157fe5b5060209081020190565b6001600160a01b038116811461147057600080fd5b5056fea26469706673582212209d4d1f41a53a29f145c488e88d9d1b28fb381102b8118966e01d400d6159e70264736f6c63430007060033",
  "devdoc": {
    "author": "Babylon Finance Class that holds common view functions to retrieve heart and governance information effectively",
    "kind": "dev",
    "methods": {},
    "title": "HeartViewer",
    "version": 1
  },
  "userdoc": {
    "kind": "user",
    "methods": {
      "getAllHeartDetails()": {
        "notice": "Gets all the heart details in one view call"
      }
    },
    "version": 1
  },
  "storageLayout": {
    "storage": [],
    "types": null
  }
}