{
  "address": "0x37469B01987FaC1f408F4EDEe4C4342aAC96e160",
  "abi": [
    {
      "inputs": [
        {
          "internalType": "contract IBabController",
          "name": "_controller",
          "type": "address"
        },
        {
          "internalType": "contract IGovernor",
          "name": "_governor",
          "type": "address"
        },
        {
          "internalType": "contract IHeart",
          "name": "_heart",
          "type": "address"
        }
      ],
      "stateMutability": "nonpayable",
      "type": "constructor"
    },
    {
      "inputs": [],
      "name": "controller",
      "outputs": [
        {
          "internalType": "contract IBabController",
          "name": "",
          "type": "address"
        }
      ],
      "stateMutability": "view",
      "type": "function"
    },
    {
      "inputs": [],
      "name": "getAllHeartDetails",
      "outputs": [
        {
          "internalType": "address[2]",
          "name": "",
          "type": "address[2]"
        },
        {
          "internalType": "uint256[7]",
          "name": "",
          "type": "uint256[7]"
        },
        {
          "internalType": "uint256[]",
          "name": "",
          "type": "uint256[]"
        },
        {
          "internalType": "address[]",
          "name": "",
          "type": "address[]"
        },
        {
          "internalType": "uint256[]",
          "name": "",
          "type": "uint256[]"
        },
        {
          "internalType": "uint256[2]",
          "name": "",
          "type": "uint256[2]"
        },
        {
          "internalType": "uint256[2]",
          "name": "",
          "type": "uint256[2]"
        },
        {
          "internalType": "uint256[2]",
          "name": "",
          "type": "uint256[2]"
        }
      ],
      "stateMutability": "view",
      "type": "function"
    },
    {
      "inputs": [
        {
          "internalType": "uint256[]",
          "name": "_ids",
          "type": "uint256[]"
        }
      ],
      "name": "getGovernanceProposals",
      "outputs": [
        {
          "internalType": "address[]",
          "name": "",
          "type": "address[]"
        },
        {
          "internalType": "uint256[]",
          "name": "",
          "type": "uint256[]"
        },
        {
          "internalType": "uint256[]",
          "name": "",
          "type": "uint256[]"
        },
        {
          "internalType": "uint256[]",
          "name": "",
          "type": "uint256[]"
        }
      ],
      "stateMutability": "view",
      "type": "function"
    },
    {
      "inputs": [],
      "name": "governor",
      "outputs": [
        {
          "internalType": "contract IGovernor",
          "name": "",
          "type": "address"
        }
      ],
      "stateMutability": "view",
      "type": "function"
    },
    {
      "inputs": [],
      "name": "heart",
      "outputs": [
        {
          "internalType": "contract IHeart",
          "name": "",
          "type": "address"
        }
      ],
      "stateMutability": "view",
      "type": "function"
    },
    {
      "inputs": [],
      "name": "heartGarden",
      "outputs": [
        {
          "internalType": "contract IGarden",
          "name": "",
          "type": "address"
        }
      ],
      "stateMutability": "view",
      "type": "function"
    },
    {
      "inputs": [
        {
          "internalType": "contract IGarden",
          "name": "_heartGarden",
          "type": "address"
        }
      ],
      "name": "setHeartGarden",
      "outputs": [],
      "stateMutability": "nonpayable",
      "type": "function"
    },
    {
      "inputs": [],
      "name": "visor",
      "outputs": [
        {
          "internalType": "contract IHypervisor",
          "name": "",
          "type": "address"
        }
      ],
      "stateMutability": "view",
      "type": "function"
    },
    {
      "inputs": [],
      "name": "visor_full",
      "outputs": [
        {
          "internalType": "contract IHypervisor",
          "name": "",
          "type": "address"
        }
      ],
      "stateMutability": "view",
      "type": "function"
    }
  ],
  "transactionHash": "0x8b528d3d00cb4c103b0314d34a02f09e1ce6b55902b9b3cb3a828fd0e4fa8de4",
  "args": [
    "0xD4a5b5fcB561dAF3aDF86F8477555B92FBa43b5F",
    "0xBEC3de5b14902C660Bd2C7EfD2F259998424cc24",
    "0x51e6775b7bE2eA1d20cA02cFEeB04453366e72C8"
  ],
  "solcInputHash": "6c4abd5f70f8a37f238ccd29702c7be0",
  "bytecode": "0x60e06040523480156200001157600080fd5b50604051620016d3380380620016d38339810160408190526200003491620000b7565b6001600160a01b038316620000665760405162461bcd60e51b81526004016200005d906200010a565b60405180910390fd5b6001600160a01b0382166200008f5760405162461bcd60e51b81526004016200005d9062000141565b6001600160601b0319606093841b811660805291831b821660a05290911b1660c05262000191565b600080600060608486031215620000cc578283fd5b8351620000d98162000178565b6020850151909350620000ec8162000178565b6040850151909250620000ff8162000178565b809150509250925092565b60208082526015908201527f436f6e74726f6c6c6572206d7573742065786973740000000000000000000000604082015260600190565b60208082526013908201527f476f7665726e6f72206d75737420657869737400000000000000000000000000604082015260600190565b6001600160a01b03811681146200018e57600080fd5b50565b60805160601c60a05160601c60c05160601c6114cb62000208600039806102f45280610385528061041652806104ab528061054052806105e05280610676528061071552806107ab5280610c705250806101445280610cde5280610db3525080610aa65280610b515280610c9452506114cb6000f3fe608060405234801561001057600080fd5b50600436106100a35760003560e01c80639bb1f64411610076578063e650d19a1161005b578063e650d19a1461011d578063f58d1c9414610132578063f77c47911461013a576100a3565b80639bb1f6441461010d578063d551723e14610115576100a3565b80630c340a24146100a85780630c75b1d8146100c657806365f7f648146100e257806371802996146100ea575b600080fd5b6100b0610142565b6040516100bd91906113e7565b60405180910390f35b6100ce610166565b6040516100bd9897969594939291906112d7565b6100b0610881565b6100fd6100f8366004611024565b610890565b6040516100bd949392919061138f565b6100b0610a74565b6100b0610a8c565b61013061012b366004611117565b610aa4565b005b6100b0610c6e565b6100b0610c92565b7f000000000000000000000000000000000000000000000000000000000000000081565b61016e610e78565b610176610e96565b6060806060610183610e78565b61018b610e78565b610193610e78565b60008073f19f91d7889668a533f14d076adc187be781a4586001600160a01b031663c4a7761e6040518163ffffffff1660e01b8152600401604080518083038186803b1580156101e257600080fd5b505afa1580156101f6573d6000803e3d6000fd5b505050506040513d601f19601f8201168201806040525081019061021a91906111f6565b91509150600080735e6c481de496554b66657dd1ca1f70c61cf116606001600160a01b031663c4a7761e6040518163ffffffff1660e01b8152600401604080518083038186803b15801561026d57600080fd5b505afa158015610281573d6000803e3d6000fd5b505050506040513d601f19601f820116820180604052508101906102a591906111f6565b6040805180820182526000546001600160a01b03908116825282517f6be2f2670000000000000000000000000000000000000000000000000000000081529251949650929450926020808501937f00000000000000000000000000000000000000000000000000000000000000001692636be2f2679260048083019392829003018186803b15801561033657600080fd5b505afa15801561034a573d6000803e3d6000fd5b505050506040513d601f19601f8201168201806040525081019061036e9190610ee7565b6001600160a01b03166001600160a01b03168152507f00000000000000000000000000000000000000000000000000000000000000006001600160a01b031663fc5cbf1d6040518163ffffffff1660e01b815260040160e06040518083038186803b1580156103dc57600080fd5b505afa1580156103f0573d6000803e3d6000fd5b505050506040513d601f19601f820116820180604052508101906104149190610fa8565b7f00000000000000000000000000000000000000000000000000000000000000006001600160a01b031663564e4bab6040518163ffffffff1660e01b815260040160006040518083038186803b15801561046d57600080fd5b505afa158015610481573d6000803e3d6000fd5b505050506040513d6000823e601f3d908101601f191682016040526104a99190810190611093565b7f00000000000000000000000000000000000000000000000000000000000000006001600160a01b031663081ab4c26040518163ffffffff1660e01b815260040160006040518083038186803b15801561050257600080fd5b505afa158015610516573d6000803e3d6000fd5b505050506040513d6000823e601f3d908101601f1916820160405261053e9190810190610f0a565b7f00000000000000000000000000000000000000000000000000000000000000006001600160a01b031663cfd2dc996040518163ffffffff1660e01b815260040160006040518083038186803b15801561059757600080fd5b505afa1580156105ab573d6000803e3d6000fd5b505050506040513d6000823e601f3d908101601f191682016040526105d39190810190611093565b60405180604001604052807f00000000000000000000000000000000000000000000000000000000000000006001600160a01b031663a775efa56040518163ffffffff1660e01b815260040160206040518083038186803b15801561063757600080fd5b505afa15801561064b573d6000803e3d6000fd5b505050506040513d601f19601f8201168201806040525081019061066f9190611152565b81526020017f00000000000000000000000000000000000000000000000000000000000000006001600160a01b031663dac5a9956040518163ffffffff1660e01b815260040160206040518083038186803b1580156106cd57600080fd5b505afa1580156106e1573d6000803e3d6000fd5b505050506040513d601f19601f820116820180604052508101906107059190611152565b81525060405180604001604052807f00000000000000000000000000000000000000000000000000000000000000006001600160a01b031663394abf456040518163ffffffff1660e01b815260040160206040518083038186803b15801561076c57600080fd5b505afa158015610780573d6000803e3d6000fd5b505050506040513d601f19601f820116820180604052508101906107a49190611152565b81526020017f00000000000000000000000000000000000000000000000000000000000000006001600160a01b031663730fa8c46040518163ffffffff1660e01b815260040160206040518083038186803b15801561080257600080fd5b505afa158015610816573d6000803e3d6000fd5b505050506040513d601f19601f8201168201806040525081019061083a9190611152565b905260408051808201909152806108518d8c610cb6565b81526020016108608c8b610cb6565b8152509b509b509b509b509b509b509b509b50505050509091929394959697565b6000546001600160a01b031681565b606080808060008567ffffffffffffffff811180156108ae57600080fd5b506040519080825280602002602001820160405280156108d8578160200160208202803683370190505b50905060008667ffffffffffffffff811180156108f457600080fd5b5060405190808252806020026020018201604052801561091e578160200160208202803683370190505b50905060008767ffffffffffffffff8111801561093a57600080fd5b50604051908082528060200260200182016040528015610964578160200160208202803683370190505b50905060008867ffffffffffffffff8111801561098057600080fd5b506040519080825280602002602001820160405280156109aa578160200160208202803683370190505b50905060005b89811015610a63576000806109d68d8d858181106109ca57fe5b90506020020135610ccc565b91509150818784815181106109e757fe5b6001600160a01b03929092166020928302919091019091015280518651879085908110610a1057fe5b60209081029190910101528060016020020151858481518110610a2f57fe5b60209081029190910101528060026020020151848481518110610a4e57fe5b602090810291909101015250506001016109b0565b509299919850965090945092505050565b735e6c481de496554b66657dd1ca1f70c61cf1166081565b73f19f91d7889668a533f14d076adc187be781a45881565b7f00000000000000000000000000000000000000000000000000000000000000006001600160a01b0316638da5cb5b6040518163ffffffff1660e01b815260040160206040518083038186803b158015610afd57600080fd5b505afa158015610b11573d6000803e3d6000fd5b505050506040513d601f19601f82011682018060405250810190610b359190610ee7565b6001600160a01b0316336001600160a01b03161480610bf557507f00000000000000000000000000000000000000000000000000000000000000006001600160a01b0316638d97e0436040518163ffffffff1660e01b815260040160206040518083038186803b158015610ba857600080fd5b505afa158015610bbc573d6000803e3d6000fd5b505050506040513d601f19601f82011682018060405250810190610be09190610ee7565b6001600160a01b0316336001600160a01b0316145b610c34576040517f08c379a0000000000000000000000000000000000000000000000000000000008152600401610c2b906113fb565b60405180910390fd5b600080547fffffffffffffffffffffffff0000000000000000000000000000000000000000166001600160a01b0392909216919091179055565b7f000000000000000000000000000000000000000000000000000000000000000081565b7f000000000000000000000000000000000000000000000000000000000000000081565b80820182811015610cc657600080fd5b92915050565b6000610cd6610eb4565b6000806000807f00000000000000000000000000000000000000000000000000000000000000006001600160a01b031663013cf08b886040518263ffffffff1660e01b8152600401610d289190611432565b6101406040518083038186803b158015610d4157600080fd5b505afa158015610d55573d6000803e3d6000fd5b505050506040513d601f19601f82011682018060405250810190610d79919061116a565b5050509650965096505050945050836040518060600160405280858152602001610dac8486610e6890919063ffffffff16565b81526020017f00000000000000000000000000000000000000000000000000000000000000006001600160a01b0316633e4f49e68b6040518263ffffffff1660e01b8152600401610dfd9190611432565b60206040518083038186803b158015610e1557600080fd5b505afa158015610e29573d6000803e3d6000fd5b505050506040513d601f19601f82011682018060405250810190610e4d9190611133565b6007811115610e5857fe5b8152509550955050505050915091565b80820382811115610cc657600080fd5b60405180604001604052806002906020820280368337509192915050565b6040518060e001604052806007906020820280368337509192915050565b60405180606001604052806003906020820280368337509192915050565b80518015158114610ee257600080fd5b919050565b600060208284031215610ef8578081fd5b8151610f038161147d565b9392505050565b60006020808385031215610f1c578182fd5b825167ffffffffffffffff811115610f32578283fd5b8301601f81018513610f42578283fd5b8051610f55610f508261145f565b61143b565b8181528381019083850185840285018601891015610f71578687fd5b8694505b83851015610f9c578051610f888161147d565b835260019490940193918501918501610f75565b50979650505050505050565b600060e08284031215610fb9578081fd5b82601f830112610fc7578081fd5b60405160e0810181811067ffffffffffffffff82111715610fe457fe5b604052808360e08101861015610ff8578384fd5b835b6007811015611019578151835260209283019290910190600101610ffa565b509195945050505050565b60008060208385031215611036578081fd5b823567ffffffffffffffff8082111561104d578283fd5b818501915085601f830112611060578283fd5b81358181111561106e578384fd5b8660208083028501011115611081578384fd5b60209290920196919550909350505050565b600060208083850312156110a5578182fd5b825167ffffffffffffffff8111156110bb578283fd5b8301601f810185136110cb578283fd5b80516110d9610f508261145f565b81815283810190838501858402850186018910156110f5578687fd5b8694505b83851015610f9c5780518352600194909401939185019185016110f9565b600060208284031215611128578081fd5b8135610f038161147d565b600060208284031215611144578081fd5b815160088110610f03578182fd5b600060208284031215611163578081fd5b5051919050565b6000806000806000806000806000806101408b8d031215611189578586fd5b8a51995060208b015161119b8161147d565b8099505060408b0151975060608b0151965060808b0151955060a08b0151945060c08b0151935060e08b015192506111d66101008c01610ed2565b91506111e56101208c01610ed2565b90509295989b9194979a5092959850565b60008060408385031215611208578182fd5b505080516020909101519092909150565b6000815180845260208085019450808401835b838110156112515781516001600160a01b03168752958201959082019060010161122c565b509495945050505050565b8060005b600281101561127f578151845260209384019390910190600101611260565b50505050565b8060005b600781101561127f578151845260209384019390910190600101611289565b6000815180845260208085019450808401835b83811015611251578151875295820195908201906001016112bb565b6000610240828b835b60028110156113085781516001600160a01b03168352602092830192909101906001016112e0565b505050611318604084018b611285565b8061012084015261132b8184018a6112a8565b90508281036101408401526113408189611219565b905082810361016084015261135581886112a8565b91505061136661018083018661125c565b6113746101c083018561125c565b61138261020083018461125c565b9998505050505050505050565b6000608082526113a26080830187611219565b82810360208401526113b481876112a8565b905082810360408401526113c881866112a8565b905082810360608401526113dc81856112a8565b979650505050505050565b6001600160a01b0391909116815260200190565b60208082526009908201527f4e6f6e2076616c69640000000000000000000000000000000000000000000000604082015260600190565b90815260200190565b60405181810167ffffffffffffffff8111828210171561145757fe5b604052919050565b600067ffffffffffffffff82111561147357fe5b5060209081020190565b6001600160a01b038116811461149257600080fd5b5056fea264697066735822122023552d56ff503421447c73739334ca05aa5f4ccd797f4fd0d9a253c1bd6108a064736f6c63430007060033",
  "devdoc": {
    "author": "Babylon Finance Class that holds common view functions to retrieve heart and governance information effectively",
    "kind": "dev",
    "methods": {},
    "title": "HeartViewer",
    "version": 1
  },
  "userdoc": {
    "kind": "user",
    "methods": {
      "getAllHeartDetails()": {
        "notice": "Gets all the heart details in one view call"
      }
    },
    "version": 1
  },
  "storageLayout": {
    "storage": [
      {
        "astId": 14931,
        "contract": "contracts/HeartViewer.sol:HeartViewer",
        "label": "heartGarden",
        "offset": 0,
        "slot": "0",
        "type": "t_contract(IGarden)39049"
      }
    ],
    "types": {
      "t_contract(IGarden)39049": {
        "encoding": "inplace",
        "label": "contract IGarden",
        "numberOfBytes": "20"
      }
    }
  }
}