{
  "address": "0xfc19CB1453E3741966Aa500b7692E4a89950C9E8",
  "abi": [
    {
      "inputs": [
        {
          "internalType": "contract IBabController",
          "name": "_controller",
          "type": "address"
        }
      ],
      "stateMutability": "nonpayable",
      "type": "constructor"
    },
    {
      "inputs": [],
      "name": "controller",
      "outputs": [
        {
          "internalType": "contract IBabController",
          "name": "",
          "type": "address"
        }
      ],
      "stateMutability": "view",
      "type": "function"
    },
    {
      "inputs": [],
      "name": "name",
      "outputs": [
        {
          "internalType": "string",
          "name": "",
          "type": "string"
        }
      ],
      "stateMutability": "view",
      "type": "function"
    },
    {
      "inputs": [
        {
          "internalType": "address",
          "name": "_strategy",
          "type": "address"
        },
        {
          "internalType": "address",
          "name": "_sendToken",
          "type": "address"
        },
        {
          "internalType": "uint256",
          "name": "_sendQuantity",
          "type": "uint256"
        },
        {
          "internalType": "address",
          "name": "_receiveToken",
          "type": "address"
        },
        {
          "internalType": "uint256",
          "name": "_minReceiveQuantity",
          "type": "uint256"
        },
        {
          "internalType": "address",
          "name": "_hopToken",
          "type": "address"
        }
      ],
      "name": "trade",
      "outputs": [],
      "stateMutability": "nonpayable",
      "type": "function"
    },
    {
      "inputs": [
        {
          "internalType": "address",
          "name": "_strategy",
          "type": "address"
        },
        {
          "internalType": "address",
          "name": "_sendToken",
          "type": "address"
        },
        {
          "internalType": "uint256",
          "name": "_sendQuantity",
          "type": "uint256"
        },
        {
          "internalType": "address",
          "name": "_receiveToken",
          "type": "address"
        },
        {
          "internalType": "uint256",
          "name": "_minReceiveQuantity",
          "type": "uint256"
        }
      ],
      "name": "trade",
      "outputs": [],
      "stateMutability": "nonpayable",
      "type": "function"
    }
  ],
  "transactionHash": "0xa1942294c2fe3be17f5ca6755f3b53870e6aae59815fb384b90ecd4d49a4f3f3",
  "args": [
    "0xD4a5b5fcB561dAF3aDF86F8477555B92FBa43b5F"
  ],
  "numDeployments": 1,
  "solcInputHash": "8a1ef33bb109c80c3d35285d9fd4d00c",
  "bytecode": "0x60a06040523480156200001157600080fd5b5060405162001a3b38038062001a3b833981016040819052620000349162000196565b60408051808201909152600b81526a68656172745f747261646560a81b60208201528181816001600160a01b038116620000b5576040805162461bcd60e51b815260206004820152601a60248201527f436f6e74726f6c6c6572206d75737420626520646566696e6564000000000000604482015290519081900360640190fd5b8151620000ca906000906020850190620000ea565b5060601b6001600160601b03191660805250506001805550620001c69050565b828054600181600116156101000203166002900490600052602060002090601f0160209004810192826200012257600085556200016d565b82601f106200013d57805160ff19168380011785556200016d565b828001600101855582156200016d579182015b828111156200016d57825182559160200191906001019062000150565b506200017b9291506200017f565b5090565b5b808211156200017b576000815560010162000180565b600060208284031215620001a8578081fd5b81516001600160a01b0381168114620001bf578182fd5b9392505050565b60805160601c611843620001f8600039806101b752806102965280610335528061112252806111ce52506118436000f3fe608060405234801561001057600080fd5b506004361061004c5760003560e01c806306fdde0314610051578063f694c75c1461006f578063f77c479114610084578063fa1ca82014610099575b600080fd5b6100596100ac565b6040516100669190611777565b60405180910390f35b61008261007d3660046116db565b61013a565b005b61008c610294565b6040516100669190611763565b6100826100a7366004611681565b6102b8565b6000805460408051602060026001851615610100026000190190941693909304601f810184900484028201840190925281815292918301828280156101325780601f1061010757610100808354040283529160200191610132565b820191906000526020600020905b81548152906001019060200180831161011557829003601f168201915b505050505081565b60026001541415610192576040805162461bcd60e51b815260206004820152601f60248201527f5265656e7472616e637947756172643a207265656e7472616e742063616c6c00604482015290519081900360640190fd5b6002600155604080516313bc6d4b60e01b815233600482015290516001600160a01b037f000000000000000000000000000000000000000000000000000000000000000016916313bc6d4b916024808301926020929190829003018186803b1580156101fd57600080fd5b505afa158015610211573d6000803e3d6000fd5b505050506040513d602081101561022757600080fd5b505161027a576040805162461bcd60e51b815260206004820152601960248201527f4f6e6c792073797374656d2063616e2063616c6c207468697300000000000000604482015290519081900360640190fd5b610288868686868686610412565b50506001805550505050565b7f000000000000000000000000000000000000000000000000000000000000000081565b60026001541415610310576040805162461bcd60e51b815260206004820152601f60248201527f5265656e7472616e637947756172643a207265656e7472616e742063616c6c00604482015290519081900360640190fd5b6002600155604080516313bc6d4b60e01b815233600482015290516001600160a01b037f000000000000000000000000000000000000000000000000000000000000000016916313bc6d4b916024808301926020929190829003018186803b15801561037b57600080fd5b505afa15801561038f573d6000803e3d6000fd5b505050506040513d60208110156103a557600080fd5b50516103f8576040805162461bcd60e51b815260206004820152601960248201527f4f6e6c792073797374656d2063616e2063616c6c207468697300000000000000604482015290519081900360640190fd5b61040785858585856000610412565b505060018055505050565b6000805460408051602060026001851615610100026000190190941693909304601f81018490048402820184019092528181526104ac928a92859183018282801561049e5780601f106104735761010080835404028352916020019161049e565b820191906000526020600020905b81548152906001019060200180831161048157829003601f168201915b505050505088878988610c99565b90506104b88186610f41565b60008060006104c889888a61105d565b919450925090506001600160a01b038316156107405760006104e984611075565b6001600160a01b03161461058c5783602001516001600160a01b03166397ccdc6061051385611075565b86606001518760c001516040518463ffffffff1660e01b815260040180846001600160a01b03168152602001836001600160a01b031681526020018281526020019350505050600060405180830381600087803b15801561057357600080fd5b505af1158015610587573d6000803e3d6000fd5b505050505b83602001516001600160a01b0316636bc195dd8484846040518463ffffffff1660e01b815260040180846001600160a01b0316815260200183815260200180602001828103825283818151815260200191508051906020019080838360005b838110156106035781810151838201526020016105eb565b50505050905090810190601f1680156106305780820380516001836020036101000a031916815260200191505b50945050505050600060405180830381600087803b15801561065157600080fd5b505af1158015610665573d6000803e3d6000fd5b505050506040513d6000823e601f3d908101601f19168201604052602081101561068e57600080fd5b81019080805160405193929190846401000000008211156106ae57600080fd5b9083019060208201858111156106c357600080fd5b82516401000000008111828201881017156106dd57600080fd5b82525081516020918201929091019080838360005b8381101561070a5781810151838201526020016106f2565b50505050905090810190601f1680156107375780820380516001836020036101000a031916815260200191505b50604052505050505b600080806001600160a01b03881661076f5761076a8d88606001518960c001518a6080015161107b565b610788565b6107888d88606001518960c001518a608001518c6111ad565b919450925090506001600160a01b038316156109e65786602001516001600160a01b03166397ccdc606107ba856111ca565b89606001518a60c001516040518463ffffffff1660e01b815260040180846001600160a01b03168152602001836001600160a01b031681526020018281526020019350505050600060405180830381600087803b15801561081a57600080fd5b505af115801561082e573d6000803e3d6000fd5b5050505086602001516001600160a01b0316636bc195dd8484846040518463ffffffff1660e01b815260040180846001600160a01b0316815260200183815260200180602001828103825283818151815260200191508051906020019080838360005b838110156108a9578181015183820152602001610891565b50505050905090810190601f1680156108d65780820380516001836020036101000a031916815260200191505b50945050505050600060405180830381600087803b1580156108f757600080fd5b505af115801561090b573d6000803e3d6000fd5b505050506040513d6000823e601f3d908101601f19168201604052602081101561093457600080fd5b810190808051604051939291908464010000000082111561095457600080fd5b90830190602082018581111561096957600080fd5b825164010000000081118282018810171561098357600080fd5b82525081516020918201929091019080838360005b838110156109b0578181015183820152602001610998565b50505050905090810190601f1680156109dd5780820380516001836020036101000a031916815260200191505b50604052505050505b60006109fa8e6109f58d611263565b611266565b9050610a078d8c8361105d565b919850965094506001600160a01b03871615610c7f576000610a2888611075565b6001600160a01b031614610acb5787602001516001600160a01b03166397ccdc60610a5289611075565b610a5b8e611263565b846040518463ffffffff1660e01b815260040180846001600160a01b03168152602001836001600160a01b031681526020018281526020019350505050600060405180830381600087803b158015610ab257600080fd5b505af1158015610ac6573d6000803e3d6000fd5b505050505b87602001516001600160a01b0316636bc195dd8888886040518463ffffffff1660e01b815260040180846001600160a01b0316815260200183815260200180602001828103825283818151815260200191508051906020019080838360005b83811015610b42578181015183820152602001610b2a565b50505050905090810190601f168015610b6f5780820380516001836020036101000a031916815260200191505b50945050505050600060405180830381600087803b158015610b9057600080fd5b505af1158015610ba4573d6000803e3d6000fd5b505050506040513d6000823e601f3d908101601f191682016040526020811015610bcd57600080fd5b8101908080516040519392919084640100000000821115610bed57600080fd5b908301906020820185811115610c0257600080fd5b8251640100000000811182820188101715610c1c57600080fd5b82525081516020918201929091019080838360005b83811015610c49578181015183820152602001610c31565b50505050905090810190601f168015610c765780820380516001836020036101000a031916815260200191505b50604052505050505b610c8888611330565b505050505050505050505050505050565b610ca16115ee565b610ca96115ee565b6001600160a01b038816602080830182905260408051630ad7511760e31b815290516356ba88b892600480840193919291829003018186803b158015610cee57600080fd5b505afa158015610d02573d6000803e3d6000fd5b505050506040513d6020811015610d1857600080fd5b50516001600160a01b0390811682526040808301899052878216606084015286821660808401526020838101518251630ad7511760e31b815292519316926356ba88b8926004808201939291829003018186803b158015610d7857600080fd5b505afa158015610d8c573d6000803e3d6000fd5b505050506040513d6020811015610da257600080fd5b5051604080517f18160ddd00000000000000000000000000000000000000000000000000000000815290516001600160a01b03909216916318160ddd91600480820192602092909190829003018186803b158015610dff57600080fd5b505afa158015610e13573d6000803e3d6000fd5b505050506040513d6020811015610e2957600080fd5b505160a082015260c0810184905260e08101839052604080516370a0823160e01b81526001600160a01b038a811660048301529151918816916370a0823191602480820192602092909190829003018186803b158015610e8857600080fd5b505afa158015610e9c573d6000803e3d6000fd5b505050506040513d6020811015610eb257600080fd5b5051610100820152604080516370a0823160e01b81526001600160a01b038a811660048301529151918716916370a0823191602480820192602092909190829003018186803b158015610f0457600080fd5b505afa158015610f18573d6000803e3d6000fd5b505050506040513d6020811015610f2e57600080fd5b5051610120820152979650505050505050565b60008260c0015111610f9a576040805162461bcd60e51b815260206004820152601d60248201527f546f6b656e20746f2073656c6c206d757374206265206e6f6e7a65726f000000604482015290519081900360640190fd5b8082606001516001600160a01b03166370a0823184602001516040518263ffffffff1660e01b815260040180826001600160a01b0316815260200191505060206040518083038186803b158015610ff057600080fd5b505afa158015611004573d6000803e3d6000fd5b505050506040513d602081101561101a57600080fd5b505110156110595760405162461bcd60e51b815260040180806020018281038252602b8152602001806117e3602b913960400191505060405180910390fd5b5050565b50506040805160208101909152600080825292839250565b50600090565b60008060606000868660405160240161109592919061174a565b60408051601f19818403018152918152602080830180517bffffffffffffffffffffffffffffffffffffffffffffffffffffffff167ff30fd0200000000000000000000000000000000000000000000000000000000017905281517ff58d1c9400000000000000000000000000000000000000000000000000000000815291519293506001600160a01b037f0000000000000000000000000000000000000000000000000000000000000000169263f58d1c94926004808201939291829003018186803b15801561116557600080fd5b505afa158015611179573d6000803e3d6000fd5b505050506040513d601f19601f8201168201806040525081019061119d9190611665565b9860009850909650945050505050565b505060408051602081019091526000808252948594509092509050565b60007f00000000000000000000000000000000000000000000000000000000000000006001600160a01b031663f58d1c946040518163ffffffff1660e01b815260040160206040518083038186803b15801561122557600080fd5b505afa158015611239573d6000803e3d6000fd5b505050506040513d601f19601f8201168201806040525081019061125d9190611665565b92915050565b90565b60006001600160a01b038216158061129a57506001600160a01b03821673eeeeeeeeeeeeeeeeeeeeeeeeeeeeeeeeeeeeeeee145b156112b057506001600160a01b0382163161125d565b816001600160a01b03166370a08231846040518263ffffffff1660e01b815260040180826001600160a01b0316815260200191505060206040518083038186803b1580156112fd57600080fd5b505afa158015611311573d6000803e3d6000fd5b505050506040513d602081101561132757600080fd5b50519392505050565b6000806113c383610120015184608001516001600160a01b03166370a0823186602001516040518263ffffffff1660e01b815260040180826001600160a01b0316815260200191505060206040518083038186803b15801561139157600080fd5b505afa1580156113a5573d6000803e3d6000fd5b505050506040513d60208110156113bb57600080fd5b50519061152e565b9050600083606001516001600160a01b03166370a0823185602001516040518263ffffffff1660e01b815260040180826001600160a01b0316815260200191505060206040518083038186803b15801561141c57600080fd5b505afa158015611430573d6000803e3d6000fd5b505050506040513d602081101561144657600080fd5b505161010085015190915060009061145e908361152e565b60c086015190915061147890670c7d713b49da000061153e565b8110156114cc576040805162461bcd60e51b815260206004820152601960248201527f5061727469616c207472616465206e6f7420616c6c6f77656400000000000000604482015290519081900360640190fd5b8460e00151831015611525576040805162461bcd60e51b815260206004820152601d60248201527f536c6970706167652067726561746572207468616e20616c6c6f776564000000604482015290519081900360640190fd5b50909392505050565b8082038281111561125d57600080fd5b600061155c670de0b6b3a76400006115568585611563565b90611587565b9392505050565b600082158061157e5750508181028183828161157b57fe5b04145b61125d57600080fd5b60008082116115dd576040805162461bcd60e51b815260206004820152601a60248201527f536166654d6174683a206469766973696f6e206279207a65726f000000000000604482015290519081900360640190fd5b8183816115e657fe5b049392505050565b60405180610140016040528060006001600160a01b0316815260200160006001600160a01b031681526020016060815260200160006001600160a01b0316815260200160006001600160a01b0316815260200160008152602001600081526020016000815260200160008152602001600081525090565b600060208284031215611676578081fd5b815161155c816117ca565b600080600080600060a08688031215611698578081fd5b85356116a3816117ca565b945060208601356116b3816117ca565b93506040860135925060608601356116ca816117ca565b949793965091946080013592915050565b60008060008060008060c087890312156116f3578081fd5b86356116fe816117ca565b9550602087013561170e816117ca565b9450604087013593506060870135611725816117ca565b92506080870135915060a087013561173c816117ca565b809150509295509295509295565b6001600160a01b03929092168252602082015260400190565b6001600160a01b0391909116815260200190565b6000602080835283518082850152825b818110156117a357858101830151858201604001528201611787565b818111156117b45783604083870101525b50601f01601f1916929092016040019392505050565b6001600160a01b03811681146117df57600080fd5b5056fe5374726174656779206e6565647320746f206861766520656e6f756768206c697175696420746f6b656e73a26469706673582212200bae5cbb94b6d81349995b0f57f585ec5970f97609dbe8968d531206926c5c7b64736f6c63430007060033",
  "devdoc": {
    "author": "Babylon Finance Protocol Heart trade integration. Heart buys protocol wanted assets",
    "kind": "dev",
    "methods": {
      "constructor": {
        "params": {
          "_controller": "Address of the controller"
        }
      },
      "trade(address,address,uint256,address,uint256)": {
        "details": "@param _strategy             Address of the strategy",
        "params": {
          "_minReceiveQuantity": "Min units of wanted token to be received from the exchange",
          "_receiveToken": "Address of the token that will be received from the exchange",
          "_sendQuantity": "Units of reserve asset token sent to the exchange",
          "_sendToken": "Address of the token to be sent to the exchange"
        }
      },
      "trade(address,address,uint256,address,uint256,address)": {
        "details": "@param _strategy             Address of the strategy",
        "params": {
          "_minReceiveQuantity": "Min units of wanted token to be received from the exchange",
          "_receiveToken": "Address of the token that will be received from the exchange",
          "_sendQuantity": "Units of reserve asset token sent to the exchange",
          "_sendToken": "Address of the token to be sent to the exchange"
        }
      }
    },
    "title": "Heart Trade Integration",
    "version": 1
  },
  "userdoc": {
    "kind": "user",
    "methods": {
      "constructor": {
        "notice": "Creates the integration"
      },
      "trade(address,address,uint256,address,uint256)": {
        "notice": "Executes a trade on a supported DEX."
      },
      "trade(address,address,uint256,address,uint256,address)": {
        "notice": "Executes a trade on a supported DEX."
      }
    },
    "version": 1
  },
  "storageLayout": {
    "storage": [
      {
        "astId": 27197,
        "contract": "contracts/integrations/trade/HeartTradeIntegration.sol:HeartTradeIntegration",
        "label": "name",
        "offset": 0,
        "slot": "0",
        "type": "t_string_storage"
      },
      {
        "astId": 6418,
        "contract": "contracts/integrations/trade/HeartTradeIntegration.sol:HeartTradeIntegration",
        "label": "_status",
        "offset": 0,
        "slot": "1",
        "type": "t_uint256"
      }
    ],
    "types": {
      "t_string_storage": {
        "encoding": "bytes",
        "label": "string",
        "numberOfBytes": "32"
      },
      "t_uint256": {
        "encoding": "inplace",
        "label": "uint256",
        "numberOfBytes": "32"
      }
    }
  }
}