{
  "address": "0xeA872D296569Ae9b016d8F6bDd49a1402D9e159E",
  "abi": [
    {
      "inputs": [
        {
          "internalType": "contract IBabController",
          "name": "_controller",
          "type": "address"
        },
        {
          "internalType": "contract IGovernor",
          "name": "_governor",
          "type": "address"
        }
      ],
      "stateMutability": "nonpayable",
      "type": "constructor"
    },
    {
      "anonymous": false,
      "inputs": [
        {
          "indexed": false,
          "internalType": "uint256",
          "name": "_timestamp",
          "type": "uint256"
        },
        {
          "indexed": false,
          "internalType": "uint256",
          "name": "_bablSent",
          "type": "uint256"
        }
      ],
      "name": "BABLRewardSent",
      "type": "event"
    },
    {
      "anonymous": false,
      "inputs": [
        {
          "indexed": false,
          "internalType": "uint256",
          "name": "_timestamp",
          "type": "uint256"
        },
        {
          "indexed": false,
          "internalType": "uint256",
          "name": "_wethSpent",
          "type": "uint256"
        },
        {
          "indexed": false,
          "internalType": "uint256",
          "name": "_bablBought",
          "type": "uint256"
        }
      ],
      "name": "BablBuyback",
      "type": "event"
    },
    {
      "anonymous": false,
      "inputs": [
        {
          "indexed": false,
          "internalType": "uint256",
          "name": "_timestamp",
          "type": "uint256"
        },
        {
          "indexed": false,
          "internalType": "uint256",
          "name": "_amount",
          "type": "uint256"
        }
      ],
      "name": "FeesCollected",
      "type": "event"
    },
    {
      "anonymous": false,
      "inputs": [
        {
          "indexed": false,
          "internalType": "uint256",
          "name": "_timestamp",
          "type": "uint256"
        },
        {
          "indexed": true,
          "internalType": "address",
          "name": "_asset",
          "type": "address"
        },
        {
          "indexed": false,
          "internalType": "uint256",
          "name": "_assetAmount",
          "type": "uint256"
        }
      ],
      "name": "FuseLentAsset",
      "type": "event"
    },
    {
      "anonymous": false,
      "inputs": [
        {
          "indexed": false,
          "internalType": "uint256",
          "name": "_timestamp",
          "type": "uint256"
        },
        {
          "indexed": true,
          "internalType": "address",
          "name": "_garden",
          "type": "address"
        },
        {
          "indexed": false,
          "internalType": "uint256",
          "name": "_wethInvested",
          "type": "uint256"
        }
      ],
      "name": "GardenSeedInvest",
      "type": "event"
    },
    {
      "anonymous": false,
      "inputs": [
        {
          "indexed": false,
          "internalType": "uint256",
          "name": "_timestamp",
          "type": "uint256"
        },
        {
          "indexed": false,
          "internalType": "uint256",
          "name": "_wethBalance",
          "type": "uint256"
        },
        {
          "indexed": false,
          "internalType": "uint256",
          "name": "_bablBalance",
          "type": "uint256"
        }
      ],
      "name": "LiquidityAdded",
      "type": "event"
    },
    {
      "anonymous": false,
      "inputs": [
        {
          "indexed": true,
          "internalType": "address",
          "name": "previousOwner",
          "type": "address"
        },
        {
          "indexed": true,
          "internalType": "address",
          "name": "newOwner",
          "type": "address"
        }
      ],
      "name": "OwnershipTransferred",
      "type": "event"
    },
    {
      "anonymous": false,
      "inputs": [
        {
          "indexed": false,
          "internalType": "uint256",
          "name": "_timestamp",
          "type": "uint256"
        },
        {
          "indexed": false,
          "internalType": "uint256",
          "name": "_proposalId",
          "type": "uint256"
        },
        {
          "indexed": false,
          "internalType": "bool",
          "name": "_isApprove",
          "type": "bool"
        }
      ],
      "name": "ProposalVote",
      "type": "event"
    },
    {
      "anonymous": false,
      "inputs": [
        {
          "indexed": false,
          "internalType": "uint256",
          "name": "_timestamp",
          "type": "uint256"
        }
      ],
      "name": "UpdatedGardenWeights",
      "type": "event"
    },
    {
      "inputs": [
        {
          "internalType": "uint256",
          "name": "_bablAmount",
          "type": "uint256"
        },
        {
          "internalType": "uint256",
          "name": "_weeklyRate",
          "type": "uint256"
        }
      ],
      "name": "addReward",
      "outputs": [],
      "stateMutability": "nonpayable",
      "type": "function"
    },
    {
      "inputs": [],
      "name": "assetForPurchases",
      "outputs": [
        {
          "internalType": "address",
          "name": "",
          "type": "address"
        }
      ],
      "stateMutability": "view",
      "type": "function"
    },
    {
      "inputs": [
        {
          "internalType": "address",
          "name": "",
          "type": "address"
        }
      ],
      "name": "assetToCToken",
      "outputs": [
        {
          "internalType": "address",
          "name": "",
          "type": "address"
        }
      ],
      "stateMutability": "view",
      "type": "function"
    },
    {
      "inputs": [],
      "name": "assetToLend",
      "outputs": [
        {
          "internalType": "address",
          "name": "",
          "type": "address"
        }
      ],
      "stateMutability": "view",
      "type": "function"
    },
    {
      "inputs": [],
      "name": "bablRewardLeft",
      "outputs": [
        {
          "internalType": "uint256",
          "name": "",
          "type": "uint256"
        }
      ],
      "stateMutability": "view",
      "type": "function"
    },
    {
      "inputs": [
        {
          "internalType": "address",
          "name": "_assetToBorrow",
          "type": "address"
        },
        {
          "internalType": "uint256",
          "name": "_borrowAmount",
          "type": "uint256"
        }
      ],
      "name": "borrowFusePool",
      "outputs": [],
      "stateMutability": "nonpayable",
      "type": "function"
    },
    {
      "inputs": [
        {
          "internalType": "uint256",
          "name": "",
          "type": "uint256"
        }
      ],
      "name": "feeDistributionWeights",
      "outputs": [
        {
          "internalType": "uint256",
          "name": "",
          "type": "uint256"
        }
      ],
      "stateMutability": "view",
      "type": "function"
    },
    {
      "inputs": [
        {
          "internalType": "uint256",
          "name": "",
          "type": "uint256"
        }
      ],
      "name": "gardenWeights",
      "outputs": [
        {
          "internalType": "uint256",
          "name": "",
          "type": "uint256"
        }
      ],
      "stateMutability": "view",
      "type": "function"
    },
    {
      "inputs": [],
      "name": "getFeeDistributionWeights",
      "outputs": [
        {
          "internalType": "uint256[]",
          "name": "",
          "type": "uint256[]"
        }
      ],
      "stateMutability": "view",
      "type": "function"
    },
    {
      "inputs": [],
      "name": "getGardenWeights",
      "outputs": [
        {
          "internalType": "uint256[]",
          "name": "",
          "type": "uint256[]"
        }
      ],
      "stateMutability": "view",
      "type": "function"
    },
    {
      "inputs": [],
      "name": "getTotalStats",
      "outputs": [
        {
          "internalType": "uint256[7]",
          "name": "",
          "type": "uint256[7]"
        }
      ],
      "stateMutability": "view",
      "type": "function"
    },
    {
      "inputs": [],
      "name": "getVotedGardens",
      "outputs": [
        {
          "internalType": "address[]",
          "name": "",
          "type": "address[]"
        }
      ],
      "stateMutability": "view",
      "type": "function"
    },
    {
      "inputs": [],
      "name": "heartGarden",
      "outputs": [
        {
          "internalType": "contract IGarden",
          "name": "",
          "type": "address"
        }
      ],
      "stateMutability": "view",
      "type": "function"
    },
    {
      "inputs": [
        {
          "internalType": "uint256[]",
          "name": "_feeWeights",
          "type": "uint256[]"
        }
      ],
      "name": "initialize",
      "outputs": [],
      "stateMutability": "nonpayable",
      "type": "function"
    },
    {
      "inputs": [],
      "name": "lastPumpAt",
      "outputs": [
        {
          "internalType": "uint256",
          "name": "",
          "type": "uint256"
        }
      ],
      "stateMutability": "view",
      "type": "function"
    },
    {
      "inputs": [],
      "name": "lastVotesAt",
      "outputs": [
        {
          "internalType": "uint256",
          "name": "",
          "type": "uint256"
        }
      ],
      "stateMutability": "view",
      "type": "function"
    },
    {
      "inputs": [
        {
          "internalType": "address",
          "name": "_assetToLend",
          "type": "address"
        },
        {
          "internalType": "uint256",
          "name": "_lendAmount",
          "type": "uint256"
        }
      ],
      "name": "lendFusePool",
      "outputs": [],
      "stateMutability": "nonpayable",
      "type": "function"
    },
    {
      "inputs": [
        {
          "internalType": "address",
          "name": "",
          "type": "address"
        }
      ],
      "name": "minAmounts",
      "outputs": [
        {
          "internalType": "uint256",
          "name": "",
          "type": "uint256"
        }
      ],
      "stateMutability": "view",
      "type": "function"
    },
    {
      "inputs": [],
      "name": "owner",
      "outputs": [
        {
          "internalType": "address",
          "name": "",
          "type": "address"
        }
      ],
      "stateMutability": "view",
      "type": "function"
    },
    {
      "inputs": [],
      "name": "pump",
      "outputs": [],
      "stateMutability": "nonpayable",
      "type": "function"
    },
    {
      "inputs": [],
      "name": "renounceOwnership",
      "outputs": [],
      "stateMutability": "nonpayable",
      "type": "function"
    },
    {
      "inputs": [
        {
          "internalType": "address[]",
          "name": "_gardens",
          "type": "address[]"
        },
        {
          "internalType": "uint256[]",
          "name": "_weights",
          "type": "uint256[]"
        }
      ],
      "name": "resolveGardenVotes",
      "outputs": [],
      "stateMutability": "nonpayable",
      "type": "function"
    },
    {
      "inputs": [
        {
          "internalType": "address[]",
          "name": "_gardens",
          "type": "address[]"
        },
        {
          "internalType": "uint256[]",
          "name": "_weights",
          "type": "uint256[]"
        }
      ],
      "name": "resolveGardenVotesAndPump",
      "outputs": [],
      "stateMutability": "nonpayable",
      "type": "function"
    },
    {
      "inputs": [
        {
          "internalType": "address",
          "name": "_assetToSell",
          "type": "address"
        },
        {
          "internalType": "uint256",
          "name": "_amountToSell",
          "type": "uint256"
        }
      ],
      "name": "sellWantedAssetToHeart",
      "outputs": [],
      "stateMutability": "nonpayable",
      "type": "function"
    },
    {
      "inputs": [
        {
          "internalType": "address",
          "name": "_heartGarden",
          "type": "address"
        }
      ],
      "name": "setHeartGardenAddress",
      "outputs": [],
      "stateMutability": "nonpayable",
      "type": "function"
    },
    {
      "inputs": [
        {
          "internalType": "address",
          "name": "_asset",
          "type": "address"
        },
        {
          "internalType": "uint256",
          "name": "_minAmount",
          "type": "uint256"
        }
      ],
      "name": "setMinTradeAmount",
      "outputs": [],
      "stateMutability": "nonpayable",
      "type": "function"
    },
    {
      "inputs": [
        {
          "internalType": "uint256",
          "name": "_tradeSlippage",
          "type": "uint256"
        }
      ],
      "name": "setTradeSlippage",
      "outputs": [],
      "stateMutability": "nonpayable",
      "type": "function"
    },
    {
      "inputs": [
        {
          "internalType": "uint256",
          "name": "",
          "type": "uint256"
        }
      ],
      "name": "totalStats",
      "outputs": [
        {
          "internalType": "uint256",
          "name": "",
          "type": "uint256"
        }
      ],
      "stateMutability": "view",
      "type": "function"
    },
    {
      "inputs": [],
      "name": "tradeSlippage",
      "outputs": [
        {
          "internalType": "uint256",
          "name": "",
          "type": "uint256"
        }
      ],
      "stateMutability": "view",
      "type": "function"
    },
    {
      "inputs": [
        {
          "internalType": "address",
          "name": "newOwner",
          "type": "address"
        }
      ],
      "name": "transferOwnership",
      "outputs": [],
      "stateMutability": "nonpayable",
      "type": "function"
    },
    {
      "inputs": [
        {
          "internalType": "address",
          "name": "_assetToLend",
          "type": "address"
        }
      ],
      "name": "updateAssetToLend",
      "outputs": [],
      "stateMutability": "nonpayable",
      "type": "function"
    },
    {
      "inputs": [
        {
          "internalType": "address",
          "name": "_purchaseAsset",
          "type": "address"
        }
      ],
      "name": "updateAssetToPurchase",
      "outputs": [],
      "stateMutability": "nonpayable",
      "type": "function"
    },
    {
      "inputs": [
        {
          "internalType": "uint256[]",
          "name": "_feeWeights",
          "type": "uint256[]"
        }
      ],
      "name": "updateFeeWeights",
      "outputs": [],
      "stateMutability": "nonpayable",
      "type": "function"
    },
    {
      "inputs": [],
      "name": "updateMarkets",
      "outputs": [],
      "stateMutability": "nonpayable",
      "type": "function"
    },
    {
      "inputs": [
        {
          "internalType": "uint256",
          "name": "_proposalId",
          "type": "uint256"
        },
        {
          "internalType": "bool",
          "name": "_isApprove",
          "type": "bool"
        }
      ],
      "name": "voteProposal",
      "outputs": [],
      "stateMutability": "nonpayable",
      "type": "function"
    },
    {
      "inputs": [
        {
          "internalType": "uint256",
          "name": "",
          "type": "uint256"
        }
      ],
      "name": "votedGardens",
      "outputs": [
        {
          "internalType": "address",
          "name": "",
          "type": "address"
        }
      ],
      "stateMutability": "view",
      "type": "function"
    },
    {
      "inputs": [],
      "name": "weeklyRewardAmount",
      "outputs": [
        {
          "internalType": "uint256",
          "name": "",
          "type": "uint256"
        }
      ],
      "stateMutability": "view",
      "type": "function"
    },
    {
      "stateMutability": "payable",
      "type": "receive"
    }
  ],
  "transactionHash": "0x6b011347bcc93ed7116db67d94515a4009e85663c1849547709bd13809619ad8",
  "args": [
    "0xD4a5b5fcB561dAF3aDF86F8477555B92FBa43b5F",
    "0xBEC3de5b14902C660Bd2C7EfD2F259998424cc24"
  ],
  "numDeployments": 1,
  "solcInputHash": "c82f0c2162f71ad0152ea6148afe1725",
  "bytecode": "0x60e06040523480156200001157600080fd5b5060405162004d5f38038062004d5f833981016040819052620000349162000279565b60005482908290610100900460ff168062000054575062000054620001c7565b8062000063575060005460ff16155b620000a05760405162461bcd60e51b815260040180806020018281038252602e81526020018062004d31602e913960400191505060405180910390fd5b600054610100900460ff16158015620000cc576000805460ff1961ff0019909116610100171660011790555b620000e46001600160a01b03841615156017620001e5565b620000fc6001600160a01b03831615156017620001e5565b826001600160a01b03166080816001600160a01b031660601b81525050826001600160a01b03166361d027b36040518163ffffffff1660e01b815260040160206040518083038186803b1580156200015357600080fd5b505afa15801562000168573d6000803e3d6000fd5b505050506040513d601f19601f820116820180604052508101906200018e919062000253565b6001600160601b0319606091821b811660c0529083901b1660a0528015620001bc576000805461ff00191690555b5050505050620002d0565b6000620001df30620001fa60201b62001c141760201c565b15905090565b81620001f657620001f68162000200565b5050565b3b151590565b62461bcd60e51b6000908152602060045260076024526642414223000030600a808404818106603090810160081b95839006959095019082900491820690940160101b939093010160c81b604452606490fd5b60006020828403121562000265578081fd5b81516200027281620002b7565b9392505050565b600080604083850312156200028c578081fd5b82516200029981620002b7565b6020840151909250620002ac81620002b7565b809150509250929050565b6001600160a01b0381168114620002cd57600080fd5b50565b60805160601c60a05160601c60c05160601c6149c26200036f60003980610aa2528061222a5280612458528061252252806125ca528061269652508061125c52508061081e5280610c0c5280610c5a5280610d4a5280610d8b5280610e0c528061114d52806112035280611368528061160852806117e5528061189b52806119685280611c4e5280611e295280612bd95280612fa052506149c26000f3fe60806040526004361061026e5760003560e01c8063730fa8c411610153578063bd59c9b0116100cb578063dac5a9951161007f578063f2fde38b11610064578063f2fde38b14610654578063f30fd02014610674578063fc5cbf1d1461069457610275565b8063dac5a9951461061f578063ed63f9191461063457610275565b8063cddb7148116100b0578063cddb7148146105d5578063cfd2dc99146105ea578063d9cf443b146105ff57610275565b8063bd59c9b014610595578063bd61d4fd146105b557610275565b8063a25db51611610122578063a775efa511610107578063a775efa514610540578063b1beb88d14610555578063bcfb9b611461057557610275565b8063a25db5161461050b578063a350fe071461052b57610275565b8063730fa8c4146104a157806375c93bb9146104b65780638da5cb5b146104d65780639c5e52d5146104eb57610275565b806343fce074116101e657806362f0e8dc116101b55780636be2f2671161019a5780636be2f267146104575780636fe0e5591461046c578063715018a61461048c57610275565b806362f0e8dc1461042257806365f7f6481461044257610275565b806343fce074146103a0578063564e4bab146103c05780635acaaef3146103e257806361cab7121461040257610275565b806335d10b611161023d578063395ea61b11610222578063395ea61b146103565780633f1ee1671461036b57806340e016501461038057610275565b806335d10b6114610314578063394abf451461033457610275565b8063081ab4c21461027a57806308de5fc6146102a557806319c92094146102c75780633550bd62146102e757610275565b3661027557005b600080fd5b34801561028657600080fd5b5061028f6106b6565b60405161029c919061452f565b60405180910390f35b3480156102b157600080fd5b506102c56102c0366004614180565b610718565b005b3480156102d357600080fd5b506102c56102e23660046140bc565b610819565b3480156102f357600080fd5b50610307610302366004614084565b610945565b60405161029c91906144c0565b34801561032057600080fd5b5061030761032f366004614376565b610960565b34801561034057600080fd5b5061034961098a565b60405161029c91906147e4565b34801561036257600080fd5b506102c5610990565b34801561037757600080fd5b50610307610bf8565b34801561038c57600080fd5b506102c561039b3660046140bc565b610c07565b3480156103ac57600080fd5b506102c56103bb366004614084565b610c55565b3480156103cc57600080fd5b506103d5610cee565b60405161029c91906145ad565b3480156103ee57600080fd5b506102c56103fd3660046140bc565b610d45565b34801561040e57600080fd5b506102c561041d366004614240565b610d86565b34801561042e57600080fd5b506102c561043d366004614376565b610e07565b34801561044e57600080fd5b50610307610e3e565b34801561046357600080fd5b50610307610e4d565b34801561047857600080fd5b506102c5610487366004614240565b610e5c565b34801561049857600080fd5b506102c5611084565b3480156104ad57600080fd5b50610349611142565b3480156104c257600080fd5b506102c56104d13660046143d5565b611148565b3480156104e257600080fd5b506103076111b0565b3480156104f757600080fd5b50610349610506366004614084565b6111bf565b34801561051757600080fd5b50610349610526366004614376565b6111d1565b34801561053757600080fd5b506103496111f2565b34801561054c57600080fd5b506103496111f8565b34801561056157600080fd5b506102c5610570366004614084565b6111fe565b34801561058157600080fd5b506102c56105903660046143a6565b611252565b3480156105a157600080fd5b506103496105b0366004614376565b61133c565b3480156105c157600080fd5b506103496105d0366004614376565b611353565b3480156105e157600080fd5b506102c5611363565b3480156105f657600080fd5b506103d56115ad565b34801561060b57600080fd5b506102c561061a366004614084565b611603565b34801561062b57600080fd5b50610349611688565b34801561064057600080fd5b506102c561064f366004614180565b61168e565b34801561066057600080fd5b506102c561066f366004614084565b6116a0565b34801561068057600080fd5b506102c561068f3660046140bc565b6117b5565b3480156106a057600080fd5b506106a9611bde565b60405161029c919061457c565b6060606680548060200260200160405190810160405280929190818152602001828054801561070e57602002820191906000526020600020905b81546001600160a01b031681526001909101906020018083116106f0575b5050505050905090565b610720611c1a565b61072f81518351146070611cdc565b61073b60666000613fc3565b61074760676000613fc3565b60005b82518110156107d857606683828151811061076157fe5b60209081029190910181015182546001810184556000938452919092200180546001600160a01b0319166001600160a01b0390921691909117905581516067908390839081106107ad57fe5b602090810291909101810151825460018181018555600094855292909320909201919091550161074a565b5042606c8190556040517f39dc56f5c791d35313f12a8053a1cb6e24fdc18a55184d2f9f3dc00de3522f8b9161080d916147e4565b60405180910390a15050565b61084b7f00000000000000000000000000000000000000000000000000000000000000006001600160a01b0316611cea565b6001600160a01b03808316600090815260696020526040902054168061088c5760405162461bcd60e51b8152600401610883906145e5565b60405180910390fd5b6040517fc5ebeaec0000000000000000000000000000000000000000000000000000000081526001600160a01b0382169063c5ebeaec906108d19085906004016147e4565b602060405180830381600087803b1580156108eb57600080fd5b505af11580156108ff573d6000803e3d6000fd5b505050506040513d601f19601f82011682018060405250810190610923919061438e565b156109405760405162461bcd60e51b81526004016108839061471e565b505050565b6069602052600090815260409020546001600160a01b031681565b6066818154811061097057600080fd5b6000918252602090912001546001600160a01b0316905081565b606b5481565b6065546109a9906001600160a01b031615156073611cdc565b6109ce62093a806109c5606b5442611e0f90919063ffffffff16565b1015606d611cdc565b6109f262093a806109ea606c5442611e0f90919063ffffffff16565b10606e611cdc565b6109fa611e25565b6040516370a0823160e01b815260009073c02aaa39b223fe8d0a0e5c4f27ead9083c756cc2906370a0823190610a349030906004016144c0565b60206040518083038186803b158015610a4c57600080fd5b505afa158015610a60573d6000803e3d6000fd5b505050506040513d601f19601f82011682018060405250810190610a84919061438e565b9050610a9c6729a2241af62c0000821015606f611cdc565b610b09307f0000000000000000000000000000000000000000000000000000000000000000610aec606f600081548110610ad257fe5b90600052602060002001548561210890919063ffffffff16565b73c02aaa39b223fe8d0a0e5c4f27ead9083c756cc292919061212d565b610b44610b37606f600081548110610b1d57fe5b90600052602060002001548361210890919063ffffffff16565b607060015b0154906121a6565b607155606f8054610b6391610b5e916001908110610b1d57fe5b6121b6565b610b7c610b77606f600281548110610b1d57fe5b612298565b610b95610b90606f600381548110610b1d57fe5b612762565b610be973c02aaa39b223fe8d0a0e5c4f27ead9083c756cc2610bd8606f600481548110610bbe57fe5b90600052602060002001548461210890919063ffffffff16565b606a546001600160a01b031661295e565b610bf1612d67565b5042606b55565b6078546001600160a01b031681565b610c397f00000000000000000000000000000000000000000000000000000000000000006001600160a01b0316611cea565b6001600160a01b03909116600090815260686020526040902055565b610c877f00000000000000000000000000000000000000000000000000000000000000006001600160a01b0316611cea565b606a54610ca4906001600160a01b03838116911614156074611cdc565b6001600160a01b03818116600090815260696020526040902054610ccc911615156072611cdc565b606a80546001600160a01b0319166001600160a01b0392909216919091179055565b6060606f80548060200260200160405190810160405280929190818152602001828054801561070e57602002820191906000526020600020905b815481526020019060010190808311610d28575050505050905090565b610d777f00000000000000000000000000000000000000000000000000000000000000006001600160a01b0316611cea565b610d8282828461295e565b5050565b610db87f00000000000000000000000000000000000000000000000000000000000000006001600160a01b0316611cea565b610dc4606f6000613fc3565b60005b8181101561094057606f838383818110610ddd57fe5b83546001808201865560009586526020958690209290950293909301359201919091555001610dc7565b610e397f00000000000000000000000000000000000000000000000000000000000000006001600160a01b0316611cea565b607755565b6065546001600160a01b031681565b606a546001600160a01b031681565b600054610100900460ff1680610e755750610e75612eb3565b80610e83575060005460ff16155b610ebe5760405162461bcd60e51b815260040180806020018281038252602e81526020018061490b602e913960400191505060405180910390fd5b600054610100900460ff16158015610ee9576000805460ff1961ff0019909116610100171660011790555b610ef1612ec4565b610efb8383610d86565b610f03611363565b610f20736b175474e89094c44da98b954eedeac495271d0f610c55565b6068602052681b1ae4d6e2ef5000007f4d158bbfd95ee9a2dbb8c3a636c573b20dcaba9e72bb743c844cbd959c77df4a55631dcd65007fd98c4d2a11233789190aab6ba2d225b6bda4b59c2917636996ecacff26f3e69f556706f05b59d3b200007fccdc1587d0c86316e8986de7a983e28b085ec139bbb38b23b4194aea13c3886c55732260fac5e5542a773aa44fbcfedf7c193bc2c599600052622dc6c07fbb3572ea0c5a0fdc48a9bbcbc231cf5f7e7ec4ba06bf0dd23084ade8b950a16e556040517f5c19a95c00000000000000000000000000000000000000000000000000000000815273f4dc48d260c93ad6a96c5ce563e70ca578987c7490635c19a95c906110319030906004016144c0565b600060405180830381600087803b15801561104b57600080fd5b505af115801561105f573d6000803e3d6000fd5b50506658d15e1762800060775550508015610940576000805461ff0019169055505050565b61108c612f75565b6001600160a01b031661109d6111b0565b6001600160a01b0316146110f8576040805162461bcd60e51b815260206004820181905260248201527f4f776e61626c653a2063616c6c6572206973206e6f7420746865206f776e6572604482015290519081900360640190fd5b6033546040516000916001600160a01b0316907f8be0079c531659141344cd1fd0a4f28419497f9722a3daafe3b4186f6b6457e0908390a3603380546001600160a01b0319169055565b606c5481565b61117a7f00000000000000000000000000000000000000000000000000000000000000006001600160a01b0316611cea565b61119a73f4dc48d260c93ad6a96c5ce563e70ca578987c7433308561212d565b606e546111a790836121a6565b606e55606d5550565b6033546001600160a01b031690565b60686020526000908152604090205481565b606781815481106111e157600080fd5b600091825260209091200154905081565b60775481565b606e5481565b6112307f00000000000000000000000000000000000000000000000000000000000000006001600160a01b0316611cea565b606580546001600160a01b0319166001600160a01b0392909216919091179055565b61125a611c1a565b7f00000000000000000000000000000000000000000000000000000000000000006001600160a01b031663567813888383611296576000611299565b60015b6040518363ffffffff1660e01b81526004016112b6929190614848565b602060405180830381600087803b1580156112d057600080fd5b505af11580156112e4573d6000803e3d6000fd5b505050506040513d601f19601f82011682018060405250810190611308919061438e565b507fefa00395b2e0ff3ae4ff4742ac3a68646612107e164ca54a2b88dcc983f7252142838360405161080d9392919061481a565b6070816007811061134c57600080fd5b0154905081565b606f81815481106111e157600080fd5b6113957f00000000000000000000000000000000000000000000000000000000000000006001600160a01b0316611cea565b600073c7125e3a2925877c7371d579d29dae4729ac90336001600160a01b031663b0772d0b6040518163ffffffff1660e01b815260040160006040518083038186803b1580156113e457600080fd5b505afa1580156113f8573d6000803e3d6000fd5b505050506040513d6000823e601f3d908101601f1916820160405261142091908101906140e7565b905060005b815181101561150657600082828151811061143c57fe5b60200260200101516001600160a01b0316636f307dc36040518163ffffffff1660e01b815260040160206040518083038186803b15801561147c57600080fd5b505afa158015611490573d6000803e3d6000fd5b505050506040513d601f19601f820116820180604052508101906114b491906140a0565b90508282815181106114c257fe5b6020908102919091018101516001600160a01b0392831660009081526069909252604090912080546001600160a01b03191692909116919091179055600101611425565b506040517fc299823800000000000000000000000000000000000000000000000000000000815273c7125e3a2925877c7371d579d29dae4729ac90339063c29982389061155790849060040161452f565b600060405180830381600087803b15801561157157600080fd5b505af1158015611585573d6000803e3d6000fd5b505050506040513d6000823e601f3d908101601f19168201604052610d8291908101906142af565b6060606780548060200260200160405190810160405280929190818152602001828054801561070e5760200282019190600052602060002090815481526020019060010190808311610d28575050505050905090565b6116357f00000000000000000000000000000000000000000000000000000000000000006001600160a01b0316611cea565b607854611666906001600160a01b0383811691161480159061165f57506001600160a01b03821615155b6077611cdc565b607880546001600160a01b0319166001600160a01b0392909216919091179055565b606d5481565b6116988282610718565b610d82610990565b6116a8612f75565b6001600160a01b03166116b96111b0565b6001600160a01b031614611714576040805162461bcd60e51b815260206004820181905260248201527f4f776e61626c653a2063616c6c6572206973206e6f7420746865206f776e6572604482015290519081900360640190fd5b6001600160a01b0381166117595760405162461bcd60e51b81526004018080602001828103825260268152602001806148bf6026913960400191505060405180910390fd5b6033546040516001600160a01b038084169216907f8be0079c531659141344cd1fd0a4f28419497f9722a3daafe3b4186f6b6457e090600090a3603380546001600160a01b0319166001600160a01b0392909216919091179055565b6040517f13bc6d4b0000000000000000000000000000000000000000000000000000000081526001600160a01b037f000000000000000000000000000000000000000000000000000000000000000016906313bc6d4b9061181a9033906004016144c0565b60206040518083038186803b15801561183257600080fd5b505afa158015611846573d6000803e3d6000fd5b505050506040513d601f19601f8201168201806040525081019061186a9190614333565b506040517fb3af17430000000000000000000000000000000000000000000000000000000081526001600160a01b037f0000000000000000000000000000000000000000000000000000000000000000169063b3af1743906118d09085906004016144c0565b60206040518083038186803b1580156118e857600080fd5b505afa1580156118fc573d6000803e3d6000fd5b505050506040513d601f19601f820116820180604052508101906119209190614333565b61193c5760405162461bcd60e51b81526004016108839061468a565b6078546001600160a01b03166119645760405162461bcd60e51b81526004016108839061461c565b60007f00000000000000000000000000000000000000000000000000000000000000006001600160a01b0316632630c12f6040518163ffffffff1660e01b815260040160206040518083038186803b1580156119bf57600080fd5b505afa1580156119d3573d6000803e3d6000fd5b505050506040513d601f19601f820116820180604052508101906119f791906140a0565b6078546040517fac41865a0000000000000000000000000000000000000000000000000000000081526001600160a01b039283169263ac41865a92611a44928892909116906004016144d4565b60206040518083038186803b158015611a5c57600080fd5b505afa158015611a70573d6000803e3d6000fd5b505050506040513d601f19601f82011682018060405250810190611a94919061438e565b905080611ab35760405162461bcd60e51b815260040161088390614653565b6000611abf8284612108565b6078546040516370a0823160e01b815291925082916001600160a01b03909116906370a0823190611af49030906004016144c0565b60206040518083038186803b158015611b0c57600080fd5b505afa158015611b20573d6000803e3d6000fd5b505050506040513d601f19601f82011682018060405250810190611b44919061438e565b1015611b625760405162461bcd60e51b8152600401610883906146c1565b611b776001600160a01b03851633308661212d565b607854600090611bb6906001600160a01b031673c02aaa39b223fe8d0a0e5c4f27ead9083c756cc2611bb185670e043da617250000612108565b612f79565b9050611bd773c02aaa39b223fe8d0a0e5c4f27ead9083c756cc233836132c7565b5050505050565b611be6613fe1565b6040805160e08101918290526070805482529091600790607160208501808311610d28575050505050905090565b3b151590565b6040517f411137c3000000000000000000000000000000000000000000000000000000008152611cda906001600160a01b037f0000000000000000000000000000000000000000000000000000000000000000169063411137c390611c839033906004016144c0565b60206040518083038186803b158015611c9b57600080fd5b505afa158015611caf573d6000803e3d6000fd5b505050506040513d601f19601f82011682018060405250810190611cd39190614333565b6012611cdc565b565b81610d8257610d8281613332565b806001600160a01b0316638da5cb5b6040518163ffffffff1660e01b815260040160206040518083038186803b158015611d2357600080fd5b505afa158015611d37573d6000803e3d6000fd5b505050506040513d6020811015611d4d57600080fd5b50516001600160a01b0316331480611dd15750806001600160a01b0316638d97e0436040518163ffffffff1660e01b815260040160206040518083038186803b158015611d9957600080fd5b505afa158015611dad573d6000803e3d6000fd5b505050506040513d6020811015611dc357600080fd5b50516001600160a01b031633145b611e0c5760405162461bcd60e51b815260040180806020018281038252602a815260200180614939602a913960400191505060405180910390fd5b50565b80820382811115611e1f57600080fd5b92915050565b60007f00000000000000000000000000000000000000000000000000000000000000006001600160a01b031663bc819ea66040518163ffffffff1660e01b815260040160006040518083038186803b158015611e8057600080fd5b505afa158015611e94573d6000803e3d6000fd5b505050506040513d6000823e601f3d908101601f19168201604052611ebc91908101906140e7565b905060005b8151811015612043576000828281518110611ed857fe5b602002602001015190506000816001600160a01b03166370a08231306040518263ffffffff1660e01b8152600401611f1091906144c0565b60206040518083038186803b158015611f2857600080fd5b505afa158015611f3c573d6000803e3d6000fd5b505050506040513d601f19601f82011682018060405250810190611f60919061438e565b90506001600160a01b03821673f4dc48d260c93ad6a96c5ce563e70ca578987c7414801590611fac57506001600160a01b03821673c02aaa39b223fe8d0a0e5c4f27ead9083c756cc214155b8015611fcf57506001600160a01b03821660009081526068602052604090205481115b1561200357611fff611ff68373c02aaa39b223fe8d0a0e5c4f27ead9083c756cc284612f79565b60706000610b3c565b6070555b6001600160a01b03821673c02aaa39b223fe8d0a0e5c4f27ead9083c756cc21415612039576120358160706000610b3c565b6070555b5050600101611ec1565b506040516370a0823160e01b81527f49d512bf9cb224241c05691e73eb9fab078cf350c7dbcbcf66788f1fc0cc8b0b90429073c02aaa39b223fe8d0a0e5c4f27ead9083c756cc2906370a082319061209f9030906004016144c0565b60206040518083038186803b1580156120b757600080fd5b505afa1580156120cb573d6000803e3d6000fd5b505050506040513d601f19601f820116820180604052508101906120ef919061438e565b6040516120fd9291906147ed565b60405180910390a150565b6000612126670de0b6b3a76400006121208585613385565b906133a9565b9392505050565b604080516001600160a01b0380861660248301528416604482015260648082018490528251808303909101815260849091019091526020810180516001600160e01b03167f23b872dd000000000000000000000000000000000000000000000000000000001790526121a0908590613410565b50505050565b80820182811015611e1f57600080fd5b60006121eb73c02aaa39b223fe8d0a0e5c4f27ead9083c756cc273f4dc48d260c93ad6a96c5ce563e70ca578987c7484612f79565b606554909150612225906001600160a01b03166122098360026133a9565b73f4dc48d260c93ad6a96c5ce563e70ca578987c7491906132c7565b6122547f00000000000000000000000000000000000000000000000000000000000000006122098360026133a9565b6122618160706002610b3c565b6072556040517fead6bc1fbe3e9483a6b9cb8433997e459522311151455ee2112877dc4daeb5599061080d90429085908590614832565b60006122ac826706f05b59d3b20000612108565b905060006122e373c02aaa39b223fe8d0a0e5c4f27ead9083c756cc273f4dc48d260c93ad6a96c5ce563e70ca578987c7484612f79565b60405163095ea7b360e01b815290915073f4dc48d260c93ad6a96c5ce563e70ca578987c749063095ea7b3906123339073f19f91d7889668a533f14d076adc187be781a458908590600401614516565b602060405180830381600087803b15801561234d57600080fd5b505af1158015612361573d6000803e3d6000fd5b505050506040513d601f19601f820116820180604052508101906123859190614333565b5060405163095ea7b360e01b815273c02aaa39b223fe8d0a0e5c4f27ead9083c756cc29063095ea7b3906123d39073f19f91d7889668a533f14d076adc187be781a458908690600401614516565b602060405180830381600087803b1580156123ed57600080fd5b505af1158015612401573d6000803e3d6000fd5b505050506040513d601f19601f820116820180604052508101906124259190614333565b506040516370a0823160e01b815260009073f19f91d7889668a533f14d076adc187be781a458906370a0823190612480907f0000000000000000000000000000000000000000000000000000000000000000906004016144c0565b60206040518083038186803b15801561249857600080fd5b505afa1580156124ac573d6000803e3d6000fd5b505050506040513d601f19601f820116820180604052508101906124d0919061438e565b6040517f8dbdbe6d00000000000000000000000000000000000000000000000000000000815290915060009073f19f91d7889668a533f14d076adc187be781a45890638dbdbe6d9061254a90879087907f0000000000000000000000000000000000000000000000000000000000000000906004016147fb565b602060405180830381600087803b15801561256457600080fd5b505af1158015612578573d6000803e3d6000fd5b505050506040513d601f19601f8201168201806040525081019061259c919061438e565b905061271761265b8373f19f91d7889668a533f14d076adc187be781a4586001600160a01b03166370a082317f00000000000000000000000000000000000000000000000000000000000000006040518263ffffffff1660e01b815260040161260591906144c0565b60206040518083038186803b15801561261d57600080fd5b505afa158015612631573d6000803e3d6000fd5b505050506040513d601f19601f82011682018060405250810190612655919061438e565b90611e0f565b8214801561271057506040516370a0823160e01b815260009073f19f91d7889668a533f14d076adc187be781a458906370a08231906126be907f0000000000000000000000000000000000000000000000000000000000000000906004016144c0565b60206040518083038186803b1580156126d657600080fd5b505afa1580156126ea573d6000803e3d6000fd5b505050506040513d601f19601f8201168201806040525081019061270e919061438e565b115b6071611cdc565b60738054860190556040517fd7f28048575eead8851d024ead087913957dfb4fd1a02b4d1573f5352a5a2be39061275390429087908790614832565b60405180910390a15050505050565b60005b6066548110156129525760006066828154811061277e57fe5b60009182526020918290200154604080517ff85cb5c800000000000000000000000000000000000000000000000000000000815290516001600160a01b039092169263f85cb5c892600480840193829003018186803b1580156127e057600080fd5b505afa1580156127f4573d6000803e3d6000fd5b505050506040513d601f19601f8201168201806040525081019061281891906140a0565b905060006001600160a01b03821673c02aaa39b223fe8d0a0e5c4f27ead9083c756cc21461288a5761288373c02aaa39b223fe8d0a0e5c4f27ead9083c756cc283611bb16067878154811061286957fe5b90600052602060002001548861210890919063ffffffff16565b905061289d565b61289a60678481548110610ad257fe5b90505b6128cc606684815481106128ad57fe5b6000918252602090912001546001600160a01b038481169116836132c7565b606683815481106128d957fe5b9060005260206000200160009054906101000a90046001600160a01b03166001600160a01b03167f2eaf4a63a45c70f8c897bb4d267391aa5da44272b2c9eda3aa02a99111d06f37426129326067878154811061286957fe5b6040516129409291906147ed565b60405180910390a25050600101612765565b50607480549091019055565b6001600160a01b03808216600090815260696020526040902054166129868115156075611cdc565b826001600160a01b03858116908416146129d2576129cf856001600160a01b038516156129b357846129c9565b73c02aaa39b223fe8d0a0e5c4f27ead9083c756cc25b86612f79565b90505b6001600160a01b038316612abb576040517f2e1a7d4d00000000000000000000000000000000000000000000000000000000815273c02aaa39b223fe8d0a0e5c4f27ead9083c756cc290632e1a7d4d90612a309087906004016147e4565b600060405180830381600087803b158015612a4a57600080fd5b505af1158015612a5e573d6000803e3d6000fd5b50505050816001600160a01b0316631249c58b856040518263ffffffff1660e01b81526004016000604051808303818588803b158015612a9d57600080fd5b505af1158015612ab1573d6000803e3d6000fd5b5050505050612bd5565b60405163095ea7b360e01b81526001600160a01b0384169063095ea7b390612ae99085908590600401614516565b602060405180830381600087803b158015612b0357600080fd5b505af1158015612b17573d6000803e3d6000fd5b505050506040513d601f19601f82011682018060405250810190612b3b9190614333565b506040517fa0712d680000000000000000000000000000000000000000000000000000000081526001600160a01b0383169063a0712d6890612b819084906004016147e4565b602060405180830381600087803b158015612b9b57600080fd5b505af1158015612baf573d6000803e3d6000fd5b505050506040513d601f19601f82011682018060405250810190612bd3919061438e565b505b60007f00000000000000000000000000000000000000000000000000000000000000006001600160a01b0316632630c12f6040518163ffffffff1660e01b815260040160206040518083038186803b158015612c3057600080fd5b505afa158015612c44573d6000803e3d6000fd5b505050506040513d601f19601f82011682018060405250810190612c6891906140a0565b6001600160a01b031663ac41865a8573c02aaa39b223fe8d0a0e5c4f27ead9083c756cc26040518363ffffffff1660e01b8152600401612ca99291906144d4565b60206040518083038186803b158015612cc157600080fd5b505afa158015612cd5573d6000803e3d6000fd5b505050506040513d601f19601f82011682018060405250810190612cf9919061438e565b90506000612d078383612108565b9050612d168160706005610b3c565b6075556040516001600160a01b038616907f26ad8f0c19554f6771309e2ce6bbb81e1b4960161535735bd15845e4bbba29a790612d5690429085906147ed565b60405180910390a250505050505050565b606e5415611cda576000606d54606e5410612d8457606d54612d88565b606e545b6040516370a0823160e01b815290915060009073f4dc48d260c93ad6a96c5ce563e70ca578987c74906370a0823190612dc59030906004016144c0565b60206040518083038186803b158015612ddd57600080fd5b505afa158015612df1573d6000803e3d6000fd5b505050506040513d601f19601f82011682018060405250810190612e15919061438e565b9050818110612e245781612e26565b805b606554909250612e559073f4dc48d260c93ad6a96c5ce563e70ca578987c74906001600160a01b0316846132c7565b606e54612e629083611e0f565b606e556040517fb04849741dcc54ec81be5b4974b53836c36df01b634e717f9d674ec7d30c4f3890612e9790429085906147ed565b60405180910390a1612eac8260706006610b3c565b6076555050565b6000612ebe30611c14565b15905090565b600054610100900460ff1680612edd5750612edd612eb3565b80612eeb575060005460ff16155b612f265760405162461bcd60e51b815260040180806020018281038252602e81526020018061490b602e913960400191505060405180910390fd5b600054610100900460ff16158015612f51576000805460ff1961ff0019909116610100171660011790555b612f596134c1565b612f61613561565b8015611e0c576000805461ff001916905550565b3390565b6000826001600160a01b0316846001600160a01b03161415612f9c575080612126565b60007f00000000000000000000000000000000000000000000000000000000000000006001600160a01b0316632630c12f6040518163ffffffff1660e01b815260040160206040518083038186803b158015612ff757600080fd5b505afa15801561300b573d6000803e3d6000fd5b505050506040513d601f19601f8201168201806040525081019061302f91906140a0565b6001600160a01b031663ac41865a86866040518363ffffffff1660e01b815260040161305c9291906144d4565b60206040518083038186803b15801561307457600080fd5b505afa158015613088573d6000803e3d6000fd5b505050506040513d601f19601f820116820180604052508101906130ac919061438e565b90506130bb8115156062611cdc565b60006130d186866130cc8786612108565b61365a565b905060006130f46130ed6077548461210890919063ffffffff16565b8390611e0f565b905073e592427a0aece92de3edee1f18e0157c0586156461311688828861381b565b60606001600160a01b03891673853d955acef822db058eb8505911ed77f175b99e148061315f57506001600160a01b03881673853d955acef822db058eb8505911ed77f175b99e145b156131c757736b175474e89094c44da98b954eedeac495271d0f60006131858b8361397d565b905060006131938b8461397d565b90508b8284838e6040516020016131ae959493929190614456565b60405160208183030381529060405293505050506131fd565b60006131d38a8a61397d565b905089818a6040516020016131ea93929190614403565b6040516020818303038152906040529150505b6040805160a0810182528281523060208201524281830152606081018990526080810185905290517fc04b8d590000000000000000000000000000000000000000000000000000000081526001600160a01b0384169063c04b8d5990613267908490600401614755565b602060405180830381600087803b15801561328157600080fd5b505af1158015613295573d6000803e3d6000fd5b505050506040513d601f19601f820116820180604052508101906132b9919061438e565b9a9950505050505050505050565b604080516001600160a01b038416602482015260448082018490528251808303909101815260649091019091526020810180516001600160e01b03167fa9059cbb00000000000000000000000000000000000000000000000000000000179052610940908490613410565b62461bcd60e51b6000908152602060045260076024526642414223000030600a808404818106603090810160081b95839006959095019082900491820690940160101b939093010160c81b604452606490fd5b60008215806133a05750508181028183828161339d57fe5b04145b611e1f57600080fd5b60008082116133ff576040805162461bcd60e51b815260206004820152601a60248201527f536166654d6174683a206469766973696f6e206279207a65726f000000000000604482015290519081900360640190fd5b81838161340857fe5b049392505050565b6000613465826040518060400160405280602081526020017f5361666545524332303a206c6f772d6c6576656c2063616c6c206661696c6564815250856001600160a01b0316613d779092919063ffffffff16565b8051909150156109405780806020019051602081101561348457600080fd5b50516109405760405162461bcd60e51b815260040180806020018281038252602a815260200180614963602a913960400191505060405180910390fd5b600054610100900460ff16806134da57506134da612eb3565b806134e8575060005460ff16155b6135235760405162461bcd60e51b815260040180806020018281038252602e81526020018061490b602e913960400191505060405180910390fd5b600054610100900460ff16158015612f61576000805460ff1961ff0019909116610100171660011790558015611e0c576000805461ff001916905550565b600054610100900460ff168061357a575061357a612eb3565b80613588575060005460ff16155b6135c35760405162461bcd60e51b815260040180806020018281038252602e81526020018061490b602e913960400191505060405180910390fd5b600054610100900460ff161580156135ee576000805460ff1961ff0019909116610100171660011790555b60006135f8612f75565b603380546001600160a01b0319166001600160a01b038316908117909155604051919250906000907f8be0079c531659141344cd1fd0a4f28419497f9722a3daafe3b4186f6b6457e0908290a3508015611e0c576000805461ff001916905550565b60008061366685613d8e565b6136d457846001600160a01b031663313ce5676040518163ffffffff1660e01b815260040160206040518083038186803b1580156136a357600080fd5b505afa1580156136b7573d6000803e3d6000fd5b505050506040513d60208110156136cd57600080fd5b50516136d7565b60125b60ff16905060006136e785613d8e565b61375557846001600160a01b031663313ce5676040518163ffffffff1660e01b815260040160206040518083038186803b15801561372457600080fd5b505afa158015613738573d6000803e3d6000fd5b505050506040513d602081101561374e57600080fd5b5051613758565b60125b60ff1690506012821115801561376f575060128111155b6137c0576040805162461bcd60e51b815260206004820152601460248201527f556e737570706f7274656420646563696d616c73000000000000000000000000604482015290519081900360640190fd5b808214156137d2578392505050612126565b818111156137fa576137f16137e78284611e0f565b8590600a0a613385565b92505050612126565b6138116138078383611e0f565b8590600a0a6133a9565b9695505050505050565b604080516001600160a01b038481166024830152604480830185905283518084039091018152606490920183526020820180516001600160e01b031663095ea7b360e01b1781529251825160009485949389169392918291908083835b602083106138975780518252601f199092019160209182019101613878565b6001836020036101000a0380198251168184511680821785525050505050509050019150506000604051808303816000865af19150503d80600081146138f9576040519150601f19603f3d011682016040523d82523d6000602084013e6138fe565b606091505b509150915081801561392c57508051158061392c575080806020019051602081101561392957600080fd5b50515b611bd7576040805162461bcd60e51b815260206004820152600260248201527f5341000000000000000000000000000000000000000000000000000000000000604482015290519081900360640190fd5b604051630b4c774160e11b81526000908190731f98431c8ad98523631ae4a59f267346ea31f98490631698ee82906139bf90879087906101f4906004016144ee565b60206040518083038186803b1580156139d757600080fd5b505afa1580156139eb573d6000803e3d6000fd5b505050506040513d601f19601f82011682018060405250810190613a0f91906140a0565b604051630b4c774160e11b8152909150600090731f98431c8ad98523631ae4a59f267346ea31f98490631698ee8290613a529088908890610bb8906004016144ee565b60206040518083038186803b158015613a6a57600080fd5b505afa158015613a7e573d6000803e3d6000fd5b505050506040513d601f19601f82011682018060405250810190613aa291906140a0565b604051630b4c774160e11b8152909150600090731f98431c8ad98523631ae4a59f267346ea31f98490631698ee8290613ae59089908990612710906004016144ee565b60206040518083038186803b158015613afd57600080fd5b505afa158015613b11573d6000803e3d6000fd5b505050506040513d601f19601f82011682018060405250810190613b3591906140a0565b905060006001600160a01b038416613b4e576000613bbf565b836001600160a01b0316631a6865026040518163ffffffff1660e01b815260040160206040518083038186803b158015613b8757600080fd5b505afa158015613b9b573d6000803e3d6000fd5b505050506040513d601f19601f82011682018060405250810190613bbf919061434f565b905060006001600160a01b038416613bd8576000613c49565b836001600160a01b0316631a6865026040518163ffffffff1660e01b815260040160206040518083038186803b158015613c1157600080fd5b505afa158015613c25573d6000803e3d6000fd5b505050506040513d601f19601f82011682018060405250810190613c49919061434f565b905060006001600160a01b038416613c62576000613cd3565b836001600160a01b0316631a6865026040518163ffffffff1660e01b815260040160206040518083038186803b158015613c9b57600080fd5b505afa158015613caf573d6000803e3d6000fd5b505050506040513d601f19601f82011682018060405250810190613cd3919061434f565b9050816001600160801b0316836001600160801b031610158015613d095750806001600160801b0316836001600160801b031610155b15613d1e576101f49650505050505050611e1f565b826001600160801b0316826001600160801b031610158015613d525750806001600160801b0316826001600160801b031610155b15613d6757610bb89650505050505050611e1f565b5061271098975050505050505050565b6060613d868484600085613dc4565b949350505050565b600073eeeeeeeeeeeeeeeeeeeeeeeeeeeeeeeeeeeeeeee6001600160a01b0383161480611e1f5750506001600160a01b03161590565b606082471015613e055760405162461bcd60e51b81526004018080602001828103825260268152602001806148e56026913960400191505060405180910390fd5b613e0e85611c14565b613e5f576040805162461bcd60e51b815260206004820152601d60248201527f416464726573733a2063616c6c20746f206e6f6e2d636f6e7472616374000000604482015290519081900360640190fd5b600080866001600160a01b031685876040518082805190602001908083835b60208310613e9d5780518252601f199092019160209182019101613e7e565b6001836020036101000a03801982511681845116808217855250505050505090500191505060006040518083038185875af1925050503d8060008114613eff576040519150601f19603f3d011682016040523d82523d6000602084013e613f04565b606091505b5091509150613f14828286613f1f565b979650505050505050565b60608315613f2e575081612126565b825115613f3e5782518084602001fd5b8160405162461bcd60e51b81526004018080602001828103825283818151815260200191508051906020019080838360005b83811015613f88578181015183820152602001613f70565b50505050905090810190601f168015613fb55780820380516001836020036101000a031916815260200191505b509250505060405180910390fd5b5080546000825590600052602060002090810190611e0c9190613fff565b6040518060e001604052806007906020820280368337509192915050565b5b808211156140145760008155600101614000565b5090565b600082601f830112614028578081fd5b8135602061403d6140388361487d565b614859565b8281528181019085830183850287018401881015614059578586fd5b855b858110156140775781358452928401929084019060010161405b565b5090979650505050505050565b600060208284031215614095578081fd5b81356121268161489b565b6000602082840312156140b1578081fd5b81516121268161489b565b600080604083850312156140ce578081fd5b82356140d98161489b565b946020939093013593505050565b600060208083850312156140f9578182fd5b825167ffffffffffffffff81111561410f578283fd5b8301601f8101851361411f578283fd5b805161412d6140388261487d565b8181528381019083850185840285018601891015614149578687fd5b8694505b838510156141745780516141608161489b565b83526001949094019391850191850161414d565b50979650505050505050565b60008060408385031215614192578182fd5b823567ffffffffffffffff808211156141a9578384fd5b818501915085601f8301126141bc578384fd5b813560206141cc6140388361487d565b82815281810190858301838502870184018b10156141e8578889fd5b8896505b848710156142135780356141ff8161489b565b8352600196909601959183019183016141ec565b5096505086013592505080821115614229578283fd5b5061423685828601614018565b9150509250929050565b60008060208385031215614252578182fd5b823567ffffffffffffffff80821115614269578384fd5b818501915085601f83011261427c578384fd5b81358181111561428a578485fd5b866020808302850101111561429d578485fd5b60209290920196919550909350505050565b600060208083850312156142c1578182fd5b825167ffffffffffffffff8111156142d7578283fd5b8301601f810185136142e7578283fd5b80516142f56140388261487d565b8181528381019083850185840285018601891015614311578687fd5b8694505b83851015614174578051835260019490940193918501918501614315565b600060208284031215614344578081fd5b8151612126816148b0565b600060208284031215614360578081fd5b81516001600160801b0381168114612126578182fd5b600060208284031215614387578081fd5b5035919050565b60006020828403121561439f578081fd5b5051919050565b600080604083850312156143b8578182fd5b8235915060208301356143ca816148b0565b809150509250929050565b600080604083850312156143e7578182fd5b50508035926020909101359150565b6001600160a01b03169052565b606093841b6bffffffffffffffffffffffff19908116825260e89390931b7fffffff0000000000000000000000000000000000000000000000000000000000166014820152921b166017820152602b0190565b6bffffffffffffffffffffffff19606096871b811682527fffffff000000000000000000000000000000000000000000000000000000000060e896871b8116601484015294871b811660178301529290941b909216602b840152921b909116602e82015260420190565b6001600160a01b0391909116815260200190565b6001600160a01b0392831681529116602082015260400190565b6001600160a01b03938416815291909216602082015262ffffff909116604082015260600190565b6001600160a01b03929092168252602082015260400190565b6020808252825182820181905260009190848201906040850190845b818110156145705783516001600160a01b03168352928401929184019160010161454b565b50909695505050505050565b60e08101818360005b60078110156145a4578151835260209283019290910190600101614585565b50505092915050565b6020808252825182820181905260009190848201906040850190845b81811015614570578351835292840192918401916001016145c9565b60208082526012908201527f4e6f7420612076616c69642063546f6b656e0000000000000000000000000000604082015260600190565b6020808252601b908201527f417373657420666f7220707572636861736573206e6f74207365740000000000604082015260600190565b6020808252600e908201527f4e6f20707269636520666f756e64000000000000000000000000000000000000604082015260600190565b60208082526016908201527f4d75737420626520612077616e74656420617373657400000000000000000000604082015260600190565b60208082526026908201527f4e6f7420656e6f7567682062616c616e636520746f206275792077616e74656460408201527f2061737365740000000000000000000000000000000000000000000000000000606082015260800190565b60208082526015908201527f4e6f7420656e6f75676820636f6c6c61746572616c0000000000000000000000604082015260600190565b60006020808352835160a08285015280518060c0860152835b8181101561478a5782810184015186820160e00152830161476e565b8181111561479b578460e083880101525b5091850151916147ae60408601846143f6565b6040860151606086015260608601516080860152608086015160a086015260e0601f19601f830116860101935050505092915050565b90815260200190565b918252602082015260400190565b92835260208301919091526001600160a01b0316604082015260600190565b92835260208301919091521515604082015260600190565b9283526020830191909152604082015260600190565b91825260ff16602082015260400190565b60405181810167ffffffffffffffff8111828210171561487557fe5b604052919050565b600067ffffffffffffffff82111561489157fe5b5060209081020190565b6001600160a01b0381168114611e0c57600080fd5b8015158114611e0c57600080fdfe4f776e61626c653a206e6577206f776e657220697320746865207a65726f2061646472657373416464726573733a20696e73756666696369656e742062616c616e636520666f722063616c6c496e697469616c697a61626c653a20636f6e747261637420697320616c726561647920696e697469616c697a65644f6e6c7920676f7665726e616e6365206f7220656d657267656e63792063616e2063616c6c20746869735361666545524332303a204552433230206f7065726174696f6e20646964206e6f742073756363656564a2646970667358221220aa22705663fc90d92d3c41b5b946e22ca74f0ab85286923c0d41bf90bd8e9e5f64736f6c63430007060033496e697469616c697a61626c653a20636f6e747261637420697320616c726561647920696e697469616c697a6564",
  "devdoc": {
    "kind": "dev",
    "methods": {
      "addReward(uint256,uint256)": {
        "params": {
          "_bablAmount": "Total amount to distribute",
          "_weeklyRate": "Weekly amount to distribute"
        }
      },
      "borrowFusePool(address,uint256)": {
        "params": {
          "_assetToBorrow": "Asset that the heart is receiving from sender",
          "_borrowAmount": "Amount of asset to transfet"
        }
      },
      "getFeeDistributionWeights()": {
        "returns": {
          "_0": "The array of weights for the fees"
        }
      },
      "getGardenWeights()": {
        "returns": {
          "_0": "The array of weights for voted gardens"
        }
      },
      "getTotalStats()": {
        "returns": {
          "_0": "The array of stats for the fees"
        }
      },
      "getVotedGardens()": {
        "returns": {
          "_0": "The array of voted gardens"
        }
      },
      "initialize(uint256[])": {
        "params": {
          "_feeWeights": "Weights of the fee distribution"
        }
      },
      "lendFusePool(address,uint256)": {
        "params": {
          "_assetToLend": "Address of the asset to lend",
          "_lendAmount": "Amount of the asset to lend"
        }
      },
      "owner()": {
        "details": "Returns the address of the current owner."
      },
      "renounceOwnership()": {
        "details": "Leaves the contract without owner. It will not be possible to call `onlyOwner` functions anymore. Can only be called by the current owner. NOTE: Renouncing ownership will leave the contract without an owner, thereby removing any functionality that is only available to the owner."
      },
      "resolveGardenVotes(address[],uint256[])": {
        "params": {
          "_gardens": "Gardens that are going to receive investment",
          "_weights": "Weight for the investment in each garden normalied to 1e18 precision"
        }
      },
      "sellWantedAssetToHeart(address,uint256)": {
        "params": {
          "_amountToSell": "Amount of asset to sell",
          "_assetToSell": "Asset that the heart is receiving from strategy to sell"
        }
      },
      "setHeartGardenAddress(address)": {
        "params": {
          "_heartGarden": "New heart garden address"
        }
      },
      "setMinTradeAmount(address,uint256)": {
        "params": {
          "_asset": "Asset to edit the min amount",
          "_minAmount": "New min amount"
        }
      },
      "setTradeSlippage(uint256)": {
        "params": {
          "_tradeSlippage": "Trade slippage"
        }
      },
      "transferOwnership(address)": {
        "details": "Transfers ownership of the contract to a new account (`newOwner`). Can only be called by the current owner."
      },
      "updateAssetToLend(address)": {
        "params": {
          "_assetToLend": "New asset to lend"
        }
      },
      "updateAssetToPurchase(address)": {
        "params": {
          "_purchaseAsset": "New asset to purchase"
        }
      },
      "updateFeeWeights(uint256[])": {
        "params": {
          "_feeWeights": "Array of % (up to 1e18) with the fee weights"
        }
      }
    },
    "version": 1
  },
  "userdoc": {
    "kind": "user",
    "methods": {
      "addReward(uint256,uint256)": {
        "notice": "Adds a BABL reward to be distributed weekly back to the heart garden"
      },
      "borrowFusePool(address,uint256)": {
        "notice": "Heart borrows using its liquidity Note: Heart must have enough liquidity"
      },
      "getFeeDistributionWeights()": {
        "notice": "Getter to get the whole array of fee weights"
      },
      "getGardenWeights()": {
        "notice": "Getter to get the whole array of garden weights"
      },
      "getTotalStats()": {
        "notice": "Getter to get the whole array of total stats"
      },
      "getVotedGardens()": {
        "notice": "Getter to get the whole array of voted gardens"
      },
      "initialize(uint256[])": {
        "notice": "Set state variables and map asset pairs to their oracles"
      },
      "lendFusePool(address,uint256)": {
        "notice": "Tell the heart to lend an asset on Fuse"
      },
      "pump()": {
        "notice": "Function to pump blood to the heart Note: Anyone can call this. Keeper in Defender will be set up to do it for convenience."
      },
      "resolveGardenVotes(address[],uint256[])": {
        "notice": "Resolves garden votes for this cycle Note: Only keeper can call this"
      },
      "sellWantedAssetToHeart(address,uint256)": {
        "notice": "Strategies can sell wanted assets by the protocol to the heart. Heart will buy them using borrowings in stables. Heart returns WETH so master swapper will take it from there. Note: Strategy needs to have approved the heart."
      },
      "setHeartGardenAddress(address)": {
        "notice": "Updates the heart garden address"
      },
      "setMinTradeAmount(address,uint256)": {
        "notice": "Updates the min amount to trade a specific asset"
      },
      "setTradeSlippage(uint256)": {
        "notice": "Updates the tradeSlippage"
      },
      "updateAssetToLend(address)": {
        "notice": "Updates the next asset to lend on fuse pool"
      },
      "updateAssetToPurchase(address)": {
        "notice": "Updates the next asset to purchase assets from strategies at a premium"
      },
      "updateFeeWeights(uint256[])": {
        "notice": "Set the weights to allocate to different heart initiatives"
      },
      "updateMarkets()": {
        "notice": "Updates fuse pool market information and enters the markets"
      },
      "voteProposal(uint256,bool)": {
        "notice": "Function to vote for a proposal Note: Only keeper can call this. Votes need to have been resolved offchain. Warning: Gardens need to delegate to heart first."
      }
    },
    "version": 1
  },
  "storageLayout": {
    "storage": [
      {
        "astId": 492,
        "contract": "contracts/Heart.sol:HeartV2",
        "label": "_initialized",
        "offset": 0,
        "slot": "0",
        "type": "t_bool"
      },
      {
        "astId": 495,
        "contract": "contracts/Heart.sol:HeartV2",
        "label": "_initializing",
        "offset": 1,
        "slot": "0",
        "type": "t_bool"
      },
      {
        "astId": 1447,
        "contract": "contracts/Heart.sol:HeartV2",
        "label": "__gap",
        "offset": 0,
        "slot": "1",
        "type": "t_array(t_uint256)50_storage"
      },
      {
        "astId": 10,
        "contract": "contracts/Heart.sol:HeartV2",
        "label": "_owner",
        "offset": 0,
        "slot": "51",
        "type": "t_address"
      },
      {
        "astId": 129,
        "contract": "contracts/Heart.sol:HeartV2",
        "label": "__gap",
        "offset": 0,
        "slot": "52",
        "type": "t_array(t_uint256)49_storage"
      },
      {
        "astId": 14598,
        "contract": "contracts/Heart.sol:HeartV2",
        "label": "heartGarden",
        "offset": 0,
        "slot": "101",
        "type": "t_contract(IGarden)42224"
      },
      {
        "astId": 14602,
        "contract": "contracts/Heart.sol:HeartV2",
        "label": "votedGardens",
        "offset": 0,
        "slot": "102",
        "type": "t_array(t_address)dyn_storage"
      },
      {
        "astId": 14606,
        "contract": "contracts/Heart.sol:HeartV2",
        "label": "gardenWeights",
        "offset": 0,
        "slot": "103",
        "type": "t_array(t_uint256)dyn_storage"
      },
      {
        "astId": 14611,
        "contract": "contracts/Heart.sol:HeartV2",
        "label": "minAmounts",
        "offset": 0,
        "slot": "104",
        "type": "t_mapping(t_address,t_uint256)"
      },
      {
        "astId": 14616,
        "contract": "contracts/Heart.sol:HeartV2",
        "label": "assetToCToken",
        "offset": 0,
        "slot": "105",
        "type": "t_mapping(t_address,t_address)"
      },
      {
        "astId": 14619,
        "contract": "contracts/Heart.sol:HeartV2",
        "label": "assetToLend",
        "offset": 0,
        "slot": "106",
        "type": "t_address"
      },
      {
        "astId": 14622,
        "contract": "contracts/Heart.sol:HeartV2",
        "label": "lastPumpAt",
        "offset": 0,
        "slot": "107",
        "type": "t_uint256"
      },
      {
        "astId": 14625,
        "contract": "contracts/Heart.sol:HeartV2",
        "label": "lastVotesAt",
        "offset": 0,
        "slot": "108",
        "type": "t_uint256"
      },
      {
        "astId": 14628,
        "contract": "contracts/Heart.sol:HeartV2",
        "label": "weeklyRewardAmount",
        "offset": 0,
        "slot": "109",
        "type": "t_uint256"
      },
      {
        "astId": 14631,
        "contract": "contracts/Heart.sol:HeartV2",
        "label": "bablRewardLeft",
        "offset": 0,
        "slot": "110",
        "type": "t_uint256"
      },
      {
        "astId": 14635,
        "contract": "contracts/Heart.sol:HeartV2",
        "label": "feeDistributionWeights",
        "offset": 0,
        "slot": "111",
        "type": "t_array(t_uint256)dyn_storage"
      },
      {
        "astId": 14640,
        "contract": "contracts/Heart.sol:HeartV2",
        "label": "totalStats",
        "offset": 0,
        "slot": "112",
        "type": "t_array(t_uint256)7_storage"
      },
      {
        "astId": 14643,
        "contract": "contracts/Heart.sol:HeartV2",
        "label": "tradeSlippage",
        "offset": 0,
        "slot": "119",
        "type": "t_uint256"
      },
      {
        "astId": 14646,
        "contract": "contracts/Heart.sol:HeartV2",
        "label": "assetForPurchases",
        "offset": 0,
        "slot": "120",
        "type": "t_address"
      }
    ],
    "types": {
      "t_address": {
        "encoding": "inplace",
        "label": "address",
        "numberOfBytes": "20"
      },
      "t_array(t_address)dyn_storage": {
        "base": "t_address",
        "encoding": "dynamic_array",
        "label": "address[]",
        "numberOfBytes": "32"
      },
      "t_array(t_uint256)49_storage": {
        "base": "t_uint256",
        "encoding": "inplace",
        "label": "uint256[49]",
        "numberOfBytes": "1568"
      },
      "t_array(t_uint256)50_storage": {
        "base": "t_uint256",
        "encoding": "inplace",
        "label": "uint256[50]",
        "numberOfBytes": "1600"
      },
      "t_array(t_uint256)7_storage": {
        "base": "t_uint256",
        "encoding": "inplace",
        "label": "uint256[7]",
        "numberOfBytes": "224"
      },
      "t_array(t_uint256)dyn_storage": {
        "base": "t_uint256",
        "encoding": "dynamic_array",
        "label": "uint256[]",
        "numberOfBytes": "32"
      },
      "t_bool": {
        "encoding": "inplace",
        "label": "bool",
        "numberOfBytes": "1"
      },
      "t_contract(IGarden)42224": {
        "encoding": "inplace",
        "label": "contract IGarden",
        "numberOfBytes": "20"
      },
      "t_mapping(t_address,t_address)": {
        "encoding": "mapping",
        "key": "t_address",
        "label": "mapping(address => address)",
        "numberOfBytes": "32",
        "value": "t_address"
      },
      "t_mapping(t_address,t_uint256)": {
        "encoding": "mapping",
        "key": "t_address",
        "label": "mapping(address => uint256)",
        "numberOfBytes": "32",
        "value": "t_uint256"
      },
      "t_uint256": {
        "encoding": "inplace",
        "label": "uint256",
        "numberOfBytes": "32"
      }
    }
  }
}