{
  "address": "0xcd1D225f9d0b8caf0802E79f9870b0f035df9842",
  "abi": [
    {
      "inputs": [
        {
          "internalType": "contract IBabController",
          "name": "_controller",
          "type": "address"
        },
        {
          "internalType": "contract IGovernor",
          "name": "_governor",
          "type": "address"
        }
      ],
      "stateMutability": "nonpayable",
      "type": "constructor"
    },
    {
      "anonymous": false,
      "inputs": [
        {
          "indexed": false,
          "internalType": "uint256",
          "name": "_timestamp",
          "type": "uint256"
        },
        {
          "indexed": false,
          "internalType": "uint256",
          "name": "_bablSent",
          "type": "uint256"
        }
      ],
      "name": "BABLRewardSent",
      "type": "event"
    },
    {
      "anonymous": false,
      "inputs": [
        {
          "indexed": false,
          "internalType": "uint256",
          "name": "_timestamp",
          "type": "uint256"
        },
        {
          "indexed": false,
          "internalType": "uint256",
          "name": "_wethSpent",
          "type": "uint256"
        },
        {
          "indexed": false,
          "internalType": "uint256",
          "name": "_bablBought",
          "type": "uint256"
        }
      ],
      "name": "BablBuyback",
      "type": "event"
    },
    {
      "anonymous": false,
      "inputs": [
        {
          "indexed": false,
          "internalType": "uint256",
          "name": "_timestamp",
          "type": "uint256"
        },
        {
          "indexed": false,
          "internalType": "uint256",
          "name": "_amount",
          "type": "uint256"
        }
      ],
      "name": "FeesCollected",
      "type": "event"
    },
    {
      "anonymous": false,
      "inputs": [
        {
          "indexed": false,
          "internalType": "uint256",
          "name": "_timestamp",
          "type": "uint256"
        },
        {
          "indexed": true,
          "internalType": "address",
          "name": "_asset",
          "type": "address"
        },
        {
          "indexed": false,
          "internalType": "uint256",
          "name": "_assetAmount",
          "type": "uint256"
        }
      ],
      "name": "FuseLentAsset",
      "type": "event"
    },
    {
      "anonymous": false,
      "inputs": [
        {
          "indexed": false,
          "internalType": "uint256",
          "name": "_timestamp",
          "type": "uint256"
        },
        {
          "indexed": true,
          "internalType": "address",
          "name": "_garden",
          "type": "address"
        },
        {
          "indexed": false,
          "internalType": "uint256",
          "name": "_wethInvested",
          "type": "uint256"
        }
      ],
      "name": "GardenSeedInvest",
      "type": "event"
    },
    {
      "anonymous": false,
      "inputs": [
        {
          "indexed": false,
          "internalType": "uint256",
          "name": "_timestamp",
          "type": "uint256"
        },
        {
          "indexed": false,
          "internalType": "uint256",
          "name": "_wethBalance",
          "type": "uint256"
        },
        {
          "indexed": false,
          "internalType": "uint256",
          "name": "_bablBalance",
          "type": "uint256"
        }
      ],
      "name": "LiquidityAdded",
      "type": "event"
    },
    {
      "anonymous": false,
      "inputs": [
        {
          "indexed": true,
          "internalType": "address",
          "name": "previousOwner",
          "type": "address"
        },
        {
          "indexed": true,
          "internalType": "address",
          "name": "newOwner",
          "type": "address"
        }
      ],
      "name": "OwnershipTransferred",
      "type": "event"
    },
    {
      "anonymous": false,
      "inputs": [
        {
          "indexed": false,
          "internalType": "uint256",
          "name": "_timestamp",
          "type": "uint256"
        },
        {
          "indexed": false,
          "internalType": "uint256",
          "name": "_proposalId",
          "type": "uint256"
        },
        {
          "indexed": false,
          "internalType": "bool",
          "name": "_isApprove",
          "type": "bool"
        }
      ],
      "name": "ProposalVote",
      "type": "event"
    },
    {
      "anonymous": false,
      "inputs": [
        {
          "indexed": false,
          "internalType": "uint256",
          "name": "_timestamp",
          "type": "uint256"
        }
      ],
      "name": "UpdatedGardenWeights",
      "type": "event"
    },
    {
      "inputs": [
        {
          "internalType": "uint256",
          "name": "_bablAmount",
          "type": "uint256"
        },
        {
          "internalType": "uint256",
          "name": "_weeklyRate",
          "type": "uint256"
        }
      ],
      "name": "addReward",
      "outputs": [],
      "stateMutability": "nonpayable",
      "type": "function"
    },
    {
      "inputs": [],
      "name": "assetForPurchases",
      "outputs": [
        {
          "internalType": "address",
          "name": "",
          "type": "address"
        }
      ],
      "stateMutability": "view",
      "type": "function"
    },
    {
      "inputs": [
        {
          "internalType": "address",
          "name": "",
          "type": "address"
        }
      ],
      "name": "assetToCToken",
      "outputs": [
        {
          "internalType": "address",
          "name": "",
          "type": "address"
        }
      ],
      "stateMutability": "view",
      "type": "function"
    },
    {
      "inputs": [],
      "name": "assetToLend",
      "outputs": [
        {
          "internalType": "address",
          "name": "",
          "type": "address"
        }
      ],
      "stateMutability": "view",
      "type": "function"
    },
    {
      "inputs": [],
      "name": "bablRewardLeft",
      "outputs": [
        {
          "internalType": "uint256",
          "name": "",
          "type": "uint256"
        }
      ],
      "stateMutability": "view",
      "type": "function"
    },
    {
      "inputs": [
        {
          "internalType": "address",
          "name": "_assetToBond",
          "type": "address"
        },
        {
          "internalType": "uint256",
          "name": "_amountToBond",
          "type": "uint256"
        },
        {
          "internalType": "uint256",
          "name": "_minAmountOut",
          "type": "uint256"
        },
        {
          "internalType": "address",
          "name": "_referrer",
          "type": "address"
        }
      ],
      "name": "bondAsset",
      "outputs": [],
      "stateMutability": "nonpayable",
      "type": "function"
    },
    {
      "inputs": [
        {
          "internalType": "address",
          "name": "_assetToBond",
          "type": "address"
        },
        {
          "internalType": "uint256",
          "name": "_amountToBond",
          "type": "uint256"
        },
        {
          "internalType": "uint256",
          "name": "_amountIn",
          "type": "uint256"
        },
        {
          "internalType": "uint256",
          "name": "_minAmountOut",
          "type": "uint256"
        },
        {
          "internalType": "uint256",
          "name": "_nonce",
          "type": "uint256"
        },
        {
          "internalType": "uint256",
          "name": "_maxFee",
          "type": "uint256"
        },
        {
          "internalType": "uint256",
          "name": "_priceInBABL",
          "type": "uint256"
        },
        {
          "internalType": "uint256",
          "name": "_pricePerShare",
          "type": "uint256"
        },
        {
          "internalType": "uint256",
          "name": "_fee",
          "type": "uint256"
        },
        {
          "internalType": "address",
          "name": "_contributor",
          "type": "address"
        },
        {
          "internalType": "address",
          "name": "_referrer",
          "type": "address"
        },
        {
          "internalType": "bytes",
          "name": "_signature",
          "type": "bytes"
        }
      ],
      "name": "bondAssetBySig",
      "outputs": [],
      "stateMutability": "nonpayable",
      "type": "function"
    },
    {
      "inputs": [
        {
          "internalType": "address",
          "name": "",
          "type": "address"
        }
      ],
      "name": "bondAssets",
      "outputs": [
        {
          "internalType": "uint256",
          "name": "",
          "type": "uint256"
        }
      ],
      "stateMutability": "view",
      "type": "function"
    },
    {
      "inputs": [
        {
          "internalType": "address",
          "name": "_assetToBorrow",
          "type": "address"
        },
        {
          "internalType": "uint256",
          "name": "_borrowAmount",
          "type": "uint256"
        }
      ],
      "name": "borrowFusePool",
      "outputs": [],
      "stateMutability": "nonpayable",
      "type": "function"
    },
    {
      "inputs": [
        {
          "internalType": "uint256",
          "name": "",
          "type": "uint256"
        }
      ],
      "name": "feeDistributionWeights",
      "outputs": [
        {
          "internalType": "uint256",
          "name": "",
          "type": "uint256"
        }
      ],
      "stateMutability": "view",
      "type": "function"
    },
    {
      "inputs": [
        {
          "internalType": "uint256",
          "name": "",
          "type": "uint256"
        }
      ],
      "name": "gardenWeights",
      "outputs": [
        {
          "internalType": "uint256",
          "name": "",
          "type": "uint256"
        }
      ],
      "stateMutability": "view",
      "type": "function"
    },
    {
      "inputs": [],
      "name": "getFeeDistributionWeights",
      "outputs": [
        {
          "internalType": "uint256[]",
          "name": "",
          "type": "uint256[]"
        }
      ],
      "stateMutability": "view",
      "type": "function"
    },
    {
      "inputs": [],
      "name": "getGardenWeights",
      "outputs": [
        {
          "internalType": "uint256[]",
          "name": "",
          "type": "uint256[]"
        }
      ],
      "stateMutability": "view",
      "type": "function"
    },
    {
      "inputs": [],
      "name": "getTotalStats",
      "outputs": [
        {
          "internalType": "uint256[7]",
          "name": "",
          "type": "uint256[7]"
        }
      ],
      "stateMutability": "view",
      "type": "function"
    },
    {
      "inputs": [],
      "name": "getVotedGardens",
      "outputs": [
        {
          "internalType": "address[]",
          "name": "",
          "type": "address[]"
        }
      ],
      "stateMutability": "view",
      "type": "function"
    },
    {
      "inputs": [],
      "name": "heartGarden",
      "outputs": [
        {
          "internalType": "contract IGarden",
          "name": "",
          "type": "address"
        }
      ],
      "stateMutability": "view",
      "type": "function"
    },
    {
      "inputs": [
        {
          "internalType": "uint256[]",
          "name": "_feeWeights",
          "type": "uint256[]"
        }
      ],
      "name": "initialize",
      "outputs": [],
      "stateMutability": "nonpayable",
      "type": "function"
    },
    {
      "inputs": [
        {
          "internalType": "bytes32",
          "name": "_hash",
          "type": "bytes32"
        },
        {
          "internalType": "bytes",
          "name": "_signature",
          "type": "bytes"
        }
      ],
      "name": "isValidSignature",
      "outputs": [
        {
          "internalType": "bytes4",
          "name": "magicValue",
          "type": "bytes4"
        }
      ],
      "stateMutability": "view",
      "type": "function"
    },
    {
      "inputs": [],
      "name": "lastPumpAt",
      "outputs": [
        {
          "internalType": "uint256",
          "name": "",
          "type": "uint256"
        }
      ],
      "stateMutability": "view",
      "type": "function"
    },
    {
      "inputs": [],
      "name": "lastVotesAt",
      "outputs": [
        {
          "internalType": "uint256",
          "name": "",
          "type": "uint256"
        }
      ],
      "stateMutability": "view",
      "type": "function"
    },
    {
      "inputs": [
        {
          "internalType": "address",
          "name": "_assetToLend",
          "type": "address"
        },
        {
          "internalType": "uint256",
          "name": "_lendAmount",
          "type": "uint256"
        }
      ],
      "name": "lendFusePool",
      "outputs": [],
      "stateMutability": "nonpayable",
      "type": "function"
    },
    {
      "inputs": [
        {
          "internalType": "address",
          "name": "",
          "type": "address"
        }
      ],
      "name": "minAmounts",
      "outputs": [
        {
          "internalType": "uint256",
          "name": "",
          "type": "uint256"
        }
      ],
      "stateMutability": "view",
      "type": "function"
    },
    {
      "inputs": [],
      "name": "owner",
      "outputs": [
        {
          "internalType": "address",
          "name": "",
          "type": "address"
        }
      ],
      "stateMutability": "view",
      "type": "function"
    },
    {
      "inputs": [
        {
          "internalType": "uint256",
          "name": "_bablPriceProtectionAt",
          "type": "uint256"
        },
        {
          "internalType": "uint256",
          "name": "_bablPrice",
          "type": "uint256"
        },
        {
          "internalType": "uint256",
          "name": "_purchaseAssetPrice",
          "type": "uint256"
        },
        {
          "internalType": "uint256",
          "name": "_slippage",
          "type": "uint256"
        },
        {
          "internalType": "address",
          "name": "_hopToken",
          "type": "address"
        }
      ],
      "name": "protectBABL",
      "outputs": [],
      "stateMutability": "nonpayable",
      "type": "function"
    },
    {
      "inputs": [],
      "name": "pump",
      "outputs": [],
      "stateMutability": "nonpayable",
      "type": "function"
    },
    {
      "inputs": [],
      "name": "renounceOwnership",
      "outputs": [],
      "stateMutability": "nonpayable",
      "type": "function"
    },
    {
      "inputs": [
        {
          "internalType": "address",
          "name": "_borrowedAsset",
          "type": "address"
        },
        {
          "internalType": "uint256",
          "name": "_amountToRepay",
          "type": "uint256"
        }
      ],
      "name": "repayFusePool",
      "outputs": [],
      "stateMutability": "nonpayable",
      "type": "function"
    },
    {
      "inputs": [
        {
          "internalType": "address[]",
          "name": "_gardens",
          "type": "address[]"
        },
        {
          "internalType": "uint256[]",
          "name": "_weights",
          "type": "uint256[]"
        }
      ],
      "name": "resolveGardenVotes",
      "outputs": [],
      "stateMutability": "nonpayable",
      "type": "function"
    },
    {
      "inputs": [
        {
          "internalType": "address[]",
          "name": "_gardens",
          "type": "address[]"
        },
        {
          "internalType": "uint256[]",
          "name": "_weights",
          "type": "uint256[]"
        }
      ],
      "name": "resolveGardenVotesAndPump",
      "outputs": [],
      "stateMutability": "nonpayable",
      "type": "function"
    },
    {
      "inputs": [
        {
          "internalType": "address",
          "name": "_assetToSell",
          "type": "address"
        },
        {
          "internalType": "uint256",
          "name": "_amountToSell",
          "type": "uint256"
        }
      ],
      "name": "sellWantedAssetToHeart",
      "outputs": [],
      "stateMutability": "nonpayable",
      "type": "function"
    },
    {
      "inputs": [
        {
          "internalType": "address",
          "name": "_heartGarden",
          "type": "address"
        }
      ],
      "name": "setHeartGardenAddress",
      "outputs": [],
      "stateMutability": "nonpayable",
      "type": "function"
    },
    {
      "inputs": [
        {
          "internalType": "address",
          "name": "_asset",
          "type": "address"
        },
        {
          "internalType": "uint256",
          "name": "_minAmountOut",
          "type": "uint256"
        }
      ],
      "name": "setMinTradeAmount",
      "outputs": [],
      "stateMutability": "nonpayable",
      "type": "function"
    },
    {
      "inputs": [
        {
          "internalType": "uint256",
          "name": "_tradeSlippage",
          "type": "uint256"
        }
      ],
      "name": "setTradeSlippage",
      "outputs": [],
      "stateMutability": "nonpayable",
      "type": "function"
    },
    {
      "inputs": [
        {
          "internalType": "uint256",
          "name": "",
          "type": "uint256"
        }
      ],
      "name": "totalStats",
      "outputs": [
        {
          "internalType": "uint256",
          "name": "",
          "type": "uint256"
        }
      ],
      "stateMutability": "view",
      "type": "function"
    },
    {
      "inputs": [
        {
          "internalType": "address",
          "name": "_fromAsset",
          "type": "address"
        },
        {
          "internalType": "address",
          "name": "_toAsset",
          "type": "address"
        },
        {
          "internalType": "uint256",
          "name": "_fromAmount",
          "type": "uint256"
        },
        {
          "internalType": "uint256",
          "name": "_minAmountOut",
          "type": "uint256"
        }
      ],
      "name": "trade",
      "outputs": [],
      "stateMutability": "nonpayable",
      "type": "function"
    },
    {
      "inputs": [],
      "name": "tradeSlippage",
      "outputs": [
        {
          "internalType": "uint256",
          "name": "",
          "type": "uint256"
        }
      ],
      "stateMutability": "view",
      "type": "function"
    },
    {
      "inputs": [
        {
          "internalType": "address",
          "name": "newOwner",
          "type": "address"
        }
      ],
      "name": "transferOwnership",
      "outputs": [],
      "stateMutability": "nonpayable",
      "type": "function"
    },
    {
      "inputs": [
        {
          "internalType": "address",
          "name": "_assetToLend",
          "type": "address"
        }
      ],
      "name": "updateAssetToLend",
      "outputs": [],
      "stateMutability": "nonpayable",
      "type": "function"
    },
    {
      "inputs": [
        {
          "internalType": "address",
          "name": "_purchaseAsset",
          "type": "address"
        }
      ],
      "name": "updateAssetToPurchase",
      "outputs": [],
      "stateMutability": "nonpayable",
      "type": "function"
    },
    {
      "inputs": [
        {
          "internalType": "address",
          "name": "_assetToBond",
          "type": "address"
        },
        {
          "internalType": "uint256",
          "name": "_bondDiscount",
          "type": "uint256"
        }
      ],
      "name": "updateBond",
      "outputs": [],
      "stateMutability": "nonpayable",
      "type": "function"
    },
    {
      "inputs": [
        {
          "internalType": "uint256[]",
          "name": "_feeWeights",
          "type": "uint256[]"
        }
      ],
      "name": "updateFeeWeights",
      "outputs": [],
      "stateMutability": "nonpayable",
      "type": "function"
    },
    {
      "inputs": [],
      "name": "updateMarkets",
      "outputs": [],
      "stateMutability": "nonpayable",
      "type": "function"
    },
    {
      "inputs": [
        {
          "internalType": "uint256",
          "name": "_proposalId",
          "type": "uint256"
        },
        {
          "internalType": "bool",
          "name": "_isApprove",
          "type": "bool"
        }
      ],
      "name": "voteProposal",
      "outputs": [],
      "stateMutability": "nonpayable",
      "type": "function"
    },
    {
      "inputs": [
        {
          "internalType": "uint256",
          "name": "",
          "type": "uint256"
        }
      ],
      "name": "votedGardens",
      "outputs": [
        {
          "internalType": "address",
          "name": "",
          "type": "address"
        }
      ],
      "stateMutability": "view",
      "type": "function"
    },
    {
      "inputs": [],
      "name": "weeklyRewardAmount",
      "outputs": [
        {
          "internalType": "uint256",
          "name": "",
          "type": "uint256"
        }
      ],
      "stateMutability": "view",
      "type": "function"
    },
    {
      "stateMutability": "payable",
      "type": "receive"
    }
  ],
  "transactionHash": "0x2d6f509b3aa909e45e277697f9273fe0e79d66b4a80f41db74c4f2298fafd06e",
  "args": [
    "0xD4a5b5fcB561dAF3aDF86F8477555B92FBa43b5F",
    "0xBEC3de5b14902C660Bd2C7EfD2F259998424cc24"
  ],
  "numDeployments": 1,
  "solcInputHash": "52326babd87e7897610fb1d2a71f018c",
  "bytecode": "0x60e06040523480156200001157600080fd5b50604051620061be380380620061be833981016040819052620000349162000279565b60005482908290610100900460ff168062000054575062000054620001c7565b8062000063575060005460ff16155b620000a05760405162461bcd60e51b815260040180806020018281038252602e81526020018062006190602e913960400191505060405180910390fd5b600054610100900460ff16158015620000cc576000805460ff1961ff0019909116610100171660011790555b620000e46001600160a01b03841615156017620001e5565b620000fc6001600160a01b03831615156017620001e5565b826001600160a01b03166080816001600160a01b031660601b81525050826001600160a01b03166361d027b36040518163ffffffff1660e01b815260040160206040518083038186803b1580156200015357600080fd5b505afa15801562000168573d6000803e3d6000fd5b505050506040513d601f19601f820116820180604052508101906200018e919062000253565b6001600160601b0319606091821b811660c0529083901b1660a0528015620001bc576000805461ff00191690555b5050505050620002d0565b6000620001df30620001fa60201b6200280a1760201c565b15905090565b81620001f657620001f68162000200565b5050565b3b151590565b62461bcd60e51b6000908152602060045260076024526642414223000030600a808404818106603090810160081b95839006959095019082900491820690940160101b939093010160c81b604452606490fd5b60006020828403121562000265578081fd5b81516200027281620002b7565b9392505050565b600080604083850312156200028c578081fd5b82516200029981620002b7565b6020840151909250620002ac81620002b7565b809150509250929050565b6001600160a01b0381168114620002cd57600080fd5b50565b60805160601c60a05160601c60c05160601c615e0d620003836000398061100c528061340d5280613560528061362a52806136d2528061379e525080611b64525080610c165280610d965280611172528061141052806114a95280611604528061164552806116c65280611a075280611abd5280611b115280611cb75280611f5352806121f352806123d052806124865280612553528061284852806130415280613c7452806140415250615e0d6000f3fe6080604052600436106102f65760003560e01c8063715018a61161018f578063bd59c9b0116100e1578063dac5a9951161008a578063f30fd02011610064578063f30fd020146107e9578063f4bd694a14610809578063fc5cbf1d14610829576102fd565b8063dac5a99514610794578063ed63f919146107a9578063f2fde38b146107c9576102fd565b8063cddb7148116100bb578063cddb71481461074a578063cfd2dc991461075f578063d9cf443b14610774576102fd565b8063bd59c9b0146106ea578063bd61d4fd1461070a578063c929ccb11461072a576102fd565b8063a25db51611610143578063b1beb88d1161011d578063b1beb88d1461068a578063b5347736146106aa578063bcfb9b61146106ca576102fd565b8063a25db51614610640578063a350fe0714610660578063a775efa514610675576102fd565b806375c93bb91161017457806375c93bb9146105eb5780638da5cb5b1461060b5780639c5e52d514610620576102fd565b8063715018a6146105c1578063730fa8c4146105d6576102fd565b806340e01650116102485780635acaaef3116101fc57806365f7f648116101d657806365f7f648146105775780636be2f2671461058c5780636fe0e559146105a1576102fd565b80635acaaef31461051757806361cab7121461053757806362f0e8dc14610557576102fd565b806343fce0741161022d57806343fce074146104b55780634849b6c8146104d5578063564e4bab146104f5576102fd565b806340e0165014610475578063413dfea814610495576102fd565b806319c92094116102aa578063394abf4511610284578063394abf4514610429578063395ea61b1461044b5780633f1ee16714610460576102fd565b806319c92094146103bc5780633550bd62146103dc57806335d10b6114610409576102fd565b806308de5fc6116102db57806308de5fc61461034f5780631091ea8f1461036f5780631626ba7e1461038f576102fd565b8063045da86c14610302578063081ab4c214610324576102fd565b366102fd57005b600080fd5b34801561030e57600080fd5b5061032261031d366004615487565b61084b565b005b34801561033057600080fd5b50610339610aae565b60405161034691906156ad565b60405180910390f35b34801561035b57600080fd5b5061032261036a3660046151d6565b610b10565b34801561037b57600080fd5b5061032261038a366004615009565b610c11565b34801561039b57600080fd5b506103af6103aa3660046153a5565b610d25565b6040516103469190615763565b3480156103c857600080fd5b506103226103d7366004615009565b610d91565b3480156103e857600080fd5b506103fc6103f7366004614f8c565b610eaf565b6040516103469190615657565b34801561041557600080fd5b506103fc610424366004615407565b610eca565b34801561043557600080fd5b5061043e610ef4565b6040516103469190615b48565b34801561045757600080fd5b50610322610efa565b34801561046c57600080fd5b506103fc61115e565b34801561048157600080fd5b50610322610490366004615009565b61116d565b3480156104a157600080fd5b506103226104b036600461507d565b6111bb565b3480156104c157600080fd5b506103226104d0366004614f8c565b61140b565b3480156104e157600080fd5b506103226104f0366004614fc4565b6114a4565b34801561050157600080fd5b5061050a6115a8565b604051610346919061572b565b34801561052357600080fd5b50610322610532366004615009565b6115ff565b34801561054357600080fd5b50610322610552366004615296565b611640565b34801561056357600080fd5b50610322610572366004615407565b6116c1565b34801561058357600080fd5b506103fc6116f8565b34801561059857600080fd5b506103fc611707565b3480156105ad57600080fd5b506103226105bc366004615296565b611716565b3480156105cd57600080fd5b5061032261193e565b3480156105e257600080fd5b5061043e6119fc565b3480156105f757600080fd5b50610322610606366004615466565b611a02565b34801561061757600080fd5b506103fc611a6a565b34801561062c57600080fd5b5061043e61063b366004614f8c565b611a79565b34801561064c57600080fd5b5061043e61065b366004615407565b611a8b565b34801561066c57600080fd5b5061043e611aac565b34801561068157600080fd5b5061043e611ab2565b34801561069657600080fd5b506103226106a5366004614f8c565b611ab8565b3480156106b657600080fd5b506103226106c5366004615009565b611b0c565b3480156106d657600080fd5b506103226106e5366004615437565b611b5a565b3480156106f657600080fd5b5061043e610705366004615407565b611c44565b34801561071657600080fd5b5061043e610725366004615407565b611c5b565b34801561073657600080fd5b50610322610745366004615034565b611c6b565b34801561075657600080fd5b50610322611f4e565b34801561076b57600080fd5b5061050a612198565b34801561078057600080fd5b5061032261078f366004614f8c565b6121ee565b3480156107a057600080fd5b5061043e612273565b3480156107b557600080fd5b506103226107c43660046151d6565b612279565b3480156107d557600080fd5b506103226107e4366004614f8c565b61228b565b3480156107f557600080fd5b50610322610804366004615009565b6123a0565b34801561081557600080fd5b5061043e610824366004614f8c565b6127c2565b34801561083557600080fd5b5061083e6127d4565b60405161034691906156fa565b610853612814565b6078546001600160a01b03166108845760405162461bcd60e51b815260040161087b906158da565b60405180910390fd5b6000851180156108945750848411155b6108b05760405162461bcd60e51b815260040161087b90615ab8565b6078546040516370a0823160e01b8152686c6b935b8bbd40000091610967916001600160a01b0390911690736b175474e89094c44da98b954eedeac495271d0f906109629083906370a082319061090b903090600401615657565b60206040518083038186803b15801561092357600080fd5b505afa158015610937573d6000803e3d6000fd5b505050506040513d601f19601f8201168201806040525081019061095b919061541f565b88906128d6565b6128fb565b10156109855760405162461bcd60e51b815260040161087b9061586c565b600061099a686c6b935b8bbd40000086612a49565b905060006109c26109bb85156109b057856109b4565b6077545b84906128d6565b8390612a61565b607854909150600090610a49906001600160a01b031673f4dc48d260c93ad6a96c5ce563e70ca578987c74610a19736b175474e89094c44da98b954eedeac495271d0f83610962686c6b935b8bbd4000008d612a49565b856001600160a01b038916610a425773c02aaa39b223fe8d0a0e5c4f27ead9083c756cc2610a44565b885b612a71565b9050610a5c81607060025b015490612d58565b6072556040517fead6bc1fbe3e9483a6b9cb8433997e459522311151455ee2112877dc4daeb55990610a9c904290686c6b935b8bbd400000908590615bbd565b60405180910390a15050505050505050565b60606066805480602002602001604051908101604052809291908181526020018280548015610b0657602002820191906000526020600020905b81546001600160a01b03168152600190910190602001808311610ae8575b5050505050905090565b610b18612814565b610b2781518351146070612d68565b610b3360666000614e5b565b610b3f60676000614e5b565b60005b8251811015610bd0576066838281518110610b5957fe5b60209081029190910181015182546001810184556000938452919092200180546001600160a01b0319166001600160a01b039092169190911790558151606790839083908110610ba557fe5b6020908102919091018101518254600181810185556000948552929093209092019190915501610b42565b5042606c8190556040517f39dc56f5c791d35313f12a8053a1cb6e24fdc18a55184d2f9f3dc00de3522f8b91610c0591615b48565b60405180910390a15050565b610c437f00000000000000000000000000000000000000000000000000000000000000006001600160a01b0316612d76565b6001600160a01b0380831660008181526069602052604090205490911690610c6c908284612e9b565b6040517f0e7527020000000000000000000000000000000000000000000000000000000081526001600160a01b03821690630e75270290610cb1908590600401615b48565b602060405180830381600087803b158015610ccb57600080fd5b505af1158015610cdf573d6000803e3d6000fd5b505050506040513d601f19601f82011682018060405250810190610d03919061541f565b15610d205760405162461bcd60e51b815260040161087b90615911565b505050565b600080610d328484612fc7565b607a549091506001600160a01b038083169116148015610d5a57506001600160a01b03811615155b610d65576000610d87565b7f1626ba7e000000000000000000000000000000000000000000000000000000005b9150505b92915050565b610dc37f00000000000000000000000000000000000000000000000000000000000000006001600160a01b0316612d76565b6001600160a01b038083166000908152606960205260409020541680610dfb5760405162461bcd60e51b815260040161087b906157c7565b6040517fc5ebeaec0000000000000000000000000000000000000000000000000000000081526001600160a01b0382169063c5ebeaec90610e40908590600401615b48565b602060405180830381600087803b158015610e5a57600080fd5b505af1158015610e6e573d6000803e3d6000fd5b505050506040513d601f19601f82011682018060405250810190610e92919061541f565b15610d205760405162461bcd60e51b815260040161087b90615a81565b6069602052600090815260409020546001600160a01b031681565b60668181548110610eda57600080fd5b6000918252602090912001546001600160a01b0316905081565b606b5481565b606554610f13906001600160a01b031615156073612d68565b610f3862093a80610f2f606b5442612a6190919063ffffffff16565b1015606d612d68565b610f5c62093a80610f54606c5442612a6190919063ffffffff16565b10606e612d68565b610f6461303d565b6040516370a0823160e01b815260009073c02aaa39b223fe8d0a0e5c4f27ead9083c756cc2906370a0823190610f9e903090600401615657565b60206040518083038186803b158015610fb657600080fd5b505afa158015610fca573d6000803e3d6000fd5b505050506040513d601f19601f82011682018060405250810190610fee919061541f565b90506110066714d1120d7b160000821015606f612d68565b611073307f0000000000000000000000000000000000000000000000000000000000000000611056606f60008154811061103c57fe5b9060005260206000200154856128d690919063ffffffff16565b73c02aaa39b223fe8d0a0e5c4f27ead9083c756cc2929190613320565b6110aa6110a1606f60008154811061108757fe5b9060005260206000200154836128d690919063ffffffff16565b60706001610a54565b607155606f80546110c9916110c491600190811061108757fe5b613399565b6110e26110dd606f60028154811061108757fe5b61347b565b6110fb6110f6606f60038154811061108757fe5b61386a565b61114f73c02aaa39b223fe8d0a0e5c4f27ead9083c756cc261113e606f60048154811061112457fe5b9060005260206000200154846128d690919063ffffffff16565b606a546001600160a01b0316613a66565b611157613e02565b5042606b55565b6078546001600160a01b031681565b61119f7f00000000000000000000000000000000000000000000000000000000000000006001600160a01b0316612d76565b6001600160a01b03909116600090815260686020526040902055565b6111c3612814565b868411156111e35760405162461bcd60e51b815260040161087b906157fe565b6001600160a01b038c166000908152607960205260409020546112185760405162461bcd60e51b815260040161087b9061597f565b61122d6001600160a01b038d1684308e613320565b6040516370a0823160e01b81528a9073f4dc48d260c93ad6a96c5ce563e70ca578987c74906370a0823190611266903090600401615657565b60206040518083038186803b15801561127e57600080fd5b505afa158015611292573d6000803e3d6000fd5b505050506040513d601f19601f820116820180604052508101906112b6919061541f565b10156112d45760405162461bcd60e51b815260040161087b906158a3565b896112e08d8d89613f4e565b146112fd5760405162461bcd60e51b815260040161087b90615835565b6065546113299073f4dc48d260c93ad6a96c5ce563e70ca578987c74906001600160a01b03168c612e9b565b61134873f4dc48d260c93ad6a96c5ce563e70ca578987c743386613faf565b607a80546001600160a01b0319166001600160a01b03858116919091179091556065546040517f2f214efc000000000000000000000000000000000000000000000000000000008152911690632f214efc906113bb908d908d908d908d908a908d9060009030908d908d90600401615bd3565b600060405180830381600087803b1580156113d557600080fd5b505af11580156113e9573d6000803e3d6000fd5b5050607a80546001600160a01b03191690555050505050505050505050505050565b61143d7f00000000000000000000000000000000000000000000000000000000000000006001600160a01b0316612d76565b606a5461145a906001600160a01b03838116911614156074612d68565b6001600160a01b03818116600090815260696020526040902054611482911615156072612d68565b606a80546001600160a01b0319166001600160a01b0392909216919091179055565b6114d67f00000000000000000000000000000000000000000000000000000000000000006001600160a01b0316612d76565b6040516370a0823160e01b815282906001600160a01b038616906370a0823190611504903090600401615657565b60206040518083038186803b15801561151c57600080fd5b505afa158015611530573d6000803e3d6000fd5b505050506040513d601f19601f82011682018060405250810190611554919061541f565b10156115725760405162461bcd60e51b815260040161087b90615790565b600061157f85858561401a565b9050818110156115a15760405162461bcd60e51b815260040161087b906159ed565b5050505050565b6060606f805480602002602001604051908101604052809291908181526020018280548015610b0657602002820191906000526020600020905b8154815260200190600101908083116115e2575050505050905090565b6116317f00000000000000000000000000000000000000000000000000000000000000006001600160a01b0316612d76565b61163c828284613a66565b5050565b6116727f00000000000000000000000000000000000000000000000000000000000000006001600160a01b0316612d76565b61167e606f6000614e5b565b60005b81811015610d2057606f83838381811061169757fe5b83546001808201865560009586526020958690209290950293909301359201919091555001611681565b6116f37f00000000000000000000000000000000000000000000000000000000000000006001600160a01b0316612d76565b607755565b6065546001600160a01b031681565b606a546001600160a01b031681565b600054610100900460ff168061172f575061172f6141a4565b8061173d575060005460ff16155b6117785760405162461bcd60e51b815260040180806020018281038252602e815260200180615cfe602e913960400191505060405180910390fd5b600054610100900460ff161580156117a3576000805460ff1961ff0019909116610100171660011790555b6117ab6141b5565b6117b58383611640565b6117bd611f4e565b6117da736b175474e89094c44da98b954eedeac495271d0f61140b565b6068602052681b1ae4d6e2ef5000007f4d158bbfd95ee9a2dbb8c3a636c573b20dcaba9e72bb743c844cbd959c77df4a55631dcd65007fd98c4d2a11233789190aab6ba2d225b6bda4b59c2917636996ecacff26f3e69f556706f05b59d3b200007fccdc1587d0c86316e8986de7a983e28b085ec139bbb38b23b4194aea13c3886c55732260fac5e5542a773aa44fbcfedf7c193bc2c599600052622dc6c07fbb3572ea0c5a0fdc48a9bbcbc231cf5f7e7ec4ba06bf0dd23084ade8b950a16e556040517f5c19a95c00000000000000000000000000000000000000000000000000000000815273f4dc48d260c93ad6a96c5ce563e70ca578987c7490635c19a95c906118eb903090600401615657565b600060405180830381600087803b15801561190557600080fd5b505af1158015611919573d6000803e3d6000fd5b50506658d15e1762800060775550508015610d20576000805461ff0019169055505050565b611946614266565b6001600160a01b0316611957611a6a565b6001600160a01b0316146119b2576040805162461bcd60e51b815260206004820181905260248201527f4f776e61626c653a2063616c6c6572206973206e6f7420746865206f776e6572604482015290519081900360640190fd5b6033546040516000916001600160a01b0316907f8be0079c531659141344cd1fd0a4f28419497f9722a3daafe3b4186f6b6457e0908390a3603380546001600160a01b0319169055565b606c5481565b611a347f00000000000000000000000000000000000000000000000000000000000000006001600160a01b0316612d76565b611a5473f4dc48d260c93ad6a96c5ce563e70ca578987c74333085613320565b606e54611a619083612d58565b606e55606d5550565b6033546001600160a01b031690565b60686020526000908152604090205481565b60678181548110611a9b57600080fd5b600091825260209091200154905081565b60775481565b606e5481565b611aea7f00000000000000000000000000000000000000000000000000000000000000006001600160a01b0316612d76565b606580546001600160a01b0319166001600160a01b0392909216919091179055565b611b3e7f00000000000000000000000000000000000000000000000000000000000000006001600160a01b0316612d76565b6001600160a01b03909116600090815260796020526040902055565b611b62612814565b7f00000000000000000000000000000000000000000000000000000000000000006001600160a01b031663567813888383611b9e576000611ba1565b60015b6040518363ffffffff1660e01b8152600401611bbe929190615c3f565b602060405180830381600087803b158015611bd857600080fd5b505af1158015611bec573d6000803e3d6000fd5b505050506040513d601f19601f82011682018060405250810190611c10919061541f565b507fefa00395b2e0ff3ae4ff4742ac3a68646612107e164ca54a2b88dcc983f72521428383604051610c0593929190615ba5565b60708160078110611c5457600080fd5b0154905081565b606f8181548110611a9b57600080fd5b6001600160a01b03841660009081526079602052604090205415801590611c925750600083115b611cae5760405162461bcd60e51b815260040161087b9061597f565b6000611ddc85857f00000000000000000000000000000000000000000000000000000000000000006001600160a01b0316632630c12f6040518163ffffffff1660e01b815260040160206040518083038186803b158015611d0e57600080fd5b505afa158015611d22573d6000803e3d6000fd5b505050506040513d601f19601f82011682018060405250810190611d469190614fa8565b6001600160a01b031663ac41865a8973f4dc48d260c93ad6a96c5ce563e70ca578987c746040518363ffffffff1660e01b8152600401611d8792919061566b565b60206040518083038186803b158015611d9f57600080fd5b505afa158015611db3573d6000803e3d6000fd5b505050506040513d601f19601f82011682018060405250810190611dd7919061541f565b613f4e565b9050611df36001600160a01b038616333087613320565b6040516370a0823160e01b8152819073f4dc48d260c93ad6a96c5ce563e70ca578987c74906370a0823190611e2c903090600401615657565b60206040518083038186803b158015611e4457600080fd5b505afa158015611e58573d6000803e3d6000fd5b505050506040513d601f19601f82011682018060405250810190611e7c919061541f565b1015611e9a5760405162461bcd60e51b815260040161087b906158a3565b606554611ec69073f4dc48d260c93ad6a96c5ce563e70ca578987c74906001600160a01b031683612e9b565b6065546040517f84715b110000000000000000000000000000000000000000000000000000000081526001600160a01b03909116906384715b1190611f15908490879033908890600401615b7e565b600060405180830381600087803b158015611f2f57600080fd5b505af1158015611f43573d6000803e3d6000fd5b505050505050505050565b611f807f00000000000000000000000000000000000000000000000000000000000000006001600160a01b0316612d76565b600073c7125e3a2925877c7371d579d29dae4729ac90336001600160a01b031663b0772d0b6040518163ffffffff1660e01b815260040160006040518083038186803b158015611fcf57600080fd5b505afa158015611fe3573d6000803e3d6000fd5b505050506040513d6000823e601f3d908101601f1916820160405261200b919081019061513d565b905060005b81518110156120f157600082828151811061202757fe5b60200260200101516001600160a01b0316636f307dc36040518163ffffffff1660e01b815260040160206040518083038186803b15801561206757600080fd5b505afa15801561207b573d6000803e3d6000fd5b505050506040513d601f19601f8201168201806040525081019061209f9190614fa8565b90508282815181106120ad57fe5b6020908102919091018101516001600160a01b0392831660009081526069909252604090912080546001600160a01b03191692909116919091179055600101612010565b506040517fc299823800000000000000000000000000000000000000000000000000000000815273c7125e3a2925877c7371d579d29dae4729ac90339063c2998238906121429084906004016156ad565b600060405180830381600087803b15801561215c57600080fd5b505af1158015612170573d6000803e3d6000fd5b505050506040513d6000823e601f3d908101601f1916820160405261163c9190810190615305565b60606067805480602002602001604051908101604052809291908181526020018280548015610b0657602002820191906000526020600020908154815260200190600101908083116115e2575050505050905090565b6122207f00000000000000000000000000000000000000000000000000000000000000006001600160a01b0316612d76565b607854612251906001600160a01b0383811691161480159061224a57506001600160a01b03821615155b6077612d68565b607880546001600160a01b0319166001600160a01b0392909216919091179055565b606d5481565b6122838282610b10565b61163c610efa565b612293614266565b6001600160a01b03166122a4611a6a565b6001600160a01b0316146122ff576040805162461bcd60e51b815260206004820181905260248201527f4f776e61626c653a2063616c6c6572206973206e6f7420746865206f776e6572604482015290519081900360640190fd5b6001600160a01b0381166123445760405162461bcd60e51b8152600401808060200182810382526026815260200180615cb66026913960400191505060405180910390fd5b6033546040516001600160a01b038084169216907f8be0079c531659141344cd1fd0a4f28419497f9722a3daafe3b4186f6b6457e090600090a3603380546001600160a01b0319166001600160a01b0392909216919091179055565b6040517f13bc6d4b0000000000000000000000000000000000000000000000000000000081526001600160a01b037f000000000000000000000000000000000000000000000000000000000000000016906313bc6d4b90612405903390600401615657565b60206040518083038186803b15801561241d57600080fd5b505afa158015612431573d6000803e3d6000fd5b505050506040513d601f19601f820116820180604052508101906124559190615389565b506040517fb3af17430000000000000000000000000000000000000000000000000000000081526001600160a01b037f0000000000000000000000000000000000000000000000000000000000000000169063b3af1743906124bb908590600401615657565b60206040518083038186803b1580156124d357600080fd5b505afa1580156124e7573d6000803e3d6000fd5b505050506040513d601f19601f8201168201806040525081019061250b9190615389565b6125275760405162461bcd60e51b815260040161087b906159b6565b6078546001600160a01b031661254f5760405162461bcd60e51b815260040161087b906158da565b60007f00000000000000000000000000000000000000000000000000000000000000006001600160a01b0316632630c12f6040518163ffffffff1660e01b815260040160206040518083038186803b1580156125aa57600080fd5b505afa1580156125be573d6000803e3d6000fd5b505050506040513d601f19601f820116820180604052508101906125e29190614fa8565b6078546040517fac41865a0000000000000000000000000000000000000000000000000000000081526001600160a01b039283169263ac41865a9261262f9288929091169060040161566b565b60206040518083038186803b15801561264757600080fd5b505afa15801561265b573d6000803e3d6000fd5b505050506040513d601f19601f8201168201806040525081019061267f919061541f565b90508061269e5760405162461bcd60e51b815260040161087b90615948565b60006126aa82846128d6565b6078546040516370a0823160e01b815291925082916001600160a01b03909116906370a08231906126df903090600401615657565b60206040518083038186803b1580156126f757600080fd5b505afa15801561270b573d6000803e3d6000fd5b505050506040513d601f19601f8201168201806040525081019061272f919061541f565b101561274d5760405162461bcd60e51b815260040161087b90615a24565b6127626001600160a01b038516333086613320565b6078546000906127a1906001600160a01b031673c02aaa39b223fe8d0a0e5c4f27ead9083c756cc261279c85670e043da6172500006128d6565b61401a565b90506115a173c02aaa39b223fe8d0a0e5c4f27ead9083c756cc23383613faf565b60796020526000908152604090205481565b6127dc614e79565b6040805160e081019182905260708054825290916007906071602085018083116115e2575050505050905090565b803b15155b919050565b6040517f411137c30000000000000000000000000000000000000000000000000000000081526128d4906001600160a01b037f0000000000000000000000000000000000000000000000000000000000000000169063411137c39061287d903390600401615657565b60206040518083038186803b15801561289557600080fd5b505afa1580156128a9573d6000803e3d6000fd5b505050506040513d601f19601f820116820180604052508101906128cd9190615389565b6012612d68565b565b60006128f4670de0b6b3a76400006128ee858561426a565b9061428e565b9392505050565b600080612907856142f5565b61297557846001600160a01b031663313ce5676040518163ffffffff1660e01b815260040160206040518083038186803b15801561294457600080fd5b505afa158015612958573d6000803e3d6000fd5b505050506040513d602081101561296e57600080fd5b5051612978565b60125b60ff1690506000612988856142f5565b6129f657846001600160a01b031663313ce5676040518163ffffffff1660e01b815260040160206040518083038186803b1580156129c557600080fd5b505afa1580156129d9573d6000803e3d6000fd5b505050506040513d60208110156129ef57600080fd5b50516129f9565b60125b60ff16905080821415612a105783925050506128f4565b81811115612a3057612a2784838303600a0a61426a565b925050506128f4565b612a3f84828403600a0a61428e565b9695505050505050565b60006128f4826128ee85670de0b6b3a764000061426a565b80820382811115610d8b57600080fd5b600073e592427a0aece92de3edee1f18e0157c05861564612a9387828761432b565b60606001600160a01b03881673853d955acef822db058eb8505911ed77f175b99e148015612ade57506001600160a01b038716736b175474e89094c44da98b954eedeac495271d0f14155b80612b2d57506001600160a01b03871673853d955acef822db058eb8505911ed77f175b99e148015612b2d57506001600160a01b038816736b175474e89094c44da98b954eedeac495271d0f14155b15612b4a57736b175474e89094c44da98b954eedeac495271d0f93505b6001600160a01b03841615612c59576000612b65898661448d565b90506000612b73898761448d565b90506001600160a01b03891673f4dc48d260c93ad6a96c5ce563e70ca578987c74148015612bbe57506001600160a01b03861673c02aaa39b223fe8d0a0e5c4f27ead9083c756cc214155b15612c27578982878373c02aaa39b223fe8d0a0e5c4f27ead9083c756cc2612bfa73c02aaa39b223fe8d0a0e5c4f27ead9083c756cc28f61448d565b8e604051602001612c1197969594939291906155db565b6040516020818303038152906040529250612c52565b898287838c604051602001612c40959493929190615571565b60405160208183030381529060405292505b5050612c8f565b6000612c65898961448d565b9050888189604051602001612c7c9392919061551e565b6040516020818303038152906040529150505b6040805160a0810182528281523060208201524281830152606081018890526080810187905290517fc04b8d590000000000000000000000000000000000000000000000000000000081526001600160a01b0384169063c04b8d5990612cf9908490600401615aef565b602060405180830381600087803b158015612d1357600080fd5b505af1158015612d27573d6000803e3d6000fd5b505050506040513d601f19601f82011682018060405250810190612d4b919061541f565b9998505050505050505050565b80820182811015610d8b57600080fd5b8161163c5761163c81614887565b806001600160a01b0316638da5cb5b6040518163ffffffff1660e01b815260040160206040518083038186803b158015612daf57600080fd5b505afa158015612dc3573d6000803e3d6000fd5b505050506040513d6020811015612dd957600080fd5b50516001600160a01b0316331480612e5d5750806001600160a01b0316638d97e0436040518163ffffffff1660e01b815260040160206040518083038186803b158015612e2557600080fd5b505afa158015612e39573d6000803e3d6000fd5b505050506040513d6020811015612e4f57600080fd5b50516001600160a01b031633145b612e985760405162461bcd60e51b815260040180806020018281038252602a815260200180615d4e602a913960400191505060405180910390fd5b50565b801580612f3a5750604080517fdd62ed3e0000000000000000000000000000000000000000000000000000000081523060048201526001600160a01b03848116602483015291519185169163dd62ed3e91604480820192602092909190829003018186803b158015612f0c57600080fd5b505afa158015612f20573d6000803e3d6000fd5b505050506040513d6020811015612f3657600080fd5b5051155b612f755760405162461bcd60e51b8152600401808060200182810382526036815260200180615da26036913960400191505060405180910390fd5b604080516001600160a01b038416602482015260448082018490528251808303909101815260649091019091526020810180516001600160e01b031663095ea7b360e01b179052610d209084906148da565b6000815160411461301f576040805162461bcd60e51b815260206004820152601f60248201527f45434453413a20696e76616c6964207369676e6174757265206c656e67746800604482015290519081900360640190fd5b60208201516040830151606084015160001a612a3f8682858561498b565b60007f00000000000000000000000000000000000000000000000000000000000000006001600160a01b031663bc819ea66040518163ffffffff1660e01b815260040160006040518083038186803b15801561309857600080fd5b505afa1580156130ac573d6000803e3d6000fd5b505050506040513d6000823e601f3d908101601f191682016040526130d4919081019061513d565b905060005b815181101561325b5760008282815181106130f057fe5b602002602001015190506000816001600160a01b03166370a08231306040518263ffffffff1660e01b81526004016131289190615657565b60206040518083038186803b15801561314057600080fd5b505afa158015613154573d6000803e3d6000fd5b505050506040513d601f19601f82011682018060405250810190613178919061541f565b90506001600160a01b03821673f4dc48d260c93ad6a96c5ce563e70ca578987c74148015906131c457506001600160a01b03821673c02aaa39b223fe8d0a0e5c4f27ead9083c756cc214155b80156131e757506001600160a01b03821660009081526068602052604090205481115b1561321b5761321761320e8373c02aaa39b223fe8d0a0e5c4f27ead9083c756cc28461401a565b60706000610a54565b6070555b6001600160a01b03821673c02aaa39b223fe8d0a0e5c4f27ead9083c756cc214156132515761324d8160706000610a54565b6070555b50506001016130d9565b506040516370a0823160e01b81527f49d512bf9cb224241c05691e73eb9fab078cf350c7dbcbcf66788f1fc0cc8b0b90429073c02aaa39b223fe8d0a0e5c4f27ead9083c756cc2906370a08231906132b7903090600401615657565b60206040518083038186803b1580156132cf57600080fd5b505afa1580156132e3573d6000803e3d6000fd5b505050506040513d601f19601f82011682018060405250810190613307919061541f565b604051613315929190615b51565b60405180910390a150565b604080516001600160a01b0380861660248301528416604482015260648082018490528251808303909101815260849091019091526020810180516001600160e01b03167f23b872dd000000000000000000000000000000000000000000000000000000001790526133939085906148da565b50505050565b60006133ce73c02aaa39b223fe8d0a0e5c4f27ead9083c756cc273f4dc48d260c93ad6a96c5ce563e70ca578987c748461401a565b606554909150613408906001600160a01b03166133ec83600261428e565b73f4dc48d260c93ad6a96c5ce563e70ca578987c749190613faf565b6134377f00000000000000000000000000000000000000000000000000000000000000006133ec83600261428e565b6134448160706002610a54565b6072556040517fead6bc1fbe3e9483a6b9cb8433997e459522311151455ee2112877dc4daeb55990610c0590429085908590615bbd565b600061348f826706f05b59d3b200006128d6565b905060006134c673c02aaa39b223fe8d0a0e5c4f27ead9083c756cc273f4dc48d260c93ad6a96c5ce563e70ca578987c748461401a565b90506134fb73f4dc48d260c93ad6a96c5ce563e70ca578987c7473f19f91d7889668a533f14d076adc187be781a45883612e9b565b61352e73c02aaa39b223fe8d0a0e5c4f27ead9083c756cc273f19f91d7889668a533f14d076adc187be781a45884612e9b565b6040516370a0823160e01b815260009073f19f91d7889668a533f14d076adc187be781a458906370a0823190613588907f000000000000000000000000000000000000000000000000000000000000000090600401615657565b60206040518083038186803b1580156135a057600080fd5b505afa1580156135b4573d6000803e3d6000fd5b505050506040513d601f19601f820116820180604052508101906135d8919061541f565b6040517f8dbdbe6d00000000000000000000000000000000000000000000000000000000815290915060009073f19f91d7889668a533f14d076adc187be781a45890638dbdbe6d9061365290879087907f000000000000000000000000000000000000000000000000000000000000000090600401615b5f565b602060405180830381600087803b15801561366c57600080fd5b505af1158015613680573d6000803e3d6000fd5b505050506040513d601f19601f820116820180604052508101906136a4919061541f565b905061381f6137638373f19f91d7889668a533f14d076adc187be781a4586001600160a01b03166370a082317f00000000000000000000000000000000000000000000000000000000000000006040518263ffffffff1660e01b815260040161370d9190615657565b60206040518083038186803b15801561372557600080fd5b505afa158015613739573d6000803e3d6000fd5b505050506040513d601f19601f8201168201806040525081019061375d919061541f565b90612a61565b8214801561381857506040516370a0823160e01b815260009073f19f91d7889668a533f14d076adc187be781a458906370a08231906137c6907f000000000000000000000000000000000000000000000000000000000000000090600401615657565b60206040518083038186803b1580156137de57600080fd5b505afa1580156137f2573d6000803e3d6000fd5b505050506040513d601f19601f82011682018060405250810190613816919061541f565b115b6071612d68565b60738054860190556040517fd7f28048575eead8851d024ead087913957dfb4fd1a02b4d1573f5352a5a2be39061385b90429087908790615bbd565b60405180910390a15050505050565b60005b606654811015613a5a5760006066828154811061388657fe5b60009182526020918290200154604080517ff85cb5c800000000000000000000000000000000000000000000000000000000815290516001600160a01b039092169263f85cb5c892600480840193829003018186803b1580156138e857600080fd5b505afa1580156138fc573d6000803e3d6000fd5b505050506040513d601f19601f820116820180604052508101906139209190614fa8565b905060006001600160a01b03821673c02aaa39b223fe8d0a0e5c4f27ead9083c756cc2146139925761398b73c02aaa39b223fe8d0a0e5c4f27ead9083c756cc28361279c6067878154811061397157fe5b9060005260206000200154886128d690919063ffffffff16565b90506139a5565b6139a26067848154811061103c57fe5b90505b6139d4606684815481106139b557fe5b6000918252602090912001546001600160a01b03848116911683613faf565b606683815481106139e157fe5b9060005260206000200160009054906101000a90046001600160a01b03166001600160a01b03167f2eaf4a63a45c70f8c897bb4d267391aa5da44272b2c9eda3aa02a99111d06f3742613a3a6067878154811061397157fe5b604051613a48929190615b51565b60405180910390a2505060010161386d565b50607480549091019055565b6001600160a01b0380821660009081526069602052604090205416613a8e8115156075612d68565b826001600160a01b0385811690841614613ada57613ad7856001600160a01b03851615613abb5784613ad1565b73c02aaa39b223fe8d0a0e5c4f27ead9083c756cc25b8661401a565b90505b6001600160a01b038316613bc3576040517f2e1a7d4d00000000000000000000000000000000000000000000000000000000815273c02aaa39b223fe8d0a0e5c4f27ead9083c756cc290632e1a7d4d90613b38908790600401615b48565b600060405180830381600087803b158015613b5257600080fd5b505af1158015613b66573d6000803e3d6000fd5b50505050816001600160a01b0316631249c58b856040518263ffffffff1660e01b81526004016000604051808303818588803b158015613ba557600080fd5b505af1158015613bb9573d6000803e3d6000fd5b5050505050613c70565b613bd76001600160a01b0384168383612e9b565b6040517fa0712d680000000000000000000000000000000000000000000000000000000081526001600160a01b0383169063a0712d6890613c1c908490600401615b48565b602060405180830381600087803b158015613c3657600080fd5b505af1158015613c4a573d6000803e3d6000fd5b505050506040513d601f19601f82011682018060405250810190613c6e919061541f565b505b60007f00000000000000000000000000000000000000000000000000000000000000006001600160a01b0316632630c12f6040518163ffffffff1660e01b815260040160206040518083038186803b158015613ccb57600080fd5b505afa158015613cdf573d6000803e3d6000fd5b505050506040513d601f19601f82011682018060405250810190613d039190614fa8565b6001600160a01b031663ac41865a8573c02aaa39b223fe8d0a0e5c4f27ead9083c756cc26040518363ffffffff1660e01b8152600401613d4492919061566b565b60206040518083038186803b158015613d5c57600080fd5b505afa158015613d70573d6000803e3d6000fd5b505050506040513d601f19601f82011682018060405250810190613d94919061541f565b90506000613da283836128d6565b9050613db18160706005610a54565b6075556040516001600160a01b038616907f26ad8f0c19554f6771309e2ce6bbb81e1b4960161535735bd15845e4bbba29a790613df19042908590615b51565b60405180910390a250505050505050565b606e54156128d4576000606d54606e5410613e1f57606d54613e23565b606e545b6040516370a0823160e01b815290915060009073f4dc48d260c93ad6a96c5ce563e70ca578987c74906370a0823190613e60903090600401615657565b60206040518083038186803b158015613e7857600080fd5b505afa158015613e8c573d6000803e3d6000fd5b505050506040513d601f19601f82011682018060405250810190613eb0919061541f565b9050818110613ebf5781613ec1565b805b606554909250613ef09073f4dc48d260c93ad6a96c5ce563e70ca578987c74906001600160a01b031684613faf565b606e54613efd9083612a61565b606e556040517fb04849741dcc54ec81be5b4974b53836c36df01b634e717f9d674ec7d30c4f3890613f329042908590615b51565b60405180910390a1613f478260706006610a54565b6076555050565b6001600160a01b038316600090815260796020526040812054613fa790613f82906109b490670de0b6b3a764000090612d58565b613fa18673f4dc48d260c93ad6a96c5ce563e70ca578987c74876128fb565b906128d6565b949350505050565b604080516001600160a01b038416602482015260448082018490528251808303909101815260649091019091526020810180516001600160e01b03167fa9059cbb00000000000000000000000000000000000000000000000000000000179052610d209084906148da565b6000826001600160a01b0316846001600160a01b0316141561403d5750806128f4565b60007f00000000000000000000000000000000000000000000000000000000000000006001600160a01b0316632630c12f6040518163ffffffff1660e01b815260040160206040518083038186803b15801561409857600080fd5b505afa1580156140ac573d6000803e3d6000fd5b505050506040513d601f19601f820116820180604052508101906140d09190614fa8565b6001600160a01b031663ac41865a86866040518363ffffffff1660e01b81526004016140fd92919061566b565b60206040518083038186803b15801561411557600080fd5b505afa158015614129573d6000803e3d6000fd5b505050506040513d601f19601f8201168201806040525081019061414d919061541f565b905061415c8115156062612d68565b600061416d868661096287866128d6565b905060006141896109bb607754846128d690919063ffffffff16565b9050614199878787846000612a71565b979650505050505050565b60006141af3061280a565b15905090565b600054610100900460ff16806141ce57506141ce6141a4565b806141dc575060005460ff16155b6142175760405162461bcd60e51b815260040180806020018281038252602e815260200180615cfe602e913960400191505060405180910390fd5b600054610100900460ff16158015614242576000805460ff1961ff0019909116610100171660011790555b61424a614b09565b614252614ba9565b8015612e98576000805461ff001916905550565b3390565b60008215806142855750508181028183828161428257fe5b04145b610d8b57600080fd5b60008082116142e4576040805162461bcd60e51b815260206004820152601a60248201527f536166654d6174683a206469766973696f6e206279207a65726f000000000000604482015290519081900360640190fd5b8183816142ed57fe5b049392505050565b600073eeeeeeeeeeeeeeeeeeeeeeeeeeeeeeeeeeeeeeee6001600160a01b0383161480610d8b5750506001600160a01b03161590565b604080516001600160a01b038481166024830152604480830185905283518084039091018152606490920183526020820180516001600160e01b031663095ea7b360e01b1781529251825160009485949389169392918291908083835b602083106143a75780518252601f199092019160209182019101614388565b6001836020036101000a0380198251168184511680821785525050505050509050019150506000604051808303816000865af19150503d8060008114614409576040519150601f19603f3d011682016040523d82523d6000602084013e61440e565b606091505b509150915081801561443c57508051158061443c575080806020019051602081101561443957600080fd5b50515b6115a1576040805162461bcd60e51b815260206004820152600260248201527f5341000000000000000000000000000000000000000000000000000000000000604482015290519081900360640190fd5b604051630b4c774160e11b81526000908190731f98431c8ad98523631ae4a59f267346ea31f98490631698ee82906144cf90879087906101f490600401615685565b60206040518083038186803b1580156144e757600080fd5b505afa1580156144fb573d6000803e3d6000fd5b505050506040513d601f19601f8201168201806040525081019061451f9190614fa8565b604051630b4c774160e11b8152909150600090731f98431c8ad98523631ae4a59f267346ea31f98490631698ee82906145629088908890610bb890600401615685565b60206040518083038186803b15801561457a57600080fd5b505afa15801561458e573d6000803e3d6000fd5b505050506040513d601f19601f820116820180604052508101906145b29190614fa8565b604051630b4c774160e11b8152909150600090731f98431c8ad98523631ae4a59f267346ea31f98490631698ee82906145f5908990899061271090600401615685565b60206040518083038186803b15801561460d57600080fd5b505afa158015614621573d6000803e3d6000fd5b505050506040513d601f19601f820116820180604052508101906146459190614fa8565b905060006001600160a01b03841661465e5760006146cf565b836001600160a01b0316631a6865026040518163ffffffff1660e01b815260040160206040518083038186803b15801561469757600080fd5b505afa1580156146ab573d6000803e3d6000fd5b505050506040513d601f19601f820116820180604052508101906146cf91906153e0565b905060006001600160a01b0384166146e8576000614759565b836001600160a01b0316631a6865026040518163ffffffff1660e01b815260040160206040518083038186803b15801561472157600080fd5b505afa158015614735573d6000803e3d6000fd5b505050506040513d601f19601f8201168201806040525081019061475991906153e0565b905060006001600160a01b0384166147725760006147e3565b836001600160a01b0316631a6865026040518163ffffffff1660e01b815260040160206040518083038186803b1580156147ab57600080fd5b505afa1580156147bf573d6000803e3d6000fd5b505050506040513d601f19601f820116820180604052508101906147e391906153e0565b9050816001600160801b0316836001600160801b0316101580156148195750806001600160801b0316836001600160801b031610155b1561482e576101f49650505050505050610d8b565b826001600160801b0316826001600160801b0316101580156148625750806001600160801b0316826001600160801b031610155b1561487757610bb89650505050505050610d8b565b5061271098975050505050505050565b62461bcd60e51b6000908152602060045260076024526642414223000030600a808404818106603090810160081b95839006959095019082900491820690940160101b939093010160c81b604452606490fd5b600061492f826040518060400160405280602081526020017f5361666545524332303a206c6f772d6c6576656c2063616c6c206661696c6564815250856001600160a01b0316614ca29092919063ffffffff16565b805190915015610d205780806020019051602081101561494e57600080fd5b5051610d205760405162461bcd60e51b815260040180806020018281038252602a815260200180615d78602a913960400191505060405180910390fd5b60007f7fffffffffffffffffffffffffffffff5d576e7357a4501ddfe92f46681b20a08211156149ec5760405162461bcd60e51b8152600401808060200182810382526022815260200180615cdc6022913960400191505060405180910390fd5b8360ff16601b1480614a0157508360ff16601c145b614a3c5760405162461bcd60e51b8152600401808060200182810382526022815260200180615d2c6022913960400191505060405180910390fd5b600060018686868660405160008152602001604052604051808581526020018460ff1681526020018381526020018281526020019450505050506020604051602081039080840390855afa158015614a98573d6000803e3d6000fd5b5050604051601f1901519150506001600160a01b038116614b00576040805162461bcd60e51b815260206004820152601860248201527f45434453413a20696e76616c6964207369676e61747572650000000000000000604482015290519081900360640190fd5b95945050505050565b600054610100900460ff1680614b225750614b226141a4565b80614b30575060005460ff16155b614b6b5760405162461bcd60e51b815260040180806020018281038252602e815260200180615cfe602e913960400191505060405180910390fd5b600054610100900460ff16158015614252576000805460ff1961ff0019909116610100171660011790558015612e98576000805461ff001916905550565b600054610100900460ff1680614bc25750614bc26141a4565b80614bd0575060005460ff16155b614c0b5760405162461bcd60e51b815260040180806020018281038252602e815260200180615cfe602e913960400191505060405180910390fd5b600054610100900460ff16158015614c36576000805460ff1961ff0019909116610100171660011790555b6000614c40614266565b603380546001600160a01b0319166001600160a01b038316908117909155604051919250906000907f8be0079c531659141344cd1fd0a4f28419497f9722a3daafe3b4186f6b6457e0908290a3508015612e98576000805461ff001916905550565b6060613fa7848460008585614cb68561280a565b614d07576040805162461bcd60e51b815260206004820152601d60248201527f416464726573733a2063616c6c20746f206e6f6e2d636f6e7472616374000000604482015290519081900360640190fd5b600080866001600160a01b031685876040518082805190602001908083835b60208310614d455780518252601f199092019160209182019101614d26565b6001836020036101000a03801982511681845116808217855250505050505090500191505060006040518083038185875af1925050503d8060008114614da7576040519150601f19603f3d011682016040523d82523d6000602084013e614dac565b606091505b509150915061419982828660608315614dc65750816128f4565b825115614dd65782518084602001fd5b8160405162461bcd60e51b81526004018080602001828103825283818151815260200191508051906020019080838360005b83811015614e20578181015183820152602001614e08565b50505050905090810190601f168015614e4d5780820380516001836020036101000a031916815260200191505b509250505060405180910390fd5b5080546000825590600052602060002090810190612e989190614e97565b6040518060e001604052806007906020820280368337509192915050565b5b80821115614eac5760008155600101614e98565b5090565b803561280f81615c92565b600082601f830112614ecb578081fd5b81356020614ee0614edb83615c74565b615c50565b8281528181019085830183850287018401881015614efc578586fd5b855b85811015614f1a57813584529284019290840190600101614efe565b5090979650505050505050565b600082601f830112614f37578081fd5b813567ffffffffffffffff811115614f4b57fe5b614f5e601f8201601f1916602001615c50565b818152846020838601011115614f72578283fd5b816020850160208301379081016020019190915292915050565b600060208284031215614f9d578081fd5b81356128f481615c92565b600060208284031215614fb9578081fd5b81516128f481615c92565b60008060008060808587031215614fd9578283fd5b8435614fe481615c92565b93506020850135614ff481615c92565b93969395505050506040820135916060013590565b6000806040838503121561501b578182fd5b823561502681615c92565b946020939093013593505050565b60008060008060808587031215615049578384fd5b843561505481615c92565b93506020850135925060408501359150606085013561507281615c92565b939692955090935050565b6000806000806000806000806000806000806101808d8f03121561509f57898afd5b6150a88d614eb0565b9b5060208d01359a5060408d0135995060608d0135985060808d0135975060a08d0135965060c08d0135955060e08d013594506101008d013593506150f06101208e01614eb0565b92506150ff6101408e01614eb0565b915067ffffffffffffffff6101608e0135111561511a578081fd5b61512b8e6101608f01358f01614f27565b90509295989b509295989b509295989b565b6000602080838503121561514f578182fd5b825167ffffffffffffffff811115615165578283fd5b8301601f81018513615175578283fd5b8051615183614edb82615c74565b818152838101908385018584028501860189101561519f578687fd5b8694505b838510156151ca5780516151b681615c92565b8352600194909401939185019185016151a3565b50979650505050505050565b600080604083850312156151e8578182fd5b823567ffffffffffffffff808211156151ff578384fd5b818501915085601f830112615212578384fd5b81356020615222614edb83615c74565b82815281810190858301838502870184018b101561523e578889fd5b8896505b8487101561526957803561525581615c92565b835260019690960195918301918301615242565b509650508601359250508082111561527f578283fd5b5061528c85828601614ebb565b9150509250929050565b600080602083850312156152a8578182fd5b823567ffffffffffffffff808211156152bf578384fd5b818501915085601f8301126152d2578384fd5b8135818111156152e0578485fd5b86602080830285010111156152f3578485fd5b60209290920196919550909350505050565b60006020808385031215615317578182fd5b825167ffffffffffffffff81111561532d578283fd5b8301601f8101851361533d578283fd5b805161534b614edb82615c74565b8181528381019083850185840285018601891015615367578687fd5b8694505b838510156151ca57805183526001949094019391850191850161536b565b60006020828403121561539a578081fd5b81516128f481615ca7565b600080604083850312156153b7578182fd5b82359150602083013567ffffffffffffffff8111156153d4578182fd5b61528c85828601614f27565b6000602082840312156153f1578081fd5b81516001600160801b03811681146128f4578182fd5b600060208284031215615418578081fd5b5035919050565b600060208284031215615430578081fd5b5051919050565b60008060408385031215615449578182fd5b82359150602083013561545b81615ca7565b809150509250929050565b60008060408385031215615478578182fd5b50508035926020909101359150565b600080600080600060a0868803121561549e578283fd5b8535945060208601359350604086013592506060860135915060808601356154c581615c92565b809150509295509295909350565b60008151808452815b818110156154f8576020818501810151868301820152016154dc565b818111156155095782602083870101525b50601f01601f19169290920160200192915050565b606093841b6bffffffffffffffffffffffff19908116825260e89390931b7fffffff0000000000000000000000000000000000000000000000000000000000166014820152921b166017820152602b0190565b6bffffffffffffffffffffffff19606096871b811682527fffffff000000000000000000000000000000000000000000000000000000000060e896871b8116601484015294871b811660178301529290941b909216602b840152921b909116602e82015260420190565b6bffffffffffffffffffffffff19606098891b811682527fffffff000000000000000000000000000000000000000000000000000000000060e898891b8116601484015296891b8116601783015294871b8616602b82015292871b8416602e840152941b90921660428301529190921b16604582015260590190565b6001600160a01b0391909116815260200190565b6001600160a01b0392831681529116602082015260400190565b6001600160a01b03938416815291909216602082015262ffffff909116604082015260600190565b6020808252825182820181905260009190848201906040850190845b818110156156ee5783516001600160a01b0316835292840192918401916001016156c9565b50909695505050505050565b60e08101818360005b6007811015615722578151835260209283019290910190600101615703565b50505092915050565b6020808252825182820181905260009190848201906040850190845b818110156156ee57835183529284019291840191600101615747565b7fffffffff0000000000000000000000000000000000000000000000000000000091909116815260200190565b60208082526019908201527f4e6f7420656e6f75676820617373657420746f20747261646500000000000000604082015260600190565b60208082526012908201527f4e6f7420612076616c69642063546f6b656e0000000000000000000000000000604082015260600190565b6020808252600c908201527f46656520746f6f20686967680000000000000000000000000000000000000000604082015260600190565b60208082526014908201527f77726f6e6720616d6f756e74206f66204241424c000000000000000000000000604082015260600190565b60208082526015908201527f4e6f7420656e6f75676820746f2070726f746563740000000000000000000000604082015260600190565b6020808252600f908201527f4e6f7420656e6f756768204241424c0000000000000000000000000000000000604082015260600190565b6020808252601b908201527f417373657420666f7220707572636861736573206e6f74207365740000000000604082015260600190565b60208082526013908201527f4e6f7420656e6f75676820746f20726570617900000000000000000000000000604082015260600190565b6020808252600e908201527f4e6f20707269636520666f756e64000000000000000000000000000000000000604082015260600190565b60208082526008908201527f426f6e64203e2030000000000000000000000000000000000000000000000000604082015260600190565b60208082526016908201527f4d75737420626520612077616e74656420617373657400000000000000000000604082015260600190565b60208082526011908201527f546f6f206d75636820736c697070616765000000000000000000000000000000604082015260600190565b60208082526026908201527f4e6f7420656e6f7567682062616c616e636520746f206275792077616e74656460408201527f2061737365740000000000000000000000000000000000000000000000000000606082015260800190565b60208082526015908201527f4e6f7420656e6f75676820636f6c6c61746572616c0000000000000000000000604082015260600190565b60208082526015908201527f50726963652069732061626f7665207461726765740000000000000000000000604082015260600190565b600060208252825160a06020840152615b0b60c08401826154d3565b90506001600160a01b0360208501511660408401526040840151606084015260608401516080840152608084015160a08401528091505092915050565b90815260200190565b918252602082015260400190565b92835260208301919091526001600160a01b0316604082015260600190565b93845260208401929092526001600160a01b03908116604084015216606082015260800190565b92835260208301919091521515604082015260600190565b9283526020830191909152604082015260600190565b60006101408c83528b60208401528a60408401528960608401526001600160a01b03808a1660808501528860a08501528760c085015280871660e08501528086166101008501525080610120840152615c2e818401856154d3565b9d9c50505050505050505050505050565b91825260ff16602082015260400190565b60405181810167ffffffffffffffff81118282101715615c6c57fe5b604052919050565b600067ffffffffffffffff821115615c8857fe5b5060209081020190565b6001600160a01b0381168114612e9857600080fd5b8015158114612e9857600080fdfe4f776e61626c653a206e6577206f776e657220697320746865207a65726f206164647265737345434453413a20696e76616c6964207369676e6174757265202773272076616c7565496e697469616c697a61626c653a20636f6e747261637420697320616c726561647920696e697469616c697a656445434453413a20696e76616c6964207369676e6174757265202776272076616c75654f6e6c7920676f7665726e616e6365206f7220656d657267656e63792063616e2063616c6c20746869735361666545524332303a204552433230206f7065726174696f6e20646964206e6f7420737563636565645361666545524332303a20617070726f76652066726f6d206e6f6e2d7a65726f20746f206e6f6e2d7a65726f20616c6c6f77616e6365a2646970667358221220359a90be6ca7322db2b9f0a86194c747431b6a89bc493b5384ce22c3062d612264736f6c63430007060033496e697469616c697a61626c653a20636f6e747261637420697320616c726561647920696e697469616c697a6564",
  "devdoc": {
    "kind": "dev",
    "methods": {
      "addReward(uint256,uint256)": {
        "params": {
          "_bablAmount": "Total amount to distribute",
          "_weeklyRate": "Weekly amount to distribute"
        }
      },
      "bondAsset(address,uint256,uint256,address)": {
        "params": {
          "_amountToBond": "Amount to be bonded",
          "_assetToBond": "Asset that the user wants to bond",
          "_minAmountOut": "Min amount of Heart garden shares to recieve"
        }
      },
      "bondAssetBySig(address,uint256,uint256,uint256,uint256,uint256,uint256,uint256,uint256,address,address,bytes)": {
        "params": {
          "_amountToBond": "Amount to be bonded",
          "_assetToBond": "Asset that the user wants to bond"
        }
      },
      "borrowFusePool(address,uint256)": {
        "params": {
          "_assetToBorrow": "Asset that the heart is receiving from sender",
          "_borrowAmount": "Amount of asset to transfet"
        }
      },
      "getFeeDistributionWeights()": {
        "returns": {
          "_0": "The array of weights for the fees"
        }
      },
      "getGardenWeights()": {
        "returns": {
          "_0": "The array of weights for voted gardens"
        }
      },
      "getTotalStats()": {
        "returns": {
          "_0": "The array of stats for the fees"
        }
      },
      "getVotedGardens()": {
        "returns": {
          "_0": "The array of voted gardens"
        }
      },
      "initialize(uint256[])": {
        "params": {
          "_feeWeights": "Weights of the fee distribution"
        }
      },
      "lendFusePool(address,uint256)": {
        "params": {
          "_assetToLend": "Address of the asset to lend",
          "_lendAmount": "Amount of the asset to lend"
        }
      },
      "owner()": {
        "details": "Returns the address of the current owner."
      },
      "protectBABL(uint256,uint256,uint256,uint256,address)": {
        "params": {
          "_bablPrice": "Market price of BABL in DAI",
          "_bablPriceProtectionAt": "BABL Price in DAI to protect",
          "_hopToken": "Hop token to use for UniV3 trade",
          "_purchaseAssetPrice": "Price of purchase asset in DAI",
          "_slippage": "Trade slippage on UinV3 to control amount of arb"
        }
      },
      "renounceOwnership()": {
        "details": "Leaves the contract without owner. It will not be possible to call `onlyOwner` functions anymore. Can only be called by the current owner. NOTE: Renouncing ownership will leave the contract without an owner, thereby removing any functionality that is only available to the owner."
      },
      "repayFusePool(address,uint256)": {
        "params": {
          "_amountToRepay": "Amount of asset to transfer",
          "_borrowedAsset": "Borrowed asset that we want to pay"
        }
      },
      "resolveGardenVotes(address[],uint256[])": {
        "params": {
          "_gardens": "Gardens that are going to receive investment",
          "_weights": "Weight for the investment in each garden normalied to 1e18 precision"
        }
      },
      "sellWantedAssetToHeart(address,uint256)": {
        "params": {
          "_amountToSell": "Amount of asset to sell",
          "_assetToSell": "Asset that the heart is receiving from strategy to sell"
        }
      },
      "setHeartGardenAddress(address)": {
        "params": {
          "_heartGarden": "New heart garden address"
        }
      },
      "setMinTradeAmount(address,uint256)": {
        "params": {
          "_asset": "Asset to edit the min amount",
          "_minAmountOut": "New min amount"
        }
      },
      "setTradeSlippage(uint256)": {
        "params": {
          "_tradeSlippage": "Trade slippage"
        }
      },
      "trade(address,address,uint256,uint256)": {
        "params": {
          "_fromAmount": "Amount of asset to exchange",
          "_fromAsset": "Asset to exchange",
          "_minAmountOut": "Min amount of received asset",
          "_toAsset": "Asset to receive"
        }
      },
      "transferOwnership(address)": {
        "details": "Transfers ownership of the contract to a new account (`newOwner`). Can only be called by the current owner."
      },
      "updateAssetToLend(address)": {
        "params": {
          "_assetToLend": "New asset to lend"
        }
      },
      "updateAssetToPurchase(address)": {
        "params": {
          "_purchaseAsset": "New asset to purchase"
        }
      },
      "updateBond(address,uint256)": {
        "params": {
          "_assetToBond": "Bond to update",
          "_bondDiscount": "Bond discount to apply 1e18"
        }
      },
      "updateFeeWeights(uint256[])": {
        "params": {
          "_feeWeights": "Array of % (up to 1e18) with the fee weights"
        }
      }
    },
    "version": 1
  },
  "userdoc": {
    "kind": "user",
    "methods": {
      "addReward(uint256,uint256)": {
        "notice": "Adds a BABL reward to be distributed weekly back to the heart garden"
      },
      "bondAsset(address,uint256,uint256,address)": {
        "notice": "Users can bond an asset that belongs to the program and receive a discount on hBABL. Note: Heart needs to have enough BABL to satisfy the discount. Note: User needs to approve the asset to bond first."
      },
      "bondAssetBySig(address,uint256,uint256,uint256,uint256,uint256,uint256,uint256,uint256,address,address,bytes)": {
        "notice": "Users can bond an asset that belongs to the program and receive a discount on hBABL. Note: Heart needs to have enough BABL to satisfy the discount. Note: User needs to approve the asset to bond first."
      },
      "borrowFusePool(address,uint256)": {
        "notice": "Heart borrows using its liquidity Note: Heart must have enough liquidity"
      },
      "getFeeDistributionWeights()": {
        "notice": "Getter to get the whole array of fee weights"
      },
      "getGardenWeights()": {
        "notice": "Getter to get the whole array of garden weights"
      },
      "getTotalStats()": {
        "notice": "Getter to get the whole array of total stats"
      },
      "getVotedGardens()": {
        "notice": "Getter to get the whole array of voted gardens"
      },
      "initialize(uint256[])": {
        "notice": "Set state variables and map asset pairs to their oracles"
      },
      "isValidSignature(bytes32,bytes)": {
        "notice": "Implements EIP-1271"
      },
      "lendFusePool(address,uint256)": {
        "notice": "Tell the heart to lend an asset on Fuse"
      },
      "protectBABL(uint256,uint256,uint256,uint256,address)": {
        "notice": "Heart will protect and buyback BABL whenever the price dips below the intended price protection. Note: Asset for purchases needs to be setup and have enough balance."
      },
      "pump()": {
        "notice": "Function to pump blood to the heart Note: Anyone can call this. Keeper in Defender will be set up to do it for convenience."
      },
      "repayFusePool(address,uint256)": {
        "notice": "Repays Heart fuse pool position Note: We must have the asset in the heart"
      },
      "resolveGardenVotes(address[],uint256[])": {
        "notice": "Resolves garden votes for this cycle Note: Only keeper can call this"
      },
      "sellWantedAssetToHeart(address,uint256)": {
        "notice": "Strategies can sell wanted assets by the protocol to the heart. Heart will buy them using borrowings in stables. Heart returns WETH so master swapper will take it from there. Note: Strategy needs to have approved the heart."
      },
      "setHeartGardenAddress(address)": {
        "notice": "Updates the heart garden address"
      },
      "setMinTradeAmount(address,uint256)": {
        "notice": "Updates the min amount to trade a specific asset"
      },
      "setTradeSlippage(uint256)": {
        "notice": "Updates the tradeSlippage"
      },
      "trade(address,address,uint256,uint256)": {
        "notice": "Trades one asset for another in the heart Note: We must have the _fromAsset _fromAmount available."
      },
      "updateAssetToLend(address)": {
        "notice": "Updates the next asset to lend on fuse pool"
      },
      "updateAssetToPurchase(address)": {
        "notice": "Updates the next asset to purchase assets from strategies at a premium"
      },
      "updateBond(address,uint256)": {
        "notice": "Updates the next asset to purchase assets from strategies at a premium"
      },
      "updateFeeWeights(uint256[])": {
        "notice": "Set the weights to allocate to different heart initiatives"
      },
      "updateMarkets()": {
        "notice": "Updates fuse pool market information and enters the markets"
      },
      "voteProposal(uint256,bool)": {
        "notice": "Function to vote for a proposal Note: Only keeper can call this. Votes need to have been resolved offchain. Warning: Gardens need to delegate to heart first."
      }
    },
    "version": 1
  },
  "storageLayout": {
    "storage": [
      {
        "astId": 492,
        "contract": "contracts/Heart.sol:HeartV4",
        "label": "_initialized",
        "offset": 0,
        "slot": "0",
        "type": "t_bool"
      },
      {
        "astId": 495,
        "contract": "contracts/Heart.sol:HeartV4",
        "label": "_initializing",
        "offset": 1,
        "slot": "0",
        "type": "t_bool"
      },
      {
        "astId": 1447,
        "contract": "contracts/Heart.sol:HeartV4",
        "label": "__gap",
        "offset": 0,
        "slot": "1",
        "type": "t_array(t_uint256)50_storage"
      },
      {
        "astId": 10,
        "contract": "contracts/Heart.sol:HeartV4",
        "label": "_owner",
        "offset": 0,
        "slot": "51",
        "type": "t_address"
      },
      {
        "astId": 129,
        "contract": "contracts/Heart.sol:HeartV4",
        "label": "__gap",
        "offset": 0,
        "slot": "52",
        "type": "t_array(t_uint256)49_storage"
      },
      {
        "astId": 12737,
        "contract": "contracts/Heart.sol:HeartV4",
        "label": "heartGarden",
        "offset": 0,
        "slot": "101",
        "type": "t_contract(IGarden)42913"
      },
      {
        "astId": 12741,
        "contract": "contracts/Heart.sol:HeartV4",
        "label": "votedGardens",
        "offset": 0,
        "slot": "102",
        "type": "t_array(t_address)dyn_storage"
      },
      {
        "astId": 12745,
        "contract": "contracts/Heart.sol:HeartV4",
        "label": "gardenWeights",
        "offset": 0,
        "slot": "103",
        "type": "t_array(t_uint256)dyn_storage"
      },
      {
        "astId": 12750,
        "contract": "contracts/Heart.sol:HeartV4",
        "label": "minAmounts",
        "offset": 0,
        "slot": "104",
        "type": "t_mapping(t_address,t_uint256)"
      },
      {
        "astId": 12755,
        "contract": "contracts/Heart.sol:HeartV4",
        "label": "assetToCToken",
        "offset": 0,
        "slot": "105",
        "type": "t_mapping(t_address,t_address)"
      },
      {
        "astId": 12758,
        "contract": "contracts/Heart.sol:HeartV4",
        "label": "assetToLend",
        "offset": 0,
        "slot": "106",
        "type": "t_address"
      },
      {
        "astId": 12761,
        "contract": "contracts/Heart.sol:HeartV4",
        "label": "lastPumpAt",
        "offset": 0,
        "slot": "107",
        "type": "t_uint256"
      },
      {
        "astId": 12764,
        "contract": "contracts/Heart.sol:HeartV4",
        "label": "lastVotesAt",
        "offset": 0,
        "slot": "108",
        "type": "t_uint256"
      },
      {
        "astId": 12767,
        "contract": "contracts/Heart.sol:HeartV4",
        "label": "weeklyRewardAmount",
        "offset": 0,
        "slot": "109",
        "type": "t_uint256"
      },
      {
        "astId": 12770,
        "contract": "contracts/Heart.sol:HeartV4",
        "label": "bablRewardLeft",
        "offset": 0,
        "slot": "110",
        "type": "t_uint256"
      },
      {
        "astId": 12774,
        "contract": "contracts/Heart.sol:HeartV4",
        "label": "feeDistributionWeights",
        "offset": 0,
        "slot": "111",
        "type": "t_array(t_uint256)dyn_storage"
      },
      {
        "astId": 12779,
        "contract": "contracts/Heart.sol:HeartV4",
        "label": "totalStats",
        "offset": 0,
        "slot": "112",
        "type": "t_array(t_uint256)7_storage"
      },
      {
        "astId": 12782,
        "contract": "contracts/Heart.sol:HeartV4",
        "label": "tradeSlippage",
        "offset": 0,
        "slot": "119",
        "type": "t_uint256"
      },
      {
        "astId": 12785,
        "contract": "contracts/Heart.sol:HeartV4",
        "label": "assetForPurchases",
        "offset": 0,
        "slot": "120",
        "type": "t_address"
      },
      {
        "astId": 12790,
        "contract": "contracts/Heart.sol:HeartV4",
        "label": "bondAssets",
        "offset": 0,
        "slot": "121",
        "type": "t_mapping(t_address,t_uint256)"
      },
      {
        "astId": 12792,
        "contract": "contracts/Heart.sol:HeartV4",
        "label": "signer",
        "offset": 0,
        "slot": "122",
        "type": "t_address"
      }
    ],
    "types": {
      "t_address": {
        "encoding": "inplace",
        "label": "address",
        "numberOfBytes": "20"
      },
      "t_array(t_address)dyn_storage": {
        "base": "t_address",
        "encoding": "dynamic_array",
        "label": "address[]",
        "numberOfBytes": "32"
      },
      "t_array(t_uint256)49_storage": {
        "base": "t_uint256",
        "encoding": "inplace",
        "label": "uint256[49]",
        "numberOfBytes": "1568"
      },
      "t_array(t_uint256)50_storage": {
        "base": "t_uint256",
        "encoding": "inplace",
        "label": "uint256[50]",
        "numberOfBytes": "1600"
      },
      "t_array(t_uint256)7_storage": {
        "base": "t_uint256",
        "encoding": "inplace",
        "label": "uint256[7]",
        "numberOfBytes": "224"
      },
      "t_array(t_uint256)dyn_storage": {
        "base": "t_uint256",
        "encoding": "dynamic_array",
        "label": "uint256[]",
        "numberOfBytes": "32"
      },
      "t_bool": {
        "encoding": "inplace",
        "label": "bool",
        "numberOfBytes": "1"
      },
      "t_contract(IGarden)42913": {
        "encoding": "inplace",
        "label": "contract IGarden",
        "numberOfBytes": "20"
      },
      "t_mapping(t_address,t_address)": {
        "encoding": "mapping",
        "key": "t_address",
        "label": "mapping(address => address)",
        "numberOfBytes": "32",
        "value": "t_address"
      },
      "t_mapping(t_address,t_uint256)": {
        "encoding": "mapping",
        "key": "t_address",
        "label": "mapping(address => uint256)",
        "numberOfBytes": "32",
        "value": "t_uint256"
      },
      "t_uint256": {
        "encoding": "inplace",
        "label": "uint256",
        "numberOfBytes": "32"
      }
    }
  }
}