{
  "address": "0xdf425815A0378107aa894e7D55C30AdCB6308685",
  "abi": [
    {
      "inputs": [
        {
          "internalType": "contract IBabController",
          "name": "_controller",
          "type": "address"
        },
        {
          "internalType": "string",
          "name": "_tokenURI",
          "type": "string"
        }
      ],
      "stateMutability": "nonpayable",
      "type": "constructor"
    },
    {
      "anonymous": false,
      "inputs": [
        {
          "indexed": true,
          "internalType": "address",
          "name": "owner",
          "type": "address"
        },
        {
          "indexed": true,
          "internalType": "address",
          "name": "approved",
          "type": "address"
        },
        {
          "indexed": true,
          "internalType": "uint256",
          "name": "tokenId",
          "type": "uint256"
        }
      ],
      "name": "Approval",
      "type": "event"
    },
    {
      "anonymous": false,
      "inputs": [
        {
          "indexed": true,
          "internalType": "address",
          "name": "owner",
          "type": "address"
        },
        {
          "indexed": true,
          "internalType": "address",
          "name": "operator",
          "type": "address"
        },
        {
          "indexed": false,
          "internalType": "bool",
          "name": "approved",
          "type": "bool"
        }
      ],
      "name": "ApprovalForAll",
      "type": "event"
    },
    {
      "anonymous": false,
      "inputs": [
        {
          "indexed": true,
          "internalType": "address",
          "name": "_member",
          "type": "address"
        },
        {
          "indexed": true,
          "internalType": "address",
          "name": "_garden",
          "type": "address"
        },
        {
          "indexed": false,
          "internalType": "uint8",
          "name": "_permission",
          "type": "uint8"
        },
        {
          "indexed": false,
          "internalType": "uint256",
          "name": "_tokenId",
          "type": "uint256"
        }
      ],
      "name": "GardenAccess",
      "type": "event"
    },
    {
      "anonymous": false,
      "inputs": [
        {
          "indexed": true,
          "internalType": "address",
          "name": "_member",
          "type": "address"
        },
        {
          "indexed": false,
          "internalType": "bool",
          "name": "_creation",
          "type": "bool"
        },
        {
          "indexed": false,
          "internalType": "uint256",
          "name": "_tokenId",
          "type": "uint256"
        }
      ],
      "name": "GardenCreationPower",
      "type": "event"
    },
    {
      "anonymous": false,
      "inputs": [
        {
          "indexed": true,
          "internalType": "string",
          "name": "_newURI",
          "type": "string"
        },
        {
          "indexed": true,
          "internalType": "string",
          "name": "_oldURI",
          "type": "string"
        }
      ],
      "name": "GateURIUpdated",
      "type": "event"
    },
    {
      "anonymous": false,
      "inputs": [
        {
          "indexed": true,
          "internalType": "address",
          "name": "_member",
          "type": "address"
        },
        {
          "indexed": true,
          "internalType": "uint256",
          "name": "_newItemId",
          "type": "uint256"
        }
      ],
      "name": "IshtarGateAwarded",
      "type": "event"
    },
    {
      "anonymous": false,
      "inputs": [
        {
          "indexed": true,
          "internalType": "address",
          "name": "previousOwner",
          "type": "address"
        },
        {
          "indexed": true,
          "internalType": "address",
          "name": "newOwner",
          "type": "address"
        }
      ],
      "name": "OwnershipTransferred",
      "type": "event"
    },
    {
      "anonymous": false,
      "inputs": [
        {
          "indexed": true,
          "internalType": "address",
          "name": "from",
          "type": "address"
        },
        {
          "indexed": true,
          "internalType": "address",
          "name": "to",
          "type": "address"
        },
        {
          "indexed": true,
          "internalType": "uint256",
          "name": "tokenId",
          "type": "uint256"
        }
      ],
      "name": "Transfer",
      "type": "event"
    },
    {
      "inputs": [],
      "name": "JUST_LP",
      "outputs": [
        {
          "internalType": "uint8",
          "name": "",
          "type": "uint8"
        }
      ],
      "stateMutability": "view",
      "type": "function"
    },
    {
      "inputs": [],
      "name": "NONE",
      "outputs": [
        {
          "internalType": "uint8",
          "name": "",
          "type": "uint8"
        }
      ],
      "stateMutability": "view",
      "type": "function"
    },
    {
      "inputs": [],
      "name": "STEWARD",
      "outputs": [
        {
          "internalType": "uint8",
          "name": "",
          "type": "uint8"
        }
      ],
      "stateMutability": "view",
      "type": "function"
    },
    {
      "inputs": [],
      "name": "STRATEGIST",
      "outputs": [
        {
          "internalType": "uint8",
          "name": "",
          "type": "uint8"
        }
      ],
      "stateMutability": "view",
      "type": "function"
    },
    {
      "inputs": [
        {
          "internalType": "address",
          "name": "to",
          "type": "address"
        },
        {
          "internalType": "uint256",
          "name": "tokenId",
          "type": "uint256"
        }
      ],
      "name": "approve",
      "outputs": [],
      "stateMutability": "nonpayable",
      "type": "function"
    },
    {
      "inputs": [
        {
          "internalType": "address",
          "name": "owner",
          "type": "address"
        }
      ],
      "name": "balanceOf",
      "outputs": [
        {
          "internalType": "uint256",
          "name": "",
          "type": "uint256"
        }
      ],
      "stateMutability": "view",
      "type": "function"
    },
    {
      "inputs": [],
      "name": "baseURI",
      "outputs": [
        {
          "internalType": "string",
          "name": "",
          "type": "string"
        }
      ],
      "stateMutability": "view",
      "type": "function"
    },
    {
      "inputs": [
        {
          "internalType": "address",
          "name": "_garden",
          "type": "address"
        },
        {
          "internalType": "address",
          "name": "_user",
          "type": "address"
        }
      ],
      "name": "canAddStrategiesInAGarden",
      "outputs": [
        {
          "internalType": "bool",
          "name": "",
          "type": "bool"
        }
      ],
      "stateMutability": "view",
      "type": "function"
    },
    {
      "inputs": [
        {
          "internalType": "address",
          "name": "_user",
          "type": "address"
        }
      ],
      "name": "canCreate",
      "outputs": [
        {
          "internalType": "bool",
          "name": "",
          "type": "bool"
        }
      ],
      "stateMutability": "view",
      "type": "function"
    },
    {
      "inputs": [
        {
          "internalType": "address",
          "name": "",
          "type": "address"
        }
      ],
      "name": "canCreateAGarden",
      "outputs": [
        {
          "internalType": "bool",
          "name": "",
          "type": "bool"
        }
      ],
      "stateMutability": "view",
      "type": "function"
    },
    {
      "inputs": [
        {
          "internalType": "address",
          "name": "_garden",
          "type": "address"
        },
        {
          "internalType": "address",
          "name": "_user",
          "type": "address"
        }
      ],
      "name": "canJoinAGarden",
      "outputs": [
        {
          "internalType": "bool",
          "name": "",
          "type": "bool"
        }
      ],
      "stateMutability": "view",
      "type": "function"
    },
    {
      "inputs": [
        {
          "internalType": "address",
          "name": "_garden",
          "type": "address"
        },
        {
          "internalType": "address",
          "name": "_user",
          "type": "address"
        }
      ],
      "name": "canVoteInAGarden",
      "outputs": [
        {
          "internalType": "bool",
          "name": "",
          "type": "bool"
        }
      ],
      "stateMutability": "view",
      "type": "function"
    },
    {
      "inputs": [],
      "name": "controller",
      "outputs": [
        {
          "internalType": "contract IBabController",
          "name": "",
          "type": "address"
        }
      ],
      "stateMutability": "view",
      "type": "function"
    },
    {
      "inputs": [
        {
          "internalType": "address",
          "name": "",
          "type": "address"
        }
      ],
      "name": "gardenAccessCount",
      "outputs": [
        {
          "internalType": "uint256",
          "name": "",
          "type": "uint256"
        }
      ],
      "stateMutability": "view",
      "type": "function"
    },
    {
      "inputs": [
        {
          "internalType": "uint256",
          "name": "tokenId",
          "type": "uint256"
        }
      ],
      "name": "getApproved",
      "outputs": [
        {
          "internalType": "address",
          "name": "",
          "type": "address"
        }
      ],
      "stateMutability": "view",
      "type": "function"
    },
    {
      "inputs": [
        {
          "internalType": "address[]",
          "name": "_users",
          "type": "address[]"
        },
        {
          "internalType": "bool[]",
          "name": "_perms",
          "type": "bool[]"
        }
      ],
      "name": "grantCreatorsInBatch",
      "outputs": [
        {
          "internalType": "bool",
          "name": "",
          "type": "bool"
        }
      ],
      "stateMutability": "nonpayable",
      "type": "function"
    },
    {
      "inputs": [
        {
          "internalType": "address",
          "name": "_garden",
          "type": "address"
        },
        {
          "internalType": "address[]",
          "name": "_users",
          "type": "address[]"
        },
        {
          "internalType": "uint8[]",
          "name": "_perms",
          "type": "uint8[]"
        }
      ],
      "name": "grantGardenAccessBatch",
      "outputs": [
        {
          "internalType": "bool",
          "name": "",
          "type": "bool"
        }
      ],
      "stateMutability": "nonpayable",
      "type": "function"
    },
    {
      "inputs": [
        {
          "internalType": "address",
          "name": "owner",
          "type": "address"
        },
        {
          "internalType": "address",
          "name": "operator",
          "type": "address"
        }
      ],
      "name": "isApprovedForAll",
      "outputs": [
        {
          "internalType": "bool",
          "name": "",
          "type": "bool"
        }
      ],
      "stateMutability": "view",
      "type": "function"
    },
    {
      "inputs": [],
      "name": "maxNumberOfInvites",
      "outputs": [
        {
          "internalType": "uint256",
          "name": "",
          "type": "uint256"
        }
      ],
      "stateMutability": "view",
      "type": "function"
    },
    {
      "inputs": [],
      "name": "name",
      "outputs": [
        {
          "internalType": "string",
          "name": "",
          "type": "string"
        }
      ],
      "stateMutability": "view",
      "type": "function"
    },
    {
      "inputs": [],
      "name": "owner",
      "outputs": [
        {
          "internalType": "address",
          "name": "",
          "type": "address"
        }
      ],
      "stateMutability": "view",
      "type": "function"
    },
    {
      "inputs": [
        {
          "internalType": "uint256",
          "name": "tokenId",
          "type": "uint256"
        }
      ],
      "name": "ownerOf",
      "outputs": [
        {
          "internalType": "address",
          "name": "",
          "type": "address"
        }
      ],
      "stateMutability": "view",
      "type": "function"
    },
    {
      "inputs": [
        {
          "internalType": "address",
          "name": "",
          "type": "address"
        },
        {
          "internalType": "address",
          "name": "",
          "type": "address"
        }
      ],
      "name": "permissionsByCommunity",
      "outputs": [
        {
          "internalType": "uint8",
          "name": "",
          "type": "uint8"
        }
      ],
      "stateMutability": "view",
      "type": "function"
    },
    {
      "inputs": [],
      "name": "renounceOwnership",
      "outputs": [],
      "stateMutability": "nonpayable",
      "type": "function"
    },
    {
      "inputs": [
        {
          "internalType": "address",
          "name": "from",
          "type": "address"
        },
        {
          "internalType": "address",
          "name": "to",
          "type": "address"
        },
        {
          "internalType": "uint256",
          "name": "tokenId",
          "type": "uint256"
        }
      ],
      "name": "safeTransferFrom",
      "outputs": [],
      "stateMutability": "nonpayable",
      "type": "function"
    },
    {
      "inputs": [
        {
          "internalType": "address",
          "name": "from",
          "type": "address"
        },
        {
          "internalType": "address",
          "name": "to",
          "type": "address"
        },
        {
          "internalType": "uint256",
          "name": "tokenId",
          "type": "uint256"
        },
        {
          "internalType": "bytes",
          "name": "_data",
          "type": "bytes"
        }
      ],
      "name": "safeTransferFrom",
      "outputs": [],
      "stateMutability": "nonpayable",
      "type": "function"
    },
    {
      "inputs": [
        {
          "internalType": "address",
          "name": "operator",
          "type": "address"
        },
        {
          "internalType": "bool",
          "name": "approved",
          "type": "bool"
        }
      ],
      "name": "setApprovalForAll",
      "outputs": [],
      "stateMutability": "nonpayable",
      "type": "function"
    },
    {
      "inputs": [
        {
          "internalType": "address",
          "name": "_user",
          "type": "address"
        },
        {
          "internalType": "bool",
          "name": "_canCreate",
          "type": "bool"
        }
      ],
      "name": "setCreatorPermissions",
      "outputs": [
        {
          "internalType": "uint256",
          "name": "",
          "type": "uint256"
        }
      ],
      "stateMutability": "nonpayable",
      "type": "function"
    },
    {
      "inputs": [
        {
          "internalType": "address",
          "name": "_user",
          "type": "address"
        },
        {
          "internalType": "address",
          "name": "_garden",
          "type": "address"
        },
        {
          "internalType": "uint8",
          "name": "_permission",
          "type": "uint8"
        }
      ],
      "name": "setGardenAccess",
      "outputs": [
        {
          "internalType": "uint256",
          "name": "",
          "type": "uint256"
        }
      ],
      "stateMutability": "nonpayable",
      "type": "function"
    },
    {
      "inputs": [
        {
          "internalType": "uint256",
          "name": "_maxNumberOfInvites",
          "type": "uint256"
        }
      ],
      "name": "setMaxNumberOfInvites",
      "outputs": [],
      "stateMutability": "nonpayable",
      "type": "function"
    },
    {
      "inputs": [
        {
          "internalType": "bytes4",
          "name": "interfaceId",
          "type": "bytes4"
        }
      ],
      "name": "supportsInterface",
      "outputs": [
        {
          "internalType": "bool",
          "name": "",
          "type": "bool"
        }
      ],
      "stateMutability": "view",
      "type": "function"
    },
    {
      "inputs": [],
      "name": "symbol",
      "outputs": [
        {
          "internalType": "string",
          "name": "",
          "type": "string"
        }
      ],
      "stateMutability": "view",
      "type": "function"
    },
    {
      "inputs": [
        {
          "internalType": "uint256",
          "name": "index",
          "type": "uint256"
        }
      ],
      "name": "tokenByIndex",
      "outputs": [
        {
          "internalType": "uint256",
          "name": "",
          "type": "uint256"
        }
      ],
      "stateMutability": "view",
      "type": "function"
    },
    {
      "inputs": [
        {
          "internalType": "address",
          "name": "owner",
          "type": "address"
        },
        {
          "internalType": "uint256",
          "name": "index",
          "type": "uint256"
        }
      ],
      "name": "tokenOfOwnerByIndex",
      "outputs": [
        {
          "internalType": "uint256",
          "name": "",
          "type": "uint256"
        }
      ],
      "stateMutability": "view",
      "type": "function"
    },
    {
      "inputs": [],
      "name": "tokenURI",
      "outputs": [
        {
          "internalType": "string",
          "name": "",
          "type": "string"
        }
      ],
      "stateMutability": "view",
      "type": "function"
    },
    {
      "inputs": [
        {
          "internalType": "uint256",
          "name": "tokenId",
          "type": "uint256"
        }
      ],
      "name": "tokenURI",
      "outputs": [
        {
          "internalType": "string",
          "name": "",
          "type": "string"
        }
      ],
      "stateMutability": "view",
      "type": "function"
    },
    {
      "inputs": [],
      "name": "totalSupply",
      "outputs": [
        {
          "internalType": "uint256",
          "name": "",
          "type": "uint256"
        }
      ],
      "stateMutability": "view",
      "type": "function"
    },
    {
      "inputs": [
        {
          "internalType": "address",
          "name": "from",
          "type": "address"
        },
        {
          "internalType": "address",
          "name": "to",
          "type": "address"
        },
        {
          "internalType": "uint256",
          "name": "tokenId",
          "type": "uint256"
        }
      ],
      "name": "transferFrom",
      "outputs": [],
      "stateMutability": "nonpayable",
      "type": "function"
    },
    {
      "inputs": [
        {
          "internalType": "address",
          "name": "newOwner",
          "type": "address"
        }
      ],
      "name": "transferOwnership",
      "outputs": [],
      "stateMutability": "nonpayable",
      "type": "function"
    },
    {
      "inputs": [
        {
          "internalType": "string",
          "name": "_tokenURI",
          "type": "string"
        }
      ],
      "name": "updateGardenURI",
      "outputs": [],
      "stateMutability": "nonpayable",
      "type": "function"
    }
  ],
  "transactionHash": "0x67783b2d6874444c09364ac6119761c69c75f34ff3cb6e1e4e68490d8d9b8d95",
  "args": [
    "0x26E44AD5b46C6A8C167815B7D180F6a5eD91D7bc",
    "http://json.api/test"
  ],
  "solcInputHash": "1cde26e1be086ba932a8865ced5ceef3",
  "bytecode": "0x60806040523480156200001157600080fd5b5060405162003a9038038062003a90833981810160405260408110156200003757600080fd5b8151602083018051604051929492938301929190846401000000008211156200005f57600080fd5b9083019060208201858111156200007557600080fd5b82516401000000008111828201881017156200009057600080fd5b82525081516020918201929091019080838360005b83811015620000bf578181015183820152602001620000a5565b50505050905090810190601f168015620000ed5780820380516001836020036101000a031916815260200191505b5060408181018152600a8252694973687461724761746560b01b602080840191909152815180830190925260048252631254d21560e21b9082015290935091506200014190506301ffc9a760e01b6200029a565b81516200015690600690602085019062000323565b5080516200016c90600790602084019062000323565b506200017f6380ac58cd60e01b6200029a565b62000191635b5e139f60e01b6200029a565b620001a363780e9d6360e01b6200029a565b5060009050620001b26200031f565b600a80546001600160a01b0319166001600160a01b038316908117909155604051919250906000907f8be0079c531659141344cd1fd0a4f28419497f9722a3daafe3b4186f6b6457e0908290a3506001600160a01b0382166200025c576040805162461bcd60e51b815260206004820152601560248201527f436f6e74726f6c6c6572206d7573742065786973740000000000000000000000604482015290519081900360640190fd5b600b80546001600160a01b0319166001600160a01b03841617905580516200028c90600c90602084019062000323565b5050600a600d5550620003cf565b6001600160e01b03198082161415620002fa576040805162461bcd60e51b815260206004820152601c60248201527f4552433136353a20696e76616c696420696e7465726661636520696400000000604482015290519081900360640190fd5b6001600160e01b0319166000908152602081905260409020805460ff19166001179055565b3390565b828054600181600116156101000203166002900490600052602060002090601f0160209004810192826200035b5760008555620003a6565b82601f106200037657805160ff1916838001178555620003a6565b82800160010185558215620003a6579182015b82811115620003a657825182559160200191906001019062000389565b50620003b4929150620003b8565b5090565b5b80821115620003b45760008155600101620003b9565b6136b180620003df6000396000f3fe608060405234801561001057600080fd5b50600436106102c85760003560e01c806370793b4b1161017b578063b07b7e7f116100d8578063d83e2c971161008c578063e9c6fe3111610071578063e9c6fe3114610a76578063f2fde38b14610aa4578063f77c479114610aca576102c8565b8063d83e2c97146109a2578063e985e9c514610a48576102c8565b8063c7ec5d5d116100bd578063c7ec5d5d14610895578063c87b56dd146108c3578063d1610652146108e0576102c8565b8063b07b7e7f146107c7578063b88d4fde146107cf576102c8565b8063835253941161012f57806395d89b411161011457806395d89b41146107895780639cfdede314610791578063a22cb46514610799576102c8565b806383525394146107795780638da5cb5b14610781576102c8565b8063715018a611610160578063715018a61461071d5780637804a5dc1461072557806382e894231461074b576102c8565b806370793b4b146106bd57806370a08231146106f7576102c8565b80632f745c59116102295780634f6ccce7116101dd5780636352211e116101c25780636352211e1461067b57806365f64118146106985780636c0360eb146106b5576102c8565b80634f6ccce7146106305780635066c7141461064d576102c8565b80633c130d901161020e5780633c130d90146105c457806342842e0e146105cc5780634d98fbf014610602576102c8565b80632f745c591461057257806331eff3831461059e576102c8565b8063187af87d1161028057806323b872dd1161026557806323b872dd146104625780632561e6b21461049857806327844ee21461056a576102c8565b8063187af87d1461041e5780631b8f119014610444576102c8565b8063081812fc116102b1578063081812fc1461039d578063095ea7b3146103d657806318160ddd14610404576102c8565b806301ffc9a7146102cd57806306fdde0314610320575b600080fd5b61030c600480360360208110156102e357600080fd5b50357fffffffff0000000000000000000000000000000000000000000000000000000016610ad2565b604080519115158252519081900360200190f35b610328610b0d565b6040805160208082528351818301528351919283929083019185019080838360005b8381101561036257818101518382015260200161034a565b50505050905090810190601f16801561038f5780820380516001836020036101000a031916815260200191505b509250505060405180910390f35b6103ba600480360360208110156103b357600080fd5b5035610ba3565b604080516001600160a01b039092168252519081900360200190f35b610402600480360360408110156103ec57600080fd5b506001600160a01b038135169060200135610c05565b005b61040c610ce0565b60408051918252519081900360200190f35b61030c6004803603602081101561043457600080fd5b50356001600160a01b0316610cf1565b61044c610d06565b6040805160ff9092168252519081900360200190f35b6104026004803603606081101561047857600080fd5b506001600160a01b03813581169160208101359091169060400135610d0b565b61030c600480360360608110156104ae57600080fd5b6001600160a01b0382351691908101906040810160208201356401000000008111156104d957600080fd5b8201836020820111156104eb57600080fd5b8035906020019184602083028401116401000000008311171561050d57600080fd5b91939092909160208101903564010000000081111561052b57600080fd5b82018360208201111561053d57600080fd5b8035906020019184602083028401116401000000008311171561055f57600080fd5b509092509050610d62565b61044c6110bf565b61040c6004803603604081101561058857600080fd5b506001600160a01b0381351690602001356110c4565b61040c600480360360208110156105b457600080fd5b50356001600160a01b03166110ef565b610328611101565b610402600480360360608110156105e257600080fd5b506001600160a01b0381358116916020810135909116906040013561118f565b61030c6004803603604081101561061857600080fd5b506001600160a01b03813581169160200135166111aa565b61040c6004803603602081101561064657600080fd5b50356111f3565b61030c6004803603604081101561066357600080fd5b506001600160a01b0381358116916020013516611209565b6103ba6004803603602081101561069157600080fd5b5035611252565b610402600480360360208110156106ae57600080fd5b503561127a565b610328611349565b61040c600480360360608110156106d357600080fd5b5080356001600160a01b03908116916020810135909116906040013560ff166113aa565b61040c6004803603602081101561070d57600080fd5b50356001600160a01b031661163f565b6104026116a7565b61030c6004803603602081101561073b57600080fd5b50356001600160a01b0316611772565b61040c6004803603604081101561076157600080fd5b506001600160a01b03813516906020013515156117a5565b61044c611825565b6103ba61182a565b610328611839565b61044c61189a565b610402600480360360408110156107af57600080fd5b506001600160a01b038135169060200135151561189f565b61040c6119a4565b610402600480360360808110156107e557600080fd5b6001600160a01b0382358116926020810135909116916040820135919081019060808101606082013564010000000081111561082057600080fd5b82018360208201111561083257600080fd5b8035906020019184600183028401116401000000008311171561085457600080fd5b91908080601f0160208091040260200160405190810160405280939291908181526020018383808284376000920191909152509295506119aa945050505050565b61030c600480360360408110156108ab57600080fd5b506001600160a01b0381358116916020013516611a08565b610328600480360360208110156108d957600080fd5b5035611a51565b61030c600480360360408110156108f657600080fd5b81019060208101813564010000000081111561091157600080fd5b82018360208201111561092357600080fd5b8035906020019184602083028401116401000000008311171561094557600080fd5b91939092909160208101903564010000000081111561096357600080fd5b82018360208201111561097557600080fd5b8035906020019184602083028401116401000000008311171561099757600080fd5b509092509050611cd2565b610402600480360360208110156109b857600080fd5b8101906020810181356401000000008111156109d357600080fd5b8201836020820111156109e557600080fd5b80359060200191846001830284011164010000000083111715610a0757600080fd5b91908080601f016020809104026020016040519081016040528093929190818152602001838380828437600092019190915250929550611e00945050505050565b61030c60048036036040811015610a5e57600080fd5b506001600160a01b038135811691602001351661200f565b61044c60048036036040811015610a8c57600080fd5b506001600160a01b038135811691602001351661203d565b61040260048036036020811015610aba57600080fd5b50356001600160a01b031661205d565b6103ba61217f565b7fffffffff00000000000000000000000000000000000000000000000000000000811660009081526020819052604090205460ff165b919050565b60068054604080516020601f6002600019610100600188161502019095169490940493840181900481028201810190925282815260609390929091830182828015610b995780601f10610b6e57610100808354040283529160200191610b99565b820191906000526020600020905b815481529060010190602001808311610b7c57829003601f168201915b5050505050905090565b6000610bae8261218e565b610be95760405162461bcd60e51b815260040180806020018281038252602c81526020018061357a602c913960400191505060405180910390fd5b506000908152600460205260409020546001600160a01b031690565b6000610c1082611252565b9050806001600160a01b0316836001600160a01b03161415610c635760405162461bcd60e51b815260040180806020018281038252602181526020018061362a6021913960400191505060405180910390fd5b806001600160a01b0316610c7561219b565b6001600160a01b03161480610c965750610c9681610c9161219b565b61200f565b610cd15760405162461bcd60e51b81526004018080602001828103825260388152602001806134cd6038913960400191505060405180910390fd5b610cdb838361219f565b505050565b6000610cec600261221a565b905090565b600f6020526000908152604090205460ff1681565b600281565b610d1c610d1661219b565b82612225565b610d575760405162461bcd60e51b815260040180806020018281038252603181526020018061364b6031913960400191505060405180910390fd5b610cdb8383836122c1565b6000856001600160a01b038116610dc0576040805162461bcd60e51b815260206004820152601160248201527f47617264656e206d757374206578697374000000000000000000000000000000604482015290519081900360640190fd5b600b546040805163f77c479160e01b8152905183926001600160a01b03908116929084169163f77c479191600480820192602092909190829003018186803b158015610e0b57600080fd5b505afa158015610e1f573d6000803e3d6000fd5b505050506040513d6020811015610e3557600080fd5b50516001600160a01b031614610e92576040805162461bcd60e51b815260206004820152601560248201527f436f6e74726f6c6c6572206d757374206d617463680000000000000000000000604482015290519081900360640190fd5b806001600160a01b03166302d05d3f6040518163ffffffff1660e01b815260040160206040518083038186803b158015610ecb57600080fd5b505afa158015610edf573d6000803e3d6000fd5b505050506040513d6020811015610ef557600080fd5b50516001600160a01b03163314610f3d5760405162461bcd60e51b81526004018080602001828103825260268152602001806133856026913960400191505060405180910390fd5b600d546001600160a01b03831660009081526010602052604090205410610f955760405162461bcd60e51b81526004018080602001828103825260328152602001806133cd6032913960400191505060405180910390fd5b858414610fe9576040805162461bcd60e51b815260206004820181905260248201527f5065726d697373696f6e7320616e64207573657273206d757374206d61746368604482015290519081900360640190fd5b60005b60ff81168711156110b0576000888860ff841681811061100857fe5b905060200201356001600160a01b03166001600160a01b03161415611066576040805162461bcd60e51b815260206004820152600f60248201526e155cd95c881b5d5cdd08195e1a5cdd608a1b604482015290519081900360640190fd5b6110a788888360ff1681811061107857fe5b905060200201356001600160a01b03168a88888560ff1681811061109857fe5b9050602002013560ff1661240d565b50600101610fec565b50600198975050505050505050565b600181565b6001600160a01b03821660009081526001602052604081206110e69083612590565b90505b92915050565b60106020526000908152604090205481565b600c805460408051602060026001851615610100026000190190941693909304601f810184900484028201840190925281815292918301828280156111875780601f1061115c57610100808354040283529160200191611187565b820191906000526020600020905b81548152906001019060200180831161116a57829003601f168201915b505050505081565b610cdb838383604051806020016040528060008152506119aa565b6000806111b68361163f565b1180156110e65750506001600160a01b039182166000908152600e60209081526040808320939094168252919091522054600260ff909116101590565b60008061120160028461259c565b509392505050565b6000806112158361163f565b1180156110e65750506001600160a01b039182166000908152600e60209081526040808320939094168252919091522054600360ff909116101590565b60006110e98260405180606001604052806029815260200161352f60299139600291906125b8565b61128261219b565b6001600160a01b031661129361182a565b6001600160a01b0316146112ee576040805162461bcd60e51b815260206004820181905260248201527f4f776e61626c653a2063616c6c6572206973206e6f7420746865206f776e6572604482015290519081900360640190fd5b600d548111611344576040805162461bcd60e51b815260206004820152601660248201527f496e7669746573206d7573742062652068696768657200000000000000000000604482015290519081900360640190fd5b600d55565b60098054604080516020601f6002600019610100600188161502019095169490940493840181900481028201810190925282815260609390929091830182828015610b995780601f10610b6e57610100808354040283529160200191610b99565b6000826001600160a01b038116611408576040805162461bcd60e51b815260206004820152601160248201527f47617264656e206d757374206578697374000000000000000000000000000000604482015290519081900360640190fd5b600b546040805163f77c479160e01b8152905183926001600160a01b03908116929084169163f77c479191600480820192602092909190829003018186803b15801561145357600080fd5b505afa158015611467573d6000803e3d6000fd5b505050506040513d602081101561147d57600080fd5b50516001600160a01b0316146114da576040805162461bcd60e51b815260206004820152601560248201527f436f6e74726f6c6c6572206d757374206d617463680000000000000000000000604482015290519081900360640190fd5b806001600160a01b03166302d05d3f6040518163ffffffff1660e01b815260040160206040518083038186803b15801561151357600080fd5b505afa158015611527573d6000803e3d6000fd5b505050506040513d602081101561153d57600080fd5b50516001600160a01b031633146115855760405162461bcd60e51b81526004018080602001828103825260268152602001806133856026913960400191505060405180910390fd5b600d546001600160a01b038316600090815260106020526040902054106115dd5760405162461bcd60e51b81526004018080602001828103825260328152602001806133cd6032913960400191505060405180910390fd5b6001600160a01b03861661162a576040805162461bcd60e51b815260206004820152600f60248201526e155cd95c881b5d5cdd08195e1a5cdd608a1b604482015290519081900360640190fd5b61163586868661240d565b9695505050505050565b60006001600160a01b0382166116865760405162461bcd60e51b815260040180806020018281038252602a815260200180613505602a913960400191505060405180910390fd5b6001600160a01b03821660009081526001602052604090206110e99061221a565b6116af61219b565b6001600160a01b03166116c061182a565b6001600160a01b03161461171b576040805162461bcd60e51b815260206004820181905260248201527f4f776e61626c653a2063616c6c6572206973206e6f7420746865206f776e6572604482015290519081900360640190fd5b600a546040516000916001600160a01b0316907f8be0079c531659141344cd1fd0a4f28419497f9722a3daafe3b4186f6b6457e0908390a3600a805473ffffffffffffffffffffffffffffffffffffffff19169055565b60008061177e8361163f565b1180156110e95750506001600160a01b03166000908152600f602052604090205460ff1690565b60006117af61219b565b6001600160a01b03166117c061182a565b6001600160a01b03161461181b576040805162461bcd60e51b815260206004820181905260248201527f4f776e61626c653a2063616c6c6572206973206e6f7420746865206f776e6572604482015290519081900360640190fd5b6110e683836125c5565b600081565b600a546001600160a01b031690565b60078054604080516020601f6002600019610100600188161502019095169490940493840181900481028201810190925282815260609390929091830182828015610b995780601f10610b6e57610100808354040283529160200191610b99565b600381565b6118a761219b565b6001600160a01b0316826001600160a01b0316141561190d576040805162461bcd60e51b815260206004820152601960248201527f4552433732313a20617070726f766520746f2063616c6c657200000000000000604482015290519081900360640190fd5b806005600061191a61219b565b6001600160a01b03908116825260208083019390935260409182016000908120918716808252919093529120805460ff19169215159290921790915561195e61219b565b6001600160a01b03167f17307eab39ab6107e8899845ad3d59bd9653f200f220920489ca2b5937696c318360405180821515815260200191505060405180910390a35050565b600d5481565b6119bb6119b561219b565b83612225565b6119f65760405162461bcd60e51b815260040180806020018281038252603181526020018061364b6031913960400191505060405180910390fd5b611a028484848461268d565b50505050565b600080611a148361163f565b1180156110e65750506001600160a01b039182166000908152600e60209081526040808320939094168252919091522054600160ff909116101590565b6060611a5c8261218e565b611a975760405162461bcd60e51b815260040180806020018281038252602f8152602001806135fb602f913960400191505060405180910390fd5b60008281526008602090815260408083208054825160026001831615610100026000190190921691909104601f810185900485028201850190935282815292909190830182828015611b2a5780601f10611aff57610100808354040283529160200191611b2a565b820191906000526020600020905b815481529060010190602001808311611b0d57829003601f168201915b505050505090506000611b3b611349565b9050805160001415611b4f57509050610b08565b815115611c105780826040516020018083805190602001908083835b60208310611b8a5780518252601f199092019160209182019101611b6b565b51815160209384036101000a600019018019909216911617905285519190930192850191508083835b60208310611bd25780518252601f199092019160209182019101611bb3565b6001836020036101000a0380198251168184511680821785525050505050509050019250505060405160208183030381529060405292505050610b08565b80611c1a856126df565b6040516020018083805190602001908083835b60208310611c4c5780518252601f199092019160209182019101611c2d565b51815160209384036101000a600019018019909216911617905285519190930192850191508083835b60208310611c945780518252601f199092019160209182019101611c75565b6001836020036101000a0380198251168184511680821785525050505050509050019250505060405160208183030381529060405292505050919050565b6000611cdc61219b565b6001600160a01b0316611ced61182a565b6001600160a01b031614611d48576040805162461bcd60e51b815260206004820181905260248201527f4f776e61626c653a2063616c6c6572206973206e6f7420746865206f776e6572604482015290519081900360640190fd5b838214611d9c576040805162461bcd60e51b815260206004820181905260248201527f5065726d697373696f6e7320616e64207573657273206d757374206d61746368604482015290519081900360640190fd5b60005b60ff8116851115611df257611de986868360ff16818110611dbc57fe5b905060200201356001600160a01b031685858460ff16818110611ddb57fe5b9050602002013515156125c5565b50600101611d9f565b50600190505b949350505050565b611e0861219b565b6001600160a01b0316611e1961182a565b6001600160a01b031614611e74576040805162461bcd60e51b815260206004820181905260248201527f4f776e61626c653a2063616c6c6572206973206e6f7420746865206f776e6572604482015290519081900360640190fd5b600c8054604080516020601f6002600019610100600188161502019095169490940493840181900481028201810190925282815260009390929091830182828015611f005780601f10611ed557610100808354040283529160200191611f00565b820191906000526020600020905b815481529060010190602001808311611ee357829003601f168201915b50508551939450611f1c93600c935060208701925090506132e3565b50806040518082805190602001908083835b60208310611f4d5780518252601f199092019160209182019101611f2e565b6001836020036101000a0380198251168184511680821785525050505050509050019150506040518091039020600c6040518082805460018160011615610100020316600290048015611fd75780601f10611fb5576101008083540402835291820191611fd7565b820191906000526020600020905b815481529060010190602001808311611fc3575b505060405190819003812092507fb9f7d3f8371d63914851c4029cbff0eb77d038eef46fa05b86df0339e490fffc9150600090a35050565b6001600160a01b03918216600090815260056020908152604080832093909416825291909152205460ff1690565b600e60209081526000928352604080842090915290825290205460ff1681565b61206561219b565b6001600160a01b031661207661182a565b6001600160a01b0316146120d1576040805162461bcd60e51b815260206004820181905260248201527f4f776e61626c653a2063616c6c6572206973206e6f7420746865206f776e6572604482015290519081900360640190fd5b6001600160a01b0381166121165760405162461bcd60e51b81526004018080602001828103825260268152602001806134316026913960400191505060405180910390fd5b600a546040516001600160a01b038084169216907f8be0079c531659141344cd1fd0a4f28419497f9722a3daafe3b4186f6b6457e090600090a3600a805473ffffffffffffffffffffffffffffffffffffffff19166001600160a01b0392909216919091179055565b600b546001600160a01b031681565b60006110e96002836127ee565b3390565b6000818152600460205260409020805473ffffffffffffffffffffffffffffffffffffffff19166001600160a01b03841690811790915581906121e182611252565b6001600160a01b03167f8c5be1e5ebec7d5bd14f71427d1e84f3dd0314c0f7b2291e5b200ac8c7c3b92560405160405180910390a45050565b60006110e9826127fa565b60006122308261218e565b61226b5760405162461bcd60e51b815260040180806020018281038252602c8152602001806134a1602c913960400191505060405180910390fd5b600061227683611252565b9050806001600160a01b0316846001600160a01b031614806122b15750836001600160a01b03166122a684610ba3565b6001600160a01b0316145b80611df85750611df8818561200f565b826001600160a01b03166122d482611252565b6001600160a01b0316146123195760405162461bcd60e51b81526004018080602001828103825260298152602001806135d26029913960400191505060405180910390fd5b6001600160a01b03821661235e5760405162461bcd60e51b81526004018080602001828103825260248152602001806134576024913960400191505060405180910390fd5b612369838383610cdb565b61237460008261219f565b6001600160a01b038316600090815260016020526040902061239690826127fe565b506001600160a01b03821660009081526001602052604090206123b9908261280a565b506123c660028284612816565b5080826001600160a01b0316846001600160a01b03167fddf252ad1be2c89b69c2b068fc378daa952ba7f163c4a11628f55a4df523b3ef60405160405180910390a4505050565b6000806124198561282c565b905060008360ff1611801561245457506001600160a01b038085166000908152600e602090815260408083209389168352929052205460ff16155b15612497576001600160a01b03841660009081526010602052604090205461247d90600161293a565b6001600160a01b0385166000908152601060205260409020555b60ff83161580156124cf57506001600160a01b038085166000908152600e602090815260408083209389168352929052205460ff1615155b15612512576001600160a01b0384166000908152601060205260409020546124f8906001612994565b6001600160a01b0385166000908152601060205260409020555b6001600160a01b038481166000818152600e60209081526040808320948a1680845294825291829020805460ff191660ff8916908117909155825190815290810185905281519293927ff9a024892baa30c97621bf85cea2ce82d0c128a59fa7714a72c1d37868fdb1be929181900390910190a390505b9392505050565b60006110e683836129f1565b60008080806125ab8686612a55565b9097909650945050505050565b6000611df8848484612ad0565b60006001600160a01b038316612614576040805162461bcd60e51b815260206004820152600f60248201526e155cd95c881b5d5cdd08195e1a5cdd608a1b604482015290519081900360640190fd5b600061261f8461282c565b6001600160a01b0385166000818152600f6020908152604091829020805460ff19168815159081179091558251908152908101849052815193945091927fc7ef194be94a46a1602ce7825850329a4560bcb6c4b5611df12e4dedf4db59d69281900390910190a29392505050565b6126988484846122c1565b6126a484848484612b9a565b611a025760405162461bcd60e51b81526004018080602001828103825260328152602001806133ff6032913960400191505060405180910390fd5b606081612720575060408051808201909152600181527f30000000000000000000000000000000000000000000000000000000000000006020820152610b08565b8160005b811561273857600101600a82049150612724565b60008167ffffffffffffffff8111801561275157600080fd5b506040519080825280601f01601f19166020018201604052801561277c576020820181803683370190505b50859350905060001982015b83156127e557600a840660300160f81b828280600190039350815181106127ab57fe5b60200101907effffffffffffffffffffffffffffffffffffffffffffffffffffffffffffff1916908160001a905350600a84049350612788565b50949350505050565b60006110e68383612d44565b5490565b60006110e68383612d5c565b60006110e68383612e22565b6000611df884846001600160a01b038516612e6c565b6000806128388361163f565b61292f576128466011612f03565b61285060116127fa565b905061285c8382612f0c565b600c805460408051602060026001851615610100026000190190941693909304601f81018490048402820184019092528181526128f4938593919290918301828280156128ea5780601f106128bf576101008083540402835291602001916128ea565b820191906000526020600020905b8154815290600101906020018083116128cd57829003601f168201915b5050505050612f2a565b60405181906001600160a01b038516907f91f491a5affa462bcd7c0c9229592fcaaf55959bcce7f754256f9360d53f6aac90600090a36110e9565b6110e68360006110c4565b6000828201838110156110e6576040805162461bcd60e51b815260206004820152601b60248201527f536166654d6174683a206164646974696f6e206f766572666c6f770000000000604482015290519081900360640190fd5b6000828211156129eb576040805162461bcd60e51b815260206004820152601e60248201527f536166654d6174683a207375627472616374696f6e206f766572666c6f770000604482015290519081900360640190fd5b50900390565b81546000908210612a335760405162461bcd60e51b81526004018080602001828103825260228152602001806133ab6022913960400191505060405180910390fd5b826000018281548110612a4257fe5b9060005260206000200154905092915050565b815460009081908310612a995760405162461bcd60e51b81526004018080602001828103825260228152602001806135586022913960400191505060405180910390fd5b6000846000018481548110612aaa57fe5b906000526020600020906002020190508060000154816001015492509250509250929050565b60008281526001840160205260408120548281612b6b5760405162461bcd60e51b81526004018080602001828103825283818151815260200191508051906020019080838360005b83811015612b30578181015183820152602001612b18565b50505050905090810190601f168015612b5d5780820380516001836020036101000a031916815260200191505b509250505060405180910390fd5b50846000016001820381548110612b7e57fe5b9060005260206000209060020201600101549150509392505050565b6000612bae846001600160a01b0316612f8d565b612bba57506001611df8565b6000612cf2630a85bd0160e11b612bcf61219b565b88878760405160240180856001600160a01b03168152602001846001600160a01b0316815260200183815260200180602001828103825283818151815260200191508051906020019080838360005b83811015612c36578181015183820152602001612c1e565b50505050905090810190601f168015612c635780820380516001836020036101000a031916815260200191505b5095505050505050604051602081830303815290604052907bffffffffffffffffffffffffffffffffffffffffffffffffffffffff19166020820180517bffffffffffffffffffffffffffffffffffffffffffffffffffffffff83818316178352505050506040518060600160405280603281526020016133ff603291396001600160a01b0388169190612f93565b90506000818060200190516020811015612d0b57600080fd5b50517fffffffff0000000000000000000000000000000000000000000000000000000016630a85bd0160e11b1492505050949350505050565b60009081526001919091016020526040902054151590565b60008181526001830160205260408120548015612e185783546000198083019190810190600090879083908110612d8f57fe5b9060005260206000200154905080876000018481548110612dac57fe5b600091825260208083209091019290925582815260018981019092526040902090840190558654879080612ddc57fe5b600190038181906000526020600020016000905590558660010160008781526020019081526020016000206000905560019450505050506110e9565b60009150506110e9565b6000612e2e8383612d44565b612e64575081546001818101845560008481526020808220909301849055845484825282860190935260409020919091556110e9565b5060006110e9565b600082815260018401602052604081205480612ed1575050604080518082018252838152602080820184815286546001818101895560008981528481209551600290930290950191825591519082015586548684528188019092529290912055612589565b82856000016001830381548110612ee457fe5b9060005260206000209060020201600101819055506000915050612589565b80546001019055565b612f26828260405180602001604052806000815250612fa2565b5050565b612f338261218e565b612f6e5760405162461bcd60e51b815260040180806020018281038252602c8152602001806135a6602c913960400191505060405180910390fd5b60008281526008602090815260409091208251610cdb928401906132e3565b3b151590565b6060611df88484600085612ff4565b612fac838361314f565b612fb96000848484612b9a565b610cdb5760405162461bcd60e51b81526004018080602001828103825260328152602001806133ff6032913960400191505060405180910390fd5b6060824710156130355760405162461bcd60e51b815260040180806020018281038252602681526020018061347b6026913960400191505060405180910390fd5b61303e85612f8d565b61308f576040805162461bcd60e51b815260206004820152601d60248201527f416464726573733a2063616c6c20746f206e6f6e2d636f6e7472616374000000604482015290519081900360640190fd5b600080866001600160a01b031685876040518082805190602001908083835b602083106130cd5780518252601f1990920191602091820191016130ae565b6001836020036101000a03801982511681845116808217855250505050505090500191505060006040518083038185875af1925050503d806000811461312f576040519150601f19603f3d011682016040523d82523d6000602084013e613134565b606091505b509150915061314482828661327d565b979650505050505050565b6001600160a01b0382166131aa576040805162461bcd60e51b815260206004820181905260248201527f4552433732313a206d696e7420746f20746865207a65726f2061646472657373604482015290519081900360640190fd5b6131b38161218e565b15613205576040805162461bcd60e51b815260206004820152601c60248201527f4552433732313a20746f6b656e20616c7265616479206d696e74656400000000604482015290519081900360640190fd5b61321160008383610cdb565b6001600160a01b0382166000908152600160205260409020613233908261280a565b5061324060028284612816565b5060405181906001600160a01b038416906000907fddf252ad1be2c89b69c2b068fc378daa952ba7f163c4a11628f55a4df523b3ef908290a45050565b6060831561328c575081612589565b82511561329c5782518084602001fd5b60405162461bcd60e51b8152602060048201818152845160248401528451859391928392604401919085019080838360008315612b30578181015183820152602001612b18565b828054600181600116156101000203166002900490600052602060002090601f016020900481019282613319576000855561335f565b82601f1061333257805160ff191683800117855561335f565b8280016001018555821561335f579182015b8281111561335f578251825591602001919060010190613344565b5061336b92915061336f565b5090565b5b8082111561336b576000815560010161337056fe4f6e6c792063726561746f722063616e20676976652061636365737320746f2067617264656e456e756d657261626c655365743a20696e646578206f7574206f6620626f756e6473546865206e756d626572206f6620636f6e7472696275746f7273206d7573742062652062656c6f7720746865206c696d69744552433732313a207472616e7366657220746f206e6f6e20455243373231526563656976657220696d706c656d656e7465724f776e61626c653a206e6577206f776e657220697320746865207a65726f20616464726573734552433732313a207472616e7366657220746f20746865207a65726f2061646472657373416464726573733a20696e73756666696369656e742062616c616e636520666f722063616c6c4552433732313a206f70657261746f7220717565727920666f72206e6f6e6578697374656e7420746f6b656e4552433732313a20617070726f76652063616c6c6572206973206e6f74206f776e6572206e6f7220617070726f76656420666f7220616c6c4552433732313a2062616c616e636520717565727920666f7220746865207a65726f20616464726573734552433732313a206f776e657220717565727920666f72206e6f6e6578697374656e7420746f6b656e456e756d657261626c654d61703a20696e646578206f7574206f6620626f756e64734552433732313a20617070726f76656420717565727920666f72206e6f6e6578697374656e7420746f6b656e4552433732314d657461646174613a2055524920736574206f66206e6f6e6578697374656e7420746f6b656e4552433732313a207472616e73666572206f6620746f6b656e2074686174206973206e6f74206f776e4552433732314d657461646174613a2055524920717565727920666f72206e6f6e6578697374656e7420746f6b656e4552433732313a20617070726f76616c20746f2063757272656e74206f776e65724552433732313a207472616e736665722063616c6c6572206973206e6f74206f776e6572206e6f7220617070726f766564a26469706673582212206fc87fcdcbc213f495678c1802e900842d8ba587c5ab4afce7bc28dbcfee5aad64736f6c63430007060033",
  "devdoc": {
    "author": "Babylon Finance Contract that implements guestlists for Babylon Finance using an NFT",
    "kind": "dev",
    "methods": {
      "approve(address,uint256)": {
        "details": "See {IERC721-approve}."
      },
      "balanceOf(address)": {
        "details": "See {IERC721-balanceOf}."
      },
      "baseURI()": {
        "details": "Returns the base URI set via {_setBaseURI}. This will be automatically added as a prefix in {tokenURI} to each token's URI, or to the token ID if no specific URI is set for that token ID."
      },
      "canAddStrategiesInAGarden(address,address)": {
        "params": {
          "_garden": "Address of the _garden",
          "_user": "Address of the user"
        },
        "returns": {
          "_0": "_canStrategize             Whether or not the user can create strategies"
        }
      },
      "canCreate(address)": {
        "params": {
          "_user": "Address of the user"
        },
        "returns": {
          "_0": "_canCreate               Whether or not the user can create"
        }
      },
      "canJoinAGarden(address,address)": {
        "params": {
          "_garden": "Address of the _garden",
          "_user": "Address of the user"
        },
        "returns": {
          "_0": "_canJoin                   Whether or not the user can join"
        }
      },
      "canVoteInAGarden(address,address)": {
        "params": {
          "_garden": "Address of the _garden",
          "_user": "Address of the user"
        },
        "returns": {
          "_0": "_canVote                   Whether or not the user can vote"
        }
      },
      "constructor": {
        "params": {
          "_controller": "Address of controller contract",
          "_tokenURI": "URL of the Ishtar Gate JSON metadata"
        }
      },
      "getApproved(uint256)": {
        "details": "See {IERC721-getApproved}."
      },
      "grantCreatorsInBatch(address[],bool[])": {
        "params": {
          "_perms": "Lists of booleans",
          "_users": "Addresses of the users"
        }
      },
      "grantGardenAccessBatch(address,address[],uint8[])": {
        "params": {
          "_garden": "Community that the gate grants access to",
          "_perms": "List of permissions of what each user can do in the community",
          "_users": "Addresses of the users"
        }
      },
      "isApprovedForAll(address,address)": {
        "details": "See {IERC721-isApprovedForAll}."
      },
      "name()": {
        "details": "See {IERC721Metadata-name}."
      },
      "owner()": {
        "details": "Returns the address of the current owner."
      },
      "ownerOf(uint256)": {
        "details": "See {IERC721-ownerOf}."
      },
      "renounceOwnership()": {
        "details": "Leaves the contract without owner. It will not be possible to call `onlyOwner` functions anymore. Can only be called by the current owner. NOTE: Renouncing ownership will leave the contract without an owner, thereby removing any functionality that is only available to the owner."
      },
      "safeTransferFrom(address,address,uint256)": {
        "details": "See {IERC721-safeTransferFrom}."
      },
      "safeTransferFrom(address,address,uint256,bytes)": {
        "details": "See {IERC721-safeTransferFrom}."
      },
      "setApprovalForAll(address,bool)": {
        "details": "See {IERC721-setApprovalForAll}."
      },
      "setCreatorPermissions(address,bool)": {
        "params": {
          "_canCreate": "Boolean with permissions as to whether the user can create gardens",
          "_user": "Address of the user"
        }
      },
      "setGardenAccess(address,address,uint8)": {
        "params": {
          "_garden": "Community that the gate grants access to",
          "_permission": "Permissions of what user can do in the community",
          "_user": "Address of the user"
        }
      },
      "setMaxNumberOfInvites(uint256)": {
        "params": {
          "_maxNumberOfInvites": "New max number of invites per garden"
        }
      },
      "supportsInterface(bytes4)": {
        "details": "See {IERC165-supportsInterface}. Time complexity O(1), guaranteed to always use less than 30 000 gas."
      },
      "symbol()": {
        "details": "See {IERC721Metadata-symbol}."
      },
      "tokenByIndex(uint256)": {
        "details": "See {IERC721Enumerable-tokenByIndex}."
      },
      "tokenOfOwnerByIndex(address,uint256)": {
        "details": "See {IERC721Enumerable-tokenOfOwnerByIndex}."
      },
      "tokenURI(uint256)": {
        "details": "See {IERC721Metadata-tokenURI}."
      },
      "totalSupply()": {
        "details": "See {IERC721Enumerable-totalSupply}."
      },
      "transferFrom(address,address,uint256)": {
        "details": "See {IERC721-transferFrom}."
      },
      "transferOwnership(address)": {
        "details": "Transfers ownership of the contract to a new account (`newOwner`). Can only be called by the current owner."
      },
      "updateGardenURI(string)": {
        "params": {
          "_tokenURI": "Address of the tokenURI"
        }
      }
    },
    "title": "IshtarGate",
    "version": 1
  },
  "userdoc": {
    "kind": "user",
    "methods": {
      "canAddStrategiesInAGarden(address,address)": {
        "notice": "Check if a user can add strategies in a specific garden"
      },
      "canCreate(address)": {
        "notice": "Check if a user can create gardens"
      },
      "canJoinAGarden(address,address)": {
        "notice": "Check if a user can join a specific garden"
      },
      "canVoteInAGarden(address,address)": {
        "notice": "Check if a user can vote in a specific garden"
      },
      "constructor": {
        "notice": "Sets the protocol controller"
      },
      "grantCreatorsInBatch(address[],bool[])": {
        "notice": "Awards the ishtar gate to a list of users with permissions to create gardens"
      },
      "grantGardenAccessBatch(address,address[],uint8[])": {
        "notice": "Awards the ishtar gate to a list of users with permissions to a specific garden"
      },
      "setCreatorPermissions(address,bool)": {
        "notice": "Awards the ishtar gate to a user and give/remove him garden creation capabilities."
      },
      "setGardenAccess(address,address,uint8)": {
        "notice": "Awards the ishtar gate to a user and gives him access to a specific garden"
      },
      "setMaxNumberOfInvites(uint256)": {
        "notice": "Changs the number of invites we are going to give per garden"
      },
      "updateGardenURI(string)": {
        "notice": "Updates the token URI of the gate NFT"
      }
    },
    "version": 1
  },
  "storageLayout": {
    "storage": [
      {
        "astId": 3964,
        "contract": "contracts/IshtarGate.sol:IshtarGate",
        "label": "_supportedInterfaces",
        "offset": 0,
        "slot": "0",
        "type": "t_mapping(t_bytes4,t_bool)"
      },
      {
        "astId": 5473,
        "contract": "contracts/IshtarGate.sol:IshtarGate",
        "label": "_holderTokens",
        "offset": 0,
        "slot": "1",
        "type": "t_mapping(t_address,t_struct(UintSet)7889_storage)"
      },
      {
        "astId": 5475,
        "contract": "contracts/IshtarGate.sol:IshtarGate",
        "label": "_tokenOwners",
        "offset": 0,
        "slot": "2",
        "type": "t_struct(UintToAddressMap)7266_storage"
      },
      {
        "astId": 5479,
        "contract": "contracts/IshtarGate.sol:IshtarGate",
        "label": "_tokenApprovals",
        "offset": 0,
        "slot": "4",
        "type": "t_mapping(t_uint256,t_address)"
      },
      {
        "astId": 5485,
        "contract": "contracts/IshtarGate.sol:IshtarGate",
        "label": "_operatorApprovals",
        "offset": 0,
        "slot": "5",
        "type": "t_mapping(t_address,t_mapping(t_address,t_bool))"
      },
      {
        "astId": 5487,
        "contract": "contracts/IshtarGate.sol:IshtarGate",
        "label": "_name",
        "offset": 0,
        "slot": "6",
        "type": "t_string_storage"
      },
      {
        "astId": 5489,
        "contract": "contracts/IshtarGate.sol:IshtarGate",
        "label": "_symbol",
        "offset": 0,
        "slot": "7",
        "type": "t_string_storage"
      },
      {
        "astId": 5493,
        "contract": "contracts/IshtarGate.sol:IshtarGate",
        "label": "_tokenURIs",
        "offset": 0,
        "slot": "8",
        "type": "t_mapping(t_uint256,t_string_storage)"
      },
      {
        "astId": 5495,
        "contract": "contracts/IshtarGate.sol:IshtarGate",
        "label": "_baseURI",
        "offset": 0,
        "slot": "9",
        "type": "t_string_storage"
      },
      {
        "astId": 3848,
        "contract": "contracts/IshtarGate.sol:IshtarGate",
        "label": "_owner",
        "offset": 0,
        "slot": "10",
        "type": "t_address"
      },
      {
        "astId": 12540,
        "contract": "contracts/IshtarGate.sol:IshtarGate",
        "label": "controller",
        "offset": 0,
        "slot": "11",
        "type": "t_contract(IBabController)23675"
      },
      {
        "astId": 12543,
        "contract": "contracts/IshtarGate.sol:IshtarGate",
        "label": "tokenURI",
        "offset": 0,
        "slot": "12",
        "type": "t_string_storage"
      },
      {
        "astId": 12546,
        "contract": "contracts/IshtarGate.sol:IshtarGate",
        "label": "maxNumberOfInvites",
        "offset": 0,
        "slot": "13",
        "type": "t_uint256"
      },
      {
        "astId": 12552,
        "contract": "contracts/IshtarGate.sol:IshtarGate",
        "label": "permissionsByCommunity",
        "offset": 0,
        "slot": "14",
        "type": "t_mapping(t_address,t_mapping(t_address,t_uint8))"
      },
      {
        "astId": 12556,
        "contract": "contracts/IshtarGate.sol:IshtarGate",
        "label": "canCreateAGarden",
        "offset": 0,
        "slot": "15",
        "type": "t_mapping(t_address,t_bool)"
      },
      {
        "astId": 12560,
        "contract": "contracts/IshtarGate.sol:IshtarGate",
        "label": "gardenAccessCount",
        "offset": 0,
        "slot": "16",
        "type": "t_mapping(t_address,t_uint256)"
      },
      {
        "astId": 12574,
        "contract": "contracts/IshtarGate.sol:IshtarGate",
        "label": "_tokenIds",
        "offset": 0,
        "slot": "17",
        "type": "t_struct(Counter)6892_storage"
      }
    ],
    "types": {
      "t_address": {
        "encoding": "inplace",
        "label": "address",
        "numberOfBytes": "20"
      },
      "t_array(t_bytes32)dyn_storage": {
        "base": "t_bytes32",
        "encoding": "dynamic_array",
        "label": "bytes32[]",
        "numberOfBytes": "32"
      },
      "t_array(t_struct(MapEntry)6940_storage)dyn_storage": {
        "base": "t_struct(MapEntry)6940_storage",
        "encoding": "dynamic_array",
        "label": "struct EnumerableMap.MapEntry[]",
        "numberOfBytes": "32"
      },
      "t_bool": {
        "encoding": "inplace",
        "label": "bool",
        "numberOfBytes": "1"
      },
      "t_bytes32": {
        "encoding": "inplace",
        "label": "bytes32",
        "numberOfBytes": "32"
      },
      "t_bytes4": {
        "encoding": "inplace",
        "label": "bytes4",
        "numberOfBytes": "4"
      },
      "t_contract(IBabController)23675": {
        "encoding": "inplace",
        "label": "contract IBabController",
        "numberOfBytes": "20"
      },
      "t_mapping(t_address,t_bool)": {
        "encoding": "mapping",
        "key": "t_address",
        "label": "mapping(address => bool)",
        "numberOfBytes": "32",
        "value": "t_bool"
      },
      "t_mapping(t_address,t_mapping(t_address,t_bool))": {
        "encoding": "mapping",
        "key": "t_address",
        "label": "mapping(address => mapping(address => bool))",
        "numberOfBytes": "32",
        "value": "t_mapping(t_address,t_bool)"
      },
      "t_mapping(t_address,t_mapping(t_address,t_uint8))": {
        "encoding": "mapping",
        "key": "t_address",
        "label": "mapping(address => mapping(address => uint8))",
        "numberOfBytes": "32",
        "value": "t_mapping(t_address,t_uint8)"
      },
      "t_mapping(t_address,t_struct(UintSet)7889_storage)": {
        "encoding": "mapping",
        "key": "t_address",
        "label": "mapping(address => struct EnumerableSet.UintSet)",
        "numberOfBytes": "32",
        "value": "t_struct(UintSet)7889_storage"
      },
      "t_mapping(t_address,t_uint256)": {
        "encoding": "mapping",
        "key": "t_address",
        "label": "mapping(address => uint256)",
        "numberOfBytes": "32",
        "value": "t_uint256"
      },
      "t_mapping(t_address,t_uint8)": {
        "encoding": "mapping",
        "key": "t_address",
        "label": "mapping(address => uint8)",
        "numberOfBytes": "32",
        "value": "t_uint8"
      },
      "t_mapping(t_bytes32,t_uint256)": {
        "encoding": "mapping",
        "key": "t_bytes32",
        "label": "mapping(bytes32 => uint256)",
        "numberOfBytes": "32",
        "value": "t_uint256"
      },
      "t_mapping(t_bytes4,t_bool)": {
        "encoding": "mapping",
        "key": "t_bytes4",
        "label": "mapping(bytes4 => bool)",
        "numberOfBytes": "32",
        "value": "t_bool"
      },
      "t_mapping(t_uint256,t_address)": {
        "encoding": "mapping",
        "key": "t_uint256",
        "label": "mapping(uint256 => address)",
        "numberOfBytes": "32",
        "value": "t_address"
      },
      "t_mapping(t_uint256,t_string_storage)": {
        "encoding": "mapping",
        "key": "t_uint256",
        "label": "mapping(uint256 => string)",
        "numberOfBytes": "32",
        "value": "t_string_storage"
      },
      "t_string_storage": {
        "encoding": "bytes",
        "label": "string",
        "numberOfBytes": "32"
      },
      "t_struct(Counter)6892_storage": {
        "encoding": "inplace",
        "label": "struct Counters.Counter",
        "members": [
          {
            "astId": 6891,
            "contract": "contracts/IshtarGate.sol:IshtarGate",
            "label": "_value",
            "offset": 0,
            "slot": "0",
            "type": "t_uint256"
          }
        ],
        "numberOfBytes": "32"
      },
      "t_struct(Map)6948_storage": {
        "encoding": "inplace",
        "label": "struct EnumerableMap.Map",
        "members": [
          {
            "astId": 6943,
            "contract": "contracts/IshtarGate.sol:IshtarGate",
            "label": "_entries",
            "offset": 0,
            "slot": "0",
            "type": "t_array(t_struct(MapEntry)6940_storage)dyn_storage"
          },
          {
            "astId": 6947,
            "contract": "contracts/IshtarGate.sol:IshtarGate",
            "label": "_indexes",
            "offset": 0,
            "slot": "1",
            "type": "t_mapping(t_bytes32,t_uint256)"
          }
        ],
        "numberOfBytes": "64"
      },
      "t_struct(MapEntry)6940_storage": {
        "encoding": "inplace",
        "label": "struct EnumerableMap.MapEntry",
        "members": [
          {
            "astId": 6937,
            "contract": "contracts/IshtarGate.sol:IshtarGate",
            "label": "_key",
            "offset": 0,
            "slot": "0",
            "type": "t_bytes32"
          },
          {
            "astId": 6939,
            "contract": "contracts/IshtarGate.sol:IshtarGate",
            "label": "_value",
            "offset": 0,
            "slot": "1",
            "type": "t_bytes32"
          }
        ],
        "numberOfBytes": "64"
      },
      "t_struct(Set)7503_storage": {
        "encoding": "inplace",
        "label": "struct EnumerableSet.Set",
        "members": [
          {
            "astId": 7498,
            "contract": "contracts/IshtarGate.sol:IshtarGate",
            "label": "_values",
            "offset": 0,
            "slot": "0",
            "type": "t_array(t_bytes32)dyn_storage"
          },
          {
            "astId": 7502,
            "contract": "contracts/IshtarGate.sol:IshtarGate",
            "label": "_indexes",
            "offset": 0,
            "slot": "1",
            "type": "t_mapping(t_bytes32,t_uint256)"
          }
        ],
        "numberOfBytes": "64"
      },
      "t_struct(UintSet)7889_storage": {
        "encoding": "inplace",
        "label": "struct EnumerableSet.UintSet",
        "members": [
          {
            "astId": 7888,
            "contract": "contracts/IshtarGate.sol:IshtarGate",
            "label": "_inner",
            "offset": 0,
            "slot": "0",
            "type": "t_struct(Set)7503_storage"
          }
        ],
        "numberOfBytes": "64"
      },
      "t_struct(UintToAddressMap)7266_storage": {
        "encoding": "inplace",
        "label": "struct EnumerableMap.UintToAddressMap",
        "members": [
          {
            "astId": 7265,
            "contract": "contracts/IshtarGate.sol:IshtarGate",
            "label": "_inner",
            "offset": 0,
            "slot": "0",
            "type": "t_struct(Map)6948_storage"
          }
        ],
        "numberOfBytes": "64"
      },
      "t_uint256": {
        "encoding": "inplace",
        "label": "uint256",
        "numberOfBytes": "32"
      },
      "t_uint8": {
        "encoding": "inplace",
        "label": "uint8",
        "numberOfBytes": "1"
      }
    }
  }
}