{
  "address": "0x77D200ECa7Fd0a3DB27E96D7b24cF7613b0a2a12",
  "abi": [
    {
      "inputs": [
        {
          "internalType": "contract IBabController",
          "name": "_controller",
          "type": "address"
        },
        {
          "internalType": "string",
          "name": "_tokenURI",
          "type": "string"
        }
      ],
      "stateMutability": "nonpayable",
      "type": "constructor"
    },
    {
      "anonymous": false,
      "inputs": [
        {
          "indexed": true,
          "internalType": "address",
          "name": "owner",
          "type": "address"
        },
        {
          "indexed": true,
          "internalType": "address",
          "name": "approved",
          "type": "address"
        },
        {
          "indexed": true,
          "internalType": "uint256",
          "name": "tokenId",
          "type": "uint256"
        }
      ],
      "name": "Approval",
      "type": "event"
    },
    {
      "anonymous": false,
      "inputs": [
        {
          "indexed": true,
          "internalType": "address",
          "name": "owner",
          "type": "address"
        },
        {
          "indexed": true,
          "internalType": "address",
          "name": "operator",
          "type": "address"
        },
        {
          "indexed": false,
          "internalType": "bool",
          "name": "approved",
          "type": "bool"
        }
      ],
      "name": "ApprovalForAll",
      "type": "event"
    },
    {
      "anonymous": false,
      "inputs": [
        {
          "indexed": true,
          "internalType": "address",
          "name": "_member",
          "type": "address"
        },
        {
          "indexed": true,
          "internalType": "address",
          "name": "_garden",
          "type": "address"
        },
        {
          "indexed": false,
          "internalType": "uint8",
          "name": "_permission",
          "type": "uint8"
        },
        {
          "indexed": false,
          "internalType": "uint256",
          "name": "_tokenId",
          "type": "uint256"
        }
      ],
      "name": "GardenAccess",
      "type": "event"
    },
    {
      "anonymous": false,
      "inputs": [
        {
          "indexed": true,
          "internalType": "address",
          "name": "_member",
          "type": "address"
        },
        {
          "indexed": false,
          "internalType": "bool",
          "name": "_creation",
          "type": "bool"
        },
        {
          "indexed": false,
          "internalType": "uint256",
          "name": "_tokenId",
          "type": "uint256"
        }
      ],
      "name": "GardenCreationPower",
      "type": "event"
    },
    {
      "anonymous": false,
      "inputs": [
        {
          "indexed": true,
          "internalType": "string",
          "name": "_newURI",
          "type": "string"
        },
        {
          "indexed": true,
          "internalType": "string",
          "name": "_oldURI",
          "type": "string"
        }
      ],
      "name": "GateURIUpdated",
      "type": "event"
    },
    {
      "anonymous": false,
      "inputs": [
        {
          "indexed": true,
          "internalType": "address",
          "name": "_member",
          "type": "address"
        },
        {
          "indexed": true,
          "internalType": "uint256",
          "name": "_newItemId",
          "type": "uint256"
        }
      ],
      "name": "IshtarGateAwarded",
      "type": "event"
    },
    {
      "anonymous": false,
      "inputs": [
        {
          "indexed": true,
          "internalType": "address",
          "name": "previousOwner",
          "type": "address"
        },
        {
          "indexed": true,
          "internalType": "address",
          "name": "newOwner",
          "type": "address"
        }
      ],
      "name": "OwnershipTransferred",
      "type": "event"
    },
    {
      "anonymous": false,
      "inputs": [
        {
          "indexed": true,
          "internalType": "address",
          "name": "from",
          "type": "address"
        },
        {
          "indexed": true,
          "internalType": "address",
          "name": "to",
          "type": "address"
        },
        {
          "indexed": true,
          "internalType": "uint256",
          "name": "tokenId",
          "type": "uint256"
        }
      ],
      "name": "Transfer",
      "type": "event"
    },
    {
      "inputs": [],
      "name": "JUST_LP",
      "outputs": [
        {
          "internalType": "uint8",
          "name": "",
          "type": "uint8"
        }
      ],
      "stateMutability": "view",
      "type": "function"
    },
    {
      "inputs": [],
      "name": "NONE",
      "outputs": [
        {
          "internalType": "uint8",
          "name": "",
          "type": "uint8"
        }
      ],
      "stateMutability": "view",
      "type": "function"
    },
    {
      "inputs": [],
      "name": "STEWARD",
      "outputs": [
        {
          "internalType": "uint8",
          "name": "",
          "type": "uint8"
        }
      ],
      "stateMutability": "view",
      "type": "function"
    },
    {
      "inputs": [],
      "name": "STRATEGIST",
      "outputs": [
        {
          "internalType": "uint8",
          "name": "",
          "type": "uint8"
        }
      ],
      "stateMutability": "view",
      "type": "function"
    },
    {
      "inputs": [
        {
          "internalType": "address",
          "name": "to",
          "type": "address"
        },
        {
          "internalType": "uint256",
          "name": "tokenId",
          "type": "uint256"
        }
      ],
      "name": "approve",
      "outputs": [],
      "stateMutability": "nonpayable",
      "type": "function"
    },
    {
      "inputs": [
        {
          "internalType": "address",
          "name": "owner",
          "type": "address"
        }
      ],
      "name": "balanceOf",
      "outputs": [
        {
          "internalType": "uint256",
          "name": "",
          "type": "uint256"
        }
      ],
      "stateMutability": "view",
      "type": "function"
    },
    {
      "inputs": [],
      "name": "baseURI",
      "outputs": [
        {
          "internalType": "string",
          "name": "",
          "type": "string"
        }
      ],
      "stateMutability": "view",
      "type": "function"
    },
    {
      "inputs": [
        {
          "internalType": "address",
          "name": "_garden",
          "type": "address"
        },
        {
          "internalType": "address",
          "name": "_user",
          "type": "address"
        }
      ],
      "name": "canAddStrategiesInAGarden",
      "outputs": [
        {
          "internalType": "bool",
          "name": "",
          "type": "bool"
        }
      ],
      "stateMutability": "view",
      "type": "function"
    },
    {
      "inputs": [
        {
          "internalType": "address",
          "name": "_user",
          "type": "address"
        }
      ],
      "name": "canCreate",
      "outputs": [
        {
          "internalType": "bool",
          "name": "",
          "type": "bool"
        }
      ],
      "stateMutability": "view",
      "type": "function"
    },
    {
      "inputs": [
        {
          "internalType": "address",
          "name": "",
          "type": "address"
        }
      ],
      "name": "canCreateAGarden",
      "outputs": [
        {
          "internalType": "bool",
          "name": "",
          "type": "bool"
        }
      ],
      "stateMutability": "view",
      "type": "function"
    },
    {
      "inputs": [
        {
          "internalType": "address",
          "name": "_garden",
          "type": "address"
        },
        {
          "internalType": "address",
          "name": "_user",
          "type": "address"
        }
      ],
      "name": "canJoinAGarden",
      "outputs": [
        {
          "internalType": "bool",
          "name": "",
          "type": "bool"
        }
      ],
      "stateMutability": "view",
      "type": "function"
    },
    {
      "inputs": [
        {
          "internalType": "address",
          "name": "_garden",
          "type": "address"
        },
        {
          "internalType": "address",
          "name": "_user",
          "type": "address"
        }
      ],
      "name": "canVoteInAGarden",
      "outputs": [
        {
          "internalType": "bool",
          "name": "",
          "type": "bool"
        }
      ],
      "stateMutability": "view",
      "type": "function"
    },
    {
      "inputs": [],
      "name": "controller",
      "outputs": [
        {
          "internalType": "contract IBabController",
          "name": "",
          "type": "address"
        }
      ],
      "stateMutability": "view",
      "type": "function"
    },
    {
      "inputs": [
        {
          "internalType": "address",
          "name": "",
          "type": "address"
        }
      ],
      "name": "gardenAccessCount",
      "outputs": [
        {
          "internalType": "uint256",
          "name": "",
          "type": "uint256"
        }
      ],
      "stateMutability": "view",
      "type": "function"
    },
    {
      "inputs": [
        {
          "internalType": "uint256",
          "name": "tokenId",
          "type": "uint256"
        }
      ],
      "name": "getApproved",
      "outputs": [
        {
          "internalType": "address",
          "name": "",
          "type": "address"
        }
      ],
      "stateMutability": "view",
      "type": "function"
    },
    {
      "inputs": [
        {
          "internalType": "address[]",
          "name": "_users",
          "type": "address[]"
        },
        {
          "internalType": "bool[]",
          "name": "_perms",
          "type": "bool[]"
        }
      ],
      "name": "grantCreatorsInBatch",
      "outputs": [
        {
          "internalType": "bool",
          "name": "",
          "type": "bool"
        }
      ],
      "stateMutability": "nonpayable",
      "type": "function"
    },
    {
      "inputs": [
        {
          "internalType": "address",
          "name": "_garden",
          "type": "address"
        },
        {
          "internalType": "address[]",
          "name": "_users",
          "type": "address[]"
        },
        {
          "internalType": "uint8[]",
          "name": "_perms",
          "type": "uint8[]"
        }
      ],
      "name": "grantGardenAccessBatch",
      "outputs": [
        {
          "internalType": "bool",
          "name": "",
          "type": "bool"
        }
      ],
      "stateMutability": "nonpayable",
      "type": "function"
    },
    {
      "inputs": [
        {
          "internalType": "address",
          "name": "owner",
          "type": "address"
        },
        {
          "internalType": "address",
          "name": "operator",
          "type": "address"
        }
      ],
      "name": "isApprovedForAll",
      "outputs": [
        {
          "internalType": "bool",
          "name": "",
          "type": "bool"
        }
      ],
      "stateMutability": "view",
      "type": "function"
    },
    {
      "inputs": [],
      "name": "maxNumberOfInvites",
      "outputs": [
        {
          "internalType": "uint256",
          "name": "",
          "type": "uint256"
        }
      ],
      "stateMutability": "view",
      "type": "function"
    },
    {
      "inputs": [],
      "name": "name",
      "outputs": [
        {
          "internalType": "string",
          "name": "",
          "type": "string"
        }
      ],
      "stateMutability": "view",
      "type": "function"
    },
    {
      "inputs": [],
      "name": "owner",
      "outputs": [
        {
          "internalType": "address",
          "name": "",
          "type": "address"
        }
      ],
      "stateMutability": "view",
      "type": "function"
    },
    {
      "inputs": [
        {
          "internalType": "uint256",
          "name": "tokenId",
          "type": "uint256"
        }
      ],
      "name": "ownerOf",
      "outputs": [
        {
          "internalType": "address",
          "name": "",
          "type": "address"
        }
      ],
      "stateMutability": "view",
      "type": "function"
    },
    {
      "inputs": [
        {
          "internalType": "address",
          "name": "",
          "type": "address"
        },
        {
          "internalType": "address",
          "name": "",
          "type": "address"
        }
      ],
      "name": "permissionsByCommunity",
      "outputs": [
        {
          "internalType": "uint8",
          "name": "",
          "type": "uint8"
        }
      ],
      "stateMutability": "view",
      "type": "function"
    },
    {
      "inputs": [],
      "name": "renounceOwnership",
      "outputs": [],
      "stateMutability": "nonpayable",
      "type": "function"
    },
    {
      "inputs": [
        {
          "internalType": "address",
          "name": "from",
          "type": "address"
        },
        {
          "internalType": "address",
          "name": "to",
          "type": "address"
        },
        {
          "internalType": "uint256",
          "name": "tokenId",
          "type": "uint256"
        }
      ],
      "name": "safeTransferFrom",
      "outputs": [],
      "stateMutability": "nonpayable",
      "type": "function"
    },
    {
      "inputs": [
        {
          "internalType": "address",
          "name": "from",
          "type": "address"
        },
        {
          "internalType": "address",
          "name": "to",
          "type": "address"
        },
        {
          "internalType": "uint256",
          "name": "tokenId",
          "type": "uint256"
        },
        {
          "internalType": "bytes",
          "name": "_data",
          "type": "bytes"
        }
      ],
      "name": "safeTransferFrom",
      "outputs": [],
      "stateMutability": "nonpayable",
      "type": "function"
    },
    {
      "inputs": [
        {
          "internalType": "address",
          "name": "operator",
          "type": "address"
        },
        {
          "internalType": "bool",
          "name": "approved",
          "type": "bool"
        }
      ],
      "name": "setApprovalForAll",
      "outputs": [],
      "stateMutability": "nonpayable",
      "type": "function"
    },
    {
      "inputs": [
        {
          "internalType": "address",
          "name": "_user",
          "type": "address"
        },
        {
          "internalType": "bool",
          "name": "_canCreate",
          "type": "bool"
        }
      ],
      "name": "setCreatorPermissions",
      "outputs": [
        {
          "internalType": "uint256",
          "name": "",
          "type": "uint256"
        }
      ],
      "stateMutability": "nonpayable",
      "type": "function"
    },
    {
      "inputs": [
        {
          "internalType": "address",
          "name": "_user",
          "type": "address"
        },
        {
          "internalType": "address",
          "name": "_garden",
          "type": "address"
        },
        {
          "internalType": "uint8",
          "name": "_permission",
          "type": "uint8"
        }
      ],
      "name": "setGardenAccess",
      "outputs": [
        {
          "internalType": "uint256",
          "name": "",
          "type": "uint256"
        }
      ],
      "stateMutability": "nonpayable",
      "type": "function"
    },
    {
      "inputs": [
        {
          "internalType": "uint256",
          "name": "_maxNumberOfInvites",
          "type": "uint256"
        }
      ],
      "name": "setMaxNumberOfInvites",
      "outputs": [],
      "stateMutability": "nonpayable",
      "type": "function"
    },
    {
      "inputs": [
        {
          "internalType": "bytes4",
          "name": "interfaceId",
          "type": "bytes4"
        }
      ],
      "name": "supportsInterface",
      "outputs": [
        {
          "internalType": "bool",
          "name": "",
          "type": "bool"
        }
      ],
      "stateMutability": "view",
      "type": "function"
    },
    {
      "inputs": [],
      "name": "symbol",
      "outputs": [
        {
          "internalType": "string",
          "name": "",
          "type": "string"
        }
      ],
      "stateMutability": "view",
      "type": "function"
    },
    {
      "inputs": [
        {
          "internalType": "uint256",
          "name": "index",
          "type": "uint256"
        }
      ],
      "name": "tokenByIndex",
      "outputs": [
        {
          "internalType": "uint256",
          "name": "",
          "type": "uint256"
        }
      ],
      "stateMutability": "view",
      "type": "function"
    },
    {
      "inputs": [
        {
          "internalType": "address",
          "name": "owner",
          "type": "address"
        },
        {
          "internalType": "uint256",
          "name": "index",
          "type": "uint256"
        }
      ],
      "name": "tokenOfOwnerByIndex",
      "outputs": [
        {
          "internalType": "uint256",
          "name": "",
          "type": "uint256"
        }
      ],
      "stateMutability": "view",
      "type": "function"
    },
    {
      "inputs": [],
      "name": "tokenURI",
      "outputs": [
        {
          "internalType": "string",
          "name": "",
          "type": "string"
        }
      ],
      "stateMutability": "view",
      "type": "function"
    },
    {
      "inputs": [
        {
          "internalType": "uint256",
          "name": "tokenId",
          "type": "uint256"
        }
      ],
      "name": "tokenURI",
      "outputs": [
        {
          "internalType": "string",
          "name": "",
          "type": "string"
        }
      ],
      "stateMutability": "view",
      "type": "function"
    },
    {
      "inputs": [],
      "name": "totalSupply",
      "outputs": [
        {
          "internalType": "uint256",
          "name": "",
          "type": "uint256"
        }
      ],
      "stateMutability": "view",
      "type": "function"
    },
    {
      "inputs": [
        {
          "internalType": "address",
          "name": "from",
          "type": "address"
        },
        {
          "internalType": "address",
          "name": "to",
          "type": "address"
        },
        {
          "internalType": "uint256",
          "name": "tokenId",
          "type": "uint256"
        }
      ],
      "name": "transferFrom",
      "outputs": [],
      "stateMutability": "nonpayable",
      "type": "function"
    },
    {
      "inputs": [
        {
          "internalType": "address",
          "name": "newOwner",
          "type": "address"
        }
      ],
      "name": "transferOwnership",
      "outputs": [],
      "stateMutability": "nonpayable",
      "type": "function"
    },
    {
      "inputs": [
        {
          "internalType": "string",
          "name": "_tokenURI",
          "type": "string"
        }
      ],
      "name": "updateGardenURI",
      "outputs": [],
      "stateMutability": "nonpayable",
      "type": "function"
    }
  ],
  "transactionHash": "0x40d5fb3e06bab00cfcc17a5710cc22b8027966073405e99d15ac1290a066b3a1",
  "args": [
    "0xD4a5b5fcB561dAF3aDF86F8477555B92FBa43b5F",
    "https://babylon.mypinata.cloud/ipfs/QmTTcF8a1asL9YKsCB5DzND1Biy4Kyw4nX7EPSgv1pLEDA"
  ],
  "solcInputHash": "bd873b418320faeabd457a4fe7c7c19d",
  "bytecode": "0x60806040523480156200001157600080fd5b5060405162003e6838038062003e68833981810160405260408110156200003757600080fd5b8151602083018051604051929492938301929190846401000000008211156200005f57600080fd5b9083019060208201858111156200007557600080fd5b82516401000000008111828201881017156200009057600080fd5b82525081516020918201929091019080838360005b83811015620000bf578181015183820152602001620000a5565b50505050905090810190601f168015620000ed5780820380516001836020036101000a031916815260200191505b5060408181018152600a8252694973687461724761746560b01b602080840191909152815180830190925260048252631254d21560e21b9082015290935091506200014190506301ffc9a760e01b6200029a565b81516200015690600690602085019062000323565b5080516200016c90600790602084019062000323565b506200017f6380ac58cd60e01b6200029a565b62000191635b5e139f60e01b6200029a565b620001a363780e9d6360e01b6200029a565b5060009050620001b26200031f565b600a80546001600160a01b0319166001600160a01b038316908117909155604051919250906000907f8be0079c531659141344cd1fd0a4f28419497f9722a3daafe3b4186f6b6457e0908290a3506001600160a01b0382166200025c576040805162461bcd60e51b815260206004820152601560248201527f436f6e74726f6c6c6572206d7573742065786973740000000000000000000000604482015290519081900360640190fd5b600b80546001600160a01b0319166001600160a01b03841617905580516200028c90600c90602084019062000323565b5050600a600d5550620003cf565b6001600160e01b03198082161415620002fa576040805162461bcd60e51b815260206004820152601c60248201527f4552433136353a20696e76616c696420696e7465726661636520696400000000604482015290519081900360640190fd5b6001600160e01b0319166000908152602081905260409020805460ff19166001179055565b3390565b828054600181600116156101000203166002900490600052602060002090601f0160209004810192826200035b5760008555620003a6565b82601f106200037657805160ff1916838001178555620003a6565b82800160010185558215620003a6579182015b82811115620003a657825182559160200191906001019062000389565b50620003b4929150620003b8565b5090565b5b80821115620003b45760008155600101620003b9565b613a8980620003df6000396000f3fe608060405234801561001057600080fd5b50600436106102c85760003560e01c806370793b4b1161017b578063b07b7e7f116100d8578063d83e2c971161008c578063e9c6fe3111610071578063e9c6fe3114610a76578063f2fde38b14610aa4578063f77c479114610aca576102c8565b8063d83e2c97146109a2578063e985e9c514610a48576102c8565b8063c7ec5d5d116100bd578063c7ec5d5d14610895578063c87b56dd146108c3578063d1610652146108e0576102c8565b8063b07b7e7f146107c7578063b88d4fde146107cf576102c8565b8063835253941161012f57806395d89b411161011457806395d89b41146107895780639cfdede314610791578063a22cb46514610799576102c8565b806383525394146107795780638da5cb5b14610781576102c8565b8063715018a611610160578063715018a61461071d5780637804a5dc1461072557806382e894231461074b576102c8565b806370793b4b146106bd57806370a08231146106f7576102c8565b80632f745c59116102295780634f6ccce7116101dd5780636352211e116101c25780636352211e1461067b57806365f64118146106985780636c0360eb146106b5576102c8565b80634f6ccce7146106305780635066c7141461064d576102c8565b80633c130d901161020e5780633c130d90146105c457806342842e0e146105cc5780634d98fbf014610602576102c8565b80632f745c591461057257806331eff3831461059e576102c8565b8063187af87d1161028057806323b872dd1161026557806323b872dd146104625780632561e6b21461049857806327844ee21461056a576102c8565b8063187af87d1461041e5780631b8f119014610444576102c8565b8063081812fc116102b1578063081812fc1461039d578063095ea7b3146103d657806318160ddd14610404576102c8565b806301ffc9a7146102cd57806306fdde0314610320575b600080fd5b61030c600480360360208110156102e357600080fd5b50357fffffffff0000000000000000000000000000000000000000000000000000000016610ad2565b604080519115158252519081900360200190f35b610328610b0d565b6040805160208082528351818301528351919283929083019185019080838360005b8381101561036257818101518382015260200161034a565b50505050905090810190601f16801561038f5780820380516001836020036101000a031916815260200191505b509250505060405180910390f35b6103ba600480360360208110156103b357600080fd5b5035610ba3565b604080516001600160a01b039092168252519081900360200190f35b610402600480360360408110156103ec57600080fd5b506001600160a01b038135169060200135610c05565b005b61040c610ce0565b60408051918252519081900360200190f35b61030c6004803603602081101561043457600080fd5b50356001600160a01b0316610cf1565b61044c610d06565b6040805160ff9092168252519081900360200190f35b6104026004803603606081101561047857600080fd5b506001600160a01b03813581169160208101359091169060400135610d0b565b61030c600480360360608110156104ae57600080fd5b6001600160a01b0382351691908101906040810160208201356401000000008111156104d957600080fd5b8201836020820111156104eb57600080fd5b8035906020019184602083028401116401000000008311171561050d57600080fd5b91939092909160208101903564010000000081111561052b57600080fd5b82018360208201111561053d57600080fd5b8035906020019184602083028401116401000000008311171561055f57600080fd5b509092509050610d62565b61044c6111c4565b61040c6004803603604081101561058857600080fd5b506001600160a01b0381351690602001356111c9565b61040c600480360360208110156105b457600080fd5b50356001600160a01b03166111f4565b610328611206565b610402600480360360608110156105e257600080fd5b506001600160a01b03813581169160208101359091169060400135611294565b61030c6004803603604081101561061857600080fd5b506001600160a01b03813581169160200135166112af565b61040c6004803603602081101561064657600080fd5b5035611378565b61030c6004803603604081101561066357600080fd5b506001600160a01b038135811691602001351661138e565b6103ba6004803603602081101561069157600080fd5b503561141a565b610402600480360360208110156106ae57600080fd5b5035611442565b610328611511565b61040c600480360360608110156106d357600080fd5b5080356001600160a01b03908116916020810135909116906040013560ff16611572565b61040c6004803603602081101561070d57600080fd5b50356001600160a01b031661190c565b610402611974565b61030c6004803603602081101561073b57600080fd5b50356001600160a01b0316611a3f565b61040c6004803603604081101561076157600080fd5b506001600160a01b0381351690602001351515611a72565b61044c611af2565b6103ba611af7565b610328611b06565b61044c611b67565b610402600480360360408110156107af57600080fd5b506001600160a01b0381351690602001351515611b6c565b61040c611c71565b610402600480360360808110156107e557600080fd5b6001600160a01b0382358116926020810135909116916040820135919081019060808101606082013564010000000081111561082057600080fd5b82018360208201111561083257600080fd5b8035906020019184600183028401116401000000008311171561085457600080fd5b91908080601f016020809104026020016040519081016040528093929190818152602001838380828437600092019190915250929550611c77945050505050565b61030c600480360360408110156108ab57600080fd5b506001600160a01b0381358116916020013516611cd5565b610328600480360360208110156108d957600080fd5b5035611d61565b61030c600480360360408110156108f657600080fd5b81019060208101813564010000000081111561091157600080fd5b82018360208201111561092357600080fd5b8035906020019184602083028401116401000000008311171561094557600080fd5b91939092909160208101903564010000000081111561096357600080fd5b82018360208201111561097557600080fd5b8035906020019184602083028401116401000000008311171561099757600080fd5b509092509050611fe2565b610402600480360360208110156109b857600080fd5b8101906020810181356401000000008111156109d357600080fd5b8201836020820111156109e557600080fd5b80359060200191846001830284011164010000000083111715610a0757600080fd5b91908080601f016020809104026020016040519081016040528093929190818152602001838380828437600092019190915250929550612110945050505050565b61030c60048036036040811015610a5e57600080fd5b506001600160a01b038135811691602001351661231f565b61044c60048036036040811015610a8c57600080fd5b506001600160a01b038135811691602001351661234d565b61040260048036036020811015610aba57600080fd5b50356001600160a01b031661236d565b6103ba61248f565b7fffffffff00000000000000000000000000000000000000000000000000000000811660009081526020819052604090205460ff165b919050565b60068054604080516020601f6002600019610100600188161502019095169490940493840181900481028201810190925282815260609390929091830182828015610b995780601f10610b6e57610100808354040283529160200191610b99565b820191906000526020600020905b815481529060010190602001808311610b7c57829003601f168201915b5050505050905090565b6000610bae8261249e565b610be95760405162461bcd60e51b815260040180806020018281038252602c815260200180613952602c913960400191505060405180910390fd5b506000908152600460205260409020546001600160a01b031690565b6000610c108261141a565b9050806001600160a01b0316836001600160a01b03161415610c635760405162461bcd60e51b8152600401808060200182810382526021815260200180613a026021913960400191505060405180910390fd5b806001600160a01b0316610c756124ab565b6001600160a01b03161480610c965750610c9681610c916124ab565b61231f565b610cd15760405162461bcd60e51b81526004018080602001828103825260388152602001806138a56038913960400191505060405180910390fd5b610cdb83836124af565b505050565b6000610cec600261252a565b905090565b600f6020526000908152604090205460ff1681565b600281565b610d1c610d166124ab565b82612535565b610d575760405162461bcd60e51b8152600401808060200182810382526031815260200180613a236031913960400191505060405180910390fd5b610cdb8383836125d1565b6000856001600160a01b038116610dc0576040805162461bcd60e51b815260206004820152601160248201527f47617264656e206d757374206578697374000000000000000000000000000000604482015290519081900360640190fd5b600b546040805163f77c479160e01b8152905183926001600160a01b03908116929084169163f77c479191600480820192602092909190829003018186803b158015610e0b57600080fd5b505afa158015610e1f573d6000803e3d6000fd5b505050506040513d6020811015610e3557600080fd5b50516001600160a01b031614610e92576040805162461bcd60e51b815260206004820152601560248201527f436f6e74726f6c6c6572206d757374206d617463680000000000000000000000604482015290519081900360640190fd5b806001600160a01b03166302d05d3f6040518163ffffffff1660e01b815260040160206040518083038186803b158015610ecb57600080fd5b505afa158015610edf573d6000803e3d6000fd5b505050506040513d6020811015610ef557600080fd5b50516001600160a01b03163314610f3d5760405162461bcd60e51b815260040180806020018281038252602681526020018061375d6026913960400191505060405180910390fd5b600b54604080516313bc6d4b60e01b81526001600160a01b038581166004830152915191909216916313bc6d4b916024808301926020929190829003018186803b158015610f8a57600080fd5b505afa158015610f9e573d6000803e3d6000fd5b505050506040513d6020811015610fb457600080fd5b5051610fbf57600080fd5b600b546040805163364d118160e01b81526001600160a01b0385811660048301529151919092169163364d1181916024808301926020929190829003018186803b15801561100c57600080fd5b505afa158015611020573d6000803e3d6000fd5b505050506040513d602081101561103657600080fd5b505161104157600080fd5b600d546001600160a01b038316600090815260106020526040902054111561109a5760405162461bcd60e51b81526004018080602001828103825260328152602001806137a56032913960400191505060405180910390fd5b8584146110ee576040805162461bcd60e51b815260206004820181905260248201527f5065726d697373696f6e7320616e64207573657273206d757374206d61746368604482015290519081900360640190fd5b60005b60ff81168711156111b5576000888860ff841681811061110d57fe5b905060200201356001600160a01b03166001600160a01b0316141561116b576040805162461bcd60e51b815260206004820152600f60248201526e155cd95c881b5d5cdd08195e1a5cdd608a1b604482015290519081900360640190fd5b6111ac88888360ff1681811061117d57fe5b905060200201356001600160a01b03168a88888560ff1681811061119d57fe5b9050602002013560ff1661271d565b506001016110f1565b50600198975050505050505050565b600181565b6001600160a01b03821660009081526001602052604081206111eb9083612968565b90505b92915050565b60106020526000908152604090205481565b600c805460408051602060026001851615610100026000190190941693909304601f8101849004840282018401909252818152929183018282801561128c5780601f106112615761010080835404028352916020019161128c565b820191906000526020600020905b81548152906001019060200180831161126f57829003601f168201915b505050505081565b610cdb83838360405180602001604052806000815250611c77565b6000806112bb8361190c565b1180156111eb57506001600160a01b038381166000908152600e6020908152604080832093861683529290522054600260ff9091161015806111eb5750816001600160a01b0316836001600160a01b03166302d05d3f6040518163ffffffff1660e01b815260040160206040518083038186803b15801561133b57600080fd5b505afa15801561134f573d6000803e3d6000fd5b505050506040513d602081101561136557600080fd5b50516001600160a01b0316149392505050565b600080611386600284612974565b509392505050565b60008061139a8361190c565b1180156111eb57506001600160a01b038381166000908152600e6020908152604080832093861683529290522054600360ff9091161015806111eb5750816001600160a01b0316836001600160a01b03166302d05d3f6040518163ffffffff1660e01b815260040160206040518083038186803b15801561133b57600080fd5b60006111ee826040518060600160405280602981526020016139076029913960029190612990565b61144a6124ab565b6001600160a01b031661145b611af7565b6001600160a01b0316146114b6576040805162461bcd60e51b815260206004820181905260248201527f4f776e61626c653a2063616c6c6572206973206e6f7420746865206f776e6572604482015290519081900360640190fd5b600d54811161150c576040805162461bcd60e51b815260206004820152601660248201527f496e7669746573206d7573742062652068696768657200000000000000000000604482015290519081900360640190fd5b600d55565b60098054604080516020601f6002600019610100600188161502019095169490940493840181900481028201810190925282815260609390929091830182828015610b995780601f10610b6e57610100808354040283529160200191610b99565b6000826001600160a01b0381166115d0576040805162461bcd60e51b815260206004820152601160248201527f47617264656e206d757374206578697374000000000000000000000000000000604482015290519081900360640190fd5b600b546040805163f77c479160e01b8152905183926001600160a01b03908116929084169163f77c479191600480820192602092909190829003018186803b15801561161b57600080fd5b505afa15801561162f573d6000803e3d6000fd5b505050506040513d602081101561164557600080fd5b50516001600160a01b0316146116a2576040805162461bcd60e51b815260206004820152601560248201527f436f6e74726f6c6c6572206d757374206d617463680000000000000000000000604482015290519081900360640190fd5b806001600160a01b03166302d05d3f6040518163ffffffff1660e01b815260040160206040518083038186803b1580156116db57600080fd5b505afa1580156116ef573d6000803e3d6000fd5b505050506040513d602081101561170557600080fd5b50516001600160a01b0316331461174d5760405162461bcd60e51b815260040180806020018281038252602681526020018061375d6026913960400191505060405180910390fd5b600b54604080516313bc6d4b60e01b81526001600160a01b038581166004830152915191909216916313bc6d4b916024808301926020929190829003018186803b15801561179a57600080fd5b505afa1580156117ae573d6000803e3d6000fd5b505050506040513d60208110156117c457600080fd5b50516117cf57600080fd5b600b546040805163364d118160e01b81526001600160a01b0385811660048301529151919092169163364d1181916024808301926020929190829003018186803b15801561181c57600080fd5b505afa158015611830573d6000803e3d6000fd5b505050506040513d602081101561184657600080fd5b505161185157600080fd5b600d546001600160a01b03831660009081526010602052604090205411156118aa5760405162461bcd60e51b81526004018080602001828103825260328152602001806137a56032913960400191505060405180910390fd5b6001600160a01b0386166118f7576040805162461bcd60e51b815260206004820152600f60248201526e155cd95c881b5d5cdd08195e1a5cdd608a1b604482015290519081900360640190fd5b61190286868661271d565b9695505050505050565b60006001600160a01b0382166119535760405162461bcd60e51b815260040180806020018281038252602a8152602001806138dd602a913960400191505060405180910390fd5b6001600160a01b03821660009081526001602052604090206111ee9061252a565b61197c6124ab565b6001600160a01b031661198d611af7565b6001600160a01b0316146119e8576040805162461bcd60e51b815260206004820181905260248201527f4f776e61626c653a2063616c6c6572206973206e6f7420746865206f776e6572604482015290519081900360640190fd5b600a546040516000916001600160a01b0316907f8be0079c531659141344cd1fd0a4f28419497f9722a3daafe3b4186f6b6457e0908390a3600a805473ffffffffffffffffffffffffffffffffffffffff19169055565b600080611a4b8361190c565b1180156111ee5750506001600160a01b03166000908152600f602052604090205460ff1690565b6000611a7c6124ab565b6001600160a01b0316611a8d611af7565b6001600160a01b031614611ae8576040805162461bcd60e51b815260206004820181905260248201527f4f776e61626c653a2063616c6c6572206973206e6f7420746865206f776e6572604482015290519081900360640190fd5b6111eb838361299d565b600081565b600a546001600160a01b031690565b60078054604080516020601f6002600019610100600188161502019095169490940493840181900481028201810190925282815260609390929091830182828015610b995780601f10610b6e57610100808354040283529160200191610b99565b600381565b611b746124ab565b6001600160a01b0316826001600160a01b03161415611bda576040805162461bcd60e51b815260206004820152601960248201527f4552433732313a20617070726f766520746f2063616c6c657200000000000000604482015290519081900360640190fd5b8060056000611be76124ab565b6001600160a01b03908116825260208083019390935260409182016000908120918716808252919093529120805460ff191692151592909217909155611c2b6124ab565b6001600160a01b03167f17307eab39ab6107e8899845ad3d59bd9653f200f220920489ca2b5937696c318360405180821515815260200191505060405180910390a35050565b600d5481565b611c88611c826124ab565b83612535565b611cc35760405162461bcd60e51b8152600401808060200182810382526031815260200180613a236031913960400191505060405180910390fd5b611ccf84848484612a65565b50505050565b600080611ce18361190c565b1180156111eb57506001600160a01b038381166000908152600e6020908152604080832093861683529290522054600160ff9091161015806111eb5750816001600160a01b0316836001600160a01b03166302d05d3f6040518163ffffffff1660e01b815260040160206040518083038186803b15801561133b57600080fd5b6060611d6c8261249e565b611da75760405162461bcd60e51b815260040180806020018281038252602f8152602001806139d3602f913960400191505060405180910390fd5b60008281526008602090815260408083208054825160026001831615610100026000190190921691909104601f810185900485028201850190935282815292909190830182828015611e3a5780601f10611e0f57610100808354040283529160200191611e3a565b820191906000526020600020905b815481529060010190602001808311611e1d57829003601f168201915b505050505090506000611e4b611511565b9050805160001415611e5f57509050610b08565b815115611f205780826040516020018083805190602001908083835b60208310611e9a5780518252601f199092019160209182019101611e7b565b51815160209384036101000a600019018019909216911617905285519190930192850191508083835b60208310611ee25780518252601f199092019160209182019101611ec3565b6001836020036101000a0380198251168184511680821785525050505050509050019250505060405160208183030381529060405292505050610b08565b80611f2a85612ab7565b6040516020018083805190602001908083835b60208310611f5c5780518252601f199092019160209182019101611f3d565b51815160209384036101000a600019018019909216911617905285519190930192850191508083835b60208310611fa45780518252601f199092019160209182019101611f85565b6001836020036101000a0380198251168184511680821785525050505050509050019250505060405160208183030381529060405292505050919050565b6000611fec6124ab565b6001600160a01b0316611ffd611af7565b6001600160a01b031614612058576040805162461bcd60e51b815260206004820181905260248201527f4f776e61626c653a2063616c6c6572206973206e6f7420746865206f776e6572604482015290519081900360640190fd5b8382146120ac576040805162461bcd60e51b815260206004820181905260248201527f5065726d697373696f6e7320616e64207573657273206d757374206d61746368604482015290519081900360640190fd5b60005b60ff8116851115612102576120f986868360ff168181106120cc57fe5b905060200201356001600160a01b031685858460ff168181106120eb57fe5b90506020020135151561299d565b506001016120af565b50600190505b949350505050565b6121186124ab565b6001600160a01b0316612129611af7565b6001600160a01b031614612184576040805162461bcd60e51b815260206004820181905260248201527f4f776e61626c653a2063616c6c6572206973206e6f7420746865206f776e6572604482015290519081900360640190fd5b600c8054604080516020601f60026000196101006001881615020190951694909404938401819004810282018101909252828152600093909290918301828280156122105780601f106121e557610100808354040283529160200191612210565b820191906000526020600020905b8154815290600101906020018083116121f357829003601f168201915b5050855193945061222c93600c935060208701925090506136bb565b50806040518082805190602001908083835b6020831061225d5780518252601f19909201916020918201910161223e565b6001836020036101000a0380198251168184511680821785525050505050509050019150506040518091039020600c60405180828054600181600116156101000203166002900480156122e75780601f106122c55761010080835404028352918201916122e7565b820191906000526020600020905b8154815290600101906020018083116122d3575b505060405190819003812092507fb9f7d3f8371d63914851c4029cbff0eb77d038eef46fa05b86df0339e490fffc9150600090a35050565b6001600160a01b03918216600090815260056020908152604080832093909416825291909152205460ff1690565b600e60209081526000928352604080842090915290825290205460ff1681565b6123756124ab565b6001600160a01b0316612386611af7565b6001600160a01b0316146123e1576040805162461bcd60e51b815260206004820181905260248201527f4f776e61626c653a2063616c6c6572206973206e6f7420746865206f776e6572604482015290519081900360640190fd5b6001600160a01b0381166124265760405162461bcd60e51b81526004018080602001828103825260268152602001806138096026913960400191505060405180910390fd5b600a546040516001600160a01b038084169216907f8be0079c531659141344cd1fd0a4f28419497f9722a3daafe3b4186f6b6457e090600090a3600a805473ffffffffffffffffffffffffffffffffffffffff19166001600160a01b0392909216919091179055565b600b546001600160a01b031681565b60006111ee600283612bc6565b3390565b6000818152600460205260409020805473ffffffffffffffffffffffffffffffffffffffff19166001600160a01b03841690811790915581906124f18261141a565b6001600160a01b03167f8c5be1e5ebec7d5bd14f71427d1e84f3dd0314c0f7b2291e5b200ac8c7c3b92560405160405180910390a45050565b60006111ee82612bd2565b60006125408261249e565b61257b5760405162461bcd60e51b815260040180806020018281038252602c815260200180613879602c913960400191505060405180910390fd5b60006125868361141a565b9050806001600160a01b0316846001600160a01b031614806125c15750836001600160a01b03166125b684610ba3565b6001600160a01b0316145b806121085750612108818561231f565b826001600160a01b03166125e48261141a565b6001600160a01b0316146126295760405162461bcd60e51b81526004018080602001828103825260298152602001806139aa6029913960400191505060405180910390fd5b6001600160a01b03821661266e5760405162461bcd60e51b815260040180806020018281038252602481526020018061382f6024913960400191505060405180910390fd5b612679838383610cdb565b6126846000826124af565b6001600160a01b03831660009081526001602052604090206126a69082612bd6565b506001600160a01b03821660009081526001602052604090206126c99082612be2565b506126d660028284612bee565b5080826001600160a01b0316846001600160a01b03167fddf252ad1be2c89b69c2b068fc378daa952ba7f163c4a11628f55a4df523b3ef60405160405180910390a4505050565b600060038260ff161115612778576040805162461bcd60e51b815260206004820152601860248201527f5065726d697373696f6e206f7574206f6620626f756e64730000000000000000604482015290519081900360640190fd5b600061278385612c04565b905060008360ff161180156127be57506001600160a01b038085166000908152600e602090815260408083209389168352929052205460ff16155b1561286f57600d546001600160a01b03851660009081526010602052604090205410612831576040805162461bcd60e51b815260206004820152601d60248201527f4d6178204e756d626572206f6620696e76697465732072656163686564000000604482015290519081900360640190fd5b6001600160a01b038416600090815260106020526040902054612855906001612d12565b6001600160a01b0385166000908152601060205260409020555b60ff83161580156128a757506001600160a01b038085166000908152600e602090815260408083209389168352929052205460ff1615155b156128ea576001600160a01b0384166000908152601060205260409020546128d0906001612d6c565b6001600160a01b0385166000908152601060205260409020555b6001600160a01b038481166000818152600e60209081526040808320948a1680845294825291829020805460ff191660ff8916908117909155825190815290810185905281519293927ff9a024892baa30c97621bf85cea2ce82d0c128a59fa7714a72c1d37868fdb1be929181900390910190a390505b9392505050565b60006111eb8383612dc9565b60008080806129838686612e2d565b9097909650945050505050565b6000612108848484612ea8565b60006001600160a01b0383166129ec576040805162461bcd60e51b815260206004820152600f60248201526e155cd95c881b5d5cdd08195e1a5cdd608a1b604482015290519081900360640190fd5b60006129f784612c04565b6001600160a01b0385166000818152600f6020908152604091829020805460ff19168815159081179091558251908152908101849052815193945091927fc7ef194be94a46a1602ce7825850329a4560bcb6c4b5611df12e4dedf4db59d69281900390910190a29392505050565b612a708484846125d1565b612a7c84848484612f72565b611ccf5760405162461bcd60e51b81526004018080602001828103825260328152602001806137d76032913960400191505060405180910390fd5b606081612af8575060408051808201909152600181527f30000000000000000000000000000000000000000000000000000000000000006020820152610b08565b8160005b8115612b1057600101600a82049150612afc565b60008167ffffffffffffffff81118015612b2957600080fd5b506040519080825280601f01601f191660200182016040528015612b54576020820181803683370190505b50859350905060001982015b8315612bbd57600a840660300160f81b82828060019003935081518110612b8357fe5b60200101907effffffffffffffffffffffffffffffffffffffffffffffffffffffffffffff1916908160001a905350600a84049350612b60565b50949350505050565b60006111eb838361311c565b5490565b60006111eb8383613134565b60006111eb83836131fa565b600061210884846001600160a01b038516613244565b600080612c108361190c565b612d0757612c1e60116132db565b612c286011612bd2565b9050612c3483826132e4565b600c805460408051602060026001851615610100026000190190941693909304601f8101849004840282018401909252818152612ccc93859391929091830182828015612cc25780601f10612c9757610100808354040283529160200191612cc2565b820191906000526020600020905b815481529060010190602001808311612ca557829003601f168201915b5050505050613302565b60405181906001600160a01b038516907f91f491a5affa462bcd7c0c9229592fcaaf55959bcce7f754256f9360d53f6aac90600090a36111ee565b6111eb8360006111c9565b6000828201838110156111eb576040805162461bcd60e51b815260206004820152601b60248201527f536166654d6174683a206164646974696f6e206f766572666c6f770000000000604482015290519081900360640190fd5b600082821115612dc3576040805162461bcd60e51b815260206004820152601e60248201527f536166654d6174683a207375627472616374696f6e206f766572666c6f770000604482015290519081900360640190fd5b50900390565b81546000908210612e0b5760405162461bcd60e51b81526004018080602001828103825260228152602001806137836022913960400191505060405180910390fd5b826000018281548110612e1a57fe5b9060005260206000200154905092915050565b815460009081908310612e715760405162461bcd60e51b81526004018080602001828103825260228152602001806139306022913960400191505060405180910390fd5b6000846000018481548110612e8257fe5b906000526020600020906002020190508060000154816001015492509250509250929050565b60008281526001840160205260408120548281612f435760405162461bcd60e51b81526004018080602001828103825283818151815260200191508051906020019080838360005b83811015612f08578181015183820152602001612ef0565b50505050905090810190601f168015612f355780820380516001836020036101000a031916815260200191505b509250505060405180910390fd5b50846000016001820381548110612f5657fe5b9060005260206000209060020201600101549150509392505050565b6000612f86846001600160a01b0316613365565b612f9257506001612108565b60006130ca630a85bd0160e11b612fa76124ab565b88878760405160240180856001600160a01b03168152602001846001600160a01b0316815260200183815260200180602001828103825283818151815260200191508051906020019080838360005b8381101561300e578181015183820152602001612ff6565b50505050905090810190601f16801561303b5780820380516001836020036101000a031916815260200191505b5095505050505050604051602081830303815290604052907bffffffffffffffffffffffffffffffffffffffffffffffffffffffff19166020820180517bffffffffffffffffffffffffffffffffffffffffffffffffffffffff83818316178352505050506040518060600160405280603281526020016137d7603291396001600160a01b038816919061336b565b905060008180602001905160208110156130e357600080fd5b50517fffffffff0000000000000000000000000000000000000000000000000000000016630a85bd0160e11b1492505050949350505050565b60009081526001919091016020526040902054151590565b600081815260018301602052604081205480156131f0578354600019808301919081019060009087908390811061316757fe5b906000526020600020015490508087600001848154811061318457fe5b6000918252602080832090910192909255828152600189810190925260409020908401905586548790806131b457fe5b600190038181906000526020600020016000905590558660010160008781526020019081526020016000206000905560019450505050506111ee565b60009150506111ee565b6000613206838361311c565b61323c575081546001818101845560008481526020808220909301849055845484825282860190935260409020919091556111ee565b5060006111ee565b6000828152600184016020526040812054806132a9575050604080518082018252838152602080820184815286546001818101895560008981528481209551600290930290950191825591519082015586548684528188019092529290912055612961565b828560000160018303815481106132bc57fe5b9060005260206000209060020201600101819055506000915050612961565b80546001019055565b6132fe82826040518060200160405280600081525061337a565b5050565b61330b8261249e565b6133465760405162461bcd60e51b815260040180806020018281038252602c81526020018061397e602c913960400191505060405180910390fd5b60008281526008602090815260409091208251610cdb928401906136bb565b3b151590565b606061210884846000856133cc565b6133848383613527565b6133916000848484612f72565b610cdb5760405162461bcd60e51b81526004018080602001828103825260328152602001806137d76032913960400191505060405180910390fd5b60608247101561340d5760405162461bcd60e51b81526004018080602001828103825260268152602001806138536026913960400191505060405180910390fd5b61341685613365565b613467576040805162461bcd60e51b815260206004820152601d60248201527f416464726573733a2063616c6c20746f206e6f6e2d636f6e7472616374000000604482015290519081900360640190fd5b600080866001600160a01b031685876040518082805190602001908083835b602083106134a55780518252601f199092019160209182019101613486565b6001836020036101000a03801982511681845116808217855250505050505090500191505060006040518083038185875af1925050503d8060008114613507576040519150601f19603f3d011682016040523d82523d6000602084013e61350c565b606091505b509150915061351c828286613655565b979650505050505050565b6001600160a01b038216613582576040805162461bcd60e51b815260206004820181905260248201527f4552433732313a206d696e7420746f20746865207a65726f2061646472657373604482015290519081900360640190fd5b61358b8161249e565b156135dd576040805162461bcd60e51b815260206004820152601c60248201527f4552433732313a20746f6b656e20616c7265616479206d696e74656400000000604482015290519081900360640190fd5b6135e960008383610cdb565b6001600160a01b038216600090815260016020526040902061360b9082612be2565b5061361860028284612bee565b5060405181906001600160a01b038416906000907fddf252ad1be2c89b69c2b068fc378daa952ba7f163c4a11628f55a4df523b3ef908290a45050565b60608315613664575081612961565b8251156136745782518084602001fd5b60405162461bcd60e51b8152602060048201818152845160248401528451859391928392604401919085019080838360008315612f08578181015183820152602001612ef0565b828054600181600116156101000203166002900490600052602060002090601f0160209004810192826136f15760008555613737565b82601f1061370a57805160ff1916838001178555613737565b82800160010185558215613737579182015b8281111561373757825182559160200191906001019061371c565b50613743929150613747565b5090565b5b80821115613743576000815560010161374856fe4f6e6c792063726561746f722063616e20676976652061636365737320746f2067617264656e456e756d657261626c655365743a20696e646578206f7574206f6620626f756e6473546865206e756d626572206f6620636f6e7472696275746f7273206d7573742062652062656c6f7720746865206c696d69744552433732313a207472616e7366657220746f206e6f6e20455243373231526563656976657220696d706c656d656e7465724f776e61626c653a206e6577206f776e657220697320746865207a65726f20616464726573734552433732313a207472616e7366657220746f20746865207a65726f2061646472657373416464726573733a20696e73756666696369656e742062616c616e636520666f722063616c6c4552433732313a206f70657261746f7220717565727920666f72206e6f6e6578697374656e7420746f6b656e4552433732313a20617070726f76652063616c6c6572206973206e6f74206f776e6572206e6f7220617070726f76656420666f7220616c6c4552433732313a2062616c616e636520717565727920666f7220746865207a65726f20616464726573734552433732313a206f776e657220717565727920666f72206e6f6e6578697374656e7420746f6b656e456e756d657261626c654d61703a20696e646578206f7574206f6620626f756e64734552433732313a20617070726f76656420717565727920666f72206e6f6e6578697374656e7420746f6b656e4552433732314d657461646174613a2055524920736574206f66206e6f6e6578697374656e7420746f6b656e4552433732313a207472616e73666572206f6620746f6b656e2074686174206973206e6f74206f776e4552433732314d657461646174613a2055524920717565727920666f72206e6f6e6578697374656e7420746f6b656e4552433732313a20617070726f76616c20746f2063757272656e74206f776e65724552433732313a207472616e736665722063616c6c6572206973206e6f74206f776e6572206e6f7220617070726f766564a2646970667358221220cdf2abb0b26137de23c457af1af68be12f3123ff29ce047f5485a1fbd26306aa64736f6c63430007060033",
  "devdoc": {
    "author": "Babylon Finance Contract that implements guestlists for Babylon Finance using an NFT",
    "kind": "dev",
    "methods": {
      "approve(address,uint256)": {
        "details": "See {IERC721-approve}."
      },
      "balanceOf(address)": {
        "details": "See {IERC721-balanceOf}."
      },
      "baseURI()": {
        "details": "Returns the base URI set via {_setBaseURI}. This will be automatically added as a prefix in {tokenURI} to each token's URI, or to the token ID if no specific URI is set for that token ID."
      },
      "canAddStrategiesInAGarden(address,address)": {
        "params": {
          "_garden": "Address of the _garden",
          "_user": "Address of the user"
        },
        "returns": {
          "_0": "_canStrategize             Whether or not the user can create strategies"
        }
      },
      "canCreate(address)": {
        "params": {
          "_user": "Address of the user"
        },
        "returns": {
          "_0": "_canCreate               Whether or not the user can create"
        }
      },
      "canJoinAGarden(address,address)": {
        "params": {
          "_garden": "Address of the _garden",
          "_user": "Address of the user"
        },
        "returns": {
          "_0": "_canJoin                   Whether or not the user can join"
        }
      },
      "canVoteInAGarden(address,address)": {
        "params": {
          "_garden": "Address of the _garden",
          "_user": "Address of the user"
        },
        "returns": {
          "_0": "_canVote                   Whether or not the user can vote"
        }
      },
      "constructor": {
        "params": {
          "_controller": "Address of controller contract",
          "_tokenURI": "URL of the Ishtar Gate JSON metadata"
        }
      },
      "getApproved(uint256)": {
        "details": "See {IERC721-getApproved}."
      },
      "grantCreatorsInBatch(address[],bool[])": {
        "params": {
          "_perms": "Lists of booleans",
          "_users": "Addresses of the users"
        }
      },
      "grantGardenAccessBatch(address,address[],uint8[])": {
        "params": {
          "_garden": "Community that the gate grants access to",
          "_perms": "List of permissions of what each user can do in the community",
          "_users": "Addresses of the users"
        }
      },
      "isApprovedForAll(address,address)": {
        "details": "See {IERC721-isApprovedForAll}."
      },
      "name()": {
        "details": "See {IERC721Metadata-name}."
      },
      "owner()": {
        "details": "Returns the address of the current owner."
      },
      "ownerOf(uint256)": {
        "details": "See {IERC721-ownerOf}."
      },
      "renounceOwnership()": {
        "details": "Leaves the contract without owner. It will not be possible to call `onlyOwner` functions anymore. Can only be called by the current owner. NOTE: Renouncing ownership will leave the contract without an owner, thereby removing any functionality that is only available to the owner."
      },
      "safeTransferFrom(address,address,uint256)": {
        "details": "See {IERC721-safeTransferFrom}."
      },
      "safeTransferFrom(address,address,uint256,bytes)": {
        "details": "See {IERC721-safeTransferFrom}."
      },
      "setApprovalForAll(address,bool)": {
        "details": "See {IERC721-setApprovalForAll}."
      },
      "setCreatorPermissions(address,bool)": {
        "params": {
          "_canCreate": "Boolean with permissions as to whether the user can create gardens",
          "_user": "Address of the user"
        }
      },
      "setGardenAccess(address,address,uint8)": {
        "params": {
          "_garden": "Community that the gate grants access to",
          "_permission": "Permissions of what user can do in the community",
          "_user": "Address of the user"
        }
      },
      "setMaxNumberOfInvites(uint256)": {
        "params": {
          "_maxNumberOfInvites": "New max number of invites per garden"
        }
      },
      "supportsInterface(bytes4)": {
        "details": "See {IERC165-supportsInterface}. Time complexity O(1), guaranteed to always use less than 30 000 gas."
      },
      "symbol()": {
        "details": "See {IERC721Metadata-symbol}."
      },
      "tokenByIndex(uint256)": {
        "details": "See {IERC721Enumerable-tokenByIndex}."
      },
      "tokenOfOwnerByIndex(address,uint256)": {
        "details": "See {IERC721Enumerable-tokenOfOwnerByIndex}."
      },
      "tokenURI(uint256)": {
        "details": "See {IERC721Metadata-tokenURI}."
      },
      "totalSupply()": {
        "details": "See {IERC721Enumerable-totalSupply}."
      },
      "transferFrom(address,address,uint256)": {
        "details": "See {IERC721-transferFrom}."
      },
      "transferOwnership(address)": {
        "details": "Transfers ownership of the contract to a new account (`newOwner`). Can only be called by the current owner."
      },
      "updateGardenURI(string)": {
        "params": {
          "_tokenURI": "Address of the tokenURI"
        }
      }
    },
    "title": "IshtarGate",
    "version": 1
  },
  "userdoc": {
    "kind": "user",
    "methods": {
      "canAddStrategiesInAGarden(address,address)": {
        "notice": "Check if a user can add strategies in a specific garden"
      },
      "canCreate(address)": {
        "notice": "Check if a user can create gardens"
      },
      "canJoinAGarden(address,address)": {
        "notice": "Check if a user can join a specific garden"
      },
      "canVoteInAGarden(address,address)": {
        "notice": "Check if a user can vote in a specific garden"
      },
      "constructor": {
        "notice": "Sets the protocol controller"
      },
      "grantCreatorsInBatch(address[],bool[])": {
        "notice": "Awards the ishtar gate to a list of users with permissions to create gardens"
      },
      "grantGardenAccessBatch(address,address[],uint8[])": {
        "notice": "Awards the ishtar gate to a list of users with permissions to a specific garden"
      },
      "setCreatorPermissions(address,bool)": {
        "notice": "Awards the ishtar gate to a user and give/remove him garden creation capabilities."
      },
      "setGardenAccess(address,address,uint8)": {
        "notice": "Awards the ishtar gate to a user and gives him access to a specific garden"
      },
      "setMaxNumberOfInvites(uint256)": {
        "notice": "Changs the number of invites we are going to give per garden"
      },
      "updateGardenURI(string)": {
        "notice": "Updates the token URI of the gate NFT"
      }
    },
    "version": 1
  },
  "storageLayout": {
    "storage": [
      {
        "astId": 1572,
        "contract": "contracts/IshtarGate.sol:IshtarGate",
        "label": "_supportedInterfaces",
        "offset": 0,
        "slot": "0",
        "type": "t_mapping(t_bytes4,t_bool)"
      },
      {
        "astId": 3081,
        "contract": "contracts/IshtarGate.sol:IshtarGate",
        "label": "_holderTokens",
        "offset": 0,
        "slot": "1",
        "type": "t_mapping(t_address,t_struct(UintSet)5497_storage)"
      },
      {
        "astId": 3083,
        "contract": "contracts/IshtarGate.sol:IshtarGate",
        "label": "_tokenOwners",
        "offset": 0,
        "slot": "2",
        "type": "t_struct(UintToAddressMap)4874_storage"
      },
      {
        "astId": 3087,
        "contract": "contracts/IshtarGate.sol:IshtarGate",
        "label": "_tokenApprovals",
        "offset": 0,
        "slot": "4",
        "type": "t_mapping(t_uint256,t_address)"
      },
      {
        "astId": 3093,
        "contract": "contracts/IshtarGate.sol:IshtarGate",
        "label": "_operatorApprovals",
        "offset": 0,
        "slot": "5",
        "type": "t_mapping(t_address,t_mapping(t_address,t_bool))"
      },
      {
        "astId": 3095,
        "contract": "contracts/IshtarGate.sol:IshtarGate",
        "label": "_name",
        "offset": 0,
        "slot": "6",
        "type": "t_string_storage"
      },
      {
        "astId": 3097,
        "contract": "contracts/IshtarGate.sol:IshtarGate",
        "label": "_symbol",
        "offset": 0,
        "slot": "7",
        "type": "t_string_storage"
      },
      {
        "astId": 3101,
        "contract": "contracts/IshtarGate.sol:IshtarGate",
        "label": "_tokenURIs",
        "offset": 0,
        "slot": "8",
        "type": "t_mapping(t_uint256,t_string_storage)"
      },
      {
        "astId": 3103,
        "contract": "contracts/IshtarGate.sol:IshtarGate",
        "label": "_baseURI",
        "offset": 0,
        "slot": "9",
        "type": "t_string_storage"
      },
      {
        "astId": 1456,
        "contract": "contracts/IshtarGate.sol:IshtarGate",
        "label": "_owner",
        "offset": 0,
        "slot": "10",
        "type": "t_address"
      },
      {
        "astId": 11463,
        "contract": "contracts/IshtarGate.sol:IshtarGate",
        "label": "controller",
        "offset": 0,
        "slot": "11",
        "type": "t_contract(IBabController)22767"
      },
      {
        "astId": 11466,
        "contract": "contracts/IshtarGate.sol:IshtarGate",
        "label": "tokenURI",
        "offset": 0,
        "slot": "12",
        "type": "t_string_storage"
      },
      {
        "astId": 11469,
        "contract": "contracts/IshtarGate.sol:IshtarGate",
        "label": "maxNumberOfInvites",
        "offset": 0,
        "slot": "13",
        "type": "t_uint256"
      },
      {
        "astId": 11475,
        "contract": "contracts/IshtarGate.sol:IshtarGate",
        "label": "permissionsByCommunity",
        "offset": 0,
        "slot": "14",
        "type": "t_mapping(t_address,t_mapping(t_address,t_uint8))"
      },
      {
        "astId": 11479,
        "contract": "contracts/IshtarGate.sol:IshtarGate",
        "label": "canCreateAGarden",
        "offset": 0,
        "slot": "15",
        "type": "t_mapping(t_address,t_bool)"
      },
      {
        "astId": 11483,
        "contract": "contracts/IshtarGate.sol:IshtarGate",
        "label": "gardenAccessCount",
        "offset": 0,
        "slot": "16",
        "type": "t_mapping(t_address,t_uint256)"
      },
      {
        "astId": 11497,
        "contract": "contracts/IshtarGate.sol:IshtarGate",
        "label": "_tokenIds",
        "offset": 0,
        "slot": "17",
        "type": "t_struct(Counter)4500_storage"
      }
    ],
    "types": {
      "t_address": {
        "encoding": "inplace",
        "label": "address",
        "numberOfBytes": "20"
      },
      "t_array(t_bytes32)dyn_storage": {
        "base": "t_bytes32",
        "encoding": "dynamic_array",
        "label": "bytes32[]",
        "numberOfBytes": "32"
      },
      "t_array(t_struct(MapEntry)4548_storage)dyn_storage": {
        "base": "t_struct(MapEntry)4548_storage",
        "encoding": "dynamic_array",
        "label": "struct EnumerableMap.MapEntry[]",
        "numberOfBytes": "32"
      },
      "t_bool": {
        "encoding": "inplace",
        "label": "bool",
        "numberOfBytes": "1"
      },
      "t_bytes32": {
        "encoding": "inplace",
        "label": "bytes32",
        "numberOfBytes": "32"
      },
      "t_bytes4": {
        "encoding": "inplace",
        "label": "bytes4",
        "numberOfBytes": "4"
      },
      "t_contract(IBabController)22767": {
        "encoding": "inplace",
        "label": "contract IBabController",
        "numberOfBytes": "20"
      },
      "t_mapping(t_address,t_bool)": {
        "encoding": "mapping",
        "key": "t_address",
        "label": "mapping(address => bool)",
        "numberOfBytes": "32",
        "value": "t_bool"
      },
      "t_mapping(t_address,t_mapping(t_address,t_bool))": {
        "encoding": "mapping",
        "key": "t_address",
        "label": "mapping(address => mapping(address => bool))",
        "numberOfBytes": "32",
        "value": "t_mapping(t_address,t_bool)"
      },
      "t_mapping(t_address,t_mapping(t_address,t_uint8))": {
        "encoding": "mapping",
        "key": "t_address",
        "label": "mapping(address => mapping(address => uint8))",
        "numberOfBytes": "32",
        "value": "t_mapping(t_address,t_uint8)"
      },
      "t_mapping(t_address,t_struct(UintSet)5497_storage)": {
        "encoding": "mapping",
        "key": "t_address",
        "label": "mapping(address => struct EnumerableSet.UintSet)",
        "numberOfBytes": "32",
        "value": "t_struct(UintSet)5497_storage"
      },
      "t_mapping(t_address,t_uint256)": {
        "encoding": "mapping",
        "key": "t_address",
        "label": "mapping(address => uint256)",
        "numberOfBytes": "32",
        "value": "t_uint256"
      },
      "t_mapping(t_address,t_uint8)": {
        "encoding": "mapping",
        "key": "t_address",
        "label": "mapping(address => uint8)",
        "numberOfBytes": "32",
        "value": "t_uint8"
      },
      "t_mapping(t_bytes32,t_uint256)": {
        "encoding": "mapping",
        "key": "t_bytes32",
        "label": "mapping(bytes32 => uint256)",
        "numberOfBytes": "32",
        "value": "t_uint256"
      },
      "t_mapping(t_bytes4,t_bool)": {
        "encoding": "mapping",
        "key": "t_bytes4",
        "label": "mapping(bytes4 => bool)",
        "numberOfBytes": "32",
        "value": "t_bool"
      },
      "t_mapping(t_uint256,t_address)": {
        "encoding": "mapping",
        "key": "t_uint256",
        "label": "mapping(uint256 => address)",
        "numberOfBytes": "32",
        "value": "t_address"
      },
      "t_mapping(t_uint256,t_string_storage)": {
        "encoding": "mapping",
        "key": "t_uint256",
        "label": "mapping(uint256 => string)",
        "numberOfBytes": "32",
        "value": "t_string_storage"
      },
      "t_string_storage": {
        "encoding": "bytes",
        "label": "string",
        "numberOfBytes": "32"
      },
      "t_struct(Counter)4500_storage": {
        "encoding": "inplace",
        "label": "struct Counters.Counter",
        "members": [
          {
            "astId": 4499,
            "contract": "contracts/IshtarGate.sol:IshtarGate",
            "label": "_value",
            "offset": 0,
            "slot": "0",
            "type": "t_uint256"
          }
        ],
        "numberOfBytes": "32"
      },
      "t_struct(Map)4556_storage": {
        "encoding": "inplace",
        "label": "struct EnumerableMap.Map",
        "members": [
          {
            "astId": 4551,
            "contract": "contracts/IshtarGate.sol:IshtarGate",
            "label": "_entries",
            "offset": 0,
            "slot": "0",
            "type": "t_array(t_struct(MapEntry)4548_storage)dyn_storage"
          },
          {
            "astId": 4555,
            "contract": "contracts/IshtarGate.sol:IshtarGate",
            "label": "_indexes",
            "offset": 0,
            "slot": "1",
            "type": "t_mapping(t_bytes32,t_uint256)"
          }
        ],
        "numberOfBytes": "64"
      },
      "t_struct(MapEntry)4548_storage": {
        "encoding": "inplace",
        "label": "struct EnumerableMap.MapEntry",
        "members": [
          {
            "astId": 4545,
            "contract": "contracts/IshtarGate.sol:IshtarGate",
            "label": "_key",
            "offset": 0,
            "slot": "0",
            "type": "t_bytes32"
          },
          {
            "astId": 4547,
            "contract": "contracts/IshtarGate.sol:IshtarGate",
            "label": "_value",
            "offset": 0,
            "slot": "1",
            "type": "t_bytes32"
          }
        ],
        "numberOfBytes": "64"
      },
      "t_struct(Set)5111_storage": {
        "encoding": "inplace",
        "label": "struct EnumerableSet.Set",
        "members": [
          {
            "astId": 5106,
            "contract": "contracts/IshtarGate.sol:IshtarGate",
            "label": "_values",
            "offset": 0,
            "slot": "0",
            "type": "t_array(t_bytes32)dyn_storage"
          },
          {
            "astId": 5110,
            "contract": "contracts/IshtarGate.sol:IshtarGate",
            "label": "_indexes",
            "offset": 0,
            "slot": "1",
            "type": "t_mapping(t_bytes32,t_uint256)"
          }
        ],
        "numberOfBytes": "64"
      },
      "t_struct(UintSet)5497_storage": {
        "encoding": "inplace",
        "label": "struct EnumerableSet.UintSet",
        "members": [
          {
            "astId": 5496,
            "contract": "contracts/IshtarGate.sol:IshtarGate",
            "label": "_inner",
            "offset": 0,
            "slot": "0",
            "type": "t_struct(Set)5111_storage"
          }
        ],
        "numberOfBytes": "64"
      },
      "t_struct(UintToAddressMap)4874_storage": {
        "encoding": "inplace",
        "label": "struct EnumerableMap.UintToAddressMap",
        "members": [
          {
            "astId": 4873,
            "contract": "contracts/IshtarGate.sol:IshtarGate",
            "label": "_inner",
            "offset": 0,
            "slot": "0",
            "type": "t_struct(Map)4556_storage"
          }
        ],
        "numberOfBytes": "64"
      },
      "t_uint256": {
        "encoding": "inplace",
        "label": "uint256",
        "numberOfBytes": "32"
      },
      "t_uint8": {
        "encoding": "inplace",
        "label": "uint8",
        "numberOfBytes": "1"
      }
    }
  }
}