{
  "address": "0x38b37a0b7e25a8D73344CeA0b9765F669b011C16",
  "abi": [
    {
      "inputs": [
        {
          "internalType": "string",
          "name": "_name",
          "type": "string"
        },
        {
          "internalType": "address",
          "name": "_controller",
          "type": "address"
        }
      ],
      "stateMutability": "nonpayable",
      "type": "constructor"
    },
    {
      "inputs": [],
      "name": "controller",
      "outputs": [
        {
          "internalType": "address",
          "name": "",
          "type": "address"
        }
      ],
      "stateMutability": "view",
      "type": "function"
    },
    {
      "inputs": [
        {
          "internalType": "address",
          "name": "_asset",
          "type": "address"
        },
        {
          "internalType": "uint256",
          "name": "_capital",
          "type": "uint256"
        },
        {
          "internalType": "uint8",
          "name": "",
          "type": "uint8"
        },
        {
          "internalType": "address",
          "name": "_data",
          "type": "address"
        },
        {
          "internalType": "contract IGarden",
          "name": "",
          "type": "address"
        },
        {
          "internalType": "address",
          "name": "_integration",
          "type": "address"
        }
      ],
      "name": "executeOperation",
      "outputs": [
        {
          "internalType": "address",
          "name": "",
          "type": "address"
        },
        {
          "internalType": "uint256",
          "name": "",
          "type": "uint256"
        },
        {
          "internalType": "uint8",
          "name": "",
          "type": "uint8"
        }
      ],
      "stateMutability": "nonpayable",
      "type": "function"
    },
    {
      "inputs": [
        {
          "internalType": "uint256",
          "name": "_percentage",
          "type": "uint256"
        },
        {
          "internalType": "address",
          "name": "_data",
          "type": "address"
        },
        {
          "internalType": "contract IGarden",
          "name": "_garden",
          "type": "address"
        },
        {
          "internalType": "address",
          "name": "_integration",
          "type": "address"
        }
      ],
      "name": "exitOperation",
      "outputs": [],
      "stateMutability": "nonpayable",
      "type": "function"
    },
    {
      "inputs": [
        {
          "internalType": "address",
          "name": "_assetToken",
          "type": "address"
        },
        {
          "internalType": "contract IGarden",
          "name": "_garden",
          "type": "address"
        },
        {
          "internalType": "address",
          "name": "_integration",
          "type": "address"
        }
      ],
      "name": "getNAV",
      "outputs": [
        {
          "internalType": "uint256",
          "name": "",
          "type": "uint256"
        }
      ],
      "stateMutability": "view",
      "type": "function"
    },
    {
      "inputs": [],
      "name": "getName",
      "outputs": [
        {
          "internalType": "string",
          "name": "",
          "type": "string"
        }
      ],
      "stateMutability": "view",
      "type": "function"
    },
    {
      "inputs": [],
      "name": "name",
      "outputs": [
        {
          "internalType": "string",
          "name": "",
          "type": "string"
        }
      ],
      "stateMutability": "view",
      "type": "function"
    },
    {
      "inputs": [
        {
          "internalType": "address",
          "name": "_data",
          "type": "address"
        },
        {
          "internalType": "contract IGarden",
          "name": "_garden",
          "type": "address"
        },
        {
          "internalType": "address",
          "name": "",
          "type": "address"
        },
        {
          "internalType": "uint256",
          "name": "",
          "type": "uint256"
        }
      ],
      "name": "validateOperation",
      "outputs": [],
      "stateMutability": "view",
      "type": "function"
    }
  ],
  "transactionHash": "0xa06e17d5d9cf43f0e57bf21fc39a74eb635df2ffcca68f84e5247fed14a77105",
  "args": [
    "lend",
    "0xD4a5b5fcB561dAF3aDF86F8477555B92FBa43b5F"
  ],
  "solcInputHash": "bd873b418320faeabd457a4fe7c7c19d",
  "bytecode": "0x60806040523480156200001157600080fd5b5060405162001c1438038062001c14833981810160405260408110156200003757600080fd5b81019080805160405193929190846401000000008211156200005857600080fd5b9083019060208201858111156200006e57600080fd5b82516401000000008111828201881017156200008957600080fd5b82525081516020918201929091019080838360005b83811015620000b85781810151838201526020016200009e565b50505050905090810190601f168015620000e65780820380516001836020036101000a031916815260200191505b50604052602001519150829050816001600160a01b03811662000150576040805162461bcd60e51b815260206004820152601a60248201527f436f6e74726f6c6c6572206d75737420626520646566696e6564000000000000604482015290519081900360640190fd5b81516200016590600190602085019062000190565b50600080546001600160a01b0319166001600160a01b0392909216919091179055506200023c915050565b828054600181600116156101000203166002900490600052602060002090601f016020900481019282620001c8576000855562000213565b82601f10620001e357805160ff191683800117855562000213565b8280016001018555821562000213579182015b8281111562000213578251825591602001919060010190620001f6565b506200022192915062000225565b5090565b5b8082111562000221576000815560010162000226565b6119c8806200024c6000396000f3fe608060405234801561001057600080fd5b506004361061007d5760003560e01c80634222326a1161005b5780634222326a1461014757806355d9750b14610191578063c8cd307514610209578063f77c4791146102455761007d565b806306fdde031461008257806317d7de7c146100ff578063419ea18a14610107575b600080fd5b61008a610269565b6040805160208082528351818301528351919283929083019185019080838360005b838110156100c45781810151838201526020016100ac565b50505050905090810190601f1680156100f15780820380516001836020036101000a031916815260200191505b509250505060405180910390f35b61008a6102f6565b6101456004803603608081101561011d57600080fd5b508035906001600160a01b03602082013581169160408101358216916060909101351661038b565b005b61017f6004803603606081101561015d57600080fd5b506001600160a01b038135811691602081013582169160409091013516610a31565b60408051918252519081900360200190f35b6101de600480360360c08110156101a757600080fd5b506001600160a01b03813581169160208101359160ff604083013516916060810135821691608082013581169160a0013516610ee9565b604080516001600160a01b039094168452602084019290925260ff1682820152519081900360600190f35b6101456004803603608081101561021f57600080fd5b506001600160a01b0381358116916020810135821691604082013516906060013561137b565b61024d611642565b604080516001600160a01b039092168252519081900360200190f35b60018054604080516020600284861615610100026000190190941693909304601f810184900484028201840190925281815292918301828280156102ee5780601f106102c3576101008083540402835291602001916102ee565b820191906000526020600020905b8154815290600101906020018083116102d157829003601f168201915b505050505081565b60018054604080516020601f600260001961010087891615020190951694909404938401819004810282018101909252828152606093909290918301828280156103815780601f1061035657610100808354040283529160200191610381565b820191906000526020600020905b81548152906001019060200180831161036457829003601f168201915b5050505050905090565b60003390506000816001600160a01b03166356ba88b86040518163ffffffff1660e01b815260040160206040518083038186803b1580156103cb57600080fd5b505afa1580156103df573d6000803e3d6000fd5b505050506040513d60208110156103f557600080fd5b5051600054604080516313bc6d4b60e01b81526001600160a01b03808516600483015291519394509116916313bc6d4b91602480820192602092909190829003018186803b15801561044657600080fd5b505afa15801561045a573d6000803e3d6000fd5b505050506040513d602081101561047057600080fd5b50516104c3576040805162461bcd60e51b815260206004820152601b60248201527f4f6e6c7920612067617264656e2063616e2063616c6c20746869730000000000604482015290519081900360640190fd5b6040805162bd5cf960e51b815233600482015290516001600160a01b038316916317ab9f20916024808301926020929190829003018186803b15801561050857600080fd5b505afa15801561051c573d6000803e3d6000fd5b505050506040513d602081101561053257600080fd5b5051610585576040805162461bcd60e51b815260206004820152601960248201527f53656e646572206d757374206265206120737472617465677900000000000000604482015290519081900360640190fd5b670de0b6b3a76400008611156105e2576040805162461bcd60e51b815260206004820152601960248201527f556e77696e642050657263656e74616765203c3d203130302500000000000000604482015290519081900360640190fd5b600085905060006106e088866001600160a01b031663eb40e600856040518263ffffffff1660e01b815260040180826001600160a01b0316815260200191505060206040518083038186803b15801561063a57600080fd5b505afa15801561064e573d6000803e3d6000fd5b505050506040513d602081101561066457600080fd5b5051604080516370a0823160e01b815233600482015290516001600160a01b03909216916370a0823191602480820192602092909190829003018186803b1580156106ae57600080fd5b505afa1580156106c2573d6000803e3d6000fd5b505050506040513d60208110156106d857600080fd5b505190611651565b90506001600160a01b03851663d0d2d3a233848461079161071261070b83662386f26fc10000611651565b8890611678565b8b6001600160a01b03166307b54c6f8a6040518263ffffffff1660e01b815260040180826001600160a01b0316815260200191505060206040518083038186803b15801561075f57600080fd5b505afa158015610773573d6000803e3d6000fd5b505050506040513d602081101561078957600080fd5b5051906116d5565b6040518563ffffffff1660e01b815260040180856001600160a01b03168152602001846001600160a01b03168152602001838152602001828152602001945050505050600060405180830381600087803b1580156107ee57600080fd5b505af1158015610802573d6000803e3d6000fd5b50505050856001600160a01b031663f85cb5c86040518163ffffffff1660e01b815260040160206040518083038186803b15801561083f57600080fd5b505afa158015610853573d6000803e3d6000fd5b505050506040513d602081101561086957600080fd5b50516001600160a01b03838116911614610a2757336001600160a01b0316630e32db5283846001600160a01b03166370a08231336040518263ffffffff1660e01b815260040180826001600160a01b0316815260200191505060206040518083038186803b1580156108da57600080fd5b505afa1580156108ee573d6000803e3d6000fd5b505050506040513d602081101561090457600080fd5b5051604080517ff85cb5c800000000000000000000000000000000000000000000000000000000815290516001600160a01b038c169163f85cb5c8916004808301926020929190829003018186803b15801561095f57600080fd5b505afa158015610973573d6000803e3d6000fd5b505050506040513d602081101561098957600080fd5b5051604080517fffffffff0000000000000000000000000000000000000000000000000000000060e087901b1681526001600160a01b039485166004820152602481019390935292166044820152905160648083019260209291908290030181600087803b1580156109fa57600080fd5b505af1158015610a0e573d6000803e3d6000fd5b505050506040513d6020811015610a2457600080fd5b50505b5050505050505050565b6000803390506000816001600160a01b03166356ba88b86040518163ffffffff1660e01b815260040160206040518083038186803b158015610a7257600080fd5b505afa158015610a86573d6000803e3d6000fd5b505050506040513d6020811015610a9c57600080fd5b5051600054604080516313bc6d4b60e01b81526001600160a01b03808516600483015291519394509116916313bc6d4b91602480820192602092909190829003018186803b158015610aed57600080fd5b505afa158015610b01573d6000803e3d6000fd5b505050506040513d6020811015610b1757600080fd5b5051610b6a576040805162461bcd60e51b815260206004820152601b60248201527f4f6e6c7920612067617264656e2063616e2063616c6c20746869730000000000604482015290519081900360640190fd5b6040805162bd5cf960e51b815233600482015290516001600160a01b038316916317ab9f20916024808301926020929190829003018186803b158015610baf57600080fd5b505afa158015610bc3573d6000803e3d6000fd5b505050506040513d6020811015610bd957600080fd5b5051610c2c576040805162461bcd60e51b815260206004820152601960248201527f53656e646572206d757374206265206120737472617465677900000000000000604482015290519081900360640190fd5b336001600160a01b031663e4df5e1a6040518163ffffffff1660e01b815260040160206040518083038186803b158015610c6557600080fd5b505afa158015610c79573d6000803e3d6000fd5b505050506040513d6020811015610c8f57600080fd5b5051610c9e5760009250610ee0565b6000846001600160a01b031663eb40e600886040518263ffffffff1660e01b815260040180826001600160a01b0316815260200191505060206040518083038186803b158015610ced57600080fd5b505afa158015610d01573d6000803e3d6000fd5b505050506040513d6020811015610d1757600080fd5b5051604080516370a0823160e01b815233600482015290516001600160a01b03909216916370a0823191602480820192602092909190829003018186803b158015610d6157600080fd5b505afa158015610d75573d6000803e3d6000fd5b505050506040513d6020811015610d8b57600080fd5b5051604080517f07b54c6f0000000000000000000000000000000000000000000000000000000081526001600160a01b038a811660048301529151929350600092610dfc928592908a16916307b54c6f91602480820192602092909190829003018186803b15801561075f57600080fd5b90506000610e6e886001600160a01b031663f85cb5c86040518163ffffffff1660e01b815260040160206040518083038186803b158015610e3c57600080fd5b505afa158015610e50573d6000803e3d6000fd5b505050506040513d6020811015610e6657600080fd5b50518a61172e565b90506000610e8682610e808c8661185a565b906118f2565b905080610eda576040805162461bcd60e51b815260206004820152601660248201527f4e41562068617320746f20626520626967676572203000000000000000000000604482015290519081900360640190fd5b95505050505b50509392505050565b6000806000803390506000816001600160a01b03166356ba88b86040518163ffffffff1660e01b815260040160206040518083038186803b158015610f2d57600080fd5b505afa158015610f41573d6000803e3d6000fd5b505050506040513d6020811015610f5757600080fd5b5051600054604080516313bc6d4b60e01b81526001600160a01b03808516600483015291519394509116916313bc6d4b91602480820192602092909190829003018186803b158015610fa857600080fd5b505afa158015610fbc573d6000803e3d6000fd5b505050506040513d6020811015610fd257600080fd5b5051611025576040805162461bcd60e51b815260206004820152601b60248201527f4f6e6c7920612067617264656e2063616e2063616c6c20746869730000000000604482015290519081900360640190fd5b6040805162bd5cf960e51b815233600482015290516001600160a01b038316916317ab9f20916024808301926020929190829003018186803b15801561106a57600080fd5b505afa15801561107e573d6000803e3d6000fd5b505050506040513d602081101561109457600080fd5b50516110e7576040805162461bcd60e51b815260206004820152601960248201527f53656e646572206d757374206265206120737472617465677900000000000000604482015290519081900360640190fd5b876001600160a01b03808216908d161461119857604080517f0e32db520000000000000000000000000000000000000000000000000000000081526001600160a01b038e81166004830152602482018e90528316604482015290513391630e32db529160648083019260209291908290030181600087803b15801561116b57600080fd5b505af115801561117f573d6000803e3d6000fd5b505050506040513d602081101561119557600080fd5b50505b6000816001600160a01b03166370a08231336040518263ffffffff1660e01b815260040180826001600160a01b0316815260200191505060206040518083038186803b1580156111e757600080fd5b505afa1580156111fb573d6000803e3d6000fd5b505050506040513d602081101561121157600080fd5b5051604080517f4deef6490000000000000000000000000000000000000000000000000000000081526001600160a01b038581166004830152602482018490529151929350600092918b1691634deef64991604480820192602092909190829003018186803b15801561128357600080fd5b505afa158015611297573d6000803e3d6000fd5b505050506040513d60208110156112ad57600080fd5b5051905060006112ce6112c783662386f26fc10000611651565b8390611678565b604080517ff14b57880000000000000000000000000000000000000000000000000000000081523360048201526001600160a01b03878116602483015260448201879052606482018490529151929350908c169163f14b57889160848082019260009290919082900301818387803b15801561134957600080fd5b505af115801561135d573d6000803e3d6000fd5b50959a50939850600197505050505050505096509650969350505050565b60003390506000816001600160a01b03166356ba88b86040518163ffffffff1660e01b815260040160206040518083038186803b1580156113bb57600080fd5b505afa1580156113cf573d6000803e3d6000fd5b505050506040513d60208110156113e557600080fd5b5051600054604080516313bc6d4b60e01b81526001600160a01b03808516600483015291519394509116916313bc6d4b91602480820192602092909190829003018186803b15801561143657600080fd5b505afa15801561144a573d6000803e3d6000fd5b505050506040513d602081101561146057600080fd5b50516114b3576040805162461bcd60e51b815260206004820152601b60248201527f4f6e6c7920612067617264656e2063616e2063616c6c20746869730000000000604482015290519081900360640190fd5b6040805162bd5cf960e51b815233600482015290516001600160a01b038316916317ab9f20916024808301926020929190829003018186803b1580156114f857600080fd5b505afa15801561150c573d6000803e3d6000fd5b505050506040513d602081101561152257600080fd5b5051611575576040805162461bcd60e51b815260206004820152601960248201527f53656e646572206d757374206265206120737472617465677900000000000000604482015290519081900360640190fd5b846001600160a01b031663f85cb5c86040518163ffffffff1660e01b815260040160206040518083038186803b1580156115ae57600080fd5b505afa1580156115c2573d6000803e3d6000fd5b505050506040513d60208110156115d857600080fd5b50516001600160a01b038781169116141561163a576040805162461bcd60e51b815260206004820152601f60248201527f5265636569766520746f6b656e206d75737420626520646966666572656e7400604482015290519081900360640190fd5b505050505050565b6000546001600160a01b031681565b600061166f670de0b6b3a764000061166985856116d5565b9061190a565b90505b92915050565b6000828211156116cf576040805162461bcd60e51b815260206004820152601e60248201527f536166654d6174683a207375627472616374696f6e206f766572666c6f770000604482015290519081900360640190fd5b50900390565b6000826116e457506000611672565b828202828482816116f157fe5b041461166f5760405162461bcd60e51b81526004018080602001828103825260218152602001806119726021913960400191505060405180910390fd5b60008054604080517f2630c12f000000000000000000000000000000000000000000000000000000008152905183926001600160a01b031691632630c12f916004808301926020929190829003018186803b15801561178c57600080fd5b505afa1580156117a0573d6000803e3d6000fd5b505050506040513d60208110156117b657600080fd5b5051604080517fac41865a0000000000000000000000000000000000000000000000000000000081526001600160a01b038781166004830152868116602483015291519293509083169163ac41865a91604480820192602092909190829003018186803b15801561182657600080fd5b505afa15801561183a573d6000803e3d6000fd5b505050506040513d602081101561185057600080fd5b5051949350505050565b600080836001600160a01b031663313ce5676040518163ffffffff1660e01b815260040160206040518083038186803b15801561189657600080fd5b505afa1580156118aa573d6000803e3d6000fd5b505050506040513d60208110156118c057600080fd5b50519050601260ff821614156118d657826118ea565b6118ea8360ff601284900316600a0a6116d5565b949350505050565b600061166f8261166985670de0b6b3a76400006116d5565b6000808211611960576040805162461bcd60e51b815260206004820152601a60248201527f536166654d6174683a206469766973696f6e206279207a65726f000000000000604482015290519081900360640190fd5b81838161196957fe5b04939250505056fe536166654d6174683a206d756c7469706c69636174696f6e206f766572666c6f77a2646970667358221220f052767b72946cb0dc05dcaef12410eb823cb81b5314ae47546aab761b0b95d264736f6c63430007060033",
  "devdoc": {
    "author": "Babylon Finance Executes a lend operation",
    "kind": "dev",
    "methods": {
      "constructor": {
        "params": {
          "_controller": "Address of the controller",
          "_name": "Name of the integration"
        }
      },
      "executeOperation(address,uint256,uint8,address,address,address)": {
        "params": {
          "_capital": "Amount of capital received from the garden"
        }
      },
      "exitOperation(uint256,address,address,address)": {
        "params": {
          "_percentage": "of capital to exit from the strategy"
        }
      },
      "getNAV(address,address,address)": {
        "returns": {
          "_0": "_nav           NAV of the strategy"
        }
      },
      "validateOperation(address,address,address,uint256)": {
        "params": {
          "_data": "Operation data"
        }
      }
    },
    "title": "LendOperatin",
    "version": 1
  },
  "userdoc": {
    "kind": "user",
    "methods": {
      "constructor": {
        "notice": "Creates the integration"
      },
      "executeOperation(address,uint256,uint8,address,address,address)": {
        "notice": "Executes the lend operation"
      },
      "exitOperation(uint256,address,address,address)": {
        "notice": "Exits the lend operation."
      },
      "getNAV(address,address,address)": {
        "notice": "Gets the NAV of the lend op in the reserve asset"
      },
      "getName()": {
        "notice": "Returns the name of the operation"
      },
      "validateOperation(address,address,address,uint256)": {
        "notice": "Sets operation data for the lend operation"
      }
    },
    "version": 1
  },
  "storageLayout": {
    "storage": [
      {
        "astId": 33052,
        "contract": "contracts/strategies/operations/LendOperation.sol:LendOperation",
        "label": "controller",
        "offset": 0,
        "slot": "0",
        "type": "t_address"
      },
      {
        "astId": 33054,
        "contract": "contracts/strategies/operations/LendOperation.sol:LendOperation",
        "label": "name",
        "offset": 0,
        "slot": "1",
        "type": "t_string_storage"
      }
    ],
    "types": {
      "t_address": {
        "encoding": "inplace",
        "label": "address",
        "numberOfBytes": "20"
      },
      "t_string_storage": {
        "encoding": "bytes",
        "label": "string",
        "numberOfBytes": "32"
      }
    }
  }
}