{
  "address": "0x6504227A2f6c44E951289179DE769B8C9898C075",
  "abi": [
    {
      "inputs": [
        {
          "internalType": "contract IBabController",
          "name": "_controller",
          "type": "address"
        },
        {
          "internalType": "contract IIshtarGate",
          "name": "_ishtarGate",
          "type": "address"
        }
      ],
      "stateMutability": "nonpayable",
      "type": "constructor"
    },
    {
      "anonymous": false,
      "inputs": [
        {
          "indexed": true,
          "internalType": "address",
          "name": "_member",
          "type": "address"
        },
        {
          "indexed": true,
          "internalType": "address",
          "name": "_garden",
          "type": "address"
        },
        {
          "indexed": false,
          "internalType": "uint8",
          "name": "_permission",
          "type": "uint8"
        }
      ],
      "name": "GardenAccess",
      "type": "event"
    },
    {
      "anonymous": false,
      "inputs": [
        {
          "indexed": true,
          "internalType": "address",
          "name": "_member",
          "type": "address"
        },
        {
          "indexed": false,
          "internalType": "bool",
          "name": "_creation",
          "type": "bool"
        }
      ],
      "name": "GardenCreationPower",
      "type": "event"
    },
    {
      "anonymous": false,
      "inputs": [
        {
          "indexed": true,
          "internalType": "address",
          "name": "previousOwner",
          "type": "address"
        },
        {
          "indexed": true,
          "internalType": "address",
          "name": "newOwner",
          "type": "address"
        }
      ],
      "name": "OwnershipTransferred",
      "type": "event"
    },
    {
      "inputs": [],
      "name": "JUST_LP",
      "outputs": [
        {
          "internalType": "uint8",
          "name": "",
          "type": "uint8"
        }
      ],
      "stateMutability": "view",
      "type": "function"
    },
    {
      "inputs": [],
      "name": "NONE",
      "outputs": [
        {
          "internalType": "uint8",
          "name": "",
          "type": "uint8"
        }
      ],
      "stateMutability": "view",
      "type": "function"
    },
    {
      "inputs": [],
      "name": "STEWARD",
      "outputs": [
        {
          "internalType": "uint8",
          "name": "",
          "type": "uint8"
        }
      ],
      "stateMutability": "view",
      "type": "function"
    },
    {
      "inputs": [],
      "name": "STRATEGIST",
      "outputs": [
        {
          "internalType": "uint8",
          "name": "",
          "type": "uint8"
        }
      ],
      "stateMutability": "view",
      "type": "function"
    },
    {
      "inputs": [
        {
          "internalType": "address",
          "name": "",
          "type": "address"
        }
      ],
      "name": "betaAccess",
      "outputs": [
        {
          "internalType": "bool",
          "name": "",
          "type": "bool"
        }
      ],
      "stateMutability": "view",
      "type": "function"
    },
    {
      "inputs": [
        {
          "internalType": "address",
          "name": "_user",
          "type": "address"
        }
      ],
      "name": "canAccessBeta",
      "outputs": [
        {
          "internalType": "bool",
          "name": "",
          "type": "bool"
        }
      ],
      "stateMutability": "view",
      "type": "function"
    },
    {
      "inputs": [
        {
          "internalType": "address",
          "name": "_garden",
          "type": "address"
        },
        {
          "internalType": "address",
          "name": "_user",
          "type": "address"
        }
      ],
      "name": "canAddStrategiesInAGarden",
      "outputs": [
        {
          "internalType": "bool",
          "name": "",
          "type": "bool"
        }
      ],
      "stateMutability": "view",
      "type": "function"
    },
    {
      "inputs": [
        {
          "internalType": "address",
          "name": "_user",
          "type": "address"
        }
      ],
      "name": "canCreate",
      "outputs": [
        {
          "internalType": "bool",
          "name": "",
          "type": "bool"
        }
      ],
      "stateMutability": "view",
      "type": "function"
    },
    {
      "inputs": [
        {
          "internalType": "address",
          "name": "",
          "type": "address"
        }
      ],
      "name": "canCreateAGarden",
      "outputs": [
        {
          "internalType": "bool",
          "name": "",
          "type": "bool"
        }
      ],
      "stateMutability": "view",
      "type": "function"
    },
    {
      "inputs": [
        {
          "internalType": "address",
          "name": "_garden",
          "type": "address"
        },
        {
          "internalType": "address",
          "name": "_user",
          "type": "address"
        }
      ],
      "name": "canJoinAGarden",
      "outputs": [
        {
          "internalType": "bool",
          "name": "",
          "type": "bool"
        }
      ],
      "stateMutability": "view",
      "type": "function"
    },
    {
      "inputs": [
        {
          "internalType": "address",
          "name": "_garden",
          "type": "address"
        },
        {
          "internalType": "address",
          "name": "_user",
          "type": "address"
        }
      ],
      "name": "canVoteInAGarden",
      "outputs": [
        {
          "internalType": "bool",
          "name": "",
          "type": "bool"
        }
      ],
      "stateMutability": "view",
      "type": "function"
    },
    {
      "inputs": [],
      "name": "controller",
      "outputs": [
        {
          "internalType": "contract IBabController",
          "name": "",
          "type": "address"
        }
      ],
      "stateMutability": "view",
      "type": "function"
    },
    {
      "inputs": [
        {
          "internalType": "address",
          "name": "",
          "type": "address"
        }
      ],
      "name": "gardenAccessCount",
      "outputs": [
        {
          "internalType": "uint256",
          "name": "",
          "type": "uint256"
        }
      ],
      "stateMutability": "view",
      "type": "function"
    },
    {
      "inputs": [
        {
          "internalType": "address",
          "name": "_garden",
          "type": "address"
        }
      ],
      "name": "getInvitesPerGarden",
      "outputs": [
        {
          "internalType": "address[]",
          "name": "",
          "type": "address[]"
        }
      ],
      "stateMutability": "view",
      "type": "function"
    },
    {
      "inputs": [
        {
          "internalType": "address[]",
          "name": "_users",
          "type": "address[]"
        },
        {
          "internalType": "bool[]",
          "name": "_perms",
          "type": "bool[]"
        }
      ],
      "name": "grantCreatorsInBatch",
      "outputs": [
        {
          "internalType": "bool",
          "name": "",
          "type": "bool"
        }
      ],
      "stateMutability": "nonpayable",
      "type": "function"
    },
    {
      "inputs": [
        {
          "internalType": "address",
          "name": "_garden",
          "type": "address"
        },
        {
          "internalType": "address[]",
          "name": "_users",
          "type": "address[]"
        },
        {
          "internalType": "uint8[]",
          "name": "_perms",
          "type": "uint8[]"
        }
      ],
      "name": "grantGardenAccessBatch",
      "outputs": [
        {
          "internalType": "bool",
          "name": "",
          "type": "bool"
        }
      ],
      "stateMutability": "nonpayable",
      "type": "function"
    },
    {
      "inputs": [
        {
          "internalType": "address",
          "name": "",
          "type": "address"
        },
        {
          "internalType": "uint256",
          "name": "",
          "type": "uint256"
        }
      ],
      "name": "invitesPerGarden",
      "outputs": [
        {
          "internalType": "address",
          "name": "",
          "type": "address"
        }
      ],
      "stateMutability": "view",
      "type": "function"
    },
    {
      "inputs": [
        {
          "internalType": "address",
          "name": "",
          "type": "address"
        },
        {
          "internalType": "address",
          "name": "",
          "type": "address"
        }
      ],
      "name": "isOverriden",
      "outputs": [
        {
          "internalType": "bool",
          "name": "",
          "type": "bool"
        }
      ],
      "stateMutability": "view",
      "type": "function"
    },
    {
      "inputs": [],
      "name": "maxNumberOfInvites",
      "outputs": [
        {
          "internalType": "uint256",
          "name": "",
          "type": "uint256"
        }
      ],
      "stateMutability": "view",
      "type": "function"
    },
    {
      "inputs": [],
      "name": "owner",
      "outputs": [
        {
          "internalType": "address",
          "name": "",
          "type": "address"
        }
      ],
      "stateMutability": "view",
      "type": "function"
    },
    {
      "inputs": [
        {
          "internalType": "address",
          "name": "",
          "type": "address"
        },
        {
          "internalType": "address",
          "name": "",
          "type": "address"
        }
      ],
      "name": "permissionsByCommunity",
      "outputs": [
        {
          "internalType": "uint8",
          "name": "",
          "type": "uint8"
        }
      ],
      "stateMutability": "view",
      "type": "function"
    },
    {
      "inputs": [],
      "name": "renounceOwnership",
      "outputs": [],
      "stateMutability": "nonpayable",
      "type": "function"
    },
    {
      "inputs": [
        {
          "internalType": "address",
          "name": "_user",
          "type": "address"
        },
        {
          "internalType": "bool",
          "name": "_canCreate",
          "type": "bool"
        }
      ],
      "name": "setCreatorPermissions",
      "outputs": [
        {
          "internalType": "uint256",
          "name": "",
          "type": "uint256"
        }
      ],
      "stateMutability": "nonpayable",
      "type": "function"
    },
    {
      "inputs": [
        {
          "internalType": "address",
          "name": "_user",
          "type": "address"
        },
        {
          "internalType": "address",
          "name": "_garden",
          "type": "address"
        },
        {
          "internalType": "uint8",
          "name": "_permission",
          "type": "uint8"
        }
      ],
      "name": "setGardenAccess",
      "outputs": [
        {
          "internalType": "uint256",
          "name": "",
          "type": "uint256"
        }
      ],
      "stateMutability": "nonpayable",
      "type": "function"
    },
    {
      "inputs": [
        {
          "internalType": "uint256",
          "name": "_maxNumberOfInvites",
          "type": "uint256"
        }
      ],
      "name": "setMaxNumberOfInvites",
      "outputs": [],
      "stateMutability": "nonpayable",
      "type": "function"
    },
    {
      "inputs": [
        {
          "internalType": "address",
          "name": "newOwner",
          "type": "address"
        }
      ],
      "name": "transferOwnership",
      "outputs": [],
      "stateMutability": "nonpayable",
      "type": "function"
    }
  ],
  "transactionHash": "0xaad421d109761a3929e4a4aa7038f492d59865534adaa985ff108aa4603be1fb",
  "args": [
    "0xD4a5b5fcB561dAF3aDF86F8477555B92FBa43b5F",
    "0x77D200ECa7Fd0a3DB27E96D7b24cF7613b0a2a12"
  ],
  "solcInputHash": "3bda2208bb10a8182585256f7af2f505",
  "bytecode": "0x60806040523480156200001157600080fd5b5060405162001fbb38038062001fbb833981810160405260408110156200003757600080fd5b50805160209091015160006200004c62000283565b600080546001600160a01b0319166001600160a01b0383169081178255604051929350917f8be0079c531659141344cd1fd0a4f28419497f9722a3daafe3b4186f6b6457e0908290a3506001600160a01b038216620000f2576040805162461bcd60e51b815260206004820152601560248201527f436f6e74726f6c6c6572206d7573742065786973740000000000000000000000604482015290519081900360640190fd5b6001600160a01b0381166200014e576040805162461bcd60e51b815260206004820152601660248201527f4973687461722047617465206d75737420657869737400000000000000000000604482015290519081900360640190fd5b600180546001600160a01b038085166001600160a01b03199283161790925560028054848416921691909117908190556040805163b07b7e7f60e01b81529051600093929092169163b07b7e7f91600480820192602092909190829003018186803b158015620001bd57600080fd5b505afa158015620001d2573d6000803e3d6000fd5b505050506040513d6020811015620001e957600080fd5b505111620001f957606462000277565b600260009054906101000a90046001600160a01b03166001600160a01b031663b07b7e7f6040518163ffffffff1660e01b815260040160206040518083038186803b1580156200024857600080fd5b505afa1580156200025d573d6000803e3d6000fd5b505050506040513d60208110156200027457600080fd5b50515b60035550620002879050565b3390565b611d2480620002976000396000f3fe608060405234801561001057600080fd5b50600436106101ae5760003560e01c80637804a5dc116100ee578063b07b7e7f11610097578063e9c6fe3111610071578063e9c6fe3114610650578063f118155c1461067e578063f2fde38b146106a4578063f77c4791146106ca576101ae565b8063b07b7e7f14610558578063c7ec5d5d14610560578063d16106521461058e576101ae565b806383525394116100c857806383525394146105405780638da5cb5b146105485780639cfdede314610550576101ae565b80637804a5dc146104765780637909745a1461049c57806382e8942314610512576101ae565b806343ee7eb91161015b5780636326847b116101355780636326847b146103e757806365f641181461041557806370793b4b14610434578063715018a61461046e576101ae565b806343ee7eb9146103435780634d98fbf01461038b5780635066c714146103b9576101ae565b80632561e6b21161018c5780632561e6b21461023157806327844ee21461030357806331eff3831461030b576101ae565b8063187af87d146101b35780631b8f1190146101ed57806320382f8e1461020b575b600080fd5b6101d9600480360360208110156101c957600080fd5b50356001600160a01b03166106d2565b604080519115158252519081900360200190f35b6101f56106e7565b6040805160ff9092168252519081900360200190f35b6101d96004803603602081101561022157600080fd5b50356001600160a01b03166106ec565b6101d96004803603606081101561024757600080fd5b6001600160a01b03823516919081019060408101602082013564010000000081111561027257600080fd5b82018360208201111561028457600080fd5b803590602001918460208302840111640100000000831117156102a657600080fd5b9193909290916020810190356401000000008111156102c457600080fd5b8201836020820111156102d657600080fd5b803590602001918460208302840111640100000000831117156102f857600080fd5b5090925090506107aa565b6101f5610b56565b6103316004803603602081101561032157600080fd5b50356001600160a01b0316610b5b565b60408051918252519081900360200190f35b61036f6004803603604081101561035957600080fd5b506001600160a01b038135169060200135610b6d565b604080516001600160a01b039092168252519081900360200190f35b6101d9600480360360408110156103a157600080fd5b506001600160a01b0381358116916020013516610ba5565b6101d9600480360360408110156103cf57600080fd5b506001600160a01b0381358116916020013516610cc2565b6101d9600480360360408110156103fd57600080fd5b506001600160a01b0381358116916020013516610dac565b6104326004803603602081101561042b57600080fd5b5035610dcc565b005b6103316004803603606081101561044a57600080fd5b5080356001600160a01b03908116916020810135909116906040013560ff16610e9b565b610432610f55565b6101d96004803603602081101561048c57600080fd5b50356001600160a01b0316611020565b6104c2600480360360208110156104b257600080fd5b50356001600160a01b03166110db565b60408051602080825283518183015283519192839290830191858101910280838360005b838110156104fe5781810151838201526020016104e6565b505050509050019250505060405180910390f35b6103316004803603604081101561052857600080fd5b506001600160a01b0381351690602001351515611151565b6101f56111d8565b61036f6111dd565b6101f56111ec565b6103316111f1565b6101d96004803603604081101561057657600080fd5b506001600160a01b03813581169160200135166111f7565b6101d9600480360360408110156105a457600080fd5b8101906020810181356401000000008111156105bf57600080fd5b8201836020820111156105d157600080fd5b803590602001918460208302840111640100000000831117156105f357600080fd5b91939092909160208101903564010000000081111561061157600080fd5b82018360208201111561062357600080fd5b8035906020019184602083028401116401000000008311171561064557600080fd5b5090925090506112e1565b6101f56004803603604081101561066657600080fd5b506001600160a01b038135811691602001351661140d565b6101d96004803603602081101561069457600080fd5b50356001600160a01b031661142d565b610432600480360360208110156106ba57600080fd5b50356001600160a01b0316611442565b61036f611563565b60066020526000908152604090205460ff1681565b600281565b600254604080517f70a082310000000000000000000000000000000000000000000000000000000081526001600160a01b0384811660048301529151600093849316916370a08231916024808301926020929190829003018186803b15801561075457600080fd5b505afa158015610768573d6000803e3d6000fd5b505050506040513d602081101561077e57600080fd5b505111806107a457506001600160a01b03821660009081526007602052604090205460ff165b92915050565b6000856001600160a01b038116610808576040805162461bcd60e51b815260206004820152601160248201527f47617264656e206d757374206578697374000000000000000000000000000000604482015290519081900360640190fd5b600154604080517ff77c4791000000000000000000000000000000000000000000000000000000008152905183926001600160a01b03908116929084169163f77c479191600480820192602092909190829003018186803b15801561086c57600080fd5b505afa158015610880573d6000803e3d6000fd5b505050506040513d602081101561089657600080fd5b50516001600160a01b0316146108f3576040805162461bcd60e51b815260206004820152601560248201527f436f6e74726f6c6c6572206d757374206d617463680000000000000000000000604482015290519081900360640190fd5b6108fd8233611572565b6109385760405162461bcd60e51b8152600401808060200182810382526026815260200180611c496026913960400191505060405180910390fd5b600154604080517f364d11810000000000000000000000000000000000000000000000000000000081526001600160a01b0385811660048301529151919092169163364d1181916024808301926020929190829003018186803b15801561099e57600080fd5b505afa1580156109b2573d6000803e3d6000fd5b505050506040513d60208110156109c857600080fd5b50516109d357600080fd5b6003546001600160a01b0383166000908152600860205260409020541115610a2c5760405162461bcd60e51b8152600401808060200182810382526032815260200180611c6f6032913960400191505060405180910390fd5b858414610a80576040805162461bcd60e51b815260206004820181905260248201527f5065726d697373696f6e7320616e64207573657273206d757374206d61746368604482015290519081900360640190fd5b60005b60ff8116871115610b47576000888860ff8416818110610a9f57fe5b905060200201356001600160a01b03166001600160a01b03161415610afd576040805162461bcd60e51b815260206004820152600f60248201526e155cd95c881b5d5cdd08195e1a5cdd608a1b604482015290519081900360640190fd5b610b3e88888360ff16818110610b0f57fe5b905060200201356001600160a01b03168a88888560ff16818110610b2f57fe5b9050602002013560ff16611831565b50600101610a83565b50600198975050505050505050565b600181565b60086020526000908152604090205481565b60096020528160005260406000208181548110610b8957600080fd5b6000918252602090912001546001600160a01b03169150829050565b6000610bb18383611572565b15610bbe575060016107a4565b6001600160a01b0380841660009081526005602090815260408083209386168352929052205460ff1615610c2157506001600160a01b03828116600090815260046020908152604080832093851683529290522054600260ff90911610156107a4565b600254604080517f4d98fbf00000000000000000000000000000000000000000000000000000000081526001600160a01b038681166004830152858116602483015291519190921691634d98fbf0916044808301926020929190829003018186803b158015610c8f57600080fd5b505afa158015610ca3573d6000803e3d6000fd5b505050506040513d6020811015610cb957600080fd5b50519392505050565b6000610cce8383611572565b15610cdb575060016107a4565b6001600160a01b0380841660009081526005602090815260408083209386168352929052205460ff1615610d3e57506001600160a01b03828116600090815260046020908152604080832093851683529290522054600360ff90911610156107a4565b600254604080517f5066c7140000000000000000000000000000000000000000000000000000000081526001600160a01b038681166004830152858116602483015291519190921691635066c714916044808301926020929190829003018186803b158015610c8f57600080fd5b600560209081526000928352604080842090915290825290205460ff1681565b610dd4611ad9565b6001600160a01b0316610de56111dd565b6001600160a01b031614610e40576040805162461bcd60e51b815260206004820181905260248201527f4f776e61626c653a2063616c6c6572206973206e6f7420746865206f776e6572604482015290519081900360640190fd5b6003548111610e96576040805162461bcd60e51b815260206004820152601660248201527f496e7669746573206d7573742062652068696768657200000000000000000000604482015290519081900360640190fd5b600355565b6000610ea78333611572565b80610eba5750336001600160a01b038416145b610ef55760405162461bcd60e51b8152600401808060200182810382526028815260200180611cc76028913960400191505060405180910390fd5b6001600160a01b038416610f42576040805162461bcd60e51b815260206004820152600f60248201526e155cd95c881b5d5cdd08195e1a5cdd608a1b604482015290519081900360640190fd5b610f4d848484611831565b949350505050565b610f5d611ad9565b6001600160a01b0316610f6e6111dd565b6001600160a01b031614610fc9576040805162461bcd60e51b815260206004820181905260248201527f4f776e61626c653a2063616c6c6572206973206e6f7420746865206f776e6572604482015290519081900360640190fd5b600080546040516001600160a01b03909116907f8be0079c531659141344cd1fd0a4f28419497f9722a3daafe3b4186f6b6457e0908390a36000805473ffffffffffffffffffffffffffffffffffffffff19169055565b600254604080517f7804a5dc0000000000000000000000000000000000000000000000000000000081526001600160a01b03848116600483015291516000939290921691637804a5dc91602480820192602092909190829003018186803b15801561108a57600080fd5b505afa15801561109e573d6000803e3d6000fd5b505050506040513d60208110156110b457600080fd5b5051806107a45750506001600160a01b031660009081526006602052604090205460ff1690565b6001600160a01b03811660009081526009602090815260409182902080548351818402810184019094528084526060939283018282801561114557602002820191906000526020600020905b81546001600160a01b03168152600190910190602001808311611127575b50505050509050919050565b600061115b611ad9565b6001600160a01b031661116c6111dd565b6001600160a01b0316146111c7576040805162461bcd60e51b815260206004820181905260248201527f4f776e61626c653a2063616c6c6572206973206e6f7420746865206f776e6572604482015290519081900360640190fd5b6111d18383611add565b9392505050565b600081565b6000546001600160a01b031690565b600381565b60035481565b60006112038383611572565b15611210575060016107a4565b6001600160a01b0380841660009081526005602090815260408083209386168352929052205460ff161561127357506001600160a01b03828116600090815260046020908152604080832093851683529290522054600160ff90911610156107a4565b600254604080517fc7ec5d5d0000000000000000000000000000000000000000000000000000000081526001600160a01b03868116600483015285811660248301529151919092169163c7ec5d5d916044808301926020929190829003018186803b158015610c8f57600080fd5b60006112eb611ad9565b6001600160a01b03166112fc6111dd565b6001600160a01b031614611357576040805162461bcd60e51b815260206004820181905260248201527f4f776e61626c653a2063616c6c6572206973206e6f7420746865206f776e6572604482015290519081900360640190fd5b8382146113ab576040805162461bcd60e51b815260206004820181905260248201527f5065726d697373696f6e7320616e64207573657273206d757374206d61746368604482015290519081900360640190fd5b60005b60ff8116851115611401576113f886868360ff168181106113cb57fe5b905060200201356001600160a01b031685858460ff168181106113ea57fe5b905060200201351515611add565b506001016113ae565b50600195945050505050565b600460209081526000928352604080842090915290825290205460ff1681565b60076020526000908152604090205460ff1681565b61144a611ad9565b6001600160a01b031661145b6111dd565b6001600160a01b0316146114b6576040805162461bcd60e51b815260206004820181905260248201527f4f776e61626c653a2063616c6c6572206973206e6f7420746865206f776e6572604482015290519081900360640190fd5b6001600160a01b0381166114fb5760405162461bcd60e51b8152600401808060200182810382526026815260200180611ca16026913960400191505060405180910390fd5b600080546040516001600160a01b03808516939216917f8be0079c531659141344cd1fd0a4f28419497f9722a3daafe3b4186f6b6457e091a36000805473ffffffffffffffffffffffffffffffffffffffff19166001600160a01b0392909216919091179055565b6001546001600160a01b031681565b60006001600160a01b038216158015906111d15750816001600160a01b0316836001600160a01b03166363f568b960006040518263ffffffff1660e01b81526004018082815260200191505060206040518083038186803b1580156115d657600080fd5b505afa1580156115ea573d6000803e3d6000fd5b505050506040513d602081101561160057600080fd5b50516001600160a01b031614806116985750816001600160a01b0316836001600160a01b03166363f568b960016040518263ffffffff1660e01b81526004018082815260200191505060206040518083038186803b15801561166157600080fd5b505afa158015611675573d6000803e3d6000fd5b505050506040513d602081101561168b57600080fd5b50516001600160a01b0316145b806117245750816001600160a01b0316836001600160a01b03166363f568b960026040518263ffffffff1660e01b81526004018082815260200191505060206040518083038186803b1580156116ed57600080fd5b505afa158015611701573d6000803e3d6000fd5b505050506040513d602081101561171757600080fd5b50516001600160a01b0316145b806117b05750816001600160a01b0316836001600160a01b03166363f568b960036040518263ffffffff1660e01b81526004018082815260200191505060206040518083038186803b15801561177957600080fd5b505afa15801561178d573d6000803e3d6000fd5b505050506040513d60208110156117a357600080fd5b50516001600160a01b0316145b806111d15750826001600160a01b03166302d05d3f6040518163ffffffff1660e01b815260040160206040518083038186803b1580156117ef57600080fd5b505afa158015611803573d6000803e3d6000fd5b505050506040513d602081101561181957600080fd5b50516001600160a01b03838116911614905092915050565b600060038260ff16111561188c576040805162461bcd60e51b815260206004820152601860248201527f5065726d697373696f6e206f7574206f6620626f756e64730000000000000000604482015290519081900360640190fd5b60008260ff161180156118c557506001600160a01b0380841660009081526004602090815260408083209388168352929052205460ff16155b156119b7576003546001600160a01b03841660009081526008602052604090205410611938576040805162461bcd60e51b815260206004820152601d60248201527f4d6178204e756d626572206f6620696e76697465732072656163686564000000604482015290519081900360640190fd5b6001600160a01b03831660009081526008602052604090205461195c906001611b91565b6001600160a01b03848116600090815260086020908152604080832094909455600981529281208054600181018255908252929020909101805473ffffffffffffffffffffffffffffffffffffffff19169186169190911790555b60ff82161580156119ef57506001600160a01b0380841660009081526004602090815260408083209388168352929052205460ff1615155b15611a32576001600160a01b038316600090815260086020526040902054611a18906001611beb565b6001600160a01b0384166000908152600860205260409020555b6001600160a01b038084166000818152600460209081526040808320948916808452948252808320805460ff891660ff199182168117909255858552600584528285208786528452828520805482166001908117909155600785529483902080549091169094179093558051928352519293927f23076a0bfdc16713e0e8cf883ead008da91a55a6fc673e9c7f58745781d05e4a9281900390910190a35060009392505050565b3390565b60006001600160a01b038316611b2c576040805162461bcd60e51b815260206004820152600f60248201526e155cd95c881b5d5cdd08195e1a5cdd608a1b604482015290519081900360640190fd5b6001600160a01b038316600081815260066020908152604091829020805460ff1916861515908117909155825190815291517fe0171d0fab3d6d56e1e7e4e35ae2c54571d00c5a4887a095e895e44901faea529281900390910190a250600092915050565b6000828201838110156111d1576040805162461bcd60e51b815260206004820152601b60248201527f536166654d6174683a206164646974696f6e206f766572666c6f770000000000604482015290519081900360640190fd5b600082821115611c42576040805162461bcd60e51b815260206004820152601e60248201527f536166654d6174683a207375627472616374696f6e206f766572666c6f770000604482015290519081900360640190fd5b5090039056fe4f6e6c792063726561746f722063616e20676976652061636365737320746f2067617264656e546865206e756d626572206f6620636f6e7472696275746f7273206d7573742062652062656c6f7720746865206c696d69744f776e61626c653a206e6577206f776e657220697320746865207a65726f20616464726573734f6e6c792063726561746f72206f722067617264656e2063616e206368616e676520706172616d73a2646970667358221220972ee54b48e67a92174275b56bba02e760aacb01292432b857247f547fd40fc264736f6c63430007060033",
  "devdoc": {
    "author": "Babylon Finance Contract that implements guestlists without NFT and checks Ishtar Gate when needed",
    "kind": "dev",
    "methods": {
      "canAccessBeta(address)": {
        "params": {
          "_user": "Address of the user"
        },
        "returns": {
          "_0": "bool               Whether or not the user can access the beta"
        }
      },
      "canAddStrategiesInAGarden(address,address)": {
        "params": {
          "_garden": "Address of the _garden",
          "_user": "Address of the user"
        },
        "returns": {
          "_0": "_canStrategize             Whether or not the user can create strategies"
        }
      },
      "canCreate(address)": {
        "params": {
          "_user": "Address of the user"
        },
        "returns": {
          "_0": "_canCreate               Whether or not the user can create"
        }
      },
      "canJoinAGarden(address,address)": {
        "params": {
          "_garden": "Address of the _garden",
          "_user": "Address of the user"
        },
        "returns": {
          "_0": "_canJoin                   Whether or not the user can join"
        }
      },
      "canVoteInAGarden(address,address)": {
        "params": {
          "_garden": "Address of the _garden",
          "_user": "Address of the user"
        },
        "returns": {
          "_0": "_canVote                   Whether or not the user can vote"
        }
      },
      "constructor": {
        "params": {
          "_controller": "Address of controller contract",
          "_ishtarGate": "Address of the ishtar gate"
        }
      },
      "getInvitesPerGarden(address)": {
        "params": {
          "_garden": "Address of the _garden"
        },
        "returns": {
          "_0": "address[]                  All the invites sent"
        }
      },
      "grantCreatorsInBatch(address[],bool[])": {
        "params": {
          "_perms": "Lists of booleans",
          "_users": "Addresses of the users"
        }
      },
      "grantGardenAccessBatch(address,address[],uint8[])": {
        "params": {
          "_garden": "Community that the gate grants access to",
          "_perms": "List of permissions of what each user can do in the community",
          "_users": "Addresses of the users"
        }
      },
      "owner()": {
        "details": "Returns the address of the current owner."
      },
      "renounceOwnership()": {
        "details": "Leaves the contract without owner. It will not be possible to call `onlyOwner` functions anymore. Can only be called by the current owner. NOTE: Renouncing ownership will leave the contract without an owner, thereby removing any functionality that is only available to the owner."
      },
      "setCreatorPermissions(address,bool)": {
        "params": {
          "_canCreate": "Boolean with permissions as to whether the user can create gardens",
          "_user": "Address of the user"
        }
      },
      "setGardenAccess(address,address,uint8)": {
        "params": {
          "_garden": "Community that the gate grants access to",
          "_permission": "Permissions of what user can do in the community",
          "_user": "Address of the user"
        }
      },
      "setMaxNumberOfInvites(uint256)": {
        "params": {
          "_maxNumberOfInvites": "New max number of invites per garden"
        }
      },
      "transferOwnership(address)": {
        "details": "Transfers ownership of the contract to a new account (`newOwner`). Can only be called by the current owner."
      }
    },
    "title": "MardukGate",
    "version": 1
  },
  "userdoc": {
    "kind": "user",
    "methods": {
      "canAccessBeta(address)": {
        "notice": "Check if a user can access the beta"
      },
      "canAddStrategiesInAGarden(address,address)": {
        "notice": "Check if a user can add strategies in a specific garden"
      },
      "canCreate(address)": {
        "notice": "Check if a user can create gardens"
      },
      "canJoinAGarden(address,address)": {
        "notice": "Check if a user can join a specific garden"
      },
      "canVoteInAGarden(address,address)": {
        "notice": "Check if a user can vote in a specific garden"
      },
      "constructor": {
        "notice": "Sets the protocol controller"
      },
      "getInvitesPerGarden(address)": {
        "notice": "Returns all the invites sent from a specific garden"
      },
      "grantCreatorsInBatch(address[],bool[])": {
        "notice": "Grants a list of users with permissions to create gardens"
      },
      "grantGardenAccessBatch(address,address[],uint8[])": {
        "notice": "Uses Marduk Gate to grant a list of users with permissions to a specific garden"
      },
      "setCreatorPermissions(address,bool)": {
        "notice": "Grants an user/remove garden creation capabilities via Marduk Gate."
      },
      "setGardenAccess(address,address,uint8)": {
        "notice": "Gives user access to a specific garden via Marduk Gate"
      },
      "setMaxNumberOfInvites(uint256)": {
        "notice": "Changs the number of invites we are going to give per garden"
      }
    },
    "version": 1
  },
  "storageLayout": {
    "storage": [
      {
        "astId": 1456,
        "contract": "contracts/MardukGate.sol:MardukGate",
        "label": "_owner",
        "offset": 0,
        "slot": "0",
        "type": "t_address"
      },
      {
        "astId": 13250,
        "contract": "contracts/MardukGate.sol:MardukGate",
        "label": "controller",
        "offset": 0,
        "slot": "1",
        "type": "t_contract(IBabController)33636"
      },
      {
        "astId": 13252,
        "contract": "contracts/MardukGate.sol:MardukGate",
        "label": "ishtarGate",
        "offset": 0,
        "slot": "2",
        "type": "t_contract(IIshtarGate)34249"
      },
      {
        "astId": 13255,
        "contract": "contracts/MardukGate.sol:MardukGate",
        "label": "maxNumberOfInvites",
        "offset": 0,
        "slot": "3",
        "type": "t_uint256"
      },
      {
        "astId": 13261,
        "contract": "contracts/MardukGate.sol:MardukGate",
        "label": "permissionsByCommunity",
        "offset": 0,
        "slot": "4",
        "type": "t_mapping(t_address,t_mapping(t_address,t_uint8))"
      },
      {
        "astId": 13267,
        "contract": "contracts/MardukGate.sol:MardukGate",
        "label": "isOverriden",
        "offset": 0,
        "slot": "5",
        "type": "t_mapping(t_address,t_mapping(t_address,t_bool))"
      },
      {
        "astId": 13271,
        "contract": "contracts/MardukGate.sol:MardukGate",
        "label": "canCreateAGarden",
        "offset": 0,
        "slot": "6",
        "type": "t_mapping(t_address,t_bool)"
      },
      {
        "astId": 13275,
        "contract": "contracts/MardukGate.sol:MardukGate",
        "label": "betaAccess",
        "offset": 0,
        "slot": "7",
        "type": "t_mapping(t_address,t_bool)"
      },
      {
        "astId": 13279,
        "contract": "contracts/MardukGate.sol:MardukGate",
        "label": "gardenAccessCount",
        "offset": 0,
        "slot": "8",
        "type": "t_mapping(t_address,t_uint256)"
      },
      {
        "astId": 13284,
        "contract": "contracts/MardukGate.sol:MardukGate",
        "label": "invitesPerGarden",
        "offset": 0,
        "slot": "9",
        "type": "t_mapping(t_address,t_array(t_address)dyn_storage)"
      }
    ],
    "types": {
      "t_address": {
        "encoding": "inplace",
        "label": "address",
        "numberOfBytes": "20"
      },
      "t_array(t_address)dyn_storage": {
        "base": "t_address",
        "encoding": "dynamic_array",
        "label": "address[]",
        "numberOfBytes": "32"
      },
      "t_bool": {
        "encoding": "inplace",
        "label": "bool",
        "numberOfBytes": "1"
      },
      "t_contract(IBabController)33636": {
        "encoding": "inplace",
        "label": "contract IBabController",
        "numberOfBytes": "20"
      },
      "t_contract(IIshtarGate)34249": {
        "encoding": "inplace",
        "label": "contract IIshtarGate",
        "numberOfBytes": "20"
      },
      "t_mapping(t_address,t_array(t_address)dyn_storage)": {
        "encoding": "mapping",
        "key": "t_address",
        "label": "mapping(address => address[])",
        "numberOfBytes": "32",
        "value": "t_array(t_address)dyn_storage"
      },
      "t_mapping(t_address,t_bool)": {
        "encoding": "mapping",
        "key": "t_address",
        "label": "mapping(address => bool)",
        "numberOfBytes": "32",
        "value": "t_bool"
      },
      "t_mapping(t_address,t_mapping(t_address,t_bool))": {
        "encoding": "mapping",
        "key": "t_address",
        "label": "mapping(address => mapping(address => bool))",
        "numberOfBytes": "32",
        "value": "t_mapping(t_address,t_bool)"
      },
      "t_mapping(t_address,t_mapping(t_address,t_uint8))": {
        "encoding": "mapping",
        "key": "t_address",
        "label": "mapping(address => mapping(address => uint8))",
        "numberOfBytes": "32",
        "value": "t_mapping(t_address,t_uint8)"
      },
      "t_mapping(t_address,t_uint256)": {
        "encoding": "mapping",
        "key": "t_address",
        "label": "mapping(address => uint256)",
        "numberOfBytes": "32",
        "value": "t_uint256"
      },
      "t_mapping(t_address,t_uint8)": {
        "encoding": "mapping",
        "key": "t_address",
        "label": "mapping(address => uint8)",
        "numberOfBytes": "32",
        "value": "t_uint8"
      },
      "t_uint256": {
        "encoding": "inplace",
        "label": "uint256",
        "numberOfBytes": "32"
      },
      "t_uint8": {
        "encoding": "inplace",
        "label": "uint8",
        "numberOfBytes": "1"
      }
    }
  }
}