{
  "address": "0x70e17423E1a6C26588CEAeEB9Ee8f648A2f6Dc6E",
  "abi": [
    {
      "inputs": [
        {
          "internalType": "contract IBabController",
          "name": "_controller",
          "type": "address"
        },
        {
          "internalType": "contract ITradeIntegration",
          "name": "_curve",
          "type": "address"
        },
        {
          "internalType": "contract ITradeIntegration",
          "name": "_univ3",
          "type": "address"
        },
        {
          "internalType": "contract ITradeIntegration",
          "name": "_synthetix",
          "type": "address"
        },
        {
          "internalType": "contract ITradeIntegration",
          "name": "_univ2",
          "type": "address"
        },
        {
          "internalType": "contract ITradeIntegration",
          "name": "_hearttrade",
          "type": "address"
        }
      ],
      "stateMutability": "nonpayable",
      "type": "constructor"
    },
    {
      "inputs": [],
      "name": "controller",
      "outputs": [
        {
          "internalType": "contract IBabController",
          "name": "",
          "type": "address"
        }
      ],
      "stateMutability": "view",
      "type": "function"
    },
    {
      "inputs": [],
      "name": "curve",
      "outputs": [
        {
          "internalType": "contract ITradeIntegration",
          "name": "",
          "type": "address"
        }
      ],
      "stateMutability": "view",
      "type": "function"
    },
    {
      "inputs": [],
      "name": "heartTradeIntegration",
      "outputs": [
        {
          "internalType": "contract ITradeIntegration",
          "name": "",
          "type": "address"
        }
      ],
      "stateMutability": "view",
      "type": "function"
    },
    {
      "inputs": [
        {
          "internalType": "address",
          "name": "_integration",
          "type": "address"
        }
      ],
      "name": "isTradeIntegration",
      "outputs": [
        {
          "internalType": "bool",
          "name": "",
          "type": "bool"
        }
      ],
      "stateMutability": "view",
      "type": "function"
    },
    {
      "inputs": [],
      "name": "name",
      "outputs": [
        {
          "internalType": "string",
          "name": "",
          "type": "string"
        }
      ],
      "stateMutability": "view",
      "type": "function"
    },
    {
      "inputs": [
        {
          "internalType": "contract ITradeIntegration",
          "name": "_one",
          "type": "address"
        },
        {
          "internalType": "contract ITradeIntegration",
          "name": "_two",
          "type": "address"
        },
        {
          "internalType": "address",
          "name": "_reserve",
          "type": "address"
        },
        {
          "internalType": "address",
          "name": "_strategy",
          "type": "address"
        },
        {
          "internalType": "address",
          "name": "_sendToken",
          "type": "address"
        },
        {
          "internalType": "uint256",
          "name": "_sendQuantity",
          "type": "uint256"
        },
        {
          "internalType": "address",
          "name": "_receiveToken",
          "type": "address"
        },
        {
          "internalType": "uint256",
          "name": "_minReceiveQuantity",
          "type": "uint256"
        }
      ],
      "name": "swapSwap",
      "outputs": [],
      "stateMutability": "nonpayable",
      "type": "function"
    },
    {
      "inputs": [],
      "name": "synthetix",
      "outputs": [
        {
          "internalType": "contract ITradeIntegration",
          "name": "",
          "type": "address"
        }
      ],
      "stateMutability": "view",
      "type": "function"
    },
    {
      "inputs": [
        {
          "internalType": "address",
          "name": "",
          "type": "address"
        },
        {
          "internalType": "address",
          "name": "",
          "type": "address"
        },
        {
          "internalType": "uint256",
          "name": "",
          "type": "uint256"
        },
        {
          "internalType": "address",
          "name": "",
          "type": "address"
        },
        {
          "internalType": "uint256",
          "name": "",
          "type": "uint256"
        },
        {
          "internalType": "address",
          "name": "",
          "type": "address"
        }
      ],
      "name": "trade",
      "outputs": [],
      "stateMutability": "nonpayable",
      "type": "function"
    },
    {
      "inputs": [
        {
          "internalType": "address",
          "name": "_strategy",
          "type": "address"
        },
        {
          "internalType": "address",
          "name": "_sendToken",
          "type": "address"
        },
        {
          "internalType": "uint256",
          "name": "_sendQuantity",
          "type": "uint256"
        },
        {
          "internalType": "address",
          "name": "_receiveToken",
          "type": "address"
        },
        {
          "internalType": "uint256",
          "name": "_minReceiveQuantity",
          "type": "uint256"
        }
      ],
      "name": "trade",
      "outputs": [],
      "stateMutability": "nonpayable",
      "type": "function"
    },
    {
      "inputs": [],
      "name": "univ2",
      "outputs": [
        {
          "internalType": "contract ITradeIntegration",
          "name": "",
          "type": "address"
        }
      ],
      "stateMutability": "view",
      "type": "function"
    },
    {
      "inputs": [],
      "name": "univ3",
      "outputs": [
        {
          "internalType": "contract ITradeIntegration",
          "name": "",
          "type": "address"
        }
      ],
      "stateMutability": "view",
      "type": "function"
    },
    {
      "inputs": [
        {
          "internalType": "uint256",
          "name": "_index",
          "type": "uint256"
        },
        {
          "internalType": "address",
          "name": "_newAddress",
          "type": "address"
        }
      ],
      "name": "updateTradeAddress",
      "outputs": [],
      "stateMutability": "nonpayable",
      "type": "function"
    }
  ],
  "transactionHash": "0xf7b94ca8a1ba9310195d8be2413304c00c4e3cb668d13ce59937195df683318a",
  "args": [
    "0xD4a5b5fcB561dAF3aDF86F8477555B92FBa43b5F",
    "0xfab72642DFFdb9d7eBad6A0a59715d9C1C98e9F9",
    "0xc300FB5dE5384bcA63fb6eb3EfD9DB7dFd10325C",
    "0x612F563725763bb068e533b4FABb2530A4d10b6a",
    "0xB5262476467311bBC024fb5d50328D9042eE402D",
    "0xfc19CB1453E3741966Aa500b7692E4a89950C9E8"
  ],
  "numDeployments": 2,
  "solcInputHash": "8a1ef33bb109c80c3d35285d9fd4d00c",
  "bytecode": "0x60a06040523480156200001157600080fd5b50604051620029a2380380620029a2833981810160405260c08110156200003757600080fd5b5080516020808301516040808501516060860151608087015160a090970151835180850190945260118452706d61737465725f737761707065725f763360781b95840195909552949592949093909291866001600160a01b038116620000e4576040805162461bcd60e51b815260206004820152601a60248201527f436f6e74726f6c6c6572206d75737420626520646566696e6564000000000000604482015290519081900360640190fd5b8151620000f990600090602085019062000173565b5060601b6001600160601b0319166080525060018055600480546001600160a01b03199081166001600160a01b03978816179091556003805482169587169590951790945560058054851693861693909317909255600280548416918516919091179055600680549092169216919091179055506200021f565b828054600181600116156101000203166002900490600052602060002090601f016020900481019282620001ab5760008555620001f6565b82601f10620001c657805160ff1916838001178555620001f6565b82800160010185558215620001f6579182015b82811115620001f6578251825591602001919060010190620001d9565b506200020492915062000208565b5090565b5b8082111562000204576000815560010162000209565b60805160601c61275b62000247600039806105ae52806107d75280610a94525061275b6000f3fe608060405234801561001057600080fd5b50600436106100d45760003560e01c80637165485d11610081578063f694c75c1161005b578063f694c75c1461025d578063f77c4791146102a7578063fa1ca820146102af576100d4565b80637165485d146102455780637298d36e1461024d578063759b522514610255576100d4565b806334521da7116100b257806334521da7146101b45780634435a7e01461021157806366470db11461023d576100d4565b806306fdde03146100d95780630bfd3d73146101565780632d108f411461017a575b600080fd5b6100e16102f3565b6040805160208082528351818301528351919283929083019185019080838360005b8381101561011b578181015183820152602001610103565b50505050905090810190601f1680156101485780820380516001836020036101000a031916815260200191505b509250505060405180910390f35b61015e610381565b604080516001600160a01b039092168252519081900360200190f35b6101a06004803603602081101561019057600080fd5b50356001600160a01b0316610390565b604080519115158252519081900360200190f35b61020f60048036036101008110156101cb57600080fd5b506001600160a01b038135811691602081013582169160408201358116916060810135821691608082013581169160a08101359160c0820135169060e0013561040c565b005b61020f6004803603604081101561022757600080fd5b50803590602001356001600160a01b03166105a9565b61015e6106ef565b61015e6106fe565b61015e61070d565b61015e61071c565b61020f600480360360c081101561027357600080fd5b506001600160a01b0381358116916020810135821691604082013591606081013582169160808201359160a001351661072b565b61015e6107d5565b61020f600480360360a08110156102c557600080fd5b506001600160a01b0381358116916020810135821691604082013591606081013590911690608001356107f9565b6000805460408051602060026001851615610100026000190190941693909304601f810184900484028201840190925281815292918301828280156103795780601f1061034e57610100808354040283529160200191610379565b820191906000526020600020905b81548152906001019060200180831161035c57829003601f168201915b505050505081565b6003546001600160a01b031681565b6004546000906001600160a01b03838116911614806103bc57506003546001600160a01b038381169116145b806103d457506005546001600160a01b038381169116145b806103ec57506002546001600160a01b038381169116145b8061040457506006546001600160a01b038381169116145b90505b919050565b333014610462576040805162461bcd60e51b8152602060048083019190915260248201527f4e6f706500000000000000000000000000000000000000000000000000000000604482015290519081900360640190fd5b600061046e868861086e565b604080516307d0e54160e51b81526001600160a01b0389811660048301528881166024830152604482018890528a81166064830152600160848301529151929350908b169163fa1ca8209160a48082019260009290919082900301818387803b1580156104da57600080fd5b505af11580156104ee573d6000803e3d6000fd5b50505050876001600160a01b031663fa1ca8208789610517856105118c8e61086e565b9061093a565b87876040518663ffffffff1660e01b815260040180866001600160a01b03168152602001856001600160a01b03168152602001848152602001836001600160a01b0316815260200182815260200195505050505050600060405180830381600087803b15801561058657600080fd5b505af115801561059a573d6000803e3d6000fd5b50505050505050505050505050565b6105db7f00000000000000000000000000000000000000000000000000000000000000006001600160a01b031661094a565b6001600160a01b038116610636576040805162461bcd60e51b815260206004820152601760248201527f4e657720616464726573732069206e6f742076616c6964000000000000000000604482015290519081900360640190fd5b8161065757600480546001600160a01b0319166001600160a01b0383161790555b816001141561067c57600380546001600160a01b0319166001600160a01b0383161790555b81600214156106a157600580546001600160a01b0319166001600160a01b0383161790555b81600314156106c657600280546001600160a01b0319166001600160a01b0383161790555b81600414156106eb57600680546001600160a01b0319166001600160a01b0383161790555b5050565b6006546001600160a01b031681565b6004546001600160a01b031681565b6002546001600160a01b031681565b6005546001600160a01b031681565b60026001541415610783576040805162461bcd60e51b815260206004820152601f60248201527f5265656e7472616e637947756172643a207265656e7472616e742063616c6c00604482015290519081900360640190fd5b60026001556040805162461bcd60e51b815260206004820152600760248201527f6e6f20696d706c00000000000000000000000000000000000000000000000000604482015290519081900360640190fd5b7f000000000000000000000000000000000000000000000000000000000000000081565b60026001541415610851576040805162461bcd60e51b815260206004820152601f60248201527f5265656e7472616e637947756172643a207265656e7472616e742063616c6c00604482015290519081900360640190fd5b60026001556108638585858585610a6f565b505060018055505050565b60006001600160a01b03821615806108a257506001600160a01b03821673eeeeeeeeeeeeeeeeeeeeeeeeeeeeeeeeeeeeeeee145b156108b857506001600160a01b03821631610934565b816001600160a01b03166370a08231846040518263ffffffff1660e01b815260040180826001600160a01b0316815260200191505060206040518083038186803b15801561090557600080fd5b505afa158015610919573d6000803e3d6000fd5b505050506040513d602081101561092f57600080fd5b505190505b92915050565b8082038281111561093457600080fd5b806001600160a01b0316638da5cb5b6040518163ffffffff1660e01b815260040160206040518083038186803b15801561098357600080fd5b505afa158015610997573d6000803e3d6000fd5b505050506040513d60208110156109ad57600080fd5b50516001600160a01b0316331480610a315750806001600160a01b0316638d97e0436040518163ffffffff1660e01b815260040160206040518083038186803b1580156109f957600080fd5b505afa158015610a0d573d6000803e3d6000fd5b505050506040513d6020811015610a2357600080fd5b50516001600160a01b031633145b610a6c5760405162461bcd60e51b815260040180806020018281038252602a8152602001806126fc602a913960400191505060405180910390fd5b50565b816001600160a01b0316846001600160a01b03161415610a8e576113b8565b606060007f00000000000000000000000000000000000000000000000000000000000000006001600160a01b031663b3af1743876040518263ffffffff1660e01b815260040180826001600160a01b0316815260200191505060206040518083038186803b158015610aff57600080fd5b505afa158015610b13573d6000803e3d6000fd5b505050506040513d6020811015610b2957600080fd5b505115610db357600073c02aaa39b223fe8d0a0e5c4f27ead9083c756cc26001600160a01b03166370a08231896040518263ffffffff1660e01b815260040180826001600160a01b0316815260200191505060206040518083038186803b158015610b9357600080fd5b505afa158015610ba7573d6000803e3d6000fd5b505050506040513d6020811015610bbd57600080fd5b5051600654604080516307d0e54160e51b81526001600160a01b038c811660048301528b81166024830152604482018b905273c02aaa39b223fe8d0a0e5c4f27ead9083c756cc2606483015260016084830152915193945091169163fa1ca8209160a48082019260009290919082900301818387803b158015610c3f57600080fd5b505af1925050508015610c50575060015b610cd457610c5c612655565b80610c675750610cc5565b610cbd84826040518060400160405280601881526020017f486561727420547261646520496e746567726174696f6e2000000000000000008152508b73c02aaa39b223fe8d0a0e5c4f27ead9083c756cc26113bf565b935050610ccf565b3d6000803e3d6000fd5b610db1565b73c02aaa39b223fe8d0a0e5c4f27ead9083c756cc29650610d828173c02aaa39b223fe8d0a0e5c4f27ead9083c756cc26001600160a01b03166370a082318b6040518263ffffffff1660e01b815260040180826001600160a01b0316815260200191505060206040518083038186803b158015610d5057600080fd5b505afa158015610d64573d6000803e3d6000fd5b505050506040513d6020811015610d7a57600080fd5b50519061093a565b95506001600160a01b03851673c02aaa39b223fe8d0a0e5c4f27ead9083c756cc21415610db1575050506113b8565b505b610dc087878787876113da565b90925090508015610dd25750506113b8565b610ddb866119aa565b610de485611a24565b610ded846119aa565b610df683611a24565b60048054604080516307d0e54160e51b81526001600160a01b038b8116948201949094528984166024820152604481018990528784166064820152608481018790529051929091169163fa1ca8209160a48082019260009290919082900301818387803b158015610e6657600080fd5b505af1925050508015610e77575060015b610ed857610e83612655565b80610e8e5750610cc5565b610ed083826040518060400160405280600681526020017f43757276652000000000000000000000000000000000000000000000000000008152508a896113bf565b925050610edf565b50506113b8565b60035460408051633da531d760e21b81526001600160a01b038a8116600483015289811660248301526044820189905287811660648301526084820187905273c02aaa39b223fe8d0a0e5c4f27ead9083c756cc260a48301529151919092169163f694c75c9160c480830192600092919082900301818387803b158015610f6557600080fd5b505af1925050508015610f76575060015b610ed857610f82612655565b80610f8d5750610cc5565b610fcd83826040518060400160405280600681526020016502ab734ab19960d51b8152508a73c02aaa39b223fe8d0a0e5c4f27ead9083c756cc28a611a93565b925050610fde878787878787611c4f565b90925090508015610ff05750506113b8565b60408051608081018252736b175474e89094c44da98b954eedeac495271d0f815273a0b86991c6218b36c1d19d4a2e9eb0ce3606eb486020820152732260fac5e5542a773aa44fbcfedf7c193bc2c5999181019190915273dac17f958d2ee523a2206206994597c13d831ec7606082015260005b600481101561118e576003546001600160a01b031663f694c75c8a8a8a8a8a88886004811061108f57fe5b60200201516040518763ffffffff1660e01b815260040180876001600160a01b03168152602001866001600160a01b03168152602001858152602001846001600160a01b03168152602001838152602001826001600160a01b031681526020019650505050505050600060405180830381600087803b15801561111157600080fd5b505af1925050508015611122575060015b61117d5761112e612655565b806111395750610cc5565b61117585826040518060400160405280600681526020016502ab734ab19960d51b8152508c87876004811061116a57fe5b60200201518c611a93565b945050611186565b505050506113b8565b600101611064565b5060018411156112ad5760025460408051633da531d760e21b81526001600160a01b038b811660048301528a81166024830152604482018a905288811660648301526084820188905273c02aaa39b223fe8d0a0e5c4f27ead9083c756cc260a48301529151919092169163f694c75c9160c480830192600092919082900301818387803b15801561121e57600080fd5b505af192505050801561122f575060015b6112a55761123b612655565b806112465750610cc5565b61129d84826040518060400160405280600681526020017f556e6956322000000000000000000000000000000000000000000000000000008152508b73c02aaa39b223fe8d0a0e5c4f27ead9083c756cc28b611a93565b9350506112ad565b5050506113b8565b8260405160200180807f4d6173746572537761707065723a000000000000000000000000000000000000815250600e0182805190602001908083835b602083106113085780518252601f1990920191602091820191016112e9565b51815160209384036101000a60001901801990921691161790526040805192909401828103601f190183529384905262461bcd60e51b84526004840181815282516024860152825192965094508493604401925085019080838360005b8381101561137d578181015183820152602001611365565b50505050905090810190601f1680156113aa5780820380516001836020036101000a031916815260200191505b509250505060405180910390fd5b5050505050565b60606113d086868686600087611a93565b9695505050505050565b60606000806113e887611fe6565b905060006113f586611fe6565b90506001600160a01b0382161580159061141757506001600160a01b03811615155b8061147757506001600160a01b0382161580159061147757506001600160a01b038616736b175474e89094c44da98b954eedeac495271d0f148061147757506001600160a01b03861673a0b86991c6218b36c1d19d4a2e9eb0ce3606eb48145b806114d757506001600160a01b038616158015906114d757506001600160a01b038216736b175474e89094c44da98b954eedeac495271d0f14806114d757506001600160a01b03821673a0b86991c6218b36c1d19d4a2e9eb0ce3606eb48145b156115d357600554604080516307d0e54160e51b81526001600160a01b038c811660048301528b81166024830152604482018b90528981166064830152608482018990529151919092169163fa1ca8209160a480830192600092919082900301818387803b15801561154857600080fd5b505af1925050508015611559575060015b6115b757611565612655565b806115705750610cc5565b6115a9604051806020016040528060008152508260405180604001604052806005815260200164029bcb73a160dd1b8152508c8b6113bf565b6000945094505050506119a0565b50506040805160208101909152600081529150600190506119a0565b6001600160a01b038216156117685760006116028a736b175474e89094c44da98b954eedeac495271d0f61086e565b600554604080516307d0e54160e51b81526001600160a01b038e811660048301528d81166024830152604482018d9052736b175474e89094c44da98b954eedeac495271d0f606483015260016084830152915193945091169163fa1ca8209160a48082019260009290919082900301818387803b15801561168257600080fd5b505af1925050508015611693575060015b6117075761169f612655565b806116aa5750610cc5565b6116f8604051806020016040528060008152508260405180604001604052806005815260200164029bcb73a160dd1b8152508d736b175474e89094c44da98b954eedeac495271d0f8d611a93565b600095509550505050506119a0565b6117498a736b175474e89094c44da98b954eedeac495271d0f611742846105118f736b175474e89094c44da98b954eedeac495271d0f61086e565b8a8a610a6f565b60016040518060200160405280600081525090945094505050506119a0565b6001600160a01b038116156119865760006117978a736b175474e89094c44da98b954eedeac495271d0f61086e565b90506001600160a01b038916736b175474e89094c44da98b954eedeac495271d0f14611804576117df8a8a8a736b175474e89094c44da98b954eedeac495271d0f6001610a6f565b611801816105118c736b175474e89094c44da98b954eedeac495271d0f61086e565b90505b600554604080516307d0e54160e51b81526001600160a01b038d81166004830152736b175474e89094c44da98b954eedeac495271d0f6024830152604482018590528a81166064830152608482018a90529151919092169163fa1ca8209160a480830192600092919082900301818387803b15801561188257600080fd5b505af1925050508015611893575060015b6117495761189f612655565b806118aa5750610cc5565b8060405160200180807f4661696c6564206d696477617920696e206f75742073796e7468000000000000815250601a0182805190602001908083835b602083106119055780518252601f1990920191602091820191016118e6565b51815160001960209485036101000a019081169019909116179052603b60f81b9390910192835260408051601e19818603018152600185019182905262461bcd60e51b90915260058401828152815160258601528151919650945084936045019250908501908083836000831561137d578181015183820152602001611365565b600060405180602001604052806000815250909350935050505b9550959350505050565b604080516001600160a01b0383166024808301919091528251808303909101815260449091019091526020810180517bffffffffffffffffffffffffffffffffffffffffffffffffffffffff167f2c2ecbc200000000000000000000000000000000000000000000000000000000179052610a6c9061222f565b6040805160248082018490528251808303909101815260449091019091526020810180517bffffffffffffffffffffffffffffffffffffffffffffffffffffffff167ff5b1bba900000000000000000000000000000000000000000000000000000000179052610a6c9061222f565b60608685611ac86001600160a01b03861615611ab957611ab4878787612250565b611ac3565b611ac38786612301565b612382565b886040516020018085805190602001908083835b60208310611afb5780518252601f199092019160209182019101611adc565b51815160209384036101000a600019018019909216911617905287519190930192870191508083835b60208310611b435780518252601f199092019160209182019101611b24565b51815160209384036101000a600019018019909216911617905286519190930192860191508083835b60208310611b8b5780518252601f199092019160209182019101611b6c565b6001836020036101000a038019825116818451168082178552505050505050905001807f3a0000000000000000000000000000000000000000000000000000000000000081525060010182805190602001908083835b60208310611c005780518252601f199092019160209182019101611be1565b6001836020036101000a03801982511681845116808217855250505050505090500180603b60f81b81525060010194505050505060405160208183030381529060405290509695505050505050565b60408051608081018252736b175474e89094c44da98b954eedeac495271d0f815273c02aaa39b223fe8d0a0e5c4f27ead9083c756cc26020820152732260fac5e5542a773aa44fbcfedf7c193bc2c59991810191909152737fc66500c84a76ad7e9c93437bfc5ac33e2ddae960608281019190915290600090815b6004811015611fd157818160048110611cdf57fe5b60200201516001600160a01b0316896001600160a01b031614158015611d275750818160048110611d0c57fe5b60200201516001600160a01b0316876001600160a01b031614155b15611fc9576003546004805430926334521da7926001600160a01b039182169290911690869086908110611d5757fe5b6020020151604080517fffffffff0000000000000000000000000000000000000000000000000000000060e087901b1681526001600160a01b03948516600482015292841660248401529083166044830152828f166064830152828e16608483015260a482018d9052918b1660c482015260e481018a9052905161010480830192600092919082900301818387803b158015611df257600080fd5b505af1925050508015611e03575060015b611e7557611e0f612655565b80611e1a5750610cc5565b611e6d86826040518060400160405280600a81526020017f556e692d437572766520000000000000000000000000000000000000000000008152508d878760048110611e6257fe5b60200201518d611a93565b955050611e91565b5050604080516020810190915260008152915060019050611fdb565b6004805460035430926334521da7926001600160a01b03908116921690869086908110611eba57fe5b6020020151604080517fffffffff0000000000000000000000000000000000000000000000000000000060e087901b1681526001600160a01b03948516600482015292841660248401529083166044830152828f166064830152828e16608483015260a482018d9052918b1660c482015260e481018a9052905161010480830192600092919082900301818387803b158015611f5557600080fd5b505af1925050508015611f66575060015b611e7557611f72612655565b80611f7d5750610cc5565b611fc586826040518060400160405280600a81526020017f43757276652d556e6920000000000000000000000000000000000000000000008152508d878760048110611e6257fe5b9550505b600101611cca565b5083600092509250505b965096945050505050565b60008073c011a73ee8576fb46f5e1c5751ca3b9fe0af2a6f6001600160a01b031663d4b839926040518163ffffffff1660e01b815260040160206040518083038186803b15801561203657600080fd5b505afa15801561204a573d6000803e3d6000fd5b505050506040513d602081101561206057600080fd5b5051604080517f95d89b4100000000000000000000000000000000000000000000000000000000815290519192506001600160a01b03808416926332608039926121bf928816916395d89b4191600480820192600092909190829003018186803b1580156120cd57600080fd5b505afa1580156120e1573d6000803e3d6000fd5b505050506040513d6000823e601f3d908101601f19168201604052602081101561210a57600080fd5b810190808051604051939291908464010000000082111561212a57600080fd5b90830190602082018581111561213f57600080fd5b825164010000000081118282018810171561215957600080fd5b82525081516020918201929091019080838360005b8381101561218657818101518382015260200161216e565b50505050905090810190601f1680156121b35780820380516001836020036101000a031916815260200191505b50604052505050612631565b6040518263ffffffff1660e01b81526004018082815260200191505060206040518083038186803b1580156121f357600080fd5b505afa92505050801561221857506040513d602081101561221357600080fd5b505160015b612226576000915050610407565b91506104079050565b80516a636f6e736f6c652e6c6f67602083016000808483855afa5050505050565b6040805160038082526080820190925260609160009190602082018480368337019050509050848160008151811061228457fe5b60200260200101906001600160a01b031690816001600160a01b03168152505083816001815181106122b257fe5b60200260200101906001600160a01b031690816001600160a01b03168152505082816002815181106122e057fe5b6001600160a01b039092166020928302919091019091015290509392505050565b60408051600280825260608083018452926000929190602083019080368337019050509050838160008151811061233457fe5b60200260200101906001600160a01b031690816001600160a01b031681525050828160018151811061236257fe5b6001600160a01b0390921660209283029190910190910152905092915050565b60608060005b835181101561262a578184828151811061239e57fe5b60200260200101516001600160a01b03166395d89b416040518163ffffffff1660e01b815260040160006040518083038186803b1580156123de57600080fd5b505afa1580156123f2573d6000803e3d6000fd5b505050506040513d6000823e601f3d908101601f19168201604052602081101561241b57600080fd5b810190808051604051939291908464010000000082111561243b57600080fd5b90830190602082018581111561245057600080fd5b825164010000000081118282018810171561246a57600080fd5b82525081516020918201929091019080838360005b8381101561249757818101518382015260200161247f565b50505050905090810190601f1680156124c45780820380516001836020036101000a031916815260200191505b5060405250505060018651038314156124ec5760405180602001604052806000815250612523565b6040518060400160405280600281526020017f2d3e0000000000000000000000000000000000000000000000000000000000008152505b6040516020018084805190602001908083835b602083106125555780518252601f199092019160209182019101612536565b51815160209384036101000a600019018019909216911617905286519190930192860191508083835b6020831061259d5780518252601f19909201916020918201910161257e565b51815160209384036101000a600019018019909216911617905285519190930192850191508083835b602083106125e55780518252601f1990920191602091820191016125c6565b6001836020036101000a038019825116818451168082178552505050505050905001935050505060405160208183030381529060405291508080600101915050612388565b5092915050565b80516000908290612646575060009050610407565b50506020015190565b60e01c90565b600060443d1015612665576126f8565b600481823e6308c379a0612679825161264f565b14612683576126f8565b6040513d600319016004823e80513d67ffffffffffffffff81602484011181841117156126b357505050506126f8565b828401925082519150808211156126cd57505050506126f8565b503d830160208284010111156126e5575050506126f8565b601f01601f191681016020016040529150505b9056fe4f6e6c7920676f7665726e616e6365206f7220656d657267656e63792063616e2063616c6c2074686973a26469706673582212205731b13dd46e8573fd50f55ac1dff1fdfb798e7cc44f4e92f110f32accc8064064736f6c63430007060033",
  "devdoc": {
    "author": "Babylon Finance Protocol Master class for integration with trading protocols",
    "kind": "dev",
    "methods": {
      "constructor": {
        "params": {
          "_controller": "Address of the controller",
          "_curve": "Address of curve trade integration",
          "_hearttrade": "Address of heart trade integration",
          "_synthetix": "Address of synthetix trade integration",
          "_univ2": "Address of univ2 trade integration",
          "_univ3": "Address of univ3 trade integration"
        }
      },
      "trade(address,address,uint256,address,uint256)": {
        "details": "@param _strategy             Address of the strategy",
        "params": {
          "_minReceiveQuantity": "Min units of wanted token to be received from the exchange",
          "_receiveToken": "Address of the token that will be received from the exchange",
          "_sendQuantity": "Units of reserve asset token sent to the exchange",
          "_sendToken": "Address of the token to be sent to the exchange"
        }
      },
      "trade(address,address,uint256,address,uint256,address)": {
        "details": "Should be never called. Only implemented to satisfy ITradeIntegration"
      },
      "updateTradeAddress(uint256,address)": {
        "params": {
          "_index": "Index to update",
          "_newAddress": "New address"
        }
      }
    },
    "title": "MasterSwapper",
    "version": 1
  },
  "userdoc": {
    "kind": "user",
    "methods": {
      "constructor": {
        "notice": "Creates the master swapper"
      },
      "trade(address,address,uint256,address,uint256)": {
        "notice": "Executes a trade choosing the appropriate protocol for it"
      },
      "updateTradeAddress(uint256,address)": {
        "notice": "Function to update the internal mappings of the swapper"
      }
    },
    "version": 1
  },
  "storageLayout": {
    "storage": [
      {
        "astId": 27197,
        "contract": "contracts/integrations/trade/MasterSwapper.sol:MasterSwapper",
        "label": "name",
        "offset": 0,
        "slot": "0",
        "type": "t_string_storage"
      },
      {
        "astId": 6418,
        "contract": "contracts/integrations/trade/MasterSwapper.sol:MasterSwapper",
        "label": "_status",
        "offset": 0,
        "slot": "1",
        "type": "t_uint256"
      },
      {
        "astId": 38221,
        "contract": "contracts/integrations/trade/MasterSwapper.sol:MasterSwapper",
        "label": "univ2",
        "offset": 0,
        "slot": "2",
        "type": "t_contract(ITradeIntegration)43809"
      },
      {
        "astId": 38223,
        "contract": "contracts/integrations/trade/MasterSwapper.sol:MasterSwapper",
        "label": "univ3",
        "offset": 0,
        "slot": "3",
        "type": "t_contract(ITradeIntegration)43809"
      },
      {
        "astId": 38225,
        "contract": "contracts/integrations/trade/MasterSwapper.sol:MasterSwapper",
        "label": "curve",
        "offset": 0,
        "slot": "4",
        "type": "t_contract(ITradeIntegration)43809"
      },
      {
        "astId": 38227,
        "contract": "contracts/integrations/trade/MasterSwapper.sol:MasterSwapper",
        "label": "synthetix",
        "offset": 0,
        "slot": "5",
        "type": "t_contract(ITradeIntegration)43809"
      },
      {
        "astId": 38229,
        "contract": "contracts/integrations/trade/MasterSwapper.sol:MasterSwapper",
        "label": "heartTradeIntegration",
        "offset": 0,
        "slot": "6",
        "type": "t_contract(ITradeIntegration)43809"
      }
    ],
    "types": {
      "t_contract(ITradeIntegration)43809": {
        "encoding": "inplace",
        "label": "contract ITradeIntegration",
        "numberOfBytes": "20"
      },
      "t_string_storage": {
        "encoding": "bytes",
        "label": "string",
        "numberOfBytes": "32"
      },
      "t_uint256": {
        "encoding": "inplace",
        "label": "uint256",
        "numberOfBytes": "32"
      }
    }
  }
}