{
  "address": "0xCed84fc82393771A083655f4058c4FBB33794487",
  "abi": [
    {
      "inputs": [
        {
          "internalType": "contract IBabController",
          "name": "_controller",
          "type": "address"
        },
        {
          "internalType": "contract ITradeIntegration",
          "name": "_curve",
          "type": "address"
        },
        {
          "internalType": "contract ITradeIntegration",
          "name": "_univ3",
          "type": "address"
        },
        {
          "internalType": "contract ITradeIntegration",
          "name": "_synthetix",
          "type": "address"
        },
        {
          "internalType": "contract ITradeIntegration",
          "name": "_univ2",
          "type": "address"
        }
      ],
      "stateMutability": "nonpayable",
      "type": "constructor"
    },
    {
      "inputs": [],
      "name": "controller",
      "outputs": [
        {
          "internalType": "contract IBabController",
          "name": "",
          "type": "address"
        }
      ],
      "stateMutability": "view",
      "type": "function"
    },
    {
      "inputs": [],
      "name": "getName",
      "outputs": [
        {
          "internalType": "string",
          "name": "",
          "type": "string"
        }
      ],
      "stateMutability": "view",
      "type": "function"
    },
    {
      "inputs": [],
      "name": "name",
      "outputs": [
        {
          "internalType": "string",
          "name": "",
          "type": "string"
        }
      ],
      "stateMutability": "view",
      "type": "function"
    },
    {
      "inputs": [
        {
          "internalType": "address",
          "name": "_strategy",
          "type": "address"
        },
        {
          "internalType": "address",
          "name": "_sendToken",
          "type": "address"
        },
        {
          "internalType": "uint256",
          "name": "_sendQuantity",
          "type": "uint256"
        },
        {
          "internalType": "address",
          "name": "_receiveToken",
          "type": "address"
        },
        {
          "internalType": "uint256",
          "name": "_minReceiveQuantity",
          "type": "uint256"
        }
      ],
      "name": "trade",
      "outputs": [],
      "stateMutability": "nonpayable",
      "type": "function"
    }
  ],
  "transactionHash": "0x725056ef4018ecae3ff14edd3a75cfd4604c5ae4ae5b732c7cdbdcff8b859610",
  "args": [
    "0xD4a5b5fcB561dAF3aDF86F8477555B92FBa43b5F",
    "0x9C3dD49C8cE717718dA5973a440Ca1332f0197aE",
    "0x7D20Ff38F6f2a4Bf03E5B603D799378B473eA84E",
    "0x612F563725763bb068e533b4FABb2530A4d10b6a",
    "0x848Cd7194d8175f644A43C504E8D6C6E3976AE93"
  ],
  "solcInputHash": "362dac55a8ecd7ee2f0019cefa185a94",
  "bytecode": "0x6101006040523480156200001257600080fd5b5060405162001e2838038062001e28833981810160405260a08110156200003857600080fd5b50805160208083015160408085015160608601516080909601518251808401909352600e83526d36b0b9ba32b91039bbb0b83832b960911b94830194909452939491939290856001600160a01b038116620000da576040805162461bcd60e51b815260206004820152601a60248201527f436f6e74726f6c6c6572206d75737420626520646566696e6564000000000000604482015290519081900360640190fd5b8151620000ef90600190602085019062000148565b50600080546001600160a01b039092166001600160a01b03199092169190911790555060016002556001600160601b0319606094851b811660805292841b831660a05290831b821660c05290911b1660e05250620001f4565b828054600181600116156101000203166002900490600052602060002090601f016020900481019282620001805760008555620001cb565b82601f106200019b57805160ff1916838001178555620001cb565b82800160010185558215620001cb579182015b82811115620001cb578251825591602001919060010190620001ae565b50620001d9929150620001dd565b5090565b5b80821115620001d95760008155600101620001de565b60805160601c60a05160601c60c05160601c60e05160601c611bbb6200026d60003980610f145280611011525080610443528061054b528061067a5250806107f052806109a35280610a7e5280610b2f5280610c655280610d405280610df1528061185f5280611aef5250806113765250611bbb6000f3fe608060405234801561001057600080fd5b506004361061004c5760003560e01c806306fdde031461005157806317d7de7c146100ce578063f77c4791146100d6578063fa1ca820146100fa575b600080fd5b610059610140565b6040805160208082528351818301528351919283929083019185019080838360005b8381101561009357818101518382015260200161007b565b50505050905090810190601f1680156100c05780820380516001836020036101000a031916815260200191505b509250505060405180910390f35b6100596101cd565b6100de610262565b604080516001600160a01b039092168252519081900360200190f35b61013e600480360360a081101561011057600080fd5b506001600160a01b038135811691602081013582169160408201359160608101359091169060800135610271565b005b60018054604080516020600284861615610100026000190190941693909304601f810184900484028201840190925281815292918301828280156101c55780601f1061019a576101008083540402835291602001916101c5565b820191906000526020600020905b8154815290600101906020018083116101a857829003601f168201915b505050505081565b60018054604080516020601f600260001961010087891615020190951694909404938401819004810282018101909252828152606093909290918301828280156102585780601f1061022d57610100808354040283529160200191610258565b820191906000526020600020905b81548152906001019060200180831161023b57829003601f168201915b5050505050905090565b6000546001600160a01b031681565b6002805414156102c8576040805162461bcd60e51b815260206004820152601f60248201527f5265656e7472616e637947756172643a207265656e7472616e742063616c6c00604482015290519081900360640190fd5b600280556102d985858585856102e5565b50506001600255505050565b816001600160a01b0316846001600160a01b03161415610304576110c3565b600061030f856110ca565b9050600061031c846110ca565b90506001600160a01b0382161580159061033e57506001600160a01b03811615155b8061039e57506001600160a01b0382161580159061039e57506001600160a01b038416736b175474e89094c44da98b954eedeac495271d0f148061039e57506001600160a01b03841673a0b86991c6218b36c1d19d4a2e9eb0ce3606eb48145b806103fe57506001600160a01b038416158015906103fe57506001600160a01b038216736b175474e89094c44da98b954eedeac495271d0f14806103fe57506001600160a01b03821673a0b86991c6218b36c1d19d4a2e9eb0ce3606eb48145b156104ae57604080516307d0e54160e51b81526001600160a01b03898116600483015288811660248301526044820188905286811660648301526084820186905291517f00000000000000000000000000000000000000000000000000000000000000009092169163fa1ca8209160a48082019260009290919082900301818387803b15801561048d57600080fd5b505af192505050801561049e575060015b6104a7576104ae565b50506110c3565b6104bb8787868887611318565b156104c75750506110c3565b6001600160a01b038216156106015760006104f688736b175474e89094c44da98b954eedeac495271d0f6113f8565b604080516307d0e54160e51b81526001600160a01b038b811660048301528a81166024830152604482018a9052736b175474e89094c44da98b954eedeac495271d0f60648301526001608483015291519293507f00000000000000000000000000000000000000000000000000000000000000009091169163fa1ca8209160a48082019260009290919082900301818387803b15801561059557600080fd5b505af19250505080156105a6575060015b6105af576105ff565b6105f788736b175474e89094c44da98b954eedeac495271d0f6105f0846105ea8d736b175474e89094c44da98b954eedeac495271d0f6113f8565b906114c4565b88886102e5565b5050506110c3565b505b6001600160a01b038116156107b05760006001600160a01b038716736b175474e89094c44da98b954eedeac495271d0f146106785761065488736b175474e89094c44da98b954eedeac495271d0f6113f8565b9050610678888888736b175474e89094c44da98b954eedeac495271d0f60016102e5565b7f00000000000000000000000000000000000000000000000000000000000000006001600160a01b031663fa1ca82089736b175474e89094c44da98b954eedeac495271d0f6106df856105ea8e736b175474e89094c44da98b954eedeac495271d0f6113f8565b89896040518663ffffffff1660e01b815260040180866001600160a01b03168152602001856001600160a01b03168152602001848152602001836001600160a01b0316815260200182815260200195505050505050600060405180830381600087803b15801561074e57600080fd5b505af192505050801561075f575060015b6105f7576040805162461bcd60e51b815260206004820152601a60248201527f4661696c6564206d696477617920696e206f75742073796e7468000000000000604482015290519081900360640190fd5b604080516307d0e54160e51b81526001600160a01b03898116600483015288811660248301526044820188905286811660648301526084820186905291517f00000000000000000000000000000000000000000000000000000000000000009092169163fa1ca8209160a48082019260009290919082900301818387803b15801561083a57600080fd5b505af192505050801561084b575060015b6104a75760408051606081018252736b175474e89094c44da98b954eedeac495271d0f815273c02aaa39b223fe8d0a0e5c4f27ead9083c756cc26020820152732260fac5e5542a773aa44fbcfedf7c193bc2c599918101919091526108b49088888789886114d4565b156108c05750506110c3565b60006108cc88886113f8565b90508086106108db57806108dd565b855b95506001600160a01b03871673c02aaa39b223fe8d0a0e5c4f27ead9083c756cc21480159061092957506001600160a01b03851673c02aaa39b223fe8d0a0e5c4f27ead9083c756cc214155b15610ba157600061094e8973c02aaa39b223fe8d0a0e5c4f27ead9083c756cc26113f8565b604080516307d0e54160e51b81526001600160a01b038c811660048301528b81166024830152604482018b905273c02aaa39b223fe8d0a0e5c4f27ead9083c756cc260648301526001608483015291519293507f00000000000000000000000000000000000000000000000000000000000000009091169163fa1ca8209160a48082019260009290919082900301818387803b1580156109ed57600080fd5b505af19250505080156109fe575060015b610a0757610b9f565b610a29816105ea8b73c02aaa39b223fe8d0a0e5c4f27ead9083c756cc26113f8565b604080516307d0e54160e51b81526001600160a01b038c8116600483015273c02aaa39b223fe8d0a0e5c4f27ead9083c756cc260248301526044820184905289811660648301526084820189905291519293507f00000000000000000000000000000000000000000000000000000000000000009091169163fa1ca8209160a48082019260009290919082900301818387803b158015610ac857600080fd5b505af1925050508015610ad9575060015b610b9657604080516307d0e54160e51b81526001600160a01b038b8116600483015273c02aaa39b223fe8d0a0e5c4f27ead9083c756cc26024830152604482018490528a811660648301526001608483015291517f00000000000000000000000000000000000000000000000000000000000000009092169163fa1ca8209160a48082019260009290919082900301818387803b158015610b7957600080fd5b505af1158015610b8d573d6000803e3d6000fd5b50505050610b9f565b505050506110c3565b505b6001600160a01b038716736b175474e89094c44da98b954eedeac495271d0f14801590610beb57506001600160a01b038516736b175474e89094c44da98b954eedeac495271d0f14155b15610e56576000610c1089736b175474e89094c44da98b954eedeac495271d0f6113f8565b604080516307d0e54160e51b81526001600160a01b038c811660048301528b81166024830152604482018b9052736b175474e89094c44da98b954eedeac495271d0f60648301526001608483015291519293507f00000000000000000000000000000000000000000000000000000000000000009091169163fa1ca8209160a48082019260009290919082900301818387803b158015610caf57600080fd5b505af1925050508015610cc0575060015b610cc957610e54565b610ceb816105ea8b736b175474e89094c44da98b954eedeac495271d0f6113f8565b604080516307d0e54160e51b81526001600160a01b038c81166004830152736b175474e89094c44da98b954eedeac495271d0f60248301526044820184905289811660648301526084820189905291519293507f00000000000000000000000000000000000000000000000000000000000000009091169163fa1ca8209160a48082019260009290919082900301818387803b158015610d8a57600080fd5b505af1925050508015610d9b575060015b610b9657604080516307d0e54160e51b81526001600160a01b038b81166004830152736b175474e89094c44da98b954eedeac495271d0f6024830152604482018490528a811660648301526001608483015291517f00000000000000000000000000000000000000000000000000000000000000009092169163fa1ca8209160a48082019260009290919082900301818387803b158015610e3b57600080fd5b505af1158015610e4f573d6000803e3d6000fd5b505050505b505b610e6088886113f8565b9050808610610e6f5780610e71565b855b95506001841115611076576000610e9c8973c02aaa39b223fe8d0a0e5c4f27ead9083c756cc26113f8565b90506001600160a01b03881673c02aaa39b223fe8d0a0e5c4f27ead9083c756cc214610f9b57604080516307d0e54160e51b81526001600160a01b038b811660048301528a81166024830152604482018a905273c02aaa39b223fe8d0a0e5c4f27ead9083c756cc260648301526002608483015291517f00000000000000000000000000000000000000000000000000000000000000009092169163fa1ca8209160a48082019260009290919082900301818387803b158015610f5e57600080fd5b505af1158015610f72573d6000803e3d6000fd5b50505050610f98816105ea8b73c02aaa39b223fe8d0a0e5c4f27ead9083c756cc26113f8565b90505b6001600160a01b03861673c02aaa39b223fe8d0a0e5c4f27ead9083c756cc21461107457604080516307d0e54160e51b81526001600160a01b038b8116600483015273c02aaa39b223fe8d0a0e5c4f27ead9083c756cc260248301526044820184905288811660648301526084820188905291517f00000000000000000000000000000000000000000000000000000000000000009092169163fa1ca8209160a48082019260009290919082900301818387803b15801561105b57600080fd5b505af115801561106f573d6000803e3d6000fd5b505050505b505b6040805162461bcd60e51b815260206004820152601d60248201527f4d6173746572207377617070657220636f756c64206e6f742073776170000000604482015290519081900360640190fd5b5050505050565b60008073c011a73ee8576fb46f5e1c5751ca3b9fe0af2a6f6001600160a01b031663d4b839926040518163ffffffff1660e01b815260040160206040518083038186803b15801561111a57600080fd5b505afa15801561112e573d6000803e3d6000fd5b505050506040513d602081101561114457600080fd5b5051604080517f95d89b4100000000000000000000000000000000000000000000000000000000815290519192506001600160a01b03808416926332608039926112a3928816916395d89b4191600480820192600092909190829003018186803b1580156111b157600080fd5b505afa1580156111c5573d6000803e3d6000fd5b505050506040513d6000823e601f3d908101601f1916820160405260208110156111ee57600080fd5b810190808051604051939291908464010000000082111561120e57600080fd5b90830190602082018581111561122357600080fd5b825164010000000081118282018810171561123d57600080fd5b82525081516020918201929091019080838360005b8381101561126a578181015183820152602001611252565b50505050905090810190601f1680156112975780820380516001836020036101000a031916815260200191505b5060405250505061154f565b6040518263ffffffff1660e01b81526004018082815260200191505060206040518083038186803b1580156112d757600080fd5b505afa9250505080156112fc57506040513d60208110156112f757600080fd5b505160015b61130a576000915050611313565b91506113139050565b919050565b600080611325868661156d565b90506001600160a01b038116156113e957604080516307d0e54160e51b81526001600160a01b03898116600483015288811660248301526044820187905287811660648301526084820186905291517f00000000000000000000000000000000000000000000000000000000000000009092169163fa1ca8209160a48082019260009290919082900301818387803b1580156113c057600080fd5b505af19250505080156113d1575060015b6113df5760009150506113ef565b60019150506113ef565b60009150505b95945050505050565b60006001600160a01b038216158061142c57506001600160a01b03821673eeeeeeeeeeeeeeeeeeeeeeeeeeeeeeeeeeeeeeee145b1561144257506001600160a01b038216316114be565b816001600160a01b03166370a08231846040518263ffffffff1660e01b815260040180826001600160a01b0316815260200191505060206040518083038186803b15801561148f57600080fd5b505afa1580156114a3573d6000803e3d6000fd5b505050506040513d60208110156114b957600080fd5b505190505b92915050565b808203828111156114be57600080fd5b6000805b600381101561153f578781600381106114ed57fe5b60200201516001600160a01b0316866001600160a01b0316146115375761152888826003811061151957fe5b60200201518888888888611809565b15611537576001915050611545565b6001016114d8565b50600090505b9695505050505050565b80516000908290611564575060009050611313565b50506020015190565b6000806f22d53366457f9d5e68ec105046fc43836001600160a01b031663a262904b6040518163ffffffff1660e01b815260040160206040518083038186803b1580156115b957600080fd5b505afa1580156115cd573d6000803e3d6000fd5b505050506040513d60208110156115e357600080fd5b505160408051632a1f7c1b60e21b81526001600160a01b038781166004830152868116602483015291519293506000929184169163a87df06c91604480820192602092909190829003018186803b15801561163d57600080fd5b505afa158015611651573d6000803e3d6000fd5b505050506040513d602081101561166757600080fd5b505190506001600160a01b03811615801561169e57506001600160a01b03851673c02aaa39b223fe8d0a0e5c4f27ead9083c756cc2145b156117365760408051632a1f7c1b60e21b815273eeeeeeeeeeeeeeeeeeeeeeeeeeeeeeeeeeeeeeee60048201526001600160a01b03868116602483015291519184169163a87df06c91604480820192602092909190829003018186803b15801561170757600080fd5b505afa15801561171b573d6000803e3d6000fd5b505050506040513d602081101561173157600080fd5b505190505b6001600160a01b03811615801561176957506001600160a01b03841673c02aaa39b223fe8d0a0e5c4f27ead9083c756cc2145b156118015760408051632a1f7c1b60e21b81526001600160a01b03878116600483015273eeeeeeeeeeeeeeeeeeeeeeeeeeeeeeeeeeeeeeee602483015291519184169163a87df06c91604480820192602092909190829003018186803b1580156117d257600080fd5b505afa1580156117e6573d6000803e3d6000fd5b505050506040513d60208110156117fc57600080fd5b505190505b949350505050565b60008061181687896113f8565b90506000816001600160a01b03888116908b161480159061184a5750600061183e8b8961156d565b6001600160a01b031614155b1561196557600061185b8a8a6113f8565b90507f00000000000000000000000000000000000000000000000000000000000000006001600160a01b031663fa1ca8208b8b8a851061189b578a61189d565b845b8f60016040518663ffffffff1660e01b815260040180866001600160a01b03168152602001856001600160a01b03168152602001848152602001836001600160a01b0316815260200182815260200195505050505050600060405180830381600087803b15801561190d57600080fd5b505af192505050801561191e575060015b61192757611963565b876001600160a01b03168b6001600160a01b0316141561194e576001945050505050611545565b61195c846105ea8c8e6113f8565b9150600192505b505b896001600160a01b0316886001600160a01b031614806119825750815b156119f857611994898b898489611318565b156119a55760019350505050611545565b81156119f8576040805162461bcd60e51b815260206004820152601860248201527f43757276652053776170206661696c6564206d69647761790000000000000000604482015290519081900360640190fd5b896001600160a01b0316886001600160a01b031614611a8d576000611a1d8a8a6113f8565b905060009250611a2d8a8c6113f8565b9350611a4b8a8a8d8a8510611a42578a611a44565b845b6001611318565b15611a8b5760019250611a62846105ea8c8e6113f8565b9150876001600160a01b03168b6001600160a01b03161415611a8b576001945050505050611545565b505b896001600160a01b0316886001600160a01b03161480611aaa5750815b15611b7557604080516307d0e54160e51b81526001600160a01b038b811660048301528c811660248301526044820184905289811660648301526084820188905291517f00000000000000000000000000000000000000000000000000000000000000009092169163fa1ca8209160a48082019260009290919082900301818387803b158015611b3957600080fd5b505af1925050508015611b4a575060015b611b69578115611b6457611b62898b8a846001611318565b505b611b75565b60019350505050611545565b506000999850505050505050505056fea264697066735822122081e161c12f9807a375870974e2f914bde84f062638c4d5ff2c58c26586d89a6564736f6c63430007060033",
  "devdoc": {
    "author": "Babylon Finance Protocol Master class for integration with trading protocols",
    "kind": "dev",
    "methods": {
      "constructor": {
        "params": {
          "_controller": "Address of the controller",
          "_curve": "Address of curve trade integration",
          "_synthetix": "Address of synthetix trade integration",
          "_univ2": "Address of univ2 trade integration",
          "_univ3": "Address of univ3 trade integration"
        }
      },
      "trade(address,address,uint256,address,uint256)": {
        "details": "@param _strategy             Address of the strategy",
        "params": {
          "_minReceiveQuantity": "Min units of wanted token to be received from the exchange",
          "_receiveToken": "Address of the token that will be received from the exchange",
          "_sendQuantity": "Units of reserve asset token sent to the exchange",
          "_sendToken": "Address of the token to be sent to the exchange"
        }
      }
    },
    "title": "MasterSwapper",
    "version": 1
  },
  "userdoc": {
    "kind": "user",
    "methods": {
      "constructor": {
        "notice": "Creates the master swapper"
      },
      "getName()": {
        "notice": "Returns the name of the integration"
      },
      "trade(address,address,uint256,address,uint256)": {
        "notice": "Executes a trade choosing the appropriate protocol for it"
      }
    },
    "version": 1
  },
  "storageLayout": {
    "storage": [
      {
        "astId": 21468,
        "contract": "contracts/integrations/trade/MasterSwapper.sol:MasterSwapper",
        "label": "controller",
        "offset": 0,
        "slot": "0",
        "type": "t_contract(IBabController)33649"
      },
      {
        "astId": 21494,
        "contract": "contracts/integrations/trade/MasterSwapper.sol:MasterSwapper",
        "label": "name",
        "offset": 0,
        "slot": "1",
        "type": "t_string_storage"
      },
      {
        "astId": 6418,
        "contract": "contracts/integrations/trade/MasterSwapper.sol:MasterSwapper",
        "label": "_status",
        "offset": 0,
        "slot": "2",
        "type": "t_uint256"
      }
    ],
    "types": {
      "t_contract(IBabController)33649": {
        "encoding": "inplace",
        "label": "contract IBabController",
        "numberOfBytes": "20"
      },
      "t_string_storage": {
        "encoding": "bytes",
        "label": "string",
        "numberOfBytes": "32"
      },
      "t_uint256": {
        "encoding": "inplace",
        "label": "uint256",
        "numberOfBytes": "32"
      }
    }
  }
}