{
  "address": "0xAa26600aD51A2f70C532E662b87Ab33d8696E99a",
  "abi": [
    {
      "inputs": [
        {
          "internalType": "contract IBabController",
          "name": "_controller",
          "type": "address"
        },
        {
          "internalType": "contract ITradeIntegration",
          "name": "_curve",
          "type": "address"
        },
        {
          "internalType": "contract ITradeIntegration",
          "name": "_univ3",
          "type": "address"
        },
        {
          "internalType": "contract ITradeIntegration",
          "name": "_synthetix",
          "type": "address"
        },
        {
          "internalType": "contract ITradeIntegration",
          "name": "_univ2",
          "type": "address"
        },
        {
          "internalType": "contract ITradeIntegration",
          "name": "_hearttrade",
          "type": "address"
        },
        {
          "internalType": "contract ITradeIntegration",
          "name": "_paladinTrade",
          "type": "address"
        }
      ],
      "stateMutability": "nonpayable",
      "type": "constructor"
    },
    {
      "inputs": [],
      "name": "controller",
      "outputs": [
        {
          "internalType": "contract IBabController",
          "name": "",
          "type": "address"
        }
      ],
      "stateMutability": "view",
      "type": "function"
    },
    {
      "inputs": [],
      "name": "curve",
      "outputs": [
        {
          "internalType": "contract ITradeIntegration",
          "name": "",
          "type": "address"
        }
      ],
      "stateMutability": "view",
      "type": "function"
    },
    {
      "inputs": [],
      "name": "heartTradeIntegration",
      "outputs": [
        {
          "internalType": "contract ITradeIntegration",
          "name": "",
          "type": "address"
        }
      ],
      "stateMutability": "view",
      "type": "function"
    },
    {
      "inputs": [
        {
          "internalType": "address",
          "name": "_integration",
          "type": "address"
        }
      ],
      "name": "isTradeIntegration",
      "outputs": [
        {
          "internalType": "bool",
          "name": "",
          "type": "bool"
        }
      ],
      "stateMutability": "view",
      "type": "function"
    },
    {
      "inputs": [],
      "name": "name",
      "outputs": [
        {
          "internalType": "string",
          "name": "",
          "type": "string"
        }
      ],
      "stateMutability": "view",
      "type": "function"
    },
    {
      "inputs": [],
      "name": "paladinTradeIntegration",
      "outputs": [
        {
          "internalType": "contract ITradeIntegration",
          "name": "",
          "type": "address"
        }
      ],
      "stateMutability": "view",
      "type": "function"
    },
    {
      "inputs": [
        {
          "internalType": "contract ITradeIntegration",
          "name": "_one",
          "type": "address"
        },
        {
          "internalType": "contract ITradeIntegration",
          "name": "_two",
          "type": "address"
        },
        {
          "internalType": "address",
          "name": "_reserve",
          "type": "address"
        },
        {
          "internalType": "address",
          "name": "_strategy",
          "type": "address"
        },
        {
          "internalType": "address",
          "name": "_sendToken",
          "type": "address"
        },
        {
          "internalType": "uint256",
          "name": "_sendQuantity",
          "type": "uint256"
        },
        {
          "internalType": "address",
          "name": "_receiveToken",
          "type": "address"
        },
        {
          "internalType": "uint256",
          "name": "_minReceiveQuantity",
          "type": "uint256"
        }
      ],
      "name": "swapSwap",
      "outputs": [],
      "stateMutability": "nonpayable",
      "type": "function"
    },
    {
      "inputs": [],
      "name": "synthetix",
      "outputs": [
        {
          "internalType": "contract ITradeIntegration",
          "name": "",
          "type": "address"
        }
      ],
      "stateMutability": "view",
      "type": "function"
    },
    {
      "inputs": [
        {
          "internalType": "address",
          "name": "",
          "type": "address"
        },
        {
          "internalType": "address",
          "name": "",
          "type": "address"
        },
        {
          "internalType": "uint256",
          "name": "",
          "type": "uint256"
        },
        {
          "internalType": "address",
          "name": "",
          "type": "address"
        },
        {
          "internalType": "uint256",
          "name": "",
          "type": "uint256"
        },
        {
          "internalType": "address",
          "name": "",
          "type": "address"
        }
      ],
      "name": "trade",
      "outputs": [],
      "stateMutability": "nonpayable",
      "type": "function"
    },
    {
      "inputs": [
        {
          "internalType": "address",
          "name": "_strategy",
          "type": "address"
        },
        {
          "internalType": "address",
          "name": "_sendToken",
          "type": "address"
        },
        {
          "internalType": "uint256",
          "name": "_sendQuantity",
          "type": "uint256"
        },
        {
          "internalType": "address",
          "name": "_receiveToken",
          "type": "address"
        },
        {
          "internalType": "uint256",
          "name": "_minReceiveQuantity",
          "type": "uint256"
        }
      ],
      "name": "trade",
      "outputs": [],
      "stateMutability": "nonpayable",
      "type": "function"
    },
    {
      "inputs": [],
      "name": "univ2",
      "outputs": [
        {
          "internalType": "contract ITradeIntegration",
          "name": "",
          "type": "address"
        }
      ],
      "stateMutability": "view",
      "type": "function"
    },
    {
      "inputs": [],
      "name": "univ3",
      "outputs": [
        {
          "internalType": "contract ITradeIntegration",
          "name": "",
          "type": "address"
        }
      ],
      "stateMutability": "view",
      "type": "function"
    },
    {
      "inputs": [
        {
          "internalType": "uint256",
          "name": "_index",
          "type": "uint256"
        },
        {
          "internalType": "address",
          "name": "_newAddress",
          "type": "address"
        }
      ],
      "name": "updateTradeAddress",
      "outputs": [],
      "stateMutability": "nonpayable",
      "type": "function"
    }
  ],
  "transactionHash": "0x604bdd28bee753f0846acee5a4867dfbca59dbf17c3e8a4efdbb70c2780f95c5",
  "args": [
    "0xD4a5b5fcB561dAF3aDF86F8477555B92FBa43b5F",
    "0xfab72642DFFdb9d7eBad6A0a59715d9C1C98e9F9",
    "0xc300FB5dE5384bcA63fb6eb3EfD9DB7dFd10325C",
    "0x612F563725763bb068e533b4FABb2530A4d10b6a",
    "0xB5262476467311bBC024fb5d50328D9042eE402D",
    "0xfc19CB1453E3741966Aa500b7692E4a89950C9E8",
    "0xdd97B038E35113970d63B8DF94B88E437852B83D"
  ],
  "numDeployments": 3,
  "solcInputHash": "57f41cba918d0edfe5cb9d451d5660ee",
  "bytecode": "0x60a06040523480156200001157600080fd5b5060405162002be938038062002be9833981810160405260e08110156200003757600080fd5b5080516020808301516040808501516060860151608087015160a088015160c090980151845180860190955260118552706d61737465725f737761707065725f763360781b9685019690965295969395919490939192876001600160a01b038116620000ea576040805162461bcd60e51b815260206004820152601a60248201527f436f6e74726f6c6c6572206d75737420626520646566696e6564000000000000604482015290519081900360640190fd5b8151620000ff90600090602085019062000189565b5060601b6001600160601b0319166080525060018055600480546001600160a01b03199081166001600160a01b03988916179091556003805482169688169690961790955560058054861694871694909417909355600280548516928616929092179091556006805484169185169190911790556007805490921692169190911790555062000235565b828054600181600116156101000203166002900490600052602060002090601f016020900481019282620001c157600085556200020c565b82601f10620001dc57805160ff19168380011785556200020c565b828001600101855582156200020c579182015b828111156200020c578251825591602001919060010190620001ef565b506200021a9291506200021e565b5090565b5b808211156200021a57600081556001016200021f565b60805160601c61298c6200025d600039806105d952806108365280610e40525061298c6000f3fe608060405234801561001057600080fd5b50600436106100df5760003560e01c80637165485d1161008c5780638340072b116100665780638340072b14610268578063f694c75c14610270578063f77c4791146102ba578063fa1ca820146102c2576100df565b80637165485d146102505780637298d36e14610258578063759b522514610260576100df565b806334521da7116100bd57806334521da7146101bf5780634435a7e01461021c57806366470db114610248576100df565b806306fdde03146100e45780630bfd3d73146101615780632d108f4114610185575b600080fd5b6100ec610306565b6040805160208082528351818301528351919283929083019185019080838360005b8381101561012657818101518382015260200161010e565b50505050905090810190601f1680156101535780820380516001836020036101000a031916815260200191505b509250505060405180910390f35b610169610394565b604080516001600160a01b039092168252519081900360200190f35b6101ab6004803603602081101561019b57600080fd5b50356001600160a01b03166103a3565b604080519115158252519081900360200190f35b61021a60048036036101008110156101d657600080fd5b506001600160a01b038135811691602081013582169160408201358116916060810135821691608082013581169160a08101359160c0820135169060e00135610437565b005b61021a6004803603604081101561023257600080fd5b50803590602001356001600160a01b03166105d4565b61016961073f565b61016961074e565b61016961075d565b61016961076c565b61016961077b565b61021a600480360360c081101561028657600080fd5b506001600160a01b0381358116916020810135821691604082013591606081013582169160808201359160a001351661078a565b610169610834565b61021a600480360360a08110156102d857600080fd5b506001600160a01b038135811691602081013582169160408201359160608101359091169060800135610858565b6000805460408051602060026001851615610100026000190190941693909304601f8101849004840282018401909252818152929183018282801561038c5780601f106103615761010080835404028352916020019161038c565b820191906000526020600020905b81548152906001019060200180831161036f57829003601f168201915b505050505081565b6003546001600160a01b031681565b6004546000906001600160a01b03838116911614806103cf57506003546001600160a01b038381169116145b806103e757506005546001600160a01b038381169116145b806103ff57506002546001600160a01b038381169116145b8061041757506006546001600160a01b038381169116145b8061042f57506007546001600160a01b038381169116145b90505b919050565b33301461048d576040805162461bcd60e51b8152602060048083019190915260248201527f4e6f706500000000000000000000000000000000000000000000000000000000604482015290519081900360640190fd5b600061049986886108cd565b604080516307d0e54160e51b81526001600160a01b0389811660048301528881166024830152604482018890528a81166064830152600160848301529151929350908b169163fa1ca8209160a48082019260009290919082900301818387803b15801561050557600080fd5b505af1158015610519573d6000803e3d6000fd5b50505050876001600160a01b031663fa1ca82087896105428561053c8c8e6108cd565b90610999565b87876040518663ffffffff1660e01b815260040180866001600160a01b03168152602001856001600160a01b03168152602001848152602001836001600160a01b0316815260200182815260200195505050505050600060405180830381600087803b1580156105b157600080fd5b505af11580156105c5573d6000803e3d6000fd5b50505050505050505050505050565b6106067f00000000000000000000000000000000000000000000000000000000000000006001600160a01b03166109a9565b6001600160a01b038116610661576040805162461bcd60e51b815260206004820152601760248201527f4e657720616464726573732069206e6f742076616c6964000000000000000000604482015290519081900360640190fd5b8161068257600480546001600160a01b0319166001600160a01b0383161790555b81600114156106a757600380546001600160a01b0319166001600160a01b0383161790555b81600214156106cc57600580546001600160a01b0319166001600160a01b0383161790555b81600314156106f157600280546001600160a01b0319166001600160a01b0383161790555b816004141561071657600680546001600160a01b0319166001600160a01b0383161790555b816005141561073b57600780546001600160a01b0319166001600160a01b0383161790555b5050565b6006546001600160a01b031681565b6004546001600160a01b031681565b6002546001600160a01b031681565b6005546001600160a01b031681565b6007546001600160a01b031681565b600260015414156107e2576040805162461bcd60e51b815260206004820152601f60248201527f5265656e7472616e637947756172643a207265656e7472616e742063616c6c00604482015290519081900360640190fd5b60026001556040805162461bcd60e51b815260206004820152600760248201527f6e6f20696d706c00000000000000000000000000000000000000000000000000604482015290519081900360640190fd5b7f000000000000000000000000000000000000000000000000000000000000000081565b600260015414156108b0576040805162461bcd60e51b815260206004820152601f60248201527f5265656e7472616e637947756172643a207265656e7472616e742063616c6c00604482015290519081900360640190fd5b60026001556108c28585858585610ace565b505060018055505050565b60006001600160a01b038216158061090157506001600160a01b03821673eeeeeeeeeeeeeeeeeeeeeeeeeeeeeeeeeeeeeeee145b1561091757506001600160a01b03821631610993565b816001600160a01b03166370a08231846040518263ffffffff1660e01b815260040180826001600160a01b0316815260200191505060206040518083038186803b15801561096457600080fd5b505afa158015610978573d6000803e3d6000fd5b505050506040513d602081101561098e57600080fd5b505190505b92915050565b8082038281111561099357600080fd5b806001600160a01b0316638da5cb5b6040518163ffffffff1660e01b815260040160206040518083038186803b1580156109e257600080fd5b505afa1580156109f6573d6000803e3d6000fd5b505050506040513d6020811015610a0c57600080fd5b50516001600160a01b0316331480610a905750806001600160a01b0316638d97e0436040518163ffffffff1660e01b815260040160206040518083038186803b158015610a5857600080fd5b505afa158015610a6c573d6000803e3d6000fd5b505050506040513d6020811015610a8257600080fd5b50516001600160a01b031633145b610acb5760405162461bcd60e51b815260040180806020018281038252602a81526020018061292d602a913960400191505060405180910390fd5b50565b816001600160a01b0316846001600160a01b03161415610aed576116f3565b606060006001600160a01b0384167324e79e946dea5482212c38aab2d0782f04cdb0e01415610e3e576000737fc66500c84a76ad7e9c93437bfc5ac33e2ddae96001600160a01b03166370a08231896040518263ffffffff1660e01b815260040180826001600160a01b0316815260200191505060206040518083038186803b158015610b7957600080fd5b505afa158015610b8d573d6000803e3d6000fd5b505050506040513d6020811015610ba357600080fd5b505190506001600160a01b038716737fc66500c84a76ad7e9c93437bfc5ac33e2ddae914610cfb57600354604080516307d0e54160e51b81526001600160a01b038b811660048301528a81166024830152604482018a9052737fc66500c84a76ad7e9c93437bfc5ac33e2ddae96064830152600160848301529151919092169163fa1ca8209160a480830192600092919082900301818387803b158015610c4957600080fd5b505af1158015610c5d573d6000803e3d6000fd5b50505050610cf881737fc66500c84a76ad7e9c93437bfc5ac33e2ddae96001600160a01b03166370a082318b6040518263ffffffff1660e01b815260040180826001600160a01b0316815260200191505060206040518083038186803b158015610cc657600080fd5b505afa158015610cda573d6000803e3d6000fd5b505050506040513d6020811015610cf057600080fd5b505190610999565b90505b600754604080516307d0e54160e51b81526001600160a01b038b81166004830152737fc66500c84a76ad7e9c93437bfc5ac33e2ddae96024830152604482018590527324e79e946dea5482212c38aab2d0782f04cdb0e06064830152608482018890529151919092169163fa1ca8209160a480830192600092919082900301818387803b158015610d8b57600080fd5b505af1925050508015610d9c575060015b610e3457610da8612886565b80610db35750610e25565b610e1d84826040518060400160405280601a81526020017f50616c6164696e20547261646520496e746567726174696f6e20000000000000815250737fc66500c84a76ad7e9c93437bfc5ac33e2ddae97324e79e946dea5482212c38aab2d0782f04cdb0e06116fa565b935050610e2f565b3d6000803e3d6000fd5b610e3c565b5050506116f3565b505b7f00000000000000000000000000000000000000000000000000000000000000006001600160a01b031663b3af1743876040518263ffffffff1660e01b815260040180826001600160a01b0316815260200191505060206040518083038186803b158015610eab57600080fd5b505afa158015610ebf573d6000803e3d6000fd5b505050506040513d6020811015610ed557600080fd5b50511561111e57600073c02aaa39b223fe8d0a0e5c4f27ead9083c756cc26001600160a01b03166370a08231896040518263ffffffff1660e01b815260040180826001600160a01b0316815260200191505060206040518083038186803b158015610f3f57600080fd5b505afa158015610f53573d6000803e3d6000fd5b505050506040513d6020811015610f6957600080fd5b5051600654604080516307d0e54160e51b81526001600160a01b038c811660048301528b81166024830152604482018b905273c02aaa39b223fe8d0a0e5c4f27ead9083c756cc2606483015260016084830152915193945091169163fa1ca8209160a48082019260009290919082900301818387803b158015610feb57600080fd5b505af1925050508015610ffc575060015b61107157611008612886565b806110135750610e25565b61106984826040518060400160405280601881526020017f486561727420547261646520496e746567726174696f6e2000000000000000008152508b73c02aaa39b223fe8d0a0e5c4f27ead9083c756cc26116fa565b93505061111c565b73c02aaa39b223fe8d0a0e5c4f27ead9083c756cc296506110ed8173c02aaa39b223fe8d0a0e5c4f27ead9083c756cc26001600160a01b03166370a082318b6040518263ffffffff1660e01b815260040180826001600160a01b0316815260200191505060206040518083038186803b158015610cc657600080fd5b95506001600160a01b03851673c02aaa39b223fe8d0a0e5c4f27ead9083c756cc2141561111c575050506116f3565b505b61112b8787878787611715565b9092509050801561113d5750506116f3565b60048054604080516307d0e54160e51b81526001600160a01b038b8116948201949094528984166024820152604481018990528784166064820152608481018790529051929091169163fa1ca8209160a48082019260009290919082900301818387803b1580156111ad57600080fd5b505af19250505080156111be575060015b61121f576111ca612886565b806111d55750610e25565b61121783826040518060400160405280600681526020017f43757276652000000000000000000000000000000000000000000000000000008152508a896116fa565b925050611226565b50506116f3565b60035460408051633da531d760e21b81526001600160a01b038a8116600483015289811660248301526044820189905287811660648301526084820187905273c02aaa39b223fe8d0a0e5c4f27ead9083c756cc260a48301529151919092169163f694c75c9160c480830192600092919082900301818387803b1580156112ac57600080fd5b505af19250505080156112bd575060015b61121f576112c9612886565b806112d45750610e25565b61131483826040518060400160405280600681526020016502ab734ab19960d51b8152508a73c02aaa39b223fe8d0a0e5c4f27ead9083c756cc28a611ce5565b925050611325878787878787611ea1565b909250905080156113375750506116f3565b60408051608081018252736b175474e89094c44da98b954eedeac495271d0f815273a0b86991c6218b36c1d19d4a2e9eb0ce3606eb486020820152732260fac5e5542a773aa44fbcfedf7c193bc2c5999181019190915273dac17f958d2ee523a2206206994597c13d831ec7606082015260005b60048110156114d5576003546001600160a01b031663f694c75c8a8a8a8a8a8888600481106113d657fe5b60200201516040518763ffffffff1660e01b815260040180876001600160a01b03168152602001866001600160a01b03168152602001858152602001846001600160a01b03168152602001838152602001826001600160a01b031681526020019650505050505050600060405180830381600087803b15801561145857600080fd5b505af1925050508015611469575060015b6114c457611475612886565b806114805750610e25565b6114bc85826040518060400160405280600681526020016502ab734ab19960d51b8152508c8787600481106114b157fe5b60200201518c611ce5565b9450506114cd565b505050506116f3565b6001016113ab565b5060018411156115e85760025460408051633da531d760e21b81526001600160a01b038b811660048301528a81166024830152604482018a905288811660648301526084820188905273c02aaa39b223fe8d0a0e5c4f27ead9083c756cc260a48301529151919092169163f694c75c9160c480830192600092919082900301818387803b15801561156557600080fd5b505af1925050508015611576575060015b610e3457611582612886565b8061158d5750610e25565b6115e484826040518060400160405280600681526020017f556e6956322000000000000000000000000000000000000000000000000000008152508b73c02aaa39b223fe8d0a0e5c4f27ead9083c756cc28b611ce5565b9350505b8260405160200180807f4d6173746572537761707065723a000000000000000000000000000000000000815250600e0182805190602001908083835b602083106116435780518252601f199092019160209182019101611624565b51815160209384036101000a60001901801990921691161790526040805192909401828103601f190183529384905262461bcd60e51b84526004840181815282516024860152825192965094508493604401925085019080838360005b838110156116b85781810151838201526020016116a0565b50505050905090810190601f1680156116e55780820380516001836020036101000a031916815260200191505b509250505060405180910390fd5b5050505050565b606061170b86868686600087611ce5565b9695505050505050565b606060008061172387612238565b9050600061173086612238565b90506001600160a01b0382161580159061175257506001600160a01b03811615155b806117b257506001600160a01b038216158015906117b257506001600160a01b038616736b175474e89094c44da98b954eedeac495271d0f14806117b257506001600160a01b03861673a0b86991c6218b36c1d19d4a2e9eb0ce3606eb48145b8061181257506001600160a01b0386161580159061181257506001600160a01b038216736b175474e89094c44da98b954eedeac495271d0f148061181257506001600160a01b03821673a0b86991c6218b36c1d19d4a2e9eb0ce3606eb48145b1561190e57600554604080516307d0e54160e51b81526001600160a01b038c811660048301528b81166024830152604482018b90528981166064830152608482018990529151919092169163fa1ca8209160a480830192600092919082900301818387803b15801561188357600080fd5b505af1925050508015611894575060015b6118f2576118a0612886565b806118ab5750610e25565b6118e4604051806020016040528060008152508260405180604001604052806005815260200164029bcb73a160dd1b8152508c8b6116fa565b600094509450505050611cdb565b5050604080516020810190915260008152915060019050611cdb565b6001600160a01b03821615611aa357600061193d8a736b175474e89094c44da98b954eedeac495271d0f6108cd565b600554604080516307d0e54160e51b81526001600160a01b038e811660048301528d81166024830152604482018d9052736b175474e89094c44da98b954eedeac495271d0f606483015260016084830152915193945091169163fa1ca8209160a48082019260009290919082900301818387803b1580156119bd57600080fd5b505af19250505080156119ce575060015b611a42576119da612886565b806119e55750610e25565b611a33604051806020016040528060008152508260405180604001604052806005815260200164029bcb73a160dd1b8152508d736b175474e89094c44da98b954eedeac495271d0f8d611ce5565b60009550955050505050611cdb565b611a848a736b175474e89094c44da98b954eedeac495271d0f611a7d8461053c8f736b175474e89094c44da98b954eedeac495271d0f6108cd565b8a8a610ace565b6001604051806020016040528060008152509094509450505050611cdb565b6001600160a01b03811615611cc1576000611ad28a736b175474e89094c44da98b954eedeac495271d0f6108cd565b90506001600160a01b038916736b175474e89094c44da98b954eedeac495271d0f14611b3f57611b1a8a8a8a736b175474e89094c44da98b954eedeac495271d0f6001610ace565b611b3c8161053c8c736b175474e89094c44da98b954eedeac495271d0f6108cd565b90505b600554604080516307d0e54160e51b81526001600160a01b038d81166004830152736b175474e89094c44da98b954eedeac495271d0f6024830152604482018590528a81166064830152608482018a90529151919092169163fa1ca8209160a480830192600092919082900301818387803b158015611bbd57600080fd5b505af1925050508015611bce575060015b611a8457611bda612886565b80611be55750610e25565b8060405160200180807f4661696c6564206d696477617920696e206f75742073796e7468000000000000815250601a0182805190602001908083835b60208310611c405780518252601f199092019160209182019101611c21565b51815160001960209485036101000a019081169019909116179052603b60f81b9390910192835260408051601e19818603018152600185019182905262461bcd60e51b9091526005840182815281516025860152815191965094508493604501925090850190808383600083156116b85781810151838201526020016116a0565b600060405180602001604052806000815250909350935050505b9550959350505050565b60608685611d1a6001600160a01b03861615611d0b57611d06878787612481565b611d15565b611d158786612532565b6125b3565b886040516020018085805190602001908083835b60208310611d4d5780518252601f199092019160209182019101611d2e565b51815160209384036101000a600019018019909216911617905287519190930192870191508083835b60208310611d955780518252601f199092019160209182019101611d76565b51815160209384036101000a600019018019909216911617905286519190930192860191508083835b60208310611ddd5780518252601f199092019160209182019101611dbe565b6001836020036101000a038019825116818451168082178552505050505050905001807f3a0000000000000000000000000000000000000000000000000000000000000081525060010182805190602001908083835b60208310611e525780518252601f199092019160209182019101611e33565b6001836020036101000a03801982511681845116808217855250505050505090500180603b60f81b81525060010194505050505060405160208183030381529060405290509695505050505050565b60408051608081018252736b175474e89094c44da98b954eedeac495271d0f815273c02aaa39b223fe8d0a0e5c4f27ead9083c756cc26020820152732260fac5e5542a773aa44fbcfedf7c193bc2c59991810191909152737fc66500c84a76ad7e9c93437bfc5ac33e2ddae960608281019190915290600090815b600481101561222357818160048110611f3157fe5b60200201516001600160a01b0316896001600160a01b031614158015611f795750818160048110611f5e57fe5b60200201516001600160a01b0316876001600160a01b031614155b1561221b576003546004805430926334521da7926001600160a01b039182169290911690869086908110611fa957fe5b6020020151604080517fffffffff0000000000000000000000000000000000000000000000000000000060e087901b1681526001600160a01b03948516600482015292841660248401529083166044830152828f166064830152828e16608483015260a482018d9052918b1660c482015260e481018a9052905161010480830192600092919082900301818387803b15801561204457600080fd5b505af1925050508015612055575060015b6120c757612061612886565b8061206c5750610e25565b6120bf86826040518060400160405280600a81526020017f556e692d437572766520000000000000000000000000000000000000000000008152508d8787600481106120b457fe5b60200201518d611ce5565b9550506120e3565b505060408051602081019091526000815291506001905061222d565b6004805460035430926334521da7926001600160a01b0390811692169086908690811061210c57fe5b6020020151604080517fffffffff0000000000000000000000000000000000000000000000000000000060e087901b1681526001600160a01b03948516600482015292841660248401529083166044830152828f166064830152828e16608483015260a482018d9052918b1660c482015260e481018a9052905161010480830192600092919082900301818387803b1580156121a757600080fd5b505af19250505080156121b8575060015b6120c7576121c4612886565b806121cf5750610e25565b61221786826040518060400160405280600a81526020017f43757276652d556e6920000000000000000000000000000000000000000000008152508d8787600481106120b457fe5b9550505b600101611f1c565b5083600092509250505b965096945050505050565b60008073c011a73ee8576fb46f5e1c5751ca3b9fe0af2a6f6001600160a01b031663d4b839926040518163ffffffff1660e01b815260040160206040518083038186803b15801561228857600080fd5b505afa15801561229c573d6000803e3d6000fd5b505050506040513d60208110156122b257600080fd5b5051604080517f95d89b4100000000000000000000000000000000000000000000000000000000815290519192506001600160a01b0380841692633260803992612411928816916395d89b4191600480820192600092909190829003018186803b15801561231f57600080fd5b505afa158015612333573d6000803e3d6000fd5b505050506040513d6000823e601f3d908101601f19168201604052602081101561235c57600080fd5b810190808051604051939291908464010000000082111561237c57600080fd5b90830190602082018581111561239157600080fd5b82516401000000008111828201881017156123ab57600080fd5b82525081516020918201929091019080838360005b838110156123d85781810151838201526020016123c0565b50505050905090810190601f1680156124055780820380516001836020036101000a031916815260200191505b50604052505050612862565b6040518263ffffffff1660e01b81526004018082815260200191505060206040518083038186803b15801561244557600080fd5b505afa92505050801561246a57506040513d602081101561246557600080fd5b505160015b612478576000915050610432565b91506104329050565b604080516003808252608082019092526060916000919060208201848036833701905050905084816000815181106124b557fe5b60200260200101906001600160a01b031690816001600160a01b03168152505083816001815181106124e357fe5b60200260200101906001600160a01b031690816001600160a01b031681525050828160028151811061251157fe5b6001600160a01b039092166020928302919091019091015290509392505050565b60408051600280825260608083018452926000929190602083019080368337019050509050838160008151811061256557fe5b60200260200101906001600160a01b031690816001600160a01b031681525050828160018151811061259357fe5b6001600160a01b0390921660209283029190910190910152905092915050565b60608060005b835181101561285b57818482815181106125cf57fe5b60200260200101516001600160a01b03166395d89b416040518163ffffffff1660e01b815260040160006040518083038186803b15801561260f57600080fd5b505afa158015612623573d6000803e3d6000fd5b505050506040513d6000823e601f3d908101601f19168201604052602081101561264c57600080fd5b810190808051604051939291908464010000000082111561266c57600080fd5b90830190602082018581111561268157600080fd5b825164010000000081118282018810171561269b57600080fd5b82525081516020918201929091019080838360005b838110156126c85781810151838201526020016126b0565b50505050905090810190601f1680156126f55780820380516001836020036101000a031916815260200191505b50604052505050600186510383141561271d5760405180602001604052806000815250612754565b6040518060400160405280600281526020017f2d3e0000000000000000000000000000000000000000000000000000000000008152505b6040516020018084805190602001908083835b602083106127865780518252601f199092019160209182019101612767565b51815160209384036101000a600019018019909216911617905286519190930192860191508083835b602083106127ce5780518252601f1990920191602091820191016127af565b51815160209384036101000a600019018019909216911617905285519190930192850191508083835b602083106128165780518252601f1990920191602091820191016127f7565b6001836020036101000a0380198251168184511680821785525050505050509050019350505050604051602081830303815290604052915080806001019150506125b9565b5092915050565b80516000908290612877575060009050610432565b50506020015190565b60e01c90565b600060443d101561289657612929565b600481823e6308c379a06128aa8251612880565b146128b457612929565b6040513d600319016004823e80513d67ffffffffffffffff81602484011181841117156128e45750505050612929565b828401925082519150808211156128fe5750505050612929565b503d8301602082840101111561291657505050612929565b601f01601f191681016020016040529150505b9056fe4f6e6c7920676f7665726e616e6365206f7220656d657267656e63792063616e2063616c6c2074686973a2646970667358221220de4409ba35c3e27d74877be559e033fdfda24becbb346c3ec201b0b78b1695c764736f6c63430007060033",
  "devdoc": {
    "author": "Babylon Finance Protocol Master class for integration with trading protocols",
    "kind": "dev",
    "methods": {
      "constructor": {
        "params": {
          "_controller": "Address of the controller",
          "_curve": "Address of curve trade integration",
          "_hearttrade": "Address of heart trade integration",
          "_paladinTrade": "Address of paladin trade integration",
          "_synthetix": "Address of synthetix trade integration",
          "_univ2": "Address of univ2 trade integration",
          "_univ3": "Address of univ3 trade integration"
        }
      },
      "trade(address,address,uint256,address,uint256)": {
        "details": "@param _strategy             Address of the strategy",
        "params": {
          "_minReceiveQuantity": "Min units of wanted token to be received from the exchange",
          "_receiveToken": "Address of the token that will be received from the exchange",
          "_sendQuantity": "Units of reserve asset token sent to the exchange",
          "_sendToken": "Address of the token to be sent to the exchange"
        }
      },
      "trade(address,address,uint256,address,uint256,address)": {
        "details": "Should be never called. Only implemented to satisfy ITradeIntegration"
      },
      "updateTradeAddress(uint256,address)": {
        "params": {
          "_index": "Index to update",
          "_newAddress": "New address"
        }
      }
    },
    "title": "MasterSwapper",
    "version": 1
  },
  "userdoc": {
    "kind": "user",
    "methods": {
      "constructor": {
        "notice": "Creates the master swapper"
      },
      "trade(address,address,uint256,address,uint256)": {
        "notice": "Executes a trade choosing the appropriate protocol for it"
      },
      "updateTradeAddress(uint256,address)": {
        "notice": "Function to update the internal mappings of the swapper"
      }
    },
    "version": 1
  },
  "storageLayout": {
    "storage": [
      {
        "astId": 27081,
        "contract": "contracts/integrations/trade/MasterSwapper.sol:MasterSwapper",
        "label": "name",
        "offset": 0,
        "slot": "0",
        "type": "t_string_storage"
      },
      {
        "astId": 6418,
        "contract": "contracts/integrations/trade/MasterSwapper.sol:MasterSwapper",
        "label": "_status",
        "offset": 0,
        "slot": "1",
        "type": "t_uint256"
      },
      {
        "astId": 38106,
        "contract": "contracts/integrations/trade/MasterSwapper.sol:MasterSwapper",
        "label": "univ2",
        "offset": 0,
        "slot": "2",
        "type": "t_contract(ITradeIntegration)43885"
      },
      {
        "astId": 38108,
        "contract": "contracts/integrations/trade/MasterSwapper.sol:MasterSwapper",
        "label": "univ3",
        "offset": 0,
        "slot": "3",
        "type": "t_contract(ITradeIntegration)43885"
      },
      {
        "astId": 38110,
        "contract": "contracts/integrations/trade/MasterSwapper.sol:MasterSwapper",
        "label": "curve",
        "offset": 0,
        "slot": "4",
        "type": "t_contract(ITradeIntegration)43885"
      },
      {
        "astId": 38112,
        "contract": "contracts/integrations/trade/MasterSwapper.sol:MasterSwapper",
        "label": "synthetix",
        "offset": 0,
        "slot": "5",
        "type": "t_contract(ITradeIntegration)43885"
      },
      {
        "astId": 38114,
        "contract": "contracts/integrations/trade/MasterSwapper.sol:MasterSwapper",
        "label": "heartTradeIntegration",
        "offset": 0,
        "slot": "6",
        "type": "t_contract(ITradeIntegration)43885"
      },
      {
        "astId": 38116,
        "contract": "contracts/integrations/trade/MasterSwapper.sol:MasterSwapper",
        "label": "paladinTradeIntegration",
        "offset": 0,
        "slot": "7",
        "type": "t_contract(ITradeIntegration)43885"
      }
    ],
    "types": {
      "t_contract(ITradeIntegration)43885": {
        "encoding": "inplace",
        "label": "contract ITradeIntegration",
        "numberOfBytes": "20"
      },
      "t_string_storage": {
        "encoding": "bytes",
        "label": "string",
        "numberOfBytes": "32"
      },
      "t_uint256": {
        "encoding": "inplace",
        "label": "uint256",
        "numberOfBytes": "32"
      }
    }
  }
}