{
  "address": "0x9bA88dc60F499c50a0bD2FB92b22f5a0a4b0e99c",
  "abi": [
    {
      "inputs": [
        {
          "internalType": "contract IBabController",
          "name": "_controller",
          "type": "address"
        },
        {
          "internalType": "contract ITradeIntegration",
          "name": "_curve",
          "type": "address"
        },
        {
          "internalType": "contract ITradeIntegration",
          "name": "_univ3",
          "type": "address"
        },
        {
          "internalType": "contract ITradeIntegration",
          "name": "_synthetix",
          "type": "address"
        },
        {
          "internalType": "contract ITradeIntegration",
          "name": "_univ2",
          "type": "address"
        }
      ],
      "stateMutability": "nonpayable",
      "type": "constructor"
    },
    {
      "inputs": [],
      "name": "controller",
      "outputs": [
        {
          "internalType": "contract IBabController",
          "name": "",
          "type": "address"
        }
      ],
      "stateMutability": "view",
      "type": "function"
    },
    {
      "inputs": [],
      "name": "getName",
      "outputs": [
        {
          "internalType": "string",
          "name": "",
          "type": "string"
        }
      ],
      "stateMutability": "view",
      "type": "function"
    },
    {
      "inputs": [
        {
          "internalType": "address",
          "name": "_integration",
          "type": "address"
        }
      ],
      "name": "isTradeIntegration",
      "outputs": [
        {
          "internalType": "bool",
          "name": "",
          "type": "bool"
        }
      ],
      "stateMutability": "view",
      "type": "function"
    },
    {
      "inputs": [],
      "name": "name",
      "outputs": [
        {
          "internalType": "string",
          "name": "",
          "type": "string"
        }
      ],
      "stateMutability": "view",
      "type": "function"
    },
    {
      "inputs": [
        {
          "internalType": "address",
          "name": "_strategy",
          "type": "address"
        },
        {
          "internalType": "address",
          "name": "_sendToken",
          "type": "address"
        },
        {
          "internalType": "uint256",
          "name": "_sendQuantity",
          "type": "uint256"
        },
        {
          "internalType": "address",
          "name": "_receiveToken",
          "type": "address"
        },
        {
          "internalType": "uint256",
          "name": "_minReceiveQuantity",
          "type": "uint256"
        }
      ],
      "name": "trade",
      "outputs": [],
      "stateMutability": "nonpayable",
      "type": "function"
    },
    {
      "inputs": [
        {
          "internalType": "uint256",
          "name": "_index",
          "type": "uint256"
        },
        {
          "internalType": "address",
          "name": "_newAddress",
          "type": "address"
        }
      ],
      "name": "updateTradeAddress",
      "outputs": [],
      "stateMutability": "nonpayable",
      "type": "function"
    }
  ],
  "transactionHash": "0x8821f655b45fc694c543544767b663fda61d5c2861c3c3fb2f5df7c92a578eb4",
  "args": [
    "0xD4a5b5fcB561dAF3aDF86F8477555B92FBa43b5F",
    "0x9C3dD49C8cE717718dA5973a440Ca1332f0197aE",
    "0xc1117D2cfbc09500dCb386aeA5A9Ac0D42325c5F",
    "0x612F563725763bb068e533b4FABb2530A4d10b6a",
    "0x848Cd7194d8175f644A43C504E8D6C6E3976AE93"
  ],
  "solcInputHash": "a3f8ad2d1974afa3e3c49c90878ef68c",
  "bytecode": "0x60806040523480156200001157600080fd5b5060405162001ef438038062001ef4833981810160405260a08110156200003757600080fd5b50805160208083015160408085015160608601516080909601518251808401909352601183527036b0b9ba32b92fb9bbb0b83832b92fbb1960791b94830194909452939491939290856001600160a01b038116620000dc576040805162461bcd60e51b815260206004820152601a60248201527f436f6e74726f6c6c6572206d75737420626520646566696e6564000000000000604482015290519081900360640190fd5b8151620000f19060019060208501906200015a565b50600080546001600160a01b03199081166001600160a01b03938416179091556001600255600380548216978316979097179096556004805487169582169590951790945550600580548516928416929092179091556006805490931691161790555062000206565b828054600181600116156101000203166002900490600052602060002090601f016020900481019282620001925760008555620001dd565b82601f10620001ad57805160ff1916838001178555620001dd565b82800160010185558215620001dd579182015b82811115620001dd578251825591602001919060010190620001c0565b50620001eb929150620001ef565b5090565b5b80821115620001eb5760008155600101620001f0565b611cde80620002166000396000f3fe608060405234801561001057600080fd5b50600436106100725760003560e01c80634435a7e0116100505780634435a7e014610136578063f77c479114610164578063fa1ca8201461018857610072565b806306fdde031461007757806317d7de7c146100f45780632d108f41146100fc575b600080fd5b61007f6101cc565b6040805160208082528351818301528351919283929083019185019080838360005b838110156100b95781810151838201526020016100a1565b50505050905090810190601f1680156100e65780820380516001836020036101000a031916815260200191505b509250505060405180910390f35b61007f610259565b6101226004803603602081101561011257600080fd5b50356001600160a01b03166102ee565b604080519115158252519081900360200190f35b6101626004803603604081101561014c57600080fd5b50803590602001356001600160a01b0316610352565b005b61016c610549565b604080516001600160a01b039092168252519081900360200190f35b610162600480360360a081101561019e57600080fd5b506001600160a01b038135811691602081013582169160408201359160608101359091169060800135610558565b60018054604080516020600284861615610100026000190190941693909304601f810184900484028201840190925281815292918301828280156102515780601f1061022657610100808354040283529160200191610251565b820191906000526020600020905b81548152906001019060200180831161023457829003601f168201915b505050505081565b60018054604080516020601f600260001961010087891615020190951694909404938401819004810282018101909252828152606093909290918301828280156102e45780601f106102b9576101008083540402835291602001916102e4565b820191906000526020600020905b8154815290600101906020018083116102c757829003601f168201915b5050505050905090565b6003546000906001600160a01b038381169116148061031a57506004546001600160a01b038381169116145b8061033257506005546001600160a01b038381169116145b8061034a57506006546001600160a01b038381169116145b90505b919050565b60008054906101000a90046001600160a01b03166001600160a01b0316638da5cb5b6040518163ffffffff1660e01b815260040160206040518083038186803b15801561039e57600080fd5b505afa1580156103b2573d6000803e3d6000fd5b505050506040513d60208110156103c857600080fd5b50516001600160a01b03163314610426576040805162461bcd60e51b815260206004820152601d60248201527f4f6e6c7920676f7665726e616e63652063616e2063616c6c2074686973000000604482015290519081900360640190fd5b6001600160a01b038116610481576040805162461bcd60e51b815260206004820152601760248201527f4e657720616464726573732069206e6f742076616c6964000000000000000000604482015290519081900360640190fd5b816104af576003805473ffffffffffffffffffffffffffffffffffffffff19166001600160a01b0383161790555b81600114156104e1576004805473ffffffffffffffffffffffffffffffffffffffff19166001600160a01b0383161790555b8160021415610513576005805473ffffffffffffffffffffffffffffffffffffffff19166001600160a01b0383161790555b8160031415610545576006805473ffffffffffffffffffffffffffffffffffffffff19166001600160a01b0383161790555b5050565b6000546001600160a01b031681565b6002805414156105af576040805162461bcd60e51b815260206004820152601f60248201527f5265656e7472616e637947756172643a207265656e7472616e742063616c6c00604482015290519081900360640190fd5b600280556105c085858585856105cc565b50506001600255505050565b816001600160a01b0316846001600160a01b031614156105eb57611240565b60006105f685611247565b9050600061060384611247565b90506001600160a01b0382161580159061062557506001600160a01b03811615155b8061068557506001600160a01b0382161580159061068557506001600160a01b038416736b175474e89094c44da98b954eedeac495271d0f148061068557506001600160a01b03841673a0b86991c6218b36c1d19d4a2e9eb0ce3606eb48145b806106e557506001600160a01b038416158015906106e557506001600160a01b038216736b175474e89094c44da98b954eedeac495271d0f14806106e557506001600160a01b03821673a0b86991c6218b36c1d19d4a2e9eb0ce3606eb48145b1561077757600554604080516307d0e54160e51b81526001600160a01b038a811660048301528981166024830152604482018990528781166064830152608482018790529151919092169163fa1ca8209160a480830192600092919082900301818387803b15801561075657600080fd5b505af1925050508015610767575060015b61077057610777565b5050611240565b6107848787868887611490565b15610790575050611240565b6001600160a01b038216156108ab5760006107bf88736b175474e89094c44da98b954eedeac495271d0f611552565b600554604080516307d0e54160e51b81526001600160a01b038c811660048301528b81166024830152604482018b9052736b175474e89094c44da98b954eedeac495271d0f606483015260016084830152915193945091169163fa1ca8209160a48082019260009290919082900301818387803b15801561083f57600080fd5b505af1925050508015610850575060015b610859576108a9565b6108a188736b175474e89094c44da98b954eedeac495271d0f61089a846108948d736b175474e89094c44da98b954eedeac495271d0f611552565b9061161e565b88886105cc565b505050611240565b505b6001600160a01b03811615610a285760006001600160a01b038716736b175474e89094c44da98b954eedeac495271d0f14610922576108fe88736b175474e89094c44da98b954eedeac495271d0f611552565b9050610922888888736b175474e89094c44da98b954eedeac495271d0f60016105cc565b6005546001600160a01b031663fa1ca82089736b175474e89094c44da98b954eedeac495271d0f610957856108948484611552565b89896040518663ffffffff1660e01b815260040180866001600160a01b03168152602001856001600160a01b03168152602001848152602001836001600160a01b0316815260200182815260200195505050505050600060405180830381600087803b1580156109c657600080fd5b505af19250505080156109d7575060015b6108a1576040805162461bcd60e51b815260206004820152601a60248201527f4661696c6564206d696477617920696e206f75742073796e7468000000000000604482015290519081900360640190fd5b60048054604080516307d0e54160e51b81526001600160a01b038b8116948201949094528984166024820152604481018990528784166064820152608481018790529051929091169163fa1ca8209160a48082019260009290919082900301818387803b158015610a9857600080fd5b505af1925050508015610aa9575060015b6107705760408051606081018252736b175474e89094c44da98b954eedeac495271d0f815273c02aaa39b223fe8d0a0e5c4f27ead9083c756cc26020820152732260fac5e5542a773aa44fbcfedf7c193bc2c59991810191909152610b1290888887898861162e565b15610b1e575050611240565b6000610b2a8888611552565b9050808610610b395780610b3b565b855b95506001600160a01b03871673c02aaa39b223fe8d0a0e5c4f27ead9083c756cc214801590610b8757506001600160a01b03851673c02aaa39b223fe8d0a0e5c4f27ead9083c756cc214155b15610dad576000610bac8973c02aaa39b223fe8d0a0e5c4f27ead9083c756cc2611552565b60048054604080516307d0e54160e51b81526001600160a01b038e8116948201949094528c84166024820152604481018c905273c02aaa39b223fe8d0a0e5c4f27ead9083c756cc2606482015260016084820152905193945091169163fa1ca8209160a48082019260009290919082900301818387803b158015610c2f57600080fd5b505af1925050508015610c40575060015b610c4957610dab565b610c6b816108948b73c02aaa39b223fe8d0a0e5c4f27ead9083c756cc2611552565b60048054604080516307d0e54160e51b81526001600160a01b038e81169482019490945273c02aaa39b223fe8d0a0e5c4f27ead9083c756cc26024820152604481018590528a84166064820152608481018a9052905193945091169163fa1ca8209160a48082019260009290919082900301818387803b158015610cee57600080fd5b505af1925050508015610cff575060015b610da25760048054604080516307d0e54160e51b81526001600160a01b038d81169482019490945273c02aaa39b223fe8d0a0e5c4f27ead9083c756cc26024820152604481018590528b84166064820152600160848201529051929091169163fa1ca8209160a48082019260009290919082900301818387803b158015610d8557600080fd5b505af1158015610d99573d6000803e3d6000fd5b50505050610dab565b50505050611240565b505b6001600160a01b038716736b175474e89094c44da98b954eedeac495271d0f14801590610df757506001600160a01b038516736b175474e89094c44da98b954eedeac495271d0f14155b15611010576000610e1c89736b175474e89094c44da98b954eedeac495271d0f611552565b60048054604080516307d0e54160e51b81526001600160a01b038e8116948201949094528c84166024820152604481018c9052736b175474e89094c44da98b954eedeac495271d0f606482015260016084820152905193945091169163fa1ca8209160a48082019260009290919082900301818387803b158015610e9f57600080fd5b505af1925050508015610eb0575060015b610eb95761100e565b610edb816108948b736b175474e89094c44da98b954eedeac495271d0f611552565b60048054604080516307d0e54160e51b81526001600160a01b038e811694820194909452736b175474e89094c44da98b954eedeac495271d0f6024820152604481018590528a84166064820152608481018a9052905193945091169163fa1ca8209160a48082019260009290919082900301818387803b158015610f5e57600080fd5b505af1925050508015610f6f575060015b610da25760048054604080516307d0e54160e51b81526001600160a01b038d811694820194909452736b175474e89094c44da98b954eedeac495271d0f6024820152604481018590528b84166064820152600160848201529051929091169163fa1ca8209160a48082019260009290919082900301818387803b158015610ff557600080fd5b505af1158015611009573d6000803e3d6000fd5b505050505b505b61101a8888611552565b9050808610611029578061102b565b855b955060018411156111f35760006110568973c02aaa39b223fe8d0a0e5c4f27ead9083c756cc2611552565b90506001600160a01b03881673c02aaa39b223fe8d0a0e5c4f27ead9083c756cc21461113957600654604080516307d0e54160e51b81526001600160a01b038c811660048301528b81166024830152604482018b905273c02aaa39b223fe8d0a0e5c4f27ead9083c756cc26064830152600260848301529151919092169163fa1ca8209160a480830192600092919082900301818387803b1580156110fa57600080fd5b505af192505050801561110b575060015b61111457611139565b611136816108948b73c02aaa39b223fe8d0a0e5c4f27ead9083c756cc2611552565b90505b6001600160a01b03861673c02aaa39b223fe8d0a0e5c4f27ead9083c756cc2146111f157600654604080516307d0e54160e51b81526001600160a01b038c8116600483015273c02aaa39b223fe8d0a0e5c4f27ead9083c756cc26024830152604482018590528981166064830152608482018990529151919092169163fa1ca8209160a480830192600092919082900301818387803b1580156111db57600080fd5b505af19250505080156111ec575060015b610da2575b505b6040805162461bcd60e51b815260206004820152601d60248201527f4d6173746572207377617070657220636f756c64206e6f742073776170000000604482015290519081900360640190fd5b5050505050565b60008073c011a73ee8576fb46f5e1c5751ca3b9fe0af2a6f6001600160a01b031663d4b839926040518163ffffffff1660e01b815260040160206040518083038186803b15801561129757600080fd5b505afa1580156112ab573d6000803e3d6000fd5b505050506040513d60208110156112c157600080fd5b5051604080517f95d89b4100000000000000000000000000000000000000000000000000000000815290519192506001600160a01b0380841692633260803992611420928816916395d89b4191600480820192600092909190829003018186803b15801561132e57600080fd5b505afa158015611342573d6000803e3d6000fd5b505050506040513d6000823e601f3d908101601f19168201604052602081101561136b57600080fd5b810190808051604051939291908464010000000082111561138b57600080fd5b9083019060208201858111156113a057600080fd5b82516401000000008111828201881017156113ba57600080fd5b82525081516020918201929091019080838360005b838110156113e75781810151838201526020016113cf565b50505050905090810190601f1680156114145780820380516001836020036101000a031916815260200191505b506040525050506116a9565b6040518263ffffffff1660e01b81526004018082815260200191505060206040518083038186803b15801561145457600080fd5b505afa92505050801561147957506040513d602081101561147457600080fd5b505160015b61148757600091505061034d565b915061034d9050565b60008061149d86866116c7565b90506001600160a01b0381161561154357600354604080516307d0e54160e51b81526001600160a01b038a811660048301528981166024830152604482018890528881166064830152608482018790529151919092169163fa1ca8209160a480830192600092919082900301818387803b15801561151a57600080fd5b505af192505050801561152b575060015b611539576000915050611549565b6001915050611549565b60009150505b95945050505050565b60006001600160a01b038216158061158657506001600160a01b03821673eeeeeeeeeeeeeeeeeeeeeeeeeeeeeeeeeeeeeeee145b1561159c57506001600160a01b03821631611618565b816001600160a01b03166370a08231846040518263ffffffff1660e01b815260040180826001600160a01b0316815260200191505060206040518083038186803b1580156115e957600080fd5b505afa1580156115fd573d6000803e3d6000fd5b505050506040513d602081101561161357600080fd5b505190505b92915050565b8082038281111561161857600080fd5b6000805b60038110156116995787816003811061164757fe5b60200201516001600160a01b0316866001600160a01b0316146116915761168288826003811061167357fe5b60200201518888888888611963565b1561169157600191505061169f565b600101611632565b50600090505b9695505050505050565b805160009082906116be57506000905061034d565b50506020015190565b6000806f22d53366457f9d5e68ec105046fc43836001600160a01b031663a262904b6040518163ffffffff1660e01b815260040160206040518083038186803b15801561171357600080fd5b505afa158015611727573d6000803e3d6000fd5b505050506040513d602081101561173d57600080fd5b505160408051632a1f7c1b60e21b81526001600160a01b038781166004830152868116602483015291519293506000929184169163a87df06c91604480820192602092909190829003018186803b15801561179757600080fd5b505afa1580156117ab573d6000803e3d6000fd5b505050506040513d60208110156117c157600080fd5b505190506001600160a01b0381161580156117f857506001600160a01b03851673c02aaa39b223fe8d0a0e5c4f27ead9083c756cc2145b156118905760408051632a1f7c1b60e21b815273eeeeeeeeeeeeeeeeeeeeeeeeeeeeeeeeeeeeeeee60048201526001600160a01b03868116602483015291519184169163a87df06c91604480820192602092909190829003018186803b15801561186157600080fd5b505afa158015611875573d6000803e3d6000fd5b505050506040513d602081101561188b57600080fd5b505190505b6001600160a01b0381161580156118c357506001600160a01b03841673c02aaa39b223fe8d0a0e5c4f27ead9083c756cc2145b1561195b5760408051632a1f7c1b60e21b81526001600160a01b03878116600483015273eeeeeeeeeeeeeeeeeeeeeeeeeeeeeeeeeeeeeeee602483015291519184169163a87df06c91604480820192602092909190829003018186803b15801561192c57600080fd5b505afa158015611940573d6000803e3d6000fd5b505050506040513d602081101561195657600080fd5b505190505b949350505050565b6000806119708789611552565b90506000816001600160a01b03888116908b16148015906119a4575060006119988b896116c7565b6001600160a01b031614155b15611aa25760006119b58a8a611552565b6004549091506001600160a01b031663fa1ca8208b8b8a85106119d8578a6119da565b845b8f60016040518663ffffffff1660e01b815260040180866001600160a01b03168152602001856001600160a01b03168152602001848152602001836001600160a01b0316815260200182815260200195505050505050600060405180830381600087803b158015611a4a57600080fd5b505af1925050508015611a5b575060015b611a6457611aa0565b876001600160a01b03168b6001600160a01b03161415611a8b57600194505050505061169f565b611a99846108948c8e611552565b9150600192505b505b896001600160a01b0316886001600160a01b03161480611abf5750815b15611b3557611ad1898b898489611490565b15611ae2576001935050505061169f565b8115611b35576040805162461bcd60e51b815260206004820152601860248201527f43757276652053776170206661696c6564206d69647761790000000000000000604482015290519081900360640190fd5b896001600160a01b0316886001600160a01b031614611bca576000611b5a8a8a611552565b905060009250611b6a8a8c611552565b9350611b888a8a8d8a8510611b7f578a611b81565b845b6001611490565b15611bc85760019250611b9f846108948c8e611552565b9150876001600160a01b03168b6001600160a01b03161415611bc857600194505050505061169f565b505b896001600160a01b0316886001600160a01b03161480611be75750815b15611c985760048054604080516307d0e54160e51b81526001600160a01b038d8116948201949094528d84166024820152604481018590528a84166064820152608481018990529051929091169163fa1ca8209160a48082019260009290919082900301818387803b158015611c5c57600080fd5b505af1925050508015611c6d575060015b611c8c578115611c8757611c85898b8a846001611490565b505b611c98565b6001935050505061169f565b506000999850505050505050505056fea26469706673582212209ed42ceaaf00a2212331b3a2c3a463484081e16801eda1c7f9815b5094c6e11464736f6c63430007060033",
  "devdoc": {
    "author": "Babylon Finance Protocol Master class for integration with trading protocols",
    "kind": "dev",
    "methods": {
      "constructor": {
        "params": {
          "_controller": "Address of the controller",
          "_curve": "Address of curve trade integration",
          "_synthetix": "Address of synthetix trade integration",
          "_univ2": "Address of univ2 trade integration",
          "_univ3": "Address of univ3 trade integration"
        }
      },
      "trade(address,address,uint256,address,uint256)": {
        "details": "@param _strategy             Address of the strategy",
        "params": {
          "_minReceiveQuantity": "Min units of wanted token to be received from the exchange",
          "_receiveToken": "Address of the token that will be received from the exchange",
          "_sendQuantity": "Units of reserve asset token sent to the exchange",
          "_sendToken": "Address of the token to be sent to the exchange"
        }
      },
      "updateTradeAddress(uint256,address)": {
        "params": {
          "_index": "Index to update",
          "_newAddress": "New address"
        }
      }
    },
    "title": "MasterSwapper",
    "version": 1
  },
  "userdoc": {
    "kind": "user",
    "methods": {
      "constructor": {
        "notice": "Creates the master swapper"
      },
      "getName()": {
        "notice": "Returns the name of the integration"
      },
      "trade(address,address,uint256,address,uint256)": {
        "notice": "Executes a trade choosing the appropriate protocol for it"
      },
      "updateTradeAddress(uint256,address)": {
        "notice": "Function to update the internal mappings of the swapper"
      }
    },
    "version": 1
  },
  "storageLayout": {
    "storage": [
      {
        "astId": 21852,
        "contract": "contracts/integrations/trade/MasterSwapper.sol:MasterSwapper",
        "label": "controller",
        "offset": 0,
        "slot": "0",
        "type": "t_contract(IBabController)34374"
      },
      {
        "astId": 21878,
        "contract": "contracts/integrations/trade/MasterSwapper.sol:MasterSwapper",
        "label": "name",
        "offset": 0,
        "slot": "1",
        "type": "t_string_storage"
      },
      {
        "astId": 5975,
        "contract": "contracts/integrations/trade/MasterSwapper.sol:MasterSwapper",
        "label": "_status",
        "offset": 0,
        "slot": "2",
        "type": "t_uint256"
      },
      {
        "astId": 31078,
        "contract": "contracts/integrations/trade/MasterSwapper.sol:MasterSwapper",
        "label": "curve",
        "offset": 0,
        "slot": "3",
        "type": "t_contract(ITradeIntegration)35952"
      },
      {
        "astId": 31080,
        "contract": "contracts/integrations/trade/MasterSwapper.sol:MasterSwapper",
        "label": "univ3",
        "offset": 0,
        "slot": "4",
        "type": "t_contract(ITradeIntegration)35952"
      },
      {
        "astId": 31082,
        "contract": "contracts/integrations/trade/MasterSwapper.sol:MasterSwapper",
        "label": "synthetix",
        "offset": 0,
        "slot": "5",
        "type": "t_contract(ITradeIntegration)35952"
      },
      {
        "astId": 31084,
        "contract": "contracts/integrations/trade/MasterSwapper.sol:MasterSwapper",
        "label": "univ2",
        "offset": 0,
        "slot": "6",
        "type": "t_contract(ITradeIntegration)35952"
      }
    ],
    "types": {
      "t_contract(IBabController)34374": {
        "encoding": "inplace",
        "label": "contract IBabController",
        "numberOfBytes": "20"
      },
      "t_contract(ITradeIntegration)35952": {
        "encoding": "inplace",
        "label": "contract ITradeIntegration",
        "numberOfBytes": "20"
      },
      "t_string_storage": {
        "encoding": "bytes",
        "label": "string",
        "numberOfBytes": "32"
      },
      "t_uint256": {
        "encoding": "inplace",
        "label": "uint256",
        "numberOfBytes": "32"
      }
    }
  }
}