{
  "address": "0x405d4d0260C04FFEf7B0511A59243a569E54D25D",
  "abi": [
    {
      "inputs": [
        {
          "internalType": "contract IBabController",
          "name": "_controller",
          "type": "address"
        },
        {
          "internalType": "address",
          "name": "_weth",
          "type": "address"
        },
        {
          "internalType": "address",
          "name": "_oneInchExchangeAddress",
          "type": "address"
        }
      ],
      "stateMutability": "nonpayable",
      "type": "constructor"
    },
    {
      "anonymous": false,
      "inputs": [
        {
          "indexed": true,
          "internalType": "contract IGarden",
          "name": "_garden",
          "type": "address"
        },
        {
          "indexed": true,
          "internalType": "contract IStrategy",
          "name": "_strategy",
          "type": "address"
        },
        {
          "indexed": true,
          "internalType": "address",
          "name": "_sendToken",
          "type": "address"
        },
        {
          "indexed": false,
          "internalType": "address",
          "name": "_receiveToken",
          "type": "address"
        },
        {
          "indexed": false,
          "internalType": "string",
          "name": "_exchangeName",
          "type": "string"
        },
        {
          "indexed": false,
          "internalType": "uint256",
          "name": "_totalSendAmount",
          "type": "uint256"
        },
        {
          "indexed": false,
          "internalType": "uint256",
          "name": "_totalReceiveAmount",
          "type": "uint256"
        }
      ],
      "name": "ComponentExchanged",
      "type": "event"
    },
    {
      "inputs": [],
      "name": "controller",
      "outputs": [
        {
          "internalType": "contract IBabController",
          "name": "",
          "type": "address"
        }
      ],
      "stateMutability": "view",
      "type": "function"
    },
    {
      "inputs": [
        {
          "internalType": "address",
          "name": "",
          "type": "address"
        },
        {
          "internalType": "address",
          "name": "",
          "type": "address"
        },
        {
          "internalType": "uint256",
          "name": "",
          "type": "uint256"
        }
      ],
      "name": "getConversionRates",
      "outputs": [
        {
          "internalType": "uint256",
          "name": "",
          "type": "uint256"
        },
        {
          "internalType": "uint256",
          "name": "",
          "type": "uint256"
        }
      ],
      "stateMutability": "pure",
      "type": "function"
    },
    {
      "inputs": [],
      "name": "getName",
      "outputs": [
        {
          "internalType": "string",
          "name": "",
          "type": "string"
        }
      ],
      "stateMutability": "view",
      "type": "function"
    },
    {
      "inputs": [
        {
          "internalType": "address",
          "name": "",
          "type": "address"
        }
      ],
      "name": "initializedByGarden",
      "outputs": [
        {
          "internalType": "bool",
          "name": "",
          "type": "bool"
        }
      ],
      "stateMutability": "view",
      "type": "function"
    },
    {
      "inputs": [],
      "name": "name",
      "outputs": [
        {
          "internalType": "string",
          "name": "",
          "type": "string"
        }
      ],
      "stateMutability": "view",
      "type": "function"
    },
    {
      "inputs": [],
      "name": "oneInchExchangeAddress",
      "outputs": [
        {
          "internalType": "address",
          "name": "",
          "type": "address"
        }
      ],
      "stateMutability": "view",
      "type": "function"
    },
    {
      "inputs": [
        {
          "internalType": "address",
          "name": "_strategy",
          "type": "address"
        },
        {
          "internalType": "address",
          "name": "_sendToken",
          "type": "address"
        },
        {
          "internalType": "uint256",
          "name": "_sendQuantity",
          "type": "uint256"
        },
        {
          "internalType": "address",
          "name": "_receiveToken",
          "type": "address"
        },
        {
          "internalType": "uint256",
          "name": "_minReceiveQuantity",
          "type": "uint256"
        }
      ],
      "name": "trade",
      "outputs": [],
      "stateMutability": "nonpayable",
      "type": "function"
    },
    {
      "inputs": [],
      "name": "weth",
      "outputs": [
        {
          "internalType": "address",
          "name": "",
          "type": "address"
        }
      ],
      "stateMutability": "view",
      "type": "function"
    }
  ],
  "transactionHash": "0x507bd597a8aa626d17dea8ea0a7d9541c131d9264b142190f507b0cbd6d4904a",
  "args": [
    "0xD4a5b5fcB561dAF3aDF86F8477555B92FBa43b5F",
    "0xC02aaA39b223FE8D0A0e5C4F27eAD9083C756Cc2",
    "0xC586BeF4a0992C495Cf22e1aeEE4E446CECDee0E"
  ],
  "solcInputHash": "3d00fad6e2a8def9880d61c8c4c2d9ca",
  "bytecode": "0x60a06040523480156200001157600080fd5b5060405162001ebb38038062001ebb833981810160405260608110156200003757600080fd5b50805160208083015160409384015184518086019095526005855264062d2dcc6d60db1b92850192909252919282848282826001600160a01b038116620000c5576040805162461bcd60e51b815260206004820152601a60248201527f436f6e74726f6c6c6572206d75737420626520646566696e6564000000000000604482015290519081900360640190fd5b8251620000da9060019060208601906200012f565b50600080546001600160a01b03199081166001600160a01b039384161790915560609290921b6001600160601b03191660805260016003556004805490921696169590951790945550620001db945050505050565b828054600181600116156101000203166002900490600052602060002090601f016020900481019282620001675760008555620001b2565b82601f106200018257805160ff1916838001178555620001b2565b82800160010185558215620001b2579182015b82811115620001b257825182559160200191906001019062000195565b50620001c0929150620001c4565b5090565b5b80821115620001c05760008155600101620001c5565b60805160601c611cc2620001f9600039806103395250611cc26000f3fe608060405234801561001057600080fd5b50600436106100885760003560e01c8063b10198fb1161005b578063b10198fb14610185578063c7868ace146101bf578063f77c4791146101c7578063fa1ca820146101cf57610088565b806306fdde031461008d57806317d7de7c1461010a5780633fc8cef314610112578063aa0b24fa14610136575b600080fd5b610095610215565b6040805160208082528351818301528351919283929083019185019080838360005b838110156100cf5781810151838201526020016100b7565b50505050905090810190601f1680156100fc5780820380516001836020036101000a031916815260200191505b509250505060405180910390f35b6100956102a2565b61011a610337565b604080516001600160a01b039092168252519081900360200190f35b61016c6004803603606081101561014c57600080fd5b506001600160a01b0381358116916020810135909116906040013561035b565b6040805192835260208301919091528051918290030190f35b6101ab6004803603602081101561019b57600080fd5b50356001600160a01b03166103ad565b604080519115158252519081900360200190f35b61011a6103c2565b61011a6103d1565b610213600480360360a08110156101e557600080fd5b506001600160a01b0381358116916020810135821691604082013591606081013590911690608001356103e0565b005b60018054604080516020600284861615610100026000190190941693909304601f8101849004840282018401909252818152929183018282801561029a5780601f1061026f5761010080835404028352916020019161029a565b820191906000526020600020905b81548152906001019060200180831161027d57829003601f168201915b505050505081565b60018054604080516020601f6002600019610100878916150201909516949094049384018190048102820181019092528281526060939092909183018282801561032d5780601f106103025761010080835404028352916020019161032d565b820191906000526020600020905b81548152906001019060200180831161031057829003601f168201915b5050505050905090565b7f000000000000000000000000000000000000000000000000000000000000000081565b6040805162461bcd60e51b815260206004820152600f60248201527f6e6f7420696d706c656d656e74656400000000000000000000000000000000006044820152905160009182919081900360640190fd5b60026020526000908152604090205460ff1681565b6004546001600160a01b031681565b6000546001600160a01b031681565b60026003541415610438576040805162461bcd60e51b815260206004820152601f60248201527f5265656e7472616e637947756172643a207265656e7472616e742063616c6c00604482015290519081900360640190fd5b6002600355600054604080517f13bc6d4b00000000000000000000000000000000000000000000000000000000815233600482015290516001600160a01b03909216916313bc6d4b91602480820192602092909190829003018186803b1580156104a157600080fd5b505afa1580156104b5573d6000803e3d6000fd5b505050506040513d60208110156104cb57600080fd5b505161051e576040805162461bcd60e51b815260206004820152601960248201527f4f6e6c792073797374656d2063616e2063616c6c207468697300000000000000604482015290519081900360640190fd5b60018054604080516020601f6002600019610100878916150201909516949094049384018190048102820181019092528281526000936105b9938a938301828280156105ab5780601f10610580576101008083540402835291602001916105ab565b820191906000526020600020905b81548152906001019060200180831161058e57829003601f168201915b50505050508786888761096e565b90506105c58185610c16565b80602001516001600160a01b03166397ccdc606105e06111d7565b83606001518460c001516040518463ffffffff1660e01b815260040180846001600160a01b03168152602001836001600160a01b031681526020018281526020019350505050600060405180830381600087803b15801561064057600080fd5b505af1158015610654573d6000803e3d6000fd5b5050505060008060006106758985606001518660c0015187608001516111e6565b92509250925083602001516001600160a01b0316636bc195dd8484846040518463ffffffff1660e01b815260040180846001600160a01b0316815260200183815260200180602001828103825283818151815260200191508051906020019080838360005b838110156106f25781810151838201526020016106da565b50505050905090810190601f16801561071f5780820380516001836020036101000a031916815260200191505b50945050505050600060405180830381600087803b15801561074057600080fd5b505af1158015610754573d6000803e3d6000fd5b505050506040513d6000823e601f3d908101601f19168201604052602081101561077d57600080fd5b810190808051604051939291908464010000000082111561079d57600080fd5b9083019060208201858111156107b257600080fd5b82516401000000008111828201881017156107cc57600080fd5b82525081516020918201929091019080838360005b838110156107f95781810151838201526020016107e1565b50505050905090810190601f1680156108265780820380516001836020036101000a031916815260200191505b5060405250505050600061083985611483565b905060006108598660c0015187610100015161161290919063ffffffff16565b905060006108758388610120015161167490919063ffffffff16565b90508a6001600160a01b031687602001516001600160a01b031688600001516001600160a01b03167f6896e8a2de09380c881b23755435130206166901028e7413fce46cd6ecafdb758c8b60400151878760405180856001600160a01b0316815260200180602001848152602001838152602001828103825285818151815260200191508051906020019080838360005b8381101561091e578181015183820152602001610906565b50505050905090810190601f16801561094b5780820380516001836020036101000a031916815260200191505b509550505050505060405180910390a45050600160035550505050505050505050565b610976611bcb565b61097e611bcb565b6001600160a01b038816602080830182905260408051630ad7511760e31b815290516356ba88b892600480840193919291829003018186803b1580156109c357600080fd5b505afa1580156109d7573d6000803e3d6000fd5b505050506040513d60208110156109ed57600080fd5b50516001600160a01b0390811682526040808301899052878216606084015286821660808401526020838101518251630ad7511760e31b815292519316926356ba88b8926004808201939291829003018186803b158015610a4d57600080fd5b505afa158015610a61573d6000803e3d6000fd5b505050506040513d6020811015610a7757600080fd5b5051604080517f18160ddd00000000000000000000000000000000000000000000000000000000815290516001600160a01b03909216916318160ddd91600480820192602092909190829003018186803b158015610ad457600080fd5b505afa158015610ae8573d6000803e3d6000fd5b505050506040513d6020811015610afe57600080fd5b505160a082015260c0810184905260e08101839052604080516370a0823160e01b81526001600160a01b038a811660048301529151918816916370a0823191602480820192602092909190829003018186803b158015610b5d57600080fd5b505afa158015610b71573d6000803e3d6000fd5b505050506040513d6020811015610b8757600080fd5b5051610100820152604080516370a0823160e01b81526001600160a01b038a811660048301529151918716916370a0823191602480820192602092909190829003018186803b158015610bd957600080fd5b505afa158015610bed573d6000803e3d6000fd5b505050506040513d6020811015610c0357600080fd5b5051610120820152979650505050505050565b60008260c0015111610c6f576040805162461bcd60e51b815260206004820152601d60248201527f546f6b656e20746f2073656c6c206d757374206265206e6f6e7a65726f000000604482015290519081900360640190fd5b6000610c7a836116d5565b9050600083600001516001600160a01b031663a63c643d6040518163ffffffff1660e01b815260040160206040518083038186803b158015610cbb57600080fd5b505afa158015610ccf573d6000803e3d6000fd5b505050506040513d6020811015610ce557600080fd5b505160408051630d34328160e11b815290519192506000916001600160a01b03851691631a686502916004808301926020929190829003018186803b158015610d2d57600080fd5b505afa158015610d41573d6000803e3d6000fd5b505050506040513d6020811015610d5757600080fd5b50518551604080517ff85cb5c800000000000000000000000000000000000000000000000000000000815290516001600160801b0390931693506000926001600160a01b039092169163f85cb5c891600480820192602092909190829003018186803b158015610dc657600080fd5b505afa158015610dda573d6000803e3d6000fd5b505050506040513d6020811015610df057600080fd5b5051604080517f0dfe168100000000000000000000000000000000000000000000000000000000815290516001600160a01b0392831692871691630dfe1681916004808301926020929190829003018186803b158015610e4f57600080fd5b505afa158015610e63573d6000803e3d6000fd5b505050506040513d6020811015610e7957600080fd5b50516001600160a01b03161415610f7b57610f78846001600160a01b031663d21220a76040518163ffffffff1660e01b815260040160206040518083038186803b158015610ec657600080fd5b505afa158015610eda573d6000803e3d6000fd5b505050506040513d6020811015610ef057600080fd5b5051604080516370a0823160e01b81526001600160a01b038881166004830152915191909216916370a08231916024808301926020929190829003018186803b158015610f3c57600080fd5b505afa158015610f50573d6000803e3d6000fd5b505050506040513d6020811015610f6657600080fd5b5051610f728480611b0b565b90611b64565b90505b85600001516001600160a01b031663f85cb5c86040518163ffffffff1660e01b815260040160206040518083038186803b158015610fb857600080fd5b505afa158015610fcc573d6000803e3d6000fd5b505050506040513d6020811015610fe257600080fd5b5051604080517fd21220a700000000000000000000000000000000000000000000000000000000815290516001600160a01b039283169287169163d21220a7916004808301926020929190829003018186803b15801561104157600080fd5b505afa158015611055573d6000803e3d6000fd5b505050506040513d602081101561106b57600080fd5b50516001600160a01b031614156110bb576110b8846001600160a01b0316630dfe16816040518163ffffffff1660e01b815260040160206040518083038186803b158015610ec657600080fd5b90505b82811015611110576040805162461bcd60e51b815260206004820152601460248201527f4e6f7420656e6f756768206c6971756964697479000000000000000000000000604482015290519081900360640190fd5b8486606001516001600160a01b03166370a0823188602001516040518263ffffffff1660e01b815260040180826001600160a01b0316815260200191505060206040518083038186803b15801561116657600080fd5b505afa15801561117a573d6000803e3d6000fd5b505050506040513d602081101561119057600080fd5b505110156111cf5760405162461bcd60e51b8152600401808060200182810382526029815260200180611c646029913960400191505060405180910390fd5b505050505050565b6004546001600160a01b031690565b60048054604080517f085e2c5b0000000000000000000000000000000000000000000000000000000081526001600160a01b038781169482019490945284841660248201526044810186905260016064820152600060848201819052915191938493606093859384939092169163085e2c5b9160a48083019286929190829003018186803b15801561127757600080fd5b505afa15801561128b573d6000803e3d6000fd5b505050506040513d6000823e601f3d908101601f1916820160409081528110156112b457600080fd5b8151602083018051604051929492938301929190846401000000008211156112db57600080fd5b9083019060208201858111156112f057600080fd5b825186602082028301116401000000008211171561130d57600080fd5b82525081516020918201928201910280838360005b8381101561133a578181015183820152602001611322565b50505050905001604052505050915091506000888789600085600060405160240180876001600160a01b03168152602001866001600160a01b0316815260200185815260200184815260200180602001838152602001828103825284818151815260200191508051906020019060200280838360005b838110156113c85781810151838201526020016113b0565b505050509050019750505050505050506040516020818303038152906040527fe2a7515e000000000000000000000000000000000000000000000000000000007bffffffffffffffffffffffffffffffffffffffffffffffffffffffff19166020820180517bffffffffffffffffffffffffffffffffffffffffffffffffffffffff83818316178352505050509050600460009054906101000a90046001600160a01b03166000829550955095505050509450945094915050565b60008061151683610120015184608001516001600160a01b03166370a0823186602001516040518263ffffffff1660e01b815260040180826001600160a01b0316815260200191505060206040518083038186803b1580156114e457600080fd5b505afa1580156114f8573d6000803e3d6000fd5b505050506040513d602081101561150e57600080fd5b505190611612565b9050600083608001516001600160a01b031663313ce5676040518163ffffffff1660e01b815260040160206040518083038186803b15801561155757600080fd5b505afa15801561156b573d6000803e3d6000fd5b505050506040513d602081101561158157600080fd5b505190506000601260ff8316141561159957826115ad565b6115ad8360ff601285900316600a0a611b0b565b90508460e00151811015611608576040805162461bcd60e51b815260206004820152601d60248201527f536c6970706167652067726561746572207468616e20616c6c6f776564000000604482015290519081900360640190fd5b925050505b919050565b600082821115611669576040805162461bcd60e51b815260206004820152601e60248201527f536166654d6174683a207375627472616374696f6e206f766572666c6f770000604482015290519081900360640190fd5b508082035b92915050565b6000828201838110156116ce576040805162461bcd60e51b815260206004820152601b60248201527f536166654d6174683a206164646974696f6e206f766572666c6f770000000000604482015290519081900360640190fd5b9392505050565b60008054604080517f8bdb2afa000000000000000000000000000000000000000000000000000000008152905183926001600160a01b031691638bdb2afa916004808301926020929190829003018186803b15801561173357600080fd5b505afa158015611747573d6000803e3d6000fd5b505050506040513d602081101561175d57600080fd5b50516060840151608085015160408051630b4c774160e11b81526001600160a01b03938416600482015291831660248301526101f460448301525192935060009291841691631698ee8291606480820192602092909190829003018186803b1580156117c857600080fd5b505afa1580156117dc573d6000803e3d6000fd5b505050506040513d60208110156117f257600080fd5b50516060850151608086015160408051630b4c774160e11b81526001600160a01b0393841660048201529183166024830152610bb860448301525192935060009291851691631698ee8291606480820192602092909190829003018186803b15801561185d57600080fd5b505afa158015611871573d6000803e3d6000fd5b505050506040513d602081101561188757600080fd5b50516060860151608087015160408051630b4c774160e11b81526001600160a01b039384166004820152918316602483015261271060448301525192935060009291861691631698ee8291606480820192602092909190829003018186803b1580156118f257600080fd5b505afa158015611906573d6000803e3d6000fd5b505050506040513d602081101561191c57600080fd5b505160408051630d34328160e11b815290519192506000916001600160a01b03861691631a686502916004808301926020929190829003018186803b15801561196457600080fd5b505afa158015611978573d6000803e3d6000fd5b505050506040513d602081101561198e57600080fd5b505160408051630d34328160e11b815290519192506000916001600160a01b03861691631a686502916004808301926020929190829003018186803b1580156119d657600080fd5b505afa1580156119ea573d6000803e3d6000fd5b505050506040513d6020811015611a0057600080fd5b505160408051630d34328160e11b815290519192506000916001600160a01b03861691631a686502916004808301926020929190829003018186803b158015611a4857600080fd5b505afa158015611a5c573d6000803e3d6000fd5b505050506040513d6020811015611a7257600080fd5b505190506001600160801b03808316908416118015611aa35750806001600160801b0316836001600160801b031610155b15611ab7578597505050505050505061160d565b826001600160801b0316826001600160801b0316118015611aea5750806001600160801b0316826001600160801b031610155b15611afe578497505050505050505061160d565b5091979650505050505050565b600082611b1a5750600061166e565b82820282848281611b2757fe5b04146116ce5760405162461bcd60e51b8152600401808060200182810382526021815260200180611c436021913960400191505060405180910390fd5b6000808211611bba576040805162461bcd60e51b815260206004820152601a60248201527f536166654d6174683a206469766973696f6e206279207a65726f000000000000604482015290519081900360640190fd5b818381611bc357fe5b049392505050565b60405180610140016040528060006001600160a01b0316815260200160006001600160a01b031681526020016060815260200160006001600160a01b0316815260200160006001600160a01b031681526020016000815260200160008152602001600081526020016000815260200160008152509056fe536166654d6174683a206d756c7469706c69636174696f6e206f766572666c6f7747617264656e206e6565647320746f206861766520656e6f756768206c697175696420746f6b656e73a2646970667358221220d7bfd11eb6b44f06e0c9f09a833d6d046478e16f0a390a6fbf2c8814edbd614a64736f6c63430007060033",
  "devdoc": {
    "author": "Babylon Finance Protocol 1Inch protocol trade integration",
    "kind": "dev",
    "methods": {
      "constructor": {
        "params": {
          "_controller": "Address of the controller",
          "_oneInchExchangeAddress": "Address of 1inch exchange contract",
          "_weth": "Address of the WETH ERC20"
        }
      },
      "getConversionRates(address,address,uint256)": {
        "returns": {
          "_0": "uint256             Conversion rate in wei",
          "_1": "uint256             Slippage rate in wei"
        }
      },
      "trade(address,address,uint256,address,uint256)": {
        "details": "@param _strategy             Address of the strategy",
        "params": {
          "_minReceiveQuantity": "Min units of wanted token to be received from the exchange",
          "_receiveToken": "Address of the token that will be received from the exchange",
          "_sendQuantity": "Units of reserve asset token sent to the exchange",
          "_sendToken": "Address of the token to be sent to the exchange"
        }
      }
    },
    "title": "1InchTradeIntegration",
    "version": 1
  },
  "userdoc": {
    "kind": "user",
    "methods": {
      "constructor": {
        "notice": "Creates the integration"
      },
      "getConversionRates(address,address,uint256)": {
        "notice": "Returns the conversion rate between the source token and the destination token in 18 decimals, regardless of component token's decimals hparam  _sourceToken        Address of source token to be sold hparam  _destinationToken   Address of destination token to buy hparam  _sourceQuantity     Amount of source token to sell"
      },
      "getName()": {
        "notice": "Returns the name of the integration"
      },
      "trade(address,address,uint256,address,uint256)": {
        "notice": "Executes a trade on a supported DEX."
      }
    },
    "version": 1
  },
  "storageLayout": {
    "storage": [
      {
        "astId": 20125,
        "contract": "contracts/integrations/trade/OneInchTradeIntegration.sol:OneInchTradeIntegration",
        "label": "controller",
        "offset": 0,
        "slot": "0",
        "type": "t_contract(IBabController)25452"
      },
      {
        "astId": 20129,
        "contract": "contracts/integrations/trade/OneInchTradeIntegration.sol:OneInchTradeIntegration",
        "label": "name",
        "offset": 0,
        "slot": "1",
        "type": "t_string_storage"
      },
      {
        "astId": 20133,
        "contract": "contracts/integrations/trade/OneInchTradeIntegration.sol:OneInchTradeIntegration",
        "label": "initializedByGarden",
        "offset": 0,
        "slot": "2",
        "type": "t_mapping(t_address,t_bool)"
      },
      {
        "astId": 5859,
        "contract": "contracts/integrations/trade/OneInchTradeIntegration.sol:OneInchTradeIntegration",
        "label": "_status",
        "offset": 0,
        "slot": "3",
        "type": "t_uint256"
      },
      {
        "astId": 24301,
        "contract": "contracts/integrations/trade/OneInchTradeIntegration.sol:OneInchTradeIntegration",
        "label": "oneInchExchangeAddress",
        "offset": 0,
        "slot": "4",
        "type": "t_address"
      }
    ],
    "types": {
      "t_address": {
        "encoding": "inplace",
        "label": "address",
        "numberOfBytes": "20"
      },
      "t_bool": {
        "encoding": "inplace",
        "label": "bool",
        "numberOfBytes": "1"
      },
      "t_contract(IBabController)25452": {
        "encoding": "inplace",
        "label": "contract IBabController",
        "numberOfBytes": "20"
      },
      "t_mapping(t_address,t_bool)": {
        "encoding": "mapping",
        "key": "t_address",
        "label": "mapping(address => bool)",
        "numberOfBytes": "32",
        "value": "t_bool"
      },
      "t_string_storage": {
        "encoding": "bytes",
        "label": "string",
        "numberOfBytes": "32"
      },
      "t_uint256": {
        "encoding": "inplace",
        "label": "uint256",
        "numberOfBytes": "32"
      }
    }
  }
}