{
  "address": "0xa02DaE2F6f3576556B0f941AaCBb38dC54D1b82a",
  "abi": [
    {
      "inputs": [
        {
          "internalType": "address",
          "name": "_controller",
          "type": "address"
        },
        {
          "internalType": "address",
          "name": "_weth",
          "type": "address"
        },
        {
          "internalType": "address",
          "name": "_oneInchExchangeAddress",
          "type": "address"
        }
      ],
      "stateMutability": "nonpayable",
      "type": "constructor"
    },
    {
      "anonymous": false,
      "inputs": [
        {
          "indexed": true,
          "internalType": "contract IGarden",
          "name": "_garden",
          "type": "address"
        },
        {
          "indexed": true,
          "internalType": "contract IStrategy",
          "name": "_strategy",
          "type": "address"
        },
        {
          "indexed": true,
          "internalType": "address",
          "name": "_sendToken",
          "type": "address"
        },
        {
          "indexed": false,
          "internalType": "address",
          "name": "_receiveToken",
          "type": "address"
        },
        {
          "indexed": false,
          "internalType": "string",
          "name": "_exchangeName",
          "type": "string"
        },
        {
          "indexed": false,
          "internalType": "uint256",
          "name": "_totalSendAmount",
          "type": "uint256"
        },
        {
          "indexed": false,
          "internalType": "uint256",
          "name": "_totalReceiveAmount",
          "type": "uint256"
        }
      ],
      "name": "ComponentExchanged",
      "type": "event"
    },
    {
      "inputs": [],
      "name": "controller",
      "outputs": [
        {
          "internalType": "address",
          "name": "",
          "type": "address"
        }
      ],
      "stateMutability": "view",
      "type": "function"
    },
    {
      "inputs": [
        {
          "internalType": "address",
          "name": "",
          "type": "address"
        },
        {
          "internalType": "address",
          "name": "",
          "type": "address"
        },
        {
          "internalType": "uint256",
          "name": "",
          "type": "uint256"
        }
      ],
      "name": "getConversionRates",
      "outputs": [
        {
          "internalType": "uint256",
          "name": "",
          "type": "uint256"
        },
        {
          "internalType": "uint256",
          "name": "",
          "type": "uint256"
        }
      ],
      "stateMutability": "pure",
      "type": "function"
    },
    {
      "inputs": [],
      "name": "getName",
      "outputs": [
        {
          "internalType": "string",
          "name": "",
          "type": "string"
        }
      ],
      "stateMutability": "view",
      "type": "function"
    },
    {
      "inputs": [
        {
          "internalType": "address",
          "name": "",
          "type": "address"
        }
      ],
      "name": "initializedByGarden",
      "outputs": [
        {
          "internalType": "bool",
          "name": "",
          "type": "bool"
        }
      ],
      "stateMutability": "view",
      "type": "function"
    },
    {
      "inputs": [],
      "name": "name",
      "outputs": [
        {
          "internalType": "string",
          "name": "",
          "type": "string"
        }
      ],
      "stateMutability": "view",
      "type": "function"
    },
    {
      "inputs": [],
      "name": "oneInchExchangeAddress",
      "outputs": [
        {
          "internalType": "address",
          "name": "",
          "type": "address"
        }
      ],
      "stateMutability": "view",
      "type": "function"
    },
    {
      "inputs": [
        {
          "internalType": "address",
          "name": "_strategy",
          "type": "address"
        },
        {
          "internalType": "address",
          "name": "_sendToken",
          "type": "address"
        },
        {
          "internalType": "uint256",
          "name": "_sendQuantity",
          "type": "uint256"
        },
        {
          "internalType": "address",
          "name": "_receiveToken",
          "type": "address"
        },
        {
          "internalType": "uint256",
          "name": "_minReceiveQuantity",
          "type": "uint256"
        }
      ],
      "name": "trade",
      "outputs": [],
      "stateMutability": "nonpayable",
      "type": "function"
    },
    {
      "inputs": [
        {
          "internalType": "address",
          "name": "_newExchangeAddress",
          "type": "address"
        }
      ],
      "name": "updateExchangeAddress",
      "outputs": [],
      "stateMutability": "nonpayable",
      "type": "function"
    },
    {
      "inputs": [],
      "name": "weth",
      "outputs": [
        {
          "internalType": "address",
          "name": "",
          "type": "address"
        }
      ],
      "stateMutability": "view",
      "type": "function"
    }
  ],
  "transactionHash": "0x34fc6831e6ba102e61edcbe1cbd92f940160e7798c8336bf54ce8d87f24036fb",
  "args": [
    "0xffe7c30daDb1B132b86aB7bbede496615d54c8Ac",
    "0xC02aaA39b223FE8D0A0e5C4F27eAD9083C756Cc2",
    "0xC586BeF4a0992C495Cf22e1aeEE4E446CECDee0E"
  ],
  "solcInputHash": "a02a2075cf667a20c416d2d0a5e8f337",
  "bytecode": "0x60a06040523480156200001157600080fd5b5060405162001b8e38038062001b8e833981810160405260608110156200003757600080fd5b50805160208083015160409384015184518086019095526005855264062d2dcc6d60db1b92850192909252919282848282826001600160a01b038116620000c5576040805162461bcd60e51b815260206004820152601a60248201527f436f6e74726f6c6c6572206d75737420626520646566696e6564000000000000604482015290519081900360640190fd5b8251620000da9060019060208601906200012f565b50600080546001600160a01b03199081166001600160a01b039384161790915560609290921b6001600160601b03191660805260016003556004805490921696169590951790945550620001db945050505050565b828054600181600116156101000203166002900490600052602060002090601f016020900481019282620001675760008555620001b2565b82601f106200018257805160ff1916838001178555620001b2565b82800160010185558215620001b2579182015b82811115620001b257825182559160200191906001019062000195565b50620001c0929150620001c4565b5090565b5b80821115620001c05760008155600101620001c5565b60805160601c61198b62000203600039806104135280610f335280610fc5525061198b6000f3fe608060405234801561001057600080fd5b50600436106100a35760003560e01c8063aa0b24fa11610076578063c7868ace1161005b578063c7868ace14610202578063f77c47911461020a578063fa1ca82014610212576100a3565b8063aa0b24fa14610179578063b10198fb146101c8576100a3565b806306fdde03146100a857806317d7de7c1461012557806331415a651461012d5780633fc8cef314610155575b600080fd5b6100b0610256565b6040805160208082528351818301528351919283929083019185019080838360005b838110156100ea5781810151838201526020016100d2565b50505050905090810190601f1680156101175780820380516001836020036101000a031916815260200191505b509250505060405180910390f35b6100b06102e3565b6101536004803603602081101561014357600080fd5b50356001600160a01b0316610378565b005b61015d610411565b604080516001600160a01b039092168252519081900360200190f35b6101af6004803603606081101561018f57600080fd5b506001600160a01b03813581169160208101359091169060400135610435565b6040805192835260208301919091528051918290030190f35b6101ee600480360360208110156101de57600080fd5b50356001600160a01b0316610487565b604080519115158252519081900360200190f35b61015d61049c565b61015d6104ab565b610153600480360360a081101561022857600080fd5b506001600160a01b0381358116916020810135821691604082013591606081013590911690608001356104ba565b60018054604080516020600284861615610100026000190190941693909304601f810184900484028201840190925281815292918301828280156102db5780601f106102b0576101008083540402835291602001916102db565b820191906000526020600020905b8154815290600101906020018083116102be57829003601f168201915b505050505081565b60018054604080516020601f6002600019610100878916150201909516949094049384018190048102820181019092528281526060939092909183018282801561036e5780601f106103435761010080835404028352916020019161036e565b820191906000526020600020905b81548152906001019060200180831161035157829003601f168201915b5050505050905090565b6000546001600160a01b031633146103d7576040805162461bcd60e51b815260206004820152601d60248201527f4f6e6c7920636f6e74726f6c6c65722063616e2063616c6c2074686973000000604482015290519081900360640190fd5b600480547fffffffffffffffffffffffff0000000000000000000000000000000000000000166001600160a01b0392909216919091179055565b7f000000000000000000000000000000000000000000000000000000000000000081565b6040805162461bcd60e51b815260206004820152600f60248201527f6e6f7420696d706c656d656e74656400000000000000000000000000000000006044820152905160009182919081900360640190fd5b60026020526000908152604090205460ff1681565b6004546001600160a01b031681565b6000546001600160a01b031681565b60026003541415610512576040805162461bcd60e51b815260206004820152601f60248201527f5265656e7472616e637947756172643a207265656e7472616e742063616c6c00604482015290519081900360640190fd5b6002600355600054604080517f13bc6d4b00000000000000000000000000000000000000000000000000000000815233600482015290516001600160a01b03909216916313bc6d4b91602480820192602092909190829003018186803b15801561057b57600080fd5b505afa15801561058f573d6000803e3d6000fd5b505050506040513d60208110156105a557600080fd5b50516105f8576040805162461bcd60e51b815260206004820152601960248201527f4f6e6c792073797374656d2063616e2063616c6c207468697300000000000000604482015290519081900360640190fd5b60018054604080516020601f600260001961010087891615020190951694909404938401819004810282018101909252828152600093610693938a938301828280156106855780601f1061065a57610100808354040283529160200191610685565b820191906000526020600020905b81548152906001019060200180831161066857829003601f168201915b505050505087868887610a48565b905061069f8185610cf0565b80602001516001600160a01b03166397ccdc606106ba611180565b83606001518460c001516040518463ffffffff1660e01b815260040180846001600160a01b03168152602001836001600160a01b031681526020018281526020019350505050600060405180830381600087803b15801561071a57600080fd5b505af115801561072e573d6000803e3d6000fd5b50505050600080600061074f8985606001518660c00151876080015161118f565b92509250925083602001516001600160a01b0316636bc195dd8484846040518463ffffffff1660e01b815260040180846001600160a01b0316815260200183815260200180602001828103825283818151815260200191508051906020019080838360005b838110156107cc5781810151838201526020016107b4565b50505050905090810190601f1680156107f95780820380516001836020036101000a031916815260200191505b50945050505050600060405180830381600087803b15801561081a57600080fd5b505af115801561082e573d6000803e3d6000fd5b505050506040513d6000823e601f3d908101601f19168201604052602081101561085757600080fd5b810190808051604051939291908464010000000082111561087757600080fd5b90830190602082018581111561088c57600080fd5b82516401000000008111828201881017156108a657600080fd5b82525081516020918201929091019080838360005b838110156108d35781810151838201526020016108bb565b50505050905090810190601f1680156109005780820380516001836020036101000a031916815260200191505b506040525050505060006109138561142b565b905060006109338660c001518761010001516115b890919063ffffffff16565b9050600061094f8388610120015161161690919063ffffffff16565b90508a6001600160a01b031687602001516001600160a01b031688600001516001600160a01b03167f6896e8a2de09380c881b23755435130206166901028e7413fce46cd6ecafdb758c8b60400151878760405180856001600160a01b0316815260200180602001848152602001838152602001828103825285818151815260200191508051906020019080838360005b838110156109f85781810151838201526020016109e0565b50505050905090810190601f168015610a255780820380516001836020036101000a031916815260200191505b509550505050505060405180910390a45050600160035550505050505050505050565b610a50611890565b610a58611890565b6001600160a01b038816602080830182905260408051630ad7511760e31b815290516356ba88b892600480840193919291829003018186803b158015610a9d57600080fd5b505afa158015610ab1573d6000803e3d6000fd5b505050506040513d6020811015610ac757600080fd5b50516001600160a01b0390811682526040808301899052878216606084015286821660808401526020838101518251630ad7511760e31b815292519316926356ba88b8926004808201939291829003018186803b158015610b2757600080fd5b505afa158015610b3b573d6000803e3d6000fd5b505050506040513d6020811015610b5157600080fd5b5051604080517f18160ddd00000000000000000000000000000000000000000000000000000000815290516001600160a01b03909216916318160ddd91600480820192602092909190829003018186803b158015610bae57600080fd5b505afa158015610bc2573d6000803e3d6000fd5b505050506040513d6020811015610bd857600080fd5b505160a082015260c0810184905260e08101839052604080516370a0823160e01b81526001600160a01b038a811660048301529151918816916370a0823191602480820192602092909190829003018186803b158015610c3757600080fd5b505afa158015610c4b573d6000803e3d6000fd5b505050506040513d6020811015610c6157600080fd5b5051610100820152604080516370a0823160e01b81526001600160a01b038a811660048301529151918716916370a0823191602480820192602092909190829003018186803b158015610cb357600080fd5b505afa158015610cc7573d6000803e3d6000fd5b505050506040513d6020811015610cdd57600080fd5b5051610120820152979650505050505050565b60008260c0015111610d49576040805162461bcd60e51b815260206004820152601d60248201527f546f6b656e20746f2073656c6c206d757374206265206e6f6e7a65726f000000604482015290519081900360640190fd5b60008054604080517f3e6dfa360000000000000000000000000000000000000000000000000000000081529051610de4926001600160a01b031691633e6dfa36916004808301926020929190829003018186803b158015610da957600080fd5b505afa158015610dbd573d6000803e3d6000fd5b505050506040513d6020811015610dd357600080fd5b50516060850151608086015161166e565b9050600083600001516001600160a01b031663a63c643d6040518163ffffffff1660e01b815260040160206040518083038186803b158015610e2557600080fd5b505afa158015610e39573d6000803e3d6000fd5b505050506040513d6020811015610e4f57600080fd5b5051604080517f0902f1ac000000000000000000000000000000000000000000000000000000008152905191925060009182916001600160a01b03861691630902f1ac91600480820192606092909190829003018186803b158015610eb357600080fd5b505afa158015610ec7573d6000803e3d6000fd5b505050506040513d6060811015610edd57600080fd5b508051602091820151604080517f0dfe168100000000000000000000000000000000000000000000000000000000815290516dffffffffffffffffffffffffffff93841696509290911693506001600160a01b037f000000000000000000000000000000000000000000000000000000000000000081169390881692630dfe1681926004808201939291829003018186803b158015610f7b57600080fd5b505afa158015610f8f573d6000803e3d6000fd5b505050506040513d6020811015610fa557600080fd5b50516001600160a01b0316148015610fbd5750828210155b8061106857507f00000000000000000000000000000000000000000000000000000000000000006001600160a01b0316846001600160a01b031663d21220a76040518163ffffffff1660e01b815260040160206040518083038186803b15801561102657600080fd5b505afa15801561103a573d6000803e3d6000fd5b505050506040513d602081101561105057600080fd5b50516001600160a01b03161480156110685750828110155b6110b9576040805162461bcd60e51b815260206004820152601460248201527f4e6f7420656e6f756768206c6971756964697479000000000000000000000000604482015290519081900360640190fd5b8486606001516001600160a01b03166370a0823188602001516040518263ffffffff1660e01b815260040180826001600160a01b0316815260200191505060206040518083038186803b15801561110f57600080fd5b505afa158015611123573d6000803e3d6000fd5b505050506040513d602081101561113957600080fd5b505110156111785760405162461bcd60e51b815260040180806020018281038252602981526020018061192d6029913960400191505060405180910390fd5b505050505050565b6004546001600160a01b031690565b60048054604080517f085e2c5b0000000000000000000000000000000000000000000000000000000081526001600160a01b038781169482019490945284841660248201526044810186905260016064820152600060848201819052915191938493606093859384939092169163085e2c5b9160a48083019286929190829003018186803b15801561122057600080fd5b505afa158015611234573d6000803e3d6000fd5b505050506040513d6000823e601f3d908101601f19168201604090815281101561125d57600080fd5b81516020830180516040519294929383019291908464010000000082111561128457600080fd5b90830190602082018581111561129957600080fd5b82518660208202830111640100000000821117156112b657600080fd5b82525081516020918201928201910280838360005b838110156112e35781810151838201526020016112cb565b505050509050016040525050509150915060008887898585600060405160240180876001600160a01b03168152602001866001600160a01b0316815260200185815260200184815260200180602001838152602001828103825284818151815260200191508051906020019060200280838360005b83811015611370578181015183820152602001611358565b505050509050019750505050505050506040516020818303038152906040527fe2a7515e000000000000000000000000000000000000000000000000000000007bffffffffffffffffffffffffffffffffffffffffffffffffffffffff19166020820180517bffffffffffffffffffffffffffffffffffffffffffffffffffffffff83818316178352505050509050600460009054906101000a90046001600160a01b03166000829550955095505050509450945094915050565b6000806114be83610120015184608001516001600160a01b03166370a0823186602001516040518263ffffffff1660e01b815260040180826001600160a01b0316815260200191505060206040518083038186803b15801561148c57600080fd5b505afa1580156114a0573d6000803e3d6000fd5b505050506040513d60208110156114b657600080fd5b5051906115b8565b9050600083608001516001600160a01b031663313ce5676040518163ffffffff1660e01b815260040160206040518083038186803b1580156114ff57600080fd5b505afa158015611513573d6000803e3d6000fd5b505050506040513d602081101561152957600080fd5b505190506000601260ff831614156115415782611555565b6115558360ff601285900316600a0a611746565b90508460e001518110156115b0576040805162461bcd60e51b815260206004820152601d60248201527f536c6970706167652067726561746572207468616e20616c6c6f776564000000604482015290519081900360640190fd5b949350505050565b80820382811115611610576040805162461bcd60e51b815260206004820152601560248201527f64732d6d6174682d7375622d756e646572666c6f770000000000000000000000604482015290519081900360640190fd5b92915050565b80820182811015611610576040805162461bcd60e51b815260206004820152601460248201527f64732d6d6174682d6164642d6f766572666c6f77000000000000000000000000604482015290519081900360640190fd5b600080600061167d85856117b2565b604080516bffffffffffffffffffffffff19606094851b811660208084019190915293851b81166034830152825160288184030181526048830184528051908501207fff0000000000000000000000000000000000000000000000000000000000000060688401529a90941b9093166069840152607d8301989098527f96e8ac4277198ff8b6f785478aa9a39f403cb768dd02cbee326c3e7da348845f609d808401919091528851808403909101815260bd909201909752805196019590952095945050505050565b60008115806117615750508082028282828161175e57fe5b04145b611610576040805162461bcd60e51b815260206004820152601460248201527f64732d6d6174682d6d756c2d6f766572666c6f77000000000000000000000000604482015290519081900360640190fd5b600080826001600160a01b0316846001600160a01b031614156118065760405162461bcd60e51b81526004018080602001828103825260258152602001806119086025913960400191505060405180910390fd5b826001600160a01b0316846001600160a01b031610611826578284611829565b83835b90925090506001600160a01b038216611889576040805162461bcd60e51b815260206004820152601e60248201527f556e697377617056324c6962726172793a205a45524f5f414444524553530000604482015290519081900360640190fd5b9250929050565b60405180610140016040528060006001600160a01b0316815260200160006001600160a01b031681526020016060815260200160006001600160a01b0316815260200160006001600160a01b031681526020016000815260200160008152602001600081526020016000815260200160008152509056fe556e697377617056324c6962726172793a204944454e544943414c5f41444452455353455347617264656e206e6565647320746f206861766520656e6f756768206c697175696420746f6b656e73a2646970667358221220ddbb7dffd5dcb90a8b5c967dbbbc9a13a464acff75526149e249d87df9616a8f64736f6c63430007060033",
  "devdoc": {
    "author": "Babylon Finance Protocol 1Inch protocol trade integration",
    "kind": "dev",
    "methods": {
      "constructor": {
        "params": {
          "_controller": "Address of the controller",
          "_oneInchExchangeAddress": "Address of 1inch exchange contract",
          "_weth": "Address of the WETH ERC20"
        }
      },
      "getConversionRates(address,address,uint256)": {
        "returns": {
          "_0": "uint256             Conversion rate in wei",
          "_1": "uint256             Slippage rate in wei"
        }
      },
      "trade(address,address,uint256,address,uint256)": {
        "details": "@param _strategy             Address of the strategy",
        "params": {
          "_minReceiveQuantity": "Min units of wanted token to be received from the exchange",
          "_receiveToken": "Address of the token that will be received from the exchange",
          "_sendQuantity": "Units of reserve asset token sent to the exchange",
          "_sendToken": "Address of the token to be sent to the exchange"
        }
      }
    },
    "title": "1InchTradeIntegration",
    "version": 1
  },
  "userdoc": {
    "kind": "user",
    "methods": {
      "constructor": {
        "notice": "Creates the integration"
      },
      "getConversionRates(address,address,uint256)": {
        "notice": "Returns the conversion rate between the source token and the destination token in 18 decimals, regardless of component token's decimals hparam  _sourceToken        Address of source token to be sold hparam  _destinationToken   Address of destination token to buy hparam  _sourceQuantity     Amount of source token to sell"
      },
      "getName()": {
        "notice": "Returns the name of the integration"
      },
      "trade(address,address,uint256,address,uint256)": {
        "notice": "Executes a trade on a supported DEX."
      }
    },
    "version": 1
  },
  "storageLayout": {
    "storage": [
      {
        "astId": 18742,
        "contract": "contracts/integrations/trade/OneInchTradeIntegration.sol:OneInchTradeIntegration",
        "label": "controller",
        "offset": 0,
        "slot": "0",
        "type": "t_address"
      },
      {
        "astId": 18746,
        "contract": "contracts/integrations/trade/OneInchTradeIntegration.sol:OneInchTradeIntegration",
        "label": "name",
        "offset": 0,
        "slot": "1",
        "type": "t_string_storage"
      },
      {
        "astId": 18750,
        "contract": "contracts/integrations/trade/OneInchTradeIntegration.sol:OneInchTradeIntegration",
        "label": "initializedByGarden",
        "offset": 0,
        "slot": "2",
        "type": "t_mapping(t_address,t_bool)"
      },
      {
        "astId": 7995,
        "contract": "contracts/integrations/trade/OneInchTradeIntegration.sol:OneInchTradeIntegration",
        "label": "_status",
        "offset": 0,
        "slot": "3",
        "type": "t_uint256"
      },
      {
        "astId": 22735,
        "contract": "contracts/integrations/trade/OneInchTradeIntegration.sol:OneInchTradeIntegration",
        "label": "oneInchExchangeAddress",
        "offset": 0,
        "slot": "4",
        "type": "t_address"
      }
    ],
    "types": {
      "t_address": {
        "encoding": "inplace",
        "label": "address",
        "numberOfBytes": "20"
      },
      "t_bool": {
        "encoding": "inplace",
        "label": "bool",
        "numberOfBytes": "1"
      },
      "t_mapping(t_address,t_bool)": {
        "encoding": "mapping",
        "key": "t_address",
        "label": "mapping(address => bool)",
        "numberOfBytes": "32",
        "value": "t_bool"
      },
      "t_string_storage": {
        "encoding": "bytes",
        "label": "string",
        "numberOfBytes": "32"
      },
      "t_uint256": {
        "encoding": "inplace",
        "label": "uint256",
        "numberOfBytes": "32"
      }
    }
  }
}