{
  "address": "0x17B3c28955676Ad4A857706BEA94D572e27e66C2",
  "abi": [
    {
      "inputs": [
        {
          "internalType": "contract IBabController",
          "name": "_controller",
          "type": "address"
        },
        {
          "internalType": "contract IPickleJarRegistry",
          "name": "_pickleJarRegistry",
          "type": "address"
        }
      ],
      "stateMutability": "nonpayable",
      "type": "constructor"
    },
    {
      "anonymous": false,
      "inputs": [
        {
          "indexed": true,
          "internalType": "address",
          "name": "garden",
          "type": "address"
        },
        {
          "indexed": true,
          "internalType": "address",
          "name": "strategy",
          "type": "address"
        },
        {
          "indexed": true,
          "internalType": "address",
          "name": "investment",
          "type": "address"
        },
        {
          "indexed": false,
          "internalType": "address",
          "name": "tokenIn",
          "type": "address"
        },
        {
          "indexed": false,
          "internalType": "uint256",
          "name": "investmentTokensOut",
          "type": "uint256"
        }
      ],
      "name": "InvestmentEntered",
      "type": "event"
    },
    {
      "anonymous": false,
      "inputs": [
        {
          "indexed": true,
          "internalType": "address",
          "name": "garden",
          "type": "address"
        },
        {
          "indexed": true,
          "internalType": "address",
          "name": "strategy",
          "type": "address"
        },
        {
          "indexed": true,
          "internalType": "address",
          "name": "investment",
          "type": "address"
        },
        {
          "indexed": false,
          "internalType": "uint256",
          "name": "investmentTokensOut",
          "type": "uint256"
        }
      ],
      "name": "InvestmentExited",
      "type": "event"
    },
    {
      "inputs": [],
      "name": "controller",
      "outputs": [
        {
          "internalType": "contract IBabController",
          "name": "",
          "type": "address"
        }
      ],
      "stateMutability": "view",
      "type": "function"
    },
    {
      "inputs": [
        {
          "internalType": "address",
          "name": "_strategy",
          "type": "address"
        },
        {
          "internalType": "address",
          "name": "_investmentAddress",
          "type": "address"
        },
        {
          "internalType": "uint256",
          "name": "_investmentTokensOut",
          "type": "uint256"
        },
        {
          "internalType": "address",
          "name": "_tokenIn",
          "type": "address"
        },
        {
          "internalType": "uint256",
          "name": "_maxAmountIn",
          "type": "uint256"
        }
      ],
      "name": "enterInvestment",
      "outputs": [],
      "stateMutability": "nonpayable",
      "type": "function"
    },
    {
      "inputs": [
        {
          "internalType": "address",
          "name": "_strategy",
          "type": "address"
        },
        {
          "internalType": "address",
          "name": "_investmentAddress",
          "type": "address"
        },
        {
          "internalType": "uint256",
          "name": "_investmentTokenIn",
          "type": "uint256"
        },
        {
          "internalType": "address",
          "name": "_tokenOut",
          "type": "address"
        },
        {
          "internalType": "uint256",
          "name": "_minAmountOut",
          "type": "uint256"
        }
      ],
      "name": "exitInvestment",
      "outputs": [],
      "stateMutability": "nonpayable",
      "type": "function"
    },
    {
      "inputs": [
        {
          "internalType": "address",
          "name": "_investmentAddress",
          "type": "address"
        }
      ],
      "name": "getInvestmentAsset",
      "outputs": [
        {
          "internalType": "address",
          "name": "",
          "type": "address"
        }
      ],
      "stateMutability": "view",
      "type": "function"
    },
    {
      "inputs": [
        {
          "internalType": "address",
          "name": "_investmentAddress",
          "type": "address"
        }
      ],
      "name": "getResultAsset",
      "outputs": [
        {
          "internalType": "address",
          "name": "",
          "type": "address"
        }
      ],
      "stateMutability": "view",
      "type": "function"
    },
    {
      "inputs": [
        {
          "internalType": "address",
          "name": "_strategy",
          "type": "address"
        },
        {
          "internalType": "address",
          "name": "_investmentAddress",
          "type": "address"
        }
      ],
      "name": "getRewards",
      "outputs": [
        {
          "internalType": "address",
          "name": "",
          "type": "address"
        },
        {
          "internalType": "uint256",
          "name": "",
          "type": "uint256"
        }
      ],
      "stateMutability": "view",
      "type": "function"
    },
    {
      "inputs": [],
      "name": "name",
      "outputs": [
        {
          "internalType": "string",
          "name": "",
          "type": "string"
        }
      ],
      "stateMutability": "view",
      "type": "function"
    },
    {
      "inputs": [],
      "name": "pickleRegistry",
      "outputs": [
        {
          "internalType": "contract IPickleJarRegistry",
          "name": "",
          "type": "address"
        }
      ],
      "stateMutability": "view",
      "type": "function"
    }
  ],
  "transactionHash": "0x09ebb4279636a709d88a77700953053a52eed54e07d89bd6bc8937564b40d9e8",
  "args": [
    "0xD4a5b5fcB561dAF3aDF86F8477555B92FBa43b5F",
    "0xB3fE136A9Cc0c0Bc37e31E21f681E7Cff8FcCE80"
  ],
  "numDeployments": 2,
  "solcInputHash": "b449cb5aec67dc49b858dceef0213a91",
  "bytecode": "0x60c06040523480156200001157600080fd5b50604051620036a9380380620036a9833981810160405260408110156200003757600080fd5b50805160209182015160408051808201909152600a8152693834b1b5b632afb530b960b11b9381019390935290918281816001600160a01b038116620000c4576040805162461bcd60e51b815260206004820152601a60248201527f436f6e74726f6c6c6572206d75737420626520646566696e6564000000000000604482015290519081900360640190fd5b8151620000d990600090602085019062000105565b506001600160601b0319606091821b81166080526001805594901b90931660a05250620001b192505050565b828054600181600116156101000203166002900490600052602060002090601f0160209004810192826200013d576000855562000188565b82601f106200015857805160ff191683800117855562000188565b8280016001018555821562000188579182015b82811115620001885782518255916020019190600101906200016b565b50620001969291506200019a565b5090565b5b808211156200019657600081556001016200019b565b60805160601c60a05160601c61348862000221600039806119615280611b9b528061216e52806122e65280612747528061292f52806129a15280612a8d5280612b2b5280612f775250806103935280610e5852806119905280611c5a52806120ca528061247f52506134886000f3fe608060405234801561001057600080fd5b50600436106100885760003560e01c8063976a99be1161005b578063976a99be146101e35780639e2bf32a14610227578063f337f6301461022f578063f77c47911461025557610088565b806306fdde031461008d578063779bcb9b1461010a5780637b082a741461015b578063871be9111461019d575b600080fd5b61009561025d565b6040805160208082528351818301528351919283929083019185019080838360005b838110156100cf5781810151838201526020016100b7565b50505050905090810190601f1680156100fc5780820380516001836020036101000a031916815260200191505b509250505060405180910390f35b6101386004803603604081101561012057600080fd5b506001600160a01b03813581169160200135166102eb565b604080516001600160a01b03909316835260208301919091528051918290030190f35b6101816004803603602081101561017157600080fd5b50356001600160a01b0316610303565b604080516001600160a01b039092168252519081900360200190f35b6101e1600480360360a08110156101b357600080fd5b506001600160a01b038135811691602081013582169160408201359160608101359091169060800135610316565b005b6101e1600480360360a08110156101f957600080fd5b506001600160a01b038135811691602081013582169160408201359160608101359091169060800135610ddb565b61018161195f565b6101816004803603602081101561024557600080fd5b50356001600160a01b0316611983565b61018161198e565b6000805460408051602060026001851615610100026000190190941693909304601f810184900484028201840190925281815292918301828280156102e35780601f106102b8576101008083540402835291602001916102e3565b820191906000526020600020905b8154815290600101906020018083116102c657829003601f168201915b505050505081565b6000806102f884846119b2565b915091509250929050565b600061030e826119bb565b90505b919050565b6002600154141561036e576040805162461bcd60e51b815260206004820152601f60248201527f5265656e7472616e637947756172643a207265656e7472616e742063616c6c00604482015290519081900360640190fd5b6002600155604080516313bc6d4b60e01b815233600482015290516001600160a01b037f000000000000000000000000000000000000000000000000000000000000000016916313bc6d4b916024808301926020929190829003018186803b1580156103d957600080fd5b505afa1580156103ed573d6000803e3d6000fd5b505050506040513d602081101561040357600080fd5b5051610456576040805162461bcd60e51b815260206004820152601960248201527f4f6e6c792073797374656d2063616e2063616c6c207468697300000000000000604482015290519081900360640190fd5b600061046586868686866119be565b905061047081611b02565b60008060006104828989896001611b8f565b919450925090506001600160a01b0383161561080a5760006104a38961216a565b90506001600160a01b038116156105cf5784516001600160a01b03166397ccdc606104cf8b600161227e565b83846001600160a01b03166370a082318f6040518263ffffffff1660e01b815260040180826001600160a01b0316815260200191505060206040518083038186803b15801561051d57600080fd5b505afa158015610531573d6000803e3d6000fd5b505050506040513d602081101561054757600080fd5b5051604080517fffffffff0000000000000000000000000000000000000000000000000000000060e087901b1681526001600160a01b03948516600482015292909316602483015260448201529051606480830192600092919082900301818387803b1580156105b657600080fd5b505af11580156105ca573d6000803e3d6000fd5b505050505b84600001516001600160a01b0316636bc195dd8585856040518463ffffffff1660e01b815260040180846001600160a01b0316815260200183815260200180602001828103825283818151815260200191508051906020019080838360005b8381101561064657818101518382015260200161062e565b50505050905090810190601f1680156106735780820380516001836020036101000a031916815260200191505b50945050505050600060405180830381600087803b15801561069457600080fd5b505af11580156106a8573d6000803e3d6000fd5b505050506040513d6000823e601f3d908101601f1916820160405260208110156106d157600080fd5b81019080805160405193929190846401000000008211156106f157600080fd5b90830190602082018581111561070657600080fd5b825164010000000081118282018810171561072057600080fd5b82525081516020918201929091019080838360005b8381101561074d578181015183820152602001610735565b50505050905090810190601f16801561077a5780820380516001836020036101000a031916815260200191505b506040525050505061078b896119bb565b9850886001600160a01b03166370a082318b6040518263ffffffff1660e01b815260040180826001600160a01b0316815260200191505060206040518083038186803b1580156107da57600080fd5b505afa1580156107ee573d6000803e3d6000fd5b505050506040513d602081101561080457600080fd5b50519750505b83516001600160a01b03166397ccdc606108258a600161227e565b8a8a6040518463ffffffff1660e01b815260040180846001600160a01b03168152602001836001600160a01b031681526020018281526020019350505050600060405180830381600087803b15801561087d57600080fd5b505af1158015610891573d6000803e3d6000fd5b5050505060008060006108a78c8c8c8c8c612286565b92509250925086600001516001600160a01b0316636bc195dd8484846040518463ffffffff1660e01b815260040180846001600160a01b0316815260200183815260200180602001828103825283818151815260200191508051906020019080838360005b8381101561092457818101518382015260200161090c565b50505050905090810190601f1680156109515780820380516001836020036101000a031916815260200191505b50945050505050600060405180830381600087803b15801561097257600080fd5b505af1158015610986573d6000803e3d6000fd5b505050506040513d6000823e601f3d908101601f1916820160405260208110156109af57600080fd5b81019080805160405193929190846401000000008211156109cf57600080fd5b9083019060208201858111156109e457600080fd5b82516401000000008111828201881017156109fe57600080fd5b82525081516020918201929091019080838360005b83811015610a2b578181015183820152602001610a13565b50505050905090810190601f168015610a585780820380516001836020036101000a031916815260200191505b5060405250505050610a6d8c8c8c60016122df565b919750955093506001600160a01b03861615610d5f576000610a8e8c612743565b90506001600160a01b03811615610baa576000816001600160a01b03166370a082318f6040518263ffffffff1660e01b815260040180826001600160a01b0316815260200191505060206040518083038186803b158015610aee57600080fd5b505afa158015610b02573d6000803e3d6000fd5b505050506040513d6020811015610b1857600080fd5b505189519091506001600160a01b03166397ccdc60610b388f600161227e565b84846040518463ffffffff1660e01b815260040180846001600160a01b03168152602001836001600160a01b031681526020018281526020019350505050600060405180830381600087803b158015610b9057600080fd5b505af1158015610ba4573d6000803e3d6000fd5b50505050505b87600001516001600160a01b0316636bc195dd8888886040518463ffffffff1660e01b815260040180846001600160a01b0316815260200183815260200180602001828103825283818151815260200191508051906020019080838360005b83811015610c21578181015183820152602001610c09565b50505050905090810190601f168015610c4e5780820380516001836020036101000a031916815260200191505b50945050505050600060405180830381600087803b158015610c6f57600080fd5b505af1158015610c83573d6000803e3d6000fd5b505050506040513d6000823e601f3d908101601f191682016040526020811015610cac57600080fd5b8101908080516040519392919084640100000000821115610ccc57600080fd5b908301906020820185811115610ce157600080fd5b8251640100000000811182820188101715610cfb57600080fd5b82525081516020918201929091019080838360005b83811015610d28578181015183820152602001610d10565b50505050905090810190601f168015610d555780820380516001836020036101000a031916815260200191505b5060405250505050505b610d688761281c565b86604001516001600160a01b031687600001516001600160a01b031688602001516001600160a01b03167f99d773709d80de3e15433c22c381fd8e3b82a68b56322240ff4a304956ef0e528d6040518082815260200191505060405180910390a450506001805550505050505050505050565b60026001541415610e33576040805162461bcd60e51b815260206004820152601f60248201527f5265656e7472616e637947756172643a207265656e7472616e742063616c6c00604482015290519081900360640190fd5b6002600155604080516313bc6d4b60e01b815233600482015290516001600160a01b037f000000000000000000000000000000000000000000000000000000000000000016916313bc6d4b916024808301926020929190829003018186803b158015610e9e57600080fd5b505afa158015610eb2573d6000803e3d6000fd5b505050506040513d6020811015610ec857600080fd5b5051610f1b576040805162461bcd60e51b815260206004820152601960248201527f4f6e6c792073797374656d2063616e2063616c6c207468697300000000000000604482015290519081900360640190fd5b6000610f2a86868686866119be565b9050610f35816128e8565b6000806000610f478989876000611b8f565b919450925090506001600160a01b03831615611239576000610f688961216a565b90506001600160a01b03811615611084576000816001600160a01b03166370a082318c6040518263ffffffff1660e01b815260040180826001600160a01b0316815260200191505060206040518083038186803b158015610fc857600080fd5b505afa158015610fdc573d6000803e3d6000fd5b505050506040513d6020811015610ff257600080fd5b505186519091506001600160a01b03166397ccdc606110128c600061227e565b84846040518463ffffffff1660e01b815260040180846001600160a01b03168152602001836001600160a01b031681526020018281526020019350505050600060405180830381600087803b15801561106a57600080fd5b505af115801561107e573d6000803e3d6000fd5b50505050505b84600001516001600160a01b0316636bc195dd8585856040518463ffffffff1660e01b815260040180846001600160a01b0316815260200183815260200180602001828103825283818151815260200191508051906020019080838360005b838110156110fb5781810151838201526020016110e3565b50505050905090810190601f1680156111285780820380516001836020036101000a031916815260200191505b50945050505050600060405180830381600087803b15801561114957600080fd5b505af115801561115d573d6000803e3d6000fd5b505050506040513d6000823e601f3d908101601f19168201604052602081101561118657600080fd5b81019080805160405193929190846401000000008211156111a657600080fd5b9083019060208201858111156111bb57600080fd5b82516401000000008111828201881017156111d557600080fd5b82525081516020918201929091019080838360005b838110156112025781810151838201526020016111ea565b50505050905090810190601f16801561122f5780820380516001836020036101000a031916815260200191505b5060405250505050505b6001600160a01b0386161561140c5783516001600160a01b03166397ccdc606112638a600061227e565b88886040518463ffffffff1660e01b815260040180846001600160a01b03168152602001836001600160a01b031681526020018281526020019350505050600060405180830381600087803b1580156112bb57600080fd5b505af11580156112cf573d6000803e3d6000fd5b5050505060006112de8961292b565b90506001600160a01b0381161561140a5784516001600160a01b03166397ccdc6061130a8b600061227e565b83846001600160a01b03166370a082318f6040518263ffffffff1660e01b815260040180826001600160a01b0316815260200191505060206040518083038186803b15801561135857600080fd5b505afa15801561136c573d6000803e3d6000fd5b505050506040513d602081101561138257600080fd5b5051604080517fffffffff0000000000000000000000000000000000000000000000000000000060e087901b1681526001600160a01b03948516600482015292909316602483015260448201529051606480830192600092919082900301818387803b1580156113f157600080fd5b505af1158015611405573d6000803e3d6000fd5b505050505b505b600080600061141e8c8c8c8c8c61299a565b92509250925086600001516001600160a01b0316636bc195dd8484846040518463ffffffff1660e01b815260040180846001600160a01b0316815260200183815260200180602001828103825283818151815260200191508051906020019080838360005b8381101561149b578181015183820152602001611483565b50505050905090810190601f1680156114c85780820380516001836020036101000a031916815260200191505b50945050505050600060405180830381600087803b1580156114e957600080fd5b505af11580156114fd573d6000803e3d6000fd5b505050506040513d6000823e601f3d908101601f19168201604052602081101561152657600080fd5b810190808051604051939291908464010000000082111561154657600080fd5b90830190602082018581111561155b57600080fd5b825164010000000081118282018810171561157557600080fd5b82525081516020918201929091019080838360005b838110156115a257818101518382015260200161158a565b50505050905090810190601f1680156115cf5780820380516001836020036101000a031916815260200191505b50604052505050506115e48c8c8c60006122df565b919750955093506001600160a01b038616156118d65760006116058c612743565b90506001600160a01b03811615611721576000816001600160a01b03166370a082318f6040518263ffffffff1660e01b815260040180826001600160a01b0316815260200191505060206040518083038186803b15801561166557600080fd5b505afa158015611679573d6000803e3d6000fd5b505050506040513d602081101561168f57600080fd5b505189519091506001600160a01b03166397ccdc606116af8f600161227e565b84846040518463ffffffff1660e01b815260040180846001600160a01b03168152602001836001600160a01b031681526020018281526020019350505050600060405180830381600087803b15801561170757600080fd5b505af115801561171b573d6000803e3d6000fd5b50505050505b87600001516001600160a01b0316636bc195dd8888886040518463ffffffff1660e01b815260040180846001600160a01b0316815260200183815260200180602001828103825283818151815260200191508051906020019080838360005b83811015611798578181015183820152602001611780565b50505050905090810190601f1680156117c55780820380516001836020036101000a031916815260200191505b50945050505050600060405180830381600087803b1580156117e657600080fd5b505af11580156117fa573d6000803e3d6000fd5b505050506040513d6000823e601f3d908101601f19168201604052602081101561182357600080fd5b810190808051604051939291908464010000000082111561184357600080fd5b90830190602082018581111561185857600080fd5b825164010000000081118282018810171561187257600080fd5b82525081516020918201929091019080838360005b8381101561189f578181015183820152602001611887565b50505050905090810190601f1680156118cc5780820380516001836020036101000a031916815260200191505b5060405250505050505b6118df87612eb0565b8a6001600160a01b031687600001516001600160a01b031688602001516001600160a01b03167fdc0718d28ea0f80518c2c454af93bc46bf51dd4a1b25a048ca4ca75a7ac359c48c8e60405180836001600160a01b031681526020018281526020019250505060405180910390a450506001805550505050505050505050565b7f000000000000000000000000000000000000000000000000000000000000000081565b600061030e82612f73565b7f000000000000000000000000000000000000000000000000000000000000000081565b50600091829150565b90565b6119c6613300565b6119ce613300565b6001600160a01b038716808252604080517f56ba88b800000000000000000000000000000000000000000000000000000000815290516356ba88b891600480820192602092909190829003018186803b158015611a2a57600080fd5b505afa158015611a3e573d6000803e3d6000fd5b505050506040513d6020811015611a5457600080fd5b50516001600160a01b03166020820152611a6d866119bb565b6001600160a01b03908116604080840182905280516370a0823160e01b8152928a1660048401525190916370a08231916024808301926020929190829003018186803b158015611abc57600080fd5b505afa158015611ad0573d6000803e3d6000fd5b505050506040513d6020811015611ae657600080fd5b5051608082015260608101949094525060a08301525092915050565b6000816060015111611b455760405162461bcd60e51b815260040180806020018281038252603481526020018061341f6034913960400191505060405180910390fd5b806060015181608001511015611b8c5760405162461bcd60e51b81526004018080602001828103825260338152602001806133526033913960400191505060405180910390fd5b50565b600080606083612149577f00000000000000000000000000000000000000000000000000000000000000006001600160a01b031663690f7390876040518263ffffffff1660e01b815260040180826001600160a01b0316815260200191505060206040518083038186803b158015611c0657600080fd5b505afa158015611c1a573d6000803e3d6000fd5b505050506040513d6020811015611c3057600080fd5b505115612149576000611c44866002613085565b90506000611e71670d2f13f7789f0000611e6b847f00000000000000000000000000000000000000000000000000000000000000006001600160a01b0316632630c12f6040518163ffffffff1660e01b815260040160206040518083038186803b158015611cb157600080fd5b505afa158015611cc5573d6000803e3d6000fd5b505050506040513d6020811015611cdb57600080fd5b81019080805190602001909291905050506001600160a01b031663ac41865a8d6001600160a01b0316630dfe16816040518163ffffffff1660e01b815260040160206040518083038186803b158015611d3357600080fd5b505afa158015611d47573d6000803e3d6000fd5b505050506040513d6020811015611d5d57600080fd5b81019080805190602001909291905050508e6001600160a01b031663d21220a76040518163ffffffff1660e01b815260040160206040518083038186803b158015611da757600080fd5b505afa158015611dbb573d6000803e3d6000fd5b505050506040513d6020811015611dd157600080fd5b5051604080517fffffffff0000000000000000000000000000000000000000000000000000000060e086901b1681526001600160a01b039384166004820152929091166024830152516044808301926020929190829003018186803b158015611e3957600080fd5b505afa158015611e4d573d6000803e3d6000fd5b505050506040513d6020811015611e6357600080fd5b5051906130ec565b906130ec565b9050611f4d886001600160a01b0316630dfe16816040518163ffffffff1660e01b815260040160206040518083038186803b158015611eaf57600080fd5b505afa158015611ec3573d6000803e3d6000fd5b505050506040513d6020811015611ed957600080fd5b50516040805163d21220a760e01b815290516001600160a01b038c169163d21220a7916004808301926020929190829003018186803b158015611f1b57600080fd5b505afa158015611f2f573d6000803e3d6000fd5b505050506040513d6020811015611f4557600080fd5b505183613111565b9050600089896001600160a01b0316630dfe16816040518163ffffffff1660e01b815260040160206040518083038186803b158015611f8b57600080fd5b505afa158015611f9f573d6000803e3d6000fd5b505050506040513d6020811015611fb557600080fd5b50516040805163d21220a760e01b8152905186916001600160a01b038e169163d21220a791600480820192602092909190829003018186803b158015611ffa57600080fd5b505afa15801561200e573d6000803e3d6000fd5b505050506040513d602081101561202457600080fd5b5051604080516001600160a01b039586166024820152938516604485015260648401929092528316608483015260a48083018690528151808403909101815260c49092018152602082810180516001600160e01b03167ffa1ca8200000000000000000000000000000000000000000000000000000000017905281517fe6e6051300000000000000000000000000000000000000000000000000000000815291519294507f00000000000000000000000000000000000000000000000000000000000000009093169263e6e6051392600480840193829003018186803b15801561210d57600080fd5b505afa158015612121573d6000803e3d6000fd5b505050506040513d602081101561213757600080fd5b50519550600094509250612160915050565b505060408051602081019091526000808252915081905b9450945094915050565b60007f00000000000000000000000000000000000000000000000000000000000000006001600160a01b031663690f7390836040518263ffffffff1660e01b815260040180826001600160a01b0316815260200191505060206040518083038186803b1580156121d957600080fd5b505afa1580156121ed573d6000803e3d6000fd5b505050506040513d602081101561220357600080fd5b50511561227657816001600160a01b0316630dfe16816040518163ffffffff1660e01b815260040160206040518083038186803b15801561224357600080fd5b505afa158015612257573d6000803e3d6000fd5b505050506040513d602081101561226d57600080fd5b50519050610311565b506000919050565b815b92915050565b5050604080516024808201939093528151808203909301835260440190526020810180516001600160e01b03167f2e1a7d4d00000000000000000000000000000000000000000000000000000000179052909260009250565b60008060607f00000000000000000000000000000000000000000000000000000000000000006001600160a01b03166382136a60876040518263ffffffff1660e01b815260040180826001600160a01b0316815260200191505060206040518083038186803b15801561235157600080fd5b505afa158015612365573d6000803e3d6000fd5b505050506040513d602081101561237b57600080fd5b505115612149576000866001600160a01b031663d21220a76040518163ffffffff1660e01b815260040160206040518083038186803b1580156123bd57600080fd5b505afa1580156123d1573d6000803e3d6000fd5b505050506040513d60208110156123e757600080fd5b5051604080516370a0823160e01b81526001600160a01b038b81166004830152915191909216916370a08231916024808301926020929190829003018186803b15801561243357600080fd5b505afa158015612447573d6000803e3d6000fd5b505050506040513d602081101561245d57600080fd5b505190506103e88111156127235760006125cc670d2f13f7789f0000611e6b847f00000000000000000000000000000000000000000000000000000000000000006001600160a01b0316632630c12f6040518163ffffffff1660e01b815260040160206040518083038186803b1580156124d657600080fd5b505afa1580156124ea573d6000803e3d6000fd5b505050506040513d602081101561250057600080fd5b81019080805190602001909291905050506001600160a01b031663ac41865a8d6001600160a01b031663d21220a76040518163ffffffff1660e01b815260040160206040518083038186803b15801561255857600080fd5b505afa15801561256c573d6000803e3d6000fd5b505050506040513d602081101561258257600080fd5b81019080805190602001909291905050508e6001600160a01b0316630dfe16816040518163ffffffff1660e01b815260040160206040518083038186803b158015611da757600080fd5b9050612676886001600160a01b031663d21220a76040518163ffffffff1660e01b815260040160206040518083038186803b15801561260a57600080fd5b505afa15801561261e573d6000803e3d6000fd5b505050506040513d602081101561263457600080fd5b505160408051630dfe168160e01b815290516001600160a01b038c1691630dfe1681916004808301926020929190829003018186803b158015611f1b57600080fd5b9050600089896001600160a01b031663d21220a76040518163ffffffff1660e01b815260040160206040518083038186803b1580156126b457600080fd5b505afa1580156126c8573d6000803e3d6000fd5b505050506040513d60208110156126de57600080fd5b505160408051630dfe168160e01b8152905186916001600160a01b038e1691630dfe168191600480820192602092909190829003018186803b158015611ffa57600080fd5b505060408051602081019091526000808252978897509095509350505050565b60007f00000000000000000000000000000000000000000000000000000000000000006001600160a01b03166382136a60836040518263ffffffff1660e01b815260040180826001600160a01b0316815260200191505060206040518083038186803b1580156127b257600080fd5b505afa1580156127c6573d6000803e3d6000fd5b505050506040513d60208110156127dc57600080fd5b50511561227657816001600160a01b031663d21220a76040518163ffffffff1660e01b815260040160206040518083038186803b15801561224357600080fd5b806060015181608001510360640181604001516001600160a01b03166370a0823183600001516040518263ffffffff1660e01b815260040180826001600160a01b0316815260200191505060206040518083038186803b15801561287f57600080fd5b505afa158015612893573d6000803e3d6000fd5b505050506040513d60208110156128a957600080fd5b50511115611b8c5760405162461bcd60e51b81526004018080602001828103825260318152602001806133b76031913960400191505060405180910390fd5b6000816060015111611b8c5760405162461bcd60e51b81526004018080602001828103825260378152602001806133e86037913960400191505060405180910390fd5b60007f00000000000000000000000000000000000000000000000000000000000000006001600160a01b031663690f7390836040518263ffffffff1660e01b815260040180826001600160a01b0316815260200191505060206040518083038186803b1580156127b257600080fd5b60008060607f00000000000000000000000000000000000000000000000000000000000000006001600160a01b031663ca6a48c2886040518263ffffffff1660e01b815260040180826001600160a01b0316815260200191505060206040518083038186803b158015612a0c57600080fd5b505afa158015612a20573d6000803e3d6000fd5b505050506040513d6020811015612a3657600080fd5b5051612a89576040805162461bcd60e51b815260206004820152601960248201527f5069636b6c65206a617220646f6573206e6f7420657869737400000000000000604482015290519081900360640190fd5b60607f00000000000000000000000000000000000000000000000000000000000000006001600160a01b03166382136a60896040518263ffffffff1660e01b815260040180826001600160a01b0316815260200191505060206040518083038186803b158015612af857600080fd5b505afa158015612b0c573d6000803e3d6000fd5b505050506040513d6020811015612b2257600080fd5b505115612e4e577f00000000000000000000000000000000000000000000000000000000000000006001600160a01b031663690f7390896040518263ffffffff1660e01b815260040180826001600160a01b0316815260200191505060206040518083038186803b158015612b9657600080fd5b505afa158015612baa573d6000803e3d6000fd5b505050506040513d6020811015612bc057600080fd5b505115612de557876001600160a01b0316630dfe16816040518163ffffffff1660e01b815260040160206040518083038186803b158015612c0057600080fd5b505afa158015612c14573d6000803e3d6000fd5b505050506040513d6020811015612c2a57600080fd5b5051604080516370a0823160e01b81526001600160a01b038c81166004830152915191909216916370a08231916024808301926020929190829003018186803b158015612c7657600080fd5b505afa158015612c8a573d6000803e3d6000fd5b505050506040513d6020811015612ca057600080fd5b50516040805163d21220a760e01b815290516001600160a01b038b169163d21220a7916004808301926020929190829003018186803b158015612ce257600080fd5b505afa158015612cf6573d6000803e3d6000fd5b505050506040513d6020811015612d0c57600080fd5b5051604080516370a0823160e01b81526001600160a01b038d81166004830152915191909216916370a08231916024808301926020929190829003018186803b158015612d5857600080fd5b505afa158015612d6c573d6000803e3d6000fd5b505050506040513d6020811015612d8257600080fd5b50516040805160248101939093526044808401929092528051808403909201825260649092019091526020810180516001600160e01b03167fe2bbb158000000000000000000000000000000000000000000000000000000001790529050612e49565b5060408051602481018690526000604482015260016064808301919091528251808303909101815260849091019091526020810180516001600160e01b03167f43a0d066000000000000000000000000000000000000000000000000000000001790525b612ea1565b506040805160248082018790528251808303909101815260449091019091526020810180516001600160e01b03167fb6b55f25000000000000000000000000000000000000000000000000000000001790525b96986000985095505050505050565b806080015181604001516001600160a01b03166370a0823183600001516040518263ffffffff1660e01b815260040180826001600160a01b0316815260200191505060206040518083038186803b158015612f0a57600080fd5b505afa158015612f1e573d6000803e3d6000fd5b505050506040513d6020811015612f3457600080fd5b50511015611b8c5760405162461bcd60e51b81526004018080602001828103825260328152602001806133856032913960400191505060405180910390fd5b60007f00000000000000000000000000000000000000000000000000000000000000006001600160a01b03166382136a60836040518263ffffffff1660e01b815260040180826001600160a01b0316815260200191505060206040518083038186803b158015612fe257600080fd5b505afa158015612ff6573d6000803e3d6000fd5b505050506040513d602081101561300c57600080fd5b50511561304c57816001600160a01b0316630dfe16816040518163ffffffff1660e01b815260040160206040518083038186803b15801561224357600080fd5b816001600160a01b031663fc0c546a6040518163ffffffff1660e01b815260040160206040518083038186803b15801561224357600080fd5b60008082116130db576040805162461bcd60e51b815260206004820152601a60248201527f536166654d6174683a206469766973696f6e206279207a65726f000000000000604482015290519081900360640190fd5b8183816130e457fe5b049392505050565b600061310a670de0b6b3a76400006131048585613189565b90613085565b9392505050565b600080613126856001600160a01b03166131ad565b9050600061313c856001600160a01b03166131ad565b90508082141561315057839250505061310a565b818111156131705761316784838303600a0a613189565b9250505061310a565b61317f84828403600a0a613085565b9695505050505050565b60008215806131a4575050818102818382816131a157fe5b04145b61228057600080fd5b60006131b8826132df565b156131c557506012610311565b60408051600481526024810182526020810180516001600160e01b03167f313ce567000000000000000000000000000000000000000000000000000000001781529151815160009384936001600160a01b0388169361138893919290918291908083835b602083106132485780518252601f199092019160209182019101613229565b6001836020036101000a0380198251168184511680821785525050505050509050019150506000604051808303818686fa925050503d80600081146132a9576040519150601f19603f3d011682016040523d82523d6000602084013e6132ae565b606091505b5091509150816132bf5760126132d7565b8080602001905160208110156132d457600080fd5b50515b949350505050565b60006001600160a01b038216158061030e5750506001600160a01b03161590565b6040518060c0016040528060006001600160a01b0316815260200160006001600160a01b0316815260200160006001600160a01b03168152602001600081526020016000815260200160008152509056fe54686520737472617465677920646f6573206e6f74206861766520656e6f75676820696e766573746d656e7420746f6b656e7354686520737472617465677920646964206e6f7420726563656976652074686520696e766573746d656e7420746f6b656e7354686520737472617465677920646964206e6f742072657475726e2074686520696e766573746d656e7420746f6b656e734d696e20696e766573746d656e7420746f6b656e7320746f2072656365697665206d7573742062652067726561746572207468616e2030496e766573746d656e7420746f6b656e7320746f2065786368616e6765206d7573742062652067726561746572207468616e2030a264697066735822122084d6ef131c1cfc83a4afc4c88efe3558649234fd899ebfba19d6840e501193ea64736f6c63430007060033",
  "devdoc": {
    "author": "Babylon Finance Protocol Pickle Jar Integration",
    "kind": "dev",
    "methods": {
      "constructor": {
        "params": {
          "_controller": "Address of the controller",
          "_pickleJarRegistry": "Address of our pickle jar registry"
        }
      },
      "enterInvestment(address,address,uint256,address,uint256)": {
        "params": {
          "_investmentAddress": "Address of the investment token to join",
          "_investmentTokensOut": "Min amount of investment tokens to receive",
          "_maxAmountIn": "Max amount of the token to deposit",
          "_strategy": "Address of the strategy",
          "_tokenIn": "Token address to deposit"
        }
      },
      "exitInvestment(address,address,uint256,address,uint256)": {
        "params": {
          "_investmentAddress": "Address of the investment token to exit",
          "_investmentTokenIn": "Quantity of investment tokens to return",
          "_minAmountOut": "Min token quantities to receive from the investment",
          "_strategy": "Address of the strategy",
          "_tokenOut": "Token address to withdraw"
        }
      },
      "getInvestmentAsset(address)": {
        "returns": {
          "_0": "address                           Returns the asset that this investment needs"
        }
      },
      "getResultAsset(address)": {
        "returns": {
          "_0": "address                            Returns the asset that this investment obtains"
        }
      },
      "getRewards(address,address)": {
        "params": {
          "_investmentAddress": "Address of the investment",
          "_strategy": "Address of the strategy"
        },
        "returns": {
          "_0": "address                            Returns the address with the token of extra rewards",
          "_1": "uint256                            Extra rewards received so far"
        }
      }
    },
    "title": "PickleJarIntegration",
    "version": 1
  },
  "userdoc": {
    "kind": "user",
    "methods": {
      "constructor": {
        "notice": "Creates the integration"
      },
      "enterInvestment(address,address,uint256,address,uint256)": {
        "notice": "Deposits tokens into an investment"
      },
      "exitInvestment(address,address,uint256,address,uint256)": {
        "notice": "Exits an outside passive investment"
      },
      "getInvestmentAsset(address)": {
        "notice": "Gets the asset needed to enter the investment"
      },
      "getResultAsset(address)": {
        "notice": "Gets the asset you obtained after entering the investment"
      },
      "getRewards(address,address)": {
        "notice": "Gets the rewards and the token that they are denominated in"
      }
    },
    "version": 1
  },
  "storageLayout": {
    "storage": [
      {
        "astId": 25285,
        "contract": "contracts/integrations/passive/PickleJarIntegration.sol:PickleJarIntegration",
        "label": "name",
        "offset": 0,
        "slot": "0",
        "type": "t_string_storage"
      },
      {
        "astId": 6418,
        "contract": "contracts/integrations/passive/PickleJarIntegration.sol:PickleJarIntegration",
        "label": "_status",
        "offset": 0,
        "slot": "1",
        "type": "t_uint256"
      }
    ],
    "types": {
      "t_string_storage": {
        "encoding": "bytes",
        "label": "string",
        "numberOfBytes": "32"
      },
      "t_uint256": {
        "encoding": "inplace",
        "label": "uint256",
        "numberOfBytes": "32"
      }
    }
  }
}