{
  "address": "0xb0B59bd5E1e5Ea0097F12C05C986da2f173e2FE7",
  "abi": [
    {
      "inputs": [],
      "stateMutability": "nonpayable",
      "type": "constructor"
    },
    {
      "anonymous": false,
      "inputs": [
        {
          "indexed": true,
          "internalType": "address",
          "name": "previousOwner",
          "type": "address"
        },
        {
          "indexed": true,
          "internalType": "address",
          "name": "newOwner",
          "type": "address"
        }
      ],
      "name": "OwnershipTransferred",
      "type": "event"
    },
    {
      "inputs": [
        {
          "internalType": "address",
          "name": "_tokenIn",
          "type": "address"
        },
        {
          "internalType": "address",
          "name": "_tokenOut",
          "type": "address"
        },
        {
          "internalType": "bool",
          "name": "_forNAV",
          "type": "bool"
        }
      ],
      "name": "_getPrice",
      "outputs": [
        {
          "internalType": "uint256",
          "name": "price",
          "type": "uint256"
        }
      ],
      "stateMutability": "view",
      "type": "function"
    },
    {
      "inputs": [
        {
          "internalType": "address",
          "name": "",
          "type": "address"
        }
      ],
      "name": "aTokenToAsset",
      "outputs": [
        {
          "internalType": "address",
          "name": "",
          "type": "address"
        }
      ],
      "stateMutability": "view",
      "type": "function"
    },
    {
      "inputs": [
        {
          "internalType": "address",
          "name": "",
          "type": "address"
        }
      ],
      "name": "cTokenToAsset",
      "outputs": [
        {
          "internalType": "address",
          "name": "",
          "type": "address"
        }
      ],
      "stateMutability": "view",
      "type": "function"
    },
    {
      "inputs": [
        {
          "internalType": "address",
          "name": "",
          "type": "address"
        }
      ],
      "name": "crTokenToAsset",
      "outputs": [
        {
          "internalType": "address",
          "name": "",
          "type": "address"
        }
      ],
      "stateMutability": "view",
      "type": "function"
    },
    {
      "inputs": [
        {
          "internalType": "address",
          "name": "_asset",
          "type": "address"
        }
      ],
      "name": "getCompoundExchangeRate",
      "outputs": [
        {
          "internalType": "uint256",
          "name": "",
          "type": "uint256"
        }
      ],
      "stateMutability": "view",
      "type": "function"
    },
    {
      "inputs": [
        {
          "internalType": "address",
          "name": "_asset",
          "type": "address"
        }
      ],
      "name": "getCreamExchangeRate",
      "outputs": [
        {
          "internalType": "uint256",
          "name": "",
          "type": "uint256"
        }
      ],
      "stateMutability": "view",
      "type": "function"
    },
    {
      "inputs": [
        {
          "internalType": "address",
          "name": "_tokenIn",
          "type": "address"
        },
        {
          "internalType": "address",
          "name": "_tokenOut",
          "type": "address"
        }
      ],
      "name": "getPrice",
      "outputs": [
        {
          "internalType": "uint256",
          "name": "price",
          "type": "uint256"
        }
      ],
      "stateMutability": "view",
      "type": "function"
    },
    {
      "inputs": [
        {
          "internalType": "address",
          "name": "_tokenIn",
          "type": "address"
        },
        {
          "internalType": "address",
          "name": "_tokenOut",
          "type": "address"
        }
      ],
      "name": "getPriceNAV",
      "outputs": [
        {
          "internalType": "uint256",
          "name": "price",
          "type": "uint256"
        }
      ],
      "stateMutability": "view",
      "type": "function"
    },
    {
      "inputs": [],
      "name": "owner",
      "outputs": [
        {
          "internalType": "address",
          "name": "",
          "type": "address"
        }
      ],
      "stateMutability": "view",
      "type": "function"
    },
    {
      "inputs": [],
      "name": "renounceOwnership",
      "outputs": [],
      "stateMutability": "nonpayable",
      "type": "function"
    },
    {
      "inputs": [
        {
          "internalType": "address",
          "name": "",
          "type": "address"
        }
      ],
      "name": "synths",
      "outputs": [
        {
          "internalType": "bool",
          "name": "",
          "type": "bool"
        }
      ],
      "stateMutability": "view",
      "type": "function"
    },
    {
      "inputs": [
        {
          "internalType": "address",
          "name": "newOwner",
          "type": "address"
        }
      ],
      "name": "transferOwnership",
      "outputs": [],
      "stateMutability": "nonpayable",
      "type": "function"
    },
    {
      "inputs": [
        {
          "internalType": "address",
          "name": "",
          "type": "address"
        }
      ],
      "name": "vaults",
      "outputs": [
        {
          "internalType": "bool",
          "name": "",
          "type": "bool"
        }
      ],
      "stateMutability": "view",
      "type": "function"
    }
  ],
  "transactionHash": "0xd618f9e5a886eee4330139192540da5983bdc33f50a7ab1b8eb91a450bbc5bbc",
  "args": [],
  "solcInputHash": "7b45bb79dada8e03f29d6f2519fd7b16",
  "bytecode": "0x60806040523480156200001157600080fd5b5060006200001e62007cbe565b600080546001600160a01b0319166001600160a01b0383169081178255604051929350917f8be0079c531659141344cd1fd0a4f28419497f9722a3daafe3b4186f6b6457e0908290a350736b175474e89094c44da98b954eedeac495271d0f60016000735d3a536e4d6dbd6114cc1ead35777bab948e36436001600160a01b03166001600160a01b0316815260200190815260200160002060006101000a8154816001600160a01b0302191690836001600160a01b03160217905550731f9840a85d5af5bf1d1762f925bdaddc4201f984600160007335a18000230da775cac24873d00ff85bccded5506001600160a01b03166001600160a01b0316815260200190815260200160002060006101000a8154816001600160a01b0302191690836001600160a01b0316021790555073c02aaa39b223fe8d0a0e5c4f27ead9083c756cc260016000734ddc2d193948926d02f9b1fe9e1daa0718270ed56001600160a01b03166001600160a01b0316815260200190815260200160002060006101000a8154816001600160a01b0302191690836001600160a01b0316021790555073a0b86991c6218b36c1d19d4a2e9eb0ce3606eb48600160007339aa39c021dfbae8fac545936693ac917d5e75636001600160a01b03166001600160a01b0316815260200190815260200160002060006101000a8154816001600160a01b0302191690836001600160a01b0316021790555073dac17f958d2ee523a2206206994597c13d831ec76001600073f650c3d88d12db855b8bf7d11be6c55a4e07dcc96001600160a01b03166001600160a01b0316815260200190815260200160002060006101000a8154816001600160a01b0302191690836001600160a01b03160217905550732260fac5e5542a773aa44fbcfedf7c193bc2c5996001600073ccf4429db6322d5c611ee964527d42e5d685dd6a6001600160a01b03166001600160a01b0316815260200190815260200160002060006101000a8154816001600160a01b0302191690836001600160a01b0316021790555073c00e94cb662c3520282e6f5717214004a7f26888600160007370e36f6bf80a52b3b46b3af8e106cc0ed743e8e46001600160a01b03166001600160a01b0316815260200190815260200160002060006101000a8154816001600160a01b0302191690836001600160a01b03160217905550730d8775f648430679a709e98d2b0cb6250d2887ef60016000736c8c6b02e7b2be14d4fa6022dfd6d75921d90e4e6001600160a01b03166001600160a01b0316815260200190815260200160002060006101000a8154816001600160a01b0302191690836001600160a01b0316021790555073514910771af9ca656af840dff83e8264ecf986ca6001600073face851a4921ce59e912d19329929ce6da6eb0c76001600160a01b03166001600160a01b0316815260200190815260200160002060006101000a8154816001600160a01b0302191690836001600160a01b03160217905550731985365e9f78359a9b6ad760e32412f4a445e8626001600073158079ee67fce2f58472a96584a73c7ab9ac95c16001600160a01b03166001600160a01b0316815260200190815260200160002060006101000a8154816001600160a01b0302191690836001600160a01b031602179055507389d24a6b4ccb1b6faa2625fe562bdd9a232603596001600073f5dce57282a584d2746faf1593d3121fcac444dc6001600160a01b03166001600160a01b0316815260200190815260200160002060006101000a8154816001600160a01b0302191690836001600160a01b031602179055506e085d4780b73119b644ae5ecd22b376600160007312392f67bdf24fae0af363c24ac620a2f67dad866001600160a01b03166001600160a01b0316815260200190815260200160002060006101000a8154816001600160a01b0302191690836001600160a01b0316021790555073e41d2489571d322189246dafa5ebde1f4699f4986001600073b3319f5d18bc0d84dd1b4825dcde5d5f7266d4076001600160a01b03166001600160a01b0316815260200190815260200160002060006101000a8154816001600160a01b0302191690836001600160a01b03160217905550737fc66500c84a76ad7e9c93437bfc5ac33e2ddae96002600073ffc97d72e13e01096502cb8eb52dee56f74dad7b6001600160a01b03166001600160a01b0316815260200190815260200160002060006101000a8154816001600160a01b0302191690836001600160a01b0316021790555073ba100000625a3754423978a60c9317c58a424e3d6002600073272f97b7a56a387ae942350bbc7df5700f8a45766001600160a01b03166001600160a01b0316815260200190815260200160002060006101000a8154816001600160a01b0302191690836001600160a01b03160217905550730d8775f648430679a709e98d2b0cb6250d2887ef600260007305ec93c0365baaeabf7aeffb0972ea7ecdd39cf16001600160a01b03166001600160a01b0316815260200190815260200160002060006101000a8154816001600160a01b0302191690836001600160a01b03160217905550734fabb145d64652a948d72533023f6e7a623c7c536002600073a361718326c15715591c299427c62086f69923d96001600160a01b03166001600160a01b0316815260200190815260200160002060006101000a8154816001600160a01b0302191690836001600160a01b0316021790555073d533a949740bb3306d119cc777fa900ba034cd5260026000738dae6cb04688c62d939ed9b68d32bc62e49970b16001600160a01b03166001600160a01b0316815260200190815260200160002060006101000a8154816001600160a01b0302191690836001600160a01b03160217905550736b175474e89094c44da98b954eedeac495271d0f6002600073028171bca77440897b824ca71d1c56cac55b68a36001600160a01b03166001600160a01b0316815260200190815260200160002060006101000a8154816001600160a01b0302191690836001600160a01b0316021790555073f629cbd94d3791c9250152bd8dfbdf380e2a3b9c6002600073ac6df26a590f08dcc95d5a4705ae8abbc88509ef6001600160a01b03166001600160a01b0316815260200190815260200160002060006101000a8154816001600160a01b0302191690836001600160a01b0316021790555073056fd409e1d7a124bd7017459dfea2f387b6d5cd6002600073d37ee7e4f452c6638c96536e68090de8cbcdb5836001600160a01b03166001600160a01b0316815260200190815260200160002060006101000a8154816001600160a01b0302191690836001600160a01b0316021790555073dd974d5c2e2928dea5f71b9825b8b646686bd200600260007339c6b3e42d6a679d7d776778fe880bc9487c2eda6001600160a01b03166001600160a01b0316815260200190815260200160002060006101000a8154816001600160a01b0302191690836001600160a01b0316021790555073514910771af9ca656af840dff83e8264ecf986ca6002600073a06bc25b5805d5f8d82847d191cb4af5a3e873e06001600160a01b03166001600160a01b0316815260200190815260200160002060006101000a8154816001600160a01b0302191690836001600160a01b03160217905550730f5d2fb29fb7d3cfee444a200298f468908cc9426002600073a685a61171bb30d4072b338c80cb7b2c865c873e6001600160a01b03166001600160a01b0316815260200190815260200160002060006101000a8154816001600160a01b0302191690836001600160a01b03160217905550739f8f72aa9304c8b593d555f12ef6589cc3a579a26002600073c713e5e149d5d0715dcd1c156a020976e7e56b886001600160a01b03166001600160a01b0316815260200190815260200160002060006101000a8154816001600160a01b0302191690836001600160a01b031602179055507303ab458634910aad20ef5f1c8ee96f1d6ac549196002600073c9bc48c72154ef3e5425641a3c747242112a46af6001600160a01b03166001600160a01b0316815260200190815260200160002060006101000a8154816001600160a01b0302191690836001600160a01b0316021790555073408e41876cccdc0f92210600ef50372656052a386002600073cc12abe4ff81c9378d670de1b57f8e0dd228d77a6001600160a01b03166001600160a01b0316815260200190815260200160002060006101000a8154816001600160a01b0302191690836001600160a01b0316021790555073c011a73ee8576fb46f5e1c5751ca3b9fe0af2a6f600260007335f6b052c598d933d69a4eec4d04c73a191fe6c26001600160a01b03166001600160a01b0316815260200190815260200160002060006101000a8154816001600160a01b0302191690836001600160a01b031602179055507357ab1ec28d129707052df4df418d58a2d46d5f5160026000736c5024cd4f8a59110119c56f8933403a539555eb6001600160a01b03166001600160a01b0316815260200190815260200160002060006101000a8154816001600160a01b0302191690836001600160a01b031602179055506e085d4780b73119b644ae5ecd22b3766002600073101cc05f4a51c0319f570d5e146a8c625198e6366001600160a01b03166001600160a01b0316815260200190815260200160002060006101000a8154816001600160a01b0302191690836001600160a01b03160217905550731f9840a85d5af5bf1d1762f925bdaddc4201f9846002600073b9d7cb55f463405cdfbe4e90a6d2df01c2b92bf16001600160a01b03166001600160a01b0316815260200190815260200160002060006101000a8154816001600160a01b0302191690836001600160a01b0316021790555073a0b86991c6218b36c1d19d4a2e9eb0ce3606eb486002600073bcca60bb61934080951369a648fb03df4f96263c6001600160a01b03166001600160a01b0316815260200190815260200160002060006101000a8154816001600160a01b0302191690836001600160a01b0316021790555073dac17f958d2ee523a2206206994597c13d831ec760026000733ed3b47dd13ec9a98b44e6204a523e766b2258116001600160a01b03166001600160a01b0316815260200190815260200160002060006101000a8154816001600160a01b0302191690836001600160a01b03160217905550732260fac5e5542a773aa44fbcfedf7c193bc2c59960026000739ff58f4ffb29fa2266ab25e75e2a8b35033116566001600160a01b03166001600160a01b0316815260200190815260200160002060006101000a8154816001600160a01b0302191690836001600160a01b0316021790555073c02aaa39b223fe8d0a0e5c4f27ead9083c756cc26002600073030ba81f1c18d280636f32af80b9aad02cf0854e6001600160a01b03166001600160a01b0316815260200190815260200160002060006101000a8154816001600160a01b0302191690836001600160a01b03160217905550738798249c2e607446efb7ad49ec89dd1865ff42726002600073f256cc7847e919fac9b808cc216cac87ccf2f47a6001600160a01b03166001600160a01b0316815260200190815260200160002060006101000a8154816001600160a01b0302191690836001600160a01b03160217905550730bc529c00c6401aef6d220be8c6ea1667f6ad93e60026000735165d24277cd063f5ac44efd447b27025e888f376001600160a01b03166001600160a01b0316815260200190815260200160002060006101000a8154816001600160a01b0302191690836001600160a01b0316021790555073e41d2489571d322189246dafa5ebde1f4699f4986002600073df7ff54aacacbff42dfe29dd6144a69b629f8c9e6001600160a01b03166001600160a01b0316815260200190815260200160002060006101000a8154816001600160a01b0302191690836001600160a01b0316021790555073c02aaa39b223fe8d0a0e5c4f27ead9083c756cc26003600073d06527d5e56a3495252a528c4987003b712860ee6001600160a01b03166001600160a01b0316815260200190815260200160002060006101000a8154816001600160a01b0302191690836001600160a01b0316021790555073dac17f958d2ee523a2206206994597c13d831ec76003600073797aab1ce7c01eb727ab980762ba88e7133d21576001600160a01b03166001600160a01b0316815260200190815260200160002060006101000a8154816001600160a01b0302191690836001600160a01b0316021790555073a0b86991c6218b36c1d19d4a2e9eb0ce3606eb48600360007344fbebd2f576670a6c33f6fc0b00aa8c5753b3226001600160a01b03166001600160a01b0316815260200190815260200160002060006101000a8154816001600160a01b0302191690836001600160a01b03160217905550730bc529c00c6401aef6d220be8c6ea1667f6ad93e6003600073cbae0a83f4f9926997c8339545fb8ee32edc6b766001600160a01b03166001600160a01b0316815260200190815260200160002060006101000a8154816001600160a01b0302191690836001600160a01b0316021790555073ba100000625a3754423978a60c9317c58a424e3d6003600073ce4fe9b4b8ff61949dcfeb7e03bc9faca59d2eb36001600160a01b03166001600160a01b0316815260200190815260200160002060006101000a8154816001600160a01b0302191690836001600160a01b0316021790555073c00e94cb662c3520282e6f5717214004a7f26888600360007319d1666f543d42ef17f66e376944a22aea1a8e466001600160a01b03166001600160a01b0316815260200190815260200160002060006101000a8154816001600160a01b0302191690836001600160a01b0316021790555073df5e0e81dff6faf3a7e52ba697820c5e32d806a860036000739baf8a5236d44ac410c0186fe39178d5aad0bb876001600160a01b03166001600160a01b0316815260200190815260200160002060006101000a8154816001600160a01b0302191690836001600160a01b03160217905550732ba592f78db6436527729929aaf6c908497cb2006003600073892b14321a4fcba80669ae30bd0cd99a7ecf6ac06001600160a01b03166001600160a01b0316815260200190815260200160002060006101000a8154816001600160a01b0302191690836001600160a01b0316021790555073514910771af9ca656af840dff83e8264ecf986ca6003600073697256caa3ccafd62bb6d3aa1c7c5671786a5fd96001600160a01b03166001600160a01b0316815260200190815260200160002060006101000a8154816001600160a01b0302191690836001600160a01b031602179055507380fb784b7ed66730e8b1dbd9820afd29931aab0360036000738b86e0598616a8d4f1fdae8b59e55fb5bc33d0d66001600160a01b03166001600160a01b0316815260200190815260200160002060006101000a8154816001600160a01b0302191690836001600160a01b0316021790555073d533a949740bb3306d119cc777fa900ba034cd526003600073c7fd8dcee4697ceef5a2fd4608a7bd6a94c774806001600160a01b03166001600160a01b0316815260200190815260200160002060006101000a8154816001600160a01b0302191690836001600160a01b0316021790555073eb4c2781e4eba804ce9a9803c67d0893436bb27d600360007317107f40d70f4470d20cb3f138a052cae8ebd4be6001600160a01b03166001600160a01b0316815260200190815260200160002060006101000a8154816001600160a01b0302191690836001600160a01b03160217905550734fabb145d64652a948d72533023f6e7a623c7c5360036000731ff8cdb51219a8838b52e9cac09b71e591bc998e6001600160a01b03166001600160a01b0316815260200190815260200160002060006101000a8154816001600160a01b0302191690836001600160a01b0316021790555073a3bed4e1c75d00fa6f4e5e6922db7261b5e9acd260036000733623387773010d9214b10c551d6e7fc375d31f586001600160a01b03166001600160a01b0316815260200190815260200160002060006101000a8154816001600160a01b0302191690836001600160a01b03160217905550734ee15f44c6f0d8d1136c83efd2e8e4ac768954c660036000734ee15f44c6f0d8d1136c83efd2e8e4ac768954c66001600160a01b03166001600160a01b0316815260200190815260200160002060006101000a8154816001600160a01b0302191690836001600160a01b03160217905550736b3595068778dd592e39a122f4f5a5cf09c90fe26003600073338286c0bc081891a4bda39c7667ae150bf5d2066001600160a01b03166001600160a01b0316815260200190815260200160002060006101000a8154816001600160a01b0302191690836001600160a01b031602179055507350d1c9771902476076ecfc8b2a83ad6b9355a4c9600360007310fdbd1e48ee2fd9336a482d746138ae19e649db6001600160a01b03166001600160a01b0316815260200190815260200160002060006101000a8154816001600160a01b0302191690836001600160a01b0316021790555073e1237aa7f535b0cc33fd973d66cbf830354d16c7600360007301da76dea59703578040012357b81ffe62015c2d6001600160a01b03166001600160a01b0316815260200190815260200160002060006101000a8154816001600160a01b0302191690836001600160a01b0316021790555073476c5e26a75bd202a9683ffd34359c0cc15be0ff6003600073ef58b2d5a1b8d3cde67b8ab054dc5c831e9bc0256001600160a01b03166001600160a01b0316815260200190815260200160002060006101000a8154816001600160a01b0302191690836001600160a01b03160217905550731f9840a85d5af5bf1d1762f925bdaddc4201f9846003600073e89a6d0509faf730bd707bf868d9a2a744a363c76001600160a01b03166001600160a01b0316815260200190815260200160002060006101000a8154816001600160a01b0302191690836001600160a01b03160217905550730d438f3b5175bebc262bf23753c1e53d03432bde6003600073eff039c3c1d668f408d09dd7b63008622a77532c6001600160a01b03166001600160a01b0316815260200190815260200160002060006101000a8154816001600160a01b0302191690836001600160a01b031602179055507387edffde3e14c7a66c9b9724747a1c5696b742e6600360007322b243b96495c547598d9042b6f94b01c22b2e9e6001600160a01b03166001600160a01b0316815260200190815260200160002060006101000a8154816001600160a01b0302191690836001600160a01b0316021790555073aaaebe6fe48e54f431b0c390cfaf0b017d09d42d60036000738b3ff1ed4f36c2c2be675afb13cc3aa5d73685a56001600160a01b03166001600160a01b0316815260200190815260200160002060006101000a8154816001600160a01b0302191690836001600160a01b03160217905550731494ca1f11d487c2bbe4543e90080aeba4ba3c2b60036000732a537fa9ffaea8c1a41d3c2b68a9cb791529366d6001600160a01b03166001600160a01b0316815260200190815260200160002060006101000a8154816001600160a01b0302191690836001600160a01b03160217905550739be89d2a4cd102d8fecc6bf9da793be995c2254160036000737ea9c63e216d5565c3940a2b3d150e59c2907db36001600160a01b03166001600160a01b0316815260200190815260200160002060006101000a8154816001600160a01b0302191690836001600160a01b03160217905550737fc66500c84a76ad7e9c93437bfc5ac33e2ddae960036000733225e3c669b39c7c8b3e204a8614bb218c5e31bc6001600160a01b03166001600160a01b0316815260200190815260200160002060006101000a8154816001600160a01b0302191690836001600160a01b03160217905550730391d2021f89dc339f60fff84546ea23e337750f6003600073f55bbe0255f7f4e70f63837ff72a577fbddbe9246001600160a01b03166001600160a01b0316815260200190815260200160002060006101000a8154816001600160a01b0302191690836001600160a01b03160217905550731ceb5cb57c4d4e2b2433641b95dd330a33185a446003600073903560b1cce601794c584f58898da8a8b789fc5d6001600160a01b03166001600160a01b0316815260200190815260200160002060006101000a8154816001600160a01b0302191690836001600160a01b03160217905550730316eb71485b0ab14103307bf65a021042c6d3806003600073054b7ed3f45714d3091e82aad64a1588dc4096ed6001600160a01b03166001600160a01b0316815260200190815260200160002060006101000a8154816001600160a01b0302191690836001600160a01b03160217905550739afb950948c2370975fb91a441f36fdc02737cd46003600073d5103afcd0b3fa865997ef2984c66742c51b2a8b6001600160a01b03166001600160a01b0316815260200190815260200160002060006101000a8154816001600160a01b0302191690836001600160a01b0316021790555073cbc1065255cbc3ab41a6868c22d1f1c573ab89fd6003600073fd609a03b393f1a1cfcacedabf068cad09a924e26001600160a01b03166001600160a01b0316815260200190815260200160002060006101000a8154816001600160a01b0302191690836001600160a01b0316021790555073df574c24545e5ffecb9a659c229253d4111d87e16003600073d692ac3245bb82319a31068d6b8412796ee85d2c6001600160a01b03166001600160a01b0316815260200190815260200160002060006101000a8154816001600160a01b0302191690836001600160a01b03160217905550736b175474e89094c44da98b954eedeac495271d0f600360007392b767185fb3b04f881e3ac8e5b0662a027a1d9f6001600160a01b03166001600160a01b0316815260200190815260200160002060006101000a8154816001600160a01b0302191690836001600160a01b0316021790555073584bc13c7d411c00c01a62e8019472de68768430600360007310a3da2bb0fae4d591476fd97d6636fd172923a86001600160a01b03166001600160a01b0316815260200190815260200160002060006101000a8154816001600160a01b0302191690836001600160a01b031602179055507336f3fd68e7325a35eb768f1aedaae9ea0689d72360036000733c6c553a95910f9fc81c98784736bd628636d2966001600160a01b03166001600160a01b0316815260200190815260200160002060006101000a8154816001600160a01b0302191690836001600160a01b03160217905550734688a8b1f292fdab17e9a90c8bc379dc1dbd8713600360007321011bc93d9e515b9511a817a1ed1d6d468f49fc6001600160a01b03166001600160a01b0316815260200190815260200160002060006101000a8154816001600160a01b0302191690836001600160a01b0316021790555073111111111117dc0aa78b770fa6a738034120c302600360007385759961b116f1d36fd697855c57a6ae40793d9b6001600160a01b03166001600160a01b0316815260200190815260200160002060006101000a8154816001600160a01b0302191690836001600160a01b0316021790555073d26114cd6ee289accf82350c8d8487fedb8a0c0760036000737aaa323d7e398be4128c7042d197a2545f0f1fea6001600160a01b03166001600160a01b0316815260200190815260200160002060006101000a8154816001600160a01b0302191690836001600160a01b0316021790555073bb2b8038a1640196fbe3e38816f3e67cba72d9406003600073011a014d5e8eb4771e575bb1000318d509230afa6001600160a01b03166001600160a01b0316815260200190815260200160002060006101000a8154816001600160a01b0302191690836001600160a01b03160217905550730d4a11d5eeaac28ec3f61d100daf4d40471f18526003600073e6c3120f38f56deb38b69b65cc7dcaf9163739636001600160a01b03166001600160a01b0316815260200190815260200160002060006101000a8154816001600160a01b0302191690836001600160a01b0316021790555073b4e16d0168e52d35cacd2c6185b44281ec28c9dc60036000734fe11bc316b6d7a345493127fbe298b95adaad856001600160a01b03166001600160a01b0316815260200190815260200160002060006101000a8154816001600160a01b0302191690836001600160a01b0316021790555073a478c2975ab1ea89e8196811f51a7b7ade33eb116003600073cd22c4110c12ac41acefa0091c432ef44efaafa06001600160a01b03166001600160a01b0316815260200190815260200160002060006101000a8154816001600160a01b0302191690836001600160a01b03160217905550738798249c2e607446efb7ad49ec89dd1865ff42726003600073228619cca194fbe3ebeb2f835ec1ea5080dafbb26001600160a01b03166001600160a01b0316815260200190815260200160002060006101000a8154816001600160a01b0302191690836001600160a01b0316021790555073ceff51756c56ceffca006cd410b03ffc46dd3a58600360007373f6cba38922960b7092175c0add22ab8d0e81fc6001600160a01b03166001600160a01b0316815260200190815260200160002060006101000a8154816001600160a01b0302191690836001600160a01b0316021790555073c3d03e4f041fd4cd388c549ee2a29a9e5075882f600360007338f27c03d6609a86ff7716ad03038881320be4ad6001600160a01b03166001600160a01b0316815260200190815260200160002060006101000a8154816001600160a01b0302191690836001600160a01b0316021790555073397ff1542f962076d0bfe58ea045ffa2d347aca060036000735ecad8a75216cea7dff978525b2d523a251eea926001600160a01b03166001600160a01b0316815260200190815260200160002060006101000a8154816001600160a01b0302191690836001600160a01b031602179055507306da0fd433c1a5d7a4faa01111c044910a18455360036000735c291bc83d15f71fb37805878161718ea4b6aee96001600160a01b03166001600160a01b0316815260200190815260200160002060006101000a8154816001600160a01b0302191690836001600160a01b0316021790555073795065dcc9f64b5614c407a6efdc400da6221fb060036000736ba0c66c48641e220cf78177c144323b3838d3756001600160a01b03166001600160a01b0316815260200190815260200160002060006101000a8154816001600160a01b0302191690836001600160a01b0316021790555073088ee5007c98a9677165d78dd2109ae4a3d04d0c6003600073d532944df6dfd5dd629e8772f03d4fc861873abf6001600160a01b03166001600160a01b0316815260200190815260200160002060006101000a8154816001600160a01b0302191690836001600160a01b03160217905550732260fac5e5542a773aa44fbcfedf7c193bc2c5996003600073197070723ce0d3810a0e47f06e935c30a480d4fc6001600160a01b03166001600160a01b0316815260200190815260200160002060006101000a8154816001600160a01b0302191690836001600160a01b0316021790555073c011a73ee8576fb46f5e1c5751ca3b9fe0af2a6f6003600073c25eae724f189ba9030b2556a1533e7c8a732e146001600160a01b03166001600160a01b0316815260200190815260200160002060006101000a8154816001600160a01b0302191690836001600160a01b031602179055507357ab1ec28d129707052df4df418d58a2d46d5f51600360007325555933a8246ab67cbf907ce3d1949884e82b556001600160a01b03166001600160a01b0316815260200190815260200160002060006101000a8154816001600160a01b0302191690836001600160a01b0316021790555073429881672b9ae42b8eba0e26cd9c73711b891ca56003600073c68251421edda00a10815e273fa4b1191fac651b6001600160a01b03166001600160a01b0316815260200190815260200160002060006101000a8154816001600160a01b0302191690836001600160a01b03160217905550738ab7404063ec4dbcfd4598215992dc3f8ec853d7600360007365883978ada0e707c3b2be2a6825b1c4bdf76a906001600160a01b03166001600160a01b0316815260200190815260200160002060006101000a8154816001600160a01b0302191690836001600160a01b031602179055507319d97d8fa813ee2f51ad4b4e04ea08baf4dffc2860036000738b950f43fcac4931d408f1fcda55c6cb6cbf30966001600160a01b03166001600160a01b0316815260200190815260200160002060006101000a8154816001600160a01b0302191690836001600160a01b03160217905550738207c1ffc5b6804f6024322ccf34f29c3541ae26600360007359089279987dd76fc65bf94cb40e186b96e03cb36001600160a01b03166001600160a01b0316815260200190815260200160002060006101000a8154816001600160a01b0302191690836001600160a01b0316021790555073ff20817765cb7f73d4bde2e66e067e58d11095c260036000732db6c82ce72c8d7d770ba1b5f5ed0b6e075066d66001600160a01b03166001600160a01b0316815260200190815260200160002060006101000a8154816001600160a01b0302191690836001600160a01b0316021790555073853d955acef822db058eb8505911ed77f175b99e6003600073b092b4601850e23903a42eacbc9d8a0eec26a4d56001600160a01b03166001600160a01b0316815260200190815260200160002060006101000a8154816001600160a01b0302191690836001600160a01b0316021790555073a1faa113cbe53436df28ff0aee54275c13b4097560036000731d0986fb43985c88ffa9ad959cc24e6a087c7e356001600160a01b03166001600160a01b0316815260200190815260200160002060006101000a8154816001600160a01b0302191690836001600160a01b0316021790555073a47c8bf37f92abed4a126bda807a7b7498661acd600360007351f48b638f82e8765f7a26373a2cb4ccb10c07af6001600160a01b03166001600160a01b0316815260200190815260200160002060006101000a8154816001600160a01b0302191690836001600160a01b03160217905550734e15361fd6b4bb609fa63c81a2be19d8737178706003600073c36080892c64821fa8e396bc1bd8678fa3b82b176001600160a01b03166001600160a01b0316815260200190815260200160002060006101000a8154816001600160a01b0302191690836001600160a01b03160217905550733155ba85d5f96b2d030a4966af206230e46849cb60036000738379baa817c5c5ab929b03ee8e3c48e45018ae416001600160a01b03166001600160a01b0316815260200190815260200160002060006101000a8154816001600160a01b0302191690836001600160a01b0316021790555073bc396689893d065f41bc2c6ecbee5e00852334476003600073299e254a8a165bbeb76d9d69305013329eea3a3b6001600160a01b03166001600160a01b0316815260200190815260200160002060006101000a8154816001600160a01b0302191690836001600160a01b031602179055507303ab458634910aad20ef5f1c8ee96f1d6ac549196003600073f8445c529d363ce114148662387eba5e62016e206001600160a01b03166001600160a01b0316815260200190815260200160002060006101000a8154816001600160a01b0302191690836001600160a01b0316021790555073967da4048cd07ab37855c090aaf366e4ce1b9f4860036000737c3297cfb4c4bbd5f44b450c0872e0ada52031126001600160a01b03166001600160a01b0316815260200190815260200160002060006101000a8154816001600160a01b0302191690836001600160a01b0316021790555073986b4aff588a109c09b50a03f42e4110e29d353f6003600073a87e8e61dfac8af5944d353cd26b96b20d5f4d016001600160a01b03166001600160a01b0316815260200190815260200160002060006101000a8154816001600160a01b0302191690836001600160a01b0316021790555073fca59cd816ab1ead66534d82bc21e7515ce441cf6003600073081fe64df6dc6fc70043aedf3713a3ce6f190a216001600160a01b03166001600160a01b0316815260200190815260200160002060006101000a8154816001600160a01b0302191690836001600160a01b0316021790555073b753428af26e81097e7fd17f40c88aaa3e04902c600360007328526bb33d7230e65e735db64296413731c5402e6001600160a01b03166001600160a01b0316815260200190815260200160002060006101000a8154816001600160a01b0302191690836001600160a01b031602179055507327b7b1ad7288079a66d12350c828d3c00a6f07d7600360007345406ba53bb84cd32a58e7098a2d4d1b11b107f66001600160a01b03166001600160a01b0316815260200190815260200160002060006101000a8154816001600160a01b0302191690836001600160a01b0316021790555073986b4aff588a109c09b50a03f42e4110e29d353f60036000736d1b9e01af17dd08d6dec08e210dfd5984ff1c206001600160a01b03166001600160a01b0316815260200190815260200160002060006101000a8154816001600160a01b0302191690836001600160a01b0316021790555073dcd90c7f6324cfa40d7169ef80b12031770b432560036000731f9b4756b008106c806c7e64322d7ed3b72cb2846001600160a01b03166001600160a01b0316815260200190815260200160002060006101000a8154816001600160a01b0302191690836001600160a01b03160217905550731337def16f9b486faed0293eb623dc8395dfe46a6003600073ab10586c918612ba440482db77549d26b7abf8f76001600160a01b03166001600160a01b0316815260200190815260200160002060006101000a8154816001600160a01b0302191690836001600160a01b03160217905550731337def18c680af1f9f45cbcab6309562975b1dd6003600073dfff11dfe6436e42a17b86e7f419ac82929903936001600160a01b03166001600160a01b0316815260200190815260200160002060006101000a8154816001600160a01b0302191690836001600160a01b0316021790555073ec67005c4e498ec7f55e092bd1d35cbc47c918926003600073dbb5e3081def4b6cdd8864ac2aeda4cbf778fecf6001600160a01b03166001600160a01b0316815260200190815260200160002060006101000a8154816001600160a01b0302191690836001600160a01b03160217905550731b40183efb4dd766f11bda7a7c3ad8982e998421600360007371cefcd324b732d4e058afacba040d908c4418476001600160a01b03166001600160a01b0316815260200190815260200160002060006101000a8154816001600160a01b0302191690836001600160a01b0316021790555073ba4cfe5741b357fa371b506e5db0774abfecf8fc60036000731a122348b73b58ea39f822a89e6ec67950c2bbd06001600160a01b03166001600160a01b0316815260200190815260200160002060006101000a8154816001600160a01b0302191690836001600160a01b03160217905550736810e776880c02933d47db1b9fc05908e5386b966003600073523effc8bfefc2948211a05a905f761cba5e8e9e6001600160a01b03166001600160a01b0316815260200190815260200160002060006101000a8154816001600160a01b0302191690836001600160a01b0316021790555073a9fe4601811213c340e850ea305481aff02f5b2860036000734202d97e00b9189936edf37f8d01cff88bdd81d46001600160a01b03166001600160a01b0316815260200190815260200160002060006101000a8154816001600160a01b0302191690836001600160a01b03160217905550734baa77013ccd6705ab0522853cb0e9d453579dd460036000734baa77013ccd6705ab0522853cb0e9d453579dd46001600160a01b03166001600160a01b0316815260200190815260200160002060006101000a8154816001600160a01b0302191690836001600160a01b0316021790555073cc4304a31d09258b0029ea7fe63d032f52e44efe600360007398e329eb5aae2125af273102f3440de19094b77c6001600160a01b03166001600160a01b0316815260200190815260200160002060006101000a8154816001600160a01b0302191690836001600160a01b0316021790555073956f47f50a910163d8bf957cf5846d573e7f87ca60036000738c3b7a4320ba70f8239f83770c4015b5bc4e6f916001600160a01b03166001600160a01b0316815260200190815260200160002060006101000a8154816001600160a01b0302191690836001600160a01b03160217905550734691937a7508860f876c9c0a2a617e7d9e945d4b6003600073e585c76573d7593abf21537b607091f76c996e736001600160a01b03166001600160a01b0316815260200190815260200160002060006101000a8154816001600160a01b0302191690836001600160a01b03160217905550731f573d6fb3f13d689ff844b4ce37794d79a7ff1c600360007381e346729723c4d15d0fb1c5679b9f2926ff13c66001600160a01b03166001600160a01b0316815260200190815260200160002060006101000a8154816001600160a01b0302191690836001600160a01b031602179055506001600460007357ab1ec28d129707052df4df418d58a2d46d5f516001600160a01b03166001600160a01b0316815260200190815260200160002060006101000a81548160ff02191690831515021790555060016004600073176c674ee533c6139b0dc8b458d72a93dcb3e7056001600160a01b03166001600160a01b0316815260200190815260200160002060006101000a81548160ff021916908315150217905550600160046000738a8079c7149b8a1611e5c5d978dca3be16545f836001600160a01b03166001600160a01b0316815260200190815260200160002060006101000a81548160ff02191690831515021790555060016004600073afd870f32ce54efdbf677466b612bf8ad164454b6001600160a01b03166001600160a01b0316815260200190815260200160002060006101000a81548160ff02191690831515021790555060016004600073d6014ea05bde904448b743833ddf07c3c78374816001600160a01b03166001600160a01b0316815260200190815260200160002060006101000a81548160ff02191690831515021790555060016004600073336213e1ddfc69f4701fc3f86f4ef4a160c1159d6001600160a01b03166001600160a01b0316815260200190815260200160002060006101000a81548160ff021916908315150217905550600160046000736345728b1cce16e6f8c509950b5c84fff88530d96001600160a01b03166001600160a01b0316815260200190815260200160002060006101000a81548160ff02191690831515021790555060016004600073cb98f42221b2c251a4e74a1609722ee09f0cc08e6001600160a01b03166001600160a01b0316815260200190815260200160002060006101000a81548160ff0219169083151502179055506001600460007314d10003807ac60d07bb0ba82caeac8d2087c1576001600160a01b03166001600160a01b0316815260200190815260200160002060006101000a81548160ff0219169083151502179055506001600460007346a97629c9c1f58de6ec18c7f536e7e6d6a6ecde6001600160a01b03166001600160a01b0316815260200190815260200160002060006101000a81548160ff02191690831515021790555060016004600073f4eebdd0704021ef2a6bbe993fdf93030cd784b46001600160a01b03166001600160a01b0316815260200190815260200160002060006101000a81548160ff02191690831515021790555060016004600073d50c1746d835d2770dda3703b69187bffeb141266001600160a01b03166001600160a01b0316815260200190815260200160002060006101000a81548160ff02191690831515021790555060016004600073a9859874e1743a32409f75bb11549892138bba1e6001600160a01b03166001600160a01b0316815260200190815260200160002060006101000a81548160ff021916908315150217905550600160046000732d7ac061fc3db53c39fe1607fb8cec1b2c162b016001600160a01b03166001600160a01b0316815260200190815260200160002060006101000a81548160ff0219169083151502179055506001600460007379da1431150c9b82d2e5dfc1c68b33216846851e6001600160a01b03166001600160a01b0316815260200190815260200160002060006101000a81548160ff02191690831515021790555060016004600073a5a5df41883cdc00c4ccc6e8097130535399d9a36001600160a01b03166001600160a01b0316815260200190815260200160002060006101000a81548160ff021916908315150217905550600160046000730fed38108bdb8e62ef7b5680e8e0726e2f29e0de6001600160a01b03166001600160a01b0316815260200190815260200160002060006101000a81548160ff02191690831515021790555060016004600073c5807183a9661a533cb08cbc297594a0b864dc126001600160a01b03166001600160a01b0316815260200190815260200160002060006101000a81548160ff0219169083151502179055506001600460007336a00ff9072570ef4b9292117850b8fe08d96cce6001600160a01b03166001600160a01b0316815260200190815260200160002060006101000a81548160ff021916908315150217905550600160046000734adf728e2df4945082cdd6053869f51278fae1966001600160a01b03166001600160a01b0316815260200190815260200160002060006101000a81548160ff0219169083151502179055506001600460007327269b3e45a4d3e79a3d6bfee0c8fb13d0d711a66001600160a01b03166001600160a01b0316815260200190815260200160002060006101000a81548160ff021916908315150217905550600160046000738deef89058090ac5655a99eeb451a4f9183d16786001600160a01b03166001600160a01b0316815260200190815260200160002060006101000a81548160ff02191690831515021790555060016004600073592244301cea952d6dab2fdc1fe6bd9e539173066001600160a01b03166001600160a01b0316815260200190815260200160002060006101000a81548160ff02191690831515021790555060016004600073cd39b5434a0a92cf47d1f567a7df84be356814f06001600160a01b03166001600160a01b0316815260200190815260200160002060006101000a81548160ff021916908315150217905550600160046000737537aae01f3b218dae75e10d952473823f961b876001600160a01b03166001600160a01b0316815260200190815260200160002060006101000a81548160ff02191690831515021790555060016004600073d2df355c19471c8bd7d8a3aa27ff4e26a21b40766001600160a01b03166001600160a01b0316815260200190815260200160002060006101000a81548160ff02191690831515021790555060016004600073e36e2d3c7c34281fa3bc737950a68571736880a16001600160a01b03166001600160a01b0316815260200190815260200160002060006101000a81548160ff021916908315150217905550600160046000739cf7e61853ea30a41b02169391b393b901eac4576001600160a01b03166001600160a01b0316815260200190815260200160002060006101000a81548160ff02191690831515021790555060016004600073f48e200eaf9906362bb1442fca31e0835773b8b46001600160a01b03166001600160a01b0316815260200190815260200160002060006101000a81548160ff02191690831515021790555060016004600073617aecb6137b5108d1e7d4918e3725c8cebdb8486001600160a01b03166001600160a01b0316815260200190815260200160002060006101000a81548160ff02191690831515021790555060016004600073fe18be6b3bd88a2d2a7f928d00292e7a9963cfc66001600160a01b03166001600160a01b0316815260200190815260200160002060006101000a81548160ff02191690831515021790555060016004600073eabacd844a196d7faf3ce596edebf9900341b4206001600160a01b03166001600160a01b0316815260200190815260200160002060006101000a81548160ff021916908315150217905550600160046000730f83287ff768d1c1e17a42f44d644d7f22e8ee1d6001600160a01b03166001600160a01b0316815260200190815260200160002060006101000a81548160ff021916908315150217905550600160046000739eef4ca7ab9fa8bc0650127341c2d3f707a40f8a6001600160a01b03166001600160a01b0316815260200190815260200160002060006101000a81548160ff02191690831515021790555060016004600073eb029507d3e043dd6c87f2917c4e82b902c356186001600160a01b03166001600160a01b0316815260200190815260200160002060006101000a81548160ff02191690831515021790555060016004600073d38aeb759891882e78e957c80656572503d8c1b16001600160a01b03166001600160a01b0316815260200190815260200160002060006101000a81548160ff02191690831515021790555060016004600073fe33ae95a9f0da8a845af33516edc240dcd711d66001600160a01b03166001600160a01b0316815260200190815260200160002060006101000a81548160ff021916908315150217905550600160046000731715ac0743102bf5cd58efbb6cf2dc2685d967b66001600160a01b03166001600160a01b0316815260200190815260200160002060006101000a81548160ff0219169083151502179055506001600460007388c8cf3a212c0369698d13fe98fcb766203898416001600160a01b03166001600160a01b0316815260200190815260200160002060006101000a81548160ff0219169083151502179055506001600460007322602469d704bffb0936c7a7cfcd18f7aa2693756001600160a01b03166001600160a01b0316815260200190815260200160002060006101000a81548160ff021916908315150217905550600160046000735e74c9036fb86bd7ecdcb084a0673efc32ea31cb6001600160a01b03166001600160a01b0316815260200190815260200160002060006101000a81548160ff02191690831515021790555060016004600073d71ecff9342a5ced620049e616c5035f1db986206001600160a01b03166001600160a01b0316815260200190815260200160002060006101000a81548160ff02191690831515021790555060016004600073f50b5e535f62a56a9bd2d8e2434204e726c027fa6001600160a01b03166001600160a01b0316815260200190815260200160002060006101000a81548160ff0219169083151502179055506001600460007323348160d7f5aca21195df2b70f28fce2b0be9fc6001600160a01b03166001600160a01b0316815260200190815260200160002060006101000a81548160ff0219169083151502179055506001600460007397fe22e7341a0cd8db6f6c021a24dc8f4dad855f6001600160a01b03166001600160a01b0316815260200190815260200160002060006101000a81548160ff02191690831515021790555060016004600073c63b8ecce56ab9c46184ec6ab85e4771fea4c8ad6001600160a01b03166001600160a01b0316815260200190815260200160002060006101000a81548160ff02191690831515021790555060016004600073f6b1c627e95bfc3c1b4c9b825a032ff0fbf3e07d6001600160a01b03166001600160a01b0316815260200190815260200160002060006101000a81548160ff02191690831515021790555060016004600073269895a3df4d73b077fc823dd6da1b95f72aaf9b6001600160a01b03166001600160a01b0316815260200190815260200160002060006101000a81548160ff02191690831515021790555060016004600073bbc455cb4f1b9e4bfc4b73970d360c8f032efee66001600160a01b03166001600160a01b0316815260200190815260200160002060006101000a81548160ff02191690831515021790555060016004600073c14103c2141e842e228fbac594579e798616ce7a6001600160a01b03166001600160a01b0316815260200190815260200160002060006101000a81548160ff02191690831515021790555060016004600073745a824d6abbd236aa794b5530062778a6ad75236001600160a01b03166001600160a01b0316815260200190815260200160002060006101000a81548160ff021916908315150217905550600160046000735a7e3c07604eb515c16b36cd51906a65f021f6096001600160a01b03166001600160a01b0316815260200190815260200160002060006101000a81548160ff02191690831515021790555060016004600073757de3ac6b830a931ef178c6634c5c551773155c6001600160a01b03166001600160a01b0316815260200190815260200160002060006101000a81548160ff021916908315150217905550600160046000736d16cf3ec5f763d4d99cb0b0b110eefd93b11b566001600160a01b03166001600160a01b0316815260200190815260200160002060006101000a81548160ff02191690831515021790555060016004600073d31533e8d0f3df62060e94b3f1318137bb6e35256001600160a01b03166001600160a01b0316815260200190815260200160002060006101000a81548160ff021916908315150217905550600160046000730352557b007a4aae1511c114409b932f06f9e2f46001600160a01b03166001600160a01b0316815260200190815260200160002060006101000a81548160ff02191690831515021790555060016004600073f2e08356588ec5cd9e437552da87c0076b4970b06001600160a01b03166001600160a01b0316815260200190815260200160002060006101000a81548160ff02191690831515021790555060016004600073918da91ccbc32b7a6a0cc4ecd5987bbab6e31e6d6001600160a01b03166001600160a01b0316815260200190815260200160002060006101000a81548160ff0219169083151502179055506001600460007330635297e450b930f8693297eba160d9e6c8ebcf6001600160a01b03166001600160a01b0316815260200190815260200160002060006101000a81548160ff021916908315150217905550600160046000736a22e5e94388464181578aa7a6b869e00fe278466001600160a01b03166001600160a01b0316815260200190815260200160002060006101000a81548160ff02191690831515021790555060016004600073261efcdd24cea98652b9700800a13dfbca4103ff6001600160a01b03166001600160a01b0316815260200190815260200160002060006101000a81548160ff021916908315150217905550600160046000735299d6f7472dcc137d7f3c4bcfbbb514babf341a6001600160a01b03166001600160a01b0316815260200190815260200160002060006101000a81548160ff02191690831515021790555060016004600073a2b0fde6d710e201d0d608e924a484d1a5fed57c6001600160a01b03166001600160a01b0316815260200190815260200160002060006101000a81548160ff021916908315150217905550600160046000732e59005c5c0f0a4d77cca82653d48b46322ee5cd6001600160a01b03166001600160a01b0316815260200190815260200160002060006101000a81548160ff02191690831515021790555060016004600073992058b7db08f9734d84485bfbc243c4ee6954a76001600160a01b03166001600160a01b0316815260200190815260200160002060006101000a81548160ff02191690831515021790555060016005600073c4daf3b5e2a9e93861c3fbdd25f1e943b8d874176001600160a01b03166001600160a01b0316815260200190815260200160002060006101000a81548160ff0219169083151502179055506001600560007349b3e44e54b6220af892dba48ae45f1ea6bc4ae96001600160a01b03166001600160a01b0316815260200190815260200160002060006101000a81548160ff0219169083151502179055506001600560007325212df29073fffa7a67399acefc2dd75a831a1a6001600160a01b03166001600160a01b0316815260200190815260200160002060006101000a81548160ff02191690831515021790555060016005600073ddb166c6cb38cede52d12c405b6e906c1fb6f9d76001600160a01b03166001600160a01b0316815260200190815260200160002060006101000a81548160ff0219169083151502179055506001600560007332651dd149a6ec22734882f790cbeb21402663f96001600160a01b03166001600160a01b0316815260200190815260200160002060006101000a81548160ff021916908315150217905550600160056000731f6bdffbadd98e410f83c66d1278241375f5199f6001600160a01b03166001600160a01b0316815260200190815260200160002060006101000a81548160ff021916908315150217905550600160056000735f18c75abdae578b483e5f43f12a39cf75b973a96001600160a01b03166001600160a01b0316815260200190815260200160002060006101000a81548160ff02191690831515021790555060016005600073a696a63cc78dffa1a63e9e50587c197387ff6c7e6001600160a01b03166001600160a01b0316815260200190815260200160002060006101000a81548160ff02191690831515021790555060016005600073e537b5cc158eb71037d4125bdd7538421981e6aa6001600160a01b03166001600160a01b0316815260200190815260200160002060006101000a81548160ff02191690831515021790555060016005600073a5ca62d95d24a4a350983d5b8ac4eb86388873966001600160a01b03166001600160a01b0316815260200190815260200160002060006101000a81548160ff021916908315150217905550600160056000734a3fe75762017db0ed73a71c9a06db7768db5e666001600160a01b03166001600160a01b0316815260200190815260200160002060006101000a81548160ff021916908315150217905550600160056000730fcdaedfb8a7dfda2e9838564c5a1665d856afdf6001600160a01b03166001600160a01b0316815260200190815260200160002060006101000a81548160ff02191690831515021790555060016005600073d9788f3931ede4d5018184e198699dc6d66c19156001600160a01b03166001600160a01b0316815260200190815260200160002060006101000a81548160ff02191690831515021790555060016005600073722f76f34cb5c3b008a50e0664e55a53f4f461ab6001600160a01b03166001600160a01b0316815260200190815260200160002060006101000a81548160ff0219169083151502179055506001600560007327b7b1ad7288079a66d12350c828d3c00a6f07d76001600160a01b03166001600160a01b0316815260200190815260200160002060006101000a81548160ff021916908315150217905550600160056000738ee57c05741aa9db947a744e713c15d4d19d88226001600160a01b03166001600160a01b0316815260200190815260200160002060006101000a81548160ff0219169083151502179055506001600560007332413274504908460f0c373c7f20f429fb80ed3a6001600160a01b03166001600160a01b0316815260200190815260200160002060006101000a81548160ff021916908315150217905550600160056000738b58aa42a4aa222b684078459ce03dd0a43342b16001600160a01b03166001600160a01b0316815260200190815260200160002060006101000a81548160ff021916908315150217905550600160056000735737022626c282a89d105fd2e89ed6928ebdae936001600160a01b03166001600160a01b0316815260200190815260200160002060006101000a81548160ff021916908315150217905550600160056000735dbcf33d8c2e976c6b560249878e6f1491bca25c6001600160a01b03166001600160a01b0316815260200190815260200160002060006101000a81548160ff021916908315150217905550600160056000733149950258fbbce1638d6c23ac93a692604ef8646001600160a01b03166001600160a01b0316815260200190815260200160002060006101000a81548160ff021916908315150217905550600160056000738cc94ccd0f3841a468184aca3cc478d2148e17576001600160a01b03166001600160a01b0316815260200190815260200160002060006101000a81548160ff021916908315150217905550600160056000733c90033684f2504d55eeb652720785f70fa692d46001600160a01b03166001600160a01b0316815260200190815260200160002060006101000a81548160ff021916908315150217905550600160056000730f6121fb28c7c42916d663171063c62684598f9f6001600160a01b03166001600160a01b0316815260200190815260200160002060006101000a81548160ff0219169083151502179055506001600560007323d3d0f1c697247d5e0a9efb37d8b0ed0c464f7f6001600160a01b03166001600160a01b0316815260200190815260200160002060006101000a81548160ff02191690831515021790555060016005600073cc7e70a958917cce67b4b87a8c30e6297451ae986001600160a01b03166001600160a01b0316815260200190815260200160002060006101000a81548160ff021916908315150217905550600160056000738fa3a9ecd9efb07a8ce90a6eb014cf3c0e3b32ef6001600160a01b03166001600160a01b0316815260200190815260200160002060006101000a81548160ff02191690831515021790555060016005600073da816459f1ab5631232fe5e97a05bbbb94970c956001600160a01b03166001600160a01b0316815260200190815260200160002060006101000a81548160ff021916908315150217905550600160056000736d2f347dcfc55c6ac80e515a58344acd7fef0b846001600160a01b03166001600160a01b0316815260200190815260200160002060006101000a81548160ff021916908315150217905550600160056000730e880118c29f095143dda28e64d95333a9e75a476001600160a01b03166001600160a01b0316815260200190815260200160002060006101000a81548160ff0219169083151502179055506001600560007380bbee2fa460da291e796b9045e93d19ef948c6a6001600160a01b03166001600160a01b0316815260200190815260200160002060006101000a81548160ff0219169083151502179055506001600560007303403154afc09ce8e44c3b185c82c6ad5f86b9ab6001600160a01b03166001600160a01b0316815260200190815260200160002060006101000a81548160ff02191690831515021790555060016005600073fe8a3837cff919c800bdc5d1ac6136f84497d6796001600160a01b03166001600160a01b0316815260200190815260200160002060006101000a81548160ff021916908315150217905550600160056000730ff3773a6984ad900f7fb23a9acbf07ac3adfb066001600160a01b03166001600160a01b0316815260200190815260200160002060006101000a81548160ff02191690831515021790555060016005600073d6ea40597be05c201845c0bfd2e96a60bacde2676001600160a01b03166001600160a01b0316815260200190815260200160002060006101000a81548160ff02191690831515021790555060016005600073597ad1e0c13bfe8025993d9e79c69e1c0233522e6001600160a01b03166001600160a01b0316815260200190815260200160002060006101000a81548160ff02191690831515021790555060016005600073bacb69571323575c6a5a3b4f9eede1dc7d31fbc16001600160a01b03166001600160a01b0316815260200190815260200160002060006101000a81548160ff02191690831515021790555060016005600073ac333895ce1a73875cf7b4ecdc5a743c12f3d82b6001600160a01b03166001600160a01b0316815260200190815260200160002060006101000a81548160ff021916908315150217905550600160056000734962b6c40b5e9433e029c5c423f6b1ce7ff28b0f6001600160a01b03166001600160a01b0316815260200190815260200160002060006101000a81548160ff021916908315150217905550600160056000737158c1bee7a0fa5bd6affc77b2309991d7adcdd46001600160a01b03166001600160a01b0316815260200190815260200160002060006101000a81548160ff02191690831515021790555060016005600073ac1c90b9c76d56ba2e24f3995f7671c745f8f3086001600160a01b03166001600160a01b0316815260200190815260200160002060006101000a81548160ff021916908315150217905550600160056000738e6741b456a074f0bc45b8b82a755d4af7e965df6001600160a01b03166001600160a01b0316815260200190815260200160002060006101000a81548160ff021916908315150217905550600160056000733d980e50508cfd41a13837a60149927a11c037316001600160a01b03166001600160a01b0316815260200190815260200160002060006101000a81548160ff02191690831515021790555060016005600073e1237aa7f535b0cc33fd973d66cbf830354d16c76001600160a01b03166001600160a01b0316815260200190815260200160002060006101000a81548160ff02191690831515021790555060016005600073fbeb78a723b8087fd2ea7ef1afec93d35e8bed426001600160a01b03166001600160a01b0316815260200190815260200160002060006101000a81548160ff02191690831515021790555060016005600073db25ca703181e7484a155dd612b06f57e12be5f06001600160a01b03166001600160a01b0316815260200190815260200160002060006101000a81548160ff02191690831515021790555060016005600073fe39ce91437c76178665d64d7a2694b0f6f17fe36001600160a01b03166001600160a01b0316815260200190815260200160002060006101000a81548160ff02191690831515021790555060016005600073e11ba472f74869176652c35d30db89854b5ae84d6001600160a01b03166001600160a01b0316815260200190815260200160002060006101000a81548160ff02191690831515021790555060016005600073b4ada607b9d6b2c9ee07a275e9616b84ac5601396001600160a01b03166001600160a01b0316815260200190815260200160002060006101000a81548160ff02191690831515021790555060016005600073a2619fdfb99abeb533a1147461f3f1109c5ade756001600160a01b03166001600160a01b0316815260200190815260200160002060006101000a81548160ff02191690831515021790555060016005600073629c759d1e83efbf63d84eb3868b564d9521c1296001600160a01b03166001600160a01b0316815260200190815260200160002060006101000a81548160ff021916908315150217905550600160056000731133b2e2f51beccf25b2f8d0ca48c1d93dd5ab126001600160a01b03166001600160a01b0316815260200190815260200160002060006101000a81548160ff021916908315150217905550600160056000731ae8ccd120a05080d9a01c3b4f627f865685d0916001600160a01b03166001600160a01b0316815260200190815260200160002060006101000a81548160ff021916908315150217905550600160056000737356f09c294cb9c6428ac7327b24b0f29419c1816001600160a01b03166001600160a01b0316815260200190815260200160002060006101000a81548160ff02191690831515021790555060016005600073873fb544277fd7b977b196a826459a69e27ea4ea6001600160a01b03166001600160a01b0316815260200190815260200160002060006101000a81548160ff021916908315150217905550600160056000732147935d9739da4e691b8ae2e1437492a394ebf56001600160a01b03166001600160a01b0316815260200190815260200160002060006101000a81548160ff021916908315150217905550600160056000733d27705c64213a5dcd9d26880c1bcfa72d5b6b0e6001600160a01b03166001600160a01b0316815260200190815260200160002060006101000a81548160ff021916908315150217905550600160056000734c4a6a22bce915c724a66b82128577f1b24831ed6001600160a01b03166001600160a01b0316815260200190815260200160002060006101000a81548160ff02191690831515021790555060016005600073b98df7163e61bf053564bde010985f67279bbcec6001600160a01b03166001600160a01b0316815260200190815260200160002060006101000a81548160ff021916908315150217905550600160056000735fa5b62c8af877cb37031e0a3b2f34a78e3c56a66001600160a01b03166001600160a01b0316815260200190815260200160002060006101000a81548160ff02191690831515021790555060016005600073625b7df2fa8abe21b0a976736cda4775523aed1e6001600160a01b03166001600160a01b0316815260200190815260200160002060006101000a81548160ff021916908315150217905550600160056000735120feabd5c21883a4696dbcc5d123d6270637e96001600160a01b03166001600160a01b0316815260200190815260200160002060006101000a81548160ff0219169083151502179055506001600560007330fcf7c6cdfc46ec237783d94fc78553e79d4e9c6001600160a01b03166001600160a01b0316815260200190815260200160002060006101000a81548160ff02191690831515021790555060016005600073f8768814b88281de4f532a3beefa5b85b69b93246001600160a01b03166001600160a01b0316815260200190815260200160002060006101000a81548160ff02191690831515021790555060016005600073f6c9e9af314982a4b38366f4abfaa00595c5a6fc6001600160a01b03166001600160a01b0316815260200190815260200160002060006101000a81548160ff02191690831515021790555060016005600073ce0f1ef5aaab82547acc699d3ab93c069bb6e5476001600160a01b03166001600160a01b0316815260200190815260200160002060006101000a81548160ff0219169083151502179055506001600560007396ea6af74af09522fcb4c28c269c26f59a31ced66001600160a01b03166001600160a01b0316815260200190815260200160002060006101000a81548160ff02191690831515021790555060016005600073aaaee277f21bb7d2bf49e6b36d0d94dc229b0b256001600160a01b03166001600160a01b0316815260200190815260200160002060006101000a81548160ff021916908315150217905550600160056000730d4ea8536f9a13e4fba16042a46c30f092b06aa56001600160a01b03166001600160a01b0316815260200190815260200160002060006101000a81548160ff0219169083151502179055506001600560007339caf13a104ff567f71fd2a4c68c026fdb6e740b6001600160a01b03166001600160a01b0316815260200190815260200160002060006101000a81548160ff02191690831515021790555060016005600073671a912c10bba0cfa74cfc2d6fba9ba1ed9530b26001600160a01b03166001600160a01b0316815260200190815260200160002060006101000a81548160ff02191690831515021790555060016005600073e9dc63083c464d6edccff23444ff3cfc6886f6fb6001600160a01b03166001600160a01b0316815260200190815260200160002060006101000a81548160ff021916908315150217905550600160056000737047f90229a057c13bf847c0744d646cfb6c9e1a6001600160a01b03166001600160a01b0316815260200190815260200160002060006101000a81548160ff02191690831515021790555060016005600073b4d1be44bff40ad6e506edf43156577a3f8672ec6001600160a01b03166001600160a01b0316815260200190815260200160002060006101000a81548160ff021916908315150217905550600160056000735b707472eef1553646740a7e5becfd41b9b4ef4c6001600160a01b03166001600160a01b0316815260200190815260200160002060006101000a81548160ff021916908315150217905550600160056000739d409a0a012cfba9b15f6d4b36ac57a46966ab9a6001600160a01b03166001600160a01b0316815260200190815260200160002060006101000a81548160ff02191690831515021790555060016005600073a442beb83babc33d93c8bec471070ce59b88fb7d6001600160a01b03166001600160a01b0316815260200190815260200160002060006101000a81548160ff021916908315150217905550600160056000739ca85572e6a3ebf24dedd195623f188735a5179f6001600160a01b03166001600160a01b0316815260200190815260200160002060006101000a81548160ff021916908315150217905550600160056000737da96a3891add058ada2e826306d812c638d87a76001600160a01b03166001600160a01b0316815260200190815260200160002060006101000a81548160ff02191690831515021790555060016005600073477faf103dadc5fe5baa40951cf7512dcbc181266001600160a01b03166001600160a01b0316815260200190815260200160002060006101000a81548160ff02191690831515021790555060016005600073054af22e1519b020516d72d749221c24756385c96001600160a01b03166001600160a01b0316815260200190815260200160002060006101000a81548160ff02191690831515021790555060016005600073bf7aa989192b020a8d3e1c65a558e123834325ca6001600160a01b03166001600160a01b0316815260200190815260200160002060006101000a81548160ff0219169083151502179055506001600560007319d3364a399d251e894ac732651be8b0e4e850016001600160a01b03166001600160a01b0316815260200190815260200160002060006101000a81548160ff021916908315150217905550600160056000733466c90017f82dda939b01e8dbd9b0f97aef8dfc6001600160a01b03166001600160a01b0316815260200190815260200160002060006101000a81548160ff02191690831515021790555060016005600073b8c3b7a2a618c552c23b1e4701109a9e756bab676001600160a01b03166001600160a01b0316815260200190815260200160002060006101000a81548160ff021916908315150217905550600160056000737f83935ecfe4729c4ea592ab2bc1a325884097976001600160a01b03166001600160a01b0316815260200190815260200160002060006101000a81548160ff021916908315150217905550600160056000733408324dbb537886cadc180f6ffcf674ee215f676001600160a01b03166001600160a01b0316815260200190815260200160002060006101000a81548160ff021916908315150217905550600160056000733c5df3077bcf800640b5dae8c91106575a4826e66001600160a01b03166001600160a01b0316815260200190815260200160002060006101000a81548160ff021916908315150217905550600160056000730e8a7717a4fd7694682e7005957dd5d7598bf14a6001600160a01b03166001600160a01b0316815260200190815260200160002060006101000a81548160ff02191690831515021790555060016005600073d2c65e20c3fde3f18097e7414e65596e0c83b1a96001600160a01b03166001600160a01b0316815260200190815260200160002060006101000a81548160ff021916908315150217905550600160056000737ff566e1d69deff32a7b244ae7276b9f90e9d0f66001600160a01b03166001600160a01b0316815260200190815260200160002060006101000a81548160ff021916908315150217905550600160056000734856a7efbbfcae92ab13c5e2e322fc77647bb8566001600160a01b03166001600160a01b0316815260200190815260200160002060006101000a81548160ff021916908315150217905550600160056000735533ed0a3b83f70c3c4a1f69ef5546d3d4713e446001600160a01b03166001600160a01b0316815260200190815260200160002060006101000a81548160ff02191690831515021790555060016005600073bd65955f752b2ef093b34b05e5ffb439ae8e50496001600160a01b03166001600160a01b0316815260200190815260200160002060006101000a81548160ff02191690831515021790555060016005600073a9fe4601811213c340e850ea305481aff02f5b286001600160a01b03166001600160a01b0316815260200190815260200160002060006101000a81548160ff0219169083151502179055506001600560007371955515adf20cbdc699b8bc556fc7fd726b31b06001600160a01b03166001600160a01b0316815260200190815260200160002060006101000a81548160ff021916908315150217905550600160056000736d765cbe5bc922694afe112c140b8878b9fb03906001600160a01b03166001600160a01b0316815260200190815260200160002060006101000a81548160ff02191690831515021790555060016005600073497590d2d57f05cf8b42a36062fa53ebae2834986001600160a01b03166001600160a01b0316815260200190815260200160002060006101000a81548160ff021916908315150217905550600160056000732dfb14e32e2f8156ec15a2c21c3a6c053af52be86001600160a01b03166001600160a01b0316815260200190815260200160002060006101000a81548160ff02191690831515021790555060016005600073ed0244b688cf059f32f45e38a6ac6e479d6755f66001600160a01b03166001600160a01b0316815260200190815260200160002060006101000a81548160ff021916908315150217905550600160056000734b5bfd52124784745c1071dcb244c6688d2533d36001600160a01b03166001600160a01b0316815260200190815260200160002060006101000a81548160ff021916908315150217905550600160056000732f08119c6f07c006695e079aafc638b8789faf186001600160a01b03166001600160a01b0316815260200190815260200160002060006101000a81548160ff0219169083151502179055506001600560007346afc2dfbd1ea0c0760cad8262a5838e803a37e56001600160a01b03166001600160a01b0316815260200190815260200160002060006101000a81548160ff02191690831515021790555060016005600073123964ebe096a920dae00fb795ffbfa0c9ff46756001600160a01b03166001600160a01b0316815260200190815260200160002060006101000a81548160ff0219169083151502179055506001600560007303c31f3444357087d5f568d24ae17f9177c8aa846001600160a01b03166001600160a01b0316815260200190815260200160002060006101000a81548160ff02191690831515021790555060016005600073c116df49c02c5fd147de25baa105322ebf26bd976001600160a01b03166001600160a01b0316815260200190815260200160002060006101000a81548160ff021916908315150217905550600160056000732f194da57aa855caa02ea3ab991fa5d38178b9e66001600160a01b03166001600160a01b0316815260200190815260200160002060006101000a81548160ff0219169083151502179055506001600560007398b058b2cbacf5e99bc7012df757ea7cfebd35bc6001600160a01b03166001600160a01b0316815260200190815260200160002060006101000a81548160ff0219169083151502179055506001600560007307fb4756f67bd46b748b16119e802f1f880fb2cc6001600160a01b03166001600160a01b0316815260200190815260200160002060006101000a81548160ff021916908315150217905550600160056000733b96d491f067912d18563d56858ba7d6ec67a6fa6001600160a01b03166001600160a01b0316815260200190815260200160002060006101000a81548160ff0219169083151502179055506001600560007339546945695dcb1c037c836925b355262f551f556001600160a01b03166001600160a01b0316815260200190815260200160002060006101000a81548160ff02191690831515021790555060016005600073bfedbcbe27171c418cdabc2477042554b19048576001600160a01b03166001600160a01b0316815260200190815260200160002060006101000a81548160ff0219169083151502179055506001600560007337d19d1c4e1fa9dc47bd1ea12f742a0887eda74a6001600160a01b03166001600160a01b0316815260200190815260200160002060006101000a81548160ff021916908315150217905550600160056000738472e9914c0813c4b465927f82e213ea348391736001600160a01b03166001600160a01b0316815260200190815260200160002060006101000a81548160ff02191690831515021790555060016005600073fd0877d9095789caf24c98f7cce092fa8e1207756001600160a01b03166001600160a01b0316815260200190815260200160002060006101000a81548160ff02191690831515021790555060016005600073f11b141be4d1985e41c3aea99417e27603f67c4c6001600160a01b03166001600160a01b0316815260200190815260200160002060006101000a81548160ff02191690831515021790555060016005600073a8b1cb4ed612ee179bdea16cca6ba596321ae52d6001600160a01b03166001600160a01b0316815260200190815260200160002060006101000a81548160ff02191690831515021790555060016005600073cb550a6d4c8e3517a939bc79d0c7093eb7cf56b56001600160a01b03166001600160a01b0316815260200190815260200160002060006101000a81548160ff021916908315150217905550600160056000736ede7f19df5df6ef23bd5b9cedb651580bdf56ca6001600160a01b03166001600160a01b0316815260200190815260200160002060006101000a81548160ff02191690831515021790555060016005600073881b06da56bb5675c54e4ed311c21e54c50252986001600160a01b03166001600160a01b0316815260200190815260200160002060006101000a81548160ff0219169083151502179055506001600560007379ff6c5a23b492619661f7c5b73a961114a4c9406001600160a01b03166001600160a01b0316815260200190815260200160002060006101000a81548160ff02191690831515021790555060016005600073986b4aff588a109c09b50a03f42e4110e29d353f6001600160a01b03166001600160a01b0316815260200190815260200160002060006101000a81548160ff02191690831515021790555060016005600073f4fdbc7c66dc9832d672ffe6242b6a386cead5de6001600160a01b03166001600160a01b0316815260200190815260200160002060006101000a81548160ff02191690831515021790555060016005600073dcd90c7f6324cfa40d7169ef80b12031770b43256001600160a01b03166001600160a01b0316815260200190815260200160002060006101000a81548160ff02191690831515021790555060016005600073132d8d2c76db3812403431facb00f3453fc421256001600160a01b03166001600160a01b0316815260200190815260200160002060006101000a81548160ff02191690831515021790555060016005600073f962b098ecc4352aa2ad1d4164bd2b8367fd94c36001600160a01b03166001600160a01b0316815260200190815260200160002060006101000a81548160ff02191690831515021790555060016005600073bda3a6cb2aaef41805f6317841d7b8654ec8b1246001600160a01b03166001600160a01b0316815260200190815260200160002060006101000a81548160ff02191690831515021790555060016005600073acd43e627e64355f1861cec6d3a6688b31a6f9526001600160a01b03166001600160a01b0316815260200190815260200160002060006101000a81548160ff0219169083151502179055506001600560007375a3f32ba5e60a094729257ee44841f9552bafb96001600160a01b03166001600160a01b0316815260200190815260200160002060006101000a81548160ff0219169083151502179055506001600560007384e13785b5a27879921d6f685f041421c7f482da6001600160a01b03166001600160a01b0316815260200190815260200160002060006101000a81548160ff02191690831515021790555060016005600073f2db9a7c0acd427a680d640f02d90f6186e717256001600160a01b03166001600160a01b0316815260200190815260200160002060006101000a81548160ff0219169083151502179055506001600560007319b8bc5ccf9700e16f2780bea152f01c449f45d06001600160a01b03166001600160a01b0316815260200190815260200160002060006101000a81548160ff02191690831515021790555060016005600073f29ae508698bdef169b89834f76704c3b205aedf6001600160a01b03166001600160a01b0316815260200190815260200160002060006101000a81548160ff0219169083151502179055506001600560007363859212aa05d60295a2f18a9e0c707040605bad6001600160a01b03166001600160a01b0316815260200190815260200160002060006101000a81548160ff021916908315150217905550600160056000731b5eb1173d2bf770e50f10410c9a96f7a8eb6e756001600160a01b03166001600160a01b0316815260200190815260200160002060006101000a81548160ff021916908315150217905550600160056000732994529c0652d127b7842094103715ec5299bbed6001600160a01b03166001600160a01b0316815260200190815260200160002060006101000a81548160ff02191690831515021790555060016005600073df5110ef6bc751cbaf76d35b8a3f312b581b51736001600160a01b03166001600160a01b0316815260200190815260200160002060006101000a81548160ff021916908315150217905550600160056000731c6a9783f812b3af3abbf7de64c3cd7cc7d1af446001600160a01b03166001600160a01b0316815260200190815260200160002060006101000a81548160ff0219169083151502179055506001600560007356a5fd5104a4956898753dfb060ff32882ae0eb46001600160a01b03166001600160a01b0316815260200190815260200160002060006101000a81548160ff021916908315150217905550600160056000735a770dbd3ee6baf2802d29a901ef11501c44797a6001600160a01b03166001600160a01b0316815260200190815260200160002060006101000a81548160ff02191690831515021790555060016005600073b32747b4045479b77a8b8eb44029ba12580214f86001600160a01b03166001600160a01b0316815260200190815260200160002060006101000a81548160ff02191690831515021790555060016005600073e14d13d8b3b85af791b2aadd661cdbd5e6097db16001600160a01b03166001600160a01b0316815260200190815260200160002060006101000a81548160ff02191690831515021790555060016005600073e625f5923303f1ce7a43acfefd11fd12f30dbca46001600160a01b03166001600160a01b0316815260200190815260200160002060006101000a81548160ff0219169083151502179055506001600560007329e240cfd7946ba20895a7a02edb25c210f9f3246001600160a01b03166001600160a01b0316815260200190815260200160002060006101000a81548160ff021916908315150217905550600160056000732a38b9b0201ca39b17b460ed2f11e4929559071e6001600160a01b03166001600160a01b0316815260200190815260200160002060006101000a81548160ff0219169083151502179055506001600560007328a5b95c101df3ded0c0d9074db80c438774b6a96001600160a01b03166001600160a01b0316815260200190815260200160002060006101000a81548160ff021916908315150217905550600160056000738414db07a7f743debafb402070ab01a4e0d2e45e6001600160a01b03166001600160a01b0316815260200190815260200160002060006101000a81548160ff02191690831515021790555060016005600073af322a2edf31490250fdeb0d712621484b09abb66001600160a01b03166001600160a01b0316815260200190815260200160002060006101000a81548160ff02191690831515021790555060016005600073ba2e7fed597fd0e3e70f5130bcdbbfe06bb94fe16001600160a01b03166001600160a01b0316815260200190815260200160002060006101000a81548160ff021916908315150217905550600160056000735b189d92983e941273b26e3b46e5a16206c088276001600160a01b03166001600160a01b0316815260200190815260200160002060006101000a81548160ff02191690831515021790555060016005600073a258c4606ca8206d8aa700ce2143d7db854d168c6001600160a01b03166001600160a01b0316815260200190815260200160002060006101000a81548160ff02191690831515021790555060016005600073a74d4b67b3368e83797a35382afb776baae4f5c86001600160a01b03166001600160a01b0316815260200190815260200160002060006101000a81548160ff0219169083151502179055506001600560007363739d137eefab1001245a8bd1f3895ef3e186e76001600160a01b03166001600160a01b0316815260200190815260200160002060006101000a81548160ff021916908315150217905550600160056000735334e150b938dd2b6bd040d9c4a03cff0ced37656001600160a01b03166001600160a01b0316815260200190815260200160002060006101000a81548160ff02191690831515021790555060016005600073e0db48b4f71752c4bef16de1dbd042b82976b8c76001600160a01b03166001600160a01b0316815260200190815260200160002060006101000a81548160ff02191690831515021790555062007cc2565b3390565b61391d8062007cd26000396000f3fe608060405234801561001057600080fd5b50600436106100df5760003560e01c80639fb530501161008c578063bd59bbd411610066578063bd59bbd41461025c578063e21ead9b14610282578063f2fde38b146102a8578063f8da2c95146102ce576100df565b80639fb53050146101e2578063a622ee7c14610208578063ac41865a1461022e576100df565b8063780c2067116100bd578063780c20671461015e5780638da5cb5b146101a05780639f087dd6146101a8576100df565b806317646848146100e4578063715018a61461011c5780637566fd8214610126575b600080fd5b61010a600480360360208110156100fa57600080fd5b50356001600160a01b03166102fc565b60408051918252519081900360200190f35b610124610527565b005b61010a6004803603606081101561013c57600080fd5b506001600160a01b0381358116916020810135909116906040013515156105f2565b6101846004803603602081101561017457600080fd5b50356001600160a01b03166119ac565b604080516001600160a01b039092168252519081900360200190f35b6101846119c7565b6101ce600480360360208110156101be57600080fd5b50356001600160a01b03166119d6565b604080519115158252519081900360200190f35b610184600480360360208110156101f857600080fd5b50356001600160a01b03166119eb565b6101ce6004803603602081101561021e57600080fd5b50356001600160a01b0316611a06565b61010a6004803603604081101561024457600080fd5b506001600160a01b0381358116916020013516611a1b565b61010a6004803603602081101561027257600080fd5b50356001600160a01b0316611a32565b6101846004803603602081101561029857600080fd5b50356001600160a01b0316611bd4565b610124600480360360208110156102be57600080fd5b50356001600160a01b0316611bef565b61010a600480360360408110156102e457600080fd5b506001600160a01b0381358116916020013516611d10565b600080826001600160a01b031663182df0f56040518163ffffffff1660e01b815260040160206040518083038186803b15801561033857600080fd5b505afa15801561034c573d6000803e3d6000fd5b505050506040513d602081101561036257600080fd5b50516001600160a01b0380851660009081526003602090815260409182902054825163313ce56760e01b8152925194955060089493169263313ce567926004808201939291829003018186803b1580156103bb57600080fd5b505afa1580156103cf573d6000803e3d6000fd5b505050506040513d60208110156103e557600080fd5b505160ff161115610489576001600160a01b0380841660009081526003602090815260409182902054825163313ce56760e01b815292516104829460089492169263313ce5679260048082019391829003018186803b15801561044757600080fd5b505afa15801561045b573d6000803e3d6000fd5b505050506040513d602081101561047157600080fd5b5051839160ff910316600a0a611d1e565b905061051f565b6001600160a01b0380841660009081526003602090815260409182902054825163313ce56760e01b8152925161051c94919091169263313ce567926004808301939192829003018186803b1580156104e057600080fd5b505afa1580156104f4573d6000803e3d6000fd5b505050506040513d602081101561050a57600080fd5b5051829060080360ff16600a0a611d85565b90505b90505b919050565b61052f611da9565b6001600160a01b03166105406119c7565b6001600160a01b03161461059b576040805162461bcd60e51b815260206004820181905260248201527f4f776e61626c653a2063616c6c6572206973206e6f7420746865206f776e6572604482015290519081900360640190fd5b600080546040516001600160a01b03909116907f8be0079c531659141344cd1fd0a4f28419497f9722a3daafe3b4186f6b6457e0908390a36000805473ffffffffffffffffffffffffffffffffffffffff19169055565b6000826001600160a01b0316846001600160a01b0316141561061d5750670de0b6b3a76400006119a5565b6001600160a01b03848116600090815260016020526040812054909116156106845761064885611a32565b6001600160a01b0380871660009081526001602052604090205491925061067c918391610676911687611a1b565b90611dad565b9150506119a5565b6001600160a01b0384811660009081526001602052604090205416156106e2576106ad84611a32565b6001600160a01b0380861660009081526001602052604090205491925061067c9183916106dc91899116611a1b565b90611dcb565b6001600160a01b038581166000908152600260205260409020541615610727576001600160a01b0380861660009081526002602052604090205461067c911685611a1b565b6001600160a01b03848116600090815260026020526040902054161561076d576001600160a01b0380851660009081526002602052604090205461067c91879116611a1b565b6001600160a01b0385811660009081526003602052604090205416156107c457610796856102fc565b6001600160a01b0380871660009081526003602052604090205491925061067c918391610676911687611a1b565b6001600160a01b03848116600090815260036020526040902054161561081c576107ed846102fc565b6001600160a01b0380861660009081526003602052604090205491925061067c9183916106dc91899116611a1b565b6001600160a01b03851660009081526004602052604090205460ff16156109de576000856001600160a01b031663d4b839926040518163ffffffff1660e01b815260040160206040518083038186803b15801561087857600080fd5b505afa15801561088c573d6000803e3d6000fd5b505050506040513d60208110156108a257600080fd5b50516040805163dbd06c8560e01b8152905191925073d69b189020ef614796578afe4d10378c5e7e11389163ac82f608916001600160a01b0385169163dbd06c8591600480820192602092909190829003018186803b15801561090457600080fd5b505afa158015610918573d6000803e3d6000fd5b505050506040513d602081101561092e57600080fd5b5051604080517fffffffff0000000000000000000000000000000000000000000000000000000060e085901b1681526004810192909252516024808301926020929190829003018186803b15801561098557600080fd5b505afa158015610999573d6000803e3d6000fd5b505050506040513d60208110156109af57600080fd5b505191506109d58261067673a0b86991c6218b36c1d19d4a2e9eb0ce3606eb4888611a1b565b925050506119a5565b6001600160a01b03841660009081526004602052604090205460ff1615610b97576000846001600160a01b031663d4b839926040518163ffffffff1660e01b815260040160206040518083038186803b158015610a3a57600080fd5b505afa158015610a4e573d6000803e3d6000fd5b505050506040513d6020811015610a6457600080fd5b50516040805163dbd06c8560e01b8152905191925073d69b189020ef614796578afe4d10378c5e7e11389163ac82f608916001600160a01b0385169163dbd06c8591600480820192602092909190829003018186803b158015610ac657600080fd5b505afa158015610ada573d6000803e3d6000fd5b505050506040513d6020811015610af057600080fd5b5051604080517fffffffff0000000000000000000000000000000000000000000000000000000060e085901b1681526004810192909252516024808301926020929190829003018186803b158015610b4757600080fd5b505afa158015610b5b573d6000803e3d6000fd5b505050506040513d6020811015610b7157600080fd5b505191506109d5826106dc8873a0b86991c6218b36c1d19d4a2e9eb0ce3606eb48611a1b565b60006f22d53366457f9d5e68ec105046fc43836001600160a01b031663a262904b6040518163ffffffff1660e01b815260040160206040518083038186803b158015610be257600080fd5b505afa158015610bf6573d6000803e3d6000fd5b505050506040513d6020811015610c0c57600080fd5b50519050610c1a8686611de3565b92508215610c295750506119a5565b6001600160a01b0386167380466c64868e1ab14a1ddf27a676c3fcbe638fe514610d80576000816001600160a01b031663bdf475c3886040518263ffffffff1660e01b815260040180826001600160a01b0316815260200191505060206040518083038186803b158015610c9c57600080fd5b505afa158015610cb0573d6000803e3d6000fd5b505050506040513d6020811015610cc657600080fd5b505190506001600160a01b03811615610d7e576000610ce5828461210c565b9050610d73610cf48289611a1b565b846001600160a01b031663c5b7074a8b6040518263ffffffff1660e01b815260040180826001600160a01b0316815260200191505060206040518083038186803b158015610d4157600080fd5b505afa158015610d55573d6000803e3d6000fd5b505050506040513d6020811015610d6b57600080fd5b505190611dad565b9450505050506119a5565b505b6001600160a01b0385167380466c64868e1ab14a1ddf27a676c3fcbe638fe514610ec6576000816001600160a01b031663bdf475c3876040518263ffffffff1660e01b815260040180826001600160a01b0316815260200191505060206040518083038186803b158015610df357600080fd5b505afa158015610e07573d6000803e3d6000fd5b505050506040513d6020811015610e1d57600080fd5b505190506001600160a01b03811615610ec4576000610e3c828461210c565b9050610d73836001600160a01b031663c5b7074a896040518263ffffffff1660e01b815260040180826001600160a01b0316815260200191505060206040518083038186803b158015610e8e57600080fd5b505afa158015610ea2573d6000803e3d6000fd5b505050506040513d6020811015610eb857600080fd5b50516106dc8a84611a1b565b505b610ecf8661228c565b1561101157610f7e610f45876001600160a01b031663fc0c546a6040518163ffffffff1660e01b815260040160206040518083038186803b158015610f1357600080fd5b505afa158015610f27573d6000803e3d6000fd5b505050506040513d6020811015610f3d57600080fd5b505187611a1b565b876001600160a01b03166399530b066040518163ffffffff1660e01b815260040160206040518083038186803b158015610d4157600080fd5b92506000866001600160a01b031663313ce5676040518163ffffffff1660e01b815260040160206040518083038186803b158015610fbb57600080fd5b505afa158015610fcf573d6000803e3d6000fd5b505050506040513d6020811015610fe557600080fd5b505160ff169050601281101561100957611006846012839003600a0a611d85565b93505b5050506119a5565b61101a8561228c565b156111ad576000856001600160a01b031663fc0c546a6040518163ffffffff1660e01b815260040160206040518083038186803b15801561105a57600080fd5b505afa15801561106e573d6000803e3d6000fd5b505050506040513d602081101561108457600080fd5b5051604080517f99530b06000000000000000000000000000000000000000000000000000000008152905191925061111c916001600160a01b038916916399530b06916004808301926020929190829003018186803b1580156110e657600080fd5b505afa1580156110fa573d6000803e3d6000fd5b505050506040513d602081101561111057600080fd5b50516106dc8984611a1b565b93506000866001600160a01b031663313ce5676040518163ffffffff1660e01b815260040160206040518083038186803b15801561115957600080fd5b505afa15801561116d573d6000803e3d6000fd5b505050506040513d602081101561118357600080fd5b505160ff16905060128110156111a457610d73856012839003600a0a611d1e565b505050506119a5565b60006001600160a01b038716736b175474e89094c44da98b954eedeac495271d0f148015906111f957506001600160a01b038616736b175474e89094c44da98b954eedeac495271d0f14155b156112aa5761121c736b175474e89094c44da98b954eedeac495271d0f87611de3565b935083156112545761124287736b175474e89094c44da98b954eedeac495271d0f6122aa565b90508015611254576110068185611dad565b61127287736b175474e89094c44da98b954eedeac495271d0f611de3565b935083156112aa57611298736b175474e89094c44da98b954eedeac495271d0f876122aa565b905080156112aa576110068482611dad565b6001600160a01b03871673c02aaa39b223fe8d0a0e5c4f27ead9083c756cc2148015906112f457506001600160a01b03861673c02aaa39b223fe8d0a0e5c4f27ead9083c756cc214155b156113a55761131773c02aaa39b223fe8d0a0e5c4f27ead9083c756cc287611de3565b9350831561134f5761133d8773c02aaa39b223fe8d0a0e5c4f27ead9083c756cc26122aa565b9050801561134f576110068185611dad565b61136d8773c02aaa39b223fe8d0a0e5c4f27ead9083c756cc2611de3565b935083156113a55761139373c02aaa39b223fe8d0a0e5c4f27ead9083c756cc2876122aa565b905080156113a5576110068482611dad565b6001600160a01b038716732260fac5e5542a773aa44fbcfedf7c193bc2c599148015906113ef57506001600160a01b038616732260fac5e5542a773aa44fbcfedf7c193bc2c59914155b156114a057611412732260fac5e5542a773aa44fbcfedf7c193bc2c59987611de3565b9350831561144a5761143887732260fac5e5542a773aa44fbcfedf7c193bc2c5996122aa565b9050801561144a576110068185611dad565b61146887732260fac5e5542a773aa44fbcfedf7c193bc2c599611de3565b935083156114a05761148e732260fac5e5542a773aa44fbcfedf7c193bc2c599876122aa565b905080156114a0576110068482611dad565b6001600160a01b03871673ae7ab96520de3a18e5e111b5eaab095312d7fe8414806114e757506001600160a01b038716737f39c581f595b53c5cb19bd0b3f8da6c935e2ca0145b1561164657670de0b6b3a76400006001600160a01b038816737f39c581f595b53c5cb19bd0b3f8da6c935e2ca014156115a157737f39c581f595b53c5cb19bd0b3f8da6c935e2ca06001600160a01b031663bb2952fc826040518263ffffffff1660e01b81526004018082815260200191505060206040518083038186803b15801561157257600080fd5b505afa158015611586573d6000803e3d6000fd5b505050506040513d602081101561159c57600080fd5b505190505b610d7373ae7ab96520de3a18e5e111b5eaab095312d7fe846001600160a01b0316637a28fb88836040518263ffffffff1660e01b81526004018082815260200191505060206040518083038186803b1580156115fc57600080fd5b505afa158015611610573d6000803e3d6000fd5b505050506040513d602081101561162657600080fd5b505161067673c02aaa39b223fe8d0a0e5c4f27ead9083c756cc28a611a1b565b6001600160a01b03861673ae7ab96520de3a18e5e111b5eaab095312d7fe84148061168d57506001600160a01b038616737f39c581f595b53c5cb19bd0b3f8da6c935e2ca0145b156117ec57670de0b6b3a76400006001600160a01b038716737f39c581f595b53c5cb19bd0b3f8da6c935e2ca0141561174757737f39c581f595b53c5cb19bd0b3f8da6c935e2ca06001600160a01b031663bb2952fc826040518263ffffffff1660e01b81526004018082815260200191505060206040518083038186803b15801561171857600080fd5b505afa15801561172c573d6000803e3d6000fd5b505050506040513d602081101561174257600080fd5b505190505b610d7373ae7ab96520de3a18e5e111b5eaab095312d7fe846001600160a01b03166319208451836040518263ffffffff1660e01b81526004018082815260200191505060206040518083038186803b1580156117a257600080fd5b505afa1580156117b6573d6000803e3d6000fd5b505050506040513d60208110156117cc57600080fd5b50516106dc8a73c02aaa39b223fe8d0a0e5c4f27ead9083c756cc2611a1b565b6117f687876122aa565b93508315611806575050506119a5565b6001600160a01b03871673c02aaa39b223fe8d0a0e5c4f27ead9083c756cc21480159061185057506001600160a01b03861673c02aaa39b223fe8d0a0e5c4f27ead9083c756cc214155b156118a15760006118758773c02aaa39b223fe8d0a0e5c4f27ead9083c756cc26122aa565b9050801561189f57610d73816106dc8a73c02aaa39b223fe8d0a0e5c4f27ead9083c756cc26122aa565b505b6001600160a01b038716736b175474e89094c44da98b954eedeac495271d0f148015906118eb57506001600160a01b038616736b175474e89094c44da98b954eedeac495271d0f14155b1561193c57600061191087736b175474e89094c44da98b954eedeac495271d0f6122aa565b9050801561193a57610d73816106dc8a736b175474e89094c44da98b954eedeac495271d0f6122aa565b505b841561194f5761194c87876123b2565b93505b836119a1576040805162461bcd60e51b815260206004820152600f60248201527f5072696365206e6f7420666f756e640000000000000000000000000000000000604482015290519081900360640190fd5b5050505b9392505050565b6003602052600090815260409020546001600160a01b031681565b6000546001600160a01b031690565b60046020526000908152604090205460ff1681565b6001602052600090815260409020546001600160a01b031681565b60056020526000908152604090205460ff1681565b6000611a29838360006105f2565b90505b92915050565b600080826001600160a01b031663182df0f56040518163ffffffff1660e01b815260040160206040518083038186803b158015611a6e57600080fd5b505afa158015611a82573d6000803e3d6000fd5b505050506040513d6020811015611a9857600080fd5b50516001600160a01b0380851660009081526001602090815260409182902054825163313ce56760e01b8152925194955060089493169263313ce567926004808201939291829003018186803b158015611af157600080fd5b505afa158015611b05573d6000803e3d6000fd5b505050506040513d6020811015611b1b57600080fd5b505160ff161115611b7d576001600160a01b0380841660009081526001602090815260409182902054825163313ce56760e01b815292516104829460089492169263313ce5679260048082019391829003018186803b15801561044757600080fd5b6001600160a01b0380841660009081526001602090815260409182902054825163313ce56760e01b8152925161051c94919091169263313ce567926004808301939192829003018186803b1580156104e057600080fd5b6002602052600090815260409020546001600160a01b031681565b611bf7611da9565b6001600160a01b0316611c086119c7565b6001600160a01b031614611c63576040805162461bcd60e51b815260206004820181905260248201527f4f776e61626c653a2063616c6c6572206973206e6f7420746865206f776e6572604482015290519081900360640190fd5b6001600160a01b038116611ca85760405162461bcd60e51b81526004018080602001828103825260268152602001806138c26026913960400191505060405180910390fd5b600080546040516001600160a01b03808516939216917f8be0079c531659141344cd1fd0a4f28419497f9722a3daafe3b4186f6b6457e091a36000805473ffffffffffffffffffffffffffffffffffffffff19166001600160a01b0392909216919091179055565b6000611a29838360016105f2565b6000808211611d74576040805162461bcd60e51b815260206004820152601a60248201527f536166654d6174683a206469766973696f6e206279207a65726f000000000000604482015290519081900360640190fd5b818381611d7d57fe5b049392505050565b6000821580611da057505081810281838281611d9d57fe5b04145b611a2c57600080fd5b3390565b6000611a29670de0b6b3a7640000611dc58585611d85565b90611d1e565b6000611a2982611dc585670de0b6b3a7640000611d85565b6000806f22d53366457f9d5e68ec105046fc43836001600160a01b031663a262904b6040518163ffffffff1660e01b815260040160206040518083038186803b158015611e2f57600080fd5b505afa158015611e43573d6000803e3d6000fd5b505050506040513d6020811015611e5957600080fd5b5051604080517fa87df06c0000000000000000000000000000000000000000000000000000000081526001600160a01b038781166004830152868116602483015291519293506000929184169163a87df06c91604480820192602092909190829003018186803b158015611ecc57600080fd5b505afa158015611ee0573d6000803e3d6000fd5b505050506040513d6020811015611ef657600080fd5b505190506001600160a01b03851673c02aaa39b223fe8d0a0e5c4f27ead9083c756cc2148015611f2d57506001600160a01b038116155b15611fea5773eeeeeeeeeeeeeeeeeeeeeeeeeeeeeeeeeeeeeeee9450816001600160a01b031663a87df06c73eeeeeeeeeeeeeeeeeeeeeeeeeeeeeeeeeeeeeeee866040518363ffffffff1660e01b815260040180836001600160a01b03168152602001826001600160a01b031681526020019250505060206040518083038186803b158015611fbb57600080fd5b505afa158015611fcf573d6000803e3d6000fd5b505050506040513d6020811015611fe557600080fd5b505190505b6001600160a01b03841673c02aaa39b223fe8d0a0e5c4f27ead9083c756cc214801561201d57506001600160a01b038116155b156120da5773eeeeeeeeeeeeeeeeeeeeeeeeeeeeeeeeeeeeeeee9350816001600160a01b031663a87df06c8673eeeeeeeeeeeeeeeeeeeeeeeeeeeeeeeeeeeeeeee6040518363ffffffff1660e01b815260040180836001600160a01b03168152602001826001600160a01b031681526020019250505060206040518083038186803b1580156120ab57600080fd5b505afa1580156120bf573d6000803e3d6000fd5b505050506040513d60208110156120d557600080fd5b505190505b6001600160a01b038116156121015760006120f682878761263a565b9350611a2c92505050565b506000949350505050565b600080826001600160a01b031663a77576ef856040518263ffffffff1660e01b815260040180826001600160a01b031681526020019150506101006040518083038186803b15801561215d57600080fd5b505afa158015612171573d6000803e3d6000fd5b505050506040513d601f19601f8201168201806040525061010081101561219757600080fd5b5080519091506001600160a01b0316156121fc5780516001600160a01b031673eeeeeeeeeeeeeeeeeeeeeeeeeeeeeeeeeeeeeeee146121de578060005b60200201516121f4565b73c02aaa39b223fe8d0a0e5c4f27ead9083c756cc25b915050611a2c565b60208101516001600160a01b03161561223f5760208101516001600160a01b031673eeeeeeeeeeeeeeeeeeeeeeeeeeeeeeeeeeeeeeee146121de578060016121d4565b60408101516001600160a01b0316156122825760408101516001600160a01b031673eeeeeeeeeeeeeeeeeeeeeeeeeeeeeeeeeeeeeeee146121de578060026121d4565b5060009392505050565b6001600160a01b031660009081526005602052604090205460ff1690565b6000806000806122ba8686612af1565b9194509092509050826122d35760009350505050611a2c565b6123a8612349876001600160a01b031663313ce5676040518163ffffffff1660e01b815260040160206040518083038186803b15801561231257600080fd5b505afa158015612326573d6000803e3d6000fd5b505050506040513d602081101561233c57600080fd5b505160129060ff16612c26565b600a0a611dc5846123a161238f8a6001600160a01b031663313ce5676040518163ffffffff1660e01b815260040160206040518083038186803b15801561231257600080fd5b670de0b6b3a764000090600a0a611d85565b8a8a612c36565b9695505050505050565b6040805160028082526060820183526000928392919060208301908036833701905050905083816000815181106123e557fe5b60200260200101906001600160a01b031690816001600160a01b031681525050828160018151811061241357fe5b60200260200101906001600160a01b031690816001600160a01b031681525050737a250d5630b4cf539739df2c5dacb4c659f2488d6001600160a01b031663d06ca61f856001600160a01b031663313ce5676040518163ffffffff1660e01b815260040160206040518083038186803b15801561248f57600080fd5b505afa1580156124a3573d6000803e3d6000fd5b505050506040513d60208110156124b957600080fd5b5051604080517fffffffff0000000000000000000000000000000000000000000000000000000060e085901b16815260ff8316600482019081526024820192835286516044830152865187939192606401906020858101910280838360005b83811015612530578181015183820152602001612518565b50505050905001935050505060006040518083038186803b15801561255457600080fd5b505afa158015612568573d6000803e3d6000fd5b505050506040513d6000823e601f3d908101601f19168201604052602081101561259157600080fd5b81019080805160405193929190846401000000008211156125b157600080fd5b9083019060208201858111156125c657600080fd5b82518660208202830111640100000000821117156125e357600080fd5b82525081516020918201928201910280838360005b838110156126105781810151838201526020016125f8565b5050505090500160405250505060018151811061262957fe5b602002602001015191505092915050565b6000806f22d53366457f9d5e68ec105046fc43836001600160a01b031663a262904b6040518163ffffffff1660e01b815260040160206040518083038186803b15801561268657600080fd5b505afa15801561269a573d6000803e3d6000fd5b505050506040513d60208110156126b057600080fd5b5051604080517feb85226d0000000000000000000000000000000000000000000000000000000081526001600160a01b038881166004830152878116602483015286811660448301529151929350600092839285169163eb85226d916064808301926060929190829003018186803b15801561272b57600080fd5b505afa15801561273f573d6000803e3d6000fd5b505050506040513d606081101561275557600080fd5b508051602090910151909250905060006001600160a01b0388167380466c64868e1ab14a1ddf27a676c3fcbe638fe514156128b657876001600160a01b031663556d6e9f84600f0b84600f0b73eeeeeeeeeeeeeeeeeeeeeeeeeeeeeeeeeeeeeeee6001600160a01b03168b6001600160a01b031614612838578a6001600160a01b031663313ce5676040518163ffffffff1660e01b815260040160206040518083038186803b15801561280757600080fd5b505afa15801561281b573d6000803e3d6000fd5b505050506040513d602081101561283157600080fd5b505161283b565b60125b60ff16600a0a6040518463ffffffff1660e01b815260040180848152602001838152602001828152602001935050505060206040518083038186803b15801561288357600080fd5b505afa158015612897573d6000803e3d6000fd5b505050506040513d60208110156128ad57600080fd5b505190506129de565b876001600160a01b0316635e0d443f848473eeeeeeeeeeeeeeeeeeeeeeeeeeeeeeeeeeeeeeee6001600160a01b03168b6001600160a01b03161461295e578a6001600160a01b031663313ce5676040518163ffffffff1660e01b815260040160206040518083038186803b15801561292d57600080fd5b505afa158015612941573d6000803e3d6000fd5b505050506040513d602081101561295757600080fd5b5051612961565b60125b60ff16600a0a6040518463ffffffff1660e01b81526004018084600f0b815260200183600f0b8152602001828152602001935050505060206040518083038186803b1580156129af57600080fd5b505afa1580156129c3573d6000803e3d6000fd5b505050506040513d60208110156129d957600080fd5b505190505b612a8a6001600160a01b03871673eeeeeeeeeeeeeeeeeeeeeeeeeeeeeeeeeeeeeeee14612a6f57866001600160a01b031663313ce5676040518163ffffffff1660e01b815260040160206040518083038186803b158015612a3e57600080fd5b505afa158015612a52573d6000803e3d6000fd5b505050506040513d6020811015612a6857600080fd5b5051612a72565b60125b60120360ff16600a0a82611d8590919063ffffffff16565b90506000612a9f8266d529ae9e860000611dad565b9050612ab3670de0b6b3a764000082612d2d565b82108015612ad15750612ace670de0b6b3a764000082612c26565b82115b15612ae2575093506119a592505050565b50600098975050505050505050565b6000806000806000612b038787612d3d565b90506001600160a01b03811615612c11576000816001600160a01b0316631a6865026040518163ffffffff1660e01b815260040160206040518083038186803b158015612b4f57600080fd5b505afa158015612b63573d6000803e3d6000fd5b505050506040513d6020811015612b7957600080fd5b50516001600160801b031690508015612c0f57816001600160a01b0316633850c7bd6040518163ffffffff1660e01b815260040160e06040518083038186803b158015612bc557600080fd5b505afa158015612bd9573d6000803e3d6000fd5b505050506040513d60e0811015612bef57600080fd5b50602001519250612c00838361312a565b9550909350909150612c1f9050565b505b600080600094509450945050505b9250925092565b80820382811115611a2c57600080fd5b600080612c428661321b565b90506001600160801b036001600160a01b03821611612cb1576001600160a01b0380821680029084811690861610612c9157612c8c600160c01b876001600160801b031683613569565b612ca9565b612ca981876001600160801b0316600160c01b613569565b925050612d24565b6000612cd06001600160a01b0383168068010000000000000000613569565b9050836001600160a01b0316856001600160a01b031610612d0857612d03600160801b876001600160801b031683613569565b612d20565b612d2081876001600160801b0316600160801b613569565b9250505b50949350505050565b80820182811015611a2c57600080fd5b60408051630b4c774160e11b81526001600160a01b038481166004830152831660248201526101f4604482015290516000918291731f98431c8ad98523631ae4a59f267346ea31f98491631698ee82916064808301926020929190829003018186803b158015612dac57600080fd5b505afa158015612dc0573d6000803e3d6000fd5b505050506040513d6020811015612dd657600080fd5b505160408051630b4c774160e11b81526001600160a01b03878116600483015286166024820152610bb860448201529051919250600091731f98431c8ad98523631ae4a59f267346ea31f98491631698ee82916064808301926020929190829003018186803b158015612e4857600080fd5b505afa158015612e5c573d6000803e3d6000fd5b505050506040513d6020811015612e7257600080fd5b505160408051630b4c774160e11b81526001600160a01b0388811660048301528716602482015261271060448201529051919250600091731f98431c8ad98523631ae4a59f267346ea31f98491631698ee82916064808301926020929190829003018186803b158015612ee457600080fd5b505afa158015612ef8573d6000803e3d6000fd5b505050506040513d6020811015612f0e57600080fd5b5051905060006001600160a01b038416612f29576000612f8f565b836001600160a01b0316631a6865026040518163ffffffff1660e01b815260040160206040518083038186803b158015612f6257600080fd5b505afa158015612f76573d6000803e3d6000fd5b505050506040513d6020811015612f8c57600080fd5b50515b905060006001600160a01b038416612fa857600061300e565b836001600160a01b0316631a6865026040518163ffffffff1660e01b815260040160206040518083038186803b158015612fe157600080fd5b505afa158015612ff5573d6000803e3d6000fd5b505050506040513d602081101561300b57600080fd5b50515b905060006001600160a01b03841661302757600061308d565b836001600160a01b0316631a6865026040518163ffffffff1660e01b815260040160206040518083038186803b15801561306057600080fd5b505afa158015613074573d6000803e3d6000fd5b505050506040513d602081101561308a57600080fd5b50515b9050816001600160801b0316836001600160801b0316101580156130c35750806001600160801b0316836001600160801b031610155b156130d657859650505050505050611a2c565b826001600160801b0316826001600160801b03161015801561310a5750806001600160801b0316826001600160801b031610155b1561311d57849650505050505050611a2c565b5091979650505050505050565b600080826001600160a01b031663d0c93a7c6040518163ffffffff1660e01b815260040160206040518083038186803b15801561316657600080fd5b505afa15801561317a573d6000803e3d6000fd5b505050506040513d602081101561319057600080fd5b50519050620d85ff198101600290810b9085900b12156131b4576000915050611a2c565b806103e8620d89e719600003030360020b8460020b13156131d9576000915050611a2c565b60006131e484613618565b905060008160060b8660020b13613200578560020b8203613207565b818660020b035b61138860069190910b129695505050505050565b60008060008360020b12613232578260020b61323a565b8260020b6000035b9050620d89e8811115613294576040805162461bcd60e51b815260206004820152600160248201527f5400000000000000000000000000000000000000000000000000000000000000604482015290519081900360640190fd5b6000600182166132a857600160801b6132ba565b6ffffcb933bd6fad37aa2d162d1a5940015b70ffffffffffffffffffffffffffffffffff16905060028216156132ee576ffff97272373d413259a46990580e213a0260801c5b600482161561330d576ffff2e50f5f656932ef12357cf3c7fdcc0260801c5b600882161561332c576fffe5caca7e10e4e61c3624eaa0941cd00260801c5b601082161561334b576fffcb9843d60f6159c9db58835c9266440260801c5b602082161561336a576fff973b41fa98c081472e6896dfb254c00260801c5b6040821615613389576fff2ea16466c96a3843ec78b326b528610260801c5b60808216156133a8576ffe5dee046a99a2a811c461f1969c30530260801c5b6101008216156133c8576ffcbe86c7900a88aedcffc83b479aa3a40260801c5b6102008216156133e8576ff987a7253ac413176f2b074cf7815e540260801c5b610400821615613408576ff3392b0822b70005940c7a398e4b70f30260801c5b610800821615613428576fe7159475a2c29b7443b29c7fa6e889d90260801c5b611000821615613448576fd097f3bdfd2022b8845ad8f792aa58250260801c5b612000821615613468576fa9f746462d870fdf8a65dc1f90e061e50260801c5b614000821615613488576f70d869a156d2a1b890bb3df62baf32f70260801c5b6180008216156134a8576f31be135f97d08fd981231505542fcfa60260801c5b620100008216156134c9576f09aa508b5b7a84e1c677de54f3e99bc90260801c5b620200008216156134e9576e5d6af8dedb81196699c329225ee6040260801c5b62040000821615613508576d2216e584f5fa1ea926041bedfe980260801c5b62080000821615613525576b048a170391f7dc42444e8fa20260801c5b60008460020b131561354057806000198161353c57fe5b0490505b640100000000810615613554576001613557565b60005b60ff16602082901c0192505050919050565b600080806000198587098686029250828110908390030390508061359f576000841161359457600080fd5b5082900490506119a5565b8084116135ab57600080fd5b6000848688096000868103871696879004966002600389028118808a02820302808a02820302808a02820302808a02820302808a02820302808a02909103029181900381900460010186841190950394909402919094039290920491909117919091029150509392505050565b60408051600280825260608201835260009283929190602083019080368337019050509050601e8160008151811061364c57fe5b602002602001019063ffffffff16908163ffffffff168152505060008160018151811061367557fe5b63ffffffff9092166020928302919091018201526040517f883bdbfd000000000000000000000000000000000000000000000000000000008152600481018281528351602483015283516001600160a01b0387169363883bdbfd938693928392604490920191858101910280838360005b838110156136fe5781810151838201526020016136e6565b505050509050019250505060006040518083038186803b15801561372157600080fd5b505afa92505050801561386b57506040513d6000823e601f3d908101601f19168201604090815281101561375457600080fd5b810190808051604051939291908464010000000082111561377457600080fd5b90830190602082018581111561378957600080fd5b82518660208202830111640100000000821117156137a657600080fd5b82525081516020918201928201910280838360005b838110156137d35781810151838201526020016137bb565b50505050905001604052602001805160405193929190846401000000008211156137fc57600080fd5b90830190602082018581111561381157600080fd5b825186602082028301116401000000008211171561382e57600080fd5b82525081516020918201928201910280838360005b8381101561385b578181015183820152602001613843565b5050505090500160405250505060015b613879576000915050610522565b601e63ffffffff168260008151811061388e57fe5b6020026020010151836001815181106138a357fe5b60200260200101510360060b816138b657fe5b05935050505061052256fe4f776e61626c653a206e6577206f776e657220697320746865207a65726f2061646472657373a2646970667358221220b850e55e5f509794abe9a99ad4dfb420a513fb9578f5cf43e31d3ca56c2e4cbc64736f6c63430007060033",
  "devdoc": {
    "author": "Babylon Finance Protocol Uses Uniswap V3 to get a price of a token pair",
    "kind": "dev",
    "methods": {
      "_getPrice(address,address,bool)": {
        "params": {
          "_forNAV": "Whether it is just for display purposes",
          "_tokenIn": "Address of the first token",
          "_tokenOut": "Address of the second token"
        },
        "returns": {
          "price": "               Price of the pair"
        }
      },
      "getPrice(address,address)": {
        "params": {
          "_tokenIn": "Address of the first token",
          "_tokenOut": "Address of the second token"
        },
        "returns": {
          "price": "               Price of the pair"
        }
      },
      "getPriceNAV(address,address)": {
        "params": {
          "_tokenIn": "Address of the first token",
          "_tokenOut": "Address of the second token"
        },
        "returns": {
          "price": "               Price of the pair"
        }
      },
      "owner()": {
        "details": "Returns the address of the current owner."
      },
      "renounceOwnership()": {
        "details": "Leaves the contract without owner. It will not be possible to call `onlyOwner` functions anymore. Can only be called by the current owner. NOTE: Renouncing ownership will leave the contract without an owner, thereby removing any functionality that is only available to the owner."
      },
      "transferOwnership(address)": {
        "details": "Transfers ownership of the contract to a new account (`newOwner`). Can only be called by the current owner."
      }
    },
    "title": "PriceOracle",
    "version": 1
  },
  "userdoc": {
    "kind": "user",
    "methods": {
      "_getPrice(address,address,bool)": {
        "notice": "Returns the amount out corresponding to the amount in for a given token"
      },
      "getPrice(address,address)": {
        "notice": "Returns the amount out corresponding to the amount in for a given token"
      },
      "getPriceNAV(address,address)": {
        "notice": "Returns the amount out corresponding to the amount in for a given token"
      }
    },
    "version": 1
  },
  "storageLayout": {
    "storage": [
      {
        "astId": 1456,
        "contract": "contracts/PriceOracle.sol:PriceOracle",
        "label": "_owner",
        "offset": 0,
        "slot": "0",
        "type": "t_address"
      },
      {
        "astId": 14135,
        "contract": "contracts/PriceOracle.sol:PriceOracle",
        "label": "cTokenToAsset",
        "offset": 0,
        "slot": "1",
        "type": "t_mapping(t_address,t_address)"
      },
      {
        "astId": 14139,
        "contract": "contracts/PriceOracle.sol:PriceOracle",
        "label": "aTokenToAsset",
        "offset": 0,
        "slot": "2",
        "type": "t_mapping(t_address,t_address)"
      },
      {
        "astId": 14143,
        "contract": "contracts/PriceOracle.sol:PriceOracle",
        "label": "crTokenToAsset",
        "offset": 0,
        "slot": "3",
        "type": "t_mapping(t_address,t_address)"
      },
      {
        "astId": 14147,
        "contract": "contracts/PriceOracle.sol:PriceOracle",
        "label": "synths",
        "offset": 0,
        "slot": "4",
        "type": "t_mapping(t_address,t_bool)"
      },
      {
        "astId": 14151,
        "contract": "contracts/PriceOracle.sol:PriceOracle",
        "label": "vaults",
        "offset": 0,
        "slot": "5",
        "type": "t_mapping(t_address,t_bool)"
      }
    ],
    "types": {
      "t_address": {
        "encoding": "inplace",
        "label": "address",
        "numberOfBytes": "20"
      },
      "t_bool": {
        "encoding": "inplace",
        "label": "bool",
        "numberOfBytes": "1"
      },
      "t_mapping(t_address,t_address)": {
        "encoding": "mapping",
        "key": "t_address",
        "label": "mapping(address => address)",
        "numberOfBytes": "32",
        "value": "t_address"
      },
      "t_mapping(t_address,t_bool)": {
        "encoding": "mapping",
        "key": "t_address",
        "label": "mapping(address => bool)",
        "numberOfBytes": "32",
        "value": "t_bool"
      }
    }
  }
}