{
  "address": "0x3085cDDa4265fE00e4cC4bC9656dA02e40B12720",
  "abi": [
    {
      "anonymous": false,
      "inputs": [
        {
          "indexed": true,
          "internalType": "address",
          "name": "previousOwner",
          "type": "address"
        },
        {
          "indexed": true,
          "internalType": "address",
          "name": "newOwner",
          "type": "address"
        }
      ],
      "name": "OwnershipTransferred",
      "type": "event"
    },
    {
      "inputs": [
        {
          "internalType": "address",
          "name": "_tokenIn",
          "type": "address"
        },
        {
          "internalType": "address",
          "name": "_tokenOut",
          "type": "address"
        }
      ],
      "name": "getPrice",
      "outputs": [
        {
          "internalType": "uint256",
          "name": "price",
          "type": "uint256"
        }
      ],
      "stateMutability": "view",
      "type": "function"
    },
    {
      "inputs": [],
      "name": "owner",
      "outputs": [
        {
          "internalType": "address",
          "name": "",
          "type": "address"
        }
      ],
      "stateMutability": "view",
      "type": "function"
    },
    {
      "inputs": [],
      "name": "renounceOwnership",
      "outputs": [],
      "stateMutability": "nonpayable",
      "type": "function"
    },
    {
      "inputs": [
        {
          "internalType": "address",
          "name": "newOwner",
          "type": "address"
        }
      ],
      "name": "transferOwnership",
      "outputs": [],
      "stateMutability": "nonpayable",
      "type": "function"
    }
  ],
  "transactionHash": "0xdfa8b1f286872bd329bd1145c8e93fe7eef9bbe3741489f2dbc31d5725a8fb10",
  "args": [],
  "solcInputHash": "9848dc78f52f46992b529e31fb1275ff",
  "bytecode": "0x608060405234801561001057600080fd5b50600061001b61006a565b600080546001600160a01b0319166001600160a01b0383169081178255604051929350917f8be0079c531659141344cd1fd0a4f28419497f9722a3daafe3b4186f6b6457e0908290a35061006e565b3390565b6110698061007d6000396000f3fe608060405234801561001057600080fd5b506004361061004c5760003560e01c8063715018a6146100515780638da5cb5b1461005b578063ac41865a1461007f578063f2fde38b146100bf575b600080fd5b6100596100e5565b005b6100636101b0565b604080516001600160a01b039092168252519081900360200190f35b6100ad6004803603604081101561009557600080fd5b506001600160a01b03813581169160200135166101bf565b60408051918252519081900360200190f35b610059600480360360208110156100d557600080fd5b50356001600160a01b0316610419565b6100ed61053a565b6001600160a01b03166100fe6101b0565b6001600160a01b031614610159576040805162461bcd60e51b815260206004820181905260248201527f4f776e61626c653a2063616c6c6572206973206e6f7420746865206f776e6572604482015290519081900360640190fd5b600080546040516001600160a01b03909116907f8be0079c531659141344cd1fd0a4f28419497f9722a3daafe3b4186f6b6457e0908390a36000805473ffffffffffffffffffffffffffffffffffffffff19169055565b6000546001600160a01b031690565b6000806000806000856001600160a01b0316876001600160a01b031614156101f557670de0b6b3a7640000945050505050610413565b6001600160a01b03871673c02aaa39b223fe8d0a0e5c4f27ead9083c756cc21480159061023f57506001600160a01b03861673c02aaa39b223fe8d0a0e5c4f27ead9083c756cc214155b15610294576102896102658773c02aaa39b223fe8d0a0e5c4f27ead9083c756cc26101bf565b6102838973c02aaa39b223fe8d0a0e5c4f27ead9083c756cc26101bf565b9061053e565b945050505050610413565b6102a187876101f461055d565b9195509092509050836102c4576102bb8787610bb861055d565b91955090925090505b836102df576102d6878761271061055d565b91955090925090505b83610331576040805162461bcd60e51b815260206004820152600f60248201527f5072696365206e6f7420666f756e640000000000000000000000000000000000604482015290519081900360640190fd5b61040c6103a7886001600160a01b031663313ce5676040518163ffffffff1660e01b815260040160206040518083038186803b15801561037057600080fd5b505afa158015610384573d6000803e3d6000fd5b505050506040513d602081101561039a57600080fd5b505160129060ff166106b7565b600a0a610406846103ff6103ed8b6001600160a01b031663313ce5676040518163ffffffff1660e01b815260040160206040518083038186803b15801561037057600080fd5b670de0b6b3a764000090600a0a6106c7565b8b8b6106eb565b9061080f565b9450505050505b92915050565b61042161053a565b6001600160a01b03166104326101b0565b6001600160a01b03161461048d576040805162461bcd60e51b815260206004820181905260248201527f4f776e61626c653a2063616c6c6572206973206e6f7420746865206f776e6572604482015290519081900360640190fd5b6001600160a01b0381166104d25760405162461bcd60e51b815260040180806020018281038252602681526020018061100e6026913960400191505060405180910390fd5b600080546040516001600160a01b03808516939216917f8be0079c531659141344cd1fd0a4f28419497f9722a3daafe3b4186f6b6457e091a36000805473ffffffffffffffffffffffffffffffffffffffff19166001600160a01b0392909216919091179055565b3390565b60006105568261040685670de0b6b3a76400006106c7565b9392505050565b6000806000806000731f98431c8ad98523631ae4a59f267346ea31f9846001600160a01b0316631698ee828989896040518463ffffffff1660e01b815260040180846001600160a01b03168152602001836001600160a01b031681526020018262ffffff168152602001935050505060206040518083038186803b1580156105e457600080fd5b505afa1580156105f8573d6000803e3d6000fd5b505050506040513d602081101561060e57600080fd5b505190506001600160a01b038116156106a057806001600160a01b0316633850c7bd6040518163ffffffff1660e01b815260040160e06040518083038186803b15801561065a57600080fd5b505afa15801561066e573d6000803e3d6000fd5b505050506040513d60e081101561068457600080fd5b506020015191506106958282610876565b9450925090506106ae565b600080600094509450945050505b93509350939050565b8082038281111561041357600080fd5b60008215806106e2575050818102818382816106df57fe5b04145b61041357600080fd5b6000806106f786610966565b90506fffffffffffffffffffffffffffffffff6001600160a01b03821611610781576001600160a01b038082168002908481169086161061075857610753600160c01b876fffffffffffffffffffffffffffffffff1683610cb4565b610779565b61077981876fffffffffffffffffffffffffffffffff16600160c01b610cb4565b925050610806565b60006107a06001600160a01b0383168068010000000000000000610cb4565b9050836001600160a01b0316856001600160a01b0316106107e1576107dc600160801b876fffffffffffffffffffffffffffffffff1683610cb4565b610802565b61080281876fffffffffffffffffffffffffffffffff16600160801b610cb4565b9250505b50949350505050565b6000808211610865576040805162461bcd60e51b815260206004820152601a60248201527f536166654d6174683a206469766973696f6e206279207a65726f000000000000604482015290519081900360640190fd5b81838161086e57fe5b049392505050565b600080826001600160a01b031663d0c93a7c6040518163ffffffff1660e01b815260040160206040518083038186803b1580156108b257600080fd5b505afa1580156108c6573d6000803e3d6000fd5b505050506040513d60208110156108dc57600080fd5b50519050620d85ff198101600290810b9085900b1215610900576000915050610413565b806103e8620d89e719600003030360020b8460020b1315610925576000915050610413565b600061093084610d63565b905060008160060b8660020b1361094c578560020b8203610953565b818660020b035b606460069190910b129695505050505050565b60008060008360020b1261097d578260020b610985565b8260020b6000035b9050620d89e88111156109df576040805162461bcd60e51b815260206004820152600160248201527f5400000000000000000000000000000000000000000000000000000000000000604482015290519081900360640190fd5b6000600182166109f357600160801b610a05565b6ffffcb933bd6fad37aa2d162d1a5940015b70ffffffffffffffffffffffffffffffffff1690506002821615610a39576ffff97272373d413259a46990580e213a0260801c5b6004821615610a58576ffff2e50f5f656932ef12357cf3c7fdcc0260801c5b6008821615610a77576fffe5caca7e10e4e61c3624eaa0941cd00260801c5b6010821615610a96576fffcb9843d60f6159c9db58835c9266440260801c5b6020821615610ab5576fff973b41fa98c081472e6896dfb254c00260801c5b6040821615610ad4576fff2ea16466c96a3843ec78b326b528610260801c5b6080821615610af3576ffe5dee046a99a2a811c461f1969c30530260801c5b610100821615610b13576ffcbe86c7900a88aedcffc83b479aa3a40260801c5b610200821615610b33576ff987a7253ac413176f2b074cf7815e540260801c5b610400821615610b53576ff3392b0822b70005940c7a398e4b70f30260801c5b610800821615610b73576fe7159475a2c29b7443b29c7fa6e889d90260801c5b611000821615610b93576fd097f3bdfd2022b8845ad8f792aa58250260801c5b612000821615610bb3576fa9f746462d870fdf8a65dc1f90e061e50260801c5b614000821615610bd3576f70d869a156d2a1b890bb3df62baf32f70260801c5b618000821615610bf3576f31be135f97d08fd981231505542fcfa60260801c5b62010000821615610c14576f09aa508b5b7a84e1c677de54f3e99bc90260801c5b62020000821615610c34576e5d6af8dedb81196699c329225ee6040260801c5b62040000821615610c53576d2216e584f5fa1ea926041bedfe980260801c5b62080000821615610c70576b048a170391f7dc42444e8fa20260801c5b60008460020b1315610c8b578060001981610c8757fe5b0490505b640100000000810615610c9f576001610ca2565b60005b60ff16602082901c0192505050919050565b6000808060001985870986860292508281109083900303905080610cea5760008411610cdf57600080fd5b508290049050610556565b808411610cf657600080fd5b6000848688096000868103871696879004966002600389028118808a02820302808a02820302808a02820302808a02820302808a02820302808a02909103029181900381900460010186841190950394909402919094039290920491909117919091029150509392505050565b60408051600280825260608201835260009283929190602083019080368337019050509050601e81600081518110610d9757fe5b602002602001019063ffffffff16908163ffffffff1681525050600081600181518110610dc057fe5b63ffffffff9092166020928302919091018201526040517f883bdbfd000000000000000000000000000000000000000000000000000000008152600481018281528351602483015283516001600160a01b0387169363883bdbfd938693928392604490920191858101910280838360005b83811015610e49578181015183820152602001610e31565b505050509050019250505060006040518083038186803b158015610e6c57600080fd5b505afa925050508015610fb657506040513d6000823e601f3d908101601f191682016040908152811015610e9f57600080fd5b8101908080516040519392919084640100000000821115610ebf57600080fd5b908301906020820185811115610ed457600080fd5b8251866020820283011164010000000082111715610ef157600080fd5b82525081516020918201928201910280838360005b83811015610f1e578181015183820152602001610f06565b5050505090500160405260200180516040519392919084640100000000821115610f4757600080fd5b908301906020820185811115610f5c57600080fd5b8251866020820283011164010000000082111715610f7957600080fd5b82525081516020918201928201910280838360005b83811015610fa6578181015183820152602001610f8e565b5050505090500160405250505060015b610fc4576000915050611008565b601e63ffffffff1682600081518110610fd957fe5b602002602001015183600181518110610fee57fe5b60200260200101510360060b8161100157fe5b0593505050505b91905056fe4f776e61626c653a206e6577206f776e657220697320746865207a65726f2061646472657373a2646970667358221220182dc26dd7c0400d96c36f38751efe84ffcd0a390baee74e6d734e4bdb79623e64736f6c63430007060033",
  "devdoc": {
    "author": "Babylon Finance Protocol Uses Uniswap V3 to get a price of a token pair",
    "kind": "dev",
    "methods": {
      "getPrice(address,address)": {
        "params": {
          "_tokenIn": "Address of the first token",
          "_tokenOut": "Address of the second token"
        },
        "returns": {
          "price": "               Price of the pair"
        }
      },
      "owner()": {
        "details": "Returns the address of the current owner."
      },
      "renounceOwnership()": {
        "details": "Leaves the contract without owner. It will not be possible to call `onlyOwner` functions anymore. Can only be called by the current owner. NOTE: Renouncing ownership will leave the contract without an owner, thereby removing any functionality that is only available to the owner."
      },
      "transferOwnership(address)": {
        "details": "Transfers ownership of the contract to a new account (`newOwner`). Can only be called by the current owner."
      }
    },
    "title": "PriceOracle",
    "version": 1
  },
  "userdoc": {
    "kind": "user",
    "methods": {
      "getPrice(address,address)": {
        "notice": "Returns the amount out corresponding to the amount in for a given token"
      }
    },
    "version": 1
  },
  "storageLayout": {
    "storage": [
      {
        "astId": 1456,
        "contract": "contracts/PriceOracle.sol:PriceOracle",
        "label": "_owner",
        "offset": 0,
        "slot": "0",
        "type": "t_address"
      }
    ],
    "types": {
      "t_address": {
        "encoding": "inplace",
        "label": "address",
        "numberOfBytes": "20"
      }
    }
  }
}