{
  "address": "0x8307277EB53ACCd261Cc5F615d24afa89b87B978",
  "abi": [
    {
      "inputs": [
        {
          "internalType": "contract ITokenIdentifier",
          "name": "_tokenIdentifier",
          "type": "address"
        },
        {
          "internalType": "contract IBabController",
          "name": "_controller",
          "type": "address"
        }
      ],
      "stateMutability": "nonpayable",
      "type": "constructor"
    },
    {
      "anonymous": false,
      "inputs": [
        {
          "indexed": true,
          "internalType": "address",
          "name": "previousOwner",
          "type": "address"
        },
        {
          "indexed": true,
          "internalType": "address",
          "name": "newOwner",
          "type": "address"
        }
      ],
      "name": "OwnershipTransferred",
      "type": "event"
    },
    {
      "inputs": [],
      "name": "controller",
      "outputs": [
        {
          "internalType": "contract IBabController",
          "name": "",
          "type": "address"
        }
      ],
      "stateMutability": "view",
      "type": "function"
    },
    {
      "inputs": [],
      "name": "convexRegistry",
      "outputs": [
        {
          "internalType": "contract IConvexRegistry",
          "name": "",
          "type": "address"
        }
      ],
      "stateMutability": "view",
      "type": "function"
    },
    {
      "inputs": [],
      "name": "curveMetaRegistry",
      "outputs": [
        {
          "internalType": "contract ICurveMetaRegistry",
          "name": "",
          "type": "address"
        }
      ],
      "stateMutability": "view",
      "type": "function"
    },
    {
      "inputs": [
        {
          "internalType": "address",
          "name": "_asset",
          "type": "address"
        },
        {
          "internalType": "address",
          "name": "_underlying",
          "type": "address"
        }
      ],
      "name": "getCompoundExchangeRate",
      "outputs": [
        {
          "internalType": "uint256",
          "name": "",
          "type": "uint256"
        }
      ],
      "stateMutability": "view",
      "type": "function"
    },
    {
      "inputs": [
        {
          "internalType": "address",
          "name": "_asset",
          "type": "address"
        },
        {
          "internalType": "address",
          "name": "_underlying",
          "type": "address"
        }
      ],
      "name": "getCreamExchangeRate",
      "outputs": [
        {
          "internalType": "uint256",
          "name": "",
          "type": "uint256"
        }
      ],
      "stateMutability": "view",
      "type": "function"
    },
    {
      "inputs": [
        {
          "internalType": "address",
          "name": "_tokenIn",
          "type": "address"
        },
        {
          "internalType": "address",
          "name": "_tokenOut",
          "type": "address"
        }
      ],
      "name": "getPrice",
      "outputs": [
        {
          "internalType": "uint256",
          "name": "price",
          "type": "uint256"
        }
      ],
      "stateMutability": "view",
      "type": "function"
    },
    {
      "inputs": [
        {
          "internalType": "address",
          "name": "_tokenIn",
          "type": "address"
        },
        {
          "internalType": "address",
          "name": "_tokenOut",
          "type": "address"
        }
      ],
      "name": "getPriceNAV",
      "outputs": [
        {
          "internalType": "uint256",
          "name": "price",
          "type": "uint256"
        }
      ],
      "stateMutability": "view",
      "type": "function"
    },
    {
      "inputs": [
        {
          "internalType": "address",
          "name": "",
          "type": "address"
        }
      ],
      "name": "hopTokens",
      "outputs": [
        {
          "internalType": "bool",
          "name": "",
          "type": "bool"
        }
      ],
      "stateMutability": "view",
      "type": "function"
    },
    {
      "inputs": [
        {
          "internalType": "uint256",
          "name": "",
          "type": "uint256"
        }
      ],
      "name": "hopTokensList",
      "outputs": [
        {
          "internalType": "address",
          "name": "",
          "type": "address"
        }
      ],
      "stateMutability": "view",
      "type": "function"
    },
    {
      "inputs": [],
      "name": "owner",
      "outputs": [
        {
          "internalType": "address",
          "name": "",
          "type": "address"
        }
      ],
      "stateMutability": "view",
      "type": "function"
    },
    {
      "inputs": [],
      "name": "pickleRegistry",
      "outputs": [
        {
          "internalType": "contract IPickleJarRegistry",
          "name": "",
          "type": "address"
        }
      ],
      "stateMutability": "view",
      "type": "function"
    },
    {
      "inputs": [],
      "name": "renounceOwnership",
      "outputs": [],
      "stateMutability": "nonpayable",
      "type": "function"
    },
    {
      "inputs": [],
      "name": "tokenIdentifier",
      "outputs": [
        {
          "internalType": "contract ITokenIdentifier",
          "name": "",
          "type": "address"
        }
      ],
      "stateMutability": "view",
      "type": "function"
    },
    {
      "inputs": [
        {
          "internalType": "address",
          "name": "newOwner",
          "type": "address"
        }
      ],
      "name": "transferOwnership",
      "outputs": [],
      "stateMutability": "nonpayable",
      "type": "function"
    },
    {
      "inputs": [
        {
          "internalType": "int24",
          "name": "_maxTwapDeviation",
          "type": "int24"
        }
      ],
      "name": "updateMaxTwapDeviation",
      "outputs": [],
      "stateMutability": "nonpayable",
      "type": "function"
    },
    {
      "inputs": [
        {
          "internalType": "address[]",
          "name": "list",
          "type": "address[]"
        }
      ],
      "name": "updateReserves",
      "outputs": [],
      "stateMutability": "nonpayable",
      "type": "function"
    },
    {
      "inputs": [
        {
          "internalType": "contract ITokenIdentifier",
          "name": "_tokenIdentifier",
          "type": "address"
        }
      ],
      "name": "updateTokenIdentifier",
      "outputs": [],
      "stateMutability": "nonpayable",
      "type": "function"
    }
  ],
  "transactionHash": "0xb6903241cbfa5a6fd424a7b83df16abf8141fffa7828e9d842cf64b47e462d14",
  "args": [
    "0x499456FEB221C086350ffe71Aa19d03EA1dF3c54",
    "0xD4a5b5fcB561dAF3aDF86F8477555B92FBa43b5F"
  ],
  "numDeployments": 10,
  "solcInputHash": "b449cb5aec67dc49b858dceef0213a91",
  "bytecode": "0x6101006040523480156200001257600080fd5b506040516200569438038062005694833981810160405260408110156200003857600080fd5b50805160209091015160006200004d620002c4565b600080546001600160a01b0319166001600160a01b0383169081178255604051929350917f8be0079c531659141344cd1fd0a4f28419497f9722a3daafe3b4186f6b6457e0908290a350600180546001600160a01b0384166001600160a01b031990911681179091556001600160601b0319606083901b166080526004805462ffffff19166106401781556040805163f4afedd160e01b8152905163f4afedd192828101926020929190829003018186803b1580156200010c57600080fd5b505afa15801562000121573d6000803e3d6000fd5b505050506040513d60208110156200013857600080fd5b505160601b6001600160601b03191660a05260408051635826694b60e01b815290516001600160a01b03841691635826694b916004808301926020929190829003018186803b1580156200018b57600080fd5b505afa158015620001a0573d6000803e3d6000fd5b505050506040513d6020811015620001b757600080fd5b505160601b6001600160601b03191660c05260408051632c2983ad60e11b815290516001600160a01b03841691635853075a916004808301926020929190829003018186803b1580156200020a57600080fd5b505afa1580156200021f573d6000803e3d6000fd5b505050506040513d60208110156200023657600080fd5b505160601b6001600160601b03191660e052620002bc620002b673c02aaa39b223fe8d0a0e5c4f27ead9083c756cc2736b175474e89094c44da98b954eedeac495271d0f73a0b86991c6218b36c1d19d4a2e9eb0ce3606eb48732260fac5e5542a773aa44fbcfedf7c193bc2c599620002c8602090811b62000ae117901c565b620003ad565b505062000511565b3390565b60408051600480825260a0820190925260609160009190602082016080803683370190505090508581600081518110620002fe57fe5b60200260200101906001600160a01b031690816001600160a01b03168152505084816001815181106200032d57fe5b60200260200101906001600160a01b031690816001600160a01b03168152505083816002815181106200035c57fe5b60200260200101906001600160a01b031690816001600160a01b03168152505082816003815181106200038b57fe5b6001600160a01b03909216602092830291909101909101529050949350505050565b60005b6003548110156200040c5760006002600060038481548110620003cf57fe5b6000918252602080832091909101546001600160a01b031683528201929092526040019020805460ff1916911515919091179055600101620003b0565b506200041b60036000620004d3565b60005b8151811015620004cf576001600260008484815181106200043b57fe5b60200260200101516001600160a01b03166001600160a01b0316815260200190815260200160002060006101000a81548160ff02191690831515021790555060038282815181106200048957fe5b60209081029190910181015182546001808201855560009485529290932090920180546001600160a01b0319166001600160a01b0390931692909217909155016200041e565b5050565b5080546000825590600052602060002090810190620004f39190620004f6565b50565b5b808211156200050d5760008155600101620004f7565b5090565b60805160601c60a05160601c60c05160601c60e05160601c6150e7620005ad600039806107ea5280611c555280611d0452806126ba52806127fb5250806104885280611d805280611dfd525080610a8d5280611353528061141752806114d4528061158e52806124975280612efa52806132f452806133f852806135595250806103ab528061087352806109315280610ab152506150e76000f3fe608060405234801561001057600080fd5b506004361061011b5760003560e01c80639e2bf32a116100b2578063d636811311610081578063f4afedd111610066578063f4afedd114610368578063f77c479114610370578063f8da2c95146103785761011b565b8063d63681131461029f578063f2fde38b146103425761011b565b80639e2bf32a1461022c578063ac41865a14610234578063c42cb29214610262578063caa8a965146102825761011b565b8063715018a6116100ee578063715018a6146101ae57806371f14a0b146101b6578063891d0249146101f65780638da5cb5b146102245761011b565b806312e9cb051461012057806316b2b88814610148578063564e9bb61461016c5780635826694b146101a6575b600080fd5b6101466004803603602081101561013657600080fd5b50356001600160a01b03166103a6565b005b610150610462565b604080516001600160a01b039092168252519081900360200190f35b6101926004803603602081101561018257600080fd5b50356001600160a01b0316610471565b604080519115158252519081900360200190f35b610150610486565b6101466104aa565b6101e4600480360360408110156101cc57600080fd5b506001600160a01b0381358116916020013516610575565b60408051918252519081900360200190f35b6101e46004803603604081101561020c57600080fd5b506001600160a01b038135811691602001351661075c565b6101506107d9565b6101506107e8565b6101e46004803603604081101561024a57600080fd5b506001600160a01b038135811691602001351661080c565b6101466004803603602081101561027857600080fd5b503560020b61086e565b6101506004803603602081101561029857600080fd5b5035610902565b610146600480360360208110156102b557600080fd5b8101906020810181356401000000008111156102d057600080fd5b8201836020820111156102e257600080fd5b8035906020019184602083028401116401000000008311171561030457600080fd5b91908080602002602001604051908101604052809392919081815260200183836020028082843760009201919091525092955061092c945050505050565b6101466004803603602081101561035857600080fd5b50356001600160a01b031661096a565b610150610a8b565b610150610aaf565b6101e46004803603604081101561038e57600080fd5b506001600160a01b0381358116916020013516610ad3565b6103d87f00000000000000000000000000000000000000000000000000000000000000006001600160a01b0316610bc2565b6001600160a01b038116610433576040805162461bcd60e51b815260206004820152601660248201527f41646472657373206e6565647320746f20657869737400000000000000000000604482015290519081900360640190fd5b6001805473ffffffffffffffffffffffffffffffffffffffff19166001600160a01b0392909216919091179055565b6001546001600160a01b031681565b60026020526000908152604090205460ff1681565b7f000000000000000000000000000000000000000000000000000000000000000081565b6104b2610ce4565b6001600160a01b03166104c36107d9565b6001600160a01b03161461051e576040805162461bcd60e51b815260206004820181905260248201527f4f776e61626c653a2063616c6c6572206973206e6f7420746865206f776e6572604482015290519081900360640190fd5b600080546040516001600160a01b03909116907f8be0079c531659141344cd1fd0a4f28419497f9722a3daafe3b4186f6b6457e0908390a36000805473ffffffffffffffffffffffffffffffffffffffff19169055565b600080836001600160a01b031663182df0f56040518163ffffffff1660e01b815260040160206040518083038186803b1580156105b157600080fd5b505afa1580156105c5573d6000803e3d6000fd5b505050506040513d60208110156105db57600080fd5b50516040805163313ce56760e01b815290519192506008916001600160a01b0386169163313ce567916004808301926020929190829003018186803b15801561062357600080fd5b505afa158015610637573d6000803e3d6000fd5b505050506040513d602081101561064d57600080fd5b505160ff1611156106d8576106d16008846001600160a01b031663313ce5676040518163ffffffff1660e01b815260040160206040518083038186803b15801561069657600080fd5b505afa1580156106aa573d6000803e3d6000fd5b505050506040513d60208110156106c057600080fd5b5051839160ff910316600a0a610ce8565b9050610753565b610750836001600160a01b031663313ce5676040518163ffffffff1660e01b815260040160206040518083038186803b15801561071457600080fd5b505afa158015610728573d6000803e3d6000fd5b505050506040513d602081101561073e57600080fd5b5051829060080360ff16600a0a610d4f565b90505b90505b92915050565b600080836001600160a01b031663182df0f56040518163ffffffff1660e01b815260040160206040518083038186803b15801561079857600080fd5b505afa1580156107ac573d6000803e3d6000fd5b505050506040513d60208110156107c257600080fd5b505190506107d1838583610d73565b949350505050565b6000546001600160a01b031690565b7f000000000000000000000000000000000000000000000000000000000000000081565b600061081a83836000610ded565b905080610756576040805162461bcd60e51b815260206004820152600f60248201527f5072696365206e6f7420666f756e640000000000000000000000000000000000604482015290519081900360640190fd5b6108a07f00000000000000000000000000000000000000000000000000000000000000006001600160a01b0316610bc2565b6105dc8160020b126108e35760405162461bcd60e51b81526004018080602001828103825260278152602001806150616027913960400191505060405180910390fd5b6004805460029290920b62ffffff1662ffffff19909216919091179055565b6003818154811061091257600080fd5b6000918252602090912001546001600160a01b0316905081565b61095e7f00000000000000000000000000000000000000000000000000000000000000006001600160a01b0316610bc2565b61096781612202565b50565b610972610ce4565b6001600160a01b03166109836107d9565b6001600160a01b0316146109de576040805162461bcd60e51b815260206004820181905260248201527f4f776e61626c653a2063616c6c6572206973206e6f7420746865206f776e6572604482015290519081900360640190fd5b6001600160a01b038116610a235760405162461bcd60e51b815260040180806020018281038252602681526020018061503b6026913960400191505060405180910390fd5b600080546040516001600160a01b03808516939216917f8be0079c531659141344cd1fd0a4f28419497f9722a3daafe3b4186f6b6457e091a36000805473ffffffffffffffffffffffffffffffffffffffff19166001600160a01b0392909216919091179055565b7f000000000000000000000000000000000000000000000000000000000000000081565b7f000000000000000000000000000000000000000000000000000000000000000081565b600061081a83836001610ded565b60408051600480825260a0820190925260609160009190602082016080803683370190505090508581600081518110610b1657fe5b60200260200101906001600160a01b031690816001600160a01b0316815250508481600181518110610b4457fe5b60200260200101906001600160a01b031690816001600160a01b0316815250508381600281518110610b7257fe5b60200260200101906001600160a01b031690816001600160a01b0316815250508281600381518110610ba057fe5b6001600160a01b03909216602092830291909101909101529050949350505050565b806001600160a01b0316638da5cb5b6040518163ffffffff1660e01b815260040160206040518083038186803b158015610bfb57600080fd5b505afa158015610c0f573d6000803e3d6000fd5b505050506040513d6020811015610c2557600080fd5b50516001600160a01b0316331480610ca95750806001600160a01b0316638d97e0436040518163ffffffff1660e01b815260040160206040518083038186803b158015610c7157600080fd5b505afa158015610c85573d6000803e3d6000fd5b505050506040513d6020811015610c9b57600080fd5b50516001600160a01b031633145b6109675760405162461bcd60e51b815260040180806020018281038252602a815260200180615088602a913960400191505060405180910390fd5b3390565b6000808211610d3e576040805162461bcd60e51b815260206004820152601a60248201527f536166654d6174683a206469766973696f6e206279207a65726f000000000000604482015290519081900360640190fd5b818381610d4757fe5b049392505050565b6000821580610d6a57505081810281838281610d6757fe5b04145b61075657600080fd5b600080610d88856001600160a01b031661232c565b90506000610d9e856001600160a01b031661232c565b905080821415610db2578392505050610de6565b81811115610dd257610dc984838303600a0a610d4f565b92505050610de6565b610de184828403600a0a610ce8565b925050505b9392505050565b6000826001600160a01b0316846001600160a01b03161415610e185750670de0b6b3a7640000610de6565b6001600160a01b03841615610e2d5783610e43565b73c02aaa39b223fe8d0a0e5c4f27ead9083c756cc25b93506001600160a01b03831615610e5a5782610e70565b73c02aaa39b223fe8d0a0e5c4f27ead9083c756cc25b600154604080517f3149ea1a0000000000000000000000000000000000000000000000000000000081526001600160a01b03888116600483015280851660248301529151939650600093849384938493911691633149ea1a91604480820192608092909190829003018186803b158015610ee957600080fd5b505afa158015610efd573d6000803e3d6000fd5b505050506040513d6080811015610f1357600080fd5b50805160208201516040830151606090930151919650945090925090506000600160ff86161415610f6a57610f48898461075c565b9050610f5e81610f58858b61080c565b9061245c565b95505050505050610de6565b8360ff1660011415610f9657610f80888361075c565b9050610f5e81610f908b8561080c565b9061247a565b8460ff1660021415610fac57610f5e838961080c565b8360ff1660021415610fc257610f5e898361080c565b8460ff1660031415610fd857610f488984610575565b8360ff1660031415610fee57610f808883610575565b8460ff166004141561119f576000896001600160a01b031663d4b839926040518163ffffffff1660e01b815260040160206040518083038186803b15801561103557600080fd5b505afa158015611049573d6000803e3d6000fd5b505050506040513d602081101561105f57600080fd5b50516040805163dbd06c8560e01b8152905191925073d69b189020ef614796578afe4d10378c5e7e11389163ac82f608916001600160a01b0385169163dbd06c8591600480820192602092909190829003018186803b1580156110c157600080fd5b505afa1580156110d5573d6000803e3d6000fd5b505050506040513d60208110156110eb57600080fd5b5051604080517fffffffff0000000000000000000000000000000000000000000000000000000060e085901b1681526004810192909252516024808301926020929190829003018186803b15801561114257600080fd5b505afa158015611156573d6000803e3d6000fd5b505050506040513d602081101561116c57600080fd5b5051915061119282610f5873a0b86991c6218b36c1d19d4a2e9eb0ce3606eb488c61080c565b9650505050505050610de6565b8360ff1660041415611343576000886001600160a01b031663d4b839926040518163ffffffff1660e01b815260040160206040518083038186803b1580156111e657600080fd5b505afa1580156111fa573d6000803e3d6000fd5b505050506040513d602081101561121057600080fd5b50516040805163dbd06c8560e01b8152905191925073d69b189020ef614796578afe4d10378c5e7e11389163ac82f608916001600160a01b0385169163dbd06c8591600480820192602092909190829003018186803b15801561127257600080fd5b505afa158015611286573d6000803e3d6000fd5b505050506040513d602081101561129c57600080fd5b5051604080517fffffffff0000000000000000000000000000000000000000000000000000000060e085901b1681526004810192909252516024808301926020929190829003018186803b1580156112f357600080fd5b505afa158015611307573d6000803e3d6000fd5b505050506040513d602081101561131d57600080fd5b5051915061119282610f908c73a0b86991c6218b36c1d19d4a2e9eb0ce3606eb4861080c565b8460ff16600514156114c45760007f00000000000000000000000000000000000000000000000000000000000000006001600160a01b03166324a592338b6040518263ffffffff1660e01b815260040180826001600160a01b0316815260200191505060206040518083038186803b1580156113be57600080fd5b505afa1580156113d2573d6000803e3d6000fd5b505050506040513d60208110156113e857600080fd5b505190506001600160a01b038116156114c257600061140682612492565b90506114b4611415828c61080c565b7f00000000000000000000000000000000000000000000000000000000000000006001600160a01b031663e39e26828e6040518263ffffffff1660e01b815260040180826001600160a01b0316815260200191505060206040518083038186803b15801561148257600080fd5b505afa158015611496573d6000803e3d6000fd5b505050506040513d60208110156114ac57600080fd5b50519061245c565b975050505050505050610de6565b505b8360ff16600514156116315760007f00000000000000000000000000000000000000000000000000000000000000006001600160a01b03166324a592338a6040518263ffffffff1660e01b815260040180826001600160a01b0316815260200191505060206040518083038186803b15801561153f57600080fd5b505afa158015611553573d6000803e3d6000fd5b505050506040513d602081101561156957600080fd5b505190506001600160a01b0381161561162f57600061158782612492565b90506114b47f00000000000000000000000000000000000000000000000000000000000000006001600160a01b031663e39e26828c6040518263ffffffff1660e01b815260040180826001600160a01b0316815260200191505060206040518083038186803b1580156115f957600080fd5b505afa15801561160d573d6000803e3d6000fd5b505050506040513d602081101561162357600080fd5b5051610f908d8461080c565b505b8460ff166006141561177a576116e76116ae8a6001600160a01b031663fc0c546a6040518163ffffffff1660e01b815260040160206040518083038186803b15801561167c57600080fd5b505afa158015611690573d6000803e3d6000fd5b505050506040513d60208110156116a657600080fd5b50518a61080c565b8a6001600160a01b03166399530b066040518163ffffffff1660e01b815260040160206040518083038186803b15801561148257600080fd5b95506000896001600160a01b031663313ce5676040518163ffffffff1660e01b815260040160206040518083038186803b15801561172457600080fd5b505afa158015611738573d6000803e3d6000fd5b505050506040513d602081101561174e57600080fd5b505160ff169050601281101561176f57611192876012839003600a0a610d4f565b505050505050610de6565b8360ff1660061415611917576000886001600160a01b031663fc0c546a6040518163ffffffff1660e01b815260040160206040518083038186803b1580156117c157600080fd5b505afa1580156117d5573d6000803e3d6000fd5b505050506040513d60208110156117eb57600080fd5b5051604080517f99530b060000000000000000000000000000000000000000000000000000000081529051919250611883916001600160a01b038c16916399530b06916004808301926020929190829003018186803b15801561184d57600080fd5b505afa158015611861573d6000803e3d6000fd5b505050506040513d602081101561187757600080fd5b5051610f908c8461080c565b96506000896001600160a01b031663313ce5676040518163ffffffff1660e01b815260040160206040518083038186803b1580156118c057600080fd5b505afa1580156118d4573d6000803e3d6000fd5b505050506040513d60208110156118ea57600080fd5b505160ff169050601281101561190b576114b4886012839003600a0a610ce8565b50505050505050610de6565b8460ff16600d148061192c57508460ff16600e145b15611a6e576000896001600160a01b031663ec1ebd7a6040518163ffffffff1660e01b815260040160206040518083038186803b15801561196c57600080fd5b505afa158015611980573d6000803e3d6000fd5b505050506040513d602081101561199657600080fd5b50519050600e60ff871614156119f6576119ef6119c773c02aaa39b223fe8d0a0e5c4f27ead9083c756cc28b61080c565b610f586119e88d73c02aaa39b223fe8d0a0e5c4f27ead9083c756cc261263c565b849061245c565b965061176f565b611192611a678b6001600160a01b031663fc0c546a6040518163ffffffff1660e01b815260040160206040518083038186803b158015611a3557600080fd5b505afa158015611a49573d6000803e3d6000fd5b505050506040513d6020811015611a5f57600080fd5b50518b61080c565b829061245c565b8360ff16600d1480611a8357508360ff16600e145b15611c44578360ff16600e1415611b4257611b3b886001600160a01b031663ec1ebd7a6040518163ffffffff1660e01b815260040160206040518083038186803b158015611ad057600080fd5b505afa158015611ae4573d6000803e3d6000fd5b505050506040513d6020811015611afa57600080fd5b5051610f90611b1d8b73c02aaa39b223fe8d0a0e5c4f27ead9083c756cc261263c565b610f908d73c02aaa39b223fe8d0a0e5c4f27ead9083c756cc261080c565b9550611c3a565b610f5e886001600160a01b031663ec1ebd7a6040518163ffffffff1660e01b815260040160206040518083038186803b158015611b7e57600080fd5b505afa158015611b92573d6000803e3d6000fd5b505050506040513d6020811015611ba857600080fd5b5051604080517ffc0c546a0000000000000000000000000000000000000000000000000000000081529051610f90918d916001600160a01b038e169163fc0c546a916004808301926020929190829003018186803b158015611c0957600080fd5b505afa158015611c1d573d6000803e3d6000fd5b505050506040513d6020811015611c3357600080fd5b505161080c565b5050505050610de6565b8460ff16600f1415611cf257610f5e7f00000000000000000000000000000000000000000000000000000000000000006001600160a01b031663edce08068b6040518263ffffffff1660e01b815260040180826001600160a01b0316815260200191505060206040518083038186803b158015611cc057600080fd5b505afa158015611cd4573d6000803e3d6000fd5b505050506040513d6020811015611cea57600080fd5b50518961080c565b8360ff16600f1415611d6f57610f5e897f00000000000000000000000000000000000000000000000000000000000000006001600160a01b031663edce08068b6040518263ffffffff1660e01b815260040180826001600160a01b0316815260200191505060206040518083038186803b158015611c0957600080fd5b8460ff1660101415611deb57610f5e7f00000000000000000000000000000000000000000000000000000000000000006001600160a01b031663c38c1d9d8b6040518263ffffffff1660e01b815260040180826001600160a01b0316815260200191505060206040518083038186803b158015611cc057600080fd5b8360ff1660101415611e6857610f5e897f00000000000000000000000000000000000000000000000000000000000000006001600160a01b031663c38c1d9d8b6040518263ffffffff1660e01b815260040180826001600160a01b0316815260200191505060206040518083038186803b158015611c0957600080fd5b8460ff1660081480611e7d57508460ff166009145b80611e8b57508460ff16600a145b15611ecf57610f5e611eb173c02aaa39b223fe8d0a0e5c4f27ead9083c756cc28a61080c565b610f588b73c02aaa39b223fe8d0a0e5c4f27ead9083c756cc2612a3a565b8360ff1660081480611ee457508360ff166009145b80611ef257508460ff16600a145b15611f3657610f5e611f188973c02aaa39b223fe8d0a0e5c4f27ead9083c756cc2612a3a565b610f908b73c02aaa39b223fe8d0a0e5c4f27ead9083c756cc261080c565b8460ff16600c1415611f8157610f5e611f6373c02aaa39b223fe8d0a0e5c4f27ead9083c756cc28a61080c565b610f588b73c02aaa39b223fe8d0a0e5c4f27ead9083c756cc2612dab565b8360ff16600c1415611fae57610f5e611f188973c02aaa39b223fe8d0a0e5c4f27ead9083c756cc2612dab565b6001600160a01b0389167324e79e946dea5482212c38aab2d0782f04cdb0e0141561204757600061201c7348536ec5233297c367fd0b6979b75d9270bb6b157324e79e946dea5482212c38aab2d0782f04cdb0e0737fc66500c84a76ad7e9c93437bfc5ac33e2ddae9612ef2565b9050801561204557611192611a67737fc66500c84a76ad7e9c93437bfc5ac33e2ddae98b6131b7565b505b6001600160a01b0388167324e79e946dea5482212c38aab2d0782f04cdb0e014156120e05760006120b57348536ec5233297c367fd0b6979b75d9270bb6b15737fc66500c84a76ad7e9c93437bfc5ac33e2ddae97324e79e946dea5482212c38aab2d0782f04cdb0e0612ef2565b905080156120de57611192611a678b737fc66500c84a76ad7e9c93437bfc5ac33e2ddae96131b7565b505b6120ea89896132ef565b955085156120fc575050505050610de6565b61210689896131b7565b95508515612118575050505050610de6565b60005b6003548110156121e25760006003828154811061213457fe5b6000918252602090912001546001600160a01b0390811691508b1681148015906121705750806001600160a01b03168a6001600160a01b031614155b156121d95760006121818c836132ef565b905080156121a557612196611a67838d6131b7565b98505050505050505050610de6565b60006121b1838d6132ef565b905080156121d6576121c6611a678e856131b7565b9950505050505050505050610de6565b50505b5060010161211b565b5086156121f6576121f389896135ff565b95505b50505050509392505050565b60005b60035481101561225e576000600260006003848154811061222257fe5b6000918252602080832091909101546001600160a01b031683528201929092526040019020805460ff1916911515919091179055600101612205565b5061226b60036000615008565b60005b81518110156123285760016002600084848151811061228957fe5b60200260200101516001600160a01b03166001600160a01b0316815260200190815260200160002060006101000a81548160ff02191690831515021790555060038282815181106122d657fe5b602090810291909101810151825460018082018555600094855292909320909201805473ffffffffffffffffffffffffffffffffffffffff19166001600160a01b03909316929092179091550161226e565b5050565b600061233782613887565b1561234457506012612457565b60408051600481526024810182526020810180517bffffffffffffffffffffffffffffffffffffffffffffffffffffffff1663313ce56760e01b1781529151815160009384936001600160a01b0388169361138893919290918291908083835b602083106123c35780518252601f1990920191602091820191016123a4565b6001836020036101000a0380198251168184511680821785525050505050509050019150506000604051808303818686fa925050503d8060008114612424576040519150601f19603f3d011682016040523d82523d6000602084013e612429565b606091505b50915091508161243a576012612452565b80806020019051602081101561244f57600080fd5b50515b925050505b919050565b6000610753670de0b6b3a76400006124748585610d4f565b90610ce8565b60006107538261247485670de0b6b3a7640000610d4f565b6000807f00000000000000000000000000000000000000000000000000000000000000006001600160a01b031663a07952a48460016040518363ffffffff1660e01b815260040180836001600160a01b031681526020018215158152602001925050506101006040518083038186803b15801561250e57600080fd5b505afa158015612522573d6000803e3d6000fd5b505050506040513d601f19601f8201168201806040525061010081101561254857600080fd5b5080519091506001600160a01b0316156125ad5780516001600160a01b031673eeeeeeeeeeeeeeeeeeeeeeeeeeeeeeeeeeeeeeee1461258f578060005b60200201516125a5565b73c02aaa39b223fe8d0a0e5c4f27ead9083c756cc25b915050612457565b60208101516001600160a01b0316156125f05760208101516001600160a01b031673eeeeeeeeeeeeeeeeeeeeeeeeeeeeeeeeeeeeeeee1461258f57806001612585565b60408101516001600160a01b0316156126335760408101516001600160a01b031673eeeeeeeeeeeeeeeeeeeeeeeeeeeeeeeeeeeeeeee1461258f57806002612585565b50600092915050565b600080836001600160a01b03166315770f926040518163ffffffff1660e01b815260040160206040518083038186803b15801561267857600080fd5b505afa15801561268c573d6000803e3d6000fd5b505050506040513d60208110156126a257600080fd5b50519050806126b5576000915050610756565b6000807f00000000000000000000000000000000000000000000000000000000000000006001600160a01b031663690f7390876040518263ffffffff1660e01b815260040180826001600160a01b0316815260200191505060206040518083038186803b15801561272557600080fd5b505afa158015612739573d6000803e3d6000fd5b505050506040513d602081101561274f57600080fd5b5051156127f757604080517f38d221aa0000000000000000000000000000000000000000000000000000000081526001600160801b038516600482015281516001600160a01b038916926338d221aa9260248082019391829003018186803b1580156127ba57600080fd5b505afa1580156127ce573d6000803e3d6000fd5b505050506040513d60408110156127e457600080fd5b50805160209091015190925090506129bf565b60007f00000000000000000000000000000000000000000000000000000000000000006001600160a01b031663499bcb17886040518263ffffffff1660e01b815260040180826001600160a01b0316815260200191505060206040518083038186803b15801561286657600080fd5b505afa15801561287a573d6000803e3d6000fd5b505050506040513d602081101561289057600080fd5b5051604080517f17d70f7c00000000000000000000000000000000000000000000000000000000815290516001600160a01b03909216916317d70f7c91600480820192602092909190829003018186803b1580156128ed57600080fd5b505afa158015612901573d6000803e3d6000fd5b505050506040513d602081101561291757600080fd5b5051604080517f6cff91f90000000000000000000000000000000000000000000000000000000081526004810183905281519293507325c81e249f913c94f263923421622ba731e6555b92636cff91f992602480840193919291829003018186803b15801561298557600080fd5b505afa158015612999573d6000803e3d6000fd5b505050506040513d60408110156129af57600080fd5b5080516020909101519093509150505b612a30866001600160a01b03166316f0115b6040518163ffffffff1660e01b815260040160206040518083038186803b1580156129fb57600080fd5b505afa158015612a0f573d6000803e3d6000fd5b505050506040513d6020811015612a2557600080fd5b5051868585856138a8565b9695505050505050565b60408051600280825260608201835260009283929190602083019080368337019050509050836001600160a01b0316630dfe16816040518163ffffffff1660e01b815260040160206040518083038186803b158015612a9857600080fd5b505afa158015612aac573d6000803e3d6000fd5b505050506040513d6020811015612ac257600080fd5b505181518290600090612ad157fe5b60200260200101906001600160a01b031690816001600160a01b031681525050836001600160a01b031663d21220a76040518163ffffffff1660e01b815260040160206040518083038186803b158015612b2a57600080fd5b505afa158015612b3e573d6000803e3d6000fd5b505050506040513d6020811015612b5457600080fd5b5051815182906001908110612b6557fe5b6001600160a01b0390921660209283029190910190910152836000805b8351811015612da1576000612ba9858381518110612b9c57fe5b6020026020010151613a9f565b612bc657848281518110612bb957fe5b6020026020010151612bdc565b73c02aaa39b223fe8d0a0e5c4f27ead9083c756cc25b90506000612bea888361080c565b90506000612bfd878581518110612b9c57fe5b15612c1257896001600160a01b031631612c9f565b868481518110612c1e57fe5b60200260200101516001600160a01b03166370a082318b6040518263ffffffff1660e01b815260040180826001600160a01b0316815260200191505060206040518083038186803b158015612c7257600080fd5b505afa158015612c86573d6000803e3d6000fd5b505050506040513d6020811015612c9c57600080fd5b50515b905073c02aaa39b223fe8d0a0e5c4f27ead9083c756cc26001600160a01b0316878581518110612ccb57fe5b60200260200101516001600160a01b0316148015612ce7575080155b15612cf957506001600160a01b038916315b8115801590612d0757508015155b15612d9657612d93612d8c848b612d8786610f908c6001600160a01b03166318160ddd6040518163ffffffff1660e01b815260040160206040518083038186803b158015612d5457600080fd5b505afa158015612d68573d6000803e3d6000fd5b505050506040513d6020811015612d7e57600080fd5b5051889061247a565b610d73565b8690613ad5565b94505b505050600101612b82565b5095945050505050565b600080836001600160a01b03166318160ddd6040518163ffffffff1660e01b815260040160206040518083038186803b158015612de757600080fd5b505afa158015612dfb573d6000803e3d6000fd5b505050506040513d6020811015612e1157600080fd5b5051905080612e24576000915050610756565b600080856001600160a01b031663c4a7761e6040518163ffffffff1660e01b8152600401604080518083038186803b158015612e5f57600080fd5b505afa158015612e73573d6000803e3d6000fd5b505050506040513d6040811015612e8957600080fd5b508051602091820151604080517f16f0115b0000000000000000000000000000000000000000000000000000000081529051929550909350612a30926001600160a01b038a16926316f0115b926004808201939291829003018186803b1580156129fb57600080fd5b6000806000807f00000000000000000000000000000000000000000000000000000000000000006001600160a01b03166329a0eb858888886040518463ffffffff1660e01b815260040180846001600160a01b03168152602001836001600160a01b03168152602001826001600160a01b03168152602001935050505060606040518083038186803b158015612f8757600080fd5b505afa158015612f9b573d6000803e3d6000fd5b505050506040513d6060811015612fb157600080fd5b508051602082015160409092015190945090925090506000806001600160a01b03881673eeeeeeeeeeeeeeeeeeeeeeeeeeeeeeeeeeeeeeee1461305857876001600160a01b031663313ce5676040518163ffffffff1660e01b815260040160206040518083038186803b15801561302757600080fd5b505afa15801561303b573d6000803e3d6000fd5b505050506040513d602081101561305157600080fd5b505161305b565b60125b60ff16600a0a90508385141561307957600095505050505050610de6565b82156130925761308b89868684613ae5565b91506130a1565b61309e89868684613cd5565b91505b61314d6001600160a01b03881673eeeeeeeeeeeeeeeeeeeeeeeeeeeeeeeeeeeeeeee1461313257876001600160a01b031663313ce5676040518163ffffffff1660e01b815260040160206040518083038186803b15801561310157600080fd5b505afa158015613115573d6000803e3d6000fd5b505050506040513d602081101561312b57600080fd5b5051613135565b60125b60120360ff16600a0a83610d4f90919063ffffffff16565b915060006131628366d529ae9e86000061245c565b9050613176670de0b6b3a764000082613ad5565b831080156131945750613191670de0b6b3a764000082613e23565b83115b156131a757829650505050505050610de6565b5060009998505050505050505050565b6001600160a01b038216600090815260026020526040812054670de0b6b3a7640000908490849060ff16613211576000806131f3886001613e33565b90925090506001600160a01b0382161561320e578193508094505b50505b6001600160a01b03851660009081526002602052604090205460ff166132a85760008061323f876000613e33565b90925090506001600160a01b038216156132a557819250826001600160a01b0316846001600160a01b0316146132865761328361327c8585613f08565b869061245c565b94505b613290858261245c565b945084156132a5578495505050505050610756565b50505b806001600160a01b0316826001600160a01b0316146132d1576132ce6119e88383613f08565b92505b826132e5576132e08686613f08565b612a30565b5090949350505050565b6000807f00000000000000000000000000000000000000000000000000000000000000006001600160a01b031663b35084db858560006040518463ffffffff1660e01b815260040180846001600160a01b03168152602001836001600160a01b03168152602001828152602001935050505060206040518083038186803b15801561337957600080fd5b505afa15801561338d573d6000803e3d6000fd5b505050506040513d60208110156133a357600080fd5b505190506001600160a01b03841673c02aaa39b223fe8d0a0e5c4f27ead9083c756cc21480156133da57506001600160a01b038116155b156134c05773eeeeeeeeeeeeeeeeeeeeeeeeeeeeeeeeeeeeeeee93507f00000000000000000000000000000000000000000000000000000000000000006001600160a01b031663b35084db73eeeeeeeeeeeeeeeeeeeeeeeeeeeeeeeeeeeeeeee8560006040518463ffffffff1660e01b815260040180846001600160a01b03168152602001836001600160a01b03168152602001828152602001935050505060206040518083038186803b15801561349157600080fd5b505afa1580156134a5573d6000803e3d6000fd5b505050506040513d60208110156134bb57600080fd5b505190505b6001600160a01b03831673c02aaa39b223fe8d0a0e5c4f27ead9083c756cc21480156134f357506001600160a01b038116155b156135cf57604080517fb35084db0000000000000000000000000000000000000000000000000000000081526001600160a01b03868116600483015273eeeeeeeeeeeeeeeeeeeeeeeeeeeeeeeeeeeeeeee602483018190526000604484015292519295507f0000000000000000000000000000000000000000000000000000000000000000169163b35084db91606480820192602092909190829003018186803b1580156135a057600080fd5b505afa1580156135b4573d6000803e3d6000fd5b505050506040513d60208110156135ca57600080fd5b505190505b6001600160a01b038116156135f55760006135eb828686612ef2565b9250610756915050565b5060009392505050565b60408051600280825260608201835260009283929190602083019080368337019050509050838160008151811061363257fe5b60200260200101906001600160a01b031690816001600160a01b031681525050828160018151811061366057fe5b60200260200101906001600160a01b031690816001600160a01b031681525050737a250d5630b4cf539739df2c5dacb4c659f2488d6001600160a01b031663d06ca61f856001600160a01b031663313ce5676040518163ffffffff1660e01b815260040160206040518083038186803b1580156136dc57600080fd5b505afa1580156136f0573d6000803e3d6000fd5b505050506040513d602081101561370657600080fd5b5051604080517fffffffff0000000000000000000000000000000000000000000000000000000060e085901b16815260ff8316600482019081526024820192835286516044830152865187939192606401906020858101910280838360005b8381101561377d578181015183820152602001613765565b50505050905001935050505060006040518083038186803b1580156137a157600080fd5b505afa1580156137b5573d6000803e3d6000fd5b505050506040513d6000823e601f3d908101601f1916820160405260208110156137de57600080fd5b81019080805160405193929190846401000000008211156137fe57600080fd5b90830190602082018581111561381357600080fd5b825186602082028301116401000000008211171561383057600080fd5b82525081516020918201928201910280838360005b8381101561385d578181015183820152602001613845565b5050505090500160405250505060018151811061387657fe5b602002602001015191505092915050565b60006001600160a01b03821615806107565750506001600160a01b03161590565b60008061391b876001600160a01b0316630dfe16816040518163ffffffff1660e01b815260040160206040518083038186803b1580156138e757600080fd5b505afa1580156138fb573d6000803e3d6000fd5b505050506040513d602081101561391157600080fd5b5051876000610ded565b9050600061398f886001600160a01b031663d21220a76040518163ffffffff1660e01b815260040160206040518083038186803b15801561395b57600080fd5b505afa15801561396f573d6000803e3d6000fd5b505050506040513d602081101561398557600080fd5b5051886000610ded565b90506000613a0a896001600160a01b0316630dfe16816040518163ffffffff1660e01b815260040160206040518083038186803b1580156139cf57600080fd5b505afa1580156139e3573d6000803e3d6000fd5b505050506040513d60208110156139f957600080fd5b505189612d878a6124748b89610d4f565b90506000613a858a6001600160a01b031663d21220a76040518163ffffffff1660e01b815260040160206040518083038186803b158015613a4a57600080fd5b505afa158015613a5e573d6000803e3d6000fd5b505050506040513d6020811015613a7457600080fd5b50518a612d878b6124748b89610d4f565b9050613a918282613ad5565b9a9950505050505050505050565b600073eeeeeeeeeeeeeeeeeeeeeeeeeeeeeeeeeeeeeeee6001600160a01b03831614806107565750506001600160a01b03161590565b8082018281101561075657600080fd5b6000846001600160a01b03166385f11d1e8585856040518463ffffffff1660e01b815260040180848152602001838152602001828152602001935050505060206040518083038186803b158015613b3b57600080fd5b505afa925050508015613b6057506040513d6020811015613b5b57600080fd5b505160015b613cce57604080517f07211ef7000000000000000000000000000000000000000000000000000000008152600f86810b600483015285900b60248201526044810184905290516001600160a01b038716916307211ef7916064808301926020929190829003018186803b158015613bd657600080fd5b505afa925050508015613bfb57506040513d6020811015613bf657600080fd5b505160015b613cce5760408051635e0d443f60e01b8152600f86810b600483015285900b60248201526044810184905290516001600160a01b03871691635e0d443f916064808301926020929190829003018186803b158015613c5857600080fd5b505afa925050508015613c7d57506040513d6020811015613c7857600080fd5b505160015b613cce576040805162461bcd60e51b815260206004820152601860248201527f67657420647920756e6465726c79696e67206661696c65640000000000000000604482015290519081900360640190fd5b90506107d1565b6000846001600160a01b031663556d6e9f8585856040518463ffffffff1660e01b815260040180848152602001838152602001828152602001935050505060206040518083038186803b158015613d2b57600080fd5b505afa925050508015613d5057506040513d6020811015613d4b57600080fd5b505160015b613cce5760408051635e0d443f60e01b8152600f86810b600483015285900b60248201526044810184905290516001600160a01b03871691635e0d443f916064808301926020929190829003018186803b158015613dad57600080fd5b505afa925050508015613dd257506040513d6020811015613dcd57600080fd5b505160015b613cce576040805162461bcd60e51b815260206004820152600d60248201527f676574206479206661696c656400000000000000000000000000000000000000604482015290519081900360640190fd5b8082038281111561075657600080fd5b60008060008060008060005b600354811015613ecd57600080613e8c8b60038581548110613e5d57fe5b6000918252602090912001546001600160a01b0316736b175474e89094c44da98b954eedeac495271d0f613f64565b9150915083811115613ec35781945080935060038381548110613eab57fe5b6000918252602090912001546001600160a01b031695505b5050600101613e3f565b508015613efa578615613eec57613ee58289856141f9565b9350613efa565b613ef782848a6141f9565b93505b509096919550909350505050565b6000816001600160a01b0316836001600160a01b03161415613f335750670de0b6b3a7640000610756565b6000613f3f8484614386565b90506001600160a01b038116613f59576000915050610756565b6107d18185856141f9565b6000806000613f738686614386565b90506001600160a01b038116613f905760008092509250506141f1565b6000806000836001600160a01b0316630dfe16816040518163ffffffff1660e01b815260040160206040518083038186803b158015613fce57600080fd5b505afa158015613fe2573d6000803e3d6000fd5b505050506040513d6020811015613ff857600080fd5b5051604080517fd21220a700000000000000000000000000000000000000000000000000000000815290519192506000916001600160a01b0387169163d21220a7916004808301926020929190829003018186803b15801561405957600080fd5b505afa15801561406d573d6000803e3d6000fd5b505050506040513d602081101561408357600080fd5b50516001600160a01b03831660009081526002602052604090205490915060ff161561412e57816001600160a01b03166370a08231866040518263ffffffff1660e01b815260040180826001600160a01b0316815260200191505060206040518083038186803b1580156140f657600080fd5b505afa15801561410a573d6000803e3d6000fd5b505050506040513d602081101561412057600080fd5b5051935090915081906141ad565b806001600160a01b03166370a08231866040518263ffffffff1660e01b815260040180826001600160a01b0316815260200191505060206040518083038186803b15801561417b57600080fd5b505afa15801561418f573d6000803e3d6000fd5b505050506040513d60208110156141a557600080fd5b505193509150815b876001600160a01b0316836001600160a01b0316146141e75760006141d2848a613f08565b90506141e3848a612d87888561245c565b9450505b5092945090925050505b935093915050565b6000816001600160a01b0316836001600160a01b031614156142245750670de0b6b3a7640000610de6565b6000846001600160a01b0316633850c7bd6040518163ffffffff1660e01b815260040160e06040518083038186803b15801561425f57600080fd5b505afa158015614273573d6000803e3d6000fd5b505050506040513d60e081101561428957600080fd5b5060200151905061429a8186614773565b6142a8576000915050610de6565b61437d61431e856001600160a01b031663313ce5676040518163ffffffff1660e01b815260040160206040518083038186803b1580156142e757600080fd5b505afa1580156142fb573d6000803e3d6000fd5b505050506040513d602081101561431157600080fd5b505160129060ff16613e23565b600a0a61247483614376614364886001600160a01b031663313ce5676040518163ffffffff1660e01b815260040160206040518083038186803b1580156142e757600080fd5b670de0b6b3a764000090600a0a610d4f565b888861486b565b95945050505050565b60408051630b4c774160e11b81526001600160a01b038481166004830152831660248201526101f4604482015290516000918291731f98431c8ad98523631ae4a59f267346ea31f98491631698ee82916064808301926020929190829003018186803b1580156143f557600080fd5b505afa158015614409573d6000803e3d6000fd5b505050506040513d602081101561441f57600080fd5b505160408051630b4c774160e11b81526001600160a01b03878116600483015286166024820152610bb860448201529051919250600091731f98431c8ad98523631ae4a59f267346ea31f98491631698ee82916064808301926020929190829003018186803b15801561449157600080fd5b505afa1580156144a5573d6000803e3d6000fd5b505050506040513d60208110156144bb57600080fd5b505160408051630b4c774160e11b81526001600160a01b0388811660048301528716602482015261271060448201529051919250600091731f98431c8ad98523631ae4a59f267346ea31f98491631698ee82916064808301926020929190829003018186803b15801561452d57600080fd5b505afa158015614541573d6000803e3d6000fd5b505050506040513d602081101561455757600080fd5b5051905060006001600160a01b0384166145725760006145d8565b836001600160a01b0316631a6865026040518163ffffffff1660e01b815260040160206040518083038186803b1580156145ab57600080fd5b505afa1580156145bf573d6000803e3d6000fd5b505050506040513d60208110156145d557600080fd5b50515b905060006001600160a01b0384166145f1576000614657565b836001600160a01b0316631a6865026040518163ffffffff1660e01b815260040160206040518083038186803b15801561462a57600080fd5b505afa15801561463e573d6000803e3d6000fd5b505050506040513d602081101561465457600080fd5b50515b905060006001600160a01b0384166146705760006146d6565b836001600160a01b0316631a6865026040518163ffffffff1660e01b815260040160206040518083038186803b1580156146a957600080fd5b505afa1580156146bd573d6000803e3d6000fd5b505050506040513d60208110156146d357600080fd5b50515b9050816001600160801b0316836001600160801b03161015801561470c5750806001600160801b0316836001600160801b031610155b1561471f57859650505050505050610756565b826001600160801b0316826001600160801b0316101580156147535750806001600160801b0316826001600160801b031610155b1561476657849650505050505050610756565b5091979650505050505050565b600080826001600160a01b031663d0c93a7c6040518163ffffffff1660e01b815260040160206040518083038186803b1580156147af57600080fd5b505afa1580156147c3573d6000803e3d6000fd5b505050506040513d60208110156147d957600080fd5b50519050620d85ff198101600290810b9085900b12156147fd576000915050610756565b806103e8620d89e719600003030360020b8460020b1315614822576000915050610756565b600061482d84614962565b905060008160060b8660020b13614849578560020b8203614850565b818660020b035b600454600290810b900b60069190910b129695505050505050565b60008061487786614c0b565b90506001600160801b036001600160a01b038216116148e6576001600160a01b03808216800290848116908616106148c6576148c1600160c01b876001600160801b031683614f59565b6148de565b6148de81876001600160801b0316600160c01b614f59565b925050614959565b60006149056001600160a01b0383168068010000000000000000614f59565b9050836001600160a01b0316856001600160a01b03161061493d57614938600160801b876001600160801b031683614f59565b614955565b61495581876001600160801b0316600160801b614f59565b9250505b50949350505050565b60408051600280825260608201835260009283929190602083019080368337019050509050601e8160008151811061499657fe5b602002602001019063ffffffff16908163ffffffff16815250506000816001815181106149bf57fe5b63ffffffff9092166020928302919091018201526040517f883bdbfd000000000000000000000000000000000000000000000000000000008152600481018281528351602483015283516001600160a01b0387169363883bdbfd938693928392604490920191858101910280838360005b83811015614a48578181015183820152602001614a30565b505050509050019250505060006040518083038186803b158015614a6b57600080fd5b505afa925050508015614bb557506040513d6000823e601f3d908101601f191682016040908152811015614a9e57600080fd5b8101908080516040519392919084640100000000821115614abe57600080fd5b908301906020820185811115614ad357600080fd5b8251866020820283011164010000000082111715614af057600080fd5b82525081516020918201928201910280838360005b83811015614b1d578181015183820152602001614b05565b5050505090500160405260200180516040519392919084640100000000821115614b4657600080fd5b908301906020820185811115614b5b57600080fd5b8251866020820283011164010000000082111715614b7857600080fd5b82525081516020918201928201910280838360005b83811015614ba5578181015183820152602001614b8d565b5050505090500160405250505060015b614bc3576000915050612457565b601e63ffffffff1682600081518110614bd857fe5b602002602001015183600181518110614bed57fe5b60200260200101510360060b81614c0057fe5b059350505050612457565b60008060008360020b12614c22578260020b614c2a565b8260020b6000035b9050620d89e8811115614c84576040805162461bcd60e51b815260206004820152600160248201527f5400000000000000000000000000000000000000000000000000000000000000604482015290519081900360640190fd5b600060018216614c9857600160801b614caa565b6ffffcb933bd6fad37aa2d162d1a5940015b70ffffffffffffffffffffffffffffffffff1690506002821615614cde576ffff97272373d413259a46990580e213a0260801c5b6004821615614cfd576ffff2e50f5f656932ef12357cf3c7fdcc0260801c5b6008821615614d1c576fffe5caca7e10e4e61c3624eaa0941cd00260801c5b6010821615614d3b576fffcb9843d60f6159c9db58835c9266440260801c5b6020821615614d5a576fff973b41fa98c081472e6896dfb254c00260801c5b6040821615614d79576fff2ea16466c96a3843ec78b326b528610260801c5b6080821615614d98576ffe5dee046a99a2a811c461f1969c30530260801c5b610100821615614db8576ffcbe86c7900a88aedcffc83b479aa3a40260801c5b610200821615614dd8576ff987a7253ac413176f2b074cf7815e540260801c5b610400821615614df8576ff3392b0822b70005940c7a398e4b70f30260801c5b610800821615614e18576fe7159475a2c29b7443b29c7fa6e889d90260801c5b611000821615614e38576fd097f3bdfd2022b8845ad8f792aa58250260801c5b612000821615614e58576fa9f746462d870fdf8a65dc1f90e061e50260801c5b614000821615614e78576f70d869a156d2a1b890bb3df62baf32f70260801c5b618000821615614e98576f31be135f97d08fd981231505542fcfa60260801c5b62010000821615614eb9576f09aa508b5b7a84e1c677de54f3e99bc90260801c5b62020000821615614ed9576e5d6af8dedb81196699c329225ee6040260801c5b62040000821615614ef8576d2216e584f5fa1ea926041bedfe980260801c5b62080000821615614f15576b048a170391f7dc42444e8fa20260801c5b60008460020b1315614f30578060001981614f2c57fe5b0490505b640100000000810615614f44576001614f47565b60005b60ff16602082901c0192505050919050565b6000808060001985870986860292508281109083900303905080614f8f5760008411614f8457600080fd5b508290049050610de6565b808411614f9b57600080fd5b6000848688096000868103871696879004966002600389028118808a02820302808a02820302808a02820302808a02820302808a02820302808a02909103029181900381900460010186841190950394909402919094039290920491909117919091029150509392505050565b508054600082559060005260206000209081019061096791905b808211156150365760008155600101615022565b509056fe4f776e61626c653a206e6577206f776e657220697320746865207a65726f20616464726573734d6178207477617020646576696174696f6e206d7573742062652077697468696e2072616e67654f6e6c7920676f7665726e616e6365206f7220656d657267656e63792063616e2063616c6c2074686973a26469706673582212206e397bac2209bbfa854e4627e9389a40c457561232e775c7bb8c1d55eb9737ba64736f6c63430007060033",
  "devdoc": {
    "author": "Babylon Finance Protocol Uses Uniswap V3 to get a price of a token pair",
    "kind": "dev",
    "methods": {
      "getPrice(address,address)": {
        "params": {
          "_tokenIn": "Address of the first token",
          "_tokenOut": "Address of the second token"
        },
        "returns": {
          "price": "               Price of the pair"
        }
      },
      "getPriceNAV(address,address)": {
        "params": {
          "_tokenIn": "Address of the first token",
          "_tokenOut": "Address of the second token"
        },
        "returns": {
          "price": "               Price of the pair"
        }
      },
      "owner()": {
        "details": "Returns the address of the current owner."
      },
      "renounceOwnership()": {
        "details": "Leaves the contract without owner. It will not be possible to call `onlyOwner` functions anymore. Can only be called by the current owner. NOTE: Renouncing ownership will leave the contract without an owner, thereby removing any functionality that is only available to the owner."
      },
      "transferOwnership(address)": {
        "details": "Transfers ownership of the contract to a new account (`newOwner`). Can only be called by the current owner."
      }
    },
    "title": "PriceOracle",
    "version": 1
  },
  "userdoc": {
    "kind": "user",
    "methods": {
      "getPrice(address,address)": {
        "notice": "Returns the amount out corresponding to the amount in for a given token"
      },
      "getPriceNAV(address,address)": {
        "notice": "Returns the amount out corresponding to the amount in for a given token"
      }
    },
    "version": 1
  },
  "storageLayout": {
    "storage": [
      {
        "astId": 1456,
        "contract": "contracts/PriceOracle.sol:PriceOracle",
        "label": "_owner",
        "offset": 0,
        "slot": "0",
        "type": "t_address"
      },
      {
        "astId": 16099,
        "contract": "contracts/PriceOracle.sol:PriceOracle",
        "label": "tokenIdentifier",
        "offset": 0,
        "slot": "1",
        "type": "t_contract(ITokenIdentifier)43724"
      },
      {
        "astId": 16111,
        "contract": "contracts/PriceOracle.sol:PriceOracle",
        "label": "hopTokens",
        "offset": 0,
        "slot": "2",
        "type": "t_mapping(t_address,t_bool)"
      },
      {
        "astId": 16114,
        "contract": "contracts/PriceOracle.sol:PriceOracle",
        "label": "hopTokensList",
        "offset": 0,
        "slot": "3",
        "type": "t_array(t_address)dyn_storage"
      },
      {
        "astId": 16116,
        "contract": "contracts/PriceOracle.sol:PriceOracle",
        "label": "maxTwapDeviation",
        "offset": 0,
        "slot": "4",
        "type": "t_int24"
      }
    ],
    "types": {
      "t_address": {
        "encoding": "inplace",
        "label": "address",
        "numberOfBytes": "20"
      },
      "t_array(t_address)dyn_storage": {
        "base": "t_address",
        "encoding": "dynamic_array",
        "label": "address[]",
        "numberOfBytes": "32"
      },
      "t_bool": {
        "encoding": "inplace",
        "label": "bool",
        "numberOfBytes": "1"
      },
      "t_contract(ITokenIdentifier)43724": {
        "encoding": "inplace",
        "label": "contract ITokenIdentifier",
        "numberOfBytes": "20"
      },
      "t_int24": {
        "encoding": "inplace",
        "label": "int24",
        "numberOfBytes": "3"
      },
      "t_mapping(t_address,t_bool)": {
        "encoding": "mapping",
        "key": "t_address",
        "label": "mapping(address => bool)",
        "numberOfBytes": "32",
        "value": "t_bool"
      }
    }
  }
}