{
  "address": "0x1D4ce62707D4e752f95CB54c477243D400245EC4",
  "abi": [
    {
      "inputs": [
        {
          "internalType": "contract ITokenIdentifier",
          "name": "_tokenIdentifier",
          "type": "address"
        },
        {
          "internalType": "contract IBabController",
          "name": "_controller",
          "type": "address"
        }
      ],
      "stateMutability": "nonpayable",
      "type": "constructor"
    },
    {
      "anonymous": false,
      "inputs": [
        {
          "indexed": true,
          "internalType": "address",
          "name": "previousOwner",
          "type": "address"
        },
        {
          "indexed": true,
          "internalType": "address",
          "name": "newOwner",
          "type": "address"
        }
      ],
      "name": "OwnershipTransferred",
      "type": "event"
    },
    {
      "inputs": [],
      "name": "controller",
      "outputs": [
        {
          "internalType": "contract IBabController",
          "name": "",
          "type": "address"
        }
      ],
      "stateMutability": "view",
      "type": "function"
    },
    {
      "inputs": [],
      "name": "convexRegistry",
      "outputs": [
        {
          "internalType": "contract IConvexRegistry",
          "name": "",
          "type": "address"
        }
      ],
      "stateMutability": "view",
      "type": "function"
    },
    {
      "inputs": [],
      "name": "curveMetaRegistry",
      "outputs": [
        {
          "internalType": "contract ICurveMetaRegistry",
          "name": "",
          "type": "address"
        }
      ],
      "stateMutability": "view",
      "type": "function"
    },
    {
      "inputs": [
        {
          "internalType": "address",
          "name": "_asset",
          "type": "address"
        },
        {
          "internalType": "address",
          "name": "_underlying",
          "type": "address"
        }
      ],
      "name": "getCompoundExchangeRate",
      "outputs": [
        {
          "internalType": "uint256",
          "name": "",
          "type": "uint256"
        }
      ],
      "stateMutability": "view",
      "type": "function"
    },
    {
      "inputs": [
        {
          "internalType": "address",
          "name": "_asset",
          "type": "address"
        },
        {
          "internalType": "address",
          "name": "_underlying",
          "type": "address"
        }
      ],
      "name": "getCreamExchangeRate",
      "outputs": [
        {
          "internalType": "uint256",
          "name": "",
          "type": "uint256"
        }
      ],
      "stateMutability": "view",
      "type": "function"
    },
    {
      "inputs": [
        {
          "internalType": "address",
          "name": "_tokenIn",
          "type": "address"
        },
        {
          "internalType": "address",
          "name": "_tokenOut",
          "type": "address"
        }
      ],
      "name": "getPrice",
      "outputs": [
        {
          "internalType": "uint256",
          "name": "price",
          "type": "uint256"
        }
      ],
      "stateMutability": "view",
      "type": "function"
    },
    {
      "inputs": [
        {
          "internalType": "address",
          "name": "_tokenIn",
          "type": "address"
        },
        {
          "internalType": "address",
          "name": "_tokenOut",
          "type": "address"
        }
      ],
      "name": "getPriceNAV",
      "outputs": [
        {
          "internalType": "uint256",
          "name": "price",
          "type": "uint256"
        }
      ],
      "stateMutability": "view",
      "type": "function"
    },
    {
      "inputs": [
        {
          "internalType": "address",
          "name": "",
          "type": "address"
        }
      ],
      "name": "hopTokens",
      "outputs": [
        {
          "internalType": "bool",
          "name": "",
          "type": "bool"
        }
      ],
      "stateMutability": "view",
      "type": "function"
    },
    {
      "inputs": [
        {
          "internalType": "uint256",
          "name": "",
          "type": "uint256"
        }
      ],
      "name": "hopTokensList",
      "outputs": [
        {
          "internalType": "address",
          "name": "",
          "type": "address"
        }
      ],
      "stateMutability": "view",
      "type": "function"
    },
    {
      "inputs": [],
      "name": "owner",
      "outputs": [
        {
          "internalType": "address",
          "name": "",
          "type": "address"
        }
      ],
      "stateMutability": "view",
      "type": "function"
    },
    {
      "inputs": [],
      "name": "pickleRegistry",
      "outputs": [
        {
          "internalType": "contract IPickleJarRegistry",
          "name": "",
          "type": "address"
        }
      ],
      "stateMutability": "view",
      "type": "function"
    },
    {
      "inputs": [],
      "name": "renounceOwnership",
      "outputs": [],
      "stateMutability": "nonpayable",
      "type": "function"
    },
    {
      "inputs": [],
      "name": "tokenIdentifier",
      "outputs": [
        {
          "internalType": "contract ITokenIdentifier",
          "name": "",
          "type": "address"
        }
      ],
      "stateMutability": "view",
      "type": "function"
    },
    {
      "inputs": [
        {
          "internalType": "address",
          "name": "newOwner",
          "type": "address"
        }
      ],
      "name": "transferOwnership",
      "outputs": [],
      "stateMutability": "nonpayable",
      "type": "function"
    },
    {
      "inputs": [
        {
          "internalType": "int24",
          "name": "_maxTwapDeviation",
          "type": "int24"
        }
      ],
      "name": "updateMaxTwapDeviation",
      "outputs": [],
      "stateMutability": "nonpayable",
      "type": "function"
    },
    {
      "inputs": [
        {
          "internalType": "address[]",
          "name": "list",
          "type": "address[]"
        }
      ],
      "name": "updateReserves",
      "outputs": [],
      "stateMutability": "nonpayable",
      "type": "function"
    },
    {
      "inputs": [
        {
          "internalType": "contract ITokenIdentifier",
          "name": "_tokenIdentifier",
          "type": "address"
        }
      ],
      "name": "updateTokenIdentifier",
      "outputs": [],
      "stateMutability": "nonpayable",
      "type": "function"
    }
  ],
  "transactionHash": "0xa6d5e6d59b75ea320b4e6b58a0b5b02473afbd2db886bdb012e61c0937722711",
  "args": [
    "0x408CAf0699EE6e804276735EdE87a5D0cDEb4254",
    "0xD4a5b5fcB561dAF3aDF86F8477555B92FBa43b5F"
  ],
  "numDeployments": 12,
  "solcInputHash": "0ec44ccbe952b36bf6217dd00149294e",
  "bytecode": "0x6101006040523480156200001257600080fd5b5060405162005a7b38038062005a7b833981810160405260408110156200003857600080fd5b50805160209091015160006200004d620002c4565b600080546001600160a01b0319166001600160a01b0383169081178255604051929350917f8be0079c531659141344cd1fd0a4f28419497f9722a3daafe3b4186f6b6457e0908290a350600180546001600160a01b0384166001600160a01b031990911681179091556001600160601b0319606083901b166080526004805462ffffff19166106401781556040805163f4afedd160e01b8152905163f4afedd192828101926020929190829003018186803b1580156200010c57600080fd5b505afa15801562000121573d6000803e3d6000fd5b505050506040513d60208110156200013857600080fd5b505160601b6001600160601b03191660a05260408051635826694b60e01b815290516001600160a01b03841691635826694b916004808301926020929190829003018186803b1580156200018b57600080fd5b505afa158015620001a0573d6000803e3d6000fd5b505050506040513d6020811015620001b757600080fd5b505160601b6001600160601b03191660c05260408051632c2983ad60e11b815290516001600160a01b03841691635853075a916004808301926020929190829003018186803b1580156200020a57600080fd5b505afa1580156200021f573d6000803e3d6000fd5b505050506040513d60208110156200023657600080fd5b505160601b6001600160601b03191660e052620002bc620002b673c02aaa39b223fe8d0a0e5c4f27ead9083c756cc2736b175474e89094c44da98b954eedeac495271d0f73a0b86991c6218b36c1d19d4a2e9eb0ce3606eb48732260fac5e5542a773aa44fbcfedf7c193bc2c599620002c8602090811b62000ae117901c565b620003ad565b505062000511565b3390565b60408051600480825260a0820190925260609160009190602082016080803683370190505090508581600081518110620002fe57fe5b60200260200101906001600160a01b031690816001600160a01b03168152505084816001815181106200032d57fe5b60200260200101906001600160a01b031690816001600160a01b03168152505083816002815181106200035c57fe5b60200260200101906001600160a01b031690816001600160a01b03168152505082816003815181106200038b57fe5b6001600160a01b03909216602092830291909101909101529050949350505050565b60005b6003548110156200040c5760006002600060038481548110620003cf57fe5b6000918252602080832091909101546001600160a01b031683528201929092526040019020805460ff1916911515919091179055600101620003b0565b506200041b60036000620004d3565b60005b8151811015620004cf576001600260008484815181106200043b57fe5b60200260200101516001600160a01b03166001600160a01b0316815260200190815260200160002060006101000a81548160ff02191690831515021790555060038282815181106200048957fe5b60209081029190910181015182546001808201855560009485529290932090920180546001600160a01b0319166001600160a01b0390931692909217909155016200041e565b5050565b5080546000825590600052602060002090810190620004f39190620004f6565b50565b5b808211156200050d5760008155600101620004f7565b5090565b60805160601c60a05160601c60c05160601c60e05160601c6154ba620005c1600039806107ea5280611fa652806120555280612a155280612b5652508061048852806120d1528061214e525080610a8d528061141552806114d1528061154f528061161452806116ea52806117a6528061182452806118df52806127f252806131dc52806134c252806135c652806137275250806103ab528061087352806109315280610ab152506154ba6000f3fe608060405234801561001057600080fd5b506004361061011b5760003560e01c80639e2bf32a116100b2578063d636811311610081578063f4afedd111610066578063f4afedd114610368578063f77c479114610370578063f8da2c95146103785761011b565b8063d63681131461029f578063f2fde38b146103425761011b565b80639e2bf32a1461022c578063ac41865a14610234578063c42cb29214610262578063caa8a965146102825761011b565b8063715018a6116100ee578063715018a6146101ae57806371f14a0b146101b6578063891d0249146101f65780638da5cb5b146102245761011b565b806312e9cb051461012057806316b2b88814610148578063564e9bb61461016c5780635826694b146101a6575b600080fd5b6101466004803603602081101561013657600080fd5b50356001600160a01b03166103a6565b005b610150610462565b604080516001600160a01b039092168252519081900360200190f35b6101926004803603602081101561018257600080fd5b50356001600160a01b0316610471565b604080519115158252519081900360200190f35b610150610486565b6101466104aa565b6101e4600480360360408110156101cc57600080fd5b506001600160a01b0381358116916020013516610575565b60408051918252519081900360200190f35b6101e46004803603604081101561020c57600080fd5b506001600160a01b038135811691602001351661075c565b6101506107d9565b6101506107e8565b6101e46004803603604081101561024a57600080fd5b506001600160a01b038135811691602001351661080c565b6101466004803603602081101561027857600080fd5b503560020b61086e565b6101506004803603602081101561029857600080fd5b5035610902565b610146600480360360208110156102b557600080fd5b8101906020810181356401000000008111156102d057600080fd5b8201836020820111156102e257600080fd5b8035906020019184602083028401116401000000008311171561030457600080fd5b91908080602002602001604051908101604052809392919081815260200183836020028082843760009201919091525092955061092c945050505050565b6101466004803603602081101561035857600080fd5b50356001600160a01b031661096a565b610150610a8b565b610150610aaf565b6101e46004803603604081101561038e57600080fd5b506001600160a01b0381358116916020013516610ad3565b6103d87f00000000000000000000000000000000000000000000000000000000000000006001600160a01b0316610bc2565b6001600160a01b038116610433576040805162461bcd60e51b815260206004820152601660248201527f41646472657373206e6565647320746f20657869737400000000000000000000604482015290519081900360640190fd5b6001805473ffffffffffffffffffffffffffffffffffffffff19166001600160a01b0392909216919091179055565b6001546001600160a01b031681565b60026020526000908152604090205460ff1681565b7f000000000000000000000000000000000000000000000000000000000000000081565b6104b2610ce4565b6001600160a01b03166104c36107d9565b6001600160a01b03161461051e576040805162461bcd60e51b815260206004820181905260248201527f4f776e61626c653a2063616c6c6572206973206e6f7420746865206f776e6572604482015290519081900360640190fd5b600080546040516001600160a01b03909116907f8be0079c531659141344cd1fd0a4f28419497f9722a3daafe3b4186f6b6457e0908390a36000805473ffffffffffffffffffffffffffffffffffffffff19169055565b600080836001600160a01b031663182df0f56040518163ffffffff1660e01b815260040160206040518083038186803b1580156105b157600080fd5b505afa1580156105c5573d6000803e3d6000fd5b505050506040513d60208110156105db57600080fd5b50516040805163313ce56760e01b815290519192506008916001600160a01b0386169163313ce567916004808301926020929190829003018186803b15801561062357600080fd5b505afa158015610637573d6000803e3d6000fd5b505050506040513d602081101561064d57600080fd5b505160ff1611156106d8576106d16008846001600160a01b031663313ce5676040518163ffffffff1660e01b815260040160206040518083038186803b15801561069657600080fd5b505afa1580156106aa573d6000803e3d6000fd5b505050506040513d60208110156106c057600080fd5b5051839160ff910316600a0a610ce8565b9050610753565b610750836001600160a01b031663313ce5676040518163ffffffff1660e01b815260040160206040518083038186803b15801561071457600080fd5b505afa158015610728573d6000803e3d6000fd5b505050506040513d602081101561073e57600080fd5b5051829060080360ff16600a0a610d4f565b90505b90505b92915050565b600080836001600160a01b031663182df0f56040518163ffffffff1660e01b815260040160206040518083038186803b15801561079857600080fd5b505afa1580156107ac573d6000803e3d6000fd5b505050506040513d60208110156107c257600080fd5b505190506107d1838583610d73565b949350505050565b6000546001600160a01b031690565b7f000000000000000000000000000000000000000000000000000000000000000081565b600061081a83836000610ded565b905080610756576040805162461bcd60e51b815260206004820152600f60248201527f5072696365206e6f7420666f756e640000000000000000000000000000000000604482015290519081900360640190fd5b6108a07f00000000000000000000000000000000000000000000000000000000000000006001600160a01b0316610bc2565b6105dc8160020b126108e35760405162461bcd60e51b81526004018080602001828103825260278152602001806154346027913960400191505060405180910390fd5b6004805460029290920b62ffffff1662ffffff19909216919091179055565b6003818154811061091257600080fd5b6000918252602090912001546001600160a01b0316905081565b61095e7f00000000000000000000000000000000000000000000000000000000000000006001600160a01b0316610bc2565b61096781612578565b50565b610972610ce4565b6001600160a01b03166109836107d9565b6001600160a01b0316146109de576040805162461bcd60e51b815260206004820181905260248201527f4f776e61626c653a2063616c6c6572206973206e6f7420746865206f776e6572604482015290519081900360640190fd5b6001600160a01b038116610a235760405162461bcd60e51b815260040180806020018281038252602681526020018061540e6026913960400191505060405180910390fd5b600080546040516001600160a01b03808516939216917f8be0079c531659141344cd1fd0a4f28419497f9722a3daafe3b4186f6b6457e091a36000805473ffffffffffffffffffffffffffffffffffffffff19166001600160a01b0392909216919091179055565b7f000000000000000000000000000000000000000000000000000000000000000081565b7f000000000000000000000000000000000000000000000000000000000000000081565b600061081a83836001610ded565b60408051600480825260a0820190925260609160009190602082016080803683370190505090508581600081518110610b1657fe5b60200260200101906001600160a01b031690816001600160a01b0316815250508481600181518110610b4457fe5b60200260200101906001600160a01b031690816001600160a01b0316815250508381600281518110610b7257fe5b60200260200101906001600160a01b031690816001600160a01b0316815250508281600381518110610ba057fe5b6001600160a01b03909216602092830291909101909101529050949350505050565b806001600160a01b0316638da5cb5b6040518163ffffffff1660e01b815260040160206040518083038186803b158015610bfb57600080fd5b505afa158015610c0f573d6000803e3d6000fd5b505050506040513d6020811015610c2557600080fd5b50516001600160a01b0316331480610ca95750806001600160a01b0316638d97e0436040518163ffffffff1660e01b815260040160206040518083038186803b158015610c7157600080fd5b505afa158015610c85573d6000803e3d6000fd5b505050506040513d6020811015610c9b57600080fd5b50516001600160a01b031633145b6109675760405162461bcd60e51b815260040180806020018281038252602a81526020018061545b602a913960400191505060405180910390fd5b3390565b6000808211610d3e576040805162461bcd60e51b815260206004820152601a60248201527f536166654d6174683a206469766973696f6e206279207a65726f000000000000604482015290519081900360640190fd5b818381610d4757fe5b049392505050565b6000821580610d6a57505081810281838281610d6757fe5b04145b61075657600080fd5b600080610d88856001600160a01b03166126a2565b90506000610d9e856001600160a01b03166126a2565b905080821415610db2578392505050610de6565b81811115610dd257610dc984838303600a0a610d4f565b92505050610de6565b610de184828403600a0a610ce8565b925050505b9392505050565b6000826001600160a01b0316846001600160a01b03161415610e185750670de0b6b3a7640000610de6565b6001600160a01b03841615610e2d5783610e43565b73c02aaa39b223fe8d0a0e5c4f27ead9083c756cc25b93506001600160a01b03831615610e5a5782610e70565b73c02aaa39b223fe8d0a0e5c4f27ead9083c756cc25b600154604080517f3149ea1a0000000000000000000000000000000000000000000000000000000081526001600160a01b03888116600483015280851660248301529151939650600093849384938493911691633149ea1a91604480820192608092909190829003018186803b158015610ee957600080fd5b505afa158015610efd573d6000803e3d6000fd5b505050506040513d6080811015610f1357600080fd5b508051602082015160408301516060909301519196509450909250905073ae7ab96520de3a18e5e111b5eaab095312d7fe846001600160a01b0389161415610f9057610f85670d99a8cec7e20000610f7f73c02aaa39b223fe8d0a0e5c4f27ead9083c756cc28a61080c565b906127b7565b945050505050610de6565b73ae7ab96520de3a18e5e111b5eaab095312d7fe846001600160a01b0388161415610fe557610f85670d99a8cec7e20000610fdf8a73c02aaa39b223fe8d0a0e5c4f27ead9083c756cc261080c565b906127d5565b60008460ff166001141561101957610ffd898461075c565b905061100d81610f7f858b61080c565b95505050505050610de6565b8360ff166001141561103f5761102f888361075c565b905061100d81610fdf8b8561080c565b8460ff16600214156110555761100d838961080c565b8360ff166002141561106b5761100d898361080c565b8460ff166003141561108157610ffd8984610575565b8360ff16600314156110975761102f8883610575565b8460ff1660041415611248576000896001600160a01b031663d4b839926040518163ffffffff1660e01b815260040160206040518083038186803b1580156110de57600080fd5b505afa1580156110f2573d6000803e3d6000fd5b505050506040513d602081101561110857600080fd5b50516040805163dbd06c8560e01b8152905191925073d69b189020ef614796578afe4d10378c5e7e11389163ac82f608916001600160a01b0385169163dbd06c8591600480820192602092909190829003018186803b15801561116a57600080fd5b505afa15801561117e573d6000803e3d6000fd5b505050506040513d602081101561119457600080fd5b5051604080517fffffffff0000000000000000000000000000000000000000000000000000000060e085901b1681526004810192909252516024808301926020929190829003018186803b1580156111eb57600080fd5b505afa1580156111ff573d6000803e3d6000fd5b505050506040513d602081101561121557600080fd5b5051915061123b82610f7f73a0b86991c6218b36c1d19d4a2e9eb0ce3606eb488c61080c565b9650505050505050610de6565b8360ff16600414156113ec576000886001600160a01b031663d4b839926040518163ffffffff1660e01b815260040160206040518083038186803b15801561128f57600080fd5b505afa1580156112a3573d6000803e3d6000fd5b505050506040513d60208110156112b957600080fd5b50516040805163dbd06c8560e01b8152905191925073d69b189020ef614796578afe4d10378c5e7e11389163ac82f608916001600160a01b0385169163dbd06c8591600480820192602092909190829003018186803b15801561131b57600080fd5b505afa15801561132f573d6000803e3d6000fd5b505050506040513d602081101561134557600080fd5b5051604080517fffffffff0000000000000000000000000000000000000000000000000000000060e085901b1681526004810192909252516024808301926020929190829003018186803b15801561139c57600080fd5b505afa1580156113b0573d6000803e3d6000fd5b505050506040513d60208110156113c657600080fd5b5051915061123b82610fdf8c73a0b86991c6218b36c1d19d4a2e9eb0ce3606eb4861080c565b8460ff166005148061140157508460ff166011145b156116c15788601160ff8716141561154d577f00000000000000000000000000000000000000000000000000000000000000006001600160a01b0316637d54e7948b6040518263ffffffff1660e01b815260040180826001600160a01b0316815260200191505060206040518083038186803b15801561148057600080fd5b505afa158015611494573d6000803e3d6000fd5b505050506040513d60208110156114aa57600080fd5b50516040805163155ec51360e11b81526001600160a01b03808416600483015291519293507f000000000000000000000000000000000000000000000000000000000000000090911691632abd8a2691602480820192602092909190829003018186803b15801561151a57600080fd5b505afa15801561152e573d6000803e3d6000fd5b505050506040513d602081101561154457600080fd5b505199506115e9565b7f00000000000000000000000000000000000000000000000000000000000000006001600160a01b03166324a592338b6040518263ffffffff1660e01b815260040180826001600160a01b0316815260200191505060206040518083038186803b1580156115ba57600080fd5b505afa1580156115ce573d6000803e3d6000fd5b505050506040513d60208110156115e457600080fd5b505190505b6001600160a01b038116156116bf576000611603826127ed565b90506116b1611612828c61080c565b7f00000000000000000000000000000000000000000000000000000000000000006001600160a01b031663e39e26828e6040518263ffffffff1660e01b815260040180826001600160a01b0316815260200191505060206040518083038186803b15801561167f57600080fd5b505afa158015611693573d6000803e3d6000fd5b505050506040513d60208110156116a957600080fd5b5051906127b7565b975050505050505050610de6565b505b8360ff16600514806116d657508360ff166011145b156119825787601160ff86161415611822577f00000000000000000000000000000000000000000000000000000000000000006001600160a01b0316637d54e7948a6040518263ffffffff1660e01b815260040180826001600160a01b0316815260200191505060206040518083038186803b15801561175557600080fd5b505afa158015611769573d6000803e3d6000fd5b505050506040513d602081101561177f57600080fd5b50516040805163155ec51360e11b81526001600160a01b03808416600483015291519293507f000000000000000000000000000000000000000000000000000000000000000090911691632abd8a2691602480820192602092909190829003018186803b1580156117ef57600080fd5b505afa158015611803573d6000803e3d6000fd5b505050506040513d602081101561181957600080fd5b505198506118be565b7f00000000000000000000000000000000000000000000000000000000000000006001600160a01b03166324a592338a6040518263ffffffff1660e01b815260040180826001600160a01b0316815260200191505060206040518083038186803b15801561188f57600080fd5b505afa1580156118a3573d6000803e3d6000fd5b505050506040513d60208110156118b957600080fd5b505190505b6001600160a01b038116156119805760006118d8826127ed565b90506116b17f00000000000000000000000000000000000000000000000000000000000000006001600160a01b031663e39e26828c6040518263ffffffff1660e01b815260040180826001600160a01b0316815260200191505060206040518083038186803b15801561194a57600080fd5b505afa15801561195e573d6000803e3d6000fd5b505050506040513d602081101561197457600080fd5b5051610fdf8d8461080c565b505b8460ff1660061415611acb57611a386119ff8a6001600160a01b031663fc0c546a6040518163ffffffff1660e01b815260040160206040518083038186803b1580156119cd57600080fd5b505afa1580156119e1573d6000803e3d6000fd5b505050506040513d60208110156119f757600080fd5b50518a61080c565b8a6001600160a01b03166399530b066040518163ffffffff1660e01b815260040160206040518083038186803b15801561167f57600080fd5b95506000896001600160a01b031663313ce5676040518163ffffffff1660e01b815260040160206040518083038186803b158015611a7557600080fd5b505afa158015611a89573d6000803e3d6000fd5b505050506040513d6020811015611a9f57600080fd5b505160ff1690506012811015611ac05761123b876012839003600a0a610d4f565b505050505050610de6565b8360ff1660061415611c68576000886001600160a01b031663fc0c546a6040518163ffffffff1660e01b815260040160206040518083038186803b158015611b1257600080fd5b505afa158015611b26573d6000803e3d6000fd5b505050506040513d6020811015611b3c57600080fd5b5051604080517f99530b060000000000000000000000000000000000000000000000000000000081529051919250611bd4916001600160a01b038c16916399530b06916004808301926020929190829003018186803b158015611b9e57600080fd5b505afa158015611bb2573d6000803e3d6000fd5b505050506040513d6020811015611bc857600080fd5b5051610fdf8c8461080c565b96506000896001600160a01b031663313ce5676040518163ffffffff1660e01b815260040160206040518083038186803b158015611c1157600080fd5b505afa158015611c25573d6000803e3d6000fd5b505050506040513d6020811015611c3b57600080fd5b505160ff1690506012811015611c5c576116b1886012839003600a0a610ce8565b50505050505050610de6565b8460ff16600d1480611c7d57508460ff16600e145b15611dbf576000896001600160a01b031663ec1ebd7a6040518163ffffffff1660e01b815260040160206040518083038186803b158015611cbd57600080fd5b505afa158015611cd1573d6000803e3d6000fd5b505050506040513d6020811015611ce757600080fd5b50519050600e60ff87161415611d4757611d40611d1873c02aaa39b223fe8d0a0e5c4f27ead9083c756cc28b61080c565b610f7f611d398d73c02aaa39b223fe8d0a0e5c4f27ead9083c756cc2612997565b84906127b7565b9650611ac0565b61123b611db88b6001600160a01b031663fc0c546a6040518163ffffffff1660e01b815260040160206040518083038186803b158015611d8657600080fd5b505afa158015611d9a573d6000803e3d6000fd5b505050506040513d6020811015611db057600080fd5b50518b61080c565b82906127b7565b8360ff16600d1480611dd457508360ff16600e145b15611f95578360ff16600e1415611e9357611e8c886001600160a01b031663ec1ebd7a6040518163ffffffff1660e01b815260040160206040518083038186803b158015611e2157600080fd5b505afa158015611e35573d6000803e3d6000fd5b505050506040513d6020811015611e4b57600080fd5b5051610fdf611e6e8b73c02aaa39b223fe8d0a0e5c4f27ead9083c756cc2612997565b610fdf8d73c02aaa39b223fe8d0a0e5c4f27ead9083c756cc261080c565b9550611f8b565b61100d886001600160a01b031663ec1ebd7a6040518163ffffffff1660e01b815260040160206040518083038186803b158015611ecf57600080fd5b505afa158015611ee3573d6000803e3d6000fd5b505050506040513d6020811015611ef957600080fd5b5051604080517ffc0c546a0000000000000000000000000000000000000000000000000000000081529051610fdf918d916001600160a01b038e169163fc0c546a916004808301926020929190829003018186803b158015611f5a57600080fd5b505afa158015611f6e573d6000803e3d6000fd5b505050506040513d6020811015611f8457600080fd5b505161080c565b5050505050610de6565b8460ff16600f14156120435761100d7f00000000000000000000000000000000000000000000000000000000000000006001600160a01b031663edce08068b6040518263ffffffff1660e01b815260040180826001600160a01b0316815260200191505060206040518083038186803b15801561201157600080fd5b505afa158015612025573d6000803e3d6000fd5b505050506040513d602081101561203b57600080fd5b50518961080c565b8360ff16600f14156120c05761100d897f00000000000000000000000000000000000000000000000000000000000000006001600160a01b031663edce08068b6040518263ffffffff1660e01b815260040180826001600160a01b0316815260200191505060206040518083038186803b158015611f5a57600080fd5b8460ff166010141561213c5761100d7f00000000000000000000000000000000000000000000000000000000000000006001600160a01b031663c38c1d9d8b6040518263ffffffff1660e01b815260040180826001600160a01b0316815260200191505060206040518083038186803b15801561201157600080fd5b8360ff16601014156121b95761100d897f00000000000000000000000000000000000000000000000000000000000000006001600160a01b031663c38c1d9d8b6040518263ffffffff1660e01b815260040180826001600160a01b0316815260200191505060206040518083038186803b158015611f5a57600080fd5b8460ff16600814806121ce57508460ff166009145b806121dc57508460ff16600a145b156122205761100d61220273c02aaa39b223fe8d0a0e5c4f27ead9083c756cc28a61080c565b610f7f8b73c02aaa39b223fe8d0a0e5c4f27ead9083c756cc2612d95565b8360ff166008148061223557508360ff166009145b8061224357508460ff16600a145b156122875761100d6122698973c02aaa39b223fe8d0a0e5c4f27ead9083c756cc2612d95565b610fdf8b73c02aaa39b223fe8d0a0e5c4f27ead9083c756cc261080c565b8460ff16600c14156122d25761100d6122b473c02aaa39b223fe8d0a0e5c4f27ead9083c756cc28a61080c565b610f7f8b73c02aaa39b223fe8d0a0e5c4f27ead9083c756cc261308d565b8360ff16600c14156122ff5761100d6122698973c02aaa39b223fe8d0a0e5c4f27ead9083c756cc261308d565b6001600160a01b0389167324e79e946dea5482212c38aab2d0782f04cdb0e0141561239857600061236d7348536ec5233297c367fd0b6979b75d9270bb6b157324e79e946dea5482212c38aab2d0782f04cdb0e0737fc66500c84a76ad7e9c93437bfc5ac33e2ddae96131d4565b905080156123965761123b611db8737fc66500c84a76ad7e9c93437bfc5ac33e2ddae98b613340565b505b6001600160a01b0388167324e79e946dea5482212c38aab2d0782f04cdb0e014156124315760006124067348536ec5233297c367fd0b6979b75d9270bb6b15737fc66500c84a76ad7e9c93437bfc5ac33e2ddae97324e79e946dea5482212c38aab2d0782f04cdb0e06131d4565b9050801561242f5761123b611db88b737fc66500c84a76ad7e9c93437bfc5ac33e2ddae9613340565b505b61243b8989613340565b955085156124725761244c86613478565b15611f8b57600061245d8a8a6134bd565b90508015611ac0579550610de6945050505050565b61247c89896134bd565b9550851561248e575050505050610de6565b60005b600354811015612558576000600382815481106124aa57fe5b6000918252602090912001546001600160a01b0390811691508b1681148015906124e65750806001600160a01b03168a6001600160a01b031614155b1561254f5760006124f78c836134bd565b9050801561251b5761250c611db8838d613340565b98505050505050505050610de6565b6000612527838d6134bd565b9050801561254c5761253c611db88e85613340565b9950505050505050505050610de6565b50505b50600101612491565b50861561256c5761256989896137c9565b95505b50505050509392505050565b60005b6003548110156125d4576000600260006003848154811061259857fe5b6000918252602080832091909101546001600160a01b031683528201929092526040019020805460ff191691151591909117905560010161257b565b506125e1600360006153db565b60005b815181101561269e576001600260008484815181106125ff57fe5b60200260200101516001600160a01b03166001600160a01b0316815260200190815260200160002060006101000a81548160ff021916908315150217905550600382828151811061264c57fe5b602090810291909101810151825460018082018555600094855292909320909201805473ffffffffffffffffffffffffffffffffffffffff19166001600160a01b0390931692909217909155016125e4565b5050565b60006126ad82613a51565b156126ba575060126127b2565b60408051600481526024810182526020810180516001600160e01b031663313ce56760e01b1781529151815160009384936001600160a01b038816939092909182918083835b6020831061271f5780518252601f199092019160209182019101612700565b6001836020036101000a038019825116818451168082178552505050505050905001915050600060405180830381855afa9150503d806000811461277f576040519150601f19603f3d011682016040523d82523d6000602084013e612784565b606091505b5091509150816127955760126127ad565b8080602001905160208110156127aa57600080fd5b50515b925050505b919050565b6000610753670de0b6b3a76400006127cf8585610d4f565b90610ce8565b6000610753826127cf85670de0b6b3a7640000610d4f565b6000807f00000000000000000000000000000000000000000000000000000000000000006001600160a01b031663a07952a48460016040518363ffffffff1660e01b815260040180836001600160a01b031681526020018215158152602001925050506101006040518083038186803b15801561286957600080fd5b505afa15801561287d573d6000803e3d6000fd5b505050506040513d601f19601f820116820180604052506101008110156128a357600080fd5b5080519091506001600160a01b0316156129085780516001600160a01b031673eeeeeeeeeeeeeeeeeeeeeeeeeeeeeeeeeeeeeeee146128ea578060005b6020020151612900565b73c02aaa39b223fe8d0a0e5c4f27ead9083c756cc25b9150506127b2565b60208101516001600160a01b03161561294b5760208101516001600160a01b031673eeeeeeeeeeeeeeeeeeeeeeeeeeeeeeeeeeeeeeee146128ea578060016128e0565b60408101516001600160a01b03161561298e5760408101516001600160a01b031673eeeeeeeeeeeeeeeeeeeeeeeeeeeeeeeeeeeeeeee146128ea578060026128e0565b50600092915050565b600080836001600160a01b03166315770f926040518163ffffffff1660e01b815260040160206040518083038186803b1580156129d357600080fd5b505afa1580156129e7573d6000803e3d6000fd5b505050506040513d60208110156129fd57600080fd5b5051905080612a10576000915050610756565b6000807f00000000000000000000000000000000000000000000000000000000000000006001600160a01b031663690f7390876040518263ffffffff1660e01b815260040180826001600160a01b0316815260200191505060206040518083038186803b158015612a8057600080fd5b505afa158015612a94573d6000803e3d6000fd5b505050506040513d6020811015612aaa57600080fd5b505115612b5257604080517f38d221aa0000000000000000000000000000000000000000000000000000000081526001600160801b038516600482015281516001600160a01b038916926338d221aa9260248082019391829003018186803b158015612b1557600080fd5b505afa158015612b29573d6000803e3d6000fd5b505050506040513d6040811015612b3f57600080fd5b5080516020909101519092509050612d1a565b60007f00000000000000000000000000000000000000000000000000000000000000006001600160a01b031663499bcb17886040518263ffffffff1660e01b815260040180826001600160a01b0316815260200191505060206040518083038186803b158015612bc157600080fd5b505afa158015612bd5573d6000803e3d6000fd5b505050506040513d6020811015612beb57600080fd5b5051604080517f17d70f7c00000000000000000000000000000000000000000000000000000000815290516001600160a01b03909216916317d70f7c91600480820192602092909190829003018186803b158015612c4857600080fd5b505afa158015612c5c573d6000803e3d6000fd5b505050506040513d6020811015612c7257600080fd5b5051604080517f6cff91f90000000000000000000000000000000000000000000000000000000081526004810183905281519293507325c81e249f913c94f263923421622ba731e6555b92636cff91f992602480840193919291829003018186803b158015612ce057600080fd5b505afa158015612cf4573d6000803e3d6000fd5b505050506040513d6040811015612d0a57600080fd5b5080516020909101519093509150505b612d8b866001600160a01b03166316f0115b6040518163ffffffff1660e01b815260040160206040518083038186803b158015612d5657600080fd5b505afa158015612d6a573d6000803e3d6000fd5b505050506040513d6020811015612d8057600080fd5b505186858585613a87565b9695505050505050565b60408051600280825260608201835260009283929190602083019080368337019050509050836001600160a01b0316630dfe16816040518163ffffffff1660e01b815260040160206040518083038186803b158015612df357600080fd5b505afa158015612e07573d6000803e3d6000fd5b505050506040513d6020811015612e1d57600080fd5b505181518290600090612e2c57fe5b60200260200101906001600160a01b031690816001600160a01b031681525050836001600160a01b031663d21220a76040518163ffffffff1660e01b815260040160206040518083038186803b158015612e8557600080fd5b505afa158015612e99573d6000803e3d6000fd5b505050506040513d6020811015612eaf57600080fd5b5051815182906001908110612ec057fe5b6001600160a01b0390921660209283029190910190910152836000805b8351811015613083576000612f0d858381518110612ef757fe5b60200260200101516001600160a01b0316613a51565b612f2a57848281518110612f1d57fe5b6020026020010151612f40565b73c02aaa39b223fe8d0a0e5c4f27ead9083c756cc25b90506000612f4e888361080c565b90506000612f818a888681518110612f6257fe5b60200260200101516001600160a01b0316613c7e90919063ffffffff16565b905073c02aaa39b223fe8d0a0e5c4f27ead9083c756cc26001600160a01b0316878581518110612fad57fe5b60200260200101516001600160a01b0316148015612fc9575080155b15612fdb57506001600160a01b038916315b8115801590612fe957508015155b156130785761307561306e848b61306986610fdf8c6001600160a01b03166318160ddd6040518163ffffffff1660e01b815260040160206040518083038186803b15801561303657600080fd5b505afa15801561304a573d6000803e3d6000fd5b505050506040513d602081101561306057600080fd5b505188906127d5565b610d73565b8690613d1f565b94505b505050600101612edd565b5095945050505050565b600080836001600160a01b03166318160ddd6040518163ffffffff1660e01b815260040160206040518083038186803b1580156130c957600080fd5b505afa1580156130dd573d6000803e3d6000fd5b505050506040513d60208110156130f357600080fd5b5051905080613106576000915050610756565b600080856001600160a01b031663c4a7761e6040518163ffffffff1660e01b8152600401604080518083038186803b15801561314157600080fd5b505afa158015613155573d6000803e3d6000fd5b505050506040513d604081101561316b57600080fd5b508051602091820151604080517f16f0115b0000000000000000000000000000000000000000000000000000000081529051929550909350612d8b926001600160a01b038a16926316f0115b926004808201939291829003018186803b158015612d5657600080fd5b6000806000807f00000000000000000000000000000000000000000000000000000000000000006001600160a01b03166329a0eb858888886040518463ffffffff1660e01b815260040180846001600160a01b03168152602001836001600160a01b03168152602001826001600160a01b03168152602001935050505060606040518083038186803b15801561326957600080fd5b505afa15801561327d573d6000803e3d6000fd5b505050506040513d606081101561329357600080fd5b50805160208201516040909201519094509092509050818314156132bd5760009350505050610de6565b60006132d1876001600160a01b03166126a2565b600a0a90506000826132ee576132e989868685613d2f565b6132fa565b6132fa89868685613fa1565b905061331e613311886001600160a01b03166126a2565b8290601203600a0a610d4f565b905061332981613478565b613334576000612569565b98975050505050505050565b6001600160a01b038216600090815260026020526040812054670de0b6b3a7640000908490849060ff1661339a5760008061337c8860016141f6565b90925090506001600160a01b03821615613397578193508094505b50505b6001600160a01b03851660009081526002602052604090205460ff16613431576000806133c88760006141f6565b90925090506001600160a01b0382161561342e57819250826001600160a01b0316846001600160a01b03161461340f5761340c61340585856142cb565b86906127b7565b94505b61341985826127b7565b9450841561342e578495505050505050610756565b50505b806001600160a01b0316826001600160a01b03161461345a57613457611d3983836142cb565b92505b8261346e5761346986866142cb565b612d8b565b5090949350505050565b6000613493670de0b6b3a764000066d529ae9e860000613d1f565b8210801561075657506134b5670de0b6b3a764000066d529ae9e860000614327565b821192915050565b6000807f00000000000000000000000000000000000000000000000000000000000000006001600160a01b031663b35084db858560006040518463ffffffff1660e01b815260040180846001600160a01b03168152602001836001600160a01b03168152602001828152602001935050505060206040518083038186803b15801561354757600080fd5b505afa15801561355b573d6000803e3d6000fd5b505050506040513d602081101561357157600080fd5b505190506001600160a01b03841673c02aaa39b223fe8d0a0e5c4f27ead9083c756cc21480156135a857506001600160a01b038116155b1561368e5773eeeeeeeeeeeeeeeeeeeeeeeeeeeeeeeeeeeeeeee93507f00000000000000000000000000000000000000000000000000000000000000006001600160a01b031663b35084db73eeeeeeeeeeeeeeeeeeeeeeeeeeeeeeeeeeeeeeee8560006040518463ffffffff1660e01b815260040180846001600160a01b03168152602001836001600160a01b03168152602001828152602001935050505060206040518083038186803b15801561365f57600080fd5b505afa158015613673573d6000803e3d6000fd5b505050506040513d602081101561368957600080fd5b505190505b6001600160a01b03831673c02aaa39b223fe8d0a0e5c4f27ead9083c756cc21480156136c157506001600160a01b038116155b1561379d57604080517fb35084db0000000000000000000000000000000000000000000000000000000081526001600160a01b03868116600483015273eeeeeeeeeeeeeeeeeeeeeeeeeeeeeeeeeeeeeeee602483018190526000604484015292519295507f0000000000000000000000000000000000000000000000000000000000000000169163b35084db91606480820192602092909190829003018186803b15801561376e57600080fd5b505afa158015613782573d6000803e3d6000fd5b505050506040513d602081101561379857600080fd5b505190505b6001600160a01b038116156137bf576137b78185856131d4565b915050610756565b5060009392505050565b6040805160028082526060820183526000928392919060208301908036833701905050905083816000815181106137fc57fe5b60200260200101906001600160a01b031690816001600160a01b031681525050828160018151811061382a57fe5b60200260200101906001600160a01b031690816001600160a01b031681525050737a250d5630b4cf539739df2c5dacb4c659f2488d6001600160a01b031663d06ca61f856001600160a01b031663313ce5676040518163ffffffff1660e01b815260040160206040518083038186803b1580156138a657600080fd5b505afa1580156138ba573d6000803e3d6000fd5b505050506040513d60208110156138d057600080fd5b5051604080517fffffffff0000000000000000000000000000000000000000000000000000000060e085901b16815260ff8316600482019081526024820192835286516044830152865187939192606401906020858101910280838360005b8381101561394757818101518382015260200161392f565b50505050905001935050505060006040518083038186803b15801561396b57600080fd5b505afa15801561397f573d6000803e3d6000fd5b505050506040513d6000823e601f3d908101601f1916820160405260208110156139a857600080fd5b81019080805160405193929190846401000000008211156139c857600080fd5b9083019060208201858111156139dd57600080fd5b82518660208202830111640100000000821117156139fa57600080fd5b82525081516020918201928201910280838360005b83811015613a27578181015183820152602001613a0f565b50505050905001604052505050600181518110613a4057fe5b602002602001015191505092915050565b60006001600160a01b03821615806107565750506001600160a01b031673eeeeeeeeeeeeeeeeeeeeeeeeeeeeeeeeeeeeeeee1490565b600080613afa876001600160a01b0316630dfe16816040518163ffffffff1660e01b815260040160206040518083038186803b158015613ac657600080fd5b505afa158015613ada573d6000803e3d6000fd5b505050506040513d6020811015613af057600080fd5b5051876000610ded565b90506000613b6e886001600160a01b031663d21220a76040518163ffffffff1660e01b815260040160206040518083038186803b158015613b3a57600080fd5b505afa158015613b4e573d6000803e3d6000fd5b505050506040513d6020811015613b6457600080fd5b5051886000610ded565b90506000613be9896001600160a01b0316630dfe16816040518163ffffffff1660e01b815260040160206040518083038186803b158015613bae57600080fd5b505afa158015613bc2573d6000803e3d6000fd5b505050506040513d6020811015613bd857600080fd5b5051896130698a6127cf8b89610d4f565b90506000613c648a6001600160a01b031663d21220a76040518163ffffffff1660e01b815260040160206040518083038186803b158015613c2957600080fd5b505afa158015613c3d573d6000803e3d6000fd5b505050506040513d6020811015613c5357600080fd5b50518a6130698b6127cf8b89610d4f565b9050613c708282613d1f565b9a9950505050505050505050565b6000613c8983613a51565b15613c9f57506001600160a01b03811631610756565b826001600160a01b03166370a08231836040518263ffffffff1660e01b815260040180826001600160a01b0316815260200191505060206040518083038186803b158015613cec57600080fd5b505afa158015613d00573d6000803e3d6000fd5b505050506040513d6020811015613d1657600080fd5b50519050610756565b8082018281101561075657600080fd5b604080516024810185905260448101849052606480820184905282518083039091018152608490910182526020810180516001600160e01b03167f556d6e9f0000000000000000000000000000000000000000000000000000000017815291518151600093849384936001600160a01b038b1693919290918291908083835b60208310613dcd5780518252601f199092019160209182019101613dae565b6001836020036101000a038019825116818451168082178552505050505050905001915050600060405180830381855afa9150503d8060008114613e2d576040519150601f19603f3d011682016040523d82523d6000602084013e613e32565b606091505b5091509150818015613e45575060008151115b15613e6b57808060200190516020811015613e5f57600080fd5b505192506107d1915050565b60408051600f88810b602483015287900b6044820152606480820187905282518083039091018152608490910182526020810180516001600160e01b03167f5e0d443f00000000000000000000000000000000000000000000000000000000178152915181516001600160a01b038b169382918083835b60208310613f015780518252601f199092019160209182019101613ee2565b6001836020036101000a038019825116818451168082178552505050505050905001915050600060405180830381855afa9150503d8060008114613f61576040519150601f19603f3d011682016040523d82523d6000602084013e613f66565b606091505b509092509050818015613f7a575060008151115b15613f9457808060200190516020811015613e5f57600080fd5b5060009695505050505050565b604080516024810185905260448101849052606480820184905282518083039091018152608490910182526020810180516001600160e01b03167f85f11d1e0000000000000000000000000000000000000000000000000000000017815291518151600093849384936001600160a01b038b1693919290918291908083835b6020831061403f5780518252601f199092019160209182019101614020565b6001836020036101000a038019825116818451168082178552505050505050905001915050600060405180830381855afa9150503d806000811461409f576040519150601f19603f3d011682016040523d82523d6000602084013e6140a4565b606091505b50915091508180156140b7575060008151115b156140d157808060200190516020811015613e5f57600080fd5b60408051600f88810b602483015287900b6044820152606480820187905282518083039091018152608490910182526020810180516001600160e01b03167f07211ef700000000000000000000000000000000000000000000000000000000178152915181516001600160a01b038b169382918083835b602083106141675780518252601f199092019160209182019101614148565b6001836020036101000a038019825116818451168082178552505050505050905001915050600060405180830381855afa9150503d80600081146141c7576040519150601f19603f3d011682016040523d82523d6000602084013e6141cc565b606091505b509092509050818015613e455750805115613e6b57808060200190516020811015613e5f57600080fd5b60008060008060008060005b6003548110156142905760008061424f8b6003858154811061422057fe5b6000918252602090912001546001600160a01b0316736b175474e89094c44da98b954eedeac495271d0f614337565b9150915083811115614286578194508093506003838154811061426e57fe5b6000918252602090912001546001600160a01b031695505b5050600101614202565b5080156142bd5786156142af576142a88289856145cc565b93506142bd565b6142ba82848a6145cc565b93505b509096919550909350505050565b6000816001600160a01b0316836001600160a01b031614156142f65750670de0b6b3a7640000610756565b60006143028484614759565b90506001600160a01b03811661431c576000915050610756565b6107d18185856145cc565b8082038281111561075657600080fd5b60008060006143468686614759565b90506001600160a01b0381166143635760008092509250506145c4565b6000806000836001600160a01b0316630dfe16816040518163ffffffff1660e01b815260040160206040518083038186803b1580156143a157600080fd5b505afa1580156143b5573d6000803e3d6000fd5b505050506040513d60208110156143cb57600080fd5b5051604080517fd21220a700000000000000000000000000000000000000000000000000000000815290519192506000916001600160a01b0387169163d21220a7916004808301926020929190829003018186803b15801561442c57600080fd5b505afa158015614440573d6000803e3d6000fd5b505050506040513d602081101561445657600080fd5b50516001600160a01b03831660009081526002602052604090205490915060ff161561450157816001600160a01b03166370a08231866040518263ffffffff1660e01b815260040180826001600160a01b0316815260200191505060206040518083038186803b1580156144c957600080fd5b505afa1580156144dd573d6000803e3d6000fd5b505050506040513d60208110156144f357600080fd5b505193509091508190614580565b806001600160a01b03166370a08231866040518263ffffffff1660e01b815260040180826001600160a01b0316815260200191505060206040518083038186803b15801561454e57600080fd5b505afa158015614562573d6000803e3d6000fd5b505050506040513d602081101561457857600080fd5b505193509150815b876001600160a01b0316836001600160a01b0316146145ba5760006145a5848a6142cb565b90506145b6848a61306988856127b7565b9450505b5092945090925050505b935093915050565b6000816001600160a01b0316836001600160a01b031614156145f75750670de0b6b3a7640000610de6565b6000846001600160a01b0316633850c7bd6040518163ffffffff1660e01b815260040160e06040518083038186803b15801561463257600080fd5b505afa158015614646573d6000803e3d6000fd5b505050506040513d60e081101561465c57600080fd5b5060200151905061466d8186614b46565b61467b576000915050610de6565b6147506146f1856001600160a01b031663313ce5676040518163ffffffff1660e01b815260040160206040518083038186803b1580156146ba57600080fd5b505afa1580156146ce573d6000803e3d6000fd5b505050506040513d60208110156146e457600080fd5b505160129060ff16614327565b600a0a6127cf83614749614737886001600160a01b031663313ce5676040518163ffffffff1660e01b815260040160206040518083038186803b1580156146ba57600080fd5b670de0b6b3a764000090600a0a610d4f565b8888614c3e565b95945050505050565b60408051630b4c774160e11b81526001600160a01b038481166004830152831660248201526101f4604482015290516000918291731f98431c8ad98523631ae4a59f267346ea31f98491631698ee82916064808301926020929190829003018186803b1580156147c857600080fd5b505afa1580156147dc573d6000803e3d6000fd5b505050506040513d60208110156147f257600080fd5b505160408051630b4c774160e11b81526001600160a01b03878116600483015286166024820152610bb860448201529051919250600091731f98431c8ad98523631ae4a59f267346ea31f98491631698ee82916064808301926020929190829003018186803b15801561486457600080fd5b505afa158015614878573d6000803e3d6000fd5b505050506040513d602081101561488e57600080fd5b505160408051630b4c774160e11b81526001600160a01b0388811660048301528716602482015261271060448201529051919250600091731f98431c8ad98523631ae4a59f267346ea31f98491631698ee82916064808301926020929190829003018186803b15801561490057600080fd5b505afa158015614914573d6000803e3d6000fd5b505050506040513d602081101561492a57600080fd5b5051905060006001600160a01b0384166149455760006149ab565b836001600160a01b0316631a6865026040518163ffffffff1660e01b815260040160206040518083038186803b15801561497e57600080fd5b505afa158015614992573d6000803e3d6000fd5b505050506040513d60208110156149a857600080fd5b50515b905060006001600160a01b0384166149c4576000614a2a565b836001600160a01b0316631a6865026040518163ffffffff1660e01b815260040160206040518083038186803b1580156149fd57600080fd5b505afa158015614a11573d6000803e3d6000fd5b505050506040513d6020811015614a2757600080fd5b50515b905060006001600160a01b038416614a43576000614aa9565b836001600160a01b0316631a6865026040518163ffffffff1660e01b815260040160206040518083038186803b158015614a7c57600080fd5b505afa158015614a90573d6000803e3d6000fd5b505050506040513d6020811015614aa657600080fd5b50515b9050816001600160801b0316836001600160801b031610158015614adf5750806001600160801b0316836001600160801b031610155b15614af257859650505050505050610756565b826001600160801b0316826001600160801b031610158015614b265750806001600160801b0316826001600160801b031610155b15614b3957849650505050505050610756565b5091979650505050505050565b600080826001600160a01b031663d0c93a7c6040518163ffffffff1660e01b815260040160206040518083038186803b158015614b8257600080fd5b505afa158015614b96573d6000803e3d6000fd5b505050506040513d6020811015614bac57600080fd5b50519050620d85ff198101600290810b9085900b1215614bd0576000915050610756565b806103e8620d89e719600003030360020b8460020b1315614bf5576000915050610756565b6000614c0084614d35565b905060008160060b8660020b13614c1c578560020b8203614c23565b818660020b035b600454600290810b900b60069190910b129695505050505050565b600080614c4a86614fde565b90506001600160801b036001600160a01b03821611614cb9576001600160a01b0380821680029084811690861610614c9957614c94600160c01b876001600160801b03168361532c565b614cb1565b614cb181876001600160801b0316600160c01b61532c565b925050614d2c565b6000614cd86001600160a01b038316806801000000000000000061532c565b9050836001600160a01b0316856001600160a01b031610614d1057614d0b600160801b876001600160801b03168361532c565b614d28565b614d2881876001600160801b0316600160801b61532c565b9250505b50949350505050565b60408051600280825260608201835260009283929190602083019080368337019050509050601e81600081518110614d6957fe5b602002602001019063ffffffff16908163ffffffff1681525050600081600181518110614d9257fe5b63ffffffff9092166020928302919091018201526040517f883bdbfd000000000000000000000000000000000000000000000000000000008152600481018281528351602483015283516001600160a01b0387169363883bdbfd938693928392604490920191858101910280838360005b83811015614e1b578181015183820152602001614e03565b505050509050019250505060006040518083038186803b158015614e3e57600080fd5b505afa925050508015614f8857506040513d6000823e601f3d908101601f191682016040908152811015614e7157600080fd5b8101908080516040519392919084640100000000821115614e9157600080fd5b908301906020820185811115614ea657600080fd5b8251866020820283011164010000000082111715614ec357600080fd5b82525081516020918201928201910280838360005b83811015614ef0578181015183820152602001614ed8565b5050505090500160405260200180516040519392919084640100000000821115614f1957600080fd5b908301906020820185811115614f2e57600080fd5b8251866020820283011164010000000082111715614f4b57600080fd5b82525081516020918201928201910280838360005b83811015614f78578181015183820152602001614f60565b5050505090500160405250505060015b614f965760009150506127b2565b601e63ffffffff1682600081518110614fab57fe5b602002602001015183600181518110614fc057fe5b60200260200101510360060b81614fd357fe5b0593505050506127b2565b60008060008360020b12614ff5578260020b614ffd565b8260020b6000035b9050620d89e8811115615057576040805162461bcd60e51b815260206004820152600160248201527f5400000000000000000000000000000000000000000000000000000000000000604482015290519081900360640190fd5b60006001821661506b57600160801b61507d565b6ffffcb933bd6fad37aa2d162d1a5940015b70ffffffffffffffffffffffffffffffffff16905060028216156150b1576ffff97272373d413259a46990580e213a0260801c5b60048216156150d0576ffff2e50f5f656932ef12357cf3c7fdcc0260801c5b60088216156150ef576fffe5caca7e10e4e61c3624eaa0941cd00260801c5b601082161561510e576fffcb9843d60f6159c9db58835c9266440260801c5b602082161561512d576fff973b41fa98c081472e6896dfb254c00260801c5b604082161561514c576fff2ea16466c96a3843ec78b326b528610260801c5b608082161561516b576ffe5dee046a99a2a811c461f1969c30530260801c5b61010082161561518b576ffcbe86c7900a88aedcffc83b479aa3a40260801c5b6102008216156151ab576ff987a7253ac413176f2b074cf7815e540260801c5b6104008216156151cb576ff3392b0822b70005940c7a398e4b70f30260801c5b6108008216156151eb576fe7159475a2c29b7443b29c7fa6e889d90260801c5b61100082161561520b576fd097f3bdfd2022b8845ad8f792aa58250260801c5b61200082161561522b576fa9f746462d870fdf8a65dc1f90e061e50260801c5b61400082161561524b576f70d869a156d2a1b890bb3df62baf32f70260801c5b61800082161561526b576f31be135f97d08fd981231505542fcfa60260801c5b6201000082161561528c576f09aa508b5b7a84e1c677de54f3e99bc90260801c5b620200008216156152ac576e5d6af8dedb81196699c329225ee6040260801c5b620400008216156152cb576d2216e584f5fa1ea926041bedfe980260801c5b620800008216156152e8576b048a170391f7dc42444e8fa20260801c5b60008460020b13156153035780600019816152ff57fe5b0490505b64010000000081061561531757600161531a565b60005b60ff16602082901c0192505050919050565b6000808060001985870986860292508281109083900303905080615362576000841161535757600080fd5b508290049050610de6565b80841161536e57600080fd5b6000848688096000868103871696879004966002600389028118808a02820302808a02820302808a02820302808a02820302808a02820302808a02909103029181900381900460010186841190950394909402919094039290920491909117919091029150509392505050565b508054600082559060005260206000209081019061096791905b8082111561540957600081556001016153f5565b509056fe4f776e61626c653a206e6577206f776e657220697320746865207a65726f20616464726573734d6178207477617020646576696174696f6e206d7573742062652077697468696e2072616e67654f6e6c7920676f7665726e616e6365206f7220656d657267656e63792063616e2063616c6c2074686973a26469706673582212200ecd7cdf5abe77384afe786f85f2c5c20644acb99ce47e3000257a017d887ae764736f6c63430007060033",
  "devdoc": {
    "author": "Babylon Finance Protocol Uses Uniswap V3 to get a price of a token pair",
    "kind": "dev",
    "methods": {
      "getPrice(address,address)": {
        "params": {
          "_tokenIn": "Address of the first token",
          "_tokenOut": "Address of the second token"
        },
        "returns": {
          "price": "               Price of the pair"
        }
      },
      "getPriceNAV(address,address)": {
        "params": {
          "_tokenIn": "Address of the first token",
          "_tokenOut": "Address of the second token"
        },
        "returns": {
          "price": "               Price of the pair"
        }
      },
      "owner()": {
        "details": "Returns the address of the current owner."
      },
      "renounceOwnership()": {
        "details": "Leaves the contract without owner. It will not be possible to call `onlyOwner` functions anymore. Can only be called by the current owner. NOTE: Renouncing ownership will leave the contract without an owner, thereby removing any functionality that is only available to the owner."
      },
      "transferOwnership(address)": {
        "details": "Transfers ownership of the contract to a new account (`newOwner`). Can only be called by the current owner."
      }
    },
    "title": "PriceOracle",
    "version": 1
  },
  "userdoc": {
    "kind": "user",
    "methods": {
      "getPrice(address,address)": {
        "notice": "Returns the amount out corresponding to the amount in for a given token"
      },
      "getPriceNAV(address,address)": {
        "notice": "Returns the amount out corresponding to the amount in for a given token"
      }
    },
    "version": 1
  },
  "storageLayout": {
    "storage": [
      {
        "astId": 1456,
        "contract": "contracts/PriceOracle.sol:PriceOracle",
        "label": "_owner",
        "offset": 0,
        "slot": "0",
        "type": "t_address"
      },
      {
        "astId": 16080,
        "contract": "contracts/PriceOracle.sol:PriceOracle",
        "label": "tokenIdentifier",
        "offset": 0,
        "slot": "1",
        "type": "t_contract(ITokenIdentifier)45628"
      },
      {
        "astId": 16092,
        "contract": "contracts/PriceOracle.sol:PriceOracle",
        "label": "hopTokens",
        "offset": 0,
        "slot": "2",
        "type": "t_mapping(t_address,t_bool)"
      },
      {
        "astId": 16095,
        "contract": "contracts/PriceOracle.sol:PriceOracle",
        "label": "hopTokensList",
        "offset": 0,
        "slot": "3",
        "type": "t_array(t_address)dyn_storage"
      },
      {
        "astId": 16097,
        "contract": "contracts/PriceOracle.sol:PriceOracle",
        "label": "maxTwapDeviation",
        "offset": 0,
        "slot": "4",
        "type": "t_int24"
      }
    ],
    "types": {
      "t_address": {
        "encoding": "inplace",
        "label": "address",
        "numberOfBytes": "20"
      },
      "t_array(t_address)dyn_storage": {
        "base": "t_address",
        "encoding": "dynamic_array",
        "label": "address[]",
        "numberOfBytes": "32"
      },
      "t_bool": {
        "encoding": "inplace",
        "label": "bool",
        "numberOfBytes": "1"
      },
      "t_contract(ITokenIdentifier)45628": {
        "encoding": "inplace",
        "label": "contract ITokenIdentifier",
        "numberOfBytes": "20"
      },
      "t_int24": {
        "encoding": "inplace",
        "label": "int24",
        "numberOfBytes": "3"
      },
      "t_mapping(t_address,t_bool)": {
        "encoding": "mapping",
        "key": "t_address",
        "label": "mapping(address => bool)",
        "numberOfBytes": "32",
        "value": "t_bool"
      }
    }
  }
}