{
  "address": "0x4bEB127e735647116cf428A3C951c93f46B49fA7",
  "abi": [
    {
      "inputs": [
        {
          "internalType": "contract IBabController",
          "name": "_controller",
          "type": "address"
        },
        {
          "internalType": "address",
          "name": "_uniswapAnchoredView",
          "type": "address"
        },
        {
          "internalType": "address[]",
          "name": "_adapters",
          "type": "address[]"
        }
      ],
      "stateMutability": "nonpayable",
      "type": "constructor"
    },
    {
      "anonymous": false,
      "inputs": [
        {
          "indexed": false,
          "internalType": "address",
          "name": "_adapter",
          "type": "address"
        }
      ],
      "name": "AdapterAdded",
      "type": "event"
    },
    {
      "anonymous": false,
      "inputs": [
        {
          "indexed": false,
          "internalType": "address",
          "name": "_adapter",
          "type": "address"
        }
      ],
      "name": "AdapterRemoved",
      "type": "event"
    },
    {
      "anonymous": false,
      "inputs": [
        {
          "indexed": true,
          "internalType": "address",
          "name": "previousOwner",
          "type": "address"
        },
        {
          "indexed": true,
          "internalType": "address",
          "name": "newOwner",
          "type": "address"
        }
      ],
      "name": "OwnershipTransferred",
      "type": "event"
    },
    {
      "inputs": [],
      "name": "WETH",
      "outputs": [
        {
          "internalType": "address",
          "name": "",
          "type": "address"
        }
      ],
      "stateMutability": "view",
      "type": "function"
    },
    {
      "inputs": [
        {
          "internalType": "uint256",
          "name": "",
          "type": "uint256"
        }
      ],
      "name": "adapters",
      "outputs": [
        {
          "internalType": "address",
          "name": "",
          "type": "address"
        }
      ],
      "stateMutability": "view",
      "type": "function"
    },
    {
      "inputs": [
        {
          "internalType": "address",
          "name": "_adapter",
          "type": "address"
        }
      ],
      "name": "addAdapter",
      "outputs": [],
      "stateMutability": "nonpayable",
      "type": "function"
    },
    {
      "inputs": [],
      "name": "controller",
      "outputs": [
        {
          "internalType": "contract IBabController",
          "name": "",
          "type": "address"
        }
      ],
      "stateMutability": "view",
      "type": "function"
    },
    {
      "inputs": [],
      "name": "getAdapters",
      "outputs": [
        {
          "internalType": "address[]",
          "name": "",
          "type": "address[]"
        }
      ],
      "stateMutability": "view",
      "type": "function"
    },
    {
      "inputs": [
        {
          "internalType": "address",
          "name": "_assetOne",
          "type": "address"
        },
        {
          "internalType": "address",
          "name": "_assetTwo",
          "type": "address"
        }
      ],
      "name": "getPrice",
      "outputs": [
        {
          "internalType": "uint256",
          "name": "",
          "type": "uint256"
        }
      ],
      "stateMutability": "view",
      "type": "function"
    },
    {
      "inputs": [],
      "name": "owner",
      "outputs": [
        {
          "internalType": "address",
          "name": "",
          "type": "address"
        }
      ],
      "stateMutability": "view",
      "type": "function"
    },
    {
      "inputs": [
        {
          "internalType": "address",
          "name": "_adapter",
          "type": "address"
        }
      ],
      "name": "removeAdapter",
      "outputs": [],
      "stateMutability": "nonpayable",
      "type": "function"
    },
    {
      "inputs": [],
      "name": "renounceOwnership",
      "outputs": [],
      "stateMutability": "nonpayable",
      "type": "function"
    },
    {
      "inputs": [
        {
          "internalType": "address",
          "name": "newOwner",
          "type": "address"
        }
      ],
      "name": "transferOwnership",
      "outputs": [],
      "stateMutability": "nonpayable",
      "type": "function"
    },
    {
      "inputs": [],
      "name": "uniswapAnchoredView",
      "outputs": [
        {
          "internalType": "address",
          "name": "",
          "type": "address"
        }
      ],
      "stateMutability": "view",
      "type": "function"
    },
    {
      "inputs": [
        {
          "internalType": "address",
          "name": "",
          "type": "address"
        }
      ],
      "name": "uniswapAssets",
      "outputs": [
        {
          "internalType": "bool",
          "name": "",
          "type": "bool"
        }
      ],
      "stateMutability": "view",
      "type": "function"
    },
    {
      "inputs": [
        {
          "internalType": "address",
          "name": "_assetOne",
          "type": "address"
        },
        {
          "internalType": "address",
          "name": "_assetTwo",
          "type": "address"
        }
      ],
      "name": "updateAdapters",
      "outputs": [],
      "stateMutability": "nonpayable",
      "type": "function"
    }
  ],
  "transactionHash": "0x7e2f5b0f0209a441657b1d7eddce1db5ddc1241c434e13d2d26ff29d7cd1dbc2",
  "args": [
    "0xD4a5b5fcB561dAF3aDF86F8477555B92FBa43b5F",
    "0x922018674c12a7f0d394ebeef9b58f186cde13c1",
    [
      "0xDB1Bf4f4976A4BEd769B9106bd41E0211E342446"
    ]
  ],
  "solcInputHash": "3d00fad6e2a8def9880d61c8c4c2d9ca",
  "bytecode": "0x60a06040523480156200001157600080fd5b50604051620019dc380380620019dc833981810160405260608110156200003757600080fd5b815160208301516040808501805191519395929483019291846401000000008211156200006357600080fd5b9083019060208201858111156200007957600080fd5b82518660208202830111640100000000821117156200009757600080fd5b82525081516020918201928201910280838360005b83811015620000c6578181015183820152602001620000ac565b505050509050016040525050506000620000e56200036460201b60201c565b600080546001600160a01b0319166001600160a01b0383169081178255604051929350917f8be0079c531659141344cd1fd0a4f28419497f9722a3daafe3b4186f6b6457e0908290a350600180546001600160a01b0319166001600160a01b038516179055606082901b6001600160601b03191660805280516200017190600390602084019062000368565b5050600260205250507ff02f5385b52432c1a270c20c346d380219f286755cbd16bede4ce0fb454a47228054600160ff1991821681179092557fbc4f91af6423551ffb095ab57fd8affaf8c0c400f88b85432aa0b71ca6d09ab380548216831790557fc29c4999a78c3ebf71622ad23dd87d0a73f0b43e94d51a582a710fc0a0921d5780548216831790557f7be26d2af1bea3dd5deab9fbd0b6e87e4de83102162a2c5d67a45f045affba2280548216831790557f1f4dd463c37659e35d28ba19019b4855faa73d28cfc23cf4537ed418b65536d780548216831790557f698237dfa634d11da10159d70f72b31f9b252a79768d52db914572ce99f0c7b080548216831790557fb1c2a895b81f98ee8aadc4d2e6de299902d38600ad58ce7d06c7d9ac3e628c5e80548216831790557fb7598821b71eb990d952f174dec3507a6d48dc93be8e23cae785c98ca310bfbb80548216831790557f8e26ad65a8968434acdb37383cda23018c5945aba6d6e7c8399e7184ccde361780548216831790557fac33ff75c19e70fe83507db0d683fd3465c996598dc972688b7ace676c89077b805482168317905573c02aaa39b223fe8d0a0e5c4f27ead9083c756cc26000527fde032e96a833a2191f55c5766e34554d9b07734477ea9cb69c40158c1078e79380549091169091179055620003e9565b3390565b828054828255906000526020600020908101928215620003c0579160200282015b82811115620003c057825182546001600160a01b0319166001600160a01b0390911617825560209092019160019091019062000389565b50620003ce929150620003d2565b5090565b5b80821115620003ce5760008155600101620003d3565b60805160601c6115d06200040c600039806102bb5280610c4152506115d06000f3fe608060405234801561001057600080fd5b50600436106100df5760003560e01c80638da5cb5b1161008c578063b82e16e311610066578063b82e16e3146101f9578063d2179e8d14610251578063f2fde38b1461028b578063f77c4791146102b1576100df565b80638da5cb5b146101a9578063ac41865a146101b1578063ad5c4648146101f1576100df565b80635e684bb3116100bd5780635e684bb31461014d57806360d54d411461017b578063715018a6146101a1576100df565b80630af45704146100e45780634ef501ac14610108578063585cd34b14610125575b600080fd5b6100ec6102b9565b604080516001600160a01b039092168252519081900360200190f35b6100ec6004803603602081101561011e57600080fd5b50356102dd565b61014b6004803603602081101561013b57600080fd5b50356001600160a01b0316610307565b005b61014b6004803603604081101561016357600080fd5b506001600160a01b038135811691602001351661043c565b61014b6004803603602081101561019157600080fd5b50356001600160a01b03166104f1565b61014b6106b5565b6100ec610780565b6101df600480360360408110156101c757600080fd5b506001600160a01b038135811691602001351661078f565b60408051918252519081900360200190f35b6100ec6109a2565b6102016109ba565b60408051602080825283518183015283519192839290830191858101910280838360005b8381101561023d578181015183820152602001610225565b505050509050019250505060405180910390f35b6102776004803603602081101561026757600080fd5b50356001600160a01b0316610a1c565b604080519115158252519081900360200190f35b61014b600480360360208110156102a157600080fd5b50356001600160a01b0316610a31565b6100ec610b52565b7f000000000000000000000000000000000000000000000000000000000000000081565b600381815481106102ed57600080fd5b6000918252602090912001546001600160a01b0316905081565b61030f610b61565b6001600160a01b0316610320610780565b6001600160a01b03161461037b576040805162461bcd60e51b815260206004820181905260248201527f4f776e61626c653a2063616c6c6572206973206e6f7420746865206f776e6572604482015290519081900360640190fd5b6103e88160038054806020026020016040519081016040528092919081815260200182805480156103d557602002820191906000526020600020905b81546001600160a01b031681526001909101906020018083116103b7575b5050505050610b6590919063ffffffff16565b80516103fc916003916020909101906114cc565b50604080516001600160a01b038316815290517fdf980d21d8c7bb34800e668dbe003299093bac8e693614151d3c57f73f98a93d9181900360200190a150565b60005b6003548110156104ec576003818154811061045657fe5b6000918252602082200154604080517fc640752d0000000000000000000000000000000000000000000000000000000081526001600160a01b03878116600483015286811660248301529151919092169263c640752d926044808201939182900301818387803b1580156104c957600080fd5b505af11580156104dd573d6000803e3d6000fd5b5050505060018101905061043f565b505050565b6104f9610b61565b6001600160a01b031661050a610780565b6001600160a01b031614610565576040805162461bcd60e51b815260206004820181905260248201527f4f776e61626c653a2063616c6c6572206973206e6f7420746865206f776e6572604482015290519081900360640190fd5b6105d28160038054806020026020016040519081016040528092919081815260200182805480156105bf57602002820191906000526020600020905b81546001600160a01b031681526001909101906020018083116105a1575b5050505050610be290919063ffffffff16565b15610624576040805162461bcd60e51b815260206004820152601660248201527f4164617074657220616c72656164792065786973747300000000000000000000604482015290519081900360640190fd5b600380546001810182556000919091527fc2575a0e9e593c00f959f8c92f12db2869c3395a3b0502d05e2516446f71f85b0180546001600160a01b03831673ffffffffffffffffffffffffffffffffffffffff19909116811790915560408051918252517fcf9c2c7f9adbb156bd76affb04df84595f8f5e69cab2e61221b05b05a902fa269181900360200190a150565b6106bd610b61565b6001600160a01b03166106ce610780565b6001600160a01b031614610729576040805162461bcd60e51b815260206004820181905260248201527f4f776e61626c653a2063616c6c6572206973206e6f7420746865206f776e6572604482015290519081900360640190fd5b600080546040516001600160a01b03909116907f8be0079c531659141344cd1fd0a4f28419497f9722a3daafe3b4186f6b6457e0908390a36000805473ffffffffffffffffffffffffffffffffffffffff19169055565b6000546001600160a01b031690565b600154604080517f13bc6d4b00000000000000000000000000000000000000000000000000000000815233600482015290516000926001600160a01b0316916313bc6d4b916024808301926020929190829003018186803b1580156107f357600080fd5b505afa158015610807573d6000803e3d6000fd5b505050506040513d602081101561081d57600080fd5b505180610842575061082d610780565b6001600160a01b0316336001600160a01b0316145b610893576040805162461bcd60e51b815260206004820152601e60248201527f43616c6c6572206d7573742062652073797374656d20636f6e74726163740000604482015290519081900360640190fd5b816001600160a01b0316836001600160a01b0316141561091f57826001600160a01b031663313ce5676040518163ffffffff1660e01b815260040160206040518083038186803b1580156108e657600080fd5b505afa1580156108fa573d6000803e3d6000fd5b505050506040513d602081101561091057600080fd5b505160ff16600a0a905061099c565b60008061092c8585610bf8565b90925090508161094657610940858561112c565b90925090505b81610998576040805162461bcd60e51b815260206004820152600f60248201527f5072696365206e6f7420666f756e640000000000000000000000000000000000604482015290519081900360640190fd5b9150505b92915050565b73c02aaa39b223fe8d0a0e5c4f27ead9083c756cc281565b60606003805480602002602001604051908101604052809291908181526020018280548015610a1257602002820191906000526020600020905b81546001600160a01b031681526001909101906020018083116109f4575b5050505050905090565b60026020526000908152604090205460ff1681565b610a39610b61565b6001600160a01b0316610a4a610780565b6001600160a01b031614610aa5576040805162461bcd60e51b815260206004820181905260248201527f4f776e61626c653a2063616c6c6572206973206e6f7420746865206f776e6572604482015290519081900360640190fd5b6001600160a01b038116610aea5760405162461bcd60e51b81526004018080602001828103825260268152602001806115546026913960400191505060405180910390fd5b600080546040516001600160a01b03808516939216917f8be0079c531659141344cd1fd0a4f28419497f9722a3daafe3b4186f6b6457e091a36000805473ffffffffffffffffffffffffffffffffffffffff19166001600160a01b0392909216919091179055565b6001546001600160a01b031681565b3390565b6060600080610b748585611220565b9150915080610bca576040805162461bcd60e51b815260206004820152601560248201527f41646472657373206e6f7420696e2061727261792e0000000000000000000000604482015290519081900360640190fd5b6000610bd68684611283565b50935061099c92505050565b600080610bef8484611220565b95945050505050565b6001600160a01b038216600090815260026020526040812054819060ff168015610c3a57506001600160a01b03831660009081526002602052604090205460ff165b1561111e577f000000000000000000000000000000000000000000000000000000000000000060006001600160a01b03861673c02aaa39b223fe8d0a0e5c4f27ead9083c756cc214610db157856001600160a01b03166395d89b416040518163ffffffff1660e01b815260040160006040518083038186803b158015610cbf57600080fd5b505afa158015610cd3573d6000803e3d6000fd5b505050506040513d6000823e601f3d908101601f191682016040526020811015610cfc57600080fd5b8101908080516040519392919084640100000000821115610d1c57600080fd5b908301906020820185811115610d3157600080fd5b8251640100000000811182820188101715610d4b57600080fd5b82525081516020918201929091019080838360005b83811015610d78578181015183820152602001610d60565b50505050905090810190601f168015610da55780820380516001836020036101000a031916815260200191505b50604052505050610dce565b6040518060400160405280600381526020016208aa8960eb1b8152505b905060006001600160a01b03861673c02aaa39b223fe8d0a0e5c4f27ead9083c756cc214610f2157856001600160a01b03166395d89b416040518163ffffffff1660e01b815260040160006040518083038186803b158015610e2f57600080fd5b505afa158015610e43573d6000803e3d6000fd5b505050506040513d6000823e601f3d908101601f191682016040526020811015610e6c57600080fd5b8101908080516040519392919084640100000000821115610e8c57600080fd5b908301906020820185811115610ea157600080fd5b8251640100000000811182820188101715610ebb57600080fd5b82525081516020918201929091019080838360005b83811015610ee8578181015183820152602001610ed0565b50505050905090810190601f168015610f155780820380516001836020036101000a031916815260200191505b50604052505050610f3e565b6040518060400160405280600381526020016208aa8960eb1b8152505b604051631fc58c3360e31b81526020600482018181528551602484015285519394506000936001600160a01b0388169363fe2c6198938893928392604401918501908083838b5b83811015610f9d578181015183820152602001610f85565b50505050905090810190601f168015610fca5780820380516001836020036101000a031916815260200191505b509250505060206040518083038186803b158015610fe757600080fd5b505afa158015610ffb573d6000803e3d6000fd5b505050506040513d602081101561101157600080fd5b5051604051631fc58c3360e31b81526020600482018181528551602484015285519394506000936001600160a01b0389169363fe2c6198938893928392604401918501908083838b5b8381101561107257818101518382015260200161105a565b50505050905090810190601f16801561109f5780820380516001836020036101000a031916815260200191505b509250505060206040518083038186803b1580156110bc57600080fd5b505afa1580156110d0573d6000803e3d6000fd5b505050506040513d60208110156110e657600080fd5b5051905081158015906110f95750600081115b1561111857600161110a83836113e7565b965096505050505050611125565b50505050505b5060009050805b9250929050565b60008060005b600354811015611213576000806003838154811061114c57fe5b600091825260209091200154604080517fac41865a0000000000000000000000000000000000000000000000000000000081526001600160a01b038a811660048301528981166024830152825193169263ac41865a92604480840193919291829003018186803b1580156111bf57600080fd5b505afa1580156111d3573d6000803e3d6000fd5b505050506040513d60408110156111e957600080fd5b508051602090910151909250905081156112095790935091506111259050565b5050600101611132565b5060009485945092505050565b81516000908190815b8181101561127357846001600160a01b031686828151811061124757fe5b60200260200101516001600160a01b0316141561126b579250600191506111259050565b600101611229565b5060001995600095509350505050565b81516060906000908084106112df576040805162461bcd60e51b815260206004820152601860248201527f496e646578206d757374206265203c2041206c656e6774680000000000000000604482015290519081900360640190fd5b60006001820367ffffffffffffffff811180156112fb57600080fd5b50604051908082528060200260200182016040528015611325578160200160208202803683370190505b50905060005b858110156113735786818151811061133f57fe5b602002602001015182828151811061135357fe5b6001600160a01b039092166020928302919091019091015260010161132b565b50600185015b828110156113c45786818151811061138d57fe5b60200260200101518260018303815181106113a457fe5b6001600160a01b0390921660209283029190910190910152600101611379565b50808686815181106113d257fe5b60200260200101519350935050509250929050565b6000611405826113ff85670de0b6b3a764000061140c565b90611465565b9392505050565b60008261141b5750600061099c565b8282028284828161142857fe5b04146114055760405162461bcd60e51b815260040180806020018281038252602181526020018061157a6021913960400191505060405180910390fd5b60008082116114bb576040805162461bcd60e51b815260206004820152601a60248201527f536166654d6174683a206469766973696f6e206279207a65726f000000000000604482015290519081900360640190fd5b8183816114c457fe5b049392505050565b82805482825590600052602060002090810192821561152e579160200282015b8281111561152e578251825473ffffffffffffffffffffffffffffffffffffffff19166001600160a01b039091161782556020909201916001909101906114ec565b5061153a92915061153e565b5090565b5b8082111561153a576000815560010161153f56fe4f776e61626c653a206e6577206f776e657220697320746865207a65726f2061646472657373536166654d6174683a206d756c7469706c69636174696f6e206f766572666c6f77a2646970667358221220b759d78ed7501c7f1b9083c8f3b591013479b9d224fb720b56affc8c5b7fdaea64736f6c63430007060033",
  "devdoc": {
    "author": "Babylon Finance Contract that returns the price for any given asset pair. Price is retrieved either directly from an oracle, calculated using common asset pairs, or uses external data to calculate price. Note: Prices are returned in preciseUnits (i.e. 18 decimals of precision)",
    "kind": "dev",
    "methods": {
      "addAdapter(address)": {
        "params": {
          "_adapter": "Address of new adapter"
        }
      },
      "constructor": {
        "params": {
          "_adapters": "List of adapters used to price assets created by other protocols",
          "_controller": "Address of controller contract",
          "_uniswapAnchoredView": "Address of the uniswap anchored view that compound maintains"
        }
      },
      "getPrice(address,address)": {
        "params": {
          "_assetOne": "Address of first asset in pair",
          "_assetTwo": "Address of second asset in pair"
        },
        "returns": {
          "_0": "Price of asset pair to 18 decimals of precision"
        }
      },
      "owner()": {
        "details": "Returns the address of the current owner."
      },
      "removeAdapter(address)": {
        "params": {
          "_adapter": "Address of  adapter to remove"
        }
      },
      "renounceOwnership()": {
        "details": "Leaves the contract without owner. It will not be possible to call `onlyOwner` functions anymore. Can only be called by the current owner. NOTE: Renouncing ownership will leave the contract without an owner, thereby removing any functionality that is only available to the owner."
      },
      "transferOwnership(address)": {
        "details": "Transfers ownership of the contract to a new account (`newOwner`). Can only be called by the current owner."
      },
      "updateAdapters(address,address)": {
        "params": {
          "_assetOne": "First Asset of the pair",
          "_assetTwo": "Second Asset of the pair"
        }
      }
    },
    "title": "PriceOracle",
    "version": 1
  },
  "userdoc": {
    "kind": "user",
    "methods": {
      "addAdapter(address)": {
        "notice": "GOVERNANCE FUNCTION: Add new oracle adapter."
      },
      "constructor": {
        "notice": "Set state variables and map asset pairs to their oracles"
      },
      "getAdapters()": {
        "notice": "Returns an array of adapters"
      },
      "getPrice(address,address)": {
        "notice": "SYSTEM-ONLY PRIVELEGE: Find price of passed asset pair, if possible. The steps it takes are:  1) Check to see if a direct or inverse oracle of the pair exists,  2) If not, use masterQuoteAsset to link pairs together (i.e. BTC/ETH and ETH/USDC     could be used to calculate BTC/USDC).  3) If not, check oracle adapters in case one or more of the assets needs external protocol data     to price.  4) If all steps fail, revert."
      },
      "removeAdapter(address)": {
        "notice": "GOVERNANCE FUNCTION: Remove oracle adapter."
      },
      "updateAdapters(address,address)": {
        "notice": "Calls the update function in every adapter. e.g Uniswap TWAP"
      }
    },
    "version": 1
  },
  "storageLayout": {
    "storage": [
      {
        "astId": 1456,
        "contract": "contracts/PriceOracle.sol:PriceOracle",
        "label": "_owner",
        "offset": 0,
        "slot": "0",
        "type": "t_address"
      },
      {
        "astId": 14610,
        "contract": "contracts/PriceOracle.sol:PriceOracle",
        "label": "controller",
        "offset": 0,
        "slot": "1",
        "type": "t_contract(IBabController)25452"
      },
      {
        "astId": 14617,
        "contract": "contracts/PriceOracle.sol:PriceOracle",
        "label": "uniswapAssets",
        "offset": 0,
        "slot": "2",
        "type": "t_mapping(t_address,t_bool)"
      },
      {
        "astId": 14622,
        "contract": "contracts/PriceOracle.sol:PriceOracle",
        "label": "adapters",
        "offset": 0,
        "slot": "3",
        "type": "t_array(t_address)dyn_storage"
      }
    ],
    "types": {
      "t_address": {
        "encoding": "inplace",
        "label": "address",
        "numberOfBytes": "20"
      },
      "t_array(t_address)dyn_storage": {
        "base": "t_address",
        "encoding": "dynamic_array",
        "label": "address[]",
        "numberOfBytes": "32"
      },
      "t_bool": {
        "encoding": "inplace",
        "label": "bool",
        "numberOfBytes": "1"
      },
      "t_contract(IBabController)25452": {
        "encoding": "inplace",
        "label": "contract IBabController",
        "numberOfBytes": "20"
      },
      "t_mapping(t_address,t_bool)": {
        "encoding": "mapping",
        "key": "t_address",
        "label": "mapping(address => bool)",
        "numberOfBytes": "32",
        "value": "t_bool"
      }
    }
  }
}