{
  "address": "0x0A54bd913755F19Ed0DEC2246a1A4BCdFc73E498",
  "abi": [
    {
      "inputs": [
        {
          "internalType": "contract ITokenIdentifier",
          "name": "_tokenIdentifier",
          "type": "address"
        },
        {
          "internalType": "contract IBabController",
          "name": "_controller",
          "type": "address"
        }
      ],
      "stateMutability": "nonpayable",
      "type": "constructor"
    },
    {
      "anonymous": false,
      "inputs": [
        {
          "indexed": true,
          "internalType": "address",
          "name": "previousOwner",
          "type": "address"
        },
        {
          "indexed": true,
          "internalType": "address",
          "name": "newOwner",
          "type": "address"
        }
      ],
      "name": "OwnershipTransferred",
      "type": "event"
    },
    {
      "inputs": [],
      "name": "controller",
      "outputs": [
        {
          "internalType": "contract IBabController",
          "name": "",
          "type": "address"
        }
      ],
      "stateMutability": "view",
      "type": "function"
    },
    {
      "inputs": [
        {
          "internalType": "address",
          "name": "_asset",
          "type": "address"
        },
        {
          "internalType": "address",
          "name": "_underlying",
          "type": "address"
        }
      ],
      "name": "getCompoundExchangeRate",
      "outputs": [
        {
          "internalType": "uint256",
          "name": "",
          "type": "uint256"
        }
      ],
      "stateMutability": "view",
      "type": "function"
    },
    {
      "inputs": [
        {
          "internalType": "address",
          "name": "_asset",
          "type": "address"
        },
        {
          "internalType": "address",
          "name": "_underlying",
          "type": "address"
        }
      ],
      "name": "getCreamExchangeRate",
      "outputs": [
        {
          "internalType": "uint256",
          "name": "",
          "type": "uint256"
        }
      ],
      "stateMutability": "view",
      "type": "function"
    },
    {
      "inputs": [
        {
          "internalType": "address",
          "name": "_tokenIn",
          "type": "address"
        },
        {
          "internalType": "address",
          "name": "_tokenOut",
          "type": "address"
        }
      ],
      "name": "getPrice",
      "outputs": [
        {
          "internalType": "uint256",
          "name": "price",
          "type": "uint256"
        }
      ],
      "stateMutability": "view",
      "type": "function"
    },
    {
      "inputs": [
        {
          "internalType": "address",
          "name": "_tokenIn",
          "type": "address"
        },
        {
          "internalType": "address",
          "name": "_tokenOut",
          "type": "address"
        }
      ],
      "name": "getPriceNAV",
      "outputs": [
        {
          "internalType": "uint256",
          "name": "price",
          "type": "uint256"
        }
      ],
      "stateMutability": "view",
      "type": "function"
    },
    {
      "inputs": [
        {
          "internalType": "address",
          "name": "",
          "type": "address"
        }
      ],
      "name": "hopTokens",
      "outputs": [
        {
          "internalType": "bool",
          "name": "",
          "type": "bool"
        }
      ],
      "stateMutability": "view",
      "type": "function"
    },
    {
      "inputs": [
        {
          "internalType": "uint256",
          "name": "",
          "type": "uint256"
        }
      ],
      "name": "hopTokensList",
      "outputs": [
        {
          "internalType": "address",
          "name": "",
          "type": "address"
        }
      ],
      "stateMutability": "view",
      "type": "function"
    },
    {
      "inputs": [],
      "name": "owner",
      "outputs": [
        {
          "internalType": "address",
          "name": "",
          "type": "address"
        }
      ],
      "stateMutability": "view",
      "type": "function"
    },
    {
      "inputs": [],
      "name": "renounceOwnership",
      "outputs": [],
      "stateMutability": "nonpayable",
      "type": "function"
    },
    {
      "inputs": [],
      "name": "tokenIdentifier",
      "outputs": [
        {
          "internalType": "contract ITokenIdentifier",
          "name": "",
          "type": "address"
        }
      ],
      "stateMutability": "view",
      "type": "function"
    },
    {
      "inputs": [
        {
          "internalType": "address",
          "name": "newOwner",
          "type": "address"
        }
      ],
      "name": "transferOwnership",
      "outputs": [],
      "stateMutability": "nonpayable",
      "type": "function"
    },
    {
      "inputs": [
        {
          "internalType": "int24",
          "name": "_maxTwapDeviation",
          "type": "int24"
        }
      ],
      "name": "updateMaxTwapDeviation",
      "outputs": [],
      "stateMutability": "nonpayable",
      "type": "function"
    },
    {
      "inputs": [
        {
          "internalType": "address[]",
          "name": "list",
          "type": "address[]"
        }
      ],
      "name": "updateReserves",
      "outputs": [],
      "stateMutability": "nonpayable",
      "type": "function"
    },
    {
      "inputs": [
        {
          "internalType": "contract ITokenIdentifier",
          "name": "_tokenIdentifier",
          "type": "address"
        }
      ],
      "name": "updateTokenIdentifier",
      "outputs": [],
      "stateMutability": "nonpayable",
      "type": "function"
    }
  ],
  "transactionHash": "0xc806e491198a98c59217090c85464a67744f14a121e2748f0fa454d069ffe4c6",
  "args": [
    "0x265DA398aF55d144cFA04a69BaDa755f535af488",
    "0xD4a5b5fcB561dAF3aDF86F8477555B92FBa43b5F"
  ],
  "numDeployments": 9,
  "solcInputHash": "bb0812ebdf51b9610783439d45451e26",
  "bytecode": "0x60806040523480156200001157600080fd5b506040516200495a3803806200495a833981810160405260408110156200003757600080fd5b50805160209091015160006200004c62000155565b600080546001600160a01b0319166001600160a01b0383169081178255604051929350917f8be0079c531659141344cd1fd0a4f28419497f9722a3daafe3b4186f6b6457e0908290a350600180546001600160a01b038085166001600160a01b03199283161790925560028054928416929091169190911790556005805462ffffff19166106401790556200014d6200014773c02aaa39b223fe8d0a0e5c4f27ead9083c756cc2736b175474e89094c44da98b954eedeac495271d0f73a0b86991c6218b36c1d19d4a2e9eb0ce3606eb48732260fac5e5542a773aa44fbcfedf7c193bc2c599620009d962000159602090811b91909117901c565b6200023e565b5050620003a2565b3390565b60408051600480825260a08201909252606091600091906020820160808036833701905050905085816000815181106200018f57fe5b60200260200101906001600160a01b031690816001600160a01b0316815250508481600181518110620001be57fe5b60200260200101906001600160a01b031690816001600160a01b0316815250508381600281518110620001ed57fe5b60200260200101906001600160a01b031690816001600160a01b03168152505082816003815181106200021c57fe5b6001600160a01b03909216602092830291909101909101529050949350505050565b60005b6004548110156200029d57600060036000600484815481106200026057fe5b6000918252602080832091909101546001600160a01b031683528201929092526040019020805460ff191691151591909117905560010162000241565b50620002ac6004600062000364565b60005b81518110156200036057600160036000848481518110620002cc57fe5b60200260200101516001600160a01b03166001600160a01b0316815260200190815260200160002060006101000a81548160ff02191690831515021790555060048282815181106200031a57fe5b60209081029190910181015182546001808201855560009485529290932090920180546001600160a01b0319166001600160a01b039093169290921790915501620002af565b5050565b508054600082559060005260206000209081019062000384919062000387565b50565b5b808211156200039e576000815560010162000388565b5090565b6145a880620003b26000396000f3fe608060405234801561001057600080fd5b50600436106100ea5760003560e01c8063ac41865a1161008c578063d636811311610066578063d63681131461025e578063f2fde38b14610301578063f77c479114610327578063f8da2c951461032f576100ea565b8063ac41865a146101f3578063c42cb29214610221578063caa8a96514610241576100ea565b8063715018a6116100c8578063715018a61461017557806371f14a0b1461017d578063891d0249146101bd5780638da5cb5b146101eb576100ea565b806312e9cb05146100ef57806316b2b88814610117578063564e9bb61461013b575b600080fd5b6101156004803603602081101561010557600080fd5b50356001600160a01b031661035d565b005b61011f6103fc565b604080516001600160a01b039092168252519081900360200190f35b6101616004803603602081101561015157600080fd5b50356001600160a01b031661040b565b604080519115158252519081900360200190f35b610115610420565b6101ab6004803603604081101561019357600080fd5b506001600160a01b03813581169160200135166104eb565b60408051918252519081900360200190f35b6101ab600480360360408110156101d357600080fd5b506001600160a01b03813581169160200135166106eb565b61011f610768565b6101ab6004803603604081101561020957600080fd5b506001600160a01b0381358116916020013516610777565b6101156004803603602081101561023757600080fd5b503560020b6107d9565b61011f6004803603602081101561025757600080fd5b5035610850565b6101156004803603602081101561027457600080fd5b81019060208101813564010000000081111561028f57600080fd5b8201836020820111156102a157600080fd5b803590602001918460208302840111640100000000831117156102c357600080fd5b91908080602002602001604051908101604052809392919081815260200183836020028082843760009201919091525092955061087a945050505050565b6101156004803603602081101561031757600080fd5b50356001600160a01b031661089b565b61011f6109bc565b6101ab6004803603604081101561034557600080fd5b506001600160a01b03813581169160200135166109cb565b600254610372906001600160a01b0316610aba565b6001600160a01b0381166103cd576040805162461bcd60e51b815260206004820152601660248201527f41646472657373206e6565647320746f20657869737400000000000000000000604482015290519081900360640190fd5b6001805473ffffffffffffffffffffffffffffffffffffffff19166001600160a01b0392909216919091179055565b6001546001600160a01b031681565b60036020526000908152604090205460ff1681565b610428610bdc565b6001600160a01b0316610439610768565b6001600160a01b031614610494576040805162461bcd60e51b815260206004820181905260248201527f4f776e61626c653a2063616c6c6572206973206e6f7420746865206f776e6572604482015290519081900360640190fd5b600080546040516001600160a01b03909116907f8be0079c531659141344cd1fd0a4f28419497f9722a3daafe3b4186f6b6457e0908390a36000805473ffffffffffffffffffffffffffffffffffffffff19169055565b600080836001600160a01b031663182df0f56040518163ffffffff1660e01b815260040160206040518083038186803b15801561052757600080fd5b505afa15801561053b573d6000803e3d6000fd5b505050506040513d602081101561055157600080fd5b5051604080517f313ce56700000000000000000000000000000000000000000000000000000000815290519192506008916001600160a01b0386169163313ce567916004808301926020929190829003018186803b1580156105b257600080fd5b505afa1580156105c6573d6000803e3d6000fd5b505050506040513d60208110156105dc57600080fd5b505160ff161115610667576106606008846001600160a01b031663313ce5676040518163ffffffff1660e01b815260040160206040518083038186803b15801561062557600080fd5b505afa158015610639573d6000803e3d6000fd5b505050506040513d602081101561064f57600080fd5b5051839160ff910316600a0a610be0565b90506106e2565b6106df836001600160a01b031663313ce5676040518163ffffffff1660e01b815260040160206040518083038186803b1580156106a357600080fd5b505afa1580156106b7573d6000803e3d6000fd5b505050506040513d60208110156106cd57600080fd5b5051829060080360ff16600a0a610c47565b90505b90505b92915050565b600080836001600160a01b031663182df0f56040518163ffffffff1660e01b815260040160206040518083038186803b15801561072757600080fd5b505afa15801561073b573d6000803e3d6000fd5b505050506040513d602081101561075157600080fd5b50519050610760838583610c6b565b949350505050565b6000546001600160a01b031690565b600061078583836000610dbb565b9050806106e5576040805162461bcd60e51b815260206004820152600f60248201527f5072696365206e6f7420666f756e640000000000000000000000000000000000604482015290519081900360640190fd5b6002546107ee906001600160a01b0316610aba565b6105dc8160020b126108315760405162461bcd60e51b81526004018080602001828103825260278152602001806145226027913960400191505060405180910390fd5b6005805460029290920b62ffffff1662ffffff19909216919091179055565b6004818154811061086057600080fd5b6000918252602090912001546001600160a01b0316905081565b60025461088f906001600160a01b0316610aba565b61089881611c9d565b50565b6108a3610bdc565b6001600160a01b03166108b4610768565b6001600160a01b03161461090f576040805162461bcd60e51b815260206004820181905260248201527f4f776e61626c653a2063616c6c6572206973206e6f7420746865206f776e6572604482015290519081900360640190fd5b6001600160a01b0381166109545760405162461bcd60e51b81526004018080602001828103825260268152602001806144fc6026913960400191505060405180910390fd5b600080546040516001600160a01b03808516939216917f8be0079c531659141344cd1fd0a4f28419497f9722a3daafe3b4186f6b6457e091a36000805473ffffffffffffffffffffffffffffffffffffffff19166001600160a01b0392909216919091179055565b6002546001600160a01b031681565b600061078583836001610dbb565b60408051600480825260a0820190925260609160009190602082016080803683370190505090508581600081518110610a0e57fe5b60200260200101906001600160a01b031690816001600160a01b0316815250508481600181518110610a3c57fe5b60200260200101906001600160a01b031690816001600160a01b0316815250508381600281518110610a6a57fe5b60200260200101906001600160a01b031690816001600160a01b0316815250508281600381518110610a9857fe5b6001600160a01b03909216602092830291909101909101529050949350505050565b806001600160a01b0316638da5cb5b6040518163ffffffff1660e01b815260040160206040518083038186803b158015610af357600080fd5b505afa158015610b07573d6000803e3d6000fd5b505050506040513d6020811015610b1d57600080fd5b50516001600160a01b0316331480610ba15750806001600160a01b0316638d97e0436040518163ffffffff1660e01b815260040160206040518083038186803b158015610b6957600080fd5b505afa158015610b7d573d6000803e3d6000fd5b505050506040513d6020811015610b9357600080fd5b50516001600160a01b031633145b6108985760405162461bcd60e51b815260040180806020018281038252602a815260200180614549602a913960400191505060405180910390fd5b3390565b6000808211610c36576040805162461bcd60e51b815260206004820152601a60248201527f536166654d6174683a206469766973696f6e206279207a65726f000000000000604482015290519081900360640190fd5b818381610c3f57fe5b049392505050565b6000821580610c6257505081810281838281610c5f57fe5b04145b6106e557600080fd5b600080610c7785611dc7565b610ce557846001600160a01b031663313ce5676040518163ffffffff1660e01b815260040160206040518083038186803b158015610cb457600080fd5b505afa158015610cc8573d6000803e3d6000fd5b505050506040513d6020811015610cde57600080fd5b5051610ce8565b60125b60ff1690506000610cf885611dc7565b610d6657846001600160a01b031663313ce5676040518163ffffffff1660e01b815260040160206040518083038186803b158015610d3557600080fd5b505afa158015610d49573d6000803e3d6000fd5b505050506040513d6020811015610d5f57600080fd5b5051610d69565b60125b60ff16905080821415610d80578392505050610db4565b81811115610da057610d9784838303600a0a610c47565b92505050610db4565b610daf84828403600a0a610be0565b925050505b9392505050565b6000826001600160a01b0316846001600160a01b03161415610de65750670de0b6b3a7640000610db4565b6001600160a01b03841615610dfb5783610e11565b73c02aaa39b223fe8d0a0e5c4f27ead9083c756cc25b93506001600160a01b03831615610e285782610e3e565b73c02aaa39b223fe8d0a0e5c4f27ead9083c756cc25b92506000600260009054906101000a90046001600160a01b03166001600160a01b031663f4afedd16040518163ffffffff1660e01b815260040160206040518083038186803b158015610e9057600080fd5b505afa158015610ea4573d6000803e3d6000fd5b505050506040513d6020811015610eba57600080fd5b5051600154604080517fe166fa900000000000000000000000000000000000000000000000000000000081526001600160a01b03898116600483015288811660248301528085166044830152915193945060009384938493849391169163e166fa9091606480820192608092909190829003018186803b158015610f3d57600080fd5b505afa158015610f51573d6000803e3d6000fd5b505050506040513d6080811015610f6757600080fd5b50805160208201516040830151606090930151919650945090925090506000600160ff86161415610fbf57610f9c8a846106eb565b9050610fb281610fac858c610777565b90611e03565b9650505050505050610db4565b8360ff1660011415610feb57610fd589836106eb565b9050610fb281610fe58c85610777565b90611e21565b8460ff166002141561100157610fb2838a610777565b8360ff166002141561101757610fb28a83610777565b8460ff166003141561102d57610f9c8a846104eb565b8360ff166003141561104357610fd589836104eb565b8460ff16600414156111f55760008a6001600160a01b031663d4b839926040518163ffffffff1660e01b815260040160206040518083038186803b15801561108a57600080fd5b505afa15801561109e573d6000803e3d6000fd5b505050506040513d60208110156110b457600080fd5b50516040805163dbd06c8560e01b8152905191925073d69b189020ef614796578afe4d10378c5e7e11389163ac82f608916001600160a01b0385169163dbd06c8591600480820192602092909190829003018186803b15801561111657600080fd5b505afa15801561112a573d6000803e3d6000fd5b505050506040513d602081101561114057600080fd5b5051604080517fffffffff0000000000000000000000000000000000000000000000000000000060e085901b1681526004810192909252516024808301926020929190829003018186803b15801561119757600080fd5b505afa1580156111ab573d6000803e3d6000fd5b505050506040513d60208110156111c157600080fd5b505191506111e782610fac73a0b86991c6218b36c1d19d4a2e9eb0ce3606eb488d610777565b975050505050505050610db4565b8360ff1660041415611399576000896001600160a01b031663d4b839926040518163ffffffff1660e01b815260040160206040518083038186803b15801561123c57600080fd5b505afa158015611250573d6000803e3d6000fd5b505050506040513d602081101561126657600080fd5b50516040805163dbd06c8560e01b8152905191925073d69b189020ef614796578afe4d10378c5e7e11389163ac82f608916001600160a01b0385169163dbd06c8591600480820192602092909190829003018186803b1580156112c857600080fd5b505afa1580156112dc573d6000803e3d6000fd5b505050506040513d60208110156112f257600080fd5b5051604080517fffffffff0000000000000000000000000000000000000000000000000000000060e085901b1681526004810192909252516024808301926020929190829003018186803b15801561134957600080fd5b505afa15801561135d573d6000803e3d6000fd5b505050506040513d602081101561137357600080fd5b505191506111e782610fe58d73a0b86991c6218b36c1d19d4a2e9eb0ce3606eb48610777565b8460ff16600514156114dc576000866001600160a01b03166324a592338c6040518263ffffffff1660e01b815260040180826001600160a01b0316815260200191505060206040518083038186803b1580156113f457600080fd5b505afa158015611408573d6000803e3d6000fd5b505050506040513d602081101561141e57600080fd5b505190506001600160a01b038116156114da57600061143d8289611e39565b90506114cb61144c828d610777565b896001600160a01b031663e39e26828f6040518263ffffffff1660e01b815260040180826001600160a01b0316815260200191505060206040518083038186803b15801561149957600080fd5b505afa1580156114ad573d6000803e3d6000fd5b505050506040513d60208110156114c357600080fd5b505190611e03565b98505050505050505050610db4565b505b8360ff166005141561160a576000866001600160a01b03166324a592338b6040518263ffffffff1660e01b815260040180826001600160a01b0316815260200191505060206040518083038186803b15801561153757600080fd5b505afa15801561154b573d6000803e3d6000fd5b505050506040513d602081101561156157600080fd5b505190506001600160a01b038116156116085760006115808289611e39565b90506114cb886001600160a01b031663e39e26828d6040518263ffffffff1660e01b815260040180826001600160a01b0316815260200191505060206040518083038186803b1580156115d257600080fd5b505afa1580156115e6573d6000803e3d6000fd5b505050506040513d60208110156115fc57600080fd5b5051610fe58e84610777565b505b8460ff1660061415611754576116c06116878b6001600160a01b031663fc0c546a6040518163ffffffff1660e01b815260040160206040518083038186803b15801561165557600080fd5b505afa158015611669573d6000803e3d6000fd5b505050506040513d602081101561167f57600080fd5b50518b610777565b8b6001600160a01b03166399530b066040518163ffffffff1660e01b815260040160206040518083038186803b15801561149957600080fd5b965060008a6001600160a01b031663313ce5676040518163ffffffff1660e01b815260040160206040518083038186803b1580156116fd57600080fd5b505afa158015611711573d6000803e3d6000fd5b505050506040513d602081101561172757600080fd5b505160ff1690506012811015611748576111e7886012839003600a0a610c47565b50505050505050610db4565b8360ff16600614156118f2576000896001600160a01b031663fc0c546a6040518163ffffffff1660e01b815260040160206040518083038186803b15801561179b57600080fd5b505afa1580156117af573d6000803e3d6000fd5b505050506040513d60208110156117c557600080fd5b5051604080517f99530b06000000000000000000000000000000000000000000000000000000008152905191925061185d916001600160a01b038d16916399530b06916004808301926020929190829003018186803b15801561182757600080fd5b505afa15801561183b573d6000803e3d6000fd5b505050506040513d602081101561185157600080fd5b5051610fe58d84610777565b975060008a6001600160a01b031663313ce5676040518163ffffffff1660e01b815260040160206040518083038186803b15801561189a57600080fd5b505afa1580156118ae573d6000803e3d6000fd5b505050506040513d60208110156118c457600080fd5b505160ff16905060128110156118e5576114cb896012839003600a0a610be0565b5050505050505050610db4565b8460ff166008148061190757508460ff166009145b8061191557508460ff16600a145b1561195957610fb261193b73c02aaa39b223fe8d0a0e5c4f27ead9083c756cc28b610777565b610fac8c73c02aaa39b223fe8d0a0e5c4f27ead9083c756cc2611fc4565b8360ff166008148061196e57508360ff166009145b8061197c57508460ff16600a145b156119c057610fb26119a28a73c02aaa39b223fe8d0a0e5c4f27ead9083c756cc2611fc4565b610fe58c73c02aaa39b223fe8d0a0e5c4f27ead9083c756cc2610777565b8460ff16600c1415611a0b57610fb26119ed73c02aaa39b223fe8d0a0e5c4f27ead9083c756cc28b610777565b610fac8c73c02aaa39b223fe8d0a0e5c4f27ead9083c756cc2612335565b8360ff16600c1415611a3857610fb26119a28a73c02aaa39b223fe8d0a0e5c4f27ead9083c756cc2612335565b6001600160a01b038a167324e79e946dea5482212c38aab2d0782f04cdb0e01415611ad9576000611aa77348536ec5233297c367fd0b6979b75d9270bb6b157324e79e946dea5482212c38aab2d0782f04cdb0e0737fc66500c84a76ad7e9c93437bfc5ac33e2ddae98a6124bb565b90508015611ad7576111e7611ad0737fc66500c84a76ad7e9c93437bfc5ac33e2ddae98c612761565b8290611e03565b505b6001600160a01b0389167324e79e946dea5482212c38aab2d0782f04cdb0e01415611b73576000611b487348536ec5233297c367fd0b6979b75d9270bb6b15737fc66500c84a76ad7e9c93437bfc5ac33e2ddae97324e79e946dea5482212c38aab2d0782f04cdb0e08a6124bb565b90508015611b71576111e7611ad08c737fc66500c84a76ad7e9c93437bfc5ac33e2ddae9612761565b505b611b7e8a8a886128a0565b96508615611b9157505050505050610db4565b611b9b8a8a612761565b96508615611bae57505050505050610db4565b60005b600454811015611c7c57600060048281548110611bca57fe5b6000918252602090912001546001600160a01b0390811691508c168114801590611c065750806001600160a01b03168b6001600160a01b031614155b15611c73576000611c188d838b6128a0565b90508015611c3d57611c2d611ad0838e612761565b9950505050505050505050610db4565b6000611c4a838e8c6128a0565b90508015611c7057611c5f611ad08f85612761565b9a5050505050505050505050610db4565b50505b50600101611bb1565b508715611c9057611c8d8a8a612b17565b96505b5050505050509392505050565b60005b600454811015611cf95760006003600060048481548110611cbd57fe5b6000918252602080832091909101546001600160a01b031683528201929092526040019020805460ff1916911515919091179055600101611ca0565b50611d06600460006144c9565b60005b8151811015611dc357600160036000848481518110611d2457fe5b60200260200101516001600160a01b03166001600160a01b0316815260200190815260200160002060006101000a81548160ff0219169083151502179055506004828281518110611d7157fe5b602090810291909101810151825460018082018555600094855292909320909201805473ffffffffffffffffffffffffffffffffffffffff19166001600160a01b039093169290921790915501611d09565b5050565b600073eeeeeeeeeeeeeeeeeeeeeeeeeeeeeeeeeeeeeeee6001600160a01b0383161480611dfb57506001600160a01b038216155b90505b919050565b60006106e2670de0b6b3a7640000611e1b8585610c47565b90610be0565b60006106e282611e1b85670de0b6b3a7640000610c47565b600080826001600160a01b031663a07952a48560016040518363ffffffff1660e01b815260040180836001600160a01b031681526020018215158152602001925050506101006040518083038186803b158015611e9557600080fd5b505afa158015611ea9573d6000803e3d6000fd5b505050506040513d601f19601f82011682018060405250610100811015611ecf57600080fd5b5080519091506001600160a01b031615611f345780516001600160a01b031673eeeeeeeeeeeeeeeeeeeeeeeeeeeeeeeeeeeeeeee14611f16578060005b6020020151611f2c565b73c02aaa39b223fe8d0a0e5c4f27ead9083c756cc25b9150506106e5565b60208101516001600160a01b031615611f775760208101516001600160a01b031673eeeeeeeeeeeeeeeeeeeeeeeeeeeeeeeeeeeeeeee14611f1657806001611f0c565b60408101516001600160a01b031615611fba5760408101516001600160a01b031673eeeeeeeeeeeeeeeeeeeeeeeeeeeeeeeeeeeeeeee14611f1657806002611f0c565b5060009392505050565b60408051600280825260608201835260009283929190602083019080368337019050509050836001600160a01b0316630dfe16816040518163ffffffff1660e01b815260040160206040518083038186803b15801561202257600080fd5b505afa158015612036573d6000803e3d6000fd5b505050506040513d602081101561204c57600080fd5b50518151829060009061205b57fe5b60200260200101906001600160a01b031690816001600160a01b031681525050836001600160a01b031663d21220a76040518163ffffffff1660e01b815260040160206040518083038186803b1580156120b457600080fd5b505afa1580156120c8573d6000803e3d6000fd5b505050506040513d60208110156120de57600080fd5b50518151829060019081106120ef57fe5b6001600160a01b0390921660209283029190910190910152836000805b835181101561232b57600061213385838151811061212657fe5b6020026020010151611dc7565b6121505784828151811061214357fe5b6020026020010151612166565b73c02aaa39b223fe8d0a0e5c4f27ead9083c756cc25b905060006121748883610777565b9050600061218787858151811061212657fe5b1561219c57896001600160a01b031631612229565b8684815181106121a857fe5b60200260200101516001600160a01b03166370a082318b6040518263ffffffff1660e01b815260040180826001600160a01b0316815260200191505060206040518083038186803b1580156121fc57600080fd5b505afa158015612210573d6000803e3d6000fd5b505050506040513d602081101561222657600080fd5b50515b905073c02aaa39b223fe8d0a0e5c4f27ead9083c756cc26001600160a01b031687858151811061225557fe5b60200260200101516001600160a01b0316148015612271575080155b1561228357506001600160a01b038916315b811580159061229157508015155b156123205761231d612316848b61231186610fe58c6001600160a01b03166318160ddd6040518163ffffffff1660e01b815260040160206040518083038186803b1580156122de57600080fd5b505afa1580156122f2573d6000803e3d6000fd5b505050506040513d602081101561230857600080fd5b50518890611e21565b610c6b565b8690612d9f565b94505b50505060010161210c565b5095945050505050565b600080836001600160a01b03166318160ddd6040518163ffffffff1660e01b815260040160206040518083038186803b15801561237157600080fd5b505afa158015612385573d6000803e3d6000fd5b505050506040513d602081101561239b57600080fd5b50519050806123ae5760009150506106e5565b600080856001600160a01b031663c4a7761e6040518163ffffffff1660e01b8152600401604080518083038186803b1580156123e957600080fd5b505afa1580156123fd573d6000803e3d6000fd5b505050506040513d604081101561241357600080fd5b508051602091820151604080517f16f0115b00000000000000000000000000000000000000000000000000000000815290519295509093506124b1926001600160a01b038a16926316f0115b926004808201939291829003018186803b15801561247c57600080fd5b505afa158015612490573d6000803e3d6000fd5b505050506040513d60208110156124a657600080fd5b505186858585612daf565b9695505050505050565b600080600080846001600160a01b03166329a0eb858989896040518463ffffffff1660e01b815260040180846001600160a01b03168152602001836001600160a01b03168152602001826001600160a01b03168152602001935050505060606040518083038186803b15801561253057600080fd5b505afa158015612544573d6000803e3d6000fd5b505050506040513d606081101561255a57600080fd5b508051602082015160409092015190945090925090506000806001600160a01b03891673eeeeeeeeeeeeeeeeeeeeeeeeeeeeeeeeeeeeeeee1461260157886001600160a01b031663313ce5676040518163ffffffff1660e01b815260040160206040518083038186803b1580156125d057600080fd5b505afa1580156125e4573d6000803e3d6000fd5b505050506040513d60208110156125fa57600080fd5b5051612604565b60125b60ff16600a0a90508385141561262257600095505050505050610760565b821561263b576126348a868684612fa6565b915061264a565b6126478a868684613196565b91505b6126f66001600160a01b03891673eeeeeeeeeeeeeeeeeeeeeeeeeeeeeeeeeeeeeeee146126db57886001600160a01b031663313ce5676040518163ffffffff1660e01b815260040160206040518083038186803b1580156126aa57600080fd5b505afa1580156126be573d6000803e3d6000fd5b505050506040513d60208110156126d457600080fd5b50516126de565b60125b60120360ff16600a0a83610c4790919063ffffffff16565b9150600061270b8366d529ae9e860000611e03565b905061271f670de0b6b3a764000082612d9f565b8310801561273d575061273a670de0b6b3a7640000826132e4565b83115b1561275057829650505050505050610760565b5060009a9950505050505050505050565b6001600160a01b038216600090815260036020526040812054670de0b6b3a7640000908490849060ff166127bb5760008061279d8860016132f4565b90925090506001600160a01b038216156127b8578193508094505b50505b6001600160a01b03851660009081526003602052604090205460ff16612852576000806127e98760006132f4565b90925090506001600160a01b0382161561284f57819250826001600160a01b0316846001600160a01b0316146128305761282d61282685856133c9565b8690611e03565b94505b61283a8582611e03565b9450841561284f5784955050505050506106e5565b50505b806001600160a01b0316826001600160a01b0316146128825761287f61287883836133c9565b8490611e03565b92505b826128965761289186866133c9565b6124b1565b5090949350505050565b600080826001600160a01b031663b35084db868660006040518463ffffffff1660e01b815260040180846001600160a01b03168152602001836001600160a01b03168152602001828152602001935050505060206040518083038186803b15801561290a57600080fd5b505afa15801561291e573d6000803e3d6000fd5b505050506040513d602081101561293457600080fd5b505190506001600160a01b03851673c02aaa39b223fe8d0a0e5c4f27ead9083c756cc214801561296b57506001600160a01b038116155b15612a0f576040805163b35084db60e01b815273eeeeeeeeeeeeeeeeeeeeeeeeeeeeeeeeeeeeeeee600482018190526001600160a01b0387811660248401526000604484015292519097509185169163b35084db91606480820192602092909190829003018186803b1580156129e057600080fd5b505afa1580156129f4573d6000803e3d6000fd5b505050506040513d6020811015612a0a57600080fd5b505190505b6001600160a01b03841673c02aaa39b223fe8d0a0e5c4f27ead9083c756cc2148015612a4257506001600160a01b038116155b15612ae5576040805163b35084db60e01b81526001600160a01b03878116600483015273eeeeeeeeeeeeeeeeeeeeeeeeeeeeeeeeeeeeeeee6024830181905260006044840152925192965085169163b35084db91606480820192602092909190829003018186803b158015612ab657600080fd5b505afa158015612aca573d6000803e3d6000fd5b505050506040513d6020811015612ae057600080fd5b505190505b6001600160a01b03811615612b0c576000612b02828787876124bb565b9250610db4915050565b506000949350505050565b604080516002808252606082018352600092839291906020830190803683370190505090508381600081518110612b4a57fe5b60200260200101906001600160a01b031690816001600160a01b0316815250508281600181518110612b7857fe5b60200260200101906001600160a01b031690816001600160a01b031681525050737a250d5630b4cf539739df2c5dacb4c659f2488d6001600160a01b031663d06ca61f856001600160a01b031663313ce5676040518163ffffffff1660e01b815260040160206040518083038186803b158015612bf457600080fd5b505afa158015612c08573d6000803e3d6000fd5b505050506040513d6020811015612c1e57600080fd5b5051604080517fffffffff0000000000000000000000000000000000000000000000000000000060e085901b16815260ff8316600482019081526024820192835286516044830152865187939192606401906020858101910280838360005b83811015612c95578181015183820152602001612c7d565b50505050905001935050505060006040518083038186803b158015612cb957600080fd5b505afa158015612ccd573d6000803e3d6000fd5b505050506040513d6000823e601f3d908101601f191682016040526020811015612cf657600080fd5b8101908080516040519392919084640100000000821115612d1657600080fd5b908301906020820185811115612d2b57600080fd5b8251866020820283011164010000000082111715612d4857600080fd5b82525081516020918201928201910280838360005b83811015612d75578181015183820152602001612d5d565b50505050905001604052505050600181518110612d8e57fe5b602002602001015191505092915050565b808201828110156106e557600080fd5b600080612e22876001600160a01b0316630dfe16816040518163ffffffff1660e01b815260040160206040518083038186803b158015612dee57600080fd5b505afa158015612e02573d6000803e3d6000fd5b505050506040513d6020811015612e1857600080fd5b5051876000610dbb565b90506000612e96886001600160a01b031663d21220a76040518163ffffffff1660e01b815260040160206040518083038186803b158015612e6257600080fd5b505afa158015612e76573d6000803e3d6000fd5b505050506040513d6020811015612e8c57600080fd5b5051886000610dbb565b90506000612f11896001600160a01b0316630dfe16816040518163ffffffff1660e01b815260040160206040518083038186803b158015612ed657600080fd5b505afa158015612eea573d6000803e3d6000fd5b505050506040513d6020811015612f0057600080fd5b5051896123118a611e1b8b89610c47565b90506000612f8c8a6001600160a01b031663d21220a76040518163ffffffff1660e01b815260040160206040518083038186803b158015612f5157600080fd5b505afa158015612f65573d6000803e3d6000fd5b505050506040513d6020811015612f7b57600080fd5b50518a6123118b611e1b8b89610c47565b9050612f988282612d9f565b9a9950505050505050505050565b6000846001600160a01b03166385f11d1e8585856040518463ffffffff1660e01b815260040180848152602001838152602001828152602001935050505060206040518083038186803b158015612ffc57600080fd5b505afa92505050801561302157506040513d602081101561301c57600080fd5b505160015b61318f57604080517f07211ef7000000000000000000000000000000000000000000000000000000008152600f86810b600483015285900b60248201526044810184905290516001600160a01b038716916307211ef7916064808301926020929190829003018186803b15801561309757600080fd5b505afa9250505080156130bc57506040513d60208110156130b757600080fd5b505160015b61318f5760408051635e0d443f60e01b8152600f86810b600483015285900b60248201526044810184905290516001600160a01b03871691635e0d443f916064808301926020929190829003018186803b15801561311957600080fd5b505afa92505050801561313e57506040513d602081101561313957600080fd5b505160015b61318f576040805162461bcd60e51b815260206004820152601860248201527f67657420647920756e6465726c79696e67206661696c65640000000000000000604482015290519081900360640190fd5b9050610760565b6000846001600160a01b031663556d6e9f8585856040518463ffffffff1660e01b815260040180848152602001838152602001828152602001935050505060206040518083038186803b1580156131ec57600080fd5b505afa92505050801561321157506040513d602081101561320c57600080fd5b505160015b61318f5760408051635e0d443f60e01b8152600f86810b600483015285900b60248201526044810184905290516001600160a01b03871691635e0d443f916064808301926020929190829003018186803b15801561326e57600080fd5b505afa92505050801561329357506040513d602081101561328e57600080fd5b505160015b61318f576040805162461bcd60e51b815260206004820152600d60248201527f676574206479206661696c656400000000000000000000000000000000000000604482015290519081900360640190fd5b808203828111156106e557600080fd5b60008060008060008060005b60045481101561338e5760008061334d8b6004858154811061331e57fe5b6000918252602090912001546001600160a01b0316736b175474e89094c44da98b954eedeac495271d0f613425565b9150915083811115613384578194508093506004838154811061336c57fe5b6000918252602090912001546001600160a01b031695505b5050600101613300565b5080156133bb5786156133ad576133a68289856136ba565b93506133bb565b6133b882848a6136ba565b93505b509096919550909350505050565b6000816001600160a01b0316836001600160a01b031614156133f45750670de0b6b3a76400006106e5565b60006134008484613847565b90506001600160a01b03811661341a5760009150506106e5565b6107608185856136ba565b60008060006134348686613847565b90506001600160a01b0381166134515760008092509250506136b2565b6000806000836001600160a01b0316630dfe16816040518163ffffffff1660e01b815260040160206040518083038186803b15801561348f57600080fd5b505afa1580156134a3573d6000803e3d6000fd5b505050506040513d60208110156134b957600080fd5b5051604080517fd21220a700000000000000000000000000000000000000000000000000000000815290519192506000916001600160a01b0387169163d21220a7916004808301926020929190829003018186803b15801561351a57600080fd5b505afa15801561352e573d6000803e3d6000fd5b505050506040513d602081101561354457600080fd5b50516001600160a01b03831660009081526003602052604090205490915060ff16156135ef57816001600160a01b03166370a08231866040518263ffffffff1660e01b815260040180826001600160a01b0316815260200191505060206040518083038186803b1580156135b757600080fd5b505afa1580156135cb573d6000803e3d6000fd5b505050506040513d60208110156135e157600080fd5b50519350909150819061366e565b806001600160a01b03166370a08231866040518263ffffffff1660e01b815260040180826001600160a01b0316815260200191505060206040518083038186803b15801561363c57600080fd5b505afa158015613650573d6000803e3d6000fd5b505050506040513d602081101561366657600080fd5b505193509150815b876001600160a01b0316836001600160a01b0316146136a8576000613693848a6133c9565b90506136a4848a6123118885611e03565b9450505b5092945090925050505b935093915050565b6000816001600160a01b0316836001600160a01b031614156136e55750670de0b6b3a7640000610db4565b6000846001600160a01b0316633850c7bd6040518163ffffffff1660e01b815260040160e06040518083038186803b15801561372057600080fd5b505afa158015613734573d6000803e3d6000fd5b505050506040513d60e081101561374a57600080fd5b5060200151905061375b8186613c34565b613769576000915050610db4565b61383e6137df856001600160a01b031663313ce5676040518163ffffffff1660e01b815260040160206040518083038186803b1580156137a857600080fd5b505afa1580156137bc573d6000803e3d6000fd5b505050506040513d60208110156137d257600080fd5b505160129060ff166132e4565b600a0a611e1b83613837613825886001600160a01b031663313ce5676040518163ffffffff1660e01b815260040160206040518083038186803b1580156137a857600080fd5b670de0b6b3a764000090600a0a610c47565b8888613d2c565b95945050505050565b60408051630b4c774160e11b81526001600160a01b038481166004830152831660248201526101f4604482015290516000918291731f98431c8ad98523631ae4a59f267346ea31f98491631698ee82916064808301926020929190829003018186803b1580156138b657600080fd5b505afa1580156138ca573d6000803e3d6000fd5b505050506040513d60208110156138e057600080fd5b505160408051630b4c774160e11b81526001600160a01b03878116600483015286166024820152610bb860448201529051919250600091731f98431c8ad98523631ae4a59f267346ea31f98491631698ee82916064808301926020929190829003018186803b15801561395257600080fd5b505afa158015613966573d6000803e3d6000fd5b505050506040513d602081101561397c57600080fd5b505160408051630b4c774160e11b81526001600160a01b0388811660048301528716602482015261271060448201529051919250600091731f98431c8ad98523631ae4a59f267346ea31f98491631698ee82916064808301926020929190829003018186803b1580156139ee57600080fd5b505afa158015613a02573d6000803e3d6000fd5b505050506040513d6020811015613a1857600080fd5b5051905060006001600160a01b038416613a33576000613a99565b836001600160a01b0316631a6865026040518163ffffffff1660e01b815260040160206040518083038186803b158015613a6c57600080fd5b505afa158015613a80573d6000803e3d6000fd5b505050506040513d6020811015613a9657600080fd5b50515b905060006001600160a01b038416613ab2576000613b18565b836001600160a01b0316631a6865026040518163ffffffff1660e01b815260040160206040518083038186803b158015613aeb57600080fd5b505afa158015613aff573d6000803e3d6000fd5b505050506040513d6020811015613b1557600080fd5b50515b905060006001600160a01b038416613b31576000613b97565b836001600160a01b0316631a6865026040518163ffffffff1660e01b815260040160206040518083038186803b158015613b6a57600080fd5b505afa158015613b7e573d6000803e3d6000fd5b505050506040513d6020811015613b9457600080fd5b50515b9050816001600160801b0316836001600160801b031610158015613bcd5750806001600160801b0316836001600160801b031610155b15613be0578596505050505050506106e5565b826001600160801b0316826001600160801b031610158015613c145750806001600160801b0316826001600160801b031610155b15613c27578496505050505050506106e5565b5091979650505050505050565b600080826001600160a01b031663d0c93a7c6040518163ffffffff1660e01b815260040160206040518083038186803b158015613c7057600080fd5b505afa158015613c84573d6000803e3d6000fd5b505050506040513d6020811015613c9a57600080fd5b50519050620d85ff198101600290810b9085900b1215613cbe5760009150506106e5565b806103e8620d89e719600003030360020b8460020b1315613ce35760009150506106e5565b6000613cee84613e23565b905060008160060b8660020b13613d0a578560020b8203613d11565b818660020b035b600554600290810b900b60069190910b129695505050505050565b600080613d38866140cc565b90506001600160801b036001600160a01b03821611613da7576001600160a01b0380821680029084811690861610613d8757613d82600160c01b876001600160801b03168361441a565b613d9f565b613d9f81876001600160801b0316600160c01b61441a565b925050613e1a565b6000613dc66001600160a01b038316806801000000000000000061441a565b9050836001600160a01b0316856001600160a01b031610613dfe57613df9600160801b876001600160801b03168361441a565b613e16565b613e1681876001600160801b0316600160801b61441a565b9250505b50949350505050565b60408051600280825260608201835260009283929190602083019080368337019050509050601e81600081518110613e5757fe5b602002602001019063ffffffff16908163ffffffff1681525050600081600181518110613e8057fe5b63ffffffff9092166020928302919091018201526040517f883bdbfd000000000000000000000000000000000000000000000000000000008152600481018281528351602483015283516001600160a01b0387169363883bdbfd938693928392604490920191858101910280838360005b83811015613f09578181015183820152602001613ef1565b505050509050019250505060006040518083038186803b158015613f2c57600080fd5b505afa92505050801561407657506040513d6000823e601f3d908101601f191682016040908152811015613f5f57600080fd5b8101908080516040519392919084640100000000821115613f7f57600080fd5b908301906020820185811115613f9457600080fd5b8251866020820283011164010000000082111715613fb157600080fd5b82525081516020918201928201910280838360005b83811015613fde578181015183820152602001613fc6565b505050509050016040526020018051604051939291908464010000000082111561400757600080fd5b90830190602082018581111561401c57600080fd5b825186602082028301116401000000008211171561403957600080fd5b82525081516020918201928201910280838360005b8381101561406657818101518382015260200161404e565b5050505090500160405250505060015b614084576000915050611dfe565b601e63ffffffff168260008151811061409957fe5b6020026020010151836001815181106140ae57fe5b60200260200101510360060b816140c157fe5b059350505050611dfe565b60008060008360020b126140e3578260020b6140eb565b8260020b6000035b9050620d89e8811115614145576040805162461bcd60e51b815260206004820152600160248201527f5400000000000000000000000000000000000000000000000000000000000000604482015290519081900360640190fd5b60006001821661415957600160801b61416b565b6ffffcb933bd6fad37aa2d162d1a5940015b70ffffffffffffffffffffffffffffffffff169050600282161561419f576ffff97272373d413259a46990580e213a0260801c5b60048216156141be576ffff2e50f5f656932ef12357cf3c7fdcc0260801c5b60088216156141dd576fffe5caca7e10e4e61c3624eaa0941cd00260801c5b60108216156141fc576fffcb9843d60f6159c9db58835c9266440260801c5b602082161561421b576fff973b41fa98c081472e6896dfb254c00260801c5b604082161561423a576fff2ea16466c96a3843ec78b326b528610260801c5b6080821615614259576ffe5dee046a99a2a811c461f1969c30530260801c5b610100821615614279576ffcbe86c7900a88aedcffc83b479aa3a40260801c5b610200821615614299576ff987a7253ac413176f2b074cf7815e540260801c5b6104008216156142b9576ff3392b0822b70005940c7a398e4b70f30260801c5b6108008216156142d9576fe7159475a2c29b7443b29c7fa6e889d90260801c5b6110008216156142f9576fd097f3bdfd2022b8845ad8f792aa58250260801c5b612000821615614319576fa9f746462d870fdf8a65dc1f90e061e50260801c5b614000821615614339576f70d869a156d2a1b890bb3df62baf32f70260801c5b618000821615614359576f31be135f97d08fd981231505542fcfa60260801c5b6201000082161561437a576f09aa508b5b7a84e1c677de54f3e99bc90260801c5b6202000082161561439a576e5d6af8dedb81196699c329225ee6040260801c5b620400008216156143b9576d2216e584f5fa1ea926041bedfe980260801c5b620800008216156143d6576b048a170391f7dc42444e8fa20260801c5b60008460020b13156143f15780600019816143ed57fe5b0490505b640100000000810615614405576001614408565b60005b60ff16602082901c0192505050919050565b6000808060001985870986860292508281109083900303905080614450576000841161444557600080fd5b508290049050610db4565b80841161445c57600080fd5b6000848688096000868103871696879004966002600389028118808a02820302808a02820302808a02820302808a02820302808a02820302808a02909103029181900381900460010186841190950394909402919094039290920491909117919091029150509392505050565b508054600082559060005260206000209081019061089891905b808211156144f757600081556001016144e3565b509056fe4f776e61626c653a206e6577206f776e657220697320746865207a65726f20616464726573734d6178207477617020646576696174696f6e206d7573742062652077697468696e2072616e67654f6e6c7920676f7665726e616e6365206f7220656d657267656e63792063616e2063616c6c2074686973a264697066735822122017b38f655007d8f8cae0cdab988cad1f8c0085bf6d23f2f5d00d2340dd40fdc464736f6c63430007060033",
  "devdoc": {
    "author": "Babylon Finance Protocol Uses Uniswap V3 to get a price of a token pair",
    "kind": "dev",
    "methods": {
      "getPrice(address,address)": {
        "params": {
          "_tokenIn": "Address of the first token",
          "_tokenOut": "Address of the second token"
        },
        "returns": {
          "price": "               Price of the pair"
        }
      },
      "getPriceNAV(address,address)": {
        "params": {
          "_tokenIn": "Address of the first token",
          "_tokenOut": "Address of the second token"
        },
        "returns": {
          "price": "               Price of the pair"
        }
      },
      "owner()": {
        "details": "Returns the address of the current owner."
      },
      "renounceOwnership()": {
        "details": "Leaves the contract without owner. It will not be possible to call `onlyOwner` functions anymore. Can only be called by the current owner. NOTE: Renouncing ownership will leave the contract without an owner, thereby removing any functionality that is only available to the owner."
      },
      "transferOwnership(address)": {
        "details": "Transfers ownership of the contract to a new account (`newOwner`). Can only be called by the current owner."
      }
    },
    "title": "PriceOracle",
    "version": 1
  },
  "userdoc": {
    "kind": "user",
    "methods": {
      "getPrice(address,address)": {
        "notice": "Returns the amount out corresponding to the amount in for a given token"
      },
      "getPriceNAV(address,address)": {
        "notice": "Returns the amount out corresponding to the amount in for a given token"
      }
    },
    "version": 1
  },
  "storageLayout": {
    "storage": [
      {
        "astId": 1456,
        "contract": "contracts/PriceOracle.sol:PriceOracle",
        "label": "_owner",
        "offset": 0,
        "slot": "0",
        "type": "t_address"
      },
      {
        "astId": 17098,
        "contract": "contracts/PriceOracle.sol:PriceOracle",
        "label": "tokenIdentifier",
        "offset": 0,
        "slot": "1",
        "type": "t_contract(ITokenIdentifier)44802"
      },
      {
        "astId": 17100,
        "contract": "contracts/PriceOracle.sol:PriceOracle",
        "label": "controller",
        "offset": 0,
        "slot": "2",
        "type": "t_contract(IBabController)42338"
      },
      {
        "astId": 17104,
        "contract": "contracts/PriceOracle.sol:PriceOracle",
        "label": "hopTokens",
        "offset": 0,
        "slot": "3",
        "type": "t_mapping(t_address,t_bool)"
      },
      {
        "astId": 17107,
        "contract": "contracts/PriceOracle.sol:PriceOracle",
        "label": "hopTokensList",
        "offset": 0,
        "slot": "4",
        "type": "t_array(t_address)dyn_storage"
      },
      {
        "astId": 17109,
        "contract": "contracts/PriceOracle.sol:PriceOracle",
        "label": "maxTwapDeviation",
        "offset": 0,
        "slot": "5",
        "type": "t_int24"
      }
    ],
    "types": {
      "t_address": {
        "encoding": "inplace",
        "label": "address",
        "numberOfBytes": "20"
      },
      "t_array(t_address)dyn_storage": {
        "base": "t_address",
        "encoding": "dynamic_array",
        "label": "address[]",
        "numberOfBytes": "32"
      },
      "t_bool": {
        "encoding": "inplace",
        "label": "bool",
        "numberOfBytes": "1"
      },
      "t_contract(IBabController)42338": {
        "encoding": "inplace",
        "label": "contract IBabController",
        "numberOfBytes": "20"
      },
      "t_contract(ITokenIdentifier)44802": {
        "encoding": "inplace",
        "label": "contract ITokenIdentifier",
        "numberOfBytes": "20"
      },
      "t_int24": {
        "encoding": "inplace",
        "label": "int24",
        "numberOfBytes": "3"
      },
      "t_mapping(t_address,t_bool)": {
        "encoding": "mapping",
        "key": "t_address",
        "label": "mapping(address => bool)",
        "numberOfBytes": "32",
        "value": "t_bool"
      }
    }
  }
}