{
  "address": "0xbB685abF25ABB932Ecbf92464a56C6D5d180Cd0f",
  "abi": [
    {
      "inputs": [
        {
          "internalType": "contract ITokenIdentifier",
          "name": "_tokenIdentifier",
          "type": "address"
        },
        {
          "internalType": "contract IBabController",
          "name": "_controller",
          "type": "address"
        }
      ],
      "stateMutability": "nonpayable",
      "type": "constructor"
    },
    {
      "anonymous": false,
      "inputs": [
        {
          "indexed": true,
          "internalType": "address",
          "name": "previousOwner",
          "type": "address"
        },
        {
          "indexed": true,
          "internalType": "address",
          "name": "newOwner",
          "type": "address"
        }
      ],
      "name": "OwnershipTransferred",
      "type": "event"
    },
    {
      "inputs": [
        {
          "internalType": "address",
          "name": "",
          "type": "address"
        }
      ],
      "name": "blackListReserveForOracle",
      "outputs": [
        {
          "internalType": "bool",
          "name": "",
          "type": "bool"
        }
      ],
      "stateMutability": "view",
      "type": "function"
    },
    {
      "inputs": [],
      "name": "controller",
      "outputs": [
        {
          "internalType": "contract IBabController",
          "name": "",
          "type": "address"
        }
      ],
      "stateMutability": "view",
      "type": "function"
    },
    {
      "inputs": [
        {
          "internalType": "address",
          "name": "_asset",
          "type": "address"
        },
        {
          "internalType": "address",
          "name": "_underlying",
          "type": "address"
        }
      ],
      "name": "getCompoundExchangeRate",
      "outputs": [
        {
          "internalType": "uint256",
          "name": "",
          "type": "uint256"
        }
      ],
      "stateMutability": "view",
      "type": "function"
    },
    {
      "inputs": [
        {
          "internalType": "address",
          "name": "_asset",
          "type": "address"
        },
        {
          "internalType": "address",
          "name": "_underlying",
          "type": "address"
        }
      ],
      "name": "getCreamExchangeRate",
      "outputs": [
        {
          "internalType": "uint256",
          "name": "",
          "type": "uint256"
        }
      ],
      "stateMutability": "view",
      "type": "function"
    },
    {
      "inputs": [
        {
          "internalType": "address",
          "name": "_tokenIn",
          "type": "address"
        },
        {
          "internalType": "address",
          "name": "_tokenOut",
          "type": "address"
        }
      ],
      "name": "getPrice",
      "outputs": [
        {
          "internalType": "uint256",
          "name": "price",
          "type": "uint256"
        }
      ],
      "stateMutability": "view",
      "type": "function"
    },
    {
      "inputs": [
        {
          "internalType": "address",
          "name": "_tokenIn",
          "type": "address"
        },
        {
          "internalType": "address",
          "name": "_tokenOut",
          "type": "address"
        }
      ],
      "name": "getPriceNAV",
      "outputs": [
        {
          "internalType": "uint256",
          "name": "price",
          "type": "uint256"
        }
      ],
      "stateMutability": "view",
      "type": "function"
    },
    {
      "inputs": [],
      "name": "owner",
      "outputs": [
        {
          "internalType": "address",
          "name": "",
          "type": "address"
        }
      ],
      "stateMutability": "view",
      "type": "function"
    },
    {
      "inputs": [],
      "name": "renounceOwnership",
      "outputs": [],
      "stateMutability": "nonpayable",
      "type": "function"
    },
    {
      "inputs": [
        {
          "internalType": "address",
          "name": "",
          "type": "address"
        }
      ],
      "name": "reserveAssets",
      "outputs": [
        {
          "internalType": "bool",
          "name": "",
          "type": "bool"
        }
      ],
      "stateMutability": "view",
      "type": "function"
    },
    {
      "inputs": [
        {
          "internalType": "uint256",
          "name": "",
          "type": "uint256"
        }
      ],
      "name": "reserveAssetsList",
      "outputs": [
        {
          "internalType": "address",
          "name": "",
          "type": "address"
        }
      ],
      "stateMutability": "view",
      "type": "function"
    },
    {
      "inputs": [],
      "name": "tokenIdentifier",
      "outputs": [
        {
          "internalType": "contract ITokenIdentifier",
          "name": "",
          "type": "address"
        }
      ],
      "stateMutability": "view",
      "type": "function"
    },
    {
      "inputs": [
        {
          "internalType": "address",
          "name": "newOwner",
          "type": "address"
        }
      ],
      "name": "transferOwnership",
      "outputs": [],
      "stateMutability": "nonpayable",
      "type": "function"
    },
    {
      "inputs": [
        {
          "internalType": "int24",
          "name": "_maxTwapDeviation",
          "type": "int24"
        }
      ],
      "name": "updateMaxTwapDeviation",
      "outputs": [],
      "stateMutability": "nonpayable",
      "type": "function"
    },
    {
      "inputs": [
        {
          "internalType": "address",
          "name": "_reserveOracle",
          "type": "address"
        },
        {
          "internalType": "bool",
          "name": "_value",
          "type": "bool"
        }
      ],
      "name": "updateOracleReserveBlackList",
      "outputs": [],
      "stateMutability": "nonpayable",
      "type": "function"
    },
    {
      "inputs": [],
      "name": "updateReserves",
      "outputs": [],
      "stateMutability": "nonpayable",
      "type": "function"
    },
    {
      "inputs": [
        {
          "internalType": "contract ITokenIdentifier",
          "name": "_tokenIdentifier",
          "type": "address"
        }
      ],
      "name": "updateTokenIdentifier",
      "outputs": [],
      "stateMutability": "nonpayable",
      "type": "function"
    }
  ],
  "transactionHash": "0x37d4a2516ceb8ce406e74e3f830ceeb101bdc50a737c0eec3c1e2e9699361836",
  "args": [
    "0x17a7c092E0009aF48c8e08af473DFC4b472e2852",
    "0xD4a5b5fcB561dAF3aDF86F8477555B92FBa43b5F"
  ],
  "solcInputHash": "2768df28240848e306ab7e4c79e6e333",
  "bytecode": "0x60806040523480156200001157600080fd5b506040516200471338038062004713833981810160405260408110156200003757600080fd5b50805160209091015160006200004c6200012d565b600080546001600160a01b0319166001600160a01b0383169081178255604051929350917f8be0079c531659141344cd1fd0a4f28419497f9722a3daafe3b4186f6b6457e0908290a350600180546001600160a01b038085166001600160a01b031992831617835560028054918516919092161790556006805462ffffff191661012c17905573f4dc48d260c93ad6a96c5ce563e70ca578987c7460005260056020527f1bc21ec281c9d12f071b8d224b4910318485472f93eb1c83c7c2b365a4bca3c3805460ff191690911790556200012562000131565b50506200034e565b3390565b60025460408051635e40cf5360e11b815290516000926001600160a01b03169163bc819ea69160048083019286929190829003018186803b1580156200017657600080fd5b505afa1580156200018b573d6000803e3d6000fd5b505050506040513d6000823e601f3d908101601f191682016040526020811015620001b557600080fd5b8101908080516040519392919084640100000000821115620001d657600080fd5b908301906020820185811115620001ec57600080fd5b82518660208202830111640100000000821117156200020a57600080fd5b82525081516020918201928201910280838360005b83811015620002395781810151838201526020016200021f565b5050505090500160405250505090506004600062000258919062000310565b60005b81518110156200030c576001600360008484815181106200027857fe5b60200260200101516001600160a01b03166001600160a01b0316815260200190815260200160002060006101000a81548160ff0219169083151502179055506004828281518110620002c657fe5b60209081029190910181015182546001808201855560009485529290932090920180546001600160a01b0319166001600160a01b0390931692909217909155016200025b565b5050565b508054600082559060005260206000209081019062000330919062000333565b50565b5b808211156200034a576000815560010162000334565b5090565b6143b5806200035e6000396000f3fe608060405234801561001057600080fd5b50600436106101005760003560e01c8063ac41865a11610097578063ebe1eb7411610066578063ebe1eb741461029a578063f2fde38b146102a2578063f77c4791146102c8578063f8da2c95146102d057610100565b8063ac41865a14610209578063bbb7fae914610237578063c42cb2921461025d578063d2ad379a1461027d57610100565b806371f14a0b116100d357806371f14a0b14610193578063891d0249146101935780638da5cb5b146101d3578063ab431191146101db57610100565b806312e9cb051461010557806316b2b8881461012d5780632060117b14610151578063715018a61461018b575b600080fd5b61012b6004803603602081101561011b57600080fd5b50356001600160a01b03166102fe565b005b6101356104ea565b604080516001600160a01b039092168252519081900360200190f35b6101776004803603602081101561016757600080fd5b50356001600160a01b03166104f9565b604080519115158252519081900360200190f35b61012b61050e565b6101c1600480360360408110156101a957600080fd5b506001600160a01b03813581169160200135166105d9565b60408051918252519081900360200190f35b6101356107d9565b61012b600480360360408110156101f157600080fd5b506001600160a01b03813516906020013515156107e8565b6101c16004803603604081101561021f57600080fd5b506001600160a01b03813581169160200135166109e2565b6101776004803603602081101561024d57600080fd5b50356001600160a01b0316610a44565b61012b6004803603602081101561027357600080fd5b503560020b610a59565b6101356004803603602081101561029357600080fd5b5035610c1d565b61012b610c47565b61012b600480360360208110156102b857600080fd5b50356001600160a01b0316610cb0565b610135610dd1565b6101c1600480360360408110156102e657600080fd5b506001600160a01b0381358116916020013516610de0565b600260009054906101000a90046001600160a01b03166001600160a01b0316638da5cb5b6040518163ffffffff1660e01b815260040160206040518083038186803b15801561034c57600080fd5b505afa158015610360573d6000803e3d6000fd5b505050506040513d602081101561037657600080fd5b50516001600160a01b031633148061040f5750600260009054906101000a90046001600160a01b03166001600160a01b0316638d97e0436040518163ffffffff1660e01b815260040160206040518083038186803b1580156103d757600080fd5b505afa1580156103eb573d6000803e3d6000fd5b505050506040513d602081101561040157600080fd5b50516001600160a01b031633145b610460576040805162461bcd60e51b815260206004820152601560248201527f4e6f7420656e6f7567682070726976696c656765730000000000000000000000604482015290519081900360640190fd5b6001600160a01b0381166104bb576040805162461bcd60e51b815260206004820152601660248201527f41646472657373206e6565647320746f20657869737400000000000000000000604482015290519081900360640190fd5b6001805473ffffffffffffffffffffffffffffffffffffffff19166001600160a01b0392909216919091179055565b6001546001600160a01b031681565b60036020526000908152604090205460ff1681565b610516610dee565b6001600160a01b03166105276107d9565b6001600160a01b031614610582576040805162461bcd60e51b815260206004820181905260248201527f4f776e61626c653a2063616c6c6572206973206e6f7420746865206f776e6572604482015290519081900360640190fd5b600080546040516001600160a01b03909116907f8be0079c531659141344cd1fd0a4f28419497f9722a3daafe3b4186f6b6457e0908390a36000805473ffffffffffffffffffffffffffffffffffffffff19169055565b600080836001600160a01b031663182df0f56040518163ffffffff1660e01b815260040160206040518083038186803b15801561061557600080fd5b505afa158015610629573d6000803e3d6000fd5b505050506040513d602081101561063f57600080fd5b5051604080517f313ce56700000000000000000000000000000000000000000000000000000000815290519192506008916001600160a01b0386169163313ce567916004808301926020929190829003018186803b1580156106a057600080fd5b505afa1580156106b4573d6000803e3d6000fd5b505050506040513d60208110156106ca57600080fd5b505160ff1611156107555761074e6008846001600160a01b031663313ce5676040518163ffffffff1660e01b815260040160206040518083038186803b15801561071357600080fd5b505afa158015610727573d6000803e3d6000fd5b505050506040513d602081101561073d57600080fd5b5051839160ff910316600a0a610df2565b90506107d0565b6107cd836001600160a01b031663313ce5676040518163ffffffff1660e01b815260040160206040518083038186803b15801561079157600080fd5b505afa1580156107a5573d6000803e3d6000fd5b505050506040513d60208110156107bb57600080fd5b5051829060080360ff16600a0a610e59565b90505b90505b92915050565b6000546001600160a01b031690565b600260009054906101000a90046001600160a01b03166001600160a01b0316638da5cb5b6040518163ffffffff1660e01b815260040160206040518083038186803b15801561083657600080fd5b505afa15801561084a573d6000803e3d6000fd5b505050506040513d602081101561086057600080fd5b50516001600160a01b03163314806108f95750600260009054906101000a90046001600160a01b03166001600160a01b0316638d97e0436040518163ffffffff1660e01b815260040160206040518083038186803b1580156108c157600080fd5b505afa1580156108d5573d6000803e3d6000fd5b505050506040513d60208110156108eb57600080fd5b50516001600160a01b031633145b61094a576040805162461bcd60e51b815260206004820152601560248201527f4e6f7420656e6f7567682070726976696c656765730000000000000000000000604482015290519081900360640190fd5b6001600160a01b03821660009081526003602052604090205460ff166109b7576040805162461bcd60e51b815260206004820152601760248201527f4d75737420626520612072657365727665206173736574000000000000000000604482015290519081900360640190fd5b6001600160a01b03919091166000908152600560205260409020805460ff1916911515919091179055565b60006109f083836000610e7d565b9050806107d3576040805162461bcd60e51b815260206004820152600f60248201527f5072696365206e6f7420666f756e640000000000000000000000000000000000604482015290519081900360640190fd5b60056020526000908152604090205460ff1681565b600260009054906101000a90046001600160a01b03166001600160a01b0316638da5cb5b6040518163ffffffff1660e01b815260040160206040518083038186803b158015610aa757600080fd5b505afa158015610abb573d6000803e3d6000fd5b505050506040513d6020811015610ad157600080fd5b50516001600160a01b0316331480610b6a5750600260009054906101000a90046001600160a01b03166001600160a01b0316638d97e0436040518163ffffffff1660e01b815260040160206040518083038186803b158015610b3257600080fd5b505afa158015610b46573d6000803e3d6000fd5b505050506040513d6020811015610b5c57600080fd5b50516001600160a01b031633145b610bbb576040805162461bcd60e51b815260206004820152601560248201527f4e6f7420656e6f7567682070726976696c656765730000000000000000000000604482015290519081900360640190fd5b6105dc8160020b12610bfe5760405162461bcd60e51b81526004018080602001828103825260278152602001806143596027913960400191505060405180910390fd5b6006805460029290920b62ffffff1662ffffff19909216919091179055565b60048181548110610c2d57600080fd5b6000918252602090912001546001600160a01b0316905081565b6002546001600160a01b03163314610ca6576040805162461bcd60e51b815260206004820152601d60248201527f4f6e6c7920636f6e74726f6c6c65722063616e2063616c6c2074686973000000604482015290519081900360640190fd5b610cae611ea4565b565b610cb8610dee565b6001600160a01b0316610cc96107d9565b6001600160a01b031614610d24576040805162461bcd60e51b815260206004820181905260248201527f4f776e61626c653a2063616c6c6572206973206e6f7420746865206f776e6572604482015290519081900360640190fd5b6001600160a01b038116610d695760405162461bcd60e51b81526004018080602001828103825260268152602001806143336026913960400191505060405180910390fd5b600080546040516001600160a01b03808516939216917f8be0079c531659141344cd1fd0a4f28419497f9722a3daafe3b4186f6b6457e091a36000805473ffffffffffffffffffffffffffffffffffffffff19166001600160a01b0392909216919091179055565b6002546001600160a01b031681565b60006109f083836001610e7d565b3390565b6000808211610e48576040805162461bcd60e51b815260206004820152601a60248201527f536166654d6174683a206469766973696f6e206279207a65726f000000000000604482015290519081900360640190fd5b818381610e5157fe5b049392505050565b6000821580610e7457505081810281838281610e7157fe5b04145b6107d357600080fd5b6000826001600160a01b0316846001600160a01b03161415610ea85750670de0b6b3a7640000611e9d565b600154604080517f3149ea1a0000000000000000000000000000000000000000000000000000000081526001600160a01b0387811660048301528681166024830152915160009384938493849384939290921691633149ea1a91604480820192608092909190829003018186803b158015610f2257600080fd5b505afa158015610f36573d6000803e3d6000fd5b505050506040513d6080811015610f4c57600080fd5b5080516020820151604083015160609093015191965094509092509050600160ff85161415610fa157610f7f89836105d9565b9450610f9585610f8f848b6109e2565b9061209b565b95505050505050611e9d565b8260ff1660011415610fcd57610fb788826105d9565b9450610f9585610fc78b846109e2565b906120b9565b8360ff1660021415610fe357610f9582896109e2565b8260ff1660021415610ff957610f9589826109e2565b8360ff166003141561100f57610f7f89836105d9565b8260ff166003141561102557610fb788826105d9565b8360ff16600414156111d6576000896001600160a01b031663d4b839926040518163ffffffff1660e01b815260040160206040518083038186803b15801561106c57600080fd5b505afa158015611080573d6000803e3d6000fd5b505050506040513d602081101561109657600080fd5b50516040805163dbd06c8560e01b8152905191925073d69b189020ef614796578afe4d10378c5e7e11389163ac82f608916001600160a01b0385169163dbd06c8591600480820192602092909190829003018186803b1580156110f857600080fd5b505afa15801561110c573d6000803e3d6000fd5b505050506040513d602081101561112257600080fd5b5051604080517fffffffff0000000000000000000000000000000000000000000000000000000060e085901b1681526004810192909252516024808301926020929190829003018186803b15801561117957600080fd5b505afa15801561118d573d6000803e3d6000fd5b505050506040513d60208110156111a357600080fd5b505195506111c986610f8f73a0b86991c6218b36c1d19d4a2e9eb0ce3606eb488c6109e2565b9650505050505050611e9d565b8260ff166004141561137a576000886001600160a01b031663d4b839926040518163ffffffff1660e01b815260040160206040518083038186803b15801561121d57600080fd5b505afa158015611231573d6000803e3d6000fd5b505050506040513d602081101561124757600080fd5b50516040805163dbd06c8560e01b8152905191925073d69b189020ef614796578afe4d10378c5e7e11389163ac82f608916001600160a01b0385169163dbd06c8591600480820192602092909190829003018186803b1580156112a957600080fd5b505afa1580156112bd573d6000803e3d6000fd5b505050506040513d60208110156112d357600080fd5b5051604080517fffffffff0000000000000000000000000000000000000000000000000000000060e085901b1681526004810192909252516024808301926020929190829003018186803b15801561132a57600080fd5b505afa15801561133e573d6000803e3d6000fd5b505050506040513d602081101561135457600080fd5b505195506111c986610fc78c73a0b86991c6218b36c1d19d4a2e9eb0ce3606eb486109e2565b60006f22d53366457f9d5e68ec105046fc43836001600160a01b031663a262904b6040518163ffffffff1660e01b815260040160206040518083038186803b1580156113c557600080fd5b505afa1580156113d9573d6000803e3d6000fd5b505050506040513d60208110156113ef57600080fd5b505190506113fd8a8a6120d1565b9650861561141057505050505050611e9d565b8460ff16600514156115e9576001600160a01b038a1673c4ad29ba4b3c580e6d59105fff484999997675ff1461157b576000816001600160a01b031663bdf475c38c6040518263ffffffff1660e01b815260040180826001600160a01b0316815260200191505060206040518083038186803b15801561148f57600080fd5b505afa1580156114a3573d6000803e3d6000fd5b505050506040513d60208110156114b957600080fd5b505190506001600160a01b038116156115755760006114d882846123fa565b90506115666114e7828d6109e2565b846001600160a01b031663c5b7074a8f6040518263ffffffff1660e01b815260040180826001600160a01b0316815260200191505060206040518083038186803b15801561153457600080fd5b505afa158015611548573d6000803e3d6000fd5b505050506040513d602081101561155e57600080fd5b50519061209b565b98505050505050505050611e9d565b506115e9565b6111c961159c736b175474e89094c44da98b954eedeac495271d0f8b6109e2565b73e8b2989276e2ca8fdea2268e3551b2b4b24189506001600160a01b03166354f0f7d56040518163ffffffff1660e01b815260040160206040518083038186803b15801561153457600080fd5b8360ff16600514156117d9576001600160a01b03891673c4ad29ba4b3c580e6d59105fff484999997675ff1461173f576000816001600160a01b031663bdf475c38b6040518263ffffffff1660e01b815260040180826001600160a01b0316815260200191505060206040518083038186803b15801561166857600080fd5b505afa15801561167c573d6000803e3d6000fd5b505050506040513d602081101561169257600080fd5b505190506001600160a01b038116156117395760006116b182846123fa565b9050611566836001600160a01b031663c5b7074a8d6040518263ffffffff1660e01b815260040180826001600160a01b0316815260200191505060206040518083038186803b15801561170357600080fd5b505afa158015611717573d6000803e3d6000fd5b505050506040513d602081101561172d57600080fd5b5051610fc78e846109e2565b506117d9565b6111c973e8b2989276e2ca8fdea2268e3551b2b4b24189506001600160a01b03166354f0f7d56040518163ffffffff1660e01b815260040160206040518083038186803b15801561178f57600080fd5b505afa1580156117a3573d6000803e3d6000fd5b505050506040513d60208110156117b957600080fd5b5051610fc78c736b175474e89094c44da98b954eedeac495271d0f6109e2565b8460ff16600614156119265761188f6118568b6001600160a01b031663fc0c546a6040518163ffffffff1660e01b815260040160206040518083038186803b15801561182457600080fd5b505afa158015611838573d6000803e3d6000fd5b505050506040513d602081101561184e57600080fd5b50518b6109e2565b8b6001600160a01b03166399530b066040518163ffffffff1660e01b815260040160206040518083038186803b15801561153457600080fd5b965060008a6001600160a01b031663313ce5676040518163ffffffff1660e01b815260040160206040518083038186803b1580156118cc57600080fd5b505afa1580156118e0573d6000803e3d6000fd5b505050506040513d60208110156118f657600080fd5b505160ff169050601281101561191a57611917886012839003600a0a610e59565b97505b50505050505050611e9d565b8360ff1660061415611ac4576000896001600160a01b031663fc0c546a6040518163ffffffff1660e01b815260040160206040518083038186803b15801561196d57600080fd5b505afa158015611981573d6000803e3d6000fd5b505050506040513d602081101561199757600080fd5b5051604080517f99530b060000000000000000000000000000000000000000000000000000000081529051919250611a2f916001600160a01b038d16916399530b06916004808301926020929190829003018186803b1580156119f957600080fd5b505afa158015611a0d573d6000803e3d6000fd5b505050506040513d6020811015611a2357600080fd5b5051610fc78d846109e2565b975060008a6001600160a01b031663313ce5676040518163ffffffff1660e01b815260040160206040518083038186803b158015611a6c57600080fd5b505afa158015611a80573d6000803e3d6000fd5b505050506040513d6020811015611a9657600080fd5b505160ff1690506012811015611ab757611566896012839003600a0a610df2565b5050505050505050611e9d565b6000805b600454811015611b9757600060048281548110611ae157fe5b6000918252602090912001546001600160a01b0390811691508d168114801590611b1d5750806001600160a01b03168c6001600160a01b031614155b15611b8e57611b2c818d6120d1565b99508915611b6057611b3e8d8261257a565b92508215611b6057611b50838b61209b565b9950505050505050505050611e9d565b611b6a8d826120d1565b99508915611b8e57611b7c818d61257a565b92508215611b8e57611b508a8461209b565b50600101611ac8565b508560ff1660071415611cfe57670de0b6b3a76400006001600160a01b038c16737f39c581f595b53c5cb19bd0b3f8da6c935e2ca01415611c5957737f39c581f595b53c5cb19bd0b3f8da6c935e2ca06001600160a01b031663bb2952fc826040518263ffffffff1660e01b81526004018082815260200191505060206040518083038186803b158015611c2a57600080fd5b505afa158015611c3e573d6000803e3d6000fd5b505050506040513d6020811015611c5457600080fd5b505190505b61156673ae7ab96520de3a18e5e111b5eaab095312d7fe846001600160a01b0316637a28fb88836040518263ffffffff1660e01b81526004018082815260200191505060206040518083038186803b158015611cb457600080fd5b505afa158015611cc8573d6000803e3d6000fd5b505050506040513d6020811015611cde57600080fd5b5051610f8f73c02aaa39b223fe8d0a0e5c4f27ead9083c756cc28e6109e2565b8460ff1660071415611e6457670de0b6b3a76400006001600160a01b038b16737f39c581f595b53c5cb19bd0b3f8da6c935e2ca01415611dbf57737f39c581f595b53c5cb19bd0b3f8da6c935e2ca06001600160a01b031663bb2952fc826040518263ffffffff1660e01b81526004018082815260200191505060206040518083038186803b158015611d9057600080fd5b505afa158015611da4573d6000803e3d6000fd5b505050506040513d6020811015611dba57600080fd5b505190505b61156673ae7ab96520de3a18e5e111b5eaab095312d7fe846001600160a01b03166319208451836040518263ffffffff1660e01b81526004018082815260200191505060206040518083038186803b158015611e1a57600080fd5b505afa158015611e2e573d6000803e3d6000fd5b505050506040513d6020811015611e4457600080fd5b5051610fc78e73c02aaa39b223fe8d0a0e5c4f27ead9083c756cc26109e2565b611e6e8b8b6125b4565b97508715611e825750505050505050611e9d565b8815611e9557611e928b8b612671565b97505b505050505050505b9392505050565b600254604080517fbc819ea600000000000000000000000000000000000000000000000000000000815290516000926001600160a01b03169163bc819ea69160048083019286929190829003018186803b158015611f0157600080fd5b505afa158015611f15573d6000803e3d6000fd5b505050506040513d6000823e601f3d908101601f191682016040526020811015611f3e57600080fd5b8101908080516040519392919084640100000000821115611f5e57600080fd5b908301906020820185811115611f7357600080fd5b8251866020820283011164010000000082111715611f9057600080fd5b82525081516020918201928201910280838360005b83811015611fbd578181015183820152602001611fa5565b50505050905001604052505050905060046000611fda91906142f8565b60005b815181101561209757600160036000848481518110611ff857fe5b60200260200101516001600160a01b03166001600160a01b0316815260200190815260200160002060006101000a81548160ff021916908315150217905550600482828151811061204557fe5b602090810291909101810151825460018082018555600094855292909320909201805473ffffffffffffffffffffffffffffffffffffffff19166001600160a01b039093169290921790915501611fdd565b5050565b60006107d0670de0b6b3a76400006120b38585610e59565b90610df2565b60006107d0826120b385670de0b6b3a7640000610e59565b6000806f22d53366457f9d5e68ec105046fc43836001600160a01b031663a262904b6040518163ffffffff1660e01b815260040160206040518083038186803b15801561211d57600080fd5b505afa158015612131573d6000803e3d6000fd5b505050506040513d602081101561214757600080fd5b5051604080517fa87df06c0000000000000000000000000000000000000000000000000000000081526001600160a01b038781166004830152868116602483015291519293506000929184169163a87df06c91604480820192602092909190829003018186803b1580156121ba57600080fd5b505afa1580156121ce573d6000803e3d6000fd5b505050506040513d60208110156121e457600080fd5b505190506001600160a01b03851673c02aaa39b223fe8d0a0e5c4f27ead9083c756cc214801561221b57506001600160a01b038116155b156122d85773eeeeeeeeeeeeeeeeeeeeeeeeeeeeeeeeeeeeeeee9450816001600160a01b031663a87df06c73eeeeeeeeeeeeeeeeeeeeeeeeeeeeeeeeeeeeeeee866040518363ffffffff1660e01b815260040180836001600160a01b03168152602001826001600160a01b031681526020019250505060206040518083038186803b1580156122a957600080fd5b505afa1580156122bd573d6000803e3d6000fd5b505050506040513d60208110156122d357600080fd5b505190505b6001600160a01b03841673c02aaa39b223fe8d0a0e5c4f27ead9083c756cc214801561230b57506001600160a01b038116155b156123c85773eeeeeeeeeeeeeeeeeeeeeeeeeeeeeeeeeeeeeeee9350816001600160a01b031663a87df06c8673eeeeeeeeeeeeeeeeeeeeeeeeeeeeeeeeeeeeeeee6040518363ffffffff1660e01b815260040180836001600160a01b03168152602001826001600160a01b031681526020019250505060206040518083038186803b15801561239957600080fd5b505afa1580156123ad573d6000803e3d6000fd5b505050506040513d60208110156123c357600080fd5b505190505b6001600160a01b038116156123ef5760006123e48287876128f9565b93506107d392505050565b506000949350505050565b600080826001600160a01b031663a77576ef856040518263ffffffff1660e01b815260040180826001600160a01b031681526020019150506101006040518083038186803b15801561244b57600080fd5b505afa15801561245f573d6000803e3d6000fd5b505050506040513d601f19601f8201168201806040525061010081101561248557600080fd5b5080519091506001600160a01b0316156124ea5780516001600160a01b031673eeeeeeeeeeeeeeeeeeeeeeeeeeeeeeeeeeeeeeee146124cc578060005b60200201516124e2565b73c02aaa39b223fe8d0a0e5c4f27ead9083c756cc25b9150506107d3565b60208101516001600160a01b03161561252d5760208101516001600160a01b031673eeeeeeeeeeeeeeeeeeeeeeeeeeeeeeeeeeeeeeee146124cc578060016124c2565b60408101516001600160a01b0316156125705760408101516001600160a01b031673eeeeeeeeeeeeeeeeeeeeeeeeeeeeeeeeeeeeeeee146124cc578060026124c2565b5060009392505050565b6000806125878484612ee4565b90506001600160a01b0381166125a15760009150506107d3565b6125ac8185856132d1565b949350505050565b6000670de0b6b3a76400008184846125cb82613434565b6125e2576125da87600161347d565b945084935091505b6125eb86613434565b61263d576125fa86600061347d565b935090506001600160a01b03828116908216146126285761262561261e838361257a565b859061209b565b93505b612632848461209b565b9450505050506107d3565b806001600160a01b0316826001600160a01b0316146126665761266361261e838361257a565b93505b509195945050505050565b6040805160028082526060820183526000928392919060208301908036833701905050905083816000815181106126a457fe5b60200260200101906001600160a01b031690816001600160a01b03168152505082816001815181106126d257fe5b60200260200101906001600160a01b031690816001600160a01b031681525050737a250d5630b4cf539739df2c5dacb4c659f2488d6001600160a01b031663d06ca61f856001600160a01b031663313ce5676040518163ffffffff1660e01b815260040160206040518083038186803b15801561274e57600080fd5b505afa158015612762573d6000803e3d6000fd5b505050506040513d602081101561277857600080fd5b5051604080517fffffffff0000000000000000000000000000000000000000000000000000000060e085901b16815260ff8316600482019081526024820192835286516044830152865187939192606401906020858101910280838360005b838110156127ef5781810151838201526020016127d7565b50505050905001935050505060006040518083038186803b15801561281357600080fd5b505afa158015612827573d6000803e3d6000fd5b505050506040513d6000823e601f3d908101601f19168201604052602081101561285057600080fd5b810190808051604051939291908464010000000082111561287057600080fd5b90830190602082018581111561288557600080fd5b82518660208202830111640100000000821117156128a257600080fd5b82525081516020918201928201910280838360005b838110156128cf5781810151838201526020016128b7565b505050509050016040525050506001815181106128e857fe5b602002602001015191505092915050565b6000806f22d53366457f9d5e68ec105046fc43836001600160a01b031663a262904b6040518163ffffffff1660e01b815260040160206040518083038186803b15801561294557600080fd5b505afa158015612959573d6000803e3d6000fd5b505050506040513d602081101561296f57600080fd5b5051604080517feb85226d0000000000000000000000000000000000000000000000000000000081526001600160a01b038881166004830152878116602483015286811660448301529151929350600092839283929086169163eb85226d91606480820192606092909190829003018186803b1580156129ee57600080fd5b505afa158015612a02573d6000803e3d6000fd5b505050506040513d6060811015612a1857600080fd5b50805160208201516040909201519094509092509050600073d51a44d3fae010294c616388b506acda1bfaae466001600160a01b038a161480612a7757507380466c64868e1ab14a1ddf27a676c3fcbe638fe56001600160a01b038a16145b15612ba857886001600160a01b031663556d6e9f85600f0b85600f0b73eeeeeeeeeeeeeeeeeeeeeeeeeeeeeeeeeeeeeeee6001600160a01b03168c6001600160a01b031614612b2a578b6001600160a01b031663313ce5676040518163ffffffff1660e01b815260040160206040518083038186803b158015612af957600080fd5b505afa158015612b0d573d6000803e3d6000fd5b505050506040513d6020811015612b2357600080fd5b5051612b2d565b60125b60ff16600a0a6040518463ffffffff1660e01b815260040180848152602001838152602001828152602001935050505060206040518083038186803b158015612b7557600080fd5b505afa158015612b89573d6000803e3d6000fd5b505050506040513d6020811015612b9f57600080fd5b50519050612dcf565b8115612ca757886001600160a01b03166307211ef7858573eeeeeeeeeeeeeeeeeeeeeeeeeeeeeeeeeeeeeeee6001600160a01b03168c6001600160a01b031614612c56578b6001600160a01b031663313ce5676040518163ffffffff1660e01b815260040160206040518083038186803b158015612c2557600080fd5b505afa158015612c39573d6000803e3d6000fd5b505050506040513d6020811015612c4f57600080fd5b5051612c59565b60125b60ff16600a0a6040518463ffffffff1660e01b81526004018084600f0b815260200183600f0b8152602001828152602001935050505060206040518083038186803b158015612b7557600080fd5b886001600160a01b0316635e0d443f858573eeeeeeeeeeeeeeeeeeeeeeeeeeeeeeeeeeeeeeee6001600160a01b03168c6001600160a01b031614612d4f578b6001600160a01b031663313ce5676040518163ffffffff1660e01b815260040160206040518083038186803b158015612d1e57600080fd5b505afa158015612d32573d6000803e3d6000fd5b505050506040513d6020811015612d4857600080fd5b5051612d52565b60125b60ff16600a0a6040518463ffffffff1660e01b81526004018084600f0b815260200183600f0b8152602001828152602001935050505060206040518083038186803b158015612da057600080fd5b505afa158015612db4573d6000803e3d6000fd5b505050506040513d6020811015612dca57600080fd5b505190505b612e7b6001600160a01b03881673eeeeeeeeeeeeeeeeeeeeeeeeeeeeeeeeeeeeeeee14612e6057876001600160a01b031663313ce5676040518163ffffffff1660e01b815260040160206040518083038186803b158015612e2f57600080fd5b505afa158015612e43573d6000803e3d6000fd5b505050506040513d6020811015612e5957600080fd5b5051612e63565b60125b60120360ff16600a0a82610e5990919063ffffffff16565b90506000612e908266d529ae9e86000061209b565b9050612ea4670de0b6b3a76400008261354f565b82108015612ec25750612ebf670de0b6b3a76400008261355f565b82115b15612ed457509450611e9d9350505050565b5060009998505050505050505050565b60408051630b4c774160e11b81526001600160a01b038481166004830152831660248201526101f4604482015290516000918291731f98431c8ad98523631ae4a59f267346ea31f98491631698ee82916064808301926020929190829003018186803b158015612f5357600080fd5b505afa158015612f67573d6000803e3d6000fd5b505050506040513d6020811015612f7d57600080fd5b505160408051630b4c774160e11b81526001600160a01b03878116600483015286166024820152610bb860448201529051919250600091731f98431c8ad98523631ae4a59f267346ea31f98491631698ee82916064808301926020929190829003018186803b158015612fef57600080fd5b505afa158015613003573d6000803e3d6000fd5b505050506040513d602081101561301957600080fd5b505160408051630b4c774160e11b81526001600160a01b0388811660048301528716602482015261271060448201529051919250600091731f98431c8ad98523631ae4a59f267346ea31f98491631698ee82916064808301926020929190829003018186803b15801561308b57600080fd5b505afa15801561309f573d6000803e3d6000fd5b505050506040513d60208110156130b557600080fd5b5051905060006001600160a01b0384166130d0576000613136565b836001600160a01b0316631a6865026040518163ffffffff1660e01b815260040160206040518083038186803b15801561310957600080fd5b505afa15801561311d573d6000803e3d6000fd5b505050506040513d602081101561313357600080fd5b50515b905060006001600160a01b03841661314f5760006131b5565b836001600160a01b0316631a6865026040518163ffffffff1660e01b815260040160206040518083038186803b15801561318857600080fd5b505afa15801561319c573d6000803e3d6000fd5b505050506040513d60208110156131b257600080fd5b50515b905060006001600160a01b0384166131ce576000613234565b836001600160a01b0316631a6865026040518163ffffffff1660e01b815260040160206040518083038186803b15801561320757600080fd5b505afa15801561321b573d6000803e3d6000fd5b505050506040513d602081101561323157600080fd5b50515b9050816001600160801b0316836001600160801b03161015801561326a5750806001600160801b0316836001600160801b031610155b1561327d578596505050505050506107d3565b826001600160801b0316826001600160801b0316101580156132b15750806001600160801b0316826001600160801b031610155b156132c4578496505050505050506107d3565b5091979650505050505050565b600080846001600160a01b0316633850c7bd6040518163ffffffff1660e01b815260040160e06040518083038186803b15801561330d57600080fd5b505afa158015613321573d6000803e3d6000fd5b505050506040513d60e081101561333757600080fd5b50602001519050613348818661356f565b613356576000915050611e9d565b61342b6133cc856001600160a01b031663313ce5676040518163ffffffff1660e01b815260040160206040518083038186803b15801561339557600080fd5b505afa1580156133a9573d6000803e3d6000fd5b505050506040513d60208110156133bf57600080fd5b505160129060ff1661355f565b600a0a6120b383613424613412886001600160a01b031663313ce5676040518163ffffffff1660e01b815260040160206040518083038186803b15801561339557600080fd5b670de0b6b3a764000090600a0a610e59565b8888613665565b95945050505050565b6001600160a01b03811660009081526003602052604081205460ff16801561347557506001600160a01b03821660009081526005602052604090205460ff16155b90505b919050565b60008080808080805b600454811015613514576000806134d38b600485815481106134a457fe5b6000918252602090912001546001600160a01b0316736b175474e89094c44da98b954eedeac495271d0f61375c565b915091508381111561350a57819450809350600483815481106134f257fe5b6000918252602090912001546001600160a01b031695505b5050600101613486565b5080156135415786156135335761352c8289856132d1565b9350613541565b61353e82848a6132d1565b93505b509096919550909350505050565b808201828110156107d357600080fd5b808203828111156107d357600080fd5b600080826001600160a01b031663d0c93a7c6040518163ffffffff1660e01b815260040160206040518083038186803b1580156135ab57600080fd5b505afa1580156135bf573d6000803e3d6000fd5b505050506040513d60208110156135d557600080fd5b50519050620d85ff198101600290810b9085900b12156135f95760009150506107d3565b806103e8620d89e719600003030360020b8460020b131561361e5760009150506107d3565b600061362984613a5b565b905060008160060b8660020b13613645578560020b820361364c565b818660020b035b60068054600290810b900b91900b129695505050505050565b60008061367186613d04565b90506001600160801b036001600160a01b038216116136e0576001600160a01b03808216800290848116908616106136c0576136bb600160c01b876001600160801b031683614052565b6136d8565b6136d881876001600160801b0316600160c01b614052565b925050613753565b60006136ff6001600160a01b0383168068010000000000000000614052565b9050836001600160a01b0316856001600160a01b03161061373757613732600160801b876001600160801b031683614052565b61374f565b61374f81876001600160801b0316600160801b614052565b9250505b50949350505050565b600080600061376b8686612ee4565b90506001600160a01b038116613788576000809250925050613a53565b6000816001600160a01b0316631a6865026040518163ffffffff1660e01b815260040160206040518083038186803b1580156137c357600080fd5b505afa1580156137d7573d6000803e3d6000fd5b505050506040513d60208110156137ed57600080fd5b5051604080517f0dfe168100000000000000000000000000000000000000000000000000000000815290516001600160801b039092169250600091829182916001600160a01b03871691630dfe1681916004808301926020929190829003018186803b15801561385c57600080fd5b505afa158015613870573d6000803e3d6000fd5b505050506040513d602081101561388657600080fd5b5051604080517fd21220a700000000000000000000000000000000000000000000000000000000815290519192506000916001600160a01b0388169163d21220a7916004808301926020929190829003018186803b1580156138e757600080fd5b505afa1580156138fb573d6000803e3d6000fd5b505050506040513d602081101561391157600080fd5b5051905061391e82613434565b156139b3576139a9816001600160a01b03166370a08231886040518263ffffffff1660e01b815260040180826001600160a01b0316815260200191505060206040518083038186803b15801561397357600080fd5b505afa158015613987573d6000803e3d6000fd5b505050506040513d602081101561399d57600080fd5b50516120b38780610e59565b9350819250613a09565b613a03826001600160a01b03166370a08231886040518263ffffffff1660e01b815260040180826001600160a01b0316815260200191505060206040518083038186803b15801561397357600080fd5b93508092505b886001600160a01b0316836001600160a01b031614613a48576000613a2e848b6109e2565b9050613a44848b613a3f888561209b565b614101565b9450505b509395509093505050505b935093915050565b60408051600280825260608201835260009283929190602083019080368337019050509050601e81600081518110613a8f57fe5b602002602001019063ffffffff16908163ffffffff1681525050600081600181518110613ab857fe5b63ffffffff9092166020928302919091018201526040517f883bdbfd000000000000000000000000000000000000000000000000000000008152600481018281528351602483015283516001600160a01b0387169363883bdbfd938693928392604490920191858101910280838360005b83811015613b41578181015183820152602001613b29565b505050509050019250505060006040518083038186803b158015613b6457600080fd5b505afa925050508015613cae57506040513d6000823e601f3d908101601f191682016040908152811015613b9757600080fd5b8101908080516040519392919084640100000000821115613bb757600080fd5b908301906020820185811115613bcc57600080fd5b8251866020820283011164010000000082111715613be957600080fd5b82525081516020918201928201910280838360005b83811015613c16578181015183820152602001613bfe565b5050505090500160405260200180516040519392919084640100000000821115613c3f57600080fd5b908301906020820185811115613c5457600080fd5b8251866020820283011164010000000082111715613c7157600080fd5b82525081516020918201928201910280838360005b83811015613c9e578181015183820152602001613c86565b5050505090500160405250505060015b613cbc576000915050613478565b601e63ffffffff1682600081518110613cd157fe5b602002602001015183600181518110613ce657fe5b60200260200101510360060b81613cf957fe5b059350505050613478565b60008060008360020b12613d1b578260020b613d23565b8260020b6000035b9050620d89e8811115613d7d576040805162461bcd60e51b815260206004820152600160248201527f5400000000000000000000000000000000000000000000000000000000000000604482015290519081900360640190fd5b600060018216613d9157600160801b613da3565b6ffffcb933bd6fad37aa2d162d1a5940015b70ffffffffffffffffffffffffffffffffff1690506002821615613dd7576ffff97272373d413259a46990580e213a0260801c5b6004821615613df6576ffff2e50f5f656932ef12357cf3c7fdcc0260801c5b6008821615613e15576fffe5caca7e10e4e61c3624eaa0941cd00260801c5b6010821615613e34576fffcb9843d60f6159c9db58835c9266440260801c5b6020821615613e53576fff973b41fa98c081472e6896dfb254c00260801c5b6040821615613e72576fff2ea16466c96a3843ec78b326b528610260801c5b6080821615613e91576ffe5dee046a99a2a811c461f1969c30530260801c5b610100821615613eb1576ffcbe86c7900a88aedcffc83b479aa3a40260801c5b610200821615613ed1576ff987a7253ac413176f2b074cf7815e540260801c5b610400821615613ef1576ff3392b0822b70005940c7a398e4b70f30260801c5b610800821615613f11576fe7159475a2c29b7443b29c7fa6e889d90260801c5b611000821615613f31576fd097f3bdfd2022b8845ad8f792aa58250260801c5b612000821615613f51576fa9f746462d870fdf8a65dc1f90e061e50260801c5b614000821615613f71576f70d869a156d2a1b890bb3df62baf32f70260801c5b618000821615613f91576f31be135f97d08fd981231505542fcfa60260801c5b62010000821615613fb2576f09aa508b5b7a84e1c677de54f3e99bc90260801c5b62020000821615613fd2576e5d6af8dedb81196699c329225ee6040260801c5b62040000821615613ff1576d2216e584f5fa1ea926041bedfe980260801c5b6208000082161561400e576b048a170391f7dc42444e8fa20260801c5b60008460020b131561402957806000198161402557fe5b0490505b64010000000081061561403d576001614040565b60005b60ff16602082901c0192505050919050565b6000808060001985870986860292508281109083900303905080614088576000841161407d57600080fd5b508290049050611e9d565b80841161409457600080fd5b6000848688096000868103871696879004966002600389028118808a02820302808a02820302808a02820302808a02820302808a02820302808a02909103029181900381900460010186841190950394909402919094039290920491909117919091029150509392505050565b60008061410d856142c2565b61417b57846001600160a01b031663313ce5676040518163ffffffff1660e01b815260040160206040518083038186803b15801561414a57600080fd5b505afa15801561415e573d6000803e3d6000fd5b505050506040513d602081101561417457600080fd5b505161417e565b60125b60ff169050600061418e856142c2565b6141fc57846001600160a01b031663313ce5676040518163ffffffff1660e01b815260040160206040518083038186803b1580156141cb57600080fd5b505afa1580156141df573d6000803e3d6000fd5b505050506040513d60208110156141f557600080fd5b50516141ff565b60125b60ff16905060128211158015614216575060128111155b614267576040805162461bcd60e51b815260206004820152601460248201527f556e737570706f7274656420646563696d616c73000000000000000000000000604482015290519081900360640190fd5b80821415614279578392505050611e9d565b818111156142a15761429861428e828461355f565b8590600a0a610e59565b92505050611e9d565b6142b86142ae838361355f565b8590600a0a610df2565b9695505050505050565b600073eeeeeeeeeeeeeeeeeeeeeeeeeeeeeeeeeeeeeeee6001600160a01b03831614806134755750506001600160a01b03161590565b50805460008255906000526020600020908101906143169190614319565b50565b5b8082111561432e576000815560010161431a565b509056fe4f776e61626c653a206e6577206f776e657220697320746865207a65726f20616464726573734d6178207477617020646576696174696f6e206d7573742062652077697468696e2072616e6765a2646970667358221220d2260c75074c5c4e5e555f4e7124963896ac551c47ca3f4dce995c3d29687b7e64736f6c63430007060033",
  "devdoc": {
    "author": "Babylon Finance Protocol Uses Uniswap V3 to get a price of a token pair",
    "kind": "dev",
    "methods": {
      "getPrice(address,address)": {
        "params": {
          "_tokenIn": "Address of the first token",
          "_tokenOut": "Address of the second token"
        },
        "returns": {
          "price": "               Price of the pair"
        }
      },
      "getPriceNAV(address,address)": {
        "params": {
          "_tokenIn": "Address of the first token",
          "_tokenOut": "Address of the second token"
        },
        "returns": {
          "price": "               Price of the pair"
        }
      },
      "owner()": {
        "details": "Returns the address of the current owner."
      },
      "renounceOwnership()": {
        "details": "Leaves the contract without owner. It will not be possible to call `onlyOwner` functions anymore. Can only be called by the current owner. NOTE: Renouncing ownership will leave the contract without an owner, thereby removing any functionality that is only available to the owner."
      },
      "transferOwnership(address)": {
        "details": "Transfers ownership of the contract to a new account (`newOwner`). Can only be called by the current owner."
      }
    },
    "title": "PriceOracle",
    "version": 1
  },
  "userdoc": {
    "kind": "user",
    "methods": {
      "getPrice(address,address)": {
        "notice": "Returns the amount out corresponding to the amount in for a given token"
      },
      "getPriceNAV(address,address)": {
        "notice": "Returns the amount out corresponding to the amount in for a given token"
      }
    },
    "version": 1
  },
  "storageLayout": {
    "storage": [
      {
        "astId": 1456,
        "contract": "contracts/PriceOracle.sol:PriceOracle",
        "label": "_owner",
        "offset": 0,
        "slot": "0",
        "type": "t_address"
      },
      {
        "astId": 14873,
        "contract": "contracts/PriceOracle.sol:PriceOracle",
        "label": "tokenIdentifier",
        "offset": 0,
        "slot": "1",
        "type": "t_contract(ITokenIdentifier)38020"
      },
      {
        "astId": 14875,
        "contract": "contracts/PriceOracle.sol:PriceOracle",
        "label": "controller",
        "offset": 0,
        "slot": "2",
        "type": "t_contract(IBabController)36189"
      },
      {
        "astId": 14879,
        "contract": "contracts/PriceOracle.sol:PriceOracle",
        "label": "reserveAssets",
        "offset": 0,
        "slot": "3",
        "type": "t_mapping(t_address,t_bool)"
      },
      {
        "astId": 14882,
        "contract": "contracts/PriceOracle.sol:PriceOracle",
        "label": "reserveAssetsList",
        "offset": 0,
        "slot": "4",
        "type": "t_array(t_address)dyn_storage"
      },
      {
        "astId": 14886,
        "contract": "contracts/PriceOracle.sol:PriceOracle",
        "label": "blackListReserveForOracle",
        "offset": 0,
        "slot": "5",
        "type": "t_mapping(t_address,t_bool)"
      },
      {
        "astId": 14888,
        "contract": "contracts/PriceOracle.sol:PriceOracle",
        "label": "maxTwapDeviation",
        "offset": 0,
        "slot": "6",
        "type": "t_int24"
      }
    ],
    "types": {
      "t_address": {
        "encoding": "inplace",
        "label": "address",
        "numberOfBytes": "20"
      },
      "t_array(t_address)dyn_storage": {
        "base": "t_address",
        "encoding": "dynamic_array",
        "label": "address[]",
        "numberOfBytes": "32"
      },
      "t_bool": {
        "encoding": "inplace",
        "label": "bool",
        "numberOfBytes": "1"
      },
      "t_contract(IBabController)36189": {
        "encoding": "inplace",
        "label": "contract IBabController",
        "numberOfBytes": "20"
      },
      "t_contract(ITokenIdentifier)38020": {
        "encoding": "inplace",
        "label": "contract ITokenIdentifier",
        "numberOfBytes": "20"
      },
      "t_int24": {
        "encoding": "inplace",
        "label": "int24",
        "numberOfBytes": "3"
      },
      "t_mapping(t_address,t_bool)": {
        "encoding": "mapping",
        "key": "t_address",
        "label": "mapping(address => bool)",
        "numberOfBytes": "32",
        "value": "t_bool"
      }
    }
  }
}