{
  "address": "0x36F4cFDCAD509feEd484D56FB57708031CF97D4c",
  "abi": [
    {
      "inputs": [],
      "stateMutability": "nonpayable",
      "type": "constructor"
    },
    {
      "anonymous": false,
      "inputs": [
        {
          "indexed": true,
          "internalType": "address",
          "name": "previousOwner",
          "type": "address"
        },
        {
          "indexed": true,
          "internalType": "address",
          "name": "newOwner",
          "type": "address"
        }
      ],
      "name": "OwnershipTransferred",
      "type": "event"
    },
    {
      "inputs": [
        {
          "internalType": "address",
          "name": "",
          "type": "address"
        }
      ],
      "name": "aTokenToAsset",
      "outputs": [
        {
          "internalType": "address",
          "name": "",
          "type": "address"
        }
      ],
      "stateMutability": "view",
      "type": "function"
    },
    {
      "inputs": [
        {
          "internalType": "address",
          "name": "",
          "type": "address"
        }
      ],
      "name": "cTokenToAsset",
      "outputs": [
        {
          "internalType": "address",
          "name": "",
          "type": "address"
        }
      ],
      "stateMutability": "view",
      "type": "function"
    },
    {
      "inputs": [
        {
          "internalType": "address",
          "name": "",
          "type": "address"
        }
      ],
      "name": "crTokenToAsset",
      "outputs": [
        {
          "internalType": "address",
          "name": "",
          "type": "address"
        }
      ],
      "stateMutability": "view",
      "type": "function"
    },
    {
      "inputs": [
        {
          "internalType": "address",
          "name": "_asset",
          "type": "address"
        }
      ],
      "name": "getCompoundExchangeRate",
      "outputs": [
        {
          "internalType": "uint256",
          "name": "",
          "type": "uint256"
        }
      ],
      "stateMutability": "view",
      "type": "function"
    },
    {
      "inputs": [
        {
          "internalType": "address",
          "name": "_asset",
          "type": "address"
        }
      ],
      "name": "getCreamExchangeRate",
      "outputs": [
        {
          "internalType": "uint256",
          "name": "",
          "type": "uint256"
        }
      ],
      "stateMutability": "view",
      "type": "function"
    },
    {
      "inputs": [
        {
          "internalType": "address",
          "name": "_tokenIn",
          "type": "address"
        },
        {
          "internalType": "address",
          "name": "_tokenOut",
          "type": "address"
        }
      ],
      "name": "getPrice",
      "outputs": [
        {
          "internalType": "uint256",
          "name": "price",
          "type": "uint256"
        }
      ],
      "stateMutability": "view",
      "type": "function"
    },
    {
      "inputs": [],
      "name": "owner",
      "outputs": [
        {
          "internalType": "address",
          "name": "",
          "type": "address"
        }
      ],
      "stateMutability": "view",
      "type": "function"
    },
    {
      "inputs": [],
      "name": "renounceOwnership",
      "outputs": [],
      "stateMutability": "nonpayable",
      "type": "function"
    },
    {
      "inputs": [
        {
          "internalType": "address",
          "name": "",
          "type": "address"
        }
      ],
      "name": "synths",
      "outputs": [
        {
          "internalType": "bool",
          "name": "",
          "type": "bool"
        }
      ],
      "stateMutability": "view",
      "type": "function"
    },
    {
      "inputs": [
        {
          "internalType": "address",
          "name": "newOwner",
          "type": "address"
        }
      ],
      "name": "transferOwnership",
      "outputs": [],
      "stateMutability": "nonpayable",
      "type": "function"
    }
  ],
  "transactionHash": "0x9a87a73a0304b5b171d941392b6f5e0cdec88ed6e299691c4e4de6f4cb7709a6",
  "args": [],
  "solcInputHash": "474f8becce760e369307ac4c1fb7d2eb",
  "bytecode": "0x608060405234801561001057600080fd5b50600061001b6135d4565b600080546001600160a01b0319166001600160a01b0383169081178255604051929350917f8be0079c531659141344cd1fd0a4f28419497f9722a3daafe3b4186f6b6457e0908290a350736b175474e89094c44da98b954eedeac495271d0f60016000735d3a536e4d6dbd6114cc1ead35777bab948e36436001600160a01b03166001600160a01b0316815260200190815260200160002060006101000a8154816001600160a01b0302191690836001600160a01b03160217905550731f9840a85d5af5bf1d1762f925bdaddc4201f984600160007335a18000230da775cac24873d00ff85bccded5506001600160a01b03166001600160a01b0316815260200190815260200160002060006101000a8154816001600160a01b0302191690836001600160a01b0316021790555073c02aaa39b223fe8d0a0e5c4f27ead9083c756cc260016000734ddc2d193948926d02f9b1fe9e1daa0718270ed56001600160a01b03166001600160a01b0316815260200190815260200160002060006101000a8154816001600160a01b0302191690836001600160a01b0316021790555073a0b86991c6218b36c1d19d4a2e9eb0ce3606eb48600160007339aa39c021dfbae8fac545936693ac917d5e75636001600160a01b03166001600160a01b0316815260200190815260200160002060006101000a8154816001600160a01b0302191690836001600160a01b0316021790555073dac17f958d2ee523a2206206994597c13d831ec76001600073f650c3d88d12db855b8bf7d11be6c55a4e07dcc96001600160a01b03166001600160a01b0316815260200190815260200160002060006101000a8154816001600160a01b0302191690836001600160a01b03160217905550732260fac5e5542a773aa44fbcfedf7c193bc2c5996001600073ccf4429db6322d5c611ee964527d42e5d685dd6a6001600160a01b03166001600160a01b0316815260200190815260200160002060006101000a8154816001600160a01b0302191690836001600160a01b0316021790555073c00e94cb662c3520282e6f5717214004a7f26888600160007370e36f6bf80a52b3b46b3af8e106cc0ed743e8e46001600160a01b03166001600160a01b0316815260200190815260200160002060006101000a8154816001600160a01b0302191690836001600160a01b03160217905550730d8775f648430679a709e98d2b0cb6250d2887ef60016000736c8c6b02e7b2be14d4fa6022dfd6d75921d90e4e6001600160a01b03166001600160a01b0316815260200190815260200160002060006101000a8154816001600160a01b0302191690836001600160a01b0316021790555073514910771af9ca656af840dff83e8264ecf986ca6001600073face851a4921ce59e912d19329929ce6da6eb0c76001600160a01b03166001600160a01b0316815260200190815260200160002060006101000a8154816001600160a01b0302191690836001600160a01b03160217905550731985365e9f78359a9b6ad760e32412f4a445e8626001600073158079ee67fce2f58472a96584a73c7ab9ac95c16001600160a01b03166001600160a01b0316815260200190815260200160002060006101000a8154816001600160a01b0302191690836001600160a01b031602179055507389d24a6b4ccb1b6faa2625fe562bdd9a232603596001600073f5dce57282a584d2746faf1593d3121fcac444dc6001600160a01b03166001600160a01b0316815260200190815260200160002060006101000a8154816001600160a01b0302191690836001600160a01b031602179055506e085d4780b73119b644ae5ecd22b376600160007312392f67bdf24fae0af363c24ac620a2f67dad866001600160a01b03166001600160a01b0316815260200190815260200160002060006101000a8154816001600160a01b0302191690836001600160a01b0316021790555073e41d2489571d322189246dafa5ebde1f4699f4986001600073b3319f5d18bc0d84dd1b4825dcde5d5f7266d4076001600160a01b03166001600160a01b0316815260200190815260200160002060006101000a8154816001600160a01b0302191690836001600160a01b03160217905550737fc66500c84a76ad7e9c93437bfc5ac33e2ddae96002600073ffc97d72e13e01096502cb8eb52dee56f74dad7b6001600160a01b03166001600160a01b0316815260200190815260200160002060006101000a8154816001600160a01b0302191690836001600160a01b0316021790555073ba100000625a3754423978a60c9317c58a424e3d6002600073272f97b7a56a387ae942350bbc7df5700f8a45766001600160a01b03166001600160a01b0316815260200190815260200160002060006101000a8154816001600160a01b0302191690836001600160a01b03160217905550730d8775f648430679a709e98d2b0cb6250d2887ef600260007305ec93c0365baaeabf7aeffb0972ea7ecdd39cf16001600160a01b03166001600160a01b0316815260200190815260200160002060006101000a8154816001600160a01b0302191690836001600160a01b03160217905550734fabb145d64652a948d72533023f6e7a623c7c536002600073a361718326c15715591c299427c62086f69923d96001600160a01b03166001600160a01b0316815260200190815260200160002060006101000a8154816001600160a01b0302191690836001600160a01b0316021790555073d533a949740bb3306d119cc777fa900ba034cd5260026000738dae6cb04688c62d939ed9b68d32bc62e49970b16001600160a01b03166001600160a01b0316815260200190815260200160002060006101000a8154816001600160a01b0302191690836001600160a01b03160217905550736b175474e89094c44da98b954eedeac495271d0f6002600073028171bca77440897b824ca71d1c56cac55b68a36001600160a01b03166001600160a01b0316815260200190815260200160002060006101000a8154816001600160a01b0302191690836001600160a01b0316021790555073f629cbd94d3791c9250152bd8dfbdf380e2a3b9c6002600073ac6df26a590f08dcc95d5a4705ae8abbc88509ef6001600160a01b03166001600160a01b0316815260200190815260200160002060006101000a8154816001600160a01b0302191690836001600160a01b0316021790555073056fd409e1d7a124bd7017459dfea2f387b6d5cd6002600073d37ee7e4f452c6638c96536e68090de8cbcdb5836001600160a01b03166001600160a01b0316815260200190815260200160002060006101000a8154816001600160a01b0302191690836001600160a01b0316021790555073dd974d5c2e2928dea5f71b9825b8b646686bd200600260007339c6b3e42d6a679d7d776778fe880bc9487c2eda6001600160a01b03166001600160a01b0316815260200190815260200160002060006101000a8154816001600160a01b0302191690836001600160a01b0316021790555073514910771af9ca656af840dff83e8264ecf986ca6002600073a06bc25b5805d5f8d82847d191cb4af5a3e873e06001600160a01b03166001600160a01b0316815260200190815260200160002060006101000a8154816001600160a01b0302191690836001600160a01b03160217905550730f5d2fb29fb7d3cfee444a200298f468908cc9426002600073a685a61171bb30d4072b338c80cb7b2c865c873e6001600160a01b03166001600160a01b0316815260200190815260200160002060006101000a8154816001600160a01b0302191690836001600160a01b03160217905550739f8f72aa9304c8b593d555f12ef6589cc3a579a26002600073c713e5e149d5d0715dcd1c156a020976e7e56b886001600160a01b03166001600160a01b0316815260200190815260200160002060006101000a8154816001600160a01b0302191690836001600160a01b031602179055507303ab458634910aad20ef5f1c8ee96f1d6ac549196002600073c9bc48c72154ef3e5425641a3c747242112a46af6001600160a01b03166001600160a01b0316815260200190815260200160002060006101000a8154816001600160a01b0302191690836001600160a01b0316021790555073408e41876cccdc0f92210600ef50372656052a386002600073cc12abe4ff81c9378d670de1b57f8e0dd228d77a6001600160a01b03166001600160a01b0316815260200190815260200160002060006101000a8154816001600160a01b0302191690836001600160a01b0316021790555073c011a73ee8576fb46f5e1c5751ca3b9fe0af2a6f600260007335f6b052c598d933d69a4eec4d04c73a191fe6c26001600160a01b03166001600160a01b0316815260200190815260200160002060006101000a8154816001600160a01b0302191690836001600160a01b031602179055507357ab1ec28d129707052df4df418d58a2d46d5f5160026000736c5024cd4f8a59110119c56f8933403a539555eb6001600160a01b03166001600160a01b0316815260200190815260200160002060006101000a8154816001600160a01b0302191690836001600160a01b031602179055506e085d4780b73119b644ae5ecd22b3766002600073101cc05f4a51c0319f570d5e146a8c625198e6366001600160a01b03166001600160a01b0316815260200190815260200160002060006101000a8154816001600160a01b0302191690836001600160a01b03160217905550731f9840a85d5af5bf1d1762f925bdaddc4201f9846002600073b9d7cb55f463405cdfbe4e90a6d2df01c2b92bf16001600160a01b03166001600160a01b0316815260200190815260200160002060006101000a8154816001600160a01b0302191690836001600160a01b0316021790555073a0b86991c6218b36c1d19d4a2e9eb0ce3606eb486002600073bcca60bb61934080951369a648fb03df4f96263c6001600160a01b03166001600160a01b0316815260200190815260200160002060006101000a8154816001600160a01b0302191690836001600160a01b0316021790555073dac17f958d2ee523a2206206994597c13d831ec760026000733ed3b47dd13ec9a98b44e6204a523e766b2258116001600160a01b03166001600160a01b0316815260200190815260200160002060006101000a8154816001600160a01b0302191690836001600160a01b03160217905550732260fac5e5542a773aa44fbcfedf7c193bc2c59960026000739ff58f4ffb29fa2266ab25e75e2a8b35033116566001600160a01b03166001600160a01b0316815260200190815260200160002060006101000a8154816001600160a01b0302191690836001600160a01b0316021790555073c02aaa39b223fe8d0a0e5c4f27ead9083c756cc26002600073030ba81f1c18d280636f32af80b9aad02cf0854e6001600160a01b03166001600160a01b0316815260200190815260200160002060006101000a8154816001600160a01b0302191690836001600160a01b03160217905550738798249c2e607446efb7ad49ec89dd1865ff42726002600073f256cc7847e919fac9b808cc216cac87ccf2f47a6001600160a01b03166001600160a01b0316815260200190815260200160002060006101000a8154816001600160a01b0302191690836001600160a01b03160217905550730bc529c00c6401aef6d220be8c6ea1667f6ad93e60026000735165d24277cd063f5ac44efd447b27025e888f376001600160a01b03166001600160a01b0316815260200190815260200160002060006101000a8154816001600160a01b0302191690836001600160a01b0316021790555073e41d2489571d322189246dafa5ebde1f4699f4986002600073df7ff54aacacbff42dfe29dd6144a69b629f8c9e6001600160a01b03166001600160a01b0316815260200190815260200160002060006101000a8154816001600160a01b0302191690836001600160a01b0316021790555073c02aaa39b223fe8d0a0e5c4f27ead9083c756cc26003600073d06527d5e56a3495252a528c4987003b712860ee6001600160a01b03166001600160a01b0316815260200190815260200160002060006101000a8154816001600160a01b0302191690836001600160a01b0316021790555073dac17f958d2ee523a2206206994597c13d831ec76003600073797aab1ce7c01eb727ab980762ba88e7133d21576001600160a01b03166001600160a01b0316815260200190815260200160002060006101000a8154816001600160a01b0302191690836001600160a01b0316021790555073a0b86991c6218b36c1d19d4a2e9eb0ce3606eb48600360007344fbebd2f576670a6c33f6fc0b00aa8c5753b3226001600160a01b03166001600160a01b0316815260200190815260200160002060006101000a8154816001600160a01b0302191690836001600160a01b03160217905550730bc529c00c6401aef6d220be8c6ea1667f6ad93e6003600073cbae0a83f4f9926997c8339545fb8ee32edc6b766001600160a01b03166001600160a01b0316815260200190815260200160002060006101000a8154816001600160a01b0302191690836001600160a01b0316021790555073ba100000625a3754423978a60c9317c58a424e3d6003600073ce4fe9b4b8ff61949dcfeb7e03bc9faca59d2eb36001600160a01b03166001600160a01b0316815260200190815260200160002060006101000a8154816001600160a01b0302191690836001600160a01b0316021790555073c00e94cb662c3520282e6f5717214004a7f26888600360007319d1666f543d42ef17f66e376944a22aea1a8e466001600160a01b03166001600160a01b0316815260200190815260200160002060006101000a8154816001600160a01b0302191690836001600160a01b0316021790555073df5e0e81dff6faf3a7e52ba697820c5e32d806a860036000739baf8a5236d44ac410c0186fe39178d5aad0bb876001600160a01b03166001600160a01b0316815260200190815260200160002060006101000a8154816001600160a01b0302191690836001600160a01b03160217905550732ba592f78db6436527729929aaf6c908497cb2006003600073892b14321a4fcba80669ae30bd0cd99a7ecf6ac06001600160a01b03166001600160a01b0316815260200190815260200160002060006101000a8154816001600160a01b0302191690836001600160a01b0316021790555073514910771af9ca656af840dff83e8264ecf986ca6003600073697256caa3ccafd62bb6d3aa1c7c5671786a5fd96001600160a01b03166001600160a01b0316815260200190815260200160002060006101000a8154816001600160a01b0302191690836001600160a01b031602179055507380fb784b7ed66730e8b1dbd9820afd29931aab0360036000738b86e0598616a8d4f1fdae8b59e55fb5bc33d0d66001600160a01b03166001600160a01b0316815260200190815260200160002060006101000a8154816001600160a01b0302191690836001600160a01b0316021790555073d533a949740bb3306d119cc777fa900ba034cd526003600073c7fd8dcee4697ceef5a2fd4608a7bd6a94c774806001600160a01b03166001600160a01b0316815260200190815260200160002060006101000a8154816001600160a01b0302191690836001600160a01b0316021790555073eb4c2781e4eba804ce9a9803c67d0893436bb27d600360007317107f40d70f4470d20cb3f138a052cae8ebd4be6001600160a01b03166001600160a01b0316815260200190815260200160002060006101000a8154816001600160a01b0302191690836001600160a01b03160217905550734fabb145d64652a948d72533023f6e7a623c7c5360036000731ff8cdb51219a8838b52e9cac09b71e591bc998e6001600160a01b03166001600160a01b0316815260200190815260200160002060006101000a8154816001600160a01b0302191690836001600160a01b0316021790555073a3bed4e1c75d00fa6f4e5e6922db7261b5e9acd260036000733623387773010d9214b10c551d6e7fc375d31f586001600160a01b03166001600160a01b0316815260200190815260200160002060006101000a8154816001600160a01b0302191690836001600160a01b03160217905550734ee15f44c6f0d8d1136c83efd2e8e4ac768954c660036000734ee15f44c6f0d8d1136c83efd2e8e4ac768954c66001600160a01b03166001600160a01b0316815260200190815260200160002060006101000a8154816001600160a01b0302191690836001600160a01b03160217905550736b3595068778dd592e39a122f4f5a5cf09c90fe26003600073338286c0bc081891a4bda39c7667ae150bf5d2066001600160a01b03166001600160a01b0316815260200190815260200160002060006101000a8154816001600160a01b0302191690836001600160a01b031602179055507350d1c9771902476076ecfc8b2a83ad6b9355a4c9600360007310fdbd1e48ee2fd9336a482d746138ae19e649db6001600160a01b03166001600160a01b0316815260200190815260200160002060006101000a8154816001600160a01b0302191690836001600160a01b0316021790555073e1237aa7f535b0cc33fd973d66cbf830354d16c7600360007301da76dea59703578040012357b81ffe62015c2d6001600160a01b03166001600160a01b0316815260200190815260200160002060006101000a8154816001600160a01b0302191690836001600160a01b0316021790555073476c5e26a75bd202a9683ffd34359c0cc15be0ff6003600073ef58b2d5a1b8d3cde67b8ab054dc5c831e9bc0256001600160a01b03166001600160a01b0316815260200190815260200160002060006101000a8154816001600160a01b0302191690836001600160a01b03160217905550731f9840a85d5af5bf1d1762f925bdaddc4201f9846003600073e89a6d0509faf730bd707bf868d9a2a744a363c76001600160a01b03166001600160a01b0316815260200190815260200160002060006101000a8154816001600160a01b0302191690836001600160a01b03160217905550730d438f3b5175bebc262bf23753c1e53d03432bde6003600073eff039c3c1d668f408d09dd7b63008622a77532c6001600160a01b03166001600160a01b0316815260200190815260200160002060006101000a8154816001600160a01b0302191690836001600160a01b031602179055507387edffde3e14c7a66c9b9724747a1c5696b742e6600360007322b243b96495c547598d9042b6f94b01c22b2e9e6001600160a01b03166001600160a01b0316815260200190815260200160002060006101000a8154816001600160a01b0302191690836001600160a01b0316021790555073aaaebe6fe48e54f431b0c390cfaf0b017d09d42d60036000738b3ff1ed4f36c2c2be675afb13cc3aa5d73685a56001600160a01b03166001600160a01b0316815260200190815260200160002060006101000a8154816001600160a01b0302191690836001600160a01b03160217905550731494ca1f11d487c2bbe4543e90080aeba4ba3c2b60036000732a537fa9ffaea8c1a41d3c2b68a9cb791529366d6001600160a01b03166001600160a01b0316815260200190815260200160002060006101000a8154816001600160a01b0302191690836001600160a01b03160217905550739be89d2a4cd102d8fecc6bf9da793be995c2254160036000737ea9c63e216d5565c3940a2b3d150e59c2907db36001600160a01b03166001600160a01b0316815260200190815260200160002060006101000a8154816001600160a01b0302191690836001600160a01b03160217905550737fc66500c84a76ad7e9c93437bfc5ac33e2ddae960036000733225e3c669b39c7c8b3e204a8614bb218c5e31bc6001600160a01b03166001600160a01b0316815260200190815260200160002060006101000a8154816001600160a01b0302191690836001600160a01b03160217905550730391d2021f89dc339f60fff84546ea23e337750f6003600073f55bbe0255f7f4e70f63837ff72a577fbddbe9246001600160a01b03166001600160a01b0316815260200190815260200160002060006101000a8154816001600160a01b0302191690836001600160a01b03160217905550731ceb5cb57c4d4e2b2433641b95dd330a33185a446003600073903560b1cce601794c584f58898da8a8b789fc5d6001600160a01b03166001600160a01b0316815260200190815260200160002060006101000a8154816001600160a01b0302191690836001600160a01b03160217905550730316eb71485b0ab14103307bf65a021042c6d3806003600073054b7ed3f45714d3091e82aad64a1588dc4096ed6001600160a01b03166001600160a01b0316815260200190815260200160002060006101000a8154816001600160a01b0302191690836001600160a01b03160217905550739afb950948c2370975fb91a441f36fdc02737cd46003600073d5103afcd0b3fa865997ef2984c66742c51b2a8b6001600160a01b03166001600160a01b0316815260200190815260200160002060006101000a8154816001600160a01b0302191690836001600160a01b0316021790555073cbc1065255cbc3ab41a6868c22d1f1c573ab89fd6003600073fd609a03b393f1a1cfcacedabf068cad09a924e26001600160a01b03166001600160a01b0316815260200190815260200160002060006101000a8154816001600160a01b0302191690836001600160a01b0316021790555073df574c24545e5ffecb9a659c229253d4111d87e16003600073d692ac3245bb82319a31068d6b8412796ee85d2c6001600160a01b03166001600160a01b0316815260200190815260200160002060006101000a8154816001600160a01b0302191690836001600160a01b03160217905550736b175474e89094c44da98b954eedeac495271d0f600360007392b767185fb3b04f881e3ac8e5b0662a027a1d9f6001600160a01b03166001600160a01b0316815260200190815260200160002060006101000a8154816001600160a01b0302191690836001600160a01b0316021790555073584bc13c7d411c00c01a62e8019472de68768430600360007310a3da2bb0fae4d591476fd97d6636fd172923a86001600160a01b03166001600160a01b0316815260200190815260200160002060006101000a8154816001600160a01b0302191690836001600160a01b031602179055507336f3fd68e7325a35eb768f1aedaae9ea0689d72360036000733c6c553a95910f9fc81c98784736bd628636d2966001600160a01b03166001600160a01b0316815260200190815260200160002060006101000a8154816001600160a01b0302191690836001600160a01b03160217905550734688a8b1f292fdab17e9a90c8bc379dc1dbd8713600360007321011bc93d9e515b9511a817a1ed1d6d468f49fc6001600160a01b03166001600160a01b0316815260200190815260200160002060006101000a8154816001600160a01b0302191690836001600160a01b031602179055506001600460007357ab1ec28d129707052df4df418d58a2d46d5f516001600160a01b03166001600160a01b0316815260200190815260200160002060006101000a81548160ff02191690831515021790555060016004600073176c674ee533c6139b0dc8b458d72a93dcb3e7056001600160a01b03166001600160a01b0316815260200190815260200160002060006101000a81548160ff021916908315150217905550600160046000738a8079c7149b8a1611e5c5d978dca3be16545f836001600160a01b03166001600160a01b0316815260200190815260200160002060006101000a81548160ff02191690831515021790555060016004600073afd870f32ce54efdbf677466b612bf8ad164454b6001600160a01b03166001600160a01b0316815260200190815260200160002060006101000a81548160ff02191690831515021790555060016004600073d6014ea05bde904448b743833ddf07c3c78374816001600160a01b03166001600160a01b0316815260200190815260200160002060006101000a81548160ff02191690831515021790555060016004600073336213e1ddfc69f4701fc3f86f4ef4a160c1159d6001600160a01b03166001600160a01b0316815260200190815260200160002060006101000a81548160ff021916908315150217905550600160046000736345728b1cce16e6f8c509950b5c84fff88530d96001600160a01b03166001600160a01b0316815260200190815260200160002060006101000a81548160ff02191690831515021790555060016004600073cb98f42221b2c251a4e74a1609722ee09f0cc08e6001600160a01b03166001600160a01b0316815260200190815260200160002060006101000a81548160ff0219169083151502179055506001600460007314d10003807ac60d07bb0ba82caeac8d2087c1576001600160a01b03166001600160a01b0316815260200190815260200160002060006101000a81548160ff0219169083151502179055506001600460007346a97629c9c1f58de6ec18c7f536e7e6d6a6ecde6001600160a01b03166001600160a01b0316815260200190815260200160002060006101000a81548160ff02191690831515021790555060016004600073f4eebdd0704021ef2a6bbe993fdf93030cd784b46001600160a01b03166001600160a01b0316815260200190815260200160002060006101000a81548160ff02191690831515021790555060016004600073d50c1746d835d2770dda3703b69187bffeb141266001600160a01b03166001600160a01b0316815260200190815260200160002060006101000a81548160ff02191690831515021790555060016004600073a9859874e1743a32409f75bb11549892138bba1e6001600160a01b03166001600160a01b0316815260200190815260200160002060006101000a81548160ff021916908315150217905550600160046000732d7ac061fc3db53c39fe1607fb8cec1b2c162b016001600160a01b03166001600160a01b0316815260200190815260200160002060006101000a81548160ff0219169083151502179055506001600460007379da1431150c9b82d2e5dfc1c68b33216846851e6001600160a01b03166001600160a01b0316815260200190815260200160002060006101000a81548160ff02191690831515021790555060016004600073a5a5df41883cdc00c4ccc6e8097130535399d9a36001600160a01b03166001600160a01b0316815260200190815260200160002060006101000a81548160ff021916908315150217905550600160046000730fed38108bdb8e62ef7b5680e8e0726e2f29e0de6001600160a01b03166001600160a01b0316815260200190815260200160002060006101000a81548160ff02191690831515021790555060016004600073c5807183a9661a533cb08cbc297594a0b864dc126001600160a01b03166001600160a01b0316815260200190815260200160002060006101000a81548160ff0219169083151502179055506001600460007336a00ff9072570ef4b9292117850b8fe08d96cce6001600160a01b03166001600160a01b0316815260200190815260200160002060006101000a81548160ff021916908315150217905550600160046000734adf728e2df4945082cdd6053869f51278fae1966001600160a01b03166001600160a01b0316815260200190815260200160002060006101000a81548160ff0219169083151502179055506001600460007327269b3e45a4d3e79a3d6bfee0c8fb13d0d711a66001600160a01b03166001600160a01b0316815260200190815260200160002060006101000a81548160ff021916908315150217905550600160046000738deef89058090ac5655a99eeb451a4f9183d16786001600160a01b03166001600160a01b0316815260200190815260200160002060006101000a81548160ff02191690831515021790555060016004600073592244301cea952d6dab2fdc1fe6bd9e539173066001600160a01b03166001600160a01b0316815260200190815260200160002060006101000a81548160ff02191690831515021790555060016004600073cd39b5434a0a92cf47d1f567a7df84be356814f06001600160a01b03166001600160a01b0316815260200190815260200160002060006101000a81548160ff021916908315150217905550600160046000737537aae01f3b218dae75e10d952473823f961b876001600160a01b03166001600160a01b0316815260200190815260200160002060006101000a81548160ff02191690831515021790555060016004600073d2df355c19471c8bd7d8a3aa27ff4e26a21b40766001600160a01b03166001600160a01b0316815260200190815260200160002060006101000a81548160ff02191690831515021790555060016004600073e36e2d3c7c34281fa3bc737950a68571736880a16001600160a01b03166001600160a01b0316815260200190815260200160002060006101000a81548160ff021916908315150217905550600160046000739cf7e61853ea30a41b02169391b393b901eac4576001600160a01b03166001600160a01b0316815260200190815260200160002060006101000a81548160ff02191690831515021790555060016004600073f48e200eaf9906362bb1442fca31e0835773b8b46001600160a01b03166001600160a01b0316815260200190815260200160002060006101000a81548160ff02191690831515021790555060016004600073617aecb6137b5108d1e7d4918e3725c8cebdb8486001600160a01b03166001600160a01b0316815260200190815260200160002060006101000a81548160ff02191690831515021790555060016004600073fe18be6b3bd88a2d2a7f928d00292e7a9963cfc66001600160a01b03166001600160a01b0316815260200190815260200160002060006101000a81548160ff02191690831515021790555060016004600073eabacd844a196d7faf3ce596edebf9900341b4206001600160a01b03166001600160a01b0316815260200190815260200160002060006101000a81548160ff021916908315150217905550600160046000730f83287ff768d1c1e17a42f44d644d7f22e8ee1d6001600160a01b03166001600160a01b0316815260200190815260200160002060006101000a81548160ff021916908315150217905550600160046000739eef4ca7ab9fa8bc0650127341c2d3f707a40f8a6001600160a01b03166001600160a01b0316815260200190815260200160002060006101000a81548160ff02191690831515021790555060016004600073eb029507d3e043dd6c87f2917c4e82b902c356186001600160a01b03166001600160a01b0316815260200190815260200160002060006101000a81548160ff02191690831515021790555060016004600073d38aeb759891882e78e957c80656572503d8c1b16001600160a01b03166001600160a01b0316815260200190815260200160002060006101000a81548160ff02191690831515021790555060016004600073fe33ae95a9f0da8a845af33516edc240dcd711d66001600160a01b03166001600160a01b0316815260200190815260200160002060006101000a81548160ff021916908315150217905550600160046000731715ac0743102bf5cd58efbb6cf2dc2685d967b66001600160a01b03166001600160a01b0316815260200190815260200160002060006101000a81548160ff0219169083151502179055506001600460007388c8cf3a212c0369698d13fe98fcb766203898416001600160a01b03166001600160a01b0316815260200190815260200160002060006101000a81548160ff0219169083151502179055506001600460007322602469d704bffb0936c7a7cfcd18f7aa2693756001600160a01b03166001600160a01b0316815260200190815260200160002060006101000a81548160ff021916908315150217905550600160046000735e74c9036fb86bd7ecdcb084a0673efc32ea31cb6001600160a01b03166001600160a01b0316815260200190815260200160002060006101000a81548160ff02191690831515021790555060016004600073d71ecff9342a5ced620049e616c5035f1db986206001600160a01b03166001600160a01b0316815260200190815260200160002060006101000a81548160ff02191690831515021790555060016004600073f50b5e535f62a56a9bd2d8e2434204e726c027fa6001600160a01b03166001600160a01b0316815260200190815260200160002060006101000a81548160ff0219169083151502179055506001600460007323348160d7f5aca21195df2b70f28fce2b0be9fc6001600160a01b03166001600160a01b0316815260200190815260200160002060006101000a81548160ff0219169083151502179055506001600460007397fe22e7341a0cd8db6f6c021a24dc8f4dad855f6001600160a01b03166001600160a01b0316815260200190815260200160002060006101000a81548160ff02191690831515021790555060016004600073c63b8ecce56ab9c46184ec6ab85e4771fea4c8ad6001600160a01b03166001600160a01b0316815260200190815260200160002060006101000a81548160ff02191690831515021790555060016004600073f6b1c627e95bfc3c1b4c9b825a032ff0fbf3e07d6001600160a01b03166001600160a01b0316815260200190815260200160002060006101000a81548160ff02191690831515021790555060016004600073269895a3df4d73b077fc823dd6da1b95f72aaf9b6001600160a01b03166001600160a01b0316815260200190815260200160002060006101000a81548160ff02191690831515021790555060016004600073bbc455cb4f1b9e4bfc4b73970d360c8f032efee66001600160a01b03166001600160a01b0316815260200190815260200160002060006101000a81548160ff02191690831515021790555060016004600073c14103c2141e842e228fbac594579e798616ce7a6001600160a01b03166001600160a01b0316815260200190815260200160002060006101000a81548160ff02191690831515021790555060016004600073745a824d6abbd236aa794b5530062778a6ad75236001600160a01b03166001600160a01b0316815260200190815260200160002060006101000a81548160ff021916908315150217905550600160046000735a7e3c07604eb515c16b36cd51906a65f021f6096001600160a01b03166001600160a01b0316815260200190815260200160002060006101000a81548160ff02191690831515021790555060016004600073757de3ac6b830a931ef178c6634c5c551773155c6001600160a01b03166001600160a01b0316815260200190815260200160002060006101000a81548160ff021916908315150217905550600160046000736d16cf3ec5f763d4d99cb0b0b110eefd93b11b566001600160a01b03166001600160a01b0316815260200190815260200160002060006101000a81548160ff02191690831515021790555060016004600073d31533e8d0f3df62060e94b3f1318137bb6e35256001600160a01b03166001600160a01b0316815260200190815260200160002060006101000a81548160ff021916908315150217905550600160046000730352557b007a4aae1511c114409b932f06f9e2f46001600160a01b03166001600160a01b0316815260200190815260200160002060006101000a81548160ff02191690831515021790555060016004600073f2e08356588ec5cd9e437552da87c0076b4970b06001600160a01b03166001600160a01b0316815260200190815260200160002060006101000a81548160ff0219169083151502179055506001600460007330635297e450b930f8693297eba160d9e6c8ebcf6001600160a01b03166001600160a01b0316815260200190815260200160002060006101000a81548160ff021916908315150217905550600160046000736a22e5e94388464181578aa7a6b869e00fe278466001600160a01b03166001600160a01b0316815260200190815260200160002060006101000a81548160ff02191690831515021790555060016004600073261efcdd24cea98652b9700800a13dfbca4103ff6001600160a01b03166001600160a01b0316815260200190815260200160002060006101000a81548160ff021916908315150217905550600160046000735299d6f7472dcc137d7f3c4bcfbbb514babf341a6001600160a01b03166001600160a01b0316815260200190815260200160002060006101000a81548160ff02191690831515021790555060016004600073a2b0fde6d710e201d0d608e924a484d1a5fed57c6001600160a01b03166001600160a01b0316815260200190815260200160002060006101000a81548160ff021916908315150217905550600160046000732e59005c5c0f0a4d77cca82653d48b46322ee5cd6001600160a01b03166001600160a01b0316815260200190815260200160002060006101000a81548160ff02191690831515021790555060016004600073992058b7db08f9734d84485bfbc243c4ee6954a76001600160a01b03166001600160a01b0316815260200190815260200160002060006101000a81548160ff0219169083151502179055506135d8565b3390565b611edb806135e76000396000f3fe608060405234801561001057600080fd5b50600436106100be5760003560e01c80639fb5305011610076578063bd59bbd41161005b578063bd59bbd4146101dd578063e21ead9b14610203578063f2fde38b14610229576100be565b80639fb5305014610189578063ac41865a146101af576100be565b8063780c2067116100a7578063780c2067146101055780638da5cb5b146101475780639f087dd61461014f576100be565b806317646848146100c3578063715018a6146100fb575b600080fd5b6100e9600480360360208110156100d957600080fd5b50356001600160a01b031661024f565b60408051918252519081900360200190f35b61010361047a565b005b61012b6004803603602081101561011b57600080fd5b50356001600160a01b0316610545565b604080516001600160a01b039092168252519081900360200190f35b61012b610560565b6101756004803603602081101561016557600080fd5b50356001600160a01b031661056f565b604080519115158252519081900360200190f35b61012b6004803603602081101561019f57600080fd5b50356001600160a01b0316610584565b6100e9600480360360408110156101c557600080fd5b506001600160a01b038135811691602001351661059f565b6100e9600480360360208110156101f357600080fd5b50356001600160a01b03166110b7565b61012b6004803603602081101561021957600080fd5b50356001600160a01b0316611259565b6101036004803603602081101561023f57600080fd5b50356001600160a01b0316611274565b600080826001600160a01b031663182df0f56040518163ffffffff1660e01b815260040160206040518083038186803b15801561028b57600080fd5b505afa15801561029f573d6000803e3d6000fd5b505050506040513d60208110156102b557600080fd5b50516001600160a01b0380851660009081526003602090815260409182902054825163313ce56760e01b8152925194955060089493169263313ce567926004808201939291829003018186803b15801561030e57600080fd5b505afa158015610322573d6000803e3d6000fd5b505050506040513d602081101561033857600080fd5b505160ff1611156103dc576001600160a01b0380841660009081526003602090815260409182902054825163313ce56760e01b815292516103d59460089492169263313ce5679260048082019391829003018186803b15801561039a57600080fd5b505afa1580156103ae573d6000803e3d6000fd5b505050506040513d60208110156103c457600080fd5b5051839160ff910316600a0a611395565b9050610472565b6001600160a01b0380841660009081526003602090815260409182902054825163313ce56760e01b8152925161046f94919091169263313ce567926004808301939192829003018186803b15801561043357600080fd5b505afa158015610447573d6000803e3d6000fd5b505050506040513d602081101561045d57600080fd5b5051829060080360ff16600a0a6113fc565b90505b90505b919050565b610482611420565b6001600160a01b0316610493610560565b6001600160a01b0316146104ee576040805162461bcd60e51b815260206004820181905260248201527f4f776e61626c653a2063616c6c6572206973206e6f7420746865206f776e6572604482015290519081900360640190fd5b600080546040516001600160a01b03909116907f8be0079c531659141344cd1fd0a4f28419497f9722a3daafe3b4186f6b6457e0908390a36000805473ffffffffffffffffffffffffffffffffffffffff19169055565b6003602052600090815260409020546001600160a01b031681565b6000546001600160a01b031690565b60046020526000908152604090205460ff1681565b6001602052600090815260409020546001600160a01b031681565b6000806000806000856001600160a01b0316876001600160a01b031614156105d557670de0b6b3a76400009450505050506110b1565b6001600160a01b038781166000908152600160205260408120549091161561064057610600886110b7565b6001600160a01b03808a1660009081526001602052604090205491925061063491839161062e91168a61059f565b90611424565b955050505050506110b1565b6001600160a01b03878116600090815260016020526040902054161561069e57610669876110b7565b6001600160a01b03808916600090815260016020526040902054919250610634918391610698918c911661059f565b90611443565b6001600160a01b0388811660009081526002602052604090205416156106e3576001600160a01b0380891660009081526002602052604090205461063491168861059f565b6001600160a01b038781166000908152600260205260409020541615610729576001600160a01b03808816600090815260026020526040902054610634918a911661059f565b6001600160a01b038881166000908152600360205260409020541615610780576107528861024f565b6001600160a01b03808a1660009081526003602052604090205491925061063491839161062e91168a61059f565b6001600160a01b0387811660009081526003602052604090205416156107d8576107a98761024f565b6001600160a01b03808916600090815260036020526040902054919250610634918391610698918c911661059f565b6001600160a01b03881660009081526004602052604090205460ff161561099e576000886001600160a01b031663d4b839926040518163ffffffff1660e01b815260040160206040518083038186803b15801561083457600080fd5b505afa158015610848573d6000803e3d6000fd5b505050506040513d602081101561085e57600080fd5b50516040805163dbd06c8560e01b8152905191925073d69b189020ef614796578afe4d10378c5e7e11389163ac82f608916001600160a01b0385169163dbd06c8591600480820192602092909190829003018186803b1580156108c057600080fd5b505afa1580156108d4573d6000803e3d6000fd5b505050506040513d60208110156108ea57600080fd5b5051604080517fffffffff0000000000000000000000000000000000000000000000000000000060e085901b1681526004810192909252516024808301926020929190829003018186803b15801561094157600080fd5b505afa158015610955573d6000803e3d6000fd5b505050506040513d602081101561096b57600080fd5b505191506109918261062e73a0b86991c6218b36c1d19d4a2e9eb0ce3606eb488b61059f565b96505050505050506110b1565b6001600160a01b03871660009081526004602052604090205460ff1615610b57576000876001600160a01b031663d4b839926040518163ffffffff1660e01b815260040160206040518083038186803b1580156109fa57600080fd5b505afa158015610a0e573d6000803e3d6000fd5b505050506040513d6020811015610a2457600080fd5b50516040805163dbd06c8560e01b8152905191925073d69b189020ef614796578afe4d10378c5e7e11389163ac82f608916001600160a01b0385169163dbd06c8591600480820192602092909190829003018186803b158015610a8657600080fd5b505afa158015610a9a573d6000803e3d6000fd5b505050506040513d6020811015610ab057600080fd5b5051604080517fffffffff0000000000000000000000000000000000000000000000000000000060e085901b1681526004810192909252516024808301926020929190829003018186803b158015610b0757600080fd5b505afa158015610b1b573d6000803e3d6000fd5b505050506040513d6020811015610b3157600080fd5b50519150610991826106988b73a0b86991c6218b36c1d19d4a2e9eb0ce3606eb4861059f565b6001600160a01b03881673ae7ab96520de3a18e5e111b5eaab095312d7fe841480610b9e57506001600160a01b038816737f39c581f595b53c5cb19bd0b3f8da6c935e2ca0145b15610cfd57670de0b6b3a76400006001600160a01b038916737f39c581f595b53c5cb19bd0b3f8da6c935e2ca01415610c5857737f39c581f595b53c5cb19bd0b3f8da6c935e2ca06001600160a01b031663bb2952fc826040518263ffffffff1660e01b81526004018082815260200191505060206040518083038186803b158015610c2957600080fd5b505afa158015610c3d573d6000803e3d6000fd5b505050506040513d6020811015610c5357600080fd5b505190505b61099173ae7ab96520de3a18e5e111b5eaab095312d7fe846001600160a01b0316637a28fb88836040518263ffffffff1660e01b81526004018082815260200191505060206040518083038186803b158015610cb357600080fd5b505afa158015610cc7573d6000803e3d6000fd5b505050506040513d6020811015610cdd57600080fd5b505161062e73c02aaa39b223fe8d0a0e5c4f27ead9083c756cc28b61059f565b6001600160a01b03871673ae7ab96520de3a18e5e111b5eaab095312d7fe841480610d4457506001600160a01b038716737f39c581f595b53c5cb19bd0b3f8da6c935e2ca0145b15610ea357670de0b6b3a76400006001600160a01b038816737f39c581f595b53c5cb19bd0b3f8da6c935e2ca01415610dfe57737f39c581f595b53c5cb19bd0b3f8da6c935e2ca06001600160a01b031663bb2952fc826040518263ffffffff1660e01b81526004018082815260200191505060206040518083038186803b158015610dcf57600080fd5b505afa158015610de3573d6000803e3d6000fd5b505050506040513d6020811015610df957600080fd5b505190505b61099173ae7ab96520de3a18e5e111b5eaab095312d7fe846001600160a01b03166319208451836040518263ffffffff1660e01b81526004018082815260200191505060206040518083038186803b158015610e5957600080fd5b505afa158015610e6d573d6000803e3d6000fd5b505050506040513d6020811015610e8357600080fd5b50516106988b73c02aaa39b223fe8d0a0e5c4f27ead9083c756cc261059f565b6001600160a01b03881673c02aaa39b223fe8d0a0e5c4f27ead9083c756cc214801590610eed57506001600160a01b03871673c02aaa39b223fe8d0a0e5c4f27ead9083c756cc214155b15610f3157610634610f138873c02aaa39b223fe8d0a0e5c4f27ead9083c756cc261059f565b6106988a73c02aaa39b223fe8d0a0e5c4f27ead9083c756cc261059f565b610f3e88886101f461145b565b919650909350915084610f6157610f588888610bb861145b565b91965090935091505b84610f7c57610f73888861271061145b565b91965090935091505b84610fce576040805162461bcd60e51b815260206004820152600f60248201527f5072696365206e6f7420666f756e640000000000000000000000000000000000604482015290519081900360640190fd5b6110a9611044896001600160a01b031663313ce5676040518163ffffffff1660e01b815260040160206040518083038186803b15801561100d57600080fd5b505afa158015611021573d6000803e3d6000fd5b505050506040513d602081101561103757600080fd5b505160129060ff166115b5565b600a0a6110a38561109c61108a8c6001600160a01b031663313ce5676040518163ffffffff1660e01b815260040160206040518083038186803b15801561100d57600080fd5b670de0b6b3a764000090600a0a6113fc565b8c8c6115c5565b90611395565b955050505050505b92915050565b600080826001600160a01b031663182df0f56040518163ffffffff1660e01b815260040160206040518083038186803b1580156110f357600080fd5b505afa158015611107573d6000803e3d6000fd5b505050506040513d602081101561111d57600080fd5b50516001600160a01b0380851660009081526001602090815260409182902054825163313ce56760e01b8152925194955060089493169263313ce567926004808201939291829003018186803b15801561117657600080fd5b505afa15801561118a573d6000803e3d6000fd5b505050506040513d60208110156111a057600080fd5b505160ff161115611202576001600160a01b0380841660009081526001602090815260409182902054825163313ce56760e01b815292516103d59460089492169263313ce5679260048082019391829003018186803b15801561039a57600080fd5b6001600160a01b0380841660009081526001602090815260409182902054825163313ce56760e01b8152925161046f94919091169263313ce567926004808301939192829003018186803b15801561043357600080fd5b6002602052600090815260409020546001600160a01b031681565b61127c611420565b6001600160a01b031661128d610560565b6001600160a01b0316146112e8576040805162461bcd60e51b815260206004820181905260248201527f4f776e61626c653a2063616c6c6572206973206e6f7420746865206f776e6572604482015290519081900360640190fd5b6001600160a01b03811661132d5760405162461bcd60e51b8152600401808060200182810382526026815260200180611e806026913960400191505060405180910390fd5b600080546040516001600160a01b03808516939216917f8be0079c531659141344cd1fd0a4f28419497f9722a3daafe3b4186f6b6457e091a36000805473ffffffffffffffffffffffffffffffffffffffff19166001600160a01b0392909216919091179055565b60008082116113eb576040805162461bcd60e51b815260206004820152601a60248201527f536166654d6174683a206469766973696f6e206279207a65726f000000000000604482015290519081900360640190fd5b8183816113f457fe5b049392505050565b60008215806114175750508181028183828161141457fe5b04145b6110b157600080fd5b3390565b600061143c670de0b6b3a76400006110a385856113fc565b9392505050565b600061143c826110a385670de0b6b3a76400006113fc565b6000806000806000731f98431c8ad98523631ae4a59f267346ea31f9846001600160a01b0316631698ee828989896040518463ffffffff1660e01b815260040180846001600160a01b03168152602001836001600160a01b031681526020018262ffffff168152602001935050505060206040518083038186803b1580156114e257600080fd5b505afa1580156114f6573d6000803e3d6000fd5b505050506040513d602081101561150c57600080fd5b505190506001600160a01b0381161561159e57806001600160a01b0316633850c7bd6040518163ffffffff1660e01b815260040160e06040518083038186803b15801561155857600080fd5b505afa15801561156c573d6000803e3d6000fd5b505050506040513d60e081101561158257600080fd5b5060200151915061159382826116e9565b9450925090506115ac565b600080600094509450945050505b93509350939050565b808203828111156110b157600080fd5b6000806115d1866117d9565b90506fffffffffffffffffffffffffffffffff6001600160a01b0382161161165b576001600160a01b03808216800290848116908616106116325761162d600160c01b876fffffffffffffffffffffffffffffffff1683611b27565b611653565b61165381876fffffffffffffffffffffffffffffffff16600160c01b611b27565b9250506116e0565b600061167a6001600160a01b0383168068010000000000000000611b27565b9050836001600160a01b0316856001600160a01b0316106116bb576116b6600160801b876fffffffffffffffffffffffffffffffff1683611b27565b6116dc565b6116dc81876fffffffffffffffffffffffffffffffff16600160801b611b27565b9250505b50949350505050565b600080826001600160a01b031663d0c93a7c6040518163ffffffff1660e01b815260040160206040518083038186803b15801561172557600080fd5b505afa158015611739573d6000803e3d6000fd5b505050506040513d602081101561174f57600080fd5b50519050620d85ff198101600290810b9085900b12156117735760009150506110b1565b806103e8620d89e719600003030360020b8460020b13156117985760009150506110b1565b60006117a384611bd6565b905060008160060b8660020b136117bf578560020b82036117c6565b818660020b035b606460069190910b129695505050505050565b60008060008360020b126117f0578260020b6117f8565b8260020b6000035b9050620d89e8811115611852576040805162461bcd60e51b815260206004820152600160248201527f5400000000000000000000000000000000000000000000000000000000000000604482015290519081900360640190fd5b60006001821661186657600160801b611878565b6ffffcb933bd6fad37aa2d162d1a5940015b70ffffffffffffffffffffffffffffffffff16905060028216156118ac576ffff97272373d413259a46990580e213a0260801c5b60048216156118cb576ffff2e50f5f656932ef12357cf3c7fdcc0260801c5b60088216156118ea576fffe5caca7e10e4e61c3624eaa0941cd00260801c5b6010821615611909576fffcb9843d60f6159c9db58835c9266440260801c5b6020821615611928576fff973b41fa98c081472e6896dfb254c00260801c5b6040821615611947576fff2ea16466c96a3843ec78b326b528610260801c5b6080821615611966576ffe5dee046a99a2a811c461f1969c30530260801c5b610100821615611986576ffcbe86c7900a88aedcffc83b479aa3a40260801c5b6102008216156119a6576ff987a7253ac413176f2b074cf7815e540260801c5b6104008216156119c6576ff3392b0822b70005940c7a398e4b70f30260801c5b6108008216156119e6576fe7159475a2c29b7443b29c7fa6e889d90260801c5b611000821615611a06576fd097f3bdfd2022b8845ad8f792aa58250260801c5b612000821615611a26576fa9f746462d870fdf8a65dc1f90e061e50260801c5b614000821615611a46576f70d869a156d2a1b890bb3df62baf32f70260801c5b618000821615611a66576f31be135f97d08fd981231505542fcfa60260801c5b62010000821615611a87576f09aa508b5b7a84e1c677de54f3e99bc90260801c5b62020000821615611aa7576e5d6af8dedb81196699c329225ee6040260801c5b62040000821615611ac6576d2216e584f5fa1ea926041bedfe980260801c5b62080000821615611ae3576b048a170391f7dc42444e8fa20260801c5b60008460020b1315611afe578060001981611afa57fe5b0490505b640100000000810615611b12576001611b15565b60005b60ff16602082901c0192505050919050565b6000808060001985870986860292508281109083900303905080611b5d5760008411611b5257600080fd5b50829004905061143c565b808411611b6957600080fd5b6000848688096000868103871696879004966002600389028118808a02820302808a02820302808a02820302808a02820302808a02820302808a02909103029181900381900460010186841190950394909402919094039290920491909117919091029150509392505050565b60408051600280825260608201835260009283929190602083019080368337019050509050601e81600081518110611c0a57fe5b602002602001019063ffffffff16908163ffffffff1681525050600081600181518110611c3357fe5b63ffffffff9092166020928302919091018201526040517f883bdbfd000000000000000000000000000000000000000000000000000000008152600481018281528351602483015283516001600160a01b0387169363883bdbfd938693928392604490920191858101910280838360005b83811015611cbc578181015183820152602001611ca4565b505050509050019250505060006040518083038186803b158015611cdf57600080fd5b505afa925050508015611e2957506040513d6000823e601f3d908101601f191682016040908152811015611d1257600080fd5b8101908080516040519392919084640100000000821115611d3257600080fd5b908301906020820185811115611d4757600080fd5b8251866020820283011164010000000082111715611d6457600080fd5b82525081516020918201928201910280838360005b83811015611d91578181015183820152602001611d79565b5050505090500160405260200180516040519392919084640100000000821115611dba57600080fd5b908301906020820185811115611dcf57600080fd5b8251866020820283011164010000000082111715611dec57600080fd5b82525081516020918201928201910280838360005b83811015611e19578181015183820152602001611e01565b5050505090500160405250505060015b611e37576000915050610475565b601e63ffffffff1682600081518110611e4c57fe5b602002602001015183600181518110611e6157fe5b60200260200101510360060b81611e7457fe5b05935050505061047556fe4f776e61626c653a206e6577206f776e657220697320746865207a65726f2061646472657373a2646970667358221220d711c13a4c59b871e444b6b4b4a3e620e387bff4f1f654929fe1c66a2401be8964736f6c63430007060033",
  "devdoc": {
    "author": "Babylon Finance Protocol Uses Uniswap V3 to get a price of a token pair",
    "kind": "dev",
    "methods": {
      "getPrice(address,address)": {
        "params": {
          "_tokenIn": "Address of the first token",
          "_tokenOut": "Address of the second token"
        },
        "returns": {
          "price": "               Price of the pair"
        }
      },
      "owner()": {
        "details": "Returns the address of the current owner."
      },
      "renounceOwnership()": {
        "details": "Leaves the contract without owner. It will not be possible to call `onlyOwner` functions anymore. Can only be called by the current owner. NOTE: Renouncing ownership will leave the contract without an owner, thereby removing any functionality that is only available to the owner."
      },
      "transferOwnership(address)": {
        "details": "Transfers ownership of the contract to a new account (`newOwner`). Can only be called by the current owner."
      }
    },
    "title": "PriceOracle",
    "version": 1
  },
  "userdoc": {
    "kind": "user",
    "methods": {
      "getPrice(address,address)": {
        "notice": "Returns the amount out corresponding to the amount in for a given token"
      }
    },
    "version": 1
  },
  "storageLayout": {
    "storage": [
      {
        "astId": 1456,
        "contract": "contracts/PriceOracle.sol:PriceOracle",
        "label": "_owner",
        "offset": 0,
        "slot": "0",
        "type": "t_address"
      },
      {
        "astId": 12651,
        "contract": "contracts/PriceOracle.sol:PriceOracle",
        "label": "cTokenToAsset",
        "offset": 0,
        "slot": "1",
        "type": "t_mapping(t_address,t_address)"
      },
      {
        "astId": 12655,
        "contract": "contracts/PriceOracle.sol:PriceOracle",
        "label": "aTokenToAsset",
        "offset": 0,
        "slot": "2",
        "type": "t_mapping(t_address,t_address)"
      },
      {
        "astId": 12659,
        "contract": "contracts/PriceOracle.sol:PriceOracle",
        "label": "crTokenToAsset",
        "offset": 0,
        "slot": "3",
        "type": "t_mapping(t_address,t_address)"
      },
      {
        "astId": 12663,
        "contract": "contracts/PriceOracle.sol:PriceOracle",
        "label": "synths",
        "offset": 0,
        "slot": "4",
        "type": "t_mapping(t_address,t_bool)"
      }
    ],
    "types": {
      "t_address": {
        "encoding": "inplace",
        "label": "address",
        "numberOfBytes": "20"
      },
      "t_bool": {
        "encoding": "inplace",
        "label": "bool",
        "numberOfBytes": "1"
      },
      "t_mapping(t_address,t_address)": {
        "encoding": "mapping",
        "key": "t_address",
        "label": "mapping(address => address)",
        "numberOfBytes": "32",
        "value": "t_address"
      },
      "t_mapping(t_address,t_bool)": {
        "encoding": "mapping",
        "key": "t_address",
        "label": "mapping(address => bool)",
        "numberOfBytes": "32",
        "value": "t_bool"
      }
    }
  }
}