{
  "address": "0xd5926EB684604b831865490f9655108E07Bf46B6",
  "abi": [
    {
      "inputs": [
        {
          "internalType": "contract ITokenIdentifier",
          "name": "_tokenIdentifier",
          "type": "address"
        },
        {
          "internalType": "contract IBabController",
          "name": "_controller",
          "type": "address"
        }
      ],
      "stateMutability": "nonpayable",
      "type": "constructor"
    },
    {
      "anonymous": false,
      "inputs": [
        {
          "indexed": true,
          "internalType": "address",
          "name": "previousOwner",
          "type": "address"
        },
        {
          "indexed": true,
          "internalType": "address",
          "name": "newOwner",
          "type": "address"
        }
      ],
      "name": "OwnershipTransferred",
      "type": "event"
    },
    {
      "inputs": [],
      "name": "controller",
      "outputs": [
        {
          "internalType": "contract IBabController",
          "name": "",
          "type": "address"
        }
      ],
      "stateMutability": "view",
      "type": "function"
    },
    {
      "inputs": [
        {
          "internalType": "address",
          "name": "_asset",
          "type": "address"
        },
        {
          "internalType": "address",
          "name": "_underlying",
          "type": "address"
        }
      ],
      "name": "getCompoundExchangeRate",
      "outputs": [
        {
          "internalType": "uint256",
          "name": "",
          "type": "uint256"
        }
      ],
      "stateMutability": "view",
      "type": "function"
    },
    {
      "inputs": [
        {
          "internalType": "address",
          "name": "_asset",
          "type": "address"
        },
        {
          "internalType": "address",
          "name": "_underlying",
          "type": "address"
        }
      ],
      "name": "getCreamExchangeRate",
      "outputs": [
        {
          "internalType": "uint256",
          "name": "",
          "type": "uint256"
        }
      ],
      "stateMutability": "view",
      "type": "function"
    },
    {
      "inputs": [
        {
          "internalType": "address",
          "name": "_tokenIn",
          "type": "address"
        },
        {
          "internalType": "address",
          "name": "_tokenOut",
          "type": "address"
        }
      ],
      "name": "getPrice",
      "outputs": [
        {
          "internalType": "uint256",
          "name": "price",
          "type": "uint256"
        }
      ],
      "stateMutability": "view",
      "type": "function"
    },
    {
      "inputs": [
        {
          "internalType": "address",
          "name": "_tokenIn",
          "type": "address"
        },
        {
          "internalType": "address",
          "name": "_tokenOut",
          "type": "address"
        }
      ],
      "name": "getPriceNAV",
      "outputs": [
        {
          "internalType": "uint256",
          "name": "price",
          "type": "uint256"
        }
      ],
      "stateMutability": "view",
      "type": "function"
    },
    {
      "inputs": [],
      "name": "owner",
      "outputs": [
        {
          "internalType": "address",
          "name": "",
          "type": "address"
        }
      ],
      "stateMutability": "view",
      "type": "function"
    },
    {
      "inputs": [],
      "name": "renounceOwnership",
      "outputs": [],
      "stateMutability": "nonpayable",
      "type": "function"
    },
    {
      "inputs": [
        {
          "internalType": "address",
          "name": "",
          "type": "address"
        }
      ],
      "name": "reserveAssets",
      "outputs": [
        {
          "internalType": "bool",
          "name": "",
          "type": "bool"
        }
      ],
      "stateMutability": "view",
      "type": "function"
    },
    {
      "inputs": [
        {
          "internalType": "uint256",
          "name": "",
          "type": "uint256"
        }
      ],
      "name": "reserveAssetsList",
      "outputs": [
        {
          "internalType": "address",
          "name": "",
          "type": "address"
        }
      ],
      "stateMutability": "view",
      "type": "function"
    },
    {
      "inputs": [],
      "name": "tokenIdentifier",
      "outputs": [
        {
          "internalType": "contract ITokenIdentifier",
          "name": "",
          "type": "address"
        }
      ],
      "stateMutability": "view",
      "type": "function"
    },
    {
      "inputs": [
        {
          "internalType": "address",
          "name": "newOwner",
          "type": "address"
        }
      ],
      "name": "transferOwnership",
      "outputs": [],
      "stateMutability": "nonpayable",
      "type": "function"
    },
    {
      "inputs": [],
      "name": "updateReserves",
      "outputs": [],
      "stateMutability": "nonpayable",
      "type": "function"
    },
    {
      "inputs": [
        {
          "internalType": "contract ITokenIdentifier",
          "name": "_tokenIdentifier",
          "type": "address"
        }
      ],
      "name": "updateTokenIdentifier",
      "outputs": [],
      "stateMutability": "nonpayable",
      "type": "function"
    }
  ],
  "transactionHash": "0x5b77752bbb2edbd98fe41dc28aeaf42aa7ff6972bfd6df71401dcdf748c655e6",
  "args": [
    "0x17a7c092E0009aF48c8e08af473DFC4b472e2852",
    "0xD4a5b5fcB561dAF3aDF86F8477555B92FBa43b5F"
  ],
  "solcInputHash": "8f3ab7ba69e92b038543c136e7ad8fba",
  "bytecode": "0x60806040523480156200001157600080fd5b506040516200429638038062004296833981810160405260408110156200003757600080fd5b50805160209091015160006200004c620000d8565b600080546001600160a01b0319166001600160a01b0383169081178255604051929350917f8be0079c531659141344cd1fd0a4f28419497f9722a3daafe3b4186f6b6457e0908290a350600180546001600160a01b038085166001600160a01b0319928316179092556002805492841692909116919091179055620000d0620000dc565b5050620002f9565b3390565b60025460408051635e40cf5360e11b815290516000926001600160a01b03169163bc819ea69160048083019286929190829003018186803b1580156200012157600080fd5b505afa15801562000136573d6000803e3d6000fd5b505050506040513d6000823e601f3d908101601f1916820160405260208110156200016057600080fd5b81019080805160405193929190846401000000008211156200018157600080fd5b9083019060208201858111156200019757600080fd5b8251866020820283011164010000000082111715620001b557600080fd5b82525081516020918201928201910280838360005b83811015620001e4578181015183820152602001620001ca565b50505050905001604052505050905060046000620002039190620002bb565b60005b8151811015620002b7576001600360008484815181106200022357fe5b60200260200101516001600160a01b03166001600160a01b0316815260200190815260200160002060006101000a81548160ff02191690831515021790555060048282815181106200027157fe5b60209081029190910181015182546001808201855560009485529290932090920180546001600160a01b0319166001600160a01b03909316929092179091550162000206565b5050565b5080546000825590600052602060002090810190620002db9190620002de565b50565b5b80821115620002f55760008155600101620002df565b5090565b613f8d80620003096000396000f3fe608060405234801561001057600080fd5b50600436106100df5760003560e01c80638da5cb5b1161008c578063ebe1eb7411610066578063ebe1eb7414610205578063f2fde38b1461020d578063f77c479114610233578063f8da2c951461023b576100df565b80638da5cb5b146101b2578063ac41865a146101ba578063d2ad379a146101e8576100df565b8063715018a6116100bd578063715018a61461016a57806371f14a0b14610172578063891d024914610172576100df565b806312e9cb05146100e457806316b2b8881461010c5780632060117b14610130575b600080fd5b61010a600480360360208110156100fa57600080fd5b50356001600160a01b0316610269565b005b610114610455565b604080516001600160a01b039092168252519081900360200190f35b6101566004803603602081101561014657600080fd5b50356001600160a01b0316610464565b604080519115158252519081900360200190f35b61010a610479565b6101a06004803603604081101561018857600080fd5b506001600160a01b0381358116916020013516610544565b60408051918252519081900360200190f35b610114610744565b6101a0600480360360408110156101d057600080fd5b506001600160a01b0381358116916020013516610753565b610114600480360360208110156101fe57600080fd5b50356107b5565b61010a6107df565b61010a6004803603602081101561022357600080fd5b50356001600160a01b0316610848565b610114610969565b6101a06004803603604081101561025157600080fd5b506001600160a01b0381358116916020013516610978565b600260009054906101000a90046001600160a01b03166001600160a01b0316638da5cb5b6040518163ffffffff1660e01b815260040160206040518083038186803b1580156102b757600080fd5b505afa1580156102cb573d6000803e3d6000fd5b505050506040513d60208110156102e157600080fd5b50516001600160a01b031633148061037a5750600260009054906101000a90046001600160a01b03166001600160a01b0316638d97e0436040518163ffffffff1660e01b815260040160206040518083038186803b15801561034257600080fd5b505afa158015610356573d6000803e3d6000fd5b505050506040513d602081101561036c57600080fd5b50516001600160a01b031633145b6103cb576040805162461bcd60e51b815260206004820152601560248201527f4e6f7420656e6f7567682070726976696c656765730000000000000000000000604482015290519081900360640190fd5b6001600160a01b038116610426576040805162461bcd60e51b815260206004820152601660248201527f41646472657373206e6565647320746f20657869737400000000000000000000604482015290519081900360640190fd5b6001805473ffffffffffffffffffffffffffffffffffffffff19166001600160a01b0392909216919091179055565b6001546001600160a01b031681565b60036020526000908152604090205460ff1681565b610481610986565b6001600160a01b0316610492610744565b6001600160a01b0316146104ed576040805162461bcd60e51b815260206004820181905260248201527f4f776e61626c653a2063616c6c6572206973206e6f7420746865206f776e6572604482015290519081900360640190fd5b600080546040516001600160a01b03909116907f8be0079c531659141344cd1fd0a4f28419497f9722a3daafe3b4186f6b6457e0908390a36000805473ffffffffffffffffffffffffffffffffffffffff19169055565b600080836001600160a01b031663182df0f56040518163ffffffff1660e01b815260040160206040518083038186803b15801561058057600080fd5b505afa158015610594573d6000803e3d6000fd5b505050506040513d60208110156105aa57600080fd5b5051604080517f313ce56700000000000000000000000000000000000000000000000000000000815290519192506008916001600160a01b0386169163313ce567916004808301926020929190829003018186803b15801561060b57600080fd5b505afa15801561061f573d6000803e3d6000fd5b505050506040513d602081101561063557600080fd5b505160ff1611156106c0576106b96008846001600160a01b031663313ce5676040518163ffffffff1660e01b815260040160206040518083038186803b15801561067e57600080fd5b505afa158015610692573d6000803e3d6000fd5b505050506040513d60208110156106a857600080fd5b5051839160ff910316600a0a61098a565b905061073b565b610738836001600160a01b031663313ce5676040518163ffffffff1660e01b815260040160206040518083038186803b1580156106fc57600080fd5b505afa158015610710573d6000803e3d6000fd5b505050506040513d602081101561072657600080fd5b5051829060080360ff16600a0a6109f1565b90505b90505b92915050565b6000546001600160a01b031690565b600061076183836000610a15565b90508061073e576040805162461bcd60e51b815260206004820152600f60248201527f5072696365206e6f7420666f756e640000000000000000000000000000000000604482015290519081900360640190fd5b600481815481106107c557600080fd5b6000918252602090912001546001600160a01b0316905081565b6002546001600160a01b0316331461083e576040805162461bcd60e51b815260206004820152601d60248201527f4f6e6c7920636f6e74726f6c6c65722063616e2063616c6c2074686973000000604482015290519081900360640190fd5b610846611a3c565b565b610850610986565b6001600160a01b0316610861610744565b6001600160a01b0316146108bc576040805162461bcd60e51b815260206004820181905260248201527f4f776e61626c653a2063616c6c6572206973206e6f7420746865206f776e6572604482015290519081900360640190fd5b6001600160a01b0381166109015760405162461bcd60e51b8152600401808060200182810382526026815260200180613f326026913960400191505060405180910390fd5b600080546040516001600160a01b03808516939216917f8be0079c531659141344cd1fd0a4f28419497f9722a3daafe3b4186f6b6457e091a36000805473ffffffffffffffffffffffffffffffffffffffff19166001600160a01b0392909216919091179055565b6002546001600160a01b031681565b600061076183836001610a15565b3390565b60008082116109e0576040805162461bcd60e51b815260206004820152601a60248201527f536166654d6174683a206469766973696f6e206279207a65726f000000000000604482015290519081900360640190fd5b8183816109e957fe5b049392505050565b6000821580610a0c57505081810281838281610a0957fe5b04145b61073e57600080fd5b6000826001600160a01b0316846001600160a01b03161415610a405750670de0b6b3a7640000611a35565b600154604080517f3149ea1a0000000000000000000000000000000000000000000000000000000081526001600160a01b0387811660048301528681166024830152915160009384938493849384939290921691633149ea1a91604480820192608092909190829003018186803b158015610aba57600080fd5b505afa158015610ace573d6000803e3d6000fd5b505050506040513d6080811015610ae457600080fd5b5080516020820151604083015160609093015191965094509092509050600160ff85161415610b3957610b178983610544565b9450610b2d85610b27848b610753565b90611c33565b95505050505050611a35565b8260ff1660011415610b6557610b4f8882610544565b9450610b2d85610b5f8b84610753565b90611c51565b8360ff1660021415610b7b57610b2d8289610753565b8260ff1660021415610b9157610b2d8982610753565b8360ff1660031415610ba757610b178983610544565b8260ff1660031415610bbd57610b4f8882610544565b8360ff1660041415610d6e576000896001600160a01b031663d4b839926040518163ffffffff1660e01b815260040160206040518083038186803b158015610c0457600080fd5b505afa158015610c18573d6000803e3d6000fd5b505050506040513d6020811015610c2e57600080fd5b50516040805163dbd06c8560e01b8152905191925073d69b189020ef614796578afe4d10378c5e7e11389163ac82f608916001600160a01b0385169163dbd06c8591600480820192602092909190829003018186803b158015610c9057600080fd5b505afa158015610ca4573d6000803e3d6000fd5b505050506040513d6020811015610cba57600080fd5b5051604080517fffffffff0000000000000000000000000000000000000000000000000000000060e085901b1681526004810192909252516024808301926020929190829003018186803b158015610d1157600080fd5b505afa158015610d25573d6000803e3d6000fd5b505050506040513d6020811015610d3b57600080fd5b50519550610d6186610b2773a0b86991c6218b36c1d19d4a2e9eb0ce3606eb488c610753565b9650505050505050611a35565b8260ff1660041415610f12576000886001600160a01b031663d4b839926040518163ffffffff1660e01b815260040160206040518083038186803b158015610db557600080fd5b505afa158015610dc9573d6000803e3d6000fd5b505050506040513d6020811015610ddf57600080fd5b50516040805163dbd06c8560e01b8152905191925073d69b189020ef614796578afe4d10378c5e7e11389163ac82f608916001600160a01b0385169163dbd06c8591600480820192602092909190829003018186803b158015610e4157600080fd5b505afa158015610e55573d6000803e3d6000fd5b505050506040513d6020811015610e6b57600080fd5b5051604080517fffffffff0000000000000000000000000000000000000000000000000000000060e085901b1681526004810192909252516024808301926020929190829003018186803b158015610ec257600080fd5b505afa158015610ed6573d6000803e3d6000fd5b505050506040513d6020811015610eec57600080fd5b50519550610d6186610b5f8c73a0b86991c6218b36c1d19d4a2e9eb0ce3606eb48610753565b60006f22d53366457f9d5e68ec105046fc43836001600160a01b031663a262904b6040518163ffffffff1660e01b815260040160206040518083038186803b158015610f5d57600080fd5b505afa158015610f71573d6000803e3d6000fd5b505050506040513d6020811015610f8757600080fd5b50519050610f958a8a611c69565b96508615610fa857505050505050611a35565b8460ff1660051415611181576001600160a01b038a1673903c9974aaa431a765e60bc07af45f0a1b3b61fb14611113576000816001600160a01b031663bdf475c38c6040518263ffffffff1660e01b815260040180826001600160a01b0316815260200191505060206040518083038186803b15801561102757600080fd5b505afa15801561103b573d6000803e3d6000fd5b505050506040513d602081101561105157600080fd5b505190506001600160a01b0381161561110d5760006110708284611f92565b90506110fe61107f828d610753565b846001600160a01b031663c5b7074a8f6040518263ffffffff1660e01b815260040180826001600160a01b0316815260200191505060206040518083038186803b1580156110cc57600080fd5b505afa1580156110e0573d6000803e3d6000fd5b505050506040513d60208110156110f657600080fd5b505190611c33565b98505050505050505050611a35565b50611181565b610d61611134736b175474e89094c44da98b954eedeac495271d0f8b610753565b73e8b2989276e2ca8fdea2268e3551b2b4b24189506001600160a01b03166354f0f7d56040518163ffffffff1660e01b815260040160206040518083038186803b1580156110cc57600080fd5b8360ff1660051415611371576001600160a01b03891673903c9974aaa431a765e60bc07af45f0a1b3b61fb146112d7576000816001600160a01b031663bdf475c38b6040518263ffffffff1660e01b815260040180826001600160a01b0316815260200191505060206040518083038186803b15801561120057600080fd5b505afa158015611214573d6000803e3d6000fd5b505050506040513d602081101561122a57600080fd5b505190506001600160a01b038116156112d15760006112498284611f92565b90506110fe836001600160a01b031663c5b7074a8d6040518263ffffffff1660e01b815260040180826001600160a01b0316815260200191505060206040518083038186803b15801561129b57600080fd5b505afa1580156112af573d6000803e3d6000fd5b505050506040513d60208110156112c557600080fd5b5051610b5f8e84610753565b50611371565b610d6173e8b2989276e2ca8fdea2268e3551b2b4b24189506001600160a01b03166354f0f7d56040518163ffffffff1660e01b815260040160206040518083038186803b15801561132757600080fd5b505afa15801561133b573d6000803e3d6000fd5b505050506040513d602081101561135157600080fd5b5051610b5f8c736b175474e89094c44da98b954eedeac495271d0f610753565b8460ff16600614156114be576114276113ee8b6001600160a01b031663fc0c546a6040518163ffffffff1660e01b815260040160206040518083038186803b1580156113bc57600080fd5b505afa1580156113d0573d6000803e3d6000fd5b505050506040513d60208110156113e657600080fd5b50518b610753565b8b6001600160a01b03166399530b066040518163ffffffff1660e01b815260040160206040518083038186803b1580156110cc57600080fd5b965060008a6001600160a01b031663313ce5676040518163ffffffff1660e01b815260040160206040518083038186803b15801561146457600080fd5b505afa158015611478573d6000803e3d6000fd5b505050506040513d602081101561148e57600080fd5b505160ff16905060128110156114b2576114af886012839003600a0a6109f1565b97505b50505050505050611a35565b8360ff166006141561165c576000896001600160a01b031663fc0c546a6040518163ffffffff1660e01b815260040160206040518083038186803b15801561150557600080fd5b505afa158015611519573d6000803e3d6000fd5b505050506040513d602081101561152f57600080fd5b5051604080517f99530b0600000000000000000000000000000000000000000000000000000000815290519192506115c7916001600160a01b038d16916399530b06916004808301926020929190829003018186803b15801561159157600080fd5b505afa1580156115a5573d6000803e3d6000fd5b505050506040513d60208110156115bb57600080fd5b5051610b5f8d84610753565b975060008a6001600160a01b031663313ce5676040518163ffffffff1660e01b815260040160206040518083038186803b15801561160457600080fd5b505afa158015611618573d6000803e3d6000fd5b505050506040513d602081101561162e57600080fd5b505160ff169050601281101561164f576110fe896012839003600a0a61098a565b5050505050505050611a35565b6000805b60045481101561172f5760006004828154811061167957fe5b6000918252602090912001546001600160a01b0390811691508d1681148015906116b55750806001600160a01b03168c6001600160a01b031614155b15611726576116c4818d611c69565b995089156116f8576116d68d82612112565b925082156116f8576116e8838b611c33565b9950505050505050505050611a35565b6117028d82611c69565b9950891561172657611714818d612112565b92508215611726576116e88a84611c33565b50600101611660565b508560ff166007141561189657670de0b6b3a76400006001600160a01b038c16737f39c581f595b53c5cb19bd0b3f8da6c935e2ca014156117f157737f39c581f595b53c5cb19bd0b3f8da6c935e2ca06001600160a01b031663bb2952fc826040518263ffffffff1660e01b81526004018082815260200191505060206040518083038186803b1580156117c257600080fd5b505afa1580156117d6573d6000803e3d6000fd5b505050506040513d60208110156117ec57600080fd5b505190505b6110fe73ae7ab96520de3a18e5e111b5eaab095312d7fe846001600160a01b0316637a28fb88836040518263ffffffff1660e01b81526004018082815260200191505060206040518083038186803b15801561184c57600080fd5b505afa158015611860573d6000803e3d6000fd5b505050506040513d602081101561187657600080fd5b5051610b2773c02aaa39b223fe8d0a0e5c4f27ead9083c756cc28e610753565b8460ff16600714156119fc57670de0b6b3a76400006001600160a01b038b16737f39c581f595b53c5cb19bd0b3f8da6c935e2ca0141561195757737f39c581f595b53c5cb19bd0b3f8da6c935e2ca06001600160a01b031663bb2952fc826040518263ffffffff1660e01b81526004018082815260200191505060206040518083038186803b15801561192857600080fd5b505afa15801561193c573d6000803e3d6000fd5b505050506040513d602081101561195257600080fd5b505190505b6110fe73ae7ab96520de3a18e5e111b5eaab095312d7fe846001600160a01b03166319208451836040518263ffffffff1660e01b81526004018082815260200191505060206040518083038186803b1580156119b257600080fd5b505afa1580156119c6573d6000803e3d6000fd5b505050506040513d60208110156119dc57600080fd5b5051610b5f8e73c02aaa39b223fe8d0a0e5c4f27ead9083c756cc2610753565b611a068b8b61214c565b97508715611a1a5750505050505050611a35565b8815611a2d57611a2a8b8b612231565b97505b505050505050505b9392505050565b600254604080517fbc819ea600000000000000000000000000000000000000000000000000000000815290516000926001600160a01b03169163bc819ea69160048083019286929190829003018186803b158015611a9957600080fd5b505afa158015611aad573d6000803e3d6000fd5b505050506040513d6000823e601f3d908101601f191682016040526020811015611ad657600080fd5b8101908080516040519392919084640100000000821115611af657600080fd5b908301906020820185811115611b0b57600080fd5b8251866020820283011164010000000082111715611b2857600080fd5b82525081516020918201928201910280838360005b83811015611b55578181015183820152602001611b3d565b50505050905001604052505050905060046000611b729190613ef7565b60005b8151811015611c2f57600160036000848481518110611b9057fe5b60200260200101516001600160a01b03166001600160a01b0316815260200190815260200160002060006101000a81548160ff0219169083151502179055506004828281518110611bdd57fe5b602090810291909101810151825460018082018555600094855292909320909201805473ffffffffffffffffffffffffffffffffffffffff19166001600160a01b039093169290921790915501611b75565b5050565b600061073b670de0b6b3a7640000611c4b85856109f1565b9061098a565b600061073b82611c4b85670de0b6b3a76400006109f1565b6000806f22d53366457f9d5e68ec105046fc43836001600160a01b031663a262904b6040518163ffffffff1660e01b815260040160206040518083038186803b158015611cb557600080fd5b505afa158015611cc9573d6000803e3d6000fd5b505050506040513d6020811015611cdf57600080fd5b5051604080517fa87df06c0000000000000000000000000000000000000000000000000000000081526001600160a01b038781166004830152868116602483015291519293506000929184169163a87df06c91604480820192602092909190829003018186803b158015611d5257600080fd5b505afa158015611d66573d6000803e3d6000fd5b505050506040513d6020811015611d7c57600080fd5b505190506001600160a01b03851673c02aaa39b223fe8d0a0e5c4f27ead9083c756cc2148015611db357506001600160a01b038116155b15611e705773eeeeeeeeeeeeeeeeeeeeeeeeeeeeeeeeeeeeeeee9450816001600160a01b031663a87df06c73eeeeeeeeeeeeeeeeeeeeeeeeeeeeeeeeeeeeeeee866040518363ffffffff1660e01b815260040180836001600160a01b03168152602001826001600160a01b031681526020019250505060206040518083038186803b158015611e4157600080fd5b505afa158015611e55573d6000803e3d6000fd5b505050506040513d6020811015611e6b57600080fd5b505190505b6001600160a01b03841673c02aaa39b223fe8d0a0e5c4f27ead9083c756cc2148015611ea357506001600160a01b038116155b15611f605773eeeeeeeeeeeeeeeeeeeeeeeeeeeeeeeeeeeeeeee9350816001600160a01b031663a87df06c8673eeeeeeeeeeeeeeeeeeeeeeeeeeeeeeeeeeeeeeee6040518363ffffffff1660e01b815260040180836001600160a01b03168152602001826001600160a01b031681526020019250505060206040518083038186803b158015611f3157600080fd5b505afa158015611f45573d6000803e3d6000fd5b505050506040513d6020811015611f5b57600080fd5b505190505b6001600160a01b03811615611f87576000611f7c8287876124b9565b935061073e92505050565b506000949350505050565b600080826001600160a01b031663a77576ef856040518263ffffffff1660e01b815260040180826001600160a01b031681526020019150506101006040518083038186803b158015611fe357600080fd5b505afa158015611ff7573d6000803e3d6000fd5b505050506040513d601f19601f8201168201806040525061010081101561201d57600080fd5b5080519091506001600160a01b0316156120825780516001600160a01b031673eeeeeeeeeeeeeeeeeeeeeeeeeeeeeeeeeeeeeeee14612064578060005b602002015161207a565b73c02aaa39b223fe8d0a0e5c4f27ead9083c756cc25b91505061073e565b60208101516001600160a01b0316156120c55760208101516001600160a01b031673eeeeeeeeeeeeeeeeeeeeeeeeeeeeeeeeeeeeeeee146120645780600161205a565b60408101516001600160a01b0316156121085760408101516001600160a01b031673eeeeeeeeeeeeeeeeeeeeeeeeeeeeeeeeeeeeeeee146120645780600261205a565b5060009392505050565b60008061211f8484612aa4565b90506001600160a01b03811661213957600091505061073e565b612144818585612e91565b949350505050565b6001600160a01b038216600090815260036020526040812054670de0b6b3a76400009082908590859060ff1661218f57612187876001612ff4565b945084935091505b6001600160a01b03861660009081526003602052604090205460ff166121fd576121ba866000612ff4565b935090506001600160a01b03828116908216146121e8576121e56121de8383612112565b8590611c33565b93505b6121f28484611c33565b94505050505061073e565b806001600160a01b0316826001600160a01b031614612226576122236121de8383612112565b93505b509195945050505050565b60408051600280825260608201835260009283929190602083019080368337019050509050838160008151811061226457fe5b60200260200101906001600160a01b031690816001600160a01b031681525050828160018151811061229257fe5b60200260200101906001600160a01b031690816001600160a01b031681525050737a250d5630b4cf539739df2c5dacb4c659f2488d6001600160a01b031663d06ca61f856001600160a01b031663313ce5676040518163ffffffff1660e01b815260040160206040518083038186803b15801561230e57600080fd5b505afa158015612322573d6000803e3d6000fd5b505050506040513d602081101561233857600080fd5b5051604080517fffffffff0000000000000000000000000000000000000000000000000000000060e085901b16815260ff8316600482019081526024820192835286516044830152865187939192606401906020858101910280838360005b838110156123af578181015183820152602001612397565b50505050905001935050505060006040518083038186803b1580156123d357600080fd5b505afa1580156123e7573d6000803e3d6000fd5b505050506040513d6000823e601f3d908101601f19168201604052602081101561241057600080fd5b810190808051604051939291908464010000000082111561243057600080fd5b90830190602082018581111561244557600080fd5b825186602082028301116401000000008211171561246257600080fd5b82525081516020918201928201910280838360005b8381101561248f578181015183820152602001612477565b505050509050016040525050506001815181106124a857fe5b602002602001015191505092915050565b6000806f22d53366457f9d5e68ec105046fc43836001600160a01b031663a262904b6040518163ffffffff1660e01b815260040160206040518083038186803b15801561250557600080fd5b505afa158015612519573d6000803e3d6000fd5b505050506040513d602081101561252f57600080fd5b5051604080517feb85226d0000000000000000000000000000000000000000000000000000000081526001600160a01b038881166004830152878116602483015286811660448301529151929350600092839283929086169163eb85226d91606480820192606092909190829003018186803b1580156125ae57600080fd5b505afa1580156125c2573d6000803e3d6000fd5b505050506040513d60608110156125d857600080fd5b50805160208201516040909201519094509092509050600073d51a44d3fae010294c616388b506acda1bfaae466001600160a01b038a16148061263757507380466c64868e1ab14a1ddf27a676c3fcbe638fe56001600160a01b038a16145b1561276857886001600160a01b031663556d6e9f85600f0b85600f0b73eeeeeeeeeeeeeeeeeeeeeeeeeeeeeeeeeeeeeeee6001600160a01b03168c6001600160a01b0316146126ea578b6001600160a01b031663313ce5676040518163ffffffff1660e01b815260040160206040518083038186803b1580156126b957600080fd5b505afa1580156126cd573d6000803e3d6000fd5b505050506040513d60208110156126e357600080fd5b50516126ed565b60125b60ff16600a0a6040518463ffffffff1660e01b815260040180848152602001838152602001828152602001935050505060206040518083038186803b15801561273557600080fd5b505afa158015612749573d6000803e3d6000fd5b505050506040513d602081101561275f57600080fd5b5051905061298f565b811561286757886001600160a01b03166307211ef7858573eeeeeeeeeeeeeeeeeeeeeeeeeeeeeeeeeeeeeeee6001600160a01b03168c6001600160a01b031614612816578b6001600160a01b031663313ce5676040518163ffffffff1660e01b815260040160206040518083038186803b1580156127e557600080fd5b505afa1580156127f9573d6000803e3d6000fd5b505050506040513d602081101561280f57600080fd5b5051612819565b60125b60ff16600a0a6040518463ffffffff1660e01b81526004018084600f0b815260200183600f0b8152602001828152602001935050505060206040518083038186803b15801561273557600080fd5b886001600160a01b0316635e0d443f858573eeeeeeeeeeeeeeeeeeeeeeeeeeeeeeeeeeeeeeee6001600160a01b03168c6001600160a01b03161461290f578b6001600160a01b031663313ce5676040518163ffffffff1660e01b815260040160206040518083038186803b1580156128de57600080fd5b505afa1580156128f2573d6000803e3d6000fd5b505050506040513d602081101561290857600080fd5b5051612912565b60125b60ff16600a0a6040518463ffffffff1660e01b81526004018084600f0b815260200183600f0b8152602001828152602001935050505060206040518083038186803b15801561296057600080fd5b505afa158015612974573d6000803e3d6000fd5b505050506040513d602081101561298a57600080fd5b505190505b612a3b6001600160a01b03881673eeeeeeeeeeeeeeeeeeeeeeeeeeeeeeeeeeeeeeee14612a2057876001600160a01b031663313ce5676040518163ffffffff1660e01b815260040160206040518083038186803b1580156129ef57600080fd5b505afa158015612a03573d6000803e3d6000fd5b505050506040513d6020811015612a1957600080fd5b5051612a23565b60125b60120360ff16600a0a826109f190919063ffffffff16565b90506000612a508266d529ae9e860000611c33565b9050612a64670de0b6b3a7640000826130c6565b82108015612a825750612a7f670de0b6b3a7640000826130d6565b82115b15612a9457509450611a359350505050565b5060009998505050505050505050565b60408051630b4c774160e11b81526001600160a01b038481166004830152831660248201526101f4604482015290516000918291731f98431c8ad98523631ae4a59f267346ea31f98491631698ee82916064808301926020929190829003018186803b158015612b1357600080fd5b505afa158015612b27573d6000803e3d6000fd5b505050506040513d6020811015612b3d57600080fd5b505160408051630b4c774160e11b81526001600160a01b03878116600483015286166024820152610bb860448201529051919250600091731f98431c8ad98523631ae4a59f267346ea31f98491631698ee82916064808301926020929190829003018186803b158015612baf57600080fd5b505afa158015612bc3573d6000803e3d6000fd5b505050506040513d6020811015612bd957600080fd5b505160408051630b4c774160e11b81526001600160a01b0388811660048301528716602482015261271060448201529051919250600091731f98431c8ad98523631ae4a59f267346ea31f98491631698ee82916064808301926020929190829003018186803b158015612c4b57600080fd5b505afa158015612c5f573d6000803e3d6000fd5b505050506040513d6020811015612c7557600080fd5b5051905060006001600160a01b038416612c90576000612cf6565b836001600160a01b0316631a6865026040518163ffffffff1660e01b815260040160206040518083038186803b158015612cc957600080fd5b505afa158015612cdd573d6000803e3d6000fd5b505050506040513d6020811015612cf357600080fd5b50515b905060006001600160a01b038416612d0f576000612d75565b836001600160a01b0316631a6865026040518163ffffffff1660e01b815260040160206040518083038186803b158015612d4857600080fd5b505afa158015612d5c573d6000803e3d6000fd5b505050506040513d6020811015612d7257600080fd5b50515b905060006001600160a01b038416612d8e576000612df4565b836001600160a01b0316631a6865026040518163ffffffff1660e01b815260040160206040518083038186803b158015612dc757600080fd5b505afa158015612ddb573d6000803e3d6000fd5b505050506040513d6020811015612df157600080fd5b50515b9050816001600160801b0316836001600160801b031610158015612e2a5750806001600160801b0316836001600160801b031610155b15612e3d5785965050505050505061073e565b826001600160801b0316826001600160801b031610158015612e715750806001600160801b0316826001600160801b031610155b15612e845784965050505050505061073e565b5091979650505050505050565b600080846001600160a01b0316633850c7bd6040518163ffffffff1660e01b815260040160e06040518083038186803b158015612ecd57600080fd5b505afa158015612ee1573d6000803e3d6000fd5b505050506040513d60e0811015612ef757600080fd5b50602001519050612f0881866130e6565b612f16576000915050611a35565b612feb612f8c856001600160a01b031663313ce5676040518163ffffffff1660e01b815260040160206040518083038186803b158015612f5557600080fd5b505afa158015612f69573d6000803e3d6000fd5b505050506040513d6020811015612f7f57600080fd5b505160129060ff166130d6565b600a0a611c4b83612fe4612fd2886001600160a01b031663313ce5676040518163ffffffff1660e01b815260040160206040518083038186803b158015612f5557600080fd5b670de0b6b3a764000090600a0a6109f1565b88886131d7565b95945050505050565b60008080808080805b60045481101561308b5760008061304a8b6004858154811061301b57fe5b6000918252602090912001546001600160a01b0316736b175474e89094c44da98b954eedeac495271d0f6132ce565b9150915083811115613081578194508093506004838154811061306957fe5b6000918252602090912001546001600160a01b031695505b5050600101612ffd565b5080156130b85786156130aa576130a3828985612e91565b93506130b8565b6130b582848a612e91565b93505b509096919550909350505050565b8082018281101561073e57600080fd5b8082038281111561073e57600080fd5b600080826001600160a01b031663d0c93a7c6040518163ffffffff1660e01b815260040160206040518083038186803b15801561312257600080fd5b505afa158015613136573d6000803e3d6000fd5b505050506040513d602081101561314c57600080fd5b50519050620d85ff198101600290810b9085900b121561317057600091505061073e565b806103e8620d89e719600003030360020b8460020b131561319557600091505061073e565b60006131a084613659565b905060008160060b8660020b136131bc578560020b82036131c3565b818660020b035b61138860069190910b129695505050505050565b6000806131e386613903565b90506001600160801b036001600160a01b03821611613252576001600160a01b03808216800290848116908616106132325761322d600160c01b876001600160801b031683613c51565b61324a565b61324a81876001600160801b0316600160c01b613c51565b9250506132c5565b60006132716001600160a01b0383168068010000000000000000613c51565b9050836001600160a01b0316856001600160a01b0316106132a9576132a4600160801b876001600160801b031683613c51565b6132c1565b6132c181876001600160801b0316600160801b613c51565b9250505b50949350505050565b60008060006132dd8686612aa4565b90506001600160a01b0381166132fa576000809250925050613651565b6000816001600160a01b0316631a6865026040518163ffffffff1660e01b815260040160206040518083038186803b15801561333557600080fd5b505afa158015613349573d6000803e3d6000fd5b505050506040513d602081101561335f57600080fd5b5051604080517f0dfe168100000000000000000000000000000000000000000000000000000000815290516001600160801b039092169250600091829182916001600160a01b03871691630dfe1681916004808301926020929190829003018186803b1580156133ce57600080fd5b505afa1580156133e2573d6000803e3d6000fd5b505050506040513d60208110156133f857600080fd5b5051604080517fd21220a700000000000000000000000000000000000000000000000000000000815290519192506000916001600160a01b0388169163d21220a7916004808301926020929190829003018186803b15801561345957600080fd5b505afa15801561346d573d6000803e3d6000fd5b505050506040513d602081101561348357600080fd5b505190506001600160a01b038216736b175474e89094c44da98b954eedeac495271d0f14806134ce57506001600160a01b03821673c02aaa39b223fe8d0a0e5c4f27ead9083c756cc2145b806134f557506001600160a01b03821673a0b86991c6218b36c1d19d4a2e9eb0ce3606eb48145b8061351c57506001600160a01b038216732260fac5e5542a773aa44fbcfedf7c193bc2c599145b156135b1576135a7816001600160a01b03166370a08231886040518263ffffffff1660e01b815260040180826001600160a01b0316815260200191505060206040518083038186803b15801561357157600080fd5b505afa158015613585573d6000803e3d6000fd5b505050506040513d602081101561359b57600080fd5b5051611c4b87806109f1565b9350819250613607565b613601826001600160a01b03166370a08231886040518263ffffffff1660e01b815260040180826001600160a01b0316815260200191505060206040518083038186803b15801561357157600080fd5b93508092505b886001600160a01b0316836001600160a01b03161461364657600061362c848b610753565b9050613642848b61363d8885611c33565b613d00565b9450505b509395509093505050505b935093915050565b60408051600280825260608201835260009283929190602083019080368337019050509050601e8160008151811061368d57fe5b602002602001019063ffffffff16908163ffffffff16815250506000816001815181106136b657fe5b63ffffffff9092166020928302919091018201526040517f883bdbfd000000000000000000000000000000000000000000000000000000008152600481018281528351602483015283516001600160a01b0387169363883bdbfd938693928392604490920191858101910280838360005b8381101561373f578181015183820152602001613727565b505050509050019250505060006040518083038186803b15801561376257600080fd5b505afa9250505080156138ac57506040513d6000823e601f3d908101601f19168201604090815281101561379557600080fd5b81019080805160405193929190846401000000008211156137b557600080fd5b9083019060208201858111156137ca57600080fd5b82518660208202830111640100000000821117156137e757600080fd5b82525081516020918201928201910280838360005b838110156138145781810151838201526020016137fc565b505050509050016040526020018051604051939291908464010000000082111561383d57600080fd5b90830190602082018581111561385257600080fd5b825186602082028301116401000000008211171561386f57600080fd5b82525081516020918201928201910280838360005b8381101561389c578181015183820152602001613884565b5050505090500160405250505060015b6138ba5760009150506138fe565b601e63ffffffff16826000815181106138cf57fe5b6020026020010151836001815181106138e457fe5b60200260200101510360060b816138f757fe5b0593505050505b919050565b60008060008360020b1261391a578260020b613922565b8260020b6000035b9050620d89e881111561397c576040805162461bcd60e51b815260206004820152600160248201527f5400000000000000000000000000000000000000000000000000000000000000604482015290519081900360640190fd5b60006001821661399057600160801b6139a2565b6ffffcb933bd6fad37aa2d162d1a5940015b70ffffffffffffffffffffffffffffffffff16905060028216156139d6576ffff97272373d413259a46990580e213a0260801c5b60048216156139f5576ffff2e50f5f656932ef12357cf3c7fdcc0260801c5b6008821615613a14576fffe5caca7e10e4e61c3624eaa0941cd00260801c5b6010821615613a33576fffcb9843d60f6159c9db58835c9266440260801c5b6020821615613a52576fff973b41fa98c081472e6896dfb254c00260801c5b6040821615613a71576fff2ea16466c96a3843ec78b326b528610260801c5b6080821615613a90576ffe5dee046a99a2a811c461f1969c30530260801c5b610100821615613ab0576ffcbe86c7900a88aedcffc83b479aa3a40260801c5b610200821615613ad0576ff987a7253ac413176f2b074cf7815e540260801c5b610400821615613af0576ff3392b0822b70005940c7a398e4b70f30260801c5b610800821615613b10576fe7159475a2c29b7443b29c7fa6e889d90260801c5b611000821615613b30576fd097f3bdfd2022b8845ad8f792aa58250260801c5b612000821615613b50576fa9f746462d870fdf8a65dc1f90e061e50260801c5b614000821615613b70576f70d869a156d2a1b890bb3df62baf32f70260801c5b618000821615613b90576f31be135f97d08fd981231505542fcfa60260801c5b62010000821615613bb1576f09aa508b5b7a84e1c677de54f3e99bc90260801c5b62020000821615613bd1576e5d6af8dedb81196699c329225ee6040260801c5b62040000821615613bf0576d2216e584f5fa1ea926041bedfe980260801c5b62080000821615613c0d576b048a170391f7dc42444e8fa20260801c5b60008460020b1315613c28578060001981613c2457fe5b0490505b640100000000810615613c3c576001613c3f565b60005b60ff16602082901c0192505050919050565b6000808060001985870986860292508281109083900303905080613c875760008411613c7c57600080fd5b508290049050611a35565b808411613c9357600080fd5b6000848688096000868103871696879004966002600389028118808a02820302808a02820302808a02820302808a02820302808a02820302808a02909103029181900381900460010186841190950394909402919094039290920491909117919091029150509392505050565b600080613d0c85613ec1565b613d7a57846001600160a01b031663313ce5676040518163ffffffff1660e01b815260040160206040518083038186803b158015613d4957600080fd5b505afa158015613d5d573d6000803e3d6000fd5b505050506040513d6020811015613d7357600080fd5b5051613d7d565b60125b60ff1690506000613d8d85613ec1565b613dfb57846001600160a01b031663313ce5676040518163ffffffff1660e01b815260040160206040518083038186803b158015613dca57600080fd5b505afa158015613dde573d6000803e3d6000fd5b505050506040513d6020811015613df457600080fd5b5051613dfe565b60125b60ff16905060128211158015613e15575060128111155b613e66576040805162461bcd60e51b815260206004820152601460248201527f556e737570706f7274656420646563696d616c73000000000000000000000000604482015290519081900360640190fd5b80821415613e78578392505050611a35565b81811115613ea057613e97613e8d82846130d6565b8590600a0a6109f1565b92505050611a35565b613eb7613ead83836130d6565b8590600a0a61098a565b9695505050505050565b600073eeeeeeeeeeeeeeeeeeeeeeeeeeeeeeeeeeeeeeee6001600160a01b038316148061073e5750506001600160a01b03161590565b5080546000825590600052602060002090810190613f159190613f18565b50565b5b80821115613f2d5760008155600101613f19565b509056fe4f776e61626c653a206e6577206f776e657220697320746865207a65726f2061646472657373a2646970667358221220b29cc180dea5696e6900963b33fd6448ea04cc4e1bb80c31125a78ee19c5464c64736f6c63430007060033",
  "devdoc": {
    "author": "Babylon Finance Protocol Uses Uniswap V3 to get a price of a token pair",
    "kind": "dev",
    "methods": {
      "getPrice(address,address)": {
        "params": {
          "_tokenIn": "Address of the first token",
          "_tokenOut": "Address of the second token"
        },
        "returns": {
          "price": "               Price of the pair"
        }
      },
      "getPriceNAV(address,address)": {
        "params": {
          "_tokenIn": "Address of the first token",
          "_tokenOut": "Address of the second token"
        },
        "returns": {
          "price": "               Price of the pair"
        }
      },
      "owner()": {
        "details": "Returns the address of the current owner."
      },
      "renounceOwnership()": {
        "details": "Leaves the contract without owner. It will not be possible to call `onlyOwner` functions anymore. Can only be called by the current owner. NOTE: Renouncing ownership will leave the contract without an owner, thereby removing any functionality that is only available to the owner."
      },
      "transferOwnership(address)": {
        "details": "Transfers ownership of the contract to a new account (`newOwner`). Can only be called by the current owner."
      }
    },
    "title": "PriceOracle",
    "version": 1
  },
  "userdoc": {
    "kind": "user",
    "methods": {
      "getPrice(address,address)": {
        "notice": "Returns the amount out corresponding to the amount in for a given token"
      },
      "getPriceNAV(address,address)": {
        "notice": "Returns the amount out corresponding to the amount in for a given token"
      }
    },
    "version": 1
  },
  "storageLayout": {
    "storage": [
      {
        "astId": 1456,
        "contract": "contracts/PriceOracle.sol:PriceOracle",
        "label": "_owner",
        "offset": 0,
        "slot": "0",
        "type": "t_address"
      },
      {
        "astId": 14138,
        "contract": "contracts/PriceOracle.sol:PriceOracle",
        "label": "tokenIdentifier",
        "offset": 0,
        "slot": "1",
        "type": "t_contract(ITokenIdentifier)37058"
      },
      {
        "astId": 14140,
        "contract": "contracts/PriceOracle.sol:PriceOracle",
        "label": "controller",
        "offset": 0,
        "slot": "2",
        "type": "t_contract(IBabController)35199"
      },
      {
        "astId": 14144,
        "contract": "contracts/PriceOracle.sol:PriceOracle",
        "label": "reserveAssets",
        "offset": 0,
        "slot": "3",
        "type": "t_mapping(t_address,t_bool)"
      },
      {
        "astId": 14147,
        "contract": "contracts/PriceOracle.sol:PriceOracle",
        "label": "reserveAssetsList",
        "offset": 0,
        "slot": "4",
        "type": "t_array(t_address)dyn_storage"
      }
    ],
    "types": {
      "t_address": {
        "encoding": "inplace",
        "label": "address",
        "numberOfBytes": "20"
      },
      "t_array(t_address)dyn_storage": {
        "base": "t_address",
        "encoding": "dynamic_array",
        "label": "address[]",
        "numberOfBytes": "32"
      },
      "t_bool": {
        "encoding": "inplace",
        "label": "bool",
        "numberOfBytes": "1"
      },
      "t_contract(IBabController)35199": {
        "encoding": "inplace",
        "label": "contract IBabController",
        "numberOfBytes": "20"
      },
      "t_contract(ITokenIdentifier)37058": {
        "encoding": "inplace",
        "label": "contract ITokenIdentifier",
        "numberOfBytes": "20"
      },
      "t_mapping(t_address,t_bool)": {
        "encoding": "mapping",
        "key": "t_address",
        "label": "mapping(address => bool)",
        "numberOfBytes": "32",
        "value": "t_bool"
      }
    }
  }
}