{
  "address": "0xC32D2D802A21C5eFB2BF962c312BFa5498064f6B",
  "abi": [
    {
      "inputs": [
        {
          "internalType": "contract ITokenIdentifier",
          "name": "_tokenIdentifier",
          "type": "address"
        },
        {
          "internalType": "contract IBabController",
          "name": "_controller",
          "type": "address"
        }
      ],
      "stateMutability": "nonpayable",
      "type": "constructor"
    },
    {
      "anonymous": false,
      "inputs": [
        {
          "indexed": true,
          "internalType": "address",
          "name": "previousOwner",
          "type": "address"
        },
        {
          "indexed": true,
          "internalType": "address",
          "name": "newOwner",
          "type": "address"
        }
      ],
      "name": "OwnershipTransferred",
      "type": "event"
    },
    {
      "inputs": [],
      "name": "controller",
      "outputs": [
        {
          "internalType": "contract IBabController",
          "name": "",
          "type": "address"
        }
      ],
      "stateMutability": "view",
      "type": "function"
    },
    {
      "inputs": [
        {
          "internalType": "address",
          "name": "_asset",
          "type": "address"
        },
        {
          "internalType": "address",
          "name": "_underlying",
          "type": "address"
        }
      ],
      "name": "getCompoundExchangeRate",
      "outputs": [
        {
          "internalType": "uint256",
          "name": "",
          "type": "uint256"
        }
      ],
      "stateMutability": "view",
      "type": "function"
    },
    {
      "inputs": [
        {
          "internalType": "address",
          "name": "_asset",
          "type": "address"
        },
        {
          "internalType": "address",
          "name": "_underlying",
          "type": "address"
        }
      ],
      "name": "getCreamExchangeRate",
      "outputs": [
        {
          "internalType": "uint256",
          "name": "",
          "type": "uint256"
        }
      ],
      "stateMutability": "view",
      "type": "function"
    },
    {
      "inputs": [
        {
          "internalType": "address",
          "name": "_tokenIn",
          "type": "address"
        },
        {
          "internalType": "address",
          "name": "_tokenOut",
          "type": "address"
        }
      ],
      "name": "getPrice",
      "outputs": [
        {
          "internalType": "uint256",
          "name": "price",
          "type": "uint256"
        }
      ],
      "stateMutability": "view",
      "type": "function"
    },
    {
      "inputs": [
        {
          "internalType": "address",
          "name": "_tokenIn",
          "type": "address"
        },
        {
          "internalType": "address",
          "name": "_tokenOut",
          "type": "address"
        }
      ],
      "name": "getPriceNAV",
      "outputs": [
        {
          "internalType": "uint256",
          "name": "price",
          "type": "uint256"
        }
      ],
      "stateMutability": "view",
      "type": "function"
    },
    {
      "inputs": [
        {
          "internalType": "address",
          "name": "",
          "type": "address"
        }
      ],
      "name": "hopTokens",
      "outputs": [
        {
          "internalType": "bool",
          "name": "",
          "type": "bool"
        }
      ],
      "stateMutability": "view",
      "type": "function"
    },
    {
      "inputs": [
        {
          "internalType": "uint256",
          "name": "",
          "type": "uint256"
        }
      ],
      "name": "hopTokensList",
      "outputs": [
        {
          "internalType": "address",
          "name": "",
          "type": "address"
        }
      ],
      "stateMutability": "view",
      "type": "function"
    },
    {
      "inputs": [],
      "name": "owner",
      "outputs": [
        {
          "internalType": "address",
          "name": "",
          "type": "address"
        }
      ],
      "stateMutability": "view",
      "type": "function"
    },
    {
      "inputs": [],
      "name": "renounceOwnership",
      "outputs": [],
      "stateMutability": "nonpayable",
      "type": "function"
    },
    {
      "inputs": [],
      "name": "tokenIdentifier",
      "outputs": [
        {
          "internalType": "contract ITokenIdentifier",
          "name": "",
          "type": "address"
        }
      ],
      "stateMutability": "view",
      "type": "function"
    },
    {
      "inputs": [
        {
          "internalType": "address",
          "name": "newOwner",
          "type": "address"
        }
      ],
      "name": "transferOwnership",
      "outputs": [],
      "stateMutability": "nonpayable",
      "type": "function"
    },
    {
      "inputs": [
        {
          "internalType": "int24",
          "name": "_maxTwapDeviation",
          "type": "int24"
        }
      ],
      "name": "updateMaxTwapDeviation",
      "outputs": [],
      "stateMutability": "nonpayable",
      "type": "function"
    },
    {
      "inputs": [
        {
          "internalType": "address[]",
          "name": "list",
          "type": "address[]"
        }
      ],
      "name": "updateReserves",
      "outputs": [],
      "stateMutability": "nonpayable",
      "type": "function"
    },
    {
      "inputs": [
        {
          "internalType": "contract ITokenIdentifier",
          "name": "_tokenIdentifier",
          "type": "address"
        }
      ],
      "name": "updateTokenIdentifier",
      "outputs": [],
      "stateMutability": "nonpayable",
      "type": "function"
    }
  ],
  "transactionHash": "0x0e61942d4f0fe7d50b92f1abe5176b80c13506affb7b71a79d74c2775712497d",
  "args": [
    "0x17a7c092E0009aF48c8e08af473DFC4b472e2852",
    "0xD4a5b5fcB561dAF3aDF86F8477555B92FBa43b5F"
  ],
  "solcInputHash": "3784ac05f49eaf448dfddecbcbc67974",
  "bytecode": "0x60806040523480156200001157600080fd5b506040516200441e3803806200441e833981810160405260408110156200003757600080fd5b50805160209091015160006200004c62000155565b600080546001600160a01b0319166001600160a01b0383169081178255604051929350917f8be0079c531659141344cd1fd0a4f28419497f9722a3daafe3b4186f6b6457e0908290a350600180546001600160a01b038085166001600160a01b03199283161790925560028054928416929091169190911790556005805462ffffff191661012c1790556200014d6200014773c02aaa39b223fe8d0a0e5c4f27ead9083c756cc2736b175474e89094c44da98b954eedeac495271d0f73a0b86991c6218b36c1d19d4a2e9eb0ce3606eb48732260fac5e5542a773aa44fbcfedf7c193bc2c59962000d1562000159602090811b91909117901c565b6200023e565b5050620003a2565b3390565b60408051600480825260a08201909252606091600091906020820160808036833701905050905085816000815181106200018f57fe5b60200260200101906001600160a01b031690816001600160a01b0316815250508481600181518110620001be57fe5b60200260200101906001600160a01b031690816001600160a01b0316815250508381600281518110620001ed57fe5b60200260200101906001600160a01b031690816001600160a01b03168152505082816003815181106200021c57fe5b6001600160a01b03909216602092830291909101909101529050949350505050565b60005b6004548110156200029d57600060036000600484815481106200026057fe5b6000918252602080832091909101546001600160a01b031683528201929092526040019020805460ff191691151591909117905560010162000241565b50620002ac6004600062000364565b60005b81518110156200036057600160036000848481518110620002cc57fe5b60200260200101516001600160a01b03166001600160a01b0316815260200190815260200160002060006101000a81548160ff02191690831515021790555060048282815181106200031a57fe5b60209081029190910181015182546001808201855560009485529290932090920180546001600160a01b0319166001600160a01b039093169290921790915501620002af565b5050565b508054600082559060005260206000209081019062000384919062000387565b50565b5b808211156200039e576000815560010162000388565b5090565b61406c80620003b26000396000f3fe608060405234801561001057600080fd5b50600436106100ea5760003560e01c8063ac41865a1161008c578063d636811311610066578063d636811314610230578063f2fde38b146102d3578063f77c4791146102f9578063f8da2c9514610301576100ea565b8063ac41865a146101c5578063c42cb292146101f3578063caa8a96514610213576100ea565b8063715018a6116100c8578063715018a61461017557806371f14a0b1461017d578063891d02491461017d5780638da5cb5b146101bd576100ea565b806312e9cb05146100ef57806316b2b88814610117578063564e9bb61461013b575b600080fd5b6101156004803603602081101561010557600080fd5b50356001600160a01b031661032f565b005b61011f61051b565b604080516001600160a01b039092168252519081900360200190f35b6101616004803603602081101561015157600080fd5b50356001600160a01b031661052a565b604080519115158252519081900360200190f35b61011561053f565b6101ab6004803603604081101561019357600080fd5b506001600160a01b038135811691602001351661060a565b60408051918252519081900360200190f35b61011f61080a565b6101ab600480360360408110156101db57600080fd5b506001600160a01b0381358116916020013516610819565b6101156004803603602081101561020957600080fd5b503560020b61087b565b61011f6004803603602081101561022957600080fd5b5035610a3f565b6101156004803603602081101561024657600080fd5b81019060208101813564010000000081111561026157600080fd5b82018360208201111561027357600080fd5b8035906020019184602083028401116401000000008311171561029557600080fd5b919080806020026020016040519081016040528093929190818152602001838360200280828437600092019190915250929550610a69945050505050565b610115600480360360208110156102e957600080fd5b50356001600160a01b0316610bd7565b61011f610cf8565b6101ab6004803603604081101561031757600080fd5b506001600160a01b0381358116916020013516610d07565b600260009054906101000a90046001600160a01b03166001600160a01b0316638da5cb5b6040518163ffffffff1660e01b815260040160206040518083038186803b15801561037d57600080fd5b505afa158015610391573d6000803e3d6000fd5b505050506040513d60208110156103a757600080fd5b50516001600160a01b03163314806104405750600260009054906101000a90046001600160a01b03166001600160a01b0316638d97e0436040518163ffffffff1660e01b815260040160206040518083038186803b15801561040857600080fd5b505afa15801561041c573d6000803e3d6000fd5b505050506040513d602081101561043257600080fd5b50516001600160a01b031633145b610491576040805162461bcd60e51b815260206004820152601560248201527f4e6f7420656e6f7567682070726976696c656765730000000000000000000000604482015290519081900360640190fd5b6001600160a01b0381166104ec576040805162461bcd60e51b815260206004820152601660248201527f41646472657373206e6565647320746f20657869737400000000000000000000604482015290519081900360640190fd5b6001805473ffffffffffffffffffffffffffffffffffffffff19166001600160a01b0392909216919091179055565b6001546001600160a01b031681565b60036020526000908152604090205460ff1681565b610547610df6565b6001600160a01b031661055861080a565b6001600160a01b0316146105b3576040805162461bcd60e51b815260206004820181905260248201527f4f776e61626c653a2063616c6c6572206973206e6f7420746865206f776e6572604482015290519081900360640190fd5b600080546040516001600160a01b03909116907f8be0079c531659141344cd1fd0a4f28419497f9722a3daafe3b4186f6b6457e0908390a36000805473ffffffffffffffffffffffffffffffffffffffff19169055565b600080836001600160a01b031663182df0f56040518163ffffffff1660e01b815260040160206040518083038186803b15801561064657600080fd5b505afa15801561065a573d6000803e3d6000fd5b505050506040513d602081101561067057600080fd5b5051604080517f313ce56700000000000000000000000000000000000000000000000000000000815290519192506008916001600160a01b0386169163313ce567916004808301926020929190829003018186803b1580156106d157600080fd5b505afa1580156106e5573d6000803e3d6000fd5b505050506040513d60208110156106fb57600080fd5b505160ff1611156107865761077f6008846001600160a01b031663313ce5676040518163ffffffff1660e01b815260040160206040518083038186803b15801561074457600080fd5b505afa158015610758573d6000803e3d6000fd5b505050506040513d602081101561076e57600080fd5b5051839160ff910316600a0a610dfa565b9050610801565b6107fe836001600160a01b031663313ce5676040518163ffffffff1660e01b815260040160206040518083038186803b1580156107c257600080fd5b505afa1580156107d6573d6000803e3d6000fd5b505050506040513d60208110156107ec57600080fd5b5051829060080360ff16600a0a610e61565b90505b90505b92915050565b6000546001600160a01b031690565b600061082783836000610e85565b905080610804576040805162461bcd60e51b815260206004820152600f60248201527f5072696365206e6f7420666f756e640000000000000000000000000000000000604482015290519081900360640190fd5b600260009054906101000a90046001600160a01b03166001600160a01b0316638da5cb5b6040518163ffffffff1660e01b815260040160206040518083038186803b1580156108c957600080fd5b505afa1580156108dd573d6000803e3d6000fd5b505050506040513d60208110156108f357600080fd5b50516001600160a01b031633148061098c5750600260009054906101000a90046001600160a01b03166001600160a01b0316638d97e0436040518163ffffffff1660e01b815260040160206040518083038186803b15801561095457600080fd5b505afa158015610968573d6000803e3d6000fd5b505050506040513d602081101561097e57600080fd5b50516001600160a01b031633145b6109dd576040805162461bcd60e51b815260206004820152601560248201527f4e6f7420656e6f7567682070726976696c656765730000000000000000000000604482015290519081900360640190fd5b6105dc8160020b12610a205760405162461bcd60e51b81526004018080602001828103825260278152602001806140106027913960400191505060405180910390fd5b6005805460029290920b62ffffff1662ffffff19909216919091179055565b60048181548110610a4f57600080fd5b6000918252602090912001546001600160a01b0316905081565b600260009054906101000a90046001600160a01b03166001600160a01b0316638da5cb5b6040518163ffffffff1660e01b815260040160206040518083038186803b158015610ab757600080fd5b505afa158015610acb573d6000803e3d6000fd5b505050506040513d6020811015610ae157600080fd5b50516001600160a01b0316331480610b7a5750600260009054906101000a90046001600160a01b03166001600160a01b0316638d97e0436040518163ffffffff1660e01b815260040160206040518083038186803b158015610b4257600080fd5b505afa158015610b56573d6000803e3d6000fd5b505050506040513d6020811015610b6c57600080fd5b50516001600160a01b031633145b610bcb576040805162461bcd60e51b815260206004820152601560248201527f4e6f7420656e6f7567682070726976696c656765730000000000000000000000604482015290519081900360640190fd5b610bd481611bde565b50565b610bdf610df6565b6001600160a01b0316610bf061080a565b6001600160a01b031614610c4b576040805162461bcd60e51b815260206004820181905260248201527f4f776e61626c653a2063616c6c6572206973206e6f7420746865206f776e6572604482015290519081900360640190fd5b6001600160a01b038116610c905760405162461bcd60e51b8152600401808060200182810382526026815260200180613fea6026913960400191505060405180910390fd5b600080546040516001600160a01b03808516939216917f8be0079c531659141344cd1fd0a4f28419497f9722a3daafe3b4186f6b6457e091a36000805473ffffffffffffffffffffffffffffffffffffffff19166001600160a01b0392909216919091179055565b6002546001600160a01b031681565b600061082783836001610e85565b60408051600480825260a0820190925260609160009190602082016080803683370190505090508581600081518110610d4a57fe5b60200260200101906001600160a01b031690816001600160a01b0316815250508481600181518110610d7857fe5b60200260200101906001600160a01b031690816001600160a01b0316815250508381600281518110610da657fe5b60200260200101906001600160a01b031690816001600160a01b0316815250508281600381518110610dd457fe5b6001600160a01b03909216602092830291909101909101529050949350505050565b3390565b6000808211610e50576040805162461bcd60e51b815260206004820152601a60248201527f536166654d6174683a206469766973696f6e206279207a65726f000000000000604482015290519081900360640190fd5b818381610e5957fe5b049392505050565b6000821580610e7c57505081810281838281610e7957fe5b04145b61080457600080fd5b6000826001600160a01b0316846001600160a01b03161415610eb05750670de0b6b3a7640000611bd7565b600154604080517f3149ea1a0000000000000000000000000000000000000000000000000000000081526001600160a01b0387811660048301528681166024830152915160009384938493849384939290921691633149ea1a91604480820192608092909190829003018186803b158015610f2a57600080fd5b505afa158015610f3e573d6000803e3d6000fd5b505050506040513d6080811015610f5457600080fd5b5080516020820151604083015160609093015191965094509092509050600160ff85161415610fa957610f87898361060a565b9450610f9d85610f97848b610819565b90611d08565b95505050505050611bd7565b8260ff1660011415610fd557610fbf888261060a565b9450610f9d85610fcf8b84610819565b90611d26565b8360ff1660021415610feb57610f9d8289610819565b8260ff166002141561100157610f9d8982610819565b8360ff166003141561101757610f87898361060a565b8260ff166003141561102d57610fbf888261060a565b8360ff16600414156111de576000896001600160a01b031663d4b839926040518163ffffffff1660e01b815260040160206040518083038186803b15801561107457600080fd5b505afa158015611088573d6000803e3d6000fd5b505050506040513d602081101561109e57600080fd5b50516040805163dbd06c8560e01b8152905191925073d69b189020ef614796578afe4d10378c5e7e11389163ac82f608916001600160a01b0385169163dbd06c8591600480820192602092909190829003018186803b15801561110057600080fd5b505afa158015611114573d6000803e3d6000fd5b505050506040513d602081101561112a57600080fd5b5051604080517fffffffff0000000000000000000000000000000000000000000000000000000060e085901b1681526004810192909252516024808301926020929190829003018186803b15801561118157600080fd5b505afa158015611195573d6000803e3d6000fd5b505050506040513d60208110156111ab57600080fd5b505195506111d186610f9773a0b86991c6218b36c1d19d4a2e9eb0ce3606eb488c610819565b9650505050505050611bd7565b8260ff1660041415611382576000886001600160a01b031663d4b839926040518163ffffffff1660e01b815260040160206040518083038186803b15801561122557600080fd5b505afa158015611239573d6000803e3d6000fd5b505050506040513d602081101561124f57600080fd5b50516040805163dbd06c8560e01b8152905191925073d69b189020ef614796578afe4d10378c5e7e11389163ac82f608916001600160a01b0385169163dbd06c8591600480820192602092909190829003018186803b1580156112b157600080fd5b505afa1580156112c5573d6000803e3d6000fd5b505050506040513d60208110156112db57600080fd5b5051604080517fffffffff0000000000000000000000000000000000000000000000000000000060e085901b1681526004810192909252516024808301926020929190829003018186803b15801561133257600080fd5b505afa158015611346573d6000803e3d6000fd5b505050506040513d602081101561135c57600080fd5b505195506111d186610fcf8c73a0b86991c6218b36c1d19d4a2e9eb0ce3606eb48610819565b60006f22d53366457f9d5e68ec105046fc43836001600160a01b031663a262904b6040518163ffffffff1660e01b815260040160206040518083038186803b1580156113cd57600080fd5b505afa1580156113e1573d6000803e3d6000fd5b505050506040513d60208110156113f757600080fd5b50519050600560ff861614156115d4576001600160a01b038a1673c4ad29ba4b3c580e6d59105fff484999997675ff14611566576000816001600160a01b031663bdf475c38c6040518263ffffffff1660e01b815260040180826001600160a01b0316815260200191505060206040518083038186803b15801561147a57600080fd5b505afa15801561148e573d6000803e3d6000fd5b505050506040513d60208110156114a457600080fd5b505190506001600160a01b038116156115605760006114c38284611d3e565b90506115516114d2828d610819565b846001600160a01b031663c5b7074a8f6040518263ffffffff1660e01b815260040180826001600160a01b0316815260200191505060206040518083038186803b15801561151f57600080fd5b505afa158015611533573d6000803e3d6000fd5b505050506040513d602081101561154957600080fd5b505190611d08565b98505050505050505050611bd7565b506115d4565b6111d1611587736b175474e89094c44da98b954eedeac495271d0f8b610819565b73e8b2989276e2ca8fdea2268e3551b2b4b24189506001600160a01b03166354f0f7d56040518163ffffffff1660e01b815260040160206040518083038186803b15801561151f57600080fd5b8360ff16600514156117c4576001600160a01b03891673c4ad29ba4b3c580e6d59105fff484999997675ff1461172a576000816001600160a01b031663bdf475c38b6040518263ffffffff1660e01b815260040180826001600160a01b0316815260200191505060206040518083038186803b15801561165357600080fd5b505afa158015611667573d6000803e3d6000fd5b505050506040513d602081101561167d57600080fd5b505190506001600160a01b0381161561172457600061169c8284611d3e565b9050611551836001600160a01b031663c5b7074a8d6040518263ffffffff1660e01b815260040180826001600160a01b0316815260200191505060206040518083038186803b1580156116ee57600080fd5b505afa158015611702573d6000803e3d6000fd5b505050506040513d602081101561171857600080fd5b5051610fcf8e84610819565b506117c4565b6111d173e8b2989276e2ca8fdea2268e3551b2b4b24189506001600160a01b03166354f0f7d56040518163ffffffff1660e01b815260040160206040518083038186803b15801561177a57600080fd5b505afa15801561178e573d6000803e3d6000fd5b505050506040513d60208110156117a457600080fd5b5051610fcf8c736b175474e89094c44da98b954eedeac495271d0f610819565b8460ff16600614156119115761187a6118418b6001600160a01b031663fc0c546a6040518163ffffffff1660e01b815260040160206040518083038186803b15801561180f57600080fd5b505afa158015611823573d6000803e3d6000fd5b505050506040513d602081101561183957600080fd5b50518b610819565b8b6001600160a01b03166399530b066040518163ffffffff1660e01b815260040160206040518083038186803b15801561151f57600080fd5b965060008a6001600160a01b031663313ce5676040518163ffffffff1660e01b815260040160206040518083038186803b1580156118b757600080fd5b505afa1580156118cb573d6000803e3d6000fd5b505050506040513d60208110156118e157600080fd5b505160ff169050601281101561190557611902886012839003600a0a610e61565b97505b50505050505050611bd7565b8360ff1660061415611aaf576000896001600160a01b031663fc0c546a6040518163ffffffff1660e01b815260040160206040518083038186803b15801561195857600080fd5b505afa15801561196c573d6000803e3d6000fd5b505050506040513d602081101561198257600080fd5b5051604080517f99530b060000000000000000000000000000000000000000000000000000000081529051919250611a1a916001600160a01b038d16916399530b06916004808301926020929190829003018186803b1580156119e457600080fd5b505afa1580156119f8573d6000803e3d6000fd5b505050506040513d6020811015611a0e57600080fd5b5051610fcf8d84610819565b975060008a6001600160a01b031663313ce5676040518163ffffffff1660e01b815260040160206040518083038186803b158015611a5757600080fd5b505afa158015611a6b573d6000803e3d6000fd5b505050506040513d6020811015611a8157600080fd5b505160ff1690506012811015611aa257611551896012839003600a0a610dfa565b5050505050505050611bd7565b611ab98a8a611ebe565b96508615611acc57505050505050611bd7565b611ad68a8a6121e7565b96508615611ae957505050505050611bd7565b60005b600454811015611bbc57600060048281548110611b0557fe5b6000918252602090912001546001600160a01b0390811691508c168114801590611b415750806001600160a01b03168b6001600160a01b031614155b15611bb3576000611b528d83611ebe565b90508015611b7e57611b6e611b67838e6121e7565b8290611d08565b9950505050505050505050611bd7565b6000611b8a838e611ebe565b90508015611bb057611b9f611b678f856121e7565b9a5050505050505050505050611bd7565b50505b50600101611aec565b508715611bd057611bcd8a8a6122cc565b96505b5050505050505b9392505050565b60005b600454811015611c3a5760006003600060048481548110611bfe57fe5b6000918252602080832091909101546001600160a01b031683528201929092526040019020805460ff1916911515919091179055600101611be1565b50611c4760046000613fb7565b60005b8151811015611d0457600160036000848481518110611c6557fe5b60200260200101516001600160a01b03166001600160a01b0316815260200190815260200160002060006101000a81548160ff0219169083151502179055506004828281518110611cb257fe5b602090810291909101810151825460018082018555600094855292909320909201805473ffffffffffffffffffffffffffffffffffffffff19166001600160a01b039093169290921790915501611c4a565b5050565b6000610801670de0b6b3a7640000611d208585610e61565b90610dfa565b600061080182611d2085670de0b6b3a7640000610e61565b600080826001600160a01b031663a77576ef856040518263ffffffff1660e01b815260040180826001600160a01b031681526020019150506101006040518083038186803b158015611d8f57600080fd5b505afa158015611da3573d6000803e3d6000fd5b505050506040513d601f19601f82011682018060405250610100811015611dc957600080fd5b5080519091506001600160a01b031615611e2e5780516001600160a01b031673eeeeeeeeeeeeeeeeeeeeeeeeeeeeeeeeeeeeeeee14611e10578060005b6020020151611e26565b73c02aaa39b223fe8d0a0e5c4f27ead9083c756cc25b915050610804565b60208101516001600160a01b031615611e715760208101516001600160a01b031673eeeeeeeeeeeeeeeeeeeeeeeeeeeeeeeeeeeeeeee14611e1057806001611e06565b60408101516001600160a01b031615611eb45760408101516001600160a01b031673eeeeeeeeeeeeeeeeeeeeeeeeeeeeeeeeeeeeeeee14611e1057806002611e06565b5060009392505050565b6000806f22d53366457f9d5e68ec105046fc43836001600160a01b031663a262904b6040518163ffffffff1660e01b815260040160206040518083038186803b158015611f0a57600080fd5b505afa158015611f1e573d6000803e3d6000fd5b505050506040513d6020811015611f3457600080fd5b5051604080517fa87df06c0000000000000000000000000000000000000000000000000000000081526001600160a01b038781166004830152868116602483015291519293506000929184169163a87df06c91604480820192602092909190829003018186803b158015611fa757600080fd5b505afa158015611fbb573d6000803e3d6000fd5b505050506040513d6020811015611fd157600080fd5b505190506001600160a01b03851673c02aaa39b223fe8d0a0e5c4f27ead9083c756cc214801561200857506001600160a01b038116155b156120c55773eeeeeeeeeeeeeeeeeeeeeeeeeeeeeeeeeeeeeeee9450816001600160a01b031663a87df06c73eeeeeeeeeeeeeeeeeeeeeeeeeeeeeeeeeeeeeeee866040518363ffffffff1660e01b815260040180836001600160a01b03168152602001826001600160a01b031681526020019250505060206040518083038186803b15801561209657600080fd5b505afa1580156120aa573d6000803e3d6000fd5b505050506040513d60208110156120c057600080fd5b505190505b6001600160a01b03841673c02aaa39b223fe8d0a0e5c4f27ead9083c756cc21480156120f857506001600160a01b038116155b156121b55773eeeeeeeeeeeeeeeeeeeeeeeeeeeeeeeeeeeeeeee9350816001600160a01b031663a87df06c8673eeeeeeeeeeeeeeeeeeeeeeeeeeeeeeeeeeeeeeee6040518363ffffffff1660e01b815260040180836001600160a01b03168152602001826001600160a01b031681526020019250505060206040518083038186803b15801561218657600080fd5b505afa15801561219a573d6000803e3d6000fd5b505050506040513d60208110156121b057600080fd5b505190505b6001600160a01b038116156121dc5760006121d1828787612554565b935061080492505050565b506000949350505050565b6001600160a01b038216600090815260036020526040812054670de0b6b3a76400009082908590859060ff1661222a57612222876001612b3f565b945084935091505b6001600160a01b03861660009081526003602052604090205460ff1661229857612255866000612b3f565b935090506001600160a01b0382811690821614612283576122806122798383612c14565b8590611d08565b93505b61228d8484611d08565b945050505050610804565b806001600160a01b0316826001600160a01b0316146122c1576122be6122798383612c14565b93505b509195945050505050565b6040805160028082526060820183526000928392919060208301908036833701905050905083816000815181106122ff57fe5b60200260200101906001600160a01b031690816001600160a01b031681525050828160018151811061232d57fe5b60200260200101906001600160a01b031690816001600160a01b031681525050737a250d5630b4cf539739df2c5dacb4c659f2488d6001600160a01b031663d06ca61f856001600160a01b031663313ce5676040518163ffffffff1660e01b815260040160206040518083038186803b1580156123a957600080fd5b505afa1580156123bd573d6000803e3d6000fd5b505050506040513d60208110156123d357600080fd5b5051604080517fffffffff0000000000000000000000000000000000000000000000000000000060e085901b16815260ff8316600482019081526024820192835286516044830152865187939192606401906020858101910280838360005b8381101561244a578181015183820152602001612432565b50505050905001935050505060006040518083038186803b15801561246e57600080fd5b505afa158015612482573d6000803e3d6000fd5b505050506040513d6000823e601f3d908101601f1916820160405260208110156124ab57600080fd5b81019080805160405193929190846401000000008211156124cb57600080fd5b9083019060208201858111156124e057600080fd5b82518660208202830111640100000000821117156124fd57600080fd5b82525081516020918201928201910280838360005b8381101561252a578181015183820152602001612512565b5050505090500160405250505060018151811061254357fe5b602002602001015191505092915050565b6000806f22d53366457f9d5e68ec105046fc43836001600160a01b031663a262904b6040518163ffffffff1660e01b815260040160206040518083038186803b1580156125a057600080fd5b505afa1580156125b4573d6000803e3d6000fd5b505050506040513d60208110156125ca57600080fd5b5051604080517feb85226d0000000000000000000000000000000000000000000000000000000081526001600160a01b038881166004830152878116602483015286811660448301529151929350600092839283929086169163eb85226d91606480820192606092909190829003018186803b15801561264957600080fd5b505afa15801561265d573d6000803e3d6000fd5b505050506040513d606081101561267357600080fd5b50805160208201516040909201519094509092509050600073d51a44d3fae010294c616388b506acda1bfaae466001600160a01b038a1614806126d257507380466c64868e1ab14a1ddf27a676c3fcbe638fe56001600160a01b038a16145b1561280357886001600160a01b031663556d6e9f85600f0b85600f0b73eeeeeeeeeeeeeeeeeeeeeeeeeeeeeeeeeeeeeeee6001600160a01b03168c6001600160a01b031614612785578b6001600160a01b031663313ce5676040518163ffffffff1660e01b815260040160206040518083038186803b15801561275457600080fd5b505afa158015612768573d6000803e3d6000fd5b505050506040513d602081101561277e57600080fd5b5051612788565b60125b60ff16600a0a6040518463ffffffff1660e01b815260040180848152602001838152602001828152602001935050505060206040518083038186803b1580156127d057600080fd5b505afa1580156127e4573d6000803e3d6000fd5b505050506040513d60208110156127fa57600080fd5b50519050612a2a565b811561290257886001600160a01b03166307211ef7858573eeeeeeeeeeeeeeeeeeeeeeeeeeeeeeeeeeeeeeee6001600160a01b03168c6001600160a01b0316146128b1578b6001600160a01b031663313ce5676040518163ffffffff1660e01b815260040160206040518083038186803b15801561288057600080fd5b505afa158015612894573d6000803e3d6000fd5b505050506040513d60208110156128aa57600080fd5b50516128b4565b60125b60ff16600a0a6040518463ffffffff1660e01b81526004018084600f0b815260200183600f0b8152602001828152602001935050505060206040518083038186803b1580156127d057600080fd5b886001600160a01b0316635e0d443f858573eeeeeeeeeeeeeeeeeeeeeeeeeeeeeeeeeeeeeeee6001600160a01b03168c6001600160a01b0316146129aa578b6001600160a01b031663313ce5676040518163ffffffff1660e01b815260040160206040518083038186803b15801561297957600080fd5b505afa15801561298d573d6000803e3d6000fd5b505050506040513d60208110156129a357600080fd5b50516129ad565b60125b60ff16600a0a6040518463ffffffff1660e01b81526004018084600f0b815260200183600f0b8152602001828152602001935050505060206040518083038186803b1580156129fb57600080fd5b505afa158015612a0f573d6000803e3d6000fd5b505050506040513d6020811015612a2557600080fd5b505190505b612ad66001600160a01b03881673eeeeeeeeeeeeeeeeeeeeeeeeeeeeeeeeeeeeeeee14612abb57876001600160a01b031663313ce5676040518163ffffffff1660e01b815260040160206040518083038186803b158015612a8a57600080fd5b505afa158015612a9e573d6000803e3d6000fd5b505050506040513d6020811015612ab457600080fd5b5051612abe565b60125b60120360ff16600a0a82610e6190919063ffffffff16565b90506000612aeb8266d529ae9e860000611d08565b9050612aff670de0b6b3a764000082612c78565b82108015612b1d5750612b1a670de0b6b3a764000082612c88565b82115b15612b2f57509450611bd79350505050565b5060009998505050505050505050565b60008060008060008060005b600454811015612bd957600080612b988b60048581548110612b6957fe5b6000918252602090912001546001600160a01b0316736b175474e89094c44da98b954eedeac495271d0f612c98565b9150915083811115612bcf5781945080935060048381548110612bb757fe5b6000918252602090912001546001600160a01b031695505b5050600101612b4b565b508015612c06578615612bf857612bf1828985612fab565b9350612c06565b612c0382848a612fab565b93505b509096919550909350505050565b6000816001600160a01b0316836001600160a01b03161415612c3f5750670de0b6b3a7640000610804565b6000612c4b8484613138565b90506001600160a01b038116612c65576000915050610804565b612c70818585612fab565b949350505050565b8082018281101561080457600080fd5b8082038281111561080457600080fd5b6000806000612ca78686613138565b90506001600160a01b038116612cc4576000809250925050612fa3565b6000816001600160a01b0316631a6865026040518163ffffffff1660e01b815260040160206040518083038186803b158015612cff57600080fd5b505afa158015612d13573d6000803e3d6000fd5b505050506040513d6020811015612d2957600080fd5b5051604080517f0dfe168100000000000000000000000000000000000000000000000000000000815290516001600160801b039092169250600091829182916001600160a01b03871691630dfe1681916004808301926020929190829003018186803b158015612d9857600080fd5b505afa158015612dac573d6000803e3d6000fd5b505050506040513d6020811015612dc257600080fd5b5051604080517fd21220a700000000000000000000000000000000000000000000000000000000815290519192506000916001600160a01b0388169163d21220a7916004808301926020929190829003018186803b158015612e2357600080fd5b505afa158015612e37573d6000803e3d6000fd5b505050506040513d6020811015612e4d57600080fd5b50516001600160a01b03831660009081526003602052604090205490915060ff1615612f0357612ef9816001600160a01b03166370a08231886040518263ffffffff1660e01b815260040180826001600160a01b0316815260200191505060206040518083038186803b158015612ec357600080fd5b505afa158015612ed7573d6000803e3d6000fd5b505050506040513d6020811015612eed57600080fd5b5051611d208780610e61565b9350819250612f59565b612f53826001600160a01b03166370a08231886040518263ffffffff1660e01b815260040180826001600160a01b0316815260200191505060206040518083038186803b158015612ec357600080fd5b93508092505b886001600160a01b0316836001600160a01b031614612f98576000612f7e848b610819565b9050612f94848b612f8f8885611d08565b613525565b9450505b509395509093505050505b935093915050565b6000816001600160a01b0316836001600160a01b03161415612fd65750670de0b6b3a7640000611bd7565b6000846001600160a01b0316633850c7bd6040518163ffffffff1660e01b815260040160e06040518083038186803b15801561301157600080fd5b505afa158015613025573d6000803e3d6000fd5b505050506040513d60e081101561303b57600080fd5b5060200151905061304c81866136e6565b61305a576000915050611bd7565b61312f6130d0856001600160a01b031663313ce5676040518163ffffffff1660e01b815260040160206040518083038186803b15801561309957600080fd5b505afa1580156130ad573d6000803e3d6000fd5b505050506040513d60208110156130c357600080fd5b505160129060ff16612c88565b600a0a611d2083613128613116886001600160a01b031663313ce5676040518163ffffffff1660e01b815260040160206040518083038186803b15801561309957600080fd5b670de0b6b3a764000090600a0a610e61565b88886137de565b95945050505050565b60408051630b4c774160e11b81526001600160a01b038481166004830152831660248201526101f4604482015290516000918291731f98431c8ad98523631ae4a59f267346ea31f98491631698ee82916064808301926020929190829003018186803b1580156131a757600080fd5b505afa1580156131bb573d6000803e3d6000fd5b505050506040513d60208110156131d157600080fd5b505160408051630b4c774160e11b81526001600160a01b03878116600483015286166024820152610bb860448201529051919250600091731f98431c8ad98523631ae4a59f267346ea31f98491631698ee82916064808301926020929190829003018186803b15801561324357600080fd5b505afa158015613257573d6000803e3d6000fd5b505050506040513d602081101561326d57600080fd5b505160408051630b4c774160e11b81526001600160a01b0388811660048301528716602482015261271060448201529051919250600091731f98431c8ad98523631ae4a59f267346ea31f98491631698ee82916064808301926020929190829003018186803b1580156132df57600080fd5b505afa1580156132f3573d6000803e3d6000fd5b505050506040513d602081101561330957600080fd5b5051905060006001600160a01b03841661332457600061338a565b836001600160a01b0316631a6865026040518163ffffffff1660e01b815260040160206040518083038186803b15801561335d57600080fd5b505afa158015613371573d6000803e3d6000fd5b505050506040513d602081101561338757600080fd5b50515b905060006001600160a01b0384166133a3576000613409565b836001600160a01b0316631a6865026040518163ffffffff1660e01b815260040160206040518083038186803b1580156133dc57600080fd5b505afa1580156133f0573d6000803e3d6000fd5b505050506040513d602081101561340657600080fd5b50515b905060006001600160a01b038416613422576000613488565b836001600160a01b0316631a6865026040518163ffffffff1660e01b815260040160206040518083038186803b15801561345b57600080fd5b505afa15801561346f573d6000803e3d6000fd5b505050506040513d602081101561348557600080fd5b50515b9050816001600160801b0316836001600160801b0316101580156134be5750806001600160801b0316836001600160801b031610155b156134d157859650505050505050610804565b826001600160801b0316826001600160801b0316101580156135055750806001600160801b0316826001600160801b031610155b1561351857849650505050505050610804565b5091979650505050505050565b600080613531856138d5565b61359f57846001600160a01b031663313ce5676040518163ffffffff1660e01b815260040160206040518083038186803b15801561356e57600080fd5b505afa158015613582573d6000803e3d6000fd5b505050506040513d602081101561359857600080fd5b50516135a2565b60125b60ff16905060006135b2856138d5565b61362057846001600160a01b031663313ce5676040518163ffffffff1660e01b815260040160206040518083038186803b1580156135ef57600080fd5b505afa158015613603573d6000803e3d6000fd5b505050506040513d602081101561361957600080fd5b5051613623565b60125b60ff1690506012821115801561363a575060128111155b61368b576040805162461bcd60e51b815260206004820152601460248201527f556e737570706f7274656420646563696d616c73000000000000000000000000604482015290519081900360640190fd5b8082141561369d578392505050611bd7565b818111156136c5576136bc6136b28284612c88565b8590600a0a610e61565b92505050611bd7565b6136dc6136d28383612c88565b8590600a0a610dfa565b9695505050505050565b600080826001600160a01b031663d0c93a7c6040518163ffffffff1660e01b815260040160206040518083038186803b15801561372257600080fd5b505afa158015613736573d6000803e3d6000fd5b505050506040513d602081101561374c57600080fd5b50519050620d85ff198101600290810b9085900b1215613770576000915050610804565b806103e8620d89e719600003030360020b8460020b1315613795576000915050610804565b60006137a084613911565b905060008160060b8660020b136137bc578560020b82036137c3565b818660020b035b600554600290810b900b60069190910b129695505050505050565b6000806137ea86613bba565b90506001600160801b036001600160a01b03821611613859576001600160a01b038082168002908481169086161061383957613834600160c01b876001600160801b031683613f08565b613851565b61385181876001600160801b0316600160c01b613f08565b9250506138cc565b60006138786001600160a01b0383168068010000000000000000613f08565b9050836001600160a01b0316856001600160a01b0316106138b0576138ab600160801b876001600160801b031683613f08565b6138c8565b6138c881876001600160801b0316600160801b613f08565b9250505b50949350505050565b600073eeeeeeeeeeeeeeeeeeeeeeeeeeeeeeeeeeeeeeee6001600160a01b038316148061390957506001600160a01b038216155b90505b919050565b60408051600280825260608201835260009283929190602083019080368337019050509050601e8160008151811061394557fe5b602002602001019063ffffffff16908163ffffffff168152505060008160018151811061396e57fe5b63ffffffff9092166020928302919091018201526040517f883bdbfd000000000000000000000000000000000000000000000000000000008152600481018281528351602483015283516001600160a01b0387169363883bdbfd938693928392604490920191858101910280838360005b838110156139f75781810151838201526020016139df565b505050509050019250505060006040518083038186803b158015613a1a57600080fd5b505afa925050508015613b6457506040513d6000823e601f3d908101601f191682016040908152811015613a4d57600080fd5b8101908080516040519392919084640100000000821115613a6d57600080fd5b908301906020820185811115613a8257600080fd5b8251866020820283011164010000000082111715613a9f57600080fd5b82525081516020918201928201910280838360005b83811015613acc578181015183820152602001613ab4565b5050505090500160405260200180516040519392919084640100000000821115613af557600080fd5b908301906020820185811115613b0a57600080fd5b8251866020820283011164010000000082111715613b2757600080fd5b82525081516020918201928201910280838360005b83811015613b54578181015183820152602001613b3c565b5050505090500160405250505060015b613b7257600091505061390c565b601e63ffffffff1682600081518110613b8757fe5b602002602001015183600181518110613b9c57fe5b60200260200101510360060b81613baf57fe5b05935050505061390c565b60008060008360020b12613bd1578260020b613bd9565b8260020b6000035b9050620d89e8811115613c33576040805162461bcd60e51b815260206004820152600160248201527f5400000000000000000000000000000000000000000000000000000000000000604482015290519081900360640190fd5b600060018216613c4757600160801b613c59565b6ffffcb933bd6fad37aa2d162d1a5940015b70ffffffffffffffffffffffffffffffffff1690506002821615613c8d576ffff97272373d413259a46990580e213a0260801c5b6004821615613cac576ffff2e50f5f656932ef12357cf3c7fdcc0260801c5b6008821615613ccb576fffe5caca7e10e4e61c3624eaa0941cd00260801c5b6010821615613cea576fffcb9843d60f6159c9db58835c9266440260801c5b6020821615613d09576fff973b41fa98c081472e6896dfb254c00260801c5b6040821615613d28576fff2ea16466c96a3843ec78b326b528610260801c5b6080821615613d47576ffe5dee046a99a2a811c461f1969c30530260801c5b610100821615613d67576ffcbe86c7900a88aedcffc83b479aa3a40260801c5b610200821615613d87576ff987a7253ac413176f2b074cf7815e540260801c5b610400821615613da7576ff3392b0822b70005940c7a398e4b70f30260801c5b610800821615613dc7576fe7159475a2c29b7443b29c7fa6e889d90260801c5b611000821615613de7576fd097f3bdfd2022b8845ad8f792aa58250260801c5b612000821615613e07576fa9f746462d870fdf8a65dc1f90e061e50260801c5b614000821615613e27576f70d869a156d2a1b890bb3df62baf32f70260801c5b618000821615613e47576f31be135f97d08fd981231505542fcfa60260801c5b62010000821615613e68576f09aa508b5b7a84e1c677de54f3e99bc90260801c5b62020000821615613e88576e5d6af8dedb81196699c329225ee6040260801c5b62040000821615613ea7576d2216e584f5fa1ea926041bedfe980260801c5b62080000821615613ec4576b048a170391f7dc42444e8fa20260801c5b60008460020b1315613edf578060001981613edb57fe5b0490505b640100000000810615613ef3576001613ef6565b60005b60ff16602082901c0192505050919050565b6000808060001985870986860292508281109083900303905080613f3e5760008411613f3357600080fd5b508290049050611bd7565b808411613f4a57600080fd5b6000848688096000868103871696879004966002600389028118808a02820302808a02820302808a02820302808a02820302808a02820302808a02909103029181900381900460010186841190950394909402919094039290920491909117919091029150509392505050565b5080546000825590600052602060002090810190610bd491905b80821115613fe55760008155600101613fd1565b509056fe4f776e61626c653a206e6577206f776e657220697320746865207a65726f20616464726573734d6178207477617020646576696174696f6e206d7573742062652077697468696e2072616e6765a264697066735822122014da1aede07c1f92a824147a6a456c6d688c00b7d9743954937193f0e42d7bc664736f6c63430007060033",
  "devdoc": {
    "author": "Babylon Finance Protocol Uses Uniswap V3 to get a price of a token pair",
    "kind": "dev",
    "methods": {
      "getPrice(address,address)": {
        "params": {
          "_tokenIn": "Address of the first token",
          "_tokenOut": "Address of the second token"
        },
        "returns": {
          "price": "               Price of the pair"
        }
      },
      "getPriceNAV(address,address)": {
        "params": {
          "_tokenIn": "Address of the first token",
          "_tokenOut": "Address of the second token"
        },
        "returns": {
          "price": "               Price of the pair"
        }
      },
      "owner()": {
        "details": "Returns the address of the current owner."
      },
      "renounceOwnership()": {
        "details": "Leaves the contract without owner. It will not be possible to call `onlyOwner` functions anymore. Can only be called by the current owner. NOTE: Renouncing ownership will leave the contract without an owner, thereby removing any functionality that is only available to the owner."
      },
      "transferOwnership(address)": {
        "details": "Transfers ownership of the contract to a new account (`newOwner`). Can only be called by the current owner."
      }
    },
    "title": "PriceOracle",
    "version": 1
  },
  "userdoc": {
    "kind": "user",
    "methods": {
      "getPrice(address,address)": {
        "notice": "Returns the amount out corresponding to the amount in for a given token"
      },
      "getPriceNAV(address,address)": {
        "notice": "Returns the amount out corresponding to the amount in for a given token"
      }
    },
    "version": 1
  },
  "storageLayout": {
    "storage": [
      {
        "astId": 1456,
        "contract": "contracts/PriceOracle.sol:PriceOracle",
        "label": "_owner",
        "offset": 0,
        "slot": "0",
        "type": "t_address"
      },
      {
        "astId": 14847,
        "contract": "contracts/PriceOracle.sol:PriceOracle",
        "label": "tokenIdentifier",
        "offset": 0,
        "slot": "1",
        "type": "t_contract(ITokenIdentifier)37937"
      },
      {
        "astId": 14849,
        "contract": "contracts/PriceOracle.sol:PriceOracle",
        "label": "controller",
        "offset": 0,
        "slot": "2",
        "type": "t_contract(IBabController)36102"
      },
      {
        "astId": 14853,
        "contract": "contracts/PriceOracle.sol:PriceOracle",
        "label": "hopTokens",
        "offset": 0,
        "slot": "3",
        "type": "t_mapping(t_address,t_bool)"
      },
      {
        "astId": 14856,
        "contract": "contracts/PriceOracle.sol:PriceOracle",
        "label": "hopTokensList",
        "offset": 0,
        "slot": "4",
        "type": "t_array(t_address)dyn_storage"
      },
      {
        "astId": 14858,
        "contract": "contracts/PriceOracle.sol:PriceOracle",
        "label": "maxTwapDeviation",
        "offset": 0,
        "slot": "5",
        "type": "t_int24"
      }
    ],
    "types": {
      "t_address": {
        "encoding": "inplace",
        "label": "address",
        "numberOfBytes": "20"
      },
      "t_array(t_address)dyn_storage": {
        "base": "t_address",
        "encoding": "dynamic_array",
        "label": "address[]",
        "numberOfBytes": "32"
      },
      "t_bool": {
        "encoding": "inplace",
        "label": "bool",
        "numberOfBytes": "1"
      },
      "t_contract(IBabController)36102": {
        "encoding": "inplace",
        "label": "contract IBabController",
        "numberOfBytes": "20"
      },
      "t_contract(ITokenIdentifier)37937": {
        "encoding": "inplace",
        "label": "contract ITokenIdentifier",
        "numberOfBytes": "20"
      },
      "t_int24": {
        "encoding": "inplace",
        "label": "int24",
        "numberOfBytes": "3"
      },
      "t_mapping(t_address,t_bool)": {
        "encoding": "mapping",
        "key": "t_address",
        "label": "mapping(address => bool)",
        "numberOfBytes": "32",
        "value": "t_bool"
      }
    }
  }
}