{
  "address": "0xED063363482Ec52f09Fd9C2a96B5dC46312bdD5d",
  "abi": [
    {
      "inputs": [
        {
          "internalType": "contract IBabController",
          "name": "_controller",
          "type": "address"
        },
        {
          "internalType": "address",
          "name": "_uniswapAnchoredView",
          "type": "address"
        },
        {
          "internalType": "address[]",
          "name": "_adapters",
          "type": "address[]"
        }
      ],
      "stateMutability": "nonpayable",
      "type": "constructor"
    },
    {
      "anonymous": false,
      "inputs": [
        {
          "indexed": false,
          "internalType": "address",
          "name": "_adapter",
          "type": "address"
        }
      ],
      "name": "AdapterAdded",
      "type": "event"
    },
    {
      "anonymous": false,
      "inputs": [
        {
          "indexed": false,
          "internalType": "address",
          "name": "_adapter",
          "type": "address"
        }
      ],
      "name": "AdapterRemoved",
      "type": "event"
    },
    {
      "anonymous": false,
      "inputs": [
        {
          "indexed": true,
          "internalType": "address",
          "name": "previousOwner",
          "type": "address"
        },
        {
          "indexed": true,
          "internalType": "address",
          "name": "newOwner",
          "type": "address"
        }
      ],
      "name": "OwnershipTransferred",
      "type": "event"
    },
    {
      "inputs": [],
      "name": "WETH",
      "outputs": [
        {
          "internalType": "address",
          "name": "",
          "type": "address"
        }
      ],
      "stateMutability": "view",
      "type": "function"
    },
    {
      "inputs": [
        {
          "internalType": "uint256",
          "name": "",
          "type": "uint256"
        }
      ],
      "name": "adapters",
      "outputs": [
        {
          "internalType": "address",
          "name": "",
          "type": "address"
        }
      ],
      "stateMutability": "view",
      "type": "function"
    },
    {
      "inputs": [
        {
          "internalType": "address",
          "name": "_adapter",
          "type": "address"
        }
      ],
      "name": "addAdapter",
      "outputs": [],
      "stateMutability": "nonpayable",
      "type": "function"
    },
    {
      "inputs": [],
      "name": "controller",
      "outputs": [
        {
          "internalType": "contract IBabController",
          "name": "",
          "type": "address"
        }
      ],
      "stateMutability": "view",
      "type": "function"
    },
    {
      "inputs": [],
      "name": "getAdapters",
      "outputs": [
        {
          "internalType": "address[]",
          "name": "",
          "type": "address[]"
        }
      ],
      "stateMutability": "view",
      "type": "function"
    },
    {
      "inputs": [
        {
          "internalType": "address",
          "name": "_assetOne",
          "type": "address"
        },
        {
          "internalType": "address",
          "name": "_assetTwo",
          "type": "address"
        }
      ],
      "name": "getPrice",
      "outputs": [
        {
          "internalType": "uint256",
          "name": "",
          "type": "uint256"
        }
      ],
      "stateMutability": "view",
      "type": "function"
    },
    {
      "inputs": [],
      "name": "owner",
      "outputs": [
        {
          "internalType": "address",
          "name": "",
          "type": "address"
        }
      ],
      "stateMutability": "view",
      "type": "function"
    },
    {
      "inputs": [
        {
          "internalType": "address",
          "name": "_adapter",
          "type": "address"
        }
      ],
      "name": "removeAdapter",
      "outputs": [],
      "stateMutability": "nonpayable",
      "type": "function"
    },
    {
      "inputs": [],
      "name": "renounceOwnership",
      "outputs": [],
      "stateMutability": "nonpayable",
      "type": "function"
    },
    {
      "inputs": [
        {
          "internalType": "address",
          "name": "newOwner",
          "type": "address"
        }
      ],
      "name": "transferOwnership",
      "outputs": [],
      "stateMutability": "nonpayable",
      "type": "function"
    },
    {
      "inputs": [],
      "name": "uniswapAnchoredView",
      "outputs": [
        {
          "internalType": "address",
          "name": "",
          "type": "address"
        }
      ],
      "stateMutability": "view",
      "type": "function"
    },
    {
      "inputs": [
        {
          "internalType": "address",
          "name": "_assetOne",
          "type": "address"
        },
        {
          "internalType": "address",
          "name": "_assetTwo",
          "type": "address"
        }
      ],
      "name": "updateAdapters",
      "outputs": [],
      "stateMutability": "nonpayable",
      "type": "function"
    }
  ],
  "transactionHash": "0xcc7a0466ec9b6d7b103e664ab6cc3557580de10e66c813308420294338e80bab",
  "args": [
    "0xffe7c30daDb1B132b86aB7bbede496615d54c8Ac",
    "0x922018674c12a7f0d394ebeef9b58f186cde13c1",
    [
      "0x4d622957e49c1E7F5CdF0aaE5Bb02297ef884C87"
    ]
  ],
  "solcInputHash": "a02a2075cf667a20c416d2d0a5e8f337",
  "bytecode": "0x60a06040523480156200001157600080fd5b506040516200189d3803806200189d833981810160405260608110156200003757600080fd5b815160208301516040808501805191519395929483019291846401000000008211156200006357600080fd5b9083019060208201858111156200007957600080fd5b82518660208202830111640100000000821117156200009757600080fd5b82525081516020918201928201910280838360005b83811015620000c6578181015183820152602001620000ac565b505050509050016040525050506000620000e56200017b60201b60201c565b600080546001600160a01b0319166001600160a01b0383169081178255604051929350917f8be0079c531659141344cd1fd0a4f28419497f9722a3daafe3b4186f6b6457e0908290a350600180546001600160a01b0319166001600160a01b038516179055606082901b6001600160601b0319166080528051620001719060029060208401906200017f565b5050505062000200565b3390565b828054828255906000526020600020908101928215620001d7579160200282015b82811115620001d757825182546001600160a01b0319166001600160a01b03909116178255602090920191600190910190620001a0565b50620001e5929150620001e9565b5090565b5b80821115620001e55760008155600101620001ea565b60805160601c61167562000228600039806102765280610fd152806110c652506116756000f3fe608060405234801561001057600080fd5b50600436106100d45760003560e01c80638da5cb5b11610081578063b82e16e31161005b578063b82e16e3146101ee578063f2fde38b14610246578063f77c47911461026c576100d4565b80638da5cb5b1461019e578063ac41865a146101a6578063ad5c4648146101e6576100d4565b80635e684bb3116100b25780635e684bb31461014257806360d54d4114610170578063715018a614610196576100d4565b80630af45704146100d95780634ef501ac146100fd578063585cd34b1461011a575b600080fd5b6100e1610274565b604080516001600160a01b039092168252519081900360200190f35b6100e16004803603602081101561011357600080fd5b5035610298565b6101406004803603602081101561013057600080fd5b50356001600160a01b03166102c2565b005b6101406004803603604081101561015857600080fd5b506001600160a01b03813581169160200135166103f7565b6101406004803603602081101561018657600080fd5b50356001600160a01b03166104ac565b610140610670565b6100e161073b565b6101d4600480360360408110156101bc57600080fd5b506001600160a01b038135811691602001351661074a565b60408051918252519081900360200190f35b6100e16108fa565b6101f6610912565b60408051602080825283518183015283519192839290830191858101910280838360005b8381101561023257818101518382015260200161021a565b505050509050019250505060405180910390f35b6101406004803603602081101561025c57600080fd5b50356001600160a01b0316610974565b6100e1610a95565b7f000000000000000000000000000000000000000000000000000000000000000081565b600281815481106102a857600080fd5b6000918252602090912001546001600160a01b0316905081565b6102ca610aa4565b6001600160a01b03166102db61073b565b6001600160a01b031614610336576040805162461bcd60e51b815260206004820181905260248201527f4f776e61626c653a2063616c6c6572206973206e6f7420746865206f776e6572604482015290519081900360640190fd5b6103a381600280548060200260200160405190810160405280929190818152602001828054801561039057602002820191906000526020600020905b81546001600160a01b03168152600190910190602001808311610372575b5050505050610aa890919063ffffffff16565b80516103b791600291602090910190611571565b50604080516001600160a01b038316815290517fdf980d21d8c7bb34800e668dbe003299093bac8e693614151d3c57f73f98a93d9181900360200190a150565b60005b6002548110156104a7576002818154811061041157fe5b6000918252602082200154604080517fc640752d0000000000000000000000000000000000000000000000000000000081526001600160a01b03878116600483015286811660248301529151919092169263c640752d926044808201939182900301818387803b15801561048457600080fd5b505af1158015610498573d6000803e3d6000fd5b505050506001810190506103fa565b505050565b6104b4610aa4565b6001600160a01b03166104c561073b565b6001600160a01b031614610520576040805162461bcd60e51b815260206004820181905260248201527f4f776e61626c653a2063616c6c6572206973206e6f7420746865206f776e6572604482015290519081900360640190fd5b61058d81600280548060200260200160405190810160405280929190818152602001828054801561057a57602002820191906000526020600020905b81546001600160a01b0316815260019091019060200180831161055c575b5050505050610b2590919063ffffffff16565b156105df576040805162461bcd60e51b815260206004820152601660248201527f4164617074657220616c72656164792065786973747300000000000000000000604482015290519081900360640190fd5b600280546001810182556000919091527f405787fa12a823e0f2b7631cc41b3ba8828b3321ca811111fa75cd3aa3bb5ace0180546001600160a01b03831673ffffffffffffffffffffffffffffffffffffffff19909116811790915560408051918252517fcf9c2c7f9adbb156bd76affb04df84595f8f5e69cab2e61221b05b05a902fa269181900360200190a150565b610678610aa4565b6001600160a01b031661068961073b565b6001600160a01b0316146106e4576040805162461bcd60e51b815260206004820181905260248201527f4f776e61626c653a2063616c6c6572206973206e6f7420746865206f776e6572604482015290519081900360640190fd5b600080546040516001600160a01b03909116907f8be0079c531659141344cd1fd0a4f28419497f9722a3daafe3b4186f6b6457e0908390a36000805473ffffffffffffffffffffffffffffffffffffffff19169055565b6000546001600160a01b031690565b600154604080517f13bc6d4b00000000000000000000000000000000000000000000000000000000815233600482015290516000926001600160a01b0316916313bc6d4b916024808301926020929190829003018186803b1580156107ae57600080fd5b505afa1580156107c2573d6000803e3d6000fd5b505050506040513d60208110156107d857600080fd5b5051806107fd57506107e861073b565b6001600160a01b0316336001600160a01b0316145b61084e576040805162461bcd60e51b815260206004820152601e60248201527f43616c6c6572206d7573742062652073797374656d20636f6e74726163740000604482015290519081900360640190fd5b816001600160a01b0316836001600160a01b031614156108775750670de0b6b3a76400006108f4565b6000806108848585610b3b565b90925090508161089e5761089885856111d1565b90925090505b816108f0576040805162461bcd60e51b815260206004820152600f60248201527f5072696365206e6f7420666f756e640000000000000000000000000000000000604482015290519081900360640190fd5b9150505b92915050565b73c02aaa39b223fe8d0a0e5c4f27ead9083c756cc281565b6060600280548060200260200160405190810160405280929190818152602001828054801561096a57602002820191906000526020600020905b81546001600160a01b0316815260019091019060200180831161094c575b5050505050905090565b61097c610aa4565b6001600160a01b031661098d61073b565b6001600160a01b0316146109e8576040805162461bcd60e51b815260206004820181905260248201527f4f776e61626c653a2063616c6c6572206973206e6f7420746865206f776e6572604482015290519081900360640190fd5b6001600160a01b038116610a2d5760405162461bcd60e51b81526004018080602001828103825260268152602001806115f96026913960400191505060405180910390fd5b600080546040516001600160a01b03808516939216917f8be0079c531659141344cd1fd0a4f28419497f9722a3daafe3b4186f6b6457e091a36000805473ffffffffffffffffffffffffffffffffffffffff19166001600160a01b0392909216919091179055565b6001546001600160a01b031681565b3390565b6060600080610ab785856112c5565b9150915080610b0d576040805162461bcd60e51b815260206004820152601560248201527f41646472657373206e6f7420696e2061727261792e0000000000000000000000604482015290519081900360640190fd5b6000610b198684611328565b5093506108f492505050565b600080610b3284846112c5565b95945050505050565b600080836001600160a01b03811673c02aaa39b223fe8d0a0e5c4f27ead9083c756cc21415610b675750825b736b175474e89094c44da98b954eedeac495271d0f6001600160a01b0382161480610bae5750731985365e9f78359a9b6ad760e32412f4a445e8626001600160a01b038216145b80610bd5575073e41d2489571d322189246dafa5ebde1f4699f4986001600160a01b038216145b80610bfc5750730d8775f648430679a709e98d2b0cb6250d2887ef6001600160a01b038216145b80610c23575073dd974d5c2e2928dea5f71b9825b8b646686bd2006001600160a01b038216145b80610c4a575073514910771af9ca656af840dff83e8264ecf986ca6001600160a01b038216145b80610c71575073c00e94cb662c3520282e6f5717214004a7f268886001600160a01b038216145b80610c98575073a0b86991c6218b36c1d19d4a2e9eb0ce3606eb486001600160a01b038216145b80610cbf5750731f9840a85d5af5bf1d1762f925bdaddc4201f9846001600160a01b038216145b156111c15760006001600160a01b03861673c02aaa39b223fe8d0a0e5c4f27ead9083c756cc214610e1557856001600160a01b03166395d89b416040518163ffffffff1660e01b815260040160006040518083038186803b158015610d2357600080fd5b505afa158015610d37573d6000803e3d6000fd5b505050506040513d6000823e601f3d908101601f191682016040526020811015610d6057600080fd5b8101908080516040519392919084640100000000821115610d8057600080fd5b908301906020820185811115610d9557600080fd5b8251640100000000811182820188101715610daf57600080fd5b82525081516020918201929091019080838360005b83811015610ddc578181015183820152602001610dc4565b50505050905090810190601f168015610e095780820380516001836020036101000a031916815260200191505b50604052505050610e32565b6040518060400160405280600381526020016208aa8960eb1b8152505b905060006001600160a01b03861673c02aaa39b223fe8d0a0e5c4f27ead9083c756cc214610f8557856001600160a01b03166395d89b416040518163ffffffff1660e01b815260040160006040518083038186803b158015610e9357600080fd5b505afa158015610ea7573d6000803e3d6000fd5b505050506040513d6000823e601f3d908101601f191682016040526020811015610ed057600080fd5b8101908080516040519392919084640100000000821115610ef057600080fd5b908301906020820185811115610f0557600080fd5b8251640100000000811182820188101715610f1f57600080fd5b82525081516020918201929091019080838360005b83811015610f4c578181015183820152602001610f34565b50505050905090810190601f168015610f795780820380516001836020036101000a031916815260200191505b50604052505050610fa2565b6040518060400160405280600381526020016208aa8960eb1b8152505b604051631fc58c3360e31b81526020600482018181528551602484015285519394506000936001600160a01b037f0000000000000000000000000000000000000000000000000000000000000000169363fe2c6198938893928392604401918501908083838b5b83811015611021578181015183820152602001611009565b50505050905090810190601f16801561104e5780820380516001836020036101000a031916815260200191505b509250505060206040518083038186803b15801561106b57600080fd5b505afa15801561107f573d6000803e3d6000fd5b505050506040513d602081101561109557600080fd5b5051604051631fc58c3360e31b81526020600482018181528551602484015285519394506000936001600160a01b037f0000000000000000000000000000000000000000000000000000000000000000169363fe2c6198938893928392604401918501908083838b5b838110156111165781810151838201526020016110fe565b50505050905090810190601f1680156111435780820380516001836020036101000a031916815260200191505b509250505060206040518083038186803b15801561116057600080fd5b505afa158015611174573d6000803e3d6000fd5b505050506040513d602081101561118a57600080fd5b50519050811580159061119d5750600081115b156111bc5760016111ae838361148c565b9650965050505050506111ca565b505050505b60008092509250505b9250929050565b60008060005b6002548110156112b857600080600283815481106111f157fe5b600091825260209091200154604080517fac41865a0000000000000000000000000000000000000000000000000000000081526001600160a01b038a811660048301528981166024830152825193169263ac41865a92604480840193919291829003018186803b15801561126457600080fd5b505afa158015611278573d6000803e3d6000fd5b505050506040513d604081101561128e57600080fd5b508051602090910151909250905081156112ae5790935091506111ca9050565b50506001016111d7565b5060009485945092505050565b81516000908190815b8181101561131857846001600160a01b03168682815181106112ec57fe5b60200260200101516001600160a01b03161415611310579250600191506111ca9050565b6001016112ce565b5060001995600095509350505050565b8151606090600090808410611384576040805162461bcd60e51b815260206004820152601860248201527f496e646578206d757374206265203c2041206c656e6774680000000000000000604482015290519081900360640190fd5b60006001820367ffffffffffffffff811180156113a057600080fd5b506040519080825280602002602001820160405280156113ca578160200160208202803683370190505b50905060005b85811015611418578681815181106113e457fe5b60200260200101518282815181106113f857fe5b6001600160a01b03909216602092830291909101909101526001016113d0565b50600185015b828110156114695786818151811061143257fe5b602002602001015182600183038151811061144957fe5b6001600160a01b039092166020928302919091019091015260010161141e565b508086868151811061147757fe5b60200260200101519350935050509250929050565b60006114aa826114a485670de0b6b3a76400006114b1565b9061150a565b9392505050565b6000826114c0575060006108f4565b828202828482816114cd57fe5b04146114aa5760405162461bcd60e51b815260040180806020018281038252602181526020018061161f6021913960400191505060405180910390fd5b6000808211611560576040805162461bcd60e51b815260206004820152601a60248201527f536166654d6174683a206469766973696f6e206279207a65726f000000000000604482015290519081900360640190fd5b81838161156957fe5b049392505050565b8280548282559060005260206000209081019282156115d3579160200282015b828111156115d3578251825473ffffffffffffffffffffffffffffffffffffffff19166001600160a01b03909116178255602090920191600190910190611591565b506115df9291506115e3565b5090565b5b808211156115df57600081556001016115e456fe4f776e61626c653a206e6577206f776e657220697320746865207a65726f2061646472657373536166654d6174683a206d756c7469706c69636174696f6e206f766572666c6f77a264697066735822122061dcc9cdecfd62d113cc4f74494e052878ee5f495801e7f17e4330128970ced664736f6c63430007060033",
  "devdoc": {
    "author": "Babylon Finance Contract that returns the price for any given asset pair. Price is retrieved either directly from an oracle, calculated using common asset pairs, or uses external data to calculate price. Note: Prices are returned in preciseUnits (i.e. 18 decimals of precision)",
    "kind": "dev",
    "methods": {
      "addAdapter(address)": {
        "params": {
          "_adapter": "Address of new adapter"
        }
      },
      "constructor": {
        "params": {
          "_adapters": "List of adapters used to price assets created by other protocols",
          "_controller": "Address of controller contract",
          "_uniswapAnchoredView": "Address of the uniswap anchored view that compound maintains"
        }
      },
      "getPrice(address,address)": {
        "params": {
          "_assetOne": "Address of first asset in pair",
          "_assetTwo": "Address of second asset in pair"
        },
        "returns": {
          "_0": "Price of asset pair to 18 decimals of precision"
        }
      },
      "owner()": {
        "details": "Returns the address of the current owner."
      },
      "removeAdapter(address)": {
        "params": {
          "_adapter": "Address of  adapter to remove"
        }
      },
      "renounceOwnership()": {
        "details": "Leaves the contract without owner. It will not be possible to call `onlyOwner` functions anymore. Can only be called by the current owner. NOTE: Renouncing ownership will leave the contract without an owner, thereby removing any functionality that is only available to the owner."
      },
      "transferOwnership(address)": {
        "details": "Transfers ownership of the contract to a new account (`newOwner`). Can only be called by the current owner."
      },
      "updateAdapters(address,address)": {
        "params": {
          "_assetOne": "First Asset of the pair",
          "_assetTwo": "Second Asset of the pair"
        }
      }
    },
    "title": "PriceOracle",
    "version": 1
  },
  "userdoc": {
    "kind": "user",
    "methods": {
      "addAdapter(address)": {
        "notice": "GOVERNANCE FUNCTION: Add new oracle adapter."
      },
      "constructor": {
        "notice": "Set state variables and map asset pairs to their oracles"
      },
      "getAdapters()": {
        "notice": "Returns an array of adapters"
      },
      "getPrice(address,address)": {
        "notice": "SYSTEM-ONLY PRIVELEGE: Find price of passed asset pair, if possible. The steps it takes are:  1) Check to see if a direct or inverse oracle of the pair exists,  2) If not, use masterQuoteAsset to link pairs together (i.e. BTC/ETH and ETH/USDC     could be used to calculate BTC/USDC).  3) If not, check oracle adapters in case one or more of the assets needs external protocol data     to price.  4) If all steps fail, revert."
      },
      "removeAdapter(address)": {
        "notice": "GOVERNANCE FUNCTION: Remove oracle adapter."
      },
      "updateAdapters(address,address)": {
        "notice": "Calls the update function in every adapter. e.g Uniswap TWAP"
      }
    },
    "version": 1
  },
  "storageLayout": {
    "storage": [
      {
        "astId": 3848,
        "contract": "contracts/PriceOracle.sol:PriceOracle",
        "label": "_owner",
        "offset": 0,
        "slot": "0",
        "type": "t_address"
      },
      {
        "astId": 13208,
        "contract": "contracts/PriceOracle.sol:PriceOracle",
        "label": "controller",
        "offset": 0,
        "slot": "1",
        "type": "t_contract(IBabController)23675"
      },
      {
        "astId": 13216,
        "contract": "contracts/PriceOracle.sol:PriceOracle",
        "label": "adapters",
        "offset": 0,
        "slot": "2",
        "type": "t_array(t_address)dyn_storage"
      }
    ],
    "types": {
      "t_address": {
        "encoding": "inplace",
        "label": "address",
        "numberOfBytes": "20"
      },
      "t_array(t_address)dyn_storage": {
        "base": "t_address",
        "encoding": "dynamic_array",
        "label": "address[]",
        "numberOfBytes": "32"
      },
      "t_contract(IBabController)23675": {
        "encoding": "inplace",
        "label": "contract IBabController",
        "numberOfBytes": "20"
      }
    }
  }
}