{
  "address": "0x2c1270a714F650F68f80e83850d85d003082B456",
  "abi": [
    {
      "inputs": [],
      "stateMutability": "nonpayable",
      "type": "constructor"
    },
    {
      "anonymous": false,
      "inputs": [
        {
          "indexed": false,
          "internalType": "address",
          "name": "_user",
          "type": "address"
        },
        {
          "indexed": false,
          "internalType": "uint256",
          "name": "_timestamp",
          "type": "uint256"
        },
        {
          "indexed": false,
          "internalType": "uint256",
          "name": "_daiAmount",
          "type": "uint256"
        }
      ],
      "name": "AmountClaimed",
      "type": "event"
    },
    {
      "inputs": [],
      "name": "claimOpen",
      "outputs": [
        {
          "internalType": "bool",
          "name": "",
          "type": "bool"
        }
      ],
      "stateMutability": "view",
      "type": "function"
    },
    {
      "inputs": [],
      "name": "claimReimbursement",
      "outputs": [],
      "stateMutability": "nonpayable",
      "type": "function"
    },
    {
      "inputs": [
        {
          "internalType": "address",
          "name": "",
          "type": "address"
        }
      ],
      "name": "claimed",
      "outputs": [
        {
          "internalType": "bool",
          "name": "",
          "type": "bool"
        }
      ],
      "stateMutability": "view",
      "type": "function"
    },
    {
      "inputs": [
        {
          "internalType": "address",
          "name": "",
          "type": "address"
        }
      ],
      "name": "daiReimbursementAmount",
      "outputs": [
        {
          "internalType": "uint256",
          "name": "",
          "type": "uint256"
        }
      ],
      "stateMutability": "view",
      "type": "function"
    },
    {
      "inputs": [],
      "name": "retrieveRemaining",
      "outputs": [],
      "stateMutability": "nonpayable",
      "type": "function"
    },
    {
      "inputs": [
        {
          "internalType": "address[]",
          "name": "_users",
          "type": "address[]"
        },
        {
          "internalType": "uint256[]",
          "name": "_daiAmounts",
          "type": "uint256[]"
        }
      ],
      "name": "setUserReimbursement",
      "outputs": [],
      "stateMutability": "nonpayable",
      "type": "function"
    },
    {
      "inputs": [],
      "name": "startRefund",
      "outputs": [],
      "stateMutability": "nonpayable",
      "type": "function"
    },
    {
      "inputs": [],
      "name": "totalDai",
      "outputs": [
        {
          "internalType": "uint256",
          "name": "",
          "type": "uint256"
        }
      ],
      "stateMutability": "view",
      "type": "function"
    }
  ],
  "transactionHash": "0x60e00c2fd3888d4be8d2b908842ebcd049efc9bf0e73aa1183790a347b4e19d6",
  "args": [],
  "numDeployments": 1,
  "solcInputHash": "de2b035e4d25094f711461e8da5771a2",
  "bytecode": "0x608060405234801561001057600080fd5b50610b7e806100206000396000f3fe608060405234801561001057600080fd5b50600436106100885760003560e01c80637e8a8c591161005b5780637e8a8c59146100d2578063adf4a144146100e5578063b0ea32ca146100ed578063c884ef831461010057610088565b80630a0d0c3f1461008d578063162d0572146100ab5780632bc2bef2146100b55780634b8bcb58146100bd575b600080fd5b610095610113565b6040516100a29190610aef565b60405180910390f35b6100b3610119565b005b6100b36101da565b6100c56102d5565b6040516100a29190610a76565b6100956100e0366004610999565b6102de565b6100b36102f0565b6100b36100fb3660046109c0565b6103ca565b6100c561010e366004610999565b61055c565b60025481565b60035461012a9060ff16608a610571565b336000908152602081815260408083205460019092529091205461015f9060ff161580156101585750600082115b600c610571565b336000818152600160208190526040909120805460ff1916909117905561019c90736b175474e89094c44da98b954eedeac495271d0f9083610583565b7ff37556715ac0f91440c889b7bf72405cad9d231bd57bfcdd698a24b3c2f75b563342836040516101cf93929190610a55565b60405180910390a150565b337397fcc2ae862d03143b393e9fa73a32b563d57a6e146102165760405162461bcd60e51b815260040161020d90610ab8565b60405180910390fd5b6040516370a0823160e01b81526102d3907397fcc2ae862d03143b393e9fa73a32b563d57a6e90736b175474e89094c44da98b954eedeac495271d0f906370a0823190610267903090600401610a41565b60206040518083038186803b15801561027f57600080fd5b505afa158015610293573d6000803e3d6000fd5b505050506040513d601f19601f820116820180604052508101906102b79190610a29565b736b175474e89094c44da98b954eedeac495271d0f9190610583565b565b60035460ff1681565b60006020819052908152604090205481565b337397fcc2ae862d03143b393e9fa73a32b563d57a6e146103235760405162461bcd60e51b815260040161020d90610ab8565b6002546040516370a0823160e01b81526103bb9190736b175474e89094c44da98b954eedeac495271d0f906370a0823190610362903090600401610a41565b60206040518083038186803b15801561037a57600080fd5b505afa15801561038e573d6000803e3d6000fd5b505050506040513d601f19601f820116820180604052508101906103b29190610a29565b1015608f610571565b6003805460ff19166001179055565b337397fcc2ae862d03143b393e9fa73a32b563d57a6e148061040d575060035460ff1615801561040d57507308839d766b1381014868eb0c3aa1c64db2b0232633145b6104295760405162461bcd60e51b815260040161020d90610ab8565b60005b83811015610555576001600086868481811061044457fe5b90506020020160208101906104599190610999565b6001600160a01b0316815260208101919091526040016000205460ff16156104935760405162461bcd60e51b815260040161020d90610a81565b6104f98383838181106104a257fe5b905060200201356104f36000808989878181106104bb57fe5b90506020020160208101906104d09190610999565b6001600160a01b0316815260208101919091526040016000205460025490610608565b9061061e565b60025582828281811061050857fe5b9050602002013560008087878581811061051e57fe5b90506020020160208101906105339190610999565b6001600160a01b0316815260208101919091526040016000205560010161042c565b5050505050565b60016020526000908152604090205460ff1681565b8161057f5761057f8161062e565b5050565b604080516001600160a01b038416602482015260448082018490528251808303909101815260649091019091526020810180517bffffffffffffffffffffffffffffffffffffffffffffffffffffffff167fa9059cbb00000000000000000000000000000000000000000000000000000000179052610603908490610681565b505050565b8082038281111561061857600080fd5b92915050565b8082018281101561061857600080fd5b62461bcd60e51b6000908152602060045260076024526642414223000030600a808404818106603090810160081b95839006959095019082900491820690940160101b939093010160c81b604452606490fd5b60006106d6826040518060400160405280602081526020017f5361666545524332303a206c6f772d6c6576656c2063616c6c206661696c6564815250856001600160a01b03166107329092919063ffffffff16565b805190915015610603578080602001905160208110156106f557600080fd5b50516106035760405162461bcd60e51b815260040180806020018281038252602a815260200180610b1f602a913960400191505060405180910390fd5b6060610741848460008561074b565b90505b9392505050565b60608247101561078c5760405162461bcd60e51b8152600401808060200182810382526026815260200180610af96026913960400191505060405180910390fd5b610795856108a6565b6107e6576040805162461bcd60e51b815260206004820152601d60248201527f416464726573733a2063616c6c20746f206e6f6e2d636f6e7472616374000000604482015290519081900360640190fd5b600080866001600160a01b031685876040518082805190602001908083835b602083106108245780518252601f199092019160209182019101610805565b6001836020036101000a03801982511681845116808217855250505050505090500191505060006040518083038185875af1925050503d8060008114610886576040519150601f19603f3d011682016040523d82523d6000602084013e61088b565b606091505b509150915061089b8282866108ac565b979650505050505050565b3b151590565b606083156108bb575081610744565b8251156108cb5782518084602001fd5b8160405162461bcd60e51b81526004018080602001828103825283818151815260200191508051906020019080838360005b838110156109155781810151838201526020016108fd565b50505050905090810190601f1680156109425780820380516001836020036101000a031916815260200191505b509250505060405180910390fd5b60008083601f840112610961578182fd5b50813567ffffffffffffffff811115610978578182fd5b602083019150836020808302850101111561099257600080fd5b9250929050565b6000602082840312156109aa578081fd5b81356001600160a01b0381168114610744578182fd5b600080600080604085870312156109d5578283fd5b843567ffffffffffffffff808211156109ec578485fd5b6109f888838901610950565b90965094506020870135915080821115610a10578384fd5b50610a1d87828801610950565b95989497509550505050565b600060208284031215610a3a578081fd5b5051919050565b6001600160a01b0391909116815260200190565b6001600160a01b039390931683526020830191909152604082015260600190565b901515815260200190565b6020808252600f908201527f416c726561647920636c61696d65640000000000000000000000000000000000604082015260600190565b60208082526014908201527f4f6e6c7920656d657267656e6379206f776e6572000000000000000000000000604082015260600190565b9081526020019056fe416464726573733a20696e73756666696369656e742062616c616e636520666f722063616c6c5361666545524332303a204552433230206f7065726174696f6e20646964206e6f742073756363656564a2646970667358221220e839fe351c35a45cfdc953d95da4ac759034d79d5421259439da98e514b0742b64736f6c63430007060033",
  "devdoc": {
    "author": "Babylon Finance Contract that refunds Rari users for the hack",
    "kind": "dev",
    "methods": {
      "setUserReimbursement(address[],uint256[])": {
        "params": {
          "_daiAmounts": "Amounts of DAI to reimburse",
          "_users": "Addresses of the user to reimburse"
        }
      }
    },
    "title": "RariRefund",
    "version": 1
  },
  "userdoc": {
    "kind": "user",
    "methods": {
      "claimReimbursement()": {
        "notice": "Claims rari refund. Can only be done once per adddress"
      },
      "retrieveRemaining()": {
        "notice": "Recover all proceeds in case of emergency"
      },
      "setUserReimbursement(address[],uint256[])": {
        "notice": "Sets the liquidation amount to split amongst all the whitelisted users."
      },
      "startRefund()": {
        "notice": "Starts reimbursement process"
      }
    },
    "version": 1
  },
  "storageLayout": {
    "storage": [
      {
        "astId": 19666,
        "contract": "contracts/RariRefund.sol:RariRefund",
        "label": "daiReimbursementAmount",
        "offset": 0,
        "slot": "0",
        "type": "t_mapping(t_address,t_uint256)"
      },
      {
        "astId": 19670,
        "contract": "contracts/RariRefund.sol:RariRefund",
        "label": "claimed",
        "offset": 0,
        "slot": "1",
        "type": "t_mapping(t_address,t_bool)"
      },
      {
        "astId": 19672,
        "contract": "contracts/RariRefund.sol:RariRefund",
        "label": "totalDai",
        "offset": 0,
        "slot": "2",
        "type": "t_uint256"
      },
      {
        "astId": 19674,
        "contract": "contracts/RariRefund.sol:RariRefund",
        "label": "claimOpen",
        "offset": 0,
        "slot": "3",
        "type": "t_bool"
      }
    ],
    "types": {
      "t_address": {
        "encoding": "inplace",
        "label": "address",
        "numberOfBytes": "20"
      },
      "t_bool": {
        "encoding": "inplace",
        "label": "bool",
        "numberOfBytes": "1"
      },
      "t_mapping(t_address,t_bool)": {
        "encoding": "mapping",
        "key": "t_address",
        "label": "mapping(address => bool)",
        "numberOfBytes": "32",
        "value": "t_bool"
      },
      "t_mapping(t_address,t_uint256)": {
        "encoding": "mapping",
        "key": "t_address",
        "label": "mapping(address => uint256)",
        "numberOfBytes": "32",
        "value": "t_uint256"
      },
      "t_uint256": {
        "encoding": "inplace",
        "label": "uint256",
        "numberOfBytes": "32"
      }
    }
  }
}