{
  "address": "0xe6cb25d130aDf7BC3Ffd9cf7EAfffFb33aB36f06",
  "abi": [
    {
      "inputs": [
        {
          "internalType": "contract TimeLockedToken",
          "name": "_bablToken",
          "type": "address"
        },
        {
          "internalType": "contract IBabController",
          "name": "_controller",
          "type": "address"
        }
      ],
      "stateMutability": "nonpayable",
      "type": "constructor"
    },
    {
      "anonymous": false,
      "inputs": [
        {
          "indexed": true,
          "internalType": "address",
          "name": "previousOwner",
          "type": "address"
        },
        {
          "indexed": true,
          "internalType": "address",
          "name": "newOwner",
          "type": "address"
        }
      ],
      "name": "OwnershipTransferred",
      "type": "event"
    },
    {
      "inputs": [],
      "name": "BABL_LP_SHARE",
      "outputs": [
        {
          "internalType": "uint256",
          "name": "",
          "type": "uint256"
        }
      ],
      "stateMutability": "view",
      "type": "function"
    },
    {
      "inputs": [],
      "name": "BABL_STEWARD_SHARE",
      "outputs": [
        {
          "internalType": "uint256",
          "name": "",
          "type": "uint256"
        }
      ],
      "stateMutability": "view",
      "type": "function"
    },
    {
      "inputs": [],
      "name": "BABL_STRATEGIST_SHARE",
      "outputs": [
        {
          "internalType": "uint256",
          "name": "",
          "type": "uint256"
        }
      ],
      "stateMutability": "view",
      "type": "function"
    },
    {
      "inputs": [],
      "name": "CREATOR_BONUS",
      "outputs": [
        {
          "internalType": "uint256",
          "name": "",
          "type": "uint256"
        }
      ],
      "stateMutability": "view",
      "type": "function"
    },
    {
      "inputs": [],
      "name": "DECAY_RATE",
      "outputs": [
        {
          "internalType": "uint256",
          "name": "",
          "type": "uint256"
        }
      ],
      "stateMutability": "view",
      "type": "function"
    },
    {
      "inputs": [],
      "name": "EPOCH_DURATION",
      "outputs": [
        {
          "internalType": "uint256",
          "name": "",
          "type": "uint256"
        }
      ],
      "stateMutability": "view",
      "type": "function"
    },
    {
      "inputs": [],
      "name": "PROFIT_LP_SHARE",
      "outputs": [
        {
          "internalType": "uint256",
          "name": "",
          "type": "uint256"
        }
      ],
      "stateMutability": "view",
      "type": "function"
    },
    {
      "inputs": [],
      "name": "PROFIT_PROTOCOL_FEE",
      "outputs": [
        {
          "internalType": "uint256",
          "name": "",
          "type": "uint256"
        }
      ],
      "stateMutability": "view",
      "type": "function"
    },
    {
      "inputs": [],
      "name": "PROFIT_STEWARD_SHARE",
      "outputs": [
        {
          "internalType": "uint256",
          "name": "",
          "type": "uint256"
        }
      ],
      "stateMutability": "view",
      "type": "function"
    },
    {
      "inputs": [],
      "name": "PROFIT_STRATEGIST_SHARE",
      "outputs": [
        {
          "internalType": "uint256",
          "name": "",
          "type": "uint256"
        }
      ],
      "stateMutability": "view",
      "type": "function"
    },
    {
      "inputs": [],
      "name": "Q1_REWARDS",
      "outputs": [
        {
          "internalType": "uint256",
          "name": "",
          "type": "uint256"
        }
      ],
      "stateMutability": "view",
      "type": "function"
    },
    {
      "inputs": [],
      "name": "START_TIME",
      "outputs": [
        {
          "internalType": "uint256",
          "name": "",
          "type": "uint256"
        }
      ],
      "stateMutability": "view",
      "type": "function"
    },
    {
      "inputs": [
        {
          "internalType": "uint256",
          "name": "_capital",
          "type": "uint256"
        }
      ],
      "name": "addProtocolPrincipal",
      "outputs": [],
      "stateMutability": "nonpayable",
      "type": "function"
    },
    {
      "inputs": [],
      "name": "babltoken",
      "outputs": [
        {
          "internalType": "contract TimeLockedToken",
          "name": "",
          "type": "address"
        }
      ],
      "stateMutability": "view",
      "type": "function"
    },
    {
      "inputs": [
        {
          "internalType": "uint256",
          "name": "_time",
          "type": "uint256"
        }
      ],
      "name": "checkProtocol",
      "outputs": [
        {
          "internalType": "uint256",
          "name": "principal",
          "type": "uint256"
        },
        {
          "internalType": "uint256",
          "name": "time",
          "type": "uint256"
        },
        {
          "internalType": "uint256",
          "name": "quarterBelonging",
          "type": "uint256"
        },
        {
          "internalType": "uint256",
          "name": "timeListPointer",
          "type": "uint256"
        },
        {
          "internalType": "uint256",
          "name": "power",
          "type": "uint256"
        }
      ],
      "stateMutability": "view",
      "type": "function"
    },
    {
      "inputs": [
        {
          "internalType": "uint256",
          "name": "_num",
          "type": "uint256"
        }
      ],
      "name": "checkQuarter",
      "outputs": [
        {
          "internalType": "uint256",
          "name": "quarterPrincipal",
          "type": "uint256"
        },
        {
          "internalType": "uint256",
          "name": "quarterNumber",
          "type": "uint256"
        },
        {
          "internalType": "uint256",
          "name": "quarterPower",
          "type": "uint256"
        },
        {
          "internalType": "uint96",
          "name": "supplyPerQuarter",
          "type": "uint96"
        }
      ],
      "stateMutability": "view",
      "type": "function"
    },
    {
      "inputs": [
        {
          "internalType": "address",
          "name": "",
          "type": "address"
        },
        {
          "internalType": "address",
          "name": "",
          "type": "address"
        }
      ],
      "name": "contributorPerGarden",
      "outputs": [
        {
          "internalType": "uint256",
          "name": "lastDepositAt",
          "type": "uint256"
        },
        {
          "internalType": "uint256",
          "name": "initialDepositAt",
          "type": "uint256"
        },
        {
          "internalType": "uint256",
          "name": "pid",
          "type": "uint256"
        }
      ],
      "stateMutability": "view",
      "type": "function"
    },
    {
      "inputs": [],
      "name": "controller",
      "outputs": [
        {
          "internalType": "contract IBabController",
          "name": "",
          "type": "address"
        }
      ],
      "stateMutability": "view",
      "type": "function"
    },
    {
      "inputs": [
        {
          "internalType": "address",
          "name": "",
          "type": "address"
        }
      ],
      "name": "gardenPid",
      "outputs": [
        {
          "internalType": "uint256",
          "name": "",
          "type": "uint256"
        }
      ],
      "stateMutability": "view",
      "type": "function"
    },
    {
      "inputs": [
        {
          "internalType": "address",
          "name": "",
          "type": "address"
        },
        {
          "internalType": "uint256",
          "name": "",
          "type": "uint256"
        }
      ],
      "name": "gardenPowerByTimestamp",
      "outputs": [
        {
          "internalType": "uint256",
          "name": "supply",
          "type": "uint256"
        },
        {
          "internalType": "uint256",
          "name": "timestamp",
          "type": "uint256"
        },
        {
          "internalType": "uint256",
          "name": "power",
          "type": "uint256"
        }
      ],
      "stateMutability": "view",
      "type": "function"
    },
    {
      "inputs": [
        {
          "internalType": "address",
          "name": "",
          "type": "address"
        },
        {
          "internalType": "uint256",
          "name": "",
          "type": "uint256"
        }
      ],
      "name": "gardenTimelist",
      "outputs": [
        {
          "internalType": "uint256",
          "name": "",
          "type": "uint256"
        }
      ],
      "stateMutability": "view",
      "type": "function"
    },
    {
      "inputs": [
        {
          "internalType": "address",
          "name": "_garden",
          "type": "address"
        },
        {
          "internalType": "address",
          "name": "_contributor",
          "type": "address"
        },
        {
          "internalType": "uint256",
          "name": "_from",
          "type": "uint256"
        },
        {
          "internalType": "uint256",
          "name": "_to",
          "type": "uint256"
        }
      ],
      "name": "getContributorPower",
      "outputs": [
        {
          "internalType": "uint256",
          "name": "",
          "type": "uint256"
        }
      ],
      "stateMutability": "view",
      "type": "function"
    },
    {
      "inputs": [
        {
          "internalType": "address",
          "name": "_garden",
          "type": "address"
        },
        {
          "internalType": "address",
          "name": "_contributor",
          "type": "address"
        },
        {
          "internalType": "address[]",
          "name": "_finalizedStrategies",
          "type": "address[]"
        }
      ],
      "name": "getRewards",
      "outputs": [
        {
          "internalType": "uint256",
          "name": "",
          "type": "uint256"
        },
        {
          "internalType": "uint96",
          "name": "",
          "type": "uint96"
        }
      ],
      "stateMutability": "view",
      "type": "function"
    },
    {
      "inputs": [
        {
          "internalType": "address",
          "name": "_strategy",
          "type": "address"
        }
      ],
      "name": "getStrategyRewards",
      "outputs": [
        {
          "internalType": "uint96",
          "name": "",
          "type": "uint96"
        }
      ],
      "stateMutability": "view",
      "type": "function"
    },
    {
      "inputs": [
        {
          "internalType": "uint256",
          "name": "",
          "type": "uint256"
        }
      ],
      "name": "isProtocolPerQuarter",
      "outputs": [
        {
          "internalType": "bool",
          "name": "",
          "type": "bool"
        }
      ],
      "stateMutability": "view",
      "type": "function"
    },
    {
      "inputs": [],
      "name": "owner",
      "outputs": [
        {
          "internalType": "address",
          "name": "",
          "type": "address"
        }
      ],
      "stateMutability": "view",
      "type": "function"
    },
    {
      "inputs": [],
      "name": "pid",
      "outputs": [
        {
          "internalType": "uint256",
          "name": "",
          "type": "uint256"
        }
      ],
      "stateMutability": "view",
      "type": "function"
    },
    {
      "inputs": [
        {
          "internalType": "uint256",
          "name": "",
          "type": "uint256"
        }
      ],
      "name": "protocolPerQuarter",
      "outputs": [
        {
          "internalType": "uint256",
          "name": "quarterPrincipal",
          "type": "uint256"
        },
        {
          "internalType": "uint256",
          "name": "quarterNumber",
          "type": "uint256"
        },
        {
          "internalType": "uint256",
          "name": "quarterPower",
          "type": "uint256"
        },
        {
          "internalType": "uint96",
          "name": "supplyPerQuarter",
          "type": "uint96"
        }
      ],
      "stateMutability": "view",
      "type": "function"
    },
    {
      "inputs": [
        {
          "internalType": "uint256",
          "name": "",
          "type": "uint256"
        }
      ],
      "name": "protocolPerTimestamp",
      "outputs": [
        {
          "internalType": "uint256",
          "name": "principal",
          "type": "uint256"
        },
        {
          "internalType": "uint256",
          "name": "time",
          "type": "uint256"
        },
        {
          "internalType": "uint256",
          "name": "quarterBelonging",
          "type": "uint256"
        },
        {
          "internalType": "uint256",
          "name": "timeListPointer",
          "type": "uint256"
        },
        {
          "internalType": "uint256",
          "name": "power",
          "type": "uint256"
        }
      ],
      "stateMutability": "view",
      "type": "function"
    },
    {
      "inputs": [],
      "name": "protocolPrincipal",
      "outputs": [
        {
          "internalType": "uint256",
          "name": "",
          "type": "uint256"
        }
      ],
      "stateMutability": "view",
      "type": "function"
    },
    {
      "inputs": [],
      "name": "renounceOwnership",
      "outputs": [],
      "stateMutability": "nonpayable",
      "type": "function"
    },
    {
      "inputs": [
        {
          "internalType": "address",
          "name": "",
          "type": "address"
        },
        {
          "internalType": "uint256",
          "name": "",
          "type": "uint256"
        }
      ],
      "name": "rewardsPowerOverhead",
      "outputs": [
        {
          "internalType": "uint256",
          "name": "",
          "type": "uint256"
        }
      ],
      "stateMutability": "view",
      "type": "function"
    },
    {
      "inputs": [
        {
          "internalType": "address",
          "name": "_to",
          "type": "address"
        },
        {
          "internalType": "uint96",
          "name": "_amount",
          "type": "uint96"
        }
      ],
      "name": "sendTokensToContributor",
      "outputs": [],
      "stateMutability": "nonpayable",
      "type": "function"
    },
    {
      "inputs": [
        {
          "internalType": "address",
          "name": "_garden",
          "type": "address"
        },
        {
          "internalType": "address",
          "name": "_contributor",
          "type": "address"
        },
        {
          "internalType": "uint256",
          "name": "_previousBalance",
          "type": "uint256"
        },
        {
          "internalType": "bool",
          "name": "_depositOrWithdraw",
          "type": "bool"
        },
        {
          "internalType": "uint256",
          "name": "_pid",
          "type": "uint256"
        }
      ],
      "name": "setContributorTimestampParams",
      "outputs": [],
      "stateMutability": "nonpayable",
      "type": "function"
    },
    {
      "inputs": [],
      "name": "startBABLRewards",
      "outputs": [],
      "stateMutability": "nonpayable",
      "type": "function"
    },
    {
      "inputs": [
        {
          "internalType": "uint256",
          "name": "_capital",
          "type": "uint256"
        }
      ],
      "name": "substractProtocolPrincipal",
      "outputs": [],
      "stateMutability": "nonpayable",
      "type": "function"
    },
    {
      "inputs": [
        {
          "internalType": "uint256",
          "name": "",
          "type": "uint256"
        }
      ],
      "name": "timeList",
      "outputs": [
        {
          "internalType": "uint256",
          "name": "",
          "type": "uint256"
        }
      ],
      "stateMutability": "view",
      "type": "function"
    },
    {
      "inputs": [
        {
          "internalType": "uint256",
          "name": "_quarter",
          "type": "uint256"
        }
      ],
      "name": "tokenSupplyPerQuarter",
      "outputs": [
        {
          "internalType": "uint96",
          "name": "",
          "type": "uint96"
        }
      ],
      "stateMutability": "pure",
      "type": "function"
    },
    {
      "inputs": [
        {
          "internalType": "address",
          "name": "newOwner",
          "type": "address"
        }
      ],
      "name": "transferOwnership",
      "outputs": [],
      "stateMutability": "nonpayable",
      "type": "function"
    },
    {
      "inputs": [
        {
          "internalType": "address",
          "name": "_garden",
          "type": "address"
        },
        {
          "internalType": "uint256",
          "name": "_pid",
          "type": "uint256"
        }
      ],
      "name": "updateGardenPower",
      "outputs": [],
      "stateMutability": "nonpayable",
      "type": "function"
    }
  ],
  "transactionHash": "0x9d1bef3152278e1899203e102ac099d2b08330a5545dd2fd9a181b82e7b3b114",
  "args": [
    "0x927761829796FdE7fb3581Ee4FdDe35f371a1926",
    "0xD4a5b5fcB561dAF3aDF86F8477555B92FBa43b5F"
  ],
  "solcInputHash": "bd873b418320faeabd457a4fe7c7c19d",
  "bytecode": "0x6101806040523480156200001257600080fd5b5060405162005eb138038062005eb1833981810160405260408110156200003857600080fd5b50805160209091015160006200004d62000310565b600080546001600160a01b0319166001600160a01b0383169081178255604051929350917f8be0079c531659141344cd1fd0a4f28419497f9722a3daafe3b4186f6b6457e0908290a3506001600160a01b038216620000f3576040805162461bcd60e51b815260206004820152601460248201527f546f6b656e206e6565647320746f206578697374000000000000000000000000604482015290519081900360640190fd5b6001600160a01b0381166200014f576040805162461bcd60e51b815260206004820152601960248201527f436f6e74726f6c6c6572206e6565647320746f20657869737400000000000000604482015290519081900360640190fd5b600380546001600160a01b038085166001600160a01b031992831617909255600280548484169216919091179081905560408051633c50b0ef60e21b81529051919092169163f142c3bc916004808301926080929190829003018186803b158015620001ba57600080fd5b505afa158015620001cf573d6000803e3d6000fd5b505050506040513d6080811015620001e657600080fd5b50805160208201516040808401516060948501516101605260c05260a0919091526080919091526002548151632e0519cf60e01b815291516001600160a01b0390911692632e0519cf9260048082019391829003018186803b1580156200024c57600080fd5b505afa15801562000261573d6000803e3d6000fd5b505050506040513d60608110156200027857600080fd5b508051602080830151604093840151610120526101005260e091909152600254825163568c081360e01b815292516001600160a01b039091169263568c0813926004808301939192829003018186803b158015620002d557600080fd5b505afa158015620002ea573d6000803e3d6000fd5b505050506040513d60208110156200030157600080fd5b50516101405250620003149050565b3390565b60805160a05160c05160e05161010051610120516101405161016051615b176200039a600039806118a45280612914525080610fec5280612701525080610c565250806108225280614e355280614eed52508061101f5280614949525080611c9c5280612801525080610f555280614b7552508061186e528061473e5250615b176000f3fe608060405234801561001057600080fd5b50600436106102c85760003560e01c8063908589441161017b578063df14e06f116100d8578063f5750d0f1161008c578063f77c479111610071578063f77c4791146107b5578063fa51a34b146107bd578063fd9ff86c146107c5576102c8565b8063f5750d0f1461076c578063f6c8d7b514610789576102c8565b8063f1068454116100bd578063f106845414610712578063f1ed38611461071a578063f2fde38b14610746576102c8565b8063df14e06f146106de578063e5cab4fa1461070a576102c8565b8063d60913ce1161012f578063db4b3af511610114578063db4b3af5146106a8578063dc178712146106ce578063ddaa26ad146106d6576102c8565b8063d60913ce14610654578063da17a6ca146106a0576102c8565b8063a675004711610160578063a675004714610612578063a70b9f0c1461062f578063cf14938714610637576102c8565b806390858944146105e45780639de9a052146105ec576102c8565b80636bf15bbd1161022957806378769678116101dd57806379fc904f116101c257806379fc904f146105cc5780638cb8c855146105d45780638da5cb5b146105dc576102c8565b8063787696781461059357806379102629146105c4576102c8565b8063715018a61161020e578063715018a61461051657806373a9fd9f1461051e5780637602bdde14610557576102c8565b80636bf15bbd146104d95780636e570b591461050e576102c8565b80632db4b3a711610280578063551bf81611610265578063551bf8161461040357806356773b791461040b57806369795e931461042f576102c8565b80632db4b3a7146103a25780633c0deba4146103e6576102c8565b80630fa454cf116102b15780630fa454cf1461032f5780631de40e491461034e5780632544dc1814610356576102c8565b806308c6850f146102cd5780630bb6d20814610315575b600080fd5b6102ea600480360360208110156102e357600080fd5b50356107f1565b6040805195865260208601949094528484019290925260608401526080830152519081900360a00190f35b61031d610820565b60408051918252519081900360200190f35b61034c6004803603602081101561034557600080fd5b5035610844565b005b61031d610a49565b6103736004803603602081101561036c57600080fd5b5035610a55565b604080519485526020850193909352838301919091526001600160601b03166060830152519081900360800190f35b61034c600480360360a08110156103b857600080fd5b506001600160a01b038135811691602081013590911690604081013590606081013515159060800135610a86565b610373600480360360208110156103fc57600080fd5b5035610c24565b61031d610c54565b610413610c78565b604080516001600160a01b039092168252519081900360200190f35b6104b86004803603606081101561044557600080fd5b6001600160a01b03823581169260208101359091169181019060608101604082013564010000000081111561047957600080fd5b82018360208201111561048b57600080fd5b803590602001918460208302840111640100000000831117156104ad57600080fd5b509092509050610c87565b604080519283526001600160601b0390911660208301528051918290030190f35b61034c600480360360408110156104ef57600080fd5b5080356001600160a01b031690602001356001600160601b0316610d9d565b61031d610e39565b61034c610e47565b61053b6004803603602081101561053457600080fd5b5035610f12565b604080516001600160601b039092168252519081900360200190f35b61031d6004803603608081101561056d57600080fd5b506001600160a01b03813581169160208101359091169060408101359060600135610f25565b6105b0600480360360208110156105a957600080fd5b5035610f3e565b604080519115158252519081900360200190f35b61031d610f53565b61034c610f77565b61031d610fea565b61041361100e565b61031d61101d565b61053b6004803603602081101561060257600080fd5b50356001600160a01b0316611041565b61031d6004803603602081101561062857600080fd5b50356117e9565b61031d61180a565b6102ea6004803603602081101561064d57600080fd5b5035611811565b6106826004803603604081101561066a57600080fd5b506001600160a01b0381358116916020013516611840565b60408051938452602084019290925282820152519081900360600190f35b61031d61186c565b61031d600480360360208110156106be57600080fd5b50356001600160a01b0316611890565b61031d6118a2565b61031d6118c6565b61034c600480360360408110156106f457600080fd5b506001600160a01b0381351690602001356118cc565b61031d6119fe565b61031d611a04565b61031d6004803603604081101561073057600080fd5b506001600160a01b038135169060200135611a0a565b61034c6004803603602081101561075c57600080fd5b50356001600160a01b0316611a3b565b61034c6004803603602081101561078257600080fd5b5035611b5c565b61031d6004803603604081101561079f57600080fd5b506001600160a01b038135169060200135611c6e565b610413611c8b565b61031d611c9a565b610682600480360360408110156107db57600080fd5b506001600160a01b038135169060200135611cbe565b600560205260009081526040902080546001820154600283015460038401546004909401549293919290919085565b7f000000000000000000000000000000000000000000000000000000000000000081565b60025460408051630ad7511760e31b8152905161094e926001600160a01b0316916313bc6d4b9133916356ba88b8916004808301926020929190829003018186803b15801561089257600080fd5b505afa1580156108a6573d6000803e3d6000fd5b505050506040513d60208110156108bc57600080fd5b5051604080517fffffffff0000000000000000000000000000000000000000000000000000000060e085901b1681526001600160a01b039092166004830152516024808301926020929190829003018186803b15801561091b57600080fd5b505afa15801561092f573d6000803e3d6000fd5b505050506040513d602081101561094557600080fd5b50516014611cea565b6002546040805163184a263160e11b815290516109c7926001600160a01b0316916330944c62916004808301926020929190829003018186803b15801561099457600080fd5b505afa1580156109a8573d6000803e3d6000fd5b505050506040513d60208110156109be57600080fd5b50516045611cea565b6000339050600154816001600160a01b0316636db9cc996040518163ffffffff1660e01b815260040160206040518083038186803b158015610a0857600080fd5b505afa158015610a1c573d6000803e3d6000fd5b505050506040513d6020811015610a3257600080fd5b505110610a4557610a4581836001611cf8565b5050565b6701aa535d3d0c000081565b600090815260086020526040902080546001820154600283015460039093015491939092916001600160601b031690565b848180151580610aae57506001600160a01b0382166000908152600f60205260409020546001105b15610bbd57600254604080516313bc6d4b60e01b81526001600160a01b0385811660048301529151610b389392909216916313bc6d4b91602480820192602092909190829003018186803b158015610b0557600080fd5b505afa158015610b19573d6000803e3d6000fd5b505050506040513d6020811015610b2f57600080fd5b50516048611cea565b6002546040805163364d118160e01b81526001600160a01b0385811660048301529151610bbd93929092169163364d118191602480820192602092909190829003018186803b158015610b8a57600080fd5b505afa158015610b9e573d6000803e3d6000fd5b505050506040513d6020811015610bb457600080fd5b50516023611cea565b610bd3336001600160a01b038416146023611cea565b610c0f826001600160a01b03166302fb0c5e6040518163ffffffff1660e01b815260040160206040518083038186803b158015610b8a57600080fd5b610c1b878787876120d7565b50505050505050565b6008602052600090815260409020805460018201546002830154600390930154919290916001600160601b031684565b7f000000000000000000000000000000000000000000000000000000000000000081565b6003546001600160a01b031681565b600080600080610cf2600260009054906101000a90046001600160a01b03166001600160a01b031663364d11818a6040518263ffffffff1660e01b815260040180826001600160a01b0316815260200191505060206040518083038186803b158015610b8a57600080fd5b60005b85811015610d4d57600080610d268b8a8a86818110610d1057fe5b905060200201356001600160a01b03168c6122f4565b9092509050610d358583612951565b9450610d418482612951565b93505050600101610cf5565b5081610d8e826040518060400160405280600381526020017f52323800000000000000000000000000000000000000000000000000000000008152506129b4565b93509350505094509492505050565b6002546040805163184a263160e11b81529051610de3926001600160a01b0316916330944c62916004808301926020929190829003018186803b15801561099457600080fd5b600254604080516313bc6d4b60e01b81523360048201529051610e2f926001600160a01b0316916313bc6d4b916024808301926020929190829003018186803b158015610b0557600080fd5b610a458282612a57565b690b581ceb141f05c1ae0081565b610e4f612b68565b6001600160a01b0316610e6061100e565b6001600160a01b031614610ebb576040805162461bcd60e51b815260206004820181905260248201527f4f776e61626c653a2063616c6c6572206973206e6f7420746865206f776e6572604482015290519081900360640190fd5b600080546040516001600160a01b03909116907f8be0079c531659141344cd1fd0a4f28419497f9722a3daafe3b4186f6b6457e0908390a36000805473ffffffffffffffffffffffffffffffffffffffff19169055565b6000610f1d82612b6c565b90505b919050565b6000610f3385858585612c7b565b90505b949350505050565b60096020526000908152604090205460ff1681565b7f000000000000000000000000000000000000000000000000000000000000000081565b600254604080516313bc6d4b60e01b81523360048201529051610fc3926001600160a01b0316916313bc6d4b916024808301926020929190829003018186803b158015610b0557600080fd5b600254610fdc906001600160a01b031633146010611cea565b600154610fe857426001555b565b7f000000000000000000000000000000000000000000000000000000000000000081565b6000546001600160a01b031690565b7f000000000000000000000000000000000000000000000000000000000000000081565b6000808290506110b8816001600160a01b031663d0f9953e6040518163ffffffff1660e01b815260040160206040518083038186803b15801561108357600080fd5b505afa158015611097573d6000803e3d6000fd5b505050506040513d60208110156110ad57600080fd5b505115156031611cea565b60025460408051632630c12f60e01b815290516000926001600160a01b031691632630c12f916004808301926020929190829003018186803b1580156110fd57600080fd5b505afa158015611111573d6000803e3d6000fd5b505050506040513d602081101561112757600080fd5b505160408051630ad7511760e31b815290519192506000916001600160a01b038085169263ac41865a92918716916356ba88b891600480820192602092909190829003018186803b15801561117b57600080fd5b505afa15801561118f573d6000803e3d6000fd5b505050506040513d60208110156111a557600080fd5b505160408051631f0b96b960e31b815290516001600160a01b039092169163f85cb5c891600480820192602092909190829003018186803b1580156111e957600080fd5b505afa1580156111fd573d6000803e3d6000fd5b505050506040513d602081101561121357600080fd5b5051604080517fffffffff0000000000000000000000000000000000000000000000000000000060e085901b1681526001600160a01b039092166004830152736b175474e89094c44da98b954eedeac495271d0f6024830152516044808301926020929190829003018186803b15801561128c57600080fd5b505afa1580156112a0573d6000803e3d6000fd5b505050506040513d60208110156112b657600080fd5b50516040805162f376cb60e21b815290519192506000916113359184916001600160a01b038816916303cddb2c916004808301926020929190829003018186803b15801561130357600080fd5b505afa158015611317573d6000803e3d6000fd5b505050506040513d602081101561132d57600080fd5b50519061313e565b9050600061137683866001600160a01b03166303976e386040518163ffffffff1660e01b815260040160206040518083038186803b15801561130357600080fd5b9050600154856001600160a01b0316636db9cc996040518163ffffffff1660e01b815260040160206040518083038186803b1580156113b457600080fd5b505afa1580156113c8573d6000803e3d6000fd5b505050506040513d60208110156113de57600080fd5b5051108015906113ef575060015415155b156117db576000856001600160a01b0316636db40dc26040518163ffffffff1660e01b815260040160206040518083038186803b15801561142f57600080fd5b505afa158015611443573d6000803e3d6000fd5b505050506040513d602081101561145957600080fd5b5051905080156114a257611495816040518060400160405280601081526020016f6f766572666c6f77203936206269747360801b8152506129b4565b9650505050505050610f20565b60008061157e886001600160a01b031663825deffe6040518163ffffffff1660e01b815260040160206040518083038186803b1580156114e157600080fd5b505afa1580156114f5573d6000803e3d6000fd5b505050506040513d602081101561150b57600080fd5b50516040805163687cca9f60e11b815290516001600160a01b038c169163d0f9953e916004808301926020929190829003018186803b15801561154d57600080fd5b505afa158015611561573d6000803e3d6000fd5b505050506040513d602081101561157757600080fd5b505161315c565b91509150600060018311611754576115978b87846131d4565b6000838152600860205260409020600301549091506115c3906001600160601b03168211156046611cea565b61174f60086000848152602001908152602001600020600201546117468b6001600160a01b031663dbabf4f36040518163ffffffff1660e01b815260040160206040518083038186803b15801561161957600080fd5b505afa15801561162d573d6000803e3d6000fd5b505050506040513d602081101561164357600080fd5b81019080805190602001909291905050506117406117398e6001600160a01b031663825deffe6040518163ffffffff1660e01b815260040160206040518083038186803b15801561169357600080fd5b505afa1580156116a7573d6000803e3d6000fd5b505050506040513d60208110156116bd57600080fd5b81019080805190602001909291905050508f6001600160a01b031663d0f9953e6040518163ffffffff1660e01b815260040160206040518083038186803b15801561170757600080fd5b505afa15801561171b573d6000803e3d6000fd5b505050506040513d602081101561173157600080fd5b5051906133f7565b8b90613454565b906133f7565b11156047611cea565b611763565b6117608b8784866134ad565b90505b600061176f8688613567565b9050671bc16d674ec8000081111561178c5750671bc16d674ec800005b611796828261313e565b91506117ca826040518060400160405280601081526020016f6f766572666c6f77203936206269747360801b8152506129b4565b9a5050505050505050505050610f20565b600095505050505050610f20565b600681815481106117f957600080fd5b600091825260209091200154905081565b6276a70081565b600090815260056020526040902080546001820154600283015460038401546004909401549294919390929091565b600b60209081526000928352604080842090915290825290208054600182015460039092015490919083565b7f000000000000000000000000000000000000000000000000000000000000000081565b600f6020526000908152604090205481565b7f000000000000000000000000000000000000000000000000000000000000000081565b60015481565b8181801515806118f457506001600160a01b0382166000908152600f60205260409020546001105b1561199d57600254604080516313bc6d4b60e01b81526001600160a01b038581166004830152915161194b9392909216916313bc6d4b91602480820192602092909190829003018186803b158015610b0557600080fd5b6002546040805163364d118160e01b81526001600160a01b038581166004830152915161199d93929092169163364d118191602480820192602092909190829003018186803b158015610b8a57600080fd5b6119b3336001600160a01b038416146023611cea565b6119ef826001600160a01b03166302fb0c5e6040518163ffffffff1660e01b815260040160206040518083038186803b158015610b8a57600080fd5b6119f88461357f565b50505050565b60045481565b60075481565b600e6020528160005260406000208181548110611a2657600080fd5b90600052602060002001600091509150505481565b611a43612b68565b6001600160a01b0316611a5461100e565b6001600160a01b031614611aaf576040805162461bcd60e51b815260206004820181905260248201527f4f776e61626c653a2063616c6c6572206973206e6f7420746865206f776e6572604482015290519081900360640190fd5b6001600160a01b038116611af45760405162461bcd60e51b8152600401808060200182810382526026815260200180615a716026913960400191505060405180910390fd5b600080546040516001600160a01b03808516939216917f8be0079c531659141344cd1fd0a4f28419497f9722a3daafe3b4186f6b6457e091a36000805473ffffffffffffffffffffffffffffffffffffffff19166001600160a01b0392909216919091179055565b60025460408051630ad7511760e31b81529051611baa926001600160a01b0316916313bc6d4b9133916356ba88b8916004808301926020929190829003018186803b15801561089257600080fd5b6002546040805163184a263160e11b81529051611bf0926001600160a01b0316916330944c62916004808301926020929190829003018186803b15801561099457600080fd5b6000339050600154816001600160a01b0316636db9cc996040518163ffffffff1660e01b815260040160206040518083038186803b158015611c3157600080fd5b505afa158015611c45573d6000803e3d6000fd5b505050506040513d6020811015611c5b57600080fd5b505110610a4557610a4581836000611cf8565b600a60209081526000928352604080842090915290825290205481565b6002546001600160a01b031681565b7f000000000000000000000000000000000000000000000000000000000000000081565b600d60209081526000928352604080842090915290825290208054600182015460029092015490919083565b81610a4557610a45816137a4565b60025460408051632630c12f60e01b8152905185926000926001600160a01b0390911691632630c12f91600480820192602092909190829003018186803b158015611d4257600080fd5b505afa158015611d56573d6000803e3d6000fd5b505050506040513d6020811015611d6c57600080fd5b505160408051630ad7511760e31b815290519192506000916001600160a01b038085169263ac41865a92918716916356ba88b891600480820192602092909190829003018186803b158015611dc057600080fd5b505afa158015611dd4573d6000803e3d6000fd5b505050506040513d6020811015611dea57600080fd5b505160408051631f0b96b960e31b815290516001600160a01b039092169163f85cb5c891600480820192602092909190829003018186803b158015611e2e57600080fd5b505afa158015611e42573d6000803e3d6000fd5b505050506040513d6020811015611e5857600080fd5b5051604080517fffffffff0000000000000000000000000000000000000000000000000000000060e085901b1681526001600160a01b039092166004830152736b175474e89094c44da98b954eedeac495271d0f6024830152516044808301926020929190829003018186803b158015611ed157600080fd5b505afa158015611ee5573d6000803e3d6000fd5b505050506040513d6020811015611efb57600080fd5b50519050611f09858261313e565b42600090815260056020526040902090955084611f3557600454611f2d90876133f7565b600455611f46565b600454611f429087612951565b6004555b60045481554260018201819055611f5c906137f7565b600282015560075460038201819055611f7b576000600482015561207a565b612074612023600560006006611f9d60016007546133f790919063ffffffff16565b81548110611fa757fe5b906000526020600020015481526020019081526020016000206000015461201d600560006006611fe360016007546133f790919063ffffffff16565b81548110611fed57fe5b906000526020600020015481526020019081526020016000206001015485600101546133f790919063ffffffff16565b90613454565b60056000600661203f60016007546133f790919063ffffffff16565b8154811061204957fe5b906000526020600020015481526020019081526020016000206004015461295190919063ffffffff16565b60048201555b60068054600181018255600091909152427ff652222313e28459528d920b65115c16c04f3efc82aaedc97be59f3f377c0d3f9091018190556120bb9061382f565b6120c58487613f3c565b50506007805460010190555050505050565b6001600160a01b038085166000818152600b602090815260408083209488168084529482529182902082516370a0823160e01b81526004810195909552915191936370a082319260248083019392829003018186803b15801561213957600080fd5b505afa15801561214d573d6000803e3d6000fd5b505050506040513d602081101561216357600080fd5b505142600081815260048401602052604090209182556001820155600382015460029091018190556121a957426000908152600482016020526040812060030155612202565b805460008181526004830160205260409020546121ec916121d0919061201d9042906133f7565b8254600090815260048401602052604090206003015490612951565b4260009081526004830160205260409020600301555b600182151514156122305782158061221c57506001810154155b15612228574260018201555b4281556122c7565b846001600160a01b03166370a08231856040518263ffffffff1660e01b815260040180826001600160a01b0316815260200191505060206040518083038186803b15801561227d57600080fd5b505afa158015612291573d6000803e3d6000fd5b505050506040513d60208110156122a757600080fd5b50516122c7576000808255600182018190556122c7906002830190615a3a565b60028101805460018181018355600092835260209092204291015560039091018054909101905550505050565b600080600084905061237f866001600160a01b0316826001600160a01b03166356ba88b86040518163ffffffff1660e01b815260040160206040518083038186803b15801561234257600080fd5b505afa158015612356573d6000803e3d6000fd5b505050506040513d602081101561236c57600080fd5b50516001600160a01b0316146049611cea565b612402866001600160a01b03166306061dfa876040518263ffffffff1660e01b815260040180826001600160a01b0316815260200191505060206040518083038186803b1580156123cf57600080fd5b505afa1580156123e3573d6000803e3d6000fd5b505050506040513d60208110156123f957600080fd5b50516049611cea565b60008060008060008061241487614298565b93509350935093506000808d6001600160a01b0316633d8270f58d6040518263ffffffff1660e01b815260040180826001600160a01b0316815260200191505060c06040518083038186803b15801561246c57600080fd5b505afa158015612480573d6000803e3d6000fd5b505050506040513d60c081101561249657600080fd5b50602080820151604092830151835163687cca9f60e11b81529351919550935083926001600160a01b038d169263d0f9953e92600480840193829003018186803b1580156124e357600080fd5b505afa1580156124f7573d6000803e3d6000fd5b505050506040513d602081101561250d57600080fd5b5051118015612580575081896001600160a01b031663825deffe6040518163ffffffff1660e01b815260040160206040518083038186803b15801561255157600080fd5b505afa158015612565573d6000803e3d6000fd5b505050506040513d602081101561257b57600080fd5b505110155b801561260157508d6001600160a01b0316896001600160a01b03166356ba88b86040518163ffffffff1660e01b815260040160206040518083038186803b1580156125ca57600080fd5b505afa1580156125de573d6000803e3d6000fd5b505050506040513d60208110156125f457600080fd5b50516001600160a01b0316145b1561293d5760006126eb8f8e8c6001600160a01b031663825deffe6040518163ffffffff1660e01b815260040160206040518083038186803b15801561264657600080fd5b505afa15801561265a573d6000803e3d6000fd5b505050506040513d602081101561267057600080fd5b81019080805190602001909291905050508d6001600160a01b031663d0f9953e6040518163ffffffff1660e01b815260040160206040518083038186803b1580156126ba57600080fd5b505afa1580156126ce573d6000803e3d6000fd5b505050506040513d60208110156126e457600080fd5b5051612c7b565b90506001871515141561272f5761272c612725877f0000000000000000000000000000000000000000000000000000000000000000614531565b87906133f7565b95505b6127476127408b8f8a8a8a8a614555565b8990612951565b975061275f6127588b8f8a8a6148b6565b8a90612951565b98506127726127408b8f8a8a8a8a614982565b97506127856127588b8f8a8a8a8a614d2b565b98506128916127406127fc8c6001600160a01b03166303cddb2c6040518163ffffffff1660e01b815260040160206040518083038186803b1580156127c957600080fd5b505afa1580156127dd573d6000803e3d6000fd5b505050506040513d60208110156127f357600080fd5b50518490613567565b61288b7f00000000000000000000000000000000000000000000000000000000000000008e6001600160a01b0316636db40dc26040518163ffffffff1660e01b815260040160206040518083038186803b15801561285957600080fd5b505afa15801561286d573d6000803e3d6000fd5b505050506040513d602081101561288357600080fd5b505190614531565b9061313e565b97508e6001600160a01b03166302d05d3f6040518163ffffffff1660e01b815260040160206040518083038186803b1580156128cc57600080fd5b505afa1580156128e0573d6000803e3d6000fd5b505050506040513d60208110156128f657600080fd5b50516001600160a01b038e81169116141561293b57612938612740897f0000000000000000000000000000000000000000000000000000000000000000614531565b97505b505b50959c949b50939950505050505050505050565b6000828201838110156129ab576040805162461bcd60e51b815260206004820152601b60248201527f536166654d6174683a206164646974696f6e206f766572666c6f770000000000604482015290519081900360640190fd5b90505b92915050565b6000816c010000000000000000000000008410612a4f5760405162461bcd60e51b81526004018080602001828103825283818151815260200191508051906020019080838360005b83811015612a145781810151838201526020016129fc565b50505050905090810190601f168015612a415780820380516001836020036101000a031916815260200191505b509250505060405180910390fd5b509192915050565b6002546040805163184a263160e11b81529051612a9d926001600160a01b0316916330944c62916004808301926020929190829003018186803b15801561099457600080fd5b600354604080516370a0823160e01b815230600482015290516000926001600160a01b0316916370a08231916024808301926020929190829003018186803b158015612ae857600080fd5b505afa158015612afc573d6000803e3d6000fd5b505050506040513d6020811015612b1257600080fd5b505190506001600160601b038216811015612b4357600354612b3e906001600160a01b03168483614f44565b612b63565b600354612b63906001600160a01b0316846001600160601b038516614f44565b505050565b3390565b6000612b7d6001831015604a611cea565b6102018210612b8e57506000610f20565b6000612c26612b9e8460016133f7565b612c206701aa535d3d0c0000732de341674a99b379DA0fE53c00ae4Cf251adaE8963907af6c06040518163ffffffff1660e01b815260040160206040518083038186803b158015612bee57600080fd5b505af4158015612c02573d6000803e3d6000fd5b505050506040513d6020811015612c1857600080fd5b505190612951565b90614fc4565b90506000612c3e690b581ceb141f05c1ae0083613567565b9050612c72816040518060400160405280601081526020016f6f766572666c6f77203936206269747360801b8152506129b4565b92505050610f20565b6000612cfb856001600160a01b031663cb12233b6040518163ffffffff1660e01b815260040160206040518083038186803b158015612cb957600080fd5b505afa158015612ccd573d6000803e3d6000fd5b505050506040513d6020811015612ce357600080fd5b50518310801590612cf45750838310155b6041611cea565b6001600160a01b038086166000818152600b60209081526040808320948916808452948252808320938352600c825280832094835293815290839020835160808101855281548152600180830154938201939093526002820154948101949094526003015460608401528101549091901580612d7a5750838260010154115b15612d8a57600092505050610f36565b866001600160a01b031663cb12233b6040518163ffffffff1660e01b815260040160206040518083038186803b158015612dc357600080fd5b505afa158015612dd7573d6000803e3d6000fd5b505050506040513d6020811015612ded57600080fd5b50518511612e5d57866001600160a01b031663cb12233b6040518163ffffffff1660e01b815260040160206040518083038186803b158015612e2e57600080fd5b505afa158015612e42573d6000803e3d6000fd5b505050506040513d6020811015612e5857600080fd5b505194505b612e698787878761506d565b60208301528152612e7b87868661519c565b6060830152604082015260208101518151612ead9110801590612ea657508160600151826040015111155b6051611cea565b6000808260000151871015612ec55760009150612f32565b8251871115612f1957825160009081526004850160205260409020548351612f1291612ef69161201d908b906133f7565b8451600090815260048701602052604090206003015490612951565b9150612f32565b8251600090815260048501602052604090206003015491505b6001600160a01b0389166000908152600d60209081526040808320868201805185529252909120549051612f9f91612f6f9161201d908b906133f7565b6001600160a01b038b166000908152600d6020908152604080832088820151845290915290206002015490612951565b9050612faf818311156050611cea565b85871415612fde5780612fc9576000945050505050610f36565b612fd38282613567565b945050505050610f36565b8260200151861015612ff7576000945050505050610f36565b82602001518614801561300e575060208301518351145b15613098576001600160a01b0389166000908152600d6020908152604080832060608701805185529252909120549051613088918391611740916130579161201d908c906133f7565b6001600160a01b038d166000908152600d6020908152604080832060608b0151845290915290206002015490612951565b9050612fc9818311156050611cea565b6130f6826117406130d6876004016000886020015181526020019081526020016000206000015461201d88602001518c6133f790919063ffffffff16565b602080880151600090815260048a01909152604090206003015490612951565b6001600160a01b038a166000908152600d602090815260408083206060880180518552925290912054905191935061308891839161174091613057919061201d908c906133f7565b60006129ab670de0b6b3a76400006131568585613454565b906152b4565b60008080613183670de0b6b3a76400006131566276a70061317d888a6133f7565b90615313565b905060006131af670de0b6b3a76400006131566276a70061317d6001548b6133f790919063ffffffff16565b90506131bc826001612951565b6131c7826001612951565b9350935050509250929050565b6000613227600260009054906101000a90046001600160a01b03166001600160a01b03166330944c626040518163ffffffff1660e01b815260040160206040518083038186803b15801561099457600080fd5b6000849050600061336a826001600160a01b031663dbabf4f36040518163ffffffff1660e01b815260040160206040518083038186803b15801561326a57600080fd5b505afa15801561327e573d6000803e3d6000fd5b505050506040513d602081101561329457600080fd5b5051604080517f825deffe000000000000000000000000000000000000000000000000000000008152905161174091613363916001600160a01b0388169163825deffe916004808301926020929190829003018186803b1580156132f757600080fd5b505afa15801561330b573d6000803e3d6000fd5b505050506040513d602081101561332157600080fd5b50516040805163687cca9f60e11b815290516001600160a01b0389169163d0f9953e916004808301926020929190829003018186803b15801561170757600080fd5b8890613454565b90506133eb61337942866133f7565b6131566133b987866001600160a01b031663d0f9953e6040518163ffffffff1660e01b815260040160206040518083038186803b15801561170757600080fd5b6000888152600860205260409020600381015460029091015461201d916001600160601b03169061288b908890613567565b925050505b9392505050565b60008282111561344e576040805162461bcd60e51b815260206004820152601e60248201527f536166654d6174683a207375627472616374696f6e206f766572666c6f770000604482015290519081900360640190fd5b50900390565b600082613463575060006129ae565b8282028284828161347057fe5b04146129ab5760405162461bcd60e51b8152600401808060200182810382526021815260200180615a976021913960400191505060405180910390fd5b6000613500600260009054906101000a90046001600160a01b03166001600160a01b03166330944c626040518163ffffffff1660e01b815260040160206040518083038186803b15801561099457600080fd5b6000805b61350f8460016133f7565b811161355d57600061353461352b6276a70061201d8986612951565b60015490612951565b90506000613545898989868661539b565b90506135518482612951565b93505050600101613504565b5095945050505050565b60006129ab8261315685670de0b6b3a7640000613454565b6001600160a01b0381166000818152600d6020908152604080832042845282529182902082517f18160ddd00000000000000000000000000000000000000000000000000000000815292518594919391926318160ddd9260048082019391829003018186803b1580156135f157600080fd5b505afa158015613605573d6000803e3d6000fd5b505050506040513d602081101561361b57600080fd5b505181554260018201556001600160a01b0383166000908152600f602052604090205461364e5760006002820155613762565b6001600160a01b0382166000908152600d60209081526040808320600e8352818420600f9093529083205461375c936136ed93909161368e9060016133f7565b8154811061369857fe5b600091825260208083209091015483528281019390935260409182018120546001600160a01b0388168252600d8452828220600e8552838320600f90955292822054909361201d939291611fe39060016133f7565b6001600160a01b0384166000908152600d60209081526040808320600e8352818420600f90935290832054909291906137279060016133f7565b8154811061373157fe5b906000526020600020015481526020019081526020016000206002015461295190919063ffffffff16565b60028201555b506001600160a01b03166000818152600e6020908152604080832080546001818101835591855283852042910155938352600f90915290208054909101905550565b62461bcd60e51b6000908152602060045260076024526642414223000030600a808404818106603090810160081b95839006959095019082900491820690940160101b939093010160c81b604452606490fd5b600080613822670de0b6b3a76400006131566276a70061317d600154886133f790919063ffffffff16565b90506133f0816001612951565b6002546040805163184a263160e11b81529051613875926001600160a01b0316916330944c62916004808301926020929190829003018186803b15801561099457600080fd5b600060086000613884846137f7565b81526020019081526020016000209050600960006138a66001611740866137f7565b815260208101919091526040016000205460ff16613f01576138c7826137f7565b600182015560075461391757600060028201556138eb6138e6836137f7565b612b6c565b6003820180546bffffffffffffffffffffffff19166001600160601b0392909216919091179055613ec9565b600061398460056000600661393860016007546133f790919063ffffffff16565b8154811061394257fe5b906000526020600020015481526020019081526020016000206004015460056000868152602001908152602001600020600401546133f790919063ffffffff16565b90506139946001611740856137f7565b6005600060066139b060016007546133f790919063ffffffff16565b815481106139ba57fe5b90600052602060002001548152602001908152602001600020600201541415613b0557613a5c613a356005600060066139ff60016007546133f790919063ffffffff16565b81548110613a0957fe5b9060005260206000200154815260200190815260200160002060010154856133f790919063ffffffff16565b613156613a5561272561352b6276a7006117406276a70061201d8c6137f7565b8490613454565b6002830155613a6d6138e6846137f7565b6003830180546bffffffffffffffffffffffff19166001600160601b03929092169190911790556002820154613ada90613aa89083906133f7565b60086000613aba6001611740896137f7565b81526020019081526020016000206002015461295190919063ffffffff16565b60086000613aec6001611740886137f7565b8152602081019190915260400160002060020155613ec7565b60005b613b57600560006006613b2760016007546133f790919063ffffffff16565b81548110613b3157fe5b9060005260206000200154815260200190815260200160002060020154611740866137f7565b8111613ec557600060086000613b838460056000600661372760016007546133f790919063ffffffff16565b815260200190815260200160002090506000613bbf61352b6276a70061201d8660056000600661372760016007546133f790919063ffffffff16565b905082613ccd57613c84613c79613c21600560006006613beb60016007546133f790919063ffffffff16565b81548110613bf557fe5b9060005260206000200154815260200190815260200160002060010154896133f790919063ffffffff16565b613156613363600560006006613c4360016007546133f790919063ffffffff16565b81548110613c4d57fe5b9060005260206000200154815260200190815260200160002060010154866133f790919063ffffffff16565b600284015490612951565b6002830155600754600590600090600690613ca09060016133f7565b81548110613caa57fe5b600091825260208083209091015483528201929092526040019020548255613ebb565b613d1c600560006006613cec60016007546133f790919063ffffffff16565b81548110613cf657fe5b9060005260206000200154815260200190815260200160002060020154611740886137f7565b831015613e1f57613d88613d7b600560006006613d4560016007546133f790919063ffffffff16565b81548110613d4f57fe5b9060005260206000200154815260200190815260200160002060010154886133f790919063ffffffff16565b613156866276a700613454565b8260020181905550613db36138e68460056000600661372760016007546133f790919063ffffffff16565b8260030160006101000a8154816001600160601b0302191690836001600160601b03160217905550613dfb8360056000600661372760016007546133f790919063ffffffff16565b8260010181905550600560006006613ca060016007546133f790919063ffffffff16565b613e6f613e41600560006006613d4560016007546133f790919063ffffffff16565b613156613e68613e6161352b6276a7006117406276a70061201d8f6137f7565b8a906133f7565b8790613454565b6002860155613e806138e6876137f7565b6003860180546bffffffffffffffffffffffff19166001600160601b0392909216919091179055613eb0866137f7565b600186015560045485555b5050600101613b08565b505b505b600160096000613edd6001611740876137f7565b81526020810191909152604001600020805460ff1916911515919091179055613f34565b613f2e613f2360056000600661393860016007546133f790919063ffffffff16565b600283015490612951565b60028201555b600454905550565b6002546040805163184a263160e11b81529051613f82926001600160a01b0316916330944c62916004808301926020929190829003018186803b15801561099457600080fd5b816001600160a01b0316637519ab506040518163ffffffff1660e01b815260040160206040518083038186803b158015613fbb57600080fd5b505afa158015613fcf573d6000803e3d6000fd5b505050506040513d6020811015613fe557600080fd5b505115610a4557614059826001600160a01b0316637519ab506040518163ffffffff1660e01b815260040160206040518083038186803b15801561402857600080fd5b505afa15801561403c573d6000803e3d6000fd5b505050506040513d602081101561405257600080fd5b50516137f7565b614062426137f7565b141561415b576141236140e46140dd846001600160a01b0316637519ab506040518163ffffffff1660e01b815260040160206040518083038186803b1580156140aa57600080fd5b505afa1580156140be573d6000803e3d6000fd5b505050506040513d60208110156140d457600080fd5b505142906133f7565b8390613454565b6001600160a01b0384166000908152600a6020526040812090614106426137f7565b81526020019081526020016000205461295190919063ffffffff16565b6001600160a01b0383166000908152600a6020526040812090614145426137f7565b8152602081019190915260400160002055610a45565b6000806141cc846001600160a01b0316637519ab506040518163ffffffff1660e01b815260040160206040518083038186803b15801561419a57600080fd5b505afa1580156141ae573d6000803e3d6000fd5b505050506040513d60208110156141c457600080fd5b50514261315c565b91509150600061421583613156613e68886001600160a01b0316637519ab506040518163ffffffff1660e01b815260040160206040518083038186803b1580156140aa57600080fd5b905060005b6142258460016133f7565b8111614290576001600160a01b0386166000908152600a60205260408120614254918491906141068786612951565b6001600160a01b0387166000908152600a60205260408120906142778685612951565b815260208101919091526040016000205560010161421a565b505050505050565b60008060008060008590506000816001600160a01b03166303976e386040518163ffffffff1660e01b815260040160206040518083038186803b1580156142de57600080fd5b505afa1580156142f2573d6000803e3d6000fd5b505050506040513d602081101561430857600080fd5b50516040805163d3406abd60e01b81529051919250600091614410916143c3916001600160a01b0387169163d3406abd916004808301926020929190829003018186803b15801561435857600080fd5b505afa15801561436c573d6000803e3d6000fd5b505050506040513d602081101561438257600080fd5b50516040805162f376cb60e21b815290516001600160a01b038816916303cddb2c916004808301926020929190829003018186803b15801561130357600080fd5b846001600160a01b03166303cddb2c6040518163ffffffff1660e01b815260040160206040518083038186803b1580156143fc57600080fd5b505afa158015612c02573d6000803e3d6000fd5b90506000836001600160a01b03166303cddb2c6040518163ffffffff1660e01b815260040160206040518083038186803b15801561444d57600080fd5b505afa158015614461573d6000803e3d6000fd5b505050506040513d602081101561447757600080fd5b505190506000808080848711801561448f5750858710155b156144b857600193508392506144a587866133f7565b91506144b187876133f7565b905061451d565b8487101580156144c757508587105b156144ea5760019350600092506144de87866133f7565b91506144b186886133f7565b84871080156144f857508587105b1561451d576000935083925061450e85886133f7565b915061451a86886133f7565b90505b929a50985096509450505050509193509193565b6000670de0b6b3a76400006145468484613454565b8161454d57fe5b049392505050565b6000808790506000816001600160a01b0316636db40dc26040518163ffffffff1660e01b815260040160206040518083038186803b15801561459657600080fd5b505afa1580156145aa573d6000803e3d6000fd5b505050506040513d60208110156145c057600080fd5b50516040805163d3406abd60e01b81529051919250600091829182916146b89161467f916001600160a01b0389169163d3406abd916004808301926020929190829003018186803b15801561461457600080fd5b505afa158015614628573d6000803e3d6000fd5b505050506040513d602081101561463e57600080fd5b50516040805162f376cb60e21b815290516001600160a01b038a16916303cddb2c916004808301926020929190829003018186803b15801561130357600080fd5b866001600160a01b03166303cddb2c6040518163ffffffff1660e01b815260040160206040518083038186803b1580156143fc57600080fd5b90508a6001600160a01b0316856001600160a01b0316631fe4a6866040518163ffffffff1660e01b815260040160206040518083038186803b1580156146fd57600080fd5b505afa158015614711573d6000803e3d6000fd5b505050506040513d602081101561472757600080fd5b50516001600160a01b0316141561489657614762847f0000000000000000000000000000000000000000000000000000000000000000614531565b925060018a151514801561477857506001881515145b156147ed57614788836002613454565b91506147da6147d36147cc876001600160a01b03166303976e386040518163ffffffff1660e01b815260040160206040518083038186803b1580156127c957600080fd5b859061313e565b8490612951565b9250818311156147e8578192505b6148a4565b60018a15151480156147fd575087155b156148965761488f61488861488161487a84896001600160a01b03166303976e386040518163ffffffff1660e01b815260040160206040518083038186803b15801561484857600080fd5b505afa15801561485c573d6000803e3d6000fd5b505050506040513d602081101561487257600080fd5b505190613567565b869061313e565b85906133f7565b84906133f7565b92506148a4565b6000955050505050506148ac565b509093505050505b9695505050505050565b600084816001851515141561497557856001600160a01b0316826001600160a01b0316631fe4a6866040518163ffffffff1660e01b815260040160206040518083038186803b15801561490857600080fd5b505afa15801561491c573d6000803e3d6000fd5b505050506040513d602081101561493257600080fd5b50516001600160a01b031614156149705761496d847f0000000000000000000000000000000000000000000000000000000000000000614531565b90505b6148ac565b5060009695505050505050565b6000808790506000816001600160a01b0316636db40dc26040518163ffffffff1660e01b815260040160206040518083038186803b1580156149c357600080fd5b505afa1580156149d7573d6000803e3d6000fd5b505050506040513d60208110156149ed57600080fd5b5051604080517f950c78220000000000000000000000000000000000000000000000000000000081526001600160a01b038b8116600483015291519293506000929185169163950c782291602480820192602092909190829003018186803b158015614a5857600080fd5b505afa158015614a6c573d6000803e3d6000fd5b505050506040513d6020811015614a8257600080fd5b50516040805163d3406abd60e01b815290519192506000918291614ad59161467f916001600160a01b0389169163d3406abd91600480820192602092909190829003018186803b15801561461457600080fd5b905060008084138015614aea575060018b1515145b8015614af857506001891515145b15614ba057614b99614b6f876001600160a01b031663d40244cb6040518163ffffffff1660e01b815260040160206040518083038186803b158015614b3c57600080fd5b505afa158015614b50573d6000803e3d6000fd5b505050506040513d6020811015614b6657600080fd5b50518690613567565b61288b877f0000000000000000000000000000000000000000000000000000000000000000614531565b9050614d1b565b600084138015614bb2575060018b1515145b8015614bbc575088155b15614c2057614c00614b6f876001600160a01b031663d40244cb6040518163ffffffff1660e01b815260040160206040518083038186803b158015614b3c57600080fd5b9050614b99614c19614c128a85613567565b839061313e565b82906133f7565b600084138015614c2e57508a155b15614c3b57506000614d1b565b600084128015614c49575088155b15614d0057614cc8614b6f876001600160a01b031663449b98266040518163ffffffff1660e01b815260040160206040518083038186803b158015614c8d57600080fd5b505afa158015614ca1573d6000803e3d6000fd5b505050506040513d6020811015614cb757600080fd5b5051614cc2876157e1565b90613567565b9050614cd5816002613454565b9250614cee614ce7614c128a85613567565b8290612951565b905082811115614cfb5750815b614d1b565b600084128015614d1257506001891515145b15614d1b575060005b9c9b505050505050505050505050565b600080879050600080826001600160a01b031663950c78228a6040518263ffffffff1660e01b815260040180826001600160a01b0316815260200191505060206040518083038186803b158015614d8157600080fd5b505afa158015614d95573d6000803e3d6000fd5b505050506040513d6020811015614dab57600080fd5b5051905060018815151415614f32576000811315614e6057614e59836001600160a01b031663d40244cb6040518163ffffffff1660e01b815260040160206040518083038186803b158015614dff57600080fd5b505afa158015614e13573d6000803e3d6000fd5b505050506040513d6020811015614e2957600080fd5b5051614cc28361288b8b7f0000000000000000000000000000000000000000000000000000000000000000614531565b9150614f2d565b600081128015614e6e575085155b15614f1157614e59836001600160a01b031663449b98266040518163ffffffff1660e01b815260040160206040518083038186803b158015614eaf57600080fd5b505afa158015614ec3573d6000803e3d6000fd5b505050506040513d6020811015614ed957600080fd5b5051614cc2614ee7846157e1565b61288b8b7f0000000000000000000000000000000000000000000000000000000000000000614531565b600081128015614f2357506001861515145b15614f2d57600091505b614f37565b600091505b5098975050505050505050565b604080516001600160a01b038416602482015260448082018490528251808303909101815260649091019091526020810180517bffffffffffffffffffffffffffffffffffffffffffffffffffffffff167fa9059cbb00000000000000000000000000000000000000000000000000000000179052612b639084906157f8565b600080732de341674a99b379DA0fE53c00ae4Cf251adaE8963907af6c06040518163ffffffff1660e01b815260040160206040518083038186803b15801561500b57600080fd5b505af415801561501f573d6000803e3d6000fd5b505050506040513d602081101561503557600080fd5b505190505b82156129ab576002830615615056576150538185614531565b90505b6150608480614531565b935060028304925061503a565b6001600160a01b038085166000908152600b60209081526040808320938716835292905290812060028101805483929183916150aa9060016133f7565b815481106150b457fe5b906000526020600020015490506000826002016000815481106150d357fe5b90600052602060002001549050858211806150ed57508681105b1561518f5760005b60028401546151059060016133f7565b811161518d578684600201828154811061511b57fe5b9060005260206000200154116151485783600201818154811061513a57fe5b906000526020600020015492505b8784600201828154811061515857fe5b9060005260206000200154116151855783600201818154811061517757fe5b906000526020600020015491505b6001016150f5565b505b9890975095505050505050565b6001600160a01b0383166000908152600e6020526040812054819081906151c49060016133f7565b6001600160a01b0387166000908152600e6020526040812080549293509091839081106151ed57fe5b906000526020600020015490506000600e6000896001600160a01b03166001600160a01b0316815260200190815260200160002060008154811061522d57fe5b906000526020600020015490508582118061524757508681105b156152a85760005b8381116152a6576001600160a01b0389166000908152600e6020526040812080548390811061527a57fe5b90600052602060002001549050878111615292578093505b88811161529d578092505b5060010161524f565b505b97909650945050505050565b600080821161530a576040805162461bcd60e51b815260206004820152601a60248201527f536166654d6174683a206469766973696f6e206279207a65726f000000000000604482015290519081900360640190fd5b81838161454d57fe5b600081615367576040805162461bcd60e51b815260206004820152601060248201527f43616e7420646976696465206279203000000000000000000000000000000000604482015290519081900360640190fd5b600083116153765760006129ab565b6129ab6001615395846131568361174089670de0b6b3a7640000613454565b90612951565b60006153ee600260009054906101000a90046001600160a01b03166001600160a01b03166330944c626040518163ffffffff1660e01b815260040160206040518083038186803b15801561099457600080fd5b6000806000670de0b6b3a764000090508461543f6276a7008b6001600160a01b031663825deffe6040518163ffffffff1660e01b815260040160206040518083038186803b1580156143fc57600080fd5b11156155335761552c600a60008b6001600160a01b03166001600160a01b0316815260200190815260200160002060006154ab8c6001600160a01b031663825deffe6040518163ffffffff1660e01b815260040160206040518083038186803b15801561402857600080fd5b8152602001908152602001600020546117406117398c6001600160a01b031663825deffe6040518163ffffffff1660e01b815260040160206040518083038186803b1580156154f957600080fd5b505afa15801561550d573d6000803e3d6000fd5b505050506040513d602081101561552357600080fd5b505189906133f7565b9250615768565b615540856276a7006133f7565b896001600160a01b031663825deffe6040518163ffffffff1660e01b815260040160206040518083038186803b15801561557957600080fd5b505afa15801561558d573d6000803e3d6000fd5b505050506040513d60208110156155a357600080fd5b50511080156156155750886001600160a01b031663d0f9953e6040518163ffffffff1660e01b815260040160206040518083038186803b1580156155e657600080fd5b505afa1580156155fa573d6000803e3d6000fd5b505050506040513d602081101561561057600080fd5b505185105b15615676576001600160a01b0389166000908152600a6020526040812061552c9161564b61564689623b53806133f7565b6137f7565b815260208101919091526040016000205461174061173961566f896276a7006133f7565b89906133f7565b6156a0615689612725876276a7006133f7565b614cc2615699886276a7006133f7565b42906133f7565b9050615765600a60008b6001600160a01b03166001600160a01b0316815260200190815260200160002060006157088c6001600160a01b031663d0f9953e6040518163ffffffff1660e01b815260040160206040518083038186803b15801561402857600080fd5b815260208101919091526040016000205461174061173961572c896276a7006133f7565b8d6001600160a01b031663d0f9953e6040518163ffffffff1660e01b815260040160206040518083038186803b15801561170757600080fd5b92505b600860006157768989612951565b8152602001908152602001600020600201549150615798828411156047611cea565b6157d48161288b600860006157ad8c8c612951565b81526020810191909152604001600020600301546001600160601b031661288b8787613567565b9998505050505050505050565b6000808212156157f45781600003610f1d565b5090565b600061584d826040518060400160405280602081526020017f5361666545524332303a206c6f772d6c6576656c2063616c6c206661696c6564815250856001600160a01b03166158a99092919063ffffffff16565b805190915015612b635780806020019051602081101561586c57600080fd5b5051612b635760405162461bcd60e51b815260040180806020018281038252602a815260200180615ab8602a913960400191505060405180910390fd5b6060610f368484600085856158bd856159ce565b61590e576040805162461bcd60e51b815260206004820152601d60248201527f416464726573733a2063616c6c20746f206e6f6e2d636f6e7472616374000000604482015290519081900360640190fd5b600080866001600160a01b031685876040518082805190602001908083835b6020831061594c5780518252601f19909201916020918201910161592d565b6001836020036101000a03801982511681845116808217855250505050505090500191505060006040518083038185875af1925050503d80600081146159ae576040519150601f19603f3d011682016040523d82523d6000602084013e6159b3565b606091505b50915091506159c38282866159d4565b979650505050505050565b3b151590565b606083156159e35750816133f0565b8251156159f35782518084602001fd5b60405162461bcd60e51b8152602060048201818152845160248401528451859391928392604401919085019080838360008315612a145781810151838201526020016129fc565b5080546000825590600052602060002090810190615a589190615a5b565b50565b5b808211156157f45760008155600101615a5c56fe4f776e61626c653a206e6577206f776e657220697320746865207a65726f2061646472657373536166654d6174683a206d756c7469706c69636174696f6e206f766572666c6f775361666545524332303a204552433230206f7065726174696f6e20646964206e6f742073756363656564a26469706673582212207d76dc61c75912a4aacd4afccc7307b4251bb6bdc2395d98365545646d0d10d664736f6c63430007060033",
  "deployedBytecode": "0x608060405234801561001057600080fd5b50600436106102c85760003560e01c8063908589441161017b578063df14e06f116100d8578063f5750d0f1161008c578063f77c479111610071578063f77c4791146107b5578063fa51a34b146107bd578063fd9ff86c146107c5576102c8565b8063f5750d0f1461076c578063f6c8d7b514610789576102c8565b8063f1068454116100bd578063f106845414610712578063f1ed38611461071a578063f2fde38b14610746576102c8565b8063df14e06f146106de578063e5cab4fa1461070a576102c8565b8063d60913ce1161012f578063db4b3af511610114578063db4b3af5146106a8578063dc178712146106ce578063ddaa26ad146106d6576102c8565b8063d60913ce14610654578063da17a6ca146106a0576102c8565b8063a675004711610160578063a675004714610612578063a70b9f0c1461062f578063cf14938714610637576102c8565b806390858944146105e45780639de9a052146105ec576102c8565b80636bf15bbd1161022957806378769678116101dd57806379fc904f116101c257806379fc904f146105cc5780638cb8c855146105d45780638da5cb5b146105dc576102c8565b8063787696781461059357806379102629146105c4576102c8565b8063715018a61161020e578063715018a61461051657806373a9fd9f1461051e5780637602bdde14610557576102c8565b80636bf15bbd146104d95780636e570b591461050e576102c8565b80632db4b3a711610280578063551bf81611610265578063551bf8161461040357806356773b791461040b57806369795e931461042f576102c8565b80632db4b3a7146103a25780633c0deba4146103e6576102c8565b80630fa454cf116102b15780630fa454cf1461032f5780631de40e491461034e5780632544dc1814610356576102c8565b806308c6850f146102cd5780630bb6d20814610315575b600080fd5b6102ea600480360360208110156102e357600080fd5b50356107f1565b6040805195865260208601949094528484019290925260608401526080830152519081900360a00190f35b61031d610820565b60408051918252519081900360200190f35b61034c6004803603602081101561034557600080fd5b5035610844565b005b61031d610a49565b6103736004803603602081101561036c57600080fd5b5035610a55565b604080519485526020850193909352838301919091526001600160601b03166060830152519081900360800190f35b61034c600480360360a08110156103b857600080fd5b506001600160a01b038135811691602081013590911690604081013590606081013515159060800135610a86565b610373600480360360208110156103fc57600080fd5b5035610c24565b61031d610c54565b610413610c78565b604080516001600160a01b039092168252519081900360200190f35b6104b86004803603606081101561044557600080fd5b6001600160a01b03823581169260208101359091169181019060608101604082013564010000000081111561047957600080fd5b82018360208201111561048b57600080fd5b803590602001918460208302840111640100000000831117156104ad57600080fd5b509092509050610c87565b604080519283526001600160601b0390911660208301528051918290030190f35b61034c600480360360408110156104ef57600080fd5b5080356001600160a01b031690602001356001600160601b0316610d9d565b61031d610e39565b61034c610e47565b61053b6004803603602081101561053457600080fd5b5035610f12565b604080516001600160601b039092168252519081900360200190f35b61031d6004803603608081101561056d57600080fd5b506001600160a01b03813581169160208101359091169060408101359060600135610f25565b6105b0600480360360208110156105a957600080fd5b5035610f3e565b604080519115158252519081900360200190f35b61031d610f53565b61034c610f77565b61031d610fea565b61041361100e565b61031d61101d565b61053b6004803603602081101561060257600080fd5b50356001600160a01b0316611041565b61031d6004803603602081101561062857600080fd5b50356117e9565b61031d61180a565b6102ea6004803603602081101561064d57600080fd5b5035611811565b6106826004803603604081101561066a57600080fd5b506001600160a01b0381358116916020013516611840565b60408051938452602084019290925282820152519081900360600190f35b61031d61186c565b61031d600480360360208110156106be57600080fd5b50356001600160a01b0316611890565b61031d6118a2565b61031d6118c6565b61034c600480360360408110156106f457600080fd5b506001600160a01b0381351690602001356118cc565b61031d6119fe565b61031d611a04565b61031d6004803603604081101561073057600080fd5b506001600160a01b038135169060200135611a0a565b61034c6004803603602081101561075c57600080fd5b50356001600160a01b0316611a3b565b61034c6004803603602081101561078257600080fd5b5035611b5c565b61031d6004803603604081101561079f57600080fd5b506001600160a01b038135169060200135611c6e565b610413611c8b565b61031d611c9a565b610682600480360360408110156107db57600080fd5b506001600160a01b038135169060200135611cbe565b600560205260009081526040902080546001820154600283015460038401546004909401549293919290919085565b7f000000000000000000000000000000000000000000000000000000000000000081565b60025460408051630ad7511760e31b8152905161094e926001600160a01b0316916313bc6d4b9133916356ba88b8916004808301926020929190829003018186803b15801561089257600080fd5b505afa1580156108a6573d6000803e3d6000fd5b505050506040513d60208110156108bc57600080fd5b5051604080517fffffffff0000000000000000000000000000000000000000000000000000000060e085901b1681526001600160a01b039092166004830152516024808301926020929190829003018186803b15801561091b57600080fd5b505afa15801561092f573d6000803e3d6000fd5b505050506040513d602081101561094557600080fd5b50516014611cea565b6002546040805163184a263160e11b815290516109c7926001600160a01b0316916330944c62916004808301926020929190829003018186803b15801561099457600080fd5b505afa1580156109a8573d6000803e3d6000fd5b505050506040513d60208110156109be57600080fd5b50516045611cea565b6000339050600154816001600160a01b0316636db9cc996040518163ffffffff1660e01b815260040160206040518083038186803b158015610a0857600080fd5b505afa158015610a1c573d6000803e3d6000fd5b505050506040513d6020811015610a3257600080fd5b505110610a4557610a4581836001611cf8565b5050565b6701aa535d3d0c000081565b600090815260086020526040902080546001820154600283015460039093015491939092916001600160601b031690565b848180151580610aae57506001600160a01b0382166000908152600f60205260409020546001105b15610bbd57600254604080516313bc6d4b60e01b81526001600160a01b0385811660048301529151610b389392909216916313bc6d4b91602480820192602092909190829003018186803b158015610b0557600080fd5b505afa158015610b19573d6000803e3d6000fd5b505050506040513d6020811015610b2f57600080fd5b50516048611cea565b6002546040805163364d118160e01b81526001600160a01b0385811660048301529151610bbd93929092169163364d118191602480820192602092909190829003018186803b158015610b8a57600080fd5b505afa158015610b9e573d6000803e3d6000fd5b505050506040513d6020811015610bb457600080fd5b50516023611cea565b610bd3336001600160a01b038416146023611cea565b610c0f826001600160a01b03166302fb0c5e6040518163ffffffff1660e01b815260040160206040518083038186803b158015610b8a57600080fd5b610c1b878787876120d7565b50505050505050565b6008602052600090815260409020805460018201546002830154600390930154919290916001600160601b031684565b7f000000000000000000000000000000000000000000000000000000000000000081565b6003546001600160a01b031681565b600080600080610cf2600260009054906101000a90046001600160a01b03166001600160a01b031663364d11818a6040518263ffffffff1660e01b815260040180826001600160a01b0316815260200191505060206040518083038186803b158015610b8a57600080fd5b60005b85811015610d4d57600080610d268b8a8a86818110610d1057fe5b905060200201356001600160a01b03168c6122f4565b9092509050610d358583612951565b9450610d418482612951565b93505050600101610cf5565b5081610d8e826040518060400160405280600381526020017f52323800000000000000000000000000000000000000000000000000000000008152506129b4565b93509350505094509492505050565b6002546040805163184a263160e11b81529051610de3926001600160a01b0316916330944c62916004808301926020929190829003018186803b15801561099457600080fd5b600254604080516313bc6d4b60e01b81523360048201529051610e2f926001600160a01b0316916313bc6d4b916024808301926020929190829003018186803b158015610b0557600080fd5b610a458282612a57565b690b581ceb141f05c1ae0081565b610e4f612b68565b6001600160a01b0316610e6061100e565b6001600160a01b031614610ebb576040805162461bcd60e51b815260206004820181905260248201527f4f776e61626c653a2063616c6c6572206973206e6f7420746865206f776e6572604482015290519081900360640190fd5b600080546040516001600160a01b03909116907f8be0079c531659141344cd1fd0a4f28419497f9722a3daafe3b4186f6b6457e0908390a36000805473ffffffffffffffffffffffffffffffffffffffff19169055565b6000610f1d82612b6c565b90505b919050565b6000610f3385858585612c7b565b90505b949350505050565b60096020526000908152604090205460ff1681565b7f000000000000000000000000000000000000000000000000000000000000000081565b600254604080516313bc6d4b60e01b81523360048201529051610fc3926001600160a01b0316916313bc6d4b916024808301926020929190829003018186803b158015610b0557600080fd5b600254610fdc906001600160a01b031633146010611cea565b600154610fe857426001555b565b7f000000000000000000000000000000000000000000000000000000000000000081565b6000546001600160a01b031690565b7f000000000000000000000000000000000000000000000000000000000000000081565b6000808290506110b8816001600160a01b031663d0f9953e6040518163ffffffff1660e01b815260040160206040518083038186803b15801561108357600080fd5b505afa158015611097573d6000803e3d6000fd5b505050506040513d60208110156110ad57600080fd5b505115156031611cea565b60025460408051632630c12f60e01b815290516000926001600160a01b031691632630c12f916004808301926020929190829003018186803b1580156110fd57600080fd5b505afa158015611111573d6000803e3d6000fd5b505050506040513d602081101561112757600080fd5b505160408051630ad7511760e31b815290519192506000916001600160a01b038085169263ac41865a92918716916356ba88b891600480820192602092909190829003018186803b15801561117b57600080fd5b505afa15801561118f573d6000803e3d6000fd5b505050506040513d60208110156111a557600080fd5b505160408051631f0b96b960e31b815290516001600160a01b039092169163f85cb5c891600480820192602092909190829003018186803b1580156111e957600080fd5b505afa1580156111fd573d6000803e3d6000fd5b505050506040513d602081101561121357600080fd5b5051604080517fffffffff0000000000000000000000000000000000000000000000000000000060e085901b1681526001600160a01b039092166004830152736b175474e89094c44da98b954eedeac495271d0f6024830152516044808301926020929190829003018186803b15801561128c57600080fd5b505afa1580156112a0573d6000803e3d6000fd5b505050506040513d60208110156112b657600080fd5b50516040805162f376cb60e21b815290519192506000916113359184916001600160a01b038816916303cddb2c916004808301926020929190829003018186803b15801561130357600080fd5b505afa158015611317573d6000803e3d6000fd5b505050506040513d602081101561132d57600080fd5b50519061313e565b9050600061137683866001600160a01b03166303976e386040518163ffffffff1660e01b815260040160206040518083038186803b15801561130357600080fd5b9050600154856001600160a01b0316636db9cc996040518163ffffffff1660e01b815260040160206040518083038186803b1580156113b457600080fd5b505afa1580156113c8573d6000803e3d6000fd5b505050506040513d60208110156113de57600080fd5b5051108015906113ef575060015415155b156117db576000856001600160a01b0316636db40dc26040518163ffffffff1660e01b815260040160206040518083038186803b15801561142f57600080fd5b505afa158015611443573d6000803e3d6000fd5b505050506040513d602081101561145957600080fd5b5051905080156114a257611495816040518060400160405280601081526020016f6f766572666c6f77203936206269747360801b8152506129b4565b9650505050505050610f20565b60008061157e886001600160a01b031663825deffe6040518163ffffffff1660e01b815260040160206040518083038186803b1580156114e157600080fd5b505afa1580156114f5573d6000803e3d6000fd5b505050506040513d602081101561150b57600080fd5b50516040805163687cca9f60e11b815290516001600160a01b038c169163d0f9953e916004808301926020929190829003018186803b15801561154d57600080fd5b505afa158015611561573d6000803e3d6000fd5b505050506040513d602081101561157757600080fd5b505161315c565b91509150600060018311611754576115978b87846131d4565b6000838152600860205260409020600301549091506115c3906001600160601b03168211156046611cea565b61174f60086000848152602001908152602001600020600201546117468b6001600160a01b031663dbabf4f36040518163ffffffff1660e01b815260040160206040518083038186803b15801561161957600080fd5b505afa15801561162d573d6000803e3d6000fd5b505050506040513d602081101561164357600080fd5b81019080805190602001909291905050506117406117398e6001600160a01b031663825deffe6040518163ffffffff1660e01b815260040160206040518083038186803b15801561169357600080fd5b505afa1580156116a7573d6000803e3d6000fd5b505050506040513d60208110156116bd57600080fd5b81019080805190602001909291905050508f6001600160a01b031663d0f9953e6040518163ffffffff1660e01b815260040160206040518083038186803b15801561170757600080fd5b505afa15801561171b573d6000803e3d6000fd5b505050506040513d602081101561173157600080fd5b5051906133f7565b8b90613454565b906133f7565b11156047611cea565b611763565b6117608b8784866134ad565b90505b600061176f8688613567565b9050671bc16d674ec8000081111561178c5750671bc16d674ec800005b611796828261313e565b91506117ca826040518060400160405280601081526020016f6f766572666c6f77203936206269747360801b8152506129b4565b9a5050505050505050505050610f20565b600095505050505050610f20565b600681815481106117f957600080fd5b600091825260209091200154905081565b6276a70081565b600090815260056020526040902080546001820154600283015460038401546004909401549294919390929091565b600b60209081526000928352604080842090915290825290208054600182015460039092015490919083565b7f000000000000000000000000000000000000000000000000000000000000000081565b600f6020526000908152604090205481565b7f000000000000000000000000000000000000000000000000000000000000000081565b60015481565b8181801515806118f457506001600160a01b0382166000908152600f60205260409020546001105b1561199d57600254604080516313bc6d4b60e01b81526001600160a01b038581166004830152915161194b9392909216916313bc6d4b91602480820192602092909190829003018186803b158015610b0557600080fd5b6002546040805163364d118160e01b81526001600160a01b038581166004830152915161199d93929092169163364d118191602480820192602092909190829003018186803b158015610b8a57600080fd5b6119b3336001600160a01b038416146023611cea565b6119ef826001600160a01b03166302fb0c5e6040518163ffffffff1660e01b815260040160206040518083038186803b158015610b8a57600080fd5b6119f88461357f565b50505050565b60045481565b60075481565b600e6020528160005260406000208181548110611a2657600080fd5b90600052602060002001600091509150505481565b611a43612b68565b6001600160a01b0316611a5461100e565b6001600160a01b031614611aaf576040805162461bcd60e51b815260206004820181905260248201527f4f776e61626c653a2063616c6c6572206973206e6f7420746865206f776e6572604482015290519081900360640190fd5b6001600160a01b038116611af45760405162461bcd60e51b8152600401808060200182810382526026815260200180615a716026913960400191505060405180910390fd5b600080546040516001600160a01b03808516939216917f8be0079c531659141344cd1fd0a4f28419497f9722a3daafe3b4186f6b6457e091a36000805473ffffffffffffffffffffffffffffffffffffffff19166001600160a01b0392909216919091179055565b60025460408051630ad7511760e31b81529051611baa926001600160a01b0316916313bc6d4b9133916356ba88b8916004808301926020929190829003018186803b15801561089257600080fd5b6002546040805163184a263160e11b81529051611bf0926001600160a01b0316916330944c62916004808301926020929190829003018186803b15801561099457600080fd5b6000339050600154816001600160a01b0316636db9cc996040518163ffffffff1660e01b815260040160206040518083038186803b158015611c3157600080fd5b505afa158015611c45573d6000803e3d6000fd5b505050506040513d6020811015611c5b57600080fd5b505110610a4557610a4581836000611cf8565b600a60209081526000928352604080842090915290825290205481565b6002546001600160a01b031681565b7f000000000000000000000000000000000000000000000000000000000000000081565b600d60209081526000928352604080842090915290825290208054600182015460029092015490919083565b81610a4557610a45816137a4565b60025460408051632630c12f60e01b8152905185926000926001600160a01b0390911691632630c12f91600480820192602092909190829003018186803b158015611d4257600080fd5b505afa158015611d56573d6000803e3d6000fd5b505050506040513d6020811015611d6c57600080fd5b505160408051630ad7511760e31b815290519192506000916001600160a01b038085169263ac41865a92918716916356ba88b891600480820192602092909190829003018186803b158015611dc057600080fd5b505afa158015611dd4573d6000803e3d6000fd5b505050506040513d6020811015611dea57600080fd5b505160408051631f0b96b960e31b815290516001600160a01b039092169163f85cb5c891600480820192602092909190829003018186803b158015611e2e57600080fd5b505afa158015611e42573d6000803e3d6000fd5b505050506040513d6020811015611e5857600080fd5b5051604080517fffffffff0000000000000000000000000000000000000000000000000000000060e085901b1681526001600160a01b039092166004830152736b175474e89094c44da98b954eedeac495271d0f6024830152516044808301926020929190829003018186803b158015611ed157600080fd5b505afa158015611ee5573d6000803e3d6000fd5b505050506040513d6020811015611efb57600080fd5b50519050611f09858261313e565b42600090815260056020526040902090955084611f3557600454611f2d90876133f7565b600455611f46565b600454611f429087612951565b6004555b60045481554260018201819055611f5c906137f7565b600282015560075460038201819055611f7b576000600482015561207a565b612074612023600560006006611f9d60016007546133f790919063ffffffff16565b81548110611fa757fe5b906000526020600020015481526020019081526020016000206000015461201d600560006006611fe360016007546133f790919063ffffffff16565b81548110611fed57fe5b906000526020600020015481526020019081526020016000206001015485600101546133f790919063ffffffff16565b90613454565b60056000600661203f60016007546133f790919063ffffffff16565b8154811061204957fe5b906000526020600020015481526020019081526020016000206004015461295190919063ffffffff16565b60048201555b60068054600181018255600091909152427ff652222313e28459528d920b65115c16c04f3efc82aaedc97be59f3f377c0d3f9091018190556120bb9061382f565b6120c58487613f3c565b50506007805460010190555050505050565b6001600160a01b038085166000818152600b602090815260408083209488168084529482529182902082516370a0823160e01b81526004810195909552915191936370a082319260248083019392829003018186803b15801561213957600080fd5b505afa15801561214d573d6000803e3d6000fd5b505050506040513d602081101561216357600080fd5b505142600081815260048401602052604090209182556001820155600382015460029091018190556121a957426000908152600482016020526040812060030155612202565b805460008181526004830160205260409020546121ec916121d0919061201d9042906133f7565b8254600090815260048401602052604090206003015490612951565b4260009081526004830160205260409020600301555b600182151514156122305782158061221c57506001810154155b15612228574260018201555b4281556122c7565b846001600160a01b03166370a08231856040518263ffffffff1660e01b815260040180826001600160a01b0316815260200191505060206040518083038186803b15801561227d57600080fd5b505afa158015612291573d6000803e3d6000fd5b505050506040513d60208110156122a757600080fd5b50516122c7576000808255600182018190556122c7906002830190615a3a565b60028101805460018181018355600092835260209092204291015560039091018054909101905550505050565b600080600084905061237f866001600160a01b0316826001600160a01b03166356ba88b86040518163ffffffff1660e01b815260040160206040518083038186803b15801561234257600080fd5b505afa158015612356573d6000803e3d6000fd5b505050506040513d602081101561236c57600080fd5b50516001600160a01b0316146049611cea565b612402866001600160a01b03166306061dfa876040518263ffffffff1660e01b815260040180826001600160a01b0316815260200191505060206040518083038186803b1580156123cf57600080fd5b505afa1580156123e3573d6000803e3d6000fd5b505050506040513d60208110156123f957600080fd5b50516049611cea565b60008060008060008061241487614298565b93509350935093506000808d6001600160a01b0316633d8270f58d6040518263ffffffff1660e01b815260040180826001600160a01b0316815260200191505060c06040518083038186803b15801561246c57600080fd5b505afa158015612480573d6000803e3d6000fd5b505050506040513d60c081101561249657600080fd5b50602080820151604092830151835163687cca9f60e11b81529351919550935083926001600160a01b038d169263d0f9953e92600480840193829003018186803b1580156124e357600080fd5b505afa1580156124f7573d6000803e3d6000fd5b505050506040513d602081101561250d57600080fd5b5051118015612580575081896001600160a01b031663825deffe6040518163ffffffff1660e01b815260040160206040518083038186803b15801561255157600080fd5b505afa158015612565573d6000803e3d6000fd5b505050506040513d602081101561257b57600080fd5b505110155b801561260157508d6001600160a01b0316896001600160a01b03166356ba88b86040518163ffffffff1660e01b815260040160206040518083038186803b1580156125ca57600080fd5b505afa1580156125de573d6000803e3d6000fd5b505050506040513d60208110156125f457600080fd5b50516001600160a01b0316145b1561293d5760006126eb8f8e8c6001600160a01b031663825deffe6040518163ffffffff1660e01b815260040160206040518083038186803b15801561264657600080fd5b505afa15801561265a573d6000803e3d6000fd5b505050506040513d602081101561267057600080fd5b81019080805190602001909291905050508d6001600160a01b031663d0f9953e6040518163ffffffff1660e01b815260040160206040518083038186803b1580156126ba57600080fd5b505afa1580156126ce573d6000803e3d6000fd5b505050506040513d60208110156126e457600080fd5b5051612c7b565b90506001871515141561272f5761272c612725877f0000000000000000000000000000000000000000000000000000000000000000614531565b87906133f7565b95505b6127476127408b8f8a8a8a8a614555565b8990612951565b975061275f6127588b8f8a8a6148b6565b8a90612951565b98506127726127408b8f8a8a8a8a614982565b97506127856127588b8f8a8a8a8a614d2b565b98506128916127406127fc8c6001600160a01b03166303cddb2c6040518163ffffffff1660e01b815260040160206040518083038186803b1580156127c957600080fd5b505afa1580156127dd573d6000803e3d6000fd5b505050506040513d60208110156127f357600080fd5b50518490613567565b61288b7f00000000000000000000000000000000000000000000000000000000000000008e6001600160a01b0316636db40dc26040518163ffffffff1660e01b815260040160206040518083038186803b15801561285957600080fd5b505afa15801561286d573d6000803e3d6000fd5b505050506040513d602081101561288357600080fd5b505190614531565b9061313e565b97508e6001600160a01b03166302d05d3f6040518163ffffffff1660e01b815260040160206040518083038186803b1580156128cc57600080fd5b505afa1580156128e0573d6000803e3d6000fd5b505050506040513d60208110156128f657600080fd5b50516001600160a01b038e81169116141561293b57612938612740897f0000000000000000000000000000000000000000000000000000000000000000614531565b97505b505b50959c949b50939950505050505050505050565b6000828201838110156129ab576040805162461bcd60e51b815260206004820152601b60248201527f536166654d6174683a206164646974696f6e206f766572666c6f770000000000604482015290519081900360640190fd5b90505b92915050565b6000816c010000000000000000000000008410612a4f5760405162461bcd60e51b81526004018080602001828103825283818151815260200191508051906020019080838360005b83811015612a145781810151838201526020016129fc565b50505050905090810190601f168015612a415780820380516001836020036101000a031916815260200191505b509250505060405180910390fd5b509192915050565b6002546040805163184a263160e11b81529051612a9d926001600160a01b0316916330944c62916004808301926020929190829003018186803b15801561099457600080fd5b600354604080516370a0823160e01b815230600482015290516000926001600160a01b0316916370a08231916024808301926020929190829003018186803b158015612ae857600080fd5b505afa158015612afc573d6000803e3d6000fd5b505050506040513d6020811015612b1257600080fd5b505190506001600160601b038216811015612b4357600354612b3e906001600160a01b03168483614f44565b612b63565b600354612b63906001600160a01b0316846001600160601b038516614f44565b505050565b3390565b6000612b7d6001831015604a611cea565b6102018210612b8e57506000610f20565b6000612c26612b9e8460016133f7565b612c206701aa535d3d0c000073__$cd00f7bc85cfd34feb4171d2d22c665f63$__63907af6c06040518163ffffffff1660e01b815260040160206040518083038186803b158015612bee57600080fd5b505af4158015612c02573d6000803e3d6000fd5b505050506040513d6020811015612c1857600080fd5b505190612951565b90614fc4565b90506000612c3e690b581ceb141f05c1ae0083613567565b9050612c72816040518060400160405280601081526020016f6f766572666c6f77203936206269747360801b8152506129b4565b92505050610f20565b6000612cfb856001600160a01b031663cb12233b6040518163ffffffff1660e01b815260040160206040518083038186803b158015612cb957600080fd5b505afa158015612ccd573d6000803e3d6000fd5b505050506040513d6020811015612ce357600080fd5b50518310801590612cf45750838310155b6041611cea565b6001600160a01b038086166000818152600b60209081526040808320948916808452948252808320938352600c825280832094835293815290839020835160808101855281548152600180830154938201939093526002820154948101949094526003015460608401528101549091901580612d7a5750838260010154115b15612d8a57600092505050610f36565b866001600160a01b031663cb12233b6040518163ffffffff1660e01b815260040160206040518083038186803b158015612dc357600080fd5b505afa158015612dd7573d6000803e3d6000fd5b505050506040513d6020811015612ded57600080fd5b50518511612e5d57866001600160a01b031663cb12233b6040518163ffffffff1660e01b815260040160206040518083038186803b158015612e2e57600080fd5b505afa158015612e42573d6000803e3d6000fd5b505050506040513d6020811015612e5857600080fd5b505194505b612e698787878761506d565b60208301528152612e7b87868661519c565b6060830152604082015260208101518151612ead9110801590612ea657508160600151826040015111155b6051611cea565b6000808260000151871015612ec55760009150612f32565b8251871115612f1957825160009081526004850160205260409020548351612f1291612ef69161201d908b906133f7565b8451600090815260048701602052604090206003015490612951565b9150612f32565b8251600090815260048501602052604090206003015491505b6001600160a01b0389166000908152600d60209081526040808320868201805185529252909120549051612f9f91612f6f9161201d908b906133f7565b6001600160a01b038b166000908152600d6020908152604080832088820151845290915290206002015490612951565b9050612faf818311156050611cea565b85871415612fde5780612fc9576000945050505050610f36565b612fd38282613567565b945050505050610f36565b8260200151861015612ff7576000945050505050610f36565b82602001518614801561300e575060208301518351145b15613098576001600160a01b0389166000908152600d6020908152604080832060608701805185529252909120549051613088918391611740916130579161201d908c906133f7565b6001600160a01b038d166000908152600d6020908152604080832060608b0151845290915290206002015490612951565b9050612fc9818311156050611cea565b6130f6826117406130d6876004016000886020015181526020019081526020016000206000015461201d88602001518c6133f790919063ffffffff16565b602080880151600090815260048a01909152604090206003015490612951565b6001600160a01b038a166000908152600d602090815260408083206060880180518552925290912054905191935061308891839161174091613057919061201d908c906133f7565b60006129ab670de0b6b3a76400006131568585613454565b906152b4565b60008080613183670de0b6b3a76400006131566276a70061317d888a6133f7565b90615313565b905060006131af670de0b6b3a76400006131566276a70061317d6001548b6133f790919063ffffffff16565b90506131bc826001612951565b6131c7826001612951565b9350935050509250929050565b6000613227600260009054906101000a90046001600160a01b03166001600160a01b03166330944c626040518163ffffffff1660e01b815260040160206040518083038186803b15801561099457600080fd5b6000849050600061336a826001600160a01b031663dbabf4f36040518163ffffffff1660e01b815260040160206040518083038186803b15801561326a57600080fd5b505afa15801561327e573d6000803e3d6000fd5b505050506040513d602081101561329457600080fd5b5051604080517f825deffe000000000000000000000000000000000000000000000000000000008152905161174091613363916001600160a01b0388169163825deffe916004808301926020929190829003018186803b1580156132f757600080fd5b505afa15801561330b573d6000803e3d6000fd5b505050506040513d602081101561332157600080fd5b50516040805163687cca9f60e11b815290516001600160a01b0389169163d0f9953e916004808301926020929190829003018186803b15801561170757600080fd5b8890613454565b90506133eb61337942866133f7565b6131566133b987866001600160a01b031663d0f9953e6040518163ffffffff1660e01b815260040160206040518083038186803b15801561170757600080fd5b6000888152600860205260409020600381015460029091015461201d916001600160601b03169061288b908890613567565b925050505b9392505050565b60008282111561344e576040805162461bcd60e51b815260206004820152601e60248201527f536166654d6174683a207375627472616374696f6e206f766572666c6f770000604482015290519081900360640190fd5b50900390565b600082613463575060006129ae565b8282028284828161347057fe5b04146129ab5760405162461bcd60e51b8152600401808060200182810382526021815260200180615a976021913960400191505060405180910390fd5b6000613500600260009054906101000a90046001600160a01b03166001600160a01b03166330944c626040518163ffffffff1660e01b815260040160206040518083038186803b15801561099457600080fd5b6000805b61350f8460016133f7565b811161355d57600061353461352b6276a70061201d8986612951565b60015490612951565b90506000613545898989868661539b565b90506135518482612951565b93505050600101613504565b5095945050505050565b60006129ab8261315685670de0b6b3a7640000613454565b6001600160a01b0381166000818152600d6020908152604080832042845282529182902082517f18160ddd00000000000000000000000000000000000000000000000000000000815292518594919391926318160ddd9260048082019391829003018186803b1580156135f157600080fd5b505afa158015613605573d6000803e3d6000fd5b505050506040513d602081101561361b57600080fd5b505181554260018201556001600160a01b0383166000908152600f602052604090205461364e5760006002820155613762565b6001600160a01b0382166000908152600d60209081526040808320600e8352818420600f9093529083205461375c936136ed93909161368e9060016133f7565b8154811061369857fe5b600091825260208083209091015483528281019390935260409182018120546001600160a01b0388168252600d8452828220600e8552838320600f90955292822054909361201d939291611fe39060016133f7565b6001600160a01b0384166000908152600d60209081526040808320600e8352818420600f90935290832054909291906137279060016133f7565b8154811061373157fe5b906000526020600020015481526020019081526020016000206002015461295190919063ffffffff16565b60028201555b506001600160a01b03166000818152600e6020908152604080832080546001818101835591855283852042910155938352600f90915290208054909101905550565b62461bcd60e51b6000908152602060045260076024526642414223000030600a808404818106603090810160081b95839006959095019082900491820690940160101b939093010160c81b604452606490fd5b600080613822670de0b6b3a76400006131566276a70061317d600154886133f790919063ffffffff16565b90506133f0816001612951565b6002546040805163184a263160e11b81529051613875926001600160a01b0316916330944c62916004808301926020929190829003018186803b15801561099457600080fd5b600060086000613884846137f7565b81526020019081526020016000209050600960006138a66001611740866137f7565b815260208101919091526040016000205460ff16613f01576138c7826137f7565b600182015560075461391757600060028201556138eb6138e6836137f7565b612b6c565b6003820180546bffffffffffffffffffffffff19166001600160601b0392909216919091179055613ec9565b600061398460056000600661393860016007546133f790919063ffffffff16565b8154811061394257fe5b906000526020600020015481526020019081526020016000206004015460056000868152602001908152602001600020600401546133f790919063ffffffff16565b90506139946001611740856137f7565b6005600060066139b060016007546133f790919063ffffffff16565b815481106139ba57fe5b90600052602060002001548152602001908152602001600020600201541415613b0557613a5c613a356005600060066139ff60016007546133f790919063ffffffff16565b81548110613a0957fe5b9060005260206000200154815260200190815260200160002060010154856133f790919063ffffffff16565b613156613a5561272561352b6276a7006117406276a70061201d8c6137f7565b8490613454565b6002830155613a6d6138e6846137f7565b6003830180546bffffffffffffffffffffffff19166001600160601b03929092169190911790556002820154613ada90613aa89083906133f7565b60086000613aba6001611740896137f7565b81526020019081526020016000206002015461295190919063ffffffff16565b60086000613aec6001611740886137f7565b8152602081019190915260400160002060020155613ec7565b60005b613b57600560006006613b2760016007546133f790919063ffffffff16565b81548110613b3157fe5b9060005260206000200154815260200190815260200160002060020154611740866137f7565b8111613ec557600060086000613b838460056000600661372760016007546133f790919063ffffffff16565b815260200190815260200160002090506000613bbf61352b6276a70061201d8660056000600661372760016007546133f790919063ffffffff16565b905082613ccd57613c84613c79613c21600560006006613beb60016007546133f790919063ffffffff16565b81548110613bf557fe5b9060005260206000200154815260200190815260200160002060010154896133f790919063ffffffff16565b613156613363600560006006613c4360016007546133f790919063ffffffff16565b81548110613c4d57fe5b9060005260206000200154815260200190815260200160002060010154866133f790919063ffffffff16565b600284015490612951565b6002830155600754600590600090600690613ca09060016133f7565b81548110613caa57fe5b600091825260208083209091015483528201929092526040019020548255613ebb565b613d1c600560006006613cec60016007546133f790919063ffffffff16565b81548110613cf657fe5b9060005260206000200154815260200190815260200160002060020154611740886137f7565b831015613e1f57613d88613d7b600560006006613d4560016007546133f790919063ffffffff16565b81548110613d4f57fe5b9060005260206000200154815260200190815260200160002060010154886133f790919063ffffffff16565b613156866276a700613454565b8260020181905550613db36138e68460056000600661372760016007546133f790919063ffffffff16565b8260030160006101000a8154816001600160601b0302191690836001600160601b03160217905550613dfb8360056000600661372760016007546133f790919063ffffffff16565b8260010181905550600560006006613ca060016007546133f790919063ffffffff16565b613e6f613e41600560006006613d4560016007546133f790919063ffffffff16565b613156613e68613e6161352b6276a7006117406276a70061201d8f6137f7565b8a906133f7565b8790613454565b6002860155613e806138e6876137f7565b6003860180546bffffffffffffffffffffffff19166001600160601b0392909216919091179055613eb0866137f7565b600186015560045485555b5050600101613b08565b505b505b600160096000613edd6001611740876137f7565b81526020810191909152604001600020805460ff1916911515919091179055613f34565b613f2e613f2360056000600661393860016007546133f790919063ffffffff16565b600283015490612951565b60028201555b600454905550565b6002546040805163184a263160e11b81529051613f82926001600160a01b0316916330944c62916004808301926020929190829003018186803b15801561099457600080fd5b816001600160a01b0316637519ab506040518163ffffffff1660e01b815260040160206040518083038186803b158015613fbb57600080fd5b505afa158015613fcf573d6000803e3d6000fd5b505050506040513d6020811015613fe557600080fd5b505115610a4557614059826001600160a01b0316637519ab506040518163ffffffff1660e01b815260040160206040518083038186803b15801561402857600080fd5b505afa15801561403c573d6000803e3d6000fd5b505050506040513d602081101561405257600080fd5b50516137f7565b614062426137f7565b141561415b576141236140e46140dd846001600160a01b0316637519ab506040518163ffffffff1660e01b815260040160206040518083038186803b1580156140aa57600080fd5b505afa1580156140be573d6000803e3d6000fd5b505050506040513d60208110156140d457600080fd5b505142906133f7565b8390613454565b6001600160a01b0384166000908152600a6020526040812090614106426137f7565b81526020019081526020016000205461295190919063ffffffff16565b6001600160a01b0383166000908152600a6020526040812090614145426137f7565b8152602081019190915260400160002055610a45565b6000806141cc846001600160a01b0316637519ab506040518163ffffffff1660e01b815260040160206040518083038186803b15801561419a57600080fd5b505afa1580156141ae573d6000803e3d6000fd5b505050506040513d60208110156141c457600080fd5b50514261315c565b91509150600061421583613156613e68886001600160a01b0316637519ab506040518163ffffffff1660e01b815260040160206040518083038186803b1580156140aa57600080fd5b905060005b6142258460016133f7565b8111614290576001600160a01b0386166000908152600a60205260408120614254918491906141068786612951565b6001600160a01b0387166000908152600a60205260408120906142778685612951565b815260208101919091526040016000205560010161421a565b505050505050565b60008060008060008590506000816001600160a01b03166303976e386040518163ffffffff1660e01b815260040160206040518083038186803b1580156142de57600080fd5b505afa1580156142f2573d6000803e3d6000fd5b505050506040513d602081101561430857600080fd5b50516040805163d3406abd60e01b81529051919250600091614410916143c3916001600160a01b0387169163d3406abd916004808301926020929190829003018186803b15801561435857600080fd5b505afa15801561436c573d6000803e3d6000fd5b505050506040513d602081101561438257600080fd5b50516040805162f376cb60e21b815290516001600160a01b038816916303cddb2c916004808301926020929190829003018186803b15801561130357600080fd5b846001600160a01b03166303cddb2c6040518163ffffffff1660e01b815260040160206040518083038186803b1580156143fc57600080fd5b505afa158015612c02573d6000803e3d6000fd5b90506000836001600160a01b03166303cddb2c6040518163ffffffff1660e01b815260040160206040518083038186803b15801561444d57600080fd5b505afa158015614461573d6000803e3d6000fd5b505050506040513d602081101561447757600080fd5b505190506000808080848711801561448f5750858710155b156144b857600193508392506144a587866133f7565b91506144b187876133f7565b905061451d565b8487101580156144c757508587105b156144ea5760019350600092506144de87866133f7565b91506144b186886133f7565b84871080156144f857508587105b1561451d576000935083925061450e85886133f7565b915061451a86886133f7565b90505b929a50985096509450505050509193509193565b6000670de0b6b3a76400006145468484613454565b8161454d57fe5b049392505050565b6000808790506000816001600160a01b0316636db40dc26040518163ffffffff1660e01b815260040160206040518083038186803b15801561459657600080fd5b505afa1580156145aa573d6000803e3d6000fd5b505050506040513d60208110156145c057600080fd5b50516040805163d3406abd60e01b81529051919250600091829182916146b89161467f916001600160a01b0389169163d3406abd916004808301926020929190829003018186803b15801561461457600080fd5b505afa158015614628573d6000803e3d6000fd5b505050506040513d602081101561463e57600080fd5b50516040805162f376cb60e21b815290516001600160a01b038a16916303cddb2c916004808301926020929190829003018186803b15801561130357600080fd5b866001600160a01b03166303cddb2c6040518163ffffffff1660e01b815260040160206040518083038186803b1580156143fc57600080fd5b90508a6001600160a01b0316856001600160a01b0316631fe4a6866040518163ffffffff1660e01b815260040160206040518083038186803b1580156146fd57600080fd5b505afa158015614711573d6000803e3d6000fd5b505050506040513d602081101561472757600080fd5b50516001600160a01b0316141561489657614762847f0000000000000000000000000000000000000000000000000000000000000000614531565b925060018a151514801561477857506001881515145b156147ed57614788836002613454565b91506147da6147d36147cc876001600160a01b03166303976e386040518163ffffffff1660e01b815260040160206040518083038186803b1580156127c957600080fd5b859061313e565b8490612951565b9250818311156147e8578192505b6148a4565b60018a15151480156147fd575087155b156148965761488f61488861488161487a84896001600160a01b03166303976e386040518163ffffffff1660e01b815260040160206040518083038186803b15801561484857600080fd5b505afa15801561485c573d6000803e3d6000fd5b505050506040513d602081101561487257600080fd5b505190613567565b869061313e565b85906133f7565b84906133f7565b92506148a4565b6000955050505050506148ac565b509093505050505b9695505050505050565b600084816001851515141561497557856001600160a01b0316826001600160a01b0316631fe4a6866040518163ffffffff1660e01b815260040160206040518083038186803b15801561490857600080fd5b505afa15801561491c573d6000803e3d6000fd5b505050506040513d602081101561493257600080fd5b50516001600160a01b031614156149705761496d847f0000000000000000000000000000000000000000000000000000000000000000614531565b90505b6148ac565b5060009695505050505050565b6000808790506000816001600160a01b0316636db40dc26040518163ffffffff1660e01b815260040160206040518083038186803b1580156149c357600080fd5b505afa1580156149d7573d6000803e3d6000fd5b505050506040513d60208110156149ed57600080fd5b5051604080517f950c78220000000000000000000000000000000000000000000000000000000081526001600160a01b038b8116600483015291519293506000929185169163950c782291602480820192602092909190829003018186803b158015614a5857600080fd5b505afa158015614a6c573d6000803e3d6000fd5b505050506040513d6020811015614a8257600080fd5b50516040805163d3406abd60e01b815290519192506000918291614ad59161467f916001600160a01b0389169163d3406abd91600480820192602092909190829003018186803b15801561461457600080fd5b905060008084138015614aea575060018b1515145b8015614af857506001891515145b15614ba057614b99614b6f876001600160a01b031663d40244cb6040518163ffffffff1660e01b815260040160206040518083038186803b158015614b3c57600080fd5b505afa158015614b50573d6000803e3d6000fd5b505050506040513d6020811015614b6657600080fd5b50518690613567565b61288b877f0000000000000000000000000000000000000000000000000000000000000000614531565b9050614d1b565b600084138015614bb2575060018b1515145b8015614bbc575088155b15614c2057614c00614b6f876001600160a01b031663d40244cb6040518163ffffffff1660e01b815260040160206040518083038186803b158015614b3c57600080fd5b9050614b99614c19614c128a85613567565b839061313e565b82906133f7565b600084138015614c2e57508a155b15614c3b57506000614d1b565b600084128015614c49575088155b15614d0057614cc8614b6f876001600160a01b031663449b98266040518163ffffffff1660e01b815260040160206040518083038186803b158015614c8d57600080fd5b505afa158015614ca1573d6000803e3d6000fd5b505050506040513d6020811015614cb757600080fd5b5051614cc2876157e1565b90613567565b9050614cd5816002613454565b9250614cee614ce7614c128a85613567565b8290612951565b905082811115614cfb5750815b614d1b565b600084128015614d1257506001891515145b15614d1b575060005b9c9b505050505050505050505050565b600080879050600080826001600160a01b031663950c78228a6040518263ffffffff1660e01b815260040180826001600160a01b0316815260200191505060206040518083038186803b158015614d8157600080fd5b505afa158015614d95573d6000803e3d6000fd5b505050506040513d6020811015614dab57600080fd5b5051905060018815151415614f32576000811315614e6057614e59836001600160a01b031663d40244cb6040518163ffffffff1660e01b815260040160206040518083038186803b158015614dff57600080fd5b505afa158015614e13573d6000803e3d6000fd5b505050506040513d6020811015614e2957600080fd5b5051614cc28361288b8b7f0000000000000000000000000000000000000000000000000000000000000000614531565b9150614f2d565b600081128015614e6e575085155b15614f1157614e59836001600160a01b031663449b98266040518163ffffffff1660e01b815260040160206040518083038186803b158015614eaf57600080fd5b505afa158015614ec3573d6000803e3d6000fd5b505050506040513d6020811015614ed957600080fd5b5051614cc2614ee7846157e1565b61288b8b7f0000000000000000000000000000000000000000000000000000000000000000614531565b600081128015614f2357506001861515145b15614f2d57600091505b614f37565b600091505b5098975050505050505050565b604080516001600160a01b038416602482015260448082018490528251808303909101815260649091019091526020810180517bffffffffffffffffffffffffffffffffffffffffffffffffffffffff167fa9059cbb00000000000000000000000000000000000000000000000000000000179052612b639084906157f8565b60008073__$cd00f7bc85cfd34feb4171d2d22c665f63$__63907af6c06040518163ffffffff1660e01b815260040160206040518083038186803b15801561500b57600080fd5b505af415801561501f573d6000803e3d6000fd5b505050506040513d602081101561503557600080fd5b505190505b82156129ab576002830615615056576150538185614531565b90505b6150608480614531565b935060028304925061503a565b6001600160a01b038085166000908152600b60209081526040808320938716835292905290812060028101805483929183916150aa9060016133f7565b815481106150b457fe5b906000526020600020015490506000826002016000815481106150d357fe5b90600052602060002001549050858211806150ed57508681105b1561518f5760005b60028401546151059060016133f7565b811161518d578684600201828154811061511b57fe5b9060005260206000200154116151485783600201818154811061513a57fe5b906000526020600020015492505b8784600201828154811061515857fe5b9060005260206000200154116151855783600201818154811061517757fe5b906000526020600020015491505b6001016150f5565b505b9890975095505050505050565b6001600160a01b0383166000908152600e6020526040812054819081906151c49060016133f7565b6001600160a01b0387166000908152600e6020526040812080549293509091839081106151ed57fe5b906000526020600020015490506000600e6000896001600160a01b03166001600160a01b0316815260200190815260200160002060008154811061522d57fe5b906000526020600020015490508582118061524757508681105b156152a85760005b8381116152a6576001600160a01b0389166000908152600e6020526040812080548390811061527a57fe5b90600052602060002001549050878111615292578093505b88811161529d578092505b5060010161524f565b505b97909650945050505050565b600080821161530a576040805162461bcd60e51b815260206004820152601a60248201527f536166654d6174683a206469766973696f6e206279207a65726f000000000000604482015290519081900360640190fd5b81838161454d57fe5b600081615367576040805162461bcd60e51b815260206004820152601060248201527f43616e7420646976696465206279203000000000000000000000000000000000604482015290519081900360640190fd5b600083116153765760006129ab565b6129ab6001615395846131568361174089670de0b6b3a7640000613454565b90612951565b60006153ee600260009054906101000a90046001600160a01b03166001600160a01b03166330944c626040518163ffffffff1660e01b815260040160206040518083038186803b15801561099457600080fd5b6000806000670de0b6b3a764000090508461543f6276a7008b6001600160a01b031663825deffe6040518163ffffffff1660e01b815260040160206040518083038186803b1580156143fc57600080fd5b11156155335761552c600a60008b6001600160a01b03166001600160a01b0316815260200190815260200160002060006154ab8c6001600160a01b031663825deffe6040518163ffffffff1660e01b815260040160206040518083038186803b15801561402857600080fd5b8152602001908152602001600020546117406117398c6001600160a01b031663825deffe6040518163ffffffff1660e01b815260040160206040518083038186803b1580156154f957600080fd5b505afa15801561550d573d6000803e3d6000fd5b505050506040513d602081101561552357600080fd5b505189906133f7565b9250615768565b615540856276a7006133f7565b896001600160a01b031663825deffe6040518163ffffffff1660e01b815260040160206040518083038186803b15801561557957600080fd5b505afa15801561558d573d6000803e3d6000fd5b505050506040513d60208110156155a357600080fd5b50511080156156155750886001600160a01b031663d0f9953e6040518163ffffffff1660e01b815260040160206040518083038186803b1580156155e657600080fd5b505afa1580156155fa573d6000803e3d6000fd5b505050506040513d602081101561561057600080fd5b505185105b15615676576001600160a01b0389166000908152600a6020526040812061552c9161564b61564689623b53806133f7565b6137f7565b815260208101919091526040016000205461174061173961566f896276a7006133f7565b89906133f7565b6156a0615689612725876276a7006133f7565b614cc2615699886276a7006133f7565b42906133f7565b9050615765600a60008b6001600160a01b03166001600160a01b0316815260200190815260200160002060006157088c6001600160a01b031663d0f9953e6040518163ffffffff1660e01b815260040160206040518083038186803b15801561402857600080fd5b815260208101919091526040016000205461174061173961572c896276a7006133f7565b8d6001600160a01b031663d0f9953e6040518163ffffffff1660e01b815260040160206040518083038186803b15801561170757600080fd5b92505b600860006157768989612951565b8152602001908152602001600020600201549150615798828411156047611cea565b6157d48161288b600860006157ad8c8c612951565b81526020810191909152604001600020600301546001600160601b031661288b8787613567565b9998505050505050505050565b6000808212156157f45781600003610f1d565b5090565b600061584d826040518060400160405280602081526020017f5361666545524332303a206c6f772d6c6576656c2063616c6c206661696c6564815250856001600160a01b03166158a99092919063ffffffff16565b805190915015612b635780806020019051602081101561586c57600080fd5b5051612b635760405162461bcd60e51b815260040180806020018281038252602a815260200180615ab8602a913960400191505060405180910390fd5b6060610f368484600085856158bd856159ce565b61590e576040805162461bcd60e51b815260206004820152601d60248201527f416464726573733a2063616c6c20746f206e6f6e2d636f6e7472616374000000604482015290519081900360640190fd5b600080866001600160a01b031685876040518082805190602001908083835b6020831061594c5780518252601f19909201916020918201910161592d565b6001836020036101000a03801982511681845116808217855250505050505090500191505060006040518083038185875af1925050503d80600081146159ae576040519150601f19603f3d011682016040523d82523d6000602084013e6159b3565b606091505b50915091506159c38282866159d4565b979650505050505050565b3b151590565b606083156159e35750816133f0565b8251156159f35782518084602001fd5b60405162461bcd60e51b8152602060048201818152845160248401528451859391928392604401919085019080838360008315612a145781810151838201526020016129fc565b5080546000825590600052602060002090810190615a589190615a5b565b50565b5b808211156157f45760008155600101615a5c56fe4f776e61626c653a206e6577206f776e657220697320746865207a65726f2061646472657373536166654d6174683a206d756c7469706c69636174696f6e206f766572666c6f775361666545524332303a204552433230206f7065726174696f6e20646964206e6f742073756363656564a26469706673582212207d76dc61c75912a4aacd4afccc7307b4251bb6bdc2395d98365545646d0d10d664736f6c63430007060033",
  "libraries": {
    "SafeDecimalMath": "0x2de341674a99b379DA0fE53c00ae4Cf251adaE89"
  },
  "devdoc": {
    "author": "Babylon Finance Rewards Distributor contract is a smart contract used to calculate and distribute all the BABL rewards of the BABL Mining Program along the time reserved for executed strategies. It implements a supply curve to distribute 500K BABL along the time. The supply curve is designed to optimize the long-term sustainability of the protocol. The rewards are front-loaded but they last for more than 10 years, slowly decreasing quarter by quarter. For that, it houses the state of the protocol power along the time as each strategy power is compared to the whole protocol usage. Rewards Distributor also is responsible for the calculation and delivery of other rewards as bonuses to specific profiles which are actively contributing to the protocol growth and their communities (Garden creators, Strategists and Stewards).",
    "kind": "dev",
    "methods": {
      "addProtocolPrincipal(uint256)": {
        "params": {
          "_capital": "Amount of capital in any type of asset to be normalized into DAI"
        }
      },
      "checkProtocol(uint256)": {
        "params": {
          "time": "Timestamp"
        }
      },
      "checkQuarter(uint256)": {
        "params": {
          "_num": "Number of quarter"
        }
      },
      "getContributorPower(address,address,uint256,uint256)": {
        "params": {
          "_contributor": "Address if the contributor",
          "_from": "Initial timestamp",
          "_garden": "Address of the garden where the contributor belongs to",
          "_to": "End timestamp"
        },
        "returns": {
          "_0": "uint256     Contributor power during that period"
        }
      },
      "getRewards(address,address,address[])": {
        "params": {
          "_contributor": "Address of the contributor to check",
          "_finalizedStrategies": "List of addresses of the finalized strategies to check",
          "_garden": "Garden to which the strategies and the user must belong to"
        }
      },
      "getStrategyRewards(address)": {
        "params": {
          "_strategy": "Strategy to check"
        }
      },
      "owner()": {
        "details": "Returns the address of the current owner."
      },
      "renounceOwnership()": {
        "details": "Leaves the contract without owner. It will not be possible to call `onlyOwner` functions anymore. Can only be called by the current owner. NOTE: Renouncing ownership will leave the contract without an owner, thereby removing any functionality that is only available to the owner."
      },
      "sendTokensToContributor(address,uint96)": {
        "params": {
          "_amount": "Amount of tokens to send the address to",
          "_to": "Address to send the tokens to"
        }
      },
      "setContributorTimestampParams(address,address,uint256,bool,uint256)": {
        "params": {
          "_contributor": "Address of the contributor",
          "_depositOrWithdraw": "If the timestamp is a deposit (true) or a withdraw (false)",
          "_garden": "Address of the garden the contributor belongs to",
          "_pid": "The pid # of the Garden timestamps",
          "_previousBalance": "Previous balance of the contributor"
        }
      },
      "substractProtocolPrincipal(uint256)": {
        "params": {
          "_capital": "Amount of capital in any type of asset to be normalized into DAI"
        }
      },
      "tokenSupplyPerQuarter(uint256)": {
        "params": {
          "_quarter": "Number of the epoch (quarter)"
        }
      },
      "transferOwnership(address)": {
        "details": "Transfers ownership of the contract to a new account (`newOwner`). Can only be called by the current owner."
      },
      "updateGardenPower(address,uint256)": {
        "params": {
          "_garden": "Address of the garden",
          "_pid": "The pid # of the Garden timestamp"
        }
      }
    },
    "title": "Rewards Distributor implementing the BABL Mining Program and other Rewards to Strategists and Stewards",
    "version": 1
  },
  "userdoc": {
    "kind": "user",
    "methods": {
      "addProtocolPrincipal(uint256)": {
        "notice": "Function that adds the capital received to the total principal of the protocol per timestamp"
      },
      "checkProtocol(uint256)": {
        "notice": "Check the protocol state in a certain timestamp"
      },
      "checkQuarter(uint256)": {
        "notice": "Check the quarter state for a specific quarter"
      },
      "getContributorPower(address,address,uint256,uint256)": {
        "notice": "Gets the contributor power from one timestamp to the other"
      },
      "getRewards(address,address,address[])": {
        "notice": "Calculates the profits and BABL that a contributor should receive from a series of finalized strategies"
      },
      "getStrategyRewards(address)": {
        "notice": "Gets the total amount of rewards for a given strategy"
      },
      "sendTokensToContributor(address,uint96)": {
        "notice": "Sends BABL tokens rewards to a contributor after a claim is requested to the protocol."
      },
      "setContributorTimestampParams(address,address,uint256,bool,uint256)": {
        "notice": "Function that set each contributor timestamp per garden"
      },
      "startBABLRewards()": {
        "notice": "Starts BABL Rewards Mining Program from the controller."
      },
      "substractProtocolPrincipal(uint256)": {
        "notice": "Function that removes the capital received to the total principal of the protocol per timestamp"
      },
      "tokenSupplyPerQuarter(uint256)": {
        "notice": "Calculates the BABL rewards supply for each quarter"
      },
      "updateGardenPower(address,uint256)": {
        "notice": "Function that set each garden timestamp"
      }
    },
    "version": 1
  },
  "storageLayout": {
    "storage": [
      {
        "astId": 1456,
        "contract": "contracts/token/RewardsDistributor.sol:RewardsDistributor",
        "label": "_owner",
        "offset": 0,
        "slot": "0",
        "type": "t_address"
      },
      {
        "astId": 33816,
        "contract": "contracts/token/RewardsDistributor.sol:RewardsDistributor",
        "label": "START_TIME",
        "offset": 0,
        "slot": "1",
        "type": "t_uint256"
      },
      {
        "astId": 33896,
        "contract": "contracts/token/RewardsDistributor.sol:RewardsDistributor",
        "label": "controller",
        "offset": 0,
        "slot": "2",
        "type": "t_contract(IBabController)22767"
      },
      {
        "astId": 33898,
        "contract": "contracts/token/RewardsDistributor.sol:RewardsDistributor",
        "label": "babltoken",
        "offset": 0,
        "slot": "3",
        "type": "t_contract(TimeLockedToken)39515"
      },
      {
        "astId": 33901,
        "contract": "contracts/token/RewardsDistributor.sol:RewardsDistributor",
        "label": "protocolPrincipal",
        "offset": 0,
        "slot": "4",
        "type": "t_uint256"
      },
      {
        "astId": 33905,
        "contract": "contracts/token/RewardsDistributor.sol:RewardsDistributor",
        "label": "protocolPerTimestamp",
        "offset": 0,
        "slot": "5",
        "type": "t_mapping(t_uint256,t_struct(ProtocolPerTimestamp)33846_storage)"
      },
      {
        "astId": 33908,
        "contract": "contracts/token/RewardsDistributor.sol:RewardsDistributor",
        "label": "timeList",
        "offset": 0,
        "slot": "6",
        "type": "t_array(t_uint256)dyn_storage"
      },
      {
        "astId": 33911,
        "contract": "contracts/token/RewardsDistributor.sol:RewardsDistributor",
        "label": "pid",
        "offset": 0,
        "slot": "7",
        "type": "t_uint256"
      },
      {
        "astId": 33915,
        "contract": "contracts/token/RewardsDistributor.sol:RewardsDistributor",
        "label": "protocolPerQuarter",
        "offset": 0,
        "slot": "8",
        "type": "t_mapping(t_uint256,t_struct(ProtocolPerQuarter)33855_storage)"
      },
      {
        "astId": 33919,
        "contract": "contracts/token/RewardsDistributor.sol:RewardsDistributor",
        "label": "isProtocolPerQuarter",
        "offset": 0,
        "slot": "9",
        "type": "t_mapping(t_uint256,t_bool)"
      },
      {
        "astId": 33925,
        "contract": "contracts/token/RewardsDistributor.sol:RewardsDistributor",
        "label": "rewardsPowerOverhead",
        "offset": 0,
        "slot": "10",
        "type": "t_mapping(t_address,t_mapping(t_uint256,t_uint256))"
      },
      {
        "astId": 33931,
        "contract": "contracts/token/RewardsDistributor.sol:RewardsDistributor",
        "label": "contributorPerGarden",
        "offset": 0,
        "slot": "11",
        "type": "t_mapping(t_address,t_mapping(t_address,t_struct(ContributorPerGarden)33876_storage))"
      },
      {
        "astId": 33937,
        "contract": "contracts/token/RewardsDistributor.sol:RewardsDistributor",
        "label": "checkpoints",
        "offset": 0,
        "slot": "12",
        "type": "t_mapping(t_address,t_mapping(t_address,t_struct(Checkpoints)33894_storage))"
      },
      {
        "astId": 33943,
        "contract": "contracts/token/RewardsDistributor.sol:RewardsDistributor",
        "label": "gardenPowerByTimestamp",
        "offset": 0,
        "slot": "13",
        "type": "t_mapping(t_address,t_mapping(t_uint256,t_struct(GardenPowerByTimestamp)33862_storage))"
      },
      {
        "astId": 33948,
        "contract": "contracts/token/RewardsDistributor.sol:RewardsDistributor",
        "label": "gardenTimelist",
        "offset": 0,
        "slot": "14",
        "type": "t_mapping(t_address,t_array(t_uint256)dyn_storage)"
      },
      {
        "astId": 33952,
        "contract": "contracts/token/RewardsDistributor.sol:RewardsDistributor",
        "label": "gardenPid",
        "offset": 0,
        "slot": "15",
        "type": "t_mapping(t_address,t_uint256)"
      }
    ],
    "types": {
      "t_address": {
        "encoding": "inplace",
        "label": "address",
        "numberOfBytes": "20"
      },
      "t_array(t_uint256)dyn_storage": {
        "base": "t_uint256",
        "encoding": "dynamic_array",
        "label": "uint256[]",
        "numberOfBytes": "32"
      },
      "t_bool": {
        "encoding": "inplace",
        "label": "bool",
        "numberOfBytes": "1"
      },
      "t_contract(IBabController)22767": {
        "encoding": "inplace",
        "label": "contract IBabController",
        "numberOfBytes": "20"
      },
      "t_contract(TimeLockedToken)39515": {
        "encoding": "inplace",
        "label": "contract TimeLockedToken",
        "numberOfBytes": "20"
      },
      "t_mapping(t_address,t_array(t_uint256)dyn_storage)": {
        "encoding": "mapping",
        "key": "t_address",
        "label": "mapping(address => uint256[])",
        "numberOfBytes": "32",
        "value": "t_array(t_uint256)dyn_storage"
      },
      "t_mapping(t_address,t_mapping(t_address,t_struct(Checkpoints)33894_storage))": {
        "encoding": "mapping",
        "key": "t_address",
        "label": "mapping(address => mapping(address => struct RewardsDistributor.Checkpoints))",
        "numberOfBytes": "32",
        "value": "t_mapping(t_address,t_struct(Checkpoints)33894_storage)"
      },
      "t_mapping(t_address,t_mapping(t_address,t_struct(ContributorPerGarden)33876_storage))": {
        "encoding": "mapping",
        "key": "t_address",
        "label": "mapping(address => mapping(address => struct RewardsDistributor.ContributorPerGarden))",
        "numberOfBytes": "32",
        "value": "t_mapping(t_address,t_struct(ContributorPerGarden)33876_storage)"
      },
      "t_mapping(t_address,t_mapping(t_uint256,t_struct(GardenPowerByTimestamp)33862_storage))": {
        "encoding": "mapping",
        "key": "t_address",
        "label": "mapping(address => mapping(uint256 => struct RewardsDistributor.GardenPowerByTimestamp))",
        "numberOfBytes": "32",
        "value": "t_mapping(t_uint256,t_struct(GardenPowerByTimestamp)33862_storage)"
      },
      "t_mapping(t_address,t_mapping(t_uint256,t_uint256))": {
        "encoding": "mapping",
        "key": "t_address",
        "label": "mapping(address => mapping(uint256 => uint256))",
        "numberOfBytes": "32",
        "value": "t_mapping(t_uint256,t_uint256)"
      },
      "t_mapping(t_address,t_struct(Checkpoints)33894_storage)": {
        "encoding": "mapping",
        "key": "t_address",
        "label": "mapping(address => struct RewardsDistributor.Checkpoints)",
        "numberOfBytes": "32",
        "value": "t_struct(Checkpoints)33894_storage"
      },
      "t_mapping(t_address,t_struct(ContributorPerGarden)33876_storage)": {
        "encoding": "mapping",
        "key": "t_address",
        "label": "mapping(address => struct RewardsDistributor.ContributorPerGarden)",
        "numberOfBytes": "32",
        "value": "t_struct(ContributorPerGarden)33876_storage"
      },
      "t_mapping(t_address,t_uint256)": {
        "encoding": "mapping",
        "key": "t_address",
        "label": "mapping(address => uint256)",
        "numberOfBytes": "32",
        "value": "t_uint256"
      },
      "t_mapping(t_uint256,t_bool)": {
        "encoding": "mapping",
        "key": "t_uint256",
        "label": "mapping(uint256 => bool)",
        "numberOfBytes": "32",
        "value": "t_bool"
      },
      "t_mapping(t_uint256,t_struct(GardenPowerByTimestamp)33862_storage)": {
        "encoding": "mapping",
        "key": "t_uint256",
        "label": "mapping(uint256 => struct RewardsDistributor.GardenPowerByTimestamp)",
        "numberOfBytes": "32",
        "value": "t_struct(GardenPowerByTimestamp)33862_storage"
      },
      "t_mapping(t_uint256,t_struct(ProtocolPerQuarter)33855_storage)": {
        "encoding": "mapping",
        "key": "t_uint256",
        "label": "mapping(uint256 => struct RewardsDistributor.ProtocolPerQuarter)",
        "numberOfBytes": "32",
        "value": "t_struct(ProtocolPerQuarter)33855_storage"
      },
      "t_mapping(t_uint256,t_struct(ProtocolPerTimestamp)33846_storage)": {
        "encoding": "mapping",
        "key": "t_uint256",
        "label": "mapping(uint256 => struct RewardsDistributor.ProtocolPerTimestamp)",
        "numberOfBytes": "32",
        "value": "t_struct(ProtocolPerTimestamp)33846_storage"
      },
      "t_mapping(t_uint256,t_struct(TimestampContribution)33885_storage)": {
        "encoding": "mapping",
        "key": "t_uint256",
        "label": "mapping(uint256 => struct RewardsDistributor.TimestampContribution)",
        "numberOfBytes": "32",
        "value": "t_struct(TimestampContribution)33885_storage"
      },
      "t_mapping(t_uint256,t_uint256)": {
        "encoding": "mapping",
        "key": "t_uint256",
        "label": "mapping(uint256 => uint256)",
        "numberOfBytes": "32",
        "value": "t_uint256"
      },
      "t_struct(Checkpoints)33894_storage": {
        "encoding": "inplace",
        "label": "struct RewardsDistributor.Checkpoints",
        "members": [
          {
            "astId": 33887,
            "contract": "contracts/token/RewardsDistributor.sol:RewardsDistributor",
            "label": "fromDepositAt",
            "offset": 0,
            "slot": "0",
            "type": "t_uint256"
          },
          {
            "astId": 33889,
            "contract": "contracts/token/RewardsDistributor.sol:RewardsDistributor",
            "label": "lastDepositAt",
            "offset": 0,
            "slot": "1",
            "type": "t_uint256"
          },
          {
            "astId": 33891,
            "contract": "contracts/token/RewardsDistributor.sol:RewardsDistributor",
            "label": "gardenFromDepositAt",
            "offset": 0,
            "slot": "2",
            "type": "t_uint256"
          },
          {
            "astId": 33893,
            "contract": "contracts/token/RewardsDistributor.sol:RewardsDistributor",
            "label": "gardenLastDepositAt",
            "offset": 0,
            "slot": "3",
            "type": "t_uint256"
          }
        ],
        "numberOfBytes": "128"
      },
      "t_struct(ContributorPerGarden)33876_storage": {
        "encoding": "inplace",
        "label": "struct RewardsDistributor.ContributorPerGarden",
        "members": [
          {
            "astId": 33864,
            "contract": "contracts/token/RewardsDistributor.sol:RewardsDistributor",
            "label": "lastDepositAt",
            "offset": 0,
            "slot": "0",
            "type": "t_uint256"
          },
          {
            "astId": 33866,
            "contract": "contracts/token/RewardsDistributor.sol:RewardsDistributor",
            "label": "initialDepositAt",
            "offset": 0,
            "slot": "1",
            "type": "t_uint256"
          },
          {
            "astId": 33869,
            "contract": "contracts/token/RewardsDistributor.sol:RewardsDistributor",
            "label": "timeListPointer",
            "offset": 0,
            "slot": "2",
            "type": "t_array(t_uint256)dyn_storage"
          },
          {
            "astId": 33871,
            "contract": "contracts/token/RewardsDistributor.sol:RewardsDistributor",
            "label": "pid",
            "offset": 0,
            "slot": "3",
            "type": "t_uint256"
          },
          {
            "astId": 33875,
            "contract": "contracts/token/RewardsDistributor.sol:RewardsDistributor",
            "label": "tsContributions",
            "offset": 0,
            "slot": "4",
            "type": "t_mapping(t_uint256,t_struct(TimestampContribution)33885_storage)"
          }
        ],
        "numberOfBytes": "160"
      },
      "t_struct(GardenPowerByTimestamp)33862_storage": {
        "encoding": "inplace",
        "label": "struct RewardsDistributor.GardenPowerByTimestamp",
        "members": [
          {
            "astId": 33857,
            "contract": "contracts/token/RewardsDistributor.sol:RewardsDistributor",
            "label": "supply",
            "offset": 0,
            "slot": "0",
            "type": "t_uint256"
          },
          {
            "astId": 33859,
            "contract": "contracts/token/RewardsDistributor.sol:RewardsDistributor",
            "label": "timestamp",
            "offset": 0,
            "slot": "1",
            "type": "t_uint256"
          },
          {
            "astId": 33861,
            "contract": "contracts/token/RewardsDistributor.sol:RewardsDistributor",
            "label": "power",
            "offset": 0,
            "slot": "2",
            "type": "t_uint256"
          }
        ],
        "numberOfBytes": "96"
      },
      "t_struct(ProtocolPerQuarter)33855_storage": {
        "encoding": "inplace",
        "label": "struct RewardsDistributor.ProtocolPerQuarter",
        "members": [
          {
            "astId": 33848,
            "contract": "contracts/token/RewardsDistributor.sol:RewardsDistributor",
            "label": "quarterPrincipal",
            "offset": 0,
            "slot": "0",
            "type": "t_uint256"
          },
          {
            "astId": 33850,
            "contract": "contracts/token/RewardsDistributor.sol:RewardsDistributor",
            "label": "quarterNumber",
            "offset": 0,
            "slot": "1",
            "type": "t_uint256"
          },
          {
            "astId": 33852,
            "contract": "contracts/token/RewardsDistributor.sol:RewardsDistributor",
            "label": "quarterPower",
            "offset": 0,
            "slot": "2",
            "type": "t_uint256"
          },
          {
            "astId": 33854,
            "contract": "contracts/token/RewardsDistributor.sol:RewardsDistributor",
            "label": "supplyPerQuarter",
            "offset": 0,
            "slot": "3",
            "type": "t_uint96"
          }
        ],
        "numberOfBytes": "128"
      },
      "t_struct(ProtocolPerTimestamp)33846_storage": {
        "encoding": "inplace",
        "label": "struct RewardsDistributor.ProtocolPerTimestamp",
        "members": [
          {
            "astId": 33837,
            "contract": "contracts/token/RewardsDistributor.sol:RewardsDistributor",
            "label": "principal",
            "offset": 0,
            "slot": "0",
            "type": "t_uint256"
          },
          {
            "astId": 33839,
            "contract": "contracts/token/RewardsDistributor.sol:RewardsDistributor",
            "label": "time",
            "offset": 0,
            "slot": "1",
            "type": "t_uint256"
          },
          {
            "astId": 33841,
            "contract": "contracts/token/RewardsDistributor.sol:RewardsDistributor",
            "label": "quarterBelonging",
            "offset": 0,
            "slot": "2",
            "type": "t_uint256"
          },
          {
            "astId": 33843,
            "contract": "contracts/token/RewardsDistributor.sol:RewardsDistributor",
            "label": "timeListPointer",
            "offset": 0,
            "slot": "3",
            "type": "t_uint256"
          },
          {
            "astId": 33845,
            "contract": "contracts/token/RewardsDistributor.sol:RewardsDistributor",
            "label": "power",
            "offset": 0,
            "slot": "4",
            "type": "t_uint256"
          }
        ],
        "numberOfBytes": "160"
      },
      "t_struct(TimestampContribution)33885_storage": {
        "encoding": "inplace",
        "label": "struct RewardsDistributor.TimestampContribution",
        "members": [
          {
            "astId": 33878,
            "contract": "contracts/token/RewardsDistributor.sol:RewardsDistributor",
            "label": "supply",
            "offset": 0,
            "slot": "0",
            "type": "t_uint256"
          },
          {
            "astId": 33880,
            "contract": "contracts/token/RewardsDistributor.sol:RewardsDistributor",
            "label": "timestamp",
            "offset": 0,
            "slot": "1",
            "type": "t_uint256"
          },
          {
            "astId": 33882,
            "contract": "contracts/token/RewardsDistributor.sol:RewardsDistributor",
            "label": "timePointer",
            "offset": 0,
            "slot": "2",
            "type": "t_uint256"
          },
          {
            "astId": 33884,
            "contract": "contracts/token/RewardsDistributor.sol:RewardsDistributor",
            "label": "power",
            "offset": 0,
            "slot": "3",
            "type": "t_uint256"
          }
        ],
        "numberOfBytes": "128"
      },
      "t_uint256": {
        "encoding": "inplace",
        "label": "uint256",
        "numberOfBytes": "32"
      },
      "t_uint96": {
        "encoding": "inplace",
        "label": "uint96",
        "numberOfBytes": "12"
      }
    }
  }
}