{
  "address": "0xC98e4650BE2Bb3265cBEe23534c57865a8DF4c52",
  "abi": [
    {
      "anonymous": false,
      "inputs": [
        {
          "indexed": true,
          "internalType": "address",
          "name": "previousOwner",
          "type": "address"
        },
        {
          "indexed": true,
          "internalType": "address",
          "name": "newOwner",
          "type": "address"
        }
      ],
      "name": "OwnershipTransferred",
      "type": "event"
    },
    {
      "inputs": [],
      "name": "DECAY_RATE",
      "outputs": [
        {
          "internalType": "uint256",
          "name": "",
          "type": "uint256"
        }
      ],
      "stateMutability": "view",
      "type": "function"
    },
    {
      "inputs": [],
      "name": "EPOCH_DURATION",
      "outputs": [
        {
          "internalType": "uint256",
          "name": "",
          "type": "uint256"
        }
      ],
      "stateMutability": "view",
      "type": "function"
    },
    {
      "inputs": [],
      "name": "Q1_REWARDS",
      "outputs": [
        {
          "internalType": "uint256",
          "name": "",
          "type": "uint256"
        }
      ],
      "stateMutability": "view",
      "type": "function"
    },
    {
      "inputs": [],
      "name": "START_TIME",
      "outputs": [
        {
          "internalType": "uint256",
          "name": "",
          "type": "uint256"
        }
      ],
      "stateMutability": "view",
      "type": "function"
    },
    {
      "inputs": [],
      "name": "babltoken",
      "outputs": [
        {
          "internalType": "contract TimeLockedToken",
          "name": "",
          "type": "address"
        }
      ],
      "stateMutability": "view",
      "type": "function"
    },
    {
      "inputs": [
        {
          "internalType": "uint256",
          "name": "_time",
          "type": "uint256"
        }
      ],
      "name": "checkProtocol",
      "outputs": [
        {
          "internalType": "uint256",
          "name": "principal",
          "type": "uint256"
        },
        {
          "internalType": "uint256",
          "name": "time",
          "type": "uint256"
        },
        {
          "internalType": "uint256",
          "name": "quarterBelonging",
          "type": "uint256"
        },
        {
          "internalType": "uint256",
          "name": "timeListPointer",
          "type": "uint256"
        },
        {
          "internalType": "uint256",
          "name": "power",
          "type": "uint256"
        }
      ],
      "stateMutability": "view",
      "type": "function"
    },
    {
      "inputs": [
        {
          "internalType": "uint256",
          "name": "_num",
          "type": "uint256"
        }
      ],
      "name": "checkQuarter",
      "outputs": [
        {
          "internalType": "uint256",
          "name": "quarterPrincipal",
          "type": "uint256"
        },
        {
          "internalType": "uint256",
          "name": "quarterNumber",
          "type": "uint256"
        },
        {
          "internalType": "uint256",
          "name": "quarterPower",
          "type": "uint256"
        },
        {
          "internalType": "uint96",
          "name": "supplyPerQuarter",
          "type": "uint96"
        }
      ],
      "stateMutability": "view",
      "type": "function"
    },
    {
      "inputs": [
        {
          "internalType": "address",
          "name": "",
          "type": "address"
        },
        {
          "internalType": "address",
          "name": "",
          "type": "address"
        }
      ],
      "name": "contributorPerGarden",
      "outputs": [
        {
          "internalType": "uint256",
          "name": "lastDepositAt",
          "type": "uint256"
        },
        {
          "internalType": "uint256",
          "name": "initialDepositAt",
          "type": "uint256"
        },
        {
          "internalType": "uint256",
          "name": "pid",
          "type": "uint256"
        }
      ],
      "stateMutability": "view",
      "type": "function"
    },
    {
      "inputs": [],
      "name": "controller",
      "outputs": [
        {
          "internalType": "contract IBabController",
          "name": "",
          "type": "address"
        }
      ],
      "stateMutability": "view",
      "type": "function"
    },
    {
      "inputs": [
        {
          "internalType": "address",
          "name": "",
          "type": "address"
        }
      ],
      "name": "gardenPid",
      "outputs": [
        {
          "internalType": "uint256",
          "name": "",
          "type": "uint256"
        }
      ],
      "stateMutability": "view",
      "type": "function"
    },
    {
      "inputs": [
        {
          "internalType": "address",
          "name": "",
          "type": "address"
        },
        {
          "internalType": "uint256",
          "name": "",
          "type": "uint256"
        }
      ],
      "name": "gardenPowerByTimestamp",
      "outputs": [
        {
          "internalType": "uint256",
          "name": "supply",
          "type": "uint256"
        },
        {
          "internalType": "uint256",
          "name": "timestamp",
          "type": "uint256"
        },
        {
          "internalType": "uint256",
          "name": "power",
          "type": "uint256"
        }
      ],
      "stateMutability": "view",
      "type": "function"
    },
    {
      "inputs": [
        {
          "internalType": "address",
          "name": "",
          "type": "address"
        },
        {
          "internalType": "uint256",
          "name": "",
          "type": "uint256"
        }
      ],
      "name": "gardenTimelist",
      "outputs": [
        {
          "internalType": "uint256",
          "name": "",
          "type": "uint256"
        }
      ],
      "stateMutability": "view",
      "type": "function"
    },
    {
      "inputs": [
        {
          "internalType": "address",
          "name": "_garden",
          "type": "address"
        },
        {
          "internalType": "address",
          "name": "_contributor",
          "type": "address"
        },
        {
          "internalType": "uint256",
          "name": "_from",
          "type": "uint256"
        },
        {
          "internalType": "uint256",
          "name": "_to",
          "type": "uint256"
        }
      ],
      "name": "getContributorPower",
      "outputs": [
        {
          "internalType": "uint256",
          "name": "",
          "type": "uint256"
        }
      ],
      "stateMutability": "view",
      "type": "function"
    },
    {
      "inputs": [
        {
          "internalType": "address",
          "name": "_garden",
          "type": "address"
        },
        {
          "internalType": "address",
          "name": "_contributor",
          "type": "address"
        },
        {
          "internalType": "address[]",
          "name": "_finalizedStrategies",
          "type": "address[]"
        }
      ],
      "name": "getRewards",
      "outputs": [
        {
          "internalType": "uint256[]",
          "name": "",
          "type": "uint256[]"
        }
      ],
      "stateMutability": "view",
      "type": "function"
    },
    {
      "inputs": [
        {
          "internalType": "address",
          "name": "_strategy",
          "type": "address"
        }
      ],
      "name": "getStrategyRewards",
      "outputs": [
        {
          "internalType": "uint96",
          "name": "",
          "type": "uint96"
        }
      ],
      "stateMutability": "view",
      "type": "function"
    },
    {
      "inputs": [
        {
          "internalType": "contract TimeLockedToken",
          "name": "_bablToken",
          "type": "address"
        },
        {
          "internalType": "contract IBabController",
          "name": "_controller",
          "type": "address"
        }
      ],
      "name": "initialize",
      "outputs": [],
      "stateMutability": "nonpayable",
      "type": "function"
    },
    {
      "inputs": [
        {
          "internalType": "uint256",
          "name": "",
          "type": "uint256"
        }
      ],
      "name": "isProtocolPerQuarter",
      "outputs": [
        {
          "internalType": "bool",
          "name": "",
          "type": "bool"
        }
      ],
      "stateMutability": "view",
      "type": "function"
    },
    {
      "inputs": [],
      "name": "owner",
      "outputs": [
        {
          "internalType": "address",
          "name": "",
          "type": "address"
        }
      ],
      "stateMutability": "view",
      "type": "function"
    },
    {
      "inputs": [],
      "name": "pid",
      "outputs": [
        {
          "internalType": "uint256",
          "name": "",
          "type": "uint256"
        }
      ],
      "stateMutability": "view",
      "type": "function"
    },
    {
      "inputs": [
        {
          "internalType": "uint256",
          "name": "",
          "type": "uint256"
        }
      ],
      "name": "protocolPerQuarter",
      "outputs": [
        {
          "internalType": "uint256",
          "name": "quarterPrincipal",
          "type": "uint256"
        },
        {
          "internalType": "uint256",
          "name": "quarterNumber",
          "type": "uint256"
        },
        {
          "internalType": "uint256",
          "name": "quarterPower",
          "type": "uint256"
        },
        {
          "internalType": "uint96",
          "name": "supplyPerQuarter",
          "type": "uint96"
        }
      ],
      "stateMutability": "view",
      "type": "function"
    },
    {
      "inputs": [
        {
          "internalType": "uint256",
          "name": "",
          "type": "uint256"
        }
      ],
      "name": "protocolPerTimestamp",
      "outputs": [
        {
          "internalType": "uint256",
          "name": "principal",
          "type": "uint256"
        },
        {
          "internalType": "uint256",
          "name": "time",
          "type": "uint256"
        },
        {
          "internalType": "uint256",
          "name": "quarterBelonging",
          "type": "uint256"
        },
        {
          "internalType": "uint256",
          "name": "timeListPointer",
          "type": "uint256"
        },
        {
          "internalType": "uint256",
          "name": "power",
          "type": "uint256"
        }
      ],
      "stateMutability": "view",
      "type": "function"
    },
    {
      "inputs": [],
      "name": "protocolPrincipal",
      "outputs": [
        {
          "internalType": "uint256",
          "name": "",
          "type": "uint256"
        }
      ],
      "stateMutability": "view",
      "type": "function"
    },
    {
      "inputs": [],
      "name": "renounceOwnership",
      "outputs": [],
      "stateMutability": "nonpayable",
      "type": "function"
    },
    {
      "inputs": [
        {
          "internalType": "address",
          "name": "",
          "type": "address"
        },
        {
          "internalType": "uint256",
          "name": "",
          "type": "uint256"
        }
      ],
      "name": "rewardsPowerOverhead",
      "outputs": [
        {
          "internalType": "uint256",
          "name": "",
          "type": "uint256"
        }
      ],
      "stateMutability": "view",
      "type": "function"
    },
    {
      "inputs": [
        {
          "internalType": "address",
          "name": "_to",
          "type": "address"
        },
        {
          "internalType": "uint256",
          "name": "_amount",
          "type": "uint256"
        }
      ],
      "name": "sendTokensToContributor",
      "outputs": [],
      "stateMutability": "nonpayable",
      "type": "function"
    },
    {
      "inputs": [
        {
          "internalType": "contract TimeLockedToken",
          "name": "_bablToken",
          "type": "address"
        }
      ],
      "name": "setBablToken",
      "outputs": [],
      "stateMutability": "nonpayable",
      "type": "function"
    },
    {
      "inputs": [],
      "name": "startBABLRewards",
      "outputs": [],
      "stateMutability": "nonpayable",
      "type": "function"
    },
    {
      "inputs": [
        {
          "internalType": "address",
          "name": "",
          "type": "address"
        },
        {
          "internalType": "uint256",
          "name": "",
          "type": "uint256"
        }
      ],
      "name": "strategyPerQuarter",
      "outputs": [
        {
          "internalType": "uint256",
          "name": "quarterPrincipal",
          "type": "uint256"
        },
        {
          "internalType": "uint256",
          "name": "quarterNumber",
          "type": "uint256"
        },
        {
          "internalType": "uint256",
          "name": "quarterPower",
          "type": "uint256"
        },
        {
          "internalType": "bool",
          "name": "initialized",
          "type": "bool"
        }
      ],
      "stateMutability": "view",
      "type": "function"
    },
    {
      "inputs": [
        {
          "internalType": "address",
          "name": "",
          "type": "address"
        }
      ],
      "name": "strategyPricePerTokenUnit",
      "outputs": [
        {
          "internalType": "uint256",
          "name": "preallocated",
          "type": "uint256"
        },
        {
          "internalType": "uint256",
          "name": "pricePerTokenUnit",
          "type": "uint256"
        }
      ],
      "stateMutability": "view",
      "type": "function"
    },
    {
      "inputs": [
        {
          "internalType": "uint256",
          "name": "",
          "type": "uint256"
        }
      ],
      "name": "timeList",
      "outputs": [
        {
          "internalType": "uint256",
          "name": "",
          "type": "uint256"
        }
      ],
      "stateMutability": "view",
      "type": "function"
    },
    {
      "inputs": [
        {
          "internalType": "uint256",
          "name": "_quarter",
          "type": "uint256"
        }
      ],
      "name": "tokenSupplyPerQuarter",
      "outputs": [
        {
          "internalType": "uint96",
          "name": "",
          "type": "uint96"
        }
      ],
      "stateMutability": "view",
      "type": "function"
    },
    {
      "inputs": [
        {
          "internalType": "address",
          "name": "newOwner",
          "type": "address"
        }
      ],
      "name": "transferOwnership",
      "outputs": [],
      "stateMutability": "nonpayable",
      "type": "function"
    },
    {
      "inputs": [
        {
          "internalType": "address",
          "name": "_garden",
          "type": "address"
        },
        {
          "internalType": "address",
          "name": "_contributor",
          "type": "address"
        },
        {
          "internalType": "uint256",
          "name": "_previousBalance",
          "type": "uint256"
        },
        {
          "internalType": "bool",
          "name": "_depositOrWithdraw",
          "type": "bool"
        },
        {
          "internalType": "uint256",
          "name": "_pid",
          "type": "uint256"
        }
      ],
      "name": "updateGardenPowerAndContributor",
      "outputs": [],
      "stateMutability": "nonpayable",
      "type": "function"
    },
    {
      "inputs": [
        {
          "internalType": "uint256",
          "name": "_capital",
          "type": "uint256"
        },
        {
          "internalType": "bool",
          "name": "_addOrSubstract",
          "type": "bool"
        }
      ],
      "name": "updateProtocolPrincipal",
      "outputs": [],
      "stateMutability": "nonpayable",
      "type": "function"
    }
  ],
  "transactionHash": "0x9c6ffa4f613d9624cf8c1351f4f4edeca3099d844fae384985c16b2a39b6b6e8",
  "args": [],
  "solcInputHash": "1e6d156fb71d6da7705240c4305a90fd",
  "bytecode": "0x608060405234801561001057600080fd5b50615ea080620000216000396000f3fe608060405234801561001057600080fd5b50600436106102265760003560e01c8063a67500471161012a578063ddaa26ad116100bd578063f1ed38611161008c578063f6c8d7b511610071578063f6c8d7b51461077b578063f77c4791146107a7578063fd9ff86c146107af57610226565b8063f1ed386114610729578063f2fde38b1461075557610226565b8063ddaa26ad146106eb578063e5cab4fa146106f3578063ef9f3450146106fb578063f10684541461072157610226565b8063cf149387116100f9578063cf14938714610637578063d60913ce14610654578063d717a506146106a0578063db4b3af5146106c557610226565b8063a6750047146105a2578063a70b9f0c146105bf578063a8d9a781146105c7578063bad67dd1146105f357610226565b80636e570b59116101bd578063787696781161018c5780638da5cb5b116101715780638da5cb5b146105205780639de9a052146105285780639e839e1b1461054e57610226565b806378769678146104e757806379fc904f1461051857610226565b80636e570b5914610462578063715018a61461046a57806373a9fd9f146104725780637602bdde146104ab57610226565b8063485cc955116101f9578063485cc955146102f65780635668c8f01461032657806356773b791461036557806369795e931461038957610226565b806308c6850f1461022b5780631de40e49146102735780632544dc181461028d5780633c0deba4146102d9575b600080fd5b6102486004803603602081101561024157600080fd5b50356107db565b6040805195865260208601949094528484019290925260608401526080830152519081900360a00190f35b61027b61080a565b60408051918252519081900360200190f35b6102aa600480360360208110156102a357600080fd5b5035610816565b604080519485526020850193909352838301919091526001600160601b03166060830152519081900360800190f35b6102aa600480360360208110156102ef57600080fd5b5035610847565b6103246004803603604081101561030c57600080fd5b506001600160a01b0381358116916020013516610877565b005b61034c6004803603602081101561033c57600080fd5b50356001600160a01b0316610aaa565b6040805192835260208301919091528051918290030190f35b61036d610ac3565b604080516001600160a01b039092168252519081900360200190f35b6104126004803603606081101561039f57600080fd5b6001600160a01b0382358116926020810135909116918101906060810160408201356401000000008111156103d357600080fd5b8201836020820111156103e557600080fd5b8035906020019184602083028401116401000000008311171561040757600080fd5b509092509050610ad2565b60408051602080825283518183015283519192839290830191858101910280838360005b8381101561044e578181015183820152602001610436565b505050509050019250505060405180910390f35b61027b610e34565b610324610e42565b61048f6004803603602081101561048857600080fd5b5035610f00565b604080516001600160601b039092168252519081900360200190f35b61027b600480360360808110156104c157600080fd5b506001600160a01b03813581169160208101359091169060408101359060600135610f13565b610504600480360360208110156104fd57600080fd5b5035610f2a565b604080519115158252519081900360200190f35b610324610f3f565b61036d610fe5565b61048f6004803603602081101561053e57600080fd5b50356001600160a01b0316610ff4565b61057a6004803603604081101561056457600080fd5b506001600160a01b038135169060200135611732565b6040805194855260208501939093528383019190915215156060830152519081900360800190f35b61027b600480360360208110156105b857600080fd5b5035611767565b61027b611788565b610324600480360360408110156105dd57600080fd5b506001600160a01b03813516906020013561178f565b610324600480360360a081101561060957600080fd5b506001600160a01b0381358116916020810135909116906040810135906060810135151590608001356118b4565b6102486004803603602081101561064d57600080fd5b5035611a10565b6106826004803603604081101561066a57600080fd5b506001600160a01b0381358116916020013516611a3f565b60408051938452602084019290925282820152519081900360600190f35b610324600480360360408110156106b657600080fd5b50803590602001351515611a6b565b61027b600480360360208110156106db57600080fd5b50356001600160a01b0316611d39565b61027b611d4b565b61027b611d51565b6103246004803603602081101561071157600080fd5b50356001600160a01b0316611d57565b61027b611e39565b61027b6004803603604081101561073f57600080fd5b506001600160a01b038135169060200135611e3f565b6103246004803603602081101561076b57600080fd5b50356001600160a01b0316611e70565b61027b6004803603604081101561079157600080fd5b506001600160a01b038135169060200135611f85565b61036d611fa2565b610682600480360360408110156107c557600080fd5b506001600160a01b038135169060200135611fb1565b607160205260009081526040902080546001820154600283015460038401546004909401549293919290919085565b6701aa535d3d0c000081565b600090815260746020526040902080546001820154600283015460039093015491939092916001600160601b031690565b6074602052600090815260409020805460018201546002830154600390930154919290916001600160601b031684565b61087f611fdd565b6108956001600160a01b0383161515601761208f565b6108ab6001600160a01b0382161515601761208f565b606f80546001600160a01b038085166001600160a01b031992831617909255606e805484841692169190911790819055604080517ff142c3bc0000000000000000000000000000000000000000000000000000000081529051919092169163f142c3bc916004808301926080929190829003018186803b15801561092e57600080fd5b505afa158015610942573d6000803e3d6000fd5b505050506040513d608081101561095857600080fd5b5080516020820151604080840151606094850151606d55606855606791909155606691909155606e5481517f2e0519cf00000000000000000000000000000000000000000000000000000000815291516001600160a01b0390911692632e0519cf9260048082019391829003018186803b1580156109d557600080fd5b505afa1580156109e9573d6000803e3d6000fd5b505050506040513d60608110156109ff57600080fd5b508051602080830151604093840151606b55606a55606991909155606e5482517f568c081300000000000000000000000000000000000000000000000000000000815292516001600160a01b039091169263568c0813926004808301939192829003018186803b158015610a7257600080fd5b505afa158015610a86573d6000803e3d6000fd5b505050506040513d6020811015610a9c57600080fd5b5051606c5550506001607e55565b607d602052600090815260409020805460019091015482565b606f546001600160a01b031681565b606e5460408051635b14f18360e01b81523060048201529051606092610b58926001600160a01b0390911691635b14f18391602480820192602092909190829003018186803b158015610b2457600080fd5b505afa158015610b38573d6000803e3d6000fd5b505050506040513d6020811015610b4e57600080fd5b505115605361208f565b60408051600780825261010082019092526000916020820160e08036833701905050606e546040805163364d118160e01b81526001600160a01b038a811660048301529151939450610c0193919092169163364d1181916024808301926020929190829003018186803b158015610bce57600080fd5b505afa158015610be2573d6000803e3d6000fd5b505050506040513d6020811015610bf857600080fd5b5051602361208f565b60005b83811015610e285760408051600780825261010082019092526000916020820160e080368337019050509050610c5688878785818110610c4057fe5b905060200201356001600160a01b0316896120a1565b9050610c9381600081518110610c6857fe5b602002602001015184600081518110610c7d57fe5b60200260200101516125f990919063ffffffff16565b83600081518110610ca057fe5b602002602001018181525050610cd181600181518110610cbc57fe5b602002602001015184600181518110610c7d57fe5b83600181518110610cde57fe5b602002602001018181525050610d0f81600281518110610cfa57fe5b602002602001015184600281518110610c7d57fe5b83600281518110610d1c57fe5b602002602001018181525050610d4d81600381518110610d3857fe5b602002602001015184600381518110610c7d57fe5b83600381518110610d5a57fe5b602002602001018181525050610d8b81600481518110610d7657fe5b602002602001015184600481518110610c7d57fe5b83600481518110610d9857fe5b602002602001018181525050610dc981600581518110610db457fe5b602002602001015184600581518110610c7d57fe5b83600581518110610dd657fe5b602002602001018181525050610e0781600681518110610df257fe5b602002602001015184600681518110610c7d57fe5b83600681518110610e1457fe5b602090810291909101015250600101610c04565b5090505b949350505050565b690b581ceb141f05c1ae0081565b610e4a61265c565b6001600160a01b0316610e5b610fe5565b6001600160a01b031614610eb6576040805162461bcd60e51b815260206004820181905260248201527f4f776e61626c653a2063616c6c6572206973206e6f7420746865206f776e6572604482015290519081900360640190fd5b6033546040516000916001600160a01b0316907f8be0079c531659141344cd1fd0a4f28419497f9722a3daafe3b4186f6b6457e0908390a3603380546001600160a01b0319169055565b6000610f0b82612660565b90505b919050565b6000610f2185858585612707565b95945050505050565b60756020526000908152604090205460ff1681565b606e54604080516313bc6d4b60e01b81523360048201529051610fbe926001600160a01b0316916313bc6d4b916024808301926020929190829003018186803b158015610f8b57600080fd5b505afa158015610f9f573d6000803e3d6000fd5b505050506040513d6020811015610fb557600080fd5b5051604861208f565b606e54610fd7906001600160a01b03163314601061208f565b606554610fe357426065555b565b6033546001600160a01b031690565b60008082905061106b816001600160a01b031663d0f9953e6040518163ffffffff1660e01b815260040160206040518083038186803b15801561103657600080fd5b505afa15801561104a573d6000803e3d6000fd5b505050506040513d602081101561106057600080fd5b50511515603161208f565b606e54604080517f2630c12f00000000000000000000000000000000000000000000000000000000815290516000926001600160a01b031691632630c12f916004808301926020929190829003018186803b1580156110c957600080fd5b505afa1580156110dd573d6000803e3d6000fd5b505050506040513d60208110156110f357600080fd5b505160408051630ad7511760e31b815290519192506000916001600160a01b038085169263ac41865a92918716916356ba88b891600480820192602092909190829003018186803b15801561114757600080fd5b505afa15801561115b573d6000803e3d6000fd5b505050506040513d602081101561117157600080fd5b505160408051631f0b96b960e31b815290516001600160a01b039092169163f85cb5c891600480820192602092909190829003018186803b1580156111b557600080fd5b505afa1580156111c9573d6000803e3d6000fd5b505050506040513d60208110156111df57600080fd5b5051604080517fffffffff0000000000000000000000000000000000000000000000000000000060e085901b1681526001600160a01b039092166004830152736b175474e89094c44da98b954eedeac495271d0f6024830152516044808301926020929190829003018186803b15801561125857600080fd5b505afa15801561126c573d6000803e3d6000fd5b505050506040513d602081101561128257600080fd5b50516040805162f376cb60e21b815290519192506000916113019184916001600160a01b038816916303cddb2c916004808301926020929190829003018186803b1580156112cf57600080fd5b505afa1580156112e3573d6000803e3d6000fd5b505050506040513d60208110156112f957600080fd5b505190612bd0565b9050600061134283866001600160a01b03166303976e386040518163ffffffff1660e01b815260040160206040518083038186803b1580156112cf57600080fd5b9050606554856001600160a01b0316636db9cc996040518163ffffffff1660e01b815260040160206040518083038186803b15801561138057600080fd5b505afa158015611394573d6000803e3d6000fd5b505050506040513d60208110156113aa57600080fd5b5051108015906113bb575060655415155b15611724576000856001600160a01b0316636db40dc26040518163ffffffff1660e01b815260040160206040518083038186803b1580156113fb57600080fd5b505afa15801561140f573d6000803e3d6000fd5b505050506040513d602081101561142557600080fd5b50519050801561146e57611461816040518060400160405280601081526020016f6f766572666c6f77203936206269747360801b815250612bee565b9650505050505050610f0e565b60008061154a886001600160a01b031663825deffe6040518163ffffffff1660e01b815260040160206040518083038186803b1580156114ad57600080fd5b505afa1580156114c1573d6000803e3d6000fd5b505050506040513d60208110156114d757600080fd5b50516040805163687cca9f60e11b815290516001600160a01b038c169163d0f9953e916004808301926020929190829003018186803b15801561151957600080fd5b505afa15801561152d573d6000803e3d6000fd5b505050506040513d602081101561154357600080fd5b5051612c91565b9092509050670de0b6b3a764000060005b838110156116ab57600061158861157f6276a70061157987866125f9565b90612d79565b606554906125f9565b6001600160a01b038e166000908152607c6020526040812091925090816115af87866125f9565b81526020019081526020016000206002015490506000607460006115dc86896125f990919063ffffffff16565b81526020019081526020016000206002015490506115fe81831115604761208f565b8661160a8560016125f9565b141561164a5761164761162a611623856276a700612dd2565b8590612dd2565b61164161163a866276a700612dd2565b4290612dd2565b90612e2f565b94505b600061168d866116876074846116608c8b6125f9565b81526020810191909152604001600020600301546001600160601b03166116878787612e2f565b90612bd0565b905061169989826125f9565b9850506001909301925061155b915050565b5060006116b88688612e2f565b9050671bc16d674ec800008111156116d55750671bc16d674ec800005b6116df8582612bd0565b9450611713856040518060400160405280601081526020016f6f766572666c6f77203936206269747360801b815250612bee565b9a5050505050505050505050610f0e565b600095505050505050610f0e565b607c60209081526000928352604080842090915290825290208054600182015460028301546003909301549192909160ff1684565b6072818154811061177757600080fd5b600091825260209091200154905081565b6276a70081565b6117a06002607e541415605461208f565b6002607e55606e546040805163184a263160e11b8152905161181e926001600160a01b0316916330944c62916004808301926020929190829003018186803b1580156117eb57600080fd5b505afa1580156117ff573d6000803e3d6000fd5b505050506040513d602081101561181557600080fd5b5051604561208f565b606e54604080516313bc6d4b60e01b8152336004820152905161186a926001600160a01b0316916313bc6d4b916024808301926020929190829003018186803b158015610f8b57600080fd5b600061189e826040518060400160405280601081526020016f6f766572666c6f77203936206269747360801b815250612bee565b90506118aa8382612e47565b50506001607e5550565b6118c56002607e541415605461208f565b6002607e558481801515806118f257506001600160a01b0382166000908152607b60205260409020546001105b1561199b57606e54604080516313bc6d4b60e01b81526001600160a01b03858116600483015291516119499392909216916313bc6d4b91602480820192602092909190829003018186803b158015610f8b57600080fd5b606e546040805163364d118160e01b81526001600160a01b038581166004830152915161199b93929092169163364d118191602480820192602092909190829003018186803b158015610bce57600080fd5b6119b1336001600160a01b03841614602361208f565b6119ed826001600160a01b03166302fb0c5e6040518163ffffffff1660e01b815260040160206040518083038186803b158015610bce57600080fd5b6119f687612f53565b611a02878787876130fb565b50506001607e555050505050565b600090815260716020526040902080546001820154600283015460038401546004909401549294919390929091565b607760209081526000928352604080842090915290825290208054600182015460039092015490919083565b606e5460408051630ad7511760e31b81529051611b75926001600160a01b0316916313bc6d4b9133916356ba88b8916004808301926020929190829003018186803b158015611ab957600080fd5b505afa158015611acd573d6000803e3d6000fd5b505050506040513d6020811015611ae357600080fd5b5051604080517fffffffff0000000000000000000000000000000000000000000000000000000060e085901b1681526001600160a01b039092166004830152516024808301926020929190829003018186803b158015611b4257600080fd5b505afa158015611b56573d6000803e3d6000fd5b505050506040513d6020811015611b6c57600080fd5b5051601461208f565b611c71336001600160a01b03166356ba88b86040518163ffffffff1660e01b815260040160206040518083038186803b158015611bb157600080fd5b505afa158015611bc5573d6000803e3d6000fd5b505050506040513d6020811015611bdb57600080fd5b5051604080517f06061dfa00000000000000000000000000000000000000000000000000000000815233600482015290516001600160a01b03909216916306061dfa91602480820192602092909190829003018186803b158015611c3e57600080fd5b505afa158015611c52573d6000803e3d6000fd5b505050506040513d6020811015611c6857600080fd5b5051604961208f565b606e546040805163184a263160e11b81529051611cb7926001600160a01b0316916330944c62916004808301926020929190829003018186803b1580156117eb57600080fd5b6000339050606554816001600160a01b0316636db9cc996040518163ffffffff1660e01b815260040160206040518083038186803b158015611cf857600080fd5b505afa158015611d0c573d6000803e3d6000fd5b505050506040513d6020811015611d2257600080fd5b505110611d3457611d34818484613281565b505050565b607b6020526000908152604090205481565b60655481565b60705481565b611d5f61265c565b6001600160a01b0316611d70610fe5565b6001600160a01b031614611dcb576040805162461bcd60e51b815260206004820181905260248201527f4f776e61626c653a2063616c6c6572206973206e6f7420746865206f776e6572604482015290519081900360640190fd5b606e5460408051635b14f18360e01b81523060048201529051611e17926001600160a01b031691635b14f183916024808301926020929190829003018186803b158015610b2457600080fd5b606f80546001600160a01b0319166001600160a01b0392909216919091179055565b60735481565b607a6020528160005260406000208181548110611e5b57600080fd5b90600052602060002001600091509150505481565b611e7861265c565b6001600160a01b0316611e89610fe5565b6001600160a01b031614611ee4576040805162461bcd60e51b815260206004820181905260248201527f4f776e61626c653a2063616c6c6572206973206e6f7420746865206f776e6572604482015290519081900360640190fd5b6001600160a01b038116611f295760405162461bcd60e51b8152600401808060200182810382526026815260200180615dcc6026913960400191505060405180910390fd5b6033546040516001600160a01b038084169216907f8be0079c531659141344cd1fd0a4f28419497f9722a3daafe3b4186f6b6457e090600090a3603380546001600160a01b0319166001600160a01b0392909216919091179055565b607660209081526000928352604080842090915290825290205481565b606e546001600160a01b031681565b607960209081526000928352604080842090915290825290208054600182015460029092015490919083565b600054610100900460ff1680611ff65750611ff66134d3565b80612004575060005460ff16155b61203f5760405162461bcd60e51b815260040180806020018281038252602e815260200180615df2602e913960400191505060405180910390fd5b600054610100900460ff1615801561206a576000805460ff1961ff0019909116610100171660011790555b6120726134e4565b61207a613584565b801561208c576000805461ff00191690555b50565b8161209d5761209d8161367d565b5050565b6060600083905061212b856001600160a01b0316826001600160a01b03166356ba88b86040518163ffffffff1660e01b815260040160206040518083038186803b1580156120ee57600080fd5b505afa158015612102573d6000803e3d6000fd5b505050506040513d602081101561211857600080fd5b50516001600160a01b031614604961208f565b61217b856001600160a01b03166306061dfa866040518263ffffffff1660e01b815260040180826001600160a01b0316815260200191505060206040518083038186803b158015611c3e57600080fd5b60408051600780825261010082019092526000916020820160e0803683370190505090506000806000806000806121b1886136d0565b93509350935093506000808d6001600160a01b0316633d8270f58d6040518263ffffffff1660e01b815260040180826001600160a01b0316815260200191505060c06040518083038186803b15801561220957600080fd5b505afa15801561221d573d6000803e3d6000fd5b505050506040513d60c081101561223357600080fd5b50602080820151604092830151835163687cca9f60e11b81529351919550935083926001600160a01b038e169263d0f9953e92600480840193829003018186803b15801561228057600080fd5b505afa158015612294573d6000803e3d6000fd5b505050506040513d60208110156122aa57600080fd5b505111801561231d5750818a6001600160a01b031663825deffe6040518163ffffffff1660e01b815260040160206040518083038186803b1580156122ee57600080fd5b505afa158015612302573d6000803e3d6000fd5b505050506040513d602081101561231857600080fd5b505110155b801561239e57508d6001600160a01b03168a6001600160a01b03166356ba88b86040518163ffffffff1660e01b815260040160206040518083038186803b15801561236757600080fd5b505afa15801561237b573d6000803e3d6000fd5b505050506040513d602081101561239157600080fd5b50516001600160a01b0316145b156125e557600186151514156123d0576123cd6123c6606c548761398790919063ffffffff16565b8690612dd2565b94505b6123de8a8d888888886139ab565b896000815181106123eb57fe5b60200260200101818152505061241e8960008151811061240757fe5b6020026020010151886125f990919063ffffffff16565b965061242c8a8d8888613cea565b8960018151811061243957fe5b60200260200101818152505061246c8960018151811061245557fe5b6020026020010151896125f990919063ffffffff16565b975061247c8a8d88888888613d9a565b8960028151811061248957fe5b6020026020010181815250506124a58960028151811061240757fe5b96506124b58a8d88888888614188565b896003815181106124c257fe5b6020026020010181815250506124de8960038151811061245557fe5b97506124eb8e8e8e61436b565b896004815181106124f857fe5b6020026020010181815250506125148960048151811061240757fe5b96508d6001600160a01b03166302d05d3f6040518163ffffffff1660e01b815260040160206040518083038186803b15801561254f57600080fd5b505afa158015612563573d6000803e3d6000fd5b505050506040513d602081101561257957600080fd5b50516001600160a01b038d8116911614156125b0576125ad6125a6606d548961398790919063ffffffff16565b88906125f9565b96505b86896005815181106125be57fe5b60200260200101818152505087896006815181106125d857fe5b6020026020010181815250505b5096985050505050505050505b9392505050565b600082820183811015612653576040805162461bcd60e51b815260206004820152601b60248201527f536166654d6174683a206164646974696f6e206f766572666c6f770000000000604482015290519081900360640190fd5b90505b92915050565b3390565b60006126716001831015604a61208f565b610201821061268257506000610f0e565b60006126b2612692846001612dd2565b6126ac6701aa535d3d0c00006126a66145e0565b906125f9565b906145ec565b905060006126ca690b581ceb141f05c1ae0083612e2f565b90506126fe816040518060400160405280601081526020016f6f766572666c6f77203936206269747360801b815250612bee565b92505050610f0e565b6000612787856001600160a01b031663cb12233b6040518163ffffffff1660e01b815260040160206040518083038186803b15801561274557600080fd5b505afa158015612759573d6000803e3d6000fd5b505050506040513d602081101561276f57600080fd5b505183108015906127805750838310155b604161208f565b6001600160a01b03808616600081815260776020908152604080832094891680845294825280832093835260788252808320948352938152908390208351608081018552815481526001808301549382019390935260028201549481019490945260030154606084015281015490919015806128065750838260010154115b1561281657600092505050610e2c565b866001600160a01b031663cb12233b6040518163ffffffff1660e01b815260040160206040518083038186803b15801561284f57600080fd5b505afa158015612863573d6000803e3d6000fd5b505050506040513d602081101561287957600080fd5b505185116128e957866001600160a01b031663cb12233b6040518163ffffffff1660e01b815260040160206040518083038186803b1580156128ba57600080fd5b505afa1580156128ce573d6000803e3d6000fd5b505050506040513d60208110156128e457600080fd5b505194505b6128f58787878761462d565b60208301528152612907878686614752565b6060830152604082015260208101518151612939911080159061293257508160600151826040015111155b605161208f565b600080826000015187101561295157600091506129be565b82518711156129a55782516000908152600485016020526040902054835161299e9161298291611579908b90612dd2565b84516000908152600487016020526040902060030154906125f9565b91506129be565b8251600090815260048501602052604090206003015491505b6001600160a01b0389166000908152607960209081526040808320868201805185529252909120549051612a2b916129fb91611579908b90612dd2565b6001600160a01b038b166000908152607960209081526040808320888201518452909152902060020154906125f9565b9050612a3b81831115605061208f565b85871415612a6a5780612a55576000945050505050610e2c565b612a5f8282612e2f565b945050505050610e2c565b8260200151861015612a83576000945050505050610e2c565b826020015186148015612a9a575060208301518351145b15612b2a576001600160a01b038916600090815260796020908152604080832060608701805185529252909120549051612b1a918391612b1491612ae391611579908c90612dd2565b6001600160a01b038d16600090815260796020908152604080832060608b01518452909152902060020154906125f9565b90612dd2565b9050612a5581831115605061208f565b612b8882612b14612b68876004016000886020015181526020019081526020016000206000015461157988602001518c612dd290919063ffffffff16565b602080880151600090815260048a019091526040902060030154906125f9565b6001600160a01b038a16600090815260796020908152604080832060608801805185529252909120549051919350612b1a918391612b1491612ae39190611579908c90612dd2565b6000612653670de0b6b3a7640000612be88585612d79565b9061486a565b6000816c010000000000000000000000008410612c895760405162461bcd60e51b81526004018080602001828103825283818151815260200191508051906020019080838360005b83811015612c4e578181015183820152602001612c36565b50505050905090810190601f168015612c7b5780820380516001836020036101000a031916815260200191505b509250505060405180910390fd5b509192915050565b60008080612cb8670de0b6b3a7640000612be86276a700612cb2888a612dd2565b906148c9565b90506000612ce4670de0b6b3a7640000612be86276a700612cb26065548b612dd290919063ffffffff16565b90506000612d10670de0b6b3a7640000612be86276a700612cb26065548b612dd290919063ffffffff16565b9050808214158015612d2b5750612d288260016125f9565b81145b8015612d4257506276a700612d408789612dd2565b105b15612d5557612d528360016125f9565b92505b612d608360016125f9565b612d6b8360016125f9565b945094505050509250929050565b600082612d8857506000612656565b82820282848281612d9557fe5b04146126535760405162461bcd60e51b8152600401808060200182810382526021815260200180615e206021913960400191505060405180910390fd5b600082821115612e29576040805162461bcd60e51b815260206004820152601e60248201527f536166654d6174683a207375627472616374696f6e206f766572666c6f770000604482015290519081900360640190fd5b50900390565b600061265382612be885670de0b6b3a7640000612d79565b606e546040805163184a263160e11b81529051612e8d926001600160a01b0316916330944c62916004808301926020929190829003018186803b1580156117eb57600080fd5b606f54604080516370a0823160e01b815230600482015290516000926001600160a01b0316916370a08231916024808301926020929190829003018186803b158015612ed857600080fd5b505afa158015612eec573d6000803e3d6000fd5b505050506040513d6020811015612f0257600080fd5b505190506001600160601b038216811015612f3357606f54612f2e906001600160a01b0316848361494b565b611d34565b606f54611d34906001600160a01b0316846001600160601b03851661494b565b6001600160a01b038116600081815260796020908152604080832042845282529182902082517f18160ddd00000000000000000000000000000000000000000000000000000000815292518594919391926318160ddd9260048082019391829003018186803b158015612fc557600080fd5b505afa158015612fd9573d6000803e3d6000fd5b505050506040513d6020811015612fef57600080fd5b505181554260018201556001600160a01b0383166000908152607b602052604090205461302257600060028201556130b9565b6001600160a01b0382166000908152607960209081526040808320607a8352818420607b909352908320549091839161305c906001612dd2565b8154811061306657fe5b9060005260206000200154815260200190815260200160002090506130b26130a7826000015461157984600101548660010154612dd290919063ffffffff16565b6002830154906125f9565b6002830155505b506001600160a01b03166000818152607a6020908152604080832080546001818101835591855283852042910155938352607b90915290208054909101905550565b6001600160a01b038085166000818152607760209081526040808320948816808452948252808320428452600480820184529382902082516370a0823160e01b8152948501969096529051909493926370a08231926024808301939192829003018186803b15801561316c57600080fd5b505afa158015613180573d6000803e3d6000fd5b505050506040513d602081101561319657600080fd5b505181554260018201556003820154600282018190556131bc5760006003820155613205565b815460008181526004840160205260409020546131ff916131e39190611579904290612dd2565b83546000908152600485016020526040902060030154906125f9565b60038201555b600183151514156132335783158061321f57506001820154155b1561322b574260018301555b428255613253565b805461325357600080835560018301819055613253906002840190615d9d565b5060028101805460018181018355600092835260209092204291015560039091018054909101905550505050565b600061328e8484846149cb565b905061338a846001600160a01b03166356ba88b86040518163ffffffff1660e01b815260040160206040518083038186803b1580156132cc57600080fd5b505afa1580156132e0573d6000803e3d6000fd5b505050506040513d60208110156132f657600080fd5b505160408051631f0b96b960e31b815290516001600160a01b039092169163f85cb5c891600480820192602092909190829003018186803b15801561333a57600080fd5b505afa15801561334e573d6000803e3d6000fd5b505050506040513d602081101561336457600080fd5b5051736b175474e89094c44da98b954eedeac495271d0f6133858685612bd0565b614d35565b426000908152607160205260409020909350826133b6576070546133ae9085612dd2565b6070556133c7565b6070546133c390856125f9565b6070555b607054815542600182018190556133dd90614ee5565b6002820155607354600382018190556133fc5760006004820155613477565b600060716000607261341a6001607354612dd290919063ffffffff16565b8154811061342457fe5b906000526020600020015481526020019081526020016000209050613470613465826000015461157984600101548660010154612dd290919063ffffffff16565b6004830154906125f9565b6004830155505b60728054600181018255600091909152427fdffbd64cc7c1a7eb27984335d9416d51137a03d3fabec7141025c62663253fe19091018190556134b890614f1d565b6134c3858585615597565b5050607380546001019055505050565b60006134de30615b44565b15905090565b600054610100900460ff16806134fd57506134fd6134d3565b8061350b575060005460ff16155b6135465760405162461bcd60e51b815260040180806020018281038252602e815260200180615df2602e913960400191505060405180910390fd5b600054610100900460ff1615801561207a576000805460ff1961ff001990911661010017166001179055801561208c576000805461ff001916905550565b600054610100900460ff168061359d575061359d6134d3565b806135ab575060005460ff16155b6135e65760405162461bcd60e51b815260040180806020018281038252602e815260200180615df2602e913960400191505060405180910390fd5b600054610100900460ff16158015613611576000805460ff1961ff0019909116610100171660011790555b600061361b61265c565b603380546001600160a01b0319166001600160a01b038316908117909155604051919250906000907f8be0079c531659141344cd1fd0a4f28419497f9722a3daafe3b4186f6b6457e0908290a350801561208c576000805461ff001916905550565b62461bcd60e51b6000908152602060045260076024526642414223000030600a808404818106603090810160081b95839006959095019082900491820690940160101b939093010160c81b604452606490fd5b60008060008060008590506000816001600160a01b03166303976e386040518163ffffffff1660e01b815260040160206040518083038186803b15801561371657600080fd5b505afa15801561372a573d6000803e3d6000fd5b505050506040513d602081101561374057600080fd5b50516040805163d3406abd60e01b81529051919250600091613866916137fb916001600160a01b0387169163d3406abd916004808301926020929190829003018186803b15801561379057600080fd5b505afa1580156137a4573d6000803e3d6000fd5b505050506040513d60208110156137ba57600080fd5b50516040805162f376cb60e21b815290516001600160a01b038816916303cddb2c916004808301926020929190829003018186803b1580156112cf57600080fd5b846001600160a01b03166303cddb2c6040518163ffffffff1660e01b815260040160206040518083038186803b15801561383457600080fd5b505afa158015613848573d6000803e3d6000fd5b505050506040513d602081101561385e57600080fd5b5051906125f9565b90506000836001600160a01b03166303cddb2c6040518163ffffffff1660e01b815260040160206040518083038186803b1580156138a357600080fd5b505afa1580156138b7573d6000803e3d6000fd5b505050506040513d60208110156138cd57600080fd5b50519050600080808084871180156138e55750858710155b1561390e57600193508392506138fb8786612dd2565b91506139078787612dd2565b9050613973565b84871015801561391d57508587105b156139405760019350600092506139348786612dd2565b91506139078688612dd2565b848710801561394e57508587105b1561397357600093508392506139648588612dd2565b91506139708688612dd2565b90505b929a50985096509450505050509193509193565b6000670de0b6b3a764000061399c8484612d79565b816139a357fe5b049392505050565b6000808790506000816001600160a01b0316636db40dc26040518163ffffffff1660e01b815260040160206040518083038186803b1580156139ec57600080fd5b505afa158015613a00573d6000803e3d6000fd5b505050506040513d6020811015613a1657600080fd5b50516040805162f376cb60e21b8152905191925060009182916001600160a01b038616916303cddb2c91600480820192602092909190829003018186803b158015613a6057600080fd5b505afa158015613a74573d6000803e3d6000fd5b505050506040513d6020811015613a8a57600080fd5b5051604080517f03976e3800000000000000000000000000000000000000000000000000000000815290519192506000916001600160a01b038716916303976e38916004808301926020929190829003018186803b158015613aeb57600080fd5b505afa158015613aff573d6000803e3d6000fd5b505050506040513d6020811015613b1557600080fd5b50516040805163d3406abd60e01b815290519192506000918291613ba291613b9b916001600160a01b038b169163d3406abd91600480820192602092909190829003018186803b158015613b6857600080fd5b505afa158015613b7c573d6000803e3d6000fd5b505050506040513d6020811015613b9257600080fd5b50518690612bd0565b85906125f9565b90508c6001600160a01b0316876001600160a01b0316631fe4a6866040518163ffffffff1660e01b815260040160206040518083038186803b158015613be757600080fd5b505afa158015613bfb573d6000803e3d6000fd5b505050506040513d6020811015613c1157600080fd5b50516001600160a01b03161415613cc657606654613c30908790613987565b945060018c1515148015613c46575060018a1515145b15613c8957613c56856002612d79565b9150613c76613c6f613c688386612e2f565b8790612bd0565b86906125f9565b945081851115613c84578194505b613cd6565b60018c1515148015613c99575089155b15613cc657613cbf6123c6613cb8613cb18685612e2f565b8890612bd0565b8790612dd2565b9450613cd6565b6000975050505050505050613ce0565b5092955050505050505b9695505050505050565b6000848160018515151415613d8d57856001600160a01b0316826001600160a01b0316631fe4a6866040518163ffffffff1660e01b815260040160206040518083038186803b158015613d3c57600080fd5b505afa158015613d50573d6000803e3d6000fd5b505050506040513d6020811015613d6657600080fd5b50516001600160a01b03161415613d8857606954613d85908590613987565b90505b613ce0565b5060009695505050505050565b6000808790506000816001600160a01b0316636db40dc26040518163ffffffff1660e01b815260040160206040518083038186803b158015613ddb57600080fd5b505afa158015613def573d6000803e3d6000fd5b505050506040513d6020811015613e0557600080fd5b5051604080517f950c78220000000000000000000000000000000000000000000000000000000081526001600160a01b038b8116600483015291519293506000929185169163950c782291602480820192602092909190829003018186803b158015613e7057600080fd5b505afa158015613e84573d6000803e3d6000fd5b505050506040513d6020811015613e9a57600080fd5b50516040805162f376cb60e21b815290519192506000916001600160a01b038616916303cddb2c916004808301926020929190829003018186803b158015613ee157600080fd5b505afa158015613ef5573d6000803e3d6000fd5b505050506040513d6020811015613f0b57600080fd5b5051604080517fd40244cb00000000000000000000000000000000000000000000000000000000815290519192506000916001600160a01b0387169163d40244cb916004808301926020929190829003018186803b158015613f6c57600080fd5b505afa158015613f80573d6000803e3d6000fd5b505050506040513d6020811015613f9657600080fd5b50516040805163d3406abd60e01b815290519192506000918291613fe991613b9b916001600160a01b038b169163d3406abd91600480820192602092909190829003018186803b158015613b6857600080fd5b905060008086138015613ffe575060018d1515145b801561400c575060018b1515145b156140335761402c61401e8786612e2f565b606754611687908a90613987565b9050614176565b600086138015614045575060018d1515145b801561404f57508a155b156140815761406161401e8786612e2f565b905061402c61407a6140738c85612e2f565b8390612bd0565b8290612dd2565b60008613801561408f57508c155b1561409c57506000614176565b6000861280156140aa57508a155b1561415b5761412361401e896001600160a01b031663449b98266040518163ffffffff1660e01b815260040160206040518083038186803b1580156140ee57600080fd5b505afa158015614102573d6000803e3d6000fd5b505050506040513d602081101561411857600080fd5b505161164189615b4a565b9050614130816002612d79565b92506141496141426140738c85612e2f565b82906125f9565b9050828111156141565750815b614176565b60008612801561416d575060018b1515145b15614176575060005b9e9d5050505050505050505050505050565b600080879050600080826001600160a01b031663950c78228a6040518263ffffffff1660e01b815260040180826001600160a01b0316815260200191505060206040518083038186803b1580156141de57600080fd5b505afa1580156141f2573d6000803e3d6000fd5b505050506040513d602081101561420857600080fd5b50519050600188151514156143595760008113156142a35761429c836001600160a01b031663d40244cb6040518163ffffffff1660e01b815260040160206040518083038186803b15801561425c57600080fd5b505afa158015614270573d6000803e3d6000fd5b505050506040513d602081101561428657600080fd5b5051606a54611641908490611687908c90613987565b9150614354565b6000811280156142b1575085155b156143385761429c836001600160a01b031663449b98266040518163ffffffff1660e01b815260040160206040518083038186803b1580156142f257600080fd5b505afa158015614306573d6000803e3d6000fd5b505050506040513d602081101561431c57600080fd5b505161164161432a84615b4a565b606a54611687908c90613987565b60008112801561434a57506001861515145b1561435457600091505b61435e565b600091505b5098975050505050505050565b6000808390506000816001600160a01b0316636db40dc26040518163ffffffff1660e01b815260040160206040518083038186803b1580156143ac57600080fd5b505afa1580156143c0573d6000803e3d6000fd5b505050506040513d60208110156143d657600080fd5b505160408051631f0b96b960e31b8152905191925060009182916144d7916001600160a01b038b169163f85cb5c8916004808301926020929190829003018186803b15801561442457600080fd5b505afa158015614438573d6000803e3d6000fd5b505050506040513d602081101561444e57600080fd5b50516040805162f376cb60e21b81529051736b175474e89094c44da98b954eedeac495271d0f916001600160a01b038916916303cddb2c91600480820192602092909190829003018186803b1580156144a657600080fd5b505afa1580156144ba573d6000803e3d6000fd5b505050506040513d60208110156144d057600080fd5b5051614d35565b905060006145b68988876001600160a01b031663825deffe6040518163ffffffff1660e01b815260040160206040518083038186803b15801561451957600080fd5b505afa15801561452d573d6000803e3d6000fd5b505050506040513d602081101561454357600080fd5b50516040805163687cca9f60e11b815290516001600160a01b038b169163d0f9953e916004808301926020929190829003018186803b15801561458557600080fd5b505afa158015614599573d6000803e3d6000fd5b505050506040513d60208110156145af57600080fd5b5051612707565b90506145d36145c58284612e2f565b606854611687908790613987565b9998505050505050505050565b670de0b6b3a764000090565b6000806145f76145e0565b90505b8215612653576002830615614616576146138185613987565b90505b6146208480613987565b93506002830492506145fa565b6001600160a01b0380851660009081526077602090815260408083209387168352929052908120600281018054839291839161466a906001612dd2565b8154811061467457fe5b9060005260206000200154905060008260020160008154811061469357fe5b90600052602060002001549050858211806146ad57508681105b156147455760005b600284015481101561474357868460020182815481106146d157fe5b9060005260206000200154116146fe578360020181815481106146f057fe5b906000526020600020015492505b8784600201828154811061470e57fe5b90600052602060002001541161473b5783600201818154811061472d57fe5b906000526020600020015491505b6001016146b5565b505b9890975095505050505050565b6001600160a01b0383166000908152607a60205260408120548190819061477a906001612dd2565b6001600160a01b0387166000908152607a6020526040812080549293509091839081106147a357fe5b906000526020600020015490506000607a6000896001600160a01b03166001600160a01b031681526020019081526020016000206000815481106147e357fe5b90600052602060002001549050858211806147fd57508681105b1561485e5760005b83811161485c576001600160a01b0389166000908152607a6020526040812080548390811061483057fe5b90600052602060002001549050878111614848578093505b888111614853578092505b50600101614805565b505b97909650945050505050565b60008082116148c0576040805162461bcd60e51b815260206004820152601a60248201527f536166654d6174683a206469766973696f6e206279207a65726f000000000000604482015290519081900360640190fd5b8183816139a357fe5b60008161491d576040805162461bcd60e51b815260206004820152601060248201527f43616e7420646976696465206279203000000000000000000000000000000000604482015290519081900360640190fd5b6000831161492c576000612653565b61265360016126a684612be883612b1489670de0b6b3a7640000612d79565b604080516001600160a01b038416602482015260448082018490528251808303909101815260649091019091526020810180517bffffffffffffffffffffffffffffffffffffffffffffffffffffffff167fa9059cbb00000000000000000000000000000000000000000000000000000000179052611d34908490615b61565b600080606e60009054906101000a90046001600160a01b03166001600160a01b0316632630c12f6040518163ffffffff1660e01b815260040160206040518083038186803b158015614a1c57600080fd5b505afa158015614a30573d6000803e3d6000fd5b505050506040513d6020811015614a4657600080fd5b505160408051630ad7511760e31b815290519192506000916001600160a01b038085169263ac41865a92918a16916356ba88b891600480820192602092909190829003018186803b158015614a9a57600080fd5b505afa158015614aae573d6000803e3d6000fd5b505050506040513d6020811015614ac457600080fd5b505160408051631f0b96b960e31b815290516001600160a01b039092169163f85cb5c891600480820192602092909190829003018186803b158015614b0857600080fd5b505afa158015614b1c573d6000803e3d6000fd5b505050506040513d6020811015614b3257600080fd5b5051604080517fffffffff0000000000000000000000000000000000000000000000000000000060e085901b1681526001600160a01b039092166004830152736b175474e89094c44da98b954eedeac495271d0f6024830152516044808301926020929190829003018186803b158015614bab57600080fd5b505afa158015614bbf573d6000803e3d6000fd5b505050506040513d6020811015614bd557600080fd5b50516001600160a01b0387166000908152607d6020526040902054909150614c21576001600160a01b0386166000908152607d6020526040902085815560010181905591506125f29050565b8315614cd4576001600160a01b0386166000908152607d6020526040902054614c8b90670de0b6b3a764000090612be890614c5c90896125f9565b611641614c698a87612d79565b6001600160a01b038c166000908152607d6020526040902060010154906125f9565b6001600160a01b0387166000908152607d60205260409020600181019190915554614cb690866125f9565b6001600160a01b0387166000908152607d6020526040902055614d11565b6001600160a01b0386166000908152607d6020526040902054614cf79086612dd2565b6001600160a01b0387166000908152607d60205260409020555b5050506001600160a01b0383166000908152607d60205260409020600101546125f2565b600080846001600160a01b031663313ce5676040518163ffffffff1660e01b815260040160206040518083038186803b158015614d7157600080fd5b505afa158015614d85573d6000803e3d6000fd5b505050506040513d6020811015614d9b57600080fd5b5051604080517f313ce567000000000000000000000000000000000000000000000000000000008152905160ff90921692506000916001600160a01b0387169163313ce567916004808301926020929190829003018186803b158015614e0057600080fd5b505afa158015614e14573d6000803e3d6000fd5b505050506040513d6020811015614e2a57600080fd5b505160ff16905060128211801590614e43575060128111155b614e94576040805162461bcd60e51b815260206004820152601460248201527f556e737570706f7274656420646563696d616c73000000000000000000000000604482015290519081900360640190fd5b80821415614ea65783925050506125f2565b81811115614ece57614ec5614ebb8284612dd2565b8590600a0a612d79565b925050506125f2565b613ce0614edb8383612dd2565b8590600a0a61486a565b600080614f10670de0b6b3a7640000612be86276a700612cb260655488612dd290919063ffffffff16565b90506125f28160016125f9565b606e546040805163184a263160e11b81529051614f63926001600160a01b0316916330944c62916004808301926020929190829003018186803b1580156117eb57600080fd5b6000614f6e82614ee5565b6000818152607460205260408120919250607590614f8d846001612dd2565b815260208101919091526040016000205460ff1661551a5760018101829055607354614fef5760006002820155614fc382612660565b6003820180546bffffffffffffffffffffffff19166001600160601b03929092169190911790556154e6565b607354600090615000906001612dd2565b9050600061505a607160006072858154811061501857fe5b90600052602060002001548152602001908152602001600020600401546071600088815260200190815260200160002060040154612dd290919063ffffffff16565b9050615067846001612dd2565b607160006072858154811061507857fe5b906000526020600020015481526020019081526020016000206002015414156151a6576151066150de60716000607286815481106150b257fe5b906000526020600020015481526020019081526020016000206001015487612dd290919063ffffffff16565b612be86150ff6150f861157f6276a700612b148b82612d79565b8990612dd2565b8490612d79565b600284015561511484612660565b6003840180546bffffffffffffffffffffffff19166001600160601b0392909216919091179055600283015461517e9061514f908390612dd2565b6074600061515e886001612dd2565b8152602001908152602001600020600201546125f990919063ffffffff16565b6074600061518d876001612dd2565b81526020810191909152604001600020600201556154e3565b60005b6151e960716000607286815481106151bd57fe5b906000526020600020015481526020019081526020016000206002015486612dd290919063ffffffff16565b81116154e157600060746000615235846071600060728a8154811061520a57fe5b90600052602060002001548152602001908152602001600020600201546125f990919063ffffffff16565b81526020019081526020016000209050600061526661157f6276a700611579866071600060728c8154811061520a57fe5b905082615344576153086152fd6152b36071600060728a8154811061528757fe5b90600052602060002001548152602001908152602001600020600101548b612dd290919063ffffffff16565b612be86152f66071600060728c815481106152ca57fe5b906000526020600020015481526020019081526020016000206001015486612dd290919063ffffffff16565b8890612d79565b6002840154906125f9565b8260020181905550607160006072878154811061532157fe5b6000918252602080832090910154835282019290925260400190205482556154d7565b615384607160006072888154811061535857fe5b906000526020600020015481526020019081526020016000206002015488612dd290919063ffffffff16565b831015615456576153db6153ce60716000607289815481106153a257fe5b90600052602060002001548152602001908152602001600020600101548a612dd290919063ffffffff16565b612be8866276a700612d79565b82600201819055506154006153fb846071600060728a8154811061520a57fe5b612660565b8260030160006101000a8154816001600160601b0302191690836001600160601b0316021790555061543d83607160006072898154811061520a57fe5b8260010181905550607160006072878154811061532157fe5b61549561546d60716000607289815481106153a257fe5b612be861548e61548761157f6276a700612b148e82612d79565b8c90612dd2565b8790612d79565b60028701556154a387612660565b6003870180546bffffffffffffffffffffffff19166001600160601b03929092169190911790556001860187905560705486555b50506001016151a9565b505b50505b6001607560006154f68584612dd2565b81526020810191909152604001600020805460ff191691151591909117905561558e565b6155886130a760716000607261553c6001607354612dd290919063ffffffff16565b8154811061554657fe5b90600052602060002001548152602001908152602001600020600401546071600087815260200190815260200160002060040154612dd290919063ffffffff16565b60028201555b60705490555050565b606e546040805163184a263160e11b815290516155dd926001600160a01b0316916330944c62916004808301926020929190829003018186803b1580156117eb57600080fd5b6001600160a01b0383166000908152607c60205260408120816155ff42614ee5565b81526020810191909152604001600020600381015490915060ff16615ac15761568b846001600160a01b031663825deffe6040518163ffffffff1660e01b815260040160206040518083038186803b15801561565a57600080fd5b505afa15801561566e573d6000803e3d6000fd5b505050506040513d602081101561568457600080fd5b5051614ee5565b61569442614ee5565b14156156b457600060028201556156aa42614ee5565b6001820155615aad565b60006157a2615728866001600160a01b0316637519ab506040518163ffffffff1660e01b815260040160206040518083038186803b1580156156f557600080fd5b505afa158015615709573d6000803e3d6000fd5b505050506040513d602081101561571f57600080fd5b50514290612dd2565b607c6000886001600160a01b03166001600160a01b03168152602001908152602001600020600061578b896001600160a01b0316637519ab506040518163ffffffff1660e01b815260040160206040518083038186803b15801561565a57600080fd5b815260208101919091526040016000205490612d79565b9050600080615815876001600160a01b0316637519ab506040518163ffffffff1660e01b815260040160206040518083038186803b1580156157e357600080fd5b505afa1580156157f7573d6000803e3d6000fd5b505050506040513d602081101561580d57600080fd5b505142612c91565b9150915060005b82811015615aa8576001600160a01b0388166000908152607c602052604081208161584785856125f9565b81526020019081526020016000209050600061587661157f6276a70061157986886125f990919063ffffffff16565b905082615942576159386152fd6158bf8c6001600160a01b0316637519ab506040518163ffffffff1660e01b815260040160206040518083038186803b1580156156f557600080fd5b612be86159318e6001600160a01b0316637519ab506040518163ffffffff1660e01b815260040160206040518083038186803b1580156158fe57600080fd5b505afa158015615912573d6000803e3d6000fd5b505050506040513d602081101561592857600080fd5b50518690612dd2565b8a90612d79565b6002830155615a9e565b60008311801561595b5750846159598460016125f9565b105b156159fe576159ac61599f8b6001600160a01b0316637519ab506040518163ffffffff1660e01b815260040160206040518083038186803b1580156156f557600080fd5b612be8886276a700612d79565b60028301556159bb84846125f9565b6001808401919091556001600160a01b038b166000908152607c60209081526040808320888452909152902054835560038301805460ff19169091179055615a9e565b615a64615a3d8b6001600160a01b0316637519ab506040518163ffffffff1660e01b815260040160206040518083038186803b1580156156f557600080fd5b612be8615a5d61163a61157f6276a700612b146276a70061157942614ee5565b8990612d79565b60028301556001600160a01b038a166000908152607c602090815260408083208784529091529020548255615a9842614ee5565b60018301555b505060010161581c565b505050505b60038101805460ff19166001179055615b11565b615b0b6130a7615b03866001600160a01b0316637519ab506040518163ffffffff1660e01b815260040160206040518083038186803b1580156156f557600080fd5b835490612d79565b60028201555b60018215151415615b2f578054615b2890846125f9565b8155615b3e565b8054615b3b9084612dd2565b81555b50505050565b3b151590565b600080821215615b5d5781600003610f0b565b5090565b6000615bb6826040518060400160405280602081526020017f5361666545524332303a206c6f772d6c6576656c2063616c6c206661696c6564815250856001600160a01b0316615c129092919063ffffffff16565b805190915015611d3457808060200190516020811015615bd557600080fd5b5051611d345760405162461bcd60e51b815260040180806020018281038252602a815260200180615e41602a913960400191505060405180910390fd5b6060610e2c848460008585615c2685615b44565b615c77576040805162461bcd60e51b815260206004820152601d60248201527f416464726573733a2063616c6c20746f206e6f6e2d636f6e7472616374000000604482015290519081900360640190fd5b600080866001600160a01b031685876040518082805190602001908083835b60208310615cb55780518252601f199092019160209182019101615c96565b6001836020036101000a03801982511681845116808217855250505050505090500191505060006040518083038185875af1925050503d8060008114615d17576040519150601f19603f3d011682016040523d82523d6000602084013e615d1c565b606091505b5091509150615d2c828286615d37565b979650505050505050565b60608315615d465750816125f2565b825115615d565782518084602001fd5b60405162461bcd60e51b8152602060048201818152845160248401528451859391928392604401919085019080838360008315612c4e578181015183820152602001612c36565b508054600082559060005260206000209081019061208c91905b80821115615b5d5760008155600101615db756fe4f776e61626c653a206e6577206f776e657220697320746865207a65726f2061646472657373496e697469616c697a61626c653a20636f6e747261637420697320616c726561647920696e697469616c697a6564536166654d6174683a206d756c7469706c69636174696f6e206f766572666c6f775361666545524332303a204552433230206f7065726174696f6e20646964206e6f742073756363656564a2646970667358221220059cb258f3abd6ff065811de4e8a8776f6de8a72b02c1419bdd39ce147be034564736f6c63430007060033",
  "devdoc": {
    "author": "Babylon Finance Rewards Distributor contract is a smart contract used to calculate and distribute all the BABL rewards of the BABL Mining Program along the time reserved for executed strategies. It implements a supply curve to distribute 500K BABL along the time. The supply curve is designed to optimize the long-term sustainability of the protocol. The rewards are front-loaded but they last for more than 10 years, slowly decreasing quarter by quarter. For that, it houses the state of the protocol power along the time as each strategy power is compared to the whole protocol usage. Rewards Distributor also is responsible for the calculation and delivery of other rewards as bonuses to specific profiles which are actively contributing to the protocol growth and their communities (Garden creators, Strategists and Stewards).",
    "kind": "dev",
    "methods": {
      "checkProtocol(uint256)": {
        "params": {
          "time": "Timestamp"
        }
      },
      "checkQuarter(uint256)": {
        "params": {
          "_num": "Number of quarter"
        }
      },
      "getContributorPower(address,address,uint256,uint256)": {
        "params": {
          "_contributor": "Address if the contributor",
          "_from": "Initial timestamp",
          "_garden": "Address of the garden where the contributor belongs to",
          "_to": "End timestamp"
        },
        "returns": {
          "_0": "uint256     Contributor power during that period"
        }
      },
      "getRewards(address,address,address[])": {
        "params": {
          "_contributor": "Address of the contributor to check",
          "_finalizedStrategies": "List of addresses of the finalized strategies to check",
          "_garden": "Garden to which the strategies and the user must belong to"
        },
        "returns": {
          "_0": "Array of size 7 with the following distribution: rewards[0]: Strategist BABL , rewards[1]: Strategist Profit, rewards[2]: Steward BABL, rewards[3]: Steward Profit, rewards[4]: LP BABL, rewards[5]: total BABL, rewards[6]: total Profits"
        }
      },
      "getStrategyRewards(address)": {
        "params": {
          "_strategy": "Strategy to check"
        }
      },
      "owner()": {
        "details": "Returns the address of the current owner."
      },
      "renounceOwnership()": {
        "details": "Leaves the contract without owner. It will not be possible to call `onlyOwner` functions anymore. Can only be called by the current owner. NOTE: Renouncing ownership will leave the contract without an owner, thereby removing any functionality that is only available to the owner."
      },
      "sendTokensToContributor(address,uint256)": {
        "params": {
          "_amount": "Amount of tokens to send the address to",
          "_to": "Address to send the tokens to"
        }
      },
      "setBablToken(address)": {
        "params": {
          "_bablToken": "BABLToken address"
        }
      },
      "tokenSupplyPerQuarter(uint256)": {
        "params": {
          "_quarter": "Number of the epoch (quarter)"
        }
      },
      "transferOwnership(address)": {
        "details": "Transfers ownership of the contract to a new account (`newOwner`). Can only be called by the current owner."
      },
      "updateGardenPowerAndContributor(address,address,uint256,bool,uint256)": {
        "params": {
          "_contributor": "Address of the contributor",
          "_depositOrWithdraw": "If the timestamp is a deposit (true) or a withdraw (false)",
          "_garden": "Address of the garden the contributor belongs to",
          "_pid": "The pid # of the Garden timestamps",
          "_previousBalance": "Previous balance of the contributor"
        }
      },
      "updateProtocolPrincipal(uint256,bool)": {
        "params": {
          "_addOrSubstract": "Whether we are adding or substracting capital",
          "_capital": "Amount of capital in any type of asset to be normalized into DAI"
        }
      }
    },
    "title": "Rewards Distributor implementing the BABL Mining Program and other Rewards to Strategists and Stewards",
    "version": 1
  },
  "userdoc": {
    "kind": "user",
    "methods": {
      "checkProtocol(uint256)": {
        "notice": "Check the protocol state in a certain timestamp"
      },
      "checkQuarter(uint256)": {
        "notice": "Check the quarter state for a specific quarter"
      },
      "getContributorPower(address,address,uint256,uint256)": {
        "notice": "Gets the contributor power from one timestamp to the other"
      },
      "getRewards(address,address,address[])": {
        "notice": "Calculates the profits and BABL that a contributor should receive from a series of finalized strategies"
      },
      "getStrategyRewards(address)": {
        "notice": "Gets the total amount of rewards for a given strategy"
      },
      "sendTokensToContributor(address,uint256)": {
        "notice": "Sends BABL tokens rewards to a contributor after a claim is requested to the protocol."
      },
      "setBablToken(address)": {
        "notice": "Function that set the babl Token address as it is going to be released in a future date"
      },
      "startBABLRewards()": {
        "notice": "Starts BABL Rewards Mining Program from the controller."
      },
      "tokenSupplyPerQuarter(uint256)": {
        "notice": "Calculates the BABL rewards supply for each quarter"
      },
      "updateGardenPowerAndContributor(address,address,uint256,bool,uint256)": {
        "notice": "Function that set each contributor timestamp per garden"
      },
      "updateProtocolPrincipal(uint256,bool)": {
        "notice": "Function that adds/substract the capital received to the total principal of the protocol per timestamp"
      }
    },
    "version": 1
  },
  "storageLayout": {
    "storage": [
      {
        "astId": 492,
        "contract": "contracts/token/RewardsDistributor.sol:RewardsDistributorV2",
        "label": "_initialized",
        "offset": 0,
        "slot": "0",
        "type": "t_bool"
      },
      {
        "astId": 495,
        "contract": "contracts/token/RewardsDistributor.sol:RewardsDistributorV2",
        "label": "_initializing",
        "offset": 1,
        "slot": "0",
        "type": "t_bool"
      },
      {
        "astId": 1447,
        "contract": "contracts/token/RewardsDistributor.sol:RewardsDistributorV2",
        "label": "__gap",
        "offset": 0,
        "slot": "1",
        "type": "t_array(t_uint256)50_storage"
      },
      {
        "astId": 10,
        "contract": "contracts/token/RewardsDistributor.sol:RewardsDistributorV2",
        "label": "_owner",
        "offset": 0,
        "slot": "51",
        "type": "t_address"
      },
      {
        "astId": 129,
        "contract": "contracts/token/RewardsDistributor.sol:RewardsDistributorV2",
        "label": "__gap",
        "offset": 0,
        "slot": "52",
        "type": "t_array(t_uint256)49_storage"
      },
      {
        "astId": 38485,
        "contract": "contracts/token/RewardsDistributor.sol:RewardsDistributorV2",
        "label": "START_TIME",
        "offset": 0,
        "slot": "101",
        "type": "t_uint256"
      },
      {
        "astId": 38487,
        "contract": "contracts/token/RewardsDistributor.sol:RewardsDistributorV2",
        "label": "BABL_STRATEGIST_SHARE",
        "offset": 0,
        "slot": "102",
        "type": "t_uint256"
      },
      {
        "astId": 38489,
        "contract": "contracts/token/RewardsDistributor.sol:RewardsDistributorV2",
        "label": "BABL_STEWARD_SHARE",
        "offset": 0,
        "slot": "103",
        "type": "t_uint256"
      },
      {
        "astId": 38491,
        "contract": "contracts/token/RewardsDistributor.sol:RewardsDistributorV2",
        "label": "BABL_LP_SHARE",
        "offset": 0,
        "slot": "104",
        "type": "t_uint256"
      },
      {
        "astId": 38493,
        "contract": "contracts/token/RewardsDistributor.sol:RewardsDistributorV2",
        "label": "PROFIT_STRATEGIST_SHARE",
        "offset": 0,
        "slot": "105",
        "type": "t_uint256"
      },
      {
        "astId": 38495,
        "contract": "contracts/token/RewardsDistributor.sol:RewardsDistributorV2",
        "label": "PROFIT_STEWARD_SHARE",
        "offset": 0,
        "slot": "106",
        "type": "t_uint256"
      },
      {
        "astId": 38497,
        "contract": "contracts/token/RewardsDistributor.sol:RewardsDistributorV2",
        "label": "PROFIT_LP_SHARE",
        "offset": 0,
        "slot": "107",
        "type": "t_uint256"
      },
      {
        "astId": 38499,
        "contract": "contracts/token/RewardsDistributor.sol:RewardsDistributorV2",
        "label": "PROFIT_PROTOCOL_FEE",
        "offset": 0,
        "slot": "108",
        "type": "t_uint256"
      },
      {
        "astId": 38501,
        "contract": "contracts/token/RewardsDistributor.sol:RewardsDistributorV2",
        "label": "CREATOR_BONUS",
        "offset": 0,
        "slot": "109",
        "type": "t_uint256"
      },
      {
        "astId": 38571,
        "contract": "contracts/token/RewardsDistributor.sol:RewardsDistributorV2",
        "label": "controller",
        "offset": 0,
        "slot": "110",
        "type": "t_contract(IBabController)25545"
      },
      {
        "astId": 38573,
        "contract": "contracts/token/RewardsDistributor.sol:RewardsDistributorV2",
        "label": "babltoken",
        "offset": 0,
        "slot": "111",
        "type": "t_contract(TimeLockedToken)44325"
      },
      {
        "astId": 38576,
        "contract": "contracts/token/RewardsDistributor.sol:RewardsDistributorV2",
        "label": "protocolPrincipal",
        "offset": 0,
        "slot": "112",
        "type": "t_uint256"
      },
      {
        "astId": 38580,
        "contract": "contracts/token/RewardsDistributor.sol:RewardsDistributorV2",
        "label": "protocolPerTimestamp",
        "offset": 0,
        "slot": "113",
        "type": "t_mapping(t_uint256,t_struct(ProtocolPerTimestamp)38521_storage)"
      },
      {
        "astId": 38583,
        "contract": "contracts/token/RewardsDistributor.sol:RewardsDistributorV2",
        "label": "timeList",
        "offset": 0,
        "slot": "114",
        "type": "t_array(t_uint256)dyn_storage"
      },
      {
        "astId": 38586,
        "contract": "contracts/token/RewardsDistributor.sol:RewardsDistributorV2",
        "label": "pid",
        "offset": 0,
        "slot": "115",
        "type": "t_uint256"
      },
      {
        "astId": 38590,
        "contract": "contracts/token/RewardsDistributor.sol:RewardsDistributorV2",
        "label": "protocolPerQuarter",
        "offset": 0,
        "slot": "116",
        "type": "t_mapping(t_uint256,t_struct(ProtocolPerQuarter)38530_storage)"
      },
      {
        "astId": 38594,
        "contract": "contracts/token/RewardsDistributor.sol:RewardsDistributorV2",
        "label": "isProtocolPerQuarter",
        "offset": 0,
        "slot": "117",
        "type": "t_mapping(t_uint256,t_bool)"
      },
      {
        "astId": 38600,
        "contract": "contracts/token/RewardsDistributor.sol:RewardsDistributorV2",
        "label": "rewardsPowerOverhead",
        "offset": 0,
        "slot": "118",
        "type": "t_mapping(t_address,t_mapping(t_uint256,t_uint256))"
      },
      {
        "astId": 38606,
        "contract": "contracts/token/RewardsDistributor.sol:RewardsDistributorV2",
        "label": "contributorPerGarden",
        "offset": 0,
        "slot": "119",
        "type": "t_mapping(t_address,t_mapping(t_address,t_struct(ContributorPerGarden)38551_storage))"
      },
      {
        "astId": 38612,
        "contract": "contracts/token/RewardsDistributor.sol:RewardsDistributorV2",
        "label": "checkpoints",
        "offset": 0,
        "slot": "120",
        "type": "t_mapping(t_address,t_mapping(t_address,t_struct(Checkpoints)38569_storage))"
      },
      {
        "astId": 38618,
        "contract": "contracts/token/RewardsDistributor.sol:RewardsDistributorV2",
        "label": "gardenPowerByTimestamp",
        "offset": 0,
        "slot": "121",
        "type": "t_mapping(t_address,t_mapping(t_uint256,t_struct(GardenPowerByTimestamp)38537_storage))"
      },
      {
        "astId": 38623,
        "contract": "contracts/token/RewardsDistributor.sol:RewardsDistributorV2",
        "label": "gardenTimelist",
        "offset": 0,
        "slot": "122",
        "type": "t_mapping(t_address,t_array(t_uint256)dyn_storage)"
      },
      {
        "astId": 38627,
        "contract": "contracts/token/RewardsDistributor.sol:RewardsDistributorV2",
        "label": "gardenPid",
        "offset": 0,
        "slot": "123",
        "type": "t_mapping(t_address,t_uint256)"
      },
      {
        "astId": 38647,
        "contract": "contracts/token/RewardsDistributor.sol:RewardsDistributorV2",
        "label": "strategyPerQuarter",
        "offset": 0,
        "slot": "124",
        "type": "t_mapping(t_address,t_mapping(t_uint256,t_struct(StrategyPerQuarter)38636_storage))"
      },
      {
        "astId": 38651,
        "contract": "contracts/token/RewardsDistributor.sol:RewardsDistributorV2",
        "label": "strategyPricePerTokenUnit",
        "offset": 0,
        "slot": "125",
        "type": "t_mapping(t_address,t_struct(StrategyPricePerTokenUnit)38641_storage)"
      },
      {
        "astId": 38653,
        "contract": "contracts/token/RewardsDistributor.sol:RewardsDistributorV2",
        "label": "status",
        "offset": 0,
        "slot": "126",
        "type": "t_uint256"
      }
    ],
    "types": {
      "t_address": {
        "encoding": "inplace",
        "label": "address",
        "numberOfBytes": "20"
      },
      "t_array(t_uint256)49_storage": {
        "base": "t_uint256",
        "encoding": "inplace",
        "label": "uint256[49]",
        "numberOfBytes": "1568"
      },
      "t_array(t_uint256)50_storage": {
        "base": "t_uint256",
        "encoding": "inplace",
        "label": "uint256[50]",
        "numberOfBytes": "1600"
      },
      "t_array(t_uint256)dyn_storage": {
        "base": "t_uint256",
        "encoding": "dynamic_array",
        "label": "uint256[]",
        "numberOfBytes": "32"
      },
      "t_bool": {
        "encoding": "inplace",
        "label": "bool",
        "numberOfBytes": "1"
      },
      "t_contract(IBabController)25545": {
        "encoding": "inplace",
        "label": "contract IBabController",
        "numberOfBytes": "20"
      },
      "t_contract(TimeLockedToken)44325": {
        "encoding": "inplace",
        "label": "contract TimeLockedToken",
        "numberOfBytes": "20"
      },
      "t_mapping(t_address,t_array(t_uint256)dyn_storage)": {
        "encoding": "mapping",
        "key": "t_address",
        "label": "mapping(address => uint256[])",
        "numberOfBytes": "32",
        "value": "t_array(t_uint256)dyn_storage"
      },
      "t_mapping(t_address,t_mapping(t_address,t_struct(Checkpoints)38569_storage))": {
        "encoding": "mapping",
        "key": "t_address",
        "label": "mapping(address => mapping(address => struct RewardsDistributorV2.Checkpoints))",
        "numberOfBytes": "32",
        "value": "t_mapping(t_address,t_struct(Checkpoints)38569_storage)"
      },
      "t_mapping(t_address,t_mapping(t_address,t_struct(ContributorPerGarden)38551_storage))": {
        "encoding": "mapping",
        "key": "t_address",
        "label": "mapping(address => mapping(address => struct RewardsDistributorV2.ContributorPerGarden))",
        "numberOfBytes": "32",
        "value": "t_mapping(t_address,t_struct(ContributorPerGarden)38551_storage)"
      },
      "t_mapping(t_address,t_mapping(t_uint256,t_struct(GardenPowerByTimestamp)38537_storage))": {
        "encoding": "mapping",
        "key": "t_address",
        "label": "mapping(address => mapping(uint256 => struct RewardsDistributorV2.GardenPowerByTimestamp))",
        "numberOfBytes": "32",
        "value": "t_mapping(t_uint256,t_struct(GardenPowerByTimestamp)38537_storage)"
      },
      "t_mapping(t_address,t_mapping(t_uint256,t_struct(StrategyPerQuarter)38636_storage))": {
        "encoding": "mapping",
        "key": "t_address",
        "label": "mapping(address => mapping(uint256 => struct RewardsDistributorV2.StrategyPerQuarter))",
        "numberOfBytes": "32",
        "value": "t_mapping(t_uint256,t_struct(StrategyPerQuarter)38636_storage)"
      },
      "t_mapping(t_address,t_mapping(t_uint256,t_uint256))": {
        "encoding": "mapping",
        "key": "t_address",
        "label": "mapping(address => mapping(uint256 => uint256))",
        "numberOfBytes": "32",
        "value": "t_mapping(t_uint256,t_uint256)"
      },
      "t_mapping(t_address,t_struct(Checkpoints)38569_storage)": {
        "encoding": "mapping",
        "key": "t_address",
        "label": "mapping(address => struct RewardsDistributorV2.Checkpoints)",
        "numberOfBytes": "32",
        "value": "t_struct(Checkpoints)38569_storage"
      },
      "t_mapping(t_address,t_struct(ContributorPerGarden)38551_storage)": {
        "encoding": "mapping",
        "key": "t_address",
        "label": "mapping(address => struct RewardsDistributorV2.ContributorPerGarden)",
        "numberOfBytes": "32",
        "value": "t_struct(ContributorPerGarden)38551_storage"
      },
      "t_mapping(t_address,t_struct(StrategyPricePerTokenUnit)38641_storage)": {
        "encoding": "mapping",
        "key": "t_address",
        "label": "mapping(address => struct RewardsDistributorV2.StrategyPricePerTokenUnit)",
        "numberOfBytes": "32",
        "value": "t_struct(StrategyPricePerTokenUnit)38641_storage"
      },
      "t_mapping(t_address,t_uint256)": {
        "encoding": "mapping",
        "key": "t_address",
        "label": "mapping(address => uint256)",
        "numberOfBytes": "32",
        "value": "t_uint256"
      },
      "t_mapping(t_uint256,t_bool)": {
        "encoding": "mapping",
        "key": "t_uint256",
        "label": "mapping(uint256 => bool)",
        "numberOfBytes": "32",
        "value": "t_bool"
      },
      "t_mapping(t_uint256,t_struct(GardenPowerByTimestamp)38537_storage)": {
        "encoding": "mapping",
        "key": "t_uint256",
        "label": "mapping(uint256 => struct RewardsDistributorV2.GardenPowerByTimestamp)",
        "numberOfBytes": "32",
        "value": "t_struct(GardenPowerByTimestamp)38537_storage"
      },
      "t_mapping(t_uint256,t_struct(ProtocolPerQuarter)38530_storage)": {
        "encoding": "mapping",
        "key": "t_uint256",
        "label": "mapping(uint256 => struct RewardsDistributorV2.ProtocolPerQuarter)",
        "numberOfBytes": "32",
        "value": "t_struct(ProtocolPerQuarter)38530_storage"
      },
      "t_mapping(t_uint256,t_struct(ProtocolPerTimestamp)38521_storage)": {
        "encoding": "mapping",
        "key": "t_uint256",
        "label": "mapping(uint256 => struct RewardsDistributorV2.ProtocolPerTimestamp)",
        "numberOfBytes": "32",
        "value": "t_struct(ProtocolPerTimestamp)38521_storage"
      },
      "t_mapping(t_uint256,t_struct(StrategyPerQuarter)38636_storage)": {
        "encoding": "mapping",
        "key": "t_uint256",
        "label": "mapping(uint256 => struct RewardsDistributorV2.StrategyPerQuarter)",
        "numberOfBytes": "32",
        "value": "t_struct(StrategyPerQuarter)38636_storage"
      },
      "t_mapping(t_uint256,t_struct(TimestampContribution)38560_storage)": {
        "encoding": "mapping",
        "key": "t_uint256",
        "label": "mapping(uint256 => struct RewardsDistributorV2.TimestampContribution)",
        "numberOfBytes": "32",
        "value": "t_struct(TimestampContribution)38560_storage"
      },
      "t_mapping(t_uint256,t_uint256)": {
        "encoding": "mapping",
        "key": "t_uint256",
        "label": "mapping(uint256 => uint256)",
        "numberOfBytes": "32",
        "value": "t_uint256"
      },
      "t_struct(Checkpoints)38569_storage": {
        "encoding": "inplace",
        "label": "struct RewardsDistributorV2.Checkpoints",
        "members": [
          {
            "astId": 38562,
            "contract": "contracts/token/RewardsDistributor.sol:RewardsDistributorV2",
            "label": "fromDepositAt",
            "offset": 0,
            "slot": "0",
            "type": "t_uint256"
          },
          {
            "astId": 38564,
            "contract": "contracts/token/RewardsDistributor.sol:RewardsDistributorV2",
            "label": "lastDepositAt",
            "offset": 0,
            "slot": "1",
            "type": "t_uint256"
          },
          {
            "astId": 38566,
            "contract": "contracts/token/RewardsDistributor.sol:RewardsDistributorV2",
            "label": "gardenFromDepositAt",
            "offset": 0,
            "slot": "2",
            "type": "t_uint256"
          },
          {
            "astId": 38568,
            "contract": "contracts/token/RewardsDistributor.sol:RewardsDistributorV2",
            "label": "gardenLastDepositAt",
            "offset": 0,
            "slot": "3",
            "type": "t_uint256"
          }
        ],
        "numberOfBytes": "128"
      },
      "t_struct(ContributorPerGarden)38551_storage": {
        "encoding": "inplace",
        "label": "struct RewardsDistributorV2.ContributorPerGarden",
        "members": [
          {
            "astId": 38539,
            "contract": "contracts/token/RewardsDistributor.sol:RewardsDistributorV2",
            "label": "lastDepositAt",
            "offset": 0,
            "slot": "0",
            "type": "t_uint256"
          },
          {
            "astId": 38541,
            "contract": "contracts/token/RewardsDistributor.sol:RewardsDistributorV2",
            "label": "initialDepositAt",
            "offset": 0,
            "slot": "1",
            "type": "t_uint256"
          },
          {
            "astId": 38544,
            "contract": "contracts/token/RewardsDistributor.sol:RewardsDistributorV2",
            "label": "timeListPointer",
            "offset": 0,
            "slot": "2",
            "type": "t_array(t_uint256)dyn_storage"
          },
          {
            "astId": 38546,
            "contract": "contracts/token/RewardsDistributor.sol:RewardsDistributorV2",
            "label": "pid",
            "offset": 0,
            "slot": "3",
            "type": "t_uint256"
          },
          {
            "astId": 38550,
            "contract": "contracts/token/RewardsDistributor.sol:RewardsDistributorV2",
            "label": "tsContributions",
            "offset": 0,
            "slot": "4",
            "type": "t_mapping(t_uint256,t_struct(TimestampContribution)38560_storage)"
          }
        ],
        "numberOfBytes": "160"
      },
      "t_struct(GardenPowerByTimestamp)38537_storage": {
        "encoding": "inplace",
        "label": "struct RewardsDistributorV2.GardenPowerByTimestamp",
        "members": [
          {
            "astId": 38532,
            "contract": "contracts/token/RewardsDistributor.sol:RewardsDistributorV2",
            "label": "supply",
            "offset": 0,
            "slot": "0",
            "type": "t_uint256"
          },
          {
            "astId": 38534,
            "contract": "contracts/token/RewardsDistributor.sol:RewardsDistributorV2",
            "label": "timestamp",
            "offset": 0,
            "slot": "1",
            "type": "t_uint256"
          },
          {
            "astId": 38536,
            "contract": "contracts/token/RewardsDistributor.sol:RewardsDistributorV2",
            "label": "power",
            "offset": 0,
            "slot": "2",
            "type": "t_uint256"
          }
        ],
        "numberOfBytes": "96"
      },
      "t_struct(ProtocolPerQuarter)38530_storage": {
        "encoding": "inplace",
        "label": "struct RewardsDistributorV2.ProtocolPerQuarter",
        "members": [
          {
            "astId": 38523,
            "contract": "contracts/token/RewardsDistributor.sol:RewardsDistributorV2",
            "label": "quarterPrincipal",
            "offset": 0,
            "slot": "0",
            "type": "t_uint256"
          },
          {
            "astId": 38525,
            "contract": "contracts/token/RewardsDistributor.sol:RewardsDistributorV2",
            "label": "quarterNumber",
            "offset": 0,
            "slot": "1",
            "type": "t_uint256"
          },
          {
            "astId": 38527,
            "contract": "contracts/token/RewardsDistributor.sol:RewardsDistributorV2",
            "label": "quarterPower",
            "offset": 0,
            "slot": "2",
            "type": "t_uint256"
          },
          {
            "astId": 38529,
            "contract": "contracts/token/RewardsDistributor.sol:RewardsDistributorV2",
            "label": "supplyPerQuarter",
            "offset": 0,
            "slot": "3",
            "type": "t_uint96"
          }
        ],
        "numberOfBytes": "128"
      },
      "t_struct(ProtocolPerTimestamp)38521_storage": {
        "encoding": "inplace",
        "label": "struct RewardsDistributorV2.ProtocolPerTimestamp",
        "members": [
          {
            "astId": 38512,
            "contract": "contracts/token/RewardsDistributor.sol:RewardsDistributorV2",
            "label": "principal",
            "offset": 0,
            "slot": "0",
            "type": "t_uint256"
          },
          {
            "astId": 38514,
            "contract": "contracts/token/RewardsDistributor.sol:RewardsDistributorV2",
            "label": "time",
            "offset": 0,
            "slot": "1",
            "type": "t_uint256"
          },
          {
            "astId": 38516,
            "contract": "contracts/token/RewardsDistributor.sol:RewardsDistributorV2",
            "label": "quarterBelonging",
            "offset": 0,
            "slot": "2",
            "type": "t_uint256"
          },
          {
            "astId": 38518,
            "contract": "contracts/token/RewardsDistributor.sol:RewardsDistributorV2",
            "label": "timeListPointer",
            "offset": 0,
            "slot": "3",
            "type": "t_uint256"
          },
          {
            "astId": 38520,
            "contract": "contracts/token/RewardsDistributor.sol:RewardsDistributorV2",
            "label": "power",
            "offset": 0,
            "slot": "4",
            "type": "t_uint256"
          }
        ],
        "numberOfBytes": "160"
      },
      "t_struct(StrategyPerQuarter)38636_storage": {
        "encoding": "inplace",
        "label": "struct RewardsDistributorV2.StrategyPerQuarter",
        "members": [
          {
            "astId": 38629,
            "contract": "contracts/token/RewardsDistributor.sol:RewardsDistributorV2",
            "label": "quarterPrincipal",
            "offset": 0,
            "slot": "0",
            "type": "t_uint256"
          },
          {
            "astId": 38631,
            "contract": "contracts/token/RewardsDistributor.sol:RewardsDistributorV2",
            "label": "quarterNumber",
            "offset": 0,
            "slot": "1",
            "type": "t_uint256"
          },
          {
            "astId": 38633,
            "contract": "contracts/token/RewardsDistributor.sol:RewardsDistributorV2",
            "label": "quarterPower",
            "offset": 0,
            "slot": "2",
            "type": "t_uint256"
          },
          {
            "astId": 38635,
            "contract": "contracts/token/RewardsDistributor.sol:RewardsDistributorV2",
            "label": "initialized",
            "offset": 0,
            "slot": "3",
            "type": "t_bool"
          }
        ],
        "numberOfBytes": "128"
      },
      "t_struct(StrategyPricePerTokenUnit)38641_storage": {
        "encoding": "inplace",
        "label": "struct RewardsDistributorV2.StrategyPricePerTokenUnit",
        "members": [
          {
            "astId": 38638,
            "contract": "contracts/token/RewardsDistributor.sol:RewardsDistributorV2",
            "label": "preallocated",
            "offset": 0,
            "slot": "0",
            "type": "t_uint256"
          },
          {
            "astId": 38640,
            "contract": "contracts/token/RewardsDistributor.sol:RewardsDistributorV2",
            "label": "pricePerTokenUnit",
            "offset": 0,
            "slot": "1",
            "type": "t_uint256"
          }
        ],
        "numberOfBytes": "64"
      },
      "t_struct(TimestampContribution)38560_storage": {
        "encoding": "inplace",
        "label": "struct RewardsDistributorV2.TimestampContribution",
        "members": [
          {
            "astId": 38553,
            "contract": "contracts/token/RewardsDistributor.sol:RewardsDistributorV2",
            "label": "supply",
            "offset": 0,
            "slot": "0",
            "type": "t_uint256"
          },
          {
            "astId": 38555,
            "contract": "contracts/token/RewardsDistributor.sol:RewardsDistributorV2",
            "label": "timestamp",
            "offset": 0,
            "slot": "1",
            "type": "t_uint256"
          },
          {
            "astId": 38557,
            "contract": "contracts/token/RewardsDistributor.sol:RewardsDistributorV2",
            "label": "timePointer",
            "offset": 0,
            "slot": "2",
            "type": "t_uint256"
          },
          {
            "astId": 38559,
            "contract": "contracts/token/RewardsDistributor.sol:RewardsDistributorV2",
            "label": "power",
            "offset": 0,
            "slot": "3",
            "type": "t_uint256"
          }
        ],
        "numberOfBytes": "128"
      },
      "t_uint256": {
        "encoding": "inplace",
        "label": "uint256",
        "numberOfBytes": "32"
      },
      "t_uint96": {
        "encoding": "inplace",
        "label": "uint96",
        "numberOfBytes": "12"
      }
    }
  }
}