{
  "address": "0x44EBBAE44b051B960006cE9Da93C6179F547A388",
  "abi": [
    {
      "inputs": [
        {
          "internalType": "contract TimeLockedToken",
          "name": "_bablToken",
          "type": "address"
        },
        {
          "internalType": "contract IBabController",
          "name": "_controller",
          "type": "address"
        }
      ],
      "stateMutability": "nonpayable",
      "type": "constructor"
    },
    {
      "anonymous": false,
      "inputs": [
        {
          "indexed": true,
          "internalType": "address",
          "name": "previousOwner",
          "type": "address"
        },
        {
          "indexed": true,
          "internalType": "address",
          "name": "newOwner",
          "type": "address"
        }
      ],
      "name": "OwnershipTransferred",
      "type": "event"
    },
    {
      "inputs": [],
      "name": "BABL_LP_SHARE",
      "outputs": [
        {
          "internalType": "uint256",
          "name": "",
          "type": "uint256"
        }
      ],
      "stateMutability": "view",
      "type": "function"
    },
    {
      "inputs": [],
      "name": "BABL_STEWARD_SHARE",
      "outputs": [
        {
          "internalType": "uint256",
          "name": "",
          "type": "uint256"
        }
      ],
      "stateMutability": "view",
      "type": "function"
    },
    {
      "inputs": [],
      "name": "BABL_STRATEGIST_SHARE",
      "outputs": [
        {
          "internalType": "uint256",
          "name": "",
          "type": "uint256"
        }
      ],
      "stateMutability": "view",
      "type": "function"
    },
    {
      "inputs": [],
      "name": "CREATOR_BONUS",
      "outputs": [
        {
          "internalType": "uint256",
          "name": "",
          "type": "uint256"
        }
      ],
      "stateMutability": "view",
      "type": "function"
    },
    {
      "inputs": [],
      "name": "DECAY_RATE",
      "outputs": [
        {
          "internalType": "uint256",
          "name": "",
          "type": "uint256"
        }
      ],
      "stateMutability": "view",
      "type": "function"
    },
    {
      "inputs": [],
      "name": "EPOCH_DURATION",
      "outputs": [
        {
          "internalType": "uint256",
          "name": "",
          "type": "uint256"
        }
      ],
      "stateMutability": "view",
      "type": "function"
    },
    {
      "inputs": [],
      "name": "PROFIT_LP_SHARE",
      "outputs": [
        {
          "internalType": "uint256",
          "name": "",
          "type": "uint256"
        }
      ],
      "stateMutability": "view",
      "type": "function"
    },
    {
      "inputs": [],
      "name": "PROFIT_PROTOCOL_FEE",
      "outputs": [
        {
          "internalType": "uint256",
          "name": "",
          "type": "uint256"
        }
      ],
      "stateMutability": "view",
      "type": "function"
    },
    {
      "inputs": [],
      "name": "PROFIT_STEWARD_SHARE",
      "outputs": [
        {
          "internalType": "uint256",
          "name": "",
          "type": "uint256"
        }
      ],
      "stateMutability": "view",
      "type": "function"
    },
    {
      "inputs": [],
      "name": "PROFIT_STRATEGIST_SHARE",
      "outputs": [
        {
          "internalType": "uint256",
          "name": "",
          "type": "uint256"
        }
      ],
      "stateMutability": "view",
      "type": "function"
    },
    {
      "inputs": [],
      "name": "Q1_REWARDS",
      "outputs": [
        {
          "internalType": "uint256",
          "name": "",
          "type": "uint256"
        }
      ],
      "stateMutability": "view",
      "type": "function"
    },
    {
      "inputs": [],
      "name": "START_TIME",
      "outputs": [
        {
          "internalType": "uint256",
          "name": "",
          "type": "uint256"
        }
      ],
      "stateMutability": "view",
      "type": "function"
    },
    {
      "inputs": [
        {
          "internalType": "uint256",
          "name": "_capital",
          "type": "uint256"
        }
      ],
      "name": "addProtocolPrincipal",
      "outputs": [],
      "stateMutability": "nonpayable",
      "type": "function"
    },
    {
      "inputs": [],
      "name": "babltoken",
      "outputs": [
        {
          "internalType": "contract TimeLockedToken",
          "name": "",
          "type": "address"
        }
      ],
      "stateMutability": "view",
      "type": "function"
    },
    {
      "inputs": [
        {
          "internalType": "uint256",
          "name": "_time",
          "type": "uint256"
        }
      ],
      "name": "checkProtocol",
      "outputs": [
        {
          "internalType": "uint256",
          "name": "principal",
          "type": "uint256"
        },
        {
          "internalType": "uint256",
          "name": "time",
          "type": "uint256"
        },
        {
          "internalType": "uint256",
          "name": "quarterBelonging",
          "type": "uint256"
        },
        {
          "internalType": "uint256",
          "name": "timeListPointer",
          "type": "uint256"
        },
        {
          "internalType": "uint256",
          "name": "power",
          "type": "uint256"
        }
      ],
      "stateMutability": "view",
      "type": "function"
    },
    {
      "inputs": [
        {
          "internalType": "uint256",
          "name": "_num",
          "type": "uint256"
        }
      ],
      "name": "checkQuarter",
      "outputs": [
        {
          "internalType": "uint256",
          "name": "quarterPrincipal",
          "type": "uint256"
        },
        {
          "internalType": "uint256",
          "name": "quarterNumber",
          "type": "uint256"
        },
        {
          "internalType": "uint256",
          "name": "quarterPower",
          "type": "uint256"
        },
        {
          "internalType": "uint96",
          "name": "supplyPerQuarter",
          "type": "uint96"
        }
      ],
      "stateMutability": "view",
      "type": "function"
    },
    {
      "inputs": [
        {
          "internalType": "address",
          "name": "",
          "type": "address"
        },
        {
          "internalType": "address",
          "name": "",
          "type": "address"
        }
      ],
      "name": "contributorPerGarden",
      "outputs": [
        {
          "internalType": "uint256",
          "name": "lastDepositAt",
          "type": "uint256"
        },
        {
          "internalType": "uint256",
          "name": "initialDepositAt",
          "type": "uint256"
        },
        {
          "internalType": "uint256",
          "name": "pid",
          "type": "uint256"
        }
      ],
      "stateMutability": "view",
      "type": "function"
    },
    {
      "inputs": [],
      "name": "controller",
      "outputs": [
        {
          "internalType": "contract IBabController",
          "name": "",
          "type": "address"
        }
      ],
      "stateMutability": "view",
      "type": "function"
    },
    {
      "inputs": [
        {
          "internalType": "address",
          "name": "",
          "type": "address"
        }
      ],
      "name": "gardenPid",
      "outputs": [
        {
          "internalType": "uint256",
          "name": "",
          "type": "uint256"
        }
      ],
      "stateMutability": "view",
      "type": "function"
    },
    {
      "inputs": [
        {
          "internalType": "address",
          "name": "",
          "type": "address"
        },
        {
          "internalType": "uint256",
          "name": "",
          "type": "uint256"
        }
      ],
      "name": "gardenPowerByTimestamp",
      "outputs": [
        {
          "internalType": "uint256",
          "name": "principal",
          "type": "uint256"
        },
        {
          "internalType": "uint256",
          "name": "timestamp",
          "type": "uint256"
        },
        {
          "internalType": "uint256",
          "name": "power",
          "type": "uint256"
        }
      ],
      "stateMutability": "view",
      "type": "function"
    },
    {
      "inputs": [
        {
          "internalType": "address",
          "name": "",
          "type": "address"
        },
        {
          "internalType": "uint256",
          "name": "",
          "type": "uint256"
        }
      ],
      "name": "gardenTimelist",
      "outputs": [
        {
          "internalType": "uint256",
          "name": "",
          "type": "uint256"
        }
      ],
      "stateMutability": "view",
      "type": "function"
    },
    {
      "inputs": [
        {
          "internalType": "address",
          "name": "_garden",
          "type": "address"
        },
        {
          "internalType": "address",
          "name": "_contributor",
          "type": "address"
        },
        {
          "internalType": "uint256",
          "name": "_from",
          "type": "uint256"
        },
        {
          "internalType": "uint256",
          "name": "_to",
          "type": "uint256"
        }
      ],
      "name": "getContributorPower",
      "outputs": [
        {
          "internalType": "uint256",
          "name": "",
          "type": "uint256"
        }
      ],
      "stateMutability": "view",
      "type": "function"
    },
    {
      "inputs": [
        {
          "internalType": "address",
          "name": "_garden",
          "type": "address"
        },
        {
          "internalType": "address",
          "name": "_contributor",
          "type": "address"
        },
        {
          "internalType": "address[]",
          "name": "_finalizedStrategies",
          "type": "address[]"
        }
      ],
      "name": "getRewards",
      "outputs": [
        {
          "internalType": "uint256",
          "name": "",
          "type": "uint256"
        },
        {
          "internalType": "uint96",
          "name": "",
          "type": "uint96"
        }
      ],
      "stateMutability": "view",
      "type": "function"
    },
    {
      "inputs": [
        {
          "internalType": "address",
          "name": "_strategy",
          "type": "address"
        }
      ],
      "name": "getStrategyRewards",
      "outputs": [
        {
          "internalType": "uint96",
          "name": "",
          "type": "uint96"
        }
      ],
      "stateMutability": "view",
      "type": "function"
    },
    {
      "inputs": [
        {
          "internalType": "uint256",
          "name": "",
          "type": "uint256"
        }
      ],
      "name": "isProtocolPerQuarter",
      "outputs": [
        {
          "internalType": "bool",
          "name": "",
          "type": "bool"
        }
      ],
      "stateMutability": "view",
      "type": "function"
    },
    {
      "inputs": [],
      "name": "owner",
      "outputs": [
        {
          "internalType": "address",
          "name": "",
          "type": "address"
        }
      ],
      "stateMutability": "view",
      "type": "function"
    },
    {
      "inputs": [],
      "name": "pid",
      "outputs": [
        {
          "internalType": "uint256",
          "name": "",
          "type": "uint256"
        }
      ],
      "stateMutability": "view",
      "type": "function"
    },
    {
      "inputs": [
        {
          "internalType": "uint256",
          "name": "",
          "type": "uint256"
        }
      ],
      "name": "protocolPerQuarter",
      "outputs": [
        {
          "internalType": "uint256",
          "name": "quarterPrincipal",
          "type": "uint256"
        },
        {
          "internalType": "uint256",
          "name": "quarterNumber",
          "type": "uint256"
        },
        {
          "internalType": "uint256",
          "name": "quarterPower",
          "type": "uint256"
        },
        {
          "internalType": "uint96",
          "name": "supplyPerQuarter",
          "type": "uint96"
        }
      ],
      "stateMutability": "view",
      "type": "function"
    },
    {
      "inputs": [
        {
          "internalType": "uint256",
          "name": "",
          "type": "uint256"
        }
      ],
      "name": "protocolPerTimestamp",
      "outputs": [
        {
          "internalType": "uint256",
          "name": "principal",
          "type": "uint256"
        },
        {
          "internalType": "uint256",
          "name": "time",
          "type": "uint256"
        },
        {
          "internalType": "uint256",
          "name": "quarterBelonging",
          "type": "uint256"
        },
        {
          "internalType": "uint256",
          "name": "timeListPointer",
          "type": "uint256"
        },
        {
          "internalType": "uint256",
          "name": "power",
          "type": "uint256"
        }
      ],
      "stateMutability": "view",
      "type": "function"
    },
    {
      "inputs": [],
      "name": "protocolPrincipal",
      "outputs": [
        {
          "internalType": "uint256",
          "name": "",
          "type": "uint256"
        }
      ],
      "stateMutability": "view",
      "type": "function"
    },
    {
      "inputs": [],
      "name": "renounceOwnership",
      "outputs": [],
      "stateMutability": "nonpayable",
      "type": "function"
    },
    {
      "inputs": [
        {
          "internalType": "address",
          "name": "",
          "type": "address"
        },
        {
          "internalType": "uint256",
          "name": "",
          "type": "uint256"
        }
      ],
      "name": "rewardsPowerOverhead",
      "outputs": [
        {
          "internalType": "uint256",
          "name": "",
          "type": "uint256"
        }
      ],
      "stateMutability": "view",
      "type": "function"
    },
    {
      "inputs": [
        {
          "internalType": "address",
          "name": "_to",
          "type": "address"
        },
        {
          "internalType": "uint96",
          "name": "_amount",
          "type": "uint96"
        }
      ],
      "name": "sendTokensToContributor",
      "outputs": [],
      "stateMutability": "nonpayable",
      "type": "function"
    },
    {
      "inputs": [
        {
          "internalType": "address",
          "name": "_garden",
          "type": "address"
        },
        {
          "internalType": "address",
          "name": "_contributor",
          "type": "address"
        },
        {
          "internalType": "uint256",
          "name": "_previousBalance",
          "type": "uint256"
        },
        {
          "internalType": "bool",
          "name": "_depositOrWithdraw",
          "type": "bool"
        },
        {
          "internalType": "uint256",
          "name": "_pid",
          "type": "uint256"
        }
      ],
      "name": "setContributorTimestampParams",
      "outputs": [],
      "stateMutability": "nonpayable",
      "type": "function"
    },
    {
      "inputs": [],
      "name": "startBABLRewards",
      "outputs": [],
      "stateMutability": "nonpayable",
      "type": "function"
    },
    {
      "inputs": [
        {
          "internalType": "uint256",
          "name": "_capital",
          "type": "uint256"
        }
      ],
      "name": "substractProtocolPrincipal",
      "outputs": [],
      "stateMutability": "nonpayable",
      "type": "function"
    },
    {
      "inputs": [
        {
          "internalType": "uint256",
          "name": "",
          "type": "uint256"
        }
      ],
      "name": "timeList",
      "outputs": [
        {
          "internalType": "uint256",
          "name": "",
          "type": "uint256"
        }
      ],
      "stateMutability": "view",
      "type": "function"
    },
    {
      "inputs": [
        {
          "internalType": "uint256",
          "name": "quarter",
          "type": "uint256"
        }
      ],
      "name": "tokenSupplyPerQuarter",
      "outputs": [
        {
          "internalType": "uint96",
          "name": "",
          "type": "uint96"
        }
      ],
      "stateMutability": "pure",
      "type": "function"
    },
    {
      "inputs": [
        {
          "internalType": "address",
          "name": "newOwner",
          "type": "address"
        }
      ],
      "name": "transferOwnership",
      "outputs": [],
      "stateMutability": "nonpayable",
      "type": "function"
    },
    {
      "inputs": [
        {
          "internalType": "address",
          "name": "_garden",
          "type": "address"
        },
        {
          "internalType": "uint256",
          "name": "_pid",
          "type": "uint256"
        }
      ],
      "name": "updateGardenPower",
      "outputs": [],
      "stateMutability": "nonpayable",
      "type": "function"
    }
  ],
  "transactionHash": "0xac7276e30e844898143680fc3dc2510bc2d0c020ef3deec19a6536ad7a5fad21",
  "args": [
    "0x8b7C579dFF83Adb1eC6E5DAF5f84b9425C4Bf0E4",
    "0x26E44AD5b46C6A8C167815B7D180F6a5eD91D7bc"
  ],
  "solcInputHash": "1cde26e1be086ba932a8865ced5ceef3",
  "bytecode": "0x6101806040523480156200001257600080fd5b5060405162005ac638038062005ac6833981810160405260408110156200003857600080fd5b50805160209091015160006200004d62000310565b600080546001600160a01b0319166001600160a01b0383169081178255604051929350917f8be0079c531659141344cd1fd0a4f28419497f9722a3daafe3b4186f6b6457e0908290a3506001600160a01b038216620000f3576040805162461bcd60e51b815260206004820152601460248201527f546f6b656e206e6565647320746f206578697374000000000000000000000000604482015290519081900360640190fd5b6001600160a01b0381166200014f576040805162461bcd60e51b815260206004820152601960248201527f436f6e74726f6c6c6572206e6565647320746f20657869737400000000000000604482015290519081900360640190fd5b600380546001600160a01b038085166001600160a01b031992831617909255600280548484169216919091179081905560408051633c50b0ef60e21b81529051919092169163f142c3bc916004808301926080929190829003018186803b158015620001ba57600080fd5b505afa158015620001cf573d6000803e3d6000fd5b505050506040513d6080811015620001e657600080fd5b50805160208201516040808401516060948501516101605260c05260a0919091526080919091526002548151632e0519cf60e01b815291516001600160a01b0390911692632e0519cf9260048082019391829003018186803b1580156200024c57600080fd5b505afa15801562000261573d6000803e3d6000fd5b505050506040513d60608110156200027857600080fd5b508051602080830151604093840151610120526101005260e091909152600254825163568c081360e01b815292516001600160a01b039091169263568c0813926004808301939192829003018186803b158015620002d557600080fd5b505afa158015620002ea573d6000803e3d6000fd5b505050506040513d60208110156200030157600080fd5b50516101405250620003149050565b3390565b60805160a05160c05160e0516101005161012051610140516101605161572c6200039a60003980611cb25280612a7f525080610f875280612872525080610c565250806108225280614e905280614f48525080610fba52806149aa5250806120aa5280612972525080610ef05280614bd6525080611c7c52806147d8525061572c6000f3fe608060405234801561001057600080fd5b50600436106102c85760003560e01c8063908589441161017b578063df14e06f116100d8578063f5750d0f1161008c578063f77c479111610071578063f77c4791146107b5578063fa51a34b146107bd578063fd9ff86c146107c5576102c8565b8063f5750d0f1461076c578063f6c8d7b514610789576102c8565b8063f1068454116100bd578063f106845414610712578063f1ed38611461071a578063f2fde38b14610746576102c8565b8063df14e06f146106de578063e5cab4fa1461070a576102c8565b8063d60913ce1161012f578063db4b3af511610114578063db4b3af5146106a8578063dc178712146106ce578063ddaa26ad146106d6576102c8565b8063d60913ce14610654578063da17a6ca146106a0576102c8565b8063a675004711610160578063a675004714610612578063a70b9f0c1461062f578063cf14938714610637576102c8565b806390858944146105e45780639de9a052146105ec576102c8565b80636bf15bbd1161022957806378769678116101dd57806379fc904f116101c257806379fc904f146105cc5780638cb8c855146105d45780638da5cb5b146105dc576102c8565b8063787696781461059357806379102629146105c4576102c8565b8063715018a61161020e578063715018a61461051657806373a9fd9f1461051e5780637602bdde14610557576102c8565b80636bf15bbd146104d95780636e570b591461050e576102c8565b80632db4b3a711610280578063551bf81611610265578063551bf8161461040357806356773b791461040b57806369795e931461042f576102c8565b80632db4b3a7146103a25780633c0deba4146103e6576102c8565b80630fa454cf116102b15780630fa454cf1461032f5780631de40e491461034e5780632544dc1814610356576102c8565b806308c6850f146102cd5780630bb6d20814610315575b600080fd5b6102ea600480360360208110156102e357600080fd5b50356107f1565b6040805195865260208601949094528484019290925260608401526080830152519081900360a00190f35b61031d610820565b60408051918252519081900360200190f35b61034c6004803603602081101561034557600080fd5b5035610844565b005b61031d610a49565b6103736004803603602081101561036c57600080fd5b5035610a55565b604080519485526020850193909352838301919091526001600160601b03166060830152519081900360800190f35b61034c600480360360a08110156103b857600080fd5b506001600160a01b038135811691602081013590911690604081013590606081013515159060800135610a86565b610373600480360360208110156103fc57600080fd5b5035610c24565b61031d610c54565b610413610c78565b604080516001600160a01b039092168252519081900360200190f35b6104b86004803603606081101561044557600080fd5b6001600160a01b03823581169260208101359091169181019060608101604082013564010000000081111561047957600080fd5b82018360208201111561048b57600080fd5b803590602001918460208302840111640100000000831117156104ad57600080fd5b509092509050610c87565b604080519283526001600160601b0390911660208301528051918290030190f35b61034c600480360360408110156104ef57600080fd5b5080356001600160a01b031690602001356001600160601b0316610d38565b61031d610dd4565b61034c610de2565b61053b6004803603602081101561053457600080fd5b5035610ead565b604080516001600160601b039092168252519081900360200190f35b61031d6004803603608081101561056d57600080fd5b506001600160a01b03813581169160208101359091169060408101359060600135610ec0565b6105b0600480360360208110156105a957600080fd5b5035610ed9565b604080519115158252519081900360200190f35b61031d610eee565b61034c610f12565b61031d610f85565b610413610fa9565b61031d610fb8565b61053b6004803603602081101561060257600080fd5b50356001600160a01b0316610fdc565b61031d6004803603602081101561062857600080fd5b5035611bf7565b61031d611c18565b6102ea6004803603602081101561064d57600080fd5b5035611c1f565b6106826004803603604081101561066a57600080fd5b506001600160a01b0381358116916020013516611c4e565b60408051938452602084019290925282820152519081900360600190f35b61031d611c7a565b61031d600480360360208110156106be57600080fd5b50356001600160a01b0316611c9e565b61031d611cb0565b61031d611cd4565b61034c600480360360408110156106f457600080fd5b506001600160a01b038135169060200135611cda565b61031d611e0c565b61031d611e12565b61031d6004803603604081101561073057600080fd5b506001600160a01b038135169060200135611e18565b61034c6004803603602081101561075c57600080fd5b50356001600160a01b0316611e49565b61034c6004803603602081101561078257600080fd5b5035611f6a565b61031d6004803603604081101561079f57600080fd5b506001600160a01b03813516906020013561207c565b610413612099565b61031d6120a8565b610682600480360360408110156107db57600080fd5b506001600160a01b0381351690602001356120cc565b600560205260009081526040902080546001820154600283015460038401546004909401549293919290919085565b7f000000000000000000000000000000000000000000000000000000000000000081565b60025460408051630ad7511760e31b8152905161094e926001600160a01b0316916313bc6d4b9133916356ba88b8916004808301926020929190829003018186803b15801561089257600080fd5b505afa1580156108a6573d6000803e3d6000fd5b505050506040513d60208110156108bc57600080fd5b5051604080517fffffffff0000000000000000000000000000000000000000000000000000000060e085901b1681526001600160a01b039092166004830152516024808301926020929190829003018186803b15801561091b57600080fd5b505afa15801561092f573d6000803e3d6000fd5b505050506040513d602081101561094557600080fd5b505160146120f8565b6002546040805163184a263160e11b815290516109c7926001600160a01b0316916330944c62916004808301926020929190829003018186803b15801561099457600080fd5b505afa1580156109a8573d6000803e3d6000fd5b505050506040513d60208110156109be57600080fd5b505160456120f8565b6000339050600154816001600160a01b0316636db9cc996040518163ffffffff1660e01b815260040160206040518083038186803b158015610a0857600080fd5b505afa158015610a1c573d6000803e3d6000fd5b505050506040513d6020811015610a3257600080fd5b505110610a4557610a4581836001612106565b5050565b6701aa535d3d0c000081565b600090815260086020526040902080546001820154600283015460039093015491939092916001600160601b031690565b848180151580610aae57506001600160a01b0382166000908152600f60205260409020546001105b15610bbd57600254604080516313bc6d4b60e01b81526001600160a01b0385811660048301529151610b389392909216916313bc6d4b91602480820192602092909190829003018186803b158015610b0557600080fd5b505afa158015610b19573d6000803e3d6000fd5b505050506040513d6020811015610b2f57600080fd5b505160486120f8565b6002546040805163364d118160e01b81526001600160a01b0385811660048301529151610bbd93929092169163364d118191602480820192602092909190829003018186803b158015610b8a57600080fd5b505afa158015610b9e573d6000803e3d6000fd5b505050506040513d6020811015610bb457600080fd5b505160236120f8565b610bd3336001600160a01b0384161460236120f8565b610c0f826001600160a01b03166302fb0c5e6040518163ffffffff1660e01b815260040160206040518083038186803b158015610b8a57600080fd5b610c1b878787876122cb565b50505050505050565b6008602052600090815260409020805460018201546002830154600390930154919290916001600160601b031684565b7f000000000000000000000000000000000000000000000000000000000000000081565b6003546001600160a01b031681565b60008060008060005b85811015610ce857600080610cc18b8a8a86818110610cab57fe5b905060200201356001600160a01b03168c6124e8565b9092509050610cd08583612abc565b9450610cdc8482612abc565b93505050600101610c90565b5081610d29826040518060400160405280600381526020017f5232380000000000000000000000000000000000000000000000000000000000815250612b1f565b93509350505094509492505050565b6002546040805163184a263160e11b81529051610d7e926001600160a01b0316916330944c62916004808301926020929190829003018186803b15801561099457600080fd5b600254604080516313bc6d4b60e01b81523360048201529051610dca926001600160a01b0316916313bc6d4b916024808301926020929190829003018186803b158015610b0557600080fd5b610a458282612bc2565b690b581ceb141f05c1ae0081565b610dea612cd3565b6001600160a01b0316610dfb610fa9565b6001600160a01b031614610e56576040805162461bcd60e51b815260206004820181905260248201527f4f776e61626c653a2063616c6c6572206973206e6f7420746865206f776e6572604482015290519081900360640190fd5b600080546040516001600160a01b03909116907f8be0079c531659141344cd1fd0a4f28419497f9722a3daafe3b4186f6b6457e0908390a36000805473ffffffffffffffffffffffffffffffffffffffff19169055565b6000610eb882612cd7565b90505b919050565b6000610ece85858585612dbf565b90505b949350505050565b60096020526000908152604090205460ff1681565b7f000000000000000000000000000000000000000000000000000000000000000081565b600254604080516313bc6d4b60e01b81523360048201529051610f5e926001600160a01b0316916313bc6d4b916024808301926020929190829003018186803b158015610b0557600080fd5b600254610f77906001600160a01b0316331460106120f8565b600154610f8357426001555b565b7f000000000000000000000000000000000000000000000000000000000000000081565b6000546001600160a01b031690565b7f000000000000000000000000000000000000000000000000000000000000000081565b600080829050611053816001600160a01b031663d0f9953e6040518163ffffffff1660e01b815260040160206040518083038186803b15801561101e57600080fd5b505afa158015611032573d6000803e3d6000fd5b505050506040513d602081101561104857600080fd5b5051151560316120f8565b600154816001600160a01b0316636db9cc996040518163ffffffff1660e01b815260040160206040518083038186803b15801561108f57600080fd5b505afa1580156110a3573d6000803e3d6000fd5b505050506040513d60208110156110b957600080fd5b5051108015906110ca575060015415155b15611bed576000816001600160a01b0316636db40dc26040518163ffffffff1660e01b815260040160206040518083038186803b15801561110a57600080fd5b505afa15801561111e573d6000803e3d6000fd5b505050506040513d602081101561113457600080fd5b50519050801561117957611170816040518060400160405280601081526020016f6f766572666c6f77203936206269747360801b815250612b1f565b92505050610ebb565b600080611255846001600160a01b031663825deffe6040518163ffffffff1660e01b815260040160206040518083038186803b1580156111b857600080fd5b505afa1580156111cc573d6000803e3d6000fd5b505050506040513d60208110156111e257600080fd5b50516040805163687cca9f60e11b815290516001600160a01b0388169163d0f9953e916004808301926020929190829003018186803b15801561122457600080fd5b505afa158015611238573d6000803e3d6000fd5b505050506040513d602081101561124e57600080fd5b5051613281565b915091506000600183116114805761126d87836132ff565b600083815260086020526040902060030154909150611299906001600160601b031682111560466120f8565b61147b6008600084815260200190815260200160002060020154611472876001600160a01b031663dbabf4f36040518163ffffffff1660e01b815260040160206040518083038186803b1580156112ef57600080fd5b505afa158015611303573d6000803e3d6000fd5b505050506040513d602081101561131957600080fd5b50516040805163412ef7ff60e11b8152905161146c91611401916001600160a01b038d169163825deffe916004808301926020929190829003018186803b15801561136357600080fd5b505afa158015611377573d6000803e3d6000fd5b505050506040513d602081101561138d57600080fd5b50516040805163687cca9f60e11b815290516001600160a01b038e169163d0f9953e916004808301926020929190829003018186803b1580156113cf57600080fd5b505afa1580156113e3573d6000803e3d6000fd5b505050506040513d60208110156113f957600080fd5b505190613538565b8a6001600160a01b03166303cddb2c6040518163ffffffff1660e01b815260040160206040518083038186803b15801561143a57600080fd5b505afa15801561144e573d6000803e3d6000fd5b505050506040513d602081101561146457600080fd5b505190613595565b90613538565b111560476120f8565b611a90565b60008367ffffffffffffffff8111801561149957600080fd5b506040519080825280602002602001820160405280156114c3578160200160208202803683370190505b50905060008467ffffffffffffffff811180156114df57600080fd5b50604051908082528060200260200182016040528015611509578160200160208202803683370190505b50905060005b61151a866001613538565b8111611a8c57600061154561153c6276a7006115368986612abc565b90613595565b60015490612abc565b90506000670de0b6b3a76400009050816115c76276a7008c6001600160a01b031663825deffe6040518163ffffffff1660e01b815260040160206040518083038186803b15801561159557600080fd5b505afa1580156115a9573d6000803e3d6000fd5b505050506040513d60208110156115bf57600080fd5b505190612abc565b111561173b5761171e600a60008c6001600160a01b03166001600160a01b0316815260200190815260200160002060006116648d6001600160a01b031663825deffe6040518163ffffffff1660e01b815260040160206040518083038186803b15801561163357600080fd5b505afa158015611647573d6000803e3d6000fd5b505050506040513d602081101561165d57600080fd5b50516135ee565b81526020019081526020016000205461146c6116e58d6001600160a01b031663825deffe6040518163ffffffff1660e01b815260040160206040518083038186803b1580156116b257600080fd5b505afa1580156116c6573d6000803e3d6000fd5b505050506040513d60208110156116dc57600080fd5b50518690613538565b8d6001600160a01b03166303cddb2c6040518163ffffffff1660e01b815260040160206040518083038186803b15801561143a57600080fd5b85848151811061172a57fe5b602002602001018181525050611993565b611748826276a700613538565b8a6001600160a01b031663825deffe6040518163ffffffff1660e01b815260040160206040518083038186803b15801561178157600080fd5b505afa158015611795573d6000803e3d6000fd5b505050506040513d60208110156117ab57600080fd5b505110801561181d5750896001600160a01b031663d0f9953e6040518163ffffffff1660e01b815260040160206040518083038186803b1580156117ee57600080fd5b505afa158015611802573d6000803e3d6000fd5b505050506040513d602081101561181857600080fd5b505182105b1561187e576001600160a01b038a166000908152600a6020526040812061171e9161185361184e86623b5380613538565b6135ee565b815260208101919091526040016000205461146c6116e5611877866276a700613538565b8690613538565b6118b5611898611891846276a700613538565b8490613538565b6118af6118a8856276a700613538565b4290613538565b9061362d565b905061197a600a60008c6001600160a01b03166001600160a01b03168152602001908152602001600020600061191d8d6001600160a01b031663d0f9953e6040518163ffffffff1660e01b815260040160206040518083038186803b15801561163357600080fd5b815260208101919091526040016000205461146c6116e5611941866276a700613538565b8e6001600160a01b031663d0f9953e6040518163ffffffff1660e01b815260040160206040518083038186803b1580156113cf57600080fd5b85848151811061198657fe5b6020026020010181815250505b600860006119a18986612abc565b8152602001908152602001600020600201548484815181106119bf57fe5b6020026020010181815250506119ff8484815181106119da57fe5b60200260200101518685815181106119ee57fe5b6020026020010151111560476120f8565b611a80611a7982611a7360086000611a178d8a612abc565b815260208101919091526040016000206003015488516001600160601b0390911690611a73908a908a908110611a4957fe5b60200260200101518b8a81518110611a5d57fe5b602002602001015161362d90919063ffffffff16565b90613645565b8790612abc565b9550505060010161150f565b5050505b6000611b85866001600160a01b03166303cddb2c6040518163ffffffff1660e01b815260040160206040518083038186803b158015611ace57600080fd5b505afa158015611ae2573d6000803e3d6000fd5b505050506040513d6020811015611af857600080fd5b5051604080517f03976e3800000000000000000000000000000000000000000000000000000000815290516001600160a01b038a16916303976e38916004808301926020929190829003018186803b158015611b5357600080fd5b505afa158015611b67573d6000803e3d6000fd5b505050506040513d6020811015611b7d57600080fd5b50519061362d565b9050671bc16d674ec80000811115611ba25750671bc16d674ec800005b611bac8282613645565b9150611be0826040518060400160405280601081526020016f6f766572666c6f77203936206269747360801b815250612b1f565b9650505050505050610ebb565b6000915050610ebb565b60068181548110611c0757600080fd5b600091825260209091200154905081565b6276a70081565b600090815260056020526040902080546001820154600283015460038401546004909401549294919390929091565b600b60209081526000928352604080842090915290825290208054600182015460039092015490919083565b7f000000000000000000000000000000000000000000000000000000000000000081565b600f6020526000908152604090205481565b7f000000000000000000000000000000000000000000000000000000000000000081565b60015481565b818180151580611d0257506001600160a01b0382166000908152600f60205260409020546001105b15611dab57600254604080516313bc6d4b60e01b81526001600160a01b0385811660048301529151611d599392909216916313bc6d4b91602480820192602092909190829003018186803b158015610b0557600080fd5b6002546040805163364d118160e01b81526001600160a01b0385811660048301529151611dab93929092169163364d118191602480820192602092909190829003018186803b158015610b8a57600080fd5b611dc1336001600160a01b0384161460236120f8565b611dfd826001600160a01b03166302fb0c5e6040518163ffffffff1660e01b815260040160206040518083038186803b158015610b8a57600080fd5b611e068461365d565b50505050565b60045481565b60075481565b600e6020528160005260406000208181548110611e3457600080fd5b90600052602060002001600091509150505481565b611e51612cd3565b6001600160a01b0316611e62610fa9565b6001600160a01b031614611ebd576040805162461bcd60e51b815260206004820181905260248201527f4f776e61626c653a2063616c6c6572206973206e6f7420746865206f776e6572604482015290519081900360640190fd5b6001600160a01b038116611f025760405162461bcd60e51b81526004018080602001828103825260268152602001806156866026913960400191505060405180910390fd5b600080546040516001600160a01b03808516939216917f8be0079c531659141344cd1fd0a4f28419497f9722a3daafe3b4186f6b6457e091a36000805473ffffffffffffffffffffffffffffffffffffffff19166001600160a01b0392909216919091179055565b60025460408051630ad7511760e31b81529051611fb8926001600160a01b0316916313bc6d4b9133916356ba88b8916004808301926020929190829003018186803b15801561089257600080fd5b6002546040805163184a263160e11b81529051611ffe926001600160a01b0316916330944c62916004808301926020929190829003018186803b15801561099457600080fd5b6000339050600154816001600160a01b0316636db9cc996040518163ffffffff1660e01b815260040160206040518083038186803b15801561203f57600080fd5b505afa158015612053573d6000803e3d6000fd5b505050506040513d602081101561206957600080fd5b505110610a4557610a4581836000612106565b600a60209081526000928352604080842090915290825290205481565b6002546001600160a01b031681565b7f000000000000000000000000000000000000000000000000000000000000000081565b600d60209081526000928352604080842090915290825290208054600182015460029092015490919083565b81610a4557610a4581613882565b426000908152600560205260409020839082612131576004546121299085613538565b600455612142565b60045461213e9085612abc565b6004555b60045481554260018201819055612158906135ee565b6002820155600754600382018190556121775760006004820155612270565b61226a612219600560006006612199600160075461353890919063ffffffff16565b815481106121a357fe5b90600052602060002001548152602001908152602001600020600001546115366005600060066121df600160075461353890919063ffffffff16565b815481106121e957fe5b9060005260206000200154815260200190815260200160002060010154856001015461353890919063ffffffff16565b600560006006612235600160075461353890919063ffffffff16565b8154811061223f57fe5b9060005260206000200154815260200190815260200160002060040154612abc90919063ffffffff16565b60048201555b60068054600181018255600091909152427ff652222313e28459528d920b65115c16c04f3efc82aaedc97be59f3f377c0d3f9091018190556122b1906138d5565b6122bb8285613fe9565b5050600780546001019055505050565b6001600160a01b038085166000818152600b602090815260408083209488168084529482529182902082516370a0823160e01b81526004810195909552915191936370a082319260248083019392829003018186803b15801561232d57600080fd5b505afa158015612341573d6000803e3d6000fd5b505050506040513d602081101561235757600080fd5b5051426000818152600484016020526040902091825560018201556003820154600290910181905561239d574260009081526004820160205260408120600301556123f6565b805460008181526004830160205260409020546123e0916123c49190611536904290613538565b8254600090815260048401602052604090206003015490612abc565b4260009081526004830160205260409020600301555b600182151514156124245782158061241057506001810154155b1561241c574260018201555b4281556124bb565b846001600160a01b03166370a08231856040518263ffffffff1660e01b815260040180826001600160a01b0316815260200191505060206040518083038186803b15801561247157600080fd5b505afa158015612485573d6000803e3d6000fd5b505050506040513d602081101561249b57600080fd5b50516124bb576000808255600182018190556124bb90600283019061564f565b60028101805460018181018355600092835260209092204291015560039091018054909101905550505050565b6000806000849050612573866001600160a01b0316826001600160a01b03166356ba88b86040518163ffffffff1660e01b815260040160206040518083038186803b15801561253657600080fd5b505afa15801561254a573d6000803e3d6000fd5b505050506040513d602081101561256057600080fd5b50516001600160a01b03161460496120f8565b60008060008060008061258587614314565b93509350935093506000808d6001600160a01b0316633d8270f58d6040518263ffffffff1660e01b815260040180826001600160a01b0316815260200191505060c06040518083038186803b1580156125dd57600080fd5b505afa1580156125f1573d6000803e3d6000fd5b505050506040513d60c081101561260757600080fd5b50602080820151604092830151835163687cca9f60e11b81529351919550935083926001600160a01b038d169263d0f9953e92600480840193829003018186803b15801561265457600080fd5b505afa158015612668573d6000803e3d6000fd5b505050506040513d602081101561267e57600080fd5b50511180156126f1575081896001600160a01b031663825deffe6040518163ffffffff1660e01b815260040160206040518083038186803b1580156126c257600080fd5b505afa1580156126d6573d6000803e3d6000fd5b505050506040513d60208110156126ec57600080fd5b505110155b801561277257508d6001600160a01b0316896001600160a01b03166356ba88b86040518163ffffffff1660e01b815260040160206040518083038186803b15801561273b57600080fd5b505afa15801561274f573d6000803e3d6000fd5b505050506040513d602081101561276557600080fd5b50516001600160a01b0316145b15612aa857600061285c8f8e8c6001600160a01b031663825deffe6040518163ffffffff1660e01b815260040160206040518083038186803b1580156127b757600080fd5b505afa1580156127cb573d6000803e3d6000fd5b505050506040513d60208110156127e157600080fd5b81019080805190602001909291905050508d6001600160a01b031663d0f9953e6040518163ffffffff1660e01b815260040160206040518083038186803b15801561282b57600080fd5b505afa15801561283f573d6000803e3d6000fd5b505050506040513d602081101561285557600080fd5b5051612dbf565b9050600187151514156128a05761289d612896877f00000000000000000000000000000000000000000000000000000000000000006145cb565b8790613538565b95505b6128b86128b18b8f8a8a8a8a6145ef565b8990612abc565b97506128d06128c98b8f8a8a614917565b8a90612abc565b98506128e36128b18b8f8a8a8a8a6149e3565b97506128f66128c98b8f8a8a8a8a614d86565b98506129fc6128b161296d8c6001600160a01b03166303cddb2c6040518163ffffffff1660e01b815260040160206040518083038186803b15801561293a57600080fd5b505afa15801561294e573d6000803e3d6000fd5b505050506040513d602081101561296457600080fd5b5051849061362d565b611a737f00000000000000000000000000000000000000000000000000000000000000008e6001600160a01b0316636db40dc26040518163ffffffff1660e01b815260040160206040518083038186803b1580156129ca57600080fd5b505afa1580156129de573d6000803e3d6000fd5b505050506040513d60208110156129f457600080fd5b5051906145cb565b97508e6001600160a01b03166302d05d3f6040518163ffffffff1660e01b815260040160206040518083038186803b158015612a3757600080fd5b505afa158015612a4b573d6000803e3d6000fd5b505050506040513d6020811015612a6157600080fd5b50516001600160a01b038e811691161415612aa657612aa36128b1897f00000000000000000000000000000000000000000000000000000000000000006145cb565b97505b505b50959c949b50939950505050505050505050565b600082820183811015612b16576040805162461bcd60e51b815260206004820152601b60248201527f536166654d6174683a206164646974696f6e206f766572666c6f770000000000604482015290519081900360640190fd5b90505b92915050565b6000816c010000000000000000000000008410612bba5760405162461bcd60e51b81526004018080602001828103825283818151815260200191508051906020019080838360005b83811015612b7f578181015183820152602001612b67565b50505050905090810190601f168015612bac5780820380516001836020036101000a031916815260200191505b509250505060405180910390fd5b509192915050565b6002546040805163184a263160e11b81529051612c08926001600160a01b0316916330944c62916004808301926020929190829003018186803b15801561099457600080fd5b600354604080516370a0823160e01b815230600482015290516000926001600160a01b0316916370a08231916024808301926020929190829003018186803b158015612c5357600080fd5b505afa158015612c67573d6000803e3d6000fd5b505050506040513d6020811015612c7d57600080fd5b505190506001600160601b038216811015612cae57600354612ca9906001600160a01b03168483614f9f565b612cce565b600354612cce906001600160a01b0316846001600160601b038516614f9f565b505050565b3390565b6000612ce86001831015604a6120f8565b6102018210612cf957506000610ebb565b6000612d73612d09846001613538565b612d6d6701aa535d3d0c00007349120d18951D4bA76Fc113A75bF5959a3261e68363907af6c06040518163ffffffff1660e01b815260040160206040518083038186803b158015612d5957600080fd5b505af41580156115a9573d6000803e3d6000fd5b9061501f565b90506000612d8b690b581ceb141f05c1ae008361362d565b9050611170816040518060400160405280601081526020016f6f766572666c6f77203936206269747360801b815250612b1f565b6000612e3f856001600160a01b031663cb12233b6040518163ffffffff1660e01b815260040160206040518083038186803b158015612dfd57600080fd5b505afa158015612e11573d6000803e3d6000fd5b505050506040513d6020811015612e2757600080fd5b50518310801590612e385750838310155b60416120f8565b6001600160a01b038086166000818152600b60209081526040808320948916808452948252808320938352600c825280832094835293815290839020835160808101855281548152600180830154938201939093526002820154948101949094526003015460608401528101549091901580612ebe5750838260010154115b15612ece57600092505050610ed1565b866001600160a01b031663cb12233b6040518163ffffffff1660e01b815260040160206040518083038186803b158015612f0757600080fd5b505afa158015612f1b573d6000803e3d6000fd5b505050506040513d6020811015612f3157600080fd5b50518511612fa157866001600160a01b031663cb12233b6040518163ffffffff1660e01b815260040160206040518083038186803b158015612f7257600080fd5b505afa158015612f86573d6000803e3d6000fd5b505050506040513d6020811015612f9c57600080fd5b505194505b612fad878787876150c8565b60208301528152612fbf8786866151f7565b6060830152604082015260208101518151612ff09110801590612e38575081606001518260400151111560416120f8565b60008082600001518710156130085760009150613075565b825187111561305c578251600090815260048501602052604090205483516130559161303991611536908b90613538565b8451600090815260048701602052604090206003015490612abc565b9150613075565b8251600090815260048501602052604090206003015491505b6001600160a01b0389166000908152600d602090815260408083208682018051855292529091205490516130e2916130b291611536908b90613538565b6001600160a01b038b166000908152600d6020908152604080832088820151845290915290206002015490612abc565b90506130f28183111560416120f8565b85871415613121578061310c576000945050505050610ed1565b613116828261362d565b945050505050610ed1565b826020015186101561313a576000945050505050610ed1565b826020015186148015613151575060208301518351145b156131db576001600160a01b0389166000908152600d60209081526040808320606087018051855292529091205490516131cb91839161146c9161319a91611536908c90613538565b6001600160a01b038d166000908152600d6020908152604080832060608b0151845290915290206002015490612abc565b905061310c8183111560416120f8565b6132398261146c613219876004016000886020015181526020019081526020016000206000015461153688602001518c61353890919063ffffffff16565b602080880151600090815260048a01909152604090206003015490612abc565b6001600160a01b038a166000908152600d60209081526040808320606088018051855292529091205490519193506131cb91839161146c9161319a9190611536908c90613538565b600080806132ae670de0b6b3a76400006132a86276a7006132a2888a613538565b9061530f565b90615397565b905060006132da670de0b6b3a76400006132a86276a7006132a26001548b61353890919063ffffffff16565b90506132e7826001612abc565b6132f2826001612abc565b9350935050509250929050565b6000613352600260009054906101000a90046001600160a01b03166001600160a01b03166330944c626040518163ffffffff1660e01b815260040160206040518083038186803b15801561099457600080fd5b600083905060006134ae826001600160a01b031663dbabf4f36040518163ffffffff1660e01b815260040160206040518083038186803b15801561339557600080fd5b505afa1580156133a9573d6000803e3d6000fd5b505050506040513d60208110156133bf57600080fd5b50516040805163412ef7ff60e11b8152905161146c91613475916001600160a01b0388169163825deffe916004808301926020929190829003018186803b15801561340957600080fd5b505afa15801561341d573d6000803e3d6000fd5b505050506040513d602081101561343357600080fd5b50516040805163687cca9f60e11b815290516001600160a01b0389169163d0f9953e916004808301926020929190829003018186803b1580156113cf57600080fd5b856001600160a01b03166303cddb2c6040518163ffffffff1660e01b815260040160206040518083038186803b15801561143a57600080fd5b905061352f6134bd4286613538565b6132a86134fd87866001600160a01b031663d0f9953e6040518163ffffffff1660e01b815260040160206040518083038186803b1580156113cf57600080fd5b60008881526008602052604090206003810154600290910154611536916001600160601b031690611a7390889061362d565b95945050505050565b60008282111561358f576040805162461bcd60e51b815260206004820152601e60248201527f536166654d6174683a207375627472616374696f6e206f766572666c6f770000604482015290519081900360640190fd5b50900390565b6000826135a457506000612b19565b828202828482816135b157fe5b0414612b165760405162461bcd60e51b81526004018080602001828103825260218152602001806156ac6021913960400191505060405180910390fd5b600080613619670de0b6b3a76400006132a86276a7006132a26001548861353890919063ffffffff16565b9050613626816001612abc565b9392505050565b6000612b16826132a885670de0b6b3a7640000613595565b6000612b16670de0b6b3a76400006132a88585613595565b6001600160a01b0381166000818152600d6020908152604080832042845282529182902082517f18160ddd00000000000000000000000000000000000000000000000000000000815292518594919391926318160ddd9260048082019391829003018186803b1580156136cf57600080fd5b505afa1580156136e3573d6000803e3d6000fd5b505050506040513d60208110156136f957600080fd5b505181554260018201556001600160a01b0383166000908152600f602052604090205461372c5760006002820155613840565b6001600160a01b0382166000908152600d60209081526040808320600e8352818420600f9093529083205461383a936137cb93909161376c906001613538565b8154811061377657fe5b600091825260208083209091015483528281019390935260409182018120546001600160a01b0388168252600d8452828220600e8552838320600f9095529282205490936115369392916121df906001613538565b6001600160a01b0384166000908152600d60209081526040808320600e8352818420600f9093529083205490929190613805906001613538565b8154811061380f57fe5b9060005260206000200154815260200190815260200160002060020154612abc90919063ffffffff16565b60028201555b506001600160a01b03166000818152600e6020908152604080832080546001818101835591855283852042910155938352600f90915290208054909101905550565b62461bcd60e51b6000908152602060045260076024526642414223000030600a808404818106603090810160081b95839006959095019082900491820690940160101b939093010160c81b604452606490fd5b6002546040805163184a263160e11b8152905161391b926001600160a01b0316916330944c62916004808301926020929190829003018186803b15801561099457600080fd5b60006008600061392a846135ee565b815260200190815260200160002090506009600061394c600161146c866135ee565b815260208101919091526040016000205460ff16613fae5761396d826135ee565b60018201556007546139bd576000600282015561399161398c836135ee565b612cd7565b6003820180546bffffffffffffffffffffffff19166001600160601b0392909216919091179055613f76565b6000613a2a6005600060066139de600160075461353890919063ffffffff16565b815481106139e857fe5b9060005260206000200154815260200190815260200160002060040154600560008681526020019081526020016000206004015461353890919063ffffffff16565b9050613a3a600161146c856135ee565b600560006006613a56600160075461353890919063ffffffff16565b81548110613a6057fe5b90600052602060002001548152602001908152602001600020600201541415613bab57613b02613adb600560006006613aa5600160075461353890919063ffffffff16565b81548110613aaf57fe5b90600052602060002001548152602001908152602001600020600101548561353890919063ffffffff16565b6132a8613afb61289661153c6276a70061146c6276a7006115368c6135ee565b8490613595565b6002830155613b1361398c846135ee565b6003830180546bffffffffffffffffffffffff19166001600160601b03929092169190911790556002820154613b8090613b4e908390613538565b60086000613b60600161146c896135ee565b815260200190815260200160002060020154612abc90919063ffffffff16565b60086000613b92600161146c886135ee565b8152602081019190915260400160002060020155613f74565b60005b613bfd600560006006613bcd600160075461353890919063ffffffff16565b81548110613bd757fe5b906000526020600020015481526020019081526020016000206002015461146c866135ee565b8111613f7257600060086000613c2984600560006006613805600160075461353890919063ffffffff16565b815260200190815260200160002090506000613c6561153c6276a70061153686600560006006613805600160075461353890919063ffffffff16565b905082613d7a57613d31613d26613cc7600560006006613c91600160075461353890919063ffffffff16565b81548110613c9b57fe5b90600052602060002001548152602001908152602001600020600101548961353890919063ffffffff16565b6132a8613d1f600560006006613ce9600160075461353890919063ffffffff16565b81548110613cf357fe5b90600052602060002001548152602001908152602001600020600101548661353890919063ffffffff16565b8890613595565b600284015490612abc565b6002830155600754600590600090600690613d4d906001613538565b81548110613d5757fe5b600091825260208083209091015483528201929092526040019020548255613f68565b613dc9600560006006613d99600160075461353890919063ffffffff16565b81548110613da357fe5b906000526020600020015481526020019081526020016000206002015461146c886135ee565b831015613ecc57613e35613e28600560006006613df2600160075461353890919063ffffffff16565b81548110613dfc57fe5b90600052602060002001548152602001908152602001600020600101548861353890919063ffffffff16565b6132a8866276a700613595565b8260020181905550613e6061398c84600560006006613805600160075461353890919063ffffffff16565b8260030160006101000a8154816001600160601b0302191690836001600160601b03160217905550613ea883600560006006613805600160075461353890919063ffffffff16565b8260010181905550600560006006613d4d600160075461353890919063ffffffff16565b613f1c613eee600560006006613df2600160075461353890919063ffffffff16565b6132a8613f15613f0e61153c6276a70061146c6276a7006115368f6135ee565b8a90613538565b8790613595565b6002860155613f2d61398c876135ee565b6003860180546bffffffffffffffffffffffff19166001600160601b0392909216919091179055613f5d866135ee565b600186015560045485555b5050600101613bae565b505b505b600160096000613f8a600161146c876135ee565b81526020810191909152604001600020805460ff1916911515919091179055613fe1565b613fdb613fd06005600060066139de600160075461353890919063ffffffff16565b600283015490612abc565b60028201555b600454905550565b6002546040805163184a263160e11b8152905161402f926001600160a01b0316916330944c62916004808301926020929190829003018186803b15801561099457600080fd5b816001600160a01b0316637519ab506040518163ffffffff1660e01b815260040160206040518083038186803b15801561406857600080fd5b505afa15801561407c573d6000803e3d6000fd5b505050506040513d602081101561409257600080fd5b505115610a45576140d5826001600160a01b0316637519ab506040518163ffffffff1660e01b815260040160206040518083038186803b15801561163357600080fd5b6140de426135ee565b14156141d75761419f614160614159846001600160a01b0316637519ab506040518163ffffffff1660e01b815260040160206040518083038186803b15801561412657600080fd5b505afa15801561413a573d6000803e3d6000fd5b505050506040513d602081101561415057600080fd5b50514290613538565b8390613595565b6001600160a01b0384166000908152600a6020526040812090614182426135ee565b815260200190815260200160002054612abc90919063ffffffff16565b6001600160a01b0383166000908152600a60205260408120906141c1426135ee565b8152602081019190915260400160002055610a45565b600080614248846001600160a01b0316637519ab506040518163ffffffff1660e01b815260040160206040518083038186803b15801561421657600080fd5b505afa15801561422a573d6000803e3d6000fd5b505050506040513d602081101561424057600080fd5b505142613281565b915091506000614291836132a8613f15886001600160a01b0316637519ab506040518163ffffffff1660e01b815260040160206040518083038186803b15801561412657600080fd5b905060005b6142a1846001613538565b811161430c576001600160a01b0386166000908152600a602052604081206142d0918491906141828786612abc565b6001600160a01b0387166000908152600a60205260408120906142f38685612abc565b8152602081019190915260400160002055600101614296565b505050505050565b60008060008060008590506000816001600160a01b03166303976e386040518163ffffffff1660e01b815260040160206040518083038186803b15801561435a57600080fd5b505afa15801561436e573d6000803e3d6000fd5b505050506040513d602081101561438457600080fd5b50516040805163d3406abd60e01b815290519192506000916144aa91614471916001600160a01b0387169163d3406abd916004808301926020929190829003018186803b1580156143d457600080fd5b505afa1580156143e8573d6000803e3d6000fd5b505050506040513d60208110156143fe57600080fd5b50516040805162f376cb60e21b815290516001600160a01b038816916303cddb2c916004808301926020929190829003018186803b15801561443f57600080fd5b505afa158015614453573d6000803e3d6000fd5b505050506040513d602081101561446957600080fd5b505190613645565b846001600160a01b03166303cddb2c6040518163ffffffff1660e01b815260040160206040518083038186803b15801561159557600080fd5b90506000836001600160a01b03166303cddb2c6040518163ffffffff1660e01b815260040160206040518083038186803b1580156144e757600080fd5b505afa1580156144fb573d6000803e3d6000fd5b505050506040513d602081101561451157600080fd5b50519050600080808084871180156145295750858710155b15614552576001935083925061453f8786613538565b915061454b8787613538565b90506145b7565b84871015801561456157508587105b156145845760019350600092506145788786613538565b915061454b8688613538565b848710801561459257508587105b156145b757600093508392506145a88588613538565b91506145b48688613538565b90505b929a50985096509450505050509193509193565b6000670de0b6b3a76400006145e08484613595565b816145e757fe5b049392505050565b6000808790506000816001600160a01b0316636db40dc26040518163ffffffff1660e01b815260040160206040518083038186803b15801561463057600080fd5b505afa158015614644573d6000803e3d6000fd5b505050506040513d602081101561465a57600080fd5b50516040805163d3406abd60e01b815290519192506000918291829161475291614719916001600160a01b0389169163d3406abd916004808301926020929190829003018186803b1580156146ae57600080fd5b505afa1580156146c2573d6000803e3d6000fd5b505050506040513d60208110156146d857600080fd5b50516040805162f376cb60e21b815290516001600160a01b038a16916303cddb2c916004808301926020929190829003018186803b15801561443f57600080fd5b866001600160a01b03166303cddb2c6040518163ffffffff1660e01b815260040160206040518083038186803b15801561159557600080fd5b90508a6001600160a01b0316856001600160a01b0316631fe4a6866040518163ffffffff1660e01b815260040160206040518083038186803b15801561479757600080fd5b505afa1580156147ab573d6000803e3d6000fd5b505050506040513d60208110156147c157600080fd5b50516001600160a01b031614156148f7576147fc847f00000000000000000000000000000000000000000000000000000000000000006145cb565b925060018a151514801561481257506001881515145b1561488757614822836002613595565b915061487461486d614866876001600160a01b03166303976e386040518163ffffffff1660e01b815260040160206040518083038186803b15801561293a57600080fd5b8590613645565b8490612abc565b925081831115614882578192505b614905565b60018a1515148015614897575087155b156148f7576148f06118916148e96148e284896001600160a01b03166303976e386040518163ffffffff1660e01b815260040160206040518083038186803b158015611b5357600080fd5b8690613645565b8590613538565b9250614905565b60009550505050505061490d565b509093505050505b9695505050505050565b60008481600185151514156149d657856001600160a01b0316826001600160a01b0316631fe4a6866040518163ffffffff1660e01b815260040160206040518083038186803b15801561496957600080fd5b505afa15801561497d573d6000803e3d6000fd5b505050506040513d602081101561499357600080fd5b50516001600160a01b031614156149d1576149ce847f00000000000000000000000000000000000000000000000000000000000000006145cb565b90505b61490d565b5060009695505050505050565b6000808790506000816001600160a01b0316636db40dc26040518163ffffffff1660e01b815260040160206040518083038186803b158015614a2457600080fd5b505afa158015614a38573d6000803e3d6000fd5b505050506040513d6020811015614a4e57600080fd5b5051604080517f950c78220000000000000000000000000000000000000000000000000000000081526001600160a01b038b8116600483015291519293506000929185169163950c782291602480820192602092909190829003018186803b158015614ab957600080fd5b505afa158015614acd573d6000803e3d6000fd5b505050506040513d6020811015614ae357600080fd5b50516040805163d3406abd60e01b815290519192506000918291614b3691614719916001600160a01b0389169163d3406abd91600480820192602092909190829003018186803b1580156146ae57600080fd5b905060008084138015614b4b575060018b1515145b8015614b5957506001891515145b15614c0157614bfa614bd0876001600160a01b031663d40244cb6040518163ffffffff1660e01b815260040160206040518083038186803b158015614b9d57600080fd5b505afa158015614bb1573d6000803e3d6000fd5b505050506040513d6020811015614bc757600080fd5b5051869061362d565b611a73877f00000000000000000000000000000000000000000000000000000000000000006145cb565b9050614d76565b600084138015614c13575060018b1515145b8015614c1d575088155b15614c8157614c61614bd0876001600160a01b031663d40244cb6040518163ffffffff1660e01b815260040160206040518083038186803b158015614b9d57600080fd5b9050614bfa614c7a614c738a8561362d565b8390613645565b8290613538565b600084138015614c8f57508a155b15614c9c57506000614d76565b600084128015614caa575088155b15614d5b57614d23614bd0876001600160a01b031663449b98266040518163ffffffff1660e01b815260040160206040518083038186803b158015614cee57600080fd5b505afa158015614d02573d6000803e3d6000fd5b505050506040513d6020811015614d1857600080fd5b50516118af876153f6565b9050614d30816002613595565b9250614d49614d42614c738a8561362d565b8290612abc565b905082811115614d565750815b614d76565b600084128015614d6d57506001891515145b15614d76575060005b9c9b505050505050505050505050565b600080879050600080826001600160a01b031663950c78228a6040518263ffffffff1660e01b815260040180826001600160a01b0316815260200191505060206040518083038186803b158015614ddc57600080fd5b505afa158015614df0573d6000803e3d6000fd5b505050506040513d6020811015614e0657600080fd5b5051905060018815151415614f8d576000811315614ebb57614eb4836001600160a01b031663d40244cb6040518163ffffffff1660e01b815260040160206040518083038186803b158015614e5a57600080fd5b505afa158015614e6e573d6000803e3d6000fd5b505050506040513d6020811015614e8457600080fd5b50516118af83611a738b7f00000000000000000000000000000000000000000000000000000000000000006145cb565b9150614f88565b600081128015614ec9575085155b15614f6c57614eb4836001600160a01b031663449b98266040518163ffffffff1660e01b815260040160206040518083038186803b158015614f0a57600080fd5b505afa158015614f1e573d6000803e3d6000fd5b505050506040513d6020811015614f3457600080fd5b50516118af614f42846153f6565b611a738b7f00000000000000000000000000000000000000000000000000000000000000006145cb565b600081128015614f7e57506001861515145b15614f8857600091505b614f92565b600091505b5098975050505050505050565b604080516001600160a01b038416602482015260448082018490528251808303909101815260649091019091526020810180517bffffffffffffffffffffffffffffffffffffffffffffffffffffffff167fa9059cbb00000000000000000000000000000000000000000000000000000000179052612cce90849061540d565b6000807349120d18951D4bA76Fc113A75bF5959a3261e68363907af6c06040518163ffffffff1660e01b815260040160206040518083038186803b15801561506657600080fd5b505af415801561507a573d6000803e3d6000fd5b505050506040513d602081101561509057600080fd5b505190505b8215612b165760028306156150b1576150ae81856145cb565b90505b6150bb84806145cb565b9350600283049250615095565b6001600160a01b038085166000908152600b6020908152604080832093871683529290529081206002810180548392918391615105906001613538565b8154811061510f57fe5b9060005260206000200154905060008260020160008154811061512e57fe5b906000526020600020015490508582118061514857508681105b156151ea5760005b6002840154615160906001613538565b81116151e8578684600201828154811061517657fe5b9060005260206000200154116151a35783600201818154811061519557fe5b906000526020600020015492505b878460020182815481106151b357fe5b9060005260206000200154116151e0578360020181815481106151d257fe5b906000526020600020015491505b600101615150565b505b9890975095505050505050565b6001600160a01b0383166000908152600e60205260408120548190819061521f906001613538565b6001600160a01b0387166000908152600e60205260408120805492935090918390811061524857fe5b906000526020600020015490506000600e6000896001600160a01b03166001600160a01b0316815260200190815260200160002060008154811061528857fe5b90600052602060002001549050858211806152a257508681105b156153035760005b838111615301576001600160a01b0389166000908152600e602052604081208054839081106152d557fe5b906000526020600020015490508781116152ed578093505b8881116152f8578092505b506001016152aa565b505b97909650945050505050565b600081615363576040805162461bcd60e51b815260206004820152601060248201527f43616e7420646976696465206279203000000000000000000000000000000000604482015290519081900360640190fd5b60008311615372576000612b16565b612b166001615391846132a88361146c89670de0b6b3a7640000613595565b90612abc565b60008082116153ed576040805162461bcd60e51b815260206004820152601a60248201527f536166654d6174683a206469766973696f6e206279207a65726f000000000000604482015290519081900360640190fd5b8183816145e757fe5b6000808212156154095781600003610eb8565b5090565b6000615462826040518060400160405280602081526020017f5361666545524332303a206c6f772d6c6576656c2063616c6c206661696c6564815250856001600160a01b03166154be9092919063ffffffff16565b805190915015612cce5780806020019051602081101561548157600080fd5b5051612cce5760405162461bcd60e51b815260040180806020018281038252602a8152602001806156cd602a913960400191505060405180910390fd5b6060610ed18484600085856154d2856155e3565b615523576040805162461bcd60e51b815260206004820152601d60248201527f416464726573733a2063616c6c20746f206e6f6e2d636f6e7472616374000000604482015290519081900360640190fd5b600080866001600160a01b031685876040518082805190602001908083835b602083106155615780518252601f199092019160209182019101615542565b6001836020036101000a03801982511681845116808217855250505050505090500191505060006040518083038185875af1925050503d80600081146155c3576040519150601f19603f3d011682016040523d82523d6000602084013e6155c8565b606091505b50915091506155d88282866155e9565b979650505050505050565b3b151590565b606083156155f8575081613626565b8251156156085782518084602001fd5b60405162461bcd60e51b8152602060048201818152845160248401528451859391928392604401919085019080838360008315612b7f578181015183820152602001612b67565b508054600082559060005260206000209081019061566d9190615670565b50565b5b80821115615409576000815560010161567156fe4f776e61626c653a206e6577206f776e657220697320746865207a65726f2061646472657373536166654d6174683a206d756c7469706c69636174696f6e206f766572666c6f775361666545524332303a204552433230206f7065726174696f6e20646964206e6f742073756363656564a2646970667358221220fa1536fac863caf770ca9d03a3e48a36c4e3b6371eff3f7d616b6ffe30361d3a64736f6c63430007060033",
  "deployedBytecode": "0x608060405234801561001057600080fd5b50600436106102c85760003560e01c8063908589441161017b578063df14e06f116100d8578063f5750d0f1161008c578063f77c479111610071578063f77c4791146107b5578063fa51a34b146107bd578063fd9ff86c146107c5576102c8565b8063f5750d0f1461076c578063f6c8d7b514610789576102c8565b8063f1068454116100bd578063f106845414610712578063f1ed38611461071a578063f2fde38b14610746576102c8565b8063df14e06f146106de578063e5cab4fa1461070a576102c8565b8063d60913ce1161012f578063db4b3af511610114578063db4b3af5146106a8578063dc178712146106ce578063ddaa26ad146106d6576102c8565b8063d60913ce14610654578063da17a6ca146106a0576102c8565b8063a675004711610160578063a675004714610612578063a70b9f0c1461062f578063cf14938714610637576102c8565b806390858944146105e45780639de9a052146105ec576102c8565b80636bf15bbd1161022957806378769678116101dd57806379fc904f116101c257806379fc904f146105cc5780638cb8c855146105d45780638da5cb5b146105dc576102c8565b8063787696781461059357806379102629146105c4576102c8565b8063715018a61161020e578063715018a61461051657806373a9fd9f1461051e5780637602bdde14610557576102c8565b80636bf15bbd146104d95780636e570b591461050e576102c8565b80632db4b3a711610280578063551bf81611610265578063551bf8161461040357806356773b791461040b57806369795e931461042f576102c8565b80632db4b3a7146103a25780633c0deba4146103e6576102c8565b80630fa454cf116102b15780630fa454cf1461032f5780631de40e491461034e5780632544dc1814610356576102c8565b806308c6850f146102cd5780630bb6d20814610315575b600080fd5b6102ea600480360360208110156102e357600080fd5b50356107f1565b6040805195865260208601949094528484019290925260608401526080830152519081900360a00190f35b61031d610820565b60408051918252519081900360200190f35b61034c6004803603602081101561034557600080fd5b5035610844565b005b61031d610a49565b6103736004803603602081101561036c57600080fd5b5035610a55565b604080519485526020850193909352838301919091526001600160601b03166060830152519081900360800190f35b61034c600480360360a08110156103b857600080fd5b506001600160a01b038135811691602081013590911690604081013590606081013515159060800135610a86565b610373600480360360208110156103fc57600080fd5b5035610c24565b61031d610c54565b610413610c78565b604080516001600160a01b039092168252519081900360200190f35b6104b86004803603606081101561044557600080fd5b6001600160a01b03823581169260208101359091169181019060608101604082013564010000000081111561047957600080fd5b82018360208201111561048b57600080fd5b803590602001918460208302840111640100000000831117156104ad57600080fd5b509092509050610c87565b604080519283526001600160601b0390911660208301528051918290030190f35b61034c600480360360408110156104ef57600080fd5b5080356001600160a01b031690602001356001600160601b0316610d38565b61031d610dd4565b61034c610de2565b61053b6004803603602081101561053457600080fd5b5035610ead565b604080516001600160601b039092168252519081900360200190f35b61031d6004803603608081101561056d57600080fd5b506001600160a01b03813581169160208101359091169060408101359060600135610ec0565b6105b0600480360360208110156105a957600080fd5b5035610ed9565b604080519115158252519081900360200190f35b61031d610eee565b61034c610f12565b61031d610f85565b610413610fa9565b61031d610fb8565b61053b6004803603602081101561060257600080fd5b50356001600160a01b0316610fdc565b61031d6004803603602081101561062857600080fd5b5035611bf7565b61031d611c18565b6102ea6004803603602081101561064d57600080fd5b5035611c1f565b6106826004803603604081101561066a57600080fd5b506001600160a01b0381358116916020013516611c4e565b60408051938452602084019290925282820152519081900360600190f35b61031d611c7a565b61031d600480360360208110156106be57600080fd5b50356001600160a01b0316611c9e565b61031d611cb0565b61031d611cd4565b61034c600480360360408110156106f457600080fd5b506001600160a01b038135169060200135611cda565b61031d611e0c565b61031d611e12565b61031d6004803603604081101561073057600080fd5b506001600160a01b038135169060200135611e18565b61034c6004803603602081101561075c57600080fd5b50356001600160a01b0316611e49565b61034c6004803603602081101561078257600080fd5b5035611f6a565b61031d6004803603604081101561079f57600080fd5b506001600160a01b03813516906020013561207c565b610413612099565b61031d6120a8565b610682600480360360408110156107db57600080fd5b506001600160a01b0381351690602001356120cc565b600560205260009081526040902080546001820154600283015460038401546004909401549293919290919085565b7f000000000000000000000000000000000000000000000000000000000000000081565b60025460408051630ad7511760e31b8152905161094e926001600160a01b0316916313bc6d4b9133916356ba88b8916004808301926020929190829003018186803b15801561089257600080fd5b505afa1580156108a6573d6000803e3d6000fd5b505050506040513d60208110156108bc57600080fd5b5051604080517fffffffff0000000000000000000000000000000000000000000000000000000060e085901b1681526001600160a01b039092166004830152516024808301926020929190829003018186803b15801561091b57600080fd5b505afa15801561092f573d6000803e3d6000fd5b505050506040513d602081101561094557600080fd5b505160146120f8565b6002546040805163184a263160e11b815290516109c7926001600160a01b0316916330944c62916004808301926020929190829003018186803b15801561099457600080fd5b505afa1580156109a8573d6000803e3d6000fd5b505050506040513d60208110156109be57600080fd5b505160456120f8565b6000339050600154816001600160a01b0316636db9cc996040518163ffffffff1660e01b815260040160206040518083038186803b158015610a0857600080fd5b505afa158015610a1c573d6000803e3d6000fd5b505050506040513d6020811015610a3257600080fd5b505110610a4557610a4581836001612106565b5050565b6701aa535d3d0c000081565b600090815260086020526040902080546001820154600283015460039093015491939092916001600160601b031690565b848180151580610aae57506001600160a01b0382166000908152600f60205260409020546001105b15610bbd57600254604080516313bc6d4b60e01b81526001600160a01b0385811660048301529151610b389392909216916313bc6d4b91602480820192602092909190829003018186803b158015610b0557600080fd5b505afa158015610b19573d6000803e3d6000fd5b505050506040513d6020811015610b2f57600080fd5b505160486120f8565b6002546040805163364d118160e01b81526001600160a01b0385811660048301529151610bbd93929092169163364d118191602480820192602092909190829003018186803b158015610b8a57600080fd5b505afa158015610b9e573d6000803e3d6000fd5b505050506040513d6020811015610bb457600080fd5b505160236120f8565b610bd3336001600160a01b0384161460236120f8565b610c0f826001600160a01b03166302fb0c5e6040518163ffffffff1660e01b815260040160206040518083038186803b158015610b8a57600080fd5b610c1b878787876122cb565b50505050505050565b6008602052600090815260409020805460018201546002830154600390930154919290916001600160601b031684565b7f000000000000000000000000000000000000000000000000000000000000000081565b6003546001600160a01b031681565b60008060008060005b85811015610ce857600080610cc18b8a8a86818110610cab57fe5b905060200201356001600160a01b03168c6124e8565b9092509050610cd08583612abc565b9450610cdc8482612abc565b93505050600101610c90565b5081610d29826040518060400160405280600381526020017f5232380000000000000000000000000000000000000000000000000000000000815250612b1f565b93509350505094509492505050565b6002546040805163184a263160e11b81529051610d7e926001600160a01b0316916330944c62916004808301926020929190829003018186803b15801561099457600080fd5b600254604080516313bc6d4b60e01b81523360048201529051610dca926001600160a01b0316916313bc6d4b916024808301926020929190829003018186803b158015610b0557600080fd5b610a458282612bc2565b690b581ceb141f05c1ae0081565b610dea612cd3565b6001600160a01b0316610dfb610fa9565b6001600160a01b031614610e56576040805162461bcd60e51b815260206004820181905260248201527f4f776e61626c653a2063616c6c6572206973206e6f7420746865206f776e6572604482015290519081900360640190fd5b600080546040516001600160a01b03909116907f8be0079c531659141344cd1fd0a4f28419497f9722a3daafe3b4186f6b6457e0908390a36000805473ffffffffffffffffffffffffffffffffffffffff19169055565b6000610eb882612cd7565b90505b919050565b6000610ece85858585612dbf565b90505b949350505050565b60096020526000908152604090205460ff1681565b7f000000000000000000000000000000000000000000000000000000000000000081565b600254604080516313bc6d4b60e01b81523360048201529051610f5e926001600160a01b0316916313bc6d4b916024808301926020929190829003018186803b158015610b0557600080fd5b600254610f77906001600160a01b0316331460106120f8565b600154610f8357426001555b565b7f000000000000000000000000000000000000000000000000000000000000000081565b6000546001600160a01b031690565b7f000000000000000000000000000000000000000000000000000000000000000081565b600080829050611053816001600160a01b031663d0f9953e6040518163ffffffff1660e01b815260040160206040518083038186803b15801561101e57600080fd5b505afa158015611032573d6000803e3d6000fd5b505050506040513d602081101561104857600080fd5b5051151560316120f8565b600154816001600160a01b0316636db9cc996040518163ffffffff1660e01b815260040160206040518083038186803b15801561108f57600080fd5b505afa1580156110a3573d6000803e3d6000fd5b505050506040513d60208110156110b957600080fd5b5051108015906110ca575060015415155b15611bed576000816001600160a01b0316636db40dc26040518163ffffffff1660e01b815260040160206040518083038186803b15801561110a57600080fd5b505afa15801561111e573d6000803e3d6000fd5b505050506040513d602081101561113457600080fd5b50519050801561117957611170816040518060400160405280601081526020016f6f766572666c6f77203936206269747360801b815250612b1f565b92505050610ebb565b600080611255846001600160a01b031663825deffe6040518163ffffffff1660e01b815260040160206040518083038186803b1580156111b857600080fd5b505afa1580156111cc573d6000803e3d6000fd5b505050506040513d60208110156111e257600080fd5b50516040805163687cca9f60e11b815290516001600160a01b0388169163d0f9953e916004808301926020929190829003018186803b15801561122457600080fd5b505afa158015611238573d6000803e3d6000fd5b505050506040513d602081101561124e57600080fd5b5051613281565b915091506000600183116114805761126d87836132ff565b600083815260086020526040902060030154909150611299906001600160601b031682111560466120f8565b61147b6008600084815260200190815260200160002060020154611472876001600160a01b031663dbabf4f36040518163ffffffff1660e01b815260040160206040518083038186803b1580156112ef57600080fd5b505afa158015611303573d6000803e3d6000fd5b505050506040513d602081101561131957600080fd5b50516040805163412ef7ff60e11b8152905161146c91611401916001600160a01b038d169163825deffe916004808301926020929190829003018186803b15801561136357600080fd5b505afa158015611377573d6000803e3d6000fd5b505050506040513d602081101561138d57600080fd5b50516040805163687cca9f60e11b815290516001600160a01b038e169163d0f9953e916004808301926020929190829003018186803b1580156113cf57600080fd5b505afa1580156113e3573d6000803e3d6000fd5b505050506040513d60208110156113f957600080fd5b505190613538565b8a6001600160a01b03166303cddb2c6040518163ffffffff1660e01b815260040160206040518083038186803b15801561143a57600080fd5b505afa15801561144e573d6000803e3d6000fd5b505050506040513d602081101561146457600080fd5b505190613595565b90613538565b111560476120f8565b611a90565b60008367ffffffffffffffff8111801561149957600080fd5b506040519080825280602002602001820160405280156114c3578160200160208202803683370190505b50905060008467ffffffffffffffff811180156114df57600080fd5b50604051908082528060200260200182016040528015611509578160200160208202803683370190505b50905060005b61151a866001613538565b8111611a8c57600061154561153c6276a7006115368986612abc565b90613595565b60015490612abc565b90506000670de0b6b3a76400009050816115c76276a7008c6001600160a01b031663825deffe6040518163ffffffff1660e01b815260040160206040518083038186803b15801561159557600080fd5b505afa1580156115a9573d6000803e3d6000fd5b505050506040513d60208110156115bf57600080fd5b505190612abc565b111561173b5761171e600a60008c6001600160a01b03166001600160a01b0316815260200190815260200160002060006116648d6001600160a01b031663825deffe6040518163ffffffff1660e01b815260040160206040518083038186803b15801561163357600080fd5b505afa158015611647573d6000803e3d6000fd5b505050506040513d602081101561165d57600080fd5b50516135ee565b81526020019081526020016000205461146c6116e58d6001600160a01b031663825deffe6040518163ffffffff1660e01b815260040160206040518083038186803b1580156116b257600080fd5b505afa1580156116c6573d6000803e3d6000fd5b505050506040513d60208110156116dc57600080fd5b50518690613538565b8d6001600160a01b03166303cddb2c6040518163ffffffff1660e01b815260040160206040518083038186803b15801561143a57600080fd5b85848151811061172a57fe5b602002602001018181525050611993565b611748826276a700613538565b8a6001600160a01b031663825deffe6040518163ffffffff1660e01b815260040160206040518083038186803b15801561178157600080fd5b505afa158015611795573d6000803e3d6000fd5b505050506040513d60208110156117ab57600080fd5b505110801561181d5750896001600160a01b031663d0f9953e6040518163ffffffff1660e01b815260040160206040518083038186803b1580156117ee57600080fd5b505afa158015611802573d6000803e3d6000fd5b505050506040513d602081101561181857600080fd5b505182105b1561187e576001600160a01b038a166000908152600a6020526040812061171e9161185361184e86623b5380613538565b6135ee565b815260208101919091526040016000205461146c6116e5611877866276a700613538565b8690613538565b6118b5611898611891846276a700613538565b8490613538565b6118af6118a8856276a700613538565b4290613538565b9061362d565b905061197a600a60008c6001600160a01b03166001600160a01b03168152602001908152602001600020600061191d8d6001600160a01b031663d0f9953e6040518163ffffffff1660e01b815260040160206040518083038186803b15801561163357600080fd5b815260208101919091526040016000205461146c6116e5611941866276a700613538565b8e6001600160a01b031663d0f9953e6040518163ffffffff1660e01b815260040160206040518083038186803b1580156113cf57600080fd5b85848151811061198657fe5b6020026020010181815250505b600860006119a18986612abc565b8152602001908152602001600020600201548484815181106119bf57fe5b6020026020010181815250506119ff8484815181106119da57fe5b60200260200101518685815181106119ee57fe5b6020026020010151111560476120f8565b611a80611a7982611a7360086000611a178d8a612abc565b815260208101919091526040016000206003015488516001600160601b0390911690611a73908a908a908110611a4957fe5b60200260200101518b8a81518110611a5d57fe5b602002602001015161362d90919063ffffffff16565b90613645565b8790612abc565b9550505060010161150f565b5050505b6000611b85866001600160a01b03166303cddb2c6040518163ffffffff1660e01b815260040160206040518083038186803b158015611ace57600080fd5b505afa158015611ae2573d6000803e3d6000fd5b505050506040513d6020811015611af857600080fd5b5051604080517f03976e3800000000000000000000000000000000000000000000000000000000815290516001600160a01b038a16916303976e38916004808301926020929190829003018186803b158015611b5357600080fd5b505afa158015611b67573d6000803e3d6000fd5b505050506040513d6020811015611b7d57600080fd5b50519061362d565b9050671bc16d674ec80000811115611ba25750671bc16d674ec800005b611bac8282613645565b9150611be0826040518060400160405280601081526020016f6f766572666c6f77203936206269747360801b815250612b1f565b9650505050505050610ebb565b6000915050610ebb565b60068181548110611c0757600080fd5b600091825260209091200154905081565b6276a70081565b600090815260056020526040902080546001820154600283015460038401546004909401549294919390929091565b600b60209081526000928352604080842090915290825290208054600182015460039092015490919083565b7f000000000000000000000000000000000000000000000000000000000000000081565b600f6020526000908152604090205481565b7f000000000000000000000000000000000000000000000000000000000000000081565b60015481565b818180151580611d0257506001600160a01b0382166000908152600f60205260409020546001105b15611dab57600254604080516313bc6d4b60e01b81526001600160a01b0385811660048301529151611d599392909216916313bc6d4b91602480820192602092909190829003018186803b158015610b0557600080fd5b6002546040805163364d118160e01b81526001600160a01b0385811660048301529151611dab93929092169163364d118191602480820192602092909190829003018186803b158015610b8a57600080fd5b611dc1336001600160a01b0384161460236120f8565b611dfd826001600160a01b03166302fb0c5e6040518163ffffffff1660e01b815260040160206040518083038186803b158015610b8a57600080fd5b611e068461365d565b50505050565b60045481565b60075481565b600e6020528160005260406000208181548110611e3457600080fd5b90600052602060002001600091509150505481565b611e51612cd3565b6001600160a01b0316611e62610fa9565b6001600160a01b031614611ebd576040805162461bcd60e51b815260206004820181905260248201527f4f776e61626c653a2063616c6c6572206973206e6f7420746865206f776e6572604482015290519081900360640190fd5b6001600160a01b038116611f025760405162461bcd60e51b81526004018080602001828103825260268152602001806156866026913960400191505060405180910390fd5b600080546040516001600160a01b03808516939216917f8be0079c531659141344cd1fd0a4f28419497f9722a3daafe3b4186f6b6457e091a36000805473ffffffffffffffffffffffffffffffffffffffff19166001600160a01b0392909216919091179055565b60025460408051630ad7511760e31b81529051611fb8926001600160a01b0316916313bc6d4b9133916356ba88b8916004808301926020929190829003018186803b15801561089257600080fd5b6002546040805163184a263160e11b81529051611ffe926001600160a01b0316916330944c62916004808301926020929190829003018186803b15801561099457600080fd5b6000339050600154816001600160a01b0316636db9cc996040518163ffffffff1660e01b815260040160206040518083038186803b15801561203f57600080fd5b505afa158015612053573d6000803e3d6000fd5b505050506040513d602081101561206957600080fd5b505110610a4557610a4581836000612106565b600a60209081526000928352604080842090915290825290205481565b6002546001600160a01b031681565b7f000000000000000000000000000000000000000000000000000000000000000081565b600d60209081526000928352604080842090915290825290208054600182015460029092015490919083565b81610a4557610a4581613882565b426000908152600560205260409020839082612131576004546121299085613538565b600455612142565b60045461213e9085612abc565b6004555b60045481554260018201819055612158906135ee565b6002820155600754600382018190556121775760006004820155612270565b61226a612219600560006006612199600160075461353890919063ffffffff16565b815481106121a357fe5b90600052602060002001548152602001908152602001600020600001546115366005600060066121df600160075461353890919063ffffffff16565b815481106121e957fe5b9060005260206000200154815260200190815260200160002060010154856001015461353890919063ffffffff16565b600560006006612235600160075461353890919063ffffffff16565b8154811061223f57fe5b9060005260206000200154815260200190815260200160002060040154612abc90919063ffffffff16565b60048201555b60068054600181018255600091909152427ff652222313e28459528d920b65115c16c04f3efc82aaedc97be59f3f377c0d3f9091018190556122b1906138d5565b6122bb8285613fe9565b5050600780546001019055505050565b6001600160a01b038085166000818152600b602090815260408083209488168084529482529182902082516370a0823160e01b81526004810195909552915191936370a082319260248083019392829003018186803b15801561232d57600080fd5b505afa158015612341573d6000803e3d6000fd5b505050506040513d602081101561235757600080fd5b5051426000818152600484016020526040902091825560018201556003820154600290910181905561239d574260009081526004820160205260408120600301556123f6565b805460008181526004830160205260409020546123e0916123c49190611536904290613538565b8254600090815260048401602052604090206003015490612abc565b4260009081526004830160205260409020600301555b600182151514156124245782158061241057506001810154155b1561241c574260018201555b4281556124bb565b846001600160a01b03166370a08231856040518263ffffffff1660e01b815260040180826001600160a01b0316815260200191505060206040518083038186803b15801561247157600080fd5b505afa158015612485573d6000803e3d6000fd5b505050506040513d602081101561249b57600080fd5b50516124bb576000808255600182018190556124bb90600283019061564f565b60028101805460018181018355600092835260209092204291015560039091018054909101905550505050565b6000806000849050612573866001600160a01b0316826001600160a01b03166356ba88b86040518163ffffffff1660e01b815260040160206040518083038186803b15801561253657600080fd5b505afa15801561254a573d6000803e3d6000fd5b505050506040513d602081101561256057600080fd5b50516001600160a01b03161460496120f8565b60008060008060008061258587614314565b93509350935093506000808d6001600160a01b0316633d8270f58d6040518263ffffffff1660e01b815260040180826001600160a01b0316815260200191505060c06040518083038186803b1580156125dd57600080fd5b505afa1580156125f1573d6000803e3d6000fd5b505050506040513d60c081101561260757600080fd5b50602080820151604092830151835163687cca9f60e11b81529351919550935083926001600160a01b038d169263d0f9953e92600480840193829003018186803b15801561265457600080fd5b505afa158015612668573d6000803e3d6000fd5b505050506040513d602081101561267e57600080fd5b50511180156126f1575081896001600160a01b031663825deffe6040518163ffffffff1660e01b815260040160206040518083038186803b1580156126c257600080fd5b505afa1580156126d6573d6000803e3d6000fd5b505050506040513d60208110156126ec57600080fd5b505110155b801561277257508d6001600160a01b0316896001600160a01b03166356ba88b86040518163ffffffff1660e01b815260040160206040518083038186803b15801561273b57600080fd5b505afa15801561274f573d6000803e3d6000fd5b505050506040513d602081101561276557600080fd5b50516001600160a01b0316145b15612aa857600061285c8f8e8c6001600160a01b031663825deffe6040518163ffffffff1660e01b815260040160206040518083038186803b1580156127b757600080fd5b505afa1580156127cb573d6000803e3d6000fd5b505050506040513d60208110156127e157600080fd5b81019080805190602001909291905050508d6001600160a01b031663d0f9953e6040518163ffffffff1660e01b815260040160206040518083038186803b15801561282b57600080fd5b505afa15801561283f573d6000803e3d6000fd5b505050506040513d602081101561285557600080fd5b5051612dbf565b9050600187151514156128a05761289d612896877f00000000000000000000000000000000000000000000000000000000000000006145cb565b8790613538565b95505b6128b86128b18b8f8a8a8a8a6145ef565b8990612abc565b97506128d06128c98b8f8a8a614917565b8a90612abc565b98506128e36128b18b8f8a8a8a8a6149e3565b97506128f66128c98b8f8a8a8a8a614d86565b98506129fc6128b161296d8c6001600160a01b03166303cddb2c6040518163ffffffff1660e01b815260040160206040518083038186803b15801561293a57600080fd5b505afa15801561294e573d6000803e3d6000fd5b505050506040513d602081101561296457600080fd5b5051849061362d565b611a737f00000000000000000000000000000000000000000000000000000000000000008e6001600160a01b0316636db40dc26040518163ffffffff1660e01b815260040160206040518083038186803b1580156129ca57600080fd5b505afa1580156129de573d6000803e3d6000fd5b505050506040513d60208110156129f457600080fd5b5051906145cb565b97508e6001600160a01b03166302d05d3f6040518163ffffffff1660e01b815260040160206040518083038186803b158015612a3757600080fd5b505afa158015612a4b573d6000803e3d6000fd5b505050506040513d6020811015612a6157600080fd5b50516001600160a01b038e811691161415612aa657612aa36128b1897f00000000000000000000000000000000000000000000000000000000000000006145cb565b97505b505b50959c949b50939950505050505050505050565b600082820183811015612b16576040805162461bcd60e51b815260206004820152601b60248201527f536166654d6174683a206164646974696f6e206f766572666c6f770000000000604482015290519081900360640190fd5b90505b92915050565b6000816c010000000000000000000000008410612bba5760405162461bcd60e51b81526004018080602001828103825283818151815260200191508051906020019080838360005b83811015612b7f578181015183820152602001612b67565b50505050905090810190601f168015612bac5780820380516001836020036101000a031916815260200191505b509250505060405180910390fd5b509192915050565b6002546040805163184a263160e11b81529051612c08926001600160a01b0316916330944c62916004808301926020929190829003018186803b15801561099457600080fd5b600354604080516370a0823160e01b815230600482015290516000926001600160a01b0316916370a08231916024808301926020929190829003018186803b158015612c5357600080fd5b505afa158015612c67573d6000803e3d6000fd5b505050506040513d6020811015612c7d57600080fd5b505190506001600160601b038216811015612cae57600354612ca9906001600160a01b03168483614f9f565b612cce565b600354612cce906001600160a01b0316846001600160601b038516614f9f565b505050565b3390565b6000612ce86001831015604a6120f8565b6102018210612cf957506000610ebb565b6000612d73612d09846001613538565b612d6d6701aa535d3d0c000073__$cd00f7bc85cfd34feb4171d2d22c665f63$__63907af6c06040518163ffffffff1660e01b815260040160206040518083038186803b158015612d5957600080fd5b505af41580156115a9573d6000803e3d6000fd5b9061501f565b90506000612d8b690b581ceb141f05c1ae008361362d565b9050611170816040518060400160405280601081526020016f6f766572666c6f77203936206269747360801b815250612b1f565b6000612e3f856001600160a01b031663cb12233b6040518163ffffffff1660e01b815260040160206040518083038186803b158015612dfd57600080fd5b505afa158015612e11573d6000803e3d6000fd5b505050506040513d6020811015612e2757600080fd5b50518310801590612e385750838310155b60416120f8565b6001600160a01b038086166000818152600b60209081526040808320948916808452948252808320938352600c825280832094835293815290839020835160808101855281548152600180830154938201939093526002820154948101949094526003015460608401528101549091901580612ebe5750838260010154115b15612ece57600092505050610ed1565b866001600160a01b031663cb12233b6040518163ffffffff1660e01b815260040160206040518083038186803b158015612f0757600080fd5b505afa158015612f1b573d6000803e3d6000fd5b505050506040513d6020811015612f3157600080fd5b50518511612fa157866001600160a01b031663cb12233b6040518163ffffffff1660e01b815260040160206040518083038186803b158015612f7257600080fd5b505afa158015612f86573d6000803e3d6000fd5b505050506040513d6020811015612f9c57600080fd5b505194505b612fad878787876150c8565b60208301528152612fbf8786866151f7565b6060830152604082015260208101518151612ff09110801590612e38575081606001518260400151111560416120f8565b60008082600001518710156130085760009150613075565b825187111561305c578251600090815260048501602052604090205483516130559161303991611536908b90613538565b8451600090815260048701602052604090206003015490612abc565b9150613075565b8251600090815260048501602052604090206003015491505b6001600160a01b0389166000908152600d602090815260408083208682018051855292529091205490516130e2916130b291611536908b90613538565b6001600160a01b038b166000908152600d6020908152604080832088820151845290915290206002015490612abc565b90506130f28183111560416120f8565b85871415613121578061310c576000945050505050610ed1565b613116828261362d565b945050505050610ed1565b826020015186101561313a576000945050505050610ed1565b826020015186148015613151575060208301518351145b156131db576001600160a01b0389166000908152600d60209081526040808320606087018051855292529091205490516131cb91839161146c9161319a91611536908c90613538565b6001600160a01b038d166000908152600d6020908152604080832060608b0151845290915290206002015490612abc565b905061310c8183111560416120f8565b6132398261146c613219876004016000886020015181526020019081526020016000206000015461153688602001518c61353890919063ffffffff16565b602080880151600090815260048a01909152604090206003015490612abc565b6001600160a01b038a166000908152600d60209081526040808320606088018051855292529091205490519193506131cb91839161146c9161319a9190611536908c90613538565b600080806132ae670de0b6b3a76400006132a86276a7006132a2888a613538565b9061530f565b90615397565b905060006132da670de0b6b3a76400006132a86276a7006132a26001548b61353890919063ffffffff16565b90506132e7826001612abc565b6132f2826001612abc565b9350935050509250929050565b6000613352600260009054906101000a90046001600160a01b03166001600160a01b03166330944c626040518163ffffffff1660e01b815260040160206040518083038186803b15801561099457600080fd5b600083905060006134ae826001600160a01b031663dbabf4f36040518163ffffffff1660e01b815260040160206040518083038186803b15801561339557600080fd5b505afa1580156133a9573d6000803e3d6000fd5b505050506040513d60208110156133bf57600080fd5b50516040805163412ef7ff60e11b8152905161146c91613475916001600160a01b0388169163825deffe916004808301926020929190829003018186803b15801561340957600080fd5b505afa15801561341d573d6000803e3d6000fd5b505050506040513d602081101561343357600080fd5b50516040805163687cca9f60e11b815290516001600160a01b0389169163d0f9953e916004808301926020929190829003018186803b1580156113cf57600080fd5b856001600160a01b03166303cddb2c6040518163ffffffff1660e01b815260040160206040518083038186803b15801561143a57600080fd5b905061352f6134bd4286613538565b6132a86134fd87866001600160a01b031663d0f9953e6040518163ffffffff1660e01b815260040160206040518083038186803b1580156113cf57600080fd5b60008881526008602052604090206003810154600290910154611536916001600160601b031690611a7390889061362d565b95945050505050565b60008282111561358f576040805162461bcd60e51b815260206004820152601e60248201527f536166654d6174683a207375627472616374696f6e206f766572666c6f770000604482015290519081900360640190fd5b50900390565b6000826135a457506000612b19565b828202828482816135b157fe5b0414612b165760405162461bcd60e51b81526004018080602001828103825260218152602001806156ac6021913960400191505060405180910390fd5b600080613619670de0b6b3a76400006132a86276a7006132a26001548861353890919063ffffffff16565b9050613626816001612abc565b9392505050565b6000612b16826132a885670de0b6b3a7640000613595565b6000612b16670de0b6b3a76400006132a88585613595565b6001600160a01b0381166000818152600d6020908152604080832042845282529182902082517f18160ddd00000000000000000000000000000000000000000000000000000000815292518594919391926318160ddd9260048082019391829003018186803b1580156136cf57600080fd5b505afa1580156136e3573d6000803e3d6000fd5b505050506040513d60208110156136f957600080fd5b505181554260018201556001600160a01b0383166000908152600f602052604090205461372c5760006002820155613840565b6001600160a01b0382166000908152600d60209081526040808320600e8352818420600f9093529083205461383a936137cb93909161376c906001613538565b8154811061377657fe5b600091825260208083209091015483528281019390935260409182018120546001600160a01b0388168252600d8452828220600e8552838320600f9095529282205490936115369392916121df906001613538565b6001600160a01b0384166000908152600d60209081526040808320600e8352818420600f9093529083205490929190613805906001613538565b8154811061380f57fe5b9060005260206000200154815260200190815260200160002060020154612abc90919063ffffffff16565b60028201555b506001600160a01b03166000818152600e6020908152604080832080546001818101835591855283852042910155938352600f90915290208054909101905550565b62461bcd60e51b6000908152602060045260076024526642414223000030600a808404818106603090810160081b95839006959095019082900491820690940160101b939093010160c81b604452606490fd5b6002546040805163184a263160e11b8152905161391b926001600160a01b0316916330944c62916004808301926020929190829003018186803b15801561099457600080fd5b60006008600061392a846135ee565b815260200190815260200160002090506009600061394c600161146c866135ee565b815260208101919091526040016000205460ff16613fae5761396d826135ee565b60018201556007546139bd576000600282015561399161398c836135ee565b612cd7565b6003820180546bffffffffffffffffffffffff19166001600160601b0392909216919091179055613f76565b6000613a2a6005600060066139de600160075461353890919063ffffffff16565b815481106139e857fe5b9060005260206000200154815260200190815260200160002060040154600560008681526020019081526020016000206004015461353890919063ffffffff16565b9050613a3a600161146c856135ee565b600560006006613a56600160075461353890919063ffffffff16565b81548110613a6057fe5b90600052602060002001548152602001908152602001600020600201541415613bab57613b02613adb600560006006613aa5600160075461353890919063ffffffff16565b81548110613aaf57fe5b90600052602060002001548152602001908152602001600020600101548561353890919063ffffffff16565b6132a8613afb61289661153c6276a70061146c6276a7006115368c6135ee565b8490613595565b6002830155613b1361398c846135ee565b6003830180546bffffffffffffffffffffffff19166001600160601b03929092169190911790556002820154613b8090613b4e908390613538565b60086000613b60600161146c896135ee565b815260200190815260200160002060020154612abc90919063ffffffff16565b60086000613b92600161146c886135ee565b8152602081019190915260400160002060020155613f74565b60005b613bfd600560006006613bcd600160075461353890919063ffffffff16565b81548110613bd757fe5b906000526020600020015481526020019081526020016000206002015461146c866135ee565b8111613f7257600060086000613c2984600560006006613805600160075461353890919063ffffffff16565b815260200190815260200160002090506000613c6561153c6276a70061153686600560006006613805600160075461353890919063ffffffff16565b905082613d7a57613d31613d26613cc7600560006006613c91600160075461353890919063ffffffff16565b81548110613c9b57fe5b90600052602060002001548152602001908152602001600020600101548961353890919063ffffffff16565b6132a8613d1f600560006006613ce9600160075461353890919063ffffffff16565b81548110613cf357fe5b90600052602060002001548152602001908152602001600020600101548661353890919063ffffffff16565b8890613595565b600284015490612abc565b6002830155600754600590600090600690613d4d906001613538565b81548110613d5757fe5b600091825260208083209091015483528201929092526040019020548255613f68565b613dc9600560006006613d99600160075461353890919063ffffffff16565b81548110613da357fe5b906000526020600020015481526020019081526020016000206002015461146c886135ee565b831015613ecc57613e35613e28600560006006613df2600160075461353890919063ffffffff16565b81548110613dfc57fe5b90600052602060002001548152602001908152602001600020600101548861353890919063ffffffff16565b6132a8866276a700613595565b8260020181905550613e6061398c84600560006006613805600160075461353890919063ffffffff16565b8260030160006101000a8154816001600160601b0302191690836001600160601b03160217905550613ea883600560006006613805600160075461353890919063ffffffff16565b8260010181905550600560006006613d4d600160075461353890919063ffffffff16565b613f1c613eee600560006006613df2600160075461353890919063ffffffff16565b6132a8613f15613f0e61153c6276a70061146c6276a7006115368f6135ee565b8a90613538565b8790613595565b6002860155613f2d61398c876135ee565b6003860180546bffffffffffffffffffffffff19166001600160601b0392909216919091179055613f5d866135ee565b600186015560045485555b5050600101613bae565b505b505b600160096000613f8a600161146c876135ee565b81526020810191909152604001600020805460ff1916911515919091179055613fe1565b613fdb613fd06005600060066139de600160075461353890919063ffffffff16565b600283015490612abc565b60028201555b600454905550565b6002546040805163184a263160e11b8152905161402f926001600160a01b0316916330944c62916004808301926020929190829003018186803b15801561099457600080fd5b816001600160a01b0316637519ab506040518163ffffffff1660e01b815260040160206040518083038186803b15801561406857600080fd5b505afa15801561407c573d6000803e3d6000fd5b505050506040513d602081101561409257600080fd5b505115610a45576140d5826001600160a01b0316637519ab506040518163ffffffff1660e01b815260040160206040518083038186803b15801561163357600080fd5b6140de426135ee565b14156141d75761419f614160614159846001600160a01b0316637519ab506040518163ffffffff1660e01b815260040160206040518083038186803b15801561412657600080fd5b505afa15801561413a573d6000803e3d6000fd5b505050506040513d602081101561415057600080fd5b50514290613538565b8390613595565b6001600160a01b0384166000908152600a6020526040812090614182426135ee565b815260200190815260200160002054612abc90919063ffffffff16565b6001600160a01b0383166000908152600a60205260408120906141c1426135ee565b8152602081019190915260400160002055610a45565b600080614248846001600160a01b0316637519ab506040518163ffffffff1660e01b815260040160206040518083038186803b15801561421657600080fd5b505afa15801561422a573d6000803e3d6000fd5b505050506040513d602081101561424057600080fd5b505142613281565b915091506000614291836132a8613f15886001600160a01b0316637519ab506040518163ffffffff1660e01b815260040160206040518083038186803b15801561412657600080fd5b905060005b6142a1846001613538565b811161430c576001600160a01b0386166000908152600a602052604081206142d0918491906141828786612abc565b6001600160a01b0387166000908152600a60205260408120906142f38685612abc565b8152602081019190915260400160002055600101614296565b505050505050565b60008060008060008590506000816001600160a01b03166303976e386040518163ffffffff1660e01b815260040160206040518083038186803b15801561435a57600080fd5b505afa15801561436e573d6000803e3d6000fd5b505050506040513d602081101561438457600080fd5b50516040805163d3406abd60e01b815290519192506000916144aa91614471916001600160a01b0387169163d3406abd916004808301926020929190829003018186803b1580156143d457600080fd5b505afa1580156143e8573d6000803e3d6000fd5b505050506040513d60208110156143fe57600080fd5b50516040805162f376cb60e21b815290516001600160a01b038816916303cddb2c916004808301926020929190829003018186803b15801561443f57600080fd5b505afa158015614453573d6000803e3d6000fd5b505050506040513d602081101561446957600080fd5b505190613645565b846001600160a01b03166303cddb2c6040518163ffffffff1660e01b815260040160206040518083038186803b15801561159557600080fd5b90506000836001600160a01b03166303cddb2c6040518163ffffffff1660e01b815260040160206040518083038186803b1580156144e757600080fd5b505afa1580156144fb573d6000803e3d6000fd5b505050506040513d602081101561451157600080fd5b50519050600080808084871180156145295750858710155b15614552576001935083925061453f8786613538565b915061454b8787613538565b90506145b7565b84871015801561456157508587105b156145845760019350600092506145788786613538565b915061454b8688613538565b848710801561459257508587105b156145b757600093508392506145a88588613538565b91506145b48688613538565b90505b929a50985096509450505050509193509193565b6000670de0b6b3a76400006145e08484613595565b816145e757fe5b049392505050565b6000808790506000816001600160a01b0316636db40dc26040518163ffffffff1660e01b815260040160206040518083038186803b15801561463057600080fd5b505afa158015614644573d6000803e3d6000fd5b505050506040513d602081101561465a57600080fd5b50516040805163d3406abd60e01b815290519192506000918291829161475291614719916001600160a01b0389169163d3406abd916004808301926020929190829003018186803b1580156146ae57600080fd5b505afa1580156146c2573d6000803e3d6000fd5b505050506040513d60208110156146d857600080fd5b50516040805162f376cb60e21b815290516001600160a01b038a16916303cddb2c916004808301926020929190829003018186803b15801561443f57600080fd5b866001600160a01b03166303cddb2c6040518163ffffffff1660e01b815260040160206040518083038186803b15801561159557600080fd5b90508a6001600160a01b0316856001600160a01b0316631fe4a6866040518163ffffffff1660e01b815260040160206040518083038186803b15801561479757600080fd5b505afa1580156147ab573d6000803e3d6000fd5b505050506040513d60208110156147c157600080fd5b50516001600160a01b031614156148f7576147fc847f00000000000000000000000000000000000000000000000000000000000000006145cb565b925060018a151514801561481257506001881515145b1561488757614822836002613595565b915061487461486d614866876001600160a01b03166303976e386040518163ffffffff1660e01b815260040160206040518083038186803b15801561293a57600080fd5b8590613645565b8490612abc565b925081831115614882578192505b614905565b60018a1515148015614897575087155b156148f7576148f06118916148e96148e284896001600160a01b03166303976e386040518163ffffffff1660e01b815260040160206040518083038186803b158015611b5357600080fd5b8690613645565b8590613538565b9250614905565b60009550505050505061490d565b509093505050505b9695505050505050565b60008481600185151514156149d657856001600160a01b0316826001600160a01b0316631fe4a6866040518163ffffffff1660e01b815260040160206040518083038186803b15801561496957600080fd5b505afa15801561497d573d6000803e3d6000fd5b505050506040513d602081101561499357600080fd5b50516001600160a01b031614156149d1576149ce847f00000000000000000000000000000000000000000000000000000000000000006145cb565b90505b61490d565b5060009695505050505050565b6000808790506000816001600160a01b0316636db40dc26040518163ffffffff1660e01b815260040160206040518083038186803b158015614a2457600080fd5b505afa158015614a38573d6000803e3d6000fd5b505050506040513d6020811015614a4e57600080fd5b5051604080517f950c78220000000000000000000000000000000000000000000000000000000081526001600160a01b038b8116600483015291519293506000929185169163950c782291602480820192602092909190829003018186803b158015614ab957600080fd5b505afa158015614acd573d6000803e3d6000fd5b505050506040513d6020811015614ae357600080fd5b50516040805163d3406abd60e01b815290519192506000918291614b3691614719916001600160a01b0389169163d3406abd91600480820192602092909190829003018186803b1580156146ae57600080fd5b905060008084138015614b4b575060018b1515145b8015614b5957506001891515145b15614c0157614bfa614bd0876001600160a01b031663d40244cb6040518163ffffffff1660e01b815260040160206040518083038186803b158015614b9d57600080fd5b505afa158015614bb1573d6000803e3d6000fd5b505050506040513d6020811015614bc757600080fd5b5051869061362d565b611a73877f00000000000000000000000000000000000000000000000000000000000000006145cb565b9050614d76565b600084138015614c13575060018b1515145b8015614c1d575088155b15614c8157614c61614bd0876001600160a01b031663d40244cb6040518163ffffffff1660e01b815260040160206040518083038186803b158015614b9d57600080fd5b9050614bfa614c7a614c738a8561362d565b8390613645565b8290613538565b600084138015614c8f57508a155b15614c9c57506000614d76565b600084128015614caa575088155b15614d5b57614d23614bd0876001600160a01b031663449b98266040518163ffffffff1660e01b815260040160206040518083038186803b158015614cee57600080fd5b505afa158015614d02573d6000803e3d6000fd5b505050506040513d6020811015614d1857600080fd5b50516118af876153f6565b9050614d30816002613595565b9250614d49614d42614c738a8561362d565b8290612abc565b905082811115614d565750815b614d76565b600084128015614d6d57506001891515145b15614d76575060005b9c9b505050505050505050505050565b600080879050600080826001600160a01b031663950c78228a6040518263ffffffff1660e01b815260040180826001600160a01b0316815260200191505060206040518083038186803b158015614ddc57600080fd5b505afa158015614df0573d6000803e3d6000fd5b505050506040513d6020811015614e0657600080fd5b5051905060018815151415614f8d576000811315614ebb57614eb4836001600160a01b031663d40244cb6040518163ffffffff1660e01b815260040160206040518083038186803b158015614e5a57600080fd5b505afa158015614e6e573d6000803e3d6000fd5b505050506040513d6020811015614e8457600080fd5b50516118af83611a738b7f00000000000000000000000000000000000000000000000000000000000000006145cb565b9150614f88565b600081128015614ec9575085155b15614f6c57614eb4836001600160a01b031663449b98266040518163ffffffff1660e01b815260040160206040518083038186803b158015614f0a57600080fd5b505afa158015614f1e573d6000803e3d6000fd5b505050506040513d6020811015614f3457600080fd5b50516118af614f42846153f6565b611a738b7f00000000000000000000000000000000000000000000000000000000000000006145cb565b600081128015614f7e57506001861515145b15614f8857600091505b614f92565b600091505b5098975050505050505050565b604080516001600160a01b038416602482015260448082018490528251808303909101815260649091019091526020810180517bffffffffffffffffffffffffffffffffffffffffffffffffffffffff167fa9059cbb00000000000000000000000000000000000000000000000000000000179052612cce90849061540d565b60008073__$cd00f7bc85cfd34feb4171d2d22c665f63$__63907af6c06040518163ffffffff1660e01b815260040160206040518083038186803b15801561506657600080fd5b505af415801561507a573d6000803e3d6000fd5b505050506040513d602081101561509057600080fd5b505190505b8215612b165760028306156150b1576150ae81856145cb565b90505b6150bb84806145cb565b9350600283049250615095565b6001600160a01b038085166000908152600b6020908152604080832093871683529290529081206002810180548392918391615105906001613538565b8154811061510f57fe5b9060005260206000200154905060008260020160008154811061512e57fe5b906000526020600020015490508582118061514857508681105b156151ea5760005b6002840154615160906001613538565b81116151e8578684600201828154811061517657fe5b9060005260206000200154116151a35783600201818154811061519557fe5b906000526020600020015492505b878460020182815481106151b357fe5b9060005260206000200154116151e0578360020181815481106151d257fe5b906000526020600020015491505b600101615150565b505b9890975095505050505050565b6001600160a01b0383166000908152600e60205260408120548190819061521f906001613538565b6001600160a01b0387166000908152600e60205260408120805492935090918390811061524857fe5b906000526020600020015490506000600e6000896001600160a01b03166001600160a01b0316815260200190815260200160002060008154811061528857fe5b90600052602060002001549050858211806152a257508681105b156153035760005b838111615301576001600160a01b0389166000908152600e602052604081208054839081106152d557fe5b906000526020600020015490508781116152ed578093505b8881116152f8578092505b506001016152aa565b505b97909650945050505050565b600081615363576040805162461bcd60e51b815260206004820152601060248201527f43616e7420646976696465206279203000000000000000000000000000000000604482015290519081900360640190fd5b60008311615372576000612b16565b612b166001615391846132a88361146c89670de0b6b3a7640000613595565b90612abc565b60008082116153ed576040805162461bcd60e51b815260206004820152601a60248201527f536166654d6174683a206469766973696f6e206279207a65726f000000000000604482015290519081900360640190fd5b8183816145e757fe5b6000808212156154095781600003610eb8565b5090565b6000615462826040518060400160405280602081526020017f5361666545524332303a206c6f772d6c6576656c2063616c6c206661696c6564815250856001600160a01b03166154be9092919063ffffffff16565b805190915015612cce5780806020019051602081101561548157600080fd5b5051612cce5760405162461bcd60e51b815260040180806020018281038252602a8152602001806156cd602a913960400191505060405180910390fd5b6060610ed18484600085856154d2856155e3565b615523576040805162461bcd60e51b815260206004820152601d60248201527f416464726573733a2063616c6c20746f206e6f6e2d636f6e7472616374000000604482015290519081900360640190fd5b600080866001600160a01b031685876040518082805190602001908083835b602083106155615780518252601f199092019160209182019101615542565b6001836020036101000a03801982511681845116808217855250505050505090500191505060006040518083038185875af1925050503d80600081146155c3576040519150601f19603f3d011682016040523d82523d6000602084013e6155c8565b606091505b50915091506155d88282866155e9565b979650505050505050565b3b151590565b606083156155f8575081613626565b8251156156085782518084602001fd5b60405162461bcd60e51b8152602060048201818152845160248401528451859391928392604401919085019080838360008315612b7f578181015183820152602001612b67565b508054600082559060005260206000209081019061566d9190615670565b50565b5b80821115615409576000815560010161567156fe4f776e61626c653a206e6577206f776e657220697320746865207a65726f2061646472657373536166654d6174683a206d756c7469706c69636174696f6e206f766572666c6f775361666545524332303a204552433230206f7065726174696f6e20646964206e6f742073756363656564a2646970667358221220fa1536fac863caf770ca9d03a3e48a36c4e3b6371eff3f7d616b6ffe30361d3a64736f6c63430007060033",
  "libraries": {
    "SafeDecimalMath": "0x49120d18951D4bA76Fc113A75bF5959a3261e683"
  },
  "devdoc": {
    "author": "Babylon Finance Rewards Distributor contract is a smart contract used to calculate and distribute all the BABL rewards of the BABL Mining Program along the time reserved for executed strategies. It implements a supply curve to distribute 500K BABL along the time. The supply curve is designed to optimize the long-term sustainability of the protocol. The rewards are front-loaded but they last for more than 10 years, slowly decreasing quarter by quarter. For that, it houses the state of the protocol power along the time as each strategy power is compared to the whole protocol usage. Rewards Distributor also is responsible for the calculation and delivery of other rewards as bonuses to specific profiles which are actively contributing to the protocol growth and their communities (Garden creators, Strategists and Stewards).",
    "kind": "dev",
    "methods": {
      "addProtocolPrincipal(uint256)": {
        "params": {
          "_capital": "Amount of capital in WETH"
        }
      },
      "getContributorPower(address,address,uint256,uint256)": {
        "params": {
          "_contributor": "Address if the contributor",
          "_from": "Initial timestamp",
          "_garden": "Address of the garden where the contributor belongs to",
          "_to": "End timestamp"
        },
        "returns": {
          "_0": "uint256     Contributor power during that period"
        }
      },
      "getRewards(address,address,address[])": {
        "params": {
          "_contributor": "Address of the contributor to check",
          "_finalizedStrategies": "List of addresses of the finalized strategies to check",
          "_garden": "Garden to which the strategies and the user must belong to"
        }
      },
      "getStrategyRewards(address)": {
        "params": {
          "_strategy": "Strategy to check"
        }
      },
      "owner()": {
        "details": "Returns the address of the current owner."
      },
      "renounceOwnership()": {
        "details": "Leaves the contract without owner. It will not be possible to call `onlyOwner` functions anymore. Can only be called by the current owner. NOTE: Renouncing ownership will leave the contract without an owner, thereby removing any functionality that is only available to the owner."
      },
      "sendTokensToContributor(address,uint96)": {
        "params": {
          "_amount": "Amount of tokens to send the address to",
          "_to": "Address to send the tokens to"
        }
      },
      "substractProtocolPrincipal(uint256)": {
        "params": {
          "_capital": "Amount of capital in WETH"
        }
      },
      "transferOwnership(address)": {
        "details": "Transfers ownership of the contract to a new account (`newOwner`). Can only be called by the current owner."
      }
    },
    "title": "Rewards Distributor implementing the BABL Mining Program and other Rewards to Strategists and Stewards",
    "version": 1
  },
  "userdoc": {
    "kind": "user",
    "methods": {
      "addProtocolPrincipal(uint256)": {
        "notice": "Function that adds the capital received to the total principal of the protocol per timestamp"
      },
      "getContributorPower(address,address,uint256,uint256)": {
        "notice": "Gets the contributor power from one timestamp to the other"
      },
      "getRewards(address,address,address[])": {
        "notice": "Calculates the profits and BABL that a contributor should receive from a series of finalized strategies"
      },
      "getStrategyRewards(address)": {
        "notice": "Gets the total amount of rewards for a given strategy"
      },
      "sendTokensToContributor(address,uint96)": {
        "notice": "Sends BABL tokens rewards to a contributor after a claim is requested to the protocol."
      },
      "startBABLRewards()": {
        "notice": "Starts BABL Rewards Mining Program from the controller."
      },
      "substractProtocolPrincipal(uint256)": {
        "notice": "Function that removes the capital received to the total principal of the protocol per timestamp"
      },
      "updateGardenPower(address,uint256)": {
        "notice": "function getContributor(address _garden, address _contributor) external view returns ( uint256, uint256, uint256[] memory, uint256 );"
      }
    },
    "version": 1
  },
  "storageLayout": {
    "storage": [
      {
        "astId": 3848,
        "contract": "contracts/token/RewardsDistributor.sol:RewardsDistributor",
        "label": "_owner",
        "offset": 0,
        "slot": "0",
        "type": "t_address"
      },
      {
        "astId": 34223,
        "contract": "contracts/token/RewardsDistributor.sol:RewardsDistributor",
        "label": "START_TIME",
        "offset": 0,
        "slot": "1",
        "type": "t_uint256"
      },
      {
        "astId": 34300,
        "contract": "contracts/token/RewardsDistributor.sol:RewardsDistributor",
        "label": "controller",
        "offset": 0,
        "slot": "2",
        "type": "t_contract(IBabController)23675"
      },
      {
        "astId": 34302,
        "contract": "contracts/token/RewardsDistributor.sol:RewardsDistributor",
        "label": "babltoken",
        "offset": 0,
        "slot": "3",
        "type": "t_contract(TimeLockedToken)39641"
      },
      {
        "astId": 34305,
        "contract": "contracts/token/RewardsDistributor.sol:RewardsDistributor",
        "label": "protocolPrincipal",
        "offset": 0,
        "slot": "4",
        "type": "t_uint256"
      },
      {
        "astId": 34309,
        "contract": "contracts/token/RewardsDistributor.sol:RewardsDistributor",
        "label": "protocolPerTimestamp",
        "offset": 0,
        "slot": "5",
        "type": "t_mapping(t_uint256,t_struct(ProtocolPerTimestamp)34250_storage)"
      },
      {
        "astId": 34312,
        "contract": "contracts/token/RewardsDistributor.sol:RewardsDistributor",
        "label": "timeList",
        "offset": 0,
        "slot": "6",
        "type": "t_array(t_uint256)dyn_storage"
      },
      {
        "astId": 34315,
        "contract": "contracts/token/RewardsDistributor.sol:RewardsDistributor",
        "label": "pid",
        "offset": 0,
        "slot": "7",
        "type": "t_uint256"
      },
      {
        "astId": 34319,
        "contract": "contracts/token/RewardsDistributor.sol:RewardsDistributor",
        "label": "protocolPerQuarter",
        "offset": 0,
        "slot": "8",
        "type": "t_mapping(t_uint256,t_struct(ProtocolPerQuarter)34259_storage)"
      },
      {
        "astId": 34323,
        "contract": "contracts/token/RewardsDistributor.sol:RewardsDistributor",
        "label": "isProtocolPerQuarter",
        "offset": 0,
        "slot": "9",
        "type": "t_mapping(t_uint256,t_bool)"
      },
      {
        "astId": 34329,
        "contract": "contracts/token/RewardsDistributor.sol:RewardsDistributor",
        "label": "rewardsPowerOverhead",
        "offset": 0,
        "slot": "10",
        "type": "t_mapping(t_address,t_mapping(t_uint256,t_uint256))"
      },
      {
        "astId": 34335,
        "contract": "contracts/token/RewardsDistributor.sol:RewardsDistributor",
        "label": "contributorPerGarden",
        "offset": 0,
        "slot": "11",
        "type": "t_mapping(t_address,t_mapping(t_address,t_struct(ContributorPerGarden)34280_storage))"
      },
      {
        "astId": 34341,
        "contract": "contracts/token/RewardsDistributor.sol:RewardsDistributor",
        "label": "checkpoints",
        "offset": 0,
        "slot": "12",
        "type": "t_mapping(t_address,t_mapping(t_address,t_struct(Checkpoints)34298_storage))"
      },
      {
        "astId": 34347,
        "contract": "contracts/token/RewardsDistributor.sol:RewardsDistributor",
        "label": "gardenPowerByTimestamp",
        "offset": 0,
        "slot": "13",
        "type": "t_mapping(t_address,t_mapping(t_uint256,t_struct(GardenPowerByTimestamp)34266_storage))"
      },
      {
        "astId": 34352,
        "contract": "contracts/token/RewardsDistributor.sol:RewardsDistributor",
        "label": "gardenTimelist",
        "offset": 0,
        "slot": "14",
        "type": "t_mapping(t_address,t_array(t_uint256)dyn_storage)"
      },
      {
        "astId": 34356,
        "contract": "contracts/token/RewardsDistributor.sol:RewardsDistributor",
        "label": "gardenPid",
        "offset": 0,
        "slot": "15",
        "type": "t_mapping(t_address,t_uint256)"
      }
    ],
    "types": {
      "t_address": {
        "encoding": "inplace",
        "label": "address",
        "numberOfBytes": "20"
      },
      "t_array(t_uint256)dyn_storage": {
        "base": "t_uint256",
        "encoding": "dynamic_array",
        "label": "uint256[]",
        "numberOfBytes": "32"
      },
      "t_bool": {
        "encoding": "inplace",
        "label": "bool",
        "numberOfBytes": "1"
      },
      "t_contract(IBabController)23675": {
        "encoding": "inplace",
        "label": "contract IBabController",
        "numberOfBytes": "20"
      },
      "t_contract(TimeLockedToken)39641": {
        "encoding": "inplace",
        "label": "contract TimeLockedToken",
        "numberOfBytes": "20"
      },
      "t_mapping(t_address,t_array(t_uint256)dyn_storage)": {
        "encoding": "mapping",
        "key": "t_address",
        "label": "mapping(address => uint256[])",
        "numberOfBytes": "32",
        "value": "t_array(t_uint256)dyn_storage"
      },
      "t_mapping(t_address,t_mapping(t_address,t_struct(Checkpoints)34298_storage))": {
        "encoding": "mapping",
        "key": "t_address",
        "label": "mapping(address => mapping(address => struct RewardsDistributor.Checkpoints))",
        "numberOfBytes": "32",
        "value": "t_mapping(t_address,t_struct(Checkpoints)34298_storage)"
      },
      "t_mapping(t_address,t_mapping(t_address,t_struct(ContributorPerGarden)34280_storage))": {
        "encoding": "mapping",
        "key": "t_address",
        "label": "mapping(address => mapping(address => struct RewardsDistributor.ContributorPerGarden))",
        "numberOfBytes": "32",
        "value": "t_mapping(t_address,t_struct(ContributorPerGarden)34280_storage)"
      },
      "t_mapping(t_address,t_mapping(t_uint256,t_struct(GardenPowerByTimestamp)34266_storage))": {
        "encoding": "mapping",
        "key": "t_address",
        "label": "mapping(address => mapping(uint256 => struct RewardsDistributor.GardenPowerByTimestamp))",
        "numberOfBytes": "32",
        "value": "t_mapping(t_uint256,t_struct(GardenPowerByTimestamp)34266_storage)"
      },
      "t_mapping(t_address,t_mapping(t_uint256,t_uint256))": {
        "encoding": "mapping",
        "key": "t_address",
        "label": "mapping(address => mapping(uint256 => uint256))",
        "numberOfBytes": "32",
        "value": "t_mapping(t_uint256,t_uint256)"
      },
      "t_mapping(t_address,t_struct(Checkpoints)34298_storage)": {
        "encoding": "mapping",
        "key": "t_address",
        "label": "mapping(address => struct RewardsDistributor.Checkpoints)",
        "numberOfBytes": "32",
        "value": "t_struct(Checkpoints)34298_storage"
      },
      "t_mapping(t_address,t_struct(ContributorPerGarden)34280_storage)": {
        "encoding": "mapping",
        "key": "t_address",
        "label": "mapping(address => struct RewardsDistributor.ContributorPerGarden)",
        "numberOfBytes": "32",
        "value": "t_struct(ContributorPerGarden)34280_storage"
      },
      "t_mapping(t_address,t_uint256)": {
        "encoding": "mapping",
        "key": "t_address",
        "label": "mapping(address => uint256)",
        "numberOfBytes": "32",
        "value": "t_uint256"
      },
      "t_mapping(t_uint256,t_bool)": {
        "encoding": "mapping",
        "key": "t_uint256",
        "label": "mapping(uint256 => bool)",
        "numberOfBytes": "32",
        "value": "t_bool"
      },
      "t_mapping(t_uint256,t_struct(GardenPowerByTimestamp)34266_storage)": {
        "encoding": "mapping",
        "key": "t_uint256",
        "label": "mapping(uint256 => struct RewardsDistributor.GardenPowerByTimestamp)",
        "numberOfBytes": "32",
        "value": "t_struct(GardenPowerByTimestamp)34266_storage"
      },
      "t_mapping(t_uint256,t_struct(ProtocolPerQuarter)34259_storage)": {
        "encoding": "mapping",
        "key": "t_uint256",
        "label": "mapping(uint256 => struct RewardsDistributor.ProtocolPerQuarter)",
        "numberOfBytes": "32",
        "value": "t_struct(ProtocolPerQuarter)34259_storage"
      },
      "t_mapping(t_uint256,t_struct(ProtocolPerTimestamp)34250_storage)": {
        "encoding": "mapping",
        "key": "t_uint256",
        "label": "mapping(uint256 => struct RewardsDistributor.ProtocolPerTimestamp)",
        "numberOfBytes": "32",
        "value": "t_struct(ProtocolPerTimestamp)34250_storage"
      },
      "t_mapping(t_uint256,t_struct(TimestampContribution)34289_storage)": {
        "encoding": "mapping",
        "key": "t_uint256",
        "label": "mapping(uint256 => struct RewardsDistributor.TimestampContribution)",
        "numberOfBytes": "32",
        "value": "t_struct(TimestampContribution)34289_storage"
      },
      "t_mapping(t_uint256,t_uint256)": {
        "encoding": "mapping",
        "key": "t_uint256",
        "label": "mapping(uint256 => uint256)",
        "numberOfBytes": "32",
        "value": "t_uint256"
      },
      "t_struct(Checkpoints)34298_storage": {
        "encoding": "inplace",
        "label": "struct RewardsDistributor.Checkpoints",
        "members": [
          {
            "astId": 34291,
            "contract": "contracts/token/RewardsDistributor.sol:RewardsDistributor",
            "label": "fromDepositAt",
            "offset": 0,
            "slot": "0",
            "type": "t_uint256"
          },
          {
            "astId": 34293,
            "contract": "contracts/token/RewardsDistributor.sol:RewardsDistributor",
            "label": "lastDepositAt",
            "offset": 0,
            "slot": "1",
            "type": "t_uint256"
          },
          {
            "astId": 34295,
            "contract": "contracts/token/RewardsDistributor.sol:RewardsDistributor",
            "label": "gardenFromDepositAt",
            "offset": 0,
            "slot": "2",
            "type": "t_uint256"
          },
          {
            "astId": 34297,
            "contract": "contracts/token/RewardsDistributor.sol:RewardsDistributor",
            "label": "gardenLastDepositAt",
            "offset": 0,
            "slot": "3",
            "type": "t_uint256"
          }
        ],
        "numberOfBytes": "128"
      },
      "t_struct(ContributorPerGarden)34280_storage": {
        "encoding": "inplace",
        "label": "struct RewardsDistributor.ContributorPerGarden",
        "members": [
          {
            "astId": 34268,
            "contract": "contracts/token/RewardsDistributor.sol:RewardsDistributor",
            "label": "lastDepositAt",
            "offset": 0,
            "slot": "0",
            "type": "t_uint256"
          },
          {
            "astId": 34270,
            "contract": "contracts/token/RewardsDistributor.sol:RewardsDistributor",
            "label": "initialDepositAt",
            "offset": 0,
            "slot": "1",
            "type": "t_uint256"
          },
          {
            "astId": 34273,
            "contract": "contracts/token/RewardsDistributor.sol:RewardsDistributor",
            "label": "timeListPointer",
            "offset": 0,
            "slot": "2",
            "type": "t_array(t_uint256)dyn_storage"
          },
          {
            "astId": 34275,
            "contract": "contracts/token/RewardsDistributor.sol:RewardsDistributor",
            "label": "pid",
            "offset": 0,
            "slot": "3",
            "type": "t_uint256"
          },
          {
            "astId": 34279,
            "contract": "contracts/token/RewardsDistributor.sol:RewardsDistributor",
            "label": "tsContributions",
            "offset": 0,
            "slot": "4",
            "type": "t_mapping(t_uint256,t_struct(TimestampContribution)34289_storage)"
          }
        ],
        "numberOfBytes": "160"
      },
      "t_struct(GardenPowerByTimestamp)34266_storage": {
        "encoding": "inplace",
        "label": "struct RewardsDistributor.GardenPowerByTimestamp",
        "members": [
          {
            "astId": 34261,
            "contract": "contracts/token/RewardsDistributor.sol:RewardsDistributor",
            "label": "principal",
            "offset": 0,
            "slot": "0",
            "type": "t_uint256"
          },
          {
            "astId": 34263,
            "contract": "contracts/token/RewardsDistributor.sol:RewardsDistributor",
            "label": "timestamp",
            "offset": 0,
            "slot": "1",
            "type": "t_uint256"
          },
          {
            "astId": 34265,
            "contract": "contracts/token/RewardsDistributor.sol:RewardsDistributor",
            "label": "power",
            "offset": 0,
            "slot": "2",
            "type": "t_uint256"
          }
        ],
        "numberOfBytes": "96"
      },
      "t_struct(ProtocolPerQuarter)34259_storage": {
        "encoding": "inplace",
        "label": "struct RewardsDistributor.ProtocolPerQuarter",
        "members": [
          {
            "astId": 34252,
            "contract": "contracts/token/RewardsDistributor.sol:RewardsDistributor",
            "label": "quarterPrincipal",
            "offset": 0,
            "slot": "0",
            "type": "t_uint256"
          },
          {
            "astId": 34254,
            "contract": "contracts/token/RewardsDistributor.sol:RewardsDistributor",
            "label": "quarterNumber",
            "offset": 0,
            "slot": "1",
            "type": "t_uint256"
          },
          {
            "astId": 34256,
            "contract": "contracts/token/RewardsDistributor.sol:RewardsDistributor",
            "label": "quarterPower",
            "offset": 0,
            "slot": "2",
            "type": "t_uint256"
          },
          {
            "astId": 34258,
            "contract": "contracts/token/RewardsDistributor.sol:RewardsDistributor",
            "label": "supplyPerQuarter",
            "offset": 0,
            "slot": "3",
            "type": "t_uint96"
          }
        ],
        "numberOfBytes": "128"
      },
      "t_struct(ProtocolPerTimestamp)34250_storage": {
        "encoding": "inplace",
        "label": "struct RewardsDistributor.ProtocolPerTimestamp",
        "members": [
          {
            "astId": 34241,
            "contract": "contracts/token/RewardsDistributor.sol:RewardsDistributor",
            "label": "principal",
            "offset": 0,
            "slot": "0",
            "type": "t_uint256"
          },
          {
            "astId": 34243,
            "contract": "contracts/token/RewardsDistributor.sol:RewardsDistributor",
            "label": "time",
            "offset": 0,
            "slot": "1",
            "type": "t_uint256"
          },
          {
            "astId": 34245,
            "contract": "contracts/token/RewardsDistributor.sol:RewardsDistributor",
            "label": "quarterBelonging",
            "offset": 0,
            "slot": "2",
            "type": "t_uint256"
          },
          {
            "astId": 34247,
            "contract": "contracts/token/RewardsDistributor.sol:RewardsDistributor",
            "label": "timeListPointer",
            "offset": 0,
            "slot": "3",
            "type": "t_uint256"
          },
          {
            "astId": 34249,
            "contract": "contracts/token/RewardsDistributor.sol:RewardsDistributor",
            "label": "power",
            "offset": 0,
            "slot": "4",
            "type": "t_uint256"
          }
        ],
        "numberOfBytes": "160"
      },
      "t_struct(TimestampContribution)34289_storage": {
        "encoding": "inplace",
        "label": "struct RewardsDistributor.TimestampContribution",
        "members": [
          {
            "astId": 34282,
            "contract": "contracts/token/RewardsDistributor.sol:RewardsDistributor",
            "label": "principal",
            "offset": 0,
            "slot": "0",
            "type": "t_uint256"
          },
          {
            "astId": 34284,
            "contract": "contracts/token/RewardsDistributor.sol:RewardsDistributor",
            "label": "timestamp",
            "offset": 0,
            "slot": "1",
            "type": "t_uint256"
          },
          {
            "astId": 34286,
            "contract": "contracts/token/RewardsDistributor.sol:RewardsDistributor",
            "label": "timePointer",
            "offset": 0,
            "slot": "2",
            "type": "t_uint256"
          },
          {
            "astId": 34288,
            "contract": "contracts/token/RewardsDistributor.sol:RewardsDistributor",
            "label": "power",
            "offset": 0,
            "slot": "3",
            "type": "t_uint256"
          }
        ],
        "numberOfBytes": "128"
      },
      "t_uint256": {
        "encoding": "inplace",
        "label": "uint256",
        "numberOfBytes": "32"
      },
      "t_uint96": {
        "encoding": "inplace",
        "label": "uint96",
        "numberOfBytes": "12"
      }
    }
  }
}