{
  "address": "0x910971a91D41EF963CFF1C5235037762015EdAa7",
  "abi": [
    {
      "anonymous": false,
      "inputs": [
        {
          "indexed": true,
          "internalType": "address",
          "name": "previousOwner",
          "type": "address"
        },
        {
          "indexed": true,
          "internalType": "address",
          "name": "newOwner",
          "type": "address"
        }
      ],
      "name": "OwnershipTransferred",
      "type": "event"
    },
    {
      "inputs": [],
      "name": "START_TIME",
      "outputs": [
        {
          "internalType": "uint256",
          "name": "",
          "type": "uint256"
        }
      ],
      "stateMutability": "view",
      "type": "function"
    },
    {
      "inputs": [],
      "name": "babltoken",
      "outputs": [
        {
          "internalType": "contract TimeLockedToken",
          "name": "",
          "type": "address"
        }
      ],
      "stateMutability": "view",
      "type": "function"
    },
    {
      "inputs": [
        {
          "internalType": "uint256",
          "name": "_time",
          "type": "uint256"
        }
      ],
      "name": "checkProtocol",
      "outputs": [
        {
          "internalType": "uint256",
          "name": "principal",
          "type": "uint256"
        },
        {
          "internalType": "uint256",
          "name": "time",
          "type": "uint256"
        },
        {
          "internalType": "uint256",
          "name": "quarterBelonging",
          "type": "uint256"
        },
        {
          "internalType": "uint256",
          "name": "timeListPointer",
          "type": "uint256"
        },
        {
          "internalType": "uint256",
          "name": "power",
          "type": "uint256"
        }
      ],
      "stateMutability": "view",
      "type": "function"
    },
    {
      "inputs": [
        {
          "internalType": "uint256",
          "name": "_num",
          "type": "uint256"
        }
      ],
      "name": "checkQuarter",
      "outputs": [
        {
          "internalType": "uint256",
          "name": "quarterPrincipal",
          "type": "uint256"
        },
        {
          "internalType": "uint256",
          "name": "quarterNumber",
          "type": "uint256"
        },
        {
          "internalType": "uint256",
          "name": "quarterPower",
          "type": "uint256"
        },
        {
          "internalType": "uint96",
          "name": "supplyPerQuarter",
          "type": "uint96"
        }
      ],
      "stateMutability": "view",
      "type": "function"
    },
    {
      "inputs": [
        {
          "internalType": "address",
          "name": "",
          "type": "address"
        },
        {
          "internalType": "address",
          "name": "",
          "type": "address"
        }
      ],
      "name": "contributorPerGarden",
      "outputs": [
        {
          "internalType": "uint256",
          "name": "lastDepositAt",
          "type": "uint256"
        },
        {
          "internalType": "uint256",
          "name": "initialDepositAt",
          "type": "uint256"
        },
        {
          "internalType": "uint256",
          "name": "pid",
          "type": "uint256"
        }
      ],
      "stateMutability": "view",
      "type": "function"
    },
    {
      "inputs": [],
      "name": "controller",
      "outputs": [
        {
          "internalType": "contract IBabController",
          "name": "",
          "type": "address"
        }
      ],
      "stateMutability": "view",
      "type": "function"
    },
    {
      "inputs": [
        {
          "internalType": "address",
          "name": "",
          "type": "address"
        },
        {
          "internalType": "uint256",
          "name": "",
          "type": "uint256"
        }
      ],
      "name": "gardenPowerByTimestamp",
      "outputs": [
        {
          "internalType": "uint256",
          "name": "supply",
          "type": "uint256"
        },
        {
          "internalType": "uint256",
          "name": "timestamp",
          "type": "uint256"
        },
        {
          "internalType": "uint256",
          "name": "power",
          "type": "uint256"
        }
      ],
      "stateMutability": "view",
      "type": "function"
    },
    {
      "inputs": [
        {
          "internalType": "address",
          "name": "_garden",
          "type": "address"
        },
        {
          "internalType": "address",
          "name": "_contributor",
          "type": "address"
        },
        {
          "internalType": "uint256",
          "name": "_from",
          "type": "uint256"
        },
        {
          "internalType": "uint256",
          "name": "_to",
          "type": "uint256"
        }
      ],
      "name": "getContributorPower",
      "outputs": [
        {
          "internalType": "uint256",
          "name": "",
          "type": "uint256"
        }
      ],
      "stateMutability": "view",
      "type": "function"
    },
    {
      "inputs": [
        {
          "internalType": "address",
          "name": "_garden",
          "type": "address"
        }
      ],
      "name": "getGardenProfitsSharing",
      "outputs": [
        {
          "internalType": "uint256[3]",
          "name": "",
          "type": "uint256[3]"
        }
      ],
      "stateMutability": "view",
      "type": "function"
    },
    {
      "inputs": [
        {
          "internalType": "address",
          "name": "_garden",
          "type": "address"
        },
        {
          "internalType": "address",
          "name": "_contributor",
          "type": "address"
        },
        {
          "internalType": "address[]",
          "name": "_finalizedStrategies",
          "type": "address[]"
        }
      ],
      "name": "getRewards",
      "outputs": [
        {
          "internalType": "uint256[]",
          "name": "",
          "type": "uint256[]"
        }
      ],
      "stateMutability": "view",
      "type": "function"
    },
    {
      "inputs": [
        {
          "internalType": "address",
          "name": "_strategy",
          "type": "address"
        }
      ],
      "name": "getStrategyRewards",
      "outputs": [
        {
          "internalType": "uint96",
          "name": "",
          "type": "uint96"
        }
      ],
      "stateMutability": "view",
      "type": "function"
    },
    {
      "inputs": [
        {
          "internalType": "contract TimeLockedToken",
          "name": "_bablToken",
          "type": "address"
        },
        {
          "internalType": "contract IBabController",
          "name": "_controller",
          "type": "address"
        }
      ],
      "name": "initialize",
      "outputs": [],
      "stateMutability": "nonpayable",
      "type": "function"
    },
    {
      "inputs": [],
      "name": "owner",
      "outputs": [
        {
          "internalType": "address",
          "name": "",
          "type": "address"
        }
      ],
      "stateMutability": "view",
      "type": "function"
    },
    {
      "inputs": [],
      "name": "renounceOwnership",
      "outputs": [],
      "stateMutability": "nonpayable",
      "type": "function"
    },
    {
      "inputs": [
        {
          "internalType": "address",
          "name": "_to",
          "type": "address"
        },
        {
          "internalType": "uint256",
          "name": "_amount",
          "type": "uint256"
        }
      ],
      "name": "sendTokensToContributor",
      "outputs": [],
      "stateMutability": "nonpayable",
      "type": "function"
    },
    {
      "inputs": [
        {
          "internalType": "contract TimeLockedToken",
          "name": "_bablToken",
          "type": "address"
        }
      ],
      "name": "setBablToken",
      "outputs": [],
      "stateMutability": "nonpayable",
      "type": "function"
    },
    {
      "inputs": [
        {
          "internalType": "address",
          "name": "_garden",
          "type": "address"
        },
        {
          "internalType": "uint256",
          "name": "_strategistShare",
          "type": "uint256"
        },
        {
          "internalType": "uint256",
          "name": "_stewardsShare",
          "type": "uint256"
        },
        {
          "internalType": "uint256",
          "name": "_lpShare",
          "type": "uint256"
        }
      ],
      "name": "setProfitRewards",
      "outputs": [],
      "stateMutability": "nonpayable",
      "type": "function"
    },
    {
      "inputs": [],
      "name": "startBABLRewards",
      "outputs": [],
      "stateMutability": "nonpayable",
      "type": "function"
    },
    {
      "inputs": [
        {
          "internalType": "address",
          "name": "",
          "type": "address"
        },
        {
          "internalType": "uint256",
          "name": "",
          "type": "uint256"
        }
      ],
      "name": "strategyPerQuarter",
      "outputs": [
        {
          "internalType": "uint256",
          "name": "quarterPrincipal",
          "type": "uint256"
        },
        {
          "internalType": "uint256",
          "name": "quarterNumber",
          "type": "uint256"
        },
        {
          "internalType": "uint256",
          "name": "quarterPower",
          "type": "uint256"
        },
        {
          "internalType": "bool",
          "name": "initialized",
          "type": "bool"
        }
      ],
      "stateMutability": "view",
      "type": "function"
    },
    {
      "inputs": [
        {
          "internalType": "address",
          "name": "",
          "type": "address"
        }
      ],
      "name": "strategyPricePerTokenUnit",
      "outputs": [
        {
          "internalType": "uint256",
          "name": "preallocated",
          "type": "uint256"
        },
        {
          "internalType": "uint256",
          "name": "pricePerTokenUnit",
          "type": "uint256"
        }
      ],
      "stateMutability": "view",
      "type": "function"
    },
    {
      "inputs": [
        {
          "internalType": "uint256",
          "name": "_quarter",
          "type": "uint256"
        }
      ],
      "name": "tokenSupplyPerQuarter",
      "outputs": [
        {
          "internalType": "uint96",
          "name": "",
          "type": "uint96"
        }
      ],
      "stateMutability": "view",
      "type": "function"
    },
    {
      "inputs": [
        {
          "internalType": "address",
          "name": "newOwner",
          "type": "address"
        }
      ],
      "name": "transferOwnership",
      "outputs": [],
      "stateMutability": "nonpayable",
      "type": "function"
    },
    {
      "inputs": [
        {
          "internalType": "address",
          "name": "_garden",
          "type": "address"
        },
        {
          "internalType": "address",
          "name": "_contributor",
          "type": "address"
        },
        {
          "internalType": "uint256",
          "name": "_previousBalance",
          "type": "uint256"
        },
        {
          "internalType": "bool",
          "name": "_depositOrWithdraw",
          "type": "bool"
        },
        {
          "internalType": "uint256",
          "name": "_pid",
          "type": "uint256"
        }
      ],
      "name": "updateGardenPowerAndContributor",
      "outputs": [],
      "stateMutability": "nonpayable",
      "type": "function"
    },
    {
      "inputs": [
        {
          "internalType": "uint256",
          "name": "_capital",
          "type": "uint256"
        },
        {
          "internalType": "bool",
          "name": "_addOrSubstract",
          "type": "bool"
        }
      ],
      "name": "updateProtocolPrincipal",
      "outputs": [],
      "stateMutability": "nonpayable",
      "type": "function"
    }
  ],
  "transactionHash": "0x0fa17d3e312a06cb1f646e9a2fe2b061f8ccbba17b7dd0b11b35370deee5b7db",
  "args": [],
  "solcInputHash": "adc30126c8f3eb1cc52c1ce23a0cccb6",
  "bytecode": "0x608060405234801561001057600080fd5b50615ea180620000216000396000f3fe608060405234801561001057600080fd5b50600436106101985760003560e01c80639de9a052116100e3578063d717a5061161008c578063f2fde38b11610066578063f2fde38b14610665578063f77c47911461068b578063fd9ff86c1461069357610198565b8063d717a50614610612578063ddaa26ad14610637578063ef9f34501461063f57610198565b8063bad67dd1116100bd578063bad67dd11461053a578063cf1493871461057e578063d60913ce146105c657610198565b80639de9a052146104945780639e839e1b146104ba578063a8d9a7811461050e57610198565b8063715018a61161014557806379fc904f1161011f57806379fc904f1461044c57806380334dbe146104545780638da5cb5b1461048c57610198565b8063715018a6146103b857806373a9fd9f146103c05780637602bdde146103fe57610198565b80635668c8f0116101765780635668c8f01461027c57806356773b79146102bb57806369795e93146102df57610198565b8063070e8a4a1461019d5780632544dc18146101fb578063485cc9551461024c575b600080fd5b6101c3600480360360208110156101b357600080fd5b50356001600160a01b03166106bf565b6040518082606080838360005b838110156101e85781810151838201526020016101d0565b5050505090500191505060405180910390f35b6102186004803603602081101561021157600080fd5b503561075b565b604080519485526020850193909352838301919091526bffffffffffffffffffffffff166060830152519081900360800190f35b61027a6004803603604081101561026257600080fd5b506001600160a01b0381358116916020013516610791565b005b6102a26004803603602081101561029257600080fd5b50356001600160a01b03166109c4565b6040805192835260208301919091528051918290030190f35b6102c36109dd565b604080516001600160a01b039092168252519081900360200190f35b610368600480360360608110156102f557600080fd5b6001600160a01b03823581169260208101359091169181019060608101604082013564010000000081111561032957600080fd5b82018360208201111561033b57600080fd5b8035906020019184602083028401116401000000008311171561035d57600080fd5b5090925090506109ec565b60408051602080825283518183015283519192839290830191858101910280838360005b838110156103a457818101518382015260200161038c565b505050509050019250505060405180910390f35b61027a610ccc565b6103dd600480360360208110156103d657600080fd5b5035610d8a565b604080516bffffffffffffffffffffffff9092168252519081900360200190f35b61043a6004803603608081101561041457600080fd5b506001600160a01b03813581169160208101359091169060408101359060600135610d9b565b60408051918252519081900360200190f35b61027a610db2565b61027a6004803603608081101561046a57600080fd5b506001600160a01b038135169060208101359060408101359060600135610ed8565b6102c3610fa1565b6103dd600480360360208110156104aa57600080fd5b50356001600160a01b0316610fb0565b6104e6600480360360408110156104d057600080fd5b506001600160a01b038135169060200135611832565b6040805194855260208501939093528383019190915215156060830152519081900360800190f35b61027a6004803603604081101561052457600080fd5b506001600160a01b038135169060200135611867565b61027a600480360360a081101561055057600080fd5b506001600160a01b0381358116916020810135909116906040810135906060810135151590608001356119d8565b61059b6004803603602081101561059457600080fd5b5035611b34565b6040805195865260208601949094528484019290925260608401526080830152519081900360a00190f35b6105f4600480360360408110156105dc57600080fd5b506001600160a01b0381358116916020013516611b63565b60408051938452602084019290925282820152519081900360600190f35b61027a6004803603604081101561062857600080fd5b50803590602001351515611b8f565b61043a611e45565b61027a6004803603602081101561065557600080fd5b50356001600160a01b0316611e4b565b61027a6004803603602081101561067b57600080fd5b50356001600160a01b0316611f2d565b6102c3612042565b6105f4600480360360408110156106a957600080fd5b506001600160a01b038135169060200135612051565b6106c7615da1565b6001600160a01b03821660009081526080602052604090205460ff1615610732576001600160a01b0382166000908152607f602052604090819020815160608101928390529160039082845b8154815260200190600101908083116107135750505050509050610756565b60405180606001604052806069548152602001606a548152602001606b5481525090505b919050565b600090815260746020526040902080546001820154600283015460039093015491939092916bffffffffffffffffffffffff1690565b61079961207d565b6107af6001600160a01b0383161515601761212f565b6107c56001600160a01b0382161515601761212f565b606f80546001600160a01b038085166001600160a01b031992831617909255606e805484841692169190911790819055604080517ff142c3bc0000000000000000000000000000000000000000000000000000000081529051919092169163f142c3bc916004808301926080929190829003018186803b15801561084857600080fd5b505afa15801561085c573d6000803e3d6000fd5b505050506040513d608081101561087257600080fd5b5080516020820151604080840151606094850151606d55606855606791909155606691909155606e5481517f2e0519cf00000000000000000000000000000000000000000000000000000000815291516001600160a01b0390911692632e0519cf9260048082019391829003018186803b1580156108ef57600080fd5b505afa158015610903573d6000803e3d6000fd5b505050506040513d606081101561091957600080fd5b508051602080830151604093840151606b55606a55606991909155606e5482517f568c081300000000000000000000000000000000000000000000000000000000815292516001600160a01b039091169263568c0813926004808301939192829003018186803b15801561098c57600080fd5b505afa1580156109a0573d6000803e3d6000fd5b505050506040513d60208110156109b657600080fd5b5051606c5550506001607e55565b607d602052600090815260409020805460019091015482565b606f546001600160a01b031681565b6040805160078082526101008201909252606091600091906020820160e08036833701905050606e546040805163364d118160e01b81526001600160a01b038a811660048301529151939450610a9993919092169163364d1181916024808301926020929190829003018186803b158015610a6657600080fd5b505afa158015610a7a573d6000803e3d6000fd5b505050506040513d6020811015610a9057600080fd5b5051602361212f565b60005b83811015610cc05760408051600780825261010082019092526000916020820160e080368337019050509050610aee88878785818110610ad857fe5b905060200201356001600160a01b031689612141565b9050610b2b81600081518110610b0057fe5b602002602001015184600081518110610b1557fe5b60200260200101516126e290919063ffffffff16565b83600081518110610b3857fe5b602002602001018181525050610b6981600181518110610b5457fe5b602002602001015184600181518110610b1557fe5b83600181518110610b7657fe5b602002602001018181525050610ba781600281518110610b9257fe5b602002602001015184600281518110610b1557fe5b83600281518110610bb457fe5b602002602001018181525050610be581600381518110610bd057fe5b602002602001015184600381518110610b1557fe5b83600381518110610bf257fe5b602002602001018181525050610c2381600481518110610c0e57fe5b602002602001015184600481518110610b1557fe5b83600481518110610c3057fe5b602002602001018181525050610c6181600581518110610c4c57fe5b602002602001015184600581518110610b1557fe5b83600581518110610c6e57fe5b602002602001018181525050610c9f81600681518110610c8a57fe5b602002602001015184600681518110610b1557fe5b83600681518110610cac57fe5b602090810291909101015250600101610a9c565b5090505b949350505050565b610cd46126f2565b6001600160a01b0316610ce5610fa1565b6001600160a01b031614610d40576040805162461bcd60e51b815260206004820181905260248201527f4f776e61626c653a2063616c6c6572206973206e6f7420746865206f776e6572604482015290519081900360640190fd5b6033546040516000916001600160a01b0316907f8be0079c531659141344cd1fd0a4f28419497f9722a3daafe3b4186f6b6457e0908390a3603380546001600160a01b0319169055565b6000610d95826126f6565b92915050565b6000610da98585858561279d565b95945050505050565b606e54604080516313bc6d4b60e01b81523360048201529051610e31926001600160a01b0316916313bc6d4b916024808301926020929190829003018186803b158015610dfe57600080fd5b505afa158015610e12573d6000803e3d6000fd5b505050506040513d6020811015610e2857600080fd5b5051604861212f565b606e54610e4a906001600160a01b03163314601061212f565b606e5460408051635b14f18360e01b81523060048201529051610eca926001600160a01b031691635b14f183916024808301926020929190829003018186803b158015610e9657600080fd5b505afa158015610eaa573d6000803e3d6000fd5b505050506040513d6020811015610ec057600080fd5b505115605361212f565b606554610ed657426065555b565b606e54604080516313bc6d4b60e01b81523360048201529051610f24926001600160a01b0316916313bc6d4b916024808301926020929190829003018186803b158015610dfe57600080fd5b606e54610f3d906001600160a01b03163314601061212f565b606e546040805163364d118160e01b81526001600160a01b0387811660048301529151610f8f93929092169163364d118191602480820192602092909190829003018186803b158015610a6657600080fd5b610f9b84848484612c66565b50505050565b6033546001600160a01b031690565b604080516003808252608082019092526000918391839160208201606080368337019050509050816001600160a01b031663bf1dcfe26040518163ffffffff1660e01b815260040160e06040518083038186803b15801561101057600080fd5b505afa158015611024573d6000803e3d6000fd5b505050506040513d60e081101561103a57600080fd5b50608081015160a082015160c0909201518351919291849060009061105b57fe5b602002602001018460018151811061106f57fe5b602002602001018560028151811061108357fe5b602002602001018381525083815250838152505050506110bc816001815181106110a957fe5b602002602001015160001415603161212f565b606e54604080517f2630c12f00000000000000000000000000000000000000000000000000000000815290516000926001600160a01b031691632630c12f916004808301926020929190829003018186803b15801561111a57600080fd5b505afa15801561112e573d6000803e3d6000fd5b505050506040513d602081101561114457600080fd5b505160408051630ad7511760e31b81529051919250600091611331916001600160a01b038086169263ac41865a92918916916356ba88b8916004808301926020929190829003018186803b15801561119b57600080fd5b505afa1580156111af573d6000803e3d6000fd5b505050506040513d60208110156111c557600080fd5b505160408051631f0b96b960e31b815290516001600160a01b039092169163f85cb5c891600480820192602092909190829003018186803b15801561120957600080fd5b505afa15801561121d573d6000803e3d6000fd5b505050506040513d602081101561123357600080fd5b5051604080516001600160e01b031960e085901b1681526001600160a01b039092166004830152736b175474e89094c44da98b954eedeac495271d0f6024830152516044808301926020929190829003018186803b15801561129457600080fd5b505afa1580156112a8573d6000803e3d6000fd5b505050506040513d60208110156112be57600080fd5b50516040805162f376cb60e21b815290516001600160a01b038816916303cddb2c916004808301926020929190829003018186803b1580156112ff57600080fd5b505afa158015611313573d6000803e3d6000fd5b505050506040513d602081101561132957600080fd5b505190612cec565b905060006114e4836001600160a01b031663ac41865a876001600160a01b03166356ba88b86040518163ffffffff1660e01b815260040160206040518083038186803b15801561138057600080fd5b505afa158015611394573d6000803e3d6000fd5b505050506040513d60208110156113aa57600080fd5b505160408051631f0b96b960e31b815290516001600160a01b039092169163f85cb5c891600480820192602092909190829003018186803b1580156113ee57600080fd5b505afa158015611402573d6000803e3d6000fd5b505050506040513d602081101561141857600080fd5b5051604080516001600160e01b031960e085901b1681526001600160a01b039092166004830152736b175474e89094c44da98b954eedeac495271d0f6024830152516044808301926020929190829003018186803b15801561147957600080fd5b505afa15801561148d573d6000803e3d6000fd5b505050506040513d60208110156114a357600080fd5b5051604080516272edc760e31b815290516001600160a01b038916916303976e38916004808301926020929190829003018186803b1580156112ff57600080fd5b9050606554856001600160a01b0316636db9cc996040518163ffffffff1660e01b815260040160206040518083038186803b15801561152257600080fd5b505afa158015611536573d6000803e3d6000fd5b505050506040513d602081101561154c57600080fd5b50511080159061155d575060655415155b15611824576000856001600160a01b0316636db40dc26040518163ffffffff1660e01b815260040160206040518083038186803b15801561159d57600080fd5b505afa1580156115b1573d6000803e3d6000fd5b505050506040513d60208110156115c757600080fd5b50519050801561161057611603816040518060400160405280601081526020016f6f766572666c6f77203936206269747360801b815250612d0a565b9650505050505050610756565b6000806116458760008151811061162357fe5b60200260200101518860018151811061163857fe5b6020026020010151612dad565b9092509050670de0b6b3a764000060005b838110156117ab57600061168361167a6276a70061167487866126e2565b90612e95565b606554906126e2565b6001600160a01b038e166000908152607c6020526040812091925090816116aa87866126e2565b81526020019081526020016000206002015490506000607460006116d786896126e290919063ffffffff16565b81526020019081526020016000206002015490506116f981831115604761212f565b866117058560016126e2565b14156117455761174261172561171e856276a700612eb9565b8590612eb9565b61173c611735866276a700612eb9565b4290612eb9565b90612ec9565b94505b600061178d8661178760748461175b8c8b6126e2565b81526020810191909152604001600020600301546bffffffffffffffffffffffff166117878787612ec9565b90612cec565b905061179989826126e2565b98505060019093019250611656915050565b5060006117b88688612ec9565b9050671bc16d674ec800008111156117d55750671bc16d674ec800005b6117df8582612cec565b9450611813856040518060400160405280601081526020016f6f766572666c6f77203936206269747360801b815250612d0a565b9a5050505050505050505050610756565b600095505050505050610756565b607c60209081526000928352604080842090915290825290208054600182015460028301546003909301549192909160ff1684565b6118786002607e541415605461212f565b6002607e55606e546040805163184a263160e11b815290516118f6926001600160a01b0316916330944c62916004808301926020929190829003018186803b1580156118c357600080fd5b505afa1580156118d7573d6000803e3d6000fd5b505050506040513d60208110156118ed57600080fd5b5051604561212f565b606e5460408051635b14f18360e01b81523060048201529051611942926001600160a01b031691635b14f183916024808301926020929190829003018186803b158015610e9657600080fd5b606e54604080516313bc6d4b60e01b8152336004820152905161198e926001600160a01b0316916313bc6d4b916024808301926020929190829003018186803b158015610dfe57600080fd5b60006119c2826040518060400160405280601081526020016f6f766572666c6f77203936206269747360801b815250612d0a565b90506119ce8382612ee1565b50506001607e5550565b6119e96002607e541415605461212f565b6002607e55848180151580611a1657506001600160a01b0382166000908152607b60205260409020546001105b15611abf57606e54604080516313bc6d4b60e01b81526001600160a01b0385811660048301529151611a6d9392909216916313bc6d4b91602480820192602092909190829003018186803b158015610dfe57600080fd5b606e546040805163364d118160e01b81526001600160a01b0385811660048301529151611abf93929092169163364d118191602480820192602092909190829003018186803b158015610a6657600080fd5b611ad5336001600160a01b03841614602361212f565b611b11826001600160a01b03166302fb0c5e6040518163ffffffff1660e01b815260040160206040518083038186803b158015610a6657600080fd5b611b1a87612ff7565b611b268787878761319f565b50506001607e555050505050565b600090815260716020526040902080546001820154600283015460038401546004909401549294919390929091565b607760209081526000928352604080842090915290825290208054600182015460039092015490919083565b606e5460408051630ad7511760e31b81529051611c81926001600160a01b0316916313bc6d4b9133916356ba88b8916004808301926020929190829003018186803b158015611bdd57600080fd5b505afa158015611bf1573d6000803e3d6000fd5b505050506040513d6020811015611c0757600080fd5b5051604080516001600160e01b031960e085901b1681526001600160a01b039092166004830152516024808301926020929190829003018186803b158015611c4e57600080fd5b505afa158015611c62573d6000803e3d6000fd5b505050506040513d6020811015611c7857600080fd5b5051601461212f565b611d7d336001600160a01b03166356ba88b86040518163ffffffff1660e01b815260040160206040518083038186803b158015611cbd57600080fd5b505afa158015611cd1573d6000803e3d6000fd5b505050506040513d6020811015611ce757600080fd5b5051604080517f06061dfa00000000000000000000000000000000000000000000000000000000815233600482015290516001600160a01b03909216916306061dfa91602480820192602092909190829003018186803b158015611d4a57600080fd5b505afa158015611d5e573d6000803e3d6000fd5b505050506040513d6020811015611d7457600080fd5b5051604961212f565b606e546040805163184a263160e11b81529051611dc3926001600160a01b0316916330944c62916004808301926020929190829003018186803b1580156118c357600080fd5b6000339050606554816001600160a01b0316636db9cc996040518163ffffffff1660e01b815260040160206040518083038186803b158015611e0457600080fd5b505afa158015611e18573d6000803e3d6000fd5b505050506040513d6020811015611e2e57600080fd5b505110611e4057611e40818484613325565b505050565b60655481565b611e536126f2565b6001600160a01b0316611e64610fa1565b6001600160a01b031614611ebf576040805162461bcd60e51b815260206004820181905260248201527f4f776e61626c653a2063616c6c6572206973206e6f7420746865206f776e6572604482015290519081900360640190fd5b606e5460408051635b14f18360e01b81523060048201529051611f0b926001600160a01b031691635b14f183916024808301926020929190829003018186803b158015610e9657600080fd5b606f80546001600160a01b0319166001600160a01b0392909216919091179055565b611f356126f2565b6001600160a01b0316611f46610fa1565b6001600160a01b031614611fa1576040805162461bcd60e51b815260206004820181905260248201527f4f776e61626c653a2063616c6c6572206973206e6f7420746865206f776e6572604482015290519081900360640190fd5b6001600160a01b038116611fe65760405162461bcd60e51b8152600401808060200182810382526026815260200180615dee6026913960400191505060405180910390fd5b6033546040516001600160a01b038084169216907f8be0079c531659141344cd1fd0a4f28419497f9722a3daafe3b4186f6b6457e090600090a3603380546001600160a01b0319166001600160a01b0392909216919091179055565b606e546001600160a01b031681565b607960209081526000928352604080842090915290825290208054600182015460029092015490919083565b600054610100900460ff16806120965750612096613577565b806120a4575060005460ff16155b6120df5760405162461bcd60e51b815260040180806020018281038252602e815260200180615e14602e913960400191505060405180910390fd5b600054610100900460ff1615801561210a576000805460ff1961ff0019909116610100171660011790555b612112613588565b61211a613628565b801561212c576000805461ff00191690555b50565b8161213d5761213d81613721565b5050565b606060008390506121cb856001600160a01b0316826001600160a01b03166356ba88b86040518163ffffffff1660e01b815260040160206040518083038186803b15801561218e57600080fd5b505afa1580156121a2573d6000803e3d6000fd5b505050506040513d60208110156121b857600080fd5b50516001600160a01b031614604961212f565b61221b856001600160a01b03166306061dfa866040518263ffffffff1660e01b815260040180826001600160a01b0316815260200191505060206040518083038186803b158015611d4a57600080fd5b6040805160038082526080820190925260009160208201606080368337019050509050816001600160a01b031663bf1dcfe26040518163ffffffff1660e01b815260040160e06040518083038186803b15801561227757600080fd5b505afa15801561228b573d6000803e3d6000fd5b505050506040513d60e08110156122a157600080fd5b50608081015160a082015160c090920151835191929184906000906122c257fe5b60200260200101846001815181106122d657fe5b60200260200101856002815181106122ea57fe5b602090810291909101019290925291905252604080516007808252610100820190925260009181602001602082028036833701905050905060008060008060008061233489613774565b93509350935093506000808e6001600160a01b0316633d8270f58e6040518263ffffffff1660e01b815260040180826001600160a01b031681526020019150506101406040518083038186803b15801561238d57600080fd5b505afa1580156123a1573d6000803e3d6000fd5b505050506040513d6101408110156123b857600080fd5b5060208101516040909101518b51919350915081908b9060019081106123da57fe5b60200260200101511180156124035750818a6000815181106123f857fe5b602002602001015110155b801561248457508e6001600160a01b03168b6001600160a01b03166356ba88b86040518163ffffffff1660e01b815260040160206040518083038186803b15801561244d57600080fd5b505afa158015612461573d6000803e3d6000fd5b505050506040513d602081101561247757600080fd5b50516001600160a01b0316145b156126cd57600186151514156124b6576124b36124ac606c54876139c090919063ffffffff16565b8690612eb9565b94505b6124c48e8e888888886139e4565b896000815181106124d157fe5b602002602001018181525050612504896000815181106124ed57fe5b6020026020010151886126e290919063ffffffff16565b96506125138f8f8f8989613d09565b8960018151811061252057fe5b6020026020010181815250506125538960018151811061253c57fe5b6020026020010151896126e290919063ffffffff16565b97506125638e8e88888888613e05565b8960028151811061257057fe5b60200260200101818152505061258c896002815181106124ed57fe5b965061259d8f8f8f898989896141f3565b896003815181106125aa57fe5b6020026020010181815250506125c68960038151811061253c57fe5b97506125d38f8f8f614427565b896004815181106125e057fe5b6020026020010181815250506125fc896004815181106124ed57fe5b96508e6001600160a01b03166302d05d3f6040518163ffffffff1660e01b815260040160206040518083038186803b15801561263757600080fd5b505afa15801561264b573d6000803e3d6000fd5b505050506040513d602081101561266157600080fd5b50516001600160a01b038e8116911614156126985761269561268e606d54896139c090919063ffffffff16565b88906126e2565b96505b86896005815181106126a657fe5b60200260200101818152505087896006815181106126c057fe5b6020026020010181815250505b509699505050505050505050505b9392505050565b80820182811015610d9557600080fd5b3390565b60006127076001831015604a61212f565b610201821061271857506000610756565b6000612748612728846001612eb9565b6127426701aa535d3d0c000061273c6146dd565b906126e2565b906146e9565b90506000612760690b581ceb141f05c1ae0083612ec9565b9050612794816040518060400160405280601081526020016f6f766572666c6f77203936206269747360801b815250612d0a565b92505050610756565b600061281d856001600160a01b031663cb12233b6040518163ffffffff1660e01b815260040160206040518083038186803b1580156127db57600080fd5b505afa1580156127ef573d6000803e3d6000fd5b505050506040513d602081101561280557600080fd5b505183108015906128165750838310155b604161212f565b6001600160a01b038086166000818152607760209081526040808320948916808452948252808320938352607882528083209483529381529083902083516080810185528154815260018083015493820193909352600282015494810194909452600301546060840152810154909190158061289c5750838260010154115b156128ac57600092505050610cc4565b866001600160a01b031663cb12233b6040518163ffffffff1660e01b815260040160206040518083038186803b1580156128e557600080fd5b505afa1580156128f9573d6000803e3d6000fd5b505050506040513d602081101561290f57600080fd5b5051851161297f57866001600160a01b031663cb12233b6040518163ffffffff1660e01b815260040160206040518083038186803b15801561295057600080fd5b505afa158015612964573d6000803e3d6000fd5b505050506040513d602081101561297a57600080fd5b505194505b61298b8787878761472a565b6020830152815261299d87868661484f565b60608301526040820152602081015181516129cf91108015906129c857508160600151826040015111155b605161212f565b60008082600001518710156129e75760009150612a54565b8251871115612a3b57825160009081526004850160205260409020548351612a3491612a1891611674908b90612eb9565b84516000908152600487016020526040902060030154906126e2565b9150612a54565b8251600090815260048501602052604090206003015491505b6001600160a01b0389166000908152607960209081526040808320868201805185529252909120549051612ac191612a9191611674908b90612eb9565b6001600160a01b038b166000908152607960209081526040808320888201518452909152902060020154906126e2565b9050612ad181831115605061212f565b85871415612b005780612aeb576000945050505050610cc4565b612af58282612ec9565b945050505050610cc4565b8260200151861015612b19576000945050505050610cc4565b826020015186148015612b30575060208301518351145b15612bc0576001600160a01b038916600090815260796020908152604080832060608701805185529252909120549051612bb0918391612baa91612b7991611674908c90612eb9565b6001600160a01b038d16600090815260796020908152604080832060608b01518452909152902060020154906126e2565b90612eb9565b9050612aeb81831115605061212f565b612c1e82612baa612bfe876004016000886020015181526020019081526020016000206000015461167488602001518c612eb990919063ffffffff16565b602080880151600090815260048a019091526040902060030154906126e2565b6001600160a01b038a16600090815260796020908152604080832060608801805185529252909120549051919350612bb0918391612baa91612b799190611674908c90612eb9565b612c88612c778261273c86866126e2565b670d2f13f7789f000014605c61212f565b60695483141580612c9b5750606a548214155b80612ca85750606b548114155b15610f9b576001600160a01b03939093166000908152608060209081526040808320805460ff19166001908117909155607f90925290912092835582015560020155565b60006126db670de0b6b3a7640000612d048585612e95565b90614967565b6000816c010000000000000000000000008410612da55760405162461bcd60e51b81526004018080602001828103825283818151815260200191508051906020019080838360005b83811015612d6a578181015183820152602001612d52565b50505050905090810190601f168015612d975780820380516001836020036101000a031916815260200191505b509250505060405180910390fd5b509192915050565b60008080612dd4670de0b6b3a7640000612d046276a700612dce888a612eb9565b906149c6565b90506000612e00670de0b6b3a7640000612d046276a700612dce6065548b612eb990919063ffffffff16565b90506000612e2c670de0b6b3a7640000612d046276a700612dce6065548b612eb990919063ffffffff16565b9050808214158015612e475750612e448260016126e2565b81145b8015612e5e57506276a700612e5c8789612eb9565b105b15612e7157612e6e8360016126e2565b92505b612e7c8360016126e2565b612e878360016126e2565b945094505050509250929050565b6000821580612eb057505081810281838281612ead57fe5b04145b610d9557600080fd5b80820382811115610d9557600080fd5b60006126db82612d0485670de0b6b3a7640000612e95565b606e546040805163184a263160e11b81529051612f27926001600160a01b0316916330944c62916004808301926020929190829003018186803b1580156118c357600080fd5b606f54604080516370a0823160e01b815230600482015290516000926001600160a01b0316916370a08231916024808301926020929190829003018186803b158015612f7257600080fd5b505afa158015612f86573d6000803e3d6000fd5b505050506040513d6020811015612f9c57600080fd5b505190506bffffffffffffffffffffffff8216811015612fd257606f54612fcd906001600160a01b03168483614a48565b611e40565b606f54611e40906001600160a01b0316846bffffffffffffffffffffffff8516614a48565b6001600160a01b038116600081815260796020908152604080832042845282529182902082517f18160ddd00000000000000000000000000000000000000000000000000000000815292518594919391926318160ddd9260048082019391829003018186803b15801561306957600080fd5b505afa15801561307d573d6000803e3d6000fd5b505050506040513d602081101561309357600080fd5b505181554260018201556001600160a01b0383166000908152607b60205260409020546130c6576000600282015561315d565b6001600160a01b0382166000908152607960209081526040808320607a8352818420607b9093529083205490918391613100906001612eb9565b8154811061310a57fe5b90600052602060002001548152602001908152602001600020905061315661314b826000015461167484600101548660010154612eb990919063ffffffff16565b6002830154906126e2565b6002830155505b506001600160a01b03166000818152607a6020908152604080832080546001818101835591855283852042910155938352607b90915290208054909101905550565b6001600160a01b038085166000818152607760209081526040808320948816808452948252808320428452600480820184529382902082516370a0823160e01b8152948501969096529051909493926370a08231926024808301939192829003018186803b15801561321057600080fd5b505afa158015613224573d6000803e3d6000fd5b505050506040513d602081101561323a57600080fd5b5051815542600182015560038201546002820181905561326057600060038201556132a9565b815460008181526004840160205260409020546132a3916132879190611674904290612eb9565b83546000908152600485016020526040902060030154906126e2565b60038201555b600183151514156132d7578315806132c357506001820154155b156132cf574260018301555b4282556132f7565b80546132f7576000808355600183018190556132f7906002840190615dbf565b5060028101805460018181018355600092835260209092204291015560039091018054909101905550505050565b6000613332848484614ac8565b905061342e846001600160a01b03166356ba88b86040518163ffffffff1660e01b815260040160206040518083038186803b15801561337057600080fd5b505afa158015613384573d6000803e3d6000fd5b505050506040513d602081101561339a57600080fd5b505160408051631f0b96b960e31b815290516001600160a01b039092169163f85cb5c891600480820192602092909190829003018186803b1580156133de57600080fd5b505afa1580156133f2573d6000803e3d6000fd5b505050506040513d602081101561340857600080fd5b5051736b175474e89094c44da98b954eedeac495271d0f6134298685612cec565b614e1a565b4260009081526071602052604090209093508261345a576070546134529085612eb9565b60705561346b565b60705461346790856126e2565b6070555b6070548155426001820181905561348190614fd1565b6002820155607354600382018190556134a0576000600482015561351b565b60006071600060726134be6001607354612eb990919063ffffffff16565b815481106134c857fe5b906000526020600020015481526020019081526020016000209050613514613509826000015461167484600101548660010154612eb990919063ffffffff16565b6004830154906126e2565b6004830155505b60728054600181018255600091909152427fdffbd64cc7c1a7eb27984335d9416d51137a03d3fabec7141025c62663253fe190910181905561355c90615009565b61356785858561569c565b5050607380546001019055505050565b600061358230615b22565b15905090565b600054610100900460ff16806135a157506135a1613577565b806135af575060005460ff16155b6135ea5760405162461bcd60e51b815260040180806020018281038252602e815260200180615e14602e913960400191505060405180910390fd5b600054610100900460ff1615801561211a576000805460ff1961ff001990911661010017166001179055801561212c576000805461ff001916905550565b600054610100900460ff16806136415750613641613577565b8061364f575060005460ff16155b61368a5760405162461bcd60e51b815260040180806020018281038252602e815260200180615e14602e913960400191505060405180910390fd5b600054610100900460ff161580156136b5576000805460ff1961ff0019909116610100171660011790555b60006136bf6126f2565b603380546001600160a01b0319166001600160a01b038316908117909155604051919250906000907f8be0079c531659141344cd1fd0a4f28419497f9722a3daafe3b4186f6b6457e0908290a350801561212c576000805461ff001916905550565b62461bcd60e51b6000908152602060045260076024526642414223000030600a808404818106603090810160081b95839006959095019082900491820690940160101b939093010160c81b604452606490fd5b60008060008060008590506000816001600160a01b03166303976e386040518163ffffffff1660e01b815260040160206040518083038186803b1580156137ba57600080fd5b505afa1580156137ce573d6000803e3d6000fd5b505050506040513d60208110156137e457600080fd5b50516040805163d3406abd60e01b8152905191925060009161389f91613834916001600160a01b0387169163d3406abd916004808301926020929190829003018186803b15801561129457600080fd5b846001600160a01b03166303cddb2c6040518163ffffffff1660e01b815260040160206040518083038186803b15801561386d57600080fd5b505afa158015613881573d6000803e3d6000fd5b505050506040513d602081101561389757600080fd5b5051906126e2565b90506000836001600160a01b03166303cddb2c6040518163ffffffff1660e01b815260040160206040518083038186803b1580156138dc57600080fd5b505afa1580156138f0573d6000803e3d6000fd5b505050506040513d602081101561390657600080fd5b505190506000808080848711801561391e5750858710155b1561394757600193508392506139348786612eb9565b91506139408787612eb9565b90506139ac565b84871015801561395657508587105b1561397957600193506000925061396d8786612eb9565b91506139408688612eb9565b848710801561398757508587105b156139ac576000935083925061399d8588612eb9565b91506139a98688612eb9565b90505b929a50985096509450505050509193509193565b6000670de0b6b3a76400006139d58484612e95565b816139dc57fe5b049392505050565b6000808790506000816001600160a01b0316636db40dc26040518163ffffffff1660e01b815260040160206040518083038186803b158015613a2557600080fd5b505afa158015613a39573d6000803e3d6000fd5b505050506040513d6020811015613a4f57600080fd5b50516040805162f376cb60e21b8152905191925060009182916001600160a01b038616916303cddb2c91600480820192602092909190829003018186803b158015613a9957600080fd5b505afa158015613aad573d6000803e3d6000fd5b505050506040513d6020811015613ac357600080fd5b5051604080516272edc760e31b815290519192506000916001600160a01b038716916303976e38916004808301926020929190829003018186803b158015613b0a57600080fd5b505afa158015613b1e573d6000803e3d6000fd5b505050506040513d6020811015613b3457600080fd5b50516040805163d3406abd60e01b815290519192506000918291613bc191613bba916001600160a01b038b169163d3406abd91600480820192602092909190829003018186803b158015613b8757600080fd5b505afa158015613b9b573d6000803e3d6000fd5b505050506040513d6020811015613bb157600080fd5b50518690612cec565b85906126e2565b90508c6001600160a01b0316876001600160a01b0316631fe4a6866040518163ffffffff1660e01b815260040160206040518083038186803b158015613c0657600080fd5b505afa158015613c1a573d6000803e3d6000fd5b505050506040513d6020811015613c3057600080fd5b50516001600160a01b03161415613ce557606654613c4f9087906139c0565b945060018c1515148015613c65575060018a1515145b15613ca857613c75856002612e95565b9150613c95613c8e613c878386612ec9565b8790612cec565b86906126e2565b945081851115613ca3578194505b613cf5565b60018c1515148015613cb8575089155b15613ce557613cde6124ac613cd7613cd08685612ec9565b8890612cec565b8790612eb9565b9450613cf5565b6000975050505050505050613cff565b5092955050505050505b9695505050505050565b60008460018415151415613df157846001600160a01b0316816001600160a01b0316631fe4a6866040518163ffffffff1660e01b815260040160206040518083038186803b158015613d5a57600080fd5b505afa158015613d6e573d6000803e3d6000fd5b505050506040513d6020811015613d8457600080fd5b50516001600160a01b03161415613dec576001600160a01b03871660009081526080602052604081205460ff16613dbd57606954613dd7565b6001600160a01b0388166000908152607f60205260409020545b9050613de384826139c0565b92505050610da9565b613dfb565b6000915050610da9565b5095945050505050565b6000808790506000816001600160a01b0316636db40dc26040518163ffffffff1660e01b815260040160206040518083038186803b158015613e4657600080fd5b505afa158015613e5a573d6000803e3d6000fd5b505050506040513d6020811015613e7057600080fd5b5051604080517f950c78220000000000000000000000000000000000000000000000000000000081526001600160a01b038b8116600483015291519293506000929185169163950c782291602480820192602092909190829003018186803b158015613edb57600080fd5b505afa158015613eef573d6000803e3d6000fd5b505050506040513d6020811015613f0557600080fd5b50516040805162f376cb60e21b815290519192506000916001600160a01b038616916303cddb2c916004808301926020929190829003018186803b158015613f4c57600080fd5b505afa158015613f60573d6000803e3d6000fd5b505050506040513d6020811015613f7657600080fd5b5051604080517fd40244cb00000000000000000000000000000000000000000000000000000000815290519192506000916001600160a01b0387169163d40244cb916004808301926020929190829003018186803b158015613fd757600080fd5b505afa158015613feb573d6000803e3d6000fd5b505050506040513d602081101561400157600080fd5b50516040805163d3406abd60e01b81529051919250600091829161405491613bba916001600160a01b038b169163d3406abd91600480820192602092909190829003018186803b158015613b8757600080fd5b905060008086138015614069575060018d1515145b8015614077575060018b1515145b1561409e576140976140898786612ec9565b606754611787908a906139c0565b90506141e1565b6000861380156140b0575060018d1515145b80156140ba57508a155b156140ec576140cc6140898786612ec9565b90506140976140e56140de8c85612ec9565b8390612cec565b8290612eb9565b6000861380156140fa57508c155b15614107575060006141e1565b60008612801561411557508a155b156141c65761418e614089896001600160a01b031663449b98266040518163ffffffff1660e01b815260040160206040518083038186803b15801561415957600080fd5b505afa15801561416d573d6000803e3d6000fd5b505050506040513d602081101561418357600080fd5b505161173c89615b28565b905061419b816002612e95565b92506141b46141ad6140de8c85612ec9565b82906126e2565b9050828111156141c15750815b6141e1565b6000861280156141d8575060018b1515145b156141e1575060005b9e9d5050505050505050505050505050565b6000808790506000816001600160a01b031663950c7822896040518263ffffffff1660e01b815260040180826001600160a01b0316815260200191505060206040518083038186803b15801561424857600080fd5b505afa15801561425c573d6000803e3d6000fd5b505050506040513d602081101561427257600080fd5b50516001600160a01b038b166000908152608060205260408120549192509060ff166142a057606a546142bd565b6001600160a01b038b166000908152607f60205260409020600101545b90506001881515141561440c57600082131561435357614349836001600160a01b031663d40244cb6040518163ffffffff1660e01b815260040160206040518083038186803b15801561430f57600080fd5b505afa158015614323573d6000803e3d6000fd5b505050506040513d602081101561433957600080fd5b505161173c846117878b866139c0565b935050505061441c565b600082128015614361575085155b156143e457614349836001600160a01b031663449b98266040518163ffffffff1660e01b815260040160206040518083038186803b1580156143a257600080fd5b505afa1580156143b6573d6000803e3d6000fd5b505050506040513d60208110156143cc57600080fd5b505161173c6143da85615b28565b6117878b866139c0565b6000821280156143f657506001861515145b15614407576000935050505061441c565b614418565b6000935050505061441c565b5050505b979650505050505050565b6000808390506000816001600160a01b0316636db40dc26040518163ffffffff1660e01b815260040160206040518083038186803b15801561446857600080fd5b505afa15801561447c573d6000803e3d6000fd5b505050506040513d602081101561449257600080fd5b505160408051631f0b96b960e31b815290519192506000918291614593916001600160a01b038b169163f85cb5c8916004808301926020929190829003018186803b1580156144e057600080fd5b505afa1580156144f4573d6000803e3d6000fd5b505050506040513d602081101561450a57600080fd5b50516040805162f376cb60e21b81529051736b175474e89094c44da98b954eedeac495271d0f916001600160a01b038916916303cddb2c91600480820192602092909190829003018186803b15801561456257600080fd5b505afa158015614576573d6000803e3d6000fd5b505050506040513d602081101561458c57600080fd5b5051614e1a565b604080516003808252608082019092529192506000919060208201606080368337019050509050846001600160a01b031663bf1dcfe26040518163ffffffff1660e01b815260040160e06040518083038186803b1580156145f357600080fd5b505afa158015614607573d6000803e3d6000fd5b505050506040513d60e081101561461d57600080fd5b50608081015160a082015160c0909201518351919291849060009061463e57fe5b602002602001018460018151811061465257fe5b602002602001018560028151811061466657fe5b6020026020010183815250838152508381525050505060006146b28a898460008151811061469057fe5b6020026020010151856001815181106146a557fe5b602002602001015161279d565b90506146cf6146c18285612ec9565b6068546117879088906139c0565b9a9950505050505050505050565b670de0b6b3a764000090565b6000806146f46146dd565b90505b82156126db5760028306156147135761471081856139c0565b90505b61471d84806139c0565b93506002830492506146f7565b6001600160a01b03808516600090815260776020908152604080832093871683529290529081206002810180548392918391614767906001612eb9565b8154811061477157fe5b9060005260206000200154905060008260020160008154811061479057fe5b90600052602060002001549050858211806147aa57508681105b156148425760005b600284015481101561484057868460020182815481106147ce57fe5b9060005260206000200154116147fb578360020181815481106147ed57fe5b906000526020600020015492505b8784600201828154811061480b57fe5b9060005260206000200154116148385783600201818154811061482a57fe5b906000526020600020015491505b6001016147b2565b505b9890975095505050505050565b6001600160a01b0383166000908152607a602052604081205481908190614877906001612eb9565b6001600160a01b0387166000908152607a6020526040812080549293509091839081106148a057fe5b906000526020600020015490506000607a6000896001600160a01b03166001600160a01b031681526020019081526020016000206000815481106148e057fe5b90600052602060002001549050858211806148fa57508681105b1561495b5760005b838111614959576001600160a01b0389166000908152607a6020526040812080548390811061492d57fe5b90600052602060002001549050878111614945578093505b888111614950578092505b50600101614902565b505b97909650945050505050565b60008082116149bd576040805162461bcd60e51b815260206004820152601a60248201527f536166654d6174683a206469766973696f6e206279207a65726f000000000000604482015290519081900360640190fd5b8183816139dc57fe5b600081614a1a576040805162461bcd60e51b815260206004820152601060248201527f43616e7420646976696465206279203000000000000000000000000000000000604482015290519081900360640190fd5b60008311614a295760006126db565b6126db600161273c84612d0483612baa89670de0b6b3a7640000612e95565b604080516001600160a01b038416602482015260448082018490528251808303909101815260649091019091526020810180517bffffffffffffffffffffffffffffffffffffffffffffffffffffffff167fa9059cbb00000000000000000000000000000000000000000000000000000000179052611e40908490615b3f565b600080606e60009054906101000a90046001600160a01b03166001600160a01b0316632630c12f6040518163ffffffff1660e01b815260040160206040518083038186803b158015614b1957600080fd5b505afa158015614b2d573d6000803e3d6000fd5b505050506040513d6020811015614b4357600080fd5b505160408051630ad7511760e31b815290519192506000916001600160a01b038085169263ac41865a92918a16916356ba88b891600480820192602092909190829003018186803b158015614b9757600080fd5b505afa158015614bab573d6000803e3d6000fd5b505050506040513d6020811015614bc157600080fd5b505160408051631f0b96b960e31b815290516001600160a01b039092169163f85cb5c891600480820192602092909190829003018186803b158015614c0557600080fd5b505afa158015614c19573d6000803e3d6000fd5b505050506040513d6020811015614c2f57600080fd5b5051604080516001600160e01b031960e085901b1681526001600160a01b039092166004830152736b175474e89094c44da98b954eedeac495271d0f6024830152516044808301926020929190829003018186803b158015614c9057600080fd5b505afa158015614ca4573d6000803e3d6000fd5b505050506040513d6020811015614cba57600080fd5b50516001600160a01b0387166000908152607d6020526040902054909150614d06576001600160a01b0386166000908152607d6020526040902085815560010181905591506126db9050565b8315614db9576001600160a01b0386166000908152607d6020526040902054614d7090670de0b6b3a764000090612d0490614d4190896126e2565b61173c614d4e8a87612e95565b6001600160a01b038c166000908152607d6020526040902060010154906126e2565b6001600160a01b0387166000908152607d60205260409020600181019190915554614d9b90866126e2565b6001600160a01b0387166000908152607d6020526040902055614df6565b6001600160a01b0386166000908152607d6020526040902054614ddc9086612eb9565b6001600160a01b0387166000908152607d60205260409020555b5050506001600160a01b0383166000908152607d60205260409020600101546126db565b600080614e2685615bf0565b614e9457846001600160a01b031663313ce5676040518163ffffffff1660e01b815260040160206040518083038186803b158015614e6357600080fd5b505afa158015614e77573d6000803e3d6000fd5b505050506040513d6020811015614e8d57600080fd5b5051614e97565b60125b60ff1690506000614ea785615bf0565b614f1557846001600160a01b031663313ce5676040518163ffffffff1660e01b815260040160206040518083038186803b158015614ee457600080fd5b505afa158015614ef8573d6000803e3d6000fd5b505050506040513d6020811015614f0e57600080fd5b5051614f18565b60125b60ff16905060128211158015614f2f575060128111155b614f80576040805162461bcd60e51b815260206004820152601460248201527f556e737570706f7274656420646563696d616c73000000000000000000000000604482015290519081900360640190fd5b80821415614f925783925050506126db565b81811115614fba57614fb1614fa78284612eb9565b8590600a0a612e95565b925050506126db565b613cff614fc78383612eb9565b8590600a0a614967565b600080614ffc670de0b6b3a7640000612d046276a700612dce60655488612eb990919063ffffffff16565b90506126db8160016126e2565b606e546040805163184a263160e11b8152905161504f926001600160a01b0316916330944c62916004808301926020929190829003018186803b1580156118c357600080fd5b600061505a82614fd1565b6000818152607460205260408120919250607590615079846001612eb9565b815260208101919091526040016000205460ff1661561f57600181018290556073546150e057600060028201556150af826126f6565b6003820180546bffffffffffffffffffffffff19166bffffffffffffffffffffffff929092169190911790556155eb565b6073546000906150f1906001612eb9565b9050600061514b607160006072858154811061510957fe5b90600052602060002001548152602001908152602001600020600401546071600088815260200190815260200160002060040154612eb990919063ffffffff16565b9050615158846001612eb9565b607160006072858154811061516957fe5b9060005260206000200154815260200190815260200160002060020154141561529c576151f76151cf60716000607286815481106151a357fe5b906000526020600020015481526020019081526020016000206001015487612eb990919063ffffffff16565b612d046151f06151e961167a6276a700612baa8b82612e95565b8990612eb9565b8490612e95565b6002840155615205846126f6565b6003840180546bffffffffffffffffffffffff19166bffffffffffffffffffffffff92909216919091179055600283015461527490615245908390612eb9565b60746000615254886001612eb9565b8152602001908152602001600020600201546126e290919063ffffffff16565b60746000615283876001612eb9565b81526020810191909152604001600020600201556155e8565b60005b6152df60716000607286815481106152b357fe5b906000526020600020015481526020019081526020016000206002015486612eb990919063ffffffff16565b81116155e65760006074600061532b846071600060728a8154811061530057fe5b90600052602060002001548152602001908152602001600020600201546126e290919063ffffffff16565b81526020019081526020016000209050600061535c61167a6276a700611674866071600060728c8154811061530057fe5b90508261543a576153fe6153f36153a96071600060728a8154811061537d57fe5b90600052602060002001548152602001908152602001600020600101548b612eb990919063ffffffff16565b612d046153ec6071600060728c815481106153c057fe5b906000526020600020015481526020019081526020016000206001015486612eb990919063ffffffff16565b8890612e95565b6002840154906126e2565b8260020181905550607160006072878154811061541757fe5b6000918252602080832090910154835282019290925260400190205482556155dc565b61547a607160006072888154811061544e57fe5b906000526020600020015481526020019081526020016000206002015488612eb990919063ffffffff16565b831015615556576154d16154c4607160006072898154811061549857fe5b90600052602060002001548152602001908152602001600020600101548a612eb990919063ffffffff16565b612d04866276a700612e95565b82600201819055506154f66154f1846071600060728a8154811061530057fe5b6126f6565b8260030160006101000a8154816bffffffffffffffffffffffff02191690836bffffffffffffffffffffffff16021790555061553d83607160006072898154811061530057fe5b8260010181905550607160006072878154811061541757fe5b61559561556d607160006072898154811061549857fe5b612d0461558e61558761167a6276a700612baa8e82612e95565b8c90612eb9565b8790612e95565b60028701556155a3876126f6565b6003870180546bffffffffffffffffffffffff19166bffffffffffffffffffffffff929092169190911790556001860187905560705486555b505060010161529f565b505b50505b6001607560006155fb8584612eb9565b81526020810191909152604001600020805460ff1916911515919091179055615693565b61568d61314b6071600060726156416001607354612eb990919063ffffffff16565b8154811061564b57fe5b90600052602060002001548152602001908152602001600020600401546071600087815260200190815260200160002060040154612eb990919063ffffffff16565b60028201555b60705490555050565b606e546040805163184a263160e11b815290516156e2926001600160a01b0316916330944c62916004808301926020929190829003018186803b1580156118c357600080fd5b6001600160a01b0383166000908152607c602052604081208161570442614fd1565b815260208101919091526040908101600090812082516003808252608082019094529093509091816020016020820280368337019050509050846001600160a01b031663bf1dcfe26040518163ffffffff1660e01b815260040160e06040518083038186803b15801561577657600080fd5b505afa15801561578a573d6000803e3d6000fd5b505050506040513d60e08110156157a057600080fd5b50608081015160a082015160c090920151835191929184906000906157c157fe5b60200260200101846001815181106157d557fe5b60200260200101856002815181106157e957fe5b602090810291909101019290925291905252600382015460ff16615aca576158248160008151811061581757fe5b6020026020010151614fd1565b61582d42614fd1565b141561584d576000600283015561584342614fd1565b6001830155615ab6565b60006158c76158798360028151811061586257fe5b602002602001015142612eb990919063ffffffff16565b607c6000896001600160a01b03166001600160a01b0316815260200190815260200160002060006158b08660028151811061581757fe5b815260208101919091526040016000205490612e95565b90506000806158ea846002815181106158dc57fe5b602002602001015142612dad565b9150915060005b82811015615ab1576001600160a01b0389166000908152607c602052604081208161591c85856126e2565b81526020019081526020016000209050600061594b61167a6276a70061167486886126e290919063ffffffff16565b9050826159a3576159996153f36159688960028151811061586257fe5b612d046159928b60028151811061597b57fe5b602002602001015186612eb990919063ffffffff16565b8a90612e95565b6002830155615aa7565b6000831180156159bc5750846159ba8460016126e2565b105b15615a33576159e16159d48860028151811061586257fe5b612d04886276a700612e95565b60028301556159f084846126e2565b6001808401919091556001600160a01b038c166000908152607c60209081526040808320888452909152902054835560038301805460ff19169091179055615aa7565b615a6d615a468860028151811061586257fe5b612d04615a6661173561167a6276a700612baa6276a70061167442614fd1565b8990612e95565b60028301556001600160a01b038b166000908152607c602090815260408083208784529091529020548255615aa142614fd1565b60018301555b50506001016158f1565b505050505b60038201805460ff19166001179055615aee565b615ae86153f3615ae08360028151811061586257fe5b845490612e95565b60028301555b60018315151415615b0c578154615b0590856126e2565b8255615b1b565b8154615b189085612eb9565b82555b5050505050565b3b151590565b600080821215615b3b5781600003610d95565b5090565b6000615b94826040518060400160405280602081526020017f5361666545524332303a206c6f772d6c6576656c2063616c6c206661696c6564815250856001600160a01b0316615c269092919063ffffffff16565b805190915015611e4057808060200190516020811015615bb357600080fd5b5051611e405760405162461bcd60e51b815260040180806020018281038252602a815260200180615e42602a913960400191505060405180910390fd5b600073eeeeeeeeeeeeeeeeeeeeeeeeeeeeeeeeeeeeeeee6001600160a01b0383161480610d955750506001600160a01b03161590565b6060610cc4848460008585615c3a85615b22565b615c8b576040805162461bcd60e51b815260206004820152601d60248201527f416464726573733a2063616c6c20746f206e6f6e2d636f6e7472616374000000604482015290519081900360640190fd5b600080866001600160a01b031685876040518082805190602001908083835b60208310615cc95780518252601f199092019160209182019101615caa565b6001836020036101000a03801982511681845116808217855250505050505090500191505060006040518083038185875af1925050503d8060008114615d2b576040519150601f19603f3d011682016040523d82523d6000602084013e615d30565b606091505b509150915061441c82828660608315615d4a5750816126db565b825115615d5a5782518084602001fd5b60405162461bcd60e51b8152602060048201818152845160248401528451859391928392604401919085019080838360008315612d6a578181015183820152602001612d52565b60405180606001604052806003906020820280368337509192915050565b508054600082559060005260206000209081019061212c91905b80821115615b3b5760008155600101615dd956fe4f776e61626c653a206e6577206f776e657220697320746865207a65726f2061646472657373496e697469616c697a61626c653a20636f6e747261637420697320616c726561647920696e697469616c697a65645361666545524332303a204552433230206f7065726174696f6e20646964206e6f742073756363656564a26469706673582212202b72ea68c7418e7e32350b9a348ac1f6878e47d928c5a04bf47bb135d53c0cff64736f6c63430007060033",
  "devdoc": {
    "kind": "dev",
    "methods": {
      "checkProtocol(uint256)": {
        "params": {
          "time": "Timestamp"
        }
      },
      "checkQuarter(uint256)": {
        "params": {
          "_num": "Number of quarter"
        }
      },
      "getContributorPower(address,address,uint256,uint256)": {
        "params": {
          "_contributor": "Address if the contributor",
          "_from": "Initial timestamp",
          "_garden": "Address of the garden where the contributor belongs to",
          "_to": "End timestamp"
        },
        "returns": {
          "_0": "uint256     Contributor power during that period"
        }
      },
      "getGardenProfitsSharing(address)": {
        "params": {
          "_garden": "Address of the garden"
        }
      },
      "getRewards(address,address,address[])": {
        "params": {
          "_contributor": "Address of the contributor to check",
          "_finalizedStrategies": "List of addresses of the finalized strategies to check",
          "_garden": "Garden to which the strategies and the user must belong to"
        },
        "returns": {
          "_0": "Array of size 7 with the following distribution: rewards[0]: Strategist BABL , rewards[1]: Strategist Profit, rewards[2]: Steward BABL, rewards[3]: Steward Profit, rewards[4]: LP BABL, rewards[5]: total BABL, rewards[6]: total Profits"
        }
      },
      "getStrategyRewards(address)": {
        "params": {
          "_strategy": "Strategy to check"
        }
      },
      "owner()": {
        "details": "Returns the address of the current owner."
      },
      "renounceOwnership()": {
        "details": "Leaves the contract without owner. It will not be possible to call `onlyOwner` functions anymore. Can only be called by the current owner. NOTE: Renouncing ownership will leave the contract without an owner, thereby removing any functionality that is only available to the owner."
      },
      "sendTokensToContributor(address,uint256)": {
        "params": {
          "_amount": "Amount of tokens to send the address to",
          "_to": "Address to send the tokens to"
        }
      },
      "setBablToken(address)": {
        "params": {
          "_bablToken": "BABLToken address"
        }
      },
      "setProfitRewards(address,uint256,uint256,uint256)": {
        "params": {
          "_lpShare": "New % of lpShare",
          "_stewardsShare": "New % of stewardsShare",
          "_strategistShare": "New % of strategistShare"
        }
      },
      "tokenSupplyPerQuarter(uint256)": {
        "params": {
          "_quarter": "Number of the epoch (quarter)"
        }
      },
      "transferOwnership(address)": {
        "details": "Transfers ownership of the contract to a new account (`newOwner`). Can only be called by the current owner."
      },
      "updateGardenPowerAndContributor(address,address,uint256,bool,uint256)": {
        "params": {
          "_contributor": "Address of the contributor",
          "_depositOrWithdraw": "If the timestamp is a deposit (true) or a withdraw (false)",
          "_garden": "Address of the garden the contributor belongs to",
          "_pid": "The pid # of the Garden timestamps",
          "_previousBalance": "Previous balance of the contributor"
        }
      },
      "updateProtocolPrincipal(uint256,bool)": {
        "params": {
          "_addOrSubstract": "Whether we are adding or substracting capital",
          "_capital": "Amount of capital in any type of asset to be normalized into DAI"
        }
      }
    },
    "version": 1
  },
  "userdoc": {
    "kind": "user",
    "methods": {
      "checkProtocol(uint256)": {
        "notice": "Check the protocol state in a certain timestamp"
      },
      "checkQuarter(uint256)": {
        "notice": "Check the quarter state for a specific quarter"
      },
      "getContributorPower(address,address,uint256,uint256)": {
        "notice": "Gets the contributor power from one timestamp to the other"
      },
      "getGardenProfitsSharing(address)": {
        "notice": "Check the garden profit sharing % if different from default"
      },
      "getRewards(address,address,address[])": {
        "notice": "Calculates the profits and BABL that a contributor should receive from a series of finalized strategies"
      },
      "getStrategyRewards(address)": {
        "notice": "Gets the total amount of rewards for a given strategy"
      },
      "sendTokensToContributor(address,uint256)": {
        "notice": "Sends BABL tokens rewards to a contributor after a claim is requested to the protocol."
      },
      "setBablToken(address)": {
        "notice": "Function that set the babl Token address as it is going to be released in a future date"
      },
      "setProfitRewards(address,uint256,uint256,uint256)": {
        "notice": "Set customized profit shares for a specific garden by the gardener"
      },
      "startBABLRewards()": {
        "notice": "Starts BABL Rewards Mining Program from the controller."
      },
      "tokenSupplyPerQuarter(uint256)": {
        "notice": "Calculates the BABL rewards supply for each quarter"
      },
      "updateGardenPowerAndContributor(address,address,uint256,bool,uint256)": {
        "notice": "Function that set each contributor timestamp per garden"
      },
      "updateProtocolPrincipal(uint256,bool)": {
        "notice": "Function that adds/substract the capital received to the total principal of the protocol per timestamp"
      }
    },
    "version": 1
  },
  "storageLayout": {
    "storage": [
      {
        "astId": 492,
        "contract": "contracts/token/RewardsDistributor.sol:RewardsDistributorV4",
        "label": "_initialized",
        "offset": 0,
        "slot": "0",
        "type": "t_bool"
      },
      {
        "astId": 495,
        "contract": "contracts/token/RewardsDistributor.sol:RewardsDistributorV4",
        "label": "_initializing",
        "offset": 1,
        "slot": "0",
        "type": "t_bool"
      },
      {
        "astId": 1447,
        "contract": "contracts/token/RewardsDistributor.sol:RewardsDistributorV4",
        "label": "__gap",
        "offset": 0,
        "slot": "1",
        "type": "t_array(t_uint256)50_storage"
      },
      {
        "astId": 10,
        "contract": "contracts/token/RewardsDistributor.sol:RewardsDistributorV4",
        "label": "_owner",
        "offset": 0,
        "slot": "51",
        "type": "t_address"
      },
      {
        "astId": 129,
        "contract": "contracts/token/RewardsDistributor.sol:RewardsDistributorV4",
        "label": "__gap",
        "offset": 0,
        "slot": "52",
        "type": "t_array(t_uint256)49_storage"
      },
      {
        "astId": 42650,
        "contract": "contracts/token/RewardsDistributor.sol:RewardsDistributorV4",
        "label": "START_TIME",
        "offset": 0,
        "slot": "101",
        "type": "t_uint256"
      },
      {
        "astId": 42652,
        "contract": "contracts/token/RewardsDistributor.sol:RewardsDistributorV4",
        "label": "BABL_STRATEGIST_SHARE",
        "offset": 0,
        "slot": "102",
        "type": "t_uint256"
      },
      {
        "astId": 42654,
        "contract": "contracts/token/RewardsDistributor.sol:RewardsDistributorV4",
        "label": "BABL_STEWARD_SHARE",
        "offset": 0,
        "slot": "103",
        "type": "t_uint256"
      },
      {
        "astId": 42656,
        "contract": "contracts/token/RewardsDistributor.sol:RewardsDistributorV4",
        "label": "BABL_LP_SHARE",
        "offset": 0,
        "slot": "104",
        "type": "t_uint256"
      },
      {
        "astId": 42658,
        "contract": "contracts/token/RewardsDistributor.sol:RewardsDistributorV4",
        "label": "PROFIT_STRATEGIST_SHARE",
        "offset": 0,
        "slot": "105",
        "type": "t_uint256"
      },
      {
        "astId": 42660,
        "contract": "contracts/token/RewardsDistributor.sol:RewardsDistributorV4",
        "label": "PROFIT_STEWARD_SHARE",
        "offset": 0,
        "slot": "106",
        "type": "t_uint256"
      },
      {
        "astId": 42662,
        "contract": "contracts/token/RewardsDistributor.sol:RewardsDistributorV4",
        "label": "PROFIT_LP_SHARE",
        "offset": 0,
        "slot": "107",
        "type": "t_uint256"
      },
      {
        "astId": 42664,
        "contract": "contracts/token/RewardsDistributor.sol:RewardsDistributorV4",
        "label": "PROFIT_PROTOCOL_FEE",
        "offset": 0,
        "slot": "108",
        "type": "t_uint256"
      },
      {
        "astId": 42666,
        "contract": "contracts/token/RewardsDistributor.sol:RewardsDistributorV4",
        "label": "CREATOR_BONUS",
        "offset": 0,
        "slot": "109",
        "type": "t_uint256"
      },
      {
        "astId": 42736,
        "contract": "contracts/token/RewardsDistributor.sol:RewardsDistributorV4",
        "label": "controller",
        "offset": 0,
        "slot": "110",
        "type": "t_contract(IBabController)28639"
      },
      {
        "astId": 42738,
        "contract": "contracts/token/RewardsDistributor.sol:RewardsDistributorV4",
        "label": "babltoken",
        "offset": 0,
        "slot": "111",
        "type": "t_contract(TimeLockedToken)48741"
      },
      {
        "astId": 42740,
        "contract": "contracts/token/RewardsDistributor.sol:RewardsDistributorV4",
        "label": "protocolPrincipal",
        "offset": 0,
        "slot": "112",
        "type": "t_uint256"
      },
      {
        "astId": 42744,
        "contract": "contracts/token/RewardsDistributor.sol:RewardsDistributorV4",
        "label": "protocolPerTimestamp",
        "offset": 0,
        "slot": "113",
        "type": "t_mapping(t_uint256,t_struct(ProtocolPerTimestamp)42686_storage)"
      },
      {
        "astId": 42747,
        "contract": "contracts/token/RewardsDistributor.sol:RewardsDistributorV4",
        "label": "timeList",
        "offset": 0,
        "slot": "114",
        "type": "t_array(t_uint256)dyn_storage"
      },
      {
        "astId": 42749,
        "contract": "contracts/token/RewardsDistributor.sol:RewardsDistributorV4",
        "label": "pid",
        "offset": 0,
        "slot": "115",
        "type": "t_uint256"
      },
      {
        "astId": 42753,
        "contract": "contracts/token/RewardsDistributor.sol:RewardsDistributorV4",
        "label": "protocolPerQuarter",
        "offset": 0,
        "slot": "116",
        "type": "t_mapping(t_uint256,t_struct(ProtocolPerQuarter)42695_storage)"
      },
      {
        "astId": 42757,
        "contract": "contracts/token/RewardsDistributor.sol:RewardsDistributorV4",
        "label": "isProtocolPerQuarter",
        "offset": 0,
        "slot": "117",
        "type": "t_mapping(t_uint256,t_bool)"
      },
      {
        "astId": 42763,
        "contract": "contracts/token/RewardsDistributor.sol:RewardsDistributorV4",
        "label": "rewardsPowerOverhead",
        "offset": 0,
        "slot": "118",
        "type": "t_mapping(t_address,t_mapping(t_uint256,t_uint256))"
      },
      {
        "astId": 42769,
        "contract": "contracts/token/RewardsDistributor.sol:RewardsDistributorV4",
        "label": "contributorPerGarden",
        "offset": 0,
        "slot": "119",
        "type": "t_mapping(t_address,t_mapping(t_address,t_struct(ContributorPerGarden)42716_storage))"
      },
      {
        "astId": 42775,
        "contract": "contracts/token/RewardsDistributor.sol:RewardsDistributorV4",
        "label": "checkpoints",
        "offset": 0,
        "slot": "120",
        "type": "t_mapping(t_address,t_mapping(t_address,t_struct(Checkpoints)42734_storage))"
      },
      {
        "astId": 42781,
        "contract": "contracts/token/RewardsDistributor.sol:RewardsDistributorV4",
        "label": "gardenPowerByTimestamp",
        "offset": 0,
        "slot": "121",
        "type": "t_mapping(t_address,t_mapping(t_uint256,t_struct(GardenPowerByTimestamp)42702_storage))"
      },
      {
        "astId": 42786,
        "contract": "contracts/token/RewardsDistributor.sol:RewardsDistributorV4",
        "label": "gardenTimelist",
        "offset": 0,
        "slot": "122",
        "type": "t_mapping(t_address,t_array(t_uint256)dyn_storage)"
      },
      {
        "astId": 42790,
        "contract": "contracts/token/RewardsDistributor.sol:RewardsDistributorV4",
        "label": "gardenPid",
        "offset": 0,
        "slot": "123",
        "type": "t_mapping(t_address,t_uint256)"
      },
      {
        "astId": 42810,
        "contract": "contracts/token/RewardsDistributor.sol:RewardsDistributorV4",
        "label": "strategyPerQuarter",
        "offset": 0,
        "slot": "124",
        "type": "t_mapping(t_address,t_mapping(t_uint256,t_struct(StrategyPerQuarter)42799_storage))"
      },
      {
        "astId": 42814,
        "contract": "contracts/token/RewardsDistributor.sol:RewardsDistributorV4",
        "label": "strategyPricePerTokenUnit",
        "offset": 0,
        "slot": "125",
        "type": "t_mapping(t_address,t_struct(StrategyPricePerTokenUnit)42804_storage)"
      },
      {
        "astId": 42816,
        "contract": "contracts/token/RewardsDistributor.sol:RewardsDistributorV4",
        "label": "status",
        "offset": 0,
        "slot": "126",
        "type": "t_uint256"
      },
      {
        "astId": 42822,
        "contract": "contracts/token/RewardsDistributor.sol:RewardsDistributorV4",
        "label": "gardenProfitSharing",
        "offset": 0,
        "slot": "127",
        "type": "t_mapping(t_address,t_array(t_uint256)3_storage)"
      },
      {
        "astId": 42826,
        "contract": "contracts/token/RewardsDistributor.sol:RewardsDistributorV4",
        "label": "gardenCustomProfitSharing",
        "offset": 0,
        "slot": "128",
        "type": "t_mapping(t_address,t_bool)"
      }
    ],
    "types": {
      "t_address": {
        "encoding": "inplace",
        "label": "address",
        "numberOfBytes": "20"
      },
      "t_array(t_uint256)3_storage": {
        "base": "t_uint256",
        "encoding": "inplace",
        "label": "uint256[3]",
        "numberOfBytes": "96"
      },
      "t_array(t_uint256)49_storage": {
        "base": "t_uint256",
        "encoding": "inplace",
        "label": "uint256[49]",
        "numberOfBytes": "1568"
      },
      "t_array(t_uint256)50_storage": {
        "base": "t_uint256",
        "encoding": "inplace",
        "label": "uint256[50]",
        "numberOfBytes": "1600"
      },
      "t_array(t_uint256)dyn_storage": {
        "base": "t_uint256",
        "encoding": "dynamic_array",
        "label": "uint256[]",
        "numberOfBytes": "32"
      },
      "t_bool": {
        "encoding": "inplace",
        "label": "bool",
        "numberOfBytes": "1"
      },
      "t_contract(IBabController)28639": {
        "encoding": "inplace",
        "label": "contract IBabController",
        "numberOfBytes": "20"
      },
      "t_contract(TimeLockedToken)48741": {
        "encoding": "inplace",
        "label": "contract TimeLockedToken",
        "numberOfBytes": "20"
      },
      "t_mapping(t_address,t_array(t_uint256)3_storage)": {
        "encoding": "mapping",
        "key": "t_address",
        "label": "mapping(address => uint256[3])",
        "numberOfBytes": "32",
        "value": "t_array(t_uint256)3_storage"
      },
      "t_mapping(t_address,t_array(t_uint256)dyn_storage)": {
        "encoding": "mapping",
        "key": "t_address",
        "label": "mapping(address => uint256[])",
        "numberOfBytes": "32",
        "value": "t_array(t_uint256)dyn_storage"
      },
      "t_mapping(t_address,t_bool)": {
        "encoding": "mapping",
        "key": "t_address",
        "label": "mapping(address => bool)",
        "numberOfBytes": "32",
        "value": "t_bool"
      },
      "t_mapping(t_address,t_mapping(t_address,t_struct(Checkpoints)42734_storage))": {
        "encoding": "mapping",
        "key": "t_address",
        "label": "mapping(address => mapping(address => struct RewardsDistributor.Checkpoints))",
        "numberOfBytes": "32",
        "value": "t_mapping(t_address,t_struct(Checkpoints)42734_storage)"
      },
      "t_mapping(t_address,t_mapping(t_address,t_struct(ContributorPerGarden)42716_storage))": {
        "encoding": "mapping",
        "key": "t_address",
        "label": "mapping(address => mapping(address => struct RewardsDistributor.ContributorPerGarden))",
        "numberOfBytes": "32",
        "value": "t_mapping(t_address,t_struct(ContributorPerGarden)42716_storage)"
      },
      "t_mapping(t_address,t_mapping(t_uint256,t_struct(GardenPowerByTimestamp)42702_storage))": {
        "encoding": "mapping",
        "key": "t_address",
        "label": "mapping(address => mapping(uint256 => struct RewardsDistributor.GardenPowerByTimestamp))",
        "numberOfBytes": "32",
        "value": "t_mapping(t_uint256,t_struct(GardenPowerByTimestamp)42702_storage)"
      },
      "t_mapping(t_address,t_mapping(t_uint256,t_struct(StrategyPerQuarter)42799_storage))": {
        "encoding": "mapping",
        "key": "t_address",
        "label": "mapping(address => mapping(uint256 => struct RewardsDistributor.StrategyPerQuarter))",
        "numberOfBytes": "32",
        "value": "t_mapping(t_uint256,t_struct(StrategyPerQuarter)42799_storage)"
      },
      "t_mapping(t_address,t_mapping(t_uint256,t_uint256))": {
        "encoding": "mapping",
        "key": "t_address",
        "label": "mapping(address => mapping(uint256 => uint256))",
        "numberOfBytes": "32",
        "value": "t_mapping(t_uint256,t_uint256)"
      },
      "t_mapping(t_address,t_struct(Checkpoints)42734_storage)": {
        "encoding": "mapping",
        "key": "t_address",
        "label": "mapping(address => struct RewardsDistributor.Checkpoints)",
        "numberOfBytes": "32",
        "value": "t_struct(Checkpoints)42734_storage"
      },
      "t_mapping(t_address,t_struct(ContributorPerGarden)42716_storage)": {
        "encoding": "mapping",
        "key": "t_address",
        "label": "mapping(address => struct RewardsDistributor.ContributorPerGarden)",
        "numberOfBytes": "32",
        "value": "t_struct(ContributorPerGarden)42716_storage"
      },
      "t_mapping(t_address,t_struct(StrategyPricePerTokenUnit)42804_storage)": {
        "encoding": "mapping",
        "key": "t_address",
        "label": "mapping(address => struct RewardsDistributor.StrategyPricePerTokenUnit)",
        "numberOfBytes": "32",
        "value": "t_struct(StrategyPricePerTokenUnit)42804_storage"
      },
      "t_mapping(t_address,t_uint256)": {
        "encoding": "mapping",
        "key": "t_address",
        "label": "mapping(address => uint256)",
        "numberOfBytes": "32",
        "value": "t_uint256"
      },
      "t_mapping(t_uint256,t_bool)": {
        "encoding": "mapping",
        "key": "t_uint256",
        "label": "mapping(uint256 => bool)",
        "numberOfBytes": "32",
        "value": "t_bool"
      },
      "t_mapping(t_uint256,t_struct(GardenPowerByTimestamp)42702_storage)": {
        "encoding": "mapping",
        "key": "t_uint256",
        "label": "mapping(uint256 => struct RewardsDistributor.GardenPowerByTimestamp)",
        "numberOfBytes": "32",
        "value": "t_struct(GardenPowerByTimestamp)42702_storage"
      },
      "t_mapping(t_uint256,t_struct(ProtocolPerQuarter)42695_storage)": {
        "encoding": "mapping",
        "key": "t_uint256",
        "label": "mapping(uint256 => struct RewardsDistributor.ProtocolPerQuarter)",
        "numberOfBytes": "32",
        "value": "t_struct(ProtocolPerQuarter)42695_storage"
      },
      "t_mapping(t_uint256,t_struct(ProtocolPerTimestamp)42686_storage)": {
        "encoding": "mapping",
        "key": "t_uint256",
        "label": "mapping(uint256 => struct RewardsDistributor.ProtocolPerTimestamp)",
        "numberOfBytes": "32",
        "value": "t_struct(ProtocolPerTimestamp)42686_storage"
      },
      "t_mapping(t_uint256,t_struct(StrategyPerQuarter)42799_storage)": {
        "encoding": "mapping",
        "key": "t_uint256",
        "label": "mapping(uint256 => struct RewardsDistributor.StrategyPerQuarter)",
        "numberOfBytes": "32",
        "value": "t_struct(StrategyPerQuarter)42799_storage"
      },
      "t_mapping(t_uint256,t_struct(TimestampContribution)42725_storage)": {
        "encoding": "mapping",
        "key": "t_uint256",
        "label": "mapping(uint256 => struct RewardsDistributor.TimestampContribution)",
        "numberOfBytes": "32",
        "value": "t_struct(TimestampContribution)42725_storage"
      },
      "t_mapping(t_uint256,t_uint256)": {
        "encoding": "mapping",
        "key": "t_uint256",
        "label": "mapping(uint256 => uint256)",
        "numberOfBytes": "32",
        "value": "t_uint256"
      },
      "t_struct(Checkpoints)42734_storage": {
        "encoding": "inplace",
        "label": "struct RewardsDistributor.Checkpoints",
        "members": [
          {
            "astId": 42727,
            "contract": "contracts/token/RewardsDistributor.sol:RewardsDistributorV4",
            "label": "fromDepositAt",
            "offset": 0,
            "slot": "0",
            "type": "t_uint256"
          },
          {
            "astId": 42729,
            "contract": "contracts/token/RewardsDistributor.sol:RewardsDistributorV4",
            "label": "lastDepositAt",
            "offset": 0,
            "slot": "1",
            "type": "t_uint256"
          },
          {
            "astId": 42731,
            "contract": "contracts/token/RewardsDistributor.sol:RewardsDistributorV4",
            "label": "gardenFromDepositAt",
            "offset": 0,
            "slot": "2",
            "type": "t_uint256"
          },
          {
            "astId": 42733,
            "contract": "contracts/token/RewardsDistributor.sol:RewardsDistributorV4",
            "label": "gardenLastDepositAt",
            "offset": 0,
            "slot": "3",
            "type": "t_uint256"
          }
        ],
        "numberOfBytes": "128"
      },
      "t_struct(ContributorPerGarden)42716_storage": {
        "encoding": "inplace",
        "label": "struct RewardsDistributor.ContributorPerGarden",
        "members": [
          {
            "astId": 42704,
            "contract": "contracts/token/RewardsDistributor.sol:RewardsDistributorV4",
            "label": "lastDepositAt",
            "offset": 0,
            "slot": "0",
            "type": "t_uint256"
          },
          {
            "astId": 42706,
            "contract": "contracts/token/RewardsDistributor.sol:RewardsDistributorV4",
            "label": "initialDepositAt",
            "offset": 0,
            "slot": "1",
            "type": "t_uint256"
          },
          {
            "astId": 42709,
            "contract": "contracts/token/RewardsDistributor.sol:RewardsDistributorV4",
            "label": "timeListPointer",
            "offset": 0,
            "slot": "2",
            "type": "t_array(t_uint256)dyn_storage"
          },
          {
            "astId": 42711,
            "contract": "contracts/token/RewardsDistributor.sol:RewardsDistributorV4",
            "label": "pid",
            "offset": 0,
            "slot": "3",
            "type": "t_uint256"
          },
          {
            "astId": 42715,
            "contract": "contracts/token/RewardsDistributor.sol:RewardsDistributorV4",
            "label": "tsContributions",
            "offset": 0,
            "slot": "4",
            "type": "t_mapping(t_uint256,t_struct(TimestampContribution)42725_storage)"
          }
        ],
        "numberOfBytes": "160"
      },
      "t_struct(GardenPowerByTimestamp)42702_storage": {
        "encoding": "inplace",
        "label": "struct RewardsDistributor.GardenPowerByTimestamp",
        "members": [
          {
            "astId": 42697,
            "contract": "contracts/token/RewardsDistributor.sol:RewardsDistributorV4",
            "label": "supply",
            "offset": 0,
            "slot": "0",
            "type": "t_uint256"
          },
          {
            "astId": 42699,
            "contract": "contracts/token/RewardsDistributor.sol:RewardsDistributorV4",
            "label": "timestamp",
            "offset": 0,
            "slot": "1",
            "type": "t_uint256"
          },
          {
            "astId": 42701,
            "contract": "contracts/token/RewardsDistributor.sol:RewardsDistributorV4",
            "label": "power",
            "offset": 0,
            "slot": "2",
            "type": "t_uint256"
          }
        ],
        "numberOfBytes": "96"
      },
      "t_struct(ProtocolPerQuarter)42695_storage": {
        "encoding": "inplace",
        "label": "struct RewardsDistributor.ProtocolPerQuarter",
        "members": [
          {
            "astId": 42688,
            "contract": "contracts/token/RewardsDistributor.sol:RewardsDistributorV4",
            "label": "quarterPrincipal",
            "offset": 0,
            "slot": "0",
            "type": "t_uint256"
          },
          {
            "astId": 42690,
            "contract": "contracts/token/RewardsDistributor.sol:RewardsDistributorV4",
            "label": "quarterNumber",
            "offset": 0,
            "slot": "1",
            "type": "t_uint256"
          },
          {
            "astId": 42692,
            "contract": "contracts/token/RewardsDistributor.sol:RewardsDistributorV4",
            "label": "quarterPower",
            "offset": 0,
            "slot": "2",
            "type": "t_uint256"
          },
          {
            "astId": 42694,
            "contract": "contracts/token/RewardsDistributor.sol:RewardsDistributorV4",
            "label": "supplyPerQuarter",
            "offset": 0,
            "slot": "3",
            "type": "t_uint96"
          }
        ],
        "numberOfBytes": "128"
      },
      "t_struct(ProtocolPerTimestamp)42686_storage": {
        "encoding": "inplace",
        "label": "struct RewardsDistributor.ProtocolPerTimestamp",
        "members": [
          {
            "astId": 42677,
            "contract": "contracts/token/RewardsDistributor.sol:RewardsDistributorV4",
            "label": "principal",
            "offset": 0,
            "slot": "0",
            "type": "t_uint256"
          },
          {
            "astId": 42679,
            "contract": "contracts/token/RewardsDistributor.sol:RewardsDistributorV4",
            "label": "time",
            "offset": 0,
            "slot": "1",
            "type": "t_uint256"
          },
          {
            "astId": 42681,
            "contract": "contracts/token/RewardsDistributor.sol:RewardsDistributorV4",
            "label": "quarterBelonging",
            "offset": 0,
            "slot": "2",
            "type": "t_uint256"
          },
          {
            "astId": 42683,
            "contract": "contracts/token/RewardsDistributor.sol:RewardsDistributorV4",
            "label": "timeListPointer",
            "offset": 0,
            "slot": "3",
            "type": "t_uint256"
          },
          {
            "astId": 42685,
            "contract": "contracts/token/RewardsDistributor.sol:RewardsDistributorV4",
            "label": "power",
            "offset": 0,
            "slot": "4",
            "type": "t_uint256"
          }
        ],
        "numberOfBytes": "160"
      },
      "t_struct(StrategyPerQuarter)42799_storage": {
        "encoding": "inplace",
        "label": "struct RewardsDistributor.StrategyPerQuarter",
        "members": [
          {
            "astId": 42792,
            "contract": "contracts/token/RewardsDistributor.sol:RewardsDistributorV4",
            "label": "quarterPrincipal",
            "offset": 0,
            "slot": "0",
            "type": "t_uint256"
          },
          {
            "astId": 42794,
            "contract": "contracts/token/RewardsDistributor.sol:RewardsDistributorV4",
            "label": "quarterNumber",
            "offset": 0,
            "slot": "1",
            "type": "t_uint256"
          },
          {
            "astId": 42796,
            "contract": "contracts/token/RewardsDistributor.sol:RewardsDistributorV4",
            "label": "quarterPower",
            "offset": 0,
            "slot": "2",
            "type": "t_uint256"
          },
          {
            "astId": 42798,
            "contract": "contracts/token/RewardsDistributor.sol:RewardsDistributorV4",
            "label": "initialized",
            "offset": 0,
            "slot": "3",
            "type": "t_bool"
          }
        ],
        "numberOfBytes": "128"
      },
      "t_struct(StrategyPricePerTokenUnit)42804_storage": {
        "encoding": "inplace",
        "label": "struct RewardsDistributor.StrategyPricePerTokenUnit",
        "members": [
          {
            "astId": 42801,
            "contract": "contracts/token/RewardsDistributor.sol:RewardsDistributorV4",
            "label": "preallocated",
            "offset": 0,
            "slot": "0",
            "type": "t_uint256"
          },
          {
            "astId": 42803,
            "contract": "contracts/token/RewardsDistributor.sol:RewardsDistributorV4",
            "label": "pricePerTokenUnit",
            "offset": 0,
            "slot": "1",
            "type": "t_uint256"
          }
        ],
        "numberOfBytes": "64"
      },
      "t_struct(TimestampContribution)42725_storage": {
        "encoding": "inplace",
        "label": "struct RewardsDistributor.TimestampContribution",
        "members": [
          {
            "astId": 42718,
            "contract": "contracts/token/RewardsDistributor.sol:RewardsDistributorV4",
            "label": "supply",
            "offset": 0,
            "slot": "0",
            "type": "t_uint256"
          },
          {
            "astId": 42720,
            "contract": "contracts/token/RewardsDistributor.sol:RewardsDistributorV4",
            "label": "timestamp",
            "offset": 0,
            "slot": "1",
            "type": "t_uint256"
          },
          {
            "astId": 42722,
            "contract": "contracts/token/RewardsDistributor.sol:RewardsDistributorV4",
            "label": "timePointer",
            "offset": 0,
            "slot": "2",
            "type": "t_uint256"
          },
          {
            "astId": 42724,
            "contract": "contracts/token/RewardsDistributor.sol:RewardsDistributorV4",
            "label": "power",
            "offset": 0,
            "slot": "3",
            "type": "t_uint256"
          }
        ],
        "numberOfBytes": "128"
      },
      "t_uint256": {
        "encoding": "inplace",
        "label": "uint256",
        "numberOfBytes": "32"
      },
      "t_uint96": {
        "encoding": "inplace",
        "label": "uint96",
        "numberOfBytes": "12"
      }
    }
  }
}