{
  "address": "0x17Ce48A19a95E8675013c96350d0740D4bEbDC0A",
  "abi": [
    {
      "anonymous": false,
      "inputs": [
        {
          "indexed": true,
          "internalType": "address",
          "name": "previousOwner",
          "type": "address"
        },
        {
          "indexed": true,
          "internalType": "address",
          "name": "newOwner",
          "type": "address"
        }
      ],
      "name": "OwnershipTransferred",
      "type": "event"
    },
    {
      "inputs": [
        {
          "internalType": "uint256",
          "name": "_quarterNum",
          "type": "uint256"
        },
        {
          "internalType": "address",
          "name": "_strategy",
          "type": "address"
        }
      ],
      "name": "checkMining",
      "outputs": [
        {
          "internalType": "uint256[17]",
          "name": "miningData",
          "type": "uint256[17]"
        }
      ],
      "stateMutability": "view",
      "type": "function"
    },
    {
      "inputs": [
        {
          "internalType": "address",
          "name": "_strategy",
          "type": "address"
        }
      ],
      "name": "estimateStrategyRewards",
      "outputs": [
        {
          "internalType": "uint256",
          "name": "",
          "type": "uint256"
        }
      ],
      "stateMutability": "view",
      "type": "function"
    },
    {
      "inputs": [
        {
          "internalType": "address",
          "name": "_strategy",
          "type": "address"
        },
        {
          "internalType": "address",
          "name": "_contributor",
          "type": "address"
        }
      ],
      "name": "estimateUserRewards",
      "outputs": [
        {
          "internalType": "uint256[]",
          "name": "",
          "type": "uint256[]"
        }
      ],
      "stateMutability": "view",
      "type": "function"
    },
    {
      "inputs": [
        {
          "internalType": "address",
          "name": "_garden",
          "type": "address"
        }
      ],
      "name": "getGardenProfitsSharing",
      "outputs": [
        {
          "internalType": "uint256[3]",
          "name": "",
          "type": "uint256[3]"
        }
      ],
      "stateMutability": "view",
      "type": "function"
    },
    {
      "inputs": [
        {
          "internalType": "address",
          "name": "_garden",
          "type": "address"
        },
        {
          "internalType": "address",
          "name": "_address",
          "type": "address"
        },
        {
          "internalType": "uint256",
          "name": "_blockTime",
          "type": "uint256"
        }
      ],
      "name": "getPriorBalance",
      "outputs": [
        {
          "internalType": "uint256",
          "name": "",
          "type": "uint256"
        },
        {
          "internalType": "uint256",
          "name": "",
          "type": "uint256"
        },
        {
          "internalType": "uint256",
          "name": "",
          "type": "uint256"
        }
      ],
      "stateMutability": "view",
      "type": "function"
    },
    {
      "inputs": [
        {
          "internalType": "address",
          "name": "_garden",
          "type": "address"
        },
        {
          "internalType": "address",
          "name": "_contributor",
          "type": "address"
        },
        {
          "internalType": "address[]",
          "name": "_finalizedStrategies",
          "type": "address[]"
        }
      ],
      "name": "getRewards",
      "outputs": [
        {
          "internalType": "uint256[]",
          "name": "",
          "type": "uint256[]"
        }
      ],
      "stateMutability": "view",
      "type": "function"
    },
    {
      "inputs": [
        {
          "internalType": "address",
          "name": "_garden",
          "type": "address"
        },
        {
          "internalType": "address",
          "name": "_contributor",
          "type": "address"
        },
        {
          "internalType": "address",
          "name": "_strategy",
          "type": "address"
        }
      ],
      "name": "getSafeUserSharePerStrategy",
      "outputs": [
        {
          "internalType": "uint256",
          "name": "",
          "type": "uint256"
        }
      ],
      "stateMutability": "view",
      "type": "function"
    },
    {
      "inputs": [
        {
          "internalType": "address",
          "name": "_strategy",
          "type": "address"
        }
      ],
      "name": "getStrategyRewards",
      "outputs": [
        {
          "internalType": "uint256",
          "name": "",
          "type": "uint256"
        }
      ],
      "stateMutability": "view",
      "type": "function"
    },
    {
      "inputs": [
        {
          "internalType": "contract TimeLockedToken",
          "name": "_bablToken",
          "type": "address"
        },
        {
          "internalType": "contract IBabController",
          "name": "_controller",
          "type": "address"
        }
      ],
      "name": "initialize",
      "outputs": [],
      "stateMutability": "nonpayable",
      "type": "function"
    },
    {
      "inputs": [
        {
          "internalType": "address[]",
          "name": "_address",
          "type": "address[]"
        },
        {
          "internalType": "bool",
          "name": "_toMigrate",
          "type": "bool"
        }
      ],
      "name": "migrateAddressToCheckpoints",
      "outputs": [],
      "stateMutability": "nonpayable",
      "type": "function"
    },
    {
      "inputs": [],
      "name": "owner",
      "outputs": [
        {
          "internalType": "address",
          "name": "",
          "type": "address"
        }
      ],
      "stateMutability": "view",
      "type": "function"
    },
    {
      "inputs": [],
      "name": "renounceOwnership",
      "outputs": [],
      "stateMutability": "nonpayable",
      "type": "function"
    },
    {
      "inputs": [
        {
          "internalType": "address",
          "name": "_to",
          "type": "address"
        },
        {
          "internalType": "uint256",
          "name": "_babl",
          "type": "uint256"
        }
      ],
      "name": "sendBABLToContributor",
      "outputs": [
        {
          "internalType": "uint256",
          "name": "",
          "type": "uint256"
        }
      ],
      "stateMutability": "nonpayable",
      "type": "function"
    },
    {
      "inputs": [
        {
          "internalType": "uint256[11]",
          "name": "_newMiningParams",
          "type": "uint256[11]"
        }
      ],
      "name": "setBABLMiningParameters",
      "outputs": [],
      "stateMutability": "nonpayable",
      "type": "function"
    },
    {
      "inputs": [
        {
          "internalType": "address",
          "name": "_garden",
          "type": "address"
        },
        {
          "internalType": "uint256",
          "name": "_strategistShare",
          "type": "uint256"
        },
        {
          "internalType": "uint256",
          "name": "_stewardsShare",
          "type": "uint256"
        },
        {
          "internalType": "uint256",
          "name": "_lpShare",
          "type": "uint256"
        }
      ],
      "name": "setProfitRewards",
      "outputs": [],
      "stateMutability": "nonpayable",
      "type": "function"
    },
    {
      "inputs": [
        {
          "internalType": "address",
          "name": "newOwner",
          "type": "address"
        }
      ],
      "name": "transferOwnership",
      "outputs": [],
      "stateMutability": "nonpayable",
      "type": "function"
    },
    {
      "inputs": [
        {
          "internalType": "address",
          "name": "_garden",
          "type": "address"
        },
        {
          "internalType": "address",
          "name": "_contributor",
          "type": "address"
        },
        {
          "internalType": "uint256",
          "name": "_previousBalance",
          "type": "uint256"
        },
        {
          "internalType": "uint256",
          "name": "_tokenDiff",
          "type": "uint256"
        },
        {
          "internalType": "bool",
          "name": "_addOrSubstract",
          "type": "bool"
        }
      ],
      "name": "updateGardenPowerAndContributor",
      "outputs": [],
      "stateMutability": "nonpayable",
      "type": "function"
    },
    {
      "inputs": [
        {
          "internalType": "uint256",
          "name": "_capital",
          "type": "uint256"
        },
        {
          "internalType": "bool",
          "name": "_addOrSubstract",
          "type": "bool"
        }
      ],
      "name": "updateProtocolPrincipal",
      "outputs": [],
      "stateMutability": "nonpayable",
      "type": "function"
    }
  ],
  "transactionHash": "0xa942d8d0c6618a74d65ac937e375139af3a2b4977f4b6619c6407c30bc50766c",
  "args": [],
  "numDeployments": 1,
  "solcInputHash": "ac4f70f4844c4e1d45ec262abfa78111",
  "bytecode": "0x608060405234801561001057600080fd5b50615ec780620000216000396000f3fe608060405234801561001057600080fd5b50600436106101365760003560e01c80638ce90e82116100b2578063b7411b7911610081578063d717a50611610066578063d717a50614610585578063df8a4e45146105aa578063f2fde38b146105ee57610136565b8063b7411b791461051f578063b86263911461055757610136565b80638ce90e82146104555780638da5cb5b146104815780639de9a052146104a55780639f39d870146104cb57610136565b8063485cc95511610109578063715018a6116100ee578063715018a6146103dd5780637eea8bb7146103e557806380334dbe1461041d57610136565b8063485cc955146102d657806369795e931461030457610136565b8063070e8a4a1461013b5780632cdc9050146101995780633029e60d146101db5780633b8e398a14610231575b600080fd5b6101616004803603602081101561015157600080fd5b50356001600160a01b0316610614565b6040518082606080838360005b8381101561018657818101518382015260200161016e565b5050505090500191505060405180910390f35b6101c5600480360360408110156101af57600080fd5b50803590602001356001600160a01b03166106b0565b604051815181528082610220808383602061016e565b61022f60048036036101608110156101f257600080fd5b81019080806101600190600b806020026040519081016040528092919082600b602002808284376000920191909152509194506107949350505050565b005b61022f6004803603604081101561024757600080fd5b81019060208101813564010000000081111561026257600080fd5b82018360208201111561027457600080fd5b8035906020019184602083028401116401000000008311171561029657600080fd5b91908080602002602001604051908101604052809392919081815260200183836020028082843760009201919091525092955050505035151590506108c5565b61022f600480360360408110156102ec57600080fd5b506001600160a01b038135811691602001351661095f565b61038d6004803603606081101561031a57600080fd5b6001600160a01b03823581169260208101359091169181019060608101604082013564010000000081111561034e57600080fd5b82018360208201111561036057600080fd5b8035906020019184602083028401116401000000008311171561038257600080fd5b509092509050610b31565b60408051602080825283518183015283519192839290830191858101910280838360005b838110156103c95781810151838201526020016103b1565b505050509050019250505060405180910390f35b61022f610f75565b61040b600480360360208110156103fb57600080fd5b50356001600160a01b0316611033565b60408051918252519081900360200190f35b61022f6004803603608081101561043357600080fd5b506001600160a01b0381351690602081013590604081013590606001356110d3565b61040b6004803603604081101561046b57600080fd5b506001600160a01b0381351690602001356110f6565b61048961112d565b604080516001600160a01b039092168252519081900360200190f35b61040b600480360360208110156104bb57600080fd5b50356001600160a01b031661113c565b610501600480360360608110156104e157600080fd5b506001600160a01b03813581169160208101359091169060400135611582565b60408051938452602084019290925282820152519081900360600190f35b61040b6004803603606081101561053557600080fd5b506001600160a01b03813581169160208101358216916040909101351661192d565b61038d6004803603604081101561056d57600080fd5b506001600160a01b0381358116916020013516611adb565b61022f6004803603604081101561059b57600080fd5b50803590602001351515611c27565b61022f600480360360a08110156105c057600080fd5b506001600160a01b038135811691602081013590911690604081013590606081013590608001351515611c3f565b61022f6004803603602081101561060457600080fd5b50356001600160a01b0316611c99565b61061c615dd6565b6001600160a01b03821660009081526080602052604090205460ff1615610687576001600160a01b0382166000908152607f602052604090819020815160608101928390529160039082845b81548152602001906001019080831161066857505050505090506106ab565b60405180606001604052806069548152602001606a548152602001606b5481525090505b919050565b6106b8615df4565b6065548152608154602080830191909152607054604080840191909152607354606084015260008581526074835281812060029081015460808601526001600160a01b038616808352608285528383205460a0870152808352607d8552838320805460c08801526001015460e08701528252607c845282822087835290935220015461010082015261074983611dae565b610120820152608554610140820152608654610160820152608954610180820152608a546101a0820152608b546101c0820152608c546101e0820152608d5461020082015292915050565b61079c611e18565b6040810151602082015161086c916107c7916107c1908560005b602002015190611f3f565b90611f3f565b670de0b6b3a76400001480156107e957506060820151670de0b6b3a764000010155b801561080c575060a0820151610801908360046107b6565b670de0b6b3a7640000145b8015610820575060e082015160c083015111155b8015610836575061012082015161010083015111155b801561084c575061014082015161012083015111155b80156108655750610140820151670de0b6b3a764000011155b6065611f4f565b8051606655602081015160675560408101516068556060810151606d55608081015160855560a081015160865560c081015160895560e0810151608a55610100810151608b55610120810151608c556101400151608d55565b6108cd611e18565b60005b825181101561095a5781608360008584815181106108ea57fe5b60200260200101516001600160a01b03166001600160a01b03168152602001908152602001600020600085848151811061092057fe5b6020908102919091018101516001600160a01b03168252810191909152604001600020805460ff19169115159190911790556001016108d0565b505050565b600054610100900460ff16806109785750610978611f5d565b80610986575060005460ff16155b6109c15760405162461bcd60e51b815260040180806020018281038252602e815260200180615e3a602e913960400191505060405180910390fd5b600054610100900460ff161580156109ec576000805460ff1961ff0019909116610100171660011790555b6109f4611f6e565b610a1e6001600160a01b03841615801590610a1757506001600160a01b03831615155b6017611f4f565b606f80546001600160a01b038086166001600160a01b031992831617909255606e8054858416921691909117908190556040805163568c081360e01b81529051919092169163568c0813916004808301926020929190829003018186803b158015610a8857600080fd5b505afa158015610a9c573d6000803e3d6000fd5b505050506040513d6020811015610ab257600080fd5b5051606c5567016345785d8a0000606981905566b1a2bc2ec50000606a55670b1a2bc2ec500000606b81905560668290556067829055606855606d55670905438e600100006085556704db7325476300006086556001607e5542606555670de0b6b3a7640000608d55801561095a576000805461ff0019169055505050565b6060610b3c85612020565b604080516008808252610120820190925260009160208201610100803683375050606e5460408051633d63472560e21b815290519394506001600160a01b039091169263f58d1c9492506004808301926020929190829003018186803b158015610ba557600080fd5b505afa158015610bb9573d6000803e3d6000fd5b505050506040513d6020811015610bcf57600080fd5b505160408051630cbefec960e31b815290516001600160a01b03909216916365f7f64891600480820192602092909190829003018186803b158015610c1357600080fd5b505afa158015610c27573d6000803e3d6000fd5b505050506040513d6020811015610c3d57600080fd5b50516001600160a01b0387811691161415610c59579050610f6d565b6000866001600160a01b0316633d8270f5876040518263ffffffff1660e01b815260040180826001600160a01b031681526020019150506101406040518083038186803b158015610ca957600080fd5b505afa158015610cbd573d6000803e3d6000fd5b505050506040513d610140811015610cd457600080fd5b5060400151905060005b84811015610f6757610d0b88878784818110610cf657fe5b905060200201356001600160a01b03166120a5565b60408051600880825261012082019092526000916020820161010080368337019050509050610d5789888885818110610d4057fe5b905060200201356001600160a01b03168a86612128565b9050610d9481600081518110610d6957fe5b602002602001015185600081518110610d7e57fe5b6020026020010151611f3f90919063ffffffff16565b84600081518110610da157fe5b602002602001018181525050610dd281600181518110610dbd57fe5b602002602001015185600181518110610d7e57fe5b84600181518110610ddf57fe5b602002602001018181525050610e1081600281518110610dfb57fe5b602002602001015185600281518110610d7e57fe5b84600281518110610e1d57fe5b602002602001018181525050610e4e81600381518110610e3957fe5b602002602001015185600381518110610d7e57fe5b84600381518110610e5b57fe5b602002602001018181525050610e8c81600481518110610e7757fe5b602002602001015185600481518110610d7e57fe5b84600481518110610e9957fe5b602002602001018181525050610eca81600581518110610eb557fe5b602002602001015185600581518110610d7e57fe5b84600581518110610ed757fe5b602002602001018181525050610f0881600681518110610ef357fe5b602002602001015185600681518110610d7e57fe5b84600681518110610f1557fe5b602002602001018181525050610f4681600781518110610f3157fe5b602002602001015185600781518110610d7e57fe5b84600781518110610f5357fe5b602090810291909101015250600101610cde565b50909150505b949350505050565b610f7d612346565b6001600160a01b0316610f8e61112d565b6001600160a01b031614610fe9576040805162461bcd60e51b815260206004820181905260248201527f4f776e61626c653a2063616c6c6572206973206e6f7420746865206f776e6572604482015290519081900360640190fd5b6033546040516000916001600160a01b0316907f8be0079c531659141344cd1fd0a4f28419497f9722a3daafe3b4186f6b6457e0908390a3603380546001600160a01b0319169055565b6000816001600160a01b031663e4df5e1a6040518163ffffffff1660e01b815260040160206040518083038186803b15801561106e57600080fd5b505afa158015611082573d6000803e3d6000fd5b505050506040513d602081101561109857600080fd5b5051156110cb5760006110aa8361234a565b50915050806009815181106110bb57fe5b60200260200101519150506106ab565b5060006106ab565b6110db611e18565b6110e484612020565b6110f0848484846129ea565b50505050565b60006111096002607e5414156054611f4f565b6002607e5561111733612020565b6111218383612a70565b6001607e559392505050565b6033546001600160a01b031690565b604080516003808252608082019092526000918391839160208201606080368337019050509050816001600160a01b031663bf1dcfe26040518163ffffffff1660e01b815260040160e06040518083038186803b15801561119c57600080fd5b505afa1580156111b0573d6000803e3d6000fd5b505050506040513d60e08110156111c657600080fd5b50608081015160a082015160c090920151835191929184906000906111e757fe5b60200260200101846001815181106111fb57fe5b602002602001018560028151811061120f57fe5b602002602001018381525083815250838152505050506112488160018151811061123557fe5b6020026020010151600014156031611f4f565b6065548160018151811061125857fe5b602002602001015110611577576000826001600160a01b0316636db40dc26040518163ffffffff1660e01b815260040160206040518083038186803b1580156112a057600080fd5b505afa1580156112b4573d6000803e3d6000fd5b505050506040513d60208110156112ca57600080fd5b5051905080156112de5792506106ab915050565b604080516002808252606082018352600092602083019080368337019050509050836001600160a01b031663ffb5cd096040518163ffffffff1660e01b81526004016101c06040518083038186803b15801561133957600080fd5b505afa15801561134d573d6000803e3d6000fd5b505050506040513d6101c081101561136457600080fd5b5060c081015160e0909101518251839060009061137d57fe5b602002602001018360018151811061139157fe5b60200260200101828152508281525050506000806113d7856000815181106113b557fe5b6020026020010151866001815181106113ca57fe5b6020026020010151612b72565b9092509050670de0b6b3a764000060005b8381101561152057600061141561140c6276a7006114068786611f3f565b90612c71565b60655490611f3f565b6001600160a01b038c166000908152607c60205260408120919250908161143c8786611f3f565b81526020019081526020016000206002015490506000607460006114698689611f3f90919063ffffffff16565b815260200190815260200160002060020154905061148b818311156047611f4f565b86611497856001611f3f565b14156114d7576114d46114b76114b0856276a700612c95565b8590612c95565b6114ce6114c7866276a700612c95565b4290612c95565b90612ca5565b94505b6000611502866114fc6114f26114ed8b8a611f3f565b611dae565b6114fc8787612ca5565b90612cbd565b905061150e8a82611f3f565b995050600190930192506113e8915050565b506115698460018151811061153157fe5b60200260200101518560008151811061154657fe5b6020026020010151878960008151811061155c57fe5b6020026020010151612cd5565b9750505050505050506106ab565b6000925050506106ab565b60008080611591846001612c95565b6001600160a01b038088166000818152608860209081526040808320948b1680845294825280832054848452607783528184208685528352818420600181015483516370a0823160e01b815260048101989098529251979b50909690959194926370a082319260248082019391829003018186803b15801561161257600080fd5b505afa158015611626573d6000803e3d6000fd5b505050506040513d602081101561163c57600080fd5b505190508315801561164c575081155b1561166557600080600096509650965050505050611924565b831580156116735750600082115b1561168957909550935060009250611924915050565b6001600160a01b03808b166000908152608760209081526040808320938d1683529281528282206000198801835290522054881061174f576001600160a01b038a81166000908152608760209081526040808320938d168352928152828220600019880183529052208054600190910154821061173a576001600160a01b03808c166000908152608760209081526040808320938e168352928152828220600019890183529052206001015461173c565b815b6001860396509650965050505050611924565b6001600160a01b03808b166000908152608760209081526040808320938d1683529281528282208280529052205488108015611789575081155b156117a257600080600096509650965050505050611924565b6001600160a01b03808b166000908152608760209081526040808320938d16835292815282822082805290522054881080156117de5750600082115b1561182757506001600160a01b03808a166000908152608760209081526040808320938c1683529281528282208280529052908120600301549196509094509250611924915050565b600060001985015b818111156118e2576001600160a01b03808d166000908152608760209081526040808320938f168352928152828220600286860381900486038085529183529284902084516080810186528154808252600183015494820194909452938101549484019490945260039093015460608301528c14156118c3578051602090910151909a509850965061192495505050505050565b80518c11156118d4578193506118db565b6001820392505b505061182f565b506001600160a01b038b81166000908152608760209081526040808320938e168352928152828220848352905220805460019091015490985096509450505050505b93509350939050565b600080826001600160a01b0316632aba2af46040518163ffffffff1660e01b815260040160006040518083038186803b15801561196957600080fd5b505afa15801561197d573d6000803e3d6000fd5b505050506040513d6000823e601f3d908101601f1916820160405260608110156119a657600080fd5b8151602083018051604051929492938301929190846401000000008211156119cd57600080fd5b9083019060208201858111156119e257600080fd5b82518660208202830111640100000000821117156119ff57600080fd5b82525081516020918201928201910280838360005b83811015611a2c578181015183820152602001611a14565b5050505090500160405260200180516040519392919084640100000000821115611a5557600080fd5b908301906020820185811115611a6a57600080fd5b8251866020820283011164010000000082111715611a8757600080fd5b82525081516020918201928201910280838360005b83811015611ab4578181015183820152602001611a9c565b5050505090500160405250505050915050611ad0858583612de6565b9150505b9392505050565b6040805160088082526101208201909252606091600091906020820161010080368337019050509050836001600160a01b031663e4df5e1a6040518163ffffffff1660e01b815260040160206040518083038186803b158015611b3d57600080fd5b505afa158015611b51573d6000803e3d6000fd5b505050506040513d6020811015611b6757600080fd5b505115611c1e576000846001600160a01b03166356ba88b86040518163ffffffff1660e01b815260040160206040518083038186803b158015611ba957600080fd5b505afa158015611bbd573d6000803e3d6000fd5b505050506040513d6020811015611bd357600080fd5b5051905060008080611be48861234a565b9250925092506000611bf7858985612de6565b9050611c08858a868b858888613117565b9550611c16858988866133ff565b955050505050505b90505b92915050565b611c303361369f565b611c3b33838361371b565b5050565b611c506002607e5414156054611f4f565b6002607e55611c5e33612020565b600081611c7457611c6f8484612c95565b611c7e565b611c7e8484611f3f565b9050611c8c868683876138ae565b50506001607e5550505050565b611ca1612346565b6001600160a01b0316611cb261112d565b6001600160a01b031614611d0d576040805162461bcd60e51b815260206004820181905260248201527f4f776e61626c653a2063616c6c6572206973206e6f7420746865206f776e6572604482015290519081900360640190fd5b6001600160a01b038116611d525760405162461bcd60e51b8152600401808060200182810382526026815260200180615e146026913960400191505060405180910390fd5b6033546040516001600160a01b038084169216907f8be0079c531659141344cd1fd0a4f28419497f9722a3daafe3b4186f6b6457e090600090a3603380546001600160a01b0319166001600160a01b0392909216919091179055565b6000611dbf6001831015604a611f4f565b6102018210611dd0575060006106ab565b6000611dfa611de0846001612c95565b611df46701aa535d3d0c00006107c1613a5d565b90613a69565b9050611e10690b581ceb141f05c1ae0082612ca5565b9150506106ab565b606e5460408051638da5cb5b60e01b81529051611f3d926001600160a01b031691638da5cb5b916004808301926020929190829003018186803b158015611e5e57600080fd5b505afa158015611e72573d6000803e3d6000fd5b505050506040513d6020811015611e8857600080fd5b50516001600160a01b0316331480611f215750606e60009054906101000a90046001600160a01b03166001600160a01b0316638d97e0436040518163ffffffff1660e01b815260040160206040518083038186803b158015611ee957600080fd5b505afa158015611efd573d6000803e3d6000fd5b505050506040513d6020811015611f1357600080fd5b50516001600160a01b031633145b80611f365750606e546001600160a01b031633145b606b611f4f565b565b80820182811015611c2157600080fd5b81611c3b57611c3b81613aaa565b6000611f6830613afd565b15905090565b600054610100900460ff1680611f875750611f87611f5d565b80611f95575060005460ff16155b611fd05760405162461bcd60e51b815260040180806020018281038252602e815260200180615e3a602e913960400191505060405180910390fd5b600054610100900460ff16158015611ffb576000805460ff1961ff0019909116610100171660011790555b612003613b03565b61200b613ba3565b801561201d576000805461ff00191690555b50565b606e546040805163364d118160e01b81526001600160a01b038481166004830152915161201d93929092169163364d118191602480820192602092909190829003018186803b15801561207257600080fd5b505afa158015612086573d6000803e3d6000fd5b505050506040513d602081101561209c57600080fd5b50516023611f4f565b611c3b826001600160a01b03166306061dfa836040518263ffffffff1660e01b815260040180826001600160a01b0316815260200191505060206040518083038186803b1580156120f557600080fd5b505afa158015612109573d6000803e3d6000fd5b505050506040513d602081101561211f57600080fd5b50516049611f4f565b60408051600880825261012082019092526060916000919060208201610100803683370190505090506000806000876001600160a01b0316632aba2af46040518163ffffffff1660e01b815260040160006040518083038186803b15801561218f57600080fd5b505afa1580156121a3573d6000803e3d6000fd5b505050506040513d6000823e601f3d908101601f1916820160405260608110156121cc57600080fd5b8151602083018051604051929492938301929190846401000000008211156121f357600080fd5b90830190602082018581111561220857600080fd5b825186602082028301116401000000008211171561222557600080fd5b82525081516020918201928201910280838360005b8381101561225257818101518382015260200161223a565b505050509050016040526020018051604051939291908464010000000082111561227b57600080fd5b90830190602082018581111561229057600080fd5b82518660208202830111640100000000821117156122ad57600080fd5b82525081516020918201928201910280838360005b838110156122da5781810151838201526020016122c2565b5050505090500160405250505092509250925085826001815181106122fb57fe5b602002602001015111156123395760006123168a8985612de6565b90506123278a8a868b858888613117565b94506123358a8987866133ff565b9450505b5091979650505050505050565b3390565b6000606080836001600160a01b0316632aba2af46040518163ffffffff1660e01b815260040160006040518083038186803b15801561238857600080fd5b505afa15801561239c573d6000803e3d6000fd5b505050506040513d6000823e601f3d908101601f1916820160405260608110156123c557600080fd5b8151602083018051604051929492938301929190846401000000008211156123ec57600080fd5b90830190602082018581111561240157600080fd5b825186602082028301116401000000008211171561241e57600080fd5b82525081516020918201928201910280838360005b8381101561244b578181015183820152602001612433565b505050509050016040526020018051604051939291908464010000000082111561247457600080fd5b90830190602082018581111561248957600080fd5b82518660208202830111640100000000821117156124a657600080fd5b82525081516020918201928201910280838360005b838110156124d35781810151838201526020016124bb565b50505050905001604052505050809350819450829550505050816009815181106124f957fe5b6020026020010151600014158061252457508160008151811061251857fe5b60200260200101516000145b1561252e576129e3565b6000846001600160a01b0316630126c6066040518163ffffffff1660e01b815260040160206040518083038186803b15801561256957600080fd5b505afa15801561257d573d6000803e3d6000fd5b505050506040513d602081101561259357600080fd5b505183519091506125cd906125c6908590600e9081106125af57fe5b602002602001015183612cbd90919063ffffffff16565b8290612c95565b836007815181106125da57fe5b602002602001018181525050826006815181106125f357fe5b60200260200101518360078151811061260857fe5b602002602001015110158260008151811061261f57fe5b6020026020010190151590811515815250508260088151811061263e57fe5b60200260200101518360078151811061265357fe5b602002602001015110158260018151811061266a57fe5b6020026020010190151590811515815250508160008151811061268957fe5b602002602001015161269c5760006126d7565b6126d7836006815181106126ac57fe5b6020026020010151846007815181106126c157fe5b6020026020010151612c9590919063ffffffff16565b83600a815181106126e457fe5b602002602001018181525050816001815181106126fd57fe5b60200260200101516127335761272e8360078151811061271957fe5b6020026020010151846008815181106126c157fe5b612743565b612743836008815181106126ac57fe5b83600b8151811061275057fe5b6020026020010181815250506000806127c76065548660008151811061277257fe5b6020026020010151116127ab576001600160a01b0388166000908152607c602090815260408083206001808552925290912001546127c1565b856000815181106127b857fe5b60200260200101515b42612b72565b9150915060008267ffffffffffffffff811180156127e457600080fd5b5060405190808252806020026020018201604052801561280e578160200160208202803683370190505b50905060008367ffffffffffffffff8111801561282a57600080fd5b50604051908082528060200260200182016040528015612854578160200160208202803683370190505b50905060005b84811015612922576001600160a01b038a166000908152607c60205260408120906128858684611f3f565b8152602001908152602001600020600201548382815181106128a357fe5b6020908102919091010152607460006128bc8684611f3f565b8152602001908152602001600020600201548282815181106128da57fe5b60200260200101818152505061291a8282815181106128f557fe5b602002602001015184838151811061290957fe5b602002602001015111156047611f4f565b60010161285a565b506129698285858a60028151811061293657fe5b6020026020010151608260008f6001600160a01b03166001600160a01b0316815260200190815260200160002054613c9c565b915061297c818585608154607054613c9c565b90506129c48760078151811061298e57fe5b6020026020010151886006815181106129a357fe5b60200260200101516129b78585888a613e16565b8a60008151811061155c57fe5b876009815181106129d157fe5b60200260200101818152505050505050505b9193909250565b612a0c6129fb826107c18686611f3f565b670d2f13f7789f000014605c611f4f565b60695483141580612a1f5750606a548214155b80612a2c5750606b548114155b156110f0576001600160a01b03939093166000908152608060209081526040808320805460ff19166001908117909155607f90925290912092835582015560020155565b6000612a7a613f0d565b606f54604080516370a0823160e01b815230600482015290516000926001600160a01b0316916370a08231916024808301926020929190829003018186803b158015612ac557600080fd5b505afa158015612ad9573d6000803e3d6000fd5b505050506040513d6020811015612aef57600080fd5b505190506000818411612b025783612b04565b815b9050610f6d606f60009054906101000a90046001600160a01b031686612b5f846040518060400160405280601081526020017f6f766572666c6f77203936206269747300000000000000000000000000000000815250613f8d565b6bffffffffffffffffffffffff16614030565b600080606554841015612b855760655493505b6000612bb0670de0b6b3a7640000612baa6276a700612ba4888a612c95565b90614097565b9061411f565b90506000612bdc670de0b6b3a7640000612baa6276a700612ba46065548b612c9590919063ffffffff16565b90506000612c08670de0b6b3a7640000612baa6276a700612ba46065548b612c9590919063ffffffff16565b9050808214158015612c235750612c20826001611f3f565b81145b8015612c3a57506276a700612c388789612c95565b105b15612c4d57612c4a836001611f3f565b92505b612c58836001611f3f565b612c63836001611f3f565b945094505050509250929050565b6000821580612c8c57505081810281838281612c8957fe5b04145b611c2157600080fd5b80820382811115611c2157600080fd5b6000611c1e82612baa85670de0b6b3a7640000612c71565b6000611c1e670de0b6b3a7640000612baa8585612c71565b600080612ce28686612ca5565b90506000612d0c844211612cf7576001612d01565b612d014286612c95565b6301e1338090612ca5565b9050600080670de0b6b3a76400008410612d3f57612d38612d31846114fc8c8c612c95565b8990611f3f565b9150612d6a565b612d4d836114fc8a8c612c95565b9150878210612d5d576000612d67565b612d678883612c95565b91505b6000612d76838a612ca5565b608954909150811015612d9157608960025b01549150612daa565b608a54811015612da45760896003612d88565b608d5491505b612dd8612dca836114fc886114fc6085548e612cbd90919063ffffffff16565b6086546107c1908b90612cbd565b9a9950505050505050505050565b600080600083600181518110612df857fe5b602002602001015111612e0b5742612e21565b82600181518110612e1857fe5b60200260200101515b6001600160a01b0380871660009081526088602090815260408083209389168352928152828220546083825283832090915291812054929350909160ff16158015612eac5750811580612eac5750600082118015612eac57506001600160a01b038088166000908152608760209081526040808320938a168352928152828220828052905220548311155b8015612edf57506001600160a01b038088166000908152607760209081526040808320938a168352929052206001015415155b6001600160a01b03881660009081526079602090815260408083208380529091528120600101548751929350909187908390612f1757fe5b6020026020010151109050818015612f2c5750805b8015612f5957506001600160a01b038816600090815260836020908152604080832090915290205460ff16155b15612f8957612f7e88888689600d81518110612f7157fe5b6020026020010151614186565b945050505050611ad4565b6000806000612f998b8b89611582565b9250925092506402540be400821015612fbc576000975050505050505050611ad4565b600089600081518110612fcb57fe5b602002602001015190506000808b600181518110612fe557fe5b602002602001015111801561300e575060008b600d8151811061300457fe5b6020026020010151115b61307c578c6001600160a01b03166318160ddd6040518163ffffffff1660e01b815260040160206040518083038186803b15801561304b57600080fd5b505afa15801561305f573d6000803e3d6000fd5b505050506040513d602081101561307557600080fd5b5051613092565b8a600d8151811061308957fe5b60200260200101515b9050818511156130fc5787156130ca5760006130b18e8e85878e614385565b90508481116130c057806130c2565b845b9450506130fc565b8885106130d85760006130f9565b6130f96130e58a84612c95565b612baa6130f28c89612c95565b8790612c71565b93505b6131068482612ca5565b9d9c50505050505050505050505050565b6040805160088082526101208201909252606091600091906020820161010080368337019050509050856001600160a01b0316876001600160a01b03161461316057600061316a565b61316a84846145d0565b8160008151811061317757fe5b602002602001018181525050856001600160a01b0316876001600160a01b03161480156131bc5750826000815181106131ac57fe5b6020026020010151151560011515145b6131c75760006131e5565b6131e58985600a815181106131d857fe5b602002602001015161470a565b816001815181106131f257fe5b60200260200101818152505061320a8887868661475a565b8160028151811061321757fe5b6020026020010181815250508260008151811061323057fe5b60200260200101511515600115151461324a576000613257565b6132578989888787614a70565b8160038151811061326457fe5b60200260200101818152505061328e8460098151811061328057fe5b602002602001015186614c43565b8160048151811061329b57fe5b6020026020010181815250506132ee89876132e9846004815181106132bc57fe5b60200260200101516107c1866002815181106132d457fe5b602002602001015187600081518110610d7e57fe5b614c5f565b816005815181106132fb57fe5b60200260200101818152505061332c8160038151811061331757fe5b602002602001015182600181518110610d7e57fe5b8160068151811061333957fe5b6020026020010181815250506133828160048151811061335557fe5b60200260200101516107c18360028151811061336d57fe5b602002602001015184600081518110610d7e57fe5b8160058151811061338f57fe5b6020026020010151116133a35760006133db565b6133db6133ce826004815181106133b657fe5b60200260200101516107c184600281518110610d6957fe5b826005815181106126c157fe5b816007815181106133e857fe5b602090810291909101015298975050505050505050565b604080516306fe61dd60e21b81526001600160a01b0385811660048301528616602482015290516060916000917326231a65ef80706307bbe71f032dc1e5bf28ce4391631bf987749160448083019260e0929190829003018186803b15801561346757600080fd5b505afa15801561347b573d6000803e3d6000fd5b505050506040513d601f19601f8201168201806040525060e08110156134a057600080fd5b50905060006134df8260066020020151856000815181106134bd57fe5b6020026020010151866001815181106134d257fe5b6020026020010151614ee7565b8251909150158015906134f25750600081115b1561369457613540613533613510838560025b602002015190612cbd565b8760008151811061351d57fe5b6020026020010151614f7d90919063ffffffff16565b86600081518110610d7e57fe5b8560008151811061354d57fe5b602090810291909101015261358461357761356a83856003613505565b8760028151811061351d57fe5b86600281518110610d7e57fe5b8560028151811061359157fe5b60209081029190910101526135c86135bb6135ae83856004613505565b8760048151811061351d57fe5b86600481518110610d7e57fe5b856004815181106135d557fe5b602090810291909101015261360c6135ff6135f283856005613505565b8760078151811061351d57fe5b86600781518110610d7e57fe5b8560078151811061361957fe5b60200260200101818152505061367a8560078151811061363557fe5b60200260200101516107c18760048151811061364d57fe5b60200260200101516107c18960028151811061366557fe5b60200260200101518a600081518110610d7e57fe5b8560058151811061368757fe5b6020026020010181815250505b509295945050505050565b6000816001600160a01b03166356ba88b86040518163ffffffff1660e01b815260040160206040518083038186803b1580156136da57600080fd5b505afa1580156136ee573d6000803e3d6000fd5b505050506040513d602081101561370457600080fd5b5051905061371181612020565b611c3b81836120a5565b6000836001600160a01b03166356ba88b86040518163ffffffff1660e01b815260040160206040518083038186803b15801561375657600080fd5b505afa15801561376a573d6000803e3d6000fd5b505050506040513d602081101561378057600080fd5b505160408051631f0b96b960e31b815290516001600160a01b039092169163f85cb5c891600480820192602092909190829003018186803b1580156137c457600080fd5b505afa1580156137d8573d6000803e3d6000fd5b505050506040513d60208110156137ee57600080fd5b50519050600061380082868686614f99565b9050613885613878836001600160a01b031663313ce5676040518163ffffffff1660e01b815260040160206040518083038186803b15801561384157600080fd5b505afa158015613855573d6000803e3d6000fd5b505050506040513d602081101561386b57600080fd5b505160129060ff16612c95565b600a0a6114068684612cbd565b935061388f61516c565b613898856155fd565b6138a3858585615a50565b505042608155505050565b6001600160a01b038085166000908152608860209081526040808320938716835292905220544290801580159061391557506001600160a01b0380871660009081526087602090815260408083209389168352928152828220600019850183529052205482145b15613956576001600160a01b038087166000908152608760209081526040808320938916835292815282822060001985018352905220600101849055613a55565b806139c4576040805160808101825283815260208082018781526000838501818152606085018981526001600160a01b03808e16845260878652878420908d168452855286832088845290945294902092518355516001830155915160028201559051600390910155613a29565b6040805160808101825283815260208082018781526000838501818152606085018281526001600160a01b03808e16845260878652878420908d1684528552868320888452909452949020925183555160018301559151600282015590516003909101555b6001600160a01b0380871660009081526088602090815260408083209389168352929052206001820190555b505050505050565b670de0b6b3a764000090565b600080613a74613a5d565b90505b8215611c1e576002830615613a9357613a908185614f7d565b90505b613a9d8480614f7d565b9350600283049250613a77565b62461bcd60e51b6000908152602060045260076024526642414223000030600a808404818106603090810160081b95839006959095019082900491820690940160101b939093010160c81b604452606490fd5b3b151590565b600054610100900460ff1680613b1c5750613b1c611f5d565b80613b2a575060005460ff16155b613b655760405162461bcd60e51b815260040180806020018281038252602e815260200180615e3a602e913960400191505060405180910390fd5b600054610100900460ff1615801561200b576000805460ff1961ff001990911661010017166001179055801561201d576000805461ff001916905550565b600054610100900460ff1680613bbc5750613bbc611f5d565b80613bca575060005460ff16155b613c055760405162461bcd60e51b815260040180806020018281038252602e815260200180615e3a602e913960400191505060405180910390fd5b600054610100900460ff16158015613c30576000805460ff1961ff0019909116610100171660011790555b6000613c3a612346565b603380546001600160a01b0319166001600160a01b038316908117909155604051919250906000907f8be0079c531659141344cd1fd0a4f28419497f9722a3daafe3b4186f6b6457e0908290a350801561201d576000805461ff001916905550565b60606000613ca984615b3a565b90506000613cb642615b3a565b90506000613cc44287612c95565b90506000613cd28683612c71565b90508015613e055760005b89811015613e03576000613cfb61140c6276a7006114068d86611f3f565b905081158015613d0a57508986145b8015613d1557508486105b15613d5757613d3a613d2e85612baa6130f2858e612c95565b8d8481518110610d7e57fe5b8c8381518110613d4657fe5b602002602001018181525050613dfa565b600082118015613d7057508a613d6e836001611f3f565b105b8015613d855750613d818a83611f3f565b8611155b15613d9e57613d3a613d2e85612baa866276a700612c71565b84613da98b84611f3f565b1415613dfa5784861415613dc757613d3a838d8481518110610d7e57fe5b613de1613d2e85612baa6130f26114c7866276a700612c95565b8c8381518110613ded57fe5b6020026020010181815250505b50600101613cdd565b505b899450505050505b95945050505050565b600080670de0b6b3a7640000815b84811015610f675784613e38826001611f3f565b1415613e84576000613e5461140c6276a7006114068a86611f3f565b9050613e80613e70613e69836276a700612c95565b8390612c95565b6114ce6114c7846276a700612c95565b9250505b6000613ef6836114fc613e9a6114ed8b87611f3f565b6114fc8c8781518110613ea957fe5b6020026020010151600014613ed1578c8781518110613ec457fe5b6020026020010151613ed4565b60015b8e8881518110613ee057fe5b6020026020010151612ca590919063ffffffff16565b9050613f028482611f3f565b935050600101613e24565b606e5460408051635b14f18360e01b81523060048201529051611f3d926001600160a01b031691635b14f183916024808301926020929190829003018186803b158015613f5957600080fd5b505afa158015613f6d573d6000803e3d6000fd5b505050506040513d6020811015613f8357600080fd5b5051156053611f4f565b6000816c0100000000000000000000000084106140285760405162461bcd60e51b81526004018080602001828103825283818151815260200191508051906020019080838360005b83811015613fed578181015183820152602001613fd5565b50505050905090810190601f16801561401a5780820380516001836020036101000a031916815260200191505b509250505060405180910390fd5b509192915050565b604080516001600160a01b038416602482015260448082018490528251808303909101815260649091019091526020810180517bffffffffffffffffffffffffffffffffffffffffffffffffffffffff1663a9059cbb60e01b17905261095a908490615b83565b6000816140eb576040805162461bcd60e51b815260206004820152601060248201527f43616e7420646976696465206279203000000000000000000000000000000000604482015290519081900360640190fd5b600083116140fa576000611c1e565b611c1e60016107c184612baa8361411989670de0b6b3a7640000612c71565b90612c95565b6000808211614175576040805162461bcd60e51b815260206004820152601a60248201527f536166654d6174683a206469766973696f6e206279207a65726f000000000000604482015290519081900360640190fd5b81838161417e57fe5b049392505050565b6001600160a01b0380851660008181526077602090815260408083209488168352938152838220928252607981528382208280529052918220600182015415806141d35750848260010154115b156141e357600092505050610f6d565b60006141f488888560000154611582565b50915050600080861161426b57886001600160a01b03166318160ddd6040518163ffffffff1660e01b815260040160206040518083038186803b15801561423a57600080fd5b505afa15801561424e573d6000803e3d6000fd5b505050506040513d602081101561426457600080fd5b505161426d565b855b905060006142a961428f84611406886000015442612c9590919063ffffffff16565b600080805260048801602052604090206003015490611f3f565b905060006142d66142cb84611406886001015442612c9590919063ffffffff16565b600287015490611f3f565b905060006142e4428b612c95565b6000808052600489016020526040812054919250906143039083612c71565b87549091506000906143159084612c71565b905081851161432557600061432f565b61432f8583612c95565b945080841161433f576001614349565b6143498482612c95565b935060006143578686612ca5565b9050670de0b6b3a76400008111156143745750670de0b6b3a76400005b9950610f6d98505050505050505050565b6000806000614395888888611582565b9250925050838614156143aa57509050613e0d565b6001600160a01b038089166000908152608760209081526040808320938b1683529281528282208883529052908120548190614422906143eb908890612c95565b6001600160a01b03808d166000908152608760209081526040808320938f1683529281528282208c83529052206001015490612c71565b9150865b83811115614555576001600160a01b03808c166000908152608760209081526040808320938e16835292905290812081614461846001612c95565b815260200190815260200160002060405180608001604052908160008201548152602001600182015481526020016002820154815260200160038201548152505090506145268a8260000151116144b8578a6144bb565b81515b608760008f6001600160a01b03166001600160a01b0316815260200190815260200160002060008e6001600160a01b03166001600160a01b03168152602001908152602001600020600085815260200190815260200160002060000154612c9590919063ffffffff16565b9250614549614542848360200151612c7190919063ffffffff16565b8590611f3f565b93505060001901614426565b506001600160a01b03808b166000908152608760209081526040808320938d168352928152828220828052905220548315801561459157508881115b156145b0576145ad6145a66130f2838c612c95565b8490611f3f565b92505b6145c46145bd888b612c95565b849061411f565b95505050505050613e0d565b6000806145e66066548560098151811061351d57fe5b9050826000815181106145f557fe5b602002602001015115156001151514801561462857508260018151811061461857fe5b6020026020010151151560011515145b1561468157600061463a826002612c71565b905061466b6146648660068151811061464f57fe5b602002602001015187600781518110613ee057fe5b8390612cbd565b915080821115614679578091505b509050611c21565b8260008151811061468e57fe5b60200260200101511515600115151480156146be5750826001815181106146b157fe5b6020908102919091010151155b15614700576146f86125c6613e696146f1876008815181106146dc57fe5b602002602001015188600781518110613ee057fe5b8490612cbd565b915050611c21565b6000915050611c21565b6001600160a01b038216600090815260806020526040812054819060ff166147345760695461474e565b6001600160a01b0384166000908152607f60205260409020545b9050610f6d8382614f7d565b600080856001600160a01b031663950c7822866040518263ffffffff1660e01b815260040180826001600160a01b0316815260200191505060206040518083038186803b1580156147aa57600080fd5b505afa1580156147be573d6000803e3d6000fd5b505050506040513d60208110156147d457600080fd5b5051845190915060009061480490869060059081106147ef57fe5b602002602001015186600481518110610d7e57fe5b905060008060008413801561483157508560008151811061482157fe5b6020026020010151151560011515145b801561485557508560018151811061484557fe5b6020026020010151151560011515145b1561489e576148976148848860048151811061486d57fe5b602002602001015186612ca590919063ffffffff16565b6114fc6067548a60098151811061351d57fe5b9050614a64565b6000841380156148c65750856000815181106148b657fe5b6020026020010151151560011515145b80156148e75750856001815181106148da57fe5b6020908102919091010151155b15614926576148f96148848585612ca5565b90506148976125c66146648960088151811061491157fe5b60200260200101518a600b81518110613ee057fe5b60008413801561494b57508560008151811061493e57fe5b6020908102919091010151155b1561495857506000614a64565b60008412801561497d57508560018151811061497057fe5b6020908102919091010151155b15614a335760008660008151811061499157fe5b60200260200101516149b757876005815181106149aa57fe5b60200260200101516149b9565b835b90506149de6149cb826114ce88615c34565b6114fc6067548b60098151811061351d57fe5b91506149eb826002612c71565b9250614a1f614a186146f18a600881518110614a0357fe5b60200260200101518b600b81518110613ee057fe5b8390611f3f565b915082821115614a2d578291505b50614a64565b600084128015614a5b575085600181518110614a4b57fe5b6020026020010151151560011515145b15614a64575060005b98975050505050505050565b600080856001600160a01b031663950c7822866040518263ffffffff1660e01b815260040180826001600160a01b0316815260200191505060206040518083038186803b158015614ac057600080fd5b505afa158015614ad4573d6000803e3d6000fd5b505050506040513d6020811015614aea57600080fd5b50518451909150600090614b0590869060059081106147ef57fe5b6001600160a01b0389166000908152608060205260408120549192509060ff16614b3157606a54614b4e565b6001600160a01b0389166000908152607f60205260409020600101545b90506000831315614bb357600085600181518110614b6857fe5b6020026020010151614b7a5782614b90565b86600481518110614b8757fe5b60200260200101515b9050614bab816114ce866114fc868c600a8151811061351d57fe5b945050614c37565b600083128015614bd8575084600181518110614bcb57fe5b6020908102919091010151155b15614c0557614bfe826114ce614bed86615c34565b6114fc858b600a8151811061351d57fe5b9350614c37565b600083128015614c2d575084600181518110614c1d57fe5b6020026020010151151560011515145b15614c3757600093505b50505095945050505050565b600080610f6d836114fc60685487614f7d90919063ffffffff16565b6000808490506000846001600160a01b0316826001600160a01b03166302d05d3f6040518163ffffffff1660e01b815260040160206040518083038186803b158015614caa57600080fd5b505afa158015614cbe573d6000803e3d6000fd5b505050506040513d6020811015614cd457600080fd5b5051604080516302d05d3f60e01b815290516001600160a01b0392831693909314935060009283928616916302d05d3f916004808301926020929190829003018186803b158015614d2457600080fd5b505afa158015614d38573d6000803e3d6000fd5b505050506040513d6020811015614d4e57600080fd5b50516001600160a01b03161415614d66576000614d69565b60015b905060005b60048160ff161015614e2f576000846001600160a01b03166363f568b9836040518263ffffffff1660e01b8152600401808260ff16815260200191505060206040518083038186803b158015614dc357600080fd5b505afa158015614dd7573d6000803e3d6000fd5b505050506040513d6020811015614ded57600080fd5b505190506001600160a01b03811615614e26576001909201918380614e235750876001600160a01b0316816001600160a01b0316145b93505b50600101614d6e565b5060ff8116614ec257614eb8614eb1886001600160a01b031663f251fc8c6040518163ffffffff1660e01b815260040160206040518083038186803b158015614e7757600080fd5b505afa158015614e8b573d6000803e3d6000fd5b505050506040513d6020811015614ea157600080fd5b5051606d54612baa908990614f7d565b8690611f3f565b9350505050611ad4565b811561369457614eb8614eb18260ff16612baa606d5489614f7d90919063ffffffff16565b600083614ef657506000611ad4565b828411158015614f065750600083115b15614f1a5750670de0b6b3a7640000611ad4565b8184108015614f295750600082115b15614f4c57614f45614f3b8385612c95565b6114ce8487612c95565b9050611ad4565b4284108015614f59575081155b15614f7557614f45614f6b4285612c95565b6114ce4287612c95565b506000611ad4565b6000670de0b6b3a7640000614f928484612c71565b8161417e57fe5b600080606e60009054906101000a90046001600160a01b03166001600160a01b0316632630c12f6040518163ffffffff1660e01b815260040160206040518083038186803b158015614fea57600080fd5b505afa158015614ffe573d6000803e3d6000fd5b505050506040513d602081101561501457600080fd5b505160408051635620c32d60e11b81526001600160a01b038981166004830152736b175474e89094c44da98b954eedeac495271d0f602483015291519293506000929184169163ac41865a91604480820192602092909190829003018186803b15801561508057600080fd5b505afa158015615094573d6000803e3d6000fd5b505050506040513d60208110156150aa57600080fd5b50516001600160a01b0387166000908152607d602052604090208054919250906150e0578581556001018190559150610f6d9050565b841561513757805461511f906150f69088611f3f565b6114ce670de0b6b3a7640000612baa61510f8b88612c71565b865460018801546107c191612c71565b600182015580546151309087611f3f565b815561515e565b80546000908711615148578661514b565b81545b825490915061515a9082612c95565b8255505b600101549250610f6d915050565b60408051600480825260a0820190925260009160208201608080368337505060815491925050156151a7576151a2608154615b3a565b6151aa565b60015b816000815181106151b757fe5b6020026020010181815250506151cc42615b3a565b816001815181106151d957fe5b60209081029190910101526081546151f2904290612c95565b816002815181106151ff57fe5b6020026020010181815250506000607460008360018151811061521e57fe5b60200260200101518152602001908152602001600020905060815460001461526e576152698260028151811061525057fe5b6020026020010151607054612c7190919063ffffffff16565b615271565b60005b8260038151811061527e57fe5b602002602001018181525050607560008360018151811061529b57fe5b60209081029190910181015182528101919091526040016000205460ff1661559a5760815415615555576152d76001836001815181106126c157fe5b826000815181106152e457fe5b602002602001015114156153d4576153518260028151811061530257fe5b6020026020010151612baa6153446114c761140c6276a7006141196276a7008a60018151811061532e57fe5b6020026020010151612c7190919063ffffffff16565b8560038151811061532e57fe5b6002820181905582516153a59161536f91859060039081106126c157fe5b607460006153856001876001815181106126c157fe5b815260200190815260200160002060020154611f3f90919063ffffffff16565b607460006153bb6001866001815181106126c157fe5b8152602081019190915260400160002060020155615555565b60005b6153fc836000815181106153e757fe5b6020026020010151846001815181106126c157fe5b8111615553576000607460006154198487600081518110610d7e57fe5b81526020019081526020016000209050600061544661140c6276a7006114068689600081518110610d7e57fe5b9050826154a25761549861548d8660028151811061546057fe5b6020026020010151612baa61548060815486612c9590919063ffffffff16565b8960038151811061532e57fe5b600284015490611f3f565b6002830155615549565b6154c7856000815181106154b257fe5b6020026020010151866001815181106126c157fe5b8310156154fa57615498856002815181106154de57fe5b6020026020010151612baa6276a7008860038151811061532e57fe5b6155438560028151811061550a57fe5b6020026020010151612baa6155366114c761140c6276a7006141196276a7008d60018151811061532e57fe5b8860038151811061532e57fe5b60028501555b50506001016153d7565b505b6001607560008460018151811061556857fe5b6020026020010151815260200190815260200160002060006101000a81548160ff021916908315150217905550611c3b565b6155c5826003815181106155aa57fe5b60200260200101518260020154611f3f90919063ffffffff16565b81600201819055506155f6826003815181106155dd57fe5b6020026020010151607354611f3f90919063ffffffff16565b6073555050565b60408051600580825260c082019092526000916020820160a080368337019050509050816001600160a01b031663bf1dcfe26040518163ffffffff1660e01b815260040160e06040518083038186803b15801561565957600080fd5b505afa15801561566d573d6000803e3d6000fd5b505050506040513d60e081101561568357600080fd5b50608081015160c0909101518251839060009061569c57fe5b60200260200101836001815181106156b057fe5b6020026020010182815250828152505050606554816001815181106156d157fe5b60200260200101511015615733576001600160a01b0382166000908152607c602090815260408083206001808552925290912090810154615713574260018201555b80600101548260018151811061572557fe5b602002602001018181525050505b61575a8160018151811061574357fe5b602002602001015142612c9590919063ffffffff16565b8160028151811061576757fe5b60200260200101818152505061577c42615b3a565b8160038151811061578957fe5b6020026020010181815250506000607c6000846001600160a01b03166001600160a01b031681526020019081526020016000206000836003815181106157cb57fe5b60200260200101518152602001908152602001600020905061582f826002815181106157f357fe5b602002602001015160826000866001600160a01b03166001600160a01b0316815260200190815260200160002054612c7190919063ffffffff16565b8260048151811061583c57fe5b6020908102919091010152600381015460ff16615a36576158708260008151811061586357fe5b6020026020010151615b3a565b8260038151811061587d57fe5b60200260200101511115615a225760008061589e846001815181106127b857fe5b9150915060005b82811015615a1e576001600160a01b0386166000908152607c60205260408120816158d08585611f3f565b8152602001908152602001600020905060006158ff61140c6276a7006114068688611f3f90919063ffffffff16565b9050826159625761595861548d8860028151811061591957fe5b6020026020010151612baa61594b8b60018151811061593457fe5b602002602001015186612c9590919063ffffffff16565b8b60048151811061532e57fe5b6002830155615a14565b60008311801561597b575084615979846001611f3f565b105b156159c5576159ac8760028151811061599057fe5b6020026020010151612baa6276a7008a60048151811061532e57fe5b600283015560038201805460ff19166001179055615a14565b615a0e876002815181106159d557fe5b6020026020010151612baa615a016114c761140c6276a7006141196276a7008f60038151811061532e57fe5b8a60048151811061532e57fe5b60028301555b50506001016158a5565b5050505b60038101805460ff1916600117905561095a565b615a46826004815181106155aa57fe5b6002820155505050565b80615ae9576001600160a01b0383166000908152608260205260408120548311615a7a5782615a94565b6001600160a01b0384166000908152608260205260409020545b607054909150615aa49082612c95565b6070556001600160a01b038416600090815260826020526040902054615aca9082612c95565b6001600160a01b0385166000908152608260205260409020555061095a565b607054615af69083611f3f565b6070556001600160a01b038316600090815260826020526040902054615b1c9083611f3f565b6001600160a01b038416600090815260826020526040902055505050565b600080606554831015615b4e576000615b76565b615b76670de0b6b3a7640000612baa6276a700612ba460655488612c9590919063ffffffff16565b9050611ad4816001611f3f565b6000615bd8826040518060400160405280602081526020017f5361666545524332303a206c6f772d6c6576656c2063616c6c206661696c6564815250856001600160a01b0316615c4b9092919063ffffffff16565b80519091501561095a57808060200190516020811015615bf757600080fd5b505161095a5760405162461bcd60e51b815260040180806020018281038252602a815260200180615e68602a913960400191505060405180910390fd5b600080821215615c475781600003611c21565b5090565b6060610f6d848460008585615c5f85613afd565b615cb0576040805162461bcd60e51b815260206004820152601d60248201527f416464726573733a2063616c6c20746f206e6f6e2d636f6e7472616374000000604482015290519081900360640190fd5b600080866001600160a01b031685876040518082805190602001908083835b60208310615cee5780518252601f199092019160209182019101615ccf565b6001836020036101000a03801982511681845116808217855250505050505090500191505060006040518083038185875af1925050503d8060008114615d50576040519150601f19603f3d011682016040523d82523d6000602084013e615d55565b606091505b5091509150615d65828286615d70565b979650505050505050565b60608315615d7f575081611ad4565b825115615d8f5782518084602001fd5b60405162461bcd60e51b8152602060048201818152845160248401528451859391928392604401919085019080838360008315613fed578181015183820152602001613fd5565b60405180606001604052806003906020820280368337509192915050565b604051806102200160405280601190602082028036833750919291505056fe4f776e61626c653a206e6577206f776e657220697320746865207a65726f2061646472657373496e697469616c697a61626c653a20636f6e747261637420697320616c726561647920696e697469616c697a65645361666545524332303a204552433230206f7065726174696f6e20646964206e6f742073756363656564a264697066735822122071536fc9e31429d1fd9c87d6ad83e119a143354b13330f699c2a57ea86f9593d64736f6c63430007060033",
  "devdoc": {
    "kind": "dev",
    "methods": {
      "checkMining(uint256,address)": {
        "params": {
          "_quarterNum": "Number of quarter",
          "_strategy": "Address of strategy"
        }
      },
      "estimateStrategyRewards(address)": {
        "params": {
          "_strategy": "Address of the strategy to estimate BABL rewards"
        },
        "returns": {
          "_0": "the estimated BABL rewards"
        }
      },
      "estimateUserRewards(address,address)": {
        "params": {
          "_contributor": "Address of the garden contributor",
          "_strategy": "Address of the strategy to estimate BABL rewards"
        },
        "returns": {
          "_0": "Array of size 8 with the following distribution: rewards[0]: Strategist BABL rewards[1]: Strategist Profit rewards[2]: Steward BABL rewards[3]: Steward Profit rewards[4]: LP BABL rewards[5]: total BABL rewards[6]: total Profits rewards[7]: Creator bonus"
        }
      },
      "getGardenProfitsSharing(address)": {
        "params": {
          "_garden": "Address of the garden"
        }
      },
      "getPriorBalance(address,address,uint256)": {
        "params": {
          "_address": "Address to get prior balance for",
          "_blockTime": "Block timestamp to get token power at",
          "_garden": "Address of the garden"
        },
        "returns": {
          "_0": "Token power for an account at specific block"
        }
      },
      "getRewards(address,address,address[])": {
        "params": {
          "_contributor": "Address of the contributor to check",
          "_finalizedStrategies": "List of addresses of the finalized strategies to check",
          "_garden": "Garden to which the strategies and the user must belong to"
        },
        "returns": {
          "_0": "Array of size 7 with the following distribution: rewards[0]: Strategist BABL rewards[1]: Strategist Profit rewards[2]: Steward BABL rewards[3]: Steward Profit rewards[4]: LP BABL rewards[5]: total BABL rewards[6]: total Profits rewards[7]: Creator bonus"
        }
      },
      "getSafeUserSharePerStrategy(address,address,address)": {
        "params": {
          "_contributor": "Address of the garden contributor",
          "_garden": "Address of the garden",
          "_strategy": "Address of the strategy"
        },
        "returns": {
          "_0": "% deserved share per user"
        }
      },
      "getStrategyRewards(address)": {
        "params": {
          "_strategy": "Strategy to check"
        }
      },
      "migrateAddressToCheckpoints(address[],bool)": {
        "params": {
          "_address": "Array of Address to migrate (garden or user)",
          "_toMigrate": "Bool to migrate (true) or redo (false)"
        }
      },
      "owner()": {
        "details": "Returns the address of the current owner."
      },
      "renounceOwnership()": {
        "details": "Leaves the contract without owner. It will not be possible to call `onlyOwner` functions anymore. Can only be called by the current owner. NOTE: Renouncing ownership will leave the contract without an owner, thereby removing any functionality that is only available to the owner."
      },
      "setBABLMiningParameters(uint256[11])": {
        "params": {
          "_newMiningParams": "Array of new mining params to be set by government"
        }
      },
      "setProfitRewards(address,uint256,uint256,uint256)": {
        "params": {
          "_garden": "Address of the garden",
          "_lpShare": "New % of lpShare",
          "_stewardsShare": "New % of stewardsShare",
          "_strategistShare": "New % of strategistShare"
        }
      },
      "transferOwnership(address)": {
        "details": "Transfers ownership of the contract to a new account (`newOwner`). Can only be called by the current owner."
      },
      "updateGardenPowerAndContributor(address,address,uint256,uint256,bool)": {
        "params": {
          "_addOrSubstract": "Whether the contributor is adding (true) or withdrawing capital (false)",
          "_contributor": "Address of the contributor",
          "_garden": "Address of the garden",
          "_previousBalance": "Previous balance of the contributor",
          "_tokenDiff": "Amount difference in this deposit/withdraw"
        }
      },
      "updateProtocolPrincipal(uint256,bool)": {
        "params": {
          "_addOrSubstract": "Whether we are adding or substracting capital",
          "_capital": "Amount of capital in any type of asset to be normalized into DAI"
        }
      }
    },
    "version": 1
  },
  "userdoc": {
    "kind": "user",
    "methods": {
      "checkMining(uint256,address)": {
        "notice": "Check the mining program state for a specific quarter and strategy"
      },
      "estimateStrategyRewards(address)": {
        "notice": "Get an estimation of strategy BABL rewards for active strategies in the mining program"
      },
      "estimateUserRewards(address,address)": {
        "notice": "Get an estimation of user rewards for active strategies"
      },
      "getGardenProfitsSharing(address)": {
        "notice": "Check the garden profit sharing % if different from default"
      },
      "getPriorBalance(address,address,uint256)": {
        "notice": "Get token power at a specific block for an account"
      },
      "getRewards(address,address,address[])": {
        "notice": "Calculates the profits and BABL that a contributor should receive from a series of finalized strategies"
      },
      "getSafeUserSharePerStrategy(address,address,address)": {
        "notice": "Get a safe user share position within a strategy of a garden"
      },
      "getStrategyRewards(address)": {
        "notice": "Gets the baseline amount of BABL rewards for a given strategy"
      },
      "migrateAddressToCheckpoints(address[],bool)": {
        "notice": "PRIVILEGE FUNCTION Migrates by governance: (2 options) a) the whole garden or a user for all gardens into checkpoints deprecating c-power"
      },
      "sendBABLToContributor(address,uint256)": {
        "notice": "Sending BABL as part of the claim process (either by sig or standard claim) If it is the Heart Garden, the claim is done by the garden during each strategy finalization This is due to the Heart Garden is auto-compounding all rewards"
      },
      "setBABLMiningParameters(uint256[11])": {
        "notice": "PRIVILEGE FUNCTION Change default BABL shares % by the governance"
      },
      "setProfitRewards(address,uint256,uint256,uint256)": {
        "notice": "PRIVILEGE FUNCTION Set customized profit shares for a specific garden by the gardener"
      },
      "updateGardenPowerAndContributor(address,address,uint256,uint256,bool)": {
        "notice": "Function used by each garden to signal each deposit and withdrawal in checkpoints to be used for rewards"
      },
      "updateProtocolPrincipal(uint256,bool)": {
        "notice": "Function that adds/substract the capital received to the total principal of the protocol per timestamp"
      }
    },
    "version": 1
  },
  "storageLayout": {
    "storage": [
      {
        "astId": 492,
        "contract": "contracts/token/RewardsDistributor.sol:RewardsDistributorV15",
        "label": "_initialized",
        "offset": 0,
        "slot": "0",
        "type": "t_bool"
      },
      {
        "astId": 495,
        "contract": "contracts/token/RewardsDistributor.sol:RewardsDistributorV15",
        "label": "_initializing",
        "offset": 1,
        "slot": "0",
        "type": "t_bool"
      },
      {
        "astId": 1447,
        "contract": "contracts/token/RewardsDistributor.sol:RewardsDistributorV15",
        "label": "__gap",
        "offset": 0,
        "slot": "1",
        "type": "t_array(t_uint256)50_storage"
      },
      {
        "astId": 10,
        "contract": "contracts/token/RewardsDistributor.sol:RewardsDistributorV15",
        "label": "_owner",
        "offset": 0,
        "slot": "51",
        "type": "t_address"
      },
      {
        "astId": 129,
        "contract": "contracts/token/RewardsDistributor.sol:RewardsDistributorV15",
        "label": "__gap",
        "offset": 0,
        "slot": "52",
        "type": "t_array(t_uint256)49_storage"
      },
      {
        "astId": 60545,
        "contract": "contracts/token/RewardsDistributor.sol:RewardsDistributorV15",
        "label": "START_TIME",
        "offset": 0,
        "slot": "101",
        "type": "t_uint256"
      },
      {
        "astId": 60547,
        "contract": "contracts/token/RewardsDistributor.sol:RewardsDistributorV15",
        "label": "strategistBABLPercentage",
        "offset": 0,
        "slot": "102",
        "type": "t_uint256"
      },
      {
        "astId": 60549,
        "contract": "contracts/token/RewardsDistributor.sol:RewardsDistributorV15",
        "label": "stewardsBABLPercentage",
        "offset": 0,
        "slot": "103",
        "type": "t_uint256"
      },
      {
        "astId": 60551,
        "contract": "contracts/token/RewardsDistributor.sol:RewardsDistributorV15",
        "label": "lpsBABLPercentage",
        "offset": 0,
        "slot": "104",
        "type": "t_uint256"
      },
      {
        "astId": 60553,
        "contract": "contracts/token/RewardsDistributor.sol:RewardsDistributorV15",
        "label": "strategistProfitPercentage",
        "offset": 0,
        "slot": "105",
        "type": "t_uint256"
      },
      {
        "astId": 60555,
        "contract": "contracts/token/RewardsDistributor.sol:RewardsDistributorV15",
        "label": "stewardsProfitPercentage",
        "offset": 0,
        "slot": "106",
        "type": "t_uint256"
      },
      {
        "astId": 60557,
        "contract": "contracts/token/RewardsDistributor.sol:RewardsDistributorV15",
        "label": "lpsProfitPercentage",
        "offset": 0,
        "slot": "107",
        "type": "t_uint256"
      },
      {
        "astId": 60559,
        "contract": "contracts/token/RewardsDistributor.sol:RewardsDistributorV15",
        "label": "profitProtocolFee",
        "offset": 0,
        "slot": "108",
        "type": "t_uint256"
      },
      {
        "astId": 60561,
        "contract": "contracts/token/RewardsDistributor.sol:RewardsDistributorV15",
        "label": "gardenCreatorBonus",
        "offset": 0,
        "slot": "109",
        "type": "t_uint256"
      },
      {
        "astId": 60622,
        "contract": "contracts/token/RewardsDistributor.sol:RewardsDistributorV15",
        "label": "controller",
        "offset": 0,
        "slot": "110",
        "type": "t_contract(IBabController)41902"
      },
      {
        "astId": 60624,
        "contract": "contracts/token/RewardsDistributor.sol:RewardsDistributorV15",
        "label": "babltoken",
        "offset": 0,
        "slot": "111",
        "type": "t_contract(TimeLockedToken)67647"
      },
      {
        "astId": 60626,
        "contract": "contracts/token/RewardsDistributor.sol:RewardsDistributorV15",
        "label": "miningProtocolPrincipal",
        "offset": 0,
        "slot": "112",
        "type": "t_uint256"
      },
      {
        "astId": 60630,
        "contract": "contracts/token/RewardsDistributor.sol:RewardsDistributorV15",
        "label": "protocolPerTimestamp",
        "offset": 0,
        "slot": "113",
        "type": "t_mapping(t_uint256,t_struct(ProtocolPerTimestamp)60572_storage)"
      },
      {
        "astId": 60633,
        "contract": "contracts/token/RewardsDistributor.sol:RewardsDistributorV15",
        "label": "timeList",
        "offset": 0,
        "slot": "114",
        "type": "t_array(t_uint256)dyn_storage"
      },
      {
        "astId": 60635,
        "contract": "contracts/token/RewardsDistributor.sol:RewardsDistributorV15",
        "label": "miningProtocolPower",
        "offset": 0,
        "slot": "115",
        "type": "t_uint256"
      },
      {
        "astId": 60639,
        "contract": "contracts/token/RewardsDistributor.sol:RewardsDistributorV15",
        "label": "protocolPerQuarter",
        "offset": 0,
        "slot": "116",
        "type": "t_mapping(t_uint256,t_struct(ProtocolPerQuarter)60581_storage)"
      },
      {
        "astId": 60643,
        "contract": "contracts/token/RewardsDistributor.sol:RewardsDistributorV15",
        "label": "isProtocolPerQuarter",
        "offset": 0,
        "slot": "117",
        "type": "t_mapping(t_uint256,t_bool)"
      },
      {
        "astId": 60649,
        "contract": "contracts/token/RewardsDistributor.sol:RewardsDistributorV15",
        "label": "rewardsPowerOverhead",
        "offset": 0,
        "slot": "118",
        "type": "t_mapping(t_address,t_mapping(t_uint256,t_uint256))"
      },
      {
        "astId": 60655,
        "contract": "contracts/token/RewardsDistributor.sol:RewardsDistributorV15",
        "label": "contributorPerGarden",
        "offset": 0,
        "slot": "119",
        "type": "t_mapping(t_address,t_mapping(t_address,t_struct(ContributorPerGarden)60602_storage))"
      },
      {
        "astId": 60661,
        "contract": "contracts/token/RewardsDistributor.sol:RewardsDistributorV15",
        "label": "checkpoints",
        "offset": 0,
        "slot": "120",
        "type": "t_mapping(t_address,t_mapping(t_address,t_struct(Checkpoints)60620_storage))"
      },
      {
        "astId": 60667,
        "contract": "contracts/token/RewardsDistributor.sol:RewardsDistributorV15",
        "label": "gardenPowerByTimestamp",
        "offset": 0,
        "slot": "121",
        "type": "t_mapping(t_address,t_mapping(t_uint256,t_struct(GardenPowerByTimestamp)60588_storage))"
      },
      {
        "astId": 60672,
        "contract": "contracts/token/RewardsDistributor.sol:RewardsDistributorV15",
        "label": "gardenTimelist",
        "offset": 0,
        "slot": "122",
        "type": "t_mapping(t_address,t_array(t_uint256)dyn_storage)"
      },
      {
        "astId": 60676,
        "contract": "contracts/token/RewardsDistributor.sol:RewardsDistributorV15",
        "label": "gardenPid",
        "offset": 0,
        "slot": "123",
        "type": "t_mapping(t_address,t_uint256)"
      },
      {
        "astId": 60696,
        "contract": "contracts/token/RewardsDistributor.sol:RewardsDistributorV15",
        "label": "strategyPerQuarter",
        "offset": 0,
        "slot": "124",
        "type": "t_mapping(t_address,t_mapping(t_uint256,t_struct(StrategyPerQuarter)60685_storage))"
      },
      {
        "astId": 60700,
        "contract": "contracts/token/RewardsDistributor.sol:RewardsDistributorV15",
        "label": "strategyPricePerTokenUnit",
        "offset": 0,
        "slot": "125",
        "type": "t_mapping(t_address,t_struct(StrategyPricePerTokenUnit)60690_storage)"
      },
      {
        "astId": 60702,
        "contract": "contracts/token/RewardsDistributor.sol:RewardsDistributorV15",
        "label": "status",
        "offset": 0,
        "slot": "126",
        "type": "t_uint256"
      },
      {
        "astId": 60708,
        "contract": "contracts/token/RewardsDistributor.sol:RewardsDistributorV15",
        "label": "gardenProfitSharing",
        "offset": 0,
        "slot": "127",
        "type": "t_mapping(t_address,t_array(t_uint256)3_storage)"
      },
      {
        "astId": 60712,
        "contract": "contracts/token/RewardsDistributor.sol:RewardsDistributorV15",
        "label": "gardenCustomProfitSharing",
        "offset": 0,
        "slot": "128",
        "type": "t_mapping(t_address,t_bool)"
      },
      {
        "astId": 60714,
        "contract": "contracts/token/RewardsDistributor.sol:RewardsDistributorV15",
        "label": "miningUpdatedAt",
        "offset": 0,
        "slot": "129",
        "type": "t_uint256"
      },
      {
        "astId": 60718,
        "contract": "contracts/token/RewardsDistributor.sol:RewardsDistributorV15",
        "label": "strategyPrincipal",
        "offset": 0,
        "slot": "130",
        "type": "t_mapping(t_address,t_uint256)"
      },
      {
        "astId": 60724,
        "contract": "contracts/token/RewardsDistributor.sol:RewardsDistributorV15",
        "label": "betaAddressMigrated",
        "offset": 0,
        "slot": "131",
        "type": "t_mapping(t_address,t_mapping(t_address,t_bool))"
      },
      {
        "astId": 60728,
        "contract": "contracts/token/RewardsDistributor.sol:RewardsDistributorV15",
        "label": "betaOldMigrations",
        "offset": 0,
        "slot": "132",
        "type": "t_mapping(t_address,t_bool)"
      },
      {
        "astId": 60730,
        "contract": "contracts/token/RewardsDistributor.sol:RewardsDistributorV15",
        "label": "bablProfitWeight",
        "offset": 0,
        "slot": "133",
        "type": "t_uint256"
      },
      {
        "astId": 60732,
        "contract": "contracts/token/RewardsDistributor.sol:RewardsDistributorV15",
        "label": "bablPrincipalWeight",
        "offset": 0,
        "slot": "134",
        "type": "t_uint256"
      },
      {
        "astId": 60740,
        "contract": "contracts/token/RewardsDistributor.sol:RewardsDistributorV15",
        "label": "gardenCheckpoints",
        "offset": 0,
        "slot": "135",
        "type": "t_mapping(t_address,t_mapping(t_address,t_mapping(t_uint256,t_struct(Checkpoints)60620_storage)))"
      },
      {
        "astId": 60746,
        "contract": "contracts/token/RewardsDistributor.sol:RewardsDistributorV15",
        "label": "numCheckpoints",
        "offset": 0,
        "slot": "136",
        "type": "t_mapping(t_address,t_mapping(t_address,t_uint256))"
      },
      {
        "astId": 60750,
        "contract": "contracts/token/RewardsDistributor.sol:RewardsDistributorV15",
        "label": "benchmark",
        "offset": 0,
        "slot": "137",
        "type": "t_array(t_uint256)5_storage"
      }
    ],
    "types": {
      "t_address": {
        "encoding": "inplace",
        "label": "address",
        "numberOfBytes": "20"
      },
      "t_array(t_uint256)3_storage": {
        "base": "t_uint256",
        "encoding": "inplace",
        "label": "uint256[3]",
        "numberOfBytes": "96"
      },
      "t_array(t_uint256)49_storage": {
        "base": "t_uint256",
        "encoding": "inplace",
        "label": "uint256[49]",
        "numberOfBytes": "1568"
      },
      "t_array(t_uint256)50_storage": {
        "base": "t_uint256",
        "encoding": "inplace",
        "label": "uint256[50]",
        "numberOfBytes": "1600"
      },
      "t_array(t_uint256)5_storage": {
        "base": "t_uint256",
        "encoding": "inplace",
        "label": "uint256[5]",
        "numberOfBytes": "160"
      },
      "t_array(t_uint256)dyn_storage": {
        "base": "t_uint256",
        "encoding": "dynamic_array",
        "label": "uint256[]",
        "numberOfBytes": "32"
      },
      "t_bool": {
        "encoding": "inplace",
        "label": "bool",
        "numberOfBytes": "1"
      },
      "t_contract(IBabController)41902": {
        "encoding": "inplace",
        "label": "contract IBabController",
        "numberOfBytes": "20"
      },
      "t_contract(TimeLockedToken)67647": {
        "encoding": "inplace",
        "label": "contract TimeLockedToken",
        "numberOfBytes": "20"
      },
      "t_mapping(t_address,t_array(t_uint256)3_storage)": {
        "encoding": "mapping",
        "key": "t_address",
        "label": "mapping(address => uint256[3])",
        "numberOfBytes": "32",
        "value": "t_array(t_uint256)3_storage"
      },
      "t_mapping(t_address,t_array(t_uint256)dyn_storage)": {
        "encoding": "mapping",
        "key": "t_address",
        "label": "mapping(address => uint256[])",
        "numberOfBytes": "32",
        "value": "t_array(t_uint256)dyn_storage"
      },
      "t_mapping(t_address,t_bool)": {
        "encoding": "mapping",
        "key": "t_address",
        "label": "mapping(address => bool)",
        "numberOfBytes": "32",
        "value": "t_bool"
      },
      "t_mapping(t_address,t_mapping(t_address,t_bool))": {
        "encoding": "mapping",
        "key": "t_address",
        "label": "mapping(address => mapping(address => bool))",
        "numberOfBytes": "32",
        "value": "t_mapping(t_address,t_bool)"
      },
      "t_mapping(t_address,t_mapping(t_address,t_mapping(t_uint256,t_struct(Checkpoints)60620_storage)))": {
        "encoding": "mapping",
        "key": "t_address",
        "label": "mapping(address => mapping(address => mapping(uint256 => struct RewardsDistributor.Checkpoints)))",
        "numberOfBytes": "32",
        "value": "t_mapping(t_address,t_mapping(t_uint256,t_struct(Checkpoints)60620_storage))"
      },
      "t_mapping(t_address,t_mapping(t_address,t_struct(Checkpoints)60620_storage))": {
        "encoding": "mapping",
        "key": "t_address",
        "label": "mapping(address => mapping(address => struct RewardsDistributor.Checkpoints))",
        "numberOfBytes": "32",
        "value": "t_mapping(t_address,t_struct(Checkpoints)60620_storage)"
      },
      "t_mapping(t_address,t_mapping(t_address,t_struct(ContributorPerGarden)60602_storage))": {
        "encoding": "mapping",
        "key": "t_address",
        "label": "mapping(address => mapping(address => struct RewardsDistributor.ContributorPerGarden))",
        "numberOfBytes": "32",
        "value": "t_mapping(t_address,t_struct(ContributorPerGarden)60602_storage)"
      },
      "t_mapping(t_address,t_mapping(t_address,t_uint256))": {
        "encoding": "mapping",
        "key": "t_address",
        "label": "mapping(address => mapping(address => uint256))",
        "numberOfBytes": "32",
        "value": "t_mapping(t_address,t_uint256)"
      },
      "t_mapping(t_address,t_mapping(t_uint256,t_struct(Checkpoints)60620_storage))": {
        "encoding": "mapping",
        "key": "t_address",
        "label": "mapping(address => mapping(uint256 => struct RewardsDistributor.Checkpoints))",
        "numberOfBytes": "32",
        "value": "t_mapping(t_uint256,t_struct(Checkpoints)60620_storage)"
      },
      "t_mapping(t_address,t_mapping(t_uint256,t_struct(GardenPowerByTimestamp)60588_storage))": {
        "encoding": "mapping",
        "key": "t_address",
        "label": "mapping(address => mapping(uint256 => struct RewardsDistributor.GardenPowerByTimestamp))",
        "numberOfBytes": "32",
        "value": "t_mapping(t_uint256,t_struct(GardenPowerByTimestamp)60588_storage)"
      },
      "t_mapping(t_address,t_mapping(t_uint256,t_struct(StrategyPerQuarter)60685_storage))": {
        "encoding": "mapping",
        "key": "t_address",
        "label": "mapping(address => mapping(uint256 => struct RewardsDistributor.StrategyPerQuarter))",
        "numberOfBytes": "32",
        "value": "t_mapping(t_uint256,t_struct(StrategyPerQuarter)60685_storage)"
      },
      "t_mapping(t_address,t_mapping(t_uint256,t_uint256))": {
        "encoding": "mapping",
        "key": "t_address",
        "label": "mapping(address => mapping(uint256 => uint256))",
        "numberOfBytes": "32",
        "value": "t_mapping(t_uint256,t_uint256)"
      },
      "t_mapping(t_address,t_struct(Checkpoints)60620_storage)": {
        "encoding": "mapping",
        "key": "t_address",
        "label": "mapping(address => struct RewardsDistributor.Checkpoints)",
        "numberOfBytes": "32",
        "value": "t_struct(Checkpoints)60620_storage"
      },
      "t_mapping(t_address,t_struct(ContributorPerGarden)60602_storage)": {
        "encoding": "mapping",
        "key": "t_address",
        "label": "mapping(address => struct RewardsDistributor.ContributorPerGarden)",
        "numberOfBytes": "32",
        "value": "t_struct(ContributorPerGarden)60602_storage"
      },
      "t_mapping(t_address,t_struct(StrategyPricePerTokenUnit)60690_storage)": {
        "encoding": "mapping",
        "key": "t_address",
        "label": "mapping(address => struct RewardsDistributor.StrategyPricePerTokenUnit)",
        "numberOfBytes": "32",
        "value": "t_struct(StrategyPricePerTokenUnit)60690_storage"
      },
      "t_mapping(t_address,t_uint256)": {
        "encoding": "mapping",
        "key": "t_address",
        "label": "mapping(address => uint256)",
        "numberOfBytes": "32",
        "value": "t_uint256"
      },
      "t_mapping(t_uint256,t_bool)": {
        "encoding": "mapping",
        "key": "t_uint256",
        "label": "mapping(uint256 => bool)",
        "numberOfBytes": "32",
        "value": "t_bool"
      },
      "t_mapping(t_uint256,t_struct(Checkpoints)60620_storage)": {
        "encoding": "mapping",
        "key": "t_uint256",
        "label": "mapping(uint256 => struct RewardsDistributor.Checkpoints)",
        "numberOfBytes": "32",
        "value": "t_struct(Checkpoints)60620_storage"
      },
      "t_mapping(t_uint256,t_struct(GardenPowerByTimestamp)60588_storage)": {
        "encoding": "mapping",
        "key": "t_uint256",
        "label": "mapping(uint256 => struct RewardsDistributor.GardenPowerByTimestamp)",
        "numberOfBytes": "32",
        "value": "t_struct(GardenPowerByTimestamp)60588_storage"
      },
      "t_mapping(t_uint256,t_struct(ProtocolPerQuarter)60581_storage)": {
        "encoding": "mapping",
        "key": "t_uint256",
        "label": "mapping(uint256 => struct RewardsDistributor.ProtocolPerQuarter)",
        "numberOfBytes": "32",
        "value": "t_struct(ProtocolPerQuarter)60581_storage"
      },
      "t_mapping(t_uint256,t_struct(ProtocolPerTimestamp)60572_storage)": {
        "encoding": "mapping",
        "key": "t_uint256",
        "label": "mapping(uint256 => struct RewardsDistributor.ProtocolPerTimestamp)",
        "numberOfBytes": "32",
        "value": "t_struct(ProtocolPerTimestamp)60572_storage"
      },
      "t_mapping(t_uint256,t_struct(StrategyPerQuarter)60685_storage)": {
        "encoding": "mapping",
        "key": "t_uint256",
        "label": "mapping(uint256 => struct RewardsDistributor.StrategyPerQuarter)",
        "numberOfBytes": "32",
        "value": "t_struct(StrategyPerQuarter)60685_storage"
      },
      "t_mapping(t_uint256,t_struct(TimestampContribution)60611_storage)": {
        "encoding": "mapping",
        "key": "t_uint256",
        "label": "mapping(uint256 => struct RewardsDistributor.TimestampContribution)",
        "numberOfBytes": "32",
        "value": "t_struct(TimestampContribution)60611_storage"
      },
      "t_mapping(t_uint256,t_uint256)": {
        "encoding": "mapping",
        "key": "t_uint256",
        "label": "mapping(uint256 => uint256)",
        "numberOfBytes": "32",
        "value": "t_uint256"
      },
      "t_struct(Checkpoints)60620_storage": {
        "encoding": "inplace",
        "label": "struct RewardsDistributor.Checkpoints",
        "members": [
          {
            "astId": 60613,
            "contract": "contracts/token/RewardsDistributor.sol:RewardsDistributorV15",
            "label": "fromTime",
            "offset": 0,
            "slot": "0",
            "type": "t_uint256"
          },
          {
            "astId": 60615,
            "contract": "contracts/token/RewardsDistributor.sol:RewardsDistributorV15",
            "label": "tokens",
            "offset": 0,
            "slot": "1",
            "type": "t_uint256"
          },
          {
            "astId": 60617,
            "contract": "contracts/token/RewardsDistributor.sol:RewardsDistributorV15",
            "label": "supply",
            "offset": 0,
            "slot": "2",
            "type": "t_uint256"
          },
          {
            "astId": 60619,
            "contract": "contracts/token/RewardsDistributor.sol:RewardsDistributorV15",
            "label": "prevBalance",
            "offset": 0,
            "slot": "3",
            "type": "t_uint256"
          }
        ],
        "numberOfBytes": "128"
      },
      "t_struct(ContributorPerGarden)60602_storage": {
        "encoding": "inplace",
        "label": "struct RewardsDistributor.ContributorPerGarden",
        "members": [
          {
            "astId": 60590,
            "contract": "contracts/token/RewardsDistributor.sol:RewardsDistributorV15",
            "label": "lastDepositAt",
            "offset": 0,
            "slot": "0",
            "type": "t_uint256"
          },
          {
            "astId": 60592,
            "contract": "contracts/token/RewardsDistributor.sol:RewardsDistributorV15",
            "label": "initialDepositAt",
            "offset": 0,
            "slot": "1",
            "type": "t_uint256"
          },
          {
            "astId": 60595,
            "contract": "contracts/token/RewardsDistributor.sol:RewardsDistributorV15",
            "label": "timeListPointer",
            "offset": 0,
            "slot": "2",
            "type": "t_array(t_uint256)dyn_storage"
          },
          {
            "astId": 60597,
            "contract": "contracts/token/RewardsDistributor.sol:RewardsDistributorV15",
            "label": "pid",
            "offset": 0,
            "slot": "3",
            "type": "t_uint256"
          },
          {
            "astId": 60601,
            "contract": "contracts/token/RewardsDistributor.sol:RewardsDistributorV15",
            "label": "tsContributions",
            "offset": 0,
            "slot": "4",
            "type": "t_mapping(t_uint256,t_struct(TimestampContribution)60611_storage)"
          }
        ],
        "numberOfBytes": "160"
      },
      "t_struct(GardenPowerByTimestamp)60588_storage": {
        "encoding": "inplace",
        "label": "struct RewardsDistributor.GardenPowerByTimestamp",
        "members": [
          {
            "astId": 60583,
            "contract": "contracts/token/RewardsDistributor.sol:RewardsDistributorV15",
            "label": "avgGardenBalance",
            "offset": 0,
            "slot": "0",
            "type": "t_uint256"
          },
          {
            "astId": 60585,
            "contract": "contracts/token/RewardsDistributor.sol:RewardsDistributorV15",
            "label": "lastDepositAt",
            "offset": 0,
            "slot": "1",
            "type": "t_uint256"
          },
          {
            "astId": 60587,
            "contract": "contracts/token/RewardsDistributor.sol:RewardsDistributorV15",
            "label": "accGardenPower",
            "offset": 0,
            "slot": "2",
            "type": "t_uint256"
          }
        ],
        "numberOfBytes": "96"
      },
      "t_struct(ProtocolPerQuarter)60581_storage": {
        "encoding": "inplace",
        "label": "struct RewardsDistributor.ProtocolPerQuarter",
        "members": [
          {
            "astId": 60574,
            "contract": "contracts/token/RewardsDistributor.sol:RewardsDistributorV15",
            "label": "quarterPrincipal",
            "offset": 0,
            "slot": "0",
            "type": "t_uint256"
          },
          {
            "astId": 60576,
            "contract": "contracts/token/RewardsDistributor.sol:RewardsDistributorV15",
            "label": "quarterNumber",
            "offset": 0,
            "slot": "1",
            "type": "t_uint256"
          },
          {
            "astId": 60578,
            "contract": "contracts/token/RewardsDistributor.sol:RewardsDistributorV15",
            "label": "quarterPower",
            "offset": 0,
            "slot": "2",
            "type": "t_uint256"
          },
          {
            "astId": 60580,
            "contract": "contracts/token/RewardsDistributor.sol:RewardsDistributorV15",
            "label": "supplyPerQuarter",
            "offset": 0,
            "slot": "3",
            "type": "t_uint96"
          }
        ],
        "numberOfBytes": "128"
      },
      "t_struct(ProtocolPerTimestamp)60572_storage": {
        "encoding": "inplace",
        "label": "struct RewardsDistributor.ProtocolPerTimestamp",
        "members": [
          {
            "astId": 60563,
            "contract": "contracts/token/RewardsDistributor.sol:RewardsDistributorV15",
            "label": "principal",
            "offset": 0,
            "slot": "0",
            "type": "t_uint256"
          },
          {
            "astId": 60565,
            "contract": "contracts/token/RewardsDistributor.sol:RewardsDistributorV15",
            "label": "time",
            "offset": 0,
            "slot": "1",
            "type": "t_uint256"
          },
          {
            "astId": 60567,
            "contract": "contracts/token/RewardsDistributor.sol:RewardsDistributorV15",
            "label": "quarterBelonging",
            "offset": 0,
            "slot": "2",
            "type": "t_uint256"
          },
          {
            "astId": 60569,
            "contract": "contracts/token/RewardsDistributor.sol:RewardsDistributorV15",
            "label": "timeListPointer",
            "offset": 0,
            "slot": "3",
            "type": "t_uint256"
          },
          {
            "astId": 60571,
            "contract": "contracts/token/RewardsDistributor.sol:RewardsDistributorV15",
            "label": "power",
            "offset": 0,
            "slot": "4",
            "type": "t_uint256"
          }
        ],
        "numberOfBytes": "160"
      },
      "t_struct(StrategyPerQuarter)60685_storage": {
        "encoding": "inplace",
        "label": "struct RewardsDistributor.StrategyPerQuarter",
        "members": [
          {
            "astId": 60678,
            "contract": "contracts/token/RewardsDistributor.sol:RewardsDistributorV15",
            "label": "quarterPrincipal",
            "offset": 0,
            "slot": "0",
            "type": "t_uint256"
          },
          {
            "astId": 60680,
            "contract": "contracts/token/RewardsDistributor.sol:RewardsDistributorV15",
            "label": "betaInitializedAt",
            "offset": 0,
            "slot": "1",
            "type": "t_uint256"
          },
          {
            "astId": 60682,
            "contract": "contracts/token/RewardsDistributor.sol:RewardsDistributorV15",
            "label": "quarterPower",
            "offset": 0,
            "slot": "2",
            "type": "t_uint256"
          },
          {
            "astId": 60684,
            "contract": "contracts/token/RewardsDistributor.sol:RewardsDistributorV15",
            "label": "initialized",
            "offset": 0,
            "slot": "3",
            "type": "t_bool"
          }
        ],
        "numberOfBytes": "128"
      },
      "t_struct(StrategyPricePerTokenUnit)60690_storage": {
        "encoding": "inplace",
        "label": "struct RewardsDistributor.StrategyPricePerTokenUnit",
        "members": [
          {
            "astId": 60687,
            "contract": "contracts/token/RewardsDistributor.sol:RewardsDistributorV15",
            "label": "preallocated",
            "offset": 0,
            "slot": "0",
            "type": "t_uint256"
          },
          {
            "astId": 60689,
            "contract": "contracts/token/RewardsDistributor.sol:RewardsDistributorV15",
            "label": "pricePerTokenUnit",
            "offset": 0,
            "slot": "1",
            "type": "t_uint256"
          }
        ],
        "numberOfBytes": "64"
      },
      "t_struct(TimestampContribution)60611_storage": {
        "encoding": "inplace",
        "label": "struct RewardsDistributor.TimestampContribution",
        "members": [
          {
            "astId": 60604,
            "contract": "contracts/token/RewardsDistributor.sol:RewardsDistributorV15",
            "label": "avgBalance",
            "offset": 0,
            "slot": "0",
            "type": "t_uint256"
          },
          {
            "astId": 60606,
            "contract": "contracts/token/RewardsDistributor.sol:RewardsDistributorV15",
            "label": "timestamp",
            "offset": 0,
            "slot": "1",
            "type": "t_uint256"
          },
          {
            "astId": 60608,
            "contract": "contracts/token/RewardsDistributor.sol:RewardsDistributorV15",
            "label": "timePointer",
            "offset": 0,
            "slot": "2",
            "type": "t_uint256"
          },
          {
            "astId": 60610,
            "contract": "contracts/token/RewardsDistributor.sol:RewardsDistributorV15",
            "label": "power",
            "offset": 0,
            "slot": "3",
            "type": "t_uint256"
          }
        ],
        "numberOfBytes": "128"
      },
      "t_uint256": {
        "encoding": "inplace",
        "label": "uint256",
        "numberOfBytes": "32"
      },
      "t_uint96": {
        "encoding": "inplace",
        "label": "uint96",
        "numberOfBytes": "12"
      }
    }
  }
}