{
  "address": "0x7315E7ca8eD7dE15bEf035Fd51F553EAe0580D00",
  "abi": [
    {
      "anonymous": false,
      "inputs": [
        {
          "indexed": true,
          "internalType": "address",
          "name": "previousOwner",
          "type": "address"
        },
        {
          "indexed": true,
          "internalType": "address",
          "name": "newOwner",
          "type": "address"
        }
      ],
      "name": "OwnershipTransferred",
      "type": "event"
    },
    {
      "inputs": [],
      "name": "START_TIME",
      "outputs": [
        {
          "internalType": "uint256",
          "name": "",
          "type": "uint256"
        }
      ],
      "stateMutability": "view",
      "type": "function"
    },
    {
      "inputs": [
        {
          "internalType": "uint256",
          "name": "_time",
          "type": "uint256"
        }
      ],
      "name": "checkProtocol",
      "outputs": [
        {
          "internalType": "uint256",
          "name": "principal",
          "type": "uint256"
        },
        {
          "internalType": "uint256",
          "name": "time",
          "type": "uint256"
        },
        {
          "internalType": "uint256",
          "name": "quarterBelonging",
          "type": "uint256"
        },
        {
          "internalType": "uint256",
          "name": "timeListPointer",
          "type": "uint256"
        },
        {
          "internalType": "uint256",
          "name": "power",
          "type": "uint256"
        }
      ],
      "stateMutability": "view",
      "type": "function"
    },
    {
      "inputs": [
        {
          "internalType": "uint256",
          "name": "_num",
          "type": "uint256"
        }
      ],
      "name": "checkQuarter",
      "outputs": [
        {
          "internalType": "uint256",
          "name": "quarterPrincipal",
          "type": "uint256"
        },
        {
          "internalType": "uint256",
          "name": "quarterNumber",
          "type": "uint256"
        },
        {
          "internalType": "uint256",
          "name": "quarterPower",
          "type": "uint256"
        },
        {
          "internalType": "uint96",
          "name": "supplyPerQuarter",
          "type": "uint96"
        }
      ],
      "stateMutability": "view",
      "type": "function"
    },
    {
      "inputs": [
        {
          "internalType": "address",
          "name": "_garden",
          "type": "address"
        },
        {
          "internalType": "address",
          "name": "_contributor",
          "type": "address"
        },
        {
          "internalType": "uint256",
          "name": "_from",
          "type": "uint256"
        },
        {
          "internalType": "uint256",
          "name": "_to",
          "type": "uint256"
        }
      ],
      "name": "getContributorPower",
      "outputs": [
        {
          "internalType": "uint256",
          "name": "",
          "type": "uint256"
        }
      ],
      "stateMutability": "view",
      "type": "function"
    },
    {
      "inputs": [
        {
          "internalType": "address",
          "name": "_garden",
          "type": "address"
        }
      ],
      "name": "getGardenProfitsSharing",
      "outputs": [
        {
          "internalType": "uint256[3]",
          "name": "",
          "type": "uint256[3]"
        }
      ],
      "stateMutability": "view",
      "type": "function"
    },
    {
      "inputs": [
        {
          "internalType": "address",
          "name": "_garden",
          "type": "address"
        },
        {
          "internalType": "address",
          "name": "_contributor",
          "type": "address"
        },
        {
          "internalType": "address[]",
          "name": "_finalizedStrategies",
          "type": "address[]"
        }
      ],
      "name": "getRewards",
      "outputs": [
        {
          "internalType": "uint256[]",
          "name": "",
          "type": "uint256[]"
        }
      ],
      "stateMutability": "view",
      "type": "function"
    },
    {
      "inputs": [
        {
          "internalType": "address",
          "name": "_strategy",
          "type": "address"
        }
      ],
      "name": "getStrategyPricePerTokenUnit",
      "outputs": [
        {
          "internalType": "uint256",
          "name": "",
          "type": "uint256"
        },
        {
          "internalType": "uint256",
          "name": "",
          "type": "uint256"
        }
      ],
      "stateMutability": "view",
      "type": "function"
    },
    {
      "inputs": [
        {
          "internalType": "address",
          "name": "_strategy",
          "type": "address"
        }
      ],
      "name": "getStrategyRewards",
      "outputs": [
        {
          "internalType": "uint96",
          "name": "",
          "type": "uint96"
        }
      ],
      "stateMutability": "view",
      "type": "function"
    },
    {
      "inputs": [
        {
          "internalType": "contract TimeLockedToken",
          "name": "_bablToken",
          "type": "address"
        },
        {
          "internalType": "contract IBabController",
          "name": "_controller",
          "type": "address"
        }
      ],
      "name": "initialize",
      "outputs": [],
      "stateMutability": "nonpayable",
      "type": "function"
    },
    {
      "inputs": [],
      "name": "owner",
      "outputs": [
        {
          "internalType": "address",
          "name": "",
          "type": "address"
        }
      ],
      "stateMutability": "view",
      "type": "function"
    },
    {
      "inputs": [],
      "name": "renounceOwnership",
      "outputs": [],
      "stateMutability": "nonpayable",
      "type": "function"
    },
    {
      "inputs": [
        {
          "internalType": "address",
          "name": "_to",
          "type": "address"
        },
        {
          "internalType": "uint256",
          "name": "_amount",
          "type": "uint256"
        }
      ],
      "name": "sendTokensToContributor",
      "outputs": [],
      "stateMutability": "nonpayable",
      "type": "function"
    },
    {
      "inputs": [
        {
          "internalType": "contract TimeLockedToken",
          "name": "_bablToken",
          "type": "address"
        }
      ],
      "name": "setBablToken",
      "outputs": [],
      "stateMutability": "nonpayable",
      "type": "function"
    },
    {
      "inputs": [
        {
          "internalType": "address",
          "name": "_garden",
          "type": "address"
        },
        {
          "internalType": "uint256",
          "name": "_strategistShare",
          "type": "uint256"
        },
        {
          "internalType": "uint256",
          "name": "_stewardsShare",
          "type": "uint256"
        },
        {
          "internalType": "uint256",
          "name": "_lpShare",
          "type": "uint256"
        }
      ],
      "name": "setProfitRewards",
      "outputs": [],
      "stateMutability": "nonpayable",
      "type": "function"
    },
    {
      "inputs": [],
      "name": "startBABLRewards",
      "outputs": [],
      "stateMutability": "nonpayable",
      "type": "function"
    },
    {
      "inputs": [
        {
          "internalType": "address",
          "name": "",
          "type": "address"
        },
        {
          "internalType": "uint256",
          "name": "",
          "type": "uint256"
        }
      ],
      "name": "strategyPerQuarter",
      "outputs": [
        {
          "internalType": "uint256",
          "name": "quarterPrincipal",
          "type": "uint256"
        },
        {
          "internalType": "uint256",
          "name": "quarterNumber",
          "type": "uint256"
        },
        {
          "internalType": "uint256",
          "name": "quarterPower",
          "type": "uint256"
        },
        {
          "internalType": "bool",
          "name": "initialized",
          "type": "bool"
        }
      ],
      "stateMutability": "view",
      "type": "function"
    },
    {
      "inputs": [
        {
          "internalType": "address",
          "name": "",
          "type": "address"
        }
      ],
      "name": "strategyPricePerTokenUnit",
      "outputs": [
        {
          "internalType": "uint256",
          "name": "preallocated",
          "type": "uint256"
        },
        {
          "internalType": "uint256",
          "name": "pricePerTokenUnit",
          "type": "uint256"
        }
      ],
      "stateMutability": "view",
      "type": "function"
    },
    {
      "inputs": [
        {
          "internalType": "uint256",
          "name": "_quarter",
          "type": "uint256"
        }
      ],
      "name": "tokenSupplyPerQuarter",
      "outputs": [
        {
          "internalType": "uint96",
          "name": "",
          "type": "uint96"
        }
      ],
      "stateMutability": "pure",
      "type": "function"
    },
    {
      "inputs": [
        {
          "internalType": "address",
          "name": "newOwner",
          "type": "address"
        }
      ],
      "name": "transferOwnership",
      "outputs": [],
      "stateMutability": "nonpayable",
      "type": "function"
    },
    {
      "inputs": [
        {
          "internalType": "address",
          "name": "_garden",
          "type": "address"
        },
        {
          "internalType": "address",
          "name": "_contributor",
          "type": "address"
        },
        {
          "internalType": "uint256",
          "name": "_previousBalance",
          "type": "uint256"
        },
        {
          "internalType": "bool",
          "name": "_depositOrWithdraw",
          "type": "bool"
        },
        {
          "internalType": "uint256",
          "name": "_pid",
          "type": "uint256"
        }
      ],
      "name": "updateGardenPowerAndContributor",
      "outputs": [],
      "stateMutability": "nonpayable",
      "type": "function"
    },
    {
      "inputs": [
        {
          "internalType": "uint256",
          "name": "_capital",
          "type": "uint256"
        },
        {
          "internalType": "bool",
          "name": "_addOrSubstract",
          "type": "bool"
        }
      ],
      "name": "updateProtocolPrincipal",
      "outputs": [],
      "stateMutability": "nonpayable",
      "type": "function"
    }
  ],
  "transactionHash": "0x44eef973b46dc8ac3ca8499889facc43ce3ab2bbf3056419f18a33024fd0700b",
  "args": [],
  "solcInputHash": "7643c09c88e02974e35008e8f283d4b4",
  "bytecode": "0x608060405234801561001057600080fd5b50615f4380620000216000396000f3fe608060405234801561001057600080fd5b50600436106101775760003560e01c806380334dbe116100d8578063bad67dd11161008c578063ddaa26ad11610066578063ddaa26ad146105e8578063ef9f3450146105f0578063f2fde38b1461061657610177565b8063bad67dd114610537578063cf1493871461057b578063d717a506146105c357610177565b80639de9a052116100bd5780639de9a052146104915780639e839e1b146104b7578063a8d9a7811461050b57610177565b806380334dbe146104355780638da5cb5b1461046d57610177565b806369795e931161012f57806373a9fd9f1161011457806373a9fd9f146103a15780637602bdde146103df57806379fc904f1461042d57610177565b806369795e93146102c0578063715018a61461039957610177565b806340a323ae1161016057806340a323ae1461022b578063485cc9551461026a5780635668c8f01461029a57610177565b8063070e8a4a1461017c5780632544dc18146101da575b600080fd5b6101a26004803603602081101561019257600080fd5b50356001600160a01b031661063c565b6040518082606080838360005b838110156101c75781810151838201526020016101af565b5050505090500191505060405180910390f35b6101f7600480360360208110156101f057600080fd5b50356106d8565b604080519485526020850193909352838301919091526bffffffffffffffffffffffff166060830152519081900360800190f35b6102516004803603602081101561024157600080fd5b50356001600160a01b031661070e565b6040805192835260208301919091528051918290030190f35b6102986004803603604081101561028057600080fd5b506001600160a01b0381358116916020013516610731565b005b610251600480360360208110156102b057600080fd5b50356001600160a01b0316610964565b610349600480360360608110156102d657600080fd5b6001600160a01b03823581169260208101359091169181019060608101604082013564010000000081111561030a57600080fd5b82018360208201111561031c57600080fd5b8035906020019184602083028401116401000000008311171561033e57600080fd5b50909250905061097d565b60408051602080825283518183015283519192839290830191858101910280838360005b8381101561038557818101518382015260200161036d565b505050509050019250505060405180910390f35b610298610c5d565b6103be600480360360208110156103b757600080fd5b5035610d1b565b604080516bffffffffffffffffffffffff9092168252519081900360200190f35b61041b600480360360808110156103f557600080fd5b506001600160a01b03813581169160208101359091169060408101359060600135610d2c565b60408051918252519081900360200190f35b610298610d43565b6102986004803603608081101561044b57600080fd5b506001600160a01b038135169060208101359060408101359060600135610e69565b610475610f32565b604080516001600160a01b039092168252519081900360200190f35b6103be600480360360208110156104a757600080fd5b50356001600160a01b0316610f41565b6104e3600480360360408110156104cd57600080fd5b506001600160a01b0381351690602001356117c3565b6040805194855260208501939093528383019190915215156060830152519081900360800190f35b6102986004803603604081101561052157600080fd5b506001600160a01b0381351690602001356117f8565b610298600480360360a081101561054d57600080fd5b506001600160a01b038135811691602081013590911690604081013590606081013515159060800135611969565b6105986004803603602081101561059157600080fd5b5035611a0c565b6040805195865260208601949094528484019290925260608401526080830152519081900360a00190f35b610298600480360360408110156105d957600080fd5b50803590602001351515611a3b565b61041b611cf1565b6102986004803603602081101561060657600080fd5b50356001600160a01b0316611cf7565b6102986004803603602081101561062c57600080fd5b50356001600160a01b0316611e09565b610644615e43565b6001600160a01b03821660009081526080602052604090205460ff16156106af576001600160a01b0382166000908152607f602052604090819020815160608101928390529160039082845b81548152602001906001019080831161069057505050505090506106d3565b60405180606001604052806069548152602001606a548152602001606b5481525090505b919050565b600090815260746020526040902080546001820154600283015460039093015491939092916bffffffffffffffffffffffff1690565b6001600160a01b03166000908152607d6020526040902080546001909101549091565b610739611f1e565b61074f6001600160a01b03831615156017611fd0565b6107656001600160a01b03821615156017611fd0565b606f80546001600160a01b038085166001600160a01b031992831617909255606e805484841692169190911790819055604080517ff142c3bc0000000000000000000000000000000000000000000000000000000081529051919092169163f142c3bc916004808301926080929190829003018186803b1580156107e857600080fd5b505afa1580156107fc573d6000803e3d6000fd5b505050506040513d608081101561081257600080fd5b5080516020820151604080840151606094850151606d55606855606791909155606691909155606e5481517f2e0519cf00000000000000000000000000000000000000000000000000000000815291516001600160a01b0390911692632e0519cf9260048082019391829003018186803b15801561088f57600080fd5b505afa1580156108a3573d6000803e3d6000fd5b505050506040513d60608110156108b957600080fd5b508051602080830151604093840151606b55606a55606991909155606e5482517f568c081300000000000000000000000000000000000000000000000000000000815292516001600160a01b039091169263568c0813926004808301939192829003018186803b15801561092c57600080fd5b505afa158015610940573d6000803e3d6000fd5b505050506040513d602081101561095657600080fd5b5051606c5550506001607e55565b607d602052600090815260409020805460019091015482565b6040805160078082526101008201909252606091600091906020820160e08036833701905050606e546040805163364d118160e01b81526001600160a01b038a811660048301529151939450610a2a93919092169163364d1181916024808301926020929190829003018186803b1580156109f757600080fd5b505afa158015610a0b573d6000803e3d6000fd5b505050506040513d6020811015610a2157600080fd5b50516023611fd0565b60005b83811015610c515760408051600780825261010082019092526000916020820160e080368337019050509050610a7f88878785818110610a6957fe5b905060200201356001600160a01b031689611fe2565b9050610abc81600081518110610a9157fe5b602002602001015184600081518110610aa657fe5b60200260200101516124f390919063ffffffff16565b83600081518110610ac957fe5b602002602001018181525050610afa81600181518110610ae557fe5b602002602001015184600181518110610aa657fe5b83600181518110610b0757fe5b602002602001018181525050610b3881600281518110610b2357fe5b602002602001015184600281518110610aa657fe5b83600281518110610b4557fe5b602002602001018181525050610b7681600381518110610b6157fe5b602002602001015184600381518110610aa657fe5b83600381518110610b8357fe5b602002602001018181525050610bb481600481518110610b9f57fe5b602002602001015184600481518110610aa657fe5b83600481518110610bc157fe5b602002602001018181525050610bf281600581518110610bdd57fe5b602002602001015184600581518110610aa657fe5b83600581518110610bff57fe5b602002602001018181525050610c3081600681518110610c1b57fe5b602002602001015184600681518110610aa657fe5b83600681518110610c3d57fe5b602090810291909101015250600101610a2d565b5090505b949350505050565b610c65612503565b6001600160a01b0316610c76610f32565b6001600160a01b031614610cd1576040805162461bcd60e51b815260206004820181905260248201527f4f776e61626c653a2063616c6c6572206973206e6f7420746865206f776e6572604482015290519081900360640190fd5b6033546040516000916001600160a01b0316907f8be0079c531659141344cd1fd0a4f28419497f9722a3daafe3b4186f6b6457e0908390a3603380546001600160a01b0319169055565b6000610d2682612507565b92915050565b6000610d3a858585856125ae565b95945050505050565b606e54604080516313bc6d4b60e01b81523360048201529051610dc2926001600160a01b0316916313bc6d4b916024808301926020929190829003018186803b158015610d8f57600080fd5b505afa158015610da3573d6000803e3d6000fd5b505050506040513d6020811015610db957600080fd5b50516048611fd0565b606e54610ddb906001600160a01b031633146010611fd0565b606e5460408051635b14f18360e01b81523060048201529051610e5b926001600160a01b031691635b14f183916024808301926020929190829003018186803b158015610e2757600080fd5b505afa158015610e3b573d6000803e3d6000fd5b505050506040513d6020811015610e5157600080fd5b5051156053611fd0565b606554610e6757426065555b565b606e54604080516313bc6d4b60e01b81523360048201529051610eb5926001600160a01b0316916313bc6d4b916024808301926020929190829003018186803b158015610d8f57600080fd5b606e54610ece906001600160a01b031633146010611fd0565b606e546040805163364d118160e01b81526001600160a01b0387811660048301529151610f2093929092169163364d118191602480820192602092909190829003018186803b1580156109f757600080fd5b610f2c84848484612a77565b50505050565b6033546001600160a01b031690565b604080516003808252608082019092526000918391839160208201606080368337019050509050816001600160a01b031663bf1dcfe26040518163ffffffff1660e01b815260040160e06040518083038186803b158015610fa157600080fd5b505afa158015610fb5573d6000803e3d6000fd5b505050506040513d60e0811015610fcb57600080fd5b50608081015160a082015160c09092015183519192918490600090610fec57fe5b602002602001018460018151811061100057fe5b602002602001018560028151811061101457fe5b6020026020010183815250838152508381525050505061104d8160018151811061103a57fe5b6020026020010151600014156031611fd0565b606e54604080517f2630c12f00000000000000000000000000000000000000000000000000000000815290516000926001600160a01b031691632630c12f916004808301926020929190829003018186803b1580156110ab57600080fd5b505afa1580156110bf573d6000803e3d6000fd5b505050506040513d60208110156110d557600080fd5b505160408051630ad7511760e31b815290519192506000916112c2916001600160a01b038086169263ac41865a92918916916356ba88b8916004808301926020929190829003018186803b15801561112c57600080fd5b505afa158015611140573d6000803e3d6000fd5b505050506040513d602081101561115657600080fd5b505160408051631f0b96b960e31b815290516001600160a01b039092169163f85cb5c891600480820192602092909190829003018186803b15801561119a57600080fd5b505afa1580156111ae573d6000803e3d6000fd5b505050506040513d60208110156111c457600080fd5b5051604080516001600160e01b031960e085901b1681526001600160a01b039092166004830152736b175474e89094c44da98b954eedeac495271d0f6024830152516044808301926020929190829003018186803b15801561122557600080fd5b505afa158015611239573d6000803e3d6000fd5b505050506040513d602081101561124f57600080fd5b50516040805162f376cb60e21b815290516001600160a01b038816916303cddb2c916004808301926020929190829003018186803b15801561129057600080fd5b505afa1580156112a4573d6000803e3d6000fd5b505050506040513d60208110156112ba57600080fd5b505190612afd565b90506000611475836001600160a01b031663ac41865a876001600160a01b03166356ba88b86040518163ffffffff1660e01b815260040160206040518083038186803b15801561131157600080fd5b505afa158015611325573d6000803e3d6000fd5b505050506040513d602081101561133b57600080fd5b505160408051631f0b96b960e31b815290516001600160a01b039092169163f85cb5c891600480820192602092909190829003018186803b15801561137f57600080fd5b505afa158015611393573d6000803e3d6000fd5b505050506040513d60208110156113a957600080fd5b5051604080516001600160e01b031960e085901b1681526001600160a01b039092166004830152736b175474e89094c44da98b954eedeac495271d0f6024830152516044808301926020929190829003018186803b15801561140a57600080fd5b505afa15801561141e573d6000803e3d6000fd5b505050506040513d602081101561143457600080fd5b5051604080516272edc760e31b815290516001600160a01b038916916303976e38916004808301926020929190829003018186803b15801561129057600080fd5b9050606554856001600160a01b0316636db9cc996040518163ffffffff1660e01b815260040160206040518083038186803b1580156114b357600080fd5b505afa1580156114c7573d6000803e3d6000fd5b505050506040513d60208110156114dd57600080fd5b5051108015906114ee575060655415155b156117b5576000856001600160a01b0316636db40dc26040518163ffffffff1660e01b815260040160206040518083038186803b15801561152e57600080fd5b505afa158015611542573d6000803e3d6000fd5b505050506040513d602081101561155857600080fd5b5051905080156115a157611594816040518060400160405280601081526020016f6f766572666c6f77203936206269747360801b815250612b1b565b96505050505050506106d3565b6000806115d6876000815181106115b457fe5b6020026020010151886001815181106115c957fe5b6020026020010151612bbe565b9092509050670de0b6b3a764000060005b8381101561173c57600061161461160b6276a70061160587866124f3565b90612ca6565b606554906124f3565b6001600160a01b038e166000908152607c60205260408120919250908161163b87866124f3565b815260200190815260200160002060020154905060006074600061166886896124f390919063ffffffff16565b815260200190815260200160002060020154905061168a818311156047611fd0565b866116968560016124f3565b14156116d6576116d36116b66116af856276a700612cca565b8590612cca565b6116cd6116c6866276a700612cca565b4290612cca565b90612cda565b94505b600061171e866117186074846116ec8c8b6124f3565b81526020810191909152604001600020600301546bffffffffffffffffffffffff166117188787612cda565b90612afd565b905061172a89826124f3565b985050600190930192506115e7915050565b5060006117498688612cda565b9050671bc16d674ec800008111156117665750671bc16d674ec800005b6117708582612afd565b94506117a4856040518060400160405280601081526020016f6f766572666c6f77203936206269747360801b815250612b1b565b9a50505050505050505050506106d3565b6000955050505050506106d3565b607c60209081526000928352604080842090915290825290208054600182015460028301546003909301549192909160ff1684565b6118096002607e5414156054611fd0565b6002607e55606e546040805163184a263160e11b81529051611887926001600160a01b0316916330944c62916004808301926020929190829003018186803b15801561185457600080fd5b505afa158015611868573d6000803e3d6000fd5b505050506040513d602081101561187e57600080fd5b50516045611fd0565b606e5460408051635b14f18360e01b815230600482015290516118d3926001600160a01b031691635b14f183916024808301926020929190829003018186803b158015610e2757600080fd5b606e54604080516313bc6d4b60e01b8152336004820152905161191f926001600160a01b0316916313bc6d4b916024808301926020929190829003018186803b158015610d8f57600080fd5b6000611953826040518060400160405280601081526020016f6f766572666c6f77203936206269747360801b815250612b1b565b905061195f8382612cf2565b50506001607e5550565b61197a6002607e5414156054611fd0565b6002607e55606e546040805163364d118160e01b81526001600160a01b0380891660048301529151889385936119d39391169163364d118191602480820192602092909190829003018186803b1580156109f757600080fd5b6119e9336001600160a01b038416146023611fd0565b6119f287612e08565b6119fe87878787612fb0565b50506001607e555050505050565b600090815260716020526040902080546001820154600283015460038401546004909401549294919390929091565b606e5460408051630ad7511760e31b81529051611b2d926001600160a01b0316916313bc6d4b9133916356ba88b8916004808301926020929190829003018186803b158015611a8957600080fd5b505afa158015611a9d573d6000803e3d6000fd5b505050506040513d6020811015611ab357600080fd5b5051604080516001600160e01b031960e085901b1681526001600160a01b039092166004830152516024808301926020929190829003018186803b158015611afa57600080fd5b505afa158015611b0e573d6000803e3d6000fd5b505050506040513d6020811015611b2457600080fd5b50516014611fd0565b611c29336001600160a01b03166356ba88b86040518163ffffffff1660e01b815260040160206040518083038186803b158015611b6957600080fd5b505afa158015611b7d573d6000803e3d6000fd5b505050506040513d6020811015611b9357600080fd5b5051604080517f06061dfa00000000000000000000000000000000000000000000000000000000815233600482015290516001600160a01b03909216916306061dfa91602480820192602092909190829003018186803b158015611bf657600080fd5b505afa158015611c0a573d6000803e3d6000fd5b505050506040513d6020811015611c2057600080fd5b50516049611fd0565b606e546040805163184a263160e11b81529051611c6f926001600160a01b0316916330944c62916004808301926020929190829003018186803b15801561185457600080fd5b6000339050606554816001600160a01b0316636db9cc996040518163ffffffff1660e01b815260040160206040518083038186803b158015611cb057600080fd5b505afa158015611cc4573d6000803e3d6000fd5b505050506040513d6020811015611cda57600080fd5b505110611cec57611cec818484613136565b505050565b60655481565b611cff612503565b6001600160a01b0316611d10610f32565b6001600160a01b031614611d6b576040805162461bcd60e51b815260206004820181905260248201527f4f776e61626c653a2063616c6c6572206973206e6f7420746865206f776e6572604482015290519081900360640190fd5b606e5460408051635b14f18360e01b81523060048201529051611db7926001600160a01b031691635b14f183916024808301926020929190829003018186803b158015610e2757600080fd5b611de76001600160a01b03821615801590611de05750606f546001600160a01b03838116911614155b6060611fd0565b606f80546001600160a01b0319166001600160a01b0392909216919091179055565b611e11612503565b6001600160a01b0316611e22610f32565b6001600160a01b031614611e7d576040805162461bcd60e51b815260206004820181905260248201527f4f776e61626c653a2063616c6c6572206973206e6f7420746865206f776e6572604482015290519081900360640190fd5b6001600160a01b038116611ec25760405162461bcd60e51b8152600401808060200182810382526026815260200180615e906026913960400191505060405180910390fd5b6033546040516001600160a01b038084169216907f8be0079c531659141344cd1fd0a4f28419497f9722a3daafe3b4186f6b6457e090600090a3603380546001600160a01b0319166001600160a01b0392909216919091179055565b600054610100900460ff1680611f375750611f37613388565b80611f45575060005460ff16155b611f805760405162461bcd60e51b815260040180806020018281038252602e815260200180615eb6602e913960400191505060405180910390fd5b600054610100900460ff16158015611fab576000805460ff1961ff0019909116610100171660011790555b611fb3613399565b611fbb613439565b8015611fcd576000805461ff00191690555b50565b81611fde57611fde81613532565b5050565b6060600083905061206c856001600160a01b0316826001600160a01b03166356ba88b86040518163ffffffff1660e01b815260040160206040518083038186803b15801561202f57600080fd5b505afa158015612043573d6000803e3d6000fd5b505050506040513d602081101561205957600080fd5b50516001600160a01b0316146049611fd0565b6120bc856001600160a01b03166306061dfa866040518263ffffffff1660e01b815260040180826001600160a01b0316815260200191505060206040518083038186803b158015611bf657600080fd5b6040805160038082526080820190925260009160208201606080368337019050509050816001600160a01b031663bf1dcfe26040518163ffffffff1660e01b815260040160e06040518083038186803b15801561211857600080fd5b505afa15801561212c573d6000803e3d6000fd5b505050506040513d60e081101561214257600080fd5b50608081015160a082015160c0909201518351919291849060009061216357fe5b602002602001018460018151811061217757fe5b602002602001018560028151811061218b57fe5b60209081029190910101929092529190525260408051600780825261010082019092526000918160200160208202803683370190505090506000806000806000806121d589613585565b93509350935093506000808e6001600160a01b0316633d8270f58e6040518263ffffffff1660e01b815260040180826001600160a01b031681526020019150506101406040518083038186803b15801561222e57600080fd5b505afa158015612242573d6000803e3d6000fd5b505050506040513d61014081101561225957600080fd5b5060208101516040909101518b51919350915081908b90600190811061227b57fe5b60200260200101511180156122a45750818a60008151811061229957fe5b602002602001015110155b801561232557508e6001600160a01b03168b6001600160a01b03166356ba88b86040518163ffffffff1660e01b815260040160206040518083038186803b1580156122ee57600080fd5b505afa158015612302573d6000803e3d6000fd5b505050506040513d602081101561231857600080fd5b50516001600160a01b0316145b156124de57600186151514156123575761235461234d606c54876137d190919063ffffffff16565b8690612cca565b94505b6123658e8e888888886137f5565b8960008151811061237257fe5b6020026020010181815250506123a58960008151811061238e57fe5b6020026020010151886124f390919063ffffffff16565b96506123b48f8f8f8989613b1a565b896001815181106123c157fe5b6020026020010181815250506123f4896001815181106123dd57fe5b6020026020010151896124f390919063ffffffff16565b97506124048e8e88888888613c0a565b8960028151811061241157fe5b60200260200101818152505061242d8960028151811061238e57fe5b965061243e8f8f8f89898989613ff8565b8960038151811061244b57fe5b602002602001018181525050612467896003815181106123dd57fe5b97506124748f8f8f61421f565b8960048151811061248157fe5b60200260200101818152505061249d8960048151811061238e57fe5b96506124aa8f8e896144d5565b896005815181106124b757fe5b60200260200101818152505087896006815181106124d157fe5b6020026020010181815250505b509699505050505050505050505b9392505050565b80820182811015610d2657600080fd5b3390565b60006125186001831015604a611fd0565b6102018210612529575060006106d3565b6000612559612539846001612cca565b6125536701aa535d3d0c000061254d61477a565b906124f3565b90614786565b90506000612571690b581ceb141f05c1ae0083612cda565b90506125a5816040518060400160405280601081526020016f6f766572666c6f77203936206269747360801b815250612b1b565b925050506106d3565b600061262e856001600160a01b031663cb12233b6040518163ffffffff1660e01b815260040160206040518083038186803b1580156125ec57600080fd5b505afa158015612600573d6000803e3d6000fd5b505050506040513d602081101561261657600080fd5b505183108015906126275750838310155b6041611fd0565b6001600160a01b03808616600081815260776020908152604080832094891680845294825280832093835260788252808320948352938152908390208351608081018552815481526001808301549382019390935260028201549481019490945260030154606084015281015490919015806126ad5750838260010154115b156126bd57600092505050610c55565b866001600160a01b031663cb12233b6040518163ffffffff1660e01b815260040160206040518083038186803b1580156126f657600080fd5b505afa15801561270a573d6000803e3d6000fd5b505050506040513d602081101561272057600080fd5b5051851161279057866001600160a01b031663cb12233b6040518163ffffffff1660e01b815260040160206040518083038186803b15801561276157600080fd5b505afa158015612775573d6000803e3d6000fd5b505050506040513d602081101561278b57600080fd5b505194505b61279c878787876147c7565b602083015281526127ae8786866148ec565b60608301526040820152602081015181516127e091108015906127d957508160600151826040015111155b6051611fd0565b60008082600001518710156127f85760009150612865565b825187111561284c578251600090815260048501602052604090205483516128459161282991611605908b90612cca565b84516000908152600487016020526040902060030154906124f3565b9150612865565b8251600090815260048501602052604090206003015491505b6001600160a01b03891660009081526079602090815260408083208682018051855292529091205490516128d2916128a291611605908b90612cca565b6001600160a01b038b166000908152607960209081526040808320888201518452909152902060020154906124f3565b90506128e2818311156050611fd0565b8587141561291157806128fc576000945050505050610c55565b6129068282612cda565b945050505050610c55565b826020015186101561292a576000945050505050610c55565b826020015186148015612941575060208301518351145b156129d1576001600160a01b0389166000908152607960209081526040808320606087018051855292529091205490516129c19183916129bb9161298a91611605908c90612cca565b6001600160a01b038d16600090815260796020908152604080832060608b01518452909152902060020154906124f3565b90612cca565b90506128fc818311156050611fd0565b612a2f826129bb612a0f876004016000886020015181526020019081526020016000206000015461160588602001518c612cca90919063ffffffff16565b602080880151600090815260048a019091526040902060030154906124f3565b6001600160a01b038a166000908152607960209081526040808320606088018051855292529091205490519193506129c19183916129bb9161298a9190611605908c90612cca565b612a99612a888261254d86866124f3565b670d2f13f7789f000014605c611fd0565b60695483141580612aac5750606a548214155b80612ab95750606b548114155b15610f2c576001600160a01b03939093166000908152608060209081526040808320805460ff19166001908117909155607f90925290912092835582015560020155565b60006124ec670de0b6b3a7640000612b158585612ca6565b90614a04565b6000816c010000000000000000000000008410612bb65760405162461bcd60e51b81526004018080602001828103825283818151815260200191508051906020019080838360005b83811015612b7b578181015183820152602001612b63565b50505050905090810190601f168015612ba85780820380516001836020036101000a031916815260200191505b509250505060405180910390fd5b509192915050565b60008080612be5670de0b6b3a7640000612b156276a700612bdf888a612cca565b90614a63565b90506000612c11670de0b6b3a7640000612b156276a700612bdf6065548b612cca90919063ffffffff16565b90506000612c3d670de0b6b3a7640000612b156276a700612bdf6065548b612cca90919063ffffffff16565b9050808214158015612c585750612c558260016124f3565b81145b8015612c6f57506276a700612c6d8789612cca565b105b15612c8257612c7f8360016124f3565b92505b612c8d8360016124f3565b612c988360016124f3565b945094505050509250929050565b6000821580612cc157505081810281838281612cbe57fe5b04145b610d2657600080fd5b80820382811115610d2657600080fd5b60006124ec82612b1585670de0b6b3a7640000612ca6565b606e546040805163184a263160e11b81529051612d38926001600160a01b0316916330944c62916004808301926020929190829003018186803b15801561185457600080fd5b606f54604080516370a0823160e01b815230600482015290516000926001600160a01b0316916370a08231916024808301926020929190829003018186803b158015612d8357600080fd5b505afa158015612d97573d6000803e3d6000fd5b505050506040513d6020811015612dad57600080fd5b505190506bffffffffffffffffffffffff8216811015612de357606f54612dde906001600160a01b03168483614ae5565b611cec565b606f54611cec906001600160a01b0316846bffffffffffffffffffffffff8516614ae5565b6001600160a01b038116600081815260796020908152604080832042845282529182902082517f18160ddd00000000000000000000000000000000000000000000000000000000815292518594919391926318160ddd9260048082019391829003018186803b158015612e7a57600080fd5b505afa158015612e8e573d6000803e3d6000fd5b505050506040513d6020811015612ea457600080fd5b505181554260018201556001600160a01b0383166000908152607b6020526040902054612ed75760006002820155612f6e565b6001600160a01b0382166000908152607960209081526040808320607a8352818420607b9093529083205490918391612f11906001612cca565b81548110612f1b57fe5b906000526020600020015481526020019081526020016000209050612f67612f5c826000015461160584600101548660010154612cca90919063ffffffff16565b6002830154906124f3565b6002830155505b506001600160a01b03166000818152607a6020908152604080832080546001818101835591855283852042910155938352607b90915290208054909101905550565b6001600160a01b038085166000818152607760209081526040808320948816808452948252808320428452600480820184529382902082516370a0823160e01b8152948501969096529051909493926370a08231926024808301939192829003018186803b15801561302157600080fd5b505afa158015613035573d6000803e3d6000fd5b505050506040513d602081101561304b57600080fd5b5051815542600182015560038201546002820181905561307157600060038201556130ba565b815460008181526004840160205260409020546130b4916130989190611605904290612cca565b83546000908152600485016020526040902060030154906124f3565b60038201555b600183151514156130e8578315806130d457506001820154155b156130e0574260018301555b428255613108565b805461310857600080835560018301819055613108906002840190615e61565b5060028101805460018181018355600092835260209092204291015560039091018054909101905550505050565b6000613143848484614b65565b905061323f846001600160a01b03166356ba88b86040518163ffffffff1660e01b815260040160206040518083038186803b15801561318157600080fd5b505afa158015613195573d6000803e3d6000fd5b505050506040513d60208110156131ab57600080fd5b505160408051631f0b96b960e31b815290516001600160a01b039092169163f85cb5c891600480820192602092909190829003018186803b1580156131ef57600080fd5b505afa158015613203573d6000803e3d6000fd5b505050506040513d602081101561321957600080fd5b5051736b175474e89094c44da98b954eedeac495271d0f61323a8685612afd565b614ebc565b4260009081526071602052604090209093508261326b576070546132639085612cca565b60705561327c565b60705461327890856124f3565b6070555b6070548155426001820181905561329290615073565b6002820155607354600382018190556132b1576000600482015561332c565b60006071600060726132cf6001607354612cca90919063ffffffff16565b815481106132d957fe5b90600052602060002001548152602001908152602001600020905061332561331a826000015461160584600101548660010154612cca90919063ffffffff16565b6004830154906124f3565b6004830155505b60728054600181018255600091909152427fdffbd64cc7c1a7eb27984335d9416d51137a03d3fabec7141025c62663253fe190910181905561336d906150ab565b61337885858561573e565b5050607380546001019055505050565b600061339330615bc4565b15905090565b600054610100900460ff16806133b257506133b2613388565b806133c0575060005460ff16155b6133fb5760405162461bcd60e51b815260040180806020018281038252602e815260200180615eb6602e913960400191505060405180910390fd5b600054610100900460ff16158015611fbb576000805460ff1961ff0019909116610100171660011790558015611fcd576000805461ff001916905550565b600054610100900460ff16806134525750613452613388565b80613460575060005460ff16155b61349b5760405162461bcd60e51b815260040180806020018281038252602e815260200180615eb6602e913960400191505060405180910390fd5b600054610100900460ff161580156134c6576000805460ff1961ff0019909116610100171660011790555b60006134d0612503565b603380546001600160a01b0319166001600160a01b038316908117909155604051919250906000907f8be0079c531659141344cd1fd0a4f28419497f9722a3daafe3b4186f6b6457e0908290a3508015611fcd576000805461ff001916905550565b62461bcd60e51b6000908152602060045260076024526642414223000030600a808404818106603090810160081b95839006959095019082900491820690940160101b939093010160c81b604452606490fd5b60008060008060008590506000816001600160a01b03166303976e386040518163ffffffff1660e01b815260040160206040518083038186803b1580156135cb57600080fd5b505afa1580156135df573d6000803e3d6000fd5b505050506040513d60208110156135f557600080fd5b50516040805163d3406abd60e01b815290519192506000916136b091613645916001600160a01b0387169163d3406abd916004808301926020929190829003018186803b15801561122557600080fd5b846001600160a01b03166303cddb2c6040518163ffffffff1660e01b815260040160206040518083038186803b15801561367e57600080fd5b505afa158015613692573d6000803e3d6000fd5b505050506040513d60208110156136a857600080fd5b5051906124f3565b90506000836001600160a01b03166303cddb2c6040518163ffffffff1660e01b815260040160206040518083038186803b1580156136ed57600080fd5b505afa158015613701573d6000803e3d6000fd5b505050506040513d602081101561371757600080fd5b505190506000808080848711801561372f5750858710155b1561375857600193508392506137458786612cca565b91506137518787612cca565b90506137bd565b84871015801561376757508587105b1561378a57600193506000925061377e8786612cca565b91506137518688612cca565b848710801561379857508587105b156137bd57600093508392506137ae8588612cca565b91506137ba8688612cca565b90505b929a50985096509450505050509193509193565b6000670de0b6b3a76400006137e68484612ca6565b816137ed57fe5b049392505050565b6000808790506000816001600160a01b0316636db40dc26040518163ffffffff1660e01b815260040160206040518083038186803b15801561383657600080fd5b505afa15801561384a573d6000803e3d6000fd5b505050506040513d602081101561386057600080fd5b50516040805162f376cb60e21b8152905191925060009182916001600160a01b038616916303cddb2c91600480820192602092909190829003018186803b1580156138aa57600080fd5b505afa1580156138be573d6000803e3d6000fd5b505050506040513d60208110156138d457600080fd5b5051604080516272edc760e31b815290519192506000916001600160a01b038716916303976e38916004808301926020929190829003018186803b15801561391b57600080fd5b505afa15801561392f573d6000803e3d6000fd5b505050506040513d602081101561394557600080fd5b50516040805163d3406abd60e01b8152905191925060009182916139d2916139cb916001600160a01b038b169163d3406abd91600480820192602092909190829003018186803b15801561399857600080fd5b505afa1580156139ac573d6000803e3d6000fd5b505050506040513d60208110156139c257600080fd5b50518690612afd565b85906124f3565b90508c6001600160a01b0316876001600160a01b0316631fe4a6866040518163ffffffff1660e01b815260040160206040518083038186803b158015613a1757600080fd5b505afa158015613a2b573d6000803e3d6000fd5b505050506040513d6020811015613a4157600080fd5b50516001600160a01b03161415613af657606654613a609087906137d1565b945060018c1515148015613a76575060018a1515145b15613ab957613a86856002612ca6565b9150613aa6613a9f613a988386612cda565b8790612afd565b86906124f3565b945081851115613ab4578194505b613b06565b60018c1515148015613ac9575089155b15613af657613aef61234d613ae8613ae18685612cda565b8890612afd565b8790612cca565b9450613b06565b6000975050505050505050613b10565b5092955050505050505b9695505050505050565b60008460018415151415613bfd57846001600160a01b0316816001600160a01b0316631fe4a6866040518163ffffffff1660e01b815260040160206040518083038186803b158015613b6b57600080fd5b505afa158015613b7f573d6000803e3d6000fd5b505050506040513d6020811015613b9557600080fd5b50516001600160a01b03161415613bfd576001600160a01b03871660009081526080602052604081205460ff16613bce57606954613be8565b6001600160a01b0388166000908152607f60205260409020545b9050613bf484826137d1565b92505050610d3a565b5060009695505050505050565b6000808790506000816001600160a01b0316636db40dc26040518163ffffffff1660e01b815260040160206040518083038186803b158015613c4b57600080fd5b505afa158015613c5f573d6000803e3d6000fd5b505050506040513d6020811015613c7557600080fd5b5051604080517f950c78220000000000000000000000000000000000000000000000000000000081526001600160a01b038b8116600483015291519293506000929185169163950c782291602480820192602092909190829003018186803b158015613ce057600080fd5b505afa158015613cf4573d6000803e3d6000fd5b505050506040513d6020811015613d0a57600080fd5b50516040805162f376cb60e21b815290519192506000916001600160a01b038616916303cddb2c916004808301926020929190829003018186803b158015613d5157600080fd5b505afa158015613d65573d6000803e3d6000fd5b505050506040513d6020811015613d7b57600080fd5b5051604080517fd40244cb00000000000000000000000000000000000000000000000000000000815290519192506000916001600160a01b0387169163d40244cb916004808301926020929190829003018186803b158015613ddc57600080fd5b505afa158015613df0573d6000803e3d6000fd5b505050506040513d6020811015613e0657600080fd5b50516040805163d3406abd60e01b815290519192506000918291613e59916139cb916001600160a01b038b169163d3406abd91600480820192602092909190829003018186803b15801561399857600080fd5b905060008086138015613e6e575060018d1515145b8015613e7c575060018b1515145b15613ea357613e9c613e8e8786612cda565b606754611718908a906137d1565b9050613fe6565b600086138015613eb5575060018d1515145b8015613ebf57508a155b15613ef157613ed1613e8e8786612cda565b9050613e9c613eea613ee38c85612cda565b8390612afd565b8290612cca565b600086138015613eff57508c155b15613f0c57506000613fe6565b600086128015613f1a57508a155b15613fcb57613f93613e8e896001600160a01b031663449b98266040518163ffffffff1660e01b815260040160206040518083038186803b158015613f5e57600080fd5b505afa158015613f72573d6000803e3d6000fd5b505050506040513d6020811015613f8857600080fd5b50516116cd89615bca565b9050613fa0816002612ca6565b9250613fb9613fb2613ee38c85612cda565b82906124f3565b905082811115613fc65750815b613fe6565b600086128015613fdd575060018b1515145b15613fe6575060005b9e9d5050505050505050505050505050565b6000808790506000816001600160a01b031663950c7822896040518263ffffffff1660e01b815260040180826001600160a01b0316815260200191505060206040518083038186803b15801561404d57600080fd5b505afa158015614061573d6000803e3d6000fd5b505050506040513d602081101561407757600080fd5b50516001600160a01b038b166000908152608060205260408120549192509060ff166140a557606a546140c2565b6001600160a01b038b166000908152607f60205260409020600101545b90506001881515141561420c5760008213156141585761414e836001600160a01b031663d40244cb6040518163ffffffff1660e01b815260040160206040518083038186803b15801561411457600080fd5b505afa158015614128573d6000803e3d6000fd5b505050506040513d602081101561413e57600080fd5b50516116cd846117188b866137d1565b9350505050614214565b600082128015614166575085155b156141e95761414e836001600160a01b031663449b98266040518163ffffffff1660e01b815260040160206040518083038186803b1580156141a757600080fd5b505afa1580156141bb573d6000803e3d6000fd5b505050506040513d60208110156141d157600080fd5b50516116cd6141df85615bca565b6117188b866137d1565b6000821280156141fb57506001861515145b1561420c5760009350505050614214565b600093505050505b979650505050505050565b6000808390506000816001600160a01b0316636db40dc26040518163ffffffff1660e01b815260040160206040518083038186803b15801561426057600080fd5b505afa158015614274573d6000803e3d6000fd5b505050506040513d602081101561428a57600080fd5b505160408051631f0b96b960e31b81529051919250600091829161438b916001600160a01b038b169163f85cb5c8916004808301926020929190829003018186803b1580156142d857600080fd5b505afa1580156142ec573d6000803e3d6000fd5b505050506040513d602081101561430257600080fd5b50516040805162f376cb60e21b81529051736b175474e89094c44da98b954eedeac495271d0f916001600160a01b038916916303cddb2c91600480820192602092909190829003018186803b15801561435a57600080fd5b505afa15801561436e573d6000803e3d6000fd5b505050506040513d602081101561438457600080fd5b5051614ebc565b604080516003808252608082019092529192506000919060208201606080368337019050509050846001600160a01b031663bf1dcfe26040518163ffffffff1660e01b815260040160e06040518083038186803b1580156143eb57600080fd5b505afa1580156143ff573d6000803e3d6000fd5b505050506040513d60e081101561441557600080fd5b50608081015160a082015160c0909201518351919291849060009061443657fe5b602002602001018460018151811061444a57fe5b602002602001018560028151811061445e57fe5b6020026020010183815250838152508381525050505060006144aa8a898460008151811061448857fe5b60200260200101518560018151811061449d57fe5b60200260200101516125ae565b90506144c76144b98285612cda565b6068546117189088906137d1565b9a9950505050505050505050565b6000808490506000846001600160a01b0316826001600160a01b03166302d05d3f6040518163ffffffff1660e01b815260040160206040518083038186803b15801561452057600080fd5b505afa158015614534573d6000803e3d6000fd5b505050506040513d602081101561454a57600080fd5b5051604080517f02d05d3f00000000000000000000000000000000000000000000000000000000815290516001600160a01b0392831693909314935060009283928616916302d05d3f916004808301926020929190829003018186803b1580156145b357600080fd5b505afa1580156145c7573d6000803e3d6000fd5b505050506040513d60208110156145dd57600080fd5b50516001600160a01b031614156145f55760006145f8565b60015b905060005b60048160ff1610156146be576000846001600160a01b03166363f568b9836040518263ffffffff1660e01b8152600401808260ff16815260200191505060206040518083038186803b15801561465257600080fd5b505afa158015614666573d6000803e3d6000fd5b505050506040513d602081101561467c57600080fd5b505190506001600160a01b038116156146b55760019092019183806146b25750876001600160a01b0316816001600160a01b0316145b93505b506001016145fd565b5060ff811661474a57614740613a9f886001600160a01b031663f251fc8c6040518163ffffffff1660e01b815260040160206040518083038186803b15801561470657600080fd5b505afa15801561471a573d6000803e3d6000fd5b505050506040513d602081101561473057600080fd5b5051606d54612b159089906137d1565b93505050506124ec565b811561476f57614740613a9f8260ff16612b15606d54896137d190919063ffffffff16565b509295945050505050565b670de0b6b3a764000090565b60008061479161477a565b90505b82156124ec5760028306156147b0576147ad81856137d1565b90505b6147ba84806137d1565b9350600283049250614794565b6001600160a01b03808516600090815260776020908152604080832093871683529290529081206002810180548392918391614804906001612cca565b8154811061480e57fe5b9060005260206000200154905060008260020160008154811061482d57fe5b906000526020600020015490508582118061484757508681105b156148df5760005b60028401548110156148dd578684600201828154811061486b57fe5b9060005260206000200154116148985783600201818154811061488a57fe5b906000526020600020015492505b878460020182815481106148a857fe5b9060005260206000200154116148d5578360020181815481106148c757fe5b906000526020600020015491505b60010161484f565b505b9890975095505050505050565b6001600160a01b0383166000908152607a602052604081205481908190614914906001612cca565b6001600160a01b0387166000908152607a60205260408120805492935090918390811061493d57fe5b906000526020600020015490506000607a6000896001600160a01b03166001600160a01b0316815260200190815260200160002060008154811061497d57fe5b906000526020600020015490508582118061499757508681105b156149f85760005b8381116149f6576001600160a01b0389166000908152607a602052604081208054839081106149ca57fe5b906000526020600020015490508781116149e2578093505b8881116149ed578092505b5060010161499f565b505b97909650945050505050565b6000808211614a5a576040805162461bcd60e51b815260206004820152601a60248201527f536166654d6174683a206469766973696f6e206279207a65726f000000000000604482015290519081900360640190fd5b8183816137ed57fe5b600081614ab7576040805162461bcd60e51b815260206004820152601060248201527f43616e7420646976696465206279203000000000000000000000000000000000604482015290519081900360640190fd5b60008311614ac65760006124ec565b6124ec600161254d84612b15836129bb89670de0b6b3a7640000612ca6565b604080516001600160a01b038416602482015260448082018490528251808303909101815260649091019091526020810180517bffffffffffffffffffffffffffffffffffffffffffffffffffffffff167fa9059cbb00000000000000000000000000000000000000000000000000000000179052611cec908490615be1565b600080606e60009054906101000a90046001600160a01b03166001600160a01b0316632630c12f6040518163ffffffff1660e01b815260040160206040518083038186803b158015614bb657600080fd5b505afa158015614bca573d6000803e3d6000fd5b505050506040513d6020811015614be057600080fd5b505160408051630ad7511760e31b815290519192506000916001600160a01b038085169263ac41865a92918a16916356ba88b891600480820192602092909190829003018186803b158015614c3457600080fd5b505afa158015614c48573d6000803e3d6000fd5b505050506040513d6020811015614c5e57600080fd5b505160408051631f0b96b960e31b815290516001600160a01b039092169163f85cb5c891600480820192602092909190829003018186803b158015614ca257600080fd5b505afa158015614cb6573d6000803e3d6000fd5b505050506040513d6020811015614ccc57600080fd5b5051604080516001600160e01b031960e085901b1681526001600160a01b039092166004830152736b175474e89094c44da98b954eedeac495271d0f6024830152516044808301926020929190829003018186803b158015614d2d57600080fd5b505afa158015614d41573d6000803e3d6000fd5b505050506040513d6020811015614d5757600080fd5b50516001600160a01b0387166000908152607d6020526040902054909150614da3576001600160a01b0386166000908152607d6020526040902085815560010181905591506124ec9050565b8315614e5b576001600160a01b0386166000908152607d6020526040902054614e1290614dd090876124f3565b6116cd670de0b6b3a7640000612b15614de98a87612ca6565b6001600160a01b038c166000908152607d60205260409020805460019091015461254d91612ca6565b6001600160a01b0387166000908152607d60205260409020600181019190915554614e3d90866124f3565b6001600160a01b0387166000908152607d6020526040902055614e98565b6001600160a01b0386166000908152607d6020526040902054614e7e9086612cca565b6001600160a01b0387166000908152607d60205260409020555b5050506001600160a01b0383166000908152607d60205260409020600101546124ec565b600080614ec885615c92565b614f3657846001600160a01b031663313ce5676040518163ffffffff1660e01b815260040160206040518083038186803b158015614f0557600080fd5b505afa158015614f19573d6000803e3d6000fd5b505050506040513d6020811015614f2f57600080fd5b5051614f39565b60125b60ff1690506000614f4985615c92565b614fb757846001600160a01b031663313ce5676040518163ffffffff1660e01b815260040160206040518083038186803b158015614f8657600080fd5b505afa158015614f9a573d6000803e3d6000fd5b505050506040513d6020811015614fb057600080fd5b5051614fba565b60125b60ff16905060128211158015614fd1575060128111155b615022576040805162461bcd60e51b815260206004820152601460248201527f556e737570706f7274656420646563696d616c73000000000000000000000000604482015290519081900360640190fd5b808214156150345783925050506124ec565b8181111561505c576150536150498284612cca565b8590600a0a612ca6565b925050506124ec565b613b106150698383612cca565b8590600a0a614a04565b60008061509e670de0b6b3a7640000612b156276a700612bdf60655488612cca90919063ffffffff16565b90506124ec8160016124f3565b606e546040805163184a263160e11b815290516150f1926001600160a01b0316916330944c62916004808301926020929190829003018186803b15801561185457600080fd5b60006150fc82615073565b600081815260746020526040812091925060759061511b846001612cca565b815260208101919091526040016000205460ff166156c15760018101829055607354615182576000600282015561515182612507565b6003820180546bffffffffffffffffffffffff19166bffffffffffffffffffffffff9290921691909117905561568d565b607354600090615193906001612cca565b905060006151ed60716000607285815481106151ab57fe5b90600052602060002001548152602001908152602001600020600401546071600088815260200190815260200160002060040154612cca90919063ffffffff16565b90506151fa846001612cca565b607160006072858154811061520b57fe5b9060005260206000200154815260200190815260200160002060020154141561533e57615299615271607160006072868154811061524557fe5b906000526020600020015481526020019081526020016000206001015487612cca90919063ffffffff16565b612b1561529261528b61160b6276a7006129bb8b82612ca6565b8990612cca565b8490612ca6565b60028401556152a784612507565b6003840180546bffffffffffffffffffffffff19166bffffffffffffffffffffffff929092169190911790556002830154615316906152e7908390612cca565b607460006152f6886001612cca565b8152602001908152602001600020600201546124f390919063ffffffff16565b60746000615325876001612cca565b815260208101919091526040016000206002015561568a565b60005b615381607160006072868154811061535557fe5b906000526020600020015481526020019081526020016000206002015486612cca90919063ffffffff16565b8111615688576000607460006153cd846071600060728a815481106153a257fe5b90600052602060002001548152602001908152602001600020600201546124f390919063ffffffff16565b8152602001908152602001600020905060006153fe61160b6276a700611605866071600060728c815481106153a257fe5b9050826154dc576154a061549561544b6071600060728a8154811061541f57fe5b90600052602060002001548152602001908152602001600020600101548b612cca90919063ffffffff16565b612b1561548e6071600060728c8154811061546257fe5b906000526020600020015481526020019081526020016000206001015486612cca90919063ffffffff16565b8890612ca6565b6002840154906124f3565b826002018190555060716000607287815481106154b957fe5b60009182526020808320909101548352820192909252604001902054825561567e565b61551c60716000607288815481106154f057fe5b906000526020600020015481526020019081526020016000206002015488612cca90919063ffffffff16565b8310156155f857615573615566607160006072898154811061553a57fe5b90600052602060002001548152602001908152602001600020600101548a612cca90919063ffffffff16565b612b15866276a700612ca6565b8260020181905550615598615593846071600060728a815481106153a257fe5b612507565b8260030160006101000a8154816bffffffffffffffffffffffff02191690836bffffffffffffffffffffffff1602179055506155df8360716000607289815481106153a257fe5b826001018190555060716000607287815481106154b957fe5b61563761560f607160006072898154811061553a57fe5b612b1561563061562961160b6276a7006129bb8e82612ca6565b8c90612cca565b8790612ca6565b600287015561564587612507565b6003870180546bffffffffffffffffffffffff19166bffffffffffffffffffffffff929092169190911790556001860187905560705486555b5050600101615341565b505b50505b60016075600061569d8584612cca565b81526020810191909152604001600020805460ff1916911515919091179055615735565b61572f612f5c6071600060726156e36001607354612cca90919063ffffffff16565b815481106156ed57fe5b90600052602060002001548152602001908152602001600020600401546071600087815260200190815260200160002060040154612cca90919063ffffffff16565b60028201555b60705490555050565b606e546040805163184a263160e11b81529051615784926001600160a01b0316916330944c62916004808301926020929190829003018186803b15801561185457600080fd5b6001600160a01b0383166000908152607c60205260408120816157a642615073565b815260208101919091526040908101600090812082516003808252608082019094529093509091816020016020820280368337019050509050846001600160a01b031663bf1dcfe26040518163ffffffff1660e01b815260040160e06040518083038186803b15801561581857600080fd5b505afa15801561582c573d6000803e3d6000fd5b505050506040513d60e081101561584257600080fd5b50608081015160a082015160c0909201518351919291849060009061586357fe5b602002602001018460018151811061587757fe5b602002602001018560028151811061588b57fe5b602090810291909101019290925291905252600382015460ff16615b6c576158c6816000815181106158b957fe5b6020026020010151615073565b6158cf42615073565b14156158ef57600060028301556158e542615073565b6001830155615b58565b600061596961591b8360028151811061590457fe5b602002602001015142612cca90919063ffffffff16565b607c6000896001600160a01b03166001600160a01b031681526020019081526020016000206000615952866002815181106158b957fe5b815260208101919091526040016000205490612ca6565b905060008061598c8460028151811061597e57fe5b602002602001015142612bbe565b9150915060005b82811015615b53576001600160a01b0389166000908152607c60205260408120816159be85856124f3565b8152602001908152602001600020905060006159ed61160b6276a70061160586886124f390919063ffffffff16565b905082615a4557615a3b615495615a0a8960028151811061590457fe5b612b15615a348b600281518110615a1d57fe5b602002602001015186612cca90919063ffffffff16565b8a90612ca6565b6002830155615b49565b600083118015615a5e575084615a5c8460016124f3565b105b15615ad557615a83615a768860028151811061590457fe5b612b15886276a700612ca6565b6002830155615a9284846124f3565b6001808401919091556001600160a01b038c166000908152607c60209081526040808320888452909152902054835560038301805460ff19169091179055615b49565b615b0f615ae88860028151811061590457fe5b612b15615b086116c661160b6276a7006129bb6276a70061160542615073565b8990612ca6565b60028301556001600160a01b038b166000908152607c602090815260408083208784529091529020548255615b4342615073565b60018301555b5050600101615993565b505050505b60038201805460ff19166001179055615b90565b615b8a615495615b828360028151811061590457fe5b845490612ca6565b60028301555b60018315151415615bae578154615ba790856124f3565b8255615bbd565b8154615bba9085612cca565b82555b5050505050565b3b151590565b600080821215615bdd5781600003610d26565b5090565b6000615c36826040518060400160405280602081526020017f5361666545524332303a206c6f772d6c6576656c2063616c6c206661696c6564815250856001600160a01b0316615cc89092919063ffffffff16565b805190915015611cec57808060200190516020811015615c5557600080fd5b5051611cec5760405162461bcd60e51b815260040180806020018281038252602a815260200180615ee4602a913960400191505060405180910390fd5b600073eeeeeeeeeeeeeeeeeeeeeeeeeeeeeeeeeeeeeeee6001600160a01b0383161480610d265750506001600160a01b03161590565b6060610c55848460008585615cdc85615bc4565b615d2d576040805162461bcd60e51b815260206004820152601d60248201527f416464726573733a2063616c6c20746f206e6f6e2d636f6e7472616374000000604482015290519081900360640190fd5b600080866001600160a01b031685876040518082805190602001908083835b60208310615d6b5780518252601f199092019160209182019101615d4c565b6001836020036101000a03801982511681845116808217855250505050505090500191505060006040518083038185875af1925050503d8060008114615dcd576040519150601f19603f3d011682016040523d82523d6000602084013e615dd2565b606091505b509150915061421482828660608315615dec5750816124ec565b825115615dfc5782518084602001fd5b60405162461bcd60e51b8152602060048201818152845160248401528451859391928392604401919085019080838360008315612b7b578181015183820152602001612b63565b60405180606001604052806003906020820280368337509192915050565b5080546000825590600052602060002090810190611fcd91905b80821115615bdd5760008155600101615e7b56fe4f776e61626c653a206e6577206f776e657220697320746865207a65726f2061646472657373496e697469616c697a61626c653a20636f6e747261637420697320616c726561647920696e697469616c697a65645361666545524332303a204552433230206f7065726174696f6e20646964206e6f742073756363656564a2646970667358221220128e58177cdbed14ba8f0388163dc90f11460d3c9f315c936c3591ad08a1fe3764736f6c63430007060033",
  "devdoc": {
    "kind": "dev",
    "methods": {
      "checkProtocol(uint256)": {
        "params": {
          "time": "Timestamp"
        }
      },
      "checkQuarter(uint256)": {
        "params": {
          "_num": "Number of quarter"
        }
      },
      "getContributorPower(address,address,uint256,uint256)": {
        "params": {
          "_contributor": "Address if the contributor",
          "_from": "Initial timestamp",
          "_garden": "Address of the garden where the contributor belongs to",
          "_to": "End timestamp"
        },
        "returns": {
          "_0": "uint256     Contributor power during that period"
        }
      },
      "getGardenProfitsSharing(address)": {
        "params": {
          "_garden": "Address of the garden"
        }
      },
      "getRewards(address,address,address[])": {
        "params": {
          "_contributor": "Address of the contributor to check",
          "_finalizedStrategies": "List of addresses of the finalized strategies to check",
          "_garden": "Garden to which the strategies and the user must belong to"
        },
        "returns": {
          "_0": "Array of size 7 with the following distribution: rewards[0]: Strategist BABL , rewards[1]: Strategist Profit, rewards[2]: Steward BABL, rewards[3]: Steward Profit, rewards[4]: LP BABL, rewards[5]: total BABL, rewards[6]: total Profits"
        }
      },
      "getStrategyRewards(address)": {
        "params": {
          "_strategy": "Strategy to check"
        }
      },
      "owner()": {
        "details": "Returns the address of the current owner."
      },
      "renounceOwnership()": {
        "details": "Leaves the contract without owner. It will not be possible to call `onlyOwner` functions anymore. Can only be called by the current owner. NOTE: Renouncing ownership will leave the contract without an owner, thereby removing any functionality that is only available to the owner."
      },
      "sendTokensToContributor(address,uint256)": {
        "params": {
          "_amount": "Amount of tokens to send the address to",
          "_to": "Address to send the tokens to"
        }
      },
      "setBablToken(address)": {
        "params": {
          "_bablToken": "BABLToken address"
        }
      },
      "setProfitRewards(address,uint256,uint256,uint256)": {
        "params": {
          "_lpShare": "New % of lpShare",
          "_stewardsShare": "New % of stewardsShare",
          "_strategistShare": "New % of strategistShare"
        }
      },
      "tokenSupplyPerQuarter(uint256)": {
        "params": {
          "_quarter": "Number of the epoch (quarter)"
        }
      },
      "transferOwnership(address)": {
        "details": "Transfers ownership of the contract to a new account (`newOwner`). Can only be called by the current owner."
      },
      "updateGardenPowerAndContributor(address,address,uint256,bool,uint256)": {
        "params": {
          "_contributor": "Address of the contributor",
          "_depositOrWithdraw": "If the timestamp is a deposit (true) or a withdraw (false)",
          "_garden": "Address of the garden the contributor belongs to",
          "_pid": "The pid # of the Garden timestamps",
          "_previousBalance": "Previous balance of the contributor"
        }
      },
      "updateProtocolPrincipal(uint256,bool)": {
        "params": {
          "_addOrSubstract": "Whether we are adding or substracting capital",
          "_capital": "Amount of capital in any type of asset to be normalized into DAI"
        }
      }
    },
    "version": 1
  },
  "userdoc": {
    "kind": "user",
    "methods": {
      "checkProtocol(uint256)": {
        "notice": "Check the protocol state in a certain timestamp"
      },
      "checkQuarter(uint256)": {
        "notice": "Check the quarter state for a specific quarter"
      },
      "getContributorPower(address,address,uint256,uint256)": {
        "notice": "Gets the contributor power from one timestamp to the other"
      },
      "getGardenProfitsSharing(address)": {
        "notice": "Check the garden profit sharing % if different from default"
      },
      "getRewards(address,address,address[])": {
        "notice": "Calculates the profits and BABL that a contributor should receive from a series of finalized strategies"
      },
      "getStrategyRewards(address)": {
        "notice": "Gets the total amount of rewards for a given strategy"
      },
      "sendTokensToContributor(address,uint256)": {
        "notice": "Sends BABL tokens rewards to a contributor after a claim is requested to the protocol."
      },
      "setBablToken(address)": {
        "notice": "Function that set the babl Token address as it is going to be released in a future date"
      },
      "setProfitRewards(address,uint256,uint256,uint256)": {
        "notice": "Set customized profit shares for a specific garden by the gardener"
      },
      "startBABLRewards()": {
        "notice": "Starts BABL Rewards Mining Program from the controller."
      },
      "tokenSupplyPerQuarter(uint256)": {
        "notice": "Calculates the BABL rewards supply for each quarter"
      },
      "updateGardenPowerAndContributor(address,address,uint256,bool,uint256)": {
        "notice": "Function that set each contributor timestamp per garden"
      },
      "updateProtocolPrincipal(uint256,bool)": {
        "notice": "Function that adds/substract the capital received to the total principal of the protocol per timestamp"
      }
    },
    "version": 1
  },
  "storageLayout": {
    "storage": [
      {
        "astId": 492,
        "contract": "contracts/token/RewardsDistributor.sol:RewardsDistributorV5",
        "label": "_initialized",
        "offset": 0,
        "slot": "0",
        "type": "t_bool"
      },
      {
        "astId": 495,
        "contract": "contracts/token/RewardsDistributor.sol:RewardsDistributorV5",
        "label": "_initializing",
        "offset": 1,
        "slot": "0",
        "type": "t_bool"
      },
      {
        "astId": 1447,
        "contract": "contracts/token/RewardsDistributor.sol:RewardsDistributorV5",
        "label": "__gap",
        "offset": 0,
        "slot": "1",
        "type": "t_array(t_uint256)50_storage"
      },
      {
        "astId": 10,
        "contract": "contracts/token/RewardsDistributor.sol:RewardsDistributorV5",
        "label": "_owner",
        "offset": 0,
        "slot": "51",
        "type": "t_address"
      },
      {
        "astId": 129,
        "contract": "contracts/token/RewardsDistributor.sol:RewardsDistributorV5",
        "label": "__gap",
        "offset": 0,
        "slot": "52",
        "type": "t_array(t_uint256)49_storage"
      },
      {
        "astId": 48652,
        "contract": "contracts/token/RewardsDistributor.sol:RewardsDistributorV5",
        "label": "START_TIME",
        "offset": 0,
        "slot": "101",
        "type": "t_uint256"
      },
      {
        "astId": 48654,
        "contract": "contracts/token/RewardsDistributor.sol:RewardsDistributorV5",
        "label": "BABL_STRATEGIST_SHARE",
        "offset": 0,
        "slot": "102",
        "type": "t_uint256"
      },
      {
        "astId": 48656,
        "contract": "contracts/token/RewardsDistributor.sol:RewardsDistributorV5",
        "label": "BABL_STEWARD_SHARE",
        "offset": 0,
        "slot": "103",
        "type": "t_uint256"
      },
      {
        "astId": 48658,
        "contract": "contracts/token/RewardsDistributor.sol:RewardsDistributorV5",
        "label": "BABL_LP_SHARE",
        "offset": 0,
        "slot": "104",
        "type": "t_uint256"
      },
      {
        "astId": 48660,
        "contract": "contracts/token/RewardsDistributor.sol:RewardsDistributorV5",
        "label": "PROFIT_STRATEGIST_SHARE",
        "offset": 0,
        "slot": "105",
        "type": "t_uint256"
      },
      {
        "astId": 48662,
        "contract": "contracts/token/RewardsDistributor.sol:RewardsDistributorV5",
        "label": "PROFIT_STEWARD_SHARE",
        "offset": 0,
        "slot": "106",
        "type": "t_uint256"
      },
      {
        "astId": 48664,
        "contract": "contracts/token/RewardsDistributor.sol:RewardsDistributorV5",
        "label": "PROFIT_LP_SHARE",
        "offset": 0,
        "slot": "107",
        "type": "t_uint256"
      },
      {
        "astId": 48666,
        "contract": "contracts/token/RewardsDistributor.sol:RewardsDistributorV5",
        "label": "PROFIT_PROTOCOL_FEE",
        "offset": 0,
        "slot": "108",
        "type": "t_uint256"
      },
      {
        "astId": 48668,
        "contract": "contracts/token/RewardsDistributor.sol:RewardsDistributorV5",
        "label": "CREATOR_BONUS",
        "offset": 0,
        "slot": "109",
        "type": "t_uint256"
      },
      {
        "astId": 48738,
        "contract": "contracts/token/RewardsDistributor.sol:RewardsDistributorV5",
        "label": "controller",
        "offset": 0,
        "slot": "110",
        "type": "t_contract(IBabController)33636"
      },
      {
        "astId": 48740,
        "contract": "contracts/token/RewardsDistributor.sol:RewardsDistributorV5",
        "label": "babltoken",
        "offset": 0,
        "slot": "111",
        "type": "t_contract(TimeLockedToken)54902"
      },
      {
        "astId": 48742,
        "contract": "contracts/token/RewardsDistributor.sol:RewardsDistributorV5",
        "label": "protocolPrincipal",
        "offset": 0,
        "slot": "112",
        "type": "t_uint256"
      },
      {
        "astId": 48746,
        "contract": "contracts/token/RewardsDistributor.sol:RewardsDistributorV5",
        "label": "protocolPerTimestamp",
        "offset": 0,
        "slot": "113",
        "type": "t_mapping(t_uint256,t_struct(ProtocolPerTimestamp)48688_storage)"
      },
      {
        "astId": 48749,
        "contract": "contracts/token/RewardsDistributor.sol:RewardsDistributorV5",
        "label": "timeList",
        "offset": 0,
        "slot": "114",
        "type": "t_array(t_uint256)dyn_storage"
      },
      {
        "astId": 48751,
        "contract": "contracts/token/RewardsDistributor.sol:RewardsDistributorV5",
        "label": "pid",
        "offset": 0,
        "slot": "115",
        "type": "t_uint256"
      },
      {
        "astId": 48755,
        "contract": "contracts/token/RewardsDistributor.sol:RewardsDistributorV5",
        "label": "protocolPerQuarter",
        "offset": 0,
        "slot": "116",
        "type": "t_mapping(t_uint256,t_struct(ProtocolPerQuarter)48697_storage)"
      },
      {
        "astId": 48759,
        "contract": "contracts/token/RewardsDistributor.sol:RewardsDistributorV5",
        "label": "isProtocolPerQuarter",
        "offset": 0,
        "slot": "117",
        "type": "t_mapping(t_uint256,t_bool)"
      },
      {
        "astId": 48765,
        "contract": "contracts/token/RewardsDistributor.sol:RewardsDistributorV5",
        "label": "rewardsPowerOverhead",
        "offset": 0,
        "slot": "118",
        "type": "t_mapping(t_address,t_mapping(t_uint256,t_uint256))"
      },
      {
        "astId": 48771,
        "contract": "contracts/token/RewardsDistributor.sol:RewardsDistributorV5",
        "label": "contributorPerGarden",
        "offset": 0,
        "slot": "119",
        "type": "t_mapping(t_address,t_mapping(t_address,t_struct(ContributorPerGarden)48718_storage))"
      },
      {
        "astId": 48777,
        "contract": "contracts/token/RewardsDistributor.sol:RewardsDistributorV5",
        "label": "checkpoints",
        "offset": 0,
        "slot": "120",
        "type": "t_mapping(t_address,t_mapping(t_address,t_struct(Checkpoints)48736_storage))"
      },
      {
        "astId": 48783,
        "contract": "contracts/token/RewardsDistributor.sol:RewardsDistributorV5",
        "label": "gardenPowerByTimestamp",
        "offset": 0,
        "slot": "121",
        "type": "t_mapping(t_address,t_mapping(t_uint256,t_struct(GardenPowerByTimestamp)48704_storage))"
      },
      {
        "astId": 48788,
        "contract": "contracts/token/RewardsDistributor.sol:RewardsDistributorV5",
        "label": "gardenTimelist",
        "offset": 0,
        "slot": "122",
        "type": "t_mapping(t_address,t_array(t_uint256)dyn_storage)"
      },
      {
        "astId": 48792,
        "contract": "contracts/token/RewardsDistributor.sol:RewardsDistributorV5",
        "label": "gardenPid",
        "offset": 0,
        "slot": "123",
        "type": "t_mapping(t_address,t_uint256)"
      },
      {
        "astId": 48812,
        "contract": "contracts/token/RewardsDistributor.sol:RewardsDistributorV5",
        "label": "strategyPerQuarter",
        "offset": 0,
        "slot": "124",
        "type": "t_mapping(t_address,t_mapping(t_uint256,t_struct(StrategyPerQuarter)48801_storage))"
      },
      {
        "astId": 48816,
        "contract": "contracts/token/RewardsDistributor.sol:RewardsDistributorV5",
        "label": "strategyPricePerTokenUnit",
        "offset": 0,
        "slot": "125",
        "type": "t_mapping(t_address,t_struct(StrategyPricePerTokenUnit)48806_storage)"
      },
      {
        "astId": 48818,
        "contract": "contracts/token/RewardsDistributor.sol:RewardsDistributorV5",
        "label": "status",
        "offset": 0,
        "slot": "126",
        "type": "t_uint256"
      },
      {
        "astId": 48824,
        "contract": "contracts/token/RewardsDistributor.sol:RewardsDistributorV5",
        "label": "gardenProfitSharing",
        "offset": 0,
        "slot": "127",
        "type": "t_mapping(t_address,t_array(t_uint256)3_storage)"
      },
      {
        "astId": 48828,
        "contract": "contracts/token/RewardsDistributor.sol:RewardsDistributorV5",
        "label": "gardenCustomProfitSharing",
        "offset": 0,
        "slot": "128",
        "type": "t_mapping(t_address,t_bool)"
      }
    ],
    "types": {
      "t_address": {
        "encoding": "inplace",
        "label": "address",
        "numberOfBytes": "20"
      },
      "t_array(t_uint256)3_storage": {
        "base": "t_uint256",
        "encoding": "inplace",
        "label": "uint256[3]",
        "numberOfBytes": "96"
      },
      "t_array(t_uint256)49_storage": {
        "base": "t_uint256",
        "encoding": "inplace",
        "label": "uint256[49]",
        "numberOfBytes": "1568"
      },
      "t_array(t_uint256)50_storage": {
        "base": "t_uint256",
        "encoding": "inplace",
        "label": "uint256[50]",
        "numberOfBytes": "1600"
      },
      "t_array(t_uint256)dyn_storage": {
        "base": "t_uint256",
        "encoding": "dynamic_array",
        "label": "uint256[]",
        "numberOfBytes": "32"
      },
      "t_bool": {
        "encoding": "inplace",
        "label": "bool",
        "numberOfBytes": "1"
      },
      "t_contract(IBabController)33636": {
        "encoding": "inplace",
        "label": "contract IBabController",
        "numberOfBytes": "20"
      },
      "t_contract(TimeLockedToken)54902": {
        "encoding": "inplace",
        "label": "contract TimeLockedToken",
        "numberOfBytes": "20"
      },
      "t_mapping(t_address,t_array(t_uint256)3_storage)": {
        "encoding": "mapping",
        "key": "t_address",
        "label": "mapping(address => uint256[3])",
        "numberOfBytes": "32",
        "value": "t_array(t_uint256)3_storage"
      },
      "t_mapping(t_address,t_array(t_uint256)dyn_storage)": {
        "encoding": "mapping",
        "key": "t_address",
        "label": "mapping(address => uint256[])",
        "numberOfBytes": "32",
        "value": "t_array(t_uint256)dyn_storage"
      },
      "t_mapping(t_address,t_bool)": {
        "encoding": "mapping",
        "key": "t_address",
        "label": "mapping(address => bool)",
        "numberOfBytes": "32",
        "value": "t_bool"
      },
      "t_mapping(t_address,t_mapping(t_address,t_struct(Checkpoints)48736_storage))": {
        "encoding": "mapping",
        "key": "t_address",
        "label": "mapping(address => mapping(address => struct RewardsDistributor.Checkpoints))",
        "numberOfBytes": "32",
        "value": "t_mapping(t_address,t_struct(Checkpoints)48736_storage)"
      },
      "t_mapping(t_address,t_mapping(t_address,t_struct(ContributorPerGarden)48718_storage))": {
        "encoding": "mapping",
        "key": "t_address",
        "label": "mapping(address => mapping(address => struct RewardsDistributor.ContributorPerGarden))",
        "numberOfBytes": "32",
        "value": "t_mapping(t_address,t_struct(ContributorPerGarden)48718_storage)"
      },
      "t_mapping(t_address,t_mapping(t_uint256,t_struct(GardenPowerByTimestamp)48704_storage))": {
        "encoding": "mapping",
        "key": "t_address",
        "label": "mapping(address => mapping(uint256 => struct RewardsDistributor.GardenPowerByTimestamp))",
        "numberOfBytes": "32",
        "value": "t_mapping(t_uint256,t_struct(GardenPowerByTimestamp)48704_storage)"
      },
      "t_mapping(t_address,t_mapping(t_uint256,t_struct(StrategyPerQuarter)48801_storage))": {
        "encoding": "mapping",
        "key": "t_address",
        "label": "mapping(address => mapping(uint256 => struct RewardsDistributor.StrategyPerQuarter))",
        "numberOfBytes": "32",
        "value": "t_mapping(t_uint256,t_struct(StrategyPerQuarter)48801_storage)"
      },
      "t_mapping(t_address,t_mapping(t_uint256,t_uint256))": {
        "encoding": "mapping",
        "key": "t_address",
        "label": "mapping(address => mapping(uint256 => uint256))",
        "numberOfBytes": "32",
        "value": "t_mapping(t_uint256,t_uint256)"
      },
      "t_mapping(t_address,t_struct(Checkpoints)48736_storage)": {
        "encoding": "mapping",
        "key": "t_address",
        "label": "mapping(address => struct RewardsDistributor.Checkpoints)",
        "numberOfBytes": "32",
        "value": "t_struct(Checkpoints)48736_storage"
      },
      "t_mapping(t_address,t_struct(ContributorPerGarden)48718_storage)": {
        "encoding": "mapping",
        "key": "t_address",
        "label": "mapping(address => struct RewardsDistributor.ContributorPerGarden)",
        "numberOfBytes": "32",
        "value": "t_struct(ContributorPerGarden)48718_storage"
      },
      "t_mapping(t_address,t_struct(StrategyPricePerTokenUnit)48806_storage)": {
        "encoding": "mapping",
        "key": "t_address",
        "label": "mapping(address => struct RewardsDistributor.StrategyPricePerTokenUnit)",
        "numberOfBytes": "32",
        "value": "t_struct(StrategyPricePerTokenUnit)48806_storage"
      },
      "t_mapping(t_address,t_uint256)": {
        "encoding": "mapping",
        "key": "t_address",
        "label": "mapping(address => uint256)",
        "numberOfBytes": "32",
        "value": "t_uint256"
      },
      "t_mapping(t_uint256,t_bool)": {
        "encoding": "mapping",
        "key": "t_uint256",
        "label": "mapping(uint256 => bool)",
        "numberOfBytes": "32",
        "value": "t_bool"
      },
      "t_mapping(t_uint256,t_struct(GardenPowerByTimestamp)48704_storage)": {
        "encoding": "mapping",
        "key": "t_uint256",
        "label": "mapping(uint256 => struct RewardsDistributor.GardenPowerByTimestamp)",
        "numberOfBytes": "32",
        "value": "t_struct(GardenPowerByTimestamp)48704_storage"
      },
      "t_mapping(t_uint256,t_struct(ProtocolPerQuarter)48697_storage)": {
        "encoding": "mapping",
        "key": "t_uint256",
        "label": "mapping(uint256 => struct RewardsDistributor.ProtocolPerQuarter)",
        "numberOfBytes": "32",
        "value": "t_struct(ProtocolPerQuarter)48697_storage"
      },
      "t_mapping(t_uint256,t_struct(ProtocolPerTimestamp)48688_storage)": {
        "encoding": "mapping",
        "key": "t_uint256",
        "label": "mapping(uint256 => struct RewardsDistributor.ProtocolPerTimestamp)",
        "numberOfBytes": "32",
        "value": "t_struct(ProtocolPerTimestamp)48688_storage"
      },
      "t_mapping(t_uint256,t_struct(StrategyPerQuarter)48801_storage)": {
        "encoding": "mapping",
        "key": "t_uint256",
        "label": "mapping(uint256 => struct RewardsDistributor.StrategyPerQuarter)",
        "numberOfBytes": "32",
        "value": "t_struct(StrategyPerQuarter)48801_storage"
      },
      "t_mapping(t_uint256,t_struct(TimestampContribution)48727_storage)": {
        "encoding": "mapping",
        "key": "t_uint256",
        "label": "mapping(uint256 => struct RewardsDistributor.TimestampContribution)",
        "numberOfBytes": "32",
        "value": "t_struct(TimestampContribution)48727_storage"
      },
      "t_mapping(t_uint256,t_uint256)": {
        "encoding": "mapping",
        "key": "t_uint256",
        "label": "mapping(uint256 => uint256)",
        "numberOfBytes": "32",
        "value": "t_uint256"
      },
      "t_struct(Checkpoints)48736_storage": {
        "encoding": "inplace",
        "label": "struct RewardsDistributor.Checkpoints",
        "members": [
          {
            "astId": 48729,
            "contract": "contracts/token/RewardsDistributor.sol:RewardsDistributorV5",
            "label": "fromDepositAt",
            "offset": 0,
            "slot": "0",
            "type": "t_uint256"
          },
          {
            "astId": 48731,
            "contract": "contracts/token/RewardsDistributor.sol:RewardsDistributorV5",
            "label": "lastDepositAt",
            "offset": 0,
            "slot": "1",
            "type": "t_uint256"
          },
          {
            "astId": 48733,
            "contract": "contracts/token/RewardsDistributor.sol:RewardsDistributorV5",
            "label": "gardenFromDepositAt",
            "offset": 0,
            "slot": "2",
            "type": "t_uint256"
          },
          {
            "astId": 48735,
            "contract": "contracts/token/RewardsDistributor.sol:RewardsDistributorV5",
            "label": "gardenLastDepositAt",
            "offset": 0,
            "slot": "3",
            "type": "t_uint256"
          }
        ],
        "numberOfBytes": "128"
      },
      "t_struct(ContributorPerGarden)48718_storage": {
        "encoding": "inplace",
        "label": "struct RewardsDistributor.ContributorPerGarden",
        "members": [
          {
            "astId": 48706,
            "contract": "contracts/token/RewardsDistributor.sol:RewardsDistributorV5",
            "label": "lastDepositAt",
            "offset": 0,
            "slot": "0",
            "type": "t_uint256"
          },
          {
            "astId": 48708,
            "contract": "contracts/token/RewardsDistributor.sol:RewardsDistributorV5",
            "label": "initialDepositAt",
            "offset": 0,
            "slot": "1",
            "type": "t_uint256"
          },
          {
            "astId": 48711,
            "contract": "contracts/token/RewardsDistributor.sol:RewardsDistributorV5",
            "label": "timeListPointer",
            "offset": 0,
            "slot": "2",
            "type": "t_array(t_uint256)dyn_storage"
          },
          {
            "astId": 48713,
            "contract": "contracts/token/RewardsDistributor.sol:RewardsDistributorV5",
            "label": "pid",
            "offset": 0,
            "slot": "3",
            "type": "t_uint256"
          },
          {
            "astId": 48717,
            "contract": "contracts/token/RewardsDistributor.sol:RewardsDistributorV5",
            "label": "tsContributions",
            "offset": 0,
            "slot": "4",
            "type": "t_mapping(t_uint256,t_struct(TimestampContribution)48727_storage)"
          }
        ],
        "numberOfBytes": "160"
      },
      "t_struct(GardenPowerByTimestamp)48704_storage": {
        "encoding": "inplace",
        "label": "struct RewardsDistributor.GardenPowerByTimestamp",
        "members": [
          {
            "astId": 48699,
            "contract": "contracts/token/RewardsDistributor.sol:RewardsDistributorV5",
            "label": "supply",
            "offset": 0,
            "slot": "0",
            "type": "t_uint256"
          },
          {
            "astId": 48701,
            "contract": "contracts/token/RewardsDistributor.sol:RewardsDistributorV5",
            "label": "timestamp",
            "offset": 0,
            "slot": "1",
            "type": "t_uint256"
          },
          {
            "astId": 48703,
            "contract": "contracts/token/RewardsDistributor.sol:RewardsDistributorV5",
            "label": "power",
            "offset": 0,
            "slot": "2",
            "type": "t_uint256"
          }
        ],
        "numberOfBytes": "96"
      },
      "t_struct(ProtocolPerQuarter)48697_storage": {
        "encoding": "inplace",
        "label": "struct RewardsDistributor.ProtocolPerQuarter",
        "members": [
          {
            "astId": 48690,
            "contract": "contracts/token/RewardsDistributor.sol:RewardsDistributorV5",
            "label": "quarterPrincipal",
            "offset": 0,
            "slot": "0",
            "type": "t_uint256"
          },
          {
            "astId": 48692,
            "contract": "contracts/token/RewardsDistributor.sol:RewardsDistributorV5",
            "label": "quarterNumber",
            "offset": 0,
            "slot": "1",
            "type": "t_uint256"
          },
          {
            "astId": 48694,
            "contract": "contracts/token/RewardsDistributor.sol:RewardsDistributorV5",
            "label": "quarterPower",
            "offset": 0,
            "slot": "2",
            "type": "t_uint256"
          },
          {
            "astId": 48696,
            "contract": "contracts/token/RewardsDistributor.sol:RewardsDistributorV5",
            "label": "supplyPerQuarter",
            "offset": 0,
            "slot": "3",
            "type": "t_uint96"
          }
        ],
        "numberOfBytes": "128"
      },
      "t_struct(ProtocolPerTimestamp)48688_storage": {
        "encoding": "inplace",
        "label": "struct RewardsDistributor.ProtocolPerTimestamp",
        "members": [
          {
            "astId": 48679,
            "contract": "contracts/token/RewardsDistributor.sol:RewardsDistributorV5",
            "label": "principal",
            "offset": 0,
            "slot": "0",
            "type": "t_uint256"
          },
          {
            "astId": 48681,
            "contract": "contracts/token/RewardsDistributor.sol:RewardsDistributorV5",
            "label": "time",
            "offset": 0,
            "slot": "1",
            "type": "t_uint256"
          },
          {
            "astId": 48683,
            "contract": "contracts/token/RewardsDistributor.sol:RewardsDistributorV5",
            "label": "quarterBelonging",
            "offset": 0,
            "slot": "2",
            "type": "t_uint256"
          },
          {
            "astId": 48685,
            "contract": "contracts/token/RewardsDistributor.sol:RewardsDistributorV5",
            "label": "timeListPointer",
            "offset": 0,
            "slot": "3",
            "type": "t_uint256"
          },
          {
            "astId": 48687,
            "contract": "contracts/token/RewardsDistributor.sol:RewardsDistributorV5",
            "label": "power",
            "offset": 0,
            "slot": "4",
            "type": "t_uint256"
          }
        ],
        "numberOfBytes": "160"
      },
      "t_struct(StrategyPerQuarter)48801_storage": {
        "encoding": "inplace",
        "label": "struct RewardsDistributor.StrategyPerQuarter",
        "members": [
          {
            "astId": 48794,
            "contract": "contracts/token/RewardsDistributor.sol:RewardsDistributorV5",
            "label": "quarterPrincipal",
            "offset": 0,
            "slot": "0",
            "type": "t_uint256"
          },
          {
            "astId": 48796,
            "contract": "contracts/token/RewardsDistributor.sol:RewardsDistributorV5",
            "label": "quarterNumber",
            "offset": 0,
            "slot": "1",
            "type": "t_uint256"
          },
          {
            "astId": 48798,
            "contract": "contracts/token/RewardsDistributor.sol:RewardsDistributorV5",
            "label": "quarterPower",
            "offset": 0,
            "slot": "2",
            "type": "t_uint256"
          },
          {
            "astId": 48800,
            "contract": "contracts/token/RewardsDistributor.sol:RewardsDistributorV5",
            "label": "initialized",
            "offset": 0,
            "slot": "3",
            "type": "t_bool"
          }
        ],
        "numberOfBytes": "128"
      },
      "t_struct(StrategyPricePerTokenUnit)48806_storage": {
        "encoding": "inplace",
        "label": "struct RewardsDistributor.StrategyPricePerTokenUnit",
        "members": [
          {
            "astId": 48803,
            "contract": "contracts/token/RewardsDistributor.sol:RewardsDistributorV5",
            "label": "preallocated",
            "offset": 0,
            "slot": "0",
            "type": "t_uint256"
          },
          {
            "astId": 48805,
            "contract": "contracts/token/RewardsDistributor.sol:RewardsDistributorV5",
            "label": "pricePerTokenUnit",
            "offset": 0,
            "slot": "1",
            "type": "t_uint256"
          }
        ],
        "numberOfBytes": "64"
      },
      "t_struct(TimestampContribution)48727_storage": {
        "encoding": "inplace",
        "label": "struct RewardsDistributor.TimestampContribution",
        "members": [
          {
            "astId": 48720,
            "contract": "contracts/token/RewardsDistributor.sol:RewardsDistributorV5",
            "label": "supply",
            "offset": 0,
            "slot": "0",
            "type": "t_uint256"
          },
          {
            "astId": 48722,
            "contract": "contracts/token/RewardsDistributor.sol:RewardsDistributorV5",
            "label": "timestamp",
            "offset": 0,
            "slot": "1",
            "type": "t_uint256"
          },
          {
            "astId": 48724,
            "contract": "contracts/token/RewardsDistributor.sol:RewardsDistributorV5",
            "label": "timePointer",
            "offset": 0,
            "slot": "2",
            "type": "t_uint256"
          },
          {
            "astId": 48726,
            "contract": "contracts/token/RewardsDistributor.sol:RewardsDistributorV5",
            "label": "power",
            "offset": 0,
            "slot": "3",
            "type": "t_uint256"
          }
        ],
        "numberOfBytes": "128"
      },
      "t_uint256": {
        "encoding": "inplace",
        "label": "uint256",
        "numberOfBytes": "32"
      },
      "t_uint96": {
        "encoding": "inplace",
        "label": "uint96",
        "numberOfBytes": "12"
      }
    }
  }
}