{
  "address": "0xD1B924773B60aEad84bbD377B1a04664c786D46F",
  "abi": [
    {
      "anonymous": false,
      "inputs": [
        {
          "indexed": true,
          "internalType": "address",
          "name": "previousOwner",
          "type": "address"
        },
        {
          "indexed": true,
          "internalType": "address",
          "name": "newOwner",
          "type": "address"
        }
      ],
      "name": "OwnershipTransferred",
      "type": "event"
    },
    {
      "inputs": [],
      "name": "DECAY_RATE",
      "outputs": [
        {
          "internalType": "uint256",
          "name": "",
          "type": "uint256"
        }
      ],
      "stateMutability": "view",
      "type": "function"
    },
    {
      "inputs": [],
      "name": "EPOCH_DURATION",
      "outputs": [
        {
          "internalType": "uint256",
          "name": "",
          "type": "uint256"
        }
      ],
      "stateMutability": "view",
      "type": "function"
    },
    {
      "inputs": [],
      "name": "Q1_REWARDS",
      "outputs": [
        {
          "internalType": "uint256",
          "name": "",
          "type": "uint256"
        }
      ],
      "stateMutability": "view",
      "type": "function"
    },
    {
      "inputs": [],
      "name": "START_TIME",
      "outputs": [
        {
          "internalType": "uint256",
          "name": "",
          "type": "uint256"
        }
      ],
      "stateMutability": "view",
      "type": "function"
    },
    {
      "inputs": [],
      "name": "babltoken",
      "outputs": [
        {
          "internalType": "contract TimeLockedToken",
          "name": "",
          "type": "address"
        }
      ],
      "stateMutability": "view",
      "type": "function"
    },
    {
      "inputs": [
        {
          "internalType": "uint256",
          "name": "_time",
          "type": "uint256"
        }
      ],
      "name": "checkProtocol",
      "outputs": [
        {
          "internalType": "uint256",
          "name": "principal",
          "type": "uint256"
        },
        {
          "internalType": "uint256",
          "name": "time",
          "type": "uint256"
        },
        {
          "internalType": "uint256",
          "name": "quarterBelonging",
          "type": "uint256"
        },
        {
          "internalType": "uint256",
          "name": "timeListPointer",
          "type": "uint256"
        },
        {
          "internalType": "uint256",
          "name": "power",
          "type": "uint256"
        }
      ],
      "stateMutability": "view",
      "type": "function"
    },
    {
      "inputs": [
        {
          "internalType": "uint256",
          "name": "_num",
          "type": "uint256"
        }
      ],
      "name": "checkQuarter",
      "outputs": [
        {
          "internalType": "uint256",
          "name": "quarterPrincipal",
          "type": "uint256"
        },
        {
          "internalType": "uint256",
          "name": "quarterNumber",
          "type": "uint256"
        },
        {
          "internalType": "uint256",
          "name": "quarterPower",
          "type": "uint256"
        },
        {
          "internalType": "uint96",
          "name": "supplyPerQuarter",
          "type": "uint96"
        }
      ],
      "stateMutability": "view",
      "type": "function"
    },
    {
      "inputs": [
        {
          "internalType": "address",
          "name": "",
          "type": "address"
        },
        {
          "internalType": "address",
          "name": "",
          "type": "address"
        }
      ],
      "name": "contributorPerGarden",
      "outputs": [
        {
          "internalType": "uint256",
          "name": "lastDepositAt",
          "type": "uint256"
        },
        {
          "internalType": "uint256",
          "name": "initialDepositAt",
          "type": "uint256"
        },
        {
          "internalType": "uint256",
          "name": "pid",
          "type": "uint256"
        }
      ],
      "stateMutability": "view",
      "type": "function"
    },
    {
      "inputs": [],
      "name": "controller",
      "outputs": [
        {
          "internalType": "contract IBabController",
          "name": "",
          "type": "address"
        }
      ],
      "stateMutability": "view",
      "type": "function"
    },
    {
      "inputs": [
        {
          "internalType": "address",
          "name": "",
          "type": "address"
        }
      ],
      "name": "gardenPid",
      "outputs": [
        {
          "internalType": "uint256",
          "name": "",
          "type": "uint256"
        }
      ],
      "stateMutability": "view",
      "type": "function"
    },
    {
      "inputs": [
        {
          "internalType": "address",
          "name": "",
          "type": "address"
        },
        {
          "internalType": "uint256",
          "name": "",
          "type": "uint256"
        }
      ],
      "name": "gardenPowerByTimestamp",
      "outputs": [
        {
          "internalType": "uint256",
          "name": "supply",
          "type": "uint256"
        },
        {
          "internalType": "uint256",
          "name": "timestamp",
          "type": "uint256"
        },
        {
          "internalType": "uint256",
          "name": "power",
          "type": "uint256"
        }
      ],
      "stateMutability": "view",
      "type": "function"
    },
    {
      "inputs": [
        {
          "internalType": "address",
          "name": "",
          "type": "address"
        },
        {
          "internalType": "uint256",
          "name": "",
          "type": "uint256"
        }
      ],
      "name": "gardenTimelist",
      "outputs": [
        {
          "internalType": "uint256",
          "name": "",
          "type": "uint256"
        }
      ],
      "stateMutability": "view",
      "type": "function"
    },
    {
      "inputs": [
        {
          "internalType": "address",
          "name": "_garden",
          "type": "address"
        },
        {
          "internalType": "address",
          "name": "_contributor",
          "type": "address"
        },
        {
          "internalType": "uint256",
          "name": "_from",
          "type": "uint256"
        },
        {
          "internalType": "uint256",
          "name": "_to",
          "type": "uint256"
        }
      ],
      "name": "getContributorPower",
      "outputs": [
        {
          "internalType": "uint256",
          "name": "",
          "type": "uint256"
        }
      ],
      "stateMutability": "view",
      "type": "function"
    },
    {
      "inputs": [
        {
          "internalType": "address",
          "name": "_garden",
          "type": "address"
        },
        {
          "internalType": "address",
          "name": "_contributor",
          "type": "address"
        },
        {
          "internalType": "address[]",
          "name": "_finalizedStrategies",
          "type": "address[]"
        }
      ],
      "name": "getRewards",
      "outputs": [
        {
          "internalType": "uint256[]",
          "name": "",
          "type": "uint256[]"
        }
      ],
      "stateMutability": "view",
      "type": "function"
    },
    {
      "inputs": [
        {
          "internalType": "address",
          "name": "_strategy",
          "type": "address"
        }
      ],
      "name": "getStrategyRewards",
      "outputs": [
        {
          "internalType": "uint96",
          "name": "",
          "type": "uint96"
        }
      ],
      "stateMutability": "view",
      "type": "function"
    },
    {
      "inputs": [
        {
          "internalType": "contract TimeLockedToken",
          "name": "_bablToken",
          "type": "address"
        },
        {
          "internalType": "contract IBabController",
          "name": "_controller",
          "type": "address"
        }
      ],
      "name": "initialize",
      "outputs": [],
      "stateMutability": "nonpayable",
      "type": "function"
    },
    {
      "inputs": [
        {
          "internalType": "uint256",
          "name": "",
          "type": "uint256"
        }
      ],
      "name": "isProtocolPerQuarter",
      "outputs": [
        {
          "internalType": "bool",
          "name": "",
          "type": "bool"
        }
      ],
      "stateMutability": "view",
      "type": "function"
    },
    {
      "inputs": [],
      "name": "owner",
      "outputs": [
        {
          "internalType": "address",
          "name": "",
          "type": "address"
        }
      ],
      "stateMutability": "view",
      "type": "function"
    },
    {
      "inputs": [],
      "name": "pid",
      "outputs": [
        {
          "internalType": "uint256",
          "name": "",
          "type": "uint256"
        }
      ],
      "stateMutability": "view",
      "type": "function"
    },
    {
      "inputs": [
        {
          "internalType": "uint256",
          "name": "",
          "type": "uint256"
        }
      ],
      "name": "protocolPerQuarter",
      "outputs": [
        {
          "internalType": "uint256",
          "name": "quarterPrincipal",
          "type": "uint256"
        },
        {
          "internalType": "uint256",
          "name": "quarterNumber",
          "type": "uint256"
        },
        {
          "internalType": "uint256",
          "name": "quarterPower",
          "type": "uint256"
        },
        {
          "internalType": "uint96",
          "name": "supplyPerQuarter",
          "type": "uint96"
        }
      ],
      "stateMutability": "view",
      "type": "function"
    },
    {
      "inputs": [
        {
          "internalType": "uint256",
          "name": "",
          "type": "uint256"
        }
      ],
      "name": "protocolPerTimestamp",
      "outputs": [
        {
          "internalType": "uint256",
          "name": "principal",
          "type": "uint256"
        },
        {
          "internalType": "uint256",
          "name": "time",
          "type": "uint256"
        },
        {
          "internalType": "uint256",
          "name": "quarterBelonging",
          "type": "uint256"
        },
        {
          "internalType": "uint256",
          "name": "timeListPointer",
          "type": "uint256"
        },
        {
          "internalType": "uint256",
          "name": "power",
          "type": "uint256"
        }
      ],
      "stateMutability": "view",
      "type": "function"
    },
    {
      "inputs": [],
      "name": "protocolPrincipal",
      "outputs": [
        {
          "internalType": "uint256",
          "name": "",
          "type": "uint256"
        }
      ],
      "stateMutability": "view",
      "type": "function"
    },
    {
      "inputs": [],
      "name": "renounceOwnership",
      "outputs": [],
      "stateMutability": "nonpayable",
      "type": "function"
    },
    {
      "inputs": [
        {
          "internalType": "address",
          "name": "",
          "type": "address"
        },
        {
          "internalType": "uint256",
          "name": "",
          "type": "uint256"
        }
      ],
      "name": "rewardsPowerOverhead",
      "outputs": [
        {
          "internalType": "uint256",
          "name": "",
          "type": "uint256"
        }
      ],
      "stateMutability": "view",
      "type": "function"
    },
    {
      "inputs": [
        {
          "internalType": "address",
          "name": "_to",
          "type": "address"
        },
        {
          "internalType": "uint256",
          "name": "_amount",
          "type": "uint256"
        }
      ],
      "name": "sendTokensToContributor",
      "outputs": [],
      "stateMutability": "nonpayable",
      "type": "function"
    },
    {
      "inputs": [
        {
          "internalType": "contract TimeLockedToken",
          "name": "_bablToken",
          "type": "address"
        }
      ],
      "name": "setBablToken",
      "outputs": [],
      "stateMutability": "nonpayable",
      "type": "function"
    },
    {
      "inputs": [],
      "name": "startBABLRewards",
      "outputs": [],
      "stateMutability": "nonpayable",
      "type": "function"
    },
    {
      "inputs": [
        {
          "internalType": "address",
          "name": "",
          "type": "address"
        },
        {
          "internalType": "uint256",
          "name": "",
          "type": "uint256"
        }
      ],
      "name": "strategyPerQuarter",
      "outputs": [
        {
          "internalType": "uint256",
          "name": "quarterPrincipal",
          "type": "uint256"
        },
        {
          "internalType": "uint256",
          "name": "quarterNumber",
          "type": "uint256"
        },
        {
          "internalType": "uint256",
          "name": "quarterPower",
          "type": "uint256"
        },
        {
          "internalType": "bool",
          "name": "initialized",
          "type": "bool"
        }
      ],
      "stateMutability": "view",
      "type": "function"
    },
    {
      "inputs": [
        {
          "internalType": "address",
          "name": "",
          "type": "address"
        }
      ],
      "name": "strategyPricePerTokenUnit",
      "outputs": [
        {
          "internalType": "uint256",
          "name": "preallocated",
          "type": "uint256"
        },
        {
          "internalType": "uint256",
          "name": "pricePerTokenUnit",
          "type": "uint256"
        }
      ],
      "stateMutability": "view",
      "type": "function"
    },
    {
      "inputs": [
        {
          "internalType": "uint256",
          "name": "",
          "type": "uint256"
        }
      ],
      "name": "timeList",
      "outputs": [
        {
          "internalType": "uint256",
          "name": "",
          "type": "uint256"
        }
      ],
      "stateMutability": "view",
      "type": "function"
    },
    {
      "inputs": [
        {
          "internalType": "uint256",
          "name": "_quarter",
          "type": "uint256"
        }
      ],
      "name": "tokenSupplyPerQuarter",
      "outputs": [
        {
          "internalType": "uint96",
          "name": "",
          "type": "uint96"
        }
      ],
      "stateMutability": "view",
      "type": "function"
    },
    {
      "inputs": [
        {
          "internalType": "address",
          "name": "newOwner",
          "type": "address"
        }
      ],
      "name": "transferOwnership",
      "outputs": [],
      "stateMutability": "nonpayable",
      "type": "function"
    },
    {
      "inputs": [
        {
          "internalType": "address",
          "name": "_garden",
          "type": "address"
        },
        {
          "internalType": "address",
          "name": "_contributor",
          "type": "address"
        },
        {
          "internalType": "uint256",
          "name": "_previousBalance",
          "type": "uint256"
        },
        {
          "internalType": "bool",
          "name": "_depositOrWithdraw",
          "type": "bool"
        },
        {
          "internalType": "uint256",
          "name": "_pid",
          "type": "uint256"
        }
      ],
      "name": "updateGardenPowerAndContributor",
      "outputs": [],
      "stateMutability": "nonpayable",
      "type": "function"
    },
    {
      "inputs": [
        {
          "internalType": "uint256",
          "name": "_capital",
          "type": "uint256"
        },
        {
          "internalType": "bool",
          "name": "_addOrSubstract",
          "type": "bool"
        }
      ],
      "name": "updateProtocolPrincipal",
      "outputs": [],
      "stateMutability": "nonpayable",
      "type": "function"
    }
  ],
  "transactionHash": "0xd1c9a7b202238a2059497042c144853dc4e3a2b199598088a90da3055c8c3f35",
  "args": [],
  "solcInputHash": "9848dc78f52f46992b529e31fb1275ff",
  "bytecode": "0x608060405234801561001057600080fd5b50615e0780620000216000396000f3fe608060405234801561001057600080fd5b50600436106102265760003560e01c8063a67500471161012a578063ddaa26ad116100bd578063f1ed38611161008c578063f6c8d7b511610071578063f6c8d7b51461077b578063f77c4791146107a7578063fd9ff86c146107af57610226565b8063f1ed386114610729578063f2fde38b1461075557610226565b8063ddaa26ad146106eb578063e5cab4fa146106f3578063ef9f3450146106fb578063f10684541461072157610226565b8063cf149387116100f9578063cf14938714610637578063d60913ce14610654578063d717a506146106a0578063db4b3af5146106c557610226565b8063a6750047146105a2578063a70b9f0c146105bf578063a8d9a781146105c7578063bad67dd1146105f357610226565b80636e570b59116101bd578063787696781161018c5780638da5cb5b116101715780638da5cb5b146105205780639de9a052146105285780639e839e1b1461054e57610226565b806378769678146104e757806379fc904f1461051857610226565b80636e570b5914610462578063715018a61461046a57806373a9fd9f146104725780637602bdde146104ab57610226565b8063485cc955116101f9578063485cc955146102f65780635668c8f01461032657806356773b791461036557806369795e931461038957610226565b806308c6850f1461022b5780631de40e49146102735780632544dc181461028d5780633c0deba4146102d9575b600080fd5b6102486004803603602081101561024157600080fd5b50356107db565b6040805195865260208601949094528484019290925260608401526080830152519081900360a00190f35b61027b61080a565b60408051918252519081900360200190f35b6102aa600480360360208110156102a357600080fd5b5035610816565b604080519485526020850193909352838301919091526001600160601b03166060830152519081900360800190f35b6102aa600480360360208110156102ef57600080fd5b5035610847565b6103246004803603604081101561030c57600080fd5b506001600160a01b0381358116916020013516610877565b005b61034c6004803603602081101561033c57600080fd5b50356001600160a01b0316610aaa565b6040805192835260208301919091528051918290030190f35b61036d610ac3565b604080516001600160a01b039092168252519081900360200190f35b6104126004803603606081101561039f57600080fd5b6001600160a01b0382358116926020810135909116918101906060810160408201356401000000008111156103d357600080fd5b8201836020820111156103e557600080fd5b8035906020019184602083028401116401000000008311171561040757600080fd5b509092509050610ad2565b60408051602080825283518183015283519192839290830191858101910280838360005b8381101561044e578181015183820152602001610436565b505050509050019250505060405180910390f35b61027b610db2565b610324610dc0565b61048f6004803603602081101561048857600080fd5b5035610e7e565b604080516001600160601b039092168252519081900360200190f35b61027b600480360360808110156104c157600080fd5b506001600160a01b03813581169160208101359091169060408101359060600135610e91565b610504600480360360208110156104fd57600080fd5b5035610ea8565b604080519115158252519081900360200190f35b610324610ebd565b61036d610fe3565b61048f6004803603602081101561053e57600080fd5b50356001600160a01b0316610ff2565b61057a6004803603604081101561056457600080fd5b506001600160a01b038135169060200135611730565b6040805194855260208501939093528383019190915215156060830152519081900360800190f35b61027b600480360360208110156105b857600080fd5b5035611765565b61027b611786565b610324600480360360408110156105dd57600080fd5b506001600160a01b03813516906020013561178d565b610324600480360360a081101561060957600080fd5b506001600160a01b0381358116916020810135909116906040810135906060810135151590608001356118fe565b6102486004803603602081101561064d57600080fd5b5035611a5a565b6106826004803603604081101561066a57600080fd5b506001600160a01b0381358116916020013516611a89565b60408051938452602084019290925282820152519081900360600190f35b610324600480360360408110156106b657600080fd5b50803590602001351515611ab5565b61027b600480360360208110156106db57600080fd5b50356001600160a01b0316611d83565b61027b611d95565b61027b611d9b565b6103246004803603602081101561071157600080fd5b50356001600160a01b0316611da1565b61027b611e83565b61027b6004803603604081101561073f57600080fd5b506001600160a01b038135169060200135611e89565b6103246004803603602081101561076b57600080fd5b50356001600160a01b0316611eba565b61027b6004803603604081101561079157600080fd5b506001600160a01b038135169060200135611fcf565b61036d611fec565b610682600480360360408110156107c557600080fd5b506001600160a01b038135169060200135611ffb565b607160205260009081526040902080546001820154600283015460038401546004909401549293919290919085565b6701aa535d3d0c000081565b600090815260746020526040902080546001820154600283015460039093015491939092916001600160601b031690565b6074602052600090815260409020805460018201546002830154600390930154919290916001600160601b031684565b61087f612027565b6108956001600160a01b038316151560176120d9565b6108ab6001600160a01b038216151560176120d9565b606f80546001600160a01b038085166001600160a01b031992831617909255606e805484841692169190911790819055604080517ff142c3bc0000000000000000000000000000000000000000000000000000000081529051919092169163f142c3bc916004808301926080929190829003018186803b15801561092e57600080fd5b505afa158015610942573d6000803e3d6000fd5b505050506040513d608081101561095857600080fd5b5080516020820151604080840151606094850151606d55606855606791909155606691909155606e5481517f2e0519cf00000000000000000000000000000000000000000000000000000000815291516001600160a01b0390911692632e0519cf9260048082019391829003018186803b1580156109d557600080fd5b505afa1580156109e9573d6000803e3d6000fd5b505050506040513d60608110156109ff57600080fd5b508051602080830151604093840151606b55606a55606991909155606e5482517f568c081300000000000000000000000000000000000000000000000000000000815292516001600160a01b039091169263568c0813926004808301939192829003018186803b158015610a7257600080fd5b505afa158015610a86573d6000803e3d6000fd5b505050506040513d6020811015610a9c57600080fd5b5051606c5550506001607e55565b607d602052600090815260409020805460019091015482565b606f546001600160a01b031681565b6040805160078082526101008201909252606091600091906020820160e08036833701905050606e546040805163364d118160e01b81526001600160a01b038a811660048301529151939450610b7f93919092169163364d1181916024808301926020929190829003018186803b158015610b4c57600080fd5b505afa158015610b60573d6000803e3d6000fd5b505050506040513d6020811015610b7657600080fd5b505160236120d9565b60005b83811015610da65760408051600780825261010082019092526000916020820160e080368337019050509050610bd488878785818110610bbe57fe5b905060200201356001600160a01b0316896120eb565b9050610c1181600081518110610be657fe5b602002602001015184600081518110610bfb57fe5b602002602001015161264590919063ffffffff16565b83600081518110610c1e57fe5b602002602001018181525050610c4f81600181518110610c3a57fe5b602002602001015184600181518110610bfb57fe5b83600181518110610c5c57fe5b602002602001018181525050610c8d81600281518110610c7857fe5b602002602001015184600281518110610bfb57fe5b83600281518110610c9a57fe5b602002602001018181525050610ccb81600381518110610cb657fe5b602002602001015184600381518110610bfb57fe5b83600381518110610cd857fe5b602002602001018181525050610d0981600481518110610cf457fe5b602002602001015184600481518110610bfb57fe5b83600481518110610d1657fe5b602002602001018181525050610d4781600581518110610d3257fe5b602002602001015184600581518110610bfb57fe5b83600581518110610d5457fe5b602002602001018181525050610d8581600681518110610d7057fe5b602002602001015184600681518110610bfb57fe5b83600681518110610d9257fe5b602090810291909101015250600101610b82565b5090505b949350505050565b690b581ceb141f05c1ae0081565b610dc861265b565b6001600160a01b0316610dd9610fe3565b6001600160a01b031614610e34576040805162461bcd60e51b815260206004820181905260248201527f4f776e61626c653a2063616c6c6572206973206e6f7420746865206f776e6572604482015290519081900360640190fd5b6033546040516000916001600160a01b0316907f8be0079c531659141344cd1fd0a4f28419497f9722a3daafe3b4186f6b6457e0908390a3603380546001600160a01b0319169055565b6000610e898261265f565b90505b919050565b6000610e9f85858585612706565b95945050505050565b60756020526000908152604090205460ff1681565b606e54604080516313bc6d4b60e01b81523360048201529051610f3c926001600160a01b0316916313bc6d4b916024808301926020929190829003018186803b158015610f0957600080fd5b505afa158015610f1d573d6000803e3d6000fd5b505050506040513d6020811015610f3357600080fd5b505160486120d9565b606e54610f55906001600160a01b0316331460106120d9565b606e5460408051635b14f18360e01b81523060048201529051610fd5926001600160a01b031691635b14f183916024808301926020929190829003018186803b158015610fa157600080fd5b505afa158015610fb5573d6000803e3d6000fd5b505050506040513d6020811015610fcb57600080fd5b50511560536120d9565b606554610fe157426065555b565b6033546001600160a01b031690565b600080829050611069816001600160a01b031663d0f9953e6040518163ffffffff1660e01b815260040160206040518083038186803b15801561103457600080fd5b505afa158015611048573d6000803e3d6000fd5b505050506040513d602081101561105e57600080fd5b5051151560316120d9565b606e54604080517f2630c12f00000000000000000000000000000000000000000000000000000000815290516000926001600160a01b031691632630c12f916004808301926020929190829003018186803b1580156110c757600080fd5b505afa1580156110db573d6000803e3d6000fd5b505050506040513d60208110156110f157600080fd5b505160408051630ad7511760e31b815290519192506000916001600160a01b038085169263ac41865a92918716916356ba88b891600480820192602092909190829003018186803b15801561114557600080fd5b505afa158015611159573d6000803e3d6000fd5b505050506040513d602081101561116f57600080fd5b505160408051631f0b96b960e31b815290516001600160a01b039092169163f85cb5c891600480820192602092909190829003018186803b1580156111b357600080fd5b505afa1580156111c7573d6000803e3d6000fd5b505050506040513d60208110156111dd57600080fd5b5051604080517fffffffff0000000000000000000000000000000000000000000000000000000060e085901b1681526001600160a01b039092166004830152736b175474e89094c44da98b954eedeac495271d0f6024830152516044808301926020929190829003018186803b15801561125657600080fd5b505afa15801561126a573d6000803e3d6000fd5b505050506040513d602081101561128057600080fd5b50516040805162f376cb60e21b815290519192506000916112ff9184916001600160a01b038816916303cddb2c916004808301926020929190829003018186803b1580156112cd57600080fd5b505afa1580156112e1573d6000803e3d6000fd5b505050506040513d60208110156112f757600080fd5b505190612bcf565b9050600061134083866001600160a01b03166303976e386040518163ffffffff1660e01b815260040160206040518083038186803b1580156112cd57600080fd5b9050606554856001600160a01b0316636db9cc996040518163ffffffff1660e01b815260040160206040518083038186803b15801561137e57600080fd5b505afa158015611392573d6000803e3d6000fd5b505050506040513d60208110156113a857600080fd5b5051108015906113b9575060655415155b15611722576000856001600160a01b0316636db40dc26040518163ffffffff1660e01b815260040160206040518083038186803b1580156113f957600080fd5b505afa15801561140d573d6000803e3d6000fd5b505050506040513d602081101561142357600080fd5b50519050801561146c5761145f816040518060400160405280601081526020016f6f766572666c6f77203936206269747360801b815250612bed565b9650505050505050610e8c565b600080611548886001600160a01b031663825deffe6040518163ffffffff1660e01b815260040160206040518083038186803b1580156114ab57600080fd5b505afa1580156114bf573d6000803e3d6000fd5b505050506040513d60208110156114d557600080fd5b50516040805163687cca9f60e11b815290516001600160a01b038c169163d0f9953e916004808301926020929190829003018186803b15801561151757600080fd5b505afa15801561152b573d6000803e3d6000fd5b505050506040513d602081101561154157600080fd5b5051612c90565b9092509050670de0b6b3a764000060005b838110156116a957600061158661157d6276a7006115778786612645565b90612d78565b60655490612645565b6001600160a01b038e166000908152607c6020526040812091925090816115ad8786612645565b81526020019081526020016000206002015490506000607460006115da868961264590919063ffffffff16565b81526020019081526020016000206002015490506115fc8183111560476120d9565b86611608856001612645565b141561164857611645611628611621856276a700612d9c565b8590612d9c565b61163f611638866276a700612d9c565b4290612d9c565b90612dac565b94505b600061168b8661168560748461165e8c8b612645565b81526020810191909152604001600020600301546001600160601b03166116858787612dac565b90612bcf565b90506116978982612645565b98505060019093019250611559915050565b5060006116b68688612dac565b9050671bc16d674ec800008111156116d35750671bc16d674ec800005b6116dd8582612bcf565b9450611711856040518060400160405280601081526020016f6f766572666c6f77203936206269747360801b815250612bed565b9a5050505050505050505050610e8c565b600095505050505050610e8c565b607c60209081526000928352604080842090915290825290208054600182015460028301546003909301549192909160ff1684565b6072818154811061177557600080fd5b600091825260209091200154905081565b6276a70081565b61179e6002607e54141560546120d9565b6002607e55606e546040805163184a263160e11b8152905161181c926001600160a01b0316916330944c62916004808301926020929190829003018186803b1580156117e957600080fd5b505afa1580156117fd573d6000803e3d6000fd5b505050506040513d602081101561181357600080fd5b505160456120d9565b606e5460408051635b14f18360e01b81523060048201529051611868926001600160a01b031691635b14f183916024808301926020929190829003018186803b158015610fa157600080fd5b606e54604080516313bc6d4b60e01b815233600482015290516118b4926001600160a01b0316916313bc6d4b916024808301926020929190829003018186803b158015610f0957600080fd5b60006118e8826040518060400160405280601081526020016f6f766572666c6f77203936206269747360801b815250612bed565b90506118f48382612dc4565b50506001607e5550565b61190f6002607e54141560546120d9565b6002607e5584818015158061193c57506001600160a01b0382166000908152607b60205260409020546001105b156119e557606e54604080516313bc6d4b60e01b81526001600160a01b03858116600483015291516119939392909216916313bc6d4b91602480820192602092909190829003018186803b158015610f0957600080fd5b606e546040805163364d118160e01b81526001600160a01b03858116600483015291516119e593929092169163364d118191602480820192602092909190829003018186803b158015610b4c57600080fd5b6119fb336001600160a01b0384161460236120d9565b611a37826001600160a01b03166302fb0c5e6040518163ffffffff1660e01b815260040160206040518083038186803b158015610b4c57600080fd5b611a4087612ed0565b611a4c87878787613078565b50506001607e555050505050565b600090815260716020526040902080546001820154600283015460038401546004909401549294919390929091565b607760209081526000928352604080842090915290825290208054600182015460039092015490919083565b606e5460408051630ad7511760e31b81529051611bbf926001600160a01b0316916313bc6d4b9133916356ba88b8916004808301926020929190829003018186803b158015611b0357600080fd5b505afa158015611b17573d6000803e3d6000fd5b505050506040513d6020811015611b2d57600080fd5b5051604080517fffffffff0000000000000000000000000000000000000000000000000000000060e085901b1681526001600160a01b039092166004830152516024808301926020929190829003018186803b158015611b8c57600080fd5b505afa158015611ba0573d6000803e3d6000fd5b505050506040513d6020811015611bb657600080fd5b505160146120d9565b611cbb336001600160a01b03166356ba88b86040518163ffffffff1660e01b815260040160206040518083038186803b158015611bfb57600080fd5b505afa158015611c0f573d6000803e3d6000fd5b505050506040513d6020811015611c2557600080fd5b5051604080517f06061dfa00000000000000000000000000000000000000000000000000000000815233600482015290516001600160a01b03909216916306061dfa91602480820192602092909190829003018186803b158015611c8857600080fd5b505afa158015611c9c573d6000803e3d6000fd5b505050506040513d6020811015611cb257600080fd5b505160496120d9565b606e546040805163184a263160e11b81529051611d01926001600160a01b0316916330944c62916004808301926020929190829003018186803b1580156117e957600080fd5b6000339050606554816001600160a01b0316636db9cc996040518163ffffffff1660e01b815260040160206040518083038186803b158015611d4257600080fd5b505afa158015611d56573d6000803e3d6000fd5b505050506040513d6020811015611d6c57600080fd5b505110611d7e57611d7e8184846131fe565b505050565b607b6020526000908152604090205481565b60655481565b60705481565b611da961265b565b6001600160a01b0316611dba610fe3565b6001600160a01b031614611e15576040805162461bcd60e51b815260206004820181905260248201527f4f776e61626c653a2063616c6c6572206973206e6f7420746865206f776e6572604482015290519081900360640190fd5b606e5460408051635b14f18360e01b81523060048201529051611e61926001600160a01b031691635b14f183916024808301926020929190829003018186803b158015610fa157600080fd5b606f80546001600160a01b0319166001600160a01b0392909216919091179055565b60735481565b607a6020528160005260406000208181548110611ea557600080fd5b90600052602060002001600091509150505481565b611ec261265b565b6001600160a01b0316611ed3610fe3565b6001600160a01b031614611f2e576040805162461bcd60e51b815260206004820181905260248201527f4f776e61626c653a2063616c6c6572206973206e6f7420746865206f776e6572604482015290519081900360640190fd5b6001600160a01b038116611f735760405162461bcd60e51b8152600401808060200182810382526026815260200180615d546026913960400191505060405180910390fd5b6033546040516001600160a01b038084169216907f8be0079c531659141344cd1fd0a4f28419497f9722a3daafe3b4186f6b6457e090600090a3603380546001600160a01b0319166001600160a01b0392909216919091179055565b607660209081526000928352604080842090915290825290205481565b606e546001600160a01b031681565b607960209081526000928352604080842090915290825290208054600182015460029092015490919083565b600054610100900460ff16806120405750612040613450565b8061204e575060005460ff16155b6120895760405162461bcd60e51b815260040180806020018281038252602e815260200180615d7a602e913960400191505060405180910390fd5b600054610100900460ff161580156120b4576000805460ff1961ff0019909116610100171660011790555b6120bc613461565b6120c4613501565b80156120d6576000805461ff00191690555b50565b816120e7576120e7816135fa565b5050565b60606000839050612175856001600160a01b0316826001600160a01b03166356ba88b86040518163ffffffff1660e01b815260040160206040518083038186803b15801561213857600080fd5b505afa15801561214c573d6000803e3d6000fd5b505050506040513d602081101561216257600080fd5b50516001600160a01b03161460496120d9565b6121c5856001600160a01b03166306061dfa866040518263ffffffff1660e01b815260040180826001600160a01b0316815260200191505060206040518083038186803b158015611c8857600080fd5b60408051600780825261010082019092526000916020820160e0803683370190505090506000806000806000806121fb8861364d565b93509350935093506000808d6001600160a01b0316633d8270f58d6040518263ffffffff1660e01b815260040180826001600160a01b031681526020019150506101206040518083038186803b15801561225457600080fd5b505afa158015612268573d6000803e3d6000fd5b505050506040513d61012081101561227f57600080fd5b50602080820151604092830151835163687cca9f60e11b81529351919550935083926001600160a01b038e169263d0f9953e92600480840193829003018186803b1580156122cc57600080fd5b505afa1580156122e0573d6000803e3d6000fd5b505050506040513d60208110156122f657600080fd5b50511180156123695750818a6001600160a01b031663825deffe6040518163ffffffff1660e01b815260040160206040518083038186803b15801561233a57600080fd5b505afa15801561234e573d6000803e3d6000fd5b505050506040513d602081101561236457600080fd5b505110155b80156123ea57508d6001600160a01b03168a6001600160a01b03166356ba88b86040518163ffffffff1660e01b815260040160206040518083038186803b1580156123b357600080fd5b505afa1580156123c7573d6000803e3d6000fd5b505050506040513d60208110156123dd57600080fd5b50516001600160a01b0316145b15612631576001861515141561241c57612419612412606c548761390490919063ffffffff16565b8690612d9c565b94505b61242a8a8d88888888613928565b8960008151811061243757fe5b60200260200101818152505061246a8960008151811061245357fe5b60200260200101518861264590919063ffffffff16565b96506124788a8d8888613c67565b8960018151811061248557fe5b6020026020010181815250506124b8896001815181106124a157fe5b60200260200101518961264590919063ffffffff16565b97506124c88a8d88888888613d17565b896002815181106124d557fe5b6020026020010181815250506124f18960028151811061245357fe5b96506125018a8d88888888614105565b8960038151811061250e57fe5b60200260200101818152505061252a896003815181106124a157fe5b97506125378e8e8e6142e8565b8960048151811061254457fe5b6020026020010181815250506125608960048151811061245357fe5b96508d6001600160a01b03166302d05d3f6040518163ffffffff1660e01b815260040160206040518083038186803b15801561259b57600080fd5b505afa1580156125af573d6000803e3d6000fd5b505050506040513d60208110156125c557600080fd5b50516001600160a01b038d8116911614156125fc576125f96125f2606d548961390490919063ffffffff16565b8890612645565b96505b868960058151811061260a57fe5b602002602001018181525050878960068151811061262457fe5b6020026020010181815250505b5096985050505050505050505b9392505050565b8082018281101561265557600080fd5b92915050565b3390565b60006126706001831015604a6120d9565b610201821061268157506000610e8c565b60006126b1612691846001612d9c565b6126ab6701aa535d3d0c00006126a561455d565b90612645565b90614569565b905060006126c9690b581ceb141f05c1ae0083612dac565b90506126fd816040518060400160405280601081526020016f6f766572666c6f77203936206269747360801b815250612bed565b92505050610e8c565b6000612786856001600160a01b031663cb12233b6040518163ffffffff1660e01b815260040160206040518083038186803b15801561274457600080fd5b505afa158015612758573d6000803e3d6000fd5b505050506040513d602081101561276e57600080fd5b5051831080159061277f5750838310155b60416120d9565b6001600160a01b03808616600081815260776020908152604080832094891680845294825280832093835260788252808320948352938152908390208351608081018552815481526001808301549382019390935260028201549481019490945260030154606084015281015490919015806128055750838260010154115b1561281557600092505050610daa565b866001600160a01b031663cb12233b6040518163ffffffff1660e01b815260040160206040518083038186803b15801561284e57600080fd5b505afa158015612862573d6000803e3d6000fd5b505050506040513d602081101561287857600080fd5b505185116128e857866001600160a01b031663cb12233b6040518163ffffffff1660e01b815260040160206040518083038186803b1580156128b957600080fd5b505afa1580156128cd573d6000803e3d6000fd5b505050506040513d60208110156128e357600080fd5b505194505b6128f4878787876145aa565b602083015281526129068786866146cf565b6060830152604082015260208101518151612938911080159061293157508160600151826040015111155b60516120d9565b600080826000015187101561295057600091506129bd565b82518711156129a45782516000908152600485016020526040902054835161299d9161298191611577908b90612d9c565b8451600090815260048701602052604090206003015490612645565b91506129bd565b8251600090815260048501602052604090206003015491505b6001600160a01b0389166000908152607960209081526040808320868201805185529252909120549051612a2a916129fa91611577908b90612d9c565b6001600160a01b038b16600090815260796020908152604080832088820151845290915290206002015490612645565b9050612a3a8183111560506120d9565b85871415612a695780612a54576000945050505050610daa565b612a5e8282612dac565b945050505050610daa565b8260200151861015612a82576000945050505050610daa565b826020015186148015612a99575060208301518351145b15612b29576001600160a01b038916600090815260796020908152604080832060608701805185529252909120549051612b19918391612b1391612ae291611577908c90612d9c565b6001600160a01b038d16600090815260796020908152604080832060608b0151845290915290206002015490612645565b90612d9c565b9050612a548183111560506120d9565b612b8782612b13612b67876004016000886020015181526020019081526020016000206000015461157788602001518c612d9c90919063ffffffff16565b602080880151600090815260048a01909152604090206003015490612645565b6001600160a01b038a16600090815260796020908152604080832060608801805185529252909120549051919350612b19918391612b1391612ae29190611577908c90612d9c565b600061263e670de0b6b3a7640000612be78585612d78565b906147e7565b6000816c010000000000000000000000008410612c885760405162461bcd60e51b81526004018080602001828103825283818151815260200191508051906020019080838360005b83811015612c4d578181015183820152602001612c35565b50505050905090810190601f168015612c7a5780820380516001836020036101000a031916815260200191505b509250505060405180910390fd5b509192915050565b60008080612cb7670de0b6b3a7640000612be76276a700612cb1888a612d9c565b90614846565b90506000612ce3670de0b6b3a7640000612be76276a700612cb16065548b612d9c90919063ffffffff16565b90506000612d0f670de0b6b3a7640000612be76276a700612cb16065548b612d9c90919063ffffffff16565b9050808214158015612d2a5750612d27826001612645565b81145b8015612d4157506276a700612d3f8789612d9c565b105b15612d5457612d51836001612645565b92505b612d5f836001612645565b612d6a836001612645565b945094505050509250929050565b6000821580612d9357505081810281838281612d9057fe5b04145b61265557600080fd5b8082038281111561265557600080fd5b600061263e82612be785670de0b6b3a7640000612d78565b606e546040805163184a263160e11b81529051612e0a926001600160a01b0316916330944c62916004808301926020929190829003018186803b1580156117e957600080fd5b606f54604080516370a0823160e01b815230600482015290516000926001600160a01b0316916370a08231916024808301926020929190829003018186803b158015612e5557600080fd5b505afa158015612e69573d6000803e3d6000fd5b505050506040513d6020811015612e7f57600080fd5b505190506001600160601b038216811015612eb057606f54612eab906001600160a01b031684836148c8565b611d7e565b606f54611d7e906001600160a01b0316846001600160601b0385166148c8565b6001600160a01b038116600081815260796020908152604080832042845282529182902082517f18160ddd00000000000000000000000000000000000000000000000000000000815292518594919391926318160ddd9260048082019391829003018186803b158015612f4257600080fd5b505afa158015612f56573d6000803e3d6000fd5b505050506040513d6020811015612f6c57600080fd5b505181554260018201556001600160a01b0383166000908152607b6020526040902054612f9f5760006002820155613036565b6001600160a01b0382166000908152607960209081526040808320607a8352818420607b9093529083205490918391612fd9906001612d9c565b81548110612fe357fe5b90600052602060002001548152602001908152602001600020905061302f613024826000015461157784600101548660010154612d9c90919063ffffffff16565b600283015490612645565b6002830155505b506001600160a01b03166000818152607a6020908152604080832080546001818101835591855283852042910155938352607b90915290208054909101905550565b6001600160a01b038085166000818152607760209081526040808320948816808452948252808320428452600480820184529382902082516370a0823160e01b8152948501969096529051909493926370a08231926024808301939192829003018186803b1580156130e957600080fd5b505afa1580156130fd573d6000803e3d6000fd5b505050506040513d602081101561311357600080fd5b505181554260018201556003820154600282018190556131395760006003820155613182565b8154600081815260048401602052604090205461317c916131609190611577904290612d9c565b8354600090815260048501602052604090206003015490612645565b60038201555b600183151514156131b05783158061319c57506001820154155b156131a8574260018301555b4282556131d0565b80546131d0576000808355600183018190556131d0906002840190615d25565b5060028101805460018181018355600092835260209092204291015560039091018054909101905550505050565b600061320b848484614948565b9050613307846001600160a01b03166356ba88b86040518163ffffffff1660e01b815260040160206040518083038186803b15801561324957600080fd5b505afa15801561325d573d6000803e3d6000fd5b505050506040513d602081101561327357600080fd5b505160408051631f0b96b960e31b815290516001600160a01b039092169163f85cb5c891600480820192602092909190829003018186803b1580156132b757600080fd5b505afa1580156132cb573d6000803e3d6000fd5b505050506040513d60208110156132e157600080fd5b5051736b175474e89094c44da98b954eedeac495271d0f6133028685612bcf565b614cb2565b426000908152607160205260409020909350826133335760705461332b9085612d9c565b607055613344565b6070546133409085612645565b6070555b6070548155426001820181905561335a90614e6d565b60028201556073546003820181905561337957600060048201556133f4565b60006071600060726133976001607354612d9c90919063ffffffff16565b815481106133a157fe5b9060005260206000200154815260200190815260200160002090506133ed6133e2826000015461157784600101548660010154612d9c90919063ffffffff16565b600483015490612645565b6004830155505b60728054600181018255600091909152427fdffbd64cc7c1a7eb27984335d9416d51137a03d3fabec7141025c62663253fe190910181905561343590614ea5565b61344085858561551f565b5050607380546001019055505050565b600061345b30615acc565b15905090565b600054610100900460ff168061347a575061347a613450565b80613488575060005460ff16155b6134c35760405162461bcd60e51b815260040180806020018281038252602e815260200180615d7a602e913960400191505060405180910390fd5b600054610100900460ff161580156120c4576000805460ff1961ff00199091166101001716600117905580156120d6576000805461ff001916905550565b600054610100900460ff168061351a575061351a613450565b80613528575060005460ff16155b6135635760405162461bcd60e51b815260040180806020018281038252602e815260200180615d7a602e913960400191505060405180910390fd5b600054610100900460ff1615801561358e576000805460ff1961ff0019909116610100171660011790555b600061359861265b565b603380546001600160a01b0319166001600160a01b038316908117909155604051919250906000907f8be0079c531659141344cd1fd0a4f28419497f9722a3daafe3b4186f6b6457e0908290a35080156120d6576000805461ff001916905550565b62461bcd60e51b6000908152602060045260076024526642414223000030600a808404818106603090810160081b95839006959095019082900491820690940160101b939093010160c81b604452606490fd5b60008060008060008590506000816001600160a01b03166303976e386040518163ffffffff1660e01b815260040160206040518083038186803b15801561369357600080fd5b505afa1580156136a7573d6000803e3d6000fd5b505050506040513d60208110156136bd57600080fd5b50516040805163d3406abd60e01b815290519192506000916137e391613778916001600160a01b0387169163d3406abd916004808301926020929190829003018186803b15801561370d57600080fd5b505afa158015613721573d6000803e3d6000fd5b505050506040513d602081101561373757600080fd5b50516040805162f376cb60e21b815290516001600160a01b038816916303cddb2c916004808301926020929190829003018186803b1580156112cd57600080fd5b846001600160a01b03166303cddb2c6040518163ffffffff1660e01b815260040160206040518083038186803b1580156137b157600080fd5b505afa1580156137c5573d6000803e3d6000fd5b505050506040513d60208110156137db57600080fd5b505190612645565b90506000836001600160a01b03166303cddb2c6040518163ffffffff1660e01b815260040160206040518083038186803b15801561382057600080fd5b505afa158015613834573d6000803e3d6000fd5b505050506040513d602081101561384a57600080fd5b50519050600080808084871180156138625750858710155b1561388b57600193508392506138788786612d9c565b91506138848787612d9c565b90506138f0565b84871015801561389a57508587105b156138bd5760019350600092506138b18786612d9c565b91506138848688612d9c565b84871080156138cb57508587105b156138f057600093508392506138e18588612d9c565b91506138ed8688612d9c565b90505b929a50985096509450505050509193509193565b6000670de0b6b3a76400006139198484612d78565b8161392057fe5b049392505050565b6000808790506000816001600160a01b0316636db40dc26040518163ffffffff1660e01b815260040160206040518083038186803b15801561396957600080fd5b505afa15801561397d573d6000803e3d6000fd5b505050506040513d602081101561399357600080fd5b50516040805162f376cb60e21b8152905191925060009182916001600160a01b038616916303cddb2c91600480820192602092909190829003018186803b1580156139dd57600080fd5b505afa1580156139f1573d6000803e3d6000fd5b505050506040513d6020811015613a0757600080fd5b5051604080517f03976e3800000000000000000000000000000000000000000000000000000000815290519192506000916001600160a01b038716916303976e38916004808301926020929190829003018186803b158015613a6857600080fd5b505afa158015613a7c573d6000803e3d6000fd5b505050506040513d6020811015613a9257600080fd5b50516040805163d3406abd60e01b815290519192506000918291613b1f91613b18916001600160a01b038b169163d3406abd91600480820192602092909190829003018186803b158015613ae557600080fd5b505afa158015613af9573d6000803e3d6000fd5b505050506040513d6020811015613b0f57600080fd5b50518690612bcf565b8590612645565b90508c6001600160a01b0316876001600160a01b0316631fe4a6866040518163ffffffff1660e01b815260040160206040518083038186803b158015613b6457600080fd5b505afa158015613b78573d6000803e3d6000fd5b505050506040513d6020811015613b8e57600080fd5b50516001600160a01b03161415613c4357606654613bad908790613904565b945060018c1515148015613bc3575060018a1515145b15613c0657613bd3856002612d78565b9150613bf3613bec613be58386612dac565b8790612bcf565b8690612645565b945081851115613c01578194505b613c53565b60018c1515148015613c16575089155b15613c4357613c3c612412613c35613c2e8685612dac565b8890612bcf565b8790612d9c565b9450613c53565b6000975050505050505050613c5d565b5092955050505050505b9695505050505050565b6000848160018515151415613d0a57856001600160a01b0316826001600160a01b0316631fe4a6866040518163ffffffff1660e01b815260040160206040518083038186803b158015613cb957600080fd5b505afa158015613ccd573d6000803e3d6000fd5b505050506040513d6020811015613ce357600080fd5b50516001600160a01b03161415613d0557606954613d02908590613904565b90505b613c5d565b5060009695505050505050565b6000808790506000816001600160a01b0316636db40dc26040518163ffffffff1660e01b815260040160206040518083038186803b158015613d5857600080fd5b505afa158015613d6c573d6000803e3d6000fd5b505050506040513d6020811015613d8257600080fd5b5051604080517f950c78220000000000000000000000000000000000000000000000000000000081526001600160a01b038b8116600483015291519293506000929185169163950c782291602480820192602092909190829003018186803b158015613ded57600080fd5b505afa158015613e01573d6000803e3d6000fd5b505050506040513d6020811015613e1757600080fd5b50516040805162f376cb60e21b815290519192506000916001600160a01b038616916303cddb2c916004808301926020929190829003018186803b158015613e5e57600080fd5b505afa158015613e72573d6000803e3d6000fd5b505050506040513d6020811015613e8857600080fd5b5051604080517fd40244cb00000000000000000000000000000000000000000000000000000000815290519192506000916001600160a01b0387169163d40244cb916004808301926020929190829003018186803b158015613ee957600080fd5b505afa158015613efd573d6000803e3d6000fd5b505050506040513d6020811015613f1357600080fd5b50516040805163d3406abd60e01b815290519192506000918291613f6691613b18916001600160a01b038b169163d3406abd91600480820192602092909190829003018186803b158015613ae557600080fd5b905060008086138015613f7b575060018d1515145b8015613f89575060018b1515145b15613fb057613fa9613f9b8786612dac565b606754611685908a90613904565b90506140f3565b600086138015613fc2575060018d1515145b8015613fcc57508a155b15613ffe57613fde613f9b8786612dac565b9050613fa9613ff7613ff08c85612dac565b8390612bcf565b8290612d9c565b60008613801561400c57508c155b15614019575060006140f3565b60008612801561402757508a155b156140d8576140a0613f9b896001600160a01b031663449b98266040518163ffffffff1660e01b815260040160206040518083038186803b15801561406b57600080fd5b505afa15801561407f573d6000803e3d6000fd5b505050506040513d602081101561409557600080fd5b505161163f89615ad2565b90506140ad816002612d78565b92506140c66140bf613ff08c85612dac565b8290612645565b9050828111156140d35750815b6140f3565b6000861280156140ea575060018b1515145b156140f3575060005b9e9d5050505050505050505050505050565b600080879050600080826001600160a01b031663950c78228a6040518263ffffffff1660e01b815260040180826001600160a01b0316815260200191505060206040518083038186803b15801561415b57600080fd5b505afa15801561416f573d6000803e3d6000fd5b505050506040513d602081101561418557600080fd5b50519050600188151514156142d657600081131561422057614219836001600160a01b031663d40244cb6040518163ffffffff1660e01b815260040160206040518083038186803b1580156141d957600080fd5b505afa1580156141ed573d6000803e3d6000fd5b505050506040513d602081101561420357600080fd5b5051606a5461163f908490611685908c90613904565b91506142d1565b60008112801561422e575085155b156142b557614219836001600160a01b031663449b98266040518163ffffffff1660e01b815260040160206040518083038186803b15801561426f57600080fd5b505afa158015614283573d6000803e3d6000fd5b505050506040513d602081101561429957600080fd5b505161163f6142a784615ad2565b606a54611685908c90613904565b6000811280156142c757506001861515145b156142d157600091505b6142db565b600091505b5098975050505050505050565b6000808390506000816001600160a01b0316636db40dc26040518163ffffffff1660e01b815260040160206040518083038186803b15801561432957600080fd5b505afa15801561433d573d6000803e3d6000fd5b505050506040513d602081101561435357600080fd5b505160408051631f0b96b960e31b815290519192506000918291614454916001600160a01b038b169163f85cb5c8916004808301926020929190829003018186803b1580156143a157600080fd5b505afa1580156143b5573d6000803e3d6000fd5b505050506040513d60208110156143cb57600080fd5b50516040805162f376cb60e21b81529051736b175474e89094c44da98b954eedeac495271d0f916001600160a01b038916916303cddb2c91600480820192602092909190829003018186803b15801561442357600080fd5b505afa158015614437573d6000803e3d6000fd5b505050506040513d602081101561444d57600080fd5b5051614cb2565b905060006145338988876001600160a01b031663825deffe6040518163ffffffff1660e01b815260040160206040518083038186803b15801561449657600080fd5b505afa1580156144aa573d6000803e3d6000fd5b505050506040513d60208110156144c057600080fd5b50516040805163687cca9f60e11b815290516001600160a01b038b169163d0f9953e916004808301926020929190829003018186803b15801561450257600080fd5b505afa158015614516573d6000803e3d6000fd5b505050506040513d602081101561452c57600080fd5b5051612706565b90506145506145428284612dac565b606854611685908790613904565b9998505050505050505050565b670de0b6b3a764000090565b60008061457461455d565b90505b821561263e576002830615614593576145908185613904565b90505b61459d8480613904565b9350600283049250614577565b6001600160a01b038085166000908152607760209081526040808320938716835292905290812060028101805483929183916145e7906001612d9c565b815481106145f157fe5b9060005260206000200154905060008260020160008154811061461057fe5b906000526020600020015490508582118061462a57508681105b156146c25760005b60028401548110156146c0578684600201828154811061464e57fe5b90600052602060002001541161467b5783600201818154811061466d57fe5b906000526020600020015492505b8784600201828154811061468b57fe5b9060005260206000200154116146b8578360020181815481106146aa57fe5b906000526020600020015491505b600101614632565b505b9890975095505050505050565b6001600160a01b0383166000908152607a6020526040812054819081906146f7906001612d9c565b6001600160a01b0387166000908152607a60205260408120805492935090918390811061472057fe5b906000526020600020015490506000607a6000896001600160a01b03166001600160a01b0316815260200190815260200160002060008154811061476057fe5b906000526020600020015490508582118061477a57508681105b156147db5760005b8381116147d9576001600160a01b0389166000908152607a602052604081208054839081106147ad57fe5b906000526020600020015490508781116147c5578093505b8881116147d0578092505b50600101614782565b505b97909650945050505050565b600080821161483d576040805162461bcd60e51b815260206004820152601a60248201527f536166654d6174683a206469766973696f6e206279207a65726f000000000000604482015290519081900360640190fd5b81838161392057fe5b60008161489a576040805162461bcd60e51b815260206004820152601060248201527f43616e7420646976696465206279203000000000000000000000000000000000604482015290519081900360640190fd5b600083116148a957600061263e565b61263e60016126a584612be783612b1389670de0b6b3a7640000612d78565b604080516001600160a01b038416602482015260448082018490528251808303909101815260649091019091526020810180517bffffffffffffffffffffffffffffffffffffffffffffffffffffffff167fa9059cbb00000000000000000000000000000000000000000000000000000000179052611d7e908490615ae9565b600080606e60009054906101000a90046001600160a01b03166001600160a01b0316632630c12f6040518163ffffffff1660e01b815260040160206040518083038186803b15801561499957600080fd5b505afa1580156149ad573d6000803e3d6000fd5b505050506040513d60208110156149c357600080fd5b505160408051630ad7511760e31b815290519192506000916001600160a01b038085169263ac41865a92918a16916356ba88b891600480820192602092909190829003018186803b158015614a1757600080fd5b505afa158015614a2b573d6000803e3d6000fd5b505050506040513d6020811015614a4157600080fd5b505160408051631f0b96b960e31b815290516001600160a01b039092169163f85cb5c891600480820192602092909190829003018186803b158015614a8557600080fd5b505afa158015614a99573d6000803e3d6000fd5b505050506040513d6020811015614aaf57600080fd5b5051604080517fffffffff0000000000000000000000000000000000000000000000000000000060e085901b1681526001600160a01b039092166004830152736b175474e89094c44da98b954eedeac495271d0f6024830152516044808301926020929190829003018186803b158015614b2857600080fd5b505afa158015614b3c573d6000803e3d6000fd5b505050506040513d6020811015614b5257600080fd5b50516001600160a01b0387166000908152607d6020526040902054909150614b9e576001600160a01b0386166000908152607d60205260409020858155600101819055915061263e9050565b8315614c51576001600160a01b0386166000908152607d6020526040902054614c0890670de0b6b3a764000090612be790614bd99089612645565b61163f614be68a87612d78565b6001600160a01b038c166000908152607d602052604090206001015490612645565b6001600160a01b0387166000908152607d60205260409020600181019190915554614c339086612645565b6001600160a01b0387166000908152607d6020526040902055614c8e565b6001600160a01b0386166000908152607d6020526040902054614c749086612d9c565b6001600160a01b0387166000908152607d60205260409020555b5050506001600160a01b0383166000908152607d602052604090206001015461263e565b6000806001600160a01b03851615614d2e57846001600160a01b031663313ce5676040518163ffffffff1660e01b815260040160206040518083038186803b158015614cfd57600080fd5b505afa158015614d11573d6000803e3d6000fd5b505050506040513d6020811015614d2757600080fd5b5051614d31565b60125b60ff16905060006001600160a01b03851615614db157846001600160a01b031663313ce5676040518163ffffffff1660e01b815260040160206040518083038186803b158015614d8057600080fd5b505afa158015614d94573d6000803e3d6000fd5b505050506040513d6020811015614daa57600080fd5b5051614db4565b60125b60ff16905060128211158015614dcb575060128111155b614e1c576040805162461bcd60e51b815260206004820152601460248201527f556e737570706f7274656420646563696d616c73000000000000000000000000604482015290519081900360640190fd5b80821415614e2e57839250505061263e565b81811115614e5657614e4d614e438284612d9c565b8590600a0a612d78565b9250505061263e565b613c5d614e638383612d9c565b8590600a0a6147e7565b600080614e98670de0b6b3a7640000612be76276a700612cb160655488612d9c90919063ffffffff16565b905061263e816001612645565b606e546040805163184a263160e11b81529051614eeb926001600160a01b0316916330944c62916004808301926020929190829003018186803b1580156117e957600080fd5b6000614ef682614e6d565b6000818152607460205260408120919250607590614f15846001612d9c565b815260208101919091526040016000205460ff166154a25760018101829055607354614f775760006002820155614f4b8261265f565b6003820180546bffffffffffffffffffffffff19166001600160601b039290921691909117905561546e565b607354600090614f88906001612d9c565b90506000614fe26071600060728581548110614fa057fe5b90600052602060002001548152602001908152602001600020600401546071600088815260200190815260200160002060040154612d9c90919063ffffffff16565b9050614fef846001612d9c565b607160006072858154811061500057fe5b9060005260206000200154815260200190815260200160002060020154141561512e5761508e615066607160006072868154811061503a57fe5b906000526020600020015481526020019081526020016000206001015487612d9c90919063ffffffff16565b612be761508761508061157d6276a700612b138b82612d78565b8990612d9c565b8490612d78565b600284015561509c8461265f565b6003840180546bffffffffffffffffffffffff19166001600160601b03929092169190911790556002830154615106906150d7908390612d9c565b607460006150e6886001612d9c565b81526020019081526020016000206002015461264590919063ffffffff16565b60746000615115876001612d9c565b815260208101919091526040016000206002015561546b565b60005b615171607160006072868154811061514557fe5b906000526020600020015481526020019081526020016000206002015486612d9c90919063ffffffff16565b8111615469576000607460006151bd846071600060728a8154811061519257fe5b906000526020600020015481526020019081526020016000206002015461264590919063ffffffff16565b8152602001908152602001600020905060006151ee61157d6276a700611577866071600060728c8154811061519257fe5b9050826152cc5761529061528561523b6071600060728a8154811061520f57fe5b90600052602060002001548152602001908152602001600020600101548b612d9c90919063ffffffff16565b612be761527e6071600060728c8154811061525257fe5b906000526020600020015481526020019081526020016000206001015486612d9c90919063ffffffff16565b8890612d78565b600284015490612645565b826002018190555060716000607287815481106152a957fe5b60009182526020808320909101548352820192909252604001902054825561545f565b61530c60716000607288815481106152e057fe5b906000526020600020015481526020019081526020016000206002015488612d9c90919063ffffffff16565b8310156153de57615363615356607160006072898154811061532a57fe5b90600052602060002001548152602001908152602001600020600101548a612d9c90919063ffffffff16565b612be7866276a700612d78565b8260020181905550615388615383846071600060728a8154811061519257fe5b61265f565b8260030160006101000a8154816001600160601b0302191690836001600160601b031602179055506153c583607160006072898154811061519257fe5b826001018190555060716000607287815481106152a957fe5b61541d6153f5607160006072898154811061532a57fe5b612be761541661540f61157d6276a700612b138e82612d78565b8c90612d9c565b8790612d78565b600287015561542b8761265f565b6003870180546bffffffffffffffffffffffff19166001600160601b03929092169190911790556001860187905560705486555b5050600101615131565b505b50505b60016075600061547e8584612d9c565b81526020810191909152604001600020805460ff1916911515919091179055615516565b6155106130246071600060726154c46001607354612d9c90919063ffffffff16565b815481106154ce57fe5b90600052602060002001548152602001908152602001600020600401546071600087815260200190815260200160002060040154612d9c90919063ffffffff16565b60028201555b60705490555050565b606e546040805163184a263160e11b81529051615565926001600160a01b0316916330944c62916004808301926020929190829003018186803b1580156117e957600080fd5b6001600160a01b0383166000908152607c602052604081208161558742614e6d565b81526020810191909152604001600020600381015490915060ff16615a4957615613846001600160a01b031663825deffe6040518163ffffffff1660e01b815260040160206040518083038186803b1580156155e257600080fd5b505afa1580156155f6573d6000803e3d6000fd5b505050506040513d602081101561560c57600080fd5b5051614e6d565b61561c42614e6d565b141561563c576000600282015561563242614e6d565b6001820155615a35565b600061572a6156b0866001600160a01b0316637519ab506040518163ffffffff1660e01b815260040160206040518083038186803b15801561567d57600080fd5b505afa158015615691573d6000803e3d6000fd5b505050506040513d60208110156156a757600080fd5b50514290612d9c565b607c6000886001600160a01b03166001600160a01b031681526020019081526020016000206000615713896001600160a01b0316637519ab506040518163ffffffff1660e01b815260040160206040518083038186803b1580156155e257600080fd5b815260208101919091526040016000205490612d78565b905060008061579d876001600160a01b0316637519ab506040518163ffffffff1660e01b815260040160206040518083038186803b15801561576b57600080fd5b505afa15801561577f573d6000803e3d6000fd5b505050506040513d602081101561579557600080fd5b505142612c90565b9150915060005b82811015615a30576001600160a01b0388166000908152607c60205260408120816157cf8585612645565b8152602001908152602001600020905060006157fe61157d6276a700611577868861264590919063ffffffff16565b9050826158ca576158c06152856158478c6001600160a01b0316637519ab506040518163ffffffff1660e01b815260040160206040518083038186803b15801561567d57600080fd5b612be76158b98e6001600160a01b0316637519ab506040518163ffffffff1660e01b815260040160206040518083038186803b15801561588657600080fd5b505afa15801561589a573d6000803e3d6000fd5b505050506040513d60208110156158b057600080fd5b50518690612d9c565b8a90612d78565b6002830155615a26565b6000831180156158e35750846158e1846001612645565b105b15615986576159346159278b6001600160a01b0316637519ab506040518163ffffffff1660e01b815260040160206040518083038186803b15801561567d57600080fd5b612be7886276a700612d78565b60028301556159438484612645565b6001808401919091556001600160a01b038b166000908152607c60209081526040808320888452909152902054835560038301805460ff19169091179055615a26565b6159ec6159c58b6001600160a01b0316637519ab506040518163ffffffff1660e01b815260040160206040518083038186803b15801561567d57600080fd5b612be76159e561163861157d6276a700612b136276a70061157742614e6d565b8990612d78565b60028301556001600160a01b038a166000908152607c602090815260408083208784529091529020548255615a2042614e6d565b60018301555b50506001016157a4565b505050505b60038101805460ff19166001179055615a99565b615a93613024615a8b866001600160a01b0316637519ab506040518163ffffffff1660e01b815260040160206040518083038186803b15801561567d57600080fd5b835490612d78565b60028201555b60018215151415615ab7578054615ab09084612645565b8155615ac6565b8054615ac39084612d9c565b81555b50505050565b3b151590565b600080821215615ae55781600003610e89565b5090565b6000615b3e826040518060400160405280602081526020017f5361666545524332303a206c6f772d6c6576656c2063616c6c206661696c6564815250856001600160a01b0316615b9a9092919063ffffffff16565b805190915015611d7e57808060200190516020811015615b5d57600080fd5b5051611d7e5760405162461bcd60e51b815260040180806020018281038252602a815260200180615da8602a913960400191505060405180910390fd5b6060610daa848460008585615bae85615acc565b615bff576040805162461bcd60e51b815260206004820152601d60248201527f416464726573733a2063616c6c20746f206e6f6e2d636f6e7472616374000000604482015290519081900360640190fd5b600080866001600160a01b031685876040518082805190602001908083835b60208310615c3d5780518252601f199092019160209182019101615c1e565b6001836020036101000a03801982511681845116808217855250505050505090500191505060006040518083038185875af1925050503d8060008114615c9f576040519150601f19603f3d011682016040523d82523d6000602084013e615ca4565b606091505b5091509150615cb4828286615cbf565b979650505050505050565b60608315615cce57508161263e565b825115615cde5782518084602001fd5b60405162461bcd60e51b8152602060048201818152845160248401528451859391928392604401919085019080838360008315612c4d578181015183820152602001612c35565b50805460008255906000526020600020908101906120d691905b80821115615ae55760008155600101615d3f56fe4f776e61626c653a206e6577206f776e657220697320746865207a65726f2061646472657373496e697469616c697a61626c653a20636f6e747261637420697320616c726561647920696e697469616c697a65645361666545524332303a204552433230206f7065726174696f6e20646964206e6f742073756363656564a2646970667358221220b511ae7d999a20c748d61d8b2686320e261df2c2e143e0eb09dddf0128f42e5564736f6c63430007060033",
  "devdoc": {
    "kind": "dev",
    "methods": {
      "checkProtocol(uint256)": {
        "params": {
          "time": "Timestamp"
        }
      },
      "checkQuarter(uint256)": {
        "params": {
          "_num": "Number of quarter"
        }
      },
      "getContributorPower(address,address,uint256,uint256)": {
        "params": {
          "_contributor": "Address if the contributor",
          "_from": "Initial timestamp",
          "_garden": "Address of the garden where the contributor belongs to",
          "_to": "End timestamp"
        },
        "returns": {
          "_0": "uint256     Contributor power during that period"
        }
      },
      "getRewards(address,address,address[])": {
        "params": {
          "_contributor": "Address of the contributor to check",
          "_finalizedStrategies": "List of addresses of the finalized strategies to check",
          "_garden": "Garden to which the strategies and the user must belong to"
        },
        "returns": {
          "_0": "Array of size 7 with the following distribution: rewards[0]: Strategist BABL , rewards[1]: Strategist Profit, rewards[2]: Steward BABL, rewards[3]: Steward Profit, rewards[4]: LP BABL, rewards[5]: total BABL, rewards[6]: total Profits"
        }
      },
      "getStrategyRewards(address)": {
        "params": {
          "_strategy": "Strategy to check"
        }
      },
      "owner()": {
        "details": "Returns the address of the current owner."
      },
      "renounceOwnership()": {
        "details": "Leaves the contract without owner. It will not be possible to call `onlyOwner` functions anymore. Can only be called by the current owner. NOTE: Renouncing ownership will leave the contract without an owner, thereby removing any functionality that is only available to the owner."
      },
      "sendTokensToContributor(address,uint256)": {
        "params": {
          "_amount": "Amount of tokens to send the address to",
          "_to": "Address to send the tokens to"
        }
      },
      "setBablToken(address)": {
        "params": {
          "_bablToken": "BABLToken address"
        }
      },
      "tokenSupplyPerQuarter(uint256)": {
        "params": {
          "_quarter": "Number of the epoch (quarter)"
        }
      },
      "transferOwnership(address)": {
        "details": "Transfers ownership of the contract to a new account (`newOwner`). Can only be called by the current owner."
      },
      "updateGardenPowerAndContributor(address,address,uint256,bool,uint256)": {
        "params": {
          "_contributor": "Address of the contributor",
          "_depositOrWithdraw": "If the timestamp is a deposit (true) or a withdraw (false)",
          "_garden": "Address of the garden the contributor belongs to",
          "_pid": "The pid # of the Garden timestamps",
          "_previousBalance": "Previous balance of the contributor"
        }
      },
      "updateProtocolPrincipal(uint256,bool)": {
        "params": {
          "_addOrSubstract": "Whether we are adding or substracting capital",
          "_capital": "Amount of capital in any type of asset to be normalized into DAI"
        }
      }
    },
    "version": 1
  },
  "userdoc": {
    "kind": "user",
    "methods": {
      "checkProtocol(uint256)": {
        "notice": "Check the protocol state in a certain timestamp"
      },
      "checkQuarter(uint256)": {
        "notice": "Check the quarter state for a specific quarter"
      },
      "getContributorPower(address,address,uint256,uint256)": {
        "notice": "Gets the contributor power from one timestamp to the other"
      },
      "getRewards(address,address,address[])": {
        "notice": "Calculates the profits and BABL that a contributor should receive from a series of finalized strategies"
      },
      "getStrategyRewards(address)": {
        "notice": "Gets the total amount of rewards for a given strategy"
      },
      "sendTokensToContributor(address,uint256)": {
        "notice": "Sends BABL tokens rewards to a contributor after a claim is requested to the protocol."
      },
      "setBablToken(address)": {
        "notice": "Function that set the babl Token address as it is going to be released in a future date"
      },
      "startBABLRewards()": {
        "notice": "Starts BABL Rewards Mining Program from the controller."
      },
      "tokenSupplyPerQuarter(uint256)": {
        "notice": "Calculates the BABL rewards supply for each quarter"
      },
      "updateGardenPowerAndContributor(address,address,uint256,bool,uint256)": {
        "notice": "Function that set each contributor timestamp per garden"
      },
      "updateProtocolPrincipal(uint256,bool)": {
        "notice": "Function that adds/substract the capital received to the total principal of the protocol per timestamp"
      }
    },
    "version": 1
  },
  "storageLayout": {
    "storage": [
      {
        "astId": 492,
        "contract": "contracts/token/RewardsDistributor.sol:RewardsDistributorV3",
        "label": "_initialized",
        "offset": 0,
        "slot": "0",
        "type": "t_bool"
      },
      {
        "astId": 495,
        "contract": "contracts/token/RewardsDistributor.sol:RewardsDistributorV3",
        "label": "_initializing",
        "offset": 1,
        "slot": "0",
        "type": "t_bool"
      },
      {
        "astId": 1447,
        "contract": "contracts/token/RewardsDistributor.sol:RewardsDistributorV3",
        "label": "__gap",
        "offset": 0,
        "slot": "1",
        "type": "t_array(t_uint256)50_storage"
      },
      {
        "astId": 10,
        "contract": "contracts/token/RewardsDistributor.sol:RewardsDistributorV3",
        "label": "_owner",
        "offset": 0,
        "slot": "51",
        "type": "t_address"
      },
      {
        "astId": 129,
        "contract": "contracts/token/RewardsDistributor.sol:RewardsDistributorV3",
        "label": "__gap",
        "offset": 0,
        "slot": "52",
        "type": "t_array(t_uint256)49_storage"
      },
      {
        "astId": 37038,
        "contract": "contracts/token/RewardsDistributor.sol:RewardsDistributorV3",
        "label": "START_TIME",
        "offset": 0,
        "slot": "101",
        "type": "t_uint256"
      },
      {
        "astId": 37040,
        "contract": "contracts/token/RewardsDistributor.sol:RewardsDistributorV3",
        "label": "BABL_STRATEGIST_SHARE",
        "offset": 0,
        "slot": "102",
        "type": "t_uint256"
      },
      {
        "astId": 37042,
        "contract": "contracts/token/RewardsDistributor.sol:RewardsDistributorV3",
        "label": "BABL_STEWARD_SHARE",
        "offset": 0,
        "slot": "103",
        "type": "t_uint256"
      },
      {
        "astId": 37044,
        "contract": "contracts/token/RewardsDistributor.sol:RewardsDistributorV3",
        "label": "BABL_LP_SHARE",
        "offset": 0,
        "slot": "104",
        "type": "t_uint256"
      },
      {
        "astId": 37046,
        "contract": "contracts/token/RewardsDistributor.sol:RewardsDistributorV3",
        "label": "PROFIT_STRATEGIST_SHARE",
        "offset": 0,
        "slot": "105",
        "type": "t_uint256"
      },
      {
        "astId": 37048,
        "contract": "contracts/token/RewardsDistributor.sol:RewardsDistributorV3",
        "label": "PROFIT_STEWARD_SHARE",
        "offset": 0,
        "slot": "106",
        "type": "t_uint256"
      },
      {
        "astId": 37050,
        "contract": "contracts/token/RewardsDistributor.sol:RewardsDistributorV3",
        "label": "PROFIT_LP_SHARE",
        "offset": 0,
        "slot": "107",
        "type": "t_uint256"
      },
      {
        "astId": 37052,
        "contract": "contracts/token/RewardsDistributor.sol:RewardsDistributorV3",
        "label": "PROFIT_PROTOCOL_FEE",
        "offset": 0,
        "slot": "108",
        "type": "t_uint256"
      },
      {
        "astId": 37054,
        "contract": "contracts/token/RewardsDistributor.sol:RewardsDistributorV3",
        "label": "CREATOR_BONUS",
        "offset": 0,
        "slot": "109",
        "type": "t_uint256"
      },
      {
        "astId": 37124,
        "contract": "contracts/token/RewardsDistributor.sol:RewardsDistributorV3",
        "label": "controller",
        "offset": 0,
        "slot": "110",
        "type": "t_contract(IBabController)24192"
      },
      {
        "astId": 37126,
        "contract": "contracts/token/RewardsDistributor.sol:RewardsDistributorV3",
        "label": "babltoken",
        "offset": 0,
        "slot": "111",
        "type": "t_contract(TimeLockedToken)42882"
      },
      {
        "astId": 37129,
        "contract": "contracts/token/RewardsDistributor.sol:RewardsDistributorV3",
        "label": "protocolPrincipal",
        "offset": 0,
        "slot": "112",
        "type": "t_uint256"
      },
      {
        "astId": 37133,
        "contract": "contracts/token/RewardsDistributor.sol:RewardsDistributorV3",
        "label": "protocolPerTimestamp",
        "offset": 0,
        "slot": "113",
        "type": "t_mapping(t_uint256,t_struct(ProtocolPerTimestamp)37074_storage)"
      },
      {
        "astId": 37136,
        "contract": "contracts/token/RewardsDistributor.sol:RewardsDistributorV3",
        "label": "timeList",
        "offset": 0,
        "slot": "114",
        "type": "t_array(t_uint256)dyn_storage"
      },
      {
        "astId": 37139,
        "contract": "contracts/token/RewardsDistributor.sol:RewardsDistributorV3",
        "label": "pid",
        "offset": 0,
        "slot": "115",
        "type": "t_uint256"
      },
      {
        "astId": 37143,
        "contract": "contracts/token/RewardsDistributor.sol:RewardsDistributorV3",
        "label": "protocolPerQuarter",
        "offset": 0,
        "slot": "116",
        "type": "t_mapping(t_uint256,t_struct(ProtocolPerQuarter)37083_storage)"
      },
      {
        "astId": 37147,
        "contract": "contracts/token/RewardsDistributor.sol:RewardsDistributorV3",
        "label": "isProtocolPerQuarter",
        "offset": 0,
        "slot": "117",
        "type": "t_mapping(t_uint256,t_bool)"
      },
      {
        "astId": 37153,
        "contract": "contracts/token/RewardsDistributor.sol:RewardsDistributorV3",
        "label": "rewardsPowerOverhead",
        "offset": 0,
        "slot": "118",
        "type": "t_mapping(t_address,t_mapping(t_uint256,t_uint256))"
      },
      {
        "astId": 37159,
        "contract": "contracts/token/RewardsDistributor.sol:RewardsDistributorV3",
        "label": "contributorPerGarden",
        "offset": 0,
        "slot": "119",
        "type": "t_mapping(t_address,t_mapping(t_address,t_struct(ContributorPerGarden)37104_storage))"
      },
      {
        "astId": 37165,
        "contract": "contracts/token/RewardsDistributor.sol:RewardsDistributorV3",
        "label": "checkpoints",
        "offset": 0,
        "slot": "120",
        "type": "t_mapping(t_address,t_mapping(t_address,t_struct(Checkpoints)37122_storage))"
      },
      {
        "astId": 37171,
        "contract": "contracts/token/RewardsDistributor.sol:RewardsDistributorV3",
        "label": "gardenPowerByTimestamp",
        "offset": 0,
        "slot": "121",
        "type": "t_mapping(t_address,t_mapping(t_uint256,t_struct(GardenPowerByTimestamp)37090_storage))"
      },
      {
        "astId": 37176,
        "contract": "contracts/token/RewardsDistributor.sol:RewardsDistributorV3",
        "label": "gardenTimelist",
        "offset": 0,
        "slot": "122",
        "type": "t_mapping(t_address,t_array(t_uint256)dyn_storage)"
      },
      {
        "astId": 37180,
        "contract": "contracts/token/RewardsDistributor.sol:RewardsDistributorV3",
        "label": "gardenPid",
        "offset": 0,
        "slot": "123",
        "type": "t_mapping(t_address,t_uint256)"
      },
      {
        "astId": 37200,
        "contract": "contracts/token/RewardsDistributor.sol:RewardsDistributorV3",
        "label": "strategyPerQuarter",
        "offset": 0,
        "slot": "124",
        "type": "t_mapping(t_address,t_mapping(t_uint256,t_struct(StrategyPerQuarter)37189_storage))"
      },
      {
        "astId": 37204,
        "contract": "contracts/token/RewardsDistributor.sol:RewardsDistributorV3",
        "label": "strategyPricePerTokenUnit",
        "offset": 0,
        "slot": "125",
        "type": "t_mapping(t_address,t_struct(StrategyPricePerTokenUnit)37194_storage)"
      },
      {
        "astId": 37206,
        "contract": "contracts/token/RewardsDistributor.sol:RewardsDistributorV3",
        "label": "status",
        "offset": 0,
        "slot": "126",
        "type": "t_uint256"
      }
    ],
    "types": {
      "t_address": {
        "encoding": "inplace",
        "label": "address",
        "numberOfBytes": "20"
      },
      "t_array(t_uint256)49_storage": {
        "base": "t_uint256",
        "encoding": "inplace",
        "label": "uint256[49]",
        "numberOfBytes": "1568"
      },
      "t_array(t_uint256)50_storage": {
        "base": "t_uint256",
        "encoding": "inplace",
        "label": "uint256[50]",
        "numberOfBytes": "1600"
      },
      "t_array(t_uint256)dyn_storage": {
        "base": "t_uint256",
        "encoding": "dynamic_array",
        "label": "uint256[]",
        "numberOfBytes": "32"
      },
      "t_bool": {
        "encoding": "inplace",
        "label": "bool",
        "numberOfBytes": "1"
      },
      "t_contract(IBabController)24192": {
        "encoding": "inplace",
        "label": "contract IBabController",
        "numberOfBytes": "20"
      },
      "t_contract(TimeLockedToken)42882": {
        "encoding": "inplace",
        "label": "contract TimeLockedToken",
        "numberOfBytes": "20"
      },
      "t_mapping(t_address,t_array(t_uint256)dyn_storage)": {
        "encoding": "mapping",
        "key": "t_address",
        "label": "mapping(address => uint256[])",
        "numberOfBytes": "32",
        "value": "t_array(t_uint256)dyn_storage"
      },
      "t_mapping(t_address,t_mapping(t_address,t_struct(Checkpoints)37122_storage))": {
        "encoding": "mapping",
        "key": "t_address",
        "label": "mapping(address => mapping(address => struct RewardsDistributor.Checkpoints))",
        "numberOfBytes": "32",
        "value": "t_mapping(t_address,t_struct(Checkpoints)37122_storage)"
      },
      "t_mapping(t_address,t_mapping(t_address,t_struct(ContributorPerGarden)37104_storage))": {
        "encoding": "mapping",
        "key": "t_address",
        "label": "mapping(address => mapping(address => struct RewardsDistributor.ContributorPerGarden))",
        "numberOfBytes": "32",
        "value": "t_mapping(t_address,t_struct(ContributorPerGarden)37104_storage)"
      },
      "t_mapping(t_address,t_mapping(t_uint256,t_struct(GardenPowerByTimestamp)37090_storage))": {
        "encoding": "mapping",
        "key": "t_address",
        "label": "mapping(address => mapping(uint256 => struct RewardsDistributor.GardenPowerByTimestamp))",
        "numberOfBytes": "32",
        "value": "t_mapping(t_uint256,t_struct(GardenPowerByTimestamp)37090_storage)"
      },
      "t_mapping(t_address,t_mapping(t_uint256,t_struct(StrategyPerQuarter)37189_storage))": {
        "encoding": "mapping",
        "key": "t_address",
        "label": "mapping(address => mapping(uint256 => struct RewardsDistributor.StrategyPerQuarter))",
        "numberOfBytes": "32",
        "value": "t_mapping(t_uint256,t_struct(StrategyPerQuarter)37189_storage)"
      },
      "t_mapping(t_address,t_mapping(t_uint256,t_uint256))": {
        "encoding": "mapping",
        "key": "t_address",
        "label": "mapping(address => mapping(uint256 => uint256))",
        "numberOfBytes": "32",
        "value": "t_mapping(t_uint256,t_uint256)"
      },
      "t_mapping(t_address,t_struct(Checkpoints)37122_storage)": {
        "encoding": "mapping",
        "key": "t_address",
        "label": "mapping(address => struct RewardsDistributor.Checkpoints)",
        "numberOfBytes": "32",
        "value": "t_struct(Checkpoints)37122_storage"
      },
      "t_mapping(t_address,t_struct(ContributorPerGarden)37104_storage)": {
        "encoding": "mapping",
        "key": "t_address",
        "label": "mapping(address => struct RewardsDistributor.ContributorPerGarden)",
        "numberOfBytes": "32",
        "value": "t_struct(ContributorPerGarden)37104_storage"
      },
      "t_mapping(t_address,t_struct(StrategyPricePerTokenUnit)37194_storage)": {
        "encoding": "mapping",
        "key": "t_address",
        "label": "mapping(address => struct RewardsDistributor.StrategyPricePerTokenUnit)",
        "numberOfBytes": "32",
        "value": "t_struct(StrategyPricePerTokenUnit)37194_storage"
      },
      "t_mapping(t_address,t_uint256)": {
        "encoding": "mapping",
        "key": "t_address",
        "label": "mapping(address => uint256)",
        "numberOfBytes": "32",
        "value": "t_uint256"
      },
      "t_mapping(t_uint256,t_bool)": {
        "encoding": "mapping",
        "key": "t_uint256",
        "label": "mapping(uint256 => bool)",
        "numberOfBytes": "32",
        "value": "t_bool"
      },
      "t_mapping(t_uint256,t_struct(GardenPowerByTimestamp)37090_storage)": {
        "encoding": "mapping",
        "key": "t_uint256",
        "label": "mapping(uint256 => struct RewardsDistributor.GardenPowerByTimestamp)",
        "numberOfBytes": "32",
        "value": "t_struct(GardenPowerByTimestamp)37090_storage"
      },
      "t_mapping(t_uint256,t_struct(ProtocolPerQuarter)37083_storage)": {
        "encoding": "mapping",
        "key": "t_uint256",
        "label": "mapping(uint256 => struct RewardsDistributor.ProtocolPerQuarter)",
        "numberOfBytes": "32",
        "value": "t_struct(ProtocolPerQuarter)37083_storage"
      },
      "t_mapping(t_uint256,t_struct(ProtocolPerTimestamp)37074_storage)": {
        "encoding": "mapping",
        "key": "t_uint256",
        "label": "mapping(uint256 => struct RewardsDistributor.ProtocolPerTimestamp)",
        "numberOfBytes": "32",
        "value": "t_struct(ProtocolPerTimestamp)37074_storage"
      },
      "t_mapping(t_uint256,t_struct(StrategyPerQuarter)37189_storage)": {
        "encoding": "mapping",
        "key": "t_uint256",
        "label": "mapping(uint256 => struct RewardsDistributor.StrategyPerQuarter)",
        "numberOfBytes": "32",
        "value": "t_struct(StrategyPerQuarter)37189_storage"
      },
      "t_mapping(t_uint256,t_struct(TimestampContribution)37113_storage)": {
        "encoding": "mapping",
        "key": "t_uint256",
        "label": "mapping(uint256 => struct RewardsDistributor.TimestampContribution)",
        "numberOfBytes": "32",
        "value": "t_struct(TimestampContribution)37113_storage"
      },
      "t_mapping(t_uint256,t_uint256)": {
        "encoding": "mapping",
        "key": "t_uint256",
        "label": "mapping(uint256 => uint256)",
        "numberOfBytes": "32",
        "value": "t_uint256"
      },
      "t_struct(Checkpoints)37122_storage": {
        "encoding": "inplace",
        "label": "struct RewardsDistributor.Checkpoints",
        "members": [
          {
            "astId": 37115,
            "contract": "contracts/token/RewardsDistributor.sol:RewardsDistributorV3",
            "label": "fromDepositAt",
            "offset": 0,
            "slot": "0",
            "type": "t_uint256"
          },
          {
            "astId": 37117,
            "contract": "contracts/token/RewardsDistributor.sol:RewardsDistributorV3",
            "label": "lastDepositAt",
            "offset": 0,
            "slot": "1",
            "type": "t_uint256"
          },
          {
            "astId": 37119,
            "contract": "contracts/token/RewardsDistributor.sol:RewardsDistributorV3",
            "label": "gardenFromDepositAt",
            "offset": 0,
            "slot": "2",
            "type": "t_uint256"
          },
          {
            "astId": 37121,
            "contract": "contracts/token/RewardsDistributor.sol:RewardsDistributorV3",
            "label": "gardenLastDepositAt",
            "offset": 0,
            "slot": "3",
            "type": "t_uint256"
          }
        ],
        "numberOfBytes": "128"
      },
      "t_struct(ContributorPerGarden)37104_storage": {
        "encoding": "inplace",
        "label": "struct RewardsDistributor.ContributorPerGarden",
        "members": [
          {
            "astId": 37092,
            "contract": "contracts/token/RewardsDistributor.sol:RewardsDistributorV3",
            "label": "lastDepositAt",
            "offset": 0,
            "slot": "0",
            "type": "t_uint256"
          },
          {
            "astId": 37094,
            "contract": "contracts/token/RewardsDistributor.sol:RewardsDistributorV3",
            "label": "initialDepositAt",
            "offset": 0,
            "slot": "1",
            "type": "t_uint256"
          },
          {
            "astId": 37097,
            "contract": "contracts/token/RewardsDistributor.sol:RewardsDistributorV3",
            "label": "timeListPointer",
            "offset": 0,
            "slot": "2",
            "type": "t_array(t_uint256)dyn_storage"
          },
          {
            "astId": 37099,
            "contract": "contracts/token/RewardsDistributor.sol:RewardsDistributorV3",
            "label": "pid",
            "offset": 0,
            "slot": "3",
            "type": "t_uint256"
          },
          {
            "astId": 37103,
            "contract": "contracts/token/RewardsDistributor.sol:RewardsDistributorV3",
            "label": "tsContributions",
            "offset": 0,
            "slot": "4",
            "type": "t_mapping(t_uint256,t_struct(TimestampContribution)37113_storage)"
          }
        ],
        "numberOfBytes": "160"
      },
      "t_struct(GardenPowerByTimestamp)37090_storage": {
        "encoding": "inplace",
        "label": "struct RewardsDistributor.GardenPowerByTimestamp",
        "members": [
          {
            "astId": 37085,
            "contract": "contracts/token/RewardsDistributor.sol:RewardsDistributorV3",
            "label": "supply",
            "offset": 0,
            "slot": "0",
            "type": "t_uint256"
          },
          {
            "astId": 37087,
            "contract": "contracts/token/RewardsDistributor.sol:RewardsDistributorV3",
            "label": "timestamp",
            "offset": 0,
            "slot": "1",
            "type": "t_uint256"
          },
          {
            "astId": 37089,
            "contract": "contracts/token/RewardsDistributor.sol:RewardsDistributorV3",
            "label": "power",
            "offset": 0,
            "slot": "2",
            "type": "t_uint256"
          }
        ],
        "numberOfBytes": "96"
      },
      "t_struct(ProtocolPerQuarter)37083_storage": {
        "encoding": "inplace",
        "label": "struct RewardsDistributor.ProtocolPerQuarter",
        "members": [
          {
            "astId": 37076,
            "contract": "contracts/token/RewardsDistributor.sol:RewardsDistributorV3",
            "label": "quarterPrincipal",
            "offset": 0,
            "slot": "0",
            "type": "t_uint256"
          },
          {
            "astId": 37078,
            "contract": "contracts/token/RewardsDistributor.sol:RewardsDistributorV3",
            "label": "quarterNumber",
            "offset": 0,
            "slot": "1",
            "type": "t_uint256"
          },
          {
            "astId": 37080,
            "contract": "contracts/token/RewardsDistributor.sol:RewardsDistributorV3",
            "label": "quarterPower",
            "offset": 0,
            "slot": "2",
            "type": "t_uint256"
          },
          {
            "astId": 37082,
            "contract": "contracts/token/RewardsDistributor.sol:RewardsDistributorV3",
            "label": "supplyPerQuarter",
            "offset": 0,
            "slot": "3",
            "type": "t_uint96"
          }
        ],
        "numberOfBytes": "128"
      },
      "t_struct(ProtocolPerTimestamp)37074_storage": {
        "encoding": "inplace",
        "label": "struct RewardsDistributor.ProtocolPerTimestamp",
        "members": [
          {
            "astId": 37065,
            "contract": "contracts/token/RewardsDistributor.sol:RewardsDistributorV3",
            "label": "principal",
            "offset": 0,
            "slot": "0",
            "type": "t_uint256"
          },
          {
            "astId": 37067,
            "contract": "contracts/token/RewardsDistributor.sol:RewardsDistributorV3",
            "label": "time",
            "offset": 0,
            "slot": "1",
            "type": "t_uint256"
          },
          {
            "astId": 37069,
            "contract": "contracts/token/RewardsDistributor.sol:RewardsDistributorV3",
            "label": "quarterBelonging",
            "offset": 0,
            "slot": "2",
            "type": "t_uint256"
          },
          {
            "astId": 37071,
            "contract": "contracts/token/RewardsDistributor.sol:RewardsDistributorV3",
            "label": "timeListPointer",
            "offset": 0,
            "slot": "3",
            "type": "t_uint256"
          },
          {
            "astId": 37073,
            "contract": "contracts/token/RewardsDistributor.sol:RewardsDistributorV3",
            "label": "power",
            "offset": 0,
            "slot": "4",
            "type": "t_uint256"
          }
        ],
        "numberOfBytes": "160"
      },
      "t_struct(StrategyPerQuarter)37189_storage": {
        "encoding": "inplace",
        "label": "struct RewardsDistributor.StrategyPerQuarter",
        "members": [
          {
            "astId": 37182,
            "contract": "contracts/token/RewardsDistributor.sol:RewardsDistributorV3",
            "label": "quarterPrincipal",
            "offset": 0,
            "slot": "0",
            "type": "t_uint256"
          },
          {
            "astId": 37184,
            "contract": "contracts/token/RewardsDistributor.sol:RewardsDistributorV3",
            "label": "quarterNumber",
            "offset": 0,
            "slot": "1",
            "type": "t_uint256"
          },
          {
            "astId": 37186,
            "contract": "contracts/token/RewardsDistributor.sol:RewardsDistributorV3",
            "label": "quarterPower",
            "offset": 0,
            "slot": "2",
            "type": "t_uint256"
          },
          {
            "astId": 37188,
            "contract": "contracts/token/RewardsDistributor.sol:RewardsDistributorV3",
            "label": "initialized",
            "offset": 0,
            "slot": "3",
            "type": "t_bool"
          }
        ],
        "numberOfBytes": "128"
      },
      "t_struct(StrategyPricePerTokenUnit)37194_storage": {
        "encoding": "inplace",
        "label": "struct RewardsDistributor.StrategyPricePerTokenUnit",
        "members": [
          {
            "astId": 37191,
            "contract": "contracts/token/RewardsDistributor.sol:RewardsDistributorV3",
            "label": "preallocated",
            "offset": 0,
            "slot": "0",
            "type": "t_uint256"
          },
          {
            "astId": 37193,
            "contract": "contracts/token/RewardsDistributor.sol:RewardsDistributorV3",
            "label": "pricePerTokenUnit",
            "offset": 0,
            "slot": "1",
            "type": "t_uint256"
          }
        ],
        "numberOfBytes": "64"
      },
      "t_struct(TimestampContribution)37113_storage": {
        "encoding": "inplace",
        "label": "struct RewardsDistributor.TimestampContribution",
        "members": [
          {
            "astId": 37106,
            "contract": "contracts/token/RewardsDistributor.sol:RewardsDistributorV3",
            "label": "supply",
            "offset": 0,
            "slot": "0",
            "type": "t_uint256"
          },
          {
            "astId": 37108,
            "contract": "contracts/token/RewardsDistributor.sol:RewardsDistributorV3",
            "label": "timestamp",
            "offset": 0,
            "slot": "1",
            "type": "t_uint256"
          },
          {
            "astId": 37110,
            "contract": "contracts/token/RewardsDistributor.sol:RewardsDistributorV3",
            "label": "timePointer",
            "offset": 0,
            "slot": "2",
            "type": "t_uint256"
          },
          {
            "astId": 37112,
            "contract": "contracts/token/RewardsDistributor.sol:RewardsDistributorV3",
            "label": "power",
            "offset": 0,
            "slot": "3",
            "type": "t_uint256"
          }
        ],
        "numberOfBytes": "128"
      },
      "t_uint256": {
        "encoding": "inplace",
        "label": "uint256",
        "numberOfBytes": "32"
      },
      "t_uint96": {
        "encoding": "inplace",
        "label": "uint96",
        "numberOfBytes": "12"
      }
    }
  }
}