{
  "address": "0xc07Ed52498520d368FDb223f1119d43748E8624B",
  "abi": [
    {
      "anonymous": false,
      "inputs": [
        {
          "indexed": true,
          "internalType": "address",
          "name": "previousOwner",
          "type": "address"
        },
        {
          "indexed": true,
          "internalType": "address",
          "name": "newOwner",
          "type": "address"
        }
      ],
      "name": "OwnershipTransferred",
      "type": "event"
    },
    {
      "inputs": [],
      "name": "START_TIME",
      "outputs": [
        {
          "internalType": "uint256",
          "name": "",
          "type": "uint256"
        }
      ],
      "stateMutability": "view",
      "type": "function"
    },
    {
      "inputs": [
        {
          "internalType": "uint256",
          "name": "_quarterNum",
          "type": "uint256"
        },
        {
          "internalType": "address",
          "name": "_strategy",
          "type": "address"
        }
      ],
      "name": "checkMining",
      "outputs": [
        {
          "internalType": "uint256[]",
          "name": "",
          "type": "uint256[]"
        },
        {
          "internalType": "bool[]",
          "name": "",
          "type": "bool[]"
        }
      ],
      "stateMutability": "view",
      "type": "function"
    },
    {
      "inputs": [
        {
          "internalType": "address",
          "name": "_strategy",
          "type": "address"
        }
      ],
      "name": "estimateStrategyRewards",
      "outputs": [
        {
          "internalType": "uint256",
          "name": "",
          "type": "uint256"
        }
      ],
      "stateMutability": "view",
      "type": "function"
    },
    {
      "inputs": [
        {
          "internalType": "address",
          "name": "_strategy",
          "type": "address"
        },
        {
          "internalType": "address",
          "name": "_contributor",
          "type": "address"
        }
      ],
      "name": "estimateUserRewards",
      "outputs": [
        {
          "internalType": "uint256[]",
          "name": "",
          "type": "uint256[]"
        }
      ],
      "stateMutability": "view",
      "type": "function"
    },
    {
      "inputs": [],
      "name": "getBABLMiningParameters",
      "outputs": [
        {
          "internalType": "uint256",
          "name": "",
          "type": "uint256"
        },
        {
          "internalType": "uint256",
          "name": "",
          "type": "uint256"
        },
        {
          "internalType": "uint256",
          "name": "",
          "type": "uint256"
        },
        {
          "internalType": "uint256",
          "name": "",
          "type": "uint256"
        },
        {
          "internalType": "uint256",
          "name": "",
          "type": "uint256"
        },
        {
          "internalType": "uint256",
          "name": "",
          "type": "uint256"
        }
      ],
      "stateMutability": "view",
      "type": "function"
    },
    {
      "inputs": [
        {
          "internalType": "address",
          "name": "_garden",
          "type": "address"
        },
        {
          "internalType": "address",
          "name": "_contributor",
          "type": "address"
        }
      ],
      "name": "getContributorPerGarden",
      "outputs": [
        {
          "internalType": "uint256[]",
          "name": "",
          "type": "uint256[]"
        },
        {
          "internalType": "bool[]",
          "name": "",
          "type": "bool[]"
        }
      ],
      "stateMutability": "view",
      "type": "function"
    },
    {
      "inputs": [
        {
          "internalType": "address",
          "name": "_garden",
          "type": "address"
        },
        {
          "internalType": "address",
          "name": "_contributor",
          "type": "address"
        },
        {
          "internalType": "uint256",
          "name": "_time",
          "type": "uint256"
        }
      ],
      "name": "getContributorPower",
      "outputs": [
        {
          "internalType": "uint256",
          "name": "",
          "type": "uint256"
        }
      ],
      "stateMutability": "view",
      "type": "function"
    },
    {
      "inputs": [
        {
          "internalType": "address",
          "name": "_garden",
          "type": "address"
        }
      ],
      "name": "getGardenProfitsSharing",
      "outputs": [
        {
          "internalType": "uint256[3]",
          "name": "",
          "type": "uint256[3]"
        }
      ],
      "stateMutability": "view",
      "type": "function"
    },
    {
      "inputs": [
        {
          "internalType": "address",
          "name": "_garden",
          "type": "address"
        },
        {
          "internalType": "address",
          "name": "_contributor",
          "type": "address"
        },
        {
          "internalType": "address[]",
          "name": "_finalizedStrategies",
          "type": "address[]"
        }
      ],
      "name": "getRewards",
      "outputs": [
        {
          "internalType": "uint256[]",
          "name": "",
          "type": "uint256[]"
        }
      ],
      "stateMutability": "view",
      "type": "function"
    },
    {
      "inputs": [
        {
          "internalType": "address",
          "name": "_strategy",
          "type": "address"
        }
      ],
      "name": "getStrategyRewards",
      "outputs": [
        {
          "internalType": "uint96",
          "name": "",
          "type": "uint96"
        }
      ],
      "stateMutability": "view",
      "type": "function"
    },
    {
      "inputs": [
        {
          "internalType": "contract TimeLockedToken",
          "name": "_bablToken",
          "type": "address"
        },
        {
          "internalType": "contract IBabController",
          "name": "_controller",
          "type": "address"
        }
      ],
      "name": "initialize",
      "outputs": [],
      "stateMutability": "nonpayable",
      "type": "function"
    },
    {
      "inputs": [],
      "name": "owner",
      "outputs": [
        {
          "internalType": "address",
          "name": "",
          "type": "address"
        }
      ],
      "stateMutability": "view",
      "type": "function"
    },
    {
      "inputs": [],
      "name": "renounceOwnership",
      "outputs": [],
      "stateMutability": "nonpayable",
      "type": "function"
    },
    {
      "inputs": [
        {
          "internalType": "address",
          "name": "_to",
          "type": "address"
        },
        {
          "internalType": "uint256",
          "name": "_amount",
          "type": "uint256"
        }
      ],
      "name": "sendTokensToContributor",
      "outputs": [
        {
          "internalType": "uint256",
          "name": "",
          "type": "uint256"
        }
      ],
      "stateMutability": "nonpayable",
      "type": "function"
    },
    {
      "inputs": [
        {
          "internalType": "uint256",
          "name": "_strategistShare",
          "type": "uint256"
        },
        {
          "internalType": "uint256",
          "name": "_stewardsShare",
          "type": "uint256"
        },
        {
          "internalType": "uint256",
          "name": "_lpShare",
          "type": "uint256"
        },
        {
          "internalType": "uint256",
          "name": "_creatorBonus",
          "type": "uint256"
        },
        {
          "internalType": "uint256",
          "name": "_profitWeight",
          "type": "uint256"
        },
        {
          "internalType": "uint256",
          "name": "_principalWeight",
          "type": "uint256"
        }
      ],
      "name": "setBABLMiningParameters",
      "outputs": [],
      "stateMutability": "nonpayable",
      "type": "function"
    },
    {
      "inputs": [
        {
          "internalType": "address",
          "name": "_garden",
          "type": "address"
        },
        {
          "internalType": "uint256",
          "name": "_strategistShare",
          "type": "uint256"
        },
        {
          "internalType": "uint256",
          "name": "_stewardsShare",
          "type": "uint256"
        },
        {
          "internalType": "uint256",
          "name": "_lpShare",
          "type": "uint256"
        }
      ],
      "name": "setProfitRewards",
      "outputs": [],
      "stateMutability": "nonpayable",
      "type": "function"
    },
    {
      "inputs": [
        {
          "internalType": "address",
          "name": "newOwner",
          "type": "address"
        }
      ],
      "name": "transferOwnership",
      "outputs": [],
      "stateMutability": "nonpayable",
      "type": "function"
    },
    {
      "inputs": [
        {
          "internalType": "address",
          "name": "_garden",
          "type": "address"
        },
        {
          "internalType": "address",
          "name": "_contributor",
          "type": "address"
        },
        {
          "internalType": "uint256",
          "name": "_previousBalance",
          "type": "uint256"
        },
        {
          "internalType": "uint256",
          "name": "_previousSupply",
          "type": "uint256"
        },
        {
          "internalType": "uint256",
          "name": "_tokenDiff",
          "type": "uint256"
        },
        {
          "internalType": "bool",
          "name": "_addOrSubstract",
          "type": "bool"
        }
      ],
      "name": "updateGardenPowerAndContributor",
      "outputs": [],
      "stateMutability": "nonpayable",
      "type": "function"
    },
    {
      "inputs": [
        {
          "internalType": "uint256",
          "name": "_capital",
          "type": "uint256"
        },
        {
          "internalType": "bool",
          "name": "_addOrSubstract",
          "type": "bool"
        }
      ],
      "name": "updateProtocolPrincipal",
      "outputs": [],
      "stateMutability": "nonpayable",
      "type": "function"
    },
    {
      "inputs": [
        {
          "internalType": "address",
          "name": "_strategy",
          "type": "address"
        },
        {
          "internalType": "uint256",
          "name": "_capital",
          "type": "uint256"
        },
        {
          "internalType": "bool",
          "name": "_addOrSubstract",
          "type": "bool"
        }
      ],
      "name": "updateStrategyCheckpoint",
      "outputs": [],
      "stateMutability": "nonpayable",
      "type": "function"
    }
  ],
  "transactionHash": "0xeb4e0d8289af28dd9c87715d3a2cba333118a57656c32c0bb7a09c42b8991764",
  "args": [],
  "solcInputHash": "4b18f8fad53dd00d68bfe4a5cad0bf48",
  "bytecode": "0x608060405234801561001057600080fd5b50615c0f80620000216000396000f3fe608060405234801561001057600080fd5b506004361061016c5760003560e01c806380334dbe116100cd578063b862639111610081578063ddaa26ad11610066578063ddaa26ad14610629578063f2fde38b14610631578063f73bae54146106575761016c565b8063b8626391146105d6578063d717a506146106045761016c565b80638da5cb5b116100b25780638da5cb5b1461053f5780639de9a05214610563578063a8d9a781146105aa5761016c565b806380334dbe146104cc5780638b4d6155146105045761016c565b80635f21bcac11610124578063715018a611610109578063715018a61461046357806375943e231461046b5780637eea8bb7146104a65761016c565b80635f21bcac1461034257806369795e931461038a5761016c565b80632838b757116101555780632838b7571461021b5780632cdc90501461024f578063485cc955146103145761016c565b8063070e8a4a1461017157806317e7af8b146101cf575b600080fd5b6101976004803603602081101561018757600080fd5b50356001600160a01b0316610685565b6040518082606080838360005b838110156101bc5781810151838201526020016101a4565b5050505090500191505060405180910390f35b610219600480360360c08110156101e557600080fd5b506001600160a01b03813581169160208101359091169060408101359060608101359060808101359060a001351515610721565b005b6102196004803603606081101561023157600080fd5b506001600160a01b0381351690602081013590604001351515610820565b61027b6004803603604081101561026557600080fd5b50803590602001356001600160a01b03166108b5565b604051808060200180602001838103835285818151815260200191508051906020019060200280838360005b838110156102bf5781810151838201526020016102a7565b50505050905001838103825284818151815260200191508051906020019060200280838360005b838110156102fe5781810151838201526020016102e6565b5050505090500194505050505060405180910390f35b6102196004803603604081101561032a57600080fd5b506001600160a01b0381358116916020013516610b5b565b6103786004803603606081101561035857600080fd5b506001600160a01b03813581169160208101359091169060400135610ca8565b60408051918252519081900360200190f35b610413600480360360608110156103a057600080fd5b6001600160a01b0382358116926020810135909116918101906060810160408201356401000000008111156103d457600080fd5b8201836020820111156103e657600080fd5b8035906020019184602083028401116401000000008311171561040857600080fd5b509092509050610f28565b60408051602080825283518183015283519192839290830191858101910280838360005b8381101561044f578181015183820152602001610437565b505050509050019250505060405180910390f35b61021961132a565b610219600480360360c081101561048157600080fd5b5080359060208101359060408101359060608101359060808101359060a001356113f5565b610378600480360360208110156104bc57600080fd5b50356001600160a01b03166114de565b610219600480360360808110156104e257600080fd5b506001600160a01b03813516906020810135906040810135906060013561157e565b61050c6115ea565b604080519687526020870195909552858501939093526060850191909152608084015260a0830152519081900360c00190f35b610547611604565b604080516001600160a01b039092168252519081900360200190f35b6105896004803603602081101561057957600080fd5b50356001600160a01b0316611613565b604080516bffffffffffffffffffffffff9092168252519081900360200190f35b610378600480360360408110156105c057600080fd5b506001600160a01b038135169060200135611b8b565b610413600480360360408110156105ec57600080fd5b506001600160a01b0381358116916020013516611c44565b6102196004803603604081101561061a57600080fd5b50803590602001351515611db9565b610378611dd1565b6102196004803603602081101561064757600080fd5b50356001600160a01b0316611dd7565b61027b6004803603604081101561066d57600080fd5b506001600160a01b0381358116916020013516611ef9565b61068d615b0f565b6001600160a01b03821660009081526080602052604090205460ff16156106f8576001600160a01b0382166000908152607f602052604090819020815160608101928390529160039082845b8154815260200190600101908083116106d9575050505050905061071c565b60405180606001604052806069548152602001606a548152602001606b5481525090505b919050565b6107326002607e5414156054612222565b6002607e55606e546040805163364d118160e01b815233600482015290516107b6926001600160a01b03169163364d1181916024808301926020929190829003018186803b15801561078357600080fd5b505afa158015610797573d6000803e3d6000fd5b505050506040513d60208110156107ad57600080fd5b50516023612222565b6000816107cc576107c78484612230565b6107d6565b6107d68484612240565b90506000826107ee576107e98685612230565b6107f8565b6107f88685612240565b9050610805888684612250565b610811888888846123ab565b50506001607e55505050505050565b6108286124b3565b6001600160a01b0316610839611604565b6001600160a01b031614610894576040805162461bcd60e51b815260206004820181905260248201527f4f776e61626c653a2063616c6c6572206973206e6f7420746865206f776e6572604482015290519081900360640190fd5b61089c6124b7565b6108a583612552565b6108b083838361265d565b505050565b60408051600a8082526101608201909252606091829160009160208201610140803683375050604080516002808252606082018352939450600093909250906020830190803683370190505090506065548260008151811061091357fe5b6020026020010181815250506081548260018151811061092f57fe5b6020026020010181815250506070548260028151811061094b57fe5b6020026020010181815250506073548260038151811061096757fe5b60200260200101818152505060746000878152602001908152602001600020600201548260048151811061099757fe5b60200260200101818152505060826000866001600160a01b03166001600160a01b0316815260200190815260200160002054826005815181106109d657fe5b602002602001018181525050607d6000866001600160a01b03166001600160a01b031681526020019081526020016000206000015482600681518110610a1857fe5b602002602001018181525050607d6000866001600160a01b03166001600160a01b031681526020019081526020016000206001015482600781518110610a5a57fe5b6020908102919091018101919091526001600160a01b0386166000908152607c825260408082208983529092522060020154825183906008908110610a9b57fe5b602002602001018181525050610ab086612809565b6bffffffffffffffffffffffff1682600981518110610acb57fe5b602090810291909101810191909152600087815260759091526040812054825160ff909116918391610af957fe5b9115156020928302919091018201526001600160a01b0386166000908152607c825260408082208983529092522060030154815160ff9091169082906001908110610b4057fe5b91151560209283029190910190910152909590945092505050565b610b636128aa565b610b8d6001600160a01b03831615801590610b8657506001600160a01b03821615155b6017612222565b606f80546001600160a01b0380851673ffffffffffffffffffffffffffffffffffffffff1992831617909255606e805484841692169190911790819055604080517f568c08130000000000000000000000000000000000000000000000000000000081529051919092169163568c0813916004808301926020929190829003018186803b158015610c1d57600080fd5b505afa158015610c31573d6000803e3d6000fd5b505050506040513d6020811015610c4757600080fd5b5051606c55505067016345785d8a0000606981905566b1a2bc2ec50000606a55670b1a2bc2ec500000606b81905560668290556067829055606855606d55670905438e600100006085556704db7325476300006086556001607e5542606555565b6000610d1c846001600160a01b031663cb12233b6040518163ffffffff1660e01b815260040160206040518083038186803b158015610ce657600080fd5b505afa158015610cfa573d6000803e3d6000fd5b505050506040513d6020811015610d1057600080fd5b50518310156041612222565b60408051600980825261014082019092526000916020820161012080368337019050509050610d4b858561295c565b905080600181518110610d5a57fe5b602002602001015160001480610d8357508281600181518110610d7957fe5b6020026020010151115b80610da2575080600281518110610d9657fe5b60200260200101516000145b15610db1576000915050610f21565b42831115610dbd574292505b6000610e2a610e0783600281518110610dd257fe5b6020026020010151610e0185600081518110610dea57fe5b60200260200101514261223090919063ffffffff16565b90612bd3565b83600381518110610e1457fe5b602002602001015161224090919063ffffffff16565b90506000610e66610e5984600881518110610e4157fe5b6020026020010151610e0186600581518110610dea57fe5b84600681518110610e1457fe5b90506000610e744287612230565b90506000610e9f8286600481518110610e8957fe5b6020026020010151612bd390919063ffffffff16565b90506000610eb48387600781518110610e8957fe5b9050818511610ec4576000610ece565b610ece8583612230565b9450808411610ede576001610ee8565b610ee88482612230565b93506000610ef68686612bf7565b9050670de0b6b3a7640000811115610f135750670de0b6b3a76400005b9650610f2195505050505050565b9392505050565b606e546040805163364d118160e01b81526001600160a01b0387811660048301529151606093610f7993169163364d1181916024808301926020929190829003018186803b15801561078357600080fd5b60408051600880825261012082019092526000916020820161010080368337019050509050600080876001600160a01b0316633d8270f5886040518263ffffffff1660e01b815260040180826001600160a01b031681526020019150506101406040518083038186803b158015610fef57600080fd5b505afa158015611003573d6000803e3d6000fd5b505050506040513d61014081101561101a57600080fd5b506020810151604090910151909250905060005b8581101561131b576110d4896001600160a01b03166306061dfa89898581811061105457fe5b905060200201356001600160a01b03166040518263ffffffff1660e01b815260040180826001600160a01b0316815260200191505060206040518083038186803b1580156110a157600080fd5b505afa1580156110b5573d6000803e3d6000fd5b505050506040513d60208110156110cb57600080fd5b50516049612222565b604080516008808252610120820190925260009160208201610100803683370190505090506111218a89898581811061110957fe5b905060200201356001600160a01b03168b8787612c0f565b90506111488160008151811061113357fe5b602002602001015186600081518110610e1457fe5b8560008151811061115557fe5b6020026020010181815250506111868160018151811061117157fe5b602002602001015186600181518110610e1457fe5b8560018151811061119357fe5b6020026020010181815250506111c4816002815181106111af57fe5b602002602001015186600281518110610e1457fe5b856002815181106111d157fe5b602002602001018181525050611202816003815181106111ed57fe5b602002602001015186600381518110610e1457fe5b8560038151811061120f57fe5b6020026020010181815250506112408160048151811061122b57fe5b602002602001015186600481518110610e1457fe5b8560048151811061124d57fe5b60200260200101818152505061127e8160058151811061126957fe5b602002602001015186600581518110610e1457fe5b8560058151811061128b57fe5b6020026020010181815250506112bc816006815181106112a757fe5b602002602001015186600681518110610e1457fe5b856006815181106112c957fe5b6020026020010181815250506112fa816007815181106112e557fe5b602002602001015186600781518110610e1457fe5b8560078151811061130757fe5b60209081029190910101525060010161102e565b5091925050505b949350505050565b6113326124b3565b6001600160a01b0316611343611604565b6001600160a01b03161461139e576040805162461bcd60e51b815260206004820181905260248201527f4f776e61626c653a2063616c6c6572206973206e6f7420746865206f776e6572604482015290519081900360640190fd5b6033546040516000916001600160a01b0316907f8be0079c531659141344cd1fd0a4f28419497f9722a3daafe3b4186f6b6457e0908390a36033805473ffffffffffffffffffffffffffffffffffffffff19169055565b6113fd6124b3565b6001600160a01b031661140e611604565b6001600160a01b031614611469576040805162461bcd60e51b815260206004820181905260248201527f4f776e61626c653a2063616c6c6572206973206e6f7420746865206f776e6572604482015290519081900360640190fd5b6114c16114808561147a8989612240565b90612240565b670de0b6b3a764000014801561149e5750670de0b6b3a76400008411155b80156114ba57506114af8383612240565b670de0b6b3a7640000145b6065612222565b606695909555606793909355606891909155606d55608555608655565b6000816001600160a01b031663e4df5e1a6040518163ffffffff1660e01b815260040160206040518083038186803b15801561151957600080fd5b505afa15801561152d573d6000803e3d6000fd5b505050506040513d602081101561154357600080fd5b50511561157657600061155583612edf565b509150508060098151811061156657fe5b602002602001015191505061071c565b50600061071c565b61158661362d565b606e546040805163364d118160e01b81526001600160a01b03878116600483015291516115d893929092169163364d118191602480820192602092909190829003018186803b15801561078357600080fd5b6115e4848484846136de565b50505050565b606654606754606854606d54608554608654909192939495565b6033546001600160a01b031690565b604080516003808252608082019092526000918391839160208201606080368337019050509050816001600160a01b031663bf1dcfe26040518163ffffffff1660e01b815260040160e06040518083038186803b15801561167357600080fd5b505afa158015611687573d6000803e3d6000fd5b505050506040513d60e081101561169d57600080fd5b50608081015160a082015160c090920151835191929184906000906116be57fe5b60200260200101846001815181106116d257fe5b60200260200101856002815181106116e657fe5b6020026020010183815250838152508381525050505061171f8160018151811061170c57fe5b6020026020010151600014156031612222565b606554826001600160a01b0316636db9cc996040518163ffffffff1660e01b815260040160206040518083038186803b15801561175b57600080fd5b505afa15801561176f573d6000803e3d6000fd5b505050506040513d602081101561178557600080fd5b50511015806117aa57506065548160018151811061179f57fe5b602002602001015110155b80156117b7575060655415155b15611b80576000826001600160a01b0316636db40dc26040518163ffffffff1660e01b815260040160206040518083038186803b1580156117f757600080fd5b505afa15801561180b573d6000803e3d6000fd5b505050506040513d602081101561182157600080fd5b5051905080156118675761185d816040518060400160405280601081526020016f6f766572666c6f77203936206269747360801b815250613764565b935050505061071c565b604080516002808252606082018352600092602083019080368337019050509050836001600160a01b031663ffb5cd096040518163ffffffff1660e01b81526004016101c06040518083038186803b1580156118c257600080fd5b505afa1580156118d6573d6000803e3d6000fd5b505050506040513d6101c08110156118ed57600080fd5b5060c081015160e0909101518251839060009061190657fe5b602002602001018360018151811061191a57fe5b60200260200101828152508281525050506000806119608560008151811061193e57fe5b60200260200101518660018151811061195357fe5b6020026020010151613807565b9092509050670de0b6b3a764000060005b83811015611ab157600061199861198f6276a700610e018786612240565b60655490612240565b6001600160a01b038c166000908152607c6020526040812091925090816119bf8786612240565b81526020019081526020016000206002015490506000607460006119ec868961224090919063ffffffff16565b8152602001908152602001600020600201549050611a0e818311156047612222565b86611a1a856001612240565b1415611a5a57611a57611a3a611a33856276a700612230565b8590612230565b611a51611a4a866276a700612230565b4290612230565b90612bf7565b94505b6000611a9386611a8d611a75611a708b8a612240565b612809565b6bffffffffffffffffffffffff16611a8d8787612bf7565b90613900565b9050611a9f8a82612240565b99505060019093019250611971915050565b506000611aef85600081518110611ac457fe5b602002602001015186600181518110611ad957fe5b6020026020010151612bf790919063ffffffff16565b90506000611b0587671bc16d674ec80000613900565b9050611b31611b2383611a8d6085548b61390090919063ffffffff16565b60865461147a908a90613900565b9650808710611b3e578096505b611b70876040518060400160405280601081526020016f6f766572666c6f77203936206269747360801b815250613764565b995050505050505050505061071c565b60009250505061071c565b6000611b9e6002607e5414156054612222565b6002607e55611bab6124b7565b606e546040805163364d118160e01b81523360048201529051611bf7926001600160a01b03169163364d1181916024808301926020929190829003018186803b15801561078357600080fd5b6000611c2b836040518060400160405280601081526020016f6f766572666c6f77203936206269747360801b815250613764565b9050611c378482613918565b6001607e55949350505050565b6040805160088082526101208201909252606091600091906020820161010080368337019050509050836001600160a01b031663e4df5e1a6040518163ffffffff1660e01b815260040160206040518083038186803b158015611ca657600080fd5b505afa158015611cba573d6000803e3d6000fd5b505050506040513d6020811015611cd057600080fd5b505115611db0576000846001600160a01b03166356ba88b86040518163ffffffff1660e01b815260040160206040518083038186803b158015611d1257600080fd5b505afa158015611d26573d6000803e3d6000fd5b505050506040513d6020811015611d3c57600080fd5b5051905060008080611d4d88612edf565b9250925092506000611d97858985600181518110611d6757fe5b6020026020010151600014611d905785600181518110611d8357fe5b6020026020010151611d92565b425b610ca8565b9050611da8858a868b8588886139f6565b955050505050505b90505b92915050565b611dc233612552565b611dcd33838361265d565b5050565b60655481565b611ddf6124b3565b6001600160a01b0316611df0611604565b6001600160a01b031614611e4b576040805162461bcd60e51b815260206004820181905260248201527f4f776e61626c653a2063616c6c6572206973206e6f7420746865206f776e6572604482015290519081900360640190fd5b6001600160a01b038116611e905760405162461bcd60e51b8152600401808060200182810382526026815260200180615b5c6026913960400191505060405180910390fd5b6033546040516001600160a01b038084169216907f8be0079c531659141344cd1fd0a4f28419497f9722a3daafe3b4186f6b6457e090600090a36033805473ffffffffffffffffffffffffffffffffffffffff19166001600160a01b0392909216919091179055565b60408051600c8082526101a08201909252606091829160009160208201610180803683375050604080516002808252606082018352939450600093909250906020830190803683375050506001600160a01b038781166000818152607760209081526040808320948b168352938152838220828052600481018252848320938352607982528483208380529091529281208354875195965093949293909290918791611fa157fe5b602002602001018181525050826001015485600181518110611fbf57fe5b602002602001018181525050826003015485600281518110611fdd57fe5b602002602001018181525050816000015485600381518110611ffb57fe5b602002602001018181525050886001600160a01b03166370a08231896040518263ffffffff1660e01b815260040180826001600160a01b0316815260200191505060206040518083038186803b15801561205457600080fd5b505afa158015612068573d6000803e3d6000fd5b505050506040513d602081101561207e57600080fd5b505185518690600490811061208f57fe5b6020026020010181815250508160030154856005815181106120ad57fe5b6020026020010181815250508160010154856006815181106120cb57fe5b6020026020010181815250508160020154856007815181106120e957fe5b602002602001018181525050607b60008a6001600160a01b03166001600160a01b03168152602001908152602001600020548560088151811061212857fe5b60200260200101818152505080600001548560098151811061214657fe5b602002602001018181525050806001015485600a8151811061216457fe5b602002602001018181525050806002015485600b8151811061218257fe5b6020908102919091018101919091526001600160a01b038a16600090815260849091526040812054855160ff9091169186916121ba57fe5b9115156020928302919091018201526001600160a01b03808b166000908152608383526040808220928c16825291909252902054845160ff909116908590600190811061220357fe5b9115156020928302919091019091015250929791965090945050505050565b81611dcd57611dcd81613cf3565b80820382811115611db357600080fd5b80820182811015611db357600080fd5b6001600160a01b038316600090815260796020908152604080832083805290915290206001810154156122ab576122a661229b84610e0184600101544261223090919063ffffffff16565b600283015490612240565b6122ae565b60005b60028201556001810154156123855761238061232f856001600160a01b031663cb12233b6040518163ffffffff1660e01b815260040160206040518083038186803b1580156122fc57600080fd5b505afa158015612310573d6000803e3d6000fd5b505050506040513d602081101561232657600080fd5b50514290612230565b61237a8461147a612372896001600160a01b031663cb12233b6040518163ffffffff1660e01b815260040160206040518083038186803b1580156122fc57600080fd5b865490612bd3565b90613d46565b612387565b815b8155426001820155816115e457600060018201819055808255600282015550505050565b6001600160a01b0380851660009081526077602090815260408083209387168352928152828220828052600481019091529190208154156124145761240f61240485610e0185600001544261223090919063ffffffff16565b600383015490612240565b612417565b60005b60038201558154156124605761245b61243d83600101544261223090919063ffffffff16565b61237a8561147a61237287600101544261223090919063ffffffff16565b612462565b825b815583158061247357506001820154155b1561247f574260018301555b428255826124ab57600080835560018301819055808255600382018190556124ab906002840190615b2d565b505050505050565b3390565b606e54604080517f5b14f1830000000000000000000000000000000000000000000000000000000081523060048201529051612550926001600160a01b031691635b14f183916024808301926020929190829003018186803b15801561251c57600080fd5b505afa158015612530573d6000803e3d6000fd5b505050506040513d602081101561254657600080fd5b5051156053612222565b565b6000816001600160a01b03166356ba88b86040518163ffffffff1660e01b815260040160206040518083038186803b15801561258d57600080fd5b505afa1580156125a1573d6000803e3d6000fd5b505050506040513d60208110156125b757600080fd5b5051606e546040805163364d118160e01b81526001600160a01b038085166004830152915193945061260d93919092169163364d1181916024808301926020929190829003018186803b15801561078357600080fd5b611dcd816001600160a01b03166306061dfa846040518263ffffffff1660e01b815260040180826001600160a01b0316815260200191505060206040518083038186803b1580156110a157600080fd5b6000836001600160a01b03166356ba88b86040518163ffffffff1660e01b815260040160206040518083038186803b15801561269857600080fd5b505afa1580156126ac573d6000803e3d6000fd5b505050506040513d60208110156126c257600080fd5b5051604080517ff85cb5c800000000000000000000000000000000000000000000000000000000815290516001600160a01b039092169163f85cb5c891600480820192602092909190829003018186803b15801561271f57600080fd5b505afa158015612733573d6000803e3d6000fd5b505050506040513d602081101561274957600080fd5b50519050600061275b82868686613dad565b90506127e06127d3836001600160a01b031663313ce5676040518163ffffffff1660e01b815260040160206040518083038186803b15801561279c57600080fd5b505afa1580156127b0573d6000803e3d6000fd5b505050506040513d60208110156127c657600080fd5b505160129060ff16612230565b600a0a610e018684613900565b93506127ea613f99565b6127f38561441a565b6127fe858585614856565b505042608155505050565b600061281a6001831015604a612222565b610201821061282b5750600061071c565b600061285561283b846001612230565b61284f6701aa535d3d0c000061147a614940565b9061494c565b9050600061286d690b581ceb141f05c1ae0083612bf7565b90506128a1816040518060400160405280601081526020016f6f766572666c6f77203936206269747360801b815250613764565b9250505061071c565b600054610100900460ff16806128c357506128c361498d565b806128d1575060005460ff16155b61290c5760405162461bcd60e51b815260040180806020018281038252602e815260200180615b82602e913960400191505060405180910390fd5b600054610100900460ff16158015612937576000805460ff1961ff0019909116610100171660011790555b61293f61499e565b612947614a3e565b8015612959576000805461ff00191690555b50565b60408051600980825261014082019092526060916000919060208201610120803683375050506001600160a01b0385811660008181526077602090815260408083209489168352938152838220928252607981528382208280529052918220815484519495509193909285916129ce57fe5b6020026020010181815250508160010154836001815181106129ec57fe5b602002602001018181525050856001600160a01b03166370a08231866040518263ffffffff1660e01b815260040180826001600160a01b0316815260200191505060206040518083038186803b158015612a4557600080fd5b505afa158015612a59573d6000803e3d6000fd5b505050506040513d6020811015612a6f57600080fd5b5051835184906002908110612a8057fe5b6020026020010181815250508160040160008081526020019081526020016000206003015483600381518110612ab257fe5b6020026020010181815250508160040160008081526020019081526020016000206000015483600481518110612ae457fe5b602002602001018181525050806001015483600581518110612b0257fe5b602002602001018181525050806002015483600681518110612b2057fe5b602002602001018181525050806000015483600781518110612b3e57fe5b602002602001018181525050856001600160a01b03166318160ddd6040518163ffffffff1660e01b815260040160206040518083038186803b158015612b8357600080fd5b505afa158015612b97573d6000803e3d6000fd5b505050506040513d6020811015612bad57600080fd5b5051835184906008908110612bbe57fe5b60209081029190910101525090949350505050565b6000821580612bee57505081810281838281612beb57fe5b04145b611db357600080fd5b6000611db08261237a85670de0b6b3a7640000612bd3565b6060612c94866001600160a01b0316866001600160a01b03166356ba88b86040518163ffffffff1660e01b815260040160206040518083038186803b158015612c5757600080fd5b505afa158015612c6b573d6000803e3d6000fd5b505050506040513d6020811015612c8157600080fd5b50516001600160a01b0316146049612222565b604080516008808252610120820190925260009160208201610100803683370190505090506000806000886001600160a01b0316632aba2af46040518163ffffffff1660e01b815260040160006040518083038186803b158015612cf757600080fd5b505afa158015612d0b573d6000803e3d6000fd5b505050506040513d6000823e601f3d908101601f191682016040526060811015612d3457600080fd5b815160208301805160405192949293830192919084640100000000821115612d5b57600080fd5b908301906020820185811115612d7057600080fd5b8251866020820283011164010000000082111715612d8d57600080fd5b82525081516020918201928201910280838360005b83811015612dba578181015183820152602001612da2565b5050505090500160405260200180516040519392919084640100000000821115612de357600080fd5b908301906020820185811115612df857600080fd5b8251866020820283011164010000000082111715612e1557600080fd5b82525081516020918201928201910280838360005b83811015612e42578181015183820152602001612e2a565b505050509050016040525050509250925092508582600181518110612e6357fe5b6020026020010151118015612e8b57508682600181518110612e8157fe5b6020026020010151115b8015612e9657508615155b15612ed1576000612ebc8b8a85600181518110612eaf57fe5b6020026020010151610ca8565b9050612ecd8b8b868c8588886139f6565b9450505b509198975050505050505050565b6000606080836001600160a01b0316632aba2af46040518163ffffffff1660e01b815260040160006040518083038186803b158015612f1d57600080fd5b505afa158015612f31573d6000803e3d6000fd5b505050506040513d6000823e601f3d908101601f191682016040526060811015612f5a57600080fd5b815160208301805160405192949293830192919084640100000000821115612f8157600080fd5b908301906020820185811115612f9657600080fd5b8251866020820283011164010000000082111715612fb357600080fd5b82525081516020918201928201910280838360005b83811015612fe0578181015183820152602001612fc8565b505050509050016040526020018051604051939291908464010000000082111561300957600080fd5b90830190602082018581111561301e57600080fd5b825186602082028301116401000000008211171561303b57600080fd5b82525081516020918201928201910280838360005b83811015613068578181015183820152602001613050565b505050509050016040525050508093508194508295505050508160098151811061308e57fe5b602002602001015160001415806130b95750816000815181106130ad57fe5b60200260200101516000145b156130c357613626565b836001600160a01b0316630126c6066040518163ffffffff1660e01b815260040160206040518083038186803b1580156130fc57600080fd5b505afa158015613110573d6000803e3d6000fd5b505050506040513d602081101561312657600080fd5b505182518390600790811061313757fe5b6020026020010181815250506131976131746608e1bc9bf040008460078151811061315e57fe5b6020026020010151614b4490919063ffffffff16565b8360078151811061318157fe5b602002602001015161223090919063ffffffff16565b826007815181106131a457fe5b6020026020010181815250506729a2241af62c00006131de836006815181106131c957fe5b602002602001015184600781518110611ad957fe5b116131fd57816007815181106131f057fe5b6020026020010151613213565b8160068151811061320a57fe5b60200260200101515b8260078151811061322057fe5b6020026020010181815250508160068151811061323957fe5b60200260200101518260078151811061324e57fe5b60200260200101511015613263576000613266565b60015b8160008151811061327357fe5b6020026020010190151590811515815250508160088151811061329257fe5b6020026020010151826007815181106132a757fe5b602002602001015110156132bc5760006132bf565b60015b816001815181106132cc57fe5b602002602001019015159081151581525050806000815181106132eb57fe5b60200260200101516132fe576000613323565b6133238260068151811061330e57fe5b60200260200101518360078151811061318157fe5b82600a8151811061333057fe5b6020026020010181815250508060018151811061334957fe5b602002602001015161337f5761337a8260078151811061336557fe5b60200260200101518360088151811061318157fe5b61338f565b61338f8260088151811061330e57fe5b82600b8151811061339c57fe5b602002602001018181525050600080613420606554856000815181106133be57fe5b60200260200101511180156133d4575060655415155b613404576001600160a01b0387166000908152607c6020908152604080832060018085529252909120015461341a565b8460008151811061341157fe5b60200260200101515b42613807565b9150915060008267ffffffffffffffff8111801561343d57600080fd5b50604051908082528060200260200182016040528015613467578160200160208202803683370190505b50905060008367ffffffffffffffff8111801561348357600080fd5b506040519080825280602002602001820160405280156134ad578160200160208202803683370190505b50905060005b8481101561357b576001600160a01b0389166000908152607c60205260408120906134de8684612240565b8152602001908152602001600020600201548382815181106134fc57fe5b6020908102919091010152607460006135158684612240565b81526020019081526020016000206002015482828151811061353357fe5b60200260200101818152505061357382828151811061354e57fe5b602002602001015184838151811061356257fe5b602002602001015111156047612222565b6001016134b3565b506135c28285858960028151811061358f57fe5b6020026020010151608260008e6001600160a01b03166001600160a01b0316815260200190815260200160002054614b60565b91506135d5818585608154607054614b60565b9050613608828285876136038b6006815181106135ee57fe5b60200260200101518c600781518110611ad957fe5b614cde565b8660098151811061361557fe5b602002602001018181525050505050505b9193909250565b606e54604080517f13bc6d4b00000000000000000000000000000000000000000000000000000000815233600482015290516136c5926001600160a01b0316916313bc6d4b916024808301926020929190829003018186803b15801561369257600080fd5b505afa1580156136a6573d6000803e3d6000fd5b505050506040513d60208110156136bc57600080fd5b50516048612222565b606e54612550906001600160a01b031633146010612222565b6137006136ef8261147a8686612240565b670d2f13f7789f000014605c612222565b606954831415806137135750606a548214155b806137205750606b548114155b156115e4576001600160a01b03939093166000908152608060209081526040808320805460ff19166001908117909155607f90925290912092835582015560020155565b6000816c0100000000000000000000000084106137ff5760405162461bcd60e51b81526004018080602001828103825283818151815260200191508051906020019080838360005b838110156137c45781810151838201526020016137ac565b50505050905090810190601f1680156137f15780820380516001836020036101000a031916815260200191505b509250505060405180910390fd5b509192915050565b60008060655484101561381a5760655493505b600061383f670de0b6b3a764000061237a6276a700613839888a612230565b90614e28565b9050600061386b670de0b6b3a764000061237a6276a7006138396065548b61223090919063ffffffff16565b90506000613897670de0b6b3a764000061237a6276a7006138396065548b61223090919063ffffffff16565b90508082141580156138b257506138af826001612240565b81145b80156138c957506276a7006138c78789612230565b105b156138dc576138d9836001612240565b92505b6138e7836001612240565b6138f2836001612240565b945094505050509250929050565b6000611db0670de0b6b3a764000061237a8585612bd3565b606f54604080517f70a08231000000000000000000000000000000000000000000000000000000008152306004820152905160009283926001600160a01b03909116916370a0823191602480820192602092909190829003018186803b15801561398157600080fd5b505afa158015613995573d6000803e3d6000fd5b505050506040513d60208110156139ab57600080fd5b5051905060006bffffffffffffffffffffffff841682106139da57836bffffffffffffffffffffffff166139dc565b815b606f54909150611322906001600160a01b03168683614eaa565b6040805160088082526101208201909252606091600091906020820161010080368337019050509050856001600160a01b0316876001600160a01b031614613a3f576000613a49565b613a498484614f2a565b81600081518110613a5657fe5b602002602001018181525050856001600160a01b0316876001600160a01b0316148015613a9b575082600081518110613a8b57fe5b6020026020010151151560011515145b613aa6576000613ac4565b613ac48985600a81518110613ab757fe5b602002602001015161507a565b81600181518110613ad157fe5b602002602001018181525050613ae9888786866150ca565b81600281518110613af657fe5b60200260200101818152505082600081518110613b0f57fe5b602002602001015115156001151514613b29576000613b36565b613b3689898887876153d2565b81600381518110613b4357fe5b602002602001018181525050613b6d84600981518110613b5f57fe5b6020026020010151866155a5565b81600481518110613b7a57fe5b602002602001018181525050613bcd8987613bc884600481518110613b9b57fe5b602002602001015161147a86600281518110613bb357fe5b602002602001015187600081518110610e1457fe5b6155c1565b81600581518110613bda57fe5b602002602001018181525050613c0b81600381518110613bf657fe5b602002602001015182600181518110610e1457fe5b81600681518110613c1857fe5b602002602001018181525050613c6181600481518110613c3457fe5b602002602001015161147a83600281518110613c4c57fe5b602002602001015184600081518110610e1457fe5b81600581518110613c6e57fe5b602002602001015111613c82576000613ccf565b613ccf613cc282600481518110613c9557fe5b602002602001015161147a84600281518110613cad57fe5b602002602001015185600081518110610e1457fe5b8260058151811061318157fe5b81600781518110613cdc57fe5b602090810291909101015298975050505050505050565b62461bcd60e51b6000908152602060045260076024526642414223000030600a808404818106603090810160081b95839006959095019082900491820690940160101b939093010160c81b604452606490fd5b6000808211613d9c576040805162461bcd60e51b815260206004820152601a60248201527f536166654d6174683a206469766973696f6e206279207a65726f000000000000604482015290519081900360640190fd5b818381613da557fe5b049392505050565b600080606e60009054906101000a90046001600160a01b03166001600160a01b0316632630c12f6040518163ffffffff1660e01b815260040160206040518083038186803b158015613dfe57600080fd5b505afa158015613e12573d6000803e3d6000fd5b505050506040513d6020811015613e2857600080fd5b5051604080517fac41865a0000000000000000000000000000000000000000000000000000000081526001600160a01b038981166004830152736b175474e89094c44da98b954eedeac495271d0f602483015291519293506000929184169163ac41865a91604480820192602092909190829003018186803b158015613ead57600080fd5b505afa158015613ec1573d6000803e3d6000fd5b505050506040513d6020811015613ed757600080fd5b50516001600160a01b0387166000908152607d60205260409020805491925090613f0d5785815560010181905591506113229050565b8415613f64578054613f4c90613f239088612240565b611a51670de0b6b3a764000061237a613f3c8b88612bd3565b8654600188015461147a91612bd3565b60018201558054613f5d9087612240565b8155613f8b565b80546000908711613f755786613f78565b81545b8254909150613f879082612230565b8255505b600101549250611322915050565b60408051600480825260a082019092526000916020820160808036833750506081549192505015613fd457613fcf60815461586d565b613fd7565b60015b81600081518110613fe457fe5b602002602001018181525050613ff94261586d565b8160018151811061400657fe5b602090810291909101015260815461401f904290612230565b8160028151811061402c57fe5b6020026020010181815250506000607460008360018151811061404b57fe5b60200260200101518152602001908152602001600020905060815460001461409b576140968260028151811061407d57fe5b6020026020010151607054612bd390919063ffffffff16565b61409e565b60005b826003815181106140ab57fe5b60200260200101818152505060756000836001815181106140c857fe5b60209081029190910181015182528101919091526040016000205460ff166143b757608154156143725761410460018360018151811061318157fe5b8260008151811061411157fe5b602002602001015114156141f15761416e8260028151811061412f57fe5b602002602001015161237a614161611a4a61198f6276a70061415b6276a7008a600181518110610e8957fe5b90612230565b85600381518110610e8957fe5b6002820181905582516141c29161418c918590600390811061318157fe5b607460006141a260018760018151811061318157fe5b81526020019081526020016000206002015461224090919063ffffffff16565b607460006141d860018660018151811061318157fe5b8152602081019190915260400160002060020155614372565b60005b6142198360008151811061420457fe5b60200260200101518460018151811061318157fe5b8111614370576000607460006142368487600081518110610e1457fe5b81526020019081526020016000209050600061426361198f6276a700610e018689600081518110610e1457fe5b9050826142bf576142b56142aa8660028151811061427d57fe5b602002602001015161237a61429d6081548661223090919063ffffffff16565b89600381518110610e8957fe5b600284015490612240565b6002830155614366565b6142e4856000815181106142cf57fe5b60200260200101518660018151811061318157fe5b831015614317576142b5856002815181106142fb57fe5b602002602001015161237a6276a70088600381518110610e8957fe5b6143608560028151811061432757fe5b602002602001015161237a614353611a4a61198f6276a70061415b6276a7008d600181518110610e8957fe5b88600381518110610e8957fe5b60028501555b50506001016141f4565b505b6001607560008460018151811061438557fe5b6020026020010151815260200190815260200160002060006101000a81548160ff021916908315150217905550611dcd565b6143e2826003815181106143c757fe5b6020026020010151826002015461224090919063ffffffff16565b8160020181905550614413826003815181106143fa57fe5b602002602001015160735461224090919063ffffffff16565b6073555050565b60408051600580825260c082019092526000916020820160a080368337019050509050816001600160a01b031663bf1dcfe26040518163ffffffff1660e01b815260040160e06040518083038186803b15801561447657600080fd5b505afa15801561448a573d6000803e3d6000fd5b505050506040513d60e08110156144a057600080fd5b50608081015160c090910151825183906000906144b957fe5b60200260200101836001815181106144cd57fe5b6020026020010182815250828152505050606554816001815181106144ee57fe5b60200260200101511015614550576001600160a01b0382166000908152607c602090815260408083206001808552925290912090810154614530574260018201555b80600101548260018151811061454257fe5b602002602001018181525050505b61456081600181518110610dea57fe5b8160028151811061456d57fe5b6020026020010181815250506145824261586d565b8160038151811061458f57fe5b6020026020010181815250506000607c6000846001600160a01b03166001600160a01b031681526020019081526020016000206000836003815181106145d157fe5b602002602001015181526020019081526020016000209050614635826002815181106145f957fe5b602002602001015160826000866001600160a01b03166001600160a01b0316815260200190815260200160002054612bd390919063ffffffff16565b8260048151811061464257fe5b6020908102919091010152600381015460ff1661483c576146768260008151811061466957fe5b602002602001015161586d565b8260038151811061468357fe5b60200260200101511115614828576000806146a48460018151811061341157fe5b9150915060005b82811015614824576001600160a01b0386166000908152607c60205260408120816146d68585612240565b81526020019081526020016000209050600061470561198f6276a700610e01868861224090919063ffffffff16565b9050826147685761475e6142aa8860028151811061471f57fe5b602002602001015161237a6147518b60018151811061473a57fe5b60200260200101518661223090919063ffffffff16565b8b600481518110610e8957fe5b600283015561481a565b60008311801561478157508461477f846001612240565b105b156147cb576147b28760028151811061479657fe5b602002602001015161237a6276a7008a600481518110610e8957fe5b600283015560038201805460ff1916600117905561481a565b614814876002815181106147db57fe5b602002602001015161237a614807611a4a61198f6276a70061415b6276a7008f600381518110610e8957fe5b8a600481518110610e8957fe5b60028301555b50506001016146ab565b5050505b60038101805460ff191660011790556108b0565b61484c826004815181106143c757fe5b6002820155505050565b806148ef576001600160a01b0383166000908152608260205260408120548311614880578261489a565b6001600160a01b0384166000908152608260205260409020545b6070549091506148aa9082612230565b6070556001600160a01b0384166000908152608260205260409020546148d09082612230565b6001600160a01b038516600090815260826020526040902055506108b0565b6070546148fc9083612240565b6070556001600160a01b0383166000908152608260205260409020546149229083612240565b6001600160a01b038416600090815260826020526040902055505050565b670de0b6b3a764000090565b600080614957614940565b90505b8215611db0576002830615614976576149738185614b44565b90505b6149808480614b44565b935060028304925061495a565b6000614998306158b6565b15905090565b600054610100900460ff16806149b757506149b761498d565b806149c5575060005460ff16155b614a005760405162461bcd60e51b815260040180806020018281038252602e815260200180615b82602e913960400191505060405180910390fd5b600054610100900460ff16158015612947576000805460ff1961ff0019909116610100171660011790558015612959576000805461ff001916905550565b600054610100900460ff1680614a575750614a5761498d565b80614a65575060005460ff16155b614aa05760405162461bcd60e51b815260040180806020018281038252602e815260200180615b82602e913960400191505060405180910390fd5b600054610100900460ff16158015614acb576000805460ff1961ff0019909116610100171660011790555b6000614ad56124b3565b6033805473ffffffffffffffffffffffffffffffffffffffff19166001600160a01b038316908117909155604051919250906000907f8be0079c531659141344cd1fd0a4f28419497f9722a3daafe3b4186f6b6457e0908290a3508015612959576000805461ff001916905550565b6000670de0b6b3a7640000614b598484612bd3565b81613da557fe5b60606000614b6d8461586d565b90506000614b7a4261586d565b90506000614b884287612230565b90506000614b968683612bd3565b90508015614cd05760005b89811015614cce576000614bbf61198f6276a700610e018d86612240565b905081158015614bce57508986145b8015614bd957508486105b15614c2257614c05614bf98561237a614bf2858e612230565b8790612bd3565b8d8481518110610e1457fe5b8c8381518110614c1157fe5b602002602001018181525050614cc5565b600082118015614c3b57508a614c39836001612240565b105b8015614c505750614c4c8a83612240565b8611155b15614c6957614c05614bf98561237a866276a700612bd3565b84614c748b84612240565b1415614cc55784861415614c9257614c05838d8481518110610e1457fe5b614cac614bf98561237a614bf2611a4a866276a700612230565b8c8381518110614cb857fe5b6020026020010181815250505b50600101614ba1565b505b509798975050505050505050565b600080670de0b6b3a7640000815b85811015614dcd5785614d00826001612240565b1415614d4c576000614d1c61198f6276a700610e018b86612240565b9050614d48614d38614d31836276a700612230565b8390612230565b611a51611a4a846276a700612230565b9250505b6000614db683611a8d614d62611a708c87612240565b6bffffffffffffffffffffffff16611a8d8d8781518110614d7f57fe5b6020026020010151600014614da7578d8781518110614d9a57fe5b6020026020010151614daa565b60015b8f8881518110611ad957fe5b9050614dc28482612240565b935050600101614cec565b506000614de283671bc16d674ec80000613900565b9050614e0e614e0086611a8d6085548761390090919063ffffffff16565b60865461147a908690613900565b9250808310614e1b578092505b5090979650505050505050565b600081614e7c576040805162461bcd60e51b815260206004820152601060248201527f43616e7420646976696465206279203000000000000000000000000000000000604482015290519081900360640190fd5b60008311614e8b576000611db0565b611db0600161147a8461237a8361415b89670de0b6b3a7640000612bd3565b604080516001600160a01b038416602482015260448082018490528251808303909101815260649091019091526020810180517bffffffffffffffffffffffffffffffffffffffffffffffffffffffff167fa9059cbb000000000000000000000000000000000000000000000000000000001790526108b09084906158bc565b6000806000614f426066548660098151811061315e57fe5b915083600081518110614f5157fe5b6020026020010151151560011515148015614f84575083600181518110614f7457fe5b6020026020010151151560011515145b15614fe257614f94826002612bd3565b9050614fcf614fc8614fc187600781518110614fac57fe5b602002602001015188600881518110611ad957fe5b8490613900565b8390612240565b915080821115614fdd578091505b615072565b83600081518110614fef57fe5b602002602001015115156001151514801561501f57508360018151811061501257fe5b6020908102919091010151155b1561506757615060614d316150596150528860088151811061503d57fe5b602002602001015189600781518110611ad957fe5b8590613900565b8490612230565b9150615072565b600092505050611db3565b509392505050565b6001600160a01b038216600090815260806020526040812054819060ff166150a4576069546150be565b6001600160a01b0384166000908152607f60205260409020545b90506113228382614b44565b600080856001600160a01b031663950c7822866040518263ffffffff1660e01b815260040180826001600160a01b0316815260200191505060206040518083038186803b15801561511a57600080fd5b505afa15801561512e573d6000803e3d6000fd5b505050506040513d602081101561514457600080fd5b5051845190915060009061515f908690600590811061122b57fe5b905060008060008413801561518c57508560008151811061517c57fe5b6020026020010151151560011515145b80156151b05750856001815181106151a057fe5b6020026020010151151560011515145b156151f9576151f26151df886004815181106151c857fe5b602002602001015186612bf790919063ffffffff16565b611a8d6067548a60098151811061315e57fe5b90506153c6565b60008413801561522157508560008151811061521157fe5b6020026020010151151560011515145b801561524257508560018151811061523557fe5b6020908102919091010151155b1561528f576152546151df8585612bf7565b90506151f26152886152818960088151811061526c57fe5b60200260200101518a600b81518110611ad957fe5b8390613900565b8290612230565b6000841380156152b45750856000815181106152a757fe5b6020908102919091010151155b156152c1575060006153c6565b6000841280156152e65750856001815181106152d957fe5b6020908102919091010151155b15615395576000866000815181106152fa57fe5b6020026020010151615320578760058151811061531357fe5b6020026020010151615322565b835b905061534761533482611a518861596d565b611a8d6067548b60098151811061315e57fe5b9150615354826002612bd3565b9250615381614fc8614fc18a60088151811061536c57fe5b60200260200101518b600b81518110611ad957fe5b91508282111561538f578291505b506153c6565b6000841280156153bd5750856001815181106153ad57fe5b6020026020010151151560011515145b156153c6575060005b98975050505050505050565b600080856001600160a01b031663950c7822866040518263ffffffff1660e01b815260040180826001600160a01b0316815260200191505060206040518083038186803b15801561542257600080fd5b505afa158015615436573d6000803e3d6000fd5b505050506040513d602081101561544c57600080fd5b50518451909150600090615467908690600590811061122b57fe5b6001600160a01b0389166000908152608060205260408120549192509060ff1661549357606a546154b0565b6001600160a01b0389166000908152607f60205260409020600101545b90506000831315615515576000856001815181106154ca57fe5b60200260200101516154dc57826154f2565b866004815181106154e957fe5b60200260200101515b905061550d81611a5186611a8d868c600a8151811061315e57fe5b945050615599565b60008312801561553a57508460018151811061552d57fe5b6020908102919091010151155b156155675761556082611a5161554f8661596d565b611a8d858b600a8151811061315e57fe5b9350615599565b60008312801561558f57508460018151811061557f57fe5b6020026020010151151560011515145b1561559957600093505b50505095945050505050565b60008061132283611a8d60685487614b4490919063ffffffff16565b6000808490506000846001600160a01b0316826001600160a01b03166302d05d3f6040518163ffffffff1660e01b815260040160206040518083038186803b15801561560c57600080fd5b505afa158015615620573d6000803e3d6000fd5b505050506040513d602081101561563657600080fd5b5051604080517f02d05d3f00000000000000000000000000000000000000000000000000000000815290516001600160a01b0392831693909314935060009283928616916302d05d3f916004808301926020929190829003018186803b15801561569f57600080fd5b505afa1580156156b3573d6000803e3d6000fd5b505050506040513d60208110156156c957600080fd5b50516001600160a01b031614156156e15760006156e4565b60015b905060005b60048160ff1610156157aa576000846001600160a01b03166363f568b9836040518263ffffffff1660e01b8152600401808260ff16815260200191505060206040518083038186803b15801561573e57600080fd5b505afa158015615752573d6000803e3d6000fd5b505050506040513d602081101561576857600080fd5b505190506001600160a01b038116156157a157600190920191838061579e5750876001600160a01b0316816001600160a01b0316145b93505b506001016156e9565b5060ff811661583d5761583361582c886001600160a01b031663f251fc8c6040518163ffffffff1660e01b815260040160206040518083038186803b1580156157f257600080fd5b505afa158015615806573d6000803e3d6000fd5b505050506040513d602081101561581c57600080fd5b5051606d5461237a908990614b44565b8690612240565b9350505050610f21565b81156158625761583361582c8260ff1661237a606d5489614b4490919063ffffffff16565b509295945050505050565b6000806065548310156158815760006158a9565b6158a9670de0b6b3a764000061237a6276a7006138396065548861223090919063ffffffff16565b9050610f21816001612240565b3b151590565b6000615911826040518060400160405280602081526020017f5361666545524332303a206c6f772d6c6576656c2063616c6c206661696c6564815250856001600160a01b03166159849092919063ffffffff16565b8051909150156108b05780806020019051602081101561593057600080fd5b50516108b05760405162461bcd60e51b815260040180806020018281038252602a815260200180615bb0602a913960400191505060405180910390fd5b6000808212156159805781600003611db3565b5090565b6060611322848460008585615998856158b6565b6159e9576040805162461bcd60e51b815260206004820152601d60248201527f416464726573733a2063616c6c20746f206e6f6e2d636f6e7472616374000000604482015290519081900360640190fd5b600080866001600160a01b031685876040518082805190602001908083835b60208310615a275780518252601f199092019160209182019101615a08565b6001836020036101000a03801982511681845116808217855250505050505090500191505060006040518083038185875af1925050503d8060008114615a89576040519150601f19603f3d011682016040523d82523d6000602084013e615a8e565b606091505b5091509150615a9e828286615aa9565b979650505050505050565b60608315615ab8575081610f21565b825115615ac85782518084602001fd5b60405162461bcd60e51b81526020600482018181528451602484015284518593919283926044019190850190808383600083156137c45781810151838201526020016137ac565b60405180606001604052806003906020820280368337509192915050565b508054600082559060005260206000209081019061295991905b808211156159805760008155600101615b4756fe4f776e61626c653a206e6577206f776e657220697320746865207a65726f2061646472657373496e697469616c697a61626c653a20636f6e747261637420697320616c726561647920696e697469616c697a65645361666545524332303a204552433230206f7065726174696f6e20646964206e6f742073756363656564a2646970667358221220d2e8f89dac8eaa264765536aa42e54fe07932b99e365bcf7d97364551509da5a64736f6c63430007060033",
  "devdoc": {
    "kind": "dev",
    "methods": {
      "checkMining(uint256,address)": {
        "params": {
          "_quarterNum": "Number of quarter",
          "_strategy": "Address of strategy"
        }
      },
      "estimateStrategyRewards(address)": {
        "params": {
          "_strategy": "Address of the strategy to estimate BABL rewards"
        },
        "returns": {
          "_0": "the estimated BABL rewards"
        }
      },
      "estimateUserRewards(address,address)": {
        "params": {
          "_contributor": "Address of the garden contributor",
          "_strategy": "Address of the strategy to estimate BABL rewards"
        },
        "returns": {
          "_0": "Array of size 7 with the following distribution: rewards[0]: Strategist BABL rewards[1]: Strategist Profit rewards[2]: Steward BABL rewards[3]: Steward Profit rewards[4]: LP BABL rewards[5]: total BABL rewards[6]: total Profits rewards[7]: Creator bonus"
        }
      },
      "getBABLMiningParameters()": {
        "returns": {
          "_0": "Strategist, Stewards, Lps, creator bonus, bablProfit weight, babl principal weigth"
        }
      },
      "getContributorPerGarden(address,address)": {
        "params": {
          "_contributor": "Address of contributor",
          "_garden": "Address of the garden"
        }
      },
      "getContributorPower(address,address,uint256)": {
        "params": {
          "_contributor": "Address of the contributor",
          "_garden": "Address of the garden where the contributor belongs to",
          "_time": "Timestamp to check power"
        },
        "returns": {
          "_0": "uint256     Contributor power during that period"
        }
      },
      "getGardenProfitsSharing(address)": {
        "params": {
          "_garden": "Address of the garden"
        }
      },
      "getRewards(address,address,address[])": {
        "params": {
          "_contributor": "Address of the contributor to check",
          "_finalizedStrategies": "List of addresses of the finalized strategies to check",
          "_garden": "Garden to which the strategies and the user must belong to"
        },
        "returns": {
          "_0": "Array of size 7 with the following distribution: rewards[0]: Strategist BABL rewards[1]: Strategist Profit rewards[2]: Steward BABL rewards[3]: Steward Profit rewards[4]: LP BABL rewards[5]: total BABL rewards[6]: total Profits rewards[7]: Creator bonus"
        }
      },
      "getStrategyRewards(address)": {
        "params": {
          "_strategy": "Strategy to check"
        }
      },
      "owner()": {
        "details": "Returns the address of the current owner."
      },
      "renounceOwnership()": {
        "details": "Leaves the contract without owner. It will not be possible to call `onlyOwner` functions anymore. Can only be called by the current owner. NOTE: Renouncing ownership will leave the contract without an owner, thereby removing any functionality that is only available to the owner."
      },
      "sendTokensToContributor(address,uint256)": {
        "params": {
          "_amount": "Amount of tokens to send the address to returns the amount of tokens transferred",
          "_to": "Address to send the tokens to"
        }
      },
      "setBABLMiningParameters(uint256,uint256,uint256,uint256,uint256,uint256)": {
        "params": {
          "_creatorBonus": "New % of creator bonus",
          "_lpShare": "New % of BABL lp share",
          "_principalWeight": "New % of principal weigth for strategy rewards",
          "_profitWeight": "New % of profit weigth for strategy rewards",
          "_stewardsShare": "New % of BABL stewards share",
          "_strategistShare": "New % of BABL strategist share"
        }
      },
      "setProfitRewards(address,uint256,uint256,uint256)": {
        "params": {
          "_garden": "Address of the garden",
          "_lpShare": "New % of lpShare",
          "_stewardsShare": "New % of stewardsShare",
          "_strategistShare": "New % of strategistShare"
        }
      },
      "transferOwnership(address)": {
        "details": "Transfers ownership of the contract to a new account (`newOwner`). Can only be called by the current owner."
      },
      "updateProtocolPrincipal(uint256,bool)": {
        "params": {
          "_addOrSubstract": "Whether we are adding or substracting capital",
          "_capital": "Amount of capital in any type of asset to be normalized into DAI"
        }
      },
      "updateStrategyCheckpoint(address,uint256,bool)": {
        "params": {
          "_addOrSubstract": "Whether we are adding or substracting capital",
          "_capital": "Amount of capital in any type of asset to be normalized into DAI",
          "_strategy": "Address of the strategy"
        }
      }
    },
    "version": 1
  },
  "userdoc": {
    "kind": "user",
    "methods": {
      "checkMining(uint256,address)": {
        "notice": "Check the mining program state for a specific quarter and strategy"
      },
      "estimateStrategyRewards(address)": {
        "notice": "Get an estimation of strategy BABL rewards for active strategies in the mining program"
      },
      "estimateUserRewards(address,address)": {
        "notice": "Get an estimation of user rewards for active strategies"
      },
      "getBABLMiningParameters()": {
        "notice": "Returns the percentages of BABL Mining program"
      },
      "getContributorPerGarden(address,address)": {
        "notice": "Get contributor data per garden"
      },
      "getContributorPower(address,address,uint256)": {
        "notice": "Gets the contributor power from one timestamp to the other"
      },
      "getGardenProfitsSharing(address)": {
        "notice": "Check the garden profit sharing % if different from default"
      },
      "getRewards(address,address,address[])": {
        "notice": "Calculates the profits and BABL that a contributor should receive from a series of finalized strategies"
      },
      "getStrategyRewards(address)": {
        "notice": "Gets the total amount of rewards for a given strategy"
      },
      "sendTokensToContributor(address,uint256)": {
        "notice": "Sends BABL tokens rewards to a contributor after a claim is requested to the protocol."
      },
      "setBABLMiningParameters(uint256,uint256,uint256,uint256,uint256,uint256)": {
        "notice": "Change default BABL shares % by the governance"
      },
      "setProfitRewards(address,uint256,uint256,uint256)": {
        "notice": "Set customized profit shares for a specific garden by the gardener"
      },
      "updateProtocolPrincipal(uint256,bool)": {
        "notice": "Function that adds/substract the capital received to the total principal of the protocol per timestamp"
      },
      "updateStrategyCheckpoint(address,uint256,bool)": {
        "notice": "PRIVILEGE FUNCTION to update strategy data"
      }
    },
    "version": 1
  },
  "storageLayout": {
    "storage": [
      {
        "astId": 492,
        "contract": "contracts/token/RewardsDistributor.sol:RewardsDistributorV10",
        "label": "_initialized",
        "offset": 0,
        "slot": "0",
        "type": "t_bool"
      },
      {
        "astId": 495,
        "contract": "contracts/token/RewardsDistributor.sol:RewardsDistributorV10",
        "label": "_initializing",
        "offset": 1,
        "slot": "0",
        "type": "t_bool"
      },
      {
        "astId": 1447,
        "contract": "contracts/token/RewardsDistributor.sol:RewardsDistributorV10",
        "label": "__gap",
        "offset": 0,
        "slot": "1",
        "type": "t_array(t_uint256)50_storage"
      },
      {
        "astId": 10,
        "contract": "contracts/token/RewardsDistributor.sol:RewardsDistributorV10",
        "label": "_owner",
        "offset": 0,
        "slot": "51",
        "type": "t_address"
      },
      {
        "astId": 129,
        "contract": "contracts/token/RewardsDistributor.sol:RewardsDistributorV10",
        "label": "__gap",
        "offset": 0,
        "slot": "52",
        "type": "t_array(t_uint256)49_storage"
      },
      {
        "astId": 48894,
        "contract": "contracts/token/RewardsDistributor.sol:RewardsDistributorV10",
        "label": "START_TIME",
        "offset": 0,
        "slot": "101",
        "type": "t_uint256"
      },
      {
        "astId": 48896,
        "contract": "contracts/token/RewardsDistributor.sol:RewardsDistributorV10",
        "label": "strategistBABLPercentage",
        "offset": 0,
        "slot": "102",
        "type": "t_uint256"
      },
      {
        "astId": 48898,
        "contract": "contracts/token/RewardsDistributor.sol:RewardsDistributorV10",
        "label": "stewardsBABLPercentage",
        "offset": 0,
        "slot": "103",
        "type": "t_uint256"
      },
      {
        "astId": 48900,
        "contract": "contracts/token/RewardsDistributor.sol:RewardsDistributorV10",
        "label": "lpsBABLPercentage",
        "offset": 0,
        "slot": "104",
        "type": "t_uint256"
      },
      {
        "astId": 48902,
        "contract": "contracts/token/RewardsDistributor.sol:RewardsDistributorV10",
        "label": "strategistProfitPercentage",
        "offset": 0,
        "slot": "105",
        "type": "t_uint256"
      },
      {
        "astId": 48904,
        "contract": "contracts/token/RewardsDistributor.sol:RewardsDistributorV10",
        "label": "stewardsProfitPercentage",
        "offset": 0,
        "slot": "106",
        "type": "t_uint256"
      },
      {
        "astId": 48906,
        "contract": "contracts/token/RewardsDistributor.sol:RewardsDistributorV10",
        "label": "lpsProfitPercentage",
        "offset": 0,
        "slot": "107",
        "type": "t_uint256"
      },
      {
        "astId": 48908,
        "contract": "contracts/token/RewardsDistributor.sol:RewardsDistributorV10",
        "label": "profitProtocolFee",
        "offset": 0,
        "slot": "108",
        "type": "t_uint256"
      },
      {
        "astId": 48910,
        "contract": "contracts/token/RewardsDistributor.sol:RewardsDistributorV10",
        "label": "gardenCreatorBonus",
        "offset": 0,
        "slot": "109",
        "type": "t_uint256"
      },
      {
        "astId": 48980,
        "contract": "contracts/token/RewardsDistributor.sol:RewardsDistributorV10",
        "label": "controller",
        "offset": 0,
        "slot": "110",
        "type": "t_contract(IBabController)34227"
      },
      {
        "astId": 48982,
        "contract": "contracts/token/RewardsDistributor.sol:RewardsDistributorV10",
        "label": "babltoken",
        "offset": 0,
        "slot": "111",
        "type": "t_contract(TimeLockedToken)55497"
      },
      {
        "astId": 48984,
        "contract": "contracts/token/RewardsDistributor.sol:RewardsDistributorV10",
        "label": "miningProtocolPrincipal",
        "offset": 0,
        "slot": "112",
        "type": "t_uint256"
      },
      {
        "astId": 48988,
        "contract": "contracts/token/RewardsDistributor.sol:RewardsDistributorV10",
        "label": "protocolPerTimestamp",
        "offset": 0,
        "slot": "113",
        "type": "t_mapping(t_uint256,t_struct(ProtocolPerTimestamp)48930_storage)"
      },
      {
        "astId": 48991,
        "contract": "contracts/token/RewardsDistributor.sol:RewardsDistributorV10",
        "label": "timeList",
        "offset": 0,
        "slot": "114",
        "type": "t_array(t_uint256)dyn_storage"
      },
      {
        "astId": 48993,
        "contract": "contracts/token/RewardsDistributor.sol:RewardsDistributorV10",
        "label": "miningProtocolPower",
        "offset": 0,
        "slot": "115",
        "type": "t_uint256"
      },
      {
        "astId": 48997,
        "contract": "contracts/token/RewardsDistributor.sol:RewardsDistributorV10",
        "label": "protocolPerQuarter",
        "offset": 0,
        "slot": "116",
        "type": "t_mapping(t_uint256,t_struct(ProtocolPerQuarter)48939_storage)"
      },
      {
        "astId": 49001,
        "contract": "contracts/token/RewardsDistributor.sol:RewardsDistributorV10",
        "label": "isProtocolPerQuarter",
        "offset": 0,
        "slot": "117",
        "type": "t_mapping(t_uint256,t_bool)"
      },
      {
        "astId": 49007,
        "contract": "contracts/token/RewardsDistributor.sol:RewardsDistributorV10",
        "label": "rewardsPowerOverhead",
        "offset": 0,
        "slot": "118",
        "type": "t_mapping(t_address,t_mapping(t_uint256,t_uint256))"
      },
      {
        "astId": 49013,
        "contract": "contracts/token/RewardsDistributor.sol:RewardsDistributorV10",
        "label": "contributorPerGarden",
        "offset": 0,
        "slot": "119",
        "type": "t_mapping(t_address,t_mapping(t_address,t_struct(ContributorPerGarden)48960_storage))"
      },
      {
        "astId": 49019,
        "contract": "contracts/token/RewardsDistributor.sol:RewardsDistributorV10",
        "label": "checkpoints",
        "offset": 0,
        "slot": "120",
        "type": "t_mapping(t_address,t_mapping(t_address,t_struct(Checkpoints)48978_storage))"
      },
      {
        "astId": 49025,
        "contract": "contracts/token/RewardsDistributor.sol:RewardsDistributorV10",
        "label": "gardenPowerByTimestamp",
        "offset": 0,
        "slot": "121",
        "type": "t_mapping(t_address,t_mapping(t_uint256,t_struct(GardenPowerByTimestamp)48946_storage))"
      },
      {
        "astId": 49030,
        "contract": "contracts/token/RewardsDistributor.sol:RewardsDistributorV10",
        "label": "gardenTimelist",
        "offset": 0,
        "slot": "122",
        "type": "t_mapping(t_address,t_array(t_uint256)dyn_storage)"
      },
      {
        "astId": 49034,
        "contract": "contracts/token/RewardsDistributor.sol:RewardsDistributorV10",
        "label": "gardenPid",
        "offset": 0,
        "slot": "123",
        "type": "t_mapping(t_address,t_uint256)"
      },
      {
        "astId": 49054,
        "contract": "contracts/token/RewardsDistributor.sol:RewardsDistributorV10",
        "label": "strategyPerQuarter",
        "offset": 0,
        "slot": "124",
        "type": "t_mapping(t_address,t_mapping(t_uint256,t_struct(StrategyPerQuarter)49043_storage))"
      },
      {
        "astId": 49058,
        "contract": "contracts/token/RewardsDistributor.sol:RewardsDistributorV10",
        "label": "strategyPricePerTokenUnit",
        "offset": 0,
        "slot": "125",
        "type": "t_mapping(t_address,t_struct(StrategyPricePerTokenUnit)49048_storage)"
      },
      {
        "astId": 49060,
        "contract": "contracts/token/RewardsDistributor.sol:RewardsDistributorV10",
        "label": "status",
        "offset": 0,
        "slot": "126",
        "type": "t_uint256"
      },
      {
        "astId": 49066,
        "contract": "contracts/token/RewardsDistributor.sol:RewardsDistributorV10",
        "label": "gardenProfitSharing",
        "offset": 0,
        "slot": "127",
        "type": "t_mapping(t_address,t_array(t_uint256)3_storage)"
      },
      {
        "astId": 49070,
        "contract": "contracts/token/RewardsDistributor.sol:RewardsDistributorV10",
        "label": "gardenCustomProfitSharing",
        "offset": 0,
        "slot": "128",
        "type": "t_mapping(t_address,t_bool)"
      },
      {
        "astId": 49072,
        "contract": "contracts/token/RewardsDistributor.sol:RewardsDistributorV10",
        "label": "miningUpdatedAt",
        "offset": 0,
        "slot": "129",
        "type": "t_uint256"
      },
      {
        "astId": 49076,
        "contract": "contracts/token/RewardsDistributor.sol:RewardsDistributorV10",
        "label": "strategyPrincipal",
        "offset": 0,
        "slot": "130",
        "type": "t_mapping(t_address,t_uint256)"
      },
      {
        "astId": 49082,
        "contract": "contracts/token/RewardsDistributor.sol:RewardsDistributorV10",
        "label": "betaUserMigrated",
        "offset": 0,
        "slot": "131",
        "type": "t_mapping(t_address,t_mapping(t_address,t_bool))"
      },
      {
        "astId": 49086,
        "contract": "contracts/token/RewardsDistributor.sol:RewardsDistributorV10",
        "label": "betaGardenMigrated",
        "offset": 0,
        "slot": "132",
        "type": "t_mapping(t_address,t_bool)"
      },
      {
        "astId": 49088,
        "contract": "contracts/token/RewardsDistributor.sol:RewardsDistributorV10",
        "label": "bablProfitWeight",
        "offset": 0,
        "slot": "133",
        "type": "t_uint256"
      },
      {
        "astId": 49090,
        "contract": "contracts/token/RewardsDistributor.sol:RewardsDistributorV10",
        "label": "bablPrincipalWeight",
        "offset": 0,
        "slot": "134",
        "type": "t_uint256"
      }
    ],
    "types": {
      "t_address": {
        "encoding": "inplace",
        "label": "address",
        "numberOfBytes": "20"
      },
      "t_array(t_uint256)3_storage": {
        "base": "t_uint256",
        "encoding": "inplace",
        "label": "uint256[3]",
        "numberOfBytes": "96"
      },
      "t_array(t_uint256)49_storage": {
        "base": "t_uint256",
        "encoding": "inplace",
        "label": "uint256[49]",
        "numberOfBytes": "1568"
      },
      "t_array(t_uint256)50_storage": {
        "base": "t_uint256",
        "encoding": "inplace",
        "label": "uint256[50]",
        "numberOfBytes": "1600"
      },
      "t_array(t_uint256)dyn_storage": {
        "base": "t_uint256",
        "encoding": "dynamic_array",
        "label": "uint256[]",
        "numberOfBytes": "32"
      },
      "t_bool": {
        "encoding": "inplace",
        "label": "bool",
        "numberOfBytes": "1"
      },
      "t_contract(IBabController)34227": {
        "encoding": "inplace",
        "label": "contract IBabController",
        "numberOfBytes": "20"
      },
      "t_contract(TimeLockedToken)55497": {
        "encoding": "inplace",
        "label": "contract TimeLockedToken",
        "numberOfBytes": "20"
      },
      "t_mapping(t_address,t_array(t_uint256)3_storage)": {
        "encoding": "mapping",
        "key": "t_address",
        "label": "mapping(address => uint256[3])",
        "numberOfBytes": "32",
        "value": "t_array(t_uint256)3_storage"
      },
      "t_mapping(t_address,t_array(t_uint256)dyn_storage)": {
        "encoding": "mapping",
        "key": "t_address",
        "label": "mapping(address => uint256[])",
        "numberOfBytes": "32",
        "value": "t_array(t_uint256)dyn_storage"
      },
      "t_mapping(t_address,t_bool)": {
        "encoding": "mapping",
        "key": "t_address",
        "label": "mapping(address => bool)",
        "numberOfBytes": "32",
        "value": "t_bool"
      },
      "t_mapping(t_address,t_mapping(t_address,t_bool))": {
        "encoding": "mapping",
        "key": "t_address",
        "label": "mapping(address => mapping(address => bool))",
        "numberOfBytes": "32",
        "value": "t_mapping(t_address,t_bool)"
      },
      "t_mapping(t_address,t_mapping(t_address,t_struct(Checkpoints)48978_storage))": {
        "encoding": "mapping",
        "key": "t_address",
        "label": "mapping(address => mapping(address => struct RewardsDistributor.Checkpoints))",
        "numberOfBytes": "32",
        "value": "t_mapping(t_address,t_struct(Checkpoints)48978_storage)"
      },
      "t_mapping(t_address,t_mapping(t_address,t_struct(ContributorPerGarden)48960_storage))": {
        "encoding": "mapping",
        "key": "t_address",
        "label": "mapping(address => mapping(address => struct RewardsDistributor.ContributorPerGarden))",
        "numberOfBytes": "32",
        "value": "t_mapping(t_address,t_struct(ContributorPerGarden)48960_storage)"
      },
      "t_mapping(t_address,t_mapping(t_uint256,t_struct(GardenPowerByTimestamp)48946_storage))": {
        "encoding": "mapping",
        "key": "t_address",
        "label": "mapping(address => mapping(uint256 => struct RewardsDistributor.GardenPowerByTimestamp))",
        "numberOfBytes": "32",
        "value": "t_mapping(t_uint256,t_struct(GardenPowerByTimestamp)48946_storage)"
      },
      "t_mapping(t_address,t_mapping(t_uint256,t_struct(StrategyPerQuarter)49043_storage))": {
        "encoding": "mapping",
        "key": "t_address",
        "label": "mapping(address => mapping(uint256 => struct RewardsDistributor.StrategyPerQuarter))",
        "numberOfBytes": "32",
        "value": "t_mapping(t_uint256,t_struct(StrategyPerQuarter)49043_storage)"
      },
      "t_mapping(t_address,t_mapping(t_uint256,t_uint256))": {
        "encoding": "mapping",
        "key": "t_address",
        "label": "mapping(address => mapping(uint256 => uint256))",
        "numberOfBytes": "32",
        "value": "t_mapping(t_uint256,t_uint256)"
      },
      "t_mapping(t_address,t_struct(Checkpoints)48978_storage)": {
        "encoding": "mapping",
        "key": "t_address",
        "label": "mapping(address => struct RewardsDistributor.Checkpoints)",
        "numberOfBytes": "32",
        "value": "t_struct(Checkpoints)48978_storage"
      },
      "t_mapping(t_address,t_struct(ContributorPerGarden)48960_storage)": {
        "encoding": "mapping",
        "key": "t_address",
        "label": "mapping(address => struct RewardsDistributor.ContributorPerGarden)",
        "numberOfBytes": "32",
        "value": "t_struct(ContributorPerGarden)48960_storage"
      },
      "t_mapping(t_address,t_struct(StrategyPricePerTokenUnit)49048_storage)": {
        "encoding": "mapping",
        "key": "t_address",
        "label": "mapping(address => struct RewardsDistributor.StrategyPricePerTokenUnit)",
        "numberOfBytes": "32",
        "value": "t_struct(StrategyPricePerTokenUnit)49048_storage"
      },
      "t_mapping(t_address,t_uint256)": {
        "encoding": "mapping",
        "key": "t_address",
        "label": "mapping(address => uint256)",
        "numberOfBytes": "32",
        "value": "t_uint256"
      },
      "t_mapping(t_uint256,t_bool)": {
        "encoding": "mapping",
        "key": "t_uint256",
        "label": "mapping(uint256 => bool)",
        "numberOfBytes": "32",
        "value": "t_bool"
      },
      "t_mapping(t_uint256,t_struct(GardenPowerByTimestamp)48946_storage)": {
        "encoding": "mapping",
        "key": "t_uint256",
        "label": "mapping(uint256 => struct RewardsDistributor.GardenPowerByTimestamp)",
        "numberOfBytes": "32",
        "value": "t_struct(GardenPowerByTimestamp)48946_storage"
      },
      "t_mapping(t_uint256,t_struct(ProtocolPerQuarter)48939_storage)": {
        "encoding": "mapping",
        "key": "t_uint256",
        "label": "mapping(uint256 => struct RewardsDistributor.ProtocolPerQuarter)",
        "numberOfBytes": "32",
        "value": "t_struct(ProtocolPerQuarter)48939_storage"
      },
      "t_mapping(t_uint256,t_struct(ProtocolPerTimestamp)48930_storage)": {
        "encoding": "mapping",
        "key": "t_uint256",
        "label": "mapping(uint256 => struct RewardsDistributor.ProtocolPerTimestamp)",
        "numberOfBytes": "32",
        "value": "t_struct(ProtocolPerTimestamp)48930_storage"
      },
      "t_mapping(t_uint256,t_struct(StrategyPerQuarter)49043_storage)": {
        "encoding": "mapping",
        "key": "t_uint256",
        "label": "mapping(uint256 => struct RewardsDistributor.StrategyPerQuarter)",
        "numberOfBytes": "32",
        "value": "t_struct(StrategyPerQuarter)49043_storage"
      },
      "t_mapping(t_uint256,t_struct(TimestampContribution)48969_storage)": {
        "encoding": "mapping",
        "key": "t_uint256",
        "label": "mapping(uint256 => struct RewardsDistributor.TimestampContribution)",
        "numberOfBytes": "32",
        "value": "t_struct(TimestampContribution)48969_storage"
      },
      "t_mapping(t_uint256,t_uint256)": {
        "encoding": "mapping",
        "key": "t_uint256",
        "label": "mapping(uint256 => uint256)",
        "numberOfBytes": "32",
        "value": "t_uint256"
      },
      "t_struct(Checkpoints)48978_storage": {
        "encoding": "inplace",
        "label": "struct RewardsDistributor.Checkpoints",
        "members": [
          {
            "astId": 48971,
            "contract": "contracts/token/RewardsDistributor.sol:RewardsDistributorV10",
            "label": "fromDepositAt",
            "offset": 0,
            "slot": "0",
            "type": "t_uint256"
          },
          {
            "astId": 48973,
            "contract": "contracts/token/RewardsDistributor.sol:RewardsDistributorV10",
            "label": "lastDepositAt",
            "offset": 0,
            "slot": "1",
            "type": "t_uint256"
          },
          {
            "astId": 48975,
            "contract": "contracts/token/RewardsDistributor.sol:RewardsDistributorV10",
            "label": "gardenFromDepositAt",
            "offset": 0,
            "slot": "2",
            "type": "t_uint256"
          },
          {
            "astId": 48977,
            "contract": "contracts/token/RewardsDistributor.sol:RewardsDistributorV10",
            "label": "gardenLastDepositAt",
            "offset": 0,
            "slot": "3",
            "type": "t_uint256"
          }
        ],
        "numberOfBytes": "128"
      },
      "t_struct(ContributorPerGarden)48960_storage": {
        "encoding": "inplace",
        "label": "struct RewardsDistributor.ContributorPerGarden",
        "members": [
          {
            "astId": 48948,
            "contract": "contracts/token/RewardsDistributor.sol:RewardsDistributorV10",
            "label": "lastDepositAt",
            "offset": 0,
            "slot": "0",
            "type": "t_uint256"
          },
          {
            "astId": 48950,
            "contract": "contracts/token/RewardsDistributor.sol:RewardsDistributorV10",
            "label": "initialDepositAt",
            "offset": 0,
            "slot": "1",
            "type": "t_uint256"
          },
          {
            "astId": 48953,
            "contract": "contracts/token/RewardsDistributor.sol:RewardsDistributorV10",
            "label": "timeListPointer",
            "offset": 0,
            "slot": "2",
            "type": "t_array(t_uint256)dyn_storage"
          },
          {
            "astId": 48955,
            "contract": "contracts/token/RewardsDistributor.sol:RewardsDistributorV10",
            "label": "pid",
            "offset": 0,
            "slot": "3",
            "type": "t_uint256"
          },
          {
            "astId": 48959,
            "contract": "contracts/token/RewardsDistributor.sol:RewardsDistributorV10",
            "label": "tsContributions",
            "offset": 0,
            "slot": "4",
            "type": "t_mapping(t_uint256,t_struct(TimestampContribution)48969_storage)"
          }
        ],
        "numberOfBytes": "160"
      },
      "t_struct(GardenPowerByTimestamp)48946_storage": {
        "encoding": "inplace",
        "label": "struct RewardsDistributor.GardenPowerByTimestamp",
        "members": [
          {
            "astId": 48941,
            "contract": "contracts/token/RewardsDistributor.sol:RewardsDistributorV10",
            "label": "avgGardenBalance",
            "offset": 0,
            "slot": "0",
            "type": "t_uint256"
          },
          {
            "astId": 48943,
            "contract": "contracts/token/RewardsDistributor.sol:RewardsDistributorV10",
            "label": "lastDepositAt",
            "offset": 0,
            "slot": "1",
            "type": "t_uint256"
          },
          {
            "astId": 48945,
            "contract": "contracts/token/RewardsDistributor.sol:RewardsDistributorV10",
            "label": "accGardenPower",
            "offset": 0,
            "slot": "2",
            "type": "t_uint256"
          }
        ],
        "numberOfBytes": "96"
      },
      "t_struct(ProtocolPerQuarter)48939_storage": {
        "encoding": "inplace",
        "label": "struct RewardsDistributor.ProtocolPerQuarter",
        "members": [
          {
            "astId": 48932,
            "contract": "contracts/token/RewardsDistributor.sol:RewardsDistributorV10",
            "label": "quarterPrincipal",
            "offset": 0,
            "slot": "0",
            "type": "t_uint256"
          },
          {
            "astId": 48934,
            "contract": "contracts/token/RewardsDistributor.sol:RewardsDistributorV10",
            "label": "quarterNumber",
            "offset": 0,
            "slot": "1",
            "type": "t_uint256"
          },
          {
            "astId": 48936,
            "contract": "contracts/token/RewardsDistributor.sol:RewardsDistributorV10",
            "label": "quarterPower",
            "offset": 0,
            "slot": "2",
            "type": "t_uint256"
          },
          {
            "astId": 48938,
            "contract": "contracts/token/RewardsDistributor.sol:RewardsDistributorV10",
            "label": "supplyPerQuarter",
            "offset": 0,
            "slot": "3",
            "type": "t_uint96"
          }
        ],
        "numberOfBytes": "128"
      },
      "t_struct(ProtocolPerTimestamp)48930_storage": {
        "encoding": "inplace",
        "label": "struct RewardsDistributor.ProtocolPerTimestamp",
        "members": [
          {
            "astId": 48921,
            "contract": "contracts/token/RewardsDistributor.sol:RewardsDistributorV10",
            "label": "principal",
            "offset": 0,
            "slot": "0",
            "type": "t_uint256"
          },
          {
            "astId": 48923,
            "contract": "contracts/token/RewardsDistributor.sol:RewardsDistributorV10",
            "label": "time",
            "offset": 0,
            "slot": "1",
            "type": "t_uint256"
          },
          {
            "astId": 48925,
            "contract": "contracts/token/RewardsDistributor.sol:RewardsDistributorV10",
            "label": "quarterBelonging",
            "offset": 0,
            "slot": "2",
            "type": "t_uint256"
          },
          {
            "astId": 48927,
            "contract": "contracts/token/RewardsDistributor.sol:RewardsDistributorV10",
            "label": "timeListPointer",
            "offset": 0,
            "slot": "3",
            "type": "t_uint256"
          },
          {
            "astId": 48929,
            "contract": "contracts/token/RewardsDistributor.sol:RewardsDistributorV10",
            "label": "power",
            "offset": 0,
            "slot": "4",
            "type": "t_uint256"
          }
        ],
        "numberOfBytes": "160"
      },
      "t_struct(StrategyPerQuarter)49043_storage": {
        "encoding": "inplace",
        "label": "struct RewardsDistributor.StrategyPerQuarter",
        "members": [
          {
            "astId": 49036,
            "contract": "contracts/token/RewardsDistributor.sol:RewardsDistributorV10",
            "label": "quarterPrincipal",
            "offset": 0,
            "slot": "0",
            "type": "t_uint256"
          },
          {
            "astId": 49038,
            "contract": "contracts/token/RewardsDistributor.sol:RewardsDistributorV10",
            "label": "betaInitializedAt",
            "offset": 0,
            "slot": "1",
            "type": "t_uint256"
          },
          {
            "astId": 49040,
            "contract": "contracts/token/RewardsDistributor.sol:RewardsDistributorV10",
            "label": "quarterPower",
            "offset": 0,
            "slot": "2",
            "type": "t_uint256"
          },
          {
            "astId": 49042,
            "contract": "contracts/token/RewardsDistributor.sol:RewardsDistributorV10",
            "label": "initialized",
            "offset": 0,
            "slot": "3",
            "type": "t_bool"
          }
        ],
        "numberOfBytes": "128"
      },
      "t_struct(StrategyPricePerTokenUnit)49048_storage": {
        "encoding": "inplace",
        "label": "struct RewardsDistributor.StrategyPricePerTokenUnit",
        "members": [
          {
            "astId": 49045,
            "contract": "contracts/token/RewardsDistributor.sol:RewardsDistributorV10",
            "label": "preallocated",
            "offset": 0,
            "slot": "0",
            "type": "t_uint256"
          },
          {
            "astId": 49047,
            "contract": "contracts/token/RewardsDistributor.sol:RewardsDistributorV10",
            "label": "pricePerTokenUnit",
            "offset": 0,
            "slot": "1",
            "type": "t_uint256"
          }
        ],
        "numberOfBytes": "64"
      },
      "t_struct(TimestampContribution)48969_storage": {
        "encoding": "inplace",
        "label": "struct RewardsDistributor.TimestampContribution",
        "members": [
          {
            "astId": 48962,
            "contract": "contracts/token/RewardsDistributor.sol:RewardsDistributorV10",
            "label": "avgBalance",
            "offset": 0,
            "slot": "0",
            "type": "t_uint256"
          },
          {
            "astId": 48964,
            "contract": "contracts/token/RewardsDistributor.sol:RewardsDistributorV10",
            "label": "timestamp",
            "offset": 0,
            "slot": "1",
            "type": "t_uint256"
          },
          {
            "astId": 48966,
            "contract": "contracts/token/RewardsDistributor.sol:RewardsDistributorV10",
            "label": "timePointer",
            "offset": 0,
            "slot": "2",
            "type": "t_uint256"
          },
          {
            "astId": 48968,
            "contract": "contracts/token/RewardsDistributor.sol:RewardsDistributorV10",
            "label": "power",
            "offset": 0,
            "slot": "3",
            "type": "t_uint256"
          }
        ],
        "numberOfBytes": "128"
      },
      "t_uint256": {
        "encoding": "inplace",
        "label": "uint256",
        "numberOfBytes": "32"
      },
      "t_uint96": {
        "encoding": "inplace",
        "label": "uint96",
        "numberOfBytes": "12"
      }
    }
  }
}