{
  "address": "0x9Cd8F1507713f1f5f3349d45df89125E053AEF7B",
  "abi": [
    {
      "anonymous": false,
      "inputs": [
        {
          "indexed": true,
          "internalType": "address",
          "name": "previousOwner",
          "type": "address"
        },
        {
          "indexed": true,
          "internalType": "address",
          "name": "newOwner",
          "type": "address"
        }
      ],
      "name": "OwnershipTransferred",
      "type": "event"
    },
    {
      "inputs": [
        {
          "internalType": "uint256",
          "name": "_quarterNum",
          "type": "uint256"
        },
        {
          "internalType": "address",
          "name": "_strategy",
          "type": "address"
        }
      ],
      "name": "checkMining",
      "outputs": [
        {
          "internalType": "uint256[17]",
          "name": "miningData",
          "type": "uint256[17]"
        }
      ],
      "stateMutability": "view",
      "type": "function"
    },
    {
      "inputs": [
        {
          "internalType": "address",
          "name": "_strategy",
          "type": "address"
        }
      ],
      "name": "estimateStrategyRewards",
      "outputs": [
        {
          "internalType": "uint256",
          "name": "",
          "type": "uint256"
        }
      ],
      "stateMutability": "view",
      "type": "function"
    },
    {
      "inputs": [
        {
          "internalType": "address",
          "name": "_strategy",
          "type": "address"
        },
        {
          "internalType": "address",
          "name": "_contributor",
          "type": "address"
        }
      ],
      "name": "estimateUserRewards",
      "outputs": [
        {
          "internalType": "uint256[]",
          "name": "",
          "type": "uint256[]"
        }
      ],
      "stateMutability": "view",
      "type": "function"
    },
    {
      "inputs": [
        {
          "internalType": "address",
          "name": "_garden",
          "type": "address"
        }
      ],
      "name": "getGardenProfitsSharing",
      "outputs": [
        {
          "internalType": "uint256[3]",
          "name": "",
          "type": "uint256[3]"
        }
      ],
      "stateMutability": "view",
      "type": "function"
    },
    {
      "inputs": [
        {
          "internalType": "address",
          "name": "_garden",
          "type": "address"
        },
        {
          "internalType": "address",
          "name": "_address",
          "type": "address"
        },
        {
          "internalType": "uint256",
          "name": "_blockTime",
          "type": "uint256"
        }
      ],
      "name": "getPriorBalance",
      "outputs": [
        {
          "internalType": "uint256",
          "name": "",
          "type": "uint256"
        },
        {
          "internalType": "uint256",
          "name": "",
          "type": "uint256"
        },
        {
          "internalType": "uint256",
          "name": "",
          "type": "uint256"
        }
      ],
      "stateMutability": "view",
      "type": "function"
    },
    {
      "inputs": [
        {
          "internalType": "address",
          "name": "_garden",
          "type": "address"
        },
        {
          "internalType": "address",
          "name": "_contributor",
          "type": "address"
        },
        {
          "internalType": "address[]",
          "name": "_finalizedStrategies",
          "type": "address[]"
        }
      ],
      "name": "getRewards",
      "outputs": [
        {
          "internalType": "uint256[]",
          "name": "",
          "type": "uint256[]"
        }
      ],
      "stateMutability": "view",
      "type": "function"
    },
    {
      "inputs": [
        {
          "internalType": "address",
          "name": "_garden",
          "type": "address"
        },
        {
          "internalType": "address",
          "name": "_contributor",
          "type": "address"
        },
        {
          "internalType": "address",
          "name": "_strategy",
          "type": "address"
        }
      ],
      "name": "getSafeUserSharePerStrategy",
      "outputs": [
        {
          "internalType": "uint256",
          "name": "",
          "type": "uint256"
        }
      ],
      "stateMutability": "view",
      "type": "function"
    },
    {
      "inputs": [
        {
          "internalType": "address",
          "name": "_strategy",
          "type": "address"
        }
      ],
      "name": "getStrategyRewards",
      "outputs": [
        {
          "internalType": "uint256",
          "name": "",
          "type": "uint256"
        }
      ],
      "stateMutability": "view",
      "type": "function"
    },
    {
      "inputs": [
        {
          "internalType": "contract TimeLockedToken",
          "name": "_bablToken",
          "type": "address"
        },
        {
          "internalType": "contract IBabController",
          "name": "_controller",
          "type": "address"
        }
      ],
      "name": "initialize",
      "outputs": [],
      "stateMutability": "nonpayable",
      "type": "function"
    },
    {
      "inputs": [
        {
          "internalType": "address[]",
          "name": "_address",
          "type": "address[]"
        },
        {
          "internalType": "bool",
          "name": "_toMigrate",
          "type": "bool"
        }
      ],
      "name": "migrateAddressToCheckpoints",
      "outputs": [],
      "stateMutability": "nonpayable",
      "type": "function"
    },
    {
      "inputs": [],
      "name": "owner",
      "outputs": [
        {
          "internalType": "address",
          "name": "",
          "type": "address"
        }
      ],
      "stateMutability": "view",
      "type": "function"
    },
    {
      "inputs": [],
      "name": "renounceOwnership",
      "outputs": [],
      "stateMutability": "nonpayable",
      "type": "function"
    },
    {
      "inputs": [
        {
          "internalType": "address",
          "name": "_to",
          "type": "address"
        },
        {
          "internalType": "uint256",
          "name": "_babl",
          "type": "uint256"
        }
      ],
      "name": "sendBABLToContributor",
      "outputs": [
        {
          "internalType": "uint256",
          "name": "",
          "type": "uint256"
        }
      ],
      "stateMutability": "nonpayable",
      "type": "function"
    },
    {
      "inputs": [
        {
          "internalType": "uint256[11]",
          "name": "_newMiningParams",
          "type": "uint256[11]"
        }
      ],
      "name": "setBABLMiningParameters",
      "outputs": [],
      "stateMutability": "nonpayable",
      "type": "function"
    },
    {
      "inputs": [
        {
          "internalType": "address",
          "name": "_garden",
          "type": "address"
        },
        {
          "internalType": "uint256",
          "name": "_strategistShare",
          "type": "uint256"
        },
        {
          "internalType": "uint256",
          "name": "_stewardsShare",
          "type": "uint256"
        },
        {
          "internalType": "uint256",
          "name": "_lpShare",
          "type": "uint256"
        }
      ],
      "name": "setProfitRewards",
      "outputs": [],
      "stateMutability": "nonpayable",
      "type": "function"
    },
    {
      "inputs": [
        {
          "internalType": "address",
          "name": "newOwner",
          "type": "address"
        }
      ],
      "name": "transferOwnership",
      "outputs": [],
      "stateMutability": "nonpayable",
      "type": "function"
    },
    {
      "inputs": [
        {
          "internalType": "address",
          "name": "_garden",
          "type": "address"
        },
        {
          "internalType": "address",
          "name": "_contributor",
          "type": "address"
        },
        {
          "internalType": "uint256",
          "name": "_previousBalance",
          "type": "uint256"
        },
        {
          "internalType": "uint256",
          "name": "_tokenDiff",
          "type": "uint256"
        },
        {
          "internalType": "bool",
          "name": "_addOrSubstract",
          "type": "bool"
        }
      ],
      "name": "updateGardenPowerAndContributor",
      "outputs": [],
      "stateMutability": "nonpayable",
      "type": "function"
    },
    {
      "inputs": [
        {
          "internalType": "uint256",
          "name": "_capital",
          "type": "uint256"
        },
        {
          "internalType": "bool",
          "name": "_addOrSubstract",
          "type": "bool"
        }
      ],
      "name": "updateProtocolPrincipal",
      "outputs": [],
      "stateMutability": "nonpayable",
      "type": "function"
    }
  ],
  "transactionHash": "0x8b46bbfad010c2c0b238c5229fa623c4ede7c2da12ce516f7ed05ed1ff73e30b",
  "args": [],
  "numDeployments": 1,
  "solcInputHash": "1ea26179e27931212b12da3a10f4393c",
  "bytecode": "0x608060405234801561001057600080fd5b50615f5580620000216000396000f3fe608060405234801561001057600080fd5b50600436106101365760003560e01c80638ce90e82116100b2578063b7411b7911610081578063d717a50611610066578063d717a50614610585578063df8a4e45146105aa578063f2fde38b146105ee57610136565b8063b7411b791461051f578063b86263911461055757610136565b80638ce90e82146104555780638da5cb5b146104815780639de9a052146104a55780639f39d870146104cb57610136565b8063485cc95511610109578063715018a6116100ee578063715018a6146103dd5780637eea8bb7146103e557806380334dbe1461041d57610136565b8063485cc955146102d657806369795e931461030457610136565b8063070e8a4a1461013b5780632cdc9050146101995780633029e60d146101db5780633b8e398a14610231575b600080fd5b6101616004803603602081101561015157600080fd5b50356001600160a01b0316610614565b6040518082606080838360005b8381101561018657818101518382015260200161016e565b5050505090500191505060405180910390f35b6101c5600480360360408110156101af57600080fd5b50803590602001356001600160a01b03166106b0565b604051815181528082610220808383602061016e565b61022f60048036036101608110156101f257600080fd5b81019080806101600190600b806020026040519081016040528092919082600b602002808284376000920191909152509194506107949350505050565b005b61022f6004803603604081101561024757600080fd5b81019060208101813564010000000081111561026257600080fd5b82018360208201111561027457600080fd5b8035906020019184602083028401116401000000008311171561029657600080fd5b91908080602002602001604051908101604052809392919081815260200183836020028082843760009201919091525092955050505035151590506108c5565b61022f600480360360408110156102ec57600080fd5b506001600160a01b038135811691602001351661095f565b61038d6004803603606081101561031a57600080fd5b6001600160a01b03823581169260208101359091169181019060608101604082013564010000000081111561034e57600080fd5b82018360208201111561036057600080fd5b8035906020019184602083028401116401000000008311171561038257600080fd5b509092509050610b57565b60408051602080825283518183015283519192839290830191858101910280838360005b838110156103c95781810151838201526020016103b1565b505050509050019250505060405180910390f35b61022f610fcd565b61040b600480360360208110156103fb57600080fd5b50356001600160a01b0316611098565b60408051918252519081900360200190f35b61022f6004803603608081101561043357600080fd5b506001600160a01b038135169060208101359060408101359060600135611138565b61040b6004803603604081101561046b57600080fd5b506001600160a01b03813516906020013561115b565b610489611192565b604080516001600160a01b039092168252519081900360200190f35b61040b600480360360208110156104bb57600080fd5b50356001600160a01b03166111a1565b610501600480360360608110156104e157600080fd5b506001600160a01b038135811691602081013590911690604001356115e7565b60408051938452602084019290925282820152519081900360600190f35b61040b6004803603606081101561053557600080fd5b506001600160a01b038135811691602081013582169160409091013516611992565b61038d6004803603604081101561056d57600080fd5b506001600160a01b0381358116916020013516611b40565b61022f6004803603604081101561059b57600080fd5b50803590602001351515611c8c565b61022f600480360360a08110156105c057600080fd5b506001600160a01b038135811691602081013590911690604081013590606081013590608001351515611ca4565b61022f6004803603602081101561060457600080fd5b50356001600160a01b0316611cfe565b61061c615e64565b6001600160a01b03821660009081526080602052604090205460ff1615610687576001600160a01b0382166000908152607f602052604090819020815160608101928390529160039082845b81548152602001906001019080831161066857505050505090506106ab565b60405180606001604052806069548152602001606a548152602001606b5481525090505b919050565b6106b8615e82565b6065548152608154602080830191909152607054604080840191909152607354606084015260008581526074835281812060029081015460808601526001600160a01b038616808352608285528383205460a0870152808352607d8552838320805460c08801526001015460e08701528252607c845282822087835290935220015461010082015261074983611e20565b610120820152608554610140820152608654610160820152608954610180820152608a546101a0820152608b546101c0820152608c546101e0820152608d5461020082015292915050565b61079c611e8a565b6040810151602082015161086c916107c7916107c1908560005b602002015190611fca565b90611fca565b670de0b6b3a76400001480156107e957506060820151670de0b6b3a764000010155b801561080c575060a0820151610801908360046107b6565b670de0b6b3a7640000145b8015610820575060e082015160c083015111155b8015610836575061012082015161010083015111155b801561084c575061014082015161012083015111155b80156108655750610140820151670de0b6b3a764000011155b6065611fda565b8051606655602081015160675560408101516068556060810151606d55608081015160855560a081015160865560c081015160895560e0810151608a55610100810151608b55610120810151608c556101400151608d55565b6108cd611e8a565b60005b825181101561095a5781608360008584815181106108ea57fe5b60200260200101516001600160a01b03166001600160a01b03168152602001908152602001600020600085848151811061092057fe5b6020908102919091018101516001600160a01b03168252810191909152604001600020805460ff19169115159190911790556001016108d0565b505050565b600054610100900460ff16806109785750610978611fe8565b80610986575060005460ff16155b6109c15760405162461bcd60e51b815260040180806020018281038252602e815260200180615ec8602e913960400191505060405180910390fd5b600054610100900460ff161580156109ec576000805460ff1961ff0019909116610100171660011790555b6109f4611ff9565b610a1e6001600160a01b03841615801590610a1757506001600160a01b03831615155b6017611fda565b606f80546001600160a01b0380861673ffffffffffffffffffffffffffffffffffffffff1992831617909255606e805485841692169190911790819055604080517f568c08130000000000000000000000000000000000000000000000000000000081529051919092169163568c0813916004808301926020929190829003018186803b158015610aae57600080fd5b505afa158015610ac2573d6000803e3d6000fd5b505050506040513d6020811015610ad857600080fd5b5051606c5567016345785d8a0000606981905566b1a2bc2ec50000606a55670b1a2bc2ec500000606b81905560668290556067829055606855606d55670905438e600100006085556704db7325476300006086556001607e5542606555670de0b6b3a7640000608d55801561095a576000805461ff0019169055505050565b6060610b62856120ab565b604080516008808252610120820190925260009160208201610100803683375050606e54604080517ff58d1c9400000000000000000000000000000000000000000000000000000000815290519394506001600160a01b039091169263f58d1c9492506004808301926020929190829003018186803b158015610be457600080fd5b505afa158015610bf8573d6000803e3d6000fd5b505050506040513d6020811015610c0e57600080fd5b5051604080517f65f7f64800000000000000000000000000000000000000000000000000000000815290516001600160a01b03909216916365f7f64891600480820192602092909190829003018186803b158015610c6b57600080fd5b505afa158015610c7f573d6000803e3d6000fd5b505050506040513d6020811015610c9557600080fd5b50516001600160a01b0387811691161415610cb1579050610fc5565b6000866001600160a01b0316633d8270f5876040518263ffffffff1660e01b815260040180826001600160a01b031681526020019150506101206040518083038186803b158015610d0157600080fd5b505afa158015610d15573d6000803e3d6000fd5b505050506040513d610120811015610d2c57600080fd5b5060400151905060005b84811015610fbf57610d6388878784818110610d4e57fe5b905060200201356001600160a01b0316612149565b60408051600880825261012082019092526000916020820161010080368337019050509050610daf89888885818110610d9857fe5b905060200201356001600160a01b03168a866121cc565b9050610dec81600081518110610dc157fe5b602002602001015185600081518110610dd657fe5b6020026020010151611fca90919063ffffffff16565b84600081518110610df957fe5b602002602001018181525050610e2a81600181518110610e1557fe5b602002602001015185600181518110610dd657fe5b84600181518110610e3757fe5b602002602001018181525050610e6881600281518110610e5357fe5b602002602001015185600281518110610dd657fe5b84600281518110610e7557fe5b602002602001018181525050610ea681600381518110610e9157fe5b602002602001015185600381518110610dd657fe5b84600381518110610eb357fe5b602002602001018181525050610ee481600481518110610ecf57fe5b602002602001015185600481518110610dd657fe5b84600481518110610ef157fe5b602002602001018181525050610f2281600581518110610f0d57fe5b602002602001015185600581518110610dd657fe5b84600581518110610f2f57fe5b602002602001018181525050610f6081600681518110610f4b57fe5b602002602001015185600681518110610dd657fe5b84600681518110610f6d57fe5b602002602001018181525050610f9e81600781518110610f8957fe5b602002602001015185600781518110610dd657fe5b84600781518110610fab57fe5b602090810291909101015250600101610d36565b50909150505b949350505050565b610fd56123ea565b6001600160a01b0316610fe6611192565b6001600160a01b031614611041576040805162461bcd60e51b815260206004820181905260248201527f4f776e61626c653a2063616c6c6572206973206e6f7420746865206f776e6572604482015290519081900360640190fd5b6033546040516000916001600160a01b0316907f8be0079c531659141344cd1fd0a4f28419497f9722a3daafe3b4186f6b6457e0908390a36033805473ffffffffffffffffffffffffffffffffffffffff19169055565b6000816001600160a01b031663e4df5e1a6040518163ffffffff1660e01b815260040160206040518083038186803b1580156110d357600080fd5b505afa1580156110e7573d6000803e3d6000fd5b505050506040513d60208110156110fd57600080fd5b50511561113057600061110f836123ee565b509150508060098151811061112057fe5b60200260200101519150506106ab565b5060006106ab565b611140611e8a565b611149846120ab565b61115584848484612a8e565b50505050565b600061116e6002607e5414156054611fda565b6002607e5561117c336120ab565b6111868383612b14565b6001607e559392505050565b6033546001600160a01b031690565b604080516003808252608082019092526000918391839160208201606080368337019050509050816001600160a01b031663bf1dcfe26040518163ffffffff1660e01b815260040160e06040518083038186803b15801561120157600080fd5b505afa158015611215573d6000803e3d6000fd5b505050506040513d60e081101561122b57600080fd5b50608081015160a082015160c0909201518351919291849060009061124c57fe5b602002602001018460018151811061126057fe5b602002602001018560028151811061127457fe5b602002602001018381525083815250838152505050506112ad8160018151811061129a57fe5b6020026020010151600014156031611fda565b606554816001815181106112bd57fe5b6020026020010151106115dc576000826001600160a01b0316636db40dc26040518163ffffffff1660e01b815260040160206040518083038186803b15801561130557600080fd5b505afa158015611319573d6000803e3d6000fd5b505050506040513d602081101561132f57600080fd5b5051905080156113435792506106ab915050565b604080516002808252606082018352600092602083019080368337019050509050836001600160a01b031663ffb5cd096040518163ffffffff1660e01b81526004016101c06040518083038186803b15801561139e57600080fd5b505afa1580156113b2573d6000803e3d6000fd5b505050506040513d6101c08110156113c957600080fd5b5060c081015160e090910151825183906000906113e257fe5b60200260200101836001815181106113f657fe5b602002602001018281525082815250505060008061143c8560008151811061141a57fe5b60200260200101518660018151811061142f57fe5b6020026020010151612bc2565b9092509050670de0b6b3a764000060005b8381101561158557600061147a6114716276a70061146b8786611fca565b90612cc1565b60655490611fca565b6001600160a01b038c166000908152607c6020526040812091925090816114a18786611fca565b81526020019081526020016000206002015490506000607460006114ce8689611fca90919063ffffffff16565b81526020019081526020016000206002015490506114f0818311156047611fda565b866114fc856001611fca565b141561153c5761153961151c611515856276a700612ce5565b8590612ce5565b61153361152c866276a700612ce5565b4290612ce5565b90612cf5565b94505b6000611567866115616115576115528b8a611fca565b611e20565b6115618787612cf5565b90612d0d565b90506115738a82611fca565b9950506001909301925061144d915050565b506115ce8460018151811061159657fe5b6020026020010151856000815181106115ab57fe5b602002602001015187896000815181106115c157fe5b6020026020010151612d25565b9750505050505050506106ab565b6000925050506106ab565b600080806115f6846001612ce5565b6001600160a01b038088166000818152608860209081526040808320948b1680845294825280832054848452607783528184208685528352818420600181015483516370a0823160e01b815260048101989098529251979b50909690959194926370a082319260248082019391829003018186803b15801561167757600080fd5b505afa15801561168b573d6000803e3d6000fd5b505050506040513d60208110156116a157600080fd5b50519050831580156116b1575081155b156116ca57600080600096509650965050505050611989565b831580156116d85750600082115b156116ee57909550935060009250611989915050565b6001600160a01b03808b166000908152608760209081526040808320938d168352928152828220600019880183529052205488106117b4576001600160a01b038a81166000908152608760209081526040808320938d168352928152828220600019880183529052208054600190910154821061179f576001600160a01b03808c166000908152608760209081526040808320938e16835292815282822060001989018352905220600101546117a1565b815b6001860396509650965050505050611989565b6001600160a01b03808b166000908152608760209081526040808320938d16835292815282822082805290522054881080156117ee575081155b1561180757600080600096509650965050505050611989565b6001600160a01b03808b166000908152608760209081526040808320938d16835292815282822082805290522054881080156118435750600082115b1561188c57506001600160a01b03808a166000908152608760209081526040808320938c1683529281528282208280529052908120600301549196509094509250611989915050565b600060001985015b81811115611947576001600160a01b03808d166000908152608760209081526040808320938f168352928152828220600286860381900486038085529183529284902084516080810186528154808252600183015494820194909452938101549484019490945260039093015460608301528c1415611928578051602090910151909a509850965061198995505050505050565b80518c111561193957819350611940565b6001820392505b5050611894565b506001600160a01b038b81166000908152608760209081526040808320938e168352928152828220848352905220805460019091015490985096509450505050505b93509350939050565b600080826001600160a01b0316632aba2af46040518163ffffffff1660e01b815260040160006040518083038186803b1580156119ce57600080fd5b505afa1580156119e2573d6000803e3d6000fd5b505050506040513d6000823e601f3d908101601f191682016040526060811015611a0b57600080fd5b815160208301805160405192949293830192919084640100000000821115611a3257600080fd5b908301906020820185811115611a4757600080fd5b8251866020820283011164010000000082111715611a6457600080fd5b82525081516020918201928201910280838360005b83811015611a91578181015183820152602001611a79565b5050505090500160405260200180516040519392919084640100000000821115611aba57600080fd5b908301906020820185811115611acf57600080fd5b8251866020820283011164010000000082111715611aec57600080fd5b82525081516020918201928201910280838360005b83811015611b19578181015183820152602001611b01565b5050505090500160405250505050915050611b35858583612e36565b9150505b9392505050565b6040805160088082526101208201909252606091600091906020820161010080368337019050509050836001600160a01b031663e4df5e1a6040518163ffffffff1660e01b815260040160206040518083038186803b158015611ba257600080fd5b505afa158015611bb6573d6000803e3d6000fd5b505050506040513d6020811015611bcc57600080fd5b505115611c83576000846001600160a01b03166356ba88b86040518163ffffffff1660e01b815260040160206040518083038186803b158015611c0e57600080fd5b505afa158015611c22573d6000803e3d6000fd5b505050506040513d6020811015611c3857600080fd5b5051905060008080611c49886123ee565b9250925092506000611c5c858985612e36565b9050611c6d858a868b858888613167565b9550611c7b8589888661344f565b955050505050505b90505b92915050565b611c9533613708565b611ca0338383613784565b5050565b611cb56002607e5414156054611fda565b6002607e55611cc3336120ab565b600081611cd957611cd48484612ce5565b611ce3565b611ce38484611fca565b9050611cf186868387613930565b50506001607e5550505050565b611d066123ea565b6001600160a01b0316611d17611192565b6001600160a01b031614611d72576040805162461bcd60e51b815260206004820181905260248201527f4f776e61626c653a2063616c6c6572206973206e6f7420746865206f776e6572604482015290519081900360640190fd5b6001600160a01b038116611db75760405162461bcd60e51b8152600401808060200182810382526026815260200180615ea26026913960400191505060405180910390fd5b6033546040516001600160a01b038084169216907f8be0079c531659141344cd1fd0a4f28419497f9722a3daafe3b4186f6b6457e090600090a36033805473ffffffffffffffffffffffffffffffffffffffff19166001600160a01b0392909216919091179055565b6000611e316001831015604a611fda565b6102018210611e42575060006106ab565b6000611e6c611e52846001612ce5565b611e666701aa535d3d0c00006107c1613adf565b90613aeb565b9050611e82690b581ceb141f05c1ae0082612cf5565b9150506106ab565b606e54604080517f8da5cb5b0000000000000000000000000000000000000000000000000000000081529051611fc8926001600160a01b031691638da5cb5b916004808301926020929190829003018186803b158015611ee957600080fd5b505afa158015611efd573d6000803e3d6000fd5b505050506040513d6020811015611f1357600080fd5b50516001600160a01b0316331480611fac5750606e60009054906101000a90046001600160a01b03166001600160a01b0316638d97e0436040518163ffffffff1660e01b815260040160206040518083038186803b158015611f7457600080fd5b505afa158015611f88573d6000803e3d6000fd5b505050506040513d6020811015611f9e57600080fd5b50516001600160a01b031633145b80611fc15750606e546001600160a01b031633145b606b611fda565b565b80820182811015611c8657600080fd5b81611ca057611ca081613b2c565b6000611ff330613b7f565b15905090565b600054610100900460ff16806120125750612012611fe8565b80612020575060005460ff16155b61205b5760405162461bcd60e51b815260040180806020018281038252602e815260200180615ec8602e913960400191505060405180910390fd5b600054610100900460ff16158015612086576000805460ff1961ff0019909116610100171660011790555b61208e613b85565b612096613c25565b80156120a8576000805461ff00191690555b50565b606e54604080517f364d11810000000000000000000000000000000000000000000000000000000081526001600160a01b03848116600483015291516120a893929092169163364d118191602480820192602092909190829003018186803b15801561211657600080fd5b505afa15801561212a573d6000803e3d6000fd5b505050506040513d602081101561214057600080fd5b50516023611fda565b611ca0826001600160a01b03166306061dfa836040518263ffffffff1660e01b815260040180826001600160a01b0316815260200191505060206040518083038186803b15801561219957600080fd5b505afa1580156121ad573d6000803e3d6000fd5b505050506040513d60208110156121c357600080fd5b50516049611fda565b60408051600880825261012082019092526060916000919060208201610100803683370190505090506000806000876001600160a01b0316632aba2af46040518163ffffffff1660e01b815260040160006040518083038186803b15801561223357600080fd5b505afa158015612247573d6000803e3d6000fd5b505050506040513d6000823e601f3d908101601f19168201604052606081101561227057600080fd5b81516020830180516040519294929383019291908464010000000082111561229757600080fd5b9083019060208201858111156122ac57600080fd5b82518660208202830111640100000000821117156122c957600080fd5b82525081516020918201928201910280838360005b838110156122f65781810151838201526020016122de565b505050509050016040526020018051604051939291908464010000000082111561231f57600080fd5b90830190602082018581111561233457600080fd5b825186602082028301116401000000008211171561235157600080fd5b82525081516020918201928201910280838360005b8381101561237e578181015183820152602001612366565b50505050905001604052505050925092509250858260018151811061239f57fe5b602002602001015111156123dd5760006123ba8a8985612e36565b90506123cb8a8a868b858888613167565b94506123d98a89878661344f565b9450505b5091979650505050505050565b3390565b6000606080836001600160a01b0316632aba2af46040518163ffffffff1660e01b815260040160006040518083038186803b15801561242c57600080fd5b505afa158015612440573d6000803e3d6000fd5b505050506040513d6000823e601f3d908101601f19168201604052606081101561246957600080fd5b81516020830180516040519294929383019291908464010000000082111561249057600080fd5b9083019060208201858111156124a557600080fd5b82518660208202830111640100000000821117156124c257600080fd5b82525081516020918201928201910280838360005b838110156124ef5781810151838201526020016124d7565b505050509050016040526020018051604051939291908464010000000082111561251857600080fd5b90830190602082018581111561252d57600080fd5b825186602082028301116401000000008211171561254a57600080fd5b82525081516020918201928201910280838360005b8381101561257757818101518382015260200161255f565b505050509050016040525050508093508194508295505050508160098151811061259d57fe5b602002602001015160001415806125c85750816000815181106125bc57fe5b60200260200101516000145b156125d257612a87565b6000846001600160a01b0316630126c6066040518163ffffffff1660e01b815260040160206040518083038186803b15801561260d57600080fd5b505afa158015612621573d6000803e3d6000fd5b505050506040513d602081101561263757600080fd5b505183519091506126719061266a908590600e90811061265357fe5b602002602001015183612d0d90919063ffffffff16565b8290612ce5565b8360078151811061267e57fe5b6020026020010181815250508260068151811061269757fe5b6020026020010151836007815181106126ac57fe5b60200260200101511015826000815181106126c357fe5b602002602001019015159081151581525050826008815181106126e257fe5b6020026020010151836007815181106126f757fe5b602002602001015110158260018151811061270e57fe5b6020026020010190151590811515815250508160008151811061272d57fe5b602002602001015161274057600061277b565b61277b8360068151811061275057fe5b60200260200101518460078151811061276557fe5b6020026020010151612ce590919063ffffffff16565b83600a8151811061278857fe5b602002602001018181525050816001815181106127a157fe5b60200260200101516127d7576127d2836007815181106127bd57fe5b60200260200101518460088151811061276557fe5b6127e7565b6127e78360088151811061275057fe5b83600b815181106127f457fe5b60200260200101818152505060008061286b6065548660008151811061281657fe5b60200260200101511161284f576001600160a01b0388166000908152607c60209081526040808320600180855292529091200154612865565b8560008151811061285c57fe5b60200260200101515b42612bc2565b9150915060008267ffffffffffffffff8111801561288857600080fd5b506040519080825280602002602001820160405280156128b2578160200160208202803683370190505b50905060008367ffffffffffffffff811180156128ce57600080fd5b506040519080825280602002602001820160405280156128f8578160200160208202803683370190505b50905060005b848110156129c6576001600160a01b038a166000908152607c60205260408120906129298684611fca565b81526020019081526020016000206002015483828151811061294757fe5b6020908102919091010152607460006129608684611fca565b81526020019081526020016000206002015482828151811061297e57fe5b6020026020010181815250506129be82828151811061299957fe5b60200260200101518483815181106129ad57fe5b602002602001015111156047611fda565b6001016128fe565b50612a0d8285858a6002815181106129da57fe5b6020026020010151608260008f6001600160a01b03166001600160a01b0316815260200190815260200160002054613d2b565b9150612a20818585608154607054613d2b565b9050612a6887600781518110612a3257fe5b602002602001015188600681518110612a4757fe5b6020026020010151612a5b8585888a613ea5565b8a6000815181106115c157fe5b87600981518110612a7557fe5b60200260200101818152505050505050505b9193909250565b612ab0612a9f826107c18686611fca565b670d2f13f7789f000014605c611fda565b60695483141580612ac35750606a548214155b80612ad05750606b548114155b15611155576001600160a01b03939093166000908152608060209081526040808320805460ff19166001908117909155607f90925290912092835582015560020155565b6000612b1e613f9c565b606f54604080516370a0823160e01b815230600482015290516000926001600160a01b0316916370a08231916024808301926020929190829003018186803b158015612b6957600080fd5b505afa158015612b7d573d6000803e3d6000fd5b505050506040513d6020811015612b9357600080fd5b505190506000818411612ba65783612ba8565b815b606f54909150610fc5906001600160a01b03168683614035565b600080606554841015612bd55760655493505b6000612c00670de0b6b3a7640000612bfa6276a700612bf4888a612ce5565b906140b5565b9061413d565b90506000612c2c670de0b6b3a7640000612bfa6276a700612bf46065548b612ce590919063ffffffff16565b90506000612c58670de0b6b3a7640000612bfa6276a700612bf46065548b612ce590919063ffffffff16565b9050808214158015612c735750612c70826001611fca565b81145b8015612c8a57506276a700612c888789612ce5565b105b15612c9d57612c9a836001611fca565b92505b612ca8836001611fca565b612cb3836001611fca565b945094505050509250929050565b6000821580612cdc57505081810281838281612cd957fe5b04145b611c8657600080fd5b80820382811115611c8657600080fd5b6000611c8382612bfa85670de0b6b3a7640000612cc1565b6000611c83670de0b6b3a7640000612bfa8585612cc1565b600080612d328686612cf5565b90506000612d5c844211612d47576001612d51565b612d514286612ce5565b6301e1338090612cf5565b9050600080670de0b6b3a76400008410612d8f57612d88612d81846115618c8c612ce5565b8990611fca565b9150612dba565b612d9d836115618a8c612ce5565b9150878210612dad576000612db7565b612db78883612ce5565b91505b6000612dc6838a612cf5565b608954909150811015612de157608960025b01549150612dfa565b608a54811015612df45760896003612dd8565b608d5491505b612e28612e1a83611561886115616085548e612d0d90919063ffffffff16565b6086546107c1908b90612d0d565b9a9950505050505050505050565b600080600083600181518110612e4857fe5b602002602001015111612e5b5742612e71565b82600181518110612e6857fe5b60200260200101515b6001600160a01b0380871660009081526088602090815260408083209389168352928152828220546083825283832090915291812054929350909160ff16158015612efc5750811580612efc5750600082118015612efc57506001600160a01b038088166000908152608760209081526040808320938a168352928152828220828052905220548311155b8015612f2f57506001600160a01b038088166000908152607760209081526040808320938a168352929052206001015415155b6001600160a01b03881660009081526079602090815260408083208380529091528120600101548751929350909187908390612f6757fe5b6020026020010151109050818015612f7c5750805b8015612fa957506001600160a01b038816600090815260836020908152604080832090915290205460ff16155b15612fd957612fce88888689600d81518110612fc157fe5b60200260200101516141a4565b945050505050611b39565b6000806000612fe98b8b896115e7565b9250925092506402540be40082101561300c576000975050505050505050611b39565b60008960008151811061301b57fe5b602002602001015190506000808b60018151811061303557fe5b602002602001015111801561305e575060008b600d8151811061305457fe5b6020026020010151115b6130cc578c6001600160a01b03166318160ddd6040518163ffffffff1660e01b815260040160206040518083038186803b15801561309b57600080fd5b505afa1580156130af573d6000803e3d6000fd5b505050506040513d60208110156130c557600080fd5b50516130e2565b8a600d815181106130d957fe5b60200260200101515b90508185111561314c57871561311a5760006131018e8e85878e6143a3565b90508481116131105780613112565b845b94505061314c565b888510613128576000613149565b6131496131358a84612ce5565b612bfa6131428c89612ce5565b8790612cc1565b93505b6131568482612cf5565b9d9c50505050505050505050505050565b6040805160088082526101208201909252606091600091906020820161010080368337019050509050856001600160a01b0316876001600160a01b0316146131b05760006131ba565b6131ba84846145ee565b816000815181106131c757fe5b602002602001018181525050856001600160a01b0316876001600160a01b031614801561320c5750826000815181106131fc57fe5b6020026020010151151560011515145b613217576000613235565b6132358985600a8151811061322857fe5b6020026020010151614728565b8160018151811061324257fe5b60200260200101818152505061325a88878686614778565b8160028151811061326757fe5b6020026020010181815250508260008151811061328057fe5b60200260200101511515600115151461329a5760006132a7565b6132a78989888787614a8e565b816003815181106132b457fe5b6020026020010181815250506132de846009815181106132d057fe5b602002602001015186614c61565b816004815181106132eb57fe5b60200260200101818152505061333e89876133398460048151811061330c57fe5b60200260200101516107c18660028151811061332457fe5b602002602001015187600081518110610dd657fe5b614c7d565b8160058151811061334b57fe5b60200260200101818152505061337c8160038151811061336757fe5b602002602001015182600181518110610dd657fe5b8160068151811061338957fe5b6020026020010181815250506133d2816004815181106133a557fe5b60200260200101516107c1836002815181106133bd57fe5b602002602001015184600081518110610dd657fe5b816005815181106133df57fe5b6020026020010151116133f357600061342b565b61342b61341e8260048151811061340657fe5b60200260200101516107c184600281518110610dc157fe5b8260058151811061276557fe5b8160078151811061343857fe5b602090810291909101015298975050505050505050565b604080517f1bf987740000000000000000000000000000000000000000000000000000000081526001600160a01b0385811660048301528616602482015290516060916000917326231a65ef80706307bbe71f032dc1e5bf28ce4391631bf987749160448083019260e0929190829003018186803b1580156134d057600080fd5b505afa1580156134e4573d6000803e3d6000fd5b505050506040513d601f19601f8201168201806040525060e081101561350957600080fd5b509050600061354882600660200201518560008151811061352657fe5b60200260200101518660018151811061353b57fe5b6020026020010151614f1e565b82519091501580159061355b5750600081115b156136fd576135a961359c613579838560025b602002015190612d0d565b8760008151811061358657fe5b6020026020010151614fb490919063ffffffff16565b86600081518110610dd657fe5b856000815181106135b657fe5b60209081029190910101526135ed6135e06135d38385600361356e565b8760028151811061358657fe5b86600281518110610dd657fe5b856002815181106135fa57fe5b60209081029190910101526136316136246136178385600461356e565b8760048151811061358657fe5b86600481518110610dd657fe5b8560048151811061363e57fe5b602090810291909101015261367561366861365b8385600561356e565b8760078151811061358657fe5b86600781518110610dd657fe5b8560078151811061368257fe5b6020026020010181815250506136e38560078151811061369e57fe5b60200260200101516107c1876004815181106136b657fe5b60200260200101516107c1896002815181106136ce57fe5b60200260200101518a600081518110610dd657fe5b856005815181106136f057fe5b6020026020010181815250505b509295945050505050565b6000816001600160a01b03166356ba88b86040518163ffffffff1660e01b815260040160206040518083038186803b15801561374357600080fd5b505afa158015613757573d6000803e3d6000fd5b505050506040513d602081101561376d57600080fd5b5051905061377a816120ab565b611ca08183612149565b6000836001600160a01b03166356ba88b86040518163ffffffff1660e01b815260040160206040518083038186803b1580156137bf57600080fd5b505afa1580156137d3573d6000803e3d6000fd5b505050506040513d60208110156137e957600080fd5b5051604080517ff85cb5c800000000000000000000000000000000000000000000000000000000815290516001600160a01b039092169163f85cb5c891600480820192602092909190829003018186803b15801561384657600080fd5b505afa15801561385a573d6000803e3d6000fd5b505050506040513d602081101561387057600080fd5b50519050600061388282868686614fd0565b90506139076138fa836001600160a01b031663313ce5676040518163ffffffff1660e01b815260040160206040518083038186803b1580156138c357600080fd5b505afa1580156138d7573d6000803e3d6000fd5b505050506040513d60208110156138ed57600080fd5b505160129060ff16612ce5565b600a0a61146b8684612d0d565b93506139116151bc565b61391a8561564d565b613925858585615aa0565b505042608155505050565b6001600160a01b038085166000908152608860209081526040808320938716835292905220544290801580159061399757506001600160a01b0380871660009081526087602090815260408083209389168352928152828220600019850183529052205482145b156139d8576001600160a01b038087166000908152608760209081526040808320938916835292815282822060001985018352905220600101849055613ad7565b80613a46576040805160808101825283815260208082018781526000838501818152606085018981526001600160a01b03808e16845260878652878420908d168452855286832088845290945294902092518355516001830155915160028201559051600390910155613aab565b6040805160808101825283815260208082018781526000838501818152606085018281526001600160a01b03808e16845260878652878420908d1684528552868320888452909452949020925183555160018301559151600282015590516003909101555b6001600160a01b0380871660009081526088602090815260408083209389168352929052206001820190555b505050505050565b670de0b6b3a764000090565b600080613af6613adf565b90505b8215611c83576002830615613b1557613b128185614fb4565b90505b613b1f8480614fb4565b9350600283049250613af9565b62461bcd60e51b6000908152602060045260076024526642414223000030600a808404818106603090810160081b95839006959095019082900491820690940160101b939093010160c81b604452606490fd5b3b151590565b600054610100900460ff1680613b9e5750613b9e611fe8565b80613bac575060005460ff16155b613be75760405162461bcd60e51b815260040180806020018281038252602e815260200180615ec8602e913960400191505060405180910390fd5b600054610100900460ff16158015612096576000805460ff1961ff00199091166101001716600117905580156120a8576000805461ff001916905550565b600054610100900460ff1680613c3e5750613c3e611fe8565b80613c4c575060005460ff16155b613c875760405162461bcd60e51b815260040180806020018281038252602e815260200180615ec8602e913960400191505060405180910390fd5b600054610100900460ff16158015613cb2576000805460ff1961ff0019909116610100171660011790555b6000613cbc6123ea565b6033805473ffffffffffffffffffffffffffffffffffffffff19166001600160a01b038316908117909155604051919250906000907f8be0079c531659141344cd1fd0a4f28419497f9722a3daafe3b4186f6b6457e0908290a35080156120a8576000805461ff001916905550565b60606000613d3884615b8a565b90506000613d4542615b8a565b90506000613d534287612ce5565b90506000613d618683612cc1565b90508015613e945760005b89811015613e92576000613d8a6114716276a70061146b8d86611fca565b905081158015613d9957508986145b8015613da457508486105b15613de657613dc9613dbd85612bfa613142858e612ce5565b8d8481518110610dd657fe5b8c8381518110613dd557fe5b602002602001018181525050613e89565b600082118015613dff57508a613dfd836001611fca565b105b8015613e145750613e108a83611fca565b8611155b15613e2d57613dc9613dbd85612bfa866276a700612cc1565b84613e388b84611fca565b1415613e895784861415613e5657613dc9838d8481518110610dd657fe5b613e70613dbd85612bfa61314261152c866276a700612ce5565b8c8381518110613e7c57fe5b6020026020010181815250505b50600101613d6c565b505b899450505050505b95945050505050565b600080670de0b6b3a7640000815b84811015610fbf5784613ec7826001611fca565b1415613f13576000613ee36114716276a70061146b8a86611fca565b9050613f0f613eff613ef8836276a700612ce5565b8390612ce5565b61153361152c846276a700612ce5565b9250505b6000613f8583611561613f296115528b87611fca565b6115618c8781518110613f3857fe5b6020026020010151600014613f60578c8781518110613f5357fe5b6020026020010151613f63565b60015b8e8881518110613f6f57fe5b6020026020010151612cf590919063ffffffff16565b9050613f918482611fca565b935050600101613eb3565b606e54604080517f5b14f1830000000000000000000000000000000000000000000000000000000081523060048201529051611fc8926001600160a01b031691635b14f183916024808301926020929190829003018186803b15801561400157600080fd5b505afa158015614015573d6000803e3d6000fd5b505050506040513d602081101561402b57600080fd5b5051156053611fda565b604080516001600160a01b038416602482015260448082018490528251808303909101815260649091019091526020810180517bffffffffffffffffffffffffffffffffffffffffffffffffffffffff167fa9059cbb0000000000000000000000000000000000000000000000000000000017905261095a908490615bd3565b600081614109576040805162461bcd60e51b815260206004820152601060248201527f43616e7420646976696465206279203000000000000000000000000000000000604482015290519081900360640190fd5b60008311614118576000611c83565b611c8360016107c184612bfa8361413789670de0b6b3a7640000612cc1565b90612ce5565b6000808211614193576040805162461bcd60e51b815260206004820152601a60248201527f536166654d6174683a206469766973696f6e206279207a65726f000000000000604482015290519081900360640190fd5b81838161419c57fe5b049392505050565b6001600160a01b0380851660008181526077602090815260408083209488168352938152838220928252607981528382208280529052918220600182015415806141f15750848260010154115b1561420157600092505050610fc5565b6000614212888885600001546115e7565b50915050600080861161428957886001600160a01b03166318160ddd6040518163ffffffff1660e01b815260040160206040518083038186803b15801561425857600080fd5b505afa15801561426c573d6000803e3d6000fd5b505050506040513d602081101561428257600080fd5b505161428b565b855b905060006142c76142ad8461146b886000015442612ce590919063ffffffff16565b600080805260048801602052604090206003015490611fca565b905060006142f46142e98461146b886001015442612ce590919063ffffffff16565b600287015490611fca565b90506000614302428b612ce5565b6000808052600489016020526040812054919250906143219083612cc1565b87549091506000906143339084612cc1565b905081851161434357600061434d565b61434d8583612ce5565b945080841161435d576001614367565b6143678482612ce5565b935060006143758686612cf5565b9050670de0b6b3a76400008111156143925750670de0b6b3a76400005b9950610fc598505050505050505050565b60008060006143b38888886115e7565b9250925050838614156143c857509050613e9c565b6001600160a01b038089166000908152608760209081526040808320938b168352928152828220888352905290812054819061444090614409908890612ce5565b6001600160a01b03808d166000908152608760209081526040808320938f1683529281528282208c83529052206001015490612cc1565b9150865b83811115614573576001600160a01b03808c166000908152608760209081526040808320938e1683529290529081208161447f846001612ce5565b815260200190815260200160002060405180608001604052908160008201548152602001600182015481526020016002820154815260200160038201548152505090506145448a8260000151116144d6578a6144d9565b81515b608760008f6001600160a01b03166001600160a01b0316815260200190815260200160002060008e6001600160a01b03166001600160a01b03168152602001908152602001600020600085815260200190815260200160002060000154612ce590919063ffffffff16565b9250614567614560848360200151612cc190919063ffffffff16565b8590611fca565b93505060001901614444565b506001600160a01b03808b166000908152608760209081526040808320938d16835292815282822082805290522054831580156145af57508881115b156145ce576145cb6145c4613142838c612ce5565b8490611fca565b92505b6145e26145db888b612ce5565b849061413d565b95505050505050613e9c565b6000806146046066548560098151811061358657fe5b90508260008151811061461357fe5b602002602001015115156001151514801561464657508260018151811061463657fe5b6020026020010151151560011515145b1561469f576000614658826002612cc1565b90506146896146828660068151811061466d57fe5b602002602001015187600781518110613f6f57fe5b8390612d0d565b915080821115614697578091505b509050611c86565b826000815181106146ac57fe5b60200260200101511515600115151480156146dc5750826001815181106146cf57fe5b6020908102919091010151155b1561471e5761471661266a613ef861470f876008815181106146fa57fe5b602002602001015188600781518110613f6f57fe5b8490612d0d565b915050611c86565b6000915050611c86565b6001600160a01b038216600090815260806020526040812054819060ff166147525760695461476c565b6001600160a01b0384166000908152607f60205260409020545b9050610fc58382614fb4565b600080856001600160a01b031663950c7822866040518263ffffffff1660e01b815260040180826001600160a01b0316815260200191505060206040518083038186803b1580156147c857600080fd5b505afa1580156147dc573d6000803e3d6000fd5b505050506040513d60208110156147f257600080fd5b50518451909150600090614822908690600590811061480d57fe5b602002602001015186600481518110610dd657fe5b905060008060008413801561484f57508560008151811061483f57fe5b6020026020010151151560011515145b801561487357508560018151811061486357fe5b6020026020010151151560011515145b156148bc576148b56148a28860048151811061488b57fe5b602002602001015186612cf590919063ffffffff16565b6115616067548a60098151811061358657fe5b9050614a82565b6000841380156148e45750856000815181106148d457fe5b6020026020010151151560011515145b80156149055750856001815181106148f857fe5b6020908102919091010151155b15614944576149176148a28585612cf5565b90506148b561266a6146828960088151811061492f57fe5b60200260200101518a600b81518110613f6f57fe5b60008413801561496957508560008151811061495c57fe5b6020908102919091010151155b1561497657506000614a82565b60008412801561499b57508560018151811061498e57fe5b6020908102919091010151155b15614a51576000866000815181106149af57fe5b60200260200101516149d557876005815181106149c857fe5b60200260200101516149d7565b835b90506149fc6149e98261153388615c84565b6115616067548b60098151811061358657fe5b9150614a09826002612cc1565b9250614a3d614a3661470f8a600881518110614a2157fe5b60200260200101518b600b81518110613f6f57fe5b8390611fca565b915082821115614a4b578291505b50614a82565b600084128015614a79575085600181518110614a6957fe5b6020026020010151151560011515145b15614a82575060005b98975050505050505050565b600080856001600160a01b031663950c7822866040518263ffffffff1660e01b815260040180826001600160a01b0316815260200191505060206040518083038186803b158015614ade57600080fd5b505afa158015614af2573d6000803e3d6000fd5b505050506040513d6020811015614b0857600080fd5b50518451909150600090614b23908690600590811061480d57fe5b6001600160a01b0389166000908152608060205260408120549192509060ff16614b4f57606a54614b6c565b6001600160a01b0389166000908152607f60205260409020600101545b90506000831315614bd157600085600181518110614b8657fe5b6020026020010151614b985782614bae565b86600481518110614ba557fe5b60200260200101515b9050614bc98161153386611561868c600a8151811061358657fe5b945050614c55565b600083128015614bf6575084600181518110614be957fe5b6020908102919091010151155b15614c2357614c1c82611533614c0b86615c84565b611561858b600a8151811061358657fe5b9350614c55565b600083128015614c4b575084600181518110614c3b57fe5b6020026020010151151560011515145b15614c5557600093505b50505095945050505050565b600080610fc58361156160685487614fb490919063ffffffff16565b6000808490506000846001600160a01b0316826001600160a01b03166302d05d3f6040518163ffffffff1660e01b815260040160206040518083038186803b158015614cc857600080fd5b505afa158015614cdc573d6000803e3d6000fd5b505050506040513d6020811015614cf257600080fd5b5051604080517f02d05d3f00000000000000000000000000000000000000000000000000000000815290516001600160a01b0392831693909314935060009283928616916302d05d3f916004808301926020929190829003018186803b158015614d5b57600080fd5b505afa158015614d6f573d6000803e3d6000fd5b505050506040513d6020811015614d8557600080fd5b50516001600160a01b03161415614d9d576000614da0565b60015b905060005b60048160ff161015614e66576000846001600160a01b03166363f568b9836040518263ffffffff1660e01b8152600401808260ff16815260200191505060206040518083038186803b158015614dfa57600080fd5b505afa158015614e0e573d6000803e3d6000fd5b505050506040513d6020811015614e2457600080fd5b505190506001600160a01b03811615614e5d576001909201918380614e5a5750876001600160a01b0316816001600160a01b0316145b93505b50600101614da5565b5060ff8116614ef957614eef614ee8886001600160a01b031663f251fc8c6040518163ffffffff1660e01b815260040160206040518083038186803b158015614eae57600080fd5b505afa158015614ec2573d6000803e3d6000fd5b505050506040513d6020811015614ed857600080fd5b5051606d54612bfa908990614fb4565b8690611fca565b9350505050611b39565b81156136fd57614eef614ee88260ff16612bfa606d5489614fb490919063ffffffff16565b600083614f2d57506000611b39565b828411158015614f3d5750600083115b15614f515750670de0b6b3a7640000611b39565b8184108015614f605750600082115b15614f8357614f7c614f728385612ce5565b6115338487612ce5565b9050611b39565b4284108015614f90575081155b15614fac57614f7c614fa24285612ce5565b6115334287612ce5565b506000611b39565b6000670de0b6b3a7640000614fc98484612cc1565b8161419c57fe5b600080606e60009054906101000a90046001600160a01b03166001600160a01b0316632630c12f6040518163ffffffff1660e01b815260040160206040518083038186803b15801561502157600080fd5b505afa158015615035573d6000803e3d6000fd5b505050506040513d602081101561504b57600080fd5b5051604080517fac41865a0000000000000000000000000000000000000000000000000000000081526001600160a01b038981166004830152736b175474e89094c44da98b954eedeac495271d0f602483015291519293506000929184169163ac41865a91604480820192602092909190829003018186803b1580156150d057600080fd5b505afa1580156150e4573d6000803e3d6000fd5b505050506040513d60208110156150fa57600080fd5b50516001600160a01b0387166000908152607d60205260409020805491925090615130578581556001018190559150610fc59050565b841561518757805461516f906151469088611fca565b611533670de0b6b3a7640000612bfa61515f8b88612cc1565b865460018801546107c191612cc1565b600182015580546151809087611fca565b81556151ae565b80546000908711615198578661519b565b81545b82549091506151aa9082612ce5565b8255505b600101549250610fc5915050565b60408051600480825260a0820190925260009160208201608080368337505060815491925050156151f7576151f2608154615b8a565b6151fa565b60015b8160008151811061520757fe5b60200260200101818152505061521c42615b8a565b8160018151811061522957fe5b6020908102919091010152608154615242904290612ce5565b8160028151811061524f57fe5b6020026020010181815250506000607460008360018151811061526e57fe5b6020026020010151815260200190815260200160002090506081546000146152be576152b9826002815181106152a057fe5b6020026020010151607054612cc190919063ffffffff16565b6152c1565b60005b826003815181106152ce57fe5b60200260200101818152505060756000836001815181106152eb57fe5b60209081029190910181015182528101919091526040016000205460ff166155ea57608154156155a55761532760018360018151811061276557fe5b8260008151811061533457fe5b60200260200101511415615424576153a18260028151811061535257fe5b6020026020010151612bfa61539461152c6114716276a7006141376276a7008a60018151811061537e57fe5b6020026020010151612cc190919063ffffffff16565b8560038151811061537e57fe5b6002820181905582516153f5916153bf918590600390811061276557fe5b607460006153d560018760018151811061276557fe5b815260200190815260200160002060020154611fca90919063ffffffff16565b6074600061540b60018660018151811061276557fe5b81526020810191909152604001600020600201556155a5565b60005b61544c8360008151811061543757fe5b60200260200101518460018151811061276557fe5b81116155a3576000607460006154698487600081518110610dd657fe5b8152602001908152602001600020905060006154966114716276a70061146b8689600081518110610dd657fe5b9050826154f2576154e86154dd866002815181106154b057fe5b6020026020010151612bfa6154d060815486612ce590919063ffffffff16565b8960038151811061537e57fe5b600284015490611fca565b6002830155615599565b6155178560008151811061550257fe5b60200260200101518660018151811061276557fe5b83101561554a576154e88560028151811061552e57fe5b6020026020010151612bfa6276a7008860038151811061537e57fe5b6155938560028151811061555a57fe5b6020026020010151612bfa61558661152c6114716276a7006141376276a7008d60018151811061537e57fe5b8860038151811061537e57fe5b60028501555b5050600101615427565b505b600160756000846001815181106155b857fe5b6020026020010151815260200190815260200160002060006101000a81548160ff021916908315150217905550611ca0565b615615826003815181106155fa57fe5b60200260200101518260020154611fca90919063ffffffff16565b81600201819055506156468260038151811061562d57fe5b6020026020010151607354611fca90919063ffffffff16565b6073555050565b60408051600580825260c082019092526000916020820160a080368337019050509050816001600160a01b031663bf1dcfe26040518163ffffffff1660e01b815260040160e06040518083038186803b1580156156a957600080fd5b505afa1580156156bd573d6000803e3d6000fd5b505050506040513d60e08110156156d357600080fd5b50608081015160c090910151825183906000906156ec57fe5b602002602001018360018151811061570057fe5b60200260200101828152508281525050506065548160018151811061572157fe5b60200260200101511015615783576001600160a01b0382166000908152607c602090815260408083206001808552925290912090810154615763574260018201555b80600101548260018151811061577557fe5b602002602001018181525050505b6157aa8160018151811061579357fe5b602002602001015142612ce590919063ffffffff16565b816002815181106157b757fe5b6020026020010181815250506157cc42615b8a565b816003815181106157d957fe5b6020026020010181815250506000607c6000846001600160a01b03166001600160a01b0316815260200190815260200160002060008360038151811061581b57fe5b60200260200101518152602001908152602001600020905061587f8260028151811061584357fe5b602002602001015160826000866001600160a01b03166001600160a01b0316815260200190815260200160002054612cc190919063ffffffff16565b8260048151811061588c57fe5b6020908102919091010152600381015460ff16615a86576158c0826000815181106158b357fe5b6020026020010151615b8a565b826003815181106158cd57fe5b60200260200101511115615a72576000806158ee8460018151811061285c57fe5b9150915060005b82811015615a6e576001600160a01b0386166000908152607c60205260408120816159208585611fca565b81526020019081526020016000209050600061594f6114716276a70061146b8688611fca90919063ffffffff16565b9050826159b2576159a86154dd8860028151811061596957fe5b6020026020010151612bfa61599b8b60018151811061598457fe5b602002602001015186612ce590919063ffffffff16565b8b60048151811061537e57fe5b6002830155615a64565b6000831180156159cb5750846159c9846001611fca565b105b15615a15576159fc876002815181106159e057fe5b6020026020010151612bfa6276a7008a60048151811061537e57fe5b600283015560038201805460ff19166001179055615a64565b615a5e87600281518110615a2557fe5b6020026020010151612bfa615a5161152c6114716276a7006141376276a7008f60038151811061537e57fe5b8a60048151811061537e57fe5b60028301555b50506001016158f5565b5050505b60038101805460ff1916600117905561095a565b615a96826004815181106155fa57fe5b6002820155505050565b80615b39576001600160a01b0383166000908152608260205260408120548311615aca5782615ae4565b6001600160a01b0384166000908152608260205260409020545b607054909150615af49082612ce5565b6070556001600160a01b038416600090815260826020526040902054615b1a9082612ce5565b6001600160a01b0385166000908152608260205260409020555061095a565b607054615b469083611fca565b6070556001600160a01b038316600090815260826020526040902054615b6c9083611fca565b6001600160a01b038416600090815260826020526040902055505050565b600080606554831015615b9e576000615bc6565b615bc6670de0b6b3a7640000612bfa6276a700612bf460655488612ce590919063ffffffff16565b9050611b39816001611fca565b6000615c28826040518060400160405280602081526020017f5361666545524332303a206c6f772d6c6576656c2063616c6c206661696c6564815250856001600160a01b0316615c9b9092919063ffffffff16565b80519091501561095a57808060200190516020811015615c4757600080fd5b505161095a5760405162461bcd60e51b815260040180806020018281038252602a815260200180615ef6602a913960400191505060405180910390fd5b600080821215615c975781600003611c86565b5090565b6060610fc5848460008585615caf85613b7f565b615d00576040805162461bcd60e51b815260206004820152601d60248201527f416464726573733a2063616c6c20746f206e6f6e2d636f6e7472616374000000604482015290519081900360640190fd5b600080866001600160a01b031685876040518082805190602001908083835b60208310615d3e5780518252601f199092019160209182019101615d1f565b6001836020036101000a03801982511681845116808217855250505050505090500191505060006040518083038185875af1925050503d8060008114615da0576040519150601f19603f3d011682016040523d82523d6000602084013e615da5565b606091505b5091509150615db5828286615dc0565b979650505050505050565b60608315615dcf575081611b39565b825115615ddf5782518084602001fd5b8160405162461bcd60e51b81526004018080602001828103825283818151815260200191508051906020019080838360005b83811015615e29578181015183820152602001615e11565b50505050905090810190601f168015615e565780820380516001836020036101000a031916815260200191505b509250505060405180910390fd5b60405180606001604052806003906020820280368337509192915050565b604051806102200160405280601190602082028036833750919291505056fe4f776e61626c653a206e6577206f776e657220697320746865207a65726f2061646472657373496e697469616c697a61626c653a20636f6e747261637420697320616c726561647920696e697469616c697a65645361666545524332303a204552433230206f7065726174696f6e20646964206e6f742073756363656564a2646970667358221220df0846c7200ff91e602e90dfbc0c8263680738bab6dec3cb52255d48daf9da3d64736f6c63430007060033",
  "devdoc": {
    "kind": "dev",
    "methods": {
      "checkMining(uint256,address)": {
        "params": {
          "_quarterNum": "Number of quarter",
          "_strategy": "Address of strategy"
        }
      },
      "estimateStrategyRewards(address)": {
        "params": {
          "_strategy": "Address of the strategy to estimate BABL rewards"
        },
        "returns": {
          "_0": "the estimated BABL rewards"
        }
      },
      "estimateUserRewards(address,address)": {
        "params": {
          "_contributor": "Address of the garden contributor",
          "_strategy": "Address of the strategy to estimate BABL rewards"
        },
        "returns": {
          "_0": "Array of size 8 with the following distribution: rewards[0]: Strategist BABL rewards[1]: Strategist Profit rewards[2]: Steward BABL rewards[3]: Steward Profit rewards[4]: LP BABL rewards[5]: total BABL rewards[6]: total Profits rewards[7]: Creator bonus"
        }
      },
      "getGardenProfitsSharing(address)": {
        "params": {
          "_garden": "Address of the garden"
        }
      },
      "getPriorBalance(address,address,uint256)": {
        "params": {
          "_address": "Address to get prior balance for",
          "_blockTime": "Block timestamp to get token power at",
          "_garden": "Address of the garden"
        },
        "returns": {
          "_0": "Token power for an account at specific block"
        }
      },
      "getRewards(address,address,address[])": {
        "params": {
          "_contributor": "Address of the contributor to check",
          "_finalizedStrategies": "List of addresses of the finalized strategies to check",
          "_garden": "Garden to which the strategies and the user must belong to"
        },
        "returns": {
          "_0": "Array of size 7 with the following distribution: rewards[0]: Strategist BABL rewards[1]: Strategist Profit rewards[2]: Steward BABL rewards[3]: Steward Profit rewards[4]: LP BABL rewards[5]: total BABL rewards[6]: total Profits rewards[7]: Creator bonus"
        }
      },
      "getSafeUserSharePerStrategy(address,address,address)": {
        "params": {
          "_contributor": "Address of the garden contributor",
          "_garden": "Address of the garden",
          "_strategy": "Address of the strategy"
        },
        "returns": {
          "_0": "% deserved share per user"
        }
      },
      "getStrategyRewards(address)": {
        "params": {
          "_strategy": "Strategy to check"
        }
      },
      "migrateAddressToCheckpoints(address[],bool)": {
        "params": {
          "_address": "Array of Address to migrate (garden or user)",
          "_toMigrate": "Bool to migrate (true) or redo (false)"
        }
      },
      "owner()": {
        "details": "Returns the address of the current owner."
      },
      "renounceOwnership()": {
        "details": "Leaves the contract without owner. It will not be possible to call `onlyOwner` functions anymore. Can only be called by the current owner. NOTE: Renouncing ownership will leave the contract without an owner, thereby removing any functionality that is only available to the owner."
      },
      "setBABLMiningParameters(uint256[11])": {
        "params": {
          "_newMiningParams": "Array of new mining params to be set by government"
        }
      },
      "setProfitRewards(address,uint256,uint256,uint256)": {
        "params": {
          "_garden": "Address of the garden",
          "_lpShare": "New % of lpShare",
          "_stewardsShare": "New % of stewardsShare",
          "_strategistShare": "New % of strategistShare"
        }
      },
      "transferOwnership(address)": {
        "details": "Transfers ownership of the contract to a new account (`newOwner`). Can only be called by the current owner."
      },
      "updateGardenPowerAndContributor(address,address,uint256,uint256,bool)": {
        "params": {
          "_addOrSubstract": "Whether the contributor is adding (true) or withdrawing capital (false)",
          "_contributor": "Address of the contributor",
          "_garden": "Address of the garden",
          "_previousBalance": "Previous balance of the contributor",
          "_tokenDiff": "Amount difference in this deposit/withdraw"
        }
      },
      "updateProtocolPrincipal(uint256,bool)": {
        "params": {
          "_addOrSubstract": "Whether we are adding or substracting capital",
          "_capital": "Amount of capital in any type of asset to be normalized into DAI"
        }
      }
    },
    "version": 1
  },
  "userdoc": {
    "kind": "user",
    "methods": {
      "checkMining(uint256,address)": {
        "notice": "Check the mining program state for a specific quarter and strategy"
      },
      "estimateStrategyRewards(address)": {
        "notice": "Get an estimation of strategy BABL rewards for active strategies in the mining program"
      },
      "estimateUserRewards(address,address)": {
        "notice": "Get an estimation of user rewards for active strategies"
      },
      "getGardenProfitsSharing(address)": {
        "notice": "Check the garden profit sharing % if different from default"
      },
      "getPriorBalance(address,address,uint256)": {
        "notice": "Get token power at a specific block for an account"
      },
      "getRewards(address,address,address[])": {
        "notice": "Calculates the profits and BABL that a contributor should receive from a series of finalized strategies"
      },
      "getSafeUserSharePerStrategy(address,address,address)": {
        "notice": "Get a safe user share position within a strategy of a garden"
      },
      "getStrategyRewards(address)": {
        "notice": "Gets the baseline amount of BABL rewards for a given strategy"
      },
      "migrateAddressToCheckpoints(address[],bool)": {
        "notice": "PRIVILEGE FUNCTION Migrates by governance: (2 options) a) the whole garden or a user for all gardens into checkpoints deprecating c-power"
      },
      "sendBABLToContributor(address,uint256)": {
        "notice": "Sending BABL as part of the claim process (either by sig or standard claim) If it is the Heart Garden, the claim is done by the garden during each strategy finalization This is due to the Heart Garden is auto-compounding all rewards"
      },
      "setBABLMiningParameters(uint256[11])": {
        "notice": "PRIVILEGE FUNCTION Change default BABL shares % by the governance"
      },
      "setProfitRewards(address,uint256,uint256,uint256)": {
        "notice": "PRIVILEGE FUNCTION Set customized profit shares for a specific garden by the gardener"
      },
      "updateGardenPowerAndContributor(address,address,uint256,uint256,bool)": {
        "notice": "Function used by each garden to signal each deposit and withdrawal in checkpoints to be used for rewards"
      },
      "updateProtocolPrincipal(uint256,bool)": {
        "notice": "Function that adds/substract the capital received to the total principal of the protocol per timestamp"
      }
    },
    "version": 1
  },
  "storageLayout": {
    "storage": [
      {
        "astId": 492,
        "contract": "contracts/token/RewardsDistributor.sol:RewardsDistributorV16",
        "label": "_initialized",
        "offset": 0,
        "slot": "0",
        "type": "t_bool"
      },
      {
        "astId": 495,
        "contract": "contracts/token/RewardsDistributor.sol:RewardsDistributorV16",
        "label": "_initializing",
        "offset": 1,
        "slot": "0",
        "type": "t_bool"
      },
      {
        "astId": 1447,
        "contract": "contracts/token/RewardsDistributor.sol:RewardsDistributorV16",
        "label": "__gap",
        "offset": 0,
        "slot": "1",
        "type": "t_array(t_uint256)50_storage"
      },
      {
        "astId": 10,
        "contract": "contracts/token/RewardsDistributor.sol:RewardsDistributorV16",
        "label": "_owner",
        "offset": 0,
        "slot": "51",
        "type": "t_address"
      },
      {
        "astId": 129,
        "contract": "contracts/token/RewardsDistributor.sol:RewardsDistributorV16",
        "label": "__gap",
        "offset": 0,
        "slot": "52",
        "type": "t_array(t_uint256)49_storage"
      },
      {
        "astId": 61440,
        "contract": "contracts/token/RewardsDistributor.sol:RewardsDistributorV16",
        "label": "START_TIME",
        "offset": 0,
        "slot": "101",
        "type": "t_uint256"
      },
      {
        "astId": 61442,
        "contract": "contracts/token/RewardsDistributor.sol:RewardsDistributorV16",
        "label": "strategistBABLPercentage",
        "offset": 0,
        "slot": "102",
        "type": "t_uint256"
      },
      {
        "astId": 61444,
        "contract": "contracts/token/RewardsDistributor.sol:RewardsDistributorV16",
        "label": "stewardsBABLPercentage",
        "offset": 0,
        "slot": "103",
        "type": "t_uint256"
      },
      {
        "astId": 61446,
        "contract": "contracts/token/RewardsDistributor.sol:RewardsDistributorV16",
        "label": "lpsBABLPercentage",
        "offset": 0,
        "slot": "104",
        "type": "t_uint256"
      },
      {
        "astId": 61448,
        "contract": "contracts/token/RewardsDistributor.sol:RewardsDistributorV16",
        "label": "strategistProfitPercentage",
        "offset": 0,
        "slot": "105",
        "type": "t_uint256"
      },
      {
        "astId": 61450,
        "contract": "contracts/token/RewardsDistributor.sol:RewardsDistributorV16",
        "label": "stewardsProfitPercentage",
        "offset": 0,
        "slot": "106",
        "type": "t_uint256"
      },
      {
        "astId": 61452,
        "contract": "contracts/token/RewardsDistributor.sol:RewardsDistributorV16",
        "label": "lpsProfitPercentage",
        "offset": 0,
        "slot": "107",
        "type": "t_uint256"
      },
      {
        "astId": 61454,
        "contract": "contracts/token/RewardsDistributor.sol:RewardsDistributorV16",
        "label": "profitProtocolFee",
        "offset": 0,
        "slot": "108",
        "type": "t_uint256"
      },
      {
        "astId": 61456,
        "contract": "contracts/token/RewardsDistributor.sol:RewardsDistributorV16",
        "label": "gardenCreatorBonus",
        "offset": 0,
        "slot": "109",
        "type": "t_uint256"
      },
      {
        "astId": 61517,
        "contract": "contracts/token/RewardsDistributor.sol:RewardsDistributorV16",
        "label": "controller",
        "offset": 0,
        "slot": "110",
        "type": "t_contract(IBabController)42146"
      },
      {
        "astId": 61519,
        "contract": "contracts/token/RewardsDistributor.sol:RewardsDistributorV16",
        "label": "babltoken",
        "offset": 0,
        "slot": "111",
        "type": "t_contract(TimeLockedToken)68537"
      },
      {
        "astId": 61521,
        "contract": "contracts/token/RewardsDistributor.sol:RewardsDistributorV16",
        "label": "miningProtocolPrincipal",
        "offset": 0,
        "slot": "112",
        "type": "t_uint256"
      },
      {
        "astId": 61525,
        "contract": "contracts/token/RewardsDistributor.sol:RewardsDistributorV16",
        "label": "protocolPerTimestamp",
        "offset": 0,
        "slot": "113",
        "type": "t_mapping(t_uint256,t_struct(ProtocolPerTimestamp)61467_storage)"
      },
      {
        "astId": 61528,
        "contract": "contracts/token/RewardsDistributor.sol:RewardsDistributorV16",
        "label": "timeList",
        "offset": 0,
        "slot": "114",
        "type": "t_array(t_uint256)dyn_storage"
      },
      {
        "astId": 61530,
        "contract": "contracts/token/RewardsDistributor.sol:RewardsDistributorV16",
        "label": "miningProtocolPower",
        "offset": 0,
        "slot": "115",
        "type": "t_uint256"
      },
      {
        "astId": 61534,
        "contract": "contracts/token/RewardsDistributor.sol:RewardsDistributorV16",
        "label": "protocolPerQuarter",
        "offset": 0,
        "slot": "116",
        "type": "t_mapping(t_uint256,t_struct(ProtocolPerQuarter)61476_storage)"
      },
      {
        "astId": 61538,
        "contract": "contracts/token/RewardsDistributor.sol:RewardsDistributorV16",
        "label": "isProtocolPerQuarter",
        "offset": 0,
        "slot": "117",
        "type": "t_mapping(t_uint256,t_bool)"
      },
      {
        "astId": 61544,
        "contract": "contracts/token/RewardsDistributor.sol:RewardsDistributorV16",
        "label": "rewardsPowerOverhead",
        "offset": 0,
        "slot": "118",
        "type": "t_mapping(t_address,t_mapping(t_uint256,t_uint256))"
      },
      {
        "astId": 61550,
        "contract": "contracts/token/RewardsDistributor.sol:RewardsDistributorV16",
        "label": "contributorPerGarden",
        "offset": 0,
        "slot": "119",
        "type": "t_mapping(t_address,t_mapping(t_address,t_struct(ContributorPerGarden)61497_storage))"
      },
      {
        "astId": 61556,
        "contract": "contracts/token/RewardsDistributor.sol:RewardsDistributorV16",
        "label": "checkpoints",
        "offset": 0,
        "slot": "120",
        "type": "t_mapping(t_address,t_mapping(t_address,t_struct(Checkpoints)61515_storage))"
      },
      {
        "astId": 61562,
        "contract": "contracts/token/RewardsDistributor.sol:RewardsDistributorV16",
        "label": "gardenPowerByTimestamp",
        "offset": 0,
        "slot": "121",
        "type": "t_mapping(t_address,t_mapping(t_uint256,t_struct(GardenPowerByTimestamp)61483_storage))"
      },
      {
        "astId": 61567,
        "contract": "contracts/token/RewardsDistributor.sol:RewardsDistributorV16",
        "label": "gardenTimelist",
        "offset": 0,
        "slot": "122",
        "type": "t_mapping(t_address,t_array(t_uint256)dyn_storage)"
      },
      {
        "astId": 61571,
        "contract": "contracts/token/RewardsDistributor.sol:RewardsDistributorV16",
        "label": "gardenPid",
        "offset": 0,
        "slot": "123",
        "type": "t_mapping(t_address,t_uint256)"
      },
      {
        "astId": 61591,
        "contract": "contracts/token/RewardsDistributor.sol:RewardsDistributorV16",
        "label": "strategyPerQuarter",
        "offset": 0,
        "slot": "124",
        "type": "t_mapping(t_address,t_mapping(t_uint256,t_struct(StrategyPerQuarter)61580_storage))"
      },
      {
        "astId": 61595,
        "contract": "contracts/token/RewardsDistributor.sol:RewardsDistributorV16",
        "label": "strategyPricePerTokenUnit",
        "offset": 0,
        "slot": "125",
        "type": "t_mapping(t_address,t_struct(StrategyPricePerTokenUnit)61585_storage)"
      },
      {
        "astId": 61597,
        "contract": "contracts/token/RewardsDistributor.sol:RewardsDistributorV16",
        "label": "status",
        "offset": 0,
        "slot": "126",
        "type": "t_uint256"
      },
      {
        "astId": 61603,
        "contract": "contracts/token/RewardsDistributor.sol:RewardsDistributorV16",
        "label": "gardenProfitSharing",
        "offset": 0,
        "slot": "127",
        "type": "t_mapping(t_address,t_array(t_uint256)3_storage)"
      },
      {
        "astId": 61607,
        "contract": "contracts/token/RewardsDistributor.sol:RewardsDistributorV16",
        "label": "gardenCustomProfitSharing",
        "offset": 0,
        "slot": "128",
        "type": "t_mapping(t_address,t_bool)"
      },
      {
        "astId": 61609,
        "contract": "contracts/token/RewardsDistributor.sol:RewardsDistributorV16",
        "label": "miningUpdatedAt",
        "offset": 0,
        "slot": "129",
        "type": "t_uint256"
      },
      {
        "astId": 61613,
        "contract": "contracts/token/RewardsDistributor.sol:RewardsDistributorV16",
        "label": "strategyPrincipal",
        "offset": 0,
        "slot": "130",
        "type": "t_mapping(t_address,t_uint256)"
      },
      {
        "astId": 61619,
        "contract": "contracts/token/RewardsDistributor.sol:RewardsDistributorV16",
        "label": "betaAddressMigrated",
        "offset": 0,
        "slot": "131",
        "type": "t_mapping(t_address,t_mapping(t_address,t_bool))"
      },
      {
        "astId": 61623,
        "contract": "contracts/token/RewardsDistributor.sol:RewardsDistributorV16",
        "label": "betaOldMigrations",
        "offset": 0,
        "slot": "132",
        "type": "t_mapping(t_address,t_bool)"
      },
      {
        "astId": 61625,
        "contract": "contracts/token/RewardsDistributor.sol:RewardsDistributorV16",
        "label": "bablProfitWeight",
        "offset": 0,
        "slot": "133",
        "type": "t_uint256"
      },
      {
        "astId": 61627,
        "contract": "contracts/token/RewardsDistributor.sol:RewardsDistributorV16",
        "label": "bablPrincipalWeight",
        "offset": 0,
        "slot": "134",
        "type": "t_uint256"
      },
      {
        "astId": 61635,
        "contract": "contracts/token/RewardsDistributor.sol:RewardsDistributorV16",
        "label": "gardenCheckpoints",
        "offset": 0,
        "slot": "135",
        "type": "t_mapping(t_address,t_mapping(t_address,t_mapping(t_uint256,t_struct(Checkpoints)61515_storage)))"
      },
      {
        "astId": 61641,
        "contract": "contracts/token/RewardsDistributor.sol:RewardsDistributorV16",
        "label": "numCheckpoints",
        "offset": 0,
        "slot": "136",
        "type": "t_mapping(t_address,t_mapping(t_address,t_uint256))"
      },
      {
        "astId": 61645,
        "contract": "contracts/token/RewardsDistributor.sol:RewardsDistributorV16",
        "label": "benchmark",
        "offset": 0,
        "slot": "137",
        "type": "t_array(t_uint256)5_storage"
      }
    ],
    "types": {
      "t_address": {
        "encoding": "inplace",
        "label": "address",
        "numberOfBytes": "20"
      },
      "t_array(t_uint256)3_storage": {
        "base": "t_uint256",
        "encoding": "inplace",
        "label": "uint256[3]",
        "numberOfBytes": "96"
      },
      "t_array(t_uint256)49_storage": {
        "base": "t_uint256",
        "encoding": "inplace",
        "label": "uint256[49]",
        "numberOfBytes": "1568"
      },
      "t_array(t_uint256)50_storage": {
        "base": "t_uint256",
        "encoding": "inplace",
        "label": "uint256[50]",
        "numberOfBytes": "1600"
      },
      "t_array(t_uint256)5_storage": {
        "base": "t_uint256",
        "encoding": "inplace",
        "label": "uint256[5]",
        "numberOfBytes": "160"
      },
      "t_array(t_uint256)dyn_storage": {
        "base": "t_uint256",
        "encoding": "dynamic_array",
        "label": "uint256[]",
        "numberOfBytes": "32"
      },
      "t_bool": {
        "encoding": "inplace",
        "label": "bool",
        "numberOfBytes": "1"
      },
      "t_contract(IBabController)42146": {
        "encoding": "inplace",
        "label": "contract IBabController",
        "numberOfBytes": "20"
      },
      "t_contract(TimeLockedToken)68537": {
        "encoding": "inplace",
        "label": "contract TimeLockedToken",
        "numberOfBytes": "20"
      },
      "t_mapping(t_address,t_array(t_uint256)3_storage)": {
        "encoding": "mapping",
        "key": "t_address",
        "label": "mapping(address => uint256[3])",
        "numberOfBytes": "32",
        "value": "t_array(t_uint256)3_storage"
      },
      "t_mapping(t_address,t_array(t_uint256)dyn_storage)": {
        "encoding": "mapping",
        "key": "t_address",
        "label": "mapping(address => uint256[])",
        "numberOfBytes": "32",
        "value": "t_array(t_uint256)dyn_storage"
      },
      "t_mapping(t_address,t_bool)": {
        "encoding": "mapping",
        "key": "t_address",
        "label": "mapping(address => bool)",
        "numberOfBytes": "32",
        "value": "t_bool"
      },
      "t_mapping(t_address,t_mapping(t_address,t_bool))": {
        "encoding": "mapping",
        "key": "t_address",
        "label": "mapping(address => mapping(address => bool))",
        "numberOfBytes": "32",
        "value": "t_mapping(t_address,t_bool)"
      },
      "t_mapping(t_address,t_mapping(t_address,t_mapping(t_uint256,t_struct(Checkpoints)61515_storage)))": {
        "encoding": "mapping",
        "key": "t_address",
        "label": "mapping(address => mapping(address => mapping(uint256 => struct RewardsDistributor.Checkpoints)))",
        "numberOfBytes": "32",
        "value": "t_mapping(t_address,t_mapping(t_uint256,t_struct(Checkpoints)61515_storage))"
      },
      "t_mapping(t_address,t_mapping(t_address,t_struct(Checkpoints)61515_storage))": {
        "encoding": "mapping",
        "key": "t_address",
        "label": "mapping(address => mapping(address => struct RewardsDistributor.Checkpoints))",
        "numberOfBytes": "32",
        "value": "t_mapping(t_address,t_struct(Checkpoints)61515_storage)"
      },
      "t_mapping(t_address,t_mapping(t_address,t_struct(ContributorPerGarden)61497_storage))": {
        "encoding": "mapping",
        "key": "t_address",
        "label": "mapping(address => mapping(address => struct RewardsDistributor.ContributorPerGarden))",
        "numberOfBytes": "32",
        "value": "t_mapping(t_address,t_struct(ContributorPerGarden)61497_storage)"
      },
      "t_mapping(t_address,t_mapping(t_address,t_uint256))": {
        "encoding": "mapping",
        "key": "t_address",
        "label": "mapping(address => mapping(address => uint256))",
        "numberOfBytes": "32",
        "value": "t_mapping(t_address,t_uint256)"
      },
      "t_mapping(t_address,t_mapping(t_uint256,t_struct(Checkpoints)61515_storage))": {
        "encoding": "mapping",
        "key": "t_address",
        "label": "mapping(address => mapping(uint256 => struct RewardsDistributor.Checkpoints))",
        "numberOfBytes": "32",
        "value": "t_mapping(t_uint256,t_struct(Checkpoints)61515_storage)"
      },
      "t_mapping(t_address,t_mapping(t_uint256,t_struct(GardenPowerByTimestamp)61483_storage))": {
        "encoding": "mapping",
        "key": "t_address",
        "label": "mapping(address => mapping(uint256 => struct RewardsDistributor.GardenPowerByTimestamp))",
        "numberOfBytes": "32",
        "value": "t_mapping(t_uint256,t_struct(GardenPowerByTimestamp)61483_storage)"
      },
      "t_mapping(t_address,t_mapping(t_uint256,t_struct(StrategyPerQuarter)61580_storage))": {
        "encoding": "mapping",
        "key": "t_address",
        "label": "mapping(address => mapping(uint256 => struct RewardsDistributor.StrategyPerQuarter))",
        "numberOfBytes": "32",
        "value": "t_mapping(t_uint256,t_struct(StrategyPerQuarter)61580_storage)"
      },
      "t_mapping(t_address,t_mapping(t_uint256,t_uint256))": {
        "encoding": "mapping",
        "key": "t_address",
        "label": "mapping(address => mapping(uint256 => uint256))",
        "numberOfBytes": "32",
        "value": "t_mapping(t_uint256,t_uint256)"
      },
      "t_mapping(t_address,t_struct(Checkpoints)61515_storage)": {
        "encoding": "mapping",
        "key": "t_address",
        "label": "mapping(address => struct RewardsDistributor.Checkpoints)",
        "numberOfBytes": "32",
        "value": "t_struct(Checkpoints)61515_storage"
      },
      "t_mapping(t_address,t_struct(ContributorPerGarden)61497_storage)": {
        "encoding": "mapping",
        "key": "t_address",
        "label": "mapping(address => struct RewardsDistributor.ContributorPerGarden)",
        "numberOfBytes": "32",
        "value": "t_struct(ContributorPerGarden)61497_storage"
      },
      "t_mapping(t_address,t_struct(StrategyPricePerTokenUnit)61585_storage)": {
        "encoding": "mapping",
        "key": "t_address",
        "label": "mapping(address => struct RewardsDistributor.StrategyPricePerTokenUnit)",
        "numberOfBytes": "32",
        "value": "t_struct(StrategyPricePerTokenUnit)61585_storage"
      },
      "t_mapping(t_address,t_uint256)": {
        "encoding": "mapping",
        "key": "t_address",
        "label": "mapping(address => uint256)",
        "numberOfBytes": "32",
        "value": "t_uint256"
      },
      "t_mapping(t_uint256,t_bool)": {
        "encoding": "mapping",
        "key": "t_uint256",
        "label": "mapping(uint256 => bool)",
        "numberOfBytes": "32",
        "value": "t_bool"
      },
      "t_mapping(t_uint256,t_struct(Checkpoints)61515_storage)": {
        "encoding": "mapping",
        "key": "t_uint256",
        "label": "mapping(uint256 => struct RewardsDistributor.Checkpoints)",
        "numberOfBytes": "32",
        "value": "t_struct(Checkpoints)61515_storage"
      },
      "t_mapping(t_uint256,t_struct(GardenPowerByTimestamp)61483_storage)": {
        "encoding": "mapping",
        "key": "t_uint256",
        "label": "mapping(uint256 => struct RewardsDistributor.GardenPowerByTimestamp)",
        "numberOfBytes": "32",
        "value": "t_struct(GardenPowerByTimestamp)61483_storage"
      },
      "t_mapping(t_uint256,t_struct(ProtocolPerQuarter)61476_storage)": {
        "encoding": "mapping",
        "key": "t_uint256",
        "label": "mapping(uint256 => struct RewardsDistributor.ProtocolPerQuarter)",
        "numberOfBytes": "32",
        "value": "t_struct(ProtocolPerQuarter)61476_storage"
      },
      "t_mapping(t_uint256,t_struct(ProtocolPerTimestamp)61467_storage)": {
        "encoding": "mapping",
        "key": "t_uint256",
        "label": "mapping(uint256 => struct RewardsDistributor.ProtocolPerTimestamp)",
        "numberOfBytes": "32",
        "value": "t_struct(ProtocolPerTimestamp)61467_storage"
      },
      "t_mapping(t_uint256,t_struct(StrategyPerQuarter)61580_storage)": {
        "encoding": "mapping",
        "key": "t_uint256",
        "label": "mapping(uint256 => struct RewardsDistributor.StrategyPerQuarter)",
        "numberOfBytes": "32",
        "value": "t_struct(StrategyPerQuarter)61580_storage"
      },
      "t_mapping(t_uint256,t_struct(TimestampContribution)61506_storage)": {
        "encoding": "mapping",
        "key": "t_uint256",
        "label": "mapping(uint256 => struct RewardsDistributor.TimestampContribution)",
        "numberOfBytes": "32",
        "value": "t_struct(TimestampContribution)61506_storage"
      },
      "t_mapping(t_uint256,t_uint256)": {
        "encoding": "mapping",
        "key": "t_uint256",
        "label": "mapping(uint256 => uint256)",
        "numberOfBytes": "32",
        "value": "t_uint256"
      },
      "t_struct(Checkpoints)61515_storage": {
        "encoding": "inplace",
        "label": "struct RewardsDistributor.Checkpoints",
        "members": [
          {
            "astId": 61508,
            "contract": "contracts/token/RewardsDistributor.sol:RewardsDistributorV16",
            "label": "fromTime",
            "offset": 0,
            "slot": "0",
            "type": "t_uint256"
          },
          {
            "astId": 61510,
            "contract": "contracts/token/RewardsDistributor.sol:RewardsDistributorV16",
            "label": "tokens",
            "offset": 0,
            "slot": "1",
            "type": "t_uint256"
          },
          {
            "astId": 61512,
            "contract": "contracts/token/RewardsDistributor.sol:RewardsDistributorV16",
            "label": "supply",
            "offset": 0,
            "slot": "2",
            "type": "t_uint256"
          },
          {
            "astId": 61514,
            "contract": "contracts/token/RewardsDistributor.sol:RewardsDistributorV16",
            "label": "prevBalance",
            "offset": 0,
            "slot": "3",
            "type": "t_uint256"
          }
        ],
        "numberOfBytes": "128"
      },
      "t_struct(ContributorPerGarden)61497_storage": {
        "encoding": "inplace",
        "label": "struct RewardsDistributor.ContributorPerGarden",
        "members": [
          {
            "astId": 61485,
            "contract": "contracts/token/RewardsDistributor.sol:RewardsDistributorV16",
            "label": "lastDepositAt",
            "offset": 0,
            "slot": "0",
            "type": "t_uint256"
          },
          {
            "astId": 61487,
            "contract": "contracts/token/RewardsDistributor.sol:RewardsDistributorV16",
            "label": "initialDepositAt",
            "offset": 0,
            "slot": "1",
            "type": "t_uint256"
          },
          {
            "astId": 61490,
            "contract": "contracts/token/RewardsDistributor.sol:RewardsDistributorV16",
            "label": "timeListPointer",
            "offset": 0,
            "slot": "2",
            "type": "t_array(t_uint256)dyn_storage"
          },
          {
            "astId": 61492,
            "contract": "contracts/token/RewardsDistributor.sol:RewardsDistributorV16",
            "label": "pid",
            "offset": 0,
            "slot": "3",
            "type": "t_uint256"
          },
          {
            "astId": 61496,
            "contract": "contracts/token/RewardsDistributor.sol:RewardsDistributorV16",
            "label": "tsContributions",
            "offset": 0,
            "slot": "4",
            "type": "t_mapping(t_uint256,t_struct(TimestampContribution)61506_storage)"
          }
        ],
        "numberOfBytes": "160"
      },
      "t_struct(GardenPowerByTimestamp)61483_storage": {
        "encoding": "inplace",
        "label": "struct RewardsDistributor.GardenPowerByTimestamp",
        "members": [
          {
            "astId": 61478,
            "contract": "contracts/token/RewardsDistributor.sol:RewardsDistributorV16",
            "label": "avgGardenBalance",
            "offset": 0,
            "slot": "0",
            "type": "t_uint256"
          },
          {
            "astId": 61480,
            "contract": "contracts/token/RewardsDistributor.sol:RewardsDistributorV16",
            "label": "lastDepositAt",
            "offset": 0,
            "slot": "1",
            "type": "t_uint256"
          },
          {
            "astId": 61482,
            "contract": "contracts/token/RewardsDistributor.sol:RewardsDistributorV16",
            "label": "accGardenPower",
            "offset": 0,
            "slot": "2",
            "type": "t_uint256"
          }
        ],
        "numberOfBytes": "96"
      },
      "t_struct(ProtocolPerQuarter)61476_storage": {
        "encoding": "inplace",
        "label": "struct RewardsDistributor.ProtocolPerQuarter",
        "members": [
          {
            "astId": 61469,
            "contract": "contracts/token/RewardsDistributor.sol:RewardsDistributorV16",
            "label": "quarterPrincipal",
            "offset": 0,
            "slot": "0",
            "type": "t_uint256"
          },
          {
            "astId": 61471,
            "contract": "contracts/token/RewardsDistributor.sol:RewardsDistributorV16",
            "label": "quarterNumber",
            "offset": 0,
            "slot": "1",
            "type": "t_uint256"
          },
          {
            "astId": 61473,
            "contract": "contracts/token/RewardsDistributor.sol:RewardsDistributorV16",
            "label": "quarterPower",
            "offset": 0,
            "slot": "2",
            "type": "t_uint256"
          },
          {
            "astId": 61475,
            "contract": "contracts/token/RewardsDistributor.sol:RewardsDistributorV16",
            "label": "supplyPerQuarter",
            "offset": 0,
            "slot": "3",
            "type": "t_uint96"
          }
        ],
        "numberOfBytes": "128"
      },
      "t_struct(ProtocolPerTimestamp)61467_storage": {
        "encoding": "inplace",
        "label": "struct RewardsDistributor.ProtocolPerTimestamp",
        "members": [
          {
            "astId": 61458,
            "contract": "contracts/token/RewardsDistributor.sol:RewardsDistributorV16",
            "label": "principal",
            "offset": 0,
            "slot": "0",
            "type": "t_uint256"
          },
          {
            "astId": 61460,
            "contract": "contracts/token/RewardsDistributor.sol:RewardsDistributorV16",
            "label": "time",
            "offset": 0,
            "slot": "1",
            "type": "t_uint256"
          },
          {
            "astId": 61462,
            "contract": "contracts/token/RewardsDistributor.sol:RewardsDistributorV16",
            "label": "quarterBelonging",
            "offset": 0,
            "slot": "2",
            "type": "t_uint256"
          },
          {
            "astId": 61464,
            "contract": "contracts/token/RewardsDistributor.sol:RewardsDistributorV16",
            "label": "timeListPointer",
            "offset": 0,
            "slot": "3",
            "type": "t_uint256"
          },
          {
            "astId": 61466,
            "contract": "contracts/token/RewardsDistributor.sol:RewardsDistributorV16",
            "label": "power",
            "offset": 0,
            "slot": "4",
            "type": "t_uint256"
          }
        ],
        "numberOfBytes": "160"
      },
      "t_struct(StrategyPerQuarter)61580_storage": {
        "encoding": "inplace",
        "label": "struct RewardsDistributor.StrategyPerQuarter",
        "members": [
          {
            "astId": 61573,
            "contract": "contracts/token/RewardsDistributor.sol:RewardsDistributorV16",
            "label": "quarterPrincipal",
            "offset": 0,
            "slot": "0",
            "type": "t_uint256"
          },
          {
            "astId": 61575,
            "contract": "contracts/token/RewardsDistributor.sol:RewardsDistributorV16",
            "label": "betaInitializedAt",
            "offset": 0,
            "slot": "1",
            "type": "t_uint256"
          },
          {
            "astId": 61577,
            "contract": "contracts/token/RewardsDistributor.sol:RewardsDistributorV16",
            "label": "quarterPower",
            "offset": 0,
            "slot": "2",
            "type": "t_uint256"
          },
          {
            "astId": 61579,
            "contract": "contracts/token/RewardsDistributor.sol:RewardsDistributorV16",
            "label": "initialized",
            "offset": 0,
            "slot": "3",
            "type": "t_bool"
          }
        ],
        "numberOfBytes": "128"
      },
      "t_struct(StrategyPricePerTokenUnit)61585_storage": {
        "encoding": "inplace",
        "label": "struct RewardsDistributor.StrategyPricePerTokenUnit",
        "members": [
          {
            "astId": 61582,
            "contract": "contracts/token/RewardsDistributor.sol:RewardsDistributorV16",
            "label": "preallocated",
            "offset": 0,
            "slot": "0",
            "type": "t_uint256"
          },
          {
            "astId": 61584,
            "contract": "contracts/token/RewardsDistributor.sol:RewardsDistributorV16",
            "label": "pricePerTokenUnit",
            "offset": 0,
            "slot": "1",
            "type": "t_uint256"
          }
        ],
        "numberOfBytes": "64"
      },
      "t_struct(TimestampContribution)61506_storage": {
        "encoding": "inplace",
        "label": "struct RewardsDistributor.TimestampContribution",
        "members": [
          {
            "astId": 61499,
            "contract": "contracts/token/RewardsDistributor.sol:RewardsDistributorV16",
            "label": "avgBalance",
            "offset": 0,
            "slot": "0",
            "type": "t_uint256"
          },
          {
            "astId": 61501,
            "contract": "contracts/token/RewardsDistributor.sol:RewardsDistributorV16",
            "label": "timestamp",
            "offset": 0,
            "slot": "1",
            "type": "t_uint256"
          },
          {
            "astId": 61503,
            "contract": "contracts/token/RewardsDistributor.sol:RewardsDistributorV16",
            "label": "timePointer",
            "offset": 0,
            "slot": "2",
            "type": "t_uint256"
          },
          {
            "astId": 61505,
            "contract": "contracts/token/RewardsDistributor.sol:RewardsDistributorV16",
            "label": "power",
            "offset": 0,
            "slot": "3",
            "type": "t_uint256"
          }
        ],
        "numberOfBytes": "128"
      },
      "t_uint256": {
        "encoding": "inplace",
        "label": "uint256",
        "numberOfBytes": "32"
      },
      "t_uint96": {
        "encoding": "inplace",
        "label": "uint96",
        "numberOfBytes": "12"
      }
    }
  }
}