{
  "address": "0xE3C415A8978C3436A43A249d70c5278cF998D36c",
  "abi": [
    {
      "anonymous": false,
      "inputs": [
        {
          "indexed": true,
          "internalType": "address",
          "name": "previousOwner",
          "type": "address"
        },
        {
          "indexed": true,
          "internalType": "address",
          "name": "newOwner",
          "type": "address"
        }
      ],
      "name": "OwnershipTransferred",
      "type": "event"
    },
    {
      "inputs": [],
      "name": "PROPHETS_NFT",
      "outputs": [
        {
          "internalType": "contract IProphets",
          "name": "",
          "type": "address"
        }
      ],
      "stateMutability": "view",
      "type": "function"
    },
    {
      "inputs": [],
      "name": "START_TIME",
      "outputs": [
        {
          "internalType": "uint256",
          "name": "",
          "type": "uint256"
        }
      ],
      "stateMutability": "view",
      "type": "function"
    },
    {
      "inputs": [
        {
          "internalType": "uint256",
          "name": "_quarterNum",
          "type": "uint256"
        },
        {
          "internalType": "address",
          "name": "_strategy",
          "type": "address"
        }
      ],
      "name": "checkMining",
      "outputs": [
        {
          "internalType": "uint256[]",
          "name": "",
          "type": "uint256[]"
        },
        {
          "internalType": "bool[]",
          "name": "",
          "type": "bool[]"
        }
      ],
      "stateMutability": "view",
      "type": "function"
    },
    {
      "inputs": [
        {
          "internalType": "address",
          "name": "_strategy",
          "type": "address"
        }
      ],
      "name": "estimateStrategyRewards",
      "outputs": [
        {
          "internalType": "uint256",
          "name": "",
          "type": "uint256"
        }
      ],
      "stateMutability": "view",
      "type": "function"
    },
    {
      "inputs": [
        {
          "internalType": "address",
          "name": "_strategy",
          "type": "address"
        },
        {
          "internalType": "address",
          "name": "_contributor",
          "type": "address"
        }
      ],
      "name": "estimateUserRewards",
      "outputs": [
        {
          "internalType": "uint256[]",
          "name": "",
          "type": "uint256[]"
        }
      ],
      "stateMutability": "view",
      "type": "function"
    },
    {
      "inputs": [],
      "name": "getBABLMiningParameters",
      "outputs": [
        {
          "internalType": "uint256",
          "name": "",
          "type": "uint256"
        },
        {
          "internalType": "uint256",
          "name": "",
          "type": "uint256"
        },
        {
          "internalType": "uint256",
          "name": "",
          "type": "uint256"
        },
        {
          "internalType": "uint256",
          "name": "",
          "type": "uint256"
        },
        {
          "internalType": "uint256",
          "name": "",
          "type": "uint256"
        },
        {
          "internalType": "uint256",
          "name": "",
          "type": "uint256"
        }
      ],
      "stateMutability": "view",
      "type": "function"
    },
    {
      "inputs": [
        {
          "internalType": "address",
          "name": "_garden",
          "type": "address"
        },
        {
          "internalType": "address",
          "name": "_contributor",
          "type": "address"
        }
      ],
      "name": "getContributorPerGarden",
      "outputs": [
        {
          "internalType": "uint256[]",
          "name": "",
          "type": "uint256[]"
        },
        {
          "internalType": "bool[]",
          "name": "",
          "type": "bool[]"
        }
      ],
      "stateMutability": "view",
      "type": "function"
    },
    {
      "inputs": [
        {
          "internalType": "address",
          "name": "_garden",
          "type": "address"
        },
        {
          "internalType": "address",
          "name": "_contributor",
          "type": "address"
        },
        {
          "internalType": "uint256",
          "name": "_time",
          "type": "uint256"
        }
      ],
      "name": "getContributorPower",
      "outputs": [
        {
          "internalType": "uint256",
          "name": "",
          "type": "uint256"
        }
      ],
      "stateMutability": "view",
      "type": "function"
    },
    {
      "inputs": [
        {
          "internalType": "address",
          "name": "_garden",
          "type": "address"
        }
      ],
      "name": "getGardenProfitsSharing",
      "outputs": [
        {
          "internalType": "uint256[3]",
          "name": "",
          "type": "uint256[3]"
        }
      ],
      "stateMutability": "view",
      "type": "function"
    },
    {
      "inputs": [
        {
          "internalType": "address",
          "name": "_garden",
          "type": "address"
        },
        {
          "internalType": "address",
          "name": "_contributor",
          "type": "address"
        },
        {
          "internalType": "address[]",
          "name": "_finalizedStrategies",
          "type": "address[]"
        }
      ],
      "name": "getRewards",
      "outputs": [
        {
          "internalType": "uint256[]",
          "name": "",
          "type": "uint256[]"
        }
      ],
      "stateMutability": "view",
      "type": "function"
    },
    {
      "inputs": [
        {
          "internalType": "address",
          "name": "_strategy",
          "type": "address"
        }
      ],
      "name": "getStrategyRewards",
      "outputs": [
        {
          "internalType": "uint96",
          "name": "",
          "type": "uint96"
        }
      ],
      "stateMutability": "view",
      "type": "function"
    },
    {
      "inputs": [
        {
          "internalType": "contract TimeLockedToken",
          "name": "_bablToken",
          "type": "address"
        },
        {
          "internalType": "contract IBabController",
          "name": "_controller",
          "type": "address"
        }
      ],
      "name": "initialize",
      "outputs": [],
      "stateMutability": "nonpayable",
      "type": "function"
    },
    {
      "inputs": [],
      "name": "owner",
      "outputs": [
        {
          "internalType": "address",
          "name": "",
          "type": "address"
        }
      ],
      "stateMutability": "view",
      "type": "function"
    },
    {
      "inputs": [],
      "name": "renounceOwnership",
      "outputs": [],
      "stateMutability": "nonpayable",
      "type": "function"
    },
    {
      "inputs": [
        {
          "internalType": "address",
          "name": "_to",
          "type": "address"
        },
        {
          "internalType": "uint256",
          "name": "_babl",
          "type": "uint256"
        }
      ],
      "name": "sendBABLToContributor",
      "outputs": [
        {
          "internalType": "uint256",
          "name": "",
          "type": "uint256"
        }
      ],
      "stateMutability": "nonpayable",
      "type": "function"
    },
    {
      "inputs": [
        {
          "internalType": "uint256",
          "name": "_strategistShare",
          "type": "uint256"
        },
        {
          "internalType": "uint256",
          "name": "_stewardsShare",
          "type": "uint256"
        },
        {
          "internalType": "uint256",
          "name": "_lpShare",
          "type": "uint256"
        },
        {
          "internalType": "uint256",
          "name": "_creatorBonus",
          "type": "uint256"
        },
        {
          "internalType": "uint256",
          "name": "_profitWeight",
          "type": "uint256"
        },
        {
          "internalType": "uint256",
          "name": "_principalWeight",
          "type": "uint256"
        }
      ],
      "name": "setBABLMiningParameters",
      "outputs": [],
      "stateMutability": "nonpayable",
      "type": "function"
    },
    {
      "inputs": [
        {
          "internalType": "address",
          "name": "_garden",
          "type": "address"
        },
        {
          "internalType": "uint256",
          "name": "_strategistShare",
          "type": "uint256"
        },
        {
          "internalType": "uint256",
          "name": "_stewardsShare",
          "type": "uint256"
        },
        {
          "internalType": "uint256",
          "name": "_lpShare",
          "type": "uint256"
        }
      ],
      "name": "setProfitRewards",
      "outputs": [],
      "stateMutability": "nonpayable",
      "type": "function"
    },
    {
      "inputs": [
        {
          "internalType": "address",
          "name": "newOwner",
          "type": "address"
        }
      ],
      "name": "transferOwnership",
      "outputs": [],
      "stateMutability": "nonpayable",
      "type": "function"
    },
    {
      "inputs": [
        {
          "internalType": "address",
          "name": "_garden",
          "type": "address"
        },
        {
          "internalType": "address",
          "name": "_contributor",
          "type": "address"
        },
        {
          "internalType": "uint256",
          "name": "_previousBalance",
          "type": "uint256"
        },
        {
          "internalType": "uint256",
          "name": "_previousSupply",
          "type": "uint256"
        },
        {
          "internalType": "uint256",
          "name": "_tokenDiff",
          "type": "uint256"
        },
        {
          "internalType": "bool",
          "name": "_addOrSubstract",
          "type": "bool"
        }
      ],
      "name": "updateGardenPowerAndContributor",
      "outputs": [],
      "stateMutability": "nonpayable",
      "type": "function"
    },
    {
      "inputs": [
        {
          "internalType": "uint256",
          "name": "_capital",
          "type": "uint256"
        },
        {
          "internalType": "bool",
          "name": "_addOrSubstract",
          "type": "bool"
        }
      ],
      "name": "updateProtocolPrincipal",
      "outputs": [],
      "stateMutability": "nonpayable",
      "type": "function"
    },
    {
      "inputs": [
        {
          "internalType": "address",
          "name": "_strategy",
          "type": "address"
        },
        {
          "internalType": "uint256",
          "name": "_capital",
          "type": "uint256"
        },
        {
          "internalType": "bool",
          "name": "_addOrSubstract",
          "type": "bool"
        }
      ],
      "name": "updateStrategyCheckpoint",
      "outputs": [],
      "stateMutability": "nonpayable",
      "type": "function"
    }
  ],
  "transactionHash": "0x15f27eb56eb4e1f12e68763861444d42c99bd51bb7d0d502d29bacb253510996",
  "args": [],
  "solcInputHash": "6fd4249b7534a8ecbe537641360c2c2b",
  "bytecode": "0x608060405234801561001057600080fd5b50615f5280620000216000396000f3fe608060405234801561001057600080fd5b50600436106101775760003560e01c80637eea8bb7116100d85780639de9a0521161008c578063ddaa26ad11610066578063ddaa26ad1461063c578063f2fde38b14610644578063f73bae541461066a57610177565b80639de9a052146105a2578063b8626391146105e9578063d717a5061461061757610177565b80638b4d6155116100bd5780638b4d6155146105335780638ce90e821461056e5780638da5cb5b1461059a57610177565b80637eea8bb7146104d557806380334dbe146104fb57610177565b8063485cc9551161012f57806369795e931161011457806369795e93146103b9578063715018a61461049257806375943e231461049a57610177565b8063485cc955146103435780635f21bcac1461037157610177565b80632838b757116101605780632838b757146102265780632cdc90501461025a57806347277aa71461031f57610177565b8063070e8a4a1461017c57806317e7af8b146101da575b600080fd5b6101a26004803603602081101561019257600080fd5b50356001600160a01b0316610698565b6040518082606080838360005b838110156101c75781810151838201526020016101af565b5050505090500191505060405180910390f35b610224600480360360c08110156101f057600080fd5b506001600160a01b03813581169160208101359091169060408101359060608101359060808101359060a001351515610734565b005b6102246004803603606081101561023c57600080fd5b506001600160a01b0381351690602081013590604001351515610833565b6102866004803603604081101561027057600080fd5b50803590602001356001600160a01b03166108c8565b604051808060200180602001838103835285818151815260200191508051906020019060200280838360005b838110156102ca5781810151838201526020016102b2565b50505050905001838103825284818151815260200191508051906020019060200280838360005b838110156103095781810151838201526020016102f1565b5050505090500194505050505060405180910390f35b610327610b6e565b604080516001600160a01b039092168252519081900360200190f35b6102246004803603604081101561035957600080fd5b506001600160a01b0381358116916020013516610b86565b6103a76004803603606081101561038757600080fd5b506001600160a01b03813581169160208101359091169060400135610cd3565b60408051918252519081900360200190f35b610442600480360360608110156103cf57600080fd5b6001600160a01b03823581169260208101359091169181019060608101604082013564010000000081111561040357600080fd5b82018360208201111561041557600080fd5b8035906020019184602083028401116401000000008311171561043757600080fd5b509092509050610f53565b60408051602080825283518183015283519192839290830191858101910280838360005b8381101561047e578181015183820152602001610466565b505050509050019250505060405180910390f35b610224611355565b610224600480360360c08110156104b057600080fd5b5080359060208101359060408101359060608101359060808101359060a00135611420565b6103a7600480360360208110156104eb57600080fd5b50356001600160a01b0316611509565b6102246004803603608081101561051157600080fd5b506001600160a01b0381351690602081013590604081013590606001356115a9565b61053b611615565b604080519687526020870195909552858501939093526060850191909152608084015260a0830152519081900360c00190f35b6103a76004803603604081101561058457600080fd5b506001600160a01b03813516906020013561162f565b6103276116a9565b6105c8600480360360208110156105b857600080fd5b50356001600160a01b03166116b8565b604080516bffffffffffffffffffffffff9092168252519081900360200190f35b610442600480360360408110156105ff57600080fd5b506001600160a01b0381358116916020013516611c30565b6102246004803603604081101561062d57600080fd5b50803590602001351515611db3565b6103a7611dcb565b6102246004803603602081101561065a57600080fd5b50356001600160a01b0316611dd1565b6102866004803603604081101561068057600080fd5b506001600160a01b0381358116916020013516611ef3565b6106a0615e52565b6001600160a01b03821660009081526080602052604090205460ff161561070b576001600160a01b0382166000908152607f602052604090819020815160608101928390529160039082845b8154815260200190600101908083116106ec575050505050905061072f565b60405180606001604052806069548152602001606a548152602001606b5481525090505b919050565b6107456002607e541415605461221c565b6002607e55606e546040805163364d118160e01b815233600482015290516107c9926001600160a01b03169163364d1181916024808301926020929190829003018186803b15801561079657600080fd5b505afa1580156107aa573d6000803e3d6000fd5b505050506040513d60208110156107c057600080fd5b5051602361221c565b6000816107df576107da848461222a565b6107e9565b6107e9848461223a565b9050600082610801576107fc868561222a565b61080b565b61080b868561223a565b905061081888868461224a565b610824888888846123a5565b50506001607e55505050505050565b61083b6124ad565b6001600160a01b031661084c6116a9565b6001600160a01b0316146108a7576040805162461bcd60e51b815260206004820181905260248201527f4f776e61626c653a2063616c6c6572206973206e6f7420746865206f776e6572604482015290519081900360640190fd5b6108af6124b1565b6108b88361254c565b6108c3838383612657565b505050565b60408051600a8082526101608201909252606091829160009160208201610140803683375050604080516002808252606082018352939450600093909250906020830190803683370190505090506065548260008151811061092657fe5b6020026020010181815250506081548260018151811061094257fe5b6020026020010181815250506070548260028151811061095e57fe5b6020026020010181815250506073548260038151811061097a57fe5b6020026020010181815250506074600087815260200190815260200160002060020154826004815181106109aa57fe5b60200260200101818152505060826000866001600160a01b03166001600160a01b0316815260200190815260200160002054826005815181106109e957fe5b602002602001018181525050607d6000866001600160a01b03166001600160a01b031681526020019081526020016000206000015482600681518110610a2b57fe5b602002602001018181525050607d6000866001600160a01b03166001600160a01b031681526020019081526020016000206001015482600781518110610a6d57fe5b6020908102919091018101919091526001600160a01b0386166000908152607c825260408082208983529092522060020154825183906008908110610aae57fe5b602002602001018181525050610ac386612803565b6bffffffffffffffffffffffff1682600981518110610ade57fe5b602090810291909101810191909152600087815260759091526040812054825160ff909116918391610b0c57fe5b9115156020928302919091018201526001600160a01b0386166000908152607c825260408082208983529092522060030154815160ff9091169082906001908110610b5357fe5b91151560209283029190910190910152909590945092505050565b7326231a65ef80706307bbe71f032dc1e5bf28ce4381565b610b8e6128a4565b610bb86001600160a01b03831615801590610bb157506001600160a01b03821615155b601761221c565b606f80546001600160a01b0380851673ffffffffffffffffffffffffffffffffffffffff1992831617909255606e805484841692169190911790819055604080517f568c08130000000000000000000000000000000000000000000000000000000081529051919092169163568c0813916004808301926020929190829003018186803b158015610c4857600080fd5b505afa158015610c5c573d6000803e3d6000fd5b505050506040513d6020811015610c7257600080fd5b5051606c55505067016345785d8a0000606981905566b1a2bc2ec50000606a55670b1a2bc2ec500000606b81905560668290556067829055606855606d55670905438e600100006085556704db7325476300006086556001607e5542606555565b6000610d47846001600160a01b031663cb12233b6040518163ffffffff1660e01b815260040160206040518083038186803b158015610d1157600080fd5b505afa158015610d25573d6000803e3d6000fd5b505050506040513d6020811015610d3b57600080fd5b5051831015604161221c565b60408051600980825261014082019092526000916020820161012080368337019050509050610d768585612956565b905080600181518110610d8557fe5b602002602001015160001480610dae57508281600181518110610da457fe5b6020026020010151115b80610dcd575080600281518110610dc157fe5b60200260200101516000145b15610ddc576000915050610f4c565b42831115610de8574292505b6000610e55610e3283600281518110610dfd57fe5b6020026020010151610e2c85600081518110610e1557fe5b60200260200101514261222a90919063ffffffff16565b90612bcd565b83600381518110610e3f57fe5b602002602001015161223a90919063ffffffff16565b90506000610e91610e8484600881518110610e6c57fe5b6020026020010151610e2c86600581518110610e1557fe5b84600681518110610e3f57fe5b90506000610e9f428761222a565b90506000610eca8286600481518110610eb457fe5b6020026020010151612bcd90919063ffffffff16565b90506000610edf8387600781518110610eb457fe5b9050818511610eef576000610ef9565b610ef9858361222a565b9450808411610f09576001610f13565b610f13848261222a565b93506000610f218686612bf1565b9050670de0b6b3a7640000811115610f3e5750670de0b6b3a76400005b9650610f4c95505050505050565b9392505050565b606e546040805163364d118160e01b81526001600160a01b0387811660048301529151606093610fa493169163364d1181916024808301926020929190829003018186803b15801561079657600080fd5b60408051600880825261012082019092526000916020820161010080368337019050509050600080876001600160a01b0316633d8270f5886040518263ffffffff1660e01b815260040180826001600160a01b031681526020019150506101406040518083038186803b15801561101a57600080fd5b505afa15801561102e573d6000803e3d6000fd5b505050506040513d61014081101561104557600080fd5b506020810151604090910151909250905060005b85811015611346576110ff896001600160a01b03166306061dfa89898581811061107f57fe5b905060200201356001600160a01b03166040518263ffffffff1660e01b815260040180826001600160a01b0316815260200191505060206040518083038186803b1580156110cc57600080fd5b505afa1580156110e0573d6000803e3d6000fd5b505050506040513d60208110156110f657600080fd5b5051604961221c565b6040805160088082526101208201909252600091602082016101008036833701905050905061114c8a89898581811061113457fe5b905060200201356001600160a01b03168b8787612c09565b90506111738160008151811061115e57fe5b602002602001015186600081518110610e3f57fe5b8560008151811061118057fe5b6020026020010181815250506111b18160018151811061119c57fe5b602002602001015186600181518110610e3f57fe5b856001815181106111be57fe5b6020026020010181815250506111ef816002815181106111da57fe5b602002602001015186600281518110610e3f57fe5b856002815181106111fc57fe5b60200260200101818152505061122d8160038151811061121857fe5b602002602001015186600381518110610e3f57fe5b8560038151811061123a57fe5b60200260200101818152505061126b8160048151811061125657fe5b602002602001015186600481518110610e3f57fe5b8560048151811061127857fe5b6020026020010181815250506112a98160058151811061129457fe5b602002602001015186600581518110610e3f57fe5b856005815181106112b657fe5b6020026020010181815250506112e7816006815181106112d257fe5b602002602001015186600681518110610e3f57fe5b856006815181106112f457fe5b6020026020010181815250506113258160078151811061131057fe5b602002602001015186600781518110610e3f57fe5b8560078151811061133257fe5b602090810291909101015250600101611059565b5091925050505b949350505050565b61135d6124ad565b6001600160a01b031661136e6116a9565b6001600160a01b0316146113c9576040805162461bcd60e51b815260206004820181905260248201527f4f776e61626c653a2063616c6c6572206973206e6f7420746865206f776e6572604482015290519081900360640190fd5b6033546040516000916001600160a01b0316907f8be0079c531659141344cd1fd0a4f28419497f9722a3daafe3b4186f6b6457e0908390a36033805473ffffffffffffffffffffffffffffffffffffffff19169055565b6114286124ad565b6001600160a01b03166114396116a9565b6001600160a01b031614611494576040805162461bcd60e51b815260206004820181905260248201527f4f776e61626c653a2063616c6c6572206973206e6f7420746865206f776e6572604482015290519081900360640190fd5b6114ec6114ab856114a5898961223a565b9061223a565b670de0b6b3a76400001480156114c95750670de0b6b3a76400008411155b80156114e557506114da838361223a565b670de0b6b3a7640000145b606561221c565b606695909555606793909355606891909155606d55608555608655565b6000816001600160a01b031663e4df5e1a6040518163ffffffff1660e01b815260040160206040518083038186803b15801561154457600080fd5b505afa158015611558573d6000803e3d6000fd5b505050506040513d602081101561156e57600080fd5b5051156115a157600061158083612ee7565b509150508060098151811061159157fe5b602002602001015191505061072f565b50600061072f565b6115b1613635565b606e546040805163364d118160e01b81526001600160a01b038781166004830152915161160393929092169163364d118191602480820192602092909190829003018186803b15801561079657600080fd5b61160f848484846136e6565b50505050565b606654606754606854606d54608554608654909192939495565b60006116426002607e541415605461221c565b6002607e55606e546040805163364d118160e01b81523360048201529051611693926001600160a01b03169163364d1181916024808301926020929190829003018186803b15801561079657600080fd5b61169d838361376c565b6001607e559392505050565b6033546001600160a01b031690565b604080516003808252608082019092526000918391839160208201606080368337019050509050816001600160a01b031663bf1dcfe26040518163ffffffff1660e01b815260040160e06040518083038186803b15801561171857600080fd5b505afa15801561172c573d6000803e3d6000fd5b505050506040513d60e081101561174257600080fd5b50608081015160a082015160c0909201518351919291849060009061176357fe5b602002602001018460018151811061177757fe5b602002602001018560028151811061178b57fe5b602002602001018381525083815250838152505050506117c4816001815181106117b157fe5b602002602001015160001415603161221c565b606554826001600160a01b0316636db9cc996040518163ffffffff1660e01b815260040160206040518083038186803b15801561180057600080fd5b505afa158015611814573d6000803e3d6000fd5b505050506040513d602081101561182a57600080fd5b505110158061184f57506065548160018151811061184457fe5b602002602001015110155b801561185c575060655415155b15611c25576000826001600160a01b0316636db40dc26040518163ffffffff1660e01b815260040160206040518083038186803b15801561189c57600080fd5b505afa1580156118b0573d6000803e3d6000fd5b505050506040513d60208110156118c657600080fd5b50519050801561190c57611902816040518060400160405280601081526020016f6f766572666c6f77203936206269747360801b81525061387a565b935050505061072f565b604080516002808252606082018352600092602083019080368337019050509050836001600160a01b031663ffb5cd096040518163ffffffff1660e01b81526004016101c06040518083038186803b15801561196757600080fd5b505afa15801561197b573d6000803e3d6000fd5b505050506040513d6101c081101561199257600080fd5b5060c081015160e090910151825183906000906119ab57fe5b60200260200101836001815181106119bf57fe5b6020026020010182815250828152505050600080611a05856000815181106119e357fe5b6020026020010151866001815181106119f857fe5b602002602001015161391d565b9092509050670de0b6b3a764000060005b83811015611b56576000611a3d611a346276a700610e2c878661223a565b6065549061223a565b6001600160a01b038c166000908152607c602052604081209192509081611a64878661223a565b8152602001908152602001600020600201549050600060746000611a91868961223a90919063ffffffff16565b8152602001908152602001600020600201549050611ab381831115604761221c565b86611abf85600161223a565b1415611aff57611afc611adf611ad8856276a70061222a565b859061222a565b611af6611aef866276a70061222a565b429061222a565b90612bf1565b94505b6000611b3886611b32611b1a611b158b8a61223a565b612803565b6bffffffffffffffffffffffff16611b328787612bf1565b90613a16565b9050611b448a8261223a565b99505060019093019250611a16915050565b506000611b9485600081518110611b6957fe5b602002602001015186600181518110611b7e57fe5b6020026020010151612bf190919063ffffffff16565b90506000611baa87671bc16d674ec80000613a16565b9050611bd6611bc883611b326085548b613a1690919063ffffffff16565b6086546114a5908a90613a16565b9650808710611be3578096505b611c15876040518060400160405280601081526020016f6f766572666c6f77203936206269747360801b81525061387a565b995050505050505050505061072f565b60009250505061072f565b6040805160088082526101208201909252606091600091906020820161010080368337019050509050836001600160a01b031663e4df5e1a6040518163ffffffff1660e01b815260040160206040518083038186803b158015611c9257600080fd5b505afa158015611ca6573d6000803e3d6000fd5b505050506040513d6020811015611cbc57600080fd5b505115611daa576000846001600160a01b03166356ba88b86040518163ffffffff1660e01b815260040160206040518083038186803b158015611cfe57600080fd5b505afa158015611d12573d6000803e3d6000fd5b505050506040513d6020811015611d2857600080fd5b5051905060008080611d3988612ee7565b9250925092506000611d83858985600181518110611d5357fe5b6020026020010151600014611d7c5785600181518110611d6f57fe5b6020026020010151611d7e565b425b610cd3565b9050611d94858a868b858888613a2e565b9550611da285898886613d2b565b955050505050505b90505b92915050565b611dbc3361254c565b611dc7338383612657565b5050565b60655481565b611dd96124ad565b6001600160a01b0316611dea6116a9565b6001600160a01b031614611e45576040805162461bcd60e51b815260206004820181905260248201527f4f776e61626c653a2063616c6c6572206973206e6f7420746865206f776e6572604482015290519081900360640190fd5b6001600160a01b038116611e8a5760405162461bcd60e51b8152600401808060200182810382526026815260200180615e9f6026913960400191505060405180910390fd5b6033546040516001600160a01b038084169216907f8be0079c531659141344cd1fd0a4f28419497f9722a3daafe3b4186f6b6457e090600090a36033805473ffffffffffffffffffffffffffffffffffffffff19166001600160a01b0392909216919091179055565b60408051600c8082526101a08201909252606091829160009160208201610180803683375050604080516002808252606082018352939450600093909250906020830190803683375050506001600160a01b038781166000818152607760209081526040808320948b168352938152838220828052600481018252848320938352607982528483208380529091529281208354875195965093949293909290918791611f9b57fe5b602002602001018181525050826001015485600181518110611fb957fe5b602002602001018181525050826003015485600281518110611fd757fe5b602002602001018181525050816000015485600381518110611ff557fe5b602002602001018181525050886001600160a01b03166370a08231896040518263ffffffff1660e01b815260040180826001600160a01b0316815260200191505060206040518083038186803b15801561204e57600080fd5b505afa158015612062573d6000803e3d6000fd5b505050506040513d602081101561207857600080fd5b505185518690600490811061208957fe5b6020026020010181815250508160030154856005815181106120a757fe5b6020026020010181815250508160010154856006815181106120c557fe5b6020026020010181815250508160020154856007815181106120e357fe5b602002602001018181525050607b60008a6001600160a01b03166001600160a01b03168152602001908152602001600020548560088151811061212257fe5b60200260200101818152505080600001548560098151811061214057fe5b602002602001018181525050806001015485600a8151811061215e57fe5b602002602001018181525050806002015485600b8151811061217c57fe5b6020908102919091018101919091526001600160a01b038a16600090815260849091526040812054855160ff9091169186916121b457fe5b9115156020928302919091018201526001600160a01b03808b166000908152608383526040808220928c16825291909252902054845160ff90911690859060019081106121fd57fe5b9115156020928302919091019091015250929791965090945050505050565b81611dc757611dc781613fce565b80820382811115611dad57600080fd5b80820182811015611dad57600080fd5b6001600160a01b038316600090815260796020908152604080832083805290915290206001810154156122a5576122a061229584610e2c84600101544261222a90919063ffffffff16565b60028301549061223a565b6122a8565b60005b600282015560018101541561237f5761237a612329856001600160a01b031663cb12233b6040518163ffffffff1660e01b815260040160206040518083038186803b1580156122f657600080fd5b505afa15801561230a573d6000803e3d6000fd5b505050506040513d602081101561232057600080fd5b5051429061222a565b612374846114a561236c896001600160a01b031663cb12233b6040518163ffffffff1660e01b815260040160206040518083038186803b1580156122f657600080fd5b865490612bcd565b90614021565b612381565b815b81554260018201558161160f57600060018201819055808255600282015550505050565b6001600160a01b03808516600090815260776020908152604080832093871683529281528282208280526004810190915291902081541561240e576124096123fe85610e2c85600001544261222a90919063ffffffff16565b60038301549061223a565b612411565b60005b600382015581541561245a5761245561243783600101544261222a90919063ffffffff16565b612374856114a561236c87600101544261222a90919063ffffffff16565b61245c565b825b815583158061246d57506001820154155b15612479574260018301555b428255826124a557600080835560018301819055808255600382018190556124a5906002840190615e70565b505050505050565b3390565b606e54604080517f5b14f183000000000000000000000000000000000000000000000000000000008152306004820152905161254a926001600160a01b031691635b14f183916024808301926020929190829003018186803b15801561251657600080fd5b505afa15801561252a573d6000803e3d6000fd5b505050506040513d602081101561254057600080fd5b505115605361221c565b565b6000816001600160a01b03166356ba88b86040518163ffffffff1660e01b815260040160206040518083038186803b15801561258757600080fd5b505afa15801561259b573d6000803e3d6000fd5b505050506040513d60208110156125b157600080fd5b5051606e546040805163364d118160e01b81526001600160a01b038085166004830152915193945061260793919092169163364d1181916024808301926020929190829003018186803b15801561079657600080fd5b611dc7816001600160a01b03166306061dfa846040518263ffffffff1660e01b815260040180826001600160a01b0316815260200191505060206040518083038186803b1580156110cc57600080fd5b6000836001600160a01b03166356ba88b86040518163ffffffff1660e01b815260040160206040518083038186803b15801561269257600080fd5b505afa1580156126a6573d6000803e3d6000fd5b505050506040513d60208110156126bc57600080fd5b5051604080517ff85cb5c800000000000000000000000000000000000000000000000000000000815290516001600160a01b039092169163f85cb5c891600480820192602092909190829003018186803b15801561271957600080fd5b505afa15801561272d573d6000803e3d6000fd5b505050506040513d602081101561274357600080fd5b50519050600061275582868686614088565b90506127da6127cd836001600160a01b031663313ce5676040518163ffffffff1660e01b815260040160206040518083038186803b15801561279657600080fd5b505afa1580156127aa573d6000803e3d6000fd5b505050506040513d60208110156127c057600080fd5b505160129060ff1661222a565b600a0a610e2c8684613a16565b93506127e4614274565b6127ed856146f5565b6127f8858585614b31565b505042608155505050565b60006128146001831015604a61221c565b61020182106128255750600061072f565b600061284f61283584600161222a565b6128496701aa535d3d0c00006114a5614c1b565b90614c27565b90506000612867690b581ceb141f05c1ae0083612bf1565b905061289b816040518060400160405280601081526020016f6f766572666c6f77203936206269747360801b81525061387a565b9250505061072f565b600054610100900460ff16806128bd57506128bd614c68565b806128cb575060005460ff16155b6129065760405162461bcd60e51b815260040180806020018281038252602e815260200180615ec5602e913960400191505060405180910390fd5b600054610100900460ff16158015612931576000805460ff1961ff0019909116610100171660011790555b612939614c79565b612941614d19565b8015612953576000805461ff00191690555b50565b60408051600980825261014082019092526060916000919060208201610120803683375050506001600160a01b0385811660008181526077602090815260408083209489168352938152838220928252607981528382208280529052918220815484519495509193909285916129c857fe5b6020026020010181815250508160010154836001815181106129e657fe5b602002602001018181525050856001600160a01b03166370a08231866040518263ffffffff1660e01b815260040180826001600160a01b0316815260200191505060206040518083038186803b158015612a3f57600080fd5b505afa158015612a53573d6000803e3d6000fd5b505050506040513d6020811015612a6957600080fd5b5051835184906002908110612a7a57fe5b6020026020010181815250508160040160008081526020019081526020016000206003015483600381518110612aac57fe5b6020026020010181815250508160040160008081526020019081526020016000206000015483600481518110612ade57fe5b602002602001018181525050806001015483600581518110612afc57fe5b602002602001018181525050806002015483600681518110612b1a57fe5b602002602001018181525050806000015483600781518110612b3857fe5b602002602001018181525050856001600160a01b03166318160ddd6040518163ffffffff1660e01b815260040160206040518083038186803b158015612b7d57600080fd5b505afa158015612b91573d6000803e3d6000fd5b505050506040513d6020811015612ba757600080fd5b5051835184906008908110612bb857fe5b60209081029190910101525090949350505050565b6000821580612be857505081810281838281612be557fe5b04145b611dad57600080fd5b6000611daa8261237485670de0b6b3a7640000612bcd565b6060612c8e866001600160a01b0316866001600160a01b03166356ba88b86040518163ffffffff1660e01b815260040160206040518083038186803b158015612c5157600080fd5b505afa158015612c65573d6000803e3d6000fd5b505050506040513d6020811015612c7b57600080fd5b50516001600160a01b031614604961221c565b604080516008808252610120820190925260009160208201610100803683370190505090506000806000886001600160a01b0316632aba2af46040518163ffffffff1660e01b815260040160006040518083038186803b158015612cf157600080fd5b505afa158015612d05573d6000803e3d6000fd5b505050506040513d6000823e601f3d908101601f191682016040526060811015612d2e57600080fd5b815160208301805160405192949293830192919084640100000000821115612d5557600080fd5b908301906020820185811115612d6a57600080fd5b8251866020820283011164010000000082111715612d8757600080fd5b82525081516020918201928201910280838360005b83811015612db4578181015183820152602001612d9c565b5050505090500160405260200180516040519392919084640100000000821115612ddd57600080fd5b908301906020820185811115612df257600080fd5b8251866020820283011164010000000082111715612e0f57600080fd5b82525081516020918201928201910280838360005b83811015612e3c578181015183820152602001612e24565b505050509050016040525050509250925092508582600181518110612e5d57fe5b6020026020010151118015612e8557508682600181518110612e7b57fe5b6020026020010151115b8015612e9057508615155b15612ed9576000612eb68b8a85600181518110612ea957fe5b6020026020010151610cd3565b9050612ec78b8b868c858888613a2e565b9450612ed58b8a8786613d2b565b9450505b509198975050505050505050565b6000606080836001600160a01b0316632aba2af46040518163ffffffff1660e01b815260040160006040518083038186803b158015612f2557600080fd5b505afa158015612f39573d6000803e3d6000fd5b505050506040513d6000823e601f3d908101601f191682016040526060811015612f6257600080fd5b815160208301805160405192949293830192919084640100000000821115612f8957600080fd5b908301906020820185811115612f9e57600080fd5b8251866020820283011164010000000082111715612fbb57600080fd5b82525081516020918201928201910280838360005b83811015612fe8578181015183820152602001612fd0565b505050509050016040526020018051604051939291908464010000000082111561301157600080fd5b90830190602082018581111561302657600080fd5b825186602082028301116401000000008211171561304357600080fd5b82525081516020918201928201910280838360005b83811015613070578181015183820152602001613058565b505050509050016040525050508093508194508295505050508160098151811061309657fe5b602002602001015160001415806130c15750816000815181106130b557fe5b60200260200101516000145b156130cb5761362e565b836001600160a01b0316630126c6066040518163ffffffff1660e01b815260040160206040518083038186803b15801561310457600080fd5b505afa158015613118573d6000803e3d6000fd5b505050506040513d602081101561312e57600080fd5b505182518390600790811061313f57fe5b60200260200101818152505061319f61317c6605543df729c0008460078151811061316657fe5b6020026020010151614e1f90919063ffffffff16565b8360078151811061318957fe5b602002602001015161222a90919063ffffffff16565b826007815181106131ac57fe5b6020026020010181815250506729a2241af62c00006131e6836006815181106131d157fe5b602002602001015184600781518110611b7e57fe5b1161320557816007815181106131f857fe5b602002602001015161321b565b8160068151811061321257fe5b60200260200101515b8260078151811061322857fe5b6020026020010181815250508160068151811061324157fe5b60200260200101518260078151811061325657fe5b6020026020010151101561326b57600061326e565b60015b8160008151811061327b57fe5b6020026020010190151590811515815250508160088151811061329a57fe5b6020026020010151826007815181106132af57fe5b602002602001015110156132c45760006132c7565b60015b816001815181106132d457fe5b602002602001019015159081151581525050806000815181106132f357fe5b602002602001015161330657600061332b565b61332b8260068151811061331657fe5b60200260200101518360078151811061318957fe5b82600a8151811061333857fe5b6020026020010181815250508060018151811061335157fe5b6020026020010151613387576133828260078151811061336d57fe5b60200260200101518360088151811061318957fe5b613397565b6133978260088151811061331657fe5b82600b815181106133a457fe5b602002602001018181525050600080613428606554856000815181106133c657fe5b60200260200101511180156133dc575060655415155b61340c576001600160a01b0387166000908152607c60209081526040808320600180855292529091200154613422565b8460008151811061341957fe5b60200260200101515b4261391d565b9150915060008267ffffffffffffffff8111801561344557600080fd5b5060405190808252806020026020018201604052801561346f578160200160208202803683370190505b50905060008367ffffffffffffffff8111801561348b57600080fd5b506040519080825280602002602001820160405280156134b5578160200160208202803683370190505b50905060005b84811015613583576001600160a01b0389166000908152607c60205260408120906134e6868461223a565b81526020019081526020016000206002015483828151811061350457fe5b60209081029190910101526074600061351d868461223a565b81526020019081526020016000206002015482828151811061353b57fe5b60200260200101818152505061357b82828151811061355657fe5b602002602001015184838151811061356a57fe5b60200260200101511115604761221c565b6001016134bb565b506135ca8285858960028151811061359757fe5b6020026020010151608260008e6001600160a01b03166001600160a01b0316815260200190815260200160002054614e3b565b91506135dd818585608154607054614e3b565b90506136108282858761360b8b6006815181106135f657fe5b60200260200101518c600781518110611b7e57fe5b614fb9565b8660098151811061361d57fe5b602002602001018181525050505050505b9193909250565b606e54604080517f13bc6d4b00000000000000000000000000000000000000000000000000000000815233600482015290516136cd926001600160a01b0316916313bc6d4b916024808301926020929190829003018186803b15801561369a57600080fd5b505afa1580156136ae573d6000803e3d6000fd5b505050506040513d60208110156136c457600080fd5b5051604861221c565b606e5461254a906001600160a01b03163314601061221c565b6137086136f7826114a5868661223a565b670d2f13f7789f000014605c61221c565b6069548314158061371b5750606a548214155b806137285750606b548114155b1561160f576001600160a01b03939093166000908152608060209081526040808320805460ff19166001908117909155607f90925290912092835582015560020155565b60006137766124b1565b606f54604080517f70a0823100000000000000000000000000000000000000000000000000000000815230600482015290516000926001600160a01b0316916370a08231916024808301926020929190829003018186803b1580156137da57600080fd5b505afa1580156137ee573d6000803e3d6000fd5b505050506040513d602081101561380457600080fd5b5051905060008184116138175783613819565b815b905061134d606f60009054906101000a90046001600160a01b031686613867846040518060400160405280601081526020016f6f766572666c6f77203936206269747360801b81525061387a565b6bffffffffffffffffffffffff16615103565b6000816c0100000000000000000000000084106139155760405162461bcd60e51b81526004018080602001828103825283818151815260200191508051906020019080838360005b838110156138da5781810151838201526020016138c2565b50505050905090810190601f1680156139075780820380516001836020036101000a031916815260200191505b509250505060405180910390fd5b509192915050565b6000806065548410156139305760655493505b6000613955670de0b6b3a76400006123746276a70061394f888a61222a565b90615183565b90506000613981670de0b6b3a76400006123746276a70061394f6065548b61222a90919063ffffffff16565b905060006139ad670de0b6b3a76400006123746276a70061394f6065548b61222a90919063ffffffff16565b90508082141580156139c857506139c582600161223a565b81145b80156139df57506276a7006139dd878961222a565b105b156139f2576139ef83600161223a565b92505b6139fd83600161223a565b613a0883600161223a565b945094505050509250929050565b6000611daa670de0b6b3a76400006123748585612bcd565b6040805160088082526101208201909252606091600091906020820161010080368337019050509050856001600160a01b0316876001600160a01b031614613a77576000613a81565b613a818484615205565b81600081518110613a8e57fe5b602002602001018181525050856001600160a01b0316876001600160a01b0316148015613ad3575082600081518110613ac357fe5b6020026020010151151560011515145b613ade576000613afc565b613afc8985600a81518110613aef57fe5b6020026020010151615346565b81600181518110613b0957fe5b602002602001018181525050613b2188878686615396565b81600281518110613b2e57fe5b60200260200101818152505082600081518110613b4757fe5b602002602001015115156001151514613b61576000613b6e565b613b6e8989888787615697565b81600381518110613b7b57fe5b602002602001018181525050613ba584600981518110613b9757fe5b60200260200101518661586a565b81600481518110613bb257fe5b602002602001018181525050613c058987613c0084600481518110613bd357fe5b60200260200101516114a586600281518110613beb57fe5b602002602001015187600081518110610e3f57fe5b615886565b81600581518110613c1257fe5b602002602001018181525050613c4381600381518110613c2e57fe5b602002602001015182600181518110610e3f57fe5b81600681518110613c5057fe5b602002602001018181525050613c9981600481518110613c6c57fe5b60200260200101516114a583600281518110613c8457fe5b602002602001015184600081518110610e3f57fe5b81600581518110613ca657fe5b602002602001015111613cba576000613d07565b613d07613cfa82600481518110613ccd57fe5b60200260200101516114a584600281518110613ce557fe5b602002602001015185600081518110610e3f57fe5b8260058151811061318957fe5b81600781518110613d1457fe5b602090810291909101015298975050505050505050565b604080517f1bf987740000000000000000000000000000000000000000000000000000000081526001600160a01b0385811660048301528616602482015290516060916000917326231a65ef80706307bbe71f032dc1e5bf28ce4391631bf987749160448083019260e0929190829003018186803b158015613dac57600080fd5b505afa158015613dc0573d6000803e3d6000fd5b505050506040513d601f19601f8201168201806040525060e0811015613de557600080fd5b5090506000613e24826006602002015185600081518110613e0257fe5b602002602001015186600181518110613e1757fe5b6020026020010151615b27565b825190915015801590613e375750600081115b15613fc357613e6f613e62613e55838560025b602002015190613a16565b8760008151811061316657fe5b86600081518110610e3f57fe5b85600081518110613e7c57fe5b6020908102919091010152613eb3613ea6613e9983856003613e4a565b8760028151811061316657fe5b86600281518110610e3f57fe5b85600281518110613ec057fe5b6020908102919091010152613ef7613eea613edd83856004613e4a565b8760048151811061316657fe5b86600481518110610e3f57fe5b85600481518110613f0457fe5b6020908102919091010152613f3b613f2e613f2183856005613e4a565b8760078151811061316657fe5b86600781518110610e3f57fe5b85600781518110613f4857fe5b602002602001018181525050613fa985600781518110613f6457fe5b60200260200101516114a587600481518110613f7c57fe5b60200260200101516114a589600281518110613f9457fe5b60200260200101518a600081518110610e3f57fe5b85600581518110613fb657fe5b6020026020010181815250505b509295945050505050565b62461bcd60e51b6000908152602060045260076024526642414223000030600a808404818106603090810160081b95839006959095019082900491820690940160101b939093010160c81b604452606490fd5b6000808211614077576040805162461bcd60e51b815260206004820152601a60248201527f536166654d6174683a206469766973696f6e206279207a65726f000000000000604482015290519081900360640190fd5b81838161408057fe5b049392505050565b600080606e60009054906101000a90046001600160a01b03166001600160a01b0316632630c12f6040518163ffffffff1660e01b815260040160206040518083038186803b1580156140d957600080fd5b505afa1580156140ed573d6000803e3d6000fd5b505050506040513d602081101561410357600080fd5b5051604080517fac41865a0000000000000000000000000000000000000000000000000000000081526001600160a01b038981166004830152736b175474e89094c44da98b954eedeac495271d0f602483015291519293506000929184169163ac41865a91604480820192602092909190829003018186803b15801561418857600080fd5b505afa15801561419c573d6000803e3d6000fd5b505050506040513d60208110156141b257600080fd5b50516001600160a01b0387166000908152607d602052604090208054919250906141e857858155600101819055915061134d9050565b841561423f578054614227906141fe908861223a565b611af6670de0b6b3a76400006123746142178b88612bcd565b865460018801546114a591612bcd565b60018201558054614238908761223a565b8155614266565b805460009087116142505786614253565b81545b8254909150614262908261222a565b8255505b60010154925061134d915050565b60408051600480825260a0820190925260009160208201608080368337505060815491925050156142af576142aa608154615bb0565b6142b2565b60015b816000815181106142bf57fe5b6020026020010181815250506142d442615bb0565b816001815181106142e157fe5b60209081029190910101526081546142fa90429061222a565b8160028151811061430757fe5b6020026020010181815250506000607460008360018151811061432657fe5b602002602001015181526020019081526020016000209050608154600014614376576143718260028151811061435857fe5b6020026020010151607054612bcd90919063ffffffff16565b614379565b60005b8260038151811061438657fe5b60200260200101818152505060756000836001815181106143a357fe5b60209081029190910181015182528101919091526040016000205460ff16614692576081541561464d576143df60018360018151811061318957fe5b826000815181106143ec57fe5b602002602001015114156144cc576144498260028151811061440a57fe5b602002602001015161237461443c611aef611a346276a7006144366276a7008a600181518110610eb457fe5b9061222a565b85600381518110610eb457fe5b60028201819055825161449d91614467918590600390811061318957fe5b6074600061447d60018760018151811061318957fe5b81526020019081526020016000206002015461223a90919063ffffffff16565b607460006144b360018660018151811061318957fe5b815260208101919091526040016000206002015561464d565b60005b6144f4836000815181106144df57fe5b60200260200101518460018151811061318957fe5b811161464b576000607460006145118487600081518110610e3f57fe5b81526020019081526020016000209050600061453e611a346276a700610e2c8689600081518110610e3f57fe5b90508261459a576145906145858660028151811061455857fe5b60200260200101516123746145786081548661222a90919063ffffffff16565b89600381518110610eb457fe5b60028401549061223a565b6002830155614641565b6145bf856000815181106145aa57fe5b60200260200101518660018151811061318957fe5b8310156145f257614590856002815181106145d657fe5b60200260200101516123746276a70088600381518110610eb457fe5b61463b8560028151811061460257fe5b602002602001015161237461462e611aef611a346276a7006144366276a7008d600181518110610eb457fe5b88600381518110610eb457fe5b60028501555b50506001016144cf565b505b6001607560008460018151811061466057fe5b6020026020010151815260200190815260200160002060006101000a81548160ff021916908315150217905550611dc7565b6146bd826003815181106146a257fe5b6020026020010151826002015461223a90919063ffffffff16565b81600201819055506146ee826003815181106146d557fe5b602002602001015160735461223a90919063ffffffff16565b6073555050565b60408051600580825260c082019092526000916020820160a080368337019050509050816001600160a01b031663bf1dcfe26040518163ffffffff1660e01b815260040160e06040518083038186803b15801561475157600080fd5b505afa158015614765573d6000803e3d6000fd5b505050506040513d60e081101561477b57600080fd5b50608081015160c0909101518251839060009061479457fe5b60200260200101836001815181106147a857fe5b6020026020010182815250828152505050606554816001815181106147c957fe5b6020026020010151101561482b576001600160a01b0382166000908152607c60209081526040808320600180855292529091209081015461480b574260018201555b80600101548260018151811061481d57fe5b602002602001018181525050505b61483b81600181518110610e1557fe5b8160028151811061484857fe5b60200260200101818152505061485d42615bb0565b8160038151811061486a57fe5b6020026020010181815250506000607c6000846001600160a01b03166001600160a01b031681526020019081526020016000206000836003815181106148ac57fe5b602002602001015181526020019081526020016000209050614910826002815181106148d457fe5b602002602001015160826000866001600160a01b03166001600160a01b0316815260200190815260200160002054612bcd90919063ffffffff16565b8260048151811061491d57fe5b6020908102919091010152600381015460ff16614b17576149518260008151811061494457fe5b6020026020010151615bb0565b8260038151811061495e57fe5b60200260200101511115614b035760008061497f8460018151811061341957fe5b9150915060005b82811015614aff576001600160a01b0386166000908152607c60205260408120816149b1858561223a565b8152602001908152602001600020905060006149e0611a346276a700610e2c868861223a90919063ffffffff16565b905082614a4357614a39614585886002815181106149fa57fe5b6020026020010151612374614a2c8b600181518110614a1557fe5b60200260200101518661222a90919063ffffffff16565b8b600481518110610eb457fe5b6002830155614af5565b600083118015614a5c575084614a5a84600161223a565b105b15614aa657614a8d87600281518110614a7157fe5b60200260200101516123746276a7008a600481518110610eb457fe5b600283015560038201805460ff19166001179055614af5565b614aef87600281518110614ab657fe5b6020026020010151612374614ae2611aef611a346276a7006144366276a7008f600381518110610eb457fe5b8a600481518110610eb457fe5b60028301555b5050600101614986565b5050505b60038101805460ff191660011790556108c3565b614b27826004815181106146a257fe5b6002820155505050565b80614bca576001600160a01b0383166000908152608260205260408120548311614b5b5782614b75565b6001600160a01b0384166000908152608260205260409020545b607054909150614b85908261222a565b6070556001600160a01b038416600090815260826020526040902054614bab908261222a565b6001600160a01b038516600090815260826020526040902055506108c3565b607054614bd7908361223a565b6070556001600160a01b038316600090815260826020526040902054614bfd908361223a565b6001600160a01b038416600090815260826020526040902055505050565b670de0b6b3a764000090565b600080614c32614c1b565b90505b8215611daa576002830615614c5157614c4e8185614e1f565b90505b614c5b8480614e1f565b9350600283049250614c35565b6000614c7330615bf9565b15905090565b600054610100900460ff1680614c925750614c92614c68565b80614ca0575060005460ff16155b614cdb5760405162461bcd60e51b815260040180806020018281038252602e815260200180615ec5602e913960400191505060405180910390fd5b600054610100900460ff16158015612941576000805460ff1961ff0019909116610100171660011790558015612953576000805461ff001916905550565b600054610100900460ff1680614d325750614d32614c68565b80614d40575060005460ff16155b614d7b5760405162461bcd60e51b815260040180806020018281038252602e815260200180615ec5602e913960400191505060405180910390fd5b600054610100900460ff16158015614da6576000805460ff1961ff0019909116610100171660011790555b6000614db06124ad565b6033805473ffffffffffffffffffffffffffffffffffffffff19166001600160a01b038316908117909155604051919250906000907f8be0079c531659141344cd1fd0a4f28419497f9722a3daafe3b4186f6b6457e0908290a3508015612953576000805461ff001916905550565b6000670de0b6b3a7640000614e348484612bcd565b8161408057fe5b60606000614e4884615bb0565b90506000614e5542615bb0565b90506000614e63428761222a565b90506000614e718683612bcd565b90508015614fab5760005b89811015614fa9576000614e9a611a346276a700610e2c8d8661223a565b905081158015614ea957508986145b8015614eb457508486105b15614efd57614ee0614ed485612374614ecd858e61222a565b8790612bcd565b8d8481518110610e3f57fe5b8c8381518110614eec57fe5b602002602001018181525050614fa0565b600082118015614f1657508a614f1483600161223a565b105b8015614f2b5750614f278a8361223a565b8611155b15614f4457614ee0614ed485612374866276a700612bcd565b84614f4f8b8461223a565b1415614fa05784861415614f6d57614ee0838d8481518110610e3f57fe5b614f87614ed485612374614ecd611aef866276a70061222a565b8c8381518110614f9357fe5b6020026020010181815250505b50600101614e7c565b505b509798975050505050505050565b600080670de0b6b3a7640000815b858110156150a85785614fdb82600161223a565b1415615027576000614ff7611a346276a700610e2c8b8661223a565b905061502361501361500c836276a70061222a565b839061222a565b611af6611aef846276a70061222a565b9250505b600061509183611b3261503d611b158c8761223a565b6bffffffffffffffffffffffff16611b328d878151811061505a57fe5b6020026020010151600014615082578d878151811061507557fe5b6020026020010151615085565b60015b8f8881518110611b7e57fe5b905061509d848261223a565b935050600101614fc7565b5060006150bd83671bc16d674ec80000613a16565b90506150e96150db86611b3260855487613a1690919063ffffffff16565b6086546114a5908690613a16565b92508083106150f6578092505b5090979650505050505050565b604080516001600160a01b038416602482015260448082018490528251808303909101815260649091019091526020810180517bffffffffffffffffffffffffffffffffffffffffffffffffffffffff167fa9059cbb000000000000000000000000000000000000000000000000000000001790526108c3908490615bff565b6000816151d7576040805162461bcd60e51b815260206004820152601060248201527f43616e7420646976696465206279203000000000000000000000000000000000604482015290519081900360640190fd5b600083116151e6576000611daa565b611daa60016114a5846123748361443689670de0b6b3a7640000612bcd565b60008061521b6066548560098151811061316657fe5b90508260008151811061522a57fe5b602002602001015115156001151514801561525d57508260018151811061524d57fe5b6020026020010151151560011515145b156152b657600061526f826002612bcd565b90506152a06152998660068151811061528457fe5b602002602001015187600781518110611b7e57fe5b8390613a16565b9150808211156152ae578091505b509050611dad565b826000815181106152c357fe5b60200260200101511515600115151480156152f35750826001815181106152e657fe5b6020908102919091010151155b1561533c5761533461532d61500c6153268760088151811061531157fe5b602002602001015188600781518110611b7e57fe5b8490613a16565b829061222a565b915050611dad565b6000915050611dad565b6001600160a01b038216600090815260806020526040812054819060ff166153705760695461538a565b6001600160a01b0384166000908152607f60205260409020545b905061134d8382614e1f565b600080856001600160a01b031663950c7822866040518263ffffffff1660e01b815260040180826001600160a01b0316815260200191505060206040518083038186803b1580156153e657600080fd5b505afa1580156153fa573d6000803e3d6000fd5b505050506040513d602081101561541057600080fd5b5051845190915060009061542b908690600590811061125657fe5b905060008060008413801561545857508560008151811061544857fe5b6020026020010151151560011515145b801561547c57508560018151811061546c57fe5b6020026020010151151560011515145b156154c5576154be6154ab8860048151811061549457fe5b602002602001015186612bf190919063ffffffff16565b611b326067548a60098151811061316657fe5b905061568b565b6000841380156154ed5750856000815181106154dd57fe5b6020026020010151151560011515145b801561550e57508560018151811061550157fe5b6020908102919091010151155b1561554d576155206154ab8585612bf1565b90506154be61532d6152998960088151811061553857fe5b60200260200101518a600b81518110611b7e57fe5b60008413801561557257508560008151811061556557fe5b6020908102919091010151155b1561557f5750600061568b565b6000841280156155a457508560018151811061559757fe5b6020908102919091010151155b1561565a576000866000815181106155b857fe5b60200260200101516155de57876005815181106155d157fe5b60200260200101516155e0565b835b90506156056155f282611af688615cb0565b611b326067548b60098151811061316657fe5b9150615612826002612bcd565b925061564661563f6153268a60088151811061562a57fe5b60200260200101518b600b81518110611b7e57fe5b839061223a565b915082821115615654578291505b5061568b565b60008412801561568257508560018151811061567257fe5b6020026020010151151560011515145b1561568b575060005b98975050505050505050565b600080856001600160a01b031663950c7822866040518263ffffffff1660e01b815260040180826001600160a01b0316815260200191505060206040518083038186803b1580156156e757600080fd5b505afa1580156156fb573d6000803e3d6000fd5b505050506040513d602081101561571157600080fd5b5051845190915060009061572c908690600590811061125657fe5b6001600160a01b0389166000908152608060205260408120549192509060ff1661575857606a54615775565b6001600160a01b0389166000908152607f60205260409020600101545b905060008313156157da5760008560018151811061578f57fe5b60200260200101516157a157826157b7565b866004815181106157ae57fe5b60200260200101515b90506157d281611af686611b32868c600a8151811061316657fe5b94505061585e565b6000831280156157ff5750846001815181106157f257fe5b6020908102919091010151155b1561582c5761582582611af661581486615cb0565b611b32858b600a8151811061316657fe5b935061585e565b60008312801561585457508460018151811061584457fe5b6020026020010151151560011515145b1561585e57600093505b50505095945050505050565b60008061134d83611b3260685487614e1f90919063ffffffff16565b6000808490506000846001600160a01b0316826001600160a01b03166302d05d3f6040518163ffffffff1660e01b815260040160206040518083038186803b1580156158d157600080fd5b505afa1580156158e5573d6000803e3d6000fd5b505050506040513d60208110156158fb57600080fd5b5051604080517f02d05d3f00000000000000000000000000000000000000000000000000000000815290516001600160a01b0392831693909314935060009283928616916302d05d3f916004808301926020929190829003018186803b15801561596457600080fd5b505afa158015615978573d6000803e3d6000fd5b505050506040513d602081101561598e57600080fd5b50516001600160a01b031614156159a65760006159a9565b60015b905060005b60048160ff161015615a6f576000846001600160a01b03166363f568b9836040518263ffffffff1660e01b8152600401808260ff16815260200191505060206040518083038186803b158015615a0357600080fd5b505afa158015615a17573d6000803e3d6000fd5b505050506040513d6020811015615a2d57600080fd5b505190506001600160a01b03811615615a66576001909201918380615a635750876001600160a01b0316816001600160a01b0316145b93505b506001016159ae565b5060ff8116615b0257615af8615af1886001600160a01b031663f251fc8c6040518163ffffffff1660e01b815260040160206040518083038186803b158015615ab757600080fd5b505afa158015615acb573d6000803e3d6000fd5b505050506040513d6020811015615ae157600080fd5b5051606d54612374908990614e1f565b869061223a565b9350505050610f4c565b8115613fc357615af8615af18260ff16612374606d5489614e1f90919063ffffffff16565b6000828411158015615b395750600083115b15615b4d5750670de0b6b3a7640000610f4c565b8184108015615b5c5750600082115b15615b7f57615b78615b6e838561222a565b611af6848761222a565b9050610f4c565b4284108015615b8c575081155b15615ba857615b78615b9e428561222a565b611af6428761222a565b506000610f4c565b600080606554831015615bc4576000615bec565b615bec670de0b6b3a76400006123746276a70061394f6065548861222a90919063ffffffff16565b9050610f4c81600161223a565b3b151590565b6000615c54826040518060400160405280602081526020017f5361666545524332303a206c6f772d6c6576656c2063616c6c206661696c6564815250856001600160a01b0316615cc79092919063ffffffff16565b8051909150156108c357808060200190516020811015615c7357600080fd5b50516108c35760405162461bcd60e51b815260040180806020018281038252602a815260200180615ef3602a913960400191505060405180910390fd5b600080821215615cc35781600003611dad565b5090565b606061134d848460008585615cdb85615bf9565b615d2c576040805162461bcd60e51b815260206004820152601d60248201527f416464726573733a2063616c6c20746f206e6f6e2d636f6e7472616374000000604482015290519081900360640190fd5b600080866001600160a01b031685876040518082805190602001908083835b60208310615d6a5780518252601f199092019160209182019101615d4b565b6001836020036101000a03801982511681845116808217855250505050505090500191505060006040518083038185875af1925050503d8060008114615dcc576040519150601f19603f3d011682016040523d82523d6000602084013e615dd1565b606091505b5091509150615de1828286615dec565b979650505050505050565b60608315615dfb575081610f4c565b825115615e0b5782518084602001fd5b60405162461bcd60e51b81526020600482018181528451602484015284518593919283926044019190850190808383600083156138da5781810151838201526020016138c2565b60405180606001604052806003906020820280368337509192915050565b508054600082559060005260206000209081019061295391905b80821115615cc35760008155600101615e8a56fe4f776e61626c653a206e6577206f776e657220697320746865207a65726f2061646472657373496e697469616c697a61626c653a20636f6e747261637420697320616c726561647920696e697469616c697a65645361666545524332303a204552433230206f7065726174696f6e20646964206e6f742073756363656564a2646970667358221220735b75af0560930faaaf6fe5cf046a48703ca2894707a686c352a02d0dc0cb8a64736f6c63430007060033",
  "devdoc": {
    "kind": "dev",
    "methods": {
      "checkMining(uint256,address)": {
        "params": {
          "_quarterNum": "Number of quarter",
          "_strategy": "Address of strategy"
        }
      },
      "estimateStrategyRewards(address)": {
        "params": {
          "_strategy": "Address of the strategy to estimate BABL rewards"
        },
        "returns": {
          "_0": "the estimated BABL rewards"
        }
      },
      "estimateUserRewards(address,address)": {
        "params": {
          "_contributor": "Address of the garden contributor",
          "_strategy": "Address of the strategy to estimate BABL rewards"
        },
        "returns": {
          "_0": "Array of size 7 with the following distribution: rewards[0]: Strategist BABL rewards[1]: Strategist Profit rewards[2]: Steward BABL rewards[3]: Steward Profit rewards[4]: LP BABL rewards[5]: total BABL rewards[6]: total Profits rewards[7]: Creator bonus"
        }
      },
      "getBABLMiningParameters()": {
        "returns": {
          "_0": "Strategist, Stewards, Lps, creator bonus, bablProfit weight, babl principal weigth"
        }
      },
      "getContributorPerGarden(address,address)": {
        "params": {
          "_contributor": "Address of contributor",
          "_garden": "Address of the garden"
        }
      },
      "getContributorPower(address,address,uint256)": {
        "params": {
          "_contributor": "Address of the contributor",
          "_garden": "Address of the garden where the contributor belongs to",
          "_time": "Timestamp to check power"
        },
        "returns": {
          "_0": "uint256     Contributor power during that period"
        }
      },
      "getGardenProfitsSharing(address)": {
        "params": {
          "_garden": "Address of the garden"
        }
      },
      "getRewards(address,address,address[])": {
        "params": {
          "_contributor": "Address of the contributor to check",
          "_finalizedStrategies": "List of addresses of the finalized strategies to check",
          "_garden": "Garden to which the strategies and the user must belong to"
        },
        "returns": {
          "_0": "Array of size 7 with the following distribution: rewards[0]: Strategist BABL rewards[1]: Strategist Profit rewards[2]: Steward BABL rewards[3]: Steward Profit rewards[4]: LP BABL rewards[5]: total BABL rewards[6]: total Profits rewards[7]: Creator bonus"
        }
      },
      "getStrategyRewards(address)": {
        "params": {
          "_strategy": "Strategy to check"
        }
      },
      "owner()": {
        "details": "Returns the address of the current owner."
      },
      "renounceOwnership()": {
        "details": "Leaves the contract without owner. It will not be possible to call `onlyOwner` functions anymore. Can only be called by the current owner. NOTE: Renouncing ownership will leave the contract without an owner, thereby removing any functionality that is only available to the owner."
      },
      "setBABLMiningParameters(uint256,uint256,uint256,uint256,uint256,uint256)": {
        "params": {
          "_creatorBonus": "New % of creator bonus",
          "_lpShare": "New % of BABL lp share",
          "_principalWeight": "New % of principal weigth for strategy rewards",
          "_profitWeight": "New % of profit weigth for strategy rewards",
          "_stewardsShare": "New % of BABL stewards share",
          "_strategistShare": "New % of BABL strategist share"
        }
      },
      "setProfitRewards(address,uint256,uint256,uint256)": {
        "params": {
          "_garden": "Address of the garden",
          "_lpShare": "New % of lpShare",
          "_stewardsShare": "New % of stewardsShare",
          "_strategistShare": "New % of strategistShare"
        }
      },
      "transferOwnership(address)": {
        "details": "Transfers ownership of the contract to a new account (`newOwner`). Can only be called by the current owner."
      },
      "updateProtocolPrincipal(uint256,bool)": {
        "params": {
          "_addOrSubstract": "Whether we are adding or substracting capital",
          "_capital": "Amount of capital in any type of asset to be normalized into DAI"
        }
      },
      "updateStrategyCheckpoint(address,uint256,bool)": {
        "params": {
          "_addOrSubstract": "Whether we are adding or substracting capital",
          "_capital": "Amount of capital in any type of asset to be normalized into DAI",
          "_strategy": "Address of the strategy"
        }
      }
    },
    "version": 1
  },
  "userdoc": {
    "kind": "user",
    "methods": {
      "checkMining(uint256,address)": {
        "notice": "Check the mining program state for a specific quarter and strategy"
      },
      "estimateStrategyRewards(address)": {
        "notice": "Get an estimation of strategy BABL rewards for active strategies in the mining program"
      },
      "estimateUserRewards(address,address)": {
        "notice": "Get an estimation of user rewards for active strategies"
      },
      "getBABLMiningParameters()": {
        "notice": "Returns the percentages of BABL Mining program"
      },
      "getContributorPerGarden(address,address)": {
        "notice": "Get contributor data per garden"
      },
      "getContributorPower(address,address,uint256)": {
        "notice": "Gets the contributor power from one timestamp to the other"
      },
      "getGardenProfitsSharing(address)": {
        "notice": "Check the garden profit sharing % if different from default"
      },
      "getRewards(address,address,address[])": {
        "notice": "Calculates the profits and BABL that a contributor should receive from a series of finalized strategies"
      },
      "getStrategyRewards(address)": {
        "notice": "Gets the total amount of rewards for a given strategy"
      },
      "sendBABLToContributor(address,uint256)": {
        "notice": "Garden keeper can claim the rewards from the strategies of a user bySig was invested in."
      },
      "setBABLMiningParameters(uint256,uint256,uint256,uint256,uint256,uint256)": {
        "notice": "Change default BABL shares % by the governance"
      },
      "setProfitRewards(address,uint256,uint256,uint256)": {
        "notice": "Set customized profit shares for a specific garden by the gardener"
      },
      "updateProtocolPrincipal(uint256,bool)": {
        "notice": "Function that adds/substract the capital received to the total principal of the protocol per timestamp"
      },
      "updateStrategyCheckpoint(address,uint256,bool)": {
        "notice": "PRIVILEGE FUNCTION to update strategy data"
      }
    },
    "version": 1
  },
  "storageLayout": {
    "storage": [
      {
        "astId": 492,
        "contract": "contracts/token/RewardsDistributor.sol:RewardsDistributorV11",
        "label": "_initialized",
        "offset": 0,
        "slot": "0",
        "type": "t_bool"
      },
      {
        "astId": 495,
        "contract": "contracts/token/RewardsDistributor.sol:RewardsDistributorV11",
        "label": "_initializing",
        "offset": 1,
        "slot": "0",
        "type": "t_bool"
      },
      {
        "astId": 1447,
        "contract": "contracts/token/RewardsDistributor.sol:RewardsDistributorV11",
        "label": "__gap",
        "offset": 0,
        "slot": "1",
        "type": "t_array(t_uint256)50_storage"
      },
      {
        "astId": 10,
        "contract": "contracts/token/RewardsDistributor.sol:RewardsDistributorV11",
        "label": "_owner",
        "offset": 0,
        "slot": "51",
        "type": "t_address"
      },
      {
        "astId": 129,
        "contract": "contracts/token/RewardsDistributor.sol:RewardsDistributorV11",
        "label": "__gap",
        "offset": 0,
        "slot": "52",
        "type": "t_array(t_uint256)49_storage"
      },
      {
        "astId": 49238,
        "contract": "contracts/token/RewardsDistributor.sol:RewardsDistributorV11",
        "label": "START_TIME",
        "offset": 0,
        "slot": "101",
        "type": "t_uint256"
      },
      {
        "astId": 49240,
        "contract": "contracts/token/RewardsDistributor.sol:RewardsDistributorV11",
        "label": "strategistBABLPercentage",
        "offset": 0,
        "slot": "102",
        "type": "t_uint256"
      },
      {
        "astId": 49242,
        "contract": "contracts/token/RewardsDistributor.sol:RewardsDistributorV11",
        "label": "stewardsBABLPercentage",
        "offset": 0,
        "slot": "103",
        "type": "t_uint256"
      },
      {
        "astId": 49244,
        "contract": "contracts/token/RewardsDistributor.sol:RewardsDistributorV11",
        "label": "lpsBABLPercentage",
        "offset": 0,
        "slot": "104",
        "type": "t_uint256"
      },
      {
        "astId": 49246,
        "contract": "contracts/token/RewardsDistributor.sol:RewardsDistributorV11",
        "label": "strategistProfitPercentage",
        "offset": 0,
        "slot": "105",
        "type": "t_uint256"
      },
      {
        "astId": 49248,
        "contract": "contracts/token/RewardsDistributor.sol:RewardsDistributorV11",
        "label": "stewardsProfitPercentage",
        "offset": 0,
        "slot": "106",
        "type": "t_uint256"
      },
      {
        "astId": 49250,
        "contract": "contracts/token/RewardsDistributor.sol:RewardsDistributorV11",
        "label": "lpsProfitPercentage",
        "offset": 0,
        "slot": "107",
        "type": "t_uint256"
      },
      {
        "astId": 49252,
        "contract": "contracts/token/RewardsDistributor.sol:RewardsDistributorV11",
        "label": "profitProtocolFee",
        "offset": 0,
        "slot": "108",
        "type": "t_uint256"
      },
      {
        "astId": 49254,
        "contract": "contracts/token/RewardsDistributor.sol:RewardsDistributorV11",
        "label": "gardenCreatorBonus",
        "offset": 0,
        "slot": "109",
        "type": "t_uint256"
      },
      {
        "astId": 49324,
        "contract": "contracts/token/RewardsDistributor.sol:RewardsDistributorV11",
        "label": "controller",
        "offset": 0,
        "slot": "110",
        "type": "t_contract(IBabController)34464"
      },
      {
        "astId": 49326,
        "contract": "contracts/token/RewardsDistributor.sol:RewardsDistributorV11",
        "label": "babltoken",
        "offset": 0,
        "slot": "111",
        "type": "t_contract(TimeLockedToken)56089"
      },
      {
        "astId": 49328,
        "contract": "contracts/token/RewardsDistributor.sol:RewardsDistributorV11",
        "label": "miningProtocolPrincipal",
        "offset": 0,
        "slot": "112",
        "type": "t_uint256"
      },
      {
        "astId": 49332,
        "contract": "contracts/token/RewardsDistributor.sol:RewardsDistributorV11",
        "label": "protocolPerTimestamp",
        "offset": 0,
        "slot": "113",
        "type": "t_mapping(t_uint256,t_struct(ProtocolPerTimestamp)49274_storage)"
      },
      {
        "astId": 49335,
        "contract": "contracts/token/RewardsDistributor.sol:RewardsDistributorV11",
        "label": "timeList",
        "offset": 0,
        "slot": "114",
        "type": "t_array(t_uint256)dyn_storage"
      },
      {
        "astId": 49337,
        "contract": "contracts/token/RewardsDistributor.sol:RewardsDistributorV11",
        "label": "miningProtocolPower",
        "offset": 0,
        "slot": "115",
        "type": "t_uint256"
      },
      {
        "astId": 49341,
        "contract": "contracts/token/RewardsDistributor.sol:RewardsDistributorV11",
        "label": "protocolPerQuarter",
        "offset": 0,
        "slot": "116",
        "type": "t_mapping(t_uint256,t_struct(ProtocolPerQuarter)49283_storage)"
      },
      {
        "astId": 49345,
        "contract": "contracts/token/RewardsDistributor.sol:RewardsDistributorV11",
        "label": "isProtocolPerQuarter",
        "offset": 0,
        "slot": "117",
        "type": "t_mapping(t_uint256,t_bool)"
      },
      {
        "astId": 49351,
        "contract": "contracts/token/RewardsDistributor.sol:RewardsDistributorV11",
        "label": "rewardsPowerOverhead",
        "offset": 0,
        "slot": "118",
        "type": "t_mapping(t_address,t_mapping(t_uint256,t_uint256))"
      },
      {
        "astId": 49357,
        "contract": "contracts/token/RewardsDistributor.sol:RewardsDistributorV11",
        "label": "contributorPerGarden",
        "offset": 0,
        "slot": "119",
        "type": "t_mapping(t_address,t_mapping(t_address,t_struct(ContributorPerGarden)49304_storage))"
      },
      {
        "astId": 49363,
        "contract": "contracts/token/RewardsDistributor.sol:RewardsDistributorV11",
        "label": "checkpoints",
        "offset": 0,
        "slot": "120",
        "type": "t_mapping(t_address,t_mapping(t_address,t_struct(Checkpoints)49322_storage))"
      },
      {
        "astId": 49369,
        "contract": "contracts/token/RewardsDistributor.sol:RewardsDistributorV11",
        "label": "gardenPowerByTimestamp",
        "offset": 0,
        "slot": "121",
        "type": "t_mapping(t_address,t_mapping(t_uint256,t_struct(GardenPowerByTimestamp)49290_storage))"
      },
      {
        "astId": 49374,
        "contract": "contracts/token/RewardsDistributor.sol:RewardsDistributorV11",
        "label": "gardenTimelist",
        "offset": 0,
        "slot": "122",
        "type": "t_mapping(t_address,t_array(t_uint256)dyn_storage)"
      },
      {
        "astId": 49378,
        "contract": "contracts/token/RewardsDistributor.sol:RewardsDistributorV11",
        "label": "gardenPid",
        "offset": 0,
        "slot": "123",
        "type": "t_mapping(t_address,t_uint256)"
      },
      {
        "astId": 49398,
        "contract": "contracts/token/RewardsDistributor.sol:RewardsDistributorV11",
        "label": "strategyPerQuarter",
        "offset": 0,
        "slot": "124",
        "type": "t_mapping(t_address,t_mapping(t_uint256,t_struct(StrategyPerQuarter)49387_storage))"
      },
      {
        "astId": 49402,
        "contract": "contracts/token/RewardsDistributor.sol:RewardsDistributorV11",
        "label": "strategyPricePerTokenUnit",
        "offset": 0,
        "slot": "125",
        "type": "t_mapping(t_address,t_struct(StrategyPricePerTokenUnit)49392_storage)"
      },
      {
        "astId": 49404,
        "contract": "contracts/token/RewardsDistributor.sol:RewardsDistributorV11",
        "label": "status",
        "offset": 0,
        "slot": "126",
        "type": "t_uint256"
      },
      {
        "astId": 49410,
        "contract": "contracts/token/RewardsDistributor.sol:RewardsDistributorV11",
        "label": "gardenProfitSharing",
        "offset": 0,
        "slot": "127",
        "type": "t_mapping(t_address,t_array(t_uint256)3_storage)"
      },
      {
        "astId": 49414,
        "contract": "contracts/token/RewardsDistributor.sol:RewardsDistributorV11",
        "label": "gardenCustomProfitSharing",
        "offset": 0,
        "slot": "128",
        "type": "t_mapping(t_address,t_bool)"
      },
      {
        "astId": 49416,
        "contract": "contracts/token/RewardsDistributor.sol:RewardsDistributorV11",
        "label": "miningUpdatedAt",
        "offset": 0,
        "slot": "129",
        "type": "t_uint256"
      },
      {
        "astId": 49420,
        "contract": "contracts/token/RewardsDistributor.sol:RewardsDistributorV11",
        "label": "strategyPrincipal",
        "offset": 0,
        "slot": "130",
        "type": "t_mapping(t_address,t_uint256)"
      },
      {
        "astId": 49426,
        "contract": "contracts/token/RewardsDistributor.sol:RewardsDistributorV11",
        "label": "betaUserMigrated",
        "offset": 0,
        "slot": "131",
        "type": "t_mapping(t_address,t_mapping(t_address,t_bool))"
      },
      {
        "astId": 49430,
        "contract": "contracts/token/RewardsDistributor.sol:RewardsDistributorV11",
        "label": "betaGardenMigrated",
        "offset": 0,
        "slot": "132",
        "type": "t_mapping(t_address,t_bool)"
      },
      {
        "astId": 49432,
        "contract": "contracts/token/RewardsDistributor.sol:RewardsDistributorV11",
        "label": "bablProfitWeight",
        "offset": 0,
        "slot": "133",
        "type": "t_uint256"
      },
      {
        "astId": 49434,
        "contract": "contracts/token/RewardsDistributor.sol:RewardsDistributorV11",
        "label": "bablPrincipalWeight",
        "offset": 0,
        "slot": "134",
        "type": "t_uint256"
      }
    ],
    "types": {
      "t_address": {
        "encoding": "inplace",
        "label": "address",
        "numberOfBytes": "20"
      },
      "t_array(t_uint256)3_storage": {
        "base": "t_uint256",
        "encoding": "inplace",
        "label": "uint256[3]",
        "numberOfBytes": "96"
      },
      "t_array(t_uint256)49_storage": {
        "base": "t_uint256",
        "encoding": "inplace",
        "label": "uint256[49]",
        "numberOfBytes": "1568"
      },
      "t_array(t_uint256)50_storage": {
        "base": "t_uint256",
        "encoding": "inplace",
        "label": "uint256[50]",
        "numberOfBytes": "1600"
      },
      "t_array(t_uint256)dyn_storage": {
        "base": "t_uint256",
        "encoding": "dynamic_array",
        "label": "uint256[]",
        "numberOfBytes": "32"
      },
      "t_bool": {
        "encoding": "inplace",
        "label": "bool",
        "numberOfBytes": "1"
      },
      "t_contract(IBabController)34464": {
        "encoding": "inplace",
        "label": "contract IBabController",
        "numberOfBytes": "20"
      },
      "t_contract(TimeLockedToken)56089": {
        "encoding": "inplace",
        "label": "contract TimeLockedToken",
        "numberOfBytes": "20"
      },
      "t_mapping(t_address,t_array(t_uint256)3_storage)": {
        "encoding": "mapping",
        "key": "t_address",
        "label": "mapping(address => uint256[3])",
        "numberOfBytes": "32",
        "value": "t_array(t_uint256)3_storage"
      },
      "t_mapping(t_address,t_array(t_uint256)dyn_storage)": {
        "encoding": "mapping",
        "key": "t_address",
        "label": "mapping(address => uint256[])",
        "numberOfBytes": "32",
        "value": "t_array(t_uint256)dyn_storage"
      },
      "t_mapping(t_address,t_bool)": {
        "encoding": "mapping",
        "key": "t_address",
        "label": "mapping(address => bool)",
        "numberOfBytes": "32",
        "value": "t_bool"
      },
      "t_mapping(t_address,t_mapping(t_address,t_bool))": {
        "encoding": "mapping",
        "key": "t_address",
        "label": "mapping(address => mapping(address => bool))",
        "numberOfBytes": "32",
        "value": "t_mapping(t_address,t_bool)"
      },
      "t_mapping(t_address,t_mapping(t_address,t_struct(Checkpoints)49322_storage))": {
        "encoding": "mapping",
        "key": "t_address",
        "label": "mapping(address => mapping(address => struct RewardsDistributor.Checkpoints))",
        "numberOfBytes": "32",
        "value": "t_mapping(t_address,t_struct(Checkpoints)49322_storage)"
      },
      "t_mapping(t_address,t_mapping(t_address,t_struct(ContributorPerGarden)49304_storage))": {
        "encoding": "mapping",
        "key": "t_address",
        "label": "mapping(address => mapping(address => struct RewardsDistributor.ContributorPerGarden))",
        "numberOfBytes": "32",
        "value": "t_mapping(t_address,t_struct(ContributorPerGarden)49304_storage)"
      },
      "t_mapping(t_address,t_mapping(t_uint256,t_struct(GardenPowerByTimestamp)49290_storage))": {
        "encoding": "mapping",
        "key": "t_address",
        "label": "mapping(address => mapping(uint256 => struct RewardsDistributor.GardenPowerByTimestamp))",
        "numberOfBytes": "32",
        "value": "t_mapping(t_uint256,t_struct(GardenPowerByTimestamp)49290_storage)"
      },
      "t_mapping(t_address,t_mapping(t_uint256,t_struct(StrategyPerQuarter)49387_storage))": {
        "encoding": "mapping",
        "key": "t_address",
        "label": "mapping(address => mapping(uint256 => struct RewardsDistributor.StrategyPerQuarter))",
        "numberOfBytes": "32",
        "value": "t_mapping(t_uint256,t_struct(StrategyPerQuarter)49387_storage)"
      },
      "t_mapping(t_address,t_mapping(t_uint256,t_uint256))": {
        "encoding": "mapping",
        "key": "t_address",
        "label": "mapping(address => mapping(uint256 => uint256))",
        "numberOfBytes": "32",
        "value": "t_mapping(t_uint256,t_uint256)"
      },
      "t_mapping(t_address,t_struct(Checkpoints)49322_storage)": {
        "encoding": "mapping",
        "key": "t_address",
        "label": "mapping(address => struct RewardsDistributor.Checkpoints)",
        "numberOfBytes": "32",
        "value": "t_struct(Checkpoints)49322_storage"
      },
      "t_mapping(t_address,t_struct(ContributorPerGarden)49304_storage)": {
        "encoding": "mapping",
        "key": "t_address",
        "label": "mapping(address => struct RewardsDistributor.ContributorPerGarden)",
        "numberOfBytes": "32",
        "value": "t_struct(ContributorPerGarden)49304_storage"
      },
      "t_mapping(t_address,t_struct(StrategyPricePerTokenUnit)49392_storage)": {
        "encoding": "mapping",
        "key": "t_address",
        "label": "mapping(address => struct RewardsDistributor.StrategyPricePerTokenUnit)",
        "numberOfBytes": "32",
        "value": "t_struct(StrategyPricePerTokenUnit)49392_storage"
      },
      "t_mapping(t_address,t_uint256)": {
        "encoding": "mapping",
        "key": "t_address",
        "label": "mapping(address => uint256)",
        "numberOfBytes": "32",
        "value": "t_uint256"
      },
      "t_mapping(t_uint256,t_bool)": {
        "encoding": "mapping",
        "key": "t_uint256",
        "label": "mapping(uint256 => bool)",
        "numberOfBytes": "32",
        "value": "t_bool"
      },
      "t_mapping(t_uint256,t_struct(GardenPowerByTimestamp)49290_storage)": {
        "encoding": "mapping",
        "key": "t_uint256",
        "label": "mapping(uint256 => struct RewardsDistributor.GardenPowerByTimestamp)",
        "numberOfBytes": "32",
        "value": "t_struct(GardenPowerByTimestamp)49290_storage"
      },
      "t_mapping(t_uint256,t_struct(ProtocolPerQuarter)49283_storage)": {
        "encoding": "mapping",
        "key": "t_uint256",
        "label": "mapping(uint256 => struct RewardsDistributor.ProtocolPerQuarter)",
        "numberOfBytes": "32",
        "value": "t_struct(ProtocolPerQuarter)49283_storage"
      },
      "t_mapping(t_uint256,t_struct(ProtocolPerTimestamp)49274_storage)": {
        "encoding": "mapping",
        "key": "t_uint256",
        "label": "mapping(uint256 => struct RewardsDistributor.ProtocolPerTimestamp)",
        "numberOfBytes": "32",
        "value": "t_struct(ProtocolPerTimestamp)49274_storage"
      },
      "t_mapping(t_uint256,t_struct(StrategyPerQuarter)49387_storage)": {
        "encoding": "mapping",
        "key": "t_uint256",
        "label": "mapping(uint256 => struct RewardsDistributor.StrategyPerQuarter)",
        "numberOfBytes": "32",
        "value": "t_struct(StrategyPerQuarter)49387_storage"
      },
      "t_mapping(t_uint256,t_struct(TimestampContribution)49313_storage)": {
        "encoding": "mapping",
        "key": "t_uint256",
        "label": "mapping(uint256 => struct RewardsDistributor.TimestampContribution)",
        "numberOfBytes": "32",
        "value": "t_struct(TimestampContribution)49313_storage"
      },
      "t_mapping(t_uint256,t_uint256)": {
        "encoding": "mapping",
        "key": "t_uint256",
        "label": "mapping(uint256 => uint256)",
        "numberOfBytes": "32",
        "value": "t_uint256"
      },
      "t_struct(Checkpoints)49322_storage": {
        "encoding": "inplace",
        "label": "struct RewardsDistributor.Checkpoints",
        "members": [
          {
            "astId": 49315,
            "contract": "contracts/token/RewardsDistributor.sol:RewardsDistributorV11",
            "label": "fromDepositAt",
            "offset": 0,
            "slot": "0",
            "type": "t_uint256"
          },
          {
            "astId": 49317,
            "contract": "contracts/token/RewardsDistributor.sol:RewardsDistributorV11",
            "label": "lastDepositAt",
            "offset": 0,
            "slot": "1",
            "type": "t_uint256"
          },
          {
            "astId": 49319,
            "contract": "contracts/token/RewardsDistributor.sol:RewardsDistributorV11",
            "label": "gardenFromDepositAt",
            "offset": 0,
            "slot": "2",
            "type": "t_uint256"
          },
          {
            "astId": 49321,
            "contract": "contracts/token/RewardsDistributor.sol:RewardsDistributorV11",
            "label": "gardenLastDepositAt",
            "offset": 0,
            "slot": "3",
            "type": "t_uint256"
          }
        ],
        "numberOfBytes": "128"
      },
      "t_struct(ContributorPerGarden)49304_storage": {
        "encoding": "inplace",
        "label": "struct RewardsDistributor.ContributorPerGarden",
        "members": [
          {
            "astId": 49292,
            "contract": "contracts/token/RewardsDistributor.sol:RewardsDistributorV11",
            "label": "lastDepositAt",
            "offset": 0,
            "slot": "0",
            "type": "t_uint256"
          },
          {
            "astId": 49294,
            "contract": "contracts/token/RewardsDistributor.sol:RewardsDistributorV11",
            "label": "initialDepositAt",
            "offset": 0,
            "slot": "1",
            "type": "t_uint256"
          },
          {
            "astId": 49297,
            "contract": "contracts/token/RewardsDistributor.sol:RewardsDistributorV11",
            "label": "timeListPointer",
            "offset": 0,
            "slot": "2",
            "type": "t_array(t_uint256)dyn_storage"
          },
          {
            "astId": 49299,
            "contract": "contracts/token/RewardsDistributor.sol:RewardsDistributorV11",
            "label": "pid",
            "offset": 0,
            "slot": "3",
            "type": "t_uint256"
          },
          {
            "astId": 49303,
            "contract": "contracts/token/RewardsDistributor.sol:RewardsDistributorV11",
            "label": "tsContributions",
            "offset": 0,
            "slot": "4",
            "type": "t_mapping(t_uint256,t_struct(TimestampContribution)49313_storage)"
          }
        ],
        "numberOfBytes": "160"
      },
      "t_struct(GardenPowerByTimestamp)49290_storage": {
        "encoding": "inplace",
        "label": "struct RewardsDistributor.GardenPowerByTimestamp",
        "members": [
          {
            "astId": 49285,
            "contract": "contracts/token/RewardsDistributor.sol:RewardsDistributorV11",
            "label": "avgGardenBalance",
            "offset": 0,
            "slot": "0",
            "type": "t_uint256"
          },
          {
            "astId": 49287,
            "contract": "contracts/token/RewardsDistributor.sol:RewardsDistributorV11",
            "label": "lastDepositAt",
            "offset": 0,
            "slot": "1",
            "type": "t_uint256"
          },
          {
            "astId": 49289,
            "contract": "contracts/token/RewardsDistributor.sol:RewardsDistributorV11",
            "label": "accGardenPower",
            "offset": 0,
            "slot": "2",
            "type": "t_uint256"
          }
        ],
        "numberOfBytes": "96"
      },
      "t_struct(ProtocolPerQuarter)49283_storage": {
        "encoding": "inplace",
        "label": "struct RewardsDistributor.ProtocolPerQuarter",
        "members": [
          {
            "astId": 49276,
            "contract": "contracts/token/RewardsDistributor.sol:RewardsDistributorV11",
            "label": "quarterPrincipal",
            "offset": 0,
            "slot": "0",
            "type": "t_uint256"
          },
          {
            "astId": 49278,
            "contract": "contracts/token/RewardsDistributor.sol:RewardsDistributorV11",
            "label": "quarterNumber",
            "offset": 0,
            "slot": "1",
            "type": "t_uint256"
          },
          {
            "astId": 49280,
            "contract": "contracts/token/RewardsDistributor.sol:RewardsDistributorV11",
            "label": "quarterPower",
            "offset": 0,
            "slot": "2",
            "type": "t_uint256"
          },
          {
            "astId": 49282,
            "contract": "contracts/token/RewardsDistributor.sol:RewardsDistributorV11",
            "label": "supplyPerQuarter",
            "offset": 0,
            "slot": "3",
            "type": "t_uint96"
          }
        ],
        "numberOfBytes": "128"
      },
      "t_struct(ProtocolPerTimestamp)49274_storage": {
        "encoding": "inplace",
        "label": "struct RewardsDistributor.ProtocolPerTimestamp",
        "members": [
          {
            "astId": 49265,
            "contract": "contracts/token/RewardsDistributor.sol:RewardsDistributorV11",
            "label": "principal",
            "offset": 0,
            "slot": "0",
            "type": "t_uint256"
          },
          {
            "astId": 49267,
            "contract": "contracts/token/RewardsDistributor.sol:RewardsDistributorV11",
            "label": "time",
            "offset": 0,
            "slot": "1",
            "type": "t_uint256"
          },
          {
            "astId": 49269,
            "contract": "contracts/token/RewardsDistributor.sol:RewardsDistributorV11",
            "label": "quarterBelonging",
            "offset": 0,
            "slot": "2",
            "type": "t_uint256"
          },
          {
            "astId": 49271,
            "contract": "contracts/token/RewardsDistributor.sol:RewardsDistributorV11",
            "label": "timeListPointer",
            "offset": 0,
            "slot": "3",
            "type": "t_uint256"
          },
          {
            "astId": 49273,
            "contract": "contracts/token/RewardsDistributor.sol:RewardsDistributorV11",
            "label": "power",
            "offset": 0,
            "slot": "4",
            "type": "t_uint256"
          }
        ],
        "numberOfBytes": "160"
      },
      "t_struct(StrategyPerQuarter)49387_storage": {
        "encoding": "inplace",
        "label": "struct RewardsDistributor.StrategyPerQuarter",
        "members": [
          {
            "astId": 49380,
            "contract": "contracts/token/RewardsDistributor.sol:RewardsDistributorV11",
            "label": "quarterPrincipal",
            "offset": 0,
            "slot": "0",
            "type": "t_uint256"
          },
          {
            "astId": 49382,
            "contract": "contracts/token/RewardsDistributor.sol:RewardsDistributorV11",
            "label": "betaInitializedAt",
            "offset": 0,
            "slot": "1",
            "type": "t_uint256"
          },
          {
            "astId": 49384,
            "contract": "contracts/token/RewardsDistributor.sol:RewardsDistributorV11",
            "label": "quarterPower",
            "offset": 0,
            "slot": "2",
            "type": "t_uint256"
          },
          {
            "astId": 49386,
            "contract": "contracts/token/RewardsDistributor.sol:RewardsDistributorV11",
            "label": "initialized",
            "offset": 0,
            "slot": "3",
            "type": "t_bool"
          }
        ],
        "numberOfBytes": "128"
      },
      "t_struct(StrategyPricePerTokenUnit)49392_storage": {
        "encoding": "inplace",
        "label": "struct RewardsDistributor.StrategyPricePerTokenUnit",
        "members": [
          {
            "astId": 49389,
            "contract": "contracts/token/RewardsDistributor.sol:RewardsDistributorV11",
            "label": "preallocated",
            "offset": 0,
            "slot": "0",
            "type": "t_uint256"
          },
          {
            "astId": 49391,
            "contract": "contracts/token/RewardsDistributor.sol:RewardsDistributorV11",
            "label": "pricePerTokenUnit",
            "offset": 0,
            "slot": "1",
            "type": "t_uint256"
          }
        ],
        "numberOfBytes": "64"
      },
      "t_struct(TimestampContribution)49313_storage": {
        "encoding": "inplace",
        "label": "struct RewardsDistributor.TimestampContribution",
        "members": [
          {
            "astId": 49306,
            "contract": "contracts/token/RewardsDistributor.sol:RewardsDistributorV11",
            "label": "avgBalance",
            "offset": 0,
            "slot": "0",
            "type": "t_uint256"
          },
          {
            "astId": 49308,
            "contract": "contracts/token/RewardsDistributor.sol:RewardsDistributorV11",
            "label": "timestamp",
            "offset": 0,
            "slot": "1",
            "type": "t_uint256"
          },
          {
            "astId": 49310,
            "contract": "contracts/token/RewardsDistributor.sol:RewardsDistributorV11",
            "label": "timePointer",
            "offset": 0,
            "slot": "2",
            "type": "t_uint256"
          },
          {
            "astId": 49312,
            "contract": "contracts/token/RewardsDistributor.sol:RewardsDistributorV11",
            "label": "power",
            "offset": 0,
            "slot": "3",
            "type": "t_uint256"
          }
        ],
        "numberOfBytes": "128"
      },
      "t_uint256": {
        "encoding": "inplace",
        "label": "uint256",
        "numberOfBytes": "32"
      },
      "t_uint96": {
        "encoding": "inplace",
        "label": "uint96",
        "numberOfBytes": "12"
      }
    }
  }
}