{
  "address": "0x3Da35AAe517f4381c4f5C749A96074f44e95C221",
  "abi": [
    {
      "inputs": [],
      "name": "PRECISE_UNIT",
      "outputs": [
        {
          "internalType": "uint256",
          "name": "",
          "type": "uint256"
        }
      ],
      "stateMutability": "view",
      "type": "function"
    },
    {
      "inputs": [],
      "name": "UNIT",
      "outputs": [
        {
          "internalType": "uint256",
          "name": "",
          "type": "uint256"
        }
      ],
      "stateMutability": "view",
      "type": "function"
    },
    {
      "inputs": [],
      "name": "decimals",
      "outputs": [
        {
          "internalType": "uint8",
          "name": "",
          "type": "uint8"
        }
      ],
      "stateMutability": "view",
      "type": "function"
    },
    {
      "inputs": [],
      "name": "highPrecisionDecimals",
      "outputs": [
        {
          "internalType": "uint8",
          "name": "",
          "type": "uint8"
        }
      ],
      "stateMutability": "view",
      "type": "function"
    },
    {
      "inputs": [],
      "name": "preciseUnit",
      "outputs": [
        {
          "internalType": "uint256",
          "name": "",
          "type": "uint256"
        }
      ],
      "stateMutability": "pure",
      "type": "function"
    },
    {
      "inputs": [],
      "name": "unit",
      "outputs": [
        {
          "internalType": "uint256",
          "name": "",
          "type": "uint256"
        }
      ],
      "stateMutability": "pure",
      "type": "function"
    }
  ],
  "transactionHash": "0xe6c0583135aac541dc2b499610ab8f859fcc531a22401dc7d5d0e7e26564cde2",
  "args": [],
  "solcInputHash": "1cde26e1be086ba932a8865ced5ceef3",
  "bytecode": "0x610151610026600b82828239805160001a60731461001957fe5b30600052607381538281f3fe730000000000000000000000000000000000000000301460806040526004361061007c5760003560e01c80639d8e21771161005a5780639d8e2177146100c1578063d5e5e6e6146100c9578063def4419d146100d15761007c565b8063313ce56714610081578063864029e71461009f578063907af6c0146100b9575b600080fd5b6100896100d9565b6040805160ff9092168252519081900360200190f35b6100a76100de565b60408051918252519081900360200190f35b6100a76100ee565b6100a76100fa565b6100a7610106565b610089610116565b601281565b6b033b2e3c9fd0803ce800000081565b670de0b6b3a764000090565b670de0b6b3a764000081565b6b033b2e3c9fd0803ce800000090565b601b8156fea26469706673582212207e3ba3a07589b49ad82deae36d4288c255ea04146dbe34c6410c3cb26a3f8bce64736f6c63430007060033",
  "devdoc": {
    "kind": "dev",
    "methods": {
      "preciseUnit()": {
        "returns": {
          "_0": "Provides an interface to PRECISE_UNIT."
        }
      },
      "unit()": {
        "returns": {
          "_0": "Provides an interface to UNIT."
        }
      }
    },
    "version": 1
  },
  "userdoc": {
    "kind": "user",
    "methods": {},
    "version": 1
  },
  "storageLayout": {
    "storage": [],
    "types": null
  }
}