{
  "address": "0x8E4796f9E2612AFF12f9AE37a7091Dfd4253A5C1",
  "abi": [
    {
      "inputs": [
        {
          "internalType": "contract IBabController",
          "name": "_controller",
          "type": "address"
        }
      ],
      "stateMutability": "nonpayable",
      "type": "constructor"
    },
    {
      "anonymous": false,
      "inputs": [
        {
          "indexed": true,
          "internalType": "address",
          "name": "garden",
          "type": "address"
        },
        {
          "indexed": true,
          "internalType": "address",
          "name": "strategy",
          "type": "address"
        },
        {
          "indexed": true,
          "internalType": "address",
          "name": "investment",
          "type": "address"
        },
        {
          "indexed": false,
          "internalType": "address",
          "name": "tokenIn",
          "type": "address"
        },
        {
          "indexed": false,
          "internalType": "uint256",
          "name": "investmentTokensOut",
          "type": "uint256"
        }
      ],
      "name": "InvestmentEntered",
      "type": "event"
    },
    {
      "anonymous": false,
      "inputs": [
        {
          "indexed": true,
          "internalType": "address",
          "name": "garden",
          "type": "address"
        },
        {
          "indexed": true,
          "internalType": "address",
          "name": "strategy",
          "type": "address"
        },
        {
          "indexed": true,
          "internalType": "address",
          "name": "investment",
          "type": "address"
        },
        {
          "indexed": false,
          "internalType": "uint256",
          "name": "investmentTokensOut",
          "type": "uint256"
        }
      ],
      "name": "InvestmentExited",
      "type": "event"
    },
    {
      "inputs": [],
      "name": "controller",
      "outputs": [
        {
          "internalType": "contract IBabController",
          "name": "",
          "type": "address"
        }
      ],
      "stateMutability": "view",
      "type": "function"
    },
    {
      "inputs": [
        {
          "internalType": "address",
          "name": "_strategy",
          "type": "address"
        },
        {
          "internalType": "address",
          "name": "_investmentAddress",
          "type": "address"
        },
        {
          "internalType": "uint256",
          "name": "_investmentTokensOut",
          "type": "uint256"
        },
        {
          "internalType": "address",
          "name": "_tokenIn",
          "type": "address"
        },
        {
          "internalType": "uint256",
          "name": "_maxAmountIn",
          "type": "uint256"
        }
      ],
      "name": "enterInvestment",
      "outputs": [],
      "stateMutability": "nonpayable",
      "type": "function"
    },
    {
      "inputs": [
        {
          "internalType": "address",
          "name": "_strategy",
          "type": "address"
        },
        {
          "internalType": "address",
          "name": "_investmentAddress",
          "type": "address"
        },
        {
          "internalType": "uint256",
          "name": "_investmentTokenIn",
          "type": "uint256"
        },
        {
          "internalType": "address",
          "name": "_tokenOut",
          "type": "address"
        },
        {
          "internalType": "uint256",
          "name": "_minAmountOut",
          "type": "uint256"
        }
      ],
      "name": "exitInvestment",
      "outputs": [],
      "stateMutability": "nonpayable",
      "type": "function"
    },
    {
      "inputs": [
        {
          "internalType": "address",
          "name": "_investmentAddress",
          "type": "address"
        },
        {
          "internalType": "uint256",
          "name": "_ethAmount",
          "type": "uint256"
        }
      ],
      "name": "getExpectedShares",
      "outputs": [
        {
          "internalType": "uint256",
          "name": "",
          "type": "uint256"
        }
      ],
      "stateMutability": "view",
      "type": "function"
    },
    {
      "inputs": [
        {
          "internalType": "address",
          "name": "_investmentAddress",
          "type": "address"
        }
      ],
      "name": "getInvestmentAsset",
      "outputs": [
        {
          "internalType": "address",
          "name": "",
          "type": "address"
        }
      ],
      "stateMutability": "view",
      "type": "function"
    },
    {
      "inputs": [
        {
          "internalType": "address",
          "name": "_investmentAddress",
          "type": "address"
        }
      ],
      "name": "getPricePerShare",
      "outputs": [
        {
          "internalType": "uint256",
          "name": "",
          "type": "uint256"
        }
      ],
      "stateMutability": "view",
      "type": "function"
    },
    {
      "inputs": [
        {
          "internalType": "address",
          "name": "_investmentAddress",
          "type": "address"
        }
      ],
      "name": "getResultAsset",
      "outputs": [
        {
          "internalType": "address",
          "name": "",
          "type": "address"
        }
      ],
      "stateMutability": "view",
      "type": "function"
    },
    {
      "inputs": [
        {
          "internalType": "address",
          "name": "_strategy",
          "type": "address"
        },
        {
          "internalType": "address",
          "name": "_investmentAddress",
          "type": "address"
        }
      ],
      "name": "getRewards",
      "outputs": [
        {
          "internalType": "address",
          "name": "",
          "type": "address"
        },
        {
          "internalType": "uint256",
          "name": "",
          "type": "uint256"
        }
      ],
      "stateMutability": "view",
      "type": "function"
    },
    {
      "inputs": [],
      "name": "name",
      "outputs": [
        {
          "internalType": "string",
          "name": "",
          "type": "string"
        }
      ],
      "stateMutability": "view",
      "type": "function"
    }
  ],
  "transactionHash": "0xa8351411fee6753fd085e7bb375c1b3d3b0542cddb1ab025cba5fe755afd18c0",
  "args": [
    "0xD4a5b5fcB561dAF3aDF86F8477555B92FBa43b5F"
  ],
  "numDeployments": 1,
  "solcInputHash": "c82f0c2162f71ad0152ea6148afe1725",
  "bytecode": "0x60a06040523480156200001157600080fd5b506040516200212138038062002121833981016040819052620000349162000194565b6040805180820190915260098152687374616b657769736560b81b60208201528181816001600160a01b038116620000b3576040805162461bcd60e51b815260206004820152601a60248201527f436f6e74726f6c6c6572206d75737420626520646566696e6564000000000000604482015290519081900360640190fd5b8151620000c8906000906020850190620000e8565b5060601b6001600160601b03191660805250506001805550620001c49050565b828054600181600116156101000203166002900490600052602060002090601f0160209004810192826200012057600085556200016b565b82601f106200013b57805160ff19168380011785556200016b565b828001600101855582156200016b579182015b828111156200016b5782518255916020019190600101906200014e565b50620001799291506200017d565b5090565b5b808211156200017957600081556001016200017e565b600060208284031215620001a6578081fd5b81516001600160a01b0381168114620001bd578182fd5b9392505050565b60805160601c611f35620001ec600039806102c85280610c5452806112145250611f356000f3fe608060405234801561001057600080fd5b50600436106100a35760003560e01c8063871be91111610076578063ec422afd1161005b578063ec422afd1461014f578063f337f63014610162578063f77c479114610175576100a3565b8063871be91114610127578063976a99be1461013c576100a3565b806306fdde03146100a85780634deef649146100c6578063779bcb9b146100e65780637b082a7414610107575b600080fd5b6100b061017d565b6040516100bd9190611d89565b60405180910390f35b6100d96100d4366004611c7d565b61020b565b6040516100bd9190611df5565b6100f96100f4366004611bf7565b610220565b6040516100bd929190611d70565b61011a610115366004611bdd565b610238565b6040516100bd9190611d5c565b61013a610135366004611c29565b61024b565b005b61013a61014a366004611c29565b610bd7565b6100d961015d366004611bdd565b6111fc565b61011a610170366004611bdd565b611207565b61011a611212565b6000805460408051602060026001851615610100026000190190941693909304601f810184900484028201840190925281815292918301828280156102035780601f106101d857610100808354040283529160200191610203565b820191906000526020600020905b8154815290600101906020018083116101e657829003601f168201915b505050505081565b60006102178383610246565b90505b92915050565b60008061022d8484611236565b915091509250929050565b6000610243826112c4565b90505b919050565b600260015414156102a3576040805162461bcd60e51b815260206004820152601f60248201527f5265656e7472616e637947756172643a207265656e7472616e742063616c6c00604482015290519081900360640190fd5b6002600155604080516313bc6d4b60e01b815233600482015290516001600160a01b037f000000000000000000000000000000000000000000000000000000000000000016916313bc6d4b916024808301926020929190829003018186803b15801561030e57600080fd5b505afa158015610322573d6000803e3d6000fd5b505050506040513d602081101561033857600080fd5b505161038b576040805162461bcd60e51b815260206004820152601960248201527f4f6e6c792073797374656d2063616e2063616c6c207468697300000000000000604482015290519081900360640190fd5b600061039a86868686866112c7565b90506103a581611492565b60008060006103b7888860018c61151f565b919450925090506001600160a01b0383161561072f576103d5611704565b156104f55783516001600160a01b03166397ccdc606103f58a6001611709565b85866001600160a01b03166370a082318e6040518263ffffffff1660e01b815260040180826001600160a01b0316815260200191505060206040518083038186803b15801561044357600080fd5b505afa158015610457573d6000803e3d6000fd5b505050506040513d602081101561046d57600080fd5b5051604080517fffffffff0000000000000000000000000000000000000000000000000000000060e087901b1681526001600160a01b03948516600482015292909316602483015260448201529051606480830192600092919082900301818387803b1580156104dc57600080fd5b505af11580156104f0573d6000803e3d6000fd5b505050505b83600001516001600160a01b0316636bc195dd8484846040518463ffffffff1660e01b815260040180846001600160a01b0316815260200183815260200180602001828103825283818151815260200191508051906020019080838360005b8381101561056c578181015183820152602001610554565b50505050905090810190601f1680156105995780820380516001836020036101000a031916815260200191505b50945050505050600060405180830381600087803b1580156105ba57600080fd5b505af11580156105ce573d6000803e3d6000fd5b505050506040513d6000823e601f3d908101601f1916820160405260208110156105f757600080fd5b810190808051604051939291908464010000000082111561061757600080fd5b90830190602082018581111561062c57600080fd5b825164010000000081118282018810171561064657600080fd5b82525081516020918201929091019080838360005b8381101561067357818101518382015260200161065b565b50505050905090810190601f1680156106a05780820380516001836020036101000a031916815260200191505b50604052505050506106b1886112c4565b9750876001600160a01b03166370a082318a6040518263ffffffff1660e01b815260040180826001600160a01b0316815260200191505060206040518083038186803b15801561070057600080fd5b505afa158015610714573d6000803e3d6000fd5b505050506040513d602081101561072a57600080fd5b505196505b83516001600160a01b03166397ccdc6061074a8a6001611709565b8a8a6040518463ffffffff1660e01b815260040180846001600160a01b03168152602001836001600160a01b031681526020018281526020019350505050600060405180830381600087803b1580156107a257600080fd5b505af11580156107b6573d6000803e3d6000fd5b5050505060008060006107cc8c8c8c8c8c611724565b92509250925086600001516001600160a01b0316636bc195dd8484846040518463ffffffff1660e01b815260040180846001600160a01b0316815260200183815260200180602001828103825283818151815260200191508051906020019080838360005b83811015610849578181015183820152602001610831565b50505050905090810190601f1680156108765780820380516001836020036101000a031916815260200191505b50945050505050600060405180830381600087803b15801561089757600080fd5b505af11580156108ab573d6000803e3d6000fd5b505050506040513d6000823e601f3d908101601f1916820160405260208110156108d457600080fd5b81019080805160405193929190846401000000008211156108f457600080fd5b90830190602082018581111561090957600080fd5b825164010000000081118282018810171561092357600080fd5b82525081516020918201929091019080838360005b83811015610950578181015183820152602001610938565b50505050905090810190601f16801561097d5780820380516001836020036101000a031916815260200191505b50604052505050506109918b8b6001611822565b919750955093506001600160a01b03861615610b5b5786600001516001600160a01b0316636bc195dd8787876040518463ffffffff1660e01b815260040180846001600160a01b0316815260200183815260200180602001828103825283818151815260200191508051906020019080838360005b83811015610a1e578181015183820152602001610a06565b50505050905090810190601f168015610a4b5780820380516001836020036101000a031916815260200191505b50945050505050600060405180830381600087803b158015610a6c57600080fd5b505af1158015610a80573d6000803e3d6000fd5b505050506040513d6000823e601f3d908101601f191682016040526020811015610aa957600080fd5b8101908080516040519392919084640100000000821115610ac957600080fd5b908301906020820185811115610ade57600080fd5b8251640100000000811182820188101715610af857600080fd5b82525081516020918201929091019080838360005b83811015610b25578181015183820152602001610b0d565b50505050905090810190601f168015610b525780820380516001836020036101000a031916815260200191505b50604052505050505b610b648761183a565b86604001516001600160a01b031687600001516001600160a01b031688602001516001600160a01b03167f99d773709d80de3e15433c22c381fd8e3b82a68b56322240ff4a304956ef0e528d6040518082815260200191505060405180910390a450506001805550505050505050505050565b60026001541415610c2f576040805162461bcd60e51b815260206004820152601f60248201527f5265656e7472616e637947756172643a207265656e7472616e742063616c6c00604482015290519081900360640190fd5b6002600155604080516313bc6d4b60e01b815233600482015290516001600160a01b037f000000000000000000000000000000000000000000000000000000000000000016916313bc6d4b916024808301926020929190829003018186803b158015610c9a57600080fd5b505afa158015610cae573d6000803e3d6000fd5b505050506040513d6020811015610cc457600080fd5b5051610d17576040805162461bcd60e51b815260206004820152601960248201527f4f6e6c792073797374656d2063616e2063616c6c207468697300000000000000604482015290519081900360640190fd5b6000610d2686868686866112c7565b9050610d3181611906565b6000806000610d43888660008c61151f565b919450925090506001600160a01b03831615610f0d5783600001516001600160a01b0316636bc195dd8484846040518463ffffffff1660e01b815260040180846001600160a01b0316815260200183815260200180602001828103825283818151815260200191508051906020019080838360005b83811015610dd0578181015183820152602001610db8565b50505050905090810190601f168015610dfd5780820380516001836020036101000a031916815260200191505b50945050505050600060405180830381600087803b158015610e1e57600080fd5b505af1158015610e32573d6000803e3d6000fd5b505050506040513d6000823e601f3d908101601f191682016040526020811015610e5b57600080fd5b8101908080516040519392919084640100000000821115610e7b57600080fd5b908301906020820185811115610e9057600080fd5b8251640100000000811182820188101715610eaa57600080fd5b82525081516020918201929091019080838360005b83811015610ed7578181015183820152602001610ebf565b50505050905090810190601f168015610f045780820380516001836020036101000a031916815260200191505b50604052505050505b6001600160a01b03861615610fa85783516001600160a01b03166397ccdc60610f378a6000611709565b88886040518463ffffffff1660e01b815260040180846001600160a01b03168152602001836001600160a01b031681526020018281526020019350505050600060405180830381600087803b158015610f8f57600080fd5b505af1158015610fa3573d6000803e3d6000fd5b505050505b6000806000610fba8c8c8c8c8c611949565b92509250925086600001516001600160a01b0316636bc195dd8484846040518463ffffffff1660e01b815260040180846001600160a01b0316815260200183815260200180602001828103825283818151815260200191508051906020019080838360005b8381101561103757818101518382015260200161101f565b50505050905090810190601f1680156110645780820380516001836020036101000a031916815260200191505b50945050505050600060405180830381600087803b15801561108557600080fd5b505af1158015611099573d6000803e3d6000fd5b505050506040513d6000823e601f3d908101601f1916820160405260208110156110c257600080fd5b81019080805160405193929190846401000000008211156110e257600080fd5b9083019060208201858111156110f757600080fd5b825164010000000081118282018810171561111157600080fd5b82525081516020918201929091019080838360005b8381101561113e578181015183820152602001611126565b50505050905090810190601f16801561116b5780820380516001836020036101000a031916815260200191505b506040525050505061117c876119dd565b8a6001600160a01b031687600001516001600160a01b031688602001516001600160a01b03167fdc0718d28ea0f80518c2c454af93bc46bf51dd4a1b25a048ca4ca75a7ac359c48c8e60405180836001600160a01b031681526020018281526020019250505060405180910390a450506001805550505050505050505050565b600061024382611a9f565b600061024382611aac565b7f000000000000000000000000000000000000000000000000000000000000000081565b6040516370a0823160e01b815260009081907320bc832ca081b91433ff6c17f85701b6e92486c59081906370a0823190611274908890600401611d5c565b60206040518083038186803b15801561128c57600080fd5b505afa1580156112a0573d6000803e3d6000fd5b505050506040513d601f19601f8201168201806040525081019061022d9190611ca6565b90565b6112cf611b6e565b6112d7611b6e565b6001600160a01b038716808252604080517f56ba88b800000000000000000000000000000000000000000000000000000000815290516356ba88b891600480820192602092909190829003018186803b15801561133357600080fd5b505afa158015611347573d6000803e3d6000fd5b505050506040513d602081101561135d57600080fd5b50516001600160a01b03166020820152611376866112c4565b81604001906001600160a01b031690816001600160a01b031681525050856001600160a01b03166318160ddd6040518163ffffffff1660e01b815260040160206040518083038186803b1580156113cc57600080fd5b505afa1580156113e0573d6000803e3d6000fd5b505050506040513d60208110156113f657600080fd5b5051606082015260408082015181516370a0823160e01b81526001600160a01b038a81166004830152925192909116916370a0823191602480820192602092909190829003018186803b15801561144c57600080fd5b505afa158015611460573d6000803e3d6000fd5b505050506040513d602081101561147657600080fd5b505160a082015260808101949094525060c08301525092915050565b60008160800151116114d55760405162461bcd60e51b8152600401808060200182810382526034815260200180611ecc6034913960400191505060405180910390fd5b80608001518160a00151101561151c5760405162461bcd60e51b8152600401808060200182810382526033815260200180611dff6033913960400191505060405180910390fd5b50565b600080606084600114156116e35760007320bc832ca081b91433ff6c17f85701b6e92486c56101f473fe2e637202056d30016725477c5da089ab0a043a60405160200161156e93929190611d09565b60408051601f19818403018152908290526370a0823160e01b825291506000907320bc832ca081b91433ff6c17f85701b6e92486c5906370a08231906115b8908990600401611d5c565b60206040518083038186803b1580156115d057600080fd5b505afa1580156115e4573d6000803e3d6000fd5b505050506040513d601f19601f820116820180604052508101906116089190611ca6565b905066470de4df8200008111156116e05760006040518060a00160405280848152602001886001600160a01b03168152602001428152602001838152602001611662670d99a8cec7e2000085611ac590919063ffffffff16565b815250905060008160405160240161167a9190611d9c565b60408051601f198184030181529190526020810180517bffffffffffffffffffffffffffffffffffffffffffffffffffffffff1663c04b8d5960e01b17905273e592427a0aece92de3edee1f18e0157c0586156497506000965094506116fa9350505050565b50505b505060408051602081019091526000808252915081905b9450945094915050565b600190565b73e592427a0aece92de3edee1f18e0157c0586156492915050565b6000806060600073fe2e637202056d30016725477c5da089ab0a043a610bb873c02aaa39b223fe8d0a0e5c4f27ead9083c756cc260405160200161176a93929190611d09565b60408051601f1981840301815260a0830182528083526001600160a01b038c1660208401524283830152606083018a90526080830188905290519092506000906117b8908390602401611d9c565b60408051601f198184030181529190526020810180517bffffffffffffffffffffffffffffffffffffffffffffffffffffffff1663c04b8d5960e01b17905273e592427a0aece92de3edee1f18e0157c058615649650600095509350505050955095509592505050565b50506040805160208101909152600080825292839250565b80608001518160a001510360640181604001516001600160a01b03166370a0823183600001516040518263ffffffff1660e01b815260040180826001600160a01b0316815260200191505060206040518083038186803b15801561189d57600080fd5b505afa1580156118b1573d6000803e3d6000fd5b505050506040513d60208110156118c757600080fd5b5051111561151c5760405162461bcd60e51b8152600401808060200182810382526031815260200180611e646031913960400191505060405180910390fd5b600081608001511161151c5760405162461bcd60e51b8152600401808060200182810382526037815260200180611e956037913960400191505060405180910390fd5b6000806060600073c02aaa39b223fe8d0a0e5c4f27ead9083c756cc2610bb873fe2e637202056d30016725477c5da089ab0a043a60405160200161198f93929190611d09565b60408051601f1981840301815260a0830182528083526001600160a01b038c166020840152428383015260608301889052608083018a905290519092506000906117b8908390602401611d9c565b8060a0015181604001516001600160a01b03166370a0823183600001516040518263ffffffff1660e01b815260040180826001600160a01b0316815260200191505060206040518083038186803b158015611a3757600080fd5b505afa158015611a4b573d6000803e3d6000fd5b505050506040513d6020811015611a6157600080fd5b50511161151c5760405162461bcd60e51b8152600401808060200182810382526032815260200180611e326032913960400191505060405180910390fd5b50670de0b6b3a764000090565b5073c02aaa39b223fe8d0a0e5c4f27ead9083c756cc290565b6000610217670de0b6b3a7640000611add8585611ae3565b90611b07565b6000821580611afe57505081810281838281611afb57fe5b04145b61021a57600080fd5b6000808211611b5d576040805162461bcd60e51b815260206004820152601a60248201527f536166654d6174683a206469766973696f6e206279207a65726f000000000000604482015290519081900360640190fd5b818381611b6657fe5b049392505050565b6040518060e0016040528060006001600160a01b0316815260200160006001600160a01b0316815260200160006001600160a01b03168152602001600081526020016000815260200160008152602001600081525090565b80356001600160a01b038116811461024657600080fd5b600060208284031215611bee578081fd5b61021782611bc6565b60008060408385031215611c09578081fd5b611c1283611bc6565b9150611c2060208401611bc6565b90509250929050565b600080600080600060a08688031215611c40578081fd5b611c4986611bc6565b9450611c5760208701611bc6565b935060408601359250611c6c60608701611bc6565b949793965091946080013592915050565b60008060408385031215611c8f578182fd5b611c9883611bc6565b946020939093013593505050565b600060208284031215611cb7578081fd5b5051919050565b60008151808452815b81811015611ce357602081850181015186830182015201611cc7565b81811115611cf45782602083870101525b50601f01601f19169290920160200192915050565b606093841b6bffffffffffffffffffffffff19908116825260e89390931b7fffffff0000000000000000000000000000000000000000000000000000000000166014820152921b166017820152602b0190565b6001600160a01b0391909116815260200190565b6001600160a01b03929092168252602082015260400190565b6000602082526102176020830184611cbe565b600060208252825160a06020840152611db860c0840182611cbe565b90506001600160a01b0360208501511660408401526040840151606084015260608401516080840152608084015160a08401528091505092915050565b9081526020019056fe54686520737472617465677920646f6573206e6f74206861766520656e6f75676820696e766573746d656e7420746f6b656e7354686520737472617465677920646964206e6f7420726563656976652074686520696e766573746d656e7420746f6b656e7354686520737472617465677920646964206e6f742072657475726e2074686520696e766573746d656e7420746f6b656e734d696e20696e766573746d656e7420746f6b656e7320746f2072656365697665206d7573742062652067726561746572207468616e2030496e766573746d656e7420746f6b656e7320746f2065786368616e6765206d7573742062652067726561746572207468616e2030a2646970667358221220c162a1feeadd12f784b8419ce0f652d8f2fa431df30d1cdbee1fe2e22ae9802664736f6c63430007060033",
  "devdoc": {
    "author": "Babylon Finance Protocol Lido Integration",
    "kind": "dev",
    "methods": {
      "constructor": {
        "params": {
          "_controller": "Address of the controller"
        }
      },
      "enterInvestment(address,address,uint256,address,uint256)": {
        "params": {
          "_investmentAddress": "Address of the investment token to join",
          "_investmentTokensOut": "Min amount of investment tokens to receive",
          "_maxAmountIn": "Max amount of the token to deposit",
          "_strategy": "Address of the strategy",
          "_tokenIn": "Token address to deposit"
        }
      },
      "exitInvestment(address,address,uint256,address,uint256)": {
        "params": {
          "_investmentAddress": "Address of the investment token to exit",
          "_investmentTokenIn": "Quantity of investment tokens to return",
          "_minAmountOut": "Min token quantities to receive from the investment",
          "_strategy": "Address of the strategy",
          "_tokenOut": "Token address to withdraw"
        }
      },
      "getExpectedShares(address,uint256)": {
        "params": {
          "_ethAmount": "Amount of eth to invest",
          "_investmentAddress": "Investment address to check"
        },
        "returns": {
          "_0": "uint256                           Amount of investment shares to receive"
        }
      },
      "getInvestmentAsset(address)": {
        "returns": {
          "_0": "address                           Returns the asset that this investment needs"
        }
      },
      "getPricePerShare(address)": {
        "params": {
          "_investmentAddress": "Investment address to check"
        },
        "returns": {
          "_0": "uint256                           Returns the price in ETH of an investment share"
        }
      },
      "getResultAsset(address)": {
        "returns": {
          "_0": "address                            Returns the asset that this investment obtains"
        }
      },
      "getRewards(address,address)": {
        "params": {
          "_investmentAddress": "Address of the investment",
          "_strategy": "Address of the strategy"
        },
        "returns": {
          "_0": "address                            Returns the address with the token of extra rewards",
          "_1": "uint256                            Extra rewards received so far"
        }
      }
    },
    "title": "StakewiseIntegration",
    "version": 1
  },
  "userdoc": {
    "kind": "user",
    "methods": {
      "constructor": {
        "notice": "Creates the integration"
      },
      "enterInvestment(address,address,uint256,address,uint256)": {
        "notice": "Deposits tokens into an investment"
      },
      "exitInvestment(address,address,uint256,address,uint256)": {
        "notice": "Exits an outside passive investment"
      },
      "getExpectedShares(address,uint256)": {
        "notice": "Gets the amount of shares expected to get after depositing _ethAmount"
      },
      "getInvestmentAsset(address)": {
        "notice": "Gets the asset needed to enter the investment"
      },
      "getPricePerShare(address)": {
        "notice": "Gets how much eth one unit of the investment is worth"
      },
      "getResultAsset(address)": {
        "notice": "Gets the asset you obtained after entering the investment"
      },
      "getRewards(address,address)": {
        "notice": "Gets the rewards and the token that they are denominated in"
      }
    },
    "version": 1
  },
  "storageLayout": {
    "storage": [
      {
        "astId": 27197,
        "contract": "contracts/integrations/passive/StakewiseIntegration.sol:StakewiseIntegration",
        "label": "name",
        "offset": 0,
        "slot": "0",
        "type": "t_string_storage"
      },
      {
        "astId": 6418,
        "contract": "contracts/integrations/passive/StakewiseIntegration.sol:StakewiseIntegration",
        "label": "_status",
        "offset": 0,
        "slot": "1",
        "type": "t_uint256"
      }
    ],
    "types": {
      "t_string_storage": {
        "encoding": "bytes",
        "label": "string",
        "numberOfBytes": "32"
      },
      "t_uint256": {
        "encoding": "inplace",
        "label": "uint256",
        "numberOfBytes": "32"
      }
    }
  }
}