{
  "address": "0xdFeA5Cf99f125C18d4a8bE00E3262EDc369C39C5",
  "abi": [
    {
      "anonymous": false,
      "inputs": [
        {
          "indexed": true,
          "internalType": "address",
          "name": "_strategy",
          "type": "address"
        },
        {
          "indexed": false,
          "internalType": "string",
          "name": "_name",
          "type": "string"
        },
        {
          "indexed": false,
          "internalType": "uint256",
          "name": "_expectedReturn",
          "type": "uint256"
        }
      ],
      "name": "AddStrategy",
      "type": "event"
    },
    {
      "anonymous": false,
      "inputs": [
        {
          "indexed": true,
          "internalType": "address",
          "name": "owner",
          "type": "address"
        },
        {
          "indexed": true,
          "internalType": "address",
          "name": "spender",
          "type": "address"
        },
        {
          "indexed": false,
          "internalType": "uint256",
          "name": "value",
          "type": "uint256"
        }
      ],
      "name": "Approval",
      "type": "event"
    },
    {
      "anonymous": false,
      "inputs": [
        {
          "indexed": true,
          "internalType": "address",
          "name": "from",
          "type": "address"
        },
        {
          "indexed": true,
          "internalType": "address",
          "name": "to",
          "type": "address"
        },
        {
          "indexed": false,
          "internalType": "uint256",
          "name": "value",
          "type": "uint256"
        }
      ],
      "name": "Transfer",
      "type": "event"
    },
    {
      "inputs": [
        {
          "internalType": "string",
          "name": "_name",
          "type": "string"
        },
        {
          "internalType": "string",
          "name": "_symbol",
          "type": "string"
        },
        {
          "internalType": "uint256[]",
          "name": "_stratParams",
          "type": "uint256[]"
        },
        {
          "internalType": "uint8[]",
          "name": "_opTypes",
          "type": "uint8[]"
        },
        {
          "internalType": "address[]",
          "name": "_opIntegrations",
          "type": "address[]"
        },
        {
          "internalType": "bytes",
          "name": "_opEncodedDatas",
          "type": "bytes"
        }
      ],
      "name": "addStrategy",
      "outputs": [],
      "stateMutability": "nonpayable",
      "type": "function"
    },
    {
      "inputs": [
        {
          "internalType": "uint256",
          "name": "_capital",
          "type": "uint256"
        }
      ],
      "name": "allocateCapitalToStrategy",
      "outputs": [],
      "stateMutability": "nonpayable",
      "type": "function"
    },
    {
      "inputs": [
        {
          "internalType": "address",
          "name": "owner",
          "type": "address"
        },
        {
          "internalType": "address",
          "name": "spender",
          "type": "address"
        }
      ],
      "name": "allowance",
      "outputs": [
        {
          "internalType": "uint256",
          "name": "",
          "type": "uint256"
        }
      ],
      "stateMutability": "view",
      "type": "function"
    },
    {
      "inputs": [
        {
          "internalType": "address",
          "name": "spender",
          "type": "address"
        },
        {
          "internalType": "uint256",
          "name": "amount",
          "type": "uint256"
        }
      ],
      "name": "approve",
      "outputs": [
        {
          "internalType": "bool",
          "name": "",
          "type": "bool"
        }
      ],
      "stateMutability": "nonpayable",
      "type": "function"
    },
    {
      "inputs": [
        {
          "internalType": "address",
          "name": "account",
          "type": "address"
        }
      ],
      "name": "balanceOf",
      "outputs": [
        {
          "internalType": "uint256",
          "name": "",
          "type": "uint256"
        }
      ],
      "stateMutability": "view",
      "type": "function"
    },
    {
      "inputs": [],
      "name": "decimals",
      "outputs": [
        {
          "internalType": "uint8",
          "name": "",
          "type": "uint8"
        }
      ],
      "stateMutability": "view",
      "type": "function"
    },
    {
      "inputs": [
        {
          "internalType": "address",
          "name": "spender",
          "type": "address"
        },
        {
          "internalType": "uint256",
          "name": "subtractedValue",
          "type": "uint256"
        }
      ],
      "name": "decreaseAllowance",
      "outputs": [
        {
          "internalType": "bool",
          "name": "",
          "type": "bool"
        }
      ],
      "stateMutability": "nonpayable",
      "type": "function"
    },
    {
      "inputs": [
        {
          "internalType": "address",
          "name": "_strategy",
          "type": "address"
        }
      ],
      "name": "expireCandidateStrategy",
      "outputs": [],
      "stateMutability": "nonpayable",
      "type": "function"
    },
    {
      "inputs": [
        {
          "internalType": "uint256",
          "name": "_rewards",
          "type": "uint256"
        },
        {
          "internalType": "int256",
          "name": "_returns",
          "type": "int256"
        },
        {
          "internalType": "uint256",
          "name": "_burningAmount",
          "type": "uint256"
        }
      ],
      "name": "finalizeStrategy",
      "outputs": [],
      "stateMutability": "nonpayable",
      "type": "function"
    },
    {
      "inputs": [
        {
          "internalType": "address",
          "name": "spender",
          "type": "address"
        },
        {
          "internalType": "uint256",
          "name": "addedValue",
          "type": "uint256"
        }
      ],
      "name": "increaseAllowance",
      "outputs": [
        {
          "internalType": "bool",
          "name": "",
          "type": "bool"
        }
      ],
      "stateMutability": "nonpayable",
      "type": "function"
    },
    {
      "inputs": [],
      "name": "name",
      "outputs": [
        {
          "internalType": "string",
          "name": "",
          "type": "string"
        }
      ],
      "stateMutability": "view",
      "type": "function"
    },
    {
      "inputs": [
        {
          "internalType": "address payable",
          "name": "_keeper",
          "type": "address"
        },
        {
          "internalType": "uint256",
          "name": "_fee",
          "type": "uint256"
        }
      ],
      "name": "payKeeper",
      "outputs": [],
      "stateMutability": "nonpayable",
      "type": "function"
    },
    {
      "inputs": [],
      "name": "symbol",
      "outputs": [
        {
          "internalType": "string",
          "name": "",
          "type": "string"
        }
      ],
      "stateMutability": "view",
      "type": "function"
    },
    {
      "inputs": [],
      "name": "totalSupply",
      "outputs": [
        {
          "internalType": "uint256",
          "name": "",
          "type": "uint256"
        }
      ],
      "stateMutability": "view",
      "type": "function"
    },
    {
      "inputs": [
        {
          "internalType": "address",
          "name": "recipient",
          "type": "address"
        },
        {
          "internalType": "uint256",
          "name": "amount",
          "type": "uint256"
        }
      ],
      "name": "transfer",
      "outputs": [
        {
          "internalType": "bool",
          "name": "",
          "type": "bool"
        }
      ],
      "stateMutability": "nonpayable",
      "type": "function"
    },
    {
      "inputs": [
        {
          "internalType": "address",
          "name": "sender",
          "type": "address"
        },
        {
          "internalType": "address",
          "name": "recipient",
          "type": "address"
        },
        {
          "internalType": "uint256",
          "name": "amount",
          "type": "uint256"
        }
      ],
      "name": "transferFrom",
      "outputs": [
        {
          "internalType": "bool",
          "name": "",
          "type": "bool"
        }
      ],
      "stateMutability": "nonpayable",
      "type": "function"
    },
    {
      "inputs": [
        {
          "internalType": "address",
          "name": "_strategy",
          "type": "address"
        },
        {
          "internalType": "uint256",
          "name": "_newTotalAmount",
          "type": "uint256"
        },
        {
          "internalType": "uint256",
          "name": "_newCapitalReturned",
          "type": "uint256"
        }
      ],
      "name": "updateStrategyRewards",
      "outputs": [],
      "stateMutability": "nonpayable",
      "type": "function"
    }
  ],
  "transactionHash": "0x34166ca119da9a68abcf8f05c9fbfce15472fb34247315b093ab707e5ae7784f",
  "args": [],
  "numDeployments": 3,
  "solcInputHash": "15d60308376c0f4f282a4d9f1a8e27e2",
  "bytecode": "0x608060405234801561001057600080fd5b506001606555612ed4806100256000396000f3fe608060405234801561001057600080fd5b506004361061011b5760003560e01c80635a9e6daa116100b2578063a457c2d711610081578063b2644e6611610066578063b2644e66146105e5578063dd62ed3e1461060b578063e03ea28d146106395761011b565b8063a457c2d71461058d578063a9059cbb146105b95761011b565b80635a9e6daa146102bf57806370a082311461053357806395d89b41146105595780639ab63742146105615761011b565b8063313ce567116100ee578063313ce5671461022d578063395093511461024b5780634422b0dc1461027757806350a96003146102965761011b565b806306fdde0314610120578063095ea7b31461019d57806318160ddd146101dd57806323b872dd146101f7575b600080fd5b61012861066b565b6040805160208082528351818301528351919283929083019185019080838360005b8381101561016257818101518382015260200161014a565b50505050905090810190601f16801561018f5780820380516001836020036101000a031916815260200191505b509250505060405180910390f35b6101c9600480360360408110156101b357600080fd5b506001600160a01b038135169060200135610701565b604080519115158252519081900360200190f35b6101e561071f565b60408051918252519081900360200190f35b6101c96004803603606081101561020d57600080fd5b506001600160a01b03813581169160208101359091169060400135610725565b6102356107ad565b6040805160ff9092168252519081900360200190f35b6101c96004803603604081101561026157600080fd5b506001600160a01b0381351690602001356107b6565b6102946004803603602081101561028d57600080fd5b5035610804565b005b610294600480360360608110156102ac57600080fd5b5080359060208101359060400135610952565b610294600480360360c08110156102d557600080fd5b8101906020810181356401000000008111156102f057600080fd5b82018360208201111561030257600080fd5b8035906020019184600183028401116401000000008311171561032457600080fd5b91908080601f016020809104026020016040519081016040528093929190818152602001838380828437600092019190915250929594936020810193503591505064010000000081111561037757600080fd5b82018360208201111561038957600080fd5b803590602001918460018302840111640100000000831117156103ab57600080fd5b91908080601f01602080910402602001604051908101604052809392919081815260200183838082843760009201919091525092959493602081019350359150506401000000008111156103fe57600080fd5b82018360208201111561041057600080fd5b8035906020019184602083028401116401000000008311171561043257600080fd5b91939092909160208101903564010000000081111561045057600080fd5b82018360208201111561046257600080fd5b8035906020019184602083028401116401000000008311171561048457600080fd5b9193909290916020810190356401000000008111156104a257600080fd5b8201836020820111156104b457600080fd5b803590602001918460208302840111640100000000831117156104d657600080fd5b9193909290916020810190356401000000008111156104f457600080fd5b82018360208201111561050657600080fd5b8035906020019184600183028401116401000000008311171561052857600080fd5b509092509050610d73565b6101e56004803603602081101561054957600080fd5b50356001600160a01b031661127c565b610128611297565b6102946004803603604081101561057757600080fd5b506001600160a01b0381351690602001356112f8565b6101c9600480360360408110156105a357600080fd5b506001600160a01b0381351690602001356116b7565b6101c9600480360360408110156105cf57600080fd5b506001600160a01b03813516906020013561171f565b610294600480360360208110156105fb57600080fd5b50356001600160a01b0316611733565b6101e56004803603604081101561062157600080fd5b506001600160a01b03813581169160200135166117dc565b6102946004803603606081101561064f57600080fd5b506001600160a01b038135169060208101359060400135611807565b60368054604080516020601f60026000196101006001881615020190951694909404938401819004810282018101909252828152606093909290918301828280156106f75780601f106106cc576101008083540402835291602001916106f7565b820191906000526020600020905b8154815290600101906020018083116106da57829003601f168201915b5050505050905090565b600061071561070e611b66565b8484611b6a565b5060015b92915050565b60355490565b6000610732848484611c56565b6107a28461073e611b66565b61079d85604051806060016040528060288152602001612d94602891396001600160a01b038a1660009081526034602052604081209061077c611b66565b6001600160a01b031681526020810191909152604001600020549190611db3565b611b6a565b5060015b9392505050565b60385460ff1690565b60006107156107c3611b66565b8461079d85603460006107d4611b66565b6001600160a01b03908116825260208083019390935260409182016000908120918c168152925290205490611e4a565b61080c611ea4565b600061089282606760009054906101000a90046001600160a01b03166001600160a01b031663313754776040518163ffffffff1660e01b815260040160206040518083038186803b15801561086057600080fd5b505afa158015610874573d6000803e3d6000fd5b505050506040513d602081101561088a57600080fd5b505190611ec4565b90506108b261089f611ee2565b6108a98484611fab565b11156004611fbb565b60675460408051633d63472560e21b81529051610937926001600160a01b03169163f58d1c94916004808301926020929190829003018186803b1580156108f857600080fd5b505afa15801561090c573d6000803e3d6000fd5b505050506040513d602081101561092257600080fd5b50516066546001600160a01b03169083611fc9565b60665461094e906001600160a01b03163384611fc9565b5050565b600260655414156109aa576040805162461bcd60e51b815260206004820152601f60248201527f5265656e7472616e637947756172643a207265656e7472616e742063616c6c00604482015290519081900360640190fd5b60026065556109b761204e565b6109bf611ea4565b8015610a55576000336001600160a01b0316631fe4a6866040518163ffffffff1660e01b815260040160206040518083038186803b158015610a0057600080fd5b505afa158015610a14573d6000803e3d6000fd5b505050506040513d6020811015610a2a57600080fd5b50519050610a378161127c565b8210610a4957610a468161127c565b91505b610a5381836120e7565b505b606b54610a629084611fab565b606b55606d54610a7290836121e3565b606d81905550610ae533607f805480602002602001604051908101604052809291908181526020018280548015610ad257602002820191906000526020600020905b81546001600160a01b03168152600190910190602001808311610ab4575b505050505061224890919063ffffffff16565b8051610af991607f91602090910190612c38565b5060808054600181019091557f59f3fb058c6bba7a4e76396639fc4dd21bd59163db798899cf56cef48b3c9ec901805473ffffffffffffffffffffffffffffffffffffffff191633908117909155600090815260816020908152604091829020805460ff191690556067548251633d63472560e21b815292516001600160a01b03919091169263f58d1c94926004808301939192829003018186803b158015610ba157600080fd5b505afa158015610bb5573d6000803e3d6000fd5b505050506040513d6020811015610bcb57600080fd5b505160408051630cbefec960e31b815290516001600160a01b03909216916365f7f64891600480820192602092909190829003018186803b158015610c0f57600080fd5b505afa158015610c23573d6000803e3d6000fd5b505050506040513d6020811015610c3957600080fd5b50516001600160a01b0316301415610d6957606860009054906101000a90046001600160a01b03166001600160a01b0316638ce90e8230336001600160a01b0316636db40dc26040518163ffffffff1660e01b815260040160206040518083038186803b158015610ca957600080fd5b505afa158015610cbd573d6000803e3d6000fd5b505050506040513d6020811015610cd357600080fd5b5051604080517fffffffff0000000000000000000000000000000000000000000000000000000060e086901b1681526001600160a01b03909316600484015260248301919091525160448083019260209291908290030181600087803b158015610d3c57600080fd5b505af1158015610d50573d6000803e3d6000fd5b505050506040513d6020811015610d6657600080fd5b50505b5050600160655550565b610d7b61204e565b610d916000610d893361127c565b11600f611fbb565b6000610d9c336122c5565b92505050610dab81601e611fbb565b607f54610dbc90601411601a611fbb565b606754604080517f9ef3571000000000000000000000000000000000000000000000000000000000815290516000926001600160a01b031691639ef35710916004808301926020929190829003018186803b158015610e1a57600080fd5b505afa158015610e2e573d6000803e3d6000fd5b505050506040513d6020811015610e4457600080fd5b81019080805190602001909291905050506001600160a01b03166378afca3e8d8d33308f8f6040518763ffffffff1660e01b8152600401808060200180602001876001600160a01b03168152602001866001600160a01b031681526020018060200184810384528a818151815260200191508051906020019080838360005b83811015610edb578181015183820152602001610ec3565b50505050905090810190601f168015610f085780820380516001836020036101000a031916815260200191505b5084810383528951815289516020918201918b019080838360005b83811015610f3b578181015183820152602001610f23565b50505050905090810190601f168015610f685780820380516001836020036101000a031916815260200191505b508481038252868682818152602001925060200280828437600081840152601f19601f8201169050808301925050509950505050505050505050602060405180830381600087803b158015610fbc57600080fd5b505af1158015610fd0573d6000803e3d6000fd5b505050506040513d6020811015610fe657600080fd5b50516001600160a01b0381166000908152608160205260409020805460ff1916600190811790915590915061103a908b908b9081811061102257fe5b90506020020135607954611fab90919063ffffffff16565b607955607f80546001810182556000919091527f66925e85f1a4743fd8d60ba595ed74887b7caf321dd83b21e04d77c11538340801805473ffffffffffffffffffffffffffffffffffffffff19166001600160a01b0383169081179091556040517fecbc2cda000000000000000000000000000000000000000000000000000000008152606060048201908152606482018a905263ecbc2cda918b918b918b918b918b918b918190602481019060448101906084018a60208b0280828437600083820152601f01601f19169091018581038452888152602090810191508990890280828437600083820152601f01601f191690910185810383528681526020019050868680828437600081840152601f19601f8201169050808301925050509950505050505050505050600060405180830381600087803b15801561117e57600080fd5b505af1158015611192573d6000803e3d6000fd5b5050506001600160a01b0382166000818152608260205260409020805460ff1916600117905590507f9e896c245c70d187fa97788cded4bca6b7546fa444cc7b0c111c57b592affa018d8c8c60038181106111e957fe5b905060200201356040518080602001838152602001828103825284818151815260200191508051906020019080838360005b8381101561123357818101518382015260200161121b565b50505050905090810190601f1680156112605780820380516001836020036101000a031916815260200191505b50935050505060405180910390a2505050505050505050505050565b6001600160a01b031660009081526033602052604090205490565b60378054604080516020601f60026000196101006001881615020190951694909404938401819004810282018101909252828152606093909290918301828280156106f75780601f106106cc576101008083540402835291602001916106f7565b60026065541415611350576040805162461bcd60e51b815260206004820152601f60248201527f5265656e7472616e637947756172643a207265656e7472616e742063616c6c00604482015290519081900360640190fd5b600260655561135d61204e565b6113843330148061137d57503360009081526081602052604090205460ff165b6014611fbb565b606754604080517f411137c30000000000000000000000000000000000000000000000000000000081526001600160a01b038581166004830152915161142293929092169163411137c391602480820192602092909190829003018186803b1580156113ef57600080fd5b505afa158015611403573d6000803e3d6000fd5b505050506040513d602081101561141957600080fd5b50516012611fbb565b606754604080517f2630c12f00000000000000000000000000000000000000000000000000000000815290516000926001600160a01b031691632630c12f916004808301926020929190829003018186803b15801561148057600080fd5b505afa158015611494573d6000803e3d6000fd5b505050506040513d60208110156114aa57600080fd5b5051606654604080517fac41865a0000000000000000000000000000000000000000000000000000000081526001600160a01b039283166004820152736b175474e89094c44da98b954eedeac495271d0f60248201529051919092169163ac41865a916044808301926020929190829003018186803b15801561152c57600080fd5b505afa158015611540573d6000803e3d6000fd5b505050506040513d602081101561155657600080fd5b5051606654604080517f313ce567000000000000000000000000000000000000000000000000000000008152905192935060009261160e926115fb926001600160a01b039091169163313ce56791600480820192602092909190829003018186803b1580156115c457600080fd5b505afa1580156115d8573d6000803e3d6000fd5b505050506040513d60208110156115ee57600080fd5b505160129060ff1661256f565b600a0a6116088486611ec4565b9061257f565b9050611627686c6b935b8bbd4000008211156013611fbb565b6083546116349084611fab565b6083556000611641611ee2565b905060006083541180156116555750600081115b156116ab576000608354821161166b578161166f565b6083545b606654909150611689906001600160a01b03168783611fc9565b6084546116969082611fab565b6084556083546116a6908261256f565b608355505b50506001606555505050565b60006107156116c4611b66565b8461079d85604051806060016040528060258152602001612e7a60259139603460006116ee611b66565b6001600160a01b03908116825260208083019390935260409182016000908120918d16815292529020549190611db3565b600061071561172c611b66565b8484611c56565b61173b611ea4565b6117a681607f805480602002602001604051908101604052809291908181526020018280548015610ad2576020028201919060005260206000209081546001600160a01b03168152600190910190602001808311610ab457505050505061224890919063ffffffff16565b80516117ba91607f91602090910190612c38565b506001600160a01b03166000908152608160205260409020805460ff19169055565b6001600160a01b03918216600090815260346020908152604080832093909416825291909152205490565b60675461181c906001600160a01b03166125a3565b6001600160a01b0383166000908152608260205260409020546118689060ff16801561186157506001600160a01b03841660009081526081602052604090205460ff16155b6049611fbb565b6000836001600160a01b0316636db40dc26040518163ffffffff1660e01b815260040160206040518083038186803b1580156118a357600080fd5b505afa1580156118b7573d6000803e3d6000fd5b505050506040513d60208110156118cd57600080fd5b505160675460408051633d63472560e21b815290519293506001600160a01b039091169163f58d1c9491600480820192602092909190829003018186803b15801561191757600080fd5b505afa15801561192b573d6000803e3d6000fd5b505050506040513d602081101561194157600080fd5b505160408051630cbefec960e31b815290516001600160a01b03909216916365f7f64891600480820192602092909190829003018186803b15801561198557600080fd5b505afa158015611999573d6000803e3d6000fd5b505050506040513d60208110156119af57600080fd5b50516001600160a01b0316301480156119c757508281105b15611a5b576068546001600160a01b0316638ce90e82306119e8868561256f565b6040518363ffffffff1660e01b815260040180836001600160a01b0316815260200182815260200192505050602060405180830381600087803b158015611a2e57600080fd5b505af1158015611a42573d6000803e3d6000fd5b505050506040513d6020811015611a5857600080fd5b50505b6000611acc856001600160a01b03166303976e386040518163ffffffff1660e01b815260040160206040518083038186803b158015611a9957600080fd5b505afa158015611aad573d6000803e3d6000fd5b505050506040513d6020811015611ac357600080fd5b5051849061256f565b606d54909150611adc90826121e3565b606d55604080517f5b746af5000000000000000000000000000000000000000000000000000000008152600481018690526024810185905290516001600160a01b03871691635b746af591604480830192600092919082900301818387803b158015611b4757600080fd5b505af1158015611b5b573d6000803e3d6000fd5b505050505050505050565b3390565b6001600160a01b038316611baf5760405162461bcd60e51b8152600401808060200182810382526024815260200180612e2c6024913960400191505060405180910390fd5b6001600160a01b038216611bf45760405162461bcd60e51b8152600401808060200182810382526022815260200180612d056022913960400191505060405180910390fd5b6001600160a01b03808416600081815260346020908152604080832094871680845294825291829020859055815185815291517f8c5be1e5ebec7d5bd14f71427d1e84f3dd0314c0f7b2291e5b200ac8c7c3b9259281900390910190a3505050565b6001600160a01b038316611c9b5760405162461bcd60e51b8152600401808060200182810382526025815260200180612e076025913960400191505060405180910390fd5b6001600160a01b038216611ce05760405162461bcd60e51b8152600401808060200182810382526023815260200180612cc06023913960400191505060405180910390fd5b611ceb838383612049565b611d2881604051806060016040528060268152602001612d27602691396001600160a01b0386166000908152603360205260409020549190611db3565b6001600160a01b038085166000908152603360205260408082209390935590841681522054611d579082611e4a565b6001600160a01b0380841660008181526033602090815260409182902094909455805185815290519193928716927fddf252ad1be2c89b69c2b068fc378daa952ba7f163c4a11628f55a4df523b3ef92918290030190a3505050565b60008184841115611e425760405162461bcd60e51b81526004018080602001828103825283818151815260200191508051906020019080838360005b83811015611e07578181015183820152602001611def565b50505050905090810190601f168015611e345780820380516001836020036101000a031916815260200191505b509250505060405180910390fd5b505050900390565b6000828201838110156107a6576040805162461bcd60e51b815260206004820152601b60248201527f536166654d6174683a206164646974696f6e206f766572666c6f770000000000604482015290519081900360640190fd5b33600090815260816020526040902054611ec29060ff166014611fbb565b565b60006107a6670de0b6b3a7640000611edc858561257f565b906126c8565b606b54606654604080517f70a0823100000000000000000000000000000000000000000000000000000000815230600482015290516000938493611f859391926001600160a01b03909116916370a08231916024808301926020929190829003018186803b158015611f5357600080fd5b505afa158015611f67573d6000803e3d6000fd5b505050506040513d6020811015611f7d57600080fd5b50519061256f565b90506083548111611f97576000611fa5565b608354611fa590829061256f565b91505090565b8082018281101561071957600080fd5b8161094e5761094e8161272f565b604080516001600160a01b038416602482015260448082018490528251808303909101815260649091019091526020810180517bffffffffffffffffffffffffffffffffffffffffffffffffffffffff167fa9059cbb00000000000000000000000000000000000000000000000000000000179052612049908490612782565b505050565b606754604080517f5b14f1830000000000000000000000000000000000000000000000000000000081523060048201529051611ec2926001600160a01b031691635b14f183916024808301926020929190829003018186803b1580156120b357600080fd5b505afa1580156120c7573d6000803e3d6000fd5b505050506040513d60208110156120dd57600080fd5b5051156053611fbb565b6001600160a01b03821661212c5760405162461bcd60e51b8152600401808060200182810382526021815260200180612dbc6021913960400191505060405180910390fd5b61213882600083612049565b61217581604051806060016040528060228152602001612ce3602291396001600160a01b0385166000908152603360205260409020549190611db3565b6001600160a01b03831660009081526033602052604090205560355461219b9082612833565b6035556040805182815290516000916001600160a01b038516917fddf252ad1be2c89b69c2b068fc378daa952ba7f163c4a11628f55a4df523b3ef9181900360200190a35050565b60008282018183128015906121f85750838112155b8061220d575060008312801561220d57508381125b6107a65760405162461bcd60e51b8152600401808060200182810382526021815260200180612d4d6021913960400191505060405180910390fd5b60606000806122578585612890565b91509150806122ad576040805162461bcd60e51b815260206004820152601560248201527f41646472657373206e6f7420696e2061727261792e0000000000000000000000604482015290519081900360640190fd5b60006122b986846128f6565b50935061071992505050565b600080600080606760009054906101000a90046001600160a01b03166001600160a01b0316630ebdb9a26040518163ffffffff1660e01b815260040160206040518083038186803b15801561231957600080fd5b505afa15801561232d573d6000803e3d6000fd5b505050506040513d602081101561234357600080fd5b50519050600160695460ff75010000000000000000000000000000000000000000009091041615806124065750604080517fc7ec5d5d0000000000000000000000000000000000000000000000000000000081523060048201526001600160a01b03888116602483015291519184169163c7ec5d5d91604480820192602092909190829003018186803b1580156123d957600080fd5b505afa1580156123ed573d6000803e3d6000fd5b505050506040513d602081101561240357600080fd5b50515b945080801561241c5750608554610100900460ff165b806124b85750604080517f4d98fbf00000000000000000000000000000000000000000000000000000000081523060048201526001600160a01b038881166024830152915191841691634d98fbf091604480820192602092909190829003018186803b15801561248b57600080fd5b505afa15801561249f573d6000803e3d6000fd5b505050506040513d60208110156124b557600080fd5b50515b93508080156124c9575060855460ff165b806125655750604080517f5066c7140000000000000000000000000000000000000000000000000000000081523060048201526001600160a01b038881166024830152915191841691635066c71491604480820192602092909190829003018186803b15801561253857600080fd5b505afa15801561254c573d6000803e3d6000fd5b505050506040513d602081101561256257600080fd5b50515b9496939550505050565b8082038281111561071957600080fd5b600082158061259a5750508181028183828161259757fe5b04145b61071957600080fd5b806001600160a01b0316638da5cb5b6040518163ffffffff1660e01b815260040160206040518083038186803b1580156125dc57600080fd5b505afa1580156125f0573d6000803e3d6000fd5b505050506040513d602081101561260657600080fd5b50516001600160a01b031633148061268a5750806001600160a01b0316638d97e0436040518163ffffffff1660e01b815260040160206040518083038186803b15801561265257600080fd5b505afa158015612666573d6000803e3d6000fd5b505050506040513d602081101561267c57600080fd5b50516001600160a01b031633145b6126c55760405162461bcd60e51b815260040180806020018281038252602a815260200180612ddd602a913960400191505060405180910390fd5b50565b600080821161271e576040805162461bcd60e51b815260206004820152601a60248201527f536166654d6174683a206469766973696f6e206279207a65726f000000000000604482015290519081900360640190fd5b81838161272757fe5b049392505050565b62461bcd60e51b6000908152602060045260076024526642414223000030600a808404818106603090810160081b95839006959095019082900491820690940160101b939093010160c81b604452606490fd5b60006127d7826040518060400160405280602081526020017f5361666545524332303a206c6f772d6c6576656c2063616c6c206661696c6564815250856001600160a01b0316612a5a9092919063ffffffff16565b805190915015612049578080602001905160208110156127f657600080fd5b50516120495760405162461bcd60e51b815260040180806020018281038252602a815260200180612e50602a913960400191505060405180910390fd5b60008282111561288a576040805162461bcd60e51b815260206004820152601e60248201527f536166654d6174683a207375627472616374696f6e206f766572666c6f770000604482015290519081900360640190fd5b50900390565b81516000908190815b818110156128e357846001600160a01b03168682815181106128b757fe5b60200260200101516001600160a01b031614156128db579250600191506128ef9050565b600101612899565b50600019600092509250505b9250929050565b8151606090600090808410612952576040805162461bcd60e51b815260206004820152601860248201527f496e646578206d757374206265203c2041206c656e6774680000000000000000604482015290519081900360640190fd5b60006001820367ffffffffffffffff8111801561296e57600080fd5b50604051908082528060200260200182016040528015612998578160200160208202803683370190505b50905060005b858110156129e6578681815181106129b257fe5b60200260200101518282815181106129c657fe5b6001600160a01b039092166020928302919091019091015260010161299e565b50600185015b82811015612a3757868181518110612a0057fe5b6020026020010151826001830381518110612a1757fe5b6001600160a01b03909216602092830291909101909101526001016129ec565b5080868681518110612a4557fe5b60200260200101519350935050509250929050565b6060612a698484600085612a71565b949350505050565b606082471015612ab25760405162461bcd60e51b8152600401808060200182810382526026815260200180612d6e6026913960400191505060405180910390fd5b612abb85612bcc565b612b0c576040805162461bcd60e51b815260206004820152601d60248201527f416464726573733a2063616c6c20746f206e6f6e2d636f6e7472616374000000604482015290519081900360640190fd5b600080866001600160a01b031685876040518082805190602001908083835b60208310612b4a5780518252601f199092019160209182019101612b2b565b6001836020036101000a03801982511681845116808217855250505050505090500191505060006040518083038185875af1925050503d8060008114612bac576040519150601f19603f3d011682016040523d82523d6000602084013e612bb1565b606091505b5091509150612bc1828286612bd2565b979650505050505050565b3b151590565b60608315612be15750816107a6565b825115612bf15782518084602001fd5b60405162461bcd60e51b8152602060048201818152845160248401528451859391928392604401919085019080838360008315611e07578181015183820152602001611def565b828054828255906000526020600020908101928215612c9a579160200282015b82811115612c9a578251825473ffffffffffffffffffffffffffffffffffffffff19166001600160a01b03909116178255602090920191600190910190612c58565b50612ca6929150612caa565b5090565b5b80821115612ca65760008155600101612cab56fe45524332303a207472616e7366657220746f20746865207a65726f206164647265737345524332303a206275726e20616d6f756e7420657863656564732062616c616e636545524332303a20617070726f766520746f20746865207a65726f206164647265737345524332303a207472616e7366657220616d6f756e7420657863656564732062616c616e63655369676e6564536166654d6174683a206164646974696f6e206f766572666c6f77416464726573733a20696e73756666696369656e742062616c616e636520666f722063616c6c45524332303a207472616e7366657220616d6f756e74206578636565647320616c6c6f77616e636545524332303a206275726e2066726f6d20746865207a65726f20616464726573734f6e6c7920676f7665726e616e6365206f7220656d657267656e63792063616e2063616c6c207468697345524332303a207472616e736665722066726f6d20746865207a65726f206164647265737345524332303a20617070726f76652066726f6d20746865207a65726f20616464726573735361666545524332303a204552433230206f7065726174696f6e20646964206e6f74207375636365656445524332303a2064656372656173656420616c6c6f77616e63652062656c6f77207a65726fa2646970667358221220e935bba144506e2fd6ed8a75471a63438e070990b35ad91ec80286942e7bedcc64736f6c63430007060033",
  "devdoc": {
    "kind": "dev",
    "methods": {
      "addStrategy(string,string,uint256[],uint8[],address[],bytes)": {
        "params": {
          "_name": "Name of the strategy",
          "_opEncodedDatas": "Param for every operation in the strategy",
          "_opIntegrations": "Integration to use for every operation",
          "_opTypes": "Type for every operation in the strategy",
          "_stratParams": "Num params for the strategy",
          "_symbol": "Symbol of the strategy"
        }
      },
      "allocateCapitalToStrategy(uint256)": {
        "params": {
          "_capital": "Amount of capital to allocate to the strategy"
        }
      },
      "allowance(address,address)": {
        "details": "See {IERC20-allowance}."
      },
      "approve(address,uint256)": {
        "details": "See {IERC20-approve}. Requirements: - `spender` cannot be the zero address."
      },
      "balanceOf(address)": {
        "details": "See {IERC20-balanceOf}."
      },
      "decimals()": {
        "details": "Returns the number of decimals used to get its user representation. For example, if `decimals` equals `2`, a balance of `505` tokens should be displayed to a user as `5,05` (`505 / 10 ** 2`). Tokens usually opt for a value of 18, imitating the relationship between Ether and Wei. This is the value {ERC20} uses, unless {_setupDecimals} is called. NOTE: This information is only used for _display_ purposes: it in no way affects any of the arithmetic of the contract, including {IERC20-balanceOf} and {IERC20-transfer}."
      },
      "decreaseAllowance(address,uint256)": {
        "details": "Atomically decreases the allowance granted to `spender` by the caller. This is an alternative to {approve} that can be used as a mitigation for problems described in {IERC20-approve}. Emits an {Approval} event indicating the updated allowance. Requirements: - `spender` cannot be the zero address. - `spender` must have allowance for the caller of at least `subtractedValue`."
      },
      "finalizeStrategy(uint256,int256,uint256)": {
        "params": {
          "_burningAmount": "The amount of strategist stake to burn in case of                        strategy losses.",
          "_returns": "Profits or losses that the strategy received",
          "_rewards": "Amount of Reserve Asset to set aside forever"
        }
      },
      "increaseAllowance(address,uint256)": {
        "details": "Atomically increases the allowance granted to `spender` by the caller. This is an alternative to {approve} that can be used as a mitigation for problems described in {IERC20-approve}. Emits an {Approval} event indicating the updated allowance. Requirements: - `spender` cannot be the zero address."
      },
      "name()": {
        "details": "Returns the name of the token."
      },
      "payKeeper(address,uint256)": {
        "details": "We assume that calling keeper functions should be less expensive than 2000 DAI.",
        "params": {
          "_fee": "The fee paid to keeper to compensate the gas cost",
          "_keeper": "Keeper that executed the transaction"
        }
      },
      "symbol()": {
        "details": "Returns the symbol of the token, usually a shorter version of the name."
      },
      "totalSupply()": {
        "details": "See {IERC20-totalSupply}."
      },
      "transfer(address,uint256)": {
        "details": "See {IERC20-transfer}. Requirements: - `recipient` cannot be the zero address. - the caller must have a balance of at least `amount`."
      },
      "transferFrom(address,address,uint256)": {
        "details": "See {IERC20-transferFrom}. Emits an {Approval} event indicating the updated allowance. This is not required by the EIP. See the note at the beginning of {ERC20}. Requirements: - `sender` and `recipient` cannot be the zero address. - `sender` must have a balance of at least `amount`. - the caller must have allowance for ``sender``'s tokens of at least `amount`."
      },
      "updateStrategyRewards(address,uint256,uint256)": {
        "params": {
          "_newTotalAmount": "The new BABL rewards",
          "_strategy": "Address of the strategy to patch"
        }
      }
    },
    "title": "StrategyGardenModule Strategy related functions of the Garden contract",
    "version": 1
  },
  "userdoc": {
    "kind": "user",
    "methods": {
      "addStrategy(string,string,uint256[],uint8[],address[],bytes)": {
        "notice": "Creates a new strategy calling the factory and adds it to the array"
      },
      "allocateCapitalToStrategy(uint256)": {
        "notice": "Allocates garden capital to an strategy"
      },
      "finalizeStrategy(uint256,int256,uint256)": {
        "notice": "When strategy ends puts saves returns, rewards and marks strategy as  finalized."
      },
      "payKeeper(address,uint256)": {
        "notice": "Pays gas costs back to the keeper from executing transactions   including the past debt"
      },
      "updateStrategyRewards(address,uint256,uint256)": {
        "notice": "PRIVILEGE FUNCTION to update Garden Strategy Rewards To be used by Governance or Emergency only."
      }
    },
    "version": 1
  },
  "storageLayout": {
    "storage": [
      {
        "astId": 492,
        "contract": "contracts/gardens/StrategyGardenModule.sol:StrategyGardenModule",
        "label": "_initialized",
        "offset": 0,
        "slot": "0",
        "type": "t_bool"
      },
      {
        "astId": 495,
        "contract": "contracts/gardens/StrategyGardenModule.sol:StrategyGardenModule",
        "label": "_initializing",
        "offset": 1,
        "slot": "0",
        "type": "t_bool"
      },
      {
        "astId": 1447,
        "contract": "contracts/gardens/StrategyGardenModule.sol:StrategyGardenModule",
        "label": "__gap",
        "offset": 0,
        "slot": "1",
        "type": "t_array(t_uint256)50_storage"
      },
      {
        "astId": 571,
        "contract": "contracts/gardens/StrategyGardenModule.sol:StrategyGardenModule",
        "label": "_balances",
        "offset": 0,
        "slot": "51",
        "type": "t_mapping(t_address,t_uint256)"
      },
      {
        "astId": 577,
        "contract": "contracts/gardens/StrategyGardenModule.sol:StrategyGardenModule",
        "label": "_allowances",
        "offset": 0,
        "slot": "52",
        "type": "t_mapping(t_address,t_mapping(t_address,t_uint256))"
      },
      {
        "astId": 579,
        "contract": "contracts/gardens/StrategyGardenModule.sol:StrategyGardenModule",
        "label": "_totalSupply",
        "offset": 0,
        "slot": "53",
        "type": "t_uint256"
      },
      {
        "astId": 581,
        "contract": "contracts/gardens/StrategyGardenModule.sol:StrategyGardenModule",
        "label": "_name",
        "offset": 0,
        "slot": "54",
        "type": "t_string_storage"
      },
      {
        "astId": 583,
        "contract": "contracts/gardens/StrategyGardenModule.sol:StrategyGardenModule",
        "label": "_symbol",
        "offset": 0,
        "slot": "55",
        "type": "t_string_storage"
      },
      {
        "astId": 585,
        "contract": "contracts/gardens/StrategyGardenModule.sol:StrategyGardenModule",
        "label": "_decimals",
        "offset": 0,
        "slot": "56",
        "type": "t_uint8"
      },
      {
        "astId": 1080,
        "contract": "contracts/gardens/StrategyGardenModule.sol:StrategyGardenModule",
        "label": "__gap",
        "offset": 0,
        "slot": "57",
        "type": "t_array(t_uint256)44_storage"
      },
      {
        "astId": 6418,
        "contract": "contracts/gardens/StrategyGardenModule.sol:StrategyGardenModule",
        "label": "_status",
        "offset": 0,
        "slot": "101",
        "type": "t_uint256"
      },
      {
        "astId": 23535,
        "contract": "contracts/gardens/StrategyGardenModule.sol:StrategyGardenModule",
        "label": "reserveAsset",
        "offset": 0,
        "slot": "102",
        "type": "t_address"
      },
      {
        "astId": 23537,
        "contract": "contracts/gardens/StrategyGardenModule.sol:StrategyGardenModule",
        "label": "controller",
        "offset": 0,
        "slot": "103",
        "type": "t_contract(IBabController)41718"
      },
      {
        "astId": 23539,
        "contract": "contracts/gardens/StrategyGardenModule.sol:StrategyGardenModule",
        "label": "rewardsDistributor",
        "offset": 0,
        "slot": "104",
        "type": "t_contract(IRewardsDistributor)43517"
      },
      {
        "astId": 23541,
        "contract": "contracts/gardens/StrategyGardenModule.sol:StrategyGardenModule",
        "label": "creator",
        "offset": 0,
        "slot": "105",
        "type": "t_address"
      },
      {
        "astId": 23543,
        "contract": "contracts/gardens/StrategyGardenModule.sol:StrategyGardenModule",
        "label": "active",
        "offset": 20,
        "slot": "105",
        "type": "t_bool"
      },
      {
        "astId": 23545,
        "contract": "contracts/gardens/StrategyGardenModule.sol:StrategyGardenModule",
        "label": "privateGarden",
        "offset": 21,
        "slot": "105",
        "type": "t_bool"
      },
      {
        "astId": 23547,
        "contract": "contracts/gardens/StrategyGardenModule.sol:StrategyGardenModule",
        "label": "principal",
        "offset": 0,
        "slot": "106",
        "type": "t_uint256"
      },
      {
        "astId": 23549,
        "contract": "contracts/gardens/StrategyGardenModule.sol:StrategyGardenModule",
        "label": "reserveAssetRewardsSetAside",
        "offset": 0,
        "slot": "107",
        "type": "t_uint256"
      },
      {
        "astId": 23551,
        "contract": "contracts/gardens/StrategyGardenModule.sol:StrategyGardenModule",
        "label": "reserveAssetPrincipalWindow",
        "offset": 0,
        "slot": "108",
        "type": "t_uint256"
      },
      {
        "astId": 23553,
        "contract": "contracts/gardens/StrategyGardenModule.sol:StrategyGardenModule",
        "label": "absoluteReturns",
        "offset": 0,
        "slot": "109",
        "type": "t_int256"
      },
      {
        "astId": 23555,
        "contract": "contracts/gardens/StrategyGardenModule.sol:StrategyGardenModule",
        "label": "minLiquidityAsset",
        "offset": 0,
        "slot": "110",
        "type": "t_uint256"
      },
      {
        "astId": 23557,
        "contract": "contracts/gardens/StrategyGardenModule.sol:StrategyGardenModule",
        "label": "depositHardlock",
        "offset": 0,
        "slot": "111",
        "type": "t_uint256"
      },
      {
        "astId": 23559,
        "contract": "contracts/gardens/StrategyGardenModule.sol:StrategyGardenModule",
        "label": "withdrawalsOpenUntil",
        "offset": 0,
        "slot": "112",
        "type": "t_uint256"
      },
      {
        "astId": 23563,
        "contract": "contracts/gardens/StrategyGardenModule.sol:StrategyGardenModule",
        "label": "contributors",
        "offset": 0,
        "slot": "113",
        "type": "t_mapping(t_address,t_struct(Contributor)23533_storage)"
      },
      {
        "astId": 23565,
        "contract": "contracts/gardens/StrategyGardenModule.sol:StrategyGardenModule",
        "label": "totalContributors",
        "offset": 0,
        "slot": "114",
        "type": "t_uint256"
      },
      {
        "astId": 23567,
        "contract": "contracts/gardens/StrategyGardenModule.sol:StrategyGardenModule",
        "label": "maxContributors",
        "offset": 0,
        "slot": "115",
        "type": "t_uint256"
      },
      {
        "astId": 23569,
        "contract": "contracts/gardens/StrategyGardenModule.sol:StrategyGardenModule",
        "label": "maxDepositLimit",
        "offset": 0,
        "slot": "116",
        "type": "t_uint256"
      },
      {
        "astId": 23571,
        "contract": "contracts/gardens/StrategyGardenModule.sol:StrategyGardenModule",
        "label": "gardenInitializedAt",
        "offset": 0,
        "slot": "117",
        "type": "t_uint256"
      },
      {
        "astId": 23573,
        "contract": "contracts/gardens/StrategyGardenModule.sol:StrategyGardenModule",
        "label": "pid",
        "offset": 0,
        "slot": "118",
        "type": "t_uint256"
      },
      {
        "astId": 23575,
        "contract": "contracts/gardens/StrategyGardenModule.sol:StrategyGardenModule",
        "label": "minContribution",
        "offset": 0,
        "slot": "119",
        "type": "t_uint256"
      },
      {
        "astId": 23577,
        "contract": "contracts/gardens/StrategyGardenModule.sol:StrategyGardenModule",
        "label": "minGardenTokenSupply",
        "offset": 0,
        "slot": "120",
        "type": "t_uint256"
      },
      {
        "astId": 23579,
        "contract": "contracts/gardens/StrategyGardenModule.sol:StrategyGardenModule",
        "label": "totalStake",
        "offset": 0,
        "slot": "121",
        "type": "t_uint256"
      },
      {
        "astId": 23581,
        "contract": "contracts/gardens/StrategyGardenModule.sol:StrategyGardenModule",
        "label": "minVotesQuorum",
        "offset": 0,
        "slot": "122",
        "type": "t_uint256"
      },
      {
        "astId": 23583,
        "contract": "contracts/gardens/StrategyGardenModule.sol:StrategyGardenModule",
        "label": "minVoters",
        "offset": 0,
        "slot": "123",
        "type": "t_uint256"
      },
      {
        "astId": 23585,
        "contract": "contracts/gardens/StrategyGardenModule.sol:StrategyGardenModule",
        "label": "minStrategyDuration",
        "offset": 0,
        "slot": "124",
        "type": "t_uint256"
      },
      {
        "astId": 23587,
        "contract": "contracts/gardens/StrategyGardenModule.sol:StrategyGardenModule",
        "label": "maxStrategyDuration",
        "offset": 0,
        "slot": "125",
        "type": "t_uint256"
      },
      {
        "astId": 23589,
        "contract": "contracts/gardens/StrategyGardenModule.sol:StrategyGardenModule",
        "label": "strategyCooldownPeriod",
        "offset": 0,
        "slot": "126",
        "type": "t_uint256"
      },
      {
        "astId": 23592,
        "contract": "contracts/gardens/StrategyGardenModule.sol:StrategyGardenModule",
        "label": "strategies",
        "offset": 0,
        "slot": "127",
        "type": "t_array(t_address)dyn_storage"
      },
      {
        "astId": 23595,
        "contract": "contracts/gardens/StrategyGardenModule.sol:StrategyGardenModule",
        "label": "finalizedStrategies",
        "offset": 0,
        "slot": "128",
        "type": "t_array(t_address)dyn_storage"
      },
      {
        "astId": 23599,
        "contract": "contracts/gardens/StrategyGardenModule.sol:StrategyGardenModule",
        "label": "strategyMapping",
        "offset": 0,
        "slot": "129",
        "type": "t_mapping(t_address,t_bool)"
      },
      {
        "astId": 23603,
        "contract": "contracts/gardens/StrategyGardenModule.sol:StrategyGardenModule",
        "label": "isGardenStrategy",
        "offset": 0,
        "slot": "130",
        "type": "t_mapping(t_address,t_bool)"
      },
      {
        "astId": 23605,
        "contract": "contracts/gardens/StrategyGardenModule.sol:StrategyGardenModule",
        "label": "keeperDebt",
        "offset": 0,
        "slot": "131",
        "type": "t_uint256"
      },
      {
        "astId": 23607,
        "contract": "contracts/gardens/StrategyGardenModule.sol:StrategyGardenModule",
        "label": "totalKeeperFees",
        "offset": 0,
        "slot": "132",
        "type": "t_uint256"
      },
      {
        "astId": 23609,
        "contract": "contracts/gardens/StrategyGardenModule.sol:StrategyGardenModule",
        "label": "publicStrategists",
        "offset": 0,
        "slot": "133",
        "type": "t_bool"
      },
      {
        "astId": 23611,
        "contract": "contracts/gardens/StrategyGardenModule.sol:StrategyGardenModule",
        "label": "publicStewards",
        "offset": 1,
        "slot": "133",
        "type": "t_bool"
      },
      {
        "astId": 23615,
        "contract": "contracts/gardens/StrategyGardenModule.sol:StrategyGardenModule",
        "label": "extraCreators",
        "offset": 0,
        "slot": "134",
        "type": "t_array(t_address)4_storage"
      },
      {
        "astId": 23617,
        "contract": "contracts/gardens/StrategyGardenModule.sol:StrategyGardenModule",
        "label": "lastPricePerShare",
        "offset": 0,
        "slot": "138",
        "type": "t_uint256"
      },
      {
        "astId": 23619,
        "contract": "contracts/gardens/StrategyGardenModule.sol:StrategyGardenModule",
        "label": "lastPricePerShareTS",
        "offset": 0,
        "slot": "139",
        "type": "t_uint256"
      },
      {
        "astId": 23621,
        "contract": "contracts/gardens/StrategyGardenModule.sol:StrategyGardenModule",
        "label": "pricePerShareDecayRate",
        "offset": 0,
        "slot": "140",
        "type": "t_uint256"
      },
      {
        "astId": 23623,
        "contract": "contracts/gardens/StrategyGardenModule.sol:StrategyGardenModule",
        "label": "pricePerShareDelta",
        "offset": 0,
        "slot": "141",
        "type": "t_uint256"
      }
    ],
    "types": {
      "t_address": {
        "encoding": "inplace",
        "label": "address",
        "numberOfBytes": "20"
      },
      "t_array(t_address)4_storage": {
        "base": "t_address",
        "encoding": "inplace",
        "label": "address[4]",
        "numberOfBytes": "128"
      },
      "t_array(t_address)dyn_storage": {
        "base": "t_address",
        "encoding": "dynamic_array",
        "label": "address[]",
        "numberOfBytes": "32"
      },
      "t_array(t_uint256)44_storage": {
        "base": "t_uint256",
        "encoding": "inplace",
        "label": "uint256[44]",
        "numberOfBytes": "1408"
      },
      "t_array(t_uint256)50_storage": {
        "base": "t_uint256",
        "encoding": "inplace",
        "label": "uint256[50]",
        "numberOfBytes": "1600"
      },
      "t_bool": {
        "encoding": "inplace",
        "label": "bool",
        "numberOfBytes": "1"
      },
      "t_contract(IBabController)41718": {
        "encoding": "inplace",
        "label": "contract IBabController",
        "numberOfBytes": "20"
      },
      "t_contract(IRewardsDistributor)43517": {
        "encoding": "inplace",
        "label": "contract IRewardsDistributor",
        "numberOfBytes": "20"
      },
      "t_int256": {
        "encoding": "inplace",
        "label": "int256",
        "numberOfBytes": "32"
      },
      "t_mapping(t_address,t_bool)": {
        "encoding": "mapping",
        "key": "t_address",
        "label": "mapping(address => bool)",
        "numberOfBytes": "32",
        "value": "t_bool"
      },
      "t_mapping(t_address,t_mapping(t_address,t_uint256))": {
        "encoding": "mapping",
        "key": "t_address",
        "label": "mapping(address => mapping(address => uint256))",
        "numberOfBytes": "32",
        "value": "t_mapping(t_address,t_uint256)"
      },
      "t_mapping(t_address,t_struct(Contributor)23533_storage)": {
        "encoding": "mapping",
        "key": "t_address",
        "label": "mapping(address => struct BaseGardenModule.Contributor)",
        "numberOfBytes": "32",
        "value": "t_struct(Contributor)23533_storage"
      },
      "t_mapping(t_address,t_uint256)": {
        "encoding": "mapping",
        "key": "t_address",
        "label": "mapping(address => uint256)",
        "numberOfBytes": "32",
        "value": "t_uint256"
      },
      "t_string_storage": {
        "encoding": "bytes",
        "label": "string",
        "numberOfBytes": "32"
      },
      "t_struct(Contributor)23533_storage": {
        "encoding": "inplace",
        "label": "struct BaseGardenModule.Contributor",
        "members": [
          {
            "astId": 23518,
            "contract": "contracts/gardens/StrategyGardenModule.sol:StrategyGardenModule",
            "label": "lastDepositAt",
            "offset": 0,
            "slot": "0",
            "type": "t_uint256"
          },
          {
            "astId": 23520,
            "contract": "contracts/gardens/StrategyGardenModule.sol:StrategyGardenModule",
            "label": "initialDepositAt",
            "offset": 0,
            "slot": "1",
            "type": "t_uint256"
          },
          {
            "astId": 23522,
            "contract": "contracts/gardens/StrategyGardenModule.sol:StrategyGardenModule",
            "label": "claimedAt",
            "offset": 0,
            "slot": "2",
            "type": "t_uint256"
          },
          {
            "astId": 23524,
            "contract": "contracts/gardens/StrategyGardenModule.sol:StrategyGardenModule",
            "label": "claimedBABL",
            "offset": 0,
            "slot": "3",
            "type": "t_uint256"
          },
          {
            "astId": 23526,
            "contract": "contracts/gardens/StrategyGardenModule.sol:StrategyGardenModule",
            "label": "claimedRewards",
            "offset": 0,
            "slot": "4",
            "type": "t_uint256"
          },
          {
            "astId": 23528,
            "contract": "contracts/gardens/StrategyGardenModule.sol:StrategyGardenModule",
            "label": "withdrawnSince",
            "offset": 0,
            "slot": "5",
            "type": "t_uint256"
          },
          {
            "astId": 23530,
            "contract": "contracts/gardens/StrategyGardenModule.sol:StrategyGardenModule",
            "label": "totalDeposits",
            "offset": 0,
            "slot": "6",
            "type": "t_uint256"
          },
          {
            "astId": 23532,
            "contract": "contracts/gardens/StrategyGardenModule.sol:StrategyGardenModule",
            "label": "nonce",
            "offset": 0,
            "slot": "7",
            "type": "t_uint256"
          }
        ],
        "numberOfBytes": "256"
      },
      "t_uint256": {
        "encoding": "inplace",
        "label": "uint256",
        "numberOfBytes": "32"
      },
      "t_uint8": {
        "encoding": "inplace",
        "label": "uint8",
        "numberOfBytes": "1"
      }
    }
  }
}