{
  "address": "0x6a7b8F2C49994D9dBcFE10805B7ca59176693696",
  "abi": [
    {
      "anonymous": false,
      "inputs": [
        {
          "indexed": true,
          "internalType": "address",
          "name": "_target",
          "type": "address"
        },
        {
          "indexed": true,
          "internalType": "uint256",
          "name": "_value",
          "type": "uint256"
        },
        {
          "indexed": false,
          "internalType": "bytes",
          "name": "_data",
          "type": "bytes"
        },
        {
          "indexed": false,
          "internalType": "bytes",
          "name": "_returnValue",
          "type": "bytes"
        }
      ],
      "name": "Invoked",
      "type": "event"
    },
    {
      "anonymous": false,
      "inputs": [
        {
          "indexed": true,
          "internalType": "address",
          "name": "_garden",
          "type": "address"
        },
        {
          "indexed": false,
          "internalType": "uint256",
          "name": "_timestamp",
          "type": "uint256"
        }
      ],
      "name": "StrategyDeleted",
      "type": "event"
    },
    {
      "anonymous": false,
      "inputs": [
        {
          "indexed": false,
          "internalType": "uint256",
          "name": "_newDuration",
          "type": "uint256"
        },
        {
          "indexed": false,
          "internalType": "uint256",
          "name": "_oldDuration",
          "type": "uint256"
        }
      ],
      "name": "StrategyDurationChanged",
      "type": "event"
    },
    {
      "anonymous": false,
      "inputs": [
        {
          "indexed": true,
          "internalType": "address",
          "name": "_garden",
          "type": "address"
        },
        {
          "indexed": false,
          "internalType": "uint256",
          "name": "_capital",
          "type": "uint256"
        },
        {
          "indexed": false,
          "internalType": "uint256",
          "name": "_fee",
          "type": "uint256"
        },
        {
          "indexed": false,
          "internalType": "uint256",
          "name": "timestamp",
          "type": "uint256"
        }
      ],
      "name": "StrategyExecuted",
      "type": "event"
    },
    {
      "anonymous": false,
      "inputs": [
        {
          "indexed": true,
          "internalType": "address",
          "name": "_garden",
          "type": "address"
        },
        {
          "indexed": false,
          "internalType": "uint256",
          "name": "_timestamp",
          "type": "uint256"
        }
      ],
      "name": "StrategyExpired",
      "type": "event"
    },
    {
      "anonymous": false,
      "inputs": [
        {
          "indexed": true,
          "internalType": "address",
          "name": "_garden",
          "type": "address"
        },
        {
          "indexed": false,
          "internalType": "uint256",
          "name": "_capitalReturned",
          "type": "uint256"
        },
        {
          "indexed": false,
          "internalType": "uint256",
          "name": "_fee",
          "type": "uint256"
        },
        {
          "indexed": false,
          "internalType": "uint256",
          "name": "timestamp",
          "type": "uint256"
        }
      ],
      "name": "StrategyFinalized",
      "type": "event"
    },
    {
      "anonymous": false,
      "inputs": [
        {
          "indexed": true,
          "internalType": "address",
          "name": "_garden",
          "type": "address"
        },
        {
          "indexed": false,
          "internalType": "uint256",
          "name": "_amountReduced",
          "type": "uint256"
        },
        {
          "indexed": false,
          "internalType": "uint256",
          "name": "timestamp",
          "type": "uint256"
        }
      ],
      "name": "StrategyReduced",
      "type": "event"
    },
    {
      "anonymous": false,
      "inputs": [
        {
          "indexed": true,
          "internalType": "address",
          "name": "_garden",
          "type": "address"
        },
        {
          "indexed": false,
          "internalType": "uint256",
          "name": "totalPositiveVotes",
          "type": "uint256"
        },
        {
          "indexed": false,
          "internalType": "uint256",
          "name": "totalNegativeVotes",
          "type": "uint256"
        },
        {
          "indexed": false,
          "internalType": "uint256",
          "name": "_timestamp",
          "type": "uint256"
        }
      ],
      "name": "StrategyVoted",
      "type": "event"
    },
    {
      "inputs": [],
      "name": "capitalAllocated",
      "outputs": [
        {
          "internalType": "uint256",
          "name": "",
          "type": "uint256"
        }
      ],
      "stateMutability": "view",
      "type": "function"
    },
    {
      "inputs": [],
      "name": "capitalReturned",
      "outputs": [
        {
          "internalType": "uint256",
          "name": "",
          "type": "uint256"
        }
      ],
      "stateMutability": "view",
      "type": "function"
    },
    {
      "inputs": [],
      "name": "deleteCandidateStrategy",
      "outputs": [],
      "stateMutability": "nonpayable",
      "type": "function"
    },
    {
      "inputs": [],
      "name": "duration",
      "outputs": [
        {
          "internalType": "uint256",
          "name": "",
          "type": "uint256"
        }
      ],
      "stateMutability": "view",
      "type": "function"
    },
    {
      "inputs": [],
      "name": "enteredAt",
      "outputs": [
        {
          "internalType": "uint256",
          "name": "",
          "type": "uint256"
        }
      ],
      "stateMutability": "view",
      "type": "function"
    },
    {
      "inputs": [],
      "name": "enteredCooldownAt",
      "outputs": [
        {
          "internalType": "uint256",
          "name": "",
          "type": "uint256"
        }
      ],
      "stateMutability": "view",
      "type": "function"
    },
    {
      "inputs": [
        {
          "internalType": "uint256",
          "name": "_capital",
          "type": "uint256"
        },
        {
          "internalType": "uint256",
          "name": "_fee",
          "type": "uint256"
        }
      ],
      "name": "executeStrategy",
      "outputs": [],
      "stateMutability": "nonpayable",
      "type": "function"
    },
    {
      "inputs": [],
      "name": "expectedReturn",
      "outputs": [
        {
          "internalType": "uint256",
          "name": "",
          "type": "uint256"
        }
      ],
      "stateMutability": "view",
      "type": "function"
    },
    {
      "inputs": [
        {
          "internalType": "uint256",
          "name": "_fee",
          "type": "uint256"
        }
      ],
      "name": "expireStrategy",
      "outputs": [],
      "stateMutability": "nonpayable",
      "type": "function"
    },
    {
      "inputs": [
        {
          "internalType": "uint256",
          "name": "_fee",
          "type": "uint256"
        },
        {
          "internalType": "string",
          "name": "_tokenURI",
          "type": "string"
        }
      ],
      "name": "finalizeStrategy",
      "outputs": [],
      "stateMutability": "nonpayable",
      "type": "function"
    },
    {
      "inputs": [],
      "name": "garden",
      "outputs": [
        {
          "internalType": "contract IGarden",
          "name": "",
          "type": "address"
        }
      ],
      "stateMutability": "view",
      "type": "function"
    },
    {
      "inputs": [],
      "name": "getNAV",
      "outputs": [
        {
          "internalType": "uint256",
          "name": "",
          "type": "uint256"
        }
      ],
      "stateMutability": "view",
      "type": "function"
    },
    {
      "inputs": [
        {
          "internalType": "uint8",
          "name": "_index",
          "type": "uint8"
        }
      ],
      "name": "getOperationByIndex",
      "outputs": [
        {
          "internalType": "uint8",
          "name": "",
          "type": "uint8"
        },
        {
          "internalType": "address",
          "name": "",
          "type": "address"
        },
        {
          "internalType": "bytes",
          "name": "",
          "type": "bytes"
        }
      ],
      "stateMutability": "view",
      "type": "function"
    },
    {
      "inputs": [],
      "name": "getOperationsCount",
      "outputs": [
        {
          "internalType": "uint256",
          "name": "",
          "type": "uint256"
        }
      ],
      "stateMutability": "view",
      "type": "function"
    },
    {
      "inputs": [],
      "name": "getStrategyDetails",
      "outputs": [
        {
          "internalType": "address",
          "name": "",
          "type": "address"
        },
        {
          "internalType": "address",
          "name": "",
          "type": "address"
        },
        {
          "internalType": "uint256",
          "name": "",
          "type": "uint256"
        },
        {
          "internalType": "uint256",
          "name": "",
          "type": "uint256"
        },
        {
          "internalType": "uint256",
          "name": "",
          "type": "uint256"
        },
        {
          "internalType": "uint256",
          "name": "",
          "type": "uint256"
        },
        {
          "internalType": "uint256",
          "name": "",
          "type": "uint256"
        },
        {
          "internalType": "uint256",
          "name": "",
          "type": "uint256"
        },
        {
          "internalType": "uint256",
          "name": "",
          "type": "uint256"
        },
        {
          "internalType": "uint256",
          "name": "",
          "type": "uint256"
        },
        {
          "internalType": "uint256",
          "name": "",
          "type": "uint256"
        },
        {
          "internalType": "address",
          "name": "",
          "type": "address"
        },
        {
          "internalType": "uint256",
          "name": "",
          "type": "uint256"
        },
        {
          "internalType": "uint256",
          "name": "",
          "type": "uint256"
        }
      ],
      "stateMutability": "view",
      "type": "function"
    },
    {
      "inputs": [],
      "name": "getStrategyRewardsContext",
      "outputs": [
        {
          "internalType": "address",
          "name": "",
          "type": "address"
        },
        {
          "internalType": "uint256[]",
          "name": "",
          "type": "uint256[]"
        },
        {
          "internalType": "bool[]",
          "name": "",
          "type": "bool[]"
        }
      ],
      "stateMutability": "view",
      "type": "function"
    },
    {
      "inputs": [],
      "name": "getStrategyState",
      "outputs": [
        {
          "internalType": "address",
          "name": "",
          "type": "address"
        },
        {
          "internalType": "bool",
          "name": "",
          "type": "bool"
        },
        {
          "internalType": "bool",
          "name": "",
          "type": "bool"
        },
        {
          "internalType": "bool",
          "name": "",
          "type": "bool"
        },
        {
          "internalType": "uint256",
          "name": "",
          "type": "uint256"
        },
        {
          "internalType": "uint256",
          "name": "",
          "type": "uint256"
        },
        {
          "internalType": "uint256",
          "name": "",
          "type": "uint256"
        }
      ],
      "stateMutability": "view",
      "type": "function"
    },
    {
      "inputs": [
        {
          "internalType": "address",
          "name": "_address",
          "type": "address"
        }
      ],
      "name": "getUserVotes",
      "outputs": [
        {
          "internalType": "int256",
          "name": "",
          "type": "int256"
        }
      ],
      "stateMutability": "view",
      "type": "function"
    },
    {
      "inputs": [
        {
          "internalType": "bool",
          "name": "_isDeposit",
          "type": "bool"
        },
        {
          "internalType": "uint256",
          "name": "_wethAmount",
          "type": "uint256"
        }
      ],
      "name": "handleWeth",
      "outputs": [],
      "stateMutability": "nonpayable",
      "type": "function"
    },
    {
      "inputs": [
        {
          "internalType": "address",
          "name": "_strategist",
          "type": "address"
        },
        {
          "internalType": "address",
          "name": "_garden",
          "type": "address"
        },
        {
          "internalType": "address",
          "name": "_controller",
          "type": "address"
        },
        {
          "internalType": "uint256",
          "name": "_maxCapitalRequested",
          "type": "uint256"
        },
        {
          "internalType": "uint256",
          "name": "_stake",
          "type": "uint256"
        },
        {
          "internalType": "uint256",
          "name": "_strategyDuration",
          "type": "uint256"
        },
        {
          "internalType": "uint256",
          "name": "_expectedReturn",
          "type": "uint256"
        },
        {
          "internalType": "uint256",
          "name": "_maxAllocationPercentage",
          "type": "uint256"
        },
        {
          "internalType": "uint256",
          "name": "_maxGasFeePercentage",
          "type": "uint256"
        },
        {
          "internalType": "uint256",
          "name": "_maxTradeSlippagePercentage",
          "type": "uint256"
        }
      ],
      "name": "initialize",
      "outputs": [],
      "stateMutability": "nonpayable",
      "type": "function"
    },
    {
      "inputs": [
        {
          "internalType": "address",
          "name": "_spender",
          "type": "address"
        },
        {
          "internalType": "address",
          "name": "_asset",
          "type": "address"
        },
        {
          "internalType": "uint256",
          "name": "_quantity",
          "type": "uint256"
        }
      ],
      "name": "invokeApprove",
      "outputs": [],
      "stateMutability": "nonpayable",
      "type": "function"
    },
    {
      "inputs": [
        {
          "internalType": "address",
          "name": "_target",
          "type": "address"
        },
        {
          "internalType": "uint256",
          "name": "_value",
          "type": "uint256"
        },
        {
          "internalType": "bytes",
          "name": "_data",
          "type": "bytes"
        }
      ],
      "name": "invokeFromIntegration",
      "outputs": [
        {
          "internalType": "bytes",
          "name": "",
          "type": "bytes"
        }
      ],
      "stateMutability": "nonpayable",
      "type": "function"
    },
    {
      "inputs": [],
      "name": "isStrategyActive",
      "outputs": [
        {
          "internalType": "bool",
          "name": "",
          "type": "bool"
        }
      ],
      "stateMutability": "view",
      "type": "function"
    },
    {
      "inputs": [],
      "name": "maxAllocationPercentage",
      "outputs": [
        {
          "internalType": "uint256",
          "name": "",
          "type": "uint256"
        }
      ],
      "stateMutability": "view",
      "type": "function"
    },
    {
      "inputs": [],
      "name": "maxCapitalRequested",
      "outputs": [
        {
          "internalType": "uint256",
          "name": "",
          "type": "uint256"
        }
      ],
      "stateMutability": "view",
      "type": "function"
    },
    {
      "inputs": [],
      "name": "maxGasFeePercentage",
      "outputs": [
        {
          "internalType": "uint256",
          "name": "",
          "type": "uint256"
        }
      ],
      "stateMutability": "view",
      "type": "function"
    },
    {
      "inputs": [],
      "name": "maxTradeSlippagePercentage",
      "outputs": [
        {
          "internalType": "uint256",
          "name": "",
          "type": "uint256"
        }
      ],
      "stateMutability": "view",
      "type": "function"
    },
    {
      "inputs": [],
      "name": "opEncodedData",
      "outputs": [
        {
          "internalType": "bytes",
          "name": "",
          "type": "bytes"
        }
      ],
      "stateMutability": "view",
      "type": "function"
    },
    {
      "inputs": [
        {
          "internalType": "address[]",
          "name": "_voters",
          "type": "address[]"
        },
        {
          "internalType": "int256[]",
          "name": "_votes",
          "type": "int256[]"
        },
        {
          "internalType": "uint256",
          "name": "_fee",
          "type": "uint256"
        }
      ],
      "name": "resolveVoting",
      "outputs": [],
      "stateMutability": "nonpayable",
      "type": "function"
    },
    {
      "inputs": [
        {
          "internalType": "uint8[]",
          "name": "_opTypes",
          "type": "uint8[]"
        },
        {
          "internalType": "address[]",
          "name": "_opIntegrations",
          "type": "address[]"
        },
        {
          "internalType": "bytes",
          "name": "_opEncodedData",
          "type": "bytes"
        }
      ],
      "name": "setData",
      "outputs": [],
      "stateMutability": "nonpayable",
      "type": "function"
    },
    {
      "inputs": [],
      "name": "stake",
      "outputs": [
        {
          "internalType": "uint256",
          "name": "",
          "type": "uint256"
        }
      ],
      "stateMutability": "view",
      "type": "function"
    },
    {
      "inputs": [],
      "name": "strategist",
      "outputs": [
        {
          "internalType": "address",
          "name": "",
          "type": "address"
        }
      ],
      "stateMutability": "view",
      "type": "function"
    },
    {
      "inputs": [],
      "name": "strategyRewards",
      "outputs": [
        {
          "internalType": "uint256",
          "name": "",
          "type": "uint256"
        }
      ],
      "stateMutability": "view",
      "type": "function"
    },
    {
      "inputs": [
        {
          "internalType": "address",
          "name": "_token",
          "type": "address"
        }
      ],
      "name": "sweep",
      "outputs": [],
      "stateMutability": "nonpayable",
      "type": "function"
    },
    {
      "inputs": [],
      "name": "totalNegativeVotes",
      "outputs": [
        {
          "internalType": "uint256",
          "name": "",
          "type": "uint256"
        }
      ],
      "stateMutability": "view",
      "type": "function"
    },
    {
      "inputs": [],
      "name": "totalPositiveVotes",
      "outputs": [
        {
          "internalType": "uint256",
          "name": "",
          "type": "uint256"
        }
      ],
      "stateMutability": "view",
      "type": "function"
    },
    {
      "inputs": [
        {
          "internalType": "address",
          "name": "_sendToken",
          "type": "address"
        },
        {
          "internalType": "uint256",
          "name": "_sendQuantity",
          "type": "uint256"
        },
        {
          "internalType": "address",
          "name": "_receiveToken",
          "type": "address"
        }
      ],
      "name": "trade",
      "outputs": [
        {
          "internalType": "uint256",
          "name": "",
          "type": "uint256"
        }
      ],
      "stateMutability": "nonpayable",
      "type": "function"
    },
    {
      "inputs": [
        {
          "internalType": "uint256",
          "name": "_amountToUnwind",
          "type": "uint256"
        },
        {
          "internalType": "uint256",
          "name": "_strategyNAV",
          "type": "uint256"
        }
      ],
      "name": "unwindStrategy",
      "outputs": [],
      "stateMutability": "nonpayable",
      "type": "function"
    },
    {
      "inputs": [
        {
          "internalType": "uint256[4]",
          "name": "_params",
          "type": "uint256[4]"
        }
      ],
      "name": "updateParams",
      "outputs": [],
      "stateMutability": "nonpayable",
      "type": "function"
    },
    {
      "inputs": [
        {
          "internalType": "uint256",
          "name": "",
          "type": "uint256"
        }
      ],
      "name": "voters",
      "outputs": [
        {
          "internalType": "address",
          "name": "",
          "type": "address"
        }
      ],
      "stateMutability": "view",
      "type": "function"
    },
    {
      "stateMutability": "payable",
      "type": "receive"
    }
  ],
  "transactionHash": "0x60938393ba76c80a6d2cefe7c817943d29f040bf9c07fca423c54e342a147540",
  "args": [],
  "solcInputHash": "4b18f8fad53dd00d68bfe4a5cad0bf48",
  "bytecode": "0x608060405234801561001057600080fd5b506001600055615e0c80620000266000396000f3fe6080604052600436106102bf5760003560e01c80636db40dc21161016e578063d40244cb116100cb578063eb64ca411161007f578063f101e82b11610064578063f101e82b14610c8e578063fa9bacac14610cbe578063ffb5cd0914610cee576102c6565b8063eb64ca4114610b0e578063ecbc2cda14610b37576102c6565b8063da58c7d9116100b0578063da58c7d914610aa6578063dd1033f814610ad0578063e4df5e1a14610ae5576102c6565b8063d40244cb14610a21578063d45fc1a914610a36576102c6565b806397ccdc6011610122578063bf1dcfe211610107578063bf1dcfe2146109a0578063bf3fdf0d146109f7578063d3406abd14610a0c576102c6565b806397ccdc6014610948578063a30ca2041461098b576102c6565b8063707cddfe11610153578063707cddfe146108eb57806393baae4114610900578063950c782214610915576102c6565b80636db40dc2146108c15780636db9cc99146108d6576102c6565b80632aba2af41161021c5780634b2e52f0116101d0578063577b6ab8116101b5578063577b6ab8146106eb5780636b3b75ea146107005780636bc195dd146107ba576102c6565b80634b2e52f0146106c157806356ba88b8146106d6576102c6565b80633a4b66f1116102015780633a4b66f1146105d8578063449b9826146105ed57806348a4beaa14610602576102c6565b80632aba2af414610505578063397dc903146105c3576102c6565b80630fb5a6b4116102735780631a5cfcb7116102585780631a5cfcb7146103d35780631fe4a68614610405578063290d2e9114610436576102c6565b80630fb5a6b4146103945780631115bdcf146103a9576102c6565b806303976e38116102a457806303976e381461032757806303cddb2c1461033c5780630e32db5214610351576102c6565b80630126c606146102cb57806301681a62146102f2576102c6565b366102c657005b600080fd5b3480156102d757600080fd5b506102e0610d8f565b60408051918252519081900360200190f35b3480156102fe57600080fd5b506103256004803603602081101561031557600080fd5b50356001600160a01b03166111c7565b005b34801561033357600080fd5b506102e0611512565b34801561034857600080fd5b506102e0611518565b34801561035d57600080fd5b506102e06004803603606081101561037457600080fd5b506001600160a01b0381358116916020810135916040909101351661151e565b3480156103a057600080fd5b506102e0611545565b3480156103b557600080fd5b50610325600480360360208110156103cc57600080fd5b503561154b565b3480156103df57600080fd5b50610325600480360360408110156103f657600080fd5b508035151590602001356116b0565b34801561041157600080fd5b5061041a6116c6565b604080516001600160a01b039092168252519081900360200190f35b34801561044257600080fd5b506103256004803603606081101561045957600080fd5b81019060208101813564010000000081111561047457600080fd5b82018360208201111561048657600080fd5b803590602001918460208302840111640100000000831117156104a857600080fd5b9193909290916020810190356401000000008111156104c657600080fd5b8201836020820111156104d857600080fd5b803590602001918460208302840111640100000000831117156104fa57600080fd5b9193509150356116d5565b34801561051157600080fd5b5061051a6119c0565b60405180846001600160a01b031681526020018060200180602001838103835285818151815260200191508051906020019060200280838360005b8381101561056d578181015183820152602001610555565b50505050905001838103825284818151815260200191508051906020019060200280838360005b838110156105ac578181015183820152602001610594565b505050509050019550505050505060405180910390f35b3480156105cf57600080fd5b506102e0611ce3565b3480156105e457600080fd5b506102e0611ce9565b3480156105f957600080fd5b506102e0611cef565b34801561060e57600080fd5b5061062f6004803603602081101561062557600080fd5b503560ff16611cf5565b604051808460ff168152602001836001600160a01b0316815260200180602001828103825283818151815260200191508051906020019080838360005b8381101561068457818101518382015260200161066c565b50505050905090810190601f1680156106b15780820380516001836020036101000a031916815260200191505b5094505050505060405180910390f35b3480156106cd57600080fd5b506102e0611d7a565b3480156106e257600080fd5b5061041a611d80565b3480156106f757600080fd5b50610325611d8f565b34801561070c57600080fd5b506103256004803603604081101561072357600080fd5b8135919081019060408101602082013564010000000081111561074557600080fd5b82018360208201111561075757600080fd5b8035906020019184600183028401116401000000008311171561077957600080fd5b91908080601f016020809104026020016040519081016040528093929190818152602001838380828437600092019190915250929550611de3945050505050565b3480156107c657600080fd5b5061084c600480360360608110156107dd57600080fd5b6001600160a01b038235169160208101359181019060608101604082013564010000000081111561080d57600080fd5b82018360208201111561081f57600080fd5b8035906020019184600183028401116401000000008311171561084157600080fd5b509092509050612373565b6040805160208082528351818301528351919283929083019185019080838360005b8381101561088657818101518382015260200161086e565b50505050905090810190601f1680156108b35780820380516001836020036101000a031916815260200191505b509250505060405180910390f35b3480156108cd57600080fd5b506102e06123d0565b3480156108e257600080fd5b506102e06123d6565b3480156108f757600080fd5b506102e06123dc565b34801561090c57600080fd5b506102e06123e2565b34801561092157600080fd5b506102e06004803603602081101561093857600080fd5b50356001600160a01b03166123e8565b34801561095457600080fd5b506103256004803603606081101561096b57600080fd5b506001600160a01b03813581169160208101359091169060400135612403565b34801561099757600080fd5b506102e0612442565b3480156109ac57600080fd5b506109b5612448565b604080516001600160a01b0390981688529515156020880152931515868601529115156060860152608085015260a084015260c0830152519081900360e00190f35b348015610a0357600080fd5b5061084c612472565b348015610a1857600080fd5b506102e0612500565b348015610a2d57600080fd5b506102e0612506565b348015610a4257600080fd5b506103256004803603610140811015610a5a57600080fd5b506001600160a01b03813581169160208101358216916040820135169060608101359060808101359060a08101359060c08101359060e08101359061010081013590610120013561250c565b348015610ab257600080fd5b5061041a60048036036020811015610ac957600080fd5b5035612845565b348015610adc57600080fd5b506102e061286f565b348015610af157600080fd5b50610afa612875565b604080519115158252519081900360200190f35b348015610b1a57600080fd5b5061032560048036036080811015610b3157600080fd5b5061288d565b348015610b4357600080fd5b5061032560048036036060811015610b5a57600080fd5b810190602081018135640100000000811115610b7557600080fd5b820183602082011115610b8757600080fd5b80359060200191846020830284011164010000000083111715610ba957600080fd5b919390929091602081019035640100000000811115610bc757600080fd5b820183602082011115610bd957600080fd5b80359060200191846020830284011164010000000083111715610bfb57600080fd5b919390929091602081019035640100000000811115610c1957600080fd5b820183602082011115610c2b57600080fd5b80359060200191846001830284011164010000000083111715610c4d57600080fd5b91908080601f016020809104026020016040519081016040528093929190818152602001838380828437600092019190915250929550612921945050505050565b348015610c9a57600080fd5b5061032560048036036040811015610cb157600080fd5b5080359060200135612c21565b348015610cca57600080fd5b5061032560048036036040811015610ce157600080fd5b5080359060200135612ca7565b348015610cfa57600080fd5b50610d036130c1565b604051808f6001600160a01b031681526020018e6001600160a01b031681526020018d81526020018c81526020018b81526020018a8152602001898152602001888152602001878152602001868152602001858152602001846001600160a01b031681526020018381526020018281526020019e50505050505050505050505050505060405180910390f35b600080600080600560009054906101000a90046001600160a01b03166001600160a01b031663f85cb5c86040518163ffffffff1660e01b815260040160206040518083038186803b158015610de357600080fd5b505afa158015610df7573d6000803e3d6000fd5b505050506040513d6020811015610e0d57600080fd5b5051905060005b60025481101561103a57600154600280546000926201000090046001600160a01b03169163201041989185908110610e4857fe5b90600052602060002090602091828204019190069054906101000a900460ff1660ff166040518263ffffffff1660e01b81526004018082815260200191505060206040518083038186803b158015610e9f57600080fd5b505afa158015610eb3573d6000803e3d6000fd5b505050506040513d6020811015610ec957600080fd5b505190506001600160a01b03811663a24258ad610ee5846131bc565b600554600380546001600160a01b039092169187908110610f0257fe5b9060005260206000200160009054906101000a90046001600160a01b03166040518463ffffffff1660e01b81526004018080602001846001600160a01b03168152602001836001600160a01b03168152602001828103825285818151815260200191508051906020019080838360005b83811015610f8a578181015183820152602001610f72565b50505050905090810190601f168015610fb75780820380516001836020036101000a031916815260200191505b50945050505050604080518083038186803b158015610fd557600080fd5b505afa92505050801561100157506040513d6040811015610ff557600080fd5b50805160209091015160015b61100a57611031565b80156110215761101a87836132b2565b965061102e565b61102b86836132b2565b95505b50505b50600101610e14565b5060028054600019810191908290811061105057fe5b90600052602060002090602091828204019190069054906101000a900460ff1660ff166004141561119e5760045460009061112857601c8054604080516020601f6002600019610100600188161502019095169490940493840181900481028201810190925282815261112393909290918301828280156111125780601f106110e757610100808354040283529160200191611112565b820191906000526020600020905b8154815290600101906020018083116110f557829003601f168201915b505050505083604002600c016132c2565b61114b565b6004828154811061113557fe5b6000918252602090912001546001600160a01b03165b905060006111626001600160a01b038316306132ce565b9050801561119b576000611176858461336f565b90506111976111908261118a86898761348e565b9061364f565b88906132b2565b9650505b50505b838311156111b35760009450505050506111c4565b6111bd848461366d565b9450505050505b90565b6002600054141561121f576040805162461bcd60e51b815260206004820152601f60248201527f5265656e7472616e637947756172643a207265656e7472616e742063616c6c00604482015290519081900360640190fd5b600260005561122c61367d565b600554604080516370a0823160e01b8152336004820152905161133d926000926001600160a01b03909116916370a0823191602480820192602092909190829003018186803b15801561127e57600080fd5b505afa158015611292573d6000803e3d6000fd5b505050506040513d60208110156112a857600080fd5b50511180156113365750600154600554604080516313bc6d4b60e01b81526001600160a01b039283166004820152905162010000909304909116916313bc6d4b91602480820192602092909190829003018186803b15801561130957600080fd5b505afa15801561131d573d6000803e3d6000fd5b505050506040513d602081101561133357600080fd5b50515b600f6137aa565b6113536001600160a01b038216151560176137aa565b60055460408051631f0b96b960e31b815290516113db926001600160a01b03169163f85cb5c8916004808301926020929190829003018186803b15801561139957600080fd5b505afa1580156113ad573d6000803e3d6000fd5b505050506040513d60208110156113c357600080fd5b50516001600160a01b038381169116141560366137aa565b600f546113f290610100900460ff161560346137aa565b6000816001600160a01b03166370a08231306040518263ffffffff1660e01b815260040180826001600160a01b0316815260200191505060206040518083038186803b15801561144157600080fd5b505afa158015611455573d6000803e3d6000fd5b505050506040513d602081101561146b57600080fd5b5051905061147c81151560086137aa565b6115008282600560009054906101000a90046001600160a01b03166001600160a01b031663f85cb5c86040518163ffffffff1660e01b815260040160206040518083038186803b1580156114cf57600080fd5b505afa1580156114e3573d6000803e3d6000fd5b505050506040513d60208110156114f957600080fd5b50516137b8565b5061150961393d565b50506001600055565b60155481565b60135481565b6000611528613986565b61153061367d565b61153b8484846137b8565b90505b9392505050565b60105481565b600260005414156115a3576040805162461bcd60e51b815260206004820152601f60248201527f5265656e7472616e637947756172643a207265656e7472616e742063616c6c00604482015290519081900360640190fd5b60026000556115b061367d565b6115b8613a7a565b600f546115cf90610100900460ff161560346137aa565b6115f362093a806115eb6007544261366d90919063ffffffff16565b1160376137aa565b60055460408051634d5b1ba160e11b81523360048201526024810184905290516001600160a01b0390921691639ab637429160448082019260009290919082900301818387803b15801561164657600080fd5b505af115801561165a573d6000803e3d6000fd5b50505050611666613b18565b6005546040805142815290516001600160a01b03909216917f7a7d4c833d273b66e431c5f268c42ee3e788541592e07c77f232cd28c89913169181900360200190a2506001600055565b6116b8613986565b6116c28282613bb6565b5050565b6006546001600160a01b031681565b6116dd61367d565b6116e5613a7a565b600554604080517f5a16656a000000000000000000000000000000000000000000000000000000008152905161177a926001600160a01b031691635a16656a916004808301926020929190829003018186803b15801561174457600080fd5b505afa158015611758573d6000803e3d6000fd5b505050506040513d602081101561176e57600080fd5b505185101560406137aa565b600f546117a090610100900460ff161580156117995750600f5460ff16155b602a6137aa565b6117c562093a806117bc6007544261366d90919063ffffffff16565b1115602b6137aa565b6117d284831460686137aa565b600f805461ff0019166101001790556000600d819055600e8190555b848110156118be5783838281811061180257fe5b90506020020135601b600088888581811061181957fe5b905060200201356001600160a01b03166001600160a01b03166001600160a01b0316815260200190815260200160002081905550600084848381811061185b57fe5b9050602002013513156118975761188f61188685858481811061187a57fe5b90506020020135613ca7565b600d54906132b2565b600d556118b6565b6118b26118a985858481811061187a57fe5b600e54906132b2565b600e555b6001016117ee565b506118e360006118db600e54600d5461366d90919063ffffffff16565b1160576137aa565b6118ef600c8686615b19565b50426008819055600554600d54600e546040805192835260208301919091528181019390935291516001600160a01b03909116917f3e6879a258dfdc657938a76339643c34f8d9a80aa5673c95726c61bc57ee0573919081900360600190a260055460408051634d5b1ba160e11b81523360048201526024810184905290516001600160a01b0390921691639ab637429160448082019260009290919082900301818387803b1580156119a157600080fd5b505af11580156119b5573d6000803e3d6000fd5b505050505050505050565b60408051600e8082526101e082019092526000916060918291849190602082016101c08036833750506040805160028082526060820183529394506000939092509060208301908036833701905050905060095482600081518110611a2157fe5b602002602001018181525050600b5482600181518110611a3d57fe5b602002602001018181525050600a5482600281518110611a5957fe5b60200260200101818152505060075482600381518110611a7557fe5b602002602001018181525050600d5482600481518110611a9157fe5b602002602001018181525050600e5482600581518110611aad57fe5b60200260200101818152505060135482600681518110611ac957fe5b60200260200101818152505060155482600781518110611ae557fe5b602002602001018181525050611b14611b0b601454601354613cbe90919063ffffffff16565b601354906132b2565b82600881518110611b2157fe5b60200260200101818152505060195482600981518110611b3d57fe5b6020026020010181815250506013546015541015611b5c576000611b5f565b60015b81600081518110611b6c57fe5b60200260200101901515908115158152505081600881518110611b8b57fe5b60200260200101516015541015611ba3576000611ba6565b60015b81600181518110611bb357fe5b60200260200101901515908115158152505080600081518110611bd257fe5b6020026020010151611be5576000611bf4565b601354601554611bf49161366d565b82600a81518110611c0157fe5b60200260200101818152505080600181518110611c1a57fe5b6020026020010151611c5457611c4f60155483600881518110611c3957fe5b602002602001015161366d90919063ffffffff16565b611c7d565b611c7d82600881518110611c6457fe5b602002602001015160155461366d90919063ffffffff16565b82600b81518110611c8a57fe5b60200260200101818152505060165482600c81518110611ca657fe5b602002602001018181525050601a5482600d81518110611cc257fe5b60209081029190910101526006546001600160a01b03169591945092509050565b601f5481565b60115481565b600e5481565b6000806060611d0c60025460ff86161060186137aa565b60028460ff1681548110611d1c57fe5b90600052602060002090602091828204019190069054906101000a900460ff1660038560ff1681548110611d4c57fe5b6000918252602090912001546001600160a01b0316611d6d60ff87166131bc565b9250925092509193909250565b60205481565b6005546001600160a01b031681565b611d97613cd6565b611d9f613b18565b6005546040805142815290516001600160a01b03909216917f4dcd504f23c1c204f965486c526a1e35cfb215bb4823dd1be0a172277bb1b3459181900360200190a2565b60026000541415611e3b576040805162461bcd60e51b815260206004820152601f60248201527f5265656e7472616e637947756172643a207265656e7472616e742063616c6c00604482015290519081900360640190fd5b6002600055611e4861367d565b611e50613a7a565b611e796000600954118015611e725750601054600954611e6f916132b2565b42115b60316137aa565b600f54611e8b9060ff161560326137aa565b60055460408051631f0b96b960e31b815290516000926001600160a01b03169163f85cb5c8916004808301926020929190829003018186803b158015611ed057600080fd5b505afa158015611ee4573d6000803e3d6000fd5b505050506040513d6020811015611efa57600080fd5b5051604080516370a0823160e01b815230600482015290516001600160a01b03909216916370a0823191602480820192602092909190829003018186803b158015611f4457600080fd5b505afa158015611f58573d6000803e3d6000fd5b505050506040513d6020811015611f6e57600080fd5b50519050611f83670de0b6b3a7640000613d7b565b61207b81600560009054906101000a90046001600160a01b03166001600160a01b031663f85cb5c86040518163ffffffff1660e01b815260040160206040518083038186803b158015611fd557600080fd5b505afa158015611fe9573d6000803e3d6000fd5b505050506040513d6020811015611fff57600080fd5b5051604080516370a0823160e01b815230600482015290516001600160a01b03909216916370a0823191602480820192602092909190829003018186803b15801561204957600080fd5b505afa15801561205d573d6000803e3d6000fd5b505050506040513d602081101561207357600080fd5b50519061366d565b601555600f8054600160ff19909116811761ff00191690915542600b5554604080517fd6a45aa50000000000000000000000000000000000000000000000000000000081529051620100009092046001600160a01b03169163d6a45aa591600481810192602092909190829003018186803b1580156120f957600080fd5b505afa15801561210d573d6000803e3d6000fd5b505050506040513d602081101561212357600080fd5b5051600654604080517f3b5bb1d50000000000000000000000000000000000000000000000000000000081526001600160a01b0392831660048201818152602483019384528751604484015287519490951694633b5bb1d594919388939192909160640190602085019080838360005b838110156121ab578181015183820152602001612193565b50505050905090810190601f1680156121d85780820380516001836020036101000a031916815260200191505b509350505050602060405180830381600087803b1580156121f857600080fd5b505af115801561220c573d6000803e3d6000fd5b505050506040513d602081101561222257600080fd5b505060055460408051634d5b1ba160e11b81523360048201526024810186905290516001600160a01b0390921691639ab637429160448082019260009290919082900301818387803b15801561227757600080fd5b505af115801561228b573d6000803e3d6000fd5b5050505061229761425b565b61229f61393d565b600b54600a55600554604080516318160ddd60e01b815290516001600160a01b03909216916318160ddd91600480820192602092909190829003018186803b1580156122ea57600080fd5b505afa1580156122fe573d6000803e3d6000fd5b505050506040513d602081101561231457600080fd5b5051601a5560055460155460408051918252602082018690524282820152516001600160a01b03909216917f2d21f7a1772dd51a6d96bd1cb40623cb13b73fd3d037618d9688707ce1b5b9569181900360600190a25050600160005550565b606061237e336147cf565b61238661367d565b6123c7858585858080601f01602080910402602001604051908101604052809392919081815260200183838082843760009201919091525061492a92505050565b95945050505050565b60195481565b60075481565b601e5481565b60125481565b6001600160a01b03166000908152601b602052604090205490565b61240c336147cf565b61241461367d565b6124296001600160a01b038316846000614a54565b61243d6001600160a01b0383168483614a54565b505050565b60085481565b600f54600954600b54600a54309460ff610100860481169562010000810482169591169390929091565b601c805460408051602060026001851615610100026000190190941693909304601f810184900484028201840190925281815292918301828280156124f85780601f106124cd576101008083540402835291602001916124f8565b820191906000526020600020905b8154815290600101906020018083116124db57829003601f168201915b505050505081565b60145481565b600d5481565b600154610100900460ff16806125255750612525614bae565b80612533575060015460ff16155b61256e5760405162461bcd60e51b815260040180806020018281038252602e815260200180615cd4602e913960400191505060405180910390fd5b600154610100900460ff16158015612598576001805460ff1961ff00199091166101001716811790555b600180547fffffffffffffffffffff0000000000000000000000000000000000000000ffff16620100006001600160a01b038c811682029290921792839055600580546001600160a01b0319168e8416908117909155604080516313bc6d4b60e01b81526004810192909252516126699492909204909216916313bc6d4b916024808301926020929190829003018186803b15801561263657600080fd5b505afa15801561264a573d6000803e3d6000fd5b505050506040513d602081101561266057600080fd5b505160246137aa565b600554604080516370a0823160e01b81526001600160a01b038e8116600483015291516126ee9360009316916370a08231916024808301926020929190829003018186803b1580156126ba57600080fd5b505afa1580156126ce573d6000803e3d6000fd5b505050506040513d60208110156126e457600080fd5b50511160256137aa565b6126fc6000891160296137aa565b601288905561270b878c614bbf565b61271486614cbf565b61271d82614dde565b61272683614df9565b61272f84614e14565b600680546001600160a01b0319166001600160a01b038d81169190911790915542600755600154604080517f3f2a554000000000000000000000000000000000000000000000000000000000815290516201000090920490921691633f2a5540916004808301926020929190829003018186803b1580156127af57600080fd5b505afa1580156127c3573d6000803e3d6000fd5b505050506040513d60208110156127d957600080fd5b5051601d80546001600160a01b0319166001600160a01b03909216919091179055601485905561280887614e2f565b6001600160a01b038c166000908152601b6020526040902055600d8790558015612838576001805461ff00191690555b5050505050505050505050565b600c818154811061285557600080fd5b6000918252602090912001546001600160a01b0316905081565b60025490565b6000806009541180156128885750600b54155b905090565b612895613cd6565b61289d61367d565b6010546128ae9082351060326137aa565b6128b88135614cbf565b6128c56020820135614df9565b6128d26040820135614dde565b6128df6060820135614e14565b6010546040805183358152602081019290925280517f42fb010605de46a36c4814784d207e3b8a1ce9f6773eaea652c07d2a07e95e579281900390910190a150565b6005546129da906001600160a01b0316331480156129485750600f5462010000900460ff16155b80156129d35750600154600554604080516313bc6d4b60e01b81526001600160a01b039283166004820152905162010000909304909116916313bc6d4b91602480820192602092909190829003018186803b1580156129a657600080fd5b505afa1580156129ba573d6000803e3d6000fd5b505050506040513d60208110156129d057600080fd5b50515b60226137aa565b80516000906129ea906040614e8f565b9050612a1c6006821080156129ff5750600082115b8015612a0a57508584145b8015612a1557508382145b604b6137aa565b60005b85811015612bd9576001546201000090046001600160a01b03166320104198888884818110612a4a57fe5b9050602002013560ff166040518263ffffffff1660e01b8152600401808260ff16815260200191505060206040518083038186803b158015612a8b57600080fd5b505afa158015612a9f573d6000803e3d6000fd5b505050506040513d6020811015612ab557600080fd5b50516001600160a01b031663cdea2034612acf8584614ef6565b6005546001600160a01b0316888886818110612ae757fe5b905060200201356001600160a01b0316856040518563ffffffff1660e01b81526004018080602001856001600160a01b03168152602001846001600160a01b03168152602001838152602001828103825286818151815260200191508051906020019080838360005b83811015612b68578181015183820152602001612b50565b50505050905090810190601f168015612b955780820380516001836020036101000a031916815260200191505b509550505050505060006040518083038186803b158015612bb557600080fd5b505afa158015612bc9573d6000803e3d6000fd5b505060019092019150612a1f9050565b50612be660028787615b78565b50612bf360038585615b19565b508151612c0790601c906020850190615c1c565b5050600f805462ff00001916620100001790555050505050565b60026000541415612c79576040805162461bcd60e51b815260206004820152601f60248201527f5265656e7472616e637947756172643a207265656e7472616e742063616c6c00604482015290519081900360640190fd5b6002600055612c8661367d565b612c8e613a7a565b612c9c6000831160396137aa565b611509828233614f07565b60026000541415612cff576040805162461bcd60e51b815260206004820152601f60248201527f5265656e7472616e637947756172643a207265656e7472616e742063616c6c00604482015290519081900360640190fd5b6002600055600554612e34906001600160a01b031633148015612da15750600154600554604080516313bc6d4b60e01b81526001600160a01b039283166004820152905162010000909304909116916313bc6d4b91602480820192602092909190829003018186803b158015612d7457600080fd5b505afa158015612d88573d6000803e3d6000fd5b505050506040513d6020811015612d9e57600080fd5b50515b80612e2d5750600160029054906101000a90046001600160a01b03166001600160a01b0316638da5cb5b6040518163ffffffff1660e01b815260040160206040518083038186803b158015612df557600080fd5b505afa158015612e09573d6000803e3d6000fd5b505050506040513d6020811015612e1f57600080fd5b50516001600160a01b031633145b601f6137aa565b612e3c61367d565b600f54612e6190610100900460ff168015612e5a5750600f5460ff16155b602c6137aa565b612e6e81831060646137aa565b612e80612e7b838361364f565b613d7b565b601354612e8d908361366d565b601355601d5460408051636b8bd28360e11b81526004810185905260006024820181905291516001600160a01b039093169263d717a5069260448084019391929182900301818387803b158015612ee357600080fd5b505af1158015612ef7573d6000803e3d6000fd5b505060055460408051631f0b96b960e31b8152905161306794506001600160a01b039092169250829163f85cb5c891600480820192602092909190829003018186803b158015612f4657600080fd5b505afa158015612f5a573d6000803e3d6000fd5b505050506040513d6020811015612f7057600080fd5b5051604080516370a0823160e01b815230600482015290516001600160a01b03909216916370a0823191602480820192602092909190829003018186803b158015612fba57600080fd5b505afa158015612fce573d6000803e3d6000fd5b505050506040513d6020811015612fe457600080fd5b505160055460408051631f0b96b960e31b815290516001600160a01b039092169163f85cb5c891600480820192602092909190829003018186803b15801561302b57600080fd5b505afa15801561303f573d6000803e3d6000fd5b505050506040513d602081101561305557600080fd5b50516001600160a01b0316919061522f565b42600a81905560055460408051858152602081019390935280516001600160a01b03909216927fcff91fcd7fff5d12ce9ee075980ad73fde31d99f583cb228a04ee0ef4f34ba6f929081900390910190a250506001600055565b60008060008060008060008060008060008060008030600660009054906101000a90046001600160a01b0316600380549050601154600d54600e54601354601554601054601454601254600160029054906101000a90046001600160a01b03166001600160a01b031663d6a45aa56040518163ffffffff1660e01b815260040160206040518083038186803b15801561315957600080fd5b505afa15801561316d573d6000803e3d6000fd5b505050506040513d602081101561318357600080fd5b5051600754613190610d8f565b9d509d509d509d509d509d509d509d509d509d509d509d509d509d50909192939495969798999a9b9c9d565b60045460609061326357601c8054604080516020601f6002600019610100600188161502019095169490940493840181900481028201810190925282815261325e93909290918301828280156132535780601f1061322857610100808354040283529160200191613253565b820191906000526020600020905b81548152906001019060200180831161323657829003601f168201915b505050505083614ef6565b6132ac565b6004828154811061327057fe5b6000918252602080832090910154604080516001600160a01b039092169282019290925280820192909252805180830382018152606090920190525b92915050565b808201828110156132ac57600080fd5b600061153e83836152af565b60006132d983615323565b156132ef57506001600160a01b038116316132ac565b826001600160a01b03166370a08231836040518263ffffffff1660e01b815260040180826001600160a01b0316815260200191505060206040518083038186803b15801561333c57600080fd5b505afa158015613350573d6000803e3d6000fd5b505050506040513d602081101561336657600080fd5b505190506132ac565b6000600160029054906101000a90046001600160a01b03166001600160a01b0316632630c12f6040518163ffffffff1660e01b815260040160206040518083038186803b1580156133bf57600080fd5b505afa1580156133d3573d6000803e3d6000fd5b505050506040513d60208110156133e957600080fd5b5051604080517fac41865a0000000000000000000000000000000000000000000000000000000081526001600160a01b03868116600483015285811660248301529151919092169163ac41865a916044808301926020929190829003018186803b15801561345657600080fd5b505afa92505050801561347b57506040513d602081101561347657600080fd5b505160015b613487575060006132ac565b90506132ac565b60008061349a85615330565b61350857846001600160a01b031663313ce5676040518163ffffffff1660e01b815260040160206040518083038186803b1580156134d757600080fd5b505afa1580156134eb573d6000803e3d6000fd5b505050506040513d602081101561350157600080fd5b505161350b565b60125b60ff169050600061351b85615330565b61358957846001600160a01b031663313ce5676040518163ffffffff1660e01b815260040160206040518083038186803b15801561355857600080fd5b505afa15801561356c573d6000803e3d6000fd5b505050506040513d602081101561358257600080fd5b505161358c565b60125b60ff169050601282111580156135a3575060128111155b6135f4576040805162461bcd60e51b815260206004820152601460248201527f556e737570706f7274656420646563696d616c73000000000000000000000000604482015290519081900360640190fd5b8082141561360657839250505061153e565b8181111561362e5761362561361b828461366d565b8590600a0a615366565b9250505061153e565b61364561363b838361366d565b8590600a0a614e8f565b9695505050505050565b600061153e8261366785670de0b6b3a7640000615366565b90614e8f565b808203828111156132ac57600080fd5b600154604080517f5b14f18300000000000000000000000000000000000000000000000000000000815230600482015290516137a8926201000090046001600160a01b031691635b14f183916024808301926020929190829003018186803b1580156136e857600080fd5b505afa1580156136fc573d6000803e3d6000fd5b505050506040513d602081101561371257600080fd5b505115806137a15750600160029054906101000a90046001600160a01b03166001600160a01b0316638da5cb5b6040518163ffffffff1660e01b815260040160206040518083038186803b15801561376957600080fd5b505afa15801561377d573d6000803e3d6000fd5b505050506040513d602081101561379357600080fd5b50516001600160a01b031633145b60536137aa565b565b816116c2576116c28161538a565b6000806137c5858461336f565b90506137d481151560626137aa565b60006137ea86856137e58886613cbe565b61348e565b9050600061381e6138176020546000141561380c576658d15e17628000613810565b6020545b8490613cbe565b839061366d565b9050600160029054906101000a90046001600160a01b03166001600160a01b031663e6e605136040518163ffffffff1660e01b815260040160206040518083038186803b15801561386e57600080fd5b505afa158015613882573d6000803e3d6000fd5b505050506040513d602081101561389857600080fd5b5051604080517ffa1ca8200000000000000000000000000000000000000000000000000000000081523060048201526001600160a01b038a81166024830152604482018a90528881166064830152608482018590529151919092169163fa1ca8209160a480830192600092919082900301818387803b15801561391a57600080fd5b505af115801561392e573d6000803e3d6000fd5b50929998505050505050505050565b60055460408051631f0b96b960e31b815290516137a8926001600160a01b031691829163f85cb5c891600480820192602092909190829003018186803b158015612f4657600080fd5b6000805b60025460ff82161015613a6b578180613a615750600160029054906101000a90046001600160a01b03166001600160a01b0316632010419860028360ff16815481106139d257fe5b90600052602060002090602091828204019190069054906101000a900460ff166040518263ffffffff1660e01b8152600401808260ff16815260200191505060206040518083038186803b158015613a2957600080fd5b505afa158015613a3d573d6000803e3d6000fd5b505050506040513d6020811015613a5357600080fd5b50516001600160a01b031633145b915060010161398a565b50613a7781604c6137aa565b50565b600154604080517f411137c300000000000000000000000000000000000000000000000000000000815233600482015290516137a8926201000090046001600160a01b03169163411137c3916024808301926020929190829003018186803b158015613ae557600080fd5b505afa158015613af9573d6000803e3d6000fd5b505050506040513d6020811015613b0f57600080fd5b505160126137aa565b613b376009546000148015613b305750600f5460ff16155b60386137aa565b600554604080517fb2644e6600000000000000000000000000000000000000000000000000000000815230600482015290516001600160a01b039092169163b2644e669160248082019260009290919082900301818387803b158015613b9c57600080fd5b505af1158015613bb0573d6000803e3d6000fd5b50505050565b613bbe61367d565b8115613c315773c02aaa39b223fe8d0a0e5c4f27ead9083c756cc26001600160a01b031663d0e30db0826040518263ffffffff1660e01b81526004016000604051808303818588803b158015613c1357600080fd5b505af1158015613c27573d6000803e3d6000fd5b50505050506116c2565b73c02aaa39b223fe8d0a0e5c4f27ead9083c756cc26001600160a01b0316632e1a7d4d826040518263ffffffff1660e01b815260040180828152602001915050600060405180830381600087803b158015613c8b57600080fd5b505af1158015613c9f573d6000803e3d6000fd5b505050505050565b600080821215613cba57816000036132ac565b5090565b600061153e670de0b6b3a76400006136678585615366565b6006546137a8906001600160a01b0316331480613d745750600160029054906101000a90046001600160a01b03166001600160a01b0316638da5cb5b6040518163ffffffff1660e01b815260040160206040518083038186803b158015613d3c57600080fd5b505afa158015613d50573d6000803e3d6000fd5b505050506040513d6020811015613d6657600080fd5b50516001600160a01b031633145b60206137aa565b60055460408051631f0b96b960e31b815290516000926001600160a01b03169163f85cb5c8916004808301926020929190829003018186803b158015613dc057600080fd5b505afa158015613dd4573d6000803e3d6000fd5b505050506040513d6020811015613dea57600080fd5b505160025490915060009081905b801561403a57600154600280546000926201000090046001600160a01b0316916320104198916000198601908110613e2c57fe5b90600052602060002090602091828204019190069054906101000a900460ff166040518263ffffffff1660e01b8152600401808260ff16815260200191505060206040518083038186803b158015613e8357600080fd5b505afa158015613e97573d6000803e3d6000fd5b505050506040513d6020811015613ead57600080fd5b505190506001600160a01b03811663bdd7a79c8686868a613ed160001989016131bc565b600554600380546001600160a01b03909216916000198c01908110613ef257fe5b9060005260206000200160009054906101000a90046001600160a01b03166040518863ffffffff1660e01b815260040180886001600160a01b031681526020018781526020018660ff16815260200185815260200180602001846001600160a01b03168152602001836001600160a01b03168152602001828103825285818151815260200191508051906020019080838360005b83811015613f9e578181015183820152602001613f86565b50505050905090810190601f168015613fcb5780820380516001836020036101000a031916815260200191505b5098505050505050505050606060405180830381600087803b158015613ff057600080fd5b505af1158015614004573d6000803e3d6000fd5b505050506040513d606081101561401a57600080fd5b508051602082015160409092015190965090945092505060001901613df8565b50600560009054906101000a90046001600160a01b03166001600160a01b031663f85cb5c86040518163ffffffff1660e01b815260040160206040518083038186803b15801561408957600080fd5b505afa15801561409d573d6000803e3d6000fd5b505050506040513d60208110156140b357600080fd5b50516001600160a01b038481169116148015906140d05750600082115b15613bb0576001600160a01b038316614106576140ee600147613bb6565b73c02aaa39b223fe8d0a0e5c4f27ead9083c756cc292505b600560009054906101000a90046001600160a01b03166001600160a01b031663f85cb5c86040518163ffffffff1660e01b815260040160206040518083038186803b15801561415457600080fd5b505afa158015614168573d6000803e3d6000fd5b505050506040513d602081101561417e57600080fd5b50516001600160a01b03848116911614613bb05761425483846001600160a01b03166370a08231306040518263ffffffff1660e01b815260040180826001600160a01b0316815260200191505060206040518083038186803b1580156141e357600080fd5b505afa1580156141f7573d6000803e3d6000fd5b505050506040513d602081101561420d57600080fd5b505160055460408051631f0b96b960e31b815290516001600160a01b039092169163f85cb5c891600480820192602092909190829003018186803b1580156114cf57600080fd5b5050505050565b60055460408051631f0b96b960e31b815290516000926001600160a01b03169163f85cb5c8916004808301926020929190829003018186803b1580156142a057600080fd5b505afa1580156142b4573d6000803e3d6000fd5b505050506040513d60208110156142ca57600080fd5b50516013549091506000906142f3906142e290614e2f565b6142ed601554614e2f565b906153dd565b905060008060006013546015541161430c57600061431b565b60135460155461431b9161366d565b90506013546015541061445c576143ac81600160029054906101000a90046001600160a01b03166001600160a01b031663568c08136040518163ffffffff1660e01b815260040160206040518083038186803b15801561437a57600080fd5b505afa15801561438e573d6000803e3d6000fd5b505050506040513d60208110156143a457600080fd5b505190613cbe565b9250821561444257614442600160029054906101000a90046001600160a01b03166001600160a01b03166361d027b36040518163ffffffff1660e01b815260040160206040518083038186803b15801561440557600080fd5b505afa158015614419573d6000803e3d6000fd5b505050506040513d602081101561442f57600080fd5b50516001600160a01b038716908561522f565b61445561444e84614e2f565b85906153dd565b93506144a0565b61449d6718493fba64ef000061449761448e60115461448860135460155461364f90919063ffffffff16565b90613cbe565b6011549061366d565b90615442565b91505b6005546015546144cf916001600160a01b0316906144be908661366d565b6001600160a01b038816919061522f565b601d546001600160a01b031661457957600160029054906101000a90046001600160a01b03166001600160a01b0316633f2a55406040518163ffffffff1660e01b815260040160206040518083038186803b15801561452d57600080fd5b505afa158015614541573d6000803e3d6000fd5b505050506040513d602081101561455757600080fd5b5051601d80546001600160a01b0319166001600160a01b039092169190911790555b601d54600554604080517f070e8a4a0000000000000000000000000000000000000000000000000000000081526001600160a01b0392831660048201529051600093929092169163070e8a4a91602480820192606092909190829003018186803b1580156145e657600080fd5b505afa1580156145fa573d6000803e3d6000fd5b505050506040513d601f19601f82011682018060405250606081101561461f57600080fd5b506005549091506001600160a01b03166350a9600361465a8661465461464d86600260200201518890613cbe565b879061366d565b9061366d565b87866040518463ffffffff1660e01b8152600401808481526020018381526020018281526020019350505050600060405180830381600087803b1580156146a057600080fd5b505af11580156146b4573d6000803e3d6000fd5b5050601d5460135460408051636b8bd28360e11b8152600481019290925260006024830181905290516001600160a01b03909316945063d717a5069350604480830193919282900301818387803b15801561470e57600080fd5b505af1158015614722573d6000803e3d6000fd5b5050601d54604080517f9de9a05200000000000000000000000000000000000000000000000000000000815230600482015290516001600160a01b039092169350639de9a0529250602480820192602092909190829003018186803b15801561478a57600080fd5b505afa15801561479e573d6000803e3d6000fd5b505050506040513d60208110156147b457600080fd5b50516bffffffffffffffffffffffff16601955505050505050565b6000805b60035481101561482057826001600160a01b0316600382815481106147f457fe5b6000918252602090912001546001600160a01b031614156148185760019150614820565b6001016147d3565b506000600160029054906101000a90046001600160a01b03166001600160a01b031663e6e605136040518163ffffffff1660e01b815260040160206040518083038186803b15801561487157600080fd5b505afa158015614885573d6000803e3d6000fd5b505050506040513d602081101561489b57600080fd5b5051905061243d82806149235750816001600160a01b0316632d108f41856040518263ffffffff1660e01b815260040180826001600160a01b0316815260200191505060206040518083038186803b1580156148f657600080fd5b505afa15801561490a573d6000803e3d6000fd5b505050506040513d602081101561492057600080fd5b50515b60216137aa565b60606149406001600160a01b038516838561545e565b905082846001600160a01b03167f2a936dbabeaea30adc1ddad138b1958497988474bef8b09a29411f0105ab8ab28484604051808060200180602001838103835285818151815260200191508051906020019080838360005b838110156149b1578181015183820152602001614999565b50505050905090810190601f1680156149de5780820380516001836020036101000a031916815260200191505b50838103825284518152845160209182019186019080838360005b83811015614a115781810151838201526020016149f9565b50505050905090810190601f168015614a3e5780820380516001836020036101000a031916815260200191505b5094505050505060405180910390a39392505050565b801580614af35750604080517fdd62ed3e0000000000000000000000000000000000000000000000000000000081523060048201526001600160a01b03848116602483015291519185169163dd62ed3e91604480820192602092909190829003018186803b158015614ac557600080fd5b505afa158015614ad9573d6000803e3d6000fd5b505050506040513d6020811015614aef57600080fd5b5051155b614b2e5760405162461bcd60e51b8152600401808060200182810382526036815260200180615da16036913960400191505060405180910390fd5b604080516001600160a01b038416602482015260448082018490528251808303909101815260649091019091526020810180517bffffffffffffffffffffffffffffffffffffffffffffffffffffffff167f095ea7b30000000000000000000000000000000000000000000000000000000017905261243d908490615484565b6000614bb930615535565b15905090565b614cb9600083118015614cb25750600554604080517fc40868930000000000000000000000000000000000000000000000000000000081526001600160a01b03858116600483015291518693614caf93169163c4086893916024808301926020929190829003018186803b158015614c3657600080fd5b505afa158015614c4a573d6000803e3d6000fd5b505050506040513d6020811015614c6057600080fd5b5051600554604080516370a0823160e01b81526001600160a01b038881166004830152915191909216916370a08231916024808301926020929190829003018186803b15801561204957600080fd5b10155b60076137aa565b50601155565b600554604080517f95cdbedb0000000000000000000000000000000000000000000000000000000081529051614dd9926001600160a01b0316916395cdbedb916004808301926020929190829003018186803b158015614d1e57600080fd5b505afa158015614d32573d6000803e3d6000fd5b505050506040513d6020811015614d4857600080fd5b50518210801590614dd25750600560009054906101000a90046001600160a01b03166001600160a01b031663297ce5986040518163ffffffff1660e01b815260040160206040518083038186803b158015614da257600080fd5b505afa158015614db6573d6000803e3d6000fd5b505050506040513d6020811015614dcc57600080fd5b50518211155b60276137aa565b601055565b614df46702c68af0bb14000082111560666137aa565b602055565b614e0f67016345785d8a000082111560676137aa565b601f55565b614e2a670de0b6b3a7640000821115605d6137aa565b601e55565b60007f80000000000000000000000000000000000000000000000000000000000000008210613cba5760405162461bcd60e51b8152600401808060200182810382526028815260200180615d2b6028913960400191505060405180910390fd5b6000808211614ee5576040805162461bcd60e51b815260206004820152601a60248201527f536166654d6174683a206469766973696f6e206279207a65726f000000000000604482015290519081900360640190fd5b818381614eee57fe5b049392505050565b606061153e8383604002604061553b565b600f54614f1d90610100900460ff16602c6137aa565b614f41601254614f38856013546132b290919063ffffffff16565b1115602d6137aa565b600554604080517f3deddb3f0000000000000000000000000000000000000000000000000000000081529051614fe3926001600160a01b031691633deddb3f916004808301926020929190829003018186803b158015614fa057600080fd5b505afa158015614fb4573d6000803e3d6000fd5b505050506040513d6020811015614fca57600080fd5b5051600854614fda90429061366d565b1015602f6137aa565b600554604080517f4422b0dc0000000000000000000000000000000000000000000000000000000081526004810186905290516001600160a01b0390921691634422b0dc9160248082019260009290919082900301818387803b15801561504957600080fd5b505af115801561505d573d6000803e3d6000fd5b505060135461506f92509050846132b2565b60135561507b8361565f565b6009546150fb5742600955600554604080516318160ddd60e01b815290516001600160a01b03909216916318160ddd91600480820192602092909190829003018186803b1580156150cb57600080fd5b505afa1580156150df573d6000803e3d6000fd5b505050506040513d60208110156150f557600080fd5b50516016555b601d5460408051636b8bd28360e11b8152600481018690526001602482015290516001600160a01b039092169163d717a5069160448082019260009290919082900301818387803b15801561514f57600080fd5b505af1158015615163573d6000803e3d6000fd5b505060055460408051634d5b1ba160e11b81526001600160a01b038681166004830152602482018890529151919092169350639ab637429250604480830192600092919082900301818387803b1580156151bc57600080fd5b505af11580156151d0573d6000803e3d6000fd5b505042600a819055600554604080518881526020810188905280820193909352516001600160a01b0390911693507f7f4467a4ca8be02143a9253e6c31362c7bc755929e5c68faf659636d307f1b8c92509081900360600190a2505050565b604080516001600160a01b038416602482015260448082018490528251808303909101815260649091019091526020810180517bffffffffffffffffffffffffffffffffffffffffffffffffffffffff167fa9059cbb0000000000000000000000000000000000000000000000000000000017905261243d908490615484565b6000816014018351101561530a576040805162461bcd60e51b815260206004820152601560248201527f746f416464726573735f6f75744f66426f756e64730000000000000000000000604482015290519081900360640190fd5b5001602001516c01000000000000000000000000900490565b6001600160a01b03161590565b600073eeeeeeeeeeeeeeeeeeeeeeeeeeeeeeeeeeeeeeee6001600160a01b03831614806132ac5750506001600160a01b03161590565b60008215806153815750508181028183828161537e57fe5b04145b6132ac57600080fd5b62461bcd60e51b6000908152602060045260076024526642414223000030600a808404818106603090810160081b95839006959095019082900491820690940160101b939093010160c81b604452606490fd5b60008183038183128015906153f25750838113155b80615407575060008312801561540757508381135b61153e5760405162461bcd60e51b8152600401808060200182810382526024815260200180615d536024913960400191505060405180910390fd5b6000670de0b6b3a76400006154578484615366565b81614eee57fe5b606061153b848484604051806060016040528060298152602001615d026029913961590b565b60006154d9826040518060400160405280602081526020017f5361666545524332303a206c6f772d6c6576656c2063616c6c206661696c6564815250856001600160a01b0316615a669092919063ffffffff16565b80519091501561243d578080602001905160208110156154f857600080fd5b505161243d5760405162461bcd60e51b815260040180806020018281038252602a815260200180615d77602a913960400191505060405180910390fd5b3b151590565b60608182601f011015615595576040805162461bcd60e51b815260206004820152600e60248201527f736c6963655f6f766572666c6f77000000000000000000000000000000000000604482015290519081900360640190fd5b818301845110156155ed576040805162461bcd60e51b815260206004820152601160248201527f736c6963655f6f75744f66426f756e6473000000000000000000000000000000604482015290519081900360640190fd5b60608215801561560c5760405191506000825260208201604052615656565b6040519150601f8416801560200281840101858101878315602002848b0101015b8183101561564557805183526020928301920161562d565b5050858452601f01601f1916604052505b50949350505050565b60055460408051631f0b96b960e31b8152905183926000926001600160a01b039091169163f85cb5c891600480820192602092909190829003018186803b1580156156a957600080fd5b505afa1580156156bd573d6000803e3d6000fd5b505050506040513d60208110156156d357600080fd5b505190506000805b60025481101561425457600154600280546000926201000090046001600160a01b0316916320104198918590811061570f57fe5b90600052602060002090602091828204019190069054906101000a900460ff166040518263ffffffff1660e01b8152600401808260ff16815260200191505060206040518083038186803b15801561576657600080fd5b505afa15801561577a573d6000803e3d6000fd5b505050506040513d602081101561579057600080fd5b505190506001600160a01b0381166387033f618587866157af876131bc565b600554600380546001600160a01b03909216918a9081106157cc57fe5b9060005260206000200160009054906101000a90046001600160a01b03166040518763ffffffff1660e01b815260040180876001600160a01b031681526020018681526020018560ff16815260200180602001846001600160a01b03168152602001836001600160a01b03168152602001828103825285818151815260200191508051906020019080838360005b8381101561587257818101518382015260200161585a565b50505050905090810190601f16801561589f5780820380516001836020036101000a031916815260200191505b50975050505050505050606060405180830381600087803b1580156158c357600080fd5b505af11580156158d7573d6000803e3d6000fd5b505050506040513d60608110156158ed57600080fd5b508051602082015160409092015191965094509250506001016156db565b60608247101561594c5760405162461bcd60e51b8152600401808060200182810382526026815260200180615cae6026913960400191505060405180910390fd5b61595585615535565b6159a6576040805162461bcd60e51b815260206004820152601d60248201527f416464726573733a2063616c6c20746f206e6f6e2d636f6e7472616374000000604482015290519081900360640190fd5b600080866001600160a01b031685876040518082805190602001908083835b602083106159e45780518252601f1990920191602091820191016159c5565b6001836020036101000a03801982511681845116808217855250505050505090500191505060006040518083038185875af1925050503d8060008114615a46576040519150601f19603f3d011682016040523d82523d6000602084013e615a4b565b606091505b5091509150615a5b828286615a75565b979650505050505050565b606061153b848460008561590b565b60608315615a8457508161153e565b825115615a945782518084602001fd5b8160405162461bcd60e51b81526004018080602001828103825283818151815260200191508051906020019080838360005b83811015615ade578181015183820152602001615ac6565b50505050905090810190601f168015615b0b5780820380516001836020036101000a031916815260200191505b509250505060405180910390fd5b828054828255906000526020600020908101928215615b6c579160200282015b82811115615b6c5781546001600160a01b0319166001600160a01b03843516178255602090920191600190910190615b39565b50613cba929150615c98565b82805482825590600052602060002090601f01602090048101928215615b6c5791602002820160005b83821115615be257833560ff1683826101000a81548160ff021916908360ff1602179055509260200192600101602081600001049283019260010302615ba1565b8015615c0f5782816101000a81549060ff0219169055600101602081600001049283019260010302615be2565b5050613cba929150615c98565b828054600181600116156101000203166002900490600052602060002090601f016020900481019282615c525760008555615b6c565b82601f10615c6b57805160ff1916838001178555615b6c565b82800160010185558215615b6c579182015b82811115615b6c578251825591602001919060010190615c7d565b5b80821115613cba5760008155600101615c9956fe416464726573733a20696e73756666696369656e742062616c616e636520666f722063616c6c496e697469616c697a61626c653a20636f6e747261637420697320616c726561647920696e697469616c697a6564416464726573733a206c6f772d6c6576656c2063616c6c20776974682076616c7565206661696c656453616665436173743a2076616c756520646f65736e27742066697420696e20616e20696e743235365369676e6564536166654d6174683a207375627472616374696f6e206f766572666c6f775361666545524332303a204552433230206f7065726174696f6e20646964206e6f7420737563636565645361666545524332303a20617070726f76652066726f6d206e6f6e2d7a65726f20746f206e6f6e2d7a65726f20616c6c6f77616e6365a264697066735822122051843c1d6683057b6778de0854a86971226167846a51f2f13282cf0c07d8503f64736f6c63430007060033",
  "devdoc": {
    "kind": "dev",
    "methods": {
      "executeStrategy(uint256,uint256)": {
        "params": {
          "_capital": "The capital to allocate to this strategy.",
          "_fee": "The fee paid to keeper to compensate the gas cost."
        }
      },
      "expireStrategy(uint256)": {
        "params": {
          "_fee": "The keeper fee"
        }
      },
      "finalizeStrategy(uint256,string)": {
        "params": {
          "_fee": "The fee paid to keeper to compensate the gas cost",
          "_tokenURI": "URL with the JSON for the strategy"
        }
      },
      "getNAV()": {
        "returns": {
          "_0": "_nav           NAV of the strategy"
        }
      },
      "getUserVotes(address)": {
        "params": {
          "_address": "Address of the contributor"
        },
        "returns": {
          "_0": "_votes            Number of votes cast"
        }
      },
      "handleWeth(bool,uint256)": {
        "params": {
          "_isDeposit": "Whether is a deposit or withdraw",
          "_wethAmount": "Amount to deposit or withdraw"
        }
      },
      "initialize(address,address,address,uint256,uint256,uint256,uint256,uint256,uint256,uint256)": {
        "params": {
          "_controller": "Address of the controller",
          "_expectedReturn": "Expected return",
          "_garden": "Address of the garden",
          "_maxAllocationPercentage": "Max allocation percentage of garden capital",
          "_maxCapitalRequested": "Max Capital requested denominated in the reserve asset (0 to be unlimited)",
          "_maxGasFeePercentage": "Max gas fee percentage of garden capital",
          "_maxTradeSlippagePercentage": "Max slippage allowed per trade in % of capital",
          "_stake": "Stake with garden participations absolute amounts 1e18",
          "_strategist": "Address of the strategist",
          "_strategyDuration": "Strategy duration in seconds"
        }
      },
      "invokeFromIntegration(address,uint256,bytes)": {
        "params": {
          "_data": "Encoded function selector and arguments",
          "_target": "Address of the smart contract to call",
          "_value": "Quantity of Ether to provide the call (typically 0)"
        },
        "returns": {
          "_0": "_returnValue           Bytes encoded return value"
        }
      },
      "resolveVoting(address[],int256[],uint256)": {
        "params": {
          "_fee": "The fee paid to keeper to compensate the gas cost",
          "_voters": "An array of garden member who voted on strategy.",
          "_votes": "An array of votes by on strategy by garden members."
        }
      },
      "setData(uint8[],address[],bytes)": {
        "params": {
          "_opEncodedData": "Bytes with the params for the op in the same position in the opTypes array",
          "_opIntegrations": "Addresses with the integration for each op",
          "_opTypes": "An array with the op types"
        }
      },
      "sweep(address)": {
        "params": {
          "_token": "Address of the token to sweep"
        }
      },
      "trade(address,uint256,address)": {
        "params": {
          "_receiveToken": "Token to receive",
          "_sendQuantity": "Amount of tokens to send",
          "_sendToken": "Token to exchange"
        }
      },
      "unwindStrategy(uint256,uint256)": {
        "params": {
          "_amountToUnwind": "The amount of capital to unwind",
          "_strategyNAV": "NAV of the strategy to unwind."
        }
      },
      "updateParams(uint256[4])": {
        "details": "_params[0]  duration   _params[1]  maxGasFeePercentage   _params[2]  maxTradeSlippagePercentage   _params[3]  maxAllocationPercentage",
        "params": {
          "_params": "New params"
        }
      }
    },
    "version": 1
  },
  "userdoc": {
    "kind": "user",
    "methods": {
      "deleteCandidateStrategy()": {
        "notice": "Delete a candidate strategy by the strategist"
      },
      "executeStrategy(uint256,uint256)": {
        "notice": "Executes an strategy that has been activated and gone through the cooldown period."
      },
      "expireStrategy(uint256)": {
        "notice": "Expires a candidate that has spent more than CANDIDATE_PERIOD without reaching quorum"
      },
      "finalizeStrategy(uint256,string)": {
        "notice": "Exits from an executed strategy. Returns balance back to the garden and sets the capital aside for withdrawals in ETH. Pays the keeper. Updates the reserve asset position accordingly."
      },
      "getNAV()": {
        "notice": "Gets the NAV of assets under management. It is the sum of the NAV of all the operations"
      },
      "getOperationByIndex(uint8)": {
        "notice": "Get the operation params by index"
      },
      "getOperationsCount()": {
        "notice": "Returns the number of operations in this strategy"
      },
      "getStrategyDetails()": {
        "notice": "Get the non-state related details of a Strategy"
      },
      "getStrategyRewardsContext()": {
        "notice": "Get mining context details of a Strategy"
      },
      "getStrategyState()": {
        "notice": "Get the state of a Strategy"
      },
      "getUserVotes(address)": {
        "notice": "Gets the votes casted by the contributor in this strategy"
      },
      "handleWeth(bool,uint256)": {
        "notice": "Deposits or withdraws weth from an operation in this context"
      },
      "initialize(address,address,address,uint256,uint256,uint256,uint256,uint256,uint256,uint256)": {
        "notice": "Initializes the strategy for a garden"
      },
      "invokeApprove(address,address,uint256)": {
        "notice": "Helper to invoke Approve on ERC20 from integrations in the strategy context"
      },
      "invokeFromIntegration(address,uint256,bytes)": {
        "notice": "Helper to invoke a call to an external contract from integrations in the strategy context"
      },
      "isStrategyActive()": {
        "notice": "Returns whether this strategy is currently active or not"
      },
      "resolveVoting(address[],int256[],uint256)": {
        "notice": "Adds off-chain voting results on-chain."
      },
      "setData(uint8[],address[],bytes)": {
        "notice": "Sets the data for the operations of this strategy"
      },
      "sweep(address)": {
        "notice": "Any tokens (other than the target) that are sent here by mistake are recoverable by contributors Converts it to the reserve asset and sends it to the garden."
      },
      "trade(address,uint256,address)": {
        "notice": "Function that calculates the price using the oracle and executes a trade. Must call the exchange to get the price and pass minReceiveQuantity accordingly."
      },
      "unwindStrategy(uint256,uint256)": {
        "notice": "Partially unwinds an strategy. Triggered from an immediate withdraw in the Garden."
      },
      "updateParams(uint256[4])": {
        "notice": "Allows strategist to update some strategy params"
      }
    },
    "version": 1
  },
  "storageLayout": {
    "storage": [
      {
        "astId": 5975,
        "contract": "contracts/strategies/Strategy.sol:StrategyV14",
        "label": "_status",
        "offset": 0,
        "slot": "0",
        "type": "t_uint256"
      },
      {
        "astId": 492,
        "contract": "contracts/strategies/Strategy.sol:StrategyV14",
        "label": "_initialized",
        "offset": 0,
        "slot": "1",
        "type": "t_bool"
      },
      {
        "astId": 495,
        "contract": "contracts/strategies/Strategy.sol:StrategyV14",
        "label": "_initializing",
        "offset": 1,
        "slot": "1",
        "type": "t_bool"
      },
      {
        "astId": 41935,
        "contract": "contracts/strategies/Strategy.sol:StrategyV14",
        "label": "controller",
        "offset": 2,
        "slot": "1",
        "type": "t_contract(IBabController)34227"
      },
      {
        "astId": 41938,
        "contract": "contracts/strategies/Strategy.sol:StrategyV14",
        "label": "opTypes",
        "offset": 0,
        "slot": "2",
        "type": "t_array(t_uint8)dyn_storage"
      },
      {
        "astId": 41941,
        "contract": "contracts/strategies/Strategy.sol:StrategyV14",
        "label": "opIntegrations",
        "offset": 0,
        "slot": "3",
        "type": "t_array(t_address)dyn_storage"
      },
      {
        "astId": 41944,
        "contract": "contracts/strategies/Strategy.sol:StrategyV14",
        "label": "opDatas",
        "offset": 0,
        "slot": "4",
        "type": "t_array(t_address)dyn_storage"
      },
      {
        "astId": 41947,
        "contract": "contracts/strategies/Strategy.sol:StrategyV14",
        "label": "garden",
        "offset": 0,
        "slot": "5",
        "type": "t_contract(IGarden)34731"
      },
      {
        "astId": 41950,
        "contract": "contracts/strategies/Strategy.sol:StrategyV14",
        "label": "strategist",
        "offset": 0,
        "slot": "6",
        "type": "t_address"
      },
      {
        "astId": 41953,
        "contract": "contracts/strategies/Strategy.sol:StrategyV14",
        "label": "enteredAt",
        "offset": 0,
        "slot": "7",
        "type": "t_uint256"
      },
      {
        "astId": 41956,
        "contract": "contracts/strategies/Strategy.sol:StrategyV14",
        "label": "enteredCooldownAt",
        "offset": 0,
        "slot": "8",
        "type": "t_uint256"
      },
      {
        "astId": 41958,
        "contract": "contracts/strategies/Strategy.sol:StrategyV14",
        "label": "executedAt",
        "offset": 0,
        "slot": "9",
        "type": "t_uint256"
      },
      {
        "astId": 41960,
        "contract": "contracts/strategies/Strategy.sol:StrategyV14",
        "label": "updatedAt",
        "offset": 0,
        "slot": "10",
        "type": "t_uint256"
      },
      {
        "astId": 41962,
        "contract": "contracts/strategies/Strategy.sol:StrategyV14",
        "label": "exitedAt",
        "offset": 0,
        "slot": "11",
        "type": "t_uint256"
      },
      {
        "astId": 41965,
        "contract": "contracts/strategies/Strategy.sol:StrategyV14",
        "label": "voters",
        "offset": 0,
        "slot": "12",
        "type": "t_array(t_address)dyn_storage"
      },
      {
        "astId": 41968,
        "contract": "contracts/strategies/Strategy.sol:StrategyV14",
        "label": "totalPositiveVotes",
        "offset": 0,
        "slot": "13",
        "type": "t_uint256"
      },
      {
        "astId": 41971,
        "contract": "contracts/strategies/Strategy.sol:StrategyV14",
        "label": "totalNegativeVotes",
        "offset": 0,
        "slot": "14",
        "type": "t_uint256"
      },
      {
        "astId": 41973,
        "contract": "contracts/strategies/Strategy.sol:StrategyV14",
        "label": "finalized",
        "offset": 0,
        "slot": "15",
        "type": "t_bool"
      },
      {
        "astId": 41975,
        "contract": "contracts/strategies/Strategy.sol:StrategyV14",
        "label": "active",
        "offset": 1,
        "slot": "15",
        "type": "t_bool"
      },
      {
        "astId": 41977,
        "contract": "contracts/strategies/Strategy.sol:StrategyV14",
        "label": "dataSet",
        "offset": 2,
        "slot": "15",
        "type": "t_bool"
      },
      {
        "astId": 41979,
        "contract": "contracts/strategies/Strategy.sol:StrategyV14",
        "label": "hasMiningStarted",
        "offset": 3,
        "slot": "15",
        "type": "t_bool"
      },
      {
        "astId": 41982,
        "contract": "contracts/strategies/Strategy.sol:StrategyV14",
        "label": "duration",
        "offset": 0,
        "slot": "16",
        "type": "t_uint256"
      },
      {
        "astId": 41985,
        "contract": "contracts/strategies/Strategy.sol:StrategyV14",
        "label": "stake",
        "offset": 0,
        "slot": "17",
        "type": "t_uint256"
      },
      {
        "astId": 41988,
        "contract": "contracts/strategies/Strategy.sol:StrategyV14",
        "label": "maxCapitalRequested",
        "offset": 0,
        "slot": "18",
        "type": "t_uint256"
      },
      {
        "astId": 41991,
        "contract": "contracts/strategies/Strategy.sol:StrategyV14",
        "label": "capitalAllocated",
        "offset": 0,
        "slot": "19",
        "type": "t_uint256"
      },
      {
        "astId": 41994,
        "contract": "contracts/strategies/Strategy.sol:StrategyV14",
        "label": "expectedReturn",
        "offset": 0,
        "slot": "20",
        "type": "t_uint256"
      },
      {
        "astId": 41997,
        "contract": "contracts/strategies/Strategy.sol:StrategyV14",
        "label": "capitalReturned",
        "offset": 0,
        "slot": "21",
        "type": "t_uint256"
      },
      {
        "astId": 41999,
        "contract": "contracts/strategies/Strategy.sol:StrategyV14",
        "label": "startingGardenSupply",
        "offset": 0,
        "slot": "22",
        "type": "t_uint256"
      },
      {
        "astId": 42002,
        "contract": "contracts/strategies/Strategy.sol:StrategyV14",
        "label": "tokensNeeded",
        "offset": 0,
        "slot": "23",
        "type": "t_array(t_address)dyn_storage"
      },
      {
        "astId": 42005,
        "contract": "contracts/strategies/Strategy.sol:StrategyV14",
        "label": "tokenAmountsNeeded",
        "offset": 0,
        "slot": "24",
        "type": "t_array(t_uint256)dyn_storage"
      },
      {
        "astId": 42008,
        "contract": "contracts/strategies/Strategy.sol:StrategyV14",
        "label": "strategyRewards",
        "offset": 0,
        "slot": "25",
        "type": "t_uint256"
      },
      {
        "astId": 42010,
        "contract": "contracts/strategies/Strategy.sol:StrategyV14",
        "label": "endingGardenSupply",
        "offset": 0,
        "slot": "26",
        "type": "t_uint256"
      },
      {
        "astId": 42014,
        "contract": "contracts/strategies/Strategy.sol:StrategyV14",
        "label": "votes",
        "offset": 0,
        "slot": "27",
        "type": "t_mapping(t_address,t_int256)"
      },
      {
        "astId": 42017,
        "contract": "contracts/strategies/Strategy.sol:StrategyV14",
        "label": "opEncodedData",
        "offset": 0,
        "slot": "28",
        "type": "t_bytes_storage"
      },
      {
        "astId": 42019,
        "contract": "contracts/strategies/Strategy.sol:StrategyV14",
        "label": "rewardsDistributor",
        "offset": 0,
        "slot": "29",
        "type": "t_contract(IRewardsDistributor)35423"
      },
      {
        "astId": 42022,
        "contract": "contracts/strategies/Strategy.sol:StrategyV14",
        "label": "maxAllocationPercentage",
        "offset": 0,
        "slot": "30",
        "type": "t_uint256"
      },
      {
        "astId": 42025,
        "contract": "contracts/strategies/Strategy.sol:StrategyV14",
        "label": "maxGasFeePercentage",
        "offset": 0,
        "slot": "31",
        "type": "t_uint256"
      },
      {
        "astId": 42028,
        "contract": "contracts/strategies/Strategy.sol:StrategyV14",
        "label": "maxTradeSlippagePercentage",
        "offset": 0,
        "slot": "32",
        "type": "t_uint256"
      }
    ],
    "types": {
      "t_address": {
        "encoding": "inplace",
        "label": "address",
        "numberOfBytes": "20"
      },
      "t_array(t_address)dyn_storage": {
        "base": "t_address",
        "encoding": "dynamic_array",
        "label": "address[]",
        "numberOfBytes": "32"
      },
      "t_array(t_uint256)dyn_storage": {
        "base": "t_uint256",
        "encoding": "dynamic_array",
        "label": "uint256[]",
        "numberOfBytes": "32"
      },
      "t_array(t_uint8)dyn_storage": {
        "base": "t_uint8",
        "encoding": "dynamic_array",
        "label": "uint8[]",
        "numberOfBytes": "32"
      },
      "t_bool": {
        "encoding": "inplace",
        "label": "bool",
        "numberOfBytes": "1"
      },
      "t_bytes_storage": {
        "encoding": "bytes",
        "label": "bytes",
        "numberOfBytes": "32"
      },
      "t_contract(IBabController)34227": {
        "encoding": "inplace",
        "label": "contract IBabController",
        "numberOfBytes": "20"
      },
      "t_contract(IGarden)34731": {
        "encoding": "inplace",
        "label": "contract IGarden",
        "numberOfBytes": "20"
      },
      "t_contract(IRewardsDistributor)35423": {
        "encoding": "inplace",
        "label": "contract IRewardsDistributor",
        "numberOfBytes": "20"
      },
      "t_int256": {
        "encoding": "inplace",
        "label": "int256",
        "numberOfBytes": "32"
      },
      "t_mapping(t_address,t_int256)": {
        "encoding": "mapping",
        "key": "t_address",
        "label": "mapping(address => int256)",
        "numberOfBytes": "32",
        "value": "t_int256"
      },
      "t_uint256": {
        "encoding": "inplace",
        "label": "uint256",
        "numberOfBytes": "32"
      },
      "t_uint8": {
        "encoding": "inplace",
        "label": "uint8",
        "numberOfBytes": "1"
      }
    }
  }
}