{
  "address": "0x08FA6F4afab6Af5651FBCF53d176aF7f3B1B80e8",
  "abi": [
    {
      "anonymous": false,
      "inputs": [
        {
          "indexed": true,
          "internalType": "address",
          "name": "_strategy",
          "type": "address"
        },
        {
          "indexed": false,
          "internalType": "string",
          "name": "_name",
          "type": "string"
        },
        {
          "indexed": false,
          "internalType": "uint256",
          "name": "_expectedReturn",
          "type": "uint256"
        }
      ],
      "name": "AddStrategy",
      "type": "event"
    },
    {
      "anonymous": false,
      "inputs": [
        {
          "indexed": true,
          "internalType": "address",
          "name": "owner",
          "type": "address"
        },
        {
          "indexed": true,
          "internalType": "address",
          "name": "spender",
          "type": "address"
        },
        {
          "indexed": false,
          "internalType": "uint256",
          "name": "value",
          "type": "uint256"
        }
      ],
      "name": "Approval",
      "type": "event"
    },
    {
      "anonymous": false,
      "inputs": [
        {
          "indexed": true,
          "internalType": "address",
          "name": "from",
          "type": "address"
        },
        {
          "indexed": true,
          "internalType": "address",
          "name": "to",
          "type": "address"
        },
        {
          "indexed": false,
          "internalType": "uint256",
          "name": "value",
          "type": "uint256"
        }
      ],
      "name": "Transfer",
      "type": "event"
    },
    {
      "inputs": [
        {
          "internalType": "string",
          "name": "_name",
          "type": "string"
        },
        {
          "internalType": "string",
          "name": "_symbol",
          "type": "string"
        },
        {
          "internalType": "uint256[]",
          "name": "_stratParams",
          "type": "uint256[]"
        },
        {
          "internalType": "uint8[]",
          "name": "_opTypes",
          "type": "uint8[]"
        },
        {
          "internalType": "address[]",
          "name": "_opIntegrations",
          "type": "address[]"
        },
        {
          "internalType": "bytes",
          "name": "_opEncodedDatas",
          "type": "bytes"
        }
      ],
      "name": "addStrategy",
      "outputs": [],
      "stateMutability": "nonpayable",
      "type": "function"
    },
    {
      "inputs": [
        {
          "internalType": "uint256",
          "name": "_capital",
          "type": "uint256"
        }
      ],
      "name": "allocateCapitalToStrategy",
      "outputs": [],
      "stateMutability": "nonpayable",
      "type": "function"
    },
    {
      "inputs": [
        {
          "internalType": "address",
          "name": "owner",
          "type": "address"
        },
        {
          "internalType": "address",
          "name": "spender",
          "type": "address"
        }
      ],
      "name": "allowance",
      "outputs": [
        {
          "internalType": "uint256",
          "name": "",
          "type": "uint256"
        }
      ],
      "stateMutability": "view",
      "type": "function"
    },
    {
      "inputs": [
        {
          "internalType": "address",
          "name": "spender",
          "type": "address"
        },
        {
          "internalType": "uint256",
          "name": "amount",
          "type": "uint256"
        }
      ],
      "name": "approve",
      "outputs": [
        {
          "internalType": "bool",
          "name": "",
          "type": "bool"
        }
      ],
      "stateMutability": "nonpayable",
      "type": "function"
    },
    {
      "inputs": [
        {
          "internalType": "address",
          "name": "account",
          "type": "address"
        }
      ],
      "name": "balanceOf",
      "outputs": [
        {
          "internalType": "uint256",
          "name": "",
          "type": "uint256"
        }
      ],
      "stateMutability": "view",
      "type": "function"
    },
    {
      "inputs": [],
      "name": "decimals",
      "outputs": [
        {
          "internalType": "uint8",
          "name": "",
          "type": "uint8"
        }
      ],
      "stateMutability": "view",
      "type": "function"
    },
    {
      "inputs": [
        {
          "internalType": "address",
          "name": "spender",
          "type": "address"
        },
        {
          "internalType": "uint256",
          "name": "subtractedValue",
          "type": "uint256"
        }
      ],
      "name": "decreaseAllowance",
      "outputs": [
        {
          "internalType": "bool",
          "name": "",
          "type": "bool"
        }
      ],
      "stateMutability": "nonpayable",
      "type": "function"
    },
    {
      "inputs": [
        {
          "internalType": "address",
          "name": "_strategy",
          "type": "address"
        }
      ],
      "name": "expireCandidateStrategy",
      "outputs": [],
      "stateMutability": "nonpayable",
      "type": "function"
    },
    {
      "inputs": [
        {
          "internalType": "uint256",
          "name": "_rewards",
          "type": "uint256"
        },
        {
          "internalType": "int256",
          "name": "_returns",
          "type": "int256"
        },
        {
          "internalType": "uint256",
          "name": "_burningAmount",
          "type": "uint256"
        }
      ],
      "name": "finalizeStrategy",
      "outputs": [],
      "stateMutability": "nonpayable",
      "type": "function"
    },
    {
      "inputs": [
        {
          "internalType": "address",
          "name": "spender",
          "type": "address"
        },
        {
          "internalType": "uint256",
          "name": "addedValue",
          "type": "uint256"
        }
      ],
      "name": "increaseAllowance",
      "outputs": [
        {
          "internalType": "bool",
          "name": "",
          "type": "bool"
        }
      ],
      "stateMutability": "nonpayable",
      "type": "function"
    },
    {
      "inputs": [],
      "name": "name",
      "outputs": [
        {
          "internalType": "string",
          "name": "",
          "type": "string"
        }
      ],
      "stateMutability": "view",
      "type": "function"
    },
    {
      "inputs": [
        {
          "internalType": "address payable",
          "name": "_keeper",
          "type": "address"
        },
        {
          "internalType": "uint256",
          "name": "_fee",
          "type": "uint256"
        }
      ],
      "name": "payKeeper",
      "outputs": [],
      "stateMutability": "nonpayable",
      "type": "function"
    },
    {
      "inputs": [],
      "name": "symbol",
      "outputs": [
        {
          "internalType": "string",
          "name": "",
          "type": "string"
        }
      ],
      "stateMutability": "view",
      "type": "function"
    },
    {
      "inputs": [],
      "name": "totalSupply",
      "outputs": [
        {
          "internalType": "uint256",
          "name": "",
          "type": "uint256"
        }
      ],
      "stateMutability": "view",
      "type": "function"
    },
    {
      "inputs": [
        {
          "internalType": "address",
          "name": "recipient",
          "type": "address"
        },
        {
          "internalType": "uint256",
          "name": "amount",
          "type": "uint256"
        }
      ],
      "name": "transfer",
      "outputs": [
        {
          "internalType": "bool",
          "name": "",
          "type": "bool"
        }
      ],
      "stateMutability": "nonpayable",
      "type": "function"
    },
    {
      "inputs": [
        {
          "internalType": "address",
          "name": "sender",
          "type": "address"
        },
        {
          "internalType": "address",
          "name": "recipient",
          "type": "address"
        },
        {
          "internalType": "uint256",
          "name": "amount",
          "type": "uint256"
        }
      ],
      "name": "transferFrom",
      "outputs": [
        {
          "internalType": "bool",
          "name": "",
          "type": "bool"
        }
      ],
      "stateMutability": "nonpayable",
      "type": "function"
    },
    {
      "inputs": [
        {
          "internalType": "address",
          "name": "_strategy",
          "type": "address"
        },
        {
          "internalType": "uint256",
          "name": "_newTotalAmount",
          "type": "uint256"
        },
        {
          "internalType": "uint256",
          "name": "_newCapitalReturned",
          "type": "uint256"
        }
      ],
      "name": "updateStrategyRewards",
      "outputs": [],
      "stateMutability": "nonpayable",
      "type": "function"
    }
  ],
  "transactionHash": "0x45c1e65d20116f8d4cdb83e94b09b31e7e18914712d35b192d9b109d6714dd61",
  "args": [],
  "numDeployments": 4,
  "solcInputHash": "52326babd87e7897610fb1d2a71f018c",
  "bytecode": "0x608060405234801561001057600080fd5b506001606555612e41806100256000396000f3fe608060405234801561001057600080fd5b506004361061011b5760003560e01c80635a9e6daa116100b2578063a457c2d711610081578063b2644e6611610066578063b2644e66146105e5578063dd62ed3e1461060b578063e03ea28d146106395761011b565b8063a457c2d71461058d578063a9059cbb146105b95761011b565b80635a9e6daa146102bf57806370a082311461053357806395d89b41146105595780639ab63742146105615761011b565b8063313ce567116100ee578063313ce5671461022d578063395093511461024b5780634422b0dc1461027757806350a96003146102965761011b565b806306fdde0314610120578063095ea7b31461019d57806318160ddd146101dd57806323b872dd146101f7575b600080fd5b61012861066b565b6040805160208082528351818301528351919283929083019185019080838360005b8381101561016257818101518382015260200161014a565b50505050905090810190601f16801561018f5780820380516001836020036101000a031916815260200191505b509250505060405180910390f35b6101c9600480360360408110156101b357600080fd5b506001600160a01b038135169060200135610701565b604080519115158252519081900360200190f35b6101e561071f565b60408051918252519081900360200190f35b6101c96004803603606081101561020d57600080fd5b506001600160a01b03813581169160208101359091169060400135610725565b6102356107ad565b6040805160ff9092168252519081900360200190f35b6101c96004803603604081101561026157600080fd5b506001600160a01b0381351690602001356107b6565b6102946004803603602081101561028d57600080fd5b5035610804565b005b610294600480360360608110156102ac57600080fd5b5080359060208101359060400135610952565b610294600480360360c08110156102d557600080fd5b8101906020810181356401000000008111156102f057600080fd5b82018360208201111561030257600080fd5b8035906020019184600183028401116401000000008311171561032457600080fd5b91908080601f016020809104026020016040519081016040528093929190818152602001838380828437600092019190915250929594936020810193503591505064010000000081111561037757600080fd5b82018360208201111561038957600080fd5b803590602001918460018302840111640100000000831117156103ab57600080fd5b91908080601f01602080910402602001604051908101604052809392919081815260200183838082843760009201919091525092959493602081019350359150506401000000008111156103fe57600080fd5b82018360208201111561041057600080fd5b8035906020019184602083028401116401000000008311171561043257600080fd5b91939092909160208101903564010000000081111561045057600080fd5b82018360208201111561046257600080fd5b8035906020019184602083028401116401000000008311171561048457600080fd5b9193909290916020810190356401000000008111156104a257600080fd5b8201836020820111156104b457600080fd5b803590602001918460208302840111640100000000831117156104d657600080fd5b9193909290916020810190356401000000008111156104f457600080fd5b82018360208201111561050657600080fd5b8035906020019184600183028401116401000000008311171561052857600080fd5b509092509050610e2e565b6101e56004803603602081101561054957600080fd5b50356001600160a01b0316611493565b6101286114ae565b6102946004803603604081101561057757600080fd5b506001600160a01b03813516906020013561150f565b6101c9600480360360408110156105a357600080fd5b506001600160a01b0381351690602001356118ce565b6101c9600480360360408110156105cf57600080fd5b506001600160a01b038135169060200135611936565b610294600480360360208110156105fb57600080fd5b50356001600160a01b031661194a565b6101e56004803603604081101561062157600080fd5b506001600160a01b03813581169160200135166119f3565b6102946004803603606081101561064f57600080fd5b506001600160a01b038135169060208101359060400135611a1e565b60368054604080516020601f60026000196101006001881615020190951694909404938401819004810282018101909252828152606093909290918301828280156106f75780601f106106cc576101008083540402835291602001916106f7565b820191906000526020600020905b8154815290600101906020018083116106da57829003601f168201915b5050505050905090565b600061071561070e611d7d565b8484611d81565b5060015b92915050565b60355490565b6000610732848484611e6d565b6107a28461073e611d7d565b61079d85604051806060016040528060288152602001612d01602891396001600160a01b038a1660009081526034602052604081209061077c611d7d565b6001600160a01b031681526020810191909152604001600020549190611fca565b611d81565b5060015b9392505050565b60385460ff1690565b60006107156107c3611d7d565b8461079d85603460006107d4611d7d565b6001600160a01b03908116825260208083019390935260409182016000908120918c168152925290205490612061565b61080c6120bb565b600061089282606760009054906101000a90046001600160a01b03166001600160a01b031663313754776040518163ffffffff1660e01b815260040160206040518083038186803b15801561086057600080fd5b505afa158015610874573d6000803e3d6000fd5b505050506040513d602081101561088a57600080fd5b5051906120db565b90506108b261089f6120f9565b6108a984846121c2565b111560046121d2565b60675460408051633d63472560e21b81529051610937926001600160a01b03169163f58d1c94916004808301926020929190829003018186803b1580156108f857600080fd5b505afa15801561090c573d6000803e3d6000fd5b505050506040513d602081101561092257600080fd5b50516066546001600160a01b031690836121e0565b60665461094e906001600160a01b031633846121e0565b5050565b600260655414156109aa576040805162461bcd60e51b815260206004820152601f60248201527f5265656e7472616e637947756172643a207265656e7472616e742063616c6c00604482015290519081900360640190fd5b60026065556109b7612265565b6109bf6120bb565b6000336001600160a01b0316631fe4a6866040518163ffffffff1660e01b815260040160206040518083038186803b1580156109fa57600080fd5b505afa158015610a0e573d6000803e3d6000fd5b505050506040513d6020811015610a2457600080fd5b505190508115610a5357610a3781611493565b8210610a4957610a4681611493565b91505b610a5381836122fe565b6000336001600160a01b0316633a4b66f16040518163ffffffff1660e01b815260040160206040518083038186803b158015610a8e57600080fd5b505afa158015610aa2573d6000803e3d6000fd5b505050506040513d6020811015610ab857600080fd5b50516001600160a01b038316600090815260716020526040902060080154909150818111610ae7576000610af1565b610af181836123fa565b6001600160a01b038416600090815260716020526040902060080155606b54610b1a90876121c2565b606b55606d54610b2a908661240a565b606d81905550610b9d33607f805480602002602001604051908101604052809291908181526020018280548015610b8a57602002820191906000526020600020905b81546001600160a01b03168152600190910190602001808311610b6c575b505050505061246f90919063ffffffff16565b8051610bb191607f91602090910190612ba5565b5060808054600181019091557f59f3fb058c6bba7a4e76396639fc4dd21bd59163db798899cf56cef48b3c9ec901805473ffffffffffffffffffffffffffffffffffffffff191633908117909155600090815260816020908152604091829020805460ff191690556067548251633d63472560e21b815292516001600160a01b03919091169263f58d1c94926004808301939192829003018186803b158015610c5957600080fd5b505afa158015610c6d573d6000803e3d6000fd5b505050506040513d6020811015610c8357600080fd5b505160408051630cbefec960e31b815290516001600160a01b03909216916365f7f64891600480820192602092909190829003018186803b158015610cc757600080fd5b505afa158015610cdb573d6000803e3d6000fd5b505050506040513d6020811015610cf157600080fd5b50516001600160a01b0316301415610e2157606860009054906101000a90046001600160a01b03166001600160a01b0316638ce90e8230336001600160a01b0316636db40dc26040518163ffffffff1660e01b815260040160206040518083038186803b158015610d6157600080fd5b505afa158015610d75573d6000803e3d6000fd5b505050506040513d6020811015610d8b57600080fd5b5051604080517fffffffff0000000000000000000000000000000000000000000000000000000060e086901b1681526001600160a01b03909316600484015260248301919091525160448083019260209291908290030181600087803b158015610df457600080fd5b505af1158015610e08573d6000803e3d6000fd5b505050506040513d6020811015610e1e57600080fd5b50505b5050600160655550505050565b610e36612265565b610e4c6000610e4433611493565b11600f6121d2565b60855460009060ff1680610f695750606760009054906101000a90046001600160a01b03166001600160a01b0316630ebdb9a26040518163ffffffff1660e01b815260040160206040518083038186803b158015610ea957600080fd5b505afa158015610ebd573d6000803e3d6000fd5b505050506040513d6020811015610ed357600080fd5b5051604080517f5066c71400000000000000000000000000000000000000000000000000000000815230600482015233602482015290516001600160a01b0390921691635066c71491604480820192602092909190829003018186803b158015610f3c57600080fd5b505afa158015610f50573d6000803e3d6000fd5b505050506040513d6020811015610f6657600080fd5b50515b9050610f7681601e6121d2565b607f54610f8790601411601a6121d2565b606754604080517f9ef3571000000000000000000000000000000000000000000000000000000000815290516000926001600160a01b031691639ef35710916004808301926020929190829003018186803b158015610fe557600080fd5b505afa158015610ff9573d6000803e3d6000fd5b505050506040513d602081101561100f57600080fd5b81019080805190602001909291905050506001600160a01b03166378afca3e8d8d33308f8f6040518763ffffffff1660e01b8152600401808060200180602001876001600160a01b03168152602001866001600160a01b031681526020018060200184810384528a818151815260200191508051906020019080838360005b838110156110a657818101518382015260200161108e565b50505050905090810190601f1680156110d35780820380516001836020036101000a031916815260200191505b5084810383528951815289516020918201918b019080838360005b838110156111065781810151838201526020016110ee565b50505050905090810190601f1680156111335780820380516001836020036101000a031916815260200191505b508481038252868682818152602001925060200280828437600081840152601f19601f8201169050808301925050509950505050505050505050602060405180830381600087803b15801561118757600080fd5b505af115801561119b573d6000803e3d6000fd5b505050506040513d60208110156111b157600080fd5b50516001600160a01b0381166000908152608160205260409020805460ff19166001908117909155909150611205908b908b908181106111ed57fe5b905060200201356079546121c290919063ffffffff16565b60795561123a8a8a600181811061121857fe5b33600090815260716020908152604090912060080154939102013590506121c2565b33600090815260716020908152604080832060080193909355607f805460018101825592527f66925e85f1a4743fd8d60ba595ed74887b7caf321dd83b21e04d77c115383408909101805473ffffffffffffffffffffffffffffffffffffffff19166001600160a01b03851690811790915591517fecbc2cda000000000000000000000000000000000000000000000000000000008152606060048201908152606482018b905263ecbc2cda928c928c928c928c928c928c9290918291602482019160448101916084909101908b908b0280828437600083820152601f01601f19169091018581038452888152602090810191508990890280828437600083820152601f01601f191690910185810383528681526020019050868680828437600081840152601f19601f8201169050808301925050509950505050505050505050600060405180830381600087803b15801561139557600080fd5b505af11580156113a9573d6000803e3d6000fd5b5050506001600160a01b0382166000818152608260205260409020805460ff1916600117905590507f9e896c245c70d187fa97788cded4bca6b7546fa444cc7b0c111c57b592affa018d8c8c600381811061140057fe5b905060200201356040518080602001838152602001828103825284818151815260200191508051906020019080838360005b8381101561144a578181015183820152602001611432565b50505050905090810190601f1680156114775780820380516001836020036101000a031916815260200191505b50935050505060405180910390a2505050505050505050505050565b6001600160a01b031660009081526033602052604090205490565b60378054604080516020601f60026000196101006001881615020190951694909404938401819004810282018101909252828152606093909290918301828280156106f75780601f106106cc576101008083540402835291602001916106f7565b60026065541415611567576040805162461bcd60e51b815260206004820152601f60248201527f5265656e7472616e637947756172643a207265656e7472616e742063616c6c00604482015290519081900360640190fd5b6002606555611574612265565b61159b3330148061159457503360009081526081602052604090205460ff165b60146121d2565b606754604080517f411137c30000000000000000000000000000000000000000000000000000000081526001600160a01b038581166004830152915161163993929092169163411137c391602480820192602092909190829003018186803b15801561160657600080fd5b505afa15801561161a573d6000803e3d6000fd5b505050506040513d602081101561163057600080fd5b505160126121d2565b606754604080517f2630c12f00000000000000000000000000000000000000000000000000000000815290516000926001600160a01b031691632630c12f916004808301926020929190829003018186803b15801561169757600080fd5b505afa1580156116ab573d6000803e3d6000fd5b505050506040513d60208110156116c157600080fd5b5051606654604080517fac41865a0000000000000000000000000000000000000000000000000000000081526001600160a01b039283166004820152736b175474e89094c44da98b954eedeac495271d0f60248201529051919092169163ac41865a916044808301926020929190829003018186803b15801561174357600080fd5b505afa158015611757573d6000803e3d6000fd5b505050506040513d602081101561176d57600080fd5b5051606654604080517f313ce567000000000000000000000000000000000000000000000000000000008152905192935060009261182592611812926001600160a01b039091169163313ce56791600480820192602092909190829003018186803b1580156117db57600080fd5b505afa1580156117ef573d6000803e3d6000fd5b505050506040513d602081101561180557600080fd5b505160129060ff166123fa565b600a0a61181f84866120db565b906124ec565b905061183e686c6b935b8bbd40000082111560136121d2565b60835461184b90846121c2565b60835560006118586120f9565b9050600060835411801561186c5750600081115b156118c257600060835482116118825781611886565b6083545b6066549091506118a0906001600160a01b031687836121e0565b6084546118ad90826121c2565b6084556083546118bd90826123fa565b608355505b50506001606555505050565b60006107156118db611d7d565b8461079d85604051806060016040528060258152602001612de76025913960346000611905611d7d565b6001600160a01b03908116825260208083019390935260409182016000908120918d16815292529020549190611fca565b6000610715611943611d7d565b8484611e6d565b6119526120bb565b6119bd81607f805480602002602001604051908101604052809291908181526020018280548015610b8a576020028201919060005260206000209081546001600160a01b03168152600190910190602001808311610b6c57505050505061246f90919063ffffffff16565b80516119d191607f91602090910190612ba5565b506001600160a01b03166000908152608160205260409020805460ff19169055565b6001600160a01b03918216600090815260346020908152604080832093909416825291909152205490565b606754611a33906001600160a01b0316612510565b6001600160a01b038316600090815260826020526040902054611a7f9060ff168015611a7857506001600160a01b03841660009081526081602052604090205460ff16155b60496121d2565b6000836001600160a01b0316636db40dc26040518163ffffffff1660e01b815260040160206040518083038186803b158015611aba57600080fd5b505afa158015611ace573d6000803e3d6000fd5b505050506040513d6020811015611ae457600080fd5b505160675460408051633d63472560e21b815290519293506001600160a01b039091169163f58d1c9491600480820192602092909190829003018186803b158015611b2e57600080fd5b505afa158015611b42573d6000803e3d6000fd5b505050506040513d6020811015611b5857600080fd5b505160408051630cbefec960e31b815290516001600160a01b03909216916365f7f64891600480820192602092909190829003018186803b158015611b9c57600080fd5b505afa158015611bb0573d6000803e3d6000fd5b505050506040513d6020811015611bc657600080fd5b50516001600160a01b031630148015611bde57508281105b15611c72576068546001600160a01b0316638ce90e8230611bff86856123fa565b6040518363ffffffff1660e01b815260040180836001600160a01b0316815260200182815260200192505050602060405180830381600087803b158015611c4557600080fd5b505af1158015611c59573d6000803e3d6000fd5b505050506040513d6020811015611c6f57600080fd5b50505b6000611ce3856001600160a01b03166303976e386040518163ffffffff1660e01b815260040160206040518083038186803b158015611cb057600080fd5b505afa158015611cc4573d6000803e3d6000fd5b505050506040513d6020811015611cda57600080fd5b505184906123fa565b606d54909150611cf3908261240a565b606d55604080517f5b746af5000000000000000000000000000000000000000000000000000000008152600481018690526024810185905290516001600160a01b03871691635b746af591604480830192600092919082900301818387803b158015611d5e57600080fd5b505af1158015611d72573d6000803e3d6000fd5b505050505050505050565b3390565b6001600160a01b038316611dc65760405162461bcd60e51b8152600401808060200182810382526024815260200180612d996024913960400191505060405180910390fd5b6001600160a01b038216611e0b5760405162461bcd60e51b8152600401808060200182810382526022815260200180612c726022913960400191505060405180910390fd5b6001600160a01b03808416600081815260346020908152604080832094871680845294825291829020859055815185815291517f8c5be1e5ebec7d5bd14f71427d1e84f3dd0314c0f7b2291e5b200ac8c7c3b9259281900390910190a3505050565b6001600160a01b038316611eb25760405162461bcd60e51b8152600401808060200182810382526025815260200180612d746025913960400191505060405180910390fd5b6001600160a01b038216611ef75760405162461bcd60e51b8152600401808060200182810382526023815260200180612c2d6023913960400191505060405180910390fd5b611f02838383612260565b611f3f81604051806060016040528060268152602001612c94602691396001600160a01b0386166000908152603360205260409020549190611fca565b6001600160a01b038085166000908152603360205260408082209390935590841681522054611f6e9082612061565b6001600160a01b0380841660008181526033602090815260409182902094909455805185815290519193928716927fddf252ad1be2c89b69c2b068fc378daa952ba7f163c4a11628f55a4df523b3ef92918290030190a3505050565b600081848411156120595760405162461bcd60e51b81526004018080602001828103825283818151815260200191508051906020019080838360005b8381101561201e578181015183820152602001612006565b50505050905090810190601f16801561204b5780820380516001836020036101000a031916815260200191505b509250505060405180910390fd5b505050900390565b6000828201838110156107a6576040805162461bcd60e51b815260206004820152601b60248201527f536166654d6174683a206164646974696f6e206f766572666c6f770000000000604482015290519081900360640190fd5b336000908152608160205260409020546120d99060ff1660146121d2565b565b60006107a6670de0b6b3a76400006120f385856124ec565b90612635565b606b54606654604080517f70a082310000000000000000000000000000000000000000000000000000000081523060048201529051600093849361219c9391926001600160a01b03909116916370a08231916024808301926020929190829003018186803b15801561216a57600080fd5b505afa15801561217e573d6000803e3d6000fd5b505050506040513d602081101561219457600080fd5b5051906123fa565b905060835481116121ae5760006121bc565b6083546121bc9082906123fa565b91505090565b8082018281101561071957600080fd5b8161094e5761094e8161269c565b604080516001600160a01b038416602482015260448082018490528251808303909101815260649091019091526020810180517bffffffffffffffffffffffffffffffffffffffffffffffffffffffff167fa9059cbb000000000000000000000000000000000000000000000000000000001790526122609084906126ef565b505050565b606754604080517f5b14f18300000000000000000000000000000000000000000000000000000000815230600482015290516120d9926001600160a01b031691635b14f183916024808301926020929190829003018186803b1580156122ca57600080fd5b505afa1580156122de573d6000803e3d6000fd5b505050506040513d60208110156122f457600080fd5b50511560536121d2565b6001600160a01b0382166123435760405162461bcd60e51b8152600401808060200182810382526021815260200180612d296021913960400191505060405180910390fd5b61234f82600083612260565b61238c81604051806060016040528060228152602001612c50602291396001600160a01b0385166000908152603360205260409020549190611fca565b6001600160a01b0383166000908152603360205260409020556035546123b290826127a0565b6035556040805182815290516000916001600160a01b038516917fddf252ad1be2c89b69c2b068fc378daa952ba7f163c4a11628f55a4df523b3ef9181900360200190a35050565b8082038281111561071957600080fd5b600082820181831280159061241f5750838112155b80612434575060008312801561243457508381125b6107a65760405162461bcd60e51b8152600401808060200182810382526021815260200180612cba6021913960400191505060405180910390fd5b606060008061247e85856127fd565b91509150806124d4576040805162461bcd60e51b815260206004820152601560248201527f41646472657373206e6f7420696e2061727261792e0000000000000000000000604482015290519081900360640190fd5b60006124e08684612863565b50935061071992505050565b60008215806125075750508181028183828161250457fe5b04145b61071957600080fd5b806001600160a01b0316638da5cb5b6040518163ffffffff1660e01b815260040160206040518083038186803b15801561254957600080fd5b505afa15801561255d573d6000803e3d6000fd5b505050506040513d602081101561257357600080fd5b50516001600160a01b03163314806125f75750806001600160a01b0316638d97e0436040518163ffffffff1660e01b815260040160206040518083038186803b1580156125bf57600080fd5b505afa1580156125d3573d6000803e3d6000fd5b505050506040513d60208110156125e957600080fd5b50516001600160a01b031633145b6126325760405162461bcd60e51b815260040180806020018281038252602a815260200180612d4a602a913960400191505060405180910390fd5b50565b600080821161268b576040805162461bcd60e51b815260206004820152601a60248201527f536166654d6174683a206469766973696f6e206279207a65726f000000000000604482015290519081900360640190fd5b81838161269457fe5b049392505050565b62461bcd60e51b6000908152602060045260076024526642414223000030600a808404818106603090810160081b95839006959095019082900491820690940160101b939093010160c81b604452606490fd5b6000612744826040518060400160405280602081526020017f5361666545524332303a206c6f772d6c6576656c2063616c6c206661696c6564815250856001600160a01b03166129c79092919063ffffffff16565b8051909150156122605780806020019051602081101561276357600080fd5b50516122605760405162461bcd60e51b815260040180806020018281038252602a815260200180612dbd602a913960400191505060405180910390fd5b6000828211156127f7576040805162461bcd60e51b815260206004820152601e60248201527f536166654d6174683a207375627472616374696f6e206f766572666c6f770000604482015290519081900360640190fd5b50900390565b81516000908190815b8181101561285057846001600160a01b031686828151811061282457fe5b60200260200101516001600160a01b031614156128485792506001915061285c9050565b600101612806565b50600019600092509250505b9250929050565b81516060906000908084106128bf576040805162461bcd60e51b815260206004820152601860248201527f496e646578206d757374206265203c2041206c656e6774680000000000000000604482015290519081900360640190fd5b60006001820367ffffffffffffffff811180156128db57600080fd5b50604051908082528060200260200182016040528015612905578160200160208202803683370190505b50905060005b858110156129535786818151811061291f57fe5b602002602001015182828151811061293357fe5b6001600160a01b039092166020928302919091019091015260010161290b565b50600185015b828110156129a45786818151811061296d57fe5b602002602001015182600183038151811061298457fe5b6001600160a01b0390921660209283029190910190910152600101612959565b50808686815181106129b257fe5b60200260200101519350935050509250929050565b60606129d684846000856129de565b949350505050565b606082471015612a1f5760405162461bcd60e51b8152600401808060200182810382526026815260200180612cdb6026913960400191505060405180910390fd5b612a2885612b39565b612a79576040805162461bcd60e51b815260206004820152601d60248201527f416464726573733a2063616c6c20746f206e6f6e2d636f6e7472616374000000604482015290519081900360640190fd5b600080866001600160a01b031685876040518082805190602001908083835b60208310612ab75780518252601f199092019160209182019101612a98565b6001836020036101000a03801982511681845116808217855250505050505090500191505060006040518083038185875af1925050503d8060008114612b19576040519150601f19603f3d011682016040523d82523d6000602084013e612b1e565b606091505b5091509150612b2e828286612b3f565b979650505050505050565b3b151590565b60608315612b4e5750816107a6565b825115612b5e5782518084602001fd5b60405162461bcd60e51b815260206004820181815284516024840152845185939192839260440191908501908083836000831561201e578181015183820152602001612006565b828054828255906000526020600020908101928215612c07579160200282015b82811115612c07578251825473ffffffffffffffffffffffffffffffffffffffff19166001600160a01b03909116178255602090920191600190910190612bc5565b50612c13929150612c17565b5090565b5b80821115612c135760008155600101612c1856fe45524332303a207472616e7366657220746f20746865207a65726f206164647265737345524332303a206275726e20616d6f756e7420657863656564732062616c616e636545524332303a20617070726f766520746f20746865207a65726f206164647265737345524332303a207472616e7366657220616d6f756e7420657863656564732062616c616e63655369676e6564536166654d6174683a206164646974696f6e206f766572666c6f77416464726573733a20696e73756666696369656e742062616c616e636520666f722063616c6c45524332303a207472616e7366657220616d6f756e74206578636565647320616c6c6f77616e636545524332303a206275726e2066726f6d20746865207a65726f20616464726573734f6e6c7920676f7665726e616e6365206f7220656d657267656e63792063616e2063616c6c207468697345524332303a207472616e736665722066726f6d20746865207a65726f206164647265737345524332303a20617070726f76652066726f6d20746865207a65726f20616464726573735361666545524332303a204552433230206f7065726174696f6e20646964206e6f74207375636365656445524332303a2064656372656173656420616c6c6f77616e63652062656c6f77207a65726fa26469706673582212203cb7cf9e4a4654e1ee11c8a92fcb207e97d896b91bf586b23b234a776309114a64736f6c63430007060033",
  "devdoc": {
    "kind": "dev",
    "methods": {
      "addStrategy(string,string,uint256[],uint8[],address[],bytes)": {
        "params": {
          "_name": "Name of the strategy",
          "_opEncodedDatas": "Param for every operation in the strategy",
          "_opIntegrations": "Integration to use for every operation",
          "_opTypes": "Type for every operation in the strategy",
          "_stratParams": "Num params for the strategy",
          "_symbol": "Symbol of the strategy"
        }
      },
      "allocateCapitalToStrategy(uint256)": {
        "params": {
          "_capital": "Amount of capital to allocate to the strategy"
        }
      },
      "allowance(address,address)": {
        "details": "See {IERC20-allowance}."
      },
      "approve(address,uint256)": {
        "details": "See {IERC20-approve}. Requirements: - `spender` cannot be the zero address."
      },
      "balanceOf(address)": {
        "details": "See {IERC20-balanceOf}."
      },
      "decimals()": {
        "details": "Returns the number of decimals used to get its user representation. For example, if `decimals` equals `2`, a balance of `505` tokens should be displayed to a user as `5,05` (`505 / 10 ** 2`). Tokens usually opt for a value of 18, imitating the relationship between Ether and Wei. This is the value {ERC20} uses, unless {_setupDecimals} is called. NOTE: This information is only used for _display_ purposes: it in no way affects any of the arithmetic of the contract, including {IERC20-balanceOf} and {IERC20-transfer}."
      },
      "decreaseAllowance(address,uint256)": {
        "details": "Atomically decreases the allowance granted to `spender` by the caller. This is an alternative to {approve} that can be used as a mitigation for problems described in {IERC20-approve}. Emits an {Approval} event indicating the updated allowance. Requirements: - `spender` cannot be the zero address. - `spender` must have allowance for the caller of at least `subtractedValue`."
      },
      "finalizeStrategy(uint256,int256,uint256)": {
        "params": {
          "_burningAmount": "The amount of strategist stake to burn in case of                        strategy losses.",
          "_returns": "Profits or losses that the strategy received",
          "_rewards": "Amount of Reserve Asset to set aside forever"
        }
      },
      "increaseAllowance(address,uint256)": {
        "details": "Atomically increases the allowance granted to `spender` by the caller. This is an alternative to {approve} that can be used as a mitigation for problems described in {IERC20-approve}. Emits an {Approval} event indicating the updated allowance. Requirements: - `spender` cannot be the zero address."
      },
      "name()": {
        "details": "Returns the name of the token."
      },
      "payKeeper(address,uint256)": {
        "details": "We assume that calling keeper functions should be less expensive than 2000 DAI.",
        "params": {
          "_fee": "The fee paid to keeper to compensate the gas cost",
          "_keeper": "Keeper that executed the transaction"
        }
      },
      "symbol()": {
        "details": "Returns the symbol of the token, usually a shorter version of the name."
      },
      "totalSupply()": {
        "details": "See {IERC20-totalSupply}."
      },
      "transfer(address,uint256)": {
        "details": "See {IERC20-transfer}. Requirements: - `recipient` cannot be the zero address. - the caller must have a balance of at least `amount`."
      },
      "transferFrom(address,address,uint256)": {
        "details": "See {IERC20-transferFrom}. Emits an {Approval} event indicating the updated allowance. This is not required by the EIP. See the note at the beginning of {ERC20}. Requirements: - `sender` and `recipient` cannot be the zero address. - `sender` must have a balance of at least `amount`. - the caller must have allowance for ``sender``'s tokens of at least `amount`."
      },
      "updateStrategyRewards(address,uint256,uint256)": {
        "params": {
          "_newTotalAmount": "The new BABL rewards",
          "_strategy": "Address of the strategy to patch"
        }
      }
    },
    "title": "StrategyGardenModule Strategy related functions of the Garden contract",
    "version": 1
  },
  "userdoc": {
    "kind": "user",
    "methods": {
      "addStrategy(string,string,uint256[],uint8[],address[],bytes)": {
        "notice": "Creates a new strategy calling the factory and adds it to the array"
      },
      "allocateCapitalToStrategy(uint256)": {
        "notice": "Allocates garden capital to an strategy"
      },
      "finalizeStrategy(uint256,int256,uint256)": {
        "notice": "When strategy ends puts saves returns, rewards and marks strategy as  finalized."
      },
      "payKeeper(address,uint256)": {
        "notice": "Pays gas costs back to the keeper from executing transactions   including the past debt"
      },
      "updateStrategyRewards(address,uint256,uint256)": {
        "notice": "PRIVILEGE FUNCTION to update Garden Strategy Rewards To be used by Governance or Emergency only."
      }
    },
    "version": 1
  },
  "storageLayout": {
    "storage": [
      {
        "astId": 492,
        "contract": "contracts/gardens/StrategyGardenModule.sol:StrategyGardenModule",
        "label": "_initialized",
        "offset": 0,
        "slot": "0",
        "type": "t_bool"
      },
      {
        "astId": 495,
        "contract": "contracts/gardens/StrategyGardenModule.sol:StrategyGardenModule",
        "label": "_initializing",
        "offset": 1,
        "slot": "0",
        "type": "t_bool"
      },
      {
        "astId": 1447,
        "contract": "contracts/gardens/StrategyGardenModule.sol:StrategyGardenModule",
        "label": "__gap",
        "offset": 0,
        "slot": "1",
        "type": "t_array(t_uint256)50_storage"
      },
      {
        "astId": 571,
        "contract": "contracts/gardens/StrategyGardenModule.sol:StrategyGardenModule",
        "label": "_balances",
        "offset": 0,
        "slot": "51",
        "type": "t_mapping(t_address,t_uint256)"
      },
      {
        "astId": 577,
        "contract": "contracts/gardens/StrategyGardenModule.sol:StrategyGardenModule",
        "label": "_allowances",
        "offset": 0,
        "slot": "52",
        "type": "t_mapping(t_address,t_mapping(t_address,t_uint256))"
      },
      {
        "astId": 579,
        "contract": "contracts/gardens/StrategyGardenModule.sol:StrategyGardenModule",
        "label": "_totalSupply",
        "offset": 0,
        "slot": "53",
        "type": "t_uint256"
      },
      {
        "astId": 581,
        "contract": "contracts/gardens/StrategyGardenModule.sol:StrategyGardenModule",
        "label": "_name",
        "offset": 0,
        "slot": "54",
        "type": "t_string_storage"
      },
      {
        "astId": 583,
        "contract": "contracts/gardens/StrategyGardenModule.sol:StrategyGardenModule",
        "label": "_symbol",
        "offset": 0,
        "slot": "55",
        "type": "t_string_storage"
      },
      {
        "astId": 585,
        "contract": "contracts/gardens/StrategyGardenModule.sol:StrategyGardenModule",
        "label": "_decimals",
        "offset": 0,
        "slot": "56",
        "type": "t_uint8"
      },
      {
        "astId": 1080,
        "contract": "contracts/gardens/StrategyGardenModule.sol:StrategyGardenModule",
        "label": "__gap",
        "offset": 0,
        "slot": "57",
        "type": "t_array(t_uint256)44_storage"
      },
      {
        "astId": 6418,
        "contract": "contracts/gardens/StrategyGardenModule.sol:StrategyGardenModule",
        "label": "_status",
        "offset": 0,
        "slot": "101",
        "type": "t_uint256"
      },
      {
        "astId": 22708,
        "contract": "contracts/gardens/StrategyGardenModule.sol:StrategyGardenModule",
        "label": "reserveAsset",
        "offset": 0,
        "slot": "102",
        "type": "t_address"
      },
      {
        "astId": 22710,
        "contract": "contracts/gardens/StrategyGardenModule.sol:StrategyGardenModule",
        "label": "controller",
        "offset": 0,
        "slot": "103",
        "type": "t_contract(IBabController)42099"
      },
      {
        "astId": 22712,
        "contract": "contracts/gardens/StrategyGardenModule.sol:StrategyGardenModule",
        "label": "rewardsDistributor",
        "offset": 0,
        "slot": "104",
        "type": "t_contract(IRewardsDistributor)44094"
      },
      {
        "astId": 22714,
        "contract": "contracts/gardens/StrategyGardenModule.sol:StrategyGardenModule",
        "label": "creator",
        "offset": 0,
        "slot": "105",
        "type": "t_address"
      },
      {
        "astId": 22716,
        "contract": "contracts/gardens/StrategyGardenModule.sol:StrategyGardenModule",
        "label": "active",
        "offset": 20,
        "slot": "105",
        "type": "t_bool"
      },
      {
        "astId": 22718,
        "contract": "contracts/gardens/StrategyGardenModule.sol:StrategyGardenModule",
        "label": "privateGarden",
        "offset": 21,
        "slot": "105",
        "type": "t_bool"
      },
      {
        "astId": 22720,
        "contract": "contracts/gardens/StrategyGardenModule.sol:StrategyGardenModule",
        "label": "principal",
        "offset": 0,
        "slot": "106",
        "type": "t_uint256"
      },
      {
        "astId": 22722,
        "contract": "contracts/gardens/StrategyGardenModule.sol:StrategyGardenModule",
        "label": "reserveAssetRewardsSetAside",
        "offset": 0,
        "slot": "107",
        "type": "t_uint256"
      },
      {
        "astId": 22724,
        "contract": "contracts/gardens/StrategyGardenModule.sol:StrategyGardenModule",
        "label": "reserveAssetPrincipalWindow",
        "offset": 0,
        "slot": "108",
        "type": "t_uint256"
      },
      {
        "astId": 22726,
        "contract": "contracts/gardens/StrategyGardenModule.sol:StrategyGardenModule",
        "label": "absoluteReturns",
        "offset": 0,
        "slot": "109",
        "type": "t_int256"
      },
      {
        "astId": 22728,
        "contract": "contracts/gardens/StrategyGardenModule.sol:StrategyGardenModule",
        "label": "minLiquidityAsset",
        "offset": 0,
        "slot": "110",
        "type": "t_uint256"
      },
      {
        "astId": 22730,
        "contract": "contracts/gardens/StrategyGardenModule.sol:StrategyGardenModule",
        "label": "depositHardlock",
        "offset": 0,
        "slot": "111",
        "type": "t_uint256"
      },
      {
        "astId": 22732,
        "contract": "contracts/gardens/StrategyGardenModule.sol:StrategyGardenModule",
        "label": "withdrawalsOpenUntil",
        "offset": 0,
        "slot": "112",
        "type": "t_uint256"
      },
      {
        "astId": 22736,
        "contract": "contracts/gardens/StrategyGardenModule.sol:StrategyGardenModule",
        "label": "contributors",
        "offset": 0,
        "slot": "113",
        "type": "t_mapping(t_address,t_struct(Contributor)42912_storage)"
      },
      {
        "astId": 22738,
        "contract": "contracts/gardens/StrategyGardenModule.sol:StrategyGardenModule",
        "label": "totalContributors",
        "offset": 0,
        "slot": "114",
        "type": "t_uint256"
      },
      {
        "astId": 22740,
        "contract": "contracts/gardens/StrategyGardenModule.sol:StrategyGardenModule",
        "label": "maxContributors",
        "offset": 0,
        "slot": "115",
        "type": "t_uint256"
      },
      {
        "astId": 22742,
        "contract": "contracts/gardens/StrategyGardenModule.sol:StrategyGardenModule",
        "label": "maxDepositLimit",
        "offset": 0,
        "slot": "116",
        "type": "t_uint256"
      },
      {
        "astId": 22744,
        "contract": "contracts/gardens/StrategyGardenModule.sol:StrategyGardenModule",
        "label": "gardenInitializedAt",
        "offset": 0,
        "slot": "117",
        "type": "t_uint256"
      },
      {
        "astId": 22746,
        "contract": "contracts/gardens/StrategyGardenModule.sol:StrategyGardenModule",
        "label": "pid",
        "offset": 0,
        "slot": "118",
        "type": "t_uint256"
      },
      {
        "astId": 22748,
        "contract": "contracts/gardens/StrategyGardenModule.sol:StrategyGardenModule",
        "label": "minContribution",
        "offset": 0,
        "slot": "119",
        "type": "t_uint256"
      },
      {
        "astId": 22750,
        "contract": "contracts/gardens/StrategyGardenModule.sol:StrategyGardenModule",
        "label": "minGardenTokenSupply",
        "offset": 0,
        "slot": "120",
        "type": "t_uint256"
      },
      {
        "astId": 22752,
        "contract": "contracts/gardens/StrategyGardenModule.sol:StrategyGardenModule",
        "label": "totalStake",
        "offset": 0,
        "slot": "121",
        "type": "t_uint256"
      },
      {
        "astId": 22754,
        "contract": "contracts/gardens/StrategyGardenModule.sol:StrategyGardenModule",
        "label": "minVotesQuorum",
        "offset": 0,
        "slot": "122",
        "type": "t_uint256"
      },
      {
        "astId": 22756,
        "contract": "contracts/gardens/StrategyGardenModule.sol:StrategyGardenModule",
        "label": "minVoters",
        "offset": 0,
        "slot": "123",
        "type": "t_uint256"
      },
      {
        "astId": 22758,
        "contract": "contracts/gardens/StrategyGardenModule.sol:StrategyGardenModule",
        "label": "minStrategyDuration",
        "offset": 0,
        "slot": "124",
        "type": "t_uint256"
      },
      {
        "astId": 22760,
        "contract": "contracts/gardens/StrategyGardenModule.sol:StrategyGardenModule",
        "label": "maxStrategyDuration",
        "offset": 0,
        "slot": "125",
        "type": "t_uint256"
      },
      {
        "astId": 22762,
        "contract": "contracts/gardens/StrategyGardenModule.sol:StrategyGardenModule",
        "label": "strategyCooldownPeriod",
        "offset": 0,
        "slot": "126",
        "type": "t_uint256"
      },
      {
        "astId": 22765,
        "contract": "contracts/gardens/StrategyGardenModule.sol:StrategyGardenModule",
        "label": "strategies",
        "offset": 0,
        "slot": "127",
        "type": "t_array(t_address)dyn_storage"
      },
      {
        "astId": 22768,
        "contract": "contracts/gardens/StrategyGardenModule.sol:StrategyGardenModule",
        "label": "finalizedStrategies",
        "offset": 0,
        "slot": "128",
        "type": "t_array(t_address)dyn_storage"
      },
      {
        "astId": 22772,
        "contract": "contracts/gardens/StrategyGardenModule.sol:StrategyGardenModule",
        "label": "strategyMapping",
        "offset": 0,
        "slot": "129",
        "type": "t_mapping(t_address,t_bool)"
      },
      {
        "astId": 22776,
        "contract": "contracts/gardens/StrategyGardenModule.sol:StrategyGardenModule",
        "label": "isGardenStrategy",
        "offset": 0,
        "slot": "130",
        "type": "t_mapping(t_address,t_bool)"
      },
      {
        "astId": 22778,
        "contract": "contracts/gardens/StrategyGardenModule.sol:StrategyGardenModule",
        "label": "keeperDebt",
        "offset": 0,
        "slot": "131",
        "type": "t_uint256"
      },
      {
        "astId": 22780,
        "contract": "contracts/gardens/StrategyGardenModule.sol:StrategyGardenModule",
        "label": "totalKeeperFees",
        "offset": 0,
        "slot": "132",
        "type": "t_uint256"
      },
      {
        "astId": 22782,
        "contract": "contracts/gardens/StrategyGardenModule.sol:StrategyGardenModule",
        "label": "publicStrategists",
        "offset": 0,
        "slot": "133",
        "type": "t_bool"
      },
      {
        "astId": 22784,
        "contract": "contracts/gardens/StrategyGardenModule.sol:StrategyGardenModule",
        "label": "publicStewards",
        "offset": 1,
        "slot": "133",
        "type": "t_bool"
      },
      {
        "astId": 22788,
        "contract": "contracts/gardens/StrategyGardenModule.sol:StrategyGardenModule",
        "label": "extraCreators",
        "offset": 0,
        "slot": "134",
        "type": "t_array(t_address)4_storage"
      },
      {
        "astId": 22790,
        "contract": "contracts/gardens/StrategyGardenModule.sol:StrategyGardenModule",
        "label": "lastPricePerShare",
        "offset": 0,
        "slot": "138",
        "type": "t_uint256"
      },
      {
        "astId": 22792,
        "contract": "contracts/gardens/StrategyGardenModule.sol:StrategyGardenModule",
        "label": "lastPricePerShareTS",
        "offset": 0,
        "slot": "139",
        "type": "t_uint256"
      },
      {
        "astId": 22794,
        "contract": "contracts/gardens/StrategyGardenModule.sol:StrategyGardenModule",
        "label": "pricePerShareDecayRate",
        "offset": 0,
        "slot": "140",
        "type": "t_uint256"
      },
      {
        "astId": 22796,
        "contract": "contracts/gardens/StrategyGardenModule.sol:StrategyGardenModule",
        "label": "pricePerShareDelta",
        "offset": 0,
        "slot": "141",
        "type": "t_uint256"
      },
      {
        "astId": 22798,
        "contract": "contracts/gardens/StrategyGardenModule.sol:StrategyGardenModule",
        "label": "verifiedCategory",
        "offset": 0,
        "slot": "142",
        "type": "t_uint256"
      },
      {
        "astId": 22800,
        "contract": "contracts/gardens/StrategyGardenModule.sol:StrategyGardenModule",
        "label": "hardlockStartsAt",
        "offset": 0,
        "slot": "143",
        "type": "t_uint256"
      },
      {
        "astId": 22802,
        "contract": "contracts/gardens/StrategyGardenModule.sol:StrategyGardenModule",
        "label": "signer",
        "offset": 0,
        "slot": "144",
        "type": "t_address"
      },
      {
        "astId": 22804,
        "contract": "contracts/gardens/StrategyGardenModule.sol:StrategyGardenModule",
        "label": "canMintNftAfter",
        "offset": 0,
        "slot": "145",
        "type": "t_uint256"
      }
    ],
    "types": {
      "t_address": {
        "encoding": "inplace",
        "label": "address",
        "numberOfBytes": "20"
      },
      "t_array(t_address)4_storage": {
        "base": "t_address",
        "encoding": "inplace",
        "label": "address[4]",
        "numberOfBytes": "128"
      },
      "t_array(t_address)dyn_storage": {
        "base": "t_address",
        "encoding": "dynamic_array",
        "label": "address[]",
        "numberOfBytes": "32"
      },
      "t_array(t_uint256)44_storage": {
        "base": "t_uint256",
        "encoding": "inplace",
        "label": "uint256[44]",
        "numberOfBytes": "1408"
      },
      "t_array(t_uint256)50_storage": {
        "base": "t_uint256",
        "encoding": "inplace",
        "label": "uint256[50]",
        "numberOfBytes": "1600"
      },
      "t_bool": {
        "encoding": "inplace",
        "label": "bool",
        "numberOfBytes": "1"
      },
      "t_contract(IBabController)42099": {
        "encoding": "inplace",
        "label": "contract IBabController",
        "numberOfBytes": "20"
      },
      "t_contract(IRewardsDistributor)44094": {
        "encoding": "inplace",
        "label": "contract IRewardsDistributor",
        "numberOfBytes": "20"
      },
      "t_int256": {
        "encoding": "inplace",
        "label": "int256",
        "numberOfBytes": "32"
      },
      "t_mapping(t_address,t_bool)": {
        "encoding": "mapping",
        "key": "t_address",
        "label": "mapping(address => bool)",
        "numberOfBytes": "32",
        "value": "t_bool"
      },
      "t_mapping(t_address,t_mapping(t_address,t_uint256))": {
        "encoding": "mapping",
        "key": "t_address",
        "label": "mapping(address => mapping(address => uint256))",
        "numberOfBytes": "32",
        "value": "t_mapping(t_address,t_uint256)"
      },
      "t_mapping(t_address,t_struct(Contributor)42912_storage)": {
        "encoding": "mapping",
        "key": "t_address",
        "label": "mapping(address => struct IGarden.Contributor)",
        "numberOfBytes": "32",
        "value": "t_struct(Contributor)42912_storage"
      },
      "t_mapping(t_address,t_uint256)": {
        "encoding": "mapping",
        "key": "t_address",
        "label": "mapping(address => uint256)",
        "numberOfBytes": "32",
        "value": "t_uint256"
      },
      "t_string_storage": {
        "encoding": "bytes",
        "label": "string",
        "numberOfBytes": "32"
      },
      "t_struct(Contributor)42912_storage": {
        "encoding": "inplace",
        "label": "struct IGarden.Contributor",
        "members": [
          {
            "astId": 42895,
            "contract": "contracts/gardens/StrategyGardenModule.sol:StrategyGardenModule",
            "label": "lastDepositAt",
            "offset": 0,
            "slot": "0",
            "type": "t_uint256"
          },
          {
            "astId": 42897,
            "contract": "contracts/gardens/StrategyGardenModule.sol:StrategyGardenModule",
            "label": "initialDepositAt",
            "offset": 0,
            "slot": "1",
            "type": "t_uint256"
          },
          {
            "astId": 42899,
            "contract": "contracts/gardens/StrategyGardenModule.sol:StrategyGardenModule",
            "label": "claimedAt",
            "offset": 0,
            "slot": "2",
            "type": "t_uint256"
          },
          {
            "astId": 42901,
            "contract": "contracts/gardens/StrategyGardenModule.sol:StrategyGardenModule",
            "label": "claimedBABL",
            "offset": 0,
            "slot": "3",
            "type": "t_uint256"
          },
          {
            "astId": 42903,
            "contract": "contracts/gardens/StrategyGardenModule.sol:StrategyGardenModule",
            "label": "claimedRewards",
            "offset": 0,
            "slot": "4",
            "type": "t_uint256"
          },
          {
            "astId": 42905,
            "contract": "contracts/gardens/StrategyGardenModule.sol:StrategyGardenModule",
            "label": "withdrawnSince",
            "offset": 0,
            "slot": "5",
            "type": "t_uint256"
          },
          {
            "astId": 42907,
            "contract": "contracts/gardens/StrategyGardenModule.sol:StrategyGardenModule",
            "label": "totalDeposits",
            "offset": 0,
            "slot": "6",
            "type": "t_uint256"
          },
          {
            "astId": 42909,
            "contract": "contracts/gardens/StrategyGardenModule.sol:StrategyGardenModule",
            "label": "nonce",
            "offset": 0,
            "slot": "7",
            "type": "t_uint256"
          },
          {
            "astId": 42911,
            "contract": "contracts/gardens/StrategyGardenModule.sol:StrategyGardenModule",
            "label": "lockedBalance",
            "offset": 0,
            "slot": "8",
            "type": "t_uint256"
          }
        ],
        "numberOfBytes": "288"
      },
      "t_uint256": {
        "encoding": "inplace",
        "label": "uint256",
        "numberOfBytes": "32"
      },
      "t_uint8": {
        "encoding": "inplace",
        "label": "uint8",
        "numberOfBytes": "1"
      }
    }
  }
}