{
  "address": "0x644b2020d96a8eCD9D8C4A8a36e1d5FbA6054317",
  "abi": [
    {
      "anonymous": false,
      "inputs": [
        {
          "indexed": true,
          "internalType": "address",
          "name": "_strategy",
          "type": "address"
        },
        {
          "indexed": false,
          "internalType": "string",
          "name": "_name",
          "type": "string"
        },
        {
          "indexed": false,
          "internalType": "uint256",
          "name": "_expectedReturn",
          "type": "uint256"
        }
      ],
      "name": "AddStrategy",
      "type": "event"
    },
    {
      "anonymous": false,
      "inputs": [
        {
          "indexed": true,
          "internalType": "address",
          "name": "owner",
          "type": "address"
        },
        {
          "indexed": true,
          "internalType": "address",
          "name": "spender",
          "type": "address"
        },
        {
          "indexed": false,
          "internalType": "uint256",
          "name": "value",
          "type": "uint256"
        }
      ],
      "name": "Approval",
      "type": "event"
    },
    {
      "anonymous": false,
      "inputs": [
        {
          "indexed": true,
          "internalType": "address",
          "name": "from",
          "type": "address"
        },
        {
          "indexed": true,
          "internalType": "address",
          "name": "to",
          "type": "address"
        },
        {
          "indexed": false,
          "internalType": "uint256",
          "name": "value",
          "type": "uint256"
        }
      ],
      "name": "Transfer",
      "type": "event"
    },
    {
      "inputs": [
        {
          "internalType": "string",
          "name": "_name",
          "type": "string"
        },
        {
          "internalType": "string",
          "name": "_symbol",
          "type": "string"
        },
        {
          "internalType": "uint256[]",
          "name": "_stratParams",
          "type": "uint256[]"
        },
        {
          "internalType": "uint8[]",
          "name": "_opTypes",
          "type": "uint8[]"
        },
        {
          "internalType": "address[]",
          "name": "_opIntegrations",
          "type": "address[]"
        },
        {
          "internalType": "bytes",
          "name": "_opEncodedDatas",
          "type": "bytes"
        }
      ],
      "name": "addStrategy",
      "outputs": [],
      "stateMutability": "nonpayable",
      "type": "function"
    },
    {
      "inputs": [
        {
          "internalType": "uint256",
          "name": "_capital",
          "type": "uint256"
        }
      ],
      "name": "allocateCapitalToStrategy",
      "outputs": [],
      "stateMutability": "nonpayable",
      "type": "function"
    },
    {
      "inputs": [
        {
          "internalType": "address",
          "name": "owner",
          "type": "address"
        },
        {
          "internalType": "address",
          "name": "spender",
          "type": "address"
        }
      ],
      "name": "allowance",
      "outputs": [
        {
          "internalType": "uint256",
          "name": "",
          "type": "uint256"
        }
      ],
      "stateMutability": "view",
      "type": "function"
    },
    {
      "inputs": [
        {
          "internalType": "address",
          "name": "spender",
          "type": "address"
        },
        {
          "internalType": "uint256",
          "name": "amount",
          "type": "uint256"
        }
      ],
      "name": "approve",
      "outputs": [
        {
          "internalType": "bool",
          "name": "",
          "type": "bool"
        }
      ],
      "stateMutability": "nonpayable",
      "type": "function"
    },
    {
      "inputs": [
        {
          "internalType": "address",
          "name": "account",
          "type": "address"
        }
      ],
      "name": "balanceOf",
      "outputs": [
        {
          "internalType": "uint256",
          "name": "",
          "type": "uint256"
        }
      ],
      "stateMutability": "view",
      "type": "function"
    },
    {
      "inputs": [],
      "name": "decimals",
      "outputs": [
        {
          "internalType": "uint8",
          "name": "",
          "type": "uint8"
        }
      ],
      "stateMutability": "view",
      "type": "function"
    },
    {
      "inputs": [
        {
          "internalType": "address",
          "name": "spender",
          "type": "address"
        },
        {
          "internalType": "uint256",
          "name": "subtractedValue",
          "type": "uint256"
        }
      ],
      "name": "decreaseAllowance",
      "outputs": [
        {
          "internalType": "bool",
          "name": "",
          "type": "bool"
        }
      ],
      "stateMutability": "nonpayable",
      "type": "function"
    },
    {
      "inputs": [
        {
          "internalType": "address",
          "name": "_strategy",
          "type": "address"
        }
      ],
      "name": "expireCandidateStrategy",
      "outputs": [],
      "stateMutability": "nonpayable",
      "type": "function"
    },
    {
      "inputs": [
        {
          "internalType": "uint256",
          "name": "_rewards",
          "type": "uint256"
        },
        {
          "internalType": "int256",
          "name": "_returns",
          "type": "int256"
        },
        {
          "internalType": "uint256",
          "name": "_burningAmount",
          "type": "uint256"
        }
      ],
      "name": "finalizeStrategy",
      "outputs": [],
      "stateMutability": "nonpayable",
      "type": "function"
    },
    {
      "inputs": [
        {
          "internalType": "address",
          "name": "spender",
          "type": "address"
        },
        {
          "internalType": "uint256",
          "name": "addedValue",
          "type": "uint256"
        }
      ],
      "name": "increaseAllowance",
      "outputs": [
        {
          "internalType": "bool",
          "name": "",
          "type": "bool"
        }
      ],
      "stateMutability": "nonpayable",
      "type": "function"
    },
    {
      "inputs": [],
      "name": "name",
      "outputs": [
        {
          "internalType": "string",
          "name": "",
          "type": "string"
        }
      ],
      "stateMutability": "view",
      "type": "function"
    },
    {
      "inputs": [
        {
          "internalType": "address payable",
          "name": "_keeper",
          "type": "address"
        },
        {
          "internalType": "uint256",
          "name": "_fee",
          "type": "uint256"
        }
      ],
      "name": "payKeeper",
      "outputs": [],
      "stateMutability": "nonpayable",
      "type": "function"
    },
    {
      "inputs": [
        {
          "internalType": "address",
          "name": "_strategist",
          "type": "address"
        }
      ],
      "name": "resetStrategistLock",
      "outputs": [],
      "stateMutability": "nonpayable",
      "type": "function"
    },
    {
      "inputs": [],
      "name": "symbol",
      "outputs": [
        {
          "internalType": "string",
          "name": "",
          "type": "string"
        }
      ],
      "stateMutability": "view",
      "type": "function"
    },
    {
      "inputs": [],
      "name": "totalSupply",
      "outputs": [
        {
          "internalType": "uint256",
          "name": "",
          "type": "uint256"
        }
      ],
      "stateMutability": "view",
      "type": "function"
    },
    {
      "inputs": [
        {
          "internalType": "address",
          "name": "recipient",
          "type": "address"
        },
        {
          "internalType": "uint256",
          "name": "amount",
          "type": "uint256"
        }
      ],
      "name": "transfer",
      "outputs": [
        {
          "internalType": "bool",
          "name": "",
          "type": "bool"
        }
      ],
      "stateMutability": "nonpayable",
      "type": "function"
    },
    {
      "inputs": [
        {
          "internalType": "address",
          "name": "sender",
          "type": "address"
        },
        {
          "internalType": "address",
          "name": "recipient",
          "type": "address"
        },
        {
          "internalType": "uint256",
          "name": "amount",
          "type": "uint256"
        }
      ],
      "name": "transferFrom",
      "outputs": [
        {
          "internalType": "bool",
          "name": "",
          "type": "bool"
        }
      ],
      "stateMutability": "nonpayable",
      "type": "function"
    },
    {
      "inputs": [
        {
          "internalType": "address",
          "name": "_strategy",
          "type": "address"
        },
        {
          "internalType": "uint256",
          "name": "_newTotalAmount",
          "type": "uint256"
        },
        {
          "internalType": "uint256",
          "name": "_newCapitalReturned",
          "type": "uint256"
        }
      ],
      "name": "updateStrategyRewards",
      "outputs": [],
      "stateMutability": "nonpayable",
      "type": "function"
    }
  ],
  "transactionHash": "0xf387b8b6a1510e9c589bad436b07af8b4524e7e376fc4031cf4a856c21567972",
  "args": [],
  "numDeployments": 6,
  "solcInputHash": "4a73f6aa98ef0c036335e8245a191a32",
  "bytecode": "0x608060405234801561001057600080fd5b506001606555613115806100256000396000f3fe608060405234801561001057600080fd5b50600436106101365760003560e01c806370a08231116100b2578063a457c2d711610081578063b2644e6611610066578063b2644e6614610626578063dd62ed3e1461064c578063e03ea28d1461067a57610136565b8063a457c2d7146105ce578063a9059cbb146105fa57610136565b806370a082311461054e57806395d89b4114610574578063972cbc9b1461057c5780639ab63742146105a257610136565b8063313ce567116101095780634422b0dc116100ee5780634422b0dc1461029257806350a96003146102b15780635a9e6daa146102da57610136565b8063313ce56714610248578063395093511461026657610136565b806306fdde031461013b578063095ea7b3146101b857806318160ddd146101f857806323b872dd14610212575b600080fd5b6101436106ac565b6040805160208082528351818301528351919283929083019185019080838360005b8381101561017d578181015183820152602001610165565b50505050905090810190601f1680156101aa5780820380516001836020036101000a031916815260200191505b509250505060405180910390f35b6101e4600480360360408110156101ce57600080fd5b506001600160a01b038135169060200135610742565b604080519115158252519081900360200190f35b610200610760565b60408051918252519081900360200190f35b6101e46004803603606081101561022857600080fd5b506001600160a01b03813581169160208101359091169060400135610766565b6102506107ee565b6040805160ff9092168252519081900360200190f35b6101e46004803603604081101561027c57600080fd5b506001600160a01b0381351690602001356107f7565b6102af600480360360208110156102a857600080fd5b5035610845565b005b6102af600480360360608110156102c757600080fd5b5080359060208101359060400135610993565b6102af600480360360c08110156102f057600080fd5b81019060208101813564010000000081111561030b57600080fd5b82018360208201111561031d57600080fd5b8035906020019184600183028401116401000000008311171561033f57600080fd5b91908080601f016020809104026020016040519081016040528093929190818152602001838380828437600092019190915250929594936020810193503591505064010000000081111561039257600080fd5b8201836020820111156103a457600080fd5b803590602001918460018302840111640100000000831117156103c657600080fd5b91908080601f016020809104026020016040519081016040528093929190818152602001838380828437600092019190915250929594936020810193503591505064010000000081111561041957600080fd5b82018360208201111561042b57600080fd5b8035906020019184602083028401116401000000008311171561044d57600080fd5b91939092909160208101903564010000000081111561046b57600080fd5b82018360208201111561047d57600080fd5b8035906020019184602083028401116401000000008311171561049f57600080fd5b9193909290916020810190356401000000008111156104bd57600080fd5b8201836020820111156104cf57600080fd5b803590602001918460208302840111640100000000831117156104f157600080fd5b91939092909160208101903564010000000081111561050f57600080fd5b82018360208201111561052157600080fd5b8035906020019184600183028401116401000000008311171561054357600080fd5b509092509050610e6f565b6102006004803603602081101561056457600080fd5b50356001600160a01b03166114d4565b6101436114ef565b6102af6004803603602081101561059257600080fd5b50356001600160a01b0316611550565b6102af600480360360408110156105b857600080fd5b506001600160a01b03813516906020013561160a565b6101e4600480360360408110156105e457600080fd5b506001600160a01b0381351690602001356119c9565b6101e46004803603604081101561061057600080fd5b506001600160a01b038135169060200135611a31565b6102af6004803603602081101561063c57600080fd5b50356001600160a01b0316611a45565b6102006004803603604081101561066257600080fd5b506001600160a01b0381358116916020013516611c3e565b6102af6004803603606081101561069057600080fd5b506001600160a01b038135169060208101359060400135611c69565b60368054604080516020601f60026000196101006001881615020190951694909404938401819004810282018101909252828152606093909290918301828280156107385780601f1061070d57610100808354040283529160200191610738565b820191906000526020600020905b81548152906001019060200180831161071b57829003601f168201915b5050505050905090565b600061075661074f611fc8565b8484611fcc565b5060015b92915050565b60355490565b60006107738484846120b8565b6107e38461077f611fc8565b6107de85604051806060016040528060288152602001612fb1602891396001600160a01b038a166000908152603460205260408120906107bd611fc8565b6001600160a01b031681526020810191909152604001600020549190612215565b611fcc565b5060015b9392505050565b60385460ff1690565b6000610756610804611fc8565b846107de8560346000610815611fc8565b6001600160a01b03908116825260208083019390935260409182016000908120918c1681529252902054906122ac565b61084d612306565b60006108d382606760009054906101000a90046001600160a01b03166001600160a01b031663313754776040518163ffffffff1660e01b815260040160206040518083038186803b1580156108a157600080fd5b505afa1580156108b5573d6000803e3d6000fd5b505050506040513d60208110156108cb57600080fd5b505190612326565b90506108f36108e0612344565b6108ea848461240d565b1115600461241d565b60675460408051633d63472560e21b81529051610978926001600160a01b03169163f58d1c94916004808301926020929190829003018186803b15801561093957600080fd5b505afa15801561094d573d6000803e3d6000fd5b505050506040513d602081101561096357600080fd5b50516066546001600160a01b0316908361242b565b60665461098f906001600160a01b0316338461242b565b5050565b600260655414156109eb576040805162461bcd60e51b815260206004820152601f60248201527f5265656e7472616e637947756172643a207265656e7472616e742063616c6c00604482015290519081900360640190fd5b60026065556109f86124b0565b610a00612306565b6000336001600160a01b0316631fe4a6866040518163ffffffff1660e01b815260040160206040518083038186803b158015610a3b57600080fd5b505afa158015610a4f573d6000803e3d6000fd5b505050506040513d6020811015610a6557600080fd5b505190508115610a9457610a78816114d4565b8210610a8a57610a87816114d4565b91505b610a948183612549565b6000336001600160a01b0316633a4b66f16040518163ffffffff1660e01b815260040160206040518083038186803b158015610acf57600080fd5b505afa158015610ae3573d6000803e3d6000fd5b505050506040513d6020811015610af957600080fd5b50516001600160a01b038316600090815260716020526040902060080154909150818111610b28576000610b32565b610b328183612645565b6001600160a01b038416600090815260716020526040902060080155606b54610b5b908761240d565b606b55606d54610b6b9086612655565b606d81905550610bde33607f805480602002602001604051908101604052809291908181526020018280548015610bcb57602002820191906000526020600020905b81546001600160a01b03168152600190910190602001808311610bad575b50505050506126ba90919063ffffffff16565b8051610bf291607f91602090910190612e55565b5060808054600181019091557f59f3fb058c6bba7a4e76396639fc4dd21bd59163db798899cf56cef48b3c9ec901805473ffffffffffffffffffffffffffffffffffffffff191633908117909155600090815260816020908152604091829020805460ff191690556067548251633d63472560e21b815292516001600160a01b03919091169263f58d1c94926004808301939192829003018186803b158015610c9a57600080fd5b505afa158015610cae573d6000803e3d6000fd5b505050506040513d6020811015610cc457600080fd5b505160408051630cbefec960e31b815290516001600160a01b03909216916365f7f64891600480820192602092909190829003018186803b158015610d0857600080fd5b505afa158015610d1c573d6000803e3d6000fd5b505050506040513d6020811015610d3257600080fd5b50516001600160a01b0316301415610e6257606860009054906101000a90046001600160a01b03166001600160a01b0316638ce90e8230336001600160a01b0316636db40dc26040518163ffffffff1660e01b815260040160206040518083038186803b158015610da257600080fd5b505afa158015610db6573d6000803e3d6000fd5b505050506040513d6020811015610dcc57600080fd5b5051604080517fffffffff0000000000000000000000000000000000000000000000000000000060e086901b1681526001600160a01b03909316600484015260248301919091525160448083019260209291908290030181600087803b158015610e3557600080fd5b505af1158015610e49573d6000803e3d6000fd5b505050506040513d6020811015610e5f57600080fd5b50505b5050600160655550505050565b610e776124b0565b610e8d6000610e85336114d4565b11600f61241d565b60855460009060ff1680610faa5750606760009054906101000a90046001600160a01b03166001600160a01b0316630ebdb9a26040518163ffffffff1660e01b815260040160206040518083038186803b158015610eea57600080fd5b505afa158015610efe573d6000803e3d6000fd5b505050506040513d6020811015610f1457600080fd5b5051604080517f5066c71400000000000000000000000000000000000000000000000000000000815230600482015233602482015290516001600160a01b0390921691635066c71491604480820192602092909190829003018186803b158015610f7d57600080fd5b505afa158015610f91573d6000803e3d6000fd5b505050506040513d6020811015610fa757600080fd5b50515b9050610fb781601e61241d565b607f54610fc890601411601a61241d565b606754604080517f9ef3571000000000000000000000000000000000000000000000000000000000815290516000926001600160a01b031691639ef35710916004808301926020929190829003018186803b15801561102657600080fd5b505afa15801561103a573d6000803e3d6000fd5b505050506040513d602081101561105057600080fd5b81019080805190602001909291905050506001600160a01b03166378afca3e8d8d33308f8f6040518763ffffffff1660e01b8152600401808060200180602001876001600160a01b03168152602001866001600160a01b031681526020018060200184810384528a818151815260200191508051906020019080838360005b838110156110e75781810151838201526020016110cf565b50505050905090810190601f1680156111145780820380516001836020036101000a031916815260200191505b5084810383528951815289516020918201918b019080838360005b8381101561114757818101518382015260200161112f565b50505050905090810190601f1680156111745780820380516001836020036101000a031916815260200191505b508481038252868682818152602001925060200280828437600081840152601f19601f8201169050808301925050509950505050505050505050602060405180830381600087803b1580156111c857600080fd5b505af11580156111dc573d6000803e3d6000fd5b505050506040513d60208110156111f257600080fd5b50516001600160a01b0381166000908152608160205260409020805460ff19166001908117909155909150611246908b908b9081811061122e57fe5b9050602002013560795461240d90919063ffffffff16565b60795561127b8a8a600181811061125957fe5b336000908152607160209081526040909120600801549391020135905061240d565b33600090815260716020908152604080832060080193909355607f805460018101825592527f66925e85f1a4743fd8d60ba595ed74887b7caf321dd83b21e04d77c115383408909101805473ffffffffffffffffffffffffffffffffffffffff19166001600160a01b03851690811790915591517fecbc2cda000000000000000000000000000000000000000000000000000000008152606060048201908152606482018b905263ecbc2cda928c928c928c928c928c928c9290918291602482019160448101916084909101908b908b0280828437600083820152601f01601f19169091018581038452888152602090810191508990890280828437600083820152601f01601f191690910185810383528681526020019050868680828437600081840152601f19601f8201169050808301925050509950505050505050505050600060405180830381600087803b1580156113d657600080fd5b505af11580156113ea573d6000803e3d6000fd5b5050506001600160a01b0382166000818152608260205260409020805460ff1916600117905590507f9e896c245c70d187fa97788cded4bca6b7546fa444cc7b0c111c57b592affa018d8c8c600381811061144157fe5b905060200201356040518080602001838152602001828103825284818151815260200191508051906020019080838360005b8381101561148b578181015183820152602001611473565b50505050905090810190601f1680156114b85780820380516001836020036101000a031916815260200191505b50935050505060405180910390a2505050505050505050505050565b6001600160a01b031660009081526033602052604090205490565b60378054604080516020601f60026000196101006001881615020190951694909404938401819004810282018101909252828152606093909290918301828280156107385780601f1061070d57610100808354040283529160200191610738565b606754604080517f8d97e04300000000000000000000000000000000000000000000000000000000815290516115ed926001600160a01b031691638d97e043916004808301926020929190829003018186803b1580156115af57600080fd5b505afa1580156115c3573d6000803e3d6000fd5b505050506040513d60208110156115d957600080fd5b50516001600160a01b03163314606b61241d565b6001600160a01b0316600090815260716020526040812060080155565b60026065541415611662576040805162461bcd60e51b815260206004820152601f60248201527f5265656e7472616e637947756172643a207265656e7472616e742063616c6c00604482015290519081900360640190fd5b600260655561166f6124b0565b6116963330148061168f57503360009081526081602052604090205460ff165b601461241d565b606754604080517f411137c30000000000000000000000000000000000000000000000000000000081526001600160a01b038581166004830152915161173493929092169163411137c391602480820192602092909190829003018186803b15801561170157600080fd5b505afa158015611715573d6000803e3d6000fd5b505050506040513d602081101561172b57600080fd5b5051601261241d565b606754604080517f2630c12f00000000000000000000000000000000000000000000000000000000815290516000926001600160a01b031691632630c12f916004808301926020929190829003018186803b15801561179257600080fd5b505afa1580156117a6573d6000803e3d6000fd5b505050506040513d60208110156117bc57600080fd5b5051606654604080517fac41865a0000000000000000000000000000000000000000000000000000000081526001600160a01b039283166004820152736b175474e89094c44da98b954eedeac495271d0f60248201529051919092169163ac41865a916044808301926020929190829003018186803b15801561183e57600080fd5b505afa158015611852573d6000803e3d6000fd5b505050506040513d602081101561186857600080fd5b5051606654604080517f313ce56700000000000000000000000000000000000000000000000000000000815290519293506000926119209261190d926001600160a01b039091169163313ce56791600480820192602092909190829003018186803b1580156118d657600080fd5b505afa1580156118ea573d6000803e3d6000fd5b505050506040513d602081101561190057600080fd5b505160129060ff16612645565b600a0a61191a8486612326565b90612737565b9050611939686c6b935b8bbd400000821115601361241d565b608354611946908461240d565b6083556000611953612344565b905060006083541180156119675750600081115b156119bd576000608354821161197d5781611981565b6083545b60665490915061199b906001600160a01b0316878361242b565b6084546119a8908261240d565b6084556083546119b89082612645565b608355505b50506001606555505050565b60006107566119d6611fc8565b846107de856040518060600160405280602581526020016130bb6025913960346000611a00611fc8565b6001600160a01b03908116825260208083019390935260409182016000908120918d16815292529020549190612215565b6000610756611a3e611fc8565b84846120b8565b611a4d612306565b611ab833607f805480602002602001604051908101604052809291908181526020018280548015610bcb576020028201919060005260206000209081546001600160a01b03168152600190910190602001808311610bad5750505050506126ba90919063ffffffff16565b8051611acc91607f91602090910190612e55565b50336000818152608160209081526040808320805460ff1916905580517f1fe4a6860000000000000000000000000000000000000000000000000000000081529051929392631fe4a68692600480840193919291829003018186803b158015611b3457600080fd5b505afa158015611b48573d6000803e3d6000fd5b505050506040513d6020811015611b5e57600080fd5b5051604080517f3a4b66f100000000000000000000000000000000000000000000000000000000815290519192506000913391633a4b66f1916004808301926020929190829003018186803b158015611bb657600080fd5b505afa158015611bca573d6000803e3d6000fd5b505050506040513d6020811015611be057600080fd5b50516001600160a01b038316600090815260716020526040902060080154909150818111611c0f576000611c19565b611c198183612645565b6001600160a01b03909316600090815260716020526040902060080192909255505050565b6001600160a01b03918216600090815260346020908152604080832093909416825291909152205490565b606754611c7e906001600160a01b031661275b565b6001600160a01b038316600090815260826020526040902054611cca9060ff168015611cc357506001600160a01b03841660009081526081602052604090205460ff16155b604961241d565b6000836001600160a01b0316636db40dc26040518163ffffffff1660e01b815260040160206040518083038186803b158015611d0557600080fd5b505afa158015611d19573d6000803e3d6000fd5b505050506040513d6020811015611d2f57600080fd5b505160675460408051633d63472560e21b815290519293506001600160a01b039091169163f58d1c9491600480820192602092909190829003018186803b158015611d7957600080fd5b505afa158015611d8d573d6000803e3d6000fd5b505050506040513d6020811015611da357600080fd5b505160408051630cbefec960e31b815290516001600160a01b03909216916365f7f64891600480820192602092909190829003018186803b158015611de757600080fd5b505afa158015611dfb573d6000803e3d6000fd5b505050506040513d6020811015611e1157600080fd5b50516001600160a01b031630148015611e2957508281105b15611ebd576068546001600160a01b0316638ce90e8230611e4a8685612645565b6040518363ffffffff1660e01b815260040180836001600160a01b0316815260200182815260200192505050602060405180830381600087803b158015611e9057600080fd5b505af1158015611ea4573d6000803e3d6000fd5b505050506040513d6020811015611eba57600080fd5b50505b6000611f2e856001600160a01b03166303976e386040518163ffffffff1660e01b815260040160206040518083038186803b158015611efb57600080fd5b505afa158015611f0f573d6000803e3d6000fd5b505050506040513d6020811015611f2557600080fd5b50518490612880565b606d54909150611f3e9082612655565b606d55604080517f5b746af5000000000000000000000000000000000000000000000000000000008152600481018690526024810185905290516001600160a01b03871691635b746af591604480830192600092919082900301818387803b158015611fa957600080fd5b505af1158015611fbd573d6000803e3d6000fd5b505050505050505050565b3390565b6001600160a01b0383166120115760405162461bcd60e51b81526004018080602001828103825260248152602001806130496024913960400191505060405180910390fd5b6001600160a01b0382166120565760405162461bcd60e51b8152600401808060200182810382526022815260200180612f226022913960400191505060405180910390fd5b6001600160a01b03808416600081815260346020908152604080832094871680845294825291829020859055815185815291517f8c5be1e5ebec7d5bd14f71427d1e84f3dd0314c0f7b2291e5b200ac8c7c3b9259281900390910190a3505050565b6001600160a01b0383166120fd5760405162461bcd60e51b81526004018080602001828103825260258152602001806130246025913960400191505060405180910390fd5b6001600160a01b0382166121425760405162461bcd60e51b8152600401808060200182810382526023815260200180612edd6023913960400191505060405180910390fd5b61214d8383836124ab565b61218a81604051806060016040528060268152602001612f44602691396001600160a01b0386166000908152603360205260409020549190612215565b6001600160a01b0380851660009081526033602052604080822093909355908416815220546121b990826122ac565b6001600160a01b0380841660008181526033602090815260409182902094909455805185815290519193928716927fddf252ad1be2c89b69c2b068fc378daa952ba7f163c4a11628f55a4df523b3ef92918290030190a3505050565b600081848411156122a45760405162461bcd60e51b81526004018080602001828103825283818151815260200191508051906020019080838360005b83811015612269578181015183820152602001612251565b50505050905090810190601f1680156122965780820380516001836020036101000a031916815260200191505b509250505060405180910390fd5b505050900390565b6000828201838110156107e7576040805162461bcd60e51b815260206004820152601b60248201527f536166654d6174683a206164646974696f6e206f766572666c6f770000000000604482015290519081900360640190fd5b336000908152608160205260409020546123249060ff16601461241d565b565b60006107e7670de0b6b3a764000061233e8585612737565b906128e5565b606b54606654604080517f70a08231000000000000000000000000000000000000000000000000000000008152306004820152905160009384936123e79391926001600160a01b03909116916370a08231916024808301926020929190829003018186803b1580156123b557600080fd5b505afa1580156123c9573d6000803e3d6000fd5b505050506040513d60208110156123df57600080fd5b505190612645565b905060835481116123f9576000612407565b608354612407908290612645565b91505090565b8082018281101561075a57600080fd5b8161098f5761098f8161294c565b604080516001600160a01b038416602482015260448082018490528251808303909101815260649091019091526020810180517bffffffffffffffffffffffffffffffffffffffffffffffffffffffff167fa9059cbb000000000000000000000000000000000000000000000000000000001790526124ab90849061299f565b505050565b606754604080517f5b14f1830000000000000000000000000000000000000000000000000000000081523060048201529051612324926001600160a01b031691635b14f183916024808301926020929190829003018186803b15801561251557600080fd5b505afa158015612529573d6000803e3d6000fd5b505050506040513d602081101561253f57600080fd5b505115605361241d565b6001600160a01b03821661258e5760405162461bcd60e51b8152600401808060200182810382526021815260200180612fd96021913960400191505060405180910390fd5b61259a826000836124ab565b6125d781604051806060016040528060228152602001612f00602291396001600160a01b0385166000908152603360205260409020549190612215565b6001600160a01b0383166000908152603360205260409020556035546125fd9082612a50565b6035556040805182815290516000916001600160a01b038516917fddf252ad1be2c89b69c2b068fc378daa952ba7f163c4a11628f55a4df523b3ef9181900360200190a35050565b8082038281111561075a57600080fd5b600082820181831280159061266a5750838112155b8061267f575060008312801561267f57508381125b6107e75760405162461bcd60e51b8152600401808060200182810382526021815260200180612f6a6021913960400191505060405180910390fd5b60606000806126c98585612aad565b915091508061271f576040805162461bcd60e51b815260206004820152601560248201527f41646472657373206e6f7420696e2061727261792e0000000000000000000000604482015290519081900360640190fd5b600061272b8684612b13565b50935061075a92505050565b60008215806127525750508181028183828161274f57fe5b04145b61075a57600080fd5b806001600160a01b0316638da5cb5b6040518163ffffffff1660e01b815260040160206040518083038186803b15801561279457600080fd5b505afa1580156127a8573d6000803e3d6000fd5b505050506040513d60208110156127be57600080fd5b50516001600160a01b03163314806128425750806001600160a01b0316638d97e0436040518163ffffffff1660e01b815260040160206040518083038186803b15801561280a57600080fd5b505afa15801561281e573d6000803e3d6000fd5b505050506040513d602081101561283457600080fd5b50516001600160a01b031633145b61287d5760405162461bcd60e51b815260040180806020018281038252602a815260200180612ffa602a913960400191505060405180910390fd5b50565b60008183038183128015906128955750838113155b806128aa57506000831280156128aa57508381135b6107e75760405162461bcd60e51b815260040180806020018281038252602481526020018061306d6024913960400191505060405180910390fd5b600080821161293b576040805162461bcd60e51b815260206004820152601a60248201527f536166654d6174683a206469766973696f6e206279207a65726f000000000000604482015290519081900360640190fd5b81838161294457fe5b049392505050565b62461bcd60e51b6000908152602060045260076024526642414223000030600a808404818106603090810160081b95839006959095019082900491820690940160101b939093010160c81b604452606490fd5b60006129f4826040518060400160405280602081526020017f5361666545524332303a206c6f772d6c6576656c2063616c6c206661696c6564815250856001600160a01b0316612c779092919063ffffffff16565b8051909150156124ab57808060200190516020811015612a1357600080fd5b50516124ab5760405162461bcd60e51b815260040180806020018281038252602a815260200180613091602a913960400191505060405180910390fd5b600082821115612aa7576040805162461bcd60e51b815260206004820152601e60248201527f536166654d6174683a207375627472616374696f6e206f766572666c6f770000604482015290519081900360640190fd5b50900390565b81516000908190815b81811015612b0057846001600160a01b0316868281518110612ad457fe5b60200260200101516001600160a01b03161415612af857925060019150612b0c9050565b600101612ab6565b50600019600092509250505b9250929050565b8151606090600090808410612b6f576040805162461bcd60e51b815260206004820152601860248201527f496e646578206d757374206265203c2041206c656e6774680000000000000000604482015290519081900360640190fd5b60006001820367ffffffffffffffff81118015612b8b57600080fd5b50604051908082528060200260200182016040528015612bb5578160200160208202803683370190505b50905060005b85811015612c0357868181518110612bcf57fe5b6020026020010151828281518110612be357fe5b6001600160a01b0390921660209283029190910190910152600101612bbb565b50600185015b82811015612c5457868181518110612c1d57fe5b6020026020010151826001830381518110612c3457fe5b6001600160a01b0390921660209283029190910190910152600101612c09565b5080868681518110612c6257fe5b60200260200101519350935050509250929050565b6060612c868484600085612c8e565b949350505050565b606082471015612ccf5760405162461bcd60e51b8152600401808060200182810382526026815260200180612f8b6026913960400191505060405180910390fd5b612cd885612de9565b612d29576040805162461bcd60e51b815260206004820152601d60248201527f416464726573733a2063616c6c20746f206e6f6e2d636f6e7472616374000000604482015290519081900360640190fd5b600080866001600160a01b031685876040518082805190602001908083835b60208310612d675780518252601f199092019160209182019101612d48565b6001836020036101000a03801982511681845116808217855250505050505090500191505060006040518083038185875af1925050503d8060008114612dc9576040519150601f19603f3d011682016040523d82523d6000602084013e612dce565b606091505b5091509150612dde828286612def565b979650505050505050565b3b151590565b60608315612dfe5750816107e7565b825115612e0e5782518084602001fd5b60405162461bcd60e51b8152602060048201818152845160248401528451859391928392604401919085019080838360008315612269578181015183820152602001612251565b828054828255906000526020600020908101928215612eb7579160200282015b82811115612eb7578251825473ffffffffffffffffffffffffffffffffffffffff19166001600160a01b03909116178255602090920191600190910190612e75565b50612ec3929150612ec7565b5090565b5b80821115612ec35760008155600101612ec856fe45524332303a207472616e7366657220746f20746865207a65726f206164647265737345524332303a206275726e20616d6f756e7420657863656564732062616c616e636545524332303a20617070726f766520746f20746865207a65726f206164647265737345524332303a207472616e7366657220616d6f756e7420657863656564732062616c616e63655369676e6564536166654d6174683a206164646974696f6e206f766572666c6f77416464726573733a20696e73756666696369656e742062616c616e636520666f722063616c6c45524332303a207472616e7366657220616d6f756e74206578636565647320616c6c6f77616e636545524332303a206275726e2066726f6d20746865207a65726f20616464726573734f6e6c7920676f7665726e616e6365206f7220656d657267656e63792063616e2063616c6c207468697345524332303a207472616e736665722066726f6d20746865207a65726f206164647265737345524332303a20617070726f76652066726f6d20746865207a65726f20616464726573735369676e6564536166654d6174683a207375627472616374696f6e206f766572666c6f775361666545524332303a204552433230206f7065726174696f6e20646964206e6f74207375636365656445524332303a2064656372656173656420616c6c6f77616e63652062656c6f77207a65726fa2646970667358221220845639a1f9f8015605ec92e17dcc869347c2e11996de1844da718089b04913db64736f6c63430007060033",
  "devdoc": {
    "kind": "dev",
    "methods": {
      "addStrategy(string,string,uint256[],uint8[],address[],bytes)": {
        "params": {
          "_name": "Name of the strategy",
          "_opEncodedDatas": "Param for every operation in the strategy",
          "_opIntegrations": "Integration to use for every operation",
          "_opTypes": "Type for every operation in the strategy",
          "_stratParams": "Num params for the strategy",
          "_symbol": "Symbol of the strategy"
        }
      },
      "allocateCapitalToStrategy(uint256)": {
        "params": {
          "_capital": "Amount of capital to allocate to the strategy"
        }
      },
      "allowance(address,address)": {
        "details": "See {IERC20-allowance}."
      },
      "approve(address,uint256)": {
        "details": "See {IERC20-approve}. Requirements: - `spender` cannot be the zero address."
      },
      "balanceOf(address)": {
        "details": "See {IERC20-balanceOf}."
      },
      "decimals()": {
        "details": "Returns the number of decimals used to get its user representation. For example, if `decimals` equals `2`, a balance of `505` tokens should be displayed to a user as `5,05` (`505 / 10 ** 2`). Tokens usually opt for a value of 18, imitating the relationship between Ether and Wei. This is the value {ERC20} uses, unless {_setupDecimals} is called. NOTE: This information is only used for _display_ purposes: it in no way affects any of the arithmetic of the contract, including {IERC20-balanceOf} and {IERC20-transfer}."
      },
      "decreaseAllowance(address,uint256)": {
        "details": "Atomically decreases the allowance granted to `spender` by the caller. This is an alternative to {approve} that can be used as a mitigation for problems described in {IERC20-approve}. Emits an {Approval} event indicating the updated allowance. Requirements: - `spender` cannot be the zero address. - `spender` must have allowance for the caller of at least `subtractedValue`."
      },
      "finalizeStrategy(uint256,int256,uint256)": {
        "params": {
          "_burningAmount": "The amount of strategist stake to burn in case of                        strategy losses.",
          "_returns": "Profits or losses that the strategy received",
          "_rewards": "Amount of Reserve Asset to set aside forever"
        }
      },
      "increaseAllowance(address,uint256)": {
        "details": "Atomically increases the allowance granted to `spender` by the caller. This is an alternative to {approve} that can be used as a mitigation for problems described in {IERC20-approve}. Emits an {Approval} event indicating the updated allowance. Requirements: - `spender` cannot be the zero address."
      },
      "name()": {
        "details": "Returns the name of the token."
      },
      "payKeeper(address,uint256)": {
        "details": "We assume that calling keeper functions should be less expensive than 2000 DAI.",
        "params": {
          "_fee": "The fee paid to keeper to compensate the gas cost",
          "_keeper": "Keeper that executed the transaction"
        }
      },
      "symbol()": {
        "details": "Returns the symbol of the token, usually a shorter version of the name."
      },
      "totalSupply()": {
        "details": "See {IERC20-totalSupply}."
      },
      "transfer(address,uint256)": {
        "details": "See {IERC20-transfer}. Requirements: - `recipient` cannot be the zero address. - the caller must have a balance of at least `amount`."
      },
      "transferFrom(address,address,uint256)": {
        "details": "See {IERC20-transferFrom}. Emits an {Approval} event indicating the updated allowance. This is not required by the EIP. See the note at the beginning of {ERC20}. Requirements: - `sender` and `recipient` cannot be the zero address. - `sender` must have a balance of at least `amount`. - the caller must have allowance for ``sender``'s tokens of at least `amount`."
      },
      "updateStrategyRewards(address,uint256,uint256)": {
        "params": {
          "_newTotalAmount": "The new BABL rewards",
          "_strategy": "Address of the strategy to patch"
        }
      }
    },
    "title": "StrategyGardenModule Strategy related functions of the Garden contract",
    "version": 1
  },
  "userdoc": {
    "kind": "user",
    "methods": {
      "addStrategy(string,string,uint256[],uint8[],address[],bytes)": {
        "notice": "Creates a new strategy calling the factory and adds it to the array"
      },
      "allocateCapitalToStrategy(uint256)": {
        "notice": "Allocates garden capital to an strategy"
      },
      "finalizeStrategy(uint256,int256,uint256)": {
        "notice": "When strategy ends puts saves returns, rewards and marks strategy as  finalized."
      },
      "payKeeper(address,uint256)": {
        "notice": "Pays gas costs back to the keeper from executing transactions   including the past debt"
      },
      "updateStrategyRewards(address,uint256,uint256)": {
        "notice": "PRIVILEGE FUNCTION to update Garden Strategy Rewards To be used by Governance or Emergency only."
      }
    },
    "version": 1
  },
  "storageLayout": {
    "storage": [
      {
        "astId": 492,
        "contract": "contracts/gardens/StrategyGardenModule.sol:StrategyGardenModule",
        "label": "_initialized",
        "offset": 0,
        "slot": "0",
        "type": "t_bool"
      },
      {
        "astId": 495,
        "contract": "contracts/gardens/StrategyGardenModule.sol:StrategyGardenModule",
        "label": "_initializing",
        "offset": 1,
        "slot": "0",
        "type": "t_bool"
      },
      {
        "astId": 1447,
        "contract": "contracts/gardens/StrategyGardenModule.sol:StrategyGardenModule",
        "label": "__gap",
        "offset": 0,
        "slot": "1",
        "type": "t_array(t_uint256)50_storage"
      },
      {
        "astId": 571,
        "contract": "contracts/gardens/StrategyGardenModule.sol:StrategyGardenModule",
        "label": "_balances",
        "offset": 0,
        "slot": "51",
        "type": "t_mapping(t_address,t_uint256)"
      },
      {
        "astId": 577,
        "contract": "contracts/gardens/StrategyGardenModule.sol:StrategyGardenModule",
        "label": "_allowances",
        "offset": 0,
        "slot": "52",
        "type": "t_mapping(t_address,t_mapping(t_address,t_uint256))"
      },
      {
        "astId": 579,
        "contract": "contracts/gardens/StrategyGardenModule.sol:StrategyGardenModule",
        "label": "_totalSupply",
        "offset": 0,
        "slot": "53",
        "type": "t_uint256"
      },
      {
        "astId": 581,
        "contract": "contracts/gardens/StrategyGardenModule.sol:StrategyGardenModule",
        "label": "_name",
        "offset": 0,
        "slot": "54",
        "type": "t_string_storage"
      },
      {
        "astId": 583,
        "contract": "contracts/gardens/StrategyGardenModule.sol:StrategyGardenModule",
        "label": "_symbol",
        "offset": 0,
        "slot": "55",
        "type": "t_string_storage"
      },
      {
        "astId": 585,
        "contract": "contracts/gardens/StrategyGardenModule.sol:StrategyGardenModule",
        "label": "_decimals",
        "offset": 0,
        "slot": "56",
        "type": "t_uint8"
      },
      {
        "astId": 1080,
        "contract": "contracts/gardens/StrategyGardenModule.sol:StrategyGardenModule",
        "label": "__gap",
        "offset": 0,
        "slot": "57",
        "type": "t_array(t_uint256)44_storage"
      },
      {
        "astId": 6418,
        "contract": "contracts/gardens/StrategyGardenModule.sol:StrategyGardenModule",
        "label": "_status",
        "offset": 0,
        "slot": "101",
        "type": "t_uint256"
      },
      {
        "astId": 22968,
        "contract": "contracts/gardens/StrategyGardenModule.sol:StrategyGardenModule",
        "label": "reserveAsset",
        "offset": 0,
        "slot": "102",
        "type": "t_address"
      },
      {
        "astId": 22970,
        "contract": "contracts/gardens/StrategyGardenModule.sol:StrategyGardenModule",
        "label": "controller",
        "offset": 0,
        "slot": "103",
        "type": "t_contract(IBabController)42544"
      },
      {
        "astId": 22972,
        "contract": "contracts/gardens/StrategyGardenModule.sol:StrategyGardenModule",
        "label": "rewardsDistributor",
        "offset": 0,
        "slot": "104",
        "type": "t_contract(IRewardsDistributor)44546"
      },
      {
        "astId": 22974,
        "contract": "contracts/gardens/StrategyGardenModule.sol:StrategyGardenModule",
        "label": "creator",
        "offset": 0,
        "slot": "105",
        "type": "t_address"
      },
      {
        "astId": 22976,
        "contract": "contracts/gardens/StrategyGardenModule.sol:StrategyGardenModule",
        "label": "active",
        "offset": 20,
        "slot": "105",
        "type": "t_bool"
      },
      {
        "astId": 22978,
        "contract": "contracts/gardens/StrategyGardenModule.sol:StrategyGardenModule",
        "label": "privateGarden",
        "offset": 21,
        "slot": "105",
        "type": "t_bool"
      },
      {
        "astId": 22980,
        "contract": "contracts/gardens/StrategyGardenModule.sol:StrategyGardenModule",
        "label": "principal",
        "offset": 0,
        "slot": "106",
        "type": "t_uint256"
      },
      {
        "astId": 22982,
        "contract": "contracts/gardens/StrategyGardenModule.sol:StrategyGardenModule",
        "label": "reserveAssetRewardsSetAside",
        "offset": 0,
        "slot": "107",
        "type": "t_uint256"
      },
      {
        "astId": 22984,
        "contract": "contracts/gardens/StrategyGardenModule.sol:StrategyGardenModule",
        "label": "reserveAssetPrincipalWindow",
        "offset": 0,
        "slot": "108",
        "type": "t_uint256"
      },
      {
        "astId": 22986,
        "contract": "contracts/gardens/StrategyGardenModule.sol:StrategyGardenModule",
        "label": "absoluteReturns",
        "offset": 0,
        "slot": "109",
        "type": "t_int256"
      },
      {
        "astId": 22988,
        "contract": "contracts/gardens/StrategyGardenModule.sol:StrategyGardenModule",
        "label": "minLiquidityAsset",
        "offset": 0,
        "slot": "110",
        "type": "t_uint256"
      },
      {
        "astId": 22990,
        "contract": "contracts/gardens/StrategyGardenModule.sol:StrategyGardenModule",
        "label": "depositHardlock",
        "offset": 0,
        "slot": "111",
        "type": "t_uint256"
      },
      {
        "astId": 22992,
        "contract": "contracts/gardens/StrategyGardenModule.sol:StrategyGardenModule",
        "label": "withdrawalsOpenUntil",
        "offset": 0,
        "slot": "112",
        "type": "t_uint256"
      },
      {
        "astId": 22996,
        "contract": "contracts/gardens/StrategyGardenModule.sol:StrategyGardenModule",
        "label": "contributors",
        "offset": 0,
        "slot": "113",
        "type": "t_mapping(t_address,t_struct(Contributor)43357_storage)"
      },
      {
        "astId": 22998,
        "contract": "contracts/gardens/StrategyGardenModule.sol:StrategyGardenModule",
        "label": "totalContributors",
        "offset": 0,
        "slot": "114",
        "type": "t_uint256"
      },
      {
        "astId": 23000,
        "contract": "contracts/gardens/StrategyGardenModule.sol:StrategyGardenModule",
        "label": "maxContributors",
        "offset": 0,
        "slot": "115",
        "type": "t_uint256"
      },
      {
        "astId": 23002,
        "contract": "contracts/gardens/StrategyGardenModule.sol:StrategyGardenModule",
        "label": "maxDepositLimit",
        "offset": 0,
        "slot": "116",
        "type": "t_uint256"
      },
      {
        "astId": 23004,
        "contract": "contracts/gardens/StrategyGardenModule.sol:StrategyGardenModule",
        "label": "gardenInitializedAt",
        "offset": 0,
        "slot": "117",
        "type": "t_uint256"
      },
      {
        "astId": 23006,
        "contract": "contracts/gardens/StrategyGardenModule.sol:StrategyGardenModule",
        "label": "pid",
        "offset": 0,
        "slot": "118",
        "type": "t_uint256"
      },
      {
        "astId": 23008,
        "contract": "contracts/gardens/StrategyGardenModule.sol:StrategyGardenModule",
        "label": "minContribution",
        "offset": 0,
        "slot": "119",
        "type": "t_uint256"
      },
      {
        "astId": 23010,
        "contract": "contracts/gardens/StrategyGardenModule.sol:StrategyGardenModule",
        "label": "minGardenTokenSupply",
        "offset": 0,
        "slot": "120",
        "type": "t_uint256"
      },
      {
        "astId": 23012,
        "contract": "contracts/gardens/StrategyGardenModule.sol:StrategyGardenModule",
        "label": "totalStake",
        "offset": 0,
        "slot": "121",
        "type": "t_uint256"
      },
      {
        "astId": 23014,
        "contract": "contracts/gardens/StrategyGardenModule.sol:StrategyGardenModule",
        "label": "minVotesQuorum",
        "offset": 0,
        "slot": "122",
        "type": "t_uint256"
      },
      {
        "astId": 23016,
        "contract": "contracts/gardens/StrategyGardenModule.sol:StrategyGardenModule",
        "label": "minVoters",
        "offset": 0,
        "slot": "123",
        "type": "t_uint256"
      },
      {
        "astId": 23018,
        "contract": "contracts/gardens/StrategyGardenModule.sol:StrategyGardenModule",
        "label": "minStrategyDuration",
        "offset": 0,
        "slot": "124",
        "type": "t_uint256"
      },
      {
        "astId": 23020,
        "contract": "contracts/gardens/StrategyGardenModule.sol:StrategyGardenModule",
        "label": "maxStrategyDuration",
        "offset": 0,
        "slot": "125",
        "type": "t_uint256"
      },
      {
        "astId": 23022,
        "contract": "contracts/gardens/StrategyGardenModule.sol:StrategyGardenModule",
        "label": "strategyCooldownPeriod",
        "offset": 0,
        "slot": "126",
        "type": "t_uint256"
      },
      {
        "astId": 23025,
        "contract": "contracts/gardens/StrategyGardenModule.sol:StrategyGardenModule",
        "label": "strategies",
        "offset": 0,
        "slot": "127",
        "type": "t_array(t_address)dyn_storage"
      },
      {
        "astId": 23028,
        "contract": "contracts/gardens/StrategyGardenModule.sol:StrategyGardenModule",
        "label": "finalizedStrategies",
        "offset": 0,
        "slot": "128",
        "type": "t_array(t_address)dyn_storage"
      },
      {
        "astId": 23032,
        "contract": "contracts/gardens/StrategyGardenModule.sol:StrategyGardenModule",
        "label": "strategyMapping",
        "offset": 0,
        "slot": "129",
        "type": "t_mapping(t_address,t_bool)"
      },
      {
        "astId": 23036,
        "contract": "contracts/gardens/StrategyGardenModule.sol:StrategyGardenModule",
        "label": "isGardenStrategy",
        "offset": 0,
        "slot": "130",
        "type": "t_mapping(t_address,t_bool)"
      },
      {
        "astId": 23038,
        "contract": "contracts/gardens/StrategyGardenModule.sol:StrategyGardenModule",
        "label": "keeperDebt",
        "offset": 0,
        "slot": "131",
        "type": "t_uint256"
      },
      {
        "astId": 23040,
        "contract": "contracts/gardens/StrategyGardenModule.sol:StrategyGardenModule",
        "label": "totalKeeperFees",
        "offset": 0,
        "slot": "132",
        "type": "t_uint256"
      },
      {
        "astId": 23042,
        "contract": "contracts/gardens/StrategyGardenModule.sol:StrategyGardenModule",
        "label": "publicStrategists",
        "offset": 0,
        "slot": "133",
        "type": "t_bool"
      },
      {
        "astId": 23044,
        "contract": "contracts/gardens/StrategyGardenModule.sol:StrategyGardenModule",
        "label": "publicStewards",
        "offset": 1,
        "slot": "133",
        "type": "t_bool"
      },
      {
        "astId": 23048,
        "contract": "contracts/gardens/StrategyGardenModule.sol:StrategyGardenModule",
        "label": "extraCreators",
        "offset": 0,
        "slot": "134",
        "type": "t_array(t_address)4_storage"
      },
      {
        "astId": 23050,
        "contract": "contracts/gardens/StrategyGardenModule.sol:StrategyGardenModule",
        "label": "lastPricePerShare",
        "offset": 0,
        "slot": "138",
        "type": "t_uint256"
      },
      {
        "astId": 23052,
        "contract": "contracts/gardens/StrategyGardenModule.sol:StrategyGardenModule",
        "label": "lastPricePerShareTS",
        "offset": 0,
        "slot": "139",
        "type": "t_uint256"
      },
      {
        "astId": 23054,
        "contract": "contracts/gardens/StrategyGardenModule.sol:StrategyGardenModule",
        "label": "pricePerShareDecayRate",
        "offset": 0,
        "slot": "140",
        "type": "t_uint256"
      },
      {
        "astId": 23056,
        "contract": "contracts/gardens/StrategyGardenModule.sol:StrategyGardenModule",
        "label": "pricePerShareDelta",
        "offset": 0,
        "slot": "141",
        "type": "t_uint256"
      },
      {
        "astId": 23058,
        "contract": "contracts/gardens/StrategyGardenModule.sol:StrategyGardenModule",
        "label": "verifiedCategory",
        "offset": 0,
        "slot": "142",
        "type": "t_uint256"
      },
      {
        "astId": 23060,
        "contract": "contracts/gardens/StrategyGardenModule.sol:StrategyGardenModule",
        "label": "hardlockStartsAt",
        "offset": 0,
        "slot": "143",
        "type": "t_uint256"
      },
      {
        "astId": 23062,
        "contract": "contracts/gardens/StrategyGardenModule.sol:StrategyGardenModule",
        "label": "signer",
        "offset": 0,
        "slot": "144",
        "type": "t_address"
      },
      {
        "astId": 23064,
        "contract": "contracts/gardens/StrategyGardenModule.sol:StrategyGardenModule",
        "label": "canMintNftAfter",
        "offset": 0,
        "slot": "145",
        "type": "t_uint256"
      }
    ],
    "types": {
      "t_address": {
        "encoding": "inplace",
        "label": "address",
        "numberOfBytes": "20"
      },
      "t_array(t_address)4_storage": {
        "base": "t_address",
        "encoding": "inplace",
        "label": "address[4]",
        "numberOfBytes": "128"
      },
      "t_array(t_address)dyn_storage": {
        "base": "t_address",
        "encoding": "dynamic_array",
        "label": "address[]",
        "numberOfBytes": "32"
      },
      "t_array(t_uint256)44_storage": {
        "base": "t_uint256",
        "encoding": "inplace",
        "label": "uint256[44]",
        "numberOfBytes": "1408"
      },
      "t_array(t_uint256)50_storage": {
        "base": "t_uint256",
        "encoding": "inplace",
        "label": "uint256[50]",
        "numberOfBytes": "1600"
      },
      "t_bool": {
        "encoding": "inplace",
        "label": "bool",
        "numberOfBytes": "1"
      },
      "t_contract(IBabController)42544": {
        "encoding": "inplace",
        "label": "contract IBabController",
        "numberOfBytes": "20"
      },
      "t_contract(IRewardsDistributor)44546": {
        "encoding": "inplace",
        "label": "contract IRewardsDistributor",
        "numberOfBytes": "20"
      },
      "t_int256": {
        "encoding": "inplace",
        "label": "int256",
        "numberOfBytes": "32"
      },
      "t_mapping(t_address,t_bool)": {
        "encoding": "mapping",
        "key": "t_address",
        "label": "mapping(address => bool)",
        "numberOfBytes": "32",
        "value": "t_bool"
      },
      "t_mapping(t_address,t_mapping(t_address,t_uint256))": {
        "encoding": "mapping",
        "key": "t_address",
        "label": "mapping(address => mapping(address => uint256))",
        "numberOfBytes": "32",
        "value": "t_mapping(t_address,t_uint256)"
      },
      "t_mapping(t_address,t_struct(Contributor)43357_storage)": {
        "encoding": "mapping",
        "key": "t_address",
        "label": "mapping(address => struct IGarden.Contributor)",
        "numberOfBytes": "32",
        "value": "t_struct(Contributor)43357_storage"
      },
      "t_mapping(t_address,t_uint256)": {
        "encoding": "mapping",
        "key": "t_address",
        "label": "mapping(address => uint256)",
        "numberOfBytes": "32",
        "value": "t_uint256"
      },
      "t_string_storage": {
        "encoding": "bytes",
        "label": "string",
        "numberOfBytes": "32"
      },
      "t_struct(Contributor)43357_storage": {
        "encoding": "inplace",
        "label": "struct IGarden.Contributor",
        "members": [
          {
            "astId": 43340,
            "contract": "contracts/gardens/StrategyGardenModule.sol:StrategyGardenModule",
            "label": "lastDepositAt",
            "offset": 0,
            "slot": "0",
            "type": "t_uint256"
          },
          {
            "astId": 43342,
            "contract": "contracts/gardens/StrategyGardenModule.sol:StrategyGardenModule",
            "label": "initialDepositAt",
            "offset": 0,
            "slot": "1",
            "type": "t_uint256"
          },
          {
            "astId": 43344,
            "contract": "contracts/gardens/StrategyGardenModule.sol:StrategyGardenModule",
            "label": "claimedAt",
            "offset": 0,
            "slot": "2",
            "type": "t_uint256"
          },
          {
            "astId": 43346,
            "contract": "contracts/gardens/StrategyGardenModule.sol:StrategyGardenModule",
            "label": "claimedBABL",
            "offset": 0,
            "slot": "3",
            "type": "t_uint256"
          },
          {
            "astId": 43348,
            "contract": "contracts/gardens/StrategyGardenModule.sol:StrategyGardenModule",
            "label": "claimedRewards",
            "offset": 0,
            "slot": "4",
            "type": "t_uint256"
          },
          {
            "astId": 43350,
            "contract": "contracts/gardens/StrategyGardenModule.sol:StrategyGardenModule",
            "label": "withdrawnSince",
            "offset": 0,
            "slot": "5",
            "type": "t_uint256"
          },
          {
            "astId": 43352,
            "contract": "contracts/gardens/StrategyGardenModule.sol:StrategyGardenModule",
            "label": "totalDeposits",
            "offset": 0,
            "slot": "6",
            "type": "t_uint256"
          },
          {
            "astId": 43354,
            "contract": "contracts/gardens/StrategyGardenModule.sol:StrategyGardenModule",
            "label": "nonce",
            "offset": 0,
            "slot": "7",
            "type": "t_uint256"
          },
          {
            "astId": 43356,
            "contract": "contracts/gardens/StrategyGardenModule.sol:StrategyGardenModule",
            "label": "lockedBalance",
            "offset": 0,
            "slot": "8",
            "type": "t_uint256"
          }
        ],
        "numberOfBytes": "288"
      },
      "t_uint256": {
        "encoding": "inplace",
        "label": "uint256",
        "numberOfBytes": "32"
      },
      "t_uint8": {
        "encoding": "inplace",
        "label": "uint8",
        "numberOfBytes": "1"
      }
    }
  }
}