{
  "address": "0x95A2d35d367b63B5acF26a6e27E18e5F430BB32b",
  "abi": [
    {
      "anonymous": false,
      "inputs": [
        {
          "indexed": true,
          "internalType": "address",
          "name": "_target",
          "type": "address"
        },
        {
          "indexed": true,
          "internalType": "uint256",
          "name": "_value",
          "type": "uint256"
        },
        {
          "indexed": false,
          "internalType": "bytes",
          "name": "_data",
          "type": "bytes"
        },
        {
          "indexed": false,
          "internalType": "bytes",
          "name": "_returnValue",
          "type": "bytes"
        }
      ],
      "name": "Invoked",
      "type": "event"
    },
    {
      "anonymous": false,
      "inputs": [
        {
          "indexed": true,
          "internalType": "address",
          "name": "_garden",
          "type": "address"
        },
        {
          "indexed": false,
          "internalType": "uint256",
          "name": "_timestamp",
          "type": "uint256"
        }
      ],
      "name": "StrategyDeleted",
      "type": "event"
    },
    {
      "anonymous": false,
      "inputs": [
        {
          "indexed": false,
          "internalType": "uint256",
          "name": "_newDuration",
          "type": "uint256"
        },
        {
          "indexed": false,
          "internalType": "uint256",
          "name": "_oldDuration",
          "type": "uint256"
        }
      ],
      "name": "StrategyDurationChanged",
      "type": "event"
    },
    {
      "anonymous": false,
      "inputs": [
        {
          "indexed": true,
          "internalType": "address",
          "name": "_garden",
          "type": "address"
        },
        {
          "indexed": false,
          "internalType": "uint256",
          "name": "_capital",
          "type": "uint256"
        },
        {
          "indexed": false,
          "internalType": "uint256",
          "name": "_fee",
          "type": "uint256"
        },
        {
          "indexed": false,
          "internalType": "uint256",
          "name": "timestamp",
          "type": "uint256"
        }
      ],
      "name": "StrategyExecuted",
      "type": "event"
    },
    {
      "anonymous": false,
      "inputs": [
        {
          "indexed": true,
          "internalType": "address",
          "name": "_garden",
          "type": "address"
        },
        {
          "indexed": false,
          "internalType": "uint256",
          "name": "_timestamp",
          "type": "uint256"
        }
      ],
      "name": "StrategyExpired",
      "type": "event"
    },
    {
      "anonymous": false,
      "inputs": [
        {
          "indexed": true,
          "internalType": "address",
          "name": "_garden",
          "type": "address"
        },
        {
          "indexed": false,
          "internalType": "uint256",
          "name": "_capitalReturned",
          "type": "uint256"
        },
        {
          "indexed": false,
          "internalType": "uint256",
          "name": "_fee",
          "type": "uint256"
        },
        {
          "indexed": false,
          "internalType": "uint256",
          "name": "timestamp",
          "type": "uint256"
        }
      ],
      "name": "StrategyFinalized",
      "type": "event"
    },
    {
      "anonymous": false,
      "inputs": [
        {
          "indexed": true,
          "internalType": "address",
          "name": "_garden",
          "type": "address"
        },
        {
          "indexed": false,
          "internalType": "uint256",
          "name": "_amountReduced",
          "type": "uint256"
        },
        {
          "indexed": false,
          "internalType": "uint256",
          "name": "timestamp",
          "type": "uint256"
        }
      ],
      "name": "StrategyReduced",
      "type": "event"
    },
    {
      "anonymous": false,
      "inputs": [
        {
          "indexed": true,
          "internalType": "address",
          "name": "_garden",
          "type": "address"
        },
        {
          "indexed": false,
          "internalType": "uint256",
          "name": "totalPositiveVotes",
          "type": "uint256"
        },
        {
          "indexed": false,
          "internalType": "uint256",
          "name": "totalNegativeVotes",
          "type": "uint256"
        },
        {
          "indexed": false,
          "internalType": "uint256",
          "name": "_timestamp",
          "type": "uint256"
        }
      ],
      "name": "StrategyVoted",
      "type": "event"
    },
    {
      "inputs": [],
      "name": "capitalAllocated",
      "outputs": [
        {
          "internalType": "uint256",
          "name": "",
          "type": "uint256"
        }
      ],
      "stateMutability": "view",
      "type": "function"
    },
    {
      "inputs": [],
      "name": "capitalReturned",
      "outputs": [
        {
          "internalType": "uint256",
          "name": "",
          "type": "uint256"
        }
      ],
      "stateMutability": "view",
      "type": "function"
    },
    {
      "inputs": [],
      "name": "deleteCandidateStrategy",
      "outputs": [],
      "stateMutability": "nonpayable",
      "type": "function"
    },
    {
      "inputs": [],
      "name": "duration",
      "outputs": [
        {
          "internalType": "uint256",
          "name": "",
          "type": "uint256"
        }
      ],
      "stateMutability": "view",
      "type": "function"
    },
    {
      "inputs": [],
      "name": "enteredAt",
      "outputs": [
        {
          "internalType": "uint256",
          "name": "",
          "type": "uint256"
        }
      ],
      "stateMutability": "view",
      "type": "function"
    },
    {
      "inputs": [],
      "name": "enteredCooldownAt",
      "outputs": [
        {
          "internalType": "uint256",
          "name": "",
          "type": "uint256"
        }
      ],
      "stateMutability": "view",
      "type": "function"
    },
    {
      "inputs": [
        {
          "internalType": "uint256",
          "name": "_capital",
          "type": "uint256"
        },
        {
          "internalType": "uint256",
          "name": "_fee",
          "type": "uint256"
        }
      ],
      "name": "executeStrategy",
      "outputs": [],
      "stateMutability": "nonpayable",
      "type": "function"
    },
    {
      "inputs": [],
      "name": "expectedReturn",
      "outputs": [
        {
          "internalType": "uint256",
          "name": "",
          "type": "uint256"
        }
      ],
      "stateMutability": "view",
      "type": "function"
    },
    {
      "inputs": [
        {
          "internalType": "uint256",
          "name": "_fee",
          "type": "uint256"
        }
      ],
      "name": "expireStrategy",
      "outputs": [],
      "stateMutability": "nonpayable",
      "type": "function"
    },
    {
      "inputs": [
        {
          "internalType": "uint256",
          "name": "_fee",
          "type": "uint256"
        },
        {
          "internalType": "string",
          "name": "_tokenURI",
          "type": "string"
        }
      ],
      "name": "finalizeStrategy",
      "outputs": [],
      "stateMutability": "nonpayable",
      "type": "function"
    },
    {
      "inputs": [],
      "name": "garden",
      "outputs": [
        {
          "internalType": "contract IGarden",
          "name": "",
          "type": "address"
        }
      ],
      "stateMutability": "view",
      "type": "function"
    },
    {
      "inputs": [],
      "name": "getNAV",
      "outputs": [
        {
          "internalType": "uint256",
          "name": "",
          "type": "uint256"
        }
      ],
      "stateMutability": "view",
      "type": "function"
    },
    {
      "inputs": [
        {
          "internalType": "uint8",
          "name": "_index",
          "type": "uint8"
        }
      ],
      "name": "getOperationByIndex",
      "outputs": [
        {
          "internalType": "uint8",
          "name": "",
          "type": "uint8"
        },
        {
          "internalType": "address",
          "name": "",
          "type": "address"
        },
        {
          "internalType": "bytes",
          "name": "",
          "type": "bytes"
        }
      ],
      "stateMutability": "view",
      "type": "function"
    },
    {
      "inputs": [],
      "name": "getOperationsCount",
      "outputs": [
        {
          "internalType": "uint256",
          "name": "",
          "type": "uint256"
        }
      ],
      "stateMutability": "view",
      "type": "function"
    },
    {
      "inputs": [],
      "name": "getStrategyDetails",
      "outputs": [
        {
          "internalType": "address",
          "name": "",
          "type": "address"
        },
        {
          "internalType": "address",
          "name": "",
          "type": "address"
        },
        {
          "internalType": "uint256",
          "name": "",
          "type": "uint256"
        },
        {
          "internalType": "uint256",
          "name": "",
          "type": "uint256"
        },
        {
          "internalType": "uint256",
          "name": "",
          "type": "uint256"
        },
        {
          "internalType": "uint256",
          "name": "",
          "type": "uint256"
        },
        {
          "internalType": "uint256",
          "name": "",
          "type": "uint256"
        },
        {
          "internalType": "uint256",
          "name": "",
          "type": "uint256"
        },
        {
          "internalType": "uint256",
          "name": "",
          "type": "uint256"
        },
        {
          "internalType": "uint256",
          "name": "",
          "type": "uint256"
        },
        {
          "internalType": "uint256",
          "name": "",
          "type": "uint256"
        },
        {
          "internalType": "address",
          "name": "",
          "type": "address"
        },
        {
          "internalType": "uint256",
          "name": "",
          "type": "uint256"
        },
        {
          "internalType": "uint256",
          "name": "",
          "type": "uint256"
        }
      ],
      "stateMutability": "view",
      "type": "function"
    },
    {
      "inputs": [],
      "name": "getStrategyRewardsContext",
      "outputs": [
        {
          "internalType": "address",
          "name": "",
          "type": "address"
        },
        {
          "internalType": "uint256[]",
          "name": "",
          "type": "uint256[]"
        },
        {
          "internalType": "bool[]",
          "name": "",
          "type": "bool[]"
        }
      ],
      "stateMutability": "view",
      "type": "function"
    },
    {
      "inputs": [],
      "name": "getStrategyState",
      "outputs": [
        {
          "internalType": "address",
          "name": "",
          "type": "address"
        },
        {
          "internalType": "bool",
          "name": "",
          "type": "bool"
        },
        {
          "internalType": "bool",
          "name": "",
          "type": "bool"
        },
        {
          "internalType": "bool",
          "name": "",
          "type": "bool"
        },
        {
          "internalType": "uint256",
          "name": "",
          "type": "uint256"
        },
        {
          "internalType": "uint256",
          "name": "",
          "type": "uint256"
        },
        {
          "internalType": "uint256",
          "name": "",
          "type": "uint256"
        }
      ],
      "stateMutability": "view",
      "type": "function"
    },
    {
      "inputs": [
        {
          "internalType": "address",
          "name": "_address",
          "type": "address"
        }
      ],
      "name": "getUserVotes",
      "outputs": [
        {
          "internalType": "int256",
          "name": "",
          "type": "int256"
        }
      ],
      "stateMutability": "view",
      "type": "function"
    },
    {
      "inputs": [
        {
          "internalType": "bool",
          "name": "_isDeposit",
          "type": "bool"
        },
        {
          "internalType": "uint256",
          "name": "_wethAmount",
          "type": "uint256"
        }
      ],
      "name": "handleWeth",
      "outputs": [],
      "stateMutability": "nonpayable",
      "type": "function"
    },
    {
      "inputs": [
        {
          "internalType": "address",
          "name": "_strategist",
          "type": "address"
        },
        {
          "internalType": "address",
          "name": "_garden",
          "type": "address"
        },
        {
          "internalType": "address",
          "name": "_controller",
          "type": "address"
        },
        {
          "internalType": "uint256",
          "name": "_maxCapitalRequested",
          "type": "uint256"
        },
        {
          "internalType": "uint256",
          "name": "_stake",
          "type": "uint256"
        },
        {
          "internalType": "uint256",
          "name": "_strategyDuration",
          "type": "uint256"
        },
        {
          "internalType": "uint256",
          "name": "_expectedReturn",
          "type": "uint256"
        },
        {
          "internalType": "uint256",
          "name": "_maxAllocationPercentage",
          "type": "uint256"
        },
        {
          "internalType": "uint256",
          "name": "_maxGasFeePercentage",
          "type": "uint256"
        },
        {
          "internalType": "uint256",
          "name": "_maxTradeSlippagePercentage",
          "type": "uint256"
        }
      ],
      "name": "initialize",
      "outputs": [],
      "stateMutability": "nonpayable",
      "type": "function"
    },
    {
      "inputs": [
        {
          "internalType": "address",
          "name": "_spender",
          "type": "address"
        },
        {
          "internalType": "address",
          "name": "_asset",
          "type": "address"
        },
        {
          "internalType": "uint256",
          "name": "_quantity",
          "type": "uint256"
        }
      ],
      "name": "invokeApprove",
      "outputs": [],
      "stateMutability": "nonpayable",
      "type": "function"
    },
    {
      "inputs": [
        {
          "internalType": "address",
          "name": "_target",
          "type": "address"
        },
        {
          "internalType": "uint256",
          "name": "_value",
          "type": "uint256"
        },
        {
          "internalType": "bytes",
          "name": "_data",
          "type": "bytes"
        }
      ],
      "name": "invokeFromIntegration",
      "outputs": [
        {
          "internalType": "bytes",
          "name": "",
          "type": "bytes"
        }
      ],
      "stateMutability": "nonpayable",
      "type": "function"
    },
    {
      "inputs": [],
      "name": "isStrategyActive",
      "outputs": [
        {
          "internalType": "bool",
          "name": "",
          "type": "bool"
        }
      ],
      "stateMutability": "view",
      "type": "function"
    },
    {
      "inputs": [],
      "name": "maxAllocationPercentage",
      "outputs": [
        {
          "internalType": "uint256",
          "name": "",
          "type": "uint256"
        }
      ],
      "stateMutability": "view",
      "type": "function"
    },
    {
      "inputs": [],
      "name": "maxCapitalRequested",
      "outputs": [
        {
          "internalType": "uint256",
          "name": "",
          "type": "uint256"
        }
      ],
      "stateMutability": "view",
      "type": "function"
    },
    {
      "inputs": [],
      "name": "maxGasFeePercentage",
      "outputs": [
        {
          "internalType": "uint256",
          "name": "",
          "type": "uint256"
        }
      ],
      "stateMutability": "view",
      "type": "function"
    },
    {
      "inputs": [],
      "name": "maxTradeSlippagePercentage",
      "outputs": [
        {
          "internalType": "uint256",
          "name": "",
          "type": "uint256"
        }
      ],
      "stateMutability": "view",
      "type": "function"
    },
    {
      "inputs": [],
      "name": "opEncodedData",
      "outputs": [
        {
          "internalType": "bytes",
          "name": "",
          "type": "bytes"
        }
      ],
      "stateMutability": "view",
      "type": "function"
    },
    {
      "inputs": [
        {
          "internalType": "address[]",
          "name": "_voters",
          "type": "address[]"
        },
        {
          "internalType": "int256[]",
          "name": "_votes",
          "type": "int256[]"
        },
        {
          "internalType": "uint256",
          "name": "_fee",
          "type": "uint256"
        }
      ],
      "name": "resolveVoting",
      "outputs": [],
      "stateMutability": "nonpayable",
      "type": "function"
    },
    {
      "inputs": [
        {
          "internalType": "uint8[]",
          "name": "_opTypes",
          "type": "uint8[]"
        },
        {
          "internalType": "address[]",
          "name": "_opIntegrations",
          "type": "address[]"
        },
        {
          "internalType": "bytes",
          "name": "_opEncodedData",
          "type": "bytes"
        }
      ],
      "name": "setData",
      "outputs": [],
      "stateMutability": "nonpayable",
      "type": "function"
    },
    {
      "inputs": [],
      "name": "stake",
      "outputs": [
        {
          "internalType": "uint256",
          "name": "",
          "type": "uint256"
        }
      ],
      "stateMutability": "view",
      "type": "function"
    },
    {
      "inputs": [],
      "name": "strategist",
      "outputs": [
        {
          "internalType": "address",
          "name": "",
          "type": "address"
        }
      ],
      "stateMutability": "view",
      "type": "function"
    },
    {
      "inputs": [],
      "name": "strategyRewards",
      "outputs": [
        {
          "internalType": "uint256",
          "name": "",
          "type": "uint256"
        }
      ],
      "stateMutability": "view",
      "type": "function"
    },
    {
      "inputs": [
        {
          "internalType": "address",
          "name": "_token",
          "type": "address"
        }
      ],
      "name": "sweep",
      "outputs": [],
      "stateMutability": "nonpayable",
      "type": "function"
    },
    {
      "inputs": [],
      "name": "totalNegativeVotes",
      "outputs": [
        {
          "internalType": "uint256",
          "name": "",
          "type": "uint256"
        }
      ],
      "stateMutability": "view",
      "type": "function"
    },
    {
      "inputs": [],
      "name": "totalPositiveVotes",
      "outputs": [
        {
          "internalType": "uint256",
          "name": "",
          "type": "uint256"
        }
      ],
      "stateMutability": "view",
      "type": "function"
    },
    {
      "inputs": [
        {
          "internalType": "address",
          "name": "_sendToken",
          "type": "address"
        },
        {
          "internalType": "uint256",
          "name": "_sendQuantity",
          "type": "uint256"
        },
        {
          "internalType": "address",
          "name": "_receiveToken",
          "type": "address"
        }
      ],
      "name": "trade",
      "outputs": [
        {
          "internalType": "uint256",
          "name": "",
          "type": "uint256"
        }
      ],
      "stateMutability": "nonpayable",
      "type": "function"
    },
    {
      "inputs": [
        {
          "internalType": "uint256",
          "name": "_amountToUnwind",
          "type": "uint256"
        },
        {
          "internalType": "uint256",
          "name": "_strategyNAV",
          "type": "uint256"
        }
      ],
      "name": "unwindStrategy",
      "outputs": [],
      "stateMutability": "nonpayable",
      "type": "function"
    },
    {
      "inputs": [
        {
          "internalType": "uint256[4]",
          "name": "_params",
          "type": "uint256[4]"
        }
      ],
      "name": "updateParams",
      "outputs": [],
      "stateMutability": "nonpayable",
      "type": "function"
    },
    {
      "inputs": [
        {
          "internalType": "uint256",
          "name": "",
          "type": "uint256"
        }
      ],
      "name": "voters",
      "outputs": [
        {
          "internalType": "address",
          "name": "",
          "type": "address"
        }
      ],
      "stateMutability": "view",
      "type": "function"
    },
    {
      "stateMutability": "payable",
      "type": "receive"
    }
  ],
  "transactionHash": "0x5a5e8ee7a25afb50f5836a71bb31677df50ccff3ac4e4583992effab0f412ed1",
  "args": [],
  "solcInputHash": "32462f87dc3015c4eb8a86a01c781a25",
  "bytecode": "0x608060405234801561001057600080fd5b506001600055615c4680620000266000396000f3fe6080604052600436106102bf5760003560e01c80636db40dc21161016e578063d40244cb116100cb578063eb64ca411161007f578063f101e82b11610064578063f101e82b14610c8e578063fa9bacac14610cbe578063ffb5cd0914610cee576102c6565b8063eb64ca4114610b0e578063ecbc2cda14610b37576102c6565b8063da58c7d9116100b0578063da58c7d914610aa6578063dd1033f814610ad0578063e4df5e1a14610ae5576102c6565b8063d40244cb14610a21578063d45fc1a914610a36576102c6565b806397ccdc6011610122578063bf1dcfe211610107578063bf1dcfe2146109a0578063bf3fdf0d146109f7578063d3406abd14610a0c576102c6565b806397ccdc6014610948578063a30ca2041461098b576102c6565b8063707cddfe11610153578063707cddfe146108eb57806393baae4114610900578063950c782214610915576102c6565b80636db40dc2146108c15780636db9cc99146108d6576102c6565b80632aba2af41161021c5780634b2e52f0116101d0578063577b6ab8116101b5578063577b6ab8146106eb5780636b3b75ea146107005780636bc195dd146107ba576102c6565b80634b2e52f0146106c157806356ba88b8146106d6576102c6565b80633a4b66f1116102015780633a4b66f1146105d8578063449b9826146105ed57806348a4beaa14610602576102c6565b80632aba2af414610505578063397dc903146105c3576102c6565b80630fb5a6b4116102735780631a5cfcb7116102585780631a5cfcb7146103d35780631fe4a68614610405578063290d2e9114610436576102c6565b80630fb5a6b4146103945780631115bdcf146103a9576102c6565b806303976e38116102a457806303976e381461032757806303cddb2c1461033c5780630e32db5214610351576102c6565b80630126c606146102cb57806301681a62146102f2576102c6565b366102c657005b600080fd5b3480156102d757600080fd5b506102e0610d8f565b60408051918252519081900360200190f35b3480156102fe57600080fd5b506103256004803603602081101561031557600080fd5b50356001600160a01b03166111c7565b005b34801561033357600080fd5b506102e061149a565b34801561034857600080fd5b506102e06114a0565b34801561035d57600080fd5b506102e06004803603606081101561037457600080fd5b506001600160a01b038135811691602081013591604090910135166114a6565b3480156103a057600080fd5b506102e06114cd565b3480156103b557600080fd5b50610325600480360360208110156103cc57600080fd5b50356114d3565b3480156103df57600080fd5b50610325600480360360408110156103f657600080fd5b50803515159060200135611638565b34801561041157600080fd5b5061041a61164a565b604080516001600160a01b039092168252519081900360200190f35b34801561044257600080fd5b506103256004803603606081101561045957600080fd5b81019060208101813564010000000081111561047457600080fd5b82018360208201111561048657600080fd5b803590602001918460208302840111640100000000831117156104a857600080fd5b9193909290916020810190356401000000008111156104c657600080fd5b8201836020820111156104d857600080fd5b803590602001918460208302840111640100000000831117156104fa57600080fd5b919350915035611659565b34801561051157600080fd5b5061051a611937565b60405180846001600160a01b031681526020018060200180602001838103835285818151815260200191508051906020019060200280838360005b8381101561056d578181015183820152602001610555565b50505050905001838103825284818151815260200191508051906020019060200280838360005b838110156105ac578181015183820152602001610594565b505050509050019550505050505060405180910390f35b3480156105cf57600080fd5b506102e0611c22565b3480156105e457600080fd5b506102e0611c28565b3480156105f957600080fd5b506102e0611c2e565b34801561060e57600080fd5b5061062f6004803603602081101561062557600080fd5b503560ff16611c34565b604051808460ff168152602001836001600160a01b0316815260200180602001828103825283818151815260200191508051906020019080838360005b8381101561068457818101518382015260200161066c565b50505050905090810190601f1680156106b15780820380516001836020036101000a031916815260200191505b5094505050505060405180910390f35b3480156106cd57600080fd5b506102e0611ca7565b3480156106e257600080fd5b5061041a611cad565b3480156106f757600080fd5b50610325611cbc565b34801561070c57600080fd5b506103256004803603604081101561072357600080fd5b8135919081019060408101602082013564010000000081111561074557600080fd5b82018360208201111561075757600080fd5b8035906020019184600183028401116401000000008311171561077957600080fd5b91908080601f016020809104026020016040519081016040528093929190818152602001838380828437600092019190915250929550611d10945050505050565b3480156107c657600080fd5b5061084c600480360360608110156107dd57600080fd5b6001600160a01b038235169160208101359181019060608101604082013564010000000081111561080d57600080fd5b82018360208201111561081f57600080fd5b8035906020019184600183028401116401000000008311171561084157600080fd5b50909250905061222c565b6040805160208082528351818301528351919283929083019185019080838360005b8381101561088657818101518382015260200161086e565b50505050905090810190601f1680156108b35780820380516001836020036101000a031916815260200191505b509250505060405180910390f35b3480156108cd57600080fd5b506102e0612289565b3480156108e257600080fd5b506102e061228f565b3480156108f757600080fd5b506102e0612295565b34801561090c57600080fd5b506102e061229b565b34801561092157600080fd5b506102e06004803603602081101561093857600080fd5b50356001600160a01b03166122a1565b34801561095457600080fd5b506103256004803603606081101561096b57600080fd5b506001600160a01b038135811691602081013590911690604001356122bc565b34801561099757600080fd5b506102e06122fb565b3480156109ac57600080fd5b506109b5612301565b604080516001600160a01b0390981688529515156020880152931515868601529115156060860152608085015260a084015260c0830152519081900360e00190f35b348015610a0357600080fd5b5061084c61232b565b348015610a1857600080fd5b506102e06123b9565b348015610a2d57600080fd5b506102e06123bf565b348015610a4257600080fd5b506103256004803603610140811015610a5a57600080fd5b506001600160a01b03813581169160208101358216916040820135169060608101359060808101359060a08101359060c08101359060e0810135906101008101359061012001356123c5565b348015610ab257600080fd5b5061041a60048036036020811015610ac957600080fd5b50356126fe565b348015610adc57600080fd5b506102e0612728565b348015610af157600080fd5b50610afa61272e565b604080519115158252519081900360200190f35b348015610b1a57600080fd5b5061032560048036036080811015610b3157600080fd5b50612746565b348015610b4357600080fd5b5061032560048036036060811015610b5a57600080fd5b810190602081018135640100000000811115610b7557600080fd5b820183602082011115610b8757600080fd5b80359060200191846020830284011164010000000083111715610ba957600080fd5b919390929091602081019035640100000000811115610bc757600080fd5b820183602082011115610bd957600080fd5b80359060200191846020830284011164010000000083111715610bfb57600080fd5b919390929091602081019035640100000000811115610c1957600080fd5b820183602082011115610c2b57600080fd5b80359060200191846001830284011164010000000083111715610c4d57600080fd5b91908080601f0160208091040260200160405190810160405280939291908181526020018383808284376000920191909152509295506127da945050505050565b348015610c9a57600080fd5b5061032560048036036040811015610cb157600080fd5b5080359060200135612ada565b348015610cca57600080fd5b5061032560048036036040811015610ce157600080fd5b5080359060200135612b5b565b348015610cfa57600080fd5b50610d03612f75565b604051808f6001600160a01b031681526020018e6001600160a01b031681526020018d81526020018c81526020018b81526020018a8152602001898152602001888152602001878152602001868152602001858152602001846001600160a01b031681526020018381526020018281526020019e50505050505050505050505050505060405180910390f35b600080600080600560009054906101000a90046001600160a01b03166001600160a01b031663f85cb5c86040518163ffffffff1660e01b815260040160206040518083038186803b158015610de357600080fd5b505afa158015610df7573d6000803e3d6000fd5b505050506040513d6020811015610e0d57600080fd5b5051905060005b60025481101561103a57600154600280546000926201000090046001600160a01b03169163201041989185908110610e4857fe5b90600052602060002090602091828204019190069054906101000a900460ff1660ff166040518263ffffffff1660e01b81526004018082815260200191505060206040518083038186803b158015610e9f57600080fd5b505afa158015610eb3573d6000803e3d6000fd5b505050506040513d6020811015610ec957600080fd5b505190506001600160a01b03811663a24258ad610ee584613070565b600554600380546001600160a01b039092169187908110610f0257fe5b9060005260206000200160009054906101000a90046001600160a01b03166040518463ffffffff1660e01b81526004018080602001846001600160a01b03168152602001836001600160a01b03168152602001828103825285818151815260200191508051906020019080838360005b83811015610f8a578181015183820152602001610f72565b50505050905090810190601f168015610fb75780820380516001836020036101000a031916815260200191505b50945050505050604080518083038186803b158015610fd557600080fd5b505afa92505050801561100157506040513d6040811015610ff557600080fd5b50805160209091015160015b61100a57611031565b80156110215761101a8783613166565b965061102e565b61102b8683613166565b95505b50505b50600101610e14565b5060028054600019810191908290811061105057fe5b90600052602060002090602091828204019190069054906101000a900460ff1660ff166004141561119e5760045460009061112857601c8054604080516020601f6002600019610100600188161502019095169490940493840181900481028201810190925282815261112393909290918301828280156111125780601f106110e757610100808354040283529160200191611112565b820191906000526020600020905b8154815290600101906020018083116110f557829003601f168201915b505050505083604002600c01613176565b61114b565b6004828154811061113557fe5b6000918252602090912001546001600160a01b03165b905060006111626001600160a01b03831630613182565b9050801561119b5760006111768584613223565b90506111976111908261118a868987613342565b90613503565b8890613166565b9650505b50505b838311156111b35760009450505050506111c4565b6111bd8484613521565b9450505050505b90565b6111cf613531565b600554604080516370a0823160e01b815233600482015290516112e0926000926001600160a01b03909116916370a0823191602480820192602092909190829003018186803b15801561122157600080fd5b505afa158015611235573d6000803e3d6000fd5b505050506040513d602081101561124b57600080fd5b50511180156112d95750600154600554604080516313bc6d4b60e01b81526001600160a01b039283166004820152905162010000909304909116916313bc6d4b91602480820192602092909190829003018186803b1580156112ac57600080fd5b505afa1580156112c0573d6000803e3d6000fd5b505050506040513d60208110156112d657600080fd5b50515b600f61365e565b60055460408051631f0b96b960e31b81529051611368926001600160a01b03169163f85cb5c8916004808301926020929190829003018186803b15801561132657600080fd5b505afa15801561133a573d6000803e3d6000fd5b505050506040513d602081101561135057600080fd5b50516001600160a01b0383811691161415603661365e565b600f5461137f90610100900460ff1615603461365e565b6000816001600160a01b03166370a08231306040518263ffffffff1660e01b815260040180826001600160a01b0316815260200191505060206040518083038186803b1580156113ce57600080fd5b505afa1580156113e2573d6000803e3d6000fd5b505050506040513d60208110156113f857600080fd5b50519050611409811515600861365e565b61148d8282600560009054906101000a90046001600160a01b03166001600160a01b031663f85cb5c86040518163ffffffff1660e01b815260040160206040518083038186803b15801561145c57600080fd5b505afa158015611470573d6000803e3d6000fd5b505050506040513d602081101561148657600080fd5b505161366c565b506114966137f1565b5050565b60155481565b60135481565b60006114b061383a565b6114b8613531565b6114c384848461366c565b90505b9392505050565b60105481565b6002600054141561152b576040805162461bcd60e51b815260206004820152601f60248201527f5265656e7472616e637947756172643a207265656e7472616e742063616c6c00604482015290519081900360640190fd5b6002600055611538613531565b61154061392e565b600f5461155790610100900460ff1615603461365e565b61157b62093a806115736007544261352190919063ffffffff16565b11603761365e565b60055460408051634d5b1ba160e11b81523360048201526024810184905290516001600160a01b0390921691639ab637429160448082019260009290919082900301818387803b1580156115ce57600080fd5b505af11580156115e2573d6000803e3d6000fd5b505050506115ee6139cc565b6005546040805142815290516001600160a01b03909216917f7a7d4c833d273b66e431c5f268c42ee3e788541592e07c77f232cd28c89913169181900360200190a2506001600055565b61164061383a565b6114968282613a6a565b6006546001600160a01b031681565b611661613531565b61166961392e565b600554604080517f5a16656a00000000000000000000000000000000000000000000000000000000815290516116fe926001600160a01b031691635a16656a916004808301926020929190829003018186803b1580156116c857600080fd5b505afa1580156116dc573d6000803e3d6000fd5b505050506040513d60208110156116f257600080fd5b5051851015604061365e565b600f5461172490610100900460ff1615801561171d5750600f5460ff16155b602a61365e565b61174962093a806117406007544261352190919063ffffffff16565b1115602b61365e565b600f805461ff0019166101001790556000600d819055600e8190555b848110156118355783838281811061177957fe5b90506020020135601b600088888581811061179057fe5b905060200201356001600160a01b03166001600160a01b03166001600160a01b031681526020019081526020016000208190555060008484838181106117d257fe5b90506020020135131561180e576118066117fd8585848181106117f157fe5b90506020020135613b5b565b600d5490613166565b600d5561182d565b6118296118208585848181106117f157fe5b600e5490613166565b600e555b600101611765565b5061185a6000611852600e54600d5461352190919063ffffffff16565b11605761365e565b611866600c8686615953565b50426008819055600554600d54600e546040805192835260208301919091528181019390935291516001600160a01b03909116917f3e6879a258dfdc657938a76339643c34f8d9a80aa5673c95726c61bc57ee0573919081900360600190a260055460408051634d5b1ba160e11b81523360048201526024810184905290516001600160a01b0390921691639ab637429160448082019260009290919082900301818387803b15801561191857600080fd5b505af115801561192c573d6000803e3d6000fd5b505050505050505050565b60408051600c8082526101a08201909252600091606091829184919060208201610180803683375050604080516002808252606082018352939450600093909250906020830190803683370190505090506009548260008151811061199857fe5b602002602001018181525050600b54826001815181106119b457fe5b602002602001018181525050600a54826002815181106119d057fe5b602002602001018181525050600754826003815181106119ec57fe5b602002602001018181525050600d5482600481518110611a0857fe5b602002602001018181525050600e5482600581518110611a2457fe5b60200260200101818152505060135482600681518110611a4057fe5b60200260200101818152505060155482600781518110611a5c57fe5b602002602001018181525050611a8b611a82601454601354613b7290919063ffffffff16565b60135490613166565b82600881518110611a9857fe5b60200260200101818152505060195482600981518110611ab457fe5b6020026020010181815250506013546015541015611ad3576000611ad6565b60015b81600081518110611ae357fe5b60200260200101901515908115158152505081600881518110611b0257fe5b60200260200101516015541015611b1a576000611b1d565b60015b81600181518110611b2a57fe5b60200260200101901515908115158152505080600081518110611b4957fe5b6020026020010151611b5c576000611b6b565b601354601554611b6b91613521565b82600a81518110611b7857fe5b60200260200101818152505080600181518110611b9157fe5b6020026020010151611bcb57611bc660155483600881518110611bb057fe5b602002602001015161352190919063ffffffff16565b611bf4565b611bf482600881518110611bdb57fe5b602002602001015160155461352190919063ffffffff16565b82600b81518110611c0157fe5b60209081029190910101526006546001600160a01b03169591945092509050565b601f5481565b60115481565b600e5481565b600080606060028460ff1681548110611c4957fe5b90600052602060002090602091828204019190069054906101000a900460ff1660038560ff1681548110611c7957fe5b6000918252602090912001546001600160a01b0316611c9a60ff8716613070565b9250925092509193909250565b60205481565b6005546001600160a01b031681565b611cc4613b8a565b611ccc6139cc565b6005546040805142815290516001600160a01b03909216917f4dcd504f23c1c204f965486c526a1e35cfb215bb4823dd1be0a172277bb1b3459181900360200190a2565b60026000541415611d68576040805162461bcd60e51b815260206004820152601f60248201527f5265656e7472616e637947756172643a207265656e7472616e742063616c6c00604482015290519081900360640190fd5b6002600055611d75613531565b611d7d61392e565b611da66000600954118015611d9f5750601054600954611d9c91613166565b42115b603161365e565b600f54611db89060ff1615603261365e565b60055460408051631f0b96b960e31b815290516000926001600160a01b03169163f85cb5c8916004808301926020929190829003018186803b158015611dfd57600080fd5b505afa158015611e11573d6000803e3d6000fd5b505050506040513d6020811015611e2757600080fd5b5051604080516370a0823160e01b815230600482015290516001600160a01b03909216916370a0823191602480820192602092909190829003018186803b158015611e7157600080fd5b505afa158015611e85573d6000803e3d6000fd5b505050506040513d6020811015611e9b57600080fd5b50519050611eb0670de0b6b3a7640000613c2f565b611fa881600560009054906101000a90046001600160a01b03166001600160a01b031663f85cb5c86040518163ffffffff1660e01b815260040160206040518083038186803b158015611f0257600080fd5b505afa158015611f16573d6000803e3d6000fd5b505050506040513d6020811015611f2c57600080fd5b5051604080516370a0823160e01b815230600482015290516001600160a01b03909216916370a0823191602480820192602092909190829003018186803b158015611f7657600080fd5b505afa158015611f8a573d6000803e3d6000fd5b505050506040513d6020811015611fa057600080fd5b505190613521565b601555600f8054600160ff19909116811761ff00191690915542600b5554604080517fd6a45aa50000000000000000000000000000000000000000000000000000000081529051620100009092046001600160a01b03169163d6a45aa591600481810192602092909190829003018186803b15801561202657600080fd5b505afa15801561203a573d6000803e3d6000fd5b505050506040513d602081101561205057600080fd5b5051600654604080517f3b5bb1d50000000000000000000000000000000000000000000000000000000081526001600160a01b0392831660048201818152602483019384528751604484015287519490951694633b5bb1d594919388939192909160640190602085019080838360005b838110156120d85781810151838201526020016120c0565b50505050905090810190601f1680156121055780820380516001836020036101000a031916815260200191505b509350505050602060405180830381600087803b15801561212557600080fd5b505af1158015612139573d6000803e3d6000fd5b505050506040513d602081101561214f57600080fd5b505060055460408051634d5b1ba160e11b81523360048201526024810186905290516001600160a01b0390921691639ab637429160448082019260009290919082900301818387803b1580156121a457600080fd5b505af11580156121b8573d6000803e3d6000fd5b505050506121c461410f565b6121cc6137f1565b600b54600a5560055460155460408051918252602082018690524282820152516001600160a01b03909216917f2d21f7a1772dd51a6d96bd1cb40623cb13b73fd3d037618d9688707ce1b5b9569181900360600190a25050600160005550565b60606122373361467d565b61223f613531565b612280858585858080601f0160208091040260200160405190810160405280939291908181526020018383808284376000920191909152506147d892505050565b95945050505050565b60195481565b60075481565b601e5481565b60125481565b6001600160a01b03166000908152601b602052604090205490565b6122c53361467d565b6122cd613531565b6122e26001600160a01b038316846000614902565b6122f66001600160a01b0383168483614902565b505050565b60085481565b600f54600954600b54600a54309460ff610100860481169562010000810482169591169390929091565b601c805460408051602060026001851615610100026000190190941693909304601f810184900484028201840190925281815292918301828280156123b15780601f10612386576101008083540402835291602001916123b1565b820191906000526020600020905b81548152906001019060200180831161239457829003601f168201915b505050505081565b60145481565b600d5481565b600154610100900460ff16806123de57506123de614a5c565b806123ec575060015460ff16155b6124275760405162461bcd60e51b815260040180806020018281038252602e815260200180615b0e602e913960400191505060405180910390fd5b600154610100900460ff16158015612451576001805460ff1961ff00199091166101001716811790555b600180547fffffffffffffffffffff0000000000000000000000000000000000000000ffff16620100006001600160a01b038c811682029290921792839055600580546001600160a01b0319168e8416908117909155604080516313bc6d4b60e01b81526004810192909252516125229492909204909216916313bc6d4b916024808301926020929190829003018186803b1580156124ef57600080fd5b505afa158015612503573d6000803e3d6000fd5b505050506040513d602081101561251957600080fd5b5051602461365e565b600554604080516370a0823160e01b81526001600160a01b038e8116600483015291516125a79360009316916370a08231916024808301926020929190829003018186803b15801561257357600080fd5b505afa158015612587573d6000803e3d6000fd5b505050506040513d602081101561259d57600080fd5b505111602561365e565b6125b560008911602961365e565b60128890556125c4878c614a6d565b6125cd86614b6d565b6125d682614c8c565b6125df83614ca7565b6125e884614cc2565b600680546001600160a01b0319166001600160a01b038d81169190911790915542600755600154604080517f3f2a554000000000000000000000000000000000000000000000000000000000815290516201000090920490921691633f2a5540916004808301926020929190829003018186803b15801561266857600080fd5b505afa15801561267c573d6000803e3d6000fd5b505050506040513d602081101561269257600080fd5b5051601d80546001600160a01b0319166001600160a01b0390921691909117905560148590556126c187614cdd565b6001600160a01b038c166000908152601b6020526040902055600d87905580156126f1576001805461ff00191690555b5050505050505050505050565b600c818154811061270e57600080fd5b6000918252602090912001546001600160a01b0316905081565b60025490565b6000806009541180156127415750600b54155b905090565b61274e613b8a565b612756613531565b60105461276790823510603261365e565b6127718135614b6d565b61277e6020820135614ca7565b61278b6040820135614c8c565b6127986060820135614cc2565b6010546040805183358152602081019290925280517f42fb010605de46a36c4814784d207e3b8a1ce9f6773eaea652c07d2a07e95e579281900390910190a150565b600554612893906001600160a01b0316331480156128015750600f5462010000900460ff16155b801561288c5750600154600554604080516313bc6d4b60e01b81526001600160a01b039283166004820152905162010000909304909116916313bc6d4b91602480820192602092909190829003018186803b15801561285f57600080fd5b505afa158015612873573d6000803e3d6000fd5b505050506040513d602081101561288957600080fd5b50515b602261365e565b80516000906128a3906040614d3d565b90506128d56006821080156128b85750600082115b80156128c357508584145b80156128ce57508382145b604b61365e565b60005b85811015612a92576001546201000090046001600160a01b0316632010419888888481811061290357fe5b9050602002013560ff166040518263ffffffff1660e01b8152600401808260ff16815260200191505060206040518083038186803b15801561294457600080fd5b505afa158015612958573d6000803e3d6000fd5b505050506040513d602081101561296e57600080fd5b50516001600160a01b031663cdea20346129888584614da4565b6005546001600160a01b03168888868181106129a057fe5b905060200201356001600160a01b0316856040518563ffffffff1660e01b81526004018080602001856001600160a01b03168152602001846001600160a01b03168152602001838152602001828103825286818151815260200191508051906020019080838360005b83811015612a21578181015183820152602001612a09565b50505050905090810190601f168015612a4e5780820380516001836020036101000a031916815260200191505b509550505050505060006040518083038186803b158015612a6e57600080fd5b505afa158015612a82573d6000803e3d6000fd5b5050600190920191506128d89050565b50612a9f600287876159b2565b50612aac60038585615953565b508151612ac090601c906020850190615a56565b5050600f805462ff00001916620100001790555050505050565b60026000541415612b32576040805162461bcd60e51b815260206004820152601f60248201527f5265656e7472616e637947756172643a207265656e7472616e742063616c6c00604482015290519081900360640190fd5b6002600055612b3f613531565b612b4761392e565b612b52828233614db5565b50506001600055565b60026000541415612bb3576040805162461bcd60e51b815260206004820152601f60248201527f5265656e7472616e637947756172643a207265656e7472616e742063616c6c00604482015290519081900360640190fd5b6002600055600554612ce8906001600160a01b031633148015612c555750600154600554604080516313bc6d4b60e01b81526001600160a01b039283166004820152905162010000909304909116916313bc6d4b91602480820192602092909190829003018186803b158015612c2857600080fd5b505afa158015612c3c573d6000803e3d6000fd5b505050506040513d6020811015612c5257600080fd5b50515b80612ce15750600160029054906101000a90046001600160a01b03166001600160a01b0316638da5cb5b6040518163ffffffff1660e01b815260040160206040518083038186803b158015612ca957600080fd5b505afa158015612cbd573d6000803e3d6000fd5b505050506040513d6020811015612cd357600080fd5b50516001600160a01b031633145b601f61365e565b612cf0613531565b600f54612d1590610100900460ff168015612d0e5750600f5460ff16155b602c61365e565b612d22818310606461365e565b612d34612d2f8383613503565b613c2f565b601354612d419083613521565b601355601d5460408051636b8bd28360e11b81526004810185905260006024820181905291516001600160a01b039093169263d717a5069260448084019391929182900301818387803b158015612d9757600080fd5b505af1158015612dab573d6000803e3d6000fd5b505060055460408051631f0b96b960e31b81529051612f1b94506001600160a01b039092169250829163f85cb5c891600480820192602092909190829003018186803b158015612dfa57600080fd5b505afa158015612e0e573d6000803e3d6000fd5b505050506040513d6020811015612e2457600080fd5b5051604080516370a0823160e01b815230600482015290516001600160a01b03909216916370a0823191602480820192602092909190829003018186803b158015612e6e57600080fd5b505afa158015612e82573d6000803e3d6000fd5b505050506040513d6020811015612e9857600080fd5b505160055460408051631f0b96b960e31b815290516001600160a01b039092169163f85cb5c891600480820192602092909190829003018186803b158015612edf57600080fd5b505afa158015612ef3573d6000803e3d6000fd5b505050506040513d6020811015612f0957600080fd5b50516001600160a01b03169190615069565b42600a81905560055460408051858152602081019390935280516001600160a01b03909216927fcff91fcd7fff5d12ce9ee075980ad73fde31d99f583cb228a04ee0ef4f34ba6f929081900390910190a250506001600055565b60008060008060008060008060008060008060008030600660009054906101000a90046001600160a01b0316600380549050601154600d54600e54601354601554601054601454601254600160029054906101000a90046001600160a01b03166001600160a01b031663d6a45aa56040518163ffffffff1660e01b815260040160206040518083038186803b15801561300d57600080fd5b505afa158015613021573d6000803e3d6000fd5b505050506040513d602081101561303757600080fd5b5051600754613044610d8f565b9d509d509d509d509d509d509d509d509d509d509d509d509d509d50909192939495969798999a9b9c9d565b60045460609061311757601c8054604080516020601f6002600019610100600188161502019095169490940493840181900481028201810190925282815261311293909290918301828280156131075780601f106130dc57610100808354040283529160200191613107565b820191906000526020600020905b8154815290600101906020018083116130ea57829003601f168201915b505050505083614da4565b613160565b6004828154811061312457fe5b6000918252602080832090910154604080516001600160a01b039092169282019290925280820192909252805180830382018152606090920190525b92915050565b8082018281101561316057600080fd5b60006114c683836150e9565b600061318d8361515d565b156131a357506001600160a01b03811631613160565b826001600160a01b03166370a08231836040518263ffffffff1660e01b815260040180826001600160a01b0316815260200191505060206040518083038186803b1580156131f057600080fd5b505afa158015613204573d6000803e3d6000fd5b505050506040513d602081101561321a57600080fd5b50519050613160565b6000600160029054906101000a90046001600160a01b03166001600160a01b0316632630c12f6040518163ffffffff1660e01b815260040160206040518083038186803b15801561327357600080fd5b505afa158015613287573d6000803e3d6000fd5b505050506040513d602081101561329d57600080fd5b5051604080517fac41865a0000000000000000000000000000000000000000000000000000000081526001600160a01b03868116600483015285811660248301529151919092169163ac41865a916044808301926020929190829003018186803b15801561330a57600080fd5b505afa92505050801561332f57506040513d602081101561332a57600080fd5b505160015b61333b57506000613160565b9050613160565b60008061334e8561516a565b6133bc57846001600160a01b031663313ce5676040518163ffffffff1660e01b815260040160206040518083038186803b15801561338b57600080fd5b505afa15801561339f573d6000803e3d6000fd5b505050506040513d60208110156133b557600080fd5b50516133bf565b60125b60ff16905060006133cf8561516a565b61343d57846001600160a01b031663313ce5676040518163ffffffff1660e01b815260040160206040518083038186803b15801561340c57600080fd5b505afa158015613420573d6000803e3d6000fd5b505050506040513d602081101561343657600080fd5b5051613440565b60125b60ff16905060128211158015613457575060128111155b6134a8576040805162461bcd60e51b815260206004820152601460248201527f556e737570706f7274656420646563696d616c73000000000000000000000000604482015290519081900360640190fd5b808214156134ba5783925050506114c6565b818111156134e2576134d96134cf8284613521565b8590600a0a6151a0565b925050506114c6565b6134f96134ef8383613521565b8590600a0a614d3d565b9695505050505050565b60006114c68261351b85670de0b6b3a76400006151a0565b90614d3d565b8082038281111561316057600080fd5b600154604080517f5b14f183000000000000000000000000000000000000000000000000000000008152306004820152905161365c926201000090046001600160a01b031691635b14f183916024808301926020929190829003018186803b15801561359c57600080fd5b505afa1580156135b0573d6000803e3d6000fd5b505050506040513d60208110156135c657600080fd5b505115806136555750600160029054906101000a90046001600160a01b03166001600160a01b0316638da5cb5b6040518163ffffffff1660e01b815260040160206040518083038186803b15801561361d57600080fd5b505afa158015613631573d6000803e3d6000fd5b505050506040513d602081101561364757600080fd5b50516001600160a01b031633145b605361365e565b565b8161149657611496816151c4565b6000806136798584613223565b9050613688811515606261365e565b600061369e86856136998886613b72565b613342565b905060006136d26136cb602054600014156136c0576658d15e176280006136c4565b6020545b8490613b72565b8390613521565b9050600160029054906101000a90046001600160a01b03166001600160a01b031663e6e605136040518163ffffffff1660e01b815260040160206040518083038186803b15801561372257600080fd5b505afa158015613736573d6000803e3d6000fd5b505050506040513d602081101561374c57600080fd5b5051604080517ffa1ca8200000000000000000000000000000000000000000000000000000000081523060048201526001600160a01b038a81166024830152604482018a90528881166064830152608482018590529151919092169163fa1ca8209160a480830192600092919082900301818387803b1580156137ce57600080fd5b505af11580156137e2573d6000803e3d6000fd5b50929998505050505050505050565b60055460408051631f0b96b960e31b8152905161365c926001600160a01b031691829163f85cb5c891600480820192602092909190829003018186803b158015612dfa57600080fd5b6000805b60025460ff8216101561391f5781806139155750600160029054906101000a90046001600160a01b03166001600160a01b0316632010419860028360ff168154811061388657fe5b90600052602060002090602091828204019190069054906101000a900460ff166040518263ffffffff1660e01b8152600401808260ff16815260200191505060206040518083038186803b1580156138dd57600080fd5b505afa1580156138f1573d6000803e3d6000fd5b505050506040513d602081101561390757600080fd5b50516001600160a01b031633145b915060010161383e565b5061392b81604c61365e565b50565b600154604080517f411137c3000000000000000000000000000000000000000000000000000000008152336004820152905161365c926201000090046001600160a01b03169163411137c3916024808301926020929190829003018186803b15801561399957600080fd5b505afa1580156139ad573d6000803e3d6000fd5b505050506040513d60208110156139c357600080fd5b5051601261365e565b6139eb60095460001480156139e45750600f5460ff16155b603861365e565b600554604080517fb2644e6600000000000000000000000000000000000000000000000000000000815230600482015290516001600160a01b039092169163b2644e669160248082019260009290919082900301818387803b158015613a5057600080fd5b505af1158015613a64573d6000803e3d6000fd5b50505050565b613a72613531565b8115613ae55773c02aaa39b223fe8d0a0e5c4f27ead9083c756cc26001600160a01b031663d0e30db0826040518263ffffffff1660e01b81526004016000604051808303818588803b158015613ac757600080fd5b505af1158015613adb573d6000803e3d6000fd5b5050505050611496565b73c02aaa39b223fe8d0a0e5c4f27ead9083c756cc26001600160a01b0316632e1a7d4d826040518263ffffffff1660e01b815260040180828152602001915050600060405180830381600087803b158015613b3f57600080fd5b505af1158015613b53573d6000803e3d6000fd5b505050505050565b600080821215613b6e5781600003613160565b5090565b60006114c6670de0b6b3a764000061351b85856151a0565b60065461365c906001600160a01b0316331480613c285750600160029054906101000a90046001600160a01b03166001600160a01b0316638da5cb5b6040518163ffffffff1660e01b815260040160206040518083038186803b158015613bf057600080fd5b505afa158015613c04573d6000803e3d6000fd5b505050506040513d6020811015613c1a57600080fd5b50516001600160a01b031633145b602061365e565b60055460408051631f0b96b960e31b815290516000926001600160a01b03169163f85cb5c8916004808301926020929190829003018186803b158015613c7457600080fd5b505afa158015613c88573d6000803e3d6000fd5b505050506040513d6020811015613c9e57600080fd5b505160025490915060009081905b8015613eee57600154600280546000926201000090046001600160a01b0316916320104198916000198601908110613ce057fe5b90600052602060002090602091828204019190069054906101000a900460ff166040518263ffffffff1660e01b8152600401808260ff16815260200191505060206040518083038186803b158015613d3757600080fd5b505afa158015613d4b573d6000803e3d6000fd5b505050506040513d6020811015613d6157600080fd5b505190506001600160a01b03811663bdd7a79c8686868a613d856000198901613070565b600554600380546001600160a01b03909216916000198c01908110613da657fe5b9060005260206000200160009054906101000a90046001600160a01b03166040518863ffffffff1660e01b815260040180886001600160a01b031681526020018781526020018660ff16815260200185815260200180602001846001600160a01b03168152602001836001600160a01b03168152602001828103825285818151815260200191508051906020019080838360005b83811015613e52578181015183820152602001613e3a565b50505050905090810190601f168015613e7f5780820380516001836020036101000a031916815260200191505b5098505050505050505050606060405180830381600087803b158015613ea457600080fd5b505af1158015613eb8573d6000803e3d6000fd5b505050506040513d6060811015613ece57600080fd5b508051602082015160409092015190965090945092505060001901613cac565b50600560009054906101000a90046001600160a01b03166001600160a01b031663f85cb5c86040518163ffffffff1660e01b815260040160206040518083038186803b158015613f3d57600080fd5b505afa158015613f51573d6000803e3d6000fd5b505050506040513d6020811015613f6757600080fd5b50516001600160a01b03848116911614801590613f845750600082115b15613a64576001600160a01b038316613fba57613fa2600147613a6a565b73c02aaa39b223fe8d0a0e5c4f27ead9083c756cc292505b600560009054906101000a90046001600160a01b03166001600160a01b031663f85cb5c86040518163ffffffff1660e01b815260040160206040518083038186803b15801561400857600080fd5b505afa15801561401c573d6000803e3d6000fd5b505050506040513d602081101561403257600080fd5b50516001600160a01b03848116911614613a645761410883846001600160a01b03166370a08231306040518263ffffffff1660e01b815260040180826001600160a01b0316815260200191505060206040518083038186803b15801561409757600080fd5b505afa1580156140ab573d6000803e3d6000fd5b505050506040513d60208110156140c157600080fd5b505160055460408051631f0b96b960e31b815290516001600160a01b039092169163f85cb5c891600480820192602092909190829003018186803b15801561145c57600080fd5b5050505050565b60055460408051631f0b96b960e31b815290516000926001600160a01b03169163f85cb5c8916004808301926020929190829003018186803b15801561415457600080fd5b505afa158015614168573d6000803e3d6000fd5b505050506040513d602081101561417e57600080fd5b50516013549091506000906141a79061419690614cdd565b6141a1601554614cdd565b90615217565b90506000806000601354601554116141c05760006141cf565b6013546015546141cf91613521565b90506013546015541061430a5761426081600160029054906101000a90046001600160a01b03166001600160a01b031663568c08136040518163ffffffff1660e01b815260040160206040518083038186803b15801561422e57600080fd5b505afa158015614242573d6000803e3d6000fd5b505050506040513d602081101561425857600080fd5b505190613b72565b92506142f0600160029054906101000a90046001600160a01b03166001600160a01b03166361d027b36040518163ffffffff1660e01b815260040160206040518083038186803b1580156142b357600080fd5b505afa1580156142c7573d6000803e3d6000fd5b505050506040513d60208110156142dd57600080fd5b50516001600160a01b0387169085615069565b6143036142fc84614cdd565b8590615217565b935061434e565b61434b6718493fba64ef000061434561433c60115461433660135460155461350390919063ffffffff16565b90613b72565b60115490613521565b9061527c565b91505b60055460155461437d916001600160a01b03169061436c9086613521565b6001600160a01b0388169190615069565b601d546001600160a01b031661442757600160029054906101000a90046001600160a01b03166001600160a01b0316633f2a55406040518163ffffffff1660e01b815260040160206040518083038186803b1580156143db57600080fd5b505afa1580156143ef573d6000803e3d6000fd5b505050506040513d602081101561440557600080fd5b5051601d80546001600160a01b0319166001600160a01b039092169190911790555b601d54600554604080517f070e8a4a0000000000000000000000000000000000000000000000000000000081526001600160a01b0392831660048201529051600093929092169163070e8a4a91602480820192606092909190829003018186803b15801561449457600080fd5b505afa1580156144a8573d6000803e3d6000fd5b505050506040513d601f19601f8201168201806040525060608110156144cd57600080fd5b506005549091506001600160a01b03166350a96003614508866145026144fb86600260200201518890613b72565b8790613521565b90613521565b87866040518463ffffffff1660e01b8152600401808481526020018381526020018281526020019350505050600060405180830381600087803b15801561454e57600080fd5b505af1158015614562573d6000803e3d6000fd5b5050601d5460135460408051636b8bd28360e11b8152600481019290925260006024830181905290516001600160a01b03909316945063d717a5069350604480830193919282900301818387803b1580156145bc57600080fd5b505af11580156145d0573d6000803e3d6000fd5b5050601d54604080517f9de9a05200000000000000000000000000000000000000000000000000000000815230600482015290516001600160a01b039092169350639de9a0529250602480820192602092909190829003018186803b15801561463857600080fd5b505afa15801561464c573d6000803e3d6000fd5b505050506040513d602081101561466257600080fd5b50516bffffffffffffffffffffffff16601955505050505050565b6000805b6003548110156146ce57826001600160a01b0316600382815481106146a257fe5b6000918252602090912001546001600160a01b031614156146c657600191506146ce565b600101614681565b506000600160029054906101000a90046001600160a01b03166001600160a01b031663e6e605136040518163ffffffff1660e01b815260040160206040518083038186803b15801561471f57600080fd5b505afa158015614733573d6000803e3d6000fd5b505050506040513d602081101561474957600080fd5b505190506122f682806147d15750816001600160a01b0316632d108f41856040518263ffffffff1660e01b815260040180826001600160a01b0316815260200191505060206040518083038186803b1580156147a457600080fd5b505afa1580156147b8573d6000803e3d6000fd5b505050506040513d60208110156147ce57600080fd5b50515b602161365e565b60606147ee6001600160a01b0385168385615298565b905082846001600160a01b03167f2a936dbabeaea30adc1ddad138b1958497988474bef8b09a29411f0105ab8ab28484604051808060200180602001838103835285818151815260200191508051906020019080838360005b8381101561485f578181015183820152602001614847565b50505050905090810190601f16801561488c5780820380516001836020036101000a031916815260200191505b50838103825284518152845160209182019186019080838360005b838110156148bf5781810151838201526020016148a7565b50505050905090810190601f1680156148ec5780820380516001836020036101000a031916815260200191505b5094505050505060405180910390a39392505050565b8015806149a15750604080517fdd62ed3e0000000000000000000000000000000000000000000000000000000081523060048201526001600160a01b03848116602483015291519185169163dd62ed3e91604480820192602092909190829003018186803b15801561497357600080fd5b505afa158015614987573d6000803e3d6000fd5b505050506040513d602081101561499d57600080fd5b5051155b6149dc5760405162461bcd60e51b8152600401808060200182810382526036815260200180615bdb6036913960400191505060405180910390fd5b604080516001600160a01b038416602482015260448082018490528251808303909101815260649091019091526020810180517bffffffffffffffffffffffffffffffffffffffffffffffffffffffff167f095ea7b3000000000000000000000000000000000000000000000000000000001790526122f69084906152be565b6000614a673061536f565b15905090565b614b67600083118015614b605750600554604080517fc40868930000000000000000000000000000000000000000000000000000000081526001600160a01b03858116600483015291518693614b5d93169163c4086893916024808301926020929190829003018186803b158015614ae457600080fd5b505afa158015614af8573d6000803e3d6000fd5b505050506040513d6020811015614b0e57600080fd5b5051600554604080516370a0823160e01b81526001600160a01b038881166004830152915191909216916370a08231916024808301926020929190829003018186803b158015611f7657600080fd5b10155b600761365e565b50601155565b600554604080517f95cdbedb0000000000000000000000000000000000000000000000000000000081529051614c87926001600160a01b0316916395cdbedb916004808301926020929190829003018186803b158015614bcc57600080fd5b505afa158015614be0573d6000803e3d6000fd5b505050506040513d6020811015614bf657600080fd5b50518210801590614c805750600560009054906101000a90046001600160a01b03166001600160a01b031663297ce5986040518163ffffffff1660e01b815260040160206040518083038186803b158015614c5057600080fd5b505afa158015614c64573d6000803e3d6000fd5b505050506040513d6020811015614c7a57600080fd5b50518211155b602761365e565b601055565b614ca26702c68af0bb140000821115606661365e565b602055565b614cbd67016345785d8a0000821115606761365e565b601f55565b614cd8670de0b6b3a7640000821115605d61365e565b601e55565b60007f80000000000000000000000000000000000000000000000000000000000000008210613b6e5760405162461bcd60e51b8152600401808060200182810382526028815260200180615b656028913960400191505060405180910390fd5b6000808211614d93576040805162461bcd60e51b815260206004820152601a60248201527f536166654d6174683a206469766973696f6e206279207a65726f000000000000604482015290519081900360640190fd5b818381614d9c57fe5b049392505050565b60606114c683836040026040615375565b600f54614dcb90610100900460ff16602c61365e565b614def601254614de68560135461316690919063ffffffff16565b1115602d61365e565b600554604080517f3deddb3f0000000000000000000000000000000000000000000000000000000081529051614e91926001600160a01b031691633deddb3f916004808301926020929190829003018186803b158015614e4e57600080fd5b505afa158015614e62573d6000803e3d6000fd5b505050506040513d6020811015614e7857600080fd5b5051600854614e88904290613521565b1015602f61365e565b600554604080517f4422b0dc0000000000000000000000000000000000000000000000000000000081526004810186905290516001600160a01b0390921691634422b0dc9160248082019260009290919082900301818387803b158015614ef757600080fd5b505af1158015614f0b573d6000803e3d6000fd5b5050601354614f1d9250905084613166565b601355614f2983615499565b600954614f3557426009555b601d5460408051636b8bd28360e11b8152600481018690526001602482015290516001600160a01b039092169163d717a5069160448082019260009290919082900301818387803b158015614f8957600080fd5b505af1158015614f9d573d6000803e3d6000fd5b505060055460408051634d5b1ba160e11b81526001600160a01b038681166004830152602482018890529151919092169350639ab637429250604480830192600092919082900301818387803b158015614ff657600080fd5b505af115801561500a573d6000803e3d6000fd5b505042600a819055600554604080518881526020810188905280820193909352516001600160a01b0390911693507f7f4467a4ca8be02143a9253e6c31362c7bc755929e5c68faf659636d307f1b8c92509081900360600190a2505050565b604080516001600160a01b038416602482015260448082018490528251808303909101815260649091019091526020810180517bffffffffffffffffffffffffffffffffffffffffffffffffffffffff167fa9059cbb000000000000000000000000000000000000000000000000000000001790526122f69084906152be565b60008160140183511015615144576040805162461bcd60e51b815260206004820152601560248201527f746f416464726573735f6f75744f66426f756e64730000000000000000000000604482015290519081900360640190fd5b5001602001516c01000000000000000000000000900490565b6001600160a01b03161590565b600073eeeeeeeeeeeeeeeeeeeeeeeeeeeeeeeeeeeeeeee6001600160a01b03831614806131605750506001600160a01b03161590565b60008215806151bb575050818102818382816151b857fe5b04145b61316057600080fd5b62461bcd60e51b6000908152602060045260076024526642414223000030600a808404818106603090810160081b95839006959095019082900491820690940160101b939093010160c81b604452606490fd5b600081830381831280159061522c5750838113155b80615241575060008312801561524157508381135b6114c65760405162461bcd60e51b8152600401808060200182810382526024815260200180615b8d6024913960400191505060405180910390fd5b6000670de0b6b3a764000061529184846151a0565b81614d9c57fe5b60606114c3848484604051806060016040528060298152602001615b3c60299139615745565b6000615313826040518060400160405280602081526020017f5361666545524332303a206c6f772d6c6576656c2063616c6c206661696c6564815250856001600160a01b03166158a09092919063ffffffff16565b8051909150156122f65780806020019051602081101561533257600080fd5b50516122f65760405162461bcd60e51b815260040180806020018281038252602a815260200180615bb1602a913960400191505060405180910390fd5b3b151590565b60608182601f0110156153cf576040805162461bcd60e51b815260206004820152600e60248201527f736c6963655f6f766572666c6f77000000000000000000000000000000000000604482015290519081900360640190fd5b81830184511015615427576040805162461bcd60e51b815260206004820152601160248201527f736c6963655f6f75744f66426f756e6473000000000000000000000000000000604482015290519081900360640190fd5b6060821580156154465760405191506000825260208201604052615490565b6040519150601f8416801560200281840101858101878315602002848b0101015b8183101561547f578051835260209283019201615467565b5050858452601f01601f1916604052505b50949350505050565b60055460408051631f0b96b960e31b8152905183926000926001600160a01b039091169163f85cb5c891600480820192602092909190829003018186803b1580156154e357600080fd5b505afa1580156154f7573d6000803e3d6000fd5b505050506040513d602081101561550d57600080fd5b505190506000805b60025481101561410857600154600280546000926201000090046001600160a01b0316916320104198918590811061554957fe5b90600052602060002090602091828204019190069054906101000a900460ff166040518263ffffffff1660e01b8152600401808260ff16815260200191505060206040518083038186803b1580156155a057600080fd5b505afa1580156155b4573d6000803e3d6000fd5b505050506040513d60208110156155ca57600080fd5b505190506001600160a01b0381166387033f618587866155e987613070565b600554600380546001600160a01b03909216918a90811061560657fe5b9060005260206000200160009054906101000a90046001600160a01b03166040518763ffffffff1660e01b815260040180876001600160a01b031681526020018681526020018560ff16815260200180602001846001600160a01b03168152602001836001600160a01b03168152602001828103825285818151815260200191508051906020019080838360005b838110156156ac578181015183820152602001615694565b50505050905090810190601f1680156156d95780820380516001836020036101000a031916815260200191505b50975050505050505050606060405180830381600087803b1580156156fd57600080fd5b505af1158015615711573d6000803e3d6000fd5b505050506040513d606081101561572757600080fd5b50805160208201516040909201519196509450925050600101615515565b6060824710156157865760405162461bcd60e51b8152600401808060200182810382526026815260200180615ae86026913960400191505060405180910390fd5b61578f8561536f565b6157e0576040805162461bcd60e51b815260206004820152601d60248201527f416464726573733a2063616c6c20746f206e6f6e2d636f6e7472616374000000604482015290519081900360640190fd5b600080866001600160a01b031685876040518082805190602001908083835b6020831061581e5780518252601f1990920191602091820191016157ff565b6001836020036101000a03801982511681845116808217855250505050505090500191505060006040518083038185875af1925050503d8060008114615880576040519150601f19603f3d011682016040523d82523d6000602084013e615885565b606091505b50915091506158958282866158af565b979650505050505050565b60606114c38484600085615745565b606083156158be5750816114c6565b8251156158ce5782518084602001fd5b8160405162461bcd60e51b81526004018080602001828103825283818151815260200191508051906020019080838360005b83811015615918578181015183820152602001615900565b50505050905090810190601f1680156159455780820380516001836020036101000a031916815260200191505b509250505060405180910390fd5b8280548282559060005260206000209081019282156159a6579160200282015b828111156159a65781546001600160a01b0319166001600160a01b03843516178255602090920191600190910190615973565b50613b6e929150615ad2565b82805482825590600052602060002090601f016020900481019282156159a65791602002820160005b83821115615a1c57833560ff1683826101000a81548160ff021916908360ff16021790555092602001926001016020816000010492830192600103026159db565b8015615a495782816101000a81549060ff0219169055600101602081600001049283019260010302615a1c565b5050613b6e929150615ad2565b828054600181600116156101000203166002900490600052602060002090601f016020900481019282615a8c57600085556159a6565b82601f10615aa557805160ff19168380011785556159a6565b828001600101855582156159a6579182015b828111156159a6578251825591602001919060010190615ab7565b5b80821115613b6e5760008155600101615ad356fe416464726573733a20696e73756666696369656e742062616c616e636520666f722063616c6c496e697469616c697a61626c653a20636f6e747261637420697320616c726561647920696e697469616c697a6564416464726573733a206c6f772d6c6576656c2063616c6c20776974682076616c7565206661696c656453616665436173743a2076616c756520646f65736e27742066697420696e20616e20696e743235365369676e6564536166654d6174683a207375627472616374696f6e206f766572666c6f775361666545524332303a204552433230206f7065726174696f6e20646964206e6f7420737563636565645361666545524332303a20617070726f76652066726f6d206e6f6e2d7a65726f20746f206e6f6e2d7a65726f20616c6c6f77616e6365a264697066735822122003b60d9446fb740e379e5a8167631e6c466bd8a3a6cfb8b7de9a6458e811480f64736f6c63430007060033",
  "devdoc": {
    "kind": "dev",
    "methods": {
      "executeStrategy(uint256,uint256)": {
        "params": {
          "_capital": "The capital to allocate to this strategy.",
          "_fee": "The fee paid to keeper to compensate the gas cost."
        }
      },
      "expireStrategy(uint256)": {
        "params": {
          "_fee": "The keeper fee"
        }
      },
      "finalizeStrategy(uint256,string)": {
        "params": {
          "_fee": "The fee paid to keeper to compensate the gas cost",
          "_tokenURI": "URL with the JSON for the strategy"
        }
      },
      "getNAV()": {
        "returns": {
          "_0": "_nav           NAV of the strategy"
        }
      },
      "getUserVotes(address)": {
        "params": {
          "_address": "Address of the contributor"
        },
        "returns": {
          "_0": "_votes            Number of votes cast"
        }
      },
      "handleWeth(bool,uint256)": {
        "params": {
          "_isDeposit": "Whether is a deposit or withdraw",
          "_wethAmount": "Amount to deposit or withdraw"
        }
      },
      "initialize(address,address,address,uint256,uint256,uint256,uint256,uint256,uint256,uint256)": {
        "params": {
          "_controller": "Address of the controller",
          "_expectedReturn": "Expected return",
          "_garden": "Address of the garden",
          "_maxAllocationPercentage": "Max allocation percentage of garden capital",
          "_maxCapitalRequested": "Max Capital requested denominated in the reserve asset (0 to be unlimited)",
          "_maxGasFeePercentage": "Max gas fee percentage of garden capital",
          "_maxTradeSlippagePercentage": "Max slippage allowed per trade in % of capital",
          "_stake": "Stake with garden participations absolute amounts 1e18",
          "_strategist": "Address of the strategist",
          "_strategyDuration": "Strategy duration in seconds"
        }
      },
      "invokeFromIntegration(address,uint256,bytes)": {
        "params": {
          "_data": "Encoded function selector and arguments",
          "_target": "Address of the smart contract to call",
          "_value": "Quantity of Ether to provide the call (typically 0)"
        },
        "returns": {
          "_0": "_returnValue           Bytes encoded return value"
        }
      },
      "resolveVoting(address[],int256[],uint256)": {
        "params": {
          "_fee": "The fee paid to keeper to compensate the gas cost",
          "_voters": "An array of garden member who voted on strategy.",
          "_votes": "An array of votes by on strategy by garden members."
        }
      },
      "setData(uint8[],address[],bytes)": {
        "params": {
          "_opEncodedData": "Bytes with the params for the op in the same position in the opTypes array",
          "_opIntegrations": "Addresses with the integration for each op",
          "_opTypes": "An array with the op types"
        }
      },
      "sweep(address)": {
        "params": {
          "_token": "Address of the token to sweep"
        }
      },
      "trade(address,uint256,address)": {
        "params": {
          "_receiveToken": "Token to receive",
          "_sendQuantity": "Amount of tokens to send",
          "_sendToken": "Token to exchange"
        }
      },
      "unwindStrategy(uint256,uint256)": {
        "params": {
          "_amountToUnwind": "The amount of capital to unwind",
          "_strategyNAV": "NAV of the strategy to unwind."
        }
      },
      "updateParams(uint256[4])": {
        "details": "_params[0]  duration   _params[1]  maxGasFeePercentage   _params[2]  maxTradeSlippagePercentage   _params[3]  maxAllocationPercentage",
        "params": {
          "_params": "New params"
        }
      }
    },
    "version": 1
  },
  "userdoc": {
    "kind": "user",
    "methods": {
      "deleteCandidateStrategy()": {
        "notice": "Delete a candidate strategy by the strategist"
      },
      "executeStrategy(uint256,uint256)": {
        "notice": "Executes an strategy that has been activated and gone through the cooldown period."
      },
      "expireStrategy(uint256)": {
        "notice": "Expires a candidate that has spent more than CANDIDATE_PERIOD without reaching quorum"
      },
      "finalizeStrategy(uint256,string)": {
        "notice": "Exits from an executed strategy. Returns balance back to the garden and sets the capital aside for withdrawals in ETH. Pays the keeper. Updates the reserve asset position accordingly."
      },
      "getNAV()": {
        "notice": "Gets the NAV of assets under management. It is the sum of the NAV of all the operations"
      },
      "getOperationByIndex(uint8)": {
        "notice": "Get the operation params by index"
      },
      "getOperationsCount()": {
        "notice": "Returns the number of operations in this strategy"
      },
      "getStrategyDetails()": {
        "notice": "Get the non-state related details of a Strategy"
      },
      "getStrategyRewardsContext()": {
        "notice": "Get mining context details of a Strategy"
      },
      "getStrategyState()": {
        "notice": "Get the state of a Strategy"
      },
      "getUserVotes(address)": {
        "notice": "Gets the votes casted by the contributor in this strategy"
      },
      "handleWeth(bool,uint256)": {
        "notice": "Deposits or withdraws weth from an operation in this context"
      },
      "initialize(address,address,address,uint256,uint256,uint256,uint256,uint256,uint256,uint256)": {
        "notice": "Initializes the strategy for a garden"
      },
      "invokeApprove(address,address,uint256)": {
        "notice": "Helper to invoke Approve on ERC20 from integrations in the strategy context"
      },
      "invokeFromIntegration(address,uint256,bytes)": {
        "notice": "Helper to invoke a call to an external contract from integrations in the strategy context"
      },
      "isStrategyActive()": {
        "notice": "Returns whether this strategy is currently active or not"
      },
      "resolveVoting(address[],int256[],uint256)": {
        "notice": "Adds off-chain voting results on-chain."
      },
      "setData(uint8[],address[],bytes)": {
        "notice": "Sets the data for the operations of this strategy"
      },
      "sweep(address)": {
        "notice": "Any tokens (other than the target) that are sent here by mistake are recoverable by contributors Converts it to the reserve asset and sends it to the garden."
      },
      "trade(address,uint256,address)": {
        "notice": "Function that calculates the price using the oracle and executes a trade. Must call the exchange to get the price and pass minReceiveQuantity accordingly."
      },
      "unwindStrategy(uint256,uint256)": {
        "notice": "Partially unwinds an strategy. Triggered from an immediate withdraw in the Garden."
      },
      "updateParams(uint256[4])": {
        "notice": "Allows strategist to update some strategy params"
      }
    },
    "version": 1
  },
  "storageLayout": {
    "storage": [
      {
        "astId": 5975,
        "contract": "contracts/strategies/Strategy.sol:StrategyV13",
        "label": "_status",
        "offset": 0,
        "slot": "0",
        "type": "t_uint256"
      },
      {
        "astId": 492,
        "contract": "contracts/strategies/Strategy.sol:StrategyV13",
        "label": "_initialized",
        "offset": 0,
        "slot": "1",
        "type": "t_bool"
      },
      {
        "astId": 495,
        "contract": "contracts/strategies/Strategy.sol:StrategyV13",
        "label": "_initializing",
        "offset": 1,
        "slot": "1",
        "type": "t_bool"
      },
      {
        "astId": 41759,
        "contract": "contracts/strategies/Strategy.sol:StrategyV13",
        "label": "controller",
        "offset": 2,
        "slot": "1",
        "type": "t_contract(IBabController)34054"
      },
      {
        "astId": 41762,
        "contract": "contracts/strategies/Strategy.sol:StrategyV13",
        "label": "opTypes",
        "offset": 0,
        "slot": "2",
        "type": "t_array(t_uint8)dyn_storage"
      },
      {
        "astId": 41765,
        "contract": "contracts/strategies/Strategy.sol:StrategyV13",
        "label": "opIntegrations",
        "offset": 0,
        "slot": "3",
        "type": "t_array(t_address)dyn_storage"
      },
      {
        "astId": 41768,
        "contract": "contracts/strategies/Strategy.sol:StrategyV13",
        "label": "opDatas",
        "offset": 0,
        "slot": "4",
        "type": "t_array(t_address)dyn_storage"
      },
      {
        "astId": 41771,
        "contract": "contracts/strategies/Strategy.sol:StrategyV13",
        "label": "garden",
        "offset": 0,
        "slot": "5",
        "type": "t_contract(IGarden)34558"
      },
      {
        "astId": 41774,
        "contract": "contracts/strategies/Strategy.sol:StrategyV13",
        "label": "strategist",
        "offset": 0,
        "slot": "6",
        "type": "t_address"
      },
      {
        "astId": 41777,
        "contract": "contracts/strategies/Strategy.sol:StrategyV13",
        "label": "enteredAt",
        "offset": 0,
        "slot": "7",
        "type": "t_uint256"
      },
      {
        "astId": 41780,
        "contract": "contracts/strategies/Strategy.sol:StrategyV13",
        "label": "enteredCooldownAt",
        "offset": 0,
        "slot": "8",
        "type": "t_uint256"
      },
      {
        "astId": 41782,
        "contract": "contracts/strategies/Strategy.sol:StrategyV13",
        "label": "executedAt",
        "offset": 0,
        "slot": "9",
        "type": "t_uint256"
      },
      {
        "astId": 41784,
        "contract": "contracts/strategies/Strategy.sol:StrategyV13",
        "label": "updatedAt",
        "offset": 0,
        "slot": "10",
        "type": "t_uint256"
      },
      {
        "astId": 41786,
        "contract": "contracts/strategies/Strategy.sol:StrategyV13",
        "label": "exitedAt",
        "offset": 0,
        "slot": "11",
        "type": "t_uint256"
      },
      {
        "astId": 41789,
        "contract": "contracts/strategies/Strategy.sol:StrategyV13",
        "label": "voters",
        "offset": 0,
        "slot": "12",
        "type": "t_array(t_address)dyn_storage"
      },
      {
        "astId": 41792,
        "contract": "contracts/strategies/Strategy.sol:StrategyV13",
        "label": "totalPositiveVotes",
        "offset": 0,
        "slot": "13",
        "type": "t_uint256"
      },
      {
        "astId": 41795,
        "contract": "contracts/strategies/Strategy.sol:StrategyV13",
        "label": "totalNegativeVotes",
        "offset": 0,
        "slot": "14",
        "type": "t_uint256"
      },
      {
        "astId": 41797,
        "contract": "contracts/strategies/Strategy.sol:StrategyV13",
        "label": "finalized",
        "offset": 0,
        "slot": "15",
        "type": "t_bool"
      },
      {
        "astId": 41799,
        "contract": "contracts/strategies/Strategy.sol:StrategyV13",
        "label": "active",
        "offset": 1,
        "slot": "15",
        "type": "t_bool"
      },
      {
        "astId": 41801,
        "contract": "contracts/strategies/Strategy.sol:StrategyV13",
        "label": "dataSet",
        "offset": 2,
        "slot": "15",
        "type": "t_bool"
      },
      {
        "astId": 41803,
        "contract": "contracts/strategies/Strategy.sol:StrategyV13",
        "label": "hasMiningStarted",
        "offset": 3,
        "slot": "15",
        "type": "t_bool"
      },
      {
        "astId": 41806,
        "contract": "contracts/strategies/Strategy.sol:StrategyV13",
        "label": "duration",
        "offset": 0,
        "slot": "16",
        "type": "t_uint256"
      },
      {
        "astId": 41809,
        "contract": "contracts/strategies/Strategy.sol:StrategyV13",
        "label": "stake",
        "offset": 0,
        "slot": "17",
        "type": "t_uint256"
      },
      {
        "astId": 41812,
        "contract": "contracts/strategies/Strategy.sol:StrategyV13",
        "label": "maxCapitalRequested",
        "offset": 0,
        "slot": "18",
        "type": "t_uint256"
      },
      {
        "astId": 41815,
        "contract": "contracts/strategies/Strategy.sol:StrategyV13",
        "label": "capitalAllocated",
        "offset": 0,
        "slot": "19",
        "type": "t_uint256"
      },
      {
        "astId": 41818,
        "contract": "contracts/strategies/Strategy.sol:StrategyV13",
        "label": "expectedReturn",
        "offset": 0,
        "slot": "20",
        "type": "t_uint256"
      },
      {
        "astId": 41821,
        "contract": "contracts/strategies/Strategy.sol:StrategyV13",
        "label": "capitalReturned",
        "offset": 0,
        "slot": "21",
        "type": "t_uint256"
      },
      {
        "astId": 41823,
        "contract": "contracts/strategies/Strategy.sol:StrategyV13",
        "label": "minRebalanceCapital",
        "offset": 0,
        "slot": "22",
        "type": "t_uint256"
      },
      {
        "astId": 41826,
        "contract": "contracts/strategies/Strategy.sol:StrategyV13",
        "label": "tokensNeeded",
        "offset": 0,
        "slot": "23",
        "type": "t_array(t_address)dyn_storage"
      },
      {
        "astId": 41829,
        "contract": "contracts/strategies/Strategy.sol:StrategyV13",
        "label": "tokenAmountsNeeded",
        "offset": 0,
        "slot": "24",
        "type": "t_array(t_uint256)dyn_storage"
      },
      {
        "astId": 41832,
        "contract": "contracts/strategies/Strategy.sol:StrategyV13",
        "label": "strategyRewards",
        "offset": 0,
        "slot": "25",
        "type": "t_uint256"
      },
      {
        "astId": 41834,
        "contract": "contracts/strategies/Strategy.sol:StrategyV13",
        "label": "rewardsTotalOverhead",
        "offset": 0,
        "slot": "26",
        "type": "t_uint256"
      },
      {
        "astId": 41838,
        "contract": "contracts/strategies/Strategy.sol:StrategyV13",
        "label": "votes",
        "offset": 0,
        "slot": "27",
        "type": "t_mapping(t_address,t_int256)"
      },
      {
        "astId": 41841,
        "contract": "contracts/strategies/Strategy.sol:StrategyV13",
        "label": "opEncodedData",
        "offset": 0,
        "slot": "28",
        "type": "t_bytes_storage"
      },
      {
        "astId": 41843,
        "contract": "contracts/strategies/Strategy.sol:StrategyV13",
        "label": "rewardsDistributor",
        "offset": 0,
        "slot": "29",
        "type": "t_contract(IRewardsDistributor)35250"
      },
      {
        "astId": 41846,
        "contract": "contracts/strategies/Strategy.sol:StrategyV13",
        "label": "maxAllocationPercentage",
        "offset": 0,
        "slot": "30",
        "type": "t_uint256"
      },
      {
        "astId": 41849,
        "contract": "contracts/strategies/Strategy.sol:StrategyV13",
        "label": "maxGasFeePercentage",
        "offset": 0,
        "slot": "31",
        "type": "t_uint256"
      },
      {
        "astId": 41852,
        "contract": "contracts/strategies/Strategy.sol:StrategyV13",
        "label": "maxTradeSlippagePercentage",
        "offset": 0,
        "slot": "32",
        "type": "t_uint256"
      }
    ],
    "types": {
      "t_address": {
        "encoding": "inplace",
        "label": "address",
        "numberOfBytes": "20"
      },
      "t_array(t_address)dyn_storage": {
        "base": "t_address",
        "encoding": "dynamic_array",
        "label": "address[]",
        "numberOfBytes": "32"
      },
      "t_array(t_uint256)dyn_storage": {
        "base": "t_uint256",
        "encoding": "dynamic_array",
        "label": "uint256[]",
        "numberOfBytes": "32"
      },
      "t_array(t_uint8)dyn_storage": {
        "base": "t_uint8",
        "encoding": "dynamic_array",
        "label": "uint8[]",
        "numberOfBytes": "32"
      },
      "t_bool": {
        "encoding": "inplace",
        "label": "bool",
        "numberOfBytes": "1"
      },
      "t_bytes_storage": {
        "encoding": "bytes",
        "label": "bytes",
        "numberOfBytes": "32"
      },
      "t_contract(IBabController)34054": {
        "encoding": "inplace",
        "label": "contract IBabController",
        "numberOfBytes": "20"
      },
      "t_contract(IGarden)34558": {
        "encoding": "inplace",
        "label": "contract IGarden",
        "numberOfBytes": "20"
      },
      "t_contract(IRewardsDistributor)35250": {
        "encoding": "inplace",
        "label": "contract IRewardsDistributor",
        "numberOfBytes": "20"
      },
      "t_int256": {
        "encoding": "inplace",
        "label": "int256",
        "numberOfBytes": "32"
      },
      "t_mapping(t_address,t_int256)": {
        "encoding": "mapping",
        "key": "t_address",
        "label": "mapping(address => int256)",
        "numberOfBytes": "32",
        "value": "t_int256"
      },
      "t_uint256": {
        "encoding": "inplace",
        "label": "uint256",
        "numberOfBytes": "32"
      },
      "t_uint8": {
        "encoding": "inplace",
        "label": "uint8",
        "numberOfBytes": "1"
      }
    }
  }
}