{
  "address": "0x7d9c2A5d0B14912693b26dDBedAE9d58AAD3BF0f",
  "abi": [
    {
      "inputs": [],
      "stateMutability": "nonpayable",
      "type": "constructor"
    },
    {
      "inputs": [
        {
          "internalType": "string",
          "name": "_name",
          "type": "string"
        },
        {
          "internalType": "string",
          "name": "_symbol",
          "type": "string"
        },
        {
          "internalType": "address",
          "name": "_strategist",
          "type": "address"
        },
        {
          "internalType": "address",
          "name": "_garden",
          "type": "address"
        },
        {
          "internalType": "address",
          "name": "_controller",
          "type": "address"
        },
        {
          "internalType": "uint256[]",
          "name": "_stratParams",
          "type": "uint256[]"
        }
      ],
      "name": "createStrategy",
      "outputs": [
        {
          "internalType": "address",
          "name": "",
          "type": "address"
        }
      ],
      "stateMutability": "nonpayable",
      "type": "function"
    }
  ],
  "transactionHash": "0xe103ca73860ef64e72e02164738cd239a73fa9fc7f834970fa95a0305a42a24d",
  "args": [],
  "solcInputHash": "a02a2075cf667a20c416d2d0a5e8f337",
  "bytecode": "0x60c060405234801561001057600080fd5b5060405161001d90610088565b604051809103906000f080158015610039573d6000803e3d6000fd5b5060601b6001600160601b03191660805260405161005690610095565b604051809103906000f080158015610072573d6000803e3d6000fd5b5060601b6001600160601b03191660a0526100a2565b6155d78061069a83390190565b612c4980615c7183390190565b60805160601c60a05160601c6105cf6100cb600039806102215250806101f452506105cf6000f3fe608060405234801561001057600080fd5b506004361061002b5760003560e01c806399d5ea7114610030575b600080fd5b6101d0600480360360c081101561004657600080fd5b81019060208101813564010000000081111561006157600080fd5b82018360208201111561007357600080fd5b8035906020019184600183028401116401000000008311171561009557600080fd5b91908080601f01602080910402602001604051908101604052809392919081815260200183838082843760009201919091525092959493602081019350359150506401000000008111156100e857600080fd5b8201836020820111156100fa57600080fd5b8035906020019184600183028401116401000000008311171561011c57600080fd5b91908080601f01602080910402602001604051908101604052809392919081815260200183838082843760009201919091525092956001600160a01b03853581169660208701358216966040810135909216955091935090915060808101906060013564010000000081111561019157600080fd5b8201836020820111156101a357600080fd5b803590602001918460208302840111640100000000831117156101c557600080fd5b5090925090506101ec565b604080516001600160a01b039092168252519081900360200190f35b6000806102187f00000000000000000000000000000000000000000000000000000000000000006104bf565b905060006102457f00000000000000000000000000000000000000000000000000000000000000006104bf565b9050806001600160a01b0316632016a0d287848d8d6040518563ffffffff1660e01b815260040180856001600160a01b03168152602001846001600160a01b031681526020018060200180602001838103835285818151815260200191508051906020019080838360005b838110156102c85781810151838201526020016102b0565b50505050905090810190601f1680156102f55780820380516001836020036101000a031916815260200191505b50838103825284518152845160209182019186019080838360005b83811015610328578181015183820152602001610310565b50505050905090810190601f1680156103555780820380516001836020036101000a031916815260200191505b509650505050505050600060405180830381600087803b15801561037857600080fd5b505af115801561038c573d6000803e3d6000fd5b50505050816001600160a01b031663a3711498898989898960008181106103af57fe5b905060200201358a8a60018181106103c357fe5b905060200201358b8b60028181106103d757fe5b905060200201358c8c60038181106103eb57fe5b905060200201358d8d60048181106103ff57fe5b905060200201358a6040518a63ffffffff1660e01b8152600401808a6001600160a01b03168152602001896001600160a01b03168152602001886001600160a01b03168152602001878152602001868152602001858152602001848152602001838152602001826001600160a01b031681526020019950505050505050505050600060405180830381600087803b15801561049957600080fd5b505af11580156104ad573d6000803e3d6000fd5b50939c9b505050505050505050505050565b60006040517f3d602d80600a3d3981f3363d3d373d3d3d363d7300000000000000000000000081528260601b60148201527f5af43d82803e903d91602b57fd5bf3000000000000000000000000000000000060288201526037816000f09150506001600160a01b03811661059457604080517f08c379a000000000000000000000000000000000000000000000000000000000815260206004820152601660248201527f455243313136373a20637265617465206661696c656400000000000000000000604482015290519081900360640190fd5b91905056fea2646970667358221220b217404732e6223bce917c6c144abc7d8eeb6bc452fcfec3018228fa4b7fa18d64736f6c63430007060033608060405234801561001057600080fd5b5060016000556155b2806100256000396000f3fe60806040526004361061034e5760003560e01c80637b2b401a116101bb578063bf1dcfe2116100f7578063da58c7d911610095578063e4df5e1a1161006f578063e4df5e1a14610d90578063f101e82b14610da5578063f77c479114610dd5578063ffb5cd0914610dea57610355565b8063da58c7d914610d3c578063dbabf4f314610d66578063dd1033f814610d7b57610355565b8063d0f9953e116100d1578063d0f9953e14610cca578063d3406abd14610cdf578063d40244cb14610cf4578063d8bff5a514610d0957610355565b8063bf1dcfe214610b3d578063c2ea0bc414610b94578063c39b951c14610cb557610355565b806394bba464116101645780639947cb951161013e5780639947cb9514610a7c578063a30ca20414610aa6578063a371149814610abb578063b3f05b9714610b2857610355565b806394bba464146109f1578063950c782214610a0657806397ccdc6014610a3957610355565b80638a439b7a116101955780638a439b7a146109725780639033a52b146109b257806393baae41146109dc57610355565b80637b2b401a1461091e578063825deffe1461094857806389f942f11461095d57610355565b80633394fed21161028a57806356ba88b8116102335780636bc195dd1161020d5780636bc195dd146107d85780636db40dc2146108df5780636db9cc99146108f45780637519ab501461090957610355565b806356ba88b8146106f4578063577b6ab8146107095780636b3b75ea1461071e57610355565b8063449b982611610264578063449b98261461065c57806348a4beaa146106715780634b0fff0c146106ca57610355565b80633394fed2146105f35780633a4b66f11461061d578063422967241461063257610355565b80630e32db52116102f75780631a5cfcb7116102d15780631a5cfcb7146104a05780631faeaf76146104d25780631fe4a686146105ad57806330273356146105de57610355565b80630e32db521461041e5780630fb5a6b4146104615780631115bdcf1461047657610355565b806303976e381161032857806303976e38146103df57806303cddb2c146103f45780630d15fd771461040957610355565b80630126c6061461035a57806301681a621461038157806302fb0c5e146103b657610355565b3661035557005b600080fd5b34801561036657600080fd5b5061036f610e70565b60408051918252519081900360200190f35b34801561038d57600080fd5b506103b4600480360360208110156103a457600080fd5b50356001600160a01b0316611039565b005b3480156103c257600080fd5b506103cb611279565b604080519115158252519081900360200190f35b3480156103eb57600080fd5b5061036f611287565b34801561040057600080fd5b5061036f61128d565b34801561041557600080fd5b5061036f611293565b34801561042a57600080fd5b5061036f6004803603606081101561044157600080fd5b506001600160a01b03813581169160208101359160409091013516611299565b34801561046d57600080fd5b5061036f61139f565b34801561048257600080fd5b506103b46004803603602081101561049957600080fd5b50356113a5565b3480156104ac57600080fd5b506103b4600480360360408110156104c357600080fd5b50803515159060200135611604565b3480156104de57600080fd5b506103b4600480360360a08110156104f557600080fd5b81019060208101813564010000000081111561051057600080fd5b82018360208201111561052257600080fd5b8035906020019184602083028401116401000000008311171561054457600080fd5b91939092909160208101903564010000000081111561056257600080fd5b82018360208201111561057457600080fd5b8035906020019184602083028401116401000000008311171561059657600080fd5b9193509150803590602081013590604001356117e0565b3480156105b957600080fd5b506105c2611b2b565b604080516001600160a01b039092168252519081900360200190f35b3480156105ea57600080fd5b5061036f611b3a565b3480156105ff57600080fd5b506105c26004803603602081101561061657600080fd5b5035611b40565b34801561062957600080fd5b5061036f611b6a565b34801561063e57600080fd5b506103b46004803603602081101561065557600080fd5b5035611b70565b34801561066857600080fd5b5061036f611fa6565b34801561067d57600080fd5b5061069e6004803603602081101561069457600080fd5b503560ff16611fac565b6040805160ff90941684526001600160a01b039283166020850152911682820152519081900360600190f35b3480156106d657600080fd5b506103b4600480360360208110156106ed57600080fd5b503561203d565b34801561070057600080fd5b506105c26120ba565b34801561071557600080fd5b506103b46120c9565b34801561072a57600080fd5b506103b46004803603604081101561074157600080fd5b8135919081019060408101602082013564010000000081111561076357600080fd5b82018360208201111561077557600080fd5b8035906020019184600183028401116401000000008311171561079757600080fd5b91908080601f01602080910402602001604051908101604052809392919081815260200183838082843760009201919091525092955061212e945050505050565b3480156107e457600080fd5b5061086a600480360360608110156107fb57600080fd5b6001600160a01b038235169160208101359181019060608101604082013564010000000081111561082b57600080fd5b82018360208201111561083d57600080fd5b8035906020019184600183028401116401000000008311171561085f57600080fd5b509092509050612499565b6040805160208082528351818301528351919283929083019185019080838360005b838110156108a457818101518382015260200161088c565b50505050905090810190601f1680156108d15780820380516001836020036101000a031916815260200191505b509250505060405180910390f35b3480156108eb57600080fd5b5061036f612703565b34801561090057600080fd5b5061036f612709565b34801561091557600080fd5b5061036f61270f565b34801561092a57600080fd5b5061036f6004803603602081101561094157600080fd5b5035612715565b34801561095457600080fd5b5061036f612736565b34801561096957600080fd5b506105c261273c565b34801561097e57600080fd5b5061099c6004803603602081101561099557600080fd5b503561274b565b6040805160ff9092168252519081900360200190f35b3480156109be57600080fd5b506105c2600480360360208110156109d557600080fd5b503561277f565b3480156109e857600080fd5b5061036f61278f565b3480156109fd57600080fd5b506103cb612795565b348015610a1257600080fd5b5061036f60048036036020811015610a2957600080fd5b50356001600160a01b03166127a4565b348015610a4557600080fd5b506103b460048036036060811015610a5c57600080fd5b506001600160a01b038135811691602081013590911690604001356127bf565b348015610a8857600080fd5b506105c260048036036020811015610a9f57600080fd5b50356128a7565b348015610ab257600080fd5b5061036f6128b7565b348015610ac757600080fd5b506103b46004803603610120811015610adf57600080fd5b506001600160a01b0381358116916020810135821691604082013581169160608101359160808201359160a08101359160c08201359160e08101359161010090910135166128bd565b348015610b3457600080fd5b506103cb612e32565b348015610b4957600080fd5b50610b52612e3b565b604080516001600160a01b0390981688529515156020880152931515868601529115156060860152608085015260a084015260c0830152519081900360e00190f35b348015610ba057600080fd5b506103b460048036036060811015610bb757600080fd5b810190602081018135640100000000811115610bd257600080fd5b820183602082011115610be457600080fd5b80359060200191846020830284011164010000000083111715610c0657600080fd5b919390929091602081019035640100000000811115610c2457600080fd5b820183602082011115610c3657600080fd5b80359060200191846020830284011164010000000083111715610c5857600080fd5b919390929091602081019035640100000000811115610c7657600080fd5b820183602082011115610c8857600080fd5b80359060200191846020830284011164010000000083111715610caa57600080fd5b509092509050612e65565b348015610cc157600080fd5b5061036f613248565b348015610cd657600080fd5b5061036f61324e565b348015610ceb57600080fd5b5061036f613254565b348015610d0057600080fd5b5061036f61325a565b348015610d1557600080fd5b5061036f60048036036020811015610d2c57600080fd5b50356001600160a01b0316613260565b348015610d4857600080fd5b506105c260048036036020811015610d5f57600080fd5b5035613272565b348015610d7257600080fd5b5061036f613282565b348015610d8757600080fd5b5061036f613288565b348015610d9c57600080fd5b506103cb61328e565b348015610db157600080fd5b506103b460048036036040811015610dc857600080fd5b50803590602001356132a6565b348015610de157600080fd5b506105c261374c565b348015610df657600080fd5b50610dff613761565b604080516001600160a01b039e8f1681529c909d1660208d01528b8d019a909a5260608b019890985260808a019690965260a089019490945260c088019290925260e08701526101008601526101208501526101408401526101608301526101808201529051908190036101a00190f35b600080805b60025481101561103357600154600280546000926201000090046001600160a01b03169163201041989185908110610ea957fe5b90600052602060002090602091828204019190069054906101000a900460ff1660ff166040518263ffffffff1660e01b81526004018082815260200191505060206040518083038186803b158015610f0057600080fd5b505afa158015610f14573d6000803e3d6000fd5b505050506040513d6020811015610f2a57600080fd5b505160048054919250611028916001600160a01b03841691634222326a9186908110610f5257fe5b600091825260209091200154600554600380546001600160a01b03938416939092169188908110610f7f57fe5b60009182526020918290200154604080517fffffffff0000000000000000000000000000000000000000000000000000000060e088901b1681526001600160a01b039586166004820152938516602485015293166044830152915160648083019392829003018186803b158015610ff557600080fd5b505afa158015611009573d6000803e3d6000fd5b505050506040513d602081101561101f57600080fd5b50518490613794565b925050600101610e75565b50905090565b600554604080516370a0823160e01b815233600482015290516110bf926000926001600160a01b03909116916370a0823191602480820192602092909190829003018186803b15801561108b57600080fd5b505afa15801561109f573d6000803e3d6000fd5b505050506040513d60208110156110b557600080fd5b505111600f6137f7565b60055460408051631f0b96b960e31b81529051611147926001600160a01b03169163f85cb5c8916004808301926020929190829003018186803b15801561110557600080fd5b505afa158015611119573d6000803e3d6000fd5b505050506040513d602081101561112f57600080fd5b50516001600160a01b038381169116141560366137f7565b60125461115e90610100900460ff161560346137f7565b6000816001600160a01b03166370a08231306040518263ffffffff1660e01b815260040180826001600160a01b0316815260200191505060206040518083038186803b1580156111ad57600080fd5b505afa1580156111c1573d6000803e3d6000fd5b505050506040513d60208110156111d757600080fd5b505190506111e881151560086137f7565b61126c8282600560009054906101000a90046001600160a01b03166001600160a01b031663f85cb5c86040518163ffffffff1660e01b815260040160206040518083038186803b15801561123b57600080fd5b505afa15801561124f573d6000803e3d6000fd5b505050506040513d602081101561126557600080fd5b5051613805565b50611275613b01565b5050565b601254610100900460ff1681565b60185481565b60165481565b600e5481565b600080805b60025460ff8216101561137f5781806113755750600160029054906101000a90046001600160a01b03166001600160a01b0316632010419860028360ff16815481106112e657fe5b90600052602060002090602091828204019190069054906101000a900460ff166040518263ffffffff1660e01b8152600401808260ff16815260200191505060206040518083038186803b15801561133d57600080fd5b505afa158015611351573d6000803e3d6000fd5b505050506040513d602081101561136757600080fd5b50516001600160a01b031633145b915060010161129e565b5061138b81604c6137f7565b611396858585613805565b95945050505050565b60135481565b8061143e600160029054906101000a90046001600160a01b03166001600160a01b031663411137c3336040518263ffffffff1660e01b815260040180826001600160a01b0316815260200191505060206040518083038186803b15801561140b57600080fd5b505afa15801561141f573d6000803e3d6000fd5b505050506040513d602081101561143557600080fd5b505160126137f7565b611454670de0b6b3a764000082111560136137f7565b600260005414156114ac576040805162461bcd60e51b815260206004820152601f60248201527f5265656e7472616e637947756172643a207265656e7472616e742063616c6c00604482015290519081900360640190fd5b60026000556005546040805163017d862f60e11b8152905161152f926001600160a01b0316916302fb0c5e916004808301926020929190829003018186803b1580156114f757600080fd5b505afa15801561150b573d6000803e3d6000fd5b505050506040513d602081101561152157600080fd5b5051151560011460236137f7565b60125461154690610100900460ff161560346137f7565b61154e613c39565b60055460408051634d5b1ba160e11b81523360048201526024810185905290516001600160a01b0390921691639ab637429160448082019260009290919082900301818387803b1580156115a157600080fd5b505af11580156115b5573d6000803e3d6000fd5b50506005546040805142815290516001600160a01b0390921693507f7a7d4c833d273b66e431c5f268c42ee3e788541592e07c77f232cd28c8991316925081900360200190a250506001600055565b6000805b60025460ff821610156116e95781806116df5750600160029054906101000a90046001600160a01b03166001600160a01b0316632010419860028360ff168154811061165057fe5b90600052602060002090602091828204019190069054906101000a900460ff166040518263ffffffff1660e01b8152600401808260ff16815260200191505060206040518083038186803b1580156116a757600080fd5b505afa1580156116bb573d6000803e3d6000fd5b505050506040513d60208110156116d157600080fd5b50516001600160a01b031633145b9150600101611608565b506116f581604c6137f7565b82156117685773c02aaa39b223fe8d0a0e5c4f27ead9083c756cc26001600160a01b031663d0e30db0836040518263ffffffff1660e01b81526004016000604051808303818588803b15801561174a57600080fd5b505af115801561175e573d6000803e3d6000fd5b50505050506117db565b73c02aaa39b223fe8d0a0e5c4f27ead9083c756cc26001600160a01b0316632e1a7d4d836040518263ffffffff1660e01b815260040180828152602001915050600060405180830381600087803b1580156117c257600080fd5b505af11580156117d6573d6000803e3d6000fd5b505050505b505050565b80611846600160029054906101000a90046001600160a01b03166001600160a01b031663411137c3336040518263ffffffff1660e01b815260040180826001600160a01b0316815260200191505060206040518083038186803b15801561140b57600080fd5b61185c670de0b6b3a764000082111560136137f7565b6005546040805163017d862f60e11b815290516118a2926001600160a01b0316916302fb0c5e916004808301926020929190829003018186803b1580156114f757600080fd5b600554604080517ff251fc8c0000000000000000000000000000000000000000000000000000000081529051611948926001600160a01b03169163f251fc8c916004808301926020929190829003018186803b15801561190157600080fd5b505afa158015611915573d6000803e3d6000fd5b505050506040513d602081101561192b57600080fd5b505160011461193b57600261193e565b60015b88101560406137f7565b60125461196e90610100900460ff16158015611967575060125460ff16155b602a6137f7565b61199362093a8061198a60085442613cfe90919063ffffffff16565b1115602b6137f7565b6012805461ff00191661010017905560005b878110156119fb578686828181106119b957fe5b90506020020135601e60008b8b858181106119d057fe5b602090810292909201356001600160a01b0316835250810191909152604001600020556001016119a5565b50611a22611a1d6002611a1786611a1189613d5b565b90613da3565b90613e08565b613ec0565b601055611a40611a1d6002611a1786611a3a89613d5b565b90613f17565b601155611a4f600d8989615305565b50600f805485019055600e805484019055426009819055600554604080518781526020810187905280820193909352516001600160a01b03909116917f84d16af09d51e9126d9f6eddb4e8c072bb4b01dccb1f72e266ed2f66fc4b3792919081900360600190a260055460408051634d5b1ba160e11b81523360048201526024810185905290516001600160a01b0390921691639ab637429160448082019260009290919082900301818387803b158015611b0957600080fd5b505af1158015611b1d573d6000803e3d6000fd5b505050505050505050505050565b6006546001600160a01b031681565b60195481565b601a8181548110611b5057600080fd5b6000918252602090912001546001600160a01b0316905081565b60145481565b600554611c15906001600160a01b0316331480611c0e5750600160029054906101000a90046001600160a01b03166001600160a01b0316638da5cb5b6040518163ffffffff1660e01b815260040160206040518083038186803b158015611bd657600080fd5b505afa158015611bea573d6000803e3d6000fd5b505050506040513d6020811015611c0057600080fd5b50516001600160a01b031633145b601f6137f7565b60026000541415611c6d576040805162461bcd60e51b815260206004820152601f60248201527f5265656e7472616e637947756172643a207265656e7472616e742063616c6c00604482015290519081900360640190fd5b6002600055601254611c9790610100900460ff168015611c90575060125460ff16155b602c6137f7565b611cbb611cb1601954601654613cfe90919063ffffffff16565b82111560336137f7565b611cd8611cd360165483613f7c90919063ffffffff16565b613f9a565b42600b55601654611ce99082613cfe565b601655600154604080517f3f2a554000000000000000000000000000000000000000000000000000000000815290516000926201000090046001600160a01b031691633f2a5540916004808301926020929190829003018186803b158015611d5057600080fd5b505afa158015611d64573d6000803e3d6000fd5b505050506040513d6020811015611d7a57600080fd5b50519050611d86614151565b15611dea57806001600160a01b031663f5750d0f836040518263ffffffff1660e01b815260040180828152602001915050600060405180830381600087803b158015611dd157600080fd5b505af1158015611de5573d6000803e3d6000fd5b505050505b60055460408051631f0b96b960e31b81529051611f54926001600160a01b031691829163f85cb5c891600480820192602092909190829003018186803b158015611e3357600080fd5b505afa158015611e47573d6000803e3d6000fd5b505050506040513d6020811015611e5d57600080fd5b5051604080516370a0823160e01b815230600482015290516001600160a01b03909216916370a0823191602480820192602092909190829003018186803b158015611ea757600080fd5b505afa158015611ebb573d6000803e3d6000fd5b505050506040513d6020811015611ed157600080fd5b505160055460408051631f0b96b960e31b815290516001600160a01b039092169163f85cb5c891600480820192602092909190829003018186803b158015611f1857600080fd5b505afa158015611f2c573d6000803e3d6000fd5b505050506040513d6020811015611f4257600080fd5b50516001600160a01b03169190614277565b6005546040805184815242602082015281516001600160a01b03909316927fcff91fcd7fff5d12ce9ee075980ad73fde31d99f583cb228a04ee0ef4f34ba6f929181900390910190a250506001600055565b60115481565b600080600060028460ff1681548110611fc157fe5b90600052602060002090602091828204019190069054906101000a900460ff1660038560ff1681548110611ff157fe5b600091825260209091200154600480546001600160a01b039092169160ff881690811061201a57fe5b60009182526020909120015491945092506001600160a01b031690509193909250565b600654612056906001600160a01b0316331460206137f7565b6012546120689060ff161560326137f7565b612077601354821060356137f7565b60135460408051838152602081019290925280517f42fb010605de46a36c4814784d207e3b8a1ce9f6773eaea652c07d2a07e95e579281900390910190a1601355565b6005546001600160a01b031681565b6006546120e2906001600160a01b0316331460206137f7565b6120ea613c39565b6005546040805142815290516001600160a01b03909216917f4dcd504f23c1c204f965486c526a1e35cfb215bb4823dd1be0a172277bb1b3459181900360200190a2565b81612194600160029054906101000a90046001600160a01b03166001600160a01b031663411137c3336040518263ffffffff1660e01b815260040180826001600160a01b0316815260200191505060206040518083038186803b15801561140b57600080fd5b6121aa670de0b6b3a764000082111560136137f7565b60026000541415612202576040805162461bcd60e51b815260206004820152601f60248201527f5265656e7472616e637947756172643a207265656e7472616e742063616c6c00604482015290519081900360640190fd5b60026000556005546040805163017d862f60e11b8152905161224d926001600160a01b0316916302fb0c5e916004808301926020929190829003018186803b1580156114f757600080fd5b61225d6000600a541160306137f7565b612280612277601354600a5461379490919063ffffffff16565b421160316137f7565b6012546122929060ff161560326137f7565b6122a3670de0b6b3a7640000613f9a565b6012805461ff001960ff1990911660011716905542600c819055600b55600754600654604080517f3b5bb1d50000000000000000000000000000000000000000000000000000000081526001600160a01b0392831660048201818152602483019384528751604484015287519490951694633b5bb1d594919388939192909160640190602085019080838360005b83811015612349578181015183820152602001612331565b50505050905090810190601f1680156123765780820380516001836020036101000a031916815260200191505b509350505050602060405180830381600087803b15801561239657600080fd5b505af11580156123aa573d6000803e3d6000fd5b505050506040513d60208110156123c057600080fd5b506123cc9050836142f7565b6123d4613b01565b60055460185460408051918252602082018690524282820152516001600160a01b03909216917f2d21f7a1772dd51a6d96bd1cb40623cb13b73fd3d037618d9688707ce1b5b9569181900360600190a260055460408051634d5b1ba160e11b81523360048201526024810186905290516001600160a01b0390921691639ab637429160448082019260009290919082900301818387803b15801561247757600080fd5b505af115801561248b573d6000803e3d6000fd5b505060016000555050505050565b60606126c2600160029054906101000a90046001600160a01b03166001600160a01b031663f4330b49336001600160a01b03166317d7de7c6040518163ffffffff1660e01b815260040160006040518083038186803b1580156124fb57600080fd5b505afa15801561250f573d6000803e3d6000fd5b505050506040513d6000823e601f3d908101601f19168201604052602081101561253857600080fd5b810190808051604051939291908464010000000082111561255857600080fd5b90830190602082018581111561256d57600080fd5b825164010000000081118282018810171561258757600080fd5b82525081516020918201929091019080838360005b838110156125b457818101518382015260200161259c565b50505050905090810190601f1680156125e15780820380516001836020036101000a031916815260200191505b50604052505050336040518363ffffffff1660e01b81526004018080602001836001600160a01b03168152602001828103825284818151815260200191508051906020019080838360005b8381101561264457818101518382015260200161262c565b50505050905090810190601f1680156126715780820380516001836020036101000a031916815260200191505b50935050505060206040518083038186803b15801561268f57600080fd5b505afa1580156126a3573d6000803e3d6000fd5b505050506040513d60208110156126b957600080fd5b505160216137f7565b611396858585858080601f016020809104026020016040519081016040528093929190818152602001838380828437600092019190915250614aa992505050565b601c5481565b60085481565b600b5481565b601b818154811061272557600080fd5b600091825260209091200154905081565b600a5481565b6007546001600160a01b031681565b6002818154811061275b57600080fd5b9060005260206000209060209182820401919006915054906101000a900460ff1681565b60048181548110611b5057600080fd5b60155481565b60125462010000900460ff1681565b6001600160a01b03166000908152601e602052604090205490565b61281f600160029054906101000a90046001600160a01b03166001600160a01b031663f4330b49336001600160a01b03166317d7de7c6040518163ffffffff1660e01b815260040160006040518083038186803b1580156124fb57600080fd5b816001600160a01b031663095ea7b384836040518363ffffffff1660e01b815260040180836001600160a01b0316815260200182815260200192505050602060405180830381600087803b15801561287657600080fd5b505af115801561288a573d6000803e3d6000fd5b505050506040513d60208110156128a057600080fd5b5050505050565b60038181548110611b5057600080fd5b60095481565b600154610100900460ff16806128d657506128d6614bd3565b806128e4575060015460ff16155b61291f5760405162461bcd60e51b815260040180806020018281038252602e81526020018061546e602e913960400191505060405180910390fd5b600154610100900460ff16158015612949576001805460ff1961ff00199091166101001716811790555b600180547fffffffffffffffffffff0000000000000000000000000000000000000000ffff16620100006001600160a01b038b811682029290921792839055604080517f13bc6d4b0000000000000000000000000000000000000000000000000000000081528d841660048201529051612a1d9492909204909216916313bc6d4b916024808301926020929190829003018186803b1580156129ea57600080fd5b505afa1580156129fe573d6000803e3d6000fd5b505050506040513d6020811015612a1457600080fd5b505160246137f7565b6005805473ffffffffffffffffffffffffffffffffffffffff19166001600160a01b038b81169190911791829055604080517fc40868930000000000000000000000000000000000000000000000000000000081528d831660048201529051600093612b7993169163c4086893916024808301926020929190829003018186803b158015612aaa57600080fd5b505afa158015612abe573d6000803e3d6000fd5b505050506040513d6020811015612ad457600080fd5b8101908080519060200190929190505050600560009054906101000a90046001600160a01b03166001600160a01b03166370a082318e6040518263ffffffff1660e01b815260040180826001600160a01b0316815260200191505060206040518083038186803b158015612b4757600080fd5b505afa158015612b5b573d6000803e3d6000fd5b505050506040513d6020811015612b7157600080fd5b505190613cfe565b600554604080516370a0823160e01b81526001600160a01b038f811660048301529151939450612c059360009392909216916370a0823191602480820192602092909190829003018186803b158015612bd157600080fd5b505afa158015612be5573d6000803e3d6000fd5b505050506040513d6020811015612bfb57600080fd5b50511160256137f7565b612c138782101560076137f7565b612c216000881160266137f7565b600554604080517f95cdbedb0000000000000000000000000000000000000000000000000000000081529051612d3b926001600160a01b0316916395cdbedb916004808301926020929190829003018186803b158015612c8057600080fd5b505afa158015612c94573d6000803e3d6000fd5b505050506040513d6020811015612caa57600080fd5b50518710801590612d345750600560009054906101000a90046001600160a01b03166001600160a01b031663297ce5986040518163ffffffff1660e01b815260040160206040518083038186803b158015612d0457600080fd5b505afa158015612d18573d6000803e3d6000fd5b505050506040513d6020811015612d2e57600080fd5b50518711155b60276137f7565b612d51670de0b6b3a764000085101560396137f7565b612d5f8489101560296137f7565b612d756001600160a01b0384161515603a6137f7565b600780546001600160a01b0380861673ffffffffffffffffffffffffffffffffffffffff199283161790925560068054928e169290911691909117905542600855601487905560138690556017859055600060165560198490556015889055612ddd87613d5b565b600e55612de987613d5b565b6001600160a01b038c166000908152601e602052604090205550600f8690556012805462ff0000191690558015612e26576001805461ff00191690555b50505050505050505050565b60125460ff1681565b601254600a54600c54600b54309460ff610100860481169562010000810482169591169390929091565b600554612e93906001600160a01b031633148015612e8c575060125462010000900460ff16155b60226137f7565b612eab8584148015612ea457508382145b604b6137f7565b612ec3600682108015612ea45750811515604b6137f7565b60005b85811015613207576001546201000090046001600160a01b03166320104198888884818110612ef157fe5b9050602002013560ff166040518263ffffffff1660e01b8152600401808260ff16815260200191505060206040518083038186803b158015612f3257600080fd5b505afa158015612f46573d6000803e3d6000fd5b505050506040513d6020811015612f5c57600080fd5b50516001600160a01b031663c8cd3075848484818110612f7857fe5b6005546001600160a01b0360209092029390930135811692169050888886818110612f9f57fe5b905060200201356001600160a01b0316856040518563ffffffff1660e01b815260040180856001600160a01b03168152602001846001600160a01b03168152602001836001600160a01b0316815260200182815260200194505050505060006040518083038186803b15801561301457600080fd5b505afa158015613028573d6000803e3d6000fd5b50506001546131ff92506201000090046001600160a01b0316905063f4330b4987878581811061305457fe5b905060200201356001600160a01b03166001600160a01b03166317d7de7c6040518163ffffffff1660e01b815260040160006040518083038186803b15801561309c57600080fd5b505afa1580156130b0573d6000803e3d6000fd5b505050506040513d6000823e601f3d908101601f1916820160405260208110156130d957600080fd5b81019080805160405193929190846401000000008211156130f957600080fd5b90830190602082018581111561310e57600080fd5b825164010000000081118282018810171561312857600080fd5b82525081516020918201929091019080838360005b8381101561315557818101518382015260200161313d565b50505050905090810190601f1680156131825780820380516001836020036101000a031916815260200191505b5060405250505088888681811061319557fe5b905060200201356001600160a01b03166040518363ffffffff1660e01b81526004018080602001836001600160a01b03168152602001828103825284818151815260200191508051906020019080838360008381101561264457818101518382015260200161262c565b600101612ec6565b5061321460028787615371565b5061322160038585615305565b5061322e60048383615305565b50506012805462ff00001916620100001790555050505050565b600f5481565b600c5481565b60175481565b60105481565b601e6020526000908152604090205481565b600d8181548110611b5057600080fd5b601d5481565b60025490565b600080600a541180156132a15750600c54155b905090565b8061330c600160029054906101000a90046001600160a01b03166001600160a01b031663411137c3336040518263ffffffff1660e01b815260040180826001600160a01b0316815260200191505060206040518083038186803b15801561140b57600080fd5b613322670de0b6b3a764000082111560136137f7565b6002600054141561337a576040805162461bcd60e51b815260206004820152601f60248201527f5265656e7472616e637947756172643a207265656e7472616e742063616c6c00604482015290519081900360640190fd5b60026000556005546040805163017d862f60e11b815290516133c5926001600160a01b0316916302fb0c5e916004808301926020929190829003018186803b1580156114f757600080fd5b6012546133db90610100900460ff16602c6137f7565b6133ff6015546133f68560165461379490919063ffffffff16565b1115602d6137f7565b61340f601954841015602e6137f7565b600554604080517f3deddb3f00000000000000000000000000000000000000000000000000000000815290516134b1926001600160a01b031691633deddb3f916004808301926020929190829003018186803b15801561346e57600080fd5b505afa158015613482573d6000803e3d6000fd5b505050506040513d602081101561349857600080fd5b50516009546134a8904290613cfe565b1015602f6137f7565b600554604080517f4422b0dc0000000000000000000000000000000000000000000000000000000081526004810186905290516001600160a01b0390921691634422b0dc9160248082019260009290919082900301818387803b15801561351757600080fd5b505af115801561352b573d6000803e3d6000fd5b505060165461353d9250905084613794565b60165561354983614be4565b6000600160029054906101000a90046001600160a01b03166001600160a01b0316633f2a55406040518163ffffffff1660e01b815260040160206040518083038186803b15801561359957600080fd5b505afa1580156135ad573d6000803e3d6000fd5b505050506040513d60208110156135c357600080fd5b5051600a549091506135d85742600a55613614565b6135e0614151565b1561361457613610613607613600600b5442613cfe90919063ffffffff16565b8690614e47565b601d5490613794565b601d555b61361c614151565b1561368057806001600160a01b0316630fa454cf856040518263ffffffff1660e01b815260040180828152602001915050600060405180830381600087803b15801561366757600080fd5b505af115801561367b573d6000803e3d6000fd5b505050505b60055460408051634d5b1ba160e11b81523360048201526024810186905290516001600160a01b0390921691639ab637429160448082019260009290919082900301818387803b1580156136d357600080fd5b505af11580156136e7573d6000803e3d6000fd5b505042600b819055600554604080518981526020810189905280820193909352516001600160a01b0390911693507f7f4467a4ca8be02143a9253e6c31362c7bc755929e5c68faf659636d307f1b8c92509081900360600190a2505060016000555050565b6001546201000090046001600160a01b031681565b600654600354601454600f54600e54601654601854601354601754601554601954600854309b6001600160a01b03169b9c565b6000828201838110156137ee576040805162461bcd60e51b815260206004820152601b60248201527f536166654d6174683a206164646974696f6e206f766572666c6f770000000000604482015290519081900360640190fd5b90505b92915050565b816112755761127581614ea0565b600080600160029054906101000a90046001600160a01b03166001600160a01b0316636176605e6040518163ffffffff1660e01b815260040160206040518083038186803b15801561385657600080fd5b505afa15801561386a573d6000803e3d6000fd5b505050506040513d602081101561388057600080fd5b5051600154604080517f2630c12f0000000000000000000000000000000000000000000000000000000081529051929350600092620100009092046001600160a01b031691632630c12f91600480820192602092909190829003018186803b1580156138eb57600080fd5b505afa1580156138ff573d6000803e3d6000fd5b505050506040513d602081101561391557600080fd5b5051604080517f5e684bb30000000000000000000000000000000000000000000000000000000081526001600160a01b0389811660048301528781166024830152915192935090831691635e684bb39160448082019260009290919082900301818387803b15801561398657600080fd5b505af115801561399a573d6000803e3d6000fd5b505050506000816001600160a01b031663ac41865a88876040518363ffffffff1660e01b815260040180836001600160a01b03168152602001826001600160a01b031681526020019250505060206040518083038186803b1580156139fe57600080fd5b505afa158015613a12573d6000803e3d6000fd5b505050506040513d6020811015613a2857600080fd5b505190506000613a388783614ef3565b90506000613a57613a5083662386f26fc10000614ef3565b8390613cfe565b604080517ffa1ca8200000000000000000000000000000000000000000000000000000000081523060048201526001600160a01b038c81166024830152604482018c90528a811660648301526084820184905291519293509087169163fa1ca8209160a48082019260009290919082900301818387803b158015613ada57600080fd5b505af1158015613aee573d6000803e3d6000fd5b50929750505050505050505b9392505050565b60055460408051631f0b96b960e31b815290516000926001600160a01b03169163f85cb5c8916004808301926020929190829003018186803b158015613b4657600080fd5b505afa158015613b5a573d6000803e3d6000fd5b505050506040513d6020811015613b7057600080fd5b5051604080516370a0823160e01b815230600482015290516001600160a01b03909216916370a0823191602480820192602092909190829003018186803b158015613bba57600080fd5b505afa158015613bce573d6000803e3d6000fd5b505050506040513d6020811015613be457600080fd5b505160055460408051631f0b96b960e31b81529051929350613c36926001600160a01b03909216918491839163f85cb5c891600480820192602092909190829003018186803b158015611f1857600080fd5b50565b613c5d62093a80613c5560085442613cfe90919063ffffffff16565b1160376137f7565b613c6d600a5460001460386137f7565b601254613c7f9060ff161560326137f7565b600554604080517fb2644e6600000000000000000000000000000000000000000000000000000000815230600482015290516001600160a01b039092169163b2644e669160248082019260009290919082900301818387803b158015613ce457600080fd5b505af1158015613cf8573d6000803e3d6000fd5b50505050565b600082821115613d55576040805162461bcd60e51b815260206004820152601e60248201527f536166654d6174683a207375627472616374696f6e206f766572666c6f770000604482015290519081900360640190fd5b50900390565b6000600160ff1b8210613d9f5760405162461bcd60e51b81526004018080602001828103825260288152602001806155076028913960400191505060405180910390fd5b5090565b6000828201818312801590613db85750838112155b80613dcd5750600083128015613dcd57508381125b6137ee5760405162461bcd60e51b81526004018080602001828103825260218152602001806154276021913960400191505060405180910390fd5b600081613e5c576040805162461bcd60e51b815260206004820181905260248201527f5369676e6564536166654d6174683a206469766973696f6e206279207a65726f604482015290519081900360640190fd5b81600019148015613e705750600160ff1b83145b15613eac5760405162461bcd60e51b815260040180806020018281038252602181526020018061549c6021913960400191505060405180910390fd5b6000828481613eb757fe5b05949350505050565b600080821215613d9f576040805162461bcd60e51b815260206004820181905260248201527f53616665436173743a2076616c7565206d75737420626520706f736974697665604482015290519081900360640190fd5b6000818303818312801590613f2c5750838113155b80613f415750600083128015613f4157508381135b6137ee5760405162461bcd60e51b815260040180806020018281038252602481526020018061552f6024913960400191505060405180910390fd5b60006137ee82613f9485670de0b6b3a7640000614e47565b90614f0b565b6002545b801561127557600154600280546000926201000090046001600160a01b0316916320104198916000198601908110613fd257fe5b90600052602060002090602091828204019190069054906101000a900460ff166040518263ffffffff1660e01b8152600401808260ff16815260200191505060206040518083038186803b15801561402957600080fd5b505afa15801561403d573d6000803e3d6000fd5b505050506040513d602081101561405357600080fd5b5051600480549192506001600160a01b0383169163419ea18a918691600019870190811061407d57fe5b600091825260209091200154600554600380546001600160a01b03938416939092169160001989019081106140ae57fe5b6000918252602082200154604080517fffffffff0000000000000000000000000000000000000000000000000000000060e089901b16815260048101969096526001600160a01b03948516602487015292841660448601529290921660648401525160848084019382900301818387803b15801561412b57600080fd5b505af115801561413f573d6000803e3d6000fd5b50506000199093019250613f9e915050565b600080600160029054906101000a90046001600160a01b03166001600160a01b0316633f2a55406040518163ffffffff1660e01b815260040160206040518083038186803b1580156141a257600080fd5b505afa1580156141b6573d6000803e3d6000fd5b505050506040513d60208110156141cc57600080fd5b5051604080517fddaa26ad00000000000000000000000000000000000000000000000000000000815290519192506000916001600160a01b0384169163ddaa26ad916004808301926020929190829003018186803b15801561422d57600080fd5b505afa158015614241573d6000803e3d6000fd5b505050506040513d602081101561425757600080fd5b50516008549091506000908210801561426f57508115155b935050505090565b604080516001600160a01b038416602482015260448082018490528251808303909101815260649091019091526020810180517bffffffffffffffffffffffffffffffffffffffffffffffffffffffff167fa9059cbb000000000000000000000000000000000000000000000000000000001790526117db908490614f72565b6143bd81600560009054906101000a90046001600160a01b03166001600160a01b031663f85cb5c86040518163ffffffff1660e01b815260040160206040518083038186803b15801561434957600080fd5b505afa15801561435d573d6000803e3d6000fd5b505050506040513d602081101561437357600080fd5b5051604080516370a0823160e01b815230600482015290516001600160a01b03909216916370a0823191602480820192602092909190829003018186803b158015612b4757600080fd5b60185560055460408051631f0b96b960e31b815290516000926001600160a01b03169163f85cb5c8916004808301926020929190829003018186803b15801561440557600080fd5b505afa158015614419573d6000803e3d6000fd5b505050506040513d602081101561442f57600080fd5b50516016549091506000906144529061444790613d5b565b611a3a601854613d5b565b905060008060165460185411614469576000614478565b60165460185461447891613cfe565b9050601654601854106145af5761450981600160029054906101000a90046001600160a01b03166001600160a01b031663568c08136040518163ffffffff1660e01b815260040160206040518083038186803b1580156144d757600080fd5b505afa1580156144eb573d6000803e3d6000fd5b505050506040513d602081101561450157600080fd5b505190614ef3565b915061459b30600160029054906101000a90046001600160a01b03166001600160a01b03166361d027b36040518163ffffffff1660e01b815260040160206040518083038186803b15801561455d57600080fd5b505afa158015614571573d6000803e3d6000fd5b505050506040513d602081101561458757600080fd5b50516001600160a01b038716919085615023565b6145a9836000849003613da3565b50614797565b60006145f26718493fba64ef00006145ec6145e36014546145dd601654601854613f7c90919063ffffffff16565b90614ef3565b60145490613cfe565b906150ab565b600554600654604080516370a0823160e01b81526001600160a01b0392831660048201529051939450849391909216916370a08231916024808301926020929190829003018186803b15801561464757600080fd5b505afa15801561465b573d6000803e3d6000fd5b505050506040513d602081101561467157600080fd5b505110156146f857600554600654604080516370a0823160e01b81526001600160a01b039283166004820152905191909216916370a08231916024808301926020929190829003018186803b1580156146c957600080fd5b505afa1580156146dd573d6000803e3d6000fd5b505050506040513d60208110156146f357600080fd5b505190505b600554600654604080517f2befcc5c0000000000000000000000000000000000000000000000000000000081526001600160a01b0392831660048201526024810185905290519190921691632befcc5c91604480830192600092919082900301818387803b15801561476957600080fd5b505af115801561477d573d6000803e3d6000fd5b505050506147948185613da390919063ffffffff16565b50505b6005546018546147cb9130916001600160a01b03909116906147b99086613cfe565b6001600160a01b038816929190615023565b6000600160029054906101000a90046001600160a01b03166001600160a01b0316632e0519cf6040518163ffffffff1660e01b815260040160606040518083038186803b15801561481b57600080fd5b505afa15801561482f573d6000803e3d6000fd5b505050506040513d606081101561484557600080fd5b50604001516005549091506001600160a01b031663250caaa861489061486b8585614ef3565b61488a8661488489601854613cfe90919063ffffffff16565b90613cfe565b90613794565b6148a8866148846148a18888614ef3565b8890613cfe565b87306040518563ffffffff1660e01b815260040180858152602001848152602001838152602001826001600160a01b03168152602001945050505050600060405180830381600087803b1580156148fe57600080fd5b505af1158015614912573d6000803e3d6000fd5b505050506000600160029054906101000a90046001600160a01b03166001600160a01b0316633f2a55406040518163ffffffff1660e01b815260040160206040518083038186803b15801561496657600080fd5b505afa15801561497a573d6000803e3d6000fd5b505050506040513d602081101561499057600080fd5b5051905061499c614151565b15614a0257806001600160a01b031663f5750d0f6016546040518263ffffffff1660e01b815260040180828152602001915050600060405180830381600087803b1580156149e957600080fd5b505af11580156149fd573d6000803e3d6000fd5b505050505b604080517f9de9a05200000000000000000000000000000000000000000000000000000000815230600482015290516001600160a01b03831691639de9a0529160248083019260209291908290030181600087803b158015614a6357600080fd5b505af1158015614a77573d6000803e3d6000fd5b505050506040513d6020811015614a8d57600080fd5b50516bffffffffffffffffffffffff16601c5550505050505050565b6060614abf6001600160a01b03851683856150c7565b905082846001600160a01b03167f2a936dbabeaea30adc1ddad138b1958497988474bef8b09a29411f0105ab8ab28484604051808060200180602001838103835285818151815260200191508051906020019080838360005b83811015614b30578181015183820152602001614b18565b50505050905090810190601f168015614b5d5780820380516001836020036101000a031916815260200191505b50838103825284518152845160209182019186019080838360005b83811015614b90578181015183820152602001614b78565b50505050905090810190601f168015614bbd5780820380516001836020036101000a031916815260200191505b5094505050505060405180910390a39392505050565b6000614bde306150f5565b15905090565b60055460408051631f0b96b960e31b8152905183926000926001600160a01b039091169163f85cb5c891600480820192602092909190829003018186803b158015614c2e57600080fd5b505afa158015614c42573d6000803e3d6000fd5b505050506040513d6020811015614c5857600080fd5b505190506000805b6002548110156128a057600154600280546000926201000090046001600160a01b03169163201041989185908110614c9457fe5b90600052602060002090602091828204019190069054906101000a900460ff166040518263ffffffff1660e01b8152600401808260ff16815260200191505060206040518083038186803b158015614ceb57600080fd5b505afa158015614cff573d6000803e3d6000fd5b505050506040513d6020811015614d1557600080fd5b5051600480549192506001600160a01b038316916355d9750b9187918991889188908110614d3f57fe5b600091825260209091200154600554600380546001600160a01b0393841693909216918a908110614d6c57fe5b6000918252602082200154604080517fffffffff0000000000000000000000000000000000000000000000000000000060e08b901b1681526001600160a01b039889166004820152602481019790975260ff909516604487015292861660648601529085166084850152931660a48301525160c48083019360609383900390910190829087803b158015614dff57600080fd5b505af1158015614e13573d6000803e3d6000fd5b505050506040513d6060811015614e2957600080fd5b50805160208201516040909201519196509450925050600101614c60565b600082614e56575060006137f1565b82820282848281614e6357fe5b04146137ee5760405162461bcd60e51b81526004018080602001828103825260218152602001806154e66021913960400191505060405180910390fd5b62461bcd60e51b6000908152602060045260076024526642414223000030600a808404818106603090810160081b95839006959095019082900491820690940160101b939093010160c81b604452606490fd5b60006137ee670de0b6b3a7640000613f948585614e47565b6000808211614f61576040805162461bcd60e51b815260206004820152601a60248201527f536166654d6174683a206469766973696f6e206279207a65726f000000000000604482015290519081900360640190fd5b818381614f6a57fe5b049392505050565b6000614fc7826040518060400160405280602081526020017f5361666545524332303a206c6f772d6c6576656c2063616c6c206661696c6564815250856001600160a01b03166150fb9092919063ffffffff16565b8051909150156117db57808060200190516020811015614fe657600080fd5b50516117db5760405162461bcd60e51b815260040180806020018281038252602a815260200180615553602a913960400191505060405180910390fd5b604080516001600160a01b0380861660248301528416604482015260648082018490528251808303909101815260849091019091526020810180517bffffffffffffffffffffffffffffffffffffffffffffffffffffffff167f23b872dd00000000000000000000000000000000000000000000000000000000179052613cf8908590614f72565b6000670de0b6b3a76400006150c08484614e47565b81614f6a57fe5b60606150ed8484846040518060600160405280602981526020016154bd60299139615106565b949350505050565b3b151590565b60606150ed84846000855b6060824710156151475760405162461bcd60e51b81526004018080602001828103825260268152602001806154486026913960400191505060405180910390fd5b615150856150f5565b6151a1576040805162461bcd60e51b815260206004820152601d60248201527f416464726573733a2063616c6c20746f206e6f6e2d636f6e7472616374000000604482015290519081900360640190fd5b600080866001600160a01b031685876040518082805190602001908083835b602083106151df5780518252601f1990920191602091820191016151c0565b6001836020036101000a03801982511681845116808217855250505050505090500191505060006040518083038185875af1925050503d8060008114615241576040519150601f19603f3d011682016040523d82523d6000602084013e615246565b606091505b5091509150615256828286615261565b979650505050505050565b60608315615270575081613afa565b8251156152805782518084602001fd5b8160405162461bcd60e51b81526004018080602001828103825283818151815260200191508051906020019080838360005b838110156152ca5781810151838201526020016152b2565b50505050905090810190601f1680156152f75780820380516001836020036101000a031916815260200191505b509250505060405180910390fd5b828054828255906000526020600020908101928215615365579160200282015b8281111561536557815473ffffffffffffffffffffffffffffffffffffffff19166001600160a01b03843516178255602090920191600190910190615325565b50613d9f929150615411565b82805482825590600052602060002090601f016020900481019282156153655791602002820160005b838211156153db57833560ff1683826101000a81548160ff021916908360ff160217905550926020019260010160208160000104928301926001030261539a565b80156154085782816101000a81549060ff02191690556001016020816000010492830192600103026153db565b5050613d9f9291505b5b80821115613d9f576000815560010161541256fe5369676e6564536166654d6174683a206164646974696f6e206f766572666c6f77416464726573733a20696e73756666696369656e742062616c616e636520666f722063616c6c496e697469616c697a61626c653a20636f6e747261637420697320616c726561647920696e697469616c697a65645369676e6564536166654d6174683a206469766973696f6e206f766572666c6f77416464726573733a206c6f772d6c6576656c2063616c6c20776974682076616c7565206661696c6564536166654d6174683a206d756c7469706c69636174696f6e206f766572666c6f7753616665436173743a2076616c756520646f65736e27742066697420696e20616e20696e743235365369676e6564536166654d6174683a207375627472616374696f6e206f766572666c6f775361666545524332303a204552433230206f7065726174696f6e20646964206e6f742073756363656564a264697066735822122057b3b73ec0783ae83be6772bf196a39abc1d1d421310dcaa399aca7f57c148f764736f6c63430007060033608060405234801561001057600080fd5b50612c29806100206000396000f3fe608060405234801561001057600080fd5b50600436106101985760003560e01c806356ba88b8116100e3578063a8c62e761161008c578063ca6e9f7611610066578063ca6e9f7614610703578063e985e9c5146107a9578063f77c4791146107d757610198565b8063a8c62e7614610618578063b88d4fde14610620578063c87b56dd146106e657610198565b806370a08231116100bd57806370a08231146105bc57806395d89b41146105e2578063a22cb465146105ea57610198565b806356ba88b81461058f5780636352211e146105975780636c0360eb146105b457610198565b806323b872dd116101455780633c130d901161011f5780633c130d901461053457806342842e0e1461053c5780634f6ccce71461057257610198565b806323b872dd1461041c5780632f745c59146104525780633b5bb1d51461047e57610198565b8063095ea7b311610176578063095ea7b31461028e57806318160ddd146102bc5780632016a0d2146102d657610198565b806301ffc9a71461019d57806306fdde03146101d8578063081812fc14610255575b600080fd5b6101c4600480360360208110156101b357600080fd5b50356001600160e01b0319166107df565b604080519115158252519081900360200190f35b6101e0610802565b6040805160208082528351818301528351919283929083019185019080838360005b8381101561021a578181015183820152602001610202565b50505050905090810190601f1680156102475780820380516001836020036101000a031916815260200191505b509250505060405180910390f35b6102726004803603602081101561026b57600080fd5b5035610898565b604080516001600160a01b039092168252519081900360200190f35b6102ba600480360360408110156102a457600080fd5b506001600160a01b0381351690602001356108fa565b005b6102c46109d5565b60408051918252519081900360200190f35b6102ba600480360360808110156102ec57600080fd5b6001600160a01b03823581169260208101359091169181019060608101604082013564010000000081111561032057600080fd5b82018360208201111561033257600080fd5b8035906020019184600183028401116401000000008311171561035457600080fd5b91908080601f01602080910402602001604051908101604052809392919081815260200183838082843760009201919091525092959493602081019350359150506401000000008111156103a757600080fd5b8201836020820111156103b957600080fd5b803590602001918460018302840111640100000000831117156103db57600080fd5b91908080601f0160208091040260200160405190810160405280939291908181526020018383808284376000920191909152509295506109e6945050505050565b6102ba6004803603606081101561043257600080fd5b506001600160a01b03813581169160208101359091169060400135610b2e565b6102c46004803603604081101561046857600080fd5b506001600160a01b038135169060200135610b85565b6102c46004803603604081101561049457600080fd5b6001600160a01b0382351691908101906040810160208201356401000000008111156104bf57600080fd5b8201836020820111156104d157600080fd5b803590602001918460018302840111640100000000831117156104f357600080fd5b91908080601f016020809104026020016040519081016040528093929190818152602001838380828437600092019190915250929550610bb0945050505050565b6101e0610d6f565b6102ba6004803603606081101561055257600080fd5b506001600160a01b03813581169160208101359091169060400135610dfd565b6102c46004803603602081101561058857600080fd5b5035610e18565b610272610e2e565b610272600480360360208110156105ad57600080fd5b5035610e3d565b6101e0610e65565b6102c4600480360360208110156105d257600080fd5b50356001600160a01b0316610ec6565b6101e0610f2e565b6102ba6004803603604081101561060057600080fd5b506001600160a01b0381351690602001351515610f8f565b610272611094565b6102ba6004803603608081101561063657600080fd5b6001600160a01b0382358116926020810135909116916040820135919081019060808101606082013564010000000081111561067157600080fd5b82018360208201111561068357600080fd5b803590602001918460018302840111640100000000831117156106a557600080fd5b91908080601f0160208091040260200160405190810160405280939291908181526020018383808284376000920191909152509295506110a3945050505050565b6101e0600480360360208110156106fc57600080fd5b5035611101565b6102ba6004803603602081101561071957600080fd5b81019060208101813564010000000081111561073457600080fd5b82018360208201111561074657600080fd5b8035906020019184600183028401116401000000008311171561076857600080fd5b91908080601f016020809104026020016040519081016040528093929190818152602001838380828437600092019190915250929550611382945050505050565b6101c4600480360360408110156107bf57600080fd5b506001600160a01b0381358116916020013516611464565b610272611492565b6001600160e01b0319811660009081526033602052604090205460ff165b919050565b606a8054604080516020601f600260001961010060018816150201909516949094049384018190048102820181019092528281526060939092909183018282801561088e5780601f106108635761010080835404028352916020019161088e565b820191906000526020600020905b81548152906001019060200180831161087157829003601f168201915b5050505050905090565b60006108a3826114a1565b6108de5760405162461bcd60e51b815260040180806020018281038252602c815260200180612ad0602c913960400191505060405180910390fd5b506000908152606860205260409020546001600160a01b031690565b600061090582610e3d565b9050806001600160a01b0316836001600160a01b031614156109585760405162461bcd60e51b8152600401808060200182810382526021815260200180612b806021913960400191505060405180910390fd5b806001600160a01b031661096a6114ae565b6001600160a01b0316148061098b575061098b816109866114ae565b611464565b6109c65760405162461bcd60e51b81526004018080602001828103825260388152602001806129f56038913960400191505060405180910390fd5b6109d083836114b2565b505050565b60006109e1606661152d565b905090565b600054610100900460ff16806109ff57506109ff611538565b80610a0d575060005460ff16155b610a485760405162461bcd60e51b815260040180806020018281038252602e815260200180612a80602e913960400191505060405180910390fd5b600054610100900460ff16158015610a73576000805460ff1961ff0019909116610100171660011790555b6001600160a01b038516610ace576040805162461bcd60e51b815260206004820152601560248201527f436f6e74726f6c6c6572206d7573742065786973740000000000000000000000604482015290519081900360640190fd5b610ad88383611549565b609780546001600160a01b0380881673ffffffffffffffffffffffffffffffffffffffff199283161790925560998054928716929091169190911790558015610b27576000805461ff00191690555b5050505050565b610b3f610b396114ae565b82611606565b610b7a5760405162461bcd60e51b8152600401808060200182810382526031815260200180612bc36031913960400191505060405180910390fd5b6109d08383836116aa565b6001600160a01b0382166000908152606560205260408120610ba790836117f6565b90505b92915050565b609954604080517f56ba88b800000000000000000000000000000000000000000000000000000000815290516000926001600160a01b0316916356ba88b8916004808301926020929190829003018186803b158015610c0e57600080fd5b505afa158015610c22573d6000803e3d6000fd5b505050506040513d6020811015610c3857600080fd5b5051604080517f2e8ebaae00000000000000000000000000000000000000000000000000000000815233600482015290516001600160a01b0390921691632e8ebaae91602480820192602092909190829003018186803b158015610c9b57600080fd5b505afa158015610caf573d6000803e3d6000fd5b505050506040513d6020811015610cc557600080fd5b5051610d025760405162461bcd60e51b8152600401808060200182810382526022815260200180612ba16022913960400191505060405180910390fd5b6001600160a01b038316610d5d576040805162461bcd60e51b815260206004820152600f60248201527f55736572206d7573742065786973740000000000000000000000000000000000604482015290519081900360640190fd5b610d6682611802565b610ba7836119c4565b609a805460408051602060026001851615610100026000190190941693909304601f81018490048402820184019092528181529291830182828015610df55780601f10610dca57610100808354040283529160200191610df5565b820191906000526020600020905b815481529060010190602001808311610dd857829003601f168201915b505050505081565b6109d0838383604051806020016040528060008152506110a3565b600080610e26606684611ad2565b509392505050565b6098546001600160a01b031681565b6000610baa82604051806060016040528060298152602001612a576029913960669190611aee565b606d8054604080516020601f600260001961010060018816150201909516949094049384018190048102820181019092528281526060939092909183018282801561088e5780601f106108635761010080835404028352916020019161088e565b60006001600160a01b038216610f0d5760405162461bcd60e51b815260040180806020018281038252602a815260200180612a2d602a913960400191505060405180910390fd5b6001600160a01b0382166000908152606560205260409020610baa9061152d565b606b8054604080516020601f600260001961010060018816150201909516949094049384018190048102820181019092528281526060939092909183018282801561088e5780601f106108635761010080835404028352916020019161088e565b610f976114ae565b6001600160a01b0316826001600160a01b03161415610ffd576040805162461bcd60e51b815260206004820152601960248201527f4552433732313a20617070726f766520746f2063616c6c657200000000000000604482015290519081900360640190fd5b806069600061100a6114ae565b6001600160a01b03908116825260208083019390935260409182016000908120918716808252919093529120805460ff19169215159290921790915561104e6114ae565b6001600160a01b03167f17307eab39ab6107e8899845ad3d59bd9653f200f220920489ca2b5937696c318360405180821515815260200191505060405180910390a35050565b6099546001600160a01b031681565b6110b46110ae6114ae565b83611606565b6110ef5760405162461bcd60e51b8152600401808060200182810382526031815260200180612bc36031913960400191505060405180910390fd5b6110fb84848484611b05565b50505050565b606061110c826114a1565b6111475760405162461bcd60e51b815260040180806020018281038252602f815260200180612b51602f913960400191505060405180910390fd5b6000828152606c602090815260408083208054825160026001831615610100026000190190921691909104601f8101859004850282018501909352828152929091908301828280156111da5780601f106111af576101008083540402835291602001916111da565b820191906000526020600020905b8154815290600101906020018083116111bd57829003601f168201915b5050505050905060006111eb610e65565b90508051600014156111ff575090506107fd565b8151156112c05780826040516020018083805190602001908083835b6020831061123a5780518252601f19909201916020918201910161121b565b51815160209384036101000a600019018019909216911617905285519190930192850191508083835b602083106112825780518252601f199092019160209182019101611263565b6001836020036101000a03801982511681845116808217855250505050505090500192505050604051602081830303815290604052925050506107fd565b806112ca85611b57565b6040516020018083805190602001908083835b602083106112fc5780518252601f1990920191602091820191016112dd565b51815160209384036101000a600019018019909216911617905285519190930192850191508083835b602083106113445780518252601f199092019160209182019101611325565b6001836020036101000a0380198251168184511680821785525050505050509050019250505060405160208183030381529060405292505050919050565b609760009054906101000a90046001600160a01b03166001600160a01b0316638da5cb5b6040518163ffffffff1660e01b815260040160206040518083038186803b1580156113d057600080fd5b505afa1580156113e4573d6000803e3d6000fd5b505050506040513d60208110156113fa57600080fd5b50516001600160a01b03163314611458576040805162461bcd60e51b815260206004820152601860248201527f4f6e6c79206f776e65722063616e2063616c6c20746869730000000000000000604482015290519081900360640190fd5b61146181611802565b50565b6001600160a01b03918216600090815260696020908152604080832093909416825291909152205460ff1690565b6097546001600160a01b031681565b6000610baa606683611c66565b3390565b6000818152606860205260409020805473ffffffffffffffffffffffffffffffffffffffff19166001600160a01b03841690811790915581906114f482610e3d565b6001600160a01b03167f8c5be1e5ebec7d5bd14f71427d1e84f3dd0314c0f7b2291e5b200ac8c7c3b92560405160405180910390a45050565b6000610baa82611c72565b600061154330611c76565b15905090565b600054610100900460ff16806115625750611562611538565b80611570575060005460ff16155b6115ab5760405162461bcd60e51b815260040180806020018281038252602e815260200180612a80602e913960400191505060405180910390fd5b600054610100900460ff161580156115d6576000805460ff1961ff0019909116610100171660011790555b6115de611c7c565b6115e6611d1d565b6115f08383611dd3565b80156109d0576000805461ff0019169055505050565b6000611611826114a1565b61164c5760405162461bcd60e51b815260040180806020018281038252602c8152602001806129c9602c913960400191505060405180910390fd5b600061165783610e3d565b9050806001600160a01b0316846001600160a01b031614806116925750836001600160a01b031661168784610898565b6001600160a01b0316145b806116a257506116a28185611464565b949350505050565b826001600160a01b03166116bd82610e3d565b6001600160a01b0316146117025760405162461bcd60e51b8152600401808060200182810382526029815260200180612b286029913960400191505060405180910390fd5b6001600160a01b0382166117475760405162461bcd60e51b815260040180806020018281038252602481526020018061297f6024913960400191505060405180910390fd5b6117528383836109d0565b61175d6000826114b2565b6001600160a01b038316600090815260656020526040902061177f9082611f03565b506001600160a01b03821660009081526065602052604090206117a29082611f0f565b506117af60668284611f1b565b5080826001600160a01b0316846001600160a01b03167fddf252ad1be2c89b69c2b068fc378daa952ba7f163c4a11628f55a4df523b3ef60405160405180910390a4505050565b6000610ba78383611f31565b609a8054604080516020601f600260001961010060018816150201909516949094049384018190048102820181019092528281526000939092909183018282801561188e5780601f106118635761010080835404028352916020019161188e565b820191906000526020600020905b81548152906001019060200180831161187157829003601f168201915b505085519394506118aa93609a93506020870192509050612889565b5060408051818152609a8054600260001961010060018416150201909116049282018390527fc5eb5ba7abcaa2fd10e5fa823a019606b52fcf655f6b7457457936db91dd0acd9290918491819060208201906060830190869080156119505780601f1061192557610100808354040283529160200191611950565b820191906000526020600020905b81548152906001019060200180831161193357829003601f168201915b5050838103825284518152845160209182019186019080838360005b8381101561198457818101518382015260200161196c565b50505050905090810190601f1680156119b15780820380516001836020036101000a031916815260200191505b5094505050505060405180910390a15050565b6000806119d083610ec6565b611ac7576119de609b611f95565b6119e8609b611c72565b90506119f48382611f9e565b609a805460408051602060026001851615610100026000190190941693909304601f8101849004840282018401909252818152611a8c93859391929091830182828015611a825780601f10611a5757610100808354040283529160200191611a82565b820191906000526020600020905b815481529060010190602001808311611a6557829003601f168201915b5050505050611fbc565b60405181906001600160a01b038516907f1fd9e9066bc1aced4997ab415f2984f25d421a50ce3131bee73e3f3a30c5ccbb90600090a3610baa565b610ba7836000610b85565b6000808080611ae1868661201f565b9097909650945050505050565b6000611afb84848461209a565b90505b9392505050565b611b108484846116aa565b611b1c84848484612164565b6110fb5760405162461bcd60e51b815260040180806020018281038252603281526020018061294d6032913960400191505060405180910390fd5b606081611b98575060408051808201909152600181527f300000000000000000000000000000000000000000000000000000000000000060208201526107fd565b8160005b8115611bb057600101600a82049150611b9c565b60008167ffffffffffffffff81118015611bc957600080fd5b506040519080825280601f01601f191660200182016040528015611bf4576020820181803683370190505b50859350905060001982015b8315611c5d57600a840660300160f81b82828060019003935081518110611c2357fe5b60200101907effffffffffffffffffffffffffffffffffffffffffffffffffffffffffffff1916908160001a905350600a84049350611c00565b50949350505050565b6000610ba783836122f6565b5490565b3b151590565b600054610100900460ff1680611c955750611c95611538565b80611ca3575060005460ff16155b611cde5760405162461bcd60e51b815260040180806020018281038252602e815260200180612a80602e913960400191505060405180910390fd5b600054610100900460ff16158015611d09576000805460ff1961ff0019909116610100171660011790555b8015611461576000805461ff001916905550565b600054610100900460ff1680611d365750611d36611538565b80611d44575060005460ff16155b611d7f5760405162461bcd60e51b815260040180806020018281038252602e815260200180612a80602e913960400191505060405180910390fd5b600054610100900460ff16158015611daa576000805460ff1961ff0019909116610100171660011790555b611d097f01ffc9a70000000000000000000000000000000000000000000000000000000061230e565b600054610100900460ff1680611dec5750611dec611538565b80611dfa575060005460ff16155b611e355760405162461bcd60e51b815260040180806020018281038252602e815260200180612a80602e913960400191505060405180910390fd5b600054610100900460ff16158015611e60576000805460ff1961ff0019909116610100171660011790555b8251611e7390606a906020860190612889565b508151611e8790606b906020850190612889565b50611eb17f80ac58cd0000000000000000000000000000000000000000000000000000000061230e565b611eda7f5b5e139f0000000000000000000000000000000000000000000000000000000061230e565b6115f07f780e9d630000000000000000000000000000000000000000000000000000000061230e565b6000610ba78383612392565b6000610ba78383612458565b6000611afb84846001600160a01b0385166124a2565b81546000908210611f735760405162461bcd60e51b815260040180806020018281038252602281526020018061292b6022913960400191505060405180910390fd5b826000018281548110611f8257fe5b9060005260206000200154905092915050565b80546001019055565b611fb8828260405180602001604052806000815250612539565b5050565b611fc5826114a1565b6120005760405162461bcd60e51b815260040180806020018281038252602c815260200180612afc602c913960400191505060405180910390fd5b6000828152606c6020908152604090912082516109d092840190612889565b8154600090819083106120635760405162461bcd60e51b8152600401808060200182810382526022815260200180612aae6022913960400191505060405180910390fd5b600084600001848154811061207457fe5b906000526020600020906002020190508060000154816001015492509250509250929050565b600082815260018401602052604081205482816121355760405162461bcd60e51b81526004018080602001828103825283818151815260200191508051906020019080838360005b838110156120fa5781810151838201526020016120e2565b50505050905090810190601f1680156121275780820380516001836020036101000a031916815260200191505b509250505060405180910390fd5b5084600001600182038154811061214857fe5b9060005260206000209060020201600101549150509392505050565b6000612178846001600160a01b0316611c76565b612184575060016116a2565b60006122bc630a85bd0160e11b6121996114ae565b88878760405160240180856001600160a01b03168152602001846001600160a01b0316815260200183815260200180602001828103825283818151815260200191508051906020019080838360005b838110156122005781810151838201526020016121e8565b50505050905090810190601f16801561222d5780820380516001836020036101000a031916815260200191505b5095505050505050604051602081830303815290604052907bffffffffffffffffffffffffffffffffffffffffffffffffffffffff19166020820180517bffffffffffffffffffffffffffffffffffffffffffffffffffffffff838183161783525050505060405180606001604052806032815260200161294d603291396001600160a01b038816919061258b565b905060008180602001905160208110156122d557600080fd5b50516001600160e01b031916630a85bd0160e11b1492505050949350505050565b60009081526001919091016020526040902054151590565b6001600160e01b0319808216141561236d576040805162461bcd60e51b815260206004820152601c60248201527f4552433136353a20696e76616c696420696e7465726661636520696400000000604482015290519081900360640190fd5b6001600160e01b0319166000908152603360205260409020805460ff19166001179055565b6000818152600183016020526040812054801561244e57835460001980830191908101906000908790839081106123c557fe5b90600052602060002001549050808760000184815481106123e257fe5b60009182526020808320909101929092558281526001898101909252604090209084019055865487908061241257fe5b60019003818190600052602060002001600090559055866001016000878152602001908152602001600020600090556001945050505050610baa565b6000915050610baa565b600061246483836122f6565b61249a57508154600181810184556000848152602080822090930184905584548482528286019093526040902091909155610baa565b506000610baa565b600082815260018401602052604081205480612507575050604080518082018252838152602080820184815286546001818101895560008981528481209551600290930290950191825591519082015586548684528188019092529290912055611afe565b8285600001600183038154811061251a57fe5b9060005260206000209060020201600101819055506000915050611afe565b612543838361259a565b6125506000848484612164565b6109d05760405162461bcd60e51b815260040180806020018281038252603281526020018061294d6032913960400191505060405180910390fd5b6060611afb84846000856126c8565b6001600160a01b0382166125f5576040805162461bcd60e51b815260206004820181905260248201527f4552433732313a206d696e7420746f20746865207a65726f2061646472657373604482015290519081900360640190fd5b6125fe816114a1565b15612650576040805162461bcd60e51b815260206004820152601c60248201527f4552433732313a20746f6b656e20616c7265616479206d696e74656400000000604482015290519081900360640190fd5b61265c600083836109d0565b6001600160a01b038216600090815260656020526040902061267e9082611f0f565b5061268b60668284611f1b565b5060405181906001600160a01b038416906000907fddf252ad1be2c89b69c2b068fc378daa952ba7f163c4a11628f55a4df523b3ef908290a45050565b6060824710156127095760405162461bcd60e51b81526004018080602001828103825260268152602001806129a36026913960400191505060405180910390fd5b61271285611c76565b612763576040805162461bcd60e51b815260206004820152601d60248201527f416464726573733a2063616c6c20746f206e6f6e2d636f6e7472616374000000604482015290519081900360640190fd5b600080866001600160a01b031685876040518082805190602001908083835b602083106127a15780518252601f199092019160209182019101612782565b6001836020036101000a03801982511681845116808217855250505050505090500191505060006040518083038185875af1925050503d8060008114612803576040519150601f19603f3d011682016040523d82523d6000602084013e612808565b606091505b5091509150612818828286612823565b979650505050505050565b60608315612832575081611afe565b8251156128425782518084602001fd5b60405162461bcd60e51b81526020600482018181528451602484015284518593919283926044019190850190808383600083156120fa5781810151838201526020016120e2565b828054600181600116156101000203166002900490600052602060002090601f0160209004810192826128bf5760008555612905565b82601f106128d857805160ff1916838001178555612905565b82800160010185558215612905579182015b828111156129055782518255916020019190600101906128ea565b50612911929150612915565b5090565b5b80821115612911576000815560010161291656fe456e756d657261626c655365743a20696e646578206f7574206f6620626f756e64734552433732313a207472616e7366657220746f206e6f6e20455243373231526563656976657220696d706c656d656e7465724552433732313a207472616e7366657220746f20746865207a65726f2061646472657373416464726573733a20696e73756666696369656e742062616c616e636520666f722063616c6c4552433732313a206f70657261746f7220717565727920666f72206e6f6e6578697374656e7420746f6b656e4552433732313a20617070726f76652063616c6c6572206973206e6f74206f776e6572206e6f7220617070726f76656420666f7220616c6c4552433732313a2062616c616e636520717565727920666f7220746865207a65726f20616464726573734552433732313a206f776e657220717565727920666f72206e6f6e6578697374656e7420746f6b656e496e697469616c697a61626c653a20636f6e747261637420697320616c726561647920696e697469616c697a6564456e756d657261626c654d61703a20696e646578206f7574206f6620626f756e64734552433732313a20617070726f76656420717565727920666f72206e6f6e6578697374656e7420746f6b656e4552433732314d657461646174613a2055524920736574206f66206e6f6e6578697374656e7420746f6b656e4552433732313a207472616e73666572206f6620746f6b656e2074686174206973206e6f74206f776e4552433732314d657461646174613a2055524920717565727920666f72206e6f6e6578697374656e7420746f6b656e4552433732313a20617070726f76616c20746f2063757272656e74206f776e65724f6e6c79207468652073747261746567792063616e206d696e7420746865204e46544552433732313a207472616e736665722063616c6c6572206973206e6f74206f776e6572206e6f7220617070726f766564a2646970667358221220e2813ef8060f44f56e69d99406135fc0634d5789dd22f6b08e405163ca3783f864736f6c63430007060033",
  "devdoc": {
    "author": "Babylon Finance Factory to create investment strategy contracts",
    "kind": "dev",
    "methods": {
      "createStrategy(string,string,address,address,address,uint256[])": {
        "params": {
          "_controller": "Address of the controller",
          "_garden": "Address of the garden",
          "_name": "Name of the strategy",
          "_stratParams": "Strat Params",
          "_strategist": "Address of the strategist",
          "_symbol": "Symbol of the strategy"
        }
      }
    },
    "title": "StrategyFactory",
    "version": 1
  },
  "userdoc": {
    "kind": "user",
    "methods": {
      "createStrategy(string,string,address,address,address,uint256[])": {
        "notice": "Creates a new investment strategy using minimal proxies"
      }
    },
    "version": 1
  },
  "storageLayout": {
    "storage": [],
    "types": null
  }
}