{
  "address": "0x102e25800437Ada1F7d3D0512425aE5b5A894908",
  "abi": [
    {
      "inputs": [
        {
          "internalType": "contract IBabController",
          "name": "_controller",
          "type": "address"
        },
        {
          "internalType": "contract UpgradeableBeacon",
          "name": "_beacon",
          "type": "address"
        }
      ],
      "stateMutability": "nonpayable",
      "type": "constructor"
    },
    {
      "inputs": [
        {
          "internalType": "string",
          "name": "_name",
          "type": "string"
        },
        {
          "internalType": "string",
          "name": "_symbol",
          "type": "string"
        },
        {
          "internalType": "address",
          "name": "_strategist",
          "type": "address"
        },
        {
          "internalType": "address",
          "name": "_garden",
          "type": "address"
        },
        {
          "internalType": "uint256[]",
          "name": "_stratParams",
          "type": "uint256[]"
        }
      ],
      "name": "createStrategy",
      "outputs": [
        {
          "internalType": "address",
          "name": "",
          "type": "address"
        }
      ],
      "stateMutability": "nonpayable",
      "type": "function"
    }
  ],
  "transactionHash": "0xfb39272795fd0bb925d7fda51070c368557bb0f4ad7be86eaffb1db3152b06d7",
  "args": [
    "0xD4a5b5fcB561dAF3aDF86F8477555B92FBa43b5F",
    "0x31946680978CEFB010e5f5Fa8b8134c058cba7dC"
  ],
  "solcInputHash": "3d00fad6e2a8def9880d61c8c4c2d9ca",
  "bytecode": "0x60c060405234801561001057600080fd5b50604051610f9a380380610f9a8339818101604052604081101561003357600080fd5b5080516020909101516001600160a01b03821661008c576040805162461bcd60e51b8152602060048201526012602482015271436f6e74726f6c6c6572206973207a65726f60701b604482015290519081900360640190fd5b6001600160a01b0381166100d8576040805162461bcd60e51b815260206004820152600e60248201526d426561636f6e206973207a65726f60901b604482015290519081900360640190fd5b6001600160601b0319606092831b8116608052911b1660a05260805160601c60a05160601c610e7b61011f600039806101e852508061022c52806103fb5250610e7b6000f3fe608060405234801561001057600080fd5b506004361061002b5760003560e01c806378afca3e14610030575b600080fd5b6101c7600480360360a081101561004657600080fd5b81019060208101813564010000000081111561006157600080fd5b82018360208201111561007357600080fd5b8035906020019184600183028401116401000000008311171561009557600080fd5b91908080601f01602080910402602001604051908101604052809392919081815260200183838082843760009201919091525092959493602081019350359150506401000000008111156100e857600080fd5b8201836020820111156100fa57600080fd5b8035906020019184600183028401116401000000008311171561011c57600080fd5b91908080601f01602080910402602001604051908101604052809392919081815260200183838082843760009201919091525092956001600160a01b03853581169660208701359091169591945092506060810191506040013564010000000081111561018857600080fd5b82018360208201111561019a57600080fd5b803590602001918460208302840111640100000000831117156101bc57600080fd5b5090925090506101e3565b604080516001600160a01b039092168252519081900360200190f35b6000807f00000000000000000000000000000000000000000000000000000000000000007fdf8fa4300000000000000000000000000000000000000000000000000000000087877f00000000000000000000000000000000000000000000000000000000000000008888878161025557fe5b905060200201358989600181811061026957fe5b905060200201358a8a600281811061027d57fe5b905060200201358b8b600381811061029157fe5b905060200201358c8c60048181106102a557fe5b604080516001600160a01b039b8c166024820152998b1660448b015297909916606489015250608487019490945260a486019290925260c485015260e4840152602093840201356101048084019190915281518084039091018152610124909201815291810180517bffffffffffffffffffffffffffffffffffffffffffffffffffffffff167fffffffff000000000000000000000000000000000000000000000000000000009094169390931790925251610360906105dc565b6001600160a01b0383168152604060208083018281528451928401929092528351606084019185019080838360005b838110156103a757818101518382015260200161038f565b50505050905090810190601f1680156103d45780820380516001836020036101000a031916815260200191505b509350505050604051809103906000f0801580156103f6573d6000803e3d6000fd5b5090507f00000000000000000000000000000000000000000000000000000000000000006001600160a01b031663d6a45aa56040518163ffffffff1660e01b815260040160206040518083038186803b15801561045257600080fd5b505afa158015610466573d6000803e3d6000fd5b505050506040513d602081101561047c57600080fd5b50516040517f0cfa5cda0000000000000000000000000000000000000000000000000000000081526001600160a01b03838116600483019081526060602484019081528c5160648501528c519290941693630cfa5cda9386938e938e9390929091604482019160840190602087019080838360005b838110156105095781810151838201526020016104f1565b50505050905090810190601f1680156105365780820380516001836020036101000a031916815260200191505b50838103825284518152845160209182019186019080838360005b83811015610569578181015183820152602001610551565b50505050905090810190601f1680156105965780820380516001836020036101000a031916815260200191505b5095505050505050600060405180830381600087803b1580156105b857600080fd5b505af11580156105cc573d6000803e3d6000fd5b50929a9950505050505050505050565b61085c806105ea8339019056fe608060405260405161085c38038061085c8339818101604052604081101561002657600080fd5b81516020830180516040519294929383019291908464010000000082111561004d57600080fd5b90830190602082018581111561006257600080fd5b825164010000000081118282018810171561007c57600080fd5b82525081516020918201929091019080838360005b838110156100a9578181015183820152602001610091565b50505050905090810190601f1680156100d65780820380516001836020036101000a031916815260200191505b50604052508391508290506100eb82826100f4565b5050505061047e565b6101078261024960201b61002f1760201c565b6101425760405162461bcd60e51b81526004018080602001828103825260258152602001806107dd6025913960400191505060405180910390fd5b6101ba826001600160a01b0316635c60da1b6040518163ffffffff1660e01b815260040160206040518083038186803b15801561017e57600080fd5b505afa158015610192573d6000803e3d6000fd5b505050506040513d60208110156101a857600080fd5b5051610249602090811b61002f17901c565b6101f55760405162461bcd60e51b81526004018080602001828103825260348152602001806108286034913960400191505060405180910390fd5b60008051602061079c8339815191528281558151156102445761024261021961024f565b836040518060600160405280602181526020016107bc602191396102c260201b6100351760201c565b505b505050565b3b151590565b60006102596103c7565b6001600160a01b0316635c60da1b6040518163ffffffff1660e01b815260040160206040518083038186803b15801561029157600080fd5b505afa1580156102a5573d6000803e3d6000fd5b505050506040513d60208110156102bb57600080fd5b5051905090565b60606102cd84610249565b6103085760405162461bcd60e51b81526004018080602001828103825260268152602001806108026026913960400191505060405180910390fd5b600080856001600160a01b0316856040518082805190602001908083835b602083106103455780518252601f199092019160209182019101610326565b6001836020036101000a038019825116818451168082178552505050505050905001915050600060405180830381855af49150503d80600081146103a5576040519150601f19603f3d011682016040523d82523d6000602084013e6103aa565b606091505b5090925090506103bb8282866103da565b925050505b9392505050565b60008051602061079c8339815191525490565b606083156103e95750816103c0565b8251156103f95782518084602001fd5b8160405162461bcd60e51b81526004018080602001828103825283818151815260200191508051906020019080838360005b8381101561044357818101518382015260200161042b565b50505050905090810190601f1680156104705780820380516001836020036101000a031916815260200191505b509250505060405180910390fd5b61030f8061048d6000396000f3fe60806040523661000b57005b610013610015565b005b61001d61002d565b61002d610028610146565b6101c6565b565b3b151590565b60606100408461002f565b61007b5760405162461bcd60e51b81526004018080602001828103825260268152602001806102b46026913960400191505060405180910390fd5b6000808573ffffffffffffffffffffffffffffffffffffffff16856040518082805190602001908083835b602083106100c55780518252601f1990920191602091820191016100a6565b6001836020036101000a038019825116818451168082178552505050505050905001915050600060405180830381855af49150503d8060008114610125576040519150601f19603f3d011682016040523d82523d6000602084013e61012a565b606091505b509150915061013a8282866101ea565b925050505b9392505050565b600061015061028e565b73ffffffffffffffffffffffffffffffffffffffff16635c60da1b6040518163ffffffff1660e01b815260040160206040518083038186803b15801561019557600080fd5b505afa1580156101a9573d6000803e3d6000fd5b505050506040513d60208110156101bf57600080fd5b5051905090565b3660008037600080366000845af43d6000803e8080156101e5573d6000f35b3d6000fd5b606083156101f957508161013f565b8251156102095782518084602001fd5b8160405162461bcd60e51b81526004018080602001828103825283818151815260200191508051906020019080838360005b8381101561025357818101518382015260200161023b565b50505050905090810190601f1680156102805780820380516001836020036101000a031916815260200191505b509250505060405180910390fd5b7fa3f0ad74e5423aebfd80d3ef4346578335a9a72aeaee59ff6cb3582b35133d50549056fe416464726573733a2064656c65676174652063616c6c20746f206e6f6e2d636f6e7472616374a26469706673582212202d92425cab0cd3b71cbc16c48eea8a69f3738d5cf7b303a8f177140c57fd29db64736f6c63430007060033a3f0ad74e5423aebfd80d3ef4346578335a9a72aeaee59ff6cb3582b35133d50426561636f6e50726f78793a2066756e6374696f6e2063616c6c206661696c6564426561636f6e50726f78793a20626561636f6e206973206e6f74206120636f6e7472616374416464726573733a2064656c65676174652063616c6c20746f206e6f6e2d636f6e7472616374426561636f6e50726f78793a20626561636f6e20696d706c656d656e746174696f6e206973206e6f74206120636f6e7472616374a26469706673582212207f9c01a725db14bd259ad79554f646b44ae5b544d254c70c53a596e82f03966d64736f6c63430007060033",
  "devdoc": {
    "author": "Babylon Finance Factory to create investment strategy contracts",
    "kind": "dev",
    "methods": {
      "createStrategy(string,string,address,address,uint256[])": {
        "params": {
          "_garden": "Address of the garden",
          "_name": "Name of the strategy",
          "_stratParams": "Strat Params",
          "_strategist": "Address of the strategist",
          "_symbol": "Symbol of the strategy"
        }
      }
    },
    "title": "StrategyFactory",
    "version": 1
  },
  "userdoc": {
    "kind": "user",
    "methods": {
      "createStrategy(string,string,address,address,uint256[])": {
        "notice": "Creates a new investment strategy using minimal proxies"
      }
    },
    "version": 1
  },
  "storageLayout": {
    "storage": [],
    "types": null
  }
}