{
  "address": "0x750546b151c9f39E64A4eCd6fABf95601F03c053",
  "abi": [
    {
      "anonymous": false,
      "inputs": [
        {
          "indexed": true,
          "internalType": "address",
          "name": "_target",
          "type": "address"
        },
        {
          "indexed": true,
          "internalType": "uint256",
          "name": "_value",
          "type": "uint256"
        },
        {
          "indexed": false,
          "internalType": "bytes",
          "name": "_data",
          "type": "bytes"
        },
        {
          "indexed": false,
          "internalType": "bytes",
          "name": "_returnValue",
          "type": "bytes"
        }
      ],
      "name": "Invoked",
      "type": "event"
    },
    {
      "anonymous": false,
      "inputs": [
        {
          "indexed": true,
          "internalType": "address",
          "name": "_garden",
          "type": "address"
        },
        {
          "indexed": false,
          "internalType": "uint256",
          "name": "_timestamp",
          "type": "uint256"
        }
      ],
      "name": "StrategyDeleted",
      "type": "event"
    },
    {
      "anonymous": false,
      "inputs": [
        {
          "indexed": false,
          "internalType": "uint256",
          "name": "_newDuration",
          "type": "uint256"
        },
        {
          "indexed": false,
          "internalType": "uint256",
          "name": "_oldDuration",
          "type": "uint256"
        }
      ],
      "name": "StrategyDurationChanged",
      "type": "event"
    },
    {
      "anonymous": false,
      "inputs": [
        {
          "indexed": true,
          "internalType": "address",
          "name": "_garden",
          "type": "address"
        },
        {
          "indexed": false,
          "internalType": "uint256",
          "name": "_capital",
          "type": "uint256"
        },
        {
          "indexed": false,
          "internalType": "uint256",
          "name": "_fee",
          "type": "uint256"
        },
        {
          "indexed": false,
          "internalType": "uint256",
          "name": "timestamp",
          "type": "uint256"
        }
      ],
      "name": "StrategyExecuted",
      "type": "event"
    },
    {
      "anonymous": false,
      "inputs": [
        {
          "indexed": true,
          "internalType": "address",
          "name": "_garden",
          "type": "address"
        },
        {
          "indexed": false,
          "internalType": "uint256",
          "name": "_timestamp",
          "type": "uint256"
        }
      ],
      "name": "StrategyExpired",
      "type": "event"
    },
    {
      "anonymous": false,
      "inputs": [
        {
          "indexed": true,
          "internalType": "address",
          "name": "_garden",
          "type": "address"
        },
        {
          "indexed": false,
          "internalType": "uint256",
          "name": "_capitalReturned",
          "type": "uint256"
        },
        {
          "indexed": false,
          "internalType": "uint256",
          "name": "_fee",
          "type": "uint256"
        },
        {
          "indexed": false,
          "internalType": "uint256",
          "name": "timestamp",
          "type": "uint256"
        }
      ],
      "name": "StrategyFinalized",
      "type": "event"
    },
    {
      "anonymous": false,
      "inputs": [
        {
          "indexed": true,
          "internalType": "address",
          "name": "_garden",
          "type": "address"
        },
        {
          "indexed": false,
          "internalType": "uint256",
          "name": "_amountReduced",
          "type": "uint256"
        },
        {
          "indexed": false,
          "internalType": "uint256",
          "name": "timestamp",
          "type": "uint256"
        }
      ],
      "name": "StrategyReduced",
      "type": "event"
    },
    {
      "anonymous": false,
      "inputs": [
        {
          "indexed": true,
          "internalType": "address",
          "name": "_garden",
          "type": "address"
        },
        {
          "indexed": false,
          "internalType": "uint256",
          "name": "totalPositiveVotes",
          "type": "uint256"
        },
        {
          "indexed": false,
          "internalType": "uint256",
          "name": "totalNegativeVotes",
          "type": "uint256"
        },
        {
          "indexed": false,
          "internalType": "uint256",
          "name": "_timestamp",
          "type": "uint256"
        }
      ],
      "name": "StrategyVoted",
      "type": "event"
    },
    {
      "inputs": [],
      "name": "capitalAllocated",
      "outputs": [
        {
          "internalType": "uint256",
          "name": "",
          "type": "uint256"
        }
      ],
      "stateMutability": "view",
      "type": "function"
    },
    {
      "inputs": [],
      "name": "capitalReturned",
      "outputs": [
        {
          "internalType": "uint256",
          "name": "",
          "type": "uint256"
        }
      ],
      "stateMutability": "view",
      "type": "function"
    },
    {
      "inputs": [],
      "name": "deleteCandidateStrategy",
      "outputs": [],
      "stateMutability": "nonpayable",
      "type": "function"
    },
    {
      "inputs": [],
      "name": "duration",
      "outputs": [
        {
          "internalType": "uint256",
          "name": "",
          "type": "uint256"
        }
      ],
      "stateMutability": "view",
      "type": "function"
    },
    {
      "inputs": [],
      "name": "enteredAt",
      "outputs": [
        {
          "internalType": "uint256",
          "name": "",
          "type": "uint256"
        }
      ],
      "stateMutability": "view",
      "type": "function"
    },
    {
      "inputs": [],
      "name": "enteredCooldownAt",
      "outputs": [
        {
          "internalType": "uint256",
          "name": "",
          "type": "uint256"
        }
      ],
      "stateMutability": "view",
      "type": "function"
    },
    {
      "inputs": [
        {
          "internalType": "uint256",
          "name": "_capital",
          "type": "uint256"
        },
        {
          "internalType": "uint256",
          "name": "_fee",
          "type": "uint256"
        }
      ],
      "name": "executeStrategy",
      "outputs": [],
      "stateMutability": "nonpayable",
      "type": "function"
    },
    {
      "inputs": [],
      "name": "expectedReturn",
      "outputs": [
        {
          "internalType": "uint256",
          "name": "",
          "type": "uint256"
        }
      ],
      "stateMutability": "view",
      "type": "function"
    },
    {
      "inputs": [
        {
          "internalType": "uint256",
          "name": "_fee",
          "type": "uint256"
        }
      ],
      "name": "expireStrategy",
      "outputs": [],
      "stateMutability": "nonpayable",
      "type": "function"
    },
    {
      "inputs": [
        {
          "internalType": "uint256",
          "name": "_fee",
          "type": "uint256"
        },
        {
          "internalType": "string",
          "name": "_tokenURI",
          "type": "string"
        },
        {
          "internalType": "uint256",
          "name": "_minReserveOut",
          "type": "uint256"
        }
      ],
      "name": "finalizeStrategy",
      "outputs": [],
      "stateMutability": "nonpayable",
      "type": "function"
    },
    {
      "inputs": [],
      "name": "garden",
      "outputs": [
        {
          "internalType": "contract IGarden",
          "name": "",
          "type": "address"
        }
      ],
      "stateMutability": "view",
      "type": "function"
    },
    {
      "inputs": [],
      "name": "getNAV",
      "outputs": [
        {
          "internalType": "uint256",
          "name": "",
          "type": "uint256"
        }
      ],
      "stateMutability": "view",
      "type": "function"
    },
    {
      "inputs": [
        {
          "internalType": "uint8",
          "name": "_index",
          "type": "uint8"
        }
      ],
      "name": "getOperationByIndex",
      "outputs": [
        {
          "internalType": "uint8",
          "name": "",
          "type": "uint8"
        },
        {
          "internalType": "address",
          "name": "",
          "type": "address"
        },
        {
          "internalType": "bytes",
          "name": "",
          "type": "bytes"
        }
      ],
      "stateMutability": "view",
      "type": "function"
    },
    {
      "inputs": [],
      "name": "getOperationsCount",
      "outputs": [
        {
          "internalType": "uint256",
          "name": "",
          "type": "uint256"
        }
      ],
      "stateMutability": "view",
      "type": "function"
    },
    {
      "inputs": [],
      "name": "getStrategyDetails",
      "outputs": [
        {
          "internalType": "address",
          "name": "",
          "type": "address"
        },
        {
          "internalType": "address",
          "name": "",
          "type": "address"
        },
        {
          "internalType": "uint256",
          "name": "",
          "type": "uint256"
        },
        {
          "internalType": "uint256",
          "name": "",
          "type": "uint256"
        },
        {
          "internalType": "uint256",
          "name": "",
          "type": "uint256"
        },
        {
          "internalType": "uint256",
          "name": "",
          "type": "uint256"
        },
        {
          "internalType": "uint256",
          "name": "",
          "type": "uint256"
        },
        {
          "internalType": "uint256",
          "name": "",
          "type": "uint256"
        },
        {
          "internalType": "uint256",
          "name": "",
          "type": "uint256"
        },
        {
          "internalType": "uint256",
          "name": "",
          "type": "uint256"
        },
        {
          "internalType": "uint256",
          "name": "",
          "type": "uint256"
        },
        {
          "internalType": "address",
          "name": "",
          "type": "address"
        },
        {
          "internalType": "uint256",
          "name": "",
          "type": "uint256"
        },
        {
          "internalType": "uint256",
          "name": "",
          "type": "uint256"
        }
      ],
      "stateMutability": "view",
      "type": "function"
    },
    {
      "inputs": [],
      "name": "getStrategyRewardsContext",
      "outputs": [
        {
          "internalType": "address",
          "name": "",
          "type": "address"
        },
        {
          "internalType": "uint256[]",
          "name": "",
          "type": "uint256[]"
        },
        {
          "internalType": "bool[]",
          "name": "",
          "type": "bool[]"
        }
      ],
      "stateMutability": "view",
      "type": "function"
    },
    {
      "inputs": [],
      "name": "getStrategyState",
      "outputs": [
        {
          "internalType": "address",
          "name": "",
          "type": "address"
        },
        {
          "internalType": "bool",
          "name": "",
          "type": "bool"
        },
        {
          "internalType": "bool",
          "name": "",
          "type": "bool"
        },
        {
          "internalType": "bool",
          "name": "",
          "type": "bool"
        },
        {
          "internalType": "uint256",
          "name": "",
          "type": "uint256"
        },
        {
          "internalType": "uint256",
          "name": "",
          "type": "uint256"
        },
        {
          "internalType": "uint256",
          "name": "",
          "type": "uint256"
        }
      ],
      "stateMutability": "view",
      "type": "function"
    },
    {
      "inputs": [
        {
          "internalType": "address",
          "name": "_address",
          "type": "address"
        }
      ],
      "name": "getUserVotes",
      "outputs": [
        {
          "internalType": "int256",
          "name": "",
          "type": "int256"
        }
      ],
      "stateMutability": "view",
      "type": "function"
    },
    {
      "inputs": [
        {
          "internalType": "bool",
          "name": "_isDeposit",
          "type": "bool"
        },
        {
          "internalType": "uint256",
          "name": "_wethAmount",
          "type": "uint256"
        }
      ],
      "name": "handleWeth",
      "outputs": [],
      "stateMutability": "nonpayable",
      "type": "function"
    },
    {
      "inputs": [
        {
          "internalType": "address",
          "name": "_strategist",
          "type": "address"
        },
        {
          "internalType": "address",
          "name": "_garden",
          "type": "address"
        },
        {
          "internalType": "address",
          "name": "_controller",
          "type": "address"
        },
        {
          "internalType": "uint256",
          "name": "_maxCapitalRequested",
          "type": "uint256"
        },
        {
          "internalType": "uint256",
          "name": "_stake",
          "type": "uint256"
        },
        {
          "internalType": "uint256",
          "name": "_strategyDuration",
          "type": "uint256"
        },
        {
          "internalType": "uint256",
          "name": "_expectedReturn",
          "type": "uint256"
        },
        {
          "internalType": "uint256",
          "name": "_maxAllocationPercentage",
          "type": "uint256"
        },
        {
          "internalType": "uint256",
          "name": "_maxGasFeePercentage",
          "type": "uint256"
        },
        {
          "internalType": "uint256",
          "name": "_maxTradeSlippagePercentage",
          "type": "uint256"
        }
      ],
      "name": "initialize",
      "outputs": [],
      "stateMutability": "nonpayable",
      "type": "function"
    },
    {
      "inputs": [
        {
          "internalType": "address",
          "name": "_spender",
          "type": "address"
        },
        {
          "internalType": "address",
          "name": "_asset",
          "type": "address"
        },
        {
          "internalType": "uint256",
          "name": "_quantity",
          "type": "uint256"
        }
      ],
      "name": "invokeApprove",
      "outputs": [],
      "stateMutability": "nonpayable",
      "type": "function"
    },
    {
      "inputs": [
        {
          "internalType": "address",
          "name": "_target",
          "type": "address"
        },
        {
          "internalType": "uint256",
          "name": "_value",
          "type": "uint256"
        },
        {
          "internalType": "bytes",
          "name": "_data",
          "type": "bytes"
        }
      ],
      "name": "invokeFromIntegration",
      "outputs": [
        {
          "internalType": "bytes",
          "name": "",
          "type": "bytes"
        }
      ],
      "stateMutability": "nonpayable",
      "type": "function"
    },
    {
      "inputs": [],
      "name": "isStrategyActive",
      "outputs": [
        {
          "internalType": "bool",
          "name": "",
          "type": "bool"
        }
      ],
      "stateMutability": "view",
      "type": "function"
    },
    {
      "inputs": [],
      "name": "maxAllocationPercentage",
      "outputs": [
        {
          "internalType": "uint256",
          "name": "",
          "type": "uint256"
        }
      ],
      "stateMutability": "view",
      "type": "function"
    },
    {
      "inputs": [],
      "name": "maxCapitalRequested",
      "outputs": [
        {
          "internalType": "uint256",
          "name": "",
          "type": "uint256"
        }
      ],
      "stateMutability": "view",
      "type": "function"
    },
    {
      "inputs": [],
      "name": "maxGasFeePercentage",
      "outputs": [
        {
          "internalType": "uint256",
          "name": "",
          "type": "uint256"
        }
      ],
      "stateMutability": "view",
      "type": "function"
    },
    {
      "inputs": [],
      "name": "maxTradeSlippagePercentage",
      "outputs": [
        {
          "internalType": "uint256",
          "name": "",
          "type": "uint256"
        }
      ],
      "stateMutability": "view",
      "type": "function"
    },
    {
      "inputs": [],
      "name": "opEncodedData",
      "outputs": [
        {
          "internalType": "bytes",
          "name": "",
          "type": "bytes"
        }
      ],
      "stateMutability": "view",
      "type": "function"
    },
    {
      "inputs": [
        {
          "internalType": "address[]",
          "name": "_voters",
          "type": "address[]"
        },
        {
          "internalType": "int256[]",
          "name": "_votes",
          "type": "int256[]"
        },
        {
          "internalType": "uint256",
          "name": "_fee",
          "type": "uint256"
        }
      ],
      "name": "resolveVoting",
      "outputs": [],
      "stateMutability": "nonpayable",
      "type": "function"
    },
    {
      "inputs": [
        {
          "internalType": "uint8[]",
          "name": "_opTypes",
          "type": "uint8[]"
        },
        {
          "internalType": "address[]",
          "name": "_opIntegrations",
          "type": "address[]"
        },
        {
          "internalType": "bytes",
          "name": "_opEncodedData",
          "type": "bytes"
        }
      ],
      "name": "setData",
      "outputs": [],
      "stateMutability": "nonpayable",
      "type": "function"
    },
    {
      "inputs": [],
      "name": "stake",
      "outputs": [
        {
          "internalType": "uint256",
          "name": "",
          "type": "uint256"
        }
      ],
      "stateMutability": "view",
      "type": "function"
    },
    {
      "inputs": [],
      "name": "strategist",
      "outputs": [
        {
          "internalType": "address",
          "name": "",
          "type": "address"
        }
      ],
      "stateMutability": "view",
      "type": "function"
    },
    {
      "inputs": [],
      "name": "strategyRewards",
      "outputs": [
        {
          "internalType": "uint256",
          "name": "",
          "type": "uint256"
        }
      ],
      "stateMutability": "view",
      "type": "function"
    },
    {
      "inputs": [
        {
          "internalType": "address",
          "name": "_token",
          "type": "address"
        },
        {
          "internalType": "uint256",
          "name": "_newSlippage",
          "type": "uint256"
        }
      ],
      "name": "sweep",
      "outputs": [],
      "stateMutability": "nonpayable",
      "type": "function"
    },
    {
      "inputs": [],
      "name": "totalNegativeVotes",
      "outputs": [
        {
          "internalType": "uint256",
          "name": "",
          "type": "uint256"
        }
      ],
      "stateMutability": "view",
      "type": "function"
    },
    {
      "inputs": [],
      "name": "totalPositiveVotes",
      "outputs": [
        {
          "internalType": "uint256",
          "name": "",
          "type": "uint256"
        }
      ],
      "stateMutability": "view",
      "type": "function"
    },
    {
      "inputs": [
        {
          "internalType": "address",
          "name": "_sendToken",
          "type": "address"
        },
        {
          "internalType": "uint256",
          "name": "_sendQuantity",
          "type": "uint256"
        },
        {
          "internalType": "address",
          "name": "_receiveToken",
          "type": "address"
        }
      ],
      "name": "trade",
      "outputs": [
        {
          "internalType": "uint256",
          "name": "",
          "type": "uint256"
        }
      ],
      "stateMutability": "nonpayable",
      "type": "function"
    },
    {
      "inputs": [
        {
          "internalType": "address",
          "name": "_sendToken",
          "type": "address"
        },
        {
          "internalType": "uint256",
          "name": "_sendQuantity",
          "type": "uint256"
        },
        {
          "internalType": "address",
          "name": "_receiveToken",
          "type": "address"
        },
        {
          "internalType": "uint256",
          "name": "_overrideSlippage",
          "type": "uint256"
        }
      ],
      "name": "trade",
      "outputs": [
        {
          "internalType": "uint256",
          "name": "",
          "type": "uint256"
        }
      ],
      "stateMutability": "nonpayable",
      "type": "function"
    },
    {
      "inputs": [
        {
          "internalType": "uint256",
          "name": "_amountToUnwind",
          "type": "uint256"
        },
        {
          "internalType": "uint256",
          "name": "_strategyNAV",
          "type": "uint256"
        }
      ],
      "name": "unwindStrategy",
      "outputs": [],
      "stateMutability": "nonpayable",
      "type": "function"
    },
    {
      "inputs": [
        {
          "internalType": "uint256[5]",
          "name": "_params",
          "type": "uint256[5]"
        }
      ],
      "name": "updateParams",
      "outputs": [],
      "stateMutability": "nonpayable",
      "type": "function"
    },
    {
      "inputs": [
        {
          "internalType": "uint256",
          "name": "",
          "type": "uint256"
        }
      ],
      "name": "voters",
      "outputs": [
        {
          "internalType": "address",
          "name": "",
          "type": "address"
        }
      ],
      "stateMutability": "view",
      "type": "function"
    },
    {
      "stateMutability": "payable",
      "type": "receive"
    }
  ],
  "transactionHash": "0x7c9d00f687f92fb49ae6b16cccb6ce43d0dfd7f4251a74eb69dbdf2972868cfc",
  "args": [],
  "numDeployments": 1,
  "solcInputHash": "b8141ea5dcce9f92bb536dfb84453cd1",
  "bytecode": "0x608060405234801561001057600080fd5b506001600055615df880620000266000396000f3fe6080604052600436106102ca5760003560e01c80636db9cc9911610179578063bf3fdf0d116100d6578063dd1033f81161008a578063f101e82b11610064578063f101e82b14610ce8578063fa9bacac14610d18578063ffb5cd0914610d48576102d1565b8063dd1033f814610b53578063e4df5e1a14610b68578063ecbc2cda14610b91576102d1565b8063d40244cb116100bb578063d40244cb14610aa4578063d45fc1a914610ab9578063da58c7d914610b29576102d1565b8063bf3fdf0d14610a7a578063d3406abd14610a8f576102d1565b8063950c78221161012d578063a30ca20411610112578063a30ca204146109c7578063bb39a960146109dc578063bf1dcfe214610a23576102d1565b8063950c78221461095157806397ccdc6014610984576102d1565b80636ea056a91161015e5780636ea056a9146108ee578063707cddfe1461092757806393baae411461093c576102d1565b80636db9cc99146108b05780636e1bb243146108c5576102d1565b8063397dc9031161022757806356ba88b8116101db5780635abdde4c116101c05780635abdde4c146106d85780636bc195dd146107945780636db40dc21461089b576102d1565b806356ba88b8146106ae578063577b6ab8146106c3576102d1565b8063449b98261161020c578063449b9826146105c557806348a4beaa146105da5780634b2e52f014610699576102d1565b8063397dc9031461059b5780633a4b66f1146105b0576102d1565b80631115bdcf1161027e5780631fe4a686116102635780631fe4a686146103dd578063290d2e911461040e5780632aba2af4146104dd576102d1565b80631115bdcf1461037f5780631a5cfcb7146103ab576102d1565b806303cddb2c116102af57806303cddb2c146103125780630e32db52146103275780630fb5a6b41461036a576102d1565b80630126c606146102d657806303976e38146102fd576102d1565b366102d157005b600080fd5b3480156102e257600080fd5b506102eb610de9565b60408051918252519081900360200190f35b34801561030957600080fd5b506102eb6111cc565b34801561031e57600080fd5b506102eb6111d2565b34801561033357600080fd5b506102eb6004803603606081101561034a57600080fd5b506001600160a01b038135811691602081013591604090910135166111d8565b34801561037657600080fd5b506102eb611201565b34801561038b57600080fd5b506103a9600480360360208110156103a257600080fd5b5035611207565b005b3480156103b757600080fd5b506103a9600480360360408110156103ce57600080fd5b5080351515906020013561136c565b3480156103e957600080fd5b506103f2611382565b604080516001600160a01b039092168252519081900360200190f35b34801561041a57600080fd5b506103a96004803603606081101561043157600080fd5b81019060208101813564010000000081111561044c57600080fd5b82018360208201111561045e57600080fd5b8035906020019184602083028401116401000000008311171561048057600080fd5b91939092909160208101903564010000000081111561049e57600080fd5b8201836020820111156104b057600080fd5b803590602001918460208302840111640100000000831117156104d257600080fd5b919350915035611391565b3480156104e957600080fd5b506104f261167c565b60405180846001600160a01b031681526020018060200180602001838103835285818151815260200191508051906020019060200280838360005b8381101561054557818101518382015260200161052d565b50505050905001838103825284818151815260200191508051906020019060200280838360005b8381101561058457818101518382015260200161056c565b505050509050019550505050505060405180910390f35b3480156105a757600080fd5b506102eb611a5c565b3480156105bc57600080fd5b506102eb611a62565b3480156105d157600080fd5b506102eb611a68565b3480156105e657600080fd5b50610607600480360360208110156105fd57600080fd5b503560ff16611a6e565b604051808460ff168152602001836001600160a01b0316815260200180602001828103825283818151815260200191508051906020019080838360005b8381101561065c578181015183820152602001610644565b50505050905090810190601f1680156106895780820380516001836020036101000a031916815260200191505b5094505050505060405180910390f35b3480156106a557600080fd5b506102eb611ae1565b3480156106ba57600080fd5b506103f2611ae7565b3480156106cf57600080fd5b506103a9611af6565b3480156106e457600080fd5b506103a9600480360360608110156106fb57600080fd5b8135919081019060408101602082013564010000000081111561071d57600080fd5b82018360208201111561072f57600080fd5b8035906020019184600183028401116401000000008311171561075157600080fd5b91908080601f0160208091040260200160405190810160405280939291908181526020018383808284376000920191909152509295505091359250611b4a915050565b3480156107a057600080fd5b50610826600480360360608110156107b757600080fd5b6001600160a01b03823516916020810135918101906060810160408201356401000000008111156107e757600080fd5b8201836020820111156107f957600080fd5b8035906020019184600183028401116401000000008311171561081b57600080fd5b509092509050612077565b6040805160208082528351818301528351919283929083019185019080838360005b83811015610860578181015183820152602001610848565b50505050905090810190601f16801561088d5780820380516001836020036101000a031916815260200191505b509250505060405180910390f35b3480156108a757600080fd5b506102eb6120d4565b3480156108bc57600080fd5b506102eb6120da565b3480156108d157600080fd5b506103a9600480360360a08110156108e857600080fd5b506120e0565b3480156108fa57600080fd5b506103a96004803603604081101561091157600080fd5b506001600160a01b038135169060200135612182565b34801561093357600080fd5b506102eb61230e565b34801561094857600080fd5b506102eb612314565b34801561095d57600080fd5b506102eb6004803603602081101561097457600080fd5b50356001600160a01b031661231a565b34801561099057600080fd5b506103a9600480360360608110156109a757600080fd5b506001600160a01b03813581169160208101359091169060400135612339565b3480156109d357600080fd5b506102eb612448565b3480156109e857600080fd5b506102eb600480360360808110156109ff57600080fd5b506001600160a01b038135811691602081013591604082013516906060013561244e565b348015610a2f57600080fd5b50610a3861246c565b604080516001600160a01b0390981688529515156020880152931515868601529115156060860152608085015260a084015260c0830152519081900360e00190f35b348015610a8657600080fd5b50610826612496565b348015610a9b57600080fd5b506102eb612524565b348015610ab057600080fd5b506102eb61252a565b348015610ac557600080fd5b506103a96004803603610140811015610add57600080fd5b506001600160a01b03813581169160208101358216916040820135169060608101359060808101359060a08101359060c08101359060e081013590610100810135906101200135612530565b348015610b3557600080fd5b506103f260048036036020811015610b4c57600080fd5b503561285f565b348015610b5f57600080fd5b506102eb612889565b348015610b7457600080fd5b50610b7d61288f565b604080519115158252519081900360200190f35b348015610b9d57600080fd5b506103a960048036036060811015610bb457600080fd5b810190602081018135640100000000811115610bcf57600080fd5b820183602082011115610be157600080fd5b80359060200191846020830284011164010000000083111715610c0357600080fd5b919390929091602081019035640100000000811115610c2157600080fd5b820183602082011115610c3357600080fd5b80359060200191846020830284011164010000000083111715610c5557600080fd5b919390929091602081019035640100000000811115610c7357600080fd5b820183602082011115610c8557600080fd5b80359060200191846001830284011164010000000083111715610ca757600080fd5b91908080601f0160208091040260200160405190810160405280939291908181526020018383808284376000920191909152509295506128a7945050505050565b348015610cf457600080fd5b506103a960048036036040811015610d0b57600080fd5b5080359060200135612b9b565b348015610d2457600080fd5b506103a960048036036040811015610d3b57600080fd5b5080359060200135612c2a565b348015610d5457600080fd5b50610d5d613016565b604051808f6001600160a01b031681526020018e6001600160a01b031681526020018d81526020018c81526020018b81526020018a8152602001898152602001888152602001878152602001868152602001858152602001846001600160a01b031681526020018381526020018281526020019e50505050505050505050505050505060405180910390f35b60008060008060028054905067ffffffffffffffff81118015610e0b57600080fd5b50604051908082528060200260200182016040528015610e35578160200160208202803683370190505b50905060005b6002548110156111a457600060028281548110610e5457fe5b600091825260208083208183040154600154604080517f20104198000000000000000000000000000000000000000000000000000000008152601f9095166101000a90920460ff166004850181905291519195506201000090046001600160a01b0316926320104198926024808301939192829003018186803b158015610eda57600080fd5b505afa158015610eee573d6000803e3d6000fd5b505050506040513d6020811015610f0457600080fd5b505190506000610f1384613111565b90506000610f4160038681548110610f2757fe5b6000918252602090912001546001600160a01b0316613207565b9050600084610f5384600060206132b8565b83604051602001808460ff1660f81b815260010183805190602001908083835b60208310610f925780518252601f199092019160209182019101610f73565b6001836020036101000a038019825116818451168082178552505050505050905001826001600160a01b031660601b8152601401935050505060405160208183030381529060405280519060200120905060038560ff161480610ff8575060048560ff16145b15611045576000805b87811015611031578289828151811061101657fe5b6020026020010151141561102957600191505b600101611001565b5080156110435750505050505061119c565b505b6005546040517fa24258ad0000000000000000000000000000000000000000000000000000000081526001600160a01b039182166024820181905284831660448301526060600483019081528651606484015286519388169363a24258ad93889392889290918291608490910190602087019080838360005b838110156110d65781810151838201526020016110be565b50505050905090810190601f1680156111035780820380516001836020036101000a031916815260200191505b50945050505050604080518083038186803b15801561112157600080fd5b505afa92505050801561114d57506040513d604081101561114157600080fd5b50805160209091015160015b61115657611196565b801561116d576111668b836133dc565b9a5061117a565b6111778a836133dc565b99505b8289898151811061118757fe5b60200260200101818152505050505b50505050505b600101610e3b565b50828211156111b957600093505050506111c9565b6111c383836133ec565b93505050505b90565b60155481565b60135481565b60006111e26133fc565b6111ea6134f0565b6111f7848484600061361d565b90505b9392505050565b60105481565b6002600054141561125f576040805162461bcd60e51b815260206004820152601f60248201527f5265656e7472616e637947756172643a207265656e7472616e742063616c6c00604482015290519081900360640190fd5b600260005561126c6134f0565b6112746137b0565b600f5461128b90610100900460ff1615603461384a565b6112af62093a806112a7600754426133ec90919063ffffffff16565b11603761384a565b60055460408051634d5b1ba160e11b81523360048201526024810184905290516001600160a01b0390921691639ab637429160448082019260009290919082900301818387803b15801561130257600080fd5b505af1158015611316573d6000803e3d6000fd5b50505050611322613858565b6005546040805142815290516001600160a01b03909216917f7a7d4c833d273b66e431c5f268c42ee3e788541592e07c77f232cd28c89913169181900360200190a2506001600055565b6113746133fc565b61137e82826138e1565b5050565b6006546001600160a01b031681565b6113996134f0565b6113a16137b0565b600554604080517f5a16656a0000000000000000000000000000000000000000000000000000000081529051611436926001600160a01b031691635a16656a916004808301926020929190829003018186803b15801561140057600080fd5b505afa158015611414573d6000803e3d6000fd5b505050506040513d602081101561142a57600080fd5b5051851015604061384a565b600f5461145c90610100900460ff161580156114555750600f5460ff16155b602a61384a565b61148162093a80611478600754426133ec90919063ffffffff16565b1115602b61384a565b61148e848314606861384a565b600f805461ff0019166101001790556000600d819055600e8190555b8481101561157a578383828181106114be57fe5b90506020020135601b60008888858181106114d557fe5b905060200201356001600160a01b03166001600160a01b03166001600160a01b0316815260200190815260200160002081905550600084848381811061151757fe5b9050602002013513156115535761154b61154285858481811061153657fe5b905060200201356139d2565b600d54906133dc565b600d55611572565b61156e61156585858481811061153657fe5b600e54906133dc565b600e555b6001016114aa565b5061159f6000611597600e54600d546133ec90919063ffffffff16565b11605761384a565b6115ab600c8686615b21565b50426008819055600554600d54600e546040805192835260208301919091528181019390935291516001600160a01b03909116917f3e6879a258dfdc657938a76339643c34f8d9a80aa5673c95726c61bc57ee0573919081900360600190a260055460408051634d5b1ba160e11b81523360048201526024810184905290516001600160a01b0390921691639ab637429160448082019260009290919082900301818387803b15801561165d57600080fd5b505af1158015611671573d6000803e3d6000fd5b505050505050505050565b60408051600f80825261020082019092526000916060918291849190602082016101e080368337505060408051600280825260608201835293945060009390925090602083019080368337019050509050600954826000815181106116dd57fe5b602002602001018181525050600b54826001815181106116f957fe5b602002602001018181525050600a548260028151811061171557fe5b6020026020010181815250506007548260038151811061173157fe5b602002602001018181525050600d548260048151811061174d57fe5b602002602001018181525050600e548260058151811061176957fe5b6020026020010181815250506013548260068151811061178557fe5b602002602001018181525050601554826007815181106117a157fe5b6020026020010181815250506117d06117c76014546013546139e990919063ffffffff16565b601354906133dc565b826008815181106117dd57fe5b602002602001018181525050601954826009815181106117f957fe5b60200260200101818152505060135460155410158160008151811061181a57fe5b6020026020010190151590811515815250508160088151811061183957fe5b602002602001015160155410158160018151811061185357fe5b6020026020010190151590811515815250508060008151811061187257fe5b6020026020010151611885576000611894565b601354601554611894916133ec565b82600a815181106118a157fe5b602002602001018181525050806001815181106118ba57fe5b60200260200101516118f4576118ef601554836008815181106118d957fe5b60200260200101516133ec90919063ffffffff16565b61191d565b61191d8260088151811061190457fe5b60200260200101516015546133ec90919063ffffffff16565b82600b8151811061192a57fe5b60200260200101818152505060165482600c8151811061194657fe5b602002602001018181525050601a5482600d8151811061196257fe5b60200260200101818152505060006009541180156119805750600b54155b15611a2a57600061199e6010546009546133dc90919063ffffffff16565b905060004282116119b757670de0b6b3a76400006119e1565b6010546119e1906119d2906119cc85426133ec565b90613a07565b670de0b6b3a7640000906133ec565b9050611a0a67058d15e176280000611a04836020546139e990919063ffffffff16565b906139e9565b84600e81518110611a1757fe5b6020026020010181815250505050611a46565b600082600e81518110611a3957fe5b6020026020010181815250505b6006546001600160a01b03169591945092509050565b601f5481565b60115481565b600e5481565b6000806060611a8560025460ff861610601861384a565b60028460ff1681548110611a9557fe5b90600052602060002090602091828204019190069054906101000a900460ff16611ac860038660ff1681548110610f2757fe5b611ad48660ff16613111565b9250925092509193909250565b60205481565b6005546001600160a01b031681565b611afe613a1f565b611b06613858565b6005546040805142815290516001600160a01b03909216917f4dcd504f23c1c204f965486c526a1e35cfb215bb4823dd1be0a172277bb1b3459181900360200190a2565b60026000541415611ba2576040805162461bcd60e51b815260206004820152601f60248201527f5265656e7472616e637947756172643a207265656e7472616e742063616c6c00604482015290519081900360640190fd5b6002600055611baf6134f0565b611bb76137b0565b611be06000600954118015611bd95750601054600954611bd6916133dc565b42115b603161384a565b600f54611bf29060ff1615603261384a565b60055460408051631f0b96b960e31b815290516000926001600160a01b03169163f85cb5c8916004808301926020929190829003018186803b158015611c3757600080fd5b505afa158015611c4b573d6000803e3d6000fd5b505050506040513d6020811015611c6157600080fd5b5051604080516370a0823160e01b815230600482015290516001600160a01b03909216916370a0823191602480820192602092909190829003018186803b158015611cab57600080fd5b505afa158015611cbf573d6000803e3d6000fd5b505050506040513d6020811015611cd557600080fd5b50519050611cea670de0b6b3a7640000613ac4565b611de281600560009054906101000a90046001600160a01b03166001600160a01b031663f85cb5c86040518163ffffffff1660e01b815260040160206040518083038186803b158015611d3c57600080fd5b505afa158015611d50573d6000803e3d6000fd5b505050506040513d6020811015611d6657600080fd5b5051604080516370a0823160e01b815230600482015290516001600160a01b03909216916370a0823191602480820192602092909190829003018186803b158015611db057600080fd5b505afa158015611dc4573d6000803e3d6000fd5b505050506040513d6020811015611dda57600080fd5b5051906133ec565b601555600f8054600160ff19909116811761ff00191690915542600b5554604080517fd6a45aa50000000000000000000000000000000000000000000000000000000081529051620100009092046001600160a01b03169163d6a45aa591600481810192602092909190829003018186803b158015611e6057600080fd5b505afa158015611e74573d6000803e3d6000fd5b505050506040513d6020811015611e8a57600080fd5b5051600654604080517f3b5bb1d50000000000000000000000000000000000000000000000000000000081526001600160a01b0392831660048201818152602483019384528851604484015288519490951694633b5bb1d594919389939192909160640190602085019080838360005b83811015611f12578181015183820152602001611efa565b50505050905090810190601f168015611f3f5780820380516001836020036101000a031916815260200191505b509350505050602060405180830381600087803b158015611f5f57600080fd5b505af1158015611f73573d6000803e3d6000fd5b505050506040513d6020811015611f8957600080fd5b505060055460408051634d5b1ba160e11b81523360048201526024810187905290516001600160a01b0390921691639ab637429160448082019260009290919082900301818387803b158015611fde57600080fd5b505af1158015611ff2573d6000803e3d6000fd5b50505050612006826015541015606c61384a565b61200e613f18565b612016614523565b600b54600a5560055460155460408051918252602082018790524282820152516001600160a01b03909216917f2d21f7a1772dd51a6d96bd1cb40623cb13b73fd3d037618d9688707ce1b5b9569181900360600190a2505060016000555050565b60606120823361456c565b61208a6134f0565b6120cb858585858080601f0160208091040260200160405190810160405280939291908181526020018383808284376000920191909152506146c492505050565b95945050505050565b60195481565b60075481565b6120e8613a1f565b6120f06134f0565b6010546121029082351115603261384a565b61210c813561482f565b612119602082013561494e565b6121266040820135614969565b6121336060820135614984565b612140608082013561499f565b6010546040805183358152602081019290925280517f42fb010605de46a36c4814784d207e3b8a1ce9f6773eaea652c07d2a07e95e579281900390910190a150565b600260005414156121da576040805162461bcd60e51b815260206004820152601f60248201527f5265656e7472616e637947756172643a207265656e7472616e742063616c6c00604482015290519081900360640190fd5b60026000556121e76134f0565b600f546121fe90610100900460ff1615603461384a565b6000826001600160a01b03166370a08231306040518263ffffffff1660e01b815260040180826001600160a01b0316815260200191505060206040518083038186803b15801561224d57600080fd5b505afa158015612261573d6000803e3d6000fd5b505050506040513d602081101561227757600080fd5b505160055460408051631f0b96b960e31b815290519293506122fb92869285926001600160a01b039091169163f85cb5c891600480820192602092909190829003018186803b1580156122c957600080fd5b505afa1580156122dd573d6000803e3d6000fd5b505050506040513d60208110156122f357600080fd5b50518561361d565b50612304614523565b5050600160005550565b601e5481565b60125481565b6001600160a01b0381166000908152601b60205260409020545b919050565b6123423361456c565b61234a6134f0565b604080516001600160a01b038581166024830152600060448084019190915283518084039091018152606490920183526020820180516001600160e01b031663095ea7b360e01b178152925182519186169390918291908083835b602083106123c45780518252601f1990920191602091820191016123a5565b6001836020036101000a0380198251168184511680821785525050505050509050019150506000604051808303816000865af19150503d8060008114612426576040519150601f19603f3d011682016040523d82523d6000602084013e61242b565b606091505b506124439150506001600160a01b03831684836149b2565b505050565b60085481565b60006124586133fc565b6124606134f0565b6120cb8585858561361d565b600f54600954600b54600a54309460ff610100860481169562010000810482169591169390929091565b601c805460408051602060026001851615610100026000190190941693909304601f8101849004840282018401909252818152929183018282801561251c5780601f106124f15761010080835404028352916020019161251c565b820191906000526020600020905b8154815290600101906020018083116124ff57829003601f168201915b505050505081565b60145481565b600d5481565b600154610100900460ff16806125495750612549614ade565b80612557575060015460ff16155b6125925760405162461bcd60e51b815260040180806020018281038252602e815260200180615ce9602e913960400191505060405180910390fd5b600154610100900460ff161580156125bc576001805460ff1961ff00199091166101001716811790555b600180547fffffffffffffffffffff0000000000000000000000000000000000000000ffff16620100006001600160a01b038c8116820292909217928390556005805473ffffffffffffffffffffffffffffffffffffffff19168e8416908117909155604080516313bc6d4b60e01b815260048101929092525161269a9492909204909216916313bc6d4b916024808301926020929190829003018186803b15801561266757600080fd5b505afa15801561267b573d6000803e3d6000fd5b505050506040513d602081101561269157600080fd5b5051602461384a565b600554604080516370a0823160e01b81526001600160a01b038e81166004830152915161271f9360009316916370a08231916024808301926020929190829003018186803b1580156126eb57600080fd5b505afa1580156126ff573d6000803e3d6000fd5b505050506040513d602081101561271557600080fd5b505111602561384a565b6127288861499f565b612732878c614aef565b61273b8661482f565b61274482614969565b61274d8361494e565b61275684614984565b6006805473ffffffffffffffffffffffffffffffffffffffff19166001600160a01b038d81169190911790915542600755600154604080517f3f2a554000000000000000000000000000000000000000000000000000000000815290516201000090920490921691633f2a5540916004808301926020929190829003018186803b1580156127e357600080fd5b505afa1580156127f7573d6000803e3d6000fd5b505050506040513d602081101561280d57600080fd5b5051601d805473ffffffffffffffffffffffffffffffffffffffff19166001600160a01b0390921691909117905560148590558015612852576001805461ff00191690555b5050505050505050505050565b600c818154811061286f57600080fd5b6000918252602090912001546001600160a01b0316905081565b60025490565b6000806009541180156128a25750600b54155b905090565b600554612960906001600160a01b0316331480156128ce5750600f5462010000900460ff16155b80156129595750600154600554604080516313bc6d4b60e01b81526001600160a01b039283166004820152905162010000909304909116916313bc6d4b91602480820192602092909190829003018186803b15801561292c57600080fd5b505afa158015612940573d6000803e3d6000fd5b505050506040513d602081101561295657600080fd5b50515b602261384a565b8051600090612970906040614bff565b905061299660008211801561298457508584145b801561298f57508382145b604b61384a565b60005b85811015612b53576001546201000090046001600160a01b031663201041988888848181106129c457fe5b9050602002013560ff166040518263ffffffff1660e01b8152600401808260ff16815260200191505060206040518083038186803b158015612a0557600080fd5b505afa158015612a19573d6000803e3d6000fd5b505050506040513d6020811015612a2f57600080fd5b50516001600160a01b031663cdea2034612a498584614c66565b6005546001600160a01b0316888886818110612a6157fe5b905060200201356001600160a01b0316856040518563ffffffff1660e01b81526004018080602001856001600160a01b03168152602001846001600160a01b03168152602001838152602001828103825286818151815260200191508051906020019080838360005b83811015612ae2578181015183820152602001612aca565b50505050905090810190601f168015612b0f5780820380516001836020036101000a031916815260200191505b509550505050505060006040518083038186803b158015612b2f57600080fd5b505afa158015612b43573d6000803e3d6000fd5b5050600190920191506129999050565b50612b6060028787615b8d565b50612b6d60038585615b21565b508151612b8190601c906020850190615c31565b5050600f805462ff00001916620100001790555050505050565b60026000541415612bf3576040805162461bcd60e51b815260206004820152601f60248201527f5265656e7472616e637947756172643a207265656e7472616e742063616c6c00604482015290519081900360640190fd5b6002600055612c006134f0565b612c086137b0565b612c1660008311603961384a565b612c21828233614c77565b50506001600055565b60026000541415612c82576040805162461bcd60e51b815260206004820152601f60248201527f5265656e7472616e637947756172643a207265656e7472616e742063616c6c00604482015290519081900360640190fd5b6002600055600554612db7906001600160a01b031633148015612d245750600154600554604080516313bc6d4b60e01b81526001600160a01b039283166004820152905162010000909304909116916313bc6d4b91602480820192602092909190829003018186803b158015612cf757600080fd5b505afa158015612d0b573d6000803e3d6000fd5b505050506040513d6020811015612d2157600080fd5b50515b80612db05750600160029054906101000a90046001600160a01b03166001600160a01b0316638da5cb5b6040518163ffffffff1660e01b815260040160206040518083038186803b158015612d7857600080fd5b505afa158015612d8c573d6000803e3d6000fd5b505050506040513d6020811015612da257600080fd5b50516001600160a01b031633145b601f61384a565b612dbf6134f0565b600f54612de490610100900460ff168015612ddd5750600f5460ff16155b602c61384a565b612e07612dfe6010546009546133dc90919063ffffffff16565b4210603261384a565b612e14818310606461384a565b612e26612e218383613a07565b613ac4565b601354612e3390836133ec565b6013819055612e4490836000614f6d565b601455612e5282600061502a565b60055460408051631f0b96b960e31b81529051612fbc926001600160a01b031691829163f85cb5c891600480820192602092909190829003018186803b158015612e9b57600080fd5b505afa158015612eaf573d6000803e3d6000fd5b505050506040513d6020811015612ec557600080fd5b5051604080516370a0823160e01b815230600482015290516001600160a01b03909216916370a0823191602480820192602092909190829003018186803b158015612f0f57600080fd5b505afa158015612f23573d6000803e3d6000fd5b505050506040513d6020811015612f3957600080fd5b505160055460408051631f0b96b960e31b815290516001600160a01b039092169163f85cb5c891600480820192602092909190829003018186803b158015612f8057600080fd5b505afa158015612f94573d6000803e3d6000fd5b505050506040513d6020811015612faa57600080fd5b50516001600160a01b03169190615098565b42600a81905560055460408051858152602081019390935280516001600160a01b03909216927fcff91fcd7fff5d12ce9ee075980ad73fde31d99f583cb228a04ee0ef4f34ba6f929081900390910190a250506001600055565b60008060008060008060008060008060008060008030600660009054906101000a90046001600160a01b0316600380549050601154600d54600e54601354601554601054601454601254600160029054906101000a90046001600160a01b03166001600160a01b031663d6a45aa56040518163ffffffff1660e01b815260040160206040518083038186803b1580156130ae57600080fd5b505afa1580156130c2573d6000803e3d6000fd5b505050506040513d60208110156130d857600080fd5b50516007546130e5610de9565b9d509d509d509d509d509d509d509d509d509d509d509d509d509d50909192939495969798999a9b9c9d565b6004546060906131b857601c8054604080516020601f600260001961010060018816150201909516949094049384018190048102820181019092528281526131b393909290918301828280156131a85780601f1061317d576101008083540402835291602001916131a8565b820191906000526020600020905b81548152906001019060200180831161318b57829003601f168201915b505050505083614c66565b613201565b600482815481106131c557fe5b6000918252602080832090910154604080516001600160a01b039092169282019290925280820192909252805180830382018152606090920190525b92915050565b600154604080517fa56880f00000000000000000000000000000000000000000000000000000000081526001600160a01b0384811660048301529151600093849362010000909104169163a56880f0916024808301926020929190829003018186803b15801561327657600080fd5b505afa15801561328a573d6000803e3d6000fd5b505050506040513d60208110156132a057600080fd5b505190506001600160a01b03811661320157826111fa565b60608182601f011015613312576040805162461bcd60e51b815260206004820152600e60248201527f736c6963655f6f766572666c6f77000000000000000000000000000000000000604482015290519081900360640190fd5b8183018451101561336a576040805162461bcd60e51b815260206004820152601160248201527f736c6963655f6f75744f66426f756e6473000000000000000000000000000000604482015290519081900360640190fd5b60608215801561338957604051915060008252602082016040526133d3565b6040519150601f8416801560200281840101858101878315602002848b0101015b818310156133c25780518352602092830192016133aa565b5050858452601f01601f1916604052505b50949350505050565b8082018281101561320157600080fd5b8082038281111561320157600080fd5b6000805b60025460ff821610156134e15781806134d75750600160029054906101000a90046001600160a01b03166001600160a01b0316632010419860028360ff168154811061344857fe5b90600052602060002090602091828204019190069054906101000a900460ff166040518263ffffffff1660e01b8152600401808260ff16815260200191505060206040518083038186803b15801561349f57600080fd5b505afa1580156134b3573d6000803e3d6000fd5b505050506040513d60208110156134c957600080fd5b50516001600160a01b031633145b9150600101613400565b506134ed81604c61384a565b50565b600154604080517f5b14f183000000000000000000000000000000000000000000000000000000008152306004820152905161361b926201000090046001600160a01b031691635b14f183916024808301926020929190829003018186803b15801561355b57600080fd5b505afa15801561356f573d6000803e3d6000fd5b505050506040513d602081101561358557600080fd5b505115806136145750600160029054906101000a90046001600160a01b03166001600160a01b0316638da5cb5b6040518163ffffffff1660e01b815260040160206040518083038186803b1580156135dc57600080fd5b505afa1580156135f0573d6000803e3d6000fd5b505050506040513d602081101561360657600080fd5b50516001600160a01b031633145b605361384a565b565b60008061362a8685615103565b9050613639811515606261384a565b600061364f878661364a89866139e9565b615222565b90506000846136755760205461366c576658d15e17628000613670565b6020545b613677565b845b9050600061368f61368884846139e9565b84906133ec565b9050600160029054906101000a90046001600160a01b03166001600160a01b031663e6e605136040518163ffffffff1660e01b815260040160206040518083038186803b1580156136df57600080fd5b505afa1580156136f3573d6000803e3d6000fd5b505050506040513d602081101561370957600080fd5b5051604080517ffa1ca8200000000000000000000000000000000000000000000000000000000081523060048201526001600160a01b038c81166024830152604482018c90528a81166064830152608482018590529151919092169163fa1ca8209160a480830192600092919082900301818387803b15801561378b57600080fd5b505af115801561379f573d6000803e3d6000fd5b50929b9a5050505050505050505050565b600154604080517f411137c3000000000000000000000000000000000000000000000000000000008152336004820152905161361b926201000090046001600160a01b03169163411137c3916024808301926020929190829003018186803b15801561381b57600080fd5b505afa15801561382f573d6000803e3d6000fd5b505050506040513d602081101561384557600080fd5b505160125b8161137e5761137e8161529a565b61387760095460001480156138705750600f5460ff16155b603861384a565b600560009054906101000a90046001600160a01b03166001600160a01b031663ca7899066040518163ffffffff1660e01b8152600401600060405180830381600087803b1580156138c757600080fd5b505af11580156138db573d6000803e3d6000fd5b50505050565b6138e96134f0565b811561395c5773c02aaa39b223fe8d0a0e5c4f27ead9083c756cc26001600160a01b031663d0e30db0826040518263ffffffff1660e01b81526004016000604051808303818588803b15801561393e57600080fd5b505af1158015613952573d6000803e3d6000fd5b505050505061137e565b73c02aaa39b223fe8d0a0e5c4f27ead9083c756cc26001600160a01b0316632e1a7d4d826040518263ffffffff1660e01b815260040180828152602001915050600060405180830381600087803b1580156139b657600080fd5b505af11580156139ca573d6000803e3d6000fd5b505050505050565b6000808212156139e55781600003613201565b5090565b60006111fa670de0b6b3a7640000613a0185856152ed565b90614bff565b60006111fa82613a0185670de0b6b3a76400006152ed565b60065461361b906001600160a01b0316331480613abd5750600160029054906101000a90046001600160a01b03166001600160a01b0316638da5cb5b6040518163ffffffff1660e01b815260040160206040518083038186803b158015613a8557600080fd5b505afa158015613a99573d6000803e3d6000fd5b505050506040513d6020811015613aaf57600080fd5b50516001600160a01b031633145b602061384a565b6000613ae1613ada600160028054905003613111565b600c615311565b60025490915060009081905b8015613d3357600154600280546000926201000090046001600160a01b0316916320104198916000198601908110613b2157fe5b90600052602060002090602091828204019190069054906101000a900460ff166040518263ffffffff1660e01b8152600401808260ff16815260200191505060206040518083038186803b158015613b7857600080fd5b505afa158015613b8c573d6000803e3d6000fd5b505050506040513d6020811015613ba257600080fd5b50516002549091506001600160a01b0382169063bdd7a79c908790879087908714613bd557670de0b6b3a7640000613bd7565b8a5b613be360018903613111565b600554600380546001600160a01b0390921691613c0991906000198d01908110610f2757fe5b6040518863ffffffff1660e01b815260040180886001600160a01b031681526020018781526020018660ff16815260200185815260200180602001846001600160a01b03168152602001836001600160a01b03168152602001828103825285818151815260200191508051906020019080838360005b83811015613c97578181015183820152602001613c7f565b50505050905090810190601f168015613cc45780820380516001836020036101000a031916815260200191505b5098505050505050505050606060405180830381600087803b158015613ce957600080fd5b505af1158015613cfd573d6000803e3d6000fd5b505050506040513d6060811015613d1357600080fd5b508051602082015160409092015190965090945092505060001901613aed565b50600560009054906101000a90046001600160a01b03166001600160a01b031663f85cb5c86040518163ffffffff1660e01b815260040160206040518083038186803b158015613d8257600080fd5b505afa158015613d96573d6000803e3d6000fd5b505050506040513d6020811015613dac57600080fd5b50516001600160a01b03848116911614801590613dc95750600082115b156138db576001600160a01b038316613dff57613de76001836138e1565b73c02aaa39b223fe8d0a0e5c4f27ead9083c756cc292505b600560009054906101000a90046001600160a01b03166001600160a01b031663f85cb5c86040518163ffffffff1660e01b815260040160206040518083038186803b158015613e4d57600080fd5b505afa158015613e61573d6000803e3d6000fd5b505050506040513d6020811015613e7757600080fd5b50516001600160a01b038481169116146138db57613f118383600560009054906101000a90046001600160a01b03166001600160a01b031663f85cb5c86040518163ffffffff1660e01b815260040160206040518083038186803b158015613ede57600080fd5b505afa158015613ef2573d6000803e3d6000fd5b505050506040513d6020811015613f0857600080fd5b5051600061361d565b5050505050565b60055460408051631f0b96b960e31b815290516000926001600160a01b03169163f85cb5c8916004808301926020929190829003018186803b158015613f5d57600080fd5b505afa158015613f71573d6000803e3d6000fd5b505050506040513d6020811015613f8757600080fd5b5051601354909150600090613fb090613f9f9061531d565b613faa60155461531d565b9061537d565b9050600080600060135460155411613fc9576000613fd8565b601354601554613fd8916133ec565b9050601354601554106141195761406981600160029054906101000a90046001600160a01b03166001600160a01b031663568c08136040518163ffffffff1660e01b815260040160206040518083038186803b15801561403757600080fd5b505afa15801561404b573d6000803e3d6000fd5b505050506040513d602081101561406157600080fd5b5051906139e9565b925082156140ff576140ff600160029054906101000a90046001600160a01b03166001600160a01b031663f58d1c946040518163ffffffff1660e01b815260040160206040518083038186803b1580156140c257600080fd5b505afa1580156140d6573d6000803e3d6000fd5b505050506040513d60208110156140ec57600080fd5b50516001600160a01b0387169085615098565b61411261410b8461531d565b859061537d565b9350614157565b6141546718493fba64ef000061414e614145601154611a04601354601554613a0790919063ffffffff16565b601154906133ec565b906153e2565b91505b600554601554614186916001600160a01b03169061417590866133ec565b6001600160a01b0388169190615098565b614193601354600061502a565b601d54604080517f9de9a05200000000000000000000000000000000000000000000000000000000815230600482015290516001600160a01b0390921691639de9a05291602480820192602092909190829003018186803b1580156141f757600080fd5b505afa15801561420b573d6000803e3d6000fd5b505050506040513d602081101561422157600080fd5b5051601955601d54600554604080517f070e8a4a0000000000000000000000000000000000000000000000000000000081526001600160a01b0392831660048201529051600093929092169163070e8a4a91602480820192606092909190829003018186803b15801561429357600080fd5b505afa1580156142a7573d6000803e3d6000fd5b505050506040513d601f19601f8201168201806040525060608110156142cc57600080fd5b810190809190505090506000600160029054906101000a90046001600160a01b03166001600160a01b031663f58d1c946040518163ffffffff1660e01b815260040160206040518083038186803b15801561432657600080fd5b505afa15801561433a573d6000803e3d6000fd5b505050506040513d602081101561435057600080fd5b5051604080517f65f7f64800000000000000000000000000000000000000000000000000000000815290516001600160a01b03909216916365f7f64891600480820192602092909190829003018186803b1580156143ad57600080fd5b505afa1580156143c1573d6000803e3d6000fd5b505050506040513d60208110156143d757600080fd5b50516005546001600160a01b03908116911614156143f657600061441c565b61441c8561441661440f856002602002015187906139e9565b86906133ec565b906133ec565b9050600560009054906101000a90046001600160a01b03166001600160a01b03166318160ddd6040518163ffffffff1660e01b815260040160206040518083038186803b15801561446c57600080fd5b505afa158015614480573d6000803e3d6000fd5b505050506040513d602081101561449657600080fd5b5051601a55600554604080517f50a9600300000000000000000000000000000000000000000000000000000000815260048101849052602481018990526044810187905290516001600160a01b03909216916350a960039160648082019260009290919082900301818387803b15801561450f57600080fd5b505af1158015612852573d6000803e3d6000fd5b60055460408051631f0b96b960e31b8152905161361b926001600160a01b031691829163f85cb5c891600480820192602092909190829003018186803b158015612e9b57600080fd5b60005b6003548110156145b057816001600160a01b031661459360038381548110610f2757fe5b6001600160a01b031614156145a857506134ed565b60010161456f565b506134ed600160029054906101000a90046001600160a01b03166001600160a01b031663e6e605136040518163ffffffff1660e01b815260040160206040518083038186803b15801561460257600080fd5b505afa158015614616573d6000803e3d6000fd5b505050506040513d602081101561462c57600080fd5b5051604080517f2d108f410000000000000000000000000000000000000000000000000000000081526001600160a01b03858116600483015291519190921691632d108f41916024808301926020929190829003018186803b15801561469157600080fd5b505afa1580156146a5573d6000803e3d6000fd5b505050506040513d60208110156146bb57600080fd5b5051602161384a565b606061471b82846040518060400160405280600a81526020017f6e6f20657272206d736700000000000000000000000000000000000000000000815250876001600160a01b03166153fe909392919063ffffffff16565b905082846001600160a01b03167f2a936dbabeaea30adc1ddad138b1958497988474bef8b09a29411f0105ab8ab28484604051808060200180602001838103835285818151815260200191508051906020019080838360005b8381101561478c578181015183820152602001614774565b50505050905090810190601f1680156147b95780820380516001836020036101000a031916815260200191505b50838103825284518152845160209182019186019080838360005b838110156147ec5781810151838201526020016147d4565b50505050905090810190601f1680156148195780820380516001836020036101000a031916815260200191505b5094505050505060405180910390a39392505050565b600554604080517f95cdbedb0000000000000000000000000000000000000000000000000000000081529051614949926001600160a01b0316916395cdbedb916004808301926020929190829003018186803b15801561488e57600080fd5b505afa1580156148a2573d6000803e3d6000fd5b505050506040513d60208110156148b857600080fd5b505182108015906149425750600560009054906101000a90046001600160a01b03166001600160a01b031663297ce5986040518163ffffffff1660e01b815260040160206040518083038186803b15801561491257600080fd5b505afa158015614926573d6000803e3d6000fd5b505050506040513d602081101561493c57600080fd5b50518211155b602761384a565b601055565b61496467016345785d8a0000821115606761384a565b601f55565b61497f6702c68af0bb140000821115606661384a565b602055565b61499a670de0b6b3a7640000821115605d61384a565b601e55565b6149ad60008211602961384a565b601255565b801580614a515750604080517fdd62ed3e0000000000000000000000000000000000000000000000000000000081523060048201526001600160a01b03848116602483015291519185169163dd62ed3e91604480820192602092909190829003018186803b158015614a2357600080fd5b505afa158015614a37573d6000803e3d6000fd5b505050506040513d6020811015614a4d57600080fd5b5051155b614a8c5760405162461bcd60e51b8152600401808060200182810382526036815260200180615d8d6036913960400191505060405180910390fd5b604080516001600160a01b038416602482015260448082018490528251808303909101815260649091019091526020810180516001600160e01b031663095ea7b360e01b17905261244390849061554e565b6000614ae9306155ff565b15905090565b600554604080517f3d8270f50000000000000000000000000000000000000000000000000000000081526001600160a01b03848116600483015291516000939290921691633d8270f59160248082019261012092909190829003018186803b158015614b5a57600080fd5b505afa158015614b6e573d6000803e3d6000fd5b505050506040513d610120811015614b8557600080fd5b5061010001519050614bf88315801590614bf15750600554604080516370a0823160e01b81526001600160a01b03868116600483015291518793614bee9387939116916370a0823191602480820192602092909190829003018186803b158015611db057600080fd5b10155b600761384a565b5050601155565b6000808211614c55576040805162461bcd60e51b815260206004820152601a60248201527f536166654d6174683a206469766973696f6e206279207a65726f000000000000604482015290519081900360640190fd5b818381614c5e57fe5b049392505050565b60606111fa838360400260406132b8565b600f54614c8d90610100900460ff16602c61384a565b614cb1601254614ca8856013546133dc90919063ffffffff16565b1115602d61384a565b600554604080517f3deddb3f0000000000000000000000000000000000000000000000000000000081529051614d53926001600160a01b031691633deddb3f916004808301926020929190829003018186803b158015614d1057600080fd5b505afa158015614d24573d6000803e3d6000fd5b505050506040513d6020811015614d3a57600080fd5b5051600854614d4a9042906133ec565b1015602f61384a565b600554604080517f4422b0dc0000000000000000000000000000000000000000000000000000000081526004810186905290516001600160a01b0390921691634422b0dc9160248082019260009290919082900301818387803b158015614db957600080fd5b505af1158015614dcd573d6000803e3d6000fd5b5050601354614ddf92509050846133dc565b601355614deb83615605565b600954614e885742600955600554604080517f18160ddd00000000000000000000000000000000000000000000000000000000815290516001600160a01b03909216916318160ddd91600480820192602092909190829003018186803b158015614e5457600080fd5b505afa158015614e68573d6000803e3d6000fd5b505050506040513d6020811015614e7e57600080fd5b5051601655614e9a565b614e96601354846001614f6d565b6014555b614ea583600161502a565b60055460408051634d5b1ba160e11b81526001600160a01b0384811660048301526024820186905291519190921691639ab6374291604480830192600092919082900301818387803b158015614efa57600080fd5b505af1158015614f0e573d6000803e3d6000fd5b505042600a819055600554604080518881526020810188905280820193909352516001600160a01b0390911693507f7f4467a4ca8be02143a9253e6c31362c7bc755929e5c68faf659636d307f1b8c92509081900360600190a2505050565b60008082614f8457614f7f85856133dc565b614f86565b845b90506000614f9f601054836152ed90919063ffffffff16565b905060008415614fdd57614fd6826119cc614fcf614fc8600954426133ec90919063ffffffff16565b8a906152ed565b85906133ec565b9050615012565b61500f615008613688615001426144166010546009546133dc90919063ffffffff16565b89906152ed565b8390613a07565b90505b60145461501f90826139e9565b979650505050505050565b601d54604080517fd717a50600000000000000000000000000000000000000000000000000000000815260048101859052831515602482015290516001600160a01b039092169163d717a5069160448082019260009290919082900301818387803b1580156139b657600080fd5b604080516001600160a01b038416602482015260448082018490528251808303909101815260649091019091526020810180516001600160e01b03167fa9059cbb0000000000000000000000000000000000000000000000000000000017905261244390849061554e565b6000600160029054906101000a90046001600160a01b03166001600160a01b0316632630c12f6040518163ffffffff1660e01b815260040160206040518083038186803b15801561515357600080fd5b505afa158015615167573d6000803e3d6000fd5b505050506040513d602081101561517d57600080fd5b5051604080517fac41865a0000000000000000000000000000000000000000000000000000000081526001600160a01b03868116600483015285811660248301529151919092169163ac41865a916044808301926020929190829003018186803b1580156151ea57600080fd5b505afa92505050801561520f57506040513d602081101561520a57600080fd5b505160015b61521b57506000613201565b9050613201565b600080615237856001600160a01b0316615898565b9050600061524d856001600160a01b0316615898565b9050808214156152615783925050506111fa565b818111156152815761527884838303600a0a6152ed565b925050506111fa565b61529084828403600a0a614bff565b9695505050505050565b62461bcd60e51b6000908152602060045260076024526642414223000030600a808404818106603090810160081b95839006959095019082900491820690940160101b939093010160c81b604452606490fd5b60008215806153085750508181028183828161530557fe5b04145b61320157600080fd5b60006111fa83836159c4565b60007f800000000000000000000000000000000000000000000000000000000000000082106139e55760405162461bcd60e51b8152600401808060200182810382526028815260200180615d176028913960400191505060405180910390fd5b60008183038183128015906153925750838113155b806153a757506000831280156153a757508381135b6111fa5760405162461bcd60e51b8152600401808060200182810382526024815260200180615d3f6024913960400191505060405180910390fd5b6000670de0b6b3a76400006153f784846152ed565b81614c5e57fe5b60608247101561543f5760405162461bcd60e51b8152600401808060200182810382526026815260200180615cc36026913960400191505060405180910390fd5b615448856155ff565b615499576040805162461bcd60e51b815260206004820152601d60248201527f416464726573733a2063616c6c20746f206e6f6e2d636f6e7472616374000000604482015290519081900360640190fd5b600080866001600160a01b031685876040518082805190602001908083835b602083106154d75780518252601f1990920191602091820191016154b8565b6001836020036101000a03801982511681845116808217855250505050505090500191505060006040518083038185875af1925050503d8060008114615539576040519150601f19603f3d011682016040523d82523d6000602084013e61553e565b606091505b509150915061501f828286615a38565b60006155a3826040518060400160405280602081526020017f5361666545524332303a206c6f772d6c6576656c2063616c6c206661696c6564815250856001600160a01b0316615adc9092919063ffffffff16565b805190915015612443578080602001905160208110156155c257600080fd5b50516124435760405162461bcd60e51b815260040180806020018281038252602a815260200180615d63602a913960400191505060405180910390fd5b3b151590565b60055460408051631f0b96b960e31b8152905183926000926001600160a01b039091169163f85cb5c891600480820192602092909190829003018186803b15801561564f57600080fd5b505afa158015615663573d6000803e3d6000fd5b505050506040513d602081101561567957600080fd5b505190506000805b600254811015613f1157600154600280546000926201000090046001600160a01b031691632010419891859081106156b557fe5b90600052602060002090602091828204019190069054906101000a900460ff166040518263ffffffff1660e01b8152600401808260ff16815260200191505060206040518083038186803b15801561570c57600080fd5b505afa158015615720573d6000803e3d6000fd5b505050506040513d602081101561573657600080fd5b505190506001600160a01b0381166387033f6185878661575587613111565b600554600380546001600160a01b039092169161577791908b908110610f2757fe5b6040518763ffffffff1660e01b815260040180876001600160a01b031681526020018681526020018560ff16815260200180602001846001600160a01b03168152602001836001600160a01b03168152602001828103825285818151815260200191508051906020019080838360005b838110156157ff5781810151838201526020016157e7565b50505050905090810190601f16801561582c5780820380516001836020036101000a031916815260200191505b50975050505050505050606060405180830381600087803b15801561585057600080fd5b505af1158015615864573d6000803e3d6000fd5b505050506040513d606081101561587a57600080fd5b50805160208201516040909201519196509450925050600101615681565b60006158a382615aeb565b156158b057506012612334565b60408051600481526024810182526020810180516001600160e01b03167f313ce567000000000000000000000000000000000000000000000000000000001781529151815160009384936001600160a01b038816939092909182918083835b6020831061592e5780518252601f19909201916020918201910161590f565b6001836020036101000a038019825116818451168082178552505050505050905001915050600060405180830381855afa9150503d806000811461598e576040519150601f19603f3d011682016040523d82523d6000602084013e615993565b606091505b5091509150816159a45760126159bc565b8080602001905160208110156159b957600080fd5b50515b949350505050565b60008160140183511015615a1f576040805162461bcd60e51b815260206004820152601560248201527f746f416464726573735f6f75744f66426f756e64730000000000000000000000604482015290519081900360640190fd5b5001602001516c01000000000000000000000000900490565b60608315615a475750816111fa565b825115615a575782518084602001fd5b8160405162461bcd60e51b81526004018080602001828103825283818151815260200191508051906020019080838360005b83811015615aa1578181015183820152602001615a89565b50505050905090810190601f168015615ace5780820380516001836020036101000a031916815260200191505b509250505060405180910390fd5b60606111f784846000856153fe565b60006001600160a01b03821615806132015750506001600160a01b031673eeeeeeeeeeeeeeeeeeeeeeeeeeeeeeeeeeeeeeee1490565b828054828255906000526020600020908101928215615b81579160200282015b82811115615b8157815473ffffffffffffffffffffffffffffffffffffffff19166001600160a01b03843516178255602090920191600190910190615b41565b506139e5929150615cad565b82805482825590600052602060002090601f01602090048101928215615b815791602002820160005b83821115615bf757833560ff1683826101000a81548160ff021916908360ff1602179055509260200192600101602081600001049283019260010302615bb6565b8015615c245782816101000a81549060ff0219169055600101602081600001049283019260010302615bf7565b50506139e5929150615cad565b828054600181600116156101000203166002900490600052602060002090601f016020900481019282615c675760008555615b81565b82601f10615c8057805160ff1916838001178555615b81565b82800160010185558215615b81579182015b82811115615b81578251825591602001919060010190615c92565b5b808211156139e55760008155600101615cae56fe416464726573733a20696e73756666696369656e742062616c616e636520666f722063616c6c496e697469616c697a61626c653a20636f6e747261637420697320616c726561647920696e697469616c697a656453616665436173743a2076616c756520646f65736e27742066697420696e20616e20696e743235365369676e6564536166654d6174683a207375627472616374696f6e206f766572666c6f775361666545524332303a204552433230206f7065726174696f6e20646964206e6f7420737563636565645361666545524332303a20617070726f76652066726f6d206e6f6e2d7a65726f20746f206e6f6e2d7a65726f20616c6c6f77616e6365a264697066735822122005b287e5858737256477858b1bae7c3c56bcace4b5100e7b25ce5b1985462eb264736f6c63430007060033",
  "devdoc": {
    "kind": "dev",
    "methods": {
      "executeStrategy(uint256,uint256)": {
        "params": {
          "_capital": "The capital to allocate to this strategy.",
          "_fee": "The fee paid to keeper to compensate the gas cost."
        }
      },
      "expireStrategy(uint256)": {
        "params": {
          "_fee": "The keeper fee"
        }
      },
      "finalizeStrategy(uint256,string,uint256)": {
        "params": {
          "_fee": "The fee paid to keeper to compensate the gas cost",
          "_minReserveOut": "Minimum reserve asset to get during strategy finalization",
          "_tokenURI": "URL with the JSON for the strategy"
        }
      },
      "getNAV()": {
        "returns": {
          "_0": "_nav           NAV of the strategy"
        }
      },
      "getUserVotes(address)": {
        "params": {
          "_address": "Address of the contributor"
        },
        "returns": {
          "_0": "_votes            Number of votes cast"
        }
      },
      "handleWeth(bool,uint256)": {
        "params": {
          "_isDeposit": "Whether is a deposit or withdraw",
          "_wethAmount": "Amount to deposit or withdraw"
        }
      },
      "initialize(address,address,address,uint256,uint256,uint256,uint256,uint256,uint256,uint256)": {
        "params": {
          "_controller": "Address of the controller",
          "_expectedReturn": "Expected return",
          "_garden": "Address of the garden",
          "_maxAllocationPercentage": "Max allocation percentage of garden capital",
          "_maxCapitalRequested": "Max Capital requested denominated in the reserve asset (0 to be unlimited)",
          "_maxGasFeePercentage": "Max gas fee percentage of garden capital",
          "_maxTradeSlippagePercentage": "Max slippage allowed per trade in % of capital",
          "_stake": "Stake with garden participations absolute amounts 1e18",
          "_strategist": "Address of the strategist",
          "_strategyDuration": "Strategy duration in seconds"
        }
      },
      "invokeFromIntegration(address,uint256,bytes)": {
        "params": {
          "_data": "Encoded function selector and arguments",
          "_target": "Address of the smart contract to call",
          "_value": "Quantity of Ether to provide the call (typically 0)"
        },
        "returns": {
          "_0": "_returnValue           Bytes encoded return value"
        }
      },
      "resolveVoting(address[],int256[],uint256)": {
        "params": {
          "_fee": "The fee paid to keeper to compensate the gas cost",
          "_voters": "An array of garden member who voted on strategy.",
          "_votes": "An array of votes by on strategy by garden members."
        }
      },
      "setData(uint8[],address[],bytes)": {
        "params": {
          "_opEncodedData": "Bytes with the params for the op in the same position in the opTypes array",
          "_opIntegrations": "Addresses with the integration for each op",
          "_opTypes": "An array with the op types"
        }
      },
      "sweep(address,uint256)": {
        "params": {
          "_newSlippage": "New Slippage to override",
          "_token": "Address of the token to sweep"
        }
      },
      "trade(address,uint256,address,uint256)": {
        "params": {
          "_overrideSlippage": "Slippage to override",
          "_receiveToken": "Token to receive",
          "_sendQuantity": "Amount of tokens to send",
          "_sendToken": "Token to exchange"
        }
      },
      "unwindStrategy(uint256,uint256)": {
        "params": {
          "_amountToUnwind": "The amount of capital to unwind",
          "_strategyNAV": "NAV of the strategy to unwind."
        }
      },
      "updateParams(uint256[5])": {
        "details": "_params[0]  duration   _params[1]  maxGasFeePercentage   _params[2]  maxTradeSlippagePercentage   _params[3]  maxAllocationPercentage   _params[4]  maxCapitalRequested",
        "params": {
          "_params": "New params"
        }
      }
    },
    "version": 1
  },
  "userdoc": {
    "kind": "user",
    "methods": {
      "deleteCandidateStrategy()": {
        "notice": "Delete a candidate strategy by the strategist"
      },
      "executeStrategy(uint256,uint256)": {
        "notice": "Executes an strategy that has been activated and gone through the cooldown period."
      },
      "expireStrategy(uint256)": {
        "notice": "Expires a candidate that has spent more than CANDIDATE_PERIOD without reaching quorum"
      },
      "finalizeStrategy(uint256,string,uint256)": {
        "notice": "Exits from an executed strategy. Returns balance back to the garden and sets the capital aside for withdrawals in ETH. Pays the keeper. Updates the reserve asset position accordingly."
      },
      "getNAV()": {
        "notice": "Gets the NAV of assets under management. It is the sum of the NAV of all the operations"
      },
      "getOperationByIndex(uint8)": {
        "notice": "Get the operation params by index"
      },
      "getOperationsCount()": {
        "notice": "Returns the number of operations in this strategy"
      },
      "getStrategyDetails()": {
        "notice": "Get the non-state related details of a Strategy"
      },
      "getStrategyRewardsContext()": {
        "notice": "Get mining context details of a Strategy"
      },
      "getStrategyState()": {
        "notice": "Get the state of a Strategy"
      },
      "getUserVotes(address)": {
        "notice": "Gets the votes casted by the contributor in this strategy"
      },
      "handleWeth(bool,uint256)": {
        "notice": "Deposits or withdraws weth from an operation in this context"
      },
      "initialize(address,address,address,uint256,uint256,uint256,uint256,uint256,uint256,uint256)": {
        "notice": "Initializes the strategy for a garden"
      },
      "invokeApprove(address,address,uint256)": {
        "notice": "Helper to invoke Approve on ERC20 from integrations in the strategy context"
      },
      "invokeFromIntegration(address,uint256,bytes)": {
        "notice": "Helper to invoke a call to an external contract from integrations in the strategy context"
      },
      "isStrategyActive()": {
        "notice": "Returns whether this strategy is currently active or not"
      },
      "resolveVoting(address[],int256[],uint256)": {
        "notice": "Adds off-chain voting results on-chain."
      },
      "setData(uint8[],address[],bytes)": {
        "notice": "Sets the data for the operations of this strategy"
      },
      "sweep(address,uint256)": {
        "notice": "Any tokens (other than the target) that are sent here by mistake are recoverable by contributors Converts it to the reserve asset and sends it to the garden."
      },
      "trade(address,uint256,address,uint256)": {
        "notice": "Function that calculates the price using the oracle and executes a trade. Must call the exchange to get the price and pass minReceiveQuantity accordingly."
      },
      "unwindStrategy(uint256,uint256)": {
        "notice": "Partially unwinds an strategy. Triggered from an immediate withdraw in the Garden."
      },
      "updateParams(uint256[5])": {
        "notice": "Allows strategist to update some strategy params"
      }
    },
    "version": 1
  },
  "storageLayout": {
    "storage": [
      {
        "astId": 6418,
        "contract": "contracts/strategies/Strategy.sol:StrategyV31",
        "label": "_status",
        "offset": 0,
        "slot": "0",
        "type": "t_uint256"
      },
      {
        "astId": 492,
        "contract": "contracts/strategies/Strategy.sol:StrategyV31",
        "label": "_initialized",
        "offset": 0,
        "slot": "1",
        "type": "t_bool"
      },
      {
        "astId": 495,
        "contract": "contracts/strategies/Strategy.sol:StrategyV31",
        "label": "_initializing",
        "offset": 1,
        "slot": "1",
        "type": "t_bool"
      },
      {
        "astId": 55503,
        "contract": "contracts/strategies/Strategy.sol:StrategyV31",
        "label": "controller",
        "offset": 2,
        "slot": "1",
        "type": "t_contract(IBabController)40982"
      },
      {
        "astId": 55506,
        "contract": "contracts/strategies/Strategy.sol:StrategyV31",
        "label": "opTypes",
        "offset": 0,
        "slot": "2",
        "type": "t_array(t_uint8)dyn_storage"
      },
      {
        "astId": 55509,
        "contract": "contracts/strategies/Strategy.sol:StrategyV31",
        "label": "opIntegrations",
        "offset": 0,
        "slot": "3",
        "type": "t_array(t_address)dyn_storage"
      },
      {
        "astId": 55512,
        "contract": "contracts/strategies/Strategy.sol:StrategyV31",
        "label": "opDatas",
        "offset": 0,
        "slot": "4",
        "type": "t_array(t_address)dyn_storage"
      },
      {
        "astId": 55515,
        "contract": "contracts/strategies/Strategy.sol:StrategyV31",
        "label": "garden",
        "offset": 0,
        "slot": "5",
        "type": "t_contract(IGarden)41835"
      },
      {
        "astId": 55518,
        "contract": "contracts/strategies/Strategy.sol:StrategyV31",
        "label": "strategist",
        "offset": 0,
        "slot": "6",
        "type": "t_address"
      },
      {
        "astId": 55521,
        "contract": "contracts/strategies/Strategy.sol:StrategyV31",
        "label": "enteredAt",
        "offset": 0,
        "slot": "7",
        "type": "t_uint256"
      },
      {
        "astId": 55524,
        "contract": "contracts/strategies/Strategy.sol:StrategyV31",
        "label": "enteredCooldownAt",
        "offset": 0,
        "slot": "8",
        "type": "t_uint256"
      },
      {
        "astId": 55526,
        "contract": "contracts/strategies/Strategy.sol:StrategyV31",
        "label": "executedAt",
        "offset": 0,
        "slot": "9",
        "type": "t_uint256"
      },
      {
        "astId": 55528,
        "contract": "contracts/strategies/Strategy.sol:StrategyV31",
        "label": "updatedAt",
        "offset": 0,
        "slot": "10",
        "type": "t_uint256"
      },
      {
        "astId": 55530,
        "contract": "contracts/strategies/Strategy.sol:StrategyV31",
        "label": "exitedAt",
        "offset": 0,
        "slot": "11",
        "type": "t_uint256"
      },
      {
        "astId": 55533,
        "contract": "contracts/strategies/Strategy.sol:StrategyV31",
        "label": "voters",
        "offset": 0,
        "slot": "12",
        "type": "t_array(t_address)dyn_storage"
      },
      {
        "astId": 55536,
        "contract": "contracts/strategies/Strategy.sol:StrategyV31",
        "label": "totalPositiveVotes",
        "offset": 0,
        "slot": "13",
        "type": "t_uint256"
      },
      {
        "astId": 55539,
        "contract": "contracts/strategies/Strategy.sol:StrategyV31",
        "label": "totalNegativeVotes",
        "offset": 0,
        "slot": "14",
        "type": "t_uint256"
      },
      {
        "astId": 55541,
        "contract": "contracts/strategies/Strategy.sol:StrategyV31",
        "label": "finalized",
        "offset": 0,
        "slot": "15",
        "type": "t_bool"
      },
      {
        "astId": 55543,
        "contract": "contracts/strategies/Strategy.sol:StrategyV31",
        "label": "active",
        "offset": 1,
        "slot": "15",
        "type": "t_bool"
      },
      {
        "astId": 55545,
        "contract": "contracts/strategies/Strategy.sol:StrategyV31",
        "label": "dataSet",
        "offset": 2,
        "slot": "15",
        "type": "t_bool"
      },
      {
        "astId": 55547,
        "contract": "contracts/strategies/Strategy.sol:StrategyV31",
        "label": "hasMiningStarted",
        "offset": 3,
        "slot": "15",
        "type": "t_bool"
      },
      {
        "astId": 55550,
        "contract": "contracts/strategies/Strategy.sol:StrategyV31",
        "label": "duration",
        "offset": 0,
        "slot": "16",
        "type": "t_uint256"
      },
      {
        "astId": 55553,
        "contract": "contracts/strategies/Strategy.sol:StrategyV31",
        "label": "stake",
        "offset": 0,
        "slot": "17",
        "type": "t_uint256"
      },
      {
        "astId": 55556,
        "contract": "contracts/strategies/Strategy.sol:StrategyV31",
        "label": "maxCapitalRequested",
        "offset": 0,
        "slot": "18",
        "type": "t_uint256"
      },
      {
        "astId": 55559,
        "contract": "contracts/strategies/Strategy.sol:StrategyV31",
        "label": "capitalAllocated",
        "offset": 0,
        "slot": "19",
        "type": "t_uint256"
      },
      {
        "astId": 55562,
        "contract": "contracts/strategies/Strategy.sol:StrategyV31",
        "label": "expectedReturn",
        "offset": 0,
        "slot": "20",
        "type": "t_uint256"
      },
      {
        "astId": 55565,
        "contract": "contracts/strategies/Strategy.sol:StrategyV31",
        "label": "capitalReturned",
        "offset": 0,
        "slot": "21",
        "type": "t_uint256"
      },
      {
        "astId": 55567,
        "contract": "contracts/strategies/Strategy.sol:StrategyV31",
        "label": "startingGardenSupply",
        "offset": 0,
        "slot": "22",
        "type": "t_uint256"
      },
      {
        "astId": 55570,
        "contract": "contracts/strategies/Strategy.sol:StrategyV31",
        "label": "tokensNeeded",
        "offset": 0,
        "slot": "23",
        "type": "t_array(t_address)dyn_storage"
      },
      {
        "astId": 55573,
        "contract": "contracts/strategies/Strategy.sol:StrategyV31",
        "label": "tokenAmountsNeeded",
        "offset": 0,
        "slot": "24",
        "type": "t_array(t_uint256)dyn_storage"
      },
      {
        "astId": 55576,
        "contract": "contracts/strategies/Strategy.sol:StrategyV31",
        "label": "strategyRewards",
        "offset": 0,
        "slot": "25",
        "type": "t_uint256"
      },
      {
        "astId": 55578,
        "contract": "contracts/strategies/Strategy.sol:StrategyV31",
        "label": "endingGardenSupply",
        "offset": 0,
        "slot": "26",
        "type": "t_uint256"
      },
      {
        "astId": 55582,
        "contract": "contracts/strategies/Strategy.sol:StrategyV31",
        "label": "votes",
        "offset": 0,
        "slot": "27",
        "type": "t_mapping(t_address,t_int256)"
      },
      {
        "astId": 55585,
        "contract": "contracts/strategies/Strategy.sol:StrategyV31",
        "label": "opEncodedData",
        "offset": 0,
        "slot": "28",
        "type": "t_bytes_storage"
      },
      {
        "astId": 55587,
        "contract": "contracts/strategies/Strategy.sol:StrategyV31",
        "label": "rewardsDistributor",
        "offset": 0,
        "slot": "29",
        "type": "t_contract(IRewardsDistributor)43074"
      },
      {
        "astId": 55590,
        "contract": "contracts/strategies/Strategy.sol:StrategyV31",
        "label": "maxAllocationPercentage",
        "offset": 0,
        "slot": "30",
        "type": "t_uint256"
      },
      {
        "astId": 55593,
        "contract": "contracts/strategies/Strategy.sol:StrategyV31",
        "label": "maxGasFeePercentage",
        "offset": 0,
        "slot": "31",
        "type": "t_uint256"
      },
      {
        "astId": 55596,
        "contract": "contracts/strategies/Strategy.sol:StrategyV31",
        "label": "maxTradeSlippagePercentage",
        "offset": 0,
        "slot": "32",
        "type": "t_uint256"
      }
    ],
    "types": {
      "t_address": {
        "encoding": "inplace",
        "label": "address",
        "numberOfBytes": "20"
      },
      "t_array(t_address)dyn_storage": {
        "base": "t_address",
        "encoding": "dynamic_array",
        "label": "address[]",
        "numberOfBytes": "32"
      },
      "t_array(t_uint256)dyn_storage": {
        "base": "t_uint256",
        "encoding": "dynamic_array",
        "label": "uint256[]",
        "numberOfBytes": "32"
      },
      "t_array(t_uint8)dyn_storage": {
        "base": "t_uint8",
        "encoding": "dynamic_array",
        "label": "uint8[]",
        "numberOfBytes": "32"
      },
      "t_bool": {
        "encoding": "inplace",
        "label": "bool",
        "numberOfBytes": "1"
      },
      "t_bytes_storage": {
        "encoding": "bytes",
        "label": "bytes",
        "numberOfBytes": "32"
      },
      "t_contract(IBabController)40982": {
        "encoding": "inplace",
        "label": "contract IBabController",
        "numberOfBytes": "20"
      },
      "t_contract(IGarden)41835": {
        "encoding": "inplace",
        "label": "contract IGarden",
        "numberOfBytes": "20"
      },
      "t_contract(IRewardsDistributor)43074": {
        "encoding": "inplace",
        "label": "contract IRewardsDistributor",
        "numberOfBytes": "20"
      },
      "t_int256": {
        "encoding": "inplace",
        "label": "int256",
        "numberOfBytes": "32"
      },
      "t_mapping(t_address,t_int256)": {
        "encoding": "mapping",
        "key": "t_address",
        "label": "mapping(address => int256)",
        "numberOfBytes": "32",
        "value": "t_int256"
      },
      "t_uint256": {
        "encoding": "inplace",
        "label": "uint256",
        "numberOfBytes": "32"
      },
      "t_uint8": {
        "encoding": "inplace",
        "label": "uint8",
        "numberOfBytes": "1"
      }
    }
  }
}