{
  "address": "0xE98f3e671c1fC639511755885FcA3651f8a508F7",
  "abi": [
    {
      "anonymous": false,
      "inputs": [
        {
          "indexed": true,
          "internalType": "address",
          "name": "_target",
          "type": "address"
        },
        {
          "indexed": true,
          "internalType": "uint256",
          "name": "_value",
          "type": "uint256"
        },
        {
          "indexed": false,
          "internalType": "bytes",
          "name": "_data",
          "type": "bytes"
        },
        {
          "indexed": false,
          "internalType": "bytes",
          "name": "_returnValue",
          "type": "bytes"
        }
      ],
      "name": "Invoked",
      "type": "event"
    },
    {
      "anonymous": false,
      "inputs": [
        {
          "indexed": true,
          "internalType": "address",
          "name": "_garden",
          "type": "address"
        },
        {
          "indexed": false,
          "internalType": "uint256",
          "name": "_timestamp",
          "type": "uint256"
        }
      ],
      "name": "StrategyDeleted",
      "type": "event"
    },
    {
      "anonymous": false,
      "inputs": [
        {
          "indexed": false,
          "internalType": "uint256",
          "name": "_newDuration",
          "type": "uint256"
        },
        {
          "indexed": false,
          "internalType": "uint256",
          "name": "_oldDuration",
          "type": "uint256"
        }
      ],
      "name": "StrategyDurationChanged",
      "type": "event"
    },
    {
      "anonymous": false,
      "inputs": [
        {
          "indexed": true,
          "internalType": "address",
          "name": "_garden",
          "type": "address"
        },
        {
          "indexed": false,
          "internalType": "uint256",
          "name": "_capital",
          "type": "uint256"
        },
        {
          "indexed": false,
          "internalType": "uint256",
          "name": "_fee",
          "type": "uint256"
        },
        {
          "indexed": false,
          "internalType": "uint256",
          "name": "timestamp",
          "type": "uint256"
        }
      ],
      "name": "StrategyExecuted",
      "type": "event"
    },
    {
      "anonymous": false,
      "inputs": [
        {
          "indexed": true,
          "internalType": "address",
          "name": "_garden",
          "type": "address"
        },
        {
          "indexed": false,
          "internalType": "uint256",
          "name": "_timestamp",
          "type": "uint256"
        }
      ],
      "name": "StrategyExpired",
      "type": "event"
    },
    {
      "anonymous": false,
      "inputs": [
        {
          "indexed": true,
          "internalType": "address",
          "name": "_garden",
          "type": "address"
        },
        {
          "indexed": false,
          "internalType": "uint256",
          "name": "_capitalReturned",
          "type": "uint256"
        },
        {
          "indexed": false,
          "internalType": "uint256",
          "name": "_fee",
          "type": "uint256"
        },
        {
          "indexed": false,
          "internalType": "uint256",
          "name": "timestamp",
          "type": "uint256"
        }
      ],
      "name": "StrategyFinalized",
      "type": "event"
    },
    {
      "anonymous": false,
      "inputs": [
        {
          "indexed": true,
          "internalType": "address",
          "name": "_garden",
          "type": "address"
        },
        {
          "indexed": false,
          "internalType": "uint256",
          "name": "_amountReduced",
          "type": "uint256"
        },
        {
          "indexed": false,
          "internalType": "uint256",
          "name": "timestamp",
          "type": "uint256"
        }
      ],
      "name": "StrategyReduced",
      "type": "event"
    },
    {
      "anonymous": false,
      "inputs": [
        {
          "indexed": true,
          "internalType": "address",
          "name": "_garden",
          "type": "address"
        },
        {
          "indexed": false,
          "internalType": "uint256",
          "name": "totalPositiveVotes",
          "type": "uint256"
        },
        {
          "indexed": false,
          "internalType": "uint256",
          "name": "totalNegativeVotes",
          "type": "uint256"
        },
        {
          "indexed": false,
          "internalType": "uint256",
          "name": "_timestamp",
          "type": "uint256"
        }
      ],
      "name": "StrategyVoted",
      "type": "event"
    },
    {
      "inputs": [],
      "name": "active",
      "outputs": [
        {
          "internalType": "bool",
          "name": "",
          "type": "bool"
        }
      ],
      "stateMutability": "view",
      "type": "function"
    },
    {
      "inputs": [],
      "name": "capitalAllocated",
      "outputs": [
        {
          "internalType": "uint256",
          "name": "",
          "type": "uint256"
        }
      ],
      "stateMutability": "view",
      "type": "function"
    },
    {
      "inputs": [],
      "name": "capitalReturned",
      "outputs": [
        {
          "internalType": "uint256",
          "name": "",
          "type": "uint256"
        }
      ],
      "stateMutability": "view",
      "type": "function"
    },
    {
      "inputs": [
        {
          "internalType": "uint256",
          "name": "_newDuration",
          "type": "uint256"
        }
      ],
      "name": "changeStrategyDuration",
      "outputs": [],
      "stateMutability": "nonpayable",
      "type": "function"
    },
    {
      "inputs": [],
      "name": "controller",
      "outputs": [
        {
          "internalType": "contract IBabController",
          "name": "",
          "type": "address"
        }
      ],
      "stateMutability": "view",
      "type": "function"
    },
    {
      "inputs": [],
      "name": "dataSet",
      "outputs": [
        {
          "internalType": "bool",
          "name": "",
          "type": "bool"
        }
      ],
      "stateMutability": "view",
      "type": "function"
    },
    {
      "inputs": [],
      "name": "deleteCandidateStrategy",
      "outputs": [],
      "stateMutability": "nonpayable",
      "type": "function"
    },
    {
      "inputs": [],
      "name": "duration",
      "outputs": [
        {
          "internalType": "uint256",
          "name": "",
          "type": "uint256"
        }
      ],
      "stateMutability": "view",
      "type": "function"
    },
    {
      "inputs": [],
      "name": "enteredAt",
      "outputs": [
        {
          "internalType": "uint256",
          "name": "",
          "type": "uint256"
        }
      ],
      "stateMutability": "view",
      "type": "function"
    },
    {
      "inputs": [],
      "name": "enteredCooldownAt",
      "outputs": [
        {
          "internalType": "uint256",
          "name": "",
          "type": "uint256"
        }
      ],
      "stateMutability": "view",
      "type": "function"
    },
    {
      "inputs": [
        {
          "internalType": "uint256",
          "name": "_capital",
          "type": "uint256"
        },
        {
          "internalType": "uint256",
          "name": "_fee",
          "type": "uint256"
        }
      ],
      "name": "executeStrategy",
      "outputs": [],
      "stateMutability": "nonpayable",
      "type": "function"
    },
    {
      "inputs": [],
      "name": "executedAt",
      "outputs": [
        {
          "internalType": "uint256",
          "name": "",
          "type": "uint256"
        }
      ],
      "stateMutability": "view",
      "type": "function"
    },
    {
      "inputs": [],
      "name": "exitedAt",
      "outputs": [
        {
          "internalType": "uint256",
          "name": "",
          "type": "uint256"
        }
      ],
      "stateMutability": "view",
      "type": "function"
    },
    {
      "inputs": [],
      "name": "expectedReturn",
      "outputs": [
        {
          "internalType": "uint256",
          "name": "",
          "type": "uint256"
        }
      ],
      "stateMutability": "view",
      "type": "function"
    },
    {
      "inputs": [
        {
          "internalType": "uint256",
          "name": "_fee",
          "type": "uint256"
        }
      ],
      "name": "expireStrategy",
      "outputs": [],
      "stateMutability": "nonpayable",
      "type": "function"
    },
    {
      "inputs": [
        {
          "internalType": "uint256",
          "name": "_fee",
          "type": "uint256"
        },
        {
          "internalType": "string",
          "name": "_tokenURI",
          "type": "string"
        }
      ],
      "name": "finalizeStrategy",
      "outputs": [],
      "stateMutability": "nonpayable",
      "type": "function"
    },
    {
      "inputs": [],
      "name": "finalized",
      "outputs": [
        {
          "internalType": "bool",
          "name": "",
          "type": "bool"
        }
      ],
      "stateMutability": "view",
      "type": "function"
    },
    {
      "inputs": [],
      "name": "garden",
      "outputs": [
        {
          "internalType": "contract IGarden",
          "name": "",
          "type": "address"
        }
      ],
      "stateMutability": "view",
      "type": "function"
    },
    {
      "inputs": [],
      "name": "getNAV",
      "outputs": [
        {
          "internalType": "uint256",
          "name": "",
          "type": "uint256"
        }
      ],
      "stateMutability": "view",
      "type": "function"
    },
    {
      "inputs": [
        {
          "internalType": "uint8",
          "name": "_index",
          "type": "uint8"
        }
      ],
      "name": "getOperationByIndex",
      "outputs": [
        {
          "internalType": "uint8",
          "name": "",
          "type": "uint8"
        },
        {
          "internalType": "address",
          "name": "",
          "type": "address"
        },
        {
          "internalType": "address",
          "name": "",
          "type": "address"
        }
      ],
      "stateMutability": "view",
      "type": "function"
    },
    {
      "inputs": [],
      "name": "getOperationsCount",
      "outputs": [
        {
          "internalType": "uint256",
          "name": "",
          "type": "uint256"
        }
      ],
      "stateMutability": "view",
      "type": "function"
    },
    {
      "inputs": [],
      "name": "getStrategyDetails",
      "outputs": [
        {
          "internalType": "address",
          "name": "",
          "type": "address"
        },
        {
          "internalType": "address",
          "name": "",
          "type": "address"
        },
        {
          "internalType": "uint256",
          "name": "",
          "type": "uint256"
        },
        {
          "internalType": "uint256",
          "name": "",
          "type": "uint256"
        },
        {
          "internalType": "uint256",
          "name": "",
          "type": "uint256"
        },
        {
          "internalType": "uint256",
          "name": "",
          "type": "uint256"
        },
        {
          "internalType": "uint256",
          "name": "",
          "type": "uint256"
        },
        {
          "internalType": "uint256",
          "name": "",
          "type": "uint256"
        },
        {
          "internalType": "uint256",
          "name": "",
          "type": "uint256"
        },
        {
          "internalType": "uint256",
          "name": "",
          "type": "uint256"
        },
        {
          "internalType": "uint256",
          "name": "",
          "type": "uint256"
        },
        {
          "internalType": "address",
          "name": "",
          "type": "address"
        },
        {
          "internalType": "uint256",
          "name": "",
          "type": "uint256"
        }
      ],
      "stateMutability": "view",
      "type": "function"
    },
    {
      "inputs": [],
      "name": "getStrategyState",
      "outputs": [
        {
          "internalType": "address",
          "name": "",
          "type": "address"
        },
        {
          "internalType": "bool",
          "name": "",
          "type": "bool"
        },
        {
          "internalType": "bool",
          "name": "",
          "type": "bool"
        },
        {
          "internalType": "bool",
          "name": "",
          "type": "bool"
        },
        {
          "internalType": "uint256",
          "name": "",
          "type": "uint256"
        },
        {
          "internalType": "uint256",
          "name": "",
          "type": "uint256"
        },
        {
          "internalType": "uint256",
          "name": "",
          "type": "uint256"
        }
      ],
      "stateMutability": "view",
      "type": "function"
    },
    {
      "inputs": [
        {
          "internalType": "address",
          "name": "_address",
          "type": "address"
        }
      ],
      "name": "getUserVotes",
      "outputs": [
        {
          "internalType": "int256",
          "name": "",
          "type": "int256"
        }
      ],
      "stateMutability": "view",
      "type": "function"
    },
    {
      "inputs": [
        {
          "internalType": "bool",
          "name": "_isDeposit",
          "type": "bool"
        },
        {
          "internalType": "uint256",
          "name": "_wethAmount",
          "type": "uint256"
        }
      ],
      "name": "handleWeth",
      "outputs": [],
      "stateMutability": "nonpayable",
      "type": "function"
    },
    {
      "inputs": [],
      "name": "hasMiningStarted",
      "outputs": [
        {
          "internalType": "bool",
          "name": "",
          "type": "bool"
        }
      ],
      "stateMutability": "view",
      "type": "function"
    },
    {
      "inputs": [
        {
          "internalType": "address",
          "name": "_strategist",
          "type": "address"
        },
        {
          "internalType": "address",
          "name": "_garden",
          "type": "address"
        },
        {
          "internalType": "address",
          "name": "_controller",
          "type": "address"
        },
        {
          "internalType": "uint256",
          "name": "_maxCapitalRequested",
          "type": "uint256"
        },
        {
          "internalType": "uint256",
          "name": "_stake",
          "type": "uint256"
        },
        {
          "internalType": "uint256",
          "name": "_strategyDuration",
          "type": "uint256"
        },
        {
          "internalType": "uint256",
          "name": "_expectedReturn",
          "type": "uint256"
        }
      ],
      "name": "initialize",
      "outputs": [],
      "stateMutability": "nonpayable",
      "type": "function"
    },
    {
      "inputs": [
        {
          "internalType": "address",
          "name": "_spender",
          "type": "address"
        },
        {
          "internalType": "address",
          "name": "_asset",
          "type": "address"
        },
        {
          "internalType": "uint256",
          "name": "_quantity",
          "type": "uint256"
        }
      ],
      "name": "invokeApprove",
      "outputs": [],
      "stateMutability": "nonpayable",
      "type": "function"
    },
    {
      "inputs": [
        {
          "internalType": "address",
          "name": "_target",
          "type": "address"
        },
        {
          "internalType": "uint256",
          "name": "_value",
          "type": "uint256"
        },
        {
          "internalType": "bytes",
          "name": "_data",
          "type": "bytes"
        }
      ],
      "name": "invokeFromIntegration",
      "outputs": [
        {
          "internalType": "bytes",
          "name": "",
          "type": "bytes"
        }
      ],
      "stateMutability": "nonpayable",
      "type": "function"
    },
    {
      "inputs": [],
      "name": "isStrategyActive",
      "outputs": [
        {
          "internalType": "bool",
          "name": "",
          "type": "bool"
        }
      ],
      "stateMutability": "view",
      "type": "function"
    },
    {
      "inputs": [],
      "name": "maxCapitalRequested",
      "outputs": [
        {
          "internalType": "uint256",
          "name": "",
          "type": "uint256"
        }
      ],
      "stateMutability": "view",
      "type": "function"
    },
    {
      "inputs": [
        {
          "internalType": "uint256",
          "name": "",
          "type": "uint256"
        }
      ],
      "name": "opDatas",
      "outputs": [
        {
          "internalType": "address",
          "name": "",
          "type": "address"
        }
      ],
      "stateMutability": "view",
      "type": "function"
    },
    {
      "inputs": [
        {
          "internalType": "uint256",
          "name": "",
          "type": "uint256"
        }
      ],
      "name": "opIntegrations",
      "outputs": [
        {
          "internalType": "address",
          "name": "",
          "type": "address"
        }
      ],
      "stateMutability": "view",
      "type": "function"
    },
    {
      "inputs": [
        {
          "internalType": "uint256",
          "name": "",
          "type": "uint256"
        }
      ],
      "name": "opTypes",
      "outputs": [
        {
          "internalType": "uint8",
          "name": "",
          "type": "uint8"
        }
      ],
      "stateMutability": "view",
      "type": "function"
    },
    {
      "inputs": [
        {
          "internalType": "address[]",
          "name": "_voters",
          "type": "address[]"
        },
        {
          "internalType": "int256[]",
          "name": "_votes",
          "type": "int256[]"
        },
        {
          "internalType": "uint256",
          "name": "_fee",
          "type": "uint256"
        }
      ],
      "name": "resolveVoting",
      "outputs": [],
      "stateMutability": "nonpayable",
      "type": "function"
    },
    {
      "inputs": [
        {
          "internalType": "uint8[]",
          "name": "_opTypes",
          "type": "uint8[]"
        },
        {
          "internalType": "address[]",
          "name": "_opIntegrations",
          "type": "address[]"
        },
        {
          "internalType": "address[]",
          "name": "_opDatas",
          "type": "address[]"
        }
      ],
      "name": "setData",
      "outputs": [],
      "stateMutability": "nonpayable",
      "type": "function"
    },
    {
      "inputs": [],
      "name": "stake",
      "outputs": [
        {
          "internalType": "uint256",
          "name": "",
          "type": "uint256"
        }
      ],
      "stateMutability": "view",
      "type": "function"
    },
    {
      "inputs": [],
      "name": "strategist",
      "outputs": [
        {
          "internalType": "address",
          "name": "",
          "type": "address"
        }
      ],
      "stateMutability": "view",
      "type": "function"
    },
    {
      "inputs": [],
      "name": "strategyRewards",
      "outputs": [
        {
          "internalType": "uint256",
          "name": "",
          "type": "uint256"
        }
      ],
      "stateMutability": "view",
      "type": "function"
    },
    {
      "inputs": [
        {
          "internalType": "address",
          "name": "_token",
          "type": "address"
        }
      ],
      "name": "sweep",
      "outputs": [],
      "stateMutability": "nonpayable",
      "type": "function"
    },
    {
      "inputs": [],
      "name": "totalNegativeVotes",
      "outputs": [
        {
          "internalType": "uint256",
          "name": "",
          "type": "uint256"
        }
      ],
      "stateMutability": "view",
      "type": "function"
    },
    {
      "inputs": [],
      "name": "totalPositiveVotes",
      "outputs": [
        {
          "internalType": "uint256",
          "name": "",
          "type": "uint256"
        }
      ],
      "stateMutability": "view",
      "type": "function"
    },
    {
      "inputs": [],
      "name": "totalVotes",
      "outputs": [
        {
          "internalType": "int256",
          "name": "",
          "type": "int256"
        }
      ],
      "stateMutability": "view",
      "type": "function"
    },
    {
      "inputs": [
        {
          "internalType": "address",
          "name": "_sendToken",
          "type": "address"
        },
        {
          "internalType": "uint256",
          "name": "_sendQuantity",
          "type": "uint256"
        },
        {
          "internalType": "address",
          "name": "_receiveToken",
          "type": "address"
        }
      ],
      "name": "trade",
      "outputs": [
        {
          "internalType": "uint256",
          "name": "",
          "type": "uint256"
        }
      ],
      "stateMutability": "nonpayable",
      "type": "function"
    },
    {
      "inputs": [
        {
          "internalType": "uint256",
          "name": "_amountToUnwind",
          "type": "uint256"
        }
      ],
      "name": "unwindStrategy",
      "outputs": [],
      "stateMutability": "nonpayable",
      "type": "function"
    },
    {
      "inputs": [],
      "name": "updatedAt",
      "outputs": [
        {
          "internalType": "uint256",
          "name": "",
          "type": "uint256"
        }
      ],
      "stateMutability": "view",
      "type": "function"
    },
    {
      "inputs": [
        {
          "internalType": "uint256",
          "name": "",
          "type": "uint256"
        }
      ],
      "name": "voters",
      "outputs": [
        {
          "internalType": "address",
          "name": "",
          "type": "address"
        }
      ],
      "stateMutability": "view",
      "type": "function"
    },
    {
      "inputs": [
        {
          "internalType": "address",
          "name": "",
          "type": "address"
        }
      ],
      "name": "votes",
      "outputs": [
        {
          "internalType": "int256",
          "name": "",
          "type": "int256"
        }
      ],
      "stateMutability": "view",
      "type": "function"
    },
    {
      "stateMutability": "payable",
      "type": "receive"
    }
  ],
  "transactionHash": "0x5fd82a3f69cdf64a35deb5e8a7f803eb9f0acb86ab77a4f90fabc7d940396445",
  "args": [],
  "solcInputHash": "1e6d156fb71d6da7705240c4305a90fd",
  "bytecode": "0x608060405234801561001057600080fd5b50600160005561588b80620000266000396000f3fe6080604052600436106103175760003560e01c80637519ab501161019a578063bf1dcfe2116100e1578063da58c7d91161008a578063f101e82b11610064578063f101e82b14610cbd578063f77c479114610ced578063ffb5cd0914610d025761031e565b8063da58c7d914610c69578063dd1033f814610c93578063e4df5e1a14610ca85761031e565b8063d3406abd116100bb578063d3406abd14610c0c578063d40244cb14610c21578063d8bff5a514610c365761031e565b8063bf1dcfe214610a7f578063c2ea0bc414610ad6578063d0f9953e14610bf75761031e565b806394bba464116101435780639947cb951161011d5780639947cb9514610a2b578063a30ca20414610a55578063b3f05b9714610a6a5761031e565b806394bba464146109a0578063950c7822146109b557806397ccdc60146109e85761031e565b80638a439b7a116101745780638a439b7a146109215780639033a52b1461096157806393baae411461098b5761031e565b80637519ab50146108e2578063825deffe146108f757806385f1a0c11461090c5761031e565b80632b4656c81161025e57806356ba88b8116102075780636bc195dd116101e15780636bc195dd146107b15780636db40dc2146108b85780636db9cc99146108cd5761031e565b806356ba88b8146106cd578063577b6ab8146106e25780636b3b75ea146106f75761031e565b8063449b982611610238578063449b98261461063557806348a4beaa1461064a5780634b0fff0c146106a35761031e565b80632b4656c81461059b5780633a4b66f1146105f6578063422967241461060b5761031e565b80630e32db52116102c05780631a5cfcb71161029a5780631a5cfcb7146104695780631fe4a6861461049b578063290d2e91146104cc5761031e565b80630e32db52146103e75780630fb5a6b41461042a5780631115bdcf1461043f5761031e565b806303976e38116102f157806303976e38146103a857806303cddb2c146103bd5780630d15fd77146103d25761031e565b80630126c6061461032357806301681a621461034a57806302fb0c5e1461037f5761031e565b3661031e57005b600080fd5b34801561032f57600080fd5b50610338610d90565b60408051918252519081900360200190f35b34801561035657600080fd5b5061037d6004803603602081101561036d57600080fd5b50356001600160a01b0316610fa4565b005b34801561038b57600080fd5b5061039461116e565b604080519115158252519081900360200190f35b3480156103b457600080fd5b5061033861117c565b3480156103c957600080fd5b50610338611182565b3480156103de57600080fd5b50610338611188565b3480156103f357600080fd5b506103386004803603606081101561040a57600080fd5b506001600160a01b038135811691602081013591604090910135166111ae565b34801561043657600080fd5b506103386111d5565b34801561044b57600080fd5b5061037d6004803603602081101561046257600080fd5b50356111db565b34801561047557600080fd5b5061037d6004803603604081101561048c57600080fd5b50803515159060200135611341565b3480156104a757600080fd5b506104b061143a565b604080516001600160a01b039092168252519081900360200190f35b3480156104d857600080fd5b5061037d600480360360608110156104ef57600080fd5b81019060208101813564010000000081111561050a57600080fd5b82018360208201111561051c57600080fd5b8035906020019184602083028401116401000000008311171561053e57600080fd5b91939092909160208101903564010000000081111561055c57600080fd5b82018360208201111561056e57600080fd5b8035906020019184602083028401116401000000008311171561059057600080fd5b919350915035611449565b3480156105a757600080fd5b5061037d600480360360e08110156105be57600080fd5b506001600160a01b03813581169160208101358216916040820135169060608101359060808101359060a08101359060c00135611704565b34801561060257600080fd5b50610338611c04565b34801561061757600080fd5b5061037d6004803603602081101561062e57600080fd5b5035611c0a565b34801561064157600080fd5b50610338611f86565b34801561065657600080fd5b506106776004803603602081101561066d57600080fd5b503560ff16611f8c565b6040805160ff90941684526001600160a01b039283166020850152911682820152519081900360600190f35b3480156106af57600080fd5b5061037d600480360360208110156106c657600080fd5b503561201d565b3480156106d957600080fd5b506104b0612091565b3480156106ee57600080fd5b5061037d6120a0565b34801561070357600080fd5b5061037d6004803603604081101561071a57600080fd5b8135919081019060408101602082013564010000000081111561073c57600080fd5b82018360208201111561074e57600080fd5b8035906020019184600183028401116401000000008311171561077057600080fd5b91908080601f0160208091040260200160405190810160405280939291908181526020018383808284376000920191909152509295506120f4945050505050565b3480156107bd57600080fd5b50610843600480360360608110156107d457600080fd5b6001600160a01b038235169160208101359181019060608101604082013564010000000081111561080457600080fd5b82018360208201111561081657600080fd5b8035906020019184600183028401116401000000008311171561083857600080fd5b509092509050612438565b6040805160208082528351818301528351919283929083019185019080838360005b8381101561087d578181015183820152602001610865565b50505050905090810190601f1680156108aa5780820380516001836020036101000a031916815260200191505b509250505060405180910390f35b3480156108c457600080fd5b5061033861248c565b3480156108d957600080fd5b50610338612492565b3480156108ee57600080fd5b50610338612498565b34801561090357600080fd5b5061033861249e565b34801561091857600080fd5b506103946124a4565b34801561092d57600080fd5b5061094b6004803603602081101561094457600080fd5b50356124b4565b6040805160ff9092168252519081900360200190f35b34801561096d57600080fd5b506104b06004803603602081101561098457600080fd5b50356124e8565b34801561099757600080fd5b50610338612512565b3480156109ac57600080fd5b50610394612518565b3480156109c157600080fd5b50610338600480360360208110156109d857600080fd5b50356001600160a01b0316612527565b3480156109f457600080fd5b5061037d60048036036060811015610a0b57600080fd5b506001600160a01b03813581169160208101359091169060400135612542565b348015610a3757600080fd5b506104b060048036036020811015610a4e57600080fd5b5035612563565b348015610a6157600080fd5b50610338612573565b348015610a7657600080fd5b50610394612579565b348015610a8b57600080fd5b50610a94612582565b604080516001600160a01b0390981688529515156020880152931515868601529115156060860152608085015260a084015260c0830152519081900360e00190f35b348015610ae257600080fd5b5061037d60048036036060811015610af957600080fd5b810190602081018135640100000000811115610b1457600080fd5b820183602082011115610b2657600080fd5b80359060200191846020830284011164010000000083111715610b4857600080fd5b919390929091602081019035640100000000811115610b6657600080fd5b820183602082011115610b7857600080fd5b80359060200191846020830284011164010000000083111715610b9a57600080fd5b919390929091602081019035640100000000811115610bb857600080fd5b820183602082011115610bca57600080fd5b80359060200191846020830284011164010000000083111715610bec57600080fd5b5090925090506125ac565b348015610c0357600080fd5b506103386129e8565b348015610c1857600080fd5b506103386129ee565b348015610c2d57600080fd5b506103386129f4565b348015610c4257600080fd5b5061033860048036036020811015610c5957600080fd5b50356001600160a01b03166129fa565b348015610c7557600080fd5b506104b060048036036020811015610c8c57600080fd5b5035612a0c565b348015610c9f57600080fd5b50610338612a1c565b348015610cb457600080fd5b50610394612a22565b348015610cc957600080fd5b5061037d60048036036040811015610ce057600080fd5b5080359060200135612a38565b348015610cf957600080fd5b506104b0612aba565b348015610d0e57600080fd5b50610d17612acf565b604080516001600160a01b039e8f1681529c8e1660208e01528c81019b909b5260608c019990995260808b019790975260a08a019590955260c089019390935260e08801919091526101008701526101208601526101408501529093166101608301526101808201929092529051908190036101a00190f35b60008080805b600254811015610f7e57600154600280546000926201000090046001600160a01b03169163201041989185908110610dca57fe5b90600052602060002090602091828204019190069054906101000a900460ff1660ff166040518263ffffffff1660e01b81526004018082815260200191505060206040518083038186803b158015610e2157600080fd5b505afa158015610e35573d6000803e3d6000fd5b505050506040513d6020811015610e4b57600080fd5b50516004805491925060009182916001600160a01b03851691634222326a919087908110610e7557fe5b600091825260209091200154600554600380546001600160a01b03938416939092169189908110610ea257fe5b600091825260209091200154604080517fffffffff0000000000000000000000000000000000000000000000000000000060e087901b1681526001600160a01b039485166004820152928416602484015292166044820152815160648083019392829003018186803b158015610f1757600080fd5b505afa158015610f2b573d6000803e3d6000fd5b505050506040513d6040811015610f4157600080fd5b50805160209091015190925090508015610f6657610f5f8683612bcd565b9550610f73565b610f708583612bcd565b94505b505050600101610d96565b5081811115610f9257600092505050610fa1565b610f9c8282612c30565b925050505b90565b610fac612c8d565b610fb4612da0565b60055460408051631f0b96b960e31b8152905161103c926001600160a01b03169163f85cb5c8916004808301926020929190829003018186803b158015610ffa57600080fd5b505afa15801561100e573d6000803e3d6000fd5b505050506040513d602081101561102457600080fd5b50516001600160a01b03838116911614156036612eae565b600f5461105390610100900460ff16156034612eae565b6000816001600160a01b03166370a08231306040518263ffffffff1660e01b815260040180826001600160a01b0316815260200191505060206040518083038186803b1580156110a257600080fd5b505afa1580156110b6573d6000803e3d6000fd5b505050506040513d60208110156110cc57600080fd5b505190506110dd8115156008612eae565b6111618282600560009054906101000a90046001600160a01b03166001600160a01b031663f85cb5c86040518163ffffffff1660e01b815260040160206040518083038186803b15801561113057600080fd5b505afa158015611144573d6000803e3d6000fd5b505050506040513d602081101561115a57600080fd5b5051612ebc565b5061116a613140565b5050565b600f54610100900460ff1681565b60155481565b60135481565b60006111a9611198600e54613278565b6111a3600d54613278565b906132dc565b905090565b60006111b8613341565b6111c0612da0565b6111cb848484612ebc565b90505b9392505050565b60105481565b60026000541415611233576040805162461bcd60e51b815260206004820152601f60248201527f5265656e7472616e637947756172643a207265656e7472616e742063616c6c00604482015290519081900360640190fd5b6002600055611240613432565b611249816135da565b600f5461126090610100900460ff16156034612eae565b61128462093a8061127c60075442612c3090919063ffffffff16565b116037612eae565b60055460408051634d5b1ba160e11b81523360048201526024810184905290516001600160a01b0390921691639ab637429160448082019260009290919082900301818387803b1580156112d757600080fd5b505af11580156112eb573d6000803e3d6000fd5b505050506112f76137de565b6005546040805142815290516001600160a01b03909216917f7a7d4c833d273b66e431c5f268c42ee3e788541592e07c77f232cd28c89913169181900360200190a2506001600055565b611349613341565b611351612da0565b81156113c45773c02aaa39b223fe8d0a0e5c4f27ead9083c756cc26001600160a01b031663d0e30db0826040518263ffffffff1660e01b81526004016000604051808303818588803b1580156113a657600080fd5b505af11580156113ba573d6000803e3d6000fd5b505050505061116a565b73c02aaa39b223fe8d0a0e5c4f27ead9083c756cc26001600160a01b0316632e1a7d4d826040518263ffffffff1660e01b815260040180828152602001915050600060405180830381600087803b15801561141e57600080fd5b505af1158015611432573d6000803e3d6000fd5b505050505050565b6006546001600160a01b031681565b611451613432565b61145a816135da565b600554604080517f5a16656a00000000000000000000000000000000000000000000000000000000815290516114ef926001600160a01b031691635a16656a916004808301926020929190829003018186803b1580156114b957600080fd5b505afa1580156114cd573d6000803e3d6000fd5b505050506040513d60208110156114e357600080fd5b50518510156040612eae565b600f5461151590610100900460ff1615801561150e5750600f5460ff16155b602a612eae565b61153a62093a8061153160075442612c3090919063ffffffff16565b1115602b612eae565b600f805461ff0019166101001790556000600d819055600e8190555b848110156116265783838281811061156a57fe5b90506020020135601b600088888581811061158157fe5b905060200201356001600160a01b03166001600160a01b03166001600160a01b031681526020019081526020016000208190555060008484838181106115c357fe5b9050602002013513156115ff576115f76115ee8585848181106115e257fe5b9050602002013561387f565b600d5490612bcd565b600d5561161e565b61161a6116118585848181106115e257fe5b600e5490612bcd565b600e555b600101611556565b50611633600c86866155c9565b50426008819055600554600d54600e546040805192835260208301919091528181019390935291516001600160a01b03909116917f3e6879a258dfdc657938a76339643c34f8d9a80aa5673c95726c61bc57ee0573919081900360600190a260055460408051634d5b1ba160e11b81523360048201526024810184905290516001600160a01b0390921691639ab637429160448082019260009290919082900301818387803b1580156116e557600080fd5b505af11580156116f9573d6000803e3d6000fd5b505050505050505050565b600154610100900460ff168061171d575061171d613890565b8061172b575060015460ff16155b6117665760405162461bcd60e51b815260040180806020018281038252602e815260200180615732602e913960400191505060405180910390fd5b600154610100900460ff16158015611790576001805460ff1961ff00199091166101001716811790555b600180547fffffffffffffffffffff0000000000000000000000000000000000000000ffff16620100006001600160a01b0389811682029290921792839055604080516313bc6d4b60e01b81528b84166004820152905161184b9492909204909216916313bc6d4b916024808301926020929190829003018186803b15801561181857600080fd5b505afa15801561182c573d6000803e3d6000fd5b505050506040513d602081101561184257600080fd5b50516024612eae565b6005805473ffffffffffffffffffffffffffffffffffffffff19166001600160a01b038981169190911791829055604080517fc40868930000000000000000000000000000000000000000000000000000000081528b8316600482015281516000949093169263c408689392602480840193919291829003018186803b1580156118d457600080fd5b505afa1580156118e8573d6000803e3d6000fd5b505050506040513d60408110156118fe57600080fd5b5051600554604080516370a0823160e01b81526001600160a01b038d81166004830152915193945060009361198893869316916370a08231916024808301926020929190829003018186803b15801561195657600080fd5b505afa15801561196a573d6000803e3d6000fd5b505050506040513d602081101561198057600080fd5b505190612c30565b600554604080516370a0823160e01b81526001600160a01b038e811660048301529151939450611a149360009392909216916370a0823191602480820192602092909190829003018186803b1580156119e057600080fd5b505afa1580156119f4573d6000803e3d6000fd5b505050506040513d6020811015611a0a57600080fd5b5051116025612eae565b611a22868210156007612eae565b611a30600087116026612eae565b600554604080517f95cdbedb0000000000000000000000000000000000000000000000000000000081529051611b4a926001600160a01b0316916395cdbedb916004808301926020929190829003018186803b158015611a8f57600080fd5b505afa158015611aa3573d6000803e3d6000fd5b505050506040513d6020811015611ab957600080fd5b50518610801590611b435750600560009054906101000a90046001600160a01b03166001600160a01b031663297ce5986040518163ffffffff1660e01b815260040160206040518083038186803b158015611b1357600080fd5b505afa158015611b27573d6000803e3d6000fd5b505050506040513d6020811015611b3d57600080fd5b50518611155b6027612eae565b6006805473ffffffffffffffffffffffffffffffffffffffff19166001600160a01b038c16179055426007556011869055611b836138a1565b600f805491151563010000000263ff000000199092169190911790556010859055601484905560006013556012879055611bbc86613278565b6001600160a01b038b166000908152601b60205260409020555050600d849055600f805462ff0000191690558015611bfa576001805461ff00191690555b5050505050505050565b60115481565b60026000541415611c62576040805162461bcd60e51b815260206004820152601f60248201527f5265656e7472616e637947756172643a207265656e7472616e742063616c6c00604482015290519081900360640190fd5b6002600055611c6f6139c7565b611c77612da0565b600f54611c9c90610100900460ff168015611c955750600f5460ff16155b602c612eae565b611cb9611cb460135483613af790919063ffffffff16565b613b15565b601354611cc69082612c30565b601355600f546301000000900460ff1615611dc3576000600160029054906101000a90046001600160a01b03166001600160a01b0316633f2a55406040518163ffffffff1660e01b815260040160206040518083038186803b158015611d2b57600080fd5b505afa158015611d3f573d6000803e3d6000fd5b505050506040513d6020811015611d5557600080fd5b505160408051636b8bd28360e11b81526004810185905260006024820181905291519293506001600160a01b0384169263d717a5069260448084019391929182900301818387803b158015611da957600080fd5b505af1158015611dbd573d6000803e3d6000fd5b50505050505b60055460408051631f0b96b960e31b81529051611f2d926001600160a01b031691829163f85cb5c891600480820192602092909190829003018186803b158015611e0c57600080fd5b505afa158015611e20573d6000803e3d6000fd5b505050506040513d6020811015611e3657600080fd5b5051604080516370a0823160e01b815230600482015290516001600160a01b03909216916370a0823191602480820192602092909190829003018186803b158015611e8057600080fd5b505afa158015611e94573d6000803e3d6000fd5b505050506040513d6020811015611eaa57600080fd5b505160055460408051631f0b96b960e31b815290516001600160a01b039092169163f85cb5c891600480820192602092909190829003018186803b158015611ef157600080fd5b505afa158015611f05573d6000803e3d6000fd5b505050506040513d6020811015611f1b57600080fd5b50516001600160a01b03169190613d94565b42600a81905560055460408051848152602081019390935280516001600160a01b03909216927fcff91fcd7fff5d12ce9ee075980ad73fde31d99f583cb228a04ee0ef4f34ba6f929081900390910190a2506001600055565b600e5481565b600080600060028460ff1681548110611fa157fe5b90600052602060002090602091828204019190069054906101000a900460ff1660038560ff1681548110611fd157fe5b600091825260209091200154600480546001600160a01b039092169160ff8816908110611ffa57fe5b60009182526020909120015491945092506001600160a01b031690509193909250565b612025613e14565b61202d612da0565b600f5461203f9060ff16156032612eae565b61204e60105482106035612eae565b60105460408051838152602081019290925280517f42fb010605de46a36c4814784d207e3b8a1ce9f6773eaea652c07d2a07e95e579281900390910190a1601055565b6005546001600160a01b031681565b6120a8613eb9565b6120b06137de565b6005546040805142815290516001600160a01b03909216917f4dcd504f23c1c204f965486c526a1e35cfb215bb4823dd1be0a172277bb1b3459181900360200190a2565b6002600054141561214c576040805162461bcd60e51b815260206004820152601f60248201527f5265656e7472616e637947756172643a207265656e7472616e742063616c6c00604482015290519081900360640190fd5b6002600055612159613432565b612162826135da565b6121726000600954116030612eae565b61219561218c601054600954612bcd90919063ffffffff16565b42116031612eae565b600f546121a79060ff16156032612eae565b6121b8670de0b6b3a7640000613b15565b600f8054600160ff19909116811761ff00191690915542600b5554604080517fd6a45aa50000000000000000000000000000000000000000000000000000000081529051620100009092046001600160a01b03169163d6a45aa591600481810192602092909190829003018186803b15801561223357600080fd5b505afa158015612247573d6000803e3d6000fd5b505050506040513d602081101561225d57600080fd5b5051600654604080517f3b5bb1d50000000000000000000000000000000000000000000000000000000081526001600160a01b0392831660048201818152602483019384528651604484015286519490951694633b5bb1d594919387939192909160640190602085019080838360005b838110156122e55781810151838201526020016122cd565b50505050905090810190601f1680156123125780820380516001836020036101000a031916815260200191505b509350505050602060405180830381600087803b15801561233257600080fd5b505af1158015612346573d6000803e3d6000fd5b505050506040513d602081101561235c57600080fd5b505060055460408051634d5b1ba160e11b81523360048201526024810185905290516001600160a01b0390921691639ab637429160448082019260009290919082900301818387803b1580156123b157600080fd5b505af11580156123c5573d6000803e3d6000fd5b505050506123d1613ed2565b6123d9613140565b600b54600a5560055460155460408051918252602082018590524282820152516001600160a01b03909216917f2d21f7a1772dd51a6d96bd1cb40623cb13b73fd3d037618d9688707ce1b5b9569181900360600190a250506001600055565b60606124426146ab565b612483858585858080601f01602080910402602001604051908101604052809392919081815260200183838082843760009201919091525061485392505050565b95945050505050565b60195481565b60075481565b600a5481565b60095481565b600f546301000000900460ff1681565b600281815481106124c457600080fd5b9060005260206000209060209182820401919006915054906101000a900460ff1681565b600481815481106124f857600080fd5b6000918252602090912001546001600160a01b0316905081565b60125481565b600f5462010000900460ff1681565b6001600160a01b03166000908152601b602052604090205490565b61254a6146ab565b61255e6001600160a01b038316848361497d565b505050565b600381815481106124f857600080fd5b60085481565b600f5460ff1681565b600f54600954600b54600a54309460ff610100860481169562010000810482169591169390929091565b6125b4614ad7565b6125cc85841480156125c557508382145b604b612eae565b6125e46006821080156125c55750811515604b612eae565b60005b858110156129a7576001546201000090046001600160a01b0316632010419888888481811061261257fe5b9050602002013560ff166040518263ffffffff1660e01b8152600401808260ff16815260200191505060206040518083038186803b15801561265357600080fd5b505afa158015612667573d6000803e3d6000fd5b505050506040513d602081101561267d57600080fd5b50516001600160a01b031663c8cd307584848481811061269957fe5b6005546001600160a01b03602090920293909301358116921690508888868181106126c057fe5b905060200201356001600160a01b0316856040518563ffffffff1660e01b815260040180856001600160a01b03168152602001846001600160a01b03168152602001836001600160a01b0316815260200182815260200194505050505060006040518083038186803b15801561273557600080fd5b505afa158015612749573d6000803e3d6000fd5b505060015461299f92506201000090046001600160a01b0316905063f4330b4987878581811061277557fe5b905060200201356001600160a01b03166001600160a01b03166317d7de7c6040518163ffffffff1660e01b815260040160006040518083038186803b1580156127bd57600080fd5b505afa1580156127d1573d6000803e3d6000fd5b505050506040513d6000823e601f3d908101601f1916820160405260208110156127fa57600080fd5b810190808051604051939291908464010000000082111561281a57600080fd5b90830190602082018581111561282f57600080fd5b825164010000000081118282018810171561284957600080fd5b82525081516020918201929091019080838360005b8381101561287657818101518382015260200161285e565b50505050905090810190601f1680156128a35780820380516001836020036101000a031916815260200191505b506040525050508888868181106128b657fe5b905060200201356001600160a01b03166040518363ffffffff1660e01b81526004018080602001836001600160a01b03168152602001828103825284818151815260200191508051906020019080838360005b83811015612921578181015183820152602001612909565b50505050905090810190601f16801561294e5780820380516001836020036101000a031916815260200191505b50935050505060206040518083038186803b15801561296c57600080fd5b505afa158015612980573d6000803e3d6000fd5b505050506040513d602081101561299657600080fd5b50516021612eae565b6001016125e7565b506129b460028787615635565b506129c1600385856155c9565b506129ce600483836155c9565b5050600f805462ff00001916620100001790555050505050565b600b5481565b60145481565b600d5481565b601b6020526000908152604090205481565b600c81815481106124f857600080fd5b60025490565b6000806009541180156111a9575050600b541590565b60026000541415612a90576040805162461bcd60e51b815260206004820152601f60248201527f5265656e7472616e637947756172643a207265656e7472616e742063616c6c00604482015290519081900360640190fd5b6002600055612a9d613432565b612aa6816135da565b612ab1828233614b90565b50506001600055565b6001546201000090046001600160a01b031681565b600080600080600080600080600080600080600030600660009054906101000a90046001600160a01b0316600380549050601154600d54600e54601354601554601054601454601254600160029054906101000a90046001600160a01b03166001600160a01b031663d6a45aa56040518163ffffffff1660e01b815260040160206040518083038186803b158015612b6657600080fd5b505afa158015612b7a573d6000803e3d6000fd5b505050506040513d6020811015612b9057600080fd5b81019080805190602001909291905050506007549c509c509c509c509c509c509c509c509c509c509c509c509c50909192939495969798999a9b9c565b600082820183811015612c27576040805162461bcd60e51b815260206004820152601b60248201527f536166654d6174683a206164646974696f6e206f766572666c6f770000000000604482015290519081900360640190fd5b90505b92915050565b600082821115612c87576040805162461bcd60e51b815260206004820152601e60248201527f536166654d6174683a207375627472616374696f6e206f766572666c6f770000604482015290519081900360640190fd5b50900390565b600554604080516370a0823160e01b81523360048201529051612d9e926000926001600160a01b03909116916370a0823191602480820192602092909190829003018186803b158015612cdf57600080fd5b505afa158015612cf3573d6000803e3d6000fd5b505050506040513d6020811015612d0957600080fd5b5051118015612d975750600154600554604080516313bc6d4b60e01b81526001600160a01b039283166004820152905162010000909304909116916313bc6d4b91602480820192602092909190829003018186803b158015612d6a57600080fd5b505afa158015612d7e573d6000803e3d6000fd5b505050506040513d6020811015612d9457600080fd5b50515b600f612eae565b565b60015460408051635b14f18360e01b81523060048201529051612d9e926201000090046001600160a01b031691635b14f183916024808301926020929190829003018186803b158015612df257600080fd5b505afa158015612e06573d6000803e3d6000fd5b505050506040513d6020811015612e1c57600080fd5b50511580612eab5750600160029054906101000a90046001600160a01b03166001600160a01b0316638da5cb5b6040518163ffffffff1660e01b815260040160206040518083038186803b158015612e7357600080fd5b505afa158015612e87573d6000803e3d6000fd5b505050506040513d6020811015612e9d57600080fd5b50516001600160a01b031633145b60535b8161116a5761116a81614ed3565b600080600160029054906101000a90046001600160a01b03166001600160a01b0316636176605e6040518163ffffffff1660e01b815260040160206040518083038186803b158015612f0d57600080fd5b505afa158015612f21573d6000803e3d6000fd5b505050506040513d6020811015612f3757600080fd5b5051600154604080517f2630c12f0000000000000000000000000000000000000000000000000000000081529051929350600092620100009092046001600160a01b031691632630c12f91600480820192602092909190829003018186803b158015612fa257600080fd5b505afa158015612fb6573d6000803e3d6000fd5b505050506040513d6020811015612fcc57600080fd5b5051604080517fac41865a0000000000000000000000000000000000000000000000000000000081526001600160a01b038981166004830152878116602483015291519293506000929184169163ac41865a91604480820192602092909190829003018186803b15801561303f57600080fd5b505afa158015613053573d6000803e3d6000fd5b505050506040513d602081101561306957600080fd5b5051905060006130798783614f26565b905060006130986130918366b1a2bc2ec50000614f26565b8390612c30565b604080517ffa1ca8200000000000000000000000000000000000000000000000000000000081523060048201526001600160a01b038c81166024830152604482018c90528a811660648301526084820184905291519293509087169163fa1ca8209160a48082019260009290919082900301818387803b15801561311b57600080fd5b505af115801561312f573d6000803e3d6000fd5b50929b9a5050505050505050505050565b60055460408051631f0b96b960e31b815290516000926001600160a01b03169163f85cb5c8916004808301926020929190829003018186803b15801561318557600080fd5b505afa158015613199573d6000803e3d6000fd5b505050506040513d60208110156131af57600080fd5b5051604080516370a0823160e01b815230600482015290516001600160a01b03909216916370a0823191602480820192602092909190829003018186803b1580156131f957600080fd5b505afa15801561320d573d6000803e3d6000fd5b505050506040513d602081101561322357600080fd5b505160055460408051631f0b96b960e31b81529051929350613275926001600160a01b03909216918491839163f85cb5c891600480820192602092909190829003018186803b158015611ef157600080fd5b50565b60007f800000000000000000000000000000000000000000000000000000000000000082106132d85760405162461bcd60e51b81526004018080602001828103825260288152602001806157aa6028913960400191505060405180910390fd5b5090565b60008183038183128015906132f15750838113155b80613306575060008312801561330657508381135b612c275760405162461bcd60e51b81526004018080602001828103825260248152602001806157d26024913960400191505060405180910390fd5b6000805b60025460ff8216101561342657818061341c5750600160029054906101000a90046001600160a01b03166001600160a01b0316632010419860028360ff168154811061338d57fe5b90600052602060002090602091828204019190069054906101000a900460ff166040518263ffffffff1660e01b8152600401808260ff16815260200191505060206040518083038186803b1580156133e457600080fd5b505afa1580156133f8573d6000803e3d6000fd5b505050506040513d602081101561340e57600080fd5b50516001600160a01b031633145b9150600101613345565b5061327581604c612eae565b600554604080517f02fb0c5e0000000000000000000000000000000000000000000000000000000081529051613554926001600160a01b0316916302fb0c5e916004808301926020929190829003018186803b15801561349157600080fd5b505afa1580156134a5573d6000803e3d6000fd5b505050506040513d60208110156134bb57600080fd5b50511515600114801561354d5750600154600554604080516313bc6d4b60e01b81526001600160a01b039283166004820152905162010000909304909116916313bc6d4b91602480820192602092909190829003018186803b15801561352057600080fd5b505afa158015613534573d6000803e3d6000fd5b505050506040513d602081101561354a57600080fd5b50515b6023612eae565b60015460408051635b14f18360e01b81523060048201529051612d9e926201000090046001600160a01b031691635b14f183916024808301926020929190829003018186803b1580156135a657600080fd5b505afa1580156135ba573d6000803e3d6000fd5b505050506040513d60208110156135d057600080fd5b5051156053612eae565b600154604080517f411137c30000000000000000000000000000000000000000000000000000000081523360048201529051613678926201000090046001600160a01b03169163411137c3916024808301926020929190829003018186803b15801561364557600080fd5b505afa158015613659573d6000803e3d6000fd5b505050506040513d602081101561366f57600080fd5b50516012612eae565b60055460408051631f0b96b960e31b815290516000926001600160a01b03169163f85cb5c8916004808301926020929190829003018186803b1580156136bd57600080fd5b505afa1580156136d1573d6000803e3d6000fd5b505050506040513d60208110156136e757600080fd5b505190506001600160a01b03811673c02aaa39b223fe8d0a0e5c4f27ead9083c756cc2141561372b57613726670de0b6b3a76400008311156013612eae565b61116a565b6001600160a01b038116736b175474e89094c44da98b954eedeac495271d0f141561376757613726686c6b935b8bbd4000008311156013612eae565b6001600160a01b03811673a0b86991c6218b36c1d19d4a2e9eb0ce3606eb48141561379e5761372663773594008311156013612eae565b6001600160a01b038116732260fac5e5542a773aa44fbcfedf7c193bc2c59914156137d457613726624c4b408311156013612eae565b61116a6055614ed3565b6137ee6009546000146038612eae565b600f546138009060ff16156032612eae565b600554604080517fb2644e6600000000000000000000000000000000000000000000000000000000815230600482015290516001600160a01b039092169163b2644e669160248082019260009290919082900301818387803b15801561386557600080fd5b505af1158015613879573d6000803e3d6000fd5b50505050565b6000808212156132d8575060000390565b600061389b30614f3e565b15905090565b600080600160029054906101000a90046001600160a01b03166001600160a01b0316633f2a55406040518163ffffffff1660e01b815260040160206040518083038186803b1580156138f257600080fd5b505afa158015613906573d6000803e3d6000fd5b505050506040513d602081101561391c57600080fd5b5051604080517fddaa26ad00000000000000000000000000000000000000000000000000000000815290519192506000916001600160a01b0384169163ddaa26ad916004808301926020929190829003018186803b15801561397d57600080fd5b505afa158015613991573d6000803e3d6000fd5b505050506040513d60208110156139a757600080fd5b5051600754909150600090821080156139bf57508115155b935050505090565b600554612d9e906001600160a01b031633148015613a645750600154600554604080516313bc6d4b60e01b81526001600160a01b039283166004820152905162010000909304909116916313bc6d4b91602480820192602092909190829003018186803b158015613a3757600080fd5b505afa158015613a4b573d6000803e3d6000fd5b505050506040513d6020811015613a6157600080fd5b50515b80613af05750600160029054906101000a90046001600160a01b03166001600160a01b0316638da5cb5b6040518163ffffffff1660e01b815260040160206040518083038186803b158015613ab857600080fd5b505afa158015613acc573d6000803e3d6000fd5b505050506040513d6020811015613ae257600080fd5b50516001600160a01b031633145b601f612eae565b6000612c2782613b0f85670de0b6b3a7640000614f44565b90614f9d565b60055460408051631f0b96b960e31b815290516000926001600160a01b03169163f85cb5c8916004808301926020929190829003018186803b158015613b5a57600080fd5b505afa158015613b6e573d6000803e3d6000fd5b505050506040513d6020811015613b8457600080fd5b505160025490915060009081905b8015613d8d57600154600280546000926201000090046001600160a01b0316916320104198916000198601908110613bc657fe5b90600052602060002090602091828204019190069054906101000a900460ff166040518263ffffffff1660e01b8152600401808260ff16815260200191505060206040518083038186803b158015613c1d57600080fd5b505afa158015613c31573d6000803e3d6000fd5b505050506040513d6020811015613c4757600080fd5b5051600480549192506001600160a01b03831691630c22cfd2918891889188918c91906000198a01908110613c7857fe5b600091825260209091200154600554600380546001600160a01b0393841693909216916000198c01908110613ca957fe5b6000918252602082200154604080517fffffffff0000000000000000000000000000000000000000000000000000000060e08c901b1681526001600160a01b03998a166004820152602481019890985260ff909616604488015260648701949094529186166084860152851660a4850152931660c48301525160e48083019360609383900390910190829087803b158015613d4357600080fd5b505af1158015613d57573d6000803e3d6000fd5b505050506040513d6060811015613d6d57600080fd5b508051602082015160409092015190965090945092505060001901613b92565b5050505050565b604080516001600160a01b038416602482015260448082018490528251808303909101815260649091019091526020810180517bffffffffffffffffffffffffffffffffffffffffffffffffffffffff167fa9059cbb0000000000000000000000000000000000000000000000000000000017905261255e908490615004565b600654612d9e906001600160a01b0316331480613eb25750600160029054906101000a90046001600160a01b03166001600160a01b0316638da5cb5b6040518163ffffffff1660e01b815260040160206040518083038186803b158015613e7a57600080fd5b505afa158015613e8e573d6000803e3d6000fd5b505050506040513d6020811015613ea457600080fd5b50516001600160a01b031633145b6020612eae565b600654612d9e906001600160a01b031633146020612eae565b600560009054906101000a90046001600160a01b03166001600160a01b031663f85cb5c86040518163ffffffff1660e01b815260040160206040518083038186803b158015613f2057600080fd5b505afa158015613f34573d6000803e3d6000fd5b505050506040513d6020811015613f4a57600080fd5b5051604080516370a0823160e01b815230600482015290516001600160a01b03909216916370a0823191602480820192602092909190829003018186803b158015613f9457600080fd5b505afa158015613fa8573d6000803e3d6000fd5b505050506040513d6020811015613fbe57600080fd5b505160155560055460408051631f0b96b960e31b815290516000926001600160a01b03169163f85cb5c8916004808301926020929190829003018186803b15801561400857600080fd5b505afa15801561401c573d6000803e3d6000fd5b505050506040513d602081101561403257600080fd5b50516013549091506000906140559061404a90613278565b6111a3601554613278565b90506000806013546015541161406c57600061407b565b60135460155461407b91612c30565b9050601354601554106141b15761410c81600160029054906101000a90046001600160a01b03166001600160a01b031663568c08136040518163ffffffff1660e01b815260040160206040518083038186803b1580156140da57600080fd5b505afa1580156140ee573d6000803e3d6000fd5b505050506040513d602081101561410457600080fd5b505190614f26565b915061419c600160029054906101000a90046001600160a01b03166001600160a01b03166361d027b36040518163ffffffff1660e01b815260040160206040518083038186803b15801561415f57600080fd5b505afa158015614173573d6000803e3d6000fd5b505050506040513d602081101561418957600080fd5b50516001600160a01b0386169084613d94565b6141aa8360008490036150b5565b925061439a565b60006141f46718493fba64ef00006141ee6141e56011546141df601354601554613af790919063ffffffff16565b90614f26565b60115490612c30565b9061511a565b600554600654604080516370a0823160e01b81526001600160a01b0392831660048201529051939450849391909216916370a08231916024808301926020929190829003018186803b15801561424957600080fd5b505afa15801561425d573d6000803e3d6000fd5b505050506040513d602081101561427357600080fd5b505110156142fa57600554600654604080516370a0823160e01b81526001600160a01b039283166004820152905191909216916370a08231916024808301926020929190829003018186803b1580156142cb57600080fd5b505afa1580156142df573d6000803e3d6000fd5b505050506040513d60208110156142f557600080fd5b505190505b600554600654604080517f2befcc5c0000000000000000000000000000000000000000000000000000000081526001600160a01b0392831660048201526024810185905290519190921691632befcc5c91604480830192600092919082900301818387803b15801561436b57600080fd5b505af115801561437f573d6000803e3d6000fd5b5050505061439681856150b590919063ffffffff16565b9350505b6005546015546143c9916001600160a01b0316906143b89085612c30565b6001600160a01b0387169190613d94565b6000600160029054906101000a90046001600160a01b03166001600160a01b0316632e0519cf6040518163ffffffff1660e01b815260040160606040518083038186803b15801561441957600080fd5b505afa15801561442d573d6000803e3d6000fd5b505050506040513d606081101561444357600080fd5b50604001516005549091506001600160a01b031663250caaa861447c6144698585614f26565b6015546144769087612c30565b90612bcd565b61449a8661449461448d8888614f26565b8890612c30565b90612c30565b87306040518563ffffffff1660e01b815260040180858152602001848152602001838152602001826001600160a01b03168152602001945050505050600060405180830381600087803b1580156144f057600080fd5b505af1158015614504573d6000803e3d6000fd5b5050600f546301000000900460ff16159150613d8d9050576000600160029054906101000a90046001600160a01b03166001600160a01b0316633f2a55406040518163ffffffff1660e01b815260040160206040518083038186803b15801561456c57600080fd5b505afa158015614580573d6000803e3d6000fd5b505050506040513d602081101561459657600080fd5b505160135460408051636b8bd28360e11b8152600481019290925260006024830181905290519293506001600160a01b0384169263d717a50692604480820193929182900301818387803b1580156145ed57600080fd5b505af1158015614601573d6000803e3d6000fd5b5050604080517f9de9a05200000000000000000000000000000000000000000000000000000000815230600482015290516001600160a01b0385169350639de9a052925060248083019260209291908290030181600087803b15801561466657600080fd5b505af115801561467a573d6000803e3d6000fd5b505050506040513d602081101561469057600080fd5b50516bffffffffffffffffffffffff16601955505050505050565b612d9e600160029054906101000a90046001600160a01b03166001600160a01b031663f4330b49336001600160a01b03166317d7de7c6040518163ffffffff1660e01b815260040160006040518083038186803b15801561470b57600080fd5b505afa15801561471f573d6000803e3d6000fd5b505050506040513d6000823e601f3d908101601f19168201604052602081101561474857600080fd5b810190808051604051939291908464010000000082111561476857600080fd5b90830190602082018581111561477d57600080fd5b825164010000000081118282018810171561479757600080fd5b82525081516020918201929091019080838360005b838110156147c45781810151838201526020016147ac565b50505050905090810190601f1680156147f15780820380516001836020036101000a031916815260200191505b50604052505050336040518363ffffffff1660e01b81526004018080602001836001600160a01b031681526020018281038252848181518152602001915080519060200190808383600083811015612921578181015183820152602001612909565b60606148696001600160a01b0385168385615136565b905082846001600160a01b03167f2a936dbabeaea30adc1ddad138b1958497988474bef8b09a29411f0105ab8ab28484604051808060200180602001838103835285818151815260200191508051906020019080838360005b838110156148da5781810151838201526020016148c2565b50505050905090810190601f1680156149075780820380516001836020036101000a031916815260200191505b50838103825284518152845160209182019186019080838360005b8381101561493a578181015183820152602001614922565b50505050905090810190601f1680156149675780820380516001836020036101000a031916815260200191505b5094505050505060405180910390a39392505050565b801580614a1c5750604080517fdd62ed3e0000000000000000000000000000000000000000000000000000000081523060048201526001600160a01b03848116602483015291519185169163dd62ed3e91604480820192602092909190829003018186803b1580156149ee57600080fd5b505afa158015614a02573d6000803e3d6000fd5b505050506040513d6020811015614a1857600080fd5b5051155b614a575760405162461bcd60e51b81526004018080602001828103825260368152602001806158206036913960400191505060405180910390fd5b604080516001600160a01b038416602482015260448082018490528251808303909101815260649091019091526020810180517bffffffffffffffffffffffffffffffffffffffffffffffffffffffff167f095ea7b30000000000000000000000000000000000000000000000000000000017905261255e908490615004565b600554612d9e906001600160a01b031633148015614afe5750600f5462010000900460ff16155b8015614b895750600154600554604080516313bc6d4b60e01b81526001600160a01b039283166004820152905162010000909304909116916313bc6d4b91602480820192602092909190829003018186803b158015614b5c57600080fd5b505afa158015614b70573d6000803e3d6000fd5b505050506040513d6020811015614b8657600080fd5b50515b6022612eae565b600f54614ba690610100900460ff16602c612eae565b614bca601254614bc185601354612bcd90919063ffffffff16565b1115602d612eae565b600554604080517f3deddb3f0000000000000000000000000000000000000000000000000000000081529051614c6c926001600160a01b031691633deddb3f916004808301926020929190829003018186803b158015614c2957600080fd5b505afa158015614c3d573d6000803e3d6000fd5b505050506040513d6020811015614c5357600080fd5b5051600854614c63904290612c30565b1015602f612eae565b600554604080517f4422b0dc0000000000000000000000000000000000000000000000000000000081526004810186905290516001600160a01b0390921691634422b0dc9160248082019260009290919082900301818387803b158015614cd257600080fd5b505af1158015614ce6573d6000803e3d6000fd5b5050601354614cf89250905084612bcd565b601355614d048361515c565b600954614d1057426009555b600f546301000000900460ff1615614e0b576000600160029054906101000a90046001600160a01b03166001600160a01b0316633f2a55406040518163ffffffff1660e01b815260040160206040518083038186803b158015614d7257600080fd5b505afa158015614d86573d6000803e3d6000fd5b505050506040513d6020811015614d9c57600080fd5b505160408051636b8bd28360e11b8152600481018790526001602482015290519192506001600160a01b0383169163d717a5069160448082019260009290919082900301818387803b158015614df157600080fd5b505af1158015614e05573d6000803e3d6000fd5b50505050505b60055460408051634d5b1ba160e11b81526001600160a01b0384811660048301526024820186905291519190921691639ab6374291604480830192600092919082900301818387803b158015614e6057600080fd5b505af1158015614e74573d6000803e3d6000fd5b505042600a819055600554604080518881526020810188905280820193909352516001600160a01b0390911693507f7f4467a4ca8be02143a9253e6c31362c7bc755929e5c68faf659636d307f1b8c92509081900360600190a2505050565b62461bcd60e51b6000908152602060045260076024526642414223000030600a808404818106603090810160081b95839006959095019082900491820690940160101b939093010160c81b604452606490fd5b6000612c27670de0b6b3a7640000613b0f8585614f44565b3b151590565b600082614f5357506000612c2a565b82820282848281614f6057fe5b0414612c275760405162461bcd60e51b81526004018080602001828103825260218152602001806157896021913960400191505060405180910390fd5b6000808211614ff3576040805162461bcd60e51b815260206004820152601a60248201527f536166654d6174683a206469766973696f6e206279207a65726f000000000000604482015290519081900360640190fd5b818381614ffc57fe5b049392505050565b6000615059826040518060400160405280602081526020017f5361666545524332303a206c6f772d6c6576656c2063616c6c206661696c6564815250856001600160a01b03166153bf9092919063ffffffff16565b80519091501561255e5780806020019051602081101561507857600080fd5b505161255e5760405162461bcd60e51b815260040180806020018281038252602a8152602001806157f6602a913960400191505060405180910390fd5b60008282018183128015906150ca5750838112155b806150df57506000831280156150df57508381125b612c275760405162461bcd60e51b81526004018080602001828103825260218152602001806156eb6021913960400191505060405180910390fd5b6000670de0b6b3a764000061512f8484614f44565b81614ffc57fe5b60606111cb848484604051806060016040528060298152602001615760602991396153ca565b60055460408051631f0b96b960e31b8152905183926000926001600160a01b039091169163f85cb5c891600480820192602092909190829003018186803b1580156151a657600080fd5b505afa1580156151ba573d6000803e3d6000fd5b505050506040513d60208110156151d057600080fd5b505190506000805b600254811015613d8d57600154600280546000926201000090046001600160a01b0316916320104198918590811061520c57fe5b90600052602060002090602091828204019190069054906101000a900460ff166040518263ffffffff1660e01b8152600401808260ff16815260200191505060206040518083038186803b15801561526357600080fd5b505afa158015615277573d6000803e3d6000fd5b505050506040513d602081101561528d57600080fd5b5051600480549192506001600160a01b038316916355d9750b91879189918891889081106152b757fe5b600091825260209091200154600554600380546001600160a01b0393841693909216918a9081106152e457fe5b6000918252602082200154604080517fffffffff0000000000000000000000000000000000000000000000000000000060e08b901b1681526001600160a01b039889166004820152602481019790975260ff909516604487015292861660648601529085166084850152931660a48301525160c48083019360609383900390910190829087803b15801561537757600080fd5b505af115801561538b573d6000803e3d6000fd5b505050506040513d60608110156153a157600080fd5b508051602082015160409092015191965094509250506001016151d8565b60606111cb84846000855b60608247101561540b5760405162461bcd60e51b815260040180806020018281038252602681526020018061570c6026913960400191505060405180910390fd5b61541485614f3e565b615465576040805162461bcd60e51b815260206004820152601d60248201527f416464726573733a2063616c6c20746f206e6f6e2d636f6e7472616374000000604482015290519081900360640190fd5b600080866001600160a01b031685876040518082805190602001908083835b602083106154a35780518252601f199092019160209182019101615484565b6001836020036101000a03801982511681845116808217855250505050505090500191505060006040518083038185875af1925050503d8060008114615505576040519150601f19603f3d011682016040523d82523d6000602084013e61550a565b606091505b509150915061551a828286615525565b979650505050505050565b606083156155345750816111ce565b8251156155445782518084602001fd5b8160405162461bcd60e51b81526004018080602001828103825283818151815260200191508051906020019080838360005b8381101561558e578181015183820152602001615576565b50505050905090810190601f1680156155bb5780820380516001836020036101000a031916815260200191505b509250505060405180910390fd5b828054828255906000526020600020908101928215615629579160200282015b8281111561562957815473ffffffffffffffffffffffffffffffffffffffff19166001600160a01b038435161782556020909201916001909101906155e9565b506132d89291506156d5565b82805482825590600052602060002090601f016020900481019282156156295791602002820160005b8382111561569f57833560ff1683826101000a81548160ff021916908360ff160217905550926020019260010160208160000104928301926001030261565e565b80156156cc5782816101000a81549060ff021916905560010160208160000104928301926001030261569f565b50506132d89291505b5b808211156132d857600081556001016156d656fe5369676e6564536166654d6174683a206164646974696f6e206f766572666c6f77416464726573733a20696e73756666696369656e742062616c616e636520666f722063616c6c496e697469616c697a61626c653a20636f6e747261637420697320616c726561647920696e697469616c697a6564416464726573733a206c6f772d6c6576656c2063616c6c20776974682076616c7565206661696c6564536166654d6174683a206d756c7469706c69636174696f6e206f766572666c6f7753616665436173743a2076616c756520646f65736e27742066697420696e20616e20696e743235365369676e6564536166654d6174683a207375627472616374696f6e206f766572666c6f775361666545524332303a204552433230206f7065726174696f6e20646964206e6f7420737563636565645361666545524332303a20617070726f76652066726f6d206e6f6e2d7a65726f20746f206e6f6e2d7a65726f20616c6c6f77616e6365a2646970667358221220fd8f0daf6a34631c773147150fa2b859fd5772570d49ba31f44946d11d59f48064736f6c63430007060033",
  "devdoc": {
    "author": "Babylon Finance Base Strategy contract. Belongs to a garden. Abstract. Will be extended from specific strategy contracts.",
    "kind": "dev",
    "methods": {
      "changeStrategyDuration(uint256)": {
        "params": {
          "_newDuration": "New duration of the strategy"
        }
      },
      "executeStrategy(uint256,uint256)": {
        "params": {
          "_capital": "The capital to allocate to this strategy.",
          "_fee": "The fee paid to keeper to compensate the gas cost."
        }
      },
      "expireStrategy(uint256)": {
        "params": {
          "_fee": "The keeper fee"
        }
      },
      "finalizeStrategy(uint256,string)": {
        "params": {
          "_fee": "The fee paid to keeper to compensate the gas cost",
          "_tokenURI": "URL with the JSON for the strategy"
        }
      },
      "getNAV()": {
        "returns": {
          "_0": "_nav           NAV of the strategy"
        }
      },
      "getUserVotes(address)": {
        "params": {
          "_address": "Address of the contributor"
        },
        "returns": {
          "_0": "_votes            Number of votes cast"
        }
      },
      "handleWeth(bool,uint256)": {
        "params": {
          "_isDeposit": "Wether is a deposit or withdraw",
          "_wethAmount": "Amount to deposit or withdraw"
        }
      },
      "initialize(address,address,address,uint256,uint256,uint256,uint256)": {
        "params": {
          "_controller": "Address of the controller",
          "_expectedReturn": "Expected return",
          "_garden": "Address of the garden",
          "_maxCapitalRequested": "Max Capital requested denominated in the reserve asset (0 to be unlimited)",
          "_stake": "Stake with garden participations absolute amounts 1e18",
          "_strategist": "Address of the strategist",
          "_strategyDuration": "Strategy duration in seconds"
        }
      },
      "invokeFromIntegration(address,uint256,bytes)": {
        "params": {
          "_data": "Encoded function selector and arguments",
          "_target": "Address of the smart contract to call",
          "_value": "Quantity of Ether to provide the call (typically 0)"
        },
        "returns": {
          "_0": "_returnValue           Bytes encoded return value"
        }
      },
      "resolveVoting(address[],int256[],uint256)": {
        "params": {
          "_fee": "The fee paid to keeper to compensate the gas cost",
          "_voters": "An array of garden member who voted on strategy.",
          "_votes": "An array of votes by on strategy by garden members."
        }
      },
      "setData(uint8[],address[],address[])": {
        "params": {
          "_opDatas": "Bytes with the params for the op in the same position in the opTypes array",
          "_opIntegrations": "Addresses with the integration for each op",
          "_opTypes": "An array with the op types"
        }
      },
      "sweep(address)": {
        "params": {
          "_token": "Address of the token to sweep"
        }
      },
      "totalVotes()": {
        "returns": {
          "_0": "_totalVotes            Total amount of votes for the strategy"
        }
      },
      "trade(address,uint256,address)": {
        "params": {
          "_receiveToken": "Token to receive",
          "_sendQuantity": "Amount of tokens to send",
          "_sendToken": "Token to exchange"
        }
      },
      "unwindStrategy(uint256)": {
        "params": {
          "_amountToUnwind": "The amount of capital to unwind"
        }
      }
    },
    "title": "Strategy",
    "version": 1
  },
  "userdoc": {
    "kind": "user",
    "methods": {
      "changeStrategyDuration(uint256)": {
        "notice": "Lets the strategist change the duration of the strategy"
      },
      "deleteCandidateStrategy()": {
        "notice": "Delete a candidate strategy by the strategist"
      },
      "executeStrategy(uint256,uint256)": {
        "notice": "Executes an strategy that has been activated and gone through the cooldown period."
      },
      "expireStrategy(uint256)": {
        "notice": "Expires a candidate that has spent more than CANDIDATE_PERIOD without reaching quorum"
      },
      "finalizeStrategy(uint256,string)": {
        "notice": "Exits from an executed strategy. Returns balance back to the garden and sets the capital aside for withdrawals in ETH. Pays the keeper. Updates the reserve asset position accordingly."
      },
      "getNAV()": {
        "notice": "Gets the NAV of assets under management. It is the sum of the NAV of all the operations"
      },
      "getOperationByIndex(uint8)": {
        "notice": "Get the operation params by index"
      },
      "getOperationsCount()": {
        "notice": "Returns the number of operations in this strategy"
      },
      "getStrategyDetails()": {
        "notice": "Get the non-state related details of a Strategy"
      },
      "getStrategyState()": {
        "notice": "Get the state of a Strategy"
      },
      "getUserVotes(address)": {
        "notice": "Gets the votes casted by the contributor in this strategy"
      },
      "handleWeth(bool,uint256)": {
        "notice": "Deposits or withdraws weth from an operation in this context"
      },
      "initialize(address,address,address,uint256,uint256,uint256,uint256)": {
        "notice": "Initializes the strategy for a garden"
      },
      "invokeApprove(address,address,uint256)": {
        "notice": "Helper to invoke Approve on ERC20 from integrations in the strategy context"
      },
      "invokeFromIntegration(address,uint256,bytes)": {
        "notice": "Helper to invoke a call to an external contract from integrations in the strategy context"
      },
      "isStrategyActive()": {
        "notice": "Returns whether this strategy is currently active or not"
      },
      "resolveVoting(address[],int256[],uint256)": {
        "notice": "Adds off-chain voting results on-chain."
      },
      "setData(uint8[],address[],address[])": {
        "notice": "Sets the data for the operations of this strategy"
      },
      "sweep(address)": {
        "notice": "Any tokens (other than the target) that are sent here by mistake are recoverable by contributors Converts it to the reserve asset and sends it to the garden."
      },
      "totalVotes()": {
        "notice": "Gets the total votes casted for the strategy"
      },
      "trade(address,uint256,address)": {
        "notice": "Function that calculates the price using the oracle and executes a trade. Must call the exchange to get the price and pass minReceiveQuantity accordingly."
      },
      "unwindStrategy(uint256)": {
        "notice": "Partially unwinds an strategy. Triggered from an immediate withdraw in the Garden."
      }
    },
    "version": 1
  },
  "storageLayout": {
    "storage": [
      {
        "astId": 5859,
        "contract": "contracts/strategies/Strategy.sol:StrategyV3",
        "label": "_status",
        "offset": 0,
        "slot": "0",
        "type": "t_uint256"
      },
      {
        "astId": 492,
        "contract": "contracts/strategies/Strategy.sol:StrategyV3",
        "label": "_initialized",
        "offset": 0,
        "slot": "1",
        "type": "t_bool"
      },
      {
        "astId": 495,
        "contract": "contracts/strategies/Strategy.sol:StrategyV3",
        "label": "_initializing",
        "offset": 1,
        "slot": "1",
        "type": "t_bool"
      },
      {
        "astId": 33286,
        "contract": "contracts/strategies/Strategy.sol:StrategyV3",
        "label": "controller",
        "offset": 2,
        "slot": "1",
        "type": "t_contract(IBabController)25545"
      },
      {
        "astId": 33290,
        "contract": "contracts/strategies/Strategy.sol:StrategyV3",
        "label": "opTypes",
        "offset": 0,
        "slot": "2",
        "type": "t_array(t_uint8)dyn_storage"
      },
      {
        "astId": 33294,
        "contract": "contracts/strategies/Strategy.sol:StrategyV3",
        "label": "opIntegrations",
        "offset": 0,
        "slot": "3",
        "type": "t_array(t_address)dyn_storage"
      },
      {
        "astId": 33298,
        "contract": "contracts/strategies/Strategy.sol:StrategyV3",
        "label": "opDatas",
        "offset": 0,
        "slot": "4",
        "type": "t_array(t_address)dyn_storage"
      },
      {
        "astId": 33301,
        "contract": "contracts/strategies/Strategy.sol:StrategyV3",
        "label": "garden",
        "offset": 0,
        "slot": "5",
        "type": "t_contract(IGarden)25882"
      },
      {
        "astId": 33304,
        "contract": "contracts/strategies/Strategy.sol:StrategyV3",
        "label": "strategist",
        "offset": 0,
        "slot": "6",
        "type": "t_address"
      },
      {
        "astId": 33307,
        "contract": "contracts/strategies/Strategy.sol:StrategyV3",
        "label": "enteredAt",
        "offset": 0,
        "slot": "7",
        "type": "t_uint256"
      },
      {
        "astId": 33310,
        "contract": "contracts/strategies/Strategy.sol:StrategyV3",
        "label": "enteredCooldownAt",
        "offset": 0,
        "slot": "8",
        "type": "t_uint256"
      },
      {
        "astId": 33313,
        "contract": "contracts/strategies/Strategy.sol:StrategyV3",
        "label": "executedAt",
        "offset": 0,
        "slot": "9",
        "type": "t_uint256"
      },
      {
        "astId": 33316,
        "contract": "contracts/strategies/Strategy.sol:StrategyV3",
        "label": "updatedAt",
        "offset": 0,
        "slot": "10",
        "type": "t_uint256"
      },
      {
        "astId": 33319,
        "contract": "contracts/strategies/Strategy.sol:StrategyV3",
        "label": "exitedAt",
        "offset": 0,
        "slot": "11",
        "type": "t_uint256"
      },
      {
        "astId": 33322,
        "contract": "contracts/strategies/Strategy.sol:StrategyV3",
        "label": "voters",
        "offset": 0,
        "slot": "12",
        "type": "t_array(t_address)dyn_storage"
      },
      {
        "astId": 33325,
        "contract": "contracts/strategies/Strategy.sol:StrategyV3",
        "label": "totalPositiveVotes",
        "offset": 0,
        "slot": "13",
        "type": "t_uint256"
      },
      {
        "astId": 33328,
        "contract": "contracts/strategies/Strategy.sol:StrategyV3",
        "label": "totalNegativeVotes",
        "offset": 0,
        "slot": "14",
        "type": "t_uint256"
      },
      {
        "astId": 33331,
        "contract": "contracts/strategies/Strategy.sol:StrategyV3",
        "label": "finalized",
        "offset": 0,
        "slot": "15",
        "type": "t_bool"
      },
      {
        "astId": 33334,
        "contract": "contracts/strategies/Strategy.sol:StrategyV3",
        "label": "active",
        "offset": 1,
        "slot": "15",
        "type": "t_bool"
      },
      {
        "astId": 33336,
        "contract": "contracts/strategies/Strategy.sol:StrategyV3",
        "label": "dataSet",
        "offset": 2,
        "slot": "15",
        "type": "t_bool"
      },
      {
        "astId": 33338,
        "contract": "contracts/strategies/Strategy.sol:StrategyV3",
        "label": "hasMiningStarted",
        "offset": 3,
        "slot": "15",
        "type": "t_bool"
      },
      {
        "astId": 33341,
        "contract": "contracts/strategies/Strategy.sol:StrategyV3",
        "label": "duration",
        "offset": 0,
        "slot": "16",
        "type": "t_uint256"
      },
      {
        "astId": 33344,
        "contract": "contracts/strategies/Strategy.sol:StrategyV3",
        "label": "stake",
        "offset": 0,
        "slot": "17",
        "type": "t_uint256"
      },
      {
        "astId": 33347,
        "contract": "contracts/strategies/Strategy.sol:StrategyV3",
        "label": "maxCapitalRequested",
        "offset": 0,
        "slot": "18",
        "type": "t_uint256"
      },
      {
        "astId": 33350,
        "contract": "contracts/strategies/Strategy.sol:StrategyV3",
        "label": "capitalAllocated",
        "offset": 0,
        "slot": "19",
        "type": "t_uint256"
      },
      {
        "astId": 33353,
        "contract": "contracts/strategies/Strategy.sol:StrategyV3",
        "label": "expectedReturn",
        "offset": 0,
        "slot": "20",
        "type": "t_uint256"
      },
      {
        "astId": 33356,
        "contract": "contracts/strategies/Strategy.sol:StrategyV3",
        "label": "capitalReturned",
        "offset": 0,
        "slot": "21",
        "type": "t_uint256"
      },
      {
        "astId": 33358,
        "contract": "contracts/strategies/Strategy.sol:StrategyV3",
        "label": "minRebalanceCapital",
        "offset": 0,
        "slot": "22",
        "type": "t_uint256"
      },
      {
        "astId": 33361,
        "contract": "contracts/strategies/Strategy.sol:StrategyV3",
        "label": "tokensNeeded",
        "offset": 0,
        "slot": "23",
        "type": "t_array(t_address)dyn_storage"
      },
      {
        "astId": 33364,
        "contract": "contracts/strategies/Strategy.sol:StrategyV3",
        "label": "tokenAmountsNeeded",
        "offset": 0,
        "slot": "24",
        "type": "t_array(t_uint256)dyn_storage"
      },
      {
        "astId": 33367,
        "contract": "contracts/strategies/Strategy.sol:StrategyV3",
        "label": "strategyRewards",
        "offset": 0,
        "slot": "25",
        "type": "t_uint256"
      },
      {
        "astId": 33369,
        "contract": "contracts/strategies/Strategy.sol:StrategyV3",
        "label": "rewardsTotalOverhead",
        "offset": 0,
        "slot": "26",
        "type": "t_uint256"
      },
      {
        "astId": 33373,
        "contract": "contracts/strategies/Strategy.sol:StrategyV3",
        "label": "votes",
        "offset": 0,
        "slot": "27",
        "type": "t_mapping(t_address,t_int256)"
      }
    ],
    "types": {
      "t_address": {
        "encoding": "inplace",
        "label": "address",
        "numberOfBytes": "20"
      },
      "t_array(t_address)dyn_storage": {
        "base": "t_address",
        "encoding": "dynamic_array",
        "label": "address[]",
        "numberOfBytes": "32"
      },
      "t_array(t_uint256)dyn_storage": {
        "base": "t_uint256",
        "encoding": "dynamic_array",
        "label": "uint256[]",
        "numberOfBytes": "32"
      },
      "t_array(t_uint8)dyn_storage": {
        "base": "t_uint8",
        "encoding": "dynamic_array",
        "label": "uint8[]",
        "numberOfBytes": "32"
      },
      "t_bool": {
        "encoding": "inplace",
        "label": "bool",
        "numberOfBytes": "1"
      },
      "t_contract(IBabController)25545": {
        "encoding": "inplace",
        "label": "contract IBabController",
        "numberOfBytes": "20"
      },
      "t_contract(IGarden)25882": {
        "encoding": "inplace",
        "label": "contract IGarden",
        "numberOfBytes": "20"
      },
      "t_int256": {
        "encoding": "inplace",
        "label": "int256",
        "numberOfBytes": "32"
      },
      "t_mapping(t_address,t_int256)": {
        "encoding": "mapping",
        "key": "t_address",
        "label": "mapping(address => int256)",
        "numberOfBytes": "32",
        "value": "t_int256"
      },
      "t_uint256": {
        "encoding": "inplace",
        "label": "uint256",
        "numberOfBytes": "32"
      },
      "t_uint8": {
        "encoding": "inplace",
        "label": "uint8",
        "numberOfBytes": "1"
      }
    }
  }
}