{
  "address": "0x3EaA729Bd2A59E9411207F99ac222adC14f9632f",
  "abi": [
    {
      "inputs": [
        {
          "internalType": "address",
          "name": "_controller",
          "type": "address"
        }
      ],
      "stateMutability": "nonpayable",
      "type": "constructor"
    },
    {
      "inputs": [
        {
          "internalType": "string",
          "name": "_name",
          "type": "string"
        },
        {
          "internalType": "string",
          "name": "_symbol",
          "type": "string"
        },
        {
          "internalType": "address",
          "name": "_strategist",
          "type": "address"
        },
        {
          "internalType": "address",
          "name": "_garden",
          "type": "address"
        },
        {
          "internalType": "uint256[]",
          "name": "_stratParams",
          "type": "uint256[]"
        }
      ],
      "name": "createStrategy",
      "outputs": [
        {
          "internalType": "address",
          "name": "",
          "type": "address"
        }
      ],
      "stateMutability": "nonpayable",
      "type": "function"
    }
  ],
  "transactionHash": "0xea8421994e54a6eed95a7a56468eb2e7690650d00beee02b6ddcc24b38195ecc",
  "args": [
    "0xD4a5b5fcB561dAF3aDF86F8477555B92FBa43b5F"
  ],
  "solcInputHash": "bd873b418320faeabd457a4fe7c7c19d",
  "bytecode": "0x60c060405234801561001057600080fd5b506040516160013803806160018339818101604052602081101561003357600080fd5b50516001600160a01b038116610085576040805162461bcd60e51b8152602060048201526012602482015271436f6e74726f6c6c6572206973207a65726f60701b604482015290519081900360640190fd5b6001600160601b0319606082901b166080526040516100a3906100d6565b604051809103906000f0801580156100bf573d6000803e3d6000fd5b5060601b6001600160601b03191660a052506100e3565b6158bc8061074583390190565b60805160601c60a05160601c610634610111600039806101eb525080610224528061034352506106346000f3fe608060405234801561001057600080fd5b506004361061002b5760003560e01c806378afca3e14610030575b600080fd5b6101c7600480360360a081101561004657600080fd5b81019060208101813564010000000081111561006157600080fd5b82018360208201111561007357600080fd5b8035906020019184600183028401116401000000008311171561009557600080fd5b91908080601f01602080910402602001604051908101604052809392919081815260200183838082843760009201919091525092959493602081019350359150506401000000008111156100e857600080fd5b8201836020820111156100fa57600080fd5b8035906020019184600183028401116401000000008311171561011c57600080fd5b91908080601f01602080910402602001604051908101604052809392919081815260200183838082843760009201919091525092956001600160a01b03853581169660208701359091169591945092506060810191506040013564010000000081111561018857600080fd5b82018360208201111561019a57600080fd5b803590602001918460208302840111640100000000831117156101bc57600080fd5b5090925090506101e3565b604080516001600160a01b039092168252519081900360200190f35b60008061020f7f0000000000000000000000000000000000000000000000000000000000000000610524565b9050806001600160a01b031663df8fa43087877f00000000000000000000000000000000000000000000000000000000000000008888600081811061025057fe5b905060200201358989600181811061026457fe5b905060200201358a8a600281811061027857fe5b905060200201358b8b600381811061028c57fe5b905060200201358c8c60048181106102a057fe5b905060200201356040518963ffffffff1660e01b815260040180896001600160a01b03168152602001886001600160a01b03168152602001876001600160a01b0316815260200186815260200185815260200184815260200183815260200182815260200198505050505050505050600060405180830381600087803b15801561032957600080fd5b505af115801561033d573d6000803e3d6000fd5b505050507f00000000000000000000000000000000000000000000000000000000000000006001600160a01b031663d6a45aa56040518163ffffffff1660e01b815260040160206040518083038186803b15801561039a57600080fd5b505afa1580156103ae573d6000803e3d6000fd5b505050506040513d60208110156103c457600080fd5b50516040517f0cfa5cda0000000000000000000000000000000000000000000000000000000081526001600160a01b03838116600483019081526060602484019081528c5160648501528c519290941693630cfa5cda9386938e938e9390929091604482019160840190602087019080838360005b83811015610451578181015183820152602001610439565b50505050905090810190601f16801561047e5780820380516001836020036101000a031916815260200191505b50838103825284518152845160209182019186019080838360005b838110156104b1578181015183820152602001610499565b50505050905090810190601f1680156104de5780820380516001836020036101000a031916815260200191505b5095505050505050600060405180830381600087803b15801561050057600080fd5b505af1158015610514573d6000803e3d6000fd5b50929a9950505050505050505050565b60006040517f3d602d80600a3d3981f3363d3d373d3d3d363d7300000000000000000000000081528260601b60148201527f5af43d82803e903d91602b57fd5bf3000000000000000000000000000000000060288201526037816000f09150506001600160a01b0381166105f957604080517f08c379a000000000000000000000000000000000000000000000000000000000815260206004820152601660248201527f455243313136373a20637265617465206661696c656400000000000000000000604482015290519081900360640190fd5b91905056fea26469706673582212200e94595b54080f9adf5f40962304b6bb252977af75677be5c97f482d92b87cd564736f6c63430007060033608060405234801561001057600080fd5b50600160005561589680620000266000396000f3fe6080604052600436106103435760003560e01c80637b2b401a116101b0578063c39b951c116100ec578063dbabf4f311610095578063e4df5e1a1161006f578063e4df5e1a14610d65578063f101e82b14610d7a578063f77c479114610daa578063ffb5cd0914610dbf5761034a565b8063dbabf4f314610cd9578063dd1033f814610cee578063df8fa43014610d035761034a565b8063d40244cb116100c6578063d40244cb14610c67578063d8bff5a514610c7c578063da58c7d914610caf5761034a565b8063c39b951c14610c28578063d0f9953e14610c3d578063d3406abd14610c525761034a565b8063950c782211610159578063a30ca20411610133578063a30ca20414610a86578063b3f05b9714610a9b578063bf1dcfe214610ab0578063c2ea0bc414610b075761034a565b8063950c7822146109e657806397ccdc6014610a195780639947cb9514610a5c5761034a565b80639033a52b1161018a5780639033a52b1461099257806393baae41146109bc57806394bba464146109d15761034a565b80637b2b401a14610913578063825deffe1461093d5780638a439b7a146109525761034a565b80633394fed21161027f57806356ba88b8116102285780636bc195dd116102025780636bc195dd146107cd5780636db40dc2146108d45780636db9cc99146108e95780637519ab50146108fe5761034a565b806356ba88b8146106e9578063577b6ab8146106fe5780636b3b75ea146107135761034a565b8063449b982611610259578063449b98261461065157806348a4beaa146106665780634b0fff0c146106bf5761034a565b80633394fed2146105e85780633a4b66f11461061257806342296724146106275761034a565b80630e32db52116102ec5780631a5cfcb7116102c65780631a5cfcb7146104955780631faeaf76146104c75780631fe4a686146105a257806330273356146105d35761034a565b80630e32db52146104135780630fb5a6b4146104565780631115bdcf1461046b5761034a565b806303976e381161031d57806303976e38146103d457806303cddb2c146103e95780630d15fd77146103fe5761034a565b80630126c6061461034f57806301681a621461037657806302fb0c5e146103ab5761034a565b3661034a57005b600080fd5b34801561035b57600080fd5b50610364610e60565b60408051918252519081900360200190f35b34801561038257600080fd5b506103a96004803603602081101561039957600080fd5b50356001600160a01b0316611029565b005b3480156103b757600080fd5b506103c06112f4565b604080519115158252519081900360200190f35b3480156103e057600080fd5b50610364611302565b3480156103f557600080fd5b50610364611308565b34801561040a57600080fd5b5061036461130e565b34801561041f57600080fd5b506103646004803603606081101561043657600080fd5b506001600160a01b03813581169160208101359160409091013516611314565b34801561046257600080fd5b5061036461141a565b34801561047757600080fd5b506103a96004803603602081101561048e57600080fd5b5035611420565b3480156104a157600080fd5b506103a9600480360360408110156104b857600080fd5b5080351515906020013561172e565b3480156104d357600080fd5b506103a9600480360360a08110156104ea57600080fd5b81019060208101813564010000000081111561050557600080fd5b82018360208201111561051757600080fd5b8035906020019184602083028401116401000000008311171561053957600080fd5b91939092909160208101903564010000000081111561055757600080fd5b82018360208201111561056957600080fd5b8035906020019184602083028401116401000000008311171561058b57600080fd5b91935091508035906020810135906040013561190a565b3480156105ae57600080fd5b506105b7611c55565b604080516001600160a01b039092168252519081900360200190f35b3480156105df57600080fd5b50610364611c64565b3480156105f457600080fd5b506105b76004803603602081101561060b57600080fd5b5035611c6a565b34801561061e57600080fd5b50610364611c94565b34801561063357600080fd5b506103a96004803603602081101561064a57600080fd5b5035611c9a565b34801561065d57600080fd5b5061036461215b565b34801561067257600080fd5b506106936004803603602081101561068957600080fd5b503560ff16612161565b6040805160ff90941684526001600160a01b039283166020850152911682820152519081900360600190f35b3480156106cb57600080fd5b506103a9600480360360208110156106e257600080fd5b50356121f2565b3480156106f557600080fd5b506105b76122eb565b34801561070a57600080fd5b506103a96122fa565b34801561071f57600080fd5b506103a96004803603604081101561073657600080fd5b8135919081019060408101602082013564010000000081111561075857600080fd5b82018360208201111561076a57600080fd5b8035906020019184600183028401116401000000008311171561078c57600080fd5b91908080601f01602080910402602001604051908101604052809392919081815260200183838082843760009201919091525092955061235f945050505050565b3480156107d957600080fd5b5061085f600480360360608110156107f057600080fd5b6001600160a01b038235169160208101359181019060608101604082013564010000000081111561082057600080fd5b82018360208201111561083257600080fd5b8035906020019184600183028401116401000000008311171561085457600080fd5b509092509050612755565b6040805160208082528351818301528351919283929083019185019080838360005b83811015610899578181015183820152602001610881565b50505050905090810190601f1680156108c65780820380516001836020036101000a031916815260200191505b509250505060405180910390f35b3480156108e057600080fd5b506103646129bf565b3480156108f557600080fd5b506103646129c5565b34801561090a57600080fd5b506103646129cb565b34801561091f57600080fd5b506103646004803603602081101561093657600080fd5b50356129d1565b34801561094957600080fd5b506103646129f2565b34801561095e57600080fd5b5061097c6004803603602081101561097557600080fd5b50356129f8565b6040805160ff9092168252519081900360200190f35b34801561099e57600080fd5b506105b7600480360360208110156109b557600080fd5b5035612a2c565b3480156109c857600080fd5b50610364612a3c565b3480156109dd57600080fd5b506103c0612a42565b3480156109f257600080fd5b5061036460048036036020811015610a0957600080fd5b50356001600160a01b0316612a51565b348015610a2557600080fd5b506103a960048036036060811015610a3c57600080fd5b506001600160a01b03813581169160208101359091169060400135612a6c565b348015610a6857600080fd5b506105b760048036036020811015610a7f57600080fd5b5035612b54565b348015610a9257600080fd5b50610364612b64565b348015610aa757600080fd5b506103c0612b6a565b348015610abc57600080fd5b50610ac5612b73565b604080516001600160a01b0390981688529515156020880152931515868601529115156060860152608085015260a084015260c0830152519081900360e00190f35b348015610b1357600080fd5b506103a960048036036060811015610b2a57600080fd5b810190602081018135640100000000811115610b4557600080fd5b820183602082011115610b5757600080fd5b80359060200191846020830284011164010000000083111715610b7957600080fd5b919390929091602081019035640100000000811115610b9757600080fd5b820183602082011115610ba957600080fd5b80359060200191846020830284011164010000000083111715610bcb57600080fd5b919390929091602081019035640100000000811115610be957600080fd5b820183602082011115610bfb57600080fd5b80359060200191846020830284011164010000000083111715610c1d57600080fd5b509092509050612b9d565b348015610c3457600080fd5b5061036461300b565b348015610c4957600080fd5b50610364613011565b348015610c5e57600080fd5b50610364613017565b348015610c7357600080fd5b5061036461301d565b348015610c8857600080fd5b5061036460048036036020811015610c9f57600080fd5b50356001600160a01b0316613023565b348015610cbb57600080fd5b506105b760048036036020811015610cd257600080fd5b5035613035565b348015610ce557600080fd5b50610364613045565b348015610cfa57600080fd5b5061036461304b565b348015610d0f57600080fd5b506103a96004803603610100811015610d2757600080fd5b506001600160a01b03813581169160208101358216916040820135169060608101359060808101359060a08101359060c08101359060e00135613051565b348015610d7157600080fd5b506103c0613544565b348015610d8657600080fd5b506103a960048036036040811015610d9d57600080fd5b508035906020013561355c565b348015610db657600080fd5b506105b7613a02565b348015610dcb57600080fd5b50610dd4613a17565b604051808f6001600160a01b031681526020018e6001600160a01b031681526020018d81526020018c81526020018b81526020018a8152602001898152602001888152602001878152602001868152602001858152602001848152602001836001600160a01b031681526020018281526020019e50505050505050505050505050505060405180910390f35b600080805b60025481101561102357600154600280546000926201000090046001600160a01b03169163201041989185908110610e9957fe5b90600052602060002090602091828204019190069054906101000a900460ff1660ff166040518263ffffffff1660e01b81526004018082815260200191505060206040518083038186803b158015610ef057600080fd5b505afa158015610f04573d6000803e3d6000fd5b505050506040513d6020811015610f1a57600080fd5b505160048054919250611018916001600160a01b03841691634222326a9186908110610f4257fe5b600091825260209091200154600554600380546001600160a01b03938416939092169188908110610f6f57fe5b60009182526020918290200154604080517fffffffff0000000000000000000000000000000000000000000000000000000060e088901b1681526001600160a01b039586166004820152938516602485015293166044830152915160648083019392829003018186803b158015610fe557600080fd5b505afa158015610ff9573d6000803e3d6000fd5b505050506040513d602081101561100f57600080fd5b50518490613b1c565b925050600101610e65565b50905090565b600554604080516370a0823160e01b8152336004820152905161113a926000926001600160a01b03909116916370a0823191602480820192602092909190829003018186803b15801561107b57600080fd5b505afa15801561108f573d6000803e3d6000fd5b505050506040513d60208110156110a557600080fd5b50511180156111335750600154600554604080516313bc6d4b60e01b81526001600160a01b039283166004820152905162010000909304909116916313bc6d4b91602480820192602092909190829003018186803b15801561110657600080fd5b505afa15801561111a573d6000803e3d6000fd5b505050506040513d602081101561113057600080fd5b50515b600f613b7f565b60055460408051631f0b96b960e31b815290516111c2926001600160a01b03169163f85cb5c8916004808301926020929190829003018186803b15801561118057600080fd5b505afa158015611194573d6000803e3d6000fd5b505050506040513d60208110156111aa57600080fd5b50516001600160a01b03838116911614156036613b7f565b6011546111d990610100900460ff16156034613b7f565b6000816001600160a01b03166370a08231306040518263ffffffff1660e01b815260040180826001600160a01b0316815260200191505060206040518083038186803b15801561122857600080fd5b505afa15801561123c573d6000803e3d6000fd5b505050506040513d602081101561125257600080fd5b505190506112638115156008613b7f565b6112e78282600560009054906101000a90046001600160a01b03166001600160a01b031663f85cb5c86040518163ffffffff1660e01b815260040160206040518083038186803b1580156112b657600080fd5b505afa1580156112ca573d6000803e3d6000fd5b505050506040513d60208110156112e057600080fd5b5051613b8d565b506112f0613e13565b5050565b601154610100900460ff1681565b60175481565b60155481565b600d5481565b600080805b60025460ff821610156113fa5781806113f05750600160029054906101000a90046001600160a01b03166001600160a01b0316632010419860028360ff168154811061136157fe5b90600052602060002090602091828204019190069054906101000a900460ff166040518263ffffffff1660e01b8152600401808260ff16815260200191505060206040518083038186803b1580156113b857600080fd5b505afa1580156113cc573d6000803e3d6000fd5b505050506040513d60208110156113e257600080fd5b50516001600160a01b031633145b9150600101611319565b5061140681604c613b7f565b611411858585613b8d565b95945050505050565b60125481565b806114b9600160029054906101000a90046001600160a01b03166001600160a01b031663411137c3336040518263ffffffff1660e01b815260040180826001600160a01b0316815260200191505060206040518083038186803b15801561148657600080fd5b505afa15801561149a573d6000803e3d6000fd5b505050506040513d60208110156114b057600080fd5b50516012613b7f565b6114cf670de0b6b3a76400008211156013613b7f565b60026000541415611527576040805162461bcd60e51b815260206004820152601f60248201527f5265656e7472616e637947756172643a207265656e7472616e742063616c6c00604482015290519081900360640190fd5b60026000556005546040805163017d862f60e11b81529051611635926001600160a01b0316916302fb0c5e916004808301926020929190829003018186803b15801561157257600080fd5b505afa158015611586573d6000803e3d6000fd5b505050506040513d602081101561159c57600080fd5b50511515600114801561162e5750600154600554604080516313bc6d4b60e01b81526001600160a01b039283166004820152905162010000909304909116916313bc6d4b91602480820192602092909190829003018186803b15801561160157600080fd5b505afa158015611615573d6000803e3d6000fd5b505050506040513d602081101561162b57600080fd5b50515b6023613b7f565b60115461164c90610100900460ff16156034613b7f565b61167062093a8061166860075442613f4b90919063ffffffff16565b116037613b7f565b60055460408051634d5b1ba160e11b81523360048201526024810185905290516001600160a01b0390921691639ab637429160448082019260009290919082900301818387803b1580156116c357600080fd5b505af11580156116d7573d6000803e3d6000fd5b505050506116e3613fa8565b6005546040805142815290516001600160a01b03909216917f7a7d4c833d273b66e431c5f268c42ee3e788541592e07c77f232cd28c89913169181900360200190a250506001600055565b6000805b60025460ff821610156118135781806118095750600160029054906101000a90046001600160a01b03166001600160a01b0316632010419860028360ff168154811061177a57fe5b90600052602060002090602091828204019190069054906101000a900460ff166040518263ffffffff1660e01b8152600401808260ff16815260200191505060206040518083038186803b1580156117d157600080fd5b505afa1580156117e5573d6000803e3d6000fd5b505050506040513d60208110156117fb57600080fd5b50516001600160a01b031633145b9150600101611732565b5061181f81604c613b7f565b82156118925773c02aaa39b223fe8d0a0e5c4f27ead9083c756cc26001600160a01b031663d0e30db0836040518263ffffffff1660e01b81526004016000604051808303818588803b15801561187457600080fd5b505af1158015611888573d6000803e3d6000fd5b5050505050611905565b73c02aaa39b223fe8d0a0e5c4f27ead9083c756cc26001600160a01b0316632e1a7d4d836040518263ffffffff1660e01b815260040180828152602001915050600060405180830381600087803b1580156118ec57600080fd5b505af1158015611900573d6000803e3d6000fd5b505050505b505050565b80611970600160029054906101000a90046001600160a01b03166001600160a01b031663411137c3336040518263ffffffff1660e01b815260040180826001600160a01b0316815260200191505060206040518083038186803b15801561148657600080fd5b611986670de0b6b3a76400008211156013613b7f565b6005546040805163017d862f60e11b815290516119cc926001600160a01b0316916302fb0c5e916004808301926020929190829003018186803b15801561157257600080fd5b600554604080517ff251fc8c0000000000000000000000000000000000000000000000000000000081529051611a72926001600160a01b03169163f251fc8c916004808301926020929190829003018186803b158015611a2b57600080fd5b505afa158015611a3f573d6000803e3d6000fd5b505050506040513d6020811015611a5557600080fd5b5051600114611a65576002611a68565b60015b8810156040613b7f565b601154611a9890610100900460ff16158015611a91575060115460ff16155b602a613b7f565b611abd62093a80611ab460075442613f4b90919063ffffffff16565b1115602b613b7f565b6011805461ff00191661010017905560005b87811015611b2557868682818110611ae357fe5b90506020020135601d60008b8b85818110611afa57fe5b602090810292909201356001600160a01b031683525081019190915260400160002055600101611acf565b50611b4c611b476002611b4186611b3b89614049565b90614091565b906140f6565b6141ae565b600f55611b6a611b476002611b4186611b6489614049565b90614205565b601055611b79600c89896155e9565b50600e805485019055600d805484019055426008819055600554604080518781526020810187905280820193909352516001600160a01b03909116917f84d16af09d51e9126d9f6eddb4e8c072bb4b01dccb1f72e266ed2f66fc4b3792919081900360600190a260055460408051634d5b1ba160e11b81523360048201526024810185905290516001600160a01b0390921691639ab637429160448082019260009290919082900301818387803b158015611c3357600080fd5b505af1158015611c47573d6000803e3d6000fd5b505050505050505050505050565b6006546001600160a01b031681565b60185481565b60198181548110611c7a57600080fd5b6000918252602090912001546001600160a01b0316905081565b60135481565b600554611dca906001600160a01b031633148015611d375750600154600554604080516313bc6d4b60e01b81526001600160a01b039283166004820152905162010000909304909116916313bc6d4b91602480820192602092909190829003018186803b158015611d0a57600080fd5b505afa158015611d1e573d6000803e3d6000fd5b505050506040513d6020811015611d3457600080fd5b50515b80611dc35750600160029054906101000a90046001600160a01b03166001600160a01b0316638da5cb5b6040518163ffffffff1660e01b815260040160206040518083038186803b158015611d8b57600080fd5b505afa158015611d9f573d6000803e3d6000fd5b505050506040513d6020811015611db557600080fd5b50516001600160a01b031633145b601f613b7f565b60026000541415611e22576040805162461bcd60e51b815260206004820152601f60248201527f5265656e7472616e637947756172643a207265656e7472616e742063616c6c00604482015290519081900360640190fd5b6002600055601154611e4c90610100900460ff168015611e45575060115460ff16155b602c613b7f565b611e70611e66601854601554613f4b90919063ffffffff16565b8211156033613b7f565b611e8d611e886015548361426a90919063ffffffff16565b614288565b42600a55601554611e9e9082613f4b565b601555600154604080517f3f2a554000000000000000000000000000000000000000000000000000000000815290516000926201000090046001600160a01b031691633f2a5540916004808301926020929190829003018186803b158015611f0557600080fd5b505afa158015611f19573d6000803e3d6000fd5b505050506040513d6020811015611f2f57600080fd5b50519050611f3b61443f565b15611f9f57806001600160a01b031663f5750d0f836040518263ffffffff1660e01b815260040180828152602001915050600060405180830381600087803b158015611f8657600080fd5b505af1158015611f9a573d6000803e3d6000fd5b505050505b60055460408051631f0b96b960e31b81529051612109926001600160a01b031691829163f85cb5c891600480820192602092909190829003018186803b158015611fe857600080fd5b505afa158015611ffc573d6000803e3d6000fd5b505050506040513d602081101561201257600080fd5b5051604080516370a0823160e01b815230600482015290516001600160a01b03909216916370a0823191602480820192602092909190829003018186803b15801561205c57600080fd5b505afa158015612070573d6000803e3d6000fd5b505050506040513d602081101561208657600080fd5b505160055460408051631f0b96b960e31b815290516001600160a01b039092169163f85cb5c891600480820192602092909190829003018186803b1580156120cd57600080fd5b505afa1580156120e1573d6000803e3d6000fd5b505050506040513d60208110156120f757600080fd5b50516001600160a01b03169190614565565b6005546040805184815242602082015281516001600160a01b03909316927fcff91fcd7fff5d12ce9ee075980ad73fde31d99f583cb228a04ee0ef4f34ba6f929181900390910190a250506001600055565b60105481565b600080600060028460ff168154811061217657fe5b90600052602060002090602091828204019190069054906101000a900460ff1660038560ff16815481106121a657fe5b600091825260209091200154600480546001600160a01b039092169160ff88169081106121cf57fe5b60009182526020909120015491945092506001600160a01b031690509193909250565b60065461220b906001600160a01b031633146020613b7f565b60115461221d9060ff16156032613b7f565b61222c60125482106035613b7f565b600554604080516395cdbedb60e01b815290516122a8926001600160a01b0316916395cdbedb916004808301926020929190829003018186803b15801561227257600080fd5b505afa158015612286573d6000803e3d6000fd5b505050506040513d602081101561229c57600080fd5b50518210156035613b7f565b60125460408051838152602081019290925280517f42fb010605de46a36c4814784d207e3b8a1ce9f6773eaea652c07d2a07e95e579281900390910190a1601255565b6005546001600160a01b031681565b600654612313906001600160a01b031633146020613b7f565b61231b613fa8565b6005546040805142815290516001600160a01b03909216917f4dcd504f23c1c204f965486c526a1e35cfb215bb4823dd1be0a172277bb1b3459181900360200190a2565b816123c5600160029054906101000a90046001600160a01b03166001600160a01b031663411137c3336040518263ffffffff1660e01b815260040180826001600160a01b0316815260200191505060206040518083038186803b15801561148657600080fd5b6123db670de0b6b3a76400008211156013613b7f565b60026000541415612433576040805162461bcd60e51b815260206004820152601f60248201527f5265656e7472616e637947756172643a207265656e7472616e742063616c6c00604482015290519081900360640190fd5b60026000556005546040805163017d862f60e11b8152905161247e926001600160a01b0316916302fb0c5e916004808301926020929190829003018186803b15801561157257600080fd5b61248e6000600954116030613b7f565b6124b16124a8601254600954613b1c90919063ffffffff16565b42116031613b7f565b6011546124c39060ff16156032613b7f565b6124d4670de0b6b3a7640000614288565b60118054600160ff19909116811761ff00191690915542600b819055600a5554604080517fd6a45aa50000000000000000000000000000000000000000000000000000000081529051620100009092046001600160a01b03169163d6a45aa591600480820192602092909190829003018186803b15801561255457600080fd5b505afa158015612568573d6000803e3d6000fd5b505050506040513d602081101561257e57600080fd5b5051600654604080517f3b5bb1d50000000000000000000000000000000000000000000000000000000081526001600160a01b0392831660048201818152602483019384528751604484015287519490951694633b5bb1d594919388939192909160640190602085019080838360005b838110156126065781810151838201526020016125ee565b50505050905090810190601f1680156126335780820380516001836020036101000a031916815260200191505b509350505050602060405180830381600087803b15801561265357600080fd5b505af1158015612667573d6000803e3d6000fd5b505050506040513d602081101561267d57600080fd5b505060055460408051634d5b1ba160e11b81523360048201526024810186905290516001600160a01b0390921691639ab637429160448082019260009290919082900301818387803b1580156126d257600080fd5b505af11580156126e6573d6000803e3d6000fd5b505050506126f3836145e5565b6126fb613e13565b60055460175460408051918252602082018690524282820152516001600160a01b03909216917f2d21f7a1772dd51a6d96bd1cb40623cb13b73fd3d037618d9688707ce1b5b9569181900360600190a25050600160005550565b606061297e600160029054906101000a90046001600160a01b03166001600160a01b031663f4330b49336001600160a01b03166317d7de7c6040518163ffffffff1660e01b815260040160006040518083038186803b1580156127b757600080fd5b505afa1580156127cb573d6000803e3d6000fd5b505050506040513d6000823e601f3d908101601f1916820160405260208110156127f457600080fd5b810190808051604051939291908464010000000082111561281457600080fd5b90830190602082018581111561282957600080fd5b825164010000000081118282018810171561284357600080fd5b82525081516020918201929091019080838360005b83811015612870578181015183820152602001612858565b50505050905090810190601f16801561289d5780820380516001836020036101000a031916815260200191505b50604052505050336040518363ffffffff1660e01b81526004018080602001836001600160a01b03168152602001828103825284818151815260200191508051906020019080838360005b838110156129005781810151838201526020016128e8565b50505050905090810190601f16801561292d5780820380516001836020036101000a031916815260200191505b50935050505060206040518083038186803b15801561294b57600080fd5b505afa15801561295f573d6000803e3d6000fd5b505050506040513d602081101561297557600080fd5b50516021613b7f565b611411858585858080601f016020809104026020016040519081016040528093929190818152602001838380828437600092019190915250614d8d92505050565b601b5481565b60075481565b600a5481565b601a81815481106129e157600080fd5b600091825260209091200154905081565b60095481565b60028181548110612a0857600080fd5b9060005260206000209060209182820401919006915054906101000a900460ff1681565b60048181548110611c7a57600080fd5b60145481565b60115462010000900460ff1681565b6001600160a01b03166000908152601d602052604090205490565b612acc600160029054906101000a90046001600160a01b03166001600160a01b031663f4330b49336001600160a01b03166317d7de7c6040518163ffffffff1660e01b815260040160006040518083038186803b1580156127b757600080fd5b816001600160a01b031663095ea7b384836040518363ffffffff1660e01b815260040180836001600160a01b0316815260200182815260200192505050602060405180830381600087803b158015612b2357600080fd5b505af1158015612b37573d6000803e3d6000fd5b505050506040513d6020811015612b4d57600080fd5b5050505050565b60038181548110611c7a57600080fd5b60085481565b60115460ff1681565b601154600954600b54600a54309460ff610100860481169562010000810482169591169390929091565b600554612c56906001600160a01b031633148015612bc4575060115462010000900460ff16155b8015612c4f5750600154600554604080516313bc6d4b60e01b81526001600160a01b039283166004820152905162010000909304909116916313bc6d4b91602480820192602092909190829003018186803b158015612c2257600080fd5b505afa158015612c36573d6000803e3d6000fd5b505050506040513d6020811015612c4c57600080fd5b50515b6022613b7f565b612c6e8584148015612c6757508382145b604b613b7f565b612c86600682108015612c675750811515604b613b7f565b60005b85811015612fca576001546201000090046001600160a01b03166320104198888884818110612cb457fe5b9050602002013560ff166040518263ffffffff1660e01b8152600401808260ff16815260200191505060206040518083038186803b158015612cf557600080fd5b505afa158015612d09573d6000803e3d6000fd5b505050506040513d6020811015612d1f57600080fd5b50516001600160a01b031663c8cd3075848484818110612d3b57fe5b6005546001600160a01b0360209092029390930135811692169050888886818110612d6257fe5b905060200201356001600160a01b0316856040518563ffffffff1660e01b815260040180856001600160a01b03168152602001846001600160a01b03168152602001836001600160a01b0316815260200182815260200194505050505060006040518083038186803b158015612dd757600080fd5b505afa158015612deb573d6000803e3d6000fd5b5050600154612fc292506201000090046001600160a01b0316905063f4330b49878785818110612e1757fe5b905060200201356001600160a01b03166001600160a01b03166317d7de7c6040518163ffffffff1660e01b815260040160006040518083038186803b158015612e5f57600080fd5b505afa158015612e73573d6000803e3d6000fd5b505050506040513d6000823e601f3d908101601f191682016040526020811015612e9c57600080fd5b8101908080516040519392919084640100000000821115612ebc57600080fd5b908301906020820185811115612ed157600080fd5b8251640100000000811182820188101715612eeb57600080fd5b82525081516020918201929091019080838360005b83811015612f18578181015183820152602001612f00565b50505050905090810190601f168015612f455780820380516001836020036101000a031916815260200191505b50604052505050888886818110612f5857fe5b905060200201356001600160a01b03166040518363ffffffff1660e01b81526004018080602001836001600160a01b0316815260200182810382528481815181526020019150805190602001908083836000838110156129005781810151838201526020016128e8565b600101612c89565b50612fd760028787615655565b50612fe4600385856155e9565b50612ff1600483836155e9565b50506011805462ff00001916620100001790555050505050565b600e5481565b600b5481565b60165481565b600f5481565b601d6020526000908152604090205481565b600c8181548110611c7a57600080fd5b601c5481565b60025490565b600154610100900460ff168061306a575061306a614eb7565b80613078575060015460ff16155b6130b35760405162461bcd60e51b815260040180806020018281038252602e815260200180615752602e913960400191505060405180910390fd5b600154610100900460ff161580156130dd576001805460ff1961ff00199091166101001716811790555b600180547fffffffffffffffffffff0000000000000000000000000000000000000000ffff16620100006001600160a01b038a811682029290921792839055604080516313bc6d4b60e01b81528c8416600482015290516131989492909204909216916313bc6d4b916024808301926020929190829003018186803b15801561316557600080fd5b505afa158015613179573d6000803e3d6000fd5b505050506040513d602081101561318f57600080fd5b50516024613b7f565b6005805473ffffffffffffffffffffffffffffffffffffffff19166001600160a01b038a81169190911791829055604080517fc40868930000000000000000000000000000000000000000000000000000000081528c8316600482015290516000936132d093169163c4086893916024808301926020929190829003018186803b15801561322557600080fd5b505afa158015613239573d6000803e3d6000fd5b505050506040513d602081101561324f57600080fd5b5051600554604080516370a0823160e01b81526001600160a01b038f81166004830152915191909216916370a08231916024808301926020929190829003018186803b15801561329e57600080fd5b505afa1580156132b2573d6000803e3d6000fd5b505050506040513d60208110156132c857600080fd5b505190613f4b565b600554604080516370a0823160e01b81526001600160a01b038e81166004830152915193945061335c9360009392909216916370a0823191602480820192602092909190829003018186803b15801561332857600080fd5b505afa15801561333c573d6000803e3d6000fd5b505050506040513d602081101561335257600080fd5b5051116025613b7f565b61336a868210156007613b7f565b613378600087116026613b7f565b600554604080516395cdbedb60e01b81529051613479926001600160a01b0316916395cdbedb916004808301926020929190829003018186803b1580156133be57600080fd5b505afa1580156133d2573d6000803e3d6000fd5b505050506040513d60208110156133e857600080fd5b505186108015906134725750600560009054906101000a90046001600160a01b03166001600160a01b031663297ce5986040518163ffffffff1660e01b815260040160206040518083038186803b15801561344257600080fd5b505afa158015613456573d6000803e3d6000fd5b505050506040513d602081101561346c57600080fd5b50518611155b6027613b7f565b61348f670de0b6b3a76400008410156039613b7f565b61349d838810156029613b7f565b6006805473ffffffffffffffffffffffffffffffffffffffff19166001600160a01b038c16179055426007556013869055601285905560168490556000601555601883905560148790556134f086614049565b600d556134fc86614049565b6001600160a01b038b166000908152601d602052604090205550600e8590556011805462ff0000191690558015613539576001805461ff00191690555b505050505050505050565b6000806009541180156135575750600b54155b905090565b806135c2600160029054906101000a90046001600160a01b03166001600160a01b031663411137c3336040518263ffffffff1660e01b815260040180826001600160a01b0316815260200191505060206040518083038186803b15801561148657600080fd5b6135d8670de0b6b3a76400008211156013613b7f565b60026000541415613630576040805162461bcd60e51b815260206004820152601f60248201527f5265656e7472616e637947756172643a207265656e7472616e742063616c6c00604482015290519081900360640190fd5b60026000556005546040805163017d862f60e11b8152905161367b926001600160a01b0316916302fb0c5e916004808301926020929190829003018186803b15801561157257600080fd5b60115461369190610100900460ff16602c613b7f565b6136b56014546136ac85601554613b1c90919063ffffffff16565b1115602d613b7f565b6136c5601854841015602e613b7f565b600554604080517f3deddb3f0000000000000000000000000000000000000000000000000000000081529051613767926001600160a01b031691633deddb3f916004808301926020929190829003018186803b15801561372457600080fd5b505afa158015613738573d6000803e3d6000fd5b505050506040513d602081101561374e57600080fd5b505160085461375e904290613f4b565b1015602f613b7f565b600554604080517f4422b0dc0000000000000000000000000000000000000000000000000000000081526004810186905290516001600160a01b0390921691634422b0dc9160248082019260009290919082900301818387803b1580156137cd57600080fd5b505af11580156137e1573d6000803e3d6000fd5b50506015546137f39250905084613b1c565b6015556137ff83614ec8565b6000600160029054906101000a90046001600160a01b03166001600160a01b0316633f2a55406040518163ffffffff1660e01b815260040160206040518083038186803b15801561384f57600080fd5b505afa158015613863573d6000803e3d6000fd5b505050506040513d602081101561387957600080fd5b505160095490915061388e57426009556138ca565b61389661443f565b156138ca576138c66138bd6138b6600a5442613f4b90919063ffffffff16565b869061512b565b601c5490613b1c565b601c555b6138d261443f565b1561393657806001600160a01b0316630fa454cf856040518263ffffffff1660e01b815260040180828152602001915050600060405180830381600087803b15801561391d57600080fd5b505af1158015613931573d6000803e3d6000fd5b505050505b60055460408051634d5b1ba160e11b81523360048201526024810186905290516001600160a01b0390921691639ab637429160448082019260009290919082900301818387803b15801561398957600080fd5b505af115801561399d573d6000803e3d6000fd5b505042600a819055600554604080518981526020810189905280820193909352516001600160a01b0390911693507f7f4467a4ca8be02143a9253e6c31362c7bc755929e5c68faf659636d307f1b8c92509081900360600190a2505060016000555050565b6001546201000090046001600160a01b031681565b60008060008060008060008060008060008060008030600660009054906101000a90046001600160a01b0316600380549050601354600e54600d54601554601754601254601654601454601854600160029054906101000a90046001600160a01b03166001600160a01b031663d6a45aa56040518163ffffffff1660e01b815260040160206040518083038186803b158015613ab257600080fd5b505afa158015613ac6573d6000803e3d6000fd5b505050506040513d6020811015613adc57600080fd5b81019080805190602001909291905050506007549d509d509d509d509d509d509d509d509d509d509d509d509d509d50909192939495969798999a9b9c9d565b600082820183811015613b76576040805162461bcd60e51b815260206004820152601b60248201527f536166654d6174683a206164646974696f6e206f766572666c6f770000000000604482015290519081900360640190fd5b90505b92915050565b816112f0576112f081615184565b600080600160029054906101000a90046001600160a01b03166001600160a01b0316636176605e6040518163ffffffff1660e01b815260040160206040518083038186803b158015613bde57600080fd5b505afa158015613bf2573d6000803e3d6000fd5b505050506040513d6020811015613c0857600080fd5b5051600154604080517f2630c12f0000000000000000000000000000000000000000000000000000000081529051929350600092620100009092046001600160a01b031691632630c12f91600480820192602092909190829003018186803b158015613c7357600080fd5b505afa158015613c87573d6000803e3d6000fd5b505050506040513d6020811015613c9d57600080fd5b5051604080517fac41865a0000000000000000000000000000000000000000000000000000000081526001600160a01b038981166004830152878116602483015291519293506000929184169163ac41865a91604480820192602092909190829003018186803b158015613d1057600080fd5b505afa158015613d24573d6000803e3d6000fd5b505050506040513d6020811015613d3a57600080fd5b505190506000613d4a87836151d7565b90506000613d69613d628366b1a2bc2ec500006151d7565b8390613f4b565b604080517ffa1ca8200000000000000000000000000000000000000000000000000000000081523060048201526001600160a01b038c81166024830152604482018c90528a811660648301526084820184905291519293509087169163fa1ca8209160a48082019260009290919082900301818387803b158015613dec57600080fd5b505af1158015613e00573d6000803e3d6000fd5b50929750505050505050505b9392505050565b60055460408051631f0b96b960e31b815290516000926001600160a01b03169163f85cb5c8916004808301926020929190829003018186803b158015613e5857600080fd5b505afa158015613e6c573d6000803e3d6000fd5b505050506040513d6020811015613e8257600080fd5b5051604080516370a0823160e01b815230600482015290516001600160a01b03909216916370a0823191602480820192602092909190829003018186803b158015613ecc57600080fd5b505afa158015613ee0573d6000803e3d6000fd5b505050506040513d6020811015613ef657600080fd5b505160055460408051631f0b96b960e31b81529051929350613f48926001600160a01b03909216918491839163f85cb5c891600480820192602092909190829003018186803b1580156120cd57600080fd5b50565b600082821115613fa2576040805162461bcd60e51b815260206004820152601e60248201527f536166654d6174683a207375627472616374696f6e206f766572666c6f770000604482015290519081900360640190fd5b50900390565b613fb86009546000146038613b7f565b601154613fca9060ff16156032613b7f565b600554604080517fb2644e6600000000000000000000000000000000000000000000000000000000815230600482015290516001600160a01b039092169163b2644e669160248082019260009290919082900301818387803b15801561402f57600080fd5b505af1158015614043573d6000803e3d6000fd5b50505050565b6000600160ff1b821061408d5760405162461bcd60e51b81526004018080602001828103825260288152602001806157eb6028913960400191505060405180910390fd5b5090565b60008282018183128015906140a65750838112155b806140bb57506000831280156140bb57508381125b613b765760405162461bcd60e51b815260040180806020018281038252602181526020018061570b6021913960400191505060405180910390fd5b60008161414a576040805162461bcd60e51b815260206004820181905260248201527f5369676e6564536166654d6174683a206469766973696f6e206279207a65726f604482015290519081900360640190fd5b8160001914801561415e5750600160ff1b83145b1561419a5760405162461bcd60e51b81526004018080602001828103825260218152602001806157806021913960400191505060405180910390fd5b60008284816141a557fe5b05949350505050565b60008082121561408d576040805162461bcd60e51b815260206004820181905260248201527f53616665436173743a2076616c7565206d75737420626520706f736974697665604482015290519081900360640190fd5b600081830381831280159061421a5750838113155b8061422f575060008312801561422f57508381135b613b765760405162461bcd60e51b81526004018080602001828103825260248152602001806158136024913960400191505060405180910390fd5b6000613b768261428285670de0b6b3a764000061512b565b906151ef565b6002545b80156112f057600154600280546000926201000090046001600160a01b03169163201041989160001986019081106142c057fe5b90600052602060002090602091828204019190069054906101000a900460ff166040518263ffffffff1660e01b8152600401808260ff16815260200191505060206040518083038186803b15801561431757600080fd5b505afa15801561432b573d6000803e3d6000fd5b505050506040513d602081101561434157600080fd5b5051600480549192506001600160a01b0383169163419ea18a918691600019870190811061436b57fe5b600091825260209091200154600554600380546001600160a01b039384169390921691600019890190811061439c57fe5b6000918252602082200154604080517fffffffff0000000000000000000000000000000000000000000000000000000060e089901b16815260048101969096526001600160a01b03948516602487015292841660448601529290921660648401525160848084019382900301818387803b15801561441957600080fd5b505af115801561442d573d6000803e3d6000fd5b5050600019909301925061428c915050565b600080600160029054906101000a90046001600160a01b03166001600160a01b0316633f2a55406040518163ffffffff1660e01b815260040160206040518083038186803b15801561449057600080fd5b505afa1580156144a4573d6000803e3d6000fd5b505050506040513d60208110156144ba57600080fd5b5051604080517fddaa26ad00000000000000000000000000000000000000000000000000000000815290519192506000916001600160a01b0384169163ddaa26ad916004808301926020929190829003018186803b15801561451b57600080fd5b505afa15801561452f573d6000803e3d6000fd5b505050506040513d602081101561454557600080fd5b50516007549091506000908210801561455d57508115155b935050505090565b604080516001600160a01b038416602482015260448082018490528251808303909101815260649091019091526020810180517bffffffffffffffffffffffffffffffffffffffffffffffffffffffff167fa9059cbb00000000000000000000000000000000000000000000000000000000179052611905908490615256565b6146ab81600560009054906101000a90046001600160a01b03166001600160a01b031663f85cb5c86040518163ffffffff1660e01b815260040160206040518083038186803b15801561463757600080fd5b505afa15801561464b573d6000803e3d6000fd5b505050506040513d602081101561466157600080fd5b5051604080516370a0823160e01b815230600482015290516001600160a01b03909216916370a0823191602480820192602092909190829003018186803b15801561329e57600080fd5b60175560055460408051631f0b96b960e31b815290516000926001600160a01b03169163f85cb5c8916004808301926020929190829003018186803b1580156146f357600080fd5b505afa158015614707573d6000803e3d6000fd5b505050506040513d602081101561471d57600080fd5b50516015549091506000906147409061473590614049565b611b64601754614049565b905060008060155460175411614757576000614766565b60155460175461476691613f4b565b90506015546017541061489e576147f781600160029054906101000a90046001600160a01b03166001600160a01b031663568c08136040518163ffffffff1660e01b815260040160206040518083038186803b1580156147c557600080fd5b505afa1580156147d9573d6000803e3d6000fd5b505050506040513d60208110156147ef57600080fd5b5051906151d7565b915061488930600160029054906101000a90046001600160a01b03166001600160a01b03166361d027b36040518163ffffffff1660e01b815260040160206040518083038186803b15801561484b57600080fd5b505afa15801561485f573d6000803e3d6000fd5b505050506040513d602081101561487557600080fd5b50516001600160a01b038716919085615307565b614897836000849003614091565b9250614a87565b60006148e16718493fba64ef00006148db6148d26013546148cc60155460175461426a90919063ffffffff16565b906151d7565b60135490613f4b565b9061538f565b600554600654604080516370a0823160e01b81526001600160a01b0392831660048201529051939450849391909216916370a08231916024808301926020929190829003018186803b15801561493657600080fd5b505afa15801561494a573d6000803e3d6000fd5b505050506040513d602081101561496057600080fd5b505110156149e757600554600654604080516370a0823160e01b81526001600160a01b039283166004820152905191909216916370a08231916024808301926020929190829003018186803b1580156149b857600080fd5b505afa1580156149cc573d6000803e3d6000fd5b505050506040513d60208110156149e257600080fd5b505190505b600554600654604080517f2befcc5c0000000000000000000000000000000000000000000000000000000081526001600160a01b0392831660048201526024810185905290519190921691632befcc5c91604480830192600092919082900301818387803b158015614a5857600080fd5b505af1158015614a6c573d6000803e3d6000fd5b50505050614a83818561409190919063ffffffff16565b9350505b600554601754614abb9130916001600160a01b0390911690614aa99086613f4b565b6001600160a01b038816929190615307565b6000600160029054906101000a90046001600160a01b03166001600160a01b0316632e0519cf6040518163ffffffff1660e01b815260040160606040518083038186803b158015614b0b57600080fd5b505afa158015614b1f573d6000803e3d6000fd5b505050506040513d6060811015614b3557600080fd5b50604001516005549091506001600160a01b031663250caaa8614b6e614b5b85856151d7565b601754614b689087613f4b565b90613b1c565b614b8c86614b86614b7f88886151d7565b8890613f4b565b90613f4b565b87306040518563ffffffff1660e01b815260040180858152602001848152602001838152602001826001600160a01b03168152602001945050505050600060405180830381600087803b158015614be257600080fd5b505af1158015614bf6573d6000803e3d6000fd5b505050506000600160029054906101000a90046001600160a01b03166001600160a01b0316633f2a55406040518163ffffffff1660e01b815260040160206040518083038186803b158015614c4a57600080fd5b505afa158015614c5e573d6000803e3d6000fd5b505050506040513d6020811015614c7457600080fd5b50519050614c8061443f565b15614ce657806001600160a01b031663f5750d0f6015546040518263ffffffff1660e01b815260040180828152602001915050600060405180830381600087803b158015614ccd57600080fd5b505af1158015614ce1573d6000803e3d6000fd5b505050505b604080517f9de9a05200000000000000000000000000000000000000000000000000000000815230600482015290516001600160a01b03831691639de9a0529160248083019260209291908290030181600087803b158015614d4757600080fd5b505af1158015614d5b573d6000803e3d6000fd5b505050506040513d6020811015614d7157600080fd5b50516bffffffffffffffffffffffff16601b5550505050505050565b6060614da36001600160a01b03851683856153ab565b905082846001600160a01b03167f2a936dbabeaea30adc1ddad138b1958497988474bef8b09a29411f0105ab8ab28484604051808060200180602001838103835285818151815260200191508051906020019080838360005b83811015614e14578181015183820152602001614dfc565b50505050905090810190601f168015614e415780820380516001836020036101000a031916815260200191505b50838103825284518152845160209182019186019080838360005b83811015614e74578181015183820152602001614e5c565b50505050905090810190601f168015614ea15780820380516001836020036101000a031916815260200191505b5094505050505060405180910390a39392505050565b6000614ec2306153d9565b15905090565b60055460408051631f0b96b960e31b8152905183926000926001600160a01b039091169163f85cb5c891600480820192602092909190829003018186803b158015614f1257600080fd5b505afa158015614f26573d6000803e3d6000fd5b505050506040513d6020811015614f3c57600080fd5b505190506000805b600254811015612b4d57600154600280546000926201000090046001600160a01b03169163201041989185908110614f7857fe5b90600052602060002090602091828204019190069054906101000a900460ff166040518263ffffffff1660e01b8152600401808260ff16815260200191505060206040518083038186803b158015614fcf57600080fd5b505afa158015614fe3573d6000803e3d6000fd5b505050506040513d6020811015614ff957600080fd5b5051600480549192506001600160a01b038316916355d9750b918791899188918890811061502357fe5b600091825260209091200154600554600380546001600160a01b0393841693909216918a90811061505057fe5b6000918252602082200154604080517fffffffff0000000000000000000000000000000000000000000000000000000060e08b901b1681526001600160a01b039889166004820152602481019790975260ff909516604487015292861660648601529085166084850152931660a48301525160c48083019360609383900390910190829087803b1580156150e357600080fd5b505af11580156150f7573d6000803e3d6000fd5b505050506040513d606081101561510d57600080fd5b50805160208201516040909201519196509450925050600101614f44565b60008261513a57506000613b79565b8282028284828161514757fe5b0414613b765760405162461bcd60e51b81526004018080602001828103825260218152602001806157ca6021913960400191505060405180910390fd5b62461bcd60e51b6000908152602060045260076024526642414223000030600a808404818106603090810160081b95839006959095019082900491820690940160101b939093010160c81b604452606490fd5b6000613b76670de0b6b3a7640000614282858561512b565b6000808211615245576040805162461bcd60e51b815260206004820152601a60248201527f536166654d6174683a206469766973696f6e206279207a65726f000000000000604482015290519081900360640190fd5b81838161524e57fe5b049392505050565b60006152ab826040518060400160405280602081526020017f5361666545524332303a206c6f772d6c6576656c2063616c6c206661696c6564815250856001600160a01b03166153df9092919063ffffffff16565b805190915015611905578080602001905160208110156152ca57600080fd5b50516119055760405162461bcd60e51b815260040180806020018281038252602a815260200180615837602a913960400191505060405180910390fd5b604080516001600160a01b0380861660248301528416604482015260648082018490528251808303909101815260849091019091526020810180517bffffffffffffffffffffffffffffffffffffffffffffffffffffffff167f23b872dd00000000000000000000000000000000000000000000000000000000179052614043908590615256565b6000670de0b6b3a76400006153a4848461512b565b8161524e57fe5b60606153d18484846040518060600160405280602981526020016157a1602991396153ea565b949350505050565b3b151590565b60606153d184846000855b60608247101561542b5760405162461bcd60e51b815260040180806020018281038252602681526020018061572c6026913960400191505060405180910390fd5b615434856153d9565b615485576040805162461bcd60e51b815260206004820152601d60248201527f416464726573733a2063616c6c20746f206e6f6e2d636f6e7472616374000000604482015290519081900360640190fd5b600080866001600160a01b031685876040518082805190602001908083835b602083106154c35780518252601f1990920191602091820191016154a4565b6001836020036101000a03801982511681845116808217855250505050505090500191505060006040518083038185875af1925050503d8060008114615525576040519150601f19603f3d011682016040523d82523d6000602084013e61552a565b606091505b509150915061553a828286615545565b979650505050505050565b60608315615554575081613e0c565b8251156155645782518084602001fd5b8160405162461bcd60e51b81526004018080602001828103825283818151815260200191508051906020019080838360005b838110156155ae578181015183820152602001615596565b50505050905090810190601f1680156155db5780820380516001836020036101000a031916815260200191505b509250505060405180910390fd5b828054828255906000526020600020908101928215615649579160200282015b8281111561564957815473ffffffffffffffffffffffffffffffffffffffff19166001600160a01b03843516178255602090920191600190910190615609565b5061408d9291506156f5565b82805482825590600052602060002090601f016020900481019282156156495791602002820160005b838211156156bf57833560ff1683826101000a81548160ff021916908360ff160217905550926020019260010160208160000104928301926001030261567e565b80156156ec5782816101000a81549060ff02191690556001016020816000010492830192600103026156bf565b505061408d9291505b5b8082111561408d57600081556001016156f656fe5369676e6564536166654d6174683a206164646974696f6e206f766572666c6f77416464726573733a20696e73756666696369656e742062616c616e636520666f722063616c6c496e697469616c697a61626c653a20636f6e747261637420697320616c726561647920696e697469616c697a65645369676e6564536166654d6174683a206469766973696f6e206f766572666c6f77416464726573733a206c6f772d6c6576656c2063616c6c20776974682076616c7565206661696c6564536166654d6174683a206d756c7469706c69636174696f6e206f766572666c6f7753616665436173743a2076616c756520646f65736e27742066697420696e20616e20696e743235365369676e6564536166654d6174683a207375627472616374696f6e206f766572666c6f775361666545524332303a204552433230206f7065726174696f6e20646964206e6f742073756363656564a26469706673582212209ed243ca50cc172723b6694b9a1d0e8280dc0a97c91bc9e2f2732cd41244bacf64736f6c63430007060033",
  "devdoc": {
    "author": "Babylon Finance Factory to create investment strategy contracts",
    "kind": "dev",
    "methods": {
      "createStrategy(string,string,address,address,uint256[])": {
        "params": {
          "_garden": "Address of the garden",
          "_name": "Name of the strategy",
          "_stratParams": "Strat Params",
          "_strategist": "Address of the strategist",
          "_symbol": "Symbol of the strategy"
        }
      }
    },
    "title": "StrategyFactory",
    "version": 1
  },
  "userdoc": {
    "kind": "user",
    "methods": {
      "createStrategy(string,string,address,address,uint256[])": {
        "notice": "Creates a new investment strategy using minimal proxies"
      }
    },
    "version": 1
  },
  "storageLayout": {
    "storage": [],
    "types": null
  }
}