{
  "address": "0xB4792F362c7006524c8532f65f1cFd632F262E76",
  "abi": [
    {
      "anonymous": false,
      "inputs": [
        {
          "indexed": true,
          "internalType": "address",
          "name": "_target",
          "type": "address"
        },
        {
          "indexed": true,
          "internalType": "uint256",
          "name": "_value",
          "type": "uint256"
        },
        {
          "indexed": false,
          "internalType": "bytes",
          "name": "_data",
          "type": "bytes"
        },
        {
          "indexed": false,
          "internalType": "bytes",
          "name": "_returnValue",
          "type": "bytes"
        }
      ],
      "name": "Invoked",
      "type": "event"
    },
    {
      "anonymous": false,
      "inputs": [
        {
          "indexed": true,
          "internalType": "address",
          "name": "_garden",
          "type": "address"
        },
        {
          "indexed": false,
          "internalType": "uint256",
          "name": "_timestamp",
          "type": "uint256"
        }
      ],
      "name": "StrategyDeleted",
      "type": "event"
    },
    {
      "anonymous": false,
      "inputs": [
        {
          "indexed": false,
          "internalType": "uint256",
          "name": "_newDuration",
          "type": "uint256"
        },
        {
          "indexed": false,
          "internalType": "uint256",
          "name": "_oldDuration",
          "type": "uint256"
        }
      ],
      "name": "StrategyDurationChanged",
      "type": "event"
    },
    {
      "anonymous": false,
      "inputs": [
        {
          "indexed": true,
          "internalType": "address",
          "name": "_garden",
          "type": "address"
        },
        {
          "indexed": false,
          "internalType": "uint256",
          "name": "_capital",
          "type": "uint256"
        },
        {
          "indexed": false,
          "internalType": "uint256",
          "name": "_fee",
          "type": "uint256"
        },
        {
          "indexed": false,
          "internalType": "uint256",
          "name": "timestamp",
          "type": "uint256"
        }
      ],
      "name": "StrategyExecuted",
      "type": "event"
    },
    {
      "anonymous": false,
      "inputs": [
        {
          "indexed": true,
          "internalType": "address",
          "name": "_garden",
          "type": "address"
        },
        {
          "indexed": false,
          "internalType": "uint256",
          "name": "_timestamp",
          "type": "uint256"
        }
      ],
      "name": "StrategyExpired",
      "type": "event"
    },
    {
      "anonymous": false,
      "inputs": [
        {
          "indexed": true,
          "internalType": "address",
          "name": "_garden",
          "type": "address"
        },
        {
          "indexed": false,
          "internalType": "uint256",
          "name": "_capitalReturned",
          "type": "uint256"
        },
        {
          "indexed": false,
          "internalType": "uint256",
          "name": "_fee",
          "type": "uint256"
        },
        {
          "indexed": false,
          "internalType": "uint256",
          "name": "timestamp",
          "type": "uint256"
        }
      ],
      "name": "StrategyFinalized",
      "type": "event"
    },
    {
      "anonymous": false,
      "inputs": [
        {
          "indexed": true,
          "internalType": "address",
          "name": "_garden",
          "type": "address"
        },
        {
          "indexed": false,
          "internalType": "uint256",
          "name": "_amountReduced",
          "type": "uint256"
        },
        {
          "indexed": false,
          "internalType": "uint256",
          "name": "timestamp",
          "type": "uint256"
        }
      ],
      "name": "StrategyReduced",
      "type": "event"
    },
    {
      "anonymous": false,
      "inputs": [
        {
          "indexed": true,
          "internalType": "address",
          "name": "_garden",
          "type": "address"
        },
        {
          "indexed": false,
          "internalType": "uint256",
          "name": "totalPositiveVotes",
          "type": "uint256"
        },
        {
          "indexed": false,
          "internalType": "uint256",
          "name": "totalNegativeVotes",
          "type": "uint256"
        },
        {
          "indexed": false,
          "internalType": "uint256",
          "name": "_timestamp",
          "type": "uint256"
        }
      ],
      "name": "StrategyVoted",
      "type": "event"
    },
    {
      "inputs": [],
      "name": "capitalAllocated",
      "outputs": [
        {
          "internalType": "uint256",
          "name": "",
          "type": "uint256"
        }
      ],
      "stateMutability": "view",
      "type": "function"
    },
    {
      "inputs": [],
      "name": "capitalReturned",
      "outputs": [
        {
          "internalType": "uint256",
          "name": "",
          "type": "uint256"
        }
      ],
      "stateMutability": "view",
      "type": "function"
    },
    {
      "inputs": [],
      "name": "deleteCandidateStrategy",
      "outputs": [],
      "stateMutability": "nonpayable",
      "type": "function"
    },
    {
      "inputs": [],
      "name": "duration",
      "outputs": [
        {
          "internalType": "uint256",
          "name": "",
          "type": "uint256"
        }
      ],
      "stateMutability": "view",
      "type": "function"
    },
    {
      "inputs": [],
      "name": "enteredAt",
      "outputs": [
        {
          "internalType": "uint256",
          "name": "",
          "type": "uint256"
        }
      ],
      "stateMutability": "view",
      "type": "function"
    },
    {
      "inputs": [],
      "name": "enteredCooldownAt",
      "outputs": [
        {
          "internalType": "uint256",
          "name": "",
          "type": "uint256"
        }
      ],
      "stateMutability": "view",
      "type": "function"
    },
    {
      "inputs": [
        {
          "internalType": "uint256",
          "name": "_capital",
          "type": "uint256"
        },
        {
          "internalType": "uint256",
          "name": "_fee",
          "type": "uint256"
        }
      ],
      "name": "executeStrategy",
      "outputs": [],
      "stateMutability": "nonpayable",
      "type": "function"
    },
    {
      "inputs": [],
      "name": "expectedReturn",
      "outputs": [
        {
          "internalType": "uint256",
          "name": "",
          "type": "uint256"
        }
      ],
      "stateMutability": "view",
      "type": "function"
    },
    {
      "inputs": [
        {
          "internalType": "uint256",
          "name": "_fee",
          "type": "uint256"
        }
      ],
      "name": "expireStrategy",
      "outputs": [],
      "stateMutability": "nonpayable",
      "type": "function"
    },
    {
      "inputs": [
        {
          "internalType": "uint256",
          "name": "_fee",
          "type": "uint256"
        },
        {
          "internalType": "string",
          "name": "_tokenURI",
          "type": "string"
        },
        {
          "internalType": "uint256",
          "name": "_minReserveOut",
          "type": "uint256"
        }
      ],
      "name": "finalizeStrategy",
      "outputs": [],
      "stateMutability": "nonpayable",
      "type": "function"
    },
    {
      "inputs": [],
      "name": "garden",
      "outputs": [
        {
          "internalType": "contract IGarden",
          "name": "",
          "type": "address"
        }
      ],
      "stateMutability": "view",
      "type": "function"
    },
    {
      "inputs": [],
      "name": "getNAV",
      "outputs": [
        {
          "internalType": "uint256",
          "name": "",
          "type": "uint256"
        }
      ],
      "stateMutability": "view",
      "type": "function"
    },
    {
      "inputs": [
        {
          "internalType": "uint8",
          "name": "_index",
          "type": "uint8"
        }
      ],
      "name": "getOperationByIndex",
      "outputs": [
        {
          "internalType": "uint8",
          "name": "",
          "type": "uint8"
        },
        {
          "internalType": "address",
          "name": "",
          "type": "address"
        },
        {
          "internalType": "bytes",
          "name": "",
          "type": "bytes"
        }
      ],
      "stateMutability": "view",
      "type": "function"
    },
    {
      "inputs": [],
      "name": "getOperationsCount",
      "outputs": [
        {
          "internalType": "uint256",
          "name": "",
          "type": "uint256"
        }
      ],
      "stateMutability": "view",
      "type": "function"
    },
    {
      "inputs": [],
      "name": "getStrategyDetails",
      "outputs": [
        {
          "internalType": "address",
          "name": "",
          "type": "address"
        },
        {
          "internalType": "address",
          "name": "",
          "type": "address"
        },
        {
          "internalType": "uint256",
          "name": "",
          "type": "uint256"
        },
        {
          "internalType": "uint256",
          "name": "",
          "type": "uint256"
        },
        {
          "internalType": "uint256",
          "name": "",
          "type": "uint256"
        },
        {
          "internalType": "uint256",
          "name": "",
          "type": "uint256"
        },
        {
          "internalType": "uint256",
          "name": "",
          "type": "uint256"
        },
        {
          "internalType": "uint256",
          "name": "",
          "type": "uint256"
        },
        {
          "internalType": "uint256",
          "name": "",
          "type": "uint256"
        },
        {
          "internalType": "uint256",
          "name": "",
          "type": "uint256"
        },
        {
          "internalType": "uint256",
          "name": "",
          "type": "uint256"
        },
        {
          "internalType": "address",
          "name": "",
          "type": "address"
        },
        {
          "internalType": "uint256",
          "name": "",
          "type": "uint256"
        },
        {
          "internalType": "uint256",
          "name": "",
          "type": "uint256"
        }
      ],
      "stateMutability": "view",
      "type": "function"
    },
    {
      "inputs": [],
      "name": "getStrategyRewardsContext",
      "outputs": [
        {
          "internalType": "address",
          "name": "",
          "type": "address"
        },
        {
          "internalType": "uint256[]",
          "name": "",
          "type": "uint256[]"
        },
        {
          "internalType": "bool[]",
          "name": "",
          "type": "bool[]"
        }
      ],
      "stateMutability": "view",
      "type": "function"
    },
    {
      "inputs": [],
      "name": "getStrategyState",
      "outputs": [
        {
          "internalType": "address",
          "name": "",
          "type": "address"
        },
        {
          "internalType": "bool",
          "name": "",
          "type": "bool"
        },
        {
          "internalType": "bool",
          "name": "",
          "type": "bool"
        },
        {
          "internalType": "bool",
          "name": "",
          "type": "bool"
        },
        {
          "internalType": "uint256",
          "name": "",
          "type": "uint256"
        },
        {
          "internalType": "uint256",
          "name": "",
          "type": "uint256"
        },
        {
          "internalType": "uint256",
          "name": "",
          "type": "uint256"
        }
      ],
      "stateMutability": "view",
      "type": "function"
    },
    {
      "inputs": [
        {
          "internalType": "address",
          "name": "_address",
          "type": "address"
        }
      ],
      "name": "getUserVotes",
      "outputs": [
        {
          "internalType": "int256",
          "name": "",
          "type": "int256"
        }
      ],
      "stateMutability": "view",
      "type": "function"
    },
    {
      "inputs": [
        {
          "internalType": "bool",
          "name": "_isDeposit",
          "type": "bool"
        },
        {
          "internalType": "uint256",
          "name": "_wethAmount",
          "type": "uint256"
        }
      ],
      "name": "handleWeth",
      "outputs": [],
      "stateMutability": "nonpayable",
      "type": "function"
    },
    {
      "inputs": [
        {
          "internalType": "address",
          "name": "_strategist",
          "type": "address"
        },
        {
          "internalType": "address",
          "name": "_garden",
          "type": "address"
        },
        {
          "internalType": "address",
          "name": "_controller",
          "type": "address"
        },
        {
          "internalType": "uint256",
          "name": "_maxCapitalRequested",
          "type": "uint256"
        },
        {
          "internalType": "uint256",
          "name": "_stake",
          "type": "uint256"
        },
        {
          "internalType": "uint256",
          "name": "_strategyDuration",
          "type": "uint256"
        },
        {
          "internalType": "uint256",
          "name": "_expectedReturn",
          "type": "uint256"
        },
        {
          "internalType": "uint256",
          "name": "_maxAllocationPercentage",
          "type": "uint256"
        },
        {
          "internalType": "uint256",
          "name": "_maxGasFeePercentage",
          "type": "uint256"
        },
        {
          "internalType": "uint256",
          "name": "_maxTradeSlippagePercentage",
          "type": "uint256"
        }
      ],
      "name": "initialize",
      "outputs": [],
      "stateMutability": "nonpayable",
      "type": "function"
    },
    {
      "inputs": [
        {
          "internalType": "address",
          "name": "_spender",
          "type": "address"
        },
        {
          "internalType": "address",
          "name": "_asset",
          "type": "address"
        },
        {
          "internalType": "uint256",
          "name": "_quantity",
          "type": "uint256"
        }
      ],
      "name": "invokeApprove",
      "outputs": [],
      "stateMutability": "nonpayable",
      "type": "function"
    },
    {
      "inputs": [
        {
          "internalType": "address",
          "name": "_target",
          "type": "address"
        },
        {
          "internalType": "uint256",
          "name": "_value",
          "type": "uint256"
        },
        {
          "internalType": "bytes",
          "name": "_data",
          "type": "bytes"
        }
      ],
      "name": "invokeFromIntegration",
      "outputs": [
        {
          "internalType": "bytes",
          "name": "",
          "type": "bytes"
        }
      ],
      "stateMutability": "nonpayable",
      "type": "function"
    },
    {
      "inputs": [],
      "name": "isStrategyActive",
      "outputs": [
        {
          "internalType": "bool",
          "name": "",
          "type": "bool"
        }
      ],
      "stateMutability": "view",
      "type": "function"
    },
    {
      "inputs": [],
      "name": "maxAllocationPercentage",
      "outputs": [
        {
          "internalType": "uint256",
          "name": "",
          "type": "uint256"
        }
      ],
      "stateMutability": "view",
      "type": "function"
    },
    {
      "inputs": [],
      "name": "maxCapitalRequested",
      "outputs": [
        {
          "internalType": "uint256",
          "name": "",
          "type": "uint256"
        }
      ],
      "stateMutability": "view",
      "type": "function"
    },
    {
      "inputs": [],
      "name": "maxGasFeePercentage",
      "outputs": [
        {
          "internalType": "uint256",
          "name": "",
          "type": "uint256"
        }
      ],
      "stateMutability": "view",
      "type": "function"
    },
    {
      "inputs": [],
      "name": "maxTradeSlippagePercentage",
      "outputs": [
        {
          "internalType": "uint256",
          "name": "",
          "type": "uint256"
        }
      ],
      "stateMutability": "view",
      "type": "function"
    },
    {
      "inputs": [],
      "name": "opEncodedData",
      "outputs": [
        {
          "internalType": "bytes",
          "name": "",
          "type": "bytes"
        }
      ],
      "stateMutability": "view",
      "type": "function"
    },
    {
      "inputs": [
        {
          "internalType": "address[]",
          "name": "_voters",
          "type": "address[]"
        },
        {
          "internalType": "int256[]",
          "name": "_votes",
          "type": "int256[]"
        },
        {
          "internalType": "uint256",
          "name": "_fee",
          "type": "uint256"
        }
      ],
      "name": "resolveVoting",
      "outputs": [],
      "stateMutability": "nonpayable",
      "type": "function"
    },
    {
      "inputs": [
        {
          "internalType": "uint8[]",
          "name": "_opTypes",
          "type": "uint8[]"
        },
        {
          "internalType": "address[]",
          "name": "_opIntegrations",
          "type": "address[]"
        },
        {
          "internalType": "bytes",
          "name": "_opEncodedData",
          "type": "bytes"
        }
      ],
      "name": "setData",
      "outputs": [],
      "stateMutability": "nonpayable",
      "type": "function"
    },
    {
      "inputs": [],
      "name": "stake",
      "outputs": [
        {
          "internalType": "uint256",
          "name": "",
          "type": "uint256"
        }
      ],
      "stateMutability": "view",
      "type": "function"
    },
    {
      "inputs": [],
      "name": "strategist",
      "outputs": [
        {
          "internalType": "address",
          "name": "",
          "type": "address"
        }
      ],
      "stateMutability": "view",
      "type": "function"
    },
    {
      "inputs": [],
      "name": "strategyRewards",
      "outputs": [
        {
          "internalType": "uint256",
          "name": "",
          "type": "uint256"
        }
      ],
      "stateMutability": "view",
      "type": "function"
    },
    {
      "inputs": [
        {
          "internalType": "address",
          "name": "_token",
          "type": "address"
        },
        {
          "internalType": "uint256",
          "name": "_newSlippage",
          "type": "uint256"
        }
      ],
      "name": "sweep",
      "outputs": [],
      "stateMutability": "nonpayable",
      "type": "function"
    },
    {
      "inputs": [],
      "name": "totalNegativeVotes",
      "outputs": [
        {
          "internalType": "uint256",
          "name": "",
          "type": "uint256"
        }
      ],
      "stateMutability": "view",
      "type": "function"
    },
    {
      "inputs": [],
      "name": "totalPositiveVotes",
      "outputs": [
        {
          "internalType": "uint256",
          "name": "",
          "type": "uint256"
        }
      ],
      "stateMutability": "view",
      "type": "function"
    },
    {
      "inputs": [
        {
          "internalType": "address",
          "name": "_sendToken",
          "type": "address"
        },
        {
          "internalType": "uint256",
          "name": "_sendQuantity",
          "type": "uint256"
        },
        {
          "internalType": "address",
          "name": "_receiveToken",
          "type": "address"
        }
      ],
      "name": "trade",
      "outputs": [
        {
          "internalType": "uint256",
          "name": "",
          "type": "uint256"
        }
      ],
      "stateMutability": "nonpayable",
      "type": "function"
    },
    {
      "inputs": [
        {
          "internalType": "address",
          "name": "_sendToken",
          "type": "address"
        },
        {
          "internalType": "uint256",
          "name": "_sendQuantity",
          "type": "uint256"
        },
        {
          "internalType": "address",
          "name": "_receiveToken",
          "type": "address"
        },
        {
          "internalType": "uint256",
          "name": "_overrideSlippage",
          "type": "uint256"
        }
      ],
      "name": "trade",
      "outputs": [
        {
          "internalType": "uint256",
          "name": "",
          "type": "uint256"
        }
      ],
      "stateMutability": "nonpayable",
      "type": "function"
    },
    {
      "inputs": [
        {
          "internalType": "uint256",
          "name": "_amountToUnwind",
          "type": "uint256"
        },
        {
          "internalType": "uint256",
          "name": "_strategyNAV",
          "type": "uint256"
        }
      ],
      "name": "unwindStrategy",
      "outputs": [],
      "stateMutability": "nonpayable",
      "type": "function"
    },
    {
      "inputs": [
        {
          "internalType": "uint256[5]",
          "name": "_params",
          "type": "uint256[5]"
        }
      ],
      "name": "updateParams",
      "outputs": [],
      "stateMutability": "nonpayable",
      "type": "function"
    },
    {
      "inputs": [
        {
          "internalType": "uint256",
          "name": "_newTotalRewards",
          "type": "uint256"
        },
        {
          "internalType": "uint256",
          "name": "_newCapitalReturned",
          "type": "uint256"
        }
      ],
      "name": "updateStrategyRewards",
      "outputs": [],
      "stateMutability": "nonpayable",
      "type": "function"
    },
    {
      "inputs": [
        {
          "internalType": "uint256",
          "name": "",
          "type": "uint256"
        }
      ],
      "name": "voters",
      "outputs": [
        {
          "internalType": "address",
          "name": "",
          "type": "address"
        }
      ],
      "stateMutability": "view",
      "type": "function"
    },
    {
      "stateMutability": "payable",
      "type": "receive"
    }
  ],
  "transactionHash": "0x674d022193b2750a9e98de4df1393af7f788ed9d2fb7a3797a65a3b08be8b2bb",
  "args": [],
  "numDeployments": 1,
  "solcInputHash": "f994d62c7f3ee89472856e43ae030736",
  "bytecode": "0x608060405234801561001057600080fd5b506001600055615deb80620000266000396000f3fe6080604052600436106102d55760003560e01c80636db9cc9911610179578063bf3fdf0d116100d6578063dd1033f81161008a578063f101e82b11610064578063f101e82b14610d23578063fa9bacac14610d53578063ffb5cd0914610d83576102dc565b8063dd1033f814610b8e578063e4df5e1a14610ba3578063ecbc2cda14610bcc576102dc565b8063d40244cb116100bb578063d40244cb14610adf578063d45fc1a914610af4578063da58c7d914610b64576102dc565b8063bf3fdf0d14610ab5578063d3406abd14610aca576102dc565b8063950c78221161012d578063a30ca20411610112578063a30ca20414610a02578063bb39a96014610a17578063bf1dcfe214610a5e576102dc565b8063950c78221461098c57806397ccdc60146109bf576102dc565b80636ea056a91161015e5780636ea056a914610929578063707cddfe1461096257806393baae4114610977576102dc565b80636db9cc99146108eb5780636e1bb24314610900576102dc565b8063397dc9031161023257806356ba88b8116101e65780635b746af5116101c05780635b746af51461079f5780636bc195dd146107cf5780636db40dc2146108d6576102dc565b806356ba88b8146106b9578063577b6ab8146106ce5780635abdde4c146106e3576102dc565b8063449b982611610217578063449b9826146105d057806348a4beaa146105e55780634b2e52f0146106a4576102dc565b8063397dc903146105a65780633a4b66f1146105bb576102dc565b80631115bdcf116102895780631fe4a6861161026e5780631fe4a686146103e8578063290d2e91146104195780632aba2af4146104e8576102dc565b80631115bdcf1461038a5780631a5cfcb7146103b6576102dc565b806303cddb2c116102ba57806303cddb2c1461031d5780630e32db52146103325780630fb5a6b414610375576102dc565b80630126c606146102e157806303976e3814610308576102dc565b366102dc57005b600080fd5b3480156102ed57600080fd5b506102f6610e24565b60408051918252519081900360200190f35b34801561031457600080fd5b506102f66111fc565b34801561032957600080fd5b506102f6611202565b34801561033e57600080fd5b506102f66004803603606081101561035557600080fd5b506001600160a01b03813581169160208101359160409091013516611208565b34801561038157600080fd5b506102f6611231565b34801561039657600080fd5b506103b4600480360360208110156103ad57600080fd5b5035611237565b005b3480156103c257600080fd5b506103b4600480360360408110156103d957600080fd5b5080351515906020013561139c565b3480156103f457600080fd5b506103fd6113b2565b604080516001600160a01b039092168252519081900360200190f35b34801561042557600080fd5b506103b46004803603606081101561043c57600080fd5b81019060208101813564010000000081111561045757600080fd5b82018360208201111561046957600080fd5b8035906020019184602083028401116401000000008311171561048b57600080fd5b9193909290916020810190356401000000008111156104a957600080fd5b8201836020820111156104bb57600080fd5b803590602001918460208302840111640100000000831117156104dd57600080fd5b9193509150356113c1565b3480156104f457600080fd5b506104fd6116ac565b60405180846001600160a01b031681526020018060200180602001838103835285818151815260200191508051906020019060200280838360005b83811015610550578181015183820152602001610538565b50505050905001838103825284818151815260200191508051906020019060200280838360005b8381101561058f578181015183820152602001610577565b505050509050019550505050505060405180910390f35b3480156105b257600080fd5b506102f6611a8c565b3480156105c757600080fd5b506102f6611a92565b3480156105dc57600080fd5b506102f6611a98565b3480156105f157600080fd5b506106126004803603602081101561060857600080fd5b503560ff16611a9e565b604051808460ff168152602001836001600160a01b0316815260200180602001828103825283818151815260200191508051906020019080838360005b8381101561066757818101518382015260200161064f565b50505050905090810190601f1680156106945780820380516001836020036101000a031916815260200191505b5094505050505060405180910390f35b3480156106b057600080fd5b506102f6611b23565b3480156106c557600080fd5b506103fd611b29565b3480156106da57600080fd5b506103b4611b38565b3480156106ef57600080fd5b506103b46004803603606081101561070657600080fd5b8135919081019060408101602082013564010000000081111561072857600080fd5b82018360208201111561073a57600080fd5b8035906020019184600183028401116401000000008311171561075c57600080fd5b91908080601f0160208091040260200160405190810160405280939291908181526020018383808284376000920191909152509295505091359250611b8c915050565b3480156107ab57600080fd5b506103b4600480360360408110156107c257600080fd5b50803590602001356120b9565b3480156107db57600080fd5b50610861600480360360608110156107f257600080fd5b6001600160a01b038235169160208101359181019060608101604082013564010000000081111561082257600080fd5b82018360208201111561083457600080fd5b8035906020019184600183028401116401000000008311171561085657600080fd5b5090925090506120dd565b6040805160208082528351818301528351919283929083019185019080838360005b8381101561089b578181015183820152602001610883565b50505050905090810190601f1680156108c85780820380516001836020036101000a031916815260200191505b509250505060405180910390f35b3480156108e257600080fd5b506102f661213a565b3480156108f757600080fd5b506102f6612140565b34801561090c57600080fd5b506103b4600480360360a081101561092357600080fd5b50612146565b34801561093557600080fd5b506103b46004803603604081101561094c57600080fd5b506001600160a01b0381351690602001356121e8565b34801561096e57600080fd5b506102f6612374565b34801561098357600080fd5b506102f661237a565b34801561099857600080fd5b506102f6600480360360208110156109af57600080fd5b50356001600160a01b0316612380565b3480156109cb57600080fd5b506103b4600480360360608110156109e257600080fd5b506001600160a01b0381358116916020810135909116906040013561239b565b348015610a0e57600080fd5b506102f66124aa565b348015610a2357600080fd5b506102f660048036036080811015610a3a57600080fd5b506001600160a01b03813581169160208101359160408201351690606001356124b0565b348015610a6a57600080fd5b50610a736124ce565b604080516001600160a01b0390981688529515156020880152931515868601529115156060860152608085015260a084015260c0830152519081900360e00190f35b348015610ac157600080fd5b506108616124f8565b348015610ad657600080fd5b506102f6612586565b348015610aeb57600080fd5b506102f661258c565b348015610b0057600080fd5b506103b46004803603610140811015610b1857600080fd5b506001600160a01b03813581169160208101358216916040820135169060608101359060808101359060a08101359060c08101359060e081013590610100810135906101200135612592565b348015610b7057600080fd5b506103fd60048036036020811015610b8757600080fd5b50356128c1565b348015610b9a57600080fd5b506102f66128eb565b348015610baf57600080fd5b50610bb86128f1565b604080519115158252519081900360200190f35b348015610bd857600080fd5b506103b460048036036060811015610bef57600080fd5b810190602081018135640100000000811115610c0a57600080fd5b820183602082011115610c1c57600080fd5b80359060200191846020830284011164010000000083111715610c3e57600080fd5b919390929091602081019035640100000000811115610c5c57600080fd5b820183602082011115610c6e57600080fd5b80359060200191846020830284011164010000000083111715610c9057600080fd5b919390929091602081019035640100000000811115610cae57600080fd5b820183602082011115610cc057600080fd5b80359060200191846001830284011164010000000083111715610ce257600080fd5b91908080601f016020809104026020016040519081016040528093929190818152602001838380828437600092019190915250929550612909945050505050565b348015610d2f57600080fd5b506103b460048036036040811015610d4657600080fd5b5080359060200135612bfd565b348015610d5f57600080fd5b506103b460048036036040811015610d7657600080fd5b5080359060200135612c8c565b348015610d8f57600080fd5b50610d98613078565b604051808f6001600160a01b031681526020018e6001600160a01b031681526020018d81526020018c81526020018b81526020018a8152602001898152602001888152602001878152602001868152602001858152602001846001600160a01b031681526020018381526020018281526020019e50505050505050505050505050505060405180910390f35b60008060008060028054905067ffffffffffffffff81118015610e4657600080fd5b50604051908082528060200260200182016040528015610e70578160200160208202803683370190505b50905060005b6002548110156111d457600060028281548110610e8f57fe5b600091825260208083208183040154600154604080517f20104198000000000000000000000000000000000000000000000000000000008152601f9095166101000a90920460ff166004850181905291519195506201000090046001600160a01b0316926320104198926024808301939192829003018186803b158015610f1557600080fd5b505afa158015610f29573d6000803e3d6000fd5b505050506040513d6020811015610f3f57600080fd5b505190506000610f4e84613173565b9050600060038581548110610f5f57fe5b9060005260206000200160009054906101000a90046001600160a01b031690506000848383604051602001808460ff1660f81b815260010183805190602001908083835b60208310610fc25780518252601f199092019160209182019101610fa3565b6001836020036101000a038019825116818451168082178552505050505050905001826001600160a01b031660601b8152601401935050505060405160208183030381529060405280519060200120905060038560ff161480611028575060048560ff16145b15611075576000805b87811015611061578289828151811061104657fe5b6020026020010151141561105957600191505b600101611031565b508015611073575050505050506111cc565b505b6005546040517fa24258ad0000000000000000000000000000000000000000000000000000000081526001600160a01b039182166024820181905284831660448301526060600483019081528651606484015286519388169363a24258ad93889392889290918291608490910190602087019080838360005b838110156111065781810151838201526020016110ee565b50505050905090810190601f1680156111335780820380516001836020036101000a031916815260200191505b50945050505050604080518083038186803b15801561115157600080fd5b505afa92505050801561117d57506040513d604081101561117157600080fd5b50805160209091015160015b611186576111c6565b801561119d576111968b83613269565b9a506111aa565b6111a78a83613269565b99505b828989815181106111b757fe5b60200260200101818152505050505b50505050505b600101610e76565b50828211156111e957600093505050506111f9565b6111f38383613279565b93505050505b90565b60155481565b60135481565b6000611212613289565b61121a61337d565b61122784848460006134aa565b90505b9392505050565b60105481565b6002600054141561128f576040805162461bcd60e51b815260206004820152601f60248201527f5265656e7472616e637947756172643a207265656e7472616e742063616c6c00604482015290519081900360640190fd5b600260005561129c61337d565b6112a461363d565b600f546112bb90610100900460ff161560346136d7565b6112df62093a806112d76007544261327990919063ffffffff16565b1160376136d7565b60055460408051634d5b1ba160e11b81523360048201526024810184905290516001600160a01b0390921691639ab637429160448082019260009290919082900301818387803b15801561133257600080fd5b505af1158015611346573d6000803e3d6000fd5b505050506113526136e5565b6005546040805142815290516001600160a01b03909216917f7a7d4c833d273b66e431c5f268c42ee3e788541592e07c77f232cd28c89913169181900360200190a2506001600055565b6113a4613289565b6113ae8282613783565b5050565b6006546001600160a01b031681565b6113c961337d565b6113d161363d565b600554604080517f5a16656a0000000000000000000000000000000000000000000000000000000081529051611466926001600160a01b031691635a16656a916004808301926020929190829003018186803b15801561143057600080fd5b505afa158015611444573d6000803e3d6000fd5b505050506040513d602081101561145a57600080fd5b505185101560406136d7565b600f5461148c90610100900460ff161580156114855750600f5460ff16155b602a6136d7565b6114b162093a806114a86007544261327990919063ffffffff16565b1115602b6136d7565b6114be84831460686136d7565b600f805461ff0019166101001790556000600d819055600e8190555b848110156115aa578383828181106114ee57fe5b90506020020135601b600088888581811061150557fe5b905060200201356001600160a01b03166001600160a01b03166001600160a01b0316815260200190815260200160002081905550600084848381811061154757fe5b9050602002013513156115835761157b61157285858481811061156657fe5b90506020020135613874565b600d5490613269565b600d556115a2565b61159e61159585858481811061156657fe5b600e5490613269565b600e555b6001016114da565b506115cf60006115c7600e54600d5461327990919063ffffffff16565b1160576136d7565b6115db600c8686615b14565b50426008819055600554600d54600e546040805192835260208301919091528181019390935291516001600160a01b03909116917f3e6879a258dfdc657938a76339643c34f8d9a80aa5673c95726c61bc57ee0573919081900360600190a260055460408051634d5b1ba160e11b81523360048201526024810184905290516001600160a01b0390921691639ab637429160448082019260009290919082900301818387803b15801561168d57600080fd5b505af11580156116a1573d6000803e3d6000fd5b505050505050505050565b60408051600f80825261020082019092526000916060918291849190602082016101e0803683375050604080516002808252606082018352939450600093909250906020830190803683370190505090506009548260008151811061170d57fe5b602002602001018181525050600b548260018151811061172957fe5b602002602001018181525050600a548260028151811061174557fe5b6020026020010181815250506007548260038151811061176157fe5b602002602001018181525050600d548260048151811061177d57fe5b602002602001018181525050600e548260058151811061179957fe5b602002602001018181525050601354826006815181106117b557fe5b602002602001018181525050601554826007815181106117d157fe5b6020026020010181815250506118006117f760145460135461388b90919063ffffffff16565b60135490613269565b8260088151811061180d57fe5b6020026020010181815250506019548260098151811061182957fe5b60200260200101818152505060135460155410158160008151811061184a57fe5b6020026020010190151590811515815250508160088151811061186957fe5b602002602001015160155410158160018151811061188357fe5b602002602001019015159081151581525050806000815181106118a257fe5b60200260200101516118b55760006118c4565b6013546015546118c491613279565b82600a815181106118d157fe5b602002602001018181525050806001815181106118ea57fe5b60200260200101516119245761191f6015548360088151811061190957fe5b602002602001015161327990919063ffffffff16565b61194d565b61194d8260088151811061193457fe5b602002602001015160155461327990919063ffffffff16565b82600b8151811061195a57fe5b60200260200101818152505060165482600c8151811061197657fe5b602002602001018181525050601a5482600d8151811061199257fe5b60200260200101818152505060006009541180156119b05750600b54155b15611a5a5760006119ce60105460095461326990919063ffffffff16565b905060004282116119e757670de0b6b3a7640000611a11565b601054611a1190611a02906119fc8542613279565b906138a9565b670de0b6b3a764000090613279565b9050611a3a67058d15e176280000611a348360205461388b90919063ffffffff16565b9061388b565b84600e81518110611a4757fe5b6020026020010181815250505050611a76565b600082600e81518110611a6957fe5b6020026020010181815250505b6006546001600160a01b03169591945092509050565b601f5481565b60115481565b600e5481565b6000806060611ab560025460ff86161060186136d7565b60028460ff1681548110611ac557fe5b90600052602060002090602091828204019190069054906101000a900460ff1660038560ff1681548110611af557fe5b6000918252602090912001546001600160a01b0316611b1660ff8716613173565b9250925092509193909250565b60205481565b6005546001600160a01b031681565b611b406138c1565b611b486136e5565b6005546040805142815290516001600160a01b03909216917f4dcd504f23c1c204f965486c526a1e35cfb215bb4823dd1be0a172277bb1b3459181900360200190a2565b60026000541415611be4576040805162461bcd60e51b815260206004820152601f60248201527f5265656e7472616e637947756172643a207265656e7472616e742063616c6c00604482015290519081900360640190fd5b6002600055611bf161337d565b611bf961363d565b611c226000600954118015611c1b5750601054600954611c1891613269565b42115b60316136d7565b600f54611c349060ff161560326136d7565b60055460408051631f0b96b960e31b815290516000926001600160a01b03169163f85cb5c8916004808301926020929190829003018186803b158015611c7957600080fd5b505afa158015611c8d573d6000803e3d6000fd5b505050506040513d6020811015611ca357600080fd5b5051604080516370a0823160e01b815230600482015290516001600160a01b03909216916370a0823191602480820192602092909190829003018186803b158015611ced57600080fd5b505afa158015611d01573d6000803e3d6000fd5b505050506040513d6020811015611d1757600080fd5b50519050611d2c670de0b6b3a7640000613966565b611e2481600560009054906101000a90046001600160a01b03166001600160a01b031663f85cb5c86040518163ffffffff1660e01b815260040160206040518083038186803b158015611d7e57600080fd5b505afa158015611d92573d6000803e3d6000fd5b505050506040513d6020811015611da857600080fd5b5051604080516370a0823160e01b815230600482015290516001600160a01b03909216916370a0823191602480820192602092909190829003018186803b158015611df257600080fd5b505afa158015611e06573d6000803e3d6000fd5b505050506040513d6020811015611e1c57600080fd5b505190613279565b601555600f8054600160ff19909116811761ff00191690915542600b5554604080517fd6a45aa50000000000000000000000000000000000000000000000000000000081529051620100009092046001600160a01b03169163d6a45aa591600481810192602092909190829003018186803b158015611ea257600080fd5b505afa158015611eb6573d6000803e3d6000fd5b505050506040513d6020811015611ecc57600080fd5b5051600654604080517f3b5bb1d50000000000000000000000000000000000000000000000000000000081526001600160a01b0392831660048201818152602483019384528851604484015288519490951694633b5bb1d594919389939192909160640190602085019080838360005b83811015611f54578181015183820152602001611f3c565b50505050905090810190601f168015611f815780820380516001836020036101000a031916815260200191505b509350505050602060405180830381600087803b158015611fa157600080fd5b505af1158015611fb5573d6000803e3d6000fd5b505050506040513d6020811015611fcb57600080fd5b505060055460408051634d5b1ba160e11b81523360048201526024810187905290516001600160a01b0390921691639ab637429160448082019260009290919082900301818387803b15801561202057600080fd5b505af1158015612034573d6000803e3d6000fd5b50505050612048826015541015606c6136d7565b612050613dd3565b6120586143de565b600b54600a5560055460155460408051918252602082018790524282820152516001600160a01b03909216917f2d21f7a1772dd51a6d96bd1cb40623cb13b73fd3d037618d9688707ce1b5b9569181900360600190a2505060016000555050565b6005546120d2906001600160a01b0316331460496136d7565b601991909155601555565b60606120e833614427565b6120f061337d565b612131858585858080601f0160208091040260200160405190810160405280939291908181526020018383808284376000920191909152506145d092505050565b95945050505050565b60195481565b60075481565b61214e6138c1565b61215661337d565b601054612168908235111560326136d7565b612172813561473b565b61217f602082013561485a565b61218c6040820135614875565b6121996060820135614890565b6121a660808201356148ab565b6010546040805183358152602081019290925280517f42fb010605de46a36c4814784d207e3b8a1ce9f6773eaea652c07d2a07e95e579281900390910190a150565b60026000541415612240576040805162461bcd60e51b815260206004820152601f60248201527f5265656e7472616e637947756172643a207265656e7472616e742063616c6c00604482015290519081900360640190fd5b600260005561224d61337d565b600f5461226490610100900460ff161560346136d7565b6000826001600160a01b03166370a08231306040518263ffffffff1660e01b815260040180826001600160a01b0316815260200191505060206040518083038186803b1580156122b357600080fd5b505afa1580156122c7573d6000803e3d6000fd5b505050506040513d60208110156122dd57600080fd5b505160055460408051631f0b96b960e31b8152905192935061236192869285926001600160a01b039091169163f85cb5c891600480820192602092909190829003018186803b15801561232f57600080fd5b505afa158015612343573d6000803e3d6000fd5b505050506040513d602081101561235957600080fd5b5051856134aa565b5061236a6143de565b5050600160005550565b601e5481565b60125481565b6001600160a01b03166000908152601b602052604090205490565b6123a433614427565b6123ac61337d565b604080516001600160a01b038581166024830152600060448084019190915283518084039091018152606490920183526020820180516001600160e01b031663095ea7b360e01b178152925182519186169390918291908083835b602083106124265780518252601f199092019160209182019101612407565b6001836020036101000a0380198251168184511680821785525050505050509050019150506000604051808303816000865af19150503d8060008114612488576040519150601f19603f3d011682016040523d82523d6000602084013e61248d565b606091505b506124a59150506001600160a01b03831684836148be565b505050565b60085481565b60006124ba613289565b6124c261337d565b612131858585856134aa565b600f54600954600b54600a54309460ff610100860481169562010000810482169591169390929091565b601c805460408051602060026001851615610100026000190190941693909304601f8101849004840282018401909252818152929183018282801561257e5780601f106125535761010080835404028352916020019161257e565b820191906000526020600020905b81548152906001019060200180831161256157829003601f168201915b505050505081565b60145481565b600d5481565b600154610100900460ff16806125ab57506125ab6149ea565b806125b9575060015460ff16155b6125f45760405162461bcd60e51b815260040180806020018281038252602e815260200180615cdc602e913960400191505060405180910390fd5b600154610100900460ff1615801561261e576001805460ff1961ff00199091166101001716811790555b600180547fffffffffffffffffffff0000000000000000000000000000000000000000ffff16620100006001600160a01b038c8116820292909217928390556005805473ffffffffffffffffffffffffffffffffffffffff19168e8416908117909155604080516313bc6d4b60e01b81526004810192909252516126fc9492909204909216916313bc6d4b916024808301926020929190829003018186803b1580156126c957600080fd5b505afa1580156126dd573d6000803e3d6000fd5b505050506040513d60208110156126f357600080fd5b505160246136d7565b600554604080516370a0823160e01b81526001600160a01b038e8116600483015291516127819360009316916370a08231916024808301926020929190829003018186803b15801561274d57600080fd5b505afa158015612761573d6000803e3d6000fd5b505050506040513d602081101561277757600080fd5b50511160256136d7565b61278a886148ab565b612794878c6149fb565b61279d8661473b565b6127a682614875565b6127af8361485a565b6127b884614890565b6006805473ffffffffffffffffffffffffffffffffffffffff19166001600160a01b038d81169190911790915542600755600154604080517f3f2a554000000000000000000000000000000000000000000000000000000000815290516201000090920490921691633f2a5540916004808301926020929190829003018186803b15801561284557600080fd5b505afa158015612859573d6000803e3d6000fd5b505050506040513d602081101561286f57600080fd5b5051601d805473ffffffffffffffffffffffffffffffffffffffff19166001600160a01b03909216919091179055601485905580156128b4576001805461ff00191690555b5050505050505050505050565b600c81815481106128d157600080fd5b6000918252602090912001546001600160a01b0316905081565b60025490565b6000806009541180156129045750600b54155b905090565b6005546129c2906001600160a01b0316331480156129305750600f5462010000900460ff16155b80156129bb5750600154600554604080516313bc6d4b60e01b81526001600160a01b039283166004820152905162010000909304909116916313bc6d4b91602480820192602092909190829003018186803b15801561298e57600080fd5b505afa1580156129a2573d6000803e3d6000fd5b505050506040513d60208110156129b857600080fd5b50515b60226136d7565b80516000906129d2906040614b0b565b90506129f86000821180156129e657508584145b80156129f157508382145b604b6136d7565b60005b85811015612bb5576001546201000090046001600160a01b03166320104198888884818110612a2657fe5b9050602002013560ff166040518263ffffffff1660e01b8152600401808260ff16815260200191505060206040518083038186803b158015612a6757600080fd5b505afa158015612a7b573d6000803e3d6000fd5b505050506040513d6020811015612a9157600080fd5b50516001600160a01b031663cdea2034612aab8584614b72565b6005546001600160a01b0316888886818110612ac357fe5b905060200201356001600160a01b0316856040518563ffffffff1660e01b81526004018080602001856001600160a01b03168152602001846001600160a01b03168152602001838152602001828103825286818151815260200191508051906020019080838360005b83811015612b44578181015183820152602001612b2c565b50505050905090810190601f168015612b715780820380516001836020036101000a031916815260200191505b509550505050505060006040518083038186803b158015612b9157600080fd5b505afa158015612ba5573d6000803e3d6000fd5b5050600190920191506129fb9050565b50612bc260028787615b80565b50612bcf60038585615b14565b508151612be390601c906020850190615c24565b5050600f805462ff00001916620100001790555050505050565b60026000541415612c55576040805162461bcd60e51b815260206004820152601f60248201527f5265656e7472616e637947756172643a207265656e7472616e742063616c6c00604482015290519081900360640190fd5b6002600055612c6261337d565b612c6a61363d565b612c786000831160396136d7565b612c83828233614b83565b50506001600055565b60026000541415612ce4576040805162461bcd60e51b815260206004820152601f60248201527f5265656e7472616e637947756172643a207265656e7472616e742063616c6c00604482015290519081900360640190fd5b6002600055600554612e19906001600160a01b031633148015612d865750600154600554604080516313bc6d4b60e01b81526001600160a01b039283166004820152905162010000909304909116916313bc6d4b91602480820192602092909190829003018186803b158015612d5957600080fd5b505afa158015612d6d573d6000803e3d6000fd5b505050506040513d6020811015612d8357600080fd5b50515b80612e125750600160029054906101000a90046001600160a01b03166001600160a01b0316638da5cb5b6040518163ffffffff1660e01b815260040160206040518083038186803b158015612dda57600080fd5b505afa158015612dee573d6000803e3d6000fd5b505050506040513d6020811015612e0457600080fd5b50516001600160a01b031633145b601f6136d7565b612e2161337d565b600f54612e4690610100900460ff168015612e3f5750600f5460ff16155b602c6136d7565b612e69612e6060105460095461326990919063ffffffff16565b421060326136d7565b612e7681831060646136d7565b612e88612e8383836138a9565b613966565b601354612e959083613279565b6013819055612ea690836000614e79565b601455612eb4826000614f36565b60055460408051631f0b96b960e31b8152905161301e926001600160a01b031691829163f85cb5c891600480820192602092909190829003018186803b158015612efd57600080fd5b505afa158015612f11573d6000803e3d6000fd5b505050506040513d6020811015612f2757600080fd5b5051604080516370a0823160e01b815230600482015290516001600160a01b03909216916370a0823191602480820192602092909190829003018186803b158015612f7157600080fd5b505afa158015612f85573d6000803e3d6000fd5b505050506040513d6020811015612f9b57600080fd5b505160055460408051631f0b96b960e31b815290516001600160a01b039092169163f85cb5c891600480820192602092909190829003018186803b158015612fe257600080fd5b505afa158015612ff6573d6000803e3d6000fd5b505050506040513d602081101561300c57600080fd5b50516001600160a01b03169190614fa4565b42600a81905560055460408051858152602081019390935280516001600160a01b03909216927fcff91fcd7fff5d12ce9ee075980ad73fde31d99f583cb228a04ee0ef4f34ba6f929081900390910190a250506001600055565b60008060008060008060008060008060008060008030600660009054906101000a90046001600160a01b0316600380549050601154600d54600e54601354601554601054601454601254600160029054906101000a90046001600160a01b03166001600160a01b031663d6a45aa56040518163ffffffff1660e01b815260040160206040518083038186803b15801561311057600080fd5b505afa158015613124573d6000803e3d6000fd5b505050506040513d602081101561313a57600080fd5b5051600754613147610e24565b9d509d509d509d509d509d509d509d509d509d509d509d509d509d50909192939495969798999a9b9c9d565b60045460609061321a57601c8054604080516020601f60026000196101006001881615020190951694909404938401819004810282018101909252828152613215939092909183018282801561320a5780601f106131df5761010080835404028352916020019161320a565b820191906000526020600020905b8154815290600101906020018083116131ed57829003601f168201915b505050505083614b72565b613263565b6004828154811061322757fe5b6000918252602080832090910154604080516001600160a01b039092169282019290925280820192909252805180830382018152606090920190525b92915050565b8082018281101561326357600080fd5b8082038281111561326357600080fd5b6000805b60025460ff8216101561336e5781806133645750600160029054906101000a90046001600160a01b03166001600160a01b0316632010419860028360ff16815481106132d557fe5b90600052602060002090602091828204019190069054906101000a900460ff166040518263ffffffff1660e01b8152600401808260ff16815260200191505060206040518083038186803b15801561332c57600080fd5b505afa158015613340573d6000803e3d6000fd5b505050506040513d602081101561335657600080fd5b50516001600160a01b031633145b915060010161328d565b5061337a81604c6136d7565b50565b600154604080517f5b14f18300000000000000000000000000000000000000000000000000000000815230600482015290516134a8926201000090046001600160a01b031691635b14f183916024808301926020929190829003018186803b1580156133e857600080fd5b505afa1580156133fc573d6000803e3d6000fd5b505050506040513d602081101561341257600080fd5b505115806134a15750600160029054906101000a90046001600160a01b03166001600160a01b0316638da5cb5b6040518163ffffffff1660e01b815260040160206040518083038186803b15801561346957600080fd5b505afa15801561347d573d6000803e3d6000fd5b505050506040513d602081101561349357600080fd5b50516001600160a01b031633145b60536136d7565b565b6000806134b7868561500f565b90506134c681151560626136d7565b60006134dc87866134d7898661388b565b61512e565b9050600084613502576020546134f9576658d15e176280006134fd565b6020545b613504565b845b9050600061351c613515848461388b565b8490613279565b9050600160029054906101000a90046001600160a01b03166001600160a01b031663e6e605136040518163ffffffff1660e01b815260040160206040518083038186803b15801561356c57600080fd5b505afa158015613580573d6000803e3d6000fd5b505050506040513d602081101561359657600080fd5b5051604080517ffa1ca8200000000000000000000000000000000000000000000000000000000081523060048201526001600160a01b038c81166024830152604482018c90528a81166064830152608482018590529151919092169163fa1ca8209160a480830192600092919082900301818387803b15801561361857600080fd5b505af115801561362c573d6000803e3d6000fd5b50929b9a5050505050505050505050565b600154604080517f411137c300000000000000000000000000000000000000000000000000000000815233600482015290516134a8926201000090046001600160a01b03169163411137c3916024808301926020929190829003018186803b1580156136a857600080fd5b505afa1580156136bc573d6000803e3d6000fd5b505050506040513d60208110156136d257600080fd5b505160125b816113ae576113ae8161527c565b61370460095460001480156136fd5750600f5460ff16155b60386136d7565b600554604080517fb2644e6600000000000000000000000000000000000000000000000000000000815230600482015290516001600160a01b039092169163b2644e669160248082019260009290919082900301818387803b15801561376957600080fd5b505af115801561377d573d6000803e3d6000fd5b50505050565b61378b61337d565b81156137fe5773c02aaa39b223fe8d0a0e5c4f27ead9083c756cc26001600160a01b031663d0e30db0826040518263ffffffff1660e01b81526004016000604051808303818588803b1580156137e057600080fd5b505af11580156137f4573d6000803e3d6000fd5b50505050506113ae565b73c02aaa39b223fe8d0a0e5c4f27ead9083c756cc26001600160a01b0316632e1a7d4d826040518263ffffffff1660e01b815260040180828152602001915050600060405180830381600087803b15801561385857600080fd5b505af115801561386c573d6000803e3d6000fd5b505050505050565b6000808212156138875781600003613263565b5090565b600061122a670de0b6b3a76400006138a385856152cf565b90614b0b565b600061122a826138a385670de0b6b3a76400006152cf565b6006546134a8906001600160a01b031633148061395f5750600160029054906101000a90046001600160a01b03166001600160a01b0316638da5cb5b6040518163ffffffff1660e01b815260040160206040518083038186803b15801561392757600080fd5b505afa15801561393b573d6000803e3d6000fd5b505050506040513d602081101561395157600080fd5b50516001600160a01b031633145b60206136d7565b600061398361397c600160028054905003613173565b600c6152f3565b60025490915060009081905b8015613bee57600154600280546000926201000090046001600160a01b03169163201041989160001986019081106139c357fe5b90600052602060002090602091828204019190069054906101000a900460ff166040518263ffffffff1660e01b8152600401808260ff16815260200191505060206040518083038186803b158015613a1a57600080fd5b505afa158015613a2e573d6000803e3d6000fd5b505050506040513d6020811015613a4457600080fd5b50516002549091506001600160a01b0382169063bdd7a79c908790879087908714613a7757670de0b6b3a7640000613a79565b8a5b613a8560018903613173565b600554600380546001600160a01b03909216916000198c01908110613aa657fe5b9060005260206000200160009054906101000a90046001600160a01b03166040518863ffffffff1660e01b815260040180886001600160a01b031681526020018781526020018660ff16815260200185815260200180602001846001600160a01b03168152602001836001600160a01b03168152602001828103825285818151815260200191508051906020019080838360005b83811015613b52578181015183820152602001613b3a565b50505050905090810190601f168015613b7f5780820380516001836020036101000a031916815260200191505b5098505050505050505050606060405180830381600087803b158015613ba457600080fd5b505af1158015613bb8573d6000803e3d6000fd5b505050506040513d6060811015613bce57600080fd5b50805160208201516040909201519096509094509250506000190161398f565b50600560009054906101000a90046001600160a01b03166001600160a01b031663f85cb5c86040518163ffffffff1660e01b815260040160206040518083038186803b158015613c3d57600080fd5b505afa158015613c51573d6000803e3d6000fd5b505050506040513d6020811015613c6757600080fd5b50516001600160a01b03848116911614801590613c845750600082115b1561377d576001600160a01b038316613cba57613ca2600183613783565b73c02aaa39b223fe8d0a0e5c4f27ead9083c756cc292505b600560009054906101000a90046001600160a01b03166001600160a01b031663f85cb5c86040518163ffffffff1660e01b815260040160206040518083038186803b158015613d0857600080fd5b505afa158015613d1c573d6000803e3d6000fd5b505050506040513d6020811015613d3257600080fd5b50516001600160a01b0384811691161461377d57613dcc8383600560009054906101000a90046001600160a01b03166001600160a01b031663f85cb5c86040518163ffffffff1660e01b815260040160206040518083038186803b158015613d9957600080fd5b505afa158015613dad573d6000803e3d6000fd5b505050506040513d6020811015613dc357600080fd5b505160006134aa565b5050505050565b60055460408051631f0b96b960e31b815290516000926001600160a01b03169163f85cb5c8916004808301926020929190829003018186803b158015613e1857600080fd5b505afa158015613e2c573d6000803e3d6000fd5b505050506040513d6020811015613e4257600080fd5b5051601354909150600090613e6b90613e5a906152ff565b613e656015546152ff565b9061535f565b9050600080600060135460155411613e84576000613e93565b601354601554613e9391613279565b905060135460155410613fd457613f2481600160029054906101000a90046001600160a01b03166001600160a01b031663568c08136040518163ffffffff1660e01b815260040160206040518083038186803b158015613ef257600080fd5b505afa158015613f06573d6000803e3d6000fd5b505050506040513d6020811015613f1c57600080fd5b50519061388b565b92508215613fba57613fba600160029054906101000a90046001600160a01b03166001600160a01b031663f58d1c946040518163ffffffff1660e01b815260040160206040518083038186803b158015613f7d57600080fd5b505afa158015613f91573d6000803e3d6000fd5b505050506040513d6020811015613fa757600080fd5b50516001600160a01b0387169085614fa4565b613fcd613fc6846152ff565b859061535f565b9350614012565b61400f6718493fba64ef0000614009614000601154611a346013546015546138a990919063ffffffff16565b60115490613279565b906153c4565b91505b600554601554614041916001600160a01b0316906140309086613279565b6001600160a01b0388169190614fa4565b61404e6013546000614f36565b601d54604080517f9de9a05200000000000000000000000000000000000000000000000000000000815230600482015290516001600160a01b0390921691639de9a05291602480820192602092909190829003018186803b1580156140b257600080fd5b505afa1580156140c6573d6000803e3d6000fd5b505050506040513d60208110156140dc57600080fd5b5051601955601d54600554604080517f070e8a4a0000000000000000000000000000000000000000000000000000000081526001600160a01b0392831660048201529051600093929092169163070e8a4a91602480820192606092909190829003018186803b15801561414e57600080fd5b505afa158015614162573d6000803e3d6000fd5b505050506040513d601f19601f82011682018060405250606081101561418757600080fd5b810190809190505090506000600160029054906101000a90046001600160a01b03166001600160a01b031663f58d1c946040518163ffffffff1660e01b815260040160206040518083038186803b1580156141e157600080fd5b505afa1580156141f5573d6000803e3d6000fd5b505050506040513d602081101561420b57600080fd5b5051604080517f65f7f64800000000000000000000000000000000000000000000000000000000815290516001600160a01b03909216916365f7f64891600480820192602092909190829003018186803b15801561426857600080fd5b505afa15801561427c573d6000803e3d6000fd5b505050506040513d602081101561429257600080fd5b50516005546001600160a01b03908116911614156142b15760006142d7565b6142d7856142d16142ca8560026020020151879061388b565b8690613279565b90613279565b9050600560009054906101000a90046001600160a01b03166001600160a01b03166318160ddd6040518163ffffffff1660e01b815260040160206040518083038186803b15801561432757600080fd5b505afa15801561433b573d6000803e3d6000fd5b505050506040513d602081101561435157600080fd5b5051601a55600554604080517f50a9600300000000000000000000000000000000000000000000000000000000815260048101849052602481018990526044810187905290516001600160a01b03909216916350a960039160648082019260009290919082900301818387803b1580156143ca57600080fd5b505af11580156128b4573d6000803e3d6000fd5b60055460408051631f0b96b960e31b815290516134a8926001600160a01b031691829163f85cb5c891600480820192602092909190829003018186803b158015612efd57600080fd5b6000805b60035481101561447857826001600160a01b03166003828154811061444c57fe5b6000918252602090912001546001600160a01b031614156144705760019150614478565b60010161442b565b506000600160029054906101000a90046001600160a01b03166001600160a01b031663e6e605136040518163ffffffff1660e01b815260040160206040518083038186803b1580156144c957600080fd5b505afa1580156144dd573d6000803e3d6000fd5b505050506040513d60208110156144f357600080fd5b505190506124a58280614522575073f1392356e22f5b10a2f0ef2a29b7e78ffabf6f5e6001600160a01b038516145b8061454957507372e27da102a67767a7a3858d117159418f93617d6001600160a01b038516145b806145c95750816001600160a01b0316632d108f41856040518263ffffffff1660e01b815260040180826001600160a01b0316815260200191505060206040518083038186803b15801561459c57600080fd5b505afa1580156145b0573d6000803e3d6000fd5b505050506040513d60208110156145c657600080fd5b50515b60216136d7565b606061462782846040518060400160405280600a81526020017f6e6f20657272206d736700000000000000000000000000000000000000000000815250876001600160a01b03166153e0909392919063ffffffff16565b905082846001600160a01b03167f2a936dbabeaea30adc1ddad138b1958497988474bef8b09a29411f0105ab8ab28484604051808060200180602001838103835285818151815260200191508051906020019080838360005b83811015614698578181015183820152602001614680565b50505050905090810190601f1680156146c55780820380516001836020036101000a031916815260200191505b50838103825284518152845160209182019186019080838360005b838110156146f85781810151838201526020016146e0565b50505050905090810190601f1680156147255780820380516001836020036101000a031916815260200191505b5094505050505060405180910390a39392505050565b600554604080517f95cdbedb0000000000000000000000000000000000000000000000000000000081529051614855926001600160a01b0316916395cdbedb916004808301926020929190829003018186803b15801561479a57600080fd5b505afa1580156147ae573d6000803e3d6000fd5b505050506040513d60208110156147c457600080fd5b5051821080159061484e5750600560009054906101000a90046001600160a01b03166001600160a01b031663297ce5986040518163ffffffff1660e01b815260040160206040518083038186803b15801561481e57600080fd5b505afa158015614832573d6000803e3d6000fd5b505050506040513d602081101561484857600080fd5b50518211155b60276136d7565b601055565b61487067016345785d8a000082111560676136d7565b601f55565b61488b6702c68af0bb14000082111560666136d7565b602055565b6148a6670de0b6b3a7640000821115605d6136d7565b601e55565b6148b96000821160296136d7565b601255565b80158061495d5750604080517fdd62ed3e0000000000000000000000000000000000000000000000000000000081523060048201526001600160a01b03848116602483015291519185169163dd62ed3e91604480820192602092909190829003018186803b15801561492f57600080fd5b505afa158015614943573d6000803e3d6000fd5b505050506040513d602081101561495957600080fd5b5051155b6149985760405162461bcd60e51b8152600401808060200182810382526036815260200180615d806036913960400191505060405180910390fd5b604080516001600160a01b038416602482015260448082018490528251808303909101815260649091019091526020810180516001600160e01b031663095ea7b360e01b1790526124a5908490615530565b60006149f5306155e1565b15905090565b600554604080517f3d8270f50000000000000000000000000000000000000000000000000000000081526001600160a01b03848116600483015291516000939290921691633d8270f59160248082019261012092909190829003018186803b158015614a6657600080fd5b505afa158015614a7a573d6000803e3d6000fd5b505050506040513d610120811015614a9157600080fd5b5061010001519050614b048315801590614afd5750600554604080516370a0823160e01b81526001600160a01b03868116600483015291518793614afa9387939116916370a0823191602480820192602092909190829003018186803b158015611df257600080fd5b10155b60076136d7565b5050601155565b6000808211614b61576040805162461bcd60e51b815260206004820152601a60248201527f536166654d6174683a206469766973696f6e206279207a65726f000000000000604482015290519081900360640190fd5b818381614b6a57fe5b049392505050565b606061122a838360400260406155e7565b600f54614b9990610100900460ff16602c6136d7565b614bbd601254614bb48560135461326990919063ffffffff16565b1115602d6136d7565b600554604080517f3deddb3f0000000000000000000000000000000000000000000000000000000081529051614c5f926001600160a01b031691633deddb3f916004808301926020929190829003018186803b158015614c1c57600080fd5b505afa158015614c30573d6000803e3d6000fd5b505050506040513d6020811015614c4657600080fd5b5051600854614c56904290613279565b1015602f6136d7565b600554604080517f4422b0dc0000000000000000000000000000000000000000000000000000000081526004810186905290516001600160a01b0390921691634422b0dc9160248082019260009290919082900301818387803b158015614cc557600080fd5b505af1158015614cd9573d6000803e3d6000fd5b5050601354614ceb9250905084613269565b601355614cf78361570b565b600954614d945742600955600554604080517f18160ddd00000000000000000000000000000000000000000000000000000000815290516001600160a01b03909216916318160ddd91600480820192602092909190829003018186803b158015614d6057600080fd5b505afa158015614d74573d6000803e3d6000fd5b505050506040513d6020811015614d8a57600080fd5b5051601655614da6565b614da2601354846001614e79565b6014555b614db1836001614f36565b60055460408051634d5b1ba160e11b81526001600160a01b0384811660048301526024820186905291519190921691639ab6374291604480830192600092919082900301818387803b158015614e0657600080fd5b505af1158015614e1a573d6000803e3d6000fd5b505042600a819055600554604080518881526020810188905280820193909352516001600160a01b0390911693507f7f4467a4ca8be02143a9253e6c31362c7bc755929e5c68faf659636d307f1b8c92509081900360600190a2505050565b60008082614e9057614e8b8585613269565b614e92565b845b90506000614eab601054836152cf90919063ffffffff16565b905060008415614ee957614ee2826119fc614edb614ed46009544261327990919063ffffffff16565b8a906152cf565b8590613279565b9050614f1e565b614f1b614f14613515614f0d426142d160105460095461326990919063ffffffff16565b89906152cf565b83906138a9565b90505b601454614f2b908261388b565b979650505050505050565b601d54604080517fd717a50600000000000000000000000000000000000000000000000000000000815260048101859052831515602482015290516001600160a01b039092169163d717a5069160448082019260009290919082900301818387803b15801561385857600080fd5b604080516001600160a01b038416602482015260448082018490528251808303909101815260649091019091526020810180516001600160e01b03167fa9059cbb000000000000000000000000000000000000000000000000000000001790526124a5908490615530565b6000600160029054906101000a90046001600160a01b03166001600160a01b0316632630c12f6040518163ffffffff1660e01b815260040160206040518083038186803b15801561505f57600080fd5b505afa158015615073573d6000803e3d6000fd5b505050506040513d602081101561508957600080fd5b5051604080517fac41865a0000000000000000000000000000000000000000000000000000000081526001600160a01b03868116600483015285811660248301529151919092169163ac41865a916044808301926020929190829003018186803b1580156150f657600080fd5b505afa92505050801561511b57506040513d602081101561511657600080fd5b505160015b61512757506000613263565b9050613263565b60008061513a856159b7565b6151a857846001600160a01b031663313ce5676040518163ffffffff1660e01b815260040160206040518083038186803b15801561517757600080fd5b505afa15801561518b573d6000803e3d6000fd5b505050506040513d60208110156151a157600080fd5b50516151ab565b60125b60ff16905060006151bb856159b7565b61522957846001600160a01b031663313ce5676040518163ffffffff1660e01b815260040160206040518083038186803b1580156151f857600080fd5b505afa15801561520c573d6000803e3d6000fd5b505050506040513d602081101561522257600080fd5b505161522c565b60125b60ff1690508082141561524357839250505061122a565b818111156152635761525a84838303600a0a6152cf565b9250505061122a565b61527284828403600a0a614b0b565b9695505050505050565b62461bcd60e51b6000908152602060045260076024526642414223000030600a808404818106603090810160081b95839006959095019082900491820690940160101b939093010160c81b604452606490fd5b60008215806152ea575050818102818382816152e757fe5b04145b61326357600080fd5b600061122a83836159ed565b60007f800000000000000000000000000000000000000000000000000000000000000082106138875760405162461bcd60e51b8152600401808060200182810382526028815260200180615d0a6028913960400191505060405180910390fd5b60008183038183128015906153745750838113155b80615389575060008312801561538957508381135b61122a5760405162461bcd60e51b8152600401808060200182810382526024815260200180615d326024913960400191505060405180910390fd5b6000670de0b6b3a76400006153d984846152cf565b81614b6a57fe5b6060824710156154215760405162461bcd60e51b8152600401808060200182810382526026815260200180615cb66026913960400191505060405180910390fd5b61542a856155e1565b61547b576040805162461bcd60e51b815260206004820152601d60248201527f416464726573733a2063616c6c20746f206e6f6e2d636f6e7472616374000000604482015290519081900360640190fd5b600080866001600160a01b031685876040518082805190602001908083835b602083106154b95780518252601f19909201916020918201910161549a565b6001836020036101000a03801982511681845116808217855250505050505090500191505060006040518083038185875af1925050503d806000811461551b576040519150601f19603f3d011682016040523d82523d6000602084013e615520565b606091505b5091509150614f2b828286615a61565b6000615585826040518060400160405280602081526020017f5361666545524332303a206c6f772d6c6576656c2063616c6c206661696c6564815250856001600160a01b0316615b059092919063ffffffff16565b8051909150156124a5578080602001905160208110156155a457600080fd5b50516124a55760405162461bcd60e51b815260040180806020018281038252602a815260200180615d56602a913960400191505060405180910390fd5b3b151590565b60608182601f011015615641576040805162461bcd60e51b815260206004820152600e60248201527f736c6963655f6f766572666c6f77000000000000000000000000000000000000604482015290519081900360640190fd5b81830184511015615699576040805162461bcd60e51b815260206004820152601160248201527f736c6963655f6f75744f66426f756e6473000000000000000000000000000000604482015290519081900360640190fd5b6060821580156156b85760405191506000825260208201604052615702565b6040519150601f8416801560200281840101858101878315602002848b0101015b818310156156f15780518352602092830192016156d9565b5050858452601f01601f1916604052505b50949350505050565b60055460408051631f0b96b960e31b8152905183926000926001600160a01b039091169163f85cb5c891600480820192602092909190829003018186803b15801561575557600080fd5b505afa158015615769573d6000803e3d6000fd5b505050506040513d602081101561577f57600080fd5b505190506000805b600254811015613dcc57600154600280546000926201000090046001600160a01b031691632010419891859081106157bb57fe5b90600052602060002090602091828204019190069054906101000a900460ff166040518263ffffffff1660e01b8152600401808260ff16815260200191505060206040518083038186803b15801561581257600080fd5b505afa158015615826573d6000803e3d6000fd5b505050506040513d602081101561583c57600080fd5b505190506001600160a01b0381166387033f6185878661585b87613173565b600554600380546001600160a01b03909216918a90811061587857fe5b9060005260206000200160009054906101000a90046001600160a01b03166040518763ffffffff1660e01b815260040180876001600160a01b031681526020018681526020018560ff16815260200180602001846001600160a01b03168152602001836001600160a01b03168152602001828103825285818151815260200191508051906020019080838360005b8381101561591e578181015183820152602001615906565b50505050905090810190601f16801561594b5780820380516001836020036101000a031916815260200191505b50975050505050505050606060405180830381600087803b15801561596f57600080fd5b505af1158015615983573d6000803e3d6000fd5b505050506040513d606081101561599957600080fd5b50805160208201516040909201519196509450925050600101615787565b600073eeeeeeeeeeeeeeeeeeeeeeeeeeeeeeeeeeeeeeee6001600160a01b03831614806132635750506001600160a01b03161590565b60008160140183511015615a48576040805162461bcd60e51b815260206004820152601560248201527f746f416464726573735f6f75744f66426f756e64730000000000000000000000604482015290519081900360640190fd5b5001602001516c01000000000000000000000000900490565b60608315615a7057508161122a565b825115615a805782518084602001fd5b8160405162461bcd60e51b81526004018080602001828103825283818151815260200191508051906020019080838360005b83811015615aca578181015183820152602001615ab2565b50505050905090810190601f168015615af75780820380516001836020036101000a031916815260200191505b509250505060405180910390fd5b606061122784846000856153e0565b828054828255906000526020600020908101928215615b74579160200282015b82811115615b7457815473ffffffffffffffffffffffffffffffffffffffff19166001600160a01b03843516178255602090920191600190910190615b34565b50613887929150615ca0565b82805482825590600052602060002090601f01602090048101928215615b745791602002820160005b83821115615bea57833560ff1683826101000a81548160ff021916908360ff1602179055509260200192600101602081600001049283019260010302615ba9565b8015615c175782816101000a81549060ff0219169055600101602081600001049283019260010302615bea565b5050613887929150615ca0565b828054600181600116156101000203166002900490600052602060002090601f016020900481019282615c5a5760008555615b74565b82601f10615c7357805160ff1916838001178555615b74565b82800160010185558215615b74579182015b82811115615b74578251825591602001919060010190615c85565b5b808211156138875760008155600101615ca156fe416464726573733a20696e73756666696369656e742062616c616e636520666f722063616c6c496e697469616c697a61626c653a20636f6e747261637420697320616c726561647920696e697469616c697a656453616665436173743a2076616c756520646f65736e27742066697420696e20616e20696e743235365369676e6564536166654d6174683a207375627472616374696f6e206f766572666c6f775361666545524332303a204552433230206f7065726174696f6e20646964206e6f7420737563636565645361666545524332303a20617070726f76652066726f6d206e6f6e2d7a65726f20746f206e6f6e2d7a65726f20616c6c6f77616e6365a2646970667358221220c7006186fa6eda6310e0aa6207bf41abb9fc070e88ca4ce11c58051bc568ae5d64736f6c63430007060033",
  "devdoc": {
    "kind": "dev",
    "methods": {
      "executeStrategy(uint256,uint256)": {
        "params": {
          "_capital": "The capital to allocate to this strategy.",
          "_fee": "The fee paid to keeper to compensate the gas cost."
        }
      },
      "expireStrategy(uint256)": {
        "params": {
          "_fee": "The keeper fee"
        }
      },
      "finalizeStrategy(uint256,string,uint256)": {
        "params": {
          "_fee": "The fee paid to keeper to compensate the gas cost",
          "_minReserveOut": "Minimum reserve asset to get during strategy finalization",
          "_tokenURI": "URL with the JSON for the strategy"
        }
      },
      "getNAV()": {
        "returns": {
          "_0": "_nav           NAV of the strategy"
        }
      },
      "getUserVotes(address)": {
        "params": {
          "_address": "Address of the contributor"
        },
        "returns": {
          "_0": "_votes            Number of votes cast"
        }
      },
      "handleWeth(bool,uint256)": {
        "params": {
          "_isDeposit": "Whether is a deposit or withdraw",
          "_wethAmount": "Amount to deposit or withdraw"
        }
      },
      "initialize(address,address,address,uint256,uint256,uint256,uint256,uint256,uint256,uint256)": {
        "params": {
          "_controller": "Address of the controller",
          "_expectedReturn": "Expected return",
          "_garden": "Address of the garden",
          "_maxAllocationPercentage": "Max allocation percentage of garden capital",
          "_maxCapitalRequested": "Max Capital requested denominated in the reserve asset (0 to be unlimited)",
          "_maxGasFeePercentage": "Max gas fee percentage of garden capital",
          "_maxTradeSlippagePercentage": "Max slippage allowed per trade in % of capital",
          "_stake": "Stake with garden participations absolute amounts 1e18",
          "_strategist": "Address of the strategist",
          "_strategyDuration": "Strategy duration in seconds"
        }
      },
      "invokeFromIntegration(address,uint256,bytes)": {
        "params": {
          "_data": "Encoded function selector and arguments",
          "_target": "Address of the smart contract to call",
          "_value": "Quantity of Ether to provide the call (typically 0)"
        },
        "returns": {
          "_0": "_returnValue           Bytes encoded return value"
        }
      },
      "resolveVoting(address[],int256[],uint256)": {
        "params": {
          "_fee": "The fee paid to keeper to compensate the gas cost",
          "_voters": "An array of garden member who voted on strategy.",
          "_votes": "An array of votes by on strategy by garden members."
        }
      },
      "setData(uint8[],address[],bytes)": {
        "params": {
          "_opEncodedData": "Bytes with the params for the op in the same position in the opTypes array",
          "_opIntegrations": "Addresses with the integration for each op",
          "_opTypes": "An array with the op types"
        }
      },
      "sweep(address,uint256)": {
        "params": {
          "_newSlippage": "New Slippage to override",
          "_token": "Address of the token to sweep"
        }
      },
      "trade(address,uint256,address,uint256)": {
        "params": {
          "_overrideSlippage": "Slippage to override",
          "_receiveToken": "Token to receive",
          "_sendQuantity": "Amount of tokens to send",
          "_sendToken": "Token to exchange"
        }
      },
      "unwindStrategy(uint256,uint256)": {
        "params": {
          "_amountToUnwind": "The amount of capital to unwind",
          "_strategyNAV": "NAV of the strategy to unwind."
        }
      },
      "updateParams(uint256[5])": {
        "details": "_params[0]  duration   _params[1]  maxGasFeePercentage   _params[2]  maxTradeSlippagePercentage   _params[3]  maxAllocationPercentage   _params[4]  maxCapitalRequested",
        "params": {
          "_params": "New params"
        }
      },
      "updateStrategyRewards(uint256,uint256)": {
        "params": {
          "_newTotalRewards": "New total rewards"
        }
      }
    },
    "version": 1
  },
  "userdoc": {
    "kind": "user",
    "methods": {
      "deleteCandidateStrategy()": {
        "notice": "Delete a candidate strategy by the strategist"
      },
      "executeStrategy(uint256,uint256)": {
        "notice": "Executes an strategy that has been activated and gone through the cooldown period."
      },
      "expireStrategy(uint256)": {
        "notice": "Expires a candidate that has spent more than CANDIDATE_PERIOD without reaching quorum"
      },
      "finalizeStrategy(uint256,string,uint256)": {
        "notice": "Exits from an executed strategy. Returns balance back to the garden and sets the capital aside for withdrawals in ETH. Pays the keeper. Updates the reserve asset position accordingly."
      },
      "getNAV()": {
        "notice": "Gets the NAV of assets under management. It is the sum of the NAV of all the operations"
      },
      "getOperationByIndex(uint8)": {
        "notice": "Get the operation params by index"
      },
      "getOperationsCount()": {
        "notice": "Returns the number of operations in this strategy"
      },
      "getStrategyDetails()": {
        "notice": "Get the non-state related details of a Strategy"
      },
      "getStrategyRewardsContext()": {
        "notice": "Get mining context details of a Strategy"
      },
      "getStrategyState()": {
        "notice": "Get the state of a Strategy"
      },
      "getUserVotes(address)": {
        "notice": "Gets the votes casted by the contributor in this strategy"
      },
      "handleWeth(bool,uint256)": {
        "notice": "Deposits or withdraws weth from an operation in this context"
      },
      "initialize(address,address,address,uint256,uint256,uint256,uint256,uint256,uint256,uint256)": {
        "notice": "Initializes the strategy for a garden"
      },
      "invokeApprove(address,address,uint256)": {
        "notice": "Helper to invoke Approve on ERC20 from integrations in the strategy context"
      },
      "invokeFromIntegration(address,uint256,bytes)": {
        "notice": "Helper to invoke a call to an external contract from integrations in the strategy context"
      },
      "isStrategyActive()": {
        "notice": "Returns whether this strategy is currently active or not"
      },
      "resolveVoting(address[],int256[],uint256)": {
        "notice": "Adds off-chain voting results on-chain."
      },
      "setData(uint8[],address[],bytes)": {
        "notice": "Sets the data for the operations of this strategy"
      },
      "sweep(address,uint256)": {
        "notice": "Any tokens (other than the target) that are sent here by mistake are recoverable by contributors Converts it to the reserve asset and sends it to the garden."
      },
      "trade(address,uint256,address,uint256)": {
        "notice": "Function that calculates the price using the oracle and executes a trade. Must call the exchange to get the price and pass minReceiveQuantity accordingly."
      },
      "unwindStrategy(uint256,uint256)": {
        "notice": "Partially unwinds an strategy. Triggered from an immediate withdraw in the Garden."
      },
      "updateParams(uint256[5])": {
        "notice": "Allows strategist to update some strategy params"
      },
      "updateStrategyRewards(uint256,uint256)": {
        "notice": "PRIVILEGE FUNCTION Update strategy rewards by governance through garden"
      }
    },
    "version": 1
  },
  "storageLayout": {
    "storage": [
      {
        "astId": 6418,
        "contract": "contracts/strategies/Strategy.sol:StrategyV26",
        "label": "_status",
        "offset": 0,
        "slot": "0",
        "type": "t_uint256"
      },
      {
        "astId": 492,
        "contract": "contracts/strategies/Strategy.sol:StrategyV26",
        "label": "_initialized",
        "offset": 0,
        "slot": "1",
        "type": "t_bool"
      },
      {
        "astId": 495,
        "contract": "contracts/strategies/Strategy.sol:StrategyV26",
        "label": "_initializing",
        "offset": 1,
        "slot": "1",
        "type": "t_bool"
      },
      {
        "astId": 54163,
        "contract": "contracts/strategies/Strategy.sol:StrategyV26",
        "label": "controller",
        "offset": 2,
        "slot": "1",
        "type": "t_contract(IBabController)42452"
      },
      {
        "astId": 54166,
        "contract": "contracts/strategies/Strategy.sol:StrategyV26",
        "label": "opTypes",
        "offset": 0,
        "slot": "2",
        "type": "t_array(t_uint8)dyn_storage"
      },
      {
        "astId": 54169,
        "contract": "contracts/strategies/Strategy.sol:StrategyV26",
        "label": "opIntegrations",
        "offset": 0,
        "slot": "3",
        "type": "t_array(t_address)dyn_storage"
      },
      {
        "astId": 54172,
        "contract": "contracts/strategies/Strategy.sol:StrategyV26",
        "label": "opDatas",
        "offset": 0,
        "slot": "4",
        "type": "t_array(t_address)dyn_storage"
      },
      {
        "astId": 54175,
        "contract": "contracts/strategies/Strategy.sol:StrategyV26",
        "label": "garden",
        "offset": 0,
        "slot": "5",
        "type": "t_contract(IGarden)43266"
      },
      {
        "astId": 54178,
        "contract": "contracts/strategies/Strategy.sol:StrategyV26",
        "label": "strategist",
        "offset": 0,
        "slot": "6",
        "type": "t_address"
      },
      {
        "astId": 54181,
        "contract": "contracts/strategies/Strategy.sol:StrategyV26",
        "label": "enteredAt",
        "offset": 0,
        "slot": "7",
        "type": "t_uint256"
      },
      {
        "astId": 54184,
        "contract": "contracts/strategies/Strategy.sol:StrategyV26",
        "label": "enteredCooldownAt",
        "offset": 0,
        "slot": "8",
        "type": "t_uint256"
      },
      {
        "astId": 54186,
        "contract": "contracts/strategies/Strategy.sol:StrategyV26",
        "label": "executedAt",
        "offset": 0,
        "slot": "9",
        "type": "t_uint256"
      },
      {
        "astId": 54188,
        "contract": "contracts/strategies/Strategy.sol:StrategyV26",
        "label": "updatedAt",
        "offset": 0,
        "slot": "10",
        "type": "t_uint256"
      },
      {
        "astId": 54190,
        "contract": "contracts/strategies/Strategy.sol:StrategyV26",
        "label": "exitedAt",
        "offset": 0,
        "slot": "11",
        "type": "t_uint256"
      },
      {
        "astId": 54193,
        "contract": "contracts/strategies/Strategy.sol:StrategyV26",
        "label": "voters",
        "offset": 0,
        "slot": "12",
        "type": "t_array(t_address)dyn_storage"
      },
      {
        "astId": 54196,
        "contract": "contracts/strategies/Strategy.sol:StrategyV26",
        "label": "totalPositiveVotes",
        "offset": 0,
        "slot": "13",
        "type": "t_uint256"
      },
      {
        "astId": 54199,
        "contract": "contracts/strategies/Strategy.sol:StrategyV26",
        "label": "totalNegativeVotes",
        "offset": 0,
        "slot": "14",
        "type": "t_uint256"
      },
      {
        "astId": 54201,
        "contract": "contracts/strategies/Strategy.sol:StrategyV26",
        "label": "finalized",
        "offset": 0,
        "slot": "15",
        "type": "t_bool"
      },
      {
        "astId": 54203,
        "contract": "contracts/strategies/Strategy.sol:StrategyV26",
        "label": "active",
        "offset": 1,
        "slot": "15",
        "type": "t_bool"
      },
      {
        "astId": 54205,
        "contract": "contracts/strategies/Strategy.sol:StrategyV26",
        "label": "dataSet",
        "offset": 2,
        "slot": "15",
        "type": "t_bool"
      },
      {
        "astId": 54207,
        "contract": "contracts/strategies/Strategy.sol:StrategyV26",
        "label": "hasMiningStarted",
        "offset": 3,
        "slot": "15",
        "type": "t_bool"
      },
      {
        "astId": 54210,
        "contract": "contracts/strategies/Strategy.sol:StrategyV26",
        "label": "duration",
        "offset": 0,
        "slot": "16",
        "type": "t_uint256"
      },
      {
        "astId": 54213,
        "contract": "contracts/strategies/Strategy.sol:StrategyV26",
        "label": "stake",
        "offset": 0,
        "slot": "17",
        "type": "t_uint256"
      },
      {
        "astId": 54216,
        "contract": "contracts/strategies/Strategy.sol:StrategyV26",
        "label": "maxCapitalRequested",
        "offset": 0,
        "slot": "18",
        "type": "t_uint256"
      },
      {
        "astId": 54219,
        "contract": "contracts/strategies/Strategy.sol:StrategyV26",
        "label": "capitalAllocated",
        "offset": 0,
        "slot": "19",
        "type": "t_uint256"
      },
      {
        "astId": 54222,
        "contract": "contracts/strategies/Strategy.sol:StrategyV26",
        "label": "expectedReturn",
        "offset": 0,
        "slot": "20",
        "type": "t_uint256"
      },
      {
        "astId": 54225,
        "contract": "contracts/strategies/Strategy.sol:StrategyV26",
        "label": "capitalReturned",
        "offset": 0,
        "slot": "21",
        "type": "t_uint256"
      },
      {
        "astId": 54227,
        "contract": "contracts/strategies/Strategy.sol:StrategyV26",
        "label": "startingGardenSupply",
        "offset": 0,
        "slot": "22",
        "type": "t_uint256"
      },
      {
        "astId": 54230,
        "contract": "contracts/strategies/Strategy.sol:StrategyV26",
        "label": "tokensNeeded",
        "offset": 0,
        "slot": "23",
        "type": "t_array(t_address)dyn_storage"
      },
      {
        "astId": 54233,
        "contract": "contracts/strategies/Strategy.sol:StrategyV26",
        "label": "tokenAmountsNeeded",
        "offset": 0,
        "slot": "24",
        "type": "t_array(t_uint256)dyn_storage"
      },
      {
        "astId": 54236,
        "contract": "contracts/strategies/Strategy.sol:StrategyV26",
        "label": "strategyRewards",
        "offset": 0,
        "slot": "25",
        "type": "t_uint256"
      },
      {
        "astId": 54238,
        "contract": "contracts/strategies/Strategy.sol:StrategyV26",
        "label": "endingGardenSupply",
        "offset": 0,
        "slot": "26",
        "type": "t_uint256"
      },
      {
        "astId": 54242,
        "contract": "contracts/strategies/Strategy.sol:StrategyV26",
        "label": "votes",
        "offset": 0,
        "slot": "27",
        "type": "t_mapping(t_address,t_int256)"
      },
      {
        "astId": 54245,
        "contract": "contracts/strategies/Strategy.sol:StrategyV26",
        "label": "opEncodedData",
        "offset": 0,
        "slot": "28",
        "type": "t_bytes_storage"
      },
      {
        "astId": 54247,
        "contract": "contracts/strategies/Strategy.sol:StrategyV26",
        "label": "rewardsDistributor",
        "offset": 0,
        "slot": "29",
        "type": "t_contract(IRewardsDistributor)44454"
      },
      {
        "astId": 54250,
        "contract": "contracts/strategies/Strategy.sol:StrategyV26",
        "label": "maxAllocationPercentage",
        "offset": 0,
        "slot": "30",
        "type": "t_uint256"
      },
      {
        "astId": 54253,
        "contract": "contracts/strategies/Strategy.sol:StrategyV26",
        "label": "maxGasFeePercentage",
        "offset": 0,
        "slot": "31",
        "type": "t_uint256"
      },
      {
        "astId": 54256,
        "contract": "contracts/strategies/Strategy.sol:StrategyV26",
        "label": "maxTradeSlippagePercentage",
        "offset": 0,
        "slot": "32",
        "type": "t_uint256"
      }
    ],
    "types": {
      "t_address": {
        "encoding": "inplace",
        "label": "address",
        "numberOfBytes": "20"
      },
      "t_array(t_address)dyn_storage": {
        "base": "t_address",
        "encoding": "dynamic_array",
        "label": "address[]",
        "numberOfBytes": "32"
      },
      "t_array(t_uint256)dyn_storage": {
        "base": "t_uint256",
        "encoding": "dynamic_array",
        "label": "uint256[]",
        "numberOfBytes": "32"
      },
      "t_array(t_uint8)dyn_storage": {
        "base": "t_uint8",
        "encoding": "dynamic_array",
        "label": "uint8[]",
        "numberOfBytes": "32"
      },
      "t_bool": {
        "encoding": "inplace",
        "label": "bool",
        "numberOfBytes": "1"
      },
      "t_bytes_storage": {
        "encoding": "bytes",
        "label": "bytes",
        "numberOfBytes": "32"
      },
      "t_contract(IBabController)42452": {
        "encoding": "inplace",
        "label": "contract IBabController",
        "numberOfBytes": "20"
      },
      "t_contract(IGarden)43266": {
        "encoding": "inplace",
        "label": "contract IGarden",
        "numberOfBytes": "20"
      },
      "t_contract(IRewardsDistributor)44454": {
        "encoding": "inplace",
        "label": "contract IRewardsDistributor",
        "numberOfBytes": "20"
      },
      "t_int256": {
        "encoding": "inplace",
        "label": "int256",
        "numberOfBytes": "32"
      },
      "t_mapping(t_address,t_int256)": {
        "encoding": "mapping",
        "key": "t_address",
        "label": "mapping(address => int256)",
        "numberOfBytes": "32",
        "value": "t_int256"
      },
      "t_uint256": {
        "encoding": "inplace",
        "label": "uint256",
        "numberOfBytes": "32"
      },
      "t_uint8": {
        "encoding": "inplace",
        "label": "uint8",
        "numberOfBytes": "1"
      }
    }
  }
}