{
  "address": "0xA16c239413b4Ea8815Ce0694760e0342fD5aA0A1",
  "abi": [
    {
      "anonymous": false,
      "inputs": [
        {
          "indexed": true,
          "internalType": "address",
          "name": "_target",
          "type": "address"
        },
        {
          "indexed": true,
          "internalType": "uint256",
          "name": "_value",
          "type": "uint256"
        },
        {
          "indexed": false,
          "internalType": "bytes",
          "name": "_data",
          "type": "bytes"
        },
        {
          "indexed": false,
          "internalType": "bytes",
          "name": "_returnValue",
          "type": "bytes"
        }
      ],
      "name": "Invoked",
      "type": "event"
    },
    {
      "anonymous": false,
      "inputs": [
        {
          "indexed": true,
          "internalType": "address",
          "name": "_garden",
          "type": "address"
        },
        {
          "indexed": false,
          "internalType": "uint256",
          "name": "_timestamp",
          "type": "uint256"
        }
      ],
      "name": "StrategyDeleted",
      "type": "event"
    },
    {
      "anonymous": false,
      "inputs": [
        {
          "indexed": false,
          "internalType": "uint256",
          "name": "_newDuration",
          "type": "uint256"
        },
        {
          "indexed": false,
          "internalType": "uint256",
          "name": "_oldDuration",
          "type": "uint256"
        }
      ],
      "name": "StrategyDurationChanged",
      "type": "event"
    },
    {
      "anonymous": false,
      "inputs": [
        {
          "indexed": true,
          "internalType": "address",
          "name": "_garden",
          "type": "address"
        },
        {
          "indexed": false,
          "internalType": "uint256",
          "name": "_capital",
          "type": "uint256"
        },
        {
          "indexed": false,
          "internalType": "uint256",
          "name": "_fee",
          "type": "uint256"
        },
        {
          "indexed": false,
          "internalType": "uint256",
          "name": "timestamp",
          "type": "uint256"
        }
      ],
      "name": "StrategyExecuted",
      "type": "event"
    },
    {
      "anonymous": false,
      "inputs": [
        {
          "indexed": true,
          "internalType": "address",
          "name": "_garden",
          "type": "address"
        },
        {
          "indexed": false,
          "internalType": "uint256",
          "name": "_timestamp",
          "type": "uint256"
        }
      ],
      "name": "StrategyExpired",
      "type": "event"
    },
    {
      "anonymous": false,
      "inputs": [
        {
          "indexed": true,
          "internalType": "address",
          "name": "_garden",
          "type": "address"
        },
        {
          "indexed": false,
          "internalType": "uint256",
          "name": "_capitalReturned",
          "type": "uint256"
        },
        {
          "indexed": false,
          "internalType": "uint256",
          "name": "_fee",
          "type": "uint256"
        },
        {
          "indexed": false,
          "internalType": "uint256",
          "name": "timestamp",
          "type": "uint256"
        }
      ],
      "name": "StrategyFinalized",
      "type": "event"
    },
    {
      "anonymous": false,
      "inputs": [
        {
          "indexed": true,
          "internalType": "address",
          "name": "_garden",
          "type": "address"
        },
        {
          "indexed": false,
          "internalType": "uint256",
          "name": "_amountReduced",
          "type": "uint256"
        },
        {
          "indexed": false,
          "internalType": "uint256",
          "name": "timestamp",
          "type": "uint256"
        }
      ],
      "name": "StrategyReduced",
      "type": "event"
    },
    {
      "anonymous": false,
      "inputs": [
        {
          "indexed": true,
          "internalType": "address",
          "name": "_garden",
          "type": "address"
        },
        {
          "indexed": false,
          "internalType": "uint256",
          "name": "totalPositiveVotes",
          "type": "uint256"
        },
        {
          "indexed": false,
          "internalType": "uint256",
          "name": "totalNegativeVotes",
          "type": "uint256"
        },
        {
          "indexed": false,
          "internalType": "uint256",
          "name": "_timestamp",
          "type": "uint256"
        }
      ],
      "name": "StrategyVoted",
      "type": "event"
    },
    {
      "inputs": [],
      "name": "capitalAllocated",
      "outputs": [
        {
          "internalType": "uint256",
          "name": "",
          "type": "uint256"
        }
      ],
      "stateMutability": "view",
      "type": "function"
    },
    {
      "inputs": [],
      "name": "capitalReturned",
      "outputs": [
        {
          "internalType": "uint256",
          "name": "",
          "type": "uint256"
        }
      ],
      "stateMutability": "view",
      "type": "function"
    },
    {
      "inputs": [
        {
          "internalType": "uint256",
          "name": "_newDuration",
          "type": "uint256"
        }
      ],
      "name": "changeStrategyDuration",
      "outputs": [],
      "stateMutability": "nonpayable",
      "type": "function"
    },
    {
      "inputs": [],
      "name": "deleteCandidateStrategy",
      "outputs": [],
      "stateMutability": "nonpayable",
      "type": "function"
    },
    {
      "inputs": [],
      "name": "duration",
      "outputs": [
        {
          "internalType": "uint256",
          "name": "",
          "type": "uint256"
        }
      ],
      "stateMutability": "view",
      "type": "function"
    },
    {
      "inputs": [],
      "name": "enteredAt",
      "outputs": [
        {
          "internalType": "uint256",
          "name": "",
          "type": "uint256"
        }
      ],
      "stateMutability": "view",
      "type": "function"
    },
    {
      "inputs": [],
      "name": "enteredCooldownAt",
      "outputs": [
        {
          "internalType": "uint256",
          "name": "",
          "type": "uint256"
        }
      ],
      "stateMutability": "view",
      "type": "function"
    },
    {
      "inputs": [
        {
          "internalType": "uint256",
          "name": "_capital",
          "type": "uint256"
        },
        {
          "internalType": "uint256",
          "name": "_fee",
          "type": "uint256"
        }
      ],
      "name": "executeStrategy",
      "outputs": [],
      "stateMutability": "nonpayable",
      "type": "function"
    },
    {
      "inputs": [],
      "name": "expectedReturn",
      "outputs": [
        {
          "internalType": "uint256",
          "name": "",
          "type": "uint256"
        }
      ],
      "stateMutability": "view",
      "type": "function"
    },
    {
      "inputs": [
        {
          "internalType": "uint256",
          "name": "_fee",
          "type": "uint256"
        }
      ],
      "name": "expireStrategy",
      "outputs": [],
      "stateMutability": "nonpayable",
      "type": "function"
    },
    {
      "inputs": [
        {
          "internalType": "uint256",
          "name": "_fee",
          "type": "uint256"
        },
        {
          "internalType": "string",
          "name": "_tokenURI",
          "type": "string"
        }
      ],
      "name": "finalizeStrategy",
      "outputs": [],
      "stateMutability": "nonpayable",
      "type": "function"
    },
    {
      "inputs": [],
      "name": "garden",
      "outputs": [
        {
          "internalType": "contract IGarden",
          "name": "",
          "type": "address"
        }
      ],
      "stateMutability": "view",
      "type": "function"
    },
    {
      "inputs": [],
      "name": "getNAV",
      "outputs": [
        {
          "internalType": "uint256",
          "name": "",
          "type": "uint256"
        }
      ],
      "stateMutability": "view",
      "type": "function"
    },
    {
      "inputs": [
        {
          "internalType": "uint8",
          "name": "_index",
          "type": "uint8"
        }
      ],
      "name": "getOperationByIndex",
      "outputs": [
        {
          "internalType": "uint8",
          "name": "",
          "type": "uint8"
        },
        {
          "internalType": "address",
          "name": "",
          "type": "address"
        },
        {
          "internalType": "bytes",
          "name": "",
          "type": "bytes"
        }
      ],
      "stateMutability": "view",
      "type": "function"
    },
    {
      "inputs": [],
      "name": "getOperationsCount",
      "outputs": [
        {
          "internalType": "uint256",
          "name": "",
          "type": "uint256"
        }
      ],
      "stateMutability": "view",
      "type": "function"
    },
    {
      "inputs": [],
      "name": "getStrategyDetails",
      "outputs": [
        {
          "internalType": "address",
          "name": "",
          "type": "address"
        },
        {
          "internalType": "address",
          "name": "",
          "type": "address"
        },
        {
          "internalType": "uint256",
          "name": "",
          "type": "uint256"
        },
        {
          "internalType": "uint256",
          "name": "",
          "type": "uint256"
        },
        {
          "internalType": "uint256",
          "name": "",
          "type": "uint256"
        },
        {
          "internalType": "uint256",
          "name": "",
          "type": "uint256"
        },
        {
          "internalType": "uint256",
          "name": "",
          "type": "uint256"
        },
        {
          "internalType": "uint256",
          "name": "",
          "type": "uint256"
        },
        {
          "internalType": "uint256",
          "name": "",
          "type": "uint256"
        },
        {
          "internalType": "uint256",
          "name": "",
          "type": "uint256"
        },
        {
          "internalType": "uint256",
          "name": "",
          "type": "uint256"
        },
        {
          "internalType": "address",
          "name": "",
          "type": "address"
        },
        {
          "internalType": "uint256",
          "name": "",
          "type": "uint256"
        },
        {
          "internalType": "uint256",
          "name": "",
          "type": "uint256"
        }
      ],
      "stateMutability": "view",
      "type": "function"
    },
    {
      "inputs": [],
      "name": "getStrategyState",
      "outputs": [
        {
          "internalType": "address",
          "name": "",
          "type": "address"
        },
        {
          "internalType": "bool",
          "name": "",
          "type": "bool"
        },
        {
          "internalType": "bool",
          "name": "",
          "type": "bool"
        },
        {
          "internalType": "bool",
          "name": "",
          "type": "bool"
        },
        {
          "internalType": "uint256",
          "name": "",
          "type": "uint256"
        },
        {
          "internalType": "uint256",
          "name": "",
          "type": "uint256"
        },
        {
          "internalType": "uint256",
          "name": "",
          "type": "uint256"
        }
      ],
      "stateMutability": "view",
      "type": "function"
    },
    {
      "inputs": [
        {
          "internalType": "address",
          "name": "_address",
          "type": "address"
        }
      ],
      "name": "getUserVotes",
      "outputs": [
        {
          "internalType": "int256",
          "name": "",
          "type": "int256"
        }
      ],
      "stateMutability": "view",
      "type": "function"
    },
    {
      "inputs": [
        {
          "internalType": "bool",
          "name": "_isDeposit",
          "type": "bool"
        },
        {
          "internalType": "uint256",
          "name": "_wethAmount",
          "type": "uint256"
        }
      ],
      "name": "handleWeth",
      "outputs": [],
      "stateMutability": "nonpayable",
      "type": "function"
    },
    {
      "inputs": [
        {
          "internalType": "address",
          "name": "_strategist",
          "type": "address"
        },
        {
          "internalType": "address",
          "name": "_garden",
          "type": "address"
        },
        {
          "internalType": "address",
          "name": "_controller",
          "type": "address"
        },
        {
          "internalType": "uint256",
          "name": "_maxCapitalRequested",
          "type": "uint256"
        },
        {
          "internalType": "uint256",
          "name": "_stake",
          "type": "uint256"
        },
        {
          "internalType": "uint256",
          "name": "_strategyDuration",
          "type": "uint256"
        },
        {
          "internalType": "uint256",
          "name": "_expectedReturn",
          "type": "uint256"
        }
      ],
      "name": "initialize",
      "outputs": [],
      "stateMutability": "nonpayable",
      "type": "function"
    },
    {
      "inputs": [
        {
          "internalType": "address",
          "name": "_spender",
          "type": "address"
        },
        {
          "internalType": "address",
          "name": "_asset",
          "type": "address"
        },
        {
          "internalType": "uint256",
          "name": "_quantity",
          "type": "uint256"
        }
      ],
      "name": "invokeApprove",
      "outputs": [],
      "stateMutability": "nonpayable",
      "type": "function"
    },
    {
      "inputs": [
        {
          "internalType": "address",
          "name": "_target",
          "type": "address"
        },
        {
          "internalType": "uint256",
          "name": "_value",
          "type": "uint256"
        },
        {
          "internalType": "bytes",
          "name": "_data",
          "type": "bytes"
        }
      ],
      "name": "invokeFromIntegration",
      "outputs": [
        {
          "internalType": "bytes",
          "name": "",
          "type": "bytes"
        }
      ],
      "stateMutability": "nonpayable",
      "type": "function"
    },
    {
      "inputs": [],
      "name": "isStrategyActive",
      "outputs": [
        {
          "internalType": "bool",
          "name": "",
          "type": "bool"
        }
      ],
      "stateMutability": "view",
      "type": "function"
    },
    {
      "inputs": [],
      "name": "maxCapitalRequested",
      "outputs": [
        {
          "internalType": "uint256",
          "name": "",
          "type": "uint256"
        }
      ],
      "stateMutability": "view",
      "type": "function"
    },
    {
      "inputs": [],
      "name": "opEncodedData",
      "outputs": [
        {
          "internalType": "bytes",
          "name": "",
          "type": "bytes"
        }
      ],
      "stateMutability": "view",
      "type": "function"
    },
    {
      "inputs": [
        {
          "internalType": "address[]",
          "name": "_voters",
          "type": "address[]"
        },
        {
          "internalType": "int256[]",
          "name": "_votes",
          "type": "int256[]"
        },
        {
          "internalType": "uint256",
          "name": "_fee",
          "type": "uint256"
        }
      ],
      "name": "resolveVoting",
      "outputs": [],
      "stateMutability": "nonpayable",
      "type": "function"
    },
    {
      "inputs": [
        {
          "internalType": "uint8[]",
          "name": "_opTypes",
          "type": "uint8[]"
        },
        {
          "internalType": "address[]",
          "name": "_opIntegrations",
          "type": "address[]"
        },
        {
          "internalType": "bytes",
          "name": "_opEncodedData",
          "type": "bytes"
        }
      ],
      "name": "setData",
      "outputs": [],
      "stateMutability": "nonpayable",
      "type": "function"
    },
    {
      "inputs": [],
      "name": "stake",
      "outputs": [
        {
          "internalType": "uint256",
          "name": "",
          "type": "uint256"
        }
      ],
      "stateMutability": "view",
      "type": "function"
    },
    {
      "inputs": [],
      "name": "strategist",
      "outputs": [
        {
          "internalType": "address",
          "name": "",
          "type": "address"
        }
      ],
      "stateMutability": "view",
      "type": "function"
    },
    {
      "inputs": [],
      "name": "strategyRewards",
      "outputs": [
        {
          "internalType": "uint256",
          "name": "",
          "type": "uint256"
        }
      ],
      "stateMutability": "view",
      "type": "function"
    },
    {
      "inputs": [
        {
          "internalType": "address",
          "name": "_token",
          "type": "address"
        }
      ],
      "name": "sweep",
      "outputs": [],
      "stateMutability": "nonpayable",
      "type": "function"
    },
    {
      "inputs": [],
      "name": "totalNegativeVotes",
      "outputs": [
        {
          "internalType": "uint256",
          "name": "",
          "type": "uint256"
        }
      ],
      "stateMutability": "view",
      "type": "function"
    },
    {
      "inputs": [],
      "name": "totalPositiveVotes",
      "outputs": [
        {
          "internalType": "uint256",
          "name": "",
          "type": "uint256"
        }
      ],
      "stateMutability": "view",
      "type": "function"
    },
    {
      "inputs": [
        {
          "internalType": "address",
          "name": "_sendToken",
          "type": "address"
        },
        {
          "internalType": "uint256",
          "name": "_sendQuantity",
          "type": "uint256"
        },
        {
          "internalType": "address",
          "name": "_receiveToken",
          "type": "address"
        }
      ],
      "name": "trade",
      "outputs": [
        {
          "internalType": "uint256",
          "name": "",
          "type": "uint256"
        }
      ],
      "stateMutability": "nonpayable",
      "type": "function"
    },
    {
      "inputs": [
        {
          "internalType": "uint256",
          "name": "_amountToUnwind",
          "type": "uint256"
        }
      ],
      "name": "unwindStrategy",
      "outputs": [],
      "stateMutability": "nonpayable",
      "type": "function"
    },
    {
      "inputs": [
        {
          "internalType": "uint256",
          "name": "",
          "type": "uint256"
        }
      ],
      "name": "voters",
      "outputs": [
        {
          "internalType": "address",
          "name": "",
          "type": "address"
        }
      ],
      "stateMutability": "view",
      "type": "function"
    },
    {
      "stateMutability": "payable",
      "type": "receive"
    }
  ],
  "transactionHash": "0xf46e63b9eee4d2d450d3846de92820f568fda03729f9635e3e59ab020bdfef0b",
  "args": [],
  "solcInputHash": "919c4cb957bc06f2057992daa482d30a",
  "bytecode": "0x608060405234801561001057600080fd5b50600160005561588380620000266000396000f3fe6080604052600436106102535760003560e01c80636b3b75ea11610138578063bf3fdf0d116100b0578063dd1033f81161007f578063ecbc2cda11610064578063ecbc2cda146109e4578063f101e82b14610b3b578063ffb5cd0914610b6b5761025a565b8063dd1033f8146109a6578063e4df5e1a146109bb5761025a565b8063bf3fdf0d1461093d578063d3406abd14610952578063d40244cb14610967578063da58c7d91461097c5761025a565b806393baae411161010757806397ccdc60116100ec57806397ccdc601461088e578063a30ca204146108d1578063bf1dcfe2146108e65761025a565b806393baae4114610846578063950c78221461085b5761025a565b80636b3b75ea1461065b5780636bc195dd146107155780636db40dc21461081c5780636db9cc99146108315761025a565b8063290d2e91116101cb578063449b98261161019a5780634b0fff0c1161017f5780634b0fff0c1461060757806356ba88b814610631578063577b6ab8146106465761025a565b8063449b98261461053357806348a4beaa146105485761025a565b8063290d2e91146103ca5780632b4656c8146104995780633a4b66f1146104f457806342296724146105095761025a565b80630e32db52116102225780631115bdcf116102075780631115bdcf1461033d5780631a5cfcb7146103675780631fe4a686146103995761025a565b80630e32db52146102e55780630fb5a6b4146103285761025a565b80630126c6061461025f57806301681a621461028657806303976e38146102bb57806303cddb2c146102d05761025a565b3661025a57005b600080fd5b34801561026b57600080fd5b50610274610c0c565b60408051918252519081900360200190f35b34801561029257600080fd5b506102b9600480360360208110156102a957600080fd5b50356001600160a01b0316611048565b005b3480156102c757600080fd5b5061027461131b565b3480156102dc57600080fd5b50610274611321565b3480156102f157600080fd5b506102746004803603606081101561030857600080fd5b506001600160a01b03813581169160208101359160409091013516611327565b34801561033457600080fd5b5061027461134e565b34801561034957600080fd5b506102b96004803603602081101561036057600080fd5b5035611354565b34801561037357600080fd5b506102b96004803603604081101561038a57600080fd5b508035151590602001356114b9565b3480156103a557600080fd5b506103ae6115b2565b604080516001600160a01b039092168252519081900360200190f35b3480156103d657600080fd5b506102b9600480360360608110156103ed57600080fd5b81019060208101813564010000000081111561040857600080fd5b82018360208201111561041a57600080fd5b8035906020019184602083028401116401000000008311171561043c57600080fd5b91939092909160208101903564010000000081111561045a57600080fd5b82018360208201111561046c57600080fd5b8035906020019184602083028401116401000000008311171561048e57600080fd5b9193509150356115c1565b3480156104a557600080fd5b506102b9600480360360e08110156104bc57600080fd5b506001600160a01b03813581169160208101358216916040820135169060608101359060808101359060a08101359060c0013561189f565b34801561050057600080fd5b50610274611f21565b34801561051557600080fd5b506102b96004803603602081101561052c57600080fd5b5035611f27565b34801561053f57600080fd5b5061027461234f565b34801561055457600080fd5b506105756004803603602081101561056b57600080fd5b503560ff16612355565b604051808460ff168152602001836001600160a01b0316815260200180602001828103825283818151815260200191508051906020019080838360005b838110156105ca5781810151838201526020016105b2565b50505050905090810190601f1680156105f75780820380516001836020036101000a031916815260200191505b5094505050505060405180910390f35b34801561061357600080fd5b506102b96004803603602081101561062a57600080fd5b50356123c8565b34801561063d57600080fd5b506103ae61243c565b34801561065257600080fd5b506102b961244b565b34801561066757600080fd5b506102b96004803603604081101561067e57600080fd5b813591908101906040810160208201356401000000008111156106a057600080fd5b8201836020820111156106b257600080fd5b803590602001918460018302840111640100000000831117156106d457600080fd5b91908080601f01602080910402602001604051908101604052809392919081815260200183838082843760009201919091525092955061249f945050505050565b34801561072157600080fd5b506107a76004803603606081101561073857600080fd5b6001600160a01b038235169160208101359181019060608101604082013564010000000081111561076857600080fd5b82018360208201111561077a57600080fd5b8035906020019184600183028401116401000000008311171561079c57600080fd5b509092509050612993565b6040805160208082528351818301528351919283929083019185019080838360005b838110156107e15781810151838201526020016107c9565b50505050905090810190601f16801561080e5780820380516001836020036101000a031916815260200191505b509250505060405180910390f35b34801561082857600080fd5b506102746129df565b34801561083d57600080fd5b506102746129e5565b34801561085257600080fd5b506102746129eb565b34801561086757600080fd5b506102746004803603602081101561087e57600080fd5b50356001600160a01b03166129f1565b34801561089a57600080fd5b506102b9600480360360608110156108b157600080fd5b506001600160a01b03813581169160208101359091169060400135612a0c565b3480156108dd57600080fd5b50610274612a25565b3480156108f257600080fd5b506108fb612a2b565b604080516001600160a01b0390981688529515156020880152931515868601529115156060860152608085015260a084015260c0830152519081900360e00190f35b34801561094957600080fd5b506107a7612a55565b34801561095e57600080fd5b50610274612ae3565b34801561097357600080fd5b50610274612ae9565b34801561098857600080fd5b506103ae6004803603602081101561099f57600080fd5b5035612aef565b3480156109b257600080fd5b50610274612b19565b3480156109c757600080fd5b506109d0612b1f565b604080519115158252519081900360200190f35b3480156109f057600080fd5b506102b960048036036060811015610a0757600080fd5b810190602081018135640100000000811115610a2257600080fd5b820183602082011115610a3457600080fd5b80359060200191846020830284011164010000000083111715610a5657600080fd5b919390929091602081019035640100000000811115610a7457600080fd5b820183602082011115610a8657600080fd5b80359060200191846020830284011164010000000083111715610aa857600080fd5b919390929091602081019035640100000000811115610ac657600080fd5b820183602082011115610ad857600080fd5b80359060200191846001830284011164010000000083111715610afa57600080fd5b91908080601f016020809104026020016040519081016040528093929190818152602001838380828437600092019190915250929550612b37945050505050565b348015610b4757600080fd5b506102b960048036036040811015610b5e57600080fd5b5080359060200135612e38565b348015610b7757600080fd5b50610b80612eb9565b604051808f6001600160a01b031681526020018e6001600160a01b031681526020018d81526020018c81526020018b81526020018a8152602001898152602001888152602001878152602001868152602001858152602001846001600160a01b031681526020018381526020018281526020019e50505050505050505050505050505060405180910390f35b6000806000806000600560009054906101000a90046001600160a01b03166001600160a01b031663f85cb5c86040518163ffffffff1660e01b815260040160206040518083038186803b158015610c6257600080fd5b505afa158015610c76573d6000803e3d6000fd5b505050506040513d6020811015610c8c57600080fd5b5051905060005b600254811015610eb957600154600280546000926201000090046001600160a01b03169163201041989185908110610cc757fe5b90600052602060002090602091828204019190069054906101000a900460ff1660ff166040518263ffffffff1660e01b81526004018082815260200191505060206040518083038186803b158015610d1e57600080fd5b505afa158015610d32573d6000803e3d6000fd5b505050506040513d6020811015610d4857600080fd5b505190506001600160a01b03811663a24258ad610d6484612fb4565b600554600380546001600160a01b039092169187908110610d8157fe5b9060005260206000200160009054906101000a90046001600160a01b03166040518463ffffffff1660e01b81526004018080602001846001600160a01b03168152602001836001600160a01b03168152602001828103825285818151815260200191508051906020019080838360005b83811015610e09578181015183820152602001610df1565b50505050905090810190601f168015610e365780820380516001836020036101000a031916815260200191505b50945050505050604080518083038186803b158015610e5457600080fd5b505afa925050508015610e8057506040513d6040811015610e7457600080fd5b50805160209091015160015b610e8957610eb0565b8015610ea057610e9988836130ad565b9750610ead565b610eaa87836130ad565b96505b50505b50600101610c93565b50600280546000198101919082908110610ecf57fe5b90600052602060002090602091828204019190069054906101000a900460ff1660ff166004141561101d57600454600090610fa757601c8054604080516020601f60026000196101006001881615020190951694909404938401819004810282018101909252828152610fa29390929091830182828015610f915780601f10610f6657610100808354040283529160200191610f91565b820191906000526020600020905b815481529060010190602001808311610f7457829003601f168201915b505050505083604002600c016130c3565b610fca565b60048281548110610fb457fe5b6000918252602090912001546001600160a01b03165b90506000610fe16001600160a01b038316306130cf565b9050801561101a576000610ff58584613170565b905061101661100f8261100986898761328f565b90613450565b89906130ad565b9750505b50505b8484111561103357600095505050505050611045565b61103d858561346e565b955050505050505b90565b61105061347e565b600554604080516370a0823160e01b81523360048201529051611161926000926001600160a01b03909116916370a0823191602480820192602092909190829003018186803b1580156110a257600080fd5b505afa1580156110b6573d6000803e3d6000fd5b505050506040513d60208110156110cc57600080fd5b505111801561115a5750600154600554604080516313bc6d4b60e01b81526001600160a01b039283166004820152905162010000909304909116916313bc6d4b91602480820192602092909190829003018186803b15801561112d57600080fd5b505afa158015611141573d6000803e3d6000fd5b505050506040513d602081101561115757600080fd5b50515b600f613592565b60055460408051631f0b96b960e31b815290516111e9926001600160a01b03169163f85cb5c8916004808301926020929190829003018186803b1580156111a757600080fd5b505afa1580156111bb573d6000803e3d6000fd5b505050506040513d60208110156111d157600080fd5b50516001600160a01b03838116911614156036613592565b600f5461120090610100900460ff16156034613592565b6000816001600160a01b03166370a08231306040518263ffffffff1660e01b815260040180826001600160a01b0316815260200191505060206040518083038186803b15801561124f57600080fd5b505afa158015611263573d6000803e3d6000fd5b505050506040513d602081101561127957600080fd5b5051905061128a8115156008613592565b61130e8282600560009054906101000a90046001600160a01b03166001600160a01b031663f85cb5c86040518163ffffffff1660e01b815260040160206040518083038186803b1580156112dd57600080fd5b505afa1580156112f1573d6000803e3d6000fd5b505050506040513d602081101561130757600080fd5b50516135a0565b50611317613716565b5050565b60155481565b60135481565b600061133161375f565b61133961347e565b6113448484846135a0565b90505b9392505050565b60105481565b600260005414156113ac576040805162461bcd60e51b815260206004820152601f60248201527f5265656e7472616e637947756172643a207265656e7472616e742063616c6c00604482015290519081900360640190fd5b60026000556113b9613853565b6113c16139fb565b600f546113d890610100900460ff16156034613592565b6113fc62093a806113f46007544261346e90919063ffffffff16565b116037613592565b60055460408051634d5b1ba160e11b81523360048201526024810184905290516001600160a01b0390921691639ab637429160448082019260009290919082900301818387803b15801561144f57600080fd5b505af1158015611463573d6000803e3d6000fd5b5050505061146f613a99565b6005546040805142815290516001600160a01b03909216917f7a7d4c833d273b66e431c5f268c42ee3e788541592e07c77f232cd28c89913169181900360200190a2506001600055565b6114c161375f565b6114c961347e565b811561153c5773c02aaa39b223fe8d0a0e5c4f27ead9083c756cc26001600160a01b031663d0e30db0826040518263ffffffff1660e01b81526004016000604051808303818588803b15801561151e57600080fd5b505af1158015611532573d6000803e3d6000fd5b5050505050611317565b73c02aaa39b223fe8d0a0e5c4f27ead9083c756cc26001600160a01b0316632e1a7d4d826040518263ffffffff1660e01b815260040180828152602001915050600060405180830381600087803b15801561159657600080fd5b505af11580156115aa573d6000803e3d6000fd5b505050505050565b6006546001600160a01b031681565b6115c9613853565b6115d16139fb565b600554604080517f5a16656a0000000000000000000000000000000000000000000000000000000081529051611666926001600160a01b031691635a16656a916004808301926020929190829003018186803b15801561163057600080fd5b505afa158015611644573d6000803e3d6000fd5b505050506040513d602081101561165a57600080fd5b50518510156040613592565b600f5461168c90610100900460ff161580156116855750600f5460ff16155b602a613592565b6116b162093a806116a86007544261346e90919063ffffffff16565b1115602b613592565b600f805461ff0019166101001790556000600d819055600e8190555b8481101561179d578383828181106116e157fe5b90506020020135601b60008888858181106116f857fe5b905060200201356001600160a01b03166001600160a01b03166001600160a01b0316815260200190815260200160002081905550600084848381811061173a57fe5b9050602002013513156117765761176e61176585858481811061175957fe5b90506020020135613b3a565b600d54906130ad565b600d55611795565b61179161178885858481811061175957fe5b600e54906130ad565b600e555b6001016116cd565b506117c260006117ba600e54600d5461346e90919063ffffffff16565b116057613592565b6117ce600c868661556f565b50426008819055600554600d54600e546040805192835260208301919091528181019390935291516001600160a01b03909116917f3e6879a258dfdc657938a76339643c34f8d9a80aa5673c95726c61bc57ee0573919081900360600190a260055460408051634d5b1ba160e11b81523360048201526024810184905290516001600160a01b0390921691639ab637429160448082019260009290919082900301818387803b15801561188057600080fd5b505af1158015611894573d6000803e3d6000fd5b505050505050505050565b600154610100900460ff16806118b857506118b8613b51565b806118c6575060015460ff16155b6119015760405162461bcd60e51b815260040180806020018281038252602e81526020018061574b602e913960400191505060405180910390fd5b600154610100900460ff1615801561192b576001805460ff1961ff00199091166101001716811790555b600180547fffffffffffffffffffff0000000000000000000000000000000000000000ffff16620100006001600160a01b0389811682029290921792839055604080516313bc6d4b60e01b81528b8416600482015290516119e69492909204909216916313bc6d4b916024808301926020929190829003018186803b1580156119b357600080fd5b505afa1580156119c7573d6000803e3d6000fd5b505050506040513d60208110156119dd57600080fd5b50516024613592565b600580546001600160a01b0319166001600160a01b038981169190911791829055604080516370a0823160e01b81528b831660048201529051611a819360009316916370a08231916024808301926020929190829003018186803b158015611a4d57600080fd5b505afa158015611a61573d6000803e3d6000fd5b505050506040513d6020811015611a7757600080fd5b5051116025613592565b600554604080517fc40868930000000000000000000000000000000000000000000000000000000081526001600160a01b038b811660048301529151611ba4938893611b9b9391169163c408689391602480820192602092909190829003018186803b158015611af057600080fd5b505afa158015611b04573d6000803e3d6000fd5b505050506040513d6020811015611b1a57600080fd5b5051600554604080516370a0823160e01b81526001600160a01b038f81166004830152915191909216916370a08231916024808301926020929190829003018186803b158015611b6957600080fd5b505afa158015611b7d573d6000803e3d6000fd5b505050506040513d6020811015611b9357600080fd5b50519061346e565b10156007613592565b611bb2600085116026613592565b600554604080517f95cdbedb0000000000000000000000000000000000000000000000000000000081529051611ccc926001600160a01b0316916395cdbedb916004808301926020929190829003018186803b158015611c1157600080fd5b505afa158015611c25573d6000803e3d6000fd5b505050506040513d6020811015611c3b57600080fd5b50518410801590611cc55750600560009054906101000a90046001600160a01b03166001600160a01b031663297ce5986040518163ffffffff1660e01b815260040160206040518083038186803b158015611c9557600080fd5b505afa158015611ca9573d6000803e3d6000fd5b505050506040513d6020811015611cbf57600080fd5b50518411155b6027613592565b600680546001600160a01b0319166001600160a01b038a811691909117909155426007556011859055600154604080517f3f2a554000000000000000000000000000000000000000000000000000000000815290516201000090920490921691633f2a5540916004808301926020929190829003018186803b158015611d5157600080fd5b505afa158015611d65573d6000803e3d6000fd5b505050506040513d6020811015611d7b57600080fd5b5051601d80546001600160a01b0319166001600160a01b039283161790819055604080517fddaa26ad0000000000000000000000000000000000000000000000000000000081529051919092169163ddaa26ad916004808301926020929190829003018186803b158015611dee57600080fd5b505afa158015611e02573d6000803e3d6000fd5b505050506040513d6020811015611e1857600080fd5b5051600754118015611ea25750601d60009054906101000a90046001600160a01b03166001600160a01b031663ddaa26ad6040518163ffffffff1660e01b815260040160206040518083038186803b158015611e7357600080fd5b505afa158015611e87573d6000803e3d6000fd5b505050506040513d6020811015611e9d57600080fd5b505115155b600f805491151563010000000263ff000000199092169190911790556010839055601482905560006013556012859055611edb84613b62565b6001600160a01b0389166000908152601b6020526040902055600d849055600f805462ff0000191690558015611f17576001805461ff00191690555b5050505050505050565b60115481565b60026000541415611f7f576040805162461bcd60e51b815260206004820152601f60248201527f5265656e7472616e637947756172643a207265656e7472616e742063616c6c00604482015290519081900360640190fd5b60026000556005546120b4906001600160a01b0316331480156120215750600154600554604080516313bc6d4b60e01b81526001600160a01b039283166004820152905162010000909304909116916313bc6d4b91602480820192602092909190829003018186803b158015611ff457600080fd5b505afa158015612008573d6000803e3d6000fd5b505050506040513d602081101561201e57600080fd5b50515b806120ad5750600160029054906101000a90046001600160a01b03166001600160a01b0316638da5cb5b6040518163ffffffff1660e01b815260040160206040518083038186803b15801561207557600080fd5b505afa158015612089573d6000803e3d6000fd5b505050506040513d602081101561209f57600080fd5b50516001600160a01b031633145b601f613592565b6120bc61347e565b600f546120e190610100900460ff1680156120da5750600f5460ff16155b602c613592565b6120fe6120f96013548361345090919063ffffffff16565b613bc2565b60135461210b908261346e565b601355600f546301000000900460ff161561218c57601d5460408051636b8bd28360e11b81526004810184905260006024820181905291516001600160a01b039093169263d717a5069260448084019391929182900301818387803b15801561217357600080fd5b505af1158015612187573d6000803e3d6000fd5b505050505b60055460408051631f0b96b960e31b815290516122f6926001600160a01b031691829163f85cb5c891600480820192602092909190829003018186803b1580156121d557600080fd5b505afa1580156121e9573d6000803e3d6000fd5b505050506040513d60208110156121ff57600080fd5b5051604080516370a0823160e01b815230600482015290516001600160a01b03909216916370a0823191602480820192602092909190829003018186803b15801561224957600080fd5b505afa15801561225d573d6000803e3d6000fd5b505050506040513d602081101561227357600080fd5b505160055460408051631f0b96b960e31b815290516001600160a01b039092169163f85cb5c891600480820192602092909190829003018186803b1580156122ba57600080fd5b505afa1580156122ce573d6000803e3d6000fd5b505050506040513d60208110156122e457600080fd5b50516001600160a01b03169190613e88565b42600a81905560055460408051848152602081019390935280516001600160a01b03909216927fcff91fcd7fff5d12ce9ee075980ad73fde31d99f583cb228a04ee0ef4f34ba6f929081900390910190a2506001600055565b600e5481565b600080606060028460ff168154811061236a57fe5b90600052602060002090602091828204019190069054906101000a900460ff1660038560ff168154811061239a57fe5b6000918252602090912001546001600160a01b03166123bb60ff8716612fb4565b9250925092509193909250565b6123d0613f08565b6123d861347e565b600f546123ea9060ff16156032613592565b6123f960105482106035613592565b60105460408051838152602081019290925280517f42fb010605de46a36c4814784d207e3b8a1ce9f6773eaea652c07d2a07e95e579281900390910190a1601055565b6005546001600160a01b031681565b612453613f08565b61245b613a99565b6005546040805142815290516001600160a01b03909216917f4dcd504f23c1c204f965486c526a1e35cfb215bb4823dd1be0a172277bb1b3459181900360200190a2565b600260005414156124f7576040805162461bcd60e51b815260206004820152601f60248201527f5265656e7472616e637947756172643a207265656e7472616e742063616c6c00604482015290519081900360640190fd5b6002600055612504613853565b61250c6139fb565b61251c6000600954116030613592565b61253f6125366010546009546130ad90919063ffffffff16565b42116031613592565b600f546125519060ff16156032613592565b60055460408051631f0b96b960e31b815290516000926001600160a01b03169163f85cb5c8916004808301926020929190829003018186803b15801561259657600080fd5b505afa1580156125aa573d6000803e3d6000fd5b505050506040513d60208110156125c057600080fd5b5051604080516370a0823160e01b815230600482015290516001600160a01b03909216916370a0823191602480820192602092909190829003018186803b15801561260a57600080fd5b505afa15801561261e573d6000803e3d6000fd5b505050506040513d602081101561263457600080fd5b50519050612649670de0b6b3a7640000613bc2565b61270f81600560009054906101000a90046001600160a01b03166001600160a01b031663f85cb5c86040518163ffffffff1660e01b815260040160206040518083038186803b15801561269b57600080fd5b505afa1580156126af573d6000803e3d6000fd5b505050506040513d60208110156126c557600080fd5b5051604080516370a0823160e01b815230600482015290516001600160a01b03909216916370a0823191602480820192602092909190829003018186803b158015611b6957600080fd5b601555600f8054600160ff19909116811761ff00191690915542600b5554604080517fd6a45aa50000000000000000000000000000000000000000000000000000000081529051620100009092046001600160a01b03169163d6a45aa591600481810192602092909190829003018186803b15801561278d57600080fd5b505afa1580156127a1573d6000803e3d6000fd5b505050506040513d60208110156127b757600080fd5b5051600654604080517f3b5bb1d50000000000000000000000000000000000000000000000000000000081526001600160a01b0392831660048201818152602483019384528751604484015287519490951694633b5bb1d594919388939192909160640190602085019080838360005b8381101561283f578181015183820152602001612827565b50505050905090810190601f16801561286c5780820380516001836020036101000a031916815260200191505b509350505050602060405180830381600087803b15801561288c57600080fd5b505af11580156128a0573d6000803e3d6000fd5b505050506040513d60208110156128b657600080fd5b505060055460408051634d5b1ba160e11b81523360048201526024810186905290516001600160a01b0390921691639ab637429160448082019260009290919082900301818387803b15801561290b57600080fd5b505af115801561291f573d6000803e3d6000fd5b5050505061292b613fad565b612933613716565b600b54600a5560055460155460408051918252602082018690524282820152516001600160a01b03909216917f2d21f7a1772dd51a6d96bd1cb40623cb13b73fd3d037618d9688707ce1b5b9569181900360600190a25050600160005550565b60606129d6858585858080601f0160208091040260200160405190810160405280939291908181526020018383808284376000920191909152506146c992505050565b95945050505050565b60195481565b60075481565b60125481565b6001600160a01b03166000908152601b602052604090205490565b612a206001600160a01b03831684836147f3565b505050565b60085481565b600f54600954600b54600a54309460ff610100860481169562010000810482169591169390929091565b601c805460408051602060026001851615610100026000190190941693909304601f81018490048402820184019092528181529291830182828015612adb5780601f10612ab057610100808354040283529160200191612adb565b820191906000526020600020905b815481529060010190602001808311612abe57829003601f168201915b505050505081565b60145481565b600d5481565b600c8181548110612aff57600080fd5b6000918252602090912001546001600160a01b0316905081565b60025490565b600080600954118015612b325750600b54155b905090565b600554612bf0906001600160a01b031633148015612b5e5750600f5462010000900460ff16155b8015612be95750600154600554604080516313bc6d4b60e01b81526001600160a01b039283166004820152905162010000909304909116916313bc6d4b91602480820192602092909190829003018186803b158015612bbc57600080fd5b505afa158015612bd0573d6000803e3d6000fd5b505050506040513d6020811015612be657600080fd5b50515b6022613592565b8051600090612c0090604061494d565b9050612c1a8584148015612c1357508382145b604b613592565b612c33600682108015612c13575060008211604b613592565b60005b85811015612df0576001546201000090046001600160a01b03166320104198888884818110612c6157fe5b9050602002013560ff166040518263ffffffff1660e01b8152600401808260ff16815260200191505060206040518083038186803b158015612ca257600080fd5b505afa158015612cb6573d6000803e3d6000fd5b505050506040513d6020811015612ccc57600080fd5b50516001600160a01b031663cdea2034612ce685846149b4565b6005546001600160a01b0316888886818110612cfe57fe5b905060200201356001600160a01b0316856040518563ffffffff1660e01b81526004018080602001856001600160a01b03168152602001846001600160a01b03168152602001838152602001828103825286818151815260200191508051906020019080838360005b83811015612d7f578181015183820152602001612d67565b50505050905090810190601f168015612dac5780820380516001836020036101000a031916815260200191505b509550505050505060006040518083038186803b158015612dcc57600080fd5b505afa158015612de0573d6000803e3d6000fd5b505060019092019150612c369050565b50612dfd600287876155ce565b50612e0a6003858561556f565b508151612e1e90601c906020850190615672565b5050600f805462ff00001916620100001790555050505050565b60026000541415612e90576040805162461bcd60e51b815260206004820152601f60248201527f5265656e7472616e637947756172643a207265656e7472616e742063616c6c00604482015290519081900360640190fd5b6002600055612e9d613853565b612ea56139fb565b612eb08282336149c5565b50506001600055565b60008060008060008060008060008060008060008030600660009054906101000a90046001600160a01b0316600380549050601154600d54600e54601354601554601054601454601254600160029054906101000a90046001600160a01b03166001600160a01b031663d6a45aa56040518163ffffffff1660e01b815260040160206040518083038186803b158015612f5157600080fd5b505afa158015612f65573d6000803e3d6000fd5b505050506040513d6020811015612f7b57600080fd5b5051600754612f88610c0c565b9d509d509d509d509d509d509d509d509d509d509d509d509d509d50909192939495969798999a9b9c9d565b60045460609060009061305e57601c8054604080516020601f60026000196101006001881615020190951694909404938401819004810282018101909252828152613059939092909183018282801561304e5780601f106130235761010080835404028352916020019161304e565b820191906000526020600020905b81548152906001019060200180831161303157829003601f168201915b5050505050846149b4565b611347565b6004838154811061306b57fe5b6000918252602080832090910154604080516001600160a01b039092169282019290925280820192909252805180830382018152606090920190529392505050565b808201828110156130bd57600080fd5b92915050565b60006113478383614c8c565b60006130da83614d00565b156130f057506001600160a01b038116316130bd565b826001600160a01b03166370a08231836040518263ffffffff1660e01b815260040180826001600160a01b0316815260200191505060206040518083038186803b15801561313d57600080fd5b505afa158015613151573d6000803e3d6000fd5b505050506040513d602081101561316757600080fd5b505190506130bd565b6000600160029054906101000a90046001600160a01b03166001600160a01b0316632630c12f6040518163ffffffff1660e01b815260040160206040518083038186803b1580156131c057600080fd5b505afa1580156131d4573d6000803e3d6000fd5b505050506040513d60208110156131ea57600080fd5b5051604080517fac41865a0000000000000000000000000000000000000000000000000000000081526001600160a01b03868116600483015285811660248301529151919092169163ac41865a916044808301926020929190829003018186803b15801561325757600080fd5b505afa92505050801561327c57506040513d602081101561327757600080fd5b505160015b613288575060006130bd565b90506130bd565b60008061329b85614d0d565b61330957846001600160a01b031663313ce5676040518163ffffffff1660e01b815260040160206040518083038186803b1580156132d857600080fd5b505afa1580156132ec573d6000803e3d6000fd5b505050506040513d602081101561330257600080fd5b505161330c565b60125b60ff169050600061331c85614d0d565b61338a57846001600160a01b031663313ce5676040518163ffffffff1660e01b815260040160206040518083038186803b15801561335957600080fd5b505afa15801561336d573d6000803e3d6000fd5b505050506040513d602081101561338357600080fd5b505161338d565b60125b60ff169050601282111580156133a4575060128111155b6133f5576040805162461bcd60e51b815260206004820152601460248201527f556e737570706f7274656420646563696d616c73000000000000000000000000604482015290519081900360640190fd5b80821415613407578392505050611347565b8181111561342f5761342661341c828461346e565b8590600a0a614d43565b92505050611347565b61344661343c838361346e565b8590600a0a61494d565b9695505050505050565b60006113478261346885670de0b6b3a7640000614d43565b9061494d565b808203828111156130bd57600080fd5b60015460408051635b14f18360e01b81523060048201529051613590926201000090046001600160a01b031691635b14f183916024808301926020929190829003018186803b1580156134d057600080fd5b505afa1580156134e4573d6000803e3d6000fd5b505050506040513d60208110156134fa57600080fd5b505115806135895750600160029054906101000a90046001600160a01b03166001600160a01b0316638da5cb5b6040518163ffffffff1660e01b815260040160206040518083038186803b15801561355157600080fd5b505afa158015613565573d6000803e3d6000fd5b505050506040513d602081101561357b57600080fd5b50516001600160a01b031633145b6053613592565b565b816113175761131781614d67565b600080600160029054906101000a90046001600160a01b03166001600160a01b0316636176605e6040518163ffffffff1660e01b815260040160206040518083038186803b1580156135f157600080fd5b505afa158015613605573d6000803e3d6000fd5b505050506040513d602081101561361b57600080fd5b50519050600061362b8685613170565b905061363a8115156062613592565b6000613650878661364b8986614dba565b61328f565b9050600061366f6136688366b1a2bc2ec50000614dba565b839061346e565b604080517ffa1ca8200000000000000000000000000000000000000000000000000000000081523060048201526001600160a01b038b81166024830152604482018b905289811660648301526084820184905291519293509086169163fa1ca8209160a48082019260009290919082900301818387803b1580156136f257600080fd5b505af1158015613706573d6000803e3d6000fd5b50929a9950505050505050505050565b60055460408051631f0b96b960e31b81529051613590926001600160a01b031691829163f85cb5c891600480820192602092909190829003018186803b1580156121d557600080fd5b6000805b60025460ff8216101561384457818061383a5750600160029054906101000a90046001600160a01b03166001600160a01b0316632010419860028360ff16815481106137ab57fe5b90600052602060002090602091828204019190069054906101000a900460ff166040518263ffffffff1660e01b8152600401808260ff16815260200191505060206040518083038186803b15801561380257600080fd5b505afa158015613816573d6000803e3d6000fd5b505050506040513d602081101561382c57600080fd5b50516001600160a01b031633145b9150600101613763565b5061385081604c613592565b50565b600554604080517f02fb0c5e0000000000000000000000000000000000000000000000000000000081529051613975926001600160a01b0316916302fb0c5e916004808301926020929190829003018186803b1580156138b257600080fd5b505afa1580156138c6573d6000803e3d6000fd5b505050506040513d60208110156138dc57600080fd5b50511515600114801561396e5750600154600554604080516313bc6d4b60e01b81526001600160a01b039283166004820152905162010000909304909116916313bc6d4b91602480820192602092909190829003018186803b15801561394157600080fd5b505afa158015613955573d6000803e3d6000fd5b505050506040513d602081101561396b57600080fd5b50515b6023613592565b60015460408051635b14f18360e01b81523060048201529051613590926201000090046001600160a01b031691635b14f183916024808301926020929190829003018186803b1580156139c757600080fd5b505afa1580156139db573d6000803e3d6000fd5b505050506040513d60208110156139f157600080fd5b5051156053613592565b600154604080517f411137c30000000000000000000000000000000000000000000000000000000081523360048201529051613590926201000090046001600160a01b03169163411137c3916024808301926020929190829003018186803b158015613a6657600080fd5b505afa158015613a7a573d6000803e3d6000fd5b505050506040513d6020811015613a9057600080fd5b50516012613592565b613aa96009546000146038613592565b600f54613abb9060ff16156032613592565b600554604080517fb2644e6600000000000000000000000000000000000000000000000000000000815230600482015290516001600160a01b039092169163b2644e669160248082019260009290919082900301818387803b158015613b2057600080fd5b505af1158015613b34573d6000803e3d6000fd5b50505050565b600080821215613b4d57816000036130bd565b5090565b6000613b5c30614dd2565b15905090565b60007f80000000000000000000000000000000000000000000000000000000000000008210613b4d5760405162461bcd60e51b81526004018080602001828103825260288152602001806157a26028913960400191505060405180910390fd5b60055460408051631f0b96b960e31b815290516000926001600160a01b03169163f85cb5c8916004808301926020929190829003018186803b158015613c0757600080fd5b505afa158015613c1b573d6000803e3d6000fd5b505050506040513d6020811015613c3157600080fd5b505160025490915060009081905b8015613e8157600154600280546000926201000090046001600160a01b0316916320104198916000198601908110613c7357fe5b90600052602060002090602091828204019190069054906101000a900460ff166040518263ffffffff1660e01b8152600401808260ff16815260200191505060206040518083038186803b158015613cca57600080fd5b505afa158015613cde573d6000803e3d6000fd5b505050506040513d6020811015613cf457600080fd5b505190506001600160a01b03811663bdd7a79c8686868a613d186000198901612fb4565b600554600380546001600160a01b03909216916000198c01908110613d3957fe5b9060005260206000200160009054906101000a90046001600160a01b03166040518863ffffffff1660e01b815260040180886001600160a01b031681526020018781526020018660ff16815260200185815260200180602001846001600160a01b03168152602001836001600160a01b03168152602001828103825285818151815260200191508051906020019080838360005b83811015613de5578181015183820152602001613dcd565b50505050905090810190601f168015613e125780820380516001836020036101000a031916815260200191505b5098505050505050505050606060405180830381600087803b158015613e3757600080fd5b505af1158015613e4b573d6000803e3d6000fd5b505050506040513d6060811015613e6157600080fd5b508051602082015160409092015190965090945092505060001901613c3f565b5050505050565b604080516001600160a01b038416602482015260448082018490528251808303909101815260649091019091526020810180517bffffffffffffffffffffffffffffffffffffffffffffffffffffffff167fa9059cbb00000000000000000000000000000000000000000000000000000000179052612a20908490614dd8565b600654613590906001600160a01b0316331480613fa65750600160029054906101000a90046001600160a01b03166001600160a01b0316638da5cb5b6040518163ffffffff1660e01b815260040160206040518083038186803b158015613f6e57600080fd5b505afa158015613f82573d6000803e3d6000fd5b505050506040513d6020811015613f9857600080fd5b50516001600160a01b031633145b6020613592565b60055460408051631f0b96b960e31b815290516000926001600160a01b03169163f85cb5c8916004808301926020929190829003018186803b158015613ff257600080fd5b505afa158015614006573d6000803e3d6000fd5b505050506040513d602081101561401c57600080fd5b50516013549091506000906140459061403490613b62565b61403f601554613b62565b90614e89565b90506000806013546015541161405c57600061406b565b60135460155461406b9161346e565b9050601354601554106141a6576140fc81600160029054906101000a90046001600160a01b03166001600160a01b031663568c08136040518163ffffffff1660e01b815260040160206040518083038186803b1580156140ca57600080fd5b505afa1580156140de573d6000803e3d6000fd5b505050506040513d60208110156140f457600080fd5b505190614dba565b915061418c600160029054906101000a90046001600160a01b03166001600160a01b03166361d027b36040518163ffffffff1660e01b815260040160206040518083038186803b15801561414f57600080fd5b505afa158015614163573d6000803e3d6000fd5b505050506040513d602081101561417957600080fd5b50516001600160a01b0386169084613e88565b61419f61419883613b62565b8490614e89565b925061438f565b60006141e96718493fba64ef00006141e36141da6011546141d460135460155461345090919063ffffffff16565b90614dba565b6011549061346e565b90614eee565b600554600654604080516370a0823160e01b81526001600160a01b0392831660048201529051939450849391909216916370a08231916024808301926020929190829003018186803b15801561423e57600080fd5b505afa158015614252573d6000803e3d6000fd5b505050506040513d602081101561426857600080fd5b505110156142ef57600554600654604080516370a0823160e01b81526001600160a01b039283166004820152905191909216916370a08231916024808301926020929190829003018186803b1580156142c057600080fd5b505afa1580156142d4573d6000803e3d6000fd5b505050506040513d60208110156142ea57600080fd5b505190505b600554600654604080517f2befcc5c0000000000000000000000000000000000000000000000000000000081526001600160a01b0392831660048201526024810185905290519190921691632befcc5c91604480830192600092919082900301818387803b15801561436057600080fd5b505af1158015614374573d6000803e3d6000fd5b5050505061438b8185614f0a90919063ffffffff16565b9350505b6005546015546143be916001600160a01b0316906143ad908561346e565b6001600160a01b0387169190613e88565b601d546001600160a01b031661446857600160029054906101000a90046001600160a01b03166001600160a01b0316633f2a55406040518163ffffffff1660e01b815260040160206040518083038186803b15801561441c57600080fd5b505afa158015614430573d6000803e3d6000fd5b505050506040513d602081101561444657600080fd5b5051601d80546001600160a01b0319166001600160a01b039092169190911790555b601d54600554604080517f070e8a4a0000000000000000000000000000000000000000000000000000000081526001600160a01b0392831660048201529051600093929092169163070e8a4a91602480820192606092909190829003018186803b1580156144d557600080fd5b505afa1580156144e9573d6000803e3d6000fd5b505050506040513d601f19601f82011682018060405250606081101561450e57600080fd5b506005549091506001600160a01b0316635bb3cf296145498561454361453c86600260200201518890614dba565b879061346e565b9061346e565b866040518363ffffffff1660e01b81526004018083815260200182815260200192505050600060405180830381600087803b15801561458757600080fd5b505af115801561459b573d6000803e3d6000fd5b5050600f546301000000900460ff16159150613e81905057601d5460135460408051636b8bd28360e11b8152600481019290925260006024830181905290516001600160a01b039093169263d717a50692604480820193929182900301818387803b15801561460957600080fd5b505af115801561461d573d6000803e3d6000fd5b5050601d54604080517f9de9a05200000000000000000000000000000000000000000000000000000000815230600482015290516001600160a01b039092169350639de9a0529250602480820192602092909190829003018186803b15801561468557600080fd5b505afa158015614699573d6000803e3d6000fd5b505050506040513d60208110156146af57600080fd5b50516bffffffffffffffffffffffff166019555050505050565b60606146df6001600160a01b0385168385614f6f565b905082846001600160a01b03167f2a936dbabeaea30adc1ddad138b1958497988474bef8b09a29411f0105ab8ab28484604051808060200180602001838103835285818151815260200191508051906020019080838360005b83811015614750578181015183820152602001614738565b50505050905090810190601f16801561477d5780820380516001836020036101000a031916815260200191505b50838103825284518152845160209182019186019080838360005b838110156147b0578181015183820152602001614798565b50505050905090810190601f1680156147dd5780820380516001836020036101000a031916815260200191505b5094505050505060405180910390a39392505050565b8015806148925750604080517fdd62ed3e0000000000000000000000000000000000000000000000000000000081523060048201526001600160a01b03848116602483015291519185169163dd62ed3e91604480820192602092909190829003018186803b15801561486457600080fd5b505afa158015614878573d6000803e3d6000fd5b505050506040513d602081101561488e57600080fd5b5051155b6148cd5760405162461bcd60e51b81526004018080602001828103825260368152602001806158186036913960400191505060405180910390fd5b604080516001600160a01b038416602482015260448082018490528251808303909101815260649091019091526020810180517bffffffffffffffffffffffffffffffffffffffffffffffffffffffff167f095ea7b300000000000000000000000000000000000000000000000000000000179052612a20908490614dd8565b60008082116149a3576040805162461bcd60e51b815260206004820152601a60248201527f536166654d6174683a206469766973696f6e206279207a65726f000000000000604482015290519081900360640190fd5b8183816149ac57fe5b049392505050565b606061134783836040026040614f95565b600f546149db90610100900460ff16602c613592565b6149ff6012546149f6856013546130ad90919063ffffffff16565b1115602d613592565b600554604080517f3deddb3f0000000000000000000000000000000000000000000000000000000081529051614aa1926001600160a01b031691633deddb3f916004808301926020929190829003018186803b158015614a5e57600080fd5b505afa158015614a72573d6000803e3d6000fd5b505050506040513d6020811015614a8857600080fd5b5051600854614a9890429061346e565b1015602f613592565b600554604080517f4422b0dc0000000000000000000000000000000000000000000000000000000081526004810186905290516001600160a01b0390921691634422b0dc9160248082019260009290919082900301818387803b158015614b0757600080fd5b505af1158015614b1b573d6000803e3d6000fd5b5050601354614b2d92509050846130ad565b601355614b39836150b9565b600954614b4557426009555b600f546301000000900460ff1615614bc457601d5460408051636b8bd28360e11b8152600481018690526001602482015290516001600160a01b039092169163d717a5069160448082019260009290919082900301818387803b158015614bab57600080fd5b505af1158015614bbf573d6000803e3d6000fd5b505050505b60055460408051634d5b1ba160e11b81526001600160a01b0384811660048301526024820186905291519190921691639ab6374291604480830192600092919082900301818387803b158015614c1957600080fd5b505af1158015614c2d573d6000803e3d6000fd5b505042600a819055600554604080518881526020810188905280820193909352516001600160a01b0390911693507f7f4467a4ca8be02143a9253e6c31362c7bc755929e5c68faf659636d307f1b8c92509081900360600190a2505050565b60008160140183511015614ce7576040805162461bcd60e51b815260206004820152601560248201527f746f416464726573735f6f75744f66426f756e64730000000000000000000000604482015290519081900360640190fd5b5001602001516c01000000000000000000000000900490565b6001600160a01b03161590565b600073eeeeeeeeeeeeeeeeeeeeeeeeeeeeeeeeeeeeeeee6001600160a01b03831614806130bd5750506001600160a01b03161590565b6000821580614d5e57505081810281838281614d5b57fe5b04145b6130bd57600080fd5b62461bcd60e51b6000908152602060045260076024526642414223000030600a808404818106603090810160081b95839006959095019082900491820690940160101b939093010160c81b604452606490fd5b6000611347670de0b6b3a76400006134688585614d43565b3b151590565b6000614e2d826040518060400160405280602081526020017f5361666545524332303a206c6f772d6c6576656c2063616c6c206661696c6564815250856001600160a01b03166153659092919063ffffffff16565b805190915015612a2057808060200190516020811015614e4c57600080fd5b5051612a205760405162461bcd60e51b815260040180806020018281038252602a8152602001806157ee602a913960400191505060405180910390fd5b6000818303818312801590614e9e5750838113155b80614eb35750600083128015614eb357508381135b6113475760405162461bcd60e51b81526004018080602001828103825260248152602001806157ca6024913960400191505060405180910390fd5b6000670de0b6b3a7640000614f038484614d43565b816149ac57fe5b6000828201818312801590614f1f5750838112155b80614f345750600083128015614f3457508381125b6113475760405162461bcd60e51b81526004018080602001828103825260218152602001806157046021913960400191505060405180910390fd5b606061134484848460405180606001604052806029815260200161577960299139615370565b60608182601f011015614fef576040805162461bcd60e51b815260206004820152600e60248201527f736c6963655f6f766572666c6f77000000000000000000000000000000000000604482015290519081900360640190fd5b81830184511015615047576040805162461bcd60e51b815260206004820152601160248201527f736c6963655f6f75744f66426f756e6473000000000000000000000000000000604482015290519081900360640190fd5b60608215801561506657604051915060008252602082016040526150b0565b6040519150601f8416801560200281840101858101878315602002848b0101015b8183101561509f578051835260209283019201615087565b5050858452601f01601f1916604052505b50949350505050565b60055460408051631f0b96b960e31b8152905183926000926001600160a01b039091169163f85cb5c891600480820192602092909190829003018186803b15801561510357600080fd5b505afa158015615117573d6000803e3d6000fd5b505050506040513d602081101561512d57600080fd5b505190506000805b600254811015613e8157600154600280546000926201000090046001600160a01b0316916320104198918590811061516957fe5b90600052602060002090602091828204019190069054906101000a900460ff166040518263ffffffff1660e01b8152600401808260ff16815260200191505060206040518083038186803b1580156151c057600080fd5b505afa1580156151d4573d6000803e3d6000fd5b505050506040513d60208110156151ea57600080fd5b505190506001600160a01b0381166387033f6185878661520987612fb4565b600554600380546001600160a01b03909216918a90811061522657fe5b9060005260206000200160009054906101000a90046001600160a01b03166040518763ffffffff1660e01b815260040180876001600160a01b031681526020018681526020018560ff16815260200180602001846001600160a01b03168152602001836001600160a01b03168152602001828103825285818151815260200191508051906020019080838360005b838110156152cc5781810151838201526020016152b4565b50505050905090810190601f1680156152f95780820380516001836020036101000a031916815260200191505b50975050505050505050606060405180830381600087803b15801561531d57600080fd5b505af1158015615331573d6000803e3d6000fd5b505050506040513d606081101561534757600080fd5b50805160208201516040909201519196509450925050600101615135565b606061134484846000855b6060824710156153b15760405162461bcd60e51b81526004018080602001828103825260268152602001806157256026913960400191505060405180910390fd5b6153ba85614dd2565b61540b576040805162461bcd60e51b815260206004820152601d60248201527f416464726573733a2063616c6c20746f206e6f6e2d636f6e7472616374000000604482015290519081900360640190fd5b600080866001600160a01b031685876040518082805190602001908083835b602083106154495780518252601f19909201916020918201910161542a565b6001836020036101000a03801982511681845116808217855250505050505090500191505060006040518083038185875af1925050503d80600081146154ab576040519150601f19603f3d011682016040523d82523d6000602084013e6154b0565b606091505b50915091506154c08282866154cb565b979650505050505050565b606083156154da575081611347565b8251156154ea5782518084602001fd5b8160405162461bcd60e51b81526004018080602001828103825283818151815260200191508051906020019080838360005b8381101561553457818101518382015260200161551c565b50505050905090810190601f1680156155615780820380516001836020036101000a031916815260200191505b509250505060405180910390fd5b8280548282559060005260206000209081019282156155c2579160200282015b828111156155c25781546001600160a01b0319166001600160a01b0384351617825560209092019160019091019061558f565b50613b4d9291506156ee565b82805482825590600052602060002090601f016020900481019282156155c25791602002820160005b8382111561563857833560ff1683826101000a81548160ff021916908360ff16021790555092602001926001016020816000010492830192600103026155f7565b80156156655782816101000a81549060ff0219169055600101602081600001049283019260010302615638565b5050613b4d9291506156ee565b828054600181600116156101000203166002900490600052602060002090601f0160209004810192826156a857600085556155c2565b82601f106156c157805160ff19168380011785556155c2565b828001600101855582156155c2579182015b828111156155c25782518255916020019190600101906156d3565b5b80821115613b4d57600081556001016156ef56fe5369676e6564536166654d6174683a206164646974696f6e206f766572666c6f77416464726573733a20696e73756666696369656e742062616c616e636520666f722063616c6c496e697469616c697a61626c653a20636f6e747261637420697320616c726561647920696e697469616c697a6564416464726573733a206c6f772d6c6576656c2063616c6c20776974682076616c7565206661696c656453616665436173743a2076616c756520646f65736e27742066697420696e20616e20696e743235365369676e6564536166654d6174683a207375627472616374696f6e206f766572666c6f775361666545524332303a204552433230206f7065726174696f6e20646964206e6f7420737563636565645361666545524332303a20617070726f76652066726f6d206e6f6e2d7a65726f20746f206e6f6e2d7a65726f20616c6c6f77616e6365a2646970667358221220241d0ed07ebde12fabf1535bcd697a2889d37ac95d6ba5c0597ed2f3ff19ec8064736f6c63430007060033",
  "devdoc": {
    "kind": "dev",
    "methods": {
      "changeStrategyDuration(uint256)": {
        "params": {
          "_newDuration": "New duration of the strategy"
        }
      },
      "executeStrategy(uint256,uint256)": {
        "params": {
          "_capital": "The capital to allocate to this strategy.",
          "_fee": "The fee paid to keeper to compensate the gas cost."
        }
      },
      "expireStrategy(uint256)": {
        "params": {
          "_fee": "The keeper fee"
        }
      },
      "finalizeStrategy(uint256,string)": {
        "params": {
          "_fee": "The fee paid to keeper to compensate the gas cost",
          "_tokenURI": "URL with the JSON for the strategy"
        }
      },
      "getNAV()": {
        "returns": {
          "_0": "_nav           NAV of the strategy"
        }
      },
      "getUserVotes(address)": {
        "params": {
          "_address": "Address of the contributor"
        },
        "returns": {
          "_0": "_votes            Number of votes cast"
        }
      },
      "handleWeth(bool,uint256)": {
        "params": {
          "_isDeposit": "Whether is a deposit or withdraw",
          "_wethAmount": "Amount to deposit or withdraw"
        }
      },
      "initialize(address,address,address,uint256,uint256,uint256,uint256)": {
        "params": {
          "_controller": "Address of the controller",
          "_expectedReturn": "Expected return",
          "_garden": "Address of the garden",
          "_maxCapitalRequested": "Max Capital requested denominated in the reserve asset (0 to be unlimited)",
          "_stake": "Stake with garden participations absolute amounts 1e18",
          "_strategist": "Address of the strategist",
          "_strategyDuration": "Strategy duration in seconds"
        }
      },
      "invokeFromIntegration(address,uint256,bytes)": {
        "params": {
          "_data": "Encoded function selector and arguments",
          "_target": "Address of the smart contract to call",
          "_value": "Quantity of Ether to provide the call (typically 0)"
        },
        "returns": {
          "_0": "_returnValue           Bytes encoded return value"
        }
      },
      "resolveVoting(address[],int256[],uint256)": {
        "params": {
          "_fee": "The fee paid to keeper to compensate the gas cost",
          "_voters": "An array of garden member who voted on strategy.",
          "_votes": "An array of votes by on strategy by garden members."
        }
      },
      "setData(uint8[],address[],bytes)": {
        "params": {
          "_opEncodedData": "Bytes with the params for the op in the same position in the opTypes array",
          "_opIntegrations": "Addresses with the integration for each op",
          "_opTypes": "An array with the op types"
        }
      },
      "sweep(address)": {
        "params": {
          "_token": "Address of the token to sweep"
        }
      },
      "trade(address,uint256,address)": {
        "params": {
          "_receiveToken": "Token to receive",
          "_sendQuantity": "Amount of tokens to send",
          "_sendToken": "Token to exchange"
        }
      },
      "unwindStrategy(uint256)": {
        "params": {
          "_amountToUnwind": "The amount of capital to unwind"
        }
      }
    },
    "version": 1
  },
  "userdoc": {
    "kind": "user",
    "methods": {
      "changeStrategyDuration(uint256)": {
        "notice": "Lets the strategist change the duration of the strategy"
      },
      "deleteCandidateStrategy()": {
        "notice": "Delete a candidate strategy by the strategist"
      },
      "executeStrategy(uint256,uint256)": {
        "notice": "Executes an strategy that has been activated and gone through the cooldown period."
      },
      "expireStrategy(uint256)": {
        "notice": "Expires a candidate that has spent more than CANDIDATE_PERIOD without reaching quorum"
      },
      "finalizeStrategy(uint256,string)": {
        "notice": "Exits from an executed strategy. Returns balance back to the garden and sets the capital aside for withdrawals in ETH. Pays the keeper. Updates the reserve asset position accordingly."
      },
      "getNAV()": {
        "notice": "Gets the NAV of assets under management. It is the sum of the NAV of all the operations"
      },
      "getOperationByIndex(uint8)": {
        "notice": "Get the operation params by index"
      },
      "getOperationsCount()": {
        "notice": "Returns the number of operations in this strategy"
      },
      "getStrategyDetails()": {
        "notice": "Get the non-state related details of a Strategy"
      },
      "getStrategyState()": {
        "notice": "Get the state of a Strategy"
      },
      "getUserVotes(address)": {
        "notice": "Gets the votes casted by the contributor in this strategy"
      },
      "handleWeth(bool,uint256)": {
        "notice": "Deposits or withdraws weth from an operation in this context"
      },
      "initialize(address,address,address,uint256,uint256,uint256,uint256)": {
        "notice": "Initializes the strategy for a garden"
      },
      "invokeApprove(address,address,uint256)": {
        "notice": "Helper to invoke Approve on ERC20 from integrations in the strategy context"
      },
      "invokeFromIntegration(address,uint256,bytes)": {
        "notice": "Helper to invoke a call to an external contract from integrations in the strategy context"
      },
      "isStrategyActive()": {
        "notice": "Returns whether this strategy is currently active or not"
      },
      "resolveVoting(address[],int256[],uint256)": {
        "notice": "Adds off-chain voting results on-chain."
      },
      "setData(uint8[],address[],bytes)": {
        "notice": "Sets the data for the operations of this strategy"
      },
      "sweep(address)": {
        "notice": "Any tokens (other than the target) that are sent here by mistake are recoverable by contributors Converts it to the reserve asset and sends it to the garden."
      },
      "trade(address,uint256,address)": {
        "notice": "Function that calculates the price using the oracle and executes a trade. Must call the exchange to get the price and pass minReceiveQuantity accordingly."
      },
      "unwindStrategy(uint256)": {
        "notice": "Partially unwinds an strategy. Triggered from an immediate withdraw in the Garden."
      }
    },
    "version": 1
  },
  "storageLayout": {
    "storage": [
      {
        "astId": 6418,
        "contract": "contracts/strategies/Strategy.sol:StrategyV7",
        "label": "_status",
        "offset": 0,
        "slot": "0",
        "type": "t_uint256"
      },
      {
        "astId": 492,
        "contract": "contracts/strategies/Strategy.sol:StrategyV7",
        "label": "_initialized",
        "offset": 0,
        "slot": "1",
        "type": "t_bool"
      },
      {
        "astId": 495,
        "contract": "contracts/strategies/Strategy.sol:StrategyV7",
        "label": "_initializing",
        "offset": 1,
        "slot": "1",
        "type": "t_bool"
      },
      {
        "astId": 36986,
        "contract": "contracts/strategies/Strategy.sol:StrategyV7",
        "label": "controller",
        "offset": 2,
        "slot": "1",
        "type": "t_contract(IBabController)29008"
      },
      {
        "astId": 36989,
        "contract": "contracts/strategies/Strategy.sol:StrategyV7",
        "label": "opTypes",
        "offset": 0,
        "slot": "2",
        "type": "t_array(t_uint8)dyn_storage"
      },
      {
        "astId": 36992,
        "contract": "contracts/strategies/Strategy.sol:StrategyV7",
        "label": "opIntegrations",
        "offset": 0,
        "slot": "3",
        "type": "t_array(t_address)dyn_storage"
      },
      {
        "astId": 36995,
        "contract": "contracts/strategies/Strategy.sol:StrategyV7",
        "label": "opDatas",
        "offset": 0,
        "slot": "4",
        "type": "t_array(t_address)dyn_storage"
      },
      {
        "astId": 36998,
        "contract": "contracts/strategies/Strategy.sol:StrategyV7",
        "label": "garden",
        "offset": 0,
        "slot": "5",
        "type": "t_contract(IGarden)29403"
      },
      {
        "astId": 37001,
        "contract": "contracts/strategies/Strategy.sol:StrategyV7",
        "label": "strategist",
        "offset": 0,
        "slot": "6",
        "type": "t_address"
      },
      {
        "astId": 37004,
        "contract": "contracts/strategies/Strategy.sol:StrategyV7",
        "label": "enteredAt",
        "offset": 0,
        "slot": "7",
        "type": "t_uint256"
      },
      {
        "astId": 37007,
        "contract": "contracts/strategies/Strategy.sol:StrategyV7",
        "label": "enteredCooldownAt",
        "offset": 0,
        "slot": "8",
        "type": "t_uint256"
      },
      {
        "astId": 37009,
        "contract": "contracts/strategies/Strategy.sol:StrategyV7",
        "label": "executedAt",
        "offset": 0,
        "slot": "9",
        "type": "t_uint256"
      },
      {
        "astId": 37011,
        "contract": "contracts/strategies/Strategy.sol:StrategyV7",
        "label": "updatedAt",
        "offset": 0,
        "slot": "10",
        "type": "t_uint256"
      },
      {
        "astId": 37013,
        "contract": "contracts/strategies/Strategy.sol:StrategyV7",
        "label": "exitedAt",
        "offset": 0,
        "slot": "11",
        "type": "t_uint256"
      },
      {
        "astId": 37016,
        "contract": "contracts/strategies/Strategy.sol:StrategyV7",
        "label": "voters",
        "offset": 0,
        "slot": "12",
        "type": "t_array(t_address)dyn_storage"
      },
      {
        "astId": 37019,
        "contract": "contracts/strategies/Strategy.sol:StrategyV7",
        "label": "totalPositiveVotes",
        "offset": 0,
        "slot": "13",
        "type": "t_uint256"
      },
      {
        "astId": 37022,
        "contract": "contracts/strategies/Strategy.sol:StrategyV7",
        "label": "totalNegativeVotes",
        "offset": 0,
        "slot": "14",
        "type": "t_uint256"
      },
      {
        "astId": 37024,
        "contract": "contracts/strategies/Strategy.sol:StrategyV7",
        "label": "finalized",
        "offset": 0,
        "slot": "15",
        "type": "t_bool"
      },
      {
        "astId": 37026,
        "contract": "contracts/strategies/Strategy.sol:StrategyV7",
        "label": "active",
        "offset": 1,
        "slot": "15",
        "type": "t_bool"
      },
      {
        "astId": 37028,
        "contract": "contracts/strategies/Strategy.sol:StrategyV7",
        "label": "dataSet",
        "offset": 2,
        "slot": "15",
        "type": "t_bool"
      },
      {
        "astId": 37030,
        "contract": "contracts/strategies/Strategy.sol:StrategyV7",
        "label": "hasMiningStarted",
        "offset": 3,
        "slot": "15",
        "type": "t_bool"
      },
      {
        "astId": 37033,
        "contract": "contracts/strategies/Strategy.sol:StrategyV7",
        "label": "duration",
        "offset": 0,
        "slot": "16",
        "type": "t_uint256"
      },
      {
        "astId": 37036,
        "contract": "contracts/strategies/Strategy.sol:StrategyV7",
        "label": "stake",
        "offset": 0,
        "slot": "17",
        "type": "t_uint256"
      },
      {
        "astId": 37039,
        "contract": "contracts/strategies/Strategy.sol:StrategyV7",
        "label": "maxCapitalRequested",
        "offset": 0,
        "slot": "18",
        "type": "t_uint256"
      },
      {
        "astId": 37042,
        "contract": "contracts/strategies/Strategy.sol:StrategyV7",
        "label": "capitalAllocated",
        "offset": 0,
        "slot": "19",
        "type": "t_uint256"
      },
      {
        "astId": 37045,
        "contract": "contracts/strategies/Strategy.sol:StrategyV7",
        "label": "expectedReturn",
        "offset": 0,
        "slot": "20",
        "type": "t_uint256"
      },
      {
        "astId": 37048,
        "contract": "contracts/strategies/Strategy.sol:StrategyV7",
        "label": "capitalReturned",
        "offset": 0,
        "slot": "21",
        "type": "t_uint256"
      },
      {
        "astId": 37050,
        "contract": "contracts/strategies/Strategy.sol:StrategyV7",
        "label": "minRebalanceCapital",
        "offset": 0,
        "slot": "22",
        "type": "t_uint256"
      },
      {
        "astId": 37053,
        "contract": "contracts/strategies/Strategy.sol:StrategyV7",
        "label": "tokensNeeded",
        "offset": 0,
        "slot": "23",
        "type": "t_array(t_address)dyn_storage"
      },
      {
        "astId": 37056,
        "contract": "contracts/strategies/Strategy.sol:StrategyV7",
        "label": "tokenAmountsNeeded",
        "offset": 0,
        "slot": "24",
        "type": "t_array(t_uint256)dyn_storage"
      },
      {
        "astId": 37059,
        "contract": "contracts/strategies/Strategy.sol:StrategyV7",
        "label": "strategyRewards",
        "offset": 0,
        "slot": "25",
        "type": "t_uint256"
      },
      {
        "astId": 37061,
        "contract": "contracts/strategies/Strategy.sol:StrategyV7",
        "label": "rewardsTotalOverhead",
        "offset": 0,
        "slot": "26",
        "type": "t_uint256"
      },
      {
        "astId": 37065,
        "contract": "contracts/strategies/Strategy.sol:StrategyV7",
        "label": "votes",
        "offset": 0,
        "slot": "27",
        "type": "t_mapping(t_address,t_int256)"
      },
      {
        "astId": 37068,
        "contract": "contracts/strategies/Strategy.sol:StrategyV7",
        "label": "opEncodedData",
        "offset": 0,
        "slot": "28",
        "type": "t_bytes_storage"
      },
      {
        "astId": 37070,
        "contract": "contracts/strategies/Strategy.sol:StrategyV7",
        "label": "rewardsDistributor",
        "offset": 0,
        "slot": "29",
        "type": "t_contract(IRewardsDistributor)30063"
      }
    ],
    "types": {
      "t_address": {
        "encoding": "inplace",
        "label": "address",
        "numberOfBytes": "20"
      },
      "t_array(t_address)dyn_storage": {
        "base": "t_address",
        "encoding": "dynamic_array",
        "label": "address[]",
        "numberOfBytes": "32"
      },
      "t_array(t_uint256)dyn_storage": {
        "base": "t_uint256",
        "encoding": "dynamic_array",
        "label": "uint256[]",
        "numberOfBytes": "32"
      },
      "t_array(t_uint8)dyn_storage": {
        "base": "t_uint8",
        "encoding": "dynamic_array",
        "label": "uint8[]",
        "numberOfBytes": "32"
      },
      "t_bool": {
        "encoding": "inplace",
        "label": "bool",
        "numberOfBytes": "1"
      },
      "t_bytes_storage": {
        "encoding": "bytes",
        "label": "bytes",
        "numberOfBytes": "32"
      },
      "t_contract(IBabController)29008": {
        "encoding": "inplace",
        "label": "contract IBabController",
        "numberOfBytes": "20"
      },
      "t_contract(IGarden)29403": {
        "encoding": "inplace",
        "label": "contract IGarden",
        "numberOfBytes": "20"
      },
      "t_contract(IRewardsDistributor)30063": {
        "encoding": "inplace",
        "label": "contract IRewardsDistributor",
        "numberOfBytes": "20"
      },
      "t_int256": {
        "encoding": "inplace",
        "label": "int256",
        "numberOfBytes": "32"
      },
      "t_mapping(t_address,t_int256)": {
        "encoding": "mapping",
        "key": "t_address",
        "label": "mapping(address => int256)",
        "numberOfBytes": "32",
        "value": "t_int256"
      },
      "t_uint256": {
        "encoding": "inplace",
        "label": "uint256",
        "numberOfBytes": "32"
      },
      "t_uint8": {
        "encoding": "inplace",
        "label": "uint8",
        "numberOfBytes": "1"
      }
    }
  }
}