{
  "address": "0xd9DBb5507dB227B8895dd87bEF69ca17773aA098",
  "abi": [
    {
      "anonymous": false,
      "inputs": [
        {
          "indexed": true,
          "internalType": "address",
          "name": "_strategy",
          "type": "address"
        },
        {
          "indexed": false,
          "internalType": "string",
          "name": "_name",
          "type": "string"
        },
        {
          "indexed": false,
          "internalType": "uint256",
          "name": "_expectedReturn",
          "type": "uint256"
        }
      ],
      "name": "AddStrategy",
      "type": "event"
    },
    {
      "anonymous": false,
      "inputs": [
        {
          "indexed": true,
          "internalType": "address",
          "name": "owner",
          "type": "address"
        },
        {
          "indexed": true,
          "internalType": "address",
          "name": "spender",
          "type": "address"
        },
        {
          "indexed": false,
          "internalType": "uint256",
          "name": "value",
          "type": "uint256"
        }
      ],
      "name": "Approval",
      "type": "event"
    },
    {
      "anonymous": false,
      "inputs": [
        {
          "indexed": true,
          "internalType": "address",
          "name": "from",
          "type": "address"
        },
        {
          "indexed": true,
          "internalType": "address",
          "name": "to",
          "type": "address"
        },
        {
          "indexed": false,
          "internalType": "uint256",
          "name": "value",
          "type": "uint256"
        }
      ],
      "name": "Transfer",
      "type": "event"
    },
    {
      "inputs": [
        {
          "internalType": "string",
          "name": "_name",
          "type": "string"
        },
        {
          "internalType": "string",
          "name": "_symbol",
          "type": "string"
        },
        {
          "internalType": "uint256[]",
          "name": "_stratParams",
          "type": "uint256[]"
        },
        {
          "internalType": "uint8[]",
          "name": "_opTypes",
          "type": "uint8[]"
        },
        {
          "internalType": "address[]",
          "name": "_opIntegrations",
          "type": "address[]"
        },
        {
          "internalType": "bytes",
          "name": "_opEncodedDatas",
          "type": "bytes"
        }
      ],
      "name": "addStrategy",
      "outputs": [],
      "stateMutability": "nonpayable",
      "type": "function"
    },
    {
      "inputs": [
        {
          "internalType": "uint256",
          "name": "_capital",
          "type": "uint256"
        }
      ],
      "name": "allocateCapitalToStrategy",
      "outputs": [],
      "stateMutability": "nonpayable",
      "type": "function"
    },
    {
      "inputs": [
        {
          "internalType": "address",
          "name": "owner",
          "type": "address"
        },
        {
          "internalType": "address",
          "name": "spender",
          "type": "address"
        }
      ],
      "name": "allowance",
      "outputs": [
        {
          "internalType": "uint256",
          "name": "",
          "type": "uint256"
        }
      ],
      "stateMutability": "view",
      "type": "function"
    },
    {
      "inputs": [
        {
          "internalType": "address",
          "name": "spender",
          "type": "address"
        },
        {
          "internalType": "uint256",
          "name": "amount",
          "type": "uint256"
        }
      ],
      "name": "approve",
      "outputs": [
        {
          "internalType": "bool",
          "name": "",
          "type": "bool"
        }
      ],
      "stateMutability": "nonpayable",
      "type": "function"
    },
    {
      "inputs": [
        {
          "internalType": "address",
          "name": "account",
          "type": "address"
        }
      ],
      "name": "balanceOf",
      "outputs": [
        {
          "internalType": "uint256",
          "name": "",
          "type": "uint256"
        }
      ],
      "stateMutability": "view",
      "type": "function"
    },
    {
      "inputs": [],
      "name": "decimals",
      "outputs": [
        {
          "internalType": "uint8",
          "name": "",
          "type": "uint8"
        }
      ],
      "stateMutability": "view",
      "type": "function"
    },
    {
      "inputs": [
        {
          "internalType": "address",
          "name": "spender",
          "type": "address"
        },
        {
          "internalType": "uint256",
          "name": "subtractedValue",
          "type": "uint256"
        }
      ],
      "name": "decreaseAllowance",
      "outputs": [
        {
          "internalType": "bool",
          "name": "",
          "type": "bool"
        }
      ],
      "stateMutability": "nonpayable",
      "type": "function"
    },
    {
      "inputs": [
        {
          "internalType": "address",
          "name": "_strategy",
          "type": "address"
        }
      ],
      "name": "expireCandidateStrategy",
      "outputs": [],
      "stateMutability": "nonpayable",
      "type": "function"
    },
    {
      "inputs": [
        {
          "internalType": "uint256",
          "name": "_rewards",
          "type": "uint256"
        },
        {
          "internalType": "int256",
          "name": "_returns",
          "type": "int256"
        },
        {
          "internalType": "uint256",
          "name": "_burningAmount",
          "type": "uint256"
        }
      ],
      "name": "finalizeStrategy",
      "outputs": [],
      "stateMutability": "nonpayable",
      "type": "function"
    },
    {
      "inputs": [
        {
          "internalType": "address",
          "name": "spender",
          "type": "address"
        },
        {
          "internalType": "uint256",
          "name": "addedValue",
          "type": "uint256"
        }
      ],
      "name": "increaseAllowance",
      "outputs": [
        {
          "internalType": "bool",
          "name": "",
          "type": "bool"
        }
      ],
      "stateMutability": "nonpayable",
      "type": "function"
    },
    {
      "inputs": [],
      "name": "keeperDebt",
      "outputs": [
        {
          "internalType": "uint256",
          "name": "",
          "type": "uint256"
        }
      ],
      "stateMutability": "view",
      "type": "function"
    },
    {
      "inputs": [],
      "name": "name",
      "outputs": [
        {
          "internalType": "string",
          "name": "",
          "type": "string"
        }
      ],
      "stateMutability": "view",
      "type": "function"
    },
    {
      "inputs": [
        {
          "internalType": "address payable",
          "name": "_keeper",
          "type": "address"
        },
        {
          "internalType": "uint256",
          "name": "_fee",
          "type": "uint256"
        }
      ],
      "name": "payKeeper",
      "outputs": [],
      "stateMutability": "nonpayable",
      "type": "function"
    },
    {
      "inputs": [],
      "name": "privateGarden",
      "outputs": [
        {
          "internalType": "bool",
          "name": "",
          "type": "bool"
        }
      ],
      "stateMutability": "view",
      "type": "function"
    },
    {
      "inputs": [],
      "name": "symbol",
      "outputs": [
        {
          "internalType": "string",
          "name": "",
          "type": "string"
        }
      ],
      "stateMutability": "view",
      "type": "function"
    },
    {
      "inputs": [],
      "name": "totalSupply",
      "outputs": [
        {
          "internalType": "uint256",
          "name": "",
          "type": "uint256"
        }
      ],
      "stateMutability": "view",
      "type": "function"
    },
    {
      "inputs": [
        {
          "internalType": "address",
          "name": "recipient",
          "type": "address"
        },
        {
          "internalType": "uint256",
          "name": "amount",
          "type": "uint256"
        }
      ],
      "name": "transfer",
      "outputs": [
        {
          "internalType": "bool",
          "name": "",
          "type": "bool"
        }
      ],
      "stateMutability": "nonpayable",
      "type": "function"
    },
    {
      "inputs": [
        {
          "internalType": "address",
          "name": "sender",
          "type": "address"
        },
        {
          "internalType": "address",
          "name": "recipient",
          "type": "address"
        },
        {
          "internalType": "uint256",
          "name": "amount",
          "type": "uint256"
        }
      ],
      "name": "transferFrom",
      "outputs": [
        {
          "internalType": "bool",
          "name": "",
          "type": "bool"
        }
      ],
      "stateMutability": "nonpayable",
      "type": "function"
    }
  ],
  "transactionHash": "0x310d1000a6d1d4aeeec1ddfaf7046dc208c719457431bce160189beb249693fa",
  "args": [],
  "numDeployments": 1,
  "solcInputHash": "00dca416874455871275f632bb5d2c2b",
  "bytecode": "0x608060405234801561001057600080fd5b50600160655561282f806100256000396000f3fe608060405234801561001057600080fd5b50600436106101365760003560e01c80635a9e6daa116100b25780639ab6374211610081578063a9059cbb11610066578063a9059cbb146105e4578063b2644e6614610610578063dd62ed3e1461063657610136565b80639ab637421461058c578063a457c2d7146105b857610136565b80635a9e6daa146102e257806360d442ca1461055657806370a082311461055e57806395d89b411461058457610136565b8063313ce567116101095780634422b0dc116100ee5780634422b0dc1461029257806350a96003146102b1578063550c2b7f146102da57610136565b8063313ce56714610248578063395093511461026657610136565b806306fdde031461013b578063095ea7b3146101b857806318160ddd146101f857806323b872dd14610212575b600080fd5b610143610664565b6040805160208082528351818301528351919283929083019185019080838360005b8381101561017d578181015183820152602001610165565b50505050905090810190601f1680156101aa5780820380516001836020036101000a031916815260200191505b509250505060405180910390f35b6101e4600480360360408110156101ce57600080fd5b506001600160a01b0381351690602001356106fa565b604080519115158252519081900360200190f35b610200610718565b60408051918252519081900360200190f35b6101e46004803603606081101561022857600080fd5b506001600160a01b0381358116916020810135909116906040013561071e565b6102506107a6565b6040805160ff9092168252519081900360200190f35b6101e46004803603604081101561027c57600080fd5b506001600160a01b0381351690602001356107af565b6102af600480360360208110156102a857600080fd5b50356107fd565b005b6102af600480360360608110156102c757600080fd5b5080359060208101359060400135610964565b6101e4610b78565b6102af600480360360c08110156102f857600080fd5b81019060208101813564010000000081111561031357600080fd5b82018360208201111561032557600080fd5b8035906020019184600183028401116401000000008311171561034757600080fd5b91908080601f016020809104026020016040519081016040528093929190818152602001838380828437600092019190915250929594936020810193503591505064010000000081111561039a57600080fd5b8201836020820111156103ac57600080fd5b803590602001918460018302840111640100000000831117156103ce57600080fd5b91908080601f016020809104026020016040519081016040528093929190818152602001838380828437600092019190915250929594936020810193503591505064010000000081111561042157600080fd5b82018360208201111561043357600080fd5b8035906020019184602083028401116401000000008311171561045557600080fd5b91939092909160208101903564010000000081111561047357600080fd5b82018360208201111561048557600080fd5b803590602001918460208302840111640100000000831117156104a757600080fd5b9193909290916020810190356401000000008111156104c557600080fd5b8201836020820111156104d757600080fd5b803590602001918460208302840111640100000000831117156104f957600080fd5b91939092909160208101903564010000000081111561051757600080fd5b82018360208201111561052957600080fd5b8035906020019184600183028401116401000000008311171561054b57600080fd5b509092509050610b88565b610200611091565b6102006004803603602081101561057457600080fd5b50356001600160a01b0316611097565b6101436110b2565b6102af600480360360408110156105a257600080fd5b506001600160a01b038135169060200135611113565b6101e4600480360360408110156105ce57600080fd5b506001600160a01b0381351690602001356114d2565b6101e4600480360360408110156105fa57600080fd5b506001600160a01b03813516906020013561153a565b6102af6004803603602081101561062657600080fd5b50356001600160a01b031661154e565b6102006004803603604081101561064c57600080fd5b506001600160a01b03813581169160200135166115f7565b60368054604080516020601f60026000196101006001881615020190951694909404938401819004810282018101909252828152606093909290918301828280156106f05780601f106106c5576101008083540402835291602001916106f0565b820191906000526020600020905b8154815290600101906020018083116106d357829003601f168201915b5050505050905090565b600061070e610707611622565b8484611626565b5060015b92915050565b60355490565b600061072b848484611712565b61079b84610737611622565b61079685604051806060016040528060288152602001612719602891396001600160a01b038a16600090815260346020526040812090610775611622565b6001600160a01b03168152602081019190915260400160002054919061186f565b611626565b5060015b9392505050565b60385460ff1690565b600061070e6107bc611622565b8461079685603460006107cd611622565b6001600160a01b03908116825260208083019390935260409182016000908120918c168152925290205490611906565b610805611960565b600061088b82606760009054906101000a90046001600160a01b03166001600160a01b031663313754776040518163ffffffff1660e01b815260040160206040518083038186803b15801561085957600080fd5b505afa15801561086d573d6000803e3d6000fd5b505050506040513d602081101561088357600080fd5b505190611980565b90506108ab61089861199e565b6108a28484611a67565b11156004611a77565b606754604080517ff58d1c940000000000000000000000000000000000000000000000000000000081529051610949926001600160a01b03169163f58d1c94916004808301926020929190829003018186803b15801561090a57600080fd5b505afa15801561091e573d6000803e3d6000fd5b505050506040513d602081101561093457600080fd5b50516066546001600160a01b03169083611a85565b606654610960906001600160a01b03163384611a85565b5050565b600260655414156109bc576040805162461bcd60e51b815260206004820152601f60248201527f5265656e7472616e637947756172643a207265656e7472616e742063616c6c00604482015290519081900360640190fd5b60026065556109c9611b0a565b6109d1611960565b8015610a67576000336001600160a01b0316631fe4a6866040518163ffffffff1660e01b815260040160206040518083038186803b158015610a1257600080fd5b505afa158015610a26573d6000803e3d6000fd5b505050506040513d6020811015610a3c57600080fd5b50519050610a4981611097565b8210610a5b57610a5881611097565b91505b610a658183611ba3565b505b606b54610a749084611a67565b606b55606d54610a849083611c9f565b606d81905550610af733607f805480602002602001604051908101604052809291908181526020018280548015610ae457602002820191906000526020600020905b81546001600160a01b03168152600190910190602001808311610ac6575b5050505050611d0490919063ffffffff16565b8051610b0b91607f916020909101906125bd565b50506080805460018181019092557f59f3fb058c6bba7a4e76396639fc4dd21bd59163db798899cf56cef48b3c9ec901805473ffffffffffffffffffffffffffffffffffffffff1916339081179091556000908152608160205260409020805460ff191690556065555050565b606954600160a81b900460ff1681565b610b90611b0a565b610ba66000610b9e33611097565b11600f611a77565b6000610bb133611d81565b92505050610bc081601e611a77565b607f54610bd190601411601a611a77565b606754604080517f9ef3571000000000000000000000000000000000000000000000000000000000815290516000926001600160a01b031691639ef35710916004808301926020929190829003018186803b158015610c2f57600080fd5b505afa158015610c43573d6000803e3d6000fd5b505050506040513d6020811015610c5957600080fd5b81019080805190602001909291905050506001600160a01b03166378afca3e8d8d33308f8f6040518763ffffffff1660e01b8152600401808060200180602001876001600160a01b03168152602001866001600160a01b031681526020018060200184810384528a818151815260200191508051906020019080838360005b83811015610cf0578181015183820152602001610cd8565b50505050905090810190601f168015610d1d5780820380516001836020036101000a031916815260200191505b5084810383528951815289516020918201918b019080838360005b83811015610d50578181015183820152602001610d38565b50505050905090810190601f168015610d7d5780820380516001836020036101000a031916815260200191505b508481038252868682818152602001925060200280828437600081840152601f19601f8201169050808301925050509950505050505050505050602060405180830381600087803b158015610dd157600080fd5b505af1158015610de5573d6000803e3d6000fd5b505050506040513d6020811015610dfb57600080fd5b50516001600160a01b0381166000908152608160205260409020805460ff19166001908117909155909150610e4f908b908b90818110610e3757fe5b90506020020135607954611a6790919063ffffffff16565b607955607f80546001810182556000919091527f66925e85f1a4743fd8d60ba595ed74887b7caf321dd83b21e04d77c11538340801805473ffffffffffffffffffffffffffffffffffffffff19166001600160a01b0383169081179091556040517fecbc2cda000000000000000000000000000000000000000000000000000000008152606060048201908152606482018a905263ecbc2cda918b918b918b918b918b918b918190602481019060448101906084018a60208b0280828437600083820152601f01601f19169091018581038452888152602090810191508990890280828437600083820152601f01601f191690910185810383528681526020019050868680828437600081840152601f19601f8201169050808301925050509950505050505050505050600060405180830381600087803b158015610f9357600080fd5b505af1158015610fa7573d6000803e3d6000fd5b5050506001600160a01b0382166000818152608260205260409020805460ff1916600117905590507f9e896c245c70d187fa97788cded4bca6b7546fa444cc7b0c111c57b592affa018d8c8c6003818110610ffe57fe5b905060200201356040518080602001838152602001828103825284818151815260200191508051906020019080838360005b83811015611048578181015183820152602001611030565b50505050905090810190601f1680156110755780820380516001836020036101000a031916815260200191505b50935050505060405180910390a2505050505050505050505050565b60835481565b6001600160a01b031660009081526033602052604090205490565b60378054604080516020601f60026000196101006001881615020190951694909404938401819004810282018101909252828152606093909290918301828280156106f05780601f106106c5576101008083540402835291602001916106f0565b6002606554141561116b576040805162461bcd60e51b815260206004820152601f60248201527f5265656e7472616e637947756172643a207265656e7472616e742063616c6c00604482015290519081900360640190fd5b6002606555611178611b0a565b61119f3330148061119857503360009081526081602052604090205460ff165b6014611a77565b606754604080517f411137c30000000000000000000000000000000000000000000000000000000081526001600160a01b038581166004830152915161123d93929092169163411137c391602480820192602092909190829003018186803b15801561120a57600080fd5b505afa15801561121e573d6000803e3d6000fd5b505050506040513d602081101561123457600080fd5b50516012611a77565b606754604080517f2630c12f00000000000000000000000000000000000000000000000000000000815290516000926001600160a01b031691632630c12f916004808301926020929190829003018186803b15801561129b57600080fd5b505afa1580156112af573d6000803e3d6000fd5b505050506040513d60208110156112c557600080fd5b5051606654604080517fac41865a0000000000000000000000000000000000000000000000000000000081526001600160a01b039283166004820152736b175474e89094c44da98b954eedeac495271d0f60248201529051919092169163ac41865a916044808301926020929190829003018186803b15801561134757600080fd5b505afa15801561135b573d6000803e3d6000fd5b505050506040513d602081101561137157600080fd5b5051606654604080517f313ce567000000000000000000000000000000000000000000000000000000008152905192935060009261142992611416926001600160a01b039091169163313ce56791600480820192602092909190829003018186803b1580156113df57600080fd5b505afa1580156113f3573d6000803e3d6000fd5b505050506040513d602081101561140957600080fd5b505160129060ff16612019565b600a0a6114238486611980565b90612029565b9050611442686c6b935b8bbd4000008211156013611a77565b60835461144f9084611a67565b608355600061145c61199e565b905060006083541180156114705750600081115b156114c65760006083548211611486578161148a565b6083545b6066549091506114a4906001600160a01b03168783611a85565b6084546114b19082611a67565b6084556083546114c19082612019565b608355505b50506001606555505050565b600061070e6114df611622565b84610796856040518060600160405280602581526020016127d56025913960346000611509611622565b6001600160a01b03908116825260208083019390935260409182016000908120918d1681529252902054919061186f565b600061070e611547611622565b8484611712565b611556611960565b6115c181607f805480602002602001604051908101604052809291908181526020018280548015610ae4576020028201919060005260206000209081546001600160a01b03168152600190910190602001808311610ac6575050505050611d0490919063ffffffff16565b80516115d591607f916020909101906125bd565b506001600160a01b03166000908152608160205260409020805460ff19169055565b6001600160a01b03918216600090815260346020908152604080832093909416825291909152205490565b3390565b6001600160a01b03831661166b5760405162461bcd60e51b81526004018080602001828103825260248152602001806127876024913960400191505060405180910390fd5b6001600160a01b0382166116b05760405162461bcd60e51b815260040180806020018281038252602281526020018061268a6022913960400191505060405180910390fd5b6001600160a01b03808416600081815260346020908152604080832094871680845294825291829020859055815185815291517f8c5be1e5ebec7d5bd14f71427d1e84f3dd0314c0f7b2291e5b200ac8c7c3b9259281900390910190a3505050565b6001600160a01b0383166117575760405162461bcd60e51b81526004018080602001828103825260258152602001806127626025913960400191505060405180910390fd5b6001600160a01b03821661179c5760405162461bcd60e51b81526004018080602001828103825260238152602001806126456023913960400191505060405180910390fd5b6117a7838383611b05565b6117e4816040518060600160405280602681526020016126ac602691396001600160a01b038616600090815260336020526040902054919061186f565b6001600160a01b0380851660009081526033602052604080822093909355908416815220546118139082611906565b6001600160a01b0380841660008181526033602090815260409182902094909455805185815290519193928716927fddf252ad1be2c89b69c2b068fc378daa952ba7f163c4a11628f55a4df523b3ef92918290030190a3505050565b600081848411156118fe5760405162461bcd60e51b81526004018080602001828103825283818151815260200191508051906020019080838360005b838110156118c35781810151838201526020016118ab565b50505050905090810190601f1680156118f05780820380516001836020036101000a031916815260200191505b509250505060405180910390fd5b505050900390565b60008282018381101561079f576040805162461bcd60e51b815260206004820152601b60248201527f536166654d6174683a206164646974696f6e206f766572666c6f770000000000604482015290519081900360640190fd5b3360009081526081602052604090205461197e9060ff166014611a77565b565b600061079f670de0b6b3a76400006119988585612029565b9061204d565b606b54606654604080517f70a0823100000000000000000000000000000000000000000000000000000000815230600482015290516000938493611a419391926001600160a01b03909116916370a08231916024808301926020929190829003018186803b158015611a0f57600080fd5b505afa158015611a23573d6000803e3d6000fd5b505050506040513d6020811015611a3957600080fd5b505190612019565b90506083548111611a53576000611a61565b608354611a61908290612019565b91505090565b8082018281101561071257600080fd5b8161096057610960816120b4565b604080516001600160a01b038416602482015260448082018490528251808303909101815260649091019091526020810180517bffffffffffffffffffffffffffffffffffffffffffffffffffffffff167fa9059cbb00000000000000000000000000000000000000000000000000000000179052611b05908490612107565b505050565b606754604080517f5b14f183000000000000000000000000000000000000000000000000000000008152306004820152905161197e926001600160a01b031691635b14f183916024808301926020929190829003018186803b158015611b6f57600080fd5b505afa158015611b83573d6000803e3d6000fd5b505050506040513d6020811015611b9957600080fd5b5051156053611a77565b6001600160a01b038216611be85760405162461bcd60e51b81526004018080602001828103825260218152602001806127416021913960400191505060405180910390fd5b611bf482600083611b05565b611c3181604051806060016040528060228152602001612668602291396001600160a01b038516600090815260336020526040902054919061186f565b6001600160a01b038316600090815260336020526040902055603554611c5790826121b8565b6035556040805182815290516000916001600160a01b038516917fddf252ad1be2c89b69c2b068fc378daa952ba7f163c4a11628f55a4df523b3ef9181900360200190a35050565b6000828201818312801590611cb45750838112155b80611cc95750600083128015611cc957508381125b61079f5760405162461bcd60e51b81526004018080602001828103825260218152602001806126d26021913960400191505060405180910390fd5b6060600080611d138585612215565b9150915080611d69576040805162461bcd60e51b815260206004820152601560248201527f41646472657373206e6f7420696e2061727261792e0000000000000000000000604482015290519081900360640190fd5b6000611d75868461227b565b50935061071292505050565b600080600080606760009054906101000a90046001600160a01b03166001600160a01b0316630ebdb9a26040518163ffffffff1660e01b815260040160206040518083038186803b158015611dd557600080fd5b505afa158015611de9573d6000803e3d6000fd5b505050506040513d6020811015611dff57600080fd5b50519050600160695460ff600160a81b909104161580611eb05750604080517fc7ec5d5d0000000000000000000000000000000000000000000000000000000081523060048201526001600160a01b03888116602483015291519184169163c7ec5d5d91604480820192602092909190829003018186803b158015611e8357600080fd5b505afa158015611e97573d6000803e3d6000fd5b505050506040513d6020811015611ead57600080fd5b50515b9450808015611ec65750608554610100900460ff165b80611f625750604080517f4d98fbf00000000000000000000000000000000000000000000000000000000081523060048201526001600160a01b038881166024830152915191841691634d98fbf091604480820192602092909190829003018186803b158015611f3557600080fd5b505afa158015611f49573d6000803e3d6000fd5b505050506040513d6020811015611f5f57600080fd5b50515b9350808015611f73575060855460ff165b8061200f5750604080517f5066c7140000000000000000000000000000000000000000000000000000000081523060048201526001600160a01b038881166024830152915191841691635066c71491604480820192602092909190829003018186803b158015611fe257600080fd5b505afa158015611ff6573d6000803e3d6000fd5b505050506040513d602081101561200c57600080fd5b50515b9496939550505050565b8082038281111561071257600080fd5b60008215806120445750508181028183828161204157fe5b04145b61071257600080fd5b60008082116120a3576040805162461bcd60e51b815260206004820152601a60248201527f536166654d6174683a206469766973696f6e206279207a65726f000000000000604482015290519081900360640190fd5b8183816120ac57fe5b049392505050565b62461bcd60e51b6000908152602060045260076024526642414223000030600a808404818106603090810160081b95839006959095019082900491820690940160101b939093010160c81b604452606490fd5b600061215c826040518060400160405280602081526020017f5361666545524332303a206c6f772d6c6576656c2063616c6c206661696c6564815250856001600160a01b03166123df9092919063ffffffff16565b805190915015611b055780806020019051602081101561217b57600080fd5b5051611b055760405162461bcd60e51b815260040180806020018281038252602a8152602001806127ab602a913960400191505060405180910390fd5b60008282111561220f576040805162461bcd60e51b815260206004820152601e60248201527f536166654d6174683a207375627472616374696f6e206f766572666c6f770000604482015290519081900360640190fd5b50900390565b81516000908190815b8181101561226857846001600160a01b031686828151811061223c57fe5b60200260200101516001600160a01b03161415612260579250600191506122749050565b60010161221e565b50600019600092509250505b9250929050565b81516060906000908084106122d7576040805162461bcd60e51b815260206004820152601860248201527f496e646578206d757374206265203c2041206c656e6774680000000000000000604482015290519081900360640190fd5b60006001820367ffffffffffffffff811180156122f357600080fd5b5060405190808252806020026020018201604052801561231d578160200160208202803683370190505b50905060005b8581101561236b5786818151811061233757fe5b602002602001015182828151811061234b57fe5b6001600160a01b0390921660209283029190910190910152600101612323565b50600185015b828110156123bc5786818151811061238557fe5b602002602001015182600183038151811061239c57fe5b6001600160a01b0390921660209283029190910190910152600101612371565b50808686815181106123ca57fe5b60200260200101519350935050509250929050565b60606123ee84846000856123f6565b949350505050565b6060824710156124375760405162461bcd60e51b81526004018080602001828103825260268152602001806126f36026913960400191505060405180910390fd5b61244085612551565b612491576040805162461bcd60e51b815260206004820152601d60248201527f416464726573733a2063616c6c20746f206e6f6e2d636f6e7472616374000000604482015290519081900360640190fd5b600080866001600160a01b031685876040518082805190602001908083835b602083106124cf5780518252601f1990920191602091820191016124b0565b6001836020036101000a03801982511681845116808217855250505050505090500191505060006040518083038185875af1925050503d8060008114612531576040519150601f19603f3d011682016040523d82523d6000602084013e612536565b606091505b5091509150612546828286612557565b979650505050505050565b3b151590565b6060831561256657508161079f565b8251156125765782518084602001fd5b60405162461bcd60e51b81526020600482018181528451602484015284518593919283926044019190850190808383600083156118c35781810151838201526020016118ab565b82805482825590600052602060002090810192821561261f579160200282015b8281111561261f578251825473ffffffffffffffffffffffffffffffffffffffff19166001600160a01b039091161782556020909201916001909101906125dd565b5061262b92915061262f565b5090565b5b8082111561262b576000815560010161263056fe45524332303a207472616e7366657220746f20746865207a65726f206164647265737345524332303a206275726e20616d6f756e7420657863656564732062616c616e636545524332303a20617070726f766520746f20746865207a65726f206164647265737345524332303a207472616e7366657220616d6f756e7420657863656564732062616c616e63655369676e6564536166654d6174683a206164646974696f6e206f766572666c6f77416464726573733a20696e73756666696369656e742062616c616e636520666f722063616c6c45524332303a207472616e7366657220616d6f756e74206578636565647320616c6c6f77616e636545524332303a206275726e2066726f6d20746865207a65726f206164647265737345524332303a207472616e736665722066726f6d20746865207a65726f206164647265737345524332303a20617070726f76652066726f6d20746865207a65726f20616464726573735361666545524332303a204552433230206f7065726174696f6e20646964206e6f74207375636365656445524332303a2064656372656173656420616c6c6f77616e63652062656c6f77207a65726fa2646970667358221220c1fda568a4d48db9cd7b552e3e512f098b4c4fd968f87cd086fdf579d83c50dc64736f6c63430007060033",
  "devdoc": {
    "kind": "dev",
    "methods": {
      "addStrategy(string,string,uint256[],uint8[],address[],bytes)": {
        "params": {
          "_name": "Name of the strategy",
          "_opEncodedDatas": "Param for every operation in the strategy",
          "_opIntegrations": "Integration to use for every operation",
          "_opTypes": "Type for every operation in the strategy",
          "_stratParams": "Num params for the strategy",
          "_symbol": "Symbol of the strategy"
        }
      },
      "allocateCapitalToStrategy(uint256)": {
        "params": {
          "_capital": "Amount of capital to allocate to the strategy"
        }
      },
      "allowance(address,address)": {
        "details": "See {IERC20-allowance}."
      },
      "approve(address,uint256)": {
        "details": "See {IERC20-approve}. Requirements: - `spender` cannot be the zero address."
      },
      "balanceOf(address)": {
        "details": "See {IERC20-balanceOf}."
      },
      "decimals()": {
        "details": "Returns the number of decimals used to get its user representation. For example, if `decimals` equals `2`, a balance of `505` tokens should be displayed to a user as `5,05` (`505 / 10 ** 2`). Tokens usually opt for a value of 18, imitating the relationship between Ether and Wei. This is the value {ERC20} uses, unless {_setupDecimals} is called. NOTE: This information is only used for _display_ purposes: it in no way affects any of the arithmetic of the contract, including {IERC20-balanceOf} and {IERC20-transfer}."
      },
      "decreaseAllowance(address,uint256)": {
        "details": "Atomically decreases the allowance granted to `spender` by the caller. This is an alternative to {approve} that can be used as a mitigation for problems described in {IERC20-approve}. Emits an {Approval} event indicating the updated allowance. Requirements: - `spender` cannot be the zero address. - `spender` must have allowance for the caller of at least `subtractedValue`."
      },
      "finalizeStrategy(uint256,int256,uint256)": {
        "params": {
          "_burningAmount": "The amount of strategist stake to burn in case of                        strategy losses.",
          "_returns": "Profits or losses that the strategy received",
          "_rewards": "Amount of Reserve Asset to set aside forever"
        }
      },
      "increaseAllowance(address,uint256)": {
        "details": "Atomically increases the allowance granted to `spender` by the caller. This is an alternative to {approve} that can be used as a mitigation for problems described in {IERC20-approve}. Emits an {Approval} event indicating the updated allowance. Requirements: - `spender` cannot be the zero address."
      },
      "name()": {
        "details": "Returns the name of the token."
      },
      "payKeeper(address,uint256)": {
        "details": "We assume that calling keeper functions should be less expensive than 2000 DAI.",
        "params": {
          "_fee": "The fee paid to keeper to compensate the gas cost",
          "_keeper": "Keeper that executed the transaction"
        }
      },
      "symbol()": {
        "details": "Returns the symbol of the token, usually a shorter version of the name."
      },
      "totalSupply()": {
        "details": "See {IERC20-totalSupply}."
      },
      "transfer(address,uint256)": {
        "details": "See {IERC20-transfer}. Requirements: - `recipient` cannot be the zero address. - the caller must have a balance of at least `amount`."
      },
      "transferFrom(address,address,uint256)": {
        "details": "See {IERC20-transferFrom}. Emits an {Approval} event indicating the updated allowance. This is not required by the EIP. See the note at the beginning of {ERC20}. Requirements: - `sender` and `recipient` cannot be the zero address. - `sender` must have a balance of at least `amount`. - the caller must have allowance for ``sender``'s tokens of at least `amount`."
      }
    },
    "title": "StrategyGardenModule Strategy related functions of the Garden contract",
    "version": 1
  },
  "userdoc": {
    "kind": "user",
    "methods": {
      "addStrategy(string,string,uint256[],uint8[],address[],bytes)": {
        "notice": "Creates a new strategy calling the factory and adds it to the array"
      },
      "allocateCapitalToStrategy(uint256)": {
        "notice": "Allocates garden capital to an strategy"
      },
      "finalizeStrategy(uint256,int256,uint256)": {
        "notice": "When strategy ends puts saves returns, rewards and marks strategy as  finalized."
      },
      "payKeeper(address,uint256)": {
        "notice": "Pays gas costs back to the keeper from executing transactions   including the past debt"
      }
    },
    "version": 1
  },
  "storageLayout": {
    "storage": [
      {
        "astId": 492,
        "contract": "contracts/gardens/StrategyGardenModule.sol:StrategyGardenModule",
        "label": "_initialized",
        "offset": 0,
        "slot": "0",
        "type": "t_bool"
      },
      {
        "astId": 495,
        "contract": "contracts/gardens/StrategyGardenModule.sol:StrategyGardenModule",
        "label": "_initializing",
        "offset": 1,
        "slot": "0",
        "type": "t_bool"
      },
      {
        "astId": 1447,
        "contract": "contracts/gardens/StrategyGardenModule.sol:StrategyGardenModule",
        "label": "__gap",
        "offset": 0,
        "slot": "1",
        "type": "t_array(t_uint256)50_storage"
      },
      {
        "astId": 571,
        "contract": "contracts/gardens/StrategyGardenModule.sol:StrategyGardenModule",
        "label": "_balances",
        "offset": 0,
        "slot": "51",
        "type": "t_mapping(t_address,t_uint256)"
      },
      {
        "astId": 577,
        "contract": "contracts/gardens/StrategyGardenModule.sol:StrategyGardenModule",
        "label": "_allowances",
        "offset": 0,
        "slot": "52",
        "type": "t_mapping(t_address,t_mapping(t_address,t_uint256))"
      },
      {
        "astId": 579,
        "contract": "contracts/gardens/StrategyGardenModule.sol:StrategyGardenModule",
        "label": "_totalSupply",
        "offset": 0,
        "slot": "53",
        "type": "t_uint256"
      },
      {
        "astId": 581,
        "contract": "contracts/gardens/StrategyGardenModule.sol:StrategyGardenModule",
        "label": "_name",
        "offset": 0,
        "slot": "54",
        "type": "t_string_storage"
      },
      {
        "astId": 583,
        "contract": "contracts/gardens/StrategyGardenModule.sol:StrategyGardenModule",
        "label": "_symbol",
        "offset": 0,
        "slot": "55",
        "type": "t_string_storage"
      },
      {
        "astId": 585,
        "contract": "contracts/gardens/StrategyGardenModule.sol:StrategyGardenModule",
        "label": "_decimals",
        "offset": 0,
        "slot": "56",
        "type": "t_uint8"
      },
      {
        "astId": 1080,
        "contract": "contracts/gardens/StrategyGardenModule.sol:StrategyGardenModule",
        "label": "__gap",
        "offset": 0,
        "slot": "57",
        "type": "t_array(t_uint256)44_storage"
      },
      {
        "astId": 6418,
        "contract": "contracts/gardens/StrategyGardenModule.sol:StrategyGardenModule",
        "label": "_status",
        "offset": 0,
        "slot": "101",
        "type": "t_uint256"
      },
      {
        "astId": 23598,
        "contract": "contracts/gardens/StrategyGardenModule.sol:StrategyGardenModule",
        "label": "reserveAsset",
        "offset": 0,
        "slot": "102",
        "type": "t_address"
      },
      {
        "astId": 23600,
        "contract": "contracts/gardens/StrategyGardenModule.sol:StrategyGardenModule",
        "label": "controller",
        "offset": 0,
        "slot": "103",
        "type": "t_contract(IBabController)41441"
      },
      {
        "astId": 23602,
        "contract": "contracts/gardens/StrategyGardenModule.sol:StrategyGardenModule",
        "label": "rewardsDistributor",
        "offset": 0,
        "slot": "104",
        "type": "t_contract(IRewardsDistributor)43217"
      },
      {
        "astId": 23604,
        "contract": "contracts/gardens/StrategyGardenModule.sol:StrategyGardenModule",
        "label": "creator",
        "offset": 0,
        "slot": "105",
        "type": "t_address"
      },
      {
        "astId": 23606,
        "contract": "contracts/gardens/StrategyGardenModule.sol:StrategyGardenModule",
        "label": "active",
        "offset": 20,
        "slot": "105",
        "type": "t_bool"
      },
      {
        "astId": 23608,
        "contract": "contracts/gardens/StrategyGardenModule.sol:StrategyGardenModule",
        "label": "privateGarden",
        "offset": 21,
        "slot": "105",
        "type": "t_bool"
      },
      {
        "astId": 23610,
        "contract": "contracts/gardens/StrategyGardenModule.sol:StrategyGardenModule",
        "label": "principal",
        "offset": 0,
        "slot": "106",
        "type": "t_uint256"
      },
      {
        "astId": 23612,
        "contract": "contracts/gardens/StrategyGardenModule.sol:StrategyGardenModule",
        "label": "reserveAssetRewardsSetAside",
        "offset": 0,
        "slot": "107",
        "type": "t_uint256"
      },
      {
        "astId": 23614,
        "contract": "contracts/gardens/StrategyGardenModule.sol:StrategyGardenModule",
        "label": "reserveAssetPrincipalWindow",
        "offset": 0,
        "slot": "108",
        "type": "t_uint256"
      },
      {
        "astId": 23616,
        "contract": "contracts/gardens/StrategyGardenModule.sol:StrategyGardenModule",
        "label": "absoluteReturns",
        "offset": 0,
        "slot": "109",
        "type": "t_int256"
      },
      {
        "astId": 23618,
        "contract": "contracts/gardens/StrategyGardenModule.sol:StrategyGardenModule",
        "label": "minLiquidityAsset",
        "offset": 0,
        "slot": "110",
        "type": "t_uint256"
      },
      {
        "astId": 23620,
        "contract": "contracts/gardens/StrategyGardenModule.sol:StrategyGardenModule",
        "label": "depositHardlock",
        "offset": 0,
        "slot": "111",
        "type": "t_uint256"
      },
      {
        "astId": 23622,
        "contract": "contracts/gardens/StrategyGardenModule.sol:StrategyGardenModule",
        "label": "withdrawalsOpenUntil",
        "offset": 0,
        "slot": "112",
        "type": "t_uint256"
      },
      {
        "astId": 23626,
        "contract": "contracts/gardens/StrategyGardenModule.sol:StrategyGardenModule",
        "label": "contributors",
        "offset": 0,
        "slot": "113",
        "type": "t_mapping(t_address,t_struct(Contributor)23596_storage)"
      },
      {
        "astId": 23628,
        "contract": "contracts/gardens/StrategyGardenModule.sol:StrategyGardenModule",
        "label": "totalContributors",
        "offset": 0,
        "slot": "114",
        "type": "t_uint256"
      },
      {
        "astId": 23630,
        "contract": "contracts/gardens/StrategyGardenModule.sol:StrategyGardenModule",
        "label": "maxContributors",
        "offset": 0,
        "slot": "115",
        "type": "t_uint256"
      },
      {
        "astId": 23632,
        "contract": "contracts/gardens/StrategyGardenModule.sol:StrategyGardenModule",
        "label": "maxDepositLimit",
        "offset": 0,
        "slot": "116",
        "type": "t_uint256"
      },
      {
        "astId": 23634,
        "contract": "contracts/gardens/StrategyGardenModule.sol:StrategyGardenModule",
        "label": "gardenInitializedAt",
        "offset": 0,
        "slot": "117",
        "type": "t_uint256"
      },
      {
        "astId": 23636,
        "contract": "contracts/gardens/StrategyGardenModule.sol:StrategyGardenModule",
        "label": "pid",
        "offset": 0,
        "slot": "118",
        "type": "t_uint256"
      },
      {
        "astId": 23638,
        "contract": "contracts/gardens/StrategyGardenModule.sol:StrategyGardenModule",
        "label": "minContribution",
        "offset": 0,
        "slot": "119",
        "type": "t_uint256"
      },
      {
        "astId": 23640,
        "contract": "contracts/gardens/StrategyGardenModule.sol:StrategyGardenModule",
        "label": "minGardenTokenSupply",
        "offset": 0,
        "slot": "120",
        "type": "t_uint256"
      },
      {
        "astId": 23642,
        "contract": "contracts/gardens/StrategyGardenModule.sol:StrategyGardenModule",
        "label": "totalStake",
        "offset": 0,
        "slot": "121",
        "type": "t_uint256"
      },
      {
        "astId": 23644,
        "contract": "contracts/gardens/StrategyGardenModule.sol:StrategyGardenModule",
        "label": "minVotesQuorum",
        "offset": 0,
        "slot": "122",
        "type": "t_uint256"
      },
      {
        "astId": 23646,
        "contract": "contracts/gardens/StrategyGardenModule.sol:StrategyGardenModule",
        "label": "minVoters",
        "offset": 0,
        "slot": "123",
        "type": "t_uint256"
      },
      {
        "astId": 23648,
        "contract": "contracts/gardens/StrategyGardenModule.sol:StrategyGardenModule",
        "label": "minStrategyDuration",
        "offset": 0,
        "slot": "124",
        "type": "t_uint256"
      },
      {
        "astId": 23650,
        "contract": "contracts/gardens/StrategyGardenModule.sol:StrategyGardenModule",
        "label": "maxStrategyDuration",
        "offset": 0,
        "slot": "125",
        "type": "t_uint256"
      },
      {
        "astId": 23652,
        "contract": "contracts/gardens/StrategyGardenModule.sol:StrategyGardenModule",
        "label": "strategyCooldownPeriod",
        "offset": 0,
        "slot": "126",
        "type": "t_uint256"
      },
      {
        "astId": 23655,
        "contract": "contracts/gardens/StrategyGardenModule.sol:StrategyGardenModule",
        "label": "strategies",
        "offset": 0,
        "slot": "127",
        "type": "t_array(t_address)dyn_storage"
      },
      {
        "astId": 23658,
        "contract": "contracts/gardens/StrategyGardenModule.sol:StrategyGardenModule",
        "label": "finalizedStrategies",
        "offset": 0,
        "slot": "128",
        "type": "t_array(t_address)dyn_storage"
      },
      {
        "astId": 23662,
        "contract": "contracts/gardens/StrategyGardenModule.sol:StrategyGardenModule",
        "label": "strategyMapping",
        "offset": 0,
        "slot": "129",
        "type": "t_mapping(t_address,t_bool)"
      },
      {
        "astId": 23666,
        "contract": "contracts/gardens/StrategyGardenModule.sol:StrategyGardenModule",
        "label": "isGardenStrategy",
        "offset": 0,
        "slot": "130",
        "type": "t_mapping(t_address,t_bool)"
      },
      {
        "astId": 23668,
        "contract": "contracts/gardens/StrategyGardenModule.sol:StrategyGardenModule",
        "label": "keeperDebt",
        "offset": 0,
        "slot": "131",
        "type": "t_uint256"
      },
      {
        "astId": 23670,
        "contract": "contracts/gardens/StrategyGardenModule.sol:StrategyGardenModule",
        "label": "totalKeeperFees",
        "offset": 0,
        "slot": "132",
        "type": "t_uint256"
      },
      {
        "astId": 23672,
        "contract": "contracts/gardens/StrategyGardenModule.sol:StrategyGardenModule",
        "label": "publicStrategists",
        "offset": 0,
        "slot": "133",
        "type": "t_bool"
      },
      {
        "astId": 23674,
        "contract": "contracts/gardens/StrategyGardenModule.sol:StrategyGardenModule",
        "label": "publicStewards",
        "offset": 1,
        "slot": "133",
        "type": "t_bool"
      },
      {
        "astId": 23678,
        "contract": "contracts/gardens/StrategyGardenModule.sol:StrategyGardenModule",
        "label": "extraCreators",
        "offset": 0,
        "slot": "134",
        "type": "t_array(t_address)4_storage"
      },
      {
        "astId": 23680,
        "contract": "contracts/gardens/StrategyGardenModule.sol:StrategyGardenModule",
        "label": "lastPricePerShare",
        "offset": 0,
        "slot": "138",
        "type": "t_uint256"
      },
      {
        "astId": 23682,
        "contract": "contracts/gardens/StrategyGardenModule.sol:StrategyGardenModule",
        "label": "lastPricePerShareTS",
        "offset": 0,
        "slot": "139",
        "type": "t_uint256"
      },
      {
        "astId": 23684,
        "contract": "contracts/gardens/StrategyGardenModule.sol:StrategyGardenModule",
        "label": "pricePerShareDecayRate",
        "offset": 0,
        "slot": "140",
        "type": "t_uint256"
      },
      {
        "astId": 23686,
        "contract": "contracts/gardens/StrategyGardenModule.sol:StrategyGardenModule",
        "label": "pricePerShareDelta",
        "offset": 0,
        "slot": "141",
        "type": "t_uint256"
      }
    ],
    "types": {
      "t_address": {
        "encoding": "inplace",
        "label": "address",
        "numberOfBytes": "20"
      },
      "t_array(t_address)4_storage": {
        "base": "t_address",
        "encoding": "inplace",
        "label": "address[4]",
        "numberOfBytes": "128"
      },
      "t_array(t_address)dyn_storage": {
        "base": "t_address",
        "encoding": "dynamic_array",
        "label": "address[]",
        "numberOfBytes": "32"
      },
      "t_array(t_uint256)44_storage": {
        "base": "t_uint256",
        "encoding": "inplace",
        "label": "uint256[44]",
        "numberOfBytes": "1408"
      },
      "t_array(t_uint256)50_storage": {
        "base": "t_uint256",
        "encoding": "inplace",
        "label": "uint256[50]",
        "numberOfBytes": "1600"
      },
      "t_bool": {
        "encoding": "inplace",
        "label": "bool",
        "numberOfBytes": "1"
      },
      "t_contract(IBabController)41441": {
        "encoding": "inplace",
        "label": "contract IBabController",
        "numberOfBytes": "20"
      },
      "t_contract(IRewardsDistributor)43217": {
        "encoding": "inplace",
        "label": "contract IRewardsDistributor",
        "numberOfBytes": "20"
      },
      "t_int256": {
        "encoding": "inplace",
        "label": "int256",
        "numberOfBytes": "32"
      },
      "t_mapping(t_address,t_bool)": {
        "encoding": "mapping",
        "key": "t_address",
        "label": "mapping(address => bool)",
        "numberOfBytes": "32",
        "value": "t_bool"
      },
      "t_mapping(t_address,t_mapping(t_address,t_uint256))": {
        "encoding": "mapping",
        "key": "t_address",
        "label": "mapping(address => mapping(address => uint256))",
        "numberOfBytes": "32",
        "value": "t_mapping(t_address,t_uint256)"
      },
      "t_mapping(t_address,t_struct(Contributor)23596_storage)": {
        "encoding": "mapping",
        "key": "t_address",
        "label": "mapping(address => struct BaseGardenModule.Contributor)",
        "numberOfBytes": "32",
        "value": "t_struct(Contributor)23596_storage"
      },
      "t_mapping(t_address,t_uint256)": {
        "encoding": "mapping",
        "key": "t_address",
        "label": "mapping(address => uint256)",
        "numberOfBytes": "32",
        "value": "t_uint256"
      },
      "t_string_storage": {
        "encoding": "bytes",
        "label": "string",
        "numberOfBytes": "32"
      },
      "t_struct(Contributor)23596_storage": {
        "encoding": "inplace",
        "label": "struct BaseGardenModule.Contributor",
        "members": [
          {
            "astId": 23581,
            "contract": "contracts/gardens/StrategyGardenModule.sol:StrategyGardenModule",
            "label": "lastDepositAt",
            "offset": 0,
            "slot": "0",
            "type": "t_uint256"
          },
          {
            "astId": 23583,
            "contract": "contracts/gardens/StrategyGardenModule.sol:StrategyGardenModule",
            "label": "initialDepositAt",
            "offset": 0,
            "slot": "1",
            "type": "t_uint256"
          },
          {
            "astId": 23585,
            "contract": "contracts/gardens/StrategyGardenModule.sol:StrategyGardenModule",
            "label": "claimedAt",
            "offset": 0,
            "slot": "2",
            "type": "t_uint256"
          },
          {
            "astId": 23587,
            "contract": "contracts/gardens/StrategyGardenModule.sol:StrategyGardenModule",
            "label": "claimedBABL",
            "offset": 0,
            "slot": "3",
            "type": "t_uint256"
          },
          {
            "astId": 23589,
            "contract": "contracts/gardens/StrategyGardenModule.sol:StrategyGardenModule",
            "label": "claimedRewards",
            "offset": 0,
            "slot": "4",
            "type": "t_uint256"
          },
          {
            "astId": 23591,
            "contract": "contracts/gardens/StrategyGardenModule.sol:StrategyGardenModule",
            "label": "withdrawnSince",
            "offset": 0,
            "slot": "5",
            "type": "t_uint256"
          },
          {
            "astId": 23593,
            "contract": "contracts/gardens/StrategyGardenModule.sol:StrategyGardenModule",
            "label": "totalDeposits",
            "offset": 0,
            "slot": "6",
            "type": "t_uint256"
          },
          {
            "astId": 23595,
            "contract": "contracts/gardens/StrategyGardenModule.sol:StrategyGardenModule",
            "label": "nonce",
            "offset": 0,
            "slot": "7",
            "type": "t_uint256"
          }
        ],
        "numberOfBytes": "256"
      },
      "t_uint256": {
        "encoding": "inplace",
        "label": "uint256",
        "numberOfBytes": "32"
      },
      "t_uint8": {
        "encoding": "inplace",
        "label": "uint8",
        "numberOfBytes": "1"
      }
    }
  }
}