{
  "address": "0x5444E6D6f8Acc6e0f1BC19A75FB84214fd84C374",
  "abi": [
    {
      "inputs": [
        {
          "internalType": "contract IBabController",
          "name": "_controller",
          "type": "address"
        },
        {
          "internalType": "address",
          "name": "_sushiswapRouterAddress",
          "type": "address"
        }
      ],
      "stateMutability": "nonpayable",
      "type": "constructor"
    },
    {
      "anonymous": false,
      "inputs": [
        {
          "indexed": true,
          "internalType": "address",
          "name": "_strategy",
          "type": "address"
        },
        {
          "indexed": true,
          "internalType": "address",
          "name": "_garden",
          "type": "address"
        },
        {
          "indexed": false,
          "internalType": "address",
          "name": "_pool",
          "type": "address"
        },
        {
          "indexed": false,
          "internalType": "uint256",
          "name": "_poolTokensOut",
          "type": "uint256"
        }
      ],
      "name": "PoolEntered",
      "type": "event"
    },
    {
      "anonymous": false,
      "inputs": [
        {
          "indexed": true,
          "internalType": "address",
          "name": "_strategy",
          "type": "address"
        },
        {
          "indexed": true,
          "internalType": "address",
          "name": "_garden",
          "type": "address"
        },
        {
          "indexed": false,
          "internalType": "address",
          "name": "_pool",
          "type": "address"
        },
        {
          "indexed": false,
          "internalType": "uint256",
          "name": "_poolTokensIn",
          "type": "uint256"
        }
      ],
      "name": "PoolExited",
      "type": "event"
    },
    {
      "inputs": [],
      "name": "MAX_DELTA_BLOCKS",
      "outputs": [
        {
          "internalType": "uint8",
          "name": "",
          "type": "uint8"
        }
      ],
      "stateMutability": "view",
      "type": "function"
    },
    {
      "inputs": [],
      "name": "controller",
      "outputs": [
        {
          "internalType": "contract IBabController",
          "name": "",
          "type": "address"
        }
      ],
      "stateMutability": "view",
      "type": "function"
    },
    {
      "inputs": [
        {
          "internalType": "address",
          "name": "_strategy",
          "type": "address"
        },
        {
          "internalType": "bytes",
          "name": "_pool",
          "type": "bytes"
        },
        {
          "internalType": "uint256",
          "name": "_poolTokensIn",
          "type": "uint256"
        },
        {
          "internalType": "address[]",
          "name": "_tokensOut",
          "type": "address[]"
        },
        {
          "internalType": "uint256[]",
          "name": "_minAmountsOut",
          "type": "uint256[]"
        }
      ],
      "name": "exitPool",
      "outputs": [],
      "stateMutability": "nonpayable",
      "type": "function"
    },
    {
      "inputs": [
        {
          "internalType": "address",
          "name": "_pool",
          "type": "address"
        }
      ],
      "name": "getLPToken",
      "outputs": [
        {
          "internalType": "address",
          "name": "",
          "type": "address"
        }
      ],
      "stateMutability": "view",
      "type": "function"
    },
    {
      "inputs": [
        {
          "internalType": "address",
          "name": "_pool",
          "type": "address"
        }
      ],
      "name": "getPool",
      "outputs": [
        {
          "internalType": "address",
          "name": "",
          "type": "address"
        }
      ],
      "stateMutability": "view",
      "type": "function"
    },
    {
      "inputs": [
        {
          "internalType": "bytes",
          "name": "_pool",
          "type": "bytes"
        },
        {
          "internalType": "uint256",
          "name": "_liquidity",
          "type": "uint256"
        }
      ],
      "name": "getPoolMinAmountsOut",
      "outputs": [
        {
          "internalType": "uint256[]",
          "name": "_minAmountsOut",
          "type": "uint256[]"
        }
      ],
      "stateMutability": "view",
      "type": "function"
    },
    {
      "inputs": [
        {
          "internalType": "bytes",
          "name": "_pool",
          "type": "bytes"
        },
        {
          "internalType": "bool",
          "name": "",
          "type": "bool"
        }
      ],
      "name": "getPoolTokens",
      "outputs": [
        {
          "internalType": "address[]",
          "name": "",
          "type": "address[]"
        }
      ],
      "stateMutability": "view",
      "type": "function"
    },
    {
      "inputs": [
        {
          "internalType": "bytes",
          "name": "",
          "type": "bytes"
        },
        {
          "internalType": "address",
          "name": "",
          "type": "address"
        },
        {
          "internalType": "uint256",
          "name": "",
          "type": "uint256"
        }
      ],
      "name": "getPoolTokensOut",
      "outputs": [
        {
          "internalType": "uint256",
          "name": "",
          "type": "uint256"
        }
      ],
      "stateMutability": "pure",
      "type": "function"
    },
    {
      "inputs": [
        {
          "internalType": "bytes",
          "name": "",
          "type": "bytes"
        }
      ],
      "name": "getPoolWeights",
      "outputs": [
        {
          "internalType": "uint256[]",
          "name": "",
          "type": "uint256[]"
        }
      ],
      "stateMutability": "pure",
      "type": "function"
    },
    {
      "inputs": [
        {
          "internalType": "bytes",
          "name": "_pool",
          "type": "bytes"
        }
      ],
      "name": "getPricePerShare",
      "outputs": [
        {
          "internalType": "uint256",
          "name": "",
          "type": "uint256"
        }
      ],
      "stateMutability": "view",
      "type": "function"
    },
    {
      "inputs": [
        {
          "internalType": "bytes",
          "name": "_pool",
          "type": "bytes"
        }
      ],
      "name": "getRewardTokens",
      "outputs": [
        {
          "internalType": "address[]",
          "name": "",
          "type": "address[]"
        }
      ],
      "stateMutability": "view",
      "type": "function"
    },
    {
      "inputs": [
        {
          "internalType": "bytes",
          "name": "_pool",
          "type": "bytes"
        },
        {
          "internalType": "uint256",
          "name": "_i",
          "type": "uint256"
        }
      ],
      "name": "getUnderlyingAndRate",
      "outputs": [
        {
          "internalType": "address",
          "name": "",
          "type": "address"
        },
        {
          "internalType": "uint256",
          "name": "",
          "type": "uint256"
        }
      ],
      "stateMutability": "view",
      "type": "function"
    },
    {
      "inputs": [
        {
          "internalType": "bytes",
          "name": "_pool",
          "type": "bytes"
        }
      ],
      "name": "isPool",
      "outputs": [
        {
          "internalType": "bool",
          "name": "",
          "type": "bool"
        }
      ],
      "stateMutability": "view",
      "type": "function"
    },
    {
      "inputs": [
        {
          "internalType": "address",
          "name": "_strategy",
          "type": "address"
        },
        {
          "internalType": "bytes",
          "name": "_pool",
          "type": "bytes"
        },
        {
          "internalType": "uint256",
          "name": "_poolTokensOut",
          "type": "uint256"
        },
        {
          "internalType": "address[]",
          "name": "_tokensIn",
          "type": "address[]"
        },
        {
          "internalType": "uint256[]",
          "name": "_maxAmountsIn",
          "type": "uint256[]"
        }
      ],
      "name": "joinPool",
      "outputs": [],
      "stateMutability": "nonpayable",
      "type": "function"
    },
    {
      "inputs": [],
      "name": "name",
      "outputs": [
        {
          "internalType": "string",
          "name": "",
          "type": "string"
        }
      ],
      "stateMutability": "view",
      "type": "function"
    },
    {
      "inputs": [
        {
          "internalType": "bytes",
          "name": "",
          "type": "bytes"
        }
      ],
      "name": "poolWeightsByPrice",
      "outputs": [
        {
          "internalType": "bool",
          "name": "",
          "type": "bool"
        }
      ],
      "stateMutability": "view",
      "type": "function"
    },
    {
      "inputs": [
        {
          "internalType": "address",
          "name": "_pool",
          "type": "address"
        }
      ],
      "name": "totalSupply",
      "outputs": [
        {
          "internalType": "uint256",
          "name": "",
          "type": "uint256"
        }
      ],
      "stateMutability": "view",
      "type": "function"
    },
    {
      "inputs": [],
      "name": "uniRouter",
      "outputs": [
        {
          "internalType": "contract IUniswapV2Router",
          "name": "",
          "type": "address"
        }
      ],
      "stateMutability": "view",
      "type": "function"
    }
  ],
  "transactionHash": "0xb2bf262133e9e0406c96a14d22ffda747df67daea04aeb1aee7fcc4f1d282bb3",
  "args": [
    "0xD4a5b5fcB561dAF3aDF86F8477555B92FBa43b5F",
    "0xd9e1cE17f2641f24aE83637ab66a2cca9C378B9F"
  ],
  "solcInputHash": "e8337820deef3634a376cb2385fa3841",
  "bytecode": "0x60a0604052600560f81b6080523480156200001957600080fd5b50604051620028d7380380620028d7833981810160405260408110156200003f57600080fd5b50805160209182015160408051808201909152600c81526b1d5b9a5cddd85c17dc1bdbdb60a21b938101939093529091829082908281816001600160a01b038116620000d2576040805162461bcd60e51b815260206004820152601a60248201527f436f6e74726f6c6c6572206d75737420626520646566696e6564000000000000604482015290519081900360640190fd5b8151620000e7906001906020850190620001cc565b50600080546001600160a01b0319166001600160a01b03928316179055600160025585161580159350915062000127905057506001600160a01b03811615155b6200016b576040805162461bcd60e51b815260206004820152600f60248201526e696e76616c6964206164647265737360881b604482015290519081900360640190fd5b600380546001600160a01b0319166001600160a01b03929092169190911790555060408051808201909152600e8082526d1cdd5cda1a5cddd85c17dc1bdbdb60921b6020909201918252620001c391600191620001cc565b50505062000278565b828054600181600116156101000203166002900490600052602060002090601f0160209004810192826200020457600085556200024f565b82601f106200021f57805160ff19168380011785556200024f565b828001600101855582156200024f579182015b828111156200024f57825182559160200191906001019062000232565b506200025d92915062000261565b5090565b5b808211156200025d576000815560010162000262565b60805160f81c612637620002a060003980610a675280611d01528061237552506126376000f3fe608060405234801561001057600080fd5b50600436106101365760003560e01c80637a6731ab116100b2578063c9d5066b11610081578063e022710711610066578063e0227107146108b4578063e4dc2aa414610924578063f77c47911461094a57610136565b8063c9d5066b146107d8578063d87517b41461084657610136565b80637a6731ab1461061d578063a0e47bf61461073f578063bbe4f6db146103db578063bc82b61d1461074757610136565b806330adee651161010957806354f070c1116100ee57806354f070c11461041d5780636409215914610541578063662952e0146105af57610136565b806330adee65146103bd5780634fc99ed6146103db57610136565b806306fdde031461013b57806307ec3d92146101b85780631b7e75b7146102765780632606249314610305575b600080fd5b610143610952565b6040805160208082528351818301528351919283929083019185019080838360005b8381101561017d578181015183820152602001610165565b50505050905090810190601f1680156101aa5780820380516001836020036101000a031916815260200191505b509250505060405180910390f35b610226600480360360208110156101ce57600080fd5b810190602081018135600160201b8111156101e857600080fd5b8201836020820111156101fa57600080fd5b803590602001918460018302840111600160201b8311171561021b57600080fd5b5090925090506109df565b60408051602080825283518183015283519192839290830191858101910280838360005b8381101561026257818101518382015260200161024a565b505050509050019250505060405180910390f35b6102f36004803603606081101561028c57600080fd5b810190602081018135600160201b8111156102a657600080fd5b8201836020820111156102b857600080fd5b803590602001918460018302840111600160201b831117156102d957600080fd5b91935091506001600160a01b038135169060200135610a50565b60408051918252519081900360200190f35b6103a96004803603602081101561031b57600080fd5b810190602081018135600160201b81111561033557600080fd5b82018360208201111561034757600080fd5b803590602001918460018302840111600160201b8311171561036857600080fd5b91908080601f016020809104026020016040519081016040528093929190818152602001838380828437600092019190915250929550610a5a945050505050565b604080519115158252519081900360200190f35b6103c5610a65565b6040805160ff9092168252519081900360200190f35b610401600480360360208110156103f157600080fd5b50356001600160a01b0316610a89565b604080516001600160a01b039092168252519081900360200190f35b61053f600480360360a081101561043357600080fd5b6001600160a01b038235169190810190604081016020820135600160201b81111561045d57600080fd5b82018360208201111561046f57600080fd5b803590602001918460018302840111600160201b8311171561049057600080fd5b91939092823592604081019060200135600160201b8111156104b157600080fd5b8201836020820111156104c357600080fd5b803590602001918460208302840111600160201b831117156104e457600080fd5b919390929091602081019035600160201b81111561050157600080fd5b82018360208201111561051357600080fd5b803590602001918460208302840111600160201b8311171561053457600080fd5b509092509050610a94565b005b6103a96004803603602081101561055757600080fd5b810190602081018135600160201b81111561057157600080fd5b82018360208201111561058357600080fd5b803590602001918460018302840111600160201b831117156105a457600080fd5b509092509050610ef7565b6102f3600480360360208110156105c557600080fd5b810190602081018135600160201b8111156105df57600080fd5b8201836020820111156105f157600080fd5b803590602001918460018302840111600160201b8311171561061257600080fd5b509092509050610eff565b61053f600480360360a081101561063357600080fd5b6001600160a01b038235169190810190604081016020820135600160201b81111561065d57600080fd5b82018360208201111561066f57600080fd5b803590602001918460018302840111600160201b8311171561069057600080fd5b91939092823592604081019060200135600160201b8111156106b157600080fd5b8201836020820111156106c357600080fd5b803590602001918460208302840111600160201b831117156106e457600080fd5b919390929091602081019035600160201b81111561070157600080fd5b82018360208201111561071357600080fd5b803590602001918460208302840111600160201b8311171561073457600080fd5b509092509050610f12565b610401611482565b6107b56004803603604081101561075d57600080fd5b810190602081018135600160201b81111561077757600080fd5b82018360208201111561078957600080fd5b803590602001918460018302840111600160201b831117156107aa57600080fd5b919350915035611491565b604080516001600160a01b03909316835260208301919091528051918290030190f35b610226600480360360408110156107ee57600080fd5b810190602081018135600160201b81111561080857600080fd5b82018360208201111561081a57600080fd5b803590602001918460018302840111600160201b8311171561083b57600080fd5b9193509150356114ab565b6102266004803603602081101561085c57600080fd5b810190602081018135600160201b81111561087657600080fd5b82018360208201111561088857600080fd5b803590602001918460018302840111600160201b831117156108a957600080fd5b5090925090506116e3565b610226600480360360408110156108ca57600080fd5b810190602081018135600160201b8111156108e457600080fd5b8201836020820111156108f657600080fd5b803590602001918460018302840111600160201b8311171561091757600080fd5b9193509150351515611704565b6102f36004803603602081101561093a57600080fd5b50356001600160a01b0316611860565b61040161186b565b60018054604080516020600284861615610100026000190190941693909304601f810184900484028201840190925281815292918301828280156109d75780601f106109ac576101008083540402835291602001916109d7565b820191906000526020600020905b8154815290600101906020018083116109ba57829003601f168201915b505050505081565b604080516002808252606080830184529260009291906020830190803683370190505090506706f05b59d3b2000081600081518110610a1a57fe5b6020026020010181815250506706f05b59d3b2000081600181518110610a3c57fe5b602090810291909101015290505b92915050565b6001949350505050565b6000610a4a8261187a565b7f000000000000000000000000000000000000000000000000000000000000000081565b6000610a4a826118f9565b600280541415610aeb576040805162461bcd60e51b815260206004820152601f60248201527f5265656e7472616e637947756172643a207265656e7472616e742063616c6c00604482015290519081900360640190fd5b60028055600054604080516313bc6d4b60e01b815233600482015290516001600160a01b03909216916313bc6d4b91602480820192602092909190829003018186803b158015610b3a57600080fd5b505afa158015610b4e573d6000803e3d6000fd5b505050506040513d6020811015610b6457600080fd5b5051610bb7576040805162461bcd60e51b815260206004820152601960248201527f4f6e6c792073797374656d2063616e2063616c6c207468697300000000000000604482015290519081900360640190fd5b6000610bc388886118fc565b90506000610bd78a8a8a8a8a8a8a8a611920565b9050610be281611aeb565b80602001516001600160a01b03166397ccdc60610bff8b8b611bd6565b83606001518a6040518463ffffffff1660e01b815260040180846001600160a01b03168152602001836001600160a01b031681526020018281526020019350505050600060405180830381600087803b158015610c5b57600080fd5b505af1158015610c6f573d6000803e3d6000fd5b505050506000806000610cbf8d8d8d8080601f0160208091040260200160405190810160405280939291908181526020018383808284376000920191909152508f92508e91508d90508c8c611be7565b92509250925083602001516001600160a01b0316636bc195dd8484846040518463ffffffff1660e01b815260040180846001600160a01b0316815260200183815260200180602001828103825283818151815260200191508051906020019080838360005b83811015610d3c578181015183820152602001610d24565b50505050905090810190601f168015610d695780820380516001836020036101000a031916815260200191505b50945050505050600060405180830381600087803b158015610d8a57600080fd5b505af1158015610d9e573d6000803e3d6000fd5b505050506040513d6000823e601f3d908101601f191682016040526020811015610dc757600080fd5b8101908080516040519392919084600160201b821115610de657600080fd5b908301906020820185811115610dfb57600080fd5b8251600160201b811182820188101715610e1457600080fd5b82525081516020918201929091019080838360005b83811015610e41578181015183820152602001610e29565b50505050905090810190601f168015610e6e5780820380516001836020036101000a031916815260200191505b5060405250505050610e7f84611dec565b83600001516001600160a01b031684602001516001600160a01b03167f7659e40cf608296ce5aa9eff9c80adc7a49cb481173fc4e302e3983827b042df878d60405180836001600160a01b031681526020018281526020019250505060405180910390a3505060016002555050505050505050505050565b600092915050565b6000610f0b8383610ef7565b9392505050565b600280541415610f69576040805162461bcd60e51b815260206004820152601f60248201527f5265656e7472616e637947756172643a207265656e7472616e742063616c6c00604482015290519081900360640190fd5b60028055600054604080516313bc6d4b60e01b815233600482015290516001600160a01b03909216916313bc6d4b91602480820192602092909190829003018186803b158015610fb857600080fd5b505afa158015610fcc573d6000803e3d6000fd5b505050506040513d6020811015610fe257600080fd5b5051611035576040805162461bcd60e51b815260206004820152601960248201527f4f6e6c792073797374656d2063616e2063616c6c207468697300000000000000604482015290519081900360640190fd5b60006110478989898989898989611920565b905061105281611eb4565b600061105e89896118fc565b905060005b858110156111a057600087878381811061107957fe5b905060200201356001600160a01b03166001600160a01b0316141580156110d8575073eeeeeeeeeeeeeeeeeeeeeeeeeeeeeeeeeeeeeeee8787838181106110bc57fe5b905060200201356001600160a01b03166001600160a01b031614155b156111985782602001516001600160a01b03166397ccdc606110fa8c8c611bd6565b89898581811061110657fe5b905060200201356001600160a01b031688888681811061112257fe5b905060200201356040518463ffffffff1660e01b815260040180846001600160a01b03168152602001836001600160a01b031681526020018281526020019350505050600060405180830381600087803b15801561117f57600080fd5b505af1158015611193573d6000803e3d6000fd5b505050505b600101611063565b5060008060006111b68d8d8d8d8d8d8d8d611f55565b92509250925084602001516001600160a01b0316636bc195dd8484846040518463ffffffff1660e01b815260040180846001600160a01b0316815260200183815260200180602001828103825283818151815260200191508051906020019080838360005b8381101561123357818101518382015260200161121b565b50505050905090810190601f1680156112605780820380516001836020036101000a031916815260200191505b50945050505050600060405180830381600087803b15801561128157600080fd5b505af1158015611295573d6000803e3d6000fd5b505050506040513d6000823e601f3d908101601f1916820160405260208110156112be57600080fd5b8101908080516040519392919084600160201b8211156112dd57600080fd5b9083019060208201858111156112f257600080fd5b8251600160201b81118282018810171561130b57600080fd5b82525081516020918201929091019080838360005b83811015611338578181015183820152602001611320565b50505050905090810190601f1680156113655780820380516001836020036101000a031916815260200191505b50604052505050506113fc8560c0015186606001516001600160a01b03166370a0823188602001516040518263ffffffff1660e01b815260040180826001600160a01b0316815260200191505060206040518083038186803b1580156113ca57600080fd5b505afa1580156113de573d6000803e3d6000fd5b505050506040513d60208110156113f457600080fd5b505190612033565b60a086015261140a85612043565b84600001516001600160a01b031685602001516001600160a01b03167fe5ca6288535c5c6c2462c912b4033eade15b80926717896a2d58a2defdeb9128868d60405180836001600160a01b031681526020018281526020019250505060405180910390a3505060016002555050505050505050505050565b6003546001600160a01b031681565b60008061149f858585612105565b91509150935093915050565b606060006114b985856118fc565b90506000816001600160a01b03166318160ddd6040518163ffffffff1660e01b815260040160206040518083038186803b1580156114f657600080fd5b505afa15801561150a573d6000803e3d6000fd5b505050506040513d602081101561152057600080fd5b5051604080516002808252606082018352929350600092909160208301908036833701905050905061165266b1a2bc2ec50000670de0b6b3a76400000361164c8461164689886001600160a01b0316630dfe16816040518163ffffffff1660e01b815260040160206040518083038186803b15801561159e57600080fd5b505afa1580156115b2573d6000803e3d6000fd5b505050506040513d60208110156115c857600080fd5b5051604080516370a0823160e01b81526001600160a01b038c81166004830152915191909216916370a08231916024808301926020929190829003018186803b15801561161457600080fd5b505afa158015611628573d6000803e3d6000fd5b505050506040513d602081101561163e57600080fd5b50519061213c565b90612160565b906121c7565b8160008151811061165f57fe5b6020026020010181815250506116c166b1a2bc2ec50000670de0b6b3a76400000361164c8461164689886001600160a01b031663d21220a76040518163ffffffff1660e01b815260040160206040518083038186803b15801561159e57600080fd5b816001815181106116ce57fe5b60209081029190910101529695505050505050565b606060006116f184846118fc565b90506116fc816121df565b949350505050565b6060600061171285856118fc565b6040805160028082526060820183529293506000929091602083019080368337019050509050816001600160a01b0316630dfe16816040518163ffffffff1660e01b815260040160206040518083038186803b15801561177157600080fd5b505afa158015611785573d6000803e3d6000fd5b505050506040513d602081101561179b57600080fd5b5051815182906000906117aa57fe5b60200260200101906001600160a01b031690816001600160a01b031681525050816001600160a01b031663d21220a76040518163ffffffff1660e01b815260040160206040518083038186803b15801561180357600080fd5b505afa158015611817573d6000803e3d6000fd5b505050506040513d602081101561182d57600080fd5b505181518290600190811061183e57fe5b6001600160a01b03909216602092830291909101909101529150509392505050565b6000610a4a82612205565b6000546001600160a01b031681565b60008061188883600c612272565b90506000816001600160a01b031663ba9a7a566040518163ffffffff1660e01b815260040160206040518083038186803b1580156118c557600080fd5b505afa1580156118d9573d6000803e3d6000fd5b505050506040513d60208110156118ef57600080fd5b5051119392505050565b90565b60008282602081101561190e57600080fd5b50356001600160a01b03169392505050565b6119286124be565b600061193489896118fc565b905061193e6124be565b611947826118f9565b6001600160a01b0390811660608301528b166020808301829052604080517f56ba88b800000000000000000000000000000000000000000000000000000000815290516356ba88b892600480840193919291829003018186803b1580156119ad57600080fd5b505afa1580156119c1573d6000803e3d6000fd5b505050506040513d60208110156119d757600080fd5b50516001600160a01b03168152604080516020601f8c018190048102820181019092528a8152908b908b9081908401838280828437600092019190915250505050604080830191909152606082015181516370a0823160e01b81526001600160a01b038e81166004830152925192909116916370a0823191602480820192602092909190829003018186803b158015611a6f57600080fd5b505afa158015611a83573d6000803e3d6000fd5b505050506040513d6020811015611a9957600080fd5b505160c082015260a081018890526040805160208681028281018201909352868252909187918791829185019084908082843760009201919091525050505060e08201529a9950505050505050505050565b611af8816040015161187a565b611b49576040805162461bcd60e51b815260206004820152601d60248201527f54686520706f6f6c2061646472657373206973206e6f742076616c6964000000604482015290519081900360640190fd5b60008160a0015111611b8c5760405162461bcd60e51b815260040180806020018281038252602e815260200180612550602e913960400191505060405180910390fd5b8060a001518160c001511015611bd35760405162461bcd60e51b815260040180806020018281038252602d8152602001806125aa602d913960400191505060405180910390fd5b50565b50506003546001600160a01b031690565b600080606060028614611c41576040805162461bcd60e51b815260206004820152601360248201527f54776f20746f6b656e7320726571756972656400000000000000000000000000604482015290519081900360640190fd5b60028414611c96576040805162461bcd60e51b815260206004820152601460248201527f54776f20616d6f756e7473207265717569726564000000000000000000000000604482015290519081900360640190fd5b600087876000818110611ca557fe5b905060200201356001600160a01b031688886001818110611cc257fe5b905060200201356001600160a01b03168a88886000818110611ce057fe5b9050602002013589896001818110611cf457fe5b905060200201358f611d327f000000000000000000000000000000000000000000000000000000000000000060ff164261227e90919063ffffffff16565b604080516001600160a01b03988916602482015296881660448801526064870195909552608486019390935260a4850191909152841660c484015260e4808401919091528151808403909101815261010490920190526020810180517bffffffffffffffffffffffffffffffffffffffffffffffffffffffff167fbaa2abde000000000000000000000000000000000000000000000000000000001790526003549091169450600093509150509750975097945050505050565b8060a001518160c001510381606001516001600160a01b03166370a0823183602001516040518263ffffffff1660e01b815260040180826001600160a01b0316815260200191505060206040518083038186803b158015611e4c57600080fd5b505afa158015611e60573d6000803e3d6000fd5b505050506040513d6020811015611e7657600080fd5b505114611bd35760405162461bcd60e51b815260040180806020018281038252602b8152602001806125d7602b913960400191505060405180910390fd5b611ec1816040015161187a565b611f12576040805162461bcd60e51b815260206004820152601d60248201527f54686520706f6f6c2061646472657373206973206e6f742076616c6964000000604482015290519081900360640190fd5b60008160a0015111611bd35760405162461bcd60e51b815260040180806020018281038252603181526020018061251f6031913960400191505060405180910390fd5b600080606060028614611faf576040805162461bcd60e51b815260206004820152601360248201527f54776f20746f6b656e7320726571756972656400000000000000000000000000604482015290519081900360640190fd5b60028414612004576040805162461bcd60e51b815260206004820152601460248201527f54776f20616d6f756e7473207265717569726564000000000000000000000000604482015290519081900360640190fd5b6003546001600160a01b0316600061201f8d8a8a8a8a61228e565b925092509250985098509895505050505050565b80820382811115610a4a57600080fd5b8060c0015181606001516001600160a01b03166370a0823183602001516040518263ffffffff1660e01b815260040180826001600160a01b0316815260200191505060206040518083038186803b15801561209d57600080fd5b505afa1580156120b1573d6000803e3d6000fd5b505050506040513d60208110156120c757600080fd5b505111611bd35760405162461bcd60e51b815260040180806020018281038252602c81526020018061257e602c913960400191505060405180910390fd5b60008061211485856000611704565b838151811061211f57fe5b6020026020010151670de0b6b3a764000091509150935093915050565b60008215806121575750508181028183828161215457fe5b04145b610a4a57600080fd5b60008082116121b6576040805162461bcd60e51b815260206004820152601a60248201527f536166654d6174683a206469766973696f6e206279207a65726f000000000000604482015290519081900360640190fd5b8183816121bf57fe5b049392505050565b6000610f0b670de0b6b3a7640000611646858561213c565b604080516001808252818301909252606091602080830190803683370190505092915050565b6000816001600160a01b03166318160ddd6040518163ffffffff1660e01b815260040160206040518083038186803b15801561224057600080fd5b505afa158015612254573d6000803e3d6000fd5b505050506040513d602081101561226a57600080fd5b505192915050565b6000610f0b838361244a565b80820182811015610a4a57600080fd5b60608484600081811061229d57fe5b905060200201356001600160a01b0316858560018181106122ba57fe5b905060200201356001600160a01b0316848460008181106122d757fe5b90506020020135858560018181106122eb57fe5b9050602002013561234461232266b1a2bc2ec500008989600081811061230d57fe5b905060200201356121c790919063ffffffff16565b8888600081811061232f57fe5b9050602002013561203390919063ffffffff16565b61236c61235f66b1a2bc2ec500008a8a600181811061230d57fe5b8989600181811061232f57fe5b8b61239a4260ff7f00000000000000000000000000000000000000000000000000000000000000001661227e565b604080516001600160a01b03998a16602482015297891660448901526064880196909652608487019490945260a486019290925260c485015290931660e4830152610104808301939093528051808303909301835261012490910190526020810180517bffffffffffffffffffffffffffffffffffffffffffffffffffffffff167fe8e3370000000000000000000000000000000000000000000000000000000000179052905095945050505050565b600081601401835110156124a5576040805162461bcd60e51b815260206004820152601560248201527f746f416464726573735f6f75744f66426f756e64730000000000000000000000604482015290519081900360640190fd5b5001602001516c01000000000000000000000000900490565b60405180610100016040528060006001600160a01b0316815260200160006001600160a01b031681526020016060815260200160006001600160a01b0316815260200160008152602001600081526020016000815260200160608152509056fe4d696e20706f6f6c20746f6b656e7320746f2072656365697665206d7573742062652067726561746572207468616e2030506f6f6c20746f6b656e7320746f2065786368616e6765206d7573742062652067726561746572207468616e203054686520737472617465677920646964206e6f7420726563656976652074686520706f6f6c20746f6b656e7354686520737472617465677920646f6573206e6f74206861766520656e6f75676820706f6f6c20746f6b656e7354686520737472617465677920646964206e6f742072657475726e2074686520706f6f6c20746f6b656e73a26469706673582212201063d5107dfa8c3648077af0d1a2b609ac9956f7cebd952953a11b168a4b57ec64736f6c63430007060033",
  "devdoc": {
    "author": "Babylon Finance Protocol Sushiswap Protocol pool integration",
    "kind": "dev",
    "methods": {
      "constructor": {
        "params": {
          "_controller": "Address of the controller",
          "_sushiswapRouterAddress": "Address of Sushiswap router"
        }
      },
      "exitPool(address,bytes,uint256,address[],uint256[])": {
        "params": {
          "_minAmountsOut": "Array of min token quantities to receive from the pool",
          "_pool": "Pool info e.g. PoolId or Address of the pool token to join + metadata",
          "_poolTokensIn": "Pool tokens to exchange for the underlying tokens",
          "_strategy": "Address of the strategy",
          "_tokensOut": "Array of token addresses to withdraw"
        }
      },
      "getLPToken(address)": {
        "params": {
          "_pool": "Address of the pool"
        },
        "returns": {
          "_0": "address                 Address of the LP token"
        }
      },
      "getPool(address)": {
        "params": {
          "_pool": "Address of the maybe pool"
        },
        "returns": {
          "_0": "address                 Address of the pool itself"
        }
      },
      "getUnderlyingAndRate(bytes,uint256)": {
        "params": {
          "_i": "Index of coin in the pool",
          "_pool": "Address of the pool"
        },
        "returns": {
          "_0": "address                 Underlying coin",
          "_1": "uint256                 Rate from coin to underlying"
        }
      },
      "isPool(bytes)": {
        "params": {
          "_pool": "OpData e.g. Pool address to check"
        },
        "returns": {
          "_0": "bool                 True if the address is a pool"
        }
      },
      "joinPool(address,bytes,uint256,address[],uint256[])": {
        "params": {
          "_maxAmountsIn": "Array of max token quantities to pull out from the garden",
          "_pool": "OpData e.g. Address of the pool token to join",
          "_poolTokensOut": "Min amount of pool tokens to receive",
          "_strategy": "Address of the strategy",
          "_tokensIn": "Array of token addresses to deposit"
        }
      },
      "totalSupply(address)": {
        "params": {
          "_pool": "Address of the pool"
        },
        "returns": {
          "_0": "address                 Total supply of the token"
        }
      }
    },
    "title": "SushiswapPoolIntegration",
    "version": 1
  },
  "userdoc": {
    "kind": "user",
    "methods": {
      "constructor": {
        "notice": "Creates the integration"
      },
      "exitPool(address,bytes,uint256,address[],uint256[])": {
        "notice": "Exits a liquidity pool. Accrue protocol fee (if any)"
      },
      "getLPToken(address)": {
        "notice": "Returns the actual address of the LP token. Different for curve."
      },
      "getPool(address)": {
        "notice": "Gets the underlying pool that holds the internal tokens. Different for curve."
      },
      "getUnderlyingAndRate(bytes,uint256)": {
        "notice": "Returns the underlying coin"
      },
      "isPool(bytes)": {
        "notice": "Checks whether a pool address is valid"
      },
      "joinPool(address,bytes,uint256,address[],uint256[])": {
        "notice": "Joins a pool"
      },
      "totalSupply(address)": {
        "notice": "Returns the total supply of the pool tokens"
      }
    },
    "version": 1
  },
  "storageLayout": {
    "storage": [
      {
        "astId": 22891,
        "contract": "contracts/integrations/pool/SushiswapPoolIntegration.sol:SushiswapPoolIntegration",
        "label": "controller",
        "offset": 0,
        "slot": "0",
        "type": "t_contract(IBabController)36211"
      },
      {
        "astId": 22893,
        "contract": "contracts/integrations/pool/SushiswapPoolIntegration.sol:SushiswapPoolIntegration",
        "label": "name",
        "offset": 0,
        "slot": "1",
        "type": "t_string_storage"
      },
      {
        "astId": 6418,
        "contract": "contracts/integrations/pool/SushiswapPoolIntegration.sol:SushiswapPoolIntegration",
        "label": "_status",
        "offset": 0,
        "slot": "2",
        "type": "t_uint256"
      },
      {
        "astId": 32116,
        "contract": "contracts/integrations/pool/SushiswapPoolIntegration.sol:SushiswapPoolIntegration",
        "label": "uniRouter",
        "offset": 0,
        "slot": "3",
        "type": "t_contract(IUniswapV2Router)41509"
      }
    ],
    "types": {
      "t_contract(IBabController)36211": {
        "encoding": "inplace",
        "label": "contract IBabController",
        "numberOfBytes": "20"
      },
      "t_contract(IUniswapV2Router)41509": {
        "encoding": "inplace",
        "label": "contract IUniswapV2Router",
        "numberOfBytes": "20"
      },
      "t_string_storage": {
        "encoding": "bytes",
        "label": "string",
        "numberOfBytes": "32"
      },
      "t_uint256": {
        "encoding": "inplace",
        "label": "uint256",
        "numberOfBytes": "32"
      }
    }
  }
}