{
  "address": "0x612F563725763bb068e533b4FABb2530A4d10b6a",
  "abi": [
    {
      "inputs": [
        {
          "internalType": "contract IBabController",
          "name": "_controller",
          "type": "address"
        }
      ],
      "stateMutability": "nonpayable",
      "type": "constructor"
    },
    {
      "anonymous": false,
      "inputs": [
        {
          "indexed": true,
          "internalType": "contract IGarden",
          "name": "_garden",
          "type": "address"
        },
        {
          "indexed": true,
          "internalType": "contract IStrategy",
          "name": "_strategy",
          "type": "address"
        },
        {
          "indexed": true,
          "internalType": "address",
          "name": "_sendToken",
          "type": "address"
        },
        {
          "indexed": false,
          "internalType": "address",
          "name": "_receiveToken",
          "type": "address"
        },
        {
          "indexed": false,
          "internalType": "string",
          "name": "_exchangeName",
          "type": "string"
        },
        {
          "indexed": false,
          "internalType": "uint256",
          "name": "_totalSendAmount",
          "type": "uint256"
        },
        {
          "indexed": false,
          "internalType": "uint256",
          "name": "_totalReceiveAmount",
          "type": "uint256"
        }
      ],
      "name": "ComponentExchanged",
      "type": "event"
    },
    {
      "inputs": [],
      "name": "controller",
      "outputs": [
        {
          "internalType": "contract IBabController",
          "name": "",
          "type": "address"
        }
      ],
      "stateMutability": "view",
      "type": "function"
    },
    {
      "inputs": [],
      "name": "getName",
      "outputs": [
        {
          "internalType": "string",
          "name": "",
          "type": "string"
        }
      ],
      "stateMutability": "view",
      "type": "function"
    },
    {
      "inputs": [],
      "name": "name",
      "outputs": [
        {
          "internalType": "string",
          "name": "",
          "type": "string"
        }
      ],
      "stateMutability": "view",
      "type": "function"
    },
    {
      "inputs": [
        {
          "internalType": "address",
          "name": "_strategy",
          "type": "address"
        },
        {
          "internalType": "address",
          "name": "_sendToken",
          "type": "address"
        },
        {
          "internalType": "uint256",
          "name": "_sendQuantity",
          "type": "uint256"
        },
        {
          "internalType": "address",
          "name": "_receiveToken",
          "type": "address"
        },
        {
          "internalType": "uint256",
          "name": "_minReceiveQuantity",
          "type": "uint256"
        }
      ],
      "name": "trade",
      "outputs": [],
      "stateMutability": "nonpayable",
      "type": "function"
    }
  ],
  "transactionHash": "0x3077b2262e23746bbe8b4fabf4157b90fe2b6f982c70565c2dae2bc86acd0d3c",
  "args": [
    "0xD4a5b5fcB561dAF3aDF86F8477555B92FBa43b5F"
  ],
  "solcInputHash": "4f2ede57b38e39518764caf3bdab1569",
  "bytecode": "0x60806040523480156200001157600080fd5b50604051620021bf380380620021bf8339810160408190526200003491620001ab565b60408051808201909152600f81526e73796e7468657469785f747261646560881b60208201528181816001600160a01b038116620000b9576040805162461bcd60e51b815260206004820152601a60248201527f436f6e74726f6c6c6572206d75737420626520646566696e6564000000000000604482015290519081900360640190fd5b8151620000ce906001906020850190620000ff565b50600080546001600160a01b0319166001600160a01b03929092169190911790555050600160025550620001db9050565b828054600181600116156101000203166002900490600052602060002090601f01602090048101928262000137576000855562000182565b82601f106200015257805160ff191683800117855562000182565b8280016001018555821562000182579182015b828111156200018257825182559160200191906001019062000165565b506200019092915062000194565b5090565b5b8082111562000190576000815560010162000195565b600060208284031215620001bd578081fd5b81516001600160a01b0381168114620001d4578182fd5b9392505050565b611fd480620001eb6000396000f3fe608060405234801561001057600080fd5b506004361061004c5760003560e01c806306fdde031461005157806317d7de7c1461006f578063f77c479114610077578063fa1ca8201461008c575b600080fd5b6100596100a1565b6040516100669190611e9b565b60405180910390f35b61005961012e565b61007f6101c3565b6040516100669190611e43565b61009f61009a366004611d3a565b6101d2565b005b60018054604080516020600284861615610100026000190190941693909304601f810184900484028201840190925281815292918301828280156101265780601f106100fb57610100808354040283529160200191610126565b820191906000526020600020905b81548152906001019060200180831161010957829003601f168201915b505050505081565b60018054604080516020601f600260001961010087891615020190951694909404938401819004810282018101909252828152606093909290918301828280156101b95780601f1061018e576101008083540402835291602001916101b9565b820191906000526020600020905b81548152906001019060200180831161019c57829003601f168201915b5050505050905090565b6000546001600160a01b031681565b600280541415610229576040805162461bcd60e51b815260206004820152601f60248201527f5265656e7472616e637947756172643a207265656e7472616e742063616c6c00604482015290519081900360640190fd5b60028055600054604080517f13bc6d4b00000000000000000000000000000000000000000000000000000000815233600482015290516001600160a01b03909216916313bc6d4b91602480820192602092909190829003018186803b15801561029157600080fd5b505afa1580156102a5573d6000803e3d6000fd5b505050506040513d60208110156102bb57600080fd5b505161030e576040805162461bcd60e51b815260206004820152601960248201527f4f6e6c792073797374656d2063616e2063616c6c207468697300000000000000604482015290519081900360640190fd5b60018054604080516020601f6002600019610100878916150201909516949094049384018190048102820181019092528281526000936103a9938a9383018282801561039b5780601f106103705761010080835404028352916020019161039b565b820191906000526020600020905b81548152906001019060200180831161037e57829003601f168201915b505050505087868887610c78565b90506103b58185610f20565b60008060006103c5888789611097565b919450925090506001600160a01b0383161561063d5760006103e6846111b8565b6001600160a01b0316146104895783602001516001600160a01b03166397ccdc60610410856111b8565b86606001518760c001516040518463ffffffff1660e01b815260040180846001600160a01b03168152602001836001600160a01b031681526020018281526020019350505050600060405180830381600087803b15801561047057600080fd5b505af1158015610484573d6000803e3d6000fd5b505050505b83602001516001600160a01b0316636bc195dd8484846040518463ffffffff1660e01b815260040180846001600160a01b0316815260200183815260200180602001828103825283818151815260200191508051906020019080838360005b838110156105005781810151838201526020016104e8565b50505050905090810190601f16801561052d5780820380516001836020036101000a031916815260200191505b50945050505050600060405180830381600087803b15801561054e57600080fd5b505af1158015610562573d6000803e3d6000fd5b505050506040513d6000823e601f3d908101601f19168201604052602081101561058b57600080fd5b81019080805160405193929190846401000000008211156105ab57600080fd5b9083019060208201858111156105c057600080fd5b82516401000000008111828201881017156105da57600080fd5b82525081516020918201929091019080838360005b838110156106075781810151838201526020016105ef565b50505050905090810190601f1680156106345780820380516001836020036101000a031916815260200191505b50604052505050505b600080600061065a8c88606001518960c001518a608001516111bf565b919450925090506001600160a01b038316156108b85786602001516001600160a01b03166397ccdc6061068c856111b8565b89606001518a60c001516040518463ffffffff1660e01b815260040180846001600160a01b03168152602001836001600160a01b031681526020018281526020019350505050600060405180830381600087803b1580156106ec57600080fd5b505af1158015610700573d6000803e3d6000fd5b5050505086602001516001600160a01b0316636bc195dd8484846040518463ffffffff1660e01b815260040180846001600160a01b0316815260200183815260200180602001828103825283818151815260200191508051906020019080838360005b8381101561077b578181015183820152602001610763565b50505050905090810190601f1680156107a85780820380516001836020036101000a031916815260200191505b50945050505050600060405180830381600087803b1580156107c957600080fd5b505af11580156107dd573d6000803e3d6000fd5b505050506040513d6000823e601f3d908101601f19168201604052602081101561080657600080fd5b810190808051604051939291908464010000000082111561082657600080fd5b90830190602082018581111561083b57600080fd5b825164010000000081118282018810171561085557600080fd5b82525081516020918201929091019080838360005b8381101561088257818101518382015260200161086a565b50505050905090810190601f1680156108af5780820380516001836020036101000a031916815260200191505b50604052505050505b60006108cc8d6108c78c61145c565b6114c9565b90506108d98c8b83611595565b919850965094506001600160a01b03871615610b515760006108fa886111b8565b6001600160a01b03161461099d5787602001516001600160a01b03166397ccdc60610924896111b8565b61092d8d61145c565b846040518463ffffffff1660e01b815260040180846001600160a01b03168152602001836001600160a01b031681526020018281526020019350505050600060405180830381600087803b15801561098457600080fd5b505af1158015610998573d6000803e3d6000fd5b505050505b87602001516001600160a01b0316636bc195dd8888886040518463ffffffff1660e01b815260040180846001600160a01b0316815260200183815260200180602001828103825283818151815260200191508051906020019080838360005b83811015610a145781810151838201526020016109fc565b50505050905090810190601f168015610a415780820380516001836020036101000a031916815260200191505b50945050505050600060405180830381600087803b158015610a6257600080fd5b505af1158015610a76573d6000803e3d6000fd5b505050506040513d6000823e601f3d908101601f191682016040526020811015610a9f57600080fd5b8101908080516040519392919084640100000000821115610abf57600080fd5b908301906020820185811115610ad457600080fd5b8251640100000000811182820188101715610aee57600080fd5b82525081516020918201929091019080838360005b83811015610b1b578181015183820152602001610b03565b50505050905090810190601f168015610b485780820380516001836020036101000a031916815260200191505b50604052505050505b6000610b5c8961161c565b90506000610b7c8a60c001518b610100015161181a90919063ffffffff16565b90508d6001600160a01b03168a602001516001600160a01b03168b600001516001600160a01b03167f6896e8a2de09380c881b23755435130206166901028e7413fce46cd6ecafdb758f8e60400151868860405180856001600160a01b0316815260200180602001848152602001838152602001828103825285818151815260200191508051906020019080838360005b83811015610c25578181015183820152602001610c0d565b50505050905090810190601f168015610c525780820380516001836020036101000a031916815260200191505b509550505050505060405180910390a45050600160025550505050505050505050505050565b610c80611ca7565b610c88611ca7565b6001600160a01b038816602080830182905260408051630ad7511760e31b815290516356ba88b892600480840193919291829003018186803b158015610ccd57600080fd5b505afa158015610ce1573d6000803e3d6000fd5b505050506040513d6020811015610cf757600080fd5b50516001600160a01b0390811682526040808301899052878216606084015286821660808401526020838101518251630ad7511760e31b815292519316926356ba88b8926004808201939291829003018186803b158015610d5757600080fd5b505afa158015610d6b573d6000803e3d6000fd5b505050506040513d6020811015610d8157600080fd5b5051604080517f18160ddd00000000000000000000000000000000000000000000000000000000815290516001600160a01b03909216916318160ddd91600480820192602092909190829003018186803b158015610dde57600080fd5b505afa158015610df2573d6000803e3d6000fd5b505050506040513d6020811015610e0857600080fd5b505160a082015260c0810184905260e08101839052604080516370a0823160e01b81526001600160a01b038a811660048301529151918816916370a0823191602480820192602092909190829003018186803b158015610e6757600080fd5b505afa158015610e7b573d6000803e3d6000fd5b505050506040513d6020811015610e9157600080fd5b5051610100820152604080516370a0823160e01b81526001600160a01b038a811660048301529151918716916370a0823191602480820192602092909190829003018186803b158015610ee357600080fd5b505afa158015610ef7573d6000803e3d6000fd5b505050506040513d6020811015610f0d57600080fd5b5051610120820152979650505050505050565b60008260c0015111610f79576040805162461bcd60e51b815260206004820152601d60248201527f546f6b656e20746f2073656c6c206d757374206265206e6f6e7a65726f000000604482015290519081900360640190fd5b8082606001516001600160a01b03166370a0823184602001516040518263ffffffff1660e01b815260040180826001600160a01b0316815260200191505060206040518083038186803b158015610fcf57600080fd5b505afa158015610fe3573d6000803e3d6000fd5b505050506040513d6020811015610ff957600080fd5b505110156110385760405162461bcd60e51b815260040180806020018281038252602b815260200180611f74602b913960400191505060405180910390fd5b611042828261182a565b611093576040805162461bcd60e51b815260206004820152601460248201527f4e6f7420656e6f756768206c6971756964697479000000000000000000000000604482015290519081900360640190fd5b5050565b60008060606001600160a01b038616736b175474e89094c44da98b954eedeac495271d0f14156111585760008060038660016040516024016110dc9493929190611e76565b60408051601f198184030181529190526020810180517bffffffffffffffffffffffffffffffffffffffffffffffffffffffff167f3df021240000000000000000000000000000000000000000000000000000000017905273a5407eae9ba41422680e2e00537571bcc53efbfd94506000935091506111af9050565b6001600160a01b03861673a0b86991c6218b36c1d19d4a2e9eb0ce3606eb4814156111985760008060018660016040516024016110dc9493929190611e76565b505060408051602081019091526000808252915081905b93509350939050565b805b919050565b600080606060008060006111d589888a8d611832565b919450925090506001600160a01b038316158015906111fc57506001600160a01b03821615155b6112215760405162461bcd60e51b815260040161121890611ece565b60405180910390fd5b816001600160a01b0316836001600160a01b0316141561125c5760008060405180602001604052806000815250955095509550505050611452565b6000836001600160a01b031663dbd06c856040518163ffffffff1660e01b815260040160206040518083038186803b15801561129757600080fd5b505afa1580156112ab573d6000803e3d6000fd5b505050506040513d601f19601f820116820180604052508101906112cf9190611d94565b82846001600160a01b031663dbd06c856040518163ffffffff1660e01b815260040160206040518083038186803b15801561130957600080fd5b505afa15801561131d573d6000803e3d6000fd5b505050506040513d601f19601f820116820180604052508101906113419190611d94565b60405160240161135393929190611e60565b60408051601f19818403018152918152602080830180517bffffffffffffffffffffffffffffffffffffffffffffffffffffffff167fee52a2f30000000000000000000000000000000000000000000000000000000017905281517fd4b83992000000000000000000000000000000000000000000000000000000008152915192935073c011a73ee8576fb46f5e1c5751ca3b9fe0af2a6f9263d4b83992926004808201939291829003018186803b15801561140e57600080fd5b505afa158015611422573d6000803e3d6000fd5b505050506040513d601f19601f820116820180604052508101906114469190611d1e565b96506000955093505050505b9450945094915050565b60006001600160a01b038216736b175474e89094c44da98b954eedeac495271d0f14806114a557506001600160a01b03821673a0b86991c6218b36c1d19d4a2e9eb0ce3606eb48145b156114c557507357ab1ec28d129707052df4df418d58a2d46d5f516111ba565b5090565b60006001600160a01b03821615806114fd57506001600160a01b03821673eeeeeeeeeeeeeeeeeeeeeeeeeeeeeeeeeeeeeeee145b1561151357506001600160a01b0382163161158f565b816001600160a01b03166370a08231846040518263ffffffff1660e01b815260040180826001600160a01b0316815260200191505060206040518083038186803b15801561156057600080fd5b505afa158015611574573d6000803e3d6000fd5b505050506040513d602081101561158a57600080fd5b505190505b92915050565b60008060606001600160a01b038516736b175474e89094c44da98b954eedeac495271d0f14156115db576000600360008660016040516024016110dc9493929190611e76565b6001600160a01b03851673a0b86991c6218b36c1d19d4a2e9eb0ce3606eb481415611198576000600160008660016040516024016110dc9493929190611e76565b6000806116af83610120015184608001516001600160a01b03166370a0823186602001516040518263ffffffff1660e01b815260040180826001600160a01b0316815260200191505060206040518083038186803b15801561167d57600080fd5b505afa158015611691573d6000803e3d6000fd5b505050506040513d60208110156116a757600080fd5b50519061181a565b9050600083606001516001600160a01b03166370a0823185602001516040518263ffffffff1660e01b815260040180826001600160a01b0316815260200191505060206040518083038186803b15801561170857600080fd5b505afa15801561171c573d6000803e3d6000fd5b505050506040513d602081101561173257600080fd5b505161010085015190915060009061174a908361181a565b60c086015190915061176490670c7d713b49da0000611bd9565b8110156117b8576040805162461bcd60e51b815260206004820152601960248201527f5061727469616c207472616465206e6f7420616c6c6f77656400000000000000604482015290519081900360640190fd5b8460e00151831015611811576040805162461bcd60e51b815260206004820152601d60248201527f536c6970706167652067726561746572207468616e20616c6c6f776564000000604482015290519081900360640190fd5b50909392505050565b8082038281111561158f57600080fd5b600192915050565b60008060008073c011a73ee8576fb46f5e1c5751ca3b9fe0af2a6f6001600160a01b031663d4b839926040518163ffffffff1660e01b815260040160206040518083038186803b15801561188557600080fd5b505afa158015611899573d6000803e3d6000fd5b505050506040513d601f19601f820116820180604052508101906118bd9190611d1e565b90506001600160a01b038816736b175474e89094c44da98b954eedeac495271d0f148061190657506001600160a01b03881673a0b86991c6218b36c1d19d4a2e9eb0ce3606eb48145b15611923577357ab1ec28d129707052df4df418d58a2d46d5f5197505b6001600160a01b038716736b175474e89094c44da98b954eedeac495271d0f148061196a57506001600160a01b03871673a0b86991c6218b36c1d19d4a2e9eb0ce3606eb48145b15611987577357ab1ec28d129707052df4df418d58a2d46d5f5196505b600080826001600160a01b03166332608039611a168c6001600160a01b03166395d89b416040518163ffffffff1660e01b815260040160006040518083038186803b1580156119d557600080fd5b505afa1580156119e9573d6000803e3d6000fd5b505050506040513d6000823e601f3d908101601f19168201604052611a119190810190611dac565b611bfe565b6040518263ffffffff1660e01b8152600401611a329190611e57565b60206040518083038186803b158015611a4a57600080fd5b505afa925050508015611a7a575060408051601f3d908101601f19168201909252611a7791810190611d1e565b60015b611a875760009150611a8a565b91505b826001600160a01b03166332608039611ad58b6001600160a01b03166395d89b416040518163ffffffff1660e01b815260040160006040518083038186803b1580156119d557600080fd5b6040518263ffffffff1660e01b8152600401611af19190611e57565b60206040518083038186803b158015611b0957600080fd5b505afa925050508015611b39575060408051601f3d908101601f19168201909252611b3691810190611d1e565b60015b611b4557506000611b48565b90505b81818b6001600160a01b03166370a082318a6040518263ffffffff1660e01b8152600401611b769190611e43565b60206040518083038186803b158015611b8e57600080fd5b505afa158015611ba2573d6000803e3d6000fd5b505050506040513d601f19601f82011682018060405250810190611bc69190611d94565b9550955095505050509450945094915050565b6000611bf7670de0b6b3a7640000611bf18585611c1c565b90611c40565b9392505050565b80516000908290611c135750600090506111ba565b50506020015190565b6000821580611c3757505081810281838281611c3457fe5b04145b61158f57600080fd5b6000808211611c96576040805162461bcd60e51b815260206004820152601a60248201527f536166654d6174683a206469766973696f6e206279207a65726f000000000000604482015290519081900360640190fd5b818381611c9f57fe5b049392505050565b60405180610140016040528060006001600160a01b0316815260200160006001600160a01b031681526020016060815260200160006001600160a01b0316815260200160006001600160a01b0316815260200160008152602001600081526020016000815260200160008152602001600081525090565b600060208284031215611d2f578081fd5b8151611bf781611f5b565b600080600080600060a08688031215611d51578081fd5b8535611d5c81611f5b565b94506020860135611d6c81611f5b565b9350604086013592506060860135611d8381611f5b565b949793965091946080013592915050565b600060208284031215611da5578081fd5b5051919050565b600060208284031215611dbd578081fd5b815167ffffffffffffffff80821115611dd4578283fd5b818401915084601f830112611de7578283fd5b815181811115611df357fe5b604051601f8201601f191681016020018381118282101715611e1157fe5b604052818152838201602001871015611e28578485fd5b611e39826020830160208701611f2b565b9695505050505050565b6001600160a01b0391909116815260200190565b90815260200190565b9283526020830191909152604082015260600190565b60ff948516815292841660208401526040830191909152909116606082015260800190565b6000602082528251806020840152611eba816040850160208701611f2b565b601f01601f19169190910160400192915050565b60208082526023908201527f53796e7465746978206e656564732073796e7468206f7220444149206f72205560408201527f5344430000000000000000000000000000000000000000000000000000000000606082015260800190565b60005b83811015611f46578181015183820152602001611f2e565b83811115611f55576000848401525b50505050565b6001600160a01b0381168114611f7057600080fd5b5056fe5374726174656779206e6565647320746f206861766520656e6f756768206c697175696420746f6b656e73a2646970667358221220770fd76c4bf21fefa38e32a9f486adcc00485f58c38d38098ce25c393cb8d59464736f6c63430007060033",
  "devdoc": {
    "author": "Babylon Finance Protocol Synthethix trade integration",
    "kind": "dev",
    "methods": {
      "constructor": {
        "params": {
          "_controller": "Address of the controller"
        }
      },
      "trade(address,address,uint256,address,uint256)": {
        "details": "@param _strategy             Address of the strategy",
        "params": {
          "_minReceiveQuantity": "Min units of wanted token to be received from the exchange",
          "_receiveToken": "Address of the token that will be received from the exchange",
          "_sendQuantity": "Units of reserve asset token sent to the exchange",
          "_sendToken": "Address of the token to be sent to the exchange"
        }
      }
    },
    "title": "SynthetixTradeIntegration",
    "version": 1
  },
  "userdoc": {
    "kind": "user",
    "methods": {
      "constructor": {
        "notice": "Creates the integration"
      },
      "getName()": {
        "notice": "Returns the name of the integration"
      },
      "trade(address,address,uint256,address,uint256)": {
        "notice": "Executes a trade on a supported DEX."
      }
    },
    "version": 1
  },
  "storageLayout": {
    "storage": [
      {
        "astId": 21421,
        "contract": "contracts/integrations/trade/SynthetixTradeIntegration.sol:SynthetixTradeIntegration",
        "label": "controller",
        "offset": 0,
        "slot": "0",
        "type": "t_contract(IBabController)33589"
      },
      {
        "astId": 21447,
        "contract": "contracts/integrations/trade/SynthetixTradeIntegration.sol:SynthetixTradeIntegration",
        "label": "name",
        "offset": 0,
        "slot": "1",
        "type": "t_string_storage"
      },
      {
        "astId": 6418,
        "contract": "contracts/integrations/trade/SynthetixTradeIntegration.sol:SynthetixTradeIntegration",
        "label": "_status",
        "offset": 0,
        "slot": "2",
        "type": "t_uint256"
      }
    ],
    "types": {
      "t_contract(IBabController)33589": {
        "encoding": "inplace",
        "label": "contract IBabController",
        "numberOfBytes": "20"
      },
      "t_string_storage": {
        "encoding": "bytes",
        "label": "string",
        "numberOfBytes": "32"
      },
      "t_uint256": {
        "encoding": "inplace",
        "label": "uint256",
        "numberOfBytes": "32"
      }
    }
  }
}