{
  "address": "0xe7f0A49905A58BEb69F13d72C5672988ee54a94a",
  "abi": [
    {
      "inputs": [
        {
          "internalType": "contract TimeLockedToken",
          "name": "_token",
          "type": "address"
        }
      ],
      "stateMutability": "nonpayable",
      "type": "constructor"
    },
    {
      "anonymous": false,
      "inputs": [
        {
          "indexed": false,
          "internalType": "address",
          "name": "receiver",
          "type": "address"
        },
        {
          "indexed": false,
          "internalType": "uint256",
          "name": "distribution",
          "type": "uint256"
        }
      ],
      "name": "Cancel",
      "type": "event"
    },
    {
      "anonymous": false,
      "inputs": [
        {
          "indexed": false,
          "internalType": "address",
          "name": "account",
          "type": "address"
        },
        {
          "indexed": false,
          "internalType": "uint256",
          "name": "distribution",
          "type": "uint256"
        }
      ],
      "name": "Claim",
      "type": "event"
    },
    {
      "anonymous": false,
      "inputs": [
        {
          "indexed": true,
          "internalType": "address",
          "name": "previousOwner",
          "type": "address"
        },
        {
          "indexed": true,
          "internalType": "address",
          "name": "newOwner",
          "type": "address"
        }
      ],
      "name": "OwnershipTransferred",
      "type": "event"
    },
    {
      "anonymous": false,
      "inputs": [
        {
          "indexed": false,
          "internalType": "address",
          "name": "receiver",
          "type": "address"
        },
        {
          "indexed": false,
          "internalType": "uint256",
          "name": "distribution",
          "type": "uint256"
        }
      ],
      "name": "Register",
      "type": "event"
    },
    {
      "inputs": [
        {
          "internalType": "address",
          "name": "account",
          "type": "address"
        }
      ],
      "name": "cancelDeliveredTokens",
      "outputs": [
        {
          "internalType": "bool",
          "name": "",
          "type": "bool"
        }
      ],
      "stateMutability": "nonpayable",
      "type": "function"
    },
    {
      "inputs": [
        {
          "internalType": "address",
          "name": "receiver",
          "type": "address"
        }
      ],
      "name": "cancelRegistration",
      "outputs": [
        {
          "internalType": "bool",
          "name": "",
          "type": "bool"
        }
      ],
      "stateMutability": "nonpayable",
      "type": "function"
    },
    {
      "inputs": [
        {
          "internalType": "address",
          "name": "address_",
          "type": "address"
        }
      ],
      "name": "checkRegisteredDistribution",
      "outputs": [
        {
          "internalType": "uint256",
          "name": "amount",
          "type": "uint256"
        }
      ],
      "stateMutability": "view",
      "type": "function"
    },
    {
      "inputs": [
        {
          "internalType": "address",
          "name": "address_",
          "type": "address"
        }
      ],
      "name": "checkVesting",
      "outputs": [
        {
          "internalType": "bool",
          "name": "team",
          "type": "bool"
        },
        {
          "internalType": "uint256",
          "name": "start",
          "type": "uint256"
        },
        {
          "internalType": "uint256",
          "name": "end",
          "type": "uint256"
        },
        {
          "internalType": "uint256",
          "name": "last",
          "type": "uint256"
        }
      ],
      "stateMutability": "view",
      "type": "function"
    },
    {
      "inputs": [
        {
          "internalType": "address",
          "name": "_receiver",
          "type": "address"
        }
      ],
      "name": "claim",
      "outputs": [
        {
          "internalType": "uint256",
          "name": "",
          "type": "uint256"
        }
      ],
      "stateMutability": "nonpayable",
      "type": "function"
    },
    {
      "inputs": [],
      "name": "getRegistrations",
      "outputs": [
        {
          "internalType": "address[]",
          "name": "",
          "type": "address[]"
        }
      ],
      "stateMutability": "view",
      "type": "function"
    },
    {
      "inputs": [],
      "name": "owner",
      "outputs": [
        {
          "internalType": "address",
          "name": "",
          "type": "address"
        }
      ],
      "stateMutability": "view",
      "type": "function"
    },
    {
      "inputs": [
        {
          "internalType": "address",
          "name": "receiver",
          "type": "address"
        },
        {
          "internalType": "uint256",
          "name": "distribution",
          "type": "uint256"
        },
        {
          "internalType": "bool",
          "name": "investorType",
          "type": "bool"
        },
        {
          "internalType": "uint256",
          "name": "vestingStartingDate",
          "type": "uint256"
        }
      ],
      "name": "register",
      "outputs": [],
      "stateMutability": "nonpayable",
      "type": "function"
    },
    {
      "inputs": [
        {
          "components": [
            {
              "internalType": "address",
              "name": "receiver",
              "type": "address"
            },
            {
              "internalType": "uint256",
              "name": "distribution",
              "type": "uint256"
            },
            {
              "internalType": "bool",
              "name": "investorType",
              "type": "bool"
            },
            {
              "internalType": "uint256",
              "name": "vestingStartingDate",
              "type": "uint256"
            }
          ],
          "internalType": "struct TimeLockRegistry.Registration[]",
          "name": "_registrations",
          "type": "tuple[]"
        }
      ],
      "name": "registerBatch",
      "outputs": [],
      "stateMutability": "nonpayable",
      "type": "function"
    },
    {
      "inputs": [
        {
          "internalType": "address",
          "name": "",
          "type": "address"
        }
      ],
      "name": "registeredDistributions",
      "outputs": [
        {
          "internalType": "uint256",
          "name": "",
          "type": "uint256"
        }
      ],
      "stateMutability": "view",
      "type": "function"
    },
    {
      "inputs": [
        {
          "internalType": "uint256",
          "name": "",
          "type": "uint256"
        }
      ],
      "name": "registrations",
      "outputs": [
        {
          "internalType": "address",
          "name": "",
          "type": "address"
        }
      ],
      "stateMutability": "view",
      "type": "function"
    },
    {
      "inputs": [],
      "name": "renounceOwnership",
      "outputs": [],
      "stateMutability": "nonpayable",
      "type": "function"
    },
    {
      "inputs": [],
      "name": "token",
      "outputs": [
        {
          "internalType": "contract TimeLockedToken",
          "name": "",
          "type": "address"
        }
      ],
      "stateMutability": "view",
      "type": "function"
    },
    {
      "inputs": [
        {
          "internalType": "address",
          "name": "",
          "type": "address"
        }
      ],
      "name": "tokenVested",
      "outputs": [
        {
          "internalType": "bool",
          "name": "team",
          "type": "bool"
        },
        {
          "internalType": "bool",
          "name": "cliff",
          "type": "bool"
        },
        {
          "internalType": "uint256",
          "name": "vestingBegin",
          "type": "uint256"
        },
        {
          "internalType": "uint256",
          "name": "vestingEnd",
          "type": "uint256"
        },
        {
          "internalType": "uint256",
          "name": "lastClaim",
          "type": "uint256"
        }
      ],
      "stateMutability": "view",
      "type": "function"
    },
    {
      "inputs": [],
      "name": "totalTokens",
      "outputs": [
        {
          "internalType": "uint256",
          "name": "",
          "type": "uint256"
        }
      ],
      "stateMutability": "view",
      "type": "function"
    },
    {
      "inputs": [
        {
          "internalType": "address",
          "name": "newOwner",
          "type": "address"
        }
      ],
      "name": "transferOwnership",
      "outputs": [],
      "stateMutability": "nonpayable",
      "type": "function"
    },
    {
      "inputs": [
        {
          "internalType": "uint256",
          "name": "amount",
          "type": "uint256"
        }
      ],
      "name": "transferToOwner",
      "outputs": [
        {
          "internalType": "bool",
          "name": "",
          "type": "bool"
        }
      ],
      "stateMutability": "nonpayable",
      "type": "function"
    }
  ],
  "transactionHash": "0x93b6bca4b510919c8c62010251672daecf23c0b66dc49a370de4bbd8ae30593e",
  "args": [
    "0x927761829796FdE7fb3581Ee4FdDe35f371a1926"
  ],
  "solcInputHash": "bd873b418320faeabd457a4fe7c7c19d",
  "bytecode": "0x6080604052630784ce006006556305a39a8060075534801561002057600080fd5b5060405162001d6038038062001d60833981016040819052610041916100be565b600061004b6100ba565b600080546001600160a01b0319166001600160a01b0383169081178255604051929350917f8be0079c531659141344cd1fd0a4f28419497f9722a3daafe3b4186f6b6457e0908290a350600180546001600160a01b0319166001600160a01b03929092169190911790556100ec565b3390565b6000602082840312156100cf578081fd5b81516001600160a01b03811681146100e5578182fd5b9392505050565b611c6480620000fc6000396000f3fe608060405234801561001057600080fd5b506004361061011b5760003560e01c80638da5cb5b116100b2578063d86287aa11610081578063f2fde38b11610066578063f2fde38b1461025e578063f4ddb5be14610271578063fc0c546a146102845761011b565b8063d86287aa14610217578063d8d4ec021461023b5761011b565b80638da5cb5b146101c7578063a8b1959a146101dc578063c2b3f72f146101ef578063d1e8076a146102025761011b565b80637e1c0c09116100ee5780637e1c0c09146101865780638202f4bc1461018e5780638713a48f146101a157806387c1ed12146101b45761011b565b80631e83409a146101205780636b904f45146101495780636bdc06f51461015c578063715018a61461017c575b600080fd5b61013361012e366004611619565b61028c565b6040516101409190611b7a565b60405180910390f35b610133610157366004611619565b61047d565b61016f61016a366004611619565b610498565b604051610140919061186b565b610184610647565b005b610133610712565b61018461019c366004611633565b610718565b6101846101af366004611678565b610a90565b61016f6101c236600461178e565b610b84565b6101cf610c19565b60405161014091906117be565b61016f6101ea366004611619565b610c28565b6101336101fd366004611619565b610d6d565b61020a610d7f565b604051610140919061181e565b61022a610225366004611619565b610de1565b604051610140959493929190611876565b61024e610249366004611619565b610e15565b604051610140949392919061189b565b61018461026c366004611619565b610e48565b6101cf61027f36600461178e565b610f69565b6101cf610f93565b6001546000906001600160a01b031633146102c25760405162461bcd60e51b81526004016102b9906118b8565b60405180910390fd5b6001600160a01b0382166000908152600360205260409020546102f75760405162461bcd60e51b81526004016102b99061194c565b6001600160a01b03821660009081526003602081815260408084208054600284529185204290850155929091529190556005546103349082610fa2565b600555600180546001600160a01b038581166000908152600260208190526040918290208054958101549181015460039091015492517f8cec29230000000000000000000000000000000000000000000000000000000081529390941694638cec2923946103b0948a94899460ff9094169392916004016117eb565b602060405180830381600087803b1580156103ca57600080fd5b505af11580156103de573d6000803e3d6000fd5b505050506040513d601f19601f820116820180604052508101906104029190611772565b506001600160a01b0383166000908152600260208190526040808320805461ffff1916815560018101849055918201839055600390910191909155517f47cee97cb7acd717b3c0aa1435d004cd5b3c8c57d70dbceb4e4458bbd60e39d49061046d90859084906117d2565b60405180910390a190505b919050565b6001600160a01b031660009081526003602052604090205490565b60006104a2611004565b6001600160a01b03166104b3610c19565b6001600160a01b03161461050e576040805162461bcd60e51b815260206004820181905260248201527f4f776e61626c653a2063616c6c6572206973206e6f7420746865206f776e6572604482015290519081900360640190fd5b6001600160a01b0382166000908152600360205260409020546105435760405162461bcd60e51b81526004016102b99061194c565b6001600160a01b03821660009081526003602081815260408084208054908590556002808452828620805461ffff1916815560018101879055908101869055909301939093556004805484518184028101840190955280855292936105f39387939192918301828280156105e057602002820191906000526020600020905b81546001600160a01b031681526001909101906020018083116105c2575b505050505061100890919063ffffffff16565b506005546106019082610fa2565b6005556040517f27f83af92b39768b17fe0c8d6922452702717efb8626d97e7a754e0b27d4f6d29061063690859084906117d2565b60405180910390a150600192915050565b61064f611004565b6001600160a01b0316610660610c19565b6001600160a01b0316146106bb576040805162461bcd60e51b815260206004820181905260248201527f4f776e61626c653a2063616c6c6572206973206e6f7420746865206f776e6572604482015290519081900360640190fd5b600080546040516001600160a01b03909116907f8be0079c531659141344cd1fd0a4f28419497f9722a3daafe3b4186f6b6457e0908390a36000805473ffffffffffffffffffffffffffffffffffffffff19169055565b60055481565b610720611004565b6001600160a01b0316610731610c19565b6001600160a01b03161461078c576040805162461bcd60e51b815260206004820181905260248201527f4f776e61626c653a2063616c6c6572206973206e6f7420746865206f776e6572604482015290519081900360640190fd5b6001600160a01b0384166107b25760405162461bcd60e51b81526004016102b9906118ef565b6001600160a01b0384163014156107db5760405162461bcd60e51b81526004016102b9906119e0565b826107f85760405162461bcd60e51b81526004016102b990611983565b6001600160a01b0384166000908152600360205260409020541561082e5760405162461bcd60e51b81526004016102b990611a63565b63603c20704210156108525760405162461bcd60e51b81526004016102b990611ae6565b6001546040517f70a082310000000000000000000000000000000000000000000000000000000081526001600160a01b03909116906370a082319061089b9030906004016117be565b60206040518083038186803b1580156108b357600080fd5b505afa1580156108c7573d6000803e3d6000fd5b505050506040513d601f19601f820116820180604052508101906108eb91906117a6565b6005546108f89085611085565b11156109165760405162461bcd60e51b81526004016102b990611b43565b6005546109239084611085565b6005556001600160a01b03841660008181526003602090815260408083208790556004805460018082019092557f8a35acfbc15ff81a39ae7d344fd709f28e8600b4aa8c65c6b64bfe7fe36bd19b01805473ffffffffffffffffffffffffffffffffffffffff191690951790945560029091529020805460ff191684151517808255818301849055909160ff909116151514156109d2576006546109c8908390611085565b60028201556109e6565b6007546109e0908390611085565b60028201555b60038181018381556001600160a01b0387166000908152600260208190526040918290208554815460ff191660ff918216151517808355875461ff00199091166101009182900490921615150217815560018087015490820155818601549181019190915591549190920155517e7dc6ab80cc84c043b7b8d4fcafc802187470087f7ea7fccd2e17aecd0256a190610a8190879087906117d2565b60405180910390a15050505050565b610a98611004565b6001600160a01b0316610aa9610c19565b6001600160a01b031614610b04576040805162461bcd60e51b815260206004820181905260248201527f4f776e61626c653a2063616c6c6572206973206e6f7420746865206f776e6572604482015290519081900360640190fd5b60005b8151811015610b8057610b78828281518110610b1f57fe5b602002602001015160000151838381518110610b3757fe5b602002602001015160200151848481518110610b4f57fe5b602002602001015160400151858581518110610b6757fe5b602002602001015160600151610718565b600101610b07565b5050565b6000610b8e611004565b6001600160a01b0316610b9f610c19565b6001600160a01b031614610bfa576040805162461bcd60e51b815260206004820181905260248201527f4f776e61626c653a2063616c6c6572206973206e6f7420746865206f776e6572604482015290519081900360640190fd5b600154610c11906001600160a01b031633846110e6565b506001919050565b6000546001600160a01b031690565b6000610c32611004565b6001600160a01b0316610c43610c19565b6001600160a01b031614610c9e576040805162461bcd60e51b815260206004820181905260248201527f4f776e61626c653a2063616c6c6572206973206e6f7420746865206f776e6572604482015290519081900360640190fd5b6001546040517f4f2050870000000000000000000000000000000000000000000000000000000081526000916001600160a01b031690634f20508790610ce89086906004016117be565b602060405180830381600087803b158015610d0257600080fd5b505af1158015610d16573d6000803e3d6000fd5b505050506040513d601f19601f82011682018060405250810190610d3a91906117a6565b90507f27f83af92b39768b17fe0c8d6922452702717efb8626d97e7a754e0b27d4f6d283826040516106369291906117d2565b60036020526000908152604090205481565b60606004805480602002602001604051908101604052809291908181526020018280548015610dd757602002820191906000526020600020905b81546001600160a01b03168152600190910190602001808311610db9575b5050505050905090565b6002602081905260009182526040909120805460018201549282015460039092015460ff8083169461010090930416929085565b6001600160a01b03166000908152600260208190526040909120805460018201549282015460039092015460ff90911693565b610e50611004565b6001600160a01b0316610e61610c19565b6001600160a01b031614610ebc576040805162461bcd60e51b815260206004820181905260248201527f4f776e61626c653a2063616c6c6572206973206e6f7420746865206f776e6572604482015290519081900360640190fd5b6001600160a01b038116610f015760405162461bcd60e51b8152600401808060200182810382526026815260200180611bb96026913960400191505060405180910390fd5b600080546040516001600160a01b03808516939216917f8be0079c531659141344cd1fd0a4f28419497f9722a3daafe3b4186f6b6457e091a36000805473ffffffffffffffffffffffffffffffffffffffff19166001600160a01b0392909216919091179055565b60048181548110610f7957600080fd5b6000918252602090912001546001600160a01b0316905081565b6001546001600160a01b031681565b600082821115610ff9576040805162461bcd60e51b815260206004820152601e60248201527f536166654d6174683a207375627472616374696f6e206f766572666c6f770000604482015290519081900360640190fd5b508082035b92915050565b3390565b6060600080611017858561116b565b915091508061106d576040805162461bcd60e51b815260206004820152601560248201527f41646472657373206e6f7420696e2061727261792e0000000000000000000000604482015290519081900360640190fd5b600061107986846111d1565b509350610ffe92505050565b6000828201838110156110df576040805162461bcd60e51b815260206004820152601b60248201527f536166654d6174683a206164646974696f6e206f766572666c6f770000000000604482015290519081900360640190fd5b9392505050565b604080516001600160a01b038416602482015260448082018490528251808303909101815260649091019091526020810180517bffffffffffffffffffffffffffffffffffffffffffffffffffffffff167fa9059cbb00000000000000000000000000000000000000000000000000000000179052611166908490611335565b505050565b81516000908190815b818110156111be57846001600160a01b031686828151811061119257fe5b60200260200101516001600160a01b031614156111b6579250600191506111ca9050565b600101611174565b50600019600092509250505b9250929050565b815160609060009080841061122d576040805162461bcd60e51b815260206004820152601860248201527f496e646578206d757374206265203c2041206c656e6774680000000000000000604482015290519081900360640190fd5b60006001820367ffffffffffffffff8111801561124957600080fd5b50604051908082528060200260200182016040528015611273578160200160208202803683370190505b50905060005b858110156112c15786818151811061128d57fe5b60200260200101518282815181106112a157fe5b6001600160a01b0390921660209283029190910190910152600101611279565b50600185015b82811015611312578681815181106112db57fe5b60200260200101518260018303815181106112f257fe5b6001600160a01b03909216602092830291909101909101526001016112c7565b508086868151811061132057fe5b60200260200101519350935050509250929050565b600061138a826040518060400160405280602081526020017f5361666545524332303a206c6f772d6c6576656c2063616c6c206661696c6564815250856001600160a01b03166113e69092919063ffffffff16565b805190915015611166578080602001905160208110156113a957600080fd5b50516111665760405162461bcd60e51b815260040180806020018281038252602a815260200180611c05602a913960400191505060405180910390fd5b60606113f584846000856113fd565b949350505050565b60608247101561143e5760405162461bcd60e51b8152600401808060200182810382526026815260200180611bdf6026913960400191505060405180910390fd5b61144785611558565b611498576040805162461bcd60e51b815260206004820152601d60248201527f416464726573733a2063616c6c20746f206e6f6e2d636f6e7472616374000000604482015290519081900360640190fd5b600080866001600160a01b031685876040518082805190602001908083835b602083106114d65780518252601f1990920191602091820191016114b7565b6001836020036101000a03801982511681845116808217855250505050505090500191505060006040518083038185875af1925050503d8060008114611538576040519150601f19603f3d011682016040523d82523d6000602084013e61153d565b606091505b509150915061154d82828661155e565b979650505050505050565b3b151590565b6060831561156d5750816110df565b82511561157d5782518084602001fd5b8160405162461bcd60e51b81526004018080602001828103825283818151815260200191508051906020019080838360005b838110156115c75781810151838201526020016115af565b50505050905090810190601f1680156115f45780820380516001836020036101000a031916815260200191505b509250505060405180910390fd5b80356001600160a01b038116811461047857600080fd5b60006020828403121561162a578081fd5b6110df82611602565b60008060008060808587031215611648578283fd5b61165185611602565b935060208501359250604085013561166881611ba7565b9396929550929360600135925050565b6000602080838503121561168a578182fd5b823567ffffffffffffffff808211156116a1578384fd5b818501915085601f8301126116b4578384fd5b8135818111156116c057fe5b6116cd8485830201611b83565b818152848101908486016080808502870188018b10156116eb578889fd5b8896505b848710156117635780828c031215611705578889fd5b60408051828101818110898211171561171a57fe5b825261172584611602565b8152898401358a8201528184013561173c81611ba7565b918101919091526060838101359082015284526001969096019592870192908101906116ef565b50909998505050505050505050565b600060208284031215611783578081fd5b81516110df81611ba7565b60006020828403121561179f578081fd5b5035919050565b6000602082840312156117b7578081fd5b5051919050565b6001600160a01b0391909116815260200190565b6001600160a01b03929092168252602082015260400190565b6001600160a01b03969096168652602086019490945291151560408501526060840152608083015260a082015260c00190565b6020808252825182820181905260009190848201906040850190845b8181101561185f5783516001600160a01b03168352928401929184019160010161183a565b50909695505050505050565b901515815260200190565b9415158552921515602085015260408401919091526060830152608082015260a00190565b931515845260208401929092526040830152606082015260800190565b6020808252600f908201527f6f6e6c79204241424c20546f6b656e0000000000000000000000000000000000604082015260600190565b6020808252603c908201527f54696d654c6f636b52656769737472793a3a72656769737465723a2063616e6e60408201527f6f7420726567697374657220746865207a65726f206164647265737300000000606082015260800190565b6020808252600e908201527f4e6f742072656769737465726564000000000000000000000000000000000000604082015260600190565b6020808252602c908201527f54696d654c6f636b52656769737472793a3a72656769737465723a204469737460408201527f7269627574696f6e203d20300000000000000000000000000000000000000000606082015260800190565b6020808252604d908201527f54696d654c6f636b52656769737472793a3a72656769737465723a2054696d6560408201527f204c6f636b20526567697374727920636f6e74726163742063616e6e6f74206260608201527f6520616e20696e766573746f7200000000000000000000000000000000000000608082015260a00190565b6020808252604e908201527f54696d654c6f636b52656769737472793a3a72656769737465723a446973747260408201527f69627574696f6e20666f722074686973206164647265737320697320616c726560608201527f6164792072656769737465726564000000000000000000000000000000000000608082015260a00190565b60208082526027908201527f43616e6e6f74207265676973746572206561726c696572207468616e204d617260408201527f6368203230323100000000000000000000000000000000000000000000000000606082015260800190565b60208082526011908201527f4e6f7420656e6f75676820746f6b656e73000000000000000000000000000000604082015260600190565b90815260200190565b60405181810167ffffffffffffffff81118282101715611b9f57fe5b604052919050565b8015158114611bb557600080fd5b5056fe4f776e61626c653a206e6577206f776e657220697320746865207a65726f2061646472657373416464726573733a20696e73756666696369656e742062616c616e636520666f722063616c6c5361666545524332303a204552433230206f7065726174696f6e20646964206e6f742073756363656564a264697066735822122096798d55c986d57d18a5475c61c8dc79b9f20e76d7daa2d77dd514ee58a1241564736f6c63430007060033",
  "devdoc": {
    "author": "Babylon Finance",
    "details": "This contract allows owner to register distributions for a TimeLockedToken To register a distribution, register method should be called by the owner. claim() should be called only by the BABL Token smartcontract (modifier onlyBABLToken)  when any account registered to receive tokens make its own claim If case of a mistake, owner can cancel registration before the claim is done by the account Note this contract address must be setup in the TimeLockedToken's contract pointing to interact with (e.g. setTimeLockRegistry() function)",
    "kind": "dev",
    "methods": {
      "cancelDeliveredTokens(address)": {
        "details": "An automatic override allowance is granted during the claim process",
        "params": {
          "account": "Address that should have it's distribution removed"
        },
        "returns": {
          "_0": "Whether or not it succeeded"
        }
      },
      "cancelRegistration(address)": {
        "details": "A claim has not to be done earlier",
        "params": {
          "receiver": "Address that should have it's distribution removed"
        },
        "returns": {
          "_0": "Whether or not it succeeded"
        }
      },
      "claim(address)": {
        "details": "Claim is done by the user in the TimeLocked contract and the contract is the only allowed to call this function on behalf of the user to make the claim",
        "returns": {
          "_0": "The amount of tokens registered and delivered after the claim"
        }
      },
      "constructor": {
        "params": {
          "_token": "TimeLockedToken contract to use in this registry"
        }
      },
      "getRegistrations()": {
        "returns": {
          "_0": "address[]        Returns list of registrations"
        }
      },
      "owner()": {
        "details": "Returns the address of the current owner."
      },
      "register(address,uint256,bool,uint256)": {
        "params": {
          "distribution": "Tokens amount that receiver is due to get",
          "receiver": "Address belonging vesting conditions"
        }
      },
      "registerBatch((address,uint256,bool,uint256)[])": {
        "params": {
          "_registrations": "Registrations to process"
        }
      },
      "renounceOwnership()": {
        "details": "Leaves the contract without owner. It will not be possible to call `onlyOwner` functions anymore. Can only be called by the current owner. NOTE: Renouncing ownership will leave the contract without an owner, thereby removing any functionality that is only available to the owner."
      },
      "transferOwnership(address)": {
        "details": "Transfers ownership of the contract to a new account (`newOwner`). Can only be called by the current owner."
      },
      "transferToOwner(uint256)": {
        "params": {
          "amount": "Amount to be recovered by the owner of the Time Lock Registry smartcontract from its balance"
        },
        "returns": {
          "_0": "Whether or not it succeeded"
        }
      }
    },
    "title": "TimeLockRegistry",
    "version": 1
  },
  "userdoc": {
    "kind": "user",
    "methods": {
      "cancelDeliveredTokens(address)": {
        "notice": "PRIVILEGED GOVERNANCE FUNCTION. Cancel distribution registration in case of mistake and before a claim is doneCancel already delivered tokens. It might only apply when non-completion of vesting period of Team members or Advisors"
      },
      "cancelRegistration(address)": {
        "notice": "PRIVILEGED GOVERNANCE FUNCTION. Cancel distribution registration in case of mistake and before a claim is doneCancel distribution registration"
      },
      "claim(address)": {
        "notice": "PRIVILEGED GOVERNANCE FUNCTION. Claim locked tokens by the registered accountClaim tokens due amount."
      },
      "constructor": {
        "notice": "Construct a new Time Lock Registry and gives ownership to sender"
      },
      "getRegistrations()": {
        "notice": "Gets registrations"
      },
      "register(address,uint256,bool,uint256)": {
        "notice": "PRIVILEGED GOVERNANCE FUNCTIONRegister new account under vesting conditions (Team, Advisors, Investors e.g. SAFT purchaser)"
      },
      "registerBatch((address,uint256,bool,uint256)[])": {
        "notice": "PRIVILEGED GOVERNANCE FUNCTIONRegister multiple investors/team in a batch"
      },
      "tokenVested(address)": {
        "notice": "A record of token owners under vesting conditions for each account, by index"
      },
      "transferToOwner(uint256)": {
        "notice": "PRIVILEGED GOVERNANCE FUNCTION. Recover tokens in Time Lock Registry smartcontract address by the ownerSend tokens from smartcontract address to the owner. It might only apply after a cancellation of vested tokens"
      }
    },
    "notice": "Register Lockups for TimeLocked ERC20 Token BABL (e.g. vesting)",
    "version": 1
  },
  "storageLayout": {
    "storage": [
      {
        "astId": 1456,
        "contract": "contracts/token/TimeLockRegistry.sol:TimeLockRegistry",
        "label": "_owner",
        "offset": 0,
        "slot": "0",
        "type": "t_address"
      },
      {
        "astId": 37877,
        "contract": "contracts/token/TimeLockRegistry.sol:TimeLockRegistry",
        "label": "token",
        "offset": 0,
        "slot": "1",
        "type": "t_contract(TimeLockedToken)39515"
      },
      {
        "astId": 37902,
        "contract": "contracts/token/TimeLockRegistry.sol:TimeLockRegistry",
        "label": "tokenVested",
        "offset": 0,
        "slot": "2",
        "type": "t_mapping(t_address,t_struct(TokenVested)37897_storage)"
      },
      {
        "astId": 37906,
        "contract": "contracts/token/TimeLockRegistry.sol:TimeLockRegistry",
        "label": "registeredDistributions",
        "offset": 0,
        "slot": "3",
        "type": "t_mapping(t_address,t_uint256)"
      },
      {
        "astId": 37909,
        "contract": "contracts/token/TimeLockRegistry.sol:TimeLockRegistry",
        "label": "registrations",
        "offset": 0,
        "slot": "4",
        "type": "t_array(t_address)dyn_storage"
      },
      {
        "astId": 37911,
        "contract": "contracts/token/TimeLockRegistry.sol:TimeLockRegistry",
        "label": "totalTokens",
        "offset": 0,
        "slot": "5",
        "type": "t_uint256"
      },
      {
        "astId": 37916,
        "contract": "contracts/token/TimeLockRegistry.sol:TimeLockRegistry",
        "label": "teamVesting",
        "offset": 0,
        "slot": "6",
        "type": "t_uint256"
      },
      {
        "astId": 37921,
        "contract": "contracts/token/TimeLockRegistry.sol:TimeLockRegistry",
        "label": "investorVesting",
        "offset": 0,
        "slot": "7",
        "type": "t_uint256"
      }
    ],
    "types": {
      "t_address": {
        "encoding": "inplace",
        "label": "address",
        "numberOfBytes": "20"
      },
      "t_array(t_address)dyn_storage": {
        "base": "t_address",
        "encoding": "dynamic_array",
        "label": "address[]",
        "numberOfBytes": "32"
      },
      "t_bool": {
        "encoding": "inplace",
        "label": "bool",
        "numberOfBytes": "1"
      },
      "t_contract(TimeLockedToken)39515": {
        "encoding": "inplace",
        "label": "contract TimeLockedToken",
        "numberOfBytes": "20"
      },
      "t_mapping(t_address,t_struct(TokenVested)37897_storage)": {
        "encoding": "mapping",
        "key": "t_address",
        "label": "mapping(address => struct TimeLockRegistry.TokenVested)",
        "numberOfBytes": "32",
        "value": "t_struct(TokenVested)37897_storage"
      },
      "t_mapping(t_address,t_uint256)": {
        "encoding": "mapping",
        "key": "t_address",
        "label": "mapping(address => uint256)",
        "numberOfBytes": "32",
        "value": "t_uint256"
      },
      "t_struct(TokenVested)37897_storage": {
        "encoding": "inplace",
        "label": "struct TimeLockRegistry.TokenVested",
        "members": [
          {
            "astId": 37888,
            "contract": "contracts/token/TimeLockRegistry.sol:TimeLockRegistry",
            "label": "team",
            "offset": 0,
            "slot": "0",
            "type": "t_bool"
          },
          {
            "astId": 37890,
            "contract": "contracts/token/TimeLockRegistry.sol:TimeLockRegistry",
            "label": "cliff",
            "offset": 1,
            "slot": "0",
            "type": "t_bool"
          },
          {
            "astId": 37892,
            "contract": "contracts/token/TimeLockRegistry.sol:TimeLockRegistry",
            "label": "vestingBegin",
            "offset": 0,
            "slot": "1",
            "type": "t_uint256"
          },
          {
            "astId": 37894,
            "contract": "contracts/token/TimeLockRegistry.sol:TimeLockRegistry",
            "label": "vestingEnd",
            "offset": 0,
            "slot": "2",
            "type": "t_uint256"
          },
          {
            "astId": 37896,
            "contract": "contracts/token/TimeLockRegistry.sol:TimeLockRegistry",
            "label": "lastClaim",
            "offset": 0,
            "slot": "3",
            "type": "t_uint256"
          }
        ],
        "numberOfBytes": "128"
      },
      "t_uint256": {
        "encoding": "inplace",
        "label": "uint256",
        "numberOfBytes": "32"
      }
    }
  }
}