{
  "address": "0x009EfACc05539b5d41C1BAC30e01832726A3CA3c",
  "abi": [
    {
      "inputs": [
        {
          "internalType": "contract TimeLockedToken",
          "name": "_token",
          "type": "address"
        }
      ],
      "stateMutability": "nonpayable",
      "type": "constructor"
    },
    {
      "anonymous": false,
      "inputs": [
        {
          "indexed": false,
          "internalType": "address",
          "name": "receiver",
          "type": "address"
        },
        {
          "indexed": false,
          "internalType": "uint256",
          "name": "distribution",
          "type": "uint256"
        }
      ],
      "name": "Cancel",
      "type": "event"
    },
    {
      "anonymous": false,
      "inputs": [
        {
          "indexed": false,
          "internalType": "address",
          "name": "account",
          "type": "address"
        },
        {
          "indexed": false,
          "internalType": "uint256",
          "name": "distribution",
          "type": "uint256"
        }
      ],
      "name": "Claim",
      "type": "event"
    },
    {
      "anonymous": false,
      "inputs": [
        {
          "indexed": true,
          "internalType": "address",
          "name": "previousOwner",
          "type": "address"
        },
        {
          "indexed": true,
          "internalType": "address",
          "name": "newOwner",
          "type": "address"
        }
      ],
      "name": "OwnershipTransferred",
      "type": "event"
    },
    {
      "anonymous": false,
      "inputs": [
        {
          "indexed": false,
          "internalType": "address",
          "name": "receiver",
          "type": "address"
        },
        {
          "indexed": false,
          "internalType": "uint256",
          "name": "distribution",
          "type": "uint256"
        }
      ],
      "name": "Register",
      "type": "event"
    },
    {
      "inputs": [
        {
          "internalType": "address",
          "name": "account",
          "type": "address"
        }
      ],
      "name": "cancelDeliveredTokens",
      "outputs": [
        {
          "internalType": "bool",
          "name": "",
          "type": "bool"
        }
      ],
      "stateMutability": "nonpayable",
      "type": "function"
    },
    {
      "inputs": [
        {
          "internalType": "address",
          "name": "receiver",
          "type": "address"
        }
      ],
      "name": "cancelRegistration",
      "outputs": [
        {
          "internalType": "bool",
          "name": "",
          "type": "bool"
        }
      ],
      "stateMutability": "nonpayable",
      "type": "function"
    },
    {
      "inputs": [
        {
          "internalType": "address",
          "name": "address_",
          "type": "address"
        }
      ],
      "name": "checkRegisteredDistribution",
      "outputs": [
        {
          "internalType": "uint256",
          "name": "amount",
          "type": "uint256"
        }
      ],
      "stateMutability": "view",
      "type": "function"
    },
    {
      "inputs": [
        {
          "internalType": "address",
          "name": "address_",
          "type": "address"
        }
      ],
      "name": "checkVesting",
      "outputs": [
        {
          "internalType": "bool",
          "name": "team",
          "type": "bool"
        },
        {
          "internalType": "uint256",
          "name": "start",
          "type": "uint256"
        },
        {
          "internalType": "uint256",
          "name": "end",
          "type": "uint256"
        },
        {
          "internalType": "uint256",
          "name": "last",
          "type": "uint256"
        }
      ],
      "stateMutability": "view",
      "type": "function"
    },
    {
      "inputs": [
        {
          "internalType": "address",
          "name": "_receiver",
          "type": "address"
        }
      ],
      "name": "claim",
      "outputs": [
        {
          "internalType": "uint256",
          "name": "",
          "type": "uint256"
        }
      ],
      "stateMutability": "nonpayable",
      "type": "function"
    },
    {
      "inputs": [],
      "name": "getRegistrations",
      "outputs": [
        {
          "internalType": "address[]",
          "name": "",
          "type": "address[]"
        }
      ],
      "stateMutability": "view",
      "type": "function"
    },
    {
      "inputs": [],
      "name": "owner",
      "outputs": [
        {
          "internalType": "address",
          "name": "",
          "type": "address"
        }
      ],
      "stateMutability": "view",
      "type": "function"
    },
    {
      "inputs": [
        {
          "internalType": "address",
          "name": "receiver",
          "type": "address"
        },
        {
          "internalType": "uint256",
          "name": "distribution",
          "type": "uint256"
        },
        {
          "internalType": "bool",
          "name": "investorType",
          "type": "bool"
        },
        {
          "internalType": "uint256",
          "name": "vestingStartingDate",
          "type": "uint256"
        }
      ],
      "name": "register",
      "outputs": [],
      "stateMutability": "nonpayable",
      "type": "function"
    },
    {
      "inputs": [
        {
          "components": [
            {
              "internalType": "address",
              "name": "receiver",
              "type": "address"
            },
            {
              "internalType": "uint256",
              "name": "distribution",
              "type": "uint256"
            },
            {
              "internalType": "bool",
              "name": "investorType",
              "type": "bool"
            },
            {
              "internalType": "uint256",
              "name": "vestingStartingDate",
              "type": "uint256"
            }
          ],
          "internalType": "struct TimeLockRegistry.Registration[]",
          "name": "_registrations",
          "type": "tuple[]"
        }
      ],
      "name": "registerBatch",
      "outputs": [],
      "stateMutability": "nonpayable",
      "type": "function"
    },
    {
      "inputs": [
        {
          "internalType": "address",
          "name": "",
          "type": "address"
        }
      ],
      "name": "registeredDistributions",
      "outputs": [
        {
          "internalType": "uint256",
          "name": "",
          "type": "uint256"
        }
      ],
      "stateMutability": "view",
      "type": "function"
    },
    {
      "inputs": [
        {
          "internalType": "uint256",
          "name": "",
          "type": "uint256"
        }
      ],
      "name": "registrations",
      "outputs": [
        {
          "internalType": "address",
          "name": "",
          "type": "address"
        }
      ],
      "stateMutability": "view",
      "type": "function"
    },
    {
      "inputs": [],
      "name": "renounceOwnership",
      "outputs": [],
      "stateMutability": "nonpayable",
      "type": "function"
    },
    {
      "inputs": [],
      "name": "token",
      "outputs": [
        {
          "internalType": "contract TimeLockedToken",
          "name": "",
          "type": "address"
        }
      ],
      "stateMutability": "view",
      "type": "function"
    },
    {
      "inputs": [
        {
          "internalType": "address",
          "name": "",
          "type": "address"
        }
      ],
      "name": "tokenVested",
      "outputs": [
        {
          "internalType": "bool",
          "name": "team",
          "type": "bool"
        },
        {
          "internalType": "bool",
          "name": "cliff",
          "type": "bool"
        },
        {
          "internalType": "uint256",
          "name": "vestingBegin",
          "type": "uint256"
        },
        {
          "internalType": "uint256",
          "name": "vestingEnd",
          "type": "uint256"
        },
        {
          "internalType": "uint256",
          "name": "lastClaim",
          "type": "uint256"
        }
      ],
      "stateMutability": "view",
      "type": "function"
    },
    {
      "inputs": [],
      "name": "totalTokens",
      "outputs": [
        {
          "internalType": "uint256",
          "name": "",
          "type": "uint256"
        }
      ],
      "stateMutability": "view",
      "type": "function"
    },
    {
      "inputs": [
        {
          "internalType": "address",
          "name": "newOwner",
          "type": "address"
        }
      ],
      "name": "transferOwnership",
      "outputs": [],
      "stateMutability": "nonpayable",
      "type": "function"
    },
    {
      "inputs": [
        {
          "internalType": "uint256",
          "name": "amount",
          "type": "uint256"
        }
      ],
      "name": "transferToOwner",
      "outputs": [
        {
          "internalType": "bool",
          "name": "",
          "type": "bool"
        }
      ],
      "stateMutability": "nonpayable",
      "type": "function"
    }
  ],
  "transactionHash": "0xf6034c82d110a5b74ef09b5c0c3b2a388c685136bd5902403bc9bcc5e4925cf8",
  "args": [
    "0xF4Dc48D260C93ad6a96c5Ce563E70CA578987c74"
  ],
  "solcInputHash": "a331cd1030b55486116f1a7a91ca5066",
  "bytecode": "0x608060405234801561001057600080fd5b5060405162001d2d38038062001d2d833981016040819052610031916100ae565b600061003b6100aa565b600080546001600160a01b0319166001600160a01b0383169081178255604051929350917f8be0079c531659141344cd1fd0a4f28419497f9722a3daafe3b4186f6b6457e0908290a350600180546001600160a01b0319166001600160a01b03929092169190911790556100dc565b3390565b6000602082840312156100bf578081fd5b81516001600160a01b03811681146100d5578182fd5b9392505050565b611c4180620000ec6000396000f3fe608060405234801561001057600080fd5b506004361061011b5760003560e01c80638da5cb5b116100b2578063d86287aa11610081578063f2fde38b11610066578063f2fde38b1461025e578063f4ddb5be14610271578063fc0c546a146102845761011b565b8063d86287aa14610217578063d8d4ec021461023b5761011b565b80638da5cb5b146101c7578063a8b1959a146101dc578063c2b3f72f146101ef578063d1e8076a146102025761011b565b80637e1c0c09116100ee5780637e1c0c09146101865780638202f4bc1461018e5780638713a48f146101a157806387c1ed12146101b45761011b565b80631e83409a146101205780636b904f45146101495780636bdc06f51461015c578063715018a61461017c575b600080fd5b61013361012e366004611599565b61028c565b6040516101409190611b57565b60405180910390f35b610133610157366004611599565b61046c565b61016f61016a366004611599565b610487565b60405161014091906117eb565b610184610636565b005b610133610701565b61018461019c3660046115b3565b610707565b6101846101af3660046115f8565b610aab565b61016f6101c236600461170e565b610b9f565b6101cf610c34565b604051610140919061173e565b61016f6101ea366004611599565b610c43565b6101336101fd366004611599565b610d88565b61020a610d9a565b604051610140919061179e565b61022a610225366004611599565b610dfc565b6040516101409594939291906117f6565b61024e610249366004611599565b610e30565b604051610140949392919061181b565b61018461026c366004611599565b610e63565b6101cf61027f36600461170e565b610f84565b6101cf610fae565b6001546000906001600160a01b031633146102c25760405162461bcd60e51b81526004016102b990611895565b60405180910390fd5b6001600160a01b0382166000908152600360205260409020546102f75760405162461bcd60e51b81526004016102b990611929565b6001600160a01b03821660009081526003602081815260408084208054600284529185204281860155939092529290556005546103349083610fbd565b60055560018054825491830154600284015460038501546040517f8cec29230000000000000000000000000000000000000000000000000000000081526001600160a01b0390941694638cec29239461039e948b948a9460ff90941693919290919060040161176b565b602060405180830381600087803b1580156103b857600080fd5b505af11580156103cc573d6000803e3d6000fd5b505050506040513d601f19601f820116820180604052508101906103f091906116f2565b506001600160a01b0384166000908152600260208190526040808320805461ffff1916815560018101849055918201839055600390910191909155517f47cee97cb7acd717b3c0aa1435d004cd5b3c8c57d70dbceb4e4458bbd60e39d49061045b9086908590611752565b60405180910390a15090505b919050565b6001600160a01b031660009081526003602052604090205490565b6000610491610fd3565b6001600160a01b03166104a2610c34565b6001600160a01b0316146104fd576040805162461bcd60e51b815260206004820181905260248201527f4f776e61626c653a2063616c6c6572206973206e6f7420746865206f776e6572604482015290519081900360640190fd5b6001600160a01b0382166000908152600360205260409020546105325760405162461bcd60e51b81526004016102b990611929565b6001600160a01b03821660009081526003602081815260408084208054908590556002808452828620805461ffff1916815560018101879055908101869055909301939093556004805484518184028101840190955280855292936105e29387939192918301828280156105cf57602002820191906000526020600020905b81546001600160a01b031681526001909101906020018083116105b1575b5050505050610fd790919063ffffffff16565b506005546105f09082610fbd565b6005556040517f27f83af92b39768b17fe0c8d6922452702717efb8626d97e7a754e0b27d4f6d2906106259085908490611752565b60405180910390a150600192915050565b61063e610fd3565b6001600160a01b031661064f610c34565b6001600160a01b0316146106aa576040805162461bcd60e51b815260206004820181905260248201527f4f776e61626c653a2063616c6c6572206973206e6f7420746865206f776e6572604482015290519081900360640190fd5b600080546040516001600160a01b03909116907f8be0079c531659141344cd1fd0a4f28419497f9722a3daafe3b4186f6b6457e0908390a36000805473ffffffffffffffffffffffffffffffffffffffff19169055565b60055481565b61070f610fd3565b6001600160a01b0316610720610c34565b6001600160a01b03161461077b576040805162461bcd60e51b815260206004820181905260248201527f4f776e61626c653a2063616c6c6572206973206e6f7420746865206f776e6572604482015290519081900360640190fd5b6001600160a01b0384166107a15760405162461bcd60e51b81526004016102b9906118cc565b6001600160a01b0384163014156107ca5760405162461bcd60e51b81526004016102b9906119bd565b826107e75760405162461bcd60e51b81526004016102b990611960565b6001600160a01b0384166000908152600360205260409020541561081d5760405162461bcd60e51b81526004016102b990611a40565b63603c20708110156108415760405162461bcd60e51b81526004016102b990611ac3565b61084e4262278d00611054565b81111561086d5760405162461bcd60e51b81526004016102b990611838565b6001546040517f70a082310000000000000000000000000000000000000000000000000000000081526001600160a01b03909116906370a08231906108b690309060040161173e565b60206040518083038186803b1580156108ce57600080fd5b505afa1580156108e2573d6000803e3d6000fd5b505050506040513d601f19601f820116820180604052508101906109069190611726565b6005546109139085611054565b11156109315760405162461bcd60e51b81526004016102b990611b20565b60055461093e9084611054565b6005556001600160a01b03841660008181526003602090815260408083208790556004805460018082019092557f8a35acfbc15ff81a39ae7d344fd709f28e8600b4aa8c65c6b64bfe7fe36bd19b01805473ffffffffffffffffffffffffffffffffffffffff191690951790945560029091529020805460ff191684151517808255818301849055909160ff909116151514156109ed576109e382630784ce00611054565b6002820155610a01565b6109fb826305a39a80611054565b60028201555b60038181018381556001600160a01b0387166000908152600260208190526040918290208554815460ff191660ff918216151517808355875461ff00199091166101009182900490921615150217815560018087015490820155818601549181019190915591549190920155517e7dc6ab80cc84c043b7b8d4fcafc802187470087f7ea7fccd2e17aecd0256a190610a9c9087908790611752565b60405180910390a15050505050565b610ab3610fd3565b6001600160a01b0316610ac4610c34565b6001600160a01b031614610b1f576040805162461bcd60e51b815260206004820181905260248201527f4f776e61626c653a2063616c6c6572206973206e6f7420746865206f776e6572604482015290519081900360640190fd5b60005b8151811015610b9b57610b93828281518110610b3a57fe5b602002602001015160000151838381518110610b5257fe5b602002602001015160200151848481518110610b6a57fe5b602002602001015160400151858581518110610b8257fe5b602002602001015160600151610707565b600101610b22565b5050565b6000610ba9610fd3565b6001600160a01b0316610bba610c34565b6001600160a01b031614610c15576040805162461bcd60e51b815260206004820181905260248201527f4f776e61626c653a2063616c6c6572206973206e6f7420746865206f776e6572604482015290519081900360640190fd5b600154610c2c906001600160a01b03163384611064565b506001919050565b6000546001600160a01b031690565b6000610c4d610fd3565b6001600160a01b0316610c5e610c34565b6001600160a01b031614610cb9576040805162461bcd60e51b815260206004820181905260248201527f4f776e61626c653a2063616c6c6572206973206e6f7420746865206f776e6572604482015290519081900360640190fd5b6001546040517f4f2050870000000000000000000000000000000000000000000000000000000081526000916001600160a01b031690634f20508790610d0390869060040161173e565b602060405180830381600087803b158015610d1d57600080fd5b505af1158015610d31573d6000803e3d6000fd5b505050506040513d601f19601f82011682018060405250810190610d559190611726565b90507f27f83af92b39768b17fe0c8d6922452702717efb8626d97e7a754e0b27d4f6d28382604051610625929190611752565b60036020526000908152604090205481565b60606004805480602002602001604051908101604052809291908181526020018280548015610df257602002820191906000526020600020905b81546001600160a01b03168152600190910190602001808311610dd4575b5050505050905090565b6002602081905260009182526040909120805460018201549282015460039092015460ff8083169461010090930416929085565b6001600160a01b03166000908152600260208190526040909120805460018201549282015460039092015460ff90911693565b610e6b610fd3565b6001600160a01b0316610e7c610c34565b6001600160a01b031614610ed7576040805162461bcd60e51b815260206004820181905260248201527f4f776e61626c653a2063616c6c6572206973206e6f7420746865206f776e6572604482015290519081900360640190fd5b6001600160a01b038116610f1c5760405162461bcd60e51b8152600401808060200182810382526026815260200180611b966026913960400191505060405180910390fd5b600080546040516001600160a01b03808516939216917f8be0079c531659141344cd1fd0a4f28419497f9722a3daafe3b4186f6b6457e091a36000805473ffffffffffffffffffffffffffffffffffffffff19166001600160a01b0392909216919091179055565b60048181548110610f9457600080fd5b6000918252602090912001546001600160a01b0316905081565b6001546001600160a01b031681565b80820382811115610fcd57600080fd5b92915050565b3390565b6060600080610fe685856110e9565b915091508061103c576040805162461bcd60e51b815260206004820152601560248201527f41646472657373206e6f7420696e2061727261792e0000000000000000000000604482015290519081900360640190fd5b6000611048868461114f565b509350610fcd92505050565b80820182811015610fcd57600080fd5b604080516001600160a01b038416602482015260448082018490528251808303909101815260649091019091526020810180517bffffffffffffffffffffffffffffffffffffffffffffffffffffffff167fa9059cbb000000000000000000000000000000000000000000000000000000001790526110e49084906112b3565b505050565b81516000908190815b8181101561113c57846001600160a01b031686828151811061111057fe5b60200260200101516001600160a01b03161415611134579250600191506111489050565b6001016110f2565b50600019600092509250505b9250929050565b81516060906000908084106111ab576040805162461bcd60e51b815260206004820152601860248201527f496e646578206d757374206265203c2041206c656e6774680000000000000000604482015290519081900360640190fd5b60006001820367ffffffffffffffff811180156111c757600080fd5b506040519080825280602002602001820160405280156111f1578160200160208202803683370190505b50905060005b8581101561123f5786818151811061120b57fe5b602002602001015182828151811061121f57fe5b6001600160a01b03909216602092830291909101909101526001016111f7565b50600185015b828110156112905786818151811061125957fe5b602002602001015182600183038151811061127057fe5b6001600160a01b0390921660209283029190910190910152600101611245565b508086868151811061129e57fe5b60200260200101519350935050509250929050565b6000611308826040518060400160405280602081526020017f5361666545524332303a206c6f772d6c6576656c2063616c6c206661696c6564815250856001600160a01b03166113649092919063ffffffff16565b8051909150156110e45780806020019051602081101561132757600080fd5b50516110e45760405162461bcd60e51b815260040180806020018281038252602a815260200180611be2602a913960400191505060405180910390fd5b6060611373848460008561137d565b90505b9392505050565b6060824710156113be5760405162461bcd60e51b8152600401808060200182810382526026815260200180611bbc6026913960400191505060405180910390fd5b6113c7856114d8565b611418576040805162461bcd60e51b815260206004820152601d60248201527f416464726573733a2063616c6c20746f206e6f6e2d636f6e7472616374000000604482015290519081900360640190fd5b600080866001600160a01b031685876040518082805190602001908083835b602083106114565780518252601f199092019160209182019101611437565b6001836020036101000a03801982511681845116808217855250505050505090500191505060006040518083038185875af1925050503d80600081146114b8576040519150601f19603f3d011682016040523d82523d6000602084013e6114bd565b606091505b50915091506114cd8282866114de565b979650505050505050565b3b151590565b606083156114ed575081611376565b8251156114fd5782518084602001fd5b8160405162461bcd60e51b81526004018080602001828103825283818151815260200191508051906020019080838360005b8381101561154757818101518382015260200161152f565b50505050905090810190601f1680156115745780820380516001836020036101000a031916815260200191505b509250505060405180910390fd5b80356001600160a01b038116811461046757600080fd5b6000602082840312156115aa578081fd5b61137682611582565b600080600080608085870312156115c8578283fd5b6115d185611582565b93506020850135925060408501356115e881611b84565b9396929550929360600135925050565b6000602080838503121561160a578182fd5b823567ffffffffffffffff80821115611621578384fd5b818501915085601f830112611634578384fd5b81358181111561164057fe5b61164d8485830201611b60565b818152848101908486016080808502870188018b101561166b578889fd5b8896505b848710156116e35780828c031215611685578889fd5b60408051828101818110898211171561169a57fe5b82526116a584611582565b8152898401358a820152818401356116bc81611b84565b9181019190915260608381013590820152845260019690960195928701929081019061166f565b50909998505050505050505050565b600060208284031215611703578081fd5b815161137681611b84565b60006020828403121561171f578081fd5b5035919050565b600060208284031215611737578081fd5b5051919050565b6001600160a01b0391909116815260200190565b6001600160a01b03929092168252602082015260400190565b6001600160a01b03969096168652602086019490945291151560408501526060840152608083015260a082015260c00190565b6020808252825182820181905260009190848201906040850190845b818110156117df5783516001600160a01b0316835292840192918401916001016117ba565b50909695505050505050565b901515815260200190565b9415158552921515602085015260408401919091526060830152608082015260a00190565b931515845260208401929092526040830152606082015260800190565b60208082526035908201527f43616e6e6f74207265676973746572206d6f7265207468616e2033302064617960408201527f7320616865616420696e20746865206675747572650000000000000000000000606082015260800190565b6020808252600f908201527f6f6e6c79204241424c20546f6b656e0000000000000000000000000000000000604082015260600190565b6020808252603c908201527f54696d654c6f636b52656769737472793a3a72656769737465723a2063616e6e60408201527f6f7420726567697374657220746865207a65726f206164647265737300000000606082015260800190565b6020808252600e908201527f4e6f742072656769737465726564000000000000000000000000000000000000604082015260600190565b6020808252602c908201527f54696d654c6f636b52656769737472793a3a72656769737465723a204469737460408201527f7269627574696f6e203d20300000000000000000000000000000000000000000606082015260800190565b6020808252604d908201527f54696d654c6f636b52656769737472793a3a72656769737465723a2054696d6560408201527f204c6f636b20526567697374727920636f6e74726163742063616e6e6f74206260608201527f6520616e20696e766573746f7200000000000000000000000000000000000000608082015260a00190565b6020808252604e908201527f54696d654c6f636b52656769737472793a3a72656769737465723a446973747260408201527f69627574696f6e20666f722074686973206164647265737320697320616c726560608201527f6164792072656769737465726564000000000000000000000000000000000000608082015260a00190565b60208082526027908201527f43616e6e6f74207265676973746572206561726c696572207468616e204d617260408201527f6368203230323100000000000000000000000000000000000000000000000000606082015260800190565b60208082526011908201527f4e6f7420656e6f75676820746f6b656e73000000000000000000000000000000604082015260600190565b90815260200190565b60405181810167ffffffffffffffff81118282101715611b7c57fe5b604052919050565b8015158114611b9257600080fd5b5056fe4f776e61626c653a206e6577206f776e657220697320746865207a65726f2061646472657373416464726573733a20696e73756666696369656e742062616c616e636520666f722063616c6c5361666545524332303a204552433230206f7065726174696f6e20646964206e6f742073756363656564a26469706673582212204cd40272ea0341cf949c5b3f6057169ced9b06952a503a8064fbf9a54af1633064736f6c63430007060033",
  "devdoc": {
    "author": "Babylon Finance",
    "details": "This contract allows owner to register distributions for a TimeLockedToken To register a distribution, register method should be called by the owner. claim() should be called only by the BABL Token smartcontract (modifier onlyBABLToken)  when any account registered to receive tokens make its own claim If case of a mistake, owner can cancel registration before the claim is done by the account Note this contract address must be setup in the TimeLockedToken's contract pointing to interact with (e.g. setTimeLockRegistry() function)",
    "kind": "dev",
    "methods": {
      "cancelDeliveredTokens(address)": {
        "details": "An automatic override allowance is granted during the claim process",
        "params": {
          "account": "Address that should have it's distribution removed"
        },
        "returns": {
          "_0": "Whether or not it succeeded"
        }
      },
      "cancelRegistration(address)": {
        "details": "A claim has not to be done earlier",
        "params": {
          "receiver": "Address that should have it's distribution removed"
        },
        "returns": {
          "_0": "Whether or not it succeeded"
        }
      },
      "claim(address)": {
        "details": "Claim is done by the user in the TimeLocked contract and the contract is the only allowed to call this function on behalf of the user to make the claim",
        "returns": {
          "_0": "The amount of tokens registered and delivered after the claim"
        }
      },
      "constructor": {
        "params": {
          "_token": "TimeLockedToken contract to use in this registry"
        }
      },
      "getRegistrations()": {
        "returns": {
          "_0": "address[]        Returns list of registrations"
        }
      },
      "owner()": {
        "details": "Returns the address of the current owner."
      },
      "register(address,uint256,bool,uint256)": {
        "params": {
          "distribution": "Tokens amount that receiver is due to get",
          "receiver": "Address belonging vesting conditions"
        }
      },
      "registerBatch((address,uint256,bool,uint256)[])": {
        "params": {
          "_registrations": "Registrations to process"
        }
      },
      "renounceOwnership()": {
        "details": "Leaves the contract without owner. It will not be possible to call `onlyOwner` functions anymore. Can only be called by the current owner. NOTE: Renouncing ownership will leave the contract without an owner, thereby removing any functionality that is only available to the owner."
      },
      "transferOwnership(address)": {
        "details": "Transfers ownership of the contract to a new account (`newOwner`). Can only be called by the current owner."
      },
      "transferToOwner(uint256)": {
        "params": {
          "amount": "Amount to be recovered by the owner of the Time Lock Registry smartcontract from its balance"
        },
        "returns": {
          "_0": "Whether or not it succeeded"
        }
      }
    },
    "title": "TimeLockRegistry",
    "version": 1
  },
  "userdoc": {
    "kind": "user",
    "methods": {
      "cancelDeliveredTokens(address)": {
        "notice": "PRIVILEGED GOVERNANCE FUNCTION. Cancel distribution registration in case of mistake and before a claim is doneCancel already delivered tokens. It might only apply when non-completion of vesting period of Team members or Advisors"
      },
      "cancelRegistration(address)": {
        "notice": "PRIVILEGED GOVERNANCE FUNCTION. Cancel distribution registration in case of mistake and before a claim is doneCancel distribution registration"
      },
      "claim(address)": {
        "notice": "PRIVILEGED GOVERNANCE FUNCTION. Claim locked tokens by the registered accountClaim tokens due amount."
      },
      "constructor": {
        "notice": "Construct a new Time Lock Registry and gives ownership to sender"
      },
      "getRegistrations()": {
        "notice": "Gets registrations"
      },
      "register(address,uint256,bool,uint256)": {
        "notice": "PRIVILEGED GOVERNANCE FUNCTIONRegister new account under vesting conditions (Team, Advisors, Investors e.g. SAFT purchaser)"
      },
      "registerBatch((address,uint256,bool,uint256)[])": {
        "notice": "PRIVILEGED GOVERNANCE FUNCTIONRegister multiple investors/team in a batch"
      },
      "tokenVested(address)": {
        "notice": "A record of token owners under vesting conditions for each account, by index"
      },
      "transferToOwner(uint256)": {
        "notice": "PRIVILEGED GOVERNANCE FUNCTION. Recover tokens in Time Lock Registry smartcontract address by the ownerSend tokens from smartcontract address to the owner. It might only apply after a cancellation of vested tokens"
      }
    },
    "notice": "Register Lockups for TimeLocked ERC20 Token BABL (e.g. vesting)",
    "version": 1
  },
  "storageLayout": {
    "storage": [
      {
        "astId": 1456,
        "contract": "contracts/token/TimeLockRegistry.sol:TimeLockRegistry",
        "label": "_owner",
        "offset": 0,
        "slot": "0",
        "type": "t_address"
      },
      {
        "astId": 47098,
        "contract": "contracts/token/TimeLockRegistry.sol:TimeLockRegistry",
        "label": "token",
        "offset": 0,
        "slot": "1",
        "type": "t_contract(TimeLockedToken)48751"
      },
      {
        "astId": 47123,
        "contract": "contracts/token/TimeLockRegistry.sol:TimeLockRegistry",
        "label": "tokenVested",
        "offset": 0,
        "slot": "2",
        "type": "t_mapping(t_address,t_struct(TokenVested)47118_storage)"
      },
      {
        "astId": 47127,
        "contract": "contracts/token/TimeLockRegistry.sol:TimeLockRegistry",
        "label": "registeredDistributions",
        "offset": 0,
        "slot": "3",
        "type": "t_mapping(t_address,t_uint256)"
      },
      {
        "astId": 47130,
        "contract": "contracts/token/TimeLockRegistry.sol:TimeLockRegistry",
        "label": "registrations",
        "offset": 0,
        "slot": "4",
        "type": "t_array(t_address)dyn_storage"
      },
      {
        "astId": 47132,
        "contract": "contracts/token/TimeLockRegistry.sol:TimeLockRegistry",
        "label": "totalTokens",
        "offset": 0,
        "slot": "5",
        "type": "t_uint256"
      }
    ],
    "types": {
      "t_address": {
        "encoding": "inplace",
        "label": "address",
        "numberOfBytes": "20"
      },
      "t_array(t_address)dyn_storage": {
        "base": "t_address",
        "encoding": "dynamic_array",
        "label": "address[]",
        "numberOfBytes": "32"
      },
      "t_bool": {
        "encoding": "inplace",
        "label": "bool",
        "numberOfBytes": "1"
      },
      "t_contract(TimeLockedToken)48751": {
        "encoding": "inplace",
        "label": "contract TimeLockedToken",
        "numberOfBytes": "20"
      },
      "t_mapping(t_address,t_struct(TokenVested)47118_storage)": {
        "encoding": "mapping",
        "key": "t_address",
        "label": "mapping(address => struct TimeLockRegistry.TokenVested)",
        "numberOfBytes": "32",
        "value": "t_struct(TokenVested)47118_storage"
      },
      "t_mapping(t_address,t_uint256)": {
        "encoding": "mapping",
        "key": "t_address",
        "label": "mapping(address => uint256)",
        "numberOfBytes": "32",
        "value": "t_uint256"
      },
      "t_struct(TokenVested)47118_storage": {
        "encoding": "inplace",
        "label": "struct TimeLockRegistry.TokenVested",
        "members": [
          {
            "astId": 47109,
            "contract": "contracts/token/TimeLockRegistry.sol:TimeLockRegistry",
            "label": "team",
            "offset": 0,
            "slot": "0",
            "type": "t_bool"
          },
          {
            "astId": 47111,
            "contract": "contracts/token/TimeLockRegistry.sol:TimeLockRegistry",
            "label": "cliff",
            "offset": 1,
            "slot": "0",
            "type": "t_bool"
          },
          {
            "astId": 47113,
            "contract": "contracts/token/TimeLockRegistry.sol:TimeLockRegistry",
            "label": "vestingBegin",
            "offset": 0,
            "slot": "1",
            "type": "t_uint256"
          },
          {
            "astId": 47115,
            "contract": "contracts/token/TimeLockRegistry.sol:TimeLockRegistry",
            "label": "vestingEnd",
            "offset": 0,
            "slot": "2",
            "type": "t_uint256"
          },
          {
            "astId": 47117,
            "contract": "contracts/token/TimeLockRegistry.sol:TimeLockRegistry",
            "label": "lastClaim",
            "offset": 0,
            "slot": "3",
            "type": "t_uint256"
          }
        ],
        "numberOfBytes": "128"
      },
      "t_uint256": {
        "encoding": "inplace",
        "label": "uint256",
        "numberOfBytes": "32"
      }
    }
  }
}