{
  "address": "0xe6ed0eacb79a6e457416e4df38ed778fd6c6d193",
  "abi": [
    {
      "inputs": [
        {
          "internalType": "uint256",
          "name": "minDelay",
          "type": "uint256"
        },
        {
          "internalType": "address[]",
          "name": "proposers",
          "type": "address[]"
        },
        {
          "internalType": "address[]",
          "name": "executors",
          "type": "address[]"
        }
      ],
      "stateMutability": "nonpayable",
      "type": "constructor"
    },
    {
      "anonymous": false,
      "inputs": [
        {
          "indexed": true,
          "internalType": "bytes32",
          "name": "id",
          "type": "bytes32"
        },
        {
          "indexed": true,
          "internalType": "uint256",
          "name": "index",
          "type": "uint256"
        },
        {
          "indexed": false,
          "internalType": "address",
          "name": "target",
          "type": "address"
        },
        {
          "indexed": false,
          "internalType": "uint256",
          "name": "value",
          "type": "uint256"
        },
        {
          "indexed": false,
          "internalType": "bytes",
          "name": "data",
          "type": "bytes"
        }
      ],
      "name": "CallExecuted",
      "type": "event"
    },
    {
      "anonymous": false,
      "inputs": [
        {
          "indexed": true,
          "internalType": "bytes32",
          "name": "id",
          "type": "bytes32"
        },
        {
          "indexed": true,
          "internalType": "uint256",
          "name": "index",
          "type": "uint256"
        },
        {
          "indexed": false,
          "internalType": "address",
          "name": "target",
          "type": "address"
        },
        {
          "indexed": false,
          "internalType": "uint256",
          "name": "value",
          "type": "uint256"
        },
        {
          "indexed": false,
          "internalType": "bytes",
          "name": "data",
          "type": "bytes"
        },
        {
          "indexed": false,
          "internalType": "bytes32",
          "name": "predecessor",
          "type": "bytes32"
        },
        {
          "indexed": false,
          "internalType": "uint256",
          "name": "delay",
          "type": "uint256"
        }
      ],
      "name": "CallScheduled",
      "type": "event"
    },
    {
      "anonymous": false,
      "inputs": [
        {
          "indexed": true,
          "internalType": "bytes32",
          "name": "id",
          "type": "bytes32"
        }
      ],
      "name": "Cancelled",
      "type": "event"
    },
    {
      "anonymous": false,
      "inputs": [
        {
          "indexed": false,
          "internalType": "uint256",
          "name": "oldDuration",
          "type": "uint256"
        },
        {
          "indexed": false,
          "internalType": "uint256",
          "name": "newDuration",
          "type": "uint256"
        }
      ],
      "name": "MinDelayChange",
      "type": "event"
    },
    {
      "anonymous": false,
      "inputs": [
        {
          "indexed": true,
          "internalType": "bytes32",
          "name": "role",
          "type": "bytes32"
        },
        {
          "indexed": true,
          "internalType": "bytes32",
          "name": "previousAdminRole",
          "type": "bytes32"
        },
        {
          "indexed": true,
          "internalType": "bytes32",
          "name": "newAdminRole",
          "type": "bytes32"
        }
      ],
      "name": "RoleAdminChanged",
      "type": "event"
    },
    {
      "anonymous": false,
      "inputs": [
        {
          "indexed": true,
          "internalType": "bytes32",
          "name": "role",
          "type": "bytes32"
        },
        {
          "indexed": true,
          "internalType": "address",
          "name": "account",
          "type": "address"
        },
        {
          "indexed": true,
          "internalType": "address",
          "name": "sender",
          "type": "address"
        }
      ],
      "name": "RoleGranted",
      "type": "event"
    },
    {
      "anonymous": false,
      "inputs": [
        {
          "indexed": true,
          "internalType": "bytes32",
          "name": "role",
          "type": "bytes32"
        },
        {
          "indexed": true,
          "internalType": "address",
          "name": "account",
          "type": "address"
        },
        {
          "indexed": true,
          "internalType": "address",
          "name": "sender",
          "type": "address"
        }
      ],
      "name": "RoleRevoked",
      "type": "event"
    },
    {
      "inputs": [],
      "name": "DEFAULT_ADMIN_ROLE",
      "outputs": [
        {
          "internalType": "bytes32",
          "name": "",
          "type": "bytes32"
        }
      ],
      "stateMutability": "view",
      "type": "function"
    },
    {
      "inputs": [],
      "name": "EXECUTOR_ROLE",
      "outputs": [
        {
          "internalType": "bytes32",
          "name": "",
          "type": "bytes32"
        }
      ],
      "stateMutability": "view",
      "type": "function"
    },
    {
      "inputs": [],
      "name": "PROPOSER_ROLE",
      "outputs": [
        {
          "internalType": "bytes32",
          "name": "",
          "type": "bytes32"
        }
      ],
      "stateMutability": "view",
      "type": "function"
    },
    {
      "inputs": [],
      "name": "TIMELOCK_ADMIN_ROLE",
      "outputs": [
        {
          "internalType": "bytes32",
          "name": "",
          "type": "bytes32"
        }
      ],
      "stateMutability": "view",
      "type": "function"
    },
    {
      "inputs": [
        {
          "internalType": "bytes32",
          "name": "id",
          "type": "bytes32"
        }
      ],
      "name": "cancel",
      "outputs": [],
      "stateMutability": "nonpayable",
      "type": "function"
    },
    {
      "inputs": [
        {
          "internalType": "address",
          "name": "target",
          "type": "address"
        },
        {
          "internalType": "uint256",
          "name": "value",
          "type": "uint256"
        },
        {
          "internalType": "bytes",
          "name": "data",
          "type": "bytes"
        },
        {
          "internalType": "bytes32",
          "name": "predecessor",
          "type": "bytes32"
        },
        {
          "internalType": "bytes32",
          "name": "salt",
          "type": "bytes32"
        }
      ],
      "name": "execute",
      "outputs": [],
      "stateMutability": "payable",
      "type": "function"
    },
    {
      "inputs": [
        {
          "internalType": "address[]",
          "name": "targets",
          "type": "address[]"
        },
        {
          "internalType": "uint256[]",
          "name": "values",
          "type": "uint256[]"
        },
        {
          "internalType": "bytes[]",
          "name": "datas",
          "type": "bytes[]"
        },
        {
          "internalType": "bytes32",
          "name": "predecessor",
          "type": "bytes32"
        },
        {
          "internalType": "bytes32",
          "name": "salt",
          "type": "bytes32"
        }
      ],
      "name": "executeBatch",
      "outputs": [],
      "stateMutability": "payable",
      "type": "function"
    },
    {
      "inputs": [],
      "name": "getMinDelay",
      "outputs": [
        {
          "internalType": "uint256",
          "name": "duration",
          "type": "uint256"
        }
      ],
      "stateMutability": "view",
      "type": "function"
    },
    {
      "inputs": [
        {
          "internalType": "bytes32",
          "name": "role",
          "type": "bytes32"
        }
      ],
      "name": "getRoleAdmin",
      "outputs": [
        {
          "internalType": "bytes32",
          "name": "",
          "type": "bytes32"
        }
      ],
      "stateMutability": "view",
      "type": "function"
    },
    {
      "inputs": [
        {
          "internalType": "bytes32",
          "name": "id",
          "type": "bytes32"
        }
      ],
      "name": "getTimestamp",
      "outputs": [
        {
          "internalType": "uint256",
          "name": "timestamp",
          "type": "uint256"
        }
      ],
      "stateMutability": "view",
      "type": "function"
    },
    {
      "inputs": [
        {
          "internalType": "bytes32",
          "name": "role",
          "type": "bytes32"
        },
        {
          "internalType": "address",
          "name": "account",
          "type": "address"
        }
      ],
      "name": "grantRole",
      "outputs": [],
      "stateMutability": "nonpayable",
      "type": "function"
    },
    {
      "inputs": [
        {
          "internalType": "bytes32",
          "name": "role",
          "type": "bytes32"
        },
        {
          "internalType": "address",
          "name": "account",
          "type": "address"
        }
      ],
      "name": "hasRole",
      "outputs": [
        {
          "internalType": "bool",
          "name": "",
          "type": "bool"
        }
      ],
      "stateMutability": "view",
      "type": "function"
    },
    {
      "inputs": [
        {
          "internalType": "address",
          "name": "target",
          "type": "address"
        },
        {
          "internalType": "uint256",
          "name": "value",
          "type": "uint256"
        },
        {
          "internalType": "bytes",
          "name": "data",
          "type": "bytes"
        },
        {
          "internalType": "bytes32",
          "name": "predecessor",
          "type": "bytes32"
        },
        {
          "internalType": "bytes32",
          "name": "salt",
          "type": "bytes32"
        }
      ],
      "name": "hashOperation",
      "outputs": [
        {
          "internalType": "bytes32",
          "name": "hash",
          "type": "bytes32"
        }
      ],
      "stateMutability": "pure",
      "type": "function"
    },
    {
      "inputs": [
        {
          "internalType": "address[]",
          "name": "targets",
          "type": "address[]"
        },
        {
          "internalType": "uint256[]",
          "name": "values",
          "type": "uint256[]"
        },
        {
          "internalType": "bytes[]",
          "name": "datas",
          "type": "bytes[]"
        },
        {
          "internalType": "bytes32",
          "name": "predecessor",
          "type": "bytes32"
        },
        {
          "internalType": "bytes32",
          "name": "salt",
          "type": "bytes32"
        }
      ],
      "name": "hashOperationBatch",
      "outputs": [
        {
          "internalType": "bytes32",
          "name": "hash",
          "type": "bytes32"
        }
      ],
      "stateMutability": "pure",
      "type": "function"
    },
    {
      "inputs": [
        {
          "internalType": "bytes32",
          "name": "id",
          "type": "bytes32"
        }
      ],
      "name": "isOperation",
      "outputs": [
        {
          "internalType": "bool",
          "name": "pending",
          "type": "bool"
        }
      ],
      "stateMutability": "view",
      "type": "function"
    },
    {
      "inputs": [
        {
          "internalType": "bytes32",
          "name": "id",
          "type": "bytes32"
        }
      ],
      "name": "isOperationDone",
      "outputs": [
        {
          "internalType": "bool",
          "name": "done",
          "type": "bool"
        }
      ],
      "stateMutability": "view",
      "type": "function"
    },
    {
      "inputs": [
        {
          "internalType": "bytes32",
          "name": "id",
          "type": "bytes32"
        }
      ],
      "name": "isOperationPending",
      "outputs": [
        {
          "internalType": "bool",
          "name": "pending",
          "type": "bool"
        }
      ],
      "stateMutability": "view",
      "type": "function"
    },
    {
      "inputs": [
        {
          "internalType": "bytes32",
          "name": "id",
          "type": "bytes32"
        }
      ],
      "name": "isOperationReady",
      "outputs": [
        {
          "internalType": "bool",
          "name": "ready",
          "type": "bool"
        }
      ],
      "stateMutability": "view",
      "type": "function"
    },
    {
      "inputs": [
        {
          "internalType": "bytes32",
          "name": "role",
          "type": "bytes32"
        },
        {
          "internalType": "address",
          "name": "account",
          "type": "address"
        }
      ],
      "name": "renounceRole",
      "outputs": [],
      "stateMutability": "nonpayable",
      "type": "function"
    },
    {
      "inputs": [
        {
          "internalType": "bytes32",
          "name": "role",
          "type": "bytes32"
        },
        {
          "internalType": "address",
          "name": "account",
          "type": "address"
        }
      ],
      "name": "revokeRole",
      "outputs": [],
      "stateMutability": "nonpayable",
      "type": "function"
    },
    {
      "inputs": [
        {
          "internalType": "address",
          "name": "target",
          "type": "address"
        },
        {
          "internalType": "uint256",
          "name": "value",
          "type": "uint256"
        },
        {
          "internalType": "bytes",
          "name": "data",
          "type": "bytes"
        },
        {
          "internalType": "bytes32",
          "name": "predecessor",
          "type": "bytes32"
        },
        {
          "internalType": "bytes32",
          "name": "salt",
          "type": "bytes32"
        },
        {
          "internalType": "uint256",
          "name": "delay",
          "type": "uint256"
        }
      ],
      "name": "schedule",
      "outputs": [],
      "stateMutability": "nonpayable",
      "type": "function"
    },
    {
      "inputs": [
        {
          "internalType": "address[]",
          "name": "targets",
          "type": "address[]"
        },
        {
          "internalType": "uint256[]",
          "name": "values",
          "type": "uint256[]"
        },
        {
          "internalType": "bytes[]",
          "name": "datas",
          "type": "bytes[]"
        },
        {
          "internalType": "bytes32",
          "name": "predecessor",
          "type": "bytes32"
        },
        {
          "internalType": "bytes32",
          "name": "salt",
          "type": "bytes32"
        },
        {
          "internalType": "uint256",
          "name": "delay",
          "type": "uint256"
        }
      ],
      "name": "scheduleBatch",
      "outputs": [],
      "stateMutability": "nonpayable",
      "type": "function"
    },
    {
      "inputs": [
        {
          "internalType": "bytes4",
          "name": "interfaceId",
          "type": "bytes4"
        }
      ],
      "name": "supportsInterface",
      "outputs": [
        {
          "internalType": "bool",
          "name": "",
          "type": "bool"
        }
      ],
      "stateMutability": "view",
      "type": "function"
    },
    {
      "inputs": [
        {
          "internalType": "uint256",
          "name": "newDelay",
          "type": "uint256"
        }
      ],
      "name": "updateDelay",
      "outputs": [],
      "stateMutability": "nonpayable",
      "type": "function"
    },
    {
      "stateMutability": "payable",
      "type": "receive"
    }
  ],
  "transactionHash": "0x48ba14db5d8cddfb54654dda97843dde65c09a8cffc150d540908933d83c089f",
  "args": [
    {
      "type": "BigNumber",
      "hex": "0x015180"
    },
    [],
    []
  ],
  "solcInputHash": "811e05dbcf5454c3e2b6d50303267941",
  "bytecode": "0x60806040523480156200001157600080fd5b50604051620021f6380380620021f68339810160408190526200003491620003c5565b6200004f6000805160206200219683398151915280620001e1565b62000079600080516020620021b683398151915260008051602062002196833981519152620001e1565b620000a3600080516020620021d683398151915260008051602062002196833981519152620001e1565b620000be600080516020620021968339815191523362000236565b620000d9600080516020620021968339815191523062000236565b60005b825181101562000142576200012f600080516020620021b68339815191528483815181106200011b57634e487b7160e01b600052603260045260246000fd5b60200260200101516200023660201b60201c565b6200013a8162000436565b9050620000dc565b5060005b8151811015620001985762000185600080516020620021d68339815191528383815181106200011b57634e487b7160e01b600052603260045260246000fd5b620001908162000436565b905062000146565b5060028390556040805160008152602081018590527f11c24f4ead16507c69ac467fbd5e4eed5fb5c699626d2cc6d66421df253886d5910160405180910390a150505062000474565b6000620001ee8362000246565b600084815260208190526040808220600101859055519192508391839186917fbd79b86ffe0ab8e8776151514217cd7cacd52c909f66475c3af44e129f0b00ff9190a4505050565b6200024282826200025e565b5050565b6000818152602081905260409020600101545b919050565b6000828152602081815260408083206001600160a01b038516845290915290205460ff1662000242576000828152602081815260408083206001600160a01b03851684529091529020805460ff19166001179055620002ba3390565b6001600160a01b0316816001600160a01b0316837f2f8788117e7eff1d82e926ec794901d17c78024a50270940304540a733656f0d60405160405180910390a45050565b80516001600160a01b03811681146200025957600080fd5b600082601f83011262000327578081fd5b815160206001600160401b03808311156200034657620003466200045e565b818302604051601f19603f830116810181811084821117156200036d576200036d6200045e565b604052848152838101925086840182880185018910156200038c578687fd5b8692505b85831015620003b957620003a481620002fe565b84529284019260019290920191840162000390565b50979650505050505050565b600080600060608486031215620003da578283fd5b835160208501519093506001600160401b0380821115620003f9578384fd5b620004078783880162000316565b935060408601519150808211156200041d578283fd5b506200042c8682870162000316565b9150509250925092565b60006000198214156200045757634e487b7160e01b81526011600452602481fd5b5060010190565b634e487b7160e01b600052604160045260246000fd5b611d1280620004846000396000f3fe60806040526004361061018f5760003560e01c806364d62353116100d6578063b1c5f4271161007f578063d547741f11610059578063d547741f146104d6578063e38335e5146104f6578063f27a0c921461050957610196565b8063b1c5f42714610469578063c4d252f514610489578063d45c4435146104a957610196565b80638f61f4f5116100b05780638f61f4f5146103dc57806391d1485414610410578063a217fddf1461045457610196565b806364d623531461037c5780638065657f1461039c5780638f2a0bb0146103bc57610196565b8063248a9ca31161013857806331d507501161011257806331d507501461031c57806336568abe1461033c578063584b153e1461035c57610196565b8063248a9ca31461029b5780632ab0f529146102cb5780632f2ff15d146102fc57610196565b80630d3cf6fc116101695780630d3cf6fc14610234578063134008d31461026857806313bc9f201461027b57610196565b806301d5062a1461019b57806301ffc9a7146101bd57806307bd0265146101f257610196565b3661019657005b600080fd5b3480156101a757600080fd5b506101bb6101b63660046116f7565b61051e565b005b3480156101c957600080fd5b506101dd6101d8366004611900565b6105b5565b60405190151581526020015b60405180910390f35b3480156101fe57600080fd5b506102267fd8aa0f3194971a2a116679f7c2090f6939c8d4e01a2a8d7e41d55e5351469e6381565b6040519081526020016101e9565b34801561024057600080fd5b506102267f5f58e3a2316349923ce3780f8d587db2d72378aed66a8261c916544fa6846ca581565b6101bb61027636600461168d565b610650565b34801561028757600080fd5b506101dd6102963660046118bd565b61070b565b3480156102a757600080fd5b506102266102b63660046118bd565b60009081526020819052604090206001015490565b3480156102d757600080fd5b506101dd6102e63660046118bd565b6000908152600160208190526040909120541490565b34801561030857600080fd5b506101bb6103173660046118d5565b610731565b34801561032857600080fd5b506101dd6103373660046118bd565b61075c565b34801561034857600080fd5b506101bb6103573660046118d5565b610775565b34801561036857600080fd5b506101dd6103773660046118bd565b610806565b34801561038857600080fd5b506101bb6103973660046118bd565b61081c565b3480156103a857600080fd5b506102266103b736600461168d565b6108d2565b3480156103c857600080fd5b506101bb6103d736600461180f565b610911565b3480156103e857600080fd5b506102267fb09aa5aeb3702cfd50b6b62bc4532604938f21248a27a1d5ca736082b6819cc181565b34801561041c57600080fd5b506101dd61042b3660046118d5565b6000918252602082815260408084206001600160a01b0393909316845291905290205460ff1690565b34801561046057600080fd5b50610226600081565b34801561047557600080fd5b5061022661048436600461176a565b610b06565b34801561049557600080fd5b506101bb6104a43660046118bd565b610b4b565b3480156104b557600080fd5b506102266104c43660046118bd565b60009081526001602052604090205490565b3480156104e257600080fd5b506101bb6104f13660046118d5565b610c2d565b6101bb61050436600461176a565b610c53565b34801561051557600080fd5b50600254610226565b7fb09aa5aeb3702cfd50b6b62bc4532604938f21248a27a1d5ca736082b6819cc161054a81335b610e6d565b600061055a8989898989896108d2565b90506105668184610eeb565b6000817f4cf4410cc57040e44862ef0f45f3dd5a5e02db8eb8add648d4b0e236f1d07dca8b8b8b8b8b8a6040516105a296959493929190611ab9565b60405180910390a3505050505050505050565b60007fffffffff0000000000000000000000000000000000000000000000000000000082167f7965db0b00000000000000000000000000000000000000000000000000000000148061064857507f01ffc9a7000000000000000000000000000000000000000000000000000000007fffffffff000000000000000000000000000000000000000000000000000000008316145b90505b919050565b600080527fdae2aa361dfd1ca020a396615627d436107c35eff9fe7738a3512819782d70696020527f5ba6852781629bcdcd4bdaa6de76d786f1c64b16acdac474e55bebc0ea157951547fd8aa0f3194971a2a116679f7c2090f6939c8d4e01a2a8d7e41d55e5351469e639060ff166106cd576106cd8133610545565b60006106dd8888888888886108d2565b90506106e98185610fff565b6106f88160008a8a8a8a6110f5565b61070181611213565b5050505050505050565b60008181526001602052604081205460018111801561072a5750428111155b9392505050565b60008281526020819052604090206001015461074d8133610545565b610757838361128f565b505050565b60008181526001602052604081205481905b1192915050565b6001600160a01b03811633146107f85760405162461bcd60e51b815260206004820152602f60248201527f416363657373436f6e74726f6c3a2063616e206f6e6c792072656e6f756e636560448201527f20726f6c657320666f722073656c66000000000000000000000000000000000060648201526084015b60405180910390fd5b610802828261132d565b5050565b600081815260016020819052604082205461076e565b3330146108915760405162461bcd60e51b815260206004820152602b60248201527f54696d656c6f636b436f6e74726f6c6c65723a2063616c6c6572206d7573742060448201527f62652074696d656c6f636b00000000000000000000000000000000000000000060648201526084016107ef565b60025460408051918252602082018390527f11c24f4ead16507c69ac467fbd5e4eed5fb5c699626d2cc6d66421df253886d5910160405180910390a1600255565b60008686868686866040516020016108ef96959493929190611ab9565b6040516020818303038152906040528051906020012090509695505050505050565b7fb09aa5aeb3702cfd50b6b62bc4532604938f21248a27a1d5ca736082b6819cc161093c8133610545565b8887146109975760405162461bcd60e51b815260206004820152602360248201527f54696d656c6f636b436f6e74726f6c6c65723a206c656e677468206d69736d616044820152620e8c6d60eb1b60648201526084016107ef565b8885146109f25760405162461bcd60e51b815260206004820152602360248201527f54696d656c6f636b436f6e74726f6c6c65723a206c656e677468206d69736d616044820152620e8c6d60eb1b60648201526084016107ef565b6000610a048b8b8b8b8b8b8b8b610b06565b9050610a108184610eeb565b60005b8a811015610af85780827f4cf4410cc57040e44862ef0f45f3dd5a5e02db8eb8add648d4b0e236f1d07dca8e8e85818110610a5e57634e487b7160e01b600052603260045260246000fd5b9050602002016020810190610a739190611673565b8d8d86818110610a9357634e487b7160e01b600052603260045260246000fd5b905060200201358c8c87818110610aba57634e487b7160e01b600052603260045260246000fd5b9050602002810190610acc9190611be8565b8c8b604051610ae096959493929190611ab9565b60405180910390a3610af181611cab565b9050610a13565b505050505050505050505050565b60008888888888888888604051602001610b27989796959493929190611af7565b60405160208183030381529060405280519060200120905098975050505050505050565b7fb09aa5aeb3702cfd50b6b62bc4532604938f21248a27a1d5ca736082b6819cc1610b768133610545565b610b7f82610806565b610bf15760405162461bcd60e51b815260206004820152603160248201527f54696d656c6f636b436f6e74726f6c6c65723a206f7065726174696f6e20636160448201527f6e6e6f742062652063616e63656c6c656400000000000000000000000000000060648201526084016107ef565b6000828152600160205260408082208290555183917fbaa1eb22f2a492ba1a5fea61b8df4d27c6c8b5f3971e63bb58fa14ff72eedb7091a25050565b600082815260208190526040902060010154610c498133610545565b610757838361132d565b600080527fdae2aa361dfd1ca020a396615627d436107c35eff9fe7738a3512819782d70696020527f5ba6852781629bcdcd4bdaa6de76d786f1c64b16acdac474e55bebc0ea157951547fd8aa0f3194971a2a116679f7c2090f6939c8d4e01a2a8d7e41d55e5351469e639060ff16610cd057610cd08133610545565b878614610d2b5760405162461bcd60e51b815260206004820152602360248201527f54696d656c6f636b436f6e74726f6c6c65723a206c656e677468206d69736d616044820152620e8c6d60eb1b60648201526084016107ef565b878414610d865760405162461bcd60e51b815260206004820152602360248201527f54696d656c6f636b436f6e74726f6c6c65723a206c656e677468206d69736d616044820152620e8c6d60eb1b60648201526084016107ef565b6000610d988a8a8a8a8a8a8a8a610b06565b9050610da48185610fff565b60005b89811015610e5757610e4782828d8d85818110610dd457634e487b7160e01b600052603260045260246000fd5b9050602002016020810190610de99190611673565b8c8c86818110610e0957634e487b7160e01b600052603260045260246000fd5b905060200201358b8b87818110610e3057634e487b7160e01b600052603260045260246000fd5b9050602002810190610e429190611be8565b6110f5565b610e5081611cab565b9050610da7565b50610e6181611213565b50505050505050505050565b6000828152602081815260408083206001600160a01b038516845290915290205460ff1661080257610ea9816001600160a01b031660146113ac565b610eb48360206113ac565b604051602001610ec5929190611a05565b60408051601f198184030181529082905262461bcd60e51b82526107ef91600401611bb5565b610ef48261075c565b15610f675760405162461bcd60e51b815260206004820152602f60248201527f54696d656c6f636b436f6e74726f6c6c65723a206f7065726174696f6e20616c60448201527f7265616479207363686564756c6564000000000000000000000000000000000060648201526084016107ef565b600254811015610fdf5760405162461bcd60e51b815260206004820152602660248201527f54696d656c6f636b436f6e74726f6c6c65723a20696e73756666696369656e7460448201527f2064656c6179000000000000000000000000000000000000000000000000000060648201526084016107ef565b610fe98142611c2d565b6000928352600160205260409092209190915550565b6110088261070b565b6110675760405162461bcd60e51b815260206004820152602a60248201527f54696d656c6f636b436f6e74726f6c6c65723a206f7065726174696f6e206973604482015269206e6f7420726561647960b01b60648201526084016107ef565b8015806110835750600081815260016020819052604090912054145b6108025760405162461bcd60e51b815260206004820152602660248201527f54696d656c6f636b436f6e74726f6c6c65723a206d697373696e67206465706560448201527f6e64656e6379000000000000000000000000000000000000000000000000000060648201526084016107ef565b6000846001600160a01b03168484846040516111129291906119f5565b60006040518083038185875af1925050503d806000811461114f576040519150601f19603f3d011682016040523d82523d6000602084013e611154565b606091505b50509050806111cb5760405162461bcd60e51b815260206004820152603360248201527f54696d656c6f636b436f6e74726f6c6c65723a20756e6465726c79696e67207460448201527f72616e73616374696f6e2072657665727465640000000000000000000000000060648201526084016107ef565b85877fc2617efa69bab66782fa219543714338489c4e9e178271560a91b82c3f612b58878787876040516112029493929190611a86565b60405180910390a350505050505050565b61121c8161070b565b61127b5760405162461bcd60e51b815260206004820152602a60248201527f54696d656c6f636b436f6e74726f6c6c65723a206f7065726174696f6e206973604482015269206e6f7420726561647960b01b60648201526084016107ef565b600090815260016020819052604090912055565b6000828152602081815260408083206001600160a01b038516845290915290205460ff16610802576000828152602081815260408083206001600160a01b03851684529091529020805460ff191660011790556112e93390565b6001600160a01b0316816001600160a01b0316837f2f8788117e7eff1d82e926ec794901d17c78024a50270940304540a733656f0d60405160405180910390a45050565b6000828152602081815260408083206001600160a01b038516845290915290205460ff1615610802576000828152602081815260408083206001600160a01b0385168085529252808320805460ff1916905551339285917ff6391f5c32d9c69d2a47ea670b442974b53935d1edc7fd64eb21e047a839171b9190a45050565b606060006113bb836002611c45565b6113c6906002611c2d565b67ffffffffffffffff8111156113ec57634e487b7160e01b600052604160045260246000fd5b6040519080825280601f01601f191660200182016040528015611416576020820181803683370190505b5090507f30000000000000000000000000000000000000000000000000000000000000008160008151811061145b57634e487b7160e01b600052603260045260246000fd5b60200101906001600160f81b031916908160001a9053507f7800000000000000000000000000000000000000000000000000000000000000816001815181106114b457634e487b7160e01b600052603260045260246000fd5b60200101906001600160f81b031916908160001a90535060006114d8846002611c45565b6114e3906001611c2d565b90505b6001811115611584577f303132333435363738396162636465660000000000000000000000000000000085600f166010811061153257634e487b7160e01b600052603260045260246000fd5b1a60f81b82828151811061155657634e487b7160e01b600052603260045260246000fd5b60200101906001600160f81b031916908160001a90535060049490941c9361157d81611c94565b90506114e6565b50831561072a5760405162461bcd60e51b815260206004820181905260248201527f537472696e67733a20686578206c656e67746820696e73756666696369656e7460448201526064016107ef565b80356001600160a01b038116811461064b57600080fd5b60008083601f8401126115fb578182fd5b50813567ffffffffffffffff811115611612578182fd5b602083019150836020808302850101111561162c57600080fd5b9250929050565b60008083601f840112611644578182fd5b50813567ffffffffffffffff81111561165b578182fd5b60208301915083602082850101111561162c57600080fd5b600060208284031215611684578081fd5b61072a826115d3565b60008060008060008060a087890312156116a5578182fd5b6116ae876115d3565b955060208701359450604087013567ffffffffffffffff8111156116d0578283fd5b6116dc89828a01611633565b979a9699509760608101359660809091013595509350505050565b600080600080600080600060c0888a031215611711578081fd5b61171a886115d3565b965060208801359550604088013567ffffffffffffffff81111561173c578182fd5b6117488a828b01611633565b989b979a50986060810135976080820135975060a09091013595509350505050565b60008060008060008060008060a0898b031215611785578081fd5b883567ffffffffffffffff8082111561179c578283fd5b6117a88c838d016115ea565b909a50985060208b01359150808211156117c0578283fd5b6117cc8c838d016115ea565b909850965060408b01359150808211156117e4578283fd5b506117f18b828c016115ea565b999c989b509699959896976060870135966080013595509350505050565b600080600080600080600080600060c08a8c03121561182c578081fd5b893567ffffffffffffffff80821115611843578283fd5b61184f8d838e016115ea565b909b50995060208c0135915080821115611867578283fd5b6118738d838e016115ea565b909950975060408c013591508082111561188b578283fd5b506118988c828d016115ea565b9a9d999c50979a969997986060880135976080810135975060a0013595509350505050565b6000602082840312156118ce578081fd5b5035919050565b600080604083850312156118e7578182fd5b823591506118f7602084016115d3565b90509250929050565b600060208284031215611911578081fd5b81357fffffffff000000000000000000000000000000000000000000000000000000008116811461072a578182fd5b818352602080840193600091908185020181018584845b878110156119be5782840389528135601e19883603018112611977578687fd5b8701803567ffffffffffffffff81111561198f578788fd5b80360389131561199d578788fd5b6119aa86828985016119cb565b9a87019a9550505090840190600101611957565b5091979650505050505050565b60008284528282602086013780602084860101526020601f19601f85011685010190509392505050565b6000828483379101908152919050565b60007f416363657373436f6e74726f6c3a206163636f756e742000000000000000000082528351611a3d816017850160208801611c64565b7f206973206d697373696e6720726f6c65200000000000000000000000000000006017918401918201528351611a7a816028840160208801611c64565b01602801949350505050565b60006001600160a01b038616825284602083015260606040830152611aaf6060830184866119cb565b9695505050505050565b60006001600160a01b038816825286602083015260a06040830152611ae260a0830186886119cb565b60608301949094525060800152949350505050565b60a0808252810188905260008960c08301825b8b811015611b38576001600160a01b03611b23846115d3565b16825260209283019290910190600101611b0a565b5083810360208501528881527f07ffffffffffffffffffffffffffffffffffffffffffffffffffffffffffffff891115611b70578283fd5b602089029150818a60208301370160208181018381528483039091016040850152611b9c81888a611940565b6060850196909652505050608001529695505050505050565b6000602082528251806020840152611bd4816040850160208701611c64565b601f01601f19169190910160400192915050565b6000808335601e19843603018112611bfe578283fd5b83018035915067ffffffffffffffff821115611c18578283fd5b60200191503681900382131561162c57600080fd5b60008219821115611c4057611c40611cc6565b500190565b6000816000190483118215151615611c5f57611c5f611cc6565b500290565b60005b83811015611c7f578181015183820152602001611c67565b83811115611c8e576000848401525b50505050565b600081611ca357611ca3611cc6565b506000190190565b6000600019821415611cbf57611cbf611cc6565b5060010190565b634e487b7160e01b600052601160045260246000fdfea2646970667358221220909666a03bed6192e6f3199c1ed6eac0eae541558facc4344cc80daff8a701df64736f6c634300080200335f58e3a2316349923ce3780f8d587db2d72378aed66a8261c916544fa6846ca5b09aa5aeb3702cfd50b6b62bc4532604938f21248a27a1d5ca736082b6819cc1d8aa0f3194971a2a116679f7c2090f6939c8d4e01a2a8d7e41d55e5351469e63",
  "devdoc": {
    "details": "Contract module which acts as a timelocked controller. When set as the owner of an `Ownable` smart contract, it enforces a timelock on all `onlyOwner` maintenance operations. This gives time for users of the controlled contract to exit before a potentially dangerous maintenance operation is applied. By default, this contract is self administered, meaning administration tasks have to go through the timelock process. The proposer (resp executor) role is in charge of proposing (resp executing) operations. A common use case is to position this {TimelockController} as the owner of a smart contract, with a multisig or a DAO as the sole proposer. _Available since v3.3._",
    "events": {
      "CallExecuted(bytes32,uint256,address,uint256,bytes)": {
        "details": "Emitted when a call is performed as part of operation `id`."
      },
      "CallScheduled(bytes32,uint256,address,uint256,bytes,bytes32,uint256)": {
        "details": "Emitted when a call is scheduled as part of operation `id`."
      },
      "Cancelled(bytes32)": {
        "details": "Emitted when operation `id` is cancelled."
      },
      "MinDelayChange(uint256,uint256)": {
        "details": "Emitted when the minimum delay for future operations is modified."
      }
    },
    "kind": "dev",
    "methods": {
      "cancel(bytes32)": {
        "details": "Cancel an operation. Requirements: - the caller must have the 'proposer' role."
      },
      "constructor": {
        "details": "Initializes the contract with a given `minDelay`."
      },
      "execute(address,uint256,bytes,bytes32,bytes32)": {
        "details": "Execute an (ready) operation containing a single transaction. Emits a {CallExecuted} event. Requirements: - the caller must have the 'executor' role."
      },
      "executeBatch(address[],uint256[],bytes[],bytes32,bytes32)": {
        "details": "Execute an (ready) operation containing a batch of transactions. Emits one {CallExecuted} event per transaction in the batch. Requirements: - the caller must have the 'executor' role."
      },
      "getMinDelay()": {
        "details": "Returns the minimum delay for an operation to become valid. This value can be changed by executing an operation that calls `updateDelay`."
      },
      "getRoleAdmin(bytes32)": {
        "details": "Returns the admin role that controls `role`. See {grantRole} and {revokeRole}. To change a role's admin, use {_setRoleAdmin}."
      },
      "getTimestamp(bytes32)": {
        "details": "Returns the timestamp at with an operation becomes ready (0 for unset operations, 1 for done operations)."
      },
      "grantRole(bytes32,address)": {
        "details": "Grants `role` to `account`. If `account` had not been already granted `role`, emits a {RoleGranted} event. Requirements: - the caller must have ``role``'s admin role."
      },
      "hasRole(bytes32,address)": {
        "details": "Returns `true` if `account` has been granted `role`."
      },
      "hashOperation(address,uint256,bytes,bytes32,bytes32)": {
        "details": "Returns the identifier of an operation containing a single transaction."
      },
      "hashOperationBatch(address[],uint256[],bytes[],bytes32,bytes32)": {
        "details": "Returns the identifier of an operation containing a batch of transactions."
      },
      "isOperation(bytes32)": {
        "details": "Returns whether an id correspond to a registered operation. This includes both Pending, Ready and Done operations."
      },
      "isOperationDone(bytes32)": {
        "details": "Returns whether an operation is done or not."
      },
      "isOperationPending(bytes32)": {
        "details": "Returns whether an operation is pending or not."
      },
      "isOperationReady(bytes32)": {
        "details": "Returns whether an operation is ready or not."
      },
      "renounceRole(bytes32,address)": {
        "details": "Revokes `role` from the calling account. Roles are often managed via {grantRole} and {revokeRole}: this function's purpose is to provide a mechanism for accounts to lose their privileges if they are compromised (such as when a trusted device is misplaced). If the calling account had been granted `role`, emits a {RoleRevoked} event. Requirements: - the caller must be `account`."
      },
      "revokeRole(bytes32,address)": {
        "details": "Revokes `role` from `account`. If `account` had been granted `role`, emits a {RoleRevoked} event. Requirements: - the caller must have ``role``'s admin role."
      },
      "schedule(address,uint256,bytes,bytes32,bytes32,uint256)": {
        "details": "Schedule an operation containing a single transaction. Emits a {CallScheduled} event. Requirements: - the caller must have the 'proposer' role."
      },
      "scheduleBatch(address[],uint256[],bytes[],bytes32,bytes32,uint256)": {
        "details": "Schedule an operation containing a batch of transactions. Emits one {CallScheduled} event per transaction in the batch. Requirements: - the caller must have the 'proposer' role."
      },
      "supportsInterface(bytes4)": {
        "details": "See {IERC165-supportsInterface}."
      },
      "updateDelay(uint256)": {
        "details": "Changes the minimum timelock duration for future operations. Emits a {MinDelayChange} event. Requirements: - the caller must be the timelock itself. This can only be achieved by scheduling and later executing an operation where the timelock is the target and the data is the ABI-encoded call to this function."
      }
    },
    "version": 1
  },
  "userdoc": {
    "kind": "user",
    "methods": {},
    "version": 1
  },
  "storageLayout": {
    "storage": [
      {
        "astId": 921,
        "contract": "contracts-next/governance/TimelockController.sol:TimelockController",
        "label": "_roles",
        "offset": 0,
        "slot": "0",
        "type": "t_mapping(t_bytes32,t_struct(RoleData)916_storage)"
      },
      {
        "astId": 2325,
        "contract": "contracts-next/governance/TimelockController.sol:TimelockController",
        "label": "_timestamps",
        "offset": 0,
        "slot": "1",
        "type": "t_mapping(t_bytes32,t_uint256)"
      },
      {
        "astId": 2327,
        "contract": "contracts-next/governance/TimelockController.sol:TimelockController",
        "label": "_minDelay",
        "offset": 0,
        "slot": "2",
        "type": "t_uint256"
      }
    ],
    "types": {
      "t_address": {
        "encoding": "inplace",
        "label": "address",
        "numberOfBytes": "20"
      },
      "t_bool": {
        "encoding": "inplace",
        "label": "bool",
        "numberOfBytes": "1"
      },
      "t_bytes32": {
        "encoding": "inplace",
        "label": "bytes32",
        "numberOfBytes": "32"
      },
      "t_mapping(t_address,t_bool)": {
        "encoding": "mapping",
        "key": "t_address",
        "label": "mapping(address => bool)",
        "numberOfBytes": "32",
        "value": "t_bool"
      },
      "t_mapping(t_bytes32,t_struct(RoleData)916_storage)": {
        "encoding": "mapping",
        "key": "t_bytes32",
        "label": "mapping(bytes32 => struct AccessControl.RoleData)",
        "numberOfBytes": "32",
        "value": "t_struct(RoleData)916_storage"
      },
      "t_mapping(t_bytes32,t_uint256)": {
        "encoding": "mapping",
        "key": "t_bytes32",
        "label": "mapping(bytes32 => uint256)",
        "numberOfBytes": "32",
        "value": "t_uint256"
      },
      "t_struct(RoleData)916_storage": {
        "encoding": "inplace",
        "label": "struct AccessControl.RoleData",
        "members": [
          {
            "astId": 913,
            "contract": "contracts-next/governance/TimelockController.sol:TimelockController",
            "label": "members",
            "offset": 0,
            "slot": "0",
            "type": "t_mapping(t_address,t_bool)"
          },
          {
            "astId": 915,
            "contract": "contracts-next/governance/TimelockController.sol:TimelockController",
            "label": "adminRole",
            "offset": 0,
            "slot": "1",
            "type": "t_bytes32"
          }
        ],
        "numberOfBytes": "64"
      },
      "t_uint256": {
        "encoding": "inplace",
        "label": "uint256",
        "numberOfBytes": "32"
      }
    }
  }
}