{
  "address": "0x499456FEB221C086350ffe71Aa19d03EA1dF3c54",
  "abi": [
    {
      "inputs": [
        {
          "internalType": "contract IBabController",
          "name": "_controller",
          "type": "address"
        },
        {
          "internalType": "contract IPickleJarRegistry",
          "name": "_jarRegistry",
          "type": "address"
        },
        {
          "internalType": "contract IYearnVaultRegistry",
          "name": "_vaultRegistry",
          "type": "address"
        },
        {
          "internalType": "contract ICurveMetaRegistry",
          "name": "_curveMetaRegistry",
          "type": "address"
        },
        {
          "internalType": "contract IConvexRegistry",
          "name": "_convexRegistry",
          "type": "address"
        }
      ],
      "stateMutability": "nonpayable",
      "type": "constructor"
    },
    {
      "inputs": [
        {
          "internalType": "address",
          "name": "",
          "type": "address"
        }
      ],
      "name": "aTokenToAsset",
      "outputs": [
        {
          "internalType": "address",
          "name": "",
          "type": "address"
        }
      ],
      "stateMutability": "view",
      "type": "function"
    },
    {
      "inputs": [
        {
          "internalType": "address",
          "name": "",
          "type": "address"
        }
      ],
      "name": "cTokenToAsset",
      "outputs": [
        {
          "internalType": "address",
          "name": "",
          "type": "address"
        }
      ],
      "stateMutability": "view",
      "type": "function"
    },
    {
      "inputs": [],
      "name": "controller",
      "outputs": [
        {
          "internalType": "contract IBabController",
          "name": "",
          "type": "address"
        }
      ],
      "stateMutability": "view",
      "type": "function"
    },
    {
      "inputs": [
        {
          "internalType": "address",
          "name": "",
          "type": "address"
        }
      ],
      "name": "convexPools",
      "outputs": [
        {
          "internalType": "bool",
          "name": "",
          "type": "bool"
        }
      ],
      "stateMutability": "view",
      "type": "function"
    },
    {
      "inputs": [],
      "name": "convexRegistry",
      "outputs": [
        {
          "internalType": "contract IConvexRegistry",
          "name": "",
          "type": "address"
        }
      ],
      "stateMutability": "view",
      "type": "function"
    },
    {
      "inputs": [],
      "name": "curveMetaRegistry",
      "outputs": [
        {
          "internalType": "contract ICurveMetaRegistry",
          "name": "",
          "type": "address"
        }
      ],
      "stateMutability": "view",
      "type": "function"
    },
    {
      "inputs": [
        {
          "internalType": "address",
          "name": "_tokenIn",
          "type": "address"
        },
        {
          "internalType": "address",
          "name": "_tokenOut",
          "type": "address"
        }
      ],
      "name": "identifyTokens",
      "outputs": [
        {
          "internalType": "uint8",
          "name": "",
          "type": "uint8"
        },
        {
          "internalType": "uint8",
          "name": "",
          "type": "uint8"
        },
        {
          "internalType": "address",
          "name": "",
          "type": "address"
        },
        {
          "internalType": "address",
          "name": "",
          "type": "address"
        }
      ],
      "stateMutability": "view",
      "type": "function"
    },
    {
      "inputs": [],
      "name": "jarRegistry",
      "outputs": [
        {
          "internalType": "contract IPickleJarRegistry",
          "name": "",
          "type": "address"
        }
      ],
      "stateMutability": "view",
      "type": "function"
    },
    {
      "inputs": [
        {
          "internalType": "address",
          "name": "",
          "type": "address"
        }
      ],
      "name": "jars",
      "outputs": [
        {
          "internalType": "uint8",
          "name": "",
          "type": "uint8"
        }
      ],
      "stateMutability": "view",
      "type": "function"
    },
    {
      "inputs": [
        {
          "internalType": "address",
          "name": "",
          "type": "address"
        }
      ],
      "name": "pickleGauges",
      "outputs": [
        {
          "internalType": "bool",
          "name": "",
          "type": "bool"
        }
      ],
      "stateMutability": "view",
      "type": "function"
    },
    {
      "inputs": [],
      "name": "refreshAAveReserves",
      "outputs": [],
      "stateMutability": "nonpayable",
      "type": "function"
    },
    {
      "inputs": [],
      "name": "refreshCompoundTokens",
      "outputs": [],
      "stateMutability": "nonpayable",
      "type": "function"
    },
    {
      "inputs": [
        {
          "internalType": "address[]",
          "name": "_aaveTokens",
          "type": "address[]"
        },
        {
          "internalType": "address[]",
          "name": "_underlyings",
          "type": "address[]"
        }
      ],
      "name": "updateAavePair",
      "outputs": [],
      "stateMutability": "nonpayable",
      "type": "function"
    },
    {
      "inputs": [
        {
          "internalType": "address[]",
          "name": "_cTokens",
          "type": "address[]"
        },
        {
          "internalType": "address[]",
          "name": "_underlyings",
          "type": "address[]"
        }
      ],
      "name": "updateCompoundPair",
      "outputs": [],
      "stateMutability": "nonpayable",
      "type": "function"
    },
    {
      "inputs": [],
      "name": "updateConvexPools",
      "outputs": [],
      "stateMutability": "nonpayable",
      "type": "function"
    },
    {
      "inputs": [],
      "name": "updatePickleJars",
      "outputs": [],
      "stateMutability": "nonpayable",
      "type": "function"
    },
    {
      "inputs": [
        {
          "internalType": "address[]",
          "name": "_visors",
          "type": "address[]"
        },
        {
          "internalType": "bool[]",
          "name": "_values",
          "type": "bool[]"
        }
      ],
      "name": "updateVisor",
      "outputs": [],
      "stateMutability": "nonpayable",
      "type": "function"
    },
    {
      "inputs": [
        {
          "internalType": "address[]",
          "name": "_vaults",
          "type": "address[]"
        },
        {
          "internalType": "bool[]",
          "name": "_values",
          "type": "bool[]"
        }
      ],
      "name": "updateYearnVault",
      "outputs": [],
      "stateMutability": "nonpayable",
      "type": "function"
    },
    {
      "inputs": [],
      "name": "updateYearnVaults",
      "outputs": [],
      "stateMutability": "nonpayable",
      "type": "function"
    },
    {
      "inputs": [],
      "name": "vaultRegistry",
      "outputs": [
        {
          "internalType": "contract IYearnVaultRegistry",
          "name": "",
          "type": "address"
        }
      ],
      "stateMutability": "view",
      "type": "function"
    },
    {
      "inputs": [
        {
          "internalType": "address",
          "name": "",
          "type": "address"
        }
      ],
      "name": "vaults",
      "outputs": [
        {
          "internalType": "bool",
          "name": "",
          "type": "bool"
        }
      ],
      "stateMutability": "view",
      "type": "function"
    },
    {
      "inputs": [
        {
          "internalType": "address",
          "name": "",
          "type": "address"
        }
      ],
      "name": "visors",
      "outputs": [
        {
          "internalType": "bool",
          "name": "",
          "type": "bool"
        }
      ],
      "stateMutability": "view",
      "type": "function"
    }
  ],
  "transactionHash": "0xb46907830f4dfd8a5fc754bba8998a8bea38c6e9c4c3485600b1e569c619f9c8",
  "args": [
    "0xD4a5b5fcB561dAF3aDF86F8477555B92FBa43b5F",
    "0xB3fE136A9Cc0c0Bc37e31E21f681E7Cff8FcCE80",
    "0x61c733fE0Eb89b75440A21cD658C4011ec512EB8",
    "0x7c8fc54db27De3cC0757b41710F4F399C3b3BDDD",
    "0xB95d213cdDBd256D3B9ae98b21CC6B9D8a1818ef"
  ],
  "numDeployments": 5,
  "solcInputHash": "b449cb5aec67dc49b858dceef0213a91",
  "bytecode": "0x60a06040523480156200001157600080fd5b5060405162002cd538038062002cd5833981016040819052620000349162000e4f565b6001600160601b0319606086901b16608052600080546001600160a01b038681166001600160a01b031992831617909255600180548684169083161790556002805485841690831617905560038054928416929091169190911790556200009a62000186565b620000a46200030e565b620000ae62000557565b620000b8620007a0565b620000c262000881565b620000cc62000b0e565b5050600760205250507f3aef0dd43484d11a950591a36c7e6b0fbe53feaea242d7d7f81515c4efc0e9a680547f9229b90bddefd4f6858379b7ddf4bcd726c94c82184ead1c289b099b64fe19f580547fdd8ad3ce14755ee096b5478458b1bcceea5bb370fa1d65adabaa7987a0c5cfff8054600160ff1995861681178616811790965591841685178416851790925573c86b1e7fa86834cac1468937cdd53ba3ccbc11536000528216831790911690911790555062000f3d565b600073057835ad21a177dbdd3090bb1cae03eacf78fc6d6001600160a01b031663f561ae416040518163ffffffff1660e01b815260040160006040518083038186803b158015620001d657600080fd5b505afa158015620001eb573d6000803e3d6000fd5b505050506040513d6000823e601f3d908101601f1916820160405262000215919081019062000cd0565b905060005b81518110156200030a578181815181106200023157fe5b6020026020010151602001516001600160a01b031663b16a19de6040518163ffffffff1660e01b815260040160206040518083038186803b1580156200027657600080fd5b505afa1580156200028b573d6000803e3d6000fd5b505050506040513d601f19601f82011682018060405250810190620002b1919062000c01565b60046000848481518110620002c257fe5b6020908102919091018101518101516001600160a01b0390811683529082019290925260400160002080546001600160a01b031916929091169190911790556001016200021a565b5050565b6000733d9819210a31b4961b30ef54be2aed79b9c9cd3b6001600160a01b031663b0772d0b6040518163ffffffff1660e01b815260040160006040518083038186803b1580156200035e57600080fd5b505afa15801562000373573d6000803e3d6000fd5b505050506040513d6000823e601f3d908101601f191682016040526200039d919081019062000c27565b905060005b81518110156200030a57818181518110620003b957fe5b60200260200101516001600160a01b0316734ddc2d193948926d02f9b1fe9e1daa0718270ed56001600160a01b03161415620004675773c02aaa39b223fe8d0a0e5c4f27ead9083c756cc2600560008484815181106200041557fe5b60200260200101516001600160a01b03166001600160a01b0316815260200190815260200160002060006101000a8154816001600160a01b0302191690836001600160a01b031602179055506200054e565b8181815181106200047457fe5b60200260200101516001600160a01b0316636f307dc36040518163ffffffff1660e01b815260040160206040518083038186803b158015620004b557600080fd5b505afa158015620004ca573d6000803e3d6000fd5b505050506040513d601f19601f82011682018060405250810190620004f0919062000c01565b600560008484815181106200050157fe5b60200260200101516001600160a01b03166001600160a01b0316815260200190815260200160002060006101000a8154816001600160a01b0302191690836001600160a01b031602179055505b600101620003a2565b600073c7125e3a2925877c7371d579d29dae4729ac90336001600160a01b031663b0772d0b6040518163ffffffff1660e01b815260040160006040518083038186803b158015620005a757600080fd5b505afa158015620005bc573d6000803e3d6000fd5b505050506040513d6000823e601f3d908101601f19168201604052620005e6919081019062000c27565b905060005b81518110156200030a578181815181106200060257fe5b60200260200101516001600160a01b0316737dbc3af9251756561ce755fcc11c754184af71f76001600160a01b03161415620006b05773c02aaa39b223fe8d0a0e5c4f27ead9083c756cc2600560008484815181106200065e57fe5b60200260200101516001600160a01b03166001600160a01b0316815260200190815260200160002060006101000a8154816001600160a01b0302191690836001600160a01b0316021790555062000797565b818181518110620006bd57fe5b60200260200101516001600160a01b0316636f307dc36040518163ffffffff1660e01b815260040160206040518083038186803b158015620006fe57600080fd5b505afa15801562000713573d6000803e3d6000fd5b505050506040513d601f19601f8201168201806040525081019062000739919062000c01565b600560008484815181106200074a57fe5b60200260200101516001600160a01b03166001600160a01b0316815260200190815260200160002060006101000a8154816001600160a01b0302191690836001600160a01b031602179055505b600101620005eb565b600154604080516397331bf960e01b815290516000926001600160a01b0316916397331bf99160048083019286929190829003018186803b158015620007e557600080fd5b505afa158015620007fa573d6000803e3d6000fd5b505050506040513d6000823e601f3d908101601f1916820160405262000824919081019062000c27565b905060005b81518110156200030a576001600660008484815181106200084657fe5b6020908102919091018101516001600160a01b03168252810191909152604001600020805460ff191691151591909117905560010162000829565b60008060009054906101000a90046001600160a01b03166001600160a01b03166311820e466040518163ffffffff1660e01b815260040160006040518083038186803b158015620008d157600080fd5b505afa158015620008e6573d6000803e3d6000fd5b505050506040513d6000823e601f3d908101601f1916820160405262000910919081019062000c27565b905060005b815181101562000a1c5760005482516001600160a01b03909116906382136a60908490849081106200094357fe5b60200260200101516040518263ffffffff1660e01b815260040162000969919062000ece565b60206040518083038186803b1580156200098257600080fd5b505afa15801562000997573d6000803e3d6000fd5b505050506040513d601f19601f82011682018060405250810190620009bd919062000e2d565b620009ca576001620009cd565b60025b60086000848481518110620009de57fe5b6020908102919091018101516001600160a01b03168252810191909152604001600020805460ff191660ff9290921691909117905560010162000915565b5060008060009054906101000a90046001600160a01b03166001600160a01b031663c946c5cc6040518163ffffffff1660e01b815260040160006040518083038186803b15801562000a6d57600080fd5b505afa15801562000a82573d6000803e3d6000fd5b505050506040513d6000823e601f3d908101601f1916820160405262000aac919081019062000c27565b905060005b815181101562000b095760016009600084848151811062000ace57fe5b6020908102919091018101516001600160a01b03168252810191909152604001600020805460ff191691151591909117905560010162000ab1565b505050565b6003546040805163d523d1c560e01b815290516000926001600160a01b03169163d523d1c59160048083019286929190829003018186803b15801562000b5357600080fd5b505afa15801562000b68573d6000803e3d6000fd5b505050506040513d6000823e601f3d908101601f1916820160405262000b92919081019062000c27565b905060005b81518110156200030a576001600a600084848151811062000bb457fe5b6020908102919091018101516001600160a01b03168252810191909152604001600020805460ff191691151591909117905560010162000b97565b805162000bfc8162000f24565b919050565b60006020828403121562000c13578081fd5b815162000c208162000f24565b9392505050565b6000602080838503121562000c3a578182fd5b82516001600160401b0381111562000c50578283fd5b8301601f8101851362000c61578283fd5b805162000c7862000c728262000f06565b62000ee2565b818152838101908385018584028501860189101562000c95578687fd5b8694505b8385101562000cc457805162000caf8162000f24565b83526001949094019391850191850162000c99565b50979650505050505050565b6000602080838503121562000ce3578182fd5b82516001600160401b038082111562000cfa578384fd5b818501915085601f83011262000d0e578384fd5b815162000d1f62000c728262000f06565b81815284810190848601875b8481101562000e1e5781518701601f196040828e038201121562000d4d578a8bfd5b604051604081018181108a8211171562000d6357fe5b604052828b01518981111562000d77578c8dfd5b8301603f81018f1362000d88578c8dfd5b8b8101518a81111562000d9757fe5b62000da98d85601f8401160162000ee2565b93508084528f604082840101111562000dc0578d8efd5b8d5b8181101562000de057828101604001518582018f01528d0162000dc2565b8181111562000df1578e8e83870101525b50505081815262000e056040840162000bef565b818c015286525050928701929087019060010162000d2b565b50909998505050505050505050565b60006020828403121562000e3f578081fd5b8151801515811462000c20578182fd5b600080600080600060a0868803121562000e67578081fd5b855162000e748162000f24565b602087015190955062000e878162000f24565b604087015190945062000e9a8162000f24565b606087015190935062000ead8162000f24565b608087015190925062000ec08162000f24565b809150509295509295909350565b6001600160a01b0391909116815260200190565b6040518181016001600160401b038111828210171562000efe57fe5b604052919050565b60006001600160401b0382111562000f1a57fe5b5060209081020190565b6001600160a01b038116811462000f3a57600080fd5b50565b60805160601c611d4d62000f886000398061031752806103e75280610af75280610b315280610c2d5280610ce05280610d1a5280610d545280610de25280610e625250611d4d6000f3fe608060405234801561001057600080fd5b50600436106101825760003560e01c806380a446db116100d8578063cdd7b38a1161008c578063e29e14ea11610066578063e29e14ea146102da578063f4afedd1146102ed578063f77c4791146102f557610182565b8063cdd7b38a146102ac578063e121f370146102b4578063e21ead9b146102c757610182565b80639fb53050116100bd5780639fb5305014610266578063a622ee7c14610279578063ca6a48c21461028c57610182565b806380a446db146102565780638c9509d51461025e57610182565b8063520874ed1161013a5780636360c5d0116101145780636360c5d01461022857806371f0706b1461023b57806378dbbd981461024e57610182565b8063520874ed146101f85780635826694b1461020b5780635853075a1461022057610182565b80631fca855c1161016b5780631fca855c146101c55780633149ea1a146101cd5780634b7aa206146101f057610182565b8063017cb1f4146101875780630d4cfeb6146101b0575b600080fd5b61019a61019536600461192d565b6102fd565b6040516101a79190611c41565b60405180910390f35b6101c36101be3660046119a4565b610312565b005b6101c36103e2565b6101e06101db36600461196c565b61041e565b6040516101a79493929190611c5a565b6101c3610af2565b6101c36102063660046119a4565b610b2c565b610213610bf5565b6040516101a79190611c2d565b610213610c04565b61019a61023636600461192d565b610c13565b6101c3610249366004611a0d565b610c28565b6101c3610cdb565b6101c3610d15565b6101c3610d4f565b61021361027436600461192d565b610d89565b61019a61028736600461192d565b610da4565b61029f61029a36600461192d565b610db9565b6040516101a79190611c4c565b610213610dce565b6101c36102c2366004611a0d565b610ddd565b6102136102d536600461192d565b610e21565b61019a6102e836600461192d565b610e3c565b610213610e51565b610213610e60565b600a6020526000908152604090205460ff1681565b6103447f00000000000000000000000000000000000000000000000000000000000000006001600160a01b0316610e84565b60005b838110156103db5782828281811061035b57fe5b9050602002016020810190610370919061192d565b6004600087878581811061038057fe5b9050602002016020810190610395919061192d565b6001600160a01b0390811682526020820192909252604001600020805473ffffffffffffffffffffffffffffffffffffffff191692909116919091179055600101610347565b5050505050565b6104147f00000000000000000000000000000000000000000000000000000000000000006001600160a01b0316610e84565b61041c610fc3565b565b6001600160a01b03828116600090815260056020526040812054909182918291829182918291829182911615610470576001600160a01b03808b16600090815260056020526040902054600195501691505b6001600160a01b0389811660009081526005602052604090205416156104b157506001600160a01b0380891660009081526005602052604090205460019350165b6001600160a01b038a811660009081526004602052604090205416156104f3576001600160a01b03808b16600090815260046020526040902054600295501691505b6001600160a01b03898116600090815260046020526040902054161561053457506001600160a01b0380891660009081526004602052604090205460029350165b6001600160a01b038a1660009081526007602052604090205460ff161561055a57600c93505b6001600160a01b03891660009081526007602052604090205460ff161561058057600c92505b6001600160a01b038a1660009081526006602052604090205460ff16156105a657600693505b6001600160a01b03891660009081526006602052604090205460ff16156105cc57600692505b6001600160a01b038a1660009081526008602052604090205460ff161561061d576001600160a01b038a1660009081526008602052604090205460ff1660011461061757600e61061a565b600d5b93505b6001600160a01b03891660009081526008602052604090205460ff161561066e576001600160a01b03891660009081526008602052604090205460ff1660011461066857600e61066b565b600d5b92505b6001600160a01b038a1660009081526009602052604090205460ff161561069457600f93505b6001600160a01b03891660009081526009602052604090205460ff16156106ba57600f92505b6001600160a01b038a166000908152600a602052604090205460ff16156106e057601093505b6001600160a01b0389166000908152600a602052604090205460ff161561070657601092505b60008460ff1611801561071c575060008360ff16115b156107305792965090945092509050610ae9565b60008460ff16118015610746575060008360ff16115b1561075a5792965090945092509050610ae9565b60ff84166107fb576002546040516324a5923360e01b81526000916001600160a01b0316906324a5923390610793908e90600401611c2d565b60206040518083038186803b1580156107ab57600080fd5b505afa1580156107bf573d6000803e3d6000fd5b505050506040513d601f19601f820116820180604052508101906107e39190611950565b90506001600160a01b038116156107f957600594505b505b60ff831661089c576002546040516324a5923360e01b81526000916001600160a01b0316906324a5923390610834908d90600401611c2d565b60206040518083038186803b15801561084c57600080fd5b505afa158015610860573d6000803e3d6000fd5b505050506040513d601f19601f820116820180604052508101906108849190611950565b90506001600160a01b0381161561089a57600593505b505b60ff84166109bd5760008a6001600160a01b03166395d89b416040518163ffffffff1660e01b815260040160006040518083038186803b1580156108df57600080fd5b505afa1580156108f3573d6000803e3d6000fd5b505050506040513d6000823e601f3d908101601f1916820160405261091b9190810190611bf2565b6040805180820190915260038152620534c560ec1b6020918201528151908201209091507fe0136b3661826a483734248681e4f59ae66bc6065ceb43fdd469ecb22c21d745141561096b57600894505b6040805180820190915260068152652aa72496ab1960d11b6020918201528151908201207f0c49a525f6758cfb27d0ada1467d2a2e99733995423d47ae30ae4ba2ba56325514156109bb57600994505b505b60ff8316610ade576000896001600160a01b03166395d89b416040518163ffffffff1660e01b815260040160006040518083038186803b158015610a0057600080fd5b505afa158015610a14573d6000803e3d6000fd5b505050506040513d6000823e601f3d908101601f19168201604052610a3c9190810190611bf2565b6040805180820190915260038152620534c560ec1b6020918201528151908201209091507fe0136b3661826a483734248681e4f59ae66bc6065ceb43fdd469ecb22c21d7451415610a8c57600893505b6040805180820190915260068152652aa72496ab1960d11b6020918201528151908201207f0c49a525f6758cfb27d0ada1467d2a2e99733995423d47ae30ae4ba2ba5632551415610adc57600993505b505b929650909450925090505b92959194509250565b610b247f00000000000000000000000000000000000000000000000000000000000000006001600160a01b0316610e84565b61041c611200565b610b5e7f00000000000000000000000000000000000000000000000000000000000000006001600160a01b0316610e84565b60005b838110156103db57828282818110610b7557fe5b9050602002016020810190610b8a919061192d565b60056000878785818110610b9a57fe5b9050602002016020810190610baf919061192d565b6001600160a01b0390811682526020820192909252604001600020805473ffffffffffffffffffffffffffffffffffffffff191692909116919091179055600101610b61565b6003546001600160a01b031681565b6000546001600160a01b031681565b60096020526000908152604090205460ff1681565b610c5a7f00000000000000000000000000000000000000000000000000000000000000006001600160a01b0316610e84565b60005b838110156103db57828282818110610c7157fe5b9050602002016020810190610c869190611bba565b60066000878785818110610c9657fe5b9050602002016020810190610cab919061192d565b6001600160a01b031681526020810191909152604001600020805460ff1916911515919091179055600101610c5d565b610d0d7f00000000000000000000000000000000000000000000000000000000000000006001600160a01b0316610e84565b61041c611385565b610d477f00000000000000000000000000000000000000000000000000000000000000006001600160a01b0316610e84565b61041c611478565b610d817f00000000000000000000000000000000000000000000000000000000000000006001600160a01b0316610e84565b61041c6116ee565b6005602052600090815260409020546001600160a01b031681565b60066020526000908152604090205460ff1681565b60086020526000908152604090205460ff1681565b6001546001600160a01b031681565b610e0f7f00000000000000000000000000000000000000000000000000000000000000006001600160a01b0316610e84565b610e1b848484846117e1565b50505050565b6004602052600090815260409020546001600160a01b031681565b60076020526000908152604090205460ff1681565b6002546001600160a01b031681565b7f000000000000000000000000000000000000000000000000000000000000000081565b806001600160a01b0316638da5cb5b6040518163ffffffff1660e01b815260040160206040518083038186803b158015610ebd57600080fd5b505afa158015610ed1573d6000803e3d6000fd5b505050506040513d6020811015610ee757600080fd5b50516001600160a01b0316331480610f6b5750806001600160a01b0316638d97e0436040518163ffffffff1660e01b815260040160206040518083038186803b158015610f3357600080fd5b505afa158015610f47573d6000803e3d6000fd5b505050506040513d6020811015610f5d57600080fd5b50516001600160a01b031633145b610fc0576040517f08c379a000000000000000000000000000000000000000000000000000000000815260040180806020018281038252602a815260200180611cee602a913960400191505060405180910390fd5b50565b6000733d9819210a31b4961b30ef54be2aed79b9c9cd3b6001600160a01b031663b0772d0b6040518163ffffffff1660e01b815260040160006040518083038186803b15801561101257600080fd5b505afa158015611026573d6000803e3d6000fd5b505050506040513d6000823e601f3d908101601f1916820160405261104e9190810190611a39565b905060005b81518110156111fc5781818151811061106857fe5b60200260200101516001600160a01b0316734ddc2d193948926d02f9b1fe9e1daa0718270ed56001600160a01b031614156111135773c02aaa39b223fe8d0a0e5c4f27ead9083c756cc2600560008484815181106110c257fe5b60200260200101516001600160a01b03166001600160a01b0316815260200190815260200160002060006101000a8154816001600160a01b0302191690836001600160a01b031602179055506111f4565b81818151811061111f57fe5b60200260200101516001600160a01b0316636f307dc36040518163ffffffff1660e01b815260040160206040518083038186803b15801561115f57600080fd5b505afa158015611173573d6000803e3d6000fd5b505050506040513d601f19601f820116820180604052508101906111979190611950565b600560008484815181106111a757fe5b60200260200101516001600160a01b03166001600160a01b0316815260200190815260200160002060006101000a8154816001600160a01b0302191690836001600160a01b031602179055505b600101611053565b5050565b600073057835ad21a177dbdd3090bb1cae03eacf78fc6d6001600160a01b031663f561ae416040518163ffffffff1660e01b815260040160006040518083038186803b15801561124f57600080fd5b505afa158015611263573d6000803e3d6000fd5b505050506040513d6000823e601f3d908101601f1916820160405261128b9190810190611ad7565b905060005b81518110156111fc578181815181106112a557fe5b6020026020010151602001516001600160a01b031663b16a19de6040518163ffffffff1660e01b815260040160206040518083038186803b1580156112e957600080fd5b505afa1580156112fd573d6000803e3d6000fd5b505050506040513d601f19601f820116820180604052508101906113219190611950565b6004600084848151811061133157fe5b6020908102919091018101518101516001600160a01b03908116835290820192909252604001600020805473ffffffffffffffffffffffffffffffffffffffff191692909116919091179055600101611290565b600154604080517f97331bf900000000000000000000000000000000000000000000000000000000815290516000926001600160a01b0316916397331bf99160048083019286929190829003018186803b1580156113e257600080fd5b505afa1580156113f6573d6000803e3d6000fd5b505050506040513d6000823e601f3d908101601f1916820160405261141e9190810190611a39565b905060005b81518110156111fc5760016006600084848151811061143e57fe5b6020908102919091018101516001600160a01b03168252810191909152604001600020805460ff1916911515919091179055600101611423565b60008060009054906101000a90046001600160a01b03166001600160a01b03166311820e466040518163ffffffff1660e01b815260040160006040518083038186803b1580156114c757600080fd5b505afa1580156114db573d6000803e3d6000fd5b505050506040513d6000823e601f3d908101601f191682016040526115039190810190611a39565b905060005b81518110156116035760005482516001600160a01b03909116906382136a609084908490811061153457fe5b60200260200101516040518263ffffffff1660e01b81526004016115589190611c2d565b60206040518083038186803b15801561157057600080fd5b505afa158015611584573d6000803e3d6000fd5b505050506040513d601f19601f820116820180604052508101906115a89190611bd6565b6115b35760016115b6565b60025b600860008484815181106115c657fe5b6020908102919091018101516001600160a01b03168252810191909152604001600020805460ff191660ff92909216919091179055600101611508565b5060008060009054906101000a90046001600160a01b03166001600160a01b031663c946c5cc6040518163ffffffff1660e01b815260040160006040518083038186803b15801561165357600080fd5b505afa158015611667573d6000803e3d6000fd5b505050506040513d6000823e601f3d908101601f1916820160405261168f9190810190611a39565b905060005b81518110156116e9576001600960008484815181106116af57fe5b6020908102919091018101516001600160a01b03168252810191909152604001600020805460ff1916911515919091179055600101611694565b505050565b600354604080517fd523d1c500000000000000000000000000000000000000000000000000000000815290516000926001600160a01b03169163d523d1c59160048083019286929190829003018186803b15801561174b57600080fd5b505afa15801561175f573d6000803e3d6000fd5b505050506040513d6000823e601f3d908101601f191682016040526117879190810190611a39565b905060005b81518110156111fc576001600a60008484815181106117a757fe5b6020908102919091018101516001600160a01b03168252810191909152604001600020805460ff191691151591909117905560010161178c565b60005b838110156103db578282828181106117f857fe5b905060200201602081019061180d9190611bba565b6007600087878581811061181d57fe5b9050602002016020810190611832919061192d565b6001600160a01b031681526020810191909152604001600020805460ff19169115159190911790556001016117e4565b60008083601f840112611873578182fd5b50813567ffffffffffffffff81111561188a578182fd5b60208301915083602080830285010111156118a457600080fd5b9250929050565b600082601f8301126118bb578081fd5b815167ffffffffffffffff8111156118cf57fe5b60206118e3601f8301601f19168201611c88565b82815285828487010111156118f6578384fd5b835b838110156119135785810183015182820184015282016118f8565b8381111561192357848385840101525b5095945050505050565b60006020828403121561193e578081fd5b813561194981611cca565b9392505050565b600060208284031215611961578081fd5b815161194981611cca565b6000806040838503121561197e578081fd5b823561198981611cca565b9150602083013561199981611cca565b809150509250929050565b600080600080604085870312156119b9578182fd5b843567ffffffffffffffff808211156119d0578384fd5b6119dc88838901611862565b909650945060208701359150808211156119f4578384fd5b50611a0187828801611862565b95989497509550505050565b60008060008060408587031215611a22578384fd5b843567ffffffffffffffff808211156119d0578586fd5b60006020808385031215611a4b578182fd5b825167ffffffffffffffff811115611a61578283fd5b8301601f81018513611a71578283fd5b8051611a84611a7f82611cac565b611c88565b8181528381019083850185840285018601891015611aa0578687fd5b8694505b83851015611acb578051611ab781611cca565b835260019490940193918501918501611aa4565b50979650505050505050565b60006020808385031215611ae9578182fd5b825167ffffffffffffffff80821115611b00578384fd5b818501915085601f830112611b13578384fd5b8151611b21611a7f82611cac565b81815284810190848601875b84811015611bab5781518701604080601f19838f03011215611b4d578a8bfd5b80518181018181108a82111715611b6057fe5b8252828b015189811115611b72578c8dfd5b611b808f8d838701016118ab565b8252509181015191611b9183611cca565b808b01929092525084529287019290870190600101611b2d565b50909998505050505050505050565b600060208284031215611bcb578081fd5b813561194981611cdf565b600060208284031215611be7578081fd5b815161194981611cdf565b600060208284031215611c03578081fd5b815167ffffffffffffffff811115611c19578182fd5b611c25848285016118ab565b949350505050565b6001600160a01b0391909116815260200190565b901515815260200190565b60ff91909116815260200190565b60ff94851681529290931660208301526001600160a01b039081166040830152909116606082015260800190565b60405181810167ffffffffffffffff81118282101715611ca457fe5b604052919050565b600067ffffffffffffffff821115611cc057fe5b5060209081020190565b6001600160a01b0381168114610fc057600080fd5b8015158114610fc057600080fdfe4f6e6c7920676f7665726e616e6365206f7220656d657267656e63792063616e2063616c6c2074686973a2646970667358221220036bf9b68046e170cfc2b350d854e7c2934e2b1ae21a1f8d1df3780d6469126964736f6c63430007060033",
  "devdoc": {
    "author": "Babylon Finance Protocol Returns the type of the asset",
    "kind": "dev",
    "methods": {
      "identifyTokens(address,address)": {
        "params": {
          "_tokenIn": "Address of the first token",
          "_tokenOut": "Address of the second token"
        },
        "returns": {
          "_0": "(uint8,uint8)        Types of both tokens"
        }
      }
    },
    "title": "TokenIdentifier",
    "version": 1
  },
  "userdoc": {
    "kind": "user",
    "methods": {
      "identifyTokens(address,address)": {
        "notice": "Returns the types of the two tokens"
      },
      "refreshAAveReserves()": {
        "notice": "Refreshes all aave mappings from protocol data provider on mainnetx"
      },
      "refreshCompoundTokens()": {
        "notice": "Refreshes all ctoken mappings from compound comptroller"
      },
      "updateConvexPools()": {
        "notice": "Refreshes all convex pools from the registry"
      },
      "updatePickleJars()": {
        "notice": "Refreshes all pickle jars from our registry"
      },
      "updateVisor(address[],bool[])": {
        "notice": "Adds/deletes visor vaults"
      },
      "updateYearnVaults()": {
        "notice": "Refreshes all yearn vaults from our registry"
      }
    },
    "version": 1
  },
  "storageLayout": {
    "storage": [
      {
        "astId": 18997,
        "contract": "contracts/TokenIdentifier.sol:TokenIdentifier",
        "label": "jarRegistry",
        "offset": 0,
        "slot": "0",
        "type": "t_contract(IPickleJarRegistry)42837"
      },
      {
        "astId": 19000,
        "contract": "contracts/TokenIdentifier.sol:TokenIdentifier",
        "label": "vaultRegistry",
        "offset": 0,
        "slot": "1",
        "type": "t_contract(IYearnVaultRegistry)44144"
      },
      {
        "astId": 19003,
        "contract": "contracts/TokenIdentifier.sol:TokenIdentifier",
        "label": "curveMetaRegistry",
        "offset": 0,
        "slot": "2",
        "type": "t_contract(ICurveMetaRegistry)41397"
      },
      {
        "astId": 19006,
        "contract": "contracts/TokenIdentifier.sol:TokenIdentifier",
        "label": "convexRegistry",
        "offset": 0,
        "slot": "3",
        "type": "t_contract(IConvexRegistry)41297"
      },
      {
        "astId": 19011,
        "contract": "contracts/TokenIdentifier.sol:TokenIdentifier",
        "label": "aTokenToAsset",
        "offset": 0,
        "slot": "4",
        "type": "t_mapping(t_address,t_address)"
      },
      {
        "astId": 19016,
        "contract": "contracts/TokenIdentifier.sol:TokenIdentifier",
        "label": "cTokenToAsset",
        "offset": 0,
        "slot": "5",
        "type": "t_mapping(t_address,t_address)"
      },
      {
        "astId": 19021,
        "contract": "contracts/TokenIdentifier.sol:TokenIdentifier",
        "label": "vaults",
        "offset": 0,
        "slot": "6",
        "type": "t_mapping(t_address,t_bool)"
      },
      {
        "astId": 19026,
        "contract": "contracts/TokenIdentifier.sol:TokenIdentifier",
        "label": "visors",
        "offset": 0,
        "slot": "7",
        "type": "t_mapping(t_address,t_bool)"
      },
      {
        "astId": 19031,
        "contract": "contracts/TokenIdentifier.sol:TokenIdentifier",
        "label": "jars",
        "offset": 0,
        "slot": "8",
        "type": "t_mapping(t_address,t_uint8)"
      },
      {
        "astId": 19036,
        "contract": "contracts/TokenIdentifier.sol:TokenIdentifier",
        "label": "pickleGauges",
        "offset": 0,
        "slot": "9",
        "type": "t_mapping(t_address,t_bool)"
      },
      {
        "astId": 19041,
        "contract": "contracts/TokenIdentifier.sol:TokenIdentifier",
        "label": "convexPools",
        "offset": 0,
        "slot": "10",
        "type": "t_mapping(t_address,t_bool)"
      }
    ],
    "types": {
      "t_address": {
        "encoding": "inplace",
        "label": "address",
        "numberOfBytes": "20"
      },
      "t_bool": {
        "encoding": "inplace",
        "label": "bool",
        "numberOfBytes": "1"
      },
      "t_contract(IConvexRegistry)41297": {
        "encoding": "inplace",
        "label": "contract IConvexRegistry",
        "numberOfBytes": "20"
      },
      "t_contract(ICurveMetaRegistry)41397": {
        "encoding": "inplace",
        "label": "contract ICurveMetaRegistry",
        "numberOfBytes": "20"
      },
      "t_contract(IPickleJarRegistry)42837": {
        "encoding": "inplace",
        "label": "contract IPickleJarRegistry",
        "numberOfBytes": "20"
      },
      "t_contract(IYearnVaultRegistry)44144": {
        "encoding": "inplace",
        "label": "contract IYearnVaultRegistry",
        "numberOfBytes": "20"
      },
      "t_mapping(t_address,t_address)": {
        "encoding": "mapping",
        "key": "t_address",
        "label": "mapping(address => address)",
        "numberOfBytes": "32",
        "value": "t_address"
      },
      "t_mapping(t_address,t_bool)": {
        "encoding": "mapping",
        "key": "t_address",
        "label": "mapping(address => bool)",
        "numberOfBytes": "32",
        "value": "t_bool"
      },
      "t_mapping(t_address,t_uint8)": {
        "encoding": "mapping",
        "key": "t_address",
        "label": "mapping(address => uint8)",
        "numberOfBytes": "32",
        "value": "t_uint8"
      },
      "t_uint8": {
        "encoding": "inplace",
        "label": "uint8",
        "numberOfBytes": "1"
      }
    }
  }
}