{
  "address": "0x265DA398aF55d144cFA04a69BaDa755f535af488",
  "abi": [
    {
      "inputs": [
        {
          "internalType": "contract IBabController",
          "name": "_controller",
          "type": "address"
        }
      ],
      "stateMutability": "nonpayable",
      "type": "constructor"
    },
    {
      "inputs": [
        {
          "internalType": "address",
          "name": "",
          "type": "address"
        }
      ],
      "name": "aTokenToAsset",
      "outputs": [
        {
          "internalType": "address",
          "name": "",
          "type": "address"
        }
      ],
      "stateMutability": "view",
      "type": "function"
    },
    {
      "inputs": [
        {
          "internalType": "address",
          "name": "",
          "type": "address"
        }
      ],
      "name": "cTokenToAsset",
      "outputs": [
        {
          "internalType": "address",
          "name": "",
          "type": "address"
        }
      ],
      "stateMutability": "view",
      "type": "function"
    },
    {
      "inputs": [],
      "name": "controller",
      "outputs": [
        {
          "internalType": "contract IBabController",
          "name": "",
          "type": "address"
        }
      ],
      "stateMutability": "view",
      "type": "function"
    },
    {
      "inputs": [
        {
          "internalType": "address",
          "name": "",
          "type": "address"
        }
      ],
      "name": "crTokenToAsset",
      "outputs": [
        {
          "internalType": "address",
          "name": "",
          "type": "address"
        }
      ],
      "stateMutability": "view",
      "type": "function"
    },
    {
      "inputs": [
        {
          "internalType": "address",
          "name": "_tokenIn",
          "type": "address"
        },
        {
          "internalType": "address",
          "name": "_tokenOut",
          "type": "address"
        },
        {
          "internalType": "contract ICurveMetaRegistry",
          "name": "_curveMetaRegistry",
          "type": "address"
        }
      ],
      "name": "identifyTokens",
      "outputs": [
        {
          "internalType": "uint8",
          "name": "",
          "type": "uint8"
        },
        {
          "internalType": "uint8",
          "name": "",
          "type": "uint8"
        },
        {
          "internalType": "address",
          "name": "",
          "type": "address"
        },
        {
          "internalType": "address",
          "name": "",
          "type": "address"
        }
      ],
      "stateMutability": "view",
      "type": "function"
    },
    {
      "inputs": [
        {
          "internalType": "address",
          "name": "",
          "type": "address"
        }
      ],
      "name": "synths",
      "outputs": [
        {
          "internalType": "bool",
          "name": "",
          "type": "bool"
        }
      ],
      "stateMutability": "view",
      "type": "function"
    },
    {
      "inputs": [
        {
          "internalType": "address[]",
          "name": "_aaveTokens",
          "type": "address[]"
        },
        {
          "internalType": "address[]",
          "name": "_underlyings",
          "type": "address[]"
        }
      ],
      "name": "updateAavePair",
      "outputs": [],
      "stateMutability": "nonpayable",
      "type": "function"
    },
    {
      "inputs": [
        {
          "internalType": "address[]",
          "name": "_cTokens",
          "type": "address[]"
        },
        {
          "internalType": "address[]",
          "name": "_underlyings",
          "type": "address[]"
        }
      ],
      "name": "updateCompoundPair",
      "outputs": [],
      "stateMutability": "nonpayable",
      "type": "function"
    },
    {
      "inputs": [
        {
          "internalType": "address[]",
          "name": "_creamTokens",
          "type": "address[]"
        },
        {
          "internalType": "address[]",
          "name": "_underlyings",
          "type": "address[]"
        }
      ],
      "name": "updateCreamPair",
      "outputs": [],
      "stateMutability": "nonpayable",
      "type": "function"
    },
    {
      "inputs": [
        {
          "internalType": "address[]",
          "name": "_synths",
          "type": "address[]"
        },
        {
          "internalType": "bool[]",
          "name": "_values",
          "type": "bool[]"
        }
      ],
      "name": "updateSynth",
      "outputs": [],
      "stateMutability": "nonpayable",
      "type": "function"
    },
    {
      "inputs": [
        {
          "internalType": "address[]",
          "name": "_visors",
          "type": "address[]"
        },
        {
          "internalType": "bool[]",
          "name": "_values",
          "type": "bool[]"
        }
      ],
      "name": "updateVisor",
      "outputs": [],
      "stateMutability": "nonpayable",
      "type": "function"
    },
    {
      "inputs": [
        {
          "internalType": "address[]",
          "name": "_vaults",
          "type": "address[]"
        },
        {
          "internalType": "bool[]",
          "name": "_values",
          "type": "bool[]"
        }
      ],
      "name": "updateYearnVault",
      "outputs": [],
      "stateMutability": "nonpayable",
      "type": "function"
    },
    {
      "inputs": [
        {
          "internalType": "address",
          "name": "",
          "type": "address"
        }
      ],
      "name": "vaults",
      "outputs": [
        {
          "internalType": "bool",
          "name": "",
          "type": "bool"
        }
      ],
      "stateMutability": "view",
      "type": "function"
    },
    {
      "inputs": [
        {
          "internalType": "address",
          "name": "",
          "type": "address"
        }
      ],
      "name": "visors",
      "outputs": [
        {
          "internalType": "bool",
          "name": "",
          "type": "bool"
        }
      ],
      "stateMutability": "view",
      "type": "function"
    }
  ],
  "transactionHash": "0x70c2bd77a2ff4076212fabb9fe5806f719da37c95abf4e741dca7773c4fffea9",
  "args": [
    "0xD4a5b5fcB561dAF3aDF86F8477555B92FBa43b5F"
  ],
  "numDeployments": 4,
  "solcInputHash": "52326babd87e7897610fb1d2a71f018c",
  "bytecode": "0x608060405234801561001057600080fd5b5060405161719e38038061719e8339818101604052602081101561003357600080fd5b8101908080519060200190929190505050806000806101000a8154816001600160a01b0302191690836001600160a01b03160217905550736b175474e89094c44da98b954eedeac495271d0f60016000735d3a536e4d6dbd6114cc1ead35777bab948e36436001600160a01b03166001600160a01b0316815260200190815260200160002060006101000a8154816001600160a01b0302191690836001600160a01b03160217905550731f9840a85d5af5bf1d1762f925bdaddc4201f984600160007335a18000230da775cac24873d00ff85bccded5506001600160a01b03166001600160a01b0316815260200190815260200160002060006101000a8154816001600160a01b0302191690836001600160a01b0316021790555073c02aaa39b223fe8d0a0e5c4f27ead9083c756cc260016000734ddc2d193948926d02f9b1fe9e1daa0718270ed56001600160a01b03166001600160a01b0316815260200190815260200160002060006101000a8154816001600160a01b0302191690836001600160a01b0316021790555073a0b86991c6218b36c1d19d4a2e9eb0ce3606eb48600160007339aa39c021dfbae8fac545936693ac917d5e75636001600160a01b03166001600160a01b0316815260200190815260200160002060006101000a8154816001600160a01b0302191690836001600160a01b0316021790555073dac17f958d2ee523a2206206994597c13d831ec76001600073f650c3d88d12db855b8bf7d11be6c55a4e07dcc96001600160a01b03166001600160a01b0316815260200190815260200160002060006101000a8154816001600160a01b0302191690836001600160a01b03160217905550732260fac5e5542a773aa44fbcfedf7c193bc2c5996001600073ccf4429db6322d5c611ee964527d42e5d685dd6a6001600160a01b03166001600160a01b0316815260200190815260200160002060006101000a8154816001600160a01b0302191690836001600160a01b0316021790555073c00e94cb662c3520282e6f5717214004a7f26888600160007370e36f6bf80a52b3b46b3af8e106cc0ed743e8e46001600160a01b03166001600160a01b0316815260200190815260200160002060006101000a8154816001600160a01b0302191690836001600160a01b03160217905550730d8775f648430679a709e98d2b0cb6250d2887ef60016000736c8c6b02e7b2be14d4fa6022dfd6d75921d90e4e6001600160a01b03166001600160a01b0316815260200190815260200160002060006101000a8154816001600160a01b0302191690836001600160a01b0316021790555073514910771af9ca656af840dff83e8264ecf986ca6001600073face851a4921ce59e912d19329929ce6da6eb0c76001600160a01b03166001600160a01b0316815260200190815260200160002060006101000a8154816001600160a01b0302191690836001600160a01b0316021790555073221657776846890989a759ba2973e427dff5c9bb6001600073158079ee67fce2f58472a96584a73c7ab9ac95c16001600160a01b03166001600160a01b0316815260200190815260200160002060006101000a8154816001600160a01b0302191690836001600160a01b031602179055507389d24a6b4ccb1b6faa2625fe562bdd9a232603596001600073f5dce57282a584d2746faf1593d3121fcac444dc6001600160a01b03166001600160a01b0316815260200190815260200160002060006101000a8154816001600160a01b0302191690836001600160a01b031602179055506e085d4780b73119b644ae5ecd22b376600160007312392f67bdf24fae0af363c24ac620a2f67dad866001600160a01b03166001600160a01b0316815260200190815260200160002060006101000a8154816001600160a01b0302191690836001600160a01b0316021790555073e41d2489571d322189246dafa5ebde1f4699f4986001600073b3319f5d18bc0d84dd1b4825dcde5d5f7266d4076001600160a01b03166001600160a01b0316815260200190815260200160002060006101000a8154816001600160a01b0302191690836001600160a01b03160217905550737fc66500c84a76ad7e9c93437bfc5ac33e2ddae96001600073e65cdb6479bac1e22340e4e755fae7e509ecd06c6001600160a01b03166001600160a01b0316815260200190815260200160002060006101000a8154816001600160a01b0302191690836001600160a01b03160217905550739f8f72aa9304c8b593d555f12ef6589cc3a579a2600160007395b4ef2869ebd94beb4eee400a99824bf5dc325b6001600160a01b03166001600160a01b0316815260200190815260200160002060006101000a8154816001600160a01b0302191690836001600160a01b03160217905550736b3595068778dd592e39a122f4f5a5cf09c90fe260016000734b0181102a0112a2ef11abee5563bb4a3176c9d76001600160a01b03166001600160a01b0316815260200190815260200160002060006101000a8154816001600160a01b0302191690836001600160a01b03160217905550738e870d67f660d95d5be530380d0ec0bd388289e16001600073041171993284df560249b57358f931d9eb7b925d6001600160a01b03166001600160a01b0316815260200190815260200160002060006101000a8154816001600160a01b0302191690836001600160a01b03160217905550730bc529c00c6401aef6d220be8c6ea1667f6ad93e600160007380a2ae356fc9ef4305676f7a3e2ed04e12c339466001600160a01b03166001600160a01b0316815260200190815260200160002060006101000a8154816001600160a01b0302191690836001600160a01b03160217905550736b175474e89094c44da98b954eedeac495271d0f6001600073a6c25548df506d84afd237225b5b34f2feb1aa076001600160a01b03166001600160a01b0316815260200190815260200160002060006101000a8154816001600160a01b0302191690836001600160a01b0316021790555073853d955acef822db058eb8505911ed77f175b99e6001600073a54c548d11792b3d26ad74f5f899e12cdfd64fd66001600160a01b03166001600160a01b0316815260200190815260200160002060006101000a8154816001600160a01b0302191690836001600160a01b0316021790555073f4dc48d260c93ad6a96c5ce563e70ca578987c746001600073812eedc9eba9c428434fd3ce56156b4e23012ebc6001600160a01b03166001600160a01b0316815260200190815260200160002060006101000a8154816001600160a01b0302191690836001600160a01b0316021790555073c02aaa39b223fe8d0a0e5c4f27ead9083c756cc260016000737dbc3af9251756561ce755fcc11c754184af71f76001600160a01b03166001600160a01b0316815260200190815260200160002060006101000a8154816001600160a01b0302191690836001600160a01b0316021790555073956f47f50a910163d8bf957cf5846d573e7f87ca60016000733a2804ec0ff521374af654d8d0daa1d1ae1ee9006001600160a01b03166001600160a01b0316815260200190815260200160002060006101000a8154816001600160a01b0302191690836001600160a01b03160217905550737fc66500c84a76ad7e9c93437bfc5ac33e2ddae96002600073ffc97d72e13e01096502cb8eb52dee56f74dad7b6001600160a01b03166001600160a01b0316815260200190815260200160002060006101000a8154816001600160a01b0302191690836001600160a01b0316021790555073d46ba6d942050d489dbd938a2c909a5d5039a16160026000731e6bb68acec8fefbd87d192be09bb274170a05486001600160a01b03166001600160a01b0316815260200190815260200160002060006101000a8154816001600160a01b0302191690836001600160a01b0316021790555073ba100000625a3754423978a60c9317c58a424e3d6002600073272f97b7a56a387ae942350bbc7df5700f8a45766001600160a01b03166001600160a01b0316815260200190815260200160002060006101000a8154816001600160a01b0302191690836001600160a01b03160217905550730d8775f648430679a709e98d2b0cb6250d2887ef600260007305ec93c0365baaeabf7aeffb0972ea7ecdd39cf16001600160a01b03166001600160a01b0316815260200190815260200160002060006101000a8154816001600160a01b0302191690836001600160a01b03160217905550734fabb145d64652a948d72533023f6e7a623c7c536002600073a361718326c15715591c299427c62086f69923d96001600160a01b03166001600160a01b0316815260200190815260200160002060006101000a8154816001600160a01b0302191690836001600160a01b0316021790555073d533a949740bb3306d119cc777fa900ba034cd5260026000738dae6cb04688c62d939ed9b68d32bc62e49970b16001600160a01b03166001600160a01b0316815260200190815260200160002060006101000a8154816001600160a01b0302191690836001600160a01b03160217905550736b175474e89094c44da98b954eedeac495271d0f6002600073028171bca77440897b824ca71d1c56cac55b68a36001600160a01b03166001600160a01b0316815260200190815260200160002060006101000a8154816001600160a01b0302191690836001600160a01b0316021790555073f629cbd94d3791c9250152bd8dfbdf380e2a3b9c6002600073ac6df26a590f08dcc95d5a4705ae8abbc88509ef6001600160a01b03166001600160a01b0316815260200190815260200160002060006101000a8154816001600160a01b0302191690836001600160a01b0316021790555073956f47f50a910163d8bf957cf5846d573e7f87ca6002600073683923db55fead99a79fa01a27eec3cb19679cc36001600160a01b03166001600160a01b0316815260200190815260200160002060006101000a8154816001600160a01b0302191690836001600160a01b0316021790555073853d955acef822db058eb8505911ed77f175b99e6002600073d4937682df3c8aef4fe912a96a74121c0829e6646001600160a01b03166001600160a01b0316815260200190815260200160002060006101000a8154816001600160a01b0302191690836001600160a01b0316021790555073056fd409e1d7a124bd7017459dfea2f387b6d5cd6002600073d37ee7e4f452c6638c96536e68090de8cbcdb5836001600160a01b03166001600160a01b0316815260200190815260200160002060006101000a8154816001600160a01b0302191690836001600160a01b0316021790555073dd974d5c2e2928dea5f71b9825b8b646686bd200600260007339c6b3e42d6a679d7d776778fe880bc9487c2eda6001600160a01b03166001600160a01b0316815260200190815260200160002060006101000a8154816001600160a01b0302191690836001600160a01b0316021790555073514910771af9ca656af840dff83e8264ecf986ca6002600073a06bc25b5805d5f8d82847d191cb4af5a3e873e06001600160a01b03166001600160a01b0316815260200190815260200160002060006101000a8154816001600160a01b0302191690836001600160a01b03160217905550730f5d2fb29fb7d3cfee444a200298f468908cc9426002600073a685a61171bb30d4072b338c80cb7b2c865c873e6001600160a01b03166001600160a01b0316815260200190815260200160002060006101000a8154816001600160a01b0302191690836001600160a01b03160217905550739f8f72aa9304c8b593d555f12ef6589cc3a579a26002600073c713e5e149d5d0715dcd1c156a020976e7e56b886001600160a01b03166001600160a01b0316815260200190815260200160002060006101000a8154816001600160a01b0302191690836001600160a01b031602179055507303ab458634910aad20ef5f1c8ee96f1d6ac549196002600073c9bc48c72154ef3e5425641a3c747242112a46af6001600160a01b03166001600160a01b0316815260200190815260200160002060006101000a8154816001600160a01b0302191690836001600160a01b0316021790555073408e41876cccdc0f92210600ef50372656052a386002600073cc12abe4ff81c9378d670de1b57f8e0dd228d77a6001600160a01b03166001600160a01b0316815260200190815260200160002060006101000a8154816001600160a01b0302191690836001600160a01b0316021790555073d5147bc8e386d91cc5dbe72099dac6c9b99276f56002600073514cd6756ccbe28772d4cb81bc3156ba9d1744aa6001600160a01b03166001600160a01b0316815260200190815260200160002060006101000a8154816001600160a01b0302191690836001600160a01b0316021790555073c011a73ee8576fb46f5e1c5751ca3b9fe0af2a6f600260007335f6b052c598d933d69a4eec4d04c73a191fe6c26001600160a01b03166001600160a01b0316815260200190815260200160002060006101000a8154816001600160a01b0302191690836001600160a01b031602179055507357ab1ec28d129707052df4df418d58a2d46d5f5160026000736c5024cd4f8a59110119c56f8933403a539555eb6001600160a01b03166001600160a01b0316815260200190815260200160002060006101000a8154816001600160a01b0302191690836001600160a01b031602179055506e085d4780b73119b644ae5ecd22b3766002600073101cc05f4a51c0319f570d5e146a8c625198e6366001600160a01b03166001600160a01b0316815260200190815260200160002060006101000a8154816001600160a01b0302191690836001600160a01b03160217905550731f9840a85d5af5bf1d1762f925bdaddc4201f9846002600073b9d7cb55f463405cdfbe4e90a6d2df01c2b92bf16001600160a01b03166001600160a01b0316815260200190815260200160002060006101000a8154816001600160a01b0302191690836001600160a01b0316021790555073a0b86991c6218b36c1d19d4a2e9eb0ce3606eb486002600073bcca60bb61934080951369a648fb03df4f96263c6001600160a01b03166001600160a01b0316815260200190815260200160002060006101000a8154816001600160a01b0302191690836001600160a01b03160217905550738e870d67f660d95d5be530380d0ec0bd388289e160026000732e8f4bdbe3d47d7d7de490437aea9915d930f1a36001600160a01b03166001600160a01b0316815260200190815260200160002060006101000a8154816001600160a01b0302191690836001600160a01b0316021790555073dac17f958d2ee523a2206206994597c13d831ec760026000733ed3b47dd13ec9a98b44e6204a523e766b2258116001600160a01b03166001600160a01b0316815260200190815260200160002060006101000a8154816001600160a01b0302191690836001600160a01b03160217905550732260fac5e5542a773aa44fbcfedf7c193bc2c59960026000739ff58f4ffb29fa2266ab25e75e2a8b35033116566001600160a01b03166001600160a01b0316815260200190815260200160002060006101000a8154816001600160a01b0302191690836001600160a01b0316021790555073c02aaa39b223fe8d0a0e5c4f27ead9083c756cc26002600073030ba81f1c18d280636f32af80b9aad02cf0854e6001600160a01b03166001600160a01b0316815260200190815260200160002060006101000a8154816001600160a01b0302191690836001600160a01b03160217905550738798249c2e607446efb7ad49ec89dd1865ff42726002600073f256cc7847e919fac9b808cc216cac87ccf2f47a6001600160a01b03166001600160a01b0316815260200190815260200160002060006101000a8154816001600160a01b0302191690836001600160a01b03160217905550730bc529c00c6401aef6d220be8c6ea1667f6ad93e60026000735165d24277cd063f5ac44efd447b27025e888f376001600160a01b03166001600160a01b0316815260200190815260200160002060006101000a8154816001600160a01b0302191690836001600160a01b0316021790555073e41d2489571d322189246dafa5ebde1f4699f4986002600073df7ff54aacacbff42dfe29dd6144a69b629f8c9e6001600160a01b03166001600160a01b0316815260200190815260200160002060006101000a8154816001600160a01b0302191690836001600160a01b0316021790555073c02aaa39b223fe8d0a0e5c4f27ead9083c756cc26003600073d06527d5e56a3495252a528c4987003b712860ee6001600160a01b03166001600160a01b0316815260200190815260200160002060006101000a8154816001600160a01b0302191690836001600160a01b0316021790555073dac17f958d2ee523a2206206994597c13d831ec76003600073797aab1ce7c01eb727ab980762ba88e7133d21576001600160a01b03166001600160a01b0316815260200190815260200160002060006101000a8154816001600160a01b0302191690836001600160a01b0316021790555073a0b86991c6218b36c1d19d4a2e9eb0ce3606eb48600360007344fbebd2f576670a6c33f6fc0b00aa8c5753b3226001600160a01b03166001600160a01b0316815260200190815260200160002060006101000a8154816001600160a01b0302191690836001600160a01b03160217905550730bc529c00c6401aef6d220be8c6ea1667f6ad93e6003600073cbae0a83f4f9926997c8339545fb8ee32edc6b766001600160a01b03166001600160a01b0316815260200190815260200160002060006101000a8154816001600160a01b0302191690836001600160a01b0316021790555073ba100000625a3754423978a60c9317c58a424e3d6003600073ce4fe9b4b8ff61949dcfeb7e03bc9faca59d2eb36001600160a01b03166001600160a01b0316815260200190815260200160002060006101000a8154816001600160a01b0302191690836001600160a01b0316021790555073c00e94cb662c3520282e6f5717214004a7f26888600360007319d1666f543d42ef17f66e376944a22aea1a8e466001600160a01b03166001600160a01b0316815260200190815260200160002060006101000a8154816001600160a01b0302191690836001600160a01b0316021790555073df5e0e81dff6faf3a7e52ba697820c5e32d806a860036000739baf8a5236d44ac410c0186fe39178d5aad0bb876001600160a01b03166001600160a01b0316815260200190815260200160002060006101000a8154816001600160a01b0302191690836001600160a01b03160217905550732ba592f78db6436527729929aaf6c908497cb2006003600073892b14321a4fcba80669ae30bd0cd99a7ecf6ac06001600160a01b03166001600160a01b0316815260200190815260200160002060006101000a8154816001600160a01b0302191690836001600160a01b0316021790555073514910771af9ca656af840dff83e8264ecf986ca6003600073697256caa3ccafd62bb6d3aa1c7c5671786a5fd96001600160a01b03166001600160a01b0316815260200190815260200160002060006101000a8154816001600160a01b0302191690836001600160a01b031602179055507380fb784b7ed66730e8b1dbd9820afd29931aab0360036000738b86e0598616a8d4f1fdae8b59e55fb5bc33d0d66001600160a01b03166001600160a01b0316815260200190815260200160002060006101000a8154816001600160a01b0302191690836001600160a01b0316021790555073d533a949740bb3306d119cc777fa900ba034cd526003600073c7fd8dcee4697ceef5a2fd4608a7bd6a94c774806001600160a01b03166001600160a01b0316815260200190815260200160002060006101000a8154816001600160a01b0302191690836001600160a01b0316021790555073eb4c2781e4eba804ce9a9803c67d0893436bb27d600360007317107f40d70f4470d20cb3f138a052cae8ebd4be6001600160a01b03166001600160a01b0316815260200190815260200160002060006101000a8154816001600160a01b0302191690836001600160a01b03160217905550734fabb145d64652a948d72533023f6e7a623c7c5360036000731ff8cdb51219a8838b52e9cac09b71e591bc998e6001600160a01b03166001600160a01b0316815260200190815260200160002060006101000a8154816001600160a01b0302191690836001600160a01b0316021790555073a3bed4e1c75d00fa6f4e5e6922db7261b5e9acd260036000733623387773010d9214b10c551d6e7fc375d31f586001600160a01b03166001600160a01b0316815260200190815260200160002060006101000a8154816001600160a01b0302191690836001600160a01b03160217905550734ee15f44c6f0d8d1136c83efd2e8e4ac768954c660036000734ee15f44c6f0d8d1136c83efd2e8e4ac768954c66001600160a01b03166001600160a01b0316815260200190815260200160002060006101000a8154816001600160a01b0302191690836001600160a01b03160217905550736b3595068778dd592e39a122f4f5a5cf09c90fe26003600073338286c0bc081891a4bda39c7667ae150bf5d2066001600160a01b03166001600160a01b0316815260200190815260200160002060006101000a8154816001600160a01b0302191690836001600160a01b031602179055507350d1c9771902476076ecfc8b2a83ad6b9355a4c9600360007310fdbd1e48ee2fd9336a482d746138ae19e649db6001600160a01b03166001600160a01b0316815260200190815260200160002060006101000a8154816001600160a01b0302191690836001600160a01b0316021790555073e1237aa7f535b0cc33fd973d66cbf830354d16c7600360007301da76dea59703578040012357b81ffe62015c2d6001600160a01b03166001600160a01b0316815260200190815260200160002060006101000a8154816001600160a01b0302191690836001600160a01b0316021790555073476c5e26a75bd202a9683ffd34359c0cc15be0ff6003600073ef58b2d5a1b8d3cde67b8ab054dc5c831e9bc0256001600160a01b03166001600160a01b0316815260200190815260200160002060006101000a8154816001600160a01b0302191690836001600160a01b03160217905550731f9840a85d5af5bf1d1762f925bdaddc4201f9846003600073e89a6d0509faf730bd707bf868d9a2a744a363c76001600160a01b03166001600160a01b0316815260200190815260200160002060006101000a8154816001600160a01b0302191690836001600160a01b03160217905550730d438f3b5175bebc262bf23753c1e53d03432bde6003600073eff039c3c1d668f408d09dd7b63008622a77532c6001600160a01b03166001600160a01b0316815260200190815260200160002060006101000a8154816001600160a01b0302191690836001600160a01b031602179055507387edffde3e14c7a66c9b9724747a1c5696b742e6600360007322b243b96495c547598d9042b6f94b01c22b2e9e6001600160a01b03166001600160a01b0316815260200190815260200160002060006101000a8154816001600160a01b0302191690836001600160a01b0316021790555073aaaebe6fe48e54f431b0c390cfaf0b017d09d42d60036000738b3ff1ed4f36c2c2be675afb13cc3aa5d73685a56001600160a01b03166001600160a01b0316815260200190815260200160002060006101000a8154816001600160a01b0302191690836001600160a01b03160217905550731494ca1f11d487c2bbe4543e90080aeba4ba3c2b60036000732a537fa9ffaea8c1a41d3c2b68a9cb791529366d6001600160a01b03166001600160a01b0316815260200190815260200160002060006101000a8154816001600160a01b0302191690836001600160a01b03160217905550739be89d2a4cd102d8fecc6bf9da793be995c2254160036000737ea9c63e216d5565c3940a2b3d150e59c2907db36001600160a01b03166001600160a01b0316815260200190815260200160002060006101000a8154816001600160a01b0302191690836001600160a01b03160217905550737fc66500c84a76ad7e9c93437bfc5ac33e2ddae960036000733225e3c669b39c7c8b3e204a8614bb218c5e31bc6001600160a01b03166001600160a01b0316815260200190815260200160002060006101000a8154816001600160a01b0302191690836001600160a01b03160217905550730391d2021f89dc339f60fff84546ea23e337750f6003600073f55bbe0255f7f4e70f63837ff72a577fbddbe9246001600160a01b03166001600160a01b0316815260200190815260200160002060006101000a8154816001600160a01b0302191690836001600160a01b03160217905550731ceb5cb57c4d4e2b2433641b95dd330a33185a446003600073903560b1cce601794c584f58898da8a8b789fc5d6001600160a01b03166001600160a01b0316815260200190815260200160002060006101000a8154816001600160a01b0302191690836001600160a01b03160217905550730316eb71485b0ab14103307bf65a021042c6d3806003600073054b7ed3f45714d3091e82aad64a1588dc4096ed6001600160a01b03166001600160a01b0316815260200190815260200160002060006101000a8154816001600160a01b0302191690836001600160a01b03160217905550739afb950948c2370975fb91a441f36fdc02737cd46003600073d5103afcd0b3fa865997ef2984c66742c51b2a8b6001600160a01b03166001600160a01b0316815260200190815260200160002060006101000a8154816001600160a01b0302191690836001600160a01b0316021790555073cbc1065255cbc3ab41a6868c22d1f1c573ab89fd6003600073fd609a03b393f1a1cfcacedabf068cad09a924e26001600160a01b03166001600160a01b0316815260200190815260200160002060006101000a8154816001600160a01b0302191690836001600160a01b0316021790555073df574c24545e5ffecb9a659c229253d4111d87e16003600073d692ac3245bb82319a31068d6b8412796ee85d2c6001600160a01b03166001600160a01b0316815260200190815260200160002060006101000a8154816001600160a01b0302191690836001600160a01b03160217905550736b175474e89094c44da98b954eedeac495271d0f600360007392b767185fb3b04f881e3ac8e5b0662a027a1d9f6001600160a01b03166001600160a01b0316815260200190815260200160002060006101000a8154816001600160a01b0302191690836001600160a01b0316021790555073584bc13c7d411c00c01a62e8019472de68768430600360007310a3da2bb0fae4d591476fd97d6636fd172923a86001600160a01b03166001600160a01b0316815260200190815260200160002060006101000a8154816001600160a01b0302191690836001600160a01b031602179055507336f3fd68e7325a35eb768f1aedaae9ea0689d72360036000733c6c553a95910f9fc81c98784736bd628636d2966001600160a01b03166001600160a01b0316815260200190815260200160002060006101000a8154816001600160a01b0302191690836001600160a01b0316021790555073111111111117dc0aa78b770fa6a738034120c302600360007385759961b116f1d36fd697855c57a6ae40793d9b6001600160a01b03166001600160a01b0316815260200190815260200160002060006101000a8154816001600160a01b0302191690836001600160a01b0316021790555073d26114cd6ee289accf82350c8d8487fedb8a0c0760036000737aaa323d7e398be4128c7042d197a2545f0f1fea6001600160a01b03166001600160a01b0316815260200190815260200160002060006101000a8154816001600160a01b0302191690836001600160a01b0316021790555073bb2b8038a1640196fbe3e38816f3e67cba72d9406003600073011a014d5e8eb4771e575bb1000318d509230afa6001600160a01b03166001600160a01b0316815260200190815260200160002060006101000a8154816001600160a01b0302191690836001600160a01b03160217905550730d4a11d5eeaac28ec3f61d100daf4d40471f18526003600073e6c3120f38f56deb38b69b65cc7dcaf9163739636001600160a01b03166001600160a01b0316815260200190815260200160002060006101000a8154816001600160a01b0302191690836001600160a01b0316021790555073b4e16d0168e52d35cacd2c6185b44281ec28c9dc60036000734fe11bc316b6d7a345493127fbe298b95adaad856001600160a01b03166001600160a01b0316815260200190815260200160002060006101000a8154816001600160a01b0302191690836001600160a01b0316021790555073a478c2975ab1ea89e8196811f51a7b7ade33eb116003600073cd22c4110c12ac41acefa0091c432ef44efaafa06001600160a01b03166001600160a01b0316815260200190815260200160002060006101000a8154816001600160a01b0302191690836001600160a01b03160217905550738798249c2e607446efb7ad49ec89dd1865ff42726003600073228619cca194fbe3ebeb2f835ec1ea5080dafbb26001600160a01b03166001600160a01b0316815260200190815260200160002060006101000a8154816001600160a01b0302191690836001600160a01b0316021790555073ceff51756c56ceffca006cd410b03ffc46dd3a58600360007373f6cba38922960b7092175c0add22ab8d0e81fc6001600160a01b03166001600160a01b0316815260200190815260200160002060006101000a8154816001600160a01b0302191690836001600160a01b0316021790555073c3d03e4f041fd4cd388c549ee2a29a9e5075882f600360007338f27c03d6609a86ff7716ad03038881320be4ad6001600160a01b03166001600160a01b0316815260200190815260200160002060006101000a8154816001600160a01b0302191690836001600160a01b0316021790555073397ff1542f962076d0bfe58ea045ffa2d347aca060036000735ecad8a75216cea7dff978525b2d523a251eea926001600160a01b03166001600160a01b0316815260200190815260200160002060006101000a8154816001600160a01b0302191690836001600160a01b031602179055507306da0fd433c1a5d7a4faa01111c044910a18455360036000735c291bc83d15f71fb37805878161718ea4b6aee96001600160a01b03166001600160a01b0316815260200190815260200160002060006101000a8154816001600160a01b0302191690836001600160a01b0316021790555073795065dcc9f64b5614c407a6efdc400da6221fb060036000736ba0c66c48641e220cf78177c144323b3838d3756001600160a01b03166001600160a01b0316815260200190815260200160002060006101000a8154816001600160a01b0302191690836001600160a01b0316021790555073088ee5007c98a9677165d78dd2109ae4a3d04d0c6003600073d532944df6dfd5dd629e8772f03d4fc861873abf6001600160a01b03166001600160a01b0316815260200190815260200160002060006101000a8154816001600160a01b0302191690836001600160a01b03160217905550732260fac5e5542a773aa44fbcfedf7c193bc2c5996003600073197070723ce0d3810a0e47f06e935c30a480d4fc6001600160a01b03166001600160a01b0316815260200190815260200160002060006101000a8154816001600160a01b0302191690836001600160a01b0316021790555073c011a73ee8576fb46f5e1c5751ca3b9fe0af2a6f6003600073c25eae724f189ba9030b2556a1533e7c8a732e146001600160a01b03166001600160a01b0316815260200190815260200160002060006101000a8154816001600160a01b0302191690836001600160a01b031602179055507357ab1ec28d129707052df4df418d58a2d46d5f51600360007325555933a8246ab67cbf907ce3d1949884e82b556001600160a01b03166001600160a01b0316815260200190815260200160002060006101000a8154816001600160a01b0302191690836001600160a01b0316021790555073429881672b9ae42b8eba0e26cd9c73711b891ca56003600073c68251421edda00a10815e273fa4b1191fac651b6001600160a01b03166001600160a01b0316815260200190815260200160002060006101000a8154816001600160a01b0302191690836001600160a01b03160217905550738ab7404063ec4dbcfd4598215992dc3f8ec853d7600360007365883978ada0e707c3b2be2a6825b1c4bdf76a906001600160a01b03166001600160a01b0316815260200190815260200160002060006101000a8154816001600160a01b0302191690836001600160a01b031602179055507319d97d8fa813ee2f51ad4b4e04ea08baf4dffc2860036000738b950f43fcac4931d408f1fcda55c6cb6cbf30966001600160a01b03166001600160a01b0316815260200190815260200160002060006101000a8154816001600160a01b0302191690836001600160a01b03160217905550738207c1ffc5b6804f6024322ccf34f29c3541ae26600360007359089279987dd76fc65bf94cb40e186b96e03cb36001600160a01b03166001600160a01b0316815260200190815260200160002060006101000a8154816001600160a01b0302191690836001600160a01b0316021790555073ff20817765cb7f73d4bde2e66e067e58d11095c260036000732db6c82ce72c8d7d770ba1b5f5ed0b6e075066d66001600160a01b03166001600160a01b0316815260200190815260200160002060006101000a8154816001600160a01b0302191690836001600160a01b0316021790555073853d955acef822db058eb8505911ed77f175b99e6003600073b092b4601850e23903a42eacbc9d8a0eec26a4d56001600160a01b03166001600160a01b0316815260200190815260200160002060006101000a8154816001600160a01b0302191690836001600160a01b0316021790555073a1faa113cbe53436df28ff0aee54275c13b4097560036000731d0986fb43985c88ffa9ad959cc24e6a087c7e356001600160a01b03166001600160a01b0316815260200190815260200160002060006101000a8154816001600160a01b0302191690836001600160a01b0316021790555073a47c8bf37f92abed4a126bda807a7b7498661acd600360007351f48b638f82e8765f7a26373a2cb4ccb10c07af6001600160a01b03166001600160a01b0316815260200190815260200160002060006101000a8154816001600160a01b0302191690836001600160a01b03160217905550734e15361fd6b4bb609fa63c81a2be19d8737178706003600073c36080892c64821fa8e396bc1bd8678fa3b82b176001600160a01b03166001600160a01b0316815260200190815260200160002060006101000a8154816001600160a01b0302191690836001600160a01b03160217905550733155ba85d5f96b2d030a4966af206230e46849cb60036000738379baa817c5c5ab929b03ee8e3c48e45018ae416001600160a01b03166001600160a01b0316815260200190815260200160002060006101000a8154816001600160a01b0302191690836001600160a01b0316021790555073bc396689893d065f41bc2c6ecbee5e00852334476003600073299e254a8a165bbeb76d9d69305013329eea3a3b6001600160a01b03166001600160a01b0316815260200190815260200160002060006101000a8154816001600160a01b0302191690836001600160a01b031602179055507303ab458634910aad20ef5f1c8ee96f1d6ac549196003600073f8445c529d363ce114148662387eba5e62016e206001600160a01b03166001600160a01b0316815260200190815260200160002060006101000a8154816001600160a01b0302191690836001600160a01b0316021790555073967da4048cd07ab37855c090aaf366e4ce1b9f4860036000737c3297cfb4c4bbd5f44b450c0872e0ada52031126001600160a01b03166001600160a01b0316815260200190815260200160002060006101000a8154816001600160a01b0302191690836001600160a01b0316021790555073fca59cd816ab1ead66534d82bc21e7515ce441cf6003600073081fe64df6dc6fc70043aedf3713a3ce6f190a216001600160a01b03166001600160a01b0316815260200190815260200160002060006101000a8154816001600160a01b0302191690836001600160a01b0316021790555073b753428af26e81097e7fd17f40c88aaa3e04902c600360007328526bb33d7230e65e735db64296413731c5402e6001600160a01b03166001600160a01b0316815260200190815260200160002060006101000a8154816001600160a01b0302191690836001600160a01b031602179055507327b7b1ad7288079a66d12350c828d3c00a6f07d7600360007345406ba53bb84cd32a58e7098a2d4d1b11b107f66001600160a01b03166001600160a01b0316815260200190815260200160002060006101000a8154816001600160a01b0302191690836001600160a01b0316021790555073986b4aff588a109c09b50a03f42e4110e29d353f60036000736d1b9e01af17dd08d6dec08e210dfd5984ff1c206001600160a01b03166001600160a01b0316815260200190815260200160002060006101000a8154816001600160a01b0302191690836001600160a01b0316021790555073dcd90c7f6324cfa40d7169ef80b12031770b432560036000731f9b4756b008106c806c7e64322d7ed3b72cb2846001600160a01b03166001600160a01b0316815260200190815260200160002060006101000a8154816001600160a01b0302191690836001600160a01b03160217905550731337def16f9b486faed0293eb623dc8395dfe46a6003600073ab10586c918612ba440482db77549d26b7abf8f76001600160a01b03166001600160a01b0316815260200190815260200160002060006101000a8154816001600160a01b0302191690836001600160a01b03160217905550731337def18c680af1f9f45cbcab6309562975b1dd6003600073dfff11dfe6436e42a17b86e7f419ac82929903936001600160a01b03166001600160a01b0316815260200190815260200160002060006101000a8154816001600160a01b0302191690836001600160a01b0316021790555073ec67005c4e498ec7f55e092bd1d35cbc47c918926003600073dbb5e3081def4b6cdd8864ac2aeda4cbf778fecf6001600160a01b03166001600160a01b0316815260200190815260200160002060006101000a8154816001600160a01b0302191690836001600160a01b03160217905550731b40183efb4dd766f11bda7a7c3ad8982e998421600360007371cefcd324b732d4e058afacba040d908c4418476001600160a01b03166001600160a01b0316815260200190815260200160002060006101000a8154816001600160a01b0302191690836001600160a01b0316021790555073ba4cfe5741b357fa371b506e5db0774abfecf8fc60036000731a122348b73b58ea39f822a89e6ec67950c2bbd06001600160a01b03166001600160a01b0316815260200190815260200160002060006101000a8154816001600160a01b0302191690836001600160a01b03160217905550736810e776880c02933d47db1b9fc05908e5386b966003600073523effc8bfefc2948211a05a905f761cba5e8e9e6001600160a01b03166001600160a01b0316815260200190815260200160002060006101000a8154816001600160a01b0302191690836001600160a01b0316021790555073a9fe4601811213c340e850ea305481aff02f5b2860036000734202d97e00b9189936edf37f8d01cff88bdd81d46001600160a01b03166001600160a01b0316815260200190815260200160002060006101000a8154816001600160a01b0302191690836001600160a01b03160217905550734baa77013ccd6705ab0522853cb0e9d453579dd460036000734baa77013ccd6705ab0522853cb0e9d453579dd46001600160a01b03166001600160a01b0316815260200190815260200160002060006101000a8154816001600160a01b0302191690836001600160a01b0316021790555073cc4304a31d09258b0029ea7fe63d032f52e44efe600360007398e329eb5aae2125af273102f3440de19094b77c6001600160a01b03166001600160a01b0316815260200190815260200160002060006101000a8154816001600160a01b0302191690836001600160a01b0316021790555073956f47f50a910163d8bf957cf5846d573e7f87ca60036000738c3b7a4320ba70f8239f83770c4015b5bc4e6f916001600160a01b03166001600160a01b0316815260200190815260200160002060006101000a8154816001600160a01b0302191690836001600160a01b03160217905550734691937a7508860f876c9c0a2a617e7d9e945d4b6003600073e585c76573d7593abf21537b607091f76c996e736001600160a01b03166001600160a01b0316815260200190815260200160002060006101000a8154816001600160a01b0302191690836001600160a01b03160217905550731f573d6fb3f13d689ff844b4ce37794d79a7ff1c600360007381e346729723c4d15d0fb1c5679b9f2926ff13c66001600160a01b03166001600160a01b0316815260200190815260200160002060006101000a8154816001600160a01b0302191690836001600160a01b0316021790555073c581b735a1688071a1746c968e0798d642ede4916003600073c581b735a1688071a1746c968e0798d642ede4916001600160a01b03166001600160a01b0316815260200190815260200160002060006101000a8154816001600160a01b0302191690836001600160a01b03160217905550738e870d67f660d95d5be530380d0ec0bd388289e16003600073d7394428536f63d5659cc869ef69d10f9e66314b6001600160a01b03166001600160a01b0316815260200190815260200160002060006101000a8154816001600160a01b0302191690836001600160a01b031602179055507345804880de22913dafe09f4980848ece6ecbaf7860036000731241b10e7ea55b22f5b2d007e8fecdf73dcff9996001600160a01b03166001600160a01b0316815260200190815260200160002060006101000a8154816001600160a01b0302191690836001600160a01b03160217905550739be89d2a4cd102d8fecc6bf9da793be995c2254160036000732a867fd776b83e1bd4e13c6611afd2f6af07ea6d6001600160a01b03166001600160a01b0316815260200190815260200160002060006101000a8154816001600160a01b0302191690836001600160a01b031602179055506e095413afc295d19edeb1ad7b71c9526003600073250fb308199fe8c5220509c1bf83d21d60b7f74a6001600160a01b03166001600160a01b0316815260200190815260200160002060006101000a8154816001600160a01b0302191690836001600160a01b031602179055507325f8087ead173b73d6e8b84329989a8eea16cf7360036000734112a717edd051f77d834a6703a1ef5e3d73387f6001600160a01b03166001600160a01b0316815260200190815260200160002060006101000a8154816001600160a01b0302191690836001600160a01b0316021790555073bb0e17ef65f82ab018d8edd776e8dd940327b28b6003600073f04ce2e71d32d789a259428ddcd02d3c9f97fb4e6001600160a01b03166001600160a01b0316815260200190815260200160002060006101000a8154816001600160a01b0302191690836001600160a01b03160217905550733845badade8e6dff049820680d1f14bd3903a5d0600360007389e42987c39f72e2ead95a8a5bc92114323d58286001600160a01b03166001600160a01b0316815260200190815260200160002060006101000a8154816001600160a01b0302191690836001600160a01b03160217905550730f5d2fb29fb7d3cfee444a200298f468908cc942600360007358da9c9fc3eb30abbcbbab5ddabb1e6e2ef3d2ef6001600160a01b03166001600160a01b0316815260200190815260200160002060006101000a8154816001600160a01b0302191690836001600160a01b031602179055506001600460007357ab1ec28d129707052df4df418d58a2d46d5f516001600160a01b03166001600160a01b0316815260200190815260200160002060006101000a81548160ff02191690831515021790555060016004600073d2df355c19471c8bd7d8a3aa27ff4e26a21b40766001600160a01b03166001600160a01b0316815260200190815260200160002060006101000a81548160ff02191690831515021790555060016004600073e36e2d3c7c34281fa3bc737950a68571736880a16001600160a01b03166001600160a01b0316815260200190815260200160002060006101000a81548160ff02191690831515021790555060016004600073f48e200eaf9906362bb1442fca31e0835773b8b46001600160a01b03166001600160a01b0316815260200190815260200160002060006101000a81548160ff02191690831515021790555060016004600073fe18be6b3bd88a2d2a7f928d00292e7a9963cfc66001600160a01b03166001600160a01b0316815260200190815260200160002060006101000a81548160ff021916908315150217905550600160046000730f83287ff768d1c1e17a42f44d644d7f22e8ee1d6001600160a01b03166001600160a01b0316815260200190815260200160002060006101000a81548160ff02191690831515021790555060016004600073d38aeb759891882e78e957c80656572503d8c1b16001600160a01b03166001600160a01b0316815260200190815260200160002060006101000a81548160ff02191690831515021790555060016004600073fe33ae95a9f0da8a845af33516edc240dcd711d66001600160a01b03166001600160a01b0316815260200190815260200160002060006101000a81548160ff021916908315150217905550600160046000731715ac0743102bf5cd58efbb6cf2dc2685d967b66001600160a01b03166001600160a01b0316815260200190815260200160002060006101000a81548160ff021916908315150217905550600160046000735e74c9036fb86bd7ecdcb084a0673efc32ea31cb6001600160a01b03166001600160a01b0316815260200190815260200160002060006101000a81548160ff02191690831515021790555060016004600073104edf1da359506548bfc7c25ba1e28c16a702356001600160a01b03166001600160a01b0316815260200190815260200160002060006101000a81548160ff02191690831515021790555060016004600073d71ecff9342a5ced620049e616c5035f1db986206001600160a01b03166001600160a01b0316815260200190815260200160002060006101000a81548160ff0219169083151502179055506001600460007397fe22e7341a0cd8db6f6c021a24dc8f4dad855f6001600160a01b03166001600160a01b0316815260200190815260200160002060006101000a81548160ff02191690831515021790555060016004600073f6b1c627e95bfc3c1b4c9b825a032ff0fbf3e07d6001600160a01b03166001600160a01b0316815260200190815260200160002060006101000a81548160ff02191690831515021790555060016004600073269895a3df4d73b077fc823dd6da1b95f72aaf9b6001600160a01b03166001600160a01b0316815260200190815260200160002060006101000a81548160ff02191690831515021790555060016004600073bbc455cb4f1b9e4bfc4b73970d360c8f032efee66001600160a01b03166001600160a01b0316815260200190815260200160002060006101000a81548160ff02191690831515021790555060016005600073c5bddf9843308380375a611c18b50fb9341f502a6001600160a01b03166001600160a01b0316815260200190815260200160002060006101000a81548160ff021916908315150217905550600160056000739d409a0a012cfba9b15f6d4b36ac57a46966ab9a6001600160a01b03166001600160a01b0316815260200190815260200160002060006101000a81548160ff02191690831515021790555060016005600073db25ca703181e7484a155dd612b06f57e12be5f06001600160a01b03166001600160a01b0316815260200190815260200160002060006101000a81548160ff02191690831515021790555060016005600073f29ae508698bdef169b89834f76704c3b205aedf6001600160a01b03166001600160a01b0316815260200190815260200160002060006101000a81548160ff02191690831515021790555060016005600073873fb544277fd7b977b196a826459a69e27ea4ea6001600160a01b03166001600160a01b0316815260200190815260200160002060006101000a81548160ff02191690831515021790555060016005600073671a912c10bba0cfa74cfc2d6fba9ba1ed9530b26001600160a01b03166001600160a01b0316815260200190815260200160002060006101000a81548160ff02191690831515021790555060016005600073a5ca62d95d24a4a350983d5b8ac4eb86388873966001600160a01b03166001600160a01b0316815260200190815260200160002060006101000a81548160ff02191690831515021790555060016005600073b8c3b7a2a618c552c23b1e4701109a9e756bab676001600160a01b03166001600160a01b0316815260200190815260200160002060006101000a81548160ff02191690831515021790555060016005600073a258c4606ca8206d8aa700ce2143d7db854d168c6001600160a01b03166001600160a01b0316815260200190815260200160002060006101000a81548160ff021916908315150217905550600160056000735f18c75abdae578b483e5f43f12a39cf75b973a96001600160a01b03166001600160a01b0316815260200190815260200160002060006101000a81548160ff02191690831515021790555060016005600073da816459f1ab5631232fe5e97a05bbbb94970c956001600160a01b03166001600160a01b0316815260200190815260200160002060006101000a81548160ff02191690831515021790555060016005600073a696a63cc78dffa1a63e9e50587c197387ff6c7e6001600160a01b03166001600160a01b0316815260200190815260200160002060006101000a81548160ff021916908315150217905550600160056000737da96a3891add058ada2e826306d812c638d87a76001600160a01b03166001600160a01b0316815260200190815260200160002060006101000a81548160ff02191690831515021790555060016005600073fbeb78a723b8087fd2ea7ef1afec93d35e8bed426001600160a01b03166001600160a01b0316815260200190815260200160002060006101000a81548160ff02191690831515021790555060016005600073d9788f3931ede4d5018184e198699dc6d66c19156001600160a01b03166001600160a01b0316815260200190815260200160002060006101000a81548160ff021916908315150217905550600160056000734a3fe75762017db0ed73a71c9a06db7768db5e666001600160a01b03166001600160a01b0316815260200190815260200160002060006101000a81548160ff021916908315150217905550600160056000736d765cbe5bc922694afe112c140b8878b9fb03906001600160a01b03166001600160a01b0316815260200190815260200160002060006101000a81548160ff02191690831515021790555060016005600073fd0877d9095789caf24c98f7cce092fa8e1207756001600160a01b03166001600160a01b0316815260200190815260200160002060006101000a81548160ff02191690831515021790555060016005600073e537b5cc158eb71037d4125bdd7538421981e6aa6001600160a01b03166001600160a01b0316815260200190815260200160002060006101000a81548160ff021916908315150217905550600160056000736fafca7f49b4fd9dc38117469cd31a1e5aec91f56001600160a01b03166001600160a01b0316815260200190815260200160002060006101000a81548160ff02191690831515021790555060016005600073718abe90777f5b778b52d553a5abaa148dd0dc5d6001600160a01b03166001600160a01b0316815260200190815260200160002060006101000a81548160ff021916908315150217905550600160056000738b9c0c24307344b6d7941ab654b2aeee253474736001600160a01b03166001600160a01b0316815260200190815260200160002060006101000a81548160ff02191690831515021790555060016005600073d8c620991b8e626c099eaab29b1e3eea279763bb6001600160a01b03166001600160a01b0316815260200190815260200160002060006101000a81548160ff021916908315150217905550600160056000730d4ea8536f9a13e4fba16042a46c30f092b06aa56001600160a01b03166001600160a01b0316815260200190815260200160002060006101000a81548160ff021916908315150217905550600160056000732dfb14e32e2f8156ec15a2c21c3a6c053af52be86001600160a01b03166001600160a01b0316815260200190815260200160002060006101000a81548160ff021916908315150217905550600160056000734560b99c904aad03027b5178cca81584744ac01f6001600160a01b03166001600160a01b0316815260200190815260200160002060006101000a81548160ff0219169083151502179055506001600560007367e019bfbd5a67207755d04467d6a70c0b75bf606001600160a01b03166001600160a01b0316815260200190815260200160002060006101000a81548160ff02191690831515021790555060016005600073528d50dc9a333f01544177a924893fa1f5b9f7486001600160a01b03166001600160a01b0316815260200190815260200160002060006101000a81548160ff02191690831515021790555060016005600073595a68a8c9d5c230001848b69b1947ee2a6071646001600160a01b03166001600160a01b0316815260200190815260200160002060006101000a81548160ff021916908315150217905550600160056000731b905331f7de2748f4d6a0678e1521e20347643f6001600160a01b03166001600160a01b0316815260200190815260200160002060006101000a81548160ff02191690831515021790555060016005600073490bd0886f221a5f79713d3e84404355a9293c506001600160a01b03166001600160a01b0316815260200190815260200160002060006101000a81548160ff0219169083151502179055506001600560007359518884eebfb03e90a18adbaaab770d4666471e6001600160a01b03166001600160a01b0316815260200190815260200160002060006101000a81548160ff021916908315150217905550600160056000738cc94ccd0f3841a468184aca3cc478d2148e17576001600160a01b03166001600160a01b0316815260200190815260200160002060006101000a81548160ff02191690831515021790555060016005600073625b7df2fa8abe21b0a976736cda4775523aed1e6001600160a01b03166001600160a01b0316815260200190815260200160002060006101000a81548160ff021916908315150217905550600160056000733d27705c64213a5dcd9d26880c1bcfa72d5b6b0e6001600160a01b03166001600160a01b0316815260200190815260200160002060006101000a81548160ff0219169083151502179055506001600560007380bbee2fa460da291e796b9045e93d19ef948c6a6001600160a01b03166001600160a01b0316815260200190815260200160002060006101000a81548160ff02191690831515021790555060016005600073c116df49c02c5fd147de25baa105322ebf26bd976001600160a01b03166001600160a01b0316815260200190815260200160002060006101000a81548160ff0219169083151502179055506001600560007328a5b95c101df3ded0c0d9074db80c438774b6a96001600160a01b03166001600160a01b0316815260200190815260200160002060006101000a81548160ff021916908315150217905550600160056000733d980e50508cfd41a13837a60149927a11c037316001600160a01b03166001600160a01b0316815260200190815260200160002060006101000a81548160ff0219169083151502179055506001600560007325212df29073fffa7a67399acefc2dd75a831a1a6001600160a01b03166001600160a01b0316815260200190815260200160002060006101000a81548160ff021916908315150217905550600160056000735a770dbd3ee6baf2802d29a901ef11501c44797a6001600160a01b03166001600160a01b0316815260200190815260200160002060006101000a81548160ff0219169083151502179055506001600560007339caf13a104ff567f71fd2a4c68c026fdb6e740b6001600160a01b03166001600160a01b0316815260200190815260200160002060006101000a81548160ff02191690831515021790555060016005600073054af22e1519b020516d72d749221c24756385c96001600160a01b03166001600160a01b0316815260200190815260200160002060006101000a81548160ff021916908315150217905550600160056000733b96d491f067912d18563d56858ba7d6ec67a6fa6001600160a01b03166001600160a01b0316815260200190815260200160002060006101000a81548160ff02191690831515021790555060016005600073bfedbcbe27171c418cdabc2477042554b19048576001600160a01b03166001600160a01b0316815260200190815260200160002060006101000a81548160ff02191690831515021790555060016005600073132d8d2c76db3812403431facb00f3453fc421256001600160a01b03166001600160a01b0316815260200190815260200160002060006101000a81548160ff02191690831515021790555060016005600073f2db9a7c0acd427a680d640f02d90f6186e717256001600160a01b03166001600160a01b0316815260200190815260200160002060006101000a81548160ff02191690831515021790555060016005600073a74d4b67b3368e83797a35382afb776baae4f5c86001600160a01b03166001600160a01b0316815260200190815260200160002060006101000a81548160ff02191690831515021790555060016005600073c4daf3b5e2a9e93861c3fbdd25f1e943b8d874176001600160a01b03166001600160a01b0316815260200190815260200160002060006101000a81548160ff021916908315150217905550600160056000731c6a9783f812b3af3abbf7de64c3cd7cc7d1af446001600160a01b03166001600160a01b0316815260200190815260200160002060006101000a81548160ff0219169083151502179055506001600560007330fcf7c6cdfc46ec237783d94fc78553e79d4e9c6001600160a01b03166001600160a01b0316815260200190815260200160002060006101000a81548160ff02191690831515021790555060016005600073f8768814b88281de4f532a3beefa5b85b69b93246001600160a01b03166001600160a01b0316815260200190815260200160002060006101000a81548160ff021916908315150217905550600160056000734b5bfd52124784745c1071dcb244c6688d2533d36001600160a01b03166001600160a01b0316815260200190815260200160002060006101000a81548160ff0219169083151502179055506001600560007384e13785b5a27879921d6f685f041421c7f482da6001600160a01b03166001600160a01b0316815260200190815260200160002060006101000a81548160ff021916908315150217905550600160056000732a38b9b0201ca39b17b460ed2f11e4929559071e6001600160a01b03166001600160a01b0316815260200190815260200160002060006101000a81548160ff0219169083151502179055506001600560007327b7b1ad7288079a66d12350c828d3c00a6f07d76001600160a01b03166001600160a01b0316815260200190815260200160002060006101000a81548160ff02191690831515021790555060016005600073986b4aff588a109c09b50a03f42e4110e29d353f6001600160a01b03166001600160a01b0316815260200190815260200160002060006101000a81548160ff02191690831515021790555060016005600073dcd90c7f6324cfa40d7169ef80b12031770b43256001600160a01b03166001600160a01b0316815260200190815260200160002060006101000a81548160ff021916908315150217905550600160056000738414db07a7f743debafb402070ab01a4e0d2e45e6001600160a01b03166001600160a01b0316815260200190815260200160002060006101000a81548160ff021916908315150217905550600160056000737047f90229a057c13bf847c0744d646cfb6c9e1a6001600160a01b03166001600160a01b0316815260200190815260200160002060006101000a81548160ff02191690831515021790555060016005600073e9dc63083c464d6edccff23444ff3cfc6886f6fb6001600160a01b03166001600160a01b0316815260200190815260200160002060006101000a81548160ff021916908315150217905550600160056000733c5df3077bcf800640b5dae8c91106575a4826e66001600160a01b03166001600160a01b0316815260200190815260200160002060006101000a81548160ff0219169083151502179055506001600560007323d3d0f1c697247d5e0a9efb37d8b0ed0c464f7f6001600160a01b03166001600160a01b0316815260200190815260200160002060006101000a81548160ff02191690831515021790555060016005600073b4ada607b9d6b2c9ee07a275e9616b84ac5601396001600160a01b03166001600160a01b0316815260200190815260200160002060006101000a81548160ff021916908315150217905550600160056000735fa5b62c8af877cb37031e0a3b2f34a78e3c56a66001600160a01b03166001600160a01b0316815260200190815260200160002060006101000a81548160ff02191690831515021790555060016005600073b4d1be44bff40ad6e506edf43156577a3f8672ec6001600160a01b03166001600160a01b0316815260200190815260200160002060006101000a81548160ff021916908315150217905550600160056000738fa3a9ecd9efb07a8ce90a6eb014cf3c0e3b32ef6001600160a01b03166001600160a01b0316815260200190815260200160002060006101000a81548160ff021916908315150217905550600160056000736ede7f19df5df6ef23bd5b9cedb651580bdf56ca6001600160a01b03166001600160a01b0316815260200190815260200160002060006101000a81548160ff021916908315150217905550600160056000732994529c0652d127b7842094103715ec5299bbed6001600160a01b03166001600160a01b0316815260200190815260200160002060006101000a81548160ff02191690831515021790555060016005600073d6ea40597be05c201845c0bfd2e96a60bacde2676001600160a01b03166001600160a01b0316815260200190815260200160002060006101000a81548160ff02191690831515021790555060016006600073705b3acaf102404cfdd5e4a60535e4e70091273c6001600160a01b03166001600160a01b0316815260200190815260200160002060006101000a81548160ff02191690831515021790555060016006600073f6eeca73646ea6a5c878814e6508e87facc7927c6001600160a01b03166001600160a01b0316815260200190815260200160002060006101000a81548160ff02191690831515021790555060016006600073c86b1e7fa86834cac1468937cdd53ba3ccbc11536001600160a01b03166001600160a01b0316815260200190815260200160002060006101000a81548160ff0219169083151502179055505061150380615c9b6000396000f3fe608060405234801561001057600080fd5b50600436106100ea5760003560e01c80639fb530501161008c578063e166fa9011610066578063e166fa9014610645578063e21ead9b146106b2578063e29e14ea146106d8578063f77c4791146106fe576100ea565b80639fb5305014610537578063a622ee7c1461055d578063e121f37014610583576100ea565b80637031932a116100c85780637031932a1461033757806371f0706b146103f9578063780c2067146104bb5780639f087dd6146104fd576100ea565b80630d4cfeb6146100ef578063520874ed146101b35780635bda818b14610275575b600080fd5b6101b16004803603604081101561010557600080fd5b81019060208101813564010000000081111561012057600080fd5b82018360208201111561013257600080fd5b8035906020019184602083028401116401000000008311171561015457600080fd5b91939092909160208101903564010000000081111561017257600080fd5b82018360208201111561018457600080fd5b803590602001918460208302840111640100000000831117156101a657600080fd5b509092509050610706565b005b6101b1600480360360408110156101c957600080fd5b8101906020810181356401000000008111156101e457600080fd5b8201836020820111156101f657600080fd5b8035906020019184602083028401116401000000008311171561021857600080fd5b91939092909160208101903564010000000081111561023657600080fd5b82018360208201111561024857600080fd5b8035906020019184602083028401116401000000008311171561026a57600080fd5b5090925090506107ac565b6101b16004803603604081101561028b57600080fd5b8101906020810181356401000000008111156102a657600080fd5b8201836020820111156102b857600080fd5b803590602001918460208302840111640100000000831117156102da57600080fd5b9193909290916020810190356401000000008111156102f857600080fd5b82018360208201111561030a57600080fd5b8035906020019184602083028401116401000000008311171561032c57600080fd5b50909250905061084b565b6101b16004803603604081101561034d57600080fd5b81019060208101813564010000000081111561036857600080fd5b82018360208201111561037a57600080fd5b8035906020019184602083028401116401000000008311171561039c57600080fd5b9193909290916020810190356401000000008111156103ba57600080fd5b8201836020820111156103cc57600080fd5b803590602001918460208302840111640100000000831117156103ee57600080fd5b5090925090506108c9565b6101b16004803603604081101561040f57600080fd5b81019060208101813564010000000081111561042a57600080fd5b82018360208201111561043c57600080fd5b8035906020019184602083028401116401000000008311171561045e57600080fd5b91939092909160208101903564010000000081111561047c57600080fd5b82018360208201111561048e57600080fd5b803590602001918460208302840111640100000000831117156104b057600080fd5b509092509050610968565b6104e1600480360360208110156104d157600080fd5b50356001600160a01b03166109e6565b604080516001600160a01b039092168252519081900360200190f35b6105236004803603602081101561051357600080fd5b50356001600160a01b0316610a01565b604080519115158252519081900360200190f35b6104e16004803603602081101561054d57600080fd5b50356001600160a01b0316610a16565b6105236004803603602081101561057357600080fd5b50356001600160a01b0316610a31565b6101b16004803603604081101561059957600080fd5b8101906020810181356401000000008111156105b457600080fd5b8201836020820111156105c657600080fd5b803590602001918460208302840111640100000000831117156105e857600080fd5b91939092909160208101903564010000000081111561060657600080fd5b82018360208201111561061857600080fd5b8035906020019184602083028401116401000000008311171561063a57600080fd5b509092509050610a46565b61067d6004803603606081101561065b57600080fd5b506001600160a01b038135811691602081013582169160409091013516610ac4565b6040805160ff95861681529390941660208401526001600160a01b039182168385015216606082015290519081900360800190f35b6104e1600480360360208110156106c857600080fd5b50356001600160a01b0316611325565b610523600480360360208110156106ee57600080fd5b50356001600160a01b0316611340565b6104e1611355565b60005461071b906001600160a01b0316611364565b60005b838110156107a55782828281811061073257fe5b905060200201356001600160a01b03166002600087878581811061075257fe5b6001600160a01b036020918202939093013583168452830193909352604090910160002080549390911673ffffffffffffffffffffffffffffffffffffffff19909316929092179091555060010161071e565b5050505050565b6000546107c1906001600160a01b0316611364565b60005b838110156107a5578282828181106107d857fe5b905060200201356001600160a01b0316600160008787858181106107f857fe5b6001600160a01b036020918202939093013583168452830193909352604090910160002080549390911673ffffffffffffffffffffffffffffffffffffffff1990931692909217909155506001016107c4565b600054610860906001600160a01b0316611364565b60005b838110156107a55782828281811061087757fe5b9050602002013515156004600087878581811061089057fe5b602090810292909201356001600160a01b0316835250810191909152604001600020805460ff1916911515919091179055600101610863565b6000546108de906001600160a01b0316611364565b60005b838110156107a5578282828181106108f557fe5b905060200201356001600160a01b03166003600087878581811061091557fe5b6001600160a01b036020918202939093013583168452830193909352604090910160002080549390911673ffffffffffffffffffffffffffffffffffffffff1990931692909217909155506001016108e1565b60005461097d906001600160a01b0316611364565b60005b838110156107a55782828281811061099457fe5b905060200201351515600560008787858181106109ad57fe5b602090810292909201356001600160a01b0316835250810191909152604001600020805460ff1916911515919091179055600101610980565b6003602052600090815260409020546001600160a01b031681565b60046020526000908152604090205460ff1681565b6001602052600090815260409020546001600160a01b031681565b60056020526000908152604090205460ff1681565b600054610a5b906001600160a01b0316611364565b60005b838110156107a557828282818110610a7257fe5b90506020020135151560066000878785818110610a8b57fe5b602090810292909201356001600160a01b0316835250810191909152604001600020805460ff1916911515919091179055600101610a5e565b6001600160a01b03838116600090815260016020526040812054909182918291829182918291829182911615610b18576001600160a01b03808c166000908152600160208190526040909120549095501691505b6001600160a01b038a81166000908152600160205260409020541615610b5b57506001600160a01b03808a16600090815260016020819052604090912054909350165b6001600160a01b038b81166000908152600260205260409020541615610b9f576001600160a01b03808c166000908152600260208190526040909120549095501691505b6001600160a01b038a81166000908152600260205260409020541615610be257506001600160a01b03808a16600090815260026020819052604090912054909350165b6001600160a01b038b81166000908152600360205260409020541615610c26576001600160a01b03808c166000908152600360208190526040909120549095501691505b6001600160a01b038a81166000908152600360205260409020541615610c6957506001600160a01b03808a16600090815260036020819052604090912054909350165b6001600160a01b038b1660009081526004602052604090205460ff1615610c8f57600493505b6001600160a01b038a1660009081526004602052604090205460ff1615610cb557600492505b6001600160a01b038b1660009081526006602052604090205460ff1615610cdb57600c93505b6001600160a01b038a1660009081526006602052604090205460ff1615610d0157600c92505b60008460ff16118015610d17575060008360ff16115b15610d2b579296509094509250905061131c565b60ff8416610dc6576000896001600160a01b03166324a592338d6040518263ffffffff1660e01b815260040180826001600160a01b0316815260200191505060206040518083038186803b158015610d8257600080fd5b505afa158015610d96573d6000803e3d6000fd5b505050506040513d6020811015610dac57600080fd5b505190506001600160a01b03811615610dc457600594505b505b60ff8316610e61576000896001600160a01b03166324a592338c6040518263ffffffff1660e01b815260040180826001600160a01b0316815260200191505060206040518083038186803b158015610e1d57600080fd5b505afa158015610e31573d6000803e3d6000fd5b505050506040513d6020811015610e4757600080fd5b505190506001600160a01b03811615610e5f57600593505b505b6001600160a01b038b1660009081526005602052604090205460ff1615610e8757600693505b6001600160a01b038a1660009081526005602052604090205460ff1615610ead57600692505b6001600160a01b038b1673ae7ab96520de3a18e5e111b5eaab095312d7fe841480610ef457506001600160a01b038b16737f39c581f595b53c5cb19bd0b3f8da6c935e2ca0145b15610efe57600793505b6001600160a01b038a1673ae7ab96520de3a18e5e111b5eaab095312d7fe841480610f4557506001600160a01b038a16737f39c581f595b53c5cb19bd0b3f8da6c935e2ca0145b15610f4f57600792505b60008460ff16118015610f65575060008360ff16115b15610f79579296509094509250905061131c565b60ff84166111455760008b6001600160a01b03166395d89b416040518163ffffffff1660e01b815260040160006040518083038186803b158015610fbc57600080fd5b505afa158015610fd0573d6000803e3d6000fd5b505050506040513d6000823e601f3d908101601f191682016040526020811015610ff957600080fd5b810190808051604051939291908464010000000082111561101957600080fd5b90830190602082018581111561102e57600080fd5b825164010000000081118282018810171561104857600080fd5b82525081516020918201929091019080838360005b8381101561107557818101518382015260200161105d565b50505050905090810190601f1680156110a25780820380516001836020036101000a031916815260200191505b506040818101905260038152620534c560ec1b6020918201528451908501209394505050507fe0136b3661826a483734248681e4f59ae66bc6065ceb43fdd469ecb22c21d74514156110f357600894505b6040805180820190915260068152652aa72496ab1960d11b6020918201528151908201207f0c49a525f6758cfb27d0ada1467d2a2e99733995423d47ae30ae4ba2ba563255141561114357600994505b505b60ff83166113115760008a6001600160a01b03166395d89b416040518163ffffffff1660e01b815260040160006040518083038186803b15801561118857600080fd5b505afa15801561119c573d6000803e3d6000fd5b505050506040513d6000823e601f3d908101601f1916820160405260208110156111c557600080fd5b81019080805160405193929190846401000000008211156111e557600080fd5b9083019060208201858111156111fa57600080fd5b825164010000000081118282018810171561121457600080fd5b82525081516020918201929091019080838360005b83811015611241578181015183820152602001611229565b50505050905090810190601f16801561126e5780820380516001836020036101000a031916815260200191505b506040818101905260038152620534c560ec1b6020918201528451908501209394505050507fe0136b3661826a483734248681e4f59ae66bc6065ceb43fdd469ecb22c21d74514156112bf57600893505b6040805180820190915260068152652aa72496ab1960d11b6020918201528151908201207f0c49a525f6758cfb27d0ada1467d2a2e99733995423d47ae30ae4ba2ba563255141561130f57600993505b505b929650909450925090505b93509350935093565b6002602052600090815260409020546001600160a01b031681565b60066020526000908152604090205460ff1681565b6000546001600160a01b031681565b806001600160a01b0316638da5cb5b6040518163ffffffff1660e01b815260040160206040518083038186803b15801561139d57600080fd5b505afa1580156113b1573d6000803e3d6000fd5b505050506040513d60208110156113c757600080fd5b50516001600160a01b031633148061144b5750806001600160a01b0316638d97e0436040518163ffffffff1660e01b815260040160206040518083038186803b15801561141357600080fd5b505afa158015611427573d6000803e3d6000fd5b505050506040513d602081101561143d57600080fd5b50516001600160a01b031633145b6114a0576040517f08c379a000000000000000000000000000000000000000000000000000000000815260040180806020018281038252602a8152602001806114a4602a913960400191505060405180910390fd5b5056fe4f6e6c7920676f7665726e616e6365206f7220656d657267656e63792063616e2063616c6c2074686973a2646970667358221220cab158ba0c6f8b8a9a1ce08cd1527113166897ce931c958ae463a97a3222be6164736f6c63430007060033",
  "devdoc": {
    "author": "Babylon Finance Protocol Returns the type of the asset",
    "kind": "dev",
    "methods": {
      "identifyTokens(address,address,address)": {
        "params": {
          "_tokenIn": "Address of the first token",
          "_tokenOut": "Address of the second token"
        },
        "returns": {
          "_0": "(uint8,uint8)        Types of both tokens"
        }
      }
    },
    "title": "TokenIdentifier",
    "version": 1
  },
  "userdoc": {
    "kind": "user",
    "methods": {
      "identifyTokens(address,address,address)": {
        "notice": "Returns the types of the two tokens"
      }
    },
    "version": 1
  },
  "storageLayout": {
    "storage": [
      {
        "astId": 19512,
        "contract": "contracts/TokenIdentifier.sol:TokenIdentifier",
        "label": "controller",
        "offset": 0,
        "slot": "0",
        "type": "t_contract(IBabController)42099"
      },
      {
        "astId": 19516,
        "contract": "contracts/TokenIdentifier.sol:TokenIdentifier",
        "label": "cTokenToAsset",
        "offset": 0,
        "slot": "1",
        "type": "t_mapping(t_address,t_address)"
      },
      {
        "astId": 19520,
        "contract": "contracts/TokenIdentifier.sol:TokenIdentifier",
        "label": "aTokenToAsset",
        "offset": 0,
        "slot": "2",
        "type": "t_mapping(t_address,t_address)"
      },
      {
        "astId": 19524,
        "contract": "contracts/TokenIdentifier.sol:TokenIdentifier",
        "label": "crTokenToAsset",
        "offset": 0,
        "slot": "3",
        "type": "t_mapping(t_address,t_address)"
      },
      {
        "astId": 19528,
        "contract": "contracts/TokenIdentifier.sol:TokenIdentifier",
        "label": "synths",
        "offset": 0,
        "slot": "4",
        "type": "t_mapping(t_address,t_bool)"
      },
      {
        "astId": 19532,
        "contract": "contracts/TokenIdentifier.sol:TokenIdentifier",
        "label": "vaults",
        "offset": 0,
        "slot": "5",
        "type": "t_mapping(t_address,t_bool)"
      },
      {
        "astId": 19536,
        "contract": "contracts/TokenIdentifier.sol:TokenIdentifier",
        "label": "visors",
        "offset": 0,
        "slot": "6",
        "type": "t_mapping(t_address,t_bool)"
      }
    ],
    "types": {
      "t_address": {
        "encoding": "inplace",
        "label": "address",
        "numberOfBytes": "20"
      },
      "t_bool": {
        "encoding": "inplace",
        "label": "bool",
        "numberOfBytes": "1"
      },
      "t_contract(IBabController)42099": {
        "encoding": "inplace",
        "label": "contract IBabController",
        "numberOfBytes": "20"
      },
      "t_mapping(t_address,t_address)": {
        "encoding": "mapping",
        "key": "t_address",
        "label": "mapping(address => address)",
        "numberOfBytes": "32",
        "value": "t_address"
      },
      "t_mapping(t_address,t_bool)": {
        "encoding": "mapping",
        "key": "t_address",
        "label": "mapping(address => bool)",
        "numberOfBytes": "32",
        "value": "t_bool"
      }
    }
  }
}