{
  "address": "0xEaBF7dcbc3069cAe0a250a3FAEf217ae8e689454",
  "abi": [
    {
      "inputs": [
        {
          "internalType": "contract IBabController",
          "name": "_controller",
          "type": "address"
        }
      ],
      "stateMutability": "nonpayable",
      "type": "constructor"
    },
    {
      "anonymous": false,
      "inputs": [
        {
          "indexed": true,
          "internalType": "address",
          "name": "previousOwner",
          "type": "address"
        },
        {
          "indexed": true,
          "internalType": "address",
          "name": "newOwner",
          "type": "address"
        }
      ],
      "name": "OwnershipTransferred",
      "type": "event"
    },
    {
      "anonymous": false,
      "inputs": [
        {
          "indexed": false,
          "internalType": "address",
          "name": "_asset",
          "type": "address"
        },
        {
          "indexed": false,
          "internalType": "uint256",
          "name": "_amount",
          "type": "uint256"
        },
        {
          "indexed": false,
          "internalType": "address",
          "name": "_to",
          "type": "address"
        }
      ],
      "name": "TreasuryFundsSent",
      "type": "event"
    },
    {
      "inputs": [],
      "name": "controller",
      "outputs": [
        {
          "internalType": "contract IBabController",
          "name": "",
          "type": "address"
        }
      ],
      "stateMutability": "view",
      "type": "function"
    },
    {
      "inputs": [],
      "name": "owner",
      "outputs": [
        {
          "internalType": "address",
          "name": "",
          "type": "address"
        }
      ],
      "stateMutability": "view",
      "type": "function"
    },
    {
      "inputs": [],
      "name": "renounceOwnership",
      "outputs": [],
      "stateMutability": "nonpayable",
      "type": "function"
    },
    {
      "inputs": [
        {
          "internalType": "uint256",
          "name": "_amount",
          "type": "uint256"
        },
        {
          "internalType": "address payable",
          "name": "_to",
          "type": "address"
        }
      ],
      "name": "sendTreasuryETH",
      "outputs": [],
      "stateMutability": "nonpayable",
      "type": "function"
    },
    {
      "inputs": [
        {
          "internalType": "address",
          "name": "_asset",
          "type": "address"
        },
        {
          "internalType": "uint256",
          "name": "_amount",
          "type": "uint256"
        },
        {
          "internalType": "address",
          "name": "_to",
          "type": "address"
        }
      ],
      "name": "sendTreasuryFunds",
      "outputs": [],
      "stateMutability": "nonpayable",
      "type": "function"
    },
    {
      "inputs": [
        {
          "internalType": "address",
          "name": "newOwner",
          "type": "address"
        }
      ],
      "name": "transferOwnership",
      "outputs": [],
      "stateMutability": "nonpayable",
      "type": "function"
    },
    {
      "stateMutability": "payable",
      "type": "receive"
    }
  ],
  "transactionHash": "0xd1e88ec7290b2904e0b34e866538379cc8d8c95a3f8986b3dd746640727baaca",
  "args": [
    "0xD4a5b5fcB561dAF3aDF86F8477555B92FBa43b5F"
  ],
  "solcInputHash": "bd873b418320faeabd457a4fe7c7c19d",
  "bytecode": "0x608060405234801561001057600080fd5b50604051610da7380380610da78339818101604052602081101561003357600080fd5b5051600061003f61010d565b600080546001600160a01b0319166001600160a01b0383169081178255604051929350917f8be0079c531659141344cd1fd0a4f28419497f9722a3daafe3b4186f6b6457e0908290a350600180556001600160a01b0381166100e8576040805162461bcd60e51b815260206004820152601560248201527f436f6e74726f6c6c6572206d7573742065786973740000000000000000000000604482015290519081900360640190fd5b600280546001600160a01b0319166001600160a01b0392909216919091179055610111565b3390565b610c87806101206000396000f3fe6080604052600436106100695760003560e01c8063af2bfe5f11610043578063af2bfe5f146100f6578063f2fde38b14610139578063f77c47911461016c57610070565b80632f0fd4c714610075578063715018a6146100b05780638da5cb5b146100c557610070565b3661007057005b600080fd5b34801561008157600080fd5b506100ae6004803603604081101561009857600080fd5b50803590602001356001600160a01b0316610181565b005b3480156100bc57600080fd5b506100ae61035d565b3480156100d157600080fd5b506100da610428565b604080516001600160a01b039092168252519081900360200190f35b34801561010257600080fd5b506100ae6004803603606081101561011957600080fd5b506001600160a01b03813581169160208101359160409091013516610437565b34801561014557600080fd5b506100ae6004803603602081101561015c57600080fd5b50356001600160a01b0316610626565b34801561017857600080fd5b506100da610747565b610189610756565b6001600160a01b031661019a610428565b6001600160a01b0316146101f5576040805162461bcd60e51b815260206004820181905260248201527f4f776e61626c653a2063616c6c6572206973206e6f7420746865206f776e6572604482015290519081900360640190fd5b6002600154141561024d576040805162461bcd60e51b815260206004820152601f60248201527f5265656e7472616e637947756172643a207265656e7472616e742063616c6c00604482015290519081900360640190fd5b60026001556001600160a01b0381166102ad576040805162461bcd60e51b815260206004820152601960248201527f5461726765742061646472657373206d75737420657869737400000000000000604482015290519081900360640190fd5b81471015610302576040805162461bcd60e51b815260206004820152601c60248201527f4e6f7420656e6f7567682066756e647320696e20747265617375727900000000604482015290519081900360640190fd5b61030c818361075a565b6040805160008152602081018490526001600160a01b0383168183015290517ff2d6edacca58c9bf829859afa33a724a6e5cd7b8e9f2bb729b5e90e0f274affc9181900360600190a1505060018055565b610365610756565b6001600160a01b0316610376610428565b6001600160a01b0316146103d1576040805162461bcd60e51b815260206004820181905260248201527f4f776e61626c653a2063616c6c6572206973206e6f7420746865206f776e6572604482015290519081900360640190fd5b600080546040516001600160a01b03909116907f8be0079c531659141344cd1fd0a4f28419497f9722a3daafe3b4186f6b6457e0908390a36000805473ffffffffffffffffffffffffffffffffffffffff19169055565b6000546001600160a01b031690565b61043f610756565b6001600160a01b0316610450610428565b6001600160a01b0316146104ab576040805162461bcd60e51b815260206004820181905260248201527f4f776e61626c653a2063616c6c6572206973206e6f7420746865206f776e6572604482015290519081900360640190fd5b60026001541415610503576040805162461bcd60e51b815260206004820152601f60248201527f5265656e7472616e637947756172643a207265656e7472616e742063616c6c00604482015290519081900360640190fd5b60026001556001600160a01b038316610563576040805162461bcd60e51b815260206004820152601060248201527f4173736574206d75737420657869737400000000000000000000000000000000604482015290519081900360640190fd5b6001600160a01b0381166105be576040805162461bcd60e51b815260206004820152601960248201527f5461726765742061646472657373206d75737420657869737400000000000000604482015290519081900360640190fd5b6105d36001600160a01b038416308385610844565b604080516001600160a01b0380861682526020820185905283168183015290517ff2d6edacca58c9bf829859afa33a724a6e5cd7b8e9f2bb729b5e90e0f274affc9181900360600190a150506001805550565b61062e610756565b6001600160a01b031661063f610428565b6001600160a01b03161461069a576040805162461bcd60e51b815260206004820181905260248201527f4f776e61626c653a2063616c6c6572206973206e6f7420746865206f776e6572604482015290519081900360640190fd5b6001600160a01b0381166106df5760405162461bcd60e51b8152600401808060200182810382526026815260200180610ba26026913960400191505060405180910390fd5b600080546040516001600160a01b03808516939216917f8be0079c531659141344cd1fd0a4f28419497f9722a3daafe3b4186f6b6457e091a36000805473ffffffffffffffffffffffffffffffffffffffff19166001600160a01b0392909216919091179055565b6002546001600160a01b031681565b3390565b804710156107af576040805162461bcd60e51b815260206004820152601d60248201527f416464726573733a20696e73756666696369656e742062616c616e6365000000604482015290519081900360640190fd5b6040516000906001600160a01b0384169083908381818185875af1925050503d80600081146107fa576040519150601f19603f3d011682016040523d82523d6000602084013e6107ff565b606091505b505090508061083f5760405162461bcd60e51b815260040180806020018281038252603a815260200180610bc8603a913960400191505060405180910390fd5b505050565b604080516001600160a01b0380861660248301528416604482015260648082018490528251808303909101815260849091019091526020810180517bffffffffffffffffffffffffffffffffffffffffffffffffffffffff167f23b872dd000000000000000000000000000000000000000000000000000000001790526108cc9085906108d2565b50505050565b6000610927826040518060400160405280602081526020017f5361666545524332303a206c6f772d6c6576656c2063616c6c206661696c6564815250856001600160a01b03166109839092919063ffffffff16565b80519091501561083f5780806020019051602081101561094657600080fd5b505161083f5760405162461bcd60e51b815260040180806020018281038252602a815260200180610c28602a913960400191505060405180910390fd5b6060610992848460008561099c565b90505b9392505050565b6060824710156109dd5760405162461bcd60e51b8152600401808060200182810382526026815260200180610c026026913960400191505060405180910390fd5b6109e685610af7565b610a37576040805162461bcd60e51b815260206004820152601d60248201527f416464726573733a2063616c6c20746f206e6f6e2d636f6e7472616374000000604482015290519081900360640190fd5b600080866001600160a01b031685876040518082805190602001908083835b60208310610a755780518252601f199092019160209182019101610a56565b6001836020036101000a03801982511681845116808217855250505050505090500191505060006040518083038185875af1925050503d8060008114610ad7576040519150601f19603f3d011682016040523d82523d6000602084013e610adc565b606091505b5091509150610aec828286610afd565b979650505050505050565b3b151590565b60608315610b0c575081610995565b825115610b1c5782518084602001fd5b8160405162461bcd60e51b81526004018080602001828103825283818151815260200191508051906020019080838360005b83811015610b66578181015183820152602001610b4e565b50505050905090810190601f168015610b935780820380516001836020036101000a031916815260200191505b509250505060405180910390fdfe4f776e61626c653a206e6577206f776e657220697320746865207a65726f2061646472657373416464726573733a20756e61626c6520746f2073656e642076616c75652c20726563697069656e74206d61792068617665207265766572746564416464726573733a20696e73756666696369656e742062616c616e636520666f722063616c6c5361666545524332303a204552433230206f7065726174696f6e20646964206e6f742073756363656564a2646970667358221220e9cf54cce3ef9dbcf90fa22262401e929df3b187cffa071539be9e52fa8e96ae64736f6c63430007060033",
  "devdoc": {
    "author": "Babylon Finance Contract that will receive the fees earned by the protocol. Governance will be able to send funds from the treasury.",
    "kind": "dev",
    "methods": {
      "constructor": {
        "params": {
          "_controller": "Address of controller contract"
        }
      },
      "owner()": {
        "details": "Returns the address of the current owner."
      },
      "renounceOwnership()": {
        "details": "Leaves the contract without owner. It will not be possible to call `onlyOwner` functions anymore. Can only be called by the current owner. NOTE: Renouncing ownership will leave the contract without an owner, thereby removing any functionality that is only available to the owner."
      },
      "sendTreasuryETH(uint256,address)": {
        "params": {
          "_amount": "Amount to send of the asset",
          "_to": "Address to send the assets to"
        }
      },
      "sendTreasuryFunds(address,uint256,address)": {
        "params": {
          "_amount": "Amount to send of the asset",
          "_asset": "Address of the asset to send",
          "_to": "Address to send the assets to"
        }
      },
      "transferOwnership(address)": {
        "details": "Transfers ownership of the contract to a new account (`newOwner`). Can only be called by the current owner."
      }
    },
    "title": "Treasury",
    "version": 1
  },
  "userdoc": {
    "kind": "user",
    "methods": {
      "constructor": {
        "notice": "Sets the protocol controller"
      },
      "sendTreasuryETH(uint256,address)": {
        "notice": "GOVERNANCE FUNCTION: Send an ETH amount to an address"
      },
      "sendTreasuryFunds(address,uint256,address)": {
        "notice": "GOVERNANCE FUNCTION: Send an asset amount to an address"
      }
    },
    "version": 1
  },
  "storageLayout": {
    "storage": [
      {
        "astId": 1456,
        "contract": "contracts/Treasury.sol:Treasury",
        "label": "_owner",
        "offset": 0,
        "slot": "0",
        "type": "t_address"
      },
      {
        "astId": 5603,
        "contract": "contracts/Treasury.sol:Treasury",
        "label": "_status",
        "offset": 0,
        "slot": "1",
        "type": "t_uint256"
      },
      {
        "astId": 12640,
        "contract": "contracts/Treasury.sol:Treasury",
        "label": "controller",
        "offset": 0,
        "slot": "2",
        "type": "t_contract(IBabController)22767"
      }
    ],
    "types": {
      "t_address": {
        "encoding": "inplace",
        "label": "address",
        "numberOfBytes": "20"
      },
      "t_contract(IBabController)22767": {
        "encoding": "inplace",
        "label": "contract IBabController",
        "numberOfBytes": "20"
      },
      "t_uint256": {
        "encoding": "inplace",
        "label": "uint256",
        "numberOfBytes": "32"
      }
    }
  }
}