{
  "address": "0xe6aE8D5201EF6d38ADc5f9Dc673e04D5521A11d9",
  "abi": [
    {
      "inputs": [
        {
          "internalType": "address",
          "name": "_controller",
          "type": "address"
        },
        {
          "internalType": "address",
          "name": "_weth",
          "type": "address"
        },
        {
          "internalType": "address",
          "name": "_uniswapRouterAddress",
          "type": "address"
        }
      ],
      "stateMutability": "nonpayable",
      "type": "constructor"
    },
    {
      "anonymous": false,
      "inputs": [
        {
          "indexed": true,
          "internalType": "address",
          "name": "_strategy",
          "type": "address"
        },
        {
          "indexed": true,
          "internalType": "address",
          "name": "_garden",
          "type": "address"
        },
        {
          "indexed": false,
          "internalType": "address",
          "name": "_pool",
          "type": "address"
        },
        {
          "indexed": false,
          "internalType": "uint256",
          "name": "_poolTokensOut",
          "type": "uint256"
        }
      ],
      "name": "PoolEntered",
      "type": "event"
    },
    {
      "anonymous": false,
      "inputs": [
        {
          "indexed": true,
          "internalType": "address",
          "name": "_strategy",
          "type": "address"
        },
        {
          "indexed": true,
          "internalType": "address",
          "name": "_garden",
          "type": "address"
        },
        {
          "indexed": false,
          "internalType": "address",
          "name": "_pool",
          "type": "address"
        },
        {
          "indexed": false,
          "internalType": "uint256",
          "name": "_poolTokensIn",
          "type": "uint256"
        }
      ],
      "name": "PoolExited",
      "type": "event"
    },
    {
      "inputs": [],
      "name": "MAX_DELTA_BLOCKS",
      "outputs": [
        {
          "internalType": "uint8",
          "name": "",
          "type": "uint8"
        }
      ],
      "stateMutability": "view",
      "type": "function"
    },
    {
      "inputs": [],
      "name": "controller",
      "outputs": [
        {
          "internalType": "address",
          "name": "",
          "type": "address"
        }
      ],
      "stateMutability": "view",
      "type": "function"
    },
    {
      "inputs": [
        {
          "internalType": "address",
          "name": "_strategy",
          "type": "address"
        },
        {
          "internalType": "address",
          "name": "_poolAddress",
          "type": "address"
        },
        {
          "internalType": "uint256",
          "name": "_poolTokensIn",
          "type": "uint256"
        },
        {
          "internalType": "address[]",
          "name": "_tokensOut",
          "type": "address[]"
        },
        {
          "internalType": "uint256[]",
          "name": "_minAmountsOut",
          "type": "uint256[]"
        }
      ],
      "name": "exitPool",
      "outputs": [],
      "stateMutability": "nonpayable",
      "type": "function"
    },
    {
      "inputs": [],
      "name": "getName",
      "outputs": [
        {
          "internalType": "string",
          "name": "",
          "type": "string"
        }
      ],
      "stateMutability": "view",
      "type": "function"
    },
    {
      "inputs": [
        {
          "internalType": "address",
          "name": "_poolAddress",
          "type": "address"
        },
        {
          "internalType": "uint256",
          "name": "_liquidity",
          "type": "uint256"
        }
      ],
      "name": "getPoolMinAmountsOut",
      "outputs": [
        {
          "internalType": "uint256[]",
          "name": "_minAmountsOut",
          "type": "uint256[]"
        }
      ],
      "stateMutability": "view",
      "type": "function"
    },
    {
      "inputs": [
        {
          "internalType": "address",
          "name": "_poolAddress",
          "type": "address"
        }
      ],
      "name": "getPoolTokens",
      "outputs": [
        {
          "internalType": "address[]",
          "name": "",
          "type": "address[]"
        }
      ],
      "stateMutability": "view",
      "type": "function"
    },
    {
      "inputs": [
        {
          "internalType": "address",
          "name": "",
          "type": "address"
        },
        {
          "internalType": "address",
          "name": "",
          "type": "address"
        },
        {
          "internalType": "uint256",
          "name": "",
          "type": "uint256"
        }
      ],
      "name": "getPoolTokensOut",
      "outputs": [
        {
          "internalType": "uint256",
          "name": "",
          "type": "uint256"
        }
      ],
      "stateMutability": "pure",
      "type": "function"
    },
    {
      "inputs": [
        {
          "internalType": "address",
          "name": "",
          "type": "address"
        }
      ],
      "name": "getPoolWeights",
      "outputs": [
        {
          "internalType": "uint256[]",
          "name": "",
          "type": "uint256[]"
        }
      ],
      "stateMutability": "pure",
      "type": "function"
    },
    {
      "inputs": [
        {
          "internalType": "address",
          "name": "",
          "type": "address"
        }
      ],
      "name": "initializedByGarden",
      "outputs": [
        {
          "internalType": "bool",
          "name": "",
          "type": "bool"
        }
      ],
      "stateMutability": "view",
      "type": "function"
    },
    {
      "inputs": [
        {
          "internalType": "address",
          "name": "_poolAddress",
          "type": "address"
        }
      ],
      "name": "isPool",
      "outputs": [
        {
          "internalType": "bool",
          "name": "",
          "type": "bool"
        }
      ],
      "stateMutability": "view",
      "type": "function"
    },
    {
      "inputs": [
        {
          "internalType": "address",
          "name": "_strategy",
          "type": "address"
        },
        {
          "internalType": "address",
          "name": "_poolAddress",
          "type": "address"
        },
        {
          "internalType": "uint256",
          "name": "_poolTokensOut",
          "type": "uint256"
        },
        {
          "internalType": "address[]",
          "name": "_tokensIn",
          "type": "address[]"
        },
        {
          "internalType": "uint256[]",
          "name": "_maxAmountsIn",
          "type": "uint256[]"
        }
      ],
      "name": "joinPool",
      "outputs": [],
      "stateMutability": "nonpayable",
      "type": "function"
    },
    {
      "inputs": [],
      "name": "name",
      "outputs": [
        {
          "internalType": "string",
          "name": "",
          "type": "string"
        }
      ],
      "stateMutability": "view",
      "type": "function"
    },
    {
      "inputs": [],
      "name": "uniRouter",
      "outputs": [
        {
          "internalType": "contract IUniswapV2Router",
          "name": "",
          "type": "address"
        }
      ],
      "stateMutability": "view",
      "type": "function"
    },
    {
      "inputs": [],
      "name": "weth",
      "outputs": [
        {
          "internalType": "address",
          "name": "",
          "type": "address"
        }
      ],
      "stateMutability": "view",
      "type": "function"
    }
  ],
  "transactionHash": "0xd952b72c7ca86a56fc1b4d935a1f5a10b129c2f3e200409c6bc8a158dbcf48dc",
  "args": [
    "0xD4a5b5fcB561dAF3aDF86F8477555B92FBa43b5F",
    "0xC02aaA39b223FE8D0A0e5C4F27eAD9083C756Cc2",
    "0x7a250d5630B4cF539739dF2C5dAcb4c659F2488D"
  ],
  "solcInputHash": "bd873b418320faeabd457a4fe7c7c19d",
  "bytecode": "0x60c0604052600560f81b60a0523480156200001957600080fd5b506040516200233b3803806200233b833981810160405260608110156200003f57600080fd5b5080516020808301516040938401518451808601909552600c85526b1d5b9a5cddd85c17dc1bdbdb60a21b92850192909252919282848282826001600160a01b038116620000d4576040805162461bcd60e51b815260206004820152601a60248201527f436f6e74726f6c6c6572206d75737420626520646566696e6564000000000000604482015290519081900360640190fd5b8251620000e99060019060208601906200013e565b50600080546001600160a01b03199081166001600160a01b039384161790915560609290921b6001600160601b03191660805260016003556004805490921696169590951790945550620001ea945050505050565b828054600181600116156101000203166002900490600052602060002090601f016020900481019282620001765760008555620001c1565b82601f106200019157805160ff1916838001178555620001c1565b82800160010185558215620001c1579182015b82811115620001c1578251825591602001919060010190620001a4565b50620001cf929150620001d3565b5090565b5b80821115620001cf5760008155600101620001d4565b60805160601c60a05160f81c61211d6200021e6000398061062052806118465280611eb652508061064d525061211d6000f3fe608060405234801561001057600080fd5b50600436106100ea5760003560e01c8063708a34761161008c578063bd9d8ad911610066578063bd9d8ad91461042c578063ca4f2803146104a2578063f5e39325146104c8578063f77c4791146104f4576100ea565b8063708a34761461031c578063a0e47bf6146103fe578063b10198fb14610406576100ea565b80633cd5bd95116100c85780633cd5bd95146101925780633fc8cef3146101da5780635b16ebb7146101fe57806362cc395a14610238576100ea565b806306fdde03146100ef57806317d7de7c1461016c57806330adee6514610174575b600080fd5b6100f76104fc565b6040805160208082528351818301528351919283929083019185019080838360005b83811015610131578181015183820152602001610119565b50505050905090810190601f16801561015e5780820380516001836020036101000a031916815260200191505b509250505060405180910390f35b6100f7610589565b61017c61061e565b6040805160ff9092168252519081900360200190f35b6101c8600480360360608110156101a857600080fd5b506001600160a01b03813581169160208101359091169060400135610642565b60408051918252519081900360200190f35b6101e261064b565b604080516001600160a01b039092168252519081900360200190f35b6102246004803603602081101561021457600080fd5b50356001600160a01b031661066f565b604080519115158252519081900360200190f35b61031a600480360360a081101561024e57600080fd5b6001600160a01b0382358116926020810135909116916040820135919081019060808101606082013564010000000081111561028957600080fd5b82018360208201111561029b57600080fd5b803590602001918460208302840111640100000000831117156102bd57600080fd5b9193909290916020810190356401000000008111156102db57600080fd5b8201836020820111156102ed57600080fd5b8035906020019184602083028401116401000000008311171561030f57600080fd5b509092509050610680565b005b61031a600480360360a081101561033257600080fd5b6001600160a01b0382358116926020810135909116916040820135919081019060808101606082013564010000000081111561036d57600080fd5b82018360208201111561037f57600080fd5b803590602001918460208302840111640100000000831117156103a157600080fd5b9193909290916020810190356401000000008111156103bf57600080fd5b8201836020820111156103d157600080fd5b803590602001918460208302840111640100000000831117156103f357600080fd5b509092509050610a9d565b6101e2610fbc565b6102246004803603602081101561041c57600080fd5b50356001600160a01b0316610fcb565b6104526004803603602081101561044257600080fd5b50356001600160a01b0316610fe0565b60408051602080825283518183015283519192839290830191858101910280838360005b8381101561048e578181015183820152602001610476565b505050509050019250505060405180910390f35b610452600480360360208110156104b857600080fd5b50356001600160a01b031661104e565b610452600480360360408110156104de57600080fd5b506001600160a01b038135169060200135611198565b6101e26113c0565b60018054604080516020600284861615610100026000190190941693909304601f810184900484028201840190925281815292918301828280156105815780601f1061055657610100808354040283529160200191610581565b820191906000526020600020905b81548152906001019060200180831161056457829003601f168201915b505050505081565b60018054604080516020601f600260001961010087891615020190951694909404938401819004810282018101909252828152606093909290918301828280156106145780601f106105e957610100808354040283529160200191610614565b820191906000526020600020905b8154815290600101906020018083116105f757829003601f168201915b5050505050905090565b7f000000000000000000000000000000000000000000000000000000000000000081565b60019392505050565b7f000000000000000000000000000000000000000000000000000000000000000081565b600061067a826113cf565b92915050565b600260035414156106d8576040805162461bcd60e51b815260206004820152601f60248201527f5265656e7472616e637947756172643a207265656e7472616e742063616c6c00604482015290519081900360640190fd5b6002600355600054604080516313bc6d4b60e01b815233600482015290516001600160a01b03909216916313bc6d4b91602480820192602092909190829003018186803b15801561072857600080fd5b505afa15801561073c573d6000803e3d6000fd5b505050506040513d602081101561075257600080fd5b50516107a5576040805162461bcd60e51b815260206004820152601960248201527f4f6e6c792073797374656d2063616e2063616c6c207468697300000000000000604482015290519081900360640190fd5b60006107b68888888888888861143e565b90506107c181611631565b80602001516001600160a01b03166397ccdc606107dd8961171c565b89896040518463ffffffff1660e01b815260040180846001600160a01b03168152602001836001600160a01b031681526020018281526020019350505050600060405180830381600087803b15801561083557600080fd5b505af1158015610849573d6000803e3d6000fd5b5050505060008060006108618b8b8b8b8b8b8b61172c565b92509250925083602001516001600160a01b0316636bc195dd8484846040518463ffffffff1660e01b815260040180846001600160a01b0316815260200183815260200180602001828103825283818151815260200191508051906020019080838360005b838110156108de5781810151838201526020016108c6565b50505050905090810190601f16801561090b5780820380516001836020036101000a031916815260200191505b50945050505050600060405180830381600087803b15801561092c57600080fd5b505af1158015610940573d6000803e3d6000fd5b505050506040513d6000823e601f3d908101601f19168201604052602081101561096957600080fd5b810190808051604051939291908464010000000082111561098957600080fd5b90830190602082018581111561099e57600080fd5b82516401000000008111828201881017156109b857600080fd5b82525081516020918201929091019080838360005b838110156109e55781810151838201526020016109cd565b50505050905090810190601f168015610a125780820380516001836020036101000a031916815260200191505b5060405250505050610a2384611931565b83600001516001600160a01b031684602001516001600160a01b03167f7659e40cf608296ce5aa9eff9c80adc7a49cb481173fc4e302e3983827b042df86604001518c60405180836001600160a01b031681526020018281526020019250505060405180910390a350506001600355505050505050505050565b60026003541415610af5576040805162461bcd60e51b815260206004820152601f60248201527f5265656e7472616e637947756172643a207265656e7472616e742063616c6c00604482015290519081900360640190fd5b6002600355600054604080516313bc6d4b60e01b815233600482015290516001600160a01b03909216916313bc6d4b91602480820192602092909190829003018186803b158015610b4557600080fd5b505afa158015610b59573d6000803e3d6000fd5b505050506040513d6020811015610b6f57600080fd5b5051610bc2576040805162461bcd60e51b815260206004820152601960248201527f4f6e6c792073797374656d2063616e2063616c6c207468697300000000000000604482015290519081900360640190fd5b6000610bd38888888888888861143e565b9050610bde816119f9565b60005b84811015610cd7576000868683818110610bf757fe5b905060200201356001600160a01b03166001600160a01b031614610ccf5781602001516001600160a01b03166397ccdc60610c318a61171c565b888885818110610c3d57fe5b905060200201356001600160a01b0316878786818110610c5957fe5b905060200201356040518463ffffffff1660e01b815260040180846001600160a01b03168152602001836001600160a01b031681526020018281526020019350505050600060405180830381600087803b158015610cb657600080fd5b505af1158015610cca573d6000803e3d6000fd5b505050505b600101610be1565b506000806000610cec8b8b8b8b8b8b8b611a9a565b92509250925083602001516001600160a01b0316636bc195dd8484846040518463ffffffff1660e01b815260040180846001600160a01b0316815260200183815260200180602001828103825283818151815260200191508051906020019080838360005b83811015610d69578181015183820152602001610d51565b50505050905090810190601f168015610d965780820380516001836020036101000a031916815260200191505b50945050505050600060405180830381600087803b158015610db757600080fd5b505af1158015610dcb573d6000803e3d6000fd5b505050506040513d6000823e601f3d908101601f191682016040526020811015610df457600080fd5b8101908080516040519392919084640100000000821115610e1457600080fd5b908301906020820185811115610e2957600080fd5b8251640100000000811182820188101715610e4357600080fd5b82525081516020918201929091019080838360005b83811015610e70578181015183820152602001610e58565b50505050905090810190601f168015610e9d5780820380516001836020036101000a031916815260200191505b5060405250505050610f348460a0015185604001516001600160a01b03166370a0823187602001516040518263ffffffff1660e01b815260040180826001600160a01b0316815260200191505060206040518083038186803b158015610f0257600080fd5b505afa158015610f16573d6000803e3d6000fd5b505050506040513d6020811015610f2c57600080fd5b505190611b77565b6080850152610f4284611bd4565b83600001516001600160a01b031684602001516001600160a01b03167fe5ca6288535c5c6c2462c912b4033eade15b80926717896a2d58a2defdeb912886604001518c60405180836001600160a01b031681526020018281526020019250505060405180910390a350506001600355505050505050505050565b6004546001600160a01b031681565b60026020526000908152604090205460ff1681565b604080516002808252606080830184529260009291906020830190803683370190505090506706f05b59d3b200008160008151811061101b57fe5b6020026020010181815250506706f05b59d3b200008160018151811061103d57fe5b602090810291909101015292915050565b60408051600280825260608083018452926000929190602083019080368337019050509050826001600160a01b0316630dfe16816040518163ffffffff1660e01b815260040160206040518083038186803b1580156110ac57600080fd5b505afa1580156110c0573d6000803e3d6000fd5b505050506040513d60208110156110d657600080fd5b5051815182906000906110e557fe5b60200260200101906001600160a01b031690816001600160a01b031681525050826001600160a01b031663d21220a76040518163ffffffff1660e01b815260040160206040518083038186803b15801561113e57600080fd5b505afa158015611152573d6000803e3d6000fd5b505050506040513d602081101561116857600080fd5b505181518290600190811061117957fe5b6001600160a01b03909216602092830291909101909101529050919050565b60606000836001600160a01b03166318160ddd6040518163ffffffff1660e01b815260040160206040518083038186803b1580156111d557600080fd5b505afa1580156111e9573d6000803e3d6000fd5b505050506040513d60208110156111ff57600080fd5b50516040805160028082526060820183529293506000929091602083019080368337019050509050611331662386f26fc10000670de0b6b3a76400000361132b84611325888a6001600160a01b0316630dfe16816040518163ffffffff1660e01b815260040160206040518083038186803b15801561127d57600080fd5b505afa158015611291573d6000803e3d6000fd5b505050506040513d60208110156112a757600080fd5b5051604080516370a0823160e01b81526001600160a01b038e81166004830152915191909216916370a08231916024808301926020929190829003018186803b1580156112f357600080fd5b505afa158015611307573d6000803e3d6000fd5b505050506040513d602081101561131d57600080fd5b505190611c96565b90611cf6565b90611d5d565b8160008151811061133e57fe5b6020026020010181815250506113a0662386f26fc10000670de0b6b3a76400000361132b84611325888a6001600160a01b031663d21220a76040518163ffffffff1660e01b815260040160206040518083038186803b15801561127d57600080fd5b816001815181106113ad57fe5b6020908102919091010152949350505050565b6000546001600160a01b031681565b600080826001600160a01b031663ba9a7a566040518163ffffffff1660e01b815260040160206040518083038186803b15801561140b57600080fd5b505afa15801561141f573d6000803e3d6000fd5b505050506040513d602081101561143557600080fd5b50511192915050565b611446611f8b565b61144e611f8b565b6001600160a01b0389166020808301829052604080517f56ba88b800000000000000000000000000000000000000000000000000000000815290516356ba88b892600480840193919291829003018186803b1580156114ac57600080fd5b505afa1580156114c0573d6000803e3d6000fd5b505050506040513d60208110156114d657600080fd5b50516001600160a01b0390811682528816604080830182905280517f18160ddd00000000000000000000000000000000000000000000000000000000815290516318160ddd91600480820192602092909190829003018186803b15801561153c57600080fd5b505afa158015611550573d6000803e3d6000fd5b505050506040513d602081101561156657600080fd5b50516060820152604080516370a0823160e01b81526001600160a01b038b811660048301529151918a16916370a0823191602480820192602092909190829003018186803b1580156115b757600080fd5b505afa1580156115cb573d6000803e3d6000fd5b505050506040513d60208110156115e157600080fd5b505160a0820152608081018790526040805160208581028281018201909352858252909186918691829185019084908082843760009201919091525050505060c082015298975050505050505050565b61163e81604001516113cf565b61168f576040805162461bcd60e51b815260206004820152601d60248201527f54686520706f6f6c2061646472657373206973206e6f742076616c6964000000604482015290519081900360640190fd5b60008160800151116116d25760405162461bcd60e51b815260040180806020018281038252602e815260200180612036602e913960400191505060405180910390fd5b80608001518160a0015110156117195760405162461bcd60e51b815260040180806020018281038252602d815260200180612090602d913960400191505060405180910390fd5b50565b506004546001600160a01b031690565b600080606060028614611786576040805162461bcd60e51b815260206004820152601360248201527f54776f20746f6b656e7320726571756972656400000000000000000000000000604482015290519081900360640190fd5b600284146117db576040805162461bcd60e51b815260206004820152601460248201527f54776f20616d6f756e7473207265717569726564000000000000000000000000604482015290519081900360640190fd5b6000878760008181106117ea57fe5b905060200201356001600160a01b03168888600181811061180757fe5b905060200201356001600160a01b03168a8888600081811061182557fe5b905060200201358989600181811061183957fe5b905060200201358f6118777f000000000000000000000000000000000000000000000000000000000000000060ff1642611d7590919063ffffffff16565b604080516001600160a01b03988916602482015296881660448801526064870195909552608486019390935260a4850191909152841660c484015260e4808401919091528151808403909101815261010490920190526020810180517bffffffffffffffffffffffffffffffffffffffffffffffffffffffff167fbaa2abde000000000000000000000000000000000000000000000000000000001790526004549091169450600093509150509750975097945050505050565b80608001518160a001510381604001516001600160a01b03166370a0823183602001516040518263ffffffff1660e01b815260040180826001600160a01b0316815260200191505060206040518083038186803b15801561199157600080fd5b505afa1580156119a5573d6000803e3d6000fd5b505050506040513d60208110156119bb57600080fd5b5051146117195760405162461bcd60e51b815260040180806020018281038252602b8152602001806120bd602b913960400191505060405180910390fd5b611a0681604001516113cf565b611a57576040805162461bcd60e51b815260206004820152601d60248201527f54686520706f6f6c2061646472657373206973206e6f742076616c6964000000604482015290519081900360640190fd5b60008160800151116117195760405162461bcd60e51b8152600401808060200182810382526031815260200180611fe46031913960400191505060405180910390fd5b600080606060028614611af4576040805162461bcd60e51b815260206004820152601360248201527f54776f20746f6b656e7320726571756972656400000000000000000000000000604482015290519081900360640190fd5b60028414611b49576040805162461bcd60e51b815260206004820152601460248201527f54776f20616d6f756e7473207265717569726564000000000000000000000000604482015290519081900360640190fd5b6004546001600160a01b03166000611b648c8a8a8a8a611dcf565b9250925092509750975097945050505050565b600082821115611bce576040805162461bcd60e51b815260206004820152601e60248201527f536166654d6174683a207375627472616374696f6e206f766572666c6f770000604482015290519081900360640190fd5b50900390565b8060a0015181604001516001600160a01b03166370a0823183602001516040518263ffffffff1660e01b815260040180826001600160a01b0316815260200191505060206040518083038186803b158015611c2e57600080fd5b505afa158015611c42573d6000803e3d6000fd5b505050506040513d6020811015611c5857600080fd5b5051116117195760405162461bcd60e51b815260040180806020018281038252602c815260200180612064602c913960400191505060405180910390fd5b600082611ca55750600061067a565b82820282848281611cb257fe5b0414611cef5760405162461bcd60e51b81526004018080602001828103825260218152602001806120156021913960400191505060405180910390fd5b9392505050565b6000808211611d4c576040805162461bcd60e51b815260206004820152601a60248201527f536166654d6174683a206469766973696f6e206279207a65726f000000000000604482015290519081900360640190fd5b818381611d5557fe5b049392505050565b6000611cef670de0b6b3a76400006113258585611c96565b600082820183811015611cef576040805162461bcd60e51b815260206004820152601b60248201527f536166654d6174683a206164646974696f6e206f766572666c6f770000000000604482015290519081900360640190fd5b606084846000818110611dde57fe5b905060200201356001600160a01b031685856001818110611dfb57fe5b905060200201356001600160a01b031684846000818110611e1857fe5b9050602002013585856001818110611e2c57fe5b90506020020135611e85611e63662386f26fc1000089896000818110611e4e57fe5b90506020020135611d5d90919063ffffffff16565b88886000818110611e7057fe5b90506020020135611b7790919063ffffffff16565b611ead611ea0662386f26fc100008a8a6001818110611e4e57fe5b89896001818110611e7057fe5b8b611edb4260ff7f000000000000000000000000000000000000000000000000000000000000000016611d75565b604080516001600160a01b03998a16602482015297891660448901526064880196909652608487019490945260a486019290925260c485015290931660e4830152610104808301939093528051808303909301835261012490910190526020810180517bffffffffffffffffffffffffffffffffffffffffffffffffffffffff167fe8e3370000000000000000000000000000000000000000000000000000000000179052905095945050505050565b6040518060e0016040528060006001600160a01b0316815260200160006001600160a01b0316815260200160006001600160a01b0316815260200160008152602001600081526020016000815260200160608152509056fe4d696e20706f6f6c20746f6b656e7320746f2072656365697665206d7573742062652067726561746572207468616e2030536166654d6174683a206d756c7469706c69636174696f6e206f766572666c6f77506f6f6c20746f6b656e7320746f2065786368616e6765206d7573742062652067726561746572207468616e203054686520737472617465677920646964206e6f7420726563656976652074686520706f6f6c20746f6b656e7354686520737472617465677920646f6573206e6f74206861766520656e6f75676820706f6f6c20746f6b656e7354686520737472617465677920646964206e6f742072657475726e2074686520706f6f6c20746f6b656e73a2646970667358221220eab39abc37ee192e172e17dab3ab0f5ae27530e8f660c2cc29682f59dd62fee864736f6c63430007060033",
  "devdoc": {
    "author": "Babylon Finance Protocol Kyber protocol trade integration",
    "kind": "dev",
    "methods": {
      "constructor": {
        "params": {
          "_controller": "Address of the controller",
          "_uniswapRouterAddress": "Address of Uniswap router",
          "_weth": "Address of the WETH ERC20"
        }
      },
      "exitPool(address,address,uint256,address[],uint256[])": {
        "params": {
          "_minAmountsOut": "Array of min token quantities to receive from the pool",
          "_poolAddress": "Address of the pool token to join",
          "_poolTokensIn": "Pool tokens to exchange for the underlying tokens",
          "_strategy": "Address of the strategy",
          "_tokensOut": "Array of token addresses to withdraw"
        }
      },
      "isPool(address)": {
        "params": {
          "_poolAddress": "Pool address to check"
        },
        "returns": {
          "_0": "bool                        True if the address is a pool"
        }
      },
      "joinPool(address,address,uint256,address[],uint256[])": {
        "params": {
          "_maxAmountsIn": "Array of max token quantities to pull out from the garden",
          "_poolAddress": "Address of the pool token to join",
          "_poolTokensOut": "Min amount of pool tokens to receive",
          "_strategy": "Address of the strategy",
          "_tokensIn": "Array of token addresses to deposit"
        }
      }
    },
    "title": "BalancerIntegration",
    "version": 1
  },
  "userdoc": {
    "kind": "user",
    "methods": {
      "constructor": {
        "notice": "Creates the integration"
      },
      "exitPool(address,address,uint256,address[],uint256[])": {
        "notice": "Exits a liquidity pool. Accrue protocol fee (if any)"
      },
      "getName()": {
        "notice": "Returns the name of the integration"
      },
      "isPool(address)": {
        "notice": "Checks whether a pool address is valid"
      },
      "joinPool(address,address,uint256,address[],uint256[])": {
        "notice": "Joins a pool"
      }
    },
    "version": 1
  },
  "storageLayout": {
    "storage": [
      {
        "astId": 17657,
        "contract": "contracts/integrations/pool/UniswapPoolIntegration.sol:UniswapPoolIntegration",
        "label": "controller",
        "offset": 0,
        "slot": "0",
        "type": "t_address"
      },
      {
        "astId": 17661,
        "contract": "contracts/integrations/pool/UniswapPoolIntegration.sol:UniswapPoolIntegration",
        "label": "name",
        "offset": 0,
        "slot": "1",
        "type": "t_string_storage"
      },
      {
        "astId": 17665,
        "contract": "contracts/integrations/pool/UniswapPoolIntegration.sol:UniswapPoolIntegration",
        "label": "initializedByGarden",
        "offset": 0,
        "slot": "2",
        "type": "t_mapping(t_address,t_bool)"
      },
      {
        "astId": 5603,
        "contract": "contracts/integrations/pool/UniswapPoolIntegration.sol:UniswapPoolIntegration",
        "label": "_status",
        "offset": 0,
        "slot": "3",
        "type": "t_uint256"
      },
      {
        "astId": 21058,
        "contract": "contracts/integrations/pool/UniswapPoolIntegration.sol:UniswapPoolIntegration",
        "label": "uniRouter",
        "offset": 0,
        "slot": "4",
        "type": "t_contract(IUniswapV2Router)26084"
      }
    ],
    "types": {
      "t_address": {
        "encoding": "inplace",
        "label": "address",
        "numberOfBytes": "20"
      },
      "t_bool": {
        "encoding": "inplace",
        "label": "bool",
        "numberOfBytes": "1"
      },
      "t_contract(IUniswapV2Router)26084": {
        "encoding": "inplace",
        "label": "contract IUniswapV2Router",
        "numberOfBytes": "20"
      },
      "t_mapping(t_address,t_bool)": {
        "encoding": "mapping",
        "key": "t_address",
        "label": "mapping(address => bool)",
        "numberOfBytes": "32",
        "value": "t_bool"
      },
      "t_string_storage": {
        "encoding": "bytes",
        "label": "string",
        "numberOfBytes": "32"
      },
      "t_uint256": {
        "encoding": "inplace",
        "label": "uint256",
        "numberOfBytes": "32"
      }
    }
  }
}