{
  "address": "0x423eaC6108DadE6F9DF7582d0e1A73B6576f6c59",
  "abi": [
    {
      "inputs": [
        {
          "internalType": "contract IBabController",
          "name": "_controller",
          "type": "address"
        },
        {
          "internalType": "address",
          "name": "_uniswapRouterAddress",
          "type": "address"
        }
      ],
      "stateMutability": "nonpayable",
      "type": "constructor"
    },
    {
      "anonymous": false,
      "inputs": [
        {
          "indexed": true,
          "internalType": "address",
          "name": "_strategy",
          "type": "address"
        },
        {
          "indexed": true,
          "internalType": "address",
          "name": "_garden",
          "type": "address"
        },
        {
          "indexed": false,
          "internalType": "address",
          "name": "_pool",
          "type": "address"
        },
        {
          "indexed": false,
          "internalType": "uint256",
          "name": "_poolTokensOut",
          "type": "uint256"
        }
      ],
      "name": "PoolEntered",
      "type": "event"
    },
    {
      "anonymous": false,
      "inputs": [
        {
          "indexed": true,
          "internalType": "address",
          "name": "_strategy",
          "type": "address"
        },
        {
          "indexed": true,
          "internalType": "address",
          "name": "_garden",
          "type": "address"
        },
        {
          "indexed": false,
          "internalType": "address",
          "name": "_pool",
          "type": "address"
        },
        {
          "indexed": false,
          "internalType": "uint256",
          "name": "_poolTokensIn",
          "type": "uint256"
        }
      ],
      "name": "PoolExited",
      "type": "event"
    },
    {
      "inputs": [],
      "name": "MAX_DELTA_BLOCKS",
      "outputs": [
        {
          "internalType": "uint8",
          "name": "",
          "type": "uint8"
        }
      ],
      "stateMutability": "view",
      "type": "function"
    },
    {
      "inputs": [],
      "name": "controller",
      "outputs": [
        {
          "internalType": "contract IBabController",
          "name": "",
          "type": "address"
        }
      ],
      "stateMutability": "view",
      "type": "function"
    },
    {
      "inputs": [
        {
          "internalType": "address",
          "name": "_strategy",
          "type": "address"
        },
        {
          "internalType": "bytes",
          "name": "_pool",
          "type": "bytes"
        },
        {
          "internalType": "uint256",
          "name": "_poolTokensIn",
          "type": "uint256"
        },
        {
          "internalType": "address[]",
          "name": "_tokensOut",
          "type": "address[]"
        },
        {
          "internalType": "uint256[]",
          "name": "_minAmountsOut",
          "type": "uint256[]"
        }
      ],
      "name": "exitPool",
      "outputs": [],
      "stateMutability": "nonpayable",
      "type": "function"
    },
    {
      "inputs": [
        {
          "internalType": "address",
          "name": "_pool",
          "type": "address"
        }
      ],
      "name": "getLPToken",
      "outputs": [
        {
          "internalType": "address",
          "name": "",
          "type": "address"
        }
      ],
      "stateMutability": "view",
      "type": "function"
    },
    {
      "inputs": [],
      "name": "getName",
      "outputs": [
        {
          "internalType": "string",
          "name": "",
          "type": "string"
        }
      ],
      "stateMutability": "view",
      "type": "function"
    },
    {
      "inputs": [
        {
          "internalType": "address",
          "name": "_pool",
          "type": "address"
        }
      ],
      "name": "getPool",
      "outputs": [
        {
          "internalType": "address",
          "name": "",
          "type": "address"
        }
      ],
      "stateMutability": "view",
      "type": "function"
    },
    {
      "inputs": [
        {
          "internalType": "bytes",
          "name": "_pool",
          "type": "bytes"
        },
        {
          "internalType": "uint256",
          "name": "_liquidity",
          "type": "uint256"
        }
      ],
      "name": "getPoolMinAmountsOut",
      "outputs": [
        {
          "internalType": "uint256[]",
          "name": "_minAmountsOut",
          "type": "uint256[]"
        }
      ],
      "stateMutability": "view",
      "type": "function"
    },
    {
      "inputs": [
        {
          "internalType": "bytes",
          "name": "_pool",
          "type": "bytes"
        },
        {
          "internalType": "bool",
          "name": "forNAV",
          "type": "bool"
        }
      ],
      "name": "getPoolTokens",
      "outputs": [
        {
          "internalType": "address[]",
          "name": "",
          "type": "address[]"
        }
      ],
      "stateMutability": "view",
      "type": "function"
    },
    {
      "inputs": [
        {
          "internalType": "bytes",
          "name": "",
          "type": "bytes"
        },
        {
          "internalType": "address",
          "name": "",
          "type": "address"
        },
        {
          "internalType": "uint256",
          "name": "",
          "type": "uint256"
        }
      ],
      "name": "getPoolTokensOut",
      "outputs": [
        {
          "internalType": "uint256",
          "name": "",
          "type": "uint256"
        }
      ],
      "stateMutability": "pure",
      "type": "function"
    },
    {
      "inputs": [
        {
          "internalType": "bytes",
          "name": "",
          "type": "bytes"
        }
      ],
      "name": "getPoolWeights",
      "outputs": [
        {
          "internalType": "uint256[]",
          "name": "",
          "type": "uint256[]"
        }
      ],
      "stateMutability": "pure",
      "type": "function"
    },
    {
      "inputs": [
        {
          "internalType": "bytes",
          "name": "_pool",
          "type": "bytes"
        }
      ],
      "name": "isPool",
      "outputs": [
        {
          "internalType": "bool",
          "name": "",
          "type": "bool"
        }
      ],
      "stateMutability": "view",
      "type": "function"
    },
    {
      "inputs": [
        {
          "internalType": "address",
          "name": "_strategy",
          "type": "address"
        },
        {
          "internalType": "bytes",
          "name": "_pool",
          "type": "bytes"
        },
        {
          "internalType": "uint256",
          "name": "_poolTokensOut",
          "type": "uint256"
        },
        {
          "internalType": "address[]",
          "name": "_tokensIn",
          "type": "address[]"
        },
        {
          "internalType": "uint256[]",
          "name": "_maxAmountsIn",
          "type": "uint256[]"
        }
      ],
      "name": "joinPool",
      "outputs": [],
      "stateMutability": "nonpayable",
      "type": "function"
    },
    {
      "inputs": [],
      "name": "name",
      "outputs": [
        {
          "internalType": "string",
          "name": "",
          "type": "string"
        }
      ],
      "stateMutability": "view",
      "type": "function"
    },
    {
      "inputs": [
        {
          "internalType": "address",
          "name": "_pool",
          "type": "address"
        }
      ],
      "name": "totalSupply",
      "outputs": [
        {
          "internalType": "uint256",
          "name": "",
          "type": "uint256"
        }
      ],
      "stateMutability": "view",
      "type": "function"
    },
    {
      "inputs": [],
      "name": "uniRouter",
      "outputs": [
        {
          "internalType": "contract IUniswapV2Router",
          "name": "",
          "type": "address"
        }
      ],
      "stateMutability": "view",
      "type": "function"
    }
  ],
  "transactionHash": "0xba67adf6a799956d1581e5e2fd721abfda727b2b29cfabf3aed6c99b81a265d2",
  "args": [
    "0xD4a5b5fcB561dAF3aDF86F8477555B92FBa43b5F",
    "0x7a250d5630B4cF539739dF2C5dAcb4c659F2488D"
  ],
  "solcInputHash": "c1f525c5f5ec5d756d5e07b589917725",
  "bytecode": "0x60a0604052600560f81b6080523480156200001957600080fd5b506040516200260238038062002602833981810160405260408110156200003f57600080fd5b50805160209182015160408051808201909152600c81526b1d5b9a5cddd85c17dc1bdbdb60a21b9381019390935290918281816001600160a01b038116620000ce576040805162461bcd60e51b815260206004820152601a60248201527f436f6e74726f6c6c6572206d75737420626520646566696e6564000000000000604482015290519081900360640190fd5b8151620000e390600190602085019062000124565b50600080546001600160a01b039283166001600160a01b0319918216179091556001600255600380549690921695169490941790935550620001d092505050565b828054600181600116156101000203166002900490600052602060002090601f0160209004810192826200015c5760008555620001a7565b82601f106200017757805160ff1916838001178555620001a7565b82800160010185558215620001a7579182015b82811115620001a75782518255916020019190600101906200018a565b50620001b5929150620001b9565b5090565b5b80821115620001b55760008155600101620001ba565b60805160f81c61240a620001f8600039806108fe5280611b005280612148525061240a6000f3fe608060405234801561001057600080fd5b50600436106100f55760003560e01c806354f070c111610097578063c9d5066b11610066578063c9d5066b14610644578063e0227107146106b4578063e4dc2aa414610726578063f77c47911461074c576100f5565b806354f070c1146103ea5780637a6731ab14610514578063a0e47bf61461063c578063bbe4f6db146103a8576100f5565b80631b7e75b7116100d35780631b7e75b71461023f57806326062493146102d057806330adee651461038a5780634fc99ed6146103a8576100f5565b806306fdde03146100fa57806307ec3d921461017757806317d7de7c14610237575b600080fd5b610102610754565b6040805160208082528351818301528351919283929083019185019080838360005b8381101561013c578181015183820152602001610124565b50505050905090810190601f1680156101695780820380516001836020036101000a031916815260200191505b509250505060405180910390f35b6101e76004803603602081101561018d57600080fd5b8101906020810181356401000000008111156101a857600080fd5b8201836020820111156101ba57600080fd5b803590602001918460018302840111640100000000831117156101dc57600080fd5b5090925090506107e1565b60408051602080825283518183015283519192839290830191858101910280838360005b8381101561022357818101518382015260200161020b565b505050509050019250505060405180910390f35b610102610852565b6102be6004803603606081101561025557600080fd5b81019060208101813564010000000081111561027057600080fd5b82018360208201111561028257600080fd5b803590602001918460018302840111640100000000831117156102a457600080fd5b91935091506001600160a01b0381351690602001356108e7565b60408051918252519081900360200190f35b610376600480360360208110156102e657600080fd5b81019060208101813564010000000081111561030157600080fd5b82018360208201111561031357600080fd5b8035906020019184600183028401116401000000008311171561033557600080fd5b91908080601f0160208091040260200160405190810160405280939291908181526020018383808284376000920191909152509295506108f1945050505050565b604080519115158252519081900360200190f35b6103926108fc565b6040805160ff9092168252519081900360200190f35b6103ce600480360360208110156103be57600080fd5b50356001600160a01b0316610920565b604080516001600160a01b039092168252519081900360200190f35b610512600480360360a081101561040057600080fd5b6001600160a01b03823516919081019060408101602082013564010000000081111561042b57600080fd5b82018360208201111561043d57600080fd5b8035906020019184600183028401116401000000008311171561045f57600080fd5b9193909282359260408101906020013564010000000081111561048157600080fd5b82018360208201111561049357600080fd5b803590602001918460208302840111640100000000831117156104b557600080fd5b9193909290916020810190356401000000008111156104d357600080fd5b8201836020820111156104e557600080fd5b8035906020019184602083028401116401000000008311171561050757600080fd5b50909250905061092b565b005b610512600480360360a081101561052a57600080fd5b6001600160a01b03823516919081019060408101602082013564010000000081111561055557600080fd5b82018360208201111561056757600080fd5b8035906020019184600183028401116401000000008311171561058957600080fd5b919390928235926040810190602001356401000000008111156105ab57600080fd5b8201836020820111156105bd57600080fd5b803590602001918460208302840111640100000000831117156105df57600080fd5b9193909290916020810190356401000000008111156105fd57600080fd5b82018360208201111561060f57600080fd5b8035906020019184602083028401116401000000008311171561063157600080fd5b509092509050610d90565b6103ce6112bc565b6101e76004803603604081101561065a57600080fd5b81019060208101813564010000000081111561067557600080fd5b82018360208201111561068757600080fd5b803590602001918460018302840111640100000000831117156106a957600080fd5b9193509150356112cb565b6101e7600480360360408110156106ca57600080fd5b8101906020810181356401000000008111156106e557600080fd5b8201836020820111156106f757600080fd5b8035906020019184600183028401116401000000008311171561071957600080fd5b9193509150351515611503565b6102be6004803603602081101561073c57600080fd5b50356001600160a01b031661165f565b6103ce61166a565b60018054604080516020600284861615610100026000190190941693909304601f810184900484028201840190925281815292918301828280156107d95780601f106107ae576101008083540402835291602001916107d9565b820191906000526020600020905b8154815290600101906020018083116107bc57829003601f168201915b505050505081565b604080516002808252606080830184529260009291906020830190803683370190505090506706f05b59d3b200008160008151811061081c57fe5b6020026020010181815250506706f05b59d3b200008160018151811061083e57fe5b602090810291909101015290505b92915050565b60018054604080516020601f600260001961010087891615020190951694909404938401819004810282018101909252828152606093909290918301828280156108dd5780601f106108b2576101008083540402835291602001916108dd565b820191906000526020600020905b8154815290600101906020018083116108c057829003601f168201915b5050505050905090565b6001949350505050565b600061084c82611679565b7f000000000000000000000000000000000000000000000000000000000000000081565b600061084c826116f8565b600280541415610982576040805162461bcd60e51b815260206004820152601f60248201527f5265656e7472616e637947756172643a207265656e7472616e742063616c6c00604482015290519081900360640190fd5b60028055600054604080516313bc6d4b60e01b815233600482015290516001600160a01b03909216916313bc6d4b91602480820192602092909190829003018186803b1580156109d157600080fd5b505afa1580156109e5573d6000803e3d6000fd5b505050506040513d60208110156109fb57600080fd5b5051610a4e576040805162461bcd60e51b815260206004820152601960248201527f4f6e6c792073797374656d2063616e2063616c6c207468697300000000000000604482015290519081900360640190fd5b6000610a5a88886116fb565b90506000610a6e8a8a8a8a8a8a8a8a61171f565b9050610a79816118ea565b80602001516001600160a01b03166397ccdc60610a968b8b6119d5565b83606001518a6040518463ffffffff1660e01b815260040180846001600160a01b03168152602001836001600160a01b031681526020018281526020019350505050600060405180830381600087803b158015610af257600080fd5b505af1158015610b06573d6000803e3d6000fd5b505050506000806000610b568d8d8d8080601f0160208091040260200160405190810160405280939291908181526020018383808284376000920191909152508f92508e91508d90508c8c6119e6565b92509250925083602001516001600160a01b0316636bc195dd8484846040518463ffffffff1660e01b815260040180846001600160a01b0316815260200183815260200180602001828103825283818151815260200191508051906020019080838360005b83811015610bd3578181015183820152602001610bbb565b50505050905090810190601f168015610c005780820380516001836020036101000a031916815260200191505b50945050505050600060405180830381600087803b158015610c2157600080fd5b505af1158015610c35573d6000803e3d6000fd5b505050506040513d6000823e601f3d908101601f191682016040526020811015610c5e57600080fd5b8101908080516040519392919084640100000000821115610c7e57600080fd5b908301906020820185811115610c9357600080fd5b8251640100000000811182820188101715610cad57600080fd5b82525081516020918201929091019080838360005b83811015610cda578181015183820152602001610cc2565b50505050905090810190601f168015610d075780820380516001836020036101000a031916815260200191505b5060405250505050610d1884611beb565b83600001516001600160a01b031684602001516001600160a01b03167f7659e40cf608296ce5aa9eff9c80adc7a49cb481173fc4e302e3983827b042df878d60405180836001600160a01b031681526020018281526020019250505060405180910390a3505060016002555050505050505050505050565b600280541415610de7576040805162461bcd60e51b815260206004820152601f60248201527f5265656e7472616e637947756172643a207265656e7472616e742063616c6c00604482015290519081900360640190fd5b60028055600054604080516313bc6d4b60e01b815233600482015290516001600160a01b03909216916313bc6d4b91602480820192602092909190829003018186803b158015610e3657600080fd5b505afa158015610e4a573d6000803e3d6000fd5b505050506040513d6020811015610e6057600080fd5b5051610eb3576040805162461bcd60e51b815260206004820152601960248201527f4f6e6c792073797374656d2063616e2063616c6c207468697300000000000000604482015290519081900360640190fd5b6000610ec5898989898989898961171f565b9050610ed081611cca565b6000610edc89896116fb565b905060005b85811015610fd8576000878783818110610ef757fe5b905060200201356001600160a01b03166001600160a01b031614610fd05782602001516001600160a01b03166397ccdc60610f328c8c6119d5565b898985818110610f3e57fe5b905060200201356001600160a01b0316888886818110610f5a57fe5b905060200201356040518463ffffffff1660e01b815260040180846001600160a01b03168152602001836001600160a01b031681526020018281526020019350505050600060405180830381600087803b158015610fb757600080fd5b505af1158015610fcb573d6000803e3d6000fd5b505050505b600101610ee1565b506000806000610fee8d8d8d8d8d8d8d8d611d6b565b92509250925084602001516001600160a01b0316636bc195dd8484846040518463ffffffff1660e01b815260040180846001600160a01b0316815260200183815260200180602001828103825283818151815260200191508051906020019080838360005b8381101561106b578181015183820152602001611053565b50505050905090810190601f1680156110985780820380516001836020036101000a031916815260200191505b50945050505050600060405180830381600087803b1580156110b957600080fd5b505af11580156110cd573d6000803e3d6000fd5b505050506040513d6000823e601f3d908101601f1916820160405260208110156110f657600080fd5b810190808051604051939291908464010000000082111561111657600080fd5b90830190602082018581111561112b57600080fd5b825164010000000081118282018810171561114557600080fd5b82525081516020918201929091019080838360005b8381101561117257818101518382015260200161115a565b50505050905090810190601f16801561119f5780820380516001836020036101000a031916815260200191505b50604052505050506112368560c0015186606001516001600160a01b03166370a0823188602001516040518263ffffffff1660e01b815260040180826001600160a01b0316815260200191505060206040518083038186803b15801561120457600080fd5b505afa158015611218573d6000803e3d6000fd5b505050506040513d602081101561122e57600080fd5b505190611e49565b60a086015261124485611e59565b84600001516001600160a01b031685602001516001600160a01b03167fe5ca6288535c5c6c2462c912b4033eade15b80926717896a2d58a2defdeb9128868d60405180836001600160a01b031681526020018281526020019250505060405180910390a3505060016002555050505050505050505050565b6003546001600160a01b031681565b606060006112d985856116fb565b90506000816001600160a01b03166318160ddd6040518163ffffffff1660e01b815260040160206040518083038186803b15801561131657600080fd5b505afa15801561132a573d6000803e3d6000fd5b505050506040513d602081101561134057600080fd5b5051604080516002808252606082018352929350600092909160208301908036833701905050905061147266b1a2bc2ec50000670de0b6b3a76400000361146c8461146689886001600160a01b0316630dfe16816040518163ffffffff1660e01b815260040160206040518083038186803b1580156113be57600080fd5b505afa1580156113d2573d6000803e3d6000fd5b505050506040513d60208110156113e857600080fd5b5051604080516370a0823160e01b81526001600160a01b038c81166004830152915191909216916370a08231916024808301926020929190829003018186803b15801561143457600080fd5b505afa158015611448573d6000803e3d6000fd5b505050506040513d602081101561145e57600080fd5b505190611f2e565b90611f52565b90611fb9565b8160008151811061147f57fe5b6020026020010181815250506114e166b1a2bc2ec50000670de0b6b3a76400000361146c8461146689886001600160a01b031663d21220a76040518163ffffffff1660e01b815260040160206040518083038186803b1580156113be57600080fd5b816001815181106114ee57fe5b60209081029190910101529695505050505050565b6060600061151185856116fb565b6040805160028082526060820183529293506000929091602083019080368337019050509050816001600160a01b0316630dfe16816040518163ffffffff1660e01b815260040160206040518083038186803b15801561157057600080fd5b505afa158015611584573d6000803e3d6000fd5b505050506040513d602081101561159a57600080fd5b5051815182906000906115a957fe5b60200260200101906001600160a01b031690816001600160a01b031681525050816001600160a01b031663d21220a76040518163ffffffff1660e01b815260040160206040518083038186803b15801561160257600080fd5b505afa158015611616573d6000803e3d6000fd5b505050506040513d602081101561162c57600080fd5b505181518290600190811061163d57fe5b6001600160a01b03909216602092830291909101909101529150509392505050565b600061084c82611fd8565b6000546001600160a01b031681565b60008061168783600c612045565b90506000816001600160a01b031663ba9a7a566040518163ffffffff1660e01b815260040160206040518083038186803b1580156116c457600080fd5b505afa1580156116d8573d6000803e3d6000fd5b505050506040513d60208110156116ee57600080fd5b5051119392505050565b90565b60008282602081101561170d57600080fd5b50356001600160a01b03169392505050565b611727612291565b600061173389896116fb565b905061173d612291565b611746826116f8565b6001600160a01b0390811660608301528b166020808301829052604080517f56ba88b800000000000000000000000000000000000000000000000000000000815290516356ba88b892600480840193919291829003018186803b1580156117ac57600080fd5b505afa1580156117c0573d6000803e3d6000fd5b505050506040513d60208110156117d657600080fd5b50516001600160a01b03168152604080516020601f8c018190048102820181019092528a8152908b908b9081908401838280828437600092019190915250505050604080830191909152606082015181516370a0823160e01b81526001600160a01b038e81166004830152925192909116916370a0823191602480820192602092909190829003018186803b15801561186e57600080fd5b505afa158015611882573d6000803e3d6000fd5b505050506040513d602081101561189857600080fd5b505160c082015260a081018890526040805160208681028281018201909352868252909187918791829185019084908082843760009201919091525050505060e08201529a9950505050505050505050565b6118f78160400151611679565b611948576040805162461bcd60e51b815260206004820152601d60248201527f54686520706f6f6c2061646472657373206973206e6f742076616c6964000000604482015290519081900360640190fd5b60008160a001511161198b5760405162461bcd60e51b815260040180806020018281038252602e815260200180612323602e913960400191505060405180910390fd5b8060a001518160c0015110156119d25760405162461bcd60e51b815260040180806020018281038252602d81526020018061237d602d913960400191505060405180910390fd5b50565b50506003546001600160a01b031690565b600080606060028614611a40576040805162461bcd60e51b815260206004820152601360248201527f54776f20746f6b656e7320726571756972656400000000000000000000000000604482015290519081900360640190fd5b60028414611a95576040805162461bcd60e51b815260206004820152601460248201527f54776f20616d6f756e7473207265717569726564000000000000000000000000604482015290519081900360640190fd5b600087876000818110611aa457fe5b905060200201356001600160a01b031688886001818110611ac157fe5b905060200201356001600160a01b03168a88886000818110611adf57fe5b9050602002013589896001818110611af357fe5b905060200201358f611b317f000000000000000000000000000000000000000000000000000000000000000060ff164261205190919063ffffffff16565b604080516001600160a01b03988916602482015296881660448801526064870195909552608486019390935260a4850191909152841660c484015260e4808401919091528151808403909101815261010490920190526020810180517bffffffffffffffffffffffffffffffffffffffffffffffffffffffff167fbaa2abde000000000000000000000000000000000000000000000000000000001790526003549091169450600093509150509750975097945050505050565b6000611bfc8260400151600c612045565b90508160a001518260c001510382606001516001600160a01b03166370a0823184602001516040518263ffffffff1660e01b815260040180826001600160a01b0316815260200191505060206040518083038186803b158015611c5e57600080fd5b505afa158015611c72573d6000803e3d6000fd5b505050506040513d6020811015611c8857600080fd5b505114611cc65760405162461bcd60e51b815260040180806020018281038252602b8152602001806123aa602b913960400191505060405180910390fd5b5050565b611cd78160400151611679565b611d28576040805162461bcd60e51b815260206004820152601d60248201527f54686520706f6f6c2061646472657373206973206e6f742076616c6964000000604482015290519081900360640190fd5b60008160a00151116119d25760405162461bcd60e51b81526004018080602001828103825260318152602001806122f26031913960400191505060405180910390fd5b600080606060028614611dc5576040805162461bcd60e51b815260206004820152601360248201527f54776f20746f6b656e7320726571756972656400000000000000000000000000604482015290519081900360640190fd5b60028414611e1a576040805162461bcd60e51b815260206004820152601460248201527f54776f20616d6f756e7473207265717569726564000000000000000000000000604482015290519081900360640190fd5b6003546001600160a01b03166000611e358d8a8a8a8a612061565b925092509250985098509895505050505050565b8082038281111561084c57600080fd5b6000611e6a8260400151600c612045565b90508160c0015182606001516001600160a01b03166370a0823184602001516040518263ffffffff1660e01b815260040180826001600160a01b0316815260200191505060206040518083038186803b158015611ec657600080fd5b505afa158015611eda573d6000803e3d6000fd5b505050506040513d6020811015611ef057600080fd5b505111611cc65760405162461bcd60e51b815260040180806020018281038252602c815260200180612351602c913960400191505060405180910390fd5b6000821580611f4957505081810281838281611f4657fe5b04145b61084c57600080fd5b6000808211611fa8576040805162461bcd60e51b815260206004820152601a60248201527f536166654d6174683a206469766973696f6e206279207a65726f000000000000604482015290519081900360640190fd5b818381611fb157fe5b049392505050565b6000611fd1670de0b6b3a76400006114668585611f2e565b9392505050565b6000816001600160a01b03166318160ddd6040518163ffffffff1660e01b815260040160206040518083038186803b15801561201357600080fd5b505afa158015612027573d6000803e3d6000fd5b505050506040513d602081101561203d57600080fd5b505192915050565b6000611fd1838361221d565b8082018281101561084c57600080fd5b60608484600081811061207057fe5b905060200201356001600160a01b03168585600181811061208d57fe5b905060200201356001600160a01b0316848460008181106120aa57fe5b90506020020135858560018181106120be57fe5b905060200201356121176120f566b1a2bc2ec50000898960008181106120e057fe5b90506020020135611fb990919063ffffffff16565b8888600081811061210257fe5b90506020020135611e4990919063ffffffff16565b61213f61213266b1a2bc2ec500008a8a60018181106120e057fe5b8989600181811061210257fe5b8b61216d4260ff7f000000000000000000000000000000000000000000000000000000000000000016612051565b604080516001600160a01b03998a16602482015297891660448901526064880196909652608487019490945260a486019290925260c485015290931660e4830152610104808301939093528051808303909301835261012490910190526020810180517bffffffffffffffffffffffffffffffffffffffffffffffffffffffff167fe8e3370000000000000000000000000000000000000000000000000000000000179052905095945050505050565b60008160140183511015612278576040805162461bcd60e51b815260206004820152601560248201527f746f416464726573735f6f75744f66426f756e64730000000000000000000000604482015290519081900360640190fd5b5001602001516c01000000000000000000000000900490565b60405180610100016040528060006001600160a01b0316815260200160006001600160a01b031681526020016060815260200160006001600160a01b0316815260200160008152602001600081526020016000815260200160608152509056fe4d696e20706f6f6c20746f6b656e7320746f2072656365697665206d7573742062652067726561746572207468616e2030506f6f6c20746f6b656e7320746f2065786368616e6765206d7573742062652067726561746572207468616e203054686520737472617465677920646964206e6f7420726563656976652074686520706f6f6c20746f6b656e7354686520737472617465677920646f6573206e6f74206861766520656e6f75676820706f6f6c20746f6b656e7354686520737472617465677920646964206e6f742072657475726e2074686520706f6f6c20746f6b656e73a2646970667358221220c4a4d5ee1faae258fbba86acd9decbf14f70a5b7238931d1e2d5b1df0d40c93e64736f6c63430007060033",
  "devdoc": {
    "author": "Babylon Finance Protocol UniswapPoolIntegration protocol integration",
    "kind": "dev",
    "methods": {
      "constructor": {
        "params": {
          "_controller": "Address of the controller",
          "_uniswapRouterAddress": "Address of Uniswap router"
        }
      },
      "exitPool(address,bytes,uint256,address[],uint256[])": {
        "params": {
          "_minAmountsOut": "Array of min token quantities to receive from the pool",
          "_pool": "Pool info e.g. PoolId or Address of the pool token to join + metadata",
          "_poolTokensIn": "Pool tokens to exchange for the underlying tokens",
          "_strategy": "Address of the strategy",
          "_tokensOut": "Array of token addresses to withdraw"
        }
      },
      "getLPToken(address)": {
        "params": {
          "_pool": "Address of the pool"
        },
        "returns": {
          "_0": "address                 Address of the LP token"
        }
      },
      "getPool(address)": {
        "params": {
          "_pool": "Address of the maybe pool"
        },
        "returns": {
          "_0": "address                 Address of the pool itself"
        }
      },
      "isPool(bytes)": {
        "params": {
          "_pool": "OpData e.g. Pool address to check"
        },
        "returns": {
          "_0": "bool                 True if the address is a pool"
        }
      },
      "joinPool(address,bytes,uint256,address[],uint256[])": {
        "params": {
          "_maxAmountsIn": "Array of max token quantities to pull out from the garden",
          "_pool": "OpData e.g. Address of the pool token to join",
          "_poolTokensOut": "Min amount of pool tokens to receive",
          "_strategy": "Address of the strategy",
          "_tokensIn": "Array of token addresses to deposit"
        }
      },
      "totalSupply(address)": {
        "params": {
          "_pool": "Address of the pool"
        },
        "returns": {
          "_0": "address                 Total supply of the token"
        }
      }
    },
    "title": "BalancerIntegration",
    "version": 1
  },
  "userdoc": {
    "kind": "user",
    "methods": {
      "constructor": {
        "notice": "Creates the integration"
      },
      "exitPool(address,bytes,uint256,address[],uint256[])": {
        "notice": "Exits a liquidity pool. Accrue protocol fee (if any)"
      },
      "getLPToken(address)": {
        "notice": "Returns the actual address of the LP token. Different for curve."
      },
      "getName()": {
        "notice": "Returns the name of the integration"
      },
      "getPool(address)": {
        "notice": "Gets the underlying pool that holds the internal tokens. Different for curve."
      },
      "isPool(bytes)": {
        "notice": "Checks whether a pool address is valid"
      },
      "joinPool(address,bytes,uint256,address[],uint256[])": {
        "notice": "Joins a pool"
      },
      "totalSupply(address)": {
        "notice": "Returns the total supply of the pool tokens"
      }
    },
    "version": 1
  },
  "storageLayout": {
    "storage": [
      {
        "astId": 19406,
        "contract": "contracts/integrations/pool/UniswapPoolIntegration.sol:UniswapPoolIntegration",
        "label": "controller",
        "offset": 0,
        "slot": "0",
        "type": "t_contract(IBabController)28639"
      },
      {
        "astId": 19411,
        "contract": "contracts/integrations/pool/UniswapPoolIntegration.sol:UniswapPoolIntegration",
        "label": "name",
        "offset": 0,
        "slot": "1",
        "type": "t_string_storage"
      },
      {
        "astId": 6418,
        "contract": "contracts/integrations/pool/UniswapPoolIntegration.sol:UniswapPoolIntegration",
        "label": "_status",
        "offset": 0,
        "slot": "2",
        "type": "t_uint256"
      },
      {
        "astId": 26931,
        "contract": "contracts/integrations/pool/UniswapPoolIntegration.sol:UniswapPoolIntegration",
        "label": "uniRouter",
        "offset": 0,
        "slot": "3",
        "type": "t_contract(IUniswapV2Router)32746"
      }
    ],
    "types": {
      "t_contract(IBabController)28639": {
        "encoding": "inplace",
        "label": "contract IBabController",
        "numberOfBytes": "20"
      },
      "t_contract(IUniswapV2Router)32746": {
        "encoding": "inplace",
        "label": "contract IUniswapV2Router",
        "numberOfBytes": "20"
      },
      "t_string_storage": {
        "encoding": "bytes",
        "label": "string",
        "numberOfBytes": "32"
      },
      "t_uint256": {
        "encoding": "inplace",
        "label": "uint256",
        "numberOfBytes": "32"
      }
    }
  }
}