{
  "address": "0xDB1Bf4f4976A4BEd769B9106bd41E0211E342446",
  "abi": [
    {
      "inputs": [
        {
          "internalType": "address",
          "name": "_controller",
          "type": "address"
        },
        {
          "internalType": "address",
          "name": "_factory",
          "type": "address"
        }
      ],
      "stateMutability": "nonpayable",
      "type": "constructor"
    },
    {
      "anonymous": false,
      "inputs": [
        {
          "indexed": true,
          "internalType": "address",
          "name": "previousOwner",
          "type": "address"
        },
        {
          "indexed": true,
          "internalType": "address",
          "name": "newOwner",
          "type": "address"
        }
      ],
      "name": "OwnershipTransferred",
      "type": "event"
    },
    {
      "inputs": [],
      "name": "SECONDS_GRANULARITY",
      "outputs": [
        {
          "internalType": "uint32",
          "name": "",
          "type": "uint32"
        }
      ],
      "stateMutability": "view",
      "type": "function"
    },
    {
      "inputs": [],
      "name": "WETH",
      "outputs": [
        {
          "internalType": "address",
          "name": "",
          "type": "address"
        }
      ],
      "stateMutability": "view",
      "type": "function"
    },
    {
      "inputs": [],
      "name": "controller",
      "outputs": [
        {
          "internalType": "contract IBabController",
          "name": "",
          "type": "address"
        }
      ],
      "stateMutability": "view",
      "type": "function"
    },
    {
      "inputs": [],
      "name": "factory",
      "outputs": [
        {
          "internalType": "contract IUniswapV3Factory",
          "name": "",
          "type": "address"
        }
      ],
      "stateMutability": "view",
      "type": "function"
    },
    {
      "inputs": [
        {
          "internalType": "address",
          "name": "tokenIn",
          "type": "address"
        },
        {
          "internalType": "address",
          "name": "tokenOut",
          "type": "address"
        }
      ],
      "name": "getPrice",
      "outputs": [
        {
          "internalType": "bool",
          "name": "found",
          "type": "bool"
        },
        {
          "internalType": "uint256",
          "name": "amountOut",
          "type": "uint256"
        }
      ],
      "stateMutability": "view",
      "type": "function"
    },
    {
      "inputs": [],
      "name": "name",
      "outputs": [
        {
          "internalType": "string",
          "name": "",
          "type": "string"
        }
      ],
      "stateMutability": "view",
      "type": "function"
    },
    {
      "inputs": [],
      "name": "owner",
      "outputs": [
        {
          "internalType": "address",
          "name": "",
          "type": "address"
        }
      ],
      "stateMutability": "view",
      "type": "function"
    },
    {
      "inputs": [],
      "name": "renounceOwnership",
      "outputs": [],
      "stateMutability": "nonpayable",
      "type": "function"
    },
    {
      "inputs": [
        {
          "internalType": "uint256",
          "name": "",
          "type": "uint256"
        }
      ],
      "name": "secondsAgo",
      "outputs": [
        {
          "internalType": "uint32",
          "name": "",
          "type": "uint32"
        }
      ],
      "stateMutability": "view",
      "type": "function"
    },
    {
      "inputs": [
        {
          "internalType": "address",
          "name": "newOwner",
          "type": "address"
        }
      ],
      "name": "transferOwnership",
      "outputs": [],
      "stateMutability": "nonpayable",
      "type": "function"
    },
    {
      "inputs": [
        {
          "internalType": "address",
          "name": "tokenA",
          "type": "address"
        },
        {
          "internalType": "address",
          "name": "tokenB",
          "type": "address"
        }
      ],
      "name": "update",
      "outputs": [],
      "stateMutability": "nonpayable",
      "type": "function"
    }
  ],
  "transactionHash": "0xfecda232fa57ec696d2b4cbc05f3fb530b78903d682c8d5a0bb105d884b60080",
  "args": [
    "0xD4a5b5fcB561dAF3aDF86F8477555B92FBa43b5F",
    "0x1F98431c8aD98523631AE4a59f267346ea31F984"
  ],
  "solcInputHash": "bd873b418320faeabd457a4fe7c7c19d",
  "bytecode": "0x600260a0818152610100604052908160200160208202803683375050815162000030926002925060200190620001b8565b5060038054606462ffffff19909116176301000000600160b81b03191663320000001762ffffff60b81b1916607d60bb1b1790553480156200007157600080fd5b506040516200129738038062001297833981810160405260408110156200009757600080fd5b5080516020909101516000620000ac620001b4565b600080546001600160a01b0319166001600160a01b0383169081178255604051929350917f8be0079c531659141344cd1fd0a4f28419497f9722a3daafe3b4186f6b6457e0908290a350606081901b6001600160601b031916608052600180546001600160a01b0319166001600160a01b03841617905560028054601e91906000906200013557fe5b90600052602060002090600891828204019190066004026101000a81548163ffffffff021916908363ffffffff160217905550600060026001815481106200017957fe5b90600052602060002090600891828204019190066004026101000a81548163ffffffff021916908363ffffffff160217905550505062000285565b3390565b828054828255906000526020600020906007016008900481019282156200025c5791602002820160005b838211156200022857835183826101000a81548163ffffffff021916908363ffffffff1602179055509260200192600401602081600301049283019260010302620001e2565b80156200025a5782816101000a81549063ffffffff021916905560040160208160030104928301926001030262000228565b505b506200026a9291506200026e565b5090565b5b808211156200026a57600081556001016200026f565b60805160601c610fe5620002b2600039806103c45280610541528061067c528061097c5250610fe56000f3fe608060405234801561001057600080fd5b50600436106100c95760003560e01c8063ad5c464811610081578063d9db84641161005b578063d9db846414610236578063f2fde38b1461023e578063f77c479114610264576100c9565b8063ad5c4648146101f8578063c45a015514610200578063c640752d14610208576100c9565b80638da5cb5b116100b25780638da5cb5b146101555780639eb2f94c14610179578063ac41865a146101af576100c9565b806306fdde03146100ce578063715018a61461014b575b600080fd5b6100d661026c565b6040805160208082528351818301528351919283929083019185019080838360005b838110156101105781810151838201526020016100f8565b50505050905090810190601f16801561013d5780820380516001836020036101000a031916815260200191505b509250505060405180910390f35b6101536102a5565b005b61015d610370565b604080516001600160a01b039092168252519081900360200190f35b6101966004803603602081101561018f57600080fd5b503561037f565b6040805163ffffffff9092168252519081900360200190f35b6101dd600480360360408110156101c557600080fd5b506001600160a01b03813581169160200135166103b9565b60408051921515835260208301919091528051918290030190f35b61015d610962565b61015d61097a565b6101536004803603604081101561021e57600080fd5b506001600160a01b038135811691602001351661099e565b6101966109a2565b6101536004803603602081101561025457600080fd5b50356001600160a01b03166109a7565b61015d610ac8565b6040518060400160405280600d81526020017f756e69737761705477617056330000000000000000000000000000000000000081525081565b6102ad610ad7565b6001600160a01b03166102be610370565b6001600160a01b031614610319576040805162461bcd60e51b815260206004820181905260248201527f4f776e61626c653a2063616c6c6572206973206e6f7420746865206f776e6572604482015290519081900360640190fd5b600080546040516001600160a01b03909116907f8be0079c531659141344cd1fd0a4f28419497f9722a3daafe3b4186f6b6457e0908390a36000805473ffffffffffffffffffffffffffffffffffffffff19169055565b6000546001600160a01b031690565b6002818154811061038f57600080fd5b9060005260206000209060089182820401919006600402915054906101000a900463ffffffff1681565b6000806000806000807f00000000000000000000000000000000000000000000000000000000000000006001600160a01b0316631698ee8289896101f46040518463ffffffff1660e01b815260040180846001600160a01b03168152602001836001600160a01b031681526020018262ffffff168152602001935050505060206040518083038186803b15801561044f57600080fd5b505afa158015610463573d6000803e3d6000fd5b505050506040513d602081101561047957600080fd5b505190506001600160a01b0381161561050a57806001600160a01b0316633850c7bd6040518163ffffffff1660e01b815260040160e06040518083038186803b1580156104c557600080fd5b505afa1580156104d9573d6000803e3d6000fd5b505050506040513d60e08110156104ef57600080fd5b50805160209091015190945092506105078382610adb565b91505b816106455760408051630b4c774160e11b81526001600160a01b038a811660048301528981166024830152610bb8604483015291517f000000000000000000000000000000000000000000000000000000000000000090921691631698ee8291606480820192602092909190829003018186803b15801561058a57600080fd5b505afa15801561059e573d6000803e3d6000fd5b505050506040513d60208110156105b457600080fd5b505190506001600160a01b0381161561064557806001600160a01b0316633850c7bd6040518163ffffffff1660e01b815260040160e06040518083038186803b15801561060057600080fd5b505afa158015610614573d6000803e3d6000fd5b505050506040513d60e081101561062a57600080fd5b50805160209091015190945092506106428382610adb565b91505b816107805760408051630b4c774160e11b81526001600160a01b038a811660048301528981166024830152612710604483015291517f000000000000000000000000000000000000000000000000000000000000000090921691631698ee8291606480820192602092909190829003018186803b1580156106c557600080fd5b505afa1580156106d9573d6000803e3d6000fd5b505050506040513d60208110156106ef57600080fd5b505190506001600160a01b0381161561078057806001600160a01b0316633850c7bd6040518163ffffffff1660e01b815260040160e06040518083038186803b15801561073b57600080fd5b505afa15801561074f573d6000803e3d6000fd5b505050506040513d60e081101561076557600080fd5b508051602090910151909450925061077d8382610adb565b91505b8161079557600080955095505050505061095b565b600060c06108a7836001600160a01b0316630dfe16816040518163ffffffff1660e01b815260040160206040518083038186803b1580156107d557600080fd5b505afa1580156107e9573d6000803e3d6000fd5b505050506040513d60208110156107ff57600080fd5b5051604080517f313ce56700000000000000000000000000000000000000000000000000000000815290516001600160a01b039092169163313ce56791600480820192602092909190829003018186803b15801561085c57600080fd5b505afa158015610870573d6000803e3d6000fd5b505050506040513d602081101561088657600080fd5b505160ff16600a0a6108a16001600160a01b03891680610bec565b90610bec565b901c9050876001600160a01b0316826001600160a01b0316630dfe16816040518163ffffffff1660e01b815260040160206040518083038186803b1580156108ee57600080fd5b505afa158015610902573d6000803e3d6000fd5b505050506040513d602081101561091857600080fd5b50516001600160a01b0316141561094b57600161093d670de0b6b3a764000083610c4c565b96509650505050505061095b565b60019650945061095b9350505050565b9250929050565b73c02aaa39b223fe8d0a0e5c4f27ead9083c756cc281565b7f000000000000000000000000000000000000000000000000000000000000000081565b5050565b601e81565b6109af610ad7565b6001600160a01b03166109c0610370565b6001600160a01b031614610a1b576040805162461bcd60e51b815260206004820181905260248201527f4f776e61626c653a2063616c6c6572206973206e6f7420746865206f776e6572604482015290519081900360640190fd5b6001600160a01b038116610a605760405162461bcd60e51b8152600401808060200182810382526026815260200180610f696026913960400191505060405180910390fd5b600080546040516001600160a01b03808516939216917f8be0079c531659141344cd1fd0a4f28419497f9722a3daafe3b4186f6b6457e091a36000805473ffffffffffffffffffffffffffffffffffffffff19166001600160a01b0392909216919091179055565b6001546001600160a01b031681565b3390565b600080826001600160a01b031663d0c93a7c6040518163ffffffff1660e01b815260040160206040518083038186803b158015610b1757600080fd5b505afa158015610b2b573d6000803e3d6000fd5b505050506040513d6020811015610b4157600080fd5b5051600354909150600160b81b9004600290810b8201620d89e71901810b9085900b1215610b73576000915050610be6565b600354600160b81b9004600290810b620d89e803829003810b9085900b1315610ba0576000915050610be6565b6000610bab84610c6a565b50905060008160060b8660020b13610bc8578560020b8203610bcf565b818660020b035b600354600290810b900b60069190910b1293505050505b92915050565b600082610bfb57506000610be6565b82820282848281610c0857fe5b0414610c455760405162461bcd60e51b8152600401808060200182810382526021815260200180610f8f6021913960400191505060405180910390fd5b9392505050565b6000610c4582610c6485670de0b6b3a7640000610bec565b90610f01565b600080600080846001600160a01b031663883bdbfd60026040518263ffffffff1660e01b815260040180806020018281038252838181548152602001915080548015610d0157602002820191906000526020600020906000905b82829054906101000a900463ffffffff1663ffffffff1681526020019060040190602082600301049283019260010382029150808411610cc45790505b50509250505060006040518083038186803b158015610d1f57600080fd5b505afa158015610d33573d6000803e3d6000fd5b505050506040513d6000823e601f3d908101601f191682016040908152811015610d5c57600080fd5b8101908080516040519392919084640100000000821115610d7c57600080fd5b908301906020820185811115610d9157600080fd5b8251866020820283011164010000000082111715610dae57600080fd5b82525081516020918201928201910280838360005b83811015610ddb578181015183820152602001610dc3565b5050505090500160405260200180516040519392919084640100000000821115610e0457600080fd5b908301906020820185811115610e1957600080fd5b8251866020820283011164010000000082111715610e3657600080fd5b82525081516020918201928201910280838360005b83811015610e63578181015183820152602001610e4b565b5050505090500160405250505091509150601e63ffffffff1681600081518110610e8957fe5b602002602001015182600181518110610e9e57fe5b6020026020010151036001600160a01b031681610eb757fe5b049250601e63ffffffff1682600081518110610ecf57fe5b602002602001015183600181518110610ee457fe5b60200260200101510360060b81610ef757fe5b0593505050915091565b6000808211610f57576040805162461bcd60e51b815260206004820152601a60248201527f536166654d6174683a206469766973696f6e206279207a65726f000000000000604482015290519081900360640190fd5b818381610f6057fe5b04939250505056fe4f776e61626c653a206e6577206f776e657220697320746865207a65726f2061646472657373536166654d6174683a206d756c7469706c69636174696f6e206f766572666c6f77a2646970667358221220f9c67ef33be9f60461e5a9e5af2f5982c1177cd2b69506b93294ec270ac488c264736f6c63430007060033",
  "devdoc": {
    "author": "Babylon Finance Protocol Uses uniswap V3 to get the price of a token pair",
    "kind": "dev",
    "methods": {
      "constructor": {
        "params": {
          "_controller": "Instance of controller contract",
          "_factory": "Address of Uniswap factory"
        }
      },
      "getPrice(address,address)": {
        "params": {
          "tokenIn": "Address of the first token",
          "tokenOut": "Address of the second token"
        },
        "returns": {
          "amountOut": "           How many tokenOut are one tokenIn",
          "found": "              Whether or not the price as found"
        }
      },
      "owner()": {
        "details": "Returns the address of the current owner."
      },
      "renounceOwnership()": {
        "details": "Leaves the contract without owner. It will not be possible to call `onlyOwner` functions anymore. Can only be called by the current owner. NOTE: Renouncing ownership will leave the contract without an owner, thereby removing any functionality that is only available to the owner."
      },
      "transferOwnership(address)": {
        "details": "Transfers ownership of the contract to a new account (`newOwner`). Can only be called by the current owner."
      }
    },
    "title": "UniswapTWAPV3",
    "version": 1
  },
  "userdoc": {
    "kind": "user",
    "methods": {
      "constructor": {
        "notice": "Set state variables"
      },
      "getPrice(address,address)": {
        "notice": "Returns the amount out corresponding to the amount in for a given token"
      }
    },
    "version": 1
  },
  "storageLayout": {
    "storage": [
      {
        "astId": 1456,
        "contract": "contracts/oracle_adapter/UniswapTWAPV3.sol:UniswapTWAPV3",
        "label": "_owner",
        "offset": 0,
        "slot": "0",
        "type": "t_address"
      },
      {
        "astId": 28349,
        "contract": "contracts/oracle_adapter/UniswapTWAPV3.sol:UniswapTWAPV3",
        "label": "controller",
        "offset": 0,
        "slot": "1",
        "type": "t_contract(IBabController)22767"
      },
      {
        "astId": 28365,
        "contract": "contracts/oracle_adapter/UniswapTWAPV3.sol:UniswapTWAPV3",
        "label": "secondsAgo",
        "offset": 0,
        "slot": "2",
        "type": "t_array(t_uint32)dyn_storage"
      },
      {
        "astId": 28380,
        "contract": "contracts/oracle_adapter/UniswapTWAPV3.sol:UniswapTWAPV3",
        "label": "maxTwapDeviation",
        "offset": 0,
        "slot": "3",
        "type": "t_int24"
      },
      {
        "astId": 28383,
        "contract": "contracts/oracle_adapter/UniswapTWAPV3.sol:UniswapTWAPV3",
        "label": "maxLiquidityDeviationFactor",
        "offset": 3,
        "slot": "3",
        "type": "t_uint160"
      },
      {
        "astId": 28386,
        "contract": "contracts/oracle_adapter/UniswapTWAPV3.sol:UniswapTWAPV3",
        "label": "baseThreshold",
        "offset": 23,
        "slot": "3",
        "type": "t_int24"
      }
    ],
    "types": {
      "t_address": {
        "encoding": "inplace",
        "label": "address",
        "numberOfBytes": "20"
      },
      "t_array(t_uint32)dyn_storage": {
        "base": "t_uint32",
        "encoding": "dynamic_array",
        "label": "uint32[]",
        "numberOfBytes": "32"
      },
      "t_contract(IBabController)22767": {
        "encoding": "inplace",
        "label": "contract IBabController",
        "numberOfBytes": "20"
      },
      "t_int24": {
        "encoding": "inplace",
        "label": "int24",
        "numberOfBytes": "3"
      },
      "t_uint160": {
        "encoding": "inplace",
        "label": "uint160",
        "numberOfBytes": "20"
      },
      "t_uint32": {
        "encoding": "inplace",
        "label": "uint32",
        "numberOfBytes": "4"
      }
    }
  }
}