{
  "address": "0x4d622957e49c1E7F5CdF0aaE5Bb02297ef884C87",
  "abi": [
    {
      "inputs": [
        {
          "internalType": "address",
          "name": "_controller",
          "type": "address"
        },
        {
          "internalType": "address",
          "name": "_factory",
          "type": "address"
        },
        {
          "internalType": "uint256",
          "name": "_windowSize",
          "type": "uint256"
        },
        {
          "internalType": "uint8",
          "name": "_granularity",
          "type": "uint8"
        }
      ],
      "stateMutability": "nonpayable",
      "type": "constructor"
    },
    {
      "anonymous": false,
      "inputs": [
        {
          "indexed": true,
          "internalType": "address",
          "name": "previousOwner",
          "type": "address"
        },
        {
          "indexed": true,
          "internalType": "address",
          "name": "newOwner",
          "type": "address"
        }
      ],
      "name": "OwnershipTransferred",
      "type": "event"
    },
    {
      "inputs": [],
      "name": "controller",
      "outputs": [
        {
          "internalType": "contract IBabController",
          "name": "",
          "type": "address"
        }
      ],
      "stateMutability": "view",
      "type": "function"
    },
    {
      "inputs": [],
      "name": "factory",
      "outputs": [
        {
          "internalType": "address",
          "name": "",
          "type": "address"
        }
      ],
      "stateMutability": "view",
      "type": "function"
    },
    {
      "inputs": [
        {
          "internalType": "address",
          "name": "tokenIn",
          "type": "address"
        },
        {
          "internalType": "address",
          "name": "tokenOut",
          "type": "address"
        }
      ],
      "name": "getPrice",
      "outputs": [
        {
          "internalType": "bool",
          "name": "found",
          "type": "bool"
        },
        {
          "internalType": "uint256",
          "name": "amountOut",
          "type": "uint256"
        }
      ],
      "stateMutability": "view",
      "type": "function"
    },
    {
      "inputs": [],
      "name": "granularity",
      "outputs": [
        {
          "internalType": "uint8",
          "name": "",
          "type": "uint8"
        }
      ],
      "stateMutability": "view",
      "type": "function"
    },
    {
      "inputs": [],
      "name": "name",
      "outputs": [
        {
          "internalType": "string",
          "name": "",
          "type": "string"
        }
      ],
      "stateMutability": "view",
      "type": "function"
    },
    {
      "inputs": [
        {
          "internalType": "uint256",
          "name": "timestamp",
          "type": "uint256"
        }
      ],
      "name": "observationIndexOf",
      "outputs": [
        {
          "internalType": "uint8",
          "name": "index",
          "type": "uint8"
        }
      ],
      "stateMutability": "view",
      "type": "function"
    },
    {
      "inputs": [],
      "name": "owner",
      "outputs": [
        {
          "internalType": "address",
          "name": "",
          "type": "address"
        }
      ],
      "stateMutability": "view",
      "type": "function"
    },
    {
      "inputs": [
        {
          "internalType": "address",
          "name": "",
          "type": "address"
        },
        {
          "internalType": "uint256",
          "name": "",
          "type": "uint256"
        }
      ],
      "name": "pairObservations",
      "outputs": [
        {
          "internalType": "uint256",
          "name": "timestamp",
          "type": "uint256"
        },
        {
          "internalType": "uint256",
          "name": "price0Cumulative",
          "type": "uint256"
        },
        {
          "internalType": "uint256",
          "name": "price1Cumulative",
          "type": "uint256"
        }
      ],
      "stateMutability": "view",
      "type": "function"
    },
    {
      "inputs": [],
      "name": "periodSize",
      "outputs": [
        {
          "internalType": "uint256",
          "name": "",
          "type": "uint256"
        }
      ],
      "stateMutability": "view",
      "type": "function"
    },
    {
      "inputs": [],
      "name": "renounceOwnership",
      "outputs": [],
      "stateMutability": "nonpayable",
      "type": "function"
    },
    {
      "inputs": [
        {
          "internalType": "address",
          "name": "newOwner",
          "type": "address"
        }
      ],
      "name": "transferOwnership",
      "outputs": [],
      "stateMutability": "nonpayable",
      "type": "function"
    },
    {
      "inputs": [
        {
          "internalType": "address",
          "name": "tokenA",
          "type": "address"
        },
        {
          "internalType": "address",
          "name": "tokenB",
          "type": "address"
        }
      ],
      "name": "update",
      "outputs": [],
      "stateMutability": "nonpayable",
      "type": "function"
    },
    {
      "inputs": [],
      "name": "windowSize",
      "outputs": [
        {
          "internalType": "uint256",
          "name": "",
          "type": "uint256"
        }
      ],
      "stateMutability": "view",
      "type": "function"
    }
  ],
  "transactionHash": "0x4cb55e2006d1df4a285c489d0ac047f9ac51b6b9e840d5a72164e42da4f21dda",
  "args": [
    "0xffe7c30daDb1B132b86aB7bbede496615d54c8Ac",
    "0x5C69bEe701ef814a2B6a3EDD4B1652CB9cc5aA6f",
    14400,
    16
  ],
  "solcInputHash": "a02a2075cf667a20c416d2d0a5e8f337",
  "bytecode": "0x61010060405234801561001157600080fd5b506040516116113803806116118339818101604052608081101561003457600080fd5b508051602082015160408301516060909301519192909160006100556101af565b600080546001600160a01b0319166001600160a01b0383169081178255604051929350917f8be0079c531659141344cd1fd0a4f28419497f9722a3daafe3b4186f6b6457e0908290a35060018160ff16116100f7576040805162461bcd60e51b815260206004820181905260248201527f536c6964696e6757696e646f774f7261636c653a204752414e554c4152495459604482015290519081900360640190fd5b8160ff821680828161010557fe5b0460e081905202146101485760405162461bcd60e51b81526004018080602001828103825260308152602001806115e16030913960400191505060405180910390fd5b60609290921b6001600160601b031916608052600180546001600160a01b0319166001600160a01b03949094169390931790925560a09190915260f81b7fff000000000000000000000000000000000000000000000000000000000000001660c0526101b3565b3390565b60805160601c60a05160c05160f81c60e0516113c1610220600039806104e3528061072c528061077f52806107df52508061031e528061068952806107ab5280610a1f52508061040d52806104845280610507525080610448528061061b528061064452506113c16000f3fe608060405234801561001057600080fd5b50600436106100df5760003560e01c8063bfcc8e421161008c578063dbaad32f11610066578063dbaad32f14610290578063e4463eb2146102ad578063f2fde38b146102b5578063f77c4791146102db576100df565b8063bfcc8e4214610210578063c45a01551461025a578063c640752d14610262576100df565b80638a14117a116100bd5780638a14117a146101895780638da5cb5b146101a3578063ac41865a146101c7576100df565b806306fdde03146100e4578063556f0dc714610161578063715018a61461017f575b600080fd5b6100ec6102e3565b6040805160208082528351818301528351919283929083019185019080838360005b8381101561012657818101518382015260200161010e565b50505050905090810190601f1680156101535780820380516001836020036101000a031916815260200191505b509250505060405180910390f35b61016961031c565b6040805160ff9092168252519081900360200190f35b610187610340565b005b61019161040b565b60408051918252519081900360200190f35b6101ab61042f565b604080516001600160a01b039092168252519081900360200190f35b6101f5600480360360408110156101dd57600080fd5b506001600160a01b038135811691602001351661043e565b60408051921515835260208301919091528051918290030190f35b61023c6004803603604081101561022657600080fd5b506001600160a01b0381351690602001356105d7565b60408051938452602084019290925282820152519081900360600190f35b6101ab610619565b6101876004803603604081101561027857600080fd5b506001600160a01b038135811691602001351661063d565b610169600480360360208110156102a657600080fd5b503561077a565b6101916107dd565b610187600480360360208110156102cb57600080fd5b50356001600160a01b0316610801565b6101ab610922565b6040518060400160405280600b81526020017f756e69737761705477617000000000000000000000000000000000000000000081525081565b7f000000000000000000000000000000000000000000000000000000000000000081565b610348610931565b6001600160a01b031661035961042f565b6001600160a01b0316146103b4576040805162461bcd60e51b815260206004820181905260248201527f4f776e61626c653a2063616c6c6572206973206e6f7420746865206f776e6572604482015290519081900360640190fd5b600080546040516001600160a01b03909116907f8be0079c531659141344cd1fd0a4f28419497f9722a3daafe3b4186f6b6457e0908390a36000805473ffffffffffffffffffffffffffffffffffffffff19169055565b7f000000000000000000000000000000000000000000000000000000000000000081565b6000546001600160a01b031690565b600080600061046e7f00000000000000000000000000000000000000000000000000000000000000008686610935565b9050600061047b82610a0d565b805490915042037f00000000000000000000000000000000000000000000000000000000000000008111156104e15760405162461bcd60e51b815260040180806020018281038252603381526020018061129b6033913960400191505060405180910390fd5b7f00000000000000000000000000000000000000000000000000000000000000006002027f0000000000000000000000000000000000000000000000000000000000000000038110156105655760405162461bcd60e51b815260040180806020018281038252602c8152602001806112f4602c913960400191505060405180910390fd5b60008061057185610a9c565b509150915060006105828a8a610cd2565b509050896001600160a01b0316816001600160a01b031614156105bf5760016105b086600101548587610da9565b975097505050505050506105d0565b60016105b086600201548487610da9565b9250929050565b600260205281600052604060002081815481106105f357600080fd5b600091825260209091206003909102018054600182015460029092015490935090915083565b7f000000000000000000000000000000000000000000000000000000000000000081565b600061066a7f00000000000000000000000000000000000000000000000000000000000000008484610935565b6001600160a01b0381166000908152600260205260409020549091505b7f000000000000000000000000000000000000000000000000000000000000000060ff168110156106db576001600160a01b0382166000908152600260205260408120805460019081018255915201610687565b5060006106e74261077a565b6001600160a01b03831660009081526002602052604081208054929350909160ff841690811061071357fe5b60009182526020909120600390910201805490915042037f00000000000000000000000000000000000000000000000000000000000000008111156107725760008061075e86610a9c565b504286556001860191909155600285015550505b505050505050565b6000807f000000000000000000000000000000000000000000000000000000000000000083816107a657fe5b0490507f000000000000000000000000000000000000000000000000000000000000000060ff1681816107d557fe5b069392505050565b7f000000000000000000000000000000000000000000000000000000000000000081565b610809610931565b6001600160a01b031661081a61042f565b6001600160a01b031614610875576040805162461bcd60e51b815260206004820181905260248201527f4f776e61626c653a2063616c6c6572206973206e6f7420746865206f776e6572604482015290519081900360640190fd5b6001600160a01b0381166108ba5760405162461bcd60e51b81526004018080602001828103825260268152602001806112ce6026913960400191505060405180910390fd5b600080546040516001600160a01b03808516939216917f8be0079c531659141344cd1fd0a4f28419497f9722a3daafe3b4186f6b6457e091a36000805473ffffffffffffffffffffffffffffffffffffffff19166001600160a01b0392909216919091179055565b6001546001600160a01b031681565b3390565b60008060006109448585610cd2565b604080516bffffffffffffffffffffffff19606094851b811660208084019190915293851b81166034830152825160288184030181526048830184528051908501207fff0000000000000000000000000000000000000000000000000000000000000060688401529a90941b9093166069840152607d8301989098527f96e8ac4277198ff8b6f785478aa9a39f403cb768dd02cbee326c3e7da348845f609d808401919091528851808403909101815260bd909201909752805196019590952095945050505050565b600080610a194261077a565b905060007f000000000000000000000000000000000000000000000000000000000000000060ff168260010160ff1681610a4f57fe5b06905060026000856001600160a01b03166001600160a01b031681526020019081526020016000208160ff1681548110610a8557fe5b906000526020600020906003020192505050919050565b6000806000610aa9610e0d565b9050836001600160a01b0316635909c0d56040518163ffffffff1660e01b815260040160206040518083038186803b158015610ae457600080fd5b505afa158015610af8573d6000803e3d6000fd5b505050506040513d6020811015610b0e57600080fd5b5051604080517f5a3d549300000000000000000000000000000000000000000000000000000000815290519194506001600160a01b03861691635a3d549391600480820192602092909190829003018186803b158015610b6d57600080fd5b505afa158015610b81573d6000803e3d6000fd5b505050506040513d6020811015610b9757600080fd5b5051604080517f0902f1ac0000000000000000000000000000000000000000000000000000000081529051919350600091829182916001600160a01b03891691630902f1ac916004808301926060929190829003018186803b158015610bfc57600080fd5b505afa158015610c10573d6000803e3d6000fd5b505050506040513d6060811015610c2657600080fd5b5080516020820151604090920151909450909250905063ffffffff80821690851614610cc85780840363ffffffff8116610c736dffffffffffffffffffffffffffff808616908716610e17565b600001516001600160e01b031602870196508063ffffffff16610cb6856dffffffffffffffffffffffffffff16856dffffffffffffffffffffffffffff16610e17565b516001600160e01b0316029590950194505b5050509193909250565b600080826001600160a01b0316846001600160a01b03161415610d265760405162461bcd60e51b81526004018080602001828103825260258152602001806113206025913960400191505060405180910390fd5b826001600160a01b0316846001600160a01b031610610d46578284610d49565b83835b90925090506001600160a01b0382166105d0576040805162461bcd60e51b815260206004820152601e60248201527f556e697377617056324c6962726172793a205a45524f5f414444524553530000604482015290519081900360640190fd5b60008060405180602001604052808487870381610dc257fe5b046001600160e01b031690529050610de3610dde826001610f9f565b611033565b71ffffffffffffffffffffffffffffffffffff169150610e0482600161103a565b95945050505050565b63ffffffff421690565b610e1f611275565b60008211610e5e5760405162461bcd60e51b81526004018080602001828103825260268152602001806113456026913960400191505060405180910390fd5b82610e785750604080516020810190915260008152610f99565b71ffffffffffffffffffffffffffffffffffff8311610f1f57600082607085901b81610ea057fe5b0490506001600160e01b03811115610eff576040805162461bcd60e51b815260206004820152601e60248201527f4669786564506f696e743a3a6672616374696f6e3a206f766572666c6f770000604482015290519081900360640190fd5b6040518060200160405280826001600160e01b0316815250915050610f99565b6000610f3b846e0100000000000000000000000000008561105f565b90506001600160e01b03811115610eff576040805162461bcd60e51b815260206004820152601e60248201527f4669786564506f696e743a3a6672616374696f6e3a206f766572666c6f770000604482015290519081900360640190fd5b92915050565b610fa7611287565b6000821580610fcd57505082516001600160e01b031682810290838281610fca57fe5b04145b61101e576040805162461bcd60e51b815260206004820152601960248201527f4669786564506f696e743a3a6d756c3a206f766572666c6f7700000000000000604482015290519081900360640190fd5b60408051602081019091529081529392505050565b5160701c90565b60006110588261105285670de0b6b3a7640000611118565b90611171565b9392505050565b600080600061106e86866111d8565b915091506000848061107c57fe5b868809905082811115611090576001820391505b9182900391816110ae578483816110a357fe5b049350505050611058565b848210611102576040805162461bcd60e51b815260206004820152601a60248201527f46756c6c4d6174683a2046554c4c4449565f4f564552464c4f57000000000000604482015290519081900360640190fd5b61110d838387611205565b979650505050505050565b60008261112757506000610f99565b8282028284828161113457fe5b04146110585760405162461bcd60e51b815260040180806020018281038252602181526020018061136b6021913960400191505060405180910390fd5b60008082116111c7576040805162461bcd60e51b815260206004820152601a60248201527f536166654d6174683a206469766973696f6e206279207a65726f000000000000604482015290519081900360640190fd5b8183816111d057fe5b049392505050565b60008080600019848609905083850292508281039150828110156111fd576001820391505b509250929050565b6000818103821680838161121557fe5b04925080858161122157fe5b04945080816000038161123057fe5b60028581038087028203028087028203028087028203028087028203028087028203028087028203029586029003909402930460010193909302939093010292915050565b60408051602081019091526000815290565b604051806020016040528060008152509056fe536c6964696e6757696e646f774f7261636c653a204d495353494e475f484953544f524943414c5f4f42534552564154494f4e4f776e61626c653a206e6577206f776e657220697320746865207a65726f2061646472657373536c6964696e6757696e646f774f7261636c653a20554e45585045435445445f54494d455f454c4150534544556e697377617056324c6962726172793a204944454e544943414c5f4144445245535345534669786564506f696e743a3a6672616374696f6e3a206469766973696f6e206279207a65726f536166654d6174683a206d756c7469706c69636174696f6e206f766572666c6f77a264697066735822122022ba3f1de8a9db3880445e6a4ff5853a521e405e2ce1f140549ba55374c1805464736f6c63430007060033536c6964696e6757696e646f774f7261636c653a2057494e444f575f4e4f545f4556454e4c595f444956495349424c45",
  "devdoc": {
    "author": "Babylon Finance Protocol Sliding window oracle that uses observations collected over a window to provide moving price averages in the past `windowSize` with a precision of `windowSize / granularity` note this is a singleton oracle and only needs to be deployed once per desired parameters, which differs from the simple oracle which must be deployed once per pair.",
    "kind": "dev",
    "methods": {
      "constructor": {
        "params": {
          "_controller": "Instance of controller contract",
          "_factory": "Address of Uniswap factory",
          "_granularity": "Array of allowed Uniswap pools",
          "_windowSize": "Array of allowed Uniswap pools"
        }
      },
      "owner()": {
        "details": "Returns the address of the current owner."
      },
      "renounceOwnership()": {
        "details": "Leaves the contract without owner. It will not be possible to call `onlyOwner` functions anymore. Can only be called by the current owner. NOTE: Renouncing ownership will leave the contract without an owner, thereby removing any functionality that is only available to the owner."
      },
      "transferOwnership(address)": {
        "details": "Transfers ownership of the contract to a new account (`newOwner`). Can only be called by the current owner."
      }
    },
    "title": "UniswapTWAP",
    "version": 1
  },
  "userdoc": {
    "kind": "user",
    "methods": {
      "constructor": {
        "notice": "Set state variables"
      }
    },
    "version": 1
  },
  "storageLayout": {
    "storage": [
      {
        "astId": 3848,
        "contract": "contracts/oracle_adapter/UniswapTWAP.sol:UniswapTWAP",
        "label": "_owner",
        "offset": 0,
        "slot": "0",
        "type": "t_address"
      },
      {
        "astId": 28832,
        "contract": "contracts/oracle_adapter/UniswapTWAP.sol:UniswapTWAP",
        "label": "controller",
        "offset": 0,
        "slot": "1",
        "type": "t_contract(IBabController)23675"
      },
      {
        "astId": 28848,
        "contract": "contracts/oracle_adapter/UniswapTWAP.sol:UniswapTWAP",
        "label": "pairObservations",
        "offset": 0,
        "slot": "2",
        "type": "t_mapping(t_address,t_array(t_struct(Observation)28830_storage)dyn_storage)"
      }
    ],
    "types": {
      "t_address": {
        "encoding": "inplace",
        "label": "address",
        "numberOfBytes": "20"
      },
      "t_array(t_struct(Observation)28830_storage)dyn_storage": {
        "base": "t_struct(Observation)28830_storage",
        "encoding": "dynamic_array",
        "label": "struct UniswapTWAP.Observation[]",
        "numberOfBytes": "32"
      },
      "t_contract(IBabController)23675": {
        "encoding": "inplace",
        "label": "contract IBabController",
        "numberOfBytes": "20"
      },
      "t_mapping(t_address,t_array(t_struct(Observation)28830_storage)dyn_storage)": {
        "encoding": "mapping",
        "key": "t_address",
        "label": "mapping(address => struct UniswapTWAP.Observation[])",
        "numberOfBytes": "32",
        "value": "t_array(t_struct(Observation)28830_storage)dyn_storage"
      },
      "t_struct(Observation)28830_storage": {
        "encoding": "inplace",
        "label": "struct UniswapTWAP.Observation",
        "members": [
          {
            "astId": 28825,
            "contract": "contracts/oracle_adapter/UniswapTWAP.sol:UniswapTWAP",
            "label": "timestamp",
            "offset": 0,
            "slot": "0",
            "type": "t_uint256"
          },
          {
            "astId": 28827,
            "contract": "contracts/oracle_adapter/UniswapTWAP.sol:UniswapTWAP",
            "label": "price0Cumulative",
            "offset": 0,
            "slot": "1",
            "type": "t_uint256"
          },
          {
            "astId": 28829,
            "contract": "contracts/oracle_adapter/UniswapTWAP.sol:UniswapTWAP",
            "label": "price1Cumulative",
            "offset": 0,
            "slot": "2",
            "type": "t_uint256"
          }
        ],
        "numberOfBytes": "96"
      },
      "t_uint256": {
        "encoding": "inplace",
        "label": "uint256",
        "numberOfBytes": "32"
      }
    }
  }
}