{
  "address": "0xa78e81CCe96bac0e00c081E599806bcea2Dd5917",
  "abi": [
    {
      "anonymous": false,
      "inputs": [
        {
          "indexed": true,
          "internalType": "bytes4",
          "name": "selector",
          "type": "bytes4"
        },
        {
          "indexed": false,
          "internalType": "address",
          "name": "oldImplementation",
          "type": "address"
        },
        {
          "indexed": false,
          "internalType": "address",
          "name": "newImplementation",
          "type": "address"
        }
      ],
      "name": "VTableUpdate",
      "type": "event"
    },
    {
      "inputs": [
        {
          "components": [
            {
              "internalType": "address",
              "name": "implementation",
              "type": "address"
            },
            {
              "internalType": "bytes4[]",
              "name": "selectors",
              "type": "bytes4[]"
            }
          ],
          "internalType": "struct VTableUpdateModule.ModuleDefinition[]",
          "name": "modules",
          "type": "tuple[]"
        }
      ],
      "name": "updateVTable",
      "outputs": [],
      "stateMutability": "nonpayable",
      "type": "function"
    }
  ],
  "transactionHash": "0x2f5ee3e3320b34e35485ff56abfeed9615206ccec30b843f3cb678eb1aa5c844",
  "args": [],
  "numDeployments": 1,
  "solcInputHash": "52326babd87e7897610fb1d2a71f018c",
  "bytecode": "0x608060405234801561001057600080fd5b506104a8806100206000396000f3fe608060405234801561001057600080fd5b506004361061002b5760003560e01c8063719c5ac214610030575b600080fd5b61004361003e366004610257565b610045565b005b600061004f610139565b90503361006261005d610139565b61015d565b6001600160a01b0316146100ab576040517f08c379a00000000000000000000000000000000000000000000000000000000081526004016100a2906102c6565b60405180910390fd5b60005b828110156101335760008484838181106100c457fe5b90506020028101906100d69190610323565b6100df90610366565b905060005b816020015151811015610129576101218260200151828151811061010457fe5b602002602001015183600001518661016a9092919063ffffffff16565b6001016100e4565b50506001016100ae565b50505050565b7f13f1d5ea37b1d7aca82fcc2879c3bddc731555698dfc87ad6057b416547bc65790565b546001600160a01b031690565b7fffffffff00000000000000000000000000000000000000000000000000000000821660008181526001850160209081526040918290205482516001600160a01b0391821681529085169181019190915281517ff76ead56fd55a04ec804a64583bc1e90671f895c8e71b18935917b92053ba87a929181900390910190a27fffffffff0000000000000000000000000000000000000000000000000000000090911660009081526001909201602052604090912080546001600160a01b039092167fffffffffffffffffffffffff0000000000000000000000000000000000000000909216919091179055565b60008060208385031215610269578182fd5b823567ffffffffffffffff80821115610280578384fd5b818501915085601f830112610293578384fd5b8135818111156102a1578485fd5b86602080830285010111156102b4578485fd5b60209290920196919550909350505050565b60208082526028908201527f565461626c654f776e6572736869703a2063616c6c6572206973206e6f74207460408201527f6865206f776e6572000000000000000000000000000000000000000000000000606082015260800190565b60008235603e19833603018112610338578182fd5b9190910192915050565b60405181810167ffffffffffffffff8111828210171561035e57fe5b604052919050565b600060408236031215610377578081fd5b6040516040810167ffffffffffffffff828210818311171561039557fe5b81604052843591506001600160a01b03821682146103b1578384fd5b90825260209084820135818111156103c7578485fd5b850136601f8201126103d7578485fd5b8035828111156103e357fe5b83810292506103f3848401610342565b81815284810190838601368686018801111561040d578889fd5b8895505b8386101561045f57803594507fffffffff000000000000000000000000000000000000000000000000000000008516851461044a578889fd5b84835260019590950194918601918601610411565b509486019490945250929594505050505056fea2646970667358221220f4dcb1e1957d2ec4877921fd52acae9c334c331c08c13f0212203109a23a5f3064736f6c63430007060033",
  "devdoc": {
    "kind": "dev",
    "methods": {
      "updateVTable((address,bytes4[])[])": {
        "details": "Updates the vtable"
      }
    },
    "version": 1
  },
  "userdoc": {
    "kind": "user",
    "methods": {},
    "version": 1
  },
  "storageLayout": {
    "storage": [],
    "types": null
  }
}