{
  "address": "0xAE88F0464f4a2b3C8F603849afa57fDFdFF58A07",
  "abi": [
    {
      "inputs": [
        {
          "internalType": "contract IBabController",
          "name": "_controller",
          "type": "address"
        }
      ],
      "stateMutability": "nonpayable",
      "type": "constructor"
    },
    {
      "anonymous": false,
      "inputs": [
        {
          "indexed": true,
          "internalType": "address",
          "name": "garden",
          "type": "address"
        },
        {
          "indexed": true,
          "internalType": "address",
          "name": "strategy",
          "type": "address"
        },
        {
          "indexed": true,
          "internalType": "address",
          "name": "investment",
          "type": "address"
        },
        {
          "indexed": false,
          "internalType": "address",
          "name": "tokenIn",
          "type": "address"
        },
        {
          "indexed": false,
          "internalType": "uint256",
          "name": "investmentTokensOut",
          "type": "uint256"
        }
      ],
      "name": "InvestmentEntered",
      "type": "event"
    },
    {
      "anonymous": false,
      "inputs": [
        {
          "indexed": true,
          "internalType": "address",
          "name": "garden",
          "type": "address"
        },
        {
          "indexed": true,
          "internalType": "address",
          "name": "strategy",
          "type": "address"
        },
        {
          "indexed": true,
          "internalType": "address",
          "name": "investment",
          "type": "address"
        },
        {
          "indexed": false,
          "internalType": "uint256",
          "name": "investmentTokensOut",
          "type": "uint256"
        }
      ],
      "name": "InvestmentExited",
      "type": "event"
    },
    {
      "inputs": [],
      "name": "controller",
      "outputs": [
        {
          "internalType": "contract IBabController",
          "name": "",
          "type": "address"
        }
      ],
      "stateMutability": "view",
      "type": "function"
    },
    {
      "inputs": [
        {
          "internalType": "address",
          "name": "_strategy",
          "type": "address"
        },
        {
          "internalType": "address",
          "name": "_investmentAddress",
          "type": "address"
        },
        {
          "internalType": "uint256",
          "name": "_investmentTokensOut",
          "type": "uint256"
        },
        {
          "internalType": "address",
          "name": "_tokenIn",
          "type": "address"
        },
        {
          "internalType": "uint256",
          "name": "_maxAmountIn",
          "type": "uint256"
        }
      ],
      "name": "enterInvestment",
      "outputs": [],
      "stateMutability": "nonpayable",
      "type": "function"
    },
    {
      "inputs": [
        {
          "internalType": "address",
          "name": "_strategy",
          "type": "address"
        },
        {
          "internalType": "address",
          "name": "_investmentAddress",
          "type": "address"
        },
        {
          "internalType": "uint256",
          "name": "_investmentTokenIn",
          "type": "uint256"
        },
        {
          "internalType": "address",
          "name": "_tokenOut",
          "type": "address"
        },
        {
          "internalType": "uint256",
          "name": "_minAmountOut",
          "type": "uint256"
        }
      ],
      "name": "exitInvestment",
      "outputs": [],
      "stateMutability": "nonpayable",
      "type": "function"
    },
    {
      "inputs": [
        {
          "internalType": "address",
          "name": "_investmentAddress",
          "type": "address"
        },
        {
          "internalType": "uint256",
          "name": "_ethAmount",
          "type": "uint256"
        }
      ],
      "name": "getExpectedShares",
      "outputs": [
        {
          "internalType": "uint256",
          "name": "",
          "type": "uint256"
        }
      ],
      "stateMutability": "view",
      "type": "function"
    },
    {
      "inputs": [
        {
          "internalType": "address",
          "name": "_investmentAddress",
          "type": "address"
        }
      ],
      "name": "getInvestmentAsset",
      "outputs": [
        {
          "internalType": "address",
          "name": "",
          "type": "address"
        }
      ],
      "stateMutability": "view",
      "type": "function"
    },
    {
      "inputs": [],
      "name": "getName",
      "outputs": [
        {
          "internalType": "string",
          "name": "",
          "type": "string"
        }
      ],
      "stateMutability": "view",
      "type": "function"
    },
    {
      "inputs": [
        {
          "internalType": "address",
          "name": "_investmentAddress",
          "type": "address"
        }
      ],
      "name": "getPricePerShare",
      "outputs": [
        {
          "internalType": "uint256",
          "name": "",
          "type": "uint256"
        }
      ],
      "stateMutability": "view",
      "type": "function"
    },
    {
      "inputs": [],
      "name": "name",
      "outputs": [
        {
          "internalType": "string",
          "name": "",
          "type": "string"
        }
      ],
      "stateMutability": "view",
      "type": "function"
    }
  ],
  "transactionHash": "0x411fc751a13e11e65c69db8ca3b0715bd4d26fc64f5db12b6a4fda6662fc0416",
  "args": [
    "0xD4a5b5fcB561dAF3aDF86F8477555B92FBa43b5F"
  ],
  "solcInputHash": "c1f525c5f5ec5d756d5e07b589917725",
  "bytecode": "0x60806040523480156200001157600080fd5b5060405162001c1d38038062001c1d833981810160405260208110156200003757600080fd5b505160408051808201909152600d81526c3cb2b0b9373b30bab63a39bb1960991b60208201528181816001600160a01b038116620000bc576040805162461bcd60e51b815260206004820152601a60248201527f436f6e74726f6c6c6572206d75737420626520646566696e6564000000000000604482015290519081900360640190fd5b8151620000d190600190602085019062000102565b50600080546001600160a01b0319166001600160a01b03929092169190911790555050600160025550620001ae9050565b828054600181600116156101000203166002900490600052602060002090601f0160209004810192826200013a576000855562000185565b82601f106200015557805160ff191683800117855562000185565b8280016001018555821562000185579182015b828111156200018557825182559160200191906001019062000168565b506200019392915062000197565b5090565b5b8082111562000193576000815560010162000198565b611a5f80620001be6000396000f3fe608060405234801561001057600080fd5b50600436106100885760003560e01c8063976a99be1161005b578063976a99be14610196578063ec422afd146101da578063f337f63014610200578063f77c47911461024257610088565b806306fdde031461008d57806317d7de7c1461010a5780634deef64914610112578063871be91114610150575b600080fd5b61009561024a565b6040805160208082528351818301528351919283929083019185019080838360005b838110156100cf5781810151838201526020016100b7565b50505050905090810190601f1680156100fc5780820380516001836020036101000a031916815260200191505b509250505060405180910390f35b6100956102d7565b61013e6004803603604081101561012857600080fd5b506001600160a01b03813516906020013561036c565b60408051918252519081900360200190f35b610194600480360360a081101561016657600080fd5b506001600160a01b038135811691602081013582169160408201359160608101359091169060800135610381565b005b610194600480360360a08110156101ac57600080fd5b506001600160a01b038135811691602081013582169160408201359160608101359091169060800135610b1a565b61013e600480360360208110156101f057600080fd5b50356001600160a01b0316611122565b6102266004803603602081101561021657600080fd5b50356001600160a01b031661112d565b604080516001600160a01b039092168252519081900360200190f35b610226611138565b60018054604080516020600284861615610100026000190190941693909304601f810184900484028201840190925281815292918301828280156102cf5780601f106102a4576101008083540402835291602001916102cf565b820191906000526020600020905b8154815290600101906020018083116102b257829003601f168201915b505050505081565b60018054604080516020601f600260001961010087891615020190951694909404938401819004810282018101909252828152606093909290918301828280156103625780601f1061033757610100808354040283529160200191610362565b820191906000526020600020905b81548152906001019060200180831161034557829003601f168201915b5050505050905090565b60006103788383611147565b90505b92915050565b6002805414156103d8576040805162461bcd60e51b815260206004820152601f60248201527f5265656e7472616e637947756172643a207265656e7472616e742063616c6c00604482015290519081900360640190fd5b60028055600054604080516313bc6d4b60e01b815233600482015290516001600160a01b03909216916313bc6d4b91602480820192602092909190829003018186803b15801561042757600080fd5b505afa15801561043b573d6000803e3d6000fd5b505050506040513d602081101561045157600080fd5b50516104a4576040805162461bcd60e51b815260206004820152601960248201527f4f6e6c792073797374656d2063616e2063616c6c207468697300000000000000604482015290519081900360640190fd5b60006104b3868686868661123d565b90506104be81611417565b60008060006104cf888860016114a4565b919450925090506001600160a01b03831615610847576104ed6114bc565b1561060d5783516001600160a01b03166397ccdc6061050d8a60016114c1565b85866001600160a01b03166370a082318e6040518263ffffffff1660e01b815260040180826001600160a01b0316815260200191505060206040518083038186803b15801561055b57600080fd5b505afa15801561056f573d6000803e3d6000fd5b505050506040513d602081101561058557600080fd5b5051604080517fffffffff0000000000000000000000000000000000000000000000000000000060e087901b1681526001600160a01b03948516600482015292909316602483015260448201529051606480830192600092919082900301818387803b1580156105f457600080fd5b505af1158015610608573d6000803e3d6000fd5b505050505b83600001516001600160a01b0316636bc195dd8484846040518463ffffffff1660e01b815260040180846001600160a01b0316815260200183815260200180602001828103825283818151815260200191508051906020019080838360005b8381101561068457818101518382015260200161066c565b50505050905090810190601f1680156106b15780820380516001836020036101000a031916815260200191505b50945050505050600060405180830381600087803b1580156106d257600080fd5b505af11580156106e6573d6000803e3d6000fd5b505050506040513d6000823e601f3d908101601f19168201604052602081101561070f57600080fd5b810190808051604051939291908464010000000082111561072f57600080fd5b90830190602082018581111561074457600080fd5b825164010000000081118282018810171561075e57600080fd5b82525081516020918201929091019080838360005b8381101561078b578181015183820152602001610773565b50505050905090810190601f1680156107b85780820380516001836020036101000a031916815260200191505b50604052505050506107c9886114c5565b9750876001600160a01b03166370a082318a6040518263ffffffff1660e01b815260040180826001600160a01b0316815260200191505060206040518083038186803b15801561081857600080fd5b505afa15801561082c573d6000803e3d6000fd5b505050506040513d602081101561084257600080fd5b505196505b83516001600160a01b03166397ccdc606108628a60016114c1565b8a8a6040518463ffffffff1660e01b815260040180846001600160a01b03168152602001836001600160a01b031681526020018281526020019350505050600060405180830381600087803b1580156108ba57600080fd5b505af11580156108ce573d6000803e3d6000fd5b5050505060008060006108e48c8c8c8c8c6114c8565b92509250925086600001516001600160a01b0316636bc195dd8484846040518463ffffffff1660e01b815260040180846001600160a01b0316815260200183815260200180602001828103825283818151815260200191508051906020019080838360005b83811015610961578181015183820152602001610949565b50505050905090810190601f16801561098e5780820380516001836020036101000a031916815260200191505b50945050505050600060405180830381600087803b1580156109af57600080fd5b505af11580156109c3573d6000803e3d6000fd5b505050506040513d6000823e601f3d908101601f1916820160405260208110156109ec57600080fd5b8101908080516040519392919084640100000000821115610a0c57600080fd5b908301906020820185811115610a2157600080fd5b8251640100000000811182820188101715610a3b57600080fd5b82525081516020918201929091019080838360005b83811015610a68578181015183820152602001610a50565b50505050905090810190601f168015610a955780820380516001836020036101000a031916815260200191505b5060405250505050610aa687611536565b86604001516001600160a01b031687600001516001600160a01b031688602001516001600160a01b03167f99d773709d80de3e15433c22c381fd8e3b82a68b56322240ff4a304956ef0e528d6040518082815260200191505060405180910390a45050600160025550505050505050505050565b600280541415610b71576040805162461bcd60e51b815260206004820152601f60248201527f5265656e7472616e637947756172643a207265656e7472616e742063616c6c00604482015290519081900360640190fd5b60028055600054604080516313bc6d4b60e01b815233600482015290516001600160a01b03909216916313bc6d4b91602480820192602092909190829003018186803b158015610bc057600080fd5b505afa158015610bd4573d6000803e3d6000fd5b505050506040513d6020811015610bea57600080fd5b5051610c3d576040805162461bcd60e51b815260206004820152601960248201527f4f6e6c792073797374656d2063616e2063616c6c207468697300000000000000604482015290519081900360640190fd5b6000610c4c868686868661123d565b9050610c5781611602565b6000806000610c68888660006114a4565b919450925090506001600160a01b03831615610e325783600001516001600160a01b0316636bc195dd8484846040518463ffffffff1660e01b815260040180846001600160a01b0316815260200183815260200180602001828103825283818151815260200191508051906020019080838360005b83811015610cf5578181015183820152602001610cdd565b50505050905090810190601f168015610d225780820380516001836020036101000a031916815260200191505b50945050505050600060405180830381600087803b158015610d4357600080fd5b505af1158015610d57573d6000803e3d6000fd5b505050506040513d6000823e601f3d908101601f191682016040526020811015610d8057600080fd5b8101908080516040519392919084640100000000821115610da057600080fd5b908301906020820185811115610db557600080fd5b8251640100000000811182820188101715610dcf57600080fd5b82525081516020918201929091019080838360005b83811015610dfc578181015183820152602001610de4565b50505050905090810190601f168015610e295780820380516001836020036101000a031916815260200191505b50604052505050505b6001600160a01b03861615610ecd5783516001600160a01b03166397ccdc60610e5c8a60006114c1565b88886040518463ffffffff1660e01b815260040180846001600160a01b03168152602001836001600160a01b031681526020018281526020019350505050600060405180830381600087803b158015610eb457600080fd5b505af1158015610ec8573d6000803e3d6000fd5b505050505b6000806000610edf8c8c8c8c8c611645565b92509250925086600001516001600160a01b0316636bc195dd8484846040518463ffffffff1660e01b815260040180846001600160a01b0316815260200183815260200180602001828103825283818151815260200191508051906020019080838360005b83811015610f5c578181015183820152602001610f44565b50505050905090810190601f168015610f895780820380516001836020036101000a031916815260200191505b50945050505050600060405180830381600087803b158015610faa57600080fd5b505af1158015610fbe573d6000803e3d6000fd5b505050506040513d6000823e601f3d908101601f191682016040526020811015610fe757600080fd5b810190808051604051939291908464010000000082111561100757600080fd5b90830190602082018581111561101c57600080fd5b825164010000000081118282018810171561103657600080fd5b82525081516020918201929091019080838360005b8381101561106357818101518382015260200161104b565b50505050905090810190601f1680156110905780820380516001836020036101000a031916815260200191505b50604052505050506110a1876116b4565b8a6001600160a01b031687600001516001600160a01b031688602001516001600160a01b03167fdc0718d28ea0f80518c2c454af93bc46bf51dd4a1b25a048ca4ca75a7ac359c48c8e60405180836001600160a01b031681526020018281526020019250505060405180910390a45050600160025550505050505050505050565b600061037b82611776565b600061037b826117e3565b6000546001600160a01b031681565b60006103786111c5846001600160a01b031663313ce5676040518163ffffffff1660e01b815260040160206040518083038186803b15801561118857600080fd5b505afa15801561119c573d6000803e3d6000fd5b505050506040513d60208110156111b257600080fd5b505160ff166111bf61181e565b90611823565b600a0a611237856001600160a01b03166399530b066040518163ffffffff1660e01b815260040160206040518083038186803b15801561120457600080fd5b505afa158015611218573d6000803e3d6000fd5b505050506040513d602081101561122e57600080fd5b50518590611833565b9061184b565b6112456118d6565b61124d6118d6565b6001600160a01b038716808252604080517f56ba88b800000000000000000000000000000000000000000000000000000000815290516356ba88b891600480820192602092909190829003018186803b1580156112a957600080fd5b505afa1580156112bd573d6000803e3d6000fd5b505050506040513d60208110156112d357600080fd5b50516001600160a01b03908116602083810191909152908716604080840182905280517f18160ddd000000000000000000000000000000000000000000000000000000008152905191926318160ddd92600480840193829003018186803b15801561133d57600080fd5b505afa158015611351573d6000803e3d6000fd5b505050506040513d602081101561136757600080fd5b50516060820152604080517f70a082310000000000000000000000000000000000000000000000000000000081526001600160a01b0389811660048301529151918816916370a0823191602480820192602092909190829003018186803b1580156113d157600080fd5b505afa1580156113e5573d6000803e3d6000fd5b505050506040513d60208110156113fb57600080fd5b505160a082015260808101949094525060c08301525092915050565b600081608001511161145a5760405162461bcd60e51b81526004018080602001828103825260348152602001806119f66034913960400191505060405180910390fd5b80608001518160a0015110156114a15760405162461bcd60e51b815260040180806020018281038252603181526020018061192f6031913960400191505060405180910390fd5b50565b50506040805160208101909152600080825292839250565b600090565b5090565b90565b5050604080516024808201939093528151808203909301835260440190526020810180517bffffffffffffffffffffffffffffffffffffffffffffffffffffffff167f2e1a7d4d00000000000000000000000000000000000000000000000000000000179052909260009250565b80608001518160a001510360640181604001516001600160a01b03166370a0823183600001516040518263ffffffff1660e01b815260040180826001600160a01b0316815260200191505060206040518083038186803b15801561159957600080fd5b505afa1580156115ad573d6000803e3d6000fd5b505050506040513d60208110156115c357600080fd5b505111156114a15760405162461bcd60e51b815260040180806020018281038252602f815260200180611990602f913960400191505060405180910390fd5b60008160800151116114a15760405162461bcd60e51b81526004018080602001828103825260378152602001806119bf6037913960400191505060405180910390fd5b604080516024808201939093528151808203909301835260440190526020810180517bffffffffffffffffffffffffffffffffffffffffffffffffffffffff167fb6b55f2500000000000000000000000000000000000000000000000000000000179052929460009450915050565b8060a0015181604001516001600160a01b03166370a0823183600001516040518263ffffffff1660e01b815260040180826001600160a01b0316815260200191505060206040518083038186803b15801561170e57600080fd5b505afa158015611722573d6000803e3d6000fd5b505050506040513d602081101561173857600080fd5b5051116114a15760405162461bcd60e51b81526004018080602001828103825260308152602001806119606030913960400191505060405180910390fd5b6000816001600160a01b03166399530b066040518163ffffffff1660e01b815260040160206040518083038186803b1580156117b157600080fd5b505afa1580156117c5573d6000803e3d6000fd5b505050506040513d60208110156117db57600080fd5b505192915050565b6000816001600160a01b031663fc0c546a6040518163ffffffff1660e01b815260040160206040518083038186803b1580156117b157600080fd5b601290565b8082038281111561037b57600080fd5b60006103788261123785670de0b6b3a76400006118b2565b60008082116118a1576040805162461bcd60e51b815260206004820152601a60248201527f536166654d6174683a206469766973696f6e206279207a65726f000000000000604482015290519081900360640190fd5b8183816118aa57fe5b049392505050565b60008215806118cd575050818102818382816118ca57fe5b04145b61037b57600080fd5b6040518060e0016040528060006001600160a01b0316815260200160006001600160a01b0316815260200160006001600160a01b0316815260200160008152602001600081526020016000815260200160008152509056fe5468652067617264656e20646f6573206e6f74206861766520656e6f75676820696e766573746d656e7420746f6b656e735468652067617264656e20646964206e6f7420726563656976652074686520696e766573746d656e7420746f6b656e735468652067617264656e20646964206e6f742072657475726e2074686520696e766573746d656e7420746f6b656e734d696e20696e766573746d656e7420746f6b656e7320746f2072656365697665206d7573742062652067726561746572207468616e2030496e766573746d656e7420746f6b656e7320746f2065786368616e6765206d7573742062652067726561746572207468616e2030a264697066735822122094242e1d8647b84888f6fa86b86e81e14abd7fb46aead3fb9ccd191933b070b864736f6c63430007060033",
  "devdoc": {
    "author": "Babylon Finance Protocol Yearn v2 Vault Integration",
    "kind": "dev",
    "methods": {
      "constructor": {
        "params": {
          "_controller": "Address of the controller"
        }
      },
      "enterInvestment(address,address,uint256,address,uint256)": {
        "params": {
          "_investmentAddress": "Address of the investment token to join",
          "_investmentTokensOut": "Min amount of investment tokens to receive",
          "_maxAmountIn": "Max amount of the token to deposit",
          "_strategy": "Address of the strategy",
          "_tokenIn": "Token address to deposit"
        }
      },
      "exitInvestment(address,address,uint256,address,uint256)": {
        "params": {
          "_investmentAddress": "Address of the investment token to exit",
          "_investmentTokenIn": "Quantity of investment tokens to return",
          "_minAmountOut": "Min token quantities to receive from the investment",
          "_strategy": "Address of the strategy",
          "_tokenOut": "Token address to withdraw"
        }
      },
      "getExpectedShares(address,uint256)": {
        "params": {
          "_ethAmount": "Amount of eth to invest",
          "_investmentAddress": "Investment address to check"
        },
        "returns": {
          "_0": "uint256                           Amount of investment shares to receive"
        }
      },
      "getInvestmentAsset(address)": {
        "returns": {
          "_0": "address                           Returns the asset that this investment needs"
        }
      },
      "getPricePerShare(address)": {
        "params": {
          "_investmentAddress": "Investment address to check"
        },
        "returns": {
          "_0": "uint256                           Returns the price in ETH of an investment share"
        }
      }
    },
    "title": "YearnIntegration",
    "version": 1
  },
  "userdoc": {
    "kind": "user",
    "methods": {
      "constructor": {
        "notice": "Creates the integration"
      },
      "enterInvestment(address,address,uint256,address,uint256)": {
        "notice": "Deposits tokens into an investment"
      },
      "exitInvestment(address,address,uint256,address,uint256)": {
        "notice": "Exits an outside passive investment"
      },
      "getExpectedShares(address,uint256)": {
        "notice": "Gets the amount of shares expected to get after depositing _ethAmount"
      },
      "getInvestmentAsset(address)": {
        "notice": "Gets the asset needed to enter the investment"
      },
      "getName()": {
        "notice": "Returns the name of the integration"
      },
      "getPricePerShare(address)": {
        "notice": "Gets how much eth one unit of the investment is worth"
      }
    },
    "version": 1
  },
  "storageLayout": {
    "storage": [
      {
        "astId": 19406,
        "contract": "contracts/integrations/passive/YearnVaultIntegration.sol:YearnVaultIntegration",
        "label": "controller",
        "offset": 0,
        "slot": "0",
        "type": "t_contract(IBabController)28639"
      },
      {
        "astId": 19411,
        "contract": "contracts/integrations/passive/YearnVaultIntegration.sol:YearnVaultIntegration",
        "label": "name",
        "offset": 0,
        "slot": "1",
        "type": "t_string_storage"
      },
      {
        "astId": 6418,
        "contract": "contracts/integrations/passive/YearnVaultIntegration.sol:YearnVaultIntegration",
        "label": "_status",
        "offset": 0,
        "slot": "2",
        "type": "t_uint256"
      }
    ],
    "types": {
      "t_contract(IBabController)28639": {
        "encoding": "inplace",
        "label": "contract IBabController",
        "numberOfBytes": "20"
      },
      "t_string_storage": {
        "encoding": "bytes",
        "label": "string",
        "numberOfBytes": "32"
      },
      "t_uint256": {
        "encoding": "inplace",
        "label": "uint256",
        "numberOfBytes": "32"
      }
    }
  }
}