{
  "address": "0x61c733fE0Eb89b75440A21cD658C4011ec512EB8",
  "abi": [
    {
      "inputs": [
        {
          "internalType": "contract IBabController",
          "name": "_controller",
          "type": "address"
        }
      ],
      "stateMutability": "nonpayable",
      "type": "constructor"
    },
    {
      "inputs": [],
      "name": "controller",
      "outputs": [
        {
          "internalType": "contract IBabController",
          "name": "",
          "type": "address"
        }
      ],
      "stateMutability": "view",
      "type": "function"
    },
    {
      "inputs": [],
      "name": "getAllVaults",
      "outputs": [
        {
          "internalType": "address[]",
          "name": "",
          "type": "address[]"
        }
      ],
      "stateMutability": "view",
      "type": "function"
    },
    {
      "inputs": [
        {
          "internalType": "address[]",
          "name": "_vaults",
          "type": "address[]"
        },
        {
          "internalType": "bool[]",
          "name": "_values",
          "type": "bool[]"
        }
      ],
      "name": "updateVaults",
      "outputs": [],
      "stateMutability": "nonpayable",
      "type": "function"
    },
    {
      "inputs": [
        {
          "internalType": "uint256",
          "name": "",
          "type": "uint256"
        }
      ],
      "name": "vaultList",
      "outputs": [
        {
          "internalType": "address",
          "name": "",
          "type": "address"
        }
      ],
      "stateMutability": "view",
      "type": "function"
    },
    {
      "inputs": [
        {
          "internalType": "address",
          "name": "",
          "type": "address"
        }
      ],
      "name": "vaults",
      "outputs": [
        {
          "internalType": "bool",
          "name": "",
          "type": "bool"
        }
      ],
      "stateMutability": "view",
      "type": "function"
    }
  ],
  "transactionHash": "0x9791861e577e9cd1a297c147078f80355f2ee96e47ffab5177863d53aad21d2b",
  "args": [
    "0xD4a5b5fcB561dAF3aDF86F8477555B92FBa43b5F"
  ],
  "numDeployments": 1,
  "solcInputHash": "b449cb5aec67dc49b858dceef0213a91",
  "bytecode": "0x60a06040523480156200001157600080fd5b50604051620010b4380380620010b4833981810160405260208110156200003757600080fd5b50516001600160a01b03811662000095576040805162461bcd60e51b815260206004820152601760248201527f436f6e74726f6c6c6572206973206e6f742076616c6964000000000000000000604482015290519081900360640190fd5b6001600160601b0319606082901b16608052620000c673c5bddf9843308380375a611c18b50fb9341f502a62000966565b620000e573a354f35829ae975e850e23e9615b11da1b3dc4de62000966565b6200010473378cb52b00f9d0921cb46dfc099cff73b42419dc62000966565b62000123739d409a0a012cfba9b15f6d4b36ac57a46966ab9a62000966565b6200014273db25ca703181e7484a155dd612b06f57e12be5f062000966565b6200016173f29ae508698bdef169b89834f76704c3b205aedf62000966565b6200018073873fb544277fd7b977b196a826459a69e27ea4ea62000966565b6200019f73671a912c10bba0cfa74cfc2d6fba9ba1ed9530b262000966565b620001be73a5ca62d95d24a4a350983d5b8ac4eb863888739662000966565b620001dd73b8c3b7a2a618c552c23b1e4701109a9e756bab6762000966565b620001fc73a258c4606ca8206d8aa700ce2143d7db854d168c62000966565b6200021b735f18c75abdae578b483e5f43f12a39cf75b973a962000966565b6200023a73da816459f1ab5631232fe5e97a05bbbb94970c9562000966565b6200025973a696a63cc78dffa1a63e9e50587c197387ff6c7e62000966565b62000278737da96a3891add058ada2e826306d812c638d87a762000966565b6200029773fbeb78a723b8087fd2ea7ef1afec93d35e8bed4262000966565b620002b673d9788f3931ede4d5018184e198699dc6d66c191562000966565b620002d5734a3fe75762017db0ed73a71c9a06db7768db5e6662000966565b620002f4736d765cbe5bc922694afe112c140b8878b9fb039062000966565b6200031373fd0877d9095789caf24c98f7cce092fa8e12077562000966565b6200033273e537b5cc158eb71037d4125bdd7538421981e6aa62000966565b62000351736fafca7f49b4fd9dc38117469cd31a1e5aec91f562000966565b6200037073718abe90777f5b778b52d553a5abaa148dd0dc5d62000966565b6200038f738b9c0c24307344b6d7941ab654b2aeee2534747362000966565b620003ae73d8c620991b8e626c099eaab29b1e3eea279763bb62000966565b620003cd730d4ea8536f9a13e4fba16042a46c30f092b06aa562000966565b620003ec732dfb14e32e2f8156ec15a2c21c3a6c053af52be862000966565b6200040b734560b99c904aad03027b5178cca81584744ac01f62000966565b6200042a7367e019bfbd5a67207755d04467d6a70c0b75bf6062000966565b6200044973528d50dc9a333f01544177a924893fa1f5b9f74862000966565b6200046873595a68a8c9d5c230001848b69b1947ee2a60716462000966565b62000487731b905331f7de2748f4d6a0678e1521e20347643f62000966565b620004a673490bd0886f221a5f79713d3e84404355a9293c5062000966565b620004c57359518884eebfb03e90a18adbaaab770d4666471e62000966565b620004e4738cc94ccd0f3841a468184aca3cc478d2148e175762000966565b6200050373625b7df2fa8abe21b0a976736cda4775523aed1e62000966565b62000522733d27705c64213a5dcd9d26880c1bcfa72d5b6b0e62000966565b620005417380bbee2fa460da291e796b9045e93d19ef948c6a62000966565b6200056073c116df49c02c5fd147de25baa105322ebf26bd9762000966565b6200057f7328a5b95c101df3ded0c0d9074db80c438774b6a962000966565b6200059e733d980e50508cfd41a13837a60149927a11c0373162000966565b620005bd7325212df29073fffa7a67399acefc2dd75a831a1a62000966565b620005dc735a770dbd3ee6baf2802d29a901ef11501c44797a62000966565b620005fb7339caf13a104ff567f71fd2a4c68c026fdb6e740b62000966565b6200061a73054af22e1519b020516d72d749221c24756385c962000966565b62000639733b96d491f067912d18563d56858ba7d6ec67a6fa62000966565b6200065873bfedbcbe27171c418cdabc2477042554b190485762000966565b6200067773132d8d2c76db3812403431facb00f3453fc4212562000966565b6200069673f2db9a7c0acd427a680d640f02d90f6186e7172562000966565b620006b573a74d4b67b3368e83797a35382afb776baae4f5c862000966565b620006d473c4daf3b5e2a9e93861c3fbdd25f1e943b8d8741762000966565b620006f3731c6a9783f812b3af3abbf7de64c3cd7cc7d1af4462000966565b620007127330fcf7c6cdfc46ec237783d94fc78553e79d4e9c62000966565b6200073173f8768814b88281de4f532a3beefa5b85b69b932462000966565b62000750734b5bfd52124784745c1071dcb244c6688d2533d362000966565b6200076f7384e13785b5a27879921d6f685f041421c7f482da62000966565b6200078e732a38b9b0201ca39b17b460ed2f11e4929559071e62000966565b620007ad7327b7b1ad7288079a66d12350c828d3c00a6f07d762000966565b620007cc73986b4aff588a109c09b50a03f42e4110e29d353f62000966565b620007eb73dcd90c7f6324cfa40d7169ef80b12031770b432562000966565b6200080a738414db07a7f743debafb402070ab01a4e0d2e45e62000966565b62000829737047f90229a057c13bf847c0744d646cfb6c9e1a62000966565b6200084873e9dc63083c464d6edccff23444ff3cfc6886f6fb62000966565b62000867733c5df3077bcf800640b5dae8c91106575a4826e662000966565b620008867323d3d0f1c697247d5e0a9efb37d8b0ed0c464f7f62000966565b620008a573b4ada607b9d6b2c9ee07a275e9616b84ac56013962000966565b620008c4735fa5b62c8af877cb37031e0a3b2f34a78e3c56a662000966565b620008e373b4d1be44bff40ad6e506edf43156577a3f8672ec62000966565b62000902738fa3a9ecd9efb07a8ce90a6eb014cf3c0e3b32ef62000966565b62000921736ede7f19df5df6ef23bd5b9cedb651580bdf56ca62000966565b62000940732994529c0652d127b7842094103715ec5299bbed62000966565b6200095f73d6ea40597be05c201845c0bfd2e96a60bacde26762000966565b50620009ca565b6001805480820182557fb10e2d527612073b26eecdfd717e6a320cf44b4afac2b0732d9fcbe2b7fa0cf60180546001600160a01b039093166001600160a01b031990931683179055600091825260208290526040909120805460ff19169091179055565b60805160601c6106c7620009ed600039806102a9528061035752506106c76000f3fe608060405234801561001057600080fd5b50600436106100675760003560e01c8063a622ee7c11610050578063a622ee7c146100fd578063bab6213514610137578063f77c4791146101fb57610067565b80632d8efbc51461006c57806397331bf9146100a5575b600080fd5b6100896004803603602081101561008257600080fd5b5035610203565b604080516001600160a01b039092168252519081900360200190f35b6100ad61022d565b60408051602080825283518183015283519192839290830191858101910280838360005b838110156100e95781810151838201526020016100d1565b505050509050019250505060405180910390f35b6101236004803603602081101561011357600080fd5b50356001600160a01b031661028f565b604080519115158252519081900360200190f35b6101f96004803603604081101561014d57600080fd5b81019060208101813564010000000081111561016857600080fd5b82018360208201111561017a57600080fd5b8035906020019184602083028401116401000000008311171561019c57600080fd5b9193909290916020810190356401000000008111156101ba57600080fd5b8201836020820111156101cc57600080fd5b803590602001918460208302840111640100000000831117156101ee57600080fd5b5090925090506102a4565b005b610089610355565b6001818154811061021357600080fd5b6000918252602090912001546001600160a01b0316905081565b6060600180548060200260200160405190810160405280929190818152602001828054801561028557602002820191906000526020600020905b81546001600160a01b03168152600190910190602001808311610267575b5050505050905090565b60006020819052908152604090205460ff1681565b6102d67f00000000000000000000000000000000000000000000000000000000000000006001600160a01b0316610379565b60005b8381101561034e578282828181106102ed57fe5b90506020020135156103225761031d85858381811061030857fe5b905060200201356001600160a01b03166104b8565b610346565b61034685858381811061033157fe5b905060200201356001600160a01b0316610529565b6001016102d9565b5050505050565b7f000000000000000000000000000000000000000000000000000000000000000081565b806001600160a01b0316638da5cb5b6040518163ffffffff1660e01b815260040160206040518083038186803b1580156103b257600080fd5b505afa1580156103c6573d6000803e3d6000fd5b505050506040513d60208110156103dc57600080fd5b50516001600160a01b03163314806104605750806001600160a01b0316638d97e0436040518163ffffffff1660e01b815260040160206040518083038186803b15801561042857600080fd5b505afa15801561043c573d6000803e3d6000fd5b505050506040513d602081101561045257600080fd5b50516001600160a01b031633145b6104b5576040517f08c379a000000000000000000000000000000000000000000000000000000000815260040180806020018281038252602a815260200180610668602a913960400191505060405180910390fd5b50565b6001805480820182557fb10e2d527612073b26eecdfd717e6a320cf44b4afac2b0732d9fcbe2b7fa0cf60180546001600160a01b0390931673ffffffffffffffffffffffffffffffffffffffff1990931683179055600091825260208290526040909120805460ff19169091179055565b60008061053583610604565b9150915081156105ff5760018054600019810190811061055157fe5b600091825260209091200154600180546001600160a01b03909216918390811061057757fe5b9060005260206000200160006101000a8154816001600160a01b0302191690836001600160a01b0316021790555060018054806105b057fe5b600082815260208082208301600019908101805473ffffffffffffffffffffffffffffffffffffffff191690559092019092556001600160a01b038516825281905260409020805460ff191690555b505050565b60008060005b60015481101561065957836001600160a01b03166001828154811061062b57fe5b6000918252602090912001546001600160a01b0316141561065157600192509050610662565b60010161060a565b50600080915091505b91509156fe4f6e6c7920676f7665726e616e6365206f7220656d657267656e63792063616e2063616c6c2074686973a2646970667358221220130d568e5af5c8850045954c0db1a8031e6b540b46f552b330024dc9884cfe3364736f6c63430007060033",
  "devdoc": {
    "author": "Babylon Finance Protocol Abstraction for all the different vaults",
    "kind": "dev",
    "methods": {
      "updateVaults(address[],bool[])": {
        "params": {
          "_values": "List of booleans. True means valid vault",
          "_vaults": "List of Vault addresses"
        }
      }
    },
    "title": "YearnVaultRegistry",
    "version": 1
  },
  "userdoc": {
    "kind": "user",
    "methods": {
      "updateVaults(address[],bool[])": {
        "notice": "Adds/deletes Vaults"
      }
    },
    "version": 1
  },
  "storageLayout": {
    "storage": [
      {
        "astId": 54792,
        "contract": "contracts/registries/YearnVaultRegistry.sol:YearnVaultRegistry",
        "label": "vaults",
        "offset": 0,
        "slot": "0",
        "type": "t_mapping(t_address,t_bool)"
      },
      {
        "astId": 54795,
        "contract": "contracts/registries/YearnVaultRegistry.sol:YearnVaultRegistry",
        "label": "vaultList",
        "offset": 0,
        "slot": "1",
        "type": "t_array(t_address)dyn_storage"
      }
    ],
    "types": {
      "t_address": {
        "encoding": "inplace",
        "label": "address",
        "numberOfBytes": "20"
      },
      "t_array(t_address)dyn_storage": {
        "base": "t_address",
        "encoding": "dynamic_array",
        "label": "address[]",
        "numberOfBytes": "32"
      },
      "t_bool": {
        "encoding": "inplace",
        "label": "bool",
        "numberOfBytes": "1"
      },
      "t_mapping(t_address,t_bool)": {
        "encoding": "mapping",
        "key": "t_address",
        "label": "mapping(address => bool)",
        "numberOfBytes": "32",
        "value": "t_bool"
      }
    }
  }
}